{
  "transactions": [
    {
      "hash": "0xadb5e3cf400c7f86aa5e35fd76bcea00103ab5ba211e716fec9a7a27bf45c2e1",
      "transactionType": "CALL",
      "contractName": null,
      "contractAddress": "0x272d46ca49c87ab9e4cbd919cf35a32527d544db",
      "function": "addFeeToken(string)",
      "arguments": [
        "0x6a4dbc971533ba36bdc23ad70f5a7a12e064f4ae"
      ],
      "transaction": {
        "from": "0xe62ab4d111f968660c6b2188046f9b9ba53c4bae",
        "to": "0x272d46ca49c87ab9e4cbd919cf35a32527d544db",
        "gas": "0x2366f",
        "value": "0x0",
        "input": "0x12a6385f0000000000000000000000000000000000000000000000000000000000000020000000000000000000000000000000000000000000000000000000000000002a30783661346462633937313533336261333662646332336164373066356137613132653036346634616500000000000000000000000000000000000000000000",
        "nonce": "0x40",
        "chainId": "0x72617269"
      },
      "additionalContracts": [],
      "isFixedGasLimit": false
    },
    {
      "hash": null,
      "transactionType": "CALL",
      "contractName": null,
      "contractAddress": "0x272d46ca49c87ab9e4cbd919cf35a32527d544db",
      "function": "setFeeMultiplier(uint8,uint256)",
      "arguments": [
        "0",
        "2"
      ],
      "transaction": {
        "from": "0xe62ab4d111f968660c6b2188046f9b9ba53c4bae",
        "to": "0x272d46ca49c87ab9e4cbd919cf35a32527d544db",
        "gas": "0x9843",
        "value": "0x0",
        "input": "0x0ee24eb500000000000000000000000000000000000000000000000000000000000000000000000000000000000000000000000000000000000000000000000000000002",
        "nonce": "0x41",
        "chainId": "0x72617269"
      },
      "additionalContracts": [],
      "isFixedGasLimit": false
    },
    {
      "hash": null,
      "transactionType": "CALL",
      "contractName": null,
      "contractAddress": "0x272d46ca49c87ab9e4cbd919cf35a32527d544db",
      "function": "setFeeMultiplier(uint8,uint256)",
      "arguments": [
        "1",
        "10"
      ],
      "transaction": {
        "from": "0xe62ab4d111f968660c6b2188046f9b9ba53c4bae",
        "to": "0x272d46ca49c87ab9e4cbd919cf35a32527d544db",
        "gas": "0x103d2",
        "value": "0x0",
        "input": "0x0ee24eb50000000000000000000000000000000000000000000000000000000000000001000000000000000000000000000000000000000000000000000000000000000a",
        "nonce": "0x42",
        "chainId": "0x72617269"
      },
      "additionalContracts": [],
      "isFixedGasLimit": false
    },
    {
      "hash": null,
      "transactionType": "CALL",
      "contractName": null,
      "contractAddress": "0x272d46ca49c87ab9e4cbd919cf35a32527d544db",
      "function": "setFeeMultiplier(uint8,uint256)",
      "arguments": [
        "2",
        "1"
      ],
      "transaction": {
        "from": "0xe62ab4d111f968660c6b2188046f9b9ba53c4bae",
        "to": "0x272d46ca49c87ab9e4cbd919cf35a32527d544db",
        "gas": "0x1133d",
        "value": "0x0",
        "input": "0x0ee24eb500000000000000000000000000000000000000000000000000000000000000020000000000000000000000000000000000000000000000000000000000000001",
        "nonce": "0x43",
        "chainId": "0x72617269"
      },
      "additionalContracts": [],
      "isFixedGasLimit": false
    },
    {
      "hash": null,
      "transactionType": "CALL",
      "contractName": null,
      "contractAddress": "0x272d46ca49c87ab9e4cbd919cf35a32527d544db",
      "function": "setFeeMultiplier(uint8,uint256)",
      "arguments": [
        "3",
        "4"
      ],
      "transaction": {
        "from": "0xe62ab4d111f968660c6b2188046f9b9ba53c4bae",
        "to": "0x272d46ca49c87ab9e4cbd919cf35a32527d544db",
        "gas": "0x1135f",
        "value": "0x0",
        "input": "0x0ee24eb500000000000000000000000000000000000000000000000000000000000000030000000000000000000000000000000000000000000000000000000000000004",
        "nonce": "0x44",
        "chainId": "0x72617269"
      },
      "additionalContracts": [],
      "isFixedGasLimit": false
    },
    {
      "hash": null,
      "transactionType": "CALL",
      "contractName": null,
      "contractAddress": "0x272d46ca49c87ab9e4cbd919cf35a32527d544db",
      "function": "setFeeMultiplier(uint8,uint256)",
      "arguments": [
        "4",
        "4"
      ],
      "transaction": {
        "from": "0xe62ab4d111f968660c6b2188046f9b9ba53c4bae",
        "to": "0x272d46ca49c87ab9e4cbd919cf35a32527d544db",
        "gas": "0x1042a",
        "value": "0x0",
        "input": "0x0ee24eb500000000000000000000000000000000000000000000000000000000000000040000000000000000000000000000000000000000000000000000000000000004",
        "nonce": "0x45",
        "chainId": "0x72617269"
      },
      "additionalContracts": [],
      "isFixedGasLimit": false
    },
    {
      "hash": null,
      "transactionType": "CALL",
      "contractName": null,
      "contractAddress": "0x63e754dabf952456427b9958682d58aa07f85982",
      "function": "addChainContract(string,string)",
      "arguments": [
        "421614",
        "0x74972e7ff5561bd902e3ec3ddd5a22653088ca6f"
      ],
      "transaction": {
        "from": "0xe62ab4d111f968660c6b2188046f9b9ba53c4bae",
        "to": "0x63e754dabf952456427b9958682d58aa07f85982",
        "gas": "0x346ce",
        "value": "0x0",
        "input": "0x12d3fcfa0000000000000000000000000000000000000000000000000000000000000040000000000000000000000000000000000000000000000000000000000000008000000000000000000000000000000000000000000000000000000000000000063432313631340000000000000000000000000000000000000000000000000000000000000000000000000000000000000000000000000000000000000000002a30783734393732653766663535363162643930326533656333646464356132323635333038386361366600000000000000000000000000000000000000000000",
        "nonce": "0x46",
        "chainId": "0x72617269"
      },
      "additionalContracts": [],
      "isFixedGasLimit": false
    },
    {
      "hash": null,
      "transactionType": "CALL",
      "contractName": null,
      "contractAddress": "0x63e754dabf952456427b9958682d58aa07f85982",
      "function": "attachRWAX(uint256,uint256,string,string)",
      "arguments": [
        "1",
        "1",
        "421614",
        "0xb41c8b53ea014188ba6777233e04efddbf4877b1"
      ],
      "transaction": {
        "from": "0xe62ab4d111f968660c6b2188046f9b9ba53c4bae",
        "to": "0x63e754dabf952456427b9958682d58aa07f85982",
        "gas": "0x389ba",
        "value": "0x0",
        "input": "0x5cbee36a00000000000000000000000000000000000000000000000000000000000000010000000000000000000000000000000000000000000000000000000000000001000000000000000000000000000000000000000000000000000000000000008000000000000000000000000000000000000000000000000000000000000000c000000000000000000000000000000000000000000000000000000000000000063432313631340000000000000000000000000000000000000000000000000000000000000000000000000000000000000000000000000000000000000000002a30786234316338623533656130313431383862613637373732333365303465666464626634383737623100000000000000000000000000000000000000000000",
        "nonce": "0x47",
        "chainId": "0x72617269"
      },
      "additionalContracts": [],
      "isFixedGasLimit": false
    },
    {
      "hash": null,
      "transactionType": "CALL",
      "contractName": null,
      "contractAddress": "0x63e754dabf952456427b9958682d58aa07f85982",
      "function": "attachStorageManager(uint256,uint256,string,string)",
      "arguments": [
        "1",
        "1",
        "421614",
        "0x093eacfa2d856516ed71af96d7dc7c571e6ca2a6"
      ],
      "transaction": {
        "from": "0xe62ab4d111f968660c6b2188046f9b9ba53c4bae",
        "to": "0x63e754dabf952456427b9958682d58aa07f85982",
        "gas": "0x3c130",
        "value": "0x0",
        "input": "0x6bb884f300000000000000000000000000000000000000000000000000000000000000010000000000000000000000000000000000000000000000000000000000000001000000000000000000000000000000000000000000000000000000000000008000000000000000000000000000000000000000000000000000000000000000c000000000000000000000000000000000000000000000000000000000000000063432313631340000000000000000000000000000000000000000000000000000000000000000000000000000000000000000000000000000000000000000002a30783039336561636661326438353635313665643731616639366437646337633537316536636132613600000000000000000000000000000000000000000000",
        "nonce": "0x48",
        "chainId": "0x72617269"
      },
      "additionalContracts": [],
      "isFixedGasLimit": false
    },
    {
      "hash": null,
      "transactionType": "CALL",
      "contractName": null,
      "contractAddress": "0x272d46ca49c87ab9e4cbd919cf35a32527d544db",
      "function": "addFeeToken(string,string[],uint256[])",
      "arguments": [
        "421614",
        "[0x6a4dbc971533ba36bdc23ad70f5a7a12e064f4ae]",
        "[1000]"
      ],
      "transaction": {
        "from": "0xe62ab4d111f968660c6b2188046f9b9ba53c4bae",
        "to": "0x272d46ca49c87ab9e4cbd919cf35a32527d544db",
        "gas": "0x35381",
        "value": "0x0",
        "input": "0x437bf84f000000000000000000000000000000000000000000000000000000000000006000000000000000000000000000000000000000000000000000000000000000a000000000000000000000000000000000000000000000000000000000000001400000000000000000000000000000000000000000000000000000000000000006343231363134000000000000000000000000000000000000000000000000000000000000000000000000000000000000000000000000000000000000000000010000000000000000000000000000000000000000000000000000000000000020000000000000000000000000000000000000000000000000000000000000002a30783661346462633937313533336261333662646332336164373066356137613132653036346634616500000000000000000000000000000000000000000000000000000000000000000000000000000000000000000000000000000000000100000000000000000000000000000000000000000000000000000000000003e8",
        "nonce": "0x49",
        "chainId": "0x72617269"
      },
      "additionalContracts": [],
      "isFixedGasLimit": false
    },
    {
      "hash": null,
      "transactionType": "CALL",
      "contractName": null,
      "contractAddress": "0x63e754dabf952456427b9958682d58aa07f85982",
      "function": "addChainContract(string,string)",
      "arguments": [
        "80002",
        "0xdc432bc497a9e38f3ae319842777c9829aac47c4"
      ],
      "transaction": {
        "from": "0xe62ab4d111f968660c6b2188046f9b9ba53c4bae",
        "to": "0x63e754dabf952456427b9958682d58aa07f85982",
        "gas": "0x39471",
        "value": "0x0",
        "input": "0x12d3fcfa0000000000000000000000000000000000000000000000000000000000000040000000000000000000000000000000000000000000000000000000000000008000000000000000000000000000000000000000000000000000000000000000053830303032000000000000000000000000000000000000000000000000000000000000000000000000000000000000000000000000000000000000000000002a30786463343332626334393761396533386633616533313938343237373763393832396161633437633400000000000000000000000000000000000000000000",
        "nonce": "0x4a",
        "chainId": "0x72617269"
      },
      "additionalContracts": [],
      "isFixedGasLimit": false
    },
    {
      "hash": null,
      "transactionType": "CALL",
      "contractName": null,
      "contractAddress": "0x63e754dabf952456427b9958682d58aa07f85982",
      "function": "attachRWAX(uint256,uint256,string,string)",
      "arguments": [
        "1",
        "1",
        "80002",
        "0xd7155b99ca57aa4c0711a87b982f517de5a036de"
      ],
      "transaction": {
        "from": "0xe62ab4d111f968660c6b2188046f9b9ba53c4bae",
        "to": "0x63e754dabf952456427b9958682d58aa07f85982",
        "gas": "0x34a31",
        "value": "0x0",
        "input": "0x5cbee36a00000000000000000000000000000000000000000000000000000000000000010000000000000000000000000000000000000000000000000000000000000001000000000000000000000000000000000000000000000000000000000000008000000000000000000000000000000000000000000000000000000000000000c000000000000000000000000000000000000000000000000000000000000000053830303032000000000000000000000000000000000000000000000000000000000000000000000000000000000000000000000000000000000000000000002a30786437313535623939636135376161346330373131613837623938326635313764653561303336646500000000000000000000000000000000000000000000",
        "nonce": "0x4b",
        "chainId": "0x72617269"
      },
      "additionalContracts": [],
      "isFixedGasLimit": false
    },
    {
      "hash": null,
      "transactionType": "CALL",
      "contractName": null,
      "contractAddress": "0x63e754dabf952456427b9958682d58aa07f85982",
      "function": "attachStorageManager(uint256,uint256,string,string)",
      "arguments": [
        "1",
        "1",
        "80002",
        "0x3b44962bf264b8cebac13da24722faa27fc693a1"
      ],
      "transaction": {
        "from": "0xe62ab4d111f968660c6b2188046f9b9ba53c4bae",
        "to": "0x63e754dabf952456427b9958682d58aa07f85982",
        "gas": "0x34baf",
        "value": "0x0",
        "input": "0x6bb884f300000000000000000000000000000000000000000000000000000000000000010000000000000000000000000000000000000000000000000000000000000001000000000000000000000000000000000000000000000000000000000000008000000000000000000000000000000000000000000000000000000000000000c000000000000000000000000000000000000000000000000000000000000000053830303032000000000000000000000000000000000000000000000000000000000000000000000000000000000000000000000000000000000000000000002a30783362343439363262663236346238636562616331336461323437323266616132376663363933613100000000000000000000000000000000000000000000",
        "nonce": "0x4c",
        "chainId": "0x72617269"
      },
      "additionalContracts": [],
      "isFixedGasLimit": false
    },
    {
      "hash": null,
      "transactionType": "CALL",
      "contractName": null,
      "contractAddress": "0x272d46ca49c87ab9e4cbd919cf35a32527d544db",
      "function": "addFeeToken(string,string[],uint256[])",
      "arguments": [
        "80002",
        "[0x6a4dbc971533ba36bdc23ad70f5a7a12e064f4ae, 0x6a4dbc971533ba36bdc23ad70f5a7a12e064f4ae]",
        "[1000, 1000]"
      ],
      "transaction": {
        "from": "0xe62ab4d111f968660c6b2188046f9b9ba53c4bae",
        "to": "0x272d46ca49c87ab9e4cbd919cf35a32527d544db",
        "gas": "0x43dd3",
        "value": "0x0",
        "input": "0x437bf84f000000000000000000000000000000000000000000000000000000000000006000000000000000000000000000000000000000000000000000000000000000a000000000000000000000000000000000000000000000000000000000000001c0000000000000000000000000000000000000000000000000000000000000000538303030320000000000000000000000000000000000000000000000000000000000000000000000000000000000000000000000000000000000000000000002000000000000000000000000000000000000000000000000000000000000004000000000000000000000000000000000000000000000000000000000000000a0000000000000000000000000000000000000000000000000000000000000002a30783661346462633937313533336261333662646332336164373066356137613132653036346634616500000000000000000000000000000000000000000000000000000000000000000000000000000000000000000000000000000000002a30783661346462633937313533336261333662646332336164373066356137613132653036346634616500000000000000000000000000000000000000000000000000000000000000000000000000000000000000000000000000000000000200000000000000000000000000000000000000000000000000000000000003e800000000000000000000000000000000000000000000000000000000000003e8",
        "nonce": "0x4d",
        "chainId": "0x72617269"
      },
      "additionalContracts": [],
      "isFixedGasLimit": false
    },
    {
      "hash": null,
      "transactionType": "CALL",
      "contractName": null,
      "contractAddress": "0x63e754dabf952456427b9958682d58aa07f85982",
      "function": "addChainContract(string,string)",
      "arguments": [
        "84532",
        "0x443731488c75cdb209fbab813b574953ba973597"
      ],
      "transaction": {
        "from": "0xe62ab4d111f968660c6b2188046f9b9ba53c4bae",
        "to": "0x63e754dabf952456427b9958682d58aa07f85982",
        "gas": "0x3b1bd",
        "value": "0x0",
        "input": "0x12d3fcfa0000000000000000000000000000000000000000000000000000000000000040000000000000000000000000000000000000000000000000000000000000008000000000000000000000000000000000000000000000000000000000000000053834353332000000000000000000000000000000000000000000000000000000000000000000000000000000000000000000000000000000000000000000002a30783434333733313438386337356364623230396662616238313362353734393533626139373335393700000000000000000000000000000000000000000000",
        "nonce": "0x4e",
        "chainId": "0x72617269"
      },
      "additionalContracts": [],
      "isFixedGasLimit": false
    },
    {
      "hash": null,
      "transactionType": "CALL",
      "contractName": null,
      "contractAddress": "0x63e754dabf952456427b9958682d58aa07f85982",
      "function": "attachRWAX(uint256,uint256,string,string)",
      "arguments": [
        "1",
        "1",
        "84532",
        "0x842391b3c9103a0cfcae764a201150a08774e810"
      ],
      "transaction": {
        "from": "0xe62ab4d111f968660c6b2188046f9b9ba53c4bae",
        "to": "0x63e754dabf952456427b9958682d58aa07f85982",
        "gas": "0x366ae",
        "value": "0x0",
        "input": "0x5cbee36a00000000000000000000000000000000000000000000000000000000000000010000000000000000000000000000000000000000000000000000000000000001000000000000000000000000000000000000000000000000000000000000008000000000000000000000000000000000000000000000000000000000000000c000000000000000000000000000000000000000000000000000000000000000053834353332000000000000000000000000000000000000000000000000000000000000000000000000000000000000000000000000000000000000000000002a30783834323339316233633931303361306366636165373634613230313135306130383737346538313000000000000000000000000000000000000000000000",
        "nonce": "0x4f",
        "chainId": "0x72617269"
      },
      "additionalContracts": [],
      "isFixedGasLimit": false
    },
    {
      "hash": null,
      "transactionType": "CALL",
      "contractName": null,
      "contractAddress": "0x63e754dabf952456427b9958682d58aa07f85982",
      "function": "attachStorageManager(uint256,uint256,string,string)",
      "arguments": [
        "1",
        "1",
        "84532",
        "0x0174abcc86b7b8a54cfff7ad08f982bc894b914d"
      ],
      "transaction": {
        "from": "0xe62ab4d111f968660c6b2188046f9b9ba53c4bae",
        "to": "0x63e754dabf952456427b9958682d58aa07f85982",
        "gas": "0x36b00",
        "value": "0x0",
        "input": "0x6bb884f300000000000000000000000000000000000000000000000000000000000000010000000000000000000000000000000000000000000000000000000000000001000000000000000000000000000000000000000000000000000000000000008000000000000000000000000000000000000000000000000000000000000000c000000000000000000000000000000000000000000000000000000000000000053834353332000000000000000000000000000000000000000000000000000000000000000000000000000000000000000000000000000000000000000000002a30783031373461626363383662376238613534636666663761643038663938326263383934623931346400000000000000000000000000000000000000000000",
        "nonce": "0x50",
        "chainId": "0x72617269"
      },
      "additionalContracts": [],
      "isFixedGasLimit": false
    },
    {
      "hash": null,
      "transactionType": "CALL",
      "contractName": null,
      "contractAddress": "0x272d46ca49c87ab9e4cbd919cf35a32527d544db",
      "function": "addFeeToken(string,string[],uint256[])",
      "arguments": [
        "84532",
        "[0x6a4dbc971533ba36bdc23ad70f5a7a12e064f4ae, 0x6a4dbc971533ba36bdc23ad70f5a7a12e064f4ae, 0x6a4dbc971533ba36bdc23ad70f5a7a12e064f4ae]",
        "[1000, 1000, 1000]"
      ],
      "transaction": {
        "from": "0xe62ab4d111f968660c6b2188046f9b9ba53c4bae",
        "to": "0x272d46ca49c87ab9e4cbd919cf35a32527d544db",
        "gas": "0x5c0a8",
        "value": "0x0",
        "input": "0x437bf84f000000000000000000000000000000000000000000000000000000000000006000000000000000000000000000000000000000000000000000000000000000a00000000000000000000000000000000000000000000000000000000000000240000000000000000000000000000000000000000000000000000000000000000538343533320000000000000000000000000000000000000000000000000000000000000000000000000000000000000000000000000000000000000000000003000000000000000000000000000000000000000000000000000000000000006000000000000000000000000000000000000000000000000000000000000000c00000000000000000000000000000000000000000000000000000000000000120000000000000000000000000000000000000000000000000000000000000002a30783661346462633937313533336261333662646332336164373066356137613132653036346634616500000000000000000000000000000000000000000000000000000000000000000000000000000000000000000000000000000000002a30783661346462633937313533336261333662646332336164373066356137613132653036346634616500000000000000000000000000000000000000000000000000000000000000000000000000000000000000000000000000000000002a30783661346462633937313533336261333662646332336164373066356137613132653036346634616500000000000000000000000000000000000000000000000000000000000000000000000000000000000000000000000000000000000300000000000000000000000000000000000000000000000000000000000003e800000000000000000000000000000000000000000000000000000000000003e800000000000000000000000000000000000000000000000000000000000003e8",
        "nonce": "0x51",
        "chainId": "0x72617269"
      },
      "additionalContracts": [],
      "isFixedGasLimit": false
    },
    {
      "hash": null,
      "transactionType": "CALL",
      "contractName": null,
      "contractAddress": "0x63e754dabf952456427b9958682d58aa07f85982",
      "function": "addChainContract(string,string)",
      "arguments": [
        "59141",
        "0xd52966352e5a15dcb05cdfb4d8f54f565d487210"
      ],
      "transaction": {
        "from": "0xe62ab4d111f968660c6b2188046f9b9ba53c4bae",
        "to": "0x63e754dabf952456427b9958682d58aa07f85982",
        "gas": "0x39c43",
        "value": "0x0",
        "input": "0x12d3fcfa0000000000000000000000000000000000000000000000000000000000000040000000000000000000000000000000000000000000000000000000000000008000000000000000000000000000000000000000000000000000000000000000053539313431000000000000000000000000000000000000000000000000000000000000000000000000000000000000000000000000000000000000000000002a30786435323936363335326535613135646362303563646662346438663534663536356434383732313000000000000000000000000000000000000000000000",
        "nonce": "0x52",
        "chainId": "0x72617269"
      },
      "additionalContracts": [],
      "isFixedGasLimit": false
    },
    {
      "hash": null,
      "transactionType": "CALL",
      "contractName": null,
      "contractAddress": "0x63e754dabf952456427b9958682d58aa07f85982",
      "function": "attachRWAX(uint256,uint256,string,string)",
      "arguments": [
        "1",
        "1",
        "59141",
        "0x7dabce18c66b5c857355a815b6c1e926c701c23f"
      ],
      "transaction": {
        "from": "0xe62ab4d111f968660c6b2188046f9b9ba53c4bae",
        "to": "0x63e754dabf952456427b9958682d58aa07f85982",
        "gas": "0x387b4",
        "value": "0x0",
        "input": "0x5cbee36a00000000000000000000000000000000000000000000000000000000000000010000000000000000000000000000000000000000000000000000000000000001000000000000000000000000000000000000000000000000000000000000008000000000000000000000000000000000000000000000000000000000000000c000000000000000000000000000000000000000000000000000000000000000053539313431000000000000000000000000000000000000000000000000000000000000000000000000000000000000000000000000000000000000000000002a30783764616263653138633636623563383537333535613831356236633165393236633730316332336600000000000000000000000000000000000000000000",
        "nonce": "0x53",
        "chainId": "0x72617269"
      },
      "additionalContracts": [],
      "isFixedGasLimit": false
    },
    {
      "hash": null,
      "transactionType": "CALL",
      "contractName": null,
      "contractAddress": "0x63e754dabf952456427b9958682d58aa07f85982",
      "function": "attachStorageManager(uint256,uint256,string,string)",
      "arguments": [
        "1",
        "1",
        "59141",
        "0x4a82933a6d097a1f4c99880e4a3b4c7b7d291765"
      ],
      "transaction": {
        "from": "0xe62ab4d111f968660c6b2188046f9b9ba53c4bae",
        "to": "0x63e754dabf952456427b9958682d58aa07f85982",
        "gas": "0x3bb70",
        "value": "0x0",
        "input": "0x6bb884f300000000000000000000000000000000000000000000000000000000000000010000000000000000000000000000000000000000000000000000000000000001000000000000000000000000000000000000000000000000000000000000008000000000000000000000000000000000000000000000000000000000000000c000000000000000000000000000000000000000000000000000000000000000053539313431000000000000000000000000000000000000000000000000000000000000000000000000000000000000000000000000000000000000000000002a30783461383239333361366430393761316634633939383830653461336234633762376432393137363500000000000000000000000000000000000000000000",
        "nonce": "0x54",
        "chainId": "0x72617269"
      },
      "additionalContracts": [],
      "isFixedGasLimit": false
    },
    {
      "hash": null,
      "transactionType": "CALL",
      "contractName": null,
      "contractAddress": "0x272d46ca49c87ab9e4cbd919cf35a32527d544db",
      "function": "addFeeToken(string,string[],uint256[])",
      "arguments": [
        "59141",
        "[0x6a4dbc971533ba36bdc23ad70f5a7a12e064f4ae, 0x6a4dbc971533ba36bdc23ad70f5a7a12e064f4ae, 0x6a4dbc971533ba36bdc23ad70f5a7a12e064f4ae, 0x6a4dbc971533ba36bdc23ad70f5a7a12e064f4ae]",
        "[1000, 1000, 1000, 1000]"
      ],
      "transaction": {
        "from": "0xe62ab4d111f968660c6b2188046f9b9ba53c4bae",
        "to": "0x272d46ca49c87ab9e4cbd919cf35a32527d544db",
        "gas": "0x738b2",
        "value": "0x0",
        "input": "0x437bf84f000000000000000000000000000000000000000000000000000000000000006000000000000000000000000000000000000000000000000000000000000000a000000000000000000000000000000000000000000000000000000000000002c0000000000000000000000000000000000000000000000000000000000000000535393134310000000000000000000000000000000000000000000000000000000000000000000000000000000000000000000000000000000000000000000004000000000000000000000000000000000000000000000000000000000000008000000000000000000000000000000000000000000000000000000000000000e0000000000000000000000000000000000000000000000000000000000000014000000000000000000000000000000000000000000000000000000000000001a0000000000000000000000000000000000000000000000000000000000000002a30783661346462633937313533336261333662646332336164373066356137613132653036346634616500000000000000000000000000000000000000000000000000000000000000000000000000000000000000000000000000000000002a30783661346462633937313533336261333662646332336164373066356137613132653036346634616500000000000000000000000000000000000000000000000000000000000000000000000000000000000000000000000000000000002a30783661346462633937313533336261333662646332336164373066356137613132653036346634616500000000000000000000000000000000000000000000000000000000000000000000000000000000000000000000000000000000002a30783661346462633937313533336261333662646332336164373066356137613132653036346634616500000000000000000000000000000000000000000000000000000000000000000000000000000000000000000000000000000000000400000000000000000000000000000000000000000000000000000000000003e800000000000000000000000000000000000000000000000000000000000003e800000000000000000000000000000000000000000000000000000000000003e800000000000000000000000000000000000000000000000000000000000003e8",
        "nonce": "0x55",
        "chainId": "0x72617269"
      },
      "additionalContracts": [],
      "isFixedGasLimit": false
    },
    {
      "hash": null,
      "transactionType": "CALL",
      "contractName": null,
      "contractAddress": "0x63e754dabf952456427b9958682d58aa07f85982",
      "function": "addChainContract(string,string)",
      "arguments": [
        "71",
        "0x25903bea74d4fbe43b7d30703d2a740841dfb7b2"
      ],
      "transaction": {
        "from": "0xe62ab4d111f968660c6b2188046f9b9ba53c4bae",
        "to": "0x63e754dabf952456427b9958682d58aa07f85982",
        "gas": "0x3ebbc",
        "value": "0x0",
        "input": "0x12d3fcfa0000000000000000000000000000000000000000000000000000000000000040000000000000000000000000000000000000000000000000000000000000008000000000000000000000000000000000000000000000000000000000000000023731000000000000000000000000000000000000000000000000000000000000000000000000000000000000000000000000000000000000000000000000002a30783235393033626561373464346662653433623764333037303364326137343038343164666237623200000000000000000000000000000000000000000000",
        "nonce": "0x56",
        "chainId": "0x72617269"
      },
      "additionalContracts": [],
      "isFixedGasLimit": false
    },
    {
      "hash": null,
      "transactionType": "CALL",
      "contractName": null,
      "contractAddress": "0x63e754dabf952456427b9958682d58aa07f85982",
      "function": "attachRWAX(uint256,uint256,string,string)",
      "arguments": [
        "1",
        "1",
        "71",
        "0x45cdde4bdabc97b3ec02b1271432ceebc04d4c53"
      ],
      "transaction": {
        "from": "0xe62ab4d111f968660c6b2188046f9b9ba53c4bae",
        "to": "0x63e754dabf952456427b9958682d58aa07f85982",
        "gas": "0x3d9d3",
        "value": "0x0",
        "input": "0x5cbee36a00000000000000000000000000000000000000000000000000000000000000010000000000000000000000000000000000000000000000000000000000000001000000000000000000000000000000000000000000000000000000000000008000000000000000000000000000000000000000000000000000000000000000c000000000000000000000000000000000000000000000000000000000000000023731000000000000000000000000000000000000000000000000000000000000000000000000000000000000000000000000000000000000000000000000002a30783435636464653462646162633937623365633032623132373134333263656562633034643463353300000000000000000000000000000000000000000000",
        "nonce": "0x57",
        "chainId": "0x72617269"
      },
      "additionalContracts": [],
      "isFixedGasLimit": false
    },
    {
      "hash": null,
      "transactionType": "CALL",
      "contractName": null,
      "contractAddress": "0x63e754dabf952456427b9958682d58aa07f85982",
      "function": "attachStorageManager(uint256,uint256,string,string)",
      "arguments": [
        "1",
        "1",
        "71",
        "0x6f0ddf81d8145301058e37cc51a485ae6b44bcf9"
      ],
      "transaction": {
        "from": "0xe62ab4d111f968660c6b2188046f9b9ba53c4bae",
        "to": "0x63e754dabf952456427b9958682d58aa07f85982",
        "gas": "0x3a094",
        "value": "0x0",
        "input": "0x6bb884f300000000000000000000000000000000000000000000000000000000000000010000000000000000000000000000000000000000000000000000000000000001000000000000000000000000000000000000000000000000000000000000008000000000000000000000000000000000000000000000000000000000000000c000000000000000000000000000000000000000000000000000000000000000023731000000000000000000000000000000000000000000000000000000000000000000000000000000000000000000000000000000000000000000000000002a30783666306464663831643831343533303130353865333763633531613438356165366234346263663900000000000000000000000000000000000000000000",
        "nonce": "0x58",
        "chainId": "0x72617269"
      },
      "additionalContracts": [],
      "isFixedGasLimit": false
    },
    {
      "hash": null,
      "transactionType": "CALL",
      "contractName": null,
      "contractAddress": "0x272d46ca49c87ab9e4cbd919cf35a32527d544db",
      "function": "addFeeToken(string,string[],uint256[])",
      "arguments": [
        "71",
        "[0x6a4dbc971533ba36bdc23ad70f5a7a12e064f4ae, 0x6a4dbc971533ba36bdc23ad70f5a7a12e064f4ae, 0x6a4dbc971533ba36bdc23ad70f5a7a12e064f4ae, 0x6a4dbc971533ba36bdc23ad70f5a7a12e064f4ae, 0x6a4dbc971533ba36bdc23ad70f5a7a12e064f4ae]",
        "[1000, 1000, 1000, 1000, 1000]"
      ],
      "transaction": {
        "from": "0xe62ab4d111f968660c6b2188046f9b9ba53c4bae",
        "to": "0x272d46ca49c87ab9e4cbd919cf35a32527d544db",
        "gas": "0x92d03",
        "value": "0x0",
        "input": "0x437bf84f000000000000000000000000000000000000000000000000000000000000006000000000000000000000000000000000000000000000000000000000000000a0000000000000000000000000000000000000000000000000000000000000034000000000000000000000000000000000000000000000000000000000000000023731000000000000000000000000000000000000000000000000000000000000000000000000000000000000000000000000000000000000000000000000000500000000000000000000000000000000000000000000000000000000000000a00000000000000000000000000000000000000000000000000000000000000100000000000000000000000000000000000000000000000000000000000000016000000000000000000000000000000000000000000000000000000000000001c00000000000000000000000000000000000000000000000000000000000000220000000000000000000000000000000000000000000000000000000000000002a30783661346462633937313533336261333662646332336164373066356137613132653036346634616500000000000000000000000000000000000000000000000000000000000000000000000000000000000000000000000000000000002a30783661346462633937313533336261333662646332336164373066356137613132653036346634616500000000000000000000000000000000000000000000000000000000000000000000000000000000000000000000000000000000002a30783661346462633937313533336261333662646332336164373066356137613132653036346634616500000000000000000000000000000000000000000000000000000000000000000000000000000000000000000000000000000000002a30783661346462633937313533336261333662646332336164373066356137613132653036346634616500000000000000000000000000000000000000000000000000000000000000000000000000000000000000000000000000000000002a30783661346462633937313533336261333662646332336164373066356137613132653036346634616500000000000000000000000000000000000000000000000000000000000000000000000000000000000000000000000000000000000500000000000000000000000000000000000000000000000000000000000003e800000000000000000000000000000000000000000000000000000000000003e800000000000000000000000000000000000000000000000000000000000003e800000000000000000000000000000000000000000000000000000000000003e800000000000000000000000000000000000000000000000000000000000003e8",
        "nonce": "0x59",
        "chainId": "0x72617269"
      },
      "additionalContracts": [],
      "isFixedGasLimit": false
    }
  ],
  "receipts": [
    {
      "status": "0x1",
      "cumulativeGasUsed": "0x1feaf",
      "logs": [
        {
          "address": "0x272d46ca49c87ab9e4cbd919cf35a32527d544db",
          "topics": [
            "0x1394cfab38f3fc78ed77ea6f9318782a446d96e7dc8e9a6b0149f6be25c08bcf",
            "0x0000000000000000000000006a4dbc971533ba36bdc23ad70f5a7a12e064f4ae"
          ],
          "data": "0x",
          "blockHash": "0x96c95b910a9fbf7a92e663403463d0ab6c9799097dc607d1bfbcb8232a09047d",
          "blockNumber": "0x9e39f",
          "transactionHash": "0xadb5e3cf400c7f86aa5e35fd76bcea00103ab5ba211e716fec9a7a27bf45c2e1",
          "transactionIndex": "0x1",
          "logIndex": "0x0",
          "removed": false
        }
      ],
      "logsBloom": "0x00000000000000000000000000000000000200000000000000000000000000000000000000000000000000000000000000000000000000001000000000000000000000000000000000000000000000000000001000000000000000000000000000000000000000000000000000000000000000000002000000000000000000000000000100000000000000000000000000000000000000000000000000000000000000000000000000000000000000000000000100000000000000000000000000000000000000000000000000000000000000002001020000000000000000000000000000000000000000000000000000000000000000000000000000000000",
      "type": "0x2",
      "transactionHash": "0xadb5e3cf400c7f86aa5e35fd76bcea00103ab5ba211e716fec9a7a27bf45c2e1",
      "transactionIndex": "0x1",
      "blockHash": "0x96c95b910a9fbf7a92e663403463d0ab6c9799097dc607d1bfbcb8232a09047d",
      "blockNumber": "0x9e39f",
      "gasUsed": "0x1feaf",
      "effectiveGasPrice": "0x5f5e100",
      "from": "0xe62ab4d111f968660c6b2188046f9b9ba53c4bae",
      "to": "0x272d46ca49c87ab9e4cbd919cf35a32527d544db",
      "contractAddress": null,
      "gasUsedForL1": "0x6498",
      "l1BlockNumber": "0x6a9bc0"
    }
  ],
  "libraries": [],
  "pending": [],
  "returns": {},
  "timestamp": 1730420236,
  "chain": 1918988905,
  "commit": "34a11392"
}