{
  "transactions": [
    {
      "hash": "0xa4893cbd20c600ffdd66bf56fc5a8d9b57082aff629785ee8380d84df666caba",
      "transactionType": "CALL",
      "contractName": null,
      "contractAddress": "0x58b610a359c870e0fc941139821a51f5aa23f14e",
      "function": "addTxSender(address)",
      "arguments": [
        "0xa0CDAc76fA51aa65402137e3FA5357432Af02e02"
      ],
      "transaction": {
        "from": "0xc3ca11bd8e131471904dced927b3fb7edb453179",
        "to": "0x58b610a359c870e0fc941139821a51f5aa23f14e",
        "gas": "0xbed3",
        "value": "0x0",
        "input": "0xeebd14af000000000000000000000000a0cdac76fa51aa65402137e3fa5357432af02e02",
        "nonce": "0xb5",
        "chainId": "0x14a34"
      },
      "additionalContracts": [],
      "isFixedGasLimit": false
    },
    {
      "hash": "0x15356673e44ea4f4227b98ab4587318a7facf46594f0ae768255a5fe09176e88",
      "transactionType": "CALL",
      "contractName": null,
      "contractAddress": "0x2f925d6512b2bbb00f5a36d8b18e01fcf35f7dc7",
      "function": "addTxSender(address)",
      "arguments": [
        "0xa0CDAc76fA51aa65402137e3FA5357432Af02e02"
      ],
      "transaction": {
        "from": "0xc3ca11bd8e131471904dced927b3fb7edb453179",
        "to": "0x2f925d6512b2bbb00f5a36d8b18e01fcf35f7dc7",
        "gas": "0xc9ed",
        "value": "0x0",
        "input": "0xeebd14af000000000000000000000000a0cdac76fa51aa65402137e3fa5357432af02e02",
        "nonce": "0xb6",
        "chainId": "0x14a34"
      },
      "additionalContracts": [],
      "isFixedGasLimit": false
    },
    {
      "hash": "0x489e5f6628a97200828a6a3f604a5215dc5c58202ba3842fbcba4525e40ea71c",
      "transactionType": "CALL",
      "contractName": null,
      "contractAddress": "0x9c9e9fad264089339aad66ff3e32d2ba1ddf6951",
      "function": "addTxSender(address)",
      "arguments": [
        "0xa0CDAc76fA51aa65402137e3FA5357432Af02e02"
      ],
      "transaction": {
        "from": "0xc3ca11bd8e131471904dced927b3fb7edb453179",
        "to": "0x9c9e9fad264089339aad66ff3e32d2ba1ddf6951",
        "gas": "0xcaef",
        "value": "0x0",
        "input": "0xeebd14af000000000000000000000000a0cdac76fa51aa65402137e3fa5357432af02e02",
        "nonce": "0xb7",
        "chainId": "0x14a34"
      },
      "additionalContracts": [],
      "isFixedGasLimit": false
    },
    {
      "hash": "0xb0a605116276dd0303b9bfaf729602d77c1782bde3b357c9ffefd884e8e66891",
      "transactionType": "CALL",
      "contractName": null,
      "contractAddress": "0xe912f7c7a59470a6e3f178388106e3caa9e6fbd1",
      "function": "addTxSender(address)",
      "arguments": [
        "0xa0CDAc76fA51aa65402137e3FA5357432Af02e02"
      ],
      "transaction": {
        "from": "0xc3ca11bd8e131471904dced927b3fb7edb453179",
        "to": "0xe912f7c7a59470a6e3f178388106e3caa9e6fbd1",
        "gas": "0xca6d",
        "value": "0x0",
        "input": "0xeebd14af000000000000000000000000a0cdac76fa51aa65402137e3fa5357432af02e02",
        "nonce": "0xb8",
        "chainId": "0x14a34"
      },
      "additionalContracts": [],
      "isFixedGasLimit": false
    },
    {
      "hash": "0xdc808cdf0b6523240f35ce39126652903881e1373abec743824a37341959925f",
      "transactionType": "CALL",
      "contractName": null,
      "contractAddress": "0x92228b058f25bc4fb333fa296dddecbddf6496f3",
      "function": "addTxSender(address)",
      "arguments": [
        "0xa0CDAc76fA51aa65402137e3FA5357432Af02e02"
      ],
      "transaction": {
        "from": "0xc3ca11bd8e131471904dced927b3fb7edb453179",
        "to": "0x92228b058f25bc4fb333fa296dddecbddf6496f3",
        "gas": "0xc90d",
        "value": "0x0",
        "input": "0xeebd14af000000000000000000000000a0cdac76fa51aa65402137e3fa5357432af02e02",
        "nonce": "0xb9",
        "chainId": "0x14a34"
      },
      "additionalContracts": [],
      "isFixedGasLimit": false
    },
    {
      "hash": "0x7b0ca8757e4e8543b28ae5c1d66adeff0aa5a667983630867f9da509c63f8b0b",
      "transactionType": "CALL",
      "contractName": null,
      "contractAddress": "0x2af842c6517cf30fb3456aef485230e0dd085845",
      "function": "addTxSender(address)",
      "arguments": [
        "0xa0CDAc76fA51aa65402137e3FA5357432Af02e02"
      ],
      "transaction": {
        "from": "0xc3ca11bd8e131471904dced927b3fb7edb453179",
        "to": "0x2af842c6517cf30fb3456aef485230e0dd085845",
        "gas": "0xc9ee",
        "value": "0x0",
        "input": "0xeebd14af000000000000000000000000a0cdac76fa51aa65402137e3fa5357432af02e02",
        "nonce": "0xba",
        "chainId": "0x14a34"
      },
      "additionalContracts": [],
      "isFixedGasLimit": false
    },
    {
      "hash": "0xfa18981f0c8288e713c45e440cfcb301da47cedb1f211ca2c175c082b4df40ab",
      "transactionType": "CALL",
      "contractName": null,
      "contractAddress": "0x2026027054f5bebceb650abd62dc623e327658e7",
      "function": "addTxSender(address)",
      "arguments": [
        "0xa0CDAc76fA51aa65402137e3FA5357432Af02e02"
      ],
      "transaction": {
        "from": "0xc3ca11bd8e131471904dced927b3fb7edb453179",
        "to": "0x2026027054f5bebceb650abd62dc623e327658e7",
        "gas": "0xc91b",
        "value": "0x0",
        "input": "0xeebd14af000000000000000000000000a0cdac76fa51aa65402137e3fa5357432af02e02",
        "nonce": "0xbb",
        "chainId": "0x14a34"
      },
      "additionalContracts": [],
      "isFixedGasLimit": false
    }
  ],
  "receipts": [
    {
      "status": "0x1",
      "cumulativeGasUsed": "0x745dd5",
      "logs": [
        {
          "address": "0x58b610a359c870e0fc941139821a51f5aa23f14e",
          "topics": [
            "0xbfb8b3e2f6221ae729e9cacb0d35f5d9be686ba10cb1d4e34b646bbb87f7a269",
            "0x000000000000000000000000a0cdac76fa51aa65402137e3fa5357432af02e02"
          ],
          "data": "0x0000000000000000000000000000000000000000000000000000000000000001",
          "blockHash": "0x6b67bd36778cfba95b554f9bed78d9eb25a47d8ac628012b04a4d39b79c555cd",
          "blockNumber": "0x1e0e43e",
          "blockTimestamp": "0x68d5275c",
          "transactionHash": "0xa4893cbd20c600ffdd66bf56fc5a8d9b57082aff629785ee8380d84df666caba",
          "transactionIndex": "0x11",
          "logIndex": "0x10e",
          "removed": false
        }
      ],
      "logsBloom": "0x00000000000010000000000000800000000000000000000000000000000000000000000000000000000000000000000000000020000000000000000000000000000040000000000000000000000000000000000000000000000000000000000000000000000000000000000000000000020000000000000000000002000000000000000000000000000000000000000000000000000000000000000000000000000000000100000000000000000000000000000000000000000000000000000000000000000000000000000000000000000000000000000000000000000000000000000000010000000000080000000000000000000000000000000000000000",
      "type": "0x2",
      "transactionHash": "0xa4893cbd20c600ffdd66bf56fc5a8d9b57082aff629785ee8380d84df666caba",
      "transactionIndex": "0x11",
      "blockHash": "0x6b67bd36778cfba95b554f9bed78d9eb25a47d8ac628012b04a4d39b79c555cd",
      "blockNumber": "0x1e0e43e",
      "gasUsed": "0x8a28",
      "effectiveGasPrice": "0xf43e6",
      "from": "0xc3ca11bd8e131471904dced927b3fb7edb453179",
      "to": "0x58b610a359c870e0fc941139821a51f5aa23f14e",
      "contractAddress": null,
      "l1BaseFeeScalar": "0x44d",
      "l1BlobBaseFee": "0x1",
      "l1BlobBaseFeeScalar": "0xa118b",
      "l1Fee": "0x5a",
      "l1GasPrice": "0xe",
      "l1GasUsed": "0x640"
    },
    {
      "status": "0x1",
      "cumulativeGasUsed": "0x1f1ea5",
      "logs": [
        {
          "address": "0x2f925d6512b2bbb00f5a36d8b18e01fcf35f7dc7",
          "topics": [
            "0xbfb8b3e2f6221ae729e9cacb0d35f5d9be686ba10cb1d4e34b646bbb87f7a269",
            "0x000000000000000000000000a0cdac76fa51aa65402137e3fa5357432af02e02"
          ],
          "data": "0x0000000000000000000000000000000000000000000000000000000000000001",
          "blockHash": "0xb75063960e24ceb6bd36dc2f86add91272c3aa3b09f5785f4e6fa8efda76c2c9",
          "blockNumber": "0x1e0e440",
          "blockTimestamp": "0x68d52760",
          "transactionHash": "0x15356673e44ea4f4227b98ab4587318a7facf46594f0ae768255a5fe09176e88",
          "transactionIndex": "0xa",
          "logIndex": "0x30",
          "removed": false
        }
      ],
      "logsBloom": "0x00000000000000000000000000800000000000000000000000000000000000000000000000000000000000000000000000000020000000000000000000000000000040000000000000000000000000000000000000000000000000000000000000000000000000000000000000000000020000000000000000000002000000000000000400000000000000000000000000000000000000000000000000000000000000000000000000000000000000000000000000000000000000000000004000000000000000000000000000004000000000000000000000000000000000000000000000010000000000000000000000000000000000000000000000000000",
      "type": "0x2",
      "transactionHash": "0x15356673e44ea4f4227b98ab4587318a7facf46594f0ae768255a5fe09176e88",
      "transactionIndex": "0xa",
      "blockHash": "0xb75063960e24ceb6bd36dc2f86add91272c3aa3b09f5785f4e6fa8efda76c2c9",
      "blockNumber": "0x1e0e440",
      "gasUsed": "0x8a12",
      "effectiveGasPrice": "0xf43e4",
      "from": "0xc3ca11bd8e131471904dced927b3fb7edb453179",
      "to": "0x2f925d6512b2bbb00f5a36d8b18e01fcf35f7dc7",
      "contractAddress": null,
      "l1BaseFeeScalar": "0x44d",
      "l1BlobBaseFee": "0x1",
      "l1BlobBaseFeeScalar": "0xa118b",
      "l1Fee": "0x5a",
      "l1GasPrice": "0xe",
      "l1GasUsed": "0x640"
    },
    {
      "status": "0x1",
      "cumulativeGasUsed": "0x8e77ab",
      "logs": [
        {
          "address": "0x9c9e9fad264089339aad66ff3e32d2ba1ddf6951",
          "topics": [
            "0xbfb8b3e2f6221ae729e9cacb0d35f5d9be686ba10cb1d4e34b646bbb87f7a269",
            "0x000000000000000000000000a0cdac76fa51aa65402137e3fa5357432af02e02"
          ],
          "data": "0x0000000000000000000000000000000000000000000000000000000000000001",
          "blockHash": "0xc28e318a93e6df91cd1b087eed0dfbb46799d875f95146b64d95abc9818c4379",
          "blockNumber": "0x1e0e441",
          "blockTimestamp": "0x68d52762",
          "transactionHash": "0x489e5f6628a97200828a6a3f604a5215dc5c58202ba3842fbcba4525e40ea71c",
          "transactionIndex": "0x1e",
          "logIndex": "0xfb",
          "removed": false
        }
      ],
      "logsBloom": "0x00000000000000000000000000800000000000000000000000000000000000000000000000000000000000000000000000000020000000000000000000000000000040000000000000000000000000000000000000000000000000000000000000000000000000000000000000000000020000000000000000000002000000000000000000000000000000000000000000000000000000000000000000000000000000000000000000000000000000000000000000000000000000000000000000000000000000000000000800000000000000000000000000000000000002000000400000010000000000000000000000000000000000000000000000000000",
      "type": "0x2",
      "transactionHash": "0x489e5f6628a97200828a6a3f604a5215dc5c58202ba3842fbcba4525e40ea71c",
      "transactionIndex": "0x1e",
      "blockHash": "0xc28e318a93e6df91cd1b087eed0dfbb46799d875f95146b64d95abc9818c4379",
      "blockNumber": "0x1e0e441",
      "gasUsed": "0x8ac3",
      "effectiveGasPrice": "0xf43e6",
      "from": "0xc3ca11bd8e131471904dced927b3fb7edb453179",
      "to": "0x9c9e9fad264089339aad66ff3e32d2ba1ddf6951",
      "contractAddress": null,
      "l1BaseFeeScalar": "0x44d",
      "l1BlobBaseFee": "0x1",
      "l1BlobBaseFeeScalar": "0xa118b",
      "l1Fee": "0x5a",
      "l1GasPrice": "0xe",
      "l1GasUsed": "0x640"
    },
    {
      "status": "0x1",
      "cumulativeGasUsed": "0x18368f",
      "logs": [
        {
          "address": "0xe912f7c7a59470a6e3f178388106e3caa9e6fbd1",
          "topics": [
            "0xbfb8b3e2f6221ae729e9cacb0d35f5d9be686ba10cb1d4e34b646bbb87f7a269",
            "0x000000000000000000000000a0cdac76fa51aa65402137e3fa5357432af02e02"
          ],
          "data": "0x0000000000000000000000000000000000000000000000000000000000000001",
          "blockHash": "0xe5e4ff0c3f4df344c950623b54b3ff5d3605d6a6b9e3216ce13c5f7a9d6d1def",
          "blockNumber": "0x1e0e443",
          "blockTimestamp": "0x68d52766",
          "transactionHash": "0xb0a605116276dd0303b9bfaf729602d77c1782bde3b357c9ffefd884e8e66891",
          "transactionIndex": "0x4",
          "logIndex": "0x52",
          "removed": false
        }
      ],
      "logsBloom": "0x00000000000000000000000000800000000000000000000000000000000004000000000000000000000000000000000000000020000000000000000000000000000040020000000000010000000000000000000000000000000000000000000000000000000000000000000000000000020000000000000000000002000000000000000000000000000000000000000000000000000000000000000000000000000000000000000000000000000000000000000000000000000000000000000000000000000000000000000000000000000000000000000000000000000000000000000000010000000000000000000000000000000000000000000000000000",
      "type": "0x2",
      "transactionHash": "0xb0a605116276dd0303b9bfaf729602d77c1782bde3b357c9ffefd884e8e66891",
      "transactionIndex": "0x4",
      "blockHash": "0xe5e4ff0c3f4df344c950623b54b3ff5d3605d6a6b9e3216ce13c5f7a9d6d1def",
      "blockNumber": "0x1e0e443",
      "gasUsed": "0x8a6a",
      "effectiveGasPrice": "0xf43e2",
      "from": "0xc3ca11bd8e131471904dced927b3fb7edb453179",
      "to": "0xe912f7c7a59470a6e3f178388106e3caa9e6fbd1",
      "contractAddress": null,
      "l1BaseFeeScalar": "0x44d",
      "l1BlobBaseFee": "0x1",
      "l1BlobBaseFeeScalar": "0xa118b",
      "l1Fee": "0x5a",
      "l1GasPrice": "0xe",
      "l1GasUsed": "0x640"
    },
    {
      "status": "0x1",
      "cumulativeGasUsed": "0xfa1c62",
      "logs": [
        {
          "address": "0x92228b058f25bc4fb333fa296dddecbddf6496f3",
          "topics": [
            "0xbfb8b3e2f6221ae729e9cacb0d35f5d9be686ba10cb1d4e34b646bbb87f7a269",
            "0x000000000000000000000000a0cdac76fa51aa65402137e3fa5357432af02e02"
          ],
          "data": "0x0000000000000000000000000000000000000000000000000000000000000001",
          "blockHash": "0x8b18cef7cfd92b92983bcbeb27a48d639cd89882972a02aeb099c7f2f0c1b697",
          "blockNumber": "0x1e0e444",
          "blockTimestamp": "0x68d52768",
          "transactionHash": "0xdc808cdf0b6523240f35ce39126652903881e1373abec743824a37341959925f",
          "transactionIndex": "0x17",
          "logIndex": "0x140",
          "removed": false
        }
      ],
      "logsBloom": "0x00000000000000000000000000800000000000000000000000000000000000000000000000000000000000000000000000000020000000000000000000000000000040000000000000000000000000000000000000000000000000000000000000000000000000000000000000000000020000000000000000000002000000000000000000000000000000000000000000000000000000008010000000000000000000000000000000000000000000000000000000000000000000000000000000000000002000000000000000000000000000000000000000000000000000000000000000010000000000000000000000000000000000000000000000000000",
      "type": "0x2",
      "transactionHash": "0xdc808cdf0b6523240f35ce39126652903881e1373abec743824a37341959925f",
      "transactionIndex": "0x17",
      "blockHash": "0x8b18cef7cfd92b92983bcbeb27a48d639cd89882972a02aeb099c7f2f0c1b697",
      "blockNumber": "0x1e0e444",
      "gasUsed": "0x8979",
      "effectiveGasPrice": "0xf43e5",
      "from": "0xc3ca11bd8e131471904dced927b3fb7edb453179",
      "to": "0x92228b058f25bc4fb333fa296dddecbddf6496f3",
      "contractAddress": null,
      "l1BaseFeeScalar": "0x44d",
      "l1BlobBaseFee": "0x1",
      "l1BlobBaseFeeScalar": "0xa118b",
      "l1Fee": "0x5a",
      "l1GasPrice": "0xe",
      "l1GasUsed": "0x640"
    },
    {
      "status": "0x1",
      "cumulativeGasUsed": "0x914cab",
      "logs": [
        {
          "address": "0x2af842c6517cf30fb3456aef485230e0dd085845",
          "topics": [
            "0xbfb8b3e2f6221ae729e9cacb0d35f5d9be686ba10cb1d4e34b646bbb87f7a269",
            "0x000000000000000000000000a0cdac76fa51aa65402137e3fa5357432af02e02"
          ],
          "data": "0x0000000000000000000000000000000000000000000000000000000000000001",
          "blockHash": "0x67fdf2c036495a4d54880dbb6e6ef7d096cb79273f13e10ebcbb1ece698868e0",
          "blockNumber": "0x1e0e445",
          "blockTimestamp": "0x68d5276a",
          "transactionHash": "0x7b0ca8757e4e8543b28ae5c1d66adeff0aa5a667983630867f9da509c63f8b0b",
          "transactionIndex": "0x16",
          "logIndex": "0x173",
          "removed": false
        }
      ],
      "logsBloom": "0x00000000000000000000000000800000000000000000000000000000000000000000000000000000000000000000000000000020000000000000000000000000000040000000800000000000000000000000000000000000000000000000000000000000000000000000000000000000020000000000000000000002000000000000000000000000000000000000000000000000000000000000000000000000000000004000000000000000000000000000000000000000000000000000000000000000000000000000000000000000000000000000000000000200000000000000000000010000000000000000000000000000000000000000000000000000",
      "type": "0x2",
      "transactionHash": "0x7b0ca8757e4e8543b28ae5c1d66adeff0aa5a667983630867f9da509c63f8b0b",
      "transactionIndex": "0x16",
      "blockHash": "0x67fdf2c036495a4d54880dbb6e6ef7d096cb79273f13e10ebcbb1ece698868e0",
      "blockNumber": "0x1e0e445",
      "gasUsed": "0x8a13",
      "effectiveGasPrice": "0xf43e8",
      "from": "0xc3ca11bd8e131471904dced927b3fb7edb453179",
      "to": "0x2af842c6517cf30fb3456aef485230e0dd085845",
      "contractAddress": null,
      "l1BaseFeeScalar": "0x44d",
      "l1BlobBaseFee": "0x1",
      "l1BlobBaseFeeScalar": "0xa118b",
      "l1Fee": "0x5a",
      "l1GasPrice": "0xe",
      "l1GasUsed": "0x640"
    },
    {
      "status": "0x1",
      "cumulativeGasUsed": "0x7a1823",
      "logs": [
        {
          "address": "0x2026027054f5bebceb650abd62dc623e327658e7",
          "topics": [
            "0xbfb8b3e2f6221ae729e9cacb0d35f5d9be686ba10cb1d4e34b646bbb87f7a269",
            "0x000000000000000000000000a0cdac76fa51aa65402137e3fa5357432af02e02"
          ],
          "data": "0x0000000000000000000000000000000000000000000000000000000000000001",
          "blockHash": "0xffa0ba5f1a0ff281700014633fcd435fc03a15d7eccfa9b547b4ccc72ae0b87f",
          "blockNumber": "0x1e0e446",
          "blockTimestamp": "0x68d5276c",
          "transactionHash": "0xfa18981f0c8288e713c45e440cfcb301da47cedb1f211ca2c175c082b4df40ab",
          "transactionIndex": "0x12",
          "logIndex": "0x10f",
          "removed": false
        }
      ],
      "logsBloom": "0x00000000000000000000000000800000000000000000000000000000000000000000000000800000000000000000000000000020000000000000000000000200000040000000000000000000000000000000000000000000000000000000000000000000000000000000000000000000020000000000000000000002000000000020000000000000000000000000000000000000000000000000000000000000000000000000000000000000000000000000000000000000000000000000000000000000000000000000000000000000000000000000000000000000000000000000000000010000000000000000000000000000000000000000000000000000",
      "type": "0x2",
      "transactionHash": "0xfa18981f0c8288e713c45e440cfcb301da47cedb1f211ca2c175c082b4df40ab",
      "transactionIndex": "0x12",
      "blockHash": "0xffa0ba5f1a0ff281700014633fcd435fc03a15d7eccfa9b547b4ccc72ae0b87f",
      "blockNumber": "0x1e0e446",
      "gasUsed": "0x8983",
      "effectiveGasPrice": "0xf43e6",
      "from": "0xc3ca11bd8e131471904dced927b3fb7edb453179",
      "to": "0x2026027054f5bebceb650abd62dc623e327658e7",
      "contractAddress": null,
      "l1BaseFeeScalar": "0x44d",
      "l1BlobBaseFee": "0x1",
      "l1BlobBaseFeeScalar": "0xa118b",
      "l1Fee": "0x5a",
      "l1GasPrice": "0xe",
      "l1GasUsed": "0x640"
    }
  ],
  "libraries": [],
  "pending": [],
  "returns": {},
  "timestamp": 1758799724606,
  "chain": 84532,
  "commit": "9b3cda6"
}