{
  "transactions": [
    {
      "hash": "0xa0f81fb59e62ae3a5da5899b59312b2c3240545fd8489f9fb451fd1f25c4253e",
      "transactionType": "CALL",
      "contractName": null,
      "contractAddress": "0xf77c7bdf97245eb9b12e7d7c10ab6abc2aba0f6a",
      "function": "addDappAddr(uint256,string[])",
      "arguments": [
        "45",
        "[0x7658e59cdba5e7e08263a216e89c8438c9f02048]"
      ],
      "transaction": {
        "from": "0xe62ab4d111f968660c6b2188046f9b9ba53c4bae",
        "to": "0xf77c7bdf97245eb9b12e7d7c10ab6abc2aba0f6a",
        "gas": "0x6a0b5",
        "value": "0x0",
        "input": "0xbb03a47e000000000000000000000000000000000000000000000000000000000000002d000000000000000000000000000000000000000000000000000000000000004000000000000000000000000000000000000000000000000000000000000000010000000000000000000000000000000000000000000000000000000000000020000000000000000000000000000000000000000000000000000000000000002a30783736353865353963646261356537653038323633613231366538396338343338633966303230343800000000000000000000000000000000000000000000",
        "nonce": "0x454",
        "chainId": "0x66eee"
      },
      "additionalContracts": [],
      "isFixedGasLimit": false
    }
  ],
  "receipts": [
    {
      "status": "0x1",
      "cumulativeGasUsed": "0x42a9c",
      "logs": [
        {
          "address": "0xf77c7bdf97245eb9b12e7d7c10ab6abc2aba0f6a",
          "topics": [
            "0x6e806e4274e1ae2fda14f84ae0177d6248dd126572ee44f546d4645c41ee2f77",
            "0x000000000000000000000000000000000000000000000000000000000000002d"
          ],
          "data": "0x000000000000000000000000000000000000000000000000000000000000002000000000000000000000000000000000000000000000000000000000000000010000000000000000000000000000000000000000000000000000000000000020000000000000000000000000000000000000000000000000000000000000002a30783736353865353963646261356537653038323633613231366538396338343338633966303230343800000000000000000000000000000000000000000000",
          "blockHash": "0x220f22fdfd94c612dc4e5bb1d4c7adf5a457867ed9572b2e4f4aa6da6e075ed8",
          "blockNumber": "0x5ebc163",
          "transactionHash": "0xa0f81fb59e62ae3a5da5899b59312b2c3240545fd8489f9fb451fd1f25c4253e",
          "transactionIndex": "0x1",
          "logIndex": "0x0",
          "removed": false
        }
      ],
      "logsBloom": "0x00000000000000000000000000000000000000000000800000000040000000000000000000000000000000000000000000000000000000000000000400000000000000000000000000000000000000000000000000000000000000000000000100000001000040000000000008000000000000000000000000000000000000000000000000000000000000000000000000000000000000000000000000000000000000000000000000000000000000000000000000000000000010000000000000000000000000000000000000000000000000000000000000000000400000000000000000000000000000000000000000000000000000000000000000000000",
      "type": "0x2",
      "transactionHash": "0xa0f81fb59e62ae3a5da5899b59312b2c3240545fd8489f9fb451fd1f25c4253e",
      "transactionIndex": "0x1",
      "blockHash": "0x220f22fdfd94c612dc4e5bb1d4c7adf5a457867ed9572b2e4f4aa6da6e075ed8",
      "blockNumber": "0x5ebc163",
      "gasUsed": "0x42a9c",
      "effectiveGasPrice": "0x5f5e100",
      "from": "0xe62ab4d111f968660c6b2188046f9b9ba53c4bae",
      "to": "0xf77c7bdf97245eb9b12e7d7c10ab6abc2aba0f6a",
      "contractAddress": null,
      "gasUsedForL1": "0x33c1e",
      "l1BlockNumber": "0x6cb57e"
    }
  ],
  "libraries": [],
  "pending": [],
  "returns": {},
  "timestamp": 1732214546,
  "chain": 421614,
  "commit": "4b2e1f8c"
}