{
  "transactions": [
    {
      "hash": "0x843d22063a71e5022719389284be257bee3c3fc1fe89ea6a934e5605228ba2c7",
      "transactionType": "CALL",
      "contractName": null,
      "contractAddress": "0xf77c7bdf97245eb9b12e7d7c10ab6abc2aba0f6a",
      "function": "addDappAddr(uint256,string[])",
      "arguments": [
        "48",
        "[0xc33b3317912d173806d782bfade797f262d9a4bd]"
      ],
      "transaction": {
        "from": "0xe62ab4d111f968660c6b2188046f9b9ba53c4bae",
        "to": "0xf77c7bdf97245eb9b12e7d7c10ab6abc2aba0f6a",
        "gas": "0x15753",
        "value": "0x0",
        "input": "0xbb03a47e0000000000000000000000000000000000000000000000000000000000000030000000000000000000000000000000000000000000000000000000000000004000000000000000000000000000000000000000000000000000000000000000010000000000000000000000000000000000000000000000000000000000000020000000000000000000000000000000000000000000000000000000000000002a30786333336233333137393132643137333830366437383262666164653739376632363264396134626400000000000000000000000000000000000000000000",
        "nonce": "0x299",
        "chainId": "0x66eee"
      },
      "additionalContracts": [],
      "isFixedGasLimit": false
    }
  ],
  "receipts": [
    {
      "status": "0x1",
      "cumulativeGasUsed": "0x1005c",
      "logs": [
        {
          "address": "0xf77c7bdf97245eb9b12e7d7c10ab6abc2aba0f6a",
          "topics": [
            "0x6e806e4274e1ae2fda14f84ae0177d6248dd126572ee44f546d4645c41ee2f77",
            "0x0000000000000000000000000000000000000000000000000000000000000030"
          ],
          "data": "0x000000000000000000000000000000000000000000000000000000000000002000000000000000000000000000000000000000000000000000000000000000010000000000000000000000000000000000000000000000000000000000000020000000000000000000000000000000000000000000000000000000000000002a30786333336233333137393132643137333830366437383262666164653739376632363264396134626400000000000000000000000000000000000000000000",
          "blockHash": "0x46880386f96f0416662651670d4f31a774ed516fa3e0818fe6f6149989addc15",
          "blockNumber": "0x596d9e3",
          "transactionHash": "0x843d22063a71e5022719389284be257bee3c3fc1fe89ea6a934e5605228ba2c7",
          "transactionIndex": "0x1",
          "logIndex": "0x0",
          "removed": false
        }
      ],
      "logsBloom": "0x02000000000000000000000000000000000000000000800000000040000000000000000000000000000000000000000000000000000000000000000000000000000000000000000000000000000000000000000000000000000000000000000100000001000040000000000008000000000000000000000000000000000000000000000000000000000000000000000000000000000000000000000000000000000000000000000000000000000000000000000002000000000000000000000000000000000000000000000000000000000000000000000000000000000020000000000000000000000000000000000000000000000000000000000000000000",
      "type": "0x2",
      "transactionHash": "0x843d22063a71e5022719389284be257bee3c3fc1fe89ea6a934e5605228ba2c7",
      "transactionIndex": "0x1",
      "blockHash": "0x46880386f96f0416662651670d4f31a774ed516fa3e0818fe6f6149989addc15",
      "blockNumber": "0x596d9e3",
      "gasUsed": "0x1005c",
      "effectiveGasPrice": "0x5f5e100",
      "from": "0xe62ab4d111f968660c6b2188046f9b9ba53c4bae",
      "to": "0xf77c7bdf97245eb9b12e7d7c10ab6abc2aba0f6a",
      "contractAddress": null,
      "gasUsedForL1": "0x11de",
      "l1BlockNumber": "0x6ac3a0"
    }
  ],
  "libraries": [],
  "pending": [],
  "returns": {},
  "timestamp": 1730549924,
  "chain": 421614,
  "commit": "34a11392"
}