{
  "transactions": [
    {
      "hash": "0xefd0870031abd82014d96a453bbb7c2e5214da875961b0b4f94339bab7ec3648",
      "transactionType": "CALL",
      "contractName": null,
      "contractAddress": "0xf77c7bdf97245eb9b12e7d7c10ab6abc2aba0f6a",
      "function": "addDappAddr(uint256,string[])",
      "arguments": [
        "44",
        "[0xa9888fd40bc181958bd2c2b2d06dd1559d0c8e55]"
      ],
      "transaction": {
        "from": "0xe62ab4d111f968660c6b2188046f9b9ba53c4bae",
        "to": "0xf77c7bdf97245eb9b12e7d7c10ab6abc2aba0f6a",
        "gas": "0x13a3a",
        "value": "0x0",
        "input": "0xbb03a47e000000000000000000000000000000000000000000000000000000000000002c000000000000000000000000000000000000000000000000000000000000004000000000000000000000000000000000000000000000000000000000000000010000000000000000000000000000000000000000000000000000000000000020000000000000000000000000000000000000000000000000000000000000002a30786139383838666434306263313831393538626432633262326430366464313535396430633865353500000000000000000000000000000000000000000000",
        "nonce": "0x332",
        "chainId": "0x66eee"
      },
      "additionalContracts": [],
      "isFixedGasLimit": false
    }
  ],
  "receipts": [
    {
      "status": "0x1",
      "cumulativeGasUsed": "0xee7e",
      "logs": [
        {
          "address": "0xf77c7bdf97245eb9b12e7d7c10ab6abc2aba0f6a",
          "topics": [
            "0x6e806e4274e1ae2fda14f84ae0177d6248dd126572ee44f546d4645c41ee2f77",
            "0x000000000000000000000000000000000000000000000000000000000000002c"
          ],
          "data": "0x000000000000000000000000000000000000000000000000000000000000002000000000000000000000000000000000000000000000000000000000000000010000000000000000000000000000000000000000000000000000000000000020000000000000000000000000000000000000000000000000000000000000002a30786139383838666434306263313831393538626432633262326430366464313535396430633865353500000000000000000000000000000000000000000000",
          "blockHash": "0xf8cebccca3264d4409f880b55d8b4dc2037518c039fe610074b22b19e56e7f93",
          "blockNumber": "0x5b2d44e",
          "transactionHash": "0xefd0870031abd82014d96a453bbb7c2e5214da875961b0b4f94339bab7ec3648",
          "transactionIndex": "0x1",
          "logIndex": "0x0",
          "removed": false
        }
      ],
      "logsBloom": "0x00000000000000000000000000000000000000000000800000000040000000000000000000000000000000000000000000000000000000000000000000000000000000000000000000000000000000000000000000000000000000000000000100000001000040000000000108000000000000000000000000000000004000000000000000000000000000000000000000000000000000000000000000000000000000000000000000000000000000000000000000000000000000000000000000000000000000000000000000000000000000000000000800000000000000000000000000000000000000000000000000000000000000000000000000000000",
      "type": "0x2",
      "transactionHash": "0xefd0870031abd82014d96a453bbb7c2e5214da875961b0b4f94339bab7ec3648",
      "transactionIndex": "0x1",
      "blockHash": "0xf8cebccca3264d4409f880b55d8b4dc2037518c039fe610074b22b19e56e7f93",
      "blockNumber": "0x5b2d44e",
      "gasUsed": "0xee7e",
      "effectiveGasPrice": "0x5f5e100",
      "from": "0xe62ab4d111f968660c6b2188046f9b9ba53c4bae",
      "to": "0xf77c7bdf97245eb9b12e7d7c10ab6abc2aba0f6a",
      "contractAddress": null,
      "gasUsedForL1": "0x0",
      "l1BlockNumber": "0x6b64bd"
    }
  ],
  "libraries": [],
  "pending": [],
  "returns": {},
  "timestamp": 1731093848,
  "chain": 421614,
  "commit": "ac6d4a5e"
}