{
  "transactions": [
    {
      "hash": "0x66f32602ed94259e0926982a00888f95b00dac4e35fa89194d70dc87bdcb5d80",
      "transactionType": "CALL",
      "contractName": null,
      "contractAddress": "0xf77c7bdf97245eb9b12e7d7c10ab6abc2aba0f6a",
      "function": "addDappAddr(uint256,string[])",
      "arguments": [
        "48",
        "[0x8ee0aee8a42f55ed43f5e7db765fa591c4714c41]"
      ],
      "transaction": {
        "from": "0xe62ab4d111f968660c6b2188046f9b9ba53c4bae",
        "to": "0xf77c7bdf97245eb9b12e7d7c10ab6abc2aba0f6a",
        "gas": "0x14aca",
        "value": "0x0",
        "input": "0xbb03a47e0000000000000000000000000000000000000000000000000000000000000030000000000000000000000000000000000000000000000000000000000000004000000000000000000000000000000000000000000000000000000000000000010000000000000000000000000000000000000000000000000000000000000020000000000000000000000000000000000000000000000000000000000000002a30783865653061656538613432663535656434336635653764623736356661353931633437313463343100000000000000000000000000000000000000000000",
        "nonce": "0x557",
        "chainId": "0x66eee"
      },
      "additionalContracts": [],
      "isFixedGasLimit": false
    }
  ],
  "receipts": [
    {
      "status": "0x1",
      "cumulativeGasUsed": "0x42e32",
      "logs": [
        {
          "address": "0xf77c7bdf97245eb9b12e7d7c10ab6abc2aba0f6a",
          "topics": [
            "0x6e806e4274e1ae2fda14f84ae0177d6248dd126572ee44f546d4645c41ee2f77",
            "0x0000000000000000000000000000000000000000000000000000000000000030"
          ],
          "data": "0x000000000000000000000000000000000000000000000000000000000000002000000000000000000000000000000000000000000000000000000000000000010000000000000000000000000000000000000000000000000000000000000020000000000000000000000000000000000000000000000000000000000000002a30783865653061656538613432663535656434336635653764623736356661353931633437313463343100000000000000000000000000000000000000000000",
          "blockHash": "0x80e90e45c7774d4940b54427a7e796de4909d47fe0b4c60ee55fee40f293a537",
          "blockNumber": "0x60bc119",
          "transactionHash": "0x66f32602ed94259e0926982a00888f95b00dac4e35fa89194d70dc87bdcb5d80",
          "transactionIndex": "0x2",
          "logIndex": "0x1",
          "removed": false
        }
      ],
      "logsBloom": "0x02000000000000000000000000000000000000000000800000000040000000000000000000000000000000000000000000000000000000000000000000000000000000000000000000000000000000000000000000000000000000000000000100000001000040000000000008000000000000000000000000000000000000000000000000000000000000000000000000000000000000000000000000000000000000000000000000000000000000000000000002000000000000000000000000000000000000000000000000000000000000000000000000000000000020000000000000000000000000000000000000000000000000000000000000000000",
      "type": "0x2",
      "transactionHash": "0x66f32602ed94259e0926982a00888f95b00dac4e35fa89194d70dc87bdcb5d80",
      "transactionIndex": "0x2",
      "blockHash": "0x80e90e45c7774d4940b54427a7e796de4909d47fe0b4c60ee55fee40f293a537",
      "blockNumber": "0x60bc119",
      "gasUsed": "0xf771",
      "effectiveGasPrice": "0x6e32730",
      "from": "0xe62ab4d111f968660c6b2188046f9b9ba53c4bae",
      "to": "0xf77c7bdf97245eb9b12e7d7c10ab6abc2aba0f6a",
      "contractAddress": null,
      "gasUsedForL1": "0x8f3",
      "l1BlockNumber": "0x6d6953"
    }
  ],
  "libraries": [],
  "pending": [],
  "returns": {},
  "timestamp": 1732802420,
  "chain": 421614,
  "commit": "9c84b963"
}