{
  "transactions": [
    {
      "hash": "0x4f31beab5a381ada7bbd9821441de5da06bc29c7dc60bed768063d80746e9aea",
      "transactionType": "CALL",
      "contractName": null,
      "contractAddress": "0xf77c7bdf97245eb9b12e7d7c10ab6abc2aba0f6a",
      "function": "addDappAddr(uint256,string[])",
      "arguments": [
        "48",
        "[0x855c06f9f7b01838dc540ec6fcff17fd86a378d8]"
      ],
      "transaction": {
        "from": "0xe62ab4d111f968660c6b2188046f9b9ba53c4bae",
        "to": "0xf77c7bdf97245eb9b12e7d7c10ab6abc2aba0f6a",
        "gas": "0x69332",
        "value": "0x0",
        "input": "0xbb03a47e0000000000000000000000000000000000000000000000000000000000000030000000000000000000000000000000000000000000000000000000000000004000000000000000000000000000000000000000000000000000000000000000010000000000000000000000000000000000000000000000000000000000000020000000000000000000000000000000000000000000000000000000000000002a30783835356330366639663762303138333864633534306563366663666631376664383661333738643800000000000000000000000000000000000000000000",
        "nonce": "0x45e",
        "chainId": "0x66eee"
      },
      "additionalContracts": [],
      "isFixedGasLimit": false
    }
  ],
  "receipts": [
    {
      "status": "0x1",
      "cumulativeGasUsed": "0x4277c",
      "logs": [
        {
          "address": "0xf77c7bdf97245eb9b12e7d7c10ab6abc2aba0f6a",
          "topics": [
            "0x6e806e4274e1ae2fda14f84ae0177d6248dd126572ee44f546d4645c41ee2f77",
            "0x0000000000000000000000000000000000000000000000000000000000000030"
          ],
          "data": "0x000000000000000000000000000000000000000000000000000000000000002000000000000000000000000000000000000000000000000000000000000000010000000000000000000000000000000000000000000000000000000000000020000000000000000000000000000000000000000000000000000000000000002a30783835356330366639663762303138333864633534306563366663666631376664383661333738643800000000000000000000000000000000000000000000",
          "blockHash": "0x84f5ca84a2160a63385557e2ebe5d1d14db0f65623da79521fdf8c3392f3e156",
          "blockNumber": "0x5ebc40b",
          "transactionHash": "0x4f31beab5a381ada7bbd9821441de5da06bc29c7dc60bed768063d80746e9aea",
          "transactionIndex": "0x1",
          "logIndex": "0x0",
          "removed": false
        }
      ],
      "logsBloom": "0x02000000000000000000000000000000000000000000800000000040000000000000000000000000000000000000000000000000000000000000000000000000000000000000000000000000000000000000000000000000000000000000000100000001000040000000000008000000000000000000000000000000000000000000000000000000000000000000000000000000000000000000000000000000000000000000000000000000000000000000000002000000000000000000000000000000000000000000000000000000000000000000000000000000000020000000000000000000000000000000000000000000000000000000000000000000",
      "type": "0x2",
      "transactionHash": "0x4f31beab5a381ada7bbd9821441de5da06bc29c7dc60bed768063d80746e9aea",
      "transactionIndex": "0x1",
      "blockHash": "0x84f5ca84a2160a63385557e2ebe5d1d14db0f65623da79521fdf8c3392f3e156",
      "blockNumber": "0x5ebc40b",
      "gasUsed": "0x4277c",
      "effectiveGasPrice": "0x5f5e100",
      "from": "0xe62ab4d111f968660c6b2188046f9b9ba53c4bae",
      "to": "0xf77c7bdf97245eb9b12e7d7c10ab6abc2aba0f6a",
      "contractAddress": null,
      "gasUsedForL1": "0x338fe",
      "l1BlockNumber": "0x6cb58d"
    }
  ],
  "libraries": [],
  "pending": [],
  "returns": {},
  "timestamp": 1732214743,
  "chain": 421614,
  "commit": "4b2e1f8c"
}