{
  "transactions": [
    {
      "hash": "0x433356eed7607eb8487f835616d65fbb44197daa5ce7d5a9257d4ffe30d718cd",
      "transactionType": "CALL",
      "contractName": null,
      "contractAddress": "0xf77c7bdf97245eb9b12e7d7c10ab6abc2aba0f6a",
      "function": "addDappAddr(uint256,string[])",
      "arguments": [
        "45",
        "[0xb3aefea9f49de70c41ce22afa321e64393932d21]"
      ],
      "transaction": {
        "from": "0xe62ab4d111f968660c6b2188046f9b9ba53c4bae",
        "to": "0xf77c7bdf97245eb9b12e7d7c10ab6abc2aba0f6a",
        "gas": "0x6a536",
        "value": "0x0",
        "input": "0xbb03a47e000000000000000000000000000000000000000000000000000000000000002d000000000000000000000000000000000000000000000000000000000000004000000000000000000000000000000000000000000000000000000000000000010000000000000000000000000000000000000000000000000000000000000020000000000000000000000000000000000000000000000000000000000000002a30786233616566656139663439646537306334316365323261666133323165363433393339333264323100000000000000000000000000000000000000000000",
        "nonce": "0x451",
        "chainId": "0x66eee"
      },
      "additionalContracts": [],
      "isFixedGasLimit": false
    }
  ],
  "receipts": [
    {
      "status": "0x1",
      "cumulativeGasUsed": "0x42a9c",
      "logs": [
        {
          "address": "0xf77c7bdf97245eb9b12e7d7c10ab6abc2aba0f6a",
          "topics": [
            "0x6e806e4274e1ae2fda14f84ae0177d6248dd126572ee44f546d4645c41ee2f77",
            "0x000000000000000000000000000000000000000000000000000000000000002d"
          ],
          "data": "0x000000000000000000000000000000000000000000000000000000000000002000000000000000000000000000000000000000000000000000000000000000010000000000000000000000000000000000000000000000000000000000000020000000000000000000000000000000000000000000000000000000000000002a30786233616566656139663439646537306334316365323261666133323165363433393339333264323100000000000000000000000000000000000000000000",
          "blockHash": "0x2b52ae28d2449332ba2521fe2540ae3a48dccbda7a434f3e2983737521362a00",
          "blockNumber": "0x5ebc050",
          "transactionHash": "0x433356eed7607eb8487f835616d65fbb44197daa5ce7d5a9257d4ffe30d718cd",
          "transactionIndex": "0x1",
          "logIndex": "0x0",
          "removed": false
        }
      ],
      "logsBloom": "0x00000000000000000000000000000000000000000000800000000040000000000000000000000000000000000000000000000000000000000000000400000000000000000000000000000000000000000000000000000000000000000000000100000001000040000000000008000000000000000000000000000000000000000000000000000000000000000000000000000000000000000000000000000000000000000000000000000000000000000000000000000000000010000000000000000000000000000000000000000000000000000000000000000000400000000000000000000000000000000000000000000000000000000000000000000000",
      "type": "0x2",
      "transactionHash": "0x433356eed7607eb8487f835616d65fbb44197daa5ce7d5a9257d4ffe30d718cd",
      "transactionIndex": "0x1",
      "blockHash": "0x2b52ae28d2449332ba2521fe2540ae3a48dccbda7a434f3e2983737521362a00",
      "blockNumber": "0x5ebc050",
      "gasUsed": "0x42a9c",
      "effectiveGasPrice": "0x5f5e100",
      "from": "0xe62ab4d111f968660c6b2188046f9b9ba53c4bae",
      "to": "0xf77c7bdf97245eb9b12e7d7c10ab6abc2aba0f6a",
      "contractAddress": null,
      "gasUsedForL1": "0x33c1e",
      "l1BlockNumber": "0x6cb577"
    }
  ],
  "libraries": [],
  "pending": [],
  "returns": {},
  "timestamp": 1732214470,
  "chain": 421614,
  "commit": "4b2e1f8c"
}