{
  "transactions": [
    {
      "hash": "0x30b4e31fc1ccbe9a595035b5b1a275bdd36e3819edfd21434c4b19842109ae5c",
      "transactionType": "CALL",
      "contractName": null,
      "contractAddress": "0xf77c7bdf97245eb9b12e7d7c10ab6abc2aba0f6a",
      "function": "addDappAddr(uint256,string[])",
      "arguments": [
        "45",
        "[0xb41c8b53ea014188ba6777233e04efddbf4877b1]"
      ],
      "transaction": {
        "from": "0xe62ab4d111f968660c6b2188046f9b9ba53c4bae",
        "to": "0xf77c7bdf97245eb9b12e7d7c10ab6abc2aba0f6a",
        "gas": "0x146dd",
        "value": "0x0",
        "input": "0xbb03a47e000000000000000000000000000000000000000000000000000000000000002d000000000000000000000000000000000000000000000000000000000000004000000000000000000000000000000000000000000000000000000000000000010000000000000000000000000000000000000000000000000000000000000020000000000000000000000000000000000000000000000000000000000000002a30786234316338623533656130313431383862613637373732333365303465666464626634383737623100000000000000000000000000000000000000000000",
        "nonce": "0x280",
        "chainId": "0x66eee"
      },
      "additionalContracts": [],
      "isFixedGasLimit": false
    }
  ],
  "receipts": [
    {
      "status": "0x1",
      "cumulativeGasUsed": "0x1542ff",
      "logs": [
        {
          "address": "0xf77c7bdf97245eb9b12e7d7c10ab6abc2aba0f6a",
          "topics": [
            "0x6e806e4274e1ae2fda14f84ae0177d6248dd126572ee44f546d4645c41ee2f77",
            "0x000000000000000000000000000000000000000000000000000000000000002d"
          ],
          "data": "0x000000000000000000000000000000000000000000000000000000000000002000000000000000000000000000000000000000000000000000000000000000010000000000000000000000000000000000000000000000000000000000000020000000000000000000000000000000000000000000000000000000000000002a30786234316338623533656130313431383862613637373732333365303465666464626634383737623100000000000000000000000000000000000000000000",
          "blockHash": "0x48f8f7263e8e8f66d5159be97f40b12d565ee9405bce0755b575e2e750fd1659",
          "blockNumber": "0x596c9b6",
          "transactionHash": "0x30b4e31fc1ccbe9a595035b5b1a275bdd36e3819edfd21434c4b19842109ae5c",
          "transactionIndex": "0x2",
          "logIndex": "0x3",
          "removed": false
        }
      ],
      "logsBloom": "0x00000000000000000000000000000000000000000000800000000040000000000000000000000000000000000000000000000000000000000000000400000000000000000000000000000000000000000000000000000000000000000000000100000001000040000000000008000000000000000000000000000000000000000000000000000000000000000000000000000000000000000000000000000000000000000000000000000000000000000000000000000000000010000000000000000000000000000000000000000000000000000000000000000000400000000000000000000000000000000000000000000000000000000000000000000000",
      "type": "0x2",
      "transactionHash": "0x30b4e31fc1ccbe9a595035b5b1a275bdd36e3819edfd21434c4b19842109ae5c",
      "transactionIndex": "0x2",
      "blockHash": "0x48f8f7263e8e8f66d5159be97f40b12d565ee9405bce0755b575e2e750fd1659",
      "blockNumber": "0x596c9b6",
      "gasUsed": "0xf61d",
      "effectiveGasPrice": "0x5f5e100",
      "from": "0xe62ab4d111f968660c6b2188046f9b9ba53c4bae",
      "to": "0xf77c7bdf97245eb9b12e7d7c10ab6abc2aba0f6a",
      "contractAddress": null,
      "gasUsedForL1": "0x79f",
      "l1BlockNumber": "0x6ac342"
    }
  ],
  "libraries": [],
  "pending": [],
  "returns": {},
  "timestamp": 1730548765,
  "chain": 421614,
  "commit": "34a11392"
}