{
  "transactions": [
    {
      "hash": "0x47aa640af79ce2a02981ab0750261020663a21ff20c86b37cc4a63c409a7deb7",
      "transactionType": "CALL",
      "contractName": null,
      "contractAddress": "0xf77c7bdf97245eb9b12e7d7c10ab6abc2aba0f6a",
      "function": "addDappAddr(uint256,string[])",
      "arguments": [
        "44",
        "[0x0e95227823f64f54d6611ae6f4fb70a4d76d4378]"
      ],
      "transaction": {
        "from": "0xe62ab4d111f968660c6b2188046f9b9ba53c4bae",
        "to": "0xf77c7bdf97245eb9b12e7d7c10ab6abc2aba0f6a",
        "gas": "0xc9e6f",
        "value": "0x0",
        "input": "0xbb03a47e000000000000000000000000000000000000000000000000000000000000002c000000000000000000000000000000000000000000000000000000000000004000000000000000000000000000000000000000000000000000000000000000010000000000000000000000000000000000000000000000000000000000000020000000000000000000000000000000000000000000000000000000000000002a30783065393532323738323366363466353464363631316165366634666237306134643736643433373800000000000000000000000000000000000000000000",
        "nonce": "0x44c",
        "chainId": "0x66eee"
      },
      "additionalContracts": [],
      "isFixedGasLimit": false
    }
  ],
  "receipts": [
    {
      "status": "0x1",
      "cumulativeGasUsed": "0x1c5a2a",
      "logs": [
        {
          "address": "0xf77c7bdf97245eb9b12e7d7c10ab6abc2aba0f6a",
          "topics": [
            "0x6e806e4274e1ae2fda14f84ae0177d6248dd126572ee44f546d4645c41ee2f77",
            "0x000000000000000000000000000000000000000000000000000000000000002c"
          ],
          "data": "0x000000000000000000000000000000000000000000000000000000000000002000000000000000000000000000000000000000000000000000000000000000010000000000000000000000000000000000000000000000000000000000000020000000000000000000000000000000000000000000000000000000000000002a30783065393532323738323366363466353464363631316165366634666237306134643736643433373800000000000000000000000000000000000000000000",
          "blockHash": "0xe135bb2c0f5ca3f007e6aa3c7fcc97f38a3698696e9437d780ec310b526cc37c",
          "blockNumber": "0x5ebbe40",
          "transactionHash": "0x47aa640af79ce2a02981ab0750261020663a21ff20c86b37cc4a63c409a7deb7",
          "transactionIndex": "0x2",
          "logIndex": "0x3",
          "removed": false
        }
      ],
      "logsBloom": "0x00000000000000000000000000000000000000000000800000000040000000000000000000000000000000000000000000000000000000000000000000000000000000000000000000000000000000000000000000000000000000000000000100000001000040000000000108000000000000000000000000000000004000000000000000000000000000000000000000000000000000000000000000000000000000000000000000000000000000000000000000000000000000000000000000000000000000000000000000000000000000000000000800000000000000000000000000000000000000000000000000000000000000000000000000000000",
      "type": "0x2",
      "transactionHash": "0x47aa640af79ce2a02981ab0750261020663a21ff20c86b37cc4a63c409a7deb7",
      "transactionIndex": "0x2",
      "blockHash": "0xe135bb2c0f5ca3f007e6aa3c7fcc97f38a3698696e9437d780ec310b526cc37c",
      "blockNumber": "0x5ebbe40",
      "gasUsed": "0x7ddbc",
      "effectiveGasPrice": "0x5f5e100",
      "from": "0xe62ab4d111f968660c6b2188046f9b9ba53c4bae",
      "to": "0xf77c7bdf97245eb9b12e7d7c10ab6abc2aba0f6a",
      "contractAddress": null,
      "gasUsedForL1": "0x6ef3e",
      "l1BlockNumber": "0x6cb56c"
    }
  ],
  "libraries": [],
  "pending": [],
  "returns": {},
  "timestamp": 1732214329,
  "chain": 421614,
  "commit": "4b2e1f8c"
}