{
  "transactions": [
    {
      "hash": "0x1a31ce0ec723d90f563b5bab05aa9355f9697dff69c607d6a31c4b02a9952ea3",
      "transactionType": "CALL",
      "contractName": null,
      "contractAddress": "0xf77c7bdf97245eb9b12e7d7c10ab6abc2aba0f6a",
      "function": "addDappAddr(uint256,string[])",
      "arguments": [
        "44",
        "[0xa6e0fa5cceef6e87d89b4dc51053e1ff1a557b53]"
      ],
      "transaction": {
        "from": "0xe62ab4d111f968660c6b2188046f9b9ba53c4bae",
        "to": "0xf77c7bdf97245eb9b12e7d7c10ab6abc2aba0f6a",
        "gas": "0x14ee3",
        "value": "0x0",
        "input": "0xbb03a47e000000000000000000000000000000000000000000000000000000000000002c000000000000000000000000000000000000000000000000000000000000004000000000000000000000000000000000000000000000000000000000000000010000000000000000000000000000000000000000000000000000000000000020000000000000000000000000000000000000000000000000000000000000002a30786136653066613563636565663665383764383962346463353130353365316666316135353762353300000000000000000000000000000000000000000000",
        "nonce": "0x27a",
        "chainId": "0x66eee"
      },
      "additionalContracts": [],
      "isFixedGasLimit": false
    }
  ],
  "receipts": [
    {
      "status": "0x1",
      "cumulativeGasUsed": "0x152df",
      "logs": [
        {
          "address": "0xf77c7bdf97245eb9b12e7d7c10ab6abc2aba0f6a",
          "topics": [
            "0x6e806e4274e1ae2fda14f84ae0177d6248dd126572ee44f546d4645c41ee2f77",
            "0x000000000000000000000000000000000000000000000000000000000000002c"
          ],
          "data": "0x000000000000000000000000000000000000000000000000000000000000002000000000000000000000000000000000000000000000000000000000000000010000000000000000000000000000000000000000000000000000000000000020000000000000000000000000000000000000000000000000000000000000002a30786136653066613563636565663665383764383962346463353130353365316666316135353762353300000000000000000000000000000000000000000000",
          "blockHash": "0xa6e8159dc4da75dff8ecd71e36fe70d2149590ff00c7653efe5a53233a118bf9",
          "blockNumber": "0x596c065",
          "transactionHash": "0x1a31ce0ec723d90f563b5bab05aa9355f9697dff69c607d6a31c4b02a9952ea3",
          "transactionIndex": "0x2",
          "logIndex": "0x0",
          "removed": false
        }
      ],
      "logsBloom": "0x00000000000000000000000000000000000000000000800000000040000000000000000000000000000000000000000000000000000000000000000000000000000000000000000000000000000000000000000000000000000000000000000100000001000040000000000108000000000000000000000000000000004000000000000000000000000000000000000000000000000000000000000000000000000000000000000000000000000000000000000000000000000000000000000000000000000000000000000000000000000000000000000800000000000000000000000000000000000000000000000000000000000000000000000000000000",
      "type": "0x2",
      "transactionHash": "0x1a31ce0ec723d90f563b5bab05aa9355f9697dff69c607d6a31c4b02a9952ea3",
      "transactionIndex": "0x2",
      "blockHash": "0xa6e8159dc4da75dff8ecd71e36fe70d2149590ff00c7653efe5a53233a118bf9",
      "blockNumber": "0x596c065",
      "gasUsed": "0xfb0a",
      "effectiveGasPrice": "0x5f5e100",
      "from": "0xe62ab4d111f968660c6b2188046f9b9ba53c4bae",
      "to": "0xf77c7bdf97245eb9b12e7d7c10ab6abc2aba0f6a",
      "contractAddress": null,
      "gasUsedForL1": "0xc8c",
      "l1BlockNumber": "0x6ac310"
    }
  ],
  "libraries": [],
  "pending": [],
  "returns": {},
  "timestamp": 1730548098,
  "chain": 421614,
  "commit": "34a11392"
}