{
  "transactions": [
    {
      "hash": "0xdc7335e12450acb2375f381507db495e51ee15998934096a769121ac21036ff5",
      "transactionType": "CALL",
      "contractName": null,
      "contractAddress": "0xf77c7bdf97245eb9b12e7d7c10ab6abc2aba0f6a",
      "function": "addDappAddr(uint256,string[])",
      "arguments": [
        "47",
        "[0x7635a9b23275892ac46479b7ead9831a80171ace]"
      ],
      "transaction": {
        "from": "0xe62ab4d111f968660c6b2188046f9b9ba53c4bae",
        "to": "0xf77c7bdf97245eb9b12e7d7c10ab6abc2aba0f6a",
        "gas": "0x1a6e0",
        "value": "0x0",
        "input": "0xbb03a47e000000000000000000000000000000000000000000000000000000000000002f000000000000000000000000000000000000000000000000000000000000004000000000000000000000000000000000000000000000000000000000000000010000000000000000000000000000000000000000000000000000000000000020000000000000000000000000000000000000000000000000000000000000002a30783736333561396232333237353839326163343634373962376561643938333161383031373161636500000000000000000000000000000000000000000000",
        "nonce": "0x417",
        "chainId": "0x66eee"
      },
      "additionalContracts": [],
      "isFixedGasLimit": false
    }
  ],
  "receipts": [
    {
      "status": "0x1",
      "cumulativeGasUsed": "0x2c5d59",
      "logs": [
        {
          "address": "0xf77c7bdf97245eb9b12e7d7c10ab6abc2aba0f6a",
          "topics": [
            "0x6e806e4274e1ae2fda14f84ae0177d6248dd126572ee44f546d4645c41ee2f77",
            "0x000000000000000000000000000000000000000000000000000000000000002f"
          ],
          "data": "0x000000000000000000000000000000000000000000000000000000000000002000000000000000000000000000000000000000000000000000000000000000010000000000000000000000000000000000000000000000000000000000000020000000000000000000000000000000000000000000000000000000000000002a30783736333561396232333237353839326163343634373962376561643938333161383031373161636500000000000000000000000000000000000000000000",
          "blockHash": "0xa129e937d140b65e86aac081ce25ff2a7a380ec8ad69be073ba6702732baecb9",
          "blockNumber": "0x5e3ce41",
          "transactionHash": "0xdc7335e12450acb2375f381507db495e51ee15998934096a769121ac21036ff5",
          "transactionIndex": "0x3a",
          "logIndex": "0x2",
          "removed": false
        }
      ],
      "logsBloom": "0x00000000000000000000000000000000000080000000800000000040000000000000000000000000000000000000000000000000000000000000000000000000000000000000000000000000000000000000000000000000000000000000000100000001000040000000000008000000000000000000000000000000000000000000000000000000000000000000000000000000000000000000000000000000000000000000000000000000000000000000000000000000000000000000000000000000000000000000000000000000000000000000000000000000000000000000000000000000000000000000000000000000000004000000000000080000",
      "type": "0x2",
      "transactionHash": "0xdc7335e12450acb2375f381507db495e51ee15998934096a769121ac21036ff5",
      "transactionIndex": "0x3a",
      "blockHash": "0xa129e937d140b65e86aac081ce25ff2a7a380ec8ad69be073ba6702732baecb9",
      "blockNumber": "0x5e3ce41",
      "gasUsed": "0x130b5",
      "effectiveGasPrice": "0x5f5e100",
      "from": "0xe62ab4d111f968660c6b2188046f9b9ba53c4bae",
      "to": "0xf77c7bdf97245eb9b12e7d7c10ab6abc2aba0f6a",
      "contractAddress": null,
      "gasUsedForL1": "0x4237",
      "l1BlockNumber": "0x6c8854"
    }
  ],
  "libraries": [],
  "pending": [],
  "returns": {},
  "timestamp": 1732067345,
  "chain": 421614,
  "commit": "4b2e1f8c"
}