{
  "transactions": [
    {
      "hash": "0x7ce49079b29d8fcdecea4f61d78597cbb330b877488c5f7a539f25860cec29d7",
      "transactionType": "CALL",
      "contractName": null,
      "contractAddress": "0xf77c7bdf97245eb9b12e7d7c10ab6abc2aba0f6a",
      "function": "addDappAddr(uint256,string[])",
      "arguments": [
        "47",
        "[0xd52966352e5a15dcb05cdfb4d8f54f565d487210]"
      ],
      "transaction": {
        "from": "0xe62ab4d111f968660c6b2188046f9b9ba53c4bae",
        "to": "0xf77c7bdf97245eb9b12e7d7c10ab6abc2aba0f6a",
        "gas": "0x146a5",
        "value": "0x0",
        "input": "0xbb03a47e000000000000000000000000000000000000000000000000000000000000002f000000000000000000000000000000000000000000000000000000000000004000000000000000000000000000000000000000000000000000000000000000010000000000000000000000000000000000000000000000000000000000000020000000000000000000000000000000000000000000000000000000000000002a30786435323936363335326535613135646362303563646662346438663534663536356434383732313000000000000000000000000000000000000000000000",
        "nonce": "0x28d",
        "chainId": "0x66eee"
      },
      "additionalContracts": [],
      "isFixedGasLimit": false
    }
  ],
  "receipts": [
    {
      "status": "0x1",
      "cumulativeGasUsed": "0x44b79",
      "logs": [
        {
          "address": "0xf77c7bdf97245eb9b12e7d7c10ab6abc2aba0f6a",
          "topics": [
            "0x6e806e4274e1ae2fda14f84ae0177d6248dd126572ee44f546d4645c41ee2f77",
            "0x000000000000000000000000000000000000000000000000000000000000002f"
          ],
          "data": "0x000000000000000000000000000000000000000000000000000000000000002000000000000000000000000000000000000000000000000000000000000000010000000000000000000000000000000000000000000000000000000000000020000000000000000000000000000000000000000000000000000000000000002a30786435323936363335326535613135646362303563646662346438663534663536356434383732313000000000000000000000000000000000000000000000",
          "blockHash": "0xe02c08c40779100244b944ac2a32f44876d9be4082c056b3448f8740cad38961",
          "blockNumber": "0x596d1da",
          "transactionHash": "0x7ce49079b29d8fcdecea4f61d78597cbb330b877488c5f7a539f25860cec29d7",
          "transactionIndex": "0x3",
          "logIndex": "0x1",
          "removed": false
        }
      ],
      "logsBloom": "0x00000000000000000000000000000000000080000000800000000040000000000000000000000000000000000000000000000000000000000000000000000000000000000000000000000000000000000000000000000000000000000000000100000001000040000000000008000000000000000000000000000000000000000000000000000000000000000000000000000000000000000000000000000000000000000000000000000000000000000000000000000000000000000000000000000000000000000000000000000000000000000000000000000000000000000000000000000000000000000000000000000000000004000000000000080000",
      "type": "0x2",
      "transactionHash": "0x7ce49079b29d8fcdecea4f61d78597cbb330b877488c5f7a539f25860cec29d7",
      "transactionIndex": "0x3",
      "blockHash": "0xe02c08c40779100244b944ac2a32f44876d9be4082c056b3448f8740cad38961",
      "blockNumber": "0x596d1da",
      "gasUsed": "0xf61e",
      "effectiveGasPrice": "0x5f5e100",
      "from": "0xe62ab4d111f968660c6b2188046f9b9ba53c4bae",
      "to": "0xf77c7bdf97245eb9b12e7d7c10ab6abc2aba0f6a",
      "contractAddress": null,
      "gasUsedForL1": "0x7a0",
      "l1BlockNumber": "0x6ac373"
    }
  ],
  "libraries": [],
  "pending": [],
  "returns": {},
  "timestamp": 1730549347,
  "chain": 421614,
  "commit": "34a11392"
}