{
  "transactions": [
    {
      "hash": "0xde52819399fec6d273355e827e0636bb171b62b2138ea5c1a73365ad4e772a50",
      "transactionType": "CALL",
      "contractName": null,
      "contractAddress": "0xf77c7bdf97245eb9b12e7d7c10ab6abc2aba0f6a",
      "function": "addDappAddr(uint256,string[])",
      "arguments": [
        "44",
        "[0x605ab9626e57c5d1f3f0508d5400ab0449b5a015]"
      ],
      "transaction": {
        "from": "0xe62ab4d111f968660c6b2188046f9b9ba53c4bae",
        "to": "0xf77c7bdf97245eb9b12e7d7c10ab6abc2aba0f6a",
        "gas": "0xca7fb",
        "value": "0x0",
        "input": "0xbb03a47e000000000000000000000000000000000000000000000000000000000000002c000000000000000000000000000000000000000000000000000000000000004000000000000000000000000000000000000000000000000000000000000000010000000000000000000000000000000000000000000000000000000000000020000000000000000000000000000000000000000000000000000000000000002a30783630356162393632366535376335643166336630353038643534303061623034343962356130313500000000000000000000000000000000000000000000",
        "nonce": "0x44f",
        "chainId": "0x66eee"
      },
      "additionalContracts": [],
      "isFixedGasLimit": false
    }
  ],
  "receipts": [
    {
      "status": "0x1",
      "cumulativeGasUsed": "0x7e45c",
      "logs": [
        {
          "address": "0xf77c7bdf97245eb9b12e7d7c10ab6abc2aba0f6a",
          "topics": [
            "0x6e806e4274e1ae2fda14f84ae0177d6248dd126572ee44f546d4645c41ee2f77",
            "0x000000000000000000000000000000000000000000000000000000000000002c"
          ],
          "data": "0x000000000000000000000000000000000000000000000000000000000000002000000000000000000000000000000000000000000000000000000000000000010000000000000000000000000000000000000000000000000000000000000020000000000000000000000000000000000000000000000000000000000000002a30783630356162393632366535376335643166336630353038643534303061623034343962356130313500000000000000000000000000000000000000000000",
          "blockHash": "0xc9e1a6b128e91ef03c2fe72d2d6fb07f7dbe5a60060a9d60dd42cbf7f9f4bd8f",
          "blockNumber": "0x5ebbf56",
          "transactionHash": "0xde52819399fec6d273355e827e0636bb171b62b2138ea5c1a73365ad4e772a50",
          "transactionIndex": "0x1",
          "logIndex": "0x0",
          "removed": false
        }
      ],
      "logsBloom": "0x00000000000000000000000000000000000000000000800000000040000000000000000000000000000000000000000000000000000000000000000000000000000000000000000000000000000000000000000000000000000000000000000100000001000040000000000108000000000000000000000000000000004000000000000000000000000000000000000000000000000000000000000000000000000000000000000000000000000000000000000000000000000000000000000000000000000000000000000000000000000000000000000800000000000000000000000000000000000000000000000000000000000000000000000000000000",
      "type": "0x2",
      "transactionHash": "0xde52819399fec6d273355e827e0636bb171b62b2138ea5c1a73365ad4e772a50",
      "transactionIndex": "0x1",
      "blockHash": "0xc9e1a6b128e91ef03c2fe72d2d6fb07f7dbe5a60060a9d60dd42cbf7f9f4bd8f",
      "blockNumber": "0x5ebbf56",
      "gasUsed": "0x7e45c",
      "effectiveGasPrice": "0x5f5e100",
      "from": "0xe62ab4d111f968660c6b2188046f9b9ba53c4bae",
      "to": "0xf77c7bdf97245eb9b12e7d7c10ab6abc2aba0f6a",
      "contractAddress": null,
      "gasUsedForL1": "0x6f5de",
      "l1BlockNumber": "0x6cb572"
    }
  ],
  "libraries": [],
  "pending": [],
  "returns": {},
  "timestamp": 1732214404,
  "chain": 421614,
  "commit": "4b2e1f8c"
}