{
  "transactions": [
    {
      "hash": "0xff0e873757c0979e304d0cc4748799552b8d19ef11d8c22db569e1311d33fbca",
      "transactionType": "CALL",
      "contractName": null,
      "contractAddress": "0xf77c7bdf97245eb9b12e7d7c10ab6abc2aba0f6a",
      "function": "addDappAddr(uint256,string[])",
      "arguments": [
        "44",
        "[0x41543a4c6423e2546fc58ac63117b5692d68c323]"
      ],
      "transaction": {
        "from": "0xe62ab4d111f968660c6b2188046f9b9ba53c4bae",
        "to": "0xf77c7bdf97245eb9b12e7d7c10ab6abc2aba0f6a",
        "gas": "0x20171",
        "value": "0x0",
        "input": "0xbb03a47e000000000000000000000000000000000000000000000000000000000000002c000000000000000000000000000000000000000000000000000000000000004000000000000000000000000000000000000000000000000000000000000000010000000000000000000000000000000000000000000000000000000000000020000000000000000000000000000000000000000000000000000000000000002a30783431353433613463363432336532353436666335386163363331313762353639326436386333323300000000000000000000000000000000000000000000",
        "nonce": "0x2e9",
        "chainId": "0x66eee"
      },
      "additionalContracts": [],
      "isFixedGasLimit": false
    }
  ],
  "receipts": [
    {
      "status": "0x1",
      "cumulativeGasUsed": "0x16635",
      "logs": [
        {
          "address": "0xf77c7bdf97245eb9b12e7d7c10ab6abc2aba0f6a",
          "topics": [
            "0x6e806e4274e1ae2fda14f84ae0177d6248dd126572ee44f546d4645c41ee2f77",
            "0x000000000000000000000000000000000000000000000000000000000000002c"
          ],
          "data": "0x000000000000000000000000000000000000000000000000000000000000002000000000000000000000000000000000000000000000000000000000000000010000000000000000000000000000000000000000000000000000000000000020000000000000000000000000000000000000000000000000000000000000002a30783431353433613463363432336532353436666335386163363331313762353639326436386333323300000000000000000000000000000000000000000000",
          "blockHash": "0xe9da02fb9ed90f43f5ac4eac14c87fbfca8d0847208207be12b8da6a17cf2389",
          "blockNumber": "0x5a0a3cd",
          "transactionHash": "0xff0e873757c0979e304d0cc4748799552b8d19ef11d8c22db569e1311d33fbca",
          "transactionIndex": "0x1",
          "logIndex": "0x0",
          "removed": false
        }
      ],
      "logsBloom": "0x00000000000000000000000000000000000000000000800000000040000000000000000000000000000000000000000000000000000000000000000000000000000000000000000000000000000000000000000000000000000000000000000100000001000040000000000108000000000000000000000000000000004000000000000000000000000000000000000000000000000000000000000000000000000000000000000000000000000000000000000000000000000000000000000000000000000000000000000000000000000000000000000800000000000000000000000000000000000000000000000000000000000000000000000000000000",
      "type": "0x2",
      "transactionHash": "0xff0e873757c0979e304d0cc4748799552b8d19ef11d8c22db569e1311d33fbca",
      "transactionIndex": "0x1",
      "blockHash": "0xe9da02fb9ed90f43f5ac4eac14c87fbfca8d0847208207be12b8da6a17cf2389",
      "blockNumber": "0x5a0a3cd",
      "gasUsed": "0x16635",
      "effectiveGasPrice": "0x5f5e100",
      "from": "0xe62ab4d111f968660c6b2188046f9b9ba53c4bae",
      "to": "0xf77c7bdf97245eb9b12e7d7c10ab6abc2aba0f6a",
      "contractAddress": null,
      "gasUsedForL1": "0x77b7",
      "l1BlockNumber": "0x6b0046"
    }
  ],
  "libraries": [],
  "pending": [],
  "returns": {},
  "timestamp": 1730752927,
  "chain": 421614,
  "commit": "34a11392"
}