{
  "transactions": [
    {
      "hash": "0x9b4c8e9742004df9a1b54f601e1b445289356044d0be0ec228e8f26841879710",
      "transactionType": "CALL",
      "contractName": null,
      "contractAddress": "0xf77c7bdf97245eb9b12e7d7c10ab6abc2aba0f6a",
      "function": "addDappAddr(uint256,string[])",
      "arguments": [
        "47",
        "[0x699de1ff83fad8c40aea628975e1b3ee71dcfb56]"
      ],
      "transaction": {
        "from": "0xe62ab4d111f968660c6b2188046f9b9ba53c4bae",
        "to": "0xf77c7bdf97245eb9b12e7d7c10ab6abc2aba0f6a",
        "gas": "0x1a797",
        "value": "0x0",
        "input": "0xbb03a47e000000000000000000000000000000000000000000000000000000000000002f000000000000000000000000000000000000000000000000000000000000004000000000000000000000000000000000000000000000000000000000000000010000000000000000000000000000000000000000000000000000000000000020000000000000000000000000000000000000000000000000000000000000002a30783639396465316666383366616438633430616561363238393735653162336565373164636662353600000000000000000000000000000000000000000000",
        "nonce": "0x419",
        "chainId": "0x66eee"
      },
      "additionalContracts": [],
      "isFixedGasLimit": false
    }
  ],
  "receipts": [
    {
      "status": "0x1",
      "cumulativeGasUsed": "0xb139a",
      "logs": [
        {
          "address": "0xf77c7bdf97245eb9b12e7d7c10ab6abc2aba0f6a",
          "topics": [
            "0x6e806e4274e1ae2fda14f84ae0177d6248dd126572ee44f546d4645c41ee2f77",
            "0x000000000000000000000000000000000000000000000000000000000000002f"
          ],
          "data": "0x000000000000000000000000000000000000000000000000000000000000002000000000000000000000000000000000000000000000000000000000000000010000000000000000000000000000000000000000000000000000000000000020000000000000000000000000000000000000000000000000000000000000002a30783639396465316666383366616438633430616561363238393735653162336565373164636662353600000000000000000000000000000000000000000000",
          "blockHash": "0x3ab703b8b4896f94c045845605d949726ce5b4c8c2259c3b79a367abc3991e72",
          "blockNumber": "0x5e3ceee",
          "transactionHash": "0x9b4c8e9742004df9a1b54f601e1b445289356044d0be0ec228e8f26841879710",
          "transactionIndex": "0x10",
          "logIndex": "0x0",
          "removed": false
        }
      ],
      "logsBloom": "0x00000000000000000000000000000000000080000000800000000040000000000000000000000000000000000000000000000000000000000000000000000000000000000000000000000000000000000000000000000000000000000000000100000001000040000000000008000000000000000000000000000000000000000000000000000000000000000000000000000000000000000000000000000000000000000000000000000000000000000000000000000000000000000000000000000000000000000000000000000000000000000000000000000000000000000000000000000000000000000000000000000000000004000000000000080000",
      "type": "0x2",
      "transactionHash": "0x9b4c8e9742004df9a1b54f601e1b445289356044d0be0ec228e8f26841879710",
      "transactionIndex": "0x10",
      "blockHash": "0x3ab703b8b4896f94c045845605d949726ce5b4c8c2259c3b79a367abc3991e72",
      "blockNumber": "0x5e3ceee",
      "gasUsed": "0x130f5",
      "effectiveGasPrice": "0x5f5e100",
      "from": "0xe62ab4d111f968660c6b2188046f9b9ba53c4bae",
      "to": "0xf77c7bdf97245eb9b12e7d7c10ab6abc2aba0f6a",
      "contractAddress": null,
      "gasUsedForL1": "0x4277",
      "l1BlockNumber": "0x6c8857"
    }
  ],
  "libraries": [],
  "pending": [],
  "returns": {},
  "timestamp": 1732067391,
  "chain": 421614,
  "commit": "4b2e1f8c"
}