{
  "transactions": [
    {
      "hash": "0xb15faf99fedb51ea755f3b9bdb9c34a0c12c778bfb8d51dc4ccfd6404049d6e7",
      "transactionType": "CALL",
      "contractName": null,
      "contractAddress": "0xf77c7bdf97245eb9b12e7d7c10ab6abc2aba0f6a",
      "function": "addDappAddr(uint256,string[])",
      "arguments": [
        "44",
        "[0xeeccd5e6b0c4dca7d06bef132e3be04009eeef65]"
      ],
      "transaction": {
        "from": "0xe62ab4d111f968660c6b2188046f9b9ba53c4bae",
        "to": "0xf77c7bdf97245eb9b12e7d7c10ab6abc2aba0f6a",
        "gas": "0x14ed0",
        "value": "0x0",
        "input": "0xbb03a47e000000000000000000000000000000000000000000000000000000000000002c000000000000000000000000000000000000000000000000000000000000004000000000000000000000000000000000000000000000000000000000000000010000000000000000000000000000000000000000000000000000000000000020000000000000000000000000000000000000000000000000000000000000002a30786565636364356536623063346463613764303662656631333265336265303430303965656566363500000000000000000000000000000000000000000000",
        "nonce": "0x27b",
        "chainId": "0x66eee"
      },
      "additionalContracts": [],
      "isFixedGasLimit": false
    }
  ],
  "receipts": [
    {
      "status": "0x1",
      "cumulativeGasUsed": "0x8f1a7",
      "logs": [
        {
          "address": "0xf77c7bdf97245eb9b12e7d7c10ab6abc2aba0f6a",
          "topics": [
            "0x6e806e4274e1ae2fda14f84ae0177d6248dd126572ee44f546d4645c41ee2f77",
            "0x000000000000000000000000000000000000000000000000000000000000002c"
          ],
          "data": "0x000000000000000000000000000000000000000000000000000000000000002000000000000000000000000000000000000000000000000000000000000000010000000000000000000000000000000000000000000000000000000000000020000000000000000000000000000000000000000000000000000000000000002a30786565636364356536623063346463613764303662656631333265336265303430303965656566363500000000000000000000000000000000000000000000",
          "blockHash": "0x49edf7ab0a8ed62e66ba1147202fb45d87d16a9ddb68cd210a3fa1812430ac45",
          "blockNumber": "0x596c325",
          "transactionHash": "0xb15faf99fedb51ea755f3b9bdb9c34a0c12c778bfb8d51dc4ccfd6404049d6e7",
          "transactionIndex": "0x4",
          "logIndex": "0xd",
          "removed": false
        }
      ],
      "logsBloom": "0x00000000000000000000000000000000000000000000800000000040000000000000000000000000000000000000000000000000000000000000000000000000000000000000000000000000000000000000000000000000000000000000000100000001000040000000000108000000000000000000000000000000004000000000000000000000000000000000000000000000000000000000000000000000000000000000000000000000000000000000000000000000000000000000000000000000000000000000000000000000000000000000000800000000000000000000000000000000000000000000000000000000000000000000000000000000",
      "type": "0x2",
      "transactionHash": "0xb15faf99fedb51ea755f3b9bdb9c34a0c12c778bfb8d51dc4ccfd6404049d6e7",
      "transactionIndex": "0x4",
      "blockHash": "0x49edf7ab0a8ed62e66ba1147202fb45d87d16a9ddb68cd210a3fa1812430ac45",
      "blockNumber": "0x596c325",
      "gasUsed": "0xfafe",
      "effectiveGasPrice": "0x5f5e100",
      "from": "0xe62ab4d111f968660c6b2188046f9b9ba53c4bae",
      "to": "0xf77c7bdf97245eb9b12e7d7c10ab6abc2aba0f6a",
      "contractAddress": null,
      "gasUsedForL1": "0xc80",
      "l1BlockNumber": "0x6ac31d"
    }
  ],
  "libraries": [],
  "pending": [],
  "returns": {},
  "timestamp": 1730548285,
  "chain": 421614,
  "commit": "34a11392"
}