{
  "transactions": [
    {
      "hash": "0xa19e57537059ac00368537d20cfc03ad8843a0ca89b22767f2cfb9ef8819f172",
      "transactionType": "CALL",
      "contractName": null,
      "contractAddress": "0xf77c7bdf97245eb9b12e7d7c10ab6abc2aba0f6a",
      "function": "addDappAddr(uint256,string[])",
      "arguments": [
        "47",
        "[0xe305d37adbe6f7c987108f537dc247f8df5c1f24]"
      ],
      "transaction": {
        "from": "0xe62ab4d111f968660c6b2188046f9b9ba53c4bae",
        "to": "0xf77c7bdf97245eb9b12e7d7c10ab6abc2aba0f6a",
        "gas": "0x15934",
        "value": "0x0",
        "input": "0xbb03a47e000000000000000000000000000000000000000000000000000000000000002f000000000000000000000000000000000000000000000000000000000000004000000000000000000000000000000000000000000000000000000000000000010000000000000000000000000000000000000000000000000000000000000020000000000000000000000000000000000000000000000000000000000000002a30786533303564333761646265366637633938373130386635333764633234376638646635633166323400000000000000000000000000000000000000000000",
        "nonce": "0x291",
        "chainId": "0x66eee"
      },
      "additionalContracts": [],
      "isFixedGasLimit": false
    }
  ],
  "receipts": [
    {
      "status": "0x1",
      "cumulativeGasUsed": "0x1c270",
      "logs": [
        {
          "address": "0xf77c7bdf97245eb9b12e7d7c10ab6abc2aba0f6a",
          "topics": [
            "0x6e806e4274e1ae2fda14f84ae0177d6248dd126572ee44f546d4645c41ee2f77",
            "0x000000000000000000000000000000000000000000000000000000000000002f"
          ],
          "data": "0x000000000000000000000000000000000000000000000000000000000000002000000000000000000000000000000000000000000000000000000000000000010000000000000000000000000000000000000000000000000000000000000020000000000000000000000000000000000000000000000000000000000000002a30786533303564333761646265366637633938373130386635333764633234376638646635633166323400000000000000000000000000000000000000000000",
          "blockHash": "0xb63301d4c6633d35d40bf6458ab9ecc29b5e50c3b9051dfb92a559cff2c7c54f",
          "blockNumber": "0x596d40f",
          "transactionHash": "0xa19e57537059ac00368537d20cfc03ad8843a0ca89b22767f2cfb9ef8819f172",
          "transactionIndex": "0x2",
          "logIndex": "0x1",
          "removed": false
        }
      ],
      "logsBloom": "0x00000000000000000000000000000000000080000000800000000040000000000000000000000000000000000000000000000000000000000000000000000000000000000000000000000000000000000000000000000000000000000000000100000001000040000000000008000000000000000000000000000000000000000000000000000000000000000000000000000000000000000000000000000000000000000000000000000000000000000000000000000000000000000000000000000000000000000000000000000000000000000000000000000000000000000000000000000000000000000000000000000000000004000000000000080000",
      "type": "0x2",
      "transactionHash": "0xa19e57537059ac00368537d20cfc03ad8843a0ca89b22767f2cfb9ef8819f172",
      "transactionIndex": "0x2",
      "blockHash": "0xb63301d4c6633d35d40bf6458ab9ecc29b5e50c3b9051dfb92a559cff2c7c54f",
      "blockNumber": "0x596d40f",
      "gasUsed": "0x101c0",
      "effectiveGasPrice": "0x5f5e100",
      "from": "0xe62ab4d111f968660c6b2188046f9b9ba53c4bae",
      "to": "0xf77c7bdf97245eb9b12e7d7c10ab6abc2aba0f6a",
      "contractAddress": null,
      "gasUsedForL1": "0x1342",
      "l1BlockNumber": "0x6ac37f"
    }
  ],
  "libraries": [],
  "pending": [],
  "returns": {},
  "timestamp": 1730549508,
  "chain": 421614,
  "commit": "34a11392"
}