{
  "transactions": [
    {
      "hash": "0x9f7a950436c664dfb996e1a59d9d0ccfee97906f18d69d80fdd794946cf33057",
      "transactionType": "CALL",
      "contractName": null,
      "contractAddress": "0xf77c7bdf97245eb9b12e7d7c10ab6abc2aba0f6a",
      "function": "addDappAddr(uint256,string[])",
      "arguments": [
        "58",
        "[0xc7a339588569da96def78a96732ee20c3446bf11]"
      ],
      "transaction": {
        "from": "0xe62ab4d111f968660c6b2188046f9b9ba53c4bae",
        "to": "0xf77c7bdf97245eb9b12e7d7c10ab6abc2aba0f6a",
        "gas": "0x18c34",
        "value": "0x0",
        "input": "0xbb03a47e000000000000000000000000000000000000000000000000000000000000003a000000000000000000000000000000000000000000000000000000000000004000000000000000000000000000000000000000000000000000000000000000010000000000000000000000000000000000000000000000000000000000000020000000000000000000000000000000000000000000000000000000000000002a30786337613333393538383536396461393664656637386139363733326565323063333434366266313100000000000000000000000000000000000000000000",
        "nonce": "0xaee",
        "chainId": "0x66eee"
      },
      "additionalContracts": [],
      "isFixedGasLimit": false
    },
    {
      "hash": "0x3f14981029303a7f24f406de6ba75cf0ef3b7ebd4d50b2929ca4e74e57bdc478",
      "transactionType": "CALL",
      "contractName": null,
      "contractAddress": "0xf77c7bdf97245eb9b12e7d7c10ab6abc2aba0f6a",
      "function": "addDappAddr(uint256,string[])",
      "arguments": [
        "58",
        "[0x604643f60b3bf7ee767a998e35fe0b9c6356223a]"
      ],
      "transaction": {
        "from": "0xe62ab4d111f968660c6b2188046f9b9ba53c4bae",
        "to": "0xf77c7bdf97245eb9b12e7d7c10ab6abc2aba0f6a",
        "gas": "0x18c34",
        "value": "0x0",
        "input": "0xbb03a47e000000000000000000000000000000000000000000000000000000000000003a000000000000000000000000000000000000000000000000000000000000004000000000000000000000000000000000000000000000000000000000000000010000000000000000000000000000000000000000000000000000000000000020000000000000000000000000000000000000000000000000000000000000002a30783630343634336636306233626637656537363761393938653335666530623963363335363232336100000000000000000000000000000000000000000000",
        "nonce": "0xaef",
        "chainId": "0x66eee"
      },
      "additionalContracts": [],
      "isFixedGasLimit": false
    },
    {
      "hash": "0xdb7cb7f790cd65f02d50e4f190ffb1c44ffe2afbf6ba110e04c185cfac96bcf9",
      "transactionType": "CALL",
      "contractName": null,
      "contractAddress": "0xf77c7bdf97245eb9b12e7d7c10ab6abc2aba0f6a",
      "function": "addDappAddr(uint256,string[])",
      "arguments": [
        "58",
        "[0xca19ddc73718512b968b2cb838b1408885d74a05]"
      ],
      "transaction": {
        "from": "0xe62ab4d111f968660c6b2188046f9b9ba53c4bae",
        "to": "0xf77c7bdf97245eb9b12e7d7c10ab6abc2aba0f6a",
        "gas": "0x18b62",
        "value": "0x0",
        "input": "0xbb03a47e000000000000000000000000000000000000000000000000000000000000003a000000000000000000000000000000000000000000000000000000000000004000000000000000000000000000000000000000000000000000000000000000010000000000000000000000000000000000000000000000000000000000000020000000000000000000000000000000000000000000000000000000000000002a30786361313964646337333731383531326239363862326362383338623134303838383564373461303500000000000000000000000000000000000000000000",
        "nonce": "0xaf0",
        "chainId": "0x66eee"
      },
      "additionalContracts": [],
      "isFixedGasLimit": false
    },
    {
      "hash": "0x3fd86a49f4869f25fadcf823fd48d1bea580712a3218e018e8582f2ad278373a",
      "transactionType": "CALL",
      "contractName": null,
      "contractAddress": "0xf77c7bdf97245eb9b12e7d7c10ab6abc2aba0f6a",
      "function": "addDappAddr(uint256,string[])",
      "arguments": [
        "58",
        "[0xefbd6990a5c4abfa30b91409aa3d9a0e7c8bb77b]"
      ],
      "transaction": {
        "from": "0xe62ab4d111f968660c6b2188046f9b9ba53c4bae",
        "to": "0xf77c7bdf97245eb9b12e7d7c10ab6abc2aba0f6a",
        "gas": "0x18bac",
        "value": "0x0",
        "input": "0xbb03a47e000000000000000000000000000000000000000000000000000000000000003a000000000000000000000000000000000000000000000000000000000000004000000000000000000000000000000000000000000000000000000000000000010000000000000000000000000000000000000000000000000000000000000020000000000000000000000000000000000000000000000000000000000000002a30786566626436393930613563346162666133306239313430396161336439613065376338626237376200000000000000000000000000000000000000000000",
        "nonce": "0xaf1",
        "chainId": "0x66eee"
      },
      "additionalContracts": [],
      "isFixedGasLimit": false
    },
    {
      "hash": "0x41e83f0c728b010a7486617e249d70d0bd195c4253acab80827c77866bd480a8",
      "transactionType": "CALL",
      "contractName": null,
      "contractAddress": "0xf77c7bdf97245eb9b12e7d7c10ab6abc2aba0f6a",
      "function": "addDappAddr(uint256,string[])",
      "arguments": [
        "58",
        "[0xf7548cb35188aa7dac8423faa2ace3855634e40c]"
      ],
      "transaction": {
        "from": "0xe62ab4d111f968660c6b2188046f9b9ba53c4bae",
        "to": "0xf77c7bdf97245eb9b12e7d7c10ab6abc2aba0f6a",
        "gas": "0x18c34",
        "value": "0x0",
        "input": "0xbb03a47e000000000000000000000000000000000000000000000000000000000000003a000000000000000000000000000000000000000000000000000000000000004000000000000000000000000000000000000000000000000000000000000000010000000000000000000000000000000000000000000000000000000000000020000000000000000000000000000000000000000000000000000000000000002a30786637353438636233353138386161376461633834323366616132616365333835353633346534306300000000000000000000000000000000000000000000",
        "nonce": "0xaf2",
        "chainId": "0x66eee"
      },
      "additionalContracts": [],
      "isFixedGasLimit": false
    },
    {
      "hash": "0xa31ecf4f66169f3662cb8c760d855a36305014b92af6a76e67611a9c2c485a86",
      "transactionType": "CALL",
      "contractName": null,
      "contractAddress": "0xf77c7bdf97245eb9b12e7d7c10ab6abc2aba0f6a",
      "function": "addDappAddr(uint256,string[])",
      "arguments": [
        "58",
        "[0x7aeecccafb96e53460b5b633fc668adf14ed8419]"
      ],
      "transaction": {
        "from": "0xe62ab4d111f968660c6b2188046f9b9ba53c4bae",
        "to": "0xf77c7bdf97245eb9b12e7d7c10ab6abc2aba0f6a",
        "gas": "0x18bac",
        "value": "0x0",
        "input": "0xbb03a47e000000000000000000000000000000000000000000000000000000000000003a000000000000000000000000000000000000000000000000000000000000004000000000000000000000000000000000000000000000000000000000000000010000000000000000000000000000000000000000000000000000000000000020000000000000000000000000000000000000000000000000000000000000002a30783761656563636361666239366535333436306235623633336663363638616466313465643834313900000000000000000000000000000000000000000000",
        "nonce": "0xaf3",
        "chainId": "0x66eee"
      },
      "additionalContracts": [],
      "isFixedGasLimit": false
    },
    {
      "hash": "0x7ca3c39528c0c1158abea495fc676c044fab84af3633e3f8e8e275e7914eafa1",
      "transactionType": "CALL",
      "contractName": null,
      "contractAddress": "0xf77c7bdf97245eb9b12e7d7c10ab6abc2aba0f6a",
      "function": "addDappAddr(uint256,string[])",
      "arguments": [
        "58",
        "[0xc98984dae5ef66e702fe16d1b69b043bc163435c]"
      ],
      "transaction": {
        "from": "0xe62ab4d111f968660c6b2188046f9b9ba53c4bae",
        "to": "0xf77c7bdf97245eb9b12e7d7c10ab6abc2aba0f6a",
        "gas": "0x18bf1",
        "value": "0x0",
        "input": "0xbb03a47e000000000000000000000000000000000000000000000000000000000000003a000000000000000000000000000000000000000000000000000000000000004000000000000000000000000000000000000000000000000000000000000000010000000000000000000000000000000000000000000000000000000000000020000000000000000000000000000000000000000000000000000000000000002a30786339383938346461653565663636653730326665313664316236396230343362633136333433356300000000000000000000000000000000000000000000",
        "nonce": "0xaf4",
        "chainId": "0x66eee"
      },
      "additionalContracts": [],
      "isFixedGasLimit": false
    },
    {
      "hash": "0x6b7a600c82bce86d59b87fe8f63c5aef5365a64c54e4e69d1d008d96ee73c7b0",
      "transactionType": "CALL",
      "contractName": null,
      "contractAddress": "0xf77c7bdf97245eb9b12e7d7c10ab6abc2aba0f6a",
      "function": "addDappAddr(uint256,string[])",
      "arguments": [
        "58",
        "[0x3ffbc9f4c2bb8fb74ab712d3e01c695ce2329b1d]"
      ],
      "transaction": {
        "from": "0xe62ab4d111f968660c6b2188046f9b9ba53c4bae",
        "to": "0xf77c7bdf97245eb9b12e7d7c10ab6abc2aba0f6a",
        "gas": "0x18bf1",
        "value": "0x0",
        "input": "0xbb03a47e000000000000000000000000000000000000000000000000000000000000003a000000000000000000000000000000000000000000000000000000000000004000000000000000000000000000000000000000000000000000000000000000010000000000000000000000000000000000000000000000000000000000000020000000000000000000000000000000000000000000000000000000000000002a30783366666263396634633262623866623734616237313264336530316336393563653233323962316400000000000000000000000000000000000000000000",
        "nonce": "0xaf5",
        "chainId": "0x66eee"
      },
      "additionalContracts": [],
      "isFixedGasLimit": false
    },
    {
      "hash": "0xa8818332deb68a40682461385be55c63dcfbb23b04f0dbe4c12d2c78825c6b28",
      "transactionType": "CALL",
      "contractName": null,
      "contractAddress": "0xf77c7bdf97245eb9b12e7d7c10ab6abc2aba0f6a",
      "function": "addDappAddr(uint256,string[])",
      "arguments": [
        "58",
        "[0xb128ee08fb55a9ae0b18d753a093bf40ebc1d804]"
      ],
      "transaction": {
        "from": "0xe62ab4d111f968660c6b2188046f9b9ba53c4bae",
        "to": "0xf77c7bdf97245eb9b12e7d7c10ab6abc2aba0f6a",
        "gas": "0x18bf1",
        "value": "0x0",
        "input": "0xbb03a47e000000000000000000000000000000000000000000000000000000000000003a000000000000000000000000000000000000000000000000000000000000004000000000000000000000000000000000000000000000000000000000000000010000000000000000000000000000000000000000000000000000000000000020000000000000000000000000000000000000000000000000000000000000002a30786231323865653038666235356139616530623138643735336130393362663430656263316438303400000000000000000000000000000000000000000000",
        "nonce": "0xaf6",
        "chainId": "0x66eee"
      },
      "additionalContracts": [],
      "isFixedGasLimit": false
    },
    {
      "hash": "0x87038574cd176d8dd65d3c536b9c4d3c17c2de8b4fd9b2dcd986485bb8156e10",
      "transactionType": "CALL",
      "contractName": null,
      "contractAddress": "0xf77c7bdf97245eb9b12e7d7c10ab6abc2aba0f6a",
      "function": "addDappAddr(uint256,string[])",
      "arguments": [
        "58",
        "[0x45cdde4bdabc97b3ec02b1271432ceebc04d4c53]"
      ],
      "transaction": {
        "from": "0xe62ab4d111f968660c6b2188046f9b9ba53c4bae",
        "to": "0xf77c7bdf97245eb9b12e7d7c10ab6abc2aba0f6a",
        "gas": "0x18b1d",
        "value": "0x0",
        "input": "0xbb03a47e000000000000000000000000000000000000000000000000000000000000003a000000000000000000000000000000000000000000000000000000000000004000000000000000000000000000000000000000000000000000000000000000010000000000000000000000000000000000000000000000000000000000000020000000000000000000000000000000000000000000000000000000000000002a30783435636464653462646162633937623365633032623132373134333263656562633034643463353300000000000000000000000000000000000000000000",
        "nonce": "0xaf7",
        "chainId": "0x66eee"
      },
      "additionalContracts": [],
      "isFixedGasLimit": false
    },
    {
      "hash": "0x67414b9bb61f2d153c6c13afd102ef09fabee169137d6c2d852d056f9d584b32",
      "transactionType": "CALL",
      "contractName": null,
      "contractAddress": "0xf77c7bdf97245eb9b12e7d7c10ab6abc2aba0f6a",
      "function": "addDappAddr(uint256,string[])",
      "arguments": [
        "58",
        "[0x2ad99b7d982b119848a647676c02663018a1928a]"
      ],
      "transaction": {
        "from": "0xe62ab4d111f968660c6b2188046f9b9ba53c4bae",
        "to": "0xf77c7bdf97245eb9b12e7d7c10ab6abc2aba0f6a",
        "gas": "0x18bac",
        "value": "0x0",
        "input": "0xbb03a47e000000000000000000000000000000000000000000000000000000000000003a000000000000000000000000000000000000000000000000000000000000004000000000000000000000000000000000000000000000000000000000000000010000000000000000000000000000000000000000000000000000000000000020000000000000000000000000000000000000000000000000000000000000002a30783261643939623764393832623131393834386136343736373663303236363330313861313932386100000000000000000000000000000000000000000000",
        "nonce": "0xaf8",
        "chainId": "0x66eee"
      },
      "additionalContracts": [],
      "isFixedGasLimit": false
    },
    {
      "hash": "0xe1684c2a2160021a938bb8db45efd53e623e9d02eb0b8aa7c24be126f39d6899",
      "transactionType": "CALL",
      "contractName": null,
      "contractAddress": "0xf77c7bdf97245eb9b12e7d7c10ab6abc2aba0f6a",
      "function": "addDappAddr(uint256,string[])",
      "arguments": [
        "58",
        "[0xe831d6dcaf9f45089eb82dcdda8014355273f1dc]"
      ],
      "transaction": {
        "from": "0xe62ab4d111f968660c6b2188046f9b9ba53c4bae",
        "to": "0xf77c7bdf97245eb9b12e7d7c10ab6abc2aba0f6a",
        "gas": "0x18c34",
        "value": "0x0",
        "input": "0xbb03a47e000000000000000000000000000000000000000000000000000000000000003a000000000000000000000000000000000000000000000000000000000000004000000000000000000000000000000000000000000000000000000000000000010000000000000000000000000000000000000000000000000000000000000020000000000000000000000000000000000000000000000000000000000000002a30786538333164366463616639663435303839656238326463646461383031343335353237336631646300000000000000000000000000000000000000000000",
        "nonce": "0xaf9",
        "chainId": "0x66eee"
      },
      "additionalContracts": [],
      "isFixedGasLimit": false
    },
    {
      "hash": "0x4b2492c3c61a32b4f0db49ff74520d0915fcbcd39cf29edd60896044e778a7d3",
      "transactionType": "CALL",
      "contractName": null,
      "contractAddress": "0xf77c7bdf97245eb9b12e7d7c10ab6abc2aba0f6a",
      "function": "addDappAddr(uint256,string[])",
      "arguments": [
        "58",
        "[0x0000000000000000000000000000000000000000]"
      ],
      "transaction": {
        "from": "0xe62ab4d111f968660c6b2188046f9b9ba53c4bae",
        "to": "0xf77c7bdf97245eb9b12e7d7c10ab6abc2aba0f6a",
        "gas": "0x182f7",
        "value": "0x0",
        "input": "0xbb03a47e000000000000000000000000000000000000000000000000000000000000003a000000000000000000000000000000000000000000000000000000000000004000000000000000000000000000000000000000000000000000000000000000010000000000000000000000000000000000000000000000000000000000000020000000000000000000000000000000000000000000000000000000000000002a30783030303030303030303030303030303030303030303030303030303030303030303030303030303000000000000000000000000000000000000000000000",
        "nonce": "0xafa",
        "chainId": "0x66eee"
      },
      "additionalContracts": [],
      "isFixedGasLimit": false
    }
  ],
  "receipts": [
    {
      "status": "0x1",
      "cumulativeGasUsed": "0x11f8b",
      "logs": [
        {
          "address": "0xf77c7bdf97245eb9b12e7d7c10ab6abc2aba0f6a",
          "topics": [
            "0x6e806e4274e1ae2fda14f84ae0177d6248dd126572ee44f546d4645c41ee2f77",
            "0x000000000000000000000000000000000000000000000000000000000000003a"
          ],
          "data": "0x000000000000000000000000000000000000000000000000000000000000002000000000000000000000000000000000000000000000000000000000000000010000000000000000000000000000000000000000000000000000000000000020000000000000000000000000000000000000000000000000000000000000002a30786337613333393538383536396461393664656637386139363733326565323063333434366266313100000000000000000000000000000000000000000000",
          "blockHash": "0x794231570c0525c14361f0252262cb31ea38ef0575d39e28072b7174eed939b0",
          "blockNumber": "0x7e88844",
          "transactionHash": "0x9f7a950436c664dfb996e1a59d9d0ccfee97906f18d69d80fdd794946cf33057",
          "transactionIndex": "0x1",
          "logIndex": "0x0",
          "removed": false
        }
      ],
      "logsBloom": "0x00000000000000000000000000000000000000000000800000000040000000000000000000000000000000000000000000000000000000000000000000000000000000000000000000000000000000020000000000000000000000000000000100000001000040000000000008000000000000000000000000000000000000000000000000000000000000000000000000000080000000000000000000000000000000000000000000000000020000000000000000000000000000000000000000000000000000000000000000000000000000000000000000000000000000000000000000000000000000000000000000000000000000000000000000000000",
      "type": "0x2",
      "transactionHash": "0x9f7a950436c664dfb996e1a59d9d0ccfee97906f18d69d80fdd794946cf33057",
      "transactionIndex": "0x1",
      "blockHash": "0x794231570c0525c14361f0252262cb31ea38ef0575d39e28072b7174eed939b0",
      "blockNumber": "0x7e88844",
      "gasUsed": "0x11f8b",
      "effectiveGasPrice": "0x5f5e100",
      "from": "0xe62ab4d111f968660c6b2188046f9b9ba53c4bae",
      "to": "0xf77c7bdf97245eb9b12e7d7c10ab6abc2aba0f6a",
      "contractAddress": null,
      "gasUsedForL1": "0x310d",
      "l1BlockNumber": "0x78adcc",
      "timeboosted": false
    },
    {
      "status": "0x1",
      "cumulativeGasUsed": "0x1201a",
      "logs": [
        {
          "address": "0xf77c7bdf97245eb9b12e7d7c10ab6abc2aba0f6a",
          "topics": [
            "0x6e806e4274e1ae2fda14f84ae0177d6248dd126572ee44f546d4645c41ee2f77",
            "0x000000000000000000000000000000000000000000000000000000000000003a"
          ],
          "data": "0x000000000000000000000000000000000000000000000000000000000000002000000000000000000000000000000000000000000000000000000000000000010000000000000000000000000000000000000000000000000000000000000020000000000000000000000000000000000000000000000000000000000000002a30783630343634336636306233626637656537363761393938653335666530623963363335363232336100000000000000000000000000000000000000000000",
          "blockHash": "0x375aaeed2b9a4d095c2b7d25fb0ec63f2d54583e3aa1aa2e35983c415b478f60",
          "blockNumber": "0x7e8884f",
          "transactionHash": "0x3f14981029303a7f24f406de6ba75cf0ef3b7ebd4d50b2929ca4e74e57bdc478",
          "transactionIndex": "0x1",
          "logIndex": "0x0",
          "removed": false
        }
      ],
      "logsBloom": "0x00000000000000000000000000000000000000000000800000000040000000000000000000000000000000000000000000000000000000000000000000000000000000000000000000000000000000020000000000000000000000000000000100000001000040000000000008000000000000000000000000000000000000000000000000000000000000000000000000000080000000000000000000000000000000000000000000000000020000000000000000000000000000000000000000000000000000000000000000000000000000000000000000000000000000000000000000000000000000000000000000000000000000000000000000000000",
      "type": "0x2",
      "transactionHash": "0x3f14981029303a7f24f406de6ba75cf0ef3b7ebd4d50b2929ca4e74e57bdc478",
      "transactionIndex": "0x1",
      "blockHash": "0x375aaeed2b9a4d095c2b7d25fb0ec63f2d54583e3aa1aa2e35983c415b478f60",
      "blockNumber": "0x7e8884f",
      "gasUsed": "0x1201a",
      "effectiveGasPrice": "0x5f5e100",
      "from": "0xe62ab4d111f968660c6b2188046f9b9ba53c4bae",
      "to": "0xf77c7bdf97245eb9b12e7d7c10ab6abc2aba0f6a",
      "contractAddress": null,
      "gasUsedForL1": "0x319c",
      "l1BlockNumber": "0x78adcc",
      "timeboosted": false
    },
    {
      "status": "0x1",
      "cumulativeGasUsed": "0x362ca",
      "logs": [
        {
          "address": "0xf77c7bdf97245eb9b12e7d7c10ab6abc2aba0f6a",
          "topics": [
            "0x6e806e4274e1ae2fda14f84ae0177d6248dd126572ee44f546d4645c41ee2f77",
            "0x000000000000000000000000000000000000000000000000000000000000003a"
          ],
          "data": "0x000000000000000000000000000000000000000000000000000000000000002000000000000000000000000000000000000000000000000000000000000000010000000000000000000000000000000000000000000000000000000000000020000000000000000000000000000000000000000000000000000000000000002a30786361313964646337333731383531326239363862326362383338623134303838383564373461303500000000000000000000000000000000000000000000",
          "blockHash": "0x6ba7363282d5b01875d8b12db78d002cca1b60277e5c10c21a1ec377e764f574",
          "blockNumber": "0x7e88858",
          "transactionHash": "0xdb7cb7f790cd65f02d50e4f190ffb1c44ffe2afbf6ba110e04c185cfac96bcf9",
          "transactionIndex": "0x2",
          "logIndex": "0x3",
          "removed": false
        }
      ],
      "logsBloom": "0x00000000000000000000000000000000000000000000800000000040000000000000000000000000000000000000000000000000000000000000000000000000000000000000000000000000000000020000000000000000000000000000000100000001000040000000000008000000000000000000000000000000000000000000000000000000000000000000000000000080000000000000000000000000000000000000000000000000020000000000000000000000000000000000000000000000000000000000000000000000000000000000000000000000000000000000000000000000000000000000000000000000000000000000000000000000",
      "type": "0x2",
      "transactionHash": "0xdb7cb7f790cd65f02d50e4f190ffb1c44ffe2afbf6ba110e04c185cfac96bcf9",
      "transactionIndex": "0x2",
      "blockHash": "0x6ba7363282d5b01875d8b12db78d002cca1b60277e5c10c21a1ec377e764f574",
      "blockNumber": "0x7e88858",
      "gasUsed": "0x11f2b",
      "effectiveGasPrice": "0x5f5e100",
      "from": "0xe62ab4d111f968660c6b2188046f9b9ba53c4bae",
      "to": "0xf77c7bdf97245eb9b12e7d7c10ab6abc2aba0f6a",
      "contractAddress": null,
      "gasUsedForL1": "0x30ad",
      "l1BlockNumber": "0x78adcc",
      "timeboosted": false
    },
    {
      "status": "0x1",
      "cumulativeGasUsed": "0xd7da8",
      "logs": [
        {
          "address": "0xf77c7bdf97245eb9b12e7d7c10ab6abc2aba0f6a",
          "topics": [
            "0x6e806e4274e1ae2fda14f84ae0177d6248dd126572ee44f546d4645c41ee2f77",
            "0x000000000000000000000000000000000000000000000000000000000000003a"
          ],
          "data": "0x000000000000000000000000000000000000000000000000000000000000002000000000000000000000000000000000000000000000000000000000000000010000000000000000000000000000000000000000000000000000000000000020000000000000000000000000000000000000000000000000000000000000002a30786566626436393930613563346162666133306239313430396161336439613065376338626237376200000000000000000000000000000000000000000000",
          "blockHash": "0xd6a76b07645fc56e2638a0a55ec0fbdce37f8cb75906b14727285facb4d51cab",
          "blockNumber": "0x7e88861",
          "transactionHash": "0x3fd86a49f4869f25fadcf823fd48d1bea580712a3218e018e8582f2ad278373a",
          "transactionIndex": "0x3",
          "logIndex": "0x4",
          "removed": false
        }
      ],
      "logsBloom": "0x00000000000000000000000000000000000000000000800000000040000000000000000000000000000000000000000000000000000000000000000000000000000000000000000000000000000000020000000000000000000000000000000100000001000040000000000008000000000000000000000000000000000000000000000000000000000000000000000000000080000000000000000000000000000000000000000000000000020000000000000000000000000000000000000000000000000000000000000000000000000000000000000000000000000000000000000000000000000000000000000000000000000000000000000000000000",
      "type": "0x2",
      "transactionHash": "0x3fd86a49f4869f25fadcf823fd48d1bea580712a3218e018e8582f2ad278373a",
      "transactionIndex": "0x3",
      "blockHash": "0xd6a76b07645fc56e2638a0a55ec0fbdce37f8cb75906b14727285facb4d51cab",
      "blockNumber": "0x7e88861",
      "gasUsed": "0x11fba",
      "effectiveGasPrice": "0x5f5e100",
      "from": "0xe62ab4d111f968660c6b2188046f9b9ba53c4bae",
      "to": "0xf77c7bdf97245eb9b12e7d7c10ab6abc2aba0f6a",
      "contractAddress": null,
      "gasUsedForL1": "0x313c",
      "l1BlockNumber": "0x78adcd",
      "timeboosted": false
    },
    {
      "status": "0x1",
      "cumulativeGasUsed": "0x11f8b",
      "logs": [
        {
          "address": "0xf77c7bdf97245eb9b12e7d7c10ab6abc2aba0f6a",
          "topics": [
            "0x6e806e4274e1ae2fda14f84ae0177d6248dd126572ee44f546d4645c41ee2f77",
            "0x000000000000000000000000000000000000000000000000000000000000003a"
          ],
          "data": "0x000000000000000000000000000000000000000000000000000000000000002000000000000000000000000000000000000000000000000000000000000000010000000000000000000000000000000000000000000000000000000000000020000000000000000000000000000000000000000000000000000000000000002a30786637353438636233353138386161376461633834323366616132616365333835353633346534306300000000000000000000000000000000000000000000",
          "blockHash": "0xaeaa7d42e845c5cf86df63657c67d7ee94fc22b67119266a9466d739d6506e1f",
          "blockNumber": "0x7e8886e",
          "transactionHash": "0x41e83f0c728b010a7486617e249d70d0bd195c4253acab80827c77866bd480a8",
          "transactionIndex": "0x1",
          "logIndex": "0x0",
          "removed": false
        }
      ],
      "logsBloom": "0x00000000000000000000000000000000000000000000800000000040000000000000000000000000000000000000000000000000000000000000000000000000000000000000000000000000000000020000000000000000000000000000000100000001000040000000000008000000000000000000000000000000000000000000000000000000000000000000000000000080000000000000000000000000000000000000000000000000020000000000000000000000000000000000000000000000000000000000000000000000000000000000000000000000000000000000000000000000000000000000000000000000000000000000000000000000",
      "type": "0x2",
      "transactionHash": "0x41e83f0c728b010a7486617e249d70d0bd195c4253acab80827c77866bd480a8",
      "transactionIndex": "0x1",
      "blockHash": "0xaeaa7d42e845c5cf86df63657c67d7ee94fc22b67119266a9466d739d6506e1f",
      "blockNumber": "0x7e8886e",
      "gasUsed": "0x11f8b",
      "effectiveGasPrice": "0x5f5e100",
      "from": "0xe62ab4d111f968660c6b2188046f9b9ba53c4bae",
      "to": "0xf77c7bdf97245eb9b12e7d7c10ab6abc2aba0f6a",
      "contractAddress": null,
      "gasUsedForL1": "0x310d",
      "l1BlockNumber": "0x78adcd",
      "timeboosted": false
    },
    {
      "status": "0x1",
      "cumulativeGasUsed": "0x1207a",
      "logs": [
        {
          "address": "0xf77c7bdf97245eb9b12e7d7c10ab6abc2aba0f6a",
          "topics": [
            "0x6e806e4274e1ae2fda14f84ae0177d6248dd126572ee44f546d4645c41ee2f77",
            "0x000000000000000000000000000000000000000000000000000000000000003a"
          ],
          "data": "0x000000000000000000000000000000000000000000000000000000000000002000000000000000000000000000000000000000000000000000000000000000010000000000000000000000000000000000000000000000000000000000000020000000000000000000000000000000000000000000000000000000000000002a30783761656563636361666239366535333436306235623633336663363638616466313465643834313900000000000000000000000000000000000000000000",
          "blockHash": "0xbdd59daa4fd1dfc6e62da6837550f3aa4410f7da44e76ebbfa779798ad263a15",
          "blockNumber": "0x7e88878",
          "transactionHash": "0xa31ecf4f66169f3662cb8c760d855a36305014b92af6a76e67611a9c2c485a86",
          "transactionIndex": "0x1",
          "logIndex": "0x0",
          "removed": false
        }
      ],
      "logsBloom": "0x00000000000000000000000000000000000000000000800000000040000000000000000000000000000000000000000000000000000000000000000000000000000000000000000000000000000000020000000000000000000000000000000100000001000040000000000008000000000000000000000000000000000000000000000000000000000000000000000000000080000000000000000000000000000000000000000000000000020000000000000000000000000000000000000000000000000000000000000000000000000000000000000000000000000000000000000000000000000000000000000000000000000000000000000000000000",
      "type": "0x2",
      "transactionHash": "0xa31ecf4f66169f3662cb8c760d855a36305014b92af6a76e67611a9c2c485a86",
      "transactionIndex": "0x1",
      "blockHash": "0xbdd59daa4fd1dfc6e62da6837550f3aa4410f7da44e76ebbfa779798ad263a15",
      "blockNumber": "0x7e88878",
      "gasUsed": "0x1207a",
      "effectiveGasPrice": "0x5f5e100",
      "from": "0xe62ab4d111f968660c6b2188046f9b9ba53c4bae",
      "to": "0xf77c7bdf97245eb9b12e7d7c10ab6abc2aba0f6a",
      "contractAddress": null,
      "gasUsedForL1": "0x31fc",
      "l1BlockNumber": "0x78adcd",
      "timeboosted": false
    },
    {
      "status": "0x1",
      "cumulativeGasUsed": "0x1210a",
      "logs": [
        {
          "address": "0xf77c7bdf97245eb9b12e7d7c10ab6abc2aba0f6a",
          "topics": [
            "0x6e806e4274e1ae2fda14f84ae0177d6248dd126572ee44f546d4645c41ee2f77",
            "0x000000000000000000000000000000000000000000000000000000000000003a"
          ],
          "data": "0x000000000000000000000000000000000000000000000000000000000000002000000000000000000000000000000000000000000000000000000000000000010000000000000000000000000000000000000000000000000000000000000020000000000000000000000000000000000000000000000000000000000000002a30786339383938346461653565663636653730326665313664316236396230343362633136333433356300000000000000000000000000000000000000000000",
          "blockHash": "0x08376f1e2ec8af92c3cbb352077c08d8e5b61d6dc32e2d2143c8a082fd1ef3f4",
          "blockNumber": "0x7e88881",
          "transactionHash": "0x7ca3c39528c0c1158abea495fc676c044fab84af3633e3f8e8e275e7914eafa1",
          "transactionIndex": "0x1",
          "logIndex": "0x0",
          "removed": false
        }
      ],
      "logsBloom": "0x00000000000000000000000000000000000000000000800000000040000000000000000000000000000000000000000000000000000000000000000000000000000000000000000000000000000000020000000000000000000000000000000100000001000040000000000008000000000000000000000000000000000000000000000000000000000000000000000000000080000000000000000000000000000000000000000000000000020000000000000000000000000000000000000000000000000000000000000000000000000000000000000000000000000000000000000000000000000000000000000000000000000000000000000000000000",
      "type": "0x2",
      "transactionHash": "0x7ca3c39528c0c1158abea495fc676c044fab84af3633e3f8e8e275e7914eafa1",
      "transactionIndex": "0x1",
      "blockHash": "0x08376f1e2ec8af92c3cbb352077c08d8e5b61d6dc32e2d2143c8a082fd1ef3f4",
      "blockNumber": "0x7e88881",
      "gasUsed": "0x1210a",
      "effectiveGasPrice": "0x5f5e100",
      "from": "0xe62ab4d111f968660c6b2188046f9b9ba53c4bae",
      "to": "0xf77c7bdf97245eb9b12e7d7c10ab6abc2aba0f6a",
      "contractAddress": null,
      "gasUsedForL1": "0x328c",
      "l1BlockNumber": "0x78adcd",
      "timeboosted": false
    },
    {
      "status": "0x1",
      "cumulativeGasUsed": "0x11fba",
      "logs": [
        {
          "address": "0xf77c7bdf97245eb9b12e7d7c10ab6abc2aba0f6a",
          "topics": [
            "0x6e806e4274e1ae2fda14f84ae0177d6248dd126572ee44f546d4645c41ee2f77",
            "0x000000000000000000000000000000000000000000000000000000000000003a"
          ],
          "data": "0x000000000000000000000000000000000000000000000000000000000000002000000000000000000000000000000000000000000000000000000000000000010000000000000000000000000000000000000000000000000000000000000020000000000000000000000000000000000000000000000000000000000000002a30783366666263396634633262623866623734616237313264336530316336393563653233323962316400000000000000000000000000000000000000000000",
          "blockHash": "0x11d53308c2dfaf69d296bc54af53ee67392cdcbcc0f6908e0e548c6212aa5fb7",
          "blockNumber": "0x7e8888b",
          "transactionHash": "0x6b7a600c82bce86d59b87fe8f63c5aef5365a64c54e4e69d1d008d96ee73c7b0",
          "transactionIndex": "0x1",
          "logIndex": "0x0",
          "removed": false
        }
      ],
      "logsBloom": "0x00000000000000000000000000000000000000000000800000000040000000000000000000000000000000000000000000000000000000000000000000000000000000000000000000000000000000020000000000000000000000000000000100000001000040000000000008000000000000000000000000000000000000000000000000000000000000000000000000000080000000000000000000000000000000000000000000000000020000000000000000000000000000000000000000000000000000000000000000000000000000000000000000000000000000000000000000000000000000000000000000000000000000000000000000000000",
      "type": "0x2",
      "transactionHash": "0x6b7a600c82bce86d59b87fe8f63c5aef5365a64c54e4e69d1d008d96ee73c7b0",
      "transactionIndex": "0x1",
      "blockHash": "0x11d53308c2dfaf69d296bc54af53ee67392cdcbcc0f6908e0e548c6212aa5fb7",
      "blockNumber": "0x7e8888b",
      "gasUsed": "0x11fba",
      "effectiveGasPrice": "0x5f5e100",
      "from": "0xe62ab4d111f968660c6b2188046f9b9ba53c4bae",
      "to": "0xf77c7bdf97245eb9b12e7d7c10ab6abc2aba0f6a",
      "contractAddress": null,
      "gasUsedForL1": "0x313c",
      "l1BlockNumber": "0x78adcd",
      "timeboosted": false
    },
    {
      "status": "0x1",
      "cumulativeGasUsed": "0x1204a",
      "logs": [
        {
          "address": "0xf77c7bdf97245eb9b12e7d7c10ab6abc2aba0f6a",
          "topics": [
            "0x6e806e4274e1ae2fda14f84ae0177d6248dd126572ee44f546d4645c41ee2f77",
            "0x000000000000000000000000000000000000000000000000000000000000003a"
          ],
          "data": "0x000000000000000000000000000000000000000000000000000000000000002000000000000000000000000000000000000000000000000000000000000000010000000000000000000000000000000000000000000000000000000000000020000000000000000000000000000000000000000000000000000000000000002a30786231323865653038666235356139616530623138643735336130393362663430656263316438303400000000000000000000000000000000000000000000",
          "blockHash": "0x9f5c55fbae503da5615227cc69567a91c67d0e26779ea6cfac55b962eba3d151",
          "blockNumber": "0x7e88896",
          "transactionHash": "0xa8818332deb68a40682461385be55c63dcfbb23b04f0dbe4c12d2c78825c6b28",
          "transactionIndex": "0x1",
          "logIndex": "0x0",
          "removed": false
        }
      ],
      "logsBloom": "0x00000000000000000000000000000000000000000000800000000040000000000000000000000000000000000000000000000000000000000000000000000000000000000000000000000000000000020000000000000000000000000000000100000001000040000000000008000000000000000000000000000000000000000000000000000000000000000000000000000080000000000000000000000000000000000000000000000000020000000000000000000000000000000000000000000000000000000000000000000000000000000000000000000000000000000000000000000000000000000000000000000000000000000000000000000000",
      "type": "0x2",
      "transactionHash": "0xa8818332deb68a40682461385be55c63dcfbb23b04f0dbe4c12d2c78825c6b28",
      "transactionIndex": "0x1",
      "blockHash": "0x9f5c55fbae503da5615227cc69567a91c67d0e26779ea6cfac55b962eba3d151",
      "blockNumber": "0x7e88896",
      "gasUsed": "0x1204a",
      "effectiveGasPrice": "0x5f5e100",
      "from": "0xe62ab4d111f968660c6b2188046f9b9ba53c4bae",
      "to": "0xf77c7bdf97245eb9b12e7d7c10ab6abc2aba0f6a",
      "contractAddress": null,
      "gasUsedForL1": "0x31cc",
      "l1BlockNumber": "0x78adcd",
      "timeboosted": false
    },
    {
      "status": "0x1",
      "cumulativeGasUsed": "0xb89b6",
      "logs": [
        {
          "address": "0xf77c7bdf97245eb9b12e7d7c10ab6abc2aba0f6a",
          "topics": [
            "0x6e806e4274e1ae2fda14f84ae0177d6248dd126572ee44f546d4645c41ee2f77",
            "0x000000000000000000000000000000000000000000000000000000000000003a"
          ],
          "data": "0x000000000000000000000000000000000000000000000000000000000000002000000000000000000000000000000000000000000000000000000000000000010000000000000000000000000000000000000000000000000000000000000020000000000000000000000000000000000000000000000000000000000000002a30783435636464653462646162633937623365633032623132373134333263656562633034643463353300000000000000000000000000000000000000000000",
          "blockHash": "0xe072c07b3c430735497b36bb74f2251953dc67dc278db1386bf4746f9e76cd84",
          "blockNumber": "0x7e88899",
          "transactionHash": "0x87038574cd176d8dd65d3c536b9c4d3c17c2de8b4fd9b2dcd986485bb8156e10",
          "transactionIndex": "0x2",
          "logIndex": "0x1",
          "removed": false
        }
      ],
      "logsBloom": "0x00000000000000000000000000000000000000000000800000000040000000000000000000000000000000000000000000000000000000000000000000000000000000000000000000000000000000020000000000000000000000000000000100000001000040000000000008000000000000000000000000000000000000000000000000000000000000000000000000000080000000000000000000000000000000000000000000000000020000000000000000000000000000000000000000000000000000000000000000000000000000000000000000000000000000000000000000000000000000000000000000000000000000000000000000000000",
      "type": "0x2",
      "transactionHash": "0x87038574cd176d8dd65d3c536b9c4d3c17c2de8b4fd9b2dcd986485bb8156e10",
      "transactionIndex": "0x2",
      "blockHash": "0xe072c07b3c430735497b36bb74f2251953dc67dc278db1386bf4746f9e76cd84",
      "blockNumber": "0x7e88899",
      "gasUsed": "0x11e9b",
      "effectiveGasPrice": "0x5f5e100",
      "from": "0xe62ab4d111f968660c6b2188046f9b9ba53c4bae",
      "to": "0xf77c7bdf97245eb9b12e7d7c10ab6abc2aba0f6a",
      "contractAddress": null,
      "gasUsedForL1": "0x301d",
      "l1BlockNumber": "0x78adcf",
      "timeboosted": false
    },
    {
      "status": "0x1",
      "cumulativeGasUsed": "0x120da",
      "logs": [
        {
          "address": "0xf77c7bdf97245eb9b12e7d7c10ab6abc2aba0f6a",
          "topics": [
            "0x6e806e4274e1ae2fda14f84ae0177d6248dd126572ee44f546d4645c41ee2f77",
            "0x000000000000000000000000000000000000000000000000000000000000003a"
          ],
          "data": "0x000000000000000000000000000000000000000000000000000000000000002000000000000000000000000000000000000000000000000000000000000000010000000000000000000000000000000000000000000000000000000000000020000000000000000000000000000000000000000000000000000000000000002a30783261643939623764393832623131393834386136343736373663303236363330313861313932386100000000000000000000000000000000000000000000",
          "blockHash": "0xcbb1498f8deb016a2eed66a2f49ebe328005b4b384cb9edbed663c0dcf5d1fa1",
          "blockNumber": "0x7e888a1",
          "transactionHash": "0x67414b9bb61f2d153c6c13afd102ef09fabee169137d6c2d852d056f9d584b32",
          "transactionIndex": "0x1",
          "logIndex": "0x0",
          "removed": false
        }
      ],
      "logsBloom": "0x00000000000000000000000000000000000000000000800000000040000000000000000000000000000000000000000000000000000000000000000000000000000000000000000000000000000000020000000000000000000000000000000100000001000040000000000008000000000000000000000000000000000000000000000000000000000000000000000000000080000000000000000000000000000000000000000000000000020000000000000000000000000000000000000000000000000000000000000000000000000000000000000000000000000000000000000000000000000000000000000000000000000000000000000000000000",
      "type": "0x2",
      "transactionHash": "0x67414b9bb61f2d153c6c13afd102ef09fabee169137d6c2d852d056f9d584b32",
      "transactionIndex": "0x1",
      "blockHash": "0xcbb1498f8deb016a2eed66a2f49ebe328005b4b384cb9edbed663c0dcf5d1fa1",
      "blockNumber": "0x7e888a1",
      "gasUsed": "0x120da",
      "effectiveGasPrice": "0x5f5e100",
      "from": "0xe62ab4d111f968660c6b2188046f9b9ba53c4bae",
      "to": "0xf77c7bdf97245eb9b12e7d7c10ab6abc2aba0f6a",
      "contractAddress": null,
      "gasUsedForL1": "0x325c",
      "l1BlockNumber": "0x78adcf",
      "timeboosted": false
    },
    {
      "status": "0x1",
      "cumulativeGasUsed": "0x120da",
      "logs": [
        {
          "address": "0xf77c7bdf97245eb9b12e7d7c10ab6abc2aba0f6a",
          "topics": [
            "0x6e806e4274e1ae2fda14f84ae0177d6248dd126572ee44f546d4645c41ee2f77",
            "0x000000000000000000000000000000000000000000000000000000000000003a"
          ],
          "data": "0x000000000000000000000000000000000000000000000000000000000000002000000000000000000000000000000000000000000000000000000000000000010000000000000000000000000000000000000000000000000000000000000020000000000000000000000000000000000000000000000000000000000000002a30786538333164366463616639663435303839656238326463646461383031343335353237336631646300000000000000000000000000000000000000000000",
          "blockHash": "0xf74f0f1a11cb8a601d8fdfa2b8d357a9f6e60bd28924199d1276681dacb84f3f",
          "blockNumber": "0x7e888ac",
          "transactionHash": "0xe1684c2a2160021a938bb8db45efd53e623e9d02eb0b8aa7c24be126f39d6899",
          "transactionIndex": "0x1",
          "logIndex": "0x0",
          "removed": false
        }
      ],
      "logsBloom": "0x00000000000000000000000000000000000000000000800000000040000000000000000000000000000000000000000000000000000000000000000000000000000000000000000000000000000000020000000000000000000000000000000100000001000040000000000008000000000000000000000000000000000000000000000000000000000000000000000000000080000000000000000000000000000000000000000000000000020000000000000000000000000000000000000000000000000000000000000000000000000000000000000000000000000000000000000000000000000000000000000000000000000000000000000000000000",
      "type": "0x2",
      "transactionHash": "0xe1684c2a2160021a938bb8db45efd53e623e9d02eb0b8aa7c24be126f39d6899",
      "transactionIndex": "0x1",
      "blockHash": "0xf74f0f1a11cb8a601d8fdfa2b8d357a9f6e60bd28924199d1276681dacb84f3f",
      "blockNumber": "0x7e888ac",
      "gasUsed": "0x120da",
      "effectiveGasPrice": "0x5f5e100",
      "from": "0xe62ab4d111f968660c6b2188046f9b9ba53c4bae",
      "to": "0xf77c7bdf97245eb9b12e7d7c10ab6abc2aba0f6a",
      "contractAddress": null,
      "gasUsedForL1": "0x325c",
      "l1BlockNumber": "0x78adcf",
      "timeboosted": false
    },
    {
      "status": "0x1",
      "cumulativeGasUsed": "0x11b6c",
      "logs": [
        {
          "address": "0xf77c7bdf97245eb9b12e7d7c10ab6abc2aba0f6a",
          "topics": [
            "0x6e806e4274e1ae2fda14f84ae0177d6248dd126572ee44f546d4645c41ee2f77",
            "0x000000000000000000000000000000000000000000000000000000000000003a"
          ],
          "data": "0x000000000000000000000000000000000000000000000000000000000000002000000000000000000000000000000000000000000000000000000000000000010000000000000000000000000000000000000000000000000000000000000020000000000000000000000000000000000000000000000000000000000000002a30783030303030303030303030303030303030303030303030303030303030303030303030303030303000000000000000000000000000000000000000000000",
          "blockHash": "0x390632da97995a8e19964d71a30a566f6f5e9c624abaafbd159f0eefe8c0cecd",
          "blockNumber": "0x7e888b6",
          "transactionHash": "0x4b2492c3c61a32b4f0db49ff74520d0915fcbcd39cf29edd60896044e778a7d3",
          "transactionIndex": "0x1",
          "logIndex": "0x0",
          "removed": false
        }
      ],
      "logsBloom": "0x00000000000000000000000000000000000000000000800000000040000000000000000000000000000000000000000000000000000000000000000000000000000000000000000000000000000000020000000000000000000000000000000100000001000040000000000008000000000000000000000000000000000000000000000000000000000000000000000000000080000000000000000000000000000000000000000000000000020000000000000000000000000000000000000000000000000000000000000000000000000000000000000000000000000000000000000000000000000000000000000000000000000000000000000000000000",
      "type": "0x2",
      "transactionHash": "0x4b2492c3c61a32b4f0db49ff74520d0915fcbcd39cf29edd60896044e778a7d3",
      "transactionIndex": "0x1",
      "blockHash": "0x390632da97995a8e19964d71a30a566f6f5e9c624abaafbd159f0eefe8c0cecd",
      "blockNumber": "0x7e888b6",
      "gasUsed": "0x11b6c",
      "effectiveGasPrice": "0x5f5e100",
      "from": "0xe62ab4d111f968660c6b2188046f9b9ba53c4bae",
      "to": "0xf77c7bdf97245eb9b12e7d7c10ab6abc2aba0f6a",
      "contractAddress": null,
      "gasUsedForL1": "0x2cee",
      "l1BlockNumber": "0x78adcf",
      "timeboosted": false
    }
  ],
  "libraries": [],
  "pending": [],
  "returns": {},
  "timestamp": 1742060472,
  "chain": 421614,
  "commit": "90b3a8ae"
}