{
  "transactions": [
    {
      "hash": "0x753610c71aec34b4bb9b4a708003dd0313bc0b9fe01022f0ff82e181dcac2511",
      "transactionType": "CALL",
      "contractName": null,
      "contractAddress": "0xf77c7bdf97245eb9b12e7d7c10ab6abc2aba0f6a",
      "function": "addDappAddr(uint256,string[])",
      "arguments": [
        "45",
        "[0x8230abab39f9c618282ddd0af1dfa278de7df98f]"
      ],
      "transaction": {
        "from": "0xe62ab4d111f968660c6b2188046f9b9ba53c4bae",
        "to": "0xf77c7bdf97245eb9b12e7d7c10ab6abc2aba0f6a",
        "gas": "0x200cb",
        "value": "0x0",
        "input": "0xbb03a47e000000000000000000000000000000000000000000000000000000000000002d000000000000000000000000000000000000000000000000000000000000004000000000000000000000000000000000000000000000000000000000000000010000000000000000000000000000000000000000000000000000000000000020000000000000000000000000000000000000000000000000000000000000002a30783832333061626162333966396336313832383264646430616631646661323738646537646639386600000000000000000000000000000000000000000000",
        "nonce": "0x2ed",
        "chainId": "0x66eee"
      },
      "additionalContracts": [],
      "isFixedGasLimit": false
    }
  ],
  "receipts": [
    {
      "status": "0x1",
      "cumulativeGasUsed": "0x163f1",
      "logs": [
        {
          "address": "0xf77c7bdf97245eb9b12e7d7c10ab6abc2aba0f6a",
          "topics": [
            "0x6e806e4274e1ae2fda14f84ae0177d6248dd126572ee44f546d4645c41ee2f77",
            "0x000000000000000000000000000000000000000000000000000000000000002d"
          ],
          "data": "0x000000000000000000000000000000000000000000000000000000000000002000000000000000000000000000000000000000000000000000000000000000010000000000000000000000000000000000000000000000000000000000000020000000000000000000000000000000000000000000000000000000000000002a30783832333061626162333966396336313832383264646430616631646661323738646537646639386600000000000000000000000000000000000000000000",
          "blockHash": "0x84c4f69033f1fa416e38d6d763450dd7a88ecdfaa6a80007c969f81b3c3529c0",
          "blockNumber": "0x5a0a522",
          "transactionHash": "0x753610c71aec34b4bb9b4a708003dd0313bc0b9fe01022f0ff82e181dcac2511",
          "transactionIndex": "0x1",
          "logIndex": "0x0",
          "removed": false
        }
      ],
      "logsBloom": "0x00000000000000000000000000000000000000000000800000000040000000000000000000000000000000000000000000000000000000000000000400000000000000000000000000000000000000000000000000000000000000000000000100000001000040000000000008000000000000000000000000000000000000000000000000000000000000000000000000000000000000000000000000000000000000000000000000000000000000000000000000000000000010000000000000000000000000000000000000000000000000000000000000000000400000000000000000000000000000000000000000000000000000000000000000000000",
      "type": "0x2",
      "transactionHash": "0x753610c71aec34b4bb9b4a708003dd0313bc0b9fe01022f0ff82e181dcac2511",
      "transactionIndex": "0x1",
      "blockHash": "0x84c4f69033f1fa416e38d6d763450dd7a88ecdfaa6a80007c969f81b3c3529c0",
      "blockNumber": "0x5a0a522",
      "gasUsed": "0x163f1",
      "effectiveGasPrice": "0x5f5e100",
      "from": "0xe62ab4d111f968660c6b2188046f9b9ba53c4bae",
      "to": "0xf77c7bdf97245eb9b12e7d7c10ab6abc2aba0f6a",
      "contractAddress": null,
      "gasUsedForL1": "0x7573",
      "l1BlockNumber": "0x6b004e"
    }
  ],
  "libraries": [],
  "pending": [],
  "returns": {},
  "timestamp": 1730753036,
  "chain": 421614,
  "commit": "34a11392"
}