{
  "transactions": [
    {
      "hash": "0x28bab663bf9c285f55bf26a95c06178fd1e7007e4b360a97f76c193508297aff",
      "transactionType": "CALL",
      "contractName": null,
      "contractAddress": "0xf77c7bdf97245eb9b12e7d7c10ab6abc2aba0f6a",
      "function": "addDappAddr(uint256,string[])",
      "arguments": [
        "48",
        "[0x8e36c2b1ac03d98fac0074c9e8e27023a3ce2206]"
      ],
      "transaction": {
        "from": "0xe62ab4d111f968660c6b2188046f9b9ba53c4bae",
        "to": "0xf77c7bdf97245eb9b12e7d7c10ab6abc2aba0f6a",
        "gas": "0x13a3a",
        "value": "0x0",
        "input": "0xbb03a47e0000000000000000000000000000000000000000000000000000000000000030000000000000000000000000000000000000000000000000000000000000004000000000000000000000000000000000000000000000000000000000000000010000000000000000000000000000000000000000000000000000000000000020000000000000000000000000000000000000000000000000000000000000002a30783865333663326231616330336439386661633030373463396538653237303233613363653232303600000000000000000000000000000000000000000000",
        "nonce": "0x341",
        "chainId": "0x66eee"
      },
      "additionalContracts": [],
      "isFixedGasLimit": false
    }
  ],
  "receipts": [
    {
      "status": "0x1",
      "cumulativeGasUsed": "0xee7e",
      "logs": [
        {
          "address": "0xf77c7bdf97245eb9b12e7d7c10ab6abc2aba0f6a",
          "topics": [
            "0x6e806e4274e1ae2fda14f84ae0177d6248dd126572ee44f546d4645c41ee2f77",
            "0x0000000000000000000000000000000000000000000000000000000000000030"
          ],
          "data": "0x000000000000000000000000000000000000000000000000000000000000002000000000000000000000000000000000000000000000000000000000000000010000000000000000000000000000000000000000000000000000000000000020000000000000000000000000000000000000000000000000000000000000002a30783865333663326231616330336439386661633030373463396538653237303233613363653232303600000000000000000000000000000000000000000000",
          "blockHash": "0x56b76ed2c66263d1eea46bf2013e056465c0f38e7236e25e7b3195cd20bc07a2",
          "blockNumber": "0x5b2d940",
          "transactionHash": "0x28bab663bf9c285f55bf26a95c06178fd1e7007e4b360a97f76c193508297aff",
          "transactionIndex": "0x1",
          "logIndex": "0x0",
          "removed": false
        }
      ],
      "logsBloom": "0x02000000000000000000000000000000000000000000800000000040000000000000000000000000000000000000000000000000000000000000000000000000000000000000000000000000000000000000000000000000000000000000000100000001000040000000000008000000000000000000000000000000000000000000000000000000000000000000000000000000000000000000000000000000000000000000000000000000000000000000000002000000000000000000000000000000000000000000000000000000000000000000000000000000000020000000000000000000000000000000000000000000000000000000000000000000",
      "type": "0x2",
      "transactionHash": "0x28bab663bf9c285f55bf26a95c06178fd1e7007e4b360a97f76c193508297aff",
      "transactionIndex": "0x1",
      "blockHash": "0x56b76ed2c66263d1eea46bf2013e056465c0f38e7236e25e7b3195cd20bc07a2",
      "blockNumber": "0x5b2d940",
      "gasUsed": "0xee7e",
      "effectiveGasPrice": "0x5f5e100",
      "from": "0xe62ab4d111f968660c6b2188046f9b9ba53c4bae",
      "to": "0xf77c7bdf97245eb9b12e7d7c10ab6abc2aba0f6a",
      "contractAddress": null,
      "gasUsedForL1": "0x0",
      "l1BlockNumber": "0x6b64d6"
    }
  ],
  "libraries": [],
  "pending": [],
  "returns": {},
  "timestamp": 1731094222,
  "chain": 421614,
  "commit": "ac6d4a5e"
}