{
  "transactions": [
    {
      "hash": "0x685167b89fd77350d0ca7a58fe224dc03219f029db5f9e9ff50157499e65f0ef",
      "transactionType": "CALL",
      "contractName": null,
      "contractAddress": "0xf77c7bdf97245eb9b12e7d7c10ab6abc2aba0f6a",
      "function": "addDappAddr(uint256,string[])",
      "arguments": [
        "45",
        "[0xe4370824a15854eed6d132cb2c7ee7a4953e7aca]"
      ],
      "transaction": {
        "from": "0xe62ab4d111f968660c6b2188046f9b9ba53c4bae",
        "to": "0xf77c7bdf97245eb9b12e7d7c10ab6abc2aba0f6a",
        "gas": "0x13c3c",
        "value": "0x0",
        "input": "0xbb03a47e000000000000000000000000000000000000000000000000000000000000002d000000000000000000000000000000000000000000000000000000000000004000000000000000000000000000000000000000000000000000000000000000010000000000000000000000000000000000000000000000000000000000000020000000000000000000000000000000000000000000000000000000000000002a30786534333730383234613135383534656564366431333263623263376565376134393533653761636100000000000000000000000000000000000000000000",
        "nonce": "0x394",
        "chainId": "0x66eee"
      },
      "additionalContracts": [],
      "isFixedGasLimit": false
    }
  ],
  "receipts": [
    {
      "status": "0x1",
      "cumulativeGasUsed": "0x4d87e",
      "logs": [
        {
          "address": "0xf77c7bdf97245eb9b12e7d7c10ab6abc2aba0f6a",
          "topics": [
            "0x6e806e4274e1ae2fda14f84ae0177d6248dd126572ee44f546d4645c41ee2f77",
            "0x000000000000000000000000000000000000000000000000000000000000002d"
          ],
          "data": "0x000000000000000000000000000000000000000000000000000000000000002000000000000000000000000000000000000000000000000000000000000000010000000000000000000000000000000000000000000000000000000000000020000000000000000000000000000000000000000000000000000000000000002a30786534333730383234613135383534656564366431333263623263376565376134393533653761636100000000000000000000000000000000000000000000",
          "blockHash": "0xdc3045baacdde1f9fae0d63d438a18a6bcbd2a0c772cb2c5c959da3d54b0a154",
          "blockNumber": "0x5d98b7c",
          "transactionHash": "0x685167b89fd77350d0ca7a58fe224dc03219f029db5f9e9ff50157499e65f0ef",
          "transactionIndex": "0x2",
          "logIndex": "0x1",
          "removed": false
        }
      ],
      "logsBloom": "0x00000000000000000000000000000000000000000000800000000040000000000000000000000000000000000000000000000000000000000000000400000000000000000000000000000000000000000000000000000000000000000000000100000001000040000000000008000000000000000000000000000000000000000000000000000000000000000000000000000000000000000000000000000000000000000000000000000000000000000000000000000000000010000000000000000000000000000000000000000000000000000000000000000000400000000000000000000000000000000000000000000000000000000000000000000000",
      "type": "0x2",
      "transactionHash": "0x685167b89fd77350d0ca7a58fe224dc03219f029db5f9e9ff50157499e65f0ef",
      "transactionIndex": "0x2",
      "blockHash": "0xdc3045baacdde1f9fae0d63d438a18a6bcbd2a0c772cb2c5c959da3d54b0a154",
      "blockNumber": "0x5d98b7c",
      "gasUsed": "0xef8e",
      "effectiveGasPrice": "0x7e5a310",
      "from": "0xe62ab4d111f968660c6b2188046f9b9ba53c4bae",
      "to": "0xf77c7bdf97245eb9b12e7d7c10ab6abc2aba0f6a",
      "contractAddress": null,
      "gasUsedForL1": "0x110",
      "l1BlockNumber": "0x6c46ad"
    }
  ],
  "libraries": [],
  "pending": [],
  "returns": {},
  "timestamp": 1731852350,
  "chain": 421614,
  "commit": "b96f5048"
}