{
  "transactions": [
    {
      "hash": "0x02886c9c59f090868c2929e84a840d4135e8c0252c0dfc709c71bed1c6ef2dd9",
      "transactionType": "CALL",
      "contractName": null,
      "contractAddress": "0xf77c7bdf97245eb9b12e7d7c10ab6abc2aba0f6a",
      "function": "addDappAddr(uint256,string[])",
      "arguments": [
        "44",
        "[0x2ba0f2383bee65838c07f89823414f7ee5124847]"
      ],
      "transaction": {
        "from": "0xe62ab4d111f968660c6b2188046f9b9ba53c4bae",
        "to": "0xf77c7bdf97245eb9b12e7d7c10ab6abc2aba0f6a",
        "gas": "0x14a85",
        "value": "0x0",
        "input": "0xbb03a47e000000000000000000000000000000000000000000000000000000000000002c000000000000000000000000000000000000000000000000000000000000004000000000000000000000000000000000000000000000000000000000000000010000000000000000000000000000000000000000000000000000000000000020000000000000000000000000000000000000000000000000000000000000002a30783262613066323338336265653635383338633037663839383233343134663765653531323438343700000000000000000000000000000000000000000000",
        "nonce": "0x277",
        "chainId": "0x66eee"
      },
      "additionalContracts": [],
      "isFixedGasLimit": false
    }
  ],
  "receipts": [
    {
      "status": "0x1",
      "cumulativeGasUsed": "0xf83b",
      "logs": [
        {
          "address": "0xf77c7bdf97245eb9b12e7d7c10ab6abc2aba0f6a",
          "topics": [
            "0x6e806e4274e1ae2fda14f84ae0177d6248dd126572ee44f546d4645c41ee2f77",
            "0x000000000000000000000000000000000000000000000000000000000000002c"
          ],
          "data": "0x000000000000000000000000000000000000000000000000000000000000002000000000000000000000000000000000000000000000000000000000000000010000000000000000000000000000000000000000000000000000000000000020000000000000000000000000000000000000000000000000000000000000002a30783262613066323338336265653635383338633037663839383233343134663765653531323438343700000000000000000000000000000000000000000000",
          "blockHash": "0xcb106f8560092ff8736cec9faf0f55549a4796a346b2a22336f19072300f0ab1",
          "blockNumber": "0x596ba6f",
          "transactionHash": "0x02886c9c59f090868c2929e84a840d4135e8c0252c0dfc709c71bed1c6ef2dd9",
          "transactionIndex": "0x1",
          "logIndex": "0x0",
          "removed": false
        }
      ],
      "logsBloom": "0x00000000000000000000000000000000000000000000800000000040000000000000000000000000000000000000000000000000000000000000000000000000000000000000000000000000000000000000000000000000000000000000000100000001000040000000000108000000000000000000000000000000004000000000000000000000000000000000000000000000000000000000000000000000000000000000000000000000000000000000000000000000000000000000000000000000000000000000000000000000000000000000000800000000000000000000000000000000000000000000000000000000000000000000000000000000",
      "type": "0x2",
      "transactionHash": "0x02886c9c59f090868c2929e84a840d4135e8c0252c0dfc709c71bed1c6ef2dd9",
      "transactionIndex": "0x1",
      "blockHash": "0xcb106f8560092ff8736cec9faf0f55549a4796a346b2a22336f19072300f0ab1",
      "blockNumber": "0x596ba6f",
      "gasUsed": "0xf83b",
      "effectiveGasPrice": "0x5f5e100",
      "from": "0xe62ab4d111f968660c6b2188046f9b9ba53c4bae",
      "to": "0xf77c7bdf97245eb9b12e7d7c10ab6abc2aba0f6a",
      "contractAddress": null,
      "gasUsedForL1": "0x9bd",
      "l1BlockNumber": "0x6ac2ee"
    }
  ],
  "libraries": [],
  "pending": [],
  "returns": {},
  "timestamp": 1730547668,
  "chain": 421614,
  "commit": "34a11392"
}