{
  "transactions": [
    {
      "hash": "0x9826263fa95874e482ab1b6e7fad9446f9a58d33eeae2ffadd26510cb74b9cf3",
      "transactionType": "CALL",
      "contractName": null,
      "contractAddress": "0xf77c7bdf97245eb9b12e7d7c10ab6abc2aba0f6a",
      "function": "addDappAddr(uint256,string[])",
      "arguments": [
        "45",
        "[0xcff54249dae66746377e15c07d95c42188d5d3a8]"
      ],
      "transaction": {
        "from": "0xe62ab4d111f968660c6b2188046f9b9ba53c4bae",
        "to": "0xf77c7bdf97245eb9b12e7d7c10ab6abc2aba0f6a",
        "gas": "0x18e9a",
        "value": "0x0",
        "input": "0xbb03a47e000000000000000000000000000000000000000000000000000000000000002d000000000000000000000000000000000000000000000000000000000000004000000000000000000000000000000000000000000000000000000000000000010000000000000000000000000000000000000000000000000000000000000020000000000000000000000000000000000000000000000000000000000000002a30786366663534323439646165363637343633373765313563303764393563343231383864356433613800000000000000000000000000000000000000000000",
        "nonce": "0x413",
        "chainId": "0x66eee"
      },
      "additionalContracts": [],
      "isFixedGasLimit": false
    }
  ],
  "receipts": [
    {
      "status": "0x1",
      "cumulativeGasUsed": "0x4d853",
      "logs": [
        {
          "address": "0xf77c7bdf97245eb9b12e7d7c10ab6abc2aba0f6a",
          "topics": [
            "0x6e806e4274e1ae2fda14f84ae0177d6248dd126572ee44f546d4645c41ee2f77",
            "0x000000000000000000000000000000000000000000000000000000000000002d"
          ],
          "data": "0x000000000000000000000000000000000000000000000000000000000000002000000000000000000000000000000000000000000000000000000000000000010000000000000000000000000000000000000000000000000000000000000020000000000000000000000000000000000000000000000000000000000000002a30786366663534323439646165363637343633373765313563303764393563343231383864356433613800000000000000000000000000000000000000000000",
          "blockHash": "0xd22a007b5b1119002f8719dff95451d46edb7b3cf97dc0e8cce317d47201c1b5",
          "blockNumber": "0x5e3cc90",
          "transactionHash": "0x9826263fa95874e482ab1b6e7fad9446f9a58d33eeae2ffadd26510cb74b9cf3",
          "transactionIndex": "0x6",
          "logIndex": "0x1",
          "removed": false
        }
      ],
      "logsBloom": "0x00000000000000000000000000000000000000000000800000000040000000000000000000000000000000000000000000000000000000000000000400000000000000000000000000000000000000000000000000000000000000000000000100000001000040000000000008000000000000000000000000000000000000000000000000000000000000000000000000000000000000000000000000000000000000000000000000000000000000000000000000000000000010000000000000000000000000000000000000000000000000000000000000000000400000000000000000000000000000000000000000000000000000000000000000000000",
      "type": "0x2",
      "transactionHash": "0x9826263fa95874e482ab1b6e7fad9446f9a58d33eeae2ffadd26510cb74b9cf3",
      "transactionIndex": "0x6",
      "blockHash": "0xd22a007b5b1119002f8719dff95451d46edb7b3cf97dc0e8cce317d47201c1b5",
      "blockNumber": "0x5e3cc90",
      "gasUsed": "0x122b6",
      "effectiveGasPrice": "0x5f5e100",
      "from": "0xe62ab4d111f968660c6b2188046f9b9ba53c4bae",
      "to": "0xf77c7bdf97245eb9b12e7d7c10ab6abc2aba0f6a",
      "contractAddress": null,
      "gasUsedForL1": "0x3438",
      "l1BlockNumber": "0x6c884b"
    }
  ],
  "libraries": [],
  "pending": [],
  "returns": {},
  "timestamp": 1732067222,
  "chain": 421614,
  "commit": "4b2e1f8c"
}