{
  "transactions": [
    {
      "hash": "0xc138d9290c11751e325b4da393fe9757259220e161f96b1a5c5ba1c256767ba5",
      "transactionType": "CALL",
      "contractName": null,
      "contractAddress": "0xf77c7bdf97245eb9b12e7d7c10ab6abc2aba0f6a",
      "function": "addDappAddr(uint256,string[])",
      "arguments": [
        "48",
        "[0xaf685f104e7428311f25526180cbd416fa8668cd]"
      ],
      "transaction": {
        "from": "0xe62ab4d111f968660c6b2188046f9b9ba53c4bae",
        "to": "0xf77c7bdf97245eb9b12e7d7c10ab6abc2aba0f6a",
        "gas": "0x87015",
        "value": "0x0",
        "input": "0xbb03a47e0000000000000000000000000000000000000000000000000000000000000030000000000000000000000000000000000000000000000000000000000000004000000000000000000000000000000000000000000000000000000000000000010000000000000000000000000000000000000000000000000000000000000020000000000000000000000000000000000000000000000000000000000000002a30786166363835663130346537343238333131663235353236313830636264343136666138363638636400000000000000000000000000000000000000000000",
        "nonce": "0x2f7",
        "chainId": "0x66eee"
      },
      "additionalContracts": [],
      "isFixedGasLimit": false
    }
  ],
  "receipts": [
    {
      "status": "0x1",
      "cumulativeGasUsed": "0x53c46",
      "logs": [
        {
          "address": "0xf77c7bdf97245eb9b12e7d7c10ab6abc2aba0f6a",
          "topics": [
            "0x6e806e4274e1ae2fda14f84ae0177d6248dd126572ee44f546d4645c41ee2f77",
            "0x0000000000000000000000000000000000000000000000000000000000000030"
          ],
          "data": "0x000000000000000000000000000000000000000000000000000000000000002000000000000000000000000000000000000000000000000000000000000000010000000000000000000000000000000000000000000000000000000000000020000000000000000000000000000000000000000000000000000000000000002a30786166363835663130346537343238333131663235353236313830636264343136666138363638636400000000000000000000000000000000000000000000",
          "blockHash": "0x2b7d41079abba279ff0af56b0880ea920a295f78b051ca2d383ba8fc805cb890",
          "blockNumber": "0x5a0a8f4",
          "transactionHash": "0xc138d9290c11751e325b4da393fe9757259220e161f96b1a5c5ba1c256767ba5",
          "transactionIndex": "0x1",
          "logIndex": "0x0",
          "removed": false
        }
      ],
      "logsBloom": "0x02000000000000000000000000000000000000000000800000000040000000000000000000000000000000000000000000000000000000000000000000000000000000000000000000000000000000000000000000000000000000000000000100000001000040000000000008000000000000000000000000000000000000000000000000000000000000000000000000000000000000000000000000000000000000000000000000000000000000000000000002000000000000000000000000000000000000000000000000000000000000000000000000000000000020000000000000000000000000000000000000000000000000000000000000000000",
      "type": "0x2",
      "transactionHash": "0xc138d9290c11751e325b4da393fe9757259220e161f96b1a5c5ba1c256767ba5",
      "transactionIndex": "0x1",
      "blockHash": "0x2b7d41079abba279ff0af56b0880ea920a295f78b051ca2d383ba8fc805cb890",
      "blockNumber": "0x5a0a8f4",
      "gasUsed": "0x53c46",
      "effectiveGasPrice": "0x5f5e100",
      "from": "0xe62ab4d111f968660c6b2188046f9b9ba53c4bae",
      "to": "0xf77c7bdf97245eb9b12e7d7c10ab6abc2aba0f6a",
      "contractAddress": null,
      "gasUsedForL1": "0x44dc8",
      "l1BlockNumber": "0x6b0066"
    }
  ],
  "libraries": [],
  "pending": [],
  "returns": {},
  "timestamp": 1730753328,
  "chain": 421614,
  "commit": "34a11392"
}