{
  "transactions": [
    {
      "hash": "0xca15d318e33d989954646cc5f52865cb67d773982a337d10c40ea5e633aed53d",
      "transactionType": "CALL",
      "contractName": null,
      "contractAddress": "0xf77c7bdf97245eb9b12e7d7c10ab6abc2aba0f6a",
      "function": "addDappAddr(uint256,string[])",
      "arguments": [
        "48",
        "[0x1a934da311376333e784b1f7afa84287f6122c0d]"
      ],
      "transaction": {
        "from": "0xe62ab4d111f968660c6b2188046f9b9ba53c4bae",
        "to": "0xf77c7bdf97245eb9b12e7d7c10ab6abc2aba0f6a",
        "gas": "0x1576c",
        "value": "0x0",
        "input": "0xbb03a47e0000000000000000000000000000000000000000000000000000000000000030000000000000000000000000000000000000000000000000000000000000004000000000000000000000000000000000000000000000000000000000000000010000000000000000000000000000000000000000000000000000000000000020000000000000000000000000000000000000000000000000000000000000002a30783161393334646133313133373633333365373834623166376166613834323837663631323263306400000000000000000000000000000000000000000000",
        "nonce": "0x29a",
        "chainId": "0x66eee"
      },
      "additionalContracts": [],
      "isFixedGasLimit": false
    }
  ],
  "receipts": [
    {
      "status": "0x1",
      "cumulativeGasUsed": "0x15a0d",
      "logs": [
        {
          "address": "0xf77c7bdf97245eb9b12e7d7c10ab6abc2aba0f6a",
          "topics": [
            "0x6e806e4274e1ae2fda14f84ae0177d6248dd126572ee44f546d4645c41ee2f77",
            "0x0000000000000000000000000000000000000000000000000000000000000030"
          ],
          "data": "0x000000000000000000000000000000000000000000000000000000000000002000000000000000000000000000000000000000000000000000000000000000010000000000000000000000000000000000000000000000000000000000000020000000000000000000000000000000000000000000000000000000000000002a30783161393334646133313133373633333365373834623166376166613834323837663631323263306400000000000000000000000000000000000000000000",
          "blockHash": "0x16e03a78ba1d1b93be10a9278485e6852aac4647847251f00a6c6794a60af5b7",
          "blockNumber": "0x596dad9",
          "transactionHash": "0xca15d318e33d989954646cc5f52865cb67d773982a337d10c40ea5e633aed53d",
          "transactionIndex": "0x2",
          "logIndex": "0x0",
          "removed": false
        }
      ],
      "logsBloom": "0x02000000000000000000000000000000000000000000800000000040000000000000000000000000000000000000000000000000000000000000000000000000000000000000000000000000000000000000000000000000000000000000000100000001000040000000000008000000000000000000000000000000000000000000000000000000000000000000000000000000000000000000000000000000000000000000000000000000000000000000000002000000000000000000000000000000000000000000000000000000000000000000000000000000000020000000000000000000000000000000000000000000000000000000000000000000",
      "type": "0x2",
      "transactionHash": "0xca15d318e33d989954646cc5f52865cb67d773982a337d10c40ea5e633aed53d",
      "transactionIndex": "0x2",
      "blockHash": "0x16e03a78ba1d1b93be10a9278485e6852aac4647847251f00a6c6794a60af5b7",
      "blockNumber": "0x596dad9",
      "gasUsed": "0x1004a",
      "effectiveGasPrice": "0x5f5e100",
      "from": "0xe62ab4d111f968660c6b2188046f9b9ba53c4bae",
      "to": "0xf77c7bdf97245eb9b12e7d7c10ab6abc2aba0f6a",
      "contractAddress": null,
      "gasUsedForL1": "0x11cc",
      "l1BlockNumber": "0x6ac3a5"
    }
  ],
  "libraries": [],
  "pending": [],
  "returns": {},
  "timestamp": 1730550000,
  "chain": 421614,
  "commit": "34a11392"
}