{
  "transactions": [
    {
      "hash": "0x25d8124816a2ecc194218c6d3e26ab06411477eb70e55bc77f309946072616fe",
      "transactionType": "CALL",
      "contractName": null,
      "contractAddress": "0xf77c7bdf97245eb9b12e7d7c10ab6abc2aba0f6a",
      "function": "addDappAddr(uint256,string[])",
      "arguments": [
        "44",
        "[0xb9676266295363bc85a31305b479baddf4516033]"
      ],
      "transaction": {
        "from": "0xe62ab4d111f968660c6b2188046f9b9ba53c4bae",
        "to": "0xf77c7bdf97245eb9b12e7d7c10ab6abc2aba0f6a",
        "gas": "0x14a92",
        "value": "0x0",
        "input": "0xbb03a47e000000000000000000000000000000000000000000000000000000000000002c000000000000000000000000000000000000000000000000000000000000004000000000000000000000000000000000000000000000000000000000000000010000000000000000000000000000000000000000000000000000000000000020000000000000000000000000000000000000000000000000000000000000002a30786239363736323636323935333633626338356133313330356234373962616464663435313630333300000000000000000000000000000000000000000000",
        "nonce": "0x276",
        "chainId": "0x66eee"
      },
      "additionalContracts": [],
      "isFixedGasLimit": false
    }
  ],
  "receipts": [
    {
      "status": "0x1",
      "cumulativeGasUsed": "0xf89b",
      "logs": [
        {
          "address": "0xf77c7bdf97245eb9b12e7d7c10ab6abc2aba0f6a",
          "topics": [
            "0x6e806e4274e1ae2fda14f84ae0177d6248dd126572ee44f546d4645c41ee2f77",
            "0x000000000000000000000000000000000000000000000000000000000000002c"
          ],
          "data": "0x000000000000000000000000000000000000000000000000000000000000002000000000000000000000000000000000000000000000000000000000000000010000000000000000000000000000000000000000000000000000000000000020000000000000000000000000000000000000000000000000000000000000002a30786239363736323636323935333633626338356133313330356234373962616464663435313630333300000000000000000000000000000000000000000000",
          "blockHash": "0x7d923d5986ce186f922b7200bebd62b4c2db6b1b18354492dd400aab198ac49e",
          "blockNumber": "0x596b9cb",
          "transactionHash": "0x25d8124816a2ecc194218c6d3e26ab06411477eb70e55bc77f309946072616fe",
          "transactionIndex": "0x1",
          "logIndex": "0x0",
          "removed": false
        }
      ],
      "logsBloom": "0x00000000000000000000000000000000000000000000800000000040000000000000000000000000000000000000000000000000000000000000000000000000000000000000000000000000000000000000000000000000000000000000000100000001000040000000000108000000000000000000000000000000004000000000000000000000000000000000000000000000000000000000000000000000000000000000000000000000000000000000000000000000000000000000000000000000000000000000000000000000000000000000000800000000000000000000000000000000000000000000000000000000000000000000000000000000",
      "type": "0x2",
      "transactionHash": "0x25d8124816a2ecc194218c6d3e26ab06411477eb70e55bc77f309946072616fe",
      "transactionIndex": "0x1",
      "blockHash": "0x7d923d5986ce186f922b7200bebd62b4c2db6b1b18354492dd400aab198ac49e",
      "blockNumber": "0x596b9cb",
      "gasUsed": "0xf89b",
      "effectiveGasPrice": "0x5f5e100",
      "from": "0xe62ab4d111f968660c6b2188046f9b9ba53c4bae",
      "to": "0xf77c7bdf97245eb9b12e7d7c10ab6abc2aba0f6a",
      "contractAddress": null,
      "gasUsedForL1": "0xa1d",
      "l1BlockNumber": "0x6ac2eb"
    }
  ],
  "libraries": [],
  "pending": [],
  "returns": {},
  "timestamp": 1730547617,
  "chain": 421614,
  "commit": "34a11392"
}