{
  "transactions": [
    {
      "hash": "0x09fdc05101e2d03fb518e6d8d8d4b96128eba5920232a6420f43ba6c5e2a0afb",
      "transactionType": "CALL",
      "contractName": null,
      "contractAddress": "0xf77c7bdf97245eb9b12e7d7c10ab6abc2aba0f6a",
      "function": "addDappAddr(uint256,string[])",
      "arguments": [
        "44",
        "[0x92bb6defef73fa2ee42fec2273d98693571bd7f3]"
      ],
      "transaction": {
        "from": "0xe62ab4d111f968660c6b2188046f9b9ba53c4bae",
        "to": "0xf77c7bdf97245eb9b12e7d7c10ab6abc2aba0f6a",
        "gas": "0x14a92",
        "value": "0x0",
        "input": "0xbb03a47e000000000000000000000000000000000000000000000000000000000000002c000000000000000000000000000000000000000000000000000000000000004000000000000000000000000000000000000000000000000000000000000000010000000000000000000000000000000000000000000000000000000000000020000000000000000000000000000000000000000000000000000000000000002a30783932626236646566656637336661326565343266656332323733643938363933353731626437663300000000000000000000000000000000000000000000",
        "nonce": "0x278",
        "chainId": "0x66eee"
      },
      "additionalContracts": [],
      "isFixedGasLimit": false
    }
  ],
  "receipts": [
    {
      "status": "0x1",
      "cumulativeGasUsed": "0xf86b",
      "logs": [
        {
          "address": "0xf77c7bdf97245eb9b12e7d7c10ab6abc2aba0f6a",
          "topics": [
            "0x6e806e4274e1ae2fda14f84ae0177d6248dd126572ee44f546d4645c41ee2f77",
            "0x000000000000000000000000000000000000000000000000000000000000002c"
          ],
          "data": "0x000000000000000000000000000000000000000000000000000000000000002000000000000000000000000000000000000000000000000000000000000000010000000000000000000000000000000000000000000000000000000000000020000000000000000000000000000000000000000000000000000000000000002a30783932626236646566656637336661326565343266656332323733643938363933353731626437663300000000000000000000000000000000000000000000",
          "blockHash": "0x7748dc68d32023c006f4ed5d63eafa4a18e0b6b062bfbe8cc69142219ee01741",
          "blockNumber": "0x596baca",
          "transactionHash": "0x09fdc05101e2d03fb518e6d8d8d4b96128eba5920232a6420f43ba6c5e2a0afb",
          "transactionIndex": "0x1",
          "logIndex": "0x0",
          "removed": false
        }
      ],
      "logsBloom": "0x00000000000000000000000000000000000000000000800000000040000000000000000000000000000000000000000000000000000000000000000000000000000000000000000000000000000000000000000000000000000000000000000100000001000040000000000108000000000000000000000000000000004000000000000000000000000000000000000000000000000000000000000000000000000000000000000000000000000000000000000000000000000000000000000000000000000000000000000000000000000000000000000800000000000000000000000000000000000000000000000000000000000000000000000000000000",
      "type": "0x2",
      "transactionHash": "0x09fdc05101e2d03fb518e6d8d8d4b96128eba5920232a6420f43ba6c5e2a0afb",
      "transactionIndex": "0x1",
      "blockHash": "0x7748dc68d32023c006f4ed5d63eafa4a18e0b6b062bfbe8cc69142219ee01741",
      "blockNumber": "0x596baca",
      "gasUsed": "0xf86b",
      "effectiveGasPrice": "0x5f5e100",
      "from": "0xe62ab4d111f968660c6b2188046f9b9ba53c4bae",
      "to": "0xf77c7bdf97245eb9b12e7d7c10ab6abc2aba0f6a",
      "contractAddress": null,
      "gasUsedForL1": "0x9ed",
      "l1BlockNumber": "0x6ac2ef"
    }
  ],
  "libraries": [],
  "pending": [],
  "returns": {},
  "timestamp": 1730547691,
  "chain": 421614,
  "commit": "34a11392"
}