{
  "transactions": [
    {
      "hash": "0x71c052bee10d1328bec9e7bea8fbf6a42325114125a7399ea1d57b112f9c4020",
      "transactionType": "CALL",
      "contractName": null,
      "contractAddress": "0xf77c7bdf97245eb9b12e7d7c10ab6abc2aba0f6a",
      "function": "addDappAddr(uint256,string[])",
      "arguments": [
        "47",
        "[0xb64a86e7f8d84b2cd88535bdaac6d19c87754024]"
      ],
      "transaction": {
        "from": "0xe62ab4d111f968660c6b2188046f9b9ba53c4bae",
        "to": "0xf77c7bdf97245eb9b12e7d7c10ab6abc2aba0f6a",
        "gas": "0x1a73c",
        "value": "0x0",
        "input": "0xbb03a47e000000000000000000000000000000000000000000000000000000000000002f000000000000000000000000000000000000000000000000000000000000004000000000000000000000000000000000000000000000000000000000000000010000000000000000000000000000000000000000000000000000000000000020000000000000000000000000000000000000000000000000000000000000002a30786236346138366537663864383462326364383835333562646161633664313963383737353430323400000000000000000000000000000000000000000000",
        "nonce": "0x418",
        "chainId": "0x66eee"
      },
      "additionalContracts": [],
      "isFixedGasLimit": false
    }
  ],
  "receipts": [
    {
      "status": "0x1",
      "cumulativeGasUsed": "0x1032bf",
      "logs": [
        {
          "address": "0xf77c7bdf97245eb9b12e7d7c10ab6abc2aba0f6a",
          "topics": [
            "0x6e806e4274e1ae2fda14f84ae0177d6248dd126572ee44f546d4645c41ee2f77",
            "0x000000000000000000000000000000000000000000000000000000000000002f"
          ],
          "data": "0x000000000000000000000000000000000000000000000000000000000000002000000000000000000000000000000000000000000000000000000000000000010000000000000000000000000000000000000000000000000000000000000020000000000000000000000000000000000000000000000000000000000000002a30786236346138366537663864383462326364383835333562646161633664313963383737353430323400000000000000000000000000000000000000000000",
          "blockHash": "0x1e10d623d2ae06933d4c0d14512f31d9ea3402185a0f318361906d437e8dcda0",
          "blockNumber": "0x5e3ce95",
          "transactionHash": "0x71c052bee10d1328bec9e7bea8fbf6a42325114125a7399ea1d57b112f9c4020",
          "transactionIndex": "0x15",
          "logIndex": "0x1",
          "removed": false
        }
      ],
      "logsBloom": "0x00000000000000000000000000000000000080000000800000000040000000000000000000000000000000000000000000000000000000000000000000000000000000000000000000000000000000000000000000000000000000000000000100000001000040000000000008000000000000000000000000000000000000000000000000000000000000000000000000000000000000000000000000000000000000000000000000000000000000000000000000000000000000000000000000000000000000000000000000000000000000000000000000000000000000000000000000000000000000000000000000000000000004000000000000080000",
      "type": "0x2",
      "transactionHash": "0x71c052bee10d1328bec9e7bea8fbf6a42325114125a7399ea1d57b112f9c4020",
      "transactionIndex": "0x15",
      "blockHash": "0x1e10d623d2ae06933d4c0d14512f31d9ea3402185a0f318361906d437e8dcda0",
      "blockNumber": "0x5e3ce95",
      "gasUsed": "0x13135",
      "effectiveGasPrice": "0x5f5e100",
      "from": "0xe62ab4d111f968660c6b2188046f9b9ba53c4bae",
      "to": "0xf77c7bdf97245eb9b12e7d7c10ab6abc2aba0f6a",
      "contractAddress": null,
      "gasUsedForL1": "0x42b7",
      "l1BlockNumber": "0x6c8855"
    }
  ],
  "libraries": [],
  "pending": [],
  "returns": {},
  "timestamp": 1732067368,
  "chain": 421614,
  "commit": "4b2e1f8c"
}