{
  "transactions": [
    {
      "hash": "0x89a75c133ddf70f5e11592c22f95d627e425ef5ad7603a510be4b23a1ca466d4",
      "transactionType": "CALL",
      "contractName": null,
      "contractAddress": "0xf77c7bdf97245eb9b12e7d7c10ab6abc2aba0f6a",
      "function": "addDappAddr(uint256,string[])",
      "arguments": [
        "44",
        "[0x4a82933a6d097a1f4c99880e4a3b4c7b7d291765]"
      ],
      "transaction": {
        "from": "0xe62ab4d111f968660c6b2188046f9b9ba53c4bae",
        "to": "0xf77c7bdf97245eb9b12e7d7c10ab6abc2aba0f6a",
        "gas": "0x146dd",
        "value": "0x0",
        "input": "0xbb03a47e000000000000000000000000000000000000000000000000000000000000002c000000000000000000000000000000000000000000000000000000000000004000000000000000000000000000000000000000000000000000000000000000010000000000000000000000000000000000000000000000000000000000000020000000000000000000000000000000000000000000000000000000000000002a30783461383239333361366430393761316634633939383830653461336234633762376432393137363500000000000000000000000000000000000000000000",
        "nonce": "0x27e",
        "chainId": "0x66eee"
      },
      "additionalContracts": [],
      "isFixedGasLimit": false
    }
  ],
  "receipts": [
    {
      "status": "0x1",
      "cumulativeGasUsed": "0x1d41a",
      "logs": [
        {
          "address": "0xf77c7bdf97245eb9b12e7d7c10ab6abc2aba0f6a",
          "topics": [
            "0x6e806e4274e1ae2fda14f84ae0177d6248dd126572ee44f546d4645c41ee2f77",
            "0x000000000000000000000000000000000000000000000000000000000000002c"
          ],
          "data": "0x000000000000000000000000000000000000000000000000000000000000002000000000000000000000000000000000000000000000000000000000000000010000000000000000000000000000000000000000000000000000000000000020000000000000000000000000000000000000000000000000000000000000002a30783461383239333361366430393761316634633939383830653461336234633762376432393137363500000000000000000000000000000000000000000000",
          "blockHash": "0x2548da4ce649bc5b41431eca3daeb38fae6d4d17cb66f86ef18d8bf8adf53dea",
          "blockNumber": "0x596c8ae",
          "transactionHash": "0x89a75c133ddf70f5e11592c22f95d627e425ef5ad7603a510be4b23a1ca466d4",
          "transactionIndex": "0x2",
          "logIndex": "0x1",
          "removed": false
        }
      ],
      "logsBloom": "0x00000000000000000000000000000000000000000000800000000040000000000000000000000000000000000000000000000000000000000000000000000000000000000000000000000000000000000000000000000000000000000000000100000001000040000000000108000000000000000000000000000000004000000000000000000000000000000000000000000000000000000000000000000000000000000000000000000000000000000000000000000000000000000000000000000000000000000000000000000000000000000000000800000000000000000000000000000000000000000000000000000000000000000000000000000000",
      "type": "0x2",
      "transactionHash": "0x89a75c133ddf70f5e11592c22f95d627e425ef5ad7603a510be4b23a1ca466d4",
      "transactionIndex": "0x2",
      "blockHash": "0x2548da4ce649bc5b41431eca3daeb38fae6d4d17cb66f86ef18d8bf8adf53dea",
      "blockNumber": "0x596c8ae",
      "gasUsed": "0xf63b",
      "effectiveGasPrice": "0x5f5e100",
      "from": "0xe62ab4d111f968660c6b2188046f9b9ba53c4bae",
      "to": "0xf77c7bdf97245eb9b12e7d7c10ab6abc2aba0f6a",
      "contractAddress": null,
      "gasUsedForL1": "0x7bd",
      "l1BlockNumber": "0x6ac33c"
    }
  ],
  "libraries": [],
  "pending": [],
  "returns": {},
  "timestamp": 1730548685,
  "chain": 421614,
  "commit": "34a11392"
}