{
  "transactions": [
    {
      "hash": "0xdcf30dd7340aba4c478a4e8d93a101de4279d2bb68cd3ea595fd8d61794606ed",
      "transactionType": "CALL",
      "contractName": null,
      "contractAddress": "0xf77c7bdf97245eb9b12e7d7c10ab6abc2aba0f6a",
      "function": "addDappAddr(uint256,string[])",
      "arguments": [
        "44",
        "[0x957ebeecca9e712e335f99de34d0f46317283696]"
      ],
      "transaction": {
        "from": "0xe62ab4d111f968660c6b2188046f9b9ba53c4bae",
        "to": "0xf77c7bdf97245eb9b12e7d7c10ab6abc2aba0f6a",
        "gas": "0x18e9a",
        "value": "0x0",
        "input": "0xbb03a47e000000000000000000000000000000000000000000000000000000000000002c000000000000000000000000000000000000000000000000000000000000004000000000000000000000000000000000000000000000000000000000000000010000000000000000000000000000000000000000000000000000000000000020000000000000000000000000000000000000000000000000000000000000002a30783935376562656563636139653731326533333566393964653334643066343633313732383336393600000000000000000000000000000000000000000000",
        "nonce": "0x40e",
        "chainId": "0x66eee"
      },
      "additionalContracts": [],
      "isFixedGasLimit": false
    }
  ],
  "receipts": [
    {
      "status": "0x1",
      "cumulativeGasUsed": "0x122e7",
      "logs": [
        {
          "address": "0xf77c7bdf97245eb9b12e7d7c10ab6abc2aba0f6a",
          "topics": [
            "0x6e806e4274e1ae2fda14f84ae0177d6248dd126572ee44f546d4645c41ee2f77",
            "0x000000000000000000000000000000000000000000000000000000000000002c"
          ],
          "data": "0x000000000000000000000000000000000000000000000000000000000000002000000000000000000000000000000000000000000000000000000000000000010000000000000000000000000000000000000000000000000000000000000020000000000000000000000000000000000000000000000000000000000000002a30783935376562656563636139653731326533333566393964653334643066343633313732383336393600000000000000000000000000000000000000000000",
          "blockHash": "0x6435403c4d027cc9e158b04235edd4f5f1a64e84edbc9be5927c908e97888b85",
          "blockNumber": "0x5e3ca34",
          "transactionHash": "0xdcf30dd7340aba4c478a4e8d93a101de4279d2bb68cd3ea595fd8d61794606ed",
          "transactionIndex": "0x1",
          "logIndex": "0x0",
          "removed": false
        }
      ],
      "logsBloom": "0x00000000000000000000000000000000000000000000800000000040000000000000000000000000000000000000000000000000000000000000000000000000000000000000000000000000000000000000000000000000000000000000000100000001000040000000000108000000000000000000000000000000004000000000000000000000000000000000000000000000000000000000000000000000000000000000000000000000000000000000000000000000000000000000000000000000000000000000000000000000000000000000000800000000000000000000000000000000000000000000000000000000000000000000000000000000",
      "type": "0x2",
      "transactionHash": "0xdcf30dd7340aba4c478a4e8d93a101de4279d2bb68cd3ea595fd8d61794606ed",
      "transactionIndex": "0x1",
      "blockHash": "0x6435403c4d027cc9e158b04235edd4f5f1a64e84edbc9be5927c908e97888b85",
      "blockNumber": "0x5e3ca34",
      "gasUsed": "0x122e7",
      "effectiveGasPrice": "0x5f5e100",
      "from": "0xe62ab4d111f968660c6b2188046f9b9ba53c4bae",
      "to": "0xf77c7bdf97245eb9b12e7d7c10ab6abc2aba0f6a",
      "contractAddress": null,
      "gasUsedForL1": "0x3469",
      "l1BlockNumber": "0x6c883e"
    }
  ],
  "libraries": [],
  "pending": [],
  "returns": {},
  "timestamp": 1732067075,
  "chain": 421614,
  "commit": "4b2e1f8c"
}