{
  "transactions": [
    {
      "hash": "0xaecd8b1f5a5c263f2949d5739894d691901cf9cb70ef33392cbd138cd063075e",
      "transactionType": "CALL",
      "contractName": null,
      "contractAddress": "0xf77c7bdf97245eb9b12e7d7c10ab6abc2aba0f6a",
      "function": "addDappAddr(uint256,string[])",
      "arguments": [
        "48",
        "[0x5fffba2e10d66e9368c6270cfd07e31802fff751]"
      ],
      "transaction": {
        "from": "0xe62ab4d111f968660c6b2188046f9b9ba53c4bae",
        "to": "0xf77c7bdf97245eb9b12e7d7c10ab6abc2aba0f6a",
        "gas": "0x13c99",
        "value": "0x0",
        "input": "0xbb03a47e0000000000000000000000000000000000000000000000000000000000000030000000000000000000000000000000000000000000000000000000000000004000000000000000000000000000000000000000000000000000000000000000010000000000000000000000000000000000000000000000000000000000000020000000000000000000000000000000000000000000000000000000000000002a30783566666662613265313064363665393336386336323730636664303765333138303266666637353100000000000000000000000000000000000000000000",
        "nonce": "0x397",
        "chainId": "0x66eee"
      },
      "additionalContracts": [],
      "isFixedGasLimit": false
    }
  ],
  "receipts": [
    {
      "status": "0x1",
      "cumulativeGasUsed": "0xeff7",
      "logs": [
        {
          "address": "0xf77c7bdf97245eb9b12e7d7c10ab6abc2aba0f6a",
          "topics": [
            "0x6e806e4274e1ae2fda14f84ae0177d6248dd126572ee44f546d4645c41ee2f77",
            "0x0000000000000000000000000000000000000000000000000000000000000030"
          ],
          "data": "0x000000000000000000000000000000000000000000000000000000000000002000000000000000000000000000000000000000000000000000000000000000010000000000000000000000000000000000000000000000000000000000000020000000000000000000000000000000000000000000000000000000000000002a30783566666662613265313064363665393336386336323730636664303765333138303266666637353100000000000000000000000000000000000000000000",
          "blockHash": "0xfd5db7cc53a58ac90925780d69c641bbda1d8908d643d2c061b88bf59f4df7da",
          "blockNumber": "0x5d98d23",
          "transactionHash": "0xaecd8b1f5a5c263f2949d5739894d691901cf9cb70ef33392cbd138cd063075e",
          "transactionIndex": "0x1",
          "logIndex": "0x0",
          "removed": false
        }
      ],
      "logsBloom": "0x02000000000000000000000000000000000000000000800000000040000000000000000000000000000000000000000000000000000000000000000000000000000000000000000000000000000000000000000000000000000000000000000100000001000040000000000008000000000000000000000000000000000000000000000000000000000000000000000000000000000000000000000000000000000000000000000000000000000000000000000002000000000000000000000000000000000000000000000000000000000000000000000000000000000020000000000000000000000000000000000000000000000000000000000000000000",
      "type": "0x2",
      "transactionHash": "0xaecd8b1f5a5c263f2949d5739894d691901cf9cb70ef33392cbd138cd063075e",
      "transactionIndex": "0x1",
      "blockHash": "0xfd5db7cc53a58ac90925780d69c641bbda1d8908d643d2c061b88bf59f4df7da",
      "blockNumber": "0x5d98d23",
      "gasUsed": "0xeff7",
      "effectiveGasPrice": "0x5f5e100",
      "from": "0xe62ab4d111f968660c6b2188046f9b9ba53c4bae",
      "to": "0xf77c7bdf97245eb9b12e7d7c10ab6abc2aba0f6a",
      "contractAddress": null,
      "gasUsedForL1": "0x179",
      "l1BlockNumber": "0x6c46b8"
    }
  ],
  "libraries": [],
  "pending": [],
  "returns": {},
  "timestamp": 1731852473,
  "chain": 421614,
  "commit": "b96f5048"
}