{
  "transactions": [
    {
      "hash": "0x8de4caca424bd975ea08b37713d4c0405cdbd0707917062e9c9707e5c346c2ae",
      "transactionType": "CALL",
      "contractName": null,
      "contractAddress": "0xf77c7bdf97245eb9b12e7d7c10ab6abc2aba0f6a",
      "function": "addDappAddr(uint256,string[])",
      "arguments": [
        "48",
        "[0xe569c146b0d4c1c941607b5c6a648b5877ae29ef]"
      ],
      "transaction": {
        "from": "0xe62ab4d111f968660c6b2188046f9b9ba53c4bae",
        "to": "0xf77c7bdf97245eb9b12e7d7c10ab6abc2aba0f6a",
        "gas": "0x86a0b",
        "value": "0x0",
        "input": "0xbb03a47e0000000000000000000000000000000000000000000000000000000000000030000000000000000000000000000000000000000000000000000000000000004000000000000000000000000000000000000000000000000000000000000000010000000000000000000000000000000000000000000000000000000000000020000000000000000000000000000000000000000000000000000000000000002a30786535363963313436623064346331633934313630376235633661363438623538373761653239656600000000000000000000000000000000000000000000",
        "nonce": "0x2f8",
        "chainId": "0x66eee"
      },
      "additionalContracts": [],
      "isFixedGasLimit": false
    }
  ],
  "receipts": [
    {
      "status": "0x1",
      "cumulativeGasUsed": "0x54d08",
      "logs": [
        {
          "address": "0xf77c7bdf97245eb9b12e7d7c10ab6abc2aba0f6a",
          "topics": [
            "0x6e806e4274e1ae2fda14f84ae0177d6248dd126572ee44f546d4645c41ee2f77",
            "0x0000000000000000000000000000000000000000000000000000000000000030"
          ],
          "data": "0x000000000000000000000000000000000000000000000000000000000000002000000000000000000000000000000000000000000000000000000000000000010000000000000000000000000000000000000000000000000000000000000020000000000000000000000000000000000000000000000000000000000000002a30786535363963313436623064346331633934313630376235633661363438623538373761653239656600000000000000000000000000000000000000000000",
          "blockHash": "0x511a3a42f1eafaef1898823407dfd2ba48517046278078b17946e2ccf5fc8bb5",
          "blockNumber": "0x5a0a939",
          "transactionHash": "0x8de4caca424bd975ea08b37713d4c0405cdbd0707917062e9c9707e5c346c2ae",
          "transactionIndex": "0x1",
          "logIndex": "0x0",
          "removed": false
        }
      ],
      "logsBloom": "0x02000000000000000000000000000000000000000000800000000040000000000000000000000000000000000000000000000000000000000000000000000000000000000000000000000000000000000000000000000000000000000000000100000001000040000000000008000000000000000000000000000000000000000000000000000000000000000000000000000000000000000000000000000000000000000000000000000000000000000000000002000000000000000000000000000000000000000000000000000000000000000000000000000000000020000000000000000000000000000000000000000000000000000000000000000000",
      "type": "0x2",
      "transactionHash": "0x8de4caca424bd975ea08b37713d4c0405cdbd0707917062e9c9707e5c346c2ae",
      "transactionIndex": "0x1",
      "blockHash": "0x511a3a42f1eafaef1898823407dfd2ba48517046278078b17946e2ccf5fc8bb5",
      "blockNumber": "0x5a0a939",
      "gasUsed": "0x54d08",
      "effectiveGasPrice": "0x5f5e100",
      "from": "0xe62ab4d111f968660c6b2188046f9b9ba53c4bae",
      "to": "0xf77c7bdf97245eb9b12e7d7c10ab6abc2aba0f6a",
      "contractAddress": null,
      "gasUsedForL1": "0x45e8a",
      "l1BlockNumber": "0x6b0068"
    }
  ],
  "libraries": [],
  "pending": [],
  "returns": {},
  "timestamp": 1730753349,
  "chain": 421614,
  "commit": "34a11392"
}