{
  "transactions": [
    {
      "hash": "0x294387e54391aa1e08bf7806494671901c9d68ba5016b245c9ab3c9b02df70c6",
      "transactionType": "CALL",
      "contractName": null,
      "contractAddress": "0xf77c7bdf97245eb9b12e7d7c10ab6abc2aba0f6a",
      "function": "addDappAddr(uint256,string[])",
      "arguments": [
        "47",
        "[0xb81d017b3606a7e6eba0049de9f0ea0e4a1d90dd]"
      ],
      "transaction": {
        "from": "0xe62ab4d111f968660c6b2188046f9b9ba53c4bae",
        "to": "0xf77c7bdf97245eb9b12e7d7c10ab6abc2aba0f6a",
        "gas": "0x18e0c",
        "value": "0x0",
        "input": "0xbb03a47e000000000000000000000000000000000000000000000000000000000000002f000000000000000000000000000000000000000000000000000000000000004000000000000000000000000000000000000000000000000000000000000000010000000000000000000000000000000000000000000000000000000000000020000000000000000000000000000000000000000000000000000000000000002a30786238316430313762333630366137653665626130303439646539663065613065346131643930646400000000000000000000000000000000000000000000",
        "nonce": "0x415",
        "chainId": "0x66eee"
      },
      "additionalContracts": [],
      "isFixedGasLimit": false
    }
  ],
  "receipts": [
    {
      "status": "0x1",
      "cumulativeGasUsed": "0x3361e",
      "logs": [
        {
          "address": "0xf77c7bdf97245eb9b12e7d7c10ab6abc2aba0f6a",
          "topics": [
            "0x6e806e4274e1ae2fda14f84ae0177d6248dd126572ee44f546d4645c41ee2f77",
            "0x000000000000000000000000000000000000000000000000000000000000002f"
          ],
          "data": "0x000000000000000000000000000000000000000000000000000000000000002000000000000000000000000000000000000000000000000000000000000000010000000000000000000000000000000000000000000000000000000000000020000000000000000000000000000000000000000000000000000000000000002a30786238316430313762333630366137653665626130303439646539663065613065346131643930646400000000000000000000000000000000000000000000",
          "blockHash": "0x74b38178790906c0203a5316bb2c199e85c42c2ba598e6b3e575aad6394e2a45",
          "blockNumber": "0x5e3cd8f",
          "transactionHash": "0x294387e54391aa1e08bf7806494671901c9d68ba5016b245c9ab3c9b02df70c6",
          "transactionIndex": "0x3",
          "logIndex": "0x0",
          "removed": false
        }
      ],
      "logsBloom": "0x00000000000000000000000000000000000080000000800000000040000000000000000000000000000000000000000000000000000000000000000000000000000000000000000000000000000000000000000000000000000000000000000100000001000040000000000008000000000000000000000000000000000000000000000000000000000000000000000000000000000000000000000000000000000000000000000000000000000000000000000000000000000000000000000000000000000000000000000000000000000000000000000000000000000000000000000000000000000000000000000000000000000004000000000000080000",
      "type": "0x2",
      "transactionHash": "0x294387e54391aa1e08bf7806494671901c9d68ba5016b245c9ab3c9b02df70c6",
      "transactionIndex": "0x3",
      "blockHash": "0x74b38178790906c0203a5316bb2c199e85c42c2ba598e6b3e575aad6394e2a45",
      "blockNumber": "0x5e3cd8f",
      "gasUsed": "0x12222",
      "effectiveGasPrice": "0x5f5e100",
      "from": "0xe62ab4d111f968660c6b2188046f9b9ba53c4bae",
      "to": "0xf77c7bdf97245eb9b12e7d7c10ab6abc2aba0f6a",
      "contractAddress": null,
      "gasUsedForL1": "0x33a4",
      "l1BlockNumber": "0x6c8850"
    }
  ],
  "libraries": [],
  "pending": [],
  "returns": {},
  "timestamp": 1732067292,
  "chain": 421614,
  "commit": "4b2e1f8c"
}