{
  "transactions": [
    {
      "hash": "0xfa8ed45a242def4a3aa9c882ed2dbefe117249fc08d432606fa50128932aa48f",
      "transactionType": "CALL",
      "contractName": null,
      "contractAddress": "0xf77c7bdf97245eb9b12e7d7c10ab6abc2aba0f6a",
      "function": "addDappAddr(uint256,string[])",
      "arguments": [
        "58",
        "[0x0db39536f72e19edffd45e318b1da9a3684679a2]"
      ],
      "transaction": {
        "from": "0xe62ab4d111f968660c6b2188046f9b9ba53c4bae",
        "to": "0xf77c7bdf97245eb9b12e7d7c10ab6abc2aba0f6a",
        "gas": "0x28860",
        "value": "0x0",
        "input": "0xbb03a47e000000000000000000000000000000000000000000000000000000000000003a000000000000000000000000000000000000000000000000000000000000004000000000000000000000000000000000000000000000000000000000000000010000000000000000000000000000000000000000000000000000000000000020000000000000000000000000000000000000000000000000000000000000002a30783064623339353336663732653139656466666434356533313862316461396133363834363739613200000000000000000000000000000000000000000000",
        "nonce": "0x8c0",
        "chainId": "0x66eee"
      },
      "additionalContracts": [],
      "isFixedGasLimit": false
    }
  ],
  "receipts": [
    {
      "status": "0x1",
      "cumulativeGasUsed": "0x2f993",
      "logs": [
        {
          "address": "0xf77c7bdf97245eb9b12e7d7c10ab6abc2aba0f6a",
          "topics": [
            "0x6e806e4274e1ae2fda14f84ae0177d6248dd126572ee44f546d4645c41ee2f77",
            "0x000000000000000000000000000000000000000000000000000000000000003a"
          ],
          "data": "0x000000000000000000000000000000000000000000000000000000000000002000000000000000000000000000000000000000000000000000000000000000010000000000000000000000000000000000000000000000000000000000000020000000000000000000000000000000000000000000000000000000000000002a30783064623339353336663732653139656466666434356533313862316461396133363834363739613200000000000000000000000000000000000000000000",
          "blockHash": "0x7fffa6e66c1cbb408a0fa3fa499f59cfed8698424617a2a1d0f4f176dd3a6e46",
          "blockNumber": "0x7d9ed39",
          "transactionHash": "0xfa8ed45a242def4a3aa9c882ed2dbefe117249fc08d432606fa50128932aa48f",
          "transactionIndex": "0x2",
          "logIndex": "0x1",
          "removed": false
        }
      ],
      "logsBloom": "0x00000000000000000000000000000000000000000000800000000040000000000000000000000000000000000000000000000000000000000000000000000000000000000000000000000000000000020000000000000000000000000000000100000001000040000000000008000000000000000000000000000000000000000000000000000000000000000000000000000080000000000000000000000000000000000000000000000000020000000000000000000000000000000000000000000000000000000000000000000000000000000000000000000000000000000000000000000000000000000000000000000000000000000000000000000000",
      "type": "0x2",
      "transactionHash": "0xfa8ed45a242def4a3aa9c882ed2dbefe117249fc08d432606fa50128932aa48f",
      "transactionIndex": "0x2",
      "blockHash": "0x7fffa6e66c1cbb408a0fa3fa499f59cfed8698424617a2a1d0f4f176dd3a6e46",
      "blockNumber": "0x7d9ed39",
      "gasUsed": "0x1b72f",
      "effectiveGasPrice": "0x5f5e100",
      "from": "0xe62ab4d111f968660c6b2188046f9b9ba53c4bae",
      "to": "0xf77c7bdf97245eb9b12e7d7c10ab6abc2aba0f6a",
      "contractAddress": null,
      "gasUsedForL1": "0xc8b1",
      "l1BlockNumber": "0x785be1",
      "timeboosted": false
    }
  ],
  "libraries": [],
  "pending": [],
  "returns": {},
  "timestamp": 1741793642,
  "chain": 421614,
  "commit": "36dcc02d"
}