{
  "transactions": [
    {
      "hash": "0x092dba53065795e7b34a299b7c13b0db460669f4e2ae68b96dbd9ae9d470ff3e",
      "transactionType": "CALL",
      "contractName": null,
      "contractAddress": "0xf77c7bdf97245eb9b12e7d7c10ab6abc2aba0f6a",
      "function": "addDappAddr(uint256,string[])",
      "arguments": [
        "47",
        "[0x9266e8bf4943f2b366f2be89688a8622084db8b9]"
      ],
      "transaction": {
        "from": "0xe62ab4d111f968660c6b2188046f9b9ba53c4bae",
        "to": "0xf77c7bdf97245eb9b12e7d7c10ab6abc2aba0f6a",
        "gas": "0x1ff7e",
        "value": "0x0",
        "input": "0xbb03a47e000000000000000000000000000000000000000000000000000000000000002f000000000000000000000000000000000000000000000000000000000000004000000000000000000000000000000000000000000000000000000000000000010000000000000000000000000000000000000000000000000000000000000020000000000000000000000000000000000000000000000000000000000000002a30783932363665386266343934336632623336366632626538393638386138363232303834646238623900000000000000000000000000000000000000000000",
        "nonce": "0x2f4",
        "chainId": "0x66eee"
      },
      "additionalContracts": [],
      "isFixedGasLimit": false
    }
  ],
  "receipts": [
    {
      "status": "0x1",
      "cumulativeGasUsed": "0x165c1",
      "logs": [
        {
          "address": "0xf77c7bdf97245eb9b12e7d7c10ab6abc2aba0f6a",
          "topics": [
            "0x6e806e4274e1ae2fda14f84ae0177d6248dd126572ee44f546d4645c41ee2f77",
            "0x000000000000000000000000000000000000000000000000000000000000002f"
          ],
          "data": "0x000000000000000000000000000000000000000000000000000000000000002000000000000000000000000000000000000000000000000000000000000000010000000000000000000000000000000000000000000000000000000000000020000000000000000000000000000000000000000000000000000000000000002a30783932363665386266343934336632623336366632626538393638386138363232303834646238623900000000000000000000000000000000000000000000",
          "blockHash": "0x392de56f0c72987ce7190173f79fe038fe8c197204f23f65f58a55efc0c06ef1",
          "blockNumber": "0x5a0a7da",
          "transactionHash": "0x092dba53065795e7b34a299b7c13b0db460669f4e2ae68b96dbd9ae9d470ff3e",
          "transactionIndex": "0x1",
          "logIndex": "0x0",
          "removed": false
        }
      ],
      "logsBloom": "0x00000000000000000000000000000000000080000000800000000040000000000000000000000000000000000000000000000000000000000000000000000000000000000000000000000000000000000000000000000000000000000000000100000001000040000000000008000000000000000000000000000000000000000000000000000000000000000000000000000000000000000000000000000000000000000000000000000000000000000000000000000000000000000000000000000000000000000000000000000000000000000000000000000000000000000000000000000000000000000000000000000000000004000000000000080000",
      "type": "0x2",
      "transactionHash": "0x092dba53065795e7b34a299b7c13b0db460669f4e2ae68b96dbd9ae9d470ff3e",
      "transactionIndex": "0x1",
      "blockHash": "0x392de56f0c72987ce7190173f79fe038fe8c197204f23f65f58a55efc0c06ef1",
      "blockNumber": "0x5a0a7da",
      "gasUsed": "0x165c1",
      "effectiveGasPrice": "0x5f5e100",
      "from": "0xe62ab4d111f968660c6b2188046f9b9ba53c4bae",
      "to": "0xf77c7bdf97245eb9b12e7d7c10ab6abc2aba0f6a",
      "contractAddress": null,
      "gasUsedForL1": "0x7743",
      "l1BlockNumber": "0x6b0061"
    }
  ],
  "libraries": [],
  "pending": [],
  "returns": {},
  "timestamp": 1730753251,
  "chain": 421614,
  "commit": "34a11392"
}