{
  "transactions": [
    {
      "hash": "0x9f0460e2824f6c1cbdf621decd598a8bc19e0f9287fe33288ec48752c34c7d65",
      "transactionType": "CALL",
      "contractName": null,
      "contractAddress": "0xf77c7bdf97245eb9b12e7d7c10ab6abc2aba0f6a",
      "function": "addDappAddr(uint256,string[])",
      "arguments": [
        "47",
        "[0x443731488c75cdb209fbab813b574953ba973597]"
      ],
      "transaction": {
        "from": "0xe62ab4d111f968660c6b2188046f9b9ba53c4bae",
        "to": "0xf77c7bdf97245eb9b12e7d7c10ab6abc2aba0f6a",
        "gas": "0x1469a",
        "value": "0x0",
        "input": "0xbb03a47e000000000000000000000000000000000000000000000000000000000000002f000000000000000000000000000000000000000000000000000000000000004000000000000000000000000000000000000000000000000000000000000000010000000000000000000000000000000000000000000000000000000000000020000000000000000000000000000000000000000000000000000000000000002a30783434333733313438386337356364623230396662616238313362353734393533626139373335393700000000000000000000000000000000000000000000",
        "nonce": "0x28c",
        "chainId": "0x66eee"
      },
      "additionalContracts": [],
      "isFixedGasLimit": false
    }
  ],
  "receipts": [
    {
      "status": "0x1",
      "cumulativeGasUsed": "0xf60f",
      "logs": [
        {
          "address": "0xf77c7bdf97245eb9b12e7d7c10ab6abc2aba0f6a",
          "topics": [
            "0x6e806e4274e1ae2fda14f84ae0177d6248dd126572ee44f546d4645c41ee2f77",
            "0x000000000000000000000000000000000000000000000000000000000000002f"
          ],
          "data": "0x000000000000000000000000000000000000000000000000000000000000002000000000000000000000000000000000000000000000000000000000000000010000000000000000000000000000000000000000000000000000000000000020000000000000000000000000000000000000000000000000000000000000002a30783434333733313438386337356364623230396662616238313362353734393533626139373335393700000000000000000000000000000000000000000000",
          "blockHash": "0x144ba7113c1bbf0c879748cef201d1fd5df72162b6a115e255bc8369bbf4b8c2",
          "blockNumber": "0x596d18d",
          "transactionHash": "0x9f0460e2824f6c1cbdf621decd598a8bc19e0f9287fe33288ec48752c34c7d65",
          "transactionIndex": "0x1",
          "logIndex": "0x0",
          "removed": false
        }
      ],
      "logsBloom": "0x00000000000000000000000000000000000080000000800000000040000000000000000000000000000000000000000000000000000000000000000000000000000000000000000000000000000000000000000000000000000000000000000100000001000040000000000008000000000000000000000000000000000000000000000000000000000000000000000000000000000000000000000000000000000000000000000000000000000000000000000000000000000000000000000000000000000000000000000000000000000000000000000000000000000000000000000000000000000000000000000000000000000004000000000000080000",
      "type": "0x2",
      "transactionHash": "0x9f0460e2824f6c1cbdf621decd598a8bc19e0f9287fe33288ec48752c34c7d65",
      "transactionIndex": "0x1",
      "blockHash": "0x144ba7113c1bbf0c879748cef201d1fd5df72162b6a115e255bc8369bbf4b8c2",
      "blockNumber": "0x596d18d",
      "gasUsed": "0xf60f",
      "effectiveGasPrice": "0x5f5e100",
      "from": "0xe62ab4d111f968660c6b2188046f9b9ba53c4bae",
      "to": "0xf77c7bdf97245eb9b12e7d7c10ab6abc2aba0f6a",
      "contractAddress": null,
      "gasUsedForL1": "0x791",
      "l1BlockNumber": "0x6ac371"
    }
  ],
  "libraries": [],
  "pending": [],
  "returns": {},
  "timestamp": 1730549326,
  "chain": 421614,
  "commit": "34a11392"
}