{
  "transactions": [
    {
      "hash": "0xed89961f2efd3cb1e5623c4bda9c02dca1d56cc47a97f51d5ae1a39503a212e4",
      "transactionType": "CALL",
      "contractName": null,
      "contractAddress": "0xf77c7bdf97245eb9b12e7d7c10ab6abc2aba0f6a",
      "function": "addDappAddr(uint256,string[])",
      "arguments": [
        "45",
        "[0x9b0bc1e8267252b2e99fda8c302b0713ba3a8202]"
      ],
      "transaction": {
        "from": "0xe62ab4d111f968660c6b2188046f9b9ba53c4bae",
        "to": "0xf77c7bdf97245eb9b12e7d7c10ab6abc2aba0f6a",
        "gas": "0x1469a",
        "value": "0x0",
        "input": "0xbb03a47e000000000000000000000000000000000000000000000000000000000000002d000000000000000000000000000000000000000000000000000000000000004000000000000000000000000000000000000000000000000000000000000000010000000000000000000000000000000000000000000000000000000000000020000000000000000000000000000000000000000000000000000000000000002a30783962306263316538323637323532623265393966646138633330326230373133626133613832303200000000000000000000000000000000000000000000",
        "nonce": "0x289",
        "chainId": "0x66eee"
      },
      "additionalContracts": [],
      "isFixedGasLimit": false
    }
  ],
  "receipts": [
    {
      "status": "0x1",
      "cumulativeGasUsed": "0xf5f2",
      "logs": [
        {
          "address": "0xf77c7bdf97245eb9b12e7d7c10ab6abc2aba0f6a",
          "topics": [
            "0x6e806e4274e1ae2fda14f84ae0177d6248dd126572ee44f546d4645c41ee2f77",
            "0x000000000000000000000000000000000000000000000000000000000000002d"
          ],
          "data": "0x000000000000000000000000000000000000000000000000000000000000002000000000000000000000000000000000000000000000000000000000000000010000000000000000000000000000000000000000000000000000000000000020000000000000000000000000000000000000000000000000000000000000002a30783962306263316538323637323532623265393966646138633330326230373133626133613832303200000000000000000000000000000000000000000000",
          "blockHash": "0x5b91b97e157ce5e98e199836fb8d2eb313bb2c1b6cc3489c2181d526e527f951",
          "blockNumber": "0x596d01d",
          "transactionHash": "0xed89961f2efd3cb1e5623c4bda9c02dca1d56cc47a97f51d5ae1a39503a212e4",
          "transactionIndex": "0x1",
          "logIndex": "0x0",
          "removed": false
        }
      ],
      "logsBloom": "0x00000000000000000000000000000000000000000000800000000040000000000000000000000000000000000000000000000000000000000000000400000000000000000000000000000000000000000000000000000000000000000000000100000001000040000000000008000000000000000000000000000000000000000000000000000000000000000000000000000000000000000000000000000000000000000000000000000000000000000000000000000000000010000000000000000000000000000000000000000000000000000000000000000000400000000000000000000000000000000000000000000000000000000000000000000000",
      "type": "0x2",
      "transactionHash": "0xed89961f2efd3cb1e5623c4bda9c02dca1d56cc47a97f51d5ae1a39503a212e4",
      "transactionIndex": "0x1",
      "blockHash": "0x5b91b97e157ce5e98e199836fb8d2eb313bb2c1b6cc3489c2181d526e527f951",
      "blockNumber": "0x596d01d",
      "gasUsed": "0xf5f2",
      "effectiveGasPrice": "0x5f5e100",
      "from": "0xe62ab4d111f968660c6b2188046f9b9ba53c4bae",
      "to": "0xf77c7bdf97245eb9b12e7d7c10ab6abc2aba0f6a",
      "contractAddress": null,
      "gasUsedForL1": "0x774",
      "l1BlockNumber": "0x6ac368"
    }
  ],
  "libraries": [],
  "pending": [],
  "returns": {},
  "timestamp": 1730549219,
  "chain": 421614,
  "commit": "34a11392"
}