{
  "transactions": [
    {
      "hash": "0xcaa44389416cda64575c8537559d6f95af1ded739132fa84055b003f2025c6ce",
      "transactionType": "CALL",
      "contractName": null,
      "contractAddress": "0xf77c7bdf97245eb9b12e7d7c10ab6abc2aba0f6a",
      "function": "addDappAddr(uint256,string[])",
      "arguments": [
        "47",
        "[0x6aff0df7a17477f76f2cc927a50571a23a4a3b1f]"
      ],
      "transaction": {
        "from": "0xe62ab4d111f968660c6b2188046f9b9ba53c4bae",
        "to": "0xf77c7bdf97245eb9b12e7d7c10ab6abc2aba0f6a",
        "gas": "0x13c9c",
        "value": "0x0",
        "input": "0xbb03a47e000000000000000000000000000000000000000000000000000000000000002f000000000000000000000000000000000000000000000000000000000000004000000000000000000000000000000000000000000000000000000000000000010000000000000000000000000000000000000000000000000000000000000020000000000000000000000000000000000000000000000000000000000000002a30783661666630646637613137343737663736663263633932376135303537316132336134613362316600000000000000000000000000000000000000000000",
        "nonce": "0x395",
        "chainId": "0x66eee"
      },
      "additionalContracts": [],
      "isFixedGasLimit": false
    }
  ],
  "receipts": [
    {
      "status": "0x1",
      "cumulativeGasUsed": "0xcb330",
      "logs": [
        {
          "address": "0xf77c7bdf97245eb9b12e7d7c10ab6abc2aba0f6a",
          "topics": [
            "0x6e806e4274e1ae2fda14f84ae0177d6248dd126572ee44f546d4645c41ee2f77",
            "0x000000000000000000000000000000000000000000000000000000000000002f"
          ],
          "data": "0x000000000000000000000000000000000000000000000000000000000000002000000000000000000000000000000000000000000000000000000000000000010000000000000000000000000000000000000000000000000000000000000020000000000000000000000000000000000000000000000000000000000000002a30783661666630646637613137343737663736663263633932376135303537316132336134613362316600000000000000000000000000000000000000000000",
          "blockHash": "0xd72620eb6d810c9495a1255d1f0ba3162c6258735ae648f70a0ff5f3caf71d3c",
          "blockNumber": "0x5d98c24",
          "transactionHash": "0xcaa44389416cda64575c8537559d6f95af1ded739132fa84055b003f2025c6ce",
          "transactionIndex": "0x6",
          "logIndex": "0x5",
          "removed": false
        }
      ],
      "logsBloom": "0x00000000000000000000000000000000000080000000800000000040000000000000000000000000000000000000000000000000000000000000000000000000000000000000000000000000000000000000000000000000000000000000000100000001000040000000000008000000000000000000000000000000000000000000000000000000000000000000000000000000000000000000000000000000000000000000000000000000000000000000000000000000000000000000000000000000000000000000000000000000000000000000000000000000000000000000000000000000000000000000000000000000000004000000000000080000",
      "type": "0x2",
      "transactionHash": "0xcaa44389416cda64575c8537559d6f95af1ded739132fa84055b003f2025c6ce",
      "transactionIndex": "0x6",
      "blockHash": "0xd72620eb6d810c9495a1255d1f0ba3162c6258735ae648f70a0ff5f3caf71d3c",
      "blockNumber": "0x5d98c24",
      "gasUsed": "0xeffc",
      "effectiveGasPrice": "0x5f5e100",
      "from": "0xe62ab4d111f968660c6b2188046f9b9ba53c4bae",
      "to": "0xf77c7bdf97245eb9b12e7d7c10ab6abc2aba0f6a",
      "contractAddress": null,
      "gasUsedForL1": "0x17e",
      "l1BlockNumber": "0x6c46b3"
    }
  ],
  "libraries": [],
  "pending": [],
  "returns": {},
  "timestamp": 1731852400,
  "chain": 421614,
  "commit": "b96f5048"
}