{
  "transactions": [
    {
      "hash": "0xdb89c7ba2115fc35051e71af8352cfaa920903f4ce3b5b0ef947d4a159170ccf",
      "transactionType": "CALL",
      "contractName": null,
      "contractAddress": "0xf77c7bdf97245eb9b12e7d7c10ab6abc2aba0f6a",
      "function": "addDappAddr(uint256,string[])",
      "arguments": [
        "48",
        "[0x05a804374bb77345854022fd0cd2a602e00bf2e7]"
      ],
      "transaction": {
        "from": "0xe62ab4d111f968660c6b2188046f9b9ba53c4bae",
        "to": "0xf77c7bdf97245eb9b12e7d7c10ab6abc2aba0f6a",
        "gas": "0x150ca",
        "value": "0x0",
        "input": "0xbb03a47e0000000000000000000000000000000000000000000000000000000000000030000000000000000000000000000000000000000000000000000000000000004000000000000000000000000000000000000000000000000000000000000000010000000000000000000000000000000000000000000000000000000000000020000000000000000000000000000000000000000000000000000000000000002a30783035613830343337346262373733343538353430323266643063643261363032653030626632653700000000000000000000000000000000000000000000",
        "nonce": "0x29e",
        "chainId": "0x66eee"
      },
      "additionalContracts": [],
      "isFixedGasLimit": false
    }
  ],
  "receipts": [
    {
      "status": "0x1",
      "cumulativeGasUsed": "0xfc3e",
      "logs": [
        {
          "address": "0xf77c7bdf97245eb9b12e7d7c10ab6abc2aba0f6a",
          "topics": [
            "0x6e806e4274e1ae2fda14f84ae0177d6248dd126572ee44f546d4645c41ee2f77",
            "0x0000000000000000000000000000000000000000000000000000000000000030"
          ],
          "data": "0x000000000000000000000000000000000000000000000000000000000000002000000000000000000000000000000000000000000000000000000000000000010000000000000000000000000000000000000000000000000000000000000020000000000000000000000000000000000000000000000000000000000000002a30783035613830343337346262373733343538353430323266643063643261363032653030626632653700000000000000000000000000000000000000000000",
          "blockHash": "0xabc4621fb1e79184b5be399e2175b0ebc183228348752d001d34115df26bdce9",
          "blockNumber": "0x596de59",
          "transactionHash": "0xdb89c7ba2115fc35051e71af8352cfaa920903f4ce3b5b0ef947d4a159170ccf",
          "transactionIndex": "0x1",
          "logIndex": "0x0",
          "removed": false
        }
      ],
      "logsBloom": "0x02000000000000000000000000000000000000000000800000000040000000000000000000000000000000000000000000000000000000000000000000000000000000000000000000000000000000000000000000000000000000000000000100000001000040000000000008000000000000000000000000000000000000000000000000000000000000000000000000000000000000000000000000000000000000000000000000000000000000000000000002000000000000000000000000000000000000000000000000000000000000000000000000000000000020000000000000000000000000000000000000000000000000000000000000000000",
      "type": "0x2",
      "transactionHash": "0xdb89c7ba2115fc35051e71af8352cfaa920903f4ce3b5b0ef947d4a159170ccf",
      "transactionIndex": "0x1",
      "blockHash": "0xabc4621fb1e79184b5be399e2175b0ebc183228348752d001d34115df26bdce9",
      "blockNumber": "0x596de59",
      "gasUsed": "0xfc3e",
      "effectiveGasPrice": "0x5f5e100",
      "from": "0xe62ab4d111f968660c6b2188046f9b9ba53c4bae",
      "to": "0xf77c7bdf97245eb9b12e7d7c10ab6abc2aba0f6a",
      "contractAddress": null,
      "gasUsedForL1": "0xdc0",
      "l1BlockNumber": "0x6ac3ba"
    }
  ],
  "libraries": [],
  "pending": [],
  "returns": {},
  "timestamp": 1730550252,
  "chain": 421614,
  "commit": "34a11392"
}