{
  "transactions": [
    {
      "hash": "0x7d76f3e09597160c4f952dd8d4fd4de18497751bf02c8343406da556126743c4",
      "transactionType": "CALL",
      "contractName": null,
      "contractAddress": "0xf77c7bdf97245eb9b12e7d7c10ab6abc2aba0f6a",
      "function": "addDappAddr(uint256,string[])",
      "arguments": [
        "44",
        "[0x7226289b8df9ffe5b98ad54d0225e8c83ecc7191]"
      ],
      "transaction": {
        "from": "0xe62ab4d111f968660c6b2188046f9b9ba53c4bae",
        "to": "0xf77c7bdf97245eb9b12e7d7c10ab6abc2aba0f6a",
        "gas": "0x18e54",
        "value": "0x0",
        "input": "0xbb03a47e000000000000000000000000000000000000000000000000000000000000002c000000000000000000000000000000000000000000000000000000000000004000000000000000000000000000000000000000000000000000000000000000010000000000000000000000000000000000000000000000000000000000000020000000000000000000000000000000000000000000000000000000000000002a30783732323632383962386466396666653562393861643534643032323565386338336563633731393100000000000000000000000000000000000000000000",
        "nonce": "0x40c",
        "chainId": "0x66eee"
      },
      "additionalContracts": [],
      "isFixedGasLimit": false
    }
  ],
  "receipts": [
    {
      "status": "0x1",
      "cumulativeGasUsed": "0x5eb5d",
      "logs": [
        {
          "address": "0xf77c7bdf97245eb9b12e7d7c10ab6abc2aba0f6a",
          "topics": [
            "0x6e806e4274e1ae2fda14f84ae0177d6248dd126572ee44f546d4645c41ee2f77",
            "0x000000000000000000000000000000000000000000000000000000000000002c"
          ],
          "data": "0x000000000000000000000000000000000000000000000000000000000000002000000000000000000000000000000000000000000000000000000000000000010000000000000000000000000000000000000000000000000000000000000020000000000000000000000000000000000000000000000000000000000000002a30783732323632383962386466396666653562393861643534643032323565386338336563633731393100000000000000000000000000000000000000000000",
          "blockHash": "0x0c6bac56517239de913dc532ccfbdc1c31e5f2f253849ae630af1afca196f702",
          "blockNumber": "0x5e3c987",
          "transactionHash": "0x7d76f3e09597160c4f952dd8d4fd4de18497751bf02c8343406da556126743c4",
          "transactionIndex": "0x3",
          "logIndex": "0x5",
          "removed": false
        }
      ],
      "logsBloom": "0x00000000000000000000000000000000000000000000800000000040000000000000000000000000000000000000000000000000000000000000000000000000000000000000000000000000000000000000000000000000000000000000000100000001000040000000000108000000000000000000000000000000004000000000000000000000000000000000000000000000000000000000000000000000000000000000000000000000000000000000000000000000000000000000000000000000000000000000000000000000000000000000000800000000000000000000000000000000000000000000000000000000000000000000000000000000",
      "type": "0x2",
      "transactionHash": "0x7d76f3e09597160c4f952dd8d4fd4de18497751bf02c8343406da556126743c4",
      "transactionIndex": "0x3",
      "blockHash": "0x0c6bac56517239de913dc532ccfbdc1c31e5f2f253849ae630af1afca196f702",
      "blockNumber": "0x5e3c987",
      "gasUsed": "0x12253",
      "effectiveGasPrice": "0x5f5e100",
      "from": "0xe62ab4d111f968660c6b2188046f9b9ba53c4bae",
      "to": "0xf77c7bdf97245eb9b12e7d7c10ab6abc2aba0f6a",
      "contractAddress": null,
      "gasUsedForL1": "0x33d5",
      "l1BlockNumber": "0x6c883a"
    }
  ],
  "libraries": [],
  "pending": [],
  "returns": {},
  "timestamp": 1732067024,
  "chain": 421614,
  "commit": "4b2e1f8c"
}