{
  "transactions": [
    {
      "hash": "0xed6d8b44f06ee7b58586c703eee9a78051c9f35475d459d1fcd8c6d82dfbed3a",
      "transactionType": "CALL",
      "contractName": null,
      "contractAddress": "0xf77c7bdf97245eb9b12e7d7c10ab6abc2aba0f6a",
      "function": "addDappAddr(uint256,string[])",
      "arguments": [
        "48",
        "[0xa240b0714712e2927ec055ceaa8e031ac671a55f]"
      ],
      "transaction": {
        "from": "0xe62ab4d111f968660c6b2188046f9b9ba53c4bae",
        "to": "0xf77c7bdf97245eb9b12e7d7c10ab6abc2aba0f6a",
        "gas": "0x86a0b",
        "value": "0x0",
        "input": "0xbb03a47e0000000000000000000000000000000000000000000000000000000000000030000000000000000000000000000000000000000000000000000000000000004000000000000000000000000000000000000000000000000000000000000000010000000000000000000000000000000000000000000000000000000000000020000000000000000000000000000000000000000000000000000000000000002a30786132343062303731343731326532393237656330353563656161386530333161633637316135356600000000000000000000000000000000000000000000",
        "nonce": "0x2f9",
        "chainId": "0x66eee"
      },
      "additionalContracts": [],
      "isFixedGasLimit": false
    }
  ],
  "receipts": [
    {
      "status": "0x1",
      "cumulativeGasUsed": "0x55dc9",
      "logs": [
        {
          "address": "0xf77c7bdf97245eb9b12e7d7c10ab6abc2aba0f6a",
          "topics": [
            "0x6e806e4274e1ae2fda14f84ae0177d6248dd126572ee44f546d4645c41ee2f77",
            "0x0000000000000000000000000000000000000000000000000000000000000030"
          ],
          "data": "0x000000000000000000000000000000000000000000000000000000000000002000000000000000000000000000000000000000000000000000000000000000010000000000000000000000000000000000000000000000000000000000000020000000000000000000000000000000000000000000000000000000000000002a30786132343062303731343731326532393237656330353563656161386530333161633637316135356600000000000000000000000000000000000000000000",
          "blockHash": "0x664e52fb9a114742030d713930c2afd397f0716c43cb612c013d1d0a0d60699a",
          "blockNumber": "0x5a0a983",
          "transactionHash": "0xed6d8b44f06ee7b58586c703eee9a78051c9f35475d459d1fcd8c6d82dfbed3a",
          "transactionIndex": "0x1",
          "logIndex": "0x0",
          "removed": false
        }
      ],
      "logsBloom": "0x02000000000000000000000000000000000000000000800000000040000000000000000000000000000000000000000000000000000000000000000000000000000000000000000000000000000000000000000000000000000000000000000100000001000040000000000008000000000000000000000000000000000000000000000000000000000000000000000000000000000000000000000000000000000000000000000000000000000000000000000002000000000000000000000000000000000000000000000000000000000000000000000000000000000020000000000000000000000000000000000000000000000000000000000000000000",
      "type": "0x2",
      "transactionHash": "0xed6d8b44f06ee7b58586c703eee9a78051c9f35475d459d1fcd8c6d82dfbed3a",
      "transactionIndex": "0x1",
      "blockHash": "0x664e52fb9a114742030d713930c2afd397f0716c43cb612c013d1d0a0d60699a",
      "blockNumber": "0x5a0a983",
      "gasUsed": "0x55dc9",
      "effectiveGasPrice": "0x5f5e100",
      "from": "0xe62ab4d111f968660c6b2188046f9b9ba53c4bae",
      "to": "0xf77c7bdf97245eb9b12e7d7c10ab6abc2aba0f6a",
      "contractAddress": null,
      "gasUsedForL1": "0x46f4b",
      "l1BlockNumber": "0x6b006a"
    }
  ],
  "libraries": [],
  "pending": [],
  "returns": {},
  "timestamp": 1730753371,
  "chain": 421614,
  "commit": "34a11392"
}