{
  "transactions": [
    {
      "hash": "0x0f05efff0b2e6ef7ac042aca6d23e30300674167456b167e583aceda7d679701",
      "transactionType": "CALL",
      "contractName": null,
      "contractAddress": "0xf77c7bdf97245eb9b12e7d7c10ab6abc2aba0f6a",
      "function": "addDappAddr(uint256,string[])",
      "arguments": [
        "48",
        "[0xe43d06a75cfee05bd698f32c36c611d5328718ee]"
      ],
      "transaction": {
        "from": "0xe62ab4d111f968660c6b2188046f9b9ba53c4bae",
        "to": "0xf77c7bdf97245eb9b12e7d7c10ab6abc2aba0f6a",
        "gas": "0x150ca",
        "value": "0x0",
        "input": "0xbb03a47e0000000000000000000000000000000000000000000000000000000000000030000000000000000000000000000000000000000000000000000000000000004000000000000000000000000000000000000000000000000000000000000000010000000000000000000000000000000000000000000000000000000000000020000000000000000000000000000000000000000000000000000000000000002a30786534336430366137356366656530356264363938663332633336633631316435333238373138656500000000000000000000000000000000000000000000",
        "nonce": "0x29d",
        "chainId": "0x66eee"
      },
      "additionalContracts": [],
      "isFixedGasLimit": false
    }
  ],
  "receipts": [
    {
      "status": "0x1",
      "cumulativeGasUsed": "0xfcc2",
      "logs": [
        {
          "address": "0xf77c7bdf97245eb9b12e7d7c10ab6abc2aba0f6a",
          "topics": [
            "0x6e806e4274e1ae2fda14f84ae0177d6248dd126572ee44f546d4645c41ee2f77",
            "0x0000000000000000000000000000000000000000000000000000000000000030"
          ],
          "data": "0x000000000000000000000000000000000000000000000000000000000000002000000000000000000000000000000000000000000000000000000000000000010000000000000000000000000000000000000000000000000000000000000020000000000000000000000000000000000000000000000000000000000000002a30786534336430366137356366656530356264363938663332633336633631316435333238373138656500000000000000000000000000000000000000000000",
          "blockHash": "0xb4c0167142a04a1969643713fa80dbd4050224800cc4c75c7eb0b4802687b38f",
          "blockNumber": "0x596de1d",
          "transactionHash": "0x0f05efff0b2e6ef7ac042aca6d23e30300674167456b167e583aceda7d679701",
          "transactionIndex": "0x1",
          "logIndex": "0x0",
          "removed": false
        }
      ],
      "logsBloom": "0x02000000000000000000000000000000000000000000800000000040000000000000000000000000000000000000000000000000000000000000000000000000000000000000000000000000000000000000000000000000000000000000000100000001000040000000000008000000000000000000000000000000000000000000000000000000000000000000000000000000000000000000000000000000000000000000000000000000000000000000000002000000000000000000000000000000000000000000000000000000000000000000000000000000000020000000000000000000000000000000000000000000000000000000000000000000",
      "type": "0x2",
      "transactionHash": "0x0f05efff0b2e6ef7ac042aca6d23e30300674167456b167e583aceda7d679701",
      "transactionIndex": "0x1",
      "blockHash": "0xb4c0167142a04a1969643713fa80dbd4050224800cc4c75c7eb0b4802687b38f",
      "blockNumber": "0x596de1d",
      "gasUsed": "0xfcc2",
      "effectiveGasPrice": "0x5f5e100",
      "from": "0xe62ab4d111f968660c6b2188046f9b9ba53c4bae",
      "to": "0xf77c7bdf97245eb9b12e7d7c10ab6abc2aba0f6a",
      "contractAddress": null,
      "gasUsedForL1": "0xe44",
      "l1BlockNumber": "0x6ac3b9"
    }
  ],
  "libraries": [],
  "pending": [],
  "returns": {},
  "timestamp": 1730550229,
  "chain": 421614,
  "commit": "34a11392"
}