{
  "transactions": [
    {
      "hash": "0x5320233cb863f8fd483167b8c555d1806208bb1cea94f20f59a93d1a7b6d6d2b",
      "transactionType": "CALL",
      "contractName": null,
      "contractAddress": "0xf77c7bdf97245eb9b12e7d7c10ab6abc2aba0f6a",
      "function": "addDappAddr(uint256,string[])",
      "arguments": [
        "48",
        "[0xc047401f28f43ec8af8c5aaac26bf7d007e2474a]"
      ],
      "transaction": {
        "from": "0xe62ab4d111f968660c6b2188046f9b9ba53c4bae",
        "to": "0xf77c7bdf97245eb9b12e7d7c10ab6abc2aba0f6a",
        "gas": "0x20024",
        "value": "0x0",
        "input": "0xbb03a47e0000000000000000000000000000000000000000000000000000000000000030000000000000000000000000000000000000000000000000000000000000004000000000000000000000000000000000000000000000000000000000000000010000000000000000000000000000000000000000000000000000000000000020000000000000000000000000000000000000000000000000000000000000002a30786330343734303166323866343365633861663863356161616332366266376430303765323437346100000000000000000000000000000000000000000000",
        "nonce": "0x2f5",
        "chainId": "0x66eee"
      },
      "additionalContracts": [],
      "isFixedGasLimit": false
    }
  ],
  "receipts": [
    {
      "status": "0x1",
      "cumulativeGasUsed": "0x16791",
      "logs": [
        {
          "address": "0xf77c7bdf97245eb9b12e7d7c10ab6abc2aba0f6a",
          "topics": [
            "0x6e806e4274e1ae2fda14f84ae0177d6248dd126572ee44f546d4645c41ee2f77",
            "0x0000000000000000000000000000000000000000000000000000000000000030"
          ],
          "data": "0x000000000000000000000000000000000000000000000000000000000000002000000000000000000000000000000000000000000000000000000000000000010000000000000000000000000000000000000000000000000000000000000020000000000000000000000000000000000000000000000000000000000000002a30786330343734303166323866343365633861663863356161616332366266376430303765323437346100000000000000000000000000000000000000000000",
          "blockHash": "0x1bcd3426b4de7942d3ec51c5a51459ace9733ce4aba13e1dfc87149dfa9487d5",
          "blockNumber": "0x5a0a846",
          "transactionHash": "0x5320233cb863f8fd483167b8c555d1806208bb1cea94f20f59a93d1a7b6d6d2b",
          "transactionIndex": "0x1",
          "logIndex": "0x0",
          "removed": false
        }
      ],
      "logsBloom": "0x02000000000000000000000000000000000000000000800000000040000000000000000000000000000000000000000000000000000000000000000000000000000000000000000000000000000000000000000000000000000000000000000100000001000040000000000008000000000000000000000000000000000000000000000000000000000000000000000000000000000000000000000000000000000000000000000000000000000000000000000002000000000000000000000000000000000000000000000000000000000000000000000000000000000020000000000000000000000000000000000000000000000000000000000000000000",
      "type": "0x2",
      "transactionHash": "0x5320233cb863f8fd483167b8c555d1806208bb1cea94f20f59a93d1a7b6d6d2b",
      "transactionIndex": "0x1",
      "blockHash": "0x1bcd3426b4de7942d3ec51c5a51459ace9733ce4aba13e1dfc87149dfa9487d5",
      "blockNumber": "0x5a0a846",
      "gasUsed": "0x16791",
      "effectiveGasPrice": "0x5f5e100",
      "from": "0xe62ab4d111f968660c6b2188046f9b9ba53c4bae",
      "to": "0xf77c7bdf97245eb9b12e7d7c10ab6abc2aba0f6a",
      "contractAddress": null,
      "gasUsedForL1": "0x7913",
      "l1BlockNumber": "0x6b0063"
    }
  ],
  "libraries": [],
  "pending": [],
  "returns": {},
  "timestamp": 1730753282,
  "chain": 421614,
  "commit": "34a11392"
}