{
  "transactions": [
    {
      "hash": "0x07c3bd55d4fe66fb7e0d8bd592d763f6a48aefc839f6e9f49a12d4da3eaf5616",
      "transactionType": "CALL",
      "contractName": null,
      "contractAddress": "0xf77c7bdf97245eb9b12e7d7c10ab6abc2aba0f6a",
      "function": "addDappAddr(uint256,string[])",
      "arguments": [
        "44",
        "[0xd1f0743c665d80d6bdaf1b4b8c9e82bfd1ae1994]"
      ],
      "transaction": {
        "from": "0xe62ab4d111f968660c6b2188046f9b9ba53c4bae",
        "to": "0xf77c7bdf97245eb9b12e7d7c10ab6abc2aba0f6a",
        "gas": "0x20219",
        "value": "0x0",
        "input": "0xbb03a47e000000000000000000000000000000000000000000000000000000000000002c000000000000000000000000000000000000000000000000000000000000004000000000000000000000000000000000000000000000000000000000000000010000000000000000000000000000000000000000000000000000000000000020000000000000000000000000000000000000000000000000000000000000002a30786431663037343363363635643830643662646166316234623863396538326266643161653139393400000000000000000000000000000000000000000000",
        "nonce": "0x2ea",
        "chainId": "0x66eee"
      },
      "additionalContracts": [],
      "isFixedGasLimit": false
    }
  ],
  "receipts": [
    {
      "status": "0x1",
      "cumulativeGasUsed": "0x164d9",
      "logs": [
        {
          "address": "0xf77c7bdf97245eb9b12e7d7c10ab6abc2aba0f6a",
          "topics": [
            "0x6e806e4274e1ae2fda14f84ae0177d6248dd126572ee44f546d4645c41ee2f77",
            "0x000000000000000000000000000000000000000000000000000000000000002c"
          ],
          "data": "0x000000000000000000000000000000000000000000000000000000000000002000000000000000000000000000000000000000000000000000000000000000010000000000000000000000000000000000000000000000000000000000000020000000000000000000000000000000000000000000000000000000000000002a30786431663037343363363635643830643662646166316234623863396538326266643161653139393400000000000000000000000000000000000000000000",
          "blockHash": "0x0d123c1ddb62ad17d51312450d80587310c54b3932e63c87ff7db2fb68ae8f15",
          "blockNumber": "0x5a0a415",
          "transactionHash": "0x07c3bd55d4fe66fb7e0d8bd592d763f6a48aefc839f6e9f49a12d4da3eaf5616",
          "transactionIndex": "0x1",
          "logIndex": "0x0",
          "removed": false
        }
      ],
      "logsBloom": "0x00000000000000000000000000000000000000000000800000000040000000000000000000000000000000000000000000000000000000000000000000000000000000000000000000000000000000000000000000000000000000000000000100000001000040000000000108000000000000000000000000000000004000000000000000000000000000000000000000000000000000000000000000000000000000000000000000000000000000000000000000000000000000000000000000000000000000000000000000000000000000000000000800000000000000000000000000000000000000000000000000000000000000000000000000000000",
      "type": "0x2",
      "transactionHash": "0x07c3bd55d4fe66fb7e0d8bd592d763f6a48aefc839f6e9f49a12d4da3eaf5616",
      "transactionIndex": "0x1",
      "blockHash": "0x0d123c1ddb62ad17d51312450d80587310c54b3932e63c87ff7db2fb68ae8f15",
      "blockNumber": "0x5a0a415",
      "gasUsed": "0x164d9",
      "effectiveGasPrice": "0x5f5e100",
      "from": "0xe62ab4d111f968660c6b2188046f9b9ba53c4bae",
      "to": "0xf77c7bdf97245eb9b12e7d7c10ab6abc2aba0f6a",
      "contractAddress": null,
      "gasUsedForL1": "0x765b",
      "l1BlockNumber": "0x6b0048"
    }
  ],
  "libraries": [],
  "pending": [],
  "returns": {},
  "timestamp": 1730752943,
  "chain": 421614,
  "commit": "34a11392"
}