{
  "transactions": [
    {
      "hash": "0xcf934a17887425eb56c94fef13acb0479f465dcee3a0cbd51fb2aa3162526b14",
      "transactionType": "CALL",
      "contractName": null,
      "contractAddress": "0xf77c7bdf97245eb9b12e7d7c10ab6abc2aba0f6a",
      "function": "addDappAddr(uint256,string[])",
      "arguments": [
        "45",
        "[0x45cdde4bdabc97b3ec02b1271432ceebc04d4c53]"
      ],
      "transaction": {
        "from": "0xe62ab4d111f968660c6b2188046f9b9ba53c4bae",
        "to": "0xf77c7bdf97245eb9b12e7d7c10ab6abc2aba0f6a",
        "gas": "0x146bd",
        "value": "0x0",
        "input": "0xbb03a47e000000000000000000000000000000000000000000000000000000000000002d000000000000000000000000000000000000000000000000000000000000004000000000000000000000000000000000000000000000000000000000000000010000000000000000000000000000000000000000000000000000000000000020000000000000000000000000000000000000000000000000000000000000002a30783435636464653462646162633937623365633032623132373134333263656562633034643463353300000000000000000000000000000000000000000000",
        "nonce": "0x284",
        "chainId": "0x66eee"
      },
      "additionalContracts": [],
      "isFixedGasLimit": false
    }
  ],
  "receipts": [
    {
      "status": "0x1",
      "cumulativeGasUsed": "0x35972",
      "logs": [
        {
          "address": "0xf77c7bdf97245eb9b12e7d7c10ab6abc2aba0f6a",
          "topics": [
            "0x6e806e4274e1ae2fda14f84ae0177d6248dd126572ee44f546d4645c41ee2f77",
            "0x000000000000000000000000000000000000000000000000000000000000002d"
          ],
          "data": "0x000000000000000000000000000000000000000000000000000000000000002000000000000000000000000000000000000000000000000000000000000000010000000000000000000000000000000000000000000000000000000000000020000000000000000000000000000000000000000000000000000000000000002a30783435636464653462646162633937623365633032623132373134333263656562633034643463353300000000000000000000000000000000000000000000",
          "blockHash": "0x28746ae86262a12b9db7f1fe332d7406d5eb3e08c879accc36734d4aa40fa970",
          "blockNumber": "0x596cb67",
          "transactionHash": "0xcf934a17887425eb56c94fef13acb0479f465dcee3a0cbd51fb2aa3162526b14",
          "transactionIndex": "0x3",
          "logIndex": "0x4",
          "removed": false
        }
      ],
      "logsBloom": "0x00000000000000000000000000000000000000000000800000000040000000000000000000000000000000000000000000000000000000000000000400000000000000000000000000000000000000000000000000000000000000000000000100000001000040000000000008000000000000000000000000000000000000000000000000000000000000000000000000000000000000000000000000000000000000000000000000000000000000000000000000000000000010000000000000000000000000000000000000000000000000000000000000000000400000000000000000000000000000000000000000000000000000000000000000000000",
      "type": "0x2",
      "transactionHash": "0xcf934a17887425eb56c94fef13acb0479f465dcee3a0cbd51fb2aa3162526b14",
      "transactionIndex": "0x3",
      "blockHash": "0x28746ae86262a12b9db7f1fe332d7406d5eb3e08c879accc36734d4aa40fa970",
      "blockNumber": "0x596cb67",
      "gasUsed": "0xf5f1",
      "effectiveGasPrice": "0x5f5e100",
      "from": "0xe62ab4d111f968660c6b2188046f9b9ba53c4bae",
      "to": "0xf77c7bdf97245eb9b12e7d7c10ab6abc2aba0f6a",
      "contractAddress": null,
      "gasUsedForL1": "0x773",
      "l1BlockNumber": "0x6ac34c"
    }
  ],
  "libraries": [],
  "pending": [],
  "returns": {},
  "timestamp": 1730548880,
  "chain": 421614,
  "commit": "34a11392"
}