{
  "transactions": [
    {
      "hash": "0xcf34391ef19995a52c59f94a4e96890d927e22fe97064a57f9e53ab1c2d148a1",
      "transactionType": "CALL",
      "contractName": null,
      "contractAddress": "0xf77c7bdf97245eb9b12e7d7c10ab6abc2aba0f6a",
      "function": "addDappAddr(uint256,string[])",
      "arguments": [
        "44",
        "[0x9e2f5d1228b02c2fbf3168db1162e7461574ebb9]"
      ],
      "transaction": {
        "from": "0xe62ab4d111f968660c6b2188046f9b9ba53c4bae",
        "to": "0xf77c7bdf97245eb9b12e7d7c10ab6abc2aba0f6a",
        "gas": "0x14f04",
        "value": "0x0",
        "input": "0xbb03a47e000000000000000000000000000000000000000000000000000000000000002c000000000000000000000000000000000000000000000000000000000000004000000000000000000000000000000000000000000000000000000000000000010000000000000000000000000000000000000000000000000000000000000020000000000000000000000000000000000000000000000000000000000000002a30783965326635643132323862303263326662663331363864623131363265373436313537346562623900000000000000000000000000000000000000000000",
        "nonce": "0x279",
        "chainId": "0x66eee"
      },
      "additionalContracts": [],
      "isFixedGasLimit": false
    }
  ],
  "receipts": [
    {
      "status": "0x1",
      "cumulativeGasUsed": "0x1525b",
      "logs": [
        {
          "address": "0xf77c7bdf97245eb9b12e7d7c10ab6abc2aba0f6a",
          "topics": [
            "0x6e806e4274e1ae2fda14f84ae0177d6248dd126572ee44f546d4645c41ee2f77",
            "0x000000000000000000000000000000000000000000000000000000000000002c"
          ],
          "data": "0x000000000000000000000000000000000000000000000000000000000000002000000000000000000000000000000000000000000000000000000000000000010000000000000000000000000000000000000000000000000000000000000020000000000000000000000000000000000000000000000000000000000000002a30783965326635643132323862303263326662663331363864623131363265373436313537346562623900000000000000000000000000000000000000000000",
          "blockHash": "0xe634dd36a58ded3843b7791a802dfda0586bec932ae727428e10bcf1243c4687",
          "blockNumber": "0x596c007",
          "transactionHash": "0xcf34391ef19995a52c59f94a4e96890d927e22fe97064a57f9e53ab1c2d148a1",
          "transactionIndex": "0x2",
          "logIndex": "0x0",
          "removed": false
        }
      ],
      "logsBloom": "0x00000000000000000000000000000000000000000000800000000040000000000000000000000000000000000000000000000000000000000000000000000000000000000000000000000000000000000000000000000000000000000000000100000001000040000000000108000000000000000000000000000000004000000000000000000000000000000000000000000000000000000000000000000000000000000000000000000000000000000000000000000000000000000000000000000000000000000000000000000000000000000000000800000000000000000000000000000000000000000000000000000000000000000000000000000000",
      "type": "0x2",
      "transactionHash": "0xcf34391ef19995a52c59f94a4e96890d927e22fe97064a57f9e53ab1c2d148a1",
      "transactionIndex": "0x2",
      "blockHash": "0xe634dd36a58ded3843b7791a802dfda0586bec932ae727428e10bcf1243c4687",
      "blockNumber": "0x596c007",
      "gasUsed": "0xface",
      "effectiveGasPrice": "0x5f5e100",
      "from": "0xe62ab4d111f968660c6b2188046f9b9ba53c4bae",
      "to": "0xf77c7bdf97245eb9b12e7d7c10ab6abc2aba0f6a",
      "contractAddress": null,
      "gasUsedForL1": "0xc50",
      "l1BlockNumber": "0x6ac30e"
    }
  ],
  "libraries": [],
  "pending": [],
  "returns": {},
  "timestamp": 1730548073,
  "chain": 421614,
  "commit": "34a11392"
}