{
  "transactions": [
    {
      "hash": "0xb4513fab12c563816db1e6c82d7ea3e9c208e97444e7bd3bd6c0a16b202b2b9a",
      "transactionType": "CALL",
      "contractName": null,
      "contractAddress": "0xf77c7bdf97245eb9b12e7d7c10ab6abc2aba0f6a",
      "function": "addDappAddr(uint256,string[])",
      "arguments": [
        "44",
        "[0xcbf4e5fda887e602e5132fa800d74154dfb5b237]"
      ],
      "transaction": {
        "from": "0xe62ab4d111f968660c6b2188046f9b9ba53c4bae",
        "to": "0xf77c7bdf97245eb9b12e7d7c10ab6abc2aba0f6a",
        "gas": "0x13a3a",
        "value": "0x0",
        "input": "0xbb03a47e000000000000000000000000000000000000000000000000000000000000002c000000000000000000000000000000000000000000000000000000000000004000000000000000000000000000000000000000000000000000000000000000010000000000000000000000000000000000000000000000000000000000000020000000000000000000000000000000000000000000000000000000000000002a30786362663465356664613838376536303265353133326661383030643734313534646662356232333700000000000000000000000000000000000000000000",
        "nonce": "0x330",
        "chainId": "0x66eee"
      },
      "additionalContracts": [],
      "isFixedGasLimit": false
    }
  ],
  "receipts": [
    {
      "status": "0x1",
      "cumulativeGasUsed": "0xee7e",
      "logs": [
        {
          "address": "0xf77c7bdf97245eb9b12e7d7c10ab6abc2aba0f6a",
          "topics": [
            "0x6e806e4274e1ae2fda14f84ae0177d6248dd126572ee44f546d4645c41ee2f77",
            "0x000000000000000000000000000000000000000000000000000000000000002c"
          ],
          "data": "0x000000000000000000000000000000000000000000000000000000000000002000000000000000000000000000000000000000000000000000000000000000010000000000000000000000000000000000000000000000000000000000000020000000000000000000000000000000000000000000000000000000000000002a30786362663465356664613838376536303265353133326661383030643734313534646662356232333700000000000000000000000000000000000000000000",
          "blockHash": "0x391667b176efb1d1e2f4d624903bde0fa31488f93618c5dd56416884f693e6ee",
          "blockNumber": "0x5b2d3c1",
          "transactionHash": "0xb4513fab12c563816db1e6c82d7ea3e9c208e97444e7bd3bd6c0a16b202b2b9a",
          "transactionIndex": "0x1",
          "logIndex": "0x0",
          "removed": false
        }
      ],
      "logsBloom": "0x00000000000000000000000000000000000000000000800000000040000000000000000000000000000000000000000000000000000000000000000000000000000000000000000000000000000000000000000000000000000000000000000100000001000040000000000108000000000000000000000000000000004000000000000000000000000000000000000000000000000000000000000000000000000000000000000000000000000000000000000000000000000000000000000000000000000000000000000000000000000000000000000800000000000000000000000000000000000000000000000000000000000000000000000000000000",
      "type": "0x2",
      "transactionHash": "0xb4513fab12c563816db1e6c82d7ea3e9c208e97444e7bd3bd6c0a16b202b2b9a",
      "transactionIndex": "0x1",
      "blockHash": "0x391667b176efb1d1e2f4d624903bde0fa31488f93618c5dd56416884f693e6ee",
      "blockNumber": "0x5b2d3c1",
      "gasUsed": "0xee7e",
      "effectiveGasPrice": "0x5f5e100",
      "from": "0xe62ab4d111f968660c6b2188046f9b9ba53c4bae",
      "to": "0xf77c7bdf97245eb9b12e7d7c10ab6abc2aba0f6a",
      "contractAddress": null,
      "gasUsedForL1": "0x0",
      "l1BlockNumber": "0x6b64ba"
    }
  ],
  "libraries": [],
  "pending": [],
  "returns": {},
  "timestamp": 1731093807,
  "chain": 421614,
  "commit": "ac6d4a5e"
}