{
  "transactions": [
    {
      "hash": "0x85dde51a4379b03d301c7b4cd1d9a4bb1e388f81e79ff15d0341a8a884227029",
      "transactionType": "CALL",
      "contractName": null,
      "contractAddress": "0xf77c7bdf97245eb9b12e7d7c10ab6abc2aba0f6a",
      "function": "addDappAddr(uint256,string[])",
      "arguments": [
        "48",
        "[0x4fb3a28c53c88731d783610d0ff275b02bbf19e0]"
      ],
      "transaction": {
        "from": "0xe62ab4d111f968660c6b2188046f9b9ba53c4bae",
        "to": "0xf77c7bdf97245eb9b12e7d7c10ab6abc2aba0f6a",
        "gas": "0x13a3a",
        "value": "0x0",
        "input": "0xbb03a47e0000000000000000000000000000000000000000000000000000000000000030000000000000000000000000000000000000000000000000000000000000004000000000000000000000000000000000000000000000000000000000000000010000000000000000000000000000000000000000000000000000000000000020000000000000000000000000000000000000000000000000000000000000002a30783466623361323863353363383837333164373833363130643066663237356230326262663139653000000000000000000000000000000000000000000000",
        "nonce": "0x33f",
        "chainId": "0x66eee"
      },
      "additionalContracts": [],
      "isFixedGasLimit": false
    }
  ],
  "receipts": [
    {
      "status": "0x1",
      "cumulativeGasUsed": "0x27a16",
      "logs": [
        {
          "address": "0xf77c7bdf97245eb9b12e7d7c10ab6abc2aba0f6a",
          "topics": [
            "0x6e806e4274e1ae2fda14f84ae0177d6248dd126572ee44f546d4645c41ee2f77",
            "0x0000000000000000000000000000000000000000000000000000000000000030"
          ],
          "data": "0x000000000000000000000000000000000000000000000000000000000000002000000000000000000000000000000000000000000000000000000000000000010000000000000000000000000000000000000000000000000000000000000020000000000000000000000000000000000000000000000000000000000000002a30783466623361323863353363383837333164373833363130643066663237356230326262663139653000000000000000000000000000000000000000000000",
          "blockHash": "0xd5fac93cb19d74ff24577643075104a2ee3a8a8e317588d1bc071e8edb8fcb64",
          "blockNumber": "0x5b2d833",
          "transactionHash": "0x85dde51a4379b03d301c7b4cd1d9a4bb1e388f81e79ff15d0341a8a884227029",
          "transactionIndex": "0x2",
          "logIndex": "0x3",
          "removed": false
        }
      ],
      "logsBloom": "0x02000000000000000000000000000000000000000000800000000040000000000000000000000000000000000000000000000000000000000000000000000000000000000000000000000000000000000000000000000000000000000000000100000001000040000000000008000000000000000000000000000000000000000000000000000000000000000000000000000000000000000000000000000000000000000000000000000000000000000000000002000000000000000000000000000000000000000000000000000000000000000000000000000000000020000000000000000000000000000000000000000000000000000000000000000000",
      "type": "0x2",
      "transactionHash": "0x85dde51a4379b03d301c7b4cd1d9a4bb1e388f81e79ff15d0341a8a884227029",
      "transactionIndex": "0x2",
      "blockHash": "0xd5fac93cb19d74ff24577643075104a2ee3a8a8e317588d1bc071e8edb8fcb64",
      "blockNumber": "0x5b2d833",
      "gasUsed": "0xee7e",
      "effectiveGasPrice": "0x5f5e100",
      "from": "0xe62ab4d111f968660c6b2188046f9b9ba53c4bae",
      "to": "0xf77c7bdf97245eb9b12e7d7c10ab6abc2aba0f6a",
      "contractAddress": null,
      "gasUsedForL1": "0x0",
      "l1BlockNumber": "0x6b64d0"
    }
  ],
  "libraries": [],
  "pending": [],
  "returns": {},
  "timestamp": 1731094150,
  "chain": 421614,
  "commit": "ac6d4a5e"
}