{
  "transactions": [
    {
      "hash": "0x4967cc63223ef50bbb7f6742aff4cc7a861eadf5e1bd2a0580894dd7525ad22d",
      "transactionType": "CALL",
      "contractName": null,
      "contractAddress": "0xf77c7bdf97245eb9b12e7d7c10ab6abc2aba0f6a",
      "function": "addDappAddr(uint256,string[])",
      "arguments": [
        "44",
        "[0x0897e91383ab942bc502549ed75aa8ea7538b5fe]"
      ],
      "transaction": {
        "from": "0xe62ab4d111f968660c6b2188046f9b9ba53c4bae",
        "to": "0xf77c7bdf97245eb9b12e7d7c10ab6abc2aba0f6a",
        "gas": "0x1602e",
        "value": "0x0",
        "input": "0xbb03a47e000000000000000000000000000000000000000000000000000000000000002c000000000000000000000000000000000000000000000000000000000000004000000000000000000000000000000000000000000000000000000000000000010000000000000000000000000000000000000000000000000000000000000020000000000000000000000000000000000000000000000000000000000000002a30783038393765393133383361623934326263353032353439656437356161386561373533386235666500000000000000000000000000000000000000000000",
        "nonce": "0x2e7",
        "chainId": "0x66eee"
      },
      "additionalContracts": [],
      "isFixedGasLimit": false
    }
  ],
  "receipts": [
    {
      "status": "0x1",
      "cumulativeGasUsed": "0x1063e",
      "logs": [
        {
          "address": "0xf77c7bdf97245eb9b12e7d7c10ab6abc2aba0f6a",
          "topics": [
            "0x6e806e4274e1ae2fda14f84ae0177d6248dd126572ee44f546d4645c41ee2f77",
            "0x000000000000000000000000000000000000000000000000000000000000002c"
          ],
          "data": "0x000000000000000000000000000000000000000000000000000000000000002000000000000000000000000000000000000000000000000000000000000000010000000000000000000000000000000000000000000000000000000000000020000000000000000000000000000000000000000000000000000000000000002a30783038393765393133383361623934326263353032353439656437356161386561373533386235666500000000000000000000000000000000000000000000",
          "blockHash": "0xec648fbaf597c4b05a5ef60f0633d39624fafc00de37c190c95e32230b4e9754",
          "blockNumber": "0x5a0a335",
          "transactionHash": "0x4967cc63223ef50bbb7f6742aff4cc7a861eadf5e1bd2a0580894dd7525ad22d",
          "transactionIndex": "0x1",
          "logIndex": "0x0",
          "removed": false
        }
      ],
      "logsBloom": "0x00000000000000000000000000000000000000000000800000000040000000000000000000000000000000000000000000000000000000000000000000000000000000000000000000000000000000000000000000000000000000000000000100000001000040000000000108000000000000000000000000000000004000000000000000000000000000000000000000000000000000000000000000000000000000000000000000000000000000000000000000000000000000000000000000000000000000000000000000000000000000000000000800000000000000000000000000000000000000000000000000000000000000000000000000000000",
      "type": "0x2",
      "transactionHash": "0x4967cc63223ef50bbb7f6742aff4cc7a861eadf5e1bd2a0580894dd7525ad22d",
      "transactionIndex": "0x1",
      "blockHash": "0xec648fbaf597c4b05a5ef60f0633d39624fafc00de37c190c95e32230b4e9754",
      "blockNumber": "0x5a0a335",
      "gasUsed": "0x1063e",
      "effectiveGasPrice": "0x5f5e100",
      "from": "0xe62ab4d111f968660c6b2188046f9b9ba53c4bae",
      "to": "0xf77c7bdf97245eb9b12e7d7c10ab6abc2aba0f6a",
      "contractAddress": null,
      "gasUsedForL1": "0x17c0",
      "l1BlockNumber": "0x6b0043"
    }
  ],
  "libraries": [],
  "pending": [],
  "returns": {},
  "timestamp": 1730752882,
  "chain": 421614,
  "commit": "34a11392"
}