{
  "transactions": [
    {
      "hash": "0x0809271a507d9fed5d8cb92a16776a3e7e5fcaf100e1a8cabd5977437140c931",
      "transactionType": "CALL",
      "contractName": null,
      "contractAddress": "0xf77c7bdf97245eb9b12e7d7c10ab6abc2aba0f6a",
      "function": "addDappAddr(uint256,string[])",
      "arguments": [
        "48",
        "[0xb523f0e72a7bdf94a5a3d84ba9e8dc42e69229ea]"
      ],
      "transaction": {
        "from": "0xe62ab4d111f968660c6b2188046f9b9ba53c4bae",
        "to": "0xf77c7bdf97245eb9b12e7d7c10ab6abc2aba0f6a",
        "gas": "0x69c34",
        "value": "0x0",
        "input": "0xbb03a47e0000000000000000000000000000000000000000000000000000000000000030000000000000000000000000000000000000000000000000000000000000004000000000000000000000000000000000000000000000000000000000000000010000000000000000000000000000000000000000000000000000000000000020000000000000000000000000000000000000000000000000000000000000002a30786235323366306537326137626466393461356133643834626139653864633432653639323239656100000000000000000000000000000000000000000000",
        "nonce": "0x45c",
        "chainId": "0x66eee"
      },
      "additionalContracts": [],
      "isFixedGasLimit": false
    }
  ],
  "receipts": [
    {
      "status": "0x1",
      "cumulativeGasUsed": "0x4407c",
      "logs": [
        {
          "address": "0xf77c7bdf97245eb9b12e7d7c10ab6abc2aba0f6a",
          "topics": [
            "0x6e806e4274e1ae2fda14f84ae0177d6248dd126572ee44f546d4645c41ee2f77",
            "0x0000000000000000000000000000000000000000000000000000000000000030"
          ],
          "data": "0x000000000000000000000000000000000000000000000000000000000000002000000000000000000000000000000000000000000000000000000000000000010000000000000000000000000000000000000000000000000000000000000020000000000000000000000000000000000000000000000000000000000000002a30786235323366306537326137626466393461356133643834626139653864633432653639323239656100000000000000000000000000000000000000000000",
          "blockHash": "0xc00f7cfc5f0380d136530ea2c00a2b16d02f5ef1c7ec1d618fffb8cdbd87468e",
          "blockNumber": "0x5ebc3aa",
          "transactionHash": "0x0809271a507d9fed5d8cb92a16776a3e7e5fcaf100e1a8cabd5977437140c931",
          "transactionIndex": "0x1",
          "logIndex": "0x0",
          "removed": false
        }
      ],
      "logsBloom": "0x02000000000000000000000000000000000000000000800000000040000000000000000000000000000000000000000000000000000000000000000000000000000000000000000000000000000000000000000000000000000000000000000100000001000040000000000008000000000000000000000000000000000000000000000000000000000000000000000000000000000000000000000000000000000000000000000000000000000000000000000002000000000000000000000000000000000000000000000000000000000000000000000000000000000020000000000000000000000000000000000000000000000000000000000000000000",
      "type": "0x2",
      "transactionHash": "0x0809271a507d9fed5d8cb92a16776a3e7e5fcaf100e1a8cabd5977437140c931",
      "transactionIndex": "0x1",
      "blockHash": "0xc00f7cfc5f0380d136530ea2c00a2b16d02f5ef1c7ec1d618fffb8cdbd87468e",
      "blockNumber": "0x5ebc3aa",
      "gasUsed": "0x4407c",
      "effectiveGasPrice": "0x5f5e100",
      "from": "0xe62ab4d111f968660c6b2188046f9b9ba53c4bae",
      "to": "0xf77c7bdf97245eb9b12e7d7c10ab6abc2aba0f6a",
      "contractAddress": null,
      "gasUsedForL1": "0x351fe",
      "l1BlockNumber": "0x6cb58b"
    }
  ],
  "libraries": [],
  "pending": [],
  "returns": {},
  "timestamp": 1732214708,
  "chain": 421614,
  "commit": "4b2e1f8c"
}