{
  "transactions": [
    {
      "hash": "0x9bffd3950d43c02f041a8bc76d98313d1e1a62965952ecdd6f0ab414f369fa18",
      "transactionType": "CALL",
      "contractName": null,
      "contractAddress": "0xf77c7bdf97245eb9b12e7d7c10ab6abc2aba0f6a",
      "function": "addDappAddr(uint256,string[])",
      "arguments": [
        "45",
        "[0xfc2b6634dc49ba4b353540f344050724c932359a]"
      ],
      "transaction": {
        "from": "0xe62ab4d111f968660c6b2188046f9b9ba53c4bae",
        "to": "0xf77c7bdf97245eb9b12e7d7c10ab6abc2aba0f6a",
        "gas": "0x146d2",
        "value": "0x0",
        "input": "0xbb03a47e000000000000000000000000000000000000000000000000000000000000002d000000000000000000000000000000000000000000000000000000000000004000000000000000000000000000000000000000000000000000000000000000010000000000000000000000000000000000000000000000000000000000000020000000000000000000000000000000000000000000000000000000000000002a30786663326236363334646334396261346233353335343066333434303530373234633933323335396100000000000000000000000000000000000000000000",
        "nonce": "0x286",
        "chainId": "0x66eee"
      },
      "additionalContracts": [],
      "isFixedGasLimit": false
    }
  ],
  "receipts": [
    {
      "status": "0x1",
      "cumulativeGasUsed": "0xf60e",
      "logs": [
        {
          "address": "0xf77c7bdf97245eb9b12e7d7c10ab6abc2aba0f6a",
          "topics": [
            "0x6e806e4274e1ae2fda14f84ae0177d6248dd126572ee44f546d4645c41ee2f77",
            "0x000000000000000000000000000000000000000000000000000000000000002d"
          ],
          "data": "0x000000000000000000000000000000000000000000000000000000000000002000000000000000000000000000000000000000000000000000000000000000010000000000000000000000000000000000000000000000000000000000000020000000000000000000000000000000000000000000000000000000000000002a30786663326236363334646334396261346233353335343066333434303530373234633933323335396100000000000000000000000000000000000000000000",
          "blockHash": "0x27a548c05c86e39c62f3ac2d399027ad1dda82b43451153bd3f83317af57d66c",
          "blockNumber": "0x596cc9c",
          "transactionHash": "0x9bffd3950d43c02f041a8bc76d98313d1e1a62965952ecdd6f0ab414f369fa18",
          "transactionIndex": "0x1",
          "logIndex": "0x0",
          "removed": false
        }
      ],
      "logsBloom": "0x00000000000000000000000000000000000000000000800000000040000000000000000000000000000000000000000000000000000000000000000400000000000000000000000000000000000000000000000000000000000000000000000100000001000040000000000008000000000000000000000000000000000000000000000000000000000000000000000000000000000000000000000000000000000000000000000000000000000000000000000000000000000010000000000000000000000000000000000000000000000000000000000000000000400000000000000000000000000000000000000000000000000000000000000000000000",
      "type": "0x2",
      "transactionHash": "0x9bffd3950d43c02f041a8bc76d98313d1e1a62965952ecdd6f0ab414f369fa18",
      "transactionIndex": "0x1",
      "blockHash": "0x27a548c05c86e39c62f3ac2d399027ad1dda82b43451153bd3f83317af57d66c",
      "blockNumber": "0x596cc9c",
      "gasUsed": "0xf60e",
      "effectiveGasPrice": "0x5f5e100",
      "from": "0xe62ab4d111f968660c6b2188046f9b9ba53c4bae",
      "to": "0xf77c7bdf97245eb9b12e7d7c10ab6abc2aba0f6a",
      "contractAddress": null,
      "gasUsedForL1": "0x790",
      "l1BlockNumber": "0x6ac353"
    }
  ],
  "libraries": [],
  "pending": [],
  "returns": {},
  "timestamp": 1730548966,
  "chain": 421614,
  "commit": "34a11392"
}