{
  "transactions": [
    {
      "hash": "0x86517950895af4dfd32607e270a6e2c1cfcbeab1f4d87590902277da5e9de800",
      "transactionType": "CALL",
      "contractName": null,
      "contractAddress": "0xf77c7bdf97245eb9b12e7d7c10ab6abc2aba0f6a",
      "function": "addDappAddr(uint256,string[])",
      "arguments": [
        "45",
        "[0xcacf2003d4bc2e19c865e65ebb9d57c440217f0f]"
      ],
      "transaction": {
        "from": "0xe62ab4d111f968660c6b2188046f9b9ba53c4bae",
        "to": "0xf77c7bdf97245eb9b12e7d7c10ab6abc2aba0f6a",
        "gas": "0x146ba",
        "value": "0x0",
        "input": "0xbb03a47e000000000000000000000000000000000000000000000000000000000000002d000000000000000000000000000000000000000000000000000000000000004000000000000000000000000000000000000000000000000000000000000000010000000000000000000000000000000000000000000000000000000000000020000000000000000000000000000000000000000000000000000000000000002a30786361636632303033643462633265313963383635653635656262396435376334343032313766306600000000000000000000000000000000000000000000",
        "nonce": "0x287",
        "chainId": "0x66eee"
      },
      "additionalContracts": [],
      "isFixedGasLimit": false
    }
  ],
  "receipts": [
    {
      "status": "0x1",
      "cumulativeGasUsed": "0xf5dd",
      "logs": [
        {
          "address": "0xf77c7bdf97245eb9b12e7d7c10ab6abc2aba0f6a",
          "topics": [
            "0x6e806e4274e1ae2fda14f84ae0177d6248dd126572ee44f546d4645c41ee2f77",
            "0x000000000000000000000000000000000000000000000000000000000000002d"
          ],
          "data": "0x000000000000000000000000000000000000000000000000000000000000002000000000000000000000000000000000000000000000000000000000000000010000000000000000000000000000000000000000000000000000000000000020000000000000000000000000000000000000000000000000000000000000002a30786361636632303033643462633265313963383635653635656262396435376334343032313766306600000000000000000000000000000000000000000000",
          "blockHash": "0x341d28042bc9d350caedc5a43c2c042dad1a75ee21ed643ff70691445a213ac2",
          "blockNumber": "0x596cd80",
          "transactionHash": "0x86517950895af4dfd32607e270a6e2c1cfcbeab1f4d87590902277da5e9de800",
          "transactionIndex": "0x1",
          "logIndex": "0x0",
          "removed": false
        }
      ],
      "logsBloom": "0x00000000000000000000000000000000000000000000800000000040000000000000000000000000000000000000000000000000000000000000000400000000000000000000000000000000000000000000000000000000000000000000000100000001000040000000000008000000000000000000000000000000000000000000000000000000000000000000000000000000000000000000000000000000000000000000000000000000000000000000000000000000000010000000000000000000000000000000000000000000000000000000000000000000400000000000000000000000000000000000000000000000000000000000000000000000",
      "type": "0x2",
      "transactionHash": "0x86517950895af4dfd32607e270a6e2c1cfcbeab1f4d87590902277da5e9de800",
      "transactionIndex": "0x1",
      "blockHash": "0x341d28042bc9d350caedc5a43c2c042dad1a75ee21ed643ff70691445a213ac2",
      "blockNumber": "0x596cd80",
      "gasUsed": "0xf5dd",
      "effectiveGasPrice": "0x5f5e100",
      "from": "0xe62ab4d111f968660c6b2188046f9b9ba53c4bae",
      "to": "0xf77c7bdf97245eb9b12e7d7c10ab6abc2aba0f6a",
      "contractAddress": null,
      "gasUsedForL1": "0x75f",
      "l1BlockNumber": "0x6ac358"
    }
  ],
  "libraries": [],
  "pending": [],
  "returns": {},
  "timestamp": 1730549026,
  "chain": 421614,
  "commit": "34a11392"
}