{
  "transactions": [
    {
      "hash": "0xe63d778bcceef05a76b6a2119a7d17e169482ba4b7820f64681cad842bc8ca3c",
      "transactionType": "CALL",
      "contractName": null,
      "contractAddress": "0xf77c7bdf97245eb9b12e7d7c10ab6abc2aba0f6a",
      "function": "addDappAddr(uint256,string[])",
      "arguments": [
        "48",
        "[0x093eacfa2d856516ed71af96d7dc7c571e6ca2a6]"
      ],
      "transaction": {
        "from": "0xe62ab4d111f968660c6b2188046f9b9ba53c4bae",
        "to": "0xf77c7bdf97245eb9b12e7d7c10ab6abc2aba0f6a",
        "gas": "0x15753",
        "value": "0x0",
        "input": "0xbb03a47e0000000000000000000000000000000000000000000000000000000000000030000000000000000000000000000000000000000000000000000000000000004000000000000000000000000000000000000000000000000000000000000000010000000000000000000000000000000000000000000000000000000000000020000000000000000000000000000000000000000000000000000000000000002a30783039336561636661326438353635313665643731616639366437646337633537316536636132613600000000000000000000000000000000000000000000",
        "nonce": "0x295",
        "chainId": "0x66eee"
      },
      "additionalContracts": [],
      "isFixedGasLimit": false
    }
  ],
  "receipts": [
    {
      "status": "0x1",
      "cumulativeGasUsed": "0x1006d",
      "logs": [
        {
          "address": "0xf77c7bdf97245eb9b12e7d7c10ab6abc2aba0f6a",
          "topics": [
            "0x6e806e4274e1ae2fda14f84ae0177d6248dd126572ee44f546d4645c41ee2f77",
            "0x0000000000000000000000000000000000000000000000000000000000000030"
          ],
          "data": "0x000000000000000000000000000000000000000000000000000000000000002000000000000000000000000000000000000000000000000000000000000000010000000000000000000000000000000000000000000000000000000000000020000000000000000000000000000000000000000000000000000000000000002a30783039336561636661326438353635313665643731616639366437646337633537316536636132613600000000000000000000000000000000000000000000",
          "blockHash": "0xf00ed6b83c2cf5e653fc7923fdf70c79cd9866e6e37632ba9fbf40a7b507049b",
          "blockNumber": "0x596d828",
          "transactionHash": "0xe63d778bcceef05a76b6a2119a7d17e169482ba4b7820f64681cad842bc8ca3c",
          "transactionIndex": "0x1",
          "logIndex": "0x0",
          "removed": false
        }
      ],
      "logsBloom": "0x02000000000000000000000000000000000000000000800000000040000000000000000000000000000000000000000000000000000000000000000000000000000000000000000000000000000000000000000000000000000000000000000100000001000040000000000008000000000000000000000000000000000000000000000000000000000000000000000000000000000000000000000000000000000000000000000000000000000000000000000002000000000000000000000000000000000000000000000000000000000000000000000000000000000020000000000000000000000000000000000000000000000000000000000000000000",
      "type": "0x2",
      "transactionHash": "0xe63d778bcceef05a76b6a2119a7d17e169482ba4b7820f64681cad842bc8ca3c",
      "transactionIndex": "0x1",
      "blockHash": "0xf00ed6b83c2cf5e653fc7923fdf70c79cd9866e6e37632ba9fbf40a7b507049b",
      "blockNumber": "0x596d828",
      "gasUsed": "0x1006d",
      "effectiveGasPrice": "0x5f5e100",
      "from": "0xe62ab4d111f968660c6b2188046f9b9ba53c4bae",
      "to": "0xf77c7bdf97245eb9b12e7d7c10ab6abc2aba0f6a",
      "contractAddress": null,
      "gasUsedForL1": "0x11ef",
      "l1BlockNumber": "0x6ac396"
    }
  ],
  "libraries": [],
  "pending": [],
  "returns": {},
  "timestamp": 1730549802,
  "chain": 421614,
  "commit": "34a11392"
}