{
  "transactions": [
    {
      "hash": "0x53b5fb7efc83b6f470f3a3f5f88568d26762d87a64ef0767118184ca28769617",
      "transactionType": "CALL",
      "contractName": null,
      "contractAddress": "0xf77c7bdf97245eb9b12e7d7c10ab6abc2aba0f6a",
      "function": "addDappAddr(uint256,string[])",
      "arguments": [
        "45",
        "[0xd06cda2c8f2258ceec5efb8c6371f54d7853480e]"
      ],
      "transaction": {
        "from": "0xe62ab4d111f968660c6b2188046f9b9ba53c4bae",
        "to": "0xf77c7bdf97245eb9b12e7d7c10ab6abc2aba0f6a",
        "gas": "0x18e9a",
        "value": "0x0",
        "input": "0xbb03a47e000000000000000000000000000000000000000000000000000000000000002d000000000000000000000000000000000000000000000000000000000000004000000000000000000000000000000000000000000000000000000000000000010000000000000000000000000000000000000000000000000000000000000020000000000000000000000000000000000000000000000000000000000000002a30786430366364613263386632323538636565633565666238633633373166353464373835333438306500000000000000000000000000000000000000000000",
        "nonce": "0x411",
        "chainId": "0x66eee"
      },
      "additionalContracts": [],
      "isFixedGasLimit": false
    }
  ],
  "receipts": [
    {
      "status": "0x1",
      "cumulativeGasUsed": "0x50e99",
      "logs": [
        {
          "address": "0xf77c7bdf97245eb9b12e7d7c10ab6abc2aba0f6a",
          "topics": [
            "0x6e806e4274e1ae2fda14f84ae0177d6248dd126572ee44f546d4645c41ee2f77",
            "0x000000000000000000000000000000000000000000000000000000000000002d"
          ],
          "data": "0x000000000000000000000000000000000000000000000000000000000000002000000000000000000000000000000000000000000000000000000000000000010000000000000000000000000000000000000000000000000000000000000020000000000000000000000000000000000000000000000000000000000000002a30786430366364613263386632323538636565633565666238633633373166353464373835333438306500000000000000000000000000000000000000000000",
          "blockHash": "0x41ba73d3d3bb0645008c741ffe94586b53e40eefbe81f608f72cb0d45cd6fce0",
          "blockNumber": "0x5e3cb92",
          "transactionHash": "0x53b5fb7efc83b6f470f3a3f5f88568d26762d87a64ef0767118184ca28769617",
          "transactionIndex": "0x3",
          "logIndex": "0x3",
          "removed": false
        }
      ],
      "logsBloom": "0x00000000000000000000000000000000000000000000800000000040000000000000000000000000000000000000000000000000000000000000000400000000000000000000000000000000000000000000000000000000000000000000000100000001000040000000000008000000000000000000000000000000000000000000000000000000000000000000000000000000000000000000000000000000000000000000000000000000000000000000000000000000000010000000000000000000000000000000000000000000000000000000000000000000400000000000000000000000000000000000000000000000000000000000000000000000",
      "type": "0x2",
      "transactionHash": "0x53b5fb7efc83b6f470f3a3f5f88568d26762d87a64ef0767118184ca28769617",
      "transactionIndex": "0x3",
      "blockHash": "0x41ba73d3d3bb0645008c741ffe94586b53e40eefbe81f608f72cb0d45cd6fce0",
      "blockNumber": "0x5e3cb92",
      "gasUsed": "0x12318",
      "effectiveGasPrice": "0x5f5e100",
      "from": "0xe62ab4d111f968660c6b2188046f9b9ba53c4bae",
      "to": "0xf77c7bdf97245eb9b12e7d7c10ab6abc2aba0f6a",
      "contractAddress": null,
      "gasUsedForL1": "0x349a",
      "l1BlockNumber": "0x6c8846"
    }
  ],
  "libraries": [],
  "pending": [],
  "returns": {},
  "timestamp": 1732067163,
  "chain": 421614,
  "commit": "4b2e1f8c"
}