{
  "transactions": [
    {
      "hash": "0xcff2d7f8c389689e2d78cae6bc33da298398bdc1c43ff42207ac63239c9ceec0",
      "transactionType": "CALL",
      "contractName": null,
      "contractAddress": "0xf77c7bdf97245eb9b12e7d7c10ab6abc2aba0f6a",
      "function": "addDappAddr(uint256,string[])",
      "arguments": [
        "45",
        "[0xd7155b99ca57aa4c0711a87b982f517de5a036de]"
      ],
      "transaction": {
        "from": "0xe62ab4d111f968660c6b2188046f9b9ba53c4bae",
        "to": "0xf77c7bdf97245eb9b12e7d7c10ab6abc2aba0f6a",
        "gas": "0x146dd",
        "value": "0x0",
        "input": "0xbb03a47e000000000000000000000000000000000000000000000000000000000000002d000000000000000000000000000000000000000000000000000000000000004000000000000000000000000000000000000000000000000000000000000000010000000000000000000000000000000000000000000000000000000000000020000000000000000000000000000000000000000000000000000000000000002a30786437313535623939636135376161346330373131613837623938326635313764653561303336646500000000000000000000000000000000000000000000",
        "nonce": "0x281",
        "chainId": "0x66eee"
      },
      "additionalContracts": [],
      "isFixedGasLimit": false
    }
  ],
  "receipts": [
    {
      "status": "0x1",
      "cumulativeGasUsed": "0x3a1e4",
      "logs": [
        {
          "address": "0xf77c7bdf97245eb9b12e7d7c10ab6abc2aba0f6a",
          "topics": [
            "0x6e806e4274e1ae2fda14f84ae0177d6248dd126572ee44f546d4645c41ee2f77",
            "0x000000000000000000000000000000000000000000000000000000000000002d"
          ],
          "data": "0x000000000000000000000000000000000000000000000000000000000000002000000000000000000000000000000000000000000000000000000000000000010000000000000000000000000000000000000000000000000000000000000020000000000000000000000000000000000000000000000000000000000000002a30786437313535623939636135376161346330373131613837623938326635313764653561303336646500000000000000000000000000000000000000000000",
          "blockHash": "0x5f25a26b9726bebb7ee8fd78e1c32b038a356035f0e09b9c1d144adca8c92068",
          "blockNumber": "0x596ca79",
          "transactionHash": "0xcff2d7f8c389689e2d78cae6bc33da298398bdc1c43ff42207ac63239c9ceec0",
          "transactionIndex": "0x2",
          "logIndex": "0x1",
          "removed": false
        }
      ],
      "logsBloom": "0x00000000000000000000000000000000000000000000800000000040000000000000000000000000000000000000000000000000000000000000000400000000000000000000000000000000000000000000000000000000000000000000000100000001000040000000000008000000000000000000000000000000000000000000000000000000000000000000000000000000000000000000000000000000000000000000000000000000000000000000000000000000000010000000000000000000000000000000000000000000000000000000000000000000400000000000000000000000000000000000000000000000000000000000000000000000",
      "type": "0x2",
      "transactionHash": "0xcff2d7f8c389689e2d78cae6bc33da298398bdc1c43ff42207ac63239c9ceec0",
      "transactionIndex": "0x2",
      "blockHash": "0x5f25a26b9726bebb7ee8fd78e1c32b038a356035f0e09b9c1d144adca8c92068",
      "blockNumber": "0x596ca79",
      "gasUsed": "0xf5d1",
      "effectiveGasPrice": "0x65dca90",
      "from": "0xe62ab4d111f968660c6b2188046f9b9ba53c4bae",
      "to": "0xf77c7bdf97245eb9b12e7d7c10ab6abc2aba0f6a",
      "contractAddress": null,
      "gasUsedForL1": "0x753",
      "l1BlockNumber": "0x6ac347"
    }
  ],
  "libraries": [],
  "pending": [],
  "returns": {},
  "timestamp": 1730548812,
  "chain": 421614,
  "commit": "34a11392"
}