{
  "transactions": [
    {
      "hash": "0x5c3d9250fac81a81943446a99b52641709e93cc8cf77a9b4ba3e76124ff7737e",
      "transactionType": "CALL",
      "contractName": null,
      "contractAddress": "0xf77c7bdf97245eb9b12e7d7c10ab6abc2aba0f6a",
      "function": "addDappAddr(uint256,string[])",
      "arguments": [
        "44",
        "[0x0872133516d5fe7b9b8a618aa0463ae0d776a865]"
      ],
      "transaction": {
        "from": "0xe62ab4d111f968660c6b2188046f9b9ba53c4bae",
        "to": "0xf77c7bdf97245eb9b12e7d7c10ab6abc2aba0f6a",
        "gas": "0x18ee1",
        "value": "0x0",
        "input": "0xbb03a47e000000000000000000000000000000000000000000000000000000000000002c000000000000000000000000000000000000000000000000000000000000004000000000000000000000000000000000000000000000000000000000000000010000000000000000000000000000000000000000000000000000000000000020000000000000000000000000000000000000000000000000000000000000002a30783038373231333335313664356665376239623861363138616130343633616530643737366138363500000000000000000000000000000000000000000000",
        "nonce": "0x410",
        "chainId": "0x66eee"
      },
      "additionalContracts": [],
      "isFixedGasLimit": false
    }
  ],
  "receipts": [
    {
      "status": "0x1",
      "cumulativeGasUsed": "0x12253",
      "logs": [
        {
          "address": "0xf77c7bdf97245eb9b12e7d7c10ab6abc2aba0f6a",
          "topics": [
            "0x6e806e4274e1ae2fda14f84ae0177d6248dd126572ee44f546d4645c41ee2f77",
            "0x000000000000000000000000000000000000000000000000000000000000002c"
          ],
          "data": "0x000000000000000000000000000000000000000000000000000000000000002000000000000000000000000000000000000000000000000000000000000000010000000000000000000000000000000000000000000000000000000000000020000000000000000000000000000000000000000000000000000000000000002a30783038373231333335313664356665376239623861363138616130343633616530643737366138363500000000000000000000000000000000000000000000",
          "blockHash": "0x69f15df8cb06a99cf85cf3ac293c10c8e8cc44a1e56e5b81d2c5767cb8dae868",
          "blockNumber": "0x5e3cb17",
          "transactionHash": "0x5c3d9250fac81a81943446a99b52641709e93cc8cf77a9b4ba3e76124ff7737e",
          "transactionIndex": "0x1",
          "logIndex": "0x0",
          "removed": false
        }
      ],
      "logsBloom": "0x00000000000000000000000000000000000000000000800000000040000000000000000000000000000000000000000000000000000000000000000000000000000000000000000000000000000000000000000000000000000000000000000100000001000040000000000108000000000000000000000000000000004000000000000000000000000000000000000000000000000000000000000000000000000000000000000000000000000000000000000000000000000000000000000000000000000000000000000000000000000000000000000800000000000000000000000000000000000000000000000000000000000000000000000000000000",
      "type": "0x2",
      "transactionHash": "0x5c3d9250fac81a81943446a99b52641709e93cc8cf77a9b4ba3e76124ff7737e",
      "transactionIndex": "0x1",
      "blockHash": "0x69f15df8cb06a99cf85cf3ac293c10c8e8cc44a1e56e5b81d2c5767cb8dae868",
      "blockNumber": "0x5e3cb17",
      "gasUsed": "0x12253",
      "effectiveGasPrice": "0x5f5e100",
      "from": "0xe62ab4d111f968660c6b2188046f9b9ba53c4bae",
      "to": "0xf77c7bdf97245eb9b12e7d7c10ab6abc2aba0f6a",
      "contractAddress": null,
      "gasUsedForL1": "0x33d5",
      "l1BlockNumber": "0x6c8843"
    }
  ],
  "libraries": [],
  "pending": [],
  "returns": {},
  "timestamp": 1732067133,
  "chain": 421614,
  "commit": "4b2e1f8c"
}