{
  "transactions": [
    {
      "hash": "0xf16ca23fa5b761a312df6e622e3adeb9bc9ef09c086c96efc69e3ef578e4b7b8",
      "transactionType": "CALL",
      "contractName": null,
      "contractAddress": "0xf77c7bdf97245eb9b12e7d7c10ab6abc2aba0f6a",
      "function": "addDappAddr(uint256,string[])",
      "arguments": [
        "45",
        "[0x9dc772b55e95a630031ebe431706d105af01cf03]"
      ],
      "transaction": {
        "from": "0xe62ab4d111f968660c6b2188046f9b9ba53c4bae",
        "to": "0xf77c7bdf97245eb9b12e7d7c10ab6abc2aba0f6a",
        "gas": "0x200cb",
        "value": "0x0",
        "input": "0xbb03a47e000000000000000000000000000000000000000000000000000000000000002d000000000000000000000000000000000000000000000000000000000000004000000000000000000000000000000000000000000000000000000000000000010000000000000000000000000000000000000000000000000000000000000020000000000000000000000000000000000000000000000000000000000000002a30783964633737326235356539356136333030333165626534333137303664313035616630316366303300000000000000000000000000000000000000000000",
        "nonce": "0x2eb",
        "chainId": "0x66eee"
      },
      "additionalContracts": [],
      "isFixedGasLimit": false
    }
  ],
  "receipts": [
    {
      "status": "0x1",
      "cumulativeGasUsed": "0x3c4ba",
      "logs": [
        {
          "address": "0xf77c7bdf97245eb9b12e7d7c10ab6abc2aba0f6a",
          "topics": [
            "0x6e806e4274e1ae2fda14f84ae0177d6248dd126572ee44f546d4645c41ee2f77",
            "0x000000000000000000000000000000000000000000000000000000000000002d"
          ],
          "data": "0x000000000000000000000000000000000000000000000000000000000000002000000000000000000000000000000000000000000000000000000000000000010000000000000000000000000000000000000000000000000000000000000020000000000000000000000000000000000000000000000000000000000000002a30783964633737326235356539356136333030333165626534333137303664313035616630316366303300000000000000000000000000000000000000000000",
          "blockHash": "0xdf1ee80ecac75b8228d7bedc1becd2da708e6197c97e8a15bdc6798aa799596b",
          "blockNumber": "0x5a0a47d",
          "transactionHash": "0xf16ca23fa5b761a312df6e622e3adeb9bc9ef09c086c96efc69e3ef578e4b7b8",
          "transactionIndex": "0x2",
          "logIndex": "0x2",
          "removed": false
        }
      ],
      "logsBloom": "0x00000000000000000000000000000000000000000000800000000040000000000000000000000000000000000000000000000000000000000000000400000000000000000000000000000000000000000000000000000000000000000000000100000001000040000000000008000000000000000000000000000000000000000000000000000000000000000000000000000000000000000000000000000000000000000000000000000000000000000000000000000000000010000000000000000000000000000000000000000000000000000000000000000000400000000000000000000000000000000000000000000000000000000000000000000000",
      "type": "0x2",
      "transactionHash": "0xf16ca23fa5b761a312df6e622e3adeb9bc9ef09c086c96efc69e3ef578e4b7b8",
      "transactionIndex": "0x2",
      "blockHash": "0xdf1ee80ecac75b8228d7bedc1becd2da708e6197c97e8a15bdc6798aa799596b",
      "blockNumber": "0x5a0a47d",
      "gasUsed": "0x166a9",
      "effectiveGasPrice": "0x5f5e100",
      "from": "0xe62ab4d111f968660c6b2188046f9b9ba53c4bae",
      "to": "0xf77c7bdf97245eb9b12e7d7c10ab6abc2aba0f6a",
      "contractAddress": null,
      "gasUsedForL1": "0x782b",
      "l1BlockNumber": "0x6b004b"
    }
  ],
  "libraries": [],
  "pending": [],
  "returns": {},
  "timestamp": 1730752984,
  "chain": 421614,
  "commit": "34a11392"
}