{
  "transactions": [
    {
      "hash": "0x1018200ff2a0d0e18f3030b6f41f37ee0eb9f540e10147a8fd09e944d7397c29",
      "transactionType": "CALL",
      "contractName": null,
      "contractAddress": "0xf77c7bdf97245eb9b12e7d7c10ab6abc2aba0f6a",
      "function": "addDappAddr(uint256,string[])",
      "arguments": [
        "45",
        "[0x842391b3c9103a0cfcae764a201150a08774e810]"
      ],
      "transaction": {
        "from": "0xe62ab4d111f968660c6b2188046f9b9ba53c4bae",
        "to": "0xf77c7bdf97245eb9b12e7d7c10ab6abc2aba0f6a",
        "gas": "0x146d2",
        "value": "0x0",
        "input": "0xbb03a47e000000000000000000000000000000000000000000000000000000000000002d000000000000000000000000000000000000000000000000000000000000004000000000000000000000000000000000000000000000000000000000000000010000000000000000000000000000000000000000000000000000000000000020000000000000000000000000000000000000000000000000000000000000002a30783834323339316233633931303361306366636165373634613230313135306130383737346538313000000000000000000000000000000000000000000000",
        "nonce": "0x282",
        "chainId": "0x66eee"
      },
      "additionalContracts": [],
      "isFixedGasLimit": false
    }
  ],
  "receipts": [
    {
      "status": "0x1",
      "cumulativeGasUsed": "0x1ccfb3",
      "logs": [
        {
          "address": "0xf77c7bdf97245eb9b12e7d7c10ab6abc2aba0f6a",
          "topics": [
            "0x6e806e4274e1ae2fda14f84ae0177d6248dd126572ee44f546d4645c41ee2f77",
            "0x000000000000000000000000000000000000000000000000000000000000002d"
          ],
          "data": "0x000000000000000000000000000000000000000000000000000000000000002000000000000000000000000000000000000000000000000000000000000000010000000000000000000000000000000000000000000000000000000000000020000000000000000000000000000000000000000000000000000000000000002a30783834323339316233633931303361306366636165373634613230313135306130383737346538313000000000000000000000000000000000000000000000",
          "blockHash": "0x9604c8bb3d415f096de8074bd84be938a4b4e42aa39a58d7b082dfb352ec6c79",
          "blockNumber": "0x596cab7",
          "transactionHash": "0x1018200ff2a0d0e18f3030b6f41f37ee0eb9f540e10147a8fd09e944d7397c29",
          "transactionIndex": "0x9",
          "logIndex": "0x7",
          "removed": false
        }
      ],
      "logsBloom": "0x00000000000000000000000000000000000000000000800000000040000000000000000000000000000000000000000000000000000000000000000400000000000000000000000000000000000000000000000000000000000000000000000100000001000040000000000008000000000000000000000000000000000000000000000000000000000000000000000000000000000000000000000000000000000000000000000000000000000000000000000000000000000010000000000000000000000000000000000000000000000000000000000000000000400000000000000000000000000000000000000000000000000000000000000000000000",
      "type": "0x2",
      "transactionHash": "0x1018200ff2a0d0e18f3030b6f41f37ee0eb9f540e10147a8fd09e944d7397c29",
      "transactionIndex": "0x9",
      "blockHash": "0x9604c8bb3d415f096de8074bd84be938a4b4e42aa39a58d7b082dfb352ec6c79",
      "blockNumber": "0x596cab7",
      "gasUsed": "0xf4e4",
      "effectiveGasPrice": "0x6f79990",
      "from": "0xe62ab4d111f968660c6b2188046f9b9ba53c4bae",
      "to": "0xf77c7bdf97245eb9b12e7d7c10ab6abc2aba0f6a",
      "contractAddress": null,
      "gasUsedForL1": "0x666",
      "l1BlockNumber": "0x6ac349"
    }
  ],
  "libraries": [],
  "pending": [],
  "returns": {},
  "timestamp": 1730548835,
  "chain": 421614,
  "commit": "34a11392"
}