{
  "transactions": [
    {
      "hash": "0x7f68815f4aa5f9dae9807025d479507fe1787b8670a9fcfebdab10a78f2a156b",
      "transactionType": "CALL",
      "contractName": null,
      "contractAddress": "0xf77c7bdf97245eb9b12e7d7c10ab6abc2aba0f6a",
      "function": "addDappAddr(uint256,string[])",
      "arguments": [
        "44",
        "[0x272d46ca49c87ab9e4cbd919cf35a32527d544db]"
      ],
      "transaction": {
        "from": "0xe62ab4d111f968660c6b2188046f9b9ba53c4bae",
        "to": "0xf77c7bdf97245eb9b12e7d7c10ab6abc2aba0f6a",
        "gas": "0x14f04",
        "value": "0x0",
        "input": "0xbb03a47e000000000000000000000000000000000000000000000000000000000000002c000000000000000000000000000000000000000000000000000000000000004000000000000000000000000000000000000000000000000000000000000000010000000000000000000000000000000000000000000000000000000000000020000000000000000000000000000000000000000000000000000000000000002a30783237326434366361343963383761623965346362643931396366333561333235323764353434646200000000000000000000000000000000000000000000",
        "nonce": "0x27d",
        "chainId": "0x66eee"
      },
      "additionalContracts": [],
      "isFixedGasLimit": false
    }
  ],
  "receipts": [
    {
      "status": "0x1",
      "cumulativeGasUsed": "0x2601c",
      "logs": [
        {
          "address": "0xf77c7bdf97245eb9b12e7d7c10ab6abc2aba0f6a",
          "topics": [
            "0x6e806e4274e1ae2fda14f84ae0177d6248dd126572ee44f546d4645c41ee2f77",
            "0x000000000000000000000000000000000000000000000000000000000000002c"
          ],
          "data": "0x000000000000000000000000000000000000000000000000000000000000002000000000000000000000000000000000000000000000000000000000000000010000000000000000000000000000000000000000000000000000000000000020000000000000000000000000000000000000000000000000000000000000002a30783237326434366361343963383761623965346362643931396366333561333235323764353434646200000000000000000000000000000000000000000000",
          "blockHash": "0xc80db5e83e1fdb75dbbc583918841db081665bbdce80e4735a57af26cd405fdf",
          "blockNumber": "0x596c6ff",
          "transactionHash": "0x7f68815f4aa5f9dae9807025d479507fe1787b8670a9fcfebdab10a78f2a156b",
          "transactionIndex": "0x2",
          "logIndex": "0x2",
          "removed": false
        }
      ],
      "logsBloom": "0x00000000000000000000000000000000000000000000800000000040000000000000000000000000000000000000000000000000000000000000000000000000000000000000000000000000000000000000000000000000000000000000000100000001000040000000000108000000000000000000000000000000004000000000000000000000000000000000000000000000000000000000000000000000000000000000000000000000000000000000000000000000000000000000000000000000000000000000000000000000000000000000000800000000000000000000000000000000000000000000000000000000000000000000000000000000",
      "type": "0x2",
      "transactionHash": "0x7f68815f4aa5f9dae9807025d479507fe1787b8670a9fcfebdab10a78f2a156b",
      "transactionIndex": "0x2",
      "blockHash": "0xc80db5e83e1fdb75dbbc583918841db081665bbdce80e4735a57af26cd405fdf",
      "blockNumber": "0x596c6ff",
      "gasUsed": "0xfafe",
      "effectiveGasPrice": "0x5f5e100",
      "from": "0xe62ab4d111f968660c6b2188046f9b9ba53c4bae",
      "to": "0xf77c7bdf97245eb9b12e7d7c10ab6abc2aba0f6a",
      "contractAddress": null,
      "gasUsedForL1": "0xc80",
      "l1BlockNumber": "0x6ac333"
    }
  ],
  "libraries": [],
  "pending": [],
  "returns": {},
  "timestamp": 1730548569,
  "chain": 421614,
  "commit": "34a11392"
}