{
  "transactions": [
    {
      "hash": "0xffc55f1169df1af58b213853dbe3b1b0b65cf913a5d30ae42576144cda5d1b43",
      "transactionType": "CALL",
      "contractName": null,
      "contractAddress": "0xf77c7bdf97245eb9b12e7d7c10ab6abc2aba0f6a",
      "function": "addDappAddr(uint256,string[])",
      "arguments": [
        "44",
        "[0xf84a465ce158aad1848b737a6ecabe6d253d12c2]"
      ],
      "transaction": {
        "from": "0xe62ab4d111f968660c6b2188046f9b9ba53c4bae",
        "to": "0xf77c7bdf97245eb9b12e7d7c10ab6abc2aba0f6a",
        "gas": "0x18ee1",
        "value": "0x0",
        "input": "0xbb03a47e000000000000000000000000000000000000000000000000000000000000002c000000000000000000000000000000000000000000000000000000000000004000000000000000000000000000000000000000000000000000000000000000010000000000000000000000000000000000000000000000000000000000000020000000000000000000000000000000000000000000000000000000000000002a30786638346134363563653135386161643138343862373337613665636162653664323533643132633200000000000000000000000000000000000000000000",
        "nonce": "0x40f",
        "chainId": "0x66eee"
      },
      "additionalContracts": [],
      "isFixedGasLimit": false
    }
  ],
  "receipts": [
    {
      "status": "0x1",
      "cumulativeGasUsed": "0x1212b",
      "logs": [
        {
          "address": "0xf77c7bdf97245eb9b12e7d7c10ab6abc2aba0f6a",
          "topics": [
            "0x6e806e4274e1ae2fda14f84ae0177d6248dd126572ee44f546d4645c41ee2f77",
            "0x000000000000000000000000000000000000000000000000000000000000002c"
          ],
          "data": "0x000000000000000000000000000000000000000000000000000000000000002000000000000000000000000000000000000000000000000000000000000000010000000000000000000000000000000000000000000000000000000000000020000000000000000000000000000000000000000000000000000000000000002a30786638346134363563653135386161643138343862373337613665636162653664323533643132633200000000000000000000000000000000000000000000",
          "blockHash": "0x80bce279ae2959142bd8a0ec9094bce4a4925b03df23ddfe5d4c3842e11d5b1a",
          "blockNumber": "0x5e3ca91",
          "transactionHash": "0xffc55f1169df1af58b213853dbe3b1b0b65cf913a5d30ae42576144cda5d1b43",
          "transactionIndex": "0x1",
          "logIndex": "0x0",
          "removed": false
        }
      ],
      "logsBloom": "0x00000000000000000000000000000000000000000000800000000040000000000000000000000000000000000000000000000000000000000000000000000000000000000000000000000000000000000000000000000000000000000000000100000001000040000000000108000000000000000000000000000000004000000000000000000000000000000000000000000000000000000000000000000000000000000000000000000000000000000000000000000000000000000000000000000000000000000000000000000000000000000000000800000000000000000000000000000000000000000000000000000000000000000000000000000000",
      "type": "0x2",
      "transactionHash": "0xffc55f1169df1af58b213853dbe3b1b0b65cf913a5d30ae42576144cda5d1b43",
      "transactionIndex": "0x1",
      "blockHash": "0x80bce279ae2959142bd8a0ec9094bce4a4925b03df23ddfe5d4c3842e11d5b1a",
      "blockNumber": "0x5e3ca91",
      "gasUsed": "0x1212b",
      "effectiveGasPrice": "0x5f5e100",
      "from": "0xe62ab4d111f968660c6b2188046f9b9ba53c4bae",
      "to": "0xf77c7bdf97245eb9b12e7d7c10ab6abc2aba0f6a",
      "contractAddress": null,
      "gasUsedForL1": "0x32ad",
      "l1BlockNumber": "0x6c8841"
    }
  ],
  "libraries": [],
  "pending": [],
  "returns": {},
  "timestamp": 1732067099,
  "chain": 421614,
  "commit": "4b2e1f8c"
}