{
  "transactions": [
    {
      "hash": "0xd159ab27dc53bb7c34cfd3e31fb6a04af00b8f31d58c77d39dc20c560eb8854c",
      "transactionType": "CALL",
      "contractName": null,
      "contractAddress": "0xf77c7bdf97245eb9b12e7d7c10ab6abc2aba0f6a",
      "function": "addDappAddr(uint256,string[])",
      "arguments": [
        "47",
        "[0xf97c2b87a7193b7800f50fc402e8f999bf1bf3e4]"
      ],
      "transaction": {
        "from": "0xe62ab4d111f968660c6b2188046f9b9ba53c4bae",
        "to": "0xf77c7bdf97245eb9b12e7d7c10ab6abc2aba0f6a",
        "gas": "0x18e9a",
        "value": "0x0",
        "input": "0xbb03a47e000000000000000000000000000000000000000000000000000000000000002f000000000000000000000000000000000000000000000000000000000000004000000000000000000000000000000000000000000000000000000000000000010000000000000000000000000000000000000000000000000000000000000020000000000000000000000000000000000000000000000000000000000000002a30786639376332623837613731393362373830306635306663343032653866393939626631626633653400000000000000000000000000000000000000000000",
        "nonce": "0x416",
        "chainId": "0x66eee"
      },
      "additionalContracts": [],
      "isFixedGasLimit": false
    }
  ],
  "receipts": [
    {
      "status": "0x1",
      "cumulativeGasUsed": "0x4aac4",
      "logs": [
        {
          "address": "0xf77c7bdf97245eb9b12e7d7c10ab6abc2aba0f6a",
          "topics": [
            "0x6e806e4274e1ae2fda14f84ae0177d6248dd126572ee44f546d4645c41ee2f77",
            "0x000000000000000000000000000000000000000000000000000000000000002f"
          ],
          "data": "0x000000000000000000000000000000000000000000000000000000000000002000000000000000000000000000000000000000000000000000000000000000010000000000000000000000000000000000000000000000000000000000000020000000000000000000000000000000000000000000000000000000000000002a30786639376332623837613731393362373830306635306663343032653866393939626631626633653400000000000000000000000000000000000000000000",
          "blockHash": "0x37ca8bf3abde51f5cd2efb5c34a4ded01d2110c1211913e46157a691e41bf5d9",
          "blockNumber": "0x5e3cdcd",
          "transactionHash": "0xd159ab27dc53bb7c34cfd3e31fb6a04af00b8f31d58c77d39dc20c560eb8854c",
          "transactionIndex": "0x4",
          "logIndex": "0x1",
          "removed": false
        }
      ],
      "logsBloom": "0x00000000000000000000000000000000000080000000800000000040000000000000000000000000000000000000000000000000000000000000000000000000000000000000000000000000000000000000000000000000000000000000000100000001000040000000000008000000000000000000000000000000000000000000000000000000000000000000000000000000000000000000000000000000000000000000000000000000000000000000000000000000000000000000000000000000000000000000000000000000000000000000000000000000000000000000000000000000000000000000000000000000000004000000000000080000",
      "type": "0x2",
      "transactionHash": "0xd159ab27dc53bb7c34cfd3e31fb6a04af00b8f31d58c77d39dc20c560eb8854c",
      "transactionIndex": "0x4",
      "blockHash": "0x37ca8bf3abde51f5cd2efb5c34a4ded01d2110c1211913e46157a691e41bf5d9",
      "blockNumber": "0x5e3cdcd",
      "gasUsed": "0x1218e",
      "effectiveGasPrice": "0x5f5e100",
      "from": "0xe62ab4d111f968660c6b2188046f9b9ba53c4bae",
      "to": "0xf77c7bdf97245eb9b12e7d7c10ab6abc2aba0f6a",
      "contractAddress": null,
      "gasUsedForL1": "0x3310",
      "l1BlockNumber": "0x6c8851"
    }
  ],
  "libraries": [],
  "pending": [],
  "returns": {},
  "timestamp": 1732067316,
  "chain": 421614,
  "commit": "4b2e1f8c"
}