{
  "transactions": [
    {
      "hash": "0xa3dbf9643b878f0be55a0fda1bc49cc6db028e4a1d2749ac3c6eaa3d3915f032",
      "transactionType": "CALL",
      "contractName": null,
      "contractAddress": "0xf77c7bdf97245eb9b12e7d7c10ab6abc2aba0f6a",
      "function": "addDappAddr(uint256,string[])",
      "arguments": [
        "45",
        "[0x386ed9c1a214cc8700af43f4a39df8c722176e01]"
      ],
      "transaction": {
        "from": "0xe62ab4d111f968660c6b2188046f9b9ba53c4bae",
        "to": "0xf77c7bdf97245eb9b12e7d7c10ab6abc2aba0f6a",
        "gas": "0x22431",
        "value": "0x0",
        "input": "0xbb03a47e000000000000000000000000000000000000000000000000000000000000002d000000000000000000000000000000000000000000000000000000000000004000000000000000000000000000000000000000000000000000000000000000010000000000000000000000000000000000000000000000000000000000000020000000000000000000000000000000000000000000000000000000000000002a30783338366564396331613231346363383730306166343366346133396466386337323231373665303100000000000000000000000000000000000000000000",
        "nonce": "0x3b3",
        "chainId": "0x66eee"
      },
      "additionalContracts": [],
      "isFixedGasLimit": false
    }
  ],
  "receipts": [
    {
      "status": "0x1",
      "cumulativeGasUsed": "0x37834",
      "logs": [
        {
          "address": "0xf77c7bdf97245eb9b12e7d7c10ab6abc2aba0f6a",
          "topics": [
            "0x6e806e4274e1ae2fda14f84ae0177d6248dd126572ee44f546d4645c41ee2f77",
            "0x000000000000000000000000000000000000000000000000000000000000002d"
          ],
          "data": "0x000000000000000000000000000000000000000000000000000000000000002000000000000000000000000000000000000000000000000000000000000000010000000000000000000000000000000000000000000000000000000000000020000000000000000000000000000000000000000000000000000000000000002a30783338366564396331613231346363383730306166343366346133396466386337323231373665303100000000000000000000000000000000000000000000",
          "blockHash": "0x989acf9d849aac06e04108f193d7d041881aad15f35beb9dcce8071da5c02a78",
          "blockNumber": "0x5e1da7f",
          "transactionHash": "0xa3dbf9643b878f0be55a0fda1bc49cc6db028e4a1d2749ac3c6eaa3d3915f032",
          "transactionIndex": "0x2",
          "logIndex": "0x0",
          "removed": false
        }
      ],
      "logsBloom": "0x00000000000000000000000000000000000000000000800000000040000000000000000000000000000000000000000000000000000000000000000400000000000000000000000000000000000000000000000000000000000000000000000100000001000040000000000008000000000000000000000000000000000000000000000000000000000000000000000000000000000000000000000000000000000000000000000000000000000000000000000000000000000010000000000000000000000000000000000000000000000000000000000000000000400000000000000000000000000000000000000000000000000000000000000000000000",
      "type": "0x2",
      "transactionHash": "0xa3dbf9643b878f0be55a0fda1bc49cc6db028e4a1d2749ac3c6eaa3d3915f032",
      "transactionIndex": "0x2",
      "blockHash": "0x989acf9d849aac06e04108f193d7d041881aad15f35beb9dcce8071da5c02a78",
      "blockNumber": "0x5e1da7f",
      "gasUsed": "0x17c27",
      "effectiveGasPrice": "0x5f5e100",
      "from": "0xe62ab4d111f968660c6b2188046f9b9ba53c4bae",
      "to": "0xf77c7bdf97245eb9b12e7d7c10ab6abc2aba0f6a",
      "contractAddress": null,
      "gasUsedForL1": "0x8da9",
      "l1BlockNumber": "0x6c7d85"
    }
  ],
  "libraries": [],
  "pending": [],
  "returns": {},
  "timestamp": 1732031705,
  "chain": 421614,
  "commit": "b96f5048"
}