{
  "transactions": [
    {
      "hash": "0xd10740eae6807afff426624270aed3c14ee5b1499fc2dc608cdecc314515f193",
      "transactionType": "CALL",
      "contractName": null,
      "contractAddress": "0xf77c7bdf97245eb9b12e7d7c10ab6abc2aba0f6a",
      "function": "addDappAddr(uint256,string[])",
      "arguments": [
        "44",
        "[0x1e608fd1546e1bc1382abc4e676cefb7e314fb30]"
      ],
      "transaction": {
        "from": "0xe62ab4d111f968660c6b2188046f9b9ba53c4bae",
        "to": "0xf77c7bdf97245eb9b12e7d7c10ab6abc2aba0f6a",
        "gas": "0x6a0b5",
        "value": "0x0",
        "input": "0xbb03a47e000000000000000000000000000000000000000000000000000000000000002c000000000000000000000000000000000000000000000000000000000000004000000000000000000000000000000000000000000000000000000000000000010000000000000000000000000000000000000000000000000000000000000020000000000000000000000000000000000000000000000000000000000000002a30783165363038666431353436653162633133383261626334653637366365666237653331346662333000000000000000000000000000000000000000000000",
        "nonce": "0x450",
        "chainId": "0x66eee"
      },
      "additionalContracts": [],
      "isFixedGasLimit": false
    }
  ],
  "receipts": [
    {
      "status": "0x1",
      "cumulativeGasUsed": "0x42a9c",
      "logs": [
        {
          "address": "0xf77c7bdf97245eb9b12e7d7c10ab6abc2aba0f6a",
          "topics": [
            "0x6e806e4274e1ae2fda14f84ae0177d6248dd126572ee44f546d4645c41ee2f77",
            "0x000000000000000000000000000000000000000000000000000000000000002c"
          ],
          "data": "0x000000000000000000000000000000000000000000000000000000000000002000000000000000000000000000000000000000000000000000000000000000010000000000000000000000000000000000000000000000000000000000000020000000000000000000000000000000000000000000000000000000000000002a30783165363038666431353436653162633133383261626334653637366365666237653331346662333000000000000000000000000000000000000000000000",
          "blockHash": "0xf8d60a5cc38914559b34e21fceb22f8f230d7f11580bdcaa4a204b79ae133165",
          "blockNumber": "0x5ebbfb1",
          "transactionHash": "0xd10740eae6807afff426624270aed3c14ee5b1499fc2dc608cdecc314515f193",
          "transactionIndex": "0x1",
          "logIndex": "0x0",
          "removed": false
        }
      ],
      "logsBloom": "0x00000000000000000000000000000000000000000000800000000040000000000000000000000000000000000000000000000000000000000000000000000000000000000000000000000000000000000000000000000000000000000000000100000001000040000000000108000000000000000000000000000000004000000000000000000000000000000000000000000000000000000000000000000000000000000000000000000000000000000000000000000000000000000000000000000000000000000000000000000000000000000000000800000000000000000000000000000000000000000000000000000000000000000000000000000000",
      "type": "0x2",
      "transactionHash": "0xd10740eae6807afff426624270aed3c14ee5b1499fc2dc608cdecc314515f193",
      "transactionIndex": "0x1",
      "blockHash": "0xf8d60a5cc38914559b34e21fceb22f8f230d7f11580bdcaa4a204b79ae133165",
      "blockNumber": "0x5ebbfb1",
      "gasUsed": "0x42a9c",
      "effectiveGasPrice": "0x5f5e100",
      "from": "0xe62ab4d111f968660c6b2188046f9b9ba53c4bae",
      "to": "0xf77c7bdf97245eb9b12e7d7c10ab6abc2aba0f6a",
      "contractAddress": null,
      "gasUsedForL1": "0x33c1e",
      "l1BlockNumber": "0x6cb574"
    }
  ],
  "libraries": [],
  "pending": [],
  "returns": {},
  "timestamp": 1732214427,
  "chain": 421614,
  "commit": "4b2e1f8c"
}