{
  "transactions": [
    {
      "hash": "0xa34533d1c224072c250bcf1d6fb25c6ef8ab9ce826eaf22eda8e5cf0bc8041b7",
      "transactionType": "CALL",
      "contractName": null,
      "contractAddress": "0xf77c7bdf97245eb9b12e7d7c10ab6abc2aba0f6a",
      "function": "addDappAddr(uint256,string[])",
      "arguments": [
        "47",
        "[0x8b8de69a9cbca6b7cb85406dde46116dd520d5b0]"
      ],
      "transaction": {
        "from": "0xe62ab4d111f968660c6b2188046f9b9ba53c4bae",
        "to": "0xf77c7bdf97245eb9b12e7d7c10ab6abc2aba0f6a",
        "gas": "0x13a3a",
        "value": "0x0",
        "input": "0xbb03a47e000000000000000000000000000000000000000000000000000000000000002f000000000000000000000000000000000000000000000000000000000000004000000000000000000000000000000000000000000000000000000000000000010000000000000000000000000000000000000000000000000000000000000020000000000000000000000000000000000000000000000000000000000000002a30783862386465363961396362636136623763623835343036646465343631313664643532306435623000000000000000000000000000000000000000000000",
        "nonce": "0x33a",
        "chainId": "0x66eee"
      },
      "additionalContracts": [],
      "isFixedGasLimit": false
    }
  ],
  "receipts": [
    {
      "status": "0x1",
      "cumulativeGasUsed": "0x211d5",
      "logs": [
        {
          "address": "0xf77c7bdf97245eb9b12e7d7c10ab6abc2aba0f6a",
          "topics": [
            "0x6e806e4274e1ae2fda14f84ae0177d6248dd126572ee44f546d4645c41ee2f77",
            "0x000000000000000000000000000000000000000000000000000000000000002f"
          ],
          "data": "0x000000000000000000000000000000000000000000000000000000000000002000000000000000000000000000000000000000000000000000000000000000010000000000000000000000000000000000000000000000000000000000000020000000000000000000000000000000000000000000000000000000000000002a30783862386465363961396362636136623763623835343036646465343631313664643532306435623000000000000000000000000000000000000000000000",
          "blockHash": "0x1babb18b09c71b3fc51df30fdfa8ee9baba4927d63f5a8337d97fa23a587b7dc",
          "blockNumber": "0x5b2d6cd",
          "transactionHash": "0xa34533d1c224072c250bcf1d6fb25c6ef8ab9ce826eaf22eda8e5cf0bc8041b7",
          "transactionIndex": "0x2",
          "logIndex": "0x1",
          "removed": false
        }
      ],
      "logsBloom": "0x00000000000000000000000000000000000080000000800000000040000000000000000000000000000000000000000000000000000000000000000000000000000000000000000000000000000000000000000000000000000000000000000100000001000040000000000008000000000000000000000000000000000000000000000000000000000000000000000000000000000000000000000000000000000000000000000000000000000000000000000000000000000000000000000000000000000000000000000000000000000000000000000000000000000000000000000000000000000000000000000000000000000004000000000000080000",
      "type": "0x2",
      "transactionHash": "0xa34533d1c224072c250bcf1d6fb25c6ef8ab9ce826eaf22eda8e5cf0bc8041b7",
      "transactionIndex": "0x2",
      "blockHash": "0x1babb18b09c71b3fc51df30fdfa8ee9baba4927d63f5a8337d97fa23a587b7dc",
      "blockNumber": "0x5b2d6cd",
      "gasUsed": "0xee7e",
      "effectiveGasPrice": "0x5f5e100",
      "from": "0xe62ab4d111f968660c6b2188046f9b9ba53c4bae",
      "to": "0xf77c7bdf97245eb9b12e7d7c10ab6abc2aba0f6a",
      "contractAddress": null,
      "gasUsedForL1": "0x0",
      "l1BlockNumber": "0x6b64c8"
    }
  ],
  "libraries": [],
  "pending": [],
  "returns": {},
  "timestamp": 1731094035,
  "chain": 421614,
  "commit": "ac6d4a5e"
}