{
  "transactions": [
    {
      "hash": "0x79db27695a9eb0cc14c8a9e19511414934abcb3abff2dc2717246ea767f5dec3",
      "transactionType": "CALL",
      "contractName": null,
      "contractAddress": "0xf77c7bdf97245eb9b12e7d7c10ab6abc2aba0f6a",
      "function": "addDappAddr(uint256,string[])",
      "arguments": [
        "47",
        "[0x63e754dabf952456427b9958682d58aa07f85982]"
      ],
      "transaction": {
        "from": "0xe62ab4d111f968660c6b2188046f9b9ba53c4bae",
        "to": "0xf77c7bdf97245eb9b12e7d7c10ab6abc2aba0f6a",
        "gas": "0x158e8",
        "value": "0x0",
        "input": "0xbb03a47e000000000000000000000000000000000000000000000000000000000000002f000000000000000000000000000000000000000000000000000000000000004000000000000000000000000000000000000000000000000000000000000000010000000000000000000000000000000000000000000000000000000000000020000000000000000000000000000000000000000000000000000000000000002a30783633653735346461626639353234353634323762393935383638326435386161303766383539383200000000000000000000000000000000000000000000",
        "nonce": "0x292",
        "chainId": "0x66eee"
      },
      "additionalContracts": [],
      "isFixedGasLimit": false
    }
  ],
  "receipts": [
    {
      "status": "0x1",
      "cumulativeGasUsed": "0x101d2",
      "logs": [
        {
          "address": "0xf77c7bdf97245eb9b12e7d7c10ab6abc2aba0f6a",
          "topics": [
            "0x6e806e4274e1ae2fda14f84ae0177d6248dd126572ee44f546d4645c41ee2f77",
            "0x000000000000000000000000000000000000000000000000000000000000002f"
          ],
          "data": "0x000000000000000000000000000000000000000000000000000000000000002000000000000000000000000000000000000000000000000000000000000000010000000000000000000000000000000000000000000000000000000000000020000000000000000000000000000000000000000000000000000000000000002a30783633653735346461626639353234353634323762393935383638326435386161303766383539383200000000000000000000000000000000000000000000",
          "blockHash": "0xc6e12f20ce939354f067b5133864e2ecc8d23898b39e19d203a5fba27d803540",
          "blockNumber": "0x596d560",
          "transactionHash": "0x79db27695a9eb0cc14c8a9e19511414934abcb3abff2dc2717246ea767f5dec3",
          "transactionIndex": "0x1",
          "logIndex": "0x0",
          "removed": false
        }
      ],
      "logsBloom": "0x00000000000000000000000000000000000080000000800000000040000000000000000000000000000000000000000000000000000000000000000000000000000000000000000000000000000000000000000000000000000000000000000100000001000040000000000008000000000000000000000000000000000000000000000000000000000000000000000000000000000000000000000000000000000000000000000000000000000000000000000000000000000000000000000000000000000000000000000000000000000000000000000000000000000000000000000000000000000000000000000000000000000004000000000000080000",
      "type": "0x2",
      "transactionHash": "0x79db27695a9eb0cc14c8a9e19511414934abcb3abff2dc2717246ea767f5dec3",
      "transactionIndex": "0x1",
      "blockHash": "0xc6e12f20ce939354f067b5133864e2ecc8d23898b39e19d203a5fba27d803540",
      "blockNumber": "0x596d560",
      "gasUsed": "0x101d2",
      "effectiveGasPrice": "0x5f5e100",
      "from": "0xe62ab4d111f968660c6b2188046f9b9ba53c4bae",
      "to": "0xf77c7bdf97245eb9b12e7d7c10ab6abc2aba0f6a",
      "contractAddress": null,
      "gasUsedForL1": "0x1354",
      "l1BlockNumber": "0x6ac386"
    }
  ],
  "libraries": [],
  "pending": [],
  "returns": {},
  "timestamp": 1730549602,
  "chain": 421614,
  "commit": "34a11392"
}