{
  "transactions": [
    {
      "hash": "0xd3bce3385dec90a6219dd0c9699fc841f6b9dceb38d767131b690d12fe8e2b16",
      "transactionType": "CALL",
      "contractName": null,
      "contractAddress": "0xf77c7bdf97245eb9b12e7d7c10ab6abc2aba0f6a",
      "function": "addDappAddr(uint256,string[])",
      "arguments": [
        "44",
        "[0xad2e580c931861360c998db3f0b090a5391da58e]"
      ],
      "transaction": {
        "from": "0xe62ab4d111f968660c6b2188046f9b9ba53c4bae",
        "to": "0xf77c7bdf97245eb9b12e7d7c10ab6abc2aba0f6a",
        "gas": "0x14ed0",
        "value": "0x0",
        "input": "0xbb03a47e000000000000000000000000000000000000000000000000000000000000002c000000000000000000000000000000000000000000000000000000000000004000000000000000000000000000000000000000000000000000000000000000010000000000000000000000000000000000000000000000000000000000000020000000000000000000000000000000000000000000000000000000000000002a30786164326535383063393331383631333630633939386462336630623039306135333931646135386500000000000000000000000000000000000000000000",
        "nonce": "0x27c",
        "chainId": "0x66eee"
      },
      "additionalContracts": [],
      "isFixedGasLimit": false
    }
  ],
  "receipts": [
    {
      "status": "0x1",
      "cumulativeGasUsed": "0xfb0a",
      "logs": [
        {
          "address": "0xf77c7bdf97245eb9b12e7d7c10ab6abc2aba0f6a",
          "topics": [
            "0x6e806e4274e1ae2fda14f84ae0177d6248dd126572ee44f546d4645c41ee2f77",
            "0x000000000000000000000000000000000000000000000000000000000000002c"
          ],
          "data": "0x000000000000000000000000000000000000000000000000000000000000002000000000000000000000000000000000000000000000000000000000000000010000000000000000000000000000000000000000000000000000000000000020000000000000000000000000000000000000000000000000000000000000002a30786164326535383063393331383631333630633939386462336630623039306135333931646135386500000000000000000000000000000000000000000000",
          "blockHash": "0x0505aafd69e808e87d3818b5906877fccd4b5cb0bd3606590f72a6537d7d7d96",
          "blockNumber": "0x596c40c",
          "transactionHash": "0xd3bce3385dec90a6219dd0c9699fc841f6b9dceb38d767131b690d12fe8e2b16",
          "transactionIndex": "0x1",
          "logIndex": "0x0",
          "removed": false
        }
      ],
      "logsBloom": "0x00000000000000000000000000000000000000000000800000000040000000000000000000000000000000000000000000000000000000000000000000000000000000000000000000000000000000000000000000000000000000000000000100000001000040000000000108000000000000000000000000000000004000000000000000000000000000000000000000000000000000000000000000000000000000000000000000000000000000000000000000000000000000000000000000000000000000000000000000000000000000000000000800000000000000000000000000000000000000000000000000000000000000000000000000000000",
      "type": "0x2",
      "transactionHash": "0xd3bce3385dec90a6219dd0c9699fc841f6b9dceb38d767131b690d12fe8e2b16",
      "transactionIndex": "0x1",
      "blockHash": "0x0505aafd69e808e87d3818b5906877fccd4b5cb0bd3606590f72a6537d7d7d96",
      "blockNumber": "0x596c40c",
      "gasUsed": "0xfb0a",
      "effectiveGasPrice": "0x5f5e100",
      "from": "0xe62ab4d111f968660c6b2188046f9b9ba53c4bae",
      "to": "0xf77c7bdf97245eb9b12e7d7c10ab6abc2aba0f6a",
      "contractAddress": null,
      "gasUsedForL1": "0xc8c",
      "l1BlockNumber": "0x6ac321"
    }
  ],
  "libraries": [],
  "pending": [],
  "returns": {},
  "timestamp": 1730548349,
  "chain": 421614,
  "commit": "34a11392"
}