{
  "transactions": [
    {
      "hash": "0x3c4eaa78c420266fe3ce075670c66b7f39f20fc2efb8709645eab22c4c6e9c5f",
      "transactionType": "CALL",
      "contractName": null,
      "contractAddress": "0xf77c7bdf97245eb9b12e7d7c10ab6abc2aba0f6a",
      "function": "addDappAddr(uint256,string[])",
      "arguments": [
        "46",
        "[0x70af28a024463d3efb5772adb8869470015bf076]"
      ],
      "transaction": {
        "from": "0xe62ab4d111f968660c6b2188046f9b9ba53c4bae",
        "to": "0xf77c7bdf97245eb9b12e7d7c10ab6abc2aba0f6a",
        "gas": "0x16020",
        "value": "0x0",
        "input": "0xbb03a47e000000000000000000000000000000000000000000000000000000000000002e000000000000000000000000000000000000000000000000000000000000004000000000000000000000000000000000000000000000000000000000000000010000000000000000000000000000000000000000000000000000000000000020000000000000000000000000000000000000000000000000000000000000002a30783730616632386130323434363364336566623537373261646238383639343730303135626630373600000000000000000000000000000000000000000000",
        "nonce": "0x638",
        "chainId": "0x66eee"
      },
      "additionalContracts": [],
      "isFixedGasLimit": false
    }
  ],
  "receipts": [
    {
      "status": "0x1",
      "cumulativeGasUsed": "0x8124f",
      "logs": [
        {
          "address": "0xf77c7bdf97245eb9b12e7d7c10ab6abc2aba0f6a",
          "topics": [
            "0x6e806e4274e1ae2fda14f84ae0177d6248dd126572ee44f546d4645c41ee2f77",
            "0x000000000000000000000000000000000000000000000000000000000000002e"
          ],
          "data": "0x000000000000000000000000000000000000000000000000000000000000002000000000000000000000000000000000000000000000000000000000000000010000000000000000000000000000000000000000000000000000000000000020000000000000000000000000000000000000000000000000000000000000002a30783730616632386130323434363364336566623537373261646238383639343730303135626630373600000000000000000000000000000000000000000000",
          "blockHash": "0x7e121f79f67798eed304fd9c528529fe130493c92814a495e0e3f0832fdd2531",
          "blockNumber": "0x67b6dc1",
          "transactionHash": "0x3c4eaa78c420266fe3ce075670c66b7f39f20fc2efb8709645eab22c4c6e9c5f",
          "transactionIndex": "0x2",
          "logIndex": "0x1",
          "removed": false
        }
      ],
      "logsBloom": "0x04000000000000000000000000000000000000000000800000000040000000000000000000000000000000000000000000001000000000000000000000000000000000000000000080000000000000000000000000000000000000000000000100000001000040000000000008000000000000000000000000000000000000000000000000000000000000000000000000000000000000000000000000000000000000000000000000000000000000000000000000000000000000000000000000000000000000000000000000000000000000000000000000000000000000000000000000000000000000000000000000000000000000000000000000000000",
      "type": "0x2",
      "transactionHash": "0x3c4eaa78c420266fe3ce075670c66b7f39f20fc2efb8709645eab22c4c6e9c5f",
      "transactionIndex": "0x2",
      "blockHash": "0x7e121f79f67798eed304fd9c528529fe130493c92814a495e0e3f0832fdd2531",
      "blockNumber": "0x67b6dc1",
      "gasUsed": "0x1061f",
      "effectiveGasPrice": "0x5f5e100",
      "from": "0xe62ab4d111f968660c6b2188046f9b9ba53c4bae",
      "to": "0xf77c7bdf97245eb9b12e7d7c10ab6abc2aba0f6a",
      "contractAddress": null,
      "gasUsedForL1": "0x17a1",
      "l1BlockNumber": "0x6f9dbb"
    }
  ],
  "libraries": [],
  "pending": [],
  "returns": {},
  "timestamp": 1734658339,
  "chain": 421614,
  "commit": "2746b202"
}