{
  "transactions": [
    {
      "hash": "0x74ecd679e24d4f57ab1cc22650d209a8c7a84a0386d844d8911ae9c66e25fc40",
      "transactionType": "CALL",
      "contractName": null,
      "contractAddress": "0xf77c7bdf97245eb9b12e7d7c10ab6abc2aba0f6a",
      "function": "addDappAddr(uint256,string[])",
      "arguments": [
        "47",
        "[0x7478600f35ccb2421e9dadc84954290adeca1196]"
      ],
      "transaction": {
        "from": "0xe62ab4d111f968660c6b2188046f9b9ba53c4bae",
        "to": "0xf77c7bdf97245eb9b12e7d7c10ab6abc2aba0f6a",
        "gas": "0x15900",
        "value": "0x0",
        "input": "0xbb03a47e000000000000000000000000000000000000000000000000000000000000002f000000000000000000000000000000000000000000000000000000000000004000000000000000000000000000000000000000000000000000000000000000010000000000000000000000000000000000000000000000000000000000000020000000000000000000000000000000000000000000000000000000000000002a30783734373836303066333563636232343231653964616463383439353432393061646563613131393600000000000000000000000000000000000000000000",
        "nonce": "0x294",
        "chainId": "0x66eee"
      },
      "additionalContracts": [],
      "isFixedGasLimit": false
    }
  ],
  "receipts": [
    {
      "status": "0x1",
      "cumulativeGasUsed": "0x100e8",
      "logs": [
        {
          "address": "0xf77c7bdf97245eb9b12e7d7c10ab6abc2aba0f6a",
          "topics": [
            "0x6e806e4274e1ae2fda14f84ae0177d6248dd126572ee44f546d4645c41ee2f77",
            "0x000000000000000000000000000000000000000000000000000000000000002f"
          ],
          "data": "0x000000000000000000000000000000000000000000000000000000000000002000000000000000000000000000000000000000000000000000000000000000010000000000000000000000000000000000000000000000000000000000000020000000000000000000000000000000000000000000000000000000000000002a30783734373836303066333563636232343231653964616463383439353432393061646563613131393600000000000000000000000000000000000000000000",
          "blockHash": "0xa872abcafb052a1b43e025ecc836b790cb81fd8cf84cb3bc4b156b1ca5f86f86",
          "blockNumber": "0x596d73c",
          "transactionHash": "0x74ecd679e24d4f57ab1cc22650d209a8c7a84a0386d844d8911ae9c66e25fc40",
          "transactionIndex": "0x1",
          "logIndex": "0x0",
          "removed": false
        }
      ],
      "logsBloom": "0x00000000000000000000000000000000000080000000800000000040000000000000000000000000000000000000000000000000000000000000000000000000000000000000000000000000000000000000000000000000000000000000000100000001000040000000000008000000000000000000000000000000000000000000000000000000000000000000000000000000000000000000000000000000000000000000000000000000000000000000000000000000000000000000000000000000000000000000000000000000000000000000000000000000000000000000000000000000000000000000000000000000000004000000000000080000",
      "type": "0x2",
      "transactionHash": "0x74ecd679e24d4f57ab1cc22650d209a8c7a84a0386d844d8911ae9c66e25fc40",
      "transactionIndex": "0x1",
      "blockHash": "0xa872abcafb052a1b43e025ecc836b790cb81fd8cf84cb3bc4b156b1ca5f86f86",
      "blockNumber": "0x596d73c",
      "gasUsed": "0x100e8",
      "effectiveGasPrice": "0x5f5e100",
      "from": "0xe62ab4d111f968660c6b2188046f9b9ba53c4bae",
      "to": "0xf77c7bdf97245eb9b12e7d7c10ab6abc2aba0f6a",
      "contractAddress": null,
      "gasUsedForL1": "0x126a",
      "l1BlockNumber": "0x6ac391"
    }
  ],
  "libraries": [],
  "pending": [],
  "returns": {},
  "timestamp": 1730549739,
  "chain": 421614,
  "commit": "34a11392"
}