{
  "transactions": [
    {
      "hash": "0xec7dd27b6454cf79c6db96dc89c0db722447595afd21a3a34a0640edb5ef0e18",
      "transactionType": "CALL",
      "contractName": null,
      "contractAddress": "0xf77c7bdf97245eb9b12e7d7c10ab6abc2aba0f6a",
      "function": "addDappAddr(uint256,string[])",
      "arguments": [
        "48",
        "[0xad77409a722056b0d41b5ce2f03a6b7a2b18e3ed]"
      ],
      "transaction": {
        "from": "0xe62ab4d111f968660c6b2188046f9b9ba53c4bae",
        "to": "0xf77c7bdf97245eb9b12e7d7c10ab6abc2aba0f6a",
        "gas": "0x13a3a",
        "value": "0x0",
        "input": "0xbb03a47e0000000000000000000000000000000000000000000000000000000000000030000000000000000000000000000000000000000000000000000000000000004000000000000000000000000000000000000000000000000000000000000000010000000000000000000000000000000000000000000000000000000000000020000000000000000000000000000000000000000000000000000000000000002a30786164373734303961373232303536623064343162356365326630336136623761326231386533656400000000000000000000000000000000000000000000",
        "nonce": "0x5b2",
        "chainId": "0x66eee"
      },
      "additionalContracts": [],
      "isFixedGasLimit": false
    }
  ],
  "receipts": [
    {
      "status": "0x1",
      "cumulativeGasUsed": "0xee7e",
      "logs": [
        {
          "address": "0xf77c7bdf97245eb9b12e7d7c10ab6abc2aba0f6a",
          "topics": [
            "0x6e806e4274e1ae2fda14f84ae0177d6248dd126572ee44f546d4645c41ee2f77",
            "0x0000000000000000000000000000000000000000000000000000000000000030"
          ],
          "data": "0x000000000000000000000000000000000000000000000000000000000000002000000000000000000000000000000000000000000000000000000000000000010000000000000000000000000000000000000000000000000000000000000020000000000000000000000000000000000000000000000000000000000000002a30786164373734303961373232303536623064343162356365326630336136623761326231386533656400000000000000000000000000000000000000000000",
          "blockHash": "0x7f9effc1c2dd50461feb0547297c665670c6ac6765cd5744c1914e4d75e070a4",
          "blockNumber": "0x631213c",
          "transactionHash": "0xec7dd27b6454cf79c6db96dc89c0db722447595afd21a3a34a0640edb5ef0e18",
          "transactionIndex": "0x1",
          "logIndex": "0x0",
          "removed": false
        }
      ],
      "logsBloom": "0x02000000000000000000000000000000000000000000800000000040000000000000000000000000000000000000000000000000000000000000000000000000000000000000000000000000000000000000000000000000000000000000000100000001000040000000000008000000000000000000000000000000000000000000000000000000000000000000000000000000000000000000000000000000000000000000000000000000000000000000000002000000000000000000000000000000000000000000000000000000000000000000000000000000000020000000000000000000000000000000000000000000000000000000000000000000",
      "type": "0x2",
      "transactionHash": "0xec7dd27b6454cf79c6db96dc89c0db722447595afd21a3a34a0640edb5ef0e18",
      "transactionIndex": "0x1",
      "blockHash": "0x7f9effc1c2dd50461feb0547297c665670c6ac6765cd5744c1914e4d75e070a4",
      "blockNumber": "0x631213c",
      "gasUsed": "0xee7e",
      "effectiveGasPrice": "0x5f5e100",
      "from": "0xe62ab4d111f968660c6b2188046f9b9ba53c4bae",
      "to": "0xf77c7bdf97245eb9b12e7d7c10ab6abc2aba0f6a",
      "contractAddress": null,
      "gasUsedForL1": "0x0",
      "l1BlockNumber": "0x6e2762"
    }
  ],
  "libraries": [],
  "pending": [],
  "returns": {},
  "timestamp": 1733435720,
  "chain": 421614,
  "commit": "d684feb7"
}