{
  "transactions": [
    {
      "hash": "0x07495f17cc19aa587989c5bdd488c4faa1bfe06585e82eaacc5e3e0b65e4f11f",
      "transactionType": "CALL",
      "contractName": null,
      "contractAddress": "0xf77c7bdf97245eb9b12e7d7c10ab6abc2aba0f6a",
      "function": "addDappAddr(uint256,string[])",
      "arguments": [
        "47",
        "[0xfdd1a5b3aeea2df15a6f6b502784b61bdcbf66bc]"
      ],
      "transaction": {
        "from": "0xe62ab4d111f968660c6b2188046f9b9ba53c4bae",
        "to": "0xf77c7bdf97245eb9b12e7d7c10ab6abc2aba0f6a",
        "gas": "0x697b3",
        "value": "0x0",
        "input": "0xbb03a47e000000000000000000000000000000000000000000000000000000000000002f000000000000000000000000000000000000000000000000000000000000004000000000000000000000000000000000000000000000000000000000000000010000000000000000000000000000000000000000000000000000000000000020000000000000000000000000000000000000000000000000000000000000002a30786664643161356233616565613264663135613666366235303237383462363162646362663636626300000000000000000000000000000000000000000000",
        "nonce": "0x457",
        "chainId": "0x66eee"
      },
      "additionalContracts": [],
      "isFixedGasLimit": false
    }
  ],
  "receipts": [
    {
      "status": "0x1",
      "cumulativeGasUsed": "0x42dbc",
      "logs": [
        {
          "address": "0xf77c7bdf97245eb9b12e7d7c10ab6abc2aba0f6a",
          "topics": [
            "0x6e806e4274e1ae2fda14f84ae0177d6248dd126572ee44f546d4645c41ee2f77",
            "0x000000000000000000000000000000000000000000000000000000000000002f"
          ],
          "data": "0x000000000000000000000000000000000000000000000000000000000000002000000000000000000000000000000000000000000000000000000000000000010000000000000000000000000000000000000000000000000000000000000020000000000000000000000000000000000000000000000000000000000000002a30786664643161356233616565613264663135613666366235303237383462363162646362663636626300000000000000000000000000000000000000000000",
          "blockHash": "0x29876c8020a1e81cff11622fca334dd181bec4aac3a7e7d8de76812c1b41025f",
          "blockNumber": "0x5ebc246",
          "transactionHash": "0x07495f17cc19aa587989c5bdd488c4faa1bfe06585e82eaacc5e3e0b65e4f11f",
          "transactionIndex": "0x1",
          "logIndex": "0x0",
          "removed": false
        }
      ],
      "logsBloom": "0x00000000000000000000000000000000000080000000800000000040000000000000000000000000000000000000000000000000000000000000000000000000000000000000000000000000000000000000000000000000000000000000000100000001000040000000000008000000000000000000000000000000000000000000000000000000000000000000000000000000000000000000000000000000000000000000000000000000000000000000000000000000000000000000000000000000000000000000000000000000000000000000000000000000000000000000000000000000000000000000000000000000000004000000000000080000",
      "type": "0x2",
      "transactionHash": "0x07495f17cc19aa587989c5bdd488c4faa1bfe06585e82eaacc5e3e0b65e4f11f",
      "transactionIndex": "0x1",
      "blockHash": "0x29876c8020a1e81cff11622fca334dd181bec4aac3a7e7d8de76812c1b41025f",
      "blockNumber": "0x5ebc246",
      "gasUsed": "0x42dbc",
      "effectiveGasPrice": "0x5f5e100",
      "from": "0xe62ab4d111f968660c6b2188046f9b9ba53c4bae",
      "to": "0xf77c7bdf97245eb9b12e7d7c10ab6abc2aba0f6a",
      "contractAddress": null,
      "gasUsedForL1": "0x33f3e",
      "l1BlockNumber": "0x6cb583"
    }
  ],
  "libraries": [],
  "pending": [],
  "returns": {},
  "timestamp": 1732214611,
  "chain": 421614,
  "commit": "4b2e1f8c"
}