{
  "transactions": [
    {
      "hash": "0xf65e911c81070b1891961ded189dd3770411bc4f65eb5c8b17e527c185c46bf7",
      "transactionType": "CALL",
      "contractName": null,
      "contractAddress": "0xf77c7bdf97245eb9b12e7d7c10ab6abc2aba0f6a",
      "function": "addDappAddr(uint256,string[])",
      "arguments": [
        "45",
        "[0x2be0c4ac75784737d4d0e75c4026d4bc671b938e]"
      ],
      "transaction": {
        "from": "0xe62ab4d111f968660c6b2188046f9b9ba53c4bae",
        "to": "0xf77c7bdf97245eb9b12e7d7c10ab6abc2aba0f6a",
        "gas": "0x13a3a",
        "value": "0x0",
        "input": "0xbb03a47e000000000000000000000000000000000000000000000000000000000000002d000000000000000000000000000000000000000000000000000000000000004000000000000000000000000000000000000000000000000000000000000000010000000000000000000000000000000000000000000000000000000000000020000000000000000000000000000000000000000000000000000000000000002a30783262653063346163373537383437333764346430653735633430323664346263363731623933386500000000000000000000000000000000000000000000",
        "nonce": "0x337",
        "chainId": "0x66eee"
      },
      "additionalContracts": [],
      "isFixedGasLimit": false
    }
  ],
  "receipts": [
    {
      "status": "0x1",
      "cumulativeGasUsed": "0xee7e",
      "logs": [
        {
          "address": "0xf77c7bdf97245eb9b12e7d7c10ab6abc2aba0f6a",
          "topics": [
            "0x6e806e4274e1ae2fda14f84ae0177d6248dd126572ee44f546d4645c41ee2f77",
            "0x000000000000000000000000000000000000000000000000000000000000002d"
          ],
          "data": "0x000000000000000000000000000000000000000000000000000000000000002000000000000000000000000000000000000000000000000000000000000000010000000000000000000000000000000000000000000000000000000000000020000000000000000000000000000000000000000000000000000000000000002a30783262653063346163373537383437333764346430653735633430323664346263363731623933386500000000000000000000000000000000000000000000",
          "blockHash": "0xc205ed578d9e840cdde08fc1f9d8f0feada207355c66d5b56dece7d7c474f93a",
          "blockNumber": "0x5b2d5a8",
          "transactionHash": "0xf65e911c81070b1891961ded189dd3770411bc4f65eb5c8b17e527c185c46bf7",
          "transactionIndex": "0x1",
          "logIndex": "0x0",
          "removed": false
        }
      ],
      "logsBloom": "0x00000000000000000000000000000000000000000000800000000040000000000000000000000000000000000000000000000000000000000000000400000000000000000000000000000000000000000000000000000000000000000000000100000001000040000000000008000000000000000000000000000000000000000000000000000000000000000000000000000000000000000000000000000000000000000000000000000000000000000000000000000000000010000000000000000000000000000000000000000000000000000000000000000000400000000000000000000000000000000000000000000000000000000000000000000000",
      "type": "0x2",
      "transactionHash": "0xf65e911c81070b1891961ded189dd3770411bc4f65eb5c8b17e527c185c46bf7",
      "transactionIndex": "0x1",
      "blockHash": "0xc205ed578d9e840cdde08fc1f9d8f0feada207355c66d5b56dece7d7c474f93a",
      "blockNumber": "0x5b2d5a8",
      "gasUsed": "0xee7e",
      "effectiveGasPrice": "0x5f5e100",
      "from": "0xe62ab4d111f968660c6b2188046f9b9ba53c4bae",
      "to": "0xf77c7bdf97245eb9b12e7d7c10ab6abc2aba0f6a",
      "contractAddress": null,
      "gasUsedForL1": "0x0",
      "l1BlockNumber": "0x6b64c4"
    }
  ],
  "libraries": [],
  "pending": [],
  "returns": {},
  "timestamp": 1731093960,
  "chain": 421614,
  "commit": "ac6d4a5e"
}