{
  "transactions": [
    {
      "hash": "0xb3ade9806623a2fa57d5b9826b6b6fa955009df757fdcb48da86370c8115a41d",
      "transactionType": "CALL",
      "contractName": null,
      "contractAddress": "0xf77c7bdf97245eb9b12e7d7c10ab6abc2aba0f6a",
      "function": "addDappAddr(uint256,string[])",
      "arguments": [
        "45",
        "[0xcd1f6cb9977db3187ec00bcfaa99d5f808537be8]"
      ],
      "transaction": {
        "from": "0xe62ab4d111f968660c6b2188046f9b9ba53c4bae",
        "to": "0xf77c7bdf97245eb9b12e7d7c10ab6abc2aba0f6a",
        "gas": "0x13ca2",
        "value": "0x0",
        "input": "0xbb03a47e000000000000000000000000000000000000000000000000000000000000002d000000000000000000000000000000000000000000000000000000000000004000000000000000000000000000000000000000000000000000000000000000010000000000000000000000000000000000000000000000000000000000000020000000000000000000000000000000000000000000000000000000000000002a30786364316636636239393737646233313837656330306263666161393964356638303835333762653800000000000000000000000000000000000000000000",
        "nonce": "0x393",
        "chainId": "0x66eee"
      },
      "additionalContracts": [],
      "isFixedGasLimit": false
    }
  ],
  "receipts": [
    {
      "status": "0x1",
      "cumulativeGasUsed": "0x1da9a6",
      "logs": [
        {
          "address": "0xf77c7bdf97245eb9b12e7d7c10ab6abc2aba0f6a",
          "topics": [
            "0x6e806e4274e1ae2fda14f84ae0177d6248dd126572ee44f546d4645c41ee2f77",
            "0x000000000000000000000000000000000000000000000000000000000000002d"
          ],
          "data": "0x000000000000000000000000000000000000000000000000000000000000002000000000000000000000000000000000000000000000000000000000000000010000000000000000000000000000000000000000000000000000000000000020000000000000000000000000000000000000000000000000000000000000002a30786364316636636239393737646233313837656330306263666161393964356638303835333762653800000000000000000000000000000000000000000000",
          "blockHash": "0x4f34ed7499421581eb5e34d29f5cca0981ef533f0ebbdc17b9059c382ed06143",
          "blockNumber": "0x5d98b3f",
          "transactionHash": "0xb3ade9806623a2fa57d5b9826b6b6fa955009df757fdcb48da86370c8115a41d",
          "transactionIndex": "0x9",
          "logIndex": "0x9",
          "removed": false
        }
      ],
      "logsBloom": "0x00000000000000000000000000000000000000000000800000000040000000000000000000000000000000000000000000000000000000000000000400000000000000000000000000000000000000000000000000000000000000000000000100000001000040000000000008000000000000000000000000000000000000000000000000000000000000000000000000000000000000000000000000000000000000000000000000000000000000000000000000000000000010000000000000000000000000000000000000000000000000000000000000000000400000000000000000000000000000000000000000000000000000000000000000000000",
      "type": "0x2",
      "transactionHash": "0xb3ade9806623a2fa57d5b9826b6b6fa955009df757fdcb48da86370c8115a41d",
      "transactionIndex": "0x9",
      "blockHash": "0x4f34ed7499421581eb5e34d29f5cca0981ef533f0ebbdc17b9059c382ed06143",
      "blockNumber": "0x5d98b3f",
      "gasUsed": "0xefcc",
      "effectiveGasPrice": "0x6b53960",
      "from": "0xe62ab4d111f968660c6b2188046f9b9ba53c4bae",
      "to": "0xf77c7bdf97245eb9b12e7d7c10ab6abc2aba0f6a",
      "contractAddress": null,
      "gasUsedForL1": "0x14e",
      "l1BlockNumber": "0x6c46ab"
    }
  ],
  "libraries": [],
  "pending": [],
  "returns": {},
  "timestamp": 1731852320,
  "chain": 421614,
  "commit": "b96f5048"
}