{
  "transactions": [
    {
      "hash": "0x904f0a70b610fe2e67d4cb508b81abb6b069183d7ccceab9aacd8c6160705060",
      "transactionType": "CALL",
      "contractName": null,
      "contractAddress": "0xf77c7bdf97245eb9b12e7d7c10ab6abc2aba0f6a",
      "function": "addDappAddr(uint256,string[])",
      "arguments": [
        "47",
        "[0x25903bea74d4fbe43b7d30703d2a740841dfb7b2]"
      ],
      "transaction": {
        "from": "0xe62ab4d111f968660c6b2188046f9b9ba53c4bae",
        "to": "0xf77c7bdf97245eb9b12e7d7c10ab6abc2aba0f6a",
        "gas": "0x146a5",
        "value": "0x0",
        "input": "0xbb03a47e000000000000000000000000000000000000000000000000000000000000002f000000000000000000000000000000000000000000000000000000000000004000000000000000000000000000000000000000000000000000000000000000010000000000000000000000000000000000000000000000000000000000000020000000000000000000000000000000000000000000000000000000000000002a30783235393033626561373464346662653433623764333037303364326137343038343164666237623200000000000000000000000000000000000000000000",
        "nonce": "0x28e",
        "chainId": "0x66eee"
      },
      "additionalContracts": [],
      "isFixedGasLimit": false
    }
  ],
  "receipts": [
    {
      "status": "0x1",
      "cumulativeGasUsed": "0xf63b",
      "logs": [
        {
          "address": "0xf77c7bdf97245eb9b12e7d7c10ab6abc2aba0f6a",
          "topics": [
            "0x6e806e4274e1ae2fda14f84ae0177d6248dd126572ee44f546d4645c41ee2f77",
            "0x000000000000000000000000000000000000000000000000000000000000002f"
          ],
          "data": "0x000000000000000000000000000000000000000000000000000000000000002000000000000000000000000000000000000000000000000000000000000000010000000000000000000000000000000000000000000000000000000000000020000000000000000000000000000000000000000000000000000000000000002a30783235393033626561373464346662653433623764333037303364326137343038343164666237623200000000000000000000000000000000000000000000",
          "blockHash": "0x0b2b37f2a64694d7fae32d5ba9e1fd38c0ab5b93d050bde800d6a1f2d75975aa",
          "blockNumber": "0x596d227",
          "transactionHash": "0x904f0a70b610fe2e67d4cb508b81abb6b069183d7ccceab9aacd8c6160705060",
          "transactionIndex": "0x1",
          "logIndex": "0x0",
          "removed": false
        }
      ],
      "logsBloom": "0x00000000000000000000000000000000000080000000800000000040000000000000000000000000000000000000000000000000000000000000000000000000000000000000000000000000000000000000000000000000000000000000000100000001000040000000000008000000000000000000000000000000000000000000000000000000000000000000000000000000000000000000000000000000000000000000000000000000000000000000000000000000000000000000000000000000000000000000000000000000000000000000000000000000000000000000000000000000000000000000000000000000000004000000000000080000",
      "type": "0x2",
      "transactionHash": "0x904f0a70b610fe2e67d4cb508b81abb6b069183d7ccceab9aacd8c6160705060",
      "transactionIndex": "0x1",
      "blockHash": "0x0b2b37f2a64694d7fae32d5ba9e1fd38c0ab5b93d050bde800d6a1f2d75975aa",
      "blockNumber": "0x596d227",
      "gasUsed": "0xf63b",
      "effectiveGasPrice": "0x5f5e100",
      "from": "0xe62ab4d111f968660c6b2188046f9b9ba53c4bae",
      "to": "0xf77c7bdf97245eb9b12e7d7c10ab6abc2aba0f6a",
      "contractAddress": null,
      "gasUsedForL1": "0x7bd",
      "l1BlockNumber": "0x6ac374"
    }
  ],
  "libraries": [],
  "pending": [],
  "returns": {},
  "timestamp": 1730549368,
  "chain": 421614,
  "commit": "34a11392"
}