{
  "transactions": [
    {
      "hash": "0xf383972dde29bdc603c33b64b6d7d765b2068a83b970d25ff76174d878145fc9",
      "transactionType": "CALL",
      "contractName": null,
      "contractAddress": "0xf77c7bdf97245eb9b12e7d7c10ab6abc2aba0f6a",
      "function": "addDappAddr(uint256,string[])",
      "arguments": [
        "45",
        "[0x7dabce18c66b5c857355a815b6c1e926c701c23f]"
      ],
      "transaction": {
        "from": "0xe62ab4d111f968660c6b2188046f9b9ba53c4bae",
        "to": "0xf77c7bdf97245eb9b12e7d7c10ab6abc2aba0f6a",
        "gas": "0x146d2",
        "value": "0x0",
        "input": "0xbb03a47e000000000000000000000000000000000000000000000000000000000000002d000000000000000000000000000000000000000000000000000000000000004000000000000000000000000000000000000000000000000000000000000000010000000000000000000000000000000000000000000000000000000000000020000000000000000000000000000000000000000000000000000000000000002a30783764616263653138633636623563383537333535613831356236633165393236633730316332336600000000000000000000000000000000000000000000",
        "nonce": "0x283",
        "chainId": "0x66eee"
      },
      "additionalContracts": [],
      "isFixedGasLimit": false
    }
  ],
  "receipts": [
    {
      "status": "0x1",
      "cumulativeGasUsed": "0xf5af",
      "logs": [
        {
          "address": "0xf77c7bdf97245eb9b12e7d7c10ab6abc2aba0f6a",
          "topics": [
            "0x6e806e4274e1ae2fda14f84ae0177d6248dd126572ee44f546d4645c41ee2f77",
            "0x000000000000000000000000000000000000000000000000000000000000002d"
          ],
          "data": "0x000000000000000000000000000000000000000000000000000000000000002000000000000000000000000000000000000000000000000000000000000000010000000000000000000000000000000000000000000000000000000000000020000000000000000000000000000000000000000000000000000000000000002a30783764616263653138633636623563383537333535613831356236633165393236633730316332336600000000000000000000000000000000000000000000",
          "blockHash": "0x5ff9dbf3b4d11dc756342b52b7fc196e4c31a9b5b2c2f5f6ecd087fa4a5b0429",
          "blockNumber": "0x596cb11",
          "transactionHash": "0xf383972dde29bdc603c33b64b6d7d765b2068a83b970d25ff76174d878145fc9",
          "transactionIndex": "0x1",
          "logIndex": "0x0",
          "removed": false
        }
      ],
      "logsBloom": "0x00000000000000000000000000000000000000000000800000000040000000000000000000000000000000000000000000000000000000000000000400000000000000000000000000000000000000000000000000000000000000000000000100000001000040000000000008000000000000000000000000000000000000000000000000000000000000000000000000000000000000000000000000000000000000000000000000000000000000000000000000000000000010000000000000000000000000000000000000000000000000000000000000000000400000000000000000000000000000000000000000000000000000000000000000000000",
      "type": "0x2",
      "transactionHash": "0xf383972dde29bdc603c33b64b6d7d765b2068a83b970d25ff76174d878145fc9",
      "transactionIndex": "0x1",
      "blockHash": "0x5ff9dbf3b4d11dc756342b52b7fc196e4c31a9b5b2c2f5f6ecd087fa4a5b0429",
      "blockNumber": "0x596cb11",
      "gasUsed": "0xf5af",
      "effectiveGasPrice": "0x67b8bc0",
      "from": "0xe62ab4d111f968660c6b2188046f9b9ba53c4bae",
      "to": "0xf77c7bdf97245eb9b12e7d7c10ab6abc2aba0f6a",
      "contractAddress": null,
      "gasUsedForL1": "0x731",
      "l1BlockNumber": "0x6ac34a"
    }
  ],
  "libraries": [],
  "pending": [],
  "returns": {},
  "timestamp": 1730548858,
  "chain": 421614,
  "commit": "34a11392"
}