{
  "transactions": [
    {
      "hash": "0xd0bc7d5cc85a0002023dafcfff686d3575b67648192f5bdf4ea6eb023bf13375",
      "transactionType": "CALL",
      "contractName": null,
      "contractAddress": "0xf77c7bdf97245eb9b12e7d7c10ab6abc2aba0f6a",
      "function": "addDappAddr(uint256,string[])",
      "arguments": [
        "45",
        "[0x5fd3ef94668d7f5b6a439a9e2c662960115658c7]"
      ],
      "transaction": {
        "from": "0xe62ab4d111f968660c6b2188046f9b9ba53c4bae",
        "to": "0xf77c7bdf97245eb9b12e7d7c10ab6abc2aba0f6a",
        "gas": "0x146af",
        "value": "0x0",
        "input": "0xbb03a47e000000000000000000000000000000000000000000000000000000000000002d000000000000000000000000000000000000000000000000000000000000004000000000000000000000000000000000000000000000000000000000000000010000000000000000000000000000000000000000000000000000000000000020000000000000000000000000000000000000000000000000000000000000002a30783566643365663934363638643766356236613433396139653263363632393630313135363538633700000000000000000000000000000000000000000000",
        "nonce": "0x288",
        "chainId": "0x66eee"
      },
      "additionalContracts": [],
      "isFixedGasLimit": false
    }
  ],
  "receipts": [
    {
      "status": "0x1",
      "cumulativeGasUsed": "0x14b4b",
      "logs": [
        {
          "address": "0xf77c7bdf97245eb9b12e7d7c10ab6abc2aba0f6a",
          "topics": [
            "0x6e806e4274e1ae2fda14f84ae0177d6248dd126572ee44f546d4645c41ee2f77",
            "0x000000000000000000000000000000000000000000000000000000000000002d"
          ],
          "data": "0x000000000000000000000000000000000000000000000000000000000000002000000000000000000000000000000000000000000000000000000000000000010000000000000000000000000000000000000000000000000000000000000020000000000000000000000000000000000000000000000000000000000000002a30783566643365663934363638643766356236613433396139653263363632393630313135363538633700000000000000000000000000000000000000000000",
          "blockHash": "0xd6ccac81f9af31b2ef4e2e3e11bf0400c397f5ccda50d1ecee9752078c93c304",
          "blockNumber": "0x596cfcf",
          "transactionHash": "0xd0bc7d5cc85a0002023dafcfff686d3575b67648192f5bdf4ea6eb023bf13375",
          "transactionIndex": "0x2",
          "logIndex": "0x0",
          "removed": false
        }
      ],
      "logsBloom": "0x00000000000000000000000000000000000000000000800000000040000000000000000000000000000000000000000000000000000000000000000400000000000000000000000000000000000000000000000000000000000000000000000100000001000040000000000008000000000000000000000000000000000000000000000000000000000000000000000000000000000000000000000000000000000000000000000000000000000000000000000000000000000010000000000000000000000000000000000000000000000000000000000000000000400000000000000000000000000000000000000000000000000000000000000000000000",
      "type": "0x2",
      "transactionHash": "0xd0bc7d5cc85a0002023dafcfff686d3575b67648192f5bdf4ea6eb023bf13375",
      "transactionIndex": "0x2",
      "blockHash": "0xd6ccac81f9af31b2ef4e2e3e11bf0400c397f5ccda50d1ecee9752078c93c304",
      "blockNumber": "0x596cfcf",
      "gasUsed": "0xf5fa",
      "effectiveGasPrice": "0x5f5e100",
      "from": "0xe62ab4d111f968660c6b2188046f9b9ba53c4bae",
      "to": "0xf77c7bdf97245eb9b12e7d7c10ab6abc2aba0f6a",
      "contractAddress": null,
      "gasUsedForL1": "0x77c",
      "l1BlockNumber": "0x6ac366"
    }
  ],
  "libraries": [],
  "pending": [],
  "returns": {},
  "timestamp": 1730549198,
  "chain": 421614,
  "commit": "34a11392"
}