{
  "transactions": [
    {
      "hash": "0x2a138990c51b048b0b5b64b8705a684e7f7904c6762ba10f046f92eec62d4fa5",
      "transactionType": "CALL",
      "contractName": null,
      "contractAddress": "0xf77c7bdf97245eb9b12e7d7c10ab6abc2aba0f6a",
      "function": "addDappAddr(uint256,string[])",
      "arguments": [
        "48",
        "[0x8393181277c8a85ec0468b3f1ee61bbfd78e62b4]"
      ],
      "transaction": {
        "from": "0xe62ab4d111f968660c6b2188046f9b9ba53c4bae",
        "to": "0xf77c7bdf97245eb9b12e7d7c10ab6abc2aba0f6a",
        "gas": "0xa1e57",
        "value": "0x0",
        "input": "0xbb03a47e0000000000000000000000000000000000000000000000000000000000000030000000000000000000000000000000000000000000000000000000000000004000000000000000000000000000000000000000000000000000000000000000010000000000000000000000000000000000000000000000000000000000000020000000000000000000000000000000000000000000000000000000000000002a30783833393331383132373763386138356563303436386233663165653631626266643738653632623400000000000000000000000000000000000000000000",
        "nonce": "0x7f3",
        "chainId": "0x66eee"
      },
      "additionalContracts": [],
      "isFixedGasLimit": false
    }
  ],
  "receipts": [
    {
      "status": "0x1",
      "cumulativeGasUsed": "0xab86d",
      "logs": [
        {
          "address": "0xf77c7bdf97245eb9b12e7d7c10ab6abc2aba0f6a",
          "topics": [
            "0x6e806e4274e1ae2fda14f84ae0177d6248dd126572ee44f546d4645c41ee2f77",
            "0x0000000000000000000000000000000000000000000000000000000000000030"
          ],
          "data": "0x000000000000000000000000000000000000000000000000000000000000002000000000000000000000000000000000000000000000000000000000000000010000000000000000000000000000000000000000000000000000000000000020000000000000000000000000000000000000000000000000000000000000002a30783833393331383132373763386138356563303436386233663165653631626266643738653632623400000000000000000000000000000000000000000000",
          "blockHash": "0x9d277dde0c4003dc0df11c82c8a17a090d849edc0525968c28d68c2852060038",
          "blockNumber": "0x79134d0",
          "transactionHash": "0x2a138990c51b048b0b5b64b8705a684e7f7904c6762ba10f046f92eec62d4fa5",
          "transactionIndex": "0x2",
          "logIndex": "0x1",
          "removed": false
        }
      ],
      "logsBloom": "0x02000000000000000000000000000000000000000000800000000040000000000000000000000000000000000000000000000000000000000000000000000000000000000000000000000000000000000000000000000000000000000000000100000001000040000000000008000000000000000000000000000000000000000000000000000000000000000000000000000000000000000000000000000000000000000000000000000000000000000000000002000000000000000000000000000000000000000000000000000000000000000000000000000000000020000000000000000000000000000000000000000000000000000000000000000000",
      "type": "0x2",
      "transactionHash": "0x2a138990c51b048b0b5b64b8705a684e7f7904c6762ba10f046f92eec62d4fa5",
      "transactionIndex": "0x2",
      "blockHash": "0x9d277dde0c4003dc0df11c82c8a17a090d849edc0525968c28d68c2852060038",
      "blockNumber": "0x79134d0",
      "gasUsed": "0x64225",
      "effectiveGasPrice": "0x5f5e100",
      "from": "0xe62ab4d111f968660c6b2188046f9b9ba53c4bae",
      "to": "0xf77c7bdf97245eb9b12e7d7c10ab6abc2aba0f6a",
      "contractAddress": null,
      "gasUsedForL1": "0x553a7",
      "l1BlockNumber": "0x76aecc",
      "timeboosted": false
    }
  ],
  "libraries": [],
  "pending": [],
  "returns": {},
  "timestamp": 1740428277,
  "chain": 421614,
  "commit": "82ab662e"
}