{
  "transactions": [
    {
      "hash": "0x83d414dc505a85a5c2a02ae5695a9fd830b8fd1021b390a084b9b826382ffbd0",
      "transactionType": "CALL",
      "contractName": null,
      "contractAddress": "0xf77c7bdf97245eb9b12e7d7c10ab6abc2aba0f6a",
      "function": "addDappAddr(uint256,string[])",
      "arguments": [
        "44",
        "[0xb9f462138e33dd8dba73394ddff141b3ef2f6bb1]"
      ],
      "transaction": {
        "from": "0xe62ab4d111f968660c6b2188046f9b9ba53c4bae",
        "to": "0xf77c7bdf97245eb9b12e7d7c10ab6abc2aba0f6a",
        "gas": "0x13cfb",
        "value": "0x0",
        "input": "0xbb03a47e000000000000000000000000000000000000000000000000000000000000002c000000000000000000000000000000000000000000000000000000000000004000000000000000000000000000000000000000000000000000000000000000010000000000000000000000000000000000000000000000000000000000000020000000000000000000000000000000000000000000000000000000000000002a30786239663436323133386533336464386462613733333934646466663134316233656632663662623100000000000000000000000000000000000000000000",
        "nonce": "0x392",
        "chainId": "0x66eee"
      },
      "additionalContracts": [],
      "isFixedGasLimit": false
    }
  ],
  "receipts": [
    {
      "status": "0x1",
      "cumulativeGasUsed": "0x24ab5",
      "logs": [
        {
          "address": "0xf77c7bdf97245eb9b12e7d7c10ab6abc2aba0f6a",
          "topics": [
            "0x6e806e4274e1ae2fda14f84ae0177d6248dd126572ee44f546d4645c41ee2f77",
            "0x000000000000000000000000000000000000000000000000000000000000002c"
          ],
          "data": "0x000000000000000000000000000000000000000000000000000000000000002000000000000000000000000000000000000000000000000000000000000000010000000000000000000000000000000000000000000000000000000000000020000000000000000000000000000000000000000000000000000000000000002a30786239663436323133386533336464386462613733333934646466663134316233656632663662623100000000000000000000000000000000000000000000",
          "blockHash": "0xe8c05b8bdf243fc599ae6564da1be05b559a51ca3bfa60c3beada9df451ebc22",
          "blockNumber": "0x5d98ab7",
          "transactionHash": "0x83d414dc505a85a5c2a02ae5695a9fd830b8fd1021b390a084b9b826382ffbd0",
          "transactionIndex": "0x2",
          "logIndex": "0x2",
          "removed": false
        }
      ],
      "logsBloom": "0x00000000000000000000000000000000000000000000800000000040000000000000000000000000000000000000000000000000000000000000000000000000000000000000000000000000000000000000000000000000000000000000000100000001000040000000000108000000000000000000000000000000004000000000000000000000000000000000000000000000000000000000000000000000000000000000000000000000000000000000000000000000000000000000000000000000000000000000000000000000000000000000000800000000000000000000000000000000000000000000000000000000000000000000000000000000",
      "type": "0x2",
      "transactionHash": "0x83d414dc505a85a5c2a02ae5695a9fd830b8fd1021b390a084b9b826382ffbd0",
      "transactionIndex": "0x2",
      "blockHash": "0xe8c05b8bdf243fc599ae6564da1be05b559a51ca3bfa60c3beada9df451ebc22",
      "blockNumber": "0x5d98ab7",
      "gasUsed": "0xf02f",
      "effectiveGasPrice": "0x5f5e100",
      "from": "0xe62ab4d111f968660c6b2188046f9b9ba53c4bae",
      "to": "0xf77c7bdf97245eb9b12e7d7c10ab6abc2aba0f6a",
      "contractAddress": null,
      "gasUsedForL1": "0x1b1",
      "l1BlockNumber": "0x6c46a7"
    }
  ],
  "libraries": [],
  "pending": [],
  "returns": {},
  "timestamp": 1731852277,
  "chain": 421614,
  "commit": "b96f5048"
}