{
  "transactions": [
    {
      "hash": "0x4cd97261461c989e23632ef2613bd02b7b38c1a106f087305cb0b96075f5558b",
      "transactionType": "CALL",
      "contractName": null,
      "contractAddress": "0xf77c7bdf97245eb9b12e7d7c10ab6abc2aba0f6a",
      "function": "addDappAddr(uint256,string[])",
      "arguments": [
        "48",
        "[0xa33cfd901896c775c5a6d62e94081b4fdd1b09bc]"
      ],
      "transaction": {
        "from": "0xe62ab4d111f968660c6b2188046f9b9ba53c4bae",
        "to": "0xf77c7bdf97245eb9b12e7d7c10ab6abc2aba0f6a",
        "gas": "0x13a3a",
        "value": "0x0",
        "input": "0xbb03a47e0000000000000000000000000000000000000000000000000000000000000030000000000000000000000000000000000000000000000000000000000000004000000000000000000000000000000000000000000000000000000000000000010000000000000000000000000000000000000000000000000000000000000020000000000000000000000000000000000000000000000000000000000000002a30786133336366643930313839366337373563356136643632653934303831623466646431623039626300000000000000000000000000000000000000000000",
        "nonce": "0x514",
        "chainId": "0x66eee"
      },
      "additionalContracts": [],
      "isFixedGasLimit": false
    }
  ],
  "receipts": [
    {
      "status": "0x1",
      "cumulativeGasUsed": "0xee7e",
      "logs": [
        {
          "address": "0xf77c7bdf97245eb9b12e7d7c10ab6abc2aba0f6a",
          "topics": [
            "0x6e806e4274e1ae2fda14f84ae0177d6248dd126572ee44f546d4645c41ee2f77",
            "0x0000000000000000000000000000000000000000000000000000000000000030"
          ],
          "data": "0x000000000000000000000000000000000000000000000000000000000000002000000000000000000000000000000000000000000000000000000000000000010000000000000000000000000000000000000000000000000000000000000020000000000000000000000000000000000000000000000000000000000000002a30786133336366643930313839366337373563356136643632653934303831623466646431623039626300000000000000000000000000000000000000000000",
          "blockHash": "0x9e416388c6b031a8a2d897c63430a5aedc033cc7e00fa20aef4a3e4d3f284827",
          "blockNumber": "0x6094555",
          "transactionHash": "0x4cd97261461c989e23632ef2613bd02b7b38c1a106f087305cb0b96075f5558b",
          "transactionIndex": "0x1",
          "logIndex": "0x0",
          "removed": false
        }
      ],
      "logsBloom": "0x02000000000000000000000000000000000000000000800000000040000000000000000000000000000000000000000000000000000000000000000000000000000000000000000000000000000000000000000000000000000000000000000100000001000040000000000008000000000000000000000000000000000000000000000000000000000000000000000000000000000000000000000000000000000000000000000000000000000000000000000002000000000000000000000000000000000000000000000000000000000000000000000000000000000020000000000000000000000000000000000000000000000000000000000000000000",
      "type": "0x2",
      "transactionHash": "0x4cd97261461c989e23632ef2613bd02b7b38c1a106f087305cb0b96075f5558b",
      "transactionIndex": "0x1",
      "blockHash": "0x9e416388c6b031a8a2d897c63430a5aedc033cc7e00fa20aef4a3e4d3f284827",
      "blockNumber": "0x6094555",
      "gasUsed": "0xee7e",
      "effectiveGasPrice": "0x5f5e100",
      "from": "0xe62ab4d111f968660c6b2188046f9b9ba53c4bae",
      "to": "0xf77c7bdf97245eb9b12e7d7c10ab6abc2aba0f6a",
      "contractAddress": null,
      "gasUsedForL1": "0x0",
      "l1BlockNumber": "0x6d5bde"
    }
  ],
  "libraries": [],
  "pending": [],
  "returns": {},
  "timestamp": 1732758652,
  "chain": 421614,
  "commit": "3a8898ab"
}