{
  "transactions": [
    {
      "hash": "0xbd62aac465449650079d2c68d555d26649b94378c1d5250bca9e17d00d5eaf80",
      "transactionType": "CALL",
      "contractName": null,
      "contractAddress": "0xf77c7bdf97245eb9b12e7d7c10ab6abc2aba0f6a",
      "function": "addDappAddr(uint256,string[])",
      "arguments": [
        "44",
        "[0xef01a0adff5a96820a7c267d6a92ba041fa0c781]"
      ],
      "transaction": {
        "from": "0xe62ab4d111f968660c6b2188046f9b9ba53c4bae",
        "to": "0xf77c7bdf97245eb9b12e7d7c10ab6abc2aba0f6a",
        "gas": "0x146bd",
        "value": "0x0",
        "input": "0xbb03a47e000000000000000000000000000000000000000000000000000000000000002c000000000000000000000000000000000000000000000000000000000000004000000000000000000000000000000000000000000000000000000000000000010000000000000000000000000000000000000000000000000000000000000020000000000000000000000000000000000000000000000000000000000000002a30786566303161306164666635613936383230613763323637643661393262613034316661306337383100000000000000000000000000000000000000000000",
        "nonce": "0x27f",
        "chainId": "0x66eee"
      },
      "additionalContracts": [],
      "isFixedGasLimit": false
    }
  ],
  "receipts": [
    {
      "status": "0x1",
      "cumulativeGasUsed": "0xf61d",
      "logs": [
        {
          "address": "0xf77c7bdf97245eb9b12e7d7c10ab6abc2aba0f6a",
          "topics": [
            "0x6e806e4274e1ae2fda14f84ae0177d6248dd126572ee44f546d4645c41ee2f77",
            "0x000000000000000000000000000000000000000000000000000000000000002c"
          ],
          "data": "0x000000000000000000000000000000000000000000000000000000000000002000000000000000000000000000000000000000000000000000000000000000010000000000000000000000000000000000000000000000000000000000000020000000000000000000000000000000000000000000000000000000000000002a30786566303161306164666635613936383230613763323637643661393262613034316661306337383100000000000000000000000000000000000000000000",
          "blockHash": "0xd532ab869cbde02c94df2c352bddeefd01566a6618b270afb40076359376da5e",
          "blockNumber": "0x596c8fa",
          "transactionHash": "0xbd62aac465449650079d2c68d555d26649b94378c1d5250bca9e17d00d5eaf80",
          "transactionIndex": "0x1",
          "logIndex": "0x0",
          "removed": false
        }
      ],
      "logsBloom": "0x00000000000000000000000000000000000000000000800000000040000000000000000000000000000000000000000000000000000000000000000000000000000000000000000000000000000000000000000000000000000000000000000100000001000040000000000108000000000000000000000000000000004000000000000000000000000000000000000000000000000000000000000000000000000000000000000000000000000000000000000000000000000000000000000000000000000000000000000000000000000000000000000800000000000000000000000000000000000000000000000000000000000000000000000000000000",
      "type": "0x2",
      "transactionHash": "0xbd62aac465449650079d2c68d555d26649b94378c1d5250bca9e17d00d5eaf80",
      "transactionIndex": "0x1",
      "blockHash": "0xd532ab869cbde02c94df2c352bddeefd01566a6618b270afb40076359376da5e",
      "blockNumber": "0x596c8fa",
      "gasUsed": "0xf61d",
      "effectiveGasPrice": "0x5f5e100",
      "from": "0xe62ab4d111f968660c6b2188046f9b9ba53c4bae",
      "to": "0xf77c7bdf97245eb9b12e7d7c10ab6abc2aba0f6a",
      "contractAddress": null,
      "gasUsedForL1": "0x79f",
      "l1BlockNumber": "0x6ac33e"
    }
  ],
  "libraries": [],
  "pending": [],
  "returns": {},
  "timestamp": 1730548713,
  "chain": 421614,
  "commit": "34a11392"
}