{
  "transactions": [
    {
      "hash": "0xd4538086e6c8b0652fef9fb7bddc7fa45796a45ae7e8a73a7072a67aa8aba8c7",
      "transactionType": "CALL",
      "contractName": null,
      "contractAddress": "0xf77c7bdf97245eb9b12e7d7c10ab6abc2aba0f6a",
      "function": "addDappAddr(uint256,string[])",
      "arguments": [
        "44",
        "[0xb413850c2d470643f5cb4ba9678c4e7d822c326e]"
      ],
      "transaction": {
        "from": "0xe62ab4d111f968660c6b2188046f9b9ba53c4bae",
        "to": "0xf77c7bdf97245eb9b12e7d7c10ab6abc2aba0f6a",
        "gas": "0x22431",
        "value": "0x0",
        "input": "0xbb03a47e000000000000000000000000000000000000000000000000000000000000002c000000000000000000000000000000000000000000000000000000000000004000000000000000000000000000000000000000000000000000000000000000010000000000000000000000000000000000000000000000000000000000000020000000000000000000000000000000000000000000000000000000000000002a30786234313338353063326434373036343366356362346261393637386334653764383232633332366500000000000000000000000000000000000000000000",
        "nonce": "0x3b2",
        "chainId": "0x66eee"
      },
      "additionalContracts": [],
      "isFixedGasLimit": false
    }
  ],
  "receipts": [
    {
      "status": "0x1",
      "cumulativeGasUsed": "0x36476",
      "logs": [
        {
          "address": "0xf77c7bdf97245eb9b12e7d7c10ab6abc2aba0f6a",
          "topics": [
            "0x6e806e4274e1ae2fda14f84ae0177d6248dd126572ee44f546d4645c41ee2f77",
            "0x000000000000000000000000000000000000000000000000000000000000002c"
          ],
          "data": "0x000000000000000000000000000000000000000000000000000000000000002000000000000000000000000000000000000000000000000000000000000000010000000000000000000000000000000000000000000000000000000000000020000000000000000000000000000000000000000000000000000000000000002a30786234313338353063326434373036343366356362346261393637386334653764383232633332366500000000000000000000000000000000000000000000",
          "blockHash": "0x226df60782bd959b901dd50386388401a6268b77053ad1c6e96899f8fb7499c7",
          "blockNumber": "0x5e1d980",
          "transactionHash": "0xd4538086e6c8b0652fef9fb7bddc7fa45796a45ae7e8a73a7072a67aa8aba8c7",
          "transactionIndex": "0x2",
          "logIndex": "0x0",
          "removed": false
        }
      ],
      "logsBloom": "0x00000000000000000000000000000000000000000000800000000040000000000000000000000000000000000000000000000000000000000000000000000000000000000000000000000000000000000000000000000000000000000000000100000001000040000000000108000000000000000000000000000000004000000000000000000000000000000000000000000000000000000000000000000000000000000000000000000000000000000000000000000000000000000000000000000000000000000000000000000000000000000000000800000000000000000000000000000000000000000000000000000000000000000000000000000000",
      "type": "0x2",
      "transactionHash": "0xd4538086e6c8b0652fef9fb7bddc7fa45796a45ae7e8a73a7072a67aa8aba8c7",
      "transactionIndex": "0x2",
      "blockHash": "0x226df60782bd959b901dd50386388401a6268b77053ad1c6e96899f8fb7499c7",
      "blockNumber": "0x5e1d980",
      "gasUsed": "0x17d38",
      "effectiveGasPrice": "0x5f5e100",
      "from": "0xe62ab4d111f968660c6b2188046f9b9ba53c4bae",
      "to": "0xf77c7bdf97245eb9b12e7d7c10ab6abc2aba0f6a",
      "contractAddress": null,
      "gasUsedForL1": "0x8eba",
      "l1BlockNumber": "0x6c7d80"
    }
  ],
  "libraries": [],
  "pending": [],
  "returns": {},
  "timestamp": 1732031648,
  "chain": 421614,
  "commit": "b96f5048"
}