{
  "transactions": [
    {
      "hash": "0x85100d7f1ea9e76cb3c0c13ab4a6dafcd3f2575f255ce971d655f4f268cbf81c",
      "transactionType": "CALL",
      "contractName": null,
      "contractAddress": "0xf77c7bdf97245eb9b12e7d7c10ab6abc2aba0f6a",
      "function": "addDappAddr(uint256,string[])",
      "arguments": [
        "47",
        "[0xf065f9bbd5f59afa0d24be34bdf8ad483485ed1c]"
      ],
      "transaction": {
        "from": "0xe62ab4d111f968660c6b2188046f9b9ba53c4bae",
        "to": "0xf77c7bdf97245eb9b12e7d7c10ab6abc2aba0f6a",
        "gas": "0x697b3",
        "value": "0x0",
        "input": "0xbb03a47e000000000000000000000000000000000000000000000000000000000000002f000000000000000000000000000000000000000000000000000000000000004000000000000000000000000000000000000000000000000000000000000000010000000000000000000000000000000000000000000000000000000000000020000000000000000000000000000000000000000000000000000000000000002a30786630363566396262643566353961666130643234626533346264663861643438333438356564316300000000000000000000000000000000000000000000",
        "nonce": "0x45a",
        "chainId": "0x66eee"
      },
      "additionalContracts": [],
      "isFixedGasLimit": false
    }
  ],
  "receipts": [
    {
      "status": "0x1",
      "cumulativeGasUsed": "0x78754",
      "logs": [
        {
          "address": "0xf77c7bdf97245eb9b12e7d7c10ab6abc2aba0f6a",
          "topics": [
            "0x6e806e4274e1ae2fda14f84ae0177d6248dd126572ee44f546d4645c41ee2f77",
            "0x000000000000000000000000000000000000000000000000000000000000002f"
          ],
          "data": "0x000000000000000000000000000000000000000000000000000000000000002000000000000000000000000000000000000000000000000000000000000000010000000000000000000000000000000000000000000000000000000000000020000000000000000000000000000000000000000000000000000000000000002a30786630363566396262643566353961666130643234626533346264663861643438333438356564316300000000000000000000000000000000000000000000",
          "blockHash": "0xb628eea94a3c54536d8d2c8bb20a344b87280274b9cf3a678c97861c610caf0d",
          "blockNumber": "0x5ebc33a",
          "transactionHash": "0x85100d7f1ea9e76cb3c0c13ab4a6dafcd3f2575f255ce971d655f4f268cbf81c",
          "transactionIndex": "0x2",
          "logIndex": "0x0",
          "removed": false
        }
      ],
      "logsBloom": "0x00000000000000000000000000000000000080000000800000000040000000000000000000000000000000000000000000000000000000000000000000000000000000000000000000000000000000000000000000000000000000000000000100000001000040000000000008000000000000000000000000000000000000000000000000000000000000000000000000000000000000000000000000000000000000000000000000000000000000000000000000000000000000000000000000000000000000000000000000000000000000000000000000000000000000000000000000000000000000000000000000000000000004000000000000080000",
      "type": "0x2",
      "transactionHash": "0x85100d7f1ea9e76cb3c0c13ab4a6dafcd3f2575f255ce971d655f4f268cbf81c",
      "transactionIndex": "0x2",
      "blockHash": "0xb628eea94a3c54536d8d2c8bb20a344b87280274b9cf3a678c97861c610caf0d",
      "blockNumber": "0x5ebc33a",
      "gasUsed": "0x4213c",
      "effectiveGasPrice": "0x5f5e100",
      "from": "0xe62ab4d111f968660c6b2188046f9b9ba53c4bae",
      "to": "0xf77c7bdf97245eb9b12e7d7c10ab6abc2aba0f6a",
      "contractAddress": null,
      "gasUsedForL1": "0x332be",
      "l1BlockNumber": "0x6cb588"
    }
  ],
  "libraries": [],
  "pending": [],
  "returns": {},
  "timestamp": 1732214672,
  "chain": 421614,
  "commit": "4b2e1f8c"
}