{
  "transactions": [
    {
      "hash": "0xc22adde9f4f7e43db9891803ede29c4e3bb9c3becf569a17b143296c8afddadf",
      "transactionType": "CALL",
      "contractName": null,
      "contractAddress": "0xf77c7bdf97245eb9b12e7d7c10ab6abc2aba0f6a",
      "function": "addDappAddr(uint256,string[])",
      "arguments": [
        "44",
        "[0x9068f274555af3cd0a934dbcf1c56e7b83ad450a]"
      ],
      "transaction": {
        "from": "0xe62ab4d111f968660c6b2188046f9b9ba53c4bae",
        "to": "0xf77c7bdf97245eb9b12e7d7c10ab6abc2aba0f6a",
        "gas": "0x1606e",
        "value": "0x0",
        "input": "0xbb03a47e000000000000000000000000000000000000000000000000000000000000002c000000000000000000000000000000000000000000000000000000000000004000000000000000000000000000000000000000000000000000000000000000010000000000000000000000000000000000000000000000000000000000000020000000000000000000000000000000000000000000000000000000000000002a30783930363866323734353535616633636430613933346462636631633536653762383361643435306100000000000000000000000000000000000000000000",
        "nonce": "0x2e6",
        "chainId": "0x66eee"
      },
      "additionalContracts": [],
      "isFixedGasLimit": false
    }
  ],
  "receipts": [
    {
      "status": "0x1",
      "cumulativeGasUsed": "0x1e030",
      "logs": [
        {
          "address": "0xf77c7bdf97245eb9b12e7d7c10ab6abc2aba0f6a",
          "topics": [
            "0x6e806e4274e1ae2fda14f84ae0177d6248dd126572ee44f546d4645c41ee2f77",
            "0x000000000000000000000000000000000000000000000000000000000000002c"
          ],
          "data": "0x000000000000000000000000000000000000000000000000000000000000002000000000000000000000000000000000000000000000000000000000000000010000000000000000000000000000000000000000000000000000000000000020000000000000000000000000000000000000000000000000000000000000002a30783930363866323734353535616633636430613933346462636631633536653762383361643435306100000000000000000000000000000000000000000000",
          "blockHash": "0xc57ec122cce7542e0e6b438f22452c04ce692472b78a3b6d3b6c2de2f8f1325d",
          "blockNumber": "0x5a0a2e6",
          "transactionHash": "0xc22adde9f4f7e43db9891803ede29c4e3bb9c3becf569a17b143296c8afddadf",
          "transactionIndex": "0x2",
          "logIndex": "0x1",
          "removed": false
        }
      ],
      "logsBloom": "0x00000000000000000000000000000000000000000000800000000040000000000000000000000000000000000000000000000000000000000000000000000000000000000000000000000000000000000000000000000000000000000000000100000001000040000000000108000000000000000000000000000000004000000000000000000000000000000000000000000000000000000000000000000000000000000000000000000000000000000000000000000000000000000000000000000000000000000000000000000000000000000000000800000000000000000000000000000000000000000000000000000000000000000000000000000000",
      "type": "0x2",
      "transactionHash": "0xc22adde9f4f7e43db9891803ede29c4e3bb9c3becf569a17b143296c8afddadf",
      "transactionIndex": "0x2",
      "blockHash": "0xc57ec122cce7542e0e6b438f22452c04ce692472b78a3b6d3b6c2de2f8f1325d",
      "blockNumber": "0x5a0a2e6",
      "gasUsed": "0x105a2",
      "effectiveGasPrice": "0x5f5e100",
      "from": "0xe62ab4d111f968660c6b2188046f9b9ba53c4bae",
      "to": "0xf77c7bdf97245eb9b12e7d7c10ab6abc2aba0f6a",
      "contractAddress": null,
      "gasUsedForL1": "0x1724",
      "l1BlockNumber": "0x6b0040"
    }
  ],
  "libraries": [],
  "pending": [],
  "returns": {},
  "timestamp": 1730752856,
  "chain": 421614,
  "commit": "34a11392"
}