{
  "transactions": [
    {
      "hash": "0xd13d9023ad0ed421d605272c6456a6a556afced25da1339e4b52b0a9cb49d203",
      "transactionType": "CALL",
      "contractName": null,
      "contractAddress": "0xf77c7bdf97245eb9b12e7d7c10ab6abc2aba0f6a",
      "function": "addDappAddr(uint256,string[])",
      "arguments": [
        "48",
        "[0xd4bd9bba2fb97c36bbd619303cab636f476f8904]"
      ],
      "transaction": {
        "from": "0xe62ab4d111f968660c6b2188046f9b9ba53c4bae",
        "to": "0xf77c7bdf97245eb9b12e7d7c10ab6abc2aba0f6a",
        "gas": "0x1a683",
        "value": "0x0",
        "input": "0xbb03a47e0000000000000000000000000000000000000000000000000000000000000030000000000000000000000000000000000000000000000000000000000000004000000000000000000000000000000000000000000000000000000000000000010000000000000000000000000000000000000000000000000000000000000020000000000000000000000000000000000000000000000000000000000000002a30786434626439626261326662393763333662626436313933303363616236333666343736663839303400000000000000000000000000000000000000000000",
        "nonce": "0x41b",
        "chainId": "0x66eee"
      },
      "additionalContracts": [],
      "isFixedGasLimit": false
    }
  ],
  "receipts": [
    {
      "status": "0x1",
      "cumulativeGasUsed": "0x27510",
      "logs": [
        {
          "address": "0xf77c7bdf97245eb9b12e7d7c10ab6abc2aba0f6a",
          "topics": [
            "0x6e806e4274e1ae2fda14f84ae0177d6248dd126572ee44f546d4645c41ee2f77",
            "0x0000000000000000000000000000000000000000000000000000000000000030"
          ],
          "data": "0x000000000000000000000000000000000000000000000000000000000000002000000000000000000000000000000000000000000000000000000000000000010000000000000000000000000000000000000000000000000000000000000020000000000000000000000000000000000000000000000000000000000000002a30786434626439626261326662393763333662626436313933303363616236333666343736663839303400000000000000000000000000000000000000000000",
          "blockHash": "0xe09a8b059cb98c85c98afefc36c8d61a92a97c1970a452aa19fd5c26ff61ea1f",
          "blockNumber": "0x5e3cfbe",
          "transactionHash": "0xd13d9023ad0ed421d605272c6456a6a556afced25da1339e4b52b0a9cb49d203",
          "transactionIndex": "0x3",
          "logIndex": "0x0",
          "removed": false
        }
      ],
      "logsBloom": "0x02000000000000000000000000000000000000000000800000000040000000000000000000000000000000000000000000000000000000000000000000000000000000000000000000000000000000000000000000000000000000000000000100000001000040000000000008000000000000000000000000000000000000000000000000000000000000000000000000000000000000000000000000000000000000000000000000000000000000000000000002000000000000000000000000000000000000000000000000000000000000000000000000000000000020000000000000000000000000000000000000000000000000000000000000000000",
      "type": "0x2",
      "transactionHash": "0xd13d9023ad0ed421d605272c6456a6a556afced25da1339e4b52b0a9cb49d203",
      "transactionIndex": "0x3",
      "blockHash": "0xe09a8b059cb98c85c98afefc36c8d61a92a97c1970a452aa19fd5c26ff61ea1f",
      "blockNumber": "0x5e3cfbe",
      "gasUsed": "0x12fb6",
      "effectiveGasPrice": "0x5f5e100",
      "from": "0xe62ab4d111f968660c6b2188046f9b9ba53c4bae",
      "to": "0xf77c7bdf97245eb9b12e7d7c10ab6abc2aba0f6a",
      "contractAddress": null,
      "gasUsedForL1": "0x4138",
      "l1BlockNumber": "0x6c885b"
    }
  ],
  "libraries": [],
  "pending": [],
  "returns": {},
  "timestamp": 1732067437,
  "chain": 421614,
  "commit": "4b2e1f8c"
}