{
  "transactions": [
    {
      "hash": "0x2b03f5dc3a97906a3ef8e32c6bfe2a84b371e27f73076906900f4254aec658aa",
      "transactionType": "CALL",
      "contractName": null,
      "contractAddress": "0xf77c7bdf97245eb9b12e7d7c10ab6abc2aba0f6a",
      "function": "addDappAddr(uint256,string[])",
      "arguments": [
        "45",
        "[0xb37c81d6f90a16bbd778886af49abebfd1ad02c7]"
      ],
      "transaction": {
        "from": "0xe62ab4d111f968660c6b2188046f9b9ba53c4bae",
        "to": "0xf77c7bdf97245eb9b12e7d7c10ab6abc2aba0f6a",
        "gas": "0x18e9a",
        "value": "0x0",
        "input": "0xbb03a47e000000000000000000000000000000000000000000000000000000000000002d000000000000000000000000000000000000000000000000000000000000004000000000000000000000000000000000000000000000000000000000000000010000000000000000000000000000000000000000000000000000000000000020000000000000000000000000000000000000000000000000000000000000002a30786233376338316436663930613136626264373738383836616634396162656266643161643032633700000000000000000000000000000000000000000000",
        "nonce": "0x414",
        "chainId": "0x66eee"
      },
      "additionalContracts": [],
      "isFixedGasLimit": false
    }
  ],
  "receipts": [
    {
      "status": "0x1",
      "cumulativeGasUsed": "0x704e5",
      "logs": [
        {
          "address": "0xf77c7bdf97245eb9b12e7d7c10ab6abc2aba0f6a",
          "topics": [
            "0x6e806e4274e1ae2fda14f84ae0177d6248dd126572ee44f546d4645c41ee2f77",
            "0x000000000000000000000000000000000000000000000000000000000000002d"
          ],
          "data": "0x000000000000000000000000000000000000000000000000000000000000002000000000000000000000000000000000000000000000000000000000000000010000000000000000000000000000000000000000000000000000000000000020000000000000000000000000000000000000000000000000000000000000002a30786233376338316436663930613136626264373738383836616634396162656266643161643032633700000000000000000000000000000000000000000000",
          "blockHash": "0xa16eee1e6f0284a3895c57c62631b8b979620f88dde849503083ef18a34628e3",
          "blockNumber": "0x5e3cce4",
          "transactionHash": "0x2b03f5dc3a97906a3ef8e32c6bfe2a84b371e27f73076906900f4254aec658aa",
          "transactionIndex": "0xa",
          "logIndex": "0x0",
          "removed": false
        }
      ],
      "logsBloom": "0x00000000000000000000000000000000000000000000800000000040000000000000000000000000000000000000000000000000000000000000000400000000000000000000000000000000000000000000000000000000000000000000000100000001000040000000000008000000000000000000000000000000000000000000000000000000000000000000000000000000000000000000000000000000000000000000000000000000000000000000000000000000000010000000000000000000000000000000000000000000000000000000000000000000400000000000000000000000000000000000000000000000000000000000000000000000",
      "type": "0x2",
      "transactionHash": "0x2b03f5dc3a97906a3ef8e32c6bfe2a84b371e27f73076906900f4254aec658aa",
      "transactionIndex": "0xa",
      "blockHash": "0xa16eee1e6f0284a3895c57c62631b8b979620f88dde849503083ef18a34628e3",
      "blockNumber": "0x5e3cce4",
      "gasUsed": "0x12284",
      "effectiveGasPrice": "0x5f5e100",
      "from": "0xe62ab4d111f968660c6b2188046f9b9ba53c4bae",
      "to": "0xf77c7bdf97245eb9b12e7d7c10ab6abc2aba0f6a",
      "contractAddress": null,
      "gasUsedForL1": "0x3406",
      "l1BlockNumber": "0x6c884d"
    }
  ],
  "libraries": [],
  "pending": [],
  "returns": {},
  "timestamp": 1732067251,
  "chain": 421614,
  "commit": "4b2e1f8c"
}