{
  "transactions": [
    {
      "hash": "0xe9b1d846df821b8c46e96c7d092d300f37d08c089f01e6b884e13785974b8d3e",
      "transactionType": "CALL",
      "contractName": null,
      "contractAddress": "0xf77c7bdf97245eb9b12e7d7c10ab6abc2aba0f6a",
      "function": "addDappAddr(uint256,string[])",
      "arguments": [
        "48",
        "[0x815ac25ea81d9a0b38d81698cdd661e93a833117]"
      ],
      "transaction": {
        "from": "0xe62ab4d111f968660c6b2188046f9b9ba53c4bae",
        "to": "0xf77c7bdf97245eb9b12e7d7c10ab6abc2aba0f6a",
        "gas": "0x15721",
        "value": "0x0",
        "input": "0xbb03a47e0000000000000000000000000000000000000000000000000000000000000030000000000000000000000000000000000000000000000000000000000000004000000000000000000000000000000000000000000000000000000000000000010000000000000000000000000000000000000000000000000000000000000020000000000000000000000000000000000000000000000000000000000000002a30783831356163323565613831643961306233386438313639386364643636316539336138333331313700000000000000000000000000000000000000000000",
        "nonce": "0x29b",
        "chainId": "0x66eee"
      },
      "additionalContracts": [],
      "isFixedGasLimit": false
    }
  ],
  "receipts": [
    {
      "status": "0x1",
      "cumulativeGasUsed": "0x10006",
      "logs": [
        {
          "address": "0xf77c7bdf97245eb9b12e7d7c10ab6abc2aba0f6a",
          "topics": [
            "0x6e806e4274e1ae2fda14f84ae0177d6248dd126572ee44f546d4645c41ee2f77",
            "0x0000000000000000000000000000000000000000000000000000000000000030"
          ],
          "data": "0x000000000000000000000000000000000000000000000000000000000000002000000000000000000000000000000000000000000000000000000000000000010000000000000000000000000000000000000000000000000000000000000020000000000000000000000000000000000000000000000000000000000000002a30783831356163323565613831643961306233386438313639386364643636316539336138333331313700000000000000000000000000000000000000000000",
          "blockHash": "0xb1dac2ffede5b8107365ce539807f65d3cd31035cc429451a9ea50c145a11edd",
          "blockNumber": "0x596db8d",
          "transactionHash": "0xe9b1d846df821b8c46e96c7d092d300f37d08c089f01e6b884e13785974b8d3e",
          "transactionIndex": "0x1",
          "logIndex": "0x0",
          "removed": false
        }
      ],
      "logsBloom": "0x02000000000000000000000000000000000000000000800000000040000000000000000000000000000000000000000000000000000000000000000000000000000000000000000000000000000000000000000000000000000000000000000100000001000040000000000008000000000000000000000000000000000000000000000000000000000000000000000000000000000000000000000000000000000000000000000000000000000000000000000002000000000000000000000000000000000000000000000000000000000000000000000000000000000020000000000000000000000000000000000000000000000000000000000000000000",
      "type": "0x2",
      "transactionHash": "0xe9b1d846df821b8c46e96c7d092d300f37d08c089f01e6b884e13785974b8d3e",
      "transactionIndex": "0x1",
      "blockHash": "0xb1dac2ffede5b8107365ce539807f65d3cd31035cc429451a9ea50c145a11edd",
      "blockNumber": "0x596db8d",
      "gasUsed": "0x10006",
      "effectiveGasPrice": "0x5f5e100",
      "from": "0xe62ab4d111f968660c6b2188046f9b9ba53c4bae",
      "to": "0xf77c7bdf97245eb9b12e7d7c10ab6abc2aba0f6a",
      "contractAddress": null,
      "gasUsedForL1": "0x1188",
      "l1BlockNumber": "0x6ac3aa"
    }
  ],
  "libraries": [],
  "pending": [],
  "returns": {},
  "timestamp": 1730550055,
  "chain": 421614,
  "commit": "34a11392"
}