{
  "transactions": [
    {
      "hash": "0xdfe82664b71c6392c6815c67da40003f56698ffd850e2d90db7b1e3e7c7f51a9",
      "transactionType": "CALL",
      "contractName": null,
      "contractAddress": "0xf77c7bdf97245eb9b12e7d7c10ab6abc2aba0f6a",
      "function": "addDappAddr(uint256,string[])",
      "arguments": [
        "47",
        "[0x358498985e6ac7ca73f5110b415525ae04cb8313]"
      ],
      "transaction": {
        "from": "0xe62ab4d111f968660c6b2188046f9b9ba53c4bae",
        "to": "0xf77c7bdf97245eb9b12e7d7c10ab6abc2aba0f6a",
        "gas": "0x200cb",
        "value": "0x0",
        "input": "0xbb03a47e000000000000000000000000000000000000000000000000000000000000002f000000000000000000000000000000000000000000000000000000000000004000000000000000000000000000000000000000000000000000000000000000010000000000000000000000000000000000000000000000000000000000000020000000000000000000000000000000000000000000000000000000000000002a30783335383439383938356536616337636137336635313130623431353532356165303463623833313300000000000000000000000000000000000000000000",
        "nonce": "0x2f0",
        "chainId": "0x66eee"
      },
      "additionalContracts": [],
      "isFixedGasLimit": false
    }
  ],
  "receipts": [
    {
      "status": "0x1",
      "cumulativeGasUsed": "0x16805",
      "logs": [
        {
          "address": "0xf77c7bdf97245eb9b12e7d7c10ab6abc2aba0f6a",
          "topics": [
            "0x6e806e4274e1ae2fda14f84ae0177d6248dd126572ee44f546d4645c41ee2f77",
            "0x000000000000000000000000000000000000000000000000000000000000002f"
          ],
          "data": "0x000000000000000000000000000000000000000000000000000000000000002000000000000000000000000000000000000000000000000000000000000000010000000000000000000000000000000000000000000000000000000000000020000000000000000000000000000000000000000000000000000000000000002a30783335383439383938356536616337636137336635313130623431353532356165303463623833313300000000000000000000000000000000000000000000",
          "blockHash": "0xe25e439e3830a56059ca3c9541cfb20553b97152b091a36ccb76f3635420d786",
          "blockNumber": "0x5a0a670",
          "transactionHash": "0xdfe82664b71c6392c6815c67da40003f56698ffd850e2d90db7b1e3e7c7f51a9",
          "transactionIndex": "0x1",
          "logIndex": "0x0",
          "removed": false
        }
      ],
      "logsBloom": "0x00000000000000000000000000000000000080000000800000000040000000000000000000000000000000000000000000000000000000000000000000000000000000000000000000000000000000000000000000000000000000000000000100000001000040000000000008000000000000000000000000000000000000000000000000000000000000000000000000000000000000000000000000000000000000000000000000000000000000000000000000000000000000000000000000000000000000000000000000000000000000000000000000000000000000000000000000000000000000000000000000000000000004000000000000080000",
      "type": "0x2",
      "transactionHash": "0xdfe82664b71c6392c6815c67da40003f56698ffd850e2d90db7b1e3e7c7f51a9",
      "transactionIndex": "0x1",
      "blockHash": "0xe25e439e3830a56059ca3c9541cfb20553b97152b091a36ccb76f3635420d786",
      "blockNumber": "0x5a0a670",
      "gasUsed": "0x16805",
      "effectiveGasPrice": "0x5f5e100",
      "from": "0xe62ab4d111f968660c6b2188046f9b9ba53c4bae",
      "to": "0xf77c7bdf97245eb9b12e7d7c10ab6abc2aba0f6a",
      "contractAddress": null,
      "gasUsedForL1": "0x7987",
      "l1BlockNumber": "0x6b0057"
    }
  ],
  "libraries": [],
  "pending": [],
  "returns": {},
  "timestamp": 1730753142,
  "chain": 421614,
  "commit": "34a11392"
}