{
  "transactions": [
    {
      "hash": "0x80863294cb8631311c1afcc64611f31688ace5716885e4f84fddc4a325781d98",
      "transactionType": "CALL",
      "contractName": null,
      "contractAddress": "0xf77c7bdf97245eb9b12e7d7c10ab6abc2aba0f6a",
      "function": "addDappAddr(uint256,string[])",
      "arguments": [
        "47",
        "[0xeadb6779c7284a7ef6f611f4535e60c3d59b321b]"
      ],
      "transaction": {
        "from": "0xe62ab4d111f968660c6b2188046f9b9ba53c4bae",
        "to": "0xf77c7bdf97245eb9b12e7d7c10ab6abc2aba0f6a",
        "gas": "0x146a5",
        "value": "0x0",
        "input": "0xbb03a47e000000000000000000000000000000000000000000000000000000000000002f000000000000000000000000000000000000000000000000000000000000004000000000000000000000000000000000000000000000000000000000000000010000000000000000000000000000000000000000000000000000000000000020000000000000000000000000000000000000000000000000000000000000002a30786561646236373739633732383461376566366636313166343533356536306333643539623332316200000000000000000000000000000000000000000000",
        "nonce": "0x28f",
        "chainId": "0x66eee"
      },
      "additionalContracts": [],
      "isFixedGasLimit": false
    }
  ],
  "receipts": [
    {
      "status": "0x1",
      "cumulativeGasUsed": "0xf5dd",
      "logs": [
        {
          "address": "0xf77c7bdf97245eb9b12e7d7c10ab6abc2aba0f6a",
          "topics": [
            "0x6e806e4274e1ae2fda14f84ae0177d6248dd126572ee44f546d4645c41ee2f77",
            "0x000000000000000000000000000000000000000000000000000000000000002f"
          ],
          "data": "0x000000000000000000000000000000000000000000000000000000000000002000000000000000000000000000000000000000000000000000000000000000010000000000000000000000000000000000000000000000000000000000000020000000000000000000000000000000000000000000000000000000000000002a30786561646236373739633732383461376566366636313166343533356536306333643539623332316200000000000000000000000000000000000000000000",
          "blockHash": "0x29804cfca22339062c0788ddd111a5ec5198dc914818aeee43920d7bccd907e3",
          "blockNumber": "0x596d26a",
          "transactionHash": "0x80863294cb8631311c1afcc64611f31688ace5716885e4f84fddc4a325781d98",
          "transactionIndex": "0x1",
          "logIndex": "0x0",
          "removed": false
        }
      ],
      "logsBloom": "0x00000000000000000000000000000000000080000000800000000040000000000000000000000000000000000000000000000000000000000000000000000000000000000000000000000000000000000000000000000000000000000000000100000001000040000000000008000000000000000000000000000000000000000000000000000000000000000000000000000000000000000000000000000000000000000000000000000000000000000000000000000000000000000000000000000000000000000000000000000000000000000000000000000000000000000000000000000000000000000000000000000000000004000000000000080000",
      "type": "0x2",
      "transactionHash": "0x80863294cb8631311c1afcc64611f31688ace5716885e4f84fddc4a325781d98",
      "transactionIndex": "0x1",
      "blockHash": "0x29804cfca22339062c0788ddd111a5ec5198dc914818aeee43920d7bccd907e3",
      "blockNumber": "0x596d26a",
      "gasUsed": "0xf5dd",
      "effectiveGasPrice": "0x5f5e100",
      "from": "0xe62ab4d111f968660c6b2188046f9b9ba53c4bae",
      "to": "0xf77c7bdf97245eb9b12e7d7c10ab6abc2aba0f6a",
      "contractAddress": null,
      "gasUsedForL1": "0x75f",
      "l1BlockNumber": "0x6ac376"
    }
  ],
  "libraries": [],
  "pending": [],
  "returns": {},
  "timestamp": 1730549390,
  "chain": 421614,
  "commit": "34a11392"
}