{
  "transactions": [
    {
      "hash": "0x422d92faa3482ed75938789880ba89d444aa40d78b5cb9db9d01d6d40415a6f9",
      "transactionType": "CALL",
      "contractName": null,
      "contractAddress": "0xf77c7bdf97245eb9b12e7d7c10ab6abc2aba0f6a",
      "function": "addDappAddr(uint256,string[])",
      "arguments": [
        "44",
        "[0xecd4b2ab820215acc3cd579b8e65530d44a83643]"
      ],
      "transaction": {
        "from": "0xe62ab4d111f968660c6b2188046f9b9ba53c4bae",
        "to": "0xf77c7bdf97245eb9b12e7d7c10ab6abc2aba0f6a",
        "gas": "0x15ff0",
        "value": "0x0",
        "input": "0xbb03a47e000000000000000000000000000000000000000000000000000000000000002c000000000000000000000000000000000000000000000000000000000000004000000000000000000000000000000000000000000000000000000000000000010000000000000000000000000000000000000000000000000000000000000020000000000000000000000000000000000000000000000000000000000000002a30786563643462326162383230323135616363336364353739623865363535333064343461383336343300000000000000000000000000000000000000000000",
        "nonce": "0x2e8",
        "chainId": "0x66eee"
      },
      "additionalContracts": [],
      "isFixedGasLimit": false
    }
  ],
  "receipts": [
    {
      "status": "0x1",
      "cumulativeGasUsed": "0x1051d",
      "logs": [
        {
          "address": "0xf77c7bdf97245eb9b12e7d7c10ab6abc2aba0f6a",
          "topics": [
            "0x6e806e4274e1ae2fda14f84ae0177d6248dd126572ee44f546d4645c41ee2f77",
            "0x000000000000000000000000000000000000000000000000000000000000002c"
          ],
          "data": "0x000000000000000000000000000000000000000000000000000000000000002000000000000000000000000000000000000000000000000000000000000000010000000000000000000000000000000000000000000000000000000000000020000000000000000000000000000000000000000000000000000000000000002a30786563643462326162383230323135616363336364353739623865363535333064343461383336343300000000000000000000000000000000000000000000",
          "blockHash": "0xf32dc4ef72caecf8947ff60f4761a900e64af11aff031fae6bea089852feaad2",
          "blockNumber": "0x5a0a36f",
          "transactionHash": "0x422d92faa3482ed75938789880ba89d444aa40d78b5cb9db9d01d6d40415a6f9",
          "transactionIndex": "0x1",
          "logIndex": "0x0",
          "removed": false
        }
      ],
      "logsBloom": "0x00000000000000000000000000000000000000000000800000000040000000000000000000000000000000000000000000000000000000000000000000000000000000000000000000000000000000000000000000000000000000000000000100000001000040000000000108000000000000000000000000000000004000000000000000000000000000000000000000000000000000000000000000000000000000000000000000000000000000000000000000000000000000000000000000000000000000000000000000000000000000000000000800000000000000000000000000000000000000000000000000000000000000000000000000000000",
      "type": "0x2",
      "transactionHash": "0x422d92faa3482ed75938789880ba89d444aa40d78b5cb9db9d01d6d40415a6f9",
      "transactionIndex": "0x1",
      "blockHash": "0xf32dc4ef72caecf8947ff60f4761a900e64af11aff031fae6bea089852feaad2",
      "blockNumber": "0x5a0a36f",
      "gasUsed": "0x1051d",
      "effectiveGasPrice": "0x5f5e100",
      "from": "0xe62ab4d111f968660c6b2188046f9b9ba53c4bae",
      "to": "0xf77c7bdf97245eb9b12e7d7c10ab6abc2aba0f6a",
      "contractAddress": null,
      "gasUsedForL1": "0x169f",
      "l1BlockNumber": "0x6b0044"
    }
  ],
  "libraries": [],
  "pending": [],
  "returns": {},
  "timestamp": 1730752904,
  "chain": 421614,
  "commit": "34a11392"
}