{
  "transactions": [
    {
      "hash": "0x0556a5763a7dc60c0d0798f61d6fb1006aef01db3bfe08ad5a999dd0b762285e",
      "transactionType": "CALL",
      "contractName": null,
      "contractAddress": "0xf77c7bdf97245eb9b12e7d7c10ab6abc2aba0f6a",
      "function": "addDappAddr(uint256,string[])",
      "arguments": [
        "44",
        "[0x1211a2dd0d01848dc4042a7a354cb8a4c51df594]"
      ],
      "transaction": {
        "from": "0xe62ab4d111f968660c6b2188046f9b9ba53c4bae",
        "to": "0xf77c7bdf97245eb9b12e7d7c10ab6abc2aba0f6a",
        "gas": "0x13a3a",
        "value": "0x0",
        "input": "0xbb03a47e000000000000000000000000000000000000000000000000000000000000002c000000000000000000000000000000000000000000000000000000000000004000000000000000000000000000000000000000000000000000000000000000010000000000000000000000000000000000000000000000000000000000000020000000000000000000000000000000000000000000000000000000000000002a30783132313161326464306430313834386463343034326137613335346362386134633531646635393400000000000000000000000000000000000000000000",
        "nonce": "0x32e",
        "chainId": "0x66eee"
      },
      "additionalContracts": [],
      "isFixedGasLimit": false
    }
  ],
  "receipts": [
    {
      "status": "0x1",
      "cumulativeGasUsed": "0x4d647",
      "logs": [
        {
          "address": "0xf77c7bdf97245eb9b12e7d7c10ab6abc2aba0f6a",
          "topics": [
            "0x6e806e4274e1ae2fda14f84ae0177d6248dd126572ee44f546d4645c41ee2f77",
            "0x000000000000000000000000000000000000000000000000000000000000002c"
          ],
          "data": "0x000000000000000000000000000000000000000000000000000000000000002000000000000000000000000000000000000000000000000000000000000000010000000000000000000000000000000000000000000000000000000000000020000000000000000000000000000000000000000000000000000000000000002a30783132313161326464306430313834386463343034326137613335346362386134633531646635393400000000000000000000000000000000000000000000",
          "blockHash": "0x7171f38043499ff951b144b3605c923dc8a57c942e2ef2c996206fcf684dd198",
          "blockNumber": "0x5b2d290",
          "transactionHash": "0x0556a5763a7dc60c0d0798f61d6fb1006aef01db3bfe08ad5a999dd0b762285e",
          "transactionIndex": "0x2",
          "logIndex": "0x1",
          "removed": false
        }
      ],
      "logsBloom": "0x00000000000000000000000000000000000000000000800000000040000000000000000000000000000000000000000000000000000000000000000000000000000000000000000000000000000000000000000000000000000000000000000100000001000040000000000108000000000000000000000000000000004000000000000000000000000000000000000000000000000000000000000000000000000000000000000000000000000000000000000000000000000000000000000000000000000000000000000000000000000000000000000800000000000000000000000000000000000000000000000000000000000000000000000000000000",
      "type": "0x2",
      "transactionHash": "0x0556a5763a7dc60c0d0798f61d6fb1006aef01db3bfe08ad5a999dd0b762285e",
      "transactionIndex": "0x2",
      "blockHash": "0x7171f38043499ff951b144b3605c923dc8a57c942e2ef2c996206fcf684dd198",
      "blockNumber": "0x5b2d290",
      "gasUsed": "0xee7e",
      "effectiveGasPrice": "0x6d25e50",
      "from": "0xe62ab4d111f968660c6b2188046f9b9ba53c4bae",
      "to": "0xf77c7bdf97245eb9b12e7d7c10ab6abc2aba0f6a",
      "contractAddress": null,
      "gasUsedForL1": "0x0",
      "l1BlockNumber": "0x6b64b4"
    }
  ],
  "libraries": [],
  "pending": [],
  "returns": {},
  "timestamp": 1731093729,
  "chain": 421614,
  "commit": "ac6d4a5e"
}