{
  "transactions": [
    {
      "hash": "0x3c1f755207189a0b93a700ae98389936f7a1886073a27550ae3751c149126ef4",
      "transactionType": "CALL",
      "contractName": null,
      "contractAddress": "0xf77c7bdf97245eb9b12e7d7c10ab6abc2aba0f6a",
      "function": "addDappAddr(uint256,string[])",
      "arguments": [
        "47",
        "[0x6640ec42f86abcf799c21a070f7baf6db38a2ab9]"
      ],
      "transaction": {
        "from": "0xe62ab4d111f968660c6b2188046f9b9ba53c4bae",
        "to": "0xf77c7bdf97245eb9b12e7d7c10ab6abc2aba0f6a",
        "gas": "0x200cb",
        "value": "0x0",
        "input": "0xbb03a47e000000000000000000000000000000000000000000000000000000000000002f000000000000000000000000000000000000000000000000000000000000004000000000000000000000000000000000000000000000000000000000000000010000000000000000000000000000000000000000000000000000000000000020000000000000000000000000000000000000000000000000000000000000002a30783636343065633432663836616263663739396332316130373066376261663664623338613261623900000000000000000000000000000000000000000000",
        "nonce": "0x2f2",
        "chainId": "0x66eee"
      },
      "additionalContracts": [],
      "isFixedGasLimit": false
    }
  ],
  "receipts": [
    {
      "status": "0x1",
      "cumulativeGasUsed": "0x16791",
      "logs": [
        {
          "address": "0xf77c7bdf97245eb9b12e7d7c10ab6abc2aba0f6a",
          "topics": [
            "0x6e806e4274e1ae2fda14f84ae0177d6248dd126572ee44f546d4645c41ee2f77",
            "0x000000000000000000000000000000000000000000000000000000000000002f"
          ],
          "data": "0x000000000000000000000000000000000000000000000000000000000000002000000000000000000000000000000000000000000000000000000000000000010000000000000000000000000000000000000000000000000000000000000020000000000000000000000000000000000000000000000000000000000000002a30783636343065633432663836616263663739396332316130373066376261663664623338613261623900000000000000000000000000000000000000000000",
          "blockHash": "0x8d4c3580c2b12c5fa5bacc08b39197fe2a76157d2b7fd341d0eb9bb7716eb514",
          "blockNumber": "0x5a0a74f",
          "transactionHash": "0x3c1f755207189a0b93a700ae98389936f7a1886073a27550ae3751c149126ef4",
          "transactionIndex": "0x1",
          "logIndex": "0x0",
          "removed": false
        }
      ],
      "logsBloom": "0x00000000000000000000000000000000000080000000800000000040000000000000000000000000000000000000000000000000000000000000000000000000000000000000000000000000000000000000000000000000000000000000000100000001000040000000000008000000000000000000000000000000000000000000000000000000000000000000000000000000000000000000000000000000000000000000000000000000000000000000000000000000000000000000000000000000000000000000000000000000000000000000000000000000000000000000000000000000000000000000000000000000000004000000000000080000",
      "type": "0x2",
      "transactionHash": "0x3c1f755207189a0b93a700ae98389936f7a1886073a27550ae3751c149126ef4",
      "transactionIndex": "0x1",
      "blockHash": "0x8d4c3580c2b12c5fa5bacc08b39197fe2a76157d2b7fd341d0eb9bb7716eb514",
      "blockNumber": "0x5a0a74f",
      "gasUsed": "0x16791",
      "effectiveGasPrice": "0x5f5e100",
      "from": "0xe62ab4d111f968660c6b2188046f9b9ba53c4bae",
      "to": "0xf77c7bdf97245eb9b12e7d7c10ab6abc2aba0f6a",
      "contractAddress": null,
      "gasUsedForL1": "0x7913",
      "l1BlockNumber": "0x6b005d"
    }
  ],
  "libraries": [],
  "pending": [],
  "returns": {},
  "timestamp": 1730753208,
  "chain": 421614,
  "commit": "34a11392"
}