{
  "transactions": [
    {
      "hash": "0x55896e03903bec243b09c4cb763324aed47a3432110d5f76b35ee99531b2166a",
      "transactionType": "CALL",
      "contractName": null,
      "contractAddress": "0xf77c7bdf97245eb9b12e7d7c10ab6abc2aba0f6a",
      "function": "addDappAddr(uint256,string[])",
      "arguments": [
        "48",
        "[0x563c5c85cc7ba923c50b66479588e5b3b2c93470]"
      ],
      "transaction": {
        "from": "0xe62ab4d111f968660c6b2188046f9b9ba53c4bae",
        "to": "0xf77c7bdf97245eb9b12e7d7c10ab6abc2aba0f6a",
        "gas": "0x1a623",
        "value": "0x0",
        "input": "0xbb03a47e0000000000000000000000000000000000000000000000000000000000000030000000000000000000000000000000000000000000000000000000000000004000000000000000000000000000000000000000000000000000000000000000010000000000000000000000000000000000000000000000000000000000000020000000000000000000000000000000000000000000000000000000000000002a30783536336335633835636337626139323363353062363634373935383865356233623263393334373000000000000000000000000000000000000000000000",
        "nonce": "0x41e",
        "chainId": "0x66eee"
      },
      "additionalContracts": [],
      "isFixedGasLimit": false
    }
  ],
  "receipts": [
    {
      "status": "0x1",
      "cumulativeGasUsed": "0x29542",
      "logs": [
        {
          "address": "0xf77c7bdf97245eb9b12e7d7c10ab6abc2aba0f6a",
          "topics": [
            "0x6e806e4274e1ae2fda14f84ae0177d6248dd126572ee44f546d4645c41ee2f77",
            "0x0000000000000000000000000000000000000000000000000000000000000030"
          ],
          "data": "0x000000000000000000000000000000000000000000000000000000000000002000000000000000000000000000000000000000000000000000000000000000010000000000000000000000000000000000000000000000000000000000000020000000000000000000000000000000000000000000000000000000000000002a30783536336335633835636337626139323363353062363634373935383865356233623263393334373000000000000000000000000000000000000000000000",
          "blockHash": "0x4de5377265b567d17a651d663ecf6eea24104a0cff7ffb14325b5348031bb648",
          "blockNumber": "0x5e3d0b5",
          "transactionHash": "0x55896e03903bec243b09c4cb763324aed47a3432110d5f76b35ee99531b2166a",
          "transactionIndex": "0x2",
          "logIndex": "0x1",
          "removed": false
        }
      ],
      "logsBloom": "0x02000000000000000000000000000000000000000000800000000040000000000000000000000000000000000000000000000000000000000000000000000000000000000000000000000000000000000000000000000000000000000000000100000001000040000000000008000000000000000000000000000000000000000000000000000000000000000000000000000000000000000000000000000000000000000000000000000000000000000000000002000000000000000000000000000000000000000000000000000000000000000000000000000000000020000000000000000000000000000000000000000000000000000000000000000000",
      "type": "0x2",
      "transactionHash": "0x55896e03903bec243b09c4cb763324aed47a3432110d5f76b35ee99531b2166a",
      "transactionIndex": "0x2",
      "blockHash": "0x4de5377265b567d17a651d663ecf6eea24104a0cff7ffb14325b5348031bb648",
      "blockNumber": "0x5e3d0b5",
      "gasUsed": "0x12f37",
      "effectiveGasPrice": "0x5f5e100",
      "from": "0xe62ab4d111f968660c6b2188046f9b9ba53c4bae",
      "to": "0xf77c7bdf97245eb9b12e7d7c10ab6abc2aba0f6a",
      "contractAddress": null,
      "gasUsedForL1": "0x40b9",
      "l1BlockNumber": "0x6c8860"
    }
  ],
  "libraries": [],
  "pending": [],
  "returns": {},
  "timestamp": 1732067510,
  "chain": 421614,
  "commit": "4b2e1f8c"
}