{
  "transactions": [
    {
      "hash": "0x03b2a5d96fdf65f2fa18163cf073c524c7ebcd81729f1ff1832bd6bb28f21639",
      "transactionType": "CALL",
      "contractName": null,
      "contractAddress": "0xf77c7bdf97245eb9b12e7d7c10ab6abc2aba0f6a",
      "function": "addDappAddr(uint256,string[])",
      "arguments": [
        "48",
        "[0xe60cc236b36ba33b07832ec9bfeaf875a409a1d3]"
      ],
      "transaction": {
        "from": "0xe62ab4d111f968660c6b2188046f9b9ba53c4bae",
        "to": "0xf77c7bdf97245eb9b12e7d7c10ab6abc2aba0f6a",
        "gas": "0x2236e",
        "value": "0x0",
        "input": "0xbb03a47e0000000000000000000000000000000000000000000000000000000000000030000000000000000000000000000000000000000000000000000000000000004000000000000000000000000000000000000000000000000000000000000000010000000000000000000000000000000000000000000000000000000000000020000000000000000000000000000000000000000000000000000000000000002a30786536306363323336623336626133336230373833326563396266656166383735613430396131643300000000000000000000000000000000000000000000",
        "nonce": "0x3b5",
        "chainId": "0x66eee"
      },
      "additionalContracts": [],
      "isFixedGasLimit": false
    }
  ],
  "receipts": [
    {
      "status": "0x1",
      "cumulativeGasUsed": "0x353d7",
      "logs": [
        {
          "address": "0xf77c7bdf97245eb9b12e7d7c10ab6abc2aba0f6a",
          "topics": [
            "0x6e806e4274e1ae2fda14f84ae0177d6248dd126572ee44f546d4645c41ee2f77",
            "0x0000000000000000000000000000000000000000000000000000000000000030"
          ],
          "data": "0x000000000000000000000000000000000000000000000000000000000000002000000000000000000000000000000000000000000000000000000000000000010000000000000000000000000000000000000000000000000000000000000020000000000000000000000000000000000000000000000000000000000000002a30786536306363323336623336626133336230373833326563396266656166383735613430396131643300000000000000000000000000000000000000000000",
          "blockHash": "0x6b2442c89386c5f86349393232a4bc30e4db8b1e8f157b77d08f37b512a37d5b",
          "blockNumber": "0x5e1dbd1",
          "transactionHash": "0x03b2a5d96fdf65f2fa18163cf073c524c7ebcd81729f1ff1832bd6bb28f21639",
          "transactionIndex": "0x3",
          "logIndex": "0x1",
          "removed": false
        }
      ],
      "logsBloom": "0x02000000000000000000000000000000000000000000800000000040000000000000000000000000000000000000000000000000000000000000000000000000000000000000000000000000000000000000000000000000000000000000000100000001000040000000000008000000000000000000000000000000000000000000000000000000000000000000000000000000000000000000000000000000000000000000000000000000000000000000000002000000000000000000000000000000000000000000000000000000000000000000000000000000000020000000000000000000000000000000000000000000000000000000000000000000",
      "type": "0x2",
      "transactionHash": "0x03b2a5d96fdf65f2fa18163cf073c524c7ebcd81729f1ff1832bd6bb28f21639",
      "transactionIndex": "0x3",
      "blockHash": "0x6b2442c89386c5f86349393232a4bc30e4db8b1e8f157b77d08f37b512a37d5b",
      "blockNumber": "0x5e1dbd1",
      "gasUsed": "0x17cb0",
      "effectiveGasPrice": "0x5f5e100",
      "from": "0xe62ab4d111f968660c6b2188046f9b9ba53c4bae",
      "to": "0xf77c7bdf97245eb9b12e7d7c10ab6abc2aba0f6a",
      "contractAddress": null,
      "gasUsedForL1": "0x8e32",
      "l1BlockNumber": "0x6c7d8d"
    }
  ],
  "libraries": [],
  "pending": [],
  "returns": {},
  "timestamp": 1732031797,
  "chain": 421614,
  "commit": "b96f5048"
}