{
  "transactions": [
    {
      "hash": "0x17696bf64d099516cbd32d0370c87bedfd0eeef157a63a5e95fb565b61a5ecfc",
      "transactionType": "CALL",
      "contractName": null,
      "contractAddress": "0xf77c7bdf97245eb9b12e7d7c10ab6abc2aba0f6a",
      "function": "addDappAddr(uint256,string[])",
      "arguments": [
        "45",
        "[0x9a0f81de582ce9194feadc6ccefaf9ea70451616]"
      ],
      "transaction": {
        "from": "0xe62ab4d111f968660c6b2188046f9b9ba53c4bae",
        "to": "0xf77c7bdf97245eb9b12e7d7c10ab6abc2aba0f6a",
        "gas": "0x6a0b5",
        "value": "0x0",
        "input": "0xbb03a47e000000000000000000000000000000000000000000000000000000000000002d000000000000000000000000000000000000000000000000000000000000004000000000000000000000000000000000000000000000000000000000000000010000000000000000000000000000000000000000000000000000000000000020000000000000000000000000000000000000000000000000000000000000002a30783961306638316465353832636539313934666561646336636365666166396561373034353136313600000000000000000000000000000000000000000000",
        "nonce": "0x453",
        "chainId": "0x66eee"
      },
      "additionalContracts": [],
      "isFixedGasLimit": false
    }
  ],
  "receipts": [
    {
      "status": "0x1",
      "cumulativeGasUsed": "0x42dbc",
      "logs": [
        {
          "address": "0xf77c7bdf97245eb9b12e7d7c10ab6abc2aba0f6a",
          "topics": [
            "0x6e806e4274e1ae2fda14f84ae0177d6248dd126572ee44f546d4645c41ee2f77",
            "0x000000000000000000000000000000000000000000000000000000000000002d"
          ],
          "data": "0x000000000000000000000000000000000000000000000000000000000000002000000000000000000000000000000000000000000000000000000000000000010000000000000000000000000000000000000000000000000000000000000020000000000000000000000000000000000000000000000000000000000000002a30783961306638316465353832636539313934666561646336636365666166396561373034353136313600000000000000000000000000000000000000000000",
          "blockHash": "0x0e9acbc282808b8b3d48fabf5fbd7de06acd6c7db584102ce9c5910fb99ef3b0",
          "blockNumber": "0x5ebc102",
          "transactionHash": "0x17696bf64d099516cbd32d0370c87bedfd0eeef157a63a5e95fb565b61a5ecfc",
          "transactionIndex": "0x1",
          "logIndex": "0x0",
          "removed": false
        }
      ],
      "logsBloom": "0x00000000000000000000000000000000000000000000800000000040000000000000000000000000000000000000000000000000000000000000000400000000000000000000000000000000000000000000000000000000000000000000000100000001000040000000000008000000000000000000000000000000000000000000000000000000000000000000000000000000000000000000000000000000000000000000000000000000000000000000000000000000000010000000000000000000000000000000000000000000000000000000000000000000400000000000000000000000000000000000000000000000000000000000000000000000",
      "type": "0x2",
      "transactionHash": "0x17696bf64d099516cbd32d0370c87bedfd0eeef157a63a5e95fb565b61a5ecfc",
      "transactionIndex": "0x1",
      "blockHash": "0x0e9acbc282808b8b3d48fabf5fbd7de06acd6c7db584102ce9c5910fb99ef3b0",
      "blockNumber": "0x5ebc102",
      "gasUsed": "0x42dbc",
      "effectiveGasPrice": "0x5f5e100",
      "from": "0xe62ab4d111f968660c6b2188046f9b9ba53c4bae",
      "to": "0xf77c7bdf97245eb9b12e7d7c10ab6abc2aba0f6a",
      "contractAddress": null,
      "gasUsedForL1": "0x33f3e",
      "l1BlockNumber": "0x6cb57b"
    }
  ],
  "libraries": [],
  "pending": [],
  "returns": {},
  "timestamp": 1732214520,
  "chain": 421614,
  "commit": "4b2e1f8c"
}