{
  "transactions": [
    {
      "hash": "0x949f488d0e49298f7b222e386f4f27fba48070caea71b50eb4307e14d68abf58",
      "transactionType": "CALL",
      "contractName": null,
      "contractAddress": "0xf77c7bdf97245eb9b12e7d7c10ab6abc2aba0f6a",
      "function": "addDappAddr(uint256,string[])",
      "arguments": [
        "44",
        "[0xa9522e00101ee85f3b8e6a4f0723f5ea4a2f0a50]"
      ],
      "transaction": {
        "from": "0xe62ab4d111f968660c6b2188046f9b9ba53c4bae",
        "to": "0xf77c7bdf97245eb9b12e7d7c10ab6abc2aba0f6a",
        "gas": "0xc9e6f",
        "value": "0x0",
        "input": "0xbb03a47e000000000000000000000000000000000000000000000000000000000000002c000000000000000000000000000000000000000000000000000000000000004000000000000000000000000000000000000000000000000000000000000000010000000000000000000000000000000000000000000000000000000000000020000000000000000000000000000000000000000000000000000000000000002a30786139353232653030313031656538356633623865366134663037323366356561346132663061353000000000000000000000000000000000000000000000",
        "nonce": "0x44d",
        "chainId": "0x66eee"
      },
      "additionalContracts": [],
      "isFixedGasLimit": false
    }
  ],
  "receipts": [
    {
      "status": "0x1",
      "cumulativeGasUsed": "0x7c33d",
      "logs": [
        {
          "address": "0xf77c7bdf97245eb9b12e7d7c10ab6abc2aba0f6a",
          "topics": [
            "0x6e806e4274e1ae2fda14f84ae0177d6248dd126572ee44f546d4645c41ee2f77",
            "0x000000000000000000000000000000000000000000000000000000000000002c"
          ],
          "data": "0x000000000000000000000000000000000000000000000000000000000000002000000000000000000000000000000000000000000000000000000000000000010000000000000000000000000000000000000000000000000000000000000020000000000000000000000000000000000000000000000000000000000000002a30786139353232653030313031656538356633623865366134663037323366356561346132663061353000000000000000000000000000000000000000000000",
          "blockHash": "0x15af1947a5fd1c47fc2387150ab0eefb55294d0ac293c5aec1143874ce4e4b92",
          "blockNumber": "0x5ebbeac",
          "transactionHash": "0x949f488d0e49298f7b222e386f4f27fba48070caea71b50eb4307e14d68abf58",
          "transactionIndex": "0x1",
          "logIndex": "0x0",
          "removed": false
        }
      ],
      "logsBloom": "0x00000000000000000000000000000000000000000000800000000040000000000000000000000000000000000000000000000000000000000000000000000000000000000000000000000000000000000000000000000000000000000000000100000001000040000000000108000000000000000000000000000000004000000000000000000000000000000000000000000000000000000000000000000000000000000000000000000000000000000000000000000000000000000000000000000000000000000000000000000000000000000000000800000000000000000000000000000000000000000000000000000000000000000000000000000000",
      "type": "0x2",
      "transactionHash": "0x949f488d0e49298f7b222e386f4f27fba48070caea71b50eb4307e14d68abf58",
      "transactionIndex": "0x1",
      "blockHash": "0x15af1947a5fd1c47fc2387150ab0eefb55294d0ac293c5aec1143874ce4e4b92",
      "blockNumber": "0x5ebbeac",
      "gasUsed": "0x7c33d",
      "effectiveGasPrice": "0x5f5e100",
      "from": "0xe62ab4d111f968660c6b2188046f9b9ba53c4bae",
      "to": "0xf77c7bdf97245eb9b12e7d7c10ab6abc2aba0f6a",
      "contractAddress": null,
      "gasUsedForL1": "0x6d4bf",
      "l1BlockNumber": "0x6cb56f"
    }
  ],
  "libraries": [],
  "pending": [],
  "returns": {},
  "timestamp": 1732214357,
  "chain": 421614,
  "commit": "4b2e1f8c"
}