{
  "transactions": [
    {
      "hash": "0x1d20d3c08bafdf7f6ce6a431e1f4e85b1d05feb3768615a4e4f225fb3ad76db1",
      "transactionType": "CALL",
      "contractName": null,
      "contractAddress": "0xf77c7bdf97245eb9b12e7d7c10ab6abc2aba0f6a",
      "function": "addDappAddr(uint256,string[])",
      "arguments": [
        "47",
        "[0x0a47eff3560ee2c0a2773f3927b6869f193f6858]"
      ],
      "transaction": {
        "from": "0xe62ab4d111f968660c6b2188046f9b9ba53c4bae",
        "to": "0xf77c7bdf97245eb9b12e7d7c10ab6abc2aba0f6a",
        "gas": "0x158ce",
        "value": "0x0",
        "input": "0xbb03a47e000000000000000000000000000000000000000000000000000000000000002f000000000000000000000000000000000000000000000000000000000000004000000000000000000000000000000000000000000000000000000000000000010000000000000000000000000000000000000000000000000000000000000020000000000000000000000000000000000000000000000000000000000000002a30783061343765666633353630656532633061323737336633393237623638363966313933663638353800000000000000000000000000000000000000000000",
        "nonce": "0x293",
        "chainId": "0x66eee"
      },
      "additionalContracts": [],
      "isFixedGasLimit": false
    }
  ],
  "receipts": [
    {
      "status": "0x1",
      "cumulativeGasUsed": "0x100e8",
      "logs": [
        {
          "address": "0xf77c7bdf97245eb9b12e7d7c10ab6abc2aba0f6a",
          "topics": [
            "0x6e806e4274e1ae2fda14f84ae0177d6248dd126572ee44f546d4645c41ee2f77",
            "0x000000000000000000000000000000000000000000000000000000000000002f"
          ],
          "data": "0x000000000000000000000000000000000000000000000000000000000000002000000000000000000000000000000000000000000000000000000000000000010000000000000000000000000000000000000000000000000000000000000020000000000000000000000000000000000000000000000000000000000000002a30783061343765666633353630656532633061323737336633393237623638363966313933663638353800000000000000000000000000000000000000000000",
          "blockHash": "0xb40014433f6915217cf52a5da2792f9755489ae7de05ac641464f3d68138b4e4",
          "blockNumber": "0x596d6d7",
          "transactionHash": "0x1d20d3c08bafdf7f6ce6a431e1f4e85b1d05feb3768615a4e4f225fb3ad76db1",
          "transactionIndex": "0x1",
          "logIndex": "0x0",
          "removed": false
        }
      ],
      "logsBloom": "0x00000000000000000000000000000000000080000000800000000040000000000000000000000000000000000000000000000000000000000000000000000000000000000000000000000000000000000000000000000000000000000000000100000001000040000000000008000000000000000000000000000000000000000000000000000000000000000000000000000000000000000000000000000000000000000000000000000000000000000000000000000000000000000000000000000000000000000000000000000000000000000000000000000000000000000000000000000000000000000000000000000000000004000000000000080000",
      "type": "0x2",
      "transactionHash": "0x1d20d3c08bafdf7f6ce6a431e1f4e85b1d05feb3768615a4e4f225fb3ad76db1",
      "transactionIndex": "0x1",
      "blockHash": "0xb40014433f6915217cf52a5da2792f9755489ae7de05ac641464f3d68138b4e4",
      "blockNumber": "0x596d6d7",
      "gasUsed": "0x100e8",
      "effectiveGasPrice": "0x5f5e100",
      "from": "0xe62ab4d111f968660c6b2188046f9b9ba53c4bae",
      "to": "0xf77c7bdf97245eb9b12e7d7c10ab6abc2aba0f6a",
      "contractAddress": null,
      "gasUsedForL1": "0x126a",
      "l1BlockNumber": "0x6ac38f"
    }
  ],
  "libraries": [],
  "pending": [],
  "returns": {},
  "timestamp": 1730549712,
  "chain": 421614,
  "commit": "34a11392"
}