{
  "transactions": [
    {
      "hash": "0x3dec3bb548a1b263f106ee58853cec2edf7b8464f16bd74cdcee4593a32ba8d7",
      "transactionType": "CALL",
      "contractName": null,
      "contractAddress": "0xf77c7bdf97245eb9b12e7d7c10ab6abc2aba0f6a",
      "function": "addDappAddr(uint256,string[])",
      "arguments": [
        "47",
        "[0x2cd9f1d9000d8752cc7653e10f259f7d9a94a5e7]"
      ],
      "transaction": {
        "from": "0xe62ab4d111f968660c6b2188046f9b9ba53c4bae",
        "to": "0xf77c7bdf97245eb9b12e7d7c10ab6abc2aba0f6a",
        "gas": "0x158e8",
        "value": "0x0",
        "input": "0xbb03a47e000000000000000000000000000000000000000000000000000000000000002f000000000000000000000000000000000000000000000000000000000000004000000000000000000000000000000000000000000000000000000000000000010000000000000000000000000000000000000000000000000000000000000020000000000000000000000000000000000000000000000000000000000000002a30783263643966316439303030643837353263633736353365313066323539663764396139346135653700000000000000000000000000000000000000000000",
        "nonce": "0x290",
        "chainId": "0x66eee"
      },
      "additionalContracts": [],
      "isFixedGasLimit": false
    }
  ],
  "receipts": [
    {
      "status": "0x1",
      "cumulativeGasUsed": "0x100c4",
      "logs": [
        {
          "address": "0xf77c7bdf97245eb9b12e7d7c10ab6abc2aba0f6a",
          "topics": [
            "0x6e806e4274e1ae2fda14f84ae0177d6248dd126572ee44f546d4645c41ee2f77",
            "0x000000000000000000000000000000000000000000000000000000000000002f"
          ],
          "data": "0x000000000000000000000000000000000000000000000000000000000000002000000000000000000000000000000000000000000000000000000000000000010000000000000000000000000000000000000000000000000000000000000020000000000000000000000000000000000000000000000000000000000000002a30783263643966316439303030643837353263633736353365313066323539663764396139346135653700000000000000000000000000000000000000000000",
          "blockHash": "0x9bf436a50f44f27e3a0042124d7e94664e8973a695b17f7543c5596ddfc6bf23",
          "blockNumber": "0x596d35c",
          "transactionHash": "0x3dec3bb548a1b263f106ee58853cec2edf7b8464f16bd74cdcee4593a32ba8d7",
          "transactionIndex": "0x1",
          "logIndex": "0x0",
          "removed": false
        }
      ],
      "logsBloom": "0x00000000000000000000000000000000000080000000800000000040000000000000000000000000000000000000000000000000000000000000000000000000000000000000000000000000000000000000000000000000000000000000000100000001000040000000000008000000000000000000000000000000000000000000000000000000000000000000000000000000000000000000000000000000000000000000000000000000000000000000000000000000000000000000000000000000000000000000000000000000000000000000000000000000000000000000000000000000000000000000000000000000000004000000000000080000",
      "type": "0x2",
      "transactionHash": "0x3dec3bb548a1b263f106ee58853cec2edf7b8464f16bd74cdcee4593a32ba8d7",
      "transactionIndex": "0x1",
      "blockHash": "0x9bf436a50f44f27e3a0042124d7e94664e8973a695b17f7543c5596ddfc6bf23",
      "blockNumber": "0x596d35c",
      "gasUsed": "0x100c4",
      "effectiveGasPrice": "0x5f5e100",
      "from": "0xe62ab4d111f968660c6b2188046f9b9ba53c4bae",
      "to": "0xf77c7bdf97245eb9b12e7d7c10ab6abc2aba0f6a",
      "contractAddress": null,
      "gasUsedForL1": "0x1246",
      "l1BlockNumber": "0x6ac37b"
    }
  ],
  "libraries": [],
  "pending": [],
  "returns": {},
  "timestamp": 1730549456,
  "chain": 421614,
  "commit": "34a11392"
}