{
  "transactions": [
    {
      "hash": "0x24a06c9d9769b686c67c2937d12bde945040ba8867f7382c7eb7ddae54c131e9",
      "transactionType": "CALL",
      "contractName": null,
      "contractAddress": "0xf77c7bdf97245eb9b12e7d7c10ab6abc2aba0f6a",
      "function": "addDappAddr(uint256,string[])",
      "arguments": [
        "48",
        "[0x7ed4d0234e6c0f6704463e9a62a33ab7b7846a09]"
      ],
      "transaction": {
        "from": "0xe62ab4d111f968660c6b2188046f9b9ba53c4bae",
        "to": "0xf77c7bdf97245eb9b12e7d7c10ab6abc2aba0f6a",
        "gas": "0x13ca2",
        "value": "0x0",
        "input": "0xbb03a47e0000000000000000000000000000000000000000000000000000000000000030000000000000000000000000000000000000000000000000000000000000004000000000000000000000000000000000000000000000000000000000000000010000000000000000000000000000000000000000000000000000000000000020000000000000000000000000000000000000000000000000000000000000002a30783765643464303233346536633066363730343436336539613632613333616237623738343661303900000000000000000000000000000000000000000000",
        "nonce": "0x398",
        "chainId": "0x66eee"
      },
      "additionalContracts": [],
      "isFixedGasLimit": false
    }
  ],
  "receipts": [
    {
      "status": "0x1",
      "cumulativeGasUsed": "0x28b44",
      "logs": [
        {
          "address": "0xf77c7bdf97245eb9b12e7d7c10ab6abc2aba0f6a",
          "topics": [
            "0x6e806e4274e1ae2fda14f84ae0177d6248dd126572ee44f546d4645c41ee2f77",
            "0x0000000000000000000000000000000000000000000000000000000000000030"
          ],
          "data": "0x000000000000000000000000000000000000000000000000000000000000002000000000000000000000000000000000000000000000000000000000000000010000000000000000000000000000000000000000000000000000000000000020000000000000000000000000000000000000000000000000000000000000002a30783765643464303233346536633066363730343436336539613632613333616237623738343661303900000000000000000000000000000000000000000000",
          "blockHash": "0x31c6fa0b9a6805f4096980ac6bcd8232deff91ecbb130b0db977b90d977eb9b9",
          "blockNumber": "0x5d98d90",
          "transactionHash": "0x24a06c9d9769b686c67c2937d12bde945040ba8867f7382c7eb7ddae54c131e9",
          "transactionIndex": "0x2",
          "logIndex": "0x0",
          "removed": false
        }
      ],
      "logsBloom": "0x02000000000000000000000000000000000000000000800000000040000000000000000000000000000000000000000000000000000000000000000000000000000000000000000000000000000000000000000000000000000000000000000100000001000040000000000008000000000000000000000000000000000000000000000000000000000000000000000000000000000000000000000000000000000000000000000000000000000000000000000002000000000000000000000000000000000000000000000000000000000000000000000000000000000020000000000000000000000000000000000000000000000000000000000000000000",
      "type": "0x2",
      "transactionHash": "0x24a06c9d9769b686c67c2937d12bde945040ba8867f7382c7eb7ddae54c131e9",
      "transactionIndex": "0x2",
      "blockHash": "0x31c6fa0b9a6805f4096980ac6bcd8232deff91ecbb130b0db977b90d977eb9b9",
      "blockNumber": "0x5d98d90",
      "gasUsed": "0xeffb",
      "effectiveGasPrice": "0x5f5e100",
      "from": "0xe62ab4d111f968660c6b2188046f9b9ba53c4bae",
      "to": "0xf77c7bdf97245eb9b12e7d7c10ab6abc2aba0f6a",
      "contractAddress": null,
      "gasUsedForL1": "0x17d",
      "l1BlockNumber": "0x6c46bb"
    }
  ],
  "libraries": [],
  "pending": [],
  "returns": {},
  "timestamp": 1731852507,
  "chain": 421614,
  "commit": "b96f5048"
}