{
  "transactions": [
    {
      "hash": "0xe6186824adae7231b249b2929f5fc4d35d1076777332f20daf2e0c09d05b7d56",
      "transactionType": "CALL",
      "contractName": null,
      "contractAddress": "0xf77c7bdf97245eb9b12e7d7c10ab6abc2aba0f6a",
      "function": "addDappAddr(uint256,string[])",
      "arguments": [
        "44",
        "[0x66dc636132fb9b7f6ed858928b65864d3fd0ea67]"
      ],
      "transaction": {
        "from": "0xe62ab4d111f968660c6b2188046f9b9ba53c4bae",
        "to": "0xf77c7bdf97245eb9b12e7d7c10ab6abc2aba0f6a",
        "gas": "0xc9e6f",
        "value": "0x0",
        "input": "0xbb03a47e000000000000000000000000000000000000000000000000000000000000002c000000000000000000000000000000000000000000000000000000000000004000000000000000000000000000000000000000000000000000000000000000010000000000000000000000000000000000000000000000000000000000000020000000000000000000000000000000000000000000000000000000000000002a30783636646336333631333266623962376636656438353839323862363538363464336664306561363700000000000000000000000000000000000000000000",
        "nonce": "0x44e",
        "chainId": "0x66eee"
      },
      "additionalContracts": [],
      "isFixedGasLimit": false
    }
  ],
  "receipts": [
    {
      "status": "0x1",
      "cumulativeGasUsed": "0xfa6cd",
      "logs": [
        {
          "address": "0xf77c7bdf97245eb9b12e7d7c10ab6abc2aba0f6a",
          "topics": [
            "0x6e806e4274e1ae2fda14f84ae0177d6248dd126572ee44f546d4645c41ee2f77",
            "0x000000000000000000000000000000000000000000000000000000000000002c"
          ],
          "data": "0x000000000000000000000000000000000000000000000000000000000000002000000000000000000000000000000000000000000000000000000000000000010000000000000000000000000000000000000000000000000000000000000020000000000000000000000000000000000000000000000000000000000000002a30783636646336333631333266623962376636656438353839323862363538363464336664306561363700000000000000000000000000000000000000000000",
          "blockHash": "0x4f21432898d4be4d2f3dc1ec7311475a479f8bae53d06f5f5184dcda8de0fb31",
          "blockNumber": "0x5ebbf00",
          "transactionHash": "0xe6186824adae7231b249b2929f5fc4d35d1076777332f20daf2e0c09d05b7d56",
          "transactionIndex": "0x2",
          "logIndex": "0x1",
          "removed": false
        }
      ],
      "logsBloom": "0x00000000000000000000000000000000000000000000800000000040000000000000000000000000000000000000000000000000000000000000000000000000000000000000000000000000000000000000000000000000000000000000000100000001000040000000000108000000000000000000000000000000004000000000000000000000000000000000000000000000000000000000000000000000000000000000000000000000000000000000000000000000000000000000000000000000000000000000000000000000000000000000000800000000000000000000000000000000000000000000000000000000000000000000000000000000",
      "type": "0x2",
      "transactionHash": "0xe6186824adae7231b249b2929f5fc4d35d1076777332f20daf2e0c09d05b7d56",
      "transactionIndex": "0x2",
      "blockHash": "0x4f21432898d4be4d2f3dc1ec7311475a479f8bae53d06f5f5184dcda8de0fb31",
      "blockNumber": "0x5ebbf00",
      "gasUsed": "0x7f19b",
      "effectiveGasPrice": "0x5f5e100",
      "from": "0xe62ab4d111f968660c6b2188046f9b9ba53c4bae",
      "to": "0xf77c7bdf97245eb9b12e7d7c10ab6abc2aba0f6a",
      "contractAddress": null,
      "gasUsedForL1": "0x7031d",
      "l1BlockNumber": "0x6cb571"
    }
  ],
  "libraries": [],
  "pending": [],
  "returns": {},
  "timestamp": 1732214380,
  "chain": 421614,
  "commit": "4b2e1f8c"
}