{
  "transactions": [
    {
      "hash": "0xb9f0aba40d9731ed559d3d8a456368e7ac7683c20043fe3335e0a7d7d2c335c2",
      "transactionType": "CALL",
      "contractName": null,
      "contractAddress": "0xf77c7bdf97245eb9b12e7d7c10ab6abc2aba0f6a",
      "function": "addDappAddr(uint256,string[])",
      "arguments": [
        "45",
        "[0xb008b6cc593fc290ed03d5011e90f4e9d19f9a87]"
      ],
      "transaction": {
        "from": "0xe62ab4d111f968660c6b2188046f9b9ba53c4bae",
        "to": "0xf77c7bdf97245eb9b12e7d7c10ab6abc2aba0f6a",
        "gas": "0x18e0c",
        "value": "0x0",
        "input": "0xbb03a47e000000000000000000000000000000000000000000000000000000000000002d000000000000000000000000000000000000000000000000000000000000004000000000000000000000000000000000000000000000000000000000000000010000000000000000000000000000000000000000000000000000000000000020000000000000000000000000000000000000000000000000000000000000002a30786230303862366363353933666332393065643033643530313165393066346539643139663961383700000000000000000000000000000000000000000000",
        "nonce": "0x412",
        "chainId": "0x66eee"
      },
      "additionalContracts": [],
      "isFixedGasLimit": false
    }
  ],
  "receipts": [
    {
      "status": "0x1",
      "cumulativeGasUsed": "0x26856",
      "logs": [
        {
          "address": "0xf77c7bdf97245eb9b12e7d7c10ab6abc2aba0f6a",
          "topics": [
            "0x6e806e4274e1ae2fda14f84ae0177d6248dd126572ee44f546d4645c41ee2f77",
            "0x000000000000000000000000000000000000000000000000000000000000002d"
          ],
          "data": "0x000000000000000000000000000000000000000000000000000000000000002000000000000000000000000000000000000000000000000000000000000000010000000000000000000000000000000000000000000000000000000000000020000000000000000000000000000000000000000000000000000000000000002a30786230303862366363353933666332393065643033643530313165393066346539643139663961383700000000000000000000000000000000000000000000",
          "blockHash": "0x1d50893b7a512814095324f3f24aa8db55a6ce04d425dac98974351ab5672abc",
          "blockNumber": "0x5e3cbf0",
          "transactionHash": "0xb9f0aba40d9731ed559d3d8a456368e7ac7683c20043fe3335e0a7d7d2c335c2",
          "transactionIndex": "0x3",
          "logIndex": "0x0",
          "removed": false
        }
      ],
      "logsBloom": "0x00000000000000000000000000000000000000000000800000000040000000000000000000000000000000000000000000000000000000000000000400000000000000000000000000000000000000000000000000000000000000000000000100000001000040000000000008000000000000000000000000000000000000000000000000000000000000000000000000000000000000000000000000000000000000000000000000000000000000000000000000000000000010000000000000000000000000000000000000000000000000000000000000000000400000000000000000000000000000000000000000000000000000000000000000000000",
      "type": "0x2",
      "transactionHash": "0xb9f0aba40d9731ed559d3d8a456368e7ac7683c20043fe3335e0a7d7d2c335c2",
      "transactionIndex": "0x3",
      "blockHash": "0x1d50893b7a512814095324f3f24aa8db55a6ce04d425dac98974351ab5672abc",
      "blockNumber": "0x5e3cbf0",
      "gasUsed": "0x12284",
      "effectiveGasPrice": "0x5f5e100",
      "from": "0xe62ab4d111f968660c6b2188046f9b9ba53c4bae",
      "to": "0xf77c7bdf97245eb9b12e7d7c10ab6abc2aba0f6a",
      "contractAddress": null,
      "gasUsedForL1": "0x3406",
      "l1BlockNumber": "0x6c8848"
    }
  ],
  "libraries": [],
  "pending": [],
  "returns": {},
  "timestamp": 1732067190,
  "chain": 421614,
  "commit": "4b2e1f8c"
}