{
  "transactions": [
    {
      "hash": "0x1adf10b9b4734613663f0e25b905c7c8cfa6c4a3d6160ea0d130a0666ddc7f83",
      "transactionType": "CALL",
      "contractName": null,
      "contractAddress": "0xf77c7bdf97245eb9b12e7d7c10ab6abc2aba0f6a",
      "function": "addDappAddr(uint256,string[])",
      "arguments": [
        "48",
        "[0x0f21cb137b097dc120abbb0ec6fb89c605e5f476]"
      ],
      "transaction": {
        "from": "0xe62ab4d111f968660c6b2188046f9b9ba53c4bae",
        "to": "0xf77c7bdf97245eb9b12e7d7c10ab6abc2aba0f6a",
        "gas": "0x1573b",
        "value": "0x0",
        "input": "0xbb03a47e0000000000000000000000000000000000000000000000000000000000000030000000000000000000000000000000000000000000000000000000000000004000000000000000000000000000000000000000000000000000000000000000010000000000000000000000000000000000000000000000000000000000000020000000000000000000000000000000000000000000000000000000000000002a30783066323163623133376230393764633132306162626230656336666238396336303565356634373600000000000000000000000000000000000000000000",
        "nonce": "0x29c",
        "chainId": "0x66eee"
      },
      "additionalContracts": [],
      "isFixedGasLimit": false
    }
  ],
  "receipts": [
    {
      "status": "0x1",
      "cumulativeGasUsed": "0xe39d80",
      "logs": [
        {
          "address": "0xf77c7bdf97245eb9b12e7d7c10ab6abc2aba0f6a",
          "topics": [
            "0x6e806e4274e1ae2fda14f84ae0177d6248dd126572ee44f546d4645c41ee2f77",
            "0x0000000000000000000000000000000000000000000000000000000000000030"
          ],
          "data": "0x000000000000000000000000000000000000000000000000000000000000002000000000000000000000000000000000000000000000000000000000000000010000000000000000000000000000000000000000000000000000000000000020000000000000000000000000000000000000000000000000000000000000002a30783066323163623133376230393764633132306162626230656336666238396336303565356634373600000000000000000000000000000000000000000000",
          "blockHash": "0x793735a60c222073ea449f2e2e8ca2567e88db5489fdf4cb7a76541c6cd5ceff",
          "blockNumber": "0x596dc87",
          "transactionHash": "0x1adf10b9b4734613663f0e25b905c7c8cfa6c4a3d6160ea0d130a0666ddc7f83",
          "transactionIndex": "0x5d",
          "logIndex": "0x9f",
          "removed": false
        }
      ],
      "logsBloom": "0x02000000000000000000000000000000000000000000800000000040000000000000000000000000000000000000000000000000000000000000000000000000000000000000000000000000000000000000000000000000000000000000000100000001000040000000000008000000000000000000000000000000000000000000000000000000000000000000000000000000000000000000000000000000000000000000000000000000000000000000000002000000000000000000000000000000000000000000000000000000000000000000000000000000000020000000000000000000000000000000000000000000000000000000000000000000",
      "type": "0x2",
      "transactionHash": "0x1adf10b9b4734613663f0e25b905c7c8cfa6c4a3d6160ea0d130a0666ddc7f83",
      "transactionIndex": "0x5d",
      "blockHash": "0x793735a60c222073ea449f2e2e8ca2567e88db5489fdf4cb7a76541c6cd5ceff",
      "blockNumber": "0x596dc87",
      "gasUsed": "0xff3b",
      "effectiveGasPrice": "0x668a000",
      "from": "0xe62ab4d111f968660c6b2188046f9b9ba53c4bae",
      "to": "0xf77c7bdf97245eb9b12e7d7c10ab6abc2aba0f6a",
      "contractAddress": null,
      "gasUsedForL1": "0x10bd",
      "l1BlockNumber": "0x6ac3b0"
    }
  ],
  "libraries": [],
  "pending": [],
  "returns": {},
  "timestamp": 1730550131,
  "chain": 421614,
  "commit": "34a11392"
}