{
  "transactions": [
    {
      "hash": "0x00a4560a8952eaec41e099ac71ad9bfdf7cb8d9f127a908242ff20bf364004ba",
      "transactionType": "CALL",
      "contractName": null,
      "contractAddress": "0xf77c7bdf97245eb9b12e7d7c10ab6abc2aba0f6a",
      "function": "addDappAddr(uint256,string[])",
      "arguments": [
        "47",
        "[0xdc432bc497a9e38f3ae319842777c9829aac47c4]"
      ],
      "transaction": {
        "from": "0xe62ab4d111f968660c6b2188046f9b9ba53c4bae",
        "to": "0xf77c7bdf97245eb9b12e7d7c10ab6abc2aba0f6a",
        "gas": "0x146a5",
        "value": "0x0",
        "input": "0xbb03a47e000000000000000000000000000000000000000000000000000000000000002f000000000000000000000000000000000000000000000000000000000000004000000000000000000000000000000000000000000000000000000000000000010000000000000000000000000000000000000000000000000000000000000020000000000000000000000000000000000000000000000000000000000000002a30786463343332626334393761396533386633616533313938343237373763393832396161633437633400000000000000000000000000000000000000000000",
        "nonce": "0x28b",
        "chainId": "0x66eee"
      },
      "additionalContracts": [],
      "isFixedGasLimit": false
    }
  ],
  "receipts": [
    {
      "status": "0x1",
      "cumulativeGasUsed": "0xf625",
      "logs": [
        {
          "address": "0xf77c7bdf97245eb9b12e7d7c10ab6abc2aba0f6a",
          "topics": [
            "0x6e806e4274e1ae2fda14f84ae0177d6248dd126572ee44f546d4645c41ee2f77",
            "0x000000000000000000000000000000000000000000000000000000000000002f"
          ],
          "data": "0x000000000000000000000000000000000000000000000000000000000000002000000000000000000000000000000000000000000000000000000000000000010000000000000000000000000000000000000000000000000000000000000020000000000000000000000000000000000000000000000000000000000000002a30786463343332626334393761396533386633616533313938343237373763393832396161633437633400000000000000000000000000000000000000000000",
          "blockHash": "0x36360c9c0abf0f6247382535f05531ab736935861f7d55496ad0f4865bba6971",
          "blockNumber": "0x596d145",
          "transactionHash": "0x00a4560a8952eaec41e099ac71ad9bfdf7cb8d9f127a908242ff20bf364004ba",
          "transactionIndex": "0x1",
          "logIndex": "0x0",
          "removed": false
        }
      ],
      "logsBloom": "0x00000000000000000000000000000000000080000000800000000040000000000000000000000000000000000000000000000000000000000000000000000000000000000000000000000000000000000000000000000000000000000000000100000001000040000000000008000000000000000000000000000000000000000000000000000000000000000000000000000000000000000000000000000000000000000000000000000000000000000000000000000000000000000000000000000000000000000000000000000000000000000000000000000000000000000000000000000000000000000000000000000000000004000000000000080000",
      "type": "0x2",
      "transactionHash": "0x00a4560a8952eaec41e099ac71ad9bfdf7cb8d9f127a908242ff20bf364004ba",
      "transactionIndex": "0x1",
      "blockHash": "0x36360c9c0abf0f6247382535f05531ab736935861f7d55496ad0f4865bba6971",
      "blockNumber": "0x596d145",
      "gasUsed": "0xf625",
      "effectiveGasPrice": "0x5f5e100",
      "from": "0xe62ab4d111f968660c6b2188046f9b9ba53c4bae",
      "to": "0xf77c7bdf97245eb9b12e7d7c10ab6abc2aba0f6a",
      "contractAddress": null,
      "gasUsedForL1": "0x7a7",
      "l1BlockNumber": "0x6ac36f"
    }
  ],
  "libraries": [],
  "pending": [],
  "returns": {},
  "timestamp": 1730549304,
  "chain": 421614,
  "commit": "34a11392"
}