{
  "transactions": [
    {
      "hash": "0x835542e555e3494fbdbf3feaee993166054ea835c02d72457881d017ff93d8cb",
      "transactionType": "CALL",
      "contractName": null,
      "contractAddress": "0xf77c7bdf97245eb9b12e7d7c10ab6abc2aba0f6a",
      "function": "addDappAddr(uint256,string[])",
      "arguments": [
        "45",
        "[0xd586ea1fce09384f71b69e80f643135fc0641def]"
      ],
      "transaction": {
        "from": "0xe62ab4d111f968660c6b2188046f9b9ba53c4bae",
        "to": "0xf77c7bdf97245eb9b12e7d7c10ab6abc2aba0f6a",
        "gas": "0x697b3",
        "value": "0x0",
        "input": "0xbb03a47e000000000000000000000000000000000000000000000000000000000000002d000000000000000000000000000000000000000000000000000000000000004000000000000000000000000000000000000000000000000000000000000000010000000000000000000000000000000000000000000000000000000000000020000000000000000000000000000000000000000000000000000000000000002a30786435383665613166636530393338346637316236396538306636343331333566633036343164656600000000000000000000000000000000000000000000",
        "nonce": "0x452",
        "chainId": "0x66eee"
      },
      "additionalContracts": [],
      "isFixedGasLimit": false
    }
  ],
  "receipts": [
    {
      "status": "0x1",
      "cumulativeGasUsed": "0x40e7c",
      "logs": [
        {
          "address": "0xf77c7bdf97245eb9b12e7d7c10ab6abc2aba0f6a",
          "topics": [
            "0x6e806e4274e1ae2fda14f84ae0177d6248dd126572ee44f546d4645c41ee2f77",
            "0x000000000000000000000000000000000000000000000000000000000000002d"
          ],
          "data": "0x000000000000000000000000000000000000000000000000000000000000002000000000000000000000000000000000000000000000000000000000000000010000000000000000000000000000000000000000000000000000000000000020000000000000000000000000000000000000000000000000000000000000002a30786435383665613166636530393338346637316236396538306636343331333566633036343164656600000000000000000000000000000000000000000000",
          "blockHash": "0x7943090b6d86e151c7f62ea2888dfd83f5df47da06e7253ae6be4116643dcd43",
          "blockNumber": "0x5ebc0b2",
          "transactionHash": "0x835542e555e3494fbdbf3feaee993166054ea835c02d72457881d017ff93d8cb",
          "transactionIndex": "0x1",
          "logIndex": "0x0",
          "removed": false
        }
      ],
      "logsBloom": "0x00000000000000000000000000000000000000000000800000000040000000000000000000000000000000000000000000000000000000000000000400000000000000000000000000000000000000000000000000000000000000000000000100000001000040000000000008000000000000000000000000000000000000000000000000000000000000000000000000000000000000000000000000000000000000000000000000000000000000000000000000000000000010000000000000000000000000000000000000000000000000000000000000000000400000000000000000000000000000000000000000000000000000000000000000000000",
      "type": "0x2",
      "transactionHash": "0x835542e555e3494fbdbf3feaee993166054ea835c02d72457881d017ff93d8cb",
      "transactionIndex": "0x1",
      "blockHash": "0x7943090b6d86e151c7f62ea2888dfd83f5df47da06e7253ae6be4116643dcd43",
      "blockNumber": "0x5ebc0b2",
      "gasUsed": "0x40e7c",
      "effectiveGasPrice": "0x5f5e100",
      "from": "0xe62ab4d111f968660c6b2188046f9b9ba53c4bae",
      "to": "0xf77c7bdf97245eb9b12e7d7c10ab6abc2aba0f6a",
      "contractAddress": null,
      "gasUsedForL1": "0x31ffe",
      "l1BlockNumber": "0x6cb579"
    }
  ],
  "libraries": [],
  "pending": [],
  "returns": {},
  "timestamp": 1732214497,
  "chain": 421614,
  "commit": "4b2e1f8c"
}