{
  "transactions": [
    {
      "hash": "0x37cb853d3e743572a3b9833613f6f2c8a4e727393386f77da2dc76955b7b2c7b",
      "transactionType": "CALL",
      "contractName": null,
      "contractAddress": "0xf77c7bdf97245eb9b12e7d7c10ab6abc2aba0f6a",
      "function": "addDappAddr(uint256,string[])",
      "arguments": [
        "45",
        "[0x66b719c489193594c617801e67119959cd15b63a]"
      ],
      "transaction": {
        "from": "0xe62ab4d111f968660c6b2188046f9b9ba53c4bae",
        "to": "0xf77c7bdf97245eb9b12e7d7c10ab6abc2aba0f6a",
        "gas": "0x1ff7e",
        "value": "0x0",
        "input": "0xbb03a47e000000000000000000000000000000000000000000000000000000000000002d000000000000000000000000000000000000000000000000000000000000004000000000000000000000000000000000000000000000000000000000000000010000000000000000000000000000000000000000000000000000000000000020000000000000000000000000000000000000000000000000000000000000002a30783636623731396334383931393335393463363137383031653637313139393539636431356236336100000000000000000000000000000000000000000000",
        "nonce": "0x2ee",
        "chainId": "0x66eee"
      },
      "additionalContracts": [],
      "isFixedGasLimit": false
    }
  ],
  "receipts": [
    {
      "status": "0x1",
      "cumulativeGasUsed": "0x2838a",
      "logs": [
        {
          "address": "0xf77c7bdf97245eb9b12e7d7c10ab6abc2aba0f6a",
          "topics": [
            "0x6e806e4274e1ae2fda14f84ae0177d6248dd126572ee44f546d4645c41ee2f77",
            "0x000000000000000000000000000000000000000000000000000000000000002d"
          ],
          "data": "0x000000000000000000000000000000000000000000000000000000000000002000000000000000000000000000000000000000000000000000000000000000010000000000000000000000000000000000000000000000000000000000000020000000000000000000000000000000000000000000000000000000000000002a30783636623731396334383931393335393463363137383031653637313139393539636431356236336100000000000000000000000000000000000000000000",
          "blockHash": "0x9f7947f591ab5c7f38eaa0a897c57dd24f7b82e82f2d54510a06b336ded9c685",
          "blockNumber": "0x5a0a568",
          "transactionHash": "0x37cb853d3e743572a3b9833613f6f2c8a4e727393386f77da2dc76955b7b2c7b",
          "transactionIndex": "0x2",
          "logIndex": "0x1",
          "removed": false
        }
      ],
      "logsBloom": "0x00000000000000000000000000000000000000000000800000000040000000000000000000000000000000000000000000000000000000000000000400000000000000000000000000000000000000000000000000000000000000000000000100000001000040000000000008000000000000000000000000000000000000000000000000000000000000000000000000000000000000000000000000000000000000000000000000000000000000000000000000000000000010000000000000000000000000000000000000000000000000000000000000000000400000000000000000000000000000000000000000000000000000000000000000000000",
      "type": "0x2",
      "transactionHash": "0x37cb853d3e743572a3b9833613f6f2c8a4e727393386f77da2dc76955b7b2c7b",
      "transactionIndex": "0x2",
      "blockHash": "0x9f7947f591ab5c7f38eaa0a897c57dd24f7b82e82f2d54510a06b336ded9c685",
      "blockNumber": "0x5a0a568",
      "gasUsed": "0x163f1",
      "effectiveGasPrice": "0x5f5e100",
      "from": "0xe62ab4d111f968660c6b2188046f9b9ba53c4bae",
      "to": "0xf77c7bdf97245eb9b12e7d7c10ab6abc2aba0f6a",
      "contractAddress": null,
      "gasUsedForL1": "0x7573",
      "l1BlockNumber": "0x6b0051"
    }
  ],
  "libraries": [],
  "pending": [],
  "returns": {},
  "timestamp": 1730753058,
  "chain": 421614,
  "commit": "34a11392"
}