{
  "transactions": [
    {
      "hash": "0x71abaf1211b8abaaf6b379cd2a863a8101d962788c514d552b263f0bbe361464",
      "transactionType": "CALL",
      "contractName": null,
      "contractAddress": "0xf77c7bdf97245eb9b12e7d7c10ab6abc2aba0f6a",
      "function": "addDappAddr(uint256,string[])",
      "arguments": [
        "44",
        "[0xbce6b1ab3790bce90e2299cc9c46f6d2bcb56324]"
      ],
      "transaction": {
        "from": "0xe62ab4d111f968660c6b2188046f9b9ba53c4bae",
        "to": "0xf77c7bdf97245eb9b12e7d7c10ab6abc2aba0f6a",
        "gas": "0x13a3a",
        "value": "0x0",
        "input": "0xbb03a47e000000000000000000000000000000000000000000000000000000000000002c000000000000000000000000000000000000000000000000000000000000004000000000000000000000000000000000000000000000000000000000000000010000000000000000000000000000000000000000000000000000000000000020000000000000000000000000000000000000000000000000000000000000002a30786263653662316162333739306263653930653232393963633963343666366432626362353633323400000000000000000000000000000000000000000000",
        "nonce": "0x331",
        "chainId": "0x66eee"
      },
      "additionalContracts": [],
      "isFixedGasLimit": false
    }
  ],
  "receipts": [
    {
      "status": "0x1",
      "cumulativeGasUsed": "0xee7e",
      "logs": [
        {
          "address": "0xf77c7bdf97245eb9b12e7d7c10ab6abc2aba0f6a",
          "topics": [
            "0x6e806e4274e1ae2fda14f84ae0177d6248dd126572ee44f546d4645c41ee2f77",
            "0x000000000000000000000000000000000000000000000000000000000000002c"
          ],
          "data": "0x000000000000000000000000000000000000000000000000000000000000002000000000000000000000000000000000000000000000000000000000000000010000000000000000000000000000000000000000000000000000000000000020000000000000000000000000000000000000000000000000000000000000002a30786263653662316162333739306263653930653232393963633963343666366432626362353633323400000000000000000000000000000000000000000000",
          "blockHash": "0xcb74911e83d9c3a7f5ac3f017b167173190d227074e8d1fe8185e8b5fbc83b25",
          "blockNumber": "0x5b2d403",
          "transactionHash": "0x71abaf1211b8abaaf6b379cd2a863a8101d962788c514d552b263f0bbe361464",
          "transactionIndex": "0x1",
          "logIndex": "0x0",
          "removed": false
        }
      ],
      "logsBloom": "0x00000000000000000000000000000000000000000000800000000040000000000000000000000000000000000000000000000000000000000000000000000000000000000000000000000000000000000000000000000000000000000000000100000001000040000000000108000000000000000000000000000000004000000000000000000000000000000000000000000000000000000000000000000000000000000000000000000000000000000000000000000000000000000000000000000000000000000000000000000000000000000000000800000000000000000000000000000000000000000000000000000000000000000000000000000000",
      "type": "0x2",
      "transactionHash": "0x71abaf1211b8abaaf6b379cd2a863a8101d962788c514d552b263f0bbe361464",
      "transactionIndex": "0x1",
      "blockHash": "0xcb74911e83d9c3a7f5ac3f017b167173190d227074e8d1fe8185e8b5fbc83b25",
      "blockNumber": "0x5b2d403",
      "gasUsed": "0xee7e",
      "effectiveGasPrice": "0x5f5e100",
      "from": "0xe62ab4d111f968660c6b2188046f9b9ba53c4bae",
      "to": "0xf77c7bdf97245eb9b12e7d7c10ab6abc2aba0f6a",
      "contractAddress": null,
      "gasUsedForL1": "0x0",
      "l1BlockNumber": "0x6b64bb"
    }
  ],
  "libraries": [],
  "pending": [],
  "returns": {},
  "timestamp": 1731093832,
  "chain": 421614,
  "commit": "ac6d4a5e"
}