{
  "transactions": [
    {
      "hash": "0xd8efd216c5ff626bf4741443ea472099d67ad602123689930d6b4d9563cdb204",
      "transactionType": "CALL",
      "contractName": null,
      "contractAddress": "0xf77c7bdf97245eb9b12e7d7c10ab6abc2aba0f6a",
      "function": "addDappAddr(uint256,string[])",
      "arguments": [
        "44",
        "[0x54caa31d029e68a605d839d7258f37e946db71e9]"
      ],
      "transaction": {
        "from": "0xe62ab4d111f968660c6b2188046f9b9ba53c4bae",
        "to": "0xf77c7bdf97245eb9b12e7d7c10ab6abc2aba0f6a",
        "gas": "0x13cfd",
        "value": "0x0",
        "input": "0xbb03a47e000000000000000000000000000000000000000000000000000000000000002c000000000000000000000000000000000000000000000000000000000000004000000000000000000000000000000000000000000000000000000000000000010000000000000000000000000000000000000000000000000000000000000020000000000000000000000000000000000000000000000000000000000000002a30783534636161333164303239653638613630356438333964373235386633376539343664623731653900000000000000000000000000000000000000000000",
        "nonce": "0x391",
        "chainId": "0x66eee"
      },
      "additionalContracts": [],
      "isFixedGasLimit": false
    }
  ],
  "receipts": [
    {
      "status": "0x1",
      "cumulativeGasUsed": "0xf02a",
      "logs": [
        {
          "address": "0xf77c7bdf97245eb9b12e7d7c10ab6abc2aba0f6a",
          "topics": [
            "0x6e806e4274e1ae2fda14f84ae0177d6248dd126572ee44f546d4645c41ee2f77",
            "0x000000000000000000000000000000000000000000000000000000000000002c"
          ],
          "data": "0x000000000000000000000000000000000000000000000000000000000000002000000000000000000000000000000000000000000000000000000000000000010000000000000000000000000000000000000000000000000000000000000020000000000000000000000000000000000000000000000000000000000000002a30783534636161333164303239653638613630356438333964373235386633376539343664623731653900000000000000000000000000000000000000000000",
          "blockHash": "0xf2448646a85a1832a26b774c784d215e00d3bd7af37d3935d83102c2849ec597",
          "blockNumber": "0x5d98a35",
          "transactionHash": "0xd8efd216c5ff626bf4741443ea472099d67ad602123689930d6b4d9563cdb204",
          "transactionIndex": "0x1",
          "logIndex": "0x0",
          "removed": false
        }
      ],
      "logsBloom": "0x00000000000000000000000000000000000000000000800000000040000000000000000000000000000000000000000000000000000000000000000000000000000000000000000000000000000000000000000000000000000000000000000100000001000040000000000108000000000000000000000000000000004000000000000000000000000000000000000000000000000000000000000000000000000000000000000000000000000000000000000000000000000000000000000000000000000000000000000000000000000000000000000800000000000000000000000000000000000000000000000000000000000000000000000000000000",
      "type": "0x2",
      "transactionHash": "0xd8efd216c5ff626bf4741443ea472099d67ad602123689930d6b4d9563cdb204",
      "transactionIndex": "0x1",
      "blockHash": "0xf2448646a85a1832a26b774c784d215e00d3bd7af37d3935d83102c2849ec597",
      "blockNumber": "0x5d98a35",
      "gasUsed": "0xf02a",
      "effectiveGasPrice": "0x5f5e100",
      "from": "0xe62ab4d111f968660c6b2188046f9b9ba53c4bae",
      "to": "0xf77c7bdf97245eb9b12e7d7c10ab6abc2aba0f6a",
      "contractAddress": null,
      "gasUsedForL1": "0x1ac",
      "l1BlockNumber": "0x6c46a5"
    }
  ],
  "libraries": [],
  "pending": [],
  "returns": {},
  "timestamp": 1731852238,
  "chain": 421614,
  "commit": "b96f5048"
}