{
  "transactions": [
    {
      "hash": "0xac5912af2c9590194479611116330d96fb0f79e6f7a8c2a5b2bb37ba4f5bd92f",
      "transactionType": "CALL",
      "contractName": null,
      "contractAddress": "0xf77c7bdf97245eb9b12e7d7c10ab6abc2aba0f6a",
      "function": "addDappAddr(uint256,string[])",
      "arguments": [
        "47",
        "[0x21c90e25142a8cef8ca3fbefd6417617bcafa303]"
      ],
      "transaction": {
        "from": "0xe62ab4d111f968660c6b2188046f9b9ba53c4bae",
        "to": "0xf77c7bdf97245eb9b12e7d7c10ab6abc2aba0f6a",
        "gas": "0x13ca2",
        "value": "0x0",
        "input": "0xbb03a47e000000000000000000000000000000000000000000000000000000000000002f000000000000000000000000000000000000000000000000000000000000004000000000000000000000000000000000000000000000000000000000000000010000000000000000000000000000000000000000000000000000000000000020000000000000000000000000000000000000000000000000000000000000002a30783231633930653235313432613863656638636133666265666436343137363137626361666133303300000000000000000000000000000000000000000000",
        "nonce": "0x396",
        "chainId": "0x66eee"
      },
      "additionalContracts": [],
      "isFixedGasLimit": false
    }
  ],
  "receipts": [
    {
      "status": "0x1",
      "cumulativeGasUsed": "0x34b79",
      "logs": [
        {
          "address": "0xf77c7bdf97245eb9b12e7d7c10ab6abc2aba0f6a",
          "topics": [
            "0x6e806e4274e1ae2fda14f84ae0177d6248dd126572ee44f546d4645c41ee2f77",
            "0x000000000000000000000000000000000000000000000000000000000000002f"
          ],
          "data": "0x000000000000000000000000000000000000000000000000000000000000002000000000000000000000000000000000000000000000000000000000000000010000000000000000000000000000000000000000000000000000000000000020000000000000000000000000000000000000000000000000000000000000002a30783231633930653235313432613863656638636133666265666436343137363137626361666133303300000000000000000000000000000000000000000000",
          "blockHash": "0x22318c7a12d4dcd701ca22626e5caaefdb391e942816cccd3776693d4c6ade53",
          "blockNumber": "0x5d98c9f",
          "transactionHash": "0xac5912af2c9590194479611116330d96fb0f79e6f7a8c2a5b2bb37ba4f5bd92f",
          "transactionIndex": "0x3",
          "logIndex": "0x1",
          "removed": false
        }
      ],
      "logsBloom": "0x00000000000000000000000000000000000080000000800000000040000000000000000000000000000000000000000000000000000000000000000000000000000000000000000000000000000000000000000000000000000000000000000100000001000040000000000008000000000000000000000000000000000000000000000000000000000000000000000000000000000000000000000000000000000000000000000000000000000000000000000000000000000000000000000000000000000000000000000000000000000000000000000000000000000000000000000000000000000000000000000000000000000004000000000000080000",
      "type": "0x2",
      "transactionHash": "0xac5912af2c9590194479611116330d96fb0f79e6f7a8c2a5b2bb37ba4f5bd92f",
      "transactionIndex": "0x3",
      "blockHash": "0x22318c7a12d4dcd701ca22626e5caaefdb391e942816cccd3776693d4c6ade53",
      "blockNumber": "0x5d98c9f",
      "gasUsed": "0xefe9",
      "effectiveGasPrice": "0x5f5e100",
      "from": "0xe62ab4d111f968660c6b2188046f9b9ba53c4bae",
      "to": "0xf77c7bdf97245eb9b12e7d7c10ab6abc2aba0f6a",
      "contractAddress": null,
      "gasUsedForL1": "0x16b",
      "l1BlockNumber": "0x6c46b5"
    }
  ],
  "libraries": [],
  "pending": [],
  "returns": {},
  "timestamp": 1731852436,
  "chain": 421614,
  "commit": "b96f5048"
}