{
  "transactions": [
    {
      "hash": "0x00d87a054bc171dbac2b492da3b9df1649b02dfdcd081192947ca4ea6732fdb6",
      "transactionType": "CALL",
      "contractName": null,
      "contractAddress": "0xf77c7bdf97245eb9b12e7d7c10ab6abc2aba0f6a",
      "function": "addDappAddr(uint256,string[])",
      "arguments": [
        "48",
        "[0x6f0ddf81d8145301058e37cc51a485ae6b44bcf9]"
      ],
      "transaction": {
        "from": "0xe62ab4d111f968660c6b2188046f9b9ba53c4bae",
        "to": "0xf77c7bdf97245eb9b12e7d7c10ab6abc2aba0f6a",
        "gas": "0x1573b",
        "value": "0x0",
        "input": "0xbb03a47e0000000000000000000000000000000000000000000000000000000000000030000000000000000000000000000000000000000000000000000000000000004000000000000000000000000000000000000000000000000000000000000000010000000000000000000000000000000000000000000000000000000000000020000000000000000000000000000000000000000000000000000000000000002a30783666306464663831643831343533303130353865333763633531613438356165366234346263663900000000000000000000000000000000000000000000",
        "nonce": "0x298",
        "chainId": "0x66eee"
      },
      "additionalContracts": [],
      "isFixedGasLimit": false
    }
  ],
  "receipts": [
    {
      "status": "0x1",
      "cumulativeGasUsed": "0x4993b",
      "logs": [
        {
          "address": "0xf77c7bdf97245eb9b12e7d7c10ab6abc2aba0f6a",
          "topics": [
            "0x6e806e4274e1ae2fda14f84ae0177d6248dd126572ee44f546d4645c41ee2f77",
            "0x0000000000000000000000000000000000000000000000000000000000000030"
          ],
          "data": "0x000000000000000000000000000000000000000000000000000000000000002000000000000000000000000000000000000000000000000000000000000000010000000000000000000000000000000000000000000000000000000000000020000000000000000000000000000000000000000000000000000000000000002a30783666306464663831643831343533303130353865333763633531613438356165366234346263663900000000000000000000000000000000000000000000",
          "blockHash": "0x85af7e30b3dfc23371cdd9dd69a5b938676e6638ef8d1bd510a260fe94e8a217",
          "blockNumber": "0x596d991",
          "transactionHash": "0x00d87a054bc171dbac2b492da3b9df1649b02dfdcd081192947ca4ea6732fdb6",
          "transactionIndex": "0x2",
          "logIndex": "0x4",
          "removed": false
        }
      ],
      "logsBloom": "0x02000000000000000000000000000000000000000000800000000040000000000000000000000000000000000000000000000000000000000000000000000000000000000000000000000000000000000000000000000000000000000000000100000001000040000000000008000000000000000000000000000000000000000000000000000000000000000000000000000000000000000000000000000000000000000000000000000000000000000000000002000000000000000000000000000000000000000000000000000000000000000000000000000000000020000000000000000000000000000000000000000000000000000000000000000000",
      "type": "0x2",
      "transactionHash": "0x00d87a054bc171dbac2b492da3b9df1649b02dfdcd081192947ca4ea6732fdb6",
      "transactionIndex": "0x2",
      "blockHash": "0x85af7e30b3dfc23371cdd9dd69a5b938676e6638ef8d1bd510a260fe94e8a217",
      "blockNumber": "0x596d991",
      "gasUsed": "0x100a0",
      "effectiveGasPrice": "0x5f5e100",
      "from": "0xe62ab4d111f968660c6b2188046f9b9ba53c4bae",
      "to": "0xf77c7bdf97245eb9b12e7d7c10ab6abc2aba0f6a",
      "contractAddress": null,
      "gasUsedForL1": "0x1222",
      "l1BlockNumber": "0x6ac39e"
    }
  ],
  "libraries": [],
  "pending": [],
  "returns": {},
  "timestamp": 1730549894,
  "chain": 421614,
  "commit": "34a11392"
}