{
  "transactions": [
    {
      "hash": "0xe67ce47533482e0cc506996cba087c80ca01ea349ef230a858af2416ca2f0270",
      "transactionType": "CALL",
      "contractName": null,
      "contractAddress": "0xf77c7bdf97245eb9b12e7d7c10ab6abc2aba0f6a",
      "function": "addDappAddr(uint256,string[])",
      "arguments": [
        "45",
        "[0x232c61b3d1a03cc57e976cccd0f9c9cd33a98fe0]"
      ],
      "transaction": {
        "from": "0xe62ab4d111f968660c6b2188046f9b9ba53c4bae",
        "to": "0xf77c7bdf97245eb9b12e7d7c10ab6abc2aba0f6a",
        "gas": "0x146d2",
        "value": "0x0",
        "input": "0xbb03a47e000000000000000000000000000000000000000000000000000000000000002d000000000000000000000000000000000000000000000000000000000000004000000000000000000000000000000000000000000000000000000000000000010000000000000000000000000000000000000000000000000000000000000020000000000000000000000000000000000000000000000000000000000000002a30783233326336316233643161303363633537653937366363636430663963396364333361393866653000000000000000000000000000000000000000000000",
        "nonce": "0x285",
        "chainId": "0x66eee"
      },
      "additionalContracts": [],
      "isFixedGasLimit": false
    }
  ],
  "receipts": [
    {
      "status": "0x1",
      "cumulativeGasUsed": "0x6edac",
      "logs": [
        {
          "address": "0xf77c7bdf97245eb9b12e7d7c10ab6abc2aba0f6a",
          "topics": [
            "0x6e806e4274e1ae2fda14f84ae0177d6248dd126572ee44f546d4645c41ee2f77",
            "0x000000000000000000000000000000000000000000000000000000000000002d"
          ],
          "data": "0x000000000000000000000000000000000000000000000000000000000000002000000000000000000000000000000000000000000000000000000000000000010000000000000000000000000000000000000000000000000000000000000020000000000000000000000000000000000000000000000000000000000000002a30783233326336316233643161303363633537653937366363636430663963396364333361393866653000000000000000000000000000000000000000000000",
          "blockHash": "0xeabdb1f18ecf3b0bd528803f38bb039e9ee89ead823211ee752623c6f3a0ae9e",
          "blockNumber": "0x596cbbc",
          "transactionHash": "0xe67ce47533482e0cc506996cba087c80ca01ea349ef230a858af2416ca2f0270",
          "transactionIndex": "0x3",
          "logIndex": "0x9",
          "removed": false
        }
      ],
      "logsBloom": "0x00000000000000000000000000000000000000000000800000000040000000000000000000000000000000000000000000000000000000000000000400000000000000000000000000000000000000000000000000000000000000000000000100000001000040000000000008000000000000000000000000000000000000000000000000000000000000000000000000000000000000000000000000000000000000000000000000000000000000000000000000000000000010000000000000000000000000000000000000000000000000000000000000000000400000000000000000000000000000000000000000000000000000000000000000000000",
      "type": "0x2",
      "transactionHash": "0xe67ce47533482e0cc506996cba087c80ca01ea349ef230a858af2416ca2f0270",
      "transactionIndex": "0x3",
      "blockHash": "0xeabdb1f18ecf3b0bd528803f38bb039e9ee89ead823211ee752623c6f3a0ae9e",
      "blockNumber": "0x596cbbc",
      "gasUsed": "0xf649",
      "effectiveGasPrice": "0x5f5e100",
      "from": "0xe62ab4d111f968660c6b2188046f9b9ba53c4bae",
      "to": "0xf77c7bdf97245eb9b12e7d7c10ab6abc2aba0f6a",
      "contractAddress": null,
      "gasUsedForL1": "0x7cb",
      "l1BlockNumber": "0x6ac34d"
    }
  ],
  "libraries": [],
  "pending": [],
  "returns": {},
  "timestamp": 1730548901,
  "chain": 421614,
  "commit": "34a11392"
}