{
  "transactions": [
    {
      "hash": "0xed916965609beb8842b26d33452f42c630f6f9b3203feb249477b1fa95f38220",
      "transactionType": "CALL",
      "contractName": null,
      "contractAddress": "0xf77c7bdf97245eb9b12e7d7c10ab6abc2aba0f6a",
      "function": "addDappAddr(uint256,string[])",
      "arguments": [
        "47",
        "[0xeb4b038c0f1f086bb7ab5b4192611015aff95390]"
      ],
      "transaction": {
        "from": "0xe62ab4d111f968660c6b2188046f9b9ba53c4bae",
        "to": "0xf77c7bdf97245eb9b12e7d7c10ab6abc2aba0f6a",
        "gas": "0x697b3",
        "value": "0x0",
        "input": "0xbb03a47e000000000000000000000000000000000000000000000000000000000000002f000000000000000000000000000000000000000000000000000000000000004000000000000000000000000000000000000000000000000000000000000000010000000000000000000000000000000000000000000000000000000000000020000000000000000000000000000000000000000000000000000000000000002a30786562346230333863306631663038366262376162356234313932363131303135616666393533393000000000000000000000000000000000000000000000",
        "nonce": "0x456",
        "chainId": "0x66eee"
      },
      "additionalContracts": [],
      "isFixedGasLimit": false
    }
  ],
  "receipts": [
    {
      "status": "0x1",
      "cumulativeGasUsed": "0xbc4d9",
      "logs": [
        {
          "address": "0xf77c7bdf97245eb9b12e7d7c10ab6abc2aba0f6a",
          "topics": [
            "0x6e806e4274e1ae2fda14f84ae0177d6248dd126572ee44f546d4645c41ee2f77",
            "0x000000000000000000000000000000000000000000000000000000000000002f"
          ],
          "data": "0x000000000000000000000000000000000000000000000000000000000000002000000000000000000000000000000000000000000000000000000000000000010000000000000000000000000000000000000000000000000000000000000020000000000000000000000000000000000000000000000000000000000000002a30786562346230333863306631663038366262376162356234313932363131303135616666393533393000000000000000000000000000000000000000000000",
          "blockHash": "0x8f212a7b6c35a5c6da17bf6bca7b1af2279eb9a9fa572896ee8f6eb6c5419b66",
          "blockNumber": "0x5ebc211",
          "transactionHash": "0xed916965609beb8842b26d33452f42c630f6f9b3203feb249477b1fa95f38220",
          "transactionIndex": "0x2",
          "logIndex": "0x2",
          "removed": false
        }
      ],
      "logsBloom": "0x00000000000000000000000000000000000080000000800000000040000000000000000000000000000000000000000000000000000000000000000000000000000000000000000000000000000000000000000000000000000000000000000100000001000040000000000008000000000000000000000000000000000000000000000000000000000000000000000000000000000000000000000000000000000000000000000000000000000000000000000000000000000000000000000000000000000000000000000000000000000000000000000000000000000000000000000000000000000000000000000000000000000004000000000000080000",
      "type": "0x2",
      "transactionHash": "0xed916965609beb8842b26d33452f42c630f6f9b3203feb249477b1fa95f38220",
      "transactionIndex": "0x2",
      "blockHash": "0x8f212a7b6c35a5c6da17bf6bca7b1af2279eb9a9fa572896ee8f6eb6c5419b66",
      "blockNumber": "0x5ebc211",
      "gasUsed": "0x4277c",
      "effectiveGasPrice": "0x5f5e100",
      "from": "0xe62ab4d111f968660c6b2188046f9b9ba53c4bae",
      "to": "0xf77c7bdf97245eb9b12e7d7c10ab6abc2aba0f6a",
      "contractAddress": null,
      "gasUsedForL1": "0x338fe",
      "l1BlockNumber": "0x6cb582"
    }
  ],
  "libraries": [],
  "pending": [],
  "returns": {},
  "timestamp": 1732214590,
  "chain": 421614,
  "commit": "4b2e1f8c"
}