{
  "transactions": [
    {
      "hash": "0xcce67f0e2c244c697754ad3d712145f5f1481fbf587d4cfbc77088e71ea12319",
      "transactionType": "CALL",
      "contractName": null,
      "contractAddress": "0xf77c7bdf97245eb9b12e7d7c10ab6abc2aba0f6a",
      "function": "addDappAddr(uint256,string[])",
      "arguments": [
        "47",
        "[0x787a3afdebabb386b31d56cf7cc3cd6637340799]"
      ],
      "transaction": {
        "from": "0xe62ab4d111f968660c6b2188046f9b9ba53c4bae",
        "to": "0xf77c7bdf97245eb9b12e7d7c10ab6abc2aba0f6a",
        "gas": "0x222aa",
        "value": "0x0",
        "input": "0xbb03a47e000000000000000000000000000000000000000000000000000000000000002f000000000000000000000000000000000000000000000000000000000000004000000000000000000000000000000000000000000000000000000000000000010000000000000000000000000000000000000000000000000000000000000020000000000000000000000000000000000000000000000000000000000000002a30783738376133616664656261626233383662333164353663663763633363643636333733343037393900000000000000000000000000000000000000000000",
        "nonce": "0x3b4",
        "chainId": "0x66eee"
      },
      "additionalContracts": [],
      "isFixedGasLimit": false
    }
  ],
  "receipts": [
    {
      "status": "0x1",
      "cumulativeGasUsed": "0x42725",
      "logs": [
        {
          "address": "0xf77c7bdf97245eb9b12e7d7c10ab6abc2aba0f6a",
          "topics": [
            "0x6e806e4274e1ae2fda14f84ae0177d6248dd126572ee44f546d4645c41ee2f77",
            "0x000000000000000000000000000000000000000000000000000000000000002f"
          ],
          "data": "0x000000000000000000000000000000000000000000000000000000000000002000000000000000000000000000000000000000000000000000000000000000010000000000000000000000000000000000000000000000000000000000000020000000000000000000000000000000000000000000000000000000000000002a30783738376133616664656261626233383662333164353663663763633363643636333733343037393900000000000000000000000000000000000000000000",
          "blockHash": "0xe2ed528c701647cd220f05c668e17dd0265701d7482ce1c8f58ccfd2139aea1f",
          "blockNumber": "0x5e1db2c",
          "transactionHash": "0xcce67f0e2c244c697754ad3d712145f5f1481fbf587d4cfbc77088e71ea12319",
          "transactionIndex": "0x2",
          "logIndex": "0x3",
          "removed": false
        }
      ],
      "logsBloom": "0x00000000000000000000000000000000000080000000800000000040000000000000000000000000000000000000000000000000000000000000000000000000000000000000000000000000000000000000000000000000000000000000000100000001000040000000000008000000000000000000000000000000000000000000000000000000000000000000000000000000000000000000000000000000000000000000000000000000000000000000000000000000000000000000000000000000000000000000000000000000000000000000000000000000000000000000000000000000000000000000000000000000000004000000000000080000",
      "type": "0x2",
      "transactionHash": "0xcce67f0e2c244c697754ad3d712145f5f1481fbf587d4cfbc77088e71ea12319",
      "transactionIndex": "0x2",
      "blockHash": "0xe2ed528c701647cd220f05c668e17dd0265701d7482ce1c8f58ccfd2139aea1f",
      "blockNumber": "0x5e1db2c",
      "gasUsed": "0x17b17",
      "effectiveGasPrice": "0x5f5e100",
      "from": "0xe62ab4d111f968660c6b2188046f9b9ba53c4bae",
      "to": "0xf77c7bdf97245eb9b12e7d7c10ab6abc2aba0f6a",
      "contractAddress": null,
      "gasUsedForL1": "0x8c99",
      "l1BlockNumber": "0x6c7d89"
    }
  ],
  "libraries": [],
  "pending": [],
  "returns": {},
  "timestamp": 1732031755,
  "chain": 421614,
  "commit": "b96f5048"
}