{
  "transactions": [
    {
      "hash": "0x626ab6bf487ca83a64f1b208cb670f96267aec8f57e2b56cfff91e4bd74e9ecd",
      "transactionType": "CALL",
      "contractName": null,
      "contractAddress": "0xf77c7bdf97245eb9b12e7d7c10ab6abc2aba0f6a",
      "function": "addDappAddr(uint256,string[])",
      "arguments": [
        "48",
        "[0x0174abcc86b7b8a54cfff7ad08f982bc894b914d]"
      ],
      "transaction": {
        "from": "0xe62ab4d111f968660c6b2188046f9b9ba53c4bae",
        "to": "0xf77c7bdf97245eb9b12e7d7c10ab6abc2aba0f6a",
        "gas": "0x1573b",
        "value": "0x0",
        "input": "0xbb03a47e0000000000000000000000000000000000000000000000000000000000000030000000000000000000000000000000000000000000000000000000000000004000000000000000000000000000000000000000000000000000000000000000010000000000000000000000000000000000000000000000000000000000000020000000000000000000000000000000000000000000000000000000000000002a30783031373461626363383662376238613534636666663761643038663938326263383934623931346400000000000000000000000000000000000000000000",
        "nonce": "0x297",
        "chainId": "0x66eee"
      },
      "additionalContracts": [],
      "isFixedGasLimit": false
    }
  ],
  "receipts": [
    {
      "status": "0x1",
      "cumulativeGasUsed": "0x1006d",
      "logs": [
        {
          "address": "0xf77c7bdf97245eb9b12e7d7c10ab6abc2aba0f6a",
          "topics": [
            "0x6e806e4274e1ae2fda14f84ae0177d6248dd126572ee44f546d4645c41ee2f77",
            "0x0000000000000000000000000000000000000000000000000000000000000030"
          ],
          "data": "0x000000000000000000000000000000000000000000000000000000000000002000000000000000000000000000000000000000000000000000000000000000010000000000000000000000000000000000000000000000000000000000000020000000000000000000000000000000000000000000000000000000000000002a30783031373461626363383662376238613534636666663761643038663938326263383934623931346400000000000000000000000000000000000000000000",
          "blockHash": "0x09ab8cc69245439eea583f0d4cb5743cbcc66329854e621c37bbcbfd07c0d659",
          "blockNumber": "0x596d8e6",
          "transactionHash": "0x626ab6bf487ca83a64f1b208cb670f96267aec8f57e2b56cfff91e4bd74e9ecd",
          "transactionIndex": "0x1",
          "logIndex": "0x0",
          "removed": false
        }
      ],
      "logsBloom": "0x02000000000000000000000000000000000000000000800000000040000000000000000000000000000000000000000000000000000000000000000000000000000000000000000000000000000000000000000000000000000000000000000100000001000040000000000008000000000000000000000000000000000000000000000000000000000000000000000000000000000000000000000000000000000000000000000000000000000000000000000002000000000000000000000000000000000000000000000000000000000000000000000000000000000020000000000000000000000000000000000000000000000000000000000000000000",
      "type": "0x2",
      "transactionHash": "0x626ab6bf487ca83a64f1b208cb670f96267aec8f57e2b56cfff91e4bd74e9ecd",
      "transactionIndex": "0x1",
      "blockHash": "0x09ab8cc69245439eea583f0d4cb5743cbcc66329854e621c37bbcbfd07c0d659",
      "blockNumber": "0x596d8e6",
      "gasUsed": "0x1006d",
      "effectiveGasPrice": "0x5f5e100",
      "from": "0xe62ab4d111f968660c6b2188046f9b9ba53c4bae",
      "to": "0xf77c7bdf97245eb9b12e7d7c10ab6abc2aba0f6a",
      "contractAddress": null,
      "gasUsedForL1": "0x11ef",
      "l1BlockNumber": "0x6ac39a"
    }
  ],
  "libraries": [],
  "pending": [],
  "returns": {},
  "timestamp": 1730549856,
  "chain": 421614,
  "commit": "34a11392"
}