{
  "transactions": [
    {
      "hash": "0x7aa450196742973a9854c7232127df6f255f515b5d2b5bed50c29bc6024c6146",
      "transactionType": "CALL",
      "contractName": null,
      "contractAddress": "0xf77c7bdf97245eb9b12e7d7c10ab6abc2aba0f6a",
      "function": "addDappAddr(uint256,string[])",
      "arguments": [
        "44",
        "[0x00cb1299d29a1d389879c1af2316a4b2c78da610]"
      ],
      "transaction": {
        "from": "0xe62ab4d111f968660c6b2188046f9b9ba53c4bae",
        "to": "0xf77c7bdf97245eb9b12e7d7c10ab6abc2aba0f6a",
        "gas": "0x14a85",
        "value": "0x0",
        "input": "0xbb03a47e000000000000000000000000000000000000000000000000000000000000002c000000000000000000000000000000000000000000000000000000000000004000000000000000000000000000000000000000000000000000000000000000010000000000000000000000000000000000000000000000000000000000000020000000000000000000000000000000000000000000000000000000000000002a30783030636231323939643239613164333839383739633161663233313661346232633738646136313000000000000000000000000000000000000000000000",
        "nonce": "0x275",
        "chainId": "0x66eee"
      },
      "additionalContracts": [],
      "isFixedGasLimit": false
    }
  ],
  "receipts": [
    {
      "status": "0x1",
      "cumulativeGasUsed": "0xf858",
      "logs": [
        {
          "address": "0xf77c7bdf97245eb9b12e7d7c10ab6abc2aba0f6a",
          "topics": [
            "0x6e806e4274e1ae2fda14f84ae0177d6248dd126572ee44f546d4645c41ee2f77",
            "0x000000000000000000000000000000000000000000000000000000000000002c"
          ],
          "data": "0x000000000000000000000000000000000000000000000000000000000000002000000000000000000000000000000000000000000000000000000000000000010000000000000000000000000000000000000000000000000000000000000020000000000000000000000000000000000000000000000000000000000000002a30783030636231323939643239613164333839383739633161663233313661346232633738646136313000000000000000000000000000000000000000000000",
          "blockHash": "0xe915c3b1b478ca81775e6da2cc22cbd3ea7e5d61c6c19840271045b442e79890",
          "blockNumber": "0x596b979",
          "transactionHash": "0x7aa450196742973a9854c7232127df6f255f515b5d2b5bed50c29bc6024c6146",
          "transactionIndex": "0x1",
          "logIndex": "0x0",
          "removed": false
        }
      ],
      "logsBloom": "0x00000000000000000000000000000000000000000000800000000040000000000000000000000000000000000000000000000000000000000000000000000000000000000000000000000000000000000000000000000000000000000000000100000001000040000000000108000000000000000000000000000000004000000000000000000000000000000000000000000000000000000000000000000000000000000000000000000000000000000000000000000000000000000000000000000000000000000000000000000000000000000000000800000000000000000000000000000000000000000000000000000000000000000000000000000000",
      "type": "0x2",
      "transactionHash": "0x7aa450196742973a9854c7232127df6f255f515b5d2b5bed50c29bc6024c6146",
      "transactionIndex": "0x1",
      "blockHash": "0xe915c3b1b478ca81775e6da2cc22cbd3ea7e5d61c6c19840271045b442e79890",
      "blockNumber": "0x596b979",
      "gasUsed": "0xf858",
      "effectiveGasPrice": "0x5f5e100",
      "from": "0xe62ab4d111f968660c6b2188046f9b9ba53c4bae",
      "to": "0xf77c7bdf97245eb9b12e7d7c10ab6abc2aba0f6a",
      "contractAddress": null,
      "gasUsedForL1": "0x9da",
      "l1BlockNumber": "0x6ac2e9"
    }
  ],
  "libraries": [],
  "pending": [],
  "returns": {},
  "timestamp": 1730547594,
  "chain": 421614,
  "commit": "34a11392"
}