{
  "transactions": [
    {
      "hash": "0xa7f49c72c5d7d6c20a8e7fba48d85853655413f8cb7ae475cfa613a5c902e1fd",
      "transactionType": "CALL",
      "contractName": null,
      "contractAddress": "0x2f925d6512b2bbb00f5a36d8b18e01fcf35f7dc7",
      "function": "getFeeTokenList()",
      "arguments": [],
      "transaction": {
        "from": "0xc3ca11bd8e131471904dced927b3fb7edb453179",
        "to": "0x2f925d6512b2bbb00f5a36d8b18e01fcf35f7dc7",
        "gas": "0x9d1e",
        "value": "0x0",
        "input": "0xe28ab277",
        "nonce": "0x19",
        "chainId": "0x8274f"
      },
      "additionalContracts": [],
      "isFixedGasLimit": false
    },
    {
      "hash": "0xbd7528d503981fee51be7455bbd3b09739f49717653c4704b736c1f658a879d4",
      "transactionType": "CALL",
      "contractName": null,
      "contractAddress": "0x2f925d6512b2bbb00f5a36d8b18e01fcf35f7dc7",
      "function": "addFeeToken(string)",
      "arguments": [
        "0xe536Bf33585aa6bb528627Ed7Dc4D49009dafC58"
      ],
      "transaction": {
        "from": "0xc3ca11bd8e131471904dced927b3fb7edb453179",
        "to": "0x2f925d6512b2bbb00f5a36d8b18e01fcf35f7dc7",
        "gas": "0x2c165",
        "value": "0x0",
        "input": "0x12a6385f0000000000000000000000000000000000000000000000000000000000000020000000000000000000000000000000000000000000000000000000000000002a30786535333642663333353835616136626235323836323745643744633444343930303964616643353800000000000000000000000000000000000000000000",
        "nonce": "0x1a",
        "chainId": "0x8274f"
      },
      "additionalContracts": [],
      "isFixedGasLimit": false
    },
    {
      "hash": "0x29cf43f4a2000fdd12d780487646c358e5512441e63d9a1056bfe5f2d8b0fe68",
      "transactionType": "CALL",
      "contractName": null,
      "contractAddress": "0x2f925d6512b2bbb00f5a36d8b18e01fcf35f7dc7",
      "function": "addFeeToken(string,string[],uint256[])",
      "arguments": [
        "11155111",
        "[0xe536Bf33585aa6bb528627Ed7Dc4D49009dafC58]",
        "[100]"
      ],
      "transaction": {
        "from": "0xc3ca11bd8e131471904dced927b3fb7edb453179",
        "to": "0x2f925d6512b2bbb00f5a36d8b18e01fcf35f7dc7",
        "gas": "0x234a8",
        "value": "0x0",
        "input": "0x437bf84f000000000000000000000000000000000000000000000000000000000000006000000000000000000000000000000000000000000000000000000000000000a000000000000000000000000000000000000000000000000000000000000001400000000000000000000000000000000000000000000000000000000000000008313131353531313100000000000000000000000000000000000000000000000000000000000000000000000000000000000000000000000000000000000000010000000000000000000000000000000000000000000000000000000000000020000000000000000000000000000000000000000000000000000000000000002a3078653533364266333335383561613662623532383632374564374463344434393030396461664335380000000000000000000000000000000000000000000000000000000000000000000000000000000000000000000000000000000000010000000000000000000000000000000000000000000000000000000000000064",
        "nonce": "0x1b",
        "chainId": "0x8274f"
      },
      "additionalContracts": [],
      "isFixedGasLimit": false
    },
    {
      "hash": "0x83d964fdff159eb34ec9bd6a2635ec9bac7aa5590792ac6b4210e9281f86448c",
      "transactionType": "CALL",
      "contractName": null,
      "contractAddress": "0x2f925d6512b2bbb00f5a36d8b18e01fcf35f7dc7",
      "function": "addFeeToken(string,string[],uint256[])",
      "arguments": [
        "17000",
        "[0xe536Bf33585aa6bb528627Ed7Dc4D49009dafC58]",
        "[100]"
      ],
      "transaction": {
        "from": "0xc3ca11bd8e131471904dced927b3fb7edb453179",
        "to": "0x2f925d6512b2bbb00f5a36d8b18e01fcf35f7dc7",
        "gas": "0x22e92",
        "value": "0x0",
        "input": "0x437bf84f000000000000000000000000000000000000000000000000000000000000006000000000000000000000000000000000000000000000000000000000000000a000000000000000000000000000000000000000000000000000000000000001400000000000000000000000000000000000000000000000000000000000000005313730303000000000000000000000000000000000000000000000000000000000000000000000000000000000000000000000000000000000000000000000010000000000000000000000000000000000000000000000000000000000000020000000000000000000000000000000000000000000000000000000000000002a3078653533364266333335383561613662623532383632374564374463344434393030396461664335380000000000000000000000000000000000000000000000000000000000000000000000000000000000000000000000000000000000010000000000000000000000000000000000000000000000000000000000000064",
        "nonce": "0x1c",
        "chainId": "0x8274f"
      },
      "additionalContracts": [],
      "isFixedGasLimit": false
    },
    {
      "hash": "0x8a154ebe48cda2ad99e4c98c942cfa0bfd52dc71126da2047f3bbd82de7c3bbb",
      "transactionType": "CALL",
      "contractName": null,
      "contractAddress": "0x2f925d6512b2bbb00f5a36d8b18e01fcf35f7dc7",
      "function": "addFeeToken(string,string[],uint256[])",
      "arguments": [
        "1946",
        "[0xe536Bf33585aa6bb528627Ed7Dc4D49009dafC58]",
        "[100]"
      ],
      "transaction": {
        "from": "0xc3ca11bd8e131471904dced927b3fb7edb453179",
        "to": "0x2f925d6512b2bbb00f5a36d8b18e01fcf35f7dc7",
        "gas": "0x22c8a",
        "value": "0x0",
        "input": "0x437bf84f000000000000000000000000000000000000000000000000000000000000006000000000000000000000000000000000000000000000000000000000000000a000000000000000000000000000000000000000000000000000000000000001400000000000000000000000000000000000000000000000000000000000000004313934360000000000000000000000000000000000000000000000000000000000000000000000000000000000000000000000000000000000000000000000010000000000000000000000000000000000000000000000000000000000000020000000000000000000000000000000000000000000000000000000000000002a3078653533364266333335383561613662623532383632374564374463344434393030396461664335380000000000000000000000000000000000000000000000000000000000000000000000000000000000000000000000000000000000010000000000000000000000000000000000000000000000000000000000000064",
        "nonce": "0x1d",
        "chainId": "0x8274f"
      },
      "additionalContracts": [],
      "isFixedGasLimit": false
    },
    {
      "hash": "0xb3e4ee199e996daec09397d6ce88eaaf150342d7181ce5d6135154cb289617b4",
      "transactionType": "CALL",
      "contractName": null,
      "contractAddress": "0x2f925d6512b2bbb00f5a36d8b18e01fcf35f7dc7",
      "function": "addFeeToken(string,string[],uint256[])",
      "arguments": [
        "421614",
        "[0xe536Bf33585aa6bb528627Ed7Dc4D49009dafC58]",
        "[100]"
      ],
      "transaction": {
        "from": "0xc3ca11bd8e131471904dced927b3fb7edb453179",
        "to": "0x2f925d6512b2bbb00f5a36d8b18e01fcf35f7dc7",
        "gas": "0x23099",
        "value": "0x0",
        "input": "0x437bf84f000000000000000000000000000000000000000000000000000000000000006000000000000000000000000000000000000000000000000000000000000000a000000000000000000000000000000000000000000000000000000000000001400000000000000000000000000000000000000000000000000000000000000006343231363134000000000000000000000000000000000000000000000000000000000000000000000000000000000000000000000000000000000000000000010000000000000000000000000000000000000000000000000000000000000020000000000000000000000000000000000000000000000000000000000000002a3078653533364266333335383561613662623532383632374564374463344434393030396461664335380000000000000000000000000000000000000000000000000000000000000000000000000000000000000000000000000000000000010000000000000000000000000000000000000000000000000000000000000064",
        "nonce": "0x1e",
        "chainId": "0x8274f"
      },
      "additionalContracts": [],
      "isFixedGasLimit": false
    },
    {
      "hash": "0xd50c7686b11dad75467bc826e0e59b290d4a2662dd0cabd77b5d824e47778b89",
      "transactionType": "CALL",
      "contractName": null,
      "contractAddress": "0x2f925d6512b2bbb00f5a36d8b18e01fcf35f7dc7",
      "function": "addFeeToken(string,string[],uint256[])",
      "arguments": [
        "43113",
        "[0xe536Bf33585aa6bb528627Ed7Dc4D49009dafC58]",
        "[100]"
      ],
      "transaction": {
        "from": "0xc3ca11bd8e131471904dced927b3fb7edb453179",
        "to": "0x2f925d6512b2bbb00f5a36d8b18e01fcf35f7dc7",
        "gas": "0x22e92",
        "value": "0x0",
        "input": "0x437bf84f000000000000000000000000000000000000000000000000000000000000006000000000000000000000000000000000000000000000000000000000000000a000000000000000000000000000000000000000000000000000000000000001400000000000000000000000000000000000000000000000000000000000000005343331313300000000000000000000000000000000000000000000000000000000000000000000000000000000000000000000000000000000000000000000010000000000000000000000000000000000000000000000000000000000000020000000000000000000000000000000000000000000000000000000000000002a3078653533364266333335383561613662623532383632374564374463344434393030396461664335380000000000000000000000000000000000000000000000000000000000000000000000000000000000000000000000000000000000010000000000000000000000000000000000000000000000000000000000000064",
        "nonce": "0x1f",
        "chainId": "0x8274f"
      },
      "additionalContracts": [],
      "isFixedGasLimit": false
    },
    {
      "hash": "0x4f34d4ac33e54f3b70902c4536f2628cbc9a4830b2d48171ec2c28f32b6880d9",
      "transactionType": "CALL",
      "contractName": null,
      "contractAddress": "0x2f925d6512b2bbb00f5a36d8b18e01fcf35f7dc7",
      "function": "addFeeToken(string,string[],uint256[])",
      "arguments": [
        "5611",
        "[0xe536Bf33585aa6bb528627Ed7Dc4D49009dafC58]",
        "[100]"
      ],
      "transaction": {
        "from": "0xc3ca11bd8e131471904dced927b3fb7edb453179",
        "to": "0x2f925d6512b2bbb00f5a36d8b18e01fcf35f7dc7",
        "gas": "0x22c8a",
        "value": "0x0",
        "input": "0x437bf84f000000000000000000000000000000000000000000000000000000000000006000000000000000000000000000000000000000000000000000000000000000a000000000000000000000000000000000000000000000000000000000000001400000000000000000000000000000000000000000000000000000000000000004353631310000000000000000000000000000000000000000000000000000000000000000000000000000000000000000000000000000000000000000000000010000000000000000000000000000000000000000000000000000000000000020000000000000000000000000000000000000000000000000000000000000002a3078653533364266333335383561613662623532383632374564374463344434393030396461664335380000000000000000000000000000000000000000000000000000000000000000000000000000000000000000000000000000000000010000000000000000000000000000000000000000000000000000000000000064",
        "nonce": "0x20",
        "chainId": "0x8274f"
      },
      "additionalContracts": [],
      "isFixedGasLimit": false
    },
    {
      "hash": "0x9dcd8a12688144b17a8de9f71f44d700f6cfb645578ba1a72b121f7762000878",
      "transactionType": "CALL",
      "contractName": null,
      "contractAddress": "0x2f925d6512b2bbb00f5a36d8b18e01fcf35f7dc7",
      "function": "addFeeToken(string,string[],uint256[])",
      "arguments": [
        "84532",
        "[0xe536Bf33585aa6bb528627Ed7Dc4D49009dafC58]",
        "[100]"
      ],
      "transaction": {
        "from": "0xc3ca11bd8e131471904dced927b3fb7edb453179",
        "to": "0x2f925d6512b2bbb00f5a36d8b18e01fcf35f7dc7",
        "gas": "0x22e92",
        "value": "0x0",
        "input": "0x437bf84f000000000000000000000000000000000000000000000000000000000000006000000000000000000000000000000000000000000000000000000000000000a000000000000000000000000000000000000000000000000000000000000001400000000000000000000000000000000000000000000000000000000000000005383435333200000000000000000000000000000000000000000000000000000000000000000000000000000000000000000000000000000000000000000000010000000000000000000000000000000000000000000000000000000000000020000000000000000000000000000000000000000000000000000000000000002a3078653533364266333335383561613662623532383632374564374463344434393030396461664335380000000000000000000000000000000000000000000000000000000000000000000000000000000000000000000000000000000000010000000000000000000000000000000000000000000000000000000000000064",
        "nonce": "0x21",
        "chainId": "0x8274f"
      },
      "additionalContracts": [],
      "isFixedGasLimit": false
    },
    {
      "hash": "0x7e1472621377934b78911db8f8d38d591c0613e3efa7b3b25c6d97bf9569cfe4",
      "transactionType": "CALL",
      "contractName": null,
      "contractAddress": "0x2f925d6512b2bbb00f5a36d8b18e01fcf35f7dc7",
      "function": "addFeeToken(string,string[],uint256[])",
      "arguments": [
        "97",
        "[0xe536Bf33585aa6bb528627Ed7Dc4D49009dafC58]",
        "[100]"
      ],
      "transaction": {
        "from": "0xc3ca11bd8e131471904dced927b3fb7edb453179",
        "to": "0x2f925d6512b2bbb00f5a36d8b18e01fcf35f7dc7",
        "gas": "0x2287c",
        "value": "0x0",
        "input": "0x437bf84f000000000000000000000000000000000000000000000000000000000000006000000000000000000000000000000000000000000000000000000000000000a000000000000000000000000000000000000000000000000000000000000001400000000000000000000000000000000000000000000000000000000000000002393700000000000000000000000000000000000000000000000000000000000000000000000000000000000000000000000000000000000000000000000000010000000000000000000000000000000000000000000000000000000000000020000000000000000000000000000000000000000000000000000000000000002a3078653533364266333335383561613662623532383632374564374463344434393030396461664335380000000000000000000000000000000000000000000000000000000000000000000000000000000000000000000000000000000000010000000000000000000000000000000000000000000000000000000000000064",
        "nonce": "0x22",
        "chainId": "0x8274f"
      },
      "additionalContracts": [],
      "isFixedGasLimit": false
    },
    {
      "hash": "0x98d7368a3afe2abcb316301c19c5ef4ebe60b2217bad89dfc1a61c8e2ee04981",
      "transactionType": "CALL",
      "contractName": null,
      "contractAddress": "0x2f925d6512b2bbb00f5a36d8b18e01fcf35f7dc7",
      "function": "setFeeMultiplier(uint8,uint256)",
      "arguments": [
        "0",
        "2"
      ],
      "transaction": {
        "from": "0xc3ca11bd8e131471904dced927b3fb7edb453179",
        "to": "0x2f925d6512b2bbb00f5a36d8b18e01fcf35f7dc7",
        "gas": "0x13e30",
        "value": "0x0",
        "input": "0x0ee24eb500000000000000000000000000000000000000000000000000000000000000000000000000000000000000000000000000000000000000000000000000000002",
        "nonce": "0x23",
        "chainId": "0x8274f"
      },
      "additionalContracts": [],
      "isFixedGasLimit": false
    },
    {
      "hash": "0xdbe670cbd7eed4c4fd02826c514a32edd3d8d5cbe4812b6dfe3e07e9446f80fd",
      "transactionType": "CALL",
      "contractName": null,
      "contractAddress": "0x2f925d6512b2bbb00f5a36d8b18e01fcf35f7dc7",
      "function": "setFeeMultiplier(uint8,uint256)",
      "arguments": [
        "1",
        "10"
      ],
      "transaction": {
        "from": "0xc3ca11bd8e131471904dced927b3fb7edb453179",
        "to": "0x2f925d6512b2bbb00f5a36d8b18e01fcf35f7dc7",
        "gas": "0x150fa",
        "value": "0x0",
        "input": "0x0ee24eb50000000000000000000000000000000000000000000000000000000000000001000000000000000000000000000000000000000000000000000000000000000a",
        "nonce": "0x24",
        "chainId": "0x8274f"
      },
      "additionalContracts": [],
      "isFixedGasLimit": false
    },
    {
      "hash": "0xd87d691b79e528ae0e003fbdddda8f47b592aa5ec487d1d3bc3dec12691d65bd",
      "transactionType": "CALL",
      "contractName": null,
      "contractAddress": "0x2f925d6512b2bbb00f5a36d8b18e01fcf35f7dc7",
      "function": "setFeeMultiplier(uint8,uint256)",
      "arguments": [
        "2",
        "1"
      ],
      "transaction": {
        "from": "0xc3ca11bd8e131471904dced927b3fb7edb453179",
        "to": "0x2f925d6512b2bbb00f5a36d8b18e01fcf35f7dc7",
        "gas": "0x150fa",
        "value": "0x0",
        "input": "0x0ee24eb500000000000000000000000000000000000000000000000000000000000000020000000000000000000000000000000000000000000000000000000000000001",
        "nonce": "0x25",
        "chainId": "0x8274f"
      },
      "additionalContracts": [],
      "isFixedGasLimit": false
    },
    {
      "hash": "0x0f746ba1d472add92747317094b6c47bcd4af63f0f200a67a97a60072debf42a",
      "transactionType": "CALL",
      "contractName": null,
      "contractAddress": "0x2f925d6512b2bbb00f5a36d8b18e01fcf35f7dc7",
      "function": "setFeeMultiplier(uint8,uint256)",
      "arguments": [
        "3",
        "4"
      ],
      "transaction": {
        "from": "0xc3ca11bd8e131471904dced927b3fb7edb453179",
        "to": "0x2f925d6512b2bbb00f5a36d8b18e01fcf35f7dc7",
        "gas": "0x150fa",
        "value": "0x0",
        "input": "0x0ee24eb500000000000000000000000000000000000000000000000000000000000000030000000000000000000000000000000000000000000000000000000000000004",
        "nonce": "0x26",
        "chainId": "0x8274f"
      },
      "additionalContracts": [],
      "isFixedGasLimit": false
    },
    {
      "hash": "0xaca3623edb2fff4821682592e503ea44fee52482704a8098995dfc9d6fad786a",
      "transactionType": "CALL",
      "contractName": null,
      "contractAddress": "0x2f925d6512b2bbb00f5a36d8b18e01fcf35f7dc7",
      "function": "setFeeMultiplier(uint8,uint256)",
      "arguments": [
        "4",
        "4"
      ],
      "transaction": {
        "from": "0xc3ca11bd8e131471904dced927b3fb7edb453179",
        "to": "0x2f925d6512b2bbb00f5a36d8b18e01fcf35f7dc7",
        "gas": "0x150fa",
        "value": "0x0",
        "input": "0x0ee24eb500000000000000000000000000000000000000000000000000000000000000040000000000000000000000000000000000000000000000000000000000000004",
        "nonce": "0x27",
        "chainId": "0x8274f"
      },
      "additionalContracts": [],
      "isFixedGasLimit": false
    },
    {
      "hash": "0x4b72752b81c88e71b3bc20d0f2b65a02cb4c0430d0cbe6cd7a7809dd371c7452",
      "transactionType": "CALL",
      "contractName": null,
      "contractAddress": "0x2f925d6512b2bbb00f5a36d8b18e01fcf35f7dc7",
      "function": "setFeeMultiplier(uint8,uint256)",
      "arguments": [
        "5",
        "4"
      ],
      "transaction": {
        "from": "0xc3ca11bd8e131471904dced927b3fb7edb453179",
        "to": "0x2f925d6512b2bbb00f5a36d8b18e01fcf35f7dc7",
        "gas": "0x150fa",
        "value": "0x0",
        "input": "0x0ee24eb500000000000000000000000000000000000000000000000000000000000000050000000000000000000000000000000000000000000000000000000000000004",
        "nonce": "0x28",
        "chainId": "0x8274f"
      },
      "additionalContracts": [],
      "isFixedGasLimit": false
    },
    {
      "hash": "0x2b74f5ae3c899ae21da9e6661e6d09663a04622f8378537525081a78760a45c2",
      "transactionType": "CALL",
      "contractName": null,
      "contractAddress": "0x2f925d6512b2bbb00f5a36d8b18e01fcf35f7dc7",
      "function": "setFeeMultiplier(uint8,uint256)",
      "arguments": [
        "6",
        "8"
      ],
      "transaction": {
        "from": "0xc3ca11bd8e131471904dced927b3fb7edb453179",
        "to": "0x2f925d6512b2bbb00f5a36d8b18e01fcf35f7dc7",
        "gas": "0x150fa",
        "value": "0x0",
        "input": "0x0ee24eb500000000000000000000000000000000000000000000000000000000000000060000000000000000000000000000000000000000000000000000000000000008",
        "nonce": "0x29",
        "chainId": "0x8274f"
      },
      "additionalContracts": [],
      "isFixedGasLimit": false
    },
    {
      "hash": "0x0726dcea9c1be41868109a0d933469e9f5eb63bdfec8a0dbda5d48f9f30189fd",
      "transactionType": "CALL",
      "contractName": null,
      "contractAddress": "0x2f925d6512b2bbb00f5a36d8b18e01fcf35f7dc7",
      "function": "setFeeMultiplier(uint8,uint256)",
      "arguments": [
        "7",
        "4"
      ],
      "transaction": {
        "from": "0xc3ca11bd8e131471904dced927b3fb7edb453179",
        "to": "0x2f925d6512b2bbb00f5a36d8b18e01fcf35f7dc7",
        "gas": "0x150fa",
        "value": "0x0",
        "input": "0x0ee24eb500000000000000000000000000000000000000000000000000000000000000070000000000000000000000000000000000000000000000000000000000000004",
        "nonce": "0x2a",
        "chainId": "0x8274f"
      },
      "additionalContracts": [],
      "isFixedGasLimit": false
    },
    {
      "hash": "0x2e258e7a79516cd8053818628a4530f74803f58403f06aeebf08894722e8e438",
      "transactionType": "CALL",
      "contractName": null,
      "contractAddress": "0x2f925d6512b2bbb00f5a36d8b18e01fcf35f7dc7",
      "function": "setFeeMultiplier(uint8,uint256)",
      "arguments": [
        "8",
        "10"
      ],
      "transaction": {
        "from": "0xc3ca11bd8e131471904dced927b3fb7edb453179",
        "to": "0x2f925d6512b2bbb00f5a36d8b18e01fcf35f7dc7",
        "gas": "0x150fa",
        "value": "0x0",
        "input": "0x0ee24eb50000000000000000000000000000000000000000000000000000000000000008000000000000000000000000000000000000000000000000000000000000000a",
        "nonce": "0x2b",
        "chainId": "0x8274f"
      },
      "additionalContracts": [],
      "isFixedGasLimit": false
    },
    {
      "hash": "0xb3951018c9da4553a14918c9f6682764d47cf873f163c70fb8b27a8a5eedff9e",
      "transactionType": "CALL",
      "contractName": null,
      "contractAddress": "0x2f925d6512b2bbb00f5a36d8b18e01fcf35f7dc7",
      "function": "setFeeMultiplier(uint8,uint256)",
      "arguments": [
        "9",
        "8"
      ],
      "transaction": {
        "from": "0xc3ca11bd8e131471904dced927b3fb7edb453179",
        "to": "0x2f925d6512b2bbb00f5a36d8b18e01fcf35f7dc7",
        "gas": "0x150fa",
        "value": "0x0",
        "input": "0x0ee24eb500000000000000000000000000000000000000000000000000000000000000090000000000000000000000000000000000000000000000000000000000000008",
        "nonce": "0x2c",
        "chainId": "0x8274f"
      },
      "additionalContracts": [],
      "isFixedGasLimit": false
    },
    {
      "hash": "0x39315dc2f02916939094cb81af04da88c6fb901b40ccd657b43501750d894616",
      "transactionType": "CALL",
      "contractName": null,
      "contractAddress": "0x2f925d6512b2bbb00f5a36d8b18e01fcf35f7dc7",
      "function": "setFeeMultiplier(uint8,uint256)",
      "arguments": [
        "10",
        "8"
      ],
      "transaction": {
        "from": "0xc3ca11bd8e131471904dced927b3fb7edb453179",
        "to": "0x2f925d6512b2bbb00f5a36d8b18e01fcf35f7dc7",
        "gas": "0x150fa",
        "value": "0x0",
        "input": "0x0ee24eb5000000000000000000000000000000000000000000000000000000000000000a0000000000000000000000000000000000000000000000000000000000000008",
        "nonce": "0x2d",
        "chainId": "0x8274f"
      },
      "additionalContracts": [],
      "isFixedGasLimit": false
    },
    {
      "hash": "0x0505a69f7c03abf2eeb7a9c478e1f265440d094b977b90a2c65e2021c6efa325",
      "transactionType": "CALL",
      "contractName": null,
      "contractAddress": "0x2f925d6512b2bbb00f5a36d8b18e01fcf35f7dc7",
      "function": "setFeeMultiplier(uint8,uint256)",
      "arguments": [
        "11",
        "8"
      ],
      "transaction": {
        "from": "0xc3ca11bd8e131471904dced927b3fb7edb453179",
        "to": "0x2f925d6512b2bbb00f5a36d8b18e01fcf35f7dc7",
        "gas": "0x150fa",
        "value": "0x0",
        "input": "0x0ee24eb5000000000000000000000000000000000000000000000000000000000000000b0000000000000000000000000000000000000000000000000000000000000008",
        "nonce": "0x2e",
        "chainId": "0x8274f"
      },
      "additionalContracts": [],
      "isFixedGasLimit": false
    },
    {
      "hash": "0xc382e2e57e52bcb4c824d8f5a8b4b027350c8b26d2ac92d167fffa7024e82202",
      "transactionType": "CALL",
      "contractName": null,
      "contractAddress": "0x2f925d6512b2bbb00f5a36d8b18e01fcf35f7dc7",
      "function": "setFeeMultiplier(uint8,uint256)",
      "arguments": [
        "12",
        "20"
      ],
      "transaction": {
        "from": "0xc3ca11bd8e131471904dced927b3fb7edb453179",
        "to": "0x2f925d6512b2bbb00f5a36d8b18e01fcf35f7dc7",
        "gas": "0x150fa",
        "value": "0x0",
        "input": "0x0ee24eb5000000000000000000000000000000000000000000000000000000000000000c0000000000000000000000000000000000000000000000000000000000000014",
        "nonce": "0x2f",
        "chainId": "0x8274f"
      },
      "additionalContracts": [],
      "isFixedGasLimit": false
    },
    {
      "hash": "0xcd20b779583eaea4b9f408d1b414304a6ea6624cfcc50ea7e3b3b00868cab0df",
      "transactionType": "CALL",
      "contractName": null,
      "contractAddress": "0x2f925d6512b2bbb00f5a36d8b18e01fcf35f7dc7",
      "function": "setFeeMultiplier(uint8,uint256)",
      "arguments": [
        "13",
        "8"
      ],
      "transaction": {
        "from": "0xc3ca11bd8e131471904dced927b3fb7edb453179",
        "to": "0x2f925d6512b2bbb00f5a36d8b18e01fcf35f7dc7",
        "gas": "0x150fa",
        "value": "0x0",
        "input": "0x0ee24eb5000000000000000000000000000000000000000000000000000000000000000d0000000000000000000000000000000000000000000000000000000000000008",
        "nonce": "0x30",
        "chainId": "0x8274f"
      },
      "additionalContracts": [],
      "isFixedGasLimit": false
    },
    {
      "hash": "0x2b8bb3532dbb4f0d2a63940424f2e51b434dca28eb0ad99247268878d3317d97",
      "transactionType": "CALL",
      "contractName": null,
      "contractAddress": "0x2f925d6512b2bbb00f5a36d8b18e01fcf35f7dc7",
      "function": "setFeeMultiplier(uint8,uint256)",
      "arguments": [
        "14",
        "4"
      ],
      "transaction": {
        "from": "0xc3ca11bd8e131471904dced927b3fb7edb453179",
        "to": "0x2f925d6512b2bbb00f5a36d8b18e01fcf35f7dc7",
        "gas": "0x150fa",
        "value": "0x0",
        "input": "0x0ee24eb5000000000000000000000000000000000000000000000000000000000000000e0000000000000000000000000000000000000000000000000000000000000004",
        "nonce": "0x31",
        "chainId": "0x8274f"
      },
      "additionalContracts": [],
      "isFixedGasLimit": false
    },
    {
      "hash": "0xb3b524e05b5c238da3e5c33a4baa7372fb9cce81e4415fece222d582bccbe361",
      "transactionType": "CALL",
      "contractName": null,
      "contractAddress": "0x2f925d6512b2bbb00f5a36d8b18e01fcf35f7dc7",
      "function": "setFeeMultiplier(uint8,uint256)",
      "arguments": [
        "15",
        "4"
      ],
      "transaction": {
        "from": "0xc3ca11bd8e131471904dced927b3fb7edb453179",
        "to": "0x2f925d6512b2bbb00f5a36d8b18e01fcf35f7dc7",
        "gas": "0x150fa",
        "value": "0x0",
        "input": "0x0ee24eb5000000000000000000000000000000000000000000000000000000000000000f0000000000000000000000000000000000000000000000000000000000000004",
        "nonce": "0x32",
        "chainId": "0x8274f"
      },
      "additionalContracts": [],
      "isFixedGasLimit": false
    },
    {
      "hash": "0x06673f811759f9accfb694d9ca265dd655f5ea19f49ef3269d3ba3b6a52b6df3",
      "transactionType": "CALL",
      "contractName": null,
      "contractAddress": "0x2f925d6512b2bbb00f5a36d8b18e01fcf35f7dc7",
      "function": "setFeeMultiplier(uint8,uint256)",
      "arguments": [
        "16",
        "4"
      ],
      "transaction": {
        "from": "0xc3ca11bd8e131471904dced927b3fb7edb453179",
        "to": "0x2f925d6512b2bbb00f5a36d8b18e01fcf35f7dc7",
        "gas": "0x150fa",
        "value": "0x0",
        "input": "0x0ee24eb500000000000000000000000000000000000000000000000000000000000000100000000000000000000000000000000000000000000000000000000000000004",
        "nonce": "0x33",
        "chainId": "0x8274f"
      },
      "additionalContracts": [],
      "isFixedGasLimit": false
    },
    {
      "hash": "0xfa6ef832ab9b64a606a2b3bb4a6f45e3a766abb0a67930291ed9aecb42cdace3",
      "transactionType": "CALL",
      "contractName": null,
      "contractAddress": "0x2f925d6512b2bbb00f5a36d8b18e01fcf35f7dc7",
      "function": "setFeeMultiplier(uint8,uint256)",
      "arguments": [
        "17",
        "4"
      ],
      "transaction": {
        "from": "0xc3ca11bd8e131471904dced927b3fb7edb453179",
        "to": "0x2f925d6512b2bbb00f5a36d8b18e01fcf35f7dc7",
        "gas": "0x150fa",
        "value": "0x0",
        "input": "0x0ee24eb500000000000000000000000000000000000000000000000000000000000000110000000000000000000000000000000000000000000000000000000000000004",
        "nonce": "0x34",
        "chainId": "0x8274f"
      },
      "additionalContracts": [],
      "isFixedGasLimit": false
    },
    {
      "hash": "0x6d38734dee7d06e572895dd7a6f7be4db4c5c7825a1de6a0ced897da3d7579b6",
      "transactionType": "CALL",
      "contractName": null,
      "contractAddress": "0x2f925d6512b2bbb00f5a36d8b18e01fcf35f7dc7",
      "function": "setFeeMultiplier(uint8,uint256)",
      "arguments": [
        "18",
        "2"
      ],
      "transaction": {
        "from": "0xc3ca11bd8e131471904dced927b3fb7edb453179",
        "to": "0x2f925d6512b2bbb00f5a36d8b18e01fcf35f7dc7",
        "gas": "0x150fa",
        "value": "0x0",
        "input": "0x0ee24eb500000000000000000000000000000000000000000000000000000000000000120000000000000000000000000000000000000000000000000000000000000002",
        "nonce": "0x35",
        "chainId": "0x8274f"
      },
      "additionalContracts": [],
      "isFixedGasLimit": false
    },
    {
      "hash": "0x013c16b91357f23e9a74662dabb208327853e0078523b1a8aea4cf8bb06d29c0",
      "transactionType": "CALL",
      "contractName": null,
      "contractAddress": "0x2f925d6512b2bbb00f5a36d8b18e01fcf35f7dc7",
      "function": "setFeeMultiplier(uint8,uint256)",
      "arguments": [
        "19",
        "20"
      ],
      "transaction": {
        "from": "0xc3ca11bd8e131471904dced927b3fb7edb453179",
        "to": "0x2f925d6512b2bbb00f5a36d8b18e01fcf35f7dc7",
        "gas": "0x150fa",
        "value": "0x0",
        "input": "0x0ee24eb500000000000000000000000000000000000000000000000000000000000000130000000000000000000000000000000000000000000000000000000000000014",
        "nonce": "0x36",
        "chainId": "0x8274f"
      },
      "additionalContracts": [],
      "isFixedGasLimit": false
    },
    {
      "hash": "0xa1cefecd8ffef670d96fba0fe8c3f410d03c2ad699cb08f600acd0fd1bf04eea",
      "transactionType": "CALL",
      "contractName": null,
      "contractAddress": "0x2f925d6512b2bbb00f5a36d8b18e01fcf35f7dc7",
      "function": "setFeeMultiplier(uint8,uint256)",
      "arguments": [
        "20",
        "2"
      ],
      "transaction": {
        "from": "0xc3ca11bd8e131471904dced927b3fb7edb453179",
        "to": "0x2f925d6512b2bbb00f5a36d8b18e01fcf35f7dc7",
        "gas": "0x150fa",
        "value": "0x0",
        "input": "0x0ee24eb500000000000000000000000000000000000000000000000000000000000000140000000000000000000000000000000000000000000000000000000000000002",
        "nonce": "0x37",
        "chainId": "0x8274f"
      },
      "additionalContracts": [],
      "isFixedGasLimit": false
    },
    {
      "hash": "0x93a9d713975917f74adb483d53f288ce915c9fd3dceb6e106799fa42af57c968",
      "transactionType": "CALL",
      "contractName": null,
      "contractAddress": "0x2f925d6512b2bbb00f5a36d8b18e01fcf35f7dc7",
      "function": "setFeeMultiplier(uint8,uint256)",
      "arguments": [
        "21",
        "1"
      ],
      "transaction": {
        "from": "0xc3ca11bd8e131471904dced927b3fb7edb453179",
        "to": "0x2f925d6512b2bbb00f5a36d8b18e01fcf35f7dc7",
        "gas": "0x150fa",
        "value": "0x0",
        "input": "0x0ee24eb500000000000000000000000000000000000000000000000000000000000000150000000000000000000000000000000000000000000000000000000000000001",
        "nonce": "0x38",
        "chainId": "0x8274f"
      },
      "additionalContracts": [],
      "isFixedGasLimit": false
    },
    {
      "hash": "0x4413ba957b8590298475e615f5da28f9b957090f9fc0bf190a302865740a2485",
      "transactionType": "CALL",
      "contractName": null,
      "contractAddress": "0x2f925d6512b2bbb00f5a36d8b18e01fcf35f7dc7",
      "function": "setFeeMultiplier(uint8,uint256)",
      "arguments": [
        "22",
        "1"
      ],
      "transaction": {
        "from": "0xc3ca11bd8e131471904dced927b3fb7edb453179",
        "to": "0x2f925d6512b2bbb00f5a36d8b18e01fcf35f7dc7",
        "gas": "0x150fa",
        "value": "0x0",
        "input": "0x0ee24eb500000000000000000000000000000000000000000000000000000000000000160000000000000000000000000000000000000000000000000000000000000001",
        "nonce": "0x39",
        "chainId": "0x8274f"
      },
      "additionalContracts": [],
      "isFixedGasLimit": false
    },
    {
      "hash": "0x30015327b87d72a05027c81ba23cc9130ab5e4b128144290190098d5a18b47e5",
      "transactionType": "CALL",
      "contractName": null,
      "contractAddress": "0x2f925d6512b2bbb00f5a36d8b18e01fcf35f7dc7",
      "function": "setFeeMultiplier(uint8,uint256)",
      "arguments": [
        "23",
        "5"
      ],
      "transaction": {
        "from": "0xc3ca11bd8e131471904dced927b3fb7edb453179",
        "to": "0x2f925d6512b2bbb00f5a36d8b18e01fcf35f7dc7",
        "gas": "0x150fa",
        "value": "0x0",
        "input": "0x0ee24eb500000000000000000000000000000000000000000000000000000000000000170000000000000000000000000000000000000000000000000000000000000005",
        "nonce": "0x3a",
        "chainId": "0x8274f"
      },
      "additionalContracts": [],
      "isFixedGasLimit": false
    },
    {
      "hash": "0xfdf4e74145ae9946008b7651e5a105334a66b0dd880b69ae72bf93454e1121b6",
      "transactionType": "CALL",
      "contractName": null,
      "contractAddress": "0x2f925d6512b2bbb00f5a36d8b18e01fcf35f7dc7",
      "function": "setFeeMultiplier(uint8,uint256)",
      "arguments": [
        "24",
        "5"
      ],
      "transaction": {
        "from": "0xc3ca11bd8e131471904dced927b3fb7edb453179",
        "to": "0x2f925d6512b2bbb00f5a36d8b18e01fcf35f7dc7",
        "gas": "0x150fa",
        "value": "0x0",
        "input": "0x0ee24eb500000000000000000000000000000000000000000000000000000000000000180000000000000000000000000000000000000000000000000000000000000005",
        "nonce": "0x3b",
        "chainId": "0x8274f"
      },
      "additionalContracts": [],
      "isFixedGasLimit": false
    },
    {
      "hash": "0xfe5c6327787511a9d4ffb6d031f01967b35e17868530241c5596bb29afd93405",
      "transactionType": "CALL",
      "contractName": null,
      "contractAddress": "0x2f925d6512b2bbb00f5a36d8b18e01fcf35f7dc7",
      "function": "setFeeMultiplier(uint8,uint256)",
      "arguments": [
        "25",
        "5"
      ],
      "transaction": {
        "from": "0xc3ca11bd8e131471904dced927b3fb7edb453179",
        "to": "0x2f925d6512b2bbb00f5a36d8b18e01fcf35f7dc7",
        "gas": "0x150fa",
        "value": "0x0",
        "input": "0x0ee24eb500000000000000000000000000000000000000000000000000000000000000190000000000000000000000000000000000000000000000000000000000000005",
        "nonce": "0x3c",
        "chainId": "0x8274f"
      },
      "additionalContracts": [],
      "isFixedGasLimit": false
    },
    {
      "hash": "0x13fb38fb0f3c9d86a48956c5cbf14e7c2fdb4214faa3b548747f95f8e8ad029c",
      "transactionType": "CALL",
      "contractName": null,
      "contractAddress": "0x2f925d6512b2bbb00f5a36d8b18e01fcf35f7dc7",
      "function": "setFeeMultiplier(uint8,uint256)",
      "arguments": [
        "26",
        "5"
      ],
      "transaction": {
        "from": "0xc3ca11bd8e131471904dced927b3fb7edb453179",
        "to": "0x2f925d6512b2bbb00f5a36d8b18e01fcf35f7dc7",
        "gas": "0x150fa",
        "value": "0x0",
        "input": "0x0ee24eb5000000000000000000000000000000000000000000000000000000000000001a0000000000000000000000000000000000000000000000000000000000000005",
        "nonce": "0x3d",
        "chainId": "0x8274f"
      },
      "additionalContracts": [],
      "isFixedGasLimit": false
    },
    {
      "hash": "0x3bbbeb5aaee8aada34188de8b80e8895edbffd5f0dff10be892f13d212af929c",
      "transactionType": "CALL",
      "contractName": null,
      "contractAddress": "0x9c9e9fad264089339aad66ff3e32d2ba1ddf6951",
      "function": "setFallback(address)",
      "arguments": [
        "0xa35EF74f047fC846Af8863e4FAc5E750eB5A59cf"
      ],
      "transaction": {
        "from": "0xc3ca11bd8e131471904dced927b3fb7edb453179",
        "to": "0x9c9e9fad264089339aad66ff3e32d2ba1ddf6951",
        "gas": "0x1a3cb",
        "value": "0x0",
        "input": "0x32b12eac000000000000000000000000a35ef74f047fc846af8863e4fac5e750eb5a59cf",
        "nonce": "0x3e",
        "chainId": "0x8274f"
      },
      "additionalContracts": [],
      "isFixedGasLimit": false
    },
    {
      "hash": "0x22bfe385790553cbdf3a2480ac296f263d2891b8696e12b5a29a65c0b310b08f",
      "transactionType": "CALL",
      "contractName": null,
      "contractAddress": "0x9c9e9fad264089339aad66ff3e32d2ba1ddf6951",
      "function": "setCtmRwaDeployer(address)",
      "arguments": [
        "0xE912F7c7A59470a6E3f178388106E3caa9e6fbd1"
      ],
      "transaction": {
        "from": "0xc3ca11bd8e131471904dced927b3fb7edb453179",
        "to": "0x9c9e9fad264089339aad66ff3e32d2ba1ddf6951",
        "gas": "0x12314",
        "value": "0x0",
        "input": "0xf1e4f707000000000000000000000000e912f7c7a59470a6e3f178388106e3caa9e6fbd1",
        "nonce": "0x3f",
        "chainId": "0x8274f"
      },
      "additionalContracts": [],
      "isFixedGasLimit": false
    },
    {
      "hash": "0x023144f5b57767b78370ae4a3f6bbe30ddf208dacb4f32df43c2592eaf2ffcf4",
      "transactionType": "CALL",
      "contractName": null,
      "contractAddress": "0x9c9e9fad264089339aad66ff3e32d2ba1ddf6951",
      "function": "setCtmRwaMap(address)",
      "arguments": [
        "0x2026027054F5beBCEB650aBD62dC623e327658e7"
      ],
      "transaction": {
        "from": "0xc3ca11bd8e131471904dced927b3fb7edb453179",
        "to": "0x9c9e9fad264089339aad66ff3e32d2ba1ddf6951",
        "gas": "0x21040",
        "value": "0x0",
        "input": "0x08add95f0000000000000000000000002026027054f5bebceb650abd62dc623e327658e7",
        "nonce": "0x40",
        "chainId": "0x8274f"
      },
      "additionalContracts": [],
      "isFixedGasLimit": false
    },
    {
      "hash": "0x31c708055ed6e14a82c490aff1e96fa8ff35a7711571302c743505fc001ce69e",
      "transactionType": "CALL",
      "contractName": null,
      "contractAddress": "0xe912f7c7a59470a6e3f178388106e3caa9e6fbd1",
      "function": "setDeployInvest(address)",
      "arguments": [
        "0x082D752d0f439aa7F69c2c6BE79fF7056515636D"
      ],
      "transaction": {
        "from": "0xc3ca11bd8e131471904dced927b3fb7edb453179",
        "to": "0xe912f7c7a59470a6e3f178388106e3caa9e6fbd1",
        "gas": "0x13028",
        "value": "0x0",
        "input": "0x51ae9e56000000000000000000000000082d752d0f439aa7f69c2c6be79ff7056515636d",
        "nonce": "0x41",
        "chainId": "0x8274f"
      },
      "additionalContracts": [],
      "isFixedGasLimit": false
    },
    {
      "hash": "0x3bafad878d3567db3b62df9626219411f556e40d40dfcec68e152e907c64f4d8",
      "transactionType": "CALL",
      "contractName": null,
      "contractAddress": "0xe912f7c7a59470a6e3f178388106e3caa9e6fbd1",
      "function": "setErc20DeployerAddress(address)",
      "arguments": [
        "0xEbC3c7C5f2EE040db257bf4e3c7d5794818a13F8"
      ],
      "transaction": {
        "from": "0xc3ca11bd8e131471904dced927b3fb7edb453179",
        "to": "0xe912f7c7a59470a6e3f178388106e3caa9e6fbd1",
        "gas": "0x12f06",
        "value": "0x0",
        "input": "0x0eab9e49000000000000000000000000ebc3c7c5f2ee040db257bf4e3c7d5794818a13f8",
        "nonce": "0x42",
        "chainId": "0x8274f"
      },
      "additionalContracts": [],
      "isFixedGasLimit": false
    },
    {
      "hash": "0x942fea75716b9b5926c542511405332e03811032ab309e6cad8fc9ccb6a924af",
      "transactionType": "CALL",
      "contractName": null,
      "contractAddress": "0xe912f7c7a59470a6e3f178388106e3caa9e6fbd1",
      "function": "setTokenFactory(uint256,uint256,address)",
      "arguments": [
        "1",
        "1",
        "0x902e297ef81a3250f9F20D73b7465ac5d4966241"
      ],
      "transaction": {
        "from": "0xc3ca11bd8e131471904dced927b3fb7edb453179",
        "to": "0xe912f7c7a59470a6e3f178388106e3caa9e6fbd1",
        "gas": "0x1253d",
        "value": "0x0",
        "input": "0xf1a31c6d00000000000000000000000000000000000000000000000000000000000000010000000000000000000000000000000000000000000000000000000000000001000000000000000000000000902e297ef81a3250f9f20d73b7465ac5d4966241",
        "nonce": "0x43",
        "chainId": "0x8274f"
      },
      "additionalContracts": [],
      "isFixedGasLimit": false
    },
    {
      "hash": "0xdb2ee1d6cae5d60949be826803acc04d7ef7ec97c24b5e01d997b503d4343542",
      "transactionType": "CALL",
      "contractName": null,
      "contractAddress": "0xe912f7c7a59470a6e3f178388106e3caa9e6fbd1",
      "function": "setDividendFactory(uint256,uint256,address)",
      "arguments": [
        "1",
        "1",
        "0xbF5F67A9387a488a9aC054FCD49E39fBF37E79b0"
      ],
      "transaction": {
        "from": "0xc3ca11bd8e131471904dced927b3fb7edb453179",
        "to": "0xe912f7c7a59470a6e3f178388106e3caa9e6fbd1",
        "gas": "0x123a3",
        "value": "0x0",
        "input": "0xae7b00fc00000000000000000000000000000000000000000000000000000000000000010000000000000000000000000000000000000000000000000000000000000001000000000000000000000000bf5f67a9387a488a9ac054fcd49e39fbf37e79b0",
        "nonce": "0x44",
        "chainId": "0x8274f"
      },
      "additionalContracts": [],
      "isFixedGasLimit": false
    },
    {
      "hash": "0x87bdfe3cb39ec6f7ca20f500b6e33e8c0b15afc89bd3347e8849ea9f93e6456a",
      "transactionType": "CALL",
      "contractName": null,
      "contractAddress": "0xe912f7c7a59470a6e3f178388106e3caa9e6fbd1",
      "function": "setStorageFactory(uint256,uint256,address)",
      "arguments": [
        "1",
        "1",
        "0x92228B058f25Bc4fb333fA296dDdECBdDf6496f3"
      ],
      "transaction": {
        "from": "0xc3ca11bd8e131471904dced927b3fb7edb453179",
        "to": "0xe912f7c7a59470a6e3f178388106e3caa9e6fbd1",
        "gas": "0x12246",
        "value": "0x0",
        "input": "0x5b2004dc0000000000000000000000000000000000000000000000000000000000000001000000000000000000000000000000000000000000000000000000000000000100000000000000000000000092228b058f25bc4fb333fa296dddecbddf6496f3",
        "nonce": "0x45",
        "chainId": "0x8274f"
      },
      "additionalContracts": [],
      "isFixedGasLimit": false
    },
    {
      "hash": "0x0d9051bea5ca26efc4e755d48c025a036cbc8455bee5b3c542795dc36e296e08",
      "transactionType": "CALL",
      "contractName": null,
      "contractAddress": "0xe912f7c7a59470a6e3f178388106e3caa9e6fbd1",
      "function": "setSentryFactory(uint256,uint256,address)",
      "arguments": [
        "1",
        "1",
        "0x2AF842C6517CF30Fb3456aeF485230e0DD085845"
      ],
      "transaction": {
        "from": "0xc3ca11bd8e131471904dced927b3fb7edb453179",
        "to": "0xe912f7c7a59470a6e3f178388106e3caa9e6fbd1",
        "gas": "0x12339",
        "value": "0x0",
        "input": "0x9aa3f089000000000000000000000000000000000000000000000000000000000000000100000000000000000000000000000000000000000000000000000000000000010000000000000000000000002af842c6517cf30fb3456aef485230e0dd085845",
        "nonce": "0x46",
        "chainId": "0x8274f"
      },
      "additionalContracts": [],
      "isFixedGasLimit": false
    },
    {
      "hash": "0xbcb3094c68b56437d032cf20729e61daeb0bc8b803c261a98cca9a434ace1bef",
      "transactionType": "CALL",
      "contractName": null,
      "contractAddress": "0x92228b058f25bc4fb333fa296dddecbddf6496f3",
      "function": "setStorageUtils(address)",
      "arguments": [
        "0xee6A66C156EADfefA260618627dF5BCbA04fD2B1"
      ],
      "transaction": {
        "from": "0xc3ca11bd8e131471904dced927b3fb7edb453179",
        "to": "0x92228b058f25bc4fb333fa296dddecbddf6496f3",
        "gas": "0x11fb7",
        "value": "0x0",
        "input": "0x9dcbd16c000000000000000000000000ee6a66c156eadfefa260618627df5bcba04fd2b1",
        "nonce": "0x47",
        "chainId": "0x8274f"
      },
      "additionalContracts": [],
      "isFixedGasLimit": false
    },
    {
      "hash": "0xddcdd9c70f911d29dfdad457def360f63ce2b9230d7b7f0c4255f2170a25e320",
      "transactionType": "CALL",
      "contractName": null,
      "contractAddress": "0x92228b058f25bc4fb333fa296dddecbddf6496f3",
      "function": "setCtmRwaDeployer(address)",
      "arguments": [
        "0xE912F7c7A59470a6E3f178388106E3caa9e6fbd1"
      ],
      "transaction": {
        "from": "0xc3ca11bd8e131471904dced927b3fb7edb453179",
        "to": "0x92228b058f25bc4fb333fa296dddecbddf6496f3",
        "gas": "0xb5f5",
        "value": "0x0",
        "input": "0xf1e4f707000000000000000000000000e912f7c7a59470a6e3f178388106e3caa9e6fbd1",
        "nonce": "0x48",
        "chainId": "0x8274f"
      },
      "additionalContracts": [],
      "isFixedGasLimit": false
    },
    {
      "hash": "0x2ea00d057ab22d21c7afd8edb61ce003aec57c80fb30ffb05d9046aa84ff60a6",
      "transactionType": "CALL",
      "contractName": null,
      "contractAddress": "0x92228b058f25bc4fb333fa296dddecbddf6496f3",
      "function": "setCtmRwaMap(address)",
      "arguments": [
        "0x2026027054F5beBCEB650aBD62dC623e327658e7"
      ],
      "transaction": {
        "from": "0xc3ca11bd8e131471904dced927b3fb7edb453179",
        "to": "0x92228b058f25bc4fb333fa296dddecbddf6496f3",
        "gas": "0x11e4b",
        "value": "0x0",
        "input": "0x08add95f0000000000000000000000002026027054f5bebceb650abd62dc623e327658e7",
        "nonce": "0x49",
        "chainId": "0x8274f"
      },
      "additionalContracts": [],
      "isFixedGasLimit": false
    },
    {
      "hash": "0x55565bcc2344f4050110a0cd536a02b81e0c7a3d8985733b8a8c5ba892f1dc47",
      "transactionType": "CALL",
      "contractName": null,
      "contractAddress": "0x2af842c6517cf30fb3456aef485230e0dd085845",
      "function": "setSentryUtils(address)",
      "arguments": [
        "0x1CBc0DE1CD20d6D80ae755275A63DBc9B1131a7C"
      ],
      "transaction": {
        "from": "0xc3ca11bd8e131471904dced927b3fb7edb453179",
        "to": "0x2af842c6517cf30fb3456aef485230e0dd085845",
        "gas": "0x1306f",
        "value": "0x0",
        "input": "0x672f91940000000000000000000000001cbc0de1cd20d6d80ae755275a63dbc9b1131a7c",
        "nonce": "0x4a",
        "chainId": "0x8274f"
      },
      "additionalContracts": [],
      "isFixedGasLimit": false
    },
    {
      "hash": "0xc4443b217aa6d2f54e5e922ddeb01188df1d5d0a7fe63157900d192cd8f3293e",
      "transactionType": "CALL",
      "contractName": null,
      "contractAddress": "0x2af842c6517cf30fb3456aef485230e0dd085845",
      "function": "setCtmRwaDeployer(address)",
      "arguments": [
        "0xE912F7c7A59470a6E3f178388106E3caa9e6fbd1"
      ],
      "transaction": {
        "from": "0xc3ca11bd8e131471904dced927b3fb7edb453179",
        "to": "0x2af842c6517cf30fb3456aef485230e0dd085845",
        "gas": "0xb6ca",
        "value": "0x0",
        "input": "0xf1e4f707000000000000000000000000e912f7c7a59470a6e3f178388106e3caa9e6fbd1",
        "nonce": "0x4b",
        "chainId": "0x8274f"
      },
      "additionalContracts": [],
      "isFixedGasLimit": false
    },
    {
      "hash": "0xd21bcb6967d2375b10a579f8cb98acef062e52b7b0ad7cec4c536bded9298148",
      "transactionType": "CALL",
      "contractName": null,
      "contractAddress": "0x2af842c6517cf30fb3456aef485230e0dd085845",
      "function": "setCtmRwaMap(address)",
      "arguments": [
        "0x2026027054F5beBCEB650aBD62dC623e327658e7"
      ],
      "transaction": {
        "from": "0xc3ca11bd8e131471904dced927b3fb7edb453179",
        "to": "0x2af842c6517cf30fb3456aef485230e0dd085845",
        "gas": "0x11e2d",
        "value": "0x0",
        "input": "0x08add95f0000000000000000000000002026027054f5bebceb650abd62dc623e327658e7",
        "nonce": "0x4c",
        "chainId": "0x8274f"
      },
      "additionalContracts": [],
      "isFixedGasLimit": false
    },
    {
      "hash": "0x00b0def10524467fdee7210db5e51bd5c864f11cb427a4c512946f683e5fc74f",
      "transactionType": "CALL",
      "contractName": null,
      "contractAddress": "0x58b610a359c870e0fc941139821a51f5aa23f14e",
      "function": "addChainContract(string[],string[])",
      "arguments": [
        "[11155111, 17000, 1946, 421614, 43113, 5611, 84532, 97]",
        "[0x58B610a359c870E0fc941139821a51F5aa23f14E, 0x58B610a359c870E0fc941139821a51F5aa23f14E, 0x58B610a359c870E0fc941139821a51F5aa23f14E, 0x58B610a359c870E0fc941139821a51F5aa23f14E, 0x58B610a359c870E0fc941139821a51F5aa23f14E, 0x58B610a359c870E0fc941139821a51F5aa23f14E, 0x58B610a359c870E0fc941139821a51F5aa23f14E, 0x58B610a359c870E0fc941139821a51F5aa23f14E]"
      ],
      "transaction": {
        "from": "0xc3ca11bd8e131471904dced927b3fb7edb453179",
        "to": "0x58b610a359c870e0fc941139821a51f5aa23f14e",
        "gas": "0x15b656",
        "value": "0x0",
        "input": "0x013fd3bd00000000000000000000000000000000000000000000000000000000000000400000000000000000000000000000000000000000000000000000000000000360000000000000000000000000000000000000000000000000000000000000000800000000000000000000000000000000000000000000000000000000000001000000000000000000000000000000000000000000000000000000000000000140000000000000000000000000000000000000000000000000000000000000018000000000000000000000000000000000000000000000000000000000000001c000000000000000000000000000000000000000000000000000000000000002000000000000000000000000000000000000000000000000000000000000000240000000000000000000000000000000000000000000000000000000000000028000000000000000000000000000000000000000000000000000000000000002c0000000000000000000000000000000000000000000000000000000000000000831313135353131310000000000000000000000000000000000000000000000000000000000000000000000000000000000000000000000000000000000000005313730303000000000000000000000000000000000000000000000000000000000000000000000000000000000000000000000000000000000000000000000043139343600000000000000000000000000000000000000000000000000000000000000000000000000000000000000000000000000000000000000000000000634323136313400000000000000000000000000000000000000000000000000000000000000000000000000000000000000000000000000000000000000000005343331313300000000000000000000000000000000000000000000000000000000000000000000000000000000000000000000000000000000000000000000043536313100000000000000000000000000000000000000000000000000000000000000000000000000000000000000000000000000000000000000000000000538343533320000000000000000000000000000000000000000000000000000000000000000000000000000000000000000000000000000000000000000000002393700000000000000000000000000000000000000000000000000000000000000000000000000000000000000000000000000000000000000000000000000080000000000000000000000000000000000000000000000000000000000000100000000000000000000000000000000000000000000000000000000000000016000000000000000000000000000000000000000000000000000000000000001c00000000000000000000000000000000000000000000000000000000000000220000000000000000000000000000000000000000000000000000000000000028000000000000000000000000000000000000000000000000000000000000002e0000000000000000000000000000000000000000000000000000000000000034000000000000000000000000000000000000000000000000000000000000003a0000000000000000000000000000000000000000000000000000000000000002a30783538423631306133353963383730453066633934313133393832316135314635616132336631344500000000000000000000000000000000000000000000000000000000000000000000000000000000000000000000000000000000002a30783538423631306133353963383730453066633934313133393832316135314635616132336631344500000000000000000000000000000000000000000000000000000000000000000000000000000000000000000000000000000000002a30783538423631306133353963383730453066633934313133393832316135314635616132336631344500000000000000000000000000000000000000000000000000000000000000000000000000000000000000000000000000000000002a30783538423631306133353963383730453066633934313133393832316135314635616132336631344500000000000000000000000000000000000000000000000000000000000000000000000000000000000000000000000000000000002a30783538423631306133353963383730453066633934313133393832316135314635616132336631344500000000000000000000000000000000000000000000000000000000000000000000000000000000000000000000000000000000002a30783538423631306133353963383730453066633934313133393832316135314635616132336631344500000000000000000000000000000000000000000000000000000000000000000000000000000000000000000000000000000000002a30783538423631306133353963383730453066633934313133393832316135314635616132336631344500000000000000000000000000000000000000000000000000000000000000000000000000000000000000000000000000000000002a30783538423631306133353963383730453066633934313133393832316135314635616132336631344500000000000000000000000000000000000000000000",
        "nonce": "0x4d",
        "chainId": "0x8274f"
      },
      "additionalContracts": [],
      "isFixedGasLimit": false
    },
    {
      "hash": "0xf22f4fa22571620c6543ae10cb5530c0d9918655b72d5aa588d50e451ac53851",
      "transactionType": "CALL",
      "contractName": null,
      "contractAddress": "0x58b610a359c870e0fc941139821a51f5aa23f14e",
      "function": "attachRWAX(uint256,uint256,string[],string[])",
      "arguments": [
        "1",
        "1",
        "[11155111, 17000, 1946, 421614, 43113, 5611, 84532, 97]",
        "[0x9C9e9Fad264089339aAd66Ff3e32D2bA1DdF6951, 0x9C9e9Fad264089339aAd66Ff3e32D2bA1DdF6951, 0x9C9e9Fad264089339aAd66Ff3e32D2bA1DdF6951, 0x9C9e9Fad264089339aAd66Ff3e32D2bA1DdF6951, 0x9C9e9Fad264089339aAd66Ff3e32D2bA1DdF6951, 0x9C9e9Fad264089339aAd66Ff3e32D2bA1DdF6951, 0x9C9e9Fad264089339aAd66Ff3e32D2bA1DdF6951, 0x9C9e9Fad264089339aAd66Ff3e32D2bA1DdF6951]"
      ],
      "transaction": {
        "from": "0xc3ca11bd8e131471904dced927b3fb7edb453179",
        "to": "0x58b610a359c870e0fc941139821a51f5aa23f14e",
        "gas": "0x1ad005",
        "value": "0x0",
        "input": "0x33a5f5b400000000000000000000000000000000000000000000000000000000000000010000000000000000000000000000000000000000000000000000000000000001000000000000000000000000000000000000000000000000000000000000008000000000000000000000000000000000000000000000000000000000000003a0000000000000000000000000000000000000000000000000000000000000000800000000000000000000000000000000000000000000000000000000000001000000000000000000000000000000000000000000000000000000000000000140000000000000000000000000000000000000000000000000000000000000018000000000000000000000000000000000000000000000000000000000000001c000000000000000000000000000000000000000000000000000000000000002000000000000000000000000000000000000000000000000000000000000000240000000000000000000000000000000000000000000000000000000000000028000000000000000000000000000000000000000000000000000000000000002c0000000000000000000000000000000000000000000000000000000000000000831313135353131310000000000000000000000000000000000000000000000000000000000000000000000000000000000000000000000000000000000000005313730303000000000000000000000000000000000000000000000000000000000000000000000000000000000000000000000000000000000000000000000043139343600000000000000000000000000000000000000000000000000000000000000000000000000000000000000000000000000000000000000000000000634323136313400000000000000000000000000000000000000000000000000000000000000000000000000000000000000000000000000000000000000000005343331313300000000000000000000000000000000000000000000000000000000000000000000000000000000000000000000000000000000000000000000043536313100000000000000000000000000000000000000000000000000000000000000000000000000000000000000000000000000000000000000000000000538343533320000000000000000000000000000000000000000000000000000000000000000000000000000000000000000000000000000000000000000000002393700000000000000000000000000000000000000000000000000000000000000000000000000000000000000000000000000000000000000000000000000080000000000000000000000000000000000000000000000000000000000000100000000000000000000000000000000000000000000000000000000000000016000000000000000000000000000000000000000000000000000000000000001c00000000000000000000000000000000000000000000000000000000000000220000000000000000000000000000000000000000000000000000000000000028000000000000000000000000000000000000000000000000000000000000002e0000000000000000000000000000000000000000000000000000000000000034000000000000000000000000000000000000000000000000000000000000003a0000000000000000000000000000000000000000000000000000000000000002a30783943396539466164323634303839333339614164363646663365333244326241314464463639353100000000000000000000000000000000000000000000000000000000000000000000000000000000000000000000000000000000002a30783943396539466164323634303839333339614164363646663365333244326241314464463639353100000000000000000000000000000000000000000000000000000000000000000000000000000000000000000000000000000000002a30783943396539466164323634303839333339614164363646663365333244326241314464463639353100000000000000000000000000000000000000000000000000000000000000000000000000000000000000000000000000000000002a30783943396539466164323634303839333339614164363646663365333244326241314464463639353100000000000000000000000000000000000000000000000000000000000000000000000000000000000000000000000000000000002a30783943396539466164323634303839333339614164363646663365333244326241314464463639353100000000000000000000000000000000000000000000000000000000000000000000000000000000000000000000000000000000002a30783943396539466164323634303839333339614164363646663365333244326241314464463639353100000000000000000000000000000000000000000000000000000000000000000000000000000000000000000000000000000000002a30783943396539466164323634303839333339614164363646663365333244326241314464463639353100000000000000000000000000000000000000000000000000000000000000000000000000000000000000000000000000000000002a30783943396539466164323634303839333339614164363646663365333244326241314464463639353100000000000000000000000000000000000000000000",
        "nonce": "0x4e",
        "chainId": "0x8274f"
      },
      "additionalContracts": [],
      "isFixedGasLimit": false
    },
    {
      "hash": "0x1639b85f06df71a82ddba4fa1850d37d8dbd112962276b0235fc8dc29d49d7fd",
      "transactionType": "CALL",
      "contractName": null,
      "contractAddress": "0x58b610a359c870e0fc941139821a51f5aa23f14e",
      "function": "attachStorageManager(uint256,uint256,string[],string[])",
      "arguments": [
        "1",
        "1",
        "[11155111, 17000, 1946, 421614, 43113, 5611, 84532, 97]",
        "[0x92228B058f25Bc4fb333fA296dDdECBdDf6496f3, 0x92228B058f25Bc4fb333fA296dDdECBdDf6496f3, 0x92228B058f25Bc4fb333fA296dDdECBdDf6496f3, 0x92228B058f25Bc4fb333fA296dDdECBdDf6496f3, 0x92228B058f25Bc4fb333fA296dDdECBdDf6496f3, 0x92228B058f25Bc4fb333fA296dDdECBdDf6496f3, 0x92228B058f25Bc4fb333fA296dDdECBdDf6496f3, 0x92228B058f25Bc4fb333fA296dDdECBdDf6496f3]"
      ],
      "transaction": {
        "from": "0xc3ca11bd8e131471904dced927b3fb7edb453179",
        "to": "0x58b610a359c870e0fc941139821a51f5aa23f14e",
        "gas": "0x1638c5",
        "value": "0x0",
        "input": "0x2f68b48900000000000000000000000000000000000000000000000000000000000000010000000000000000000000000000000000000000000000000000000000000001000000000000000000000000000000000000000000000000000000000000008000000000000000000000000000000000000000000000000000000000000003a0000000000000000000000000000000000000000000000000000000000000000800000000000000000000000000000000000000000000000000000000000001000000000000000000000000000000000000000000000000000000000000000140000000000000000000000000000000000000000000000000000000000000018000000000000000000000000000000000000000000000000000000000000001c000000000000000000000000000000000000000000000000000000000000002000000000000000000000000000000000000000000000000000000000000000240000000000000000000000000000000000000000000000000000000000000028000000000000000000000000000000000000000000000000000000000000002c0000000000000000000000000000000000000000000000000000000000000000831313135353131310000000000000000000000000000000000000000000000000000000000000000000000000000000000000000000000000000000000000005313730303000000000000000000000000000000000000000000000000000000000000000000000000000000000000000000000000000000000000000000000043139343600000000000000000000000000000000000000000000000000000000000000000000000000000000000000000000000000000000000000000000000634323136313400000000000000000000000000000000000000000000000000000000000000000000000000000000000000000000000000000000000000000005343331313300000000000000000000000000000000000000000000000000000000000000000000000000000000000000000000000000000000000000000000043536313100000000000000000000000000000000000000000000000000000000000000000000000000000000000000000000000000000000000000000000000538343533320000000000000000000000000000000000000000000000000000000000000000000000000000000000000000000000000000000000000000000002393700000000000000000000000000000000000000000000000000000000000000000000000000000000000000000000000000000000000000000000000000080000000000000000000000000000000000000000000000000000000000000100000000000000000000000000000000000000000000000000000000000000016000000000000000000000000000000000000000000000000000000000000001c00000000000000000000000000000000000000000000000000000000000000220000000000000000000000000000000000000000000000000000000000000028000000000000000000000000000000000000000000000000000000000000002e0000000000000000000000000000000000000000000000000000000000000034000000000000000000000000000000000000000000000000000000000000003a0000000000000000000000000000000000000000000000000000000000000002a30783932323238423035386632354263346662333333664132393664446445434264446636343936663300000000000000000000000000000000000000000000000000000000000000000000000000000000000000000000000000000000002a30783932323238423035386632354263346662333333664132393664446445434264446636343936663300000000000000000000000000000000000000000000000000000000000000000000000000000000000000000000000000000000002a30783932323238423035386632354263346662333333664132393664446445434264446636343936663300000000000000000000000000000000000000000000000000000000000000000000000000000000000000000000000000000000002a30783932323238423035386632354263346662333333664132393664446445434264446636343936663300000000000000000000000000000000000000000000000000000000000000000000000000000000000000000000000000000000002a30783932323238423035386632354263346662333333664132393664446445434264446636343936663300000000000000000000000000000000000000000000000000000000000000000000000000000000000000000000000000000000002a30783932323238423035386632354263346662333333664132393664446445434264446636343936663300000000000000000000000000000000000000000000000000000000000000000000000000000000000000000000000000000000002a30783932323238423035386632354263346662333333664132393664446445434264446636343936663300000000000000000000000000000000000000000000000000000000000000000000000000000000000000000000000000000000002a30783932323238423035386632354263346662333333664132393664446445434264446636343936663300000000000000000000000000000000000000000000",
        "nonce": "0x4f",
        "chainId": "0x8274f"
      },
      "additionalContracts": [],
      "isFixedGasLimit": false
    },
    {
      "hash": "0x00f9cde56092364132f5875cea5784a953dbe741e95f7bf5cdffcff871568e0b",
      "transactionType": "CALL",
      "contractName": null,
      "contractAddress": "0x58b610a359c870e0fc941139821a51f5aa23f14e",
      "function": "attachSentryManager(uint256,uint256,string[],string[])",
      "arguments": [
        "1",
        "1",
        "[11155111, 17000, 1946, 421614, 43113, 5611, 84532, 97]",
        "[0x2AF842C6517CF30Fb3456aeF485230e0DD085845, 0x2AF842C6517CF30Fb3456aeF485230e0DD085845, 0x2AF842C6517CF30Fb3456aeF485230e0DD085845, 0x2AF842C6517CF30Fb3456aeF485230e0DD085845, 0x2AF842C6517CF30Fb3456aeF485230e0DD085845, 0x2AF842C6517CF30Fb3456aeF485230e0DD085845, 0x2AF842C6517CF30Fb3456aeF485230e0DD085845, 0x2AF842C6517CF30Fb3456aeF485230e0DD085845]"
      ],
      "transaction": {
        "from": "0xc3ca11bd8e131471904dced927b3fb7edb453179",
        "to": "0x58b610a359c870e0fc941139821a51f5aa23f14e",
        "gas": "0x14e7a3",
        "value": "0x0",
        "input": "0x349de79700000000000000000000000000000000000000000000000000000000000000010000000000000000000000000000000000000000000000000000000000000001000000000000000000000000000000000000000000000000000000000000008000000000000000000000000000000000000000000000000000000000000003a0000000000000000000000000000000000000000000000000000000000000000800000000000000000000000000000000000000000000000000000000000001000000000000000000000000000000000000000000000000000000000000000140000000000000000000000000000000000000000000000000000000000000018000000000000000000000000000000000000000000000000000000000000001c000000000000000000000000000000000000000000000000000000000000002000000000000000000000000000000000000000000000000000000000000000240000000000000000000000000000000000000000000000000000000000000028000000000000000000000000000000000000000000000000000000000000002c0000000000000000000000000000000000000000000000000000000000000000831313135353131310000000000000000000000000000000000000000000000000000000000000000000000000000000000000000000000000000000000000005313730303000000000000000000000000000000000000000000000000000000000000000000000000000000000000000000000000000000000000000000000043139343600000000000000000000000000000000000000000000000000000000000000000000000000000000000000000000000000000000000000000000000634323136313400000000000000000000000000000000000000000000000000000000000000000000000000000000000000000000000000000000000000000005343331313300000000000000000000000000000000000000000000000000000000000000000000000000000000000000000000000000000000000000000000043536313100000000000000000000000000000000000000000000000000000000000000000000000000000000000000000000000000000000000000000000000538343533320000000000000000000000000000000000000000000000000000000000000000000000000000000000000000000000000000000000000000000002393700000000000000000000000000000000000000000000000000000000000000000000000000000000000000000000000000000000000000000000000000080000000000000000000000000000000000000000000000000000000000000100000000000000000000000000000000000000000000000000000000000000016000000000000000000000000000000000000000000000000000000000000001c00000000000000000000000000000000000000000000000000000000000000220000000000000000000000000000000000000000000000000000000000000028000000000000000000000000000000000000000000000000000000000000002e0000000000000000000000000000000000000000000000000000000000000034000000000000000000000000000000000000000000000000000000000000003a0000000000000000000000000000000000000000000000000000000000000002a30783241463834324336353137434633304662333435366165463438353233306530444430383538343500000000000000000000000000000000000000000000000000000000000000000000000000000000000000000000000000000000002a30783241463834324336353137434633304662333435366165463438353233306530444430383538343500000000000000000000000000000000000000000000000000000000000000000000000000000000000000000000000000000000002a30783241463834324336353137434633304662333435366165463438353233306530444430383538343500000000000000000000000000000000000000000000000000000000000000000000000000000000000000000000000000000000002a30783241463834324336353137434633304662333435366165463438353233306530444430383538343500000000000000000000000000000000000000000000000000000000000000000000000000000000000000000000000000000000002a30783241463834324336353137434633304662333435366165463438353233306530444430383538343500000000000000000000000000000000000000000000000000000000000000000000000000000000000000000000000000000000002a30783241463834324336353137434633304662333435366165463438353233306530444430383538343500000000000000000000000000000000000000000000000000000000000000000000000000000000000000000000000000000000002a30783241463834324336353137434633304662333435366165463438353233306530444430383538343500000000000000000000000000000000000000000000000000000000000000000000000000000000000000000000000000000000002a30783241463834324336353137434633304662333435366165463438353233306530444430383538343500000000000000000000000000000000000000000000",
        "nonce": "0x50",
        "chainId": "0x8274f"
      },
      "additionalContracts": [],
      "isFixedGasLimit": false
    }
  ],
  "receipts": [
    {
      "status": "0x1",
      "cumulativeGasUsed": "0x71c0",
      "logs": [],
      "logsBloom": "0x00000000000000000000000000000000000000000000000000000000000000000000000000000000000000000000000000000000000000000000000000000000000000000000000000000000000000000000000000000000000000000000000000000000000000000000000000000000000000000000000000000000000000000000000000000000000000000000000000000000000000000000000000000000000000000000000000000000000000000000000000000000000000000000000000000000000000000000000000000000000000000000000000000000000000000000000000000000000000000000000000000000000000000000000000000000",
      "type": "0x2",
      "transactionHash": "0xa7f49c72c5d7d6c20a8e7fba48d85853655413f8cb7ae475cfa613a5c902e1fd",
      "transactionIndex": "0x0",
      "blockHash": "0xc6d1c226a7ff759cd3bd9e0288851c8e983a80b7619272d66a28f09ae533f227",
      "blockNumber": "0xae5155",
      "gasUsed": "0x71c0",
      "effectiveGasPrice": "0xef426c",
      "from": "0xc3ca11bd8e131471904dced927b3fb7edb453179",
      "to": "0x2f925d6512b2bbb00f5a36d8b18e01fcf35f7dc7",
      "contractAddress": null,
      "l1Fee": "0x639594203"
    },
    {
      "status": "0x1",
      "cumulativeGasUsed": "0x1e253",
      "logs": [
        {
          "address": "0x2f925d6512b2bbb00f5a36d8b18e01fcf35f7dc7",
          "topics": [
            "0x1394cfab38f3fc78ed77ea6f9318782a446d96e7dc8e9a6b0149f6be25c08bcf",
            "0x000000000000000000000000e536bf33585aa6bb528627ed7dc4d49009dafc58"
          ],
          "data": "0x",
          "blockHash": "0x49c79ce8e7b7beb55bb3bafe4526a80b1bbc60f13c264abb2576ac6bc6b45670",
          "blockNumber": "0xae5156",
          "transactionHash": "0xbd7528d503981fee51be7455bbd3b09739f49717653c4704b736c1f658a879d4",
          "transactionIndex": "0x0",
          "logIndex": "0x0",
          "removed": false
        }
      ],
      "logsBloom": "0x00000000000000000000000000000000000000000000000000000000000000000000000000000000000000000000000000000000000000000000000000000000000000000000000000000000000000000000001000000000001000000000000000000000000000000000000000000000000000000000000000000000000000000000000500000000000000000000000000000000000000000002000000000000000000000000000000000000000000000000000100000000000000000400004000000000000000000000000000004000000000000000000000000000000000000000000000000000000000000000000000000000000000000000000000000000",
      "type": "0x2",
      "transactionHash": "0xbd7528d503981fee51be7455bbd3b09739f49717653c4704b736c1f658a879d4",
      "transactionIndex": "0x0",
      "blockHash": "0x49c79ce8e7b7beb55bb3bafe4526a80b1bbc60f13c264abb2576ac6bc6b45670",
      "blockNumber": "0xae5156",
      "gasUsed": "0x1e253",
      "effectiveGasPrice": "0xef426c",
      "from": "0xc3ca11bd8e131471904dced927b3fb7edb453179",
      "to": "0x2f925d6512b2bbb00f5a36d8b18e01fcf35f7dc7",
      "contractAddress": null,
      "l1Fee": "0x47b9724e1"
    },
    {
      "status": "0x1",
      "cumulativeGasUsed": "0x198ce",
      "logs": [],
      "logsBloom": "0x00000000000000000000000000000000000000000000000000000000000000000000000000000000000000000000000000000000000000000000000000000000000000000000000000000000000000000000000000000000000000000000000000000000000000000000000000000000000000000000000000000000000000000000000000000000000000000000000000000000000000000000000000000000000000000000000000000000000000000000000000000000000000000000000000000000000000000000000000000000000000000000000000000000000000000000000000000000000000000000000000000000000000000000000000000000",
      "type": "0x2",
      "transactionHash": "0x29cf43f4a2000fdd12d780487646c358e5512441e63d9a1056bfe5f2d8b0fe68",
      "transactionIndex": "0x0",
      "blockHash": "0xb3193ad9421c790f5f113392aa4315bbf58d608b4f0bce408b53b9fdd473e444",
      "blockNumber": "0xae5157",
      "gasUsed": "0x198ce",
      "effectiveGasPrice": "0xef426c",
      "from": "0xc3ca11bd8e131471904dced927b3fb7edb453179",
      "to": "0x2f925d6512b2bbb00f5a36d8b18e01fcf35f7dc7",
      "contractAddress": null,
      "l1Fee": "0x9430df791"
    },
    {
      "status": "0x1",
      "cumulativeGasUsed": "0x19466",
      "logs": [],
      "logsBloom": "0x00000000000000000000000000000000000000000000000000000000000000000000000000000000000000000000000000000000000000000000000000000000000000000000000000000000000000000000000000000000000000000000000000000000000000000000000000000000000000000000000000000000000000000000000000000000000000000000000000000000000000000000000000000000000000000000000000000000000000000000000000000000000000000000000000000000000000000000000000000000000000000000000000000000000000000000000000000000000000000000000000000000000000000000000000000000",
      "type": "0x2",
      "transactionHash": "0x83d964fdff159eb34ec9bd6a2635ec9bac7aa5590792ac6b4210e9281f86448c",
      "transactionIndex": "0x0",
      "blockHash": "0x8eb081175939600522a6c3d8d4370885f2efe0068162581707ce12c90c68721c",
      "blockNumber": "0xae5158",
      "gasUsed": "0x19466",
      "effectiveGasPrice": "0xef426c",
      "from": "0xc3ca11bd8e131471904dced927b3fb7edb453179",
      "to": "0x2f925d6512b2bbb00f5a36d8b18e01fcf35f7dc7",
      "contractAddress": null,
      "l1Fee": "0x9430df791"
    },
    {
      "status": "0x1",
      "cumulativeGasUsed": "0x192ee",
      "logs": [],
      "logsBloom": "0x00000000000000000000000000000000000000000000000000000000000000000000000000000000000000000000000000000000000000000000000000000000000000000000000000000000000000000000000000000000000000000000000000000000000000000000000000000000000000000000000000000000000000000000000000000000000000000000000000000000000000000000000000000000000000000000000000000000000000000000000000000000000000000000000000000000000000000000000000000000000000000000000000000000000000000000000000000000000000000000000000000000000000000000000000000000",
      "type": "0x2",
      "transactionHash": "0x8a154ebe48cda2ad99e4c98c942cfa0bfd52dc71126da2047f3bbd82de7c3bbb",
      "transactionIndex": "0x0",
      "blockHash": "0xb3cd0f2c6218c7ae2effb619ec1c14e52fa3d0800c8c68741350d450f397508c",
      "blockNumber": "0xae5159",
      "gasUsed": "0x192ee",
      "effectiveGasPrice": "0xef426c",
      "from": "0xc3ca11bd8e131471904dced927b3fb7edb453179",
      "to": "0x2f925d6512b2bbb00f5a36d8b18e01fcf35f7dc7",
      "contractAddress": null,
      "l1Fee": "0x9430df791"
    },
    {
      "status": "0x1",
      "cumulativeGasUsed": "0x195de",
      "logs": [],
      "logsBloom": "0x00000000000000000000000000000000000000000000000000000000000000000000000000000000000000000000000000000000000000000000000000000000000000000000000000000000000000000000000000000000000000000000000000000000000000000000000000000000000000000000000000000000000000000000000000000000000000000000000000000000000000000000000000000000000000000000000000000000000000000000000000000000000000000000000000000000000000000000000000000000000000000000000000000000000000000000000000000000000000000000000000000000000000000000000000000000",
      "type": "0x2",
      "transactionHash": "0xb3e4ee199e996daec09397d6ce88eaaf150342d7181ce5d6135154cb289617b4",
      "transactionIndex": "0x0",
      "blockHash": "0x5b07c27e029cc81a4e6b331bccabbbc6a0bd831bb392a216e3db4b07439c9258",
      "blockNumber": "0xae515a",
      "gasUsed": "0x195de",
      "effectiveGasPrice": "0xef426c",
      "from": "0xc3ca11bd8e131471904dced927b3fb7edb453179",
      "to": "0x2f925d6512b2bbb00f5a36d8b18e01fcf35f7dc7",
      "contractAddress": null,
      "l1Fee": "0x9430df791"
    },
    {
      "status": "0x1",
      "cumulativeGasUsed": "0x19466",
      "logs": [],
      "logsBloom": "0x00000000000000000000000000000000000000000000000000000000000000000000000000000000000000000000000000000000000000000000000000000000000000000000000000000000000000000000000000000000000000000000000000000000000000000000000000000000000000000000000000000000000000000000000000000000000000000000000000000000000000000000000000000000000000000000000000000000000000000000000000000000000000000000000000000000000000000000000000000000000000000000000000000000000000000000000000000000000000000000000000000000000000000000000000000000",
      "type": "0x2",
      "transactionHash": "0xd50c7686b11dad75467bc826e0e59b290d4a2662dd0cabd77b5d824e47778b89",
      "transactionIndex": "0x0",
      "blockHash": "0x2fcd23cd55ec8a2d91401a04edc92756d66a2d4e1177dd320ee832e147f724eb",
      "blockNumber": "0xae515b",
      "gasUsed": "0x19466",
      "effectiveGasPrice": "0xef426c",
      "from": "0xc3ca11bd8e131471904dced927b3fb7edb453179",
      "to": "0x2f925d6512b2bbb00f5a36d8b18e01fcf35f7dc7",
      "contractAddress": null,
      "l1Fee": "0x93e4ffcb4"
    },
    {
      "status": "0x1",
      "cumulativeGasUsed": "0x192ee",
      "logs": [],
      "logsBloom": "0x00000000000000000000000000000000000000000000000000000000000000000000000000000000000000000000000000000000000000000000000000000000000000000000000000000000000000000000000000000000000000000000000000000000000000000000000000000000000000000000000000000000000000000000000000000000000000000000000000000000000000000000000000000000000000000000000000000000000000000000000000000000000000000000000000000000000000000000000000000000000000000000000000000000000000000000000000000000000000000000000000000000000000000000000000000000",
      "type": "0x2",
      "transactionHash": "0x4f34d4ac33e54f3b70902c4536f2628cbc9a4830b2d48171ec2c28f32b6880d9",
      "transactionIndex": "0x0",
      "blockHash": "0xb6a49c3ebb3c552d3613224bfde3a26d066ceb7c8bd81f234393cdb554bce7e9",
      "blockNumber": "0xae515c",
      "gasUsed": "0x192ee",
      "effectiveGasPrice": "0xef426c",
      "from": "0xc3ca11bd8e131471904dced927b3fb7edb453179",
      "to": "0x2f925d6512b2bbb00f5a36d8b18e01fcf35f7dc7",
      "contractAddress": null,
      "l1Fee": "0x9430df791"
    },
    {
      "status": "0x1",
      "cumulativeGasUsed": "0x349e0",
      "logs": [],
      "logsBloom": "0x00000000000000000000000000000000000000000000000000000000000000000000000000000000000000000000000000000000000000000000000000000000000000000000000000000000000000000000000000000000000000000000000000000000000000000000000000000000000000000000000000000000000000000000000000000000000000000000000000000000000000000000000000000000000000000000000000000000000000000000000000000000000000000000000000000000000000000000000000000000000000000000000000000000000000000000000000000000000000000000000000000000000000000000000000000000",
      "type": "0x2",
      "transactionHash": "0x9dcd8a12688144b17a8de9f71f44d700f6cfb645578ba1a72b121f7762000878",
      "transactionIndex": "0x1",
      "blockHash": "0x557c408fc25668680062b7651610ede943310dcb82f582b6d111da3a2bc283f8",
      "blockNumber": "0xae515d",
      "gasUsed": "0x19466",
      "effectiveGasPrice": "0xef426c",
      "from": "0xc3ca11bd8e131471904dced927b3fb7edb453179",
      "to": "0x2f925d6512b2bbb00f5a36d8b18e01fcf35f7dc7",
      "contractAddress": null,
      "l1Fee": "0x9430df791"
    },
    {
      "status": "0x1",
      "cumulativeGasUsed": "0x18ffe",
      "logs": [],
      "logsBloom": "0x00000000000000000000000000000000000000000000000000000000000000000000000000000000000000000000000000000000000000000000000000000000000000000000000000000000000000000000000000000000000000000000000000000000000000000000000000000000000000000000000000000000000000000000000000000000000000000000000000000000000000000000000000000000000000000000000000000000000000000000000000000000000000000000000000000000000000000000000000000000000000000000000000000000000000000000000000000000000000000000000000000000000000000000000000000000",
      "type": "0x2",
      "transactionHash": "0x7e1472621377934b78911db8f8d38d591c0613e3efa7b3b25c6d97bf9569cfe4",
      "transactionIndex": "0x0",
      "blockHash": "0x95b0d5a10a0b2f4a2950ef88c4b09c22fe2d4cde16af242c848aa8aa429c5767",
      "blockNumber": "0xae515e",
      "gasUsed": "0x18ffe",
      "effectiveGasPrice": "0xef426c",
      "from": "0xc3ca11bd8e131471904dced927b3fb7edb453179",
      "to": "0x2f925d6512b2bbb00f5a36d8b18e01fcf35f7dc7",
      "contractAddress": null,
      "l1Fee": "0x9430df791"
    },
    {
      "status": "0x1",
      "cumulativeGasUsed": "0xe65e",
      "logs": [
        {
          "address": "0x2f925d6512b2bbb00f5a36d8b18e01fcf35f7dc7",
          "topics": [
            "0x128b13f5a7f3d4a8f9ebafb4d8c23d5f6f5a287c83c1e81e79b1f80c1708a5fb",
            "0x0000000000000000000000000000000000000000000000000000000000000000"
          ],
          "data": "0x0000000000000000000000000000000000000000000000000000000000000002",
          "blockHash": "0x851ba5e407093c73b70fe9fd8ed16bd62c98764ae0438bf521368568eae1329e",
          "blockNumber": "0xae515f",
          "transactionHash": "0x98d7368a3afe2abcb316301c19c5ef4ebe60b2217bad89dfc1a61c8e2ee04981",
          "transactionIndex": "0x0",
          "logIndex": "0x0",
          "removed": false
        }
      ],
      "logsBloom": "0x00000000000000000000000000000000000000000000000000000000000000000000000000000000000000000000000000000000000000000000000000000000000000000000000000000000000000000000000000000000000000000000000000000000020000000000000000000800000000000000000009000000000000000000000400000000000000000000000000000000000000000000000000000000000000000000001000000000000000000000000000000000000000000000004000000000000000000000000000004000000000000000000000000000000020000000000000000000000000000000000000000000000000000000000000000000",
      "type": "0x2",
      "transactionHash": "0x98d7368a3afe2abcb316301c19c5ef4ebe60b2217bad89dfc1a61c8e2ee04981",
      "transactionIndex": "0x0",
      "blockHash": "0x851ba5e407093c73b70fe9fd8ed16bd62c98764ae0438bf521368568eae1329e",
      "blockNumber": "0xae515f",
      "gasUsed": "0xe65e",
      "effectiveGasPrice": "0xef426c",
      "from": "0xc3ca11bd8e131471904dced927b3fb7edb453179",
      "to": "0x2f925d6512b2bbb00f5a36d8b18e01fcf35f7dc7",
      "contractAddress": null,
      "l1Fee": "0x34c186da3"
    },
    {
      "status": "0x1",
      "cumulativeGasUsed": "0xe66a",
      "logs": [
        {
          "address": "0x2f925d6512b2bbb00f5a36d8b18e01fcf35f7dc7",
          "topics": [
            "0x128b13f5a7f3d4a8f9ebafb4d8c23d5f6f5a287c83c1e81e79b1f80c1708a5fb",
            "0x0000000000000000000000000000000000000000000000000000000000000001"
          ],
          "data": "0x000000000000000000000000000000000000000000000000000000000000000a",
          "blockHash": "0xe7cbb35f8e9fbc7353f22ae2dc438035502c22421ed1ff5cbfb44ab054393d44",
          "blockNumber": "0xae5160",
          "transactionHash": "0xdbe670cbd7eed4c4fd02826c514a32edd3d8d5cbe4812b6dfe3e07e9446f80fd",
          "transactionIndex": "0x0",
          "logIndex": "0x0",
          "removed": false
        }
      ],
      "logsBloom": "0x00000000000000000000000000000000000000000000000000000000000000000000000000000000000000000000000000000000000000000000000000040000000000000000000000000000000000000000000000040000000000000000000000000000000000000000000000000000000000000000000009000000000000000000000400000000000000000000000000000000000000000000000000000000000000000000001000000000000000000000000000000000000000000000004000000000000000000000000000004000000000000000000000000000000040000000000000000000000000000000000000000000000000000000000000000000",
      "type": "0x2",
      "transactionHash": "0xdbe670cbd7eed4c4fd02826c514a32edd3d8d5cbe4812b6dfe3e07e9446f80fd",
      "transactionIndex": "0x0",
      "blockHash": "0xe7cbb35f8e9fbc7353f22ae2dc438035502c22421ed1ff5cbfb44ab054393d44",
      "blockNumber": "0xae5160",
      "gasUsed": "0xe66a",
      "effectiveGasPrice": "0xef426c",
      "from": "0xc3ca11bd8e131471904dced927b3fb7edb453179",
      "to": "0x2f925d6512b2bbb00f5a36d8b18e01fcf35f7dc7",
      "contractAddress": null,
      "l1Fee": "0x34c186da3"
    },
    {
      "status": "0x1",
      "cumulativeGasUsed": "0xe66a",
      "logs": [
        {
          "address": "0x2f925d6512b2bbb00f5a36d8b18e01fcf35f7dc7",
          "topics": [
            "0x128b13f5a7f3d4a8f9ebafb4d8c23d5f6f5a287c83c1e81e79b1f80c1708a5fb",
            "0x0000000000000000000000000000000000000000000000000000000000000002"
          ],
          "data": "0x0000000000000000000000000000000000000000000000000000000000000001",
          "blockHash": "0x478a8015c303d5dee18abb10f05a3400284891f8d1f0f1488b0c86a0c250d33c",
          "blockNumber": "0xae5161",
          "transactionHash": "0xd87d691b79e528ae0e003fbdddda8f47b592aa5ec487d1d3bc3dec12691d65bd",
          "transactionIndex": "0x0",
          "logIndex": "0x0",
          "removed": false
        }
      ],
      "logsBloom": "0x04000000000000000000000000000000000000000000000000000000000000000000000000000000000000000000000000000000000000000000000000000000000000000000000000000000000000000000000000000000000000000000000000000000000000000000000000000000000000000000000009000000000000000000000400000000000000000000000000000000000000000000000000000000000000000000001000000100000000000000000000000000000000000000004000000000000000000000000000004000000000000000000000000000000000000000000000000000000000000000000000000000008000000000000000000000",
      "type": "0x2",
      "transactionHash": "0xd87d691b79e528ae0e003fbdddda8f47b592aa5ec487d1d3bc3dec12691d65bd",
      "transactionIndex": "0x0",
      "blockHash": "0x478a8015c303d5dee18abb10f05a3400284891f8d1f0f1488b0c86a0c250d33c",
      "blockNumber": "0xae5161",
      "gasUsed": "0xe66a",
      "effectiveGasPrice": "0xef426c",
      "from": "0xc3ca11bd8e131471904dced927b3fb7edb453179",
      "to": "0x2f925d6512b2bbb00f5a36d8b18e01fcf35f7dc7",
      "contractAddress": null,
      "l1Fee": "0x330676beb"
    },
    {
      "status": "0x1",
      "cumulativeGasUsed": "0xe66a",
      "logs": [
        {
          "address": "0x2f925d6512b2bbb00f5a36d8b18e01fcf35f7dc7",
          "topics": [
            "0x128b13f5a7f3d4a8f9ebafb4d8c23d5f6f5a287c83c1e81e79b1f80c1708a5fb",
            "0x0000000000000000000000000000000000000000000000000000000000000003"
          ],
          "data": "0x0000000000000000000000000000000000000000000000000000000000000004",
          "blockHash": "0xabb541209b11879e8bac748f81e0386df5bc2af9bb0247a35fd0c6b125a40d0d",
          "blockNumber": "0xae5162",
          "transactionHash": "0x0f746ba1d472add92747317094b6c47bcd4af63f0f200a67a97a60072debf42a",
          "transactionIndex": "0x0",
          "logIndex": "0x0",
          "removed": false
        }
      ],
      "logsBloom": "0x00000000000000000000000000000000000000000000000000000000000000000000000000000000000000000000000000000000020000000000000000000000000000000000000000000000000000000000000000000000000000000000000000000000000000000000000000000000000000000000000009000000000000000000000400000000000000000000000000000000000000000000000000000000000000000000001000000000000000000000000000800000000000000000404000000000000000000000000000004000000000000000000000000000000000000000000000000000000000000000000000000000000000000000000000000000",
      "type": "0x2",
      "transactionHash": "0x0f746ba1d472add92747317094b6c47bcd4af63f0f200a67a97a60072debf42a",
      "transactionIndex": "0x0",
      "blockHash": "0xabb541209b11879e8bac748f81e0386df5bc2af9bb0247a35fd0c6b125a40d0d",
      "blockNumber": "0xae5162",
      "gasUsed": "0xe66a",
      "effectiveGasPrice": "0xef426c",
      "from": "0xc3ca11bd8e131471904dced927b3fb7edb453179",
      "to": "0x2f925d6512b2bbb00f5a36d8b18e01fcf35f7dc7",
      "contractAddress": null,
      "l1Fee": "0x330676beb"
    },
    {
      "status": "0x1",
      "cumulativeGasUsed": "0xe66a",
      "logs": [
        {
          "address": "0x2f925d6512b2bbb00f5a36d8b18e01fcf35f7dc7",
          "topics": [
            "0x128b13f5a7f3d4a8f9ebafb4d8c23d5f6f5a287c83c1e81e79b1f80c1708a5fb",
            "0x0000000000000000000000000000000000000000000000000000000000000004"
          ],
          "data": "0x0000000000000000000000000000000000000000000000000000000000000004",
          "blockHash": "0xb85ddaf5011205daeb9c5e076e3c73ed7b1ac29fffea716512b5fe8b47595827",
          "blockNumber": "0xae5163",
          "transactionHash": "0xaca3623edb2fff4821682592e503ea44fee52482704a8098995dfc9d6fad786a",
          "transactionIndex": "0x0",
          "logIndex": "0x0",
          "removed": false
        }
      ],
      "logsBloom": "0x00000000000000000000000000000000000000000000000000000000000000000000000000000000000000000000000000000000000000000000000000000000000000000000000000000000000000000000000000000000000000000000000008000000000000000000000000000000000000000000000009000000000000000000000400000000000000000000000000000000000000000000000000000000000000000000001000000000000000000000000000000000002000000000004000000000000000000000000000004000000000008000000000000000000000000000000000000000000000000000000000000000000000000000000000000000",
      "type": "0x2",
      "transactionHash": "0xaca3623edb2fff4821682592e503ea44fee52482704a8098995dfc9d6fad786a",
      "transactionIndex": "0x0",
      "blockHash": "0xb85ddaf5011205daeb9c5e076e3c73ed7b1ac29fffea716512b5fe8b47595827",
      "blockNumber": "0xae5163",
      "gasUsed": "0xe66a",
      "effectiveGasPrice": "0xef426c",
      "from": "0xc3ca11bd8e131471904dced927b3fb7edb453179",
      "to": "0x2f925d6512b2bbb00f5a36d8b18e01fcf35f7dc7",
      "contractAddress": null,
      "l1Fee": "0x330676beb"
    },
    {
      "status": "0x1",
      "cumulativeGasUsed": "0x1e311",
      "logs": [
        {
          "address": "0x2f925d6512b2bbb00f5a36d8b18e01fcf35f7dc7",
          "topics": [
            "0x128b13f5a7f3d4a8f9ebafb4d8c23d5f6f5a287c83c1e81e79b1f80c1708a5fb",
            "0x0000000000000000000000000000000000000000000000000000000000000005"
          ],
          "data": "0x0000000000000000000000000000000000000000000000000000000000000004",
          "blockHash": "0x10c29b0874f8571fa7a522dc820414c46772ea97b2c8d4b3b7b8eccee355e8c3",
          "blockNumber": "0xae5164",
          "transactionHash": "0x4b72752b81c88e71b3bc20d0f2b65a02cb4c0430d0cbe6cd7a7809dd371c7452",
          "transactionIndex": "0x1",
          "logIndex": "0x1",
          "removed": false
        }
      ],
      "logsBloom": "0x00000000000000000000000000000000000000000000000000000000000000000000000000000000000000000000000000000000000000000000000000000000000010000000000000000000000000000000000000000000000000000000000000000000000000000000000000000000000000000000000009000000000000000000000400000000000000000000001000000800000000000000000000000000000000000000001000000000000000000000000000000000000000000000004000000000000000000000000000004000000000000000000000000000000000000000000000000000000000000000000000000000000000000000000000000000",
      "type": "0x2",
      "transactionHash": "0x4b72752b81c88e71b3bc20d0f2b65a02cb4c0430d0cbe6cd7a7809dd371c7452",
      "transactionIndex": "0x1",
      "blockHash": "0x10c29b0874f8571fa7a522dc820414c46772ea97b2c8d4b3b7b8eccee355e8c3",
      "blockNumber": "0xae5164",
      "gasUsed": "0xe66a",
      "effectiveGasPrice": "0xef426c",
      "from": "0xc3ca11bd8e131471904dced927b3fb7edb453179",
      "to": "0x2f925d6512b2bbb00f5a36d8b18e01fcf35f7dc7",
      "contractAddress": null,
      "l1Fee": "0x330676beb"
    },
    {
      "status": "0x1",
      "cumulativeGasUsed": "0xe66a",
      "logs": [
        {
          "address": "0x2f925d6512b2bbb00f5a36d8b18e01fcf35f7dc7",
          "topics": [
            "0x128b13f5a7f3d4a8f9ebafb4d8c23d5f6f5a287c83c1e81e79b1f80c1708a5fb",
            "0x0000000000000000000000000000000000000000000000000000000000000006"
          ],
          "data": "0x0000000000000000000000000000000000000000000000000000000000000008",
          "blockHash": "0x43921373a8800faf6f9a5dd764f704d186477d9c921b25fa82d20d6d20d1127f",
          "blockNumber": "0xae5165",
          "transactionHash": "0x2b74f5ae3c899ae21da9e6661e6d09663a04622f8378537525081a78760a45c2",
          "transactionIndex": "0x0",
          "logIndex": "0x0",
          "removed": false
        }
      ],
      "logsBloom": "0x00000000000000000000000000000000000000000000000000000000000000000000000000000000000000000000000000000000000400000000000000000000000000000000000000000000000000000000000000000000000000000000000000000000000000000000000000000000000000000000000009000000000000000000000400000000000000000000000000000000000000000000000000000000000000000000001000000000000000000000000000000000000000080000004000000000000000000000000000004000000000000000000000000000000000000000000000000000000000000000000000000000000000000000000000000000",
      "type": "0x2",
      "transactionHash": "0x2b74f5ae3c899ae21da9e6661e6d09663a04622f8378537525081a78760a45c2",
      "transactionIndex": "0x0",
      "blockHash": "0x43921373a8800faf6f9a5dd764f704d186477d9c921b25fa82d20d6d20d1127f",
      "blockNumber": "0xae5165",
      "gasUsed": "0xe66a",
      "effectiveGasPrice": "0xef426c",
      "from": "0xc3ca11bd8e131471904dced927b3fb7edb453179",
      "to": "0x2f925d6512b2bbb00f5a36d8b18e01fcf35f7dc7",
      "contractAddress": null,
      "l1Fee": "0x330676beb"
    },
    {
      "status": "0x1",
      "cumulativeGasUsed": "0xe66a",
      "logs": [
        {
          "address": "0x2f925d6512b2bbb00f5a36d8b18e01fcf35f7dc7",
          "topics": [
            "0x128b13f5a7f3d4a8f9ebafb4d8c23d5f6f5a287c83c1e81e79b1f80c1708a5fb",
            "0x0000000000000000000000000000000000000000000000000000000000000007"
          ],
          "data": "0x0000000000000000000000000000000000000000000000000000000000000004",
          "blockHash": "0x179a294abf1d821ba9419ab7c3661939e8b870ed7082b444ac54b5d59d0282f7",
          "blockNumber": "0xae5166",
          "transactionHash": "0x0726dcea9c1be41868109a0d933469e9f5eb63bdfec8a0dbda5d48f9f30189fd",
          "transactionIndex": "0x0",
          "logIndex": "0x0",
          "removed": false
        }
      ],
      "logsBloom": "0x00000000000000000000000000000000000000000000000000000000000000000000000000000000000000000000000000001000000000000000000000000000000020000000000000000000000000000000000000000000000000000000000000000000000000000000000000000000000000000000000009000000000000000000000400000000000000000000000000000000000000000000000000000000000000000000001000000000000000000000000000000000000000000000004000000000000000000000000000004000000000000000000000000100000000000000000000000000000000000000000000000000000000000000000000000000",
      "type": "0x2",
      "transactionHash": "0x0726dcea9c1be41868109a0d933469e9f5eb63bdfec8a0dbda5d48f9f30189fd",
      "transactionIndex": "0x0",
      "blockHash": "0x179a294abf1d821ba9419ab7c3661939e8b870ed7082b444ac54b5d59d0282f7",
      "blockNumber": "0xae5166",
      "gasUsed": "0xe66a",
      "effectiveGasPrice": "0xef426c",
      "from": "0xc3ca11bd8e131471904dced927b3fb7edb453179",
      "to": "0x2f925d6512b2bbb00f5a36d8b18e01fcf35f7dc7",
      "contractAddress": null,
      "l1Fee": "0x330676beb"
    },
    {
      "status": "0x1",
      "cumulativeGasUsed": "0x29be4",
      "logs": [
        {
          "address": "0x2f925d6512b2bbb00f5a36d8b18e01fcf35f7dc7",
          "topics": [
            "0x128b13f5a7f3d4a8f9ebafb4d8c23d5f6f5a287c83c1e81e79b1f80c1708a5fb",
            "0x0000000000000000000000000000000000000000000000000000000000000008"
          ],
          "data": "0x000000000000000000000000000000000000000000000000000000000000000a",
          "blockHash": "0x72f8057cdb7e06dfd0334a3e48ed184e00509d0aa423ced44cb363c931b76c28",
          "blockNumber": "0xae5167",
          "transactionHash": "0x2e258e7a79516cd8053818628a4530f74803f58403f06aeebf08894722e8e438",
          "transactionIndex": "0x1",
          "logIndex": "0x1",
          "removed": false
        }
      ],
      "logsBloom": "0x00000000000000000000000000000000000000000000000000000000000000000000000000000000000000000000000000000000000080000000000000000000000000000000000000000000000000000000000000000000000000000000000000000000000000000000000000000000000000000000000009000000000000000080000400000000000000000000000000000000000000000000000000000000000000000000001000000000000000000000000000000000000000000000004040000000000000000000000000004000000000000000000000000000000000000000000000000000000000000000000000000000000000000000000000000000",
      "type": "0x2",
      "transactionHash": "0x2e258e7a79516cd8053818628a4530f74803f58403f06aeebf08894722e8e438",
      "transactionIndex": "0x1",
      "blockHash": "0x72f8057cdb7e06dfd0334a3e48ed184e00509d0aa423ced44cb363c931b76c28",
      "blockNumber": "0xae5167",
      "gasUsed": "0xe66a",
      "effectiveGasPrice": "0xef426c",
      "from": "0xc3ca11bd8e131471904dced927b3fb7edb453179",
      "to": "0x2f925d6512b2bbb00f5a36d8b18e01fcf35f7dc7",
      "contractAddress": null,
      "l1Fee": "0x330676beb"
    },
    {
      "status": "0x1",
      "cumulativeGasUsed": "0xe66a",
      "logs": [
        {
          "address": "0x2f925d6512b2bbb00f5a36d8b18e01fcf35f7dc7",
          "topics": [
            "0x128b13f5a7f3d4a8f9ebafb4d8c23d5f6f5a287c83c1e81e79b1f80c1708a5fb",
            "0x0000000000000000000000000000000000000000000000000000000000000009"
          ],
          "data": "0x0000000000000000000000000000000000000000000000000000000000000008",
          "blockHash": "0x316f3dc2337c2282a9c17bdb3ba36b7398ab6ada1c30d945cf9860d658a76ff6",
          "blockNumber": "0xae5168",
          "transactionHash": "0xb3951018c9da4553a14918c9f6682764d47cf873f163c70fb8b27a8a5eedff9e",
          "transactionIndex": "0x0",
          "logIndex": "0x0",
          "removed": false
        }
      ],
      "logsBloom": "0x00000000000000000000000000000000000000000000000000000000000000000000000000000000000000000000000000000000000000000000000000200000000000000000000000000000000000000000000000000000000000000000000000000000000000000000000000000000000000000000000009000000000000000000000400000000000000000000000000001000000000000000000000000000000000000000001000000000000000000000000000000000000000000000004000000000000000000000000000004000000000000000000000000000000000000000000000000000000000000000000000000000000000000000000000800000",
      "type": "0x2",
      "transactionHash": "0xb3951018c9da4553a14918c9f6682764d47cf873f163c70fb8b27a8a5eedff9e",
      "transactionIndex": "0x0",
      "blockHash": "0x316f3dc2337c2282a9c17bdb3ba36b7398ab6ada1c30d945cf9860d658a76ff6",
      "blockNumber": "0xae5168",
      "gasUsed": "0xe66a",
      "effectiveGasPrice": "0xef426c",
      "from": "0xc3ca11bd8e131471904dced927b3fb7edb453179",
      "to": "0x2f925d6512b2bbb00f5a36d8b18e01fcf35f7dc7",
      "contractAddress": null,
      "l1Fee": "0x330676beb"
    },
    {
      "status": "0x1",
      "cumulativeGasUsed": "0xe66a",
      "logs": [
        {
          "address": "0x2f925d6512b2bbb00f5a36d8b18e01fcf35f7dc7",
          "topics": [
            "0x128b13f5a7f3d4a8f9ebafb4d8c23d5f6f5a287c83c1e81e79b1f80c1708a5fb",
            "0x000000000000000000000000000000000000000000000000000000000000000a"
          ],
          "data": "0x0000000000000000000000000000000000000000000000000000000000000008",
          "blockHash": "0x1392f72109c02a11b842b3cc4ba5a89208eb1463f67c408e5f07bfbb87d85eeb",
          "blockNumber": "0xae5169",
          "transactionHash": "0x39315dc2f02916939094cb81af04da88c6fb901b40ccd657b43501750d894616",
          "transactionIndex": "0x0",
          "logIndex": "0x0",
          "removed": false
        }
      ],
      "logsBloom": "0x00000000000000000000000000000000000000000000000000000000000000000000000000000000000000000000000000000000040000000020000000000000000000000000000000000000000000000000000000000000000000000000000000000000000000000000000000000000000000000000000009000000000000000000000400000000010000000000000000000000000000000000000000000000000000000000001000000000000000000000000000000000000000000000004000000000000000000000000000004000000000000000000000000000000000000000000000000000000000000000000000000000000000000000000000000000",
      "type": "0x2",
      "transactionHash": "0x39315dc2f02916939094cb81af04da88c6fb901b40ccd657b43501750d894616",
      "transactionIndex": "0x0",
      "blockHash": "0x1392f72109c02a11b842b3cc4ba5a89208eb1463f67c408e5f07bfbb87d85eeb",
      "blockNumber": "0xae5169",
      "gasUsed": "0xe66a",
      "effectiveGasPrice": "0xef426c",
      "from": "0xc3ca11bd8e131471904dced927b3fb7edb453179",
      "to": "0x2f925d6512b2bbb00f5a36d8b18e01fcf35f7dc7",
      "contractAddress": null,
      "l1Fee": "0x330676beb"
    },
    {
      "status": "0x1",
      "cumulativeGasUsed": "0xe66a",
      "logs": [
        {
          "address": "0x2f925d6512b2bbb00f5a36d8b18e01fcf35f7dc7",
          "topics": [
            "0x128b13f5a7f3d4a8f9ebafb4d8c23d5f6f5a287c83c1e81e79b1f80c1708a5fb",
            "0x000000000000000000000000000000000000000000000000000000000000000b"
          ],
          "data": "0x0000000000000000000000000000000000000000000000000000000000000008",
          "blockHash": "0x4e9b0b52d5b2e75a6d3aa11313c201915e3a235c1bfa5d5abada277cbde95bf1",
          "blockNumber": "0xae516a",
          "transactionHash": "0x0505a69f7c03abf2eeb7a9c478e1f265440d094b977b90a2c65e2021c6efa325",
          "transactionIndex": "0x0",
          "logIndex": "0x0",
          "removed": false
        }
      ],
      "logsBloom": "0x00000000000000000000004000000000000000000000000000000000000000000000000000000000000000000000000000000000000000000000000000000000000000000000000000000000000000000000000000000000000000000000000000000000000000000000000000000000000000000000000009000000000000000000000400000000000000000000000000000000000000000000000000000000000000000000001000000000000000000000000000000000000000000000004000000000000000000000000000004000002000000000000000000000000000000000000000000000000000000000000000000000000000040000000000000000",
      "type": "0x2",
      "transactionHash": "0x0505a69f7c03abf2eeb7a9c478e1f265440d094b977b90a2c65e2021c6efa325",
      "transactionIndex": "0x0",
      "blockHash": "0x4e9b0b52d5b2e75a6d3aa11313c201915e3a235c1bfa5d5abada277cbde95bf1",
      "blockNumber": "0xae516a",
      "gasUsed": "0xe66a",
      "effectiveGasPrice": "0xef426c",
      "from": "0xc3ca11bd8e131471904dced927b3fb7edb453179",
      "to": "0x2f925d6512b2bbb00f5a36d8b18e01fcf35f7dc7",
      "contractAddress": null,
      "l1Fee": "0x330676beb"
    },
    {
      "status": "0x1",
      "cumulativeGasUsed": "0xe66a",
      "logs": [
        {
          "address": "0x2f925d6512b2bbb00f5a36d8b18e01fcf35f7dc7",
          "topics": [
            "0x128b13f5a7f3d4a8f9ebafb4d8c23d5f6f5a287c83c1e81e79b1f80c1708a5fb",
            "0x000000000000000000000000000000000000000000000000000000000000000c"
          ],
          "data": "0x0000000000000000000000000000000000000000000000000000000000000014",
          "blockHash": "0x2e2f379d5514c48c5cc009da20127d7d83c79175061c9ccd2ba367ee613e2bbe",
          "blockNumber": "0xae516b",
          "transactionHash": "0xc382e2e57e52bcb4c824d8f5a8b4b027350c8b26d2ac92d167fffa7024e82202",
          "transactionIndex": "0x0",
          "logIndex": "0x0",
          "removed": false
        }
      ],
      "logsBloom": "0x00000000000000000000000000000000000002000000000000000000000000000000000000000200000000000000000000000000000000000000000000000000000000000000000000000000000000000000000000000000000000000000000000000000000000000000000000000000000000000000000009000000000000000000000400000000000000000000000000000000000000000000000000000000000000000000001000000000000000000000000000000000000000000000004000000000000000000000000000004000000000000000000000000000000000200000000000000000000000000000000000000000000000000000000000000000",
      "type": "0x2",
      "transactionHash": "0xc382e2e57e52bcb4c824d8f5a8b4b027350c8b26d2ac92d167fffa7024e82202",
      "transactionIndex": "0x0",
      "blockHash": "0x2e2f379d5514c48c5cc009da20127d7d83c79175061c9ccd2ba367ee613e2bbe",
      "blockNumber": "0xae516b",
      "gasUsed": "0xe66a",
      "effectiveGasPrice": "0xef426c",
      "from": "0xc3ca11bd8e131471904dced927b3fb7edb453179",
      "to": "0x2f925d6512b2bbb00f5a36d8b18e01fcf35f7dc7",
      "contractAddress": null,
      "l1Fee": "0x304f6f608"
    },
    {
      "status": "0x1",
      "cumulativeGasUsed": "0xe66a",
      "logs": [
        {
          "address": "0x2f925d6512b2bbb00f5a36d8b18e01fcf35f7dc7",
          "topics": [
            "0x128b13f5a7f3d4a8f9ebafb4d8c23d5f6f5a287c83c1e81e79b1f80c1708a5fb",
            "0x000000000000000000000000000000000000000000000000000000000000000d"
          ],
          "data": "0x0000000000000000000000000000000000000000000000000000000000000008",
          "blockHash": "0x9f2d70c7d133230e4f2bceb31b0018515f207433aa2d5911d7fd02442ffd98d1",
          "blockNumber": "0xae516c",
          "transactionHash": "0xcd20b779583eaea4b9f408d1b414304a6ea6624cfcc50ea7e3b3b00868cab0df",
          "transactionIndex": "0x0",
          "logIndex": "0x0",
          "removed": false
        }
      ],
      "logsBloom": "0x00000000000000000040000000000000000000000000000000000000000000000000000000000000000000000000000000000000000000000000000000000000000000000000000000000000000000000002000000000000000000000000000000000000000000000000000000000000000000000000000009000000000000000000000400000000000000000000000000000000000000000000000000000000000000000000001000000000000000000000000000000000000000000000004000000000000000000000000000004000000000000000000000000000000000020000000000000000000000000000000000000000000000000000000000000000",
      "type": "0x2",
      "transactionHash": "0xcd20b779583eaea4b9f408d1b414304a6ea6624cfcc50ea7e3b3b00868cab0df",
      "transactionIndex": "0x0",
      "blockHash": "0x9f2d70c7d133230e4f2bceb31b0018515f207433aa2d5911d7fd02442ffd98d1",
      "blockNumber": "0xae516c",
      "gasUsed": "0xe66a",
      "effectiveGasPrice": "0xef426c",
      "from": "0xc3ca11bd8e131471904dced927b3fb7edb453179",
      "to": "0x2f925d6512b2bbb00f5a36d8b18e01fcf35f7dc7",
      "contractAddress": null,
      "l1Fee": "0x304f6f608"
    },
    {
      "status": "0x1",
      "cumulativeGasUsed": "0xe66a",
      "logs": [
        {
          "address": "0x2f925d6512b2bbb00f5a36d8b18e01fcf35f7dc7",
          "topics": [
            "0x128b13f5a7f3d4a8f9ebafb4d8c23d5f6f5a287c83c1e81e79b1f80c1708a5fb",
            "0x000000000000000000000000000000000000000000000000000000000000000e"
          ],
          "data": "0x0000000000000000000000000000000000000000000000000000000000000004",
          "blockHash": "0x65af3ec15d5d0f16f002ae9f90e8c55d2eb983b1f69ab6bb738907ecdf2c976d",
          "blockNumber": "0xae516d",
          "transactionHash": "0x2b8bb3532dbb4f0d2a63940424f2e51b434dca28eb0ad99247268878d3317d97",
          "transactionIndex": "0x0",
          "logIndex": "0x0",
          "removed": false
        }
      ],
      "logsBloom": "0x00000000000000000000000000000000000000000000000000000000000000000000000000000000000000000000000000000000000000000000000000000000000000000000000800000000000000000000000000000000000000000000000000000000000000000000000000000000000000000000000009000000000000000000000400000000000000000000000008000000000000000000000000000000000000000000001000000000000000000000000000000020000000000000004000000000000000000000000000004000000000000000000000000000000000000000000000000000000000000000000000000000000000000000000000000000",
      "type": "0x2",
      "transactionHash": "0x2b8bb3532dbb4f0d2a63940424f2e51b434dca28eb0ad99247268878d3317d97",
      "transactionIndex": "0x0",
      "blockHash": "0x65af3ec15d5d0f16f002ae9f90e8c55d2eb983b1f69ab6bb738907ecdf2c976d",
      "blockNumber": "0xae516d",
      "gasUsed": "0xe66a",
      "effectiveGasPrice": "0xef426c",
      "from": "0xc3ca11bd8e131471904dced927b3fb7edb453179",
      "to": "0x2f925d6512b2bbb00f5a36d8b18e01fcf35f7dc7",
      "contractAddress": null,
      "l1Fee": "0x304f6f608"
    },
    {
      "status": "0x1",
      "cumulativeGasUsed": "0xe66a",
      "logs": [
        {
          "address": "0x2f925d6512b2bbb00f5a36d8b18e01fcf35f7dc7",
          "topics": [
            "0x128b13f5a7f3d4a8f9ebafb4d8c23d5f6f5a287c83c1e81e79b1f80c1708a5fb",
            "0x000000000000000000000000000000000000000000000000000000000000000f"
          ],
          "data": "0x0000000000000000000000000000000000000000000000000000000000000004",
          "blockHash": "0x0dd9dc814d593a8547facb3d348b0f1494998f9abb26babc865b1d18547c8afa",
          "blockNumber": "0xae516e",
          "transactionHash": "0xb3b524e05b5c238da3e5c33a4baa7372fb9cce81e4415fece222d582bccbe361",
          "transactionIndex": "0x0",
          "logIndex": "0x0",
          "removed": false
        }
      ],
      "logsBloom": "0x00000000000000000000000000000000000000000000000000000000000000000000000000000000000000000000000000000000000000000000000000000000000000000000000000000000000000000000000000000000000000000002000000000000000000000000000000000000000000000000000009000000000000000000000400000800000000000000000000000000000000000000000000000000000000000000001000000000000000000000000000000000000000000000004000000000000000000000000000004000000000000000000000000000000000000000000200000000000000000000000000000000000000000000000000000000",
      "type": "0x2",
      "transactionHash": "0xb3b524e05b5c238da3e5c33a4baa7372fb9cce81e4415fece222d582bccbe361",
      "transactionIndex": "0x0",
      "blockHash": "0x0dd9dc814d593a8547facb3d348b0f1494998f9abb26babc865b1d18547c8afa",
      "blockNumber": "0xae516e",
      "gasUsed": "0xe66a",
      "effectiveGasPrice": "0xef426c",
      "from": "0xc3ca11bd8e131471904dced927b3fb7edb453179",
      "to": "0x2f925d6512b2bbb00f5a36d8b18e01fcf35f7dc7",
      "contractAddress": null,
      "l1Fee": "0x304f6f608"
    },
    {
      "status": "0x1",
      "cumulativeGasUsed": "0xe66a",
      "logs": [
        {
          "address": "0x2f925d6512b2bbb00f5a36d8b18e01fcf35f7dc7",
          "topics": [
            "0x128b13f5a7f3d4a8f9ebafb4d8c23d5f6f5a287c83c1e81e79b1f80c1708a5fb",
            "0x0000000000000000000000000000000000000000000000000000000000000010"
          ],
          "data": "0x0000000000000000000000000000000000000000000000000000000000000004",
          "blockHash": "0x5fd9534c33f24a07fd01ece6d8468ac8b352cb51d84dcbe01df43275b3e2b220",
          "blockNumber": "0xae516f",
          "transactionHash": "0x06673f811759f9accfb694d9ca265dd655f5ea19f49ef3269d3ba3b6a52b6df3",
          "transactionIndex": "0x0",
          "logIndex": "0x0",
          "removed": false
        }
      ],
      "logsBloom": "0x00000000100000000000000000000000000000000000000000000000000000000000000000000000000000000000000000000000000000000000000000000000000000000000000000000000000000000000000000000000000000000000000000000000000000000000000000000000000000000000000009000000040000000000000400000000000000000000000000000100000000000000000000000000000000000000001000000000000000000000000000000000000000000000004000000000000000000000000000004000000000000000000000000000000000000000000000000000000000000000000000000000000000000000000000000000",
      "type": "0x2",
      "transactionHash": "0x06673f811759f9accfb694d9ca265dd655f5ea19f49ef3269d3ba3b6a52b6df3",
      "transactionIndex": "0x0",
      "blockHash": "0x5fd9534c33f24a07fd01ece6d8468ac8b352cb51d84dcbe01df43275b3e2b220",
      "blockNumber": "0xae516f",
      "gasUsed": "0xe66a",
      "effectiveGasPrice": "0xef426c",
      "from": "0xc3ca11bd8e131471904dced927b3fb7edb453179",
      "to": "0x2f925d6512b2bbb00f5a36d8b18e01fcf35f7dc7",
      "contractAddress": null,
      "l1Fee": "0x304f6f608"
    },
    {
      "status": "0x1",
      "cumulativeGasUsed": "0xe66a",
      "logs": [
        {
          "address": "0x2f925d6512b2bbb00f5a36d8b18e01fcf35f7dc7",
          "topics": [
            "0x128b13f5a7f3d4a8f9ebafb4d8c23d5f6f5a287c83c1e81e79b1f80c1708a5fb",
            "0x0000000000000000000000000000000000000000000000000000000000000011"
          ],
          "data": "0x0000000000000000000000000000000000000000000000000000000000000004",
          "blockHash": "0xff1de9867ac898fc64b0c1b975aa293bbabaad7ed68e3bca072649e3a01364ac",
          "blockNumber": "0xae5170",
          "transactionHash": "0xfa6ef832ab9b64a606a2b3bb4a6f45e3a766abb0a67930291ed9aecb42cdace3",
          "transactionIndex": "0x0",
          "logIndex": "0x0",
          "removed": false
        }
      ],
      "logsBloom": "0x00000000000000000000000000000000000000000000000000000000000000000000000000000000000000000000000000000000000000000000000000000000000000000000000000000000000000000000000000000000000000000000000000000000000000000000000000000000000000004000000009000000000000000000000400000000000000000000000000000000000000000000000000000000000000000000001000000000000000000000000000000000000000000400004000001000000000000000000000004000000000000000000000000000000000000000000000000000000000000000000000000000000000000000000000000000",
      "type": "0x2",
      "transactionHash": "0xfa6ef832ab9b64a606a2b3bb4a6f45e3a766abb0a67930291ed9aecb42cdace3",
      "transactionIndex": "0x0",
      "blockHash": "0xff1de9867ac898fc64b0c1b975aa293bbabaad7ed68e3bca072649e3a01364ac",
      "blockNumber": "0xae5170",
      "gasUsed": "0xe66a",
      "effectiveGasPrice": "0xef426c",
      "from": "0xc3ca11bd8e131471904dced927b3fb7edb453179",
      "to": "0x2f925d6512b2bbb00f5a36d8b18e01fcf35f7dc7",
      "contractAddress": null,
      "l1Fee": "0x304f6f608"
    },
    {
      "status": "0x1",
      "cumulativeGasUsed": "0x29be4",
      "logs": [
        {
          "address": "0x2f925d6512b2bbb00f5a36d8b18e01fcf35f7dc7",
          "topics": [
            "0x128b13f5a7f3d4a8f9ebafb4d8c23d5f6f5a287c83c1e81e79b1f80c1708a5fb",
            "0x0000000000000000000000000000000000000000000000000000000000000012"
          ],
          "data": "0x0000000000000000000000000000000000000000000000000000000000000002",
          "blockHash": "0x71dfa352ab433ae75f4b2f538c97bfbde3e2cfacf85b228661f2cc6b1d28961b",
          "blockNumber": "0xae5171",
          "transactionHash": "0x6d38734dee7d06e572895dd7a6f7be4db4c5c7825a1de6a0ced897da3d7579b6",
          "transactionIndex": "0x1",
          "logIndex": "0x1",
          "removed": false
        }
      ],
      "logsBloom": "0x00000000000000000000000000000000000000000000000000000000000000000000000000000000000000000000000000000000000000000000000000000000000000000000000000000000000000000000000000000000000000000000000000000000000000000000000000000000000000000000000009000000000000000000000400000000000000000000040000000000000000000000000000000000000000000000001000000000000000000000000000000040000000000000004000000000000000000400000000004000000000000000000000000000000000000000000000000000000000000000000000000000000000000000000000000000",
      "type": "0x2",
      "transactionHash": "0x6d38734dee7d06e572895dd7a6f7be4db4c5c7825a1de6a0ced897da3d7579b6",
      "transactionIndex": "0x1",
      "blockHash": "0x71dfa352ab433ae75f4b2f538c97bfbde3e2cfacf85b228661f2cc6b1d28961b",
      "blockNumber": "0xae5171",
      "gasUsed": "0xe66a",
      "effectiveGasPrice": "0xef426c",
      "from": "0xc3ca11bd8e131471904dced927b3fb7edb453179",
      "to": "0x2f925d6512b2bbb00f5a36d8b18e01fcf35f7dc7",
      "contractAddress": null,
      "l1Fee": "0x304f6f608"
    },
    {
      "status": "0x1",
      "cumulativeGasUsed": "0xe66a",
      "logs": [
        {
          "address": "0x2f925d6512b2bbb00f5a36d8b18e01fcf35f7dc7",
          "topics": [
            "0x128b13f5a7f3d4a8f9ebafb4d8c23d5f6f5a287c83c1e81e79b1f80c1708a5fb",
            "0x0000000000000000000000000000000000000000000000000000000000000013"
          ],
          "data": "0x0000000000000000000000000000000000000000000000000000000000000014",
          "blockHash": "0x581720462f828d0a96c2672fa95e35821195bbbd39ccd2d272f1f17d4dc2d605",
          "blockNumber": "0xae5172",
          "transactionHash": "0x013c16b91357f23e9a74662dabb208327853e0078523b1a8aea4cf8bb06d29c0",
          "transactionIndex": "0x0",
          "logIndex": "0x0",
          "removed": false
        }
      ],
      "logsBloom": "0x20000000000000000000000000800000000000000000000000000000000000000000000040000000000000000000000000000000000000000000000000000000000000000000000000000000000000000000000000000000000000000000000000000000000000000000000000000000000000000000000009000000000000000000000400000000000000000000000000000000000000000000000000000000000000000000001000000000000000000000000000000000000000000000004000000000000000000000000000004000000000000000000000000000000000000000000000000000000000000000000000000000000000000000000000000000",
      "type": "0x2",
      "transactionHash": "0x013c16b91357f23e9a74662dabb208327853e0078523b1a8aea4cf8bb06d29c0",
      "transactionIndex": "0x0",
      "blockHash": "0x581720462f828d0a96c2672fa95e35821195bbbd39ccd2d272f1f17d4dc2d605",
      "blockNumber": "0xae5172",
      "gasUsed": "0xe66a",
      "effectiveGasPrice": "0xef426c",
      "from": "0xc3ca11bd8e131471904dced927b3fb7edb453179",
      "to": "0x2f925d6512b2bbb00f5a36d8b18e01fcf35f7dc7",
      "contractAddress": null,
      "l1Fee": "0x304f6f608"
    },
    {
      "status": "0x1",
      "cumulativeGasUsed": "0xe66a",
      "logs": [
        {
          "address": "0x2f925d6512b2bbb00f5a36d8b18e01fcf35f7dc7",
          "topics": [
            "0x128b13f5a7f3d4a8f9ebafb4d8c23d5f6f5a287c83c1e81e79b1f80c1708a5fb",
            "0x0000000000000000000000000000000000000000000000000000000000000014"
          ],
          "data": "0x0000000000000000000000000000000000000000000000000000000000000002",
          "blockHash": "0x4390e3d06d526e664640726882f26dbfa31f5998e27b3a70953e3a2918178dca",
          "blockNumber": "0xae5173",
          "transactionHash": "0xa1cefecd8ffef670d96fba0fe8c3f410d03c2ad699cb08f600acd0fd1bf04eea",
          "transactionIndex": "0x0",
          "logIndex": "0x0",
          "removed": false
        }
      ],
      "logsBloom": "0x00000000000000000000000000000000000000000000000000000000000000000000000000000000000000000000000000002000000000000000000000000000000000000000000000000000000000000000000000000000000000000000000000000000000000000000000000000000000000000000000009000000000000000000000400000000000000000000000000000000000400000000000000000000000000000000001020000000000000000000000000000000000000000000004000000000000000000000000000004000000000000000000000000000000000000000000000000000000000000000000000000000000000000000000000000000",
      "type": "0x2",
      "transactionHash": "0xa1cefecd8ffef670d96fba0fe8c3f410d03c2ad699cb08f600acd0fd1bf04eea",
      "transactionIndex": "0x0",
      "blockHash": "0x4390e3d06d526e664640726882f26dbfa31f5998e27b3a70953e3a2918178dca",
      "blockNumber": "0xae5173",
      "gasUsed": "0xe66a",
      "effectiveGasPrice": "0xef426c",
      "from": "0xc3ca11bd8e131471904dced927b3fb7edb453179",
      "to": "0x2f925d6512b2bbb00f5a36d8b18e01fcf35f7dc7",
      "contractAddress": null,
      "l1Fee": "0x304f6f608"
    },
    {
      "status": "0x1",
      "cumulativeGasUsed": "0xe66a",
      "logs": [
        {
          "address": "0x2f925d6512b2bbb00f5a36d8b18e01fcf35f7dc7",
          "topics": [
            "0x128b13f5a7f3d4a8f9ebafb4d8c23d5f6f5a287c83c1e81e79b1f80c1708a5fb",
            "0x0000000000000000000000000000000000000000000000000000000000000015"
          ],
          "data": "0x0000000000000000000000000000000000000000000000000000000000000001",
          "blockHash": "0xaa3ccf34bedbd61a1bbcd9004465d34ccdb63521ff187dc32ff9b7e13ffac7b5",
          "blockNumber": "0xae5174",
          "transactionHash": "0x93a9d713975917f74adb483d53f288ce915c9fd3dceb6e106799fa42af57c968",
          "transactionIndex": "0x0",
          "logIndex": "0x0",
          "removed": false
        }
      ],
      "logsBloom": "0x00000000000000000000000000000000000000000000000000000000000000000000000000000000000000000000000000000000000000000000000000000000001000000000000000000000000000000000000000000000000000000000000000000000000000000000000000000000000000000000000009000000000000000000000400000000000000000000000000000000000000000000000000000000000000000000001000000000010000000000000000000000000000000000004000000000000000000000000000004000000000000000000000000000000000002000000000000000000000000000000000000000000000000000000000000000",
      "type": "0x2",
      "transactionHash": "0x93a9d713975917f74adb483d53f288ce915c9fd3dceb6e106799fa42af57c968",
      "transactionIndex": "0x0",
      "blockHash": "0xaa3ccf34bedbd61a1bbcd9004465d34ccdb63521ff187dc32ff9b7e13ffac7b5",
      "blockNumber": "0xae5174",
      "gasUsed": "0xe66a",
      "effectiveGasPrice": "0xef426c",
      "from": "0xc3ca11bd8e131471904dced927b3fb7edb453179",
      "to": "0x2f925d6512b2bbb00f5a36d8b18e01fcf35f7dc7",
      "contractAddress": null,
      "l1Fee": "0x304f6f608"
    },
    {
      "status": "0x1",
      "cumulativeGasUsed": "0xe66a",
      "logs": [
        {
          "address": "0x2f925d6512b2bbb00f5a36d8b18e01fcf35f7dc7",
          "topics": [
            "0x128b13f5a7f3d4a8f9ebafb4d8c23d5f6f5a287c83c1e81e79b1f80c1708a5fb",
            "0x0000000000000000000000000000000000000000000000000000000000000016"
          ],
          "data": "0x0000000000000000000000000000000000000000000000000000000000000001",
          "blockHash": "0xcdce259055864550bd43abc73719ff4b250fbc9a9a051714dfd3c703e119d8d0",
          "blockNumber": "0xae5175",
          "transactionHash": "0x4413ba957b8590298475e615f5da28f9b957090f9fc0bf190a302865740a2485",
          "transactionIndex": "0x0",
          "logIndex": "0x0",
          "removed": false
        }
      ],
      "logsBloom": "0x00000000000000000000000000000000000000000000000000000000000000000000000000000000000000000000000000000000000000000000000000000000000000000000000800000000000000000000000000000000000000000000000000000000000000000000000000000000200000000000000009000000000000000000000400000000000000000000000000000000000000000000000000000000000000000000001000000000000000000000000000000000000000000000004000000000000000000000000000004000000000000000000000000000000000000000000000000000000000000000000000000000000000000008000000000000",
      "type": "0x2",
      "transactionHash": "0x4413ba957b8590298475e615f5da28f9b957090f9fc0bf190a302865740a2485",
      "transactionIndex": "0x0",
      "blockHash": "0xcdce259055864550bd43abc73719ff4b250fbc9a9a051714dfd3c703e119d8d0",
      "blockNumber": "0xae5175",
      "gasUsed": "0xe66a",
      "effectiveGasPrice": "0xef426c",
      "from": "0xc3ca11bd8e131471904dced927b3fb7edb453179",
      "to": "0x2f925d6512b2bbb00f5a36d8b18e01fcf35f7dc7",
      "contractAddress": null,
      "l1Fee": "0x31f5843d7"
    },
    {
      "status": "0x1",
      "cumulativeGasUsed": "0xe66a",
      "logs": [
        {
          "address": "0x2f925d6512b2bbb00f5a36d8b18e01fcf35f7dc7",
          "topics": [
            "0x128b13f5a7f3d4a8f9ebafb4d8c23d5f6f5a287c83c1e81e79b1f80c1708a5fb",
            "0x0000000000000000000000000000000000000000000000000000000000000017"
          ],
          "data": "0x0000000000000000000000000000000000000000000000000000000000000005",
          "blockHash": "0x883c1cf8dd33f47c5450d5c2f46d3eeb4f14d5851f2e8239faccfc3caafefc75",
          "blockNumber": "0xae5176",
          "transactionHash": "0x30015327b87d72a05027c81ba23cc9130ab5e4b128144290190098d5a18b47e5",
          "transactionIndex": "0x0",
          "logIndex": "0x0",
          "removed": false
        }
      ],
      "logsBloom": "0x00000000000000000000000000000000000000000000000000000000000000000000000000000000000000000000000000001000000000000000001000000000000000000000000000000000000000000000000000000000000000000000000000000000000000000000000000000000000000000000000009000000000000000000000400000000000000000000000000000000000000000000000000000000000000000000001000000000000000000000000000000000000000000000004000000000000000000000000000004000000000000000000000000000000000000000000000000000000000000000000000000000000000000000000000080000",
      "type": "0x2",
      "transactionHash": "0x30015327b87d72a05027c81ba23cc9130ab5e4b128144290190098d5a18b47e5",
      "transactionIndex": "0x0",
      "blockHash": "0x883c1cf8dd33f47c5450d5c2f46d3eeb4f14d5851f2e8239faccfc3caafefc75",
      "blockNumber": "0xae5176",
      "gasUsed": "0xe66a",
      "effectiveGasPrice": "0xef426c",
      "from": "0xc3ca11bd8e131471904dced927b3fb7edb453179",
      "to": "0x2f925d6512b2bbb00f5a36d8b18e01fcf35f7dc7",
      "contractAddress": null,
      "l1Fee": "0x31f5843d7"
    },
    {
      "status": "0x1",
      "cumulativeGasUsed": "0xe66a",
      "logs": [
        {
          "address": "0x2f925d6512b2bbb00f5a36d8b18e01fcf35f7dc7",
          "topics": [
            "0x128b13f5a7f3d4a8f9ebafb4d8c23d5f6f5a287c83c1e81e79b1f80c1708a5fb",
            "0x0000000000000000000000000000000000000000000000000000000000000018"
          ],
          "data": "0x0000000000000000000000000000000000000000000000000000000000000005",
          "blockHash": "0x010fb4234536edd5c6fcf07c8b70a3ef6ebe900600bf47bea2b14e86d571e49d",
          "blockNumber": "0xae5177",
          "transactionHash": "0xfdf4e74145ae9946008b7651e5a105334a66b0dd880b69ae72bf93454e1121b6",
          "transactionIndex": "0x0",
          "logIndex": "0x0",
          "removed": false
        }
      ],
      "logsBloom": "0x00000000000000000000000000000000000000000000000000000000000000000000000000000000000000000000000000000000000000000000000000000000000000000000000000000000000000000040000000000000000000000000000000000000000000000000000000000000000000000000000009000000000000000000000400000000000000000000000000000000000000000000000000000000000000000000001000000000000000000000000000000000000000000000004000100000000000000000000000004000000000000000000020000000000000000000000000000000000000000000000000000000000000000000000000000000",
      "type": "0x2",
      "transactionHash": "0xfdf4e74145ae9946008b7651e5a105334a66b0dd880b69ae72bf93454e1121b6",
      "transactionIndex": "0x0",
      "blockHash": "0x010fb4234536edd5c6fcf07c8b70a3ef6ebe900600bf47bea2b14e86d571e49d",
      "blockNumber": "0xae5177",
      "gasUsed": "0xe66a",
      "effectiveGasPrice": "0xef426c",
      "from": "0xc3ca11bd8e131471904dced927b3fb7edb453179",
      "to": "0x2f925d6512b2bbb00f5a36d8b18e01fcf35f7dc7",
      "contractAddress": null,
      "l1Fee": "0x31f5843d7"
    },
    {
      "status": "0x1",
      "cumulativeGasUsed": "0xe66a",
      "logs": [
        {
          "address": "0x2f925d6512b2bbb00f5a36d8b18e01fcf35f7dc7",
          "topics": [
            "0x128b13f5a7f3d4a8f9ebafb4d8c23d5f6f5a287c83c1e81e79b1f80c1708a5fb",
            "0x0000000000000000000000000000000000000000000000000000000000000019"
          ],
          "data": "0x0000000000000000000000000000000000000000000000000000000000000005",
          "blockHash": "0x32c98cf6805a36e67b13b85825279e3fdb0bae01b6fe4e571ba4ed37d209b3f0",
          "blockNumber": "0xae5178",
          "transactionHash": "0xfe5c6327787511a9d4ffb6d031f01967b35e17868530241c5596bb29afd93405",
          "transactionIndex": "0x0",
          "logIndex": "0x0",
          "removed": false
        }
      ],
      "logsBloom": "0x00000000000000000000000000000000000000000000000000000000000000000000000000000000000000000000000000000000000000800000000000000000000000000000000000000000000000000000000000000000000000000000000000000000000000000000000000000000000000000000020009000000000000000000000400000000000000000000000000000000000000000000000000000000000000000000001000000000000000000000000000000000000000000000004000000000000000000000000000004000000000000000000000000000000000000000000000000000000000000000000000000000000000000000008000000000",
      "type": "0x2",
      "transactionHash": "0xfe5c6327787511a9d4ffb6d031f01967b35e17868530241c5596bb29afd93405",
      "transactionIndex": "0x0",
      "blockHash": "0x32c98cf6805a36e67b13b85825279e3fdb0bae01b6fe4e571ba4ed37d209b3f0",
      "blockNumber": "0xae5178",
      "gasUsed": "0xe66a",
      "effectiveGasPrice": "0xef426c",
      "from": "0xc3ca11bd8e131471904dced927b3fb7edb453179",
      "to": "0x2f925d6512b2bbb00f5a36d8b18e01fcf35f7dc7",
      "contractAddress": null,
      "l1Fee": "0x31f5843d7"
    },
    {
      "status": "0x1",
      "cumulativeGasUsed": "0xe66a",
      "logs": [
        {
          "address": "0x2f925d6512b2bbb00f5a36d8b18e01fcf35f7dc7",
          "topics": [
            "0x128b13f5a7f3d4a8f9ebafb4d8c23d5f6f5a287c83c1e81e79b1f80c1708a5fb",
            "0x000000000000000000000000000000000000000000000000000000000000001a"
          ],
          "data": "0x0000000000000000000000000000000000000000000000000000000000000005",
          "blockHash": "0xfde472ae9a566004bd50209b29300e33a7765494c41312f52062fbbdc0d2fc92",
          "blockNumber": "0xae5179",
          "transactionHash": "0x13fb38fb0f3c9d86a48956c5cbf14e7c2fdb4214faa3b548747f95f8e8ad029c",
          "transactionIndex": "0x0",
          "logIndex": "0x0",
          "removed": false
        }
      ],
      "logsBloom": "0x00000000000000000000000000000000000000000000000000000000000000000000000000000000000000000000000000000000000000000000000000000000000000000000000000000000000000001000000000000000000000001000000000000000000000000000000000000000000000000000000009000000000000000000000400000000000000000000000000000000000000000000000000000000000000000000001000000000000000000000000000000000000000000000004000000000000000000000000000004000000000000000000000000000000000000000000000000000000000000000000000000000000004000000000000000000",
      "type": "0x2",
      "transactionHash": "0x13fb38fb0f3c9d86a48956c5cbf14e7c2fdb4214faa3b548747f95f8e8ad029c",
      "transactionIndex": "0x0",
      "blockHash": "0xfde472ae9a566004bd50209b29300e33a7765494c41312f52062fbbdc0d2fc92",
      "blockNumber": "0xae5179",
      "gasUsed": "0xe66a",
      "effectiveGasPrice": "0xef426c",
      "from": "0xc3ca11bd8e131471904dced927b3fb7edb453179",
      "to": "0x2f925d6512b2bbb00f5a36d8b18e01fcf35f7dc7",
      "contractAddress": null,
      "l1Fee": "0x31f5843d7"
    },
    {
      "status": "0x1",
      "cumulativeGasUsed": "0x12fed",
      "logs": [],
      "logsBloom": "0x00000000000000000000000000000000000000000000000000000000000000000000000000000000000000000000000000000000000000000000000000000000000000000000000000000000000000000000000000000000000000000000000000000000000000000000000000000000000000000000000000000000000000000000000000000000000000000000000000000000000000000000000000000000000000000000000000000000000000000000000000000000000000000000000000000000000000000000000000000000000000000000000000000000000000000000000000000000000000000000000000000000000000000000000000000000",
      "type": "0x2",
      "transactionHash": "0x3bbbeb5aaee8aada34188de8b80e8895edbffd5f0dff10be892f13d212af929c",
      "transactionIndex": "0x0",
      "blockHash": "0x32d9ced2d405975d1cd284f0b8978067a9a7e17ae6e96910f8d966b85a76cf2d",
      "blockNumber": "0xae517a",
      "gasUsed": "0x12fed",
      "effectiveGasPrice": "0xef426c",
      "from": "0xc3ca11bd8e131471904dced927b3fb7edb453179",
      "to": "0x9c9e9fad264089339aad66ff3e32d2ba1ddf6951",
      "contractAddress": null,
      "l1Fee": "0x7a17477c5"
    },
    {
      "status": "0x1",
      "cumulativeGasUsed": "0x2882b",
      "logs": [],
      "logsBloom": "0x00000000000000000000000000000000000000000000000000000000000000000000000000000000000000000000000000000000000000000000000000000000000000000000000000000000000000000000000000000000000000000000000000000000000000000000000000000000000000000000000000000000000000000000000000000000000000000000000000000000000000000000000000000000000000000000000000000000000000000000000000000000000000000000000000000000000000000000000000000000000000000000000000000000000000000000000000000000000000000000000000000000000000000000000000000000",
      "type": "0x2",
      "transactionHash": "0x22bfe385790553cbdf3a2480ac296f263d2891b8696e12b5a29a65c0b310b08f",
      "transactionIndex": "0x1",
      "blockHash": "0x8cce710f12e9dd75e426e775dde8256e46e181d08481e9d4afd0a5fa9c72ef5e",
      "blockNumber": "0xae517b",
      "gasUsed": "0xd2bd",
      "effectiveGasPrice": "0xef426c",
      "from": "0xc3ca11bd8e131471904dced927b3fb7edb453179",
      "to": "0x9c9e9fad264089339aad66ff3e32d2ba1ddf6951",
      "contractAddress": null,
      "l1Fee": "0x7a17477c5"
    },
    {
      "status": "0x1",
      "cumulativeGasUsed": "0x16933",
      "logs": [],
      "logsBloom": "0x00000000000000000000000000000000000000000000000000000000000000000000000000000000000000000000000000000000000000000000000000000000000000000000000000000000000000000000000000000000000000000000000000000000000000000000000000000000000000000000000000000000000000000000000000000000000000000000000000000000000000000000000000000000000000000000000000000000000000000000000000000000000000000000000000000000000000000000000000000000000000000000000000000000000000000000000000000000000000000000000000000000000000000000000000000000",
      "type": "0x2",
      "transactionHash": "0x023144f5b57767b78370ae4a3f6bbe30ddf208dacb4f32df43c2592eaf2ffcf4",
      "transactionIndex": "0x0",
      "blockHash": "0x1295f3c40fd05e6916fb146c01705d153efa18286bb59becac8aeb50d3dd3614",
      "blockNumber": "0xae517c",
      "gasUsed": "0x16933",
      "effectiveGasPrice": "0xef426c",
      "from": "0xc3ca11bd8e131471904dced927b3fb7edb453179",
      "to": "0x9c9e9fad264089339aad66ff3e32d2ba1ddf6951",
      "contractAddress": null,
      "l1Fee": "0x7a17477c5"
    },
    {
      "status": "0x1",
      "cumulativeGasUsed": "0xcff9",
      "logs": [],
      "logsBloom": "0x00000000000000000000000000000000000000000000000000000000000000000000000000000000000000000000000000000000000000000000000000000000000000000000000000000000000000000000000000000000000000000000000000000000000000000000000000000000000000000000000000000000000000000000000000000000000000000000000000000000000000000000000000000000000000000000000000000000000000000000000000000000000000000000000000000000000000000000000000000000000000000000000000000000000000000000000000000000000000000000000000000000000000000000000000000000",
      "type": "0x2",
      "transactionHash": "0x31c708055ed6e14a82c490aff1e96fa8ff35a7711571302c743505fc001ce69e",
      "transactionIndex": "0x0",
      "blockHash": "0x4957a3d4d16b2abe35ecc260622ffbe5dc3d597d7dfa4e8c0180d079bcc3d90d",
      "blockNumber": "0xae517d",
      "gasUsed": "0xcff9",
      "effectiveGasPrice": "0xef426c",
      "from": "0xc3ca11bd8e131471904dced927b3fb7edb453179",
      "to": "0xe912f7c7a59470a6e3f178388106e3caa9e6fbd1",
      "contractAddress": null,
      "l1Fee": "0x7a17477c5"
    },
    {
      "status": "0x1",
      "cumulativeGasUsed": "0xcf33",
      "logs": [],
      "logsBloom": "0x00000000000000000000000000000000000000000000000000000000000000000000000000000000000000000000000000000000000000000000000000000000000000000000000000000000000000000000000000000000000000000000000000000000000000000000000000000000000000000000000000000000000000000000000000000000000000000000000000000000000000000000000000000000000000000000000000000000000000000000000000000000000000000000000000000000000000000000000000000000000000000000000000000000000000000000000000000000000000000000000000000000000000000000000000000000",
      "type": "0x2",
      "transactionHash": "0x3bafad878d3567db3b62df9626219411f556e40d40dfcec68e152e907c64f4d8",
      "transactionIndex": "0x0",
      "blockHash": "0xdd6cb638402c415b31df5a291d472963d8fa5a3feb036f67676091f8f25e5f4d",
      "blockNumber": "0xae517e",
      "gasUsed": "0xcf33",
      "effectiveGasPrice": "0xef426c",
      "from": "0xc3ca11bd8e131471904dced927b3fb7edb453179",
      "to": "0xe912f7c7a59470a6e3f178388106e3caa9e6fbd1",
      "contractAddress": null,
      "l1Fee": "0x7a17477c5"
    },
    {
      "status": "0x1",
      "cumulativeGasUsed": "0xd44e",
      "logs": [],
      "logsBloom": "0x00000000000000000000000000000000000000000000000000000000000000000000000000000000000000000000000000000000000000000000000000000000000000000000000000000000000000000000000000000000000000000000000000000000000000000000000000000000000000000000000000000000000000000000000000000000000000000000000000000000000000000000000000000000000000000000000000000000000000000000000000000000000000000000000000000000000000000000000000000000000000000000000000000000000000000000000000000000000000000000000000000000000000000000000000000000",
      "type": "0x2",
      "transactionHash": "0x942fea75716b9b5926c542511405332e03811032ab309e6cad8fc9ccb6a924af",
      "transactionIndex": "0x0",
      "blockHash": "0xdf4d1dc6f049ee894e0a1608c99a8c186a3ed8fcebf75ba5c43314e4833ccd89",
      "blockNumber": "0xae517f",
      "gasUsed": "0xd44e",
      "effectiveGasPrice": "0xef426c",
      "from": "0xc3ca11bd8e131471904dced927b3fb7edb453179",
      "to": "0xe912f7c7a59470a6e3f178388106e3caa9e6fbd1",
      "contractAddress": null,
      "l1Fee": "0x3af0c1682"
    },
    {
      "status": "0x1",
      "cumulativeGasUsed": "0xd324",
      "logs": [],
      "logsBloom": "0x00000000000000000000000000000000000000000000000000000000000000000000000000000000000000000000000000000000000000000000000000000000000000000000000000000000000000000000000000000000000000000000000000000000000000000000000000000000000000000000000000000000000000000000000000000000000000000000000000000000000000000000000000000000000000000000000000000000000000000000000000000000000000000000000000000000000000000000000000000000000000000000000000000000000000000000000000000000000000000000000000000000000000000000000000000000",
      "type": "0x2",
      "transactionHash": "0xdb2ee1d6cae5d60949be826803acc04d7ef7ec97c24b5e01d997b503d4343542",
      "transactionIndex": "0x0",
      "blockHash": "0xceaf8b6a03572e6a24e3d3f07d74a7b65839537c4078a44d11c04186bfa66b8e",
      "blockNumber": "0xae5180",
      "gasUsed": "0xd324",
      "effectiveGasPrice": "0xef426c",
      "from": "0xc3ca11bd8e131471904dced927b3fb7edb453179",
      "to": "0xe912f7c7a59470a6e3f178388106e3caa9e6fbd1",
      "contractAddress": null,
      "l1Fee": "0x3af0c1682"
    },
    {
      "status": "0x1",
      "cumulativeGasUsed": "0xd228",
      "logs": [],
      "logsBloom": "0x00000000000000000000000000000000000000000000000000000000000000000000000000000000000000000000000000000000000000000000000000000000000000000000000000000000000000000000000000000000000000000000000000000000000000000000000000000000000000000000000000000000000000000000000000000000000000000000000000000000000000000000000000000000000000000000000000000000000000000000000000000000000000000000000000000000000000000000000000000000000000000000000000000000000000000000000000000000000000000000000000000000000000000000000000000000",
      "type": "0x2",
      "transactionHash": "0x87bdfe3cb39ec6f7ca20f500b6e33e8c0b15afc89bd3347e8849ea9f93e6456a",
      "transactionIndex": "0x0",
      "blockHash": "0xf9e2c7d767252eead19708d0074a4696cdab855dd5b301cc933aa53cabbf0802",
      "blockNumber": "0xae5181",
      "gasUsed": "0xd228",
      "effectiveGasPrice": "0xef426c",
      "from": "0xc3ca11bd8e131471904dced927b3fb7edb453179",
      "to": "0xe912f7c7a59470a6e3f178388106e3caa9e6fbd1",
      "contractAddress": null,
      "l1Fee": "0x3af0c1682"
    },
    {
      "status": "0x1",
      "cumulativeGasUsed": "0xd2d8",
      "logs": [],
      "logsBloom": "0x00000000000000000000000000000000000000000000000000000000000000000000000000000000000000000000000000000000000000000000000000000000000000000000000000000000000000000000000000000000000000000000000000000000000000000000000000000000000000000000000000000000000000000000000000000000000000000000000000000000000000000000000000000000000000000000000000000000000000000000000000000000000000000000000000000000000000000000000000000000000000000000000000000000000000000000000000000000000000000000000000000000000000000000000000000000",
      "type": "0x2",
      "transactionHash": "0x0d9051bea5ca26efc4e755d48c025a036cbc8455bee5b3c542795dc36e296e08",
      "transactionIndex": "0x0",
      "blockHash": "0x83cfaa105d8cbc569610df2a9bd950c74657085767290428a07569b0368a126d",
      "blockNumber": "0xae5182",
      "gasUsed": "0xd2d8",
      "effectiveGasPrice": "0xef426c",
      "from": "0xc3ca11bd8e131471904dced927b3fb7edb453179",
      "to": "0xe912f7c7a59470a6e3f178388106e3caa9e6fbd1",
      "contractAddress": null,
      "l1Fee": "0x3af0c1682"
    },
    {
      "status": "0x1",
      "cumulativeGasUsed": "0xd04e",
      "logs": [],
      "logsBloom": "0x00000000000000000000000000000000000000000000000000000000000000000000000000000000000000000000000000000000000000000000000000000000000000000000000000000000000000000000000000000000000000000000000000000000000000000000000000000000000000000000000000000000000000000000000000000000000000000000000000000000000000000000000000000000000000000000000000000000000000000000000000000000000000000000000000000000000000000000000000000000000000000000000000000000000000000000000000000000000000000000000000000000000000000000000000000000",
      "type": "0x2",
      "transactionHash": "0xbcb3094c68b56437d032cf20729e61daeb0bc8b803c261a98cca9a434ace1bef",
      "transactionIndex": "0x0",
      "blockHash": "0x630f80bc1720427aa9b76f8a334e718b278a7f6e0f0256462adedda7c0b4227e",
      "blockNumber": "0xae5183",
      "gasUsed": "0xd04e",
      "effectiveGasPrice": "0xef426c",
      "from": "0xc3ca11bd8e131471904dced927b3fb7edb453179",
      "to": "0x92228b058f25bc4fb333fa296dddecbddf6496f3",
      "contractAddress": null,
      "l1Fee": "0x7a17477c5"
    },
    {
      "status": "0x1",
      "cumulativeGasUsed": "0x83bd",
      "logs": [],
      "logsBloom": "0x00000000000000000000000000000000000000000000000000000000000000000000000000000000000000000000000000000000000000000000000000000000000000000000000000000000000000000000000000000000000000000000000000000000000000000000000000000000000000000000000000000000000000000000000000000000000000000000000000000000000000000000000000000000000000000000000000000000000000000000000000000000000000000000000000000000000000000000000000000000000000000000000000000000000000000000000000000000000000000000000000000000000000000000000000000000",
      "type": "0x2",
      "transactionHash": "0xddcdd9c70f911d29dfdad457def360f63ce2b9230d7b7f0c4255f2170a25e320",
      "transactionIndex": "0x0",
      "blockHash": "0x76f12a73ac4780e90b2827cde41717c176dd30da79017a54919a981a45c5cb61",
      "blockNumber": "0xae5184",
      "gasUsed": "0x83bd",
      "effectiveGasPrice": "0xef426c",
      "from": "0xc3ca11bd8e131471904dced927b3fb7edb453179",
      "to": "0x92228b058f25bc4fb333fa296dddecbddf6496f3",
      "contractAddress": null,
      "l1Fee": "0x793fb9c05"
    },
    {
      "status": "0x1",
      "cumulativeGasUsed": "0xcf46",
      "logs": [],
      "logsBloom": "0x00000000000000000000000000000000000000000000000000000000000000000000000000000000000000000000000000000000000000000000000000000000000000000000000000000000000000000000000000000000000000000000000000000000000000000000000000000000000000000000000000000000000000000000000000000000000000000000000000000000000000000000000000000000000000000000000000000000000000000000000000000000000000000000000000000000000000000000000000000000000000000000000000000000000000000000000000000000000000000000000000000000000000000000000000000000",
      "type": "0x2",
      "transactionHash": "0x2ea00d057ab22d21c7afd8edb61ce003aec57c80fb30ffb05d9046aa84ff60a6",
      "transactionIndex": "0x0",
      "blockHash": "0xa99f5eb0db38f53c604bf2eb490a131cd39931fd4d50dde7af4387424e064a0a",
      "blockNumber": "0xae5185",
      "gasUsed": "0xcf46",
      "effectiveGasPrice": "0xef426c",
      "from": "0xc3ca11bd8e131471904dced927b3fb7edb453179",
      "to": "0x92228b058f25bc4fb333fa296dddecbddf6496f3",
      "contractAddress": null,
      "l1Fee": "0x7a17477c5"
    },
    {
      "status": "0x1",
      "cumulativeGasUsed": "0xd029",
      "logs": [],
      "logsBloom": "0x00000000000000000000000000000000000000000000000000000000000000000000000000000000000000000000000000000000000000000000000000000000000000000000000000000000000000000000000000000000000000000000000000000000000000000000000000000000000000000000000000000000000000000000000000000000000000000000000000000000000000000000000000000000000000000000000000000000000000000000000000000000000000000000000000000000000000000000000000000000000000000000000000000000000000000000000000000000000000000000000000000000000000000000000000000000",
      "type": "0x2",
      "transactionHash": "0x55565bcc2344f4050110a0cd536a02b81e0c7a3d8985733b8a8c5ba892f1dc47",
      "transactionIndex": "0x0",
      "blockHash": "0x9a8865a78fd82b7c0349a26d61e62b3528016ce0260945d74c4bf1d4608f04e2",
      "blockNumber": "0xae5186",
      "gasUsed": "0xd029",
      "effectiveGasPrice": "0xef426c",
      "from": "0xc3ca11bd8e131471904dced927b3fb7edb453179",
      "to": "0x2af842c6517cf30fb3456aef485230e0dd085845",
      "contractAddress": null,
      "l1Fee": "0x793fb9c05"
    },
    {
      "status": "0x1",
      "cumulativeGasUsed": "0x8457",
      "logs": [],
      "logsBloom": "0x00000000000000000000000000000000000000000000000000000000000000000000000000000000000000000000000000000000000000000000000000000000000000000000000000000000000000000000000000000000000000000000000000000000000000000000000000000000000000000000000000000000000000000000000000000000000000000000000000000000000000000000000000000000000000000000000000000000000000000000000000000000000000000000000000000000000000000000000000000000000000000000000000000000000000000000000000000000000000000000000000000000000000000000000000000000",
      "type": "0x2",
      "transactionHash": "0xc4443b217aa6d2f54e5e922ddeb01188df1d5d0a7fe63157900d192cd8f3293e",
      "transactionIndex": "0x0",
      "blockHash": "0xb36b964cc95e83d202a805bc6473ec473c2ca5f873583d06070c11e37930780a",
      "blockNumber": "0xae5187",
      "gasUsed": "0x8457",
      "effectiveGasPrice": "0xef426c",
      "from": "0xc3ca11bd8e131471904dced927b3fb7edb453179",
      "to": "0x2af842c6517cf30fb3456aef485230e0dd085845",
      "contractAddress": null,
      "l1Fee": "0x793fb9c05"
    },
    {
      "status": "0x1",
      "cumulativeGasUsed": "0xcf30",
      "logs": [],
      "logsBloom": "0x00000000000000000000000000000000000000000000000000000000000000000000000000000000000000000000000000000000000000000000000000000000000000000000000000000000000000000000000000000000000000000000000000000000000000000000000000000000000000000000000000000000000000000000000000000000000000000000000000000000000000000000000000000000000000000000000000000000000000000000000000000000000000000000000000000000000000000000000000000000000000000000000000000000000000000000000000000000000000000000000000000000000000000000000000000000",
      "type": "0x2",
      "transactionHash": "0xd21bcb6967d2375b10a579f8cb98acef062e52b7b0ad7cec4c536bded9298148",
      "transactionIndex": "0x0",
      "blockHash": "0xc3f6e595731619788c675b6ae1dfef94101f32629450f943f4e014b319ca2cf1",
      "blockNumber": "0xae5188",
      "gasUsed": "0xcf30",
      "effectiveGasPrice": "0xef426c",
      "from": "0xc3ca11bd8e131471904dced927b3fb7edb453179",
      "to": "0x2af842c6517cf30fb3456aef485230e0dd085845",
      "contractAddress": null,
      "l1Fee": "0x7a17477c5"
    },
    {
      "status": "0x1",
      "cumulativeGasUsed": "0xed893",
      "logs": [],
      "logsBloom": "0x00000000000000000000000000000000000000000000000000000000000000000000000000000000000000000000000000000000000000000000000000000000000000000000000000000000000000000000000000000000000000000000000000000000000000000000000000000000000000000000000000000000000000000000000000000000000000000000000000000000000000000000000000000000000000000000000000000000000000000000000000000000000000000000000000000000000000000000000000000000000000000000000000000000000000000000000000000000000000000000000000000000000000000000000000000000",
      "type": "0x2",
      "transactionHash": "0x00b0def10524467fdee7210db5e51bd5c864f11cb427a4c512946f683e5fc74f",
      "transactionIndex": "0x0",
      "blockHash": "0x1f9ca13137103a9a4d3696f814d31a530a6495fed45abccd7eb7644fdcf3f5d3",
      "blockNumber": "0xae5189",
      "gasUsed": "0xed893",
      "effectiveGasPrice": "0xef426c",
      "from": "0xc3ca11bd8e131471904dced927b3fb7edb453179",
      "to": "0x58b610a359c870e0fc941139821a51f5aa23f14e",
      "contractAddress": null,
      "l1Fee": "0x25f4c190ed"
    },
    {
      "status": "0x1",
      "cumulativeGasUsed": "0x125559",
      "logs": [],
      "logsBloom": "0x00000000000000000000000000000000000000000000000000000000000000000000000000000000000000000000000000000000000000000000000000000000000000000000000000000000000000000000000000000000000000000000000000000000000000000000000000000000000000000000000000000000000000000000000000000000000000000000000000000000000000000000000000000000000000000000000000000000000000000000000000000000000000000000000000000000000000000000000000000000000000000000000000000000000000000000000000000000000000000000000000000000000000000000000000000000",
      "type": "0x2",
      "transactionHash": "0xf22f4fa22571620c6543ae10cb5530c0d9918655b72d5aa588d50e451ac53851",
      "transactionIndex": "0x0",
      "blockHash": "0xfda143c313f75a62e4b824ef8e903db4f977f48e6c5f9673fe07a23493769508",
      "blockNumber": "0xae518a",
      "gasUsed": "0x125559",
      "effectiveGasPrice": "0xef426c",
      "from": "0xc3ca11bd8e131471904dced927b3fb7edb453179",
      "to": "0x58b610a359c870e0fc941139821a51f5aa23f14e",
      "contractAddress": null,
      "l1Fee": "0x272631c5c4"
    },
    {
      "status": "0x1",
      "cumulativeGasUsed": "0xf31c2",
      "logs": [],
      "logsBloom": "0x00000000000000000000000000000000000000000000000000000000000000000000000000000000000000000000000000000000000000000000000000000000000000000000000000000000000000000000000000000000000000000000000000000000000000000000000000000000000000000000000000000000000000000000000000000000000000000000000000000000000000000000000000000000000000000000000000000000000000000000000000000000000000000000000000000000000000000000000000000000000000000000000000000000000000000000000000000000000000000000000000000000000000000000000000000000",
      "type": "0x2",
      "transactionHash": "0x1639b85f06df71a82ddba4fa1850d37d8dbd112962276b0235fc8dc29d49d7fd",
      "transactionIndex": "0x0",
      "blockHash": "0x9c9ee0a1e7df2036a49c9ac942a7c6528f914e07dc9f0dcbf050e14512a90634",
      "blockNumber": "0xae518b",
      "gasUsed": "0xf31c2",
      "effectiveGasPrice": "0xef426c",
      "from": "0xc3ca11bd8e131471904dced927b3fb7edb453179",
      "to": "0x58b610a359c870e0fc941139821a51f5aa23f14e",
      "contractAddress": null,
      "l1Fee": "0x272631c5c4"
    },
    {
      "status": "0x1",
      "cumulativeGasUsed": "0xf227e",
      "logs": [],
      "logsBloom": "0x00000000000000000000000000000000000000000000000000000000000000000000000000000000000000000000000000000000000000000000000000000000000000000000000000000000000000000000000000000000000000000000000000000000000000000000000000000000000000000000000000000000000000000000000000000000000000000000000000000000000000000000000000000000000000000000000000000000000000000000000000000000000000000000000000000000000000000000000000000000000000000000000000000000000000000000000000000000000000000000000000000000000000000000000000000000",
      "type": "0x2",
      "transactionHash": "0x00f9cde56092364132f5875cea5784a953dbe741e95f7bf5cdffcff871568e0b",
      "transactionIndex": "0x0",
      "blockHash": "0x8706c19a405e566cd3d1adc3af2ac3e53e247a7bf34b7edd378c10efaf96d025",
      "blockNumber": "0xae518c",
      "gasUsed": "0xf227e",
      "effectiveGasPrice": "0xef426c",
      "from": "0xc3ca11bd8e131471904dced927b3fb7edb453179",
      "to": "0x58b610a359c870e0fc941139821a51f5aa23f14e",
      "contractAddress": null,
      "l1Fee": "0x272631c5c4"
    }
  ],
  "libraries": [],
  "pending": [],
  "returns": {},
  "timestamp": 1754682002,
  "chain": 534351,
  "commit": "5798807"
}