{
  "transactions": [
    {
      "hash": "0xaeb879f7fb9d71eeff38c39e15df4ecc9c9fadffcdf794b1cf44919b3307dbc6",
      "transactionType": "CALL",
      "contractName": null,
      "contractAddress": "0x005c5Fd1585A73817107bFd3929f7e559750ceEd",
      "function": "addChainContract(string,string)",
      "arguments": [
        "421614",
        "0x8Ea9B4616e5653CF21B87e60c8D72d8384685ec6"
      ],
      "transaction": {
        "from": "0xe62Ab4D111f968660C6B2188046F9B9bA53C4Bae",
        "to": "0x005c5Fd1585A73817107bFd3929f7e559750ceEd",
        "gas": "0x32ff2",
        "value": "0x0",
        "input": "0x12d3fcfa0000000000000000000000000000000000000000000000000000000000000040000000000000000000000000000000000000000000000000000000000000008000000000000000000000000000000000000000000000000000000000000000063432313631340000000000000000000000000000000000000000000000000000000000000000000000000000000000000000000000000000000000000000002a30783845613942343631366535363533434632314238376536306338443732643833383436383565633600000000000000000000000000000000000000000000",
        "nonce": "0x12",
        "chainId": "0x3106a"
      },
      "additionalContracts": [],
      "isFixedGasLimit": false
    },
    {
      "hash": "0x949673c2dba5ba2ed261d032b7d1929e3ea98ca5668be498ce9e5ca405441122",
      "transactionType": "CALL",
      "contractName": null,
      "contractAddress": "0x005c5Fd1585A73817107bFd3929f7e559750ceEd",
      "function": "attachRWAX(uint256,uint256,string,string)",
      "arguments": [
        "1",
        "1",
        "421614",
        "0x5330db730fAb0Bf0bB9db2FCefe7b1876c09a242"
      ],
      "transaction": {
        "from": "0xe62Ab4D111f968660C6B2188046F9B9bA53C4Bae",
        "to": "0x005c5Fd1585A73817107bFd3929f7e559750ceEd",
        "gas": "0x36906",
        "value": "0x0",
        "input": "0x5cbee36a00000000000000000000000000000000000000000000000000000000000000010000000000000000000000000000000000000000000000000000000000000001000000000000000000000000000000000000000000000000000000000000008000000000000000000000000000000000000000000000000000000000000000c000000000000000000000000000000000000000000000000000000000000000063432313631340000000000000000000000000000000000000000000000000000000000000000000000000000000000000000000000000000000000000000002a30783533333064623733306641623042663062423964623246436566653762313837366330396132343200000000000000000000000000000000000000000000",
        "nonce": "0x13",
        "chainId": "0x3106a"
      },
      "additionalContracts": [],
      "isFixedGasLimit": false
    },
    {
      "hash": "0x16127f7e034b5c5b8dac7f04a85765abed839e3e902afe247ee194b769c6d154",
      "transactionType": "CALL",
      "contractName": null,
      "contractAddress": "0x005c5Fd1585A73817107bFd3929f7e559750ceEd",
      "function": "addChainContract(string,string)",
      "arguments": [
        "97",
        "0x2BE0C4Ac75784737D4D0E75C4026d4Bc671B938E"
      ],
      "transaction": {
        "from": "0xe62Ab4D111f968660C6B2188046F9B9bA53C4Bae",
        "to": "0x005c5Fd1585A73817107bFd3929f7e559750ceEd",
        "gas": "0x31003",
        "value": "0x0",
        "input": "0x12d3fcfa0000000000000000000000000000000000000000000000000000000000000040000000000000000000000000000000000000000000000000000000000000008000000000000000000000000000000000000000000000000000000000000000023937000000000000000000000000000000000000000000000000000000000000000000000000000000000000000000000000000000000000000000000000002a30783242453043344163373537383437333744344430453735433430323664344263363731423933384500000000000000000000000000000000000000000000",
        "nonce": "0x14",
        "chainId": "0x3106a"
      },
      "additionalContracts": [],
      "isFixedGasLimit": false
    },
    {
      "hash": "0x581d2a6fff97fade6944cb10bd361a299eeb436659bdb23ef77568fc15f2a5bd",
      "transactionType": "CALL",
      "contractName": null,
      "contractAddress": "0x005c5Fd1585A73817107bFd3929f7e559750ceEd",
      "function": "attachRWAX(uint256,uint256,string,string)",
      "arguments": [
        "1",
        "1",
        "97",
        "0x048A5cefCDF0faeB734bc4A941E0de44d8c49f55"
      ],
      "transaction": {
        "from": "0xe62Ab4D111f968660C6B2188046F9B9bA53C4Bae",
        "to": "0x005c5Fd1585A73817107bFd3929f7e559750ceEd",
        "gas": "0x31bb7",
        "value": "0x0",
        "input": "0x5cbee36a00000000000000000000000000000000000000000000000000000000000000010000000000000000000000000000000000000000000000000000000000000001000000000000000000000000000000000000000000000000000000000000008000000000000000000000000000000000000000000000000000000000000000c000000000000000000000000000000000000000000000000000000000000000023937000000000000000000000000000000000000000000000000000000000000000000000000000000000000000000000000000000000000000000000000002a30783034384135636566434446306661654237333462633441393431453064653434643863343966353500000000000000000000000000000000000000000000",
        "nonce": "0x15",
        "chainId": "0x3106a"
      },
      "additionalContracts": [],
      "isFixedGasLimit": false
    },
    {
      "hash": "0xa77a06a1026b1c2f97489202311a7e3531f11ebe5edb33c4e234d58ccc728c18",
      "transactionType": "CALL",
      "contractName": null,
      "contractAddress": "0x6EE5C158882857c7F52b37FCe37B1CF39944f22E",
      "function": "addFeeToken(string)",
      "arguments": [
        "0x6a4DBC971533Ba36bdc23aD70F5A7a12E064f4ae"
      ],
      "transaction": {
        "from": "0xe62Ab4D111f968660C6B2188046F9B9bA53C4Bae",
        "to": "0x6EE5C158882857c7F52b37FCe37B1CF39944f22E",
        "gas": "0x2cce6",
        "value": "0x0",
        "input": "0x12a6385f0000000000000000000000000000000000000000000000000000000000000020000000000000000000000000000000000000000000000000000000000000002a30783661344442433937313533334261333662646332336144373046354137613132453036346634616500000000000000000000000000000000000000000000",
        "nonce": "0x16",
        "chainId": "0x3106a"
      },
      "additionalContracts": [],
      "isFixedGasLimit": false
    },
    {
      "hash": "0xf9c7bdee1931a485154e20f60bfae34450f88c189cb35fbf7098927d194411a4",
      "transactionType": "CALL",
      "contractName": null,
      "contractAddress": "0x6EE5C158882857c7F52b37FCe37B1CF39944f22E",
      "function": "addFeeToken(string,string[],uint256[])",
      "arguments": [
        "421614",
        "[0x6a4DBC971533Ba36bdc23aD70F5A7a12E064f4ae]",
        "[0]"
      ],
      "transaction": {
        "from": "0xe62Ab4D111f968660C6B2188046F9B9bA53C4Bae",
        "to": "0x6EE5C158882857c7F52b37FCe37B1CF39944f22E",
        "gas": "0x28c3f",
        "value": "0x0",
        "input": "0x437bf84f000000000000000000000000000000000000000000000000000000000000006000000000000000000000000000000000000000000000000000000000000000a000000000000000000000000000000000000000000000000000000000000001400000000000000000000000000000000000000000000000000000000000000006343231363134000000000000000000000000000000000000000000000000000000000000000000000000000000000000000000000000000000000000000000010000000000000000000000000000000000000000000000000000000000000020000000000000000000000000000000000000000000000000000000000000002a3078366134444243393731353333426133366264633233614437304635413761313245303634663461650000000000000000000000000000000000000000000000000000000000000000000000000000000000000000000000000000000000010000000000000000000000000000000000000000000000000000000000000000",
        "nonce": "0x17",
        "chainId": "0x3106a"
      },
      "additionalContracts": [],
      "isFixedGasLimit": false
    }
  ],
  "receipts": [
    {
      "status": "0x1",
      "cumulativeGasUsed": "0x22dea",
      "logs": [],
      "logsBloom": "0x00000000000000000000000000000000000000000000000000000000000000000000000000000000000000000000000000000000000000000000000000000000000000000000000000000000000000000000000000000000000000000000000000000000000000000000000000000000000000000000000000000000000000000000000000000000000000000000000000000000000000000000000000000000000000000000000000000000000000000000000000000000000000000000000000000000000000000000000000000000000000000000000000000000000000000000000000000000000000000000000000000000000000000000000000000000",
      "type": "0x0",
      "transactionHash": "0xaeb879f7fb9d71eeff38c39e15df4ecc9c9fadffcdf794b1cf44919b3307dbc6",
      "transactionIndex": "0x0",
      "blockHash": "0x3f0c700907afe3fe55edf85af8f983a0d170e39880474f0e61958c953da87b1d",
      "blockNumber": "0x702140",
      "gasUsed": "0x22dea",
      "effectiveGasPrice": "0x2faf087",
      "from": "0xe62Ab4D111f968660C6B2188046F9B9bA53C4Bae",
      "to": "0x005c5Fd1585A73817107bFd3929f7e559750ceEd",
      "contractAddress": null
    },
    {
      "status": "0x1",
      "cumulativeGasUsed": "0x4a5f9",
      "logs": [],
      "logsBloom": "0x00000000000000000000000000000000000000000000000000000000000000000000000000000000000000000000000000000000000000000000000000000000000000000000000000000000000000000000000000000000000000000000000000000000000000000000000000000000000000000000000000000000000000000000000000000000000000000000000000000000000000000000000000000000000000000000000000000000000000000000000000000000000000000000000000000000000000000000000000000000000000000000000000000000000000000000000000000000000000000000000000000000000000000000000000000000",
      "type": "0x0",
      "transactionHash": "0x949673c2dba5ba2ed261d032b7d1929e3ea98ca5668be498ce9e5ca405441122",
      "transactionIndex": "0x1",
      "blockHash": "0x3f0c700907afe3fe55edf85af8f983a0d170e39880474f0e61958c953da87b1d",
      "blockNumber": "0x702140",
      "gasUsed": "0x2780f",
      "effectiveGasPrice": "0x2faf087",
      "from": "0xe62Ab4D111f968660C6B2188046F9B9bA53C4Bae",
      "to": "0x005c5Fd1585A73817107bFd3929f7e559750ceEd",
      "contractAddress": null
    },
    {
      "status": "0x1",
      "cumulativeGasUsed": "0x6dd96",
      "logs": [],
      "logsBloom": "0x00000000000000000000000000000000000000000000000000000000000000000000000000000000000000000000000000000000000000000000000000000000000000000000000000000000000000000000000000000000000000000000000000000000000000000000000000000000000000000000000000000000000000000000000000000000000000000000000000000000000000000000000000000000000000000000000000000000000000000000000000000000000000000000000000000000000000000000000000000000000000000000000000000000000000000000000000000000000000000000000000000000000000000000000000000000",
      "type": "0x0",
      "transactionHash": "0x16127f7e034b5c5b8dac7f04a85765abed839e3e902afe247ee194b769c6d154",
      "transactionIndex": "0x2",
      "blockHash": "0x3f0c700907afe3fe55edf85af8f983a0d170e39880474f0e61958c953da87b1d",
      "blockNumber": "0x702140",
      "gasUsed": "0x2379d",
      "effectiveGasPrice": "0x2faf087",
      "from": "0xe62Ab4D111f968660C6B2188046F9B9bA53C4Bae",
      "to": "0x005c5Fd1585A73817107bFd3929f7e559750ceEd",
      "contractAddress": null
    },
    {
      "status": "0x1",
      "cumulativeGasUsed": "0x91dac",
      "logs": [],
      "logsBloom": "0x00000000000000000000000000000000000000000000000000000000000000000000000000000000000000000000000000000000000000000000000000000000000000000000000000000000000000000000000000000000000000000000000000000000000000000000000000000000000000000000000000000000000000000000000000000000000000000000000000000000000000000000000000000000000000000000000000000000000000000000000000000000000000000000000000000000000000000000000000000000000000000000000000000000000000000000000000000000000000000000000000000000000000000000000000000000",
      "type": "0x0",
      "transactionHash": "0x581d2a6fff97fade6944cb10bd361a299eeb436659bdb23ef77568fc15f2a5bd",
      "transactionIndex": "0x3",
      "blockHash": "0x3f0c700907afe3fe55edf85af8f983a0d170e39880474f0e61958c953da87b1d",
      "blockNumber": "0x702140",
      "gasUsed": "0x24016",
      "effectiveGasPrice": "0x2faf087",
      "from": "0xe62Ab4D111f968660C6B2188046F9B9bA53C4Bae",
      "to": "0x005c5Fd1585A73817107bFd3929f7e559750ceEd",
      "contractAddress": null
    },
    {
      "status": "0x1",
      "cumulativeGasUsed": "0xb24b2",
      "logs": [
        {
          "address": "0x6EE5C158882857c7F52b37FCe37B1CF39944f22E",
          "topics": [
            "0x1394cfab38f3fc78ed77ea6f9318782a446d96e7dc8e9a6b0149f6be25c08bcf",
            "0x0000000000000000000000006a4dbc971533ba36bdc23ad70f5a7a12e064f4ae"
          ],
          "data": "0x",
          "blockHash": "0x3f0c700907afe3fe55edf85af8f983a0d170e39880474f0e61958c953da87b1d",
          "blockNumber": "0x702140",
          "transactionHash": "0xa77a06a1026b1c2f97489202311a7e3531f11ebe5edb33c4e234d58ccc728c18",
          "transactionIndex": "0x4",
          "logIndex": "0x0",
          "removed": false
        }
      ],
      "logsBloom": "0x00000000000000000000000000000000000200000000000000000000000000000000000000000000000000000000000000000000000000001000000000000000000000000000001000000000000000000000001000000000000000000000000000000000000000000000000000000000000000000000000000000000000000000000000100000000000000000000000000000000000000000000000000000000000000000000000000000000000000000000000100000000000000000000000000000000000000000000000000000008000000002000000000000000000000000000000000000000000000200000000000000000000000000000000000000000",
      "type": "0x0",
      "transactionHash": "0xa77a06a1026b1c2f97489202311a7e3531f11ebe5edb33c4e234d58ccc728c18",
      "transactionIndex": "0x4",
      "blockHash": "0x3f0c700907afe3fe55edf85af8f983a0d170e39880474f0e61958c953da87b1d",
      "blockNumber": "0x702140",
      "gasUsed": "0x20706",
      "effectiveGasPrice": "0x2faf087",
      "from": "0xe62Ab4D111f968660C6B2188046F9B9bA53C4Bae",
      "to": "0x6EE5C158882857c7F52b37FCe37B1CF39944f22E",
      "contractAddress": null
    },
    {
      "status": "0x1",
      "cumulativeGasUsed": "0xcfcea",
      "logs": [],
      "logsBloom": "0x00000000000000000000000000000000000000000000000000000000000000000000000000000000000000000000000000000000000000000000000000000000000000000000000000000000000000000000000000000000000000000000000000000000000000000000000000000000000000000000000000000000000000000000000000000000000000000000000000000000000000000000000000000000000000000000000000000000000000000000000000000000000000000000000000000000000000000000000000000000000000000000000000000000000000000000000000000000000000000000000000000000000000000000000000000000",
      "type": "0x0",
      "transactionHash": "0xf9c7bdee1931a485154e20f60bfae34450f88c189cb35fbf7098927d194411a4",
      "transactionIndex": "0x5",
      "blockHash": "0x3f0c700907afe3fe55edf85af8f983a0d170e39880474f0e61958c953da87b1d",
      "blockNumber": "0x702140",
      "gasUsed": "0x1d838",
      "effectiveGasPrice": "0x2faf087",
      "from": "0xe62Ab4D111f968660C6B2188046F9B9bA53C4Bae",
      "to": "0x6EE5C158882857c7F52b37FCe37B1CF39944f22E",
      "contractAddress": null
    }
  ],
  "libraries": [],
  "pending": [],
  "returns": {},
  "timestamp": 1729180129,
  "chain": 200810,
  "commit": "089dfaad"
}