{
  "transactions": [
    {
      "hash": "0x2e5a6966df8c99d6a24b33c42865664eb8befdaefe6fe6c293fbffd3dcd49ae6",
      "transactionType": "CALL",
      "contractName": null,
      "contractAddress": "0x4a82933a6d097a1f4c99880e4a3b4c7b7d291765",
      "function": "addFeeToken(string)",
      "arguments": [
        "0xf6d2060494cd08e776d22a47e67d485a33c8c5d2"
      ],
      "transaction": {
        "from": "0xe62ab4d111f968660c6b2188046f9b9ba53c4bae",
        "to": "0x4a82933a6d097a1f4c99880e4a3b4c7b7d291765",
        "gas": "0x6b808",
        "value": "0x0",
        "input": "0x12a6385f0000000000000000000000000000000000000000000000000000000000000020000000000000000000000000000000000000000000000000000000000000002a30786636643230363034393463643038653737366432326134376536376434383561333363386335643200000000000000000000000000000000000000000000",
        "nonce": "0x22",
        "chainId": "0x152"
      },
      "additionalContracts": [],
      "isFixedGasLimit": false
    },
    {
      "hash": "0xbb9f7e7b391d64a7bf7a20477c0f412273002d8006f04d1c03028403c829865a",
      "transactionType": "CALL",
      "contractName": null,
      "contractAddress": "0x4a82933a6d097a1f4c99880e4a3b4c7b7d291765",
      "function": "setFeeMultiplier(uint8,uint256)",
      "arguments": [
        "0",
        "2"
      ],
      "transaction": {
        "from": "0xe62ab4d111f968660c6b2188046f9b9ba53c4bae",
        "to": "0x4a82933a6d097a1f4c99880e4a3b4c7b7d291765",
        "gas": "0x27a68",
        "value": "0x0",
        "input": "0x0ee24eb500000000000000000000000000000000000000000000000000000000000000000000000000000000000000000000000000000000000000000000000000000002",
        "nonce": "0x23",
        "chainId": "0x152"
      },
      "additionalContracts": [],
      "isFixedGasLimit": false
    },
    {
      "hash": "0x9d4577a7f98f7ed5015b514554b00e586a92a569f9c107132d81ea7549c72fc4",
      "transactionType": "CALL",
      "contractName": null,
      "contractAddress": "0x4a82933a6d097a1f4c99880e4a3b4c7b7d291765",
      "function": "setFeeMultiplier(uint8,uint256)",
      "arguments": [
        "1",
        "10"
      ],
      "transaction": {
        "from": "0xe62ab4d111f968660c6b2188046f9b9ba53c4bae",
        "to": "0x4a82933a6d097a1f4c99880e4a3b4c7b7d291765",
        "gas": "0x25797",
        "value": "0x0",
        "input": "0x0ee24eb50000000000000000000000000000000000000000000000000000000000000001000000000000000000000000000000000000000000000000000000000000000a",
        "nonce": "0x24",
        "chainId": "0x152"
      },
      "additionalContracts": [],
      "isFixedGasLimit": false
    },
    {
      "hash": "0xf62159ebcd47fc20db35186cad724ce6921ae4b22d0180112d7d771063ad1dd0",
      "transactionType": "CALL",
      "contractName": null,
      "contractAddress": "0x4a82933a6d097a1f4c99880e4a3b4c7b7d291765",
      "function": "setFeeMultiplier(uint8,uint256)",
      "arguments": [
        "2",
        "1"
      ],
      "transaction": {
        "from": "0xe62ab4d111f968660c6b2188046f9b9ba53c4bae",
        "to": "0x4a82933a6d097a1f4c99880e4a3b4c7b7d291765",
        "gas": "0x27b2b",
        "value": "0x0",
        "input": "0x0ee24eb500000000000000000000000000000000000000000000000000000000000000020000000000000000000000000000000000000000000000000000000000000001",
        "nonce": "0x25",
        "chainId": "0x152"
      },
      "additionalContracts": [],
      "isFixedGasLimit": false
    },
    {
      "hash": "0xa55318ef50e5f807d5cbbefea35a6c2d393bd1731053a00d35ac6620d845f317",
      "transactionType": "CALL",
      "contractName": null,
      "contractAddress": "0x4a82933a6d097a1f4c99880e4a3b4c7b7d291765",
      "function": "setFeeMultiplier(uint8,uint256)",
      "arguments": [
        "3",
        "4"
      ],
      "transaction": {
        "from": "0xe62ab4d111f968660c6b2188046f9b9ba53c4bae",
        "to": "0x4a82933a6d097a1f4c99880e4a3b4c7b7d291765",
        "gas": "0x27b79",
        "value": "0x0",
        "input": "0x0ee24eb500000000000000000000000000000000000000000000000000000000000000030000000000000000000000000000000000000000000000000000000000000004",
        "nonce": "0x26",
        "chainId": "0x152"
      },
      "additionalContracts": [],
      "isFixedGasLimit": false
    },
    {
      "hash": "0x93a3bc504eb1f8b0560b5f1c754198daf55e045a2667196e74f461cfaefdbb10",
      "transactionType": "CALL",
      "contractName": null,
      "contractAddress": "0x4a82933a6d097a1f4c99880e4a3b4c7b7d291765",
      "function": "setFeeMultiplier(uint8,uint256)",
      "arguments": [
        "4",
        "4"
      ],
      "transaction": {
        "from": "0xe62ab4d111f968660c6b2188046f9b9ba53c4bae",
        "to": "0x4a82933a6d097a1f4c99880e4a3b4c7b7d291765",
        "gas": "0x25863",
        "value": "0x0",
        "input": "0x0ee24eb500000000000000000000000000000000000000000000000000000000000000040000000000000000000000000000000000000000000000000000000000000004",
        "nonce": "0x27",
        "chainId": "0x152"
      },
      "additionalContracts": [],
      "isFixedGasLimit": false
    },
    {
      "hash": "0x0b61c8ca466eb7cd686d7598944085b0b27e198734496a733cfb9f2d15531274",
      "transactionType": "CALL",
      "contractName": null,
      "contractAddress": "0x0a47eff3560ee2c0a2773f3927b6869f193f6858",
      "function": "attachRWAX(uint256,uint256,string,string)",
      "arguments": [
        "1",
        "1",
        "338",
        "0x5fd3ef94668d7f5b6a439a9e2c662960115658c7"
      ],
      "transaction": {
        "from": "0xe62ab4d111f968660c6b2188046f9b9ba53c4bae",
        "to": "0x0a47eff3560ee2c0a2773f3927b6869f193f6858",
        "gas": "0x817d7",
        "value": "0x0",
        "input": "0x5cbee36a00000000000000000000000000000000000000000000000000000000000000010000000000000000000000000000000000000000000000000000000000000001000000000000000000000000000000000000000000000000000000000000008000000000000000000000000000000000000000000000000000000000000000c000000000000000000000000000000000000000000000000000000000000000033333380000000000000000000000000000000000000000000000000000000000000000000000000000000000000000000000000000000000000000000000002a30783566643365663934363638643766356236613433396139653263363632393630313135363538633700000000000000000000000000000000000000000000",
        "nonce": "0x28",
        "chainId": "0x152"
      },
      "additionalContracts": [],
      "isFixedGasLimit": false
    },
    {
      "hash": "0xf7953fdab1909a1ef65f8d0aef1e7005173c38a2e2609752903248d7a537475b",
      "transactionType": "CALL",
      "contractName": null,
      "contractAddress": "0x0a47eff3560ee2c0a2773f3927b6869f193f6858",
      "function": "attachStorageManager(uint256,uint256,string,string)",
      "arguments": [
        "1",
        "1",
        "338",
        "0xe43d06a75cfee05bd698f32c36c611d5328718ee"
      ],
      "transaction": {
        "from": "0xe62ab4d111f968660c6b2188046f9b9ba53c4bae",
        "to": "0x0a47eff3560ee2c0a2773f3927b6869f193f6858",
        "gas": "0x896be",
        "value": "0x0",
        "input": "0x6bb884f300000000000000000000000000000000000000000000000000000000000000010000000000000000000000000000000000000000000000000000000000000001000000000000000000000000000000000000000000000000000000000000008000000000000000000000000000000000000000000000000000000000000000c000000000000000000000000000000000000000000000000000000000000000033333380000000000000000000000000000000000000000000000000000000000000000000000000000000000000000000000000000000000000000000000002a30786534336430366137356366656530356264363938663332633336633631316435333238373138656500000000000000000000000000000000000000000000",
        "nonce": "0x29",
        "chainId": "0x152"
      },
      "additionalContracts": [],
      "isFixedGasLimit": false
    }
  ],
  "receipts": [
    {
      "status": "0x1",
      "cumulativeGasUsed": "0x35c04",
      "logs": [
        {
          "address": "0x4a82933a6d097a1f4c99880e4a3b4c7b7d291765",
          "topics": [
            "0x1394cfab38f3fc78ed77ea6f9318782a446d96e7dc8e9a6b0149f6be25c08bcf",
            "0x000000000000000000000000f6d2060494cd08e776d22a47e67d485a33c8c5d2"
          ],
          "data": "0x",
          "blockHash": "0x87675e187ad3746d145baf66e7fac6522982da6234c75299ffcdac301e8296b8",
          "blockNumber": "0x1988735",
          "transactionHash": "0x2e5a6966df8c99d6a24b33c42865664eb8befdaefe6fe6c293fbffd3dcd49ae6",
          "transactionIndex": "0x0",
          "logIndex": "0x0",
          "removed": false
        }
      ],
      "logsBloom": "0x00000000000000000000000000000000000000000000000000000000000000000000000000000000000000000000000000000000080000000000000000000000000000000000000000000000000000000000001000000000000000000000000000000000000001000000000000000000000000000000000000000000000000020000000100000000000000004000000000000000000000000000000000000000000000002000000000000000000000000000000100000000000000000000000000000000000000000000000000000000000000000000000000000000000000000000000020000000000000000000000000000000000000000000000000000000",
      "type": "0x2",
      "transactionHash": "0x2e5a6966df8c99d6a24b33c42865664eb8befdaefe6fe6c293fbffd3dcd49ae6",
      "transactionIndex": "0x0",
      "blockHash": "0x87675e187ad3746d145baf66e7fac6522982da6234c75299ffcdac301e8296b8",
      "blockNumber": "0x1988735",
      "gasUsed": "0x35c04",
      "effectiveGasPrice": "0x497cb74c400",
      "from": "0xe62ab4d111f968660c6b2188046f9b9ba53c4bae",
      "to": "0x4a82933a6d097a1f4c99880e4a3b4c7b7d291765",
      "contractAddress": null
    },
    {
      "status": "0x1",
      "cumulativeGasUsed": "0x13d34",
      "logs": [],
      "logsBloom": "0x00000000000000000000000000000000000000000000000000000000000000000000000000000000000000000000000000000000000000000000000000000000000000000000000000000000000000000000000000000000000000000000000000000000000000000000000000000000000000000000000000000000000000000000000000000000000000000000000000000000000000000000000000000000000000000000000000000000000000000000000000000000000000000000000000000000000000000000000000000000000000000000000000000000000000000000000000000000000000000000000000000000000000000000000000000000",
      "type": "0x2",
      "transactionHash": "0xbb9f7e7b391d64a7bf7a20477c0f412273002d8006f04d1c03028403c829865a",
      "transactionIndex": "0x0",
      "blockHash": "0x050148209c39e96a92f566ef6a5bc754a9a4567d1878d0a8abb4a62ebda57112",
      "blockNumber": "0x1988738",
      "gasUsed": "0x13d34",
      "effectiveGasPrice": "0x497cb74c400",
      "from": "0xe62ab4d111f968660c6b2188046f9b9ba53c4bae",
      "to": "0x4a82933a6d097a1f4c99880e4a3b4c7b7d291765",
      "contractAddress": null
    },
    {
      "status": "0x1",
      "cumulativeGasUsed": "0x12bcb",
      "logs": [],
      "logsBloom": "0x00000000000000000000000000000000000000000000000000000000000000000000000000000000000000000000000000000000000000000000000000000000000000000000000000000000000000000000000000000000000000000000000000000000000000000000000000000000000000000000000000000000000000000000000000000000000000000000000000000000000000000000000000000000000000000000000000000000000000000000000000000000000000000000000000000000000000000000000000000000000000000000000000000000000000000000000000000000000000000000000000000000000000000000000000000000",
      "type": "0x2",
      "transactionHash": "0x9d4577a7f98f7ed5015b514554b00e586a92a569f9c107132d81ea7549c72fc4",
      "transactionIndex": "0x0",
      "blockHash": "0x841a45472c4a115d1d92a00cbca842d518f72b681cfb8843a30298224ddbc43f",
      "blockNumber": "0x198873a",
      "gasUsed": "0x12bcb",
      "effectiveGasPrice": "0x497cb74c400",
      "from": "0xe62ab4d111f968660c6b2188046f9b9ba53c4bae",
      "to": "0x4a82933a6d097a1f4c99880e4a3b4c7b7d291765",
      "contractAddress": null
    },
    {
      "status": "0x1",
      "cumulativeGasUsed": "0x13d95",
      "logs": [],
      "logsBloom": "0x00000000000000000000000000000000000000000000000000000000000000000000000000000000000000000000000000000000000000000000000000000000000000000000000000000000000000000000000000000000000000000000000000000000000000000000000000000000000000000000000000000000000000000000000000000000000000000000000000000000000000000000000000000000000000000000000000000000000000000000000000000000000000000000000000000000000000000000000000000000000000000000000000000000000000000000000000000000000000000000000000000000000000000000000000000000",
      "type": "0x2",
      "transactionHash": "0xf62159ebcd47fc20db35186cad724ce6921ae4b22d0180112d7d771063ad1dd0",
      "transactionIndex": "0x0",
      "blockHash": "0xa7baec1c8878ed268a0c3edc25898e60bf49bbde6b6c12eb8676201e0b9f2a32",
      "blockNumber": "0x198873e",
      "gasUsed": "0x13d95",
      "effectiveGasPrice": "0x497cb74c400",
      "from": "0xe62ab4d111f968660c6b2188046f9b9ba53c4bae",
      "to": "0x4a82933a6d097a1f4c99880e4a3b4c7b7d291765",
      "contractAddress": null
    },
    {
      "status": "0x1",
      "cumulativeGasUsed": "0x13dbc",
      "logs": [],
      "logsBloom": "0x00000000000000000000000000000000000000000000000000000000000000000000000000000000000000000000000000000000000000000000000000000000000000000000000000000000000000000000000000000000000000000000000000000000000000000000000000000000000000000000000000000000000000000000000000000000000000000000000000000000000000000000000000000000000000000000000000000000000000000000000000000000000000000000000000000000000000000000000000000000000000000000000000000000000000000000000000000000000000000000000000000000000000000000000000000000",
      "type": "0x2",
      "transactionHash": "0xa55318ef50e5f807d5cbbefea35a6c2d393bd1731053a00d35ac6620d845f317",
      "transactionIndex": "0x0",
      "blockHash": "0xfe4e9ecc2ced93b554cc66433dd2f596e6a95f1eee410b62ed8fc93a881b37aa",
      "blockNumber": "0x1988741",
      "gasUsed": "0x13dbc",
      "effectiveGasPrice": "0x497cb74c400",
      "from": "0xe62ab4d111f968660c6b2188046f9b9ba53c4bae",
      "to": "0x4a82933a6d097a1f4c99880e4a3b4c7b7d291765",
      "contractAddress": null
    },
    {
      "status": "0x1",
      "cumulativeGasUsed": "0x12c31",
      "logs": [],
      "logsBloom": "0x00000000000000000000000000000000000000000000000000000000000000000000000000000000000000000000000000000000000000000000000000000000000000000000000000000000000000000000000000000000000000000000000000000000000000000000000000000000000000000000000000000000000000000000000000000000000000000000000000000000000000000000000000000000000000000000000000000000000000000000000000000000000000000000000000000000000000000000000000000000000000000000000000000000000000000000000000000000000000000000000000000000000000000000000000000000",
      "type": "0x2",
      "transactionHash": "0x93a3bc504eb1f8b0560b5f1c754198daf55e045a2667196e74f461cfaefdbb10",
      "transactionIndex": "0x0",
      "blockHash": "0x3b7b8ebb7ee4f2a53833bac6616638b0988272c4071419462c37afe40da31226",
      "blockNumber": "0x1988744",
      "gasUsed": "0x12c31",
      "effectiveGasPrice": "0x497cb74c400",
      "from": "0xe62ab4d111f968660c6b2188046f9b9ba53c4bae",
      "to": "0x4a82933a6d097a1f4c99880e4a3b4c7b7d291765",
      "contractAddress": null
    },
    {
      "status": "0x1",
      "cumulativeGasUsed": "0x40beb",
      "logs": [],
      "logsBloom": "0x00000000000000000000000000000000000000000000000000000000000000000000000000000000000000000000000000000000000000000000000000000000000000000000000000000000000000000000000000000000000000000000000000000000000000000000000000000000000000000000000000000000000000000000000000000000000000000000000000000000000000000000000000000000000000000000000000000000000000000000000000000000000000000000000000000000000000000000000000000000000000000000000000000000000000000000000000000000000000000000000000000000000000000000000000000000",
      "type": "0x2",
      "transactionHash": "0x0b61c8ca466eb7cd686d7598944085b0b27e198734496a733cfb9f2d15531274",
      "transactionIndex": "0x0",
      "blockHash": "0x8fefbddffb3494f3e4e26880b9776c66c83df2664fb9e2e02d60144cff28e9a4",
      "blockNumber": "0x1988747",
      "gasUsed": "0x40beb",
      "effectiveGasPrice": "0x497cb74c400",
      "from": "0xe62ab4d111f968660c6b2188046f9b9ba53c4bae",
      "to": "0x0a47eff3560ee2c0a2773f3927b6869f193f6858",
      "contractAddress": null
    },
    {
      "status": "0x1",
      "cumulativeGasUsed": "0x44b5f",
      "logs": [],
      "logsBloom": "0x00000000000000000000000000000000000000000000000000000000000000000000000000000000000000000000000000000000000000000000000000000000000000000000000000000000000000000000000000000000000000000000000000000000000000000000000000000000000000000000000000000000000000000000000000000000000000000000000000000000000000000000000000000000000000000000000000000000000000000000000000000000000000000000000000000000000000000000000000000000000000000000000000000000000000000000000000000000000000000000000000000000000000000000000000000000",
      "type": "0x2",
      "transactionHash": "0xf7953fdab1909a1ef65f8d0aef1e7005173c38a2e2609752903248d7a537475b",
      "transactionIndex": "0x0",
      "blockHash": "0x0ae9e8e8c288bd5367f3111fbc01ca587a5b9a24621bd4afb492c7ab3d68d5eb",
      "blockNumber": "0x198874a",
      "gasUsed": "0x44b5f",
      "effectiveGasPrice": "0x497cb74c400",
      "from": "0xe62ab4d111f968660c6b2188046f9b9ba53c4bae",
      "to": "0x0a47eff3560ee2c0a2773f3927b6869f193f6858",
      "contractAddress": null
    }
  ],
  "libraries": [],
  "pending": [],
  "returns": {},
  "timestamp": 1730470191,
  "chain": 338,
  "commit": "34a11392"
}