{
  "transactions": [
    {
      "hash": "0xae04d5c3be4086f898325dac390a695b443aa29d7fe682de1bcb951640fb093a",
      "transactionType": "CALL",
      "contractName": null,
      "contractAddress": "0x58b610a359c870e0fc941139821a51f5aa23f14e",
      "function": "addTxSender(address)",
      "arguments": [
        "0x5d0725Add79feD3f0E61851b3C4704148Ef9c7eA"
      ],
      "transaction": {
        "from": "0xc3ca11bd8e131471904dced927b3fb7edb453179",
        "to": "0x58b610a359c870e0fc941139821a51f5aa23f14e",
        "gas": "0x12a32",
        "value": "0x0",
        "input": "0xeebd14af0000000000000000000000005d0725add79fed3f0e61851b3c4704148ef9c7ea",
        "nonce": "0xbc",
        "chainId": "0xa869"
      },
      "additionalContracts": [],
      "isFixedGasLimit": false
    },
    {
      "hash": "0x99f077fe086cc21e2c40564c9fd618c8a67047aa05632a1428b67025b7551085",
      "transactionType": "CALL",
      "contractName": null,
      "contractAddress": "0x2f925d6512b2bbb00f5a36d8b18e01fcf35f7dc7",
      "function": "addTxSender(address)",
      "arguments": [
        "0x5d0725Add79feD3f0E61851b3C4704148Ef9c7eA"
      ],
      "transaction": {
        "from": "0xc3ca11bd8e131471904dced927b3fb7edb453179",
        "to": "0x2f925d6512b2bbb00f5a36d8b18e01fcf35f7dc7",
        "gas": "0x12a13",
        "value": "0x0",
        "input": "0xeebd14af0000000000000000000000005d0725add79fed3f0e61851b3c4704148ef9c7ea",
        "nonce": "0xbd",
        "chainId": "0xa869"
      },
      "additionalContracts": [],
      "isFixedGasLimit": false
    },
    {
      "hash": "0x009596ae333a80dbf4efb2eab4549f861a9ed1c188edd944cdccf13eed8aba70",
      "transactionType": "CALL",
      "contractName": null,
      "contractAddress": "0x9c9e9fad264089339aad66ff3e32d2ba1ddf6951",
      "function": "addTxSender(address)",
      "arguments": [
        "0x5d0725Add79feD3f0E61851b3C4704148Ef9c7eA"
      ],
      "transaction": {
        "from": "0xc3ca11bd8e131471904dced927b3fb7edb453179",
        "to": "0x9c9e9fad264089339aad66ff3e32d2ba1ddf6951",
        "gas": "0x12b07",
        "value": "0x0",
        "input": "0xeebd14af0000000000000000000000005d0725add79fed3f0e61851b3c4704148ef9c7ea",
        "nonce": "0xbe",
        "chainId": "0xa869"
      },
      "additionalContracts": [],
      "isFixedGasLimit": false
    },
    {
      "hash": "0xdcdb924777f2dfc3a9375f955f6f6e9904ef1ef54e927dbe766e4fc6834251ae",
      "transactionType": "CALL",
      "contractName": null,
      "contractAddress": "0xe912f7c7a59470a6e3f178388106e3caa9e6fbd1",
      "function": "addTxSender(address)",
      "arguments": [
        "0x5d0725Add79feD3f0E61851b3C4704148Ef9c7eA"
      ],
      "transaction": {
        "from": "0xc3ca11bd8e131471904dced927b3fb7edb453179",
        "to": "0xe912f7c7a59470a6e3f178388106e3caa9e6fbd1",
        "gas": "0x12a8d",
        "value": "0x0",
        "input": "0xeebd14af0000000000000000000000005d0725add79fed3f0e61851b3c4704148ef9c7ea",
        "nonce": "0xbf",
        "chainId": "0xa869"
      },
      "additionalContracts": [],
      "isFixedGasLimit": false
    },
    {
      "hash": "0xdb8443bce7fb932788ee0919fbaf85222aa97bb7eaef28f0b046a59c6eb8aaea",
      "transactionType": "CALL",
      "contractName": null,
      "contractAddress": "0x92228b058f25bc4fb333fa296dddecbddf6496f3",
      "function": "addTxSender(address)",
      "arguments": [
        "0x5d0725Add79feD3f0E61851b3C4704148Ef9c7eA"
      ],
      "transaction": {
        "from": "0xc3ca11bd8e131471904dced927b3fb7edb453179",
        "to": "0x92228b058f25bc4fb333fa296dddecbddf6496f3",
        "gas": "0x12940",
        "value": "0x0",
        "input": "0xeebd14af0000000000000000000000005d0725add79fed3f0e61851b3c4704148ef9c7ea",
        "nonce": "0xc0",
        "chainId": "0xa869"
      },
      "additionalContracts": [],
      "isFixedGasLimit": false
    },
    {
      "hash": "0x4189cc6800bcdf014b3f3389cd645a752f6a0a74f19353db6f819153b1756fc9",
      "transactionType": "CALL",
      "contractName": null,
      "contractAddress": "0x2af842c6517cf30fb3456aef485230e0dd085845",
      "function": "addTxSender(address)",
      "arguments": [
        "0x5d0725Add79feD3f0E61851b3C4704148Ef9c7eA"
      ],
      "transaction": {
        "from": "0xc3ca11bd8e131471904dced927b3fb7edb453179",
        "to": "0x2af842c6517cf30fb3456aef485230e0dd085845",
        "gas": "0x12a14",
        "value": "0x0",
        "input": "0xeebd14af0000000000000000000000005d0725add79fed3f0e61851b3c4704148ef9c7ea",
        "nonce": "0xc1",
        "chainId": "0xa869"
      },
      "additionalContracts": [],
      "isFixedGasLimit": false
    },
    {
      "hash": "0xae2a0096620351c15483458d8fbdfcdcb6cef3ba12cd5f89235cac96aa857513",
      "transactionType": "CALL",
      "contractName": null,
      "contractAddress": "0x2026027054f5bebceb650abd62dc623e327658e7",
      "function": "addTxSender(address)",
      "arguments": [
        "0x5d0725Add79feD3f0E61851b3C4704148Ef9c7eA"
      ],
      "transaction": {
        "from": "0xc3ca11bd8e131471904dced927b3fb7edb453179",
        "to": "0x2026027054f5bebceb650abd62dc623e327658e7",
        "gas": "0x1294d",
        "value": "0x0",
        "input": "0xeebd14af0000000000000000000000005d0725add79fed3f0e61851b3c4704148ef9c7ea",
        "nonce": "0xc2",
        "chainId": "0xa869"
      },
      "additionalContracts": [],
      "isFixedGasLimit": false
    }
  ],
  "receipts": [
    {
      "status": "0x1",
      "cumulativeGasUsed": "0xd7e4",
      "logs": [
        {
          "address": "0x58b610a359c870e0fc941139821a51f5aa23f14e",
          "topics": [
            "0xbfb8b3e2f6221ae729e9cacb0d35f5d9be686ba10cb1d4e34b646bbb87f7a269",
            "0x0000000000000000000000005d0725add79fed3f0e61851b3c4704148ef9c7ea"
          ],
          "data": "0x0000000000000000000000000000000000000000000000000000000000000001",
          "blockHash": "0xe8d507f87af7690a78b39d7988b8e513acca85ff06db15186cea0bf1db01d6e0",
          "blockNumber": "0x2c30594",
          "transactionHash": "0xae04d5c3be4086f898325dac390a695b443aa29d7fe682de1bcb951640fb093a",
          "transactionIndex": "0x0",
          "logIndex": "0x0",
          "removed": false
        }
      ],
      "logsBloom": "0x00000000000010000000000000000000000000000000000000000000000000000000000000000000000000000000000000000020000000000000000000000000000040000000000000000000000000000000000000000000000000000000000000000000000000000000000000000000000000000000000000000002000000000000000000000000000000000000000000000000000000000000000000000000000000000100000000000000000000000000000000000000000000000000000000000000000000000000000000000000000000000000000000000000000008000000000000000000000000080000000000000008000001000000000000000000",
      "type": "0x2",
      "transactionHash": "0xae04d5c3be4086f898325dac390a695b443aa29d7fe682de1bcb951640fb093a",
      "transactionIndex": "0x0",
      "blockHash": "0xe8d507f87af7690a78b39d7988b8e513acca85ff06db15186cea0bf1db01d6e0",
      "blockNumber": "0x2c30594",
      "gasUsed": "0xd7e4",
      "effectiveGasPrice": "0x2",
      "from": "0xc3ca11bd8e131471904dced927b3fb7edb453179",
      "to": "0x58b610a359c870e0fc941139821a51f5aa23f14e",
      "contractAddress": null
    },
    {
      "status": "0x1",
      "cumulativeGasUsed": "0xd7ce",
      "logs": [
        {
          "address": "0x2f925d6512b2bbb00f5a36d8b18e01fcf35f7dc7",
          "topics": [
            "0xbfb8b3e2f6221ae729e9cacb0d35f5d9be686ba10cb1d4e34b646bbb87f7a269",
            "0x0000000000000000000000005d0725add79fed3f0e61851b3c4704148ef9c7ea"
          ],
          "data": "0x0000000000000000000000000000000000000000000000000000000000000001",
          "blockHash": "0xc6487f1a48576963c45be387be4e770689405c397b4715cec99f57fe9ce835f0",
          "blockNumber": "0x2c30596",
          "transactionHash": "0x99f077fe086cc21e2c40564c9fd618c8a67047aa05632a1428b67025b7551085",
          "transactionIndex": "0x0",
          "logIndex": "0x0",
          "removed": false
        }
      ],
      "logsBloom": "0x00000000000000000000000000000000000000000000000000000000000000000000000000000000000000000000000000000020000000000000000000000000000040000000000000000000000000000000000000000000000000000000000000000000000000000000000000000000000000000000000000000002000000000000000400000000000000000000000000000000000000000000000000000000000000000000000000000000000000000000000000000000000000000000004000000000000000000000000000004000000000000000000000000000000008000000000000000000000000000000000000000008000001000000000000000000",
      "type": "0x2",
      "transactionHash": "0x99f077fe086cc21e2c40564c9fd618c8a67047aa05632a1428b67025b7551085",
      "transactionIndex": "0x0",
      "blockHash": "0xc6487f1a48576963c45be387be4e770689405c397b4715cec99f57fe9ce835f0",
      "blockNumber": "0x2c30596",
      "gasUsed": "0xd7ce",
      "effectiveGasPrice": "0x2",
      "from": "0xc3ca11bd8e131471904dced927b3fb7edb453179",
      "to": "0x2f925d6512b2bbb00f5a36d8b18e01fcf35f7dc7",
      "contractAddress": null
    },
    {
      "status": "0x1",
      "cumulativeGasUsed": "0xd87f",
      "logs": [
        {
          "address": "0x9c9e9fad264089339aad66ff3e32d2ba1ddf6951",
          "topics": [
            "0xbfb8b3e2f6221ae729e9cacb0d35f5d9be686ba10cb1d4e34b646bbb87f7a269",
            "0x0000000000000000000000005d0725add79fed3f0e61851b3c4704148ef9c7ea"
          ],
          "data": "0x0000000000000000000000000000000000000000000000000000000000000001",
          "blockHash": "0x123d56e9608c6b4669597b87fa9c3448072f4af80040678f6d504d464c00d018",
          "blockNumber": "0x2c30597",
          "transactionHash": "0x009596ae333a80dbf4efb2eab4549f861a9ed1c188edd944cdccf13eed8aba70",
          "transactionIndex": "0x0",
          "logIndex": "0x0",
          "removed": false
        }
      ],
      "logsBloom": "0x0000000000000000000000000000000000000000000000000000000000000000000000000000000000000000000000000000002000000000000000000000000000004000000000000000000000000000000000000000000000000000000000000000000000000000000000000000000000000000000000000000000200000000000000000000000000000000000000000000000000000000000000000000000000000000000000000000000000000000000000000000000000000000000000000000000000000000000000080000000000000000000000000000000000000a000000400000000000000000000000000000000008000001000000000000000000",
      "type": "0x2",
      "transactionHash": "0x009596ae333a80dbf4efb2eab4549f861a9ed1c188edd944cdccf13eed8aba70",
      "transactionIndex": "0x0",
      "blockHash": "0x123d56e9608c6b4669597b87fa9c3448072f4af80040678f6d504d464c00d018",
      "blockNumber": "0x2c30597",
      "gasUsed": "0xd87f",
      "effectiveGasPrice": "0x2",
      "from": "0xc3ca11bd8e131471904dced927b3fb7edb453179",
      "to": "0x9c9e9fad264089339aad66ff3e32d2ba1ddf6951",
      "contractAddress": null
    },
    {
      "status": "0x1",
      "cumulativeGasUsed": "0x63d88",
      "logs": [
        {
          "address": "0xe912f7c7a59470a6e3f178388106e3caa9e6fbd1",
          "topics": [
            "0xbfb8b3e2f6221ae729e9cacb0d35f5d9be686ba10cb1d4e34b646bbb87f7a269",
            "0x0000000000000000000000005d0725add79fed3f0e61851b3c4704148ef9c7ea"
          ],
          "data": "0x0000000000000000000000000000000000000000000000000000000000000001",
          "blockHash": "0x3f4de0186bc06415457a976b449b04fb5975bf05cc0f296c752084949de4d360",
          "blockNumber": "0x2c30599",
          "transactionHash": "0xdcdb924777f2dfc3a9375f955f6f6e9904ef1ef54e927dbe766e4fc6834251ae",
          "transactionIndex": "0x2",
          "logIndex": "0x5",
          "removed": false
        }
      ],
      "logsBloom": "0x00000000000000000000000000000000000000000000000000000000000004000000000000000000000000000000000000000020000000000000000000000000000040020000000000010000000000000000000000000000000000000000000000000000000000000000000000000000000000000000000000000002000000000000000000000000000000000000000000000000000000000000000000000000000000000000000000000000000000000000000000000000000000000000000000000000000000000000000000000000000000000000000000000000000008000000000000000000000000000000000000000008000001000000000000000000",
      "type": "0x2",
      "transactionHash": "0xdcdb924777f2dfc3a9375f955f6f6e9904ef1ef54e927dbe766e4fc6834251ae",
      "transactionIndex": "0x2",
      "blockHash": "0x3f4de0186bc06415457a976b449b04fb5975bf05cc0f296c752084949de4d360",
      "blockNumber": "0x2c30599",
      "gasUsed": "0xd826",
      "effectiveGasPrice": "0x2",
      "from": "0xc3ca11bd8e131471904dced927b3fb7edb453179",
      "to": "0xe912f7c7a59470a6e3f178388106e3caa9e6fbd1",
      "contractAddress": null
    },
    {
      "status": "0x1",
      "cumulativeGasUsed": "0xd735",
      "logs": [
        {
          "address": "0x92228b058f25bc4fb333fa296dddecbddf6496f3",
          "topics": [
            "0xbfb8b3e2f6221ae729e9cacb0d35f5d9be686ba10cb1d4e34b646bbb87f7a269",
            "0x0000000000000000000000005d0725add79fed3f0e61851b3c4704148ef9c7ea"
          ],
          "data": "0x0000000000000000000000000000000000000000000000000000000000000001",
          "blockHash": "0x43918a57b7f3e3b2bf856fa81577ad7631ffaa67b3f9761fde317e6af2f6c818",
          "blockNumber": "0x2c3059a",
          "transactionHash": "0xdb8443bce7fb932788ee0919fbaf85222aa97bb7eaef28f0b046a59c6eb8aaea",
          "transactionIndex": "0x0",
          "logIndex": "0x0",
          "removed": false
        }
      ],
      "logsBloom": "0x00000000000000000000000000000000000000000000000000000000000000000000000000000000000000000000000000000020000000000000000000000000000040000000000000000000000000000000000000000000000000000000000000000000000000000000000000000000000000000000000000000002000000000000000000000000000000000000000000000000000000008010000000000000000000000000000000000000000000000000000000000000000000000000000000000000002000000000000000000000000000000000000000000000000008000000000000000000000000000000000000000008000001000000000000000000",
      "type": "0x2",
      "transactionHash": "0xdb8443bce7fb932788ee0919fbaf85222aa97bb7eaef28f0b046a59c6eb8aaea",
      "transactionIndex": "0x0",
      "blockHash": "0x43918a57b7f3e3b2bf856fa81577ad7631ffaa67b3f9761fde317e6af2f6c818",
      "blockNumber": "0x2c3059a",
      "gasUsed": "0xd735",
      "effectiveGasPrice": "0x2",
      "from": "0xc3ca11bd8e131471904dced927b3fb7edb453179",
      "to": "0x92228b058f25bc4fb333fa296dddecbddf6496f3",
      "contractAddress": null
    },
    {
      "status": "0x1",
      "cumulativeGasUsed": "0xd7cf",
      "logs": [
        {
          "address": "0x2af842c6517cf30fb3456aef485230e0dd085845",
          "topics": [
            "0xbfb8b3e2f6221ae729e9cacb0d35f5d9be686ba10cb1d4e34b646bbb87f7a269",
            "0x0000000000000000000000005d0725add79fed3f0e61851b3c4704148ef9c7ea"
          ],
          "data": "0x0000000000000000000000000000000000000000000000000000000000000001",
          "blockHash": "0xe1981ca7f0e0b87b4319366ed1551abfda086da8360ce730802f80bd29b42429",
          "blockNumber": "0x2c3059c",
          "transactionHash": "0x4189cc6800bcdf014b3f3389cd645a752f6a0a74f19353db6f819153b1756fc9",
          "transactionIndex": "0x0",
          "logIndex": "0x0",
          "removed": false
        }
      ],
      "logsBloom": "0x00000000000000000000000000000000000000000000000000000000000000000000000000000000000000000000000000000020000000000000000000000000000040000000800000000000000000000000000000000000000000000000000000000000000000000000000000000000000000000000000000000002000000000000000000000000000000000000000000000000000000000000000000000000000000004000000000000000000000000000000000000000000000000000000000000000000000000000000000000000000000000000000000000200000008000000000000000000000000000000000000000008000001000000000000000000",
      "type": "0x2",
      "transactionHash": "0x4189cc6800bcdf014b3f3389cd645a752f6a0a74f19353db6f819153b1756fc9",
      "transactionIndex": "0x0",
      "blockHash": "0xe1981ca7f0e0b87b4319366ed1551abfda086da8360ce730802f80bd29b42429",
      "blockNumber": "0x2c3059c",
      "gasUsed": "0xd7cf",
      "effectiveGasPrice": "0x2",
      "from": "0xc3ca11bd8e131471904dced927b3fb7edb453179",
      "to": "0x2af842c6517cf30fb3456aef485230e0dd085845",
      "contractAddress": null
    },
    {
      "status": "0x1",
      "cumulativeGasUsed": "0xd73f",
      "logs": [
        {
          "address": "0x2026027054f5bebceb650abd62dc623e327658e7",
          "topics": [
            "0xbfb8b3e2f6221ae729e9cacb0d35f5d9be686ba10cb1d4e34b646bbb87f7a269",
            "0x0000000000000000000000005d0725add79fed3f0e61851b3c4704148ef9c7ea"
          ],
          "data": "0x0000000000000000000000000000000000000000000000000000000000000001",
          "blockHash": "0x51b655bdb304ca1f04addc9fa26d8d491928450c2bab5911b55fca0ceac3909e",
          "blockNumber": "0x2c3059e",
          "transactionHash": "0xae2a0096620351c15483458d8fbdfcdcb6cef3ba12cd5f89235cac96aa857513",
          "transactionIndex": "0x0",
          "logIndex": "0x0",
          "removed": false
        }
      ],
      "logsBloom": "0x00000000000000000000000000000000000000000000000000000000000000000000000000800000000000000000000000000020000000000000000000000200000040000000000000000000000000000000000000000000000000000000000000000000000000000000000000000000000000000000000000000002000000000020000000000000000000000000000000000000000000000000000000000000000000000000000000000000000000000000000000000000000000000000000000000000000000000000000000000000000000000000000000000000000008000000000000000000000000000000000000000008000001000000000000000000",
      "type": "0x2",
      "transactionHash": "0xae2a0096620351c15483458d8fbdfcdcb6cef3ba12cd5f89235cac96aa857513",
      "transactionIndex": "0x0",
      "blockHash": "0x51b655bdb304ca1f04addc9fa26d8d491928450c2bab5911b55fca0ceac3909e",
      "blockNumber": "0x2c3059e",
      "gasUsed": "0xd73f",
      "effectiveGasPrice": "0x2",
      "from": "0xc3ca11bd8e131471904dced927b3fb7edb453179",
      "to": "0x2026027054f5bebceb650abd62dc623e327658e7",
      "contractAddress": null
    }
  ],
  "libraries": [],
  "pending": [],
  "returns": {},
  "timestamp": 1758801839402,
  "chain": 43113,
  "commit": "9b3cda6"
}