{
  "transactions": [
    {
      "hash": "0x5945573ebe038398bf2518484f48775dd26d6e811ac32c15a4821699f026c69a",
      "transactionType": "CALL",
      "contractName": null,
      "contractAddress": "0x58b610a359c870e0fc941139821a51f5aa23f14e",
      "function": "addTxSender(address)",
      "arguments": [
        "0xa0CDAc76fA51aa65402137e3FA5357432Af02e02"
      ],
      "transaction": {
        "from": "0xc3ca11bd8e131471904dced927b3fb7edb453179",
        "to": "0x58b610a359c870e0fc941139821a51f5aa23f14e",
        "gas": "0x12a32",
        "value": "0x0",
        "input": "0xeebd14af000000000000000000000000a0cdac76fa51aa65402137e3fa5357432af02e02",
        "nonce": "0xae",
        "chainId": "0xa869"
      },
      "additionalContracts": [],
      "isFixedGasLimit": false
    },
    {
      "hash": "0x667a87c85b1b2ced07ebf815e3dcfe3f10eac07d6107a751ff348377a1fffa7c",
      "transactionType": "CALL",
      "contractName": null,
      "contractAddress": "0x2f925d6512b2bbb00f5a36d8b18e01fcf35f7dc7",
      "function": "addTxSender(address)",
      "arguments": [
        "0xa0CDAc76fA51aa65402137e3FA5357432Af02e02"
      ],
      "transaction": {
        "from": "0xc3ca11bd8e131471904dced927b3fb7edb453179",
        "to": "0x2f925d6512b2bbb00f5a36d8b18e01fcf35f7dc7",
        "gas": "0x12a13",
        "value": "0x0",
        "input": "0xeebd14af000000000000000000000000a0cdac76fa51aa65402137e3fa5357432af02e02",
        "nonce": "0xaf",
        "chainId": "0xa869"
      },
      "additionalContracts": [],
      "isFixedGasLimit": false
    },
    {
      "hash": "0xb4e8260b9acd94d0bef88c0f5cce8870b72b2eaf1f7d1009d513a2f476c7d563",
      "transactionType": "CALL",
      "contractName": null,
      "contractAddress": "0x9c9e9fad264089339aad66ff3e32d2ba1ddf6951",
      "function": "addTxSender(address)",
      "arguments": [
        "0xa0CDAc76fA51aa65402137e3FA5357432Af02e02"
      ],
      "transaction": {
        "from": "0xc3ca11bd8e131471904dced927b3fb7edb453179",
        "to": "0x9c9e9fad264089339aad66ff3e32d2ba1ddf6951",
        "gas": "0x12b07",
        "value": "0x0",
        "input": "0xeebd14af000000000000000000000000a0cdac76fa51aa65402137e3fa5357432af02e02",
        "nonce": "0xb0",
        "chainId": "0xa869"
      },
      "additionalContracts": [],
      "isFixedGasLimit": false
    },
    {
      "hash": "0x614935393fb7f26fe9d943041094119002a97ab8903a11506e2f02335c1a7310",
      "transactionType": "CALL",
      "contractName": null,
      "contractAddress": "0xe912f7c7a59470a6e3f178388106e3caa9e6fbd1",
      "function": "addTxSender(address)",
      "arguments": [
        "0xa0CDAc76fA51aa65402137e3FA5357432Af02e02"
      ],
      "transaction": {
        "from": "0xc3ca11bd8e131471904dced927b3fb7edb453179",
        "to": "0xe912f7c7a59470a6e3f178388106e3caa9e6fbd1",
        "gas": "0x12a8d",
        "value": "0x0",
        "input": "0xeebd14af000000000000000000000000a0cdac76fa51aa65402137e3fa5357432af02e02",
        "nonce": "0xb1",
        "chainId": "0xa869"
      },
      "additionalContracts": [],
      "isFixedGasLimit": false
    },
    {
      "hash": "0xbf5048b4fe9c46c35708c6b75703f37234f28213ffff33ad17131ae747bb5eb0",
      "transactionType": "CALL",
      "contractName": null,
      "contractAddress": "0x92228b058f25bc4fb333fa296dddecbddf6496f3",
      "function": "addTxSender(address)",
      "arguments": [
        "0xa0CDAc76fA51aa65402137e3FA5357432Af02e02"
      ],
      "transaction": {
        "from": "0xc3ca11bd8e131471904dced927b3fb7edb453179",
        "to": "0x92228b058f25bc4fb333fa296dddecbddf6496f3",
        "gas": "0x12940",
        "value": "0x0",
        "input": "0xeebd14af000000000000000000000000a0cdac76fa51aa65402137e3fa5357432af02e02",
        "nonce": "0xb2",
        "chainId": "0xa869"
      },
      "additionalContracts": [],
      "isFixedGasLimit": false
    },
    {
      "hash": "0xf908b8c0b35b09f52011499a57d338433a9019bf2da646654ab44959c1b6fb66",
      "transactionType": "CALL",
      "contractName": null,
      "contractAddress": "0x2af842c6517cf30fb3456aef485230e0dd085845",
      "function": "addTxSender(address)",
      "arguments": [
        "0xa0CDAc76fA51aa65402137e3FA5357432Af02e02"
      ],
      "transaction": {
        "from": "0xc3ca11bd8e131471904dced927b3fb7edb453179",
        "to": "0x2af842c6517cf30fb3456aef485230e0dd085845",
        "gas": "0x12a14",
        "value": "0x0",
        "input": "0xeebd14af000000000000000000000000a0cdac76fa51aa65402137e3fa5357432af02e02",
        "nonce": "0xb3",
        "chainId": "0xa869"
      },
      "additionalContracts": [],
      "isFixedGasLimit": false
    },
    {
      "hash": "0x9722f1b3910f60dbdc219d1fac719f8fe00ff346d2615fb30dee1c1742d478e4",
      "transactionType": "CALL",
      "contractName": null,
      "contractAddress": "0x2026027054f5bebceb650abd62dc623e327658e7",
      "function": "addTxSender(address)",
      "arguments": [
        "0xa0CDAc76fA51aa65402137e3FA5357432Af02e02"
      ],
      "transaction": {
        "from": "0xc3ca11bd8e131471904dced927b3fb7edb453179",
        "to": "0x2026027054f5bebceb650abd62dc623e327658e7",
        "gas": "0x1294d",
        "value": "0x0",
        "input": "0xeebd14af000000000000000000000000a0cdac76fa51aa65402137e3fa5357432af02e02",
        "nonce": "0xb4",
        "chainId": "0xa869"
      },
      "additionalContracts": [],
      "isFixedGasLimit": false
    }
  ],
  "receipts": [
    {
      "status": "0x1",
      "cumulativeGasUsed": "0xd7e4",
      "logs": [
        {
          "address": "0x58b610a359c870e0fc941139821a51f5aa23f14e",
          "topics": [
            "0xbfb8b3e2f6221ae729e9cacb0d35f5d9be686ba10cb1d4e34b646bbb87f7a269",
            "0x000000000000000000000000a0cdac76fa51aa65402137e3fa5357432af02e02"
          ],
          "data": "0x0000000000000000000000000000000000000000000000000000000000000001",
          "blockHash": "0x3cb092a3806becaabcf02ffad3e83e1d04531e375c471922f13cd6527651864a",
          "blockNumber": "0x2c29eee",
          "transactionHash": "0x5945573ebe038398bf2518484f48775dd26d6e811ac32c15a4821699f026c69a",
          "transactionIndex": "0x0",
          "logIndex": "0x0",
          "removed": false
        }
      ],
      "logsBloom": "0x00000000000010000000000000800000000000000000000000000000000000000000000000000000000000000000000000000020000000000000000000000000000040000000000000000000000000000000000000000000000000000000000000000000000000000000000000000000020000000000000000000002000000000000000000000000000000000000000000000000000000000000000000000000000000000100000000000000000000000000000000000000000000000000000000000000000000000000000000000000000000000000000000000000000000000000000000010000000000080000000000000000000000000000000000000000",
      "type": "0x2",
      "transactionHash": "0x5945573ebe038398bf2518484f48775dd26d6e811ac32c15a4821699f026c69a",
      "transactionIndex": "0x0",
      "blockHash": "0x3cb092a3806becaabcf02ffad3e83e1d04531e375c471922f13cd6527651864a",
      "blockNumber": "0x2c29eee",
      "gasUsed": "0xd7e4",
      "effectiveGasPrice": "0x2",
      "from": "0xc3ca11bd8e131471904dced927b3fb7edb453179",
      "to": "0x58b610a359c870e0fc941139821a51f5aa23f14e",
      "contractAddress": null
    },
    {
      "status": "0x1",
      "cumulativeGasUsed": "0x20f8d",
      "logs": [
        {
          "address": "0x2f925d6512b2bbb00f5a36d8b18e01fcf35f7dc7",
          "topics": [
            "0xbfb8b3e2f6221ae729e9cacb0d35f5d9be686ba10cb1d4e34b646bbb87f7a269",
            "0x000000000000000000000000a0cdac76fa51aa65402137e3fa5357432af02e02"
          ],
          "data": "0x0000000000000000000000000000000000000000000000000000000000000001",
          "blockHash": "0x2233db2c317acd3fbc8cf57bc6e1a02ea56c2e644c0577c466dac0523fa241e0",
          "blockNumber": "0x2c29ef0",
          "transactionHash": "0x667a87c85b1b2ced07ebf815e3dcfe3f10eac07d6107a751ff348377a1fffa7c",
          "transactionIndex": "0x1",
          "logIndex": "0x5",
          "removed": false
        }
      ],
      "logsBloom": "0x00000000000000000000000000800000000000000000000000000000000000000000000000000000000000000000000000000020000000000000000000000000000040000000000000000000000000000000000000000000000000000000000000000000000000000000000000000000020000000000000000000002000000000000000400000000000000000000000000000000000000000000000000000000000000000000000000000000000000000000000000000000000000000000004000000000000000000000000000004000000000000000000000000000000000000000000000010000000000000000000000000000000000000000000000000000",
      "type": "0x2",
      "transactionHash": "0x667a87c85b1b2ced07ebf815e3dcfe3f10eac07d6107a751ff348377a1fffa7c",
      "transactionIndex": "0x1",
      "blockHash": "0x2233db2c317acd3fbc8cf57bc6e1a02ea56c2e644c0577c466dac0523fa241e0",
      "blockNumber": "0x2c29ef0",
      "gasUsed": "0xd7ce",
      "effectiveGasPrice": "0x2",
      "from": "0xc3ca11bd8e131471904dced927b3fb7edb453179",
      "to": "0x2f925d6512b2bbb00f5a36d8b18e01fcf35f7dc7",
      "contractAddress": null
    },
    {
      "status": "0x1",
      "cumulativeGasUsed": "0x220cd",
      "logs": [
        {
          "address": "0x9c9e9fad264089339aad66ff3e32d2ba1ddf6951",
          "topics": [
            "0xbfb8b3e2f6221ae729e9cacb0d35f5d9be686ba10cb1d4e34b646bbb87f7a269",
            "0x000000000000000000000000a0cdac76fa51aa65402137e3fa5357432af02e02"
          ],
          "data": "0x0000000000000000000000000000000000000000000000000000000000000001",
          "blockHash": "0xb5746b51bd6d198948e15b9370954b63dce87793cb4030b73238a39773a1d518",
          "blockNumber": "0x2c29ef1",
          "transactionHash": "0xb4e8260b9acd94d0bef88c0f5cce8870b72b2eaf1f7d1009d513a2f476c7d563",
          "transactionIndex": "0x2",
          "logIndex": "0x0",
          "removed": false
        }
      ],
      "logsBloom": "0x00000000000000000000000000800000000000000000000000000000000000000000000000000000000000000000000000000020000000000000000000000000000040000000000000000000000000000000000000000000000000000000000000000000000000000000000000000000020000000000000000000002000000000000000000000000000000000000000000000000000000000000000000000000000000000000000000000000000000000000000000000000000000000000000000000000000000000000000800000000000000000000000000000000000002000000400000010000000000000000000000000000000000000000000000000000",
      "type": "0x2",
      "transactionHash": "0xb4e8260b9acd94d0bef88c0f5cce8870b72b2eaf1f7d1009d513a2f476c7d563",
      "transactionIndex": "0x2",
      "blockHash": "0xb5746b51bd6d198948e15b9370954b63dce87793cb4030b73238a39773a1d518",
      "blockNumber": "0x2c29ef1",
      "gasUsed": "0xd87f",
      "effectiveGasPrice": "0x2",
      "from": "0xc3ca11bd8e131471904dced927b3fb7edb453179",
      "to": "0x9c9e9fad264089339aad66ff3e32d2ba1ddf6951",
      "contractAddress": null
    },
    {
      "status": "0x1",
      "cumulativeGasUsed": "0x21a02",
      "logs": [
        {
          "address": "0xe912f7c7a59470a6e3f178388106e3caa9e6fbd1",
          "topics": [
            "0xbfb8b3e2f6221ae729e9cacb0d35f5d9be686ba10cb1d4e34b646bbb87f7a269",
            "0x000000000000000000000000a0cdac76fa51aa65402137e3fa5357432af02e02"
          ],
          "data": "0x0000000000000000000000000000000000000000000000000000000000000001",
          "blockHash": "0xe20cb0cbaea86317d83f2569708d71b4c1e8bb0b959d94cd8ac7dcb1009f15dc",
          "blockNumber": "0x2c29ef4",
          "transactionHash": "0x614935393fb7f26fe9d943041094119002a97ab8903a11506e2f02335c1a7310",
          "transactionIndex": "0x1",
          "logIndex": "0x5",
          "removed": false
        }
      ],
      "logsBloom": "0x00000000000000000000000000800000000000000000000000000000000004000000000000000000000000000000000000000020000000000000000000000000000040020000000000010000000000000000000000000000000000000000000000000000000000000000000000000000020000000000000000000002000000000000000000000000000000000000000000000000000000000000000000000000000000000000000000000000000000000000000000000000000000000000000000000000000000000000000000000000000000000000000000000000000000000000000000010000000000000000000000000000000000000000000000000000",
      "type": "0x2",
      "transactionHash": "0x614935393fb7f26fe9d943041094119002a97ab8903a11506e2f02335c1a7310",
      "transactionIndex": "0x1",
      "blockHash": "0xe20cb0cbaea86317d83f2569708d71b4c1e8bb0b959d94cd8ac7dcb1009f15dc",
      "blockNumber": "0x2c29ef4",
      "gasUsed": "0xd826",
      "effectiveGasPrice": "0x2",
      "from": "0xc3ca11bd8e131471904dced927b3fb7edb453179",
      "to": "0xe912f7c7a59470a6e3f178388106e3caa9e6fbd1",
      "contractAddress": null
    },
    {
      "status": "0x1",
      "cumulativeGasUsed": "0x2285d",
      "logs": [
        {
          "address": "0x92228b058f25bc4fb333fa296dddecbddf6496f3",
          "topics": [
            "0xbfb8b3e2f6221ae729e9cacb0d35f5d9be686ba10cb1d4e34b646bbb87f7a269",
            "0x000000000000000000000000a0cdac76fa51aa65402137e3fa5357432af02e02"
          ],
          "data": "0x0000000000000000000000000000000000000000000000000000000000000001",
          "blockHash": "0xdf1315e9f2892695afa6e0afe5ee0095bd65639ac6a881d67a4dc717b470a55d",
          "blockNumber": "0x2c29ef6",
          "transactionHash": "0xbf5048b4fe9c46c35708c6b75703f37234f28213ffff33ad17131ae747bb5eb0",
          "transactionIndex": "0x1",
          "logIndex": "0x3",
          "removed": false
        }
      ],
      "logsBloom": "0x00000000000000000000000000800000000000000000000000000000000000000000000000000000000000000000000000000020000000000000000000000000000040000000000000000000000000000000000000000000000000000000000000000000000000000000000000000000020000000000000000000002000000000000000000000000000000000000000000000000000000008010000000000000000000000000000000000000000000000000000000000000000000000000000000000000002000000000000000000000000000000000000000000000000000000000000000010000000000000000000000000000000000000000000000000000",
      "type": "0x2",
      "transactionHash": "0xbf5048b4fe9c46c35708c6b75703f37234f28213ffff33ad17131ae747bb5eb0",
      "transactionIndex": "0x1",
      "blockHash": "0xdf1315e9f2892695afa6e0afe5ee0095bd65639ac6a881d67a4dc717b470a55d",
      "blockNumber": "0x2c29ef6",
      "gasUsed": "0xd735",
      "effectiveGasPrice": "0x2",
      "from": "0xc3ca11bd8e131471904dced927b3fb7edb453179",
      "to": "0x92228b058f25bc4fb333fa296dddecbddf6496f3",
      "contractAddress": null
    },
    {
      "status": "0x1",
      "cumulativeGasUsed": "0x5ec83",
      "logs": [
        {
          "address": "0x2af842c6517cf30fb3456aef485230e0dd085845",
          "topics": [
            "0xbfb8b3e2f6221ae729e9cacb0d35f5d9be686ba10cb1d4e34b646bbb87f7a269",
            "0x000000000000000000000000a0cdac76fa51aa65402137e3fa5357432af02e02"
          ],
          "data": "0x0000000000000000000000000000000000000000000000000000000000000001",
          "blockHash": "0xf9c83393592ad006b39087e666a4e58aa3106f3cebfb1176956b1040c26d9e99",
          "blockNumber": "0x2c29ef8",
          "transactionHash": "0xf908b8c0b35b09f52011499a57d338433a9019bf2da646654ab44959c1b6fb66",
          "transactionIndex": "0x1",
          "logIndex": "0x6",
          "removed": false
        }
      ],
      "logsBloom": "0x00000000000000000000000000800000000000000000000000000000000000000000000000000000000000000000000000000020000000000000000000000000000040000000800000000000000000000000000000000000000000000000000000000000000000000000000000000000020000000000000000000002000000000000000000000000000000000000000000000000000000000000000000000000000000004000000000000000000000000000000000000000000000000000000000000000000000000000000000000000000000000000000000000200000000000000000000010000000000000000000000000000000000000000000000000000",
      "type": "0x2",
      "transactionHash": "0xf908b8c0b35b09f52011499a57d338433a9019bf2da646654ab44959c1b6fb66",
      "transactionIndex": "0x1",
      "blockHash": "0xf9c83393592ad006b39087e666a4e58aa3106f3cebfb1176956b1040c26d9e99",
      "blockNumber": "0x2c29ef8",
      "gasUsed": "0xd7cf",
      "effectiveGasPrice": "0x2",
      "from": "0xc3ca11bd8e131471904dced927b3fb7edb453179",
      "to": "0x2af842c6517cf30fb3456aef485230e0dd085845",
      "contractAddress": null
    },
    {
      "status": "0x1",
      "cumulativeGasUsed": "0x2bf04",
      "logs": [
        {
          "address": "0x2026027054f5bebceb650abd62dc623e327658e7",
          "topics": [
            "0xbfb8b3e2f6221ae729e9cacb0d35f5d9be686ba10cb1d4e34b646bbb87f7a269",
            "0x000000000000000000000000a0cdac76fa51aa65402137e3fa5357432af02e02"
          ],
          "data": "0x0000000000000000000000000000000000000000000000000000000000000001",
          "blockHash": "0x0c0747e6bc49a6dbd37d7b9dd99e39202c6e9c2e226e4d3c195a81a2211916a8",
          "blockNumber": "0x2c29efa",
          "transactionHash": "0x9722f1b3910f60dbdc219d1fac719f8fe00ff346d2615fb30dee1c1742d478e4",
          "transactionIndex": "0x1",
          "logIndex": "0x3",
          "removed": false
        }
      ],
      "logsBloom": "0x00000000000000000000000000800000000000000000000000000000000000000000000000800000000000000000000000000020000000000000000000000200000040000000000000000000000000000000000000000000000000000000000000000000000000000000000000000000020000000000000000000002000000000020000000000000000000000000000000000000000000000000000000000000000000000000000000000000000000000000000000000000000000000000000000000000000000000000000000000000000000000000000000000000000000000000000000010000000000000000000000000000000000000000000000000000",
      "type": "0x2",
      "transactionHash": "0x9722f1b3910f60dbdc219d1fac719f8fe00ff346d2615fb30dee1c1742d478e4",
      "transactionIndex": "0x1",
      "blockHash": "0x0c0747e6bc49a6dbd37d7b9dd99e39202c6e9c2e226e4d3c195a81a2211916a8",
      "blockNumber": "0x2c29efa",
      "gasUsed": "0xd73f",
      "effectiveGasPrice": "0x2",
      "from": "0xc3ca11bd8e131471904dced927b3fb7edb453179",
      "to": "0x2026027054f5bebceb650abd62dc623e327658e7",
      "contractAddress": null
    }
  ],
  "libraries": [],
  "pending": [],
  "returns": {},
  "timestamp": 1758738994908,
  "chain": 43113,
  "commit": "9b3cda6"
}