{
  "transactions": [
    {
      "hash": "0x0efe66351402e317cda5d182bf27bc8d6baa1d0559918c3e3c61d33bdd4c9ee1",
      "transactionType": "CALL",
      "contractName": null,
      "contractAddress": "0x58b610a359c870e0fc941139821a51f5aa23f14e",
      "function": "addTxSender(address)",
      "arguments": [
        "0x0c6235c04eF4Fa5013A58afb22967a068810C929"
      ],
      "transaction": {
        "from": "0xc3ca11bd8e131471904dced927b3fb7edb453179",
        "to": "0x58b610a359c870e0fc941139821a51f5aa23f14e",
        "gas": "0x12a32",
        "value": "0x0",
        "input": "0xeebd14af0000000000000000000000000c6235c04ef4fa5013a58afb22967a068810c929",
        "nonce": "0x59",
        "chainId": "0xaa36a7"
      },
      "additionalContracts": [],
      "isFixedGasLimit": false
    },
    {
      "hash": "0xc7b60252179ca75209bbcf3fe9ac58c27cd3348a43bcf34f2091c25a6d635a94",
      "transactionType": "CALL",
      "contractName": null,
      "contractAddress": "0x2f925d6512b2bbb00f5a36d8b18e01fcf35f7dc7",
      "function": "addTxSender(address)",
      "arguments": [
        "0x0c6235c04eF4Fa5013A58afb22967a068810C929"
      ],
      "transaction": {
        "from": "0xc3ca11bd8e131471904dced927b3fb7edb453179",
        "to": "0x2f925d6512b2bbb00f5a36d8b18e01fcf35f7dc7",
        "gas": "0x12a13",
        "value": "0x0",
        "input": "0xeebd14af0000000000000000000000000c6235c04ef4fa5013a58afb22967a068810c929",
        "nonce": "0x5a",
        "chainId": "0xaa36a7"
      },
      "additionalContracts": [],
      "isFixedGasLimit": false
    },
    {
      "hash": "0x249b749f4aca7222df4959cc29a2901ef0be62c03f9b746f1ddb3c48e386522d",
      "transactionType": "CALL",
      "contractName": null,
      "contractAddress": "0x9c9e9fad264089339aad66ff3e32d2ba1ddf6951",
      "function": "addTxSender(address)",
      "arguments": [
        "0x0c6235c04eF4Fa5013A58afb22967a068810C929"
      ],
      "transaction": {
        "from": "0xc3ca11bd8e131471904dced927b3fb7edb453179",
        "to": "0x9c9e9fad264089339aad66ff3e32d2ba1ddf6951",
        "gas": "0x12b07",
        "value": "0x0",
        "input": "0xeebd14af0000000000000000000000000c6235c04ef4fa5013a58afb22967a068810c929",
        "nonce": "0x5b",
        "chainId": "0xaa36a7"
      },
      "additionalContracts": [],
      "isFixedGasLimit": false
    },
    {
      "hash": "0x887954a631c8c44f948d5eeebd19268e1ac84eb8c7af6520772ee73146915f3c",
      "transactionType": "CALL",
      "contractName": null,
      "contractAddress": "0xe912f7c7a59470a6e3f178388106e3caa9e6fbd1",
      "function": "addTxSender(address)",
      "arguments": [
        "0x0c6235c04eF4Fa5013A58afb22967a068810C929"
      ],
      "transaction": {
        "from": "0xc3ca11bd8e131471904dced927b3fb7edb453179",
        "to": "0xe912f7c7a59470a6e3f178388106e3caa9e6fbd1",
        "gas": "0x12a8d",
        "value": "0x0",
        "input": "0xeebd14af0000000000000000000000000c6235c04ef4fa5013a58afb22967a068810c929",
        "nonce": "0x5c",
        "chainId": "0xaa36a7"
      },
      "additionalContracts": [],
      "isFixedGasLimit": false
    },
    {
      "hash": "0x1f049b038e82d89de791c50560ef189e4a132529a410fbd132659b18d66bb09b",
      "transactionType": "CALL",
      "contractName": null,
      "contractAddress": "0x92228b058f25bc4fb333fa296dddecbddf6496f3",
      "function": "addTxSender(address)",
      "arguments": [
        "0x0c6235c04eF4Fa5013A58afb22967a068810C929"
      ],
      "transaction": {
        "from": "0xc3ca11bd8e131471904dced927b3fb7edb453179",
        "to": "0x92228b058f25bc4fb333fa296dddecbddf6496f3",
        "gas": "0x12940",
        "value": "0x0",
        "input": "0xeebd14af0000000000000000000000000c6235c04ef4fa5013a58afb22967a068810c929",
        "nonce": "0x5d",
        "chainId": "0xaa36a7"
      },
      "additionalContracts": [],
      "isFixedGasLimit": false
    },
    {
      "hash": "0x9d1ef0e6bf08854bbcc340b24ed2d563eab2762046ec94f8204ce1ddb94f4d46",
      "transactionType": "CALL",
      "contractName": null,
      "contractAddress": "0x2af842c6517cf30fb3456aef485230e0dd085845",
      "function": "addTxSender(address)",
      "arguments": [
        "0x0c6235c04eF4Fa5013A58afb22967a068810C929"
      ],
      "transaction": {
        "from": "0xc3ca11bd8e131471904dced927b3fb7edb453179",
        "to": "0x2af842c6517cf30fb3456aef485230e0dd085845",
        "gas": "0x12a14",
        "value": "0x0",
        "input": "0xeebd14af0000000000000000000000000c6235c04ef4fa5013a58afb22967a068810c929",
        "nonce": "0x5e",
        "chainId": "0xaa36a7"
      },
      "additionalContracts": [],
      "isFixedGasLimit": false
    },
    {
      "hash": "0x0ffc18244879f423a8fe2a7cd751f6bf4bf945365ea80a7d0357f7b55b8d9381",
      "transactionType": "CALL",
      "contractName": null,
      "contractAddress": "0x2026027054f5bebceb650abd62dc623e327658e7",
      "function": "addTxSender(address)",
      "arguments": [
        "0x0c6235c04eF4Fa5013A58afb22967a068810C929"
      ],
      "transaction": {
        "from": "0xc3ca11bd8e131471904dced927b3fb7edb453179",
        "to": "0x2026027054f5bebceb650abd62dc623e327658e7",
        "gas": "0x1294d",
        "value": "0x0",
        "input": "0xeebd14af0000000000000000000000000c6235c04ef4fa5013a58afb22967a068810c929",
        "nonce": "0x5f",
        "chainId": "0xaa36a7"
      },
      "additionalContracts": [],
      "isFixedGasLimit": false
    }
  ],
  "receipts": [
    {
      "status": "0x1",
      "cumulativeGasUsed": "0xccd9bc",
      "logs": [
        {
          "address": "0x58b610a359c870e0fc941139821a51f5aa23f14e",
          "topics": [
            "0xbfb8b3e2f6221ae729e9cacb0d35f5d9be686ba10cb1d4e34b646bbb87f7a269",
            "0x0000000000000000000000000c6235c04ef4fa5013a58afb22967a068810c929"
          ],
          "data": "0x0000000000000000000000000000000000000000000000000000000000000001",
          "blockHash": "0x9accdf6ad705603f112337f302111bd9d933185590385287fd2f6be0119b143e",
          "blockNumber": "0x8931af",
          "transactionHash": "0x0efe66351402e317cda5d182bf27bc8d6baa1d0559918c3e3c61d33bdd4c9ee1",
          "transactionIndex": "0x80",
          "logIndex": "0xfe",
          "removed": false
        }
      ],
      "logsBloom": "0x00000000000010000000000000000000000000000000000000000000000000000000000000000080000000000000000020000020000000000000000000000000000040000000000000000000000000000000000000000000000000000000000000000000000000000000000000000000000000000000000000000002000000000000000000000000000000000000000000000000000000000000000000000000000000000100000000000000000000000000000000000000000000000000000000000000000000000000000000000000000000000000000000000000000000000000200000000000000000080000000000000000000000000000000000000000",
      "type": "0x2",
      "transactionHash": "0x0efe66351402e317cda5d182bf27bc8d6baa1d0559918c3e3c61d33bdd4c9ee1",
      "transactionIndex": "0x80",
      "blockHash": "0x9accdf6ad705603f112337f302111bd9d933185590385287fd2f6be0119b143e",
      "blockNumber": "0x8931af",
      "gasUsed": "0xd7e4",
      "effectiveGasPrice": "0x3444054",
      "from": "0xc3ca11bd8e131471904dced927b3fb7edb453179",
      "to": "0x58b610a359c870e0fc941139821a51f5aa23f14e",
      "contractAddress": null
    },
    {
      "status": "0x1",
      "cumulativeGasUsed": "0x826487",
      "logs": [
        {
          "address": "0x2f925d6512b2bbb00f5a36d8b18e01fcf35f7dc7",
          "topics": [
            "0xbfb8b3e2f6221ae729e9cacb0d35f5d9be686ba10cb1d4e34b646bbb87f7a269",
            "0x0000000000000000000000000c6235c04ef4fa5013a58afb22967a068810c929"
          ],
          "data": "0x0000000000000000000000000000000000000000000000000000000000000001",
          "blockHash": "0xa423e1106f8acb4ec001e668186b0c8e65898f42bcef45137c69159e7d70a267",
          "blockNumber": "0x8931b0",
          "transactionHash": "0xc7b60252179ca75209bbcf3fe9ac58c27cd3348a43bcf34f2091c25a6d635a94",
          "transactionIndex": "0x55",
          "logIndex": "0xa6",
          "removed": false
        }
      ],
      "logsBloom": "0x00000000000000000000000000000000000000000000000000000000000000000000000000000080000000000000000020000020000000000000000000000000000040000000000000000000000000000000000000000000000000000000000000000000000000000000000000000000000000000000000000000002000000000000000400000000000000000000000000000000000000000000000000000000000000000000000000000000000000000000000000000000000000000000004000000000000000000000000000004000000000000000000000000000000000000000200000000000000000000000000000000000000000000000000000000000",
      "type": "0x2",
      "transactionHash": "0xc7b60252179ca75209bbcf3fe9ac58c27cd3348a43bcf34f2091c25a6d635a94",
      "transactionIndex": "0x55",
      "blockHash": "0xa423e1106f8acb4ec001e668186b0c8e65898f42bcef45137c69159e7d70a267",
      "blockNumber": "0x8931b0",
      "gasUsed": "0xd7ce",
      "effectiveGasPrice": "0x3283d39",
      "from": "0xc3ca11bd8e131471904dced927b3fb7edb453179",
      "to": "0x2f925d6512b2bbb00f5a36d8b18e01fcf35f7dc7",
      "contractAddress": null
    },
    {
      "status": "0x1",
      "cumulativeGasUsed": "0x6a1bca",
      "logs": [
        {
          "address": "0x9c9e9fad264089339aad66ff3e32d2ba1ddf6951",
          "topics": [
            "0xbfb8b3e2f6221ae729e9cacb0d35f5d9be686ba10cb1d4e34b646bbb87f7a269",
            "0x0000000000000000000000000c6235c04ef4fa5013a58afb22967a068810c929"
          ],
          "data": "0x0000000000000000000000000000000000000000000000000000000000000001",
          "blockHash": "0x4eae9cb3596ec3999a0faaa0e947b8ec17c9f0e1a2b78b0f2d23725fefec4771",
          "blockNumber": "0x8931b1",
          "transactionHash": "0x249b749f4aca7222df4959cc29a2901ef0be62c03f9b746f1ddb3c48e386522d",
          "transactionIndex": "0x4d",
          "logIndex": "0x80",
          "removed": false
        }
      ],
      "logsBloom": "0x00000000000000000000000000000000000000000000000000000000000000000000000000000080000000000000000020000020000000000000000000000000000040000000000000000000000000000000000000000000000000000000000000000000000000000000000000000000000000000000000000000002000000000000000000000000000000000000000000000000000000000000000000000000000000000000000000000000000000000000000000000000000000000000000000000000000000000000000800000000000000000000000000000000000002000000600000000000000000000000000000000000000000000000000000000000",
      "type": "0x2",
      "transactionHash": "0x249b749f4aca7222df4959cc29a2901ef0be62c03f9b746f1ddb3c48e386522d",
      "transactionIndex": "0x4d",
      "blockHash": "0x4eae9cb3596ec3999a0faaa0e947b8ec17c9f0e1a2b78b0f2d23725fefec4771",
      "blockNumber": "0x8931b1",
      "gasUsed": "0xd87f",
      "effectiveGasPrice": "0x30aa77c",
      "from": "0xc3ca11bd8e131471904dced927b3fb7edb453179",
      "to": "0x9c9e9fad264089339aad66ff3e32d2ba1ddf6951",
      "contractAddress": null
    },
    {
      "status": "0x1",
      "cumulativeGasUsed": "0x6a5790",
      "logs": [
        {
          "address": "0xe912f7c7a59470a6e3f178388106e3caa9e6fbd1",
          "topics": [
            "0xbfb8b3e2f6221ae729e9cacb0d35f5d9be686ba10cb1d4e34b646bbb87f7a269",
            "0x0000000000000000000000000c6235c04ef4fa5013a58afb22967a068810c929"
          ],
          "data": "0x0000000000000000000000000000000000000000000000000000000000000001",
          "blockHash": "0x717fb3b89168df724b58f1555c151e60ec6a8a6e7db1239f252d853eb2a3e890",
          "blockNumber": "0x8931b2",
          "transactionHash": "0x887954a631c8c44f948d5eeebd19268e1ac84eb8c7af6520772ee73146915f3c",
          "transactionIndex": "0x53",
          "logIndex": "0x8f",
          "removed": false
        }
      ],
      "logsBloom": "0x00000000000000000000000000000000000000000000000000000000000004000000000000000080000000000000000020000020000000000000000000000000000040020000000000010000000000000000000000000000000000000000000000000000000000000000000000000000000000000000000000000002000000000000000000000000000000000000000000000000000000000000000000000000000000000000000000000000000000000000000000000000000000000000000000000000000000000000000000000000000000000000000000000000000000000000200000000000000000000000000000000000000000000000000000000000",
      "type": "0x2",
      "transactionHash": "0x887954a631c8c44f948d5eeebd19268e1ac84eb8c7af6520772ee73146915f3c",
      "transactionIndex": "0x53",
      "blockHash": "0x717fb3b89168df724b58f1555c151e60ec6a8a6e7db1239f252d853eb2a3e890",
      "blockNumber": "0x8931b2",
      "gasUsed": "0xd826",
      "effectiveGasPrice": "0x2d7d773",
      "from": "0xc3ca11bd8e131471904dced927b3fb7edb453179",
      "to": "0xe912f7c7a59470a6e3f178388106e3caa9e6fbd1",
      "contractAddress": null
    },
    {
      "status": "0x1",
      "cumulativeGasUsed": "0x6c1de2",
      "logs": [
        {
          "address": "0x92228b058f25bc4fb333fa296dddecbddf6496f3",
          "topics": [
            "0xbfb8b3e2f6221ae729e9cacb0d35f5d9be686ba10cb1d4e34b646bbb87f7a269",
            "0x0000000000000000000000000c6235c04ef4fa5013a58afb22967a068810c929"
          ],
          "data": "0x0000000000000000000000000000000000000000000000000000000000000001",
          "blockHash": "0x236635ec8b8e6af24a3441c937e81ca283aa0a1582d2d24278cd454eecf66a1e",
          "blockNumber": "0x8931b4",
          "transactionHash": "0x1f049b038e82d89de791c50560ef189e4a132529a410fbd132659b18d66bb09b",
          "transactionIndex": "0x4c",
          "logIndex": "0x76",
          "removed": false
        }
      ],
      "logsBloom": "0x00000000000000000000000000000000000000000000000000000000000000000000000000000080000000000000000020000020000000000000000000000000000040000000000000000000000000000000000000000000000000000000000000000000000000000000000000000000000000000000000000000002000000000000000000000000000000000000000000000000000000008010000000000000000000000000000000000000000000000000000000000000000000000000000000000000002000000000000000000000000000000000000000000000000000000000200000000000000000000000000000000000000000000000000000000000",
      "type": "0x2",
      "transactionHash": "0x1f049b038e82d89de791c50560ef189e4a132529a410fbd132659b18d66bb09b",
      "transactionIndex": "0x4c",
      "blockHash": "0x236635ec8b8e6af24a3441c937e81ca283aa0a1582d2d24278cd454eecf66a1e",
      "blockNumber": "0x8931b4",
      "gasUsed": "0xd735",
      "effectiveGasPrice": "0x292a528",
      "from": "0xc3ca11bd8e131471904dced927b3fb7edb453179",
      "to": "0x92228b058f25bc4fb333fa296dddecbddf6496f3",
      "contractAddress": null
    },
    {
      "status": "0x1",
      "cumulativeGasUsed": "0x76e51a",
      "logs": [
        {
          "address": "0x2af842c6517cf30fb3456aef485230e0dd085845",
          "topics": [
            "0xbfb8b3e2f6221ae729e9cacb0d35f5d9be686ba10cb1d4e34b646bbb87f7a269",
            "0x0000000000000000000000000c6235c04ef4fa5013a58afb22967a068810c929"
          ],
          "data": "0x0000000000000000000000000000000000000000000000000000000000000001",
          "blockHash": "0xdcee89ddd0a68e179c0e9ca7c65b9d62f705b214c5530b5ca36e183c6e2f02f8",
          "blockNumber": "0x8931b6",
          "transactionHash": "0x9d1ef0e6bf08854bbcc340b24ed2d563eab2762046ec94f8204ce1ddb94f4d46",
          "transactionIndex": "0x45",
          "logIndex": "0x77",
          "removed": false
        }
      ],
      "logsBloom": "0x00000000000000000000000000000000000000000000000000000000000000000000000000000080000000000000000020000020000000000000000000000000000040000000800000000000000000000000000000000000000000000000000000000000000000000000000000000000000000000000000000000002000000000000000000000000000000000000000000000000000000000000000000000000000000004000000000000000000000000000000000000000000000000000000000000000000000000000000000000000000000000000000000000200000000000000200000000000000000000000000000000000000000000000000000000000",
      "type": "0x2",
      "transactionHash": "0x9d1ef0e6bf08854bbcc340b24ed2d563eab2762046ec94f8204ce1ddb94f4d46",
      "transactionIndex": "0x45",
      "blockHash": "0xdcee89ddd0a68e179c0e9ca7c65b9d62f705b214c5530b5ca36e183c6e2f02f8",
      "blockNumber": "0x8931b6",
      "gasUsed": "0xd7cf",
      "effectiveGasPrice": "0x25f82a7",
      "from": "0xc3ca11bd8e131471904dced927b3fb7edb453179",
      "to": "0x2af842c6517cf30fb3456aef485230e0dd085845",
      "contractAddress": null
    },
    {
      "status": "0x1",
      "cumulativeGasUsed": "0xa92ea4",
      "logs": [
        {
          "address": "0x2026027054f5bebceb650abd62dc623e327658e7",
          "topics": [
            "0xbfb8b3e2f6221ae729e9cacb0d35f5d9be686ba10cb1d4e34b646bbb87f7a269",
            "0x0000000000000000000000000c6235c04ef4fa5013a58afb22967a068810c929"
          ],
          "data": "0x0000000000000000000000000000000000000000000000000000000000000001",
          "blockHash": "0x94869ba360b73001631fefa504c60f0bb7adabab292158cd608ee6ebd7a51e02",
          "blockNumber": "0x8931b9",
          "transactionHash": "0x0ffc18244879f423a8fe2a7cd751f6bf4bf945365ea80a7d0357f7b55b8d9381",
          "transactionIndex": "0x76",
          "logIndex": "0xd7",
          "removed": false
        }
      ],
      "logsBloom": "0x00000000000000000000000000000000000000000000000000000000000000000000000000800080000000000000000020000020000000000000000000000200000040000000000000000000000000000000000000000000000000000000000000000000000000000000000000000000000000000000000000000002000000000020000000000000000000000000000000000000000000000000000000000000000000000000000000000000000000000000000000000000000000000000000000000000000000000000000000000000000000000000000000000000000000000000200000000000000000000000000000000000000000000000000000000000",
      "type": "0x2",
      "transactionHash": "0x0ffc18244879f423a8fe2a7cd751f6bf4bf945365ea80a7d0357f7b55b8d9381",
      "transactionIndex": "0x76",
      "blockHash": "0x94869ba360b73001631fefa504c60f0bb7adabab292158cd608ee6ebd7a51e02",
      "blockNumber": "0x8931b9",
      "gasUsed": "0xd73f",
      "effectiveGasPrice": "0x1f2224d",
      "from": "0xc3ca11bd8e131471904dced927b3fb7edb453179",
      "to": "0x2026027054f5bebceb650abd62dc623e327658e7",
      "contractAddress": null
    }
  ],
  "libraries": [],
  "pending": [],
  "returns": {},
  "timestamp": 1755279757,
  "chain": 11155111,
  "commit": "cdeee31"
}