{
  "transactions": [
    {
      "hash": "0x33e03ac75de737f6fc8ec599b815662ac754f1fc91f513a238360a4330e15a34",
      "transactionType": "CALL",
      "contractName": null,
      "contractAddress": "0x2f925d6512b2bbb00f5a36d8b18e01fcf35f7dc7",
      "function": "getFeeTokenList()",
      "arguments": [],
      "transaction": {
        "from": "0xc3ca11bd8e131471904dced927b3fb7edb453179",
        "to": "0x2f925d6512b2bbb00f5a36d8b18e01fcf35f7dc7",
        "gas": "0x9d1e",
        "value": "0x0",
        "input": "0xe28ab277",
        "nonce": "0x19",
        "chainId": "0x4268"
      },
      "additionalContracts": [],
      "isFixedGasLimit": false
    },
    {
      "hash": "0x1bacb2a179e2ee984ac8dc959cee42b926773d4a07fe30f743da255dde10c59e",
      "transactionType": "CALL",
      "contractName": null,
      "contractAddress": "0x2f925d6512b2bbb00f5a36d8b18e01fcf35f7dc7",
      "function": "addFeeToken(string)",
      "arguments": [
        "0x108642B1b2390AC3f54E3B45369B7c660aeFffAD"
      ],
      "transaction": {
        "from": "0xc3ca11bd8e131471904dced927b3fb7edb453179",
        "to": "0x2f925d6512b2bbb00f5a36d8b18e01fcf35f7dc7",
        "gas": "0x2c267",
        "value": "0x0",
        "input": "0x12a6385f0000000000000000000000000000000000000000000000000000000000000020000000000000000000000000000000000000000000000000000000000000002a30783130383634324231623233393041433366353445334234353336394237633636306165466666414400000000000000000000000000000000000000000000",
        "nonce": "0x1a",
        "chainId": "0x4268"
      },
      "additionalContracts": [],
      "isFixedGasLimit": false
    },
    {
      "hash": "0xe4a1a0afc94362d51c3bac7a70b3cd6e4fec7260abf26be99ed0e0b079e3cb3e",
      "transactionType": "CALL",
      "contractName": null,
      "contractAddress": "0x2f925d6512b2bbb00f5a36d8b18e01fcf35f7dc7",
      "function": "addFeeToken(string,string[],uint256[])",
      "arguments": [
        "11155111",
        "[0x108642B1b2390AC3f54E3B45369B7c660aeFffAD]",
        "[100]"
      ],
      "transaction": {
        "from": "0xc3ca11bd8e131471904dced927b3fb7edb453179",
        "to": "0x2f925d6512b2bbb00f5a36d8b18e01fcf35f7dc7",
        "gas": "0x25695",
        "value": "0x0",
        "input": "0x437bf84f000000000000000000000000000000000000000000000000000000000000006000000000000000000000000000000000000000000000000000000000000000a000000000000000000000000000000000000000000000000000000000000001400000000000000000000000000000000000000000000000000000000000000008313131353531313100000000000000000000000000000000000000000000000000000000000000000000000000000000000000000000000000000000000000010000000000000000000000000000000000000000000000000000000000000020000000000000000000000000000000000000000000000000000000000000002a3078313038363432423162323339304143336635344533423435333639423763363630616546666641440000000000000000000000000000000000000000000000000000000000000000000000000000000000000000000000000000000000010000000000000000000000000000000000000000000000000000000000000064",
        "nonce": "0x1b",
        "chainId": "0x4268"
      },
      "additionalContracts": [],
      "isFixedGasLimit": false
    },
    {
      "hash": "0xa227e423aee81ca4ab49eb3db1771a0c76165034b7d6077a814262689541f4d4",
      "transactionType": "CALL",
      "contractName": null,
      "contractAddress": "0x2f925d6512b2bbb00f5a36d8b18e01fcf35f7dc7",
      "function": "addFeeToken(string,string[],uint256[])",
      "arguments": [
        "1946",
        "[0x108642B1b2390AC3f54E3B45369B7c660aeFffAD]",
        "[100]"
      ],
      "transaction": {
        "from": "0xc3ca11bd8e131471904dced927b3fb7edb453179",
        "to": "0x2f925d6512b2bbb00f5a36d8b18e01fcf35f7dc7",
        "gas": "0x24dfd",
        "value": "0x0",
        "input": "0x437bf84f000000000000000000000000000000000000000000000000000000000000006000000000000000000000000000000000000000000000000000000000000000a000000000000000000000000000000000000000000000000000000000000001400000000000000000000000000000000000000000000000000000000000000004313934360000000000000000000000000000000000000000000000000000000000000000000000000000000000000000000000000000000000000000000000010000000000000000000000000000000000000000000000000000000000000020000000000000000000000000000000000000000000000000000000000000002a3078313038363432423162323339304143336635344533423435333639423763363630616546666641440000000000000000000000000000000000000000000000000000000000000000000000000000000000000000000000000000000000010000000000000000000000000000000000000000000000000000000000000064",
        "nonce": "0x1c",
        "chainId": "0x4268"
      },
      "additionalContracts": [],
      "isFixedGasLimit": false
    },
    {
      "hash": "0x30a270275176b1b07b8170f71fb56172e5d365a6dbe13f6debd460f3a9de7cc4",
      "transactionType": "CALL",
      "contractName": null,
      "contractAddress": "0x2f925d6512b2bbb00f5a36d8b18e01fcf35f7dc7",
      "function": "addFeeToken(string,string[],uint256[])",
      "arguments": [
        "421614",
        "[0x108642B1b2390AC3f54E3B45369B7c660aeFffAD]",
        "[100]"
      ],
      "transaction": {
        "from": "0xc3ca11bd8e131471904dced927b3fb7edb453179",
        "to": "0x2f925d6512b2bbb00f5a36d8b18e01fcf35f7dc7",
        "gas": "0x25249",
        "value": "0x0",
        "input": "0x437bf84f000000000000000000000000000000000000000000000000000000000000006000000000000000000000000000000000000000000000000000000000000000a000000000000000000000000000000000000000000000000000000000000001400000000000000000000000000000000000000000000000000000000000000006343231363134000000000000000000000000000000000000000000000000000000000000000000000000000000000000000000000000000000000000000000010000000000000000000000000000000000000000000000000000000000000020000000000000000000000000000000000000000000000000000000000000002a3078313038363432423162323339304143336635344533423435333639423763363630616546666641440000000000000000000000000000000000000000000000000000000000000000000000000000000000000000000000000000000000010000000000000000000000000000000000000000000000000000000000000064",
        "nonce": "0x1d",
        "chainId": "0x4268"
      },
      "additionalContracts": [],
      "isFixedGasLimit": false
    },
    {
      "hash": "0xc456bd3aa881f69096cc171dc093a7d95ffc3233ef37f4ecccbce751a1b66482",
      "transactionType": "CALL",
      "contractName": null,
      "contractAddress": "0x2f925d6512b2bbb00f5a36d8b18e01fcf35f7dc7",
      "function": "addFeeToken(string,string[],uint256[])",
      "arguments": [
        "43113",
        "[0x108642B1b2390AC3f54E3B45369B7c660aeFffAD]",
        "[100]"
      ],
      "transaction": {
        "from": "0xc3ca11bd8e131471904dced927b3fb7edb453179",
        "to": "0x2f925d6512b2bbb00f5a36d8b18e01fcf35f7dc7",
        "gas": "0x25023",
        "value": "0x0",
        "input": "0x437bf84f000000000000000000000000000000000000000000000000000000000000006000000000000000000000000000000000000000000000000000000000000000a000000000000000000000000000000000000000000000000000000000000001400000000000000000000000000000000000000000000000000000000000000005343331313300000000000000000000000000000000000000000000000000000000000000000000000000000000000000000000000000000000000000000000010000000000000000000000000000000000000000000000000000000000000020000000000000000000000000000000000000000000000000000000000000002a3078313038363432423162323339304143336635344533423435333639423763363630616546666641440000000000000000000000000000000000000000000000000000000000000000000000000000000000000000000000000000000000010000000000000000000000000000000000000000000000000000000000000064",
        "nonce": "0x1e",
        "chainId": "0x4268"
      },
      "additionalContracts": [],
      "isFixedGasLimit": false
    },
    {
      "hash": "0x14ea270e020f6aaa805e8d1b901601455063940272e850fd22a605026d67c5fb",
      "transactionType": "CALL",
      "contractName": null,
      "contractAddress": "0x2f925d6512b2bbb00f5a36d8b18e01fcf35f7dc7",
      "function": "addFeeToken(string,string[],uint256[])",
      "arguments": [
        "534351",
        "[0x108642B1b2390AC3f54E3B45369B7c660aeFffAD]",
        "[100]"
      ],
      "transaction": {
        "from": "0xc3ca11bd8e131471904dced927b3fb7edb453179",
        "to": "0x2f925d6512b2bbb00f5a36d8b18e01fcf35f7dc7",
        "gas": "0x25249",
        "value": "0x0",
        "input": "0x437bf84f000000000000000000000000000000000000000000000000000000000000006000000000000000000000000000000000000000000000000000000000000000a000000000000000000000000000000000000000000000000000000000000001400000000000000000000000000000000000000000000000000000000000000006353334333531000000000000000000000000000000000000000000000000000000000000000000000000000000000000000000000000000000000000000000010000000000000000000000000000000000000000000000000000000000000020000000000000000000000000000000000000000000000000000000000000002a3078313038363432423162323339304143336635344533423435333639423763363630616546666641440000000000000000000000000000000000000000000000000000000000000000000000000000000000000000000000000000000000010000000000000000000000000000000000000000000000000000000000000064",
        "nonce": "0x1f",
        "chainId": "0x4268"
      },
      "additionalContracts": [],
      "isFixedGasLimit": false
    },
    {
      "hash": "0x3a63d4e2b1dfaf330bc8137bc05152c7eda867158bab3626c96ec2b1a9204d14",
      "transactionType": "CALL",
      "contractName": null,
      "contractAddress": "0x2f925d6512b2bbb00f5a36d8b18e01fcf35f7dc7",
      "function": "addFeeToken(string,string[],uint256[])",
      "arguments": [
        "5611",
        "[0x108642B1b2390AC3f54E3B45369B7c660aeFffAD]",
        "[100]"
      ],
      "transaction": {
        "from": "0xc3ca11bd8e131471904dced927b3fb7edb453179",
        "to": "0x2f925d6512b2bbb00f5a36d8b18e01fcf35f7dc7",
        "gas": "0x24dfd",
        "value": "0x0",
        "input": "0x437bf84f000000000000000000000000000000000000000000000000000000000000006000000000000000000000000000000000000000000000000000000000000000a000000000000000000000000000000000000000000000000000000000000001400000000000000000000000000000000000000000000000000000000000000004353631310000000000000000000000000000000000000000000000000000000000000000000000000000000000000000000000000000000000000000000000010000000000000000000000000000000000000000000000000000000000000020000000000000000000000000000000000000000000000000000000000000002a3078313038363432423162323339304143336635344533423435333639423763363630616546666641440000000000000000000000000000000000000000000000000000000000000000000000000000000000000000000000000000000000010000000000000000000000000000000000000000000000000000000000000064",
        "nonce": "0x20",
        "chainId": "0x4268"
      },
      "additionalContracts": [],
      "isFixedGasLimit": false
    },
    {
      "hash": "0x8ee76dc515fdb02af36347ec45c48392d7638d94d528df24ed41100169ccbb00",
      "transactionType": "CALL",
      "contractName": null,
      "contractAddress": "0x2f925d6512b2bbb00f5a36d8b18e01fcf35f7dc7",
      "function": "addFeeToken(string,string[],uint256[])",
      "arguments": [
        "84532",
        "[0x108642B1b2390AC3f54E3B45369B7c660aeFffAD]",
        "[100]"
      ],
      "transaction": {
        "from": "0xc3ca11bd8e131471904dced927b3fb7edb453179",
        "to": "0x2f925d6512b2bbb00f5a36d8b18e01fcf35f7dc7",
        "gas": "0x25023",
        "value": "0x0",
        "input": "0x437bf84f000000000000000000000000000000000000000000000000000000000000006000000000000000000000000000000000000000000000000000000000000000a000000000000000000000000000000000000000000000000000000000000001400000000000000000000000000000000000000000000000000000000000000005383435333200000000000000000000000000000000000000000000000000000000000000000000000000000000000000000000000000000000000000000000010000000000000000000000000000000000000000000000000000000000000020000000000000000000000000000000000000000000000000000000000000002a3078313038363432423162323339304143336635344533423435333639423763363630616546666641440000000000000000000000000000000000000000000000000000000000000000000000000000000000000000000000000000000000010000000000000000000000000000000000000000000000000000000000000064",
        "nonce": "0x21",
        "chainId": "0x4268"
      },
      "additionalContracts": [],
      "isFixedGasLimit": false
    },
    {
      "hash": "0x82b51169ca9511c08ed68e4ab15fb87dcacf34e464919eeecac14fd48537728d",
      "transactionType": "CALL",
      "contractName": null,
      "contractAddress": "0x2f925d6512b2bbb00f5a36d8b18e01fcf35f7dc7",
      "function": "addFeeToken(string,string[],uint256[])",
      "arguments": [
        "97",
        "[0x108642B1b2390AC3f54E3B45369B7c660aeFffAD]",
        "[100]"
      ],
      "transaction": {
        "from": "0xc3ca11bd8e131471904dced927b3fb7edb453179",
        "to": "0x2f925d6512b2bbb00f5a36d8b18e01fcf35f7dc7",
        "gas": "0x249b2",
        "value": "0x0",
        "input": "0x437bf84f000000000000000000000000000000000000000000000000000000000000006000000000000000000000000000000000000000000000000000000000000000a000000000000000000000000000000000000000000000000000000000000001400000000000000000000000000000000000000000000000000000000000000002393700000000000000000000000000000000000000000000000000000000000000000000000000000000000000000000000000000000000000000000000000010000000000000000000000000000000000000000000000000000000000000020000000000000000000000000000000000000000000000000000000000000002a3078313038363432423162323339304143336635344533423435333639423763363630616546666641440000000000000000000000000000000000000000000000000000000000000000000000000000000000000000000000000000000000010000000000000000000000000000000000000000000000000000000000000064",
        "nonce": "0x22",
        "chainId": "0x4268"
      },
      "additionalContracts": [],
      "isFixedGasLimit": false
    },
    {
      "hash": "0x3efe0b90a6c974bd77a50e7dd94755ed5f1f5bce87a77c649e0614ccd97c71e1",
      "transactionType": "CALL",
      "contractName": null,
      "contractAddress": "0x2f925d6512b2bbb00f5a36d8b18e01fcf35f7dc7",
      "function": "setFeeMultiplier(uint8,uint256)",
      "arguments": [
        "0",
        "2"
      ],
      "transaction": {
        "from": "0xc3ca11bd8e131471904dced927b3fb7edb453179",
        "to": "0x2f925d6512b2bbb00f5a36d8b18e01fcf35f7dc7",
        "gas": "0x13e30",
        "value": "0x0",
        "input": "0x0ee24eb500000000000000000000000000000000000000000000000000000000000000000000000000000000000000000000000000000000000000000000000000000002",
        "nonce": "0x23",
        "chainId": "0x4268"
      },
      "additionalContracts": [],
      "isFixedGasLimit": false
    },
    {
      "hash": "0xcf168a48845ae56eb2e2858f60f3dfbfd82664dd619fb7f60b9fed99d5f3194b",
      "transactionType": "CALL",
      "contractName": null,
      "contractAddress": "0x2f925d6512b2bbb00f5a36d8b18e01fcf35f7dc7",
      "function": "setFeeMultiplier(uint8,uint256)",
      "arguments": [
        "1",
        "10"
      ],
      "transaction": {
        "from": "0xc3ca11bd8e131471904dced927b3fb7edb453179",
        "to": "0x2f925d6512b2bbb00f5a36d8b18e01fcf35f7dc7",
        "gas": "0x150fa",
        "value": "0x0",
        "input": "0x0ee24eb50000000000000000000000000000000000000000000000000000000000000001000000000000000000000000000000000000000000000000000000000000000a",
        "nonce": "0x24",
        "chainId": "0x4268"
      },
      "additionalContracts": [],
      "isFixedGasLimit": false
    },
    {
      "hash": "0xbb77e14910693a11bd675907853a8bb57b1502a11f0186882945c8661cb5bca6",
      "transactionType": "CALL",
      "contractName": null,
      "contractAddress": "0x2f925d6512b2bbb00f5a36d8b18e01fcf35f7dc7",
      "function": "setFeeMultiplier(uint8,uint256)",
      "arguments": [
        "2",
        "1"
      ],
      "transaction": {
        "from": "0xc3ca11bd8e131471904dced927b3fb7edb453179",
        "to": "0x2f925d6512b2bbb00f5a36d8b18e01fcf35f7dc7",
        "gas": "0x150fa",
        "value": "0x0",
        "input": "0x0ee24eb500000000000000000000000000000000000000000000000000000000000000020000000000000000000000000000000000000000000000000000000000000001",
        "nonce": "0x25",
        "chainId": "0x4268"
      },
      "additionalContracts": [],
      "isFixedGasLimit": false
    },
    {
      "hash": "0x01feade4148b89810f3e5abc58550d1dcea8d4b3c8863b4727eccb9768268298",
      "transactionType": "CALL",
      "contractName": null,
      "contractAddress": "0x2f925d6512b2bbb00f5a36d8b18e01fcf35f7dc7",
      "function": "setFeeMultiplier(uint8,uint256)",
      "arguments": [
        "3",
        "4"
      ],
      "transaction": {
        "from": "0xc3ca11bd8e131471904dced927b3fb7edb453179",
        "to": "0x2f925d6512b2bbb00f5a36d8b18e01fcf35f7dc7",
        "gas": "0x150fa",
        "value": "0x0",
        "input": "0x0ee24eb500000000000000000000000000000000000000000000000000000000000000030000000000000000000000000000000000000000000000000000000000000004",
        "nonce": "0x26",
        "chainId": "0x4268"
      },
      "additionalContracts": [],
      "isFixedGasLimit": false
    },
    {
      "hash": "0x94d2b8441e1b673c2d3013265c4660da6fba0caf861edb44e62e2d01e836b1b3",
      "transactionType": "CALL",
      "contractName": null,
      "contractAddress": "0x2f925d6512b2bbb00f5a36d8b18e01fcf35f7dc7",
      "function": "setFeeMultiplier(uint8,uint256)",
      "arguments": [
        "4",
        "4"
      ],
      "transaction": {
        "from": "0xc3ca11bd8e131471904dced927b3fb7edb453179",
        "to": "0x2f925d6512b2bbb00f5a36d8b18e01fcf35f7dc7",
        "gas": "0x150fa",
        "value": "0x0",
        "input": "0x0ee24eb500000000000000000000000000000000000000000000000000000000000000040000000000000000000000000000000000000000000000000000000000000004",
        "nonce": "0x27",
        "chainId": "0x4268"
      },
      "additionalContracts": [],
      "isFixedGasLimit": false
    },
    {
      "hash": "0x4018066f077e13e80e28aaa277802f33457ba9a2151b2b2f2b268896e6d11cbb",
      "transactionType": "CALL",
      "contractName": null,
      "contractAddress": "0x2f925d6512b2bbb00f5a36d8b18e01fcf35f7dc7",
      "function": "setFeeMultiplier(uint8,uint256)",
      "arguments": [
        "5",
        "4"
      ],
      "transaction": {
        "from": "0xc3ca11bd8e131471904dced927b3fb7edb453179",
        "to": "0x2f925d6512b2bbb00f5a36d8b18e01fcf35f7dc7",
        "gas": "0x150fa",
        "value": "0x0",
        "input": "0x0ee24eb500000000000000000000000000000000000000000000000000000000000000050000000000000000000000000000000000000000000000000000000000000004",
        "nonce": "0x28",
        "chainId": "0x4268"
      },
      "additionalContracts": [],
      "isFixedGasLimit": false
    },
    {
      "hash": "0x0ddd253178766822d0ec1b769028954e45199af962a3a66735d4360a0b00b74b",
      "transactionType": "CALL",
      "contractName": null,
      "contractAddress": "0x2f925d6512b2bbb00f5a36d8b18e01fcf35f7dc7",
      "function": "setFeeMultiplier(uint8,uint256)",
      "arguments": [
        "6",
        "8"
      ],
      "transaction": {
        "from": "0xc3ca11bd8e131471904dced927b3fb7edb453179",
        "to": "0x2f925d6512b2bbb00f5a36d8b18e01fcf35f7dc7",
        "gas": "0x150fa",
        "value": "0x0",
        "input": "0x0ee24eb500000000000000000000000000000000000000000000000000000000000000060000000000000000000000000000000000000000000000000000000000000008",
        "nonce": "0x29",
        "chainId": "0x4268"
      },
      "additionalContracts": [],
      "isFixedGasLimit": false
    },
    {
      "hash": "0x231d05c2291bef087ab6705c61e8a1ebf6441d209fc9c4ece7a645e2cc2d67ad",
      "transactionType": "CALL",
      "contractName": null,
      "contractAddress": "0x2f925d6512b2bbb00f5a36d8b18e01fcf35f7dc7",
      "function": "setFeeMultiplier(uint8,uint256)",
      "arguments": [
        "7",
        "4"
      ],
      "transaction": {
        "from": "0xc3ca11bd8e131471904dced927b3fb7edb453179",
        "to": "0x2f925d6512b2bbb00f5a36d8b18e01fcf35f7dc7",
        "gas": "0x150fa",
        "value": "0x0",
        "input": "0x0ee24eb500000000000000000000000000000000000000000000000000000000000000070000000000000000000000000000000000000000000000000000000000000004",
        "nonce": "0x2a",
        "chainId": "0x4268"
      },
      "additionalContracts": [],
      "isFixedGasLimit": false
    },
    {
      "hash": "0xdd99c50e1f1659a330f8e15455d70eb525adfd19c0be873adfc7acbd65d60de5",
      "transactionType": "CALL",
      "contractName": null,
      "contractAddress": "0x2f925d6512b2bbb00f5a36d8b18e01fcf35f7dc7",
      "function": "setFeeMultiplier(uint8,uint256)",
      "arguments": [
        "8",
        "10"
      ],
      "transaction": {
        "from": "0xc3ca11bd8e131471904dced927b3fb7edb453179",
        "to": "0x2f925d6512b2bbb00f5a36d8b18e01fcf35f7dc7",
        "gas": "0x150fa",
        "value": "0x0",
        "input": "0x0ee24eb50000000000000000000000000000000000000000000000000000000000000008000000000000000000000000000000000000000000000000000000000000000a",
        "nonce": "0x2b",
        "chainId": "0x4268"
      },
      "additionalContracts": [],
      "isFixedGasLimit": false
    },
    {
      "hash": "0xb2277e009af6211e505d6c3d6c251d7de8a42477d94ebf31be78fa4c7a806a7a",
      "transactionType": "CALL",
      "contractName": null,
      "contractAddress": "0x2f925d6512b2bbb00f5a36d8b18e01fcf35f7dc7",
      "function": "setFeeMultiplier(uint8,uint256)",
      "arguments": [
        "9",
        "8"
      ],
      "transaction": {
        "from": "0xc3ca11bd8e131471904dced927b3fb7edb453179",
        "to": "0x2f925d6512b2bbb00f5a36d8b18e01fcf35f7dc7",
        "gas": "0x150fa",
        "value": "0x0",
        "input": "0x0ee24eb500000000000000000000000000000000000000000000000000000000000000090000000000000000000000000000000000000000000000000000000000000008",
        "nonce": "0x2c",
        "chainId": "0x4268"
      },
      "additionalContracts": [],
      "isFixedGasLimit": false
    },
    {
      "hash": "0x67cb7420448c85a318b8c4bb980d0712a79cee96f11821d1e10f093d23a56305",
      "transactionType": "CALL",
      "contractName": null,
      "contractAddress": "0x2f925d6512b2bbb00f5a36d8b18e01fcf35f7dc7",
      "function": "setFeeMultiplier(uint8,uint256)",
      "arguments": [
        "10",
        "8"
      ],
      "transaction": {
        "from": "0xc3ca11bd8e131471904dced927b3fb7edb453179",
        "to": "0x2f925d6512b2bbb00f5a36d8b18e01fcf35f7dc7",
        "gas": "0x150fa",
        "value": "0x0",
        "input": "0x0ee24eb5000000000000000000000000000000000000000000000000000000000000000a0000000000000000000000000000000000000000000000000000000000000008",
        "nonce": "0x2d",
        "chainId": "0x4268"
      },
      "additionalContracts": [],
      "isFixedGasLimit": false
    },
    {
      "hash": "0x56b2dbe086be53951359a267e56f24772542d00c27c2fbf3396901fcbc9ca1b0",
      "transactionType": "CALL",
      "contractName": null,
      "contractAddress": "0x2f925d6512b2bbb00f5a36d8b18e01fcf35f7dc7",
      "function": "setFeeMultiplier(uint8,uint256)",
      "arguments": [
        "11",
        "8"
      ],
      "transaction": {
        "from": "0xc3ca11bd8e131471904dced927b3fb7edb453179",
        "to": "0x2f925d6512b2bbb00f5a36d8b18e01fcf35f7dc7",
        "gas": "0x150fa",
        "value": "0x0",
        "input": "0x0ee24eb5000000000000000000000000000000000000000000000000000000000000000b0000000000000000000000000000000000000000000000000000000000000008",
        "nonce": "0x2e",
        "chainId": "0x4268"
      },
      "additionalContracts": [],
      "isFixedGasLimit": false
    },
    {
      "hash": "0x92545f64d1df214809bc41bcd56f52b772a732a2cd9ed85de8ff6464f6aff11f",
      "transactionType": "CALL",
      "contractName": null,
      "contractAddress": "0x2f925d6512b2bbb00f5a36d8b18e01fcf35f7dc7",
      "function": "setFeeMultiplier(uint8,uint256)",
      "arguments": [
        "12",
        "20"
      ],
      "transaction": {
        "from": "0xc3ca11bd8e131471904dced927b3fb7edb453179",
        "to": "0x2f925d6512b2bbb00f5a36d8b18e01fcf35f7dc7",
        "gas": "0x150fa",
        "value": "0x0",
        "input": "0x0ee24eb5000000000000000000000000000000000000000000000000000000000000000c0000000000000000000000000000000000000000000000000000000000000014",
        "nonce": "0x2f",
        "chainId": "0x4268"
      },
      "additionalContracts": [],
      "isFixedGasLimit": false
    },
    {
      "hash": "0x7036998e66ae83db2d7940c490ab9db803d33fa76f8d8529e2aa43e9a6c9fef5",
      "transactionType": "CALL",
      "contractName": null,
      "contractAddress": "0x2f925d6512b2bbb00f5a36d8b18e01fcf35f7dc7",
      "function": "setFeeMultiplier(uint8,uint256)",
      "arguments": [
        "13",
        "8"
      ],
      "transaction": {
        "from": "0xc3ca11bd8e131471904dced927b3fb7edb453179",
        "to": "0x2f925d6512b2bbb00f5a36d8b18e01fcf35f7dc7",
        "gas": "0x150fa",
        "value": "0x0",
        "input": "0x0ee24eb5000000000000000000000000000000000000000000000000000000000000000d0000000000000000000000000000000000000000000000000000000000000008",
        "nonce": "0x30",
        "chainId": "0x4268"
      },
      "additionalContracts": [],
      "isFixedGasLimit": false
    },
    {
      "hash": "0xd35d063eec58f7b9e693e350ca02689d306d594c428a6c9b67ae5b661de89a66",
      "transactionType": "CALL",
      "contractName": null,
      "contractAddress": "0x2f925d6512b2bbb00f5a36d8b18e01fcf35f7dc7",
      "function": "setFeeMultiplier(uint8,uint256)",
      "arguments": [
        "14",
        "4"
      ],
      "transaction": {
        "from": "0xc3ca11bd8e131471904dced927b3fb7edb453179",
        "to": "0x2f925d6512b2bbb00f5a36d8b18e01fcf35f7dc7",
        "gas": "0x150fa",
        "value": "0x0",
        "input": "0x0ee24eb5000000000000000000000000000000000000000000000000000000000000000e0000000000000000000000000000000000000000000000000000000000000004",
        "nonce": "0x31",
        "chainId": "0x4268"
      },
      "additionalContracts": [],
      "isFixedGasLimit": false
    },
    {
      "hash": "0x12d1ae7900753df349adb220dd6a854183529e8918a25a483ac0f7cf92fab451",
      "transactionType": "CALL",
      "contractName": null,
      "contractAddress": "0x2f925d6512b2bbb00f5a36d8b18e01fcf35f7dc7",
      "function": "setFeeMultiplier(uint8,uint256)",
      "arguments": [
        "15",
        "4"
      ],
      "transaction": {
        "from": "0xc3ca11bd8e131471904dced927b3fb7edb453179",
        "to": "0x2f925d6512b2bbb00f5a36d8b18e01fcf35f7dc7",
        "gas": "0x150fa",
        "value": "0x0",
        "input": "0x0ee24eb5000000000000000000000000000000000000000000000000000000000000000f0000000000000000000000000000000000000000000000000000000000000004",
        "nonce": "0x32",
        "chainId": "0x4268"
      },
      "additionalContracts": [],
      "isFixedGasLimit": false
    },
    {
      "hash": "0x57c18945a2006f2e44d23745eef44a74b8df0fcbd783e2f3c1dd423b8557ef15",
      "transactionType": "CALL",
      "contractName": null,
      "contractAddress": "0x2f925d6512b2bbb00f5a36d8b18e01fcf35f7dc7",
      "function": "setFeeMultiplier(uint8,uint256)",
      "arguments": [
        "16",
        "4"
      ],
      "transaction": {
        "from": "0xc3ca11bd8e131471904dced927b3fb7edb453179",
        "to": "0x2f925d6512b2bbb00f5a36d8b18e01fcf35f7dc7",
        "gas": "0x150fa",
        "value": "0x0",
        "input": "0x0ee24eb500000000000000000000000000000000000000000000000000000000000000100000000000000000000000000000000000000000000000000000000000000004",
        "nonce": "0x33",
        "chainId": "0x4268"
      },
      "additionalContracts": [],
      "isFixedGasLimit": false
    },
    {
      "hash": "0xb0fd6114638abee3a03897ce040c48f3fed4693eb275f26385dec524ed1a19d8",
      "transactionType": "CALL",
      "contractName": null,
      "contractAddress": "0x2f925d6512b2bbb00f5a36d8b18e01fcf35f7dc7",
      "function": "setFeeMultiplier(uint8,uint256)",
      "arguments": [
        "17",
        "4"
      ],
      "transaction": {
        "from": "0xc3ca11bd8e131471904dced927b3fb7edb453179",
        "to": "0x2f925d6512b2bbb00f5a36d8b18e01fcf35f7dc7",
        "gas": "0x150fa",
        "value": "0x0",
        "input": "0x0ee24eb500000000000000000000000000000000000000000000000000000000000000110000000000000000000000000000000000000000000000000000000000000004",
        "nonce": "0x34",
        "chainId": "0x4268"
      },
      "additionalContracts": [],
      "isFixedGasLimit": false
    },
    {
      "hash": "0xca5dbace84ed0df6b43bdc750afbf3d8831626f094f9f6422360096fb748c926",
      "transactionType": "CALL",
      "contractName": null,
      "contractAddress": "0x2f925d6512b2bbb00f5a36d8b18e01fcf35f7dc7",
      "function": "setFeeMultiplier(uint8,uint256)",
      "arguments": [
        "18",
        "2"
      ],
      "transaction": {
        "from": "0xc3ca11bd8e131471904dced927b3fb7edb453179",
        "to": "0x2f925d6512b2bbb00f5a36d8b18e01fcf35f7dc7",
        "gas": "0x150fa",
        "value": "0x0",
        "input": "0x0ee24eb500000000000000000000000000000000000000000000000000000000000000120000000000000000000000000000000000000000000000000000000000000002",
        "nonce": "0x35",
        "chainId": "0x4268"
      },
      "additionalContracts": [],
      "isFixedGasLimit": false
    },
    {
      "hash": "0xf58982ffab27575b1b480d9c601a972eede00f95592a609874e52e600fbb4591",
      "transactionType": "CALL",
      "contractName": null,
      "contractAddress": "0x2f925d6512b2bbb00f5a36d8b18e01fcf35f7dc7",
      "function": "setFeeMultiplier(uint8,uint256)",
      "arguments": [
        "19",
        "20"
      ],
      "transaction": {
        "from": "0xc3ca11bd8e131471904dced927b3fb7edb453179",
        "to": "0x2f925d6512b2bbb00f5a36d8b18e01fcf35f7dc7",
        "gas": "0x150fa",
        "value": "0x0",
        "input": "0x0ee24eb500000000000000000000000000000000000000000000000000000000000000130000000000000000000000000000000000000000000000000000000000000014",
        "nonce": "0x36",
        "chainId": "0x4268"
      },
      "additionalContracts": [],
      "isFixedGasLimit": false
    },
    {
      "hash": "0x17e27b9e57e475fb0674d26ffae0bf53b1c4a3e07857c4fe21ae265547781ce5",
      "transactionType": "CALL",
      "contractName": null,
      "contractAddress": "0x2f925d6512b2bbb00f5a36d8b18e01fcf35f7dc7",
      "function": "setFeeMultiplier(uint8,uint256)",
      "arguments": [
        "20",
        "2"
      ],
      "transaction": {
        "from": "0xc3ca11bd8e131471904dced927b3fb7edb453179",
        "to": "0x2f925d6512b2bbb00f5a36d8b18e01fcf35f7dc7",
        "gas": "0x150fa",
        "value": "0x0",
        "input": "0x0ee24eb500000000000000000000000000000000000000000000000000000000000000140000000000000000000000000000000000000000000000000000000000000002",
        "nonce": "0x37",
        "chainId": "0x4268"
      },
      "additionalContracts": [],
      "isFixedGasLimit": false
    },
    {
      "hash": "0xffb44f7bca7477b149085313770caab49e6fa8e3ca348ead862308fbea7be881",
      "transactionType": "CALL",
      "contractName": null,
      "contractAddress": "0x2f925d6512b2bbb00f5a36d8b18e01fcf35f7dc7",
      "function": "setFeeMultiplier(uint8,uint256)",
      "arguments": [
        "21",
        "1"
      ],
      "transaction": {
        "from": "0xc3ca11bd8e131471904dced927b3fb7edb453179",
        "to": "0x2f925d6512b2bbb00f5a36d8b18e01fcf35f7dc7",
        "gas": "0x150fa",
        "value": "0x0",
        "input": "0x0ee24eb500000000000000000000000000000000000000000000000000000000000000150000000000000000000000000000000000000000000000000000000000000001",
        "nonce": "0x38",
        "chainId": "0x4268"
      },
      "additionalContracts": [],
      "isFixedGasLimit": false
    },
    {
      "hash": "0x127c1304f91486e3aedccf1899bc6494cc2fb701ce78d62e63a7d7e65539e2b6",
      "transactionType": "CALL",
      "contractName": null,
      "contractAddress": "0x2f925d6512b2bbb00f5a36d8b18e01fcf35f7dc7",
      "function": "setFeeMultiplier(uint8,uint256)",
      "arguments": [
        "22",
        "1"
      ],
      "transaction": {
        "from": "0xc3ca11bd8e131471904dced927b3fb7edb453179",
        "to": "0x2f925d6512b2bbb00f5a36d8b18e01fcf35f7dc7",
        "gas": "0x150fa",
        "value": "0x0",
        "input": "0x0ee24eb500000000000000000000000000000000000000000000000000000000000000160000000000000000000000000000000000000000000000000000000000000001",
        "nonce": "0x39",
        "chainId": "0x4268"
      },
      "additionalContracts": [],
      "isFixedGasLimit": false
    },
    {
      "hash": "0x1ef68873816f46cc7e461db202d7a4dfd522ff98e2cbc8abfecc80685d9150fb",
      "transactionType": "CALL",
      "contractName": null,
      "contractAddress": "0x2f925d6512b2bbb00f5a36d8b18e01fcf35f7dc7",
      "function": "setFeeMultiplier(uint8,uint256)",
      "arguments": [
        "23",
        "5"
      ],
      "transaction": {
        "from": "0xc3ca11bd8e131471904dced927b3fb7edb453179",
        "to": "0x2f925d6512b2bbb00f5a36d8b18e01fcf35f7dc7",
        "gas": "0x150fa",
        "value": "0x0",
        "input": "0x0ee24eb500000000000000000000000000000000000000000000000000000000000000170000000000000000000000000000000000000000000000000000000000000005",
        "nonce": "0x3a",
        "chainId": "0x4268"
      },
      "additionalContracts": [],
      "isFixedGasLimit": false
    },
    {
      "hash": "0x70032eace14c71c864290cd4f1f70bc98d5574ec3648371ced2d91cec6b54fea",
      "transactionType": "CALL",
      "contractName": null,
      "contractAddress": "0x2f925d6512b2bbb00f5a36d8b18e01fcf35f7dc7",
      "function": "setFeeMultiplier(uint8,uint256)",
      "arguments": [
        "24",
        "5"
      ],
      "transaction": {
        "from": "0xc3ca11bd8e131471904dced927b3fb7edb453179",
        "to": "0x2f925d6512b2bbb00f5a36d8b18e01fcf35f7dc7",
        "gas": "0x150fa",
        "value": "0x0",
        "input": "0x0ee24eb500000000000000000000000000000000000000000000000000000000000000180000000000000000000000000000000000000000000000000000000000000005",
        "nonce": "0x3b",
        "chainId": "0x4268"
      },
      "additionalContracts": [],
      "isFixedGasLimit": false
    },
    {
      "hash": "0xe0cf8ecdbdb5063c1bf04811cc9ce00ef05e570dd85534edef9c13d773c40ce6",
      "transactionType": "CALL",
      "contractName": null,
      "contractAddress": "0x2f925d6512b2bbb00f5a36d8b18e01fcf35f7dc7",
      "function": "setFeeMultiplier(uint8,uint256)",
      "arguments": [
        "25",
        "5"
      ],
      "transaction": {
        "from": "0xc3ca11bd8e131471904dced927b3fb7edb453179",
        "to": "0x2f925d6512b2bbb00f5a36d8b18e01fcf35f7dc7",
        "gas": "0x150fa",
        "value": "0x0",
        "input": "0x0ee24eb500000000000000000000000000000000000000000000000000000000000000190000000000000000000000000000000000000000000000000000000000000005",
        "nonce": "0x3c",
        "chainId": "0x4268"
      },
      "additionalContracts": [],
      "isFixedGasLimit": false
    },
    {
      "hash": "0x51b5659e1204108bb7f53e3612eb864cdc7bf0e4ea034ee4ce5c0baf7b614693",
      "transactionType": "CALL",
      "contractName": null,
      "contractAddress": "0x2f925d6512b2bbb00f5a36d8b18e01fcf35f7dc7",
      "function": "setFeeMultiplier(uint8,uint256)",
      "arguments": [
        "26",
        "5"
      ],
      "transaction": {
        "from": "0xc3ca11bd8e131471904dced927b3fb7edb453179",
        "to": "0x2f925d6512b2bbb00f5a36d8b18e01fcf35f7dc7",
        "gas": "0x150fa",
        "value": "0x0",
        "input": "0x0ee24eb5000000000000000000000000000000000000000000000000000000000000001a0000000000000000000000000000000000000000000000000000000000000005",
        "nonce": "0x3d",
        "chainId": "0x4268"
      },
      "additionalContracts": [],
      "isFixedGasLimit": false
    },
    {
      "hash": "0x7525f05ac2008b423d0639f0977ac880862ddf0189426a0a690d88b306468a7b",
      "transactionType": "CALL",
      "contractName": null,
      "contractAddress": "0x9c9e9fad264089339aad66ff3e32d2ba1ddf6951",
      "function": "setFallback(address)",
      "arguments": [
        "0xa35EF74f047fC846Af8863e4FAc5E750eB5A59cf"
      ],
      "transaction": {
        "from": "0xc3ca11bd8e131471904dced927b3fb7edb453179",
        "to": "0x9c9e9fad264089339aad66ff3e32d2ba1ddf6951",
        "gas": "0x1a3cb",
        "value": "0x0",
        "input": "0x32b12eac000000000000000000000000a35ef74f047fc846af8863e4fac5e750eb5a59cf",
        "nonce": "0x3e",
        "chainId": "0x4268"
      },
      "additionalContracts": [],
      "isFixedGasLimit": false
    },
    {
      "hash": "0x250c0f5b3dfdaf9ed1f59940e4c3c9ed678855bef986b09ddeefa61c30bbdb1f",
      "transactionType": "CALL",
      "contractName": null,
      "contractAddress": "0x9c9e9fad264089339aad66ff3e32d2ba1ddf6951",
      "function": "setCtmRwaDeployer(address)",
      "arguments": [
        "0xE912F7c7A59470a6E3f178388106E3caa9e6fbd1"
      ],
      "transaction": {
        "from": "0xc3ca11bd8e131471904dced927b3fb7edb453179",
        "to": "0x9c9e9fad264089339aad66ff3e32d2ba1ddf6951",
        "gas": "0x12314",
        "value": "0x0",
        "input": "0xf1e4f707000000000000000000000000e912f7c7a59470a6e3f178388106e3caa9e6fbd1",
        "nonce": "0x3f",
        "chainId": "0x4268"
      },
      "additionalContracts": [],
      "isFixedGasLimit": false
    },
    {
      "hash": "0x0d239ffa718f8986bf09bff2651f4fb31b419ea60b9c37831ce1c963ffa56755",
      "transactionType": "CALL",
      "contractName": null,
      "contractAddress": "0x9c9e9fad264089339aad66ff3e32d2ba1ddf6951",
      "function": "setCtmRwaMap(address)",
      "arguments": [
        "0x2026027054F5beBCEB650aBD62dC623e327658e7"
      ],
      "transaction": {
        "from": "0xc3ca11bd8e131471904dced927b3fb7edb453179",
        "to": "0x9c9e9fad264089339aad66ff3e32d2ba1ddf6951",
        "gas": "0x21040",
        "value": "0x0",
        "input": "0x08add95f0000000000000000000000002026027054f5bebceb650abd62dc623e327658e7",
        "nonce": "0x40",
        "chainId": "0x4268"
      },
      "additionalContracts": [],
      "isFixedGasLimit": false
    },
    {
      "hash": "0xa5330fd301d9d31b23a7992476cffc489f040244b3589362e1f6041ab5753701",
      "transactionType": "CALL",
      "contractName": null,
      "contractAddress": "0xe912f7c7a59470a6e3f178388106e3caa9e6fbd1",
      "function": "setDeployInvest(address)",
      "arguments": [
        "0x082D752d0f439aa7F69c2c6BE79fF7056515636D"
      ],
      "transaction": {
        "from": "0xc3ca11bd8e131471904dced927b3fb7edb453179",
        "to": "0xe912f7c7a59470a6e3f178388106e3caa9e6fbd1",
        "gas": "0x13028",
        "value": "0x0",
        "input": "0x51ae9e56000000000000000000000000082d752d0f439aa7f69c2c6be79ff7056515636d",
        "nonce": "0x41",
        "chainId": "0x4268"
      },
      "additionalContracts": [],
      "isFixedGasLimit": false
    },
    {
      "hash": "0xb7c211c374b6768f1bbfe9b7c9cee461f2784995511cd33693d271c013b58cfd",
      "transactionType": "CALL",
      "contractName": null,
      "contractAddress": "0xe912f7c7a59470a6e3f178388106e3caa9e6fbd1",
      "function": "setErc20DeployerAddress(address)",
      "arguments": [
        "0xEbC3c7C5f2EE040db257bf4e3c7d5794818a13F8"
      ],
      "transaction": {
        "from": "0xc3ca11bd8e131471904dced927b3fb7edb453179",
        "to": "0xe912f7c7a59470a6e3f178388106e3caa9e6fbd1",
        "gas": "0x12f06",
        "value": "0x0",
        "input": "0x0eab9e49000000000000000000000000ebc3c7c5f2ee040db257bf4e3c7d5794818a13f8",
        "nonce": "0x42",
        "chainId": "0x4268"
      },
      "additionalContracts": [],
      "isFixedGasLimit": false
    },
    {
      "hash": "0x1d8c4024ac21b6726070926fa0604bfa386ba0cfbe873408aa941a4fdfda53ec",
      "transactionType": "CALL",
      "contractName": null,
      "contractAddress": "0xe912f7c7a59470a6e3f178388106e3caa9e6fbd1",
      "function": "setTokenFactory(uint256,uint256,address)",
      "arguments": [
        "1",
        "1",
        "0x902e297ef81a3250f9F20D73b7465ac5d4966241"
      ],
      "transaction": {
        "from": "0xc3ca11bd8e131471904dced927b3fb7edb453179",
        "to": "0xe912f7c7a59470a6e3f178388106e3caa9e6fbd1",
        "gas": "0x1253d",
        "value": "0x0",
        "input": "0xf1a31c6d00000000000000000000000000000000000000000000000000000000000000010000000000000000000000000000000000000000000000000000000000000001000000000000000000000000902e297ef81a3250f9f20d73b7465ac5d4966241",
        "nonce": "0x43",
        "chainId": "0x4268"
      },
      "additionalContracts": [],
      "isFixedGasLimit": false
    },
    {
      "hash": "0x8b995c2754af320750ebddc7c2548b4be66c3321d7fa2f2b100a2d2fbfa9111d",
      "transactionType": "CALL",
      "contractName": null,
      "contractAddress": "0xe912f7c7a59470a6e3f178388106e3caa9e6fbd1",
      "function": "setDividendFactory(uint256,uint256,address)",
      "arguments": [
        "1",
        "1",
        "0xbF5F67A9387a488a9aC054FCD49E39fBF37E79b0"
      ],
      "transaction": {
        "from": "0xc3ca11bd8e131471904dced927b3fb7edb453179",
        "to": "0xe912f7c7a59470a6e3f178388106e3caa9e6fbd1",
        "gas": "0x123a3",
        "value": "0x0",
        "input": "0xae7b00fc00000000000000000000000000000000000000000000000000000000000000010000000000000000000000000000000000000000000000000000000000000001000000000000000000000000bf5f67a9387a488a9ac054fcd49e39fbf37e79b0",
        "nonce": "0x44",
        "chainId": "0x4268"
      },
      "additionalContracts": [],
      "isFixedGasLimit": false
    },
    {
      "hash": "0xda3dd8f57ff3213a26d9fb771caa4734b185f5a7db3be8d623428a72423c4875",
      "transactionType": "CALL",
      "contractName": null,
      "contractAddress": "0xe912f7c7a59470a6e3f178388106e3caa9e6fbd1",
      "function": "setStorageFactory(uint256,uint256,address)",
      "arguments": [
        "1",
        "1",
        "0x92228B058f25Bc4fb333fA296dDdECBdDf6496f3"
      ],
      "transaction": {
        "from": "0xc3ca11bd8e131471904dced927b3fb7edb453179",
        "to": "0xe912f7c7a59470a6e3f178388106e3caa9e6fbd1",
        "gas": "0x12246",
        "value": "0x0",
        "input": "0x5b2004dc0000000000000000000000000000000000000000000000000000000000000001000000000000000000000000000000000000000000000000000000000000000100000000000000000000000092228b058f25bc4fb333fa296dddecbddf6496f3",
        "nonce": "0x45",
        "chainId": "0x4268"
      },
      "additionalContracts": [],
      "isFixedGasLimit": false
    },
    {
      "hash": "0x28dd3e63eaeb7cecdcfcfce0afc33e548ee1d3cee7494d41daa33ce10bf06304",
      "transactionType": "CALL",
      "contractName": null,
      "contractAddress": "0xe912f7c7a59470a6e3f178388106e3caa9e6fbd1",
      "function": "setSentryFactory(uint256,uint256,address)",
      "arguments": [
        "1",
        "1",
        "0x2AF842C6517CF30Fb3456aeF485230e0DD085845"
      ],
      "transaction": {
        "from": "0xc3ca11bd8e131471904dced927b3fb7edb453179",
        "to": "0xe912f7c7a59470a6e3f178388106e3caa9e6fbd1",
        "gas": "0x12339",
        "value": "0x0",
        "input": "0x9aa3f089000000000000000000000000000000000000000000000000000000000000000100000000000000000000000000000000000000000000000000000000000000010000000000000000000000002af842c6517cf30fb3456aef485230e0dd085845",
        "nonce": "0x46",
        "chainId": "0x4268"
      },
      "additionalContracts": [],
      "isFixedGasLimit": false
    },
    {
      "hash": "0x4b9143b994b054eaa6e2388552956aaba999b109830f500a8bf8918cfd805321",
      "transactionType": "CALL",
      "contractName": null,
      "contractAddress": "0x92228b058f25bc4fb333fa296dddecbddf6496f3",
      "function": "setStorageUtils(address)",
      "arguments": [
        "0xee6A66C156EADfefA260618627dF5BCbA04fD2B1"
      ],
      "transaction": {
        "from": "0xc3ca11bd8e131471904dced927b3fb7edb453179",
        "to": "0x92228b058f25bc4fb333fa296dddecbddf6496f3",
        "gas": "0x11fb7",
        "value": "0x0",
        "input": "0x9dcbd16c000000000000000000000000ee6a66c156eadfefa260618627df5bcba04fd2b1",
        "nonce": "0x47",
        "chainId": "0x4268"
      },
      "additionalContracts": [],
      "isFixedGasLimit": false
    },
    {
      "hash": "0xefa989b443767b130bc41902f39647264ff14de7c75f0a305028b5ded0072bb7",
      "transactionType": "CALL",
      "contractName": null,
      "contractAddress": "0x92228b058f25bc4fb333fa296dddecbddf6496f3",
      "function": "setCtmRwaDeployer(address)",
      "arguments": [
        "0xE912F7c7A59470a6E3f178388106E3caa9e6fbd1"
      ],
      "transaction": {
        "from": "0xc3ca11bd8e131471904dced927b3fb7edb453179",
        "to": "0x92228b058f25bc4fb333fa296dddecbddf6496f3",
        "gas": "0xb5f5",
        "value": "0x0",
        "input": "0xf1e4f707000000000000000000000000e912f7c7a59470a6e3f178388106e3caa9e6fbd1",
        "nonce": "0x48",
        "chainId": "0x4268"
      },
      "additionalContracts": [],
      "isFixedGasLimit": false
    },
    {
      "hash": "0xfbbf5bca89b0a2016e0a37b069c1dba10beb8b508445516fef8efd5f4d9c8a70",
      "transactionType": "CALL",
      "contractName": null,
      "contractAddress": "0x92228b058f25bc4fb333fa296dddecbddf6496f3",
      "function": "setCtmRwaMap(address)",
      "arguments": [
        "0x2026027054F5beBCEB650aBD62dC623e327658e7"
      ],
      "transaction": {
        "from": "0xc3ca11bd8e131471904dced927b3fb7edb453179",
        "to": "0x92228b058f25bc4fb333fa296dddecbddf6496f3",
        "gas": "0x11e4b",
        "value": "0x0",
        "input": "0x08add95f0000000000000000000000002026027054f5bebceb650abd62dc623e327658e7",
        "nonce": "0x49",
        "chainId": "0x4268"
      },
      "additionalContracts": [],
      "isFixedGasLimit": false
    },
    {
      "hash": "0xff63e2cdf472413710bd50b3f5dbe66b86a2bd7c8e5d4cb9dfaab4e86c8a2a2e",
      "transactionType": "CALL",
      "contractName": null,
      "contractAddress": "0x2af842c6517cf30fb3456aef485230e0dd085845",
      "function": "setSentryUtils(address)",
      "arguments": [
        "0x1CBc0DE1CD20d6D80ae755275A63DBc9B1131a7C"
      ],
      "transaction": {
        "from": "0xc3ca11bd8e131471904dced927b3fb7edb453179",
        "to": "0x2af842c6517cf30fb3456aef485230e0dd085845",
        "gas": "0x1306f",
        "value": "0x0",
        "input": "0x672f91940000000000000000000000001cbc0de1cd20d6d80ae755275a63dbc9b1131a7c",
        "nonce": "0x4a",
        "chainId": "0x4268"
      },
      "additionalContracts": [],
      "isFixedGasLimit": false
    },
    {
      "hash": "0x7b8edf5c1c0b9e33f28b385b5651db94c4dc4b6aa222b2604d659ec91877d328",
      "transactionType": "CALL",
      "contractName": null,
      "contractAddress": "0x2af842c6517cf30fb3456aef485230e0dd085845",
      "function": "setCtmRwaDeployer(address)",
      "arguments": [
        "0xE912F7c7A59470a6E3f178388106E3caa9e6fbd1"
      ],
      "transaction": {
        "from": "0xc3ca11bd8e131471904dced927b3fb7edb453179",
        "to": "0x2af842c6517cf30fb3456aef485230e0dd085845",
        "gas": "0xb6ca",
        "value": "0x0",
        "input": "0xf1e4f707000000000000000000000000e912f7c7a59470a6e3f178388106e3caa9e6fbd1",
        "nonce": "0x4b",
        "chainId": "0x4268"
      },
      "additionalContracts": [],
      "isFixedGasLimit": false
    },
    {
      "hash": "0x7a6b7c8abe72d625756edd0580280d242c9e6a3ba7175fb6c8a9bc00573cd79f",
      "transactionType": "CALL",
      "contractName": null,
      "contractAddress": "0x2af842c6517cf30fb3456aef485230e0dd085845",
      "function": "setCtmRwaMap(address)",
      "arguments": [
        "0x2026027054F5beBCEB650aBD62dC623e327658e7"
      ],
      "transaction": {
        "from": "0xc3ca11bd8e131471904dced927b3fb7edb453179",
        "to": "0x2af842c6517cf30fb3456aef485230e0dd085845",
        "gas": "0x11e2d",
        "value": "0x0",
        "input": "0x08add95f0000000000000000000000002026027054f5bebceb650abd62dc623e327658e7",
        "nonce": "0x4c",
        "chainId": "0x4268"
      },
      "additionalContracts": [],
      "isFixedGasLimit": false
    },
    {
      "hash": "0xde44b0b3a4416737df65778569a475cc1cb473d7e4698850f476da7e00d990c5",
      "transactionType": "CALL",
      "contractName": null,
      "contractAddress": "0x58b610a359c870e0fc941139821a51f5aa23f14e",
      "function": "addChainContract(string[],string[])",
      "arguments": [
        "[11155111, 1946, 421614, 43113, 534351, 5611, 84532, 97]",
        "[0x58B610a359c870E0fc941139821a51F5aa23f14E, 0x58B610a359c870E0fc941139821a51F5aa23f14E, 0x58B610a359c870E0fc941139821a51F5aa23f14E, 0x58B610a359c870E0fc941139821a51F5aa23f14E, 0x58B610a359c870E0fc941139821a51F5aa23f14E, 0x58B610a359c870E0fc941139821a51F5aa23f14E, 0x58B610a359c870E0fc941139821a51F5aa23f14E, 0x58B610a359c870E0fc941139821a51F5aa23f14E]"
      ],
      "transaction": {
        "from": "0xc3ca11bd8e131471904dced927b3fb7edb453179",
        "to": "0x58b610a359c870e0fc941139821a51f5aa23f14e",
        "gas": "0x15b87c",
        "value": "0x0",
        "input": "0x013fd3bd00000000000000000000000000000000000000000000000000000000000000400000000000000000000000000000000000000000000000000000000000000360000000000000000000000000000000000000000000000000000000000000000800000000000000000000000000000000000000000000000000000000000001000000000000000000000000000000000000000000000000000000000000000140000000000000000000000000000000000000000000000000000000000000018000000000000000000000000000000000000000000000000000000000000001c000000000000000000000000000000000000000000000000000000000000002000000000000000000000000000000000000000000000000000000000000000240000000000000000000000000000000000000000000000000000000000000028000000000000000000000000000000000000000000000000000000000000002c0000000000000000000000000000000000000000000000000000000000000000831313135353131310000000000000000000000000000000000000000000000000000000000000000000000000000000000000000000000000000000000000004313934360000000000000000000000000000000000000000000000000000000000000000000000000000000000000000000000000000000000000000000000063432313631340000000000000000000000000000000000000000000000000000000000000000000000000000000000000000000000000000000000000000000534333131330000000000000000000000000000000000000000000000000000000000000000000000000000000000000000000000000000000000000000000006353334333531000000000000000000000000000000000000000000000000000000000000000000000000000000000000000000000000000000000000000000043536313100000000000000000000000000000000000000000000000000000000000000000000000000000000000000000000000000000000000000000000000538343533320000000000000000000000000000000000000000000000000000000000000000000000000000000000000000000000000000000000000000000002393700000000000000000000000000000000000000000000000000000000000000000000000000000000000000000000000000000000000000000000000000080000000000000000000000000000000000000000000000000000000000000100000000000000000000000000000000000000000000000000000000000000016000000000000000000000000000000000000000000000000000000000000001c00000000000000000000000000000000000000000000000000000000000000220000000000000000000000000000000000000000000000000000000000000028000000000000000000000000000000000000000000000000000000000000002e0000000000000000000000000000000000000000000000000000000000000034000000000000000000000000000000000000000000000000000000000000003a0000000000000000000000000000000000000000000000000000000000000002a30783538423631306133353963383730453066633934313133393832316135314635616132336631344500000000000000000000000000000000000000000000000000000000000000000000000000000000000000000000000000000000002a30783538423631306133353963383730453066633934313133393832316135314635616132336631344500000000000000000000000000000000000000000000000000000000000000000000000000000000000000000000000000000000002a30783538423631306133353963383730453066633934313133393832316135314635616132336631344500000000000000000000000000000000000000000000000000000000000000000000000000000000000000000000000000000000002a30783538423631306133353963383730453066633934313133393832316135314635616132336631344500000000000000000000000000000000000000000000000000000000000000000000000000000000000000000000000000000000002a30783538423631306133353963383730453066633934313133393832316135314635616132336631344500000000000000000000000000000000000000000000000000000000000000000000000000000000000000000000000000000000002a30783538423631306133353963383730453066633934313133393832316135314635616132336631344500000000000000000000000000000000000000000000000000000000000000000000000000000000000000000000000000000000002a30783538423631306133353963383730453066633934313133393832316135314635616132336631344500000000000000000000000000000000000000000000000000000000000000000000000000000000000000000000000000000000002a30783538423631306133353963383730453066633934313133393832316135314635616132336631344500000000000000000000000000000000000000000000",
        "nonce": "0x4d",
        "chainId": "0x4268"
      },
      "additionalContracts": [],
      "isFixedGasLimit": false
    },
    {
      "hash": "0x9455ea8a06d06e9489b4574810bf1ccef36f74c39b1868ff869241e5c2bc75b9",
      "transactionType": "CALL",
      "contractName": null,
      "contractAddress": "0x58b610a359c870e0fc941139821a51f5aa23f14e",
      "function": "attachRWAX(uint256,uint256,string[],string[])",
      "arguments": [
        "1",
        "1",
        "[11155111, 1946, 421614, 43113, 534351, 5611, 84532, 97]",
        "[0x9C9e9Fad264089339aAd66Ff3e32D2bA1DdF6951, 0x9C9e9Fad264089339aAd66Ff3e32D2bA1DdF6951, 0x9C9e9Fad264089339aAd66Ff3e32D2bA1DdF6951, 0x9C9e9Fad264089339aAd66Ff3e32D2bA1DdF6951, 0x9C9e9Fad264089339aAd66Ff3e32D2bA1DdF6951, 0x9C9e9Fad264089339aAd66Ff3e32D2bA1DdF6951, 0x9C9e9Fad264089339aAd66Ff3e32D2bA1DdF6951, 0x9C9e9Fad264089339aAd66Ff3e32D2bA1DdF6951]"
      ],
      "transaction": {
        "from": "0xc3ca11bd8e131471904dced927b3fb7edb453179",
        "to": "0x58b610a359c870e0fc941139821a51f5aa23f14e",
        "gas": "0x19540a",
        "value": "0x0",
        "input": "0x33a5f5b400000000000000000000000000000000000000000000000000000000000000010000000000000000000000000000000000000000000000000000000000000001000000000000000000000000000000000000000000000000000000000000008000000000000000000000000000000000000000000000000000000000000003a0000000000000000000000000000000000000000000000000000000000000000800000000000000000000000000000000000000000000000000000000000001000000000000000000000000000000000000000000000000000000000000000140000000000000000000000000000000000000000000000000000000000000018000000000000000000000000000000000000000000000000000000000000001c000000000000000000000000000000000000000000000000000000000000002000000000000000000000000000000000000000000000000000000000000000240000000000000000000000000000000000000000000000000000000000000028000000000000000000000000000000000000000000000000000000000000002c0000000000000000000000000000000000000000000000000000000000000000831313135353131310000000000000000000000000000000000000000000000000000000000000000000000000000000000000000000000000000000000000004313934360000000000000000000000000000000000000000000000000000000000000000000000000000000000000000000000000000000000000000000000063432313631340000000000000000000000000000000000000000000000000000000000000000000000000000000000000000000000000000000000000000000534333131330000000000000000000000000000000000000000000000000000000000000000000000000000000000000000000000000000000000000000000006353334333531000000000000000000000000000000000000000000000000000000000000000000000000000000000000000000000000000000000000000000043536313100000000000000000000000000000000000000000000000000000000000000000000000000000000000000000000000000000000000000000000000538343533320000000000000000000000000000000000000000000000000000000000000000000000000000000000000000000000000000000000000000000002393700000000000000000000000000000000000000000000000000000000000000000000000000000000000000000000000000000000000000000000000000080000000000000000000000000000000000000000000000000000000000000100000000000000000000000000000000000000000000000000000000000000016000000000000000000000000000000000000000000000000000000000000001c00000000000000000000000000000000000000000000000000000000000000220000000000000000000000000000000000000000000000000000000000000028000000000000000000000000000000000000000000000000000000000000002e0000000000000000000000000000000000000000000000000000000000000034000000000000000000000000000000000000000000000000000000000000003a0000000000000000000000000000000000000000000000000000000000000002a30783943396539466164323634303839333339614164363646663365333244326241314464463639353100000000000000000000000000000000000000000000000000000000000000000000000000000000000000000000000000000000002a30783943396539466164323634303839333339614164363646663365333244326241314464463639353100000000000000000000000000000000000000000000000000000000000000000000000000000000000000000000000000000000002a30783943396539466164323634303839333339614164363646663365333244326241314464463639353100000000000000000000000000000000000000000000000000000000000000000000000000000000000000000000000000000000002a30783943396539466164323634303839333339614164363646663365333244326241314464463639353100000000000000000000000000000000000000000000000000000000000000000000000000000000000000000000000000000000002a30783943396539466164323634303839333339614164363646663365333244326241314464463639353100000000000000000000000000000000000000000000000000000000000000000000000000000000000000000000000000000000002a30783943396539466164323634303839333339614164363646663365333244326241314464463639353100000000000000000000000000000000000000000000000000000000000000000000000000000000000000000000000000000000002a30783943396539466164323634303839333339614164363646663365333244326241314464463639353100000000000000000000000000000000000000000000000000000000000000000000000000000000000000000000000000000000002a30783943396539466164323634303839333339614164363646663365333244326241314464463639353100000000000000000000000000000000000000000000",
        "nonce": "0x4e",
        "chainId": "0x4268"
      },
      "additionalContracts": [],
      "isFixedGasLimit": false
    },
    {
      "hash": "0x30af36d60f0bc133db3b18c3b1300886d747b2e07a7f6b8fe57b21f2f35d0fe6",
      "transactionType": "CALL",
      "contractName": null,
      "contractAddress": "0x58b610a359c870e0fc941139821a51f5aa23f14e",
      "function": "attachStorageManager(uint256,uint256,string[],string[])",
      "arguments": [
        "1",
        "1",
        "[11155111, 1946, 421614, 43113, 534351, 5611, 84532, 97]",
        "[0x92228B058f25Bc4fb333fA296dDdECBdDf6496f3, 0x92228B058f25Bc4fb333fA296dDdECBdDf6496f3, 0x92228B058f25Bc4fb333fA296dDdECBdDf6496f3, 0x92228B058f25Bc4fb333fA296dDdECBdDf6496f3, 0x92228B058f25Bc4fb333fA296dDdECBdDf6496f3, 0x92228B058f25Bc4fb333fA296dDdECBdDf6496f3, 0x92228B058f25Bc4fb333fA296dDdECBdDf6496f3, 0x92228B058f25Bc4fb333fA296dDdECBdDf6496f3]"
      ],
      "transaction": {
        "from": "0xc3ca11bd8e131471904dced927b3fb7edb453179",
        "to": "0x58b610a359c870e0fc941139821a51f5aa23f14e",
        "gas": "0x14fe14",
        "value": "0x0",
        "input": "0x2f68b48900000000000000000000000000000000000000000000000000000000000000010000000000000000000000000000000000000000000000000000000000000001000000000000000000000000000000000000000000000000000000000000008000000000000000000000000000000000000000000000000000000000000003a0000000000000000000000000000000000000000000000000000000000000000800000000000000000000000000000000000000000000000000000000000001000000000000000000000000000000000000000000000000000000000000000140000000000000000000000000000000000000000000000000000000000000018000000000000000000000000000000000000000000000000000000000000001c000000000000000000000000000000000000000000000000000000000000002000000000000000000000000000000000000000000000000000000000000000240000000000000000000000000000000000000000000000000000000000000028000000000000000000000000000000000000000000000000000000000000002c0000000000000000000000000000000000000000000000000000000000000000831313135353131310000000000000000000000000000000000000000000000000000000000000000000000000000000000000000000000000000000000000004313934360000000000000000000000000000000000000000000000000000000000000000000000000000000000000000000000000000000000000000000000063432313631340000000000000000000000000000000000000000000000000000000000000000000000000000000000000000000000000000000000000000000534333131330000000000000000000000000000000000000000000000000000000000000000000000000000000000000000000000000000000000000000000006353334333531000000000000000000000000000000000000000000000000000000000000000000000000000000000000000000000000000000000000000000043536313100000000000000000000000000000000000000000000000000000000000000000000000000000000000000000000000000000000000000000000000538343533320000000000000000000000000000000000000000000000000000000000000000000000000000000000000000000000000000000000000000000002393700000000000000000000000000000000000000000000000000000000000000000000000000000000000000000000000000000000000000000000000000080000000000000000000000000000000000000000000000000000000000000100000000000000000000000000000000000000000000000000000000000000016000000000000000000000000000000000000000000000000000000000000001c00000000000000000000000000000000000000000000000000000000000000220000000000000000000000000000000000000000000000000000000000000028000000000000000000000000000000000000000000000000000000000000002e0000000000000000000000000000000000000000000000000000000000000034000000000000000000000000000000000000000000000000000000000000003a0000000000000000000000000000000000000000000000000000000000000002a30783932323238423035386632354263346662333333664132393664446445434264446636343936663300000000000000000000000000000000000000000000000000000000000000000000000000000000000000000000000000000000002a30783932323238423035386632354263346662333333664132393664446445434264446636343936663300000000000000000000000000000000000000000000000000000000000000000000000000000000000000000000000000000000002a30783932323238423035386632354263346662333333664132393664446445434264446636343936663300000000000000000000000000000000000000000000000000000000000000000000000000000000000000000000000000000000002a30783932323238423035386632354263346662333333664132393664446445434264446636343936663300000000000000000000000000000000000000000000000000000000000000000000000000000000000000000000000000000000002a30783932323238423035386632354263346662333333664132393664446445434264446636343936663300000000000000000000000000000000000000000000000000000000000000000000000000000000000000000000000000000000002a30783932323238423035386632354263346662333333664132393664446445434264446636343936663300000000000000000000000000000000000000000000000000000000000000000000000000000000000000000000000000000000002a30783932323238423035386632354263346662333333664132393664446445434264446636343936663300000000000000000000000000000000000000000000000000000000000000000000000000000000000000000000000000000000002a30783932323238423035386632354263346662333333664132393664446445434264446636343936663300000000000000000000000000000000000000000000",
        "nonce": "0x4f",
        "chainId": "0x4268"
      },
      "additionalContracts": [],
      "isFixedGasLimit": false
    },
    {
      "hash": "0x3da80a34b80898d703234d1bdb89809aeae3becf8961823b2763e16821427ce1",
      "transactionType": "CALL",
      "contractName": null,
      "contractAddress": "0x58b610a359c870e0fc941139821a51f5aa23f14e",
      "function": "attachSentryManager(uint256,uint256,string[],string[])",
      "arguments": [
        "1",
        "1",
        "[11155111, 1946, 421614, 43113, 534351, 5611, 84532, 97]",
        "[0x2AF842C6517CF30Fb3456aeF485230e0DD085845, 0x2AF842C6517CF30Fb3456aeF485230e0DD085845, 0x2AF842C6517CF30Fb3456aeF485230e0DD085845, 0x2AF842C6517CF30Fb3456aeF485230e0DD085845, 0x2AF842C6517CF30Fb3456aeF485230e0DD085845, 0x2AF842C6517CF30Fb3456aeF485230e0DD085845, 0x2AF842C6517CF30Fb3456aeF485230e0DD085845, 0x2AF842C6517CF30Fb3456aeF485230e0DD085845]"
      ],
      "transaction": {
        "from": "0xc3ca11bd8e131471904dced927b3fb7edb453179",
        "to": "0x58b610a359c870e0fc941139821a51f5aa23f14e",
        "gas": "0x1623e0",
        "value": "0x0",
        "input": "0x349de79700000000000000000000000000000000000000000000000000000000000000010000000000000000000000000000000000000000000000000000000000000001000000000000000000000000000000000000000000000000000000000000008000000000000000000000000000000000000000000000000000000000000003a0000000000000000000000000000000000000000000000000000000000000000800000000000000000000000000000000000000000000000000000000000001000000000000000000000000000000000000000000000000000000000000000140000000000000000000000000000000000000000000000000000000000000018000000000000000000000000000000000000000000000000000000000000001c000000000000000000000000000000000000000000000000000000000000002000000000000000000000000000000000000000000000000000000000000000240000000000000000000000000000000000000000000000000000000000000028000000000000000000000000000000000000000000000000000000000000002c0000000000000000000000000000000000000000000000000000000000000000831313135353131310000000000000000000000000000000000000000000000000000000000000000000000000000000000000000000000000000000000000004313934360000000000000000000000000000000000000000000000000000000000000000000000000000000000000000000000000000000000000000000000063432313631340000000000000000000000000000000000000000000000000000000000000000000000000000000000000000000000000000000000000000000534333131330000000000000000000000000000000000000000000000000000000000000000000000000000000000000000000000000000000000000000000006353334333531000000000000000000000000000000000000000000000000000000000000000000000000000000000000000000000000000000000000000000043536313100000000000000000000000000000000000000000000000000000000000000000000000000000000000000000000000000000000000000000000000538343533320000000000000000000000000000000000000000000000000000000000000000000000000000000000000000000000000000000000000000000002393700000000000000000000000000000000000000000000000000000000000000000000000000000000000000000000000000000000000000000000000000080000000000000000000000000000000000000000000000000000000000000100000000000000000000000000000000000000000000000000000000000000016000000000000000000000000000000000000000000000000000000000000001c00000000000000000000000000000000000000000000000000000000000000220000000000000000000000000000000000000000000000000000000000000028000000000000000000000000000000000000000000000000000000000000002e0000000000000000000000000000000000000000000000000000000000000034000000000000000000000000000000000000000000000000000000000000003a0000000000000000000000000000000000000000000000000000000000000002a30783241463834324336353137434633304662333435366165463438353233306530444430383538343500000000000000000000000000000000000000000000000000000000000000000000000000000000000000000000000000000000002a30783241463834324336353137434633304662333435366165463438353233306530444430383538343500000000000000000000000000000000000000000000000000000000000000000000000000000000000000000000000000000000002a30783241463834324336353137434633304662333435366165463438353233306530444430383538343500000000000000000000000000000000000000000000000000000000000000000000000000000000000000000000000000000000002a30783241463834324336353137434633304662333435366165463438353233306530444430383538343500000000000000000000000000000000000000000000000000000000000000000000000000000000000000000000000000000000002a30783241463834324336353137434633304662333435366165463438353233306530444430383538343500000000000000000000000000000000000000000000000000000000000000000000000000000000000000000000000000000000002a30783241463834324336353137434633304662333435366165463438353233306530444430383538343500000000000000000000000000000000000000000000000000000000000000000000000000000000000000000000000000000000002a30783241463834324336353137434633304662333435366165463438353233306530444430383538343500000000000000000000000000000000000000000000000000000000000000000000000000000000000000000000000000000000002a30783241463834324336353137434633304662333435366165463438353233306530444430383538343500000000000000000000000000000000000000000000",
        "nonce": "0x50",
        "chainId": "0x4268"
      },
      "additionalContracts": [],
      "isFixedGasLimit": false
    }
  ],
  "receipts": [
    {
      "status": "0x1",
      "cumulativeGasUsed": "0xba2827",
      "logs": [],
      "logsBloom": "0x00000000000000000000000000000000000000000000000000000000000000000000000000000000000000000000000000000000000000000000000000000000000000000000000000000000000000000000000000000000000000000000000000000000000000000000000000000000000000000000000000000000000000000000000000000000000000000000000000000000000000000000000000000000000000000000000000000000000000000000000000000000000000000000000000000000000000000000000000000000000000000000000000000000000000000000000000000000000000000000000000000000000000000000000000000000",
      "type": "0x2",
      "transactionHash": "0x33e03ac75de737f6fc8ec599b815662ac754f1fc91f513a238360a4330e15a34",
      "transactionIndex": "0x18",
      "blockHash": "0xefb8b98a32745fa39acbee7d4ec76e351e956a1ef281afa55031d0757d8a0486",
      "blockNumber": "0x41b0c4",
      "gasUsed": "0x71c0",
      "effectiveGasPrice": "0xf4253",
      "blobGasUsed": "0x0",
      "from": "0xc3ca11bd8e131471904dced927b3fb7edb453179",
      "to": "0x2f925d6512b2bbb00f5a36d8b18e01fcf35f7dc7",
      "contractAddress": null
    },
    {
      "status": "0x1",
      "cumulativeGasUsed": "0x19e7669",
      "logs": [
        {
          "address": "0x2f925d6512b2bbb00f5a36d8b18e01fcf35f7dc7",
          "topics": [
            "0x1394cfab38f3fc78ed77ea6f9318782a446d96e7dc8e9a6b0149f6be25c08bcf",
            "0x000000000000000000000000108642b1b2390ac3f54e3b45369b7c660aefffad"
          ],
          "data": "0x",
          "blockHash": "0xbb9999a5c744295e4c24f4bc8015ef1584c3a9a1f950f5e7ac4417f563f2bc0e",
          "blockNumber": "0x41b0c5",
          "transactionHash": "0x1bacb2a179e2ee984ac8dc959cee42b926773d4a07fe30f743da255dde10c59e",
          "transactionIndex": "0x10",
          "logIndex": "0x41",
          "removed": false
        }
      ],
      "logsBloom": "0x00000000000000000000000000000000000000000000000000000000000000000000000000000008000000000000000000000000000000000000000000000000000000000000000000000000000000000000001000000000000000000000000000000000000000000000000000000000000000000000000000000000000000000000000500000000000000000000000000000000000000000000000000000000000000000000000000000000000000000000000100000000000000000000004800001000000000000000000000004000000000000000000000000000000000000000000000000000000000000000000000000000000000000000000000000000",
      "type": "0x2",
      "transactionHash": "0x1bacb2a179e2ee984ac8dc959cee42b926773d4a07fe30f743da255dde10c59e",
      "transactionIndex": "0x10",
      "blockHash": "0xbb9999a5c744295e4c24f4bc8015ef1584c3a9a1f950f5e7ac4417f563f2bc0e",
      "blockNumber": "0x41b0c5",
      "gasUsed": "0x1e303",
      "effectiveGasPrice": "0xf4252",
      "blobGasUsed": "0x0",
      "from": "0xc3ca11bd8e131471904dced927b3fb7edb453179",
      "to": "0x2f925d6512b2bbb00f5a36d8b18e01fcf35f7dc7",
      "contractAddress": null
    },
    {
      "status": "0x1",
      "cumulativeGasUsed": "0x283d21",
      "logs": [],
      "logsBloom": "0x00000000000000000000000000000000000000000000000000000000000000000000000000000000000000000000000000000000000000000000000000000000000000000000000000000000000000000000000000000000000000000000000000000000000000000000000000000000000000000000000000000000000000000000000000000000000000000000000000000000000000000000000000000000000000000000000000000000000000000000000000000000000000000000000000000000000000000000000000000000000000000000000000000000000000000000000000000000000000000000000000000000000000000000000000000000",
      "type": "0x2",
      "transactionHash": "0xe4a1a0afc94362d51c3bac7a70b3cd6e4fec7260abf26be99ed0e0b079e3cb3e",
      "transactionIndex": "0xa",
      "blockHash": "0xd36dd957f85396c07e456f2331adb41378eb16aa29eea269b46d3b647495e542",
      "blockNumber": "0x41b0c6",
      "gasUsed": "0x1994a",
      "effectiveGasPrice": "0xf4252",
      "blobGasUsed": "0x0",
      "from": "0xc3ca11bd8e131471904dced927b3fb7edb453179",
      "to": "0x2f925d6512b2bbb00f5a36d8b18e01fcf35f7dc7",
      "contractAddress": null
    },
    {
      "status": "0x1",
      "cumulativeGasUsed": "0xe1ceb6",
      "logs": [],
      "logsBloom": "0x00000000000000000000000000000000000000000000000000000000000000000000000000000000000000000000000000000000000000000000000000000000000000000000000000000000000000000000000000000000000000000000000000000000000000000000000000000000000000000000000000000000000000000000000000000000000000000000000000000000000000000000000000000000000000000000000000000000000000000000000000000000000000000000000000000000000000000000000000000000000000000000000000000000000000000000000000000000000000000000000000000000000000000000000000000000",
      "type": "0x2",
      "transactionHash": "0xa227e423aee81ca4ab49eb3db1771a0c76165034b7d6077a814262689541f4d4",
      "transactionIndex": "0x1d",
      "blockHash": "0x95ec5ac5a19708e0def07017a5062049b1120fe52a4da4fde882417759043d51",
      "blockNumber": "0x41b0c8",
      "gasUsed": "0x1936a",
      "effectiveGasPrice": "0xf4250",
      "blobGasUsed": "0x0",
      "from": "0xc3ca11bd8e131471904dced927b3fb7edb453179",
      "to": "0x2f925d6512b2bbb00f5a36d8b18e01fcf35f7dc7",
      "contractAddress": null
    },
    {
      "status": "0x1",
      "cumulativeGasUsed": "0x6f45c9",
      "logs": [],
      "logsBloom": "0x00000000000000000000000000000000000000000000000000000000000000000000000000000000000000000000000000000000000000000000000000000000000000000000000000000000000000000000000000000000000000000000000000000000000000000000000000000000000000000000000000000000000000000000000000000000000000000000000000000000000000000000000000000000000000000000000000000000000000000000000000000000000000000000000000000000000000000000000000000000000000000000000000000000000000000000000000000000000000000000000000000000000000000000000000000000",
      "type": "0x2",
      "transactionHash": "0x30a270275176b1b07b8170f71fb56172e5d365a6dbe13f6debd460f3a9de7cc4",
      "transactionIndex": "0x12",
      "blockHash": "0xd34008dc10b1f00f63247619ad44c6a9c3e3b7f0682ae7f48ca6a5c04feec77c",
      "blockNumber": "0x41b0c9",
      "gasUsed": "0x1965a",
      "effectiveGasPrice": "0xf4251",
      "blobGasUsed": "0x0",
      "from": "0xc3ca11bd8e131471904dced927b3fb7edb453179",
      "to": "0x2f925d6512b2bbb00f5a36d8b18e01fcf35f7dc7",
      "contractAddress": null
    },
    {
      "status": "0x1",
      "cumulativeGasUsed": "0x57c8b2",
      "logs": [],
      "logsBloom": "0x00000000000000000000000000000000000000000000000000000000000000000000000000000000000000000000000000000000000000000000000000000000000000000000000000000000000000000000000000000000000000000000000000000000000000000000000000000000000000000000000000000000000000000000000000000000000000000000000000000000000000000000000000000000000000000000000000000000000000000000000000000000000000000000000000000000000000000000000000000000000000000000000000000000000000000000000000000000000000000000000000000000000000000000000000000000",
      "type": "0x2",
      "transactionHash": "0xc456bd3aa881f69096cc171dc093a7d95ffc3233ef37f4ecccbce751a1b66482",
      "transactionIndex": "0x10",
      "blockHash": "0x1a8a7787258ba05ff18ff322cd6f716c17e0c4096e83608a30f4f804579e65f9",
      "blockNumber": "0x41b0ca",
      "gasUsed": "0x194e2",
      "effectiveGasPrice": "0xf4252",
      "blobGasUsed": "0x0",
      "from": "0xc3ca11bd8e131471904dced927b3fb7edb453179",
      "to": "0x2f925d6512b2bbb00f5a36d8b18e01fcf35f7dc7",
      "contractAddress": null
    },
    {
      "status": "0x1",
      "cumulativeGasUsed": "0xc54f01",
      "logs": [],
      "logsBloom": "0x00000000000000000000000000000000000000000000000000000000000000000000000000000000000000000000000000000000000000000000000000000000000000000000000000000000000000000000000000000000000000000000000000000000000000000000000000000000000000000000000000000000000000000000000000000000000000000000000000000000000000000000000000000000000000000000000000000000000000000000000000000000000000000000000000000000000000000000000000000000000000000000000000000000000000000000000000000000000000000000000000000000000000000000000000000000",
      "type": "0x2",
      "transactionHash": "0x14ea270e020f6aaa805e8d1b901601455063940272e850fd22a605026d67c5fb",
      "transactionIndex": "0xc",
      "blockHash": "0x2a925d7ff5e641c9359cd65b6a5190bf71adb92f1f47f13a480d3a67fb130f84",
      "blockNumber": "0x41b0cb",
      "gasUsed": "0x1965a",
      "effectiveGasPrice": "0xf4252",
      "blobGasUsed": "0x0",
      "from": "0xc3ca11bd8e131471904dced927b3fb7edb453179",
      "to": "0x2f925d6512b2bbb00f5a36d8b18e01fcf35f7dc7",
      "contractAddress": null
    },
    {
      "status": "0x1",
      "cumulativeGasUsed": "0xa0e53b",
      "logs": [],
      "logsBloom": "0x00000000000000000000000000000000000000000000000000000000000000000000000000000000000000000000000000000000000000000000000000000000000000000000000000000000000000000000000000000000000000000000000000000000000000000000000000000000000000000000000000000000000000000000000000000000000000000000000000000000000000000000000000000000000000000000000000000000000000000000000000000000000000000000000000000000000000000000000000000000000000000000000000000000000000000000000000000000000000000000000000000000000000000000000000000000",
      "type": "0x2",
      "transactionHash": "0x3a63d4e2b1dfaf330bc8137bc05152c7eda867158bab3626c96ec2b1a9204d14",
      "transactionIndex": "0x33",
      "blockHash": "0x29cd23dbc7af869d5a52a1491109b9e434725df4cda141a5373db22f9ac9fe56",
      "blockNumber": "0x41b0cc",
      "gasUsed": "0x1936a",
      "effectiveGasPrice": "0xf4251",
      "blobGasUsed": "0x0",
      "from": "0xc3ca11bd8e131471904dced927b3fb7edb453179",
      "to": "0x2f925d6512b2bbb00f5a36d8b18e01fcf35f7dc7",
      "contractAddress": null
    },
    {
      "status": "0x1",
      "cumulativeGasUsed": "0x17c9bc",
      "logs": [],
      "logsBloom": "0x00000000000000000000000000000000000000000000000000000000000000000000000000000000000000000000000000000000000000000000000000000000000000000000000000000000000000000000000000000000000000000000000000000000000000000000000000000000000000000000000000000000000000000000000000000000000000000000000000000000000000000000000000000000000000000000000000000000000000000000000000000000000000000000000000000000000000000000000000000000000000000000000000000000000000000000000000000000000000000000000000000000000000000000000000000000",
      "type": "0x2",
      "transactionHash": "0x8ee76dc515fdb02af36347ec45c48392d7638d94d528df24ed41100169ccbb00",
      "transactionIndex": "0x3",
      "blockHash": "0x0f2ab073b51c99974f87061560ab0a7c6bc0cb1dc4d2a9139dbb11f73edc0ab2",
      "blockNumber": "0x41b0cd",
      "gasUsed": "0x194e2",
      "effectiveGasPrice": "0xf4251",
      "blobGasUsed": "0x0",
      "from": "0xc3ca11bd8e131471904dced927b3fb7edb453179",
      "to": "0x2f925d6512b2bbb00f5a36d8b18e01fcf35f7dc7",
      "contractAddress": null
    },
    {
      "status": "0x1",
      "cumulativeGasUsed": "0x7262c6",
      "logs": [],
      "logsBloom": "0x00000000000000000000000000000000000000000000000000000000000000000000000000000000000000000000000000000000000000000000000000000000000000000000000000000000000000000000000000000000000000000000000000000000000000000000000000000000000000000000000000000000000000000000000000000000000000000000000000000000000000000000000000000000000000000000000000000000000000000000000000000000000000000000000000000000000000000000000000000000000000000000000000000000000000000000000000000000000000000000000000000000000000000000000000000000",
      "type": "0x2",
      "transactionHash": "0x82b51169ca9511c08ed68e4ab15fb87dcacf34e464919eeecac14fd48537728d",
      "transactionIndex": "0x1d",
      "blockHash": "0xeb9fbcf6e687af2244e3cfb036648d3a3278d1534655a56cef182fe9c0a0a72e",
      "blockNumber": "0x41b0ce",
      "gasUsed": "0x1907a",
      "effectiveGasPrice": "0xf4250",
      "blobGasUsed": "0x0",
      "from": "0xc3ca11bd8e131471904dced927b3fb7edb453179",
      "to": "0x2f925d6512b2bbb00f5a36d8b18e01fcf35f7dc7",
      "contractAddress": null
    },
    {
      "status": "0x1",
      "cumulativeGasUsed": "0x45b61e",
      "logs": [
        {
          "address": "0x2f925d6512b2bbb00f5a36d8b18e01fcf35f7dc7",
          "topics": [
            "0x128b13f5a7f3d4a8f9ebafb4d8c23d5f6f5a287c83c1e81e79b1f80c1708a5fb",
            "0x0000000000000000000000000000000000000000000000000000000000000000"
          ],
          "data": "0x0000000000000000000000000000000000000000000000000000000000000002",
          "blockHash": "0xf4fa3162d86f60a9459f66edb52b82187ba800f2d7c4d64c0bcaf4d49267c66f",
          "blockNumber": "0x41b0cf",
          "transactionHash": "0x3efe0b90a6c974bd77a50e7dd94755ed5f1f5bce87a77c649e0614ccd97c71e1",
          "transactionIndex": "0x16",
          "logIndex": "0x3e",
          "removed": false
        }
      ],
      "logsBloom": "0x00000000000000000000000000000000000000000000000000000000000000000000000000000000000000000000000000000000000000000000000000000000000000000000000000000000000000000000000000000000000000000000000000000000020000000000000000000800000000000000000009000000000000000000000400000000000000000000000000000000000000000000000000000000000000000000001000000000000000000000000000000000000000000000004000000000000000000000000000004000000000000000000000000000000020000000000000000000000000000000000000000000000000000000000000000000",
      "type": "0x2",
      "transactionHash": "0x3efe0b90a6c974bd77a50e7dd94755ed5f1f5bce87a77c649e0614ccd97c71e1",
      "transactionIndex": "0x16",
      "blockHash": "0xf4fa3162d86f60a9459f66edb52b82187ba800f2d7c4d64c0bcaf4d49267c66f",
      "blockNumber": "0x41b0cf",
      "gasUsed": "0xe65e",
      "effectiveGasPrice": "0xf424f",
      "blobGasUsed": "0x0",
      "from": "0xc3ca11bd8e131471904dced927b3fb7edb453179",
      "to": "0x2f925d6512b2bbb00f5a36d8b18e01fcf35f7dc7",
      "contractAddress": null
    },
    {
      "status": "0x1",
      "cumulativeGasUsed": "0x3cb336",
      "logs": [
        {
          "address": "0x2f925d6512b2bbb00f5a36d8b18e01fcf35f7dc7",
          "topics": [
            "0x128b13f5a7f3d4a8f9ebafb4d8c23d5f6f5a287c83c1e81e79b1f80c1708a5fb",
            "0x0000000000000000000000000000000000000000000000000000000000000001"
          ],
          "data": "0x000000000000000000000000000000000000000000000000000000000000000a",
          "blockHash": "0x4ae507367d1e3cdbe068f11005220308c29d9928ebdba75a33ce3c72a712547a",
          "blockNumber": "0x41b0d0",
          "transactionHash": "0xcf168a48845ae56eb2e2858f60f3dfbfd82664dd619fb7f60b9fed99d5f3194b",
          "transactionIndex": "0xb",
          "logIndex": "0x14",
          "removed": false
        }
      ],
      "logsBloom": "0x00000000000000000000000000000000000000000000000000000000000000000000000000000000000000000000000000000000000000000000000000040000000000000000000000000000000000000000000000040000000000000000000000000000000000000000000000000000000000000000000009000000000000000000000400000000000000000000000000000000000000000000000000000000000000000000001000000000000000000000000000000000000000000000004000000000000000000000000000004000000000000000000000000000000040000000000000000000000000000000000000000000000000000000000000000000",
      "type": "0x2",
      "transactionHash": "0xcf168a48845ae56eb2e2858f60f3dfbfd82664dd619fb7f60b9fed99d5f3194b",
      "transactionIndex": "0xb",
      "blockHash": "0x4ae507367d1e3cdbe068f11005220308c29d9928ebdba75a33ce3c72a712547a",
      "blockNumber": "0x41b0d0",
      "gasUsed": "0xe66a",
      "effectiveGasPrice": "0xf4250",
      "blobGasUsed": "0x0",
      "from": "0xc3ca11bd8e131471904dced927b3fb7edb453179",
      "to": "0x2f925d6512b2bbb00f5a36d8b18e01fcf35f7dc7",
      "contractAddress": null
    },
    {
      "status": "0x1",
      "cumulativeGasUsed": "0xf1e115",
      "logs": [
        {
          "address": "0x2f925d6512b2bbb00f5a36d8b18e01fcf35f7dc7",
          "topics": [
            "0x128b13f5a7f3d4a8f9ebafb4d8c23d5f6f5a287c83c1e81e79b1f80c1708a5fb",
            "0x0000000000000000000000000000000000000000000000000000000000000002"
          ],
          "data": "0x0000000000000000000000000000000000000000000000000000000000000001",
          "blockHash": "0x9c02c762543e1235a58b79519f48148e74e7a26ce019811040e6a9d723cdc52e",
          "blockNumber": "0x41b0d1",
          "transactionHash": "0xbb77e14910693a11bd675907853a8bb57b1502a11f0186882945c8661cb5bca6",
          "transactionIndex": "0x22",
          "logIndex": "0x71",
          "removed": false
        }
      ],
      "logsBloom": "0x04000000000000000000000000000000000000000000000000000000000000000000000000000000000000000000000000000000000000000000000000000000000000000000000000000000000000000000000000000000000000000000000000000000000000000000000000000000000000000000000009000000000000000000000400000000000000000000000000000000000000000000000000000000000000000000001000000100000000000000000000000000000000000000004000000000000000000000000000004000000000000000000000000000000000000000000000000000000000000000000000000000008000000000000000000000",
      "type": "0x2",
      "transactionHash": "0xbb77e14910693a11bd675907853a8bb57b1502a11f0186882945c8661cb5bca6",
      "transactionIndex": "0x22",
      "blockHash": "0x9c02c762543e1235a58b79519f48148e74e7a26ce019811040e6a9d723cdc52e",
      "blockNumber": "0x41b0d1",
      "gasUsed": "0xe66a",
      "effectiveGasPrice": "0xf424f",
      "blobGasUsed": "0x0",
      "from": "0xc3ca11bd8e131471904dced927b3fb7edb453179",
      "to": "0x2f925d6512b2bbb00f5a36d8b18e01fcf35f7dc7",
      "contractAddress": null
    },
    {
      "status": "0x1",
      "cumulativeGasUsed": "0x4d757f",
      "logs": [
        {
          "address": "0x2f925d6512b2bbb00f5a36d8b18e01fcf35f7dc7",
          "topics": [
            "0x128b13f5a7f3d4a8f9ebafb4d8c23d5f6f5a287c83c1e81e79b1f80c1708a5fb",
            "0x0000000000000000000000000000000000000000000000000000000000000003"
          ],
          "data": "0x0000000000000000000000000000000000000000000000000000000000000004",
          "blockHash": "0xc892284ca1e1962b65be9889194b2e1fc4816d66fd15a3d81d89b71b8dc39ae1",
          "blockNumber": "0x41b0d2",
          "transactionHash": "0x01feade4148b89810f3e5abc58550d1dcea8d4b3c8863b4727eccb9768268298",
          "transactionIndex": "0x19",
          "logIndex": "0x3e",
          "removed": false
        }
      ],
      "logsBloom": "0x00000000000000000000000000000000000000000000000000000000000000000000000000000000000000000000000000000000020000000000000000000000000000000000000000000000000000000000000000000000000000000000000000000000000000000000000000000000000000000000000009000000000000000000000400000000000000000000000000000000000000000000000000000000000000000000001000000000000000000000000000800000000000000000404000000000000000000000000000004000000000000000000000000000000000000000000000000000000000000000000000000000000000000000000000000000",
      "type": "0x2",
      "transactionHash": "0x01feade4148b89810f3e5abc58550d1dcea8d4b3c8863b4727eccb9768268298",
      "transactionIndex": "0x19",
      "blockHash": "0xc892284ca1e1962b65be9889194b2e1fc4816d66fd15a3d81d89b71b8dc39ae1",
      "blockNumber": "0x41b0d2",
      "gasUsed": "0xe66a",
      "effectiveGasPrice": "0xf4250",
      "blobGasUsed": "0x0",
      "from": "0xc3ca11bd8e131471904dced927b3fb7edb453179",
      "to": "0x2f925d6512b2bbb00f5a36d8b18e01fcf35f7dc7",
      "contractAddress": null
    },
    {
      "status": "0x1",
      "cumulativeGasUsed": "0x422484",
      "logs": [
        {
          "address": "0x2f925d6512b2bbb00f5a36d8b18e01fcf35f7dc7",
          "topics": [
            "0x128b13f5a7f3d4a8f9ebafb4d8c23d5f6f5a287c83c1e81e79b1f80c1708a5fb",
            "0x0000000000000000000000000000000000000000000000000000000000000004"
          ],
          "data": "0x0000000000000000000000000000000000000000000000000000000000000004",
          "blockHash": "0x1f542e706bb0931b3deb35a6a719e9510d0782f7a797a4a1081d0b219dd228a0",
          "blockNumber": "0x41b0d3",
          "transactionHash": "0x94d2b8441e1b673c2d3013265c4660da6fba0caf861edb44e62e2d01e836b1b3",
          "transactionIndex": "0x14",
          "logIndex": "0x31",
          "removed": false
        }
      ],
      "logsBloom": "0x00000000000000000000000000000000000000000000000000000000000000000000000000000000000000000000000000000000000000000000000000000000000000000000000000000000000000000000000000000000000000000000000008000000000000000000000000000000000000000000000009000000000000000000000400000000000000000000000000000000000000000000000000000000000000000000001000000000000000000000000000000000002000000000004000000000000000000000000000004000000000008000000000000000000000000000000000000000000000000000000000000000000000000000000000000000",
      "type": "0x2",
      "transactionHash": "0x94d2b8441e1b673c2d3013265c4660da6fba0caf861edb44e62e2d01e836b1b3",
      "transactionIndex": "0x14",
      "blockHash": "0x1f542e706bb0931b3deb35a6a719e9510d0782f7a797a4a1081d0b219dd228a0",
      "blockNumber": "0x41b0d3",
      "gasUsed": "0xe66a",
      "effectiveGasPrice": "0xf4250",
      "blobGasUsed": "0x0",
      "from": "0xc3ca11bd8e131471904dced927b3fb7edb453179",
      "to": "0x2f925d6512b2bbb00f5a36d8b18e01fcf35f7dc7",
      "contractAddress": null
    },
    {
      "status": "0x1",
      "cumulativeGasUsed": "0x14d3b5",
      "logs": [
        {
          "address": "0x2f925d6512b2bbb00f5a36d8b18e01fcf35f7dc7",
          "topics": [
            "0x128b13f5a7f3d4a8f9ebafb4d8c23d5f6f5a287c83c1e81e79b1f80c1708a5fb",
            "0x0000000000000000000000000000000000000000000000000000000000000005"
          ],
          "data": "0x0000000000000000000000000000000000000000000000000000000000000004",
          "blockHash": "0x76acf519158deede585e6e44b42517a17191fcb294dfec5877923889b270354d",
          "blockNumber": "0x41b0d4",
          "transactionHash": "0x4018066f077e13e80e28aaa277802f33457ba9a2151b2b2f2b268896e6d11cbb",
          "transactionIndex": "0x8",
          "logIndex": "0xe",
          "removed": false
        }
      ],
      "logsBloom": "0x00000000000000000000000000000000000000000000000000000000000000000000000000000000000000000000000000000000000000000000000000000000000010000000000000000000000000000000000000000000000000000000000000000000000000000000000000000000000000000000000009000000000000000000000400000000000000000000001000000800000000000000000000000000000000000000001000000000000000000000000000000000000000000000004000000000000000000000000000004000000000000000000000000000000000000000000000000000000000000000000000000000000000000000000000000000",
      "type": "0x2",
      "transactionHash": "0x4018066f077e13e80e28aaa277802f33457ba9a2151b2b2f2b268896e6d11cbb",
      "transactionIndex": "0x8",
      "blockHash": "0x76acf519158deede585e6e44b42517a17191fcb294dfec5877923889b270354d",
      "blockNumber": "0x41b0d4",
      "gasUsed": "0xe66a",
      "effectiveGasPrice": "0xf4251",
      "blobGasUsed": "0x0",
      "from": "0xc3ca11bd8e131471904dced927b3fb7edb453179",
      "to": "0x2f925d6512b2bbb00f5a36d8b18e01fcf35f7dc7",
      "contractAddress": null
    },
    {
      "status": "0x1",
      "cumulativeGasUsed": "0x37ea51",
      "logs": [
        {
          "address": "0x2f925d6512b2bbb00f5a36d8b18e01fcf35f7dc7",
          "topics": [
            "0x128b13f5a7f3d4a8f9ebafb4d8c23d5f6f5a287c83c1e81e79b1f80c1708a5fb",
            "0x0000000000000000000000000000000000000000000000000000000000000006"
          ],
          "data": "0x0000000000000000000000000000000000000000000000000000000000000008",
          "blockHash": "0xe6d8807fcc62fdc1e0dfa08f549b4776cabe75a4af21e192d25e83e827bc807e",
          "blockNumber": "0x41b0d5",
          "transactionHash": "0x0ddd253178766822d0ec1b769028954e45199af962a3a66735d4360a0b00b74b",
          "transactionIndex": "0xf",
          "logIndex": "0x30",
          "removed": false
        }
      ],
      "logsBloom": "0x00000000000000000000000000000000000000000000000000000000000000000000000000000000000000000000000000000000000400000000000000000000000000000000000000000000000000000000000000000000000000000000000000000000000000000000000000000000000000000000000009000000000000000000000400000000000000000000000000000000000000000000000000000000000000000000001000000000000000000000000000000000000000080000004000000000000000000000000000004000000000000000000000000000000000000000000000000000000000000000000000000000000000000000000000000000",
      "type": "0x2",
      "transactionHash": "0x0ddd253178766822d0ec1b769028954e45199af962a3a66735d4360a0b00b74b",
      "transactionIndex": "0xf",
      "blockHash": "0xe6d8807fcc62fdc1e0dfa08f549b4776cabe75a4af21e192d25e83e827bc807e",
      "blockNumber": "0x41b0d5",
      "gasUsed": "0xe66a",
      "effectiveGasPrice": "0xf4251",
      "blobGasUsed": "0x0",
      "from": "0xc3ca11bd8e131471904dced927b3fb7edb453179",
      "to": "0x2f925d6512b2bbb00f5a36d8b18e01fcf35f7dc7",
      "contractAddress": null
    },
    {
      "status": "0x1",
      "cumulativeGasUsed": "0x88f91e",
      "logs": [
        {
          "address": "0x2f925d6512b2bbb00f5a36d8b18e01fcf35f7dc7",
          "topics": [
            "0x128b13f5a7f3d4a8f9ebafb4d8c23d5f6f5a287c83c1e81e79b1f80c1708a5fb",
            "0x0000000000000000000000000000000000000000000000000000000000000007"
          ],
          "data": "0x0000000000000000000000000000000000000000000000000000000000000004",
          "blockHash": "0x526a0cb97598d06db185aff9588ce6f89b74b552697e3d28c8c84b16012d2254",
          "blockNumber": "0x41b0d6",
          "transactionHash": "0x231d05c2291bef087ab6705c61e8a1ebf6441d209fc9c4ece7a645e2cc2d67ad",
          "transactionIndex": "0x27",
          "logIndex": "0x76",
          "removed": false
        }
      ],
      "logsBloom": "0x00000000000000000000000000000000000000000000000000000000000000000000000000000000000000000000000000001000000000000000000000000000000020000000000000000000000000000000000000000000000000000000000000000000000000000000000000000000000000000000000009000000000000000000000400000000000000000000000000000000000000000000000000000000000000000000001000000000000000000000000000000000000000000000004000000000000000000000000000004000000000000000000000000100000000000000000000000000000000000000000000000000000000000000000000000000",
      "type": "0x2",
      "transactionHash": "0x231d05c2291bef087ab6705c61e8a1ebf6441d209fc9c4ece7a645e2cc2d67ad",
      "transactionIndex": "0x27",
      "blockHash": "0x526a0cb97598d06db185aff9588ce6f89b74b552697e3d28c8c84b16012d2254",
      "blockNumber": "0x41b0d6",
      "gasUsed": "0xe66a",
      "effectiveGasPrice": "0xf4250",
      "blobGasUsed": "0x0",
      "from": "0xc3ca11bd8e131471904dced927b3fb7edb453179",
      "to": "0x2f925d6512b2bbb00f5a36d8b18e01fcf35f7dc7",
      "contractAddress": null
    },
    {
      "status": "0x1",
      "cumulativeGasUsed": "0x155500",
      "logs": [
        {
          "address": "0x2f925d6512b2bbb00f5a36d8b18e01fcf35f7dc7",
          "topics": [
            "0x128b13f5a7f3d4a8f9ebafb4d8c23d5f6f5a287c83c1e81e79b1f80c1708a5fb",
            "0x0000000000000000000000000000000000000000000000000000000000000008"
          ],
          "data": "0x000000000000000000000000000000000000000000000000000000000000000a",
          "blockHash": "0xdc87308021aff3ca1a8bd91931ce092a7e5fc2efb06278db671fa46ca7c7500e",
          "blockNumber": "0x41b0d7",
          "transactionHash": "0xdd99c50e1f1659a330f8e15455d70eb525adfd19c0be873adfc7acbd65d60de5",
          "transactionIndex": "0x6",
          "logIndex": "0x16",
          "removed": false
        }
      ],
      "logsBloom": "0x00000000000000000000000000000000000000000000000000000000000000000000000000000000000000000000000000000000000080000000000000000000000000000000000000000000000000000000000000000000000000000000000000000000000000000000000000000000000000000000000009000000000000000080000400000000000000000000000000000000000000000000000000000000000000000000001000000000000000000000000000000000000000000000004040000000000000000000000000004000000000000000000000000000000000000000000000000000000000000000000000000000000000000000000000000000",
      "type": "0x2",
      "transactionHash": "0xdd99c50e1f1659a330f8e15455d70eb525adfd19c0be873adfc7acbd65d60de5",
      "transactionIndex": "0x6",
      "blockHash": "0xdc87308021aff3ca1a8bd91931ce092a7e5fc2efb06278db671fa46ca7c7500e",
      "blockNumber": "0x41b0d7",
      "gasUsed": "0xe66a",
      "effectiveGasPrice": "0xf4250",
      "blobGasUsed": "0x0",
      "from": "0xc3ca11bd8e131471904dced927b3fb7edb453179",
      "to": "0x2f925d6512b2bbb00f5a36d8b18e01fcf35f7dc7",
      "contractAddress": null
    },
    {
      "status": "0x1",
      "cumulativeGasUsed": "0x144f98",
      "logs": [
        {
          "address": "0x2f925d6512b2bbb00f5a36d8b18e01fcf35f7dc7",
          "topics": [
            "0x128b13f5a7f3d4a8f9ebafb4d8c23d5f6f5a287c83c1e81e79b1f80c1708a5fb",
            "0x0000000000000000000000000000000000000000000000000000000000000009"
          ],
          "data": "0x0000000000000000000000000000000000000000000000000000000000000008",
          "blockHash": "0x211c3d02a5628e74b5281443029817886176dd622206870e60d800d1705ac7d2",
          "blockNumber": "0x41b0d8",
          "transactionHash": "0xb2277e009af6211e505d6c3d6c251d7de8a42477d94ebf31be78fa4c7a806a7a",
          "transactionIndex": "0x7",
          "logIndex": "0x10",
          "removed": false
        }
      ],
      "logsBloom": "0x00000000000000000000000000000000000000000000000000000000000000000000000000000000000000000000000000000000000000000000000000200000000000000000000000000000000000000000000000000000000000000000000000000000000000000000000000000000000000000000000009000000000000000000000400000000000000000000000000001000000000000000000000000000000000000000001000000000000000000000000000000000000000000000004000000000000000000000000000004000000000000000000000000000000000000000000000000000000000000000000000000000000000000000000000800000",
      "type": "0x2",
      "transactionHash": "0xb2277e009af6211e505d6c3d6c251d7de8a42477d94ebf31be78fa4c7a806a7a",
      "transactionIndex": "0x7",
      "blockHash": "0x211c3d02a5628e74b5281443029817886176dd622206870e60d800d1705ac7d2",
      "blockNumber": "0x41b0d8",
      "gasUsed": "0xe66a",
      "effectiveGasPrice": "0xf4250",
      "blobGasUsed": "0x0",
      "from": "0xc3ca11bd8e131471904dced927b3fb7edb453179",
      "to": "0x2f925d6512b2bbb00f5a36d8b18e01fcf35f7dc7",
      "contractAddress": null
    },
    {
      "status": "0x1",
      "cumulativeGasUsed": "0x1c4ea3",
      "logs": [
        {
          "address": "0x2f925d6512b2bbb00f5a36d8b18e01fcf35f7dc7",
          "topics": [
            "0x128b13f5a7f3d4a8f9ebafb4d8c23d5f6f5a287c83c1e81e79b1f80c1708a5fb",
            "0x000000000000000000000000000000000000000000000000000000000000000a"
          ],
          "data": "0x0000000000000000000000000000000000000000000000000000000000000008",
          "blockHash": "0xfa93c04bfbfc53f200cd8297f6d5a5b50c76c27b92b56594ffb4d8c2479bbf77",
          "blockNumber": "0x41b0d9",
          "transactionHash": "0x67cb7420448c85a318b8c4bb980d0712a79cee96f11821d1e10f093d23a56305",
          "transactionIndex": "0xb",
          "logIndex": "0x21",
          "removed": false
        }
      ],
      "logsBloom": "0x00000000000000000000000000000000000000000000000000000000000000000000000000000000000000000000000000000000040000000020000000000000000000000000000000000000000000000000000000000000000000000000000000000000000000000000000000000000000000000000000009000000000000000000000400000000010000000000000000000000000000000000000000000000000000000000001000000000000000000000000000000000000000000000004000000000000000000000000000004000000000000000000000000000000000000000000000000000000000000000000000000000000000000000000000000000",
      "type": "0x2",
      "transactionHash": "0x67cb7420448c85a318b8c4bb980d0712a79cee96f11821d1e10f093d23a56305",
      "transactionIndex": "0xb",
      "blockHash": "0xfa93c04bfbfc53f200cd8297f6d5a5b50c76c27b92b56594ffb4d8c2479bbf77",
      "blockNumber": "0x41b0d9",
      "gasUsed": "0xe66a",
      "effectiveGasPrice": "0xf4250",
      "blobGasUsed": "0x0",
      "from": "0xc3ca11bd8e131471904dced927b3fb7edb453179",
      "to": "0x2f925d6512b2bbb00f5a36d8b18e01fcf35f7dc7",
      "contractAddress": null
    },
    {
      "status": "0x1",
      "cumulativeGasUsed": "0x41a821",
      "logs": [
        {
          "address": "0x2f925d6512b2bbb00f5a36d8b18e01fcf35f7dc7",
          "topics": [
            "0x128b13f5a7f3d4a8f9ebafb4d8c23d5f6f5a287c83c1e81e79b1f80c1708a5fb",
            "0x000000000000000000000000000000000000000000000000000000000000000b"
          ],
          "data": "0x0000000000000000000000000000000000000000000000000000000000000008",
          "blockHash": "0x77527e1fa7fe62a725e7b2677b83079bae481d69c9cb680bcf97a0372a973aee",
          "blockNumber": "0x41b0da",
          "transactionHash": "0x56b2dbe086be53951359a267e56f24772542d00c27c2fbf3396901fcbc9ca1b0",
          "transactionIndex": "0xd",
          "logIndex": "0x1f",
          "removed": false
        }
      ],
      "logsBloom": "0x00000000000000000000004000000000000000000000000000000000000000000000000000000000000000000000000000000000000000000000000000000000000000000000000000000000000000000000000000000000000000000000000000000000000000000000000000000000000000000000000009000000000000000000000400000000000000000000000000000000000000000000000000000000000000000000001000000000000000000000000000000000000000000000004000000000000000000000000000004000002000000000000000000000000000000000000000000000000000000000000000000000000000040000000000000000",
      "type": "0x2",
      "transactionHash": "0x56b2dbe086be53951359a267e56f24772542d00c27c2fbf3396901fcbc9ca1b0",
      "transactionIndex": "0xd",
      "blockHash": "0x77527e1fa7fe62a725e7b2677b83079bae481d69c9cb680bcf97a0372a973aee",
      "blockNumber": "0x41b0da",
      "gasUsed": "0xe66a",
      "effectiveGasPrice": "0xf4250",
      "blobGasUsed": "0x0",
      "from": "0xc3ca11bd8e131471904dced927b3fb7edb453179",
      "to": "0x2f925d6512b2bbb00f5a36d8b18e01fcf35f7dc7",
      "contractAddress": null
    },
    {
      "status": "0x1",
      "cumulativeGasUsed": "0x310128",
      "logs": [
        {
          "address": "0x2f925d6512b2bbb00f5a36d8b18e01fcf35f7dc7",
          "topics": [
            "0x128b13f5a7f3d4a8f9ebafb4d8c23d5f6f5a287c83c1e81e79b1f80c1708a5fb",
            "0x000000000000000000000000000000000000000000000000000000000000000c"
          ],
          "data": "0x0000000000000000000000000000000000000000000000000000000000000014",
          "blockHash": "0x547e04759747d1c8b60b1c127139336b669bff81ab673e53e49055cea82f864e",
          "blockNumber": "0x41b0db",
          "transactionHash": "0x92545f64d1df214809bc41bcd56f52b772a732a2cd9ed85de8ff6464f6aff11f",
          "transactionIndex": "0x9",
          "logIndex": "0x2c",
          "removed": false
        }
      ],
      "logsBloom": "0x00000000000000000000000000000000000002000000000000000000000000000000000000000200000000000000000000000000000000000000000000000000000000000000000000000000000000000000000000000000000000000000000000000000000000000000000000000000000000000000000009000000000000000000000400000000000000000000000000000000000000000000000000000000000000000000001000000000000000000000000000000000000000000000004000000000000000000000000000004000000000000000000000000000000000200000000000000000000000000000000000000000000000000000000000000000",
      "type": "0x2",
      "transactionHash": "0x92545f64d1df214809bc41bcd56f52b772a732a2cd9ed85de8ff6464f6aff11f",
      "transactionIndex": "0x9",
      "blockHash": "0x547e04759747d1c8b60b1c127139336b669bff81ab673e53e49055cea82f864e",
      "blockNumber": "0x41b0db",
      "gasUsed": "0xe66a",
      "effectiveGasPrice": "0xf4250",
      "blobGasUsed": "0x0",
      "from": "0xc3ca11bd8e131471904dced927b3fb7edb453179",
      "to": "0x2f925d6512b2bbb00f5a36d8b18e01fcf35f7dc7",
      "contractAddress": null
    },
    {
      "status": "0x1",
      "cumulativeGasUsed": "0x145ca6d",
      "logs": [
        {
          "address": "0x2f925d6512b2bbb00f5a36d8b18e01fcf35f7dc7",
          "topics": [
            "0x128b13f5a7f3d4a8f9ebafb4d8c23d5f6f5a287c83c1e81e79b1f80c1708a5fb",
            "0x000000000000000000000000000000000000000000000000000000000000000d"
          ],
          "data": "0x0000000000000000000000000000000000000000000000000000000000000008",
          "blockHash": "0x82366f2bed8f250dbab184f08860f5540922c21079d66a03fcdac9da90206822",
          "blockNumber": "0x41b0dc",
          "transactionHash": "0x7036998e66ae83db2d7940c490ab9db803d33fa76f8d8529e2aa43e9a6c9fef5",
          "transactionIndex": "0x19",
          "logIndex": "0x36",
          "removed": false
        }
      ],
      "logsBloom": "0x00000000000000000040000000000000000000000000000000000000000000000000000000000000000000000000000000000000000000000000000000000000000000000000000000000000000000000002000000000000000000000000000000000000000000000000000000000000000000000000000009000000000000000000000400000000000000000000000000000000000000000000000000000000000000000000001000000000000000000000000000000000000000000000004000000000000000000000000000004000000000000000000000000000000000020000000000000000000000000000000000000000000000000000000000000000",
      "type": "0x2",
      "transactionHash": "0x7036998e66ae83db2d7940c490ab9db803d33fa76f8d8529e2aa43e9a6c9fef5",
      "transactionIndex": "0x19",
      "blockHash": "0x82366f2bed8f250dbab184f08860f5540922c21079d66a03fcdac9da90206822",
      "blockNumber": "0x41b0dc",
      "gasUsed": "0xe66a",
      "effectiveGasPrice": "0xf424f",
      "blobGasUsed": "0x0",
      "from": "0xc3ca11bd8e131471904dced927b3fb7edb453179",
      "to": "0x2f925d6512b2bbb00f5a36d8b18e01fcf35f7dc7",
      "contractAddress": null
    },
    {
      "status": "0x1",
      "cumulativeGasUsed": "0x3ac050",
      "logs": [
        {
          "address": "0x2f925d6512b2bbb00f5a36d8b18e01fcf35f7dc7",
          "topics": [
            "0x128b13f5a7f3d4a8f9ebafb4d8c23d5f6f5a287c83c1e81e79b1f80c1708a5fb",
            "0x000000000000000000000000000000000000000000000000000000000000000e"
          ],
          "data": "0x0000000000000000000000000000000000000000000000000000000000000004",
          "blockHash": "0x2428e92efc65a9ffefd3fb7a23e1651bd24d93f40b15c466a378cc6a3dfc1a60",
          "blockNumber": "0x41b0dd",
          "transactionHash": "0xd35d063eec58f7b9e693e350ca02689d306d594c428a6c9b67ae5b661de89a66",
          "transactionIndex": "0x1b",
          "logIndex": "0x3d",
          "removed": false
        }
      ],
      "logsBloom": "0x00000000000000000000000000000000000000000000000000000000000000000000000000000000000000000000000000000000000000000000000000000000000000000000000800000000000000000000000000000000000000000000000000000000000000000000000000000000000000000000000009000000000000000000000400000000000000000000000008000000000000000000000000000000000000000000001000000000000000000000000000000020000000000000004000000000000000000000000000004000000000000000000000000000000000000000000000000000000000000000000000000000000000000000000000000000",
      "type": "0x2",
      "transactionHash": "0xd35d063eec58f7b9e693e350ca02689d306d594c428a6c9b67ae5b661de89a66",
      "transactionIndex": "0x1b",
      "blockHash": "0x2428e92efc65a9ffefd3fb7a23e1651bd24d93f40b15c466a378cc6a3dfc1a60",
      "blockNumber": "0x41b0dd",
      "gasUsed": "0xe66a",
      "effectiveGasPrice": "0xf424f",
      "blobGasUsed": "0x0",
      "from": "0xc3ca11bd8e131471904dced927b3fb7edb453179",
      "to": "0x2f925d6512b2bbb00f5a36d8b18e01fcf35f7dc7",
      "contractAddress": null
    },
    {
      "status": "0x1",
      "cumulativeGasUsed": "0x367753",
      "logs": [
        {
          "address": "0x2f925d6512b2bbb00f5a36d8b18e01fcf35f7dc7",
          "topics": [
            "0x128b13f5a7f3d4a8f9ebafb4d8c23d5f6f5a287c83c1e81e79b1f80c1708a5fb",
            "0x000000000000000000000000000000000000000000000000000000000000000f"
          ],
          "data": "0x0000000000000000000000000000000000000000000000000000000000000004",
          "blockHash": "0x466189d894abd4605a57a509c97ddda346c3bf02422e3e8be64823d0d98638e2",
          "blockNumber": "0x41b0de",
          "transactionHash": "0x12d1ae7900753df349adb220dd6a854183529e8918a25a483ac0f7cf92fab451",
          "transactionIndex": "0xc",
          "logIndex": "0x23",
          "removed": false
        }
      ],
      "logsBloom": "0x00000000000000000000000000000000000000000000000000000000000000000000000000000000000000000000000000000000000000000000000000000000000000000000000000000000000000000000000000000000000000000002000000000000000000000000000000000000000000000000000009000000000000000000000400000800000000000000000000000000000000000000000000000000000000000000001000000000000000000000000000000000000000000000004000000000000000000000000000004000000000000000000000000000000000000000000200000000000000000000000000000000000000000000000000000000",
      "type": "0x2",
      "transactionHash": "0x12d1ae7900753df349adb220dd6a854183529e8918a25a483ac0f7cf92fab451",
      "transactionIndex": "0xc",
      "blockHash": "0x466189d894abd4605a57a509c97ddda346c3bf02422e3e8be64823d0d98638e2",
      "blockNumber": "0x41b0de",
      "gasUsed": "0xe66a",
      "effectiveGasPrice": "0xf4250",
      "blobGasUsed": "0x0",
      "from": "0xc3ca11bd8e131471904dced927b3fb7edb453179",
      "to": "0x2f925d6512b2bbb00f5a36d8b18e01fcf35f7dc7",
      "contractAddress": null
    },
    {
      "status": "0x1",
      "cumulativeGasUsed": "0x283d68",
      "logs": [
        {
          "address": "0x2f925d6512b2bbb00f5a36d8b18e01fcf35f7dc7",
          "topics": [
            "0x128b13f5a7f3d4a8f9ebafb4d8c23d5f6f5a287c83c1e81e79b1f80c1708a5fb",
            "0x0000000000000000000000000000000000000000000000000000000000000010"
          ],
          "data": "0x0000000000000000000000000000000000000000000000000000000000000004",
          "blockHash": "0xba4fb5c7bafab42faaeb7a2f9cc203b3e65ee1fdf123ded8a113f8cf99043571",
          "blockNumber": "0x41b0df",
          "transactionHash": "0x57c18945a2006f2e44d23745eef44a74b8df0fcbd783e2f3c1dd423b8557ef15",
          "transactionIndex": "0xc",
          "logIndex": "0x2b",
          "removed": false
        }
      ],
      "logsBloom": "0x00000000100000000000000000000000000000000000000000000000000000000000000000000000000000000000000000000000000000000000000000000000000000000000000000000000000000000000000000000000000000000000000000000000000000000000000000000000000000000000000009000000040000000000000400000000000000000000000000000100000000000000000000000000000000000000001000000000000000000000000000000000000000000000004000000000000000000000000000004000000000000000000000000000000000000000000000000000000000000000000000000000000000000000000000000000",
      "type": "0x2",
      "transactionHash": "0x57c18945a2006f2e44d23745eef44a74b8df0fcbd783e2f3c1dd423b8557ef15",
      "transactionIndex": "0xc",
      "blockHash": "0xba4fb5c7bafab42faaeb7a2f9cc203b3e65ee1fdf123ded8a113f8cf99043571",
      "blockNumber": "0x41b0df",
      "gasUsed": "0xe66a",
      "effectiveGasPrice": "0xf424f",
      "blobGasUsed": "0x0",
      "from": "0xc3ca11bd8e131471904dced927b3fb7edb453179",
      "to": "0x2f925d6512b2bbb00f5a36d8b18e01fcf35f7dc7",
      "contractAddress": null
    },
    {
      "status": "0x1",
      "cumulativeGasUsed": "0x172156",
      "logs": [
        {
          "address": "0x2f925d6512b2bbb00f5a36d8b18e01fcf35f7dc7",
          "topics": [
            "0x128b13f5a7f3d4a8f9ebafb4d8c23d5f6f5a287c83c1e81e79b1f80c1708a5fb",
            "0x0000000000000000000000000000000000000000000000000000000000000011"
          ],
          "data": "0x0000000000000000000000000000000000000000000000000000000000000004",
          "blockHash": "0x8a00546853521a712c0f8bd601bf86a429b9bc828db879981498fba282a46ee4",
          "blockNumber": "0x41b0e0",
          "transactionHash": "0xb0fd6114638abee3a03897ce040c48f3fed4693eb275f26385dec524ed1a19d8",
          "transactionIndex": "0x9",
          "logIndex": "0x10",
          "removed": false
        }
      ],
      "logsBloom": "0x00000000000000000000000000000000000000000000000000000000000000000000000000000000000000000000000000000000000000000000000000000000000000000000000000000000000000000000000000000000000000000000000000000000000000000000000000000000000000004000000009000000000000000000000400000000000000000000000000000000000000000000000000000000000000000000001000000000000000000000000000000000000000000400004000001000000000000000000000004000000000000000000000000000000000000000000000000000000000000000000000000000000000000000000000000000",
      "type": "0x2",
      "transactionHash": "0xb0fd6114638abee3a03897ce040c48f3fed4693eb275f26385dec524ed1a19d8",
      "transactionIndex": "0x9",
      "blockHash": "0x8a00546853521a712c0f8bd601bf86a429b9bc828db879981498fba282a46ee4",
      "blockNumber": "0x41b0e0",
      "gasUsed": "0xe66a",
      "effectiveGasPrice": "0xf424f",
      "blobGasUsed": "0x0",
      "from": "0xc3ca11bd8e131471904dced927b3fb7edb453179",
      "to": "0x2f925d6512b2bbb00f5a36d8b18e01fcf35f7dc7",
      "contractAddress": null
    },
    {
      "status": "0x1",
      "cumulativeGasUsed": "0x20bc1d",
      "logs": [
        {
          "address": "0x2f925d6512b2bbb00f5a36d8b18e01fcf35f7dc7",
          "topics": [
            "0x128b13f5a7f3d4a8f9ebafb4d8c23d5f6f5a287c83c1e81e79b1f80c1708a5fb",
            "0x0000000000000000000000000000000000000000000000000000000000000012"
          ],
          "data": "0x0000000000000000000000000000000000000000000000000000000000000002",
          "blockHash": "0x0a36e1cec514fe20167d89245e69709862f8a969e81478249969169c27b4afe2",
          "blockNumber": "0x41b0e1",
          "transactionHash": "0xca5dbace84ed0df6b43bdc750afbf3d8831626f094f9f6422360096fb748c926",
          "transactionIndex": "0xd",
          "logIndex": "0x1e",
          "removed": false
        }
      ],
      "logsBloom": "0x00000000000000000000000000000000000000000000000000000000000000000000000000000000000000000000000000000000000000000000000000000000000000000000000000000000000000000000000000000000000000000000000000000000000000000000000000000000000000000000000009000000000000000000000400000000000000000000040000000000000000000000000000000000000000000000001000000000000000000000000000000040000000000000004000000000000000000400000000004000000000000000000000000000000000000000000000000000000000000000000000000000000000000000000000000000",
      "type": "0x2",
      "transactionHash": "0xca5dbace84ed0df6b43bdc750afbf3d8831626f094f9f6422360096fb748c926",
      "transactionIndex": "0xd",
      "blockHash": "0x0a36e1cec514fe20167d89245e69709862f8a969e81478249969169c27b4afe2",
      "blockNumber": "0x41b0e1",
      "gasUsed": "0xe66a",
      "effectiveGasPrice": "0xf424f",
      "blobGasUsed": "0x0",
      "from": "0xc3ca11bd8e131471904dced927b3fb7edb453179",
      "to": "0x2f925d6512b2bbb00f5a36d8b18e01fcf35f7dc7",
      "contractAddress": null
    },
    {
      "status": "0x1",
      "cumulativeGasUsed": "0x3e3ebf",
      "logs": [
        {
          "address": "0x2f925d6512b2bbb00f5a36d8b18e01fcf35f7dc7",
          "topics": [
            "0x128b13f5a7f3d4a8f9ebafb4d8c23d5f6f5a287c83c1e81e79b1f80c1708a5fb",
            "0x0000000000000000000000000000000000000000000000000000000000000013"
          ],
          "data": "0x0000000000000000000000000000000000000000000000000000000000000014",
          "blockHash": "0xa802d44f39e41845d47b9b59675617b59bf25a5682ac0ed6b32cdfa7ee066272",
          "blockNumber": "0x41b0e3",
          "transactionHash": "0xf58982ffab27575b1b480d9c601a972eede00f95592a609874e52e600fbb4591",
          "transactionIndex": "0x19",
          "logIndex": "0x3c",
          "removed": false
        }
      ],
      "logsBloom": "0x20000000000000000000000000800000000000000000000000000000000000000000000040000000000000000000000000000000000000000000000000000000000000000000000000000000000000000000000000000000000000000000000000000000000000000000000000000000000000000000000009000000000000000000000400000000000000000000000000000000000000000000000000000000000000000000001000000000000000000000000000000000000000000000004000000000000000000000000000004000000000000000000000000000000000000000000000000000000000000000000000000000000000000000000000000000",
      "type": "0x2",
      "transactionHash": "0xf58982ffab27575b1b480d9c601a972eede00f95592a609874e52e600fbb4591",
      "transactionIndex": "0x19",
      "blockHash": "0xa802d44f39e41845d47b9b59675617b59bf25a5682ac0ed6b32cdfa7ee066272",
      "blockNumber": "0x41b0e3",
      "gasUsed": "0xe66a",
      "effectiveGasPrice": "0xf424e",
      "blobGasUsed": "0x0",
      "from": "0xc3ca11bd8e131471904dced927b3fb7edb453179",
      "to": "0x2f925d6512b2bbb00f5a36d8b18e01fcf35f7dc7",
      "contractAddress": null
    },
    {
      "status": "0x1",
      "cumulativeGasUsed": "0x661f7d",
      "logs": [
        {
          "address": "0x2f925d6512b2bbb00f5a36d8b18e01fcf35f7dc7",
          "topics": [
            "0x128b13f5a7f3d4a8f9ebafb4d8c23d5f6f5a287c83c1e81e79b1f80c1708a5fb",
            "0x0000000000000000000000000000000000000000000000000000000000000014"
          ],
          "data": "0x0000000000000000000000000000000000000000000000000000000000000002",
          "blockHash": "0xe84d95c5c482add6540ff602dff3ffdc211b67998c50fdf304c0a19b23f1fc3d",
          "blockNumber": "0x41b0e4",
          "transactionHash": "0x17e27b9e57e475fb0674d26ffae0bf53b1c4a3e07857c4fe21ae265547781ce5",
          "transactionIndex": "0x24",
          "logIndex": "0x46",
          "removed": false
        }
      ],
      "logsBloom": "0x00000000000000000000000000000000000000000000000000000000000000000000000000000000000000000000000000002000000000000000000000000000000000000000000000000000000000000000000000000000000000000000000000000000000000000000000000000000000000000000000009000000000000000000000400000000000000000000000000000000000400000000000000000000000000000000001020000000000000000000000000000000000000000000004000000000000000000000000000004000000000000000000000000000000000000000000000000000000000000000000000000000000000000000000000000000",
      "type": "0x2",
      "transactionHash": "0x17e27b9e57e475fb0674d26ffae0bf53b1c4a3e07857c4fe21ae265547781ce5",
      "transactionIndex": "0x24",
      "blockHash": "0xe84d95c5c482add6540ff602dff3ffdc211b67998c50fdf304c0a19b23f1fc3d",
      "blockNumber": "0x41b0e4",
      "gasUsed": "0xe66a",
      "effectiveGasPrice": "0xf424d",
      "blobGasUsed": "0x0",
      "from": "0xc3ca11bd8e131471904dced927b3fb7edb453179",
      "to": "0x2f925d6512b2bbb00f5a36d8b18e01fcf35f7dc7",
      "contractAddress": null
    },
    {
      "status": "0x1",
      "cumulativeGasUsed": "0x28807d",
      "logs": [
        {
          "address": "0x2f925d6512b2bbb00f5a36d8b18e01fcf35f7dc7",
          "topics": [
            "0x128b13f5a7f3d4a8f9ebafb4d8c23d5f6f5a287c83c1e81e79b1f80c1708a5fb",
            "0x0000000000000000000000000000000000000000000000000000000000000015"
          ],
          "data": "0x0000000000000000000000000000000000000000000000000000000000000001",
          "blockHash": "0x73478bed7f6fcb32d68d0d1047b00df5649052e58c4b669115a99e912d3cb32f",
          "blockNumber": "0x41b0e5",
          "transactionHash": "0xffb44f7bca7477b149085313770caab49e6fa8e3ca348ead862308fbea7be881",
          "transactionIndex": "0xa",
          "logIndex": "0x13",
          "removed": false
        }
      ],
      "logsBloom": "0x00000000000000000000000000000000000000000000000000000000000000000000000000000000000000000000000000000000000000000000000000000000001000000000000000000000000000000000000000000000000000000000000000000000000000000000000000000000000000000000000009000000000000000000000400000000000000000000000000000000000000000000000000000000000000000000001000000000010000000000000000000000000000000000004000000000000000000000000000004000000000000000000000000000000000002000000000000000000000000000000000000000000000000000000000000000",
      "type": "0x2",
      "transactionHash": "0xffb44f7bca7477b149085313770caab49e6fa8e3ca348ead862308fbea7be881",
      "transactionIndex": "0xa",
      "blockHash": "0x73478bed7f6fcb32d68d0d1047b00df5649052e58c4b669115a99e912d3cb32f",
      "blockNumber": "0x41b0e5",
      "gasUsed": "0xe66a",
      "effectiveGasPrice": "0xf424e",
      "blobGasUsed": "0x0",
      "from": "0xc3ca11bd8e131471904dced927b3fb7edb453179",
      "to": "0x2f925d6512b2bbb00f5a36d8b18e01fcf35f7dc7",
      "contractAddress": null
    },
    {
      "status": "0x1",
      "cumulativeGasUsed": "0x29756d",
      "logs": [
        {
          "address": "0x2f925d6512b2bbb00f5a36d8b18e01fcf35f7dc7",
          "topics": [
            "0x128b13f5a7f3d4a8f9ebafb4d8c23d5f6f5a287c83c1e81e79b1f80c1708a5fb",
            "0x0000000000000000000000000000000000000000000000000000000000000016"
          ],
          "data": "0x0000000000000000000000000000000000000000000000000000000000000001",
          "blockHash": "0x19ce01e469c6bb98be3ce6d138e3c612d04f01692de4d8749613dce1461a8122",
          "blockNumber": "0x41b0e6",
          "transactionHash": "0x127c1304f91486e3aedccf1899bc6494cc2fb701ce78d62e63a7d7e65539e2b6",
          "transactionIndex": "0xe",
          "logIndex": "0x35",
          "removed": false
        }
      ],
      "logsBloom": "0x00000000000000000000000000000000000000000000000000000000000000000000000000000000000000000000000000000000000000000000000000000000000000000000000800000000000000000000000000000000000000000000000000000000000000000000000000000000200000000000000009000000000000000000000400000000000000000000000000000000000000000000000000000000000000000000001000000000000000000000000000000000000000000000004000000000000000000000000000004000000000000000000000000000000000000000000000000000000000000000000000000000000000000008000000000000",
      "type": "0x2",
      "transactionHash": "0x127c1304f91486e3aedccf1899bc6494cc2fb701ce78d62e63a7d7e65539e2b6",
      "transactionIndex": "0xe",
      "blockHash": "0x19ce01e469c6bb98be3ce6d138e3c612d04f01692de4d8749613dce1461a8122",
      "blockNumber": "0x41b0e6",
      "gasUsed": "0xe66a",
      "effectiveGasPrice": "0xf424e",
      "blobGasUsed": "0x0",
      "from": "0xc3ca11bd8e131471904dced927b3fb7edb453179",
      "to": "0x2f925d6512b2bbb00f5a36d8b18e01fcf35f7dc7",
      "contractAddress": null
    },
    {
      "status": "0x1",
      "cumulativeGasUsed": "0x1eb9ba",
      "logs": [
        {
          "address": "0x2f925d6512b2bbb00f5a36d8b18e01fcf35f7dc7",
          "topics": [
            "0x128b13f5a7f3d4a8f9ebafb4d8c23d5f6f5a287c83c1e81e79b1f80c1708a5fb",
            "0x0000000000000000000000000000000000000000000000000000000000000017"
          ],
          "data": "0x0000000000000000000000000000000000000000000000000000000000000005",
          "blockHash": "0x466b572f5e267012d7800066283e0f66b83c85d098187caa6e573afa6744c77a",
          "blockNumber": "0x41b0e7",
          "transactionHash": "0x1ef68873816f46cc7e461db202d7a4dfd522ff98e2cbc8abfecc80685d9150fb",
          "transactionIndex": "0xb",
          "logIndex": "0x16",
          "removed": false
        }
      ],
      "logsBloom": "0x00000000000000000000000000000000000000000000000000000000000000000000000000000000000000000000000000001000000000000000001000000000000000000000000000000000000000000000000000000000000000000000000000000000000000000000000000000000000000000000000009000000000000000000000400000000000000000000000000000000000000000000000000000000000000000000001000000000000000000000000000000000000000000000004000000000000000000000000000004000000000000000000000000000000000000000000000000000000000000000000000000000000000000000000000080000",
      "type": "0x2",
      "transactionHash": "0x1ef68873816f46cc7e461db202d7a4dfd522ff98e2cbc8abfecc80685d9150fb",
      "transactionIndex": "0xb",
      "blockHash": "0x466b572f5e267012d7800066283e0f66b83c85d098187caa6e573afa6744c77a",
      "blockNumber": "0x41b0e7",
      "gasUsed": "0xe66a",
      "effectiveGasPrice": "0xf424e",
      "blobGasUsed": "0x0",
      "from": "0xc3ca11bd8e131471904dced927b3fb7edb453179",
      "to": "0x2f925d6512b2bbb00f5a36d8b18e01fcf35f7dc7",
      "contractAddress": null
    },
    {
      "status": "0x1",
      "cumulativeGasUsed": "0x40c207",
      "logs": [
        {
          "address": "0x2f925d6512b2bbb00f5a36d8b18e01fcf35f7dc7",
          "topics": [
            "0x128b13f5a7f3d4a8f9ebafb4d8c23d5f6f5a287c83c1e81e79b1f80c1708a5fb",
            "0x0000000000000000000000000000000000000000000000000000000000000018"
          ],
          "data": "0x0000000000000000000000000000000000000000000000000000000000000005",
          "blockHash": "0x33fcdd3908709b9c182459de93479c1b136a464ebf7e1de94cd359e466be9566",
          "blockNumber": "0x41b0e9",
          "transactionHash": "0x70032eace14c71c864290cd4f1f70bc98d5574ec3648371ced2d91cec6b54fea",
          "transactionIndex": "0x19",
          "logIndex": "0x40",
          "removed": false
        }
      ],
      "logsBloom": "0x00000000000000000000000000000000000000000000000000000000000000000000000000000000000000000000000000000000000000000000000000000000000000000000000000000000000000000040000000000000000000000000000000000000000000000000000000000000000000000000000009000000000000000000000400000000000000000000000000000000000000000000000000000000000000000000001000000000000000000000000000000000000000000000004000100000000000000000000000004000000000000000000020000000000000000000000000000000000000000000000000000000000000000000000000000000",
      "type": "0x2",
      "transactionHash": "0x70032eace14c71c864290cd4f1f70bc98d5574ec3648371ced2d91cec6b54fea",
      "transactionIndex": "0x19",
      "blockHash": "0x33fcdd3908709b9c182459de93479c1b136a464ebf7e1de94cd359e466be9566",
      "blockNumber": "0x41b0e9",
      "gasUsed": "0xe66a",
      "effectiveGasPrice": "0xf424c",
      "blobGasUsed": "0x0",
      "from": "0xc3ca11bd8e131471904dced927b3fb7edb453179",
      "to": "0x2f925d6512b2bbb00f5a36d8b18e01fcf35f7dc7",
      "contractAddress": null
    },
    {
      "status": "0x1",
      "cumulativeGasUsed": "0x52d4a9",
      "logs": [
        {
          "address": "0x2f925d6512b2bbb00f5a36d8b18e01fcf35f7dc7",
          "topics": [
            "0x128b13f5a7f3d4a8f9ebafb4d8c23d5f6f5a287c83c1e81e79b1f80c1708a5fb",
            "0x0000000000000000000000000000000000000000000000000000000000000019"
          ],
          "data": "0x0000000000000000000000000000000000000000000000000000000000000005",
          "blockHash": "0x772f02da746954781b942116b97e391103cc062c024f6b6114e3145e2c6fd739",
          "blockNumber": "0x41b0ea",
          "transactionHash": "0xe0cf8ecdbdb5063c1bf04811cc9ce00ef05e570dd85534edef9c13d773c40ce6",
          "transactionIndex": "0xe",
          "logIndex": "0x35",
          "removed": false
        }
      ],
      "logsBloom": "0x00000000000000000000000000000000000000000000000000000000000000000000000000000000000000000000000000000000000000800000000000000000000000000000000000000000000000000000000000000000000000000000000000000000000000000000000000000000000000000000020009000000000000000000000400000000000000000000000000000000000000000000000000000000000000000000001000000000000000000000000000000000000000000000004000000000000000000000000000004000000000000000000000000000000000000000000000000000000000000000000000000000000000000000008000000000",
      "type": "0x2",
      "transactionHash": "0xe0cf8ecdbdb5063c1bf04811cc9ce00ef05e570dd85534edef9c13d773c40ce6",
      "transactionIndex": "0xe",
      "blockHash": "0x772f02da746954781b942116b97e391103cc062c024f6b6114e3145e2c6fd739",
      "blockNumber": "0x41b0ea",
      "gasUsed": "0xe66a",
      "effectiveGasPrice": "0xf424d",
      "blobGasUsed": "0x0",
      "from": "0xc3ca11bd8e131471904dced927b3fb7edb453179",
      "to": "0x2f925d6512b2bbb00f5a36d8b18e01fcf35f7dc7",
      "contractAddress": null
    },
    {
      "status": "0x1",
      "cumulativeGasUsed": "0x442268",
      "logs": [
        {
          "address": "0x2f925d6512b2bbb00f5a36d8b18e01fcf35f7dc7",
          "topics": [
            "0x128b13f5a7f3d4a8f9ebafb4d8c23d5f6f5a287c83c1e81e79b1f80c1708a5fb",
            "0x000000000000000000000000000000000000000000000000000000000000001a"
          ],
          "data": "0x0000000000000000000000000000000000000000000000000000000000000005",
          "blockHash": "0x1680ea6082d2206248111ddd6391fcf0f32e7f4727ba20c8236a4777b3cea660",
          "blockNumber": "0x41b0eb",
          "transactionHash": "0x51b5659e1204108bb7f53e3612eb864cdc7bf0e4ea034ee4ce5c0baf7b614693",
          "transactionIndex": "0xe",
          "logIndex": "0x2d",
          "removed": false
        }
      ],
      "logsBloom": "0x00000000000000000000000000000000000000000000000000000000000000000000000000000000000000000000000000000000000000000000000000000000000000000000000000000000000000001000000000000000000000001000000000000000000000000000000000000000000000000000000009000000000000000000000400000000000000000000000000000000000000000000000000000000000000000000001000000000000000000000000000000000000000000000004000000000000000000000000000004000000000000000000000000000000000000000000000000000000000000000000000000000000004000000000000000000",
      "type": "0x2",
      "transactionHash": "0x51b5659e1204108bb7f53e3612eb864cdc7bf0e4ea034ee4ce5c0baf7b614693",
      "transactionIndex": "0xe",
      "blockHash": "0x1680ea6082d2206248111ddd6391fcf0f32e7f4727ba20c8236a4777b3cea660",
      "blockNumber": "0x41b0eb",
      "gasUsed": "0xe66a",
      "effectiveGasPrice": "0xf424e",
      "blobGasUsed": "0x0",
      "from": "0xc3ca11bd8e131471904dced927b3fb7edb453179",
      "to": "0x2f925d6512b2bbb00f5a36d8b18e01fcf35f7dc7",
      "contractAddress": null
    },
    {
      "status": "0x1",
      "cumulativeGasUsed": "0x73fd69",
      "logs": [],
      "logsBloom": "0x00000000000000000000000000000000000000000000000000000000000000000000000000000000000000000000000000000000000000000000000000000000000000000000000000000000000000000000000000000000000000000000000000000000000000000000000000000000000000000000000000000000000000000000000000000000000000000000000000000000000000000000000000000000000000000000000000000000000000000000000000000000000000000000000000000000000000000000000000000000000000000000000000000000000000000000000000000000000000000000000000000000000000000000000000000000",
      "type": "0x2",
      "transactionHash": "0x7525f05ac2008b423d0639f0977ac880862ddf0189426a0a690d88b306468a7b",
      "transactionIndex": "0x19",
      "blockHash": "0x1cf75af15ceb00e8b23381cfc17e8c40db9dd1504c8a24b581c3d8b8f7f56326",
      "blockNumber": "0x41b0ec",
      "gasUsed": "0x12fed",
      "effectiveGasPrice": "0xf424f",
      "blobGasUsed": "0x0",
      "from": "0xc3ca11bd8e131471904dced927b3fb7edb453179",
      "to": "0x9c9e9fad264089339aad66ff3e32d2ba1ddf6951",
      "contractAddress": null
    },
    {
      "status": "0x1",
      "cumulativeGasUsed": "0xc9a4d1",
      "logs": [],
      "logsBloom": "0x00000000000000000000000000000000000000000000000000000000000000000000000000000000000000000000000000000000000000000000000000000000000000000000000000000000000000000000000000000000000000000000000000000000000000000000000000000000000000000000000000000000000000000000000000000000000000000000000000000000000000000000000000000000000000000000000000000000000000000000000000000000000000000000000000000000000000000000000000000000000000000000000000000000000000000000000000000000000000000000000000000000000000000000000000000000",
      "type": "0x2",
      "transactionHash": "0x250c0f5b3dfdaf9ed1f59940e4c3c9ed678855bef986b09ddeefa61c30bbdb1f",
      "transactionIndex": "0x13",
      "blockHash": "0x016290895f15f4ea4bba6f973d58cd2dcf24cd97ce74556a2a57f0b5f0aa27b1",
      "blockNumber": "0x41b0ed",
      "gasUsed": "0xd2bd",
      "effectiveGasPrice": "0xf424f",
      "blobGasUsed": "0x0",
      "from": "0xc3ca11bd8e131471904dced927b3fb7edb453179",
      "to": "0x9c9e9fad264089339aad66ff3e32d2ba1ddf6951",
      "contractAddress": null
    },
    {
      "status": "0x1",
      "cumulativeGasUsed": "0x3a1af6",
      "logs": [],
      "logsBloom": "0x00000000000000000000000000000000000000000000000000000000000000000000000000000000000000000000000000000000000000000000000000000000000000000000000000000000000000000000000000000000000000000000000000000000000000000000000000000000000000000000000000000000000000000000000000000000000000000000000000000000000000000000000000000000000000000000000000000000000000000000000000000000000000000000000000000000000000000000000000000000000000000000000000000000000000000000000000000000000000000000000000000000000000000000000000000000",
      "type": "0x2",
      "transactionHash": "0x0d239ffa718f8986bf09bff2651f4fb31b419ea60b9c37831ce1c963ffa56755",
      "transactionIndex": "0x9",
      "blockHash": "0x3fad8025d1136dd74c1ce9d42fd91de0e17eb424392751f9e6b946a832cfb161",
      "blockNumber": "0x41b0ee",
      "gasUsed": "0x16933",
      "effectiveGasPrice": "0xf424f",
      "blobGasUsed": "0x0",
      "from": "0xc3ca11bd8e131471904dced927b3fb7edb453179",
      "to": "0x9c9e9fad264089339aad66ff3e32d2ba1ddf6951",
      "contractAddress": null
    },
    {
      "status": "0x1",
      "cumulativeGasUsed": "0x822dc2",
      "logs": [],
      "logsBloom": "0x00000000000000000000000000000000000000000000000000000000000000000000000000000000000000000000000000000000000000000000000000000000000000000000000000000000000000000000000000000000000000000000000000000000000000000000000000000000000000000000000000000000000000000000000000000000000000000000000000000000000000000000000000000000000000000000000000000000000000000000000000000000000000000000000000000000000000000000000000000000000000000000000000000000000000000000000000000000000000000000000000000000000000000000000000000000",
      "type": "0x2",
      "transactionHash": "0xa5330fd301d9d31b23a7992476cffc489f040244b3589362e1f6041ab5753701",
      "transactionIndex": "0x1a",
      "blockHash": "0xf038aa6490c840e4ccc55a0329716d41bf8aa57bd6643460cf1cdfa26618b638",
      "blockNumber": "0x41b0ef",
      "gasUsed": "0xcff9",
      "effectiveGasPrice": "0xf424e",
      "blobGasUsed": "0x0",
      "from": "0xc3ca11bd8e131471904dced927b3fb7edb453179",
      "to": "0xe912f7c7a59470a6e3f178388106e3caa9e6fbd1",
      "contractAddress": null
    },
    {
      "status": "0x1",
      "cumulativeGasUsed": "0x240da6",
      "logs": [],
      "logsBloom": "0x00000000000000000000000000000000000000000000000000000000000000000000000000000000000000000000000000000000000000000000000000000000000000000000000000000000000000000000000000000000000000000000000000000000000000000000000000000000000000000000000000000000000000000000000000000000000000000000000000000000000000000000000000000000000000000000000000000000000000000000000000000000000000000000000000000000000000000000000000000000000000000000000000000000000000000000000000000000000000000000000000000000000000000000000000000000",
      "type": "0x2",
      "transactionHash": "0xb7c211c374b6768f1bbfe9b7c9cee461f2784995511cd33693d271c013b58cfd",
      "transactionIndex": "0xb",
      "blockHash": "0xaa76e1ccb4bc171239c2056d505a57a8082c5b8190312b7d5b022269688934dc",
      "blockNumber": "0x41b0f0",
      "gasUsed": "0xcf33",
      "effectiveGasPrice": "0xf424f",
      "blobGasUsed": "0x0",
      "from": "0xc3ca11bd8e131471904dced927b3fb7edb453179",
      "to": "0xe912f7c7a59470a6e3f178388106e3caa9e6fbd1",
      "contractAddress": null
    },
    {
      "status": "0x1",
      "cumulativeGasUsed": "0x1e5620c",
      "logs": [],
      "logsBloom": "0x00000000000000000000000000000000000000000000000000000000000000000000000000000000000000000000000000000000000000000000000000000000000000000000000000000000000000000000000000000000000000000000000000000000000000000000000000000000000000000000000000000000000000000000000000000000000000000000000000000000000000000000000000000000000000000000000000000000000000000000000000000000000000000000000000000000000000000000000000000000000000000000000000000000000000000000000000000000000000000000000000000000000000000000000000000000",
      "type": "0x2",
      "transactionHash": "0x1d8c4024ac21b6726070926fa0604bfa386ba0cfbe873408aa941a4fdfda53ec",
      "transactionIndex": "0x25",
      "blockHash": "0xb3ef9137b7cf526d13b29222d944a5ef409a237cdc0670de7c2830e90490fcbc",
      "blockNumber": "0x41b0f1",
      "gasUsed": "0xd44e",
      "effectiveGasPrice": "0xf424e",
      "blobGasUsed": "0x0",
      "from": "0xc3ca11bd8e131471904dced927b3fb7edb453179",
      "to": "0xe912f7c7a59470a6e3f178388106e3caa9e6fbd1",
      "contractAddress": null
    },
    {
      "status": "0x1",
      "cumulativeGasUsed": "0x47b847",
      "logs": [],
      "logsBloom": "0x00000000000000000000000000000000000000000000000000000000000000000000000000000000000000000000000000000000000000000000000000000000000000000000000000000000000000000000000000000000000000000000000000000000000000000000000000000000000000000000000000000000000000000000000000000000000000000000000000000000000000000000000000000000000000000000000000000000000000000000000000000000000000000000000000000000000000000000000000000000000000000000000000000000000000000000000000000000000000000000000000000000000000000000000000000000",
      "type": "0x2",
      "transactionHash": "0x8b995c2754af320750ebddc7c2548b4be66c3321d7fa2f2b100a2d2fbfa9111d",
      "transactionIndex": "0xe",
      "blockHash": "0xf9a5b083ffad86f7ec50ebdab9da805f8536e47b7fef48df81690e536ecd2489",
      "blockNumber": "0x41b0f2",
      "gasUsed": "0xd324",
      "effectiveGasPrice": "0xf424f",
      "blobGasUsed": "0x0",
      "from": "0xc3ca11bd8e131471904dced927b3fb7edb453179",
      "to": "0xe912f7c7a59470a6e3f178388106e3caa9e6fbd1",
      "contractAddress": null
    },
    {
      "status": "0x1",
      "cumulativeGasUsed": "0x1352f14",
      "logs": [],
      "logsBloom": "0x00000000000000000000000000000000000000000000000000000000000000000000000000000000000000000000000000000000000000000000000000000000000000000000000000000000000000000000000000000000000000000000000000000000000000000000000000000000000000000000000000000000000000000000000000000000000000000000000000000000000000000000000000000000000000000000000000000000000000000000000000000000000000000000000000000000000000000000000000000000000000000000000000000000000000000000000000000000000000000000000000000000000000000000000000000000",
      "type": "0x2",
      "transactionHash": "0xda3dd8f57ff3213a26d9fb771caa4734b185f5a7db3be8d623428a72423c4875",
      "transactionIndex": "0x13",
      "blockHash": "0x8dcbda56f5fa4e5a524e48a6b0479ce9c17d8b9c0c6aa7303ed385b0a52499c3",
      "blockNumber": "0x41b0f3",
      "gasUsed": "0xd228",
      "effectiveGasPrice": "0xf424f",
      "blobGasUsed": "0x0",
      "from": "0xc3ca11bd8e131471904dced927b3fb7edb453179",
      "to": "0xe912f7c7a59470a6e3f178388106e3caa9e6fbd1",
      "contractAddress": null
    },
    {
      "status": "0x1",
      "cumulativeGasUsed": "0x4016cb",
      "logs": [],
      "logsBloom": "0x00000000000000000000000000000000000000000000000000000000000000000000000000000000000000000000000000000000000000000000000000000000000000000000000000000000000000000000000000000000000000000000000000000000000000000000000000000000000000000000000000000000000000000000000000000000000000000000000000000000000000000000000000000000000000000000000000000000000000000000000000000000000000000000000000000000000000000000000000000000000000000000000000000000000000000000000000000000000000000000000000000000000000000000000000000000",
      "type": "0x2",
      "transactionHash": "0x28dd3e63eaeb7cecdcfcfce0afc33e548ee1d3cee7494d41daa33ce10bf06304",
      "transactionIndex": "0x14",
      "blockHash": "0xc95ca07829dd30e5449c8d19f2c3d7509bd533d14fb3486a4072147a73d17b28",
      "blockNumber": "0x41b0f5",
      "gasUsed": "0xd2d8",
      "effectiveGasPrice": "0xf424f",
      "blobGasUsed": "0x0",
      "from": "0xc3ca11bd8e131471904dced927b3fb7edb453179",
      "to": "0xe912f7c7a59470a6e3f178388106e3caa9e6fbd1",
      "contractAddress": null
    },
    {
      "status": "0x1",
      "cumulativeGasUsed": "0xcba0e2",
      "logs": [],
      "logsBloom": "0x00000000000000000000000000000000000000000000000000000000000000000000000000000000000000000000000000000000000000000000000000000000000000000000000000000000000000000000000000000000000000000000000000000000000000000000000000000000000000000000000000000000000000000000000000000000000000000000000000000000000000000000000000000000000000000000000000000000000000000000000000000000000000000000000000000000000000000000000000000000000000000000000000000000000000000000000000000000000000000000000000000000000000000000000000000000",
      "type": "0x2",
      "transactionHash": "0x4b9143b994b054eaa6e2388552956aaba999b109830f500a8bf8918cfd805321",
      "transactionIndex": "0x11",
      "blockHash": "0xb4dc207bc8a89083de2228e3e8d4c6ba07d9ef1eced4e88d24cd0afd8dc413be",
      "blockNumber": "0x41b0f6",
      "gasUsed": "0xd04e",
      "effectiveGasPrice": "0xf424f",
      "blobGasUsed": "0x0",
      "from": "0xc3ca11bd8e131471904dced927b3fb7edb453179",
      "to": "0x92228b058f25bc4fb333fa296dddecbddf6496f3",
      "contractAddress": null
    },
    {
      "status": "0x1",
      "cumulativeGasUsed": "0x4706c8",
      "logs": [],
      "logsBloom": "0x00000000000000000000000000000000000000000000000000000000000000000000000000000000000000000000000000000000000000000000000000000000000000000000000000000000000000000000000000000000000000000000000000000000000000000000000000000000000000000000000000000000000000000000000000000000000000000000000000000000000000000000000000000000000000000000000000000000000000000000000000000000000000000000000000000000000000000000000000000000000000000000000000000000000000000000000000000000000000000000000000000000000000000000000000000000",
      "type": "0x2",
      "transactionHash": "0xefa989b443767b130bc41902f39647264ff14de7c75f0a305028b5ded0072bb7",
      "transactionIndex": "0x16",
      "blockHash": "0x24b82ad36bbfff79c527c576f5ddb389d895e176d6395232e564a003b040be18",
      "blockNumber": "0x41b0f7",
      "gasUsed": "0x83bd",
      "effectiveGasPrice": "0xf424e",
      "blobGasUsed": "0x0",
      "from": "0xc3ca11bd8e131471904dced927b3fb7edb453179",
      "to": "0x92228b058f25bc4fb333fa296dddecbddf6496f3",
      "contractAddress": null
    },
    {
      "status": "0x1",
      "cumulativeGasUsed": "0x99de33",
      "logs": [],
      "logsBloom": "0x00000000000000000000000000000000000000000000000000000000000000000000000000000000000000000000000000000000000000000000000000000000000000000000000000000000000000000000000000000000000000000000000000000000000000000000000000000000000000000000000000000000000000000000000000000000000000000000000000000000000000000000000000000000000000000000000000000000000000000000000000000000000000000000000000000000000000000000000000000000000000000000000000000000000000000000000000000000000000000000000000000000000000000000000000000000",
      "type": "0x2",
      "transactionHash": "0xfbbf5bca89b0a2016e0a37b069c1dba10beb8b508445516fef8efd5f4d9c8a70",
      "transactionIndex": "0x16",
      "blockHash": "0x6aad5736d430b8bac43686df56370d70ba0c69094074db40d6080398ee417554",
      "blockNumber": "0x41b0f8",
      "gasUsed": "0xcf46",
      "effectiveGasPrice": "0xf424f",
      "blobGasUsed": "0x0",
      "from": "0xc3ca11bd8e131471904dced927b3fb7edb453179",
      "to": "0x92228b058f25bc4fb333fa296dddecbddf6496f3",
      "contractAddress": null
    },
    {
      "status": "0x1",
      "cumulativeGasUsed": "0xbd8b06",
      "logs": [],
      "logsBloom": "0x00000000000000000000000000000000000000000000000000000000000000000000000000000000000000000000000000000000000000000000000000000000000000000000000000000000000000000000000000000000000000000000000000000000000000000000000000000000000000000000000000000000000000000000000000000000000000000000000000000000000000000000000000000000000000000000000000000000000000000000000000000000000000000000000000000000000000000000000000000000000000000000000000000000000000000000000000000000000000000000000000000000000000000000000000000000",
      "type": "0x2",
      "transactionHash": "0xff63e2cdf472413710bd50b3f5dbe66b86a2bd7c8e5d4cb9dfaab4e86c8a2a2e",
      "transactionIndex": "0x26",
      "blockHash": "0x312a60ed44e98698efbf483243edd03de8fe775925c9f6e2c769f42892bcb757",
      "blockNumber": "0x41b0f9",
      "gasUsed": "0xd029",
      "effectiveGasPrice": "0xf424e",
      "blobGasUsed": "0x0",
      "from": "0xc3ca11bd8e131471904dced927b3fb7edb453179",
      "to": "0x2af842c6517cf30fb3456aef485230e0dd085845",
      "contractAddress": null
    },
    {
      "status": "0x1",
      "cumulativeGasUsed": "0x390c56",
      "logs": [],
      "logsBloom": "0x00000000000000000000000000000000000000000000000000000000000000000000000000000000000000000000000000000000000000000000000000000000000000000000000000000000000000000000000000000000000000000000000000000000000000000000000000000000000000000000000000000000000000000000000000000000000000000000000000000000000000000000000000000000000000000000000000000000000000000000000000000000000000000000000000000000000000000000000000000000000000000000000000000000000000000000000000000000000000000000000000000000000000000000000000000000",
      "type": "0x2",
      "transactionHash": "0x7b8edf5c1c0b9e33f28b385b5651db94c4dc4b6aa222b2604d659ec91877d328",
      "transactionIndex": "0xc",
      "blockHash": "0xfc2444cfe092c77017dcec46535cbfc05edacf713c92835847070cba937a47d3",
      "blockNumber": "0x41b0fa",
      "gasUsed": "0x8457",
      "effectiveGasPrice": "0xf424f",
      "blobGasUsed": "0x0",
      "from": "0xc3ca11bd8e131471904dced927b3fb7edb453179",
      "to": "0x2af842c6517cf30fb3456aef485230e0dd085845",
      "contractAddress": null
    },
    {
      "status": "0x1",
      "cumulativeGasUsed": "0x2fdc65",
      "logs": [],
      "logsBloom": "0x00000000000000000000000000000000000000000000000000000000000000000000000000000000000000000000000000000000000000000000000000000000000000000000000000000000000000000000000000000000000000000000000000000000000000000000000000000000000000000000000000000000000000000000000000000000000000000000000000000000000000000000000000000000000000000000000000000000000000000000000000000000000000000000000000000000000000000000000000000000000000000000000000000000000000000000000000000000000000000000000000000000000000000000000000000000",
      "type": "0x2",
      "transactionHash": "0x7a6b7c8abe72d625756edd0580280d242c9e6a3ba7175fb6c8a9bc00573cd79f",
      "transactionIndex": "0xc",
      "blockHash": "0x876f75cf027aea60d9a17344acaa4adedf9416db3cbe381e4fff91453714b28e",
      "blockNumber": "0x41b0fb",
      "gasUsed": "0xcf30",
      "effectiveGasPrice": "0xf424f",
      "blobGasUsed": "0x0",
      "from": "0xc3ca11bd8e131471904dced927b3fb7edb453179",
      "to": "0x2af842c6517cf30fb3456aef485230e0dd085845",
      "contractAddress": null
    },
    {
      "status": "0x1",
      "cumulativeGasUsed": "0x546d98",
      "logs": [],
      "logsBloom": "0x00000000000000000000000000000000000000000000000000000000000000000000000000000000000000000000000000000000000000000000000000000000000000000000000000000000000000000000000000000000000000000000000000000000000000000000000000000000000000000000000000000000000000000000000000000000000000000000000000000000000000000000000000000000000000000000000000000000000000000000000000000000000000000000000000000000000000000000000000000000000000000000000000000000000000000000000000000000000000000000000000000000000000000000000000000000",
      "type": "0x2",
      "transactionHash": "0xde44b0b3a4416737df65778569a475cc1cb473d7e4698850f476da7e00d990c5",
      "transactionIndex": "0x13",
      "blockHash": "0x9398ad4a3c24535c920db4ea8d9635954ce1d047e666db069c41fd55e2e15bf8",
      "blockNumber": "0x41b0fc",
      "gasUsed": "0xeda0b",
      "effectiveGasPrice": "0xf424f",
      "blobGasUsed": "0x0",
      "from": "0xc3ca11bd8e131471904dced927b3fb7edb453179",
      "to": "0x58b610a359c870e0fc941139821a51f5aa23f14e",
      "contractAddress": null
    },
    {
      "status": "0x1",
      "cumulativeGasUsed": "0x40ebad",
      "logs": [],
      "logsBloom": "0x00000000000000000000000000000000000000000000000000000000000000000000000000000000000000000000000000000000000000000000000000000000000000000000000000000000000000000000000000000000000000000000000000000000000000000000000000000000000000000000000000000000000000000000000000000000000000000000000000000000000000000000000000000000000000000000000000000000000000000000000000000000000000000000000000000000000000000000000000000000000000000000000000000000000000000000000000000000000000000000000000000000000000000000000000000000",
      "type": "0x2",
      "transactionHash": "0x9455ea8a06d06e9489b4574810bf1ccef36f74c39b1868ff869241e5c2bc75b9",
      "transactionIndex": "0x8",
      "blockHash": "0xf25d54e2a3af54de1af4a09c084a08dd1baff8192a57cb23d006d3a36e209458",
      "blockNumber": "0x41b0fd",
      "gasUsed": "0x125654",
      "effectiveGasPrice": "0xf424f",
      "blobGasUsed": "0x0",
      "from": "0xc3ca11bd8e131471904dced927b3fb7edb453179",
      "to": "0x58b610a359c870e0fc941139821a51f5aa23f14e",
      "contractAddress": null
    },
    {
      "status": "0x1",
      "cumulativeGasUsed": "0x7a059d",
      "logs": [],
      "logsBloom": "0x00000000000000000000000000000000000000000000000000000000000000000000000000000000000000000000000000000000000000000000000000000000000000000000000000000000000000000000000000000000000000000000000000000000000000000000000000000000000000000000000000000000000000000000000000000000000000000000000000000000000000000000000000000000000000000000000000000000000000000000000000000000000000000000000000000000000000000000000000000000000000000000000000000000000000000000000000000000000000000000000000000000000000000000000000000000",
      "type": "0x2",
      "transactionHash": "0x30af36d60f0bc133db3b18c3b1300886d747b2e07a7f6b8fe57b21f2f35d0fe6",
      "transactionIndex": "0x20",
      "blockHash": "0x332754c9ab8d246c604eca5876ae8ba71998ae41e9ea3bb41c7146b846531dbe",
      "blockNumber": "0x41b0fe",
      "gasUsed": "0xf32bd",
      "effectiveGasPrice": "0xf424f",
      "blobGasUsed": "0x0",
      "from": "0xc3ca11bd8e131471904dced927b3fb7edb453179",
      "to": "0x58b610a359c870e0fc941139821a51f5aa23f14e",
      "contractAddress": null
    },
    {
      "status": "0x1",
      "cumulativeGasUsed": "0x379985",
      "logs": [],
      "logsBloom": "0x00000000000000000000000000000000000000000000000000000000000000000000000000000000000000000000000000000000000000000000000000000000000000000000000000000000000000000000000000000000000000000000000000000000000000000000000000000000000000000000000000000000000000000000000000000000000000000000000000000000000000000000000000000000000000000000000000000000000000000000000000000000000000000000000000000000000000000000000000000000000000000000000000000000000000000000000000000000000000000000000000000000000000000000000000000000",
      "type": "0x2",
      "transactionHash": "0x3da80a34b80898d703234d1bdb89809aeae3becf8961823b2763e16821427ce1",
      "transactionIndex": "0x17",
      "blockHash": "0x36858befa61f13dc4f01692f6b4a03f25ece42f6dc0fe9522b87eb4338a16598",
      "blockNumber": "0x41b0ff",
      "gasUsed": "0xf2379",
      "effectiveGasPrice": "0xf424e",
      "blobGasUsed": "0x0",
      "from": "0xc3ca11bd8e131471904dced927b3fb7edb453179",
      "to": "0x58b610a359c870e0fc941139821a51f5aa23f14e",
      "contractAddress": null
    }
  ],
  "libraries": [],
  "pending": [],
  "returns": {},
  "timestamp": 1754683251,
  "chain": 17000,
  "commit": "5798807"
}