{
  "transactions": [
    {
      "hash": "0xdbfcaff448bdba63ad84d4845390befc7373bdda115277e6d5ecf0bc794b2ef2",
      "transactionType": "CALL",
      "contractName": null,
      "contractAddress": "0x58b610a359c870e0fc941139821a51f5aa23f14e",
      "function": "addTxSender(address)",
      "arguments": [
        "0x0c6235c04eF4Fa5013A58afb22967a068810C929"
      ],
      "transaction": {
        "from": "0xc3ca11bd8e131471904dced927b3fb7edb453179",
        "to": "0x58b610a359c870e0fc941139821a51f5aa23f14e",
        "gas": "0x12a32",
        "value": "0x0",
        "input": "0xeebd14af0000000000000000000000000c6235c04ef4fa5013a58afb22967a068810c929",
        "nonce": "0x5b",
        "chainId": "0x8274f"
      },
      "additionalContracts": [],
      "isFixedGasLimit": false
    },
    {
      "hash": "0xa2528d54539bd9533726c3620579cfbed43f3bc5977bddc1f5c13246e84fe9c6",
      "transactionType": "CALL",
      "contractName": null,
      "contractAddress": "0x2f925d6512b2bbb00f5a36d8b18e01fcf35f7dc7",
      "function": "addTxSender(address)",
      "arguments": [
        "0x0c6235c04eF4Fa5013A58afb22967a068810C929"
      ],
      "transaction": {
        "from": "0xc3ca11bd8e131471904dced927b3fb7edb453179",
        "to": "0x2f925d6512b2bbb00f5a36d8b18e01fcf35f7dc7",
        "gas": "0x12a13",
        "value": "0x0",
        "input": "0xeebd14af0000000000000000000000000c6235c04ef4fa5013a58afb22967a068810c929",
        "nonce": "0x5c",
        "chainId": "0x8274f"
      },
      "additionalContracts": [],
      "isFixedGasLimit": false
    },
    {
      "hash": "0x0ad92e43776621c5636e42866952dcba0f72ee7fd54a2d3b448f21fed505eb89",
      "transactionType": "CALL",
      "contractName": null,
      "contractAddress": "0x9c9e9fad264089339aad66ff3e32d2ba1ddf6951",
      "function": "addTxSender(address)",
      "arguments": [
        "0x0c6235c04eF4Fa5013A58afb22967a068810C929"
      ],
      "transaction": {
        "from": "0xc3ca11bd8e131471904dced927b3fb7edb453179",
        "to": "0x9c9e9fad264089339aad66ff3e32d2ba1ddf6951",
        "gas": "0x12b07",
        "value": "0x0",
        "input": "0xeebd14af0000000000000000000000000c6235c04ef4fa5013a58afb22967a068810c929",
        "nonce": "0x5d",
        "chainId": "0x8274f"
      },
      "additionalContracts": [],
      "isFixedGasLimit": false
    },
    {
      "hash": "0x949b4163a1839c0c43152cb8234dc34b687b63fcd0916ab8462713037640c6df",
      "transactionType": "CALL",
      "contractName": null,
      "contractAddress": "0xe912f7c7a59470a6e3f178388106e3caa9e6fbd1",
      "function": "addTxSender(address)",
      "arguments": [
        "0x0c6235c04eF4Fa5013A58afb22967a068810C929"
      ],
      "transaction": {
        "from": "0xc3ca11bd8e131471904dced927b3fb7edb453179",
        "to": "0xe912f7c7a59470a6e3f178388106e3caa9e6fbd1",
        "gas": "0x12a8d",
        "value": "0x0",
        "input": "0xeebd14af0000000000000000000000000c6235c04ef4fa5013a58afb22967a068810c929",
        "nonce": "0x5e",
        "chainId": "0x8274f"
      },
      "additionalContracts": [],
      "isFixedGasLimit": false
    },
    {
      "hash": "0x19f3a4a854ae0ce10b7f3e4368df3e4deb835feee40a9d9894255cca2b759b65",
      "transactionType": "CALL",
      "contractName": null,
      "contractAddress": "0x92228b058f25bc4fb333fa296dddecbddf6496f3",
      "function": "addTxSender(address)",
      "arguments": [
        "0x0c6235c04eF4Fa5013A58afb22967a068810C929"
      ],
      "transaction": {
        "from": "0xc3ca11bd8e131471904dced927b3fb7edb453179",
        "to": "0x92228b058f25bc4fb333fa296dddecbddf6496f3",
        "gas": "0x12940",
        "value": "0x0",
        "input": "0xeebd14af0000000000000000000000000c6235c04ef4fa5013a58afb22967a068810c929",
        "nonce": "0x5f",
        "chainId": "0x8274f"
      },
      "additionalContracts": [],
      "isFixedGasLimit": false
    },
    {
      "hash": "0x42b7306f6158f93db8cfbe6e3bcb278f4217dd3fc1ab419b93313c0bbbafd6e9",
      "transactionType": "CALL",
      "contractName": null,
      "contractAddress": "0x2af842c6517cf30fb3456aef485230e0dd085845",
      "function": "addTxSender(address)",
      "arguments": [
        "0x0c6235c04eF4Fa5013A58afb22967a068810C929"
      ],
      "transaction": {
        "from": "0xc3ca11bd8e131471904dced927b3fb7edb453179",
        "to": "0x2af842c6517cf30fb3456aef485230e0dd085845",
        "gas": "0x12a14",
        "value": "0x0",
        "input": "0xeebd14af0000000000000000000000000c6235c04ef4fa5013a58afb22967a068810c929",
        "nonce": "0x60",
        "chainId": "0x8274f"
      },
      "additionalContracts": [],
      "isFixedGasLimit": false
    },
    {
      "hash": "0x814b7246b57e3235783e6dfdf894e588cf178b7e4891efc61a722ad3f58ff071",
      "transactionType": "CALL",
      "contractName": null,
      "contractAddress": "0x2026027054f5bebceb650abd62dc623e327658e7",
      "function": "addTxSender(address)",
      "arguments": [
        "0x0c6235c04eF4Fa5013A58afb22967a068810C929"
      ],
      "transaction": {
        "from": "0xc3ca11bd8e131471904dced927b3fb7edb453179",
        "to": "0x2026027054f5bebceb650abd62dc623e327658e7",
        "gas": "0x1294d",
        "value": "0x0",
        "input": "0xeebd14af0000000000000000000000000c6235c04ef4fa5013a58afb22967a068810c929",
        "nonce": "0x61",
        "chainId": "0x8274f"
      },
      "additionalContracts": [],
      "isFixedGasLimit": false
    }
  ],
  "receipts": [
    {
      "status": "0x1",
      "cumulativeGasUsed": "0xd7e4",
      "logs": [
        {
          "address": "0x58b610a359c870e0fc941139821a51f5aa23f14e",
          "topics": [
            "0xbfb8b3e2f6221ae729e9cacb0d35f5d9be686ba10cb1d4e34b646bbb87f7a269",
            "0x0000000000000000000000000c6235c04ef4fa5013a58afb22967a068810c929"
          ],
          "data": "0x0000000000000000000000000000000000000000000000000000000000000001",
          "blockHash": "0x23e39731e2c9d37f2ec802814a96dd2d9d383f14198cd2f17af8e64df1e6f27f",
          "blockNumber": "0xb0d2a8",
          "transactionHash": "0xdbfcaff448bdba63ad84d4845390befc7373bdda115277e6d5ecf0bc794b2ef2",
          "transactionIndex": "0x0",
          "logIndex": "0x0",
          "removed": false
        }
      ],
      "logsBloom": "0x00000000000010000000000000000000000000000000000000000000000000000000000000000080000000000000000020000020000000000000000000000000000040000000000000000000000000000000000000000000000000000000000000000000000000000000000000000000000000000000000000000002000000000000000000000000000000000000000000000000000000000000000000000000000000000100000000000000000000000000000000000000000000000000000000000000000000000000000000000000000000000000000000000000000000000000200000000000000000080000000000000000000000000000000000000000",
      "type": "0x2",
      "transactionHash": "0xdbfcaff448bdba63ad84d4845390befc7373bdda115277e6d5ecf0bc794b2ef2",
      "transactionIndex": "0x0",
      "blockHash": "0x23e39731e2c9d37f2ec802814a96dd2d9d383f14198cd2f17af8e64df1e6f27f",
      "blockNumber": "0xb0d2a8",
      "gasUsed": "0xd7e4",
      "effectiveGasPrice": "0xef426b",
      "from": "0xc3ca11bd8e131471904dced927b3fb7edb453179",
      "to": "0x58b610a359c870e0fc941139821a51f5aa23f14e",
      "contractAddress": null,
      "l1Fee": "0x6b94ff72859"
    },
    {
      "status": "0x1",
      "cumulativeGasUsed": "0xd7ce",
      "logs": [
        {
          "address": "0x2f925d6512b2bbb00f5a36d8b18e01fcf35f7dc7",
          "topics": [
            "0xbfb8b3e2f6221ae729e9cacb0d35f5d9be686ba10cb1d4e34b646bbb87f7a269",
            "0x0000000000000000000000000c6235c04ef4fa5013a58afb22967a068810c929"
          ],
          "data": "0x0000000000000000000000000000000000000000000000000000000000000001",
          "blockHash": "0xfe023d49d74efb50b1b735e0ab73a7dc60a31c8fcd0eb285d61361a97e2edaa2",
          "blockNumber": "0xb0d2a9",
          "transactionHash": "0xa2528d54539bd9533726c3620579cfbed43f3bc5977bddc1f5c13246e84fe9c6",
          "transactionIndex": "0x0",
          "logIndex": "0x0",
          "removed": false
        }
      ],
      "logsBloom": "0x00000000000000000000000000000000000000000000000000000000000000000000000000000080000000000000000020000020000000000000000000000000000040000000000000000000000000000000000000000000000000000000000000000000000000000000000000000000000000000000000000000002000000000000000400000000000000000000000000000000000000000000000000000000000000000000000000000000000000000000000000000000000000000000004000000000000000000000000000004000000000000000000000000000000000000000200000000000000000000000000000000000000000000000000000000000",
      "type": "0x2",
      "transactionHash": "0xa2528d54539bd9533726c3620579cfbed43f3bc5977bddc1f5c13246e84fe9c6",
      "transactionIndex": "0x0",
      "blockHash": "0xfe023d49d74efb50b1b735e0ab73a7dc60a31c8fcd0eb285d61361a97e2edaa2",
      "blockNumber": "0xb0d2a9",
      "gasUsed": "0xd7ce",
      "effectiveGasPrice": "0xef426b",
      "from": "0xc3ca11bd8e131471904dced927b3fb7edb453179",
      "to": "0x2f925d6512b2bbb00f5a36d8b18e01fcf35f7dc7",
      "contractAddress": null,
      "l1Fee": "0x6b94ff72859"
    },
    {
      "status": "0x1",
      "cumulativeGasUsed": "0xd87f",
      "logs": [
        {
          "address": "0x9c9e9fad264089339aad66ff3e32d2ba1ddf6951",
          "topics": [
            "0xbfb8b3e2f6221ae729e9cacb0d35f5d9be686ba10cb1d4e34b646bbb87f7a269",
            "0x0000000000000000000000000c6235c04ef4fa5013a58afb22967a068810c929"
          ],
          "data": "0x0000000000000000000000000000000000000000000000000000000000000001",
          "blockHash": "0xf8767707830270a1966a639c56c55d0c46bf3b510beaf7ab7600eaa1fb911d48",
          "blockNumber": "0xb0d2aa",
          "transactionHash": "0x0ad92e43776621c5636e42866952dcba0f72ee7fd54a2d3b448f21fed505eb89",
          "transactionIndex": "0x0",
          "logIndex": "0x0",
          "removed": false
        }
      ],
      "logsBloom": "0x00000000000000000000000000000000000000000000000000000000000000000000000000000080000000000000000020000020000000000000000000000000000040000000000000000000000000000000000000000000000000000000000000000000000000000000000000000000000000000000000000000002000000000000000000000000000000000000000000000000000000000000000000000000000000000000000000000000000000000000000000000000000000000000000000000000000000000000000800000000000000000000000000000000000002000000600000000000000000000000000000000000000000000000000000000000",
      "type": "0x2",
      "transactionHash": "0x0ad92e43776621c5636e42866952dcba0f72ee7fd54a2d3b448f21fed505eb89",
      "transactionIndex": "0x0",
      "blockHash": "0xf8767707830270a1966a639c56c55d0c46bf3b510beaf7ab7600eaa1fb911d48",
      "blockNumber": "0xb0d2aa",
      "gasUsed": "0xd87f",
      "effectiveGasPrice": "0xef426b",
      "from": "0xc3ca11bd8e131471904dced927b3fb7edb453179",
      "to": "0x9c9e9fad264089339aad66ff3e32d2ba1ddf6951",
      "contractAddress": null,
      "l1Fee": "0x6b94ff72859"
    },
    {
      "status": "0x1",
      "cumulativeGasUsed": "0xd826",
      "logs": [
        {
          "address": "0xe912f7c7a59470a6e3f178388106e3caa9e6fbd1",
          "topics": [
            "0xbfb8b3e2f6221ae729e9cacb0d35f5d9be686ba10cb1d4e34b646bbb87f7a269",
            "0x0000000000000000000000000c6235c04ef4fa5013a58afb22967a068810c929"
          ],
          "data": "0x0000000000000000000000000000000000000000000000000000000000000001",
          "blockHash": "0xe7776eff24f89261cda2e0280a779ba7825cea522b6246ae6a832bde0bbb8e21",
          "blockNumber": "0xb0d2ab",
          "transactionHash": "0x949b4163a1839c0c43152cb8234dc34b687b63fcd0916ab8462713037640c6df",
          "transactionIndex": "0x0",
          "logIndex": "0x0",
          "removed": false
        }
      ],
      "logsBloom": "0x00000000000000000000000000000000000000000000000000000000000004000000000000000080000000000000000020000020000000000000000000000000000040020000000000010000000000000000000000000000000000000000000000000000000000000000000000000000000000000000000000000002000000000000000000000000000000000000000000000000000000000000000000000000000000000000000000000000000000000000000000000000000000000000000000000000000000000000000000000000000000000000000000000000000000000000200000000000000000000000000000000000000000000000000000000000",
      "type": "0x2",
      "transactionHash": "0x949b4163a1839c0c43152cb8234dc34b687b63fcd0916ab8462713037640c6df",
      "transactionIndex": "0x0",
      "blockHash": "0xe7776eff24f89261cda2e0280a779ba7825cea522b6246ae6a832bde0bbb8e21",
      "blockNumber": "0xb0d2ab",
      "gasUsed": "0xd826",
      "effectiveGasPrice": "0xef426b",
      "from": "0xc3ca11bd8e131471904dced927b3fb7edb453179",
      "to": "0xe912f7c7a59470a6e3f178388106e3caa9e6fbd1",
      "contractAddress": null,
      "l1Fee": "0x6b94ff72859"
    },
    {
      "status": "0x1",
      "cumulativeGasUsed": "0xd735",
      "logs": [
        {
          "address": "0x92228b058f25bc4fb333fa296dddecbddf6496f3",
          "topics": [
            "0xbfb8b3e2f6221ae729e9cacb0d35f5d9be686ba10cb1d4e34b646bbb87f7a269",
            "0x0000000000000000000000000c6235c04ef4fa5013a58afb22967a068810c929"
          ],
          "data": "0x0000000000000000000000000000000000000000000000000000000000000001",
          "blockHash": "0xf1617c8eecea1c228fc6e50ec57051f2d0780b64e0ec20bf11947e5dc3e72ceb",
          "blockNumber": "0xb0d2ac",
          "transactionHash": "0x19f3a4a854ae0ce10b7f3e4368df3e4deb835feee40a9d9894255cca2b759b65",
          "transactionIndex": "0x0",
          "logIndex": "0x0",
          "removed": false
        }
      ],
      "logsBloom": "0x00000000000000000000000000000000000000000000000000000000000000000000000000000080000000000000000020000020000000000000000000000000000040000000000000000000000000000000000000000000000000000000000000000000000000000000000000000000000000000000000000000002000000000000000000000000000000000000000000000000000000008010000000000000000000000000000000000000000000000000000000000000000000000000000000000000002000000000000000000000000000000000000000000000000000000000200000000000000000000000000000000000000000000000000000000000",
      "type": "0x2",
      "transactionHash": "0x19f3a4a854ae0ce10b7f3e4368df3e4deb835feee40a9d9894255cca2b759b65",
      "transactionIndex": "0x0",
      "blockHash": "0xf1617c8eecea1c228fc6e50ec57051f2d0780b64e0ec20bf11947e5dc3e72ceb",
      "blockNumber": "0xb0d2ac",
      "gasUsed": "0xd735",
      "effectiveGasPrice": "0xef426b",
      "from": "0xc3ca11bd8e131471904dced927b3fb7edb453179",
      "to": "0x92228b058f25bc4fb333fa296dddecbddf6496f3",
      "contractAddress": null,
      "l1Fee": "0x6b94ff72859"
    },
    {
      "status": "0x1",
      "cumulativeGasUsed": "0xd7cf",
      "logs": [
        {
          "address": "0x2af842c6517cf30fb3456aef485230e0dd085845",
          "topics": [
            "0xbfb8b3e2f6221ae729e9cacb0d35f5d9be686ba10cb1d4e34b646bbb87f7a269",
            "0x0000000000000000000000000c6235c04ef4fa5013a58afb22967a068810c929"
          ],
          "data": "0x0000000000000000000000000000000000000000000000000000000000000001",
          "blockHash": "0x1d9a920f3bbfb3778fe70cd0200452487cc787a893d7f111a1d44dec8d165473",
          "blockNumber": "0xb0d2ad",
          "transactionHash": "0x42b7306f6158f93db8cfbe6e3bcb278f4217dd3fc1ab419b93313c0bbbafd6e9",
          "transactionIndex": "0x0",
          "logIndex": "0x0",
          "removed": false
        }
      ],
      "logsBloom": "0x00000000000000000000000000000000000000000000000000000000000000000000000000000080000000000000000020000020000000000000000000000000000040000000800000000000000000000000000000000000000000000000000000000000000000000000000000000000000000000000000000000002000000000000000000000000000000000000000000000000000000000000000000000000000000004000000000000000000000000000000000000000000000000000000000000000000000000000000000000000000000000000000000000200000000000000200000000000000000000000000000000000000000000000000000000000",
      "type": "0x2",
      "transactionHash": "0x42b7306f6158f93db8cfbe6e3bcb278f4217dd3fc1ab419b93313c0bbbafd6e9",
      "transactionIndex": "0x0",
      "blockHash": "0x1d9a920f3bbfb3778fe70cd0200452487cc787a893d7f111a1d44dec8d165473",
      "blockNumber": "0xb0d2ad",
      "gasUsed": "0xd7cf",
      "effectiveGasPrice": "0xef426b",
      "from": "0xc3ca11bd8e131471904dced927b3fb7edb453179",
      "to": "0x2af842c6517cf30fb3456aef485230e0dd085845",
      "contractAddress": null,
      "l1Fee": "0x6b94ff72859"
    },
    {
      "status": "0x1",
      "cumulativeGasUsed": "0x178a1",
      "logs": [
        {
          "address": "0x2026027054f5bebceb650abd62dc623e327658e7",
          "topics": [
            "0xbfb8b3e2f6221ae729e9cacb0d35f5d9be686ba10cb1d4e34b646bbb87f7a269",
            "0x0000000000000000000000000c6235c04ef4fa5013a58afb22967a068810c929"
          ],
          "data": "0x0000000000000000000000000000000000000000000000000000000000000001",
          "blockHash": "0x8111e4f08cef6d4cec683455d35e74593b325ab3ac4905e9b8ace22aed75a8d3",
          "blockNumber": "0xb0d2ae",
          "transactionHash": "0x814b7246b57e3235783e6dfdf894e588cf178b7e4891efc61a722ad3f58ff071",
          "transactionIndex": "0x1",
          "logIndex": "0x2",
          "removed": false
        }
      ],
      "logsBloom": "0x00000000000000000000000000000000000000000000000000000000000000000000000000800080000000000000000020000020000000000000000000000200000040000000000000000000000000000000000000000000000000000000000000000000000000000000000000000000000000000000000000000002000000000020000000000000000000000000000000000000000000000000000000000000000000000000000000000000000000000000000000000000000000000000000000000000000000000000000000000000000000000000000000000000000000000000200000000000000000000000000000000000000000000000000000000000",
      "type": "0x2",
      "transactionHash": "0x814b7246b57e3235783e6dfdf894e588cf178b7e4891efc61a722ad3f58ff071",
      "transactionIndex": "0x1",
      "blockHash": "0x8111e4f08cef6d4cec683455d35e74593b325ab3ac4905e9b8ace22aed75a8d3",
      "blockNumber": "0xb0d2ae",
      "gasUsed": "0xd73f",
      "effectiveGasPrice": "0xef426b",
      "from": "0xc3ca11bd8e131471904dced927b3fb7edb453179",
      "to": "0x2026027054f5bebceb650abd62dc623e327658e7",
      "contractAddress": null,
      "l1Fee": "0x65d400aaa83"
    }
  ],
  "libraries": [],
  "pending": [],
  "returns": {},
  "timestamp": 1755279603,
  "chain": 534351,
  "commit": "cdeee31"
}