{
  "transactions": [
    {
      "hash": "0x9f2826ba15ac8e17d1f0acc77429a6726bd96be6dee88f70a599123d38c810b7",
      "transactionType": "CALL",
      "contractName": null,
      "contractAddress": "0x58b610a359c870e0fc941139821a51f5aa23f14e",
      "function": "addTxSender(address)",
      "arguments": [
        "0x5d0725Add79feD3f0E61851b3C4704148Ef9c7eA"
      ],
      "transaction": {
        "from": "0xc3ca11bd8e131471904dced927b3fb7edb453179",
        "to": "0x58b610a359c870e0fc941139821a51f5aa23f14e",
        "gas": "0x11cbb",
        "value": "0x0",
        "input": "0xeebd14af0000000000000000000000005d0725add79fed3f0e61851b3c4704148ef9c7ea",
        "nonce": "0xd9",
        "chainId": "0x66eee"
      },
      "additionalContracts": [],
      "isFixedGasLimit": false
    },
    {
      "hash": "0x9e5b0a2a249b6ac544cc8fb842ede02cfd9708dc66e5c885ce47a5db58216335",
      "transactionType": "CALL",
      "contractName": null,
      "contractAddress": "0x2f925d6512b2bbb00f5a36d8b18e01fcf35f7dc7",
      "function": "addTxSender(address)",
      "arguments": [
        "0x5d0725Add79feD3f0E61851b3C4704148Ef9c7eA"
      ],
      "transaction": {
        "from": "0xc3ca11bd8e131471904dced927b3fb7edb453179",
        "to": "0x2f925d6512b2bbb00f5a36d8b18e01fcf35f7dc7",
        "gas": "0x11c9e",
        "value": "0x0",
        "input": "0xeebd14af0000000000000000000000005d0725add79fed3f0e61851b3c4704148ef9c7ea",
        "nonce": "0xda",
        "chainId": "0x66eee"
      },
      "additionalContracts": [],
      "isFixedGasLimit": false
    },
    {
      "hash": "0x5ced980c2b76b79a2a646a3b87a9fa08a53beb6b6d194bca8fde18bd7270e3fe",
      "transactionType": "CALL",
      "contractName": null,
      "contractAddress": "0x9c9e9fad264089339aad66ff3e32d2ba1ddf6951",
      "function": "addTxSender(address)",
      "arguments": [
        "0x5d0725Add79feD3f0E61851b3C4704148Ef9c7eA"
      ],
      "transaction": {
        "from": "0xc3ca11bd8e131471904dced927b3fb7edb453179",
        "to": "0x9c9e9fad264089339aad66ff3e32d2ba1ddf6951",
        "gas": "0x11d85",
        "value": "0x0",
        "input": "0xeebd14af0000000000000000000000005d0725add79fed3f0e61851b3c4704148ef9c7ea",
        "nonce": "0xdb",
        "chainId": "0x66eee"
      },
      "additionalContracts": [],
      "isFixedGasLimit": false
    },
    {
      "hash": "0x3652689d0743c866f0813d73bb396d15f1838c6f22ad524f9e4e8419ff2e2925",
      "transactionType": "CALL",
      "contractName": null,
      "contractAddress": "0xe912f7c7a59470a6e3f178388106e3caa9e6fbd1",
      "function": "addTxSender(address)",
      "arguments": [
        "0x5d0725Add79feD3f0E61851b3C4704148Ef9c7eA"
      ],
      "transaction": {
        "from": "0xc3ca11bd8e131471904dced927b3fb7edb453179",
        "to": "0xe912f7c7a59470a6e3f178388106e3caa9e6fbd1",
        "gas": "0x11d10",
        "value": "0x0",
        "input": "0xeebd14af0000000000000000000000005d0725add79fed3f0e61851b3c4704148ef9c7ea",
        "nonce": "0xdc",
        "chainId": "0x66eee"
      },
      "additionalContracts": [],
      "isFixedGasLimit": false
    },
    {
      "hash": "0xc9e50333e17a6a1acf73815b18e31467f2bb593d8aa90ce3afb60e46e606936d",
      "transactionType": "CALL",
      "contractName": null,
      "contractAddress": "0x92228b058f25bc4fb333fa296dddecbddf6496f3",
      "function": "addTxSender(address)",
      "arguments": [
        "0x5d0725Add79feD3f0E61851b3C4704148Ef9c7eA"
      ],
      "transaction": {
        "from": "0xc3ca11bd8e131471904dced927b3fb7edb453179",
        "to": "0x92228b058f25bc4fb333fa296dddecbddf6496f3",
        "gas": "0x11bd7",
        "value": "0x0",
        "input": "0xeebd14af0000000000000000000000005d0725add79fed3f0e61851b3c4704148ef9c7ea",
        "nonce": "0xdd",
        "chainId": "0x66eee"
      },
      "additionalContracts": [],
      "isFixedGasLimit": false
    },
    {
      "hash": "0xb7774c3bd8fb8911bf692a271bd1f3d4775eca957fad250e082a1eec18599c1d",
      "transactionType": "CALL",
      "contractName": null,
      "contractAddress": "0x2af842c6517cf30fb3456aef485230e0dd085845",
      "function": "addTxSender(address)",
      "arguments": [
        "0x5d0725Add79feD3f0E61851b3C4704148Ef9c7eA"
      ],
      "transaction": {
        "from": "0xc3ca11bd8e131471904dced927b3fb7edb453179",
        "to": "0x2af842c6517cf30fb3456aef485230e0dd085845",
        "gas": "0x11c9f",
        "value": "0x0",
        "input": "0xeebd14af0000000000000000000000005d0725add79fed3f0e61851b3c4704148ef9c7ea",
        "nonce": "0xde",
        "chainId": "0x66eee"
      },
      "additionalContracts": [],
      "isFixedGasLimit": false
    },
    {
      "hash": "0xd12255ee6e789d17acf4b18750e843a07f020179727c952e78d43de19a752113",
      "transactionType": "CALL",
      "contractName": null,
      "contractAddress": "0x2026027054f5bebceb650abd62dc623e327658e7",
      "function": "addTxSender(address)",
      "arguments": [
        "0x5d0725Add79feD3f0E61851b3C4704148Ef9c7eA"
      ],
      "transaction": {
        "from": "0xc3ca11bd8e131471904dced927b3fb7edb453179",
        "to": "0x2026027054f5bebceb650abd62dc623e327658e7",
        "gas": "0x11be4",
        "value": "0x0",
        "input": "0xeebd14af0000000000000000000000005d0725add79fed3f0e61851b3c4704148ef9c7ea",
        "nonce": "0xdf",
        "chainId": "0x66eee"
      },
      "additionalContracts": [],
      "isFixedGasLimit": false
    }
  ],
  "receipts": [
    {
      "status": "0x1",
      "cumulativeGasUsed": "0xd7e4",
      "logs": [
        {
          "address": "0x58b610a359c870e0fc941139821a51f5aa23f14e",
          "topics": [
            "0xbfb8b3e2f6221ae729e9cacb0d35f5d9be686ba10cb1d4e34b646bbb87f7a269",
            "0x0000000000000000000000005d0725add79fed3f0e61851b3c4704148ef9c7ea"
          ],
          "data": "0x0000000000000000000000000000000000000000000000000000000000000001",
          "blockHash": "0xdbee8f1e062652f26487754b480a830bfdfbb52e03ad144d6f64e3f3b68a8757",
          "blockNumber": "0xbcc84c2",
          "transactionHash": "0x9f2826ba15ac8e17d1f0acc77429a6726bd96be6dee88f70a599123d38c810b7",
          "transactionIndex": "0x1",
          "logIndex": "0x0",
          "removed": false
        }
      ],
      "logsBloom": "0x00000000000010000000000000000000000000000000000000000000000000000000000000000000000000000000000000000020000000000000000000000000000040000000000000000000000000000000000000000000000000000000000000000000000000000000000000000000000000000000000000000002000000000000000000000000000000000000000000000000000000000000000000000000000000000100000000000000000000000000000000000000000000000000000000000000000000000000000000000000000000000000000000000000000008000000000000000000000000080000000000000008000001000000000000000000",
      "type": "0x2",
      "transactionHash": "0x9f2826ba15ac8e17d1f0acc77429a6726bd96be6dee88f70a599123d38c810b7",
      "transactionIndex": "0x1",
      "blockHash": "0xdbee8f1e062652f26487754b480a830bfdfbb52e03ad144d6f64e3f3b68a8757",
      "blockNumber": "0xbcc84c2",
      "gasUsed": "0xd7e4",
      "effectiveGasPrice": "0x5f5e100",
      "from": "0xc3ca11bd8e131471904dced927b3fb7edb453179",
      "to": "0x58b610a359c870e0fc941139821a51f5aa23f14e",
      "contractAddress": null,
      "gasUsedForL1": "0x0",
      "l1BlockNumber": "0x8d8c33",
      "timeboosted": false
    },
    {
      "status": "0x1",
      "cumulativeGasUsed": "0x14d9c1",
      "logs": [
        {
          "address": "0x2f925d6512b2bbb00f5a36d8b18e01fcf35f7dc7",
          "topics": [
            "0xbfb8b3e2f6221ae729e9cacb0d35f5d9be686ba10cb1d4e34b646bbb87f7a269",
            "0x0000000000000000000000005d0725add79fed3f0e61851b3c4704148ef9c7ea"
          ],
          "data": "0x0000000000000000000000000000000000000000000000000000000000000001",
          "blockHash": "0x4bdbbdc49c2a8c781fd0e5c40ae4c22fe272aa7456fa2f28fca71c1efb4fb404",
          "blockNumber": "0xbcc84cc",
          "transactionHash": "0x9e5b0a2a249b6ac544cc8fb842ede02cfd9708dc66e5c885ce47a5db58216335",
          "transactionIndex": "0x4",
          "logIndex": "0x7",
          "removed": false
        }
      ],
      "logsBloom": "0x00000000000000000000000000000000000000000000000000000000000000000000000000000000000000000000000000000020000000000000000000000000000040000000000000000000000000000000000000000000000000000000000000000000000000000000000000000000000000000000000000000002000000000000000400000000000000000000000000000000000000000000000000000000000000000000000000000000000000000000000000000000000000000000004000000000000000000000000000004000000000000000000000000000000008000000000000000000000000000000000000000008000001000000000000000000",
      "type": "0x2",
      "transactionHash": "0x9e5b0a2a249b6ac544cc8fb842ede02cfd9708dc66e5c885ce47a5db58216335",
      "transactionIndex": "0x4",
      "blockHash": "0x4bdbbdc49c2a8c781fd0e5c40ae4c22fe272aa7456fa2f28fca71c1efb4fb404",
      "blockNumber": "0xbcc84cc",
      "gasUsed": "0xd7ce",
      "effectiveGasPrice": "0x5f5e100",
      "from": "0xc3ca11bd8e131471904dced927b3fb7edb453179",
      "to": "0x2f925d6512b2bbb00f5a36d8b18e01fcf35f7dc7",
      "contractAddress": null,
      "gasUsedForL1": "0x0",
      "l1BlockNumber": "0x8d8c33",
      "timeboosted": false
    },
    {
      "status": "0x1",
      "cumulativeGasUsed": "0xd87f",
      "logs": [
        {
          "address": "0x9c9e9fad264089339aad66ff3e32d2ba1ddf6951",
          "topics": [
            "0xbfb8b3e2f6221ae729e9cacb0d35f5d9be686ba10cb1d4e34b646bbb87f7a269",
            "0x0000000000000000000000005d0725add79fed3f0e61851b3c4704148ef9c7ea"
          ],
          "data": "0x0000000000000000000000000000000000000000000000000000000000000001",
          "blockHash": "0x66e3d43f69a1b60aaf9f97370c681b68c18c063e78f50e9fc981480ce8258356",
          "blockNumber": "0xbcc84d7",
          "transactionHash": "0x5ced980c2b76b79a2a646a3b87a9fa08a53beb6b6d194bca8fde18bd7270e3fe",
          "transactionIndex": "0x1",
          "logIndex": "0x0",
          "removed": false
        }
      ],
      "logsBloom": "0x0000000000000000000000000000000000000000000000000000000000000000000000000000000000000000000000000000002000000000000000000000000000004000000000000000000000000000000000000000000000000000000000000000000000000000000000000000000000000000000000000000000200000000000000000000000000000000000000000000000000000000000000000000000000000000000000000000000000000000000000000000000000000000000000000000000000000000000000080000000000000000000000000000000000000a000000400000000000000000000000000000000008000001000000000000000000",
      "type": "0x2",
      "transactionHash": "0x5ced980c2b76b79a2a646a3b87a9fa08a53beb6b6d194bca8fde18bd7270e3fe",
      "transactionIndex": "0x1",
      "blockHash": "0x66e3d43f69a1b60aaf9f97370c681b68c18c063e78f50e9fc981480ce8258356",
      "blockNumber": "0xbcc84d7",
      "gasUsed": "0xd87f",
      "effectiveGasPrice": "0x5f5e100",
      "from": "0xc3ca11bd8e131471904dced927b3fb7edb453179",
      "to": "0x9c9e9fad264089339aad66ff3e32d2ba1ddf6951",
      "contractAddress": null,
      "gasUsedForL1": "0x0",
      "l1BlockNumber": "0x8d8c33",
      "timeboosted": false
    },
    {
      "status": "0x1",
      "cumulativeGasUsed": "0x75bd9",
      "logs": [
        {
          "address": "0xe912f7c7a59470a6e3f178388106e3caa9e6fbd1",
          "topics": [
            "0xbfb8b3e2f6221ae729e9cacb0d35f5d9be686ba10cb1d4e34b646bbb87f7a269",
            "0x0000000000000000000000005d0725add79fed3f0e61851b3c4704148ef9c7ea"
          ],
          "data": "0x0000000000000000000000000000000000000000000000000000000000000001",
          "blockHash": "0xb6ac31084aafa30dc8c853d20029a29d1e366838d6099aaa43b27983885fff39",
          "blockNumber": "0xbcc84e1",
          "transactionHash": "0x3652689d0743c866f0813d73bb396d15f1838c6f22ad524f9e4e8419ff2e2925",
          "transactionIndex": "0x4",
          "logIndex": "0x9",
          "removed": false
        }
      ],
      "logsBloom": "0x00000000000000000000000000000000000000000000000000000000000004000000000000000000000000000000000000000020000000000000000000000000000040020000000000010000000000000000000000000000000000000000000000000000000000000000000000000000000000000000000000000002000000000000000000000000000000000000000000000000000000000000000000000000000000000000000000000000000000000000000000000000000000000000000000000000000000000000000000000000000000000000000000000000000008000000000000000000000000000000000000000008000001000000000000000000",
      "type": "0x2",
      "transactionHash": "0x3652689d0743c866f0813d73bb396d15f1838c6f22ad524f9e4e8419ff2e2925",
      "transactionIndex": "0x4",
      "blockHash": "0xb6ac31084aafa30dc8c853d20029a29d1e366838d6099aaa43b27983885fff39",
      "blockNumber": "0xbcc84e1",
      "gasUsed": "0xd826",
      "effectiveGasPrice": "0x5f5e100",
      "from": "0xc3ca11bd8e131471904dced927b3fb7edb453179",
      "to": "0xe912f7c7a59470a6e3f178388106e3caa9e6fbd1",
      "contractAddress": null,
      "gasUsedForL1": "0x0",
      "l1BlockNumber": "0x8d8c33",
      "timeboosted": false
    },
    {
      "status": "0x1",
      "cumulativeGasUsed": "0x718af",
      "logs": [
        {
          "address": "0x92228b058f25bc4fb333fa296dddecbddf6496f3",
          "topics": [
            "0xbfb8b3e2f6221ae729e9cacb0d35f5d9be686ba10cb1d4e34b646bbb87f7a269",
            "0x0000000000000000000000005d0725add79fed3f0e61851b3c4704148ef9c7ea"
          ],
          "data": "0x0000000000000000000000000000000000000000000000000000000000000001",
          "blockHash": "0xa67899ed9f2c6ca0abf32a459da17294ad20ce517fc0ef79d25241dcdd5916a1",
          "blockNumber": "0xbcc84ec",
          "transactionHash": "0xc9e50333e17a6a1acf73815b18e31467f2bb593d8aa90ce3afb60e46e606936d",
          "transactionIndex": "0x4",
          "logIndex": "0xb",
          "removed": false
        }
      ],
      "logsBloom": "0x00000000000000000000000000000000000000000000000000000000000000000000000000000000000000000000000000000020000000000000000000000000000040000000000000000000000000000000000000000000000000000000000000000000000000000000000000000000000000000000000000000002000000000000000000000000000000000000000000000000000000008010000000000000000000000000000000000000000000000000000000000000000000000000000000000000002000000000000000000000000000000000000000000000000008000000000000000000000000000000000000000008000001000000000000000000",
      "type": "0x2",
      "transactionHash": "0xc9e50333e17a6a1acf73815b18e31467f2bb593d8aa90ce3afb60e46e606936d",
      "transactionIndex": "0x4",
      "blockHash": "0xa67899ed9f2c6ca0abf32a459da17294ad20ce517fc0ef79d25241dcdd5916a1",
      "blockNumber": "0xbcc84ec",
      "gasUsed": "0xd735",
      "effectiveGasPrice": "0x5f5e100",
      "from": "0xc3ca11bd8e131471904dced927b3fb7edb453179",
      "to": "0x92228b058f25bc4fb333fa296dddecbddf6496f3",
      "contractAddress": null,
      "gasUsedForL1": "0x0",
      "l1BlockNumber": "0x8d8c33",
      "timeboosted": false
    },
    {
      "status": "0x1",
      "cumulativeGasUsed": "0x18f1f",
      "logs": [
        {
          "address": "0x2af842c6517cf30fb3456aef485230e0dd085845",
          "topics": [
            "0xbfb8b3e2f6221ae729e9cacb0d35f5d9be686ba10cb1d4e34b646bbb87f7a269",
            "0x0000000000000000000000005d0725add79fed3f0e61851b3c4704148ef9c7ea"
          ],
          "data": "0x0000000000000000000000000000000000000000000000000000000000000001",
          "blockHash": "0x695f93afa0070f306267ccb5ec330f15dbbc573f6d031989a053c8aa5d45edda",
          "blockNumber": "0xbcc84f7",
          "transactionHash": "0xb7774c3bd8fb8911bf692a271bd1f3d4775eca957fad250e082a1eec18599c1d",
          "transactionIndex": "0x2",
          "logIndex": "0x1",
          "removed": false
        }
      ],
      "logsBloom": "0x00000000000000000000000000000000000000000000000000000000000000000000000000000000000000000000000000000020000000000000000000000000000040000000800000000000000000000000000000000000000000000000000000000000000000000000000000000000000000000000000000000002000000000000000000000000000000000000000000000000000000000000000000000000000000004000000000000000000000000000000000000000000000000000000000000000000000000000000000000000000000000000000000000200000008000000000000000000000000000000000000000008000001000000000000000000",
      "type": "0x2",
      "transactionHash": "0xb7774c3bd8fb8911bf692a271bd1f3d4775eca957fad250e082a1eec18599c1d",
      "transactionIndex": "0x2",
      "blockHash": "0x695f93afa0070f306267ccb5ec330f15dbbc573f6d031989a053c8aa5d45edda",
      "blockNumber": "0xbcc84f7",
      "gasUsed": "0xd7cf",
      "effectiveGasPrice": "0x5f5e100",
      "from": "0xc3ca11bd8e131471904dced927b3fb7edb453179",
      "to": "0x2af842c6517cf30fb3456aef485230e0dd085845",
      "contractAddress": null,
      "gasUsedForL1": "0x0",
      "l1BlockNumber": "0x8d8c34",
      "timeboosted": false
    },
    {
      "status": "0x1",
      "cumulativeGasUsed": "0xd73f",
      "logs": [
        {
          "address": "0x2026027054f5bebceb650abd62dc623e327658e7",
          "topics": [
            "0xbfb8b3e2f6221ae729e9cacb0d35f5d9be686ba10cb1d4e34b646bbb87f7a269",
            "0x0000000000000000000000005d0725add79fed3f0e61851b3c4704148ef9c7ea"
          ],
          "data": "0x0000000000000000000000000000000000000000000000000000000000000001",
          "blockHash": "0x8322907c6c3d0eca4fdc317cc61ad99ed9607d46170629e4fa4e7c931c2d2996",
          "blockNumber": "0xbcc8500",
          "transactionHash": "0xd12255ee6e789d17acf4b18750e843a07f020179727c952e78d43de19a752113",
          "transactionIndex": "0x1",
          "logIndex": "0x0",
          "removed": false
        }
      ],
      "logsBloom": "0x00000000000000000000000000000000000000000000000000000000000000000000000000800000000000000000000000000020000000000000000000000200000040000000000000000000000000000000000000000000000000000000000000000000000000000000000000000000000000000000000000000002000000000020000000000000000000000000000000000000000000000000000000000000000000000000000000000000000000000000000000000000000000000000000000000000000000000000000000000000000000000000000000000000000008000000000000000000000000000000000000000008000001000000000000000000",
      "type": "0x2",
      "transactionHash": "0xd12255ee6e789d17acf4b18750e843a07f020179727c952e78d43de19a752113",
      "transactionIndex": "0x1",
      "blockHash": "0x8322907c6c3d0eca4fdc317cc61ad99ed9607d46170629e4fa4e7c931c2d2996",
      "blockNumber": "0xbcc8500",
      "gasUsed": "0xd73f",
      "effectiveGasPrice": "0x5f5e100",
      "from": "0xc3ca11bd8e131471904dced927b3fb7edb453179",
      "to": "0x2026027054f5bebceb650abd62dc623e327658e7",
      "contractAddress": null,
      "gasUsedForL1": "0x0",
      "l1BlockNumber": "0x8d8c34",
      "timeboosted": false
    }
  ],
  "libraries": [],
  "pending": [],
  "returns": {},
  "timestamp": 1758798574714,
  "chain": 421614,
  "commit": "9b3cda6"
}