{
  "transactions": [
    {
      "hash": "0x8e22a44b0e6e08be78a10cc647cdde7ab59540c7656cb3e5e6a1b502935bca11",
      "transactionType": "CALL",
      "contractName": null,
      "contractAddress": "0x33348aa4a1d62757eb6077c86554672dd22902ae",
      "function": "getFeeTokenList()",
      "arguments": [],
      "transaction": {
        "from": "0xe62ab4d111f968660c6b2188046f9b9ba53c4bae",
        "to": "0x33348aa4a1d62757eb6077c86554672dd22902ae",
        "gas": "0x8c1e",
        "value": "0x0",
        "input": "0xe28ab277",
        "nonce": "0x4e4",
        "chainId": "0x66eee"
      },
      "additionalContracts": [],
      "isFixedGasLimit": false
    },
    {
      "hash": "0xa6e9baa8b3f0b4caf61ca5f098d3a383db7d1ea82ef57dc5f287c17cbd2c10bf",
      "transactionType": "CALL",
      "contractName": null,
      "contractAddress": "0x33348aa4a1d62757eb6077c86554672dd22902ae",
      "function": "addFeeToken(string)",
      "arguments": [
        "0x92829288c6aa874c1a0f190da35a4023c22be637"
      ],
      "transaction": {
        "from": "0xe62ab4d111f968660c6b2188046f9b9ba53c4bae",
        "to": "0x33348aa4a1d62757eb6077c86554672dd22902ae",
        "gas": "0x262e3",
        "value": "0x0",
        "input": "0x12a6385f0000000000000000000000000000000000000000000000000000000000000020000000000000000000000000000000000000000000000000000000000000002a30783932383239323838633661613837346331613066313930646133356134303233633232626536333700000000000000000000000000000000000000000000",
        "nonce": "0x4e5",
        "chainId": "0x66eee"
      },
      "additionalContracts": [],
      "isFixedGasLimit": false
    },
    {
      "hash": "0x19e69d3ac01b4e4fc155861d5dce75fc6938eb6e5d5cde630c9ce4e3422ede69",
      "transactionType": "CALL",
      "contractName": null,
      "contractAddress": "0x33348aa4a1d62757eb6077c86554672dd22902ae",
      "function": "setFeeMultiplier(uint8,uint256)",
      "arguments": [
        "0",
        "2"
      ],
      "transaction": {
        "from": "0xe62ab4d111f968660c6b2188046f9b9ba53c4bae",
        "to": "0x33348aa4a1d62757eb6077c86554672dd22902ae",
        "gas": "0x10e6f",
        "value": "0x0",
        "input": "0x0ee24eb500000000000000000000000000000000000000000000000000000000000000000000000000000000000000000000000000000000000000000000000000000002",
        "nonce": "0x4e6",
        "chainId": "0x66eee"
      },
      "additionalContracts": [],
      "isFixedGasLimit": false
    },
    {
      "hash": "0x45728db7475c71f6163da8631a798dd86f8190c967c3ed1fc5b74946348786e3",
      "transactionType": "CALL",
      "contractName": null,
      "contractAddress": "0x33348aa4a1d62757eb6077c86554672dd22902ae",
      "function": "setFeeMultiplier(uint8,uint256)",
      "arguments": [
        "1",
        "10"
      ],
      "transaction": {
        "from": "0xe62ab4d111f968660c6b2188046f9b9ba53c4bae",
        "to": "0x33348aa4a1d62757eb6077c86554672dd22902ae",
        "gas": "0x10ea4",
        "value": "0x0",
        "input": "0x0ee24eb50000000000000000000000000000000000000000000000000000000000000001000000000000000000000000000000000000000000000000000000000000000a",
        "nonce": "0x4e7",
        "chainId": "0x66eee"
      },
      "additionalContracts": [],
      "isFixedGasLimit": false
    },
    {
      "hash": "0x4828dfcf4a8857f05dead3b0c1518dd89e364e64b748550d2b0456bcc31c3d2d",
      "transactionType": "CALL",
      "contractName": null,
      "contractAddress": "0x33348aa4a1d62757eb6077c86554672dd22902ae",
      "function": "setFeeMultiplier(uint8,uint256)",
      "arguments": [
        "2",
        "1"
      ],
      "transaction": {
        "from": "0xe62ab4d111f968660c6b2188046f9b9ba53c4bae",
        "to": "0x33348aa4a1d62757eb6077c86554672dd22902ae",
        "gas": "0x10ec2",
        "value": "0x0",
        "input": "0x0ee24eb500000000000000000000000000000000000000000000000000000000000000020000000000000000000000000000000000000000000000000000000000000001",
        "nonce": "0x4e8",
        "chainId": "0x66eee"
      },
      "additionalContracts": [],
      "isFixedGasLimit": false
    },
    {
      "hash": "0x9037a0b4b8e48f38bc63c72db8945a95591398e4f2af9aa67e0c4617a5c5b0e5",
      "transactionType": "CALL",
      "contractName": null,
      "contractAddress": "0x33348aa4a1d62757eb6077c86554672dd22902ae",
      "function": "setFeeMultiplier(uint8,uint256)",
      "arguments": [
        "3",
        "4"
      ],
      "transaction": {
        "from": "0xe62ab4d111f968660c6b2188046f9b9ba53c4bae",
        "to": "0x33348aa4a1d62757eb6077c86554672dd22902ae",
        "gas": "0x10ee0",
        "value": "0x0",
        "input": "0x0ee24eb500000000000000000000000000000000000000000000000000000000000000030000000000000000000000000000000000000000000000000000000000000004",
        "nonce": "0x4e9",
        "chainId": "0x66eee"
      },
      "additionalContracts": [],
      "isFixedGasLimit": false
    },
    {
      "hash": "0x49a114597d8933c9aa9539fcf618614c147ee44fa632c4e4e1bfa546395f581b",
      "transactionType": "CALL",
      "contractName": null,
      "contractAddress": "0x33348aa4a1d62757eb6077c86554672dd22902ae",
      "function": "setFeeMultiplier(uint8,uint256)",
      "arguments": [
        "4",
        "4"
      ],
      "transaction": {
        "from": "0xe62ab4d111f968660c6b2188046f9b9ba53c4bae",
        "to": "0x33348aa4a1d62757eb6077c86554672dd22902ae",
        "gas": "0x10eff",
        "value": "0x0",
        "input": "0x0ee24eb500000000000000000000000000000000000000000000000000000000000000040000000000000000000000000000000000000000000000000000000000000004",
        "nonce": "0x4ea",
        "chainId": "0x66eee"
      },
      "additionalContracts": [],
      "isFixedGasLimit": false
    },
    {
      "hash": "0xf4757eda0627f94f1ec7021fdb931a9672f8ac6bfac5541ed6e559ff65e86093",
      "transactionType": "CALL",
      "contractName": null,
      "contractAddress": "0x33348aa4a1d62757eb6077c86554672dd22902ae",
      "function": "setFeeMultiplier(uint8,uint256)",
      "arguments": [
        "5",
        "4"
      ],
      "transaction": {
        "from": "0xe62ab4d111f968660c6b2188046f9b9ba53c4bae",
        "to": "0x33348aa4a1d62757eb6077c86554672dd22902ae",
        "gas": "0x10f1d",
        "value": "0x0",
        "input": "0x0ee24eb500000000000000000000000000000000000000000000000000000000000000050000000000000000000000000000000000000000000000000000000000000004",
        "nonce": "0x4eb",
        "chainId": "0x66eee"
      },
      "additionalContracts": [],
      "isFixedGasLimit": false
    },
    {
      "hash": "0x40258566b774f24be9cc8ac75427fe098c311fcb5dcfc5cb568bd1aa5a976ae4",
      "transactionType": "CALL",
      "contractName": null,
      "contractAddress": "0x33348aa4a1d62757eb6077c86554672dd22902ae",
      "function": "setFeeMultiplier(uint8,uint256)",
      "arguments": [
        "6",
        "8"
      ],
      "transaction": {
        "from": "0xe62ab4d111f968660c6b2188046f9b9ba53c4bae",
        "to": "0x33348aa4a1d62757eb6077c86554672dd22902ae",
        "gas": "0x10f3b",
        "value": "0x0",
        "input": "0x0ee24eb500000000000000000000000000000000000000000000000000000000000000060000000000000000000000000000000000000000000000000000000000000008",
        "nonce": "0x4ec",
        "chainId": "0x66eee"
      },
      "additionalContracts": [],
      "isFixedGasLimit": false
    },
    {
      "hash": "0x9c7fa4de1c4d6e49713753046e13e9c1804c4059887fa4cefe898ac7bedf6c80",
      "transactionType": "CALL",
      "contractName": null,
      "contractAddress": "0x33348aa4a1d62757eb6077c86554672dd22902ae",
      "function": "setFeeMultiplier(uint8,uint256)",
      "arguments": [
        "7",
        "4"
      ],
      "transaction": {
        "from": "0xe62ab4d111f968660c6b2188046f9b9ba53c4bae",
        "to": "0x33348aa4a1d62757eb6077c86554672dd22902ae",
        "gas": "0x10f59",
        "value": "0x0",
        "input": "0x0ee24eb500000000000000000000000000000000000000000000000000000000000000070000000000000000000000000000000000000000000000000000000000000004",
        "nonce": "0x4ed",
        "chainId": "0x66eee"
      },
      "additionalContracts": [],
      "isFixedGasLimit": false
    },
    {
      "hash": "0x17024dfce5d1b45f533ae76911bb8a870c446f8ab61226b2e4f97884aac19ae4",
      "transactionType": "CALL",
      "contractName": null,
      "contractAddress": "0x33348aa4a1d62757eb6077c86554672dd22902ae",
      "function": "setFeeMultiplier(uint8,uint256)",
      "arguments": [
        "8",
        "10"
      ],
      "transaction": {
        "from": "0xe62ab4d111f968660c6b2188046f9b9ba53c4bae",
        "to": "0x33348aa4a1d62757eb6077c86554672dd22902ae",
        "gas": "0x10f77",
        "value": "0x0",
        "input": "0x0ee24eb50000000000000000000000000000000000000000000000000000000000000008000000000000000000000000000000000000000000000000000000000000000a",
        "nonce": "0x4ee",
        "chainId": "0x66eee"
      },
      "additionalContracts": [],
      "isFixedGasLimit": false
    },
    {
      "hash": "0x2a1a2e6a47119b3cf50ae39b7c10d50f9166d3933d91fad234c47d9bf386f08a",
      "transactionType": "CALL",
      "contractName": null,
      "contractAddress": "0x33348aa4a1d62757eb6077c86554672dd22902ae",
      "function": "setFeeMultiplier(uint8,uint256)",
      "arguments": [
        "9",
        "8"
      ],
      "transaction": {
        "from": "0xe62ab4d111f968660c6b2188046f9b9ba53c4bae",
        "to": "0x33348aa4a1d62757eb6077c86554672dd22902ae",
        "gas": "0x10f95",
        "value": "0x0",
        "input": "0x0ee24eb500000000000000000000000000000000000000000000000000000000000000090000000000000000000000000000000000000000000000000000000000000008",
        "nonce": "0x4ef",
        "chainId": "0x66eee"
      },
      "additionalContracts": [],
      "isFixedGasLimit": false
    },
    {
      "hash": "0xb0781b5e1f70a65340612cef519371c6b627c436d2027fc9b1234acc537f3f3b",
      "transactionType": "CALL",
      "contractName": null,
      "contractAddress": "0x33348aa4a1d62757eb6077c86554672dd22902ae",
      "function": "setFeeMultiplier(uint8,uint256)",
      "arguments": [
        "10",
        "8"
      ],
      "transaction": {
        "from": "0xe62ab4d111f968660c6b2188046f9b9ba53c4bae",
        "to": "0x33348aa4a1d62757eb6077c86554672dd22902ae",
        "gas": "0x10fb3",
        "value": "0x0",
        "input": "0x0ee24eb5000000000000000000000000000000000000000000000000000000000000000a0000000000000000000000000000000000000000000000000000000000000008",
        "nonce": "0x4f0",
        "chainId": "0x66eee"
      },
      "additionalContracts": [],
      "isFixedGasLimit": false
    },
    {
      "hash": "0xf7b6c9fab8d149c1247bd0531614ed1a44e4c6c153c34e5cce09ad97861e61e5",
      "transactionType": "CALL",
      "contractName": null,
      "contractAddress": "0x33348aa4a1d62757eb6077c86554672dd22902ae",
      "function": "setFeeMultiplier(uint8,uint256)",
      "arguments": [
        "11",
        "8"
      ],
      "transaction": {
        "from": "0xe62ab4d111f968660c6b2188046f9b9ba53c4bae",
        "to": "0x33348aa4a1d62757eb6077c86554672dd22902ae",
        "gas": "0x10fd1",
        "value": "0x0",
        "input": "0x0ee24eb5000000000000000000000000000000000000000000000000000000000000000b0000000000000000000000000000000000000000000000000000000000000008",
        "nonce": "0x4f1",
        "chainId": "0x66eee"
      },
      "additionalContracts": [],
      "isFixedGasLimit": false
    },
    {
      "hash": "0x4a918fdb31d94c8e45ac99fcf09b515c6b55fcbad7d2e876a81e12d16058d2d2",
      "transactionType": "CALL",
      "contractName": null,
      "contractAddress": "0x33348aa4a1d62757eb6077c86554672dd22902ae",
      "function": "setFeeMultiplier(uint8,uint256)",
      "arguments": [
        "12",
        "20"
      ],
      "transaction": {
        "from": "0xe62ab4d111f968660c6b2188046f9b9ba53c4bae",
        "to": "0x33348aa4a1d62757eb6077c86554672dd22902ae",
        "gas": "0x10fef",
        "value": "0x0",
        "input": "0x0ee24eb5000000000000000000000000000000000000000000000000000000000000000c0000000000000000000000000000000000000000000000000000000000000014",
        "nonce": "0x4f2",
        "chainId": "0x66eee"
      },
      "additionalContracts": [],
      "isFixedGasLimit": false
    },
    {
      "hash": "0x73e978eaed851e773ef9a6448e7fa4fd57a68ce9b7381d2955421ec29eb2a1fc",
      "transactionType": "CALL",
      "contractName": null,
      "contractAddress": "0x33348aa4a1d62757eb6077c86554672dd22902ae",
      "function": "setFeeMultiplier(uint8,uint256)",
      "arguments": [
        "13",
        "8"
      ],
      "transaction": {
        "from": "0xe62ab4d111f968660c6b2188046f9b9ba53c4bae",
        "to": "0x33348aa4a1d62757eb6077c86554672dd22902ae",
        "gas": "0x1100c",
        "value": "0x0",
        "input": "0x0ee24eb5000000000000000000000000000000000000000000000000000000000000000d0000000000000000000000000000000000000000000000000000000000000008",
        "nonce": "0x4f3",
        "chainId": "0x66eee"
      },
      "additionalContracts": [],
      "isFixedGasLimit": false
    },
    {
      "hash": "0xd39f5c8cfa629c3468ea5cb2e4df8038269da559a4fcbebb87cb94385f1fe8ed",
      "transactionType": "CALL",
      "contractName": null,
      "contractAddress": "0x33348aa4a1d62757eb6077c86554672dd22902ae",
      "function": "setFeeMultiplier(uint8,uint256)",
      "arguments": [
        "14",
        "4"
      ],
      "transaction": {
        "from": "0xe62ab4d111f968660c6b2188046f9b9ba53c4bae",
        "to": "0x33348aa4a1d62757eb6077c86554672dd22902ae",
        "gas": "0x1102a",
        "value": "0x0",
        "input": "0x0ee24eb5000000000000000000000000000000000000000000000000000000000000000e0000000000000000000000000000000000000000000000000000000000000004",
        "nonce": "0x4f4",
        "chainId": "0x66eee"
      },
      "additionalContracts": [],
      "isFixedGasLimit": false
    },
    {
      "hash": "0xbdbe6d5c6005e2b1d3b175ce1d10751d7b82d306a8b21fbc8c11efa04a2f7a26",
      "transactionType": "CALL",
      "contractName": null,
      "contractAddress": "0x33348aa4a1d62757eb6077c86554672dd22902ae",
      "function": "setFeeMultiplier(uint8,uint256)",
      "arguments": [
        "15",
        "4"
      ],
      "transaction": {
        "from": "0xe62ab4d111f968660c6b2188046f9b9ba53c4bae",
        "to": "0x33348aa4a1d62757eb6077c86554672dd22902ae",
        "gas": "0x1104a",
        "value": "0x0",
        "input": "0x0ee24eb5000000000000000000000000000000000000000000000000000000000000000f0000000000000000000000000000000000000000000000000000000000000004",
        "nonce": "0x4f5",
        "chainId": "0x66eee"
      },
      "additionalContracts": [],
      "isFixedGasLimit": false
    },
    {
      "hash": "0xb7ff2da8cc1b3c629efff237067217374a65fcbbd424c32647037ce6251e1b66",
      "transactionType": "CALL",
      "contractName": null,
      "contractAddress": "0x33348aa4a1d62757eb6077c86554672dd22902ae",
      "function": "setFeeMultiplier(uint8,uint256)",
      "arguments": [
        "16",
        "4"
      ],
      "transaction": {
        "from": "0xe62ab4d111f968660c6b2188046f9b9ba53c4bae",
        "to": "0x33348aa4a1d62757eb6077c86554672dd22902ae",
        "gas": "0x11067",
        "value": "0x0",
        "input": "0x0ee24eb500000000000000000000000000000000000000000000000000000000000000100000000000000000000000000000000000000000000000000000000000000004",
        "nonce": "0x4f6",
        "chainId": "0x66eee"
      },
      "additionalContracts": [],
      "isFixedGasLimit": false
    },
    {
      "hash": "0x89635ac9227994f480a93273e628a90dd79c4275f97441c82b1ef3dd3be00c14",
      "transactionType": "CALL",
      "contractName": null,
      "contractAddress": "0x33348aa4a1d62757eb6077c86554672dd22902ae",
      "function": "setFeeMultiplier(uint8,uint256)",
      "arguments": [
        "17",
        "4"
      ],
      "transaction": {
        "from": "0xe62ab4d111f968660c6b2188046f9b9ba53c4bae",
        "to": "0x33348aa4a1d62757eb6077c86554672dd22902ae",
        "gas": "0x11085",
        "value": "0x0",
        "input": "0x0ee24eb500000000000000000000000000000000000000000000000000000000000000110000000000000000000000000000000000000000000000000000000000000004",
        "nonce": "0x4f7",
        "chainId": "0x66eee"
      },
      "additionalContracts": [],
      "isFixedGasLimit": false
    },
    {
      "hash": "0x8d0e877078ce98cef924e56a1519f9c7287a21f85617b62860aa600c25c4ebf2",
      "transactionType": "CALL",
      "contractName": null,
      "contractAddress": "0x33348aa4a1d62757eb6077c86554672dd22902ae",
      "function": "setFeeMultiplier(uint8,uint256)",
      "arguments": [
        "18",
        "2"
      ],
      "transaction": {
        "from": "0xe62ab4d111f968660c6b2188046f9b9ba53c4bae",
        "to": "0x33348aa4a1d62757eb6077c86554672dd22902ae",
        "gas": "0x110a3",
        "value": "0x0",
        "input": "0x0ee24eb500000000000000000000000000000000000000000000000000000000000000120000000000000000000000000000000000000000000000000000000000000002",
        "nonce": "0x4f8",
        "chainId": "0x66eee"
      },
      "additionalContracts": [],
      "isFixedGasLimit": false
    },
    {
      "hash": "0x0affea225eba84ab0c8796c3b1e45114a8fee7a24e27b982cf314e17aff1128f",
      "transactionType": "CALL",
      "contractName": null,
      "contractAddress": "0x33348aa4a1d62757eb6077c86554672dd22902ae",
      "function": "setFeeMultiplier(uint8,uint256)",
      "arguments": [
        "19",
        "2"
      ],
      "transaction": {
        "from": "0xe62ab4d111f968660c6b2188046f9b9ba53c4bae",
        "to": "0x33348aa4a1d62757eb6077c86554672dd22902ae",
        "gas": "0x110bb",
        "value": "0x0",
        "input": "0x0ee24eb500000000000000000000000000000000000000000000000000000000000000130000000000000000000000000000000000000000000000000000000000000002",
        "nonce": "0x4f9",
        "chainId": "0x66eee"
      },
      "additionalContracts": [],
      "isFixedGasLimit": false
    },
    {
      "hash": "0xdbb59ae5e1f2c7045fc3f53136c6916d71119b799649d4f562c4cb7280577ae0",
      "transactionType": "CALL",
      "contractName": null,
      "contractAddress": "0x33348aa4a1d62757eb6077c86554672dd22902ae",
      "function": "addFeeToken(string,string[],uint256[])",
      "arguments": [
        "421614",
        "[0x92829288c6aa874c1a0f190da35a4023c22be637]",
        "[100]"
      ],
      "transaction": {
        "from": "0xe62ab4d111f968660c6b2188046f9b9ba53c4bae",
        "to": "0x33348aa4a1d62757eb6077c86554672dd22902ae",
        "gas": "0x31a54",
        "value": "0x0",
        "input": "0x437bf84f000000000000000000000000000000000000000000000000000000000000006000000000000000000000000000000000000000000000000000000000000000a000000000000000000000000000000000000000000000000000000000000001400000000000000000000000000000000000000000000000000000000000000006343231363134000000000000000000000000000000000000000000000000000000000000000000000000000000000000000000000000000000000000000000010000000000000000000000000000000000000000000000000000000000000020000000000000000000000000000000000000000000000000000000000000002a3078393238323932383863366161383734633161306631393064613335613430323363323262653633370000000000000000000000000000000000000000000000000000000000000000000000000000000000000000000000000000000000010000000000000000000000000000000000000000000000000000000000000064",
        "nonce": "0x4fa",
        "chainId": "0x66eee"
      },
      "additionalContracts": [],
      "isFixedGasLimit": false
    },
    {
      "hash": "0xa01287791d3db2fb0a2a9892b780feb45fecc0912290d5c9e4dbc917fdfe4277",
      "transactionType": "CALL",
      "contractName": null,
      "contractAddress": "0x33348aa4a1d62757eb6077c86554672dd22902ae",
      "function": "addFeeToken(string,string[],uint256[])",
      "arguments": [
        "80002",
        "[0x92829288c6aa874c1a0f190da35a4023c22be637]",
        "[100]"
      ],
      "transaction": {
        "from": "0xe62ab4d111f968660c6b2188046f9b9ba53c4bae",
        "to": "0x33348aa4a1d62757eb6077c86554672dd22902ae",
        "gas": "0x2c1d9",
        "value": "0x0",
        "input": "0x437bf84f000000000000000000000000000000000000000000000000000000000000006000000000000000000000000000000000000000000000000000000000000000a000000000000000000000000000000000000000000000000000000000000001400000000000000000000000000000000000000000000000000000000000000005383030303200000000000000000000000000000000000000000000000000000000000000000000000000000000000000000000000000000000000000000000010000000000000000000000000000000000000000000000000000000000000020000000000000000000000000000000000000000000000000000000000000002a3078393238323932383863366161383734633161306631393064613335613430323363323262653633370000000000000000000000000000000000000000000000000000000000000000000000000000000000000000000000000000000000010000000000000000000000000000000000000000000000000000000000000064",
        "nonce": "0x4fb",
        "chainId": "0x66eee"
      },
      "additionalContracts": [],
      "isFixedGasLimit": false
    },
    {
      "hash": "0x12af35ffe17a9367d1b373f9a2c13793f8829d7187d2bc46ff860201fdb29ac0",
      "transactionType": "CALL",
      "contractName": null,
      "contractAddress": "0x33348aa4a1d62757eb6077c86554672dd22902ae",
      "function": "addFeeToken(string,string[],uint256[])",
      "arguments": [
        "84532",
        "[0x92829288c6aa874c1a0f190da35a4023c22be637]",
        "[100]"
      ],
      "transaction": {
        "from": "0xe62ab4d111f968660c6b2188046f9b9ba53c4bae",
        "to": "0x33348aa4a1d62757eb6077c86554672dd22902ae",
        "gas": "0x2c1d9",
        "value": "0x0",
        "input": "0x437bf84f000000000000000000000000000000000000000000000000000000000000006000000000000000000000000000000000000000000000000000000000000000a000000000000000000000000000000000000000000000000000000000000001400000000000000000000000000000000000000000000000000000000000000005383435333200000000000000000000000000000000000000000000000000000000000000000000000000000000000000000000000000000000000000000000010000000000000000000000000000000000000000000000000000000000000020000000000000000000000000000000000000000000000000000000000000002a3078393238323932383863366161383734633161306631393064613335613430323363323262653633370000000000000000000000000000000000000000000000000000000000000000000000000000000000000000000000000000000000010000000000000000000000000000000000000000000000000000000000000064",
        "nonce": "0x4fc",
        "chainId": "0x66eee"
      },
      "additionalContracts": [],
      "isFixedGasLimit": false
    },
    {
      "hash": "0x5e4a6c9652045de2fc00a3ded938dba3d831c12eeeb70c2ce9c92a747c7a2e7e",
      "transactionType": "CALL",
      "contractName": null,
      "contractAddress": "0x33348aa4a1d62757eb6077c86554672dd22902ae",
      "function": "addFeeToken(string,string[],uint256[])",
      "arguments": [
        "97",
        "[0x92829288c6aa874c1a0f190da35a4023c22be637]",
        "[100]"
      ],
      "transaction": {
        "from": "0xe62ab4d111f968660c6b2188046f9b9ba53c4bae",
        "to": "0x33348aa4a1d62757eb6077c86554672dd22902ae",
        "gas": "0x2945a",
        "value": "0x0",
        "input": "0x437bf84f000000000000000000000000000000000000000000000000000000000000006000000000000000000000000000000000000000000000000000000000000000a000000000000000000000000000000000000000000000000000000000000001400000000000000000000000000000000000000000000000000000000000000002393700000000000000000000000000000000000000000000000000000000000000000000000000000000000000000000000000000000000000000000000000010000000000000000000000000000000000000000000000000000000000000020000000000000000000000000000000000000000000000000000000000000002a3078393238323932383863366161383734633161306631393064613335613430323363323262653633370000000000000000000000000000000000000000000000000000000000000000000000000000000000000000000000000000000000010000000000000000000000000000000000000000000000000000000000000064",
        "nonce": "0x4fd",
        "chainId": "0x66eee"
      },
      "additionalContracts": [],
      "isFixedGasLimit": false
    },
    {
      "hash": "0xd898479e1dfb25a718b969a612f39f8465bbf7334f3dc0c776e0112f14173621",
      "transactionType": "CALL",
      "contractName": null,
      "contractAddress": "0x33348aa4a1d62757eb6077c86554672dd22902ae",
      "function": "addFeeToken(string,string[],uint256[])",
      "arguments": [
        "11155111",
        "[0x92829288c6aa874c1a0f190da35a4023c22be637]",
        "[100]"
      ],
      "transaction": {
        "from": "0xe62ab4d111f968660c6b2188046f9b9ba53c4bae",
        "to": "0x33348aa4a1d62757eb6077c86554672dd22902ae",
        "gas": "0x2a0e9",
        "value": "0x0",
        "input": "0x437bf84f000000000000000000000000000000000000000000000000000000000000006000000000000000000000000000000000000000000000000000000000000000a000000000000000000000000000000000000000000000000000000000000001400000000000000000000000000000000000000000000000000000000000000008313131353531313100000000000000000000000000000000000000000000000000000000000000000000000000000000000000000000000000000000000000010000000000000000000000000000000000000000000000000000000000000020000000000000000000000000000000000000000000000000000000000000002a3078393238323932383863366161383734633161306631393064613335613430323363323262653633370000000000000000000000000000000000000000000000000000000000000000000000000000000000000000000000000000000000010000000000000000000000000000000000000000000000000000000000000064",
        "nonce": "0x4fe",
        "chainId": "0x66eee"
      },
      "additionalContracts": [],
      "isFixedGasLimit": false
    },
    {
      "hash": "0x4b70c9625b1c554de53c9da9954e65a8debf8537b7025bdc52106c12ffdf08a6",
      "transactionType": "CALL",
      "contractName": null,
      "contractAddress": "0xd990ef52a6a375b19375b07cfc2aad2b592e66be",
      "function": "addChainContract(string[],string[])",
      "arguments": [
        "[80002, 84532, 97, 11155111]",
        "[0x73a3ecd2fad26975d16b31e482eaf0f5152d420e, 0x497d31415cc6d20113d2f96c90c706b98701c1c9, 0x9b191600588b59e314d2927204c8edc57603d672, 0x3cb56e6e5917a2a8924bc2a5c1f0ecc90b585e74]"
      ],
      "transaction": {
        "from": "0xe62ab4d111f968660c6b2188046f9b9ba53c4bae",
        "to": "0xd990ef52a6a375b19375b07cfc2aad2b592e66be",
        "gas": "0xa4b0d",
        "value": "0x0",
        "input": "0x013fd3bd000000000000000000000000000000000000000000000000000000000000004000000000000000000000000000000000000000000000000000000000000001e00000000000000000000000000000000000000000000000000000000000000004000000000000000000000000000000000000000000000000000000000000008000000000000000000000000000000000000000000000000000000000000000c000000000000000000000000000000000000000000000000000000000000001000000000000000000000000000000000000000000000000000000000000000140000000000000000000000000000000000000000000000000000000000000000538303030320000000000000000000000000000000000000000000000000000000000000000000000000000000000000000000000000000000000000000000005383435333200000000000000000000000000000000000000000000000000000000000000000000000000000000000000000000000000000000000000000000023937000000000000000000000000000000000000000000000000000000000000000000000000000000000000000000000000000000000000000000000000000831313135353131310000000000000000000000000000000000000000000000000000000000000000000000000000000000000000000000000000000000000004000000000000000000000000000000000000000000000000000000000000008000000000000000000000000000000000000000000000000000000000000000e0000000000000000000000000000000000000000000000000000000000000014000000000000000000000000000000000000000000000000000000000000001a0000000000000000000000000000000000000000000000000000000000000002a30783733613365636432666164323639373564313662333165343832656166306635313532643432306500000000000000000000000000000000000000000000000000000000000000000000000000000000000000000000000000000000002a30783439376433313431356363366432303131336432663936633930633730366239383730316331633900000000000000000000000000000000000000000000000000000000000000000000000000000000000000000000000000000000002a30783962313931363030353838623539653331346432393237323034633865646335373630336436373200000000000000000000000000000000000000000000000000000000000000000000000000000000000000000000000000000000002a30783363623536653665353931376132613839323462633261356331663065636339306235383565373400000000000000000000000000000000000000000000",
        "nonce": "0x4ff",
        "chainId": "0x66eee"
      },
      "additionalContracts": [],
      "isFixedGasLimit": false
    },
    {
      "hash": "0xc2df64448b82f0f44971cd3e8207cbe9872d597f30a0f4906626b4cd0f8f2111",
      "transactionType": "CALL",
      "contractName": null,
      "contractAddress": "0xd990ef52a6a375b19375b07cfc2aad2b592e66be",
      "function": "attachRWAX(uint256,uint256,string[],string[])",
      "arguments": [
        "1",
        "1",
        "[421614, 80002, 84532, 97, 11155111]",
        "[0x8bde23e16f4f9b19b3e11edcb65168e7f2720006, 0x4da174a7024b242fb979d120ee63f1bf6aba3e07, 0xbe87477fd18fbebd8cccdd003f6f66ffc4d49cd1, 0x730e8b2d89ba0d3403bb3d8c9929a9f0da61e051, 0x1f652e2d8a9fca346a0f45d59a67fb998999e454]"
      ],
      "transaction": {
        "from": "0xe62ab4d111f968660c6b2188046f9b9ba53c4bae",
        "to": "0xd990ef52a6a375b19375b07cfc2aad2b592e66be",
        "gas": "0xfc0f7",
        "value": "0x0",
        "input": "0x33a5f5b40000000000000000000000000000000000000000000000000000000000000001000000000000000000000000000000000000000000000000000000000000000100000000000000000000000000000000000000000000000000000000000000800000000000000000000000000000000000000000000000000000000000000280000000000000000000000000000000000000000000000000000000000000000500000000000000000000000000000000000000000000000000000000000000a000000000000000000000000000000000000000000000000000000000000000e00000000000000000000000000000000000000000000000000000000000000120000000000000000000000000000000000000000000000000000000000000016000000000000000000000000000000000000000000000000000000000000001a00000000000000000000000000000000000000000000000000000000000000006343231363134000000000000000000000000000000000000000000000000000000000000000000000000000000000000000000000000000000000000000000053830303032000000000000000000000000000000000000000000000000000000000000000000000000000000000000000000000000000000000000000000000538343533320000000000000000000000000000000000000000000000000000000000000000000000000000000000000000000000000000000000000000000002393700000000000000000000000000000000000000000000000000000000000000000000000000000000000000000000000000000000000000000000000000083131313535313131000000000000000000000000000000000000000000000000000000000000000000000000000000000000000000000000000000000000000500000000000000000000000000000000000000000000000000000000000000a00000000000000000000000000000000000000000000000000000000000000100000000000000000000000000000000000000000000000000000000000000016000000000000000000000000000000000000000000000000000000000000001c00000000000000000000000000000000000000000000000000000000000000220000000000000000000000000000000000000000000000000000000000000002a30783862646532336531366634663962313962336531316564636236353136386537663237323030303600000000000000000000000000000000000000000000000000000000000000000000000000000000000000000000000000000000002a30783464613137346137303234623234326662393739643132306565363366316266366162613365303700000000000000000000000000000000000000000000000000000000000000000000000000000000000000000000000000000000002a30786265383734373766643138666265626438636363646430303366366636366666633464343963643100000000000000000000000000000000000000000000000000000000000000000000000000000000000000000000000000000000002a30783733306538623264383962613064333430336262336438633939323961396630646136316530353100000000000000000000000000000000000000000000000000000000000000000000000000000000000000000000000000000000002a30783166363532653264386139666361333436613066343564353961363766623939383939396534353400000000000000000000000000000000000000000000",
        "nonce": "0x500",
        "chainId": "0x66eee"
      },
      "additionalContracts": [],
      "isFixedGasLimit": false
    },
    {
      "hash": "0xef4ea586338def20211097127b3aa8cb60db96fe404061e490265e04fdc5a72c",
      "transactionType": "CALL",
      "contractName": null,
      "contractAddress": "0xd990ef52a6a375b19375b07cfc2aad2b592e66be",
      "function": "attachStorageManager(uint256,uint256,string[],string[])",
      "arguments": [
        "1",
        "1",
        "[421614, 80002, 84532, 97, 11155111]",
        "[0xf4e9dc949ca6eb2bbafa1e887017e91e523c1bc8, 0xb07c3788549cd48ad1d4cb9b7336f7c9dd53d67f, 0x2c4be93acd346ca06363b37a06beb9d693d02dac, 0xc653cd79f70165005319ef97ad1229ac7f88a25d, 0xa33cfd901896c775c5a6d62e94081b4fdd1b09bc]"
      ],
      "transaction": {
        "from": "0xe62ab4d111f968660c6b2188046f9b9ba53c4bae",
        "to": "0xd990ef52a6a375b19375b07cfc2aad2b592e66be",
        "gas": "0xd01a9",
        "value": "0x0",
        "input": "0x2f68b4890000000000000000000000000000000000000000000000000000000000000001000000000000000000000000000000000000000000000000000000000000000100000000000000000000000000000000000000000000000000000000000000800000000000000000000000000000000000000000000000000000000000000280000000000000000000000000000000000000000000000000000000000000000500000000000000000000000000000000000000000000000000000000000000a000000000000000000000000000000000000000000000000000000000000000e00000000000000000000000000000000000000000000000000000000000000120000000000000000000000000000000000000000000000000000000000000016000000000000000000000000000000000000000000000000000000000000001a00000000000000000000000000000000000000000000000000000000000000006343231363134000000000000000000000000000000000000000000000000000000000000000000000000000000000000000000000000000000000000000000053830303032000000000000000000000000000000000000000000000000000000000000000000000000000000000000000000000000000000000000000000000538343533320000000000000000000000000000000000000000000000000000000000000000000000000000000000000000000000000000000000000000000002393700000000000000000000000000000000000000000000000000000000000000000000000000000000000000000000000000000000000000000000000000083131313535313131000000000000000000000000000000000000000000000000000000000000000000000000000000000000000000000000000000000000000500000000000000000000000000000000000000000000000000000000000000a00000000000000000000000000000000000000000000000000000000000000100000000000000000000000000000000000000000000000000000000000000016000000000000000000000000000000000000000000000000000000000000001c00000000000000000000000000000000000000000000000000000000000000220000000000000000000000000000000000000000000000000000000000000002a30786634653964633934396361366562326262616661316538383730313765393165353233633162633800000000000000000000000000000000000000000000000000000000000000000000000000000000000000000000000000000000002a30786230376333373838353439636434386164316434636239623733333666376339646435336436376600000000000000000000000000000000000000000000000000000000000000000000000000000000000000000000000000000000002a30783263346265393361636433343663613036333633623337613036626562396436393364303264616300000000000000000000000000000000000000000000000000000000000000000000000000000000000000000000000000000000002a30786336353363643739663730313635303035333139656639376164313232396163376638386132356400000000000000000000000000000000000000000000000000000000000000000000000000000000000000000000000000000000002a30786133336366643930313839366337373563356136643632653934303831623466646431623039626300000000000000000000000000000000000000000000",
        "nonce": "0x501",
        "chainId": "0x66eee"
      },
      "additionalContracts": [],
      "isFixedGasLimit": false
    }
  ],
  "receipts": [
    {
      "status": "0x1",
      "cumulativeGasUsed": "0x673d",
      "logs": [],
      "logsBloom": "0x00000000000000000000000000000000000000000000000000000000000000000000000000000000000000000000000000000000000000000000000000000000000000000000000000000000000000000000000000000000000000000000000000000000000000000000000000000000000000000000000000000000000000000000000000000000000000000000000000000000000000000000000000000000000000000000000000000000000000000000000000000000000000000000000000000000000000000000000000000000000000000000000000000000000000000000000000000000000000000000000000000000000000000000000000000000",
      "type": "0x2",
      "transactionHash": "0x8e22a44b0e6e08be78a10cc647cdde7ab59540c7656cb3e5e6a1b502935bca11",
      "transactionIndex": "0x1",
      "blockHash": "0x9d55636469c4816886be9f22d6bb53d8a59c1ef153db73218c60c1001598089b",
      "blockNumber": "0x6091c9f",
      "gasUsed": "0x673d",
      "effectiveGasPrice": "0x5f5e100",
      "from": "0xe62ab4d111f968660c6b2188046f9b9ba53c4bae",
      "to": "0x33348aa4a1d62757eb6077c86554672dd22902ae",
      "contractAddress": null,
      "gasUsedForL1": "0x88a",
      "l1BlockNumber": "0x6d5b04"
    },
    {
      "status": "0x1",
      "cumulativeGasUsed": "0x1cda0",
      "logs": [
        {
          "address": "0x33348aa4a1d62757eb6077c86554672dd22902ae",
          "topics": [
            "0x1394cfab38f3fc78ed77ea6f9318782a446d96e7dc8e9a6b0149f6be25c08bcf",
            "0x00000000000000000000000092829288c6aa874c1a0f190da35a4023c22be637"
          ],
          "data": "0x",
          "blockHash": "0xad2254d62dfe89e983e20f785cfa2de130d8a6a21a21b7009cf9d7cb83ae7ad0",
          "blockNumber": "0x6091cbc",
          "transactionHash": "0xa6e9baa8b3f0b4caf61ca5f098d3a383db7d1ea82ef57dc5f287c17cbd2c10bf",
          "transactionIndex": "0x1",
          "logIndex": "0x0",
          "removed": false
        }
      ],
      "logsBloom": "0x00000000000800000000000020000000000000000000000000000000000000000000000000000000000000000100000000000000000000000000000000000000000000000000000000000000000000000000001000000000000000000000000000000000000000000000000000000000000000000000000000000000000000000000000100000000000000000000000000000000000000000000000000000000000000000000000000000000000000000000000100000000000000000000000000000000000000000000000000000008000000000004000000000000000000200000000000000000000000000000000000000000000000000000000000000000",
      "type": "0x2",
      "transactionHash": "0xa6e9baa8b3f0b4caf61ca5f098d3a383db7d1ea82ef57dc5f287c17cbd2c10bf",
      "transactionIndex": "0x1",
      "blockHash": "0xad2254d62dfe89e983e20f785cfa2de130d8a6a21a21b7009cf9d7cb83ae7ad0",
      "blockNumber": "0x6091cbc",
      "gasUsed": "0x1cda0",
      "effectiveGasPrice": "0x5f5e100",
      "from": "0xe62ab4d111f968660c6b2188046f9b9ba53c4bae",
      "to": "0x33348aa4a1d62757eb6077c86554672dd22902ae",
      "contractAddress": null,
      "gasUsedForL1": "0x11f4",
      "l1BlockNumber": "0x6d5b05"
    },
    {
      "status": "0x1",
      "cumulativeGasUsed": "0xbcdc",
      "logs": [],
      "logsBloom": "0x00000000000000000000000000000000000000000000000000000000000000000000000000000000000000000000000000000000000000000000000000000000000000000000000000000000000000000000000000000000000000000000000000000000000000000000000000000000000000000000000000000000000000000000000000000000000000000000000000000000000000000000000000000000000000000000000000000000000000000000000000000000000000000000000000000000000000000000000000000000000000000000000000000000000000000000000000000000000000000000000000000000000000000000000000000000",
      "type": "0x2",
      "transactionHash": "0x19e69d3ac01b4e4fc155861d5dce75fc6938eb6e5d5cde630c9ce4e3422ede69",
      "transactionIndex": "0x1",
      "blockHash": "0x14d0016888fc273d927673be343a6d9544e7b256af6a14d79e8046b99c336e80",
      "blockNumber": "0x6091cdf",
      "gasUsed": "0xbcdc",
      "effectiveGasPrice": "0x5f5e100",
      "from": "0xe62ab4d111f968660c6b2188046f9b9ba53c4bae",
      "to": "0x33348aa4a1d62757eb6077c86554672dd22902ae",
      "contractAddress": null,
      "gasUsedForL1": "0xe3",
      "l1BlockNumber": "0x6d5b05"
    },
    {
      "status": "0x1",
      "cumulativeGasUsed": "0x18694",
      "logs": [],
      "logsBloom": "0x00000000000000000000000000000000000000000000000000000000000000000000000000000000000000000000000000000000000000000000000000000000000000000000000000000000000000000000000000000000000000000000000000000000000000000000000000000000000000000000000000000000000000000000000000000000000000000000000000000000000000000000000000000000000000000000000000000000000000000000000000000000000000000000000000000000000000000000000000000000000000000000000000000000000000000000000000000000000000000000000000000000000000000000000000000000",
      "type": "0x2",
      "transactionHash": "0x45728db7475c71f6163da8631a798dd86f8190c967c3ed1fc5b74946348786e3",
      "transactionIndex": "0x2",
      "blockHash": "0xa9454385aa16a4b800a3a64a445da7cda45567eb168db71b4fad03f435852f44",
      "blockNumber": "0x6091ce3",
      "gasUsed": "0xbd05",
      "effectiveGasPrice": "0x5f5e100",
      "from": "0xe62ab4d111f968660c6b2188046f9b9ba53c4bae",
      "to": "0x33348aa4a1d62757eb6077c86554672dd22902ae",
      "contractAddress": null,
      "gasUsedForL1": "0xe3",
      "l1BlockNumber": "0x6d5b05"
    },
    {
      "status": "0x1",
      "cumulativeGasUsed": "0xbd1c",
      "logs": [],
      "logsBloom": "0x00000000000000000000000000000000000000000000000000000000000000000000000000000000000000000000000000000000000000000000000000000000000000000000000000000000000000000000000000000000000000000000000000000000000000000000000000000000000000000000000000000000000000000000000000000000000000000000000000000000000000000000000000000000000000000000000000000000000000000000000000000000000000000000000000000000000000000000000000000000000000000000000000000000000000000000000000000000000000000000000000000000000000000000000000000000",
      "type": "0x2",
      "transactionHash": "0x4828dfcf4a8857f05dead3b0c1518dd89e364e64b748550d2b0456bcc31c3d2d",
      "transactionIndex": "0x1",
      "blockHash": "0xcc439c3a65247f3065e1b4ec269aff9be1b6fce171b4d68ed5cf85aab03cfa3c",
      "blockNumber": "0x6091ce7",
      "gasUsed": "0xbd1c",
      "effectiveGasPrice": "0x5f5e100",
      "from": "0xe62ab4d111f968660c6b2188046f9b9ba53c4bae",
      "to": "0x33348aa4a1d62757eb6077c86554672dd22902ae",
      "contractAddress": null,
      "gasUsedForL1": "0xe3",
      "l1BlockNumber": "0x6d5b05"
    },
    {
      "status": "0x1",
      "cumulativeGasUsed": "0xbd33",
      "logs": [],
      "logsBloom": "0x00000000000000000000000000000000000000000000000000000000000000000000000000000000000000000000000000000000000000000000000000000000000000000000000000000000000000000000000000000000000000000000000000000000000000000000000000000000000000000000000000000000000000000000000000000000000000000000000000000000000000000000000000000000000000000000000000000000000000000000000000000000000000000000000000000000000000000000000000000000000000000000000000000000000000000000000000000000000000000000000000000000000000000000000000000000",
      "type": "0x2",
      "transactionHash": "0x9037a0b4b8e48f38bc63c72db8945a95591398e4f2af9aa67e0c4617a5c5b0e5",
      "transactionIndex": "0x1",
      "blockHash": "0x95ff2e18133cb8be5fde101f6d31a028da61fc9dd0828f0763632604a586ea2f",
      "blockNumber": "0x6091ceb",
      "gasUsed": "0xbd33",
      "effectiveGasPrice": "0x5f5e100",
      "from": "0xe62ab4d111f968660c6b2188046f9b9ba53c4bae",
      "to": "0x33348aa4a1d62757eb6077c86554672dd22902ae",
      "contractAddress": null,
      "gasUsedForL1": "0xe3",
      "l1BlockNumber": "0x6d5b05"
    },
    {
      "status": "0x1",
      "cumulativeGasUsed": "0xbd4a",
      "logs": [],
      "logsBloom": "0x00000000000000000000000000000000000000000000000000000000000000000000000000000000000000000000000000000000000000000000000000000000000000000000000000000000000000000000000000000000000000000000000000000000000000000000000000000000000000000000000000000000000000000000000000000000000000000000000000000000000000000000000000000000000000000000000000000000000000000000000000000000000000000000000000000000000000000000000000000000000000000000000000000000000000000000000000000000000000000000000000000000000000000000000000000000",
      "type": "0x2",
      "transactionHash": "0x49a114597d8933c9aa9539fcf618614c147ee44fa632c4e4e1bfa546395f581b",
      "transactionIndex": "0x1",
      "blockHash": "0x89b4a7405a5c136c43e4995873300e102743f8e7951f037ba81391a9cc727fe0",
      "blockNumber": "0x6091d06",
      "gasUsed": "0xbd4a",
      "effectiveGasPrice": "0x5f5e100",
      "from": "0xe62ab4d111f968660c6b2188046f9b9ba53c4bae",
      "to": "0x33348aa4a1d62757eb6077c86554672dd22902ae",
      "contractAddress": null,
      "gasUsedForL1": "0xe3",
      "l1BlockNumber": "0x6d5b06"
    },
    {
      "status": "0x1",
      "cumulativeGasUsed": "0xbd61",
      "logs": [],
      "logsBloom": "0x00000000000000000000000000000000000000000000000000000000000000000000000000000000000000000000000000000000000000000000000000000000000000000000000000000000000000000000000000000000000000000000000000000000000000000000000000000000000000000000000000000000000000000000000000000000000000000000000000000000000000000000000000000000000000000000000000000000000000000000000000000000000000000000000000000000000000000000000000000000000000000000000000000000000000000000000000000000000000000000000000000000000000000000000000000000",
      "type": "0x2",
      "transactionHash": "0xf4757eda0627f94f1ec7021fdb931a9672f8ac6bfac5541ed6e559ff65e86093",
      "transactionIndex": "0x1",
      "blockHash": "0xdd788ca2bcd71c5d44f69295bb1cff56bb8e70a02a964545867de0e8d787bf2e",
      "blockNumber": "0x6091d21",
      "gasUsed": "0xbd61",
      "effectiveGasPrice": "0x5f5e100",
      "from": "0xe62ab4d111f968660c6b2188046f9b9ba53c4bae",
      "to": "0x33348aa4a1d62757eb6077c86554672dd22902ae",
      "contractAddress": null,
      "gasUsedForL1": "0xe3",
      "l1BlockNumber": "0x6d5b06"
    },
    {
      "status": "0x1",
      "cumulativeGasUsed": "0x1269c",
      "logs": [],
      "logsBloom": "0x00000000000000000000000000000000000000000000000000000000000000000000000000000000000000000000000000000000000000000000000000000000000000000000000000000000000000000000000000000000000000000000000000000000000000000000000000000000000000000000000000000000000000000000000000000000000000000000000000000000000000000000000000000000000000000000000000000000000000000000000000000000000000000000000000000000000000000000000000000000000000000000000000000000000000000000000000000000000000000000000000000000000000000000000000000000",
      "type": "0x2",
      "transactionHash": "0x40258566b774f24be9cc8ac75427fe098c311fcb5dcfc5cb568bd1aa5a976ae4",
      "transactionIndex": "0x2",
      "blockHash": "0x3491fe2864ea5c3d35904e77261c010f7defc9072142538a4192ff48104cc370",
      "blockNumber": "0x6091d3f",
      "gasUsed": "0xbd78",
      "effectiveGasPrice": "0x5f5e100",
      "from": "0xe62ab4d111f968660c6b2188046f9b9ba53c4bae",
      "to": "0x33348aa4a1d62757eb6077c86554672dd22902ae",
      "contractAddress": null,
      "gasUsedForL1": "0xe3",
      "l1BlockNumber": "0x6d5b08"
    },
    {
      "status": "0x1",
      "cumulativeGasUsed": "0x28e73",
      "logs": [],
      "logsBloom": "0x00000000000000000000000000000000000000000000000000000000000000000000000000000000000000000000000000000000000000000000000000000000000000000000000000000000000000000000000000000000000000000000000000000000000000000000000000000000000000000000000000000000000000000000000000000000000000000000000000000000000000000000000000000000000000000000000000000000000000000000000000000000000000000000000000000000000000000000000000000000000000000000000000000000000000000000000000000000000000000000000000000000000000000000000000000000",
      "type": "0x2",
      "transactionHash": "0x9c7fa4de1c4d6e49713753046e13e9c1804c4059887fa4cefe898ac7bedf6c80",
      "transactionIndex": "0x3",
      "blockHash": "0x0c961f3201c1718897b66dd7e883bbcf988a22fd20789b1515b3fa654d861dfc",
      "blockNumber": "0x6091d57",
      "gasUsed": "0xbd8e",
      "effectiveGasPrice": "0x5f5e100",
      "from": "0xe62ab4d111f968660c6b2188046f9b9ba53c4bae",
      "to": "0x33348aa4a1d62757eb6077c86554672dd22902ae",
      "contractAddress": null,
      "gasUsedForL1": "0xe2",
      "l1BlockNumber": "0x6d5b08"
    },
    {
      "status": "0x1",
      "cumulativeGasUsed": "0xbda6",
      "logs": [],
      "logsBloom": "0x00000000000000000000000000000000000000000000000000000000000000000000000000000000000000000000000000000000000000000000000000000000000000000000000000000000000000000000000000000000000000000000000000000000000000000000000000000000000000000000000000000000000000000000000000000000000000000000000000000000000000000000000000000000000000000000000000000000000000000000000000000000000000000000000000000000000000000000000000000000000000000000000000000000000000000000000000000000000000000000000000000000000000000000000000000000",
      "type": "0x2",
      "transactionHash": "0x17024dfce5d1b45f533ae76911bb8a870c446f8ab61226b2e4f97884aac19ae4",
      "transactionIndex": "0x1",
      "blockHash": "0xbc58f53b0d837dbaa22b914b3f87eccb5822935856f76819b8b827dcad4e531d",
      "blockNumber": "0x6091d70",
      "gasUsed": "0xbda6",
      "effectiveGasPrice": "0x5f5e100",
      "from": "0xe62ab4d111f968660c6b2188046f9b9ba53c4bae",
      "to": "0x33348aa4a1d62757eb6077c86554672dd22902ae",
      "contractAddress": null,
      "gasUsedForL1": "0xe3",
      "l1BlockNumber": "0x6d5b09"
    },
    {
      "status": "0x1",
      "cumulativeGasUsed": "0xbdbd",
      "logs": [],
      "logsBloom": "0x00000000000000000000000000000000000000000000000000000000000000000000000000000000000000000000000000000000000000000000000000000000000000000000000000000000000000000000000000000000000000000000000000000000000000000000000000000000000000000000000000000000000000000000000000000000000000000000000000000000000000000000000000000000000000000000000000000000000000000000000000000000000000000000000000000000000000000000000000000000000000000000000000000000000000000000000000000000000000000000000000000000000000000000000000000000",
      "type": "0x2",
      "transactionHash": "0x2a1a2e6a47119b3cf50ae39b7c10d50f9166d3933d91fad234c47d9bf386f08a",
      "transactionIndex": "0x1",
      "blockHash": "0xf34aa0c0eb200a08e56c81c35a0e798e086f31f1de2b7ee8d447fd1c14867c1b",
      "blockNumber": "0x6091d8d",
      "gasUsed": "0xbdbd",
      "effectiveGasPrice": "0x5f5e100",
      "from": "0xe62ab4d111f968660c6b2188046f9b9ba53c4bae",
      "to": "0x33348aa4a1d62757eb6077c86554672dd22902ae",
      "contractAddress": null,
      "gasUsedForL1": "0xe3",
      "l1BlockNumber": "0x6d5b0a"
    },
    {
      "status": "0x1",
      "cumulativeGasUsed": "0xbdd4",
      "logs": [],
      "logsBloom": "0x00000000000000000000000000000000000000000000000000000000000000000000000000000000000000000000000000000000000000000000000000000000000000000000000000000000000000000000000000000000000000000000000000000000000000000000000000000000000000000000000000000000000000000000000000000000000000000000000000000000000000000000000000000000000000000000000000000000000000000000000000000000000000000000000000000000000000000000000000000000000000000000000000000000000000000000000000000000000000000000000000000000000000000000000000000000",
      "type": "0x2",
      "transactionHash": "0xb0781b5e1f70a65340612cef519371c6b627c436d2027fc9b1234acc537f3f3b",
      "transactionIndex": "0x1",
      "blockHash": "0xe81c294ea027005796a91b9f8165da4e49d52b495dfd2bfa3b7dd010f2aad72b",
      "blockNumber": "0x6091da6",
      "gasUsed": "0xbdd4",
      "effectiveGasPrice": "0x5f5e100",
      "from": "0xe62ab4d111f968660c6b2188046f9b9ba53c4bae",
      "to": "0x33348aa4a1d62757eb6077c86554672dd22902ae",
      "contractAddress": null,
      "gasUsedForL1": "0xe3",
      "l1BlockNumber": "0x6d5b0a"
    },
    {
      "status": "0x1",
      "cumulativeGasUsed": "0x1510e",
      "logs": [],
      "logsBloom": "0x00000000000000000000000000000000000000000000000000000000000000000000000000000000000000000000000000000000000000000000000000000000000000000000000000000000000000000000000000000000000000000000000000000000000000000000000000000000000000000000000000000000000000000000000000000000000000000000000000000000000000000000000000000000000000000000000000000000000000000000000000000000000000000000000000000000000000000000000000000000000000000000000000000000000000000000000000000000000000000000000000000000000000000000000000000000",
      "type": "0x2",
      "transactionHash": "0xf7b6c9fab8d149c1247bd0531614ed1a44e4c6c153c34e5cce09ad97861e61e5",
      "transactionIndex": "0x2",
      "blockHash": "0x6503045c7d14cd023a1d98bb7ab5b6db2166b75b4a89eeda663a9ab405bcbb35",
      "blockNumber": "0x6091dc2",
      "gasUsed": "0xbdeb",
      "effectiveGasPrice": "0x5f5e100",
      "from": "0xe62ab4d111f968660c6b2188046f9b9ba53c4bae",
      "to": "0x33348aa4a1d62757eb6077c86554672dd22902ae",
      "contractAddress": null,
      "gasUsedForL1": "0xe3",
      "l1BlockNumber": "0x6d5b0b"
    },
    {
      "status": "0x1",
      "cumulativeGasUsed": "0x15134",
      "logs": [],
      "logsBloom": "0x00000000000000000000000000000000000000000000000000000000000000000000000000000000000000000000000000000000000000000000000000000000000000000000000000000000000000000000000000000000000000000000000000000000000000000000000000000000000000000000000000000000000000000000000000000000000000000000000000000000000000000000000000000000000000000000000000000000000000000000000000000000000000000000000000000000000000000000000000000000000000000000000000000000000000000000000000000000000000000000000000000000000000000000000000000000",
      "type": "0x2",
      "transactionHash": "0x4a918fdb31d94c8e45ac99fcf09b515c6b55fcbad7d2e876a81e12d16058d2d2",
      "transactionIndex": "0x2",
      "blockHash": "0xac45de906aea3bf81a92c55983b79117659df4df2275faf4545d14f7f8b294f1",
      "blockNumber": "0x6091de2",
      "gasUsed": "0xbe02",
      "effectiveGasPrice": "0x5f5e100",
      "from": "0xe62ab4d111f968660c6b2188046f9b9ba53c4bae",
      "to": "0x33348aa4a1d62757eb6077c86554672dd22902ae",
      "contractAddress": null,
      "gasUsedForL1": "0xe3",
      "l1BlockNumber": "0x6d5b0b"
    },
    {
      "status": "0x1",
      "cumulativeGasUsed": "0x752b9",
      "logs": [],
      "logsBloom": "0x00000000000000000000000000000000000000000000000000000000000000000000000000000000000000000000000000000000000000000000000000000000000000000000000000000000000000000000000000000000000000000000000000000000000000000000000000000000000000000000000000000000000000000000000000000000000000000000000000000000000000000000000000000000000000000000000000000000000000000000000000000000000000000000000000000000000000000000000000000000000000000000000000000000000000000000000000000000000000000000000000000000000000000000000000000000",
      "type": "0x2",
      "transactionHash": "0x73e978eaed851e773ef9a6448e7fa4fd57a68ce9b7381d2955421ec29eb2a1fc",
      "transactionIndex": "0x3",
      "blockHash": "0xc9c9e7a5a30c3cc4db791d107fabb37eba56238fecfd331f4bbeb959a71703a9",
      "blockNumber": "0x6091e02",
      "gasUsed": "0xbe19",
      "effectiveGasPrice": "0x5f5e100",
      "from": "0xe62ab4d111f968660c6b2188046f9b9ba53c4bae",
      "to": "0x33348aa4a1d62757eb6077c86554672dd22902ae",
      "contractAddress": null,
      "gasUsedForL1": "0xe3",
      "l1BlockNumber": "0x6d5b0d"
    },
    {
      "status": "0x1",
      "cumulativeGasUsed": "0x5a09a",
      "logs": [],
      "logsBloom": "0x00000000000000000000000000000000000000000000000000000000000000000000000000000000000000000000000000000000000000000000000000000000000000000000000000000000000000000000000000000000000000000000000000000000000000000000000000000000000000000000000000000000000000000000000000000000000000000000000000000000000000000000000000000000000000000000000000000000000000000000000000000000000000000000000000000000000000000000000000000000000000000000000000000000000000000000000000000000000000000000000000000000000000000000000000000000",
      "type": "0x2",
      "transactionHash": "0xd39f5c8cfa629c3468ea5cb2e4df8038269da559a4fcbebb87cb94385f1fe8ed",
      "transactionIndex": "0x3",
      "blockHash": "0xcb028c684f97b9bca371a35f0ceba470a4d49cfd45b141074b44e4ee507096e4",
      "blockNumber": "0x6091e22",
      "gasUsed": "0xbe30",
      "effectiveGasPrice": "0x5f5e100",
      "from": "0xe62ab4d111f968660c6b2188046f9b9ba53c4bae",
      "to": "0x33348aa4a1d62757eb6077c86554672dd22902ae",
      "contractAddress": null,
      "gasUsedForL1": "0xe3",
      "l1BlockNumber": "0x6d5b0d"
    },
    {
      "status": "0x1",
      "cumulativeGasUsed": "0x2ca59",
      "logs": [],
      "logsBloom": "0x00000000000000000000000000000000000000000000000000000000000000000000000000000000000000000000000000000000000000000000000000000000000000000000000000000000000000000000000000000000000000000000000000000000000000000000000000000000000000000000000000000000000000000000000000000000000000000000000000000000000000000000000000000000000000000000000000000000000000000000000000000000000000000000000000000000000000000000000000000000000000000000000000000000000000000000000000000000000000000000000000000000000000000000000000000000",
      "type": "0x2",
      "transactionHash": "0xbdbe6d5c6005e2b1d3b175ce1d10751d7b82d306a8b21fbc8c11efa04a2f7a26",
      "transactionIndex": "0x2",
      "blockHash": "0x49bfeac0128e5479cb3a42c2767ed8738d5fd3b60c34a453ca65c8ce6dccb296",
      "blockNumber": "0x6091e42",
      "gasUsed": "0xbe47",
      "effectiveGasPrice": "0x5f5e100",
      "from": "0xe62ab4d111f968660c6b2188046f9b9ba53c4bae",
      "to": "0x33348aa4a1d62757eb6077c86554672dd22902ae",
      "contractAddress": null,
      "gasUsedForL1": "0xe3",
      "l1BlockNumber": "0x6d5b0e"
    },
    {
      "status": "0x1",
      "cumulativeGasUsed": "0x3d3eb",
      "logs": [],
      "logsBloom": "0x00000000000000000000000000000000000000000000000000000000000000000000000000000000000000000000000000000000000000000000000000000000000000000000000000000000000000000000000000000000000000000000000000000000000000000000000000000000000000000000000000000000000000000000000000000000000000000000000000000000000000000000000000000000000000000000000000000000000000000000000000000000000000000000000000000000000000000000000000000000000000000000000000000000000000000000000000000000000000000000000000000000000000000000000000000000",
      "type": "0x2",
      "transactionHash": "0xb7ff2da8cc1b3c629efff237067217374a65fcbbd424c32647037ce6251e1b66",
      "transactionIndex": "0x3",
      "blockHash": "0xa724a8f9715cf1f57e2ec2a3d9286f35782ada628487acfc85104b88aff352cc",
      "blockNumber": "0x6091e62",
      "gasUsed": "0xbe5e",
      "effectiveGasPrice": "0x5f5e100",
      "from": "0xe62ab4d111f968660c6b2188046f9b9ba53c4bae",
      "to": "0x33348aa4a1d62757eb6077c86554672dd22902ae",
      "contractAddress": null,
      "gasUsedForL1": "0xe3",
      "l1BlockNumber": "0x6d5b0e"
    },
    {
      "status": "0x1",
      "cumulativeGasUsed": "0x151a8",
      "logs": [],
      "logsBloom": "0x00000000000000000000000000000000000000000000000000000000000000000000000000000000000000000000000000000000000000000000000000000000000000000000000000000000000000000000000000000000000000000000000000000000000000000000000000000000000000000000000000000000000000000000000000000000000000000000000000000000000000000000000000000000000000000000000000000000000000000000000000000000000000000000000000000000000000000000000000000000000000000000000000000000000000000000000000000000000000000000000000000000000000000000000000000000",
      "type": "0x2",
      "transactionHash": "0x89635ac9227994f480a93273e628a90dd79c4275f97441c82b1ef3dd3be00c14",
      "transactionIndex": "0x2",
      "blockHash": "0x85665759c2ad5945450b3c02e75161628479bbf9d5d7f65c489f2484aebf90bf",
      "blockNumber": "0x6091e82",
      "gasUsed": "0xbe75",
      "effectiveGasPrice": "0x5f5e100",
      "from": "0xe62ab4d111f968660c6b2188046f9b9ba53c4bae",
      "to": "0x33348aa4a1d62757eb6077c86554672dd22902ae",
      "contractAddress": null,
      "gasUsedForL1": "0xe3",
      "l1BlockNumber": "0x6d5b0f"
    },
    {
      "status": "0x1",
      "cumulativeGasUsed": "0x47b07",
      "logs": [],
      "logsBloom": "0x00000000000000000000000000000000000000000000000000000000000000000000000000000000000000000000000000000000000000000000000000000000000000000000000000000000000000000000000000000000000000000000000000000000000000000000000000000000000000000000000000000000000000000000000000000000000000000000000000000000000000000000000000000000000000000000000000000000000000000000000000000000000000000000000000000000000000000000000000000000000000000000000000000000000000000000000000000000000000000000000000000000000000000000000000000000",
      "type": "0x2",
      "transactionHash": "0x8d0e877078ce98cef924e56a1519f9c7287a21f85617b62860aa600c25c4ebf2",
      "transactionIndex": "0x3",
      "blockHash": "0x79d6445fbc81aa2d5df986fb91770e51ef17af4e10266d79b050ea266985a5b4",
      "blockNumber": "0x6091ea2",
      "gasUsed": "0xbe8c",
      "effectiveGasPrice": "0x5f5e100",
      "from": "0xe62ab4d111f968660c6b2188046f9b9ba53c4bae",
      "to": "0x33348aa4a1d62757eb6077c86554672dd22902ae",
      "contractAddress": null,
      "gasUsedForL1": "0xe3",
      "l1BlockNumber": "0x6d5b0f"
    },
    {
      "status": "0x1",
      "cumulativeGasUsed": "0x3e593",
      "logs": [],
      "logsBloom": "0x00000000000000000000000000000000000000000000000000000000000000000000000000000000000000000000000000000000000000000000000000000000000000000000000000000000000000000000000000000000000000000000000000000000000000000000000000000000000000000000000000000000000000000000000000000000000000000000000000000000000000000000000000000000000000000000000000000000000000000000000000000000000000000000000000000000000000000000000000000000000000000000000000000000000000000000000000000000000000000000000000000000000000000000000000000000",
      "type": "0x2",
      "transactionHash": "0x0affea225eba84ab0c8796c3b1e45114a8fee7a24e27b982cf314e17aff1128f",
      "transactionIndex": "0x2",
      "blockHash": "0xb6f0a7d743297156691dc4cfe2f24fd43027086bfbeb5697f942053668fb4610",
      "blockNumber": "0x6091ec2",
      "gasUsed": "0xbe9e",
      "effectiveGasPrice": "0x5f5e100",
      "from": "0xe62ab4d111f968660c6b2188046f9b9ba53c4bae",
      "to": "0x33348aa4a1d62757eb6077c86554672dd22902ae",
      "contractAddress": null,
      "gasUsedForL1": "0xe3",
      "l1BlockNumber": "0x6d5b10"
    },
    {
      "status": "0x1",
      "cumulativeGasUsed": "0x54928",
      "logs": [],
      "logsBloom": "0x00000000000000000000000000000000000000000000000000000000000000000000000000000000000000000000000000000000000000000000000000000000000000000000000000000000000000000000000000000000000000000000000000000000000000000000000000000000000000000000000000000000000000000000000000000000000000000000000000000000000000000000000000000000000000000000000000000000000000000000000000000000000000000000000000000000000000000000000000000000000000000000000000000000000000000000000000000000000000000000000000000000000000000000000000000000",
      "type": "0x2",
      "transactionHash": "0xdbb59ae5e1f2c7045fc3f53136c6916d71119b799649d4f562c4cb7280577ae0",
      "transactionIndex": "0x2",
      "blockHash": "0x15ba34dea410a58109dc96acdb6ae9302ecb17c48c8e99ae90cb53d68558b34a",
      "blockNumber": "0x6091ee2",
      "gasUsed": "0x2208a",
      "effectiveGasPrice": "0x5f5e100",
      "from": "0xe62ab4d111f968660c6b2188046f9b9ba53c4bae",
      "to": "0x33348aa4a1d62757eb6077c86554672dd22902ae",
      "contractAddress": null,
      "gasUsedForL1": "0x168",
      "l1BlockNumber": "0x6d5b10"
    },
    {
      "status": "0x1",
      "cumulativeGasUsed": "0x1e411",
      "logs": [],
      "logsBloom": "0x00000000000000000000000000000000000000000000000000000000000000000000000000000000000000000000000000000000000000000000000000000000000000000000000000000000000000000000000000000000000000000000000000000000000000000000000000000000000000000000000000000000000000000000000000000000000000000000000000000000000000000000000000000000000000000000000000000000000000000000000000000000000000000000000000000000000000000000000000000000000000000000000000000000000000000000000000000000000000000000000000000000000000000000000000000000",
      "type": "0x2",
      "transactionHash": "0xa01287791d3db2fb0a2a9892b780feb45fecc0912290d5c9e4dbc917fdfe4277",
      "transactionIndex": "0x1",
      "blockHash": "0x4b2cf212a96141371ff5aa14c87fdb366439de926b06ab117d4f2bf50c38edcd",
      "blockNumber": "0x6091efe",
      "gasUsed": "0x1e411",
      "effectiveGasPrice": "0x5f5e100",
      "from": "0xe62ab4d111f968660c6b2188046f9b9ba53c4bae",
      "to": "0x33348aa4a1d62757eb6077c86554672dd22902ae",
      "contractAddress": null,
      "gasUsedForL1": "0x16f",
      "l1BlockNumber": "0x6d5b12"
    },
    {
      "status": "0x1",
      "cumulativeGasUsed": "0x1e414",
      "logs": [],
      "logsBloom": "0x00000000000000000000000000000000000000000000000000000000000000000000000000000000000000000000000000000000000000000000000000000000000000000000000000000000000000000000000000000000000000000000000000000000000000000000000000000000000000000000000000000000000000000000000000000000000000000000000000000000000000000000000000000000000000000000000000000000000000000000000000000000000000000000000000000000000000000000000000000000000000000000000000000000000000000000000000000000000000000000000000000000000000000000000000000000",
      "type": "0x2",
      "transactionHash": "0x12af35ffe17a9367d1b373f9a2c13793f8829d7187d2bc46ff860201fdb29ac0",
      "transactionIndex": "0x1",
      "blockHash": "0xe1edf41acfaf7cdf0a195460c568d7b24a35f48cc1d7509f7743fc6e244d58b2",
      "blockNumber": "0x6091f19",
      "gasUsed": "0x1e414",
      "effectiveGasPrice": "0x5f5e100",
      "from": "0xe62ab4d111f968660c6b2188046f9b9ba53c4bae",
      "to": "0x33348aa4a1d62757eb6077c86554672dd22902ae",
      "contractAddress": null,
      "gasUsedForL1": "0x172",
      "l1BlockNumber": "0x6d5b13"
    },
    {
      "status": "0x1",
      "cumulativeGasUsed": "0x1df7c",
      "logs": [],
      "logsBloom": "0x00000000000000000000000000000000000000000000000000000000000000000000000000000000000000000000000000000000000000000000000000000000000000000000000000000000000000000000000000000000000000000000000000000000000000000000000000000000000000000000000000000000000000000000000000000000000000000000000000000000000000000000000000000000000000000000000000000000000000000000000000000000000000000000000000000000000000000000000000000000000000000000000000000000000000000000000000000000000000000000000000000000000000000000000000000000",
      "type": "0x2",
      "transactionHash": "0x5e4a6c9652045de2fc00a3ded938dba3d831c12eeeb70c2ce9c92a747c7a2e7e",
      "transactionIndex": "0x1",
      "blockHash": "0xa8dee92dc857ee13a725f90d46ed5b595dbf527aada5bde0200b146fd4dfc90a",
      "blockNumber": "0x6091f31",
      "gasUsed": "0x1df7c",
      "effectiveGasPrice": "0x5f5e100",
      "from": "0xe62ab4d111f968660c6b2188046f9b9ba53c4bae",
      "to": "0x33348aa4a1d62757eb6077c86554672dd22902ae",
      "contractAddress": null,
      "gasUsedForL1": "0x166",
      "l1BlockNumber": "0x6d5b13"
    },
    {
      "status": "0x1",
      "cumulativeGasUsed": "0x1e8a2",
      "logs": [],
      "logsBloom": "0x00000000000000000000000000000000000000000000000000000000000000000000000000000000000000000000000000000000000000000000000000000000000000000000000000000000000000000000000000000000000000000000000000000000000000000000000000000000000000000000000000000000000000000000000000000000000000000000000000000000000000000000000000000000000000000000000000000000000000000000000000000000000000000000000000000000000000000000000000000000000000000000000000000000000000000000000000000000000000000000000000000000000000000000000000000000",
      "type": "0x2",
      "transactionHash": "0xd898479e1dfb25a718b969a612f39f8465bbf7334f3dc0c776e0112f14173621",
      "transactionIndex": "0x1",
      "blockHash": "0x12548c1d0b075d52610a424f91a3d550e071f11493773f134fcc13e07e56a6ac",
      "blockNumber": "0x6091f4e",
      "gasUsed": "0x1e8a2",
      "effectiveGasPrice": "0x5f5e100",
      "from": "0xe62ab4d111f968660c6b2188046f9b9ba53c4bae",
      "to": "0x33348aa4a1d62757eb6077c86554672dd22902ae",
      "contractAddress": null,
      "gasUsedForL1": "0x174",
      "l1BlockNumber": "0x6d5b14"
    },
    {
      "status": "0x1",
      "cumulativeGasUsed": "0xe6506",
      "logs": [],
      "logsBloom": "0x00000000000000000000000000000000000000000000000000000000000000000000000000000000000000000000000000000000000000000000000000000000000000000000000000000000000000000000000000000000000000000000000000000000000000000000000000000000000000000000000000000000000000000000000000000000000000000000000000000000000000000000000000000000000000000000000000000000000000000000000000000000000000000000000000000000000000000000000000000000000000000000000000000000000000000000000000000000000000000000000000000000000000000000000000000000",
      "type": "0x2",
      "transactionHash": "0x4b70c9625b1c554de53c9da9954e65a8debf8537b7025bdc52106c12ffdf08a6",
      "transactionIndex": "0x4",
      "blockHash": "0xf2e379827157a9c1612b7afb489d236de9128e7bef891a897657719f0ee4c97a",
      "blockNumber": "0x6091f6a",
      "gasUsed": "0x7b2cc",
      "effectiveGasPrice": "0x5f5e100",
      "from": "0xe62ab4d111f968660c6b2188046f9b9ba53c4bae",
      "to": "0xd990ef52a6a375b19375b07cfc2aad2b592e66be",
      "contractAddress": null,
      "gasUsedForL1": "0x21d",
      "l1BlockNumber": "0x6d5b14"
    },
    {
      "status": "0x1",
      "cumulativeGasUsed": "0xbdac1",
      "logs": [],
      "logsBloom": "0x00000000000000000000000000000000000000000000000000000000000000000000000000000000000000000000000000000000000000000000000000000000000000000000000000000000000000000000000000000000000000000000000000000000000000000000000000000000000000000000000000000000000000000000000000000000000000000000000000000000000000000000000000000000000000000000000000000000000000000000000000000000000000000000000000000000000000000000000000000000000000000000000000000000000000000000000000000000000000000000000000000000000000000000000000000000",
      "type": "0x2",
      "transactionHash": "0xc2df64448b82f0f44971cd3e8207cbe9872d597f30a0f4906626b4cd0f8f2111",
      "transactionIndex": "0x1",
      "blockHash": "0x849b8ff6c1b0d75ee501a9a6b8f06a5187afa338e87f02c3c07a21d570f6e550",
      "blockNumber": "0x6091f6e",
      "gasUsed": "0xbdac1",
      "effectiveGasPrice": "0x5f5e100",
      "from": "0xe62ab4d111f968660c6b2188046f9b9ba53c4bae",
      "to": "0xd990ef52a6a375b19375b07cfc2aad2b592e66be",
      "contractAddress": null,
      "gasUsedForL1": "0x247",
      "l1BlockNumber": "0x6d5b14"
    },
    {
      "status": "0x1",
      "cumulativeGasUsed": "0x9c209",
      "logs": [],
      "logsBloom": "0x00000000000000000000000000000000000000000000000000000000000000000000000000000000000000000000000000000000000000000000000000000000000000000000000000000000000000000000000000000000000000000000000000000000000000000000000000000000000000000000000000000000000000000000000000000000000000000000000000000000000000000000000000000000000000000000000000000000000000000000000000000000000000000000000000000000000000000000000000000000000000000000000000000000000000000000000000000000000000000000000000000000000000000000000000000000",
      "type": "0x2",
      "transactionHash": "0xef4ea586338def20211097127b3aa8cb60db96fe404061e490265e04fdc5a72c",
      "transactionIndex": "0x1",
      "blockHash": "0x58eb5d9298eff2510151323cadcd0867962159d9b01b40f7335bcecf1d570005",
      "blockNumber": "0x6091f8f",
      "gasUsed": "0x9c209",
      "effectiveGasPrice": "0x5f5e100",
      "from": "0xe62ab4d111f968660c6b2188046f9b9ba53c4bae",
      "to": "0xd990ef52a6a375b19375b07cfc2aad2b592e66be",
      "contractAddress": null,
      "gasUsedForL1": "0x24e",
      "l1BlockNumber": "0x6d5b15"
    }
  ],
  "libraries": [],
  "pending": [],
  "returns": {},
  "timestamp": 1732756031,
  "chain": 421614,
  "commit": "3a8898ab"
}