{
  "transactions": [
    {
      "hash": "0xe556beb69beca8550ac379ebc061da205007fa39ef1b3bae291da4658035d626",
      "transactionType": "CALL",
      "contractName": null,
      "contractAddress": "0x54caa31d029e68a605d839d7258f37e946db71e9",
      "function": "getFeeTokenList()",
      "arguments": [],
      "transaction": {
        "from": "0xe62ab4d111f968660c6b2188046f9b9ba53c4bae",
        "to": "0x54caa31d029e68a605d839d7258f37e946db71e9",
        "gas": "0x7e4e",
        "value": "0x0",
        "input": "0xe28ab277",
        "nonce": "0x37a",
        "chainId": "0x66eee"
      },
      "additionalContracts": [],
      "isFixedGasLimit": false
    },
    {
      "hash": "0x36c115c72c3a33fe0723d4cff3dc90bdef2798db07c7a1eb58b7b018fab9a396",
      "transactionType": "CALL",
      "contractName": null,
      "contractAddress": "0x54caa31d029e68a605d839d7258f37e946db71e9",
      "function": "addFeeToken(string)",
      "arguments": [
        "0x92829288c6aa874c1a0f190da35a4023c22be637"
      ],
      "transaction": {
        "from": "0xe62ab4d111f968660c6b2188046f9b9ba53c4bae",
        "to": "0x54caa31d029e68a605d839d7258f37e946db71e9",
        "gas": "0x248d1",
        "value": "0x0",
        "input": "0x12a6385f0000000000000000000000000000000000000000000000000000000000000020000000000000000000000000000000000000000000000000000000000000002a30783932383239323838633661613837346331613066313930646133356134303233633232626536333700000000000000000000000000000000000000000000",
        "nonce": "0x37b",
        "chainId": "0x66eee"
      },
      "additionalContracts": [],
      "isFixedGasLimit": false
    },
    {
      "hash": "0xeb1b6012d4bc7e344e8346b9c4c4d490fea1e580339246232cca2049a14038ff",
      "transactionType": "CALL",
      "contractName": null,
      "contractAddress": "0x54caa31d029e68a605d839d7258f37e946db71e9",
      "function": "setFeeMultiplier(uint8,uint256)",
      "arguments": [
        "0",
        "2"
      ],
      "transaction": {
        "from": "0xe62ab4d111f968660c6b2188046f9b9ba53c4bae",
        "to": "0x54caa31d029e68a605d839d7258f37e946db71e9",
        "gas": "0xf876",
        "value": "0x0",
        "input": "0x0ee24eb500000000000000000000000000000000000000000000000000000000000000000000000000000000000000000000000000000000000000000000000000000002",
        "nonce": "0x37c",
        "chainId": "0x66eee"
      },
      "additionalContracts": [],
      "isFixedGasLimit": false
    },
    {
      "hash": "0x9efc5af74059e562a8f353d7025dd452e0372f1882c2c0ae9d78c961371ea42f",
      "transactionType": "CALL",
      "contractName": null,
      "contractAddress": "0x54caa31d029e68a605d839d7258f37e946db71e9",
      "function": "setFeeMultiplier(uint8,uint256)",
      "arguments": [
        "1",
        "10"
      ],
      "transaction": {
        "from": "0xe62ab4d111f968660c6b2188046f9b9ba53c4bae",
        "to": "0x54caa31d029e68a605d839d7258f37e946db71e9",
        "gas": "0xf8ab",
        "value": "0x0",
        "input": "0x0ee24eb50000000000000000000000000000000000000000000000000000000000000001000000000000000000000000000000000000000000000000000000000000000a",
        "nonce": "0x37d",
        "chainId": "0x66eee"
      },
      "additionalContracts": [],
      "isFixedGasLimit": false
    },
    {
      "hash": "0xda5c6b09bb9e10bd9aa61601e5657795f2f09cc1fd4414961fa1d92a6e4b4ebc",
      "transactionType": "CALL",
      "contractName": null,
      "contractAddress": "0x54caa31d029e68a605d839d7258f37e946db71e9",
      "function": "setFeeMultiplier(uint8,uint256)",
      "arguments": [
        "2",
        "1"
      ],
      "transaction": {
        "from": "0xe62ab4d111f968660c6b2188046f9b9ba53c4bae",
        "to": "0x54caa31d029e68a605d839d7258f37e946db71e9",
        "gas": "0xf8c9",
        "value": "0x0",
        "input": "0x0ee24eb500000000000000000000000000000000000000000000000000000000000000020000000000000000000000000000000000000000000000000000000000000001",
        "nonce": "0x37e",
        "chainId": "0x66eee"
      },
      "additionalContracts": [],
      "isFixedGasLimit": false
    },
    {
      "hash": "0xa8882d1b4adc0f1dd1fd7abac03c0b305c4110713afcc4d4dbfecb0b76063d14",
      "transactionType": "CALL",
      "contractName": null,
      "contractAddress": "0x54caa31d029e68a605d839d7258f37e946db71e9",
      "function": "setFeeMultiplier(uint8,uint256)",
      "arguments": [
        "3",
        "4"
      ],
      "transaction": {
        "from": "0xe62ab4d111f968660c6b2188046f9b9ba53c4bae",
        "to": "0x54caa31d029e68a605d839d7258f37e946db71e9",
        "gas": "0xf8e7",
        "value": "0x0",
        "input": "0x0ee24eb500000000000000000000000000000000000000000000000000000000000000030000000000000000000000000000000000000000000000000000000000000004",
        "nonce": "0x37f",
        "chainId": "0x66eee"
      },
      "additionalContracts": [],
      "isFixedGasLimit": false
    },
    {
      "hash": "0x9033314ca6334b6aace3ff8cbbd75ad51ce500c418f23b1a9b3b36c84b60df72",
      "transactionType": "CALL",
      "contractName": null,
      "contractAddress": "0x54caa31d029e68a605d839d7258f37e946db71e9",
      "function": "setFeeMultiplier(uint8,uint256)",
      "arguments": [
        "4",
        "4"
      ],
      "transaction": {
        "from": "0xe62ab4d111f968660c6b2188046f9b9ba53c4bae",
        "to": "0x54caa31d029e68a605d839d7258f37e946db71e9",
        "gas": "0xf905",
        "value": "0x0",
        "input": "0x0ee24eb500000000000000000000000000000000000000000000000000000000000000040000000000000000000000000000000000000000000000000000000000000004",
        "nonce": "0x380",
        "chainId": "0x66eee"
      },
      "additionalContracts": [],
      "isFixedGasLimit": false
    },
    {
      "hash": "0x87e02c616d3846e8711da361010c3bd094f247dd37c3ce2ae180e685071d76e8",
      "transactionType": "CALL",
      "contractName": null,
      "contractAddress": "0x54caa31d029e68a605d839d7258f37e946db71e9",
      "function": "setFeeMultiplier(uint8,uint256)",
      "arguments": [
        "5",
        "8"
      ],
      "transaction": {
        "from": "0xe62ab4d111f968660c6b2188046f9b9ba53c4bae",
        "to": "0x54caa31d029e68a605d839d7258f37e946db71e9",
        "gas": "0xf923",
        "value": "0x0",
        "input": "0x0ee24eb500000000000000000000000000000000000000000000000000000000000000050000000000000000000000000000000000000000000000000000000000000008",
        "nonce": "0x381",
        "chainId": "0x66eee"
      },
      "additionalContracts": [],
      "isFixedGasLimit": false
    },
    {
      "hash": "0x4c4ca3cf33a17c475e4b31174fd9e06f2a03a04877e52c0efaa5275b6049a8ae",
      "transactionType": "CALL",
      "contractName": null,
      "contractAddress": "0x54caa31d029e68a605d839d7258f37e946db71e9",
      "function": "setFeeMultiplier(uint8,uint256)",
      "arguments": [
        "6",
        "4"
      ],
      "transaction": {
        "from": "0xe62ab4d111f968660c6b2188046f9b9ba53c4bae",
        "to": "0x54caa31d029e68a605d839d7258f37e946db71e9",
        "gas": "0xf941",
        "value": "0x0",
        "input": "0x0ee24eb500000000000000000000000000000000000000000000000000000000000000060000000000000000000000000000000000000000000000000000000000000004",
        "nonce": "0x382",
        "chainId": "0x66eee"
      },
      "additionalContracts": [],
      "isFixedGasLimit": false
    },
    {
      "hash": "0x2c8afed259709cd23b1c725d4051ac9f68297192626c191f6e82fd2dd2a92e48",
      "transactionType": "CALL",
      "contractName": null,
      "contractAddress": "0x54caa31d029e68a605d839d7258f37e946db71e9",
      "function": "setFeeMultiplier(uint8,uint256)",
      "arguments": [
        "7",
        "10"
      ],
      "transaction": {
        "from": "0xe62ab4d111f968660c6b2188046f9b9ba53c4bae",
        "to": "0x54caa31d029e68a605d839d7258f37e946db71e9",
        "gas": "0xf95f",
        "value": "0x0",
        "input": "0x0ee24eb50000000000000000000000000000000000000000000000000000000000000007000000000000000000000000000000000000000000000000000000000000000a",
        "nonce": "0x383",
        "chainId": "0x66eee"
      },
      "additionalContracts": [],
      "isFixedGasLimit": false
    },
    {
      "hash": "0x8b9e69bf8d0b3c913fa8ddde802f4365afce4ad24ee91615d4d47ea5f5875206",
      "transactionType": "CALL",
      "contractName": null,
      "contractAddress": "0x54caa31d029e68a605d839d7258f37e946db71e9",
      "function": "setFeeMultiplier(uint8,uint256)",
      "arguments": [
        "8",
        "8"
      ],
      "transaction": {
        "from": "0xe62ab4d111f968660c6b2188046f9b9ba53c4bae",
        "to": "0x54caa31d029e68a605d839d7258f37e946db71e9",
        "gas": "0xf97d",
        "value": "0x0",
        "input": "0x0ee24eb500000000000000000000000000000000000000000000000000000000000000080000000000000000000000000000000000000000000000000000000000000008",
        "nonce": "0x384",
        "chainId": "0x66eee"
      },
      "additionalContracts": [],
      "isFixedGasLimit": false
    },
    {
      "hash": "0xffdd8c0dcc62072551122feb0d485cb709f1fac909a135922a3baec458d542b2",
      "transactionType": "CALL",
      "contractName": null,
      "contractAddress": "0x54caa31d029e68a605d839d7258f37e946db71e9",
      "function": "setFeeMultiplier(uint8,uint256)",
      "arguments": [
        "9",
        "8"
      ],
      "transaction": {
        "from": "0xe62ab4d111f968660c6b2188046f9b9ba53c4bae",
        "to": "0x54caa31d029e68a605d839d7258f37e946db71e9",
        "gas": "0xf99a",
        "value": "0x0",
        "input": "0x0ee24eb500000000000000000000000000000000000000000000000000000000000000090000000000000000000000000000000000000000000000000000000000000008",
        "nonce": "0x385",
        "chainId": "0x66eee"
      },
      "additionalContracts": [],
      "isFixedGasLimit": false
    },
    {
      "hash": "0x032e358ddade851438e25a1c6c4f0a848594cb605631620b753910519065884c",
      "transactionType": "CALL",
      "contractName": null,
      "contractAddress": "0x54caa31d029e68a605d839d7258f37e946db71e9",
      "function": "setFeeMultiplier(uint8,uint256)",
      "arguments": [
        "10",
        "8"
      ],
      "transaction": {
        "from": "0xe62ab4d111f968660c6b2188046f9b9ba53c4bae",
        "to": "0x54caa31d029e68a605d839d7258f37e946db71e9",
        "gas": "0xf9b8",
        "value": "0x0",
        "input": "0x0ee24eb5000000000000000000000000000000000000000000000000000000000000000a0000000000000000000000000000000000000000000000000000000000000008",
        "nonce": "0x386",
        "chainId": "0x66eee"
      },
      "additionalContracts": [],
      "isFixedGasLimit": false
    },
    {
      "hash": "0x1200dc3139d232951e9161a3672329ad988addbf92f7bb317561f51dee8cb787",
      "transactionType": "CALL",
      "contractName": null,
      "contractAddress": "0x54caa31d029e68a605d839d7258f37e946db71e9",
      "function": "setFeeMultiplier(uint8,uint256)",
      "arguments": [
        "11",
        "20"
      ],
      "transaction": {
        "from": "0xe62ab4d111f968660c6b2188046f9b9ba53c4bae",
        "to": "0x54caa31d029e68a605d839d7258f37e946db71e9",
        "gas": "0xf9d8",
        "value": "0x0",
        "input": "0x0ee24eb5000000000000000000000000000000000000000000000000000000000000000b0000000000000000000000000000000000000000000000000000000000000014",
        "nonce": "0x387",
        "chainId": "0x66eee"
      },
      "additionalContracts": [],
      "isFixedGasLimit": false
    },
    {
      "hash": "0x35e2af3b1a1618640a8041d71d5e545c7972e0f84f80d73a3943911dd7dd1a91",
      "transactionType": "CALL",
      "contractName": null,
      "contractAddress": "0x54caa31d029e68a605d839d7258f37e946db71e9",
      "function": "setFeeMultiplier(uint8,uint256)",
      "arguments": [
        "12",
        "8"
      ],
      "transaction": {
        "from": "0xe62ab4d111f968660c6b2188046f9b9ba53c4bae",
        "to": "0x54caa31d029e68a605d839d7258f37e946db71e9",
        "gas": "0xf9f5",
        "value": "0x0",
        "input": "0x0ee24eb5000000000000000000000000000000000000000000000000000000000000000c0000000000000000000000000000000000000000000000000000000000000008",
        "nonce": "0x388",
        "chainId": "0x66eee"
      },
      "additionalContracts": [],
      "isFixedGasLimit": false
    },
    {
      "hash": "0x0950d47ba653dbc8879b886f6f8f9483e2b33aebab52599550d298ea4d238c31",
      "transactionType": "CALL",
      "contractName": null,
      "contractAddress": "0x54caa31d029e68a605d839d7258f37e946db71e9",
      "function": "setFeeMultiplier(uint8,uint256)",
      "arguments": [
        "13",
        "4"
      ],
      "transaction": {
        "from": "0xe62ab4d111f968660c6b2188046f9b9ba53c4bae",
        "to": "0x54caa31d029e68a605d839d7258f37e946db71e9",
        "gas": "0xfa13",
        "value": "0x0",
        "input": "0x0ee24eb5000000000000000000000000000000000000000000000000000000000000000d0000000000000000000000000000000000000000000000000000000000000004",
        "nonce": "0x389",
        "chainId": "0x66eee"
      },
      "additionalContracts": [],
      "isFixedGasLimit": false
    },
    {
      "hash": "0x76cf386051007015554af916ae34d4e5e47e8abbc68ac705ecdb74d6c20a3536",
      "transactionType": "CALL",
      "contractName": null,
      "contractAddress": "0x54caa31d029e68a605d839d7258f37e946db71e9",
      "function": "setFeeMultiplier(uint8,uint256)",
      "arguments": [
        "14",
        "4"
      ],
      "transaction": {
        "from": "0xe62ab4d111f968660c6b2188046f9b9ba53c4bae",
        "to": "0x54caa31d029e68a605d839d7258f37e946db71e9",
        "gas": "0xfa31",
        "value": "0x0",
        "input": "0x0ee24eb5000000000000000000000000000000000000000000000000000000000000000e0000000000000000000000000000000000000000000000000000000000000004",
        "nonce": "0x38a",
        "chainId": "0x66eee"
      },
      "additionalContracts": [],
      "isFixedGasLimit": false
    },
    {
      "hash": "0xf4e9dd6d806c337f808268695915472960bb01d8c97f8012e086847e1512e59b",
      "transactionType": "CALL",
      "contractName": null,
      "contractAddress": "0x54caa31d029e68a605d839d7258f37e946db71e9",
      "function": "setFeeMultiplier(uint8,uint256)",
      "arguments": [
        "15",
        "2"
      ],
      "transaction": {
        "from": "0xe62ab4d111f968660c6b2188046f9b9ba53c4bae",
        "to": "0x54caa31d029e68a605d839d7258f37e946db71e9",
        "gas": "0xfa49",
        "value": "0x0",
        "input": "0x0ee24eb5000000000000000000000000000000000000000000000000000000000000000f0000000000000000000000000000000000000000000000000000000000000002",
        "nonce": "0x38b",
        "chainId": "0x66eee"
      },
      "additionalContracts": [],
      "isFixedGasLimit": false
    },
    {
      "hash": "0xa9869f52e19aa829e8e27383189cf7aaa0c59bb4b256ebb7e6523650469f3e28",
      "transactionType": "CALL",
      "contractName": null,
      "contractAddress": "0x54caa31d029e68a605d839d7258f37e946db71e9",
      "function": "addFeeToken(string,string[],uint256[])",
      "arguments": [
        "421614",
        "[0x92829288c6aa874c1a0f190da35a4023c22be637]",
        "[1000]"
      ],
      "transaction": {
        "from": "0xe62ab4d111f968660c6b2188046f9b9ba53c4bae",
        "to": "0x54caa31d029e68a605d839d7258f37e946db71e9",
        "gas": "0x2ee43",
        "value": "0x0",
        "input": "0x437bf84f000000000000000000000000000000000000000000000000000000000000006000000000000000000000000000000000000000000000000000000000000000a000000000000000000000000000000000000000000000000000000000000001400000000000000000000000000000000000000000000000000000000000000006343231363134000000000000000000000000000000000000000000000000000000000000000000000000000000000000000000000000000000000000000000010000000000000000000000000000000000000000000000000000000000000020000000000000000000000000000000000000000000000000000000000000002a30783932383239323838633661613837346331613066313930646133356134303233633232626536333700000000000000000000000000000000000000000000000000000000000000000000000000000000000000000000000000000000000100000000000000000000000000000000000000000000000000000000000003e8",
        "nonce": "0x38c",
        "chainId": "0x66eee"
      },
      "additionalContracts": [],
      "isFixedGasLimit": false
    },
    {
      "hash": "0xa44220cbecc9d23d0960ed506d00de605a768f541dc45a601f5f46854f1ab340",
      "transactionType": "CALL",
      "contractName": null,
      "contractAddress": "0x54caa31d029e68a605d839d7258f37e946db71e9",
      "function": "addFeeToken(string,string[],uint256[])",
      "arguments": [
        "84532",
        "[0x92829288c6aa874c1a0f190da35a4023c22be637]",
        "[1000]"
      ],
      "transaction": {
        "from": "0xe62ab4d111f968660c6b2188046f9b9ba53c4bae",
        "to": "0x54caa31d029e68a605d839d7258f37e946db71e9",
        "gas": "0x29ab2",
        "value": "0x0",
        "input": "0x437bf84f000000000000000000000000000000000000000000000000000000000000006000000000000000000000000000000000000000000000000000000000000000a000000000000000000000000000000000000000000000000000000000000001400000000000000000000000000000000000000000000000000000000000000005383435333200000000000000000000000000000000000000000000000000000000000000000000000000000000000000000000000000000000000000000000010000000000000000000000000000000000000000000000000000000000000020000000000000000000000000000000000000000000000000000000000000002a30783932383239323838633661613837346331613066313930646133356134303233633232626536333700000000000000000000000000000000000000000000000000000000000000000000000000000000000000000000000000000000000100000000000000000000000000000000000000000000000000000000000003e8",
        "nonce": "0x38d",
        "chainId": "0x66eee"
      },
      "additionalContracts": [],
      "isFixedGasLimit": false
    },
    {
      "hash": "0x682efdc836a41ff3ee4290e25012bb501ee9b9b0a660ee86de74675ec6c270dd",
      "transactionType": "CALL",
      "contractName": null,
      "contractAddress": "0x6aff0df7a17477f76f2cc927a50571a23a4a3b1f",
      "function": "addChainContract(string[],string[])",
      "arguments": [
        "[84532]",
        "[0x21c90e25142a8cef8ca3fbefd6417617bcafa303]"
      ],
      "transaction": {
        "from": "0xe62ab4d111f968660c6b2188046f9b9ba53c4bae",
        "to": "0x6aff0df7a17477f76f2cc927a50571a23a4a3b1f",
        "gas": "0x2fdbe",
        "value": "0x0",
        "input": "0x013fd3bd000000000000000000000000000000000000000000000000000000000000004000000000000000000000000000000000000000000000000000000000000000c0000000000000000000000000000000000000000000000000000000000000000100000000000000000000000000000000000000000000000000000000000000200000000000000000000000000000000000000000000000000000000000000005383435333200000000000000000000000000000000000000000000000000000000000000000000000000000000000000000000000000000000000000000000010000000000000000000000000000000000000000000000000000000000000020000000000000000000000000000000000000000000000000000000000000002a30783231633930653235313432613863656638636133666265666436343137363137626361666133303300000000000000000000000000000000000000000000",
        "nonce": "0x38e",
        "chainId": "0x66eee"
      },
      "additionalContracts": [],
      "isFixedGasLimit": false
    },
    {
      "hash": "0xc644a69bea342072bc4e6945f8c11a7b761b909ca8f6144d8e708089484eee91",
      "transactionType": "CALL",
      "contractName": null,
      "contractAddress": "0x6aff0df7a17477f76f2cc927a50571a23a4a3b1f",
      "function": "attachRWAX(uint256,uint256,string[],string[])",
      "arguments": [
        "1",
        "1",
        "[421614, 84532]",
        "[0xcd1f6cb9977db3187ec00bcfaa99d5f808537be8, 0xe4370824a15854eed6d132cb2c7ee7a4953e7aca]"
      ],
      "transaction": {
        "from": "0xe62ab4d111f968660c6b2188046f9b9ba53c4bae",
        "to": "0x6aff0df7a17477f76f2cc927a50571a23a4a3b1f",
        "gas": "0x59d3d",
        "value": "0x0",
        "input": "0x33a5f5b4000000000000000000000000000000000000000000000000000000000000000100000000000000000000000000000000000000000000000000000000000000010000000000000000000000000000000000000000000000000000000000000080000000000000000000000000000000000000000000000000000000000000016000000000000000000000000000000000000000000000000000000000000000020000000000000000000000000000000000000000000000000000000000000040000000000000000000000000000000000000000000000000000000000000008000000000000000000000000000000000000000000000000000000000000000063432313631340000000000000000000000000000000000000000000000000000000000000000000000000000000000000000000000000000000000000000000538343533320000000000000000000000000000000000000000000000000000000000000000000000000000000000000000000000000000000000000000000002000000000000000000000000000000000000000000000000000000000000004000000000000000000000000000000000000000000000000000000000000000a0000000000000000000000000000000000000000000000000000000000000002a30786364316636636239393737646233313837656330306263666161393964356638303835333762653800000000000000000000000000000000000000000000000000000000000000000000000000000000000000000000000000000000002a30786534333730383234613135383534656564366431333263623263376565376134393533653761636100000000000000000000000000000000000000000000",
        "nonce": "0x38f",
        "chainId": "0x66eee"
      },
      "additionalContracts": [],
      "isFixedGasLimit": false
    },
    {
      "hash": "0xbf858cf341f8fbc7d1a50098f8692b5720657989c2d354d37f522a734ab2de80",
      "transactionType": "CALL",
      "contractName": null,
      "contractAddress": "0x6aff0df7a17477f76f2cc927a50571a23a4a3b1f",
      "function": "attachStorageManager(uint256,uint256,string[],string[])",
      "arguments": [
        "1",
        "1",
        "[421614, 84532]",
        "[0x5fffba2e10d66e9368c6270cfd07e31802fff751, 0x7ed4d0234e6c0f6704463e9a62a33ab7b7846a09]"
      ],
      "transaction": {
        "from": "0xe62ab4d111f968660c6b2188046f9b9ba53c4bae",
        "to": "0x6aff0df7a17477f76f2cc927a50571a23a4a3b1f",
        "gas": "0x59a75",
        "value": "0x0",
        "input": "0x2f68b489000000000000000000000000000000000000000000000000000000000000000100000000000000000000000000000000000000000000000000000000000000010000000000000000000000000000000000000000000000000000000000000080000000000000000000000000000000000000000000000000000000000000016000000000000000000000000000000000000000000000000000000000000000020000000000000000000000000000000000000000000000000000000000000040000000000000000000000000000000000000000000000000000000000000008000000000000000000000000000000000000000000000000000000000000000063432313631340000000000000000000000000000000000000000000000000000000000000000000000000000000000000000000000000000000000000000000538343533320000000000000000000000000000000000000000000000000000000000000000000000000000000000000000000000000000000000000000000002000000000000000000000000000000000000000000000000000000000000004000000000000000000000000000000000000000000000000000000000000000a0000000000000000000000000000000000000000000000000000000000000002a30783566666662613265313064363665393336386336323730636664303765333138303266666637353100000000000000000000000000000000000000000000000000000000000000000000000000000000000000000000000000000000002a30783765643464303233346536633066363730343436336539613632613333616237623738343661303900000000000000000000000000000000000000000000",
        "nonce": "0x390",
        "chainId": "0x66eee"
      },
      "additionalContracts": [],
      "isFixedGasLimit": false
    }
  ],
  "receipts": [
    {
      "status": "0x1",
      "cumulativeGasUsed": "0x5f86",
      "logs": [],
      "logsBloom": "0x00000000000000000000000000000000000000000000000000000000000000000000000000000000000000000000000000000000000000000000000000000000000000000000000000000000000000000000000000000000000000000000000000000000000000000000000000000000000000000000000000000000000000000000000000000000000000000000000000000000000000000000000000000000000000000000000000000000000000000000000000000000000000000000000000000000000000000000000000000000000000000000000000000000000000000000000000000000000000000000000000000000000000000000000000000000",
      "type": "0x2",
      "transactionHash": "0xe556beb69beca8550ac379ebc061da205007fa39ef1b3bae291da4658035d626",
      "transactionIndex": "0x1",
      "blockHash": "0xe79cb105cdbc28f9b8884189fc00e4482cb4daacd304880a17e52c5d2acce70c",
      "blockNumber": "0x5d97c9a",
      "gasUsed": "0x5f86",
      "effectiveGasPrice": "0x5f5e100",
      "from": "0xe62ab4d111f968660c6b2188046f9b9ba53c4bae",
      "to": "0x54caa31d029e68a605d839d7258f37e946db71e9",
      "contractAddress": null,
      "gasUsedForL1": "0xd3",
      "l1BlockNumber": "0x6c464c"
    },
    {
      "status": "0x1",
      "cumulativeGasUsed": "0x1bd69",
      "logs": [
        {
          "address": "0x54caa31d029e68a605d839d7258f37e946db71e9",
          "topics": [
            "0x1394cfab38f3fc78ed77ea6f9318782a446d96e7dc8e9a6b0149f6be25c08bcf",
            "0x00000000000000000000000092829288c6aa874c1a0f190da35a4023c22be637"
          ],
          "data": "0x",
          "blockHash": "0x1b60c082df38c5896484992b5af2e9d901926a6b01a17ae0661eecad2de0c7ba",
          "blockNumber": "0x5d97ca3",
          "transactionHash": "0x36c115c72c3a33fe0723d4cff3dc90bdef2798db07c7a1eb58b7b018fab9a396",
          "transactionIndex": "0x1",
          "logIndex": "0x0",
          "removed": false
        }
      ],
      "logsBloom": "0x00000000000000000000000020000000000000000000000000000000000000000000080000000000000000000000000000000000000000000000000000000000000000000000000000000000000000000000001000000000000000000000000000000000000000000000000000000000000000000000000000000000000000000000000100000000000000000000000000000000000000000000000000000000000000000000000000000000000000000000000100000000000000000000020000000000000000000000000000000008000000000004000000000000000000000000008000000000000000000000000000000000000000000000000000000000",
      "type": "0x2",
      "transactionHash": "0x36c115c72c3a33fe0723d4cff3dc90bdef2798db07c7a1eb58b7b018fab9a396",
      "transactionIndex": "0x1",
      "blockHash": "0x1b60c082df38c5896484992b5af2e9d901926a6b01a17ae0661eecad2de0c7ba",
      "blockNumber": "0x5d97ca3",
      "gasUsed": "0x1bd69",
      "effectiveGasPrice": "0x5f5e100",
      "from": "0xe62ab4d111f968660c6b2188046f9b9ba53c4bae",
      "to": "0x54caa31d029e68a605d839d7258f37e946db71e9",
      "contractAddress": null,
      "gasUsedForL1": "0x1bd",
      "l1BlockNumber": "0x6c464c"
    },
    {
      "status": "0x1",
      "cumulativeGasUsed": "0xbd41",
      "logs": [],
      "logsBloom": "0x00000000000000000000000000000000000000000000000000000000000000000000000000000000000000000000000000000000000000000000000000000000000000000000000000000000000000000000000000000000000000000000000000000000000000000000000000000000000000000000000000000000000000000000000000000000000000000000000000000000000000000000000000000000000000000000000000000000000000000000000000000000000000000000000000000000000000000000000000000000000000000000000000000000000000000000000000000000000000000000000000000000000000000000000000000000",
      "type": "0x2",
      "transactionHash": "0xeb1b6012d4bc7e344e8346b9c4c4d490fea1e580339246232cca2049a14038ff",
      "transactionIndex": "0x1",
      "blockHash": "0xb46cbc5ec569343260c3cd0224fcaa55a29d8845f4c35f8b47588d7f55328342",
      "blockNumber": "0x5d97caa",
      "gasUsed": "0xbd41",
      "effectiveGasPrice": "0x5f5e100",
      "from": "0xe62ab4d111f968660c6b2188046f9b9ba53c4bae",
      "to": "0x54caa31d029e68a605d839d7258f37e946db71e9",
      "contractAddress": null,
      "gasUsedForL1": "0x148",
      "l1BlockNumber": "0x6c464c"
    },
    {
      "status": "0x1",
      "cumulativeGasUsed": "0x6a814",
      "logs": [],
      "logsBloom": "0x00000000000000000000000000000000000000000000000000000000000000000000000000000000000000000000000000000000000000000000000000000000000000000000000000000000000000000000000000000000000000000000000000000000000000000000000000000000000000000000000000000000000000000000000000000000000000000000000000000000000000000000000000000000000000000000000000000000000000000000000000000000000000000000000000000000000000000000000000000000000000000000000000000000000000000000000000000000000000000000000000000000000000000000000000000000",
      "type": "0x2",
      "transactionHash": "0x9efc5af74059e562a8f353d7025dd452e0372f1882c2c0ae9d78c961371ea42f",
      "transactionIndex": "0x3",
      "blockHash": "0x9bdd867a926499b25ccecdfccd634b91026b0d84bb179eb590a417bc0f465cb1",
      "blockNumber": "0x5d97cb4",
      "gasUsed": "0xbd6a",
      "effectiveGasPrice": "0x5f5e100",
      "from": "0xe62ab4d111f968660c6b2188046f9b9ba53c4bae",
      "to": "0x54caa31d029e68a605d839d7258f37e946db71e9",
      "contractAddress": null,
      "gasUsedForL1": "0x148",
      "l1BlockNumber": "0x6c464e"
    },
    {
      "status": "0x1",
      "cumulativeGasUsed": "0xbd81",
      "logs": [],
      "logsBloom": "0x00000000000000000000000000000000000000000000000000000000000000000000000000000000000000000000000000000000000000000000000000000000000000000000000000000000000000000000000000000000000000000000000000000000000000000000000000000000000000000000000000000000000000000000000000000000000000000000000000000000000000000000000000000000000000000000000000000000000000000000000000000000000000000000000000000000000000000000000000000000000000000000000000000000000000000000000000000000000000000000000000000000000000000000000000000000",
      "type": "0x2",
      "transactionHash": "0xda5c6b09bb9e10bd9aa61601e5657795f2f09cc1fd4414961fa1d92a6e4b4ebc",
      "transactionIndex": "0x1",
      "blockHash": "0xe661b2e4df68306fc1682f7590cde791d9e00ecc7730107de5afa06f6af41a82",
      "blockNumber": "0x5d97cbc",
      "gasUsed": "0xbd81",
      "effectiveGasPrice": "0x5f5e100",
      "from": "0xe62ab4d111f968660c6b2188046f9b9ba53c4bae",
      "to": "0x54caa31d029e68a605d839d7258f37e946db71e9",
      "contractAddress": null,
      "gasUsedForL1": "0x148",
      "l1BlockNumber": "0x6c464e"
    },
    {
      "status": "0x1",
      "cumulativeGasUsed": "0xbd98",
      "logs": [],
      "logsBloom": "0x00000000000000000000000000000000000000000000000000000000000000000000000000000000000000000000000000000000000000000000000000000000000000000000000000000000000000000000000000000000000000000000000000000000000000000000000000000000000000000000000000000000000000000000000000000000000000000000000000000000000000000000000000000000000000000000000000000000000000000000000000000000000000000000000000000000000000000000000000000000000000000000000000000000000000000000000000000000000000000000000000000000000000000000000000000000",
      "type": "0x2",
      "transactionHash": "0xa8882d1b4adc0f1dd1fd7abac03c0b305c4110713afcc4d4dbfecb0b76063d14",
      "transactionIndex": "0x1",
      "blockHash": "0x89933ee379e95b90c2b8ff3f6766039c9b36501a607082f15d5c4902c4d16a22",
      "blockNumber": "0x5d97cc5",
      "gasUsed": "0xbd98",
      "effectiveGasPrice": "0x5f5e100",
      "from": "0xe62ab4d111f968660c6b2188046f9b9ba53c4bae",
      "to": "0x54caa31d029e68a605d839d7258f37e946db71e9",
      "contractAddress": null,
      "gasUsedForL1": "0x148",
      "l1BlockNumber": "0x6c464e"
    },
    {
      "status": "0x1",
      "cumulativeGasUsed": "0xbdaf",
      "logs": [],
      "logsBloom": "0x00000000000000000000000000000000000000000000000000000000000000000000000000000000000000000000000000000000000000000000000000000000000000000000000000000000000000000000000000000000000000000000000000000000000000000000000000000000000000000000000000000000000000000000000000000000000000000000000000000000000000000000000000000000000000000000000000000000000000000000000000000000000000000000000000000000000000000000000000000000000000000000000000000000000000000000000000000000000000000000000000000000000000000000000000000000",
      "type": "0x2",
      "transactionHash": "0x9033314ca6334b6aace3ff8cbbd75ad51ce500c418f23b1a9b3b36c84b60df72",
      "transactionIndex": "0x1",
      "blockHash": "0xd4598fe3d73cdd95f79d47a2c1d88bb5fb8c7bf2b5712c53bea64bd63c0d8dd1",
      "blockNumber": "0x5d97ccf",
      "gasUsed": "0xbdaf",
      "effectiveGasPrice": "0x5f5e100",
      "from": "0xe62ab4d111f968660c6b2188046f9b9ba53c4bae",
      "to": "0x54caa31d029e68a605d839d7258f37e946db71e9",
      "contractAddress": null,
      "gasUsedForL1": "0x148",
      "l1BlockNumber": "0x6c464e"
    },
    {
      "status": "0x1",
      "cumulativeGasUsed": "0x1379b",
      "logs": [],
      "logsBloom": "0x00000000000000000000000000000000000000000000000000000000000000000000000000000000000000000000000000000000000000000000000000000000000000000000000000000000000000000000000000000000000000000000000000000000000000000000000000000000000000000000000000000000000000000000000000000000000000000000000000000000000000000000000000000000000000000000000000000000000000000000000000000000000000000000000000000000000000000000000000000000000000000000000000000000000000000000000000000000000000000000000000000000000000000000000000000000",
      "type": "0x2",
      "transactionHash": "0x87e02c616d3846e8711da361010c3bd094f247dd37c3ce2ae180e685071d76e8",
      "transactionIndex": "0x2",
      "blockHash": "0x22697c78c1d4436346d2f1708a351616612382885e4f4fd75448b40bdc2d5c4f",
      "blockNumber": "0x5d97cd8",
      "gasUsed": "0xbdc6",
      "effectiveGasPrice": "0x5f5e100",
      "from": "0xe62ab4d111f968660c6b2188046f9b9ba53c4bae",
      "to": "0x54caa31d029e68a605d839d7258f37e946db71e9",
      "contractAddress": null,
      "gasUsedForL1": "0x148",
      "l1BlockNumber": "0x6c464e"
    },
    {
      "status": "0x1",
      "cumulativeGasUsed": "0xbddd",
      "logs": [],
      "logsBloom": "0x00000000000000000000000000000000000000000000000000000000000000000000000000000000000000000000000000000000000000000000000000000000000000000000000000000000000000000000000000000000000000000000000000000000000000000000000000000000000000000000000000000000000000000000000000000000000000000000000000000000000000000000000000000000000000000000000000000000000000000000000000000000000000000000000000000000000000000000000000000000000000000000000000000000000000000000000000000000000000000000000000000000000000000000000000000000",
      "type": "0x2",
      "transactionHash": "0x4c4ca3cf33a17c475e4b31174fd9e06f2a03a04877e52c0efaa5275b6049a8ae",
      "transactionIndex": "0x1",
      "blockHash": "0x62a9bbc738570eabebfe09586840ed446bf88f091a97d9a2fc3b08ce330afe7e",
      "blockNumber": "0x5d97cdd",
      "gasUsed": "0xbddd",
      "effectiveGasPrice": "0x5f5e100",
      "from": "0xe62ab4d111f968660c6b2188046f9b9ba53c4bae",
      "to": "0x54caa31d029e68a605d839d7258f37e946db71e9",
      "contractAddress": null,
      "gasUsedForL1": "0x148",
      "l1BlockNumber": "0x6c464e"
    },
    {
      "status": "0x1",
      "cumulativeGasUsed": "0x5c95b",
      "logs": [],
      "logsBloom": "0x00000000000000000000000000000000000000000000000000000000000000000000000000000000000000000000000000000000000000000000000000000000000000000000000000000000000000000000000000000000000000000000000000000000000000000000000000000000000000000000000000000000000000000000000000000000000000000000000000000000000000000000000000000000000000000000000000000000000000000000000000000000000000000000000000000000000000000000000000000000000000000000000000000000000000000000000000000000000000000000000000000000000000000000000000000000",
      "type": "0x2",
      "transactionHash": "0x2c8afed259709cd23b1c725d4051ac9f68297192626c191f6e82fd2dd2a92e48",
      "transactionIndex": "0x4",
      "blockHash": "0xaddc8a67c05162d152d9cb104e495bc5abbbd104b9cf5868a3829b26c16af386",
      "blockNumber": "0x5d97ce5",
      "gasUsed": "0xbdf4",
      "effectiveGasPrice": "0x5f5e100",
      "from": "0xe62ab4d111f968660c6b2188046f9b9ba53c4bae",
      "to": "0x54caa31d029e68a605d839d7258f37e946db71e9",
      "contractAddress": null,
      "gasUsedForL1": "0x148",
      "l1BlockNumber": "0x6c464f"
    },
    {
      "status": "0x1",
      "cumulativeGasUsed": "0xbe0b",
      "logs": [],
      "logsBloom": "0x00000000000000000000000000000000000000000000000000000000000000000000000000000000000000000000000000000000000000000000000000000000000000000000000000000000000000000000000000000000000000000000000000000000000000000000000000000000000000000000000000000000000000000000000000000000000000000000000000000000000000000000000000000000000000000000000000000000000000000000000000000000000000000000000000000000000000000000000000000000000000000000000000000000000000000000000000000000000000000000000000000000000000000000000000000000",
      "type": "0x2",
      "transactionHash": "0x8b9e69bf8d0b3c913fa8ddde802f4365afce4ad24ee91615d4d47ea5f5875206",
      "transactionIndex": "0x1",
      "blockHash": "0xcd50e0319f3a62499a5a50d8f90b5add034620b18574c4daf559fbbcc4c9dd92",
      "blockNumber": "0x5d97ced",
      "gasUsed": "0xbe0b",
      "effectiveGasPrice": "0x5f5e100",
      "from": "0xe62ab4d111f968660c6b2188046f9b9ba53c4bae",
      "to": "0x54caa31d029e68a605d839d7258f37e946db71e9",
      "contractAddress": null,
      "gasUsedForL1": "0x148",
      "l1BlockNumber": "0x6c464f"
    },
    {
      "status": "0x1",
      "cumulativeGasUsed": "0x14531",
      "logs": [],
      "logsBloom": "0x00000000000000000000000000000000000000000000000000000000000000000000000000000000000000000000000000000000000000000000000000000000000000000000000000000000000000000000000000000000000000000000000000000000000000000000000000000000000000000000000000000000000000000000000000000000000000000000000000000000000000000000000000000000000000000000000000000000000000000000000000000000000000000000000000000000000000000000000000000000000000000000000000000000000000000000000000000000000000000000000000000000000000000000000000000000",
      "type": "0x2",
      "transactionHash": "0xffdd8c0dcc62072551122feb0d485cb709f1fac909a135922a3baec458d542b2",
      "transactionIndex": "0x2",
      "blockHash": "0xe7a3d5e0203b5ac8ab2c7acd7da23ca395fd3936dcea3eff9408ececa705a2d5",
      "blockNumber": "0x5d97cf5",
      "gasUsed": "0xbe22",
      "effectiveGasPrice": "0x5f5e100",
      "from": "0xe62ab4d111f968660c6b2188046f9b9ba53c4bae",
      "to": "0x54caa31d029e68a605d839d7258f37e946db71e9",
      "contractAddress": null,
      "gasUsedForL1": "0x148",
      "l1BlockNumber": "0x6c464f"
    },
    {
      "status": "0x1",
      "cumulativeGasUsed": "0x3f316",
      "logs": [],
      "logsBloom": "0x00000000000000000000000000000000000000000000000000000000000000000000000000000000000000000000000000000000000000000000000000000000000000000000000000000000000000000000000000000000000000000000000000000000000000000000000000000000000000000000000000000000000000000000000000000000000000000000000000000000000000000000000000000000000000000000000000000000000000000000000000000000000000000000000000000000000000000000000000000000000000000000000000000000000000000000000000000000000000000000000000000000000000000000000000000000",
      "type": "0x2",
      "transactionHash": "0x032e358ddade851438e25a1c6c4f0a848594cb605631620b753910519065884c",
      "transactionIndex": "0x2",
      "blockHash": "0x4931885dc947472ba6c0827d0e93f622acdae9fdda8016495574c8f066199058",
      "blockNumber": "0x5d97cfe",
      "gasUsed": "0xbe39",
      "effectiveGasPrice": "0x5f5e100",
      "from": "0xe62ab4d111f968660c6b2188046f9b9ba53c4bae",
      "to": "0x54caa31d029e68a605d839d7258f37e946db71e9",
      "contractAddress": null,
      "gasUsedForL1": "0x148",
      "l1BlockNumber": "0x6c464f"
    },
    {
      "status": "0x1",
      "cumulativeGasUsed": "0xbe50",
      "logs": [],
      "logsBloom": "0x00000000000000000000000000000000000000000000000000000000000000000000000000000000000000000000000000000000000000000000000000000000000000000000000000000000000000000000000000000000000000000000000000000000000000000000000000000000000000000000000000000000000000000000000000000000000000000000000000000000000000000000000000000000000000000000000000000000000000000000000000000000000000000000000000000000000000000000000000000000000000000000000000000000000000000000000000000000000000000000000000000000000000000000000000000000",
      "type": "0x2",
      "transactionHash": "0x1200dc3139d232951e9161a3672329ad988addbf92f7bb317561f51dee8cb787",
      "transactionIndex": "0x1",
      "blockHash": "0x29714525c1303fc90d31c93d0f619bea78cdd42710233924d5e12fc48b99e97f",
      "blockNumber": "0x5d97d07",
      "gasUsed": "0xbe50",
      "effectiveGasPrice": "0x5f5e100",
      "from": "0xe62ab4d111f968660c6b2188046f9b9ba53c4bae",
      "to": "0x54caa31d029e68a605d839d7258f37e946db71e9",
      "contractAddress": null,
      "gasUsedForL1": "0x148",
      "l1BlockNumber": "0x6c464f"
    },
    {
      "status": "0x1",
      "cumulativeGasUsed": "0x80bb1",
      "logs": [],
      "logsBloom": "0x00000000000000000000000000000000000000000000000000000000000000000000000000000000000000000000000000000000000000000000000000000000000000000000000000000000000000000000000000000000000000000000000000000000000000000000000000000000000000000000000000000000000000000000000000000000000000000000000000000000000000000000000000000000000000000000000000000000000000000000000000000000000000000000000000000000000000000000000000000000000000000000000000000000000000000000000000000000000000000000000000000000000000000000000000000000",
      "type": "0x2",
      "transactionHash": "0x35e2af3b1a1618640a8041d71d5e545c7972e0f84f80d73a3943911dd7dd1a91",
      "transactionIndex": "0x6",
      "blockHash": "0xf6668c21d42c26cedaea7c97b3db0ce43b2b4ae624af234d7d29c05d8b6ca72b",
      "blockNumber": "0x5d97d0e",
      "gasUsed": "0xbe67",
      "effectiveGasPrice": "0x5f5e100",
      "from": "0xe62ab4d111f968660c6b2188046f9b9ba53c4bae",
      "to": "0x54caa31d029e68a605d839d7258f37e946db71e9",
      "contractAddress": null,
      "gasUsedForL1": "0x148",
      "l1BlockNumber": "0x6c464f"
    },
    {
      "status": "0x1",
      "cumulativeGasUsed": "0xbe7e",
      "logs": [],
      "logsBloom": "0x00000000000000000000000000000000000000000000000000000000000000000000000000000000000000000000000000000000000000000000000000000000000000000000000000000000000000000000000000000000000000000000000000000000000000000000000000000000000000000000000000000000000000000000000000000000000000000000000000000000000000000000000000000000000000000000000000000000000000000000000000000000000000000000000000000000000000000000000000000000000000000000000000000000000000000000000000000000000000000000000000000000000000000000000000000000",
      "type": "0x2",
      "transactionHash": "0x0950d47ba653dbc8879b886f6f8f9483e2b33aebab52599550d298ea4d238c31",
      "transactionIndex": "0x1",
      "blockHash": "0xd18f02a31475e65cad2a39f1a879ed238e34c46f890a34ce43eb8cb672fdf3ec",
      "blockNumber": "0x5d97d17",
      "gasUsed": "0xbe7e",
      "effectiveGasPrice": "0x5f5e100",
      "from": "0xe62ab4d111f968660c6b2188046f9b9ba53c4bae",
      "to": "0x54caa31d029e68a605d839d7258f37e946db71e9",
      "contractAddress": null,
      "gasUsedForL1": "0x148",
      "l1BlockNumber": "0x6c4650"
    },
    {
      "status": "0x1",
      "cumulativeGasUsed": "0xbe95",
      "logs": [],
      "logsBloom": "0x00000000000000000000000000000000000000000000000000000000000000000000000000000000000000000000000000000000000000000000000000000000000000000000000000000000000000000000000000000000000000000000000000000000000000000000000000000000000000000000000000000000000000000000000000000000000000000000000000000000000000000000000000000000000000000000000000000000000000000000000000000000000000000000000000000000000000000000000000000000000000000000000000000000000000000000000000000000000000000000000000000000000000000000000000000000",
      "type": "0x2",
      "transactionHash": "0x76cf386051007015554af916ae34d4e5e47e8abbc68ac705ecdb74d6c20a3536",
      "transactionIndex": "0x1",
      "blockHash": "0x0301ab8f518295ec14869216c9b49f67952505246c3dfad4b6abcac6c03eb13e",
      "blockNumber": "0x5d97d1f",
      "gasUsed": "0xbe95",
      "effectiveGasPrice": "0x5f5e100",
      "from": "0xe62ab4d111f968660c6b2188046f9b9ba53c4bae",
      "to": "0x54caa31d029e68a605d839d7258f37e946db71e9",
      "contractAddress": null,
      "gasUsedForL1": "0x148",
      "l1BlockNumber": "0x6c4650"
    },
    {
      "status": "0x1",
      "cumulativeGasUsed": "0x82655",
      "logs": [],
      "logsBloom": "0x00000000000000000000000000000000000000000000000000000000000000000000000000000000000000000000000000000000000000000000000000000000000000000000000000000000000000000000000000000000000000000000000000000000000000000000000000000000000000000000000000000000000000000000000000000000000000000000000000000000000000000000000000000000000000000000000000000000000000000000000000000000000000000000000000000000000000000000000000000000000000000000000000000000000000000000000000000000000000000000000000000000000000000000000000000000",
      "type": "0x2",
      "transactionHash": "0xf4e9dd6d806c337f808268695915472960bb01d8c97f8012e086847e1512e59b",
      "transactionIndex": "0x4",
      "blockHash": "0xa43f7dc53550d1258cacc7a0123b606467888cf1ae0e23a973039d53d82dc16e",
      "blockNumber": "0x5d97d28",
      "gasUsed": "0xbea7",
      "effectiveGasPrice": "0x5f5e100",
      "from": "0xe62ab4d111f968660c6b2188046f9b9ba53c4bae",
      "to": "0x54caa31d029e68a605d839d7258f37e946db71e9",
      "contractAddress": null,
      "gasUsedForL1": "0x148",
      "l1BlockNumber": "0x6c4650"
    },
    {
      "status": "0x1",
      "cumulativeGasUsed": "0x2214a",
      "logs": [],
      "logsBloom": "0x00000000000000000000000000000000000000000000000000000000000000000000000000000000000000000000000000000000000000000000000000000000000000000000000000000000000000000000000000000000000000000000000000000000000000000000000000000000000000000000000000000000000000000000000000000000000000000000000000000000000000000000000000000000000000000000000000000000000000000000000000000000000000000000000000000000000000000000000000000000000000000000000000000000000000000000000000000000000000000000000000000000000000000000000000000000",
      "type": "0x2",
      "transactionHash": "0xa9869f52e19aa829e8e27383189cf7aaa0c59bb4b256ebb7e6523650469f3e28",
      "transactionIndex": "0x1",
      "blockHash": "0xf4bc1d852034f35f0639feb6320dc5de09d3b4cdd3b6bf16ef51e4e8ff3f819a",
      "blockNumber": "0x5d97d30",
      "gasUsed": "0x2214a",
      "effectiveGasPrice": "0x5f5e100",
      "from": "0xe62ab4d111f968660c6b2188046f9b9ba53c4bae",
      "to": "0x54caa31d029e68a605d839d7258f37e946db71e9",
      "contractAddress": null,
      "gasUsedForL1": "0x21c",
      "l1BlockNumber": "0x6c4650"
    },
    {
      "status": "0x1",
      "cumulativeGasUsed": "0x1e4cf",
      "logs": [],
      "logsBloom": "0x00000000000000000000000000000000000000000000000000000000000000000000000000000000000000000000000000000000000000000000000000000000000000000000000000000000000000000000000000000000000000000000000000000000000000000000000000000000000000000000000000000000000000000000000000000000000000000000000000000000000000000000000000000000000000000000000000000000000000000000000000000000000000000000000000000000000000000000000000000000000000000000000000000000000000000000000000000000000000000000000000000000000000000000000000000000",
      "type": "0x2",
      "transactionHash": "0xa44220cbecc9d23d0960ed506d00de605a768f541dc45a601f5f46854f1ab340",
      "transactionIndex": "0x1",
      "blockHash": "0x98b9ba92960237767af30ee662877afe1ffee135a278707070af5f26759ccf48",
      "blockNumber": "0x5d97d39",
      "gasUsed": "0x1e4cf",
      "effectiveGasPrice": "0x5f5e100",
      "from": "0xe62ab4d111f968660c6b2188046f9b9ba53c4bae",
      "to": "0x54caa31d029e68a605d839d7258f37e946db71e9",
      "contractAddress": null,
      "gasUsedForL1": "0x221",
      "l1BlockNumber": "0x6c4650"
    },
    {
      "status": "0x1",
      "cumulativeGasUsed": "0x6ce8e",
      "logs": [],
      "logsBloom": "0x00000000000000000000000000000000000000000000000000000000000000000000000000000000000000000000000000000000000000000000000000000000000000000000000000000000000000000000000000000000000000000000000000000000000000000000000000000000000000000000000000000000000000000000000000000000000000000000000000000000000000000000000000000000000000000000000000000000000000000000000000000000000000000000000000000000000000000000000000000000000000000000000000000000000000000000000000000000000000000000000000000000000000000000000000000000",
      "type": "0x2",
      "transactionHash": "0x682efdc836a41ff3ee4290e25012bb501ee9b9b0a660ee86de74675ec6c270dd",
      "transactionIndex": "0x3",
      "blockHash": "0x7db86837b61673c1f15c52a51724d4c32780681e618397f11efab0263fcbe050",
      "blockNumber": "0x5d97d42",
      "gasUsed": "0x247fa",
      "effectiveGasPrice": "0x5f5e100",
      "from": "0xe62ab4d111f968660c6b2188046f9b9ba53c4bae",
      "to": "0x6aff0df7a17477f76f2cc927a50571a23a4a3b1f",
      "contractAddress": null,
      "gasUsedForL1": "0x1fd",
      "l1BlockNumber": "0x6c4650"
    },
    {
      "status": "0x1",
      "cumulativeGasUsed": "0x5df55",
      "logs": [],
      "logsBloom": "0x00000000000000000000000000000000000000000000000000000000000000000000000000000000000000000000000000000000000000000000000000000000000000000000000000000000000000000000000000000000000000000000000000000000000000000000000000000000000000000000000000000000000000000000000000000000000000000000000000000000000000000000000000000000000000000000000000000000000000000000000000000000000000000000000000000000000000000000000000000000000000000000000000000000000000000000000000000000000000000000000000000000000000000000000000000000",
      "type": "0x2",
      "transactionHash": "0xc644a69bea342072bc4e6945f8c11a7b761b909ca8f6144d8e708089484eee91",
      "transactionIndex": "0x2",
      "blockHash": "0xefa2c58dbb1da72b89736f35b4965e493df7b50457734a36a40fd2be75ee2f76",
      "blockNumber": "0x5d97d4b",
      "gasUsed": "0x443dc",
      "effectiveGasPrice": "0x5f5e100",
      "from": "0xe62ab4d111f968660c6b2188046f9b9ba53c4bae",
      "to": "0x6aff0df7a17477f76f2cc927a50571a23a4a3b1f",
      "contractAddress": null,
      "gasUsedForL1": "0x260",
      "l1BlockNumber": "0x6c4651"
    },
    {
      "status": "0x1",
      "cumulativeGasUsed": "0x441b3",
      "logs": [],
      "logsBloom": "0x00000000000000000000000000000000000000000000000000000000000000000000000000000000000000000000000000000000000000000000000000000000000000000000000000000000000000000000000000000000000000000000000000000000000000000000000000000000000000000000000000000000000000000000000000000000000000000000000000000000000000000000000000000000000000000000000000000000000000000000000000000000000000000000000000000000000000000000000000000000000000000000000000000000000000000000000000000000000000000000000000000000000000000000000000000000",
      "type": "0x2",
      "transactionHash": "0xbf858cf341f8fbc7d1a50098f8692b5720657989c2d354d37f522a734ab2de80",
      "transactionIndex": "0x1",
      "blockHash": "0x7a7e2bcd13c6366263d6f4e52944721271c6addad9159d226f3b7dc19f5259e9",
      "blockNumber": "0x5d97d53",
      "gasUsed": "0x441b3",
      "effectiveGasPrice": "0x5f5e100",
      "from": "0xe62ab4d111f968660c6b2188046f9b9ba53c4bae",
      "to": "0x6aff0df7a17477f76f2cc927a50571a23a4a3b1f",
      "contractAddress": null,
      "gasUsedForL1": "0x25a",
      "l1BlockNumber": "0x6c4651"
    }
  ],
  "libraries": [],
  "pending": [],
  "returns": {},
  "timestamp": 1731851225,
  "chain": 421614,
  "commit": "b96f5048"
}