{
  "transactions": [
    {
      "hash": "0x66941362ba1ebab6a6ef4c16aaa2bda17e2ec4bab78f9904c3221e90833a87fb",
      "transactionType": "CALL",
      "contractName": null,
      "contractAddress": "0xbab5ec2802257958d3f3a34dce2f7aa65eac922d",
      "function": "addChainContract(string[],string[])",
      "arguments": [
        "[59141, 78600, 2484]",
        "[0x41543a4c6423e2546fc58ac63117b5692d68c323, 0x06edc167555ceb6038e2c6b3bed7a47c628f2eed, 0x16b049e17b49c5dc1d8598b53593d4497c858c9a]"
      ],
      "transaction": {
        "from": "0xe62ab4d111f968660c6b2188046f9b9ba53c4bae",
        "to": "0xbab5ec2802257958d3f3a34dce2f7aa65eac922d",
        "gas": "0xb31b1",
        "value": "0x0",
        "input": "0x013fd3bd000000000000000000000000000000000000000000000000000000000000004000000000000000000000000000000000000000000000000000000000000001800000000000000000000000000000000000000000000000000000000000000003000000000000000000000000000000000000000000000000000000000000006000000000000000000000000000000000000000000000000000000000000000a000000000000000000000000000000000000000000000000000000000000000e00000000000000000000000000000000000000000000000000000000000000005353931343100000000000000000000000000000000000000000000000000000000000000000000000000000000000000000000000000000000000000000000053738363030000000000000000000000000000000000000000000000000000000000000000000000000000000000000000000000000000000000000000000000432343834000000000000000000000000000000000000000000000000000000000000000000000000000000000000000000000000000000000000000000000003000000000000000000000000000000000000000000000000000000000000006000000000000000000000000000000000000000000000000000000000000000c00000000000000000000000000000000000000000000000000000000000000120000000000000000000000000000000000000000000000000000000000000002a30783431353433613463363432336532353436666335386163363331313762353639326436386333323300000000000000000000000000000000000000000000000000000000000000000000000000000000000000000000000000000000002a30783036656463313637353535636562363033386532633662336265643761343763363238663265656400000000000000000000000000000000000000000000000000000000000000000000000000000000000000000000000000000000002a30783136623034396531376234396335646331643835393862353335393364343439376338353863396100000000000000000000000000000000000000000000",
        "nonce": "0x7e9",
        "chainId": "0x66eee"
      },
      "additionalContracts": [],
      "isFixedGasLimit": false
    },
    {
      "hash": "0x6d14f4bb42f0e77d03e38a458ea2fc64f24b5f7b27f8869355022ef88dd3f460",
      "transactionType": "CALL",
      "contractName": null,
      "contractAddress": "0xbab5ec2802257958d3f3a34dce2f7aa65eac922d",
      "function": "attachRWAX(uint256,uint256,string[],string[])",
      "arguments": [
        "1",
        "1",
        "[59141, 78600, 2484]",
        "[0x969035b34b913c507b87fd805fff608fb1fe13f0, 0x282eccb80074e9ab23ea5d28bd795c0bba3726a6, 0xfc63dc90296800c67cbb96330238fc17fbd674a2]"
      ],
      "transaction": {
        "from": "0xe62ab4d111f968660c6b2188046f9b9ba53c4bae",
        "to": "0xbab5ec2802257958d3f3a34dce2f7aa65eac922d",
        "gas": "0xd02ef",
        "value": "0x0",
        "input": "0x33a5f5b400000000000000000000000000000000000000000000000000000000000000010000000000000000000000000000000000000000000000000000000000000001000000000000000000000000000000000000000000000000000000000000008000000000000000000000000000000000000000000000000000000000000001c00000000000000000000000000000000000000000000000000000000000000003000000000000000000000000000000000000000000000000000000000000006000000000000000000000000000000000000000000000000000000000000000a000000000000000000000000000000000000000000000000000000000000000e00000000000000000000000000000000000000000000000000000000000000005353931343100000000000000000000000000000000000000000000000000000000000000000000000000000000000000000000000000000000000000000000053738363030000000000000000000000000000000000000000000000000000000000000000000000000000000000000000000000000000000000000000000000432343834000000000000000000000000000000000000000000000000000000000000000000000000000000000000000000000000000000000000000000000003000000000000000000000000000000000000000000000000000000000000006000000000000000000000000000000000000000000000000000000000000000c00000000000000000000000000000000000000000000000000000000000000120000000000000000000000000000000000000000000000000000000000000002a30783936393033356233346239313363353037623837666438303566666636303866623166653133663000000000000000000000000000000000000000000000000000000000000000000000000000000000000000000000000000000000002a30783238326563636238303037346539616232336561356432386264373935633062626133373236613600000000000000000000000000000000000000000000000000000000000000000000000000000000000000000000000000000000002a30786663363364633930323936383030633637636262393633333032333866633137666264363734613200000000000000000000000000000000000000000000",
        "nonce": "0x7ea",
        "chainId": "0x66eee"
      },
      "additionalContracts": [],
      "isFixedGasLimit": false
    },
    {
      "hash": "0x155d7e4d43e4477c2137e2a0311d3afe0ac1c79f31d62aa0b8e9b2d42ae8a2e1",
      "transactionType": "CALL",
      "contractName": null,
      "contractAddress": "0xbab5ec2802257958d3f3a34dce2f7aa65eac922d",
      "function": "attachStorageManager(uint256,uint256,string[],string[])",
      "arguments": [
        "1",
        "1",
        "[59141, 78600, 2484]",
        "[0x20b88eba092c4ceb11e88f92abe1c01bc7fe7234, 0x8393181277c8a85ec0468b3f1ee61bbfd78e62b4, 0xc74d2556d610f886b55653faffddf4bd0c1605b6]"
      ],
      "transaction": {
        "from": "0xe62ab4d111f968660c6b2188046f9b9ba53c4bae",
        "to": "0xbab5ec2802257958d3f3a34dce2f7aa65eac922d",
        "gas": "0xb8889",
        "value": "0x0",
        "input": "0x2f68b48900000000000000000000000000000000000000000000000000000000000000010000000000000000000000000000000000000000000000000000000000000001000000000000000000000000000000000000000000000000000000000000008000000000000000000000000000000000000000000000000000000000000001c00000000000000000000000000000000000000000000000000000000000000003000000000000000000000000000000000000000000000000000000000000006000000000000000000000000000000000000000000000000000000000000000a000000000000000000000000000000000000000000000000000000000000000e00000000000000000000000000000000000000000000000000000000000000005353931343100000000000000000000000000000000000000000000000000000000000000000000000000000000000000000000000000000000000000000000053738363030000000000000000000000000000000000000000000000000000000000000000000000000000000000000000000000000000000000000000000000432343834000000000000000000000000000000000000000000000000000000000000000000000000000000000000000000000000000000000000000000000003000000000000000000000000000000000000000000000000000000000000006000000000000000000000000000000000000000000000000000000000000000c00000000000000000000000000000000000000000000000000000000000000120000000000000000000000000000000000000000000000000000000000000002a30783230623838656261303932633463656231316538386639326162653163303162633766653732333400000000000000000000000000000000000000000000000000000000000000000000000000000000000000000000000000000000002a30783833393331383132373763386138356563303436386233663165653631626266643738653632623400000000000000000000000000000000000000000000000000000000000000000000000000000000000000000000000000000000002a30786337346432353536643631306638383662353536353366616666646466346264306331363035623600000000000000000000000000000000000000000000",
        "nonce": "0x7eb",
        "chainId": "0x66eee"
      },
      "additionalContracts": [],
      "isFixedGasLimit": false
    },
    {
      "hash": "0x480b393c06455641bd68491f0fbfcdafeed4f47b67b671e7c487de67379649f1",
      "transactionType": "CALL",
      "contractName": null,
      "contractAddress": "0xbab5ec2802257958d3f3a34dce2f7aa65eac922d",
      "function": "attachSentryManager(uint256,uint256,string[],string[])",
      "arguments": [
        "1",
        "1",
        "[59141, 78600, 2484]",
        "[0xe569c146b0d4c1c941607b5c6a648b5877ae29ef, 0xac71dcf325724594525cc05552bee7d6550a80fd, 0xdbd55d95d447e363251592a8ff573bbf16c2cb68]"
      ],
      "transaction": {
        "from": "0xe62ab4d111f968660c6b2188046f9b9ba53c4bae",
        "to": "0xbab5ec2802257958d3f3a34dce2f7aa65eac922d",
        "gas": "0xb87ed",
        "value": "0x0",
        "input": "0x349de79700000000000000000000000000000000000000000000000000000000000000010000000000000000000000000000000000000000000000000000000000000001000000000000000000000000000000000000000000000000000000000000008000000000000000000000000000000000000000000000000000000000000001c00000000000000000000000000000000000000000000000000000000000000003000000000000000000000000000000000000000000000000000000000000006000000000000000000000000000000000000000000000000000000000000000a000000000000000000000000000000000000000000000000000000000000000e00000000000000000000000000000000000000000000000000000000000000005353931343100000000000000000000000000000000000000000000000000000000000000000000000000000000000000000000000000000000000000000000053738363030000000000000000000000000000000000000000000000000000000000000000000000000000000000000000000000000000000000000000000000432343834000000000000000000000000000000000000000000000000000000000000000000000000000000000000000000000000000000000000000000000003000000000000000000000000000000000000000000000000000000000000006000000000000000000000000000000000000000000000000000000000000000c00000000000000000000000000000000000000000000000000000000000000120000000000000000000000000000000000000000000000000000000000000002a30786535363963313436623064346331633934313630376235633661363438623538373761653239656600000000000000000000000000000000000000000000000000000000000000000000000000000000000000000000000000000000002a30786163373164636633323537323435393435323563633035353532626565376436353530613830666400000000000000000000000000000000000000000000000000000000000000000000000000000000000000000000000000000000002a30786462643535643935643434376533363332353135393261386666353733626266313663326362363800000000000000000000000000000000000000000000",
        "nonce": "0x7ec",
        "chainId": "0x66eee"
      },
      "additionalContracts": [],
      "isFixedGasLimit": false
    }
  ],
  "receipts": [
    {
      "status": "0x1",
      "cumulativeGasUsed": "0xbc513",
      "logs": [],
      "logsBloom": "0x00000000000000000000000000000000000000000000000000000000000000000000000000000000000000000000000000000000000000000000000000000000000000000000000000000000000000000000000000000000000000000000000000000000000000000000000000000000000000000000000000000000000000000000000000000000000000000000000000000000000000000000000000000000000000000000000000000000000000000000000000000000000000000000000000000000000000000000000000000000000000000000000000000000000000000000000000000000000000000000000000000000000000000000000000000000",
      "type": "0x2",
      "transactionHash": "0x66941362ba1ebab6a6ef4c16aaa2bda17e2ec4bab78f9904c3221e90833a87fb",
      "transactionIndex": "0x2",
      "blockHash": "0x1c2212cf724950f3078cb1b8256d79fd24f692d77ccc91dd6f724a2fa0b4720f",
      "blockNumber": "0x7910f6d",
      "gasUsed": "0x86b11",
      "effectiveGasPrice": "0x5f5e100",
      "from": "0xe62ab4d111f968660c6b2188046f9b9ba53c4bae",
      "to": "0xbab5ec2802257958d3f3a34dce2f7aa65eac922d",
      "contractAddress": null,
      "gasUsedForL1": "0x7cfa",
      "l1BlockNumber": "0x76adf3",
      "timeboosted": false
    },
    {
      "status": "0x1",
      "cumulativeGasUsed": "0xb1587",
      "logs": [],
      "logsBloom": "0x00000000000000000000000000000000000000000000000000000000000000000000000000000000000000000000000000000000000000000000000000000000000000000000000000000000000000000000000000000000000000000000000000000000000000000000000000000000000000000000000000000000000000000000000000000000000000000000000000000000000000000000000000000000000000000000000000000000000000000000000000000000000000000000000000000000000000000000000000000000000000000000000000000000000000000000000000000000000000000000000000000000000000000000000000000000",
      "type": "0x2",
      "transactionHash": "0x6d14f4bb42f0e77d03e38a458ea2fc64f24b5f7b27f8869355022ef88dd3f460",
      "transactionIndex": "0x2",
      "blockHash": "0x2e27a8e87f1ba4b03ded42062bdae717a20e03bfbdc71794869fb610a2dd878f",
      "blockNumber": "0x7910f78",
      "gasUsed": "0x9d011",
      "effectiveGasPrice": "0x5f5e100",
      "from": "0xe62ab4d111f968660c6b2188046f9b9ba53c4bae",
      "to": "0xbab5ec2802257958d3f3a34dce2f7aa65eac922d",
      "contractAddress": null,
      "gasUsedForL1": "0x7bb1",
      "l1BlockNumber": "0x76adf4",
      "timeboosted": false
    },
    {
      "status": "0x1",
      "cumulativeGasUsed": "0x8ad4e",
      "logs": [],
      "logsBloom": "0x00000000000000000000000000000000000000000000000000000000000000000000000000000000000000000000000000000000000000000000000000000000000000000000000000000000000000000000000000000000000000000000000000000000000000000000000000000000000000000000000000000000000000000000000000000000000000000000000000000000000000000000000000000000000000000000000000000000000000000000000000000000000000000000000000000000000000000000000000000000000000000000000000000000000000000000000000000000000000000000000000000000000000000000000000000000",
      "type": "0x2",
      "transactionHash": "0x155d7e4d43e4477c2137e2a0311d3afe0ac1c79f31d62aa0b8e9b2d42ae8a2e1",
      "transactionIndex": "0x1",
      "blockHash": "0x92c9be29c0bab095d13ea942a4af3b026ca92fe211a5b029b2b4e039dbca0ba3",
      "blockNumber": "0x7910f7c",
      "gasUsed": "0x8ad4e",
      "effectiveGasPrice": "0x5f5e100",
      "from": "0xe62ab4d111f968660c6b2188046f9b9ba53c4bae",
      "to": "0xbab5ec2802257958d3f3a34dce2f7aa65eac922d",
      "contractAddress": null,
      "gasUsedForL1": "0x7a16",
      "l1BlockNumber": "0x76adf4",
      "timeboosted": false
    },
    {
      "status": "0x1",
      "cumulativeGasUsed": "0x8ac64",
      "logs": [],
      "logsBloom": "0x00000000000000000000000000000000000000000000000000000000000000000000000000000000000000000000000000000000000000000000000000000000000000000000000000000000000000000000000000000000000000000000000000000000000000000000000000000000000000000000000000000000000000000000000000000000000000000000000000000000000000000000000000000000000000000000000000000000000000000000000000000000000000000000000000000000000000000000000000000000000000000000000000000000000000000000000000000000000000000000000000000000000000000000000000000000",
      "type": "0x2",
      "transactionHash": "0x480b393c06455641bd68491f0fbfcdafeed4f47b67b671e7c487de67379649f1",
      "transactionIndex": "0x1",
      "blockHash": "0x07aa34d82ddf0f8e0d3aa98fc7a81682d983a2e6954b2eaac829fc65b819d279",
      "blockNumber": "0x7910f86",
      "gasUsed": "0x8ac64",
      "effectiveGasPrice": "0x5f5e100",
      "from": "0xe62ab4d111f968660c6b2188046f9b9ba53c4bae",
      "to": "0xbab5ec2802257958d3f3a34dce2f7aa65eac922d",
      "contractAddress": null,
      "gasUsedForL1": "0x7b0d",
      "l1BlockNumber": "0x76adf4",
      "timeboosted": false
    }
  ],
  "libraries": [],
  "pending": [],
  "returns": {},
  "timestamp": 1740425574,
  "chain": 421614,
  "commit": "82ab662e"
}