{
  "transactions": [
    {
      "hash": "0x39b865e61857f231f61a8c557ada4ae48172d8f51a64b83612e9292a430c826d",
      "transactionType": "CALL",
      "contractName": null,
      "contractAddress": "0xfa89dd803b8872f991997778d26c74a3aecd9639",
      "function": "addChainContract(string[],string[])",
      "arguments": [
        "[5003, 153]",
        "[0x9dc772b55e95a630031ebe431706d105af01cf03, 0x24a74106195acd7e3e0a8cc17fd44761cc32474a]"
      ],
      "transaction": {
        "from": "0xe62ab4d111f968660c6b2188046f9b9ba53c4bae",
        "to": "0xfa89dd803b8872f991997778d26c74a3aecd9639",
        "gas": "0x39516",
        "value": "0x0",
        "input": "0x013fd3bd0000000000000000000000000000000000000000000000000000000000000040000000000000000000000000000000000000000000000000000000000000012000000000000000000000000000000000000000000000000000000000000000020000000000000000000000000000000000000000000000000000000000000040000000000000000000000000000000000000000000000000000000000000008000000000000000000000000000000000000000000000000000000000000000043530303300000000000000000000000000000000000000000000000000000000000000000000000000000000000000000000000000000000000000000000000331353300000000000000000000000000000000000000000000000000000000000000000000000000000000000000000000000000000000000000000000000002000000000000000000000000000000000000000000000000000000000000004000000000000000000000000000000000000000000000000000000000000000a0000000000000000000000000000000000000000000000000000000000000002a30783964633737326235356539356136333030333165626534333137303664313035616630316366303300000000000000000000000000000000000000000000000000000000000000000000000000000000000000000000000000000000002a30783234613734313036313935616364376533653061386363313766643434373631636333323437346100000000000000000000000000000000000000000000",
        "nonce": "0xd33",
        "chainId": "0x66eee"
      },
      "additionalContracts": [],
      "isFixedGasLimit": false
    },
    {
      "hash": "0x01f35da3bafc68b73612904a8c3a8e28eb333f66061bde93bc6794c7b312cdb9",
      "transactionType": "CALL",
      "contractName": null,
      "contractAddress": "0xfa89dd803b8872f991997778d26c74a3aecd9639",
      "function": "attachRWAX(uint256,uint256,string[],string[])",
      "arguments": [
        "1",
        "1",
        "[5003, 153]",
        "[0xad49cabd336f943a9c350b9ed60680c54fa2c3d1, 0x41388451eca7344136004d29a813dcee49577b44]"
      ],
      "transaction": {
        "from": "0xe62ab4d111f968660c6b2188046f9b9ba53c4bae",
        "to": "0xfa89dd803b8872f991997778d26c74a3aecd9639",
        "gas": "0x3bff1",
        "value": "0x0",
        "input": "0x33a5f5b4000000000000000000000000000000000000000000000000000000000000000100000000000000000000000000000000000000000000000000000000000000010000000000000000000000000000000000000000000000000000000000000080000000000000000000000000000000000000000000000000000000000000016000000000000000000000000000000000000000000000000000000000000000020000000000000000000000000000000000000000000000000000000000000040000000000000000000000000000000000000000000000000000000000000008000000000000000000000000000000000000000000000000000000000000000043530303300000000000000000000000000000000000000000000000000000000000000000000000000000000000000000000000000000000000000000000000331353300000000000000000000000000000000000000000000000000000000000000000000000000000000000000000000000000000000000000000000000002000000000000000000000000000000000000000000000000000000000000004000000000000000000000000000000000000000000000000000000000000000a0000000000000000000000000000000000000000000000000000000000000002a30786164343963616264333336663934336139633335306239656436303638306335346661326333643100000000000000000000000000000000000000000000000000000000000000000000000000000000000000000000000000000000002a30783431333838343531656361373334343133363030346432396138313364636565343935373762343400000000000000000000000000000000000000000000",
        "nonce": "0xd34",
        "chainId": "0x66eee"
      },
      "additionalContracts": [],
      "isFixedGasLimit": false
    },
    {
      "hash": "0x5861119d172f1abeab77f4be61c0df2338b6e4a2587c8f6bc7ab16795803a7da",
      "transactionType": "CALL",
      "contractName": null,
      "contractAddress": "0xfa89dd803b8872f991997778d26c74a3aecd9639",
      "function": "attachStorageManager(uint256,uint256,string[],string[])",
      "arguments": [
        "1",
        "1",
        "[5003, 153]",
        "[0xede597aa066e6d7bc84bf586c494735deb7dde9f, 0x74972e7ff5561bd902e3ec3ddd5a22653088ca6f]"
      ],
      "transaction": {
        "from": "0xe62ab4d111f968660c6b2188046f9b9ba53c4bae",
        "to": "0xfa89dd803b8872f991997778d26c74a3aecd9639",
        "gas": "0x3c3aa",
        "value": "0x0",
        "input": "0x2f68b489000000000000000000000000000000000000000000000000000000000000000100000000000000000000000000000000000000000000000000000000000000010000000000000000000000000000000000000000000000000000000000000080000000000000000000000000000000000000000000000000000000000000016000000000000000000000000000000000000000000000000000000000000000020000000000000000000000000000000000000000000000000000000000000040000000000000000000000000000000000000000000000000000000000000008000000000000000000000000000000000000000000000000000000000000000043530303300000000000000000000000000000000000000000000000000000000000000000000000000000000000000000000000000000000000000000000000331353300000000000000000000000000000000000000000000000000000000000000000000000000000000000000000000000000000000000000000000000002000000000000000000000000000000000000000000000000000000000000004000000000000000000000000000000000000000000000000000000000000000a0000000000000000000000000000000000000000000000000000000000000002a30786564653539376161303636653664376263383462663538366334393437333564656237646465396600000000000000000000000000000000000000000000000000000000000000000000000000000000000000000000000000000000002a30783734393732653766663535363162643930326533656333646464356132323635333038386361366600000000000000000000000000000000000000000000",
        "nonce": "0xd35",
        "chainId": "0x66eee"
      },
      "additionalContracts": [],
      "isFixedGasLimit": false
    },
    {
      "hash": "0x4581fba8b42cac7430aac7dccce481d5bf38e70d9d09805ecf2a4f2f89b9e893",
      "transactionType": "CALL",
      "contractName": null,
      "contractAddress": "0xfa89dd803b8872f991997778d26c74a3aecd9639",
      "function": "attachSentryManager(uint256,uint256,string[],string[])",
      "arguments": [
        "1",
        "1",
        "[5003, 153]",
        "[0xda61b02d88d2c857da9d2da435152b08f03e2836, 0x5930640c1572bcd396eb410f62a6975ab9b8a148]"
      ],
      "transaction": {
        "from": "0xe62ab4d111f968660c6b2188046f9b9ba53c4bae",
        "to": "0xfa89dd803b8872f991997778d26c74a3aecd9639",
        "gas": "0x3bf97",
        "value": "0x0",
        "input": "0x349de797000000000000000000000000000000000000000000000000000000000000000100000000000000000000000000000000000000000000000000000000000000010000000000000000000000000000000000000000000000000000000000000080000000000000000000000000000000000000000000000000000000000000016000000000000000000000000000000000000000000000000000000000000000020000000000000000000000000000000000000000000000000000000000000040000000000000000000000000000000000000000000000000000000000000008000000000000000000000000000000000000000000000000000000000000000043530303300000000000000000000000000000000000000000000000000000000000000000000000000000000000000000000000000000000000000000000000331353300000000000000000000000000000000000000000000000000000000000000000000000000000000000000000000000000000000000000000000000002000000000000000000000000000000000000000000000000000000000000004000000000000000000000000000000000000000000000000000000000000000a0000000000000000000000000000000000000000000000000000000000000002a30786461363162303264383864326338353764613964326461343335313532623038663033653238333600000000000000000000000000000000000000000000000000000000000000000000000000000000000000000000000000000000002a30783539333036343063313537326263643339366562343130663632613639373561623962386131343800000000000000000000000000000000000000000000",
        "nonce": "0xd36",
        "chainId": "0x66eee"
      },
      "additionalContracts": [],
      "isFixedGasLimit": false
    }
  ],
  "receipts": [
    {
      "status": "0x1",
      "cumulativeGasUsed": "0x32d0f",
      "logs": [],
      "logsBloom": "0x00000000000000000000000000000000000000000000000000000000000000000000000000000000000000000000000000000000000000000000000000000000000000000000000000000000000000000000000000000000000000000000000000000000000000000000000000000000000000000000000000000000000000000000000000000000000000000000000000000000000000000000000000000000000000000000000000000000000000000000000000000000000000000000000000000000000000000000000000000000000000000000000000000000000000000000000000000000000000000000000000000000000000000000000000000000",
      "type": "0x2",
      "transactionHash": "0x39b865e61857f231f61a8c557ada4ae48172d8f51a64b83612e9292a430c826d",
      "transactionIndex": "0x2",
      "blockHash": "0x02cb722319aa0eecb0931ac90c8bf143f7c231fe96618a874e5e7e56e6c95c34",
      "blockNumber": "0x966e9da",
      "gasUsed": "0x2b760",
      "effectiveGasPrice": "0x5f5e100",
      "from": "0xe62ab4d111f968660c6b2188046f9b9ba53c4bae",
      "to": "0xfa89dd803b8872f991997778d26c74a3aecd9639",
      "contractAddress": null,
      "gasUsedForL1": "0x0",
      "l1BlockNumber": "0x809308",
      "timeboosted": false
    },
    {
      "status": "0x1",
      "cumulativeGasUsed": "0x2d814",
      "logs": [],
      "logsBloom": "0x00000000000000000000000000000000000000000000000000000000000000000000000000000000000000000000000000000000000000000000000000000000000000000000000000000000000000000000000000000000000000000000000000000000000000000000000000000000000000000000000000000000000000000000000000000000000000000000000000000000000000000000000000000000000000000000000000000000000000000000000000000000000000000000000000000000000000000000000000000000000000000000000000000000000000000000000000000000000000000000000000000000000000000000000000000000",
      "type": "0x2",
      "transactionHash": "0x01f35da3bafc68b73612904a8c3a8e28eb333f66061bde93bc6794c7b312cdb9",
      "transactionIndex": "0x1",
      "blockHash": "0xe7fa9adf9e28959acad340e6a918a48198b8c8d4d8353efd92e3433cb0a81afd",
      "blockNumber": "0x966e9e6",
      "gasUsed": "0x2d814",
      "effectiveGasPrice": "0x5f5e100",
      "from": "0xe62ab4d111f968660c6b2188046f9b9ba53c4bae",
      "to": "0xfa89dd803b8872f991997778d26c74a3aecd9639",
      "contractAddress": null,
      "gasUsedForL1": "0x0",
      "l1BlockNumber": "0x809308",
      "timeboosted": false
    },
    {
      "status": "0x1",
      "cumulativeGasUsed": "0x15c6f6",
      "logs": [],
      "logsBloom": "0x00000000000000000000000000000000000000000000000000000000000000000000000000000000000000000000000000000000000000000000000000000000000000000000000000000000000000000000000000000000000000000000000000000000000000000000000000000000000000000000000000000000000000000000000000000000000000000000000000000000000000000000000000000000000000000000000000000000000000000000000000000000000000000000000000000000000000000000000000000000000000000000000000000000000000000000000000000000000000000000000000000000000000000000000000000000",
      "type": "0x2",
      "transactionHash": "0x5861119d172f1abeab77f4be61c0df2338b6e4a2587c8f6bc7ab16795803a7da",
      "transactionIndex": "0xa",
      "blockHash": "0xf053916ceb8458572e9096dd0b7f53cd7e2b2d476bf654d0949d67445c3f3fb3",
      "blockNumber": "0x966e9f1",
      "gasUsed": "0x2daec",
      "effectiveGasPrice": "0x5f5e100",
      "from": "0xe62ab4d111f968660c6b2188046f9b9ba53c4bae",
      "to": "0xfa89dd803b8872f991997778d26c74a3aecd9639",
      "contractAddress": null,
      "gasUsedForL1": "0x0",
      "l1BlockNumber": "0x809309",
      "timeboosted": false
    },
    {
      "status": "0x1",
      "cumulativeGasUsed": "0x9035f",
      "logs": [],
      "logsBloom": "0x00000000000000000000000000000000000000000000000000000000000000000000000000000000000000000000000000000000000000000000000000000000000000000000000000000000000000000000000000000000000000000000000000000000000000000000000000000000000000000000000000000000000000000000000000000000000000000000000000000000000000000000000000000000000000000000000000000000000000000000000000000000000000000000000000000000000000000000000000000000000000000000000000000000000000000000000000000000000000000000000000000000000000000000000000000000",
      "type": "0x2",
      "transactionHash": "0x4581fba8b42cac7430aac7dccce481d5bf38e70d9d09805ecf2a4f2f89b9e893",
      "transactionIndex": "0xa",
      "blockHash": "0xe90218d12d07101bec03ce882898edf1f6dfe625feba4d2f4ed2d19dd906e66f",
      "blockNumber": "0x966e9fc",
      "gasUsed": "0x2d7d0",
      "effectiveGasPrice": "0x5f5e100",
      "from": "0xe62ab4d111f968660c6b2188046f9b9ba53c4bae",
      "to": "0xfa89dd803b8872f991997778d26c74a3aecd9639",
      "contractAddress": null,
      "gasUsedForL1": "0x0",
      "l1BlockNumber": "0x809309",
      "timeboosted": false
    }
  ],
  "libraries": [],
  "pending": [],
  "returns": {},
  "timestamp": 1748453251,
  "chain": 421614,
  "commit": "f02f4300"
}