{
  "transactions": [
    {
      "hash": "0x3a3bd10c75401bb8ff30a19209781c9b82b098f05ac59ea43e9d41d1aeb47755",
      "transactionType": "CALL",
      "contractName": "FeeManager",
      "contractAddress": "0x00cb1299d29a1d389879c1af2316a4b2c78da610",
      "function": "addFeeToken(string)",
      "arguments": [
        "0x1ee4ba474da815f728df08f0147defac07f0bab3"
      ],
      "transaction": {
        "from": "0xe62ab4d111f968660c6b2188046f9b9ba53c4bae",
        "to": "0x00cb1299d29a1d389879c1af2316a4b2c78da610",
        "gas": "0x2d31e",
        "value": "0x0",
        "input": "0x12a6385f0000000000000000000000000000000000000000000000000000000000000020000000000000000000000000000000000000000000000000000000000000002a30783165653462613437346461383135663732386466303866303134376465666163303766306261623300000000000000000000000000000000000000000000",
        "nonce": "0x1e4",
        "chainId": "0x66eee"
      },
      "additionalContracts": [],
      "isFixedGasLimit": false
    }
  ],
  "receipts": [
    {
      "status": "0x1",
      "cumulativeGasUsed": "0x22669",
      "logs": [
        {
          "address": "0x00cb1299d29a1d389879c1af2316a4b2c78da610",
          "topics": [
            "0x1394cfab38f3fc78ed77ea6f9318782a446d96e7dc8e9a6b0149f6be25c08bcf",
            "0x0000000000000000000000001ee4ba474da815f728df08f0147defac07f0bab3"
          ],
          "data": "0x",
          "blockHash": "0x06da39ddcfabd481ce7abc6eba9d6c3362bf2acd15f18ab891e376e06ec6acbd",
          "blockNumber": "0x58c2a18",
          "transactionHash": "0x3a3bd10c75401bb8ff30a19209781c9b82b098f05ac59ea43e9d41d1aeb47755",
          "transactionIndex": "0x1",
          "logIndex": "0x0",
          "removed": false
        }
      ],
      "logsBloom": "0x00000000000000000000000000000000000000000000000000000000000000000000000000000000000000000000000000000000000000000000000000000000000000000000000000000000000000000000001000000000000000000000000002000000000000000000000000000000000000000000000000000000000000000000000100000000000000000000000000000000000000000000000000000000000004000000000080000000000000000000000100000000000000000000000000000000000000000000000000000000000000000000000000000000000000000000000000000000000000100000000000000000000000000001000400000000",
      "type": "0x2",
      "transactionHash": "0x3a3bd10c75401bb8ff30a19209781c9b82b098f05ac59ea43e9d41d1aeb47755",
      "transactionIndex": "0x1",
      "blockHash": "0x06da39ddcfabd481ce7abc6eba9d6c3362bf2acd15f18ab891e376e06ec6acbd",
      "blockNumber": "0x58c2a18",
      "gasUsed": "0x22669",
      "effectiveGasPrice": "0x5f5e100",
      "from": "0xe62ab4d111f968660c6b2188046f9b9ba53c4bae",
      "to": "0x00cb1299d29a1d389879c1af2316a4b2c78da610",
      "contractAddress": null,
      "gasUsedForL1": "0x5ea",
      "l1BlockNumber": "0x6a7d29"
    }
  ],
  "libraries": [],
  "pending": [],
  "returns": {},
  "timestamp": 1730320144,
  "chain": 421614,
  "commit": "34a11392"
}