{
  "transactions": [
    {
      "hash": "0xa2ed9e6617d9729e58fc456bc6983b5bd960a46a40a4c9f56dd845311e7e2ef0",
      "transactionType": "CALL",
      "contractName": null,
      "contractAddress": "0x9068f274555af3cd0a934dbcf1c56e7b83ad450a",
      "function": "addFeeToken(string)",
      "arguments": [
        "0x92829288c6aa874c1a0f190da35a4023c22be637"
      ],
      "transaction": {
        "from": "0xe62ab4d111f968660c6b2188046f9b9ba53c4bae",
        "to": "0x9068f274555af3cd0a934dbcf1c56e7b83ad450a",
        "gas": "0x1cb63",
        "value": "0x0",
        "input": "0x12a6385f0000000000000000000000000000000000000000000000000000000000000020000000000000000000000000000000000000000000000000000000000000002a30783932383239323838633661613837346331613066313930646133356134303233633232626536333700000000000000000000000000000000000000000000",
        "nonce": "0x2d7",
        "chainId": "0x66eee"
      },
      "additionalContracts": [],
      "isFixedGasLimit": false
    },
    {
      "hash": "0x2a8889fe281dc0109769b57101a118f362456a869ed138bf2d25da8e1117b673",
      "transactionType": "CALL",
      "contractName": null,
      "contractAddress": "0x9068f274555af3cd0a934dbcf1c56e7b83ad450a",
      "function": "setFeeMultiplier(uint8,uint256)",
      "arguments": [
        "0",
        "2"
      ],
      "transaction": {
        "from": "0xe62ab4d111f968660c6b2188046f9b9ba53c4bae",
        "to": "0x9068f274555af3cd0a934dbcf1c56e7b83ad450a",
        "gas": "0xb8ab",
        "value": "0x0",
        "input": "0x0ee24eb500000000000000000000000000000000000000000000000000000000000000000000000000000000000000000000000000000000000000000000000000000002",
        "nonce": "0x2d8",
        "chainId": "0x66eee"
      },
      "additionalContracts": [],
      "isFixedGasLimit": false
    },
    {
      "hash": "0xe96f0c6146ce93d1f9bbaac63ba0bffea2acb06486a0f69523b280561fea02d4",
      "transactionType": "CALL",
      "contractName": null,
      "contractAddress": "0x9068f274555af3cd0a934dbcf1c56e7b83ad450a",
      "function": "setFeeMultiplier(uint8,uint256)",
      "arguments": [
        "1",
        "10"
      ],
      "transaction": {
        "from": "0xe62ab4d111f968660c6b2188046f9b9ba53c4bae",
        "to": "0x9068f274555af3cd0a934dbcf1c56e7b83ad450a",
        "gas": "0xb8d9",
        "value": "0x0",
        "input": "0x0ee24eb50000000000000000000000000000000000000000000000000000000000000001000000000000000000000000000000000000000000000000000000000000000a",
        "nonce": "0x2d9",
        "chainId": "0x66eee"
      },
      "additionalContracts": [],
      "isFixedGasLimit": false
    },
    {
      "hash": "0x109f34cc6ceaca63fe462ffb7ece5fe4f356b3d55a633bd3b88685687f77202a",
      "transactionType": "CALL",
      "contractName": null,
      "contractAddress": "0x9068f274555af3cd0a934dbcf1c56e7b83ad450a",
      "function": "setFeeMultiplier(uint8,uint256)",
      "arguments": [
        "2",
        "1"
      ],
      "transaction": {
        "from": "0xe62ab4d111f968660c6b2188046f9b9ba53c4bae",
        "to": "0x9068f274555af3cd0a934dbcf1c56e7b83ad450a",
        "gas": "0xb8f7",
        "value": "0x0",
        "input": "0x0ee24eb500000000000000000000000000000000000000000000000000000000000000020000000000000000000000000000000000000000000000000000000000000001",
        "nonce": "0x2da",
        "chainId": "0x66eee"
      },
      "additionalContracts": [],
      "isFixedGasLimit": false
    },
    {
      "hash": "0xaf0f2b7e934919b7c39f38cc3d33f36d2b094421ea64153145047b94447d7c32",
      "transactionType": "CALL",
      "contractName": null,
      "contractAddress": "0x9068f274555af3cd0a934dbcf1c56e7b83ad450a",
      "function": "setFeeMultiplier(uint8,uint256)",
      "arguments": [
        "3",
        "4"
      ],
      "transaction": {
        "from": "0xe62ab4d111f968660c6b2188046f9b9ba53c4bae",
        "to": "0x9068f274555af3cd0a934dbcf1c56e7b83ad450a",
        "gas": "0xb915",
        "value": "0x0",
        "input": "0x0ee24eb500000000000000000000000000000000000000000000000000000000000000030000000000000000000000000000000000000000000000000000000000000004",
        "nonce": "0x2db",
        "chainId": "0x66eee"
      },
      "additionalContracts": [],
      "isFixedGasLimit": false
    },
    {
      "hash": "0x44187d4df5137de0ee78f117d88948f224b6fbf7f54895ffea02245bf3487aff",
      "transactionType": "CALL",
      "contractName": null,
      "contractAddress": "0x9068f274555af3cd0a934dbcf1c56e7b83ad450a",
      "function": "setFeeMultiplier(uint8,uint256)",
      "arguments": [
        "4",
        "4"
      ],
      "transaction": {
        "from": "0xe62ab4d111f968660c6b2188046f9b9ba53c4bae",
        "to": "0x9068f274555af3cd0a934dbcf1c56e7b83ad450a",
        "gas": "0xb92c",
        "value": "0x0",
        "input": "0x0ee24eb500000000000000000000000000000000000000000000000000000000000000040000000000000000000000000000000000000000000000000000000000000004",
        "nonce": "0x2dc",
        "chainId": "0x66eee"
      },
      "additionalContracts": [],
      "isFixedGasLimit": false
    },
    {
      "hash": "0x6df75a4491a5cb324dc63722d1e05bb3f31c3abd594a4b61acfef5277730c803",
      "transactionType": "CALL",
      "contractName": null,
      "contractAddress": "0x9068f274555af3cd0a934dbcf1c56e7b83ad450a",
      "function": "addFeeToken(string,string[],uint256[])",
      "arguments": [
        "80002",
        "[0x92829288c6aa874c1a0f190da35a4023c22be637]",
        "[1000]"
      ],
      "transaction": {
        "from": "0xe62ab4d111f968660c6b2188046f9b9ba53c4bae",
        "to": "0x9068f274555af3cd0a934dbcf1c56e7b83ad450a",
        "gas": "0x251ed",
        "value": "0x0",
        "input": "0x437bf84f000000000000000000000000000000000000000000000000000000000000006000000000000000000000000000000000000000000000000000000000000000a000000000000000000000000000000000000000000000000000000000000001400000000000000000000000000000000000000000000000000000000000000005383030303200000000000000000000000000000000000000000000000000000000000000000000000000000000000000000000000000000000000000000000010000000000000000000000000000000000000000000000000000000000000020000000000000000000000000000000000000000000000000000000000000002a30783932383239323838633661613837346331613066313930646133356134303233633232626536333700000000000000000000000000000000000000000000000000000000000000000000000000000000000000000000000000000000000100000000000000000000000000000000000000000000000000000000000003e8",
        "nonce": "0x2dd",
        "chainId": "0x66eee"
      },
      "additionalContracts": [],
      "isFixedGasLimit": false
    },
    {
      "hash": "0x494907975be8479522e0d6ad32e6970b410b0fa5aeb5a29627fe30a451a0dc2d",
      "transactionType": "CALL",
      "contractName": null,
      "contractAddress": "0x9068f274555af3cd0a934dbcf1c56e7b83ad450a",
      "function": "addFeeToken(string,string[],uint256[])",
      "arguments": [
        "84532",
        "[0x92829288c6aa874c1a0f190da35a4023c22be637]",
        "[1000]"
      ],
      "transaction": {
        "from": "0xe62ab4d111f968660c6b2188046f9b9ba53c4bae",
        "to": "0x9068f274555af3cd0a934dbcf1c56e7b83ad450a",
        "gas": "0x2524c",
        "value": "0x0",
        "input": "0x437bf84f000000000000000000000000000000000000000000000000000000000000006000000000000000000000000000000000000000000000000000000000000000a000000000000000000000000000000000000000000000000000000000000001400000000000000000000000000000000000000000000000000000000000000005383435333200000000000000000000000000000000000000000000000000000000000000000000000000000000000000000000000000000000000000000000010000000000000000000000000000000000000000000000000000000000000020000000000000000000000000000000000000000000000000000000000000002a30783932383239323838633661613837346331613066313930646133356134303233633232626536333700000000000000000000000000000000000000000000000000000000000000000000000000000000000000000000000000000000000100000000000000000000000000000000000000000000000000000000000003e8",
        "nonce": "0x2de",
        "chainId": "0x66eee"
      },
      "additionalContracts": [],
      "isFixedGasLimit": false
    },
    {
      "hash": "0x3f5029829cec68f0604257a94d285ca377e845ad7d2c4f74575d29ff8530716a",
      "transactionType": "CALL",
      "contractName": null,
      "contractAddress": "0x9068f274555af3cd0a934dbcf1c56e7b83ad450a",
      "function": "addFeeToken(string,string[],uint256[])",
      "arguments": [
        "97",
        "[0x92829288c6aa874c1a0f190da35a4023c22be637]",
        "[1000]"
      ],
      "transaction": {
        "from": "0xe62ab4d111f968660c6b2188046f9b9ba53c4bae",
        "to": "0x9068f274555af3cd0a934dbcf1c56e7b83ad450a",
        "gas": "0x24b9a",
        "value": "0x0",
        "input": "0x437bf84f000000000000000000000000000000000000000000000000000000000000006000000000000000000000000000000000000000000000000000000000000000a000000000000000000000000000000000000000000000000000000000000001400000000000000000000000000000000000000000000000000000000000000002393700000000000000000000000000000000000000000000000000000000000000000000000000000000000000000000000000000000000000000000000000010000000000000000000000000000000000000000000000000000000000000020000000000000000000000000000000000000000000000000000000000000002a30783932383239323838633661613837346331613066313930646133356134303233633232626536333700000000000000000000000000000000000000000000000000000000000000000000000000000000000000000000000000000000000100000000000000000000000000000000000000000000000000000000000003e8",
        "nonce": "0x2df",
        "chainId": "0x66eee"
      },
      "additionalContracts": [],
      "isFixedGasLimit": false
    },
    {
      "hash": "0x0d06683caf1dfacbf45f2cb8d5321c3ba26d6d1845e8cae317afbf69d48c3cd7",
      "transactionType": "CALL",
      "contractName": null,
      "contractAddress": "0x9068f274555af3cd0a934dbcf1c56e7b83ad450a",
      "function": "addFeeToken(string,string[],uint256[])",
      "arguments": [
        "11155111",
        "[0x92829288c6aa874c1a0f190da35a4023c22be637]",
        "[1000]"
      ],
      "transaction": {
        "from": "0xe62ab4d111f968660c6b2188046f9b9ba53c4bae",
        "to": "0x9068f274555af3cd0a934dbcf1c56e7b83ad450a",
        "gas": "0x2586a",
        "value": "0x0",
        "input": "0x437bf84f000000000000000000000000000000000000000000000000000000000000006000000000000000000000000000000000000000000000000000000000000000a000000000000000000000000000000000000000000000000000000000000001400000000000000000000000000000000000000000000000000000000000000008313131353531313100000000000000000000000000000000000000000000000000000000000000000000000000000000000000000000000000000000000000010000000000000000000000000000000000000000000000000000000000000020000000000000000000000000000000000000000000000000000000000000002a30783932383239323838633661613837346331613066313930646133356134303233633232626536333700000000000000000000000000000000000000000000000000000000000000000000000000000000000000000000000000000000000100000000000000000000000000000000000000000000000000000000000003e8",
        "nonce": "0x2e0",
        "chainId": "0x66eee"
      },
      "additionalContracts": [],
      "isFixedGasLimit": false
    },
    {
      "hash": "0x9c6f0b0348c46e76b854613f83d897729412c14e7baf103d85f36204c1c3ca01",
      "transactionType": "CALL",
      "contractName": "CTMRWAGateway",
      "contractAddress": "0x358498985e6ac7ca73f5110b415525ae04cb8313",
      "function": "addChainContract(string[],string[])",
      "arguments": [
        "[]",
        "[]"
      ],
      "transaction": {
        "from": "0xe62ab4d111f968660c6b2188046f9b9ba53c4bae",
        "to": "0x358498985e6ac7ca73f5110b415525ae04cb8313",
        "gas": "0xba12",
        "value": "0x0",
        "input": "0x013fd3bd0000000000000000000000000000000000000000000000000000000000000040000000000000000000000000000000000000000000000000000000000000006000000000000000000000000000000000000000000000000000000000000000000000000000000000000000000000000000000000000000000000000000000000",
        "nonce": "0x2e1",
        "chainId": "0x66eee"
      },
      "additionalContracts": [],
      "isFixedGasLimit": false
    },
    {
      "hash": "0x780a3b676604f4ee1b3c44cddf5afd517767cce634de0a12d774d2250aa02ce2",
      "transactionType": "CALL",
      "contractName": "CTMRWAGateway",
      "contractAddress": "0x358498985e6ac7ca73f5110b415525ae04cb8313",
      "function": "attachRWAX(uint256,uint256,string[],string[])",
      "arguments": [
        "1",
        "1",
        "[]",
        "[]"
      ],
      "transaction": {
        "from": "0xe62ab4d111f968660c6b2188046f9b9ba53c4bae",
        "to": "0x358498985e6ac7ca73f5110b415525ae04cb8313",
        "gas": "0xbcd1",
        "value": "0x0",
        "input": "0x33a5f5b400000000000000000000000000000000000000000000000000000000000000010000000000000000000000000000000000000000000000000000000000000001000000000000000000000000000000000000000000000000000000000000008000000000000000000000000000000000000000000000000000000000000000a000000000000000000000000000000000000000000000000000000000000000000000000000000000000000000000000000000000000000000000000000000000",
        "nonce": "0x2e2",
        "chainId": "0x66eee"
      },
      "additionalContracts": [],
      "isFixedGasLimit": false
    },
    {
      "hash": "0x754f100f751d4f8a07ac25b86e7874e7300a7f8586b1e62b31a0af6f30fecfd8",
      "transactionType": "CALL",
      "contractName": "CTMRWAGateway",
      "contractAddress": "0x358498985e6ac7ca73f5110b415525ae04cb8313",
      "function": "attachStorageManager(uint256,uint256,string[],string[])",
      "arguments": [
        "1",
        "1",
        "[]",
        "[]"
      ],
      "transaction": {
        "from": "0xe62ab4d111f968660c6b2188046f9b9ba53c4bae",
        "to": "0x358498985e6ac7ca73f5110b415525ae04cb8313",
        "gas": "0xbcb5",
        "value": "0x0",
        "input": "0x2f68b48900000000000000000000000000000000000000000000000000000000000000010000000000000000000000000000000000000000000000000000000000000001000000000000000000000000000000000000000000000000000000000000008000000000000000000000000000000000000000000000000000000000000000a000000000000000000000000000000000000000000000000000000000000000000000000000000000000000000000000000000000000000000000000000000000",
        "nonce": "0x2e3",
        "chainId": "0x66eee"
      },
      "additionalContracts": [],
      "isFixedGasLimit": false
    }
  ],
  "receipts": [
    {
      "status": "0x1",
      "cumulativeGasUsed": "0x1563f",
      "logs": [
        {
          "address": "0x9068f274555af3cd0a934dbcf1c56e7b83ad450a",
          "topics": [
            "0x1394cfab38f3fc78ed77ea6f9318782a446d96e7dc8e9a6b0149f6be25c08bcf",
            "0x00000000000000000000000092829288c6aa874c1a0f190da35a4023c22be637"
          ],
          "data": "0x",
          "blockHash": "0x80a7bddb571c026f516feabb255219d6abab43b8dfd9552e9b8bac068e308728",
          "blockNumber": "0x5a04b16",
          "transactionHash": "0xa2ed9e6617d9729e58fc456bc6983b5bd960a46a40a4c9f56dd845311e7e2ef0",
          "transactionIndex": "0x1",
          "logIndex": "0x0",
          "removed": false
        }
      ],
      "logsBloom": "0x00000000000000000000000020000000000000000000000000000000000000000000000000000000000000000000000000000000000000000000000000000000000000000000000000000000000000000000001000000000000000000000000000000000200000000000000000000000000000000000000000000000000000000000000100000000000000000000000000000000000000000000000000000000000000000000000000000000000000000000000100000000000000000000000100000000000000000000000000000008000000000004000000000000000000000000000000000000000000000000000000000000000000000004000000000000",
      "type": "0x2",
      "transactionHash": "0xa2ed9e6617d9729e58fc456bc6983b5bd960a46a40a4c9f56dd845311e7e2ef0",
      "transactionIndex": "0x1",
      "blockHash": "0x80a7bddb571c026f516feabb255219d6abab43b8dfd9552e9b8bac068e308728",
      "blockNumber": "0x5a04b16",
      "gasUsed": "0x1563f",
      "effectiveGasPrice": "0x5f5e100",
      "from": "0xe62ab4d111f968660c6b2188046f9b9ba53c4bae",
      "to": "0x9068f274555af3cd0a934dbcf1c56e7b83ad450a",
      "contractAddress": null,
      "gasUsedForL1": "0x202b",
      "l1BlockNumber": "0x6afe1d"
    },
    {
      "status": "0x1",
      "cumulativeGasUsed": "0x85fa",
      "logs": [],
      "logsBloom": "0x00000000000000000000000000000000000000000000000000000000000000000000000000000000000000000000000000000000000000000000000000000000000000000000000000000000000000000000000000000000000000000000000000000000000000000000000000000000000000000000000000000000000000000000000000000000000000000000000000000000000000000000000000000000000000000000000000000000000000000000000000000000000000000000000000000000000000000000000000000000000000000000000000000000000000000000000000000000000000000000000000000000000000000000000000000000",
      "type": "0x2",
      "transactionHash": "0x2a8889fe281dc0109769b57101a118f362456a869ed138bf2d25da8e1117b673",
      "transactionIndex": "0x1",
      "blockHash": "0x4fd37f63f4490e826acacff634e15c4519e280a658c54be8fc52a91961dc23e1",
      "blockNumber": "0x5a04b32",
      "gasUsed": "0x85fa",
      "effectiveGasPrice": "0x5f5e100",
      "from": "0xe62ab4d111f968660c6b2188046f9b9ba53c4bae",
      "to": "0x9068f274555af3cd0a934dbcf1c56e7b83ad450a",
      "contractAddress": null,
      "gasUsedForL1": "0x17bd",
      "l1BlockNumber": "0x6afe1f"
    },
    {
      "status": "0x1",
      "cumulativeGasUsed": "0x193a3",
      "logs": [],
      "logsBloom": "0x00000000000000000000000000000000000000000000000000000000000000000000000000000000000000000000000000000000000000000000000000000000000000000000000000000000000000000000000000000000000000000000000000000000000000000000000000000000000000000000000000000000000000000000000000000000000000000000000000000000000000000000000000000000000000000000000000000000000000000000000000000000000000000000000000000000000000000000000000000000000000000000000000000000000000000000000000000000000000000000000000000000000000000000000000000000",
      "type": "0x2",
      "transactionHash": "0xe96f0c6146ce93d1f9bbaac63ba0bffea2acb06486a0f69523b280561fea02d4",
      "transactionIndex": "0x2",
      "blockHash": "0x7df31e2d5309f5e0bfd150a9d9b65916c53991fe1af5d8550210d2febbda2fa8",
      "blockNumber": "0x5a04b4a",
      "gasUsed": "0x861d",
      "effectiveGasPrice": "0x5f5e100",
      "from": "0xe62ab4d111f968660c6b2188046f9b9ba53c4bae",
      "to": "0x9068f274555af3cd0a934dbcf1c56e7b83ad450a",
      "contractAddress": null,
      "gasUsedForL1": "0x17bd",
      "l1BlockNumber": "0x6afe1f"
    },
    {
      "status": "0x1",
      "cumulativeGasUsed": "0x8634",
      "logs": [],
      "logsBloom": "0x00000000000000000000000000000000000000000000000000000000000000000000000000000000000000000000000000000000000000000000000000000000000000000000000000000000000000000000000000000000000000000000000000000000000000000000000000000000000000000000000000000000000000000000000000000000000000000000000000000000000000000000000000000000000000000000000000000000000000000000000000000000000000000000000000000000000000000000000000000000000000000000000000000000000000000000000000000000000000000000000000000000000000000000000000000000",
      "type": "0x2",
      "transactionHash": "0x109f34cc6ceaca63fe462ffb7ece5fe4f356b3d55a633bd3b88685687f77202a",
      "transactionIndex": "0x1",
      "blockHash": "0xf984be765422d8616bec5f765cdadeb91e33f33dee2c07d99cd938184ee53fc2",
      "blockNumber": "0x5a04b67",
      "gasUsed": "0x8634",
      "effectiveGasPrice": "0x5f5e100",
      "from": "0xe62ab4d111f968660c6b2188046f9b9ba53c4bae",
      "to": "0x9068f274555af3cd0a934dbcf1c56e7b83ad450a",
      "contractAddress": null,
      "gasUsedForL1": "0x17bd",
      "l1BlockNumber": "0x6afe20"
    },
    {
      "status": "0x1",
      "cumulativeGasUsed": "0x864b",
      "logs": [],
      "logsBloom": "0x00000000000000000000000000000000000000000000000000000000000000000000000000000000000000000000000000000000000000000000000000000000000000000000000000000000000000000000000000000000000000000000000000000000000000000000000000000000000000000000000000000000000000000000000000000000000000000000000000000000000000000000000000000000000000000000000000000000000000000000000000000000000000000000000000000000000000000000000000000000000000000000000000000000000000000000000000000000000000000000000000000000000000000000000000000000",
      "type": "0x2",
      "transactionHash": "0xaf0f2b7e934919b7c39f38cc3d33f36d2b094421ea64153145047b94447d7c32",
      "transactionIndex": "0x1",
      "blockHash": "0xd31e4db4144d8c2aa618d05a2b5c089d95b8b81eb4ec6a15341fe13ed0f1bc90",
      "blockNumber": "0x5a04b7d",
      "gasUsed": "0x864b",
      "effectiveGasPrice": "0x5f5e100",
      "from": "0xe62ab4d111f968660c6b2188046f9b9ba53c4bae",
      "to": "0x9068f274555af3cd0a934dbcf1c56e7b83ad450a",
      "contractAddress": null,
      "gasUsedForL1": "0x17bd",
      "l1BlockNumber": "0x6afe20"
    },
    {
      "status": "0x1",
      "cumulativeGasUsed": "0x865d",
      "logs": [],
      "logsBloom": "0x00000000000000000000000000000000000000000000000000000000000000000000000000000000000000000000000000000000000000000000000000000000000000000000000000000000000000000000000000000000000000000000000000000000000000000000000000000000000000000000000000000000000000000000000000000000000000000000000000000000000000000000000000000000000000000000000000000000000000000000000000000000000000000000000000000000000000000000000000000000000000000000000000000000000000000000000000000000000000000000000000000000000000000000000000000000",
      "type": "0x2",
      "transactionHash": "0x44187d4df5137de0ee78f117d88948f224b6fbf7f54895ffea02245bf3487aff",
      "transactionIndex": "0x1",
      "blockHash": "0x3f0c7bd36cb77b954eac9aaa07f27b703ee6c2013da6afc6f4719dc240d0a6d8",
      "blockNumber": "0x5a04b94",
      "gasUsed": "0x865d",
      "effectiveGasPrice": "0x5f5e100",
      "from": "0xe62ab4d111f968660c6b2188046f9b9ba53c4bae",
      "to": "0x9068f274555af3cd0a934dbcf1c56e7b83ad450a",
      "contractAddress": null,
      "gasUsedForL1": "0x17bd",
      "l1BlockNumber": "0x6afe21"
    },
    {
      "status": "0x1",
      "cumulativeGasUsed": "0x1bc1f",
      "logs": [],
      "logsBloom": "0x00000000000000000000000000000000000000000000000000000000000000000000000000000000000000000000000000000000000000000000000000000000000000000000000000000000000000000000000000000000000000000000000000000000000000000000000000000000000000000000000000000000000000000000000000000000000000000000000000000000000000000000000000000000000000000000000000000000000000000000000000000000000000000000000000000000000000000000000000000000000000000000000000000000000000000000000000000000000000000000000000000000000000000000000000000000",
      "type": "0x2",
      "transactionHash": "0x6df75a4491a5cb324dc63722d1e05bb3f31c3abd594a4b61acfef5277730c803",
      "transactionIndex": "0x1",
      "blockHash": "0x95bdc35129dde52a51845714bd99733bedd116db57478d9051f52e0695726797",
      "blockNumber": "0x5a04b97",
      "gasUsed": "0x1bc1f",
      "effectiveGasPrice": "0x5f5e100",
      "from": "0xe62ab4d111f968660c6b2188046f9b9ba53c4bae",
      "to": "0x9068f274555af3cd0a934dbcf1c56e7b83ad450a",
      "contractAddress": null,
      "gasUsedForL1": "0x272d",
      "l1BlockNumber": "0x6afe21"
    },
    {
      "status": "0x1",
      "cumulativeGasUsed": "0x1bb57",
      "logs": [],
      "logsBloom": "0x00000000000000000000000000000000000000000000000000000000000000000000000000000000000000000000000000000000000000000000000000000000000000000000000000000000000000000000000000000000000000000000000000000000000000000000000000000000000000000000000000000000000000000000000000000000000000000000000000000000000000000000000000000000000000000000000000000000000000000000000000000000000000000000000000000000000000000000000000000000000000000000000000000000000000000000000000000000000000000000000000000000000000000000000000000000",
      "type": "0x2",
      "transactionHash": "0x494907975be8479522e0d6ad32e6970b410b0fa5aeb5a29627fe30a451a0dc2d",
      "transactionIndex": "0x1",
      "blockHash": "0x4c8cf57f9d13952e84162562e5ac51bf48ee953e82852a1c1c3f3d2aeffc3834",
      "blockNumber": "0x5a04b9b",
      "gasUsed": "0x1bb57",
      "effectiveGasPrice": "0x5f5e100",
      "from": "0xe62ab4d111f968660c6b2188046f9b9ba53c4bae",
      "to": "0x9068f274555af3cd0a934dbcf1c56e7b83ad450a",
      "contractAddress": null,
      "gasUsedForL1": "0x2665",
      "l1BlockNumber": "0x6afe21"
    },
    {
      "status": "0x1",
      "cumulativeGasUsed": "0x1b5c2",
      "logs": [],
      "logsBloom": "0x00000000000000000000000000000000000000000000000000000000000000000000000000000000000000000000000000000000000000000000000000000000000000000000000000000000000000000000000000000000000000000000000000000000000000000000000000000000000000000000000000000000000000000000000000000000000000000000000000000000000000000000000000000000000000000000000000000000000000000000000000000000000000000000000000000000000000000000000000000000000000000000000000000000000000000000000000000000000000000000000000000000000000000000000000000000",
      "type": "0x2",
      "transactionHash": "0x3f5029829cec68f0604257a94d285ca377e845ad7d2c4f74575d29ff8530716a",
      "transactionIndex": "0x1",
      "blockHash": "0xce60b65290198f7c916913b37097aff45e53f6dcc901ef644dade7524162a421",
      "blockNumber": "0x5a04b9e",
      "gasUsed": "0x1b5c2",
      "effectiveGasPrice": "0x5f5e100",
      "from": "0xe62ab4d111f968660c6b2188046f9b9ba53c4bae",
      "to": "0x9068f274555af3cd0a934dbcf1c56e7b83ad450a",
      "contractAddress": null,
      "gasUsedForL1": "0x255c",
      "l1BlockNumber": "0x6afe21"
    },
    {
      "status": "0x1",
      "cumulativeGasUsed": "0x1c10e",
      "logs": [],
      "logsBloom": "0x00000000000000000000000000000000000000000000000000000000000000000000000000000000000000000000000000000000000000000000000000000000000000000000000000000000000000000000000000000000000000000000000000000000000000000000000000000000000000000000000000000000000000000000000000000000000000000000000000000000000000000000000000000000000000000000000000000000000000000000000000000000000000000000000000000000000000000000000000000000000000000000000000000000000000000000000000000000000000000000000000000000000000000000000000000000",
      "type": "0x2",
      "transactionHash": "0x0d06683caf1dfacbf45f2cb8d5321c3ba26d6d1845e8cae317afbf69d48c3cd7",
      "transactionIndex": "0x1",
      "blockHash": "0xad11ba947ce12162dfedb3f380e8dfcfe577e4481c6d799ba29eb47b757b2cf1",
      "blockNumber": "0x5a04bb7",
      "gasUsed": "0x1c10e",
      "effectiveGasPrice": "0x5f5e100",
      "from": "0xe62ab4d111f968660c6b2188046f9b9ba53c4bae",
      "to": "0x9068f274555af3cd0a934dbcf1c56e7b83ad450a",
      "contractAddress": null,
      "gasUsedForL1": "0x2790",
      "l1BlockNumber": "0x6afe22"
    },
    {
      "status": "0x1",
      "cumulativeGasUsed": "0x84c8",
      "logs": [],
      "logsBloom": "0x00000000000000000000000000000000000000000000000000000000000000000000000000000000000000000000000000000000000000000000000000000000000000000000000000000000000000000000000000000000000000000000000000000000000000000000000000000000000000000000000000000000000000000000000000000000000000000000000000000000000000000000000000000000000000000000000000000000000000000000000000000000000000000000000000000000000000000000000000000000000000000000000000000000000000000000000000000000000000000000000000000000000000000000000000000000",
      "type": "0x2",
      "transactionHash": "0x9c6f0b0348c46e76b854613f83d897729412c14e7baf103d85f36204c1c3ca01",
      "transactionIndex": "0x1",
      "blockHash": "0x8722deaa7cd35835463efd6a1f2ecd942b02bb585ad0e0da04abf63f966c11fb",
      "blockNumber": "0x5a04bcd",
      "gasUsed": "0x84c8",
      "effectiveGasPrice": "0x5f5e100",
      "from": "0xe62ab4d111f968660c6b2188046f9b9ba53c4bae",
      "to": "0x358498985e6ac7ca73f5110b415525ae04cb8313",
      "contractAddress": null,
      "gasUsedForL1": "0x1b3d",
      "l1BlockNumber": "0x6afe22"
    },
    {
      "status": "0x1",
      "cumulativeGasUsed": "0x87c3",
      "logs": [],
      "logsBloom": "0x00000000000000000000000000000000000000000000000000000000000000000000000000000000000000000000000000000000000000000000000000000000000000000000000000000000000000000000000000000000000000000000000000000000000000000000000000000000000000000000000000000000000000000000000000000000000000000000000000000000000000000000000000000000000000000000000000000000000000000000000000000000000000000000000000000000000000000000000000000000000000000000000000000000000000000000000000000000000000000000000000000000000000000000000000000000",
      "type": "0x2",
      "transactionHash": "0x780a3b676604f4ee1b3c44cddf5afd517767cce634de0a12d774d2250aa02ce2",
      "transactionIndex": "0x1",
      "blockHash": "0x59d8b5e794ea550d4e401e6ae5854d0073a5fe6c2fab56b843d373abd3cf4c69",
      "blockNumber": "0x5a04be6",
      "gasUsed": "0x87c3",
      "effectiveGasPrice": "0x5f5e100",
      "from": "0xe62ab4d111f968660c6b2188046f9b9ba53c4bae",
      "to": "0x358498985e6ac7ca73f5110b415525ae04cb8313",
      "contractAddress": null,
      "gasUsedForL1": "0x1c8a",
      "l1BlockNumber": "0x6afe24"
    },
    {
      "status": "0x1",
      "cumulativeGasUsed": "0x8728",
      "logs": [],
      "logsBloom": "0x00000000000000000000000000000000000000000000000000000000000000000000000000000000000000000000000000000000000000000000000000000000000000000000000000000000000000000000000000000000000000000000000000000000000000000000000000000000000000000000000000000000000000000000000000000000000000000000000000000000000000000000000000000000000000000000000000000000000000000000000000000000000000000000000000000000000000000000000000000000000000000000000000000000000000000000000000000000000000000000000000000000000000000000000000000000",
      "type": "0x2",
      "transactionHash": "0x754f100f751d4f8a07ac25b86e7874e7300a7f8586b1e62b31a0af6f30fecfd8",
      "transactionIndex": "0x1",
      "blockHash": "0x243fa2e47d6d1ac46834f1dbd35c184d9ba0df23a6f28f3ced76daf4c9653d35",
      "blockNumber": "0x5a04bea",
      "gasUsed": "0x8728",
      "effectiveGasPrice": "0x5f5e100",
      "from": "0xe62ab4d111f968660c6b2188046f9b9ba53c4bae",
      "to": "0x358498985e6ac7ca73f5110b415525ae04cb8313",
      "contractAddress": null,
      "gasUsedForL1": "0x1c05",
      "l1BlockNumber": "0x6afe24"
    }
  ],
  "libraries": [],
  "pending": [],
  "returns": {},
  "timestamp": 1730746076,
  "chain": 421614,
  "commit": "34a11392"
}