{
  "transactions": [
    {
      "hash": "0x20278a61d9ad15d08f3c6b8c6fbca6b880497177bf3ccfa144c26ff28263671b",
      "transactionType": "CALL",
      "contractName": null,
      "contractAddress": "0x2a07e30ceb718f199268b5cd1cd473500af53c52",
      "function": "getFeeTokenList()",
      "arguments": [],
      "transaction": {
        "from": "0xe62ab4d111f968660c6b2188046f9b9ba53c4bae",
        "to": "0x2a07e30ceb718f199268b5cd1cd473500af53c52",
        "gas": "0x7d9c",
        "value": "0x0",
        "input": "0xe28ab277",
        "nonce": "0x583",
        "chainId": "0x66eee"
      },
      "additionalContracts": [],
      "isFixedGasLimit": false
    },
    {
      "hash": "0xc69450994c6fabeaed0cd630b27abbd1cd001749dd37012b1a30e6bf72f78a7f",
      "transactionType": "CALL",
      "contractName": null,
      "contractAddress": "0x2a07e30ceb718f199268b5cd1cd473500af53c52",
      "function": "addFeeToken(string)",
      "arguments": [
        "0xbf5356ade7e5f775659f301b07c4bc6961044b11"
      ],
      "transaction": {
        "from": "0xe62ab4d111f968660c6b2188046f9b9ba53c4bae",
        "to": "0x2a07e30ceb718f199268b5cd1cd473500af53c52",
        "gas": "0x2483a",
        "value": "0x0",
        "input": "0x12a6385f0000000000000000000000000000000000000000000000000000000000000020000000000000000000000000000000000000000000000000000000000000002a30786266353335366164653765356637373536353966333031623037633462633639363130343462313100000000000000000000000000000000000000000000",
        "nonce": "0x584",
        "chainId": "0x66eee"
      },
      "additionalContracts": [],
      "isFixedGasLimit": false
    },
    {
      "hash": "0x88417e4a71a4ef3ace8b1b75850c3c9a649782ed9dcc78871ef858e4d8d849cd",
      "transactionType": "CALL",
      "contractName": null,
      "contractAddress": "0x2a07e30ceb718f199268b5cd1cd473500af53c52",
      "function": "setFeeMultiplier(uint8,uint256)",
      "arguments": [
        "0",
        "2"
      ],
      "transaction": {
        "from": "0xe62ab4d111f968660c6b2188046f9b9ba53c4bae",
        "to": "0x2a07e30ceb718f199268b5cd1cd473500af53c52",
        "gas": "0xf776",
        "value": "0x0",
        "input": "0x0ee24eb500000000000000000000000000000000000000000000000000000000000000000000000000000000000000000000000000000000000000000000000000000002",
        "nonce": "0x585",
        "chainId": "0x66eee"
      },
      "additionalContracts": [],
      "isFixedGasLimit": false
    },
    {
      "hash": "0xc82915c218597f97da859a1d0602a87080b96ec2b19f372ea6e297d8ea32e0a1",
      "transactionType": "CALL",
      "contractName": null,
      "contractAddress": "0x2a07e30ceb718f199268b5cd1cd473500af53c52",
      "function": "setFeeMultiplier(uint8,uint256)",
      "arguments": [
        "1",
        "10"
      ],
      "transaction": {
        "from": "0xe62ab4d111f968660c6b2188046f9b9ba53c4bae",
        "to": "0x2a07e30ceb718f199268b5cd1cd473500af53c52",
        "gas": "0xf7ab",
        "value": "0x0",
        "input": "0x0ee24eb50000000000000000000000000000000000000000000000000000000000000001000000000000000000000000000000000000000000000000000000000000000a",
        "nonce": "0x586",
        "chainId": "0x66eee"
      },
      "additionalContracts": [],
      "isFixedGasLimit": false
    },
    {
      "hash": "0xf4a69f79112e9d1c9c4eda7692c37ceb5bc61fddfd8b7dfe293be46d74141e6f",
      "transactionType": "CALL",
      "contractName": null,
      "contractAddress": "0x2a07e30ceb718f199268b5cd1cd473500af53c52",
      "function": "setFeeMultiplier(uint8,uint256)",
      "arguments": [
        "2",
        "1"
      ],
      "transaction": {
        "from": "0xe62ab4d111f968660c6b2188046f9b9ba53c4bae",
        "to": "0x2a07e30ceb718f199268b5cd1cd473500af53c52",
        "gas": "0xf7c9",
        "value": "0x0",
        "input": "0x0ee24eb500000000000000000000000000000000000000000000000000000000000000020000000000000000000000000000000000000000000000000000000000000001",
        "nonce": "0x587",
        "chainId": "0x66eee"
      },
      "additionalContracts": [],
      "isFixedGasLimit": false
    },
    {
      "hash": "0x83c5e02ed8ac56a74b0cd9d25332c1f89e6e5218438aacd4f7dd4acc97641cb9",
      "transactionType": "CALL",
      "contractName": null,
      "contractAddress": "0x2a07e30ceb718f199268b5cd1cd473500af53c52",
      "function": "setFeeMultiplier(uint8,uint256)",
      "arguments": [
        "3",
        "4"
      ],
      "transaction": {
        "from": "0xe62ab4d111f968660c6b2188046f9b9ba53c4bae",
        "to": "0x2a07e30ceb718f199268b5cd1cd473500af53c52",
        "gas": "0xf7e7",
        "value": "0x0",
        "input": "0x0ee24eb500000000000000000000000000000000000000000000000000000000000000030000000000000000000000000000000000000000000000000000000000000004",
        "nonce": "0x588",
        "chainId": "0x66eee"
      },
      "additionalContracts": [],
      "isFixedGasLimit": false
    },
    {
      "hash": "0x383caa2be2b8cce0a7c2ec4202a898c7f493b8ec2d76735fdb31cbb30e14a297",
      "transactionType": "CALL",
      "contractName": null,
      "contractAddress": "0x2a07e30ceb718f199268b5cd1cd473500af53c52",
      "function": "setFeeMultiplier(uint8,uint256)",
      "arguments": [
        "4",
        "4"
      ],
      "transaction": {
        "from": "0xe62ab4d111f968660c6b2188046f9b9ba53c4bae",
        "to": "0x2a07e30ceb718f199268b5cd1cd473500af53c52",
        "gas": "0xf805",
        "value": "0x0",
        "input": "0x0ee24eb500000000000000000000000000000000000000000000000000000000000000040000000000000000000000000000000000000000000000000000000000000004",
        "nonce": "0x589",
        "chainId": "0x66eee"
      },
      "additionalContracts": [],
      "isFixedGasLimit": false
    },
    {
      "hash": "0x38710e80b6487c8c311db1d539b723b169a08ddbea864151c3b35e2df1bc0bc3",
      "transactionType": "CALL",
      "contractName": null,
      "contractAddress": "0x2a07e30ceb718f199268b5cd1cd473500af53c52",
      "function": "setFeeMultiplier(uint8,uint256)",
      "arguments": [
        "5",
        "4"
      ],
      "transaction": {
        "from": "0xe62ab4d111f968660c6b2188046f9b9ba53c4bae",
        "to": "0x2a07e30ceb718f199268b5cd1cd473500af53c52",
        "gas": "0xf823",
        "value": "0x0",
        "input": "0x0ee24eb500000000000000000000000000000000000000000000000000000000000000050000000000000000000000000000000000000000000000000000000000000004",
        "nonce": "0x58a",
        "chainId": "0x66eee"
      },
      "additionalContracts": [],
      "isFixedGasLimit": false
    },
    {
      "hash": "0xfbf70dc336d35d48388a692be2838fb5ba4f4a653ba62cf59859850e39b7b61c",
      "transactionType": "CALL",
      "contractName": null,
      "contractAddress": "0x2a07e30ceb718f199268b5cd1cd473500af53c52",
      "function": "setFeeMultiplier(uint8,uint256)",
      "arguments": [
        "6",
        "8"
      ],
      "transaction": {
        "from": "0xe62ab4d111f968660c6b2188046f9b9ba53c4bae",
        "to": "0x2a07e30ceb718f199268b5cd1cd473500af53c52",
        "gas": "0xf841",
        "value": "0x0",
        "input": "0x0ee24eb500000000000000000000000000000000000000000000000000000000000000060000000000000000000000000000000000000000000000000000000000000008",
        "nonce": "0x58b",
        "chainId": "0x66eee"
      },
      "additionalContracts": [],
      "isFixedGasLimit": false
    },
    {
      "hash": "0xef87fda2b81c09211a866f22f783887f8548041d58a1ed1922e06dd420f5c13a",
      "transactionType": "CALL",
      "contractName": null,
      "contractAddress": "0x2a07e30ceb718f199268b5cd1cd473500af53c52",
      "function": "setFeeMultiplier(uint8,uint256)",
      "arguments": [
        "7",
        "4"
      ],
      "transaction": {
        "from": "0xe62ab4d111f968660c6b2188046f9b9ba53c4bae",
        "to": "0x2a07e30ceb718f199268b5cd1cd473500af53c52",
        "gas": "0xf85f",
        "value": "0x0",
        "input": "0x0ee24eb500000000000000000000000000000000000000000000000000000000000000070000000000000000000000000000000000000000000000000000000000000004",
        "nonce": "0x58c",
        "chainId": "0x66eee"
      },
      "additionalContracts": [],
      "isFixedGasLimit": false
    },
    {
      "hash": "0x5ffdb09d7af3ab87a959f9fb86f09f23509beeb7482a82802889fd19dfb48a95",
      "transactionType": "CALL",
      "contractName": null,
      "contractAddress": "0x2a07e30ceb718f199268b5cd1cd473500af53c52",
      "function": "setFeeMultiplier(uint8,uint256)",
      "arguments": [
        "8",
        "10"
      ],
      "transaction": {
        "from": "0xe62ab4d111f968660c6b2188046f9b9ba53c4bae",
        "to": "0x2a07e30ceb718f199268b5cd1cd473500af53c52",
        "gas": "0xf87c",
        "value": "0x0",
        "input": "0x0ee24eb50000000000000000000000000000000000000000000000000000000000000008000000000000000000000000000000000000000000000000000000000000000a",
        "nonce": "0x58d",
        "chainId": "0x66eee"
      },
      "additionalContracts": [],
      "isFixedGasLimit": false
    },
    {
      "hash": "0x00f101cd778c0c7d4aa7081609b24a94cff36a215e93ce414edc2e9c40d4c001",
      "transactionType": "CALL",
      "contractName": null,
      "contractAddress": "0x2a07e30ceb718f199268b5cd1cd473500af53c52",
      "function": "setFeeMultiplier(uint8,uint256)",
      "arguments": [
        "9",
        "8"
      ],
      "transaction": {
        "from": "0xe62ab4d111f968660c6b2188046f9b9ba53c4bae",
        "to": "0x2a07e30ceb718f199268b5cd1cd473500af53c52",
        "gas": "0xf89a",
        "value": "0x0",
        "input": "0x0ee24eb500000000000000000000000000000000000000000000000000000000000000090000000000000000000000000000000000000000000000000000000000000008",
        "nonce": "0x58e",
        "chainId": "0x66eee"
      },
      "additionalContracts": [],
      "isFixedGasLimit": false
    },
    {
      "hash": "0xee4cb86008da392c7fa445783543f6b705eef878af2b6030135796cf26fedd13",
      "transactionType": "CALL",
      "contractName": null,
      "contractAddress": "0x2a07e30ceb718f199268b5cd1cd473500af53c52",
      "function": "setFeeMultiplier(uint8,uint256)",
      "arguments": [
        "10",
        "8"
      ],
      "transaction": {
        "from": "0xe62ab4d111f968660c6b2188046f9b9ba53c4bae",
        "to": "0x2a07e30ceb718f199268b5cd1cd473500af53c52",
        "gas": "0xf8b8",
        "value": "0x0",
        "input": "0x0ee24eb5000000000000000000000000000000000000000000000000000000000000000a0000000000000000000000000000000000000000000000000000000000000008",
        "nonce": "0x58f",
        "chainId": "0x66eee"
      },
      "additionalContracts": [],
      "isFixedGasLimit": false
    },
    {
      "hash": "0xd3eb811b33b61cc29ee129dece3774176214522e45d03fb61aa1a86bdaa671c1",
      "transactionType": "CALL",
      "contractName": null,
      "contractAddress": "0x2a07e30ceb718f199268b5cd1cd473500af53c52",
      "function": "setFeeMultiplier(uint8,uint256)",
      "arguments": [
        "11",
        "8"
      ],
      "transaction": {
        "from": "0xe62ab4d111f968660c6b2188046f9b9ba53c4bae",
        "to": "0x2a07e30ceb718f199268b5cd1cd473500af53c52",
        "gas": "0xf8d6",
        "value": "0x0",
        "input": "0x0ee24eb5000000000000000000000000000000000000000000000000000000000000000b0000000000000000000000000000000000000000000000000000000000000008",
        "nonce": "0x590",
        "chainId": "0x66eee"
      },
      "additionalContracts": [],
      "isFixedGasLimit": false
    },
    {
      "hash": "0x36b879fad316a486ea96e04e93826a1371ab621a971e9894bbb634ea861ad8ad",
      "transactionType": "CALL",
      "contractName": null,
      "contractAddress": "0x2a07e30ceb718f199268b5cd1cd473500af53c52",
      "function": "setFeeMultiplier(uint8,uint256)",
      "arguments": [
        "12",
        "20"
      ],
      "transaction": {
        "from": "0xe62ab4d111f968660c6b2188046f9b9ba53c4bae",
        "to": "0x2a07e30ceb718f199268b5cd1cd473500af53c52",
        "gas": "0xf8f4",
        "value": "0x0",
        "input": "0x0ee24eb5000000000000000000000000000000000000000000000000000000000000000c0000000000000000000000000000000000000000000000000000000000000014",
        "nonce": "0x591",
        "chainId": "0x66eee"
      },
      "additionalContracts": [],
      "isFixedGasLimit": false
    },
    {
      "hash": "0x13613f1d67e649ca4a9b80bd7cd7c72c31c67fab54b888879bce4f36523fa8dc",
      "transactionType": "CALL",
      "contractName": null,
      "contractAddress": "0x2a07e30ceb718f199268b5cd1cd473500af53c52",
      "function": "setFeeMultiplier(uint8,uint256)",
      "arguments": [
        "13",
        "8"
      ],
      "transaction": {
        "from": "0xe62ab4d111f968660c6b2188046f9b9ba53c4bae",
        "to": "0x2a07e30ceb718f199268b5cd1cd473500af53c52",
        "gas": "0xf912",
        "value": "0x0",
        "input": "0x0ee24eb5000000000000000000000000000000000000000000000000000000000000000d0000000000000000000000000000000000000000000000000000000000000008",
        "nonce": "0x592",
        "chainId": "0x66eee"
      },
      "additionalContracts": [],
      "isFixedGasLimit": false
    },
    {
      "hash": "0xf26261e55650689f2c63e75d44737d94bcaaf4cf3536e88124497cdc6e264bb2",
      "transactionType": "CALL",
      "contractName": null,
      "contractAddress": "0x2a07e30ceb718f199268b5cd1cd473500af53c52",
      "function": "setFeeMultiplier(uint8,uint256)",
      "arguments": [
        "14",
        "4"
      ],
      "transaction": {
        "from": "0xe62ab4d111f968660c6b2188046f9b9ba53c4bae",
        "to": "0x2a07e30ceb718f199268b5cd1cd473500af53c52",
        "gas": "0xf930",
        "value": "0x0",
        "input": "0x0ee24eb5000000000000000000000000000000000000000000000000000000000000000e0000000000000000000000000000000000000000000000000000000000000004",
        "nonce": "0x593",
        "chainId": "0x66eee"
      },
      "additionalContracts": [],
      "isFixedGasLimit": false
    },
    {
      "hash": "0xe5d8add9643d0b3d2b97313fd96f47650bdd92f173597359f8b19afe13d0af20",
      "transactionType": "CALL",
      "contractName": null,
      "contractAddress": "0x2a07e30ceb718f199268b5cd1cd473500af53c52",
      "function": "setFeeMultiplier(uint8,uint256)",
      "arguments": [
        "15",
        "4"
      ],
      "transaction": {
        "from": "0xe62ab4d111f968660c6b2188046f9b9ba53c4bae",
        "to": "0x2a07e30ceb718f199268b5cd1cd473500af53c52",
        "gas": "0xf94e",
        "value": "0x0",
        "input": "0x0ee24eb5000000000000000000000000000000000000000000000000000000000000000f0000000000000000000000000000000000000000000000000000000000000004",
        "nonce": "0x594",
        "chainId": "0x66eee"
      },
      "additionalContracts": [],
      "isFixedGasLimit": false
    },
    {
      "hash": "0x11d6883f83a5f40a937a1e5c8c22f45dde8acca6411d46c335568bbb6f9e9cba",
      "transactionType": "CALL",
      "contractName": null,
      "contractAddress": "0x2a07e30ceb718f199268b5cd1cd473500af53c52",
      "function": "setFeeMultiplier(uint8,uint256)",
      "arguments": [
        "16",
        "4"
      ],
      "transaction": {
        "from": "0xe62ab4d111f968660c6b2188046f9b9ba53c4bae",
        "to": "0x2a07e30ceb718f199268b5cd1cd473500af53c52",
        "gas": "0xf96c",
        "value": "0x0",
        "input": "0x0ee24eb500000000000000000000000000000000000000000000000000000000000000100000000000000000000000000000000000000000000000000000000000000004",
        "nonce": "0x595",
        "chainId": "0x66eee"
      },
      "additionalContracts": [],
      "isFixedGasLimit": false
    },
    {
      "hash": "0x33b9d0478342b8b7b13ee2ba8c78df16b3fe43f34819131f389f38ba2be89d78",
      "transactionType": "CALL",
      "contractName": null,
      "contractAddress": "0x2a07e30ceb718f199268b5cd1cd473500af53c52",
      "function": "setFeeMultiplier(uint8,uint256)",
      "arguments": [
        "17",
        "4"
      ],
      "transaction": {
        "from": "0xe62ab4d111f968660c6b2188046f9b9ba53c4bae",
        "to": "0x2a07e30ceb718f199268b5cd1cd473500af53c52",
        "gas": "0xf98a",
        "value": "0x0",
        "input": "0x0ee24eb500000000000000000000000000000000000000000000000000000000000000110000000000000000000000000000000000000000000000000000000000000004",
        "nonce": "0x596",
        "chainId": "0x66eee"
      },
      "additionalContracts": [],
      "isFixedGasLimit": false
    },
    {
      "hash": "0x8131d70c0932f8e2b4e12f3bc053a56d5c9b47364377c7c225826dae8bac4b96",
      "transactionType": "CALL",
      "contractName": null,
      "contractAddress": "0x2a07e30ceb718f199268b5cd1cd473500af53c52",
      "function": "setFeeMultiplier(uint8,uint256)",
      "arguments": [
        "18",
        "2"
      ],
      "transaction": {
        "from": "0xe62ab4d111f968660c6b2188046f9b9ba53c4bae",
        "to": "0x2a07e30ceb718f199268b5cd1cd473500af53c52",
        "gas": "0xf9a7",
        "value": "0x0",
        "input": "0x0ee24eb500000000000000000000000000000000000000000000000000000000000000120000000000000000000000000000000000000000000000000000000000000002",
        "nonce": "0x597",
        "chainId": "0x66eee"
      },
      "additionalContracts": [],
      "isFixedGasLimit": false
    },
    {
      "hash": "0xc091d5bdf65dd3788b547de6970749e1359625b163a9f2899aa4ffab8bc315c0",
      "transactionType": "CALL",
      "contractName": null,
      "contractAddress": "0x2a07e30ceb718f199268b5cd1cd473500af53c52",
      "function": "setFeeMultiplier(uint8,uint256)",
      "arguments": [
        "19",
        "2"
      ],
      "transaction": {
        "from": "0xe62ab4d111f968660c6b2188046f9b9ba53c4bae",
        "to": "0x2a07e30ceb718f199268b5cd1cd473500af53c52",
        "gas": "0xf9c0",
        "value": "0x0",
        "input": "0x0ee24eb500000000000000000000000000000000000000000000000000000000000000130000000000000000000000000000000000000000000000000000000000000002",
        "nonce": "0x598",
        "chainId": "0x66eee"
      },
      "additionalContracts": [],
      "isFixedGasLimit": false
    },
    {
      "hash": "0x23e82c87dc46bce4be853eecd538a212eb9cfdac8689d479ee712e535eafecbc",
      "transactionType": "CALL",
      "contractName": null,
      "contractAddress": "0x2a07e30ceb718f199268b5cd1cd473500af53c52",
      "function": "addFeeToken(string,string[],uint256[])",
      "arguments": [
        "421614",
        "[0xbf5356ade7e5f775659f301b07c4bc6961044b11]",
        "[100]"
      ],
      "transaction": {
        "from": "0xe62ab4d111f968660c6b2188046f9b9ba53c4bae",
        "to": "0x2a07e30ceb718f199268b5cd1cd473500af53c52",
        "gas": "0x31bbe",
        "value": "0x0",
        "input": "0x437bf84f000000000000000000000000000000000000000000000000000000000000006000000000000000000000000000000000000000000000000000000000000000a000000000000000000000000000000000000000000000000000000000000001400000000000000000000000000000000000000000000000000000000000000006343231363134000000000000000000000000000000000000000000000000000000000000000000000000000000000000000000000000000000000000000000010000000000000000000000000000000000000000000000000000000000000020000000000000000000000000000000000000000000000000000000000000002a3078626635333536616465376535663737353635396633303162303763346263363936313034346231310000000000000000000000000000000000000000000000000000000000000000000000000000000000000000000000000000000000010000000000000000000000000000000000000000000000000000000000000064",
        "nonce": "0x599",
        "chainId": "0x66eee"
      },
      "additionalContracts": [],
      "isFixedGasLimit": false
    },
    {
      "hash": "0x1a056a2794fe33077051fac36ac46a8d07ca8131fe893c3f3445a62f93d73ab7",
      "transactionType": "CALL",
      "contractName": null,
      "contractAddress": "0x2a07e30ceb718f199268b5cd1cd473500af53c52",
      "function": "addFeeToken(string,string[],uint256[])",
      "arguments": [
        "80002",
        "[0xbf5356ade7e5f775659f301b07c4bc6961044b11]",
        "[100]"
      ],
      "transaction": {
        "from": "0xe62ab4d111f968660c6b2188046f9b9ba53c4bae",
        "to": "0x2a07e30ceb718f199268b5cd1cd473500af53c52",
        "gas": "0x2c342",
        "value": "0x0",
        "input": "0x437bf84f000000000000000000000000000000000000000000000000000000000000006000000000000000000000000000000000000000000000000000000000000000a000000000000000000000000000000000000000000000000000000000000001400000000000000000000000000000000000000000000000000000000000000005383030303200000000000000000000000000000000000000000000000000000000000000000000000000000000000000000000000000000000000000000000010000000000000000000000000000000000000000000000000000000000000020000000000000000000000000000000000000000000000000000000000000002a3078626635333536616465376535663737353635396633303162303763346263363936313034346231310000000000000000000000000000000000000000000000000000000000000000000000000000000000000000000000000000000000010000000000000000000000000000000000000000000000000000000000000064",
        "nonce": "0x59a",
        "chainId": "0x66eee"
      },
      "additionalContracts": [],
      "isFixedGasLimit": false
    },
    {
      "hash": "0xd87850852324aef4303f65a2b3952129f1e69bb024c7abda2bcd21d3d1d59d02",
      "transactionType": "CALL",
      "contractName": null,
      "contractAddress": "0x2a07e30ceb718f199268b5cd1cd473500af53c52",
      "function": "addFeeToken(string,string[],uint256[])",
      "arguments": [
        "84532",
        "[0xbf5356ade7e5f775659f301b07c4bc6961044b11]",
        "[100]"
      ],
      "transaction": {
        "from": "0xe62ab4d111f968660c6b2188046f9b9ba53c4bae",
        "to": "0x2a07e30ceb718f199268b5cd1cd473500af53c52",
        "gas": "0x2c342",
        "value": "0x0",
        "input": "0x437bf84f000000000000000000000000000000000000000000000000000000000000006000000000000000000000000000000000000000000000000000000000000000a000000000000000000000000000000000000000000000000000000000000001400000000000000000000000000000000000000000000000000000000000000005383435333200000000000000000000000000000000000000000000000000000000000000000000000000000000000000000000000000000000000000000000010000000000000000000000000000000000000000000000000000000000000020000000000000000000000000000000000000000000000000000000000000002a3078626635333536616465376535663737353635396633303162303763346263363936313034346231310000000000000000000000000000000000000000000000000000000000000000000000000000000000000000000000000000000000010000000000000000000000000000000000000000000000000000000000000064",
        "nonce": "0x59b",
        "chainId": "0x66eee"
      },
      "additionalContracts": [],
      "isFixedGasLimit": false
    },
    {
      "hash": "0x159a1375e18c15d951df3330c5d74b742f5bda31fbf083675a678d66c2a28962",
      "transactionType": "CALL",
      "contractName": null,
      "contractAddress": "0x2a07e30ceb718f199268b5cd1cd473500af53c52",
      "function": "addFeeToken(string,string[],uint256[])",
      "arguments": [
        "97",
        "[0xbf5356ade7e5f775659f301b07c4bc6961044b11]",
        "[100]"
      ],
      "transaction": {
        "from": "0xe62ab4d111f968660c6b2188046f9b9ba53c4bae",
        "to": "0x2a07e30ceb718f199268b5cd1cd473500af53c52",
        "gas": "0x295af",
        "value": "0x0",
        "input": "0x437bf84f000000000000000000000000000000000000000000000000000000000000006000000000000000000000000000000000000000000000000000000000000000a000000000000000000000000000000000000000000000000000000000000001400000000000000000000000000000000000000000000000000000000000000002393700000000000000000000000000000000000000000000000000000000000000000000000000000000000000000000000000000000000000000000000000010000000000000000000000000000000000000000000000000000000000000020000000000000000000000000000000000000000000000000000000000000002a3078626635333536616465376535663737353635396633303162303763346263363936313034346231310000000000000000000000000000000000000000000000000000000000000000000000000000000000000000000000000000000000010000000000000000000000000000000000000000000000000000000000000064",
        "nonce": "0x59c",
        "chainId": "0x66eee"
      },
      "additionalContracts": [],
      "isFixedGasLimit": false
    },
    {
      "hash": "0x966269dd431da3fa317bdacbe43c4feb5f2b86b79bcfb18f262950a4e3fa6787",
      "transactionType": "CALL",
      "contractName": null,
      "contractAddress": "0x2a07e30ceb718f199268b5cd1cd473500af53c52",
      "function": "addFeeToken(string,string[],uint256[])",
      "arguments": [
        "11155111",
        "[0xbf5356ade7e5f775659f301b07c4bc6961044b11]",
        "[100]"
      ],
      "transaction": {
        "from": "0xe62ab4d111f968660c6b2188046f9b9ba53c4bae",
        "to": "0x2a07e30ceb718f199268b5cd1cd473500af53c52",
        "gas": "0x2a23f",
        "value": "0x0",
        "input": "0x437bf84f000000000000000000000000000000000000000000000000000000000000006000000000000000000000000000000000000000000000000000000000000000a000000000000000000000000000000000000000000000000000000000000001400000000000000000000000000000000000000000000000000000000000000008313131353531313100000000000000000000000000000000000000000000000000000000000000000000000000000000000000000000000000000000000000010000000000000000000000000000000000000000000000000000000000000020000000000000000000000000000000000000000000000000000000000000002a3078626635333536616465376535663737353635396633303162303763346263363936313034346231310000000000000000000000000000000000000000000000000000000000000000000000000000000000000000000000000000000000010000000000000000000000000000000000000000000000000000000000000064",
        "nonce": "0x59d",
        "chainId": "0x66eee"
      },
      "additionalContracts": [],
      "isFixedGasLimit": false
    },
    {
      "hash": "0x438e53e5665895bd65bc7e0640c99df220a4ab6f3ddd81d5155b18e9853fe7e5",
      "transactionType": "CALL",
      "contractName": null,
      "contractAddress": "0x67fd0c58bd8b925a3d3546ecc505653514b64013",
      "function": "addChainContract(string[],string[])",
      "arguments": [
        "[80002, 84532, 97, 11155111]",
        "[0x89330be16c672d4378b6731a8347d23b0c611de3, 0x3561aa249d1262a912764770bb8c387a7bbb56b6, 0x7240fcdb0dd116293044ed50db499680aa532eeb, 0xb406b937c12e03d676727fc1bb686279eedbc178]"
      ],
      "transaction": {
        "from": "0xe62ab4d111f968660c6b2188046f9b9ba53c4bae",
        "to": "0x67fd0c58bd8b925a3d3546ecc505653514b64013",
        "gas": "0xa1c0a",
        "value": "0x0",
        "input": "0x013fd3bd000000000000000000000000000000000000000000000000000000000000004000000000000000000000000000000000000000000000000000000000000001e00000000000000000000000000000000000000000000000000000000000000004000000000000000000000000000000000000000000000000000000000000008000000000000000000000000000000000000000000000000000000000000000c000000000000000000000000000000000000000000000000000000000000001000000000000000000000000000000000000000000000000000000000000000140000000000000000000000000000000000000000000000000000000000000000538303030320000000000000000000000000000000000000000000000000000000000000000000000000000000000000000000000000000000000000000000005383435333200000000000000000000000000000000000000000000000000000000000000000000000000000000000000000000000000000000000000000000023937000000000000000000000000000000000000000000000000000000000000000000000000000000000000000000000000000000000000000000000000000831313135353131310000000000000000000000000000000000000000000000000000000000000000000000000000000000000000000000000000000000000004000000000000000000000000000000000000000000000000000000000000008000000000000000000000000000000000000000000000000000000000000000e0000000000000000000000000000000000000000000000000000000000000014000000000000000000000000000000000000000000000000000000000000001a0000000000000000000000000000000000000000000000000000000000000002a30783839333330626531366336373264343337386236373331613833343764323362306336313164653300000000000000000000000000000000000000000000000000000000000000000000000000000000000000000000000000000000002a30783335363161613234396431323632613931323736343737306262386333383761376262623536623600000000000000000000000000000000000000000000000000000000000000000000000000000000000000000000000000000000002a30783732343066636462306464313136323933303434656435306462343939363830616135333265656200000000000000000000000000000000000000000000000000000000000000000000000000000000000000000000000000000000002a30786234303662393337633132653033643637363732376663316262363836323739656564626331373800000000000000000000000000000000000000000000",
        "nonce": "0x59e",
        "chainId": "0x66eee"
      },
      "additionalContracts": [],
      "isFixedGasLimit": false
    },
    {
      "hash": "0x48305fa345a3923c2435a298a0ee41c531b8570ac9607423d909e9a5d54f4102",
      "transactionType": "CALL",
      "contractName": null,
      "contractAddress": "0x67fd0c58bd8b925a3d3546ecc505653514b64013",
      "function": "attachRWAX(uint256,uint256,string[],string[])",
      "arguments": [
        "1",
        "1",
        "[421614, 80002, 84532, 97, 11155111]",
        "[0xa8f94374facdf9413407fd10af8954e20e299c5d, 0xb4317dba65486889643585a8d96c8d1990971cad, 0x410871e12756f751974379d56319ae5d34bb3eb5, 0x636d43798340603707c936c1a93597dc44effbee, 0xd455bb0f664ac8241b505729c3116f1acc441be4]"
      ],
      "transaction": {
        "from": "0xe62ab4d111f968660c6b2188046f9b9ba53c4bae",
        "to": "0x67fd0c58bd8b925a3d3546ecc505653514b64013",
        "gas": "0xf836b",
        "value": "0x0",
        "input": "0x33a5f5b40000000000000000000000000000000000000000000000000000000000000001000000000000000000000000000000000000000000000000000000000000000100000000000000000000000000000000000000000000000000000000000000800000000000000000000000000000000000000000000000000000000000000280000000000000000000000000000000000000000000000000000000000000000500000000000000000000000000000000000000000000000000000000000000a000000000000000000000000000000000000000000000000000000000000000e00000000000000000000000000000000000000000000000000000000000000120000000000000000000000000000000000000000000000000000000000000016000000000000000000000000000000000000000000000000000000000000001a00000000000000000000000000000000000000000000000000000000000000006343231363134000000000000000000000000000000000000000000000000000000000000000000000000000000000000000000000000000000000000000000053830303032000000000000000000000000000000000000000000000000000000000000000000000000000000000000000000000000000000000000000000000538343533320000000000000000000000000000000000000000000000000000000000000000000000000000000000000000000000000000000000000000000002393700000000000000000000000000000000000000000000000000000000000000000000000000000000000000000000000000000000000000000000000000083131313535313131000000000000000000000000000000000000000000000000000000000000000000000000000000000000000000000000000000000000000500000000000000000000000000000000000000000000000000000000000000a00000000000000000000000000000000000000000000000000000000000000100000000000000000000000000000000000000000000000000000000000000016000000000000000000000000000000000000000000000000000000000000001c00000000000000000000000000000000000000000000000000000000000000220000000000000000000000000000000000000000000000000000000000000002a30786138663934333734666163646639343133343037666431306166383935346532306532393963356400000000000000000000000000000000000000000000000000000000000000000000000000000000000000000000000000000000002a30786234333137646261363534383638383936343335383561386439366338643139393039373163616400000000000000000000000000000000000000000000000000000000000000000000000000000000000000000000000000000000002a30783431303837316531323735366637353139373433373964353633313961653564333462623365623500000000000000000000000000000000000000000000000000000000000000000000000000000000000000000000000000000000002a30783633366434333739383334303630333730376339333663316139333539376463343465666662656500000000000000000000000000000000000000000000000000000000000000000000000000000000000000000000000000000000002a30786434353562623066363634616338323431623530353732396333313136663161636334343162653400000000000000000000000000000000000000000000",
        "nonce": "0x59f",
        "chainId": "0x66eee"
      },
      "additionalContracts": [],
      "isFixedGasLimit": false
    },
    {
      "hash": "0xcc889ebea6a250e15d1b1d5e823eb8483f8086f787e69740908da03d467f5b9d",
      "transactionType": "CALL",
      "contractName": null,
      "contractAddress": "0x67fd0c58bd8b925a3d3546ecc505653514b64013",
      "function": "attachStorageManager(uint256,uint256,string[],string[])",
      "arguments": [
        "1",
        "1",
        "[421614, 80002, 84532, 97, 11155111]",
        "[0xe38f40efc472aae401ba1edf37edd98ba43f5266, 0x10a04ad4a73c8bb00ee5a29b27d11eee85390306, 0xa3d476bb425ad923483c5f699fab17dbeb4473be, 0x358498985e6ac7ca73f5110b415525ae04cb8313, 0xad77409a722056b0d41b5ce2f03a6b7a2b18e3ed]"
      ],
      "transaction": {
        "from": "0xe62ab4d111f968660c6b2188046f9b9ba53c4bae",
        "to": "0x67fd0c58bd8b925a3d3546ecc505653514b64013",
        "gas": "0xcccb7",
        "value": "0x0",
        "input": "0x2f68b4890000000000000000000000000000000000000000000000000000000000000001000000000000000000000000000000000000000000000000000000000000000100000000000000000000000000000000000000000000000000000000000000800000000000000000000000000000000000000000000000000000000000000280000000000000000000000000000000000000000000000000000000000000000500000000000000000000000000000000000000000000000000000000000000a000000000000000000000000000000000000000000000000000000000000000e00000000000000000000000000000000000000000000000000000000000000120000000000000000000000000000000000000000000000000000000000000016000000000000000000000000000000000000000000000000000000000000001a00000000000000000000000000000000000000000000000000000000000000006343231363134000000000000000000000000000000000000000000000000000000000000000000000000000000000000000000000000000000000000000000053830303032000000000000000000000000000000000000000000000000000000000000000000000000000000000000000000000000000000000000000000000538343533320000000000000000000000000000000000000000000000000000000000000000000000000000000000000000000000000000000000000000000002393700000000000000000000000000000000000000000000000000000000000000000000000000000000000000000000000000000000000000000000000000083131313535313131000000000000000000000000000000000000000000000000000000000000000000000000000000000000000000000000000000000000000500000000000000000000000000000000000000000000000000000000000000a00000000000000000000000000000000000000000000000000000000000000100000000000000000000000000000000000000000000000000000000000000016000000000000000000000000000000000000000000000000000000000000001c00000000000000000000000000000000000000000000000000000000000000220000000000000000000000000000000000000000000000000000000000000002a30786533386634306566633437326161653430316261316564663337656464393862613433663532363600000000000000000000000000000000000000000000000000000000000000000000000000000000000000000000000000000000002a30783130613034616434613733633862623030656535613239623237643131656565383533393033303600000000000000000000000000000000000000000000000000000000000000000000000000000000000000000000000000000000002a30786133643437366262343235616439323334383363356636393966616231376462656234343733626500000000000000000000000000000000000000000000000000000000000000000000000000000000000000000000000000000000002a30783335383439383938356536616337636137336635313130623431353532356165303463623833313300000000000000000000000000000000000000000000000000000000000000000000000000000000000000000000000000000000002a30786164373734303961373232303536623064343162356365326630336136623761326231386533656400000000000000000000000000000000000000000000",
        "nonce": "0x5a0",
        "chainId": "0x66eee"
      },
      "additionalContracts": [],
      "isFixedGasLimit": false
    }
  ],
  "receipts": [
    {
      "status": "0x1",
      "cumulativeGasUsed": "0x5f23",
      "logs": [],
      "logsBloom": "0x00000000000000000000000000000000000000000000000000000000000000000000000000000000000000000000000000000000000000000000000000000000000000000000000000000000000000000000000000000000000000000000000000000000000000000000000000000000000000000000000000000000000000000000000000000000000000000000000000000000000000000000000000000000000000000000000000000000000000000000000000000000000000000000000000000000000000000000000000000000000000000000000000000000000000000000000000000000000000000000000000000000000000000000000000000000",
      "type": "0x2",
      "transactionHash": "0x20278a61d9ad15d08f3c6b8c6fbca6b880497177bf3ccfa144c26ff28263671b",
      "transactionIndex": "0x1",
      "blockHash": "0xd9a0f3b4e366f309f0899bdc2ef36bbbbf5c3d719aea45e98d6a3f0521cc9d61",
      "blockNumber": "0x630a6db",
      "gasUsed": "0x5f23",
      "effectiveGasPrice": "0x5f5e100",
      "from": "0xe62ab4d111f968660c6b2188046f9b9ba53c4bae",
      "to": "0x2a07e30ceb718f199268b5cd1cd473500af53c52",
      "contractAddress": null,
      "gasUsedForL1": "0x70",
      "l1BlockNumber": "0x6e24e7"
    },
    {
      "status": "0x1",
      "cumulativeGasUsed": "0x1bd26",
      "logs": [
        {
          "address": "0x2a07e30ceb718f199268b5cd1cd473500af53c52",
          "topics": [
            "0x1394cfab38f3fc78ed77ea6f9318782a446d96e7dc8e9a6b0149f6be25c08bcf",
            "0x000000000000000000000000bf5356ade7e5f775659f301b07c4bc6961044b11"
          ],
          "data": "0x",
          "blockHash": "0xfab002a26483e0e7a15894e82ca677a27cc92ec84e3a4ec6f0d925a8aa9b7640",
          "blockNumber": "0x630a6fb",
          "transactionHash": "0xc69450994c6fabeaed0cd630b27abbd1cd001749dd37012b1a30e6bf72f78a7f",
          "transactionIndex": "0x1",
          "logIndex": "0x0",
          "removed": false
        }
      ],
      "logsBloom": "0x00000000000000000000000000000000000000000000000000400000000000000000000000000000000000000000000000000000000000000000000000000000000000000000000000000000000000000000001000000000000000000000000000000000000000000000000000000000000000000000000000000000000000000000000100000000000000000000000000000000000000000000000000000000400000000000000000000000000000000000000100000000000000000000000000000000000000000000000000000000000000000000000000000000000008000000000000020000000000000000000000000000000000020200000000000000",
      "type": "0x2",
      "transactionHash": "0xc69450994c6fabeaed0cd630b27abbd1cd001749dd37012b1a30e6bf72f78a7f",
      "transactionIndex": "0x1",
      "blockHash": "0xfab002a26483e0e7a15894e82ca677a27cc92ec84e3a4ec6f0d925a8aa9b7640",
      "blockNumber": "0x630a6fb",
      "gasUsed": "0x1bd26",
      "effectiveGasPrice": "0x5f5e100",
      "from": "0xe62ab4d111f968660c6b2188046f9b9ba53c4bae",
      "to": "0x2a07e30ceb718f199268b5cd1cd473500af53c52",
      "contractAddress": null,
      "gasUsedForL1": "0xec",
      "l1BlockNumber": "0x6e24e8"
    },
    {
      "status": "0x1",
      "cumulativeGasUsed": "0x2b20f",
      "logs": [],
      "logsBloom": "0x00000000000000000000000000000000000000000000000000000000000000000000000000000000000000000000000000000000000000000000000000000000000000000000000000000000000000000000000000000000000000000000000000000000000000000000000000000000000000000000000000000000000000000000000000000000000000000000000000000000000000000000000000000000000000000000000000000000000000000000000000000000000000000000000000000000000000000000000000000000000000000000000000000000000000000000000000000000000000000000000000000000000000000000000000000000",
      "type": "0x2",
      "transactionHash": "0x88417e4a71a4ef3ace8b1b75850c3c9a649782ed9dcc78871ef858e4d8d849cd",
      "transactionIndex": "0x2",
      "blockHash": "0x49cddead91b9d925ca871972d77b4f62bc336d106d1398867b8abf7d03c5a162",
      "blockNumber": "0x630a71c",
      "gasUsed": "0xbca7",
      "effectiveGasPrice": "0x5f5e100",
      "from": "0xe62ab4d111f968660c6b2188046f9b9ba53c4bae",
      "to": "0x2a07e30ceb718f199268b5cd1cd473500af53c52",
      "contractAddress": null,
      "gasUsedForL1": "0xae",
      "l1BlockNumber": "0x6e24e8"
    },
    {
      "status": "0x1",
      "cumulativeGasUsed": "0x44728",
      "logs": [],
      "logsBloom": "0x00000000000000000000000000000000000000000000000000000000000000000000000000000000000000000000000000000000000000000000000000000000000000000000000000000000000000000000000000000000000000000000000000000000000000000000000000000000000000000000000000000000000000000000000000000000000000000000000000000000000000000000000000000000000000000000000000000000000000000000000000000000000000000000000000000000000000000000000000000000000000000000000000000000000000000000000000000000000000000000000000000000000000000000000000000000",
      "type": "0x2",
      "transactionHash": "0xc82915c218597f97da859a1d0602a87080b96ec2b19f372ea6e297d8ea32e0a1",
      "transactionIndex": "0x3",
      "blockHash": "0x1c923a4d046e3f4b2b77541ac87381634c77c04d9da4ac525d0ede0de22099f7",
      "blockNumber": "0x630a73c",
      "gasUsed": "0xbcd0",
      "effectiveGasPrice": "0x5f5e100",
      "from": "0xe62ab4d111f968660c6b2188046f9b9ba53c4bae",
      "to": "0x2a07e30ceb718f199268b5cd1cd473500af53c52",
      "contractAddress": null,
      "gasUsedForL1": "0xae",
      "l1BlockNumber": "0x6e24e9"
    },
    {
      "status": "0x1",
      "cumulativeGasUsed": "0xbce7",
      "logs": [],
      "logsBloom": "0x00000000000000000000000000000000000000000000000000000000000000000000000000000000000000000000000000000000000000000000000000000000000000000000000000000000000000000000000000000000000000000000000000000000000000000000000000000000000000000000000000000000000000000000000000000000000000000000000000000000000000000000000000000000000000000000000000000000000000000000000000000000000000000000000000000000000000000000000000000000000000000000000000000000000000000000000000000000000000000000000000000000000000000000000000000000",
      "type": "0x2",
      "transactionHash": "0xf4a69f79112e9d1c9c4eda7692c37ceb5bc61fddfd8b7dfe293be46d74141e6f",
      "transactionIndex": "0x1",
      "blockHash": "0xcdd8343b9c8865439fa588a850a254d89cea80cd951176e5b5a6ff76f7ff88d5",
      "blockNumber": "0x630a75d",
      "gasUsed": "0xbce7",
      "effectiveGasPrice": "0x5f5e100",
      "from": "0xe62ab4d111f968660c6b2188046f9b9ba53c4bae",
      "to": "0x2a07e30ceb718f199268b5cd1cd473500af53c52",
      "contractAddress": null,
      "gasUsedForL1": "0xae",
      "l1BlockNumber": "0x6e24e9"
    },
    {
      "status": "0x1",
      "cumulativeGasUsed": "0x5d6c1f",
      "logs": [],
      "logsBloom": "0x00000000000000000000000000000000000000000000000000000000000000000000000000000000000000000000000000000000000000000000000000000000000000000000000000000000000000000000000000000000000000000000000000000000000000000000000000000000000000000000000000000000000000000000000000000000000000000000000000000000000000000000000000000000000000000000000000000000000000000000000000000000000000000000000000000000000000000000000000000000000000000000000000000000000000000000000000000000000000000000000000000000000000000000000000000000",
      "type": "0x2",
      "transactionHash": "0x83c5e02ed8ac56a74b0cd9d25332c1f89e6e5218438aacd4f7dd4acc97641cb9",
      "transactionIndex": "0x42",
      "blockHash": "0xf2c232a7726c853e2c19844dfbeffddc748d9e43d6bdf9516f3cd4400eac34f1",
      "blockNumber": "0x630a77e",
      "gasUsed": "0xbcfe",
      "effectiveGasPrice": "0x5f5e100",
      "from": "0xe62ab4d111f968660c6b2188046f9b9ba53c4bae",
      "to": "0x2a07e30ceb718f199268b5cd1cd473500af53c52",
      "contractAddress": null,
      "gasUsedForL1": "0xae",
      "l1BlockNumber": "0x6e24eb"
    },
    {
      "status": "0x1",
      "cumulativeGasUsed": "0xbd15",
      "logs": [],
      "logsBloom": "0x00000000000000000000000000000000000000000000000000000000000000000000000000000000000000000000000000000000000000000000000000000000000000000000000000000000000000000000000000000000000000000000000000000000000000000000000000000000000000000000000000000000000000000000000000000000000000000000000000000000000000000000000000000000000000000000000000000000000000000000000000000000000000000000000000000000000000000000000000000000000000000000000000000000000000000000000000000000000000000000000000000000000000000000000000000000",
      "type": "0x2",
      "transactionHash": "0x383caa2be2b8cce0a7c2ec4202a898c7f493b8ec2d76735fdb31cbb30e14a297",
      "transactionIndex": "0x1",
      "blockHash": "0xa239141c5fd00182f570ca640939a12fc1a188d27f03993a3ac405a394ff5a08",
      "blockNumber": "0x630a79f",
      "gasUsed": "0xbd15",
      "effectiveGasPrice": "0x5f5e100",
      "from": "0xe62ab4d111f968660c6b2188046f9b9ba53c4bae",
      "to": "0x2a07e30ceb718f199268b5cd1cd473500af53c52",
      "contractAddress": null,
      "gasUsedForL1": "0xae",
      "l1BlockNumber": "0x6e24eb"
    },
    {
      "status": "0x1",
      "cumulativeGasUsed": "0x4804d",
      "logs": [],
      "logsBloom": "0x00000000000000000000000000000000000000000000000000000000000000000000000000000000000000000000000000000000000000000000000000000000000000000000000000000000000000000000000000000000000000000000000000000000000000000000000000000000000000000000000000000000000000000000000000000000000000000000000000000000000000000000000000000000000000000000000000000000000000000000000000000000000000000000000000000000000000000000000000000000000000000000000000000000000000000000000000000000000000000000000000000000000000000000000000000000",
      "type": "0x2",
      "transactionHash": "0x38710e80b6487c8c311db1d539b723b169a08ddbea864151c3b35e2df1bc0bc3",
      "transactionIndex": "0x2",
      "blockHash": "0x32274fa5b61bf5522d68ee06c01fa9553eeb136a60bc833bea85d3c155d2224e",
      "blockNumber": "0x630a7c9",
      "gasUsed": "0xbf1b",
      "effectiveGasPrice": "0x5f5e100",
      "from": "0xe62ab4d111f968660c6b2188046f9b9ba53c4bae",
      "to": "0x2a07e30ceb718f199268b5cd1cd473500af53c52",
      "contractAddress": null,
      "gasUsedForL1": "0x29d",
      "l1BlockNumber": "0x6e24ec"
    },
    {
      "status": "0x1",
      "cumulativeGasUsed": "0x2f4e7",
      "logs": [],
      "logsBloom": "0x00000000000000000000000000000000000000000000000000000000000000000000000000000000000000000000000000000000000000000000000000000000000000000000000000000000000000000000000000000000000000000000000000000000000000000000000000000000000000000000000000000000000000000000000000000000000000000000000000000000000000000000000000000000000000000000000000000000000000000000000000000000000000000000000000000000000000000000000000000000000000000000000000000000000000000000000000000000000000000000000000000000000000000000000000000000",
      "type": "0x2",
      "transactionHash": "0xfbf70dc336d35d48388a692be2838fb5ba4f4a653ba62cf59859850e39b7b61c",
      "transactionIndex": "0x2",
      "blockHash": "0xa40402313a1689add60bd9b2a00b497a44c730e41c161064a4cf3afe338bc8f8",
      "blockNumber": "0x630a7cd",
      "gasUsed": "0xbf32",
      "effectiveGasPrice": "0x5f5e100",
      "from": "0xe62ab4d111f968660c6b2188046f9b9ba53c4bae",
      "to": "0x2a07e30ceb718f199268b5cd1cd473500af53c52",
      "contractAddress": null,
      "gasUsedForL1": "0x29d",
      "l1BlockNumber": "0x6e24ec"
    },
    {
      "status": "0x1",
      "cumulativeGasUsed": "0x31499",
      "logs": [],
      "logsBloom": "0x00000000000000000000000000000000000000000000000000000000000000000000000000000000000000000000000000000000000000000000000000000000000000000000000000000000000000000000000000000000000000000000000000000000000000000000000000000000000000000000000000000000000000000000000000000000000000000000000000000000000000000000000000000000000000000000000000000000000000000000000000000000000000000000000000000000000000000000000000000000000000000000000000000000000000000000000000000000000000000000000000000000000000000000000000000000",
      "type": "0x2",
      "transactionHash": "0xef87fda2b81c09211a866f22f783887f8548041d58a1ed1922e06dd420f5c13a",
      "transactionIndex": "0x3",
      "blockHash": "0xda3f4f0cdedc0022e5afd385f39542e0cce52ffd5e0acd3ab8f235020713adea",
      "blockNumber": "0x630a7d1",
      "gasUsed": "0xbf49",
      "effectiveGasPrice": "0x5f5e100",
      "from": "0xe62ab4d111f968660c6b2188046f9b9ba53c4bae",
      "to": "0x2a07e30ceb718f199268b5cd1cd473500af53c52",
      "contractAddress": null,
      "gasUsedForL1": "0x29d",
      "l1BlockNumber": "0x6e24ec"
    },
    {
      "status": "0x1",
      "cumulativeGasUsed": "0x326193",
      "logs": [],
      "logsBloom": "0x00000000000000000000000000000000000000000000000000000000000000000000000000000000000000000000000000000000000000000000000000000000000000000000000000000000000000000000000000000000000000000000000000000000000000000000000000000000000000000000000000000000000000000000000000000000000000000000000000000000000000000000000000000000000000000000000000000000000000000000000000000000000000000000000000000000000000000000000000000000000000000000000000000000000000000000000000000000000000000000000000000000000000000000000000000000",
      "type": "0x2",
      "transactionHash": "0x5ffdb09d7af3ab87a959f9fb86f09f23509beeb7482a82802889fd19dfb48a95",
      "transactionIndex": "0x23",
      "blockHash": "0x7035b7c5580c0bd366951e13b1968bea0ee82eae640eda15d02e9c72240f1a2d",
      "blockNumber": "0x630a7d5",
      "gasUsed": "0xbf60",
      "effectiveGasPrice": "0x5f5e100",
      "from": "0xe62ab4d111f968660c6b2188046f9b9ba53c4bae",
      "to": "0x2a07e30ceb718f199268b5cd1cd473500af53c52",
      "contractAddress": null,
      "gasUsedForL1": "0x29d",
      "l1BlockNumber": "0x6e24ec"
    },
    {
      "status": "0x1",
      "cumulativeGasUsed": "0x49076f",
      "logs": [],
      "logsBloom": "0x00000000000000000000000000000000000000000000000000000000000000000000000000000000000000000000000000000000000000000000000000000000000000000000000000000000000000000000000000000000000000000000000000000000000000000000000000000000000000000000000000000000000000000000000000000000000000000000000000000000000000000000000000000000000000000000000000000000000000000000000000000000000000000000000000000000000000000000000000000000000000000000000000000000000000000000000000000000000000000000000000000000000000000000000000000000",
      "type": "0x2",
      "transactionHash": "0x00f101cd778c0c7d4aa7081609b24a94cff36a215e93ce414edc2e9c40d4c001",
      "transactionIndex": "0x27",
      "blockHash": "0x0d8f8c9920b2b3d7a4de1b06702941af9d55fb5391692c6a31d612fc985802f3",
      "blockNumber": "0x630a7d9",
      "gasUsed": "0xbf77",
      "effectiveGasPrice": "0x5f5e100",
      "from": "0xe62ab4d111f968660c6b2188046f9b9ba53c4bae",
      "to": "0x2a07e30ceb718f199268b5cd1cd473500af53c52",
      "contractAddress": null,
      "gasUsedForL1": "0x29d",
      "l1BlockNumber": "0x6e24ec"
    },
    {
      "status": "0x1",
      "cumulativeGasUsed": "0xbf8e",
      "logs": [],
      "logsBloom": "0x00000000000000000000000000000000000000000000000000000000000000000000000000000000000000000000000000000000000000000000000000000000000000000000000000000000000000000000000000000000000000000000000000000000000000000000000000000000000000000000000000000000000000000000000000000000000000000000000000000000000000000000000000000000000000000000000000000000000000000000000000000000000000000000000000000000000000000000000000000000000000000000000000000000000000000000000000000000000000000000000000000000000000000000000000000000",
      "type": "0x2",
      "transactionHash": "0xee4cb86008da392c7fa445783543f6b705eef878af2b6030135796cf26fedd13",
      "transactionIndex": "0x1",
      "blockHash": "0x5e9aef1df73e505d7647e48cc3140b94954943adfbc5c0f55d733f0e7bd870fa",
      "blockNumber": "0x630a7fa",
      "gasUsed": "0xbf8e",
      "effectiveGasPrice": "0x5f5e100",
      "from": "0xe62ab4d111f968660c6b2188046f9b9ba53c4bae",
      "to": "0x2a07e30ceb718f199268b5cd1cd473500af53c52",
      "contractAddress": null,
      "gasUsedForL1": "0x29d",
      "l1BlockNumber": "0x6e24ed"
    },
    {
      "status": "0x1",
      "cumulativeGasUsed": "0xbfa5",
      "logs": [],
      "logsBloom": "0x00000000000000000000000000000000000000000000000000000000000000000000000000000000000000000000000000000000000000000000000000000000000000000000000000000000000000000000000000000000000000000000000000000000000000000000000000000000000000000000000000000000000000000000000000000000000000000000000000000000000000000000000000000000000000000000000000000000000000000000000000000000000000000000000000000000000000000000000000000000000000000000000000000000000000000000000000000000000000000000000000000000000000000000000000000000",
      "type": "0x2",
      "transactionHash": "0xd3eb811b33b61cc29ee129dece3774176214522e45d03fb61aa1a86bdaa671c1",
      "transactionIndex": "0x1",
      "blockHash": "0x0a22c44cee29736dd9da7937dbaf86439fd6219b065d313ab47055366655465f",
      "blockNumber": "0x630a81a",
      "gasUsed": "0xbfa5",
      "effectiveGasPrice": "0x5f5e100",
      "from": "0xe62ab4d111f968660c6b2188046f9b9ba53c4bae",
      "to": "0x2a07e30ceb718f199268b5cd1cd473500af53c52",
      "contractAddress": null,
      "gasUsedForL1": "0x29d",
      "l1BlockNumber": "0x6e24ed"
    },
    {
      "status": "0x1",
      "cumulativeGasUsed": "0xbfbc",
      "logs": [],
      "logsBloom": "0x00000000000000000000000000000000000000000000000000000000000000000000000000000000000000000000000000000000000000000000000000000000000000000000000000000000000000000000000000000000000000000000000000000000000000000000000000000000000000000000000000000000000000000000000000000000000000000000000000000000000000000000000000000000000000000000000000000000000000000000000000000000000000000000000000000000000000000000000000000000000000000000000000000000000000000000000000000000000000000000000000000000000000000000000000000000",
      "type": "0x2",
      "transactionHash": "0x36b879fad316a486ea96e04e93826a1371ab621a971e9894bbb634ea861ad8ad",
      "transactionIndex": "0x1",
      "blockHash": "0xb64648d52d0908014fefdc9303011db5ae3aa4c97b56cad69233f68cc37ecd35",
      "blockNumber": "0x630a81f",
      "gasUsed": "0xbfbc",
      "effectiveGasPrice": "0x5f5e100",
      "from": "0xe62ab4d111f968660c6b2188046f9b9ba53c4bae",
      "to": "0x2a07e30ceb718f199268b5cd1cd473500af53c52",
      "contractAddress": null,
      "gasUsedForL1": "0x29d",
      "l1BlockNumber": "0x6e24ed"
    },
    {
      "status": "0x1",
      "cumulativeGasUsed": "0xbfd3",
      "logs": [],
      "logsBloom": "0x00000000000000000000000000000000000000000000000000000000000000000000000000000000000000000000000000000000000000000000000000000000000000000000000000000000000000000000000000000000000000000000000000000000000000000000000000000000000000000000000000000000000000000000000000000000000000000000000000000000000000000000000000000000000000000000000000000000000000000000000000000000000000000000000000000000000000000000000000000000000000000000000000000000000000000000000000000000000000000000000000000000000000000000000000000000",
      "type": "0x2",
      "transactionHash": "0x13613f1d67e649ca4a9b80bd7cd7c72c31c67fab54b888879bce4f36523fa8dc",
      "transactionIndex": "0x1",
      "blockHash": "0x67e6efb12c3d6879951c3a7dbdc816d12867bec11144b341799619f5b5d3f5d5",
      "blockNumber": "0x630a823",
      "gasUsed": "0xbfd3",
      "effectiveGasPrice": "0x5f5e100",
      "from": "0xe62ab4d111f968660c6b2188046f9b9ba53c4bae",
      "to": "0x2a07e30ceb718f199268b5cd1cd473500af53c52",
      "contractAddress": null,
      "gasUsedForL1": "0x29d",
      "l1BlockNumber": "0x6e24ed"
    },
    {
      "status": "0x1",
      "cumulativeGasUsed": "0x50ce0",
      "logs": [],
      "logsBloom": "0x00000000000000000000000000000000000000000000000000000000000000000000000000000000000000000000000000000000000000000000000000000000000000000000000000000000000000000000000000000000000000000000000000000000000000000000000000000000000000000000000000000000000000000000000000000000000000000000000000000000000000000000000000000000000000000000000000000000000000000000000000000000000000000000000000000000000000000000000000000000000000000000000000000000000000000000000000000000000000000000000000000000000000000000000000000000",
      "type": "0x2",
      "transactionHash": "0xf26261e55650689f2c63e75d44737d94bcaaf4cf3536e88124497cdc6e264bb2",
      "transactionIndex": "0x4",
      "blockHash": "0xb0915b2aca2b8ab12de93649cfd87e24f96ae1e10fa043b1eb8f87bf9ea6a429",
      "blockNumber": "0x630a827",
      "gasUsed": "0xbfea",
      "effectiveGasPrice": "0x5f5e100",
      "from": "0xe62ab4d111f968660c6b2188046f9b9ba53c4bae",
      "to": "0x2a07e30ceb718f199268b5cd1cd473500af53c52",
      "contractAddress": null,
      "gasUsedForL1": "0x29d",
      "l1BlockNumber": "0x6e24ed"
    },
    {
      "status": "0x1",
      "cumulativeGasUsed": "0x39b6f",
      "logs": [],
      "logsBloom": "0x00000000000000000000000000000000000000000000000000000000000000000000000000000000000000000000000000000000000000000000000000000000000000000000000000000000000000000000000000000000000000000000000000000000000000000000000000000000000000000000000000000000000000000000000000000000000000000000000000000000000000000000000000000000000000000000000000000000000000000000000000000000000000000000000000000000000000000000000000000000000000000000000000000000000000000000000000000000000000000000000000000000000000000000000000000000",
      "type": "0x2",
      "transactionHash": "0xe5d8add9643d0b3d2b97313fd96f47650bdd92f173597359f8b19afe13d0af20",
      "transactionIndex": "0x2",
      "blockHash": "0x1d1ab8306f8716d364cecb35841d175043ddd059abece94c1ddf93fac07aff36",
      "blockNumber": "0x630a848",
      "gasUsed": "0xc001",
      "effectiveGasPrice": "0x5f5e100",
      "from": "0xe62ab4d111f968660c6b2188046f9b9ba53c4bae",
      "to": "0x2a07e30ceb718f199268b5cd1cd473500af53c52",
      "contractAddress": null,
      "gasUsedForL1": "0x29d",
      "l1BlockNumber": "0x6e24ed"
    },
    {
      "status": "0x1",
      "cumulativeGasUsed": "0x393cd",
      "logs": [],
      "logsBloom": "0x00000000000000000000000000000000000000000000000000000000000000000000000000000000000000000000000000000000000000000000000000000000000000000000000000000000000000000000000000000000000000000000000000000000000000000000000000000000000000000000000000000000000000000000000000000000000000000000000000000000000000000000000000000000000000000000000000000000000000000000000000000000000000000000000000000000000000000000000000000000000000000000000000000000000000000000000000000000000000000000000000000000000000000000000000000000",
      "type": "0x2",
      "transactionHash": "0x11d6883f83a5f40a937a1e5c8c22f45dde8acca6411d46c335568bbb6f9e9cba",
      "transactionIndex": "0x3",
      "blockHash": "0xff722f9bbc42edb942f69056f416b88e8a3eac3c4203021cde22030793dc2ba6",
      "blockNumber": "0x630a868",
      "gasUsed": "0xc018",
      "effectiveGasPrice": "0x5f5e100",
      "from": "0xe62ab4d111f968660c6b2188046f9b9ba53c4bae",
      "to": "0x2a07e30ceb718f199268b5cd1cd473500af53c52",
      "contractAddress": null,
      "gasUsedForL1": "0x29d",
      "l1BlockNumber": "0x6e24ef"
    },
    {
      "status": "0x1",
      "cumulativeGasUsed": "0xc02f",
      "logs": [],
      "logsBloom": "0x00000000000000000000000000000000000000000000000000000000000000000000000000000000000000000000000000000000000000000000000000000000000000000000000000000000000000000000000000000000000000000000000000000000000000000000000000000000000000000000000000000000000000000000000000000000000000000000000000000000000000000000000000000000000000000000000000000000000000000000000000000000000000000000000000000000000000000000000000000000000000000000000000000000000000000000000000000000000000000000000000000000000000000000000000000000",
      "type": "0x2",
      "transactionHash": "0x33b9d0478342b8b7b13ee2ba8c78df16b3fe43f34819131f389f38ba2be89d78",
      "transactionIndex": "0x1",
      "blockHash": "0x7428aca4ba119ea9e65fd34ad9f046ff6b4f1a80f70e78dc4424f30696c10e88",
      "blockNumber": "0x630a886",
      "gasUsed": "0xc02f",
      "effectiveGasPrice": "0x5f5e100",
      "from": "0xe62ab4d111f968660c6b2188046f9b9ba53c4bae",
      "to": "0x2a07e30ceb718f199268b5cd1cd473500af53c52",
      "contractAddress": null,
      "gasUsedForL1": "0x29d",
      "l1BlockNumber": "0x6e24ef"
    },
    {
      "status": "0x1",
      "cumulativeGasUsed": "0x20e43",
      "logs": [],
      "logsBloom": "0x00000000000000000000000000000000000000000000000000000000000000000000000000000000000000000000000000000000000000000000000000000000000000000000000000000000000000000000000000000000000000000000000000000000000000000000000000000000000000000000000000000000000000000000000000000000000000000000000000000000000000000000000000000000000000000000000000000000000000000000000000000000000000000000000000000000000000000000000000000000000000000000000000000000000000000000000000000000000000000000000000000000000000000000000000000000",
      "type": "0x2",
      "transactionHash": "0x8131d70c0932f8e2b4e12f3bc053a56d5c9b47364377c7c225826dae8bac4b96",
      "transactionIndex": "0x3",
      "blockHash": "0x98e86b35f2025801b6536e05c9db82da0ae9bf3426660fc18b8959e3a504c497",
      "blockNumber": "0x630a8a4",
      "gasUsed": "0xc046",
      "effectiveGasPrice": "0x5f5e100",
      "from": "0xe62ab4d111f968660c6b2188046f9b9ba53c4bae",
      "to": "0x2a07e30ceb718f199268b5cd1cd473500af53c52",
      "contractAddress": null,
      "gasUsedForL1": "0x29d",
      "l1BlockNumber": "0x6e24f0"
    },
    {
      "status": "0x1",
      "cumulativeGasUsed": "0x43cfc",
      "logs": [],
      "logsBloom": "0x00000000000000000000000000000000000000000000000000000000000000000000000000000000000000000000000000000000000000000000000000000000000000000000000000000000000000000000000000000000000000000000000000000000000000000000000000000000000000000000000000000000000000000000000000000000000000000000000000000000000000000000000000000000000000000000000000000000000000000000000000000000000000000000000000000000000000000000000000000000000000000000000000000000000000000000000000000000000000000000000000000000000000000000000000000000",
      "type": "0x2",
      "transactionHash": "0xc091d5bdf65dd3788b547de6970749e1359625b163a9f2899aa4ffab8bc315c0",
      "transactionIndex": "0x2",
      "blockHash": "0x1366afbfda16528a3b5860d953cf7ae27cf30e05ca1412dc5319035e02b1287a",
      "blockNumber": "0x630a8a8",
      "gasUsed": "0xc058",
      "effectiveGasPrice": "0x5f5e100",
      "from": "0xe62ab4d111f968660c6b2188046f9b9ba53c4bae",
      "to": "0x2a07e30ceb718f199268b5cd1cd473500af53c52",
      "contractAddress": null,
      "gasUsedForL1": "0x29d",
      "l1BlockNumber": "0x6e24f0"
    },
    {
      "status": "0x1",
      "cumulativeGasUsed": "0x41ccf",
      "logs": [],
      "logsBloom": "0x00000000000000000000000000000000000000000000000000000000000000000000000000000000000000000000000000000000000000000000000000000000000000000000000000000000000000000000000000000000000000000000000000000000000000000000000000000000000000000000000000000000000000000000000000000000000000000000000000000000000000000000000000000000000000000000000000000000000000000000000000000000000000000000000000000000000000000000000000000000000000000000000000000000000000000000000000000000000000000000000000000000000000000000000000000000",
      "type": "0x2",
      "transactionHash": "0x23e82c87dc46bce4be853eecd538a212eb9cfdac8689d479ee712e535eafecbc",
      "transactionIndex": "0x2",
      "blockHash": "0x375d0474d788b8a9df4d16c6cef9f93e736992898940475fd39139ad437f27a9",
      "blockNumber": "0x630a8ac",
      "gasUsed": "0x22453",
      "effectiveGasPrice": "0x5f5e100",
      "from": "0xe62ab4d111f968660c6b2188046f9b9ba53c4bae",
      "to": "0x2a07e30ceb718f199268b5cd1cd473500af53c52",
      "contractAddress": null,
      "gasUsedForL1": "0x43a",
      "l1BlockNumber": "0x6e24f0"
    },
    {
      "status": "0x1",
      "cumulativeGasUsed": "0x2b332",
      "logs": [],
      "logsBloom": "0x00000000000000000000000000000000000000000000000000000000000000000000000000000000000000000000000000000000000000000000000000000000000000000000000000000000000000000000000000000000000000000000000000000000000000000000000000000000000000000000000000000000000000000000000000000000000000000000000000000000000000000000000000000000000000000000000000000000000000000000000000000000000000000000000000000000000000000000000000000000000000000000000000000000000000000000000000000000000000000000000000000000000000000000000000000000",
      "type": "0x2",
      "transactionHash": "0x1a056a2794fe33077051fac36ac46a8d07ca8131fe893c3f3445a62f93d73ab7",
      "transactionIndex": "0x2",
      "blockHash": "0x8e17d9a9bf74aa13f4f0b242d6253720d962d806a5a2fb28214f746665ed6390",
      "blockNumber": "0x630a8b0",
      "gasUsed": "0x1e7de",
      "effectiveGasPrice": "0x5f5e100",
      "from": "0xe62ab4d111f968660c6b2188046f9b9ba53c4bae",
      "to": "0x2a07e30ceb718f199268b5cd1cd473500af53c52",
      "contractAddress": null,
      "gasUsedForL1": "0x445",
      "l1BlockNumber": "0x6e24f0"
    },
    {
      "status": "0x1",
      "cumulativeGasUsed": "0x35ef8",
      "logs": [],
      "logsBloom": "0x00000000000000000000000000000000000000000000000000000000000000000000000000000000000000000000000000000000000000000000000000000000000000000000000000000000000000000000000000000000000000000000000000000000000000000000000000000000000000000000000000000000000000000000000000000000000000000000000000000000000000000000000000000000000000000000000000000000000000000000000000000000000000000000000000000000000000000000000000000000000000000000000000000000000000000000000000000000000000000000000000000000000000000000000000000000",
      "type": "0x2",
      "transactionHash": "0xd87850852324aef4303f65a2b3952129f1e69bb024c7abda2bcd21d3d1d59d02",
      "transactionIndex": "0x2",
      "blockHash": "0x0cceb4432bd7f3d1bcfa33d7f099faba70fa0fc74ff32bba502577fa3152e8f5",
      "blockNumber": "0x630a8b4",
      "gasUsed": "0x1e7e9",
      "effectiveGasPrice": "0x5f5e100",
      "from": "0xe62ab4d111f968660c6b2188046f9b9ba53c4bae",
      "to": "0x2a07e30ceb718f199268b5cd1cd473500af53c52",
      "contractAddress": null,
      "gasUsedForL1": "0x450",
      "l1BlockNumber": "0x6e24f0"
    },
    {
      "status": "0x1",
      "cumulativeGasUsed": "0x1e331",
      "logs": [],
      "logsBloom": "0x00000000000000000000000000000000000000000000000000000000000000000000000000000000000000000000000000000000000000000000000000000000000000000000000000000000000000000000000000000000000000000000000000000000000000000000000000000000000000000000000000000000000000000000000000000000000000000000000000000000000000000000000000000000000000000000000000000000000000000000000000000000000000000000000000000000000000000000000000000000000000000000000000000000000000000000000000000000000000000000000000000000000000000000000000000000",
      "type": "0x2",
      "transactionHash": "0x159a1375e18c15d951df3330c5d74b742f5bda31fbf083675a678d66c2a28962",
      "transactionIndex": "0x1",
      "blockHash": "0x157b666103af3830401cc6b8562336ef8bd467e07132231fd9c9d7231d7f9e8e",
      "blockNumber": "0x630a8b8",
      "gasUsed": "0x1e331",
      "effectiveGasPrice": "0x5f5e100",
      "from": "0xe62ab4d111f968660c6b2188046f9b9ba53c4bae",
      "to": "0x2a07e30ceb718f199268b5cd1cd473500af53c52",
      "contractAddress": null,
      "gasUsedForL1": "0x424",
      "l1BlockNumber": "0x6e24f0"
    },
    {
      "status": "0x1",
      "cumulativeGasUsed": "0x151eb5",
      "logs": [],
      "logsBloom": "0x00000000000000000000000000000000000000000000000000000000000000000000000000000000000000000000000000000000000000000000000000000000000000000000000000000000000000000000000000000000000000000000000000000000000000000000000000000000000000000000000000000000000000000000000000000000000000000000000000000000000000000000000000000000000000000000000000000000000000000000000000000000000000000000000000000000000000000000000000000000000000000000000000000000000000000000000000000000000000000000000000000000000000000000000000000000",
      "type": "0x2",
      "transactionHash": "0x966269dd431da3fa317bdacbe43c4feb5f2b86b79bcfb18f262950a4e3fa6787",
      "transactionIndex": "0x3",
      "blockHash": "0x625f3e2fa911a022b99ea4ad0c5127a19cda969150f12e86d16957ec73430d3f",
      "blockNumber": "0x630a8bb",
      "gasUsed": "0x1ec58",
      "effectiveGasPrice": "0x5f5e100",
      "from": "0xe62ab4d111f968660c6b2188046f9b9ba53c4bae",
      "to": "0x2a07e30ceb718f199268b5cd1cd473500af53c52",
      "contractAddress": null,
      "gasUsedForL1": "0x433",
      "l1BlockNumber": "0x6e24f0"
    },
    {
      "status": "0x1",
      "cumulativeGasUsed": "0xa9649",
      "logs": [],
      "logsBloom": "0x00000000000000000000000000000000000000000000000000000000000000000000000000000000000000000000000000000000000000000000000000000000000000000000000000000000000000000000000000000000000000000000000000000000000000000000000000000000000000000000000000000000000000000000000000000000000000000000000000000000000000000000000000000000000000000000000000000000000000000000000000000000000000000000000000000000000000000000000000000000000000000000000000000000000000000000000000000000000000000000000000000000000000000000000000000000",
      "type": "0x2",
      "transactionHash": "0x438e53e5665895bd65bc7e0640c99df220a4ab6f3ddd81d5155b18e9853fe7e5",
      "transactionIndex": "0x3",
      "blockHash": "0xff3f66067fcdb5ae997173d5a83e6d83c42b6b9a90c6aa0ea0e67697efb93131",
      "blockNumber": "0x630a8db",
      "gasUsed": "0x7b6e2",
      "effectiveGasPrice": "0x5f5e100",
      "from": "0xe62ab4d111f968660c6b2188046f9b9ba53c4bae",
      "to": "0x67fd0c58bd8b925a3d3546ecc505653514b64013",
      "contractAddress": null,
      "gasUsedForL1": "0x633",
      "l1BlockNumber": "0x6e24f1"
    },
    {
      "status": "0x1",
      "cumulativeGasUsed": "0xcf015",
      "logs": [],
      "logsBloom": "0x00000000000000000000000000000000000000000000000000000000000000000000000000000000000000000000000000000000000000000000000000000000000000000000000000000000000000000000000000000000000000000000000000000000000000000000000000000000000000000000000000000000000000000000000000000000000000000000000000000000000000000000000000000000000000000000000000000000000000000000000000000000000000000000000000000000000000000000000000000000000000000000000000000000000000000000000000000000000000000000000000000000000000000000000000000000",
      "type": "0x2",
      "transactionHash": "0x48305fa345a3923c2435a298a0ee41c531b8570ac9607423d909e9a5d54f4102",
      "transactionIndex": "0x2",
      "blockHash": "0x67b0ae033364d187797b4c45bdfdbdfd9090fbb16fc43f1a3749d63984c05ab3",
      "blockNumber": "0x630a8fb",
      "gasUsed": "0xbd708",
      "effectiveGasPrice": "0x5f5e100",
      "from": "0xe62ab4d111f968660c6b2188046f9b9ba53c4bae",
      "to": "0x67fd0c58bd8b925a3d3546ecc505653514b64013",
      "contractAddress": null,
      "gasUsedForL1": "0x6c2",
      "l1BlockNumber": "0x6e24f1"
    },
    {
      "status": "0x1",
      "cumulativeGasUsed": "0xe2e92",
      "logs": [],
      "logsBloom": "0x00000000000000000000000000000000000000000000000000000000000000000000000000000000000000000000000000000000000000000000000000000000000000000000000000000000000000000000000000000000000000000000000000000000000000000000000000000000000000000000000000000000000000000000000000000000000000000000000000000000000000000000000000000000000000000000000000000000000000000000000000000000000000000000000000000000000000000000000000000000000000000000000000000000000000000000000000000000000000000000000000000000000000000000000000000000",
      "type": "0x2",
      "transactionHash": "0xcc889ebea6a250e15d1b1d5e823eb8483f8086f787e69740908da03d467f5b9d",
      "transactionIndex": "0x3",
      "blockHash": "0x80b77818e7fd7c8ab3e5f3bb3a12f3a0922759a426f06e4438145ef5062592b7",
      "blockNumber": "0x630a8ff",
      "gasUsed": "0x9c4d9",
      "effectiveGasPrice": "0x5f5e100",
      "from": "0xe62ab4d111f968660c6b2188046f9b9ba53c4bae",
      "to": "0x67fd0c58bd8b925a3d3546ecc505653514b64013",
      "contractAddress": null,
      "gasUsedForL1": "0x6c2",
      "l1BlockNumber": "0x6e24f1"
    }
  ],
  "libraries": [],
  "pending": [],
  "returns": {},
  "timestamp": 1733427909,
  "chain": 421614,
  "commit": "d684feb7"
}