{
  "transactions": [
    {
      "hash": "0x32af9140fad1ab47ca828a242aa65f2de76458d5de1a16c2585f1a2451d743b3",
      "transactionType": "CALL",
      "contractName": null,
      "contractAddress": "0x7e61a5af95fc6efac03f7d92320f42b2c2fe96f0",
      "function": "getFeeTokenList()",
      "arguments": [],
      "transaction": {
        "from": "0xe62ab4d111f968660c6b2188046f9b9ba53c4bae",
        "to": "0x7e61a5af95fc6efac03f7d92320f42b2c2fe96f0",
        "gas": "0x8880",
        "value": "0x0",
        "input": "0xe28ab277",
        "nonce": "0x795",
        "chainId": "0x66eee"
      },
      "additionalContracts": [],
      "isFixedGasLimit": false
    },
    {
      "hash": "0xed5906797a9fd20e79eb2b93d4e8cdcd4cbd5dcf1af2f37bf1273fe24d9214a6",
      "transactionType": "CALL",
      "contractName": null,
      "contractAddress": "0x7e61a5af95fc6efac03f7d92320f42b2c2fe96f0",
      "function": "setFeeMultiplier(uint8,uint256)",
      "arguments": [
        "0",
        "2"
      ],
      "transaction": {
        "from": "0xe62ab4d111f968660c6b2188046f9b9ba53c4bae",
        "to": "0x7e61a5af95fc6efac03f7d92320f42b2c2fe96f0",
        "gas": "0x910b",
        "value": "0x0",
        "input": "0x0ee24eb500000000000000000000000000000000000000000000000000000000000000000000000000000000000000000000000000000000000000000000000000000002",
        "nonce": "0x796",
        "chainId": "0x66eee"
      },
      "additionalContracts": [],
      "isFixedGasLimit": false
    },
    {
      "hash": "0x803e684eebf04a877a2ca1d6466bd70ea91fe83a0961dad47bb6d170a5c83811",
      "transactionType": "CALL",
      "contractName": null,
      "contractAddress": "0x7e61a5af95fc6efac03f7d92320f42b2c2fe96f0",
      "function": "setFeeMultiplier(uint8,uint256)",
      "arguments": [
        "1",
        "10"
      ],
      "transaction": {
        "from": "0xe62ab4d111f968660c6b2188046f9b9ba53c4bae",
        "to": "0x7e61a5af95fc6efac03f7d92320f42b2c2fe96f0",
        "gas": "0x9141",
        "value": "0x0",
        "input": "0x0ee24eb50000000000000000000000000000000000000000000000000000000000000001000000000000000000000000000000000000000000000000000000000000000a",
        "nonce": "0x797",
        "chainId": "0x66eee"
      },
      "additionalContracts": [],
      "isFixedGasLimit": false
    },
    {
      "hash": "0xff1411592de195e9dbb31253090487462396c529cc587976d41ccfd0d4ed1466",
      "transactionType": "CALL",
      "contractName": null,
      "contractAddress": "0x7e61a5af95fc6efac03f7d92320f42b2c2fe96f0",
      "function": "setFeeMultiplier(uint8,uint256)",
      "arguments": [
        "2",
        "1"
      ],
      "transaction": {
        "from": "0xe62ab4d111f968660c6b2188046f9b9ba53c4bae",
        "to": "0x7e61a5af95fc6efac03f7d92320f42b2c2fe96f0",
        "gas": "0x915f",
        "value": "0x0",
        "input": "0x0ee24eb500000000000000000000000000000000000000000000000000000000000000020000000000000000000000000000000000000000000000000000000000000001",
        "nonce": "0x798",
        "chainId": "0x66eee"
      },
      "additionalContracts": [],
      "isFixedGasLimit": false
    },
    {
      "hash": "0xad9bc5048ea41c9027f607521b08f7f28fe48b20fc8a6e3912a20299400baed5",
      "transactionType": "CALL",
      "contractName": null,
      "contractAddress": "0x7e61a5af95fc6efac03f7d92320f42b2c2fe96f0",
      "function": "setFeeMultiplier(uint8,uint256)",
      "arguments": [
        "3",
        "4"
      ],
      "transaction": {
        "from": "0xe62ab4d111f968660c6b2188046f9b9ba53c4bae",
        "to": "0x7e61a5af95fc6efac03f7d92320f42b2c2fe96f0",
        "gas": "0x917d",
        "value": "0x0",
        "input": "0x0ee24eb500000000000000000000000000000000000000000000000000000000000000030000000000000000000000000000000000000000000000000000000000000004",
        "nonce": "0x799",
        "chainId": "0x66eee"
      },
      "additionalContracts": [],
      "isFixedGasLimit": false
    },
    {
      "hash": "0x48f303ad7864e5c9c6f2b39972dc57694497d3015eda69af3c61f6bec63a8219",
      "transactionType": "CALL",
      "contractName": null,
      "contractAddress": "0x7e61a5af95fc6efac03f7d92320f42b2c2fe96f0",
      "function": "setFeeMultiplier(uint8,uint256)",
      "arguments": [
        "4",
        "4"
      ],
      "transaction": {
        "from": "0xe62ab4d111f968660c6b2188046f9b9ba53c4bae",
        "to": "0x7e61a5af95fc6efac03f7d92320f42b2c2fe96f0",
        "gas": "0x919a",
        "value": "0x0",
        "input": "0x0ee24eb500000000000000000000000000000000000000000000000000000000000000040000000000000000000000000000000000000000000000000000000000000004",
        "nonce": "0x79a",
        "chainId": "0x66eee"
      },
      "additionalContracts": [],
      "isFixedGasLimit": false
    },
    {
      "hash": "0x01b4713035285553c780a11bea43ea4d5ba76aa1181375004351130f01caa10a",
      "transactionType": "CALL",
      "contractName": null,
      "contractAddress": "0x7e61a5af95fc6efac03f7d92320f42b2c2fe96f0",
      "function": "setFeeMultiplier(uint8,uint256)",
      "arguments": [
        "5",
        "4"
      ],
      "transaction": {
        "from": "0xe62ab4d111f968660c6b2188046f9b9ba53c4bae",
        "to": "0x7e61a5af95fc6efac03f7d92320f42b2c2fe96f0",
        "gas": "0x91b8",
        "value": "0x0",
        "input": "0x0ee24eb500000000000000000000000000000000000000000000000000000000000000050000000000000000000000000000000000000000000000000000000000000004",
        "nonce": "0x79b",
        "chainId": "0x66eee"
      },
      "additionalContracts": [],
      "isFixedGasLimit": false
    },
    {
      "hash": "0xa5a73502e29f7a3e118a523ee90e73f42c91763e5db894544020168dc824aa57",
      "transactionType": "CALL",
      "contractName": null,
      "contractAddress": "0x7e61a5af95fc6efac03f7d92320f42b2c2fe96f0",
      "function": "setFeeMultiplier(uint8,uint256)",
      "arguments": [
        "6",
        "8"
      ],
      "transaction": {
        "from": "0xe62ab4d111f968660c6b2188046f9b9ba53c4bae",
        "to": "0x7e61a5af95fc6efac03f7d92320f42b2c2fe96f0",
        "gas": "0x91d6",
        "value": "0x0",
        "input": "0x0ee24eb500000000000000000000000000000000000000000000000000000000000000060000000000000000000000000000000000000000000000000000000000000008",
        "nonce": "0x79c",
        "chainId": "0x66eee"
      },
      "additionalContracts": [],
      "isFixedGasLimit": false
    },
    {
      "hash": "0x3d62b2808316675110c2af4f97b90bc3b8fee4c7617a9fcc9dd8b7d49903d639",
      "transactionType": "CALL",
      "contractName": null,
      "contractAddress": "0x7e61a5af95fc6efac03f7d92320f42b2c2fe96f0",
      "function": "setFeeMultiplier(uint8,uint256)",
      "arguments": [
        "7",
        "4"
      ],
      "transaction": {
        "from": "0xe62ab4d111f968660c6b2188046f9b9ba53c4bae",
        "to": "0x7e61a5af95fc6efac03f7d92320f42b2c2fe96f0",
        "gas": "0x91f4",
        "value": "0x0",
        "input": "0x0ee24eb500000000000000000000000000000000000000000000000000000000000000070000000000000000000000000000000000000000000000000000000000000004",
        "nonce": "0x79d",
        "chainId": "0x66eee"
      },
      "additionalContracts": [],
      "isFixedGasLimit": false
    },
    {
      "hash": "0xd045d17564ec96781f4e71a1a6eb206289945f1f45a9c6ec1543632578ed7539",
      "transactionType": "CALL",
      "contractName": null,
      "contractAddress": "0x7e61a5af95fc6efac03f7d92320f42b2c2fe96f0",
      "function": "setFeeMultiplier(uint8,uint256)",
      "arguments": [
        "8",
        "10"
      ],
      "transaction": {
        "from": "0xe62ab4d111f968660c6b2188046f9b9ba53c4bae",
        "to": "0x7e61a5af95fc6efac03f7d92320f42b2c2fe96f0",
        "gas": "0x9212",
        "value": "0x0",
        "input": "0x0ee24eb50000000000000000000000000000000000000000000000000000000000000008000000000000000000000000000000000000000000000000000000000000000a",
        "nonce": "0x79e",
        "chainId": "0x66eee"
      },
      "additionalContracts": [],
      "isFixedGasLimit": false
    },
    {
      "hash": "0xc4249bfb0cd3451485cf18b24a2c96a4a1f80da7ac0acc286a41e04bd0462520",
      "transactionType": "CALL",
      "contractName": null,
      "contractAddress": "0x7e61a5af95fc6efac03f7d92320f42b2c2fe96f0",
      "function": "setFeeMultiplier(uint8,uint256)",
      "arguments": [
        "9",
        "8"
      ],
      "transaction": {
        "from": "0xe62ab4d111f968660c6b2188046f9b9ba53c4bae",
        "to": "0x7e61a5af95fc6efac03f7d92320f42b2c2fe96f0",
        "gas": "0x9230",
        "value": "0x0",
        "input": "0x0ee24eb500000000000000000000000000000000000000000000000000000000000000090000000000000000000000000000000000000000000000000000000000000008",
        "nonce": "0x79f",
        "chainId": "0x66eee"
      },
      "additionalContracts": [],
      "isFixedGasLimit": false
    },
    {
      "hash": "0xa43bcc01d2d07676297f008c9f86429055928290cef293c612d6d4d0ec7bcaa5",
      "transactionType": "CALL",
      "contractName": null,
      "contractAddress": "0x7e61a5af95fc6efac03f7d92320f42b2c2fe96f0",
      "function": "setFeeMultiplier(uint8,uint256)",
      "arguments": [
        "10",
        "8"
      ],
      "transaction": {
        "from": "0xe62ab4d111f968660c6b2188046f9b9ba53c4bae",
        "to": "0x7e61a5af95fc6efac03f7d92320f42b2c2fe96f0",
        "gas": "0x924e",
        "value": "0x0",
        "input": "0x0ee24eb5000000000000000000000000000000000000000000000000000000000000000a0000000000000000000000000000000000000000000000000000000000000008",
        "nonce": "0x7a0",
        "chainId": "0x66eee"
      },
      "additionalContracts": [],
      "isFixedGasLimit": false
    },
    {
      "hash": "0xb6022c0191c1d196ec1d318cc51839ed7a3ad2387299895639dbd91a1772f407",
      "transactionType": "CALL",
      "contractName": null,
      "contractAddress": "0x7e61a5af95fc6efac03f7d92320f42b2c2fe96f0",
      "function": "setFeeMultiplier(uint8,uint256)",
      "arguments": [
        "11",
        "8"
      ],
      "transaction": {
        "from": "0xe62ab4d111f968660c6b2188046f9b9ba53c4bae",
        "to": "0x7e61a5af95fc6efac03f7d92320f42b2c2fe96f0",
        "gas": "0x926c",
        "value": "0x0",
        "input": "0x0ee24eb5000000000000000000000000000000000000000000000000000000000000000b0000000000000000000000000000000000000000000000000000000000000008",
        "nonce": "0x7a1",
        "chainId": "0x66eee"
      },
      "additionalContracts": [],
      "isFixedGasLimit": false
    },
    {
      "hash": "0x213feb6e582c26d2466d087f20569b5001cafb3fcf6926b24fd829165ce35dd2",
      "transactionType": "CALL",
      "contractName": null,
      "contractAddress": "0x7e61a5af95fc6efac03f7d92320f42b2c2fe96f0",
      "function": "setFeeMultiplier(uint8,uint256)",
      "arguments": [
        "12",
        "20"
      ],
      "transaction": {
        "from": "0xe62ab4d111f968660c6b2188046f9b9ba53c4bae",
        "to": "0x7e61a5af95fc6efac03f7d92320f42b2c2fe96f0",
        "gas": "0x928a",
        "value": "0x0",
        "input": "0x0ee24eb5000000000000000000000000000000000000000000000000000000000000000c0000000000000000000000000000000000000000000000000000000000000014",
        "nonce": "0x7a2",
        "chainId": "0x66eee"
      },
      "additionalContracts": [],
      "isFixedGasLimit": false
    },
    {
      "hash": "0x8263be04fc55d362cba5893268ce8f79fafae868d1aea3edc9588e5dd512d1a1",
      "transactionType": "CALL",
      "contractName": null,
      "contractAddress": "0x7e61a5af95fc6efac03f7d92320f42b2c2fe96f0",
      "function": "setFeeMultiplier(uint8,uint256)",
      "arguments": [
        "13",
        "8"
      ],
      "transaction": {
        "from": "0xe62ab4d111f968660c6b2188046f9b9ba53c4bae",
        "to": "0x7e61a5af95fc6efac03f7d92320f42b2c2fe96f0",
        "gas": "0x92a8",
        "value": "0x0",
        "input": "0x0ee24eb5000000000000000000000000000000000000000000000000000000000000000d0000000000000000000000000000000000000000000000000000000000000008",
        "nonce": "0x7a3",
        "chainId": "0x66eee"
      },
      "additionalContracts": [],
      "isFixedGasLimit": false
    },
    {
      "hash": "0x4635f47bce4cb012a6004bed45e199e5223775d7bd6046b95d80d8d142e7195c",
      "transactionType": "CALL",
      "contractName": null,
      "contractAddress": "0x7e61a5af95fc6efac03f7d92320f42b2c2fe96f0",
      "function": "setFeeMultiplier(uint8,uint256)",
      "arguments": [
        "14",
        "4"
      ],
      "transaction": {
        "from": "0xe62ab4d111f968660c6b2188046f9b9ba53c4bae",
        "to": "0x7e61a5af95fc6efac03f7d92320f42b2c2fe96f0",
        "gas": "0x92c5",
        "value": "0x0",
        "input": "0x0ee24eb5000000000000000000000000000000000000000000000000000000000000000e0000000000000000000000000000000000000000000000000000000000000004",
        "nonce": "0x7a4",
        "chainId": "0x66eee"
      },
      "additionalContracts": [],
      "isFixedGasLimit": false
    },
    {
      "hash": "0x3a6111f05b78c4b6ce68ae8bfc82e4faa91e65a547a3acf3c0da0c42bb2c8210",
      "transactionType": "CALL",
      "contractName": null,
      "contractAddress": "0x7e61a5af95fc6efac03f7d92320f42b2c2fe96f0",
      "function": "setFeeMultiplier(uint8,uint256)",
      "arguments": [
        "15",
        "4"
      ],
      "transaction": {
        "from": "0xe62ab4d111f968660c6b2188046f9b9ba53c4bae",
        "to": "0x7e61a5af95fc6efac03f7d92320f42b2c2fe96f0",
        "gas": "0x92e3",
        "value": "0x0",
        "input": "0x0ee24eb5000000000000000000000000000000000000000000000000000000000000000f0000000000000000000000000000000000000000000000000000000000000004",
        "nonce": "0x7a5",
        "chainId": "0x66eee"
      },
      "additionalContracts": [],
      "isFixedGasLimit": false
    },
    {
      "hash": "0xeb0e89d1aa08ff93ef33012296b79b34c223b4b562751e7a693c9464bac4831f",
      "transactionType": "CALL",
      "contractName": null,
      "contractAddress": "0x7e61a5af95fc6efac03f7d92320f42b2c2fe96f0",
      "function": "setFeeMultiplier(uint8,uint256)",
      "arguments": [
        "16",
        "4"
      ],
      "transaction": {
        "from": "0xe62ab4d111f968660c6b2188046f9b9ba53c4bae",
        "to": "0x7e61a5af95fc6efac03f7d92320f42b2c2fe96f0",
        "gas": "0x9301",
        "value": "0x0",
        "input": "0x0ee24eb500000000000000000000000000000000000000000000000000000000000000100000000000000000000000000000000000000000000000000000000000000004",
        "nonce": "0x7a6",
        "chainId": "0x66eee"
      },
      "additionalContracts": [],
      "isFixedGasLimit": false
    },
    {
      "hash": "0x4154e53bc75f5546966b6056b272b5e2830a1509661be60c16fba8a08d47f098",
      "transactionType": "CALL",
      "contractName": null,
      "contractAddress": "0x7e61a5af95fc6efac03f7d92320f42b2c2fe96f0",
      "function": "setFeeMultiplier(uint8,uint256)",
      "arguments": [
        "17",
        "4"
      ],
      "transaction": {
        "from": "0xe62ab4d111f968660c6b2188046f9b9ba53c4bae",
        "to": "0x7e61a5af95fc6efac03f7d92320f42b2c2fe96f0",
        "gas": "0x931f",
        "value": "0x0",
        "input": "0x0ee24eb500000000000000000000000000000000000000000000000000000000000000110000000000000000000000000000000000000000000000000000000000000004",
        "nonce": "0x7a7",
        "chainId": "0x66eee"
      },
      "additionalContracts": [],
      "isFixedGasLimit": false
    },
    {
      "hash": "0xb5bfb48aae221f491b8d9dee0a41e463e782bedbb37a322167c7550ce3b5ce55",
      "transactionType": "CALL",
      "contractName": null,
      "contractAddress": "0x7e61a5af95fc6efac03f7d92320f42b2c2fe96f0",
      "function": "setFeeMultiplier(uint8,uint256)",
      "arguments": [
        "18",
        "2"
      ],
      "transaction": {
        "from": "0xe62ab4d111f968660c6b2188046f9b9ba53c4bae",
        "to": "0x7e61a5af95fc6efac03f7d92320f42b2c2fe96f0",
        "gas": "0x933e",
        "value": "0x0",
        "input": "0x0ee24eb500000000000000000000000000000000000000000000000000000000000000120000000000000000000000000000000000000000000000000000000000000002",
        "nonce": "0x7a8",
        "chainId": "0x66eee"
      },
      "additionalContracts": [],
      "isFixedGasLimit": false
    },
    {
      "hash": "0xf4269ed502243c7c9e1861852ecc2f211506415bbab845da425af10ea8e4d784",
      "transactionType": "CALL",
      "contractName": null,
      "contractAddress": "0x7e61a5af95fc6efac03f7d92320f42b2c2fe96f0",
      "function": "setFeeMultiplier(uint8,uint256)",
      "arguments": [
        "19",
        "20"
      ],
      "transaction": {
        "from": "0xe62ab4d111f968660c6b2188046f9b9ba53c4bae",
        "to": "0x7e61a5af95fc6efac03f7d92320f42b2c2fe96f0",
        "gas": "0x935c",
        "value": "0x0",
        "input": "0x0ee24eb500000000000000000000000000000000000000000000000000000000000000130000000000000000000000000000000000000000000000000000000000000014",
        "nonce": "0x7a9",
        "chainId": "0x66eee"
      },
      "additionalContracts": [],
      "isFixedGasLimit": false
    },
    {
      "hash": "0x612d4e8dee20c0b60676c5558641237a2da8c69a36270220e48704d787f6d800",
      "transactionType": "CALL",
      "contractName": null,
      "contractAddress": "0x7e61a5af95fc6efac03f7d92320f42b2c2fe96f0",
      "function": "setFeeMultiplier(uint8,uint256)",
      "arguments": [
        "20",
        "2"
      ],
      "transaction": {
        "from": "0xe62ab4d111f968660c6b2188046f9b9ba53c4bae",
        "to": "0x7e61a5af95fc6efac03f7d92320f42b2c2fe96f0",
        "gas": "0x937a",
        "value": "0x0",
        "input": "0x0ee24eb500000000000000000000000000000000000000000000000000000000000000140000000000000000000000000000000000000000000000000000000000000002",
        "nonce": "0x7aa",
        "chainId": "0x66eee"
      },
      "additionalContracts": [],
      "isFixedGasLimit": false
    },
    {
      "hash": "0xae9f0674413a4e367569dd9b54c0a70ebafc407be32e2cea11f0c46afac5efeb",
      "transactionType": "CALL",
      "contractName": null,
      "contractAddress": "0x7e61a5af95fc6efac03f7d92320f42b2c2fe96f0",
      "function": "setFeeMultiplier(uint8,uint256)",
      "arguments": [
        "21",
        "1"
      ],
      "transaction": {
        "from": "0xe62ab4d111f968660c6b2188046f9b9ba53c4bae",
        "to": "0x7e61a5af95fc6efac03f7d92320f42b2c2fe96f0",
        "gas": "0x9398",
        "value": "0x0",
        "input": "0x0ee24eb500000000000000000000000000000000000000000000000000000000000000150000000000000000000000000000000000000000000000000000000000000001",
        "nonce": "0x7ab",
        "chainId": "0x66eee"
      },
      "additionalContracts": [],
      "isFixedGasLimit": false
    },
    {
      "hash": "0x78bef044b98dd6257b722ca68eb0dae5ba291db42722e09d8d041d8e546ada16",
      "transactionType": "CALL",
      "contractName": null,
      "contractAddress": "0x7e61a5af95fc6efac03f7d92320f42b2c2fe96f0",
      "function": "setFeeMultiplier(uint8,uint256)",
      "arguments": [
        "22",
        "1"
      ],
      "transaction": {
        "from": "0xe62ab4d111f968660c6b2188046f9b9ba53c4bae",
        "to": "0x7e61a5af95fc6efac03f7d92320f42b2c2fe96f0",
        "gas": "0x93b6",
        "value": "0x0",
        "input": "0x0ee24eb500000000000000000000000000000000000000000000000000000000000000160000000000000000000000000000000000000000000000000000000000000001",
        "nonce": "0x7ac",
        "chainId": "0x66eee"
      },
      "additionalContracts": [],
      "isFixedGasLimit": false
    },
    {
      "hash": "0x9172a26e121101869e5998206e22cd65543c1233611afd37d23afd434724d966",
      "transactionType": "CALL",
      "contractName": null,
      "contractAddress": "0x7e61a5af95fc6efac03f7d92320f42b2c2fe96f0",
      "function": "setFeeMultiplier(uint8,uint256)",
      "arguments": [
        "23",
        "5"
      ],
      "transaction": {
        "from": "0xe62ab4d111f968660c6b2188046f9b9ba53c4bae",
        "to": "0x7e61a5af95fc6efac03f7d92320f42b2c2fe96f0",
        "gas": "0x93cd",
        "value": "0x0",
        "input": "0x0ee24eb500000000000000000000000000000000000000000000000000000000000000170000000000000000000000000000000000000000000000000000000000000005",
        "nonce": "0x7ad",
        "chainId": "0x66eee"
      },
      "additionalContracts": [],
      "isFixedGasLimit": false
    },
    {
      "hash": "0xe98fd323f5d3ec05df383ec540fd25ae9f61383f207d474933695f545d38cd9f",
      "transactionType": "CALL",
      "contractName": null,
      "contractAddress": "0x7e61a5af95fc6efac03f7d92320f42b2c2fe96f0",
      "function": "addFeeToken(string,string[],uint256[])",
      "arguments": [
        "421614",
        "[0xbf5356ade7e5f775659f301b07c4bc6961044b11]",
        "[100]"
      ],
      "transaction": {
        "from": "0xe62ab4d111f968660c6b2188046f9b9ba53c4bae",
        "to": "0x7e61a5af95fc6efac03f7d92320f42b2c2fe96f0",
        "gas": "0x2162b",
        "value": "0x0",
        "input": "0x437bf84f000000000000000000000000000000000000000000000000000000000000006000000000000000000000000000000000000000000000000000000000000000a000000000000000000000000000000000000000000000000000000000000001400000000000000000000000000000000000000000000000000000000000000006343231363134000000000000000000000000000000000000000000000000000000000000000000000000000000000000000000000000000000000000000000010000000000000000000000000000000000000000000000000000000000000020000000000000000000000000000000000000000000000000000000000000002a3078626635333536616465376535663737353635396633303162303763346263363936313034346231310000000000000000000000000000000000000000000000000000000000000000000000000000000000000000000000000000000000010000000000000000000000000000000000000000000000000000000000000064",
        "nonce": "0x7ae",
        "chainId": "0x66eee"
      },
      "additionalContracts": [],
      "isFixedGasLimit": false
    },
    {
      "hash": "0x144d6b46f9d26e36fdd6de7847d5e5de177095b408c7f9f380245f649ed89030",
      "transactionType": "CALL",
      "contractName": null,
      "contractAddress": "0x7e61a5af95fc6efac03f7d92320f42b2c2fe96f0",
      "function": "addFeeToken(string,string[],uint256[])",
      "arguments": [
        "11155420",
        "[0xbf5356ade7e5f775659f301b07c4bc6961044b11]",
        "[100]"
      ],
      "transaction": {
        "from": "0xe62ab4d111f968660c6b2188046f9b9ba53c4bae",
        "to": "0x7e61a5af95fc6efac03f7d92320f42b2c2fe96f0",
        "gas": "0x27f91",
        "value": "0x0",
        "input": "0x437bf84f000000000000000000000000000000000000000000000000000000000000006000000000000000000000000000000000000000000000000000000000000000a000000000000000000000000000000000000000000000000000000000000001400000000000000000000000000000000000000000000000000000000000000008313131353534323000000000000000000000000000000000000000000000000000000000000000000000000000000000000000000000000000000000000000010000000000000000000000000000000000000000000000000000000000000020000000000000000000000000000000000000000000000000000000000000002a3078626635333536616465376535663737353635396633303162303763346263363936313034346231310000000000000000000000000000000000000000000000000000000000000000000000000000000000000000000000000000000000010000000000000000000000000000000000000000000000000000000000000064",
        "nonce": "0x7af",
        "chainId": "0x66eee"
      },
      "additionalContracts": [],
      "isFixedGasLimit": false
    },
    {
      "hash": "0x66137540d05835644afac905a648398bb6ac0998acbf9f9e6f70ecec58fa050f",
      "transactionType": "CALL",
      "contractName": null,
      "contractAddress": "0xbab5ec2802257958d3f3a34dce2f7aa65eac922d",
      "function": "addChainContract(string[],string[])",
      "arguments": [
        "[11155420]",
        "[0x3b44962bf264b8cebac13da24722faa27fc693a1]"
      ],
      "transaction": {
        "from": "0xe62ab4d111f968660c6b2188046f9b9ba53c4bae",
        "to": "0xbab5ec2802257958d3f3a34dce2f7aa65eac922d",
        "gas": "0x4557f",
        "value": "0x0",
        "input": "0x013fd3bd000000000000000000000000000000000000000000000000000000000000004000000000000000000000000000000000000000000000000000000000000000c0000000000000000000000000000000000000000000000000000000000000000100000000000000000000000000000000000000000000000000000000000000200000000000000000000000000000000000000000000000000000000000000008313131353534323000000000000000000000000000000000000000000000000000000000000000000000000000000000000000000000000000000000000000010000000000000000000000000000000000000000000000000000000000000020000000000000000000000000000000000000000000000000000000000000002a30783362343439363262663236346238636562616331336461323437323266616132376663363933613100000000000000000000000000000000000000000000",
        "nonce": "0x7b0",
        "chainId": "0x66eee"
      },
      "additionalContracts": [],
      "isFixedGasLimit": false
    },
    {
      "hash": "0x9f88b497c30f83a17858f14cc04c3d43f166a402367fbbda0e5b6550d6838c85",
      "transactionType": "CALL",
      "contractName": null,
      "contractAddress": "0xbab5ec2802257958d3f3a34dce2f7aa65eac922d",
      "function": "attachRWAX(uint256,uint256,string[],string[])",
      "arguments": [
        "1",
        "1",
        "[11155420]",
        "[0x266442249f62a8dd4e29348a52af8c806c7cb0da]"
      ],
      "transaction": {
        "from": "0xe62ab4d111f968660c6b2188046f9b9ba53c4bae",
        "to": "0xbab5ec2802257958d3f3a34dce2f7aa65eac922d",
        "gas": "0x4fecb",
        "value": "0x0",
        "input": "0x33a5f5b40000000000000000000000000000000000000000000000000000000000000001000000000000000000000000000000000000000000000000000000000000000100000000000000000000000000000000000000000000000000000000000000800000000000000000000000000000000000000000000000000000000000000100000000000000000000000000000000000000000000000000000000000000000100000000000000000000000000000000000000000000000000000000000000200000000000000000000000000000000000000000000000000000000000000008313131353534323000000000000000000000000000000000000000000000000000000000000000000000000000000000000000000000000000000000000000010000000000000000000000000000000000000000000000000000000000000020000000000000000000000000000000000000000000000000000000000000002a30783236363434323234396636326138646434653239333438613532616638633830366337636230646100000000000000000000000000000000000000000000",
        "nonce": "0x7b1",
        "chainId": "0x66eee"
      },
      "additionalContracts": [],
      "isFixedGasLimit": false
    },
    {
      "hash": "0x59930a860f6d6509d16bd63785866c5b8754829e89a565626e7f8276f24ae81b",
      "transactionType": "CALL",
      "contractName": null,
      "contractAddress": "0xbab5ec2802257958d3f3a34dce2f7aa65eac922d",
      "function": "attachStorageManager(uint256,uint256,string[],string[])",
      "arguments": [
        "1",
        "1",
        "[11155420]",
        "[0x62ab67f946aca3991898ac7bb59beac125eb5902]"
      ],
      "transaction": {
        "from": "0xe62ab4d111f968660c6b2188046f9b9ba53c4bae",
        "to": "0xbab5ec2802257958d3f3a34dce2f7aa65eac922d",
        "gas": "0x470ae",
        "value": "0x0",
        "input": "0x2f68b4890000000000000000000000000000000000000000000000000000000000000001000000000000000000000000000000000000000000000000000000000000000100000000000000000000000000000000000000000000000000000000000000800000000000000000000000000000000000000000000000000000000000000100000000000000000000000000000000000000000000000000000000000000000100000000000000000000000000000000000000000000000000000000000000200000000000000000000000000000000000000000000000000000000000000008313131353534323000000000000000000000000000000000000000000000000000000000000000000000000000000000000000000000000000000000000000010000000000000000000000000000000000000000000000000000000000000020000000000000000000000000000000000000000000000000000000000000002a30783632616236376639343661636133393931383938616337626235396265616331323565623539303200000000000000000000000000000000000000000000",
        "nonce": "0x7b2",
        "chainId": "0x66eee"
      },
      "additionalContracts": [],
      "isFixedGasLimit": false
    },
    {
      "hash": "0x99abf59783b441ed395298ff0fe35fef12f22671ac171165b01f9db3239eb121",
      "transactionType": "CALL",
      "contractName": null,
      "contractAddress": "0xbab5ec2802257958d3f3a34dce2f7aa65eac922d",
      "function": "attachSentryManager(uint256,uint256,string[],string[])",
      "arguments": [
        "1",
        "1",
        "[11155420]",
        "[0x1bb2dab2ce968db0d992a6289acbdd8f764be36a]"
      ],
      "transaction": {
        "from": "0xe62ab4d111f968660c6b2188046f9b9ba53c4bae",
        "to": "0xbab5ec2802257958d3f3a34dce2f7aa65eac922d",
        "gas": "0x4730d",
        "value": "0x0",
        "input": "0x349de7970000000000000000000000000000000000000000000000000000000000000001000000000000000000000000000000000000000000000000000000000000000100000000000000000000000000000000000000000000000000000000000000800000000000000000000000000000000000000000000000000000000000000100000000000000000000000000000000000000000000000000000000000000000100000000000000000000000000000000000000000000000000000000000000200000000000000000000000000000000000000000000000000000000000000008313131353534323000000000000000000000000000000000000000000000000000000000000000000000000000000000000000000000000000000000000000010000000000000000000000000000000000000000000000000000000000000020000000000000000000000000000000000000000000000000000000000000002a30783162623264616232636539363864623064393932613632383961636264643866373634626533366100000000000000000000000000000000000000000000",
        "nonce": "0x7b3",
        "chainId": "0x66eee"
      },
      "additionalContracts": [],
      "isFixedGasLimit": false
    }
  ],
  "receipts": [
    {
      "status": "0x1",
      "cumulativeGasUsed": "0x67a9",
      "logs": [],
      "logsBloom": "0x00000000000000000000000000000000000000000000000000000000000000000000000000000000000000000000000000000000000000000000000000000000000000000000000000000000000000000000000000000000000000000000000000000000000000000000000000000000000000000000000000000000000000000000000000000000000000000000000000000000000000000000000000000000000000000000000000000000000000000000000000000000000000000000000000000000000000000000000000000000000000000000000000000000000000000000000000000000000000000000000000000000000000000000000000000000",
      "type": "0x2",
      "transactionHash": "0x32af9140fad1ab47ca828a242aa65f2de76458d5de1a16c2585f1a2451d743b3",
      "transactionIndex": "0x1",
      "blockHash": "0xdcd2c59599aec577b8151402e00e0f0be7ab8ef208fbd2e132a9b5fa2061bea9",
      "blockNumber": "0x77383ac",
      "gasUsed": "0x67a9",
      "effectiveGasPrice": "0x5f5e100",
      "from": "0xe62ab4d111f968660c6b2188046f9b9ba53c4bae",
      "to": "0x7e61a5af95fc6efac03f7d92320f42b2c2fe96f0",
      "contractAddress": null,
      "gasUsedForL1": "0x0",
      "l1BlockNumber": "0x760725",
      "timeboosted": false
    },
    {
      "status": "0x1",
      "cumulativeGasUsed": "0x6e38",
      "logs": [],
      "logsBloom": "0x00000000000000000000000000000000000000000000000000000000000000000000000000000000000000000000000000000000000000000000000000000000000000000000000000000000000000000000000000000000000000000000000000000000000000000000000000000000000000000000000000000000000000000000000000000000000000000000000000000000000000000000000000000000000000000000000000000000000000000000000000000000000000000000000000000000000000000000000000000000000000000000000000000000000000000000000000000000000000000000000000000000000000000000000000000000",
      "type": "0x2",
      "transactionHash": "0xed5906797a9fd20e79eb2b93d4e8cdcd4cbd5dcf1af2f37bf1273fe24d9214a6",
      "transactionIndex": "0x1",
      "blockHash": "0x50bae4f9b67f9148d6e5fce0249c719a63b1a0d789568b3dd92bdb1c474321f6",
      "blockNumber": "0x77383b8",
      "gasUsed": "0x6e38",
      "effectiveGasPrice": "0x5f5e100",
      "from": "0xe62ab4d111f968660c6b2188046f9b9ba53c4bae",
      "to": "0x7e61a5af95fc6efac03f7d92320f42b2c2fe96f0",
      "contractAddress": null,
      "gasUsedForL1": "0x0",
      "l1BlockNumber": "0x760725",
      "timeboosted": false
    },
    {
      "status": "0x1",
      "cumulativeGasUsed": "0xf42e",
      "logs": [],
      "logsBloom": "0x00000000000000000000000000000000000000000000000000000000000000000000000000000000000000000000000000000000000000000000000000000000000000000000000000000000000000000000000000000000000000000000000000000000000000000000000000000000000000000000000000000000000000000000000000000000000000000000000000000000000000000000000000000000000000000000000000000000000000000000000000000000000000000000000000000000000000000000000000000000000000000000000000000000000000000000000000000000000000000000000000000000000000000000000000000000",
      "type": "0x2",
      "transactionHash": "0x803e684eebf04a877a2ca1d6466bd70ea91fe83a0961dad47bb6d170a5c83811",
      "transactionIndex": "0x2",
      "blockHash": "0x63480d70a735d47ef599933dca437c76c35185ab1c639f25724c2375077d85a2",
      "blockNumber": "0x77383c4",
      "gasUsed": "0x6e61",
      "effectiveGasPrice": "0x5f5e100",
      "from": "0xe62ab4d111f968660c6b2188046f9b9ba53c4bae",
      "to": "0x7e61a5af95fc6efac03f7d92320f42b2c2fe96f0",
      "contractAddress": null,
      "gasUsedForL1": "0x0",
      "l1BlockNumber": "0x760726",
      "timeboosted": false
    },
    {
      "status": "0x1",
      "cumulativeGasUsed": "0x6e78",
      "logs": [],
      "logsBloom": "0x00000000000000000000000000000000000000000000000000000000000000000000000000000000000000000000000000000000000000000000000000000000000000000000000000000000000000000000000000000000000000000000000000000000000000000000000000000000000000000000000000000000000000000000000000000000000000000000000000000000000000000000000000000000000000000000000000000000000000000000000000000000000000000000000000000000000000000000000000000000000000000000000000000000000000000000000000000000000000000000000000000000000000000000000000000000",
      "type": "0x2",
      "transactionHash": "0xff1411592de195e9dbb31253090487462396c529cc587976d41ccfd0d4ed1466",
      "transactionIndex": "0x1",
      "blockHash": "0x2b9d5e5d2dc78f54d86372a0e617fcd5c9063ae47678b649d21c8a717032971b",
      "blockNumber": "0x77383d0",
      "gasUsed": "0x6e78",
      "effectiveGasPrice": "0x5f5e100",
      "from": "0xe62ab4d111f968660c6b2188046f9b9ba53c4bae",
      "to": "0x7e61a5af95fc6efac03f7d92320f42b2c2fe96f0",
      "contractAddress": null,
      "gasUsedForL1": "0x0",
      "l1BlockNumber": "0x760726",
      "timeboosted": false
    },
    {
      "status": "0x1",
      "cumulativeGasUsed": "0x6e8f",
      "logs": [],
      "logsBloom": "0x00000000000000000000000000000000000000000000000000000000000000000000000000000000000000000000000000000000000000000000000000000000000000000000000000000000000000000000000000000000000000000000000000000000000000000000000000000000000000000000000000000000000000000000000000000000000000000000000000000000000000000000000000000000000000000000000000000000000000000000000000000000000000000000000000000000000000000000000000000000000000000000000000000000000000000000000000000000000000000000000000000000000000000000000000000000",
      "type": "0x2",
      "transactionHash": "0xad9bc5048ea41c9027f607521b08f7f28fe48b20fc8a6e3912a20299400baed5",
      "transactionIndex": "0x1",
      "blockHash": "0xe9e2131fa57614eb2d8a875e432ae4354542667efeee840808a14d91b6892e2a",
      "blockNumber": "0x77383d9",
      "gasUsed": "0x6e8f",
      "effectiveGasPrice": "0x5f5e100",
      "from": "0xe62ab4d111f968660c6b2188046f9b9ba53c4bae",
      "to": "0x7e61a5af95fc6efac03f7d92320f42b2c2fe96f0",
      "contractAddress": null,
      "gasUsedForL1": "0x0",
      "l1BlockNumber": "0x760726",
      "timeboosted": false
    },
    {
      "status": "0x1",
      "cumulativeGasUsed": "0x6ea6",
      "logs": [],
      "logsBloom": "0x00000000000000000000000000000000000000000000000000000000000000000000000000000000000000000000000000000000000000000000000000000000000000000000000000000000000000000000000000000000000000000000000000000000000000000000000000000000000000000000000000000000000000000000000000000000000000000000000000000000000000000000000000000000000000000000000000000000000000000000000000000000000000000000000000000000000000000000000000000000000000000000000000000000000000000000000000000000000000000000000000000000000000000000000000000000",
      "type": "0x2",
      "transactionHash": "0x48f303ad7864e5c9c6f2b39972dc57694497d3015eda69af3c61f6bec63a8219",
      "transactionIndex": "0x1",
      "blockHash": "0x3ca295c28a94bc5e346d35ce71bc9200e6c6d2acfde4ff821196b9d607b7600f",
      "blockNumber": "0x77383e6",
      "gasUsed": "0x6ea6",
      "effectiveGasPrice": "0x5f5e100",
      "from": "0xe62ab4d111f968660c6b2188046f9b9ba53c4bae",
      "to": "0x7e61a5af95fc6efac03f7d92320f42b2c2fe96f0",
      "contractAddress": null,
      "gasUsedForL1": "0x0",
      "l1BlockNumber": "0x760726",
      "timeboosted": false
    },
    {
      "status": "0x1",
      "cumulativeGasUsed": "0x6ebd",
      "logs": [],
      "logsBloom": "0x00000000000000000000000000000000000000000000000000000000000000000000000000000000000000000000000000000000000000000000000000000000000000000000000000000000000000000000000000000000000000000000000000000000000000000000000000000000000000000000000000000000000000000000000000000000000000000000000000000000000000000000000000000000000000000000000000000000000000000000000000000000000000000000000000000000000000000000000000000000000000000000000000000000000000000000000000000000000000000000000000000000000000000000000000000000",
      "type": "0x2",
      "transactionHash": "0x01b4713035285553c780a11bea43ea4d5ba76aa1181375004351130f01caa10a",
      "transactionIndex": "0x1",
      "blockHash": "0x20a034d6e7de27834d1998ab214f57f8cd565905d2ed49b01e6f9db89948b82b",
      "blockNumber": "0x77383f0",
      "gasUsed": "0x6ebd",
      "effectiveGasPrice": "0x5f5e100",
      "from": "0xe62ab4d111f968660c6b2188046f9b9ba53c4bae",
      "to": "0x7e61a5af95fc6efac03f7d92320f42b2c2fe96f0",
      "contractAddress": null,
      "gasUsedForL1": "0x0",
      "l1BlockNumber": "0x760726",
      "timeboosted": false
    },
    {
      "status": "0x1",
      "cumulativeGasUsed": "0x6ed4",
      "logs": [],
      "logsBloom": "0x00000000000000000000000000000000000000000000000000000000000000000000000000000000000000000000000000000000000000000000000000000000000000000000000000000000000000000000000000000000000000000000000000000000000000000000000000000000000000000000000000000000000000000000000000000000000000000000000000000000000000000000000000000000000000000000000000000000000000000000000000000000000000000000000000000000000000000000000000000000000000000000000000000000000000000000000000000000000000000000000000000000000000000000000000000000",
      "type": "0x2",
      "transactionHash": "0xa5a73502e29f7a3e118a523ee90e73f42c91763e5db894544020168dc824aa57",
      "transactionIndex": "0x1",
      "blockHash": "0x994b7ea14c146ce82cf648da2720f72eac2145bc67709dcaaf90be3e921c83d8",
      "blockNumber": "0x77383fc",
      "gasUsed": "0x6ed4",
      "effectiveGasPrice": "0x5f5e100",
      "from": "0xe62ab4d111f968660c6b2188046f9b9ba53c4bae",
      "to": "0x7e61a5af95fc6efac03f7d92320f42b2c2fe96f0",
      "contractAddress": null,
      "gasUsedForL1": "0x0",
      "l1BlockNumber": "0x760726",
      "timeboosted": false
    },
    {
      "status": "0x1",
      "cumulativeGasUsed": "0x6eeb",
      "logs": [],
      "logsBloom": "0x00000000000000000000000000000000000000000000000000000000000000000000000000000000000000000000000000000000000000000000000000000000000000000000000000000000000000000000000000000000000000000000000000000000000000000000000000000000000000000000000000000000000000000000000000000000000000000000000000000000000000000000000000000000000000000000000000000000000000000000000000000000000000000000000000000000000000000000000000000000000000000000000000000000000000000000000000000000000000000000000000000000000000000000000000000000",
      "type": "0x2",
      "transactionHash": "0x3d62b2808316675110c2af4f97b90bc3b8fee4c7617a9fcc9dd8b7d49903d639",
      "transactionIndex": "0x1",
      "blockHash": "0xf2e2a6f8b1db9e0a076f3bbeda5b6487732777af69c6011259053b89e18e5d36",
      "blockNumber": "0x7738407",
      "gasUsed": "0x6eeb",
      "effectiveGasPrice": "0x5f5e100",
      "from": "0xe62ab4d111f968660c6b2188046f9b9ba53c4bae",
      "to": "0x7e61a5af95fc6efac03f7d92320f42b2c2fe96f0",
      "contractAddress": null,
      "gasUsedForL1": "0x0",
      "l1BlockNumber": "0x760728",
      "timeboosted": false
    },
    {
      "status": "0x1",
      "cumulativeGasUsed": "0x146e92",
      "logs": [],
      "logsBloom": "0x00000000000000000000000000000000000000000000000000000000000000000000000000000000000000000000000000000000000000000000000000000000000000000000000000000000000000000000000000000000000000000000000000000000000000000000000000000000000000000000000000000000000000000000000000000000000000000000000000000000000000000000000000000000000000000000000000000000000000000000000000000000000000000000000000000000000000000000000000000000000000000000000000000000000000000000000000000000000000000000000000000000000000000000000000000000",
      "type": "0x2",
      "transactionHash": "0xd045d17564ec96781f4e71a1a6eb206289945f1f45a9c6ec1543632578ed7539",
      "transactionIndex": "0x3",
      "blockHash": "0x211f85115dcb480fce0f454ae996153ed8200736576fbf89d790d697fd6e4a8b",
      "blockNumber": "0x7738413",
      "gasUsed": "0x6f02",
      "effectiveGasPrice": "0x5f5e100",
      "from": "0xe62ab4d111f968660c6b2188046f9b9ba53c4bae",
      "to": "0x7e61a5af95fc6efac03f7d92320f42b2c2fe96f0",
      "contractAddress": null,
      "gasUsedForL1": "0x0",
      "l1BlockNumber": "0x760728",
      "timeboosted": false
    },
    {
      "status": "0x1",
      "cumulativeGasUsed": "0xc121",
      "logs": [],
      "logsBloom": "0x00000000000000000000000000000000000000000000000000000000000000000000000000000000000000000000000000000000000000000000000000000000000000000000000000000000000000000000000000000000000000000000000000000000000000000000000000000000000000000000000000000000000000000000000000000000000000000000000000000000000000000000000000000000000000000000000000000000000000000000000000000000000000000000000000000000000000000000000000000000000000000000000000000000000000000000000000000000000000000000000000000000000000000000000000000000",
      "type": "0x2",
      "transactionHash": "0xc4249bfb0cd3451485cf18b24a2c96a4a1f80da7ac0acc286a41e04bd0462520",
      "transactionIndex": "0x2",
      "blockHash": "0x105cebfc480651c3c7a597c9edff29be80c65e87748848a1f03b47cb30b7dcd2",
      "blockNumber": "0x773841f",
      "gasUsed": "0x6f19",
      "effectiveGasPrice": "0x5f5e100",
      "from": "0xe62ab4d111f968660c6b2188046f9b9ba53c4bae",
      "to": "0x7e61a5af95fc6efac03f7d92320f42b2c2fe96f0",
      "contractAddress": null,
      "gasUsedForL1": "0x0",
      "l1BlockNumber": "0x760728",
      "timeboosted": false
    },
    {
      "status": "0x1",
      "cumulativeGasUsed": "0x6f30",
      "logs": [],
      "logsBloom": "0x00000000000000000000000000000000000000000000000000000000000000000000000000000000000000000000000000000000000000000000000000000000000000000000000000000000000000000000000000000000000000000000000000000000000000000000000000000000000000000000000000000000000000000000000000000000000000000000000000000000000000000000000000000000000000000000000000000000000000000000000000000000000000000000000000000000000000000000000000000000000000000000000000000000000000000000000000000000000000000000000000000000000000000000000000000000",
      "type": "0x2",
      "transactionHash": "0xa43bcc01d2d07676297f008c9f86429055928290cef293c612d6d4d0ec7bcaa5",
      "transactionIndex": "0x1",
      "blockHash": "0x9bb254e1c973a53a988a85a33eee36eca19c8d6b2591e730c6332bc0a7661f4a",
      "blockNumber": "0x773842b",
      "gasUsed": "0x6f30",
      "effectiveGasPrice": "0x5f5e100",
      "from": "0xe62ab4d111f968660c6b2188046f9b9ba53c4bae",
      "to": "0x7e61a5af95fc6efac03f7d92320f42b2c2fe96f0",
      "contractAddress": null,
      "gasUsedForL1": "0x0",
      "l1BlockNumber": "0x760728",
      "timeboosted": false
    },
    {
      "status": "0x1",
      "cumulativeGasUsed": "0x4e268",
      "logs": [],
      "logsBloom": "0x00000000000000000000000000000000000000000000000000000000000000000000000000000000000000000000000000000000000000000000000000000000000000000000000000000000000000000000000000000000000000000000000000000000000000000000000000000000000000000000000000000000000000000000000000000000000000000000000000000000000000000000000000000000000000000000000000000000000000000000000000000000000000000000000000000000000000000000000000000000000000000000000000000000000000000000000000000000000000000000000000000000000000000000000000000000",
      "type": "0x2",
      "transactionHash": "0xb6022c0191c1d196ec1d318cc51839ed7a3ad2387299895639dbd91a1772f407",
      "transactionIndex": "0x2",
      "blockHash": "0x493eae45d6efd0de0be138b5b17969fa89454d024353ab310e6e01791db7c149",
      "blockNumber": "0x7738436",
      "gasUsed": "0x6f47",
      "effectiveGasPrice": "0x5f5e100",
      "from": "0xe62ab4d111f968660c6b2188046f9b9ba53c4bae",
      "to": "0x7e61a5af95fc6efac03f7d92320f42b2c2fe96f0",
      "contractAddress": null,
      "gasUsedForL1": "0x0",
      "l1BlockNumber": "0x760728",
      "timeboosted": false
    },
    {
      "status": "0x1",
      "cumulativeGasUsed": "0x6f5e",
      "logs": [],
      "logsBloom": "0x00000000000000000000000000000000000000000000000000000000000000000000000000000000000000000000000000000000000000000000000000000000000000000000000000000000000000000000000000000000000000000000000000000000000000000000000000000000000000000000000000000000000000000000000000000000000000000000000000000000000000000000000000000000000000000000000000000000000000000000000000000000000000000000000000000000000000000000000000000000000000000000000000000000000000000000000000000000000000000000000000000000000000000000000000000000",
      "type": "0x2",
      "transactionHash": "0x213feb6e582c26d2466d087f20569b5001cafb3fcf6926b24fd829165ce35dd2",
      "transactionIndex": "0x1",
      "blockHash": "0x2ea139bcba627861a07656cd2e1755a1a6698cb858058413861a52ed3b80fabc",
      "blockNumber": "0x7738441",
      "gasUsed": "0x6f5e",
      "effectiveGasPrice": "0x5f5e100",
      "from": "0xe62ab4d111f968660c6b2188046f9b9ba53c4bae",
      "to": "0x7e61a5af95fc6efac03f7d92320f42b2c2fe96f0",
      "contractAddress": null,
      "gasUsedForL1": "0x0",
      "l1BlockNumber": "0x760729",
      "timeboosted": false
    },
    {
      "status": "0x1",
      "cumulativeGasUsed": "0xe5b5",
      "logs": [],
      "logsBloom": "0x00000000000000000000000000000000000000000000000000000000000000000000000000000000000000000000000000000000000000000000000000000000000000000000000000000000000000000000000000000000000000000000000000000000000000000000000000000000000000000000000000000000000000000000000000000000000000000000000000000000000000000000000000000000000000000000000000000000000000000000000000000000000000000000000000000000000000000000000000000000000000000000000000000000000000000000000000000000000000000000000000000000000000000000000000000000",
      "type": "0x2",
      "transactionHash": "0x8263be04fc55d362cba5893268ce8f79fafae868d1aea3edc9588e5dd512d1a1",
      "transactionIndex": "0x2",
      "blockHash": "0xc59e44003943164fb42ef060082587f513d0482ceebf932bed21fb027c624cf3",
      "blockNumber": "0x773844a",
      "gasUsed": "0x6f75",
      "effectiveGasPrice": "0x5f5e100",
      "from": "0xe62ab4d111f968660c6b2188046f9b9ba53c4bae",
      "to": "0x7e61a5af95fc6efac03f7d92320f42b2c2fe96f0",
      "contractAddress": null,
      "gasUsedForL1": "0x0",
      "l1BlockNumber": "0x760729",
      "timeboosted": false
    },
    {
      "status": "0x1",
      "cumulativeGasUsed": "0x6f8c",
      "logs": [],
      "logsBloom": "0x00000000000000000000000000000000000000000000000000000000000000000000000000000000000000000000000000000000000000000000000000000000000000000000000000000000000000000000000000000000000000000000000000000000000000000000000000000000000000000000000000000000000000000000000000000000000000000000000000000000000000000000000000000000000000000000000000000000000000000000000000000000000000000000000000000000000000000000000000000000000000000000000000000000000000000000000000000000000000000000000000000000000000000000000000000000",
      "type": "0x2",
      "transactionHash": "0x4635f47bce4cb012a6004bed45e199e5223775d7bd6046b95d80d8d142e7195c",
      "transactionIndex": "0x1",
      "blockHash": "0xff5859ef41734685706a242a6164c07b3b0c3294d2b448c7240c99a2de1dab5a",
      "blockNumber": "0x7738455",
      "gasUsed": "0x6f8c",
      "effectiveGasPrice": "0x5f5e100",
      "from": "0xe62ab4d111f968660c6b2188046f9b9ba53c4bae",
      "to": "0x7e61a5af95fc6efac03f7d92320f42b2c2fe96f0",
      "contractAddress": null,
      "gasUsedForL1": "0x0",
      "l1BlockNumber": "0x760729",
      "timeboosted": false
    },
    {
      "status": "0x1",
      "cumulativeGasUsed": "0x6fa3",
      "logs": [],
      "logsBloom": "0x00000000000000000000000000000000000000000000000000000000000000000000000000000000000000000000000000000000000000000000000000000000000000000000000000000000000000000000000000000000000000000000000000000000000000000000000000000000000000000000000000000000000000000000000000000000000000000000000000000000000000000000000000000000000000000000000000000000000000000000000000000000000000000000000000000000000000000000000000000000000000000000000000000000000000000000000000000000000000000000000000000000000000000000000000000000",
      "type": "0x2",
      "transactionHash": "0x3a6111f05b78c4b6ce68ae8bfc82e4faa91e65a547a3acf3c0da0c42bb2c8210",
      "transactionIndex": "0x1",
      "blockHash": "0x3987bac9136a46db86d3bb52cb1a3a09fe92092e3d16fc15d6531d7069396797",
      "blockNumber": "0x7738460",
      "gasUsed": "0x6fa3",
      "effectiveGasPrice": "0x5f5e100",
      "from": "0xe62ab4d111f968660c6b2188046f9b9ba53c4bae",
      "to": "0x7e61a5af95fc6efac03f7d92320f42b2c2fe96f0",
      "contractAddress": null,
      "gasUsedForL1": "0x0",
      "l1BlockNumber": "0x760729",
      "timeboosted": false
    },
    {
      "status": "0x1",
      "cumulativeGasUsed": "0x6fba",
      "logs": [],
      "logsBloom": "0x00000000000000000000000000000000000000000000000000000000000000000000000000000000000000000000000000000000000000000000000000000000000000000000000000000000000000000000000000000000000000000000000000000000000000000000000000000000000000000000000000000000000000000000000000000000000000000000000000000000000000000000000000000000000000000000000000000000000000000000000000000000000000000000000000000000000000000000000000000000000000000000000000000000000000000000000000000000000000000000000000000000000000000000000000000000",
      "type": "0x2",
      "transactionHash": "0xeb0e89d1aa08ff93ef33012296b79b34c223b4b562751e7a693c9464bac4831f",
      "transactionIndex": "0x1",
      "blockHash": "0x96a6bd28b8f866fbac5afc5d2baeb691e9c55d077b8c70bbbb191fb6609c2a02",
      "blockNumber": "0x773846a",
      "gasUsed": "0x6fba",
      "effectiveGasPrice": "0x5f5e100",
      "from": "0xe62ab4d111f968660c6b2188046f9b9ba53c4bae",
      "to": "0x7e61a5af95fc6efac03f7d92320f42b2c2fe96f0",
      "contractAddress": null,
      "gasUsedForL1": "0x0",
      "l1BlockNumber": "0x760729",
      "timeboosted": false
    },
    {
      "status": "0x1",
      "cumulativeGasUsed": "0x6fd1",
      "logs": [],
      "logsBloom": "0x00000000000000000000000000000000000000000000000000000000000000000000000000000000000000000000000000000000000000000000000000000000000000000000000000000000000000000000000000000000000000000000000000000000000000000000000000000000000000000000000000000000000000000000000000000000000000000000000000000000000000000000000000000000000000000000000000000000000000000000000000000000000000000000000000000000000000000000000000000000000000000000000000000000000000000000000000000000000000000000000000000000000000000000000000000000",
      "type": "0x2",
      "transactionHash": "0x4154e53bc75f5546966b6056b272b5e2830a1509661be60c16fba8a08d47f098",
      "transactionIndex": "0x1",
      "blockHash": "0x42c4f8227c3369460d85c79a67f357f2c43f7ce97147aa8c8a48c9461860488e",
      "blockNumber": "0x7738475",
      "gasUsed": "0x6fd1",
      "effectiveGasPrice": "0x5f5e100",
      "from": "0xe62ab4d111f968660c6b2188046f9b9ba53c4bae",
      "to": "0x7e61a5af95fc6efac03f7d92320f42b2c2fe96f0",
      "contractAddress": null,
      "gasUsedForL1": "0x0",
      "l1BlockNumber": "0x76072a",
      "timeboosted": false
    },
    {
      "status": "0x1",
      "cumulativeGasUsed": "0x6fe8",
      "logs": [],
      "logsBloom": "0x00000000000000000000000000000000000000000000000000000000000000000000000000000000000000000000000000000000000000000000000000000000000000000000000000000000000000000000000000000000000000000000000000000000000000000000000000000000000000000000000000000000000000000000000000000000000000000000000000000000000000000000000000000000000000000000000000000000000000000000000000000000000000000000000000000000000000000000000000000000000000000000000000000000000000000000000000000000000000000000000000000000000000000000000000000000",
      "type": "0x2",
      "transactionHash": "0xb5bfb48aae221f491b8d9dee0a41e463e782bedbb37a322167c7550ce3b5ce55",
      "transactionIndex": "0x1",
      "blockHash": "0x29c7cbd89c68a12f3d5b8d525ee1c2824d972a8d86920454415ffe21b383ecf7",
      "blockNumber": "0x773847d",
      "gasUsed": "0x6fe8",
      "effectiveGasPrice": "0x5f5e100",
      "from": "0xe62ab4d111f968660c6b2188046f9b9ba53c4bae",
      "to": "0x7e61a5af95fc6efac03f7d92320f42b2c2fe96f0",
      "contractAddress": null,
      "gasUsedForL1": "0x0",
      "l1BlockNumber": "0x76072a",
      "timeboosted": false
    },
    {
      "status": "0x1",
      "cumulativeGasUsed": "0x6fff",
      "logs": [],
      "logsBloom": "0x00000000000000000000000000000000000000000000000000000000000000000000000000000000000000000000000000000000000000000000000000000000000000000000000000000000000000000000000000000000000000000000000000000000000000000000000000000000000000000000000000000000000000000000000000000000000000000000000000000000000000000000000000000000000000000000000000000000000000000000000000000000000000000000000000000000000000000000000000000000000000000000000000000000000000000000000000000000000000000000000000000000000000000000000000000000",
      "type": "0x2",
      "transactionHash": "0xf4269ed502243c7c9e1861852ecc2f211506415bbab845da425af10ea8e4d784",
      "transactionIndex": "0x1",
      "blockHash": "0xff2d29225a738252b65518dc57070445eeaed9b5490b11b3cd62fcfbfd83b710",
      "blockNumber": "0x7738487",
      "gasUsed": "0x6fff",
      "effectiveGasPrice": "0x5f5e100",
      "from": "0xe62ab4d111f968660c6b2188046f9b9ba53c4bae",
      "to": "0x7e61a5af95fc6efac03f7d92320f42b2c2fe96f0",
      "contractAddress": null,
      "gasUsedForL1": "0x0",
      "l1BlockNumber": "0x76072a",
      "timeboosted": false
    },
    {
      "status": "0x1",
      "cumulativeGasUsed": "0x7016",
      "logs": [],
      "logsBloom": "0x00000000000000000000000000000000000000000000000000000000000000000000000000000000000000000000000000000000000000000000000000000000000000000000000000000000000000000000000000000000000000000000000000000000000000000000000000000000000000000000000000000000000000000000000000000000000000000000000000000000000000000000000000000000000000000000000000000000000000000000000000000000000000000000000000000000000000000000000000000000000000000000000000000000000000000000000000000000000000000000000000000000000000000000000000000000",
      "type": "0x2",
      "transactionHash": "0x612d4e8dee20c0b60676c5558641237a2da8c69a36270220e48704d787f6d800",
      "transactionIndex": "0x1",
      "blockHash": "0x7b5a9e75716964e3865fbed5bde4df54c27ee4ff2d384eec0c26fde6ddd2c8d3",
      "blockNumber": "0x7738491",
      "gasUsed": "0x7016",
      "effectiveGasPrice": "0x5f5e100",
      "from": "0xe62ab4d111f968660c6b2188046f9b9ba53c4bae",
      "to": "0x7e61a5af95fc6efac03f7d92320f42b2c2fe96f0",
      "contractAddress": null,
      "gasUsedForL1": "0x0",
      "l1BlockNumber": "0x76072a",
      "timeboosted": false
    },
    {
      "status": "0x1",
      "cumulativeGasUsed": "0x702d",
      "logs": [],
      "logsBloom": "0x00000000000000000000000000000000000000000000000000000000000000000000000000000000000000000000000000000000000000000000000000000000000000000000000000000000000000000000000000000000000000000000000000000000000000000000000000000000000000000000000000000000000000000000000000000000000000000000000000000000000000000000000000000000000000000000000000000000000000000000000000000000000000000000000000000000000000000000000000000000000000000000000000000000000000000000000000000000000000000000000000000000000000000000000000000000",
      "type": "0x2",
      "transactionHash": "0xae9f0674413a4e367569dd9b54c0a70ebafc407be32e2cea11f0c46afac5efeb",
      "transactionIndex": "0x1",
      "blockHash": "0x507d441ecdded939e30b09214e98d44cc23707caa316fb3f56a0108dc0419e1d",
      "blockNumber": "0x773849a",
      "gasUsed": "0x702d",
      "effectiveGasPrice": "0x5f5e100",
      "from": "0xe62ab4d111f968660c6b2188046f9b9ba53c4bae",
      "to": "0x7e61a5af95fc6efac03f7d92320f42b2c2fe96f0",
      "contractAddress": null,
      "gasUsedForL1": "0x0",
      "l1BlockNumber": "0x76072a",
      "timeboosted": false
    },
    {
      "status": "0x1",
      "cumulativeGasUsed": "0x7044",
      "logs": [],
      "logsBloom": "0x00000000000000000000000000000000000000000000000000000000000000000000000000000000000000000000000000000000000000000000000000000000000000000000000000000000000000000000000000000000000000000000000000000000000000000000000000000000000000000000000000000000000000000000000000000000000000000000000000000000000000000000000000000000000000000000000000000000000000000000000000000000000000000000000000000000000000000000000000000000000000000000000000000000000000000000000000000000000000000000000000000000000000000000000000000000",
      "type": "0x2",
      "transactionHash": "0x78bef044b98dd6257b722ca68eb0dae5ba291db42722e09d8d041d8e546ada16",
      "transactionIndex": "0x1",
      "blockHash": "0x28f7755589afe2a39daaaa7d0b05cbb9082e3788fcd6a587347c9394a77915ae",
      "blockNumber": "0x77384a5",
      "gasUsed": "0x7044",
      "effectiveGasPrice": "0x5f5e100",
      "from": "0xe62ab4d111f968660c6b2188046f9b9ba53c4bae",
      "to": "0x7e61a5af95fc6efac03f7d92320f42b2c2fe96f0",
      "contractAddress": null,
      "gasUsedForL1": "0x0",
      "l1BlockNumber": "0x76072a",
      "timeboosted": false
    },
    {
      "status": "0x1",
      "cumulativeGasUsed": "0x7056",
      "logs": [],
      "logsBloom": "0x00000000000000000000000000000000000000000000000000000000000000000000000000000000000000000000000000000000000000000000000000000000000000000000000000000000000000000000000000000000000000000000000000000000000000000000000000000000000000000000000000000000000000000000000000000000000000000000000000000000000000000000000000000000000000000000000000000000000000000000000000000000000000000000000000000000000000000000000000000000000000000000000000000000000000000000000000000000000000000000000000000000000000000000000000000000",
      "type": "0x2",
      "transactionHash": "0x9172a26e121101869e5998206e22cd65543c1233611afd37d23afd434724d966",
      "transactionIndex": "0x1",
      "blockHash": "0x43f9b6cdf49ce5b45b6dc4f5c6b5bc3a9af8be803046bc159dfe46a95a385d53",
      "blockNumber": "0x77384b0",
      "gasUsed": "0x7056",
      "effectiveGasPrice": "0x5f5e100",
      "from": "0xe62ab4d111f968660c6b2188046f9b9ba53c4bae",
      "to": "0x7e61a5af95fc6efac03f7d92320f42b2c2fe96f0",
      "contractAddress": null,
      "gasUsedForL1": "0x0",
      "l1BlockNumber": "0x76072b",
      "timeboosted": false
    },
    {
      "status": "0x1",
      "cumulativeGasUsed": "0x19702",
      "logs": [],
      "logsBloom": "0x00000000000000000000000000000000000000000000000000000000000000000000000000000000000000000000000000000000000000000000000000000000000000000000000000000000000000000000000000000000000000000000000000000000000000000000000000000000000000000000000000000000000000000000000000000000000000000000000000000000000000000000000000000000000000000000000000000000000000000000000000000000000000000000000000000000000000000000000000000000000000000000000000000000000000000000000000000000000000000000000000000000000000000000000000000000",
      "type": "0x2",
      "transactionHash": "0xe98fd323f5d3ec05df383ec540fd25ae9f61383f207d474933695f545d38cd9f",
      "transactionIndex": "0x1",
      "blockHash": "0x5b62701b9ad1aaaa52af09d3832cc5c36e1211a84e2324cf23d9cf2b97de1fc1",
      "blockNumber": "0x77384ba",
      "gasUsed": "0x19702",
      "effectiveGasPrice": "0x5f5e100",
      "from": "0xe62ab4d111f968660c6b2188046f9b9ba53c4bae",
      "to": "0x7e61a5af95fc6efac03f7d92320f42b2c2fe96f0",
      "contractAddress": null,
      "gasUsedForL1": "0x0",
      "l1BlockNumber": "0x76072b",
      "timeboosted": false
    },
    {
      "status": "0x1",
      "cumulativeGasUsed": "0x1e7c4",
      "logs": [],
      "logsBloom": "0x00000000000000000000000000000000000000000000000000000000000000000000000000000000000000000000000000000000000000000000000000000000000000000000000000000000000000000000000000000000000000000000000000000000000000000000000000000000000000000000000000000000000000000000000000000000000000000000000000000000000000000000000000000000000000000000000000000000000000000000000000000000000000000000000000000000000000000000000000000000000000000000000000000000000000000000000000000000000000000000000000000000000000000000000000000000",
      "type": "0x2",
      "transactionHash": "0x144d6b46f9d26e36fdd6de7847d5e5de177095b408c7f9f380245f649ed89030",
      "transactionIndex": "0x1",
      "blockHash": "0xcce3d42a3215595e87d31dd1412613e5bb6869d862124438cabc09f6bed254ca",
      "blockNumber": "0x77384c4",
      "gasUsed": "0x1e7c4",
      "effectiveGasPrice": "0x5f5e100",
      "from": "0xe62ab4d111f968660c6b2188046f9b9ba53c4bae",
      "to": "0x7e61a5af95fc6efac03f7d92320f42b2c2fe96f0",
      "contractAddress": null,
      "gasUsedForL1": "0x0",
      "l1BlockNumber": "0x76072b",
      "timeboosted": false
    },
    {
      "status": "0x1",
      "cumulativeGasUsed": "0x34a38",
      "logs": [],
      "logsBloom": "0x00000000000000000000000000000000000000000000000000000000000000000000000000000000000000000000000000000000000000000000000000000000000000000000000000000000000000000000000000000000000000000000000000000000000000000000000000000000000000000000000000000000000000000000000000000000000000000000000000000000000000000000000000000000000000000000000000000000000000000000000000000000000000000000000000000000000000000000000000000000000000000000000000000000000000000000000000000000000000000000000000000000000000000000000000000000",
      "type": "0x2",
      "transactionHash": "0x66137540d05835644afac905a648398bb6ac0998acbf9f9e6f70ecec58fa050f",
      "transactionIndex": "0x1",
      "blockHash": "0x7cd3a9b863bd195e79d3d5d0d9bf262a49e663f60b031b06fb9aa09d2a22555c",
      "blockNumber": "0x77384cf",
      "gasUsed": "0x34a38",
      "effectiveGasPrice": "0x5f5e100",
      "from": "0xe62ab4d111f968660c6b2188046f9b9ba53c4bae",
      "to": "0xbab5ec2802257958d3f3a34dce2f7aa65eac922d",
      "contractAddress": null,
      "gasUsedForL1": "0x0",
      "l1BlockNumber": "0x76072b",
      "timeboosted": false
    },
    {
      "status": "0x1",
      "cumulativeGasUsed": "0x441ab",
      "logs": [],
      "logsBloom": "0x00000000000000000000000000000000000000000000000000000000000000000000000000000000000000000000000000000000000000000000000000000000000000000000000000000000000000000000000000000000000000000000000000000000000000000000000000000000000000000000000000000000000000000000000000000000000000000000000000000000000000000000000000000000000000000000000000000000000000000000000000000000000000000000000000000000000000000000000000000000000000000000000000000000000000000000000000000000000000000000000000000000000000000000000000000000",
      "type": "0x2",
      "transactionHash": "0x9f88b497c30f83a17858f14cc04c3d43f166a402367fbbda0e5b6550d6838c85",
      "transactionIndex": "0x2",
      "blockHash": "0x828895c8760db29a8b8a5f0b29739d22103e5989fc5c2d1f7e56aa4fc2d3a48f",
      "blockNumber": "0x77384da",
      "gasUsed": "0x3cb6b",
      "effectiveGasPrice": "0x5f5e100",
      "from": "0xe62ab4d111f968660c6b2188046f9b9ba53c4bae",
      "to": "0xbab5ec2802257958d3f3a34dce2f7aa65eac922d",
      "contractAddress": null,
      "gasUsedForL1": "0x0",
      "l1BlockNumber": "0x76072b",
      "timeboosted": false
    },
    {
      "status": "0x1",
      "cumulativeGasUsed": "0xee515",
      "logs": [],
      "logsBloom": "0x00000000000000000000000000000000000000000000000000000000000000000000000000000000000000000000000000000000000000000000000000000000000000000000000000000000000000000000000000000000000000000000000000000000000000000000000000000000000000000000000000000000000000000000000000000000000000000000000000000000000000000000000000000000000000000000000000000000000000000000000000000000000000000000000000000000000000000000000000000000000000000000000000000000000000000000000000000000000000000000000000000000000000000000000000000000",
      "type": "0x2",
      "transactionHash": "0x59930a860f6d6509d16bd63785866c5b8754829e89a565626e7f8276f24ae81b",
      "transactionIndex": "0x4",
      "blockHash": "0xc84ff60c92145e46d1e2ce13e992e8f5b205a46d285ed4083e0543fcfef0784f",
      "blockNumber": "0x77384e5",
      "gasUsed": "0x35ef6",
      "effectiveGasPrice": "0x5f5e100",
      "from": "0xe62ab4d111f968660c6b2188046f9b9ba53c4bae",
      "to": "0xbab5ec2802257958d3f3a34dce2f7aa65eac922d",
      "contractAddress": null,
      "gasUsedForL1": "0x0",
      "l1BlockNumber": "0x76072d",
      "timeboosted": false
    },
    {
      "status": "0x1",
      "cumulativeGasUsed": "0x43cb7",
      "logs": [],
      "logsBloom": "0x00000000000000000000000000000000000000000000000000000000000000000000000000000000000000000000000000000000000000000000000000000000000000000000000000000000000000000000000000000000000000000000000000000000000000000000000000000000000000000000000000000000000000000000000000000000000000000000000000000000000000000000000000000000000000000000000000000000000000000000000000000000000000000000000000000000000000000000000000000000000000000000000000000000000000000000000000000000000000000000000000000000000000000000000000000000",
      "type": "0x2",
      "transactionHash": "0x99abf59783b441ed395298ff0fe35fef12f22671ac171165b01f9db3239eb121",
      "transactionIndex": "0x2",
      "blockHash": "0x83a61201282dc4bb785562016787f9a3c9e4d0c02bc16ff6f393aa7e94afd0d6",
      "blockNumber": "0x77384f0",
      "gasUsed": "0x360c6",
      "effectiveGasPrice": "0x5f5e100",
      "from": "0xe62ab4d111f968660c6b2188046f9b9ba53c4bae",
      "to": "0xbab5ec2802257958d3f3a34dce2f7aa65eac922d",
      "contractAddress": null,
      "gasUsedForL1": "0x0",
      "l1BlockNumber": "0x76072d",
      "timeboosted": false
    }
  ],
  "libraries": [],
  "pending": [],
  "returns": {},
  "timestamp": 1739897708,
  "chain": 421614,
  "commit": "be616da9"
}