{
  "transactions": [
    {
      "hash": "0x58bab50aa170f069865f3e4f897fbf97e3023ba4f20d59f5f8759187a7dde574",
      "transactionType": "CALL",
      "contractName": "CTMRWAGateway",
      "contractAddress": "0x74972e7ff5561bd902e3ec3ddd5a22653088ca6f",
      "function": "attachRWAX(uint256,uint256,string,string)",
      "arguments": [
        "1",
        "1",
        "421614",
        "0xb41c8b53ea014188ba6777233e04efddbf4877b1"
      ],
      "transaction": {
        "from": "0xe62ab4d111f968660c6b2188046f9b9ba53c4bae",
        "to": "0x74972e7ff5561bd902e3ec3ddd5a22653088ca6f",
        "gas": "0x1809e",
        "value": "0x0",
        "input": "0x5cbee36a00000000000000000000000000000000000000000000000000000000000000010000000000000000000000000000000000000000000000000000000000000001000000000000000000000000000000000000000000000000000000000000008000000000000000000000000000000000000000000000000000000000000000c000000000000000000000000000000000000000000000000000000000000000063432313631340000000000000000000000000000000000000000000000000000000000000000000000000000000000000000000000000000000000000000002a30786234316338623533656130313431383862613637373732333365303465666464626634383737623100000000000000000000000000000000000000000000",
        "nonce": "0x1e9",
        "chainId": "0x66eee"
      },
      "additionalContracts": [],
      "isFixedGasLimit": false
    },
    {
      "hash": "0xfd31f23a57ad928fe927d4eb98a7b6d9104499956045d049b78371a466c70f3c",
      "transactionType": "CALL",
      "contractName": "CTMRWAGateway",
      "contractAddress": "0x74972e7ff5561bd902e3ec3ddd5a22653088ca6f",
      "function": "attachStorageManager(uint256,uint256,string,string)",
      "arguments": [
        "1",
        "1",
        "421614",
        "0x00cb1299d29a1d389879c1af2316a4b2c78da610"
      ],
      "transaction": {
        "from": "0xe62ab4d111f968660c6b2188046f9b9ba53c4bae",
        "to": "0x74972e7ff5561bd902e3ec3ddd5a22653088ca6f",
        "gas": "0x17fd7",
        "value": "0x0",
        "input": "0x6bb884f300000000000000000000000000000000000000000000000000000000000000010000000000000000000000000000000000000000000000000000000000000001000000000000000000000000000000000000000000000000000000000000008000000000000000000000000000000000000000000000000000000000000000c000000000000000000000000000000000000000000000000000000000000000063432313631340000000000000000000000000000000000000000000000000000000000000000000000000000000000000000000000000000000000000000002a30783030636231323939643239613164333839383739633161663233313661346232633738646136313000000000000000000000000000000000000000000000",
        "nonce": "0x1ea",
        "chainId": "0x66eee"
      },
      "additionalContracts": [],
      "isFixedGasLimit": false
    },
    {
      "hash": "0xe53abd444bb2795db81b71b9ba04544c5a2d30f7d1ca12397f17ee5ed2cfe540",
      "transactionType": "CALL",
      "contractName": "CTMRWAGateway",
      "contractAddress": "0x74972e7ff5561bd902e3ec3ddd5a22653088ca6f",
      "function": "addChainContract(string,string)",
      "arguments": [
        "80002",
        "0xdc432bc497a9e38f3ae319842777c9829aac47c4"
      ],
      "transaction": {
        "from": "0xe62ab4d111f968660c6b2188046f9b9ba53c4bae",
        "to": "0x74972e7ff5561bd902e3ec3ddd5a22653088ca6f",
        "gas": "0x3239a",
        "value": "0x0",
        "input": "0x12d3fcfa0000000000000000000000000000000000000000000000000000000000000040000000000000000000000000000000000000000000000000000000000000008000000000000000000000000000000000000000000000000000000000000000053830303032000000000000000000000000000000000000000000000000000000000000000000000000000000000000000000000000000000000000000000002a30786463343332626334393761396533386633616533313938343237373763393832396161633437633400000000000000000000000000000000000000000000",
        "nonce": "0x1eb",
        "chainId": "0x66eee"
      },
      "additionalContracts": [],
      "isFixedGasLimit": false
    },
    {
      "hash": "0x0725b6333733738e873235f9501cc2414a803ebe8cd47dcb49ddf0444c51e4b7",
      "transactionType": "CALL",
      "contractName": "CTMRWAGateway",
      "contractAddress": "0x74972e7ff5561bd902e3ec3ddd5a22653088ca6f",
      "function": "attachRWAX(uint256,uint256,string,string)",
      "arguments": [
        "1",
        "1",
        "80002",
        "0xd7155b99ca57aa4c0711a87b982f517de5a036de"
      ],
      "transaction": {
        "from": "0xe62ab4d111f968660c6b2188046f9b9ba53c4bae",
        "to": "0x74972e7ff5561bd902e3ec3ddd5a22653088ca6f",
        "gas": "0x32968",
        "value": "0x0",
        "input": "0x5cbee36a00000000000000000000000000000000000000000000000000000000000000010000000000000000000000000000000000000000000000000000000000000001000000000000000000000000000000000000000000000000000000000000008000000000000000000000000000000000000000000000000000000000000000c000000000000000000000000000000000000000000000000000000000000000053830303032000000000000000000000000000000000000000000000000000000000000000000000000000000000000000000000000000000000000000000002a30786437313535623939636135376161346330373131613837623938326635313764653561303336646500000000000000000000000000000000000000000000",
        "nonce": "0x1ec",
        "chainId": "0x66eee"
      },
      "additionalContracts": [],
      "isFixedGasLimit": false
    },
    {
      "hash": "0x68474ee52355a989303ae98d3a67dda84be83741a6b7429af0383bba7b0e7df1",
      "transactionType": "CALL",
      "contractName": "CTMRWAGateway",
      "contractAddress": "0x74972e7ff5561bd902e3ec3ddd5a22653088ca6f",
      "function": "attachStorageManager(uint256,uint256,string,string)",
      "arguments": [
        "1",
        "1",
        "80002",
        "0xb9676266295363bc85a31305b479baddf4516033"
      ],
      "transaction": {
        "from": "0xe62ab4d111f968660c6b2188046f9b9ba53c4bae",
        "to": "0x74972e7ff5561bd902e3ec3ddd5a22653088ca6f",
        "gas": "0x32711",
        "value": "0x0",
        "input": "0x6bb884f300000000000000000000000000000000000000000000000000000000000000010000000000000000000000000000000000000000000000000000000000000001000000000000000000000000000000000000000000000000000000000000008000000000000000000000000000000000000000000000000000000000000000c000000000000000000000000000000000000000000000000000000000000000053830303032000000000000000000000000000000000000000000000000000000000000000000000000000000000000000000000000000000000000000000002a30786239363736323636323935333633626338356133313330356234373962616464663435313630333300000000000000000000000000000000000000000000",
        "nonce": "0x1ed",
        "chainId": "0x66eee"
      },
      "additionalContracts": [],
      "isFixedGasLimit": false
    }
  ],
  "receipts": [
    {
      "status": "0x1",
      "cumulativeGasUsed": "0x11c20",
      "logs": [],
      "logsBloom": "0x00000000000000000000000000000000000000000000000000000000000000000000000000000000000000000000000000000000000000000000000000000000000000000000000000000000000000000000000000000000000000000000000000000000000000000000000000000000000000000000000000000000000000000000000000000000000000000000000000000000000000000000000000000000000000000000000000000000000000000000000000000000000000000000000000000000000000000000000000000000000000000000000000000000000000000000000000000000000000000000000000000000000000000000000000000000",
      "type": "0x2",
      "transactionHash": "0x58bab50aa170f069865f3e4f897fbf97e3023ba4f20d59f5f8759187a7dde574",
      "transactionIndex": "0x1",
      "blockHash": "0x7212af8d92f7c04fc0f2a8a66a940b7ff9942f6c52eaedcc7d5a15cd15ac81f2",
      "blockNumber": "0x58c7466",
      "gasUsed": "0x11c20",
      "effectiveGasPrice": "0x5f5e100",
      "from": "0xe62ab4d111f968660c6b2188046f9b9ba53c4bae",
      "to": "0x74972e7ff5561bd902e3ec3ddd5a22653088ca6f",
      "contractAddress": null,
      "gasUsedForL1": "0x6b1",
      "l1BlockNumber": "0x6a7f0f"
    },
    {
      "status": "0x1",
      "cumulativeGasUsed": "0x11b52",
      "logs": [],
      "logsBloom": "0x00000000000000000000000000000000000000000000000000000000000000000000000000000000000000000000000000000000000000000000000000000000000000000000000000000000000000000000000000000000000000000000000000000000000000000000000000000000000000000000000000000000000000000000000000000000000000000000000000000000000000000000000000000000000000000000000000000000000000000000000000000000000000000000000000000000000000000000000000000000000000000000000000000000000000000000000000000000000000000000000000000000000000000000000000000000",
      "type": "0x2",
      "transactionHash": "0xfd31f23a57ad928fe927d4eb98a7b6d9104499956045d049b78371a466c70f3c",
      "transactionIndex": "0x1",
      "blockHash": "0xdaf43b14f28319ed9b769f22155a99a0c6eb1e2e34b8060b096e2e0b5684821f",
      "blockNumber": "0x58c746a",
      "gasUsed": "0x11b52",
      "effectiveGasPrice": "0x5f5e100",
      "from": "0xe62ab4d111f968660c6b2188046f9b9ba53c4bae",
      "to": "0x74972e7ff5561bd902e3ec3ddd5a22653088ca6f",
      "contractAddress": null,
      "gasUsedForL1": "0x673",
      "l1BlockNumber": "0x6a7f0f"
    },
    {
      "status": "0x1",
      "cumulativeGasUsed": "0x44bdf",
      "logs": [],
      "logsBloom": "0x00000000000000000000000000000000000000000000000000000000000000000000000000000000000000000000000000000000000000000000000000000000000000000000000000000000000000000000000000000000000000000000000000000000000000000000000000000000000000000000000000000000000000000000000000000000000000000000000000000000000000000000000000000000000000000000000000000000000000000000000000000000000000000000000000000000000000000000000000000000000000000000000000000000000000000000000000000000000000000000000000000000000000000000000000000000",
      "type": "0x2",
      "transactionHash": "0xe53abd444bb2795db81b71b9ba04544c5a2d30f7d1ca12397f17ee5ed2cfe540",
      "transactionIndex": "0x2",
      "blockHash": "0x21ff983546b6144bea46eb23e5d4c0adf7575bba34f9e9e1f1906f91417486ab",
      "blockNumber": "0x58c7482",
      "gasUsed": "0x263e3",
      "effectiveGasPrice": "0x5f5e100",
      "from": "0xe62ab4d111f968660c6b2188046f9b9ba53c4bae",
      "to": "0x74972e7ff5561bd902e3ec3ddd5a22653088ca6f",
      "contractAddress": null,
      "gasUsedForL1": "0x685",
      "l1BlockNumber": "0x6a7f10"
    },
    {
      "status": "0x1",
      "cumulativeGasUsed": "0x2684e",
      "logs": [],
      "logsBloom": "0x00000000000000000000000000000000000000000000000000000000000000000000000000000000000000000000000000000000000000000000000000000000000000000000000000000000000000000000000000000000000000000000000000000000000000000000000000000000000000000000000000000000000000000000000000000000000000000000000000000000000000000000000000000000000000000000000000000000000000000000000000000000000000000000000000000000000000000000000000000000000000000000000000000000000000000000000000000000000000000000000000000000000000000000000000000000",
      "type": "0x2",
      "transactionHash": "0x0725b6333733738e873235f9501cc2414a803ebe8cd47dcb49ddf0444c51e4b7",
      "transactionIndex": "0x1",
      "blockHash": "0xf1e12e03d2b4d50ba9f5710221a468357ba27099809eba3aa46fe567d02bf5ba",
      "blockNumber": "0x58c749c",
      "gasUsed": "0x2684e",
      "effectiveGasPrice": "0x5f5e100",
      "from": "0xe62ab4d111f968660c6b2188046f9b9ba53c4bae",
      "to": "0x74972e7ff5561bd902e3ec3ddd5a22653088ca6f",
      "contractAddress": null,
      "gasUsedForL1": "0x692",
      "l1BlockNumber": "0x6a7f11"
    },
    {
      "status": "0x1",
      "cumulativeGasUsed": "0x2667d",
      "logs": [],
      "logsBloom": "0x00000000000000000000000000000000000000000000000000000000000000000000000000000000000000000000000000000000000000000000000000000000000000000000000000000000000000000000000000000000000000000000000000000000000000000000000000000000000000000000000000000000000000000000000000000000000000000000000000000000000000000000000000000000000000000000000000000000000000000000000000000000000000000000000000000000000000000000000000000000000000000000000000000000000000000000000000000000000000000000000000000000000000000000000000000000",
      "type": "0x2",
      "transactionHash": "0x68474ee52355a989303ae98d3a67dda84be83741a6b7429af0383bba7b0e7df1",
      "transactionIndex": "0x1",
      "blockHash": "0x3d5e19dd753bf41374fc16aa79ee7fc52678001047a37104125aa96ea3998cc6",
      "blockNumber": "0x58c74ba",
      "gasUsed": "0x2667d",
      "effectiveGasPrice": "0x5f5e100",
      "from": "0xe62ab4d111f968660c6b2188046f9b9ba53c4bae",
      "to": "0x74972e7ff5561bd902e3ec3ddd5a22653088ca6f",
      "contractAddress": null,
      "gasUsedForL1": "0x68c",
      "l1BlockNumber": "0x6a7f11"
    }
  ],
  "libraries": [],
  "pending": [],
  "returns": {},
  "timestamp": 1730326454,
  "chain": 421614,
  "commit": "34a11392"
}