{
  "transactions": [
    {
      "hash": "0x630b5f521b454a7347a89d7abd3299dabbf99906f632d3a6e05647a42081a4dc",
      "transactionType": "CALL",
      "contractName": null,
      "contractAddress": "0x9068f274555af3cd0a934dbcf1c56e7b83ad450a",
      "function": "addFeeToken(string)",
      "arguments": [
        "0x92829288c6aa874c1a0f190da35a4023c22be637"
      ],
      "transaction": {
        "from": "0xe62ab4d111f968660c6b2188046f9b9ba53c4bae",
        "to": "0x9068f274555af3cd0a934dbcf1c56e7b83ad450a",
        "gas": "0x279c0",
        "value": "0x0",
        "input": "0x12a6385f0000000000000000000000000000000000000000000000000000000000000020000000000000000000000000000000000000000000000000000000000000002a30783932383239323838633661613837346331613066313930646133356134303233633232626536333700000000000000000000000000000000000000000000",
        "nonce": "0x2ca",
        "chainId": "0x66eee"
      },
      "additionalContracts": [],
      "isFixedGasLimit": false
    },
    {
      "hash": "0x9d6953e1b459da5e82f1035e5e476ca2b85c70f046844d76aa2bf50492af1b32",
      "transactionType": "CALL",
      "contractName": null,
      "contractAddress": "0x9068f274555af3cd0a934dbcf1c56e7b83ad450a",
      "function": "setFeeMultiplier(uint8,uint256)",
      "arguments": [
        "0",
        "2"
      ],
      "transaction": {
        "from": "0xe62ab4d111f968660c6b2188046f9b9ba53c4bae",
        "to": "0x9068f274555af3cd0a934dbcf1c56e7b83ad450a",
        "gas": "0x11ff9",
        "value": "0x0",
        "input": "0x0ee24eb500000000000000000000000000000000000000000000000000000000000000000000000000000000000000000000000000000000000000000000000000000002",
        "nonce": "0x2cb",
        "chainId": "0x66eee"
      },
      "additionalContracts": [],
      "isFixedGasLimit": false
    },
    {
      "hash": "0xfe2c9fc022290f08644f7cf2ae8046c815e55dc7b2e39bd8aa148cec9f70f9f9",
      "transactionType": "CALL",
      "contractName": null,
      "contractAddress": "0x9068f274555af3cd0a934dbcf1c56e7b83ad450a",
      "function": "setFeeMultiplier(uint8,uint256)",
      "arguments": [
        "1",
        "10"
      ],
      "transaction": {
        "from": "0xe62ab4d111f968660c6b2188046f9b9ba53c4bae",
        "to": "0x9068f274555af3cd0a934dbcf1c56e7b83ad450a",
        "gas": "0x12027",
        "value": "0x0",
        "input": "0x0ee24eb50000000000000000000000000000000000000000000000000000000000000001000000000000000000000000000000000000000000000000000000000000000a",
        "nonce": "0x2cc",
        "chainId": "0x66eee"
      },
      "additionalContracts": [],
      "isFixedGasLimit": false
    },
    {
      "hash": "0xacfc6879d125d811b10149e0aaac59835842233922dc3acae5c1858fef8e4d05",
      "transactionType": "CALL",
      "contractName": null,
      "contractAddress": "0x9068f274555af3cd0a934dbcf1c56e7b83ad450a",
      "function": "setFeeMultiplier(uint8,uint256)",
      "arguments": [
        "2",
        "1"
      ],
      "transaction": {
        "from": "0xe62ab4d111f968660c6b2188046f9b9ba53c4bae",
        "to": "0x9068f274555af3cd0a934dbcf1c56e7b83ad450a",
        "gas": "0x12045",
        "value": "0x0",
        "input": "0x0ee24eb500000000000000000000000000000000000000000000000000000000000000020000000000000000000000000000000000000000000000000000000000000001",
        "nonce": "0x2cd",
        "chainId": "0x66eee"
      },
      "additionalContracts": [],
      "isFixedGasLimit": false
    },
    {
      "hash": "0xf917a0df23551383eeac34f498e116c2db078512a47478131937d7d074dc0458",
      "transactionType": "CALL",
      "contractName": null,
      "contractAddress": "0x9068f274555af3cd0a934dbcf1c56e7b83ad450a",
      "function": "setFeeMultiplier(uint8,uint256)",
      "arguments": [
        "3",
        "4"
      ],
      "transaction": {
        "from": "0xe62ab4d111f968660c6b2188046f9b9ba53c4bae",
        "to": "0x9068f274555af3cd0a934dbcf1c56e7b83ad450a",
        "gas": "0x12063",
        "value": "0x0",
        "input": "0x0ee24eb500000000000000000000000000000000000000000000000000000000000000030000000000000000000000000000000000000000000000000000000000000004",
        "nonce": "0x2ce",
        "chainId": "0x66eee"
      },
      "additionalContracts": [],
      "isFixedGasLimit": false
    },
    {
      "hash": "0x08c1a5d871cdbe5ba4a0bc381eaccc9bf30ec63349bd2726cffdfd906a32cb94",
      "transactionType": "CALL",
      "contractName": null,
      "contractAddress": "0x9068f274555af3cd0a934dbcf1c56e7b83ad450a",
      "function": "setFeeMultiplier(uint8,uint256)",
      "arguments": [
        "4",
        "4"
      ],
      "transaction": {
        "from": "0xe62ab4d111f968660c6b2188046f9b9ba53c4bae",
        "to": "0x9068f274555af3cd0a934dbcf1c56e7b83ad450a",
        "gas": "0x1207a",
        "value": "0x0",
        "input": "0x0ee24eb500000000000000000000000000000000000000000000000000000000000000040000000000000000000000000000000000000000000000000000000000000004",
        "nonce": "0x2cf",
        "chainId": "0x66eee"
      },
      "additionalContracts": [],
      "isFixedGasLimit": false
    },
    {
      "hash": "0x47fcc42665ea3fc26ea7e0432e2d0f48c3ad08284f158cac8c90a45c2243573a",
      "transactionType": "CALL",
      "contractName": null,
      "contractAddress": "0x9068f274555af3cd0a934dbcf1c56e7b83ad450a",
      "function": "addFeeToken(string,string[],uint256[])",
      "arguments": [
        "80002",
        "[0x92829288c6aa874c1a0f190da35a4023c22be637]",
        "[1000]"
      ],
      "transaction": {
        "from": "0xe62ab4d111f968660c6b2188046f9b9ba53c4bae",
        "to": "0x9068f274555af3cd0a934dbcf1c56e7b83ad450a",
        "gas": "0x3182e",
        "value": "0x0",
        "input": "0x437bf84f000000000000000000000000000000000000000000000000000000000000006000000000000000000000000000000000000000000000000000000000000000a000000000000000000000000000000000000000000000000000000000000001400000000000000000000000000000000000000000000000000000000000000005383030303200000000000000000000000000000000000000000000000000000000000000000000000000000000000000000000000000000000000000000000010000000000000000000000000000000000000000000000000000000000000020000000000000000000000000000000000000000000000000000000000000002a30783932383239323838633661613837346331613066313930646133356134303233633232626536333700000000000000000000000000000000000000000000000000000000000000000000000000000000000000000000000000000000000100000000000000000000000000000000000000000000000000000000000003e8",
        "nonce": "0x2d0",
        "chainId": "0x66eee"
      },
      "additionalContracts": [],
      "isFixedGasLimit": false
    },
    {
      "hash": "0xe22051ff86a47ea19405d8b3b8e391af9bdf41aac1ac8fcaf90bf01317e3f3df",
      "transactionType": "CALL",
      "contractName": null,
      "contractAddress": "0x9068f274555af3cd0a934dbcf1c56e7b83ad450a",
      "function": "addFeeToken(string,string[],uint256[])",
      "arguments": [
        "84532",
        "[0x92829288c6aa874c1a0f190da35a4023c22be637]",
        "[1000]"
      ],
      "transaction": {
        "from": "0xe62ab4d111f968660c6b2188046f9b9ba53c4bae",
        "to": "0x9068f274555af3cd0a934dbcf1c56e7b83ad450a",
        "gas": "0x29ab2",
        "value": "0x0",
        "input": "0x437bf84f000000000000000000000000000000000000000000000000000000000000006000000000000000000000000000000000000000000000000000000000000000a000000000000000000000000000000000000000000000000000000000000001400000000000000000000000000000000000000000000000000000000000000005383435333200000000000000000000000000000000000000000000000000000000000000000000000000000000000000000000000000000000000000000000010000000000000000000000000000000000000000000000000000000000000020000000000000000000000000000000000000000000000000000000000000002a30783932383239323838633661613837346331613066313930646133356134303233633232626536333700000000000000000000000000000000000000000000000000000000000000000000000000000000000000000000000000000000000100000000000000000000000000000000000000000000000000000000000003e8",
        "nonce": "0x2d1",
        "chainId": "0x66eee"
      },
      "additionalContracts": [],
      "isFixedGasLimit": false
    },
    {
      "hash": "0xc39d982502ce75832479f4b39ff28e635f16f78c8853fa806846f752f554a008",
      "transactionType": "CALL",
      "contractName": null,
      "contractAddress": "0x9068f274555af3cd0a934dbcf1c56e7b83ad450a",
      "function": "addFeeToken(string,string[],uint256[])",
      "arguments": [
        "97",
        "[0x92829288c6aa874c1a0f190da35a4023c22be637]",
        "[1000]"
      ],
      "transaction": {
        "from": "0xe62ab4d111f968660c6b2188046f9b9ba53c4bae",
        "to": "0x9068f274555af3cd0a934dbcf1c56e7b83ad450a",
        "gas": "0x2bb44",
        "value": "0x0",
        "input": "0x437bf84f000000000000000000000000000000000000000000000000000000000000006000000000000000000000000000000000000000000000000000000000000000a000000000000000000000000000000000000000000000000000000000000001400000000000000000000000000000000000000000000000000000000000000002393700000000000000000000000000000000000000000000000000000000000000000000000000000000000000000000000000000000000000000000000000010000000000000000000000000000000000000000000000000000000000000020000000000000000000000000000000000000000000000000000000000000002a30783932383239323838633661613837346331613066313930646133356134303233633232626536333700000000000000000000000000000000000000000000000000000000000000000000000000000000000000000000000000000000000100000000000000000000000000000000000000000000000000000000000003e8",
        "nonce": "0x2d2",
        "chainId": "0x66eee"
      },
      "additionalContracts": [],
      "isFixedGasLimit": false
    },
    {
      "hash": "0xdd5252dbdc4c1da75293f3cc8dbc1999c5ac35a9f3a93a32a8c097eab220f55f",
      "transactionType": "CALL",
      "contractName": null,
      "contractAddress": "0x9068f274555af3cd0a934dbcf1c56e7b83ad450a",
      "function": "addFeeToken(string,string[],uint256[])",
      "arguments": [
        "11155111",
        "[0x92829288c6aa874c1a0f190da35a4023c22be637]",
        "[1000]"
      ],
      "transaction": {
        "from": "0xe62ab4d111f968660c6b2188046f9b9ba53c4bae",
        "to": "0x9068f274555af3cd0a934dbcf1c56e7b83ad450a",
        "gas": "0x2c891",
        "value": "0x0",
        "input": "0x437bf84f000000000000000000000000000000000000000000000000000000000000006000000000000000000000000000000000000000000000000000000000000000a000000000000000000000000000000000000000000000000000000000000001400000000000000000000000000000000000000000000000000000000000000008313131353531313100000000000000000000000000000000000000000000000000000000000000000000000000000000000000000000000000000000000000010000000000000000000000000000000000000000000000000000000000000020000000000000000000000000000000000000000000000000000000000000002a30783932383239323838633661613837346331613066313930646133356134303233633232626536333700000000000000000000000000000000000000000000000000000000000000000000000000000000000000000000000000000000000100000000000000000000000000000000000000000000000000000000000003e8",
        "nonce": "0x2d3",
        "chainId": "0x66eee"
      },
      "additionalContracts": [],
      "isFixedGasLimit": false
    },
    {
      "hash": "0x70e692e9b6452071bf2b9786a22ff5dd9e6571f88de02f69608dc0b278ed6b17",
      "transactionType": "CALL",
      "contractName": "CTMRWAGateway",
      "contractAddress": "0x358498985e6ac7ca73f5110b415525ae04cb8313",
      "function": "addChainContract(string[],string[])",
      "arguments": [
        "[80002, 84532, 97, 11155111]",
        "[0x2927d422cbea7f315ee3e0660af2ed9b35302004, 0x6640ec42f86abcf799c21a070f7baf6db38a2ab9, 0x969035b34b913c507b87fd805fff608fb1fe13f0, 0x9266e8bf4943f2b366f2be89688a8622084db8b9]"
      ],
      "transaction": {
        "from": "0xe62ab4d111f968660c6b2188046f9b9ba53c4bae",
        "to": "0x358498985e6ac7ca73f5110b415525ae04cb8313",
        "gas": "0xa72ca",
        "value": "0x0",
        "input": "0x013fd3bd000000000000000000000000000000000000000000000000000000000000004000000000000000000000000000000000000000000000000000000000000001e00000000000000000000000000000000000000000000000000000000000000004000000000000000000000000000000000000000000000000000000000000008000000000000000000000000000000000000000000000000000000000000000c000000000000000000000000000000000000000000000000000000000000001000000000000000000000000000000000000000000000000000000000000000140000000000000000000000000000000000000000000000000000000000000000538303030320000000000000000000000000000000000000000000000000000000000000000000000000000000000000000000000000000000000000000000005383435333200000000000000000000000000000000000000000000000000000000000000000000000000000000000000000000000000000000000000000000023937000000000000000000000000000000000000000000000000000000000000000000000000000000000000000000000000000000000000000000000000000831313135353131310000000000000000000000000000000000000000000000000000000000000000000000000000000000000000000000000000000000000004000000000000000000000000000000000000000000000000000000000000008000000000000000000000000000000000000000000000000000000000000000e0000000000000000000000000000000000000000000000000000000000000014000000000000000000000000000000000000000000000000000000000000001a0000000000000000000000000000000000000000000000000000000000000002a30783239323764343232636265613766333135656533653036363061663265643962333533303230303400000000000000000000000000000000000000000000000000000000000000000000000000000000000000000000000000000000002a30783636343065633432663836616263663739396332316130373066376261663664623338613261623900000000000000000000000000000000000000000000000000000000000000000000000000000000000000000000000000000000002a30783936393033356233346239313363353037623837666438303566666636303866623166653133663000000000000000000000000000000000000000000000000000000000000000000000000000000000000000000000000000000000002a30783932363665386266343934336632623336366632626538393638386138363232303834646238623900000000000000000000000000000000000000000000",
        "nonce": "0x2d4",
        "chainId": "0x66eee"
      },
      "additionalContracts": [],
      "isFixedGasLimit": false
    },
    {
      "hash": "0x51902685db3e75d55e85907ff1ed1af2144a2734dcef38baf203464bc185e4f6",
      "transactionType": "CALL",
      "contractName": "CTMRWAGateway",
      "contractAddress": "0x358498985e6ac7ca73f5110b415525ae04cb8313",
      "function": "attachRWAX(uint256,uint256,string[],string[])",
      "arguments": [
        "1",
        "1",
        "[421614, 80002, 84532, 97, 11155111]",
        "[0x9dc772b55e95a630031ebe431706d105af01cf03, 0x1b87108b35abb5751bfc64647e9d5cd1cb77e236, 0x8230abab39f9c618282ddd0af1dfa278de7df98f, 0x66b719c489193594c617801e67119959cd15b63a, 0xb5638019cbfc1b523d5167a269e755b05bf24fd9]"
      ],
      "transaction": {
        "from": "0xe62ab4d111f968660c6b2188046f9b9ba53c4bae",
        "to": "0x358498985e6ac7ca73f5110b415525ae04cb8313",
        "gas": "0xd2237",
        "value": "0x0",
        "input": "0x33a5f5b40000000000000000000000000000000000000000000000000000000000000001000000000000000000000000000000000000000000000000000000000000000100000000000000000000000000000000000000000000000000000000000000800000000000000000000000000000000000000000000000000000000000000280000000000000000000000000000000000000000000000000000000000000000500000000000000000000000000000000000000000000000000000000000000a000000000000000000000000000000000000000000000000000000000000000e00000000000000000000000000000000000000000000000000000000000000120000000000000000000000000000000000000000000000000000000000000016000000000000000000000000000000000000000000000000000000000000001a00000000000000000000000000000000000000000000000000000000000000006343231363134000000000000000000000000000000000000000000000000000000000000000000000000000000000000000000000000000000000000000000053830303032000000000000000000000000000000000000000000000000000000000000000000000000000000000000000000000000000000000000000000000538343533320000000000000000000000000000000000000000000000000000000000000000000000000000000000000000000000000000000000000000000002393700000000000000000000000000000000000000000000000000000000000000000000000000000000000000000000000000000000000000000000000000083131313535313131000000000000000000000000000000000000000000000000000000000000000000000000000000000000000000000000000000000000000500000000000000000000000000000000000000000000000000000000000000a00000000000000000000000000000000000000000000000000000000000000100000000000000000000000000000000000000000000000000000000000000016000000000000000000000000000000000000000000000000000000000000001c00000000000000000000000000000000000000000000000000000000000000220000000000000000000000000000000000000000000000000000000000000002a30783964633737326235356539356136333030333165626534333137303664313035616630316366303300000000000000000000000000000000000000000000000000000000000000000000000000000000000000000000000000000000002a30783162383731303862333561626235373531626663363436343765396435636431636237376532333600000000000000000000000000000000000000000000000000000000000000000000000000000000000000000000000000000000002a30783832333061626162333966396336313832383264646430616631646661323738646537646639386600000000000000000000000000000000000000000000000000000000000000000000000000000000000000000000000000000000002a30783636623731396334383931393335393463363137383031653637313139393539636431356236336100000000000000000000000000000000000000000000000000000000000000000000000000000000000000000000000000000000002a30786235363338303139636266633162353233643531363761323639653735356230356266323466643900000000000000000000000000000000000000000000",
        "nonce": "0x2d5",
        "chainId": "0x66eee"
      },
      "additionalContracts": [],
      "isFixedGasLimit": false
    },
    {
      "hash": "0xcef742da8e0d99cc075fb1d9407f2d71197a2790f2197c4b9bb6c78c777ec554",
      "transactionType": "CALL",
      "contractName": "CTMRWAGateway",
      "contractAddress": "0x358498985e6ac7ca73f5110b415525ae04cb8313",
      "function": "attachStorageManager(uint256,uint256,string[],string[])",
      "arguments": [
        "1",
        "1",
        "[421614, 80002, 84532, 97, 11155111]",
        "[0xc047401f28f43ec8af8c5aaac26bf7d007e2474a, 0x3418a45e442210ec9579b074ae9acb13b2a67554, 0xaf685f104e7428311f25526180cbd416fa8668cd, 0xe569c146b0d4c1c941607b5c6a648b5877ae29ef, 0xa240b0714712e2927ec055ceaa8e031ac671a55f]"
      ],
      "transaction": {
        "from": "0xe62ab4d111f968660c6b2188046f9b9ba53c4bae",
        "to": "0x358498985e6ac7ca73f5110b415525ae04cb8313",
        "gas": "0xd224e",
        "value": "0x0",
        "input": "0x2f68b4890000000000000000000000000000000000000000000000000000000000000001000000000000000000000000000000000000000000000000000000000000000100000000000000000000000000000000000000000000000000000000000000800000000000000000000000000000000000000000000000000000000000000280000000000000000000000000000000000000000000000000000000000000000500000000000000000000000000000000000000000000000000000000000000a000000000000000000000000000000000000000000000000000000000000000e00000000000000000000000000000000000000000000000000000000000000120000000000000000000000000000000000000000000000000000000000000016000000000000000000000000000000000000000000000000000000000000001a00000000000000000000000000000000000000000000000000000000000000006343231363134000000000000000000000000000000000000000000000000000000000000000000000000000000000000000000000000000000000000000000053830303032000000000000000000000000000000000000000000000000000000000000000000000000000000000000000000000000000000000000000000000538343533320000000000000000000000000000000000000000000000000000000000000000000000000000000000000000000000000000000000000000000002393700000000000000000000000000000000000000000000000000000000000000000000000000000000000000000000000000000000000000000000000000083131313535313131000000000000000000000000000000000000000000000000000000000000000000000000000000000000000000000000000000000000000500000000000000000000000000000000000000000000000000000000000000a00000000000000000000000000000000000000000000000000000000000000100000000000000000000000000000000000000000000000000000000000000016000000000000000000000000000000000000000000000000000000000000001c00000000000000000000000000000000000000000000000000000000000000220000000000000000000000000000000000000000000000000000000000000002a30786330343734303166323866343365633861663863356161616332366266376430303765323437346100000000000000000000000000000000000000000000000000000000000000000000000000000000000000000000000000000000002a30783334313861343565343432323130656339353739623037346165396163623133623261363735353400000000000000000000000000000000000000000000000000000000000000000000000000000000000000000000000000000000002a30786166363835663130346537343238333131663235353236313830636264343136666138363638636400000000000000000000000000000000000000000000000000000000000000000000000000000000000000000000000000000000002a30786535363963313436623064346331633934313630376235633661363438623538373761653239656600000000000000000000000000000000000000000000000000000000000000000000000000000000000000000000000000000000002a30786132343062303731343731326532393237656330353563656161386530333161633637316135356600000000000000000000000000000000000000000000",
        "nonce": "0x2d6",
        "chainId": "0x66eee"
      },
      "additionalContracts": [],
      "isFixedGasLimit": false
    }
  ],
  "receipts": [
    {
      "status": "0x1",
      "cumulativeGasUsed": "0x1dbd7",
      "logs": [
        {
          "address": "0x9068f274555af3cd0a934dbcf1c56e7b83ad450a",
          "topics": [
            "0x1394cfab38f3fc78ed77ea6f9318782a446d96e7dc8e9a6b0149f6be25c08bcf",
            "0x00000000000000000000000092829288c6aa874c1a0f190da35a4023c22be637"
          ],
          "data": "0x",
          "blockHash": "0x287577c73bed01d6b128b2ff1b305112902cac4effc502b0cd03b7a26891a47e",
          "blockNumber": "0x5a04938",
          "transactionHash": "0x630b5f521b454a7347a89d7abd3299dabbf99906f632d3a6e05647a42081a4dc",
          "transactionIndex": "0x1",
          "logIndex": "0x0",
          "removed": false
        }
      ],
      "logsBloom": "0x00000000000000000000000020000000000000000000000000000000000000000000000000000000000000000000000000000000000000000000000000000000000000000000000000000000000000000000001000000000000000000000000000000000200000000000000000000000000000000000000000000000000000000000000100000000000000000000000000000000000000000000000000000000000000000000000000000000000000000000000100000000000000000000000100000000000000000000000000000008000000000004000000000000000000000000000000000000000000000000000000000000000000000004000000000000",
      "type": "0x2",
      "transactionHash": "0x630b5f521b454a7347a89d7abd3299dabbf99906f632d3a6e05647a42081a4dc",
      "transactionIndex": "0x1",
      "blockHash": "0x287577c73bed01d6b128b2ff1b305112902cac4effc502b0cd03b7a26891a47e",
      "blockNumber": "0x5a04938",
      "gasUsed": "0x1dbd7",
      "effectiveGasPrice": "0x5f5e100",
      "from": "0xe62ab4d111f968660c6b2188046f9b9ba53c4bae",
      "to": "0x9068f274555af3cd0a934dbcf1c56e7b83ad450a",
      "contractAddress": null,
      "gasUsedForL1": "0x202b",
      "l1BlockNumber": "0x6afe13"
    },
    {
      "status": "0x1",
      "cumulativeGasUsed": "0xd3d7",
      "logs": [],
      "logsBloom": "0x00000000000000000000000000000000000000000000000000000000000000000000000000000000000000000000000000000000000000000000000000000000000000000000000000000000000000000000000000000000000000000000000000000000000000000000000000000000000000000000000000000000000000000000000000000000000000000000000000000000000000000000000000000000000000000000000000000000000000000000000000000000000000000000000000000000000000000000000000000000000000000000000000000000000000000000000000000000000000000000000000000000000000000000000000000000",
      "type": "0x2",
      "transactionHash": "0x9d6953e1b459da5e82f1035e5e476ca2b85c70f046844d76aa2bf50492af1b32",
      "transactionIndex": "0x1",
      "blockHash": "0x36da2809e8faf0d1ded062357e6fbc50f89858bd7a261f57eef8c8bc9573a97e",
      "blockNumber": "0x5a04957",
      "gasUsed": "0xd3d7",
      "effectiveGasPrice": "0x5f5e100",
      "from": "0xe62ab4d111f968660c6b2188046f9b9ba53c4bae",
      "to": "0x9068f274555af3cd0a934dbcf1c56e7b83ad450a",
      "contractAddress": null,
      "gasUsedForL1": "0x17de",
      "l1BlockNumber": "0x6afe14"
    },
    {
      "status": "0x1",
      "cumulativeGasUsed": "0xd3fa",
      "logs": [],
      "logsBloom": "0x00000000000000000000000000000000000000000000000000000000000000000000000000000000000000000000000000000000000000000000000000000000000000000000000000000000000000000000000000000000000000000000000000000000000000000000000000000000000000000000000000000000000000000000000000000000000000000000000000000000000000000000000000000000000000000000000000000000000000000000000000000000000000000000000000000000000000000000000000000000000000000000000000000000000000000000000000000000000000000000000000000000000000000000000000000000",
      "type": "0x2",
      "transactionHash": "0xfe2c9fc022290f08644f7cf2ae8046c815e55dc7b2e39bd8aa148cec9f70f9f9",
      "transactionIndex": "0x1",
      "blockHash": "0x6261b8c5f665a66f57890431c4142ceea0be5dad59cc566a31ec8b3820a5dfdd",
      "blockNumber": "0x5a0496f",
      "gasUsed": "0xd3fa",
      "effectiveGasPrice": "0x5f5e100",
      "from": "0xe62ab4d111f968660c6b2188046f9b9ba53c4bae",
      "to": "0x9068f274555af3cd0a934dbcf1c56e7b83ad450a",
      "contractAddress": null,
      "gasUsedForL1": "0x17de",
      "l1BlockNumber": "0x6afe14"
    },
    {
      "status": "0x1",
      "cumulativeGasUsed": "0xd411",
      "logs": [],
      "logsBloom": "0x00000000000000000000000000000000000000000000000000000000000000000000000000000000000000000000000000000000000000000000000000000000000000000000000000000000000000000000000000000000000000000000000000000000000000000000000000000000000000000000000000000000000000000000000000000000000000000000000000000000000000000000000000000000000000000000000000000000000000000000000000000000000000000000000000000000000000000000000000000000000000000000000000000000000000000000000000000000000000000000000000000000000000000000000000000000",
      "type": "0x2",
      "transactionHash": "0xacfc6879d125d811b10149e0aaac59835842233922dc3acae5c1858fef8e4d05",
      "transactionIndex": "0x1",
      "blockHash": "0xfbe40bc5e774a82d1c940ce5cd7422e37151f1ea8d43705c34f65ea49431d72b",
      "blockNumber": "0x5a04988",
      "gasUsed": "0xd411",
      "effectiveGasPrice": "0x5f5e100",
      "from": "0xe62ab4d111f968660c6b2188046f9b9ba53c4bae",
      "to": "0x9068f274555af3cd0a934dbcf1c56e7b83ad450a",
      "contractAddress": null,
      "gasUsedForL1": "0x17de",
      "l1BlockNumber": "0x6afe14"
    },
    {
      "status": "0x1",
      "cumulativeGasUsed": "0xd428",
      "logs": [],
      "logsBloom": "0x00000000000000000000000000000000000000000000000000000000000000000000000000000000000000000000000000000000000000000000000000000000000000000000000000000000000000000000000000000000000000000000000000000000000000000000000000000000000000000000000000000000000000000000000000000000000000000000000000000000000000000000000000000000000000000000000000000000000000000000000000000000000000000000000000000000000000000000000000000000000000000000000000000000000000000000000000000000000000000000000000000000000000000000000000000000",
      "type": "0x2",
      "transactionHash": "0xf917a0df23551383eeac34f498e116c2db078512a47478131937d7d074dc0458",
      "transactionIndex": "0x1",
      "blockHash": "0x88c0e6f35acee4b8aa72670f305064a3447bcc2e1e0dea4c4cdf03ad570da0c6",
      "blockNumber": "0x5a049a0",
      "gasUsed": "0xd428",
      "effectiveGasPrice": "0x5f5e100",
      "from": "0xe62ab4d111f968660c6b2188046f9b9ba53c4bae",
      "to": "0x9068f274555af3cd0a934dbcf1c56e7b83ad450a",
      "contractAddress": null,
      "gasUsedForL1": "0x17de",
      "l1BlockNumber": "0x6afe15"
    },
    {
      "status": "0x1",
      "cumulativeGasUsed": "0xd43a",
      "logs": [],
      "logsBloom": "0x00000000000000000000000000000000000000000000000000000000000000000000000000000000000000000000000000000000000000000000000000000000000000000000000000000000000000000000000000000000000000000000000000000000000000000000000000000000000000000000000000000000000000000000000000000000000000000000000000000000000000000000000000000000000000000000000000000000000000000000000000000000000000000000000000000000000000000000000000000000000000000000000000000000000000000000000000000000000000000000000000000000000000000000000000000000",
      "type": "0x2",
      "transactionHash": "0x08c1a5d871cdbe5ba4a0bc381eaccc9bf30ec63349bd2726cffdfd906a32cb94",
      "transactionIndex": "0x1",
      "blockHash": "0x38c846cd906fc7a7e3a997bc9eb8da5320196adc9371dd079b6cfdd6a12fcaca",
      "blockNumber": "0x5a049b9",
      "gasUsed": "0xd43a",
      "effectiveGasPrice": "0x5f5e100",
      "from": "0xe62ab4d111f968660c6b2188046f9b9ba53c4bae",
      "to": "0x9068f274555af3cd0a934dbcf1c56e7b83ad450a",
      "contractAddress": null,
      "gasUsedForL1": "0x17de",
      "l1BlockNumber": "0x6afe15"
    },
    {
      "status": "0x1",
      "cumulativeGasUsed": "0x33900",
      "logs": [],
      "logsBloom": "0x00000000000000000000000000000000000000000000000000000000000000000000000000000000000000000000000000000000000000000000000000000000000000000000000000000000000000000000000000000000000000000000000000000000000000000000000000000000000000000000000000000000000000000000000000000000000000000000000000000000000000000000000000000000000000000000000000000000000000000000000000000000000000000000000000000000000000000000000000000000000000000000000000000000000000000000000000000000000000000000000000000000000000000000000000000000",
      "type": "0x2",
      "transactionHash": "0x47fcc42665ea3fc26ea7e0432e2d0f48c3ad08284f158cac8c90a45c2243573a",
      "transactionIndex": "0x2",
      "blockHash": "0xe9f1fa37df52cc91c1f426c48f0026614cd3b38a024fc2f51484bb51552c9765",
      "blockNumber": "0x5a049d3",
      "gasUsed": "0x244f8",
      "effectiveGasPrice": "0x5f5e100",
      "from": "0xe62ab4d111f968660c6b2188046f9b9ba53c4bae",
      "to": "0x9068f274555af3cd0a934dbcf1c56e7b83ad450a",
      "contractAddress": null,
      "gasUsedForL1": "0x274e",
      "l1BlockNumber": "0x6afe16"
    },
    {
      "status": "0x1",
      "cumulativeGasUsed": "0x2088f",
      "logs": [],
      "logsBloom": "0x00000000000000000000000000000000000000000000000000000000000000000000000000000000000000000000000000000000000000000000000000000000000000000000000000000000000000000000000000000000000000000000000000000000000000000000000000000000000000000000000000000000000000000000000000000000000000000000000000000000000000000000000000000000000000000000000000000000000000000000000000000000000000000000000000000000000000000000000000000000000000000000000000000000000000000000000000000000000000000000000000000000000000000000000000000000",
      "type": "0x2",
      "transactionHash": "0xe22051ff86a47ea19405d8b3b8e391af9bdf41aac1ac8fcaf90bf01317e3f3df",
      "transactionIndex": "0x1",
      "blockHash": "0x50a3dfe819a0353719f3dfe91a5fed971245ef74b3d18ba162bc4d37bcac5c10",
      "blockNumber": "0x5a049f0",
      "gasUsed": "0x2088f",
      "effectiveGasPrice": "0x5f5e100",
      "from": "0xe62ab4d111f968660c6b2188046f9b9ba53c4bae",
      "to": "0x9068f274555af3cd0a934dbcf1c56e7b83ad450a",
      "contractAddress": null,
      "gasUsedForL1": "0x25e1",
      "l1BlockNumber": "0x6afe16"
    },
    {
      "status": "0x1",
      "cumulativeGasUsed": "0x204a9",
      "logs": [],
      "logsBloom": "0x00000000000000000000000000000000000000000000000000000000000000000000000000000000000000000000000000000000000000000000000000000000000000000000000000000000000000000000000000000000000000000000000000000000000000000000000000000000000000000000000000000000000000000000000000000000000000000000000000000000000000000000000000000000000000000000000000000000000000000000000000000000000000000000000000000000000000000000000000000000000000000000000000000000000000000000000000000000000000000000000000000000000000000000000000000000",
      "type": "0x2",
      "transactionHash": "0xc39d982502ce75832479f4b39ff28e635f16f78c8853fa806846f752f554a008",
      "transactionIndex": "0x1",
      "blockHash": "0x66afaba549e7190c0e5482ea5096821f35709d00f0c2f994de10f5d1e5f901f7",
      "blockNumber": "0x5a04a0d",
      "gasUsed": "0x204a9",
      "effectiveGasPrice": "0x5f5e100",
      "from": "0xe62ab4d111f968660c6b2188046f9b9ba53c4bae",
      "to": "0x9068f274555af3cd0a934dbcf1c56e7b83ad450a",
      "contractAddress": null,
      "gasUsedForL1": "0x2687",
      "l1BlockNumber": "0x6afe17"
    },
    {
      "status": "0x1",
      "cumulativeGasUsed": "0x69e15",
      "logs": [],
      "logsBloom": "0x00000000000000000000000000000000000000000000000000000000000000000000000000000000000000000000000000000000000000000000000000000000000000000000000000000000000000000000000000000000000000000000000000000000000000000000000000000000000000000000000000000000000000000000000000000000000000000000000000000000000000000000000000000000000000000000000000000000000000000000000000000000000000000000000000000000000000000000000000000000000000000000000000000000000000000000000000000000000000000000000000000000000000000000000000000000",
      "type": "0x2",
      "transactionHash": "0xdd5252dbdc4c1da75293f3cc8dbc1999c5ac35a9f3a93a32a8c097eab220f55f",
      "transactionIndex": "0x3",
      "blockHash": "0x0f3e85718c2c9275a6259e4878aec497258ecbf58616a318997b329cb2506e31",
      "blockNumber": "0x5a04a2a",
      "gasUsed": "0x20e88",
      "effectiveGasPrice": "0x5f5e100",
      "from": "0xe62ab4d111f968660c6b2188046f9b9ba53c4bae",
      "to": "0x9068f274555af3cd0a934dbcf1c56e7b83ad450a",
      "contractAddress": null,
      "gasUsedForL1": "0x274e",
      "l1BlockNumber": "0x6afe17"
    },
    {
      "status": "0x1",
      "cumulativeGasUsed": "0x7e9ad",
      "logs": [],
      "logsBloom": "0x00000000000000000000000000000000000000000000000000000000000000000000000000000000000000000000000000000000000000000000000000000000000000000000000000000000000000000000000000000000000000000000000000000000000000000000000000000000000000000000000000000000000000000000000000000000000000000000000000000000000000000000000000000000000000000000000000000000000000000000000000000000000000000000000000000000000000000000000000000000000000000000000000000000000000000000000000000000000000000000000000000000000000000000000000000000",
      "type": "0x2",
      "transactionHash": "0x70e692e9b6452071bf2b9786a22ff5dd9e6571f88de02f69608dc0b278ed6b17",
      "transactionIndex": "0x1",
      "blockHash": "0xf0340879cf912b30d5f45ffdf72c31f6c0efb2c06fe71f4ec9ce9b7ad0433b41",
      "blockNumber": "0x5a04a45",
      "gasUsed": "0x7e9ad",
      "effectiveGasPrice": "0x5f5e100",
      "from": "0xe62ab4d111f968660c6b2188046f9b9ba53c4bae",
      "to": "0x358498985e6ac7ca73f5110b415525ae04cb8313",
      "contractAddress": null,
      "gasUsedForL1": "0x382b",
      "l1BlockNumber": "0x6afe18"
    },
    {
      "status": "0x1",
      "cumulativeGasUsed": "0xa57dd",
      "logs": [],
      "logsBloom": "0x00000000000000000000000000000000000000000000000000000000000000000000000000000000000000000000000000000000000000000000000000000000000000000000000000000000000000000000000000000000000000000000000000000000000000000000000000000000000000000000000000000000000000000000000000000000000000000000000000000000000000000000000000000000000000000000000000000000000000000000000000000000000000000000000000000000000000000000000000000000000000000000000000000000000000000000000000000000000000000000000000000000000000000000000000000000",
      "type": "0x2",
      "transactionHash": "0x51902685db3e75d55e85907ff1ed1af2144a2734dcef38baf203464bc185e4f6",
      "transactionIndex": "0x2",
      "blockHash": "0x36a8dd7fc8a692ab90ff6d259438d8cb3dedd3abb5de2985a22e49df1622fbc6",
      "blockNumber": "0x5a04a5f",
      "gasUsed": "0x9f59e",
      "effectiveGasPrice": "0x5f5e100",
      "from": "0xe62ab4d111f968660c6b2188046f9b9ba53c4bae",
      "to": "0x358498985e6ac7ca73f5110b415525ae04cb8313",
      "contractAddress": null,
      "gasUsedForL1": "0x3d19",
      "l1BlockNumber": "0x6afe18"
    },
    {
      "status": "0x1",
      "cumulativeGasUsed": "0x9f62e",
      "logs": [],
      "logsBloom": "0x00000000000000000000000000000000000000000000000000000000000000000000000000000000000000000000000000000000000000000000000000000000000000000000000000000000000000000000000000000000000000000000000000000000000000000000000000000000000000000000000000000000000000000000000000000000000000000000000000000000000000000000000000000000000000000000000000000000000000000000000000000000000000000000000000000000000000000000000000000000000000000000000000000000000000000000000000000000000000000000000000000000000000000000000000000000",
      "type": "0x2",
      "transactionHash": "0xcef742da8e0d99cc075fb1d9407f2d71197a2790f2197c4b9bb6c78c777ec554",
      "transactionIndex": "0x1",
      "blockHash": "0x60a8246ff092f2d375890c844d55be1341df66cb6d357cb26f326c523341b967",
      "blockNumber": "0x5a04a79",
      "gasUsed": "0x9f62e",
      "effectiveGasPrice": "0x5f5e100",
      "from": "0xe62ab4d111f968660c6b2188046f9b9ba53c4bae",
      "to": "0x358498985e6ac7ca73f5110b415525ae04cb8313",
      "contractAddress": null,
      "gasUsedForL1": "0x3dbf",
      "l1BlockNumber": "0x6afe1a"
    }
  ],
  "libraries": [],
  "pending": [],
  "returns": {},
  "timestamp": 1730745964,
  "chain": 421614,
  "commit": "34a11392"
}