{
  "transactions": [
    {
      "hash": "0x6589e988e21ad26894512ff5f47fb1761c8dcb58e8f4d7c63dc9228ac6c1057e",
      "transactionType": "CALL",
      "contractName": null,
      "contractAddress": "0xc28328b1f98076ed5111f1223c647e883f5d6e16",
      "function": "getFeeTokenList()",
      "arguments": [],
      "transaction": {
        "from": "0xe62ab4d111f968660c6b2188046f9b9ba53c4bae",
        "to": "0xc28328b1f98076ed5111f1223c647e883f5d6e16",
        "gas": "0x7c96",
        "value": "0x0",
        "input": "0xe28ab277",
        "nonce": "0xccb",
        "chainId": "0x66eee"
      },
      "additionalContracts": [],
      "isFixedGasLimit": false
    },
    {
      "hash": "0xfc182efb74053d9384c9725ad0457c126f89378344d795a307b157ed67bd4d18",
      "transactionType": "CALL",
      "contractName": null,
      "contractAddress": "0xc28328b1f98076ed5111f1223c647e883f5d6e16",
      "function": "addFeeToken(string)",
      "arguments": [
        "0xbf5356ade7e5f775659f301b07c4bc6961044b11"
      ],
      "transaction": {
        "from": "0xe62ab4d111f968660c6b2188046f9b9ba53c4bae",
        "to": "0xc28328b1f98076ed5111f1223c647e883f5d6e16",
        "gas": "0x244e1",
        "value": "0x0",
        "input": "0x12a6385f0000000000000000000000000000000000000000000000000000000000000020000000000000000000000000000000000000000000000000000000000000002a30786266353335366164653765356637373536353966333031623037633462633639363130343462313100000000000000000000000000000000000000000000",
        "nonce": "0xccc",
        "chainId": "0x66eee"
      },
      "additionalContracts": [],
      "isFixedGasLimit": false
    },
    {
      "hash": "0x54bbde48ff1329e8602fc727f09e62750fe8a1a87a312d0c06a38cd071b4be9b",
      "transactionType": "CALL",
      "contractName": null,
      "contractAddress": "0xc28328b1f98076ed5111f1223c647e883f5d6e16",
      "function": "setFeeMultiplier(uint8,uint256)",
      "arguments": [
        "0",
        "2"
      ],
      "transaction": {
        "from": "0xe62ab4d111f968660c6b2188046f9b9ba53c4bae",
        "to": "0xc28328b1f98076ed5111f1223c647e883f5d6e16",
        "gas": "0xf629",
        "value": "0x0",
        "input": "0x0ee24eb500000000000000000000000000000000000000000000000000000000000000000000000000000000000000000000000000000000000000000000000000000002",
        "nonce": "0xccd",
        "chainId": "0x66eee"
      },
      "additionalContracts": [],
      "isFixedGasLimit": false
    },
    {
      "hash": "0x84183075b820f737877e9512dbf13f0767994e2adb5495a82f0e25226298216c",
      "transactionType": "CALL",
      "contractName": null,
      "contractAddress": "0xc28328b1f98076ed5111f1223c647e883f5d6e16",
      "function": "setFeeMultiplier(uint8,uint256)",
      "arguments": [
        "1",
        "10"
      ],
      "transaction": {
        "from": "0xe62ab4d111f968660c6b2188046f9b9ba53c4bae",
        "to": "0xc28328b1f98076ed5111f1223c647e883f5d6e16",
        "gas": "0xf657",
        "value": "0x0",
        "input": "0x0ee24eb50000000000000000000000000000000000000000000000000000000000000001000000000000000000000000000000000000000000000000000000000000000a",
        "nonce": "0xcce",
        "chainId": "0x66eee"
      },
      "additionalContracts": [],
      "isFixedGasLimit": false
    },
    {
      "hash": "0x97d414444849dc589372be07d9eb6ec21ec865dfa3be7a292659c0963f8c28d2",
      "transactionType": "CALL",
      "contractName": null,
      "contractAddress": "0xc28328b1f98076ed5111f1223c647e883f5d6e16",
      "function": "setFeeMultiplier(uint8,uint256)",
      "arguments": [
        "2",
        "1"
      ],
      "transaction": {
        "from": "0xe62ab4d111f968660c6b2188046f9b9ba53c4bae",
        "to": "0xc28328b1f98076ed5111f1223c647e883f5d6e16",
        "gas": "0xf674",
        "value": "0x0",
        "input": "0x0ee24eb500000000000000000000000000000000000000000000000000000000000000020000000000000000000000000000000000000000000000000000000000000001",
        "nonce": "0xccf",
        "chainId": "0x66eee"
      },
      "additionalContracts": [],
      "isFixedGasLimit": false
    },
    {
      "hash": "0xdbef697e405d6888c8234e9ea1e3c6cd2d7937c7242f5804421d7496f62fed55",
      "transactionType": "CALL",
      "contractName": null,
      "contractAddress": "0xc28328b1f98076ed5111f1223c647e883f5d6e16",
      "function": "setFeeMultiplier(uint8,uint256)",
      "arguments": [
        "3",
        "4"
      ],
      "transaction": {
        "from": "0xe62ab4d111f968660c6b2188046f9b9ba53c4bae",
        "to": "0xc28328b1f98076ed5111f1223c647e883f5d6e16",
        "gas": "0xf692",
        "value": "0x0",
        "input": "0x0ee24eb500000000000000000000000000000000000000000000000000000000000000030000000000000000000000000000000000000000000000000000000000000004",
        "nonce": "0xcd0",
        "chainId": "0x66eee"
      },
      "additionalContracts": [],
      "isFixedGasLimit": false
    },
    {
      "hash": "0x8bbfe1813c8b481ec070bc2b412dc804c6d17f9836826b62745fef4b4d050602",
      "transactionType": "CALL",
      "contractName": null,
      "contractAddress": "0xc28328b1f98076ed5111f1223c647e883f5d6e16",
      "function": "setFeeMultiplier(uint8,uint256)",
      "arguments": [
        "4",
        "4"
      ],
      "transaction": {
        "from": "0xe62ab4d111f968660c6b2188046f9b9ba53c4bae",
        "to": "0xc28328b1f98076ed5111f1223c647e883f5d6e16",
        "gas": "0xf6b0",
        "value": "0x0",
        "input": "0x0ee24eb500000000000000000000000000000000000000000000000000000000000000040000000000000000000000000000000000000000000000000000000000000004",
        "nonce": "0xcd1",
        "chainId": "0x66eee"
      },
      "additionalContracts": [],
      "isFixedGasLimit": false
    },
    {
      "hash": "0x13079cad801b2fdeb824bdb800faa7f3e091fbdc8a756b6e8ce7faee70e2f9ad",
      "transactionType": "CALL",
      "contractName": null,
      "contractAddress": "0xc28328b1f98076ed5111f1223c647e883f5d6e16",
      "function": "setFeeMultiplier(uint8,uint256)",
      "arguments": [
        "5",
        "4"
      ],
      "transaction": {
        "from": "0xe62ab4d111f968660c6b2188046f9b9ba53c4bae",
        "to": "0xc28328b1f98076ed5111f1223c647e883f5d6e16",
        "gas": "0xf6ce",
        "value": "0x0",
        "input": "0x0ee24eb500000000000000000000000000000000000000000000000000000000000000050000000000000000000000000000000000000000000000000000000000000004",
        "nonce": "0xcd2",
        "chainId": "0x66eee"
      },
      "additionalContracts": [],
      "isFixedGasLimit": false
    },
    {
      "hash": "0x66aeaf256e62bcf82d3598b540bc2b18dada84eac203d8b454ebd49d994acd54",
      "transactionType": "CALL",
      "contractName": null,
      "contractAddress": "0xc28328b1f98076ed5111f1223c647e883f5d6e16",
      "function": "setFeeMultiplier(uint8,uint256)",
      "arguments": [
        "6",
        "8"
      ],
      "transaction": {
        "from": "0xe62ab4d111f968660c6b2188046f9b9ba53c4bae",
        "to": "0xc28328b1f98076ed5111f1223c647e883f5d6e16",
        "gas": "0xf6ec",
        "value": "0x0",
        "input": "0x0ee24eb500000000000000000000000000000000000000000000000000000000000000060000000000000000000000000000000000000000000000000000000000000008",
        "nonce": "0xcd3",
        "chainId": "0x66eee"
      },
      "additionalContracts": [],
      "isFixedGasLimit": false
    },
    {
      "hash": "0xa5c434f6f885498a311a08c220dc8e3beda3cf8546035be075c8d3eb36101460",
      "transactionType": "CALL",
      "contractName": null,
      "contractAddress": "0xc28328b1f98076ed5111f1223c647e883f5d6e16",
      "function": "setFeeMultiplier(uint8,uint256)",
      "arguments": [
        "7",
        "4"
      ],
      "transaction": {
        "from": "0xe62ab4d111f968660c6b2188046f9b9ba53c4bae",
        "to": "0xc28328b1f98076ed5111f1223c647e883f5d6e16",
        "gas": "0xf70a",
        "value": "0x0",
        "input": "0x0ee24eb500000000000000000000000000000000000000000000000000000000000000070000000000000000000000000000000000000000000000000000000000000004",
        "nonce": "0xcd4",
        "chainId": "0x66eee"
      },
      "additionalContracts": [],
      "isFixedGasLimit": false
    },
    {
      "hash": "0x25b1d35ea5731e11d912f9e0caa260d85d8af80cfc16465908ccd4ea8ff3c964",
      "transactionType": "CALL",
      "contractName": null,
      "contractAddress": "0xc28328b1f98076ed5111f1223c647e883f5d6e16",
      "function": "setFeeMultiplier(uint8,uint256)",
      "arguments": [
        "8",
        "10"
      ],
      "transaction": {
        "from": "0xe62ab4d111f968660c6b2188046f9b9ba53c4bae",
        "to": "0xc28328b1f98076ed5111f1223c647e883f5d6e16",
        "gas": "0xf728",
        "value": "0x0",
        "input": "0x0ee24eb50000000000000000000000000000000000000000000000000000000000000008000000000000000000000000000000000000000000000000000000000000000a",
        "nonce": "0xcd5",
        "chainId": "0x66eee"
      },
      "additionalContracts": [],
      "isFixedGasLimit": false
    },
    {
      "hash": "0x3d20eb610c2dee80c1790994be8d6140c621bbe27a682ae18dab135e25758888",
      "transactionType": "CALL",
      "contractName": null,
      "contractAddress": "0xc28328b1f98076ed5111f1223c647e883f5d6e16",
      "function": "setFeeMultiplier(uint8,uint256)",
      "arguments": [
        "9",
        "8"
      ],
      "transaction": {
        "from": "0xe62ab4d111f968660c6b2188046f9b9ba53c4bae",
        "to": "0xc28328b1f98076ed5111f1223c647e883f5d6e16",
        "gas": "0xf747",
        "value": "0x0",
        "input": "0x0ee24eb500000000000000000000000000000000000000000000000000000000000000090000000000000000000000000000000000000000000000000000000000000008",
        "nonce": "0xcd6",
        "chainId": "0x66eee"
      },
      "additionalContracts": [],
      "isFixedGasLimit": false
    },
    {
      "hash": "0xfad0e7ea5082c17db1a76e311a7bdf43eadc72751cdb3f6524b5510f7bbc4ed2",
      "transactionType": "CALL",
      "contractName": null,
      "contractAddress": "0xc28328b1f98076ed5111f1223c647e883f5d6e16",
      "function": "setFeeMultiplier(uint8,uint256)",
      "arguments": [
        "10",
        "8"
      ],
      "transaction": {
        "from": "0xe62ab4d111f968660c6b2188046f9b9ba53c4bae",
        "to": "0xc28328b1f98076ed5111f1223c647e883f5d6e16",
        "gas": "0xf765",
        "value": "0x0",
        "input": "0x0ee24eb5000000000000000000000000000000000000000000000000000000000000000a0000000000000000000000000000000000000000000000000000000000000008",
        "nonce": "0xcd7",
        "chainId": "0x66eee"
      },
      "additionalContracts": [],
      "isFixedGasLimit": false
    },
    {
      "hash": "0xf7613e438818f0a896529760b2b8df45ee4e92b68b355c5652844810ae16ad15",
      "transactionType": "CALL",
      "contractName": null,
      "contractAddress": "0xc28328b1f98076ed5111f1223c647e883f5d6e16",
      "function": "setFeeMultiplier(uint8,uint256)",
      "arguments": [
        "11",
        "8"
      ],
      "transaction": {
        "from": "0xe62ab4d111f968660c6b2188046f9b9ba53c4bae",
        "to": "0xc28328b1f98076ed5111f1223c647e883f5d6e16",
        "gas": "0xf783",
        "value": "0x0",
        "input": "0x0ee24eb5000000000000000000000000000000000000000000000000000000000000000b0000000000000000000000000000000000000000000000000000000000000008",
        "nonce": "0xcd8",
        "chainId": "0x66eee"
      },
      "additionalContracts": [],
      "isFixedGasLimit": false
    },
    {
      "hash": "0x4b6412b15d4ff8c117188d37d68265c9902857b88785fa47adef8989984cbf7e",
      "transactionType": "CALL",
      "contractName": null,
      "contractAddress": "0xc28328b1f98076ed5111f1223c647e883f5d6e16",
      "function": "setFeeMultiplier(uint8,uint256)",
      "arguments": [
        "12",
        "20"
      ],
      "transaction": {
        "from": "0xe62ab4d111f968660c6b2188046f9b9ba53c4bae",
        "to": "0xc28328b1f98076ed5111f1223c647e883f5d6e16",
        "gas": "0xf7a1",
        "value": "0x0",
        "input": "0x0ee24eb5000000000000000000000000000000000000000000000000000000000000000c0000000000000000000000000000000000000000000000000000000000000014",
        "nonce": "0xcd9",
        "chainId": "0x66eee"
      },
      "additionalContracts": [],
      "isFixedGasLimit": false
    },
    {
      "hash": "0x71573b1e85abbe88637d3ec6dc9ae11fd383d7322a48a9ccfa08ab1cdbb29b18",
      "transactionType": "CALL",
      "contractName": null,
      "contractAddress": "0xc28328b1f98076ed5111f1223c647e883f5d6e16",
      "function": "setFeeMultiplier(uint8,uint256)",
      "arguments": [
        "13",
        "8"
      ],
      "transaction": {
        "from": "0xe62ab4d111f968660c6b2188046f9b9ba53c4bae",
        "to": "0xc28328b1f98076ed5111f1223c647e883f5d6e16",
        "gas": "0xf7bf",
        "value": "0x0",
        "input": "0x0ee24eb5000000000000000000000000000000000000000000000000000000000000000d0000000000000000000000000000000000000000000000000000000000000008",
        "nonce": "0xcda",
        "chainId": "0x66eee"
      },
      "additionalContracts": [],
      "isFixedGasLimit": false
    },
    {
      "hash": "0x33c11c22422f6b70ca2b11474f8aff608c515a43b682be5db2d5395c877f7571",
      "transactionType": "CALL",
      "contractName": null,
      "contractAddress": "0xc28328b1f98076ed5111f1223c647e883f5d6e16",
      "function": "setFeeMultiplier(uint8,uint256)",
      "arguments": [
        "14",
        "4"
      ],
      "transaction": {
        "from": "0xe62ab4d111f968660c6b2188046f9b9ba53c4bae",
        "to": "0xc28328b1f98076ed5111f1223c647e883f5d6e16",
        "gas": "0xf7dd",
        "value": "0x0",
        "input": "0x0ee24eb5000000000000000000000000000000000000000000000000000000000000000e0000000000000000000000000000000000000000000000000000000000000004",
        "nonce": "0xcdb",
        "chainId": "0x66eee"
      },
      "additionalContracts": [],
      "isFixedGasLimit": false
    },
    {
      "hash": "0x91a9caf98f760737f23703a8b6dcf62faf21117a14230d2bebc94d7ccf56837f",
      "transactionType": "CALL",
      "contractName": null,
      "contractAddress": "0xc28328b1f98076ed5111f1223c647e883f5d6e16",
      "function": "setFeeMultiplier(uint8,uint256)",
      "arguments": [
        "15",
        "4"
      ],
      "transaction": {
        "from": "0xe62ab4d111f968660c6b2188046f9b9ba53c4bae",
        "to": "0xc28328b1f98076ed5111f1223c647e883f5d6e16",
        "gas": "0xf7fa",
        "value": "0x0",
        "input": "0x0ee24eb5000000000000000000000000000000000000000000000000000000000000000f0000000000000000000000000000000000000000000000000000000000000004",
        "nonce": "0xcdc",
        "chainId": "0x66eee"
      },
      "additionalContracts": [],
      "isFixedGasLimit": false
    },
    {
      "hash": "0x0446549d7ee6d90451594adc358c2e5edb7806962eb101e9f02f59a127dc0706",
      "transactionType": "CALL",
      "contractName": null,
      "contractAddress": "0xc28328b1f98076ed5111f1223c647e883f5d6e16",
      "function": "setFeeMultiplier(uint8,uint256)",
      "arguments": [
        "16",
        "4"
      ],
      "transaction": {
        "from": "0xe62ab4d111f968660c6b2188046f9b9ba53c4bae",
        "to": "0xc28328b1f98076ed5111f1223c647e883f5d6e16",
        "gas": "0xf818",
        "value": "0x0",
        "input": "0x0ee24eb500000000000000000000000000000000000000000000000000000000000000100000000000000000000000000000000000000000000000000000000000000004",
        "nonce": "0xcdd",
        "chainId": "0x66eee"
      },
      "additionalContracts": [],
      "isFixedGasLimit": false
    },
    {
      "hash": "0x534b1674afb1486660db94c1e87360064701835738200471b01f4ac17abd8640",
      "transactionType": "CALL",
      "contractName": null,
      "contractAddress": "0xc28328b1f98076ed5111f1223c647e883f5d6e16",
      "function": "setFeeMultiplier(uint8,uint256)",
      "arguments": [
        "17",
        "4"
      ],
      "transaction": {
        "from": "0xe62ab4d111f968660c6b2188046f9b9ba53c4bae",
        "to": "0xc28328b1f98076ed5111f1223c647e883f5d6e16",
        "gas": "0xf836",
        "value": "0x0",
        "input": "0x0ee24eb500000000000000000000000000000000000000000000000000000000000000110000000000000000000000000000000000000000000000000000000000000004",
        "nonce": "0xcde",
        "chainId": "0x66eee"
      },
      "additionalContracts": [],
      "isFixedGasLimit": false
    },
    {
      "hash": "0x7acc2594945d7d0a972fa9e390e7697e78492e69930007f84604f35c34573595",
      "transactionType": "CALL",
      "contractName": null,
      "contractAddress": "0xc28328b1f98076ed5111f1223c647e883f5d6e16",
      "function": "setFeeMultiplier(uint8,uint256)",
      "arguments": [
        "18",
        "2"
      ],
      "transaction": {
        "from": "0xe62ab4d111f968660c6b2188046f9b9ba53c4bae",
        "to": "0xc28328b1f98076ed5111f1223c647e883f5d6e16",
        "gas": "0xf854",
        "value": "0x0",
        "input": "0x0ee24eb500000000000000000000000000000000000000000000000000000000000000120000000000000000000000000000000000000000000000000000000000000002",
        "nonce": "0xcdf",
        "chainId": "0x66eee"
      },
      "additionalContracts": [],
      "isFixedGasLimit": false
    },
    {
      "hash": "0x3c8f69370072f0abc050e380d103a7c8efcf6df42dca834c4042d70d9def7c93",
      "transactionType": "CALL",
      "contractName": null,
      "contractAddress": "0xc28328b1f98076ed5111f1223c647e883f5d6e16",
      "function": "setFeeMultiplier(uint8,uint256)",
      "arguments": [
        "19",
        "20"
      ],
      "transaction": {
        "from": "0xe62ab4d111f968660c6b2188046f9b9ba53c4bae",
        "to": "0xc28328b1f98076ed5111f1223c647e883f5d6e16",
        "gas": "0xf872",
        "value": "0x0",
        "input": "0x0ee24eb500000000000000000000000000000000000000000000000000000000000000130000000000000000000000000000000000000000000000000000000000000014",
        "nonce": "0xce0",
        "chainId": "0x66eee"
      },
      "additionalContracts": [],
      "isFixedGasLimit": false
    },
    {
      "hash": "0x1c975edce7bdfbf2c48421d05627c6b497c78da3aa5279d49fef717c3c4bf356",
      "transactionType": "CALL",
      "contractName": null,
      "contractAddress": "0xc28328b1f98076ed5111f1223c647e883f5d6e16",
      "function": "setFeeMultiplier(uint8,uint256)",
      "arguments": [
        "20",
        "2"
      ],
      "transaction": {
        "from": "0xe62ab4d111f968660c6b2188046f9b9ba53c4bae",
        "to": "0xc28328b1f98076ed5111f1223c647e883f5d6e16",
        "gas": "0xf890",
        "value": "0x0",
        "input": "0x0ee24eb500000000000000000000000000000000000000000000000000000000000000140000000000000000000000000000000000000000000000000000000000000002",
        "nonce": "0xce1",
        "chainId": "0x66eee"
      },
      "additionalContracts": [],
      "isFixedGasLimit": false
    },
    {
      "hash": "0xcbe29c2d92fbbbabc8a814a8b6bb2d0f344f2ae4ce41c909d43bce85d46c508f",
      "transactionType": "CALL",
      "contractName": null,
      "contractAddress": "0xc28328b1f98076ed5111f1223c647e883f5d6e16",
      "function": "setFeeMultiplier(uint8,uint256)",
      "arguments": [
        "21",
        "1"
      ],
      "transaction": {
        "from": "0xe62ab4d111f968660c6b2188046f9b9ba53c4bae",
        "to": "0xc28328b1f98076ed5111f1223c647e883f5d6e16",
        "gas": "0xf8ae",
        "value": "0x0",
        "input": "0x0ee24eb500000000000000000000000000000000000000000000000000000000000000150000000000000000000000000000000000000000000000000000000000000001",
        "nonce": "0xce2",
        "chainId": "0x66eee"
      },
      "additionalContracts": [],
      "isFixedGasLimit": false
    },
    {
      "hash": "0x42ca39687500f127d8671be9733a4ccec4b4b4c2205dcba61dedb53d3096b949",
      "transactionType": "CALL",
      "contractName": null,
      "contractAddress": "0xc28328b1f98076ed5111f1223c647e883f5d6e16",
      "function": "setFeeMultiplier(uint8,uint256)",
      "arguments": [
        "22",
        "1"
      ],
      "transaction": {
        "from": "0xe62ab4d111f968660c6b2188046f9b9ba53c4bae",
        "to": "0xc28328b1f98076ed5111f1223c647e883f5d6e16",
        "gas": "0xf8cc",
        "value": "0x0",
        "input": "0x0ee24eb500000000000000000000000000000000000000000000000000000000000000160000000000000000000000000000000000000000000000000000000000000001",
        "nonce": "0xce3",
        "chainId": "0x66eee"
      },
      "additionalContracts": [],
      "isFixedGasLimit": false
    },
    {
      "hash": "0x6f9b876c58c581a4bc3252980954d71d58686902c570f016454dd364e8716e17",
      "transactionType": "CALL",
      "contractName": null,
      "contractAddress": "0xc28328b1f98076ed5111f1223c647e883f5d6e16",
      "function": "setFeeMultiplier(uint8,uint256)",
      "arguments": [
        "23",
        "5"
      ],
      "transaction": {
        "from": "0xe62ab4d111f968660c6b2188046f9b9ba53c4bae",
        "to": "0xc28328b1f98076ed5111f1223c647e883f5d6e16",
        "gas": "0xf8ea",
        "value": "0x0",
        "input": "0x0ee24eb500000000000000000000000000000000000000000000000000000000000000170000000000000000000000000000000000000000000000000000000000000005",
        "nonce": "0xce4",
        "chainId": "0x66eee"
      },
      "additionalContracts": [],
      "isFixedGasLimit": false
    },
    {
      "hash": "0xa57af3e0d3cf8c7ebe02e649acf138f062db366fa6ab36c1dfeb054b5b193c53",
      "transactionType": "CALL",
      "contractName": null,
      "contractAddress": "0xc28328b1f98076ed5111f1223c647e883f5d6e16",
      "function": "addFeeToken(string,string[],uint256[])",
      "arguments": [
        "421614",
        "[0xbf5356ade7e5f775659f301b07c4bc6961044b11]",
        "[100]"
      ],
      "transaction": {
        "from": "0xe62ab4d111f968660c6b2188046f9b9ba53c4bae",
        "to": "0xc28328b1f98076ed5111f1223c647e883f5d6e16",
        "gas": "0x2e939",
        "value": "0x0",
        "input": "0x437bf84f000000000000000000000000000000000000000000000000000000000000006000000000000000000000000000000000000000000000000000000000000000a000000000000000000000000000000000000000000000000000000000000001400000000000000000000000000000000000000000000000000000000000000006343231363134000000000000000000000000000000000000000000000000000000000000000000000000000000000000000000000000000000000000000000010000000000000000000000000000000000000000000000000000000000000020000000000000000000000000000000000000000000000000000000000000002a3078626635333536616465376535663737353635396633303162303763346263363936313034346231310000000000000000000000000000000000000000000000000000000000000000000000000000000000000000000000000000000000010000000000000000000000000000000000000000000000000000000000000064",
        "nonce": "0xce5",
        "chainId": "0x66eee"
      },
      "additionalContracts": [],
      "isFixedGasLimit": false
    },
    {
      "hash": "0x19673b47df698688d2bb2d19895aa1e872cb0acca1fda8b03f246c99f3594918",
      "transactionType": "CALL",
      "contractName": null,
      "contractAddress": "0xc28328b1f98076ed5111f1223c647e883f5d6e16",
      "function": "addFeeToken(string,string[],uint256[])",
      "arguments": [
        "84532",
        "[0xbf5356ade7e5f775659f301b07c4bc6961044b11]",
        "[100]"
      ],
      "transaction": {
        "from": "0xe62ab4d111f968660c6b2188046f9b9ba53c4bae",
        "to": "0xc28328b1f98076ed5111f1223c647e883f5d6e16",
        "gas": "0x295b9",
        "value": "0x0",
        "input": "0x437bf84f000000000000000000000000000000000000000000000000000000000000006000000000000000000000000000000000000000000000000000000000000000a000000000000000000000000000000000000000000000000000000000000001400000000000000000000000000000000000000000000000000000000000000005383435333200000000000000000000000000000000000000000000000000000000000000000000000000000000000000000000000000000000000000000000010000000000000000000000000000000000000000000000000000000000000020000000000000000000000000000000000000000000000000000000000000002a3078626635333536616465376535663737353635396633303162303763346263363936313034346231310000000000000000000000000000000000000000000000000000000000000000000000000000000000000000000000000000000000010000000000000000000000000000000000000000000000000000000000000064",
        "nonce": "0xce6",
        "chainId": "0x66eee"
      },
      "additionalContracts": [],
      "isFixedGasLimit": false
    },
    {
      "hash": "0x156f61b35a49e5f3ba8a7e9cd14d1508850d36cc9ad9c0cb43a8e730e871ea3a",
      "transactionType": "CALL",
      "contractName": null,
      "contractAddress": "0xc28328b1f98076ed5111f1223c647e883f5d6e16",
      "function": "addFeeToken(string,string[],uint256[])",
      "arguments": [
        "80002",
        "[0xbf5356ade7e5f775659f301b07c4bc6961044b11]",
        "[100]"
      ],
      "transaction": {
        "from": "0xe62ab4d111f968660c6b2188046f9b9ba53c4bae",
        "to": "0xc28328b1f98076ed5111f1223c647e883f5d6e16",
        "gas": "0x295b9",
        "value": "0x0",
        "input": "0x437bf84f000000000000000000000000000000000000000000000000000000000000006000000000000000000000000000000000000000000000000000000000000000a000000000000000000000000000000000000000000000000000000000000001400000000000000000000000000000000000000000000000000000000000000005383030303200000000000000000000000000000000000000000000000000000000000000000000000000000000000000000000000000000000000000000000010000000000000000000000000000000000000000000000000000000000000020000000000000000000000000000000000000000000000000000000000000002a3078626635333536616465376535663737353635396633303162303763346263363936313034346231310000000000000000000000000000000000000000000000000000000000000000000000000000000000000000000000000000000000010000000000000000000000000000000000000000000000000000000000000064",
        "nonce": "0xce7",
        "chainId": "0x66eee"
      },
      "additionalContracts": [],
      "isFixedGasLimit": false
    },
    {
      "hash": "0xfa76b38c84353dcdc2fabcc65636a310558f88157235b48b70ef643b83fc01d8",
      "transactionType": "CALL",
      "contractName": null,
      "contractAddress": "0xc28328b1f98076ed5111f1223c647e883f5d6e16",
      "function": "addFeeToken(string,string[],uint256[])",
      "arguments": [
        "11155111",
        "[0xbf5356ade7e5f775659f301b07c4bc6961044b11]",
        "[100]"
      ],
      "transaction": {
        "from": "0xe62ab4d111f968660c6b2188046f9b9ba53c4bae",
        "to": "0xc28328b1f98076ed5111f1223c647e883f5d6e16",
        "gas": "0x29bcf",
        "value": "0x0",
        "input": "0x437bf84f000000000000000000000000000000000000000000000000000000000000006000000000000000000000000000000000000000000000000000000000000000a000000000000000000000000000000000000000000000000000000000000001400000000000000000000000000000000000000000000000000000000000000008313131353531313100000000000000000000000000000000000000000000000000000000000000000000000000000000000000000000000000000000000000010000000000000000000000000000000000000000000000000000000000000020000000000000000000000000000000000000000000000000000000000000002a3078626635333536616465376535663737353635396633303162303763346263363936313034346231310000000000000000000000000000000000000000000000000000000000000000000000000000000000000000000000000000000000010000000000000000000000000000000000000000000000000000000000000064",
        "nonce": "0xce8",
        "chainId": "0x66eee"
      },
      "additionalContracts": [],
      "isFixedGasLimit": false
    },
    {
      "hash": "0xae77139805b040a459071862483207b775deca7b93ec4488f4c49be1f831701b",
      "transactionType": "CALL",
      "contractName": null,
      "contractAddress": "0xc28328b1f98076ed5111f1223c647e883f5d6e16",
      "function": "addFeeToken(string,string[],uint256[])",
      "arguments": [
        "97",
        "[0xbf5356ade7e5f775659f301b07c4bc6961044b11]",
        "[100]"
      ],
      "transaction": {
        "from": "0xe62ab4d111f968660c6b2188046f9b9ba53c4bae",
        "to": "0xc28328b1f98076ed5111f1223c647e883f5d6e16",
        "gas": "0x28fa3",
        "value": "0x0",
        "input": "0x437bf84f000000000000000000000000000000000000000000000000000000000000006000000000000000000000000000000000000000000000000000000000000000a000000000000000000000000000000000000000000000000000000000000001400000000000000000000000000000000000000000000000000000000000000002393700000000000000000000000000000000000000000000000000000000000000000000000000000000000000000000000000000000000000000000000000010000000000000000000000000000000000000000000000000000000000000020000000000000000000000000000000000000000000000000000000000000002a3078626635333536616465376535663737353635396633303162303763346263363936313034346231310000000000000000000000000000000000000000000000000000000000000000000000000000000000000000000000000000000000010000000000000000000000000000000000000000000000000000000000000064",
        "nonce": "0xce9",
        "chainId": "0x66eee"
      },
      "additionalContracts": [],
      "isFixedGasLimit": false
    },
    {
      "hash": "0x52bb38b80c84fee3f5f8695b39a0ad7abaccd78aa27cea5b1b1675a159501225",
      "transactionType": "CALL",
      "contractName": null,
      "contractAddress": "0xc28328b1f98076ed5111f1223c647e883f5d6e16",
      "function": "addFeeToken(string,string[],uint256[])",
      "arguments": [
        "1952959480",
        "[0xbf5356ade7e5f775659f301b07c4bc6961044b11]",
        "[100]"
      ],
      "transaction": {
        "from": "0xe62ab4d111f968660c6b2188046f9b9ba53c4bae",
        "to": "0xc28328b1f98076ed5111f1223c647e883f5d6e16",
        "gas": "0x29fdd",
        "value": "0x0",
        "input": "0x437bf84f000000000000000000000000000000000000000000000000000000000000006000000000000000000000000000000000000000000000000000000000000000a00000000000000000000000000000000000000000000000000000000000000140000000000000000000000000000000000000000000000000000000000000000a313935323935393438300000000000000000000000000000000000000000000000000000000000000000000000000000000000000000000000000000000000010000000000000000000000000000000000000000000000000000000000000020000000000000000000000000000000000000000000000000000000000000002a3078626635333536616465376535663737353635396633303162303763346263363936313034346231310000000000000000000000000000000000000000000000000000000000000000000000000000000000000000000000000000000000010000000000000000000000000000000000000000000000000000000000000064",
        "nonce": "0xcea",
        "chainId": "0x66eee"
      },
      "additionalContracts": [],
      "isFixedGasLimit": false
    },
    {
      "hash": "0xb77d58d410d7956f5a5083486223757a487424a882085ddc05cf6cbda2f5044f",
      "transactionType": "CALL",
      "contractName": null,
      "contractAddress": "0xc28328b1f98076ed5111f1223c647e883f5d6e16",
      "function": "addFeeToken(string,string[],uint256[])",
      "arguments": [
        "5611",
        "[0xbf5356ade7e5f775659f301b07c4bc6961044b11]",
        "[100]"
      ],
      "transaction": {
        "from": "0xe62ab4d111f968660c6b2188046f9b9ba53c4bae",
        "to": "0xc28328b1f98076ed5111f1223c647e883f5d6e16",
        "gas": "0x293b1",
        "value": "0x0",
        "input": "0x437bf84f000000000000000000000000000000000000000000000000000000000000006000000000000000000000000000000000000000000000000000000000000000a000000000000000000000000000000000000000000000000000000000000001400000000000000000000000000000000000000000000000000000000000000004353631310000000000000000000000000000000000000000000000000000000000000000000000000000000000000000000000000000000000000000000000010000000000000000000000000000000000000000000000000000000000000020000000000000000000000000000000000000000000000000000000000000002a3078626635333536616465376535663737353635396633303162303763346263363936313034346231310000000000000000000000000000000000000000000000000000000000000000000000000000000000000000000000000000000000010000000000000000000000000000000000000000000000000000000000000064",
        "nonce": "0xceb",
        "chainId": "0x66eee"
      },
      "additionalContracts": [],
      "isFixedGasLimit": false
    },
    {
      "hash": "0xd00d744421b0150fa3b7496f38001eeb4f926c324791522276501d2cfa335c12",
      "transactionType": "CALL",
      "contractName": null,
      "contractAddress": "0xc28328b1f98076ed5111f1223c647e883f5d6e16",
      "function": "addFeeToken(string,string[],uint256[])",
      "arguments": [
        "1946",
        "[0xbf5356ade7e5f775659f301b07c4bc6961044b11]",
        "[100]"
      ],
      "transaction": {
        "from": "0xe62ab4d111f968660c6b2188046f9b9ba53c4bae",
        "to": "0xc28328b1f98076ed5111f1223c647e883f5d6e16",
        "gas": "0x293b1",
        "value": "0x0",
        "input": "0x437bf84f000000000000000000000000000000000000000000000000000000000000006000000000000000000000000000000000000000000000000000000000000000a000000000000000000000000000000000000000000000000000000000000001400000000000000000000000000000000000000000000000000000000000000004313934360000000000000000000000000000000000000000000000000000000000000000000000000000000000000000000000000000000000000000000000010000000000000000000000000000000000000000000000000000000000000020000000000000000000000000000000000000000000000000000000000000002a3078626635333536616465376535663737353635396633303162303763346263363936313034346231310000000000000000000000000000000000000000000000000000000000000000000000000000000000000000000000000000000000010000000000000000000000000000000000000000000000000000000000000064",
        "nonce": "0xcec",
        "chainId": "0x66eee"
      },
      "additionalContracts": [],
      "isFixedGasLimit": false
    },
    {
      "hash": "0x926e1d802d1b934b57e5619237a56f182af0170c46e5decf985f3985228ab917",
      "transactionType": "CALL",
      "contractName": null,
      "contractAddress": "0xc28328b1f98076ed5111f1223c647e883f5d6e16",
      "function": "addFeeToken(string,string[],uint256[])",
      "arguments": [
        "534351",
        "[0xbf5356ade7e5f775659f301b07c4bc6961044b11]",
        "[100]"
      ],
      "transaction": {
        "from": "0xe62ab4d111f968660c6b2188046f9b9ba53c4bae",
        "to": "0xc28328b1f98076ed5111f1223c647e883f5d6e16",
        "gas": "0x297c0",
        "value": "0x0",
        "input": "0x437bf84f000000000000000000000000000000000000000000000000000000000000006000000000000000000000000000000000000000000000000000000000000000a000000000000000000000000000000000000000000000000000000000000001400000000000000000000000000000000000000000000000000000000000000006353334333531000000000000000000000000000000000000000000000000000000000000000000000000000000000000000000000000000000000000000000010000000000000000000000000000000000000000000000000000000000000020000000000000000000000000000000000000000000000000000000000000002a3078626635333536616465376535663737353635396633303162303763346263363936313034346231310000000000000000000000000000000000000000000000000000000000000000000000000000000000000000000000000000000000010000000000000000000000000000000000000000000000000000000000000064",
        "nonce": "0xced",
        "chainId": "0x66eee"
      },
      "additionalContracts": [],
      "isFixedGasLimit": false
    },
    {
      "hash": "0x77551d7f434fc79d9af4e0de96b7d1652f45d270e4152e4cd965aacc1626395d",
      "transactionType": "CALL",
      "contractName": null,
      "contractAddress": "0xc28328b1f98076ed5111f1223c647e883f5d6e16",
      "function": "addFeeToken(string,string[],uint256[])",
      "arguments": [
        "17000",
        "[0xbf5356ade7e5f775659f301b07c4bc6961044b11]",
        "[100]"
      ],
      "transaction": {
        "from": "0xe62ab4d111f968660c6b2188046f9b9ba53c4bae",
        "to": "0xc28328b1f98076ed5111f1223c647e883f5d6e16",
        "gas": "0x295b9",
        "value": "0x0",
        "input": "0x437bf84f000000000000000000000000000000000000000000000000000000000000006000000000000000000000000000000000000000000000000000000000000000a000000000000000000000000000000000000000000000000000000000000001400000000000000000000000000000000000000000000000000000000000000005313730303000000000000000000000000000000000000000000000000000000000000000000000000000000000000000000000000000000000000000000000010000000000000000000000000000000000000000000000000000000000000020000000000000000000000000000000000000000000000000000000000000002a3078626635333536616465376535663737353635396633303162303763346263363936313034346231310000000000000000000000000000000000000000000000000000000000000000000000000000000000000000000000000000000000010000000000000000000000000000000000000000000000000000000000000064",
        "nonce": "0xcee",
        "chainId": "0x66eee"
      },
      "additionalContracts": [],
      "isFixedGasLimit": false
    },
    {
      "hash": "0x931d5451c2c27691d00ddc8d666e5ae1d7b23a801d758bf6530c5bd09cd6e30e",
      "transactionType": "CALL",
      "contractName": null,
      "contractAddress": "0xc28328b1f98076ed5111f1223c647e883f5d6e16",
      "function": "addFeeToken(string,string[],uint256[])",
      "arguments": [
        "5003",
        "[0xbf5356ade7e5f775659f301b07c4bc6961044b11]",
        "[100]"
      ],
      "transaction": {
        "from": "0xe62ab4d111f968660c6b2188046f9b9ba53c4bae",
        "to": "0xc28328b1f98076ed5111f1223c647e883f5d6e16",
        "gas": "0x293b1",
        "value": "0x0",
        "input": "0x437bf84f000000000000000000000000000000000000000000000000000000000000006000000000000000000000000000000000000000000000000000000000000000a000000000000000000000000000000000000000000000000000000000000001400000000000000000000000000000000000000000000000000000000000000004353030330000000000000000000000000000000000000000000000000000000000000000000000000000000000000000000000000000000000000000000000010000000000000000000000000000000000000000000000000000000000000020000000000000000000000000000000000000000000000000000000000000002a3078626635333536616465376535663737353635396633303162303763346263363936313034346231310000000000000000000000000000000000000000000000000000000000000000000000000000000000000000000000000000000000010000000000000000000000000000000000000000000000000000000000000064",
        "nonce": "0xcef",
        "chainId": "0x66eee"
      },
      "additionalContracts": [],
      "isFixedGasLimit": false
    },
    {
      "hash": "0x6325e8e039daceaa44df28ae310534efd3fbcc5f0123f2b04657fcacb6676c7b",
      "transactionType": "CALL",
      "contractName": null,
      "contractAddress": "0xc28328b1f98076ed5111f1223c647e883f5d6e16",
      "function": "addFeeToken(string,string[],uint256[])",
      "arguments": [
        "168587773",
        "[0xbf5356ade7e5f775659f301b07c4bc6961044b11]",
        "[100]"
      ],
      "transaction": {
        "from": "0xe62ab4d111f968660c6b2188046f9b9ba53c4bae",
        "to": "0xc28328b1f98076ed5111f1223c647e883f5d6e16",
        "gas": "0x29dd7",
        "value": "0x0",
        "input": "0x437bf84f000000000000000000000000000000000000000000000000000000000000006000000000000000000000000000000000000000000000000000000000000000a000000000000000000000000000000000000000000000000000000000000001400000000000000000000000000000000000000000000000000000000000000009313638353837373733000000000000000000000000000000000000000000000000000000000000000000000000000000000000000000000000000000000000010000000000000000000000000000000000000000000000000000000000000020000000000000000000000000000000000000000000000000000000000000002a3078626635333536616465376535663737353635396633303162303763346263363936313034346231310000000000000000000000000000000000000000000000000000000000000000000000000000000000000000000000000000000000010000000000000000000000000000000000000000000000000000000000000064",
        "nonce": "0xcf0",
        "chainId": "0x66eee"
      },
      "additionalContracts": [],
      "isFixedGasLimit": false
    },
    {
      "hash": "0xc94e266c518079f42751ed3486dedb99be5f3d9b42e27832e6edff5a6519ded2",
      "transactionType": "CALL",
      "contractName": null,
      "contractAddress": "0xc28328b1f98076ed5111f1223c647e883f5d6e16",
      "function": "addFeeToken(string,string[],uint256[])",
      "arguments": [
        "153",
        "[0xbf5356ade7e5f775659f301b07c4bc6961044b11]",
        "[100]"
      ],
      "transaction": {
        "from": "0xe62ab4d111f968660c6b2188046f9b9ba53c4bae",
        "to": "0xc28328b1f98076ed5111f1223c647e883f5d6e16",
        "gas": "0x291ab",
        "value": "0x0",
        "input": "0x437bf84f000000000000000000000000000000000000000000000000000000000000006000000000000000000000000000000000000000000000000000000000000000a000000000000000000000000000000000000000000000000000000000000001400000000000000000000000000000000000000000000000000000000000000003313533000000000000000000000000000000000000000000000000000000000000000000000000000000000000000000000000000000000000000000000000010000000000000000000000000000000000000000000000000000000000000020000000000000000000000000000000000000000000000000000000000000002a3078626635333536616465376535663737353635396633303162303763346263363936313034346231310000000000000000000000000000000000000000000000000000000000000000000000000000000000000000000000000000000000010000000000000000000000000000000000000000000000000000000000000064",
        "nonce": "0xcf1",
        "chainId": "0x66eee"
      },
      "additionalContracts": [],
      "isFixedGasLimit": false
    },
    {
      "hash": "0xe962cb0a2594dd01f927f2bafd1ce9eb8119539e097c91ea6434f90f0e7ffa9a",
      "transactionType": "CALL",
      "contractName": null,
      "contractAddress": "0xc28328b1f98076ed5111f1223c647e883f5d6e16",
      "function": "addFeeToken(string,string[],uint256[])",
      "arguments": [
        "11155420",
        "[0xbf5356ade7e5f775659f301b07c4bc6961044b11]",
        "[100]"
      ],
      "transaction": {
        "from": "0xe62ab4d111f968660c6b2188046f9b9ba53c4bae",
        "to": "0xc28328b1f98076ed5111f1223c647e883f5d6e16",
        "gas": "0x29bcf",
        "value": "0x0",
        "input": "0x437bf84f000000000000000000000000000000000000000000000000000000000000006000000000000000000000000000000000000000000000000000000000000000a000000000000000000000000000000000000000000000000000000000000001400000000000000000000000000000000000000000000000000000000000000008313131353534323000000000000000000000000000000000000000000000000000000000000000000000000000000000000000000000000000000000000000010000000000000000000000000000000000000000000000000000000000000020000000000000000000000000000000000000000000000000000000000000002a3078626635333536616465376535663737353635396633303162303763346263363936313034346231310000000000000000000000000000000000000000000000000000000000000000000000000000000000000000000000000000000000010000000000000000000000000000000000000000000000000000000000000064",
        "nonce": "0xcf2",
        "chainId": "0x66eee"
      },
      "additionalContracts": [],
      "isFixedGasLimit": false
    },
    {
      "hash": "0x746f6b2880f1739adabe9e85f1d08669f01aecdd55321249eba1a438c9b1a0d3",
      "transactionType": "CALL",
      "contractName": null,
      "contractAddress": "0xc28328b1f98076ed5111f1223c647e883f5d6e16",
      "function": "addFeeToken(string,string[],uint256[])",
      "arguments": [
        "43113",
        "[0xbf5356ade7e5f775659f301b07c4bc6961044b11]",
        "[100]"
      ],
      "transaction": {
        "from": "0xe62ab4d111f968660c6b2188046f9b9ba53c4bae",
        "to": "0xc28328b1f98076ed5111f1223c647e883f5d6e16",
        "gas": "0x295b9",
        "value": "0x0",
        "input": "0x437bf84f000000000000000000000000000000000000000000000000000000000000006000000000000000000000000000000000000000000000000000000000000000a000000000000000000000000000000000000000000000000000000000000001400000000000000000000000000000000000000000000000000000000000000005343331313300000000000000000000000000000000000000000000000000000000000000000000000000000000000000000000000000000000000000000000010000000000000000000000000000000000000000000000000000000000000020000000000000000000000000000000000000000000000000000000000000002a3078626635333536616465376535663737353635396633303162303763346263363936313034346231310000000000000000000000000000000000000000000000000000000000000000000000000000000000000000000000000000000000010000000000000000000000000000000000000000000000000000000000000064",
        "nonce": "0xcf3",
        "chainId": "0x66eee"
      },
      "additionalContracts": [],
      "isFixedGasLimit": false
    },
    {
      "hash": "0x0b61a908e5b3fe83a6154089b6590ccf7a179c84f566c6b21cb94f62399f2310",
      "transactionType": "CALL",
      "contractName": null,
      "contractAddress": "0xfa89dd803b8872f991997778d26c74a3aecd9639",
      "function": "addChainContract(string[],string[])",
      "arguments": [
        "[84532, 80002, 11155111, 97, 1952959480, 5611, 1946, 534351, 17000, 5003, 168587773, 153, 11155420, 43113]",
        "[0x31f21c6e2605d28e6b204cd323ff58421fc8dd00, 0x66db3f564807fdc689ec85285981ef464daeb943, 0x13797c225f8e3645299f17d83365e0f5db1c1607, 0x7a63f6b51c503e9a3354af8262e8c7129abdbbeb, 0x5fd63ca6c373cd35e8e373fb5fa7830a8783eced, 0x78f81b1aee019efaafe58853d96c5e9ac87be731, 0xa7441037961e31d4b64aca57417d7673fedc8fec, 0x1944f7fdd330af7b0e7c08349591213e35ed5948, 0x1eebc47aae37f2ea390869efe60db5a2cf2c9d80, 0xf5b9b2dcda465ad62b56390da5c36e4403e5ae92, 0xea4a06cb68aba869e6bf98edc4bdbc731d2d82e3, 0xfbdbf53eb371419e92c718ac76632c7f3617545a, 0xf74b4051a565399b114a0fd6a674ecab864ae186, 0x8176186fa521e54f12dd8011eb6729003e3d3fe0]"
      ],
      "transaction": {
        "from": "0xe62ab4d111f968660c6b2188046f9b9ba53c4bae",
        "to": "0xfa89dd803b8872f991997778d26c74a3aecd9639",
        "gas": "0x23bd08",
        "value": "0x0",
        "input": "0x013fd3bd000000000000000000000000000000000000000000000000000000000000004000000000000000000000000000000000000000000000000000000000000005a0000000000000000000000000000000000000000000000000000000000000000e00000000000000000000000000000000000000000000000000000000000001c000000000000000000000000000000000000000000000000000000000000002000000000000000000000000000000000000000000000000000000000000000240000000000000000000000000000000000000000000000000000000000000028000000000000000000000000000000000000000000000000000000000000002c000000000000000000000000000000000000000000000000000000000000003000000000000000000000000000000000000000000000000000000000000000340000000000000000000000000000000000000000000000000000000000000038000000000000000000000000000000000000000000000000000000000000003c000000000000000000000000000000000000000000000000000000000000004000000000000000000000000000000000000000000000000000000000000000440000000000000000000000000000000000000000000000000000000000000048000000000000000000000000000000000000000000000000000000000000004c0000000000000000000000000000000000000000000000000000000000000050000000000000000000000000000000000000000000000000000000000000000053834353332000000000000000000000000000000000000000000000000000000000000000000000000000000000000000000000000000000000000000000000538303030320000000000000000000000000000000000000000000000000000000000000000000000000000000000000000000000000000000000000000000008313131353531313100000000000000000000000000000000000000000000000000000000000000000000000000000000000000000000000000000000000000023937000000000000000000000000000000000000000000000000000000000000000000000000000000000000000000000000000000000000000000000000000a3139353239353934383000000000000000000000000000000000000000000000000000000000000000000000000000000000000000000000000000000000000435363131000000000000000000000000000000000000000000000000000000000000000000000000000000000000000000000000000000000000000000000004313934360000000000000000000000000000000000000000000000000000000000000000000000000000000000000000000000000000000000000000000000063533343335310000000000000000000000000000000000000000000000000000000000000000000000000000000000000000000000000000000000000000000531373030300000000000000000000000000000000000000000000000000000000000000000000000000000000000000000000000000000000000000000000004353030330000000000000000000000000000000000000000000000000000000000000000000000000000000000000000000000000000000000000000000000093136383538373737330000000000000000000000000000000000000000000000000000000000000000000000000000000000000000000000000000000000000331353300000000000000000000000000000000000000000000000000000000000000000000000000000000000000000000000000000000000000000000000008313131353534323000000000000000000000000000000000000000000000000000000000000000000000000000000000000000000000000000000000000000053433313133000000000000000000000000000000000000000000000000000000000000000000000000000000000000000000000000000000000000000000000e00000000000000000000000000000000000000000000000000000000000001c00000000000000000000000000000000000000000000000000000000000000220000000000000000000000000000000000000000000000000000000000000028000000000000000000000000000000000000000000000000000000000000002e0000000000000000000000000000000000000000000000000000000000000034000000000000000000000000000000000000000000000000000000000000003a00000000000000000000000000000000000000000000000000000000000000400000000000000000000000000000000000000000000000000000000000000046000000000000000000000000000000000000000000000000000000000000004c00000000000000000000000000000000000000000000000000000000000000520000000000000000000000000000000000000000000000000000000000000058000000000000000000000000000000000000000000000000000000000000005e0000000000000000000000000000000000000000000000000000000000000064000000000000000000000000000000000000000000000000000000000000006a0000000000000000000000000000000000000000000000000000000000000002a30783331663231633665323630356432386536623230346364333233666635383432316663386464303000000000000000000000000000000000000000000000000000000000000000000000000000000000000000000000000000000000002a30783636646233663536343830376664633638396563383532383539383165663436346461656239343300000000000000000000000000000000000000000000000000000000000000000000000000000000000000000000000000000000002a30783133373937633232356638653336343532393966313764383333363565306635646231633136303700000000000000000000000000000000000000000000000000000000000000000000000000000000000000000000000000000000002a30783761363366366235316335303365396133333534616638323632653863373132396162646262656200000000000000000000000000000000000000000000000000000000000000000000000000000000000000000000000000000000002a30783566643633636136633337336364333565386533373366623566613738333061383738336563656400000000000000000000000000000000000000000000000000000000000000000000000000000000000000000000000000000000002a30783738663831623161656530313965666161666535383835336439366335653961633837626537333100000000000000000000000000000000000000000000000000000000000000000000000000000000000000000000000000000000002a30786137343431303337393631653331643462363461636135373431376437363733666564633866656300000000000000000000000000000000000000000000000000000000000000000000000000000000000000000000000000000000002a30783139343466376664643333306166376230653763303833343935393132313365333565643539343800000000000000000000000000000000000000000000000000000000000000000000000000000000000000000000000000000000002a30783165656263343761616533376632656133393038363965666536306462356132636632633964383000000000000000000000000000000000000000000000000000000000000000000000000000000000000000000000000000000000002a30786635623962326463646134363561643632623536333930646135633336653434303365356165393200000000000000000000000000000000000000000000000000000000000000000000000000000000000000000000000000000000002a30786561346130366362363861626138363965366266393865646334626462633733316432643832653300000000000000000000000000000000000000000000000000000000000000000000000000000000000000000000000000000000002a30786662646266353365623337313431396539326337313861633736363332633766333631373534356100000000000000000000000000000000000000000000000000000000000000000000000000000000000000000000000000000000002a30786637346234303531613536353339396231313461306664366136373465636162383634616531383600000000000000000000000000000000000000000000000000000000000000000000000000000000000000000000000000000000002a30783831373631383666613532316535346631326464383031316562363732393030336533643366653000000000000000000000000000000000000000000000",
        "nonce": "0xcf4",
        "chainId": "0x66eee"
      },
      "additionalContracts": [],
      "isFixedGasLimit": false
    },
    {
      "hash": "0x1f9d3e7838e01c130cb33ed9ebac7c9c49f5aa17964b4b6cc3d4faba1ad3b670",
      "transactionType": "CALL",
      "contractName": null,
      "contractAddress": "0xfa89dd803b8872f991997778d26c74a3aecd9639",
      "function": "attachRWAX(uint256,uint256,string[],string[])",
      "arguments": [
        "1",
        "1",
        "[421614, 84532, 80002, 11155111, 97, 1952959480, 5611, 1946, 534351, 17000, 5003, 168587773, 153, 11155420, 43113]",
        "[0x8bd737f4ea451911edf0445acb1b7efdc9565221, 0x8736d3b789a6548cc8fb607da34ed860ab626322, 0x2da1b2763cf56b9df5cbbb5a996c7e8836d8c6d8, 0x778511925d3243cf03a2486386ecc363e9ad6647, 0x37c7137dc6e3dc3c3637bfed3f6dbfbd43386429, 0x62421e1c0110aebd376e34411c2616c10eff9161, 0x7743150e59d6a27ec96ddda07b24131d0122b611, 0xf299832e535b9cc50d4002909061c320964d03fc, 0x1249d751e6a0b7b11b9e55cbf8bc7d397ac3c083, 0x9372cd1287e0bb6337802d80dff342348c85fd78, 0x6b39331e9478571bf6d55842aab470ba3196bd5a, 0x9a0f81de582ce9194feadc6ccefaf9ea70451616, 0xfdf17bece656a0ac2d1302305962122a968eea28, 0xb9de1c03eea7546d9db1fa6fc19dfa7443f0aede, 0x5e0d85dfa2827cd3065ab2d4af93e58dc82c5e96]"
      ],
      "transaction": {
        "from": "0xe62ab4d111f968660c6b2188046f9b9ba53c4bae",
        "to": "0xfa89dd803b8872f991997778d26c74a3aecd9639",
        "gas": "0x2e3e75",
        "value": "0x0",
        "input": "0x33a5f5b40000000000000000000000000000000000000000000000000000000000000001000000000000000000000000000000000000000000000000000000000000000100000000000000000000000000000000000000000000000000000000000000800000000000000000000000000000000000000000000000000000000000000640000000000000000000000000000000000000000000000000000000000000000f00000000000000000000000000000000000000000000000000000000000001e00000000000000000000000000000000000000000000000000000000000000220000000000000000000000000000000000000000000000000000000000000026000000000000000000000000000000000000000000000000000000000000002a000000000000000000000000000000000000000000000000000000000000002e00000000000000000000000000000000000000000000000000000000000000320000000000000000000000000000000000000000000000000000000000000036000000000000000000000000000000000000000000000000000000000000003a000000000000000000000000000000000000000000000000000000000000003e00000000000000000000000000000000000000000000000000000000000000420000000000000000000000000000000000000000000000000000000000000046000000000000000000000000000000000000000000000000000000000000004a000000000000000000000000000000000000000000000000000000000000004e0000000000000000000000000000000000000000000000000000000000000052000000000000000000000000000000000000000000000000000000000000005600000000000000000000000000000000000000000000000000000000000000006343231363134000000000000000000000000000000000000000000000000000000000000000000000000000000000000000000000000000000000000000000053834353332000000000000000000000000000000000000000000000000000000000000000000000000000000000000000000000000000000000000000000000538303030320000000000000000000000000000000000000000000000000000000000000000000000000000000000000000000000000000000000000000000008313131353531313100000000000000000000000000000000000000000000000000000000000000000000000000000000000000000000000000000000000000023937000000000000000000000000000000000000000000000000000000000000000000000000000000000000000000000000000000000000000000000000000a3139353239353934383000000000000000000000000000000000000000000000000000000000000000000000000000000000000000000000000000000000000435363131000000000000000000000000000000000000000000000000000000000000000000000000000000000000000000000000000000000000000000000004313934360000000000000000000000000000000000000000000000000000000000000000000000000000000000000000000000000000000000000000000000063533343335310000000000000000000000000000000000000000000000000000000000000000000000000000000000000000000000000000000000000000000531373030300000000000000000000000000000000000000000000000000000000000000000000000000000000000000000000000000000000000000000000004353030330000000000000000000000000000000000000000000000000000000000000000000000000000000000000000000000000000000000000000000000093136383538373737330000000000000000000000000000000000000000000000000000000000000000000000000000000000000000000000000000000000000331353300000000000000000000000000000000000000000000000000000000000000000000000000000000000000000000000000000000000000000000000008313131353534323000000000000000000000000000000000000000000000000000000000000000000000000000000000000000000000000000000000000000053433313133000000000000000000000000000000000000000000000000000000000000000000000000000000000000000000000000000000000000000000000f00000000000000000000000000000000000000000000000000000000000001e0000000000000000000000000000000000000000000000000000000000000024000000000000000000000000000000000000000000000000000000000000002a00000000000000000000000000000000000000000000000000000000000000300000000000000000000000000000000000000000000000000000000000000036000000000000000000000000000000000000000000000000000000000000003c00000000000000000000000000000000000000000000000000000000000000420000000000000000000000000000000000000000000000000000000000000048000000000000000000000000000000000000000000000000000000000000004e0000000000000000000000000000000000000000000000000000000000000054000000000000000000000000000000000000000000000000000000000000005a00000000000000000000000000000000000000000000000000000000000000600000000000000000000000000000000000000000000000000000000000000066000000000000000000000000000000000000000000000000000000000000006c00000000000000000000000000000000000000000000000000000000000000720000000000000000000000000000000000000000000000000000000000000002a30783862643733376634656134353139313165646630343435616362316237656664633935363532323100000000000000000000000000000000000000000000000000000000000000000000000000000000000000000000000000000000002a30783837333664336237383961363534386363386662363037646133346564383630616236323633323200000000000000000000000000000000000000000000000000000000000000000000000000000000000000000000000000000000002a30783264613162323736336366353662396466356362626235613939366337653838333664386336643800000000000000000000000000000000000000000000000000000000000000000000000000000000000000000000000000000000002a30783737383531313932356433323433636630336132343836333836656363333633653961643636343700000000000000000000000000000000000000000000000000000000000000000000000000000000000000000000000000000000002a30783337633731333764633665336463336333363337626665643366366462666264343333383634323900000000000000000000000000000000000000000000000000000000000000000000000000000000000000000000000000000000002a30783632343231653163303131306165626433373665333434313163323631366331306566663931363100000000000000000000000000000000000000000000000000000000000000000000000000000000000000000000000000000000002a30783737343331353065353964366132376563393664646461303762323431333164303132326236313100000000000000000000000000000000000000000000000000000000000000000000000000000000000000000000000000000000002a30786632393938333265353335623963633530643430303239303930363163333230393634643033666300000000000000000000000000000000000000000000000000000000000000000000000000000000000000000000000000000000002a30783132343964373531653661306237623131623965353563626638626337643339376163336330383300000000000000000000000000000000000000000000000000000000000000000000000000000000000000000000000000000000002a30783933373263643132383765306262363333373830326438306466663334323334386338356664373800000000000000000000000000000000000000000000000000000000000000000000000000000000000000000000000000000000002a30783662333933333165393437383537316266366435353834326161623437306261333139366264356100000000000000000000000000000000000000000000000000000000000000000000000000000000000000000000000000000000002a30783961306638316465353832636539313934666561646336636365666166396561373034353136313600000000000000000000000000000000000000000000000000000000000000000000000000000000000000000000000000000000002a30786664663137626563653635366130616332643133303233303539363231323261393638656561323800000000000000000000000000000000000000000000000000000000000000000000000000000000000000000000000000000000002a30786239646531633033656561373534366439646231666136666331396466613734343366306165646500000000000000000000000000000000000000000000000000000000000000000000000000000000000000000000000000000000002a30783565306438356466613238323763643330363561623264346166393365353864633832633565393600000000000000000000000000000000000000000000",
        "nonce": "0xcf5",
        "chainId": "0x66eee"
      },
      "additionalContracts": [],
      "isFixedGasLimit": false
    },
    {
      "hash": "0x86fe64961d47c5df152aa9fecb21d54fa8cb8199a025eb02e39e311d1d83a859",
      "transactionType": "CALL",
      "contractName": null,
      "contractAddress": "0xfa89dd803b8872f991997778d26c74a3aecd9639",
      "function": "attachStorageManager(uint256,uint256,string[],string[])",
      "arguments": [
        "1",
        "1",
        "[421614, 84532, 80002, 11155111, 97, 1952959480, 5611, 1946, 534351, 17000, 5003, 168587773, 153, 11155420, 43113]",
        "[0x7ab4de775c88e4aa4c93d0078d8318463fabfb13, 0x7e0858de387f30ebc0bc2f24a35dc4ad9231cffd, 0xb3d138f0613cc476faa8c5e2c1a64e90d9d506f3, 0x6681db630eb117050d78e0b89eb5619b35ea12e8, 0x71645806ee984439adc3352abb5491ec03928e63, 0xe3a405aa844da4b6e83eae852ba471219163cbe0, 0x926df1f820af8e3cf53a58c94332eb16ba4cb4b5, 0x3f547b04f8cf9552434b7f3a51fc23247911b797, 0xb406b937c12e03d676727fc1bb686279eedbc178, 0xe148fbc6c35b6cecc50d18ebf69959a6a989cb7c, 0xf3f62daf8f096e5e1e8626cf2f35d816d454bc93, 0x8d4eee23a687b304e94eee3211f3058a60744502, 0x35f5b7a7469c7b3e3bb159335ec92ce74f7f11cd, 0x6429d598684efbe5a5ff70451e7b2c501c85e254, 0xae66c08b9d76eecaa74314c60f3305d43707acc9]"
      ],
      "transaction": {
        "from": "0xe62ab4d111f968660c6b2188046f9b9ba53c4bae",
        "to": "0xfa89dd803b8872f991997778d26c74a3aecd9639",
        "gas": "0x26e5cd",
        "value": "0x0",
        "input": "0x2f68b4890000000000000000000000000000000000000000000000000000000000000001000000000000000000000000000000000000000000000000000000000000000100000000000000000000000000000000000000000000000000000000000000800000000000000000000000000000000000000000000000000000000000000640000000000000000000000000000000000000000000000000000000000000000f00000000000000000000000000000000000000000000000000000000000001e00000000000000000000000000000000000000000000000000000000000000220000000000000000000000000000000000000000000000000000000000000026000000000000000000000000000000000000000000000000000000000000002a000000000000000000000000000000000000000000000000000000000000002e00000000000000000000000000000000000000000000000000000000000000320000000000000000000000000000000000000000000000000000000000000036000000000000000000000000000000000000000000000000000000000000003a000000000000000000000000000000000000000000000000000000000000003e00000000000000000000000000000000000000000000000000000000000000420000000000000000000000000000000000000000000000000000000000000046000000000000000000000000000000000000000000000000000000000000004a000000000000000000000000000000000000000000000000000000000000004e0000000000000000000000000000000000000000000000000000000000000052000000000000000000000000000000000000000000000000000000000000005600000000000000000000000000000000000000000000000000000000000000006343231363134000000000000000000000000000000000000000000000000000000000000000000000000000000000000000000000000000000000000000000053834353332000000000000000000000000000000000000000000000000000000000000000000000000000000000000000000000000000000000000000000000538303030320000000000000000000000000000000000000000000000000000000000000000000000000000000000000000000000000000000000000000000008313131353531313100000000000000000000000000000000000000000000000000000000000000000000000000000000000000000000000000000000000000023937000000000000000000000000000000000000000000000000000000000000000000000000000000000000000000000000000000000000000000000000000a3139353239353934383000000000000000000000000000000000000000000000000000000000000000000000000000000000000000000000000000000000000435363131000000000000000000000000000000000000000000000000000000000000000000000000000000000000000000000000000000000000000000000004313934360000000000000000000000000000000000000000000000000000000000000000000000000000000000000000000000000000000000000000000000063533343335310000000000000000000000000000000000000000000000000000000000000000000000000000000000000000000000000000000000000000000531373030300000000000000000000000000000000000000000000000000000000000000000000000000000000000000000000000000000000000000000000004353030330000000000000000000000000000000000000000000000000000000000000000000000000000000000000000000000000000000000000000000000093136383538373737330000000000000000000000000000000000000000000000000000000000000000000000000000000000000000000000000000000000000331353300000000000000000000000000000000000000000000000000000000000000000000000000000000000000000000000000000000000000000000000008313131353534323000000000000000000000000000000000000000000000000000000000000000000000000000000000000000000000000000000000000000053433313133000000000000000000000000000000000000000000000000000000000000000000000000000000000000000000000000000000000000000000000f00000000000000000000000000000000000000000000000000000000000001e0000000000000000000000000000000000000000000000000000000000000024000000000000000000000000000000000000000000000000000000000000002a00000000000000000000000000000000000000000000000000000000000000300000000000000000000000000000000000000000000000000000000000000036000000000000000000000000000000000000000000000000000000000000003c00000000000000000000000000000000000000000000000000000000000000420000000000000000000000000000000000000000000000000000000000000048000000000000000000000000000000000000000000000000000000000000004e0000000000000000000000000000000000000000000000000000000000000054000000000000000000000000000000000000000000000000000000000000005a00000000000000000000000000000000000000000000000000000000000000600000000000000000000000000000000000000000000000000000000000000066000000000000000000000000000000000000000000000000000000000000006c00000000000000000000000000000000000000000000000000000000000000720000000000000000000000000000000000000000000000000000000000000002a30783761623464653737356338386534616134633933643030373864383331383436336661626662313300000000000000000000000000000000000000000000000000000000000000000000000000000000000000000000000000000000002a30783765303835386465333837663330656263306263326632346133356463346164393233316366666400000000000000000000000000000000000000000000000000000000000000000000000000000000000000000000000000000000002a30786233643133386630363133636334373666616138633565326331613634653930643964353036663300000000000000000000000000000000000000000000000000000000000000000000000000000000000000000000000000000000002a30783636383164623633306562313137303530643738653062383965623536313962333565613132653800000000000000000000000000000000000000000000000000000000000000000000000000000000000000000000000000000000002a30783731363435383036656539383434333961646333333532616262353439316563303339323865363300000000000000000000000000000000000000000000000000000000000000000000000000000000000000000000000000000000002a30786533613430356161383434646134623665383365616538353262613437313231393136336362653000000000000000000000000000000000000000000000000000000000000000000000000000000000000000000000000000000000002a30783932366466316638323061663865336366353361353863393433333265623136626134636234623500000000000000000000000000000000000000000000000000000000000000000000000000000000000000000000000000000000002a30783366353437623034663863663935353234333462376633613531666332333234373931316237393700000000000000000000000000000000000000000000000000000000000000000000000000000000000000000000000000000000002a30786234303662393337633132653033643637363732376663316262363836323739656564626331373800000000000000000000000000000000000000000000000000000000000000000000000000000000000000000000000000000000002a30786531343866626336633335623663656363353064313865626636393935396136613938396362376300000000000000000000000000000000000000000000000000000000000000000000000000000000000000000000000000000000002a30786633663632646166386630393665356531653836323663663266333564383136643435346263393300000000000000000000000000000000000000000000000000000000000000000000000000000000000000000000000000000000002a30783864346565653233613638376233303465393465656533323131663330353861363037343435303200000000000000000000000000000000000000000000000000000000000000000000000000000000000000000000000000000000002a30783335663562376137343639633762336533626231353933333565633932636537346637663131636400000000000000000000000000000000000000000000000000000000000000000000000000000000000000000000000000000000002a30783634323964353938363834656662653561356666373034353165376232633530316338356532353400000000000000000000000000000000000000000000000000000000000000000000000000000000000000000000000000000000002a30786165363663303862396437366565636161373433313463363066333330356434333730376163633900000000000000000000000000000000000000000000",
        "nonce": "0xcf6",
        "chainId": "0x66eee"
      },
      "additionalContracts": [],
      "isFixedGasLimit": false
    },
    {
      "hash": "0xcac8438203d9d016d3710df5619e753dfc353d355e273598dbe8b13e131b35a1",
      "transactionType": "CALL",
      "contractName": null,
      "contractAddress": "0xfa89dd803b8872f991997778d26c74a3aecd9639",
      "function": "attachSentryManager(uint256,uint256,string[],string[])",
      "arguments": [
        "1",
        "1",
        "[421614, 84532, 80002, 11155111, 97, 1952959480, 5611, 1946, 534351, 17000, 5003, 168587773, 153, 11155420, 43113]",
        "[0xb63f83484b9bdbad5c574b4c89badf0359e78854, 0x669ab21e6cea598ea34cd1292680937c3def535c, 0xf32bc63a511b3b3deb8fb6aeb3c52ebc0541067e, 0xf4842c8354fe42e85d6dcde11cfada1b80beaa33, 0x0d7b0bb763557ea0c7c2d938b5ae3d5ccbbf8d44, 0x4a707b416ee66af8b1671209ed48f5dcc00257bf, 0x3af6a526dd51c8b08fd54dbb624e042bb3b0a77e, 0xc04058e417de221448d4140fc1622de24121c5e3, 0x66dc636132fb9b7f6ed858928b65864d3fd0ea67, 0x208ec1ca3b07a50151c5741bc0e05c61beddad90, 0xb5f5be1ac436d8ad082c4804afeda73088730ed1, 0x0156a74fd9432446030f47f7c55f4d1fbfdf5e9a, 0x2b15aab31879e4b3a9dc521a3a4ebdb5d691d18a, 0xa31ac55003cde3ef9ce9c576a691d0f41586c20b, 0xf9edce2638da660f51ee08220a1a5a32fab61d61]"
      ],
      "transaction": {
        "from": "0xe62ab4d111f968660c6b2188046f9b9ba53c4bae",
        "to": "0xfa89dd803b8872f991997778d26c74a3aecd9639",
        "gas": "0x26f1da",
        "value": "0x0",
        "input": "0x349de7970000000000000000000000000000000000000000000000000000000000000001000000000000000000000000000000000000000000000000000000000000000100000000000000000000000000000000000000000000000000000000000000800000000000000000000000000000000000000000000000000000000000000640000000000000000000000000000000000000000000000000000000000000000f00000000000000000000000000000000000000000000000000000000000001e00000000000000000000000000000000000000000000000000000000000000220000000000000000000000000000000000000000000000000000000000000026000000000000000000000000000000000000000000000000000000000000002a000000000000000000000000000000000000000000000000000000000000002e00000000000000000000000000000000000000000000000000000000000000320000000000000000000000000000000000000000000000000000000000000036000000000000000000000000000000000000000000000000000000000000003a000000000000000000000000000000000000000000000000000000000000003e00000000000000000000000000000000000000000000000000000000000000420000000000000000000000000000000000000000000000000000000000000046000000000000000000000000000000000000000000000000000000000000004a000000000000000000000000000000000000000000000000000000000000004e0000000000000000000000000000000000000000000000000000000000000052000000000000000000000000000000000000000000000000000000000000005600000000000000000000000000000000000000000000000000000000000000006343231363134000000000000000000000000000000000000000000000000000000000000000000000000000000000000000000000000000000000000000000053834353332000000000000000000000000000000000000000000000000000000000000000000000000000000000000000000000000000000000000000000000538303030320000000000000000000000000000000000000000000000000000000000000000000000000000000000000000000000000000000000000000000008313131353531313100000000000000000000000000000000000000000000000000000000000000000000000000000000000000000000000000000000000000023937000000000000000000000000000000000000000000000000000000000000000000000000000000000000000000000000000000000000000000000000000a3139353239353934383000000000000000000000000000000000000000000000000000000000000000000000000000000000000000000000000000000000000435363131000000000000000000000000000000000000000000000000000000000000000000000000000000000000000000000000000000000000000000000004313934360000000000000000000000000000000000000000000000000000000000000000000000000000000000000000000000000000000000000000000000063533343335310000000000000000000000000000000000000000000000000000000000000000000000000000000000000000000000000000000000000000000531373030300000000000000000000000000000000000000000000000000000000000000000000000000000000000000000000000000000000000000000000004353030330000000000000000000000000000000000000000000000000000000000000000000000000000000000000000000000000000000000000000000000093136383538373737330000000000000000000000000000000000000000000000000000000000000000000000000000000000000000000000000000000000000331353300000000000000000000000000000000000000000000000000000000000000000000000000000000000000000000000000000000000000000000000008313131353534323000000000000000000000000000000000000000000000000000000000000000000000000000000000000000000000000000000000000000053433313133000000000000000000000000000000000000000000000000000000000000000000000000000000000000000000000000000000000000000000000f00000000000000000000000000000000000000000000000000000000000001e0000000000000000000000000000000000000000000000000000000000000024000000000000000000000000000000000000000000000000000000000000002a00000000000000000000000000000000000000000000000000000000000000300000000000000000000000000000000000000000000000000000000000000036000000000000000000000000000000000000000000000000000000000000003c00000000000000000000000000000000000000000000000000000000000000420000000000000000000000000000000000000000000000000000000000000048000000000000000000000000000000000000000000000000000000000000004e0000000000000000000000000000000000000000000000000000000000000054000000000000000000000000000000000000000000000000000000000000005a00000000000000000000000000000000000000000000000000000000000000600000000000000000000000000000000000000000000000000000000000000066000000000000000000000000000000000000000000000000000000000000006c00000000000000000000000000000000000000000000000000000000000000720000000000000000000000000000000000000000000000000000000000000002a30786236336638333438346239626462616435633537346234633839626164663033353965373838353400000000000000000000000000000000000000000000000000000000000000000000000000000000000000000000000000000000002a30783636396162323165366365613539386561333463643132393236383039333763336465663533356300000000000000000000000000000000000000000000000000000000000000000000000000000000000000000000000000000000002a30786633326263363361353131623362336465623866623661656233633532656263303534313036376500000000000000000000000000000000000000000000000000000000000000000000000000000000000000000000000000000000002a30786634383432633833353466653432653835643664636465313163666164613162383062656161333300000000000000000000000000000000000000000000000000000000000000000000000000000000000000000000000000000000002a30783064376230626237363335353765613063376332643933386235616533643563636262663864343400000000000000000000000000000000000000000000000000000000000000000000000000000000000000000000000000000000002a30783461373037623431366565363661663862313637313230396564343866356463633030323537626600000000000000000000000000000000000000000000000000000000000000000000000000000000000000000000000000000000002a30783361663661353236646435316338623038666435346462623632346530343262623362306137376500000000000000000000000000000000000000000000000000000000000000000000000000000000000000000000000000000000002a30786330343035386534313764653232313434386434313430666331363232646532343132316335653300000000000000000000000000000000000000000000000000000000000000000000000000000000000000000000000000000000002a30783636646336333631333266623962376636656438353839323862363538363464336664306561363700000000000000000000000000000000000000000000000000000000000000000000000000000000000000000000000000000000002a30783230386563316361336230376135303135316335373431626330653035633631626564646164393000000000000000000000000000000000000000000000000000000000000000000000000000000000000000000000000000000000002a30786235663562653161633433366438616430383263343830346166656461373330383837333065643100000000000000000000000000000000000000000000000000000000000000000000000000000000000000000000000000000000002a30783031353661373466643934333234343630333066343766376335356634643166626664663565396100000000000000000000000000000000000000000000000000000000000000000000000000000000000000000000000000000000002a30783262313561616233313837396534623361396463353231613361346562646235643639316431386100000000000000000000000000000000000000000000000000000000000000000000000000000000000000000000000000000000002a30786133316163353530303363646533656639636539633537366136393164306634313538366332306200000000000000000000000000000000000000000000000000000000000000000000000000000000000000000000000000000000002a30786639656463653236333864613636306635316565303832323061316135613332666162363164363100000000000000000000000000000000000000000000",
        "nonce": "0xcf7",
        "chainId": "0x66eee"
      },
      "additionalContracts": [],
      "isFixedGasLimit": false
    }
  ],
  "receipts": [
    {
      "status": "0x1",
      "cumulativeGasUsed": "0x5e83",
      "logs": [],
      "logsBloom": "0x00000000000000000000000000000000000000000000000000000000000000000000000000000000000000000000000000000000000000000000000000000000000000000000000000000000000000000000000000000000000000000000000000000000000000000000000000000000000000000000000000000000000000000000000000000000000000000000000000000000000000000000000000000000000000000000000000000000000000000000000000000000000000000000000000000000000000000000000000000000000000000000000000000000000000000000000000000000000000000000000000000000000000000000000000000000",
      "type": "0x2",
      "transactionHash": "0x6589e988e21ad26894512ff5f47fb1761c8dcb58e8f4d7c63dc9228ac6c1057e",
      "transactionIndex": "0x1",
      "blockHash": "0x17e3fbc7c700112849851b71b1b9a65afbf5b10b5d8d43dc8868e9314b36a1ba",
      "blockNumber": "0x9634547",
      "gasUsed": "0x5e83",
      "effectiveGasPrice": "0x5f5e100",
      "from": "0xe62ab4d111f968660c6b2188046f9b9ba53c4bae",
      "to": "0xc28328b1f98076ed5111f1223c647e883f5d6e16",
      "contractAddress": null,
      "gasUsedForL1": "0x0",
      "l1BlockNumber": "0x807f82",
      "timeboosted": false
    },
    {
      "status": "0x1",
      "cumulativeGasUsed": "0xeae57",
      "logs": [
        {
          "address": "0xc28328b1f98076ed5111f1223c647e883f5d6e16",
          "topics": [
            "0x1394cfab38f3fc78ed77ea6f9318782a446d96e7dc8e9a6b0149f6be25c08bcf",
            "0x000000000000000000000000bf5356ade7e5f775659f301b07c4bc6961044b11"
          ],
          "data": "0x",
          "blockHash": "0xc1eba9c1e9c9a3cb693c133bd1ead6b49b36861e9105621f2912bfe1d3078fa6",
          "blockNumber": "0x9634552",
          "transactionHash": "0xfc182efb74053d9384c9725ad0457c126f89378344d795a307b157ed67bd4d18",
          "transactionIndex": "0xa",
          "logIndex": "0x10",
          "removed": false
        }
      ],
      "logsBloom": "0x00000000000000000000000000000000000000000000000000000000000000000000000000000000000000000000000000000000000000000000000000000000000000000000000000000000000000000000001000000000000000000040000000000000000000000000000000000000000000000000000000000000000000000000000100000000000000000000000000000000000000000000000000000000400000000000000000000000000000000000000100000000000000000000000000000000000000000000000000000040000000000000000000000000000008000000000000020000000000020000000000000000000000000000000000000000",
      "type": "0x2",
      "transactionHash": "0xfc182efb74053d9384c9725ad0457c126f89378344d795a307b157ed67bd4d18",
      "transactionIndex": "0xa",
      "blockHash": "0xc1eba9c1e9c9a3cb693c133bd1ead6b49b36861e9105621f2912bfe1d3078fa6",
      "blockNumber": "0x9634552",
      "gasUsed": "0x1bacc",
      "effectiveGasPrice": "0x5f5e100",
      "from": "0xe62ab4d111f968660c6b2188046f9b9ba53c4bae",
      "to": "0xc28328b1f98076ed5111f1223c647e883f5d6e16",
      "contractAddress": null,
      "gasUsedForL1": "0x0",
      "l1BlockNumber": "0x807f82",
      "timeboosted": false
    },
    {
      "status": "0x1",
      "cumulativeGasUsed": "0x1ab2db",
      "logs": [],
      "logsBloom": "0x00000000000000000000000000000000000000000000000000000000000000000000000000000000000000000000000000000000000000000000000000000000000000000000000000000000000000000000000000000000000000000000000000000000000000000000000000000000000000000000000000000000000000000000000000000000000000000000000000000000000000000000000000000000000000000000000000000000000000000000000000000000000000000000000000000000000000000000000000000000000000000000000000000000000000000000000000000000000000000000000000000000000000000000000000000000",
      "type": "0x2",
      "transactionHash": "0x54bbde48ff1329e8602fc727f09e62750fe8a1a87a312d0c06a38cd071b4be9b",
      "transactionIndex": "0x9",
      "blockHash": "0x2fb581241c3b4c8910854e794f4a978cae9f070f2d8c029017623ed6d2e0d2d7",
      "blockNumber": "0x963455d",
      "gasUsed": "0xbbd9",
      "effectiveGasPrice": "0x5f5e100",
      "from": "0xe62ab4d111f968660c6b2188046f9b9ba53c4bae",
      "to": "0xc28328b1f98076ed5111f1223c647e883f5d6e16",
      "contractAddress": null,
      "gasUsedForL1": "0x0",
      "l1BlockNumber": "0x807f82",
      "timeboosted": false
    },
    {
      "status": "0x1",
      "cumulativeGasUsed": "0x6b7ad",
      "logs": [],
      "logsBloom": "0x00000000000000000000000000000000000000000000000000000000000000000000000000000000000000000000000000000000000000000000000000000000000000000000000000000000000000000000000000000000000000000000000000000000000000000000000000000000000000000000000000000000000000000000000000000000000000000000000000000000000000000000000000000000000000000000000000000000000000000000000000000000000000000000000000000000000000000000000000000000000000000000000000000000000000000000000000000000000000000000000000000000000000000000000000000000",
      "type": "0x2",
      "transactionHash": "0x84183075b820f737877e9512dbf13f0767994e2adb5495a82f0e25226298216c",
      "transactionIndex": "0x8",
      "blockHash": "0x5290ced2dcfe887aac5ed4ad08d11531c9b7dc4d87fc11c4c1faf67bc2f8f772",
      "blockNumber": "0x9634568",
      "gasUsed": "0xbbfc",
      "effectiveGasPrice": "0x5f5e100",
      "from": "0xe62ab4d111f968660c6b2188046f9b9ba53c4bae",
      "to": "0xc28328b1f98076ed5111f1223c647e883f5d6e16",
      "contractAddress": null,
      "gasUsedForL1": "0x0",
      "l1BlockNumber": "0x807f82",
      "timeboosted": false
    },
    {
      "status": "0x1",
      "cumulativeGasUsed": "0x1781eb",
      "logs": [],
      "logsBloom": "0x00000000000000000000000000000000000000000000000000000000000000000000000000000000000000000000000000000000000000000000000000000000000000000000000000000000000000000000000000000000000000000000000000000000000000000000000000000000000000000000000000000000000000000000000000000000000000000000000000000000000000000000000000000000000000000000000000000000000000000000000000000000000000000000000000000000000000000000000000000000000000000000000000000000000000000000000000000000000000000000000000000000000000000000000000000000",
      "type": "0x2",
      "transactionHash": "0x97d414444849dc589372be07d9eb6ec21ec865dfa3be7a292659c0963f8c28d2",
      "transactionIndex": "0xb",
      "blockHash": "0x2d9dcd30e1159584328bf295eebf3e1e18d7f28909497d4178df9ec6f6150e5b",
      "blockNumber": "0x9634573",
      "gasUsed": "0xbc13",
      "effectiveGasPrice": "0x5f5e100",
      "from": "0xe62ab4d111f968660c6b2188046f9b9ba53c4bae",
      "to": "0xc28328b1f98076ed5111f1223c647e883f5d6e16",
      "contractAddress": null,
      "gasUsedForL1": "0x0",
      "l1BlockNumber": "0x807f83",
      "timeboosted": false
    },
    {
      "status": "0x1",
      "cumulativeGasUsed": "0x5bb28",
      "logs": [],
      "logsBloom": "0x00000000000000000000000000000000000000000000000000000000000000000000000000000000000000000000000000000000000000000000000000000000000000000000000000000000000000000000000000000000000000000000000000000000000000000000000000000000000000000000000000000000000000000000000000000000000000000000000000000000000000000000000000000000000000000000000000000000000000000000000000000000000000000000000000000000000000000000000000000000000000000000000000000000000000000000000000000000000000000000000000000000000000000000000000000000",
      "type": "0x2",
      "transactionHash": "0xdbef697e405d6888c8234e9ea1e3c6cd2d7937c7242f5804421d7496f62fed55",
      "transactionIndex": "0x8",
      "blockHash": "0xf8c65d0ad93a1fcfe5b511432ea398e4a623d60d52ffe28a037ae38f37415187",
      "blockNumber": "0x963457e",
      "gasUsed": "0xbc2a",
      "effectiveGasPrice": "0x5f5e100",
      "from": "0xe62ab4d111f968660c6b2188046f9b9ba53c4bae",
      "to": "0xc28328b1f98076ed5111f1223c647e883f5d6e16",
      "contractAddress": null,
      "gasUsedForL1": "0x0",
      "l1BlockNumber": "0x807f83",
      "timeboosted": false
    },
    {
      "status": "0x1",
      "cumulativeGasUsed": "0xa28b5",
      "logs": [],
      "logsBloom": "0x00000000000000000000000000000000000000000000000000000000000000000000000000000000000000000000000000000000000000000000000000000000000000000000000000000000000000000000000000000000000000000000000000000000000000000000000000000000000000000000000000000000000000000000000000000000000000000000000000000000000000000000000000000000000000000000000000000000000000000000000000000000000000000000000000000000000000000000000000000000000000000000000000000000000000000000000000000000000000000000000000000000000000000000000000000000",
      "type": "0x2",
      "transactionHash": "0x8bbfe1813c8b481ec070bc2b412dc804c6d17f9836826b62745fef4b4d050602",
      "transactionIndex": "0x9",
      "blockHash": "0x92ff9488629563f74997d2fef16158928c740fbee244a99b64ab293f461c097e",
      "blockNumber": "0x9634589",
      "gasUsed": "0xbc41",
      "effectiveGasPrice": "0x5f5e100",
      "from": "0xe62ab4d111f968660c6b2188046f9b9ba53c4bae",
      "to": "0xc28328b1f98076ed5111f1223c647e883f5d6e16",
      "contractAddress": null,
      "gasUsedForL1": "0x0",
      "l1BlockNumber": "0x807f83",
      "timeboosted": false
    },
    {
      "status": "0x1",
      "cumulativeGasUsed": "0x9ef87",
      "logs": [],
      "logsBloom": "0x00000000000000000000000000000000000000000000000000000000000000000000000000000000000000000000000000000000000000000000000000000000000000000000000000000000000000000000000000000000000000000000000000000000000000000000000000000000000000000000000000000000000000000000000000000000000000000000000000000000000000000000000000000000000000000000000000000000000000000000000000000000000000000000000000000000000000000000000000000000000000000000000000000000000000000000000000000000000000000000000000000000000000000000000000000000",
      "type": "0x2",
      "transactionHash": "0x13079cad801b2fdeb824bdb800faa7f3e091fbdc8a756b6e8ce7faee70e2f9ad",
      "transactionIndex": "0xd",
      "blockHash": "0x5b0a17e9e5e3717e94cb0e1a437e265f6bc2f55b4135971b9b2319ed5a4abca3",
      "blockNumber": "0x9634594",
      "gasUsed": "0xbc58",
      "effectiveGasPrice": "0x5f5e100",
      "from": "0xe62ab4d111f968660c6b2188046f9b9ba53c4bae",
      "to": "0xc28328b1f98076ed5111f1223c647e883f5d6e16",
      "contractAddress": null,
      "gasUsedForL1": "0x0",
      "l1BlockNumber": "0x807f83",
      "timeboosted": false
    },
    {
      "status": "0x1",
      "cumulativeGasUsed": "0x84782",
      "logs": [],
      "logsBloom": "0x00000000000000000000000000000000000000000000000000000000000000000000000000000000000000000000000000000000000000000000000000000000000000000000000000000000000000000000000000000000000000000000000000000000000000000000000000000000000000000000000000000000000000000000000000000000000000000000000000000000000000000000000000000000000000000000000000000000000000000000000000000000000000000000000000000000000000000000000000000000000000000000000000000000000000000000000000000000000000000000000000000000000000000000000000000000",
      "type": "0x2",
      "transactionHash": "0x66aeaf256e62bcf82d3598b540bc2b18dada84eac203d8b454ebd49d994acd54",
      "transactionIndex": "0x9",
      "blockHash": "0xe2fbc964d7a9d16c0038a80c9240b24809c8938c84f8cc63f2c065834113fdd8",
      "blockNumber": "0x963459f",
      "gasUsed": "0xbc6f",
      "effectiveGasPrice": "0x5f5e100",
      "from": "0xe62ab4d111f968660c6b2188046f9b9ba53c4bae",
      "to": "0xc28328b1f98076ed5111f1223c647e883f5d6e16",
      "contractAddress": null,
      "gasUsedForL1": "0x0",
      "l1BlockNumber": "0x807f83",
      "timeboosted": false
    },
    {
      "status": "0x1",
      "cumulativeGasUsed": "0x9539b",
      "logs": [],
      "logsBloom": "0x00000000000000000000000000000000000000000000000000000000000000000000000000000000000000000000000000000000000000000000000000000000000000000000000000000000000000000000000000000000000000000000000000000000000000000000000000000000000000000000000000000000000000000000000000000000000000000000000000000000000000000000000000000000000000000000000000000000000000000000000000000000000000000000000000000000000000000000000000000000000000000000000000000000000000000000000000000000000000000000000000000000000000000000000000000000",
      "type": "0x2",
      "transactionHash": "0xa5c434f6f885498a311a08c220dc8e3beda3cf8546035be075c8d3eb36101460",
      "transactionIndex": "0xa",
      "blockHash": "0x69cb28b6aa1fa49bd341058432499f50ed93a2122946f9571e170fcadecf9ca7",
      "blockNumber": "0x96345aa",
      "gasUsed": "0xbc86",
      "effectiveGasPrice": "0x5f5e100",
      "from": "0xe62ab4d111f968660c6b2188046f9b9ba53c4bae",
      "to": "0xc28328b1f98076ed5111f1223c647e883f5d6e16",
      "contractAddress": null,
      "gasUsedForL1": "0x0",
      "l1BlockNumber": "0x807f83",
      "timeboosted": false
    },
    {
      "status": "0x1",
      "cumulativeGasUsed": "0x4c8f7",
      "logs": [],
      "logsBloom": "0x00000000000000000000000000000000000000000000000000000000000000000000000000000000000000000000000000000000000000000000000000000000000000000000000000000000000000000000000000000000000000000000000000000000000000000000000000000000000000000000000000000000000000000000000000000000000000000000000000000000000000000000000000000000000000000000000000000000000000000000000000000000000000000000000000000000000000000000000000000000000000000000000000000000000000000000000000000000000000000000000000000000000000000000000000000000",
      "type": "0x2",
      "transactionHash": "0x25b1d35ea5731e11d912f9e0caa260d85d8af80cfc16465908ccd4ea8ff3c964",
      "transactionIndex": "0x5",
      "blockHash": "0xebf5ef18f1d20fe9f1ce3ead37a86ee55a131573be332d69bbb66a5ab6a70b97",
      "blockNumber": "0x96345b6",
      "gasUsed": "0xbc9d",
      "effectiveGasPrice": "0x5f5e100",
      "from": "0xe62ab4d111f968660c6b2188046f9b9ba53c4bae",
      "to": "0xc28328b1f98076ed5111f1223c647e883f5d6e16",
      "contractAddress": null,
      "gasUsedForL1": "0x0",
      "l1BlockNumber": "0x807f84",
      "timeboosted": false
    },
    {
      "status": "0x1",
      "cumulativeGasUsed": "0x653d3",
      "logs": [],
      "logsBloom": "0x00000000000000000000000000000000000000000000000000000000000000000000000000000000000000000000000000000000000000000000000000000000000000000000000000000000000000000000000000000000000000000000000000000000000000000000000000000000000000000000000000000000000000000000000000000000000000000000000000000000000000000000000000000000000000000000000000000000000000000000000000000000000000000000000000000000000000000000000000000000000000000000000000000000000000000000000000000000000000000000000000000000000000000000000000000000",
      "type": "0x2",
      "transactionHash": "0x3d20eb610c2dee80c1790994be8d6140c621bbe27a682ae18dab135e25758888",
      "transactionIndex": "0x9",
      "blockHash": "0x0919e67b08da6a6e046ba525038b0b874d1fe097cf50d3a52e2f7a742963560e",
      "blockNumber": "0x96345c1",
      "gasUsed": "0xbcb4",
      "effectiveGasPrice": "0x5f5e100",
      "from": "0xe62ab4d111f968660c6b2188046f9b9ba53c4bae",
      "to": "0xc28328b1f98076ed5111f1223c647e883f5d6e16",
      "contractAddress": null,
      "gasUsedForL1": "0x0",
      "l1BlockNumber": "0x807f84",
      "timeboosted": false
    },
    {
      "status": "0x1",
      "cumulativeGasUsed": "0x33126",
      "logs": [],
      "logsBloom": "0x00000000000000000000000000000000000000000000000000000000000000000000000000000000000000000000000000000000000000000000000000000000000000000000000000000000000000000000000000000000000000000000000000000000000000000000000000000000000000000000000000000000000000000000000000000000000000000000000000000000000000000000000000000000000000000000000000000000000000000000000000000000000000000000000000000000000000000000000000000000000000000000000000000000000000000000000000000000000000000000000000000000000000000000000000000000",
      "type": "0x2",
      "transactionHash": "0xfad0e7ea5082c17db1a76e311a7bdf43eadc72751cdb3f6524b5510f7bbc4ed2",
      "transactionIndex": "0x3",
      "blockHash": "0x54caa35d4643f40a050be83d862c37e9a515fe1a04f23b873e5349cbd1a0f769",
      "blockNumber": "0x96345cb",
      "gasUsed": "0xbccb",
      "effectiveGasPrice": "0x5f5e100",
      "from": "0xe62ab4d111f968660c6b2188046f9b9ba53c4bae",
      "to": "0xc28328b1f98076ed5111f1223c647e883f5d6e16",
      "contractAddress": null,
      "gasUsedForL1": "0x0",
      "l1BlockNumber": "0x807f84",
      "timeboosted": false
    },
    {
      "status": "0x1",
      "cumulativeGasUsed": "0x22a4a",
      "logs": [],
      "logsBloom": "0x00000000000000000000000000000000000000000000000000000000000000000000000000000000000000000000000000000000000000000000000000000000000000000000000000000000000000000000000000000000000000000000000000000000000000000000000000000000000000000000000000000000000000000000000000000000000000000000000000000000000000000000000000000000000000000000000000000000000000000000000000000000000000000000000000000000000000000000000000000000000000000000000000000000000000000000000000000000000000000000000000000000000000000000000000000000",
      "type": "0x2",
      "transactionHash": "0xf7613e438818f0a896529760b2b8df45ee4e92b68b355c5652844810ae16ad15",
      "transactionIndex": "0x3",
      "blockHash": "0x9127f91e37427dcba026c46fda9d8bce41ddfa426909d5117ebbd325aaab6d34",
      "blockNumber": "0x96345d7",
      "gasUsed": "0xbce2",
      "effectiveGasPrice": "0x5f5e100",
      "from": "0xe62ab4d111f968660c6b2188046f9b9ba53c4bae",
      "to": "0xc28328b1f98076ed5111f1223c647e883f5d6e16",
      "contractAddress": null,
      "gasUsedForL1": "0x0",
      "l1BlockNumber": "0x807f84",
      "timeboosted": false
    },
    {
      "status": "0x1",
      "cumulativeGasUsed": "0x50561",
      "logs": [],
      "logsBloom": "0x00000000000000000000000000000000000000000000000000000000000000000000000000000000000000000000000000000000000000000000000000000000000000000000000000000000000000000000000000000000000000000000000000000000000000000000000000000000000000000000000000000000000000000000000000000000000000000000000000000000000000000000000000000000000000000000000000000000000000000000000000000000000000000000000000000000000000000000000000000000000000000000000000000000000000000000000000000000000000000000000000000000000000000000000000000000",
      "type": "0x2",
      "transactionHash": "0x4b6412b15d4ff8c117188d37d68265c9902857b88785fa47adef8989984cbf7e",
      "transactionIndex": "0x7",
      "blockHash": "0x2708f58af6016b8928110b356e4552d38301cb2a9a8fe0148ef4a8206c759e5c",
      "blockNumber": "0x96345e2",
      "gasUsed": "0xbcf9",
      "effectiveGasPrice": "0x5f5e100",
      "from": "0xe62ab4d111f968660c6b2188046f9b9ba53c4bae",
      "to": "0xc28328b1f98076ed5111f1223c647e883f5d6e16",
      "contractAddress": null,
      "gasUsedForL1": "0x0",
      "l1BlockNumber": "0x807f84",
      "timeboosted": false
    },
    {
      "status": "0x1",
      "cumulativeGasUsed": "0x7b941",
      "logs": [],
      "logsBloom": "0x00000000000000000000000000000000000000000000000000000000000000000000000000000000000000000000000000000000000000000000000000000000000000000000000000000000000000000000000000000000000000000000000000000000000000000000000000000000000000000000000000000000000000000000000000000000000000000000000000000000000000000000000000000000000000000000000000000000000000000000000000000000000000000000000000000000000000000000000000000000000000000000000000000000000000000000000000000000000000000000000000000000000000000000000000000000",
      "type": "0x2",
      "transactionHash": "0x71573b1e85abbe88637d3ec6dc9ae11fd383d7322a48a9ccfa08ab1cdbb29b18",
      "transactionIndex": "0x7",
      "blockHash": "0x42db2a22b9d59f35399615517cfb44b62957ec646e0a0a175b552a4b31e1c5f4",
      "blockNumber": "0x96345ed",
      "gasUsed": "0xbd10",
      "effectiveGasPrice": "0x5f5e100",
      "from": "0xe62ab4d111f968660c6b2188046f9b9ba53c4bae",
      "to": "0xc28328b1f98076ed5111f1223c647e883f5d6e16",
      "contractAddress": null,
      "gasUsedForL1": "0x0",
      "l1BlockNumber": "0x807f86",
      "timeboosted": false
    },
    {
      "status": "0x1",
      "cumulativeGasUsed": "0x13912a",
      "logs": [],
      "logsBloom": "0x00000000000000000000000000000000000000000000000000000000000000000000000000000000000000000000000000000000000000000000000000000000000000000000000000000000000000000000000000000000000000000000000000000000000000000000000000000000000000000000000000000000000000000000000000000000000000000000000000000000000000000000000000000000000000000000000000000000000000000000000000000000000000000000000000000000000000000000000000000000000000000000000000000000000000000000000000000000000000000000000000000000000000000000000000000000",
      "type": "0x2",
      "transactionHash": "0x33c11c22422f6b70ca2b11474f8aff608c515a43b682be5db2d5395c877f7571",
      "transactionIndex": "0xb",
      "blockHash": "0xc0a6717145924cc09f8a8bfc0ecf2c2eed98e32d588648b85ed4120c3fab212c",
      "blockNumber": "0x96345f8",
      "gasUsed": "0xbd27",
      "effectiveGasPrice": "0x5f5e100",
      "from": "0xe62ab4d111f968660c6b2188046f9b9ba53c4bae",
      "to": "0xc28328b1f98076ed5111f1223c647e883f5d6e16",
      "contractAddress": null,
      "gasUsedForL1": "0x0",
      "l1BlockNumber": "0x807f86",
      "timeboosted": false
    },
    {
      "status": "0x1",
      "cumulativeGasUsed": "0x173ec",
      "logs": [],
      "logsBloom": "0x00000000000000000000000000000000000000000000000000000000000000000000000000000000000000000000000000000000000000000000000000000000000000000000000000000000000000000000000000000000000000000000000000000000000000000000000000000000000000000000000000000000000000000000000000000000000000000000000000000000000000000000000000000000000000000000000000000000000000000000000000000000000000000000000000000000000000000000000000000000000000000000000000000000000000000000000000000000000000000000000000000000000000000000000000000000",
      "type": "0x2",
      "transactionHash": "0x91a9caf98f760737f23703a8b6dcf62faf21117a14230d2bebc94d7ccf56837f",
      "transactionIndex": "0x2",
      "blockHash": "0xe1899ec03a42547841b1499e310c3319be0e06b9364c0f1e747da8a862998f4a",
      "blockNumber": "0x9634604",
      "gasUsed": "0xbd3e",
      "effectiveGasPrice": "0x5f5e100",
      "from": "0xe62ab4d111f968660c6b2188046f9b9ba53c4bae",
      "to": "0xc28328b1f98076ed5111f1223c647e883f5d6e16",
      "contractAddress": null,
      "gasUsedForL1": "0x0",
      "l1BlockNumber": "0x807f86",
      "timeboosted": false
    },
    {
      "status": "0x1",
      "cumulativeGasUsed": "0x44f0f",
      "logs": [],
      "logsBloom": "0x00000000000000000000000000000000000000000000000000000000000000000000000000000000000000000000000000000000000000000000000000000000000000000000000000000000000000000000000000000000000000000000000000000000000000000000000000000000000000000000000000000000000000000000000000000000000000000000000000000000000000000000000000000000000000000000000000000000000000000000000000000000000000000000000000000000000000000000000000000000000000000000000000000000000000000000000000000000000000000000000000000000000000000000000000000000",
      "type": "0x2",
      "transactionHash": "0x0446549d7ee6d90451594adc358c2e5edb7806962eb101e9f02f59a127dc0706",
      "transactionIndex": "0x6",
      "blockHash": "0xda94d6edb9a6ccb2512bdbcf38dbe2f1c1c709a909818336f50149cbb2123a1c",
      "blockNumber": "0x963460f",
      "gasUsed": "0xbd55",
      "effectiveGasPrice": "0x5f5e100",
      "from": "0xe62ab4d111f968660c6b2188046f9b9ba53c4bae",
      "to": "0xc28328b1f98076ed5111f1223c647e883f5d6e16",
      "contractAddress": null,
      "gasUsedForL1": "0x0",
      "l1BlockNumber": "0x807f86",
      "timeboosted": false
    },
    {
      "status": "0x1",
      "cumulativeGasUsed": "0x69d86",
      "logs": [],
      "logsBloom": "0x00000000000000000000000000000000000000000000000000000000000000000000000000000000000000000000000000000000000000000000000000000000000000000000000000000000000000000000000000000000000000000000000000000000000000000000000000000000000000000000000000000000000000000000000000000000000000000000000000000000000000000000000000000000000000000000000000000000000000000000000000000000000000000000000000000000000000000000000000000000000000000000000000000000000000000000000000000000000000000000000000000000000000000000000000000000",
      "type": "0x2",
      "transactionHash": "0x534b1674afb1486660db94c1e87360064701835738200471b01f4ac17abd8640",
      "transactionIndex": "0x8",
      "blockHash": "0xdb32ae0a5853f0757f6d5fd930c4b598626abd9e3a5f7d321d190ab203bef5f6",
      "blockNumber": "0x963461a",
      "gasUsed": "0xbd6c",
      "effectiveGasPrice": "0x5f5e100",
      "from": "0xe62ab4d111f968660c6b2188046f9b9ba53c4bae",
      "to": "0xc28328b1f98076ed5111f1223c647e883f5d6e16",
      "contractAddress": null,
      "gasUsedForL1": "0x0",
      "l1BlockNumber": "0x807f86",
      "timeboosted": false
    },
    {
      "status": "0x1",
      "cumulativeGasUsed": "0x555b4",
      "logs": [],
      "logsBloom": "0x00000000000000000000000000000000000000000000000000000000000000000000000000000000000000000000000000000000000000000000000000000000000000000000000000000000000000000000000000000000000000000000000000000000000000000000000000000000000000000000000000000000000000000000000000000000000000000000000000000000000000000000000000000000000000000000000000000000000000000000000000000000000000000000000000000000000000000000000000000000000000000000000000000000000000000000000000000000000000000000000000000000000000000000000000000000",
      "type": "0x2",
      "transactionHash": "0x7acc2594945d7d0a972fa9e390e7697e78492e69930007f84604f35c34573595",
      "transactionIndex": "0x6",
      "blockHash": "0xc9ae26d9c3473a79f9a5f232f2845dd584f658149000049fab58399a6b6fa252",
      "blockNumber": "0x9634626",
      "gasUsed": "0xbd83",
      "effectiveGasPrice": "0x5f5e100",
      "from": "0xe62ab4d111f968660c6b2188046f9b9ba53c4bae",
      "to": "0xc28328b1f98076ed5111f1223c647e883f5d6e16",
      "contractAddress": null,
      "gasUsedForL1": "0x0",
      "l1BlockNumber": "0x807f87",
      "timeboosted": false
    },
    {
      "status": "0x1",
      "cumulativeGasUsed": "0x73fde",
      "logs": [],
      "logsBloom": "0x00000000000000000000000000000000000000000000000000000000000000000000000000000000000000000000000000000000000000000000000000000000000000000000000000000000000000000000000000000000000000000000000000000000000000000000000000000000000000000000000000000000000000000000000000000000000000000000000000000000000000000000000000000000000000000000000000000000000000000000000000000000000000000000000000000000000000000000000000000000000000000000000000000000000000000000000000000000000000000000000000000000000000000000000000000000",
      "type": "0x2",
      "transactionHash": "0x3c8f69370072f0abc050e380d103a7c8efcf6df42dca834c4042d70d9def7c93",
      "transactionIndex": "0x8",
      "blockHash": "0x53f4ab04d96fdcdfe84946bd6965b6f4c41912c2109f258994d80101cf481e9f",
      "blockNumber": "0x9634631",
      "gasUsed": "0xbd9a",
      "effectiveGasPrice": "0x5f5e100",
      "from": "0xe62ab4d111f968660c6b2188046f9b9ba53c4bae",
      "to": "0xc28328b1f98076ed5111f1223c647e883f5d6e16",
      "contractAddress": null,
      "gasUsedForL1": "0x0",
      "l1BlockNumber": "0x807f87",
      "timeboosted": false
    },
    {
      "status": "0x1",
      "cumulativeGasUsed": "0x63b6a",
      "logs": [],
      "logsBloom": "0x00000000000000000000000000000000000000000000000000000000000000000000000000000000000000000000000000000000000000000000000000000000000000000000000000000000000000000000000000000000000000000000000000000000000000000000000000000000000000000000000000000000000000000000000000000000000000000000000000000000000000000000000000000000000000000000000000000000000000000000000000000000000000000000000000000000000000000000000000000000000000000000000000000000000000000000000000000000000000000000000000000000000000000000000000000000",
      "type": "0x2",
      "transactionHash": "0x1c975edce7bdfbf2c48421d05627c6b497c78da3aa5279d49fef717c3c4bf356",
      "transactionIndex": "0x6",
      "blockHash": "0x9c4b5869cfb79aa91e2b899b06272ff57b124ec6f9aca9f54b4055ea703c68a8",
      "blockNumber": "0x963463c",
      "gasUsed": "0xbdb1",
      "effectiveGasPrice": "0x5f5e100",
      "from": "0xe62ab4d111f968660c6b2188046f9b9ba53c4bae",
      "to": "0xc28328b1f98076ed5111f1223c647e883f5d6e16",
      "contractAddress": null,
      "gasUsedForL1": "0x0",
      "l1BlockNumber": "0x807f87",
      "timeboosted": false
    },
    {
      "status": "0x1",
      "cumulativeGasUsed": "0xbdc8",
      "logs": [],
      "logsBloom": "0x00000000000000000000000000000000000000000000000000000000000000000000000000000000000000000000000000000000000000000000000000000000000000000000000000000000000000000000000000000000000000000000000000000000000000000000000000000000000000000000000000000000000000000000000000000000000000000000000000000000000000000000000000000000000000000000000000000000000000000000000000000000000000000000000000000000000000000000000000000000000000000000000000000000000000000000000000000000000000000000000000000000000000000000000000000000",
      "type": "0x2",
      "transactionHash": "0xcbe29c2d92fbbbabc8a814a8b6bb2d0f344f2ae4ce41c909d43bce85d46c508f",
      "transactionIndex": "0x1",
      "blockHash": "0x7ecea93e9edffa8a5e44092d9b9590b802df53c5bbcefa2f2a8fc743620573ab",
      "blockNumber": "0x9634648",
      "gasUsed": "0xbdc8",
      "effectiveGasPrice": "0x5f5e100",
      "from": "0xe62ab4d111f968660c6b2188046f9b9ba53c4bae",
      "to": "0xc28328b1f98076ed5111f1223c647e883f5d6e16",
      "contractAddress": null,
      "gasUsedForL1": "0x0",
      "l1BlockNumber": "0x807f87",
      "timeboosted": false
    },
    {
      "status": "0x1",
      "cumulativeGasUsed": "0xec52a",
      "logs": [],
      "logsBloom": "0x00000000000000000000000000000000000000000000000000000000000000000000000000000000000000000000000000000000000000000000000000000000000000000000000000000000000000000000000000000000000000000000000000000000000000000000000000000000000000000000000000000000000000000000000000000000000000000000000000000000000000000000000000000000000000000000000000000000000000000000000000000000000000000000000000000000000000000000000000000000000000000000000000000000000000000000000000000000000000000000000000000000000000000000000000000000",
      "type": "0x2",
      "transactionHash": "0x42ca39687500f127d8671be9733a4ccec4b4b4c2205dcba61dedb53d3096b949",
      "transactionIndex": "0xa",
      "blockHash": "0xcaddae12fb8aa98c1403c9ea2505c62b6f3ab399a85280f34af685d2bee04460",
      "blockNumber": "0x9634653",
      "gasUsed": "0xbddf",
      "effectiveGasPrice": "0x5f5e100",
      "from": "0xe62ab4d111f968660c6b2188046f9b9ba53c4bae",
      "to": "0xc28328b1f98076ed5111f1223c647e883f5d6e16",
      "contractAddress": null,
      "gasUsedForL1": "0x0",
      "l1BlockNumber": "0x807f87",
      "timeboosted": false
    },
    {
      "status": "0x1",
      "cumulativeGasUsed": "0xbdf6",
      "logs": [],
      "logsBloom": "0x00000000000000000000000000000000000000000000000000000000000000000000000000000000000000000000000000000000000000000000000000000000000000000000000000000000000000000000000000000000000000000000000000000000000000000000000000000000000000000000000000000000000000000000000000000000000000000000000000000000000000000000000000000000000000000000000000000000000000000000000000000000000000000000000000000000000000000000000000000000000000000000000000000000000000000000000000000000000000000000000000000000000000000000000000000000",
      "type": "0x2",
      "transactionHash": "0x6f9b876c58c581a4bc3252980954d71d58686902c570f016454dd364e8716e17",
      "transactionIndex": "0x1",
      "blockHash": "0x611004a47542182cad29864067b8f9c925a394240c40820e66b1d40b63dbb849",
      "blockNumber": "0x963465f",
      "gasUsed": "0xbdf6",
      "effectiveGasPrice": "0x5f5e100",
      "from": "0xe62ab4d111f968660c6b2188046f9b9ba53c4bae",
      "to": "0xc28328b1f98076ed5111f1223c647e883f5d6e16",
      "contractAddress": null,
      "gasUsedForL1": "0x0",
      "l1BlockNumber": "0x807f87",
      "timeboosted": false
    },
    {
      "status": "0x1",
      "cumulativeGasUsed": "0x4985d",
      "logs": [],
      "logsBloom": "0x00000000000000000000000000000000000000000000000000000000000000000000000000000000000000000000000000000000000000000000000000000000000000000000000000000000000000000000000000000000000000000000000000000000000000000000000000000000000000000000000000000000000000000000000000000000000000000000000000000000000000000000000000000000000000000000000000000000000000000000000000000000000000000000000000000000000000000000000000000000000000000000000000000000000000000000000000000000000000000000000000000000000000000000000000000000",
      "type": "0x2",
      "transactionHash": "0xa57af3e0d3cf8c7ebe02e649acf138f062db366fa6ab36c1dfeb054b5b193c53",
      "transactionIndex": "0x3",
      "blockHash": "0xba4fa5411317b74568581ccbe3f53049bd0665fed2e52b5b1213c078220b388d",
      "blockNumber": "0x963466b",
      "gasUsed": "0x21b88",
      "effectiveGasPrice": "0x5f5e100",
      "from": "0xe62ab4d111f968660c6b2188046f9b9ba53c4bae",
      "to": "0xc28328b1f98076ed5111f1223c647e883f5d6e16",
      "contractAddress": null,
      "gasUsedForL1": "0x0",
      "l1BlockNumber": "0x807f88",
      "timeboosted": false
    },
    {
      "status": "0x1",
      "cumulativeGasUsed": "0x6de12",
      "logs": [],
      "logsBloom": "0x00000000000000000000000000000000000000000000000000000000000000000000000000000000000000000000000000000000000000000000000000000000000000000000000000000000000000000000000000000000000000000000000000000000000000000000000000000000000000000000000000000000000000000000000000000000000000000000000000000000000000000000000000000000000000000000000000000000000000000000000000000000000000000000000000000000000000000000000000000000000000000000000000000000000000000000000000000000000000000000000000000000000000000000000000000000",
      "type": "0x2",
      "transactionHash": "0x19673b47df698688d2bb2d19895aa1e872cb0acca1fda8b03f246c99f3594918",
      "transactionIndex": "0x8",
      "blockHash": "0x99492fc2fc41c9af9e2e2613dd5845592f6f9fbf9a0c08916d5785200705fea8",
      "blockNumber": "0x9634676",
      "gasUsed": "0x1df14",
      "effectiveGasPrice": "0x5f5e100",
      "from": "0xe62ab4d111f968660c6b2188046f9b9ba53c4bae",
      "to": "0xc28328b1f98076ed5111f1223c647e883f5d6e16",
      "contractAddress": null,
      "gasUsedForL1": "0x0",
      "l1BlockNumber": "0x807f88",
      "timeboosted": false
    },
    {
      "status": "0x1",
      "cumulativeGasUsed": "0x9bf16",
      "logs": [],
      "logsBloom": "0x00000000000000000000000000000000000000000000000000000000000000000000000000000000000000000000000000000000000000000000000000000000000000000000000000000000000000000000000000000000000000000000000000000000000000000000000000000000000000000000000000000000000000000000000000000000000000000000000000000000000000000000000000000000000000000000000000000000000000000000000000000000000000000000000000000000000000000000000000000000000000000000000000000000000000000000000000000000000000000000000000000000000000000000000000000000",
      "type": "0x2",
      "transactionHash": "0x156f61b35a49e5f3ba8a7e9cd14d1508850d36cc9ad9c0cb43a8e730e871ea3a",
      "transactionIndex": "0x6",
      "blockHash": "0xa3260527207a97c45a1a3443902a0480032a1a6d472ac7bf611ed2edd0b9793e",
      "blockNumber": "0x9634681",
      "gasUsed": "0x1df14",
      "effectiveGasPrice": "0x5f5e100",
      "from": "0xe62ab4d111f968660c6b2188046f9b9ba53c4bae",
      "to": "0xc28328b1f98076ed5111f1223c647e883f5d6e16",
      "contractAddress": null,
      "gasUsedForL1": "0x0",
      "l1BlockNumber": "0x807f88",
      "timeboosted": false
    },
    {
      "status": "0x1",
      "cumulativeGasUsed": "0xac4a3",
      "logs": [],
      "logsBloom": "0x00000000000000000000000000000000000000000000000000000000000000000000000000000000000000000000000000000000000000000000000000000000000000000000000000000000000000000000000000000000000000000000000000000000000000000000000000000000000000000000000000000000000000000000000000000000000000000000000000000000000000000000000000000000000000000000000000000000000000000000000000000000000000000000000000000000000000000000000000000000000000000000000000000000000000000000000000000000000000000000000000000000000000000000000000000000",
      "type": "0x2",
      "transactionHash": "0xfa76b38c84353dcdc2fabcc65636a310558f88157235b48b70ef643b83fc01d8",
      "transactionIndex": "0xc",
      "blockHash": "0x60af95e4f8fc9e0cc62359547c7b936491e89853b63e72858aecf6fda54b0188",
      "blockNumber": "0x963468c",
      "gasUsed": "0x1e37c",
      "effectiveGasPrice": "0x5f5e100",
      "from": "0xe62ab4d111f968660c6b2188046f9b9ba53c4bae",
      "to": "0xc28328b1f98076ed5111f1223c647e883f5d6e16",
      "contractAddress": null,
      "gasUsedForL1": "0x0",
      "l1BlockNumber": "0x807f88",
      "timeboosted": false
    },
    {
      "status": "0x1",
      "cumulativeGasUsed": "0xe5f4c",
      "logs": [],
      "logsBloom": "0x00000000000000000000000000000000000000000000000000000000000000000000000000000000000000000000000000000000000000000000000000000000000000000000000000000000000000000000000000000000000000000000000000000000000000000000000000000000000000000000000000000000000000000000000000000000000000000000000000000000000000000000000000000000000000000000000000000000000000000000000000000000000000000000000000000000000000000000000000000000000000000000000000000000000000000000000000000000000000000000000000000000000000000000000000000000",
      "type": "0x2",
      "transactionHash": "0xae77139805b040a459071862483207b775deca7b93ec4488f4c49be1f831701b",
      "transactionIndex": "0xd",
      "blockHash": "0x41dee0809dbe7e6e1306909401728d86fb34c8b02602db11e9135a3eb223f614",
      "blockNumber": "0x9634697",
      "gasUsed": "0x1daac",
      "effectiveGasPrice": "0x5f5e100",
      "from": "0xe62ab4d111f968660c6b2188046f9b9ba53c4bae",
      "to": "0xc28328b1f98076ed5111f1223c647e883f5d6e16",
      "contractAddress": null,
      "gasUsedForL1": "0x0",
      "l1BlockNumber": "0x807f88",
      "timeboosted": false
    },
    {
      "status": "0x1",
      "cumulativeGasUsed": "0x1e66c",
      "logs": [],
      "logsBloom": "0x00000000000000000000000000000000000000000000000000000000000000000000000000000000000000000000000000000000000000000000000000000000000000000000000000000000000000000000000000000000000000000000000000000000000000000000000000000000000000000000000000000000000000000000000000000000000000000000000000000000000000000000000000000000000000000000000000000000000000000000000000000000000000000000000000000000000000000000000000000000000000000000000000000000000000000000000000000000000000000000000000000000000000000000000000000000",
      "type": "0x2",
      "transactionHash": "0x52bb38b80c84fee3f5f8695b39a0ad7abaccd78aa27cea5b1b1675a159501225",
      "transactionIndex": "0x1",
      "blockHash": "0x9b212e99dce5b62366e5bf5bf3ba47395852e34860c38e21b9d94ab2e2275ece",
      "blockNumber": "0x96346a3",
      "gasUsed": "0x1e66c",
      "effectiveGasPrice": "0x5f5e100",
      "from": "0xe62ab4d111f968660c6b2188046f9b9ba53c4bae",
      "to": "0xc28328b1f98076ed5111f1223c647e883f5d6e16",
      "contractAddress": null,
      "gasUsedForL1": "0x0",
      "l1BlockNumber": "0x807f89",
      "timeboosted": false
    },
    {
      "status": "0x1",
      "cumulativeGasUsed": "0x120d16",
      "logs": [],
      "logsBloom": "0x00000000000000000000000000000000000000000000000000000000000000000000000000000000000000000000000000000000000000000000000000000000000000000000000000000000000000000000000000000000000000000000000000000000000000000000000000000000000000000000000000000000000000000000000000000000000000000000000000000000000000000000000000000000000000000000000000000000000000000000000000000000000000000000000000000000000000000000000000000000000000000000000000000000000000000000000000000000000000000000000000000000000000000000000000000000",
      "type": "0x2",
      "transactionHash": "0xb77d58d410d7956f5a5083486223757a487424a882085ddc05cf6cbda2f5044f",
      "transactionIndex": "0xc",
      "blockHash": "0xb769ba27653088d1ff75418d58ae6f0c3a5976fea234859f7857514a2eb20868",
      "blockNumber": "0x96346ae",
      "gasUsed": "0x1dd9c",
      "effectiveGasPrice": "0x5f5e100",
      "from": "0xe62ab4d111f968660c6b2188046f9b9ba53c4bae",
      "to": "0xc28328b1f98076ed5111f1223c647e883f5d6e16",
      "contractAddress": null,
      "gasUsedForL1": "0x0",
      "l1BlockNumber": "0x807f89",
      "timeboosted": false
    },
    {
      "status": "0x1",
      "cumulativeGasUsed": "0x11fd29",
      "logs": [],
      "logsBloom": "0x00000000000000000000000000000000000000000000000000000000000000000000000000000000000000000000000000000000000000000000000000000000000000000000000000000000000000000000000000000000000000000000000000000000000000000000000000000000000000000000000000000000000000000000000000000000000000000000000000000000000000000000000000000000000000000000000000000000000000000000000000000000000000000000000000000000000000000000000000000000000000000000000000000000000000000000000000000000000000000000000000000000000000000000000000000000",
      "type": "0x2",
      "transactionHash": "0xd00d744421b0150fa3b7496f38001eeb4f926c324791522276501d2cfa335c12",
      "transactionIndex": "0xf",
      "blockHash": "0xef242d8bdb2f9b5b7e8a3a0108eafb4ecc5a9d5c74e682cfdc5516f717f7b5a9",
      "blockNumber": "0x96346b9",
      "gasUsed": "0x1dd9c",
      "effectiveGasPrice": "0x5f5e100",
      "from": "0xe62ab4d111f968660c6b2188046f9b9ba53c4bae",
      "to": "0xc28328b1f98076ed5111f1223c647e883f5d6e16",
      "contractAddress": null,
      "gasUsedForL1": "0x0",
      "l1BlockNumber": "0x807f89",
      "timeboosted": false
    },
    {
      "status": "0x1",
      "cumulativeGasUsed": "0x7a3eb",
      "logs": [],
      "logsBloom": "0x00000000000000000000000000000000000000000000000000000000000000000000000000000000000000000000000000000000000000000000000000000000000000000000000000000000000000000000000000000000000000000000000000000000000000000000000000000000000000000000000000000000000000000000000000000000000000000000000000000000000000000000000000000000000000000000000000000000000000000000000000000000000000000000000000000000000000000000000000000000000000000000000000000000000000000000000000000000000000000000000000000000000000000000000000000000",
      "type": "0x2",
      "transactionHash": "0x926e1d802d1b934b57e5619237a56f182af0170c46e5decf985f3985228ab917",
      "transactionIndex": "0x5",
      "blockHash": "0xd900b6193a66648004c55260c5d6f0768042692a0be4033ab5f615542bc838c2",
      "blockNumber": "0x96346c5",
      "gasUsed": "0x1e08c",
      "effectiveGasPrice": "0x5f5e100",
      "from": "0xe62ab4d111f968660c6b2188046f9b9ba53c4bae",
      "to": "0xc28328b1f98076ed5111f1223c647e883f5d6e16",
      "contractAddress": null,
      "gasUsedForL1": "0x0",
      "l1BlockNumber": "0x807f89",
      "timeboosted": false
    },
    {
      "status": "0x1",
      "cumulativeGasUsed": "0xe62e5",
      "logs": [],
      "logsBloom": "0x00000000000000000000000000000000000000000000000000000000000000000000000000000000000000000000000000000000000000000000000000000000000000000000000000000000000000000000000000000000000000000000000000000000000000000000000000000000000000000000000000000000000000000000000000000000000000000000000000000000000000000000000000000000000000000000000000000000000000000000000000000000000000000000000000000000000000000000000000000000000000000000000000000000000000000000000000000000000000000000000000000000000000000000000000000000",
      "type": "0x2",
      "transactionHash": "0x77551d7f434fc79d9af4e0de96b7d1652f45d270e4152e4cd965aacc1626395d",
      "transactionIndex": "0xd",
      "blockHash": "0x6573c486323d20dba3616107b18841d7bbedfc41f0ac8c4c51848f9f2d2ac448",
      "blockNumber": "0x96346d0",
      "gasUsed": "0x1df14",
      "effectiveGasPrice": "0x5f5e100",
      "from": "0xe62ab4d111f968660c6b2188046f9b9ba53c4bae",
      "to": "0xc28328b1f98076ed5111f1223c647e883f5d6e16",
      "contractAddress": null,
      "gasUsedForL1": "0x0",
      "l1BlockNumber": "0x807f89",
      "timeboosted": false
    },
    {
      "status": "0x1",
      "cumulativeGasUsed": "0x15bb11",
      "logs": [],
      "logsBloom": "0x00000000000000000000000000000000000000000000000000000000000000000000000000000000000000000000000000000000000000000000000000000000000000000000000000000000000000000000000000000000000000000000000000000000000000000000000000000000000000000000000000000000000000000000000000000000000000000000000000000000000000000000000000000000000000000000000000000000000000000000000000000000000000000000000000000000000000000000000000000000000000000000000000000000000000000000000000000000000000000000000000000000000000000000000000000000",
      "type": "0x2",
      "transactionHash": "0x931d5451c2c27691d00ddc8d666e5ae1d7b23a801d758bf6530c5bd09cd6e30e",
      "transactionIndex": "0xb",
      "blockHash": "0xa8120d0c41ab1894d8d410de5790e23ca6928b36cb3dcb48c70daec1c7defff3",
      "blockNumber": "0x96346df",
      "gasUsed": "0x1dd9c",
      "effectiveGasPrice": "0x5f5e100",
      "from": "0xe62ab4d111f968660c6b2188046f9b9ba53c4bae",
      "to": "0xc28328b1f98076ed5111f1223c647e883f5d6e16",
      "contractAddress": null,
      "gasUsedForL1": "0x0",
      "l1BlockNumber": "0x807f8b",
      "timeboosted": false
    },
    {
      "status": "0x1",
      "cumulativeGasUsed": "0x13e99a",
      "logs": [],
      "logsBloom": "0x00000000000000000000000000000000000000000000000000000000000000000000000000000000000000000000000000000000000000000000000000000000000000000000000000000000000000000000000000000000000000000000000000000000000000000000000000000000000000000000000000000000000000000000000000000000000000000000000000000000000000000000000000000000000000000000000000000000000000000000000000000000000000000000000000000000000000000000000000000000000000000000000000000000000000000000000000000000000000000000000000000000000000000000000000000000",
      "type": "0x2",
      "transactionHash": "0x6325e8e039daceaa44df28ae310534efd3fbcc5f0123f2b04657fcacb6676c7b",
      "transactionIndex": "0xb",
      "blockHash": "0xe04f5540ac6916b17cea4976a9aaac8562894335bcb40b1b04ba4b926df7a033",
      "blockNumber": "0x96346ea",
      "gasUsed": "0x1e4f4",
      "effectiveGasPrice": "0x5f5e100",
      "from": "0xe62ab4d111f968660c6b2188046f9b9ba53c4bae",
      "to": "0xc28328b1f98076ed5111f1223c647e883f5d6e16",
      "contractAddress": null,
      "gasUsedForL1": "0x0",
      "l1BlockNumber": "0x807f8b",
      "timeboosted": false
    },
    {
      "status": "0x1",
      "cumulativeGasUsed": "0x8e624",
      "logs": [],
      "logsBloom": "0x00000000000000000000000000000000000000000000000000000000000000000000000000000000000000000000000000000000000000000000000000000000000000000000000000000000000000000000000000000000000000000000000000000000000000000000000000000000000000000000000000000000000000000000000000000000000000000000000000000000000000000000000000000000000000000000000000000000000000000000000000000000000000000000000000000000000000000000000000000000000000000000000000000000000000000000000000000000000000000000000000000000000000000000000000000000",
      "type": "0x2",
      "transactionHash": "0xc94e266c518079f42751ed3486dedb99be5f3d9b42e27832e6edff5a6519ded2",
      "transactionIndex": "0x8",
      "blockHash": "0x10897d9629c24f0011970f723f675a59fe24d204861dc6fdc4bcb283065427f0",
      "blockNumber": "0x96346f5",
      "gasUsed": "0x1dc24",
      "effectiveGasPrice": "0x5f5e100",
      "from": "0xe62ab4d111f968660c6b2188046f9b9ba53c4bae",
      "to": "0xc28328b1f98076ed5111f1223c647e883f5d6e16",
      "contractAddress": null,
      "gasUsedForL1": "0x0",
      "l1BlockNumber": "0x807f8b",
      "timeboosted": false
    },
    {
      "status": "0x1",
      "cumulativeGasUsed": "0x9af48",
      "logs": [],
      "logsBloom": "0x00000000000000000000000000000000000000000000000000000000000000000000000000000000000000000000000000000000000000000000000000000000000000000000000000000000000000000000000000000000000000000000000000000000000000000000000000000000000000000000000000000000000000000000000000000000000000000000000000000000000000000000000000000000000000000000000000000000000000000000000000000000000000000000000000000000000000000000000000000000000000000000000000000000000000000000000000000000000000000000000000000000000000000000000000000000",
      "type": "0x2",
      "transactionHash": "0xe962cb0a2594dd01f927f2bafd1ce9eb8119539e097c91ea6434f90f0e7ffa9a",
      "transactionIndex": "0x9",
      "blockHash": "0xa00ace1cbeb6166d29734a0b0616c46ffe2286abf1b45f3a26efa682d1ec1a03",
      "blockNumber": "0x9634700",
      "gasUsed": "0x1e37c",
      "effectiveGasPrice": "0x5f5e100",
      "from": "0xe62ab4d111f968660c6b2188046f9b9ba53c4bae",
      "to": "0xc28328b1f98076ed5111f1223c647e883f5d6e16",
      "contractAddress": null,
      "gasUsedForL1": "0x0",
      "l1BlockNumber": "0x807f8b",
      "timeboosted": false
    },
    {
      "status": "0x1",
      "cumulativeGasUsed": "0x52390",
      "logs": [],
      "logsBloom": "0x00000000000000000000000000000000000000000000000000000000000000000000000000000000000000000000000000000000000000000000000000000000000000000000000000000000000000000000000000000000000000000000000000000000000000000000000000000000000000000000000000000000000000000000000000000000000000000000000000000000000000000000000000000000000000000000000000000000000000000000000000000000000000000000000000000000000000000000000000000000000000000000000000000000000000000000000000000000000000000000000000000000000000000000000000000000",
      "type": "0x2",
      "transactionHash": "0x746f6b2880f1739adabe9e85f1d08669f01aecdd55321249eba1a438c9b1a0d3",
      "transactionIndex": "0x6",
      "blockHash": "0x5f3d515312ab0e410eb7b7465b986149addebd58adadd6b616c02b5e20a4edbc",
      "blockNumber": "0x963470c",
      "gasUsed": "0x1df14",
      "effectiveGasPrice": "0x5f5e100",
      "from": "0xe62ab4d111f968660c6b2188046f9b9ba53c4bae",
      "to": "0xc28328b1f98076ed5111f1223c647e883f5d6e16",
      "contractAddress": null,
      "gasUsedForL1": "0x0",
      "l1BlockNumber": "0x807f8b",
      "timeboosted": false
    },
    {
      "status": "0x1",
      "cumulativeGasUsed": "0x208b18",
      "logs": [],
      "logsBloom": "0x00000000000000000000000000000000000000000000000000000000000000000000000000000000000000000000000000000000000000000000000000000000000000000000000000000000000000000000000000000000000000000000000000000000000000000000000000000000000000000000000000000000000000000000000000000000000000000000000000000000000000000000000000000000000000000000000000000000000000000000000000000000000000000000000000000000000000000000000000000000000000000000000000000000000000000000000000000000000000000000000000000000000000000000000000000000",
      "type": "0x2",
      "transactionHash": "0x0b61a908e5b3fe83a6154089b6590ccf7a179c84f566c6b21cb94f62399f2310",
      "transactionIndex": "0x4",
      "blockHash": "0xfc78d765760d4cc5825f5a9e26d7abcc39a154663bca97c110509a6ba898fadc",
      "blockNumber": "0x9634719",
      "gasUsed": "0x1b41c8",
      "effectiveGasPrice": "0x5f5e100",
      "from": "0xe62ab4d111f968660c6b2188046f9b9ba53c4bae",
      "to": "0xfa89dd803b8872f991997778d26c74a3aecd9639",
      "contractAddress": null,
      "gasUsedForL1": "0x0",
      "l1BlockNumber": "0x807f8c",
      "timeboosted": false
    },
    {
      "status": "0x1",
      "cumulativeGasUsed": "0x234648",
      "logs": [],
      "logsBloom": "0x00000000000000000000000000000000000000000000000000000000000000000000000000000000000000000000000000000000000000000000000000000000000000000000000000000000000000000000000000000000000000000000000000000000000000000000000000000000000000000000000000000000000000000000000000000000000000000000000000000000000000000000000000000000000000000000000000000000000000000000000000000000000000000000000000000000000000000000000000000000000000000000000000000000000000000000000000000000000000000000000000000000000000000000000000000000",
      "type": "0x2",
      "transactionHash": "0x1f9d3e7838e01c130cb33ed9ebac7c9c49f5aa17964b4b6cc3d4faba1ad3b670",
      "transactionIndex": "0x1",
      "blockHash": "0x68e830b851ca9f31b08cb56f32eea87ae3da2caea0af0aac2b61de4963ef8090",
      "blockNumber": "0x9634724",
      "gasUsed": "0x234648",
      "effectiveGasPrice": "0x5f5e100",
      "from": "0xe62ab4d111f968660c6b2188046f9b9ba53c4bae",
      "to": "0xfa89dd803b8872f991997778d26c74a3aecd9639",
      "contractAddress": null,
      "gasUsedForL1": "0x0",
      "l1BlockNumber": "0x807f8c",
      "timeboosted": false
    },
    {
      "status": "0x1",
      "cumulativeGasUsed": "0x1fcf19",
      "logs": [],
      "logsBloom": "0x00000000000000000000000000000000000000000000000000000000000000000000000000000000000000000000000000000000000000000000000000000000000000000000000000000000000000000000000000000000000000000000000000000000000000000000000000000000000000000000000000000000000000000000000000000000000000000000000000000000000000000000000000000000000000000000000000000000000000000000000000000000000000000000000000000000000000000000000000000000000000000000000000000000000000000000000000000000000000000000000000000000000000000000000000000000",
      "type": "0x2",
      "transactionHash": "0x86fe64961d47c5df152aa9fecb21d54fa8cb8199a025eb02e39e311d1d83a859",
      "transactionIndex": "0x4",
      "blockHash": "0x63941648320938582112e674065923ad30f75ac522cfb71b6cca2cd835b17d1b",
      "blockNumber": "0x9634730",
      "gasUsed": "0x1dab03",
      "effectiveGasPrice": "0x5f5e100",
      "from": "0xe62ab4d111f968660c6b2188046f9b9ba53c4bae",
      "to": "0xfa89dd803b8872f991997778d26c74a3aecd9639",
      "contractAddress": null,
      "gasUsedForL1": "0x0",
      "l1BlockNumber": "0x807f8c",
      "timeboosted": false
    },
    {
      "status": "0x1",
      "cumulativeGasUsed": "0x224cca",
      "logs": [],
      "logsBloom": "0x00000000000000000000000000000000000000000000000000000000000000000000000000000000000000000000000000000000000000000000000000000000000000000000000000000000000000000000000000000000000000000000000000000000000000000000000000000000000000000000000000000000000000000000000000000000000000000000000000000000000000000000000000000000000000000000000000000000000000000000000000000000000000000000000000000000000000000000000000000000000000000000000000000000000000000000000000000000000000000000000000000000000000000000000000000000",
      "type": "0x2",
      "transactionHash": "0xcac8438203d9d016d3710df5619e753dfc353d355e273598dbe8b13e131b35a1",
      "transactionIndex": "0x6",
      "blockHash": "0xfcdbd9fbec5ae26590ca00ca09c4f8c8b15b0565255919bc88e5d261a1a0ff21",
      "blockNumber": "0x9634734",
      "gasUsed": "0x1db435",
      "effectiveGasPrice": "0x5f5e100",
      "from": "0xe62ab4d111f968660c6b2188046f9b9ba53c4bae",
      "to": "0xfa89dd803b8872f991997778d26c74a3aecd9639",
      "contractAddress": null,
      "gasUsedForL1": "0x0",
      "l1BlockNumber": "0x807f8c",
      "timeboosted": false
    }
  ],
  "libraries": [],
  "pending": [],
  "returns": {},
  "timestamp": 1748393226,
  "chain": 421614,
  "commit": "2bab1f2d"
}