{
  "transactions": [
    {
      "hash": "0x52801c7b273d8e81537a02d3b350b77cc5b35dfbdf450e2ddc05cee57c79a9d3",
      "transactionType": "CALL",
      "contractName": "FeeManager",
      "contractAddress": "0xc4edb1cbb639143a6faa63b7caf194ce53d88d29",
      "function": "getFeeTokenList()",
      "arguments": [],
      "transaction": {
        "from": "0xe62ab4d111f968660c6b2188046f9b9ba53c4bae",
        "to": "0xc4edb1cbb639143a6faa63b7caf194ce53d88d29",
        "gas": "0x21be6",
        "value": "0x0",
        "input": "0xe28ab277",
        "nonce": "0x5d4",
        "chainId": "0x66eee"
      },
      "additionalContracts": [],
      "isFixedGasLimit": false
    },
    {
      "hash": "0xb388d8cf4237115f8eac31a564dae90b05191583c2561182146d2b010ec0c4b6",
      "transactionType": "CALL",
      "contractName": "FeeManager",
      "contractAddress": "0xc4edb1cbb639143a6faa63b7caf194ce53d88d29",
      "function": "addFeeToken(string)",
      "arguments": [
        "0xbf5356ade7e5f775659f301b07c4bc6961044b11"
      ],
      "transaction": {
        "from": "0xe62ab4d111f968660c6b2188046f9b9ba53c4bae",
        "to": "0xc4edb1cbb639143a6faa63b7caf194ce53d88d29",
        "gas": "0x559c2",
        "value": "0x0",
        "input": "0x12a6385f0000000000000000000000000000000000000000000000000000000000000020000000000000000000000000000000000000000000000000000000000000002a30786266353335366164653765356637373536353966333031623037633462633639363130343462313100000000000000000000000000000000000000000000",
        "nonce": "0x5d5",
        "chainId": "0x66eee"
      },
      "additionalContracts": [],
      "isFixedGasLimit": false
    },
    {
      "hash": "0x670da51f337a895ddab3eb378f91b58985e149e9ab75fa64a4d440f252e53bb4",
      "transactionType": "CALL",
      "contractName": "FeeManager",
      "contractAddress": "0xc4edb1cbb639143a6faa63b7caf194ce53d88d29",
      "function": "setFeeMultiplier(uint8,uint256)",
      "arguments": [
        "0",
        "2"
      ],
      "transaction": {
        "from": "0xe62ab4d111f968660c6b2188046f9b9ba53c4bae",
        "to": "0xc4edb1cbb639143a6faa63b7caf194ce53d88d29",
        "gas": "0x353e9",
        "value": "0x0",
        "input": "0x0ee24eb500000000000000000000000000000000000000000000000000000000000000000000000000000000000000000000000000000000000000000000000000000002",
        "nonce": "0x5d6",
        "chainId": "0x66eee"
      },
      "additionalContracts": [],
      "isFixedGasLimit": false
    },
    {
      "hash": "0x40a211b748e3e9726fabeefce4f62e35cab31886031ac73f644cb2102767c71d",
      "transactionType": "CALL",
      "contractName": "FeeManager",
      "contractAddress": "0xc4edb1cbb639143a6faa63b7caf194ce53d88d29",
      "function": "setFeeMultiplier(uint8,uint256)",
      "arguments": [
        "1",
        "10"
      ],
      "transaction": {
        "from": "0xe62ab4d111f968660c6b2188046f9b9ba53c4bae",
        "to": "0xc4edb1cbb639143a6faa63b7caf194ce53d88d29",
        "gas": "0x3541e",
        "value": "0x0",
        "input": "0x0ee24eb50000000000000000000000000000000000000000000000000000000000000001000000000000000000000000000000000000000000000000000000000000000a",
        "nonce": "0x5d7",
        "chainId": "0x66eee"
      },
      "additionalContracts": [],
      "isFixedGasLimit": false
    },
    {
      "hash": "0x07995fa898e4eeb69859f61c64ad457609ccb3dc3f8d66dc722a585676afb2c0",
      "transactionType": "CALL",
      "contractName": "FeeManager",
      "contractAddress": "0xc4edb1cbb639143a6faa63b7caf194ce53d88d29",
      "function": "setFeeMultiplier(uint8,uint256)",
      "arguments": [
        "2",
        "1"
      ],
      "transaction": {
        "from": "0xe62ab4d111f968660c6b2188046f9b9ba53c4bae",
        "to": "0xc4edb1cbb639143a6faa63b7caf194ce53d88d29",
        "gas": "0x3543d",
        "value": "0x0",
        "input": "0x0ee24eb500000000000000000000000000000000000000000000000000000000000000020000000000000000000000000000000000000000000000000000000000000001",
        "nonce": "0x5d8",
        "chainId": "0x66eee"
      },
      "additionalContracts": [],
      "isFixedGasLimit": false
    },
    {
      "hash": "0x3e156c3f0c7181206530ee364371121b8d94f20883db9d8c04943b617ed2b606",
      "transactionType": "CALL",
      "contractName": "FeeManager",
      "contractAddress": "0xc4edb1cbb639143a6faa63b7caf194ce53d88d29",
      "function": "setFeeMultiplier(uint8,uint256)",
      "arguments": [
        "3",
        "4"
      ],
      "transaction": {
        "from": "0xe62ab4d111f968660c6b2188046f9b9ba53c4bae",
        "to": "0xc4edb1cbb639143a6faa63b7caf194ce53d88d29",
        "gas": "0x3545b",
        "value": "0x0",
        "input": "0x0ee24eb500000000000000000000000000000000000000000000000000000000000000030000000000000000000000000000000000000000000000000000000000000004",
        "nonce": "0x5d9",
        "chainId": "0x66eee"
      },
      "additionalContracts": [],
      "isFixedGasLimit": false
    },
    {
      "hash": "0xf251cdb6445523b4342fa710f0a2986aec8af2897946406fc64a8049b6aed7bc",
      "transactionType": "CALL",
      "contractName": "FeeManager",
      "contractAddress": "0xc4edb1cbb639143a6faa63b7caf194ce53d88d29",
      "function": "setFeeMultiplier(uint8,uint256)",
      "arguments": [
        "4",
        "4"
      ],
      "transaction": {
        "from": "0xe62ab4d111f968660c6b2188046f9b9ba53c4bae",
        "to": "0xc4edb1cbb639143a6faa63b7caf194ce53d88d29",
        "gas": "0x35479",
        "value": "0x0",
        "input": "0x0ee24eb500000000000000000000000000000000000000000000000000000000000000040000000000000000000000000000000000000000000000000000000000000004",
        "nonce": "0x5da",
        "chainId": "0x66eee"
      },
      "additionalContracts": [],
      "isFixedGasLimit": false
    },
    {
      "hash": "0xa82461ab4e8d947a52e8f02b2151e17b73beec5a8a010a32bb064867c7a629f8",
      "transactionType": "CALL",
      "contractName": "FeeManager",
      "contractAddress": "0xc4edb1cbb639143a6faa63b7caf194ce53d88d29",
      "function": "setFeeMultiplier(uint8,uint256)",
      "arguments": [
        "5",
        "4"
      ],
      "transaction": {
        "from": "0xe62ab4d111f968660c6b2188046f9b9ba53c4bae",
        "to": "0xc4edb1cbb639143a6faa63b7caf194ce53d88d29",
        "gas": "0x35497",
        "value": "0x0",
        "input": "0x0ee24eb500000000000000000000000000000000000000000000000000000000000000050000000000000000000000000000000000000000000000000000000000000004",
        "nonce": "0x5db",
        "chainId": "0x66eee"
      },
      "additionalContracts": [],
      "isFixedGasLimit": false
    },
    {
      "hash": "0x258543c4ca5e8e303798d76bfcf839a72845a3a138f3414e582a5f90d13aa89e",
      "transactionType": "CALL",
      "contractName": "FeeManager",
      "contractAddress": "0xc4edb1cbb639143a6faa63b7caf194ce53d88d29",
      "function": "setFeeMultiplier(uint8,uint256)",
      "arguments": [
        "6",
        "8"
      ],
      "transaction": {
        "from": "0xe62ab4d111f968660c6b2188046f9b9ba53c4bae",
        "to": "0xc4edb1cbb639143a6faa63b7caf194ce53d88d29",
        "gas": "0x354b5",
        "value": "0x0",
        "input": "0x0ee24eb500000000000000000000000000000000000000000000000000000000000000060000000000000000000000000000000000000000000000000000000000000008",
        "nonce": "0x5dc",
        "chainId": "0x66eee"
      },
      "additionalContracts": [],
      "isFixedGasLimit": false
    },
    {
      "hash": "0x9507cf01b1e9269f840f171d3d67ddad799fa22af7cf2ad68ab9e109afb429a6",
      "transactionType": "CALL",
      "contractName": "FeeManager",
      "contractAddress": "0xc4edb1cbb639143a6faa63b7caf194ce53d88d29",
      "function": "setFeeMultiplier(uint8,uint256)",
      "arguments": [
        "7",
        "4"
      ],
      "transaction": {
        "from": "0xe62ab4d111f968660c6b2188046f9b9ba53c4bae",
        "to": "0xc4edb1cbb639143a6faa63b7caf194ce53d88d29",
        "gas": "0x354d3",
        "value": "0x0",
        "input": "0x0ee24eb500000000000000000000000000000000000000000000000000000000000000070000000000000000000000000000000000000000000000000000000000000004",
        "nonce": "0x5dd",
        "chainId": "0x66eee"
      },
      "additionalContracts": [],
      "isFixedGasLimit": false
    },
    {
      "hash": "0xd5ce3f502638e6754eda1379679e1507f3ffbed9b100624effea96dd8a3db295",
      "transactionType": "CALL",
      "contractName": "FeeManager",
      "contractAddress": "0xc4edb1cbb639143a6faa63b7caf194ce53d88d29",
      "function": "setFeeMultiplier(uint8,uint256)",
      "arguments": [
        "8",
        "10"
      ],
      "transaction": {
        "from": "0xe62ab4d111f968660c6b2188046f9b9ba53c4bae",
        "to": "0xc4edb1cbb639143a6faa63b7caf194ce53d88d29",
        "gas": "0x354f2",
        "value": "0x0",
        "input": "0x0ee24eb50000000000000000000000000000000000000000000000000000000000000008000000000000000000000000000000000000000000000000000000000000000a",
        "nonce": "0x5de",
        "chainId": "0x66eee"
      },
      "additionalContracts": [],
      "isFixedGasLimit": false
    },
    {
      "hash": "0x7a5a800f1138726cee75ece4bde5e323c42e39edd9cf73c6eb41fb64895a03fd",
      "transactionType": "CALL",
      "contractName": "FeeManager",
      "contractAddress": "0xc4edb1cbb639143a6faa63b7caf194ce53d88d29",
      "function": "setFeeMultiplier(uint8,uint256)",
      "arguments": [
        "9",
        "8"
      ],
      "transaction": {
        "from": "0xe62ab4d111f968660c6b2188046f9b9ba53c4bae",
        "to": "0xc4edb1cbb639143a6faa63b7caf194ce53d88d29",
        "gas": "0x35510",
        "value": "0x0",
        "input": "0x0ee24eb500000000000000000000000000000000000000000000000000000000000000090000000000000000000000000000000000000000000000000000000000000008",
        "nonce": "0x5df",
        "chainId": "0x66eee"
      },
      "additionalContracts": [],
      "isFixedGasLimit": false
    },
    {
      "hash": "0xad414db02e7e7ca596f6aa3a46b107a395187346eab85f2694d708a9f988f7b7",
      "transactionType": "CALL",
      "contractName": "FeeManager",
      "contractAddress": "0xc4edb1cbb639143a6faa63b7caf194ce53d88d29",
      "function": "setFeeMultiplier(uint8,uint256)",
      "arguments": [
        "10",
        "8"
      ],
      "transaction": {
        "from": "0xe62ab4d111f968660c6b2188046f9b9ba53c4bae",
        "to": "0xc4edb1cbb639143a6faa63b7caf194ce53d88d29",
        "gas": "0x3552e",
        "value": "0x0",
        "input": "0x0ee24eb5000000000000000000000000000000000000000000000000000000000000000a0000000000000000000000000000000000000000000000000000000000000008",
        "nonce": "0x5e0",
        "chainId": "0x66eee"
      },
      "additionalContracts": [],
      "isFixedGasLimit": false
    },
    {
      "hash": "0xe82062cba43c8c21c023c2abfe68a1c680ff34030c6c31c8bb924c8ae1084588",
      "transactionType": "CALL",
      "contractName": "FeeManager",
      "contractAddress": "0xc4edb1cbb639143a6faa63b7caf194ce53d88d29",
      "function": "setFeeMultiplier(uint8,uint256)",
      "arguments": [
        "11",
        "8"
      ],
      "transaction": {
        "from": "0xe62ab4d111f968660c6b2188046f9b9ba53c4bae",
        "to": "0xc4edb1cbb639143a6faa63b7caf194ce53d88d29",
        "gas": "0x3554c",
        "value": "0x0",
        "input": "0x0ee24eb5000000000000000000000000000000000000000000000000000000000000000b0000000000000000000000000000000000000000000000000000000000000008",
        "nonce": "0x5e1",
        "chainId": "0x66eee"
      },
      "additionalContracts": [],
      "isFixedGasLimit": false
    },
    {
      "hash": "0x36497797d727a20becb64754daa628d2f82ea21a5068bb6f424f2e6be39b9422",
      "transactionType": "CALL",
      "contractName": "FeeManager",
      "contractAddress": "0xc4edb1cbb639143a6faa63b7caf194ce53d88d29",
      "function": "setFeeMultiplier(uint8,uint256)",
      "arguments": [
        "12",
        "20"
      ],
      "transaction": {
        "from": "0xe62ab4d111f968660c6b2188046f9b9ba53c4bae",
        "to": "0xc4edb1cbb639143a6faa63b7caf194ce53d88d29",
        "gas": "0x3556a",
        "value": "0x0",
        "input": "0x0ee24eb5000000000000000000000000000000000000000000000000000000000000000c0000000000000000000000000000000000000000000000000000000000000014",
        "nonce": "0x5e2",
        "chainId": "0x66eee"
      },
      "additionalContracts": [],
      "isFixedGasLimit": false
    },
    {
      "hash": "0xed763f283119b84f071e147d5bf3af1d343fe2f77e77c123b066f7b61787639a",
      "transactionType": "CALL",
      "contractName": "FeeManager",
      "contractAddress": "0xc4edb1cbb639143a6faa63b7caf194ce53d88d29",
      "function": "setFeeMultiplier(uint8,uint256)",
      "arguments": [
        "13",
        "8"
      ],
      "transaction": {
        "from": "0xe62ab4d111f968660c6b2188046f9b9ba53c4bae",
        "to": "0xc4edb1cbb639143a6faa63b7caf194ce53d88d29",
        "gas": "0x35589",
        "value": "0x0",
        "input": "0x0ee24eb5000000000000000000000000000000000000000000000000000000000000000d0000000000000000000000000000000000000000000000000000000000000008",
        "nonce": "0x5e3",
        "chainId": "0x66eee"
      },
      "additionalContracts": [],
      "isFixedGasLimit": false
    },
    {
      "hash": "0x9e7db17f8a640867a6cc9989b9488e19321f5798d73500195b79257650de5d25",
      "transactionType": "CALL",
      "contractName": "FeeManager",
      "contractAddress": "0xc4edb1cbb639143a6faa63b7caf194ce53d88d29",
      "function": "setFeeMultiplier(uint8,uint256)",
      "arguments": [
        "14",
        "4"
      ],
      "transaction": {
        "from": "0xe62ab4d111f968660c6b2188046f9b9ba53c4bae",
        "to": "0xc4edb1cbb639143a6faa63b7caf194ce53d88d29",
        "gas": "0x355a7",
        "value": "0x0",
        "input": "0x0ee24eb5000000000000000000000000000000000000000000000000000000000000000e0000000000000000000000000000000000000000000000000000000000000004",
        "nonce": "0x5e4",
        "chainId": "0x66eee"
      },
      "additionalContracts": [],
      "isFixedGasLimit": false
    },
    {
      "hash": "0xa94041aa0899f7d095c9a6b3ba7be8db8b6c9fd8dde0833c803c7ce017205f7a",
      "transactionType": "CALL",
      "contractName": "FeeManager",
      "contractAddress": "0xc4edb1cbb639143a6faa63b7caf194ce53d88d29",
      "function": "setFeeMultiplier(uint8,uint256)",
      "arguments": [
        "15",
        "4"
      ],
      "transaction": {
        "from": "0xe62ab4d111f968660c6b2188046f9b9ba53c4bae",
        "to": "0xc4edb1cbb639143a6faa63b7caf194ce53d88d29",
        "gas": "0x355c5",
        "value": "0x0",
        "input": "0x0ee24eb5000000000000000000000000000000000000000000000000000000000000000f0000000000000000000000000000000000000000000000000000000000000004",
        "nonce": "0x5e5",
        "chainId": "0x66eee"
      },
      "additionalContracts": [],
      "isFixedGasLimit": false
    },
    {
      "hash": "0x56e608ab8a387395bc82342c7bc9a226cbf6b496dabc9c53c16ff4acc9ef66c5",
      "transactionType": "CALL",
      "contractName": "FeeManager",
      "contractAddress": "0xc4edb1cbb639143a6faa63b7caf194ce53d88d29",
      "function": "setFeeMultiplier(uint8,uint256)",
      "arguments": [
        "16",
        "4"
      ],
      "transaction": {
        "from": "0xe62ab4d111f968660c6b2188046f9b9ba53c4bae",
        "to": "0xc4edb1cbb639143a6faa63b7caf194ce53d88d29",
        "gas": "0x355e3",
        "value": "0x0",
        "input": "0x0ee24eb500000000000000000000000000000000000000000000000000000000000000100000000000000000000000000000000000000000000000000000000000000004",
        "nonce": "0x5e6",
        "chainId": "0x66eee"
      },
      "additionalContracts": [],
      "isFixedGasLimit": false
    },
    {
      "hash": "0xab120b5ab2c2cd76d4a1f7814d14bdbf87353501e3ab56a9faa9cbf86a0f5036",
      "transactionType": "CALL",
      "contractName": "FeeManager",
      "contractAddress": "0xc4edb1cbb639143a6faa63b7caf194ce53d88d29",
      "function": "setFeeMultiplier(uint8,uint256)",
      "arguments": [
        "17",
        "4"
      ],
      "transaction": {
        "from": "0xe62ab4d111f968660c6b2188046f9b9ba53c4bae",
        "to": "0xc4edb1cbb639143a6faa63b7caf194ce53d88d29",
        "gas": "0x35600",
        "value": "0x0",
        "input": "0x0ee24eb500000000000000000000000000000000000000000000000000000000000000110000000000000000000000000000000000000000000000000000000000000004",
        "nonce": "0x5e7",
        "chainId": "0x66eee"
      },
      "additionalContracts": [],
      "isFixedGasLimit": false
    },
    {
      "hash": "0xb613576e9d6994d89e545a4e415fc616e527c3787d2f3d72f9e5d222e5109d27",
      "transactionType": "CALL",
      "contractName": "FeeManager",
      "contractAddress": "0xc4edb1cbb639143a6faa63b7caf194ce53d88d29",
      "function": "setFeeMultiplier(uint8,uint256)",
      "arguments": [
        "18",
        "2"
      ],
      "transaction": {
        "from": "0xe62ab4d111f968660c6b2188046f9b9ba53c4bae",
        "to": "0xc4edb1cbb639143a6faa63b7caf194ce53d88d29",
        "gas": "0x3561e",
        "value": "0x0",
        "input": "0x0ee24eb500000000000000000000000000000000000000000000000000000000000000120000000000000000000000000000000000000000000000000000000000000002",
        "nonce": "0x5e8",
        "chainId": "0x66eee"
      },
      "additionalContracts": [],
      "isFixedGasLimit": false
    },
    {
      "hash": "0xa249a08d4b711b2cd212cb06b38ac0bef3cde23b44d8dc8a63bd5c975ac4d44f",
      "transactionType": "CALL",
      "contractName": "FeeManager",
      "contractAddress": "0xc4edb1cbb639143a6faa63b7caf194ce53d88d29",
      "function": "setFeeMultiplier(uint8,uint256)",
      "arguments": [
        "19",
        "20"
      ],
      "transaction": {
        "from": "0xe62ab4d111f968660c6b2188046f9b9ba53c4bae",
        "to": "0xc4edb1cbb639143a6faa63b7caf194ce53d88d29",
        "gas": "0x3563e",
        "value": "0x0",
        "input": "0x0ee24eb500000000000000000000000000000000000000000000000000000000000000130000000000000000000000000000000000000000000000000000000000000014",
        "nonce": "0x5e9",
        "chainId": "0x66eee"
      },
      "additionalContracts": [],
      "isFixedGasLimit": false
    },
    {
      "hash": "0x9ace6a2d1bd6e31b4db8b215a4f8e5d06f9e352ebf06c6b28acc31cdfe1db1ff",
      "transactionType": "CALL",
      "contractName": "FeeManager",
      "contractAddress": "0xc4edb1cbb639143a6faa63b7caf194ce53d88d29",
      "function": "setFeeMultiplier(uint8,uint256)",
      "arguments": [
        "20",
        "2"
      ],
      "transaction": {
        "from": "0xe62ab4d111f968660c6b2188046f9b9ba53c4bae",
        "to": "0xc4edb1cbb639143a6faa63b7caf194ce53d88d29",
        "gas": "0x35655",
        "value": "0x0",
        "input": "0x0ee24eb500000000000000000000000000000000000000000000000000000000000000140000000000000000000000000000000000000000000000000000000000000002",
        "nonce": "0x5ea",
        "chainId": "0x66eee"
      },
      "additionalContracts": [],
      "isFixedGasLimit": false
    },
    {
      "hash": "0xbeafb07e7cf2603a97225a6bf39203d370c8ff753d61700b1211513caafc672f",
      "transactionType": "CALL",
      "contractName": "FeeManager",
      "contractAddress": "0xc4edb1cbb639143a6faa63b7caf194ce53d88d29",
      "function": "addFeeToken(string,string[],uint256[])",
      "arguments": [
        "421614",
        "[0xbf5356ade7e5f775659f301b07c4bc6961044b11]",
        "[100]"
      ],
      "transaction": {
        "from": "0xe62ab4d111f968660c6b2188046f9b9ba53c4bae",
        "to": "0xc4edb1cbb639143a6faa63b7caf194ce53d88d29",
        "gas": "0x31bbe",
        "value": "0x0",
        "input": "0x437bf84f000000000000000000000000000000000000000000000000000000000000006000000000000000000000000000000000000000000000000000000000000000a000000000000000000000000000000000000000000000000000000000000001400000000000000000000000000000000000000000000000000000000000000006343231363134000000000000000000000000000000000000000000000000000000000000000000000000000000000000000000000000000000000000000000010000000000000000000000000000000000000000000000000000000000000020000000000000000000000000000000000000000000000000000000000000002a3078626635333536616465376535663737353635396633303162303763346263363936313034346231310000000000000000000000000000000000000000000000000000000000000000000000000000000000000000000000000000000000010000000000000000000000000000000000000000000000000000000000000064",
        "nonce": "0x5eb",
        "chainId": "0x66eee"
      },
      "additionalContracts": [],
      "isFixedGasLimit": false
    },
    {
      "hash": "0xdc41565520d5e50b3ebec286f2f1a7db574c7d3f0ce62fe5b2c00c179e9cfd7f",
      "transactionType": "CALL",
      "contractName": "FeeManager",
      "contractAddress": "0xc4edb1cbb639143a6faa63b7caf194ce53d88d29",
      "function": "addFeeToken(string,string[],uint256[])",
      "arguments": [
        "80002",
        "[0xbf5356ade7e5f775659f301b07c4bc6961044b11]",
        "[100]"
      ],
      "transaction": {
        "from": "0xe62ab4d111f968660c6b2188046f9b9ba53c4bae",
        "to": "0xc4edb1cbb639143a6faa63b7caf194ce53d88d29",
        "gas": "0x2c342",
        "value": "0x0",
        "input": "0x437bf84f000000000000000000000000000000000000000000000000000000000000006000000000000000000000000000000000000000000000000000000000000000a000000000000000000000000000000000000000000000000000000000000001400000000000000000000000000000000000000000000000000000000000000005383030303200000000000000000000000000000000000000000000000000000000000000000000000000000000000000000000000000000000000000000000010000000000000000000000000000000000000000000000000000000000000020000000000000000000000000000000000000000000000000000000000000002a3078626635333536616465376535663737353635396633303162303763346263363936313034346231310000000000000000000000000000000000000000000000000000000000000000000000000000000000000000000000000000000000010000000000000000000000000000000000000000000000000000000000000064",
        "nonce": "0x5ec",
        "chainId": "0x66eee"
      },
      "additionalContracts": [],
      "isFixedGasLimit": false
    },
    {
      "hash": "0x93311ab301be321c5384a7c6b498b839d7c14eeb5ed97f28c451e3621fc0b6c5",
      "transactionType": "CALL",
      "contractName": "FeeManager",
      "contractAddress": "0xc4edb1cbb639143a6faa63b7caf194ce53d88d29",
      "function": "addFeeToken(string,string[],uint256[])",
      "arguments": [
        "84532",
        "[0xbf5356ade7e5f775659f301b07c4bc6961044b11]",
        "[100]"
      ],
      "transaction": {
        "from": "0xe62ab4d111f968660c6b2188046f9b9ba53c4bae",
        "to": "0xc4edb1cbb639143a6faa63b7caf194ce53d88d29",
        "gas": "0x2c342",
        "value": "0x0",
        "input": "0x437bf84f000000000000000000000000000000000000000000000000000000000000006000000000000000000000000000000000000000000000000000000000000000a000000000000000000000000000000000000000000000000000000000000001400000000000000000000000000000000000000000000000000000000000000005383435333200000000000000000000000000000000000000000000000000000000000000000000000000000000000000000000000000000000000000000000010000000000000000000000000000000000000000000000000000000000000020000000000000000000000000000000000000000000000000000000000000002a3078626635333536616465376535663737353635396633303162303763346263363936313034346231310000000000000000000000000000000000000000000000000000000000000000000000000000000000000000000000000000000000010000000000000000000000000000000000000000000000000000000000000064",
        "nonce": "0x5ed",
        "chainId": "0x66eee"
      },
      "additionalContracts": [],
      "isFixedGasLimit": false
    },
    {
      "hash": "0x3ea4129eb1492c841b0ef275e320e654df35535a08e3ea0655d6313685dd4ae2",
      "transactionType": "CALL",
      "contractName": "FeeManager",
      "contractAddress": "0xc4edb1cbb639143a6faa63b7caf194ce53d88d29",
      "function": "addFeeToken(string,string[],uint256[])",
      "arguments": [
        "59141",
        "[0xbf5356ade7e5f775659f301b07c4bc6961044b11]",
        "[100]"
      ],
      "transaction": {
        "from": "0xe62ab4d111f968660c6b2188046f9b9ba53c4bae",
        "to": "0xc4edb1cbb639143a6faa63b7caf194ce53d88d29",
        "gas": "0x2c342",
        "value": "0x0",
        "input": "0x437bf84f000000000000000000000000000000000000000000000000000000000000006000000000000000000000000000000000000000000000000000000000000000a000000000000000000000000000000000000000000000000000000000000001400000000000000000000000000000000000000000000000000000000000000005353931343100000000000000000000000000000000000000000000000000000000000000000000000000000000000000000000000000000000000000000000010000000000000000000000000000000000000000000000000000000000000020000000000000000000000000000000000000000000000000000000000000002a3078626635333536616465376535663737353635396633303162303763346263363936313034346231310000000000000000000000000000000000000000000000000000000000000000000000000000000000000000000000000000000000010000000000000000000000000000000000000000000000000000000000000064",
        "nonce": "0x5ee",
        "chainId": "0x66eee"
      },
      "additionalContracts": [],
      "isFixedGasLimit": false
    },
    {
      "hash": "0x99699349d307cf311ea0f2f0cc199f5a635c4f380707ff2357265f773cda6eac",
      "transactionType": "CALL",
      "contractName": "FeeManager",
      "contractAddress": "0xc4edb1cbb639143a6faa63b7caf194ce53d88d29",
      "function": "addFeeToken(string,string[],uint256[])",
      "arguments": [
        "1115",
        "[0xbf5356ade7e5f775659f301b07c4bc6961044b11]",
        "[100]"
      ],
      "transaction": {
        "from": "0xe62ab4d111f968660c6b2188046f9b9ba53c4bae",
        "to": "0xc4edb1cbb639143a6faa63b7caf194ce53d88d29",
        "gas": "0x299df",
        "value": "0x0",
        "input": "0x437bf84f000000000000000000000000000000000000000000000000000000000000006000000000000000000000000000000000000000000000000000000000000000a000000000000000000000000000000000000000000000000000000000000001400000000000000000000000000000000000000000000000000000000000000004313131350000000000000000000000000000000000000000000000000000000000000000000000000000000000000000000000000000000000000000000000010000000000000000000000000000000000000000000000000000000000000020000000000000000000000000000000000000000000000000000000000000002a3078626635333536616465376535663737353635396633303162303763346263363936313034346231310000000000000000000000000000000000000000000000000000000000000000000000000000000000000000000000000000000000010000000000000000000000000000000000000000000000000000000000000064",
        "nonce": "0x5ef",
        "chainId": "0x66eee"
      },
      "additionalContracts": [],
      "isFixedGasLimit": false
    },
    {
      "hash": "0xb9bb56c8c34353ed74932fcabe4cc84135eaaa3ca205bf4ad8ca8ea849b8e987",
      "transactionType": "CALL",
      "contractName": "FeeManager",
      "contractAddress": "0xc4edb1cbb639143a6faa63b7caf194ce53d88d29",
      "function": "addFeeToken(string,string[],uint256[])",
      "arguments": [
        "17000",
        "[0xbf5356ade7e5f775659f301b07c4bc6961044b11]",
        "[100]"
      ],
      "transaction": {
        "from": "0xe62ab4d111f968660c6b2188046f9b9ba53c4bae",
        "to": "0xc4edb1cbb639143a6faa63b7caf194ce53d88d29",
        "gas": "0x2c342",
        "value": "0x0",
        "input": "0x437bf84f000000000000000000000000000000000000000000000000000000000000006000000000000000000000000000000000000000000000000000000000000000a000000000000000000000000000000000000000000000000000000000000001400000000000000000000000000000000000000000000000000000000000000005313730303000000000000000000000000000000000000000000000000000000000000000000000000000000000000000000000000000000000000000000000010000000000000000000000000000000000000000000000000000000000000020000000000000000000000000000000000000000000000000000000000000002a3078626635333536616465376535663737353635396633303162303763346263363936313034346231310000000000000000000000000000000000000000000000000000000000000000000000000000000000000000000000000000000000010000000000000000000000000000000000000000000000000000000000000064",
        "nonce": "0x5f0",
        "chainId": "0x66eee"
      },
      "additionalContracts": [],
      "isFixedGasLimit": false
    },
    {
      "hash": "0x755f393c142993181ea14cacb7b528d0be9256861e25512c65127af0c9b66431",
      "transactionType": "CALL",
      "contractName": "FeeManager",
      "contractAddress": "0xc4edb1cbb639143a6faa63b7caf194ce53d88d29",
      "function": "addFeeToken(string,string[],uint256[])",
      "arguments": [
        "2810",
        "[0xbf5356ade7e5f775659f301b07c4bc6961044b11]",
        "[100]"
      ],
      "transaction": {
        "from": "0xe62ab4d111f968660c6b2188046f9b9ba53c4bae",
        "to": "0xc4edb1cbb639143a6faa63b7caf194ce53d88d29",
        "gas": "0x299df",
        "value": "0x0",
        "input": "0x437bf84f000000000000000000000000000000000000000000000000000000000000006000000000000000000000000000000000000000000000000000000000000000a000000000000000000000000000000000000000000000000000000000000001400000000000000000000000000000000000000000000000000000000000000004323831300000000000000000000000000000000000000000000000000000000000000000000000000000000000000000000000000000000000000000000000010000000000000000000000000000000000000000000000000000000000000020000000000000000000000000000000000000000000000000000000000000002a3078626635333536616465376535663737353635396633303162303763346263363936313034346231310000000000000000000000000000000000000000000000000000000000000000000000000000000000000000000000000000000000010000000000000000000000000000000000000000000000000000000000000064",
        "nonce": "0x5f1",
        "chainId": "0x66eee"
      },
      "additionalContracts": [],
      "isFixedGasLimit": false
    },
    {
      "hash": "0x68c1b4208036d875ebc9ec3d0243347769d537ccb18d37558ab38bcae2ae7ff3",
      "transactionType": "CALL",
      "contractName": "FeeManager",
      "contractAddress": "0xc4edb1cbb639143a6faa63b7caf194ce53d88d29",
      "function": "addFeeToken(string,string[],uint256[])",
      "arguments": [
        "168587773",
        "[0xbf5356ade7e5f775659f301b07c4bc6961044b11]",
        "[100]"
      ],
      "transaction": {
        "from": "0xe62ab4d111f968660c6b2188046f9b9ba53c4bae",
        "to": "0xc4edb1cbb639143a6faa63b7caf194ce53d88d29",
        "gas": "0x2cc20",
        "value": "0x0",
        "input": "0x437bf84f000000000000000000000000000000000000000000000000000000000000006000000000000000000000000000000000000000000000000000000000000000a000000000000000000000000000000000000000000000000000000000000001400000000000000000000000000000000000000000000000000000000000000009313638353837373733000000000000000000000000000000000000000000000000000000000000000000000000000000000000000000000000000000000000010000000000000000000000000000000000000000000000000000000000000020000000000000000000000000000000000000000000000000000000000000002a3078626635333536616465376535663737353635396633303162303763346263363936313034346231310000000000000000000000000000000000000000000000000000000000000000000000000000000000000000000000000000000000010000000000000000000000000000000000000000000000000000000000000064",
        "nonce": "0x5f2",
        "chainId": "0x66eee"
      },
      "additionalContracts": [],
      "isFixedGasLimit": false
    },
    {
      "hash": "0x20a168a4e9139223a20c6be7f9863fb2242b86f6abc61c6509bc2c9319e5fee8",
      "transactionType": "CALL",
      "contractName": "FeeManager",
      "contractAddress": "0xc4edb1cbb639143a6faa63b7caf194ce53d88d29",
      "function": "addFeeToken(string,string[],uint256[])",
      "arguments": [
        "200810",
        "[0xbf5356ade7e5f775659f301b07c4bc6961044b11]",
        "[100]"
      ],
      "transaction": {
        "from": "0xe62ab4d111f968660c6b2188046f9b9ba53c4bae",
        "to": "0xc4edb1cbb639143a6faa63b7caf194ce53d88d29",
        "gas": "0x29e0f",
        "value": "0x0",
        "input": "0x437bf84f000000000000000000000000000000000000000000000000000000000000006000000000000000000000000000000000000000000000000000000000000000a000000000000000000000000000000000000000000000000000000000000001400000000000000000000000000000000000000000000000000000000000000006323030383130000000000000000000000000000000000000000000000000000000000000000000000000000000000000000000000000000000000000000000010000000000000000000000000000000000000000000000000000000000000020000000000000000000000000000000000000000000000000000000000000002a3078626635333536616465376535663737353635396633303162303763346263363936313034346231310000000000000000000000000000000000000000000000000000000000000000000000000000000000000000000000000000000000010000000000000000000000000000000000000000000000000000000000000064",
        "nonce": "0x5f3",
        "chainId": "0x66eee"
      },
      "additionalContracts": [],
      "isFixedGasLimit": false
    },
    {
      "hash": "0xfe5eb9e3f8ce9ff1b7c3d8c0d1c89e08f63a55e1a82d35d532f9a27a8c86a5a3",
      "transactionType": "CALL",
      "contractName": "FeeManager",
      "contractAddress": "0xc4edb1cbb639143a6faa63b7caf194ce53d88d29",
      "function": "addFeeToken(string,string[],uint256[])",
      "arguments": [
        "534351",
        "[0xbf5356ade7e5f775659f301b07c4bc6961044b11]",
        "[100]"
      ],
      "transaction": {
        "from": "0xe62ab4d111f968660c6b2188046f9b9ba53c4bae",
        "to": "0xc4edb1cbb639143a6faa63b7caf194ce53d88d29",
        "gas": "0x29e0f",
        "value": "0x0",
        "input": "0x437bf84f000000000000000000000000000000000000000000000000000000000000006000000000000000000000000000000000000000000000000000000000000000a000000000000000000000000000000000000000000000000000000000000001400000000000000000000000000000000000000000000000000000000000000006353334333531000000000000000000000000000000000000000000000000000000000000000000000000000000000000000000000000000000000000000000010000000000000000000000000000000000000000000000000000000000000020000000000000000000000000000000000000000000000000000000000000002a3078626635333536616465376535663737353635396633303162303763346263363936313034346231310000000000000000000000000000000000000000000000000000000000000000000000000000000000000000000000000000000000010000000000000000000000000000000000000000000000000000000000000064",
        "nonce": "0x5f4",
        "chainId": "0x66eee"
      },
      "additionalContracts": [],
      "isFixedGasLimit": false
    },
    {
      "hash": "0xcb1e02c2c1e2d3dd35d54216482fe6772c28747433b1ff5d94fbdcd33f4f859e",
      "transactionType": "CALL",
      "contractName": "FeeManager",
      "contractAddress": "0xc4edb1cbb639143a6faa63b7caf194ce53d88d29",
      "function": "addFeeToken(string,string[],uint256[])",
      "arguments": [
        "5003",
        "[0xbf5356ade7e5f775659f301b07c4bc6961044b11]",
        "[100]"
      ],
      "transaction": {
        "from": "0xe62ab4d111f968660c6b2188046f9b9ba53c4bae",
        "to": "0xc4edb1cbb639143a6faa63b7caf194ce53d88d29",
        "gas": "0x299df",
        "value": "0x0",
        "input": "0x437bf84f000000000000000000000000000000000000000000000000000000000000006000000000000000000000000000000000000000000000000000000000000000a000000000000000000000000000000000000000000000000000000000000001400000000000000000000000000000000000000000000000000000000000000004353030330000000000000000000000000000000000000000000000000000000000000000000000000000000000000000000000000000000000000000000000010000000000000000000000000000000000000000000000000000000000000020000000000000000000000000000000000000000000000000000000000000002a3078626635333536616465376535663737353635396633303162303763346263363936313034346231310000000000000000000000000000000000000000000000000000000000000000000000000000000000000000000000000000000000010000000000000000000000000000000000000000000000000000000000000064",
        "nonce": "0x5f5",
        "chainId": "0x66eee"
      },
      "additionalContracts": [],
      "isFixedGasLimit": false
    },
    {
      "hash": "0x91da22d75af40436fd405fd56b3a9a1d1b05173f629afe6aab89740eb08b7906",
      "transactionType": "CALL",
      "contractName": "FeeManager",
      "contractAddress": "0xc4edb1cbb639143a6faa63b7caf194ce53d88d29",
      "function": "addFeeToken(string,string[],uint256[])",
      "arguments": [
        "4201",
        "[0xbf5356ade7e5f775659f301b07c4bc6961044b11]",
        "[100]"
      ],
      "transaction": {
        "from": "0xe62ab4d111f968660c6b2188046f9b9ba53c4bae",
        "to": "0xc4edb1cbb639143a6faa63b7caf194ce53d88d29",
        "gas": "0x299df",
        "value": "0x0",
        "input": "0x437bf84f000000000000000000000000000000000000000000000000000000000000006000000000000000000000000000000000000000000000000000000000000000a000000000000000000000000000000000000000000000000000000000000001400000000000000000000000000000000000000000000000000000000000000004343230310000000000000000000000000000000000000000000000000000000000000000000000000000000000000000000000000000000000000000000000010000000000000000000000000000000000000000000000000000000000000020000000000000000000000000000000000000000000000000000000000000002a3078626635333536616465376535663737353635396633303162303763346263363936313034346231310000000000000000000000000000000000000000000000000000000000000000000000000000000000000000000000000000000000010000000000000000000000000000000000000000000000000000000000000064",
        "nonce": "0x5f6",
        "chainId": "0x66eee"
      },
      "additionalContracts": [],
      "isFixedGasLimit": false
    },
    {
      "hash": "0xfa92826d875192167b37c3b02f741ed35af9320589af405e6696bb67057f985e",
      "transactionType": "CALL",
      "contractName": "FeeManager",
      "contractAddress": "0xc4edb1cbb639143a6faa63b7caf194ce53d88d29",
      "function": "addFeeToken(string,string[],uint256[])",
      "arguments": [
        "80084",
        "[0xbf5356ade7e5f775659f301b07c4bc6961044b11]",
        "[100]"
      ],
      "transaction": {
        "from": "0xe62ab4d111f968660c6b2188046f9b9ba53c4bae",
        "to": "0xc4edb1cbb639143a6faa63b7caf194ce53d88d29",
        "gas": "0x2c342",
        "value": "0x0",
        "input": "0x437bf84f000000000000000000000000000000000000000000000000000000000000006000000000000000000000000000000000000000000000000000000000000000a000000000000000000000000000000000000000000000000000000000000001400000000000000000000000000000000000000000000000000000000000000005383030383400000000000000000000000000000000000000000000000000000000000000000000000000000000000000000000000000000000000000000000010000000000000000000000000000000000000000000000000000000000000020000000000000000000000000000000000000000000000000000000000000002a3078626635333536616465376535663737353635396633303162303763346263363936313034346231310000000000000000000000000000000000000000000000000000000000000000000000000000000000000000000000000000000000010000000000000000000000000000000000000000000000000000000000000064",
        "nonce": "0x5f7",
        "chainId": "0x66eee"
      },
      "additionalContracts": [],
      "isFixedGasLimit": false
    },
    {
      "hash": "0x9ffa7cdf832b95e64f651f52cba926b25d78178ea3a0fdd5fb3f6aea421d0774",
      "transactionType": "CALL",
      "contractName": "FeeManager",
      "contractAddress": "0xc4edb1cbb639143a6faa63b7caf194ce53d88d29",
      "function": "addFeeToken(string,string[],uint256[])",
      "arguments": [
        "1952959480",
        "[0xbf5356ade7e5f775659f301b07c4bc6961044b11]",
        "[100]"
      ],
      "transaction": {
        "from": "0xe62ab4d111f968660c6b2188046f9b9ba53c4bae",
        "to": "0xc4edb1cbb639143a6faa63b7caf194ce53d88d29",
        "gas": "0x2a66e",
        "value": "0x0",
        "input": "0x437bf84f000000000000000000000000000000000000000000000000000000000000006000000000000000000000000000000000000000000000000000000000000000a00000000000000000000000000000000000000000000000000000000000000140000000000000000000000000000000000000000000000000000000000000000a313935323935393438300000000000000000000000000000000000000000000000000000000000000000000000000000000000000000000000000000000000010000000000000000000000000000000000000000000000000000000000000020000000000000000000000000000000000000000000000000000000000000002a3078626635333536616465376535663737353635396633303162303763346263363936313034346231310000000000000000000000000000000000000000000000000000000000000000000000000000000000000000000000000000000000010000000000000000000000000000000000000000000000000000000000000064",
        "nonce": "0x5f8",
        "chainId": "0x66eee"
      },
      "additionalContracts": [],
      "isFixedGasLimit": false
    },
    {
      "hash": "0xc6b471c233c324f543b8eaef4dd3c14bb365e42df034abab377c9d30e672df0a",
      "transactionType": "CALL",
      "contractName": "FeeManager",
      "contractAddress": "0xc4edb1cbb639143a6faa63b7caf194ce53d88d29",
      "function": "addFeeToken(string,string[],uint256[])",
      "arguments": [
        "78600",
        "[0xbf5356ade7e5f775659f301b07c4bc6961044b11]",
        "[100]"
      ],
      "transaction": {
        "from": "0xe62ab4d111f968660c6b2188046f9b9ba53c4bae",
        "to": "0xc4edb1cbb639143a6faa63b7caf194ce53d88d29",
        "gas": "0x2c342",
        "value": "0x0",
        "input": "0x437bf84f000000000000000000000000000000000000000000000000000000000000006000000000000000000000000000000000000000000000000000000000000000a000000000000000000000000000000000000000000000000000000000000001400000000000000000000000000000000000000000000000000000000000000005373836303000000000000000000000000000000000000000000000000000000000000000000000000000000000000000000000000000000000000000000000010000000000000000000000000000000000000000000000000000000000000020000000000000000000000000000000000000000000000000000000000000002a3078626635333536616465376535663737353635396633303162303763346263363936313034346231310000000000000000000000000000000000000000000000000000000000000000000000000000000000000000000000000000000000010000000000000000000000000000000000000000000000000000000000000064",
        "nonce": "0x5f9",
        "chainId": "0x66eee"
      },
      "additionalContracts": [],
      "isFixedGasLimit": false
    },
    {
      "hash": "0x41e48f7ad995af634d355a43b155430b6dc93730bdbfedf5c9e1ac53ad45427b",
      "transactionType": "CALL",
      "contractName": "FeeManager",
      "contractAddress": "0xc4edb1cbb639143a6faa63b7caf194ce53d88d29",
      "function": "addFeeToken(string,string[],uint256[])",
      "arguments": [
        "1918988905",
        "[0xbf5356ade7e5f775659f301b07c4bc6961044b11]",
        "[100]"
      ],
      "transaction": {
        "from": "0xe62ab4d111f968660c6b2188046f9b9ba53c4bae",
        "to": "0xc4edb1cbb639143a6faa63b7caf194ce53d88d29",
        "gas": "0x2a66e",
        "value": "0x0",
        "input": "0x437bf84f000000000000000000000000000000000000000000000000000000000000006000000000000000000000000000000000000000000000000000000000000000a00000000000000000000000000000000000000000000000000000000000000140000000000000000000000000000000000000000000000000000000000000000a313931383938383930350000000000000000000000000000000000000000000000000000000000000000000000000000000000000000000000000000000000010000000000000000000000000000000000000000000000000000000000000020000000000000000000000000000000000000000000000000000000000000002a3078626635333536616465376535663737353635396633303162303763346263363936313034346231310000000000000000000000000000000000000000000000000000000000000000000000000000000000000000000000000000000000010000000000000000000000000000000000000000000000000000000000000064",
        "nonce": "0x5fa",
        "chainId": "0x66eee"
      },
      "additionalContracts": [],
      "isFixedGasLimit": false
    },
    {
      "hash": "0x0cca798bda67d1ef246988e8554a1eb694eff790ece8b136493e92c72180887b",
      "transactionType": "CALL",
      "contractName": "FeeManager",
      "contractAddress": "0xc4edb1cbb639143a6faa63b7caf194ce53d88d29",
      "function": "addFeeToken(string,string[],uint256[])",
      "arguments": [
        "2484",
        "[0xbf5356ade7e5f775659f301b07c4bc6961044b11]",
        "[100]"
      ],
      "transaction": {
        "from": "0xe62ab4d111f968660c6b2188046f9b9ba53c4bae",
        "to": "0xc4edb1cbb639143a6faa63b7caf194ce53d88d29",
        "gas": "0x299df",
        "value": "0x0",
        "input": "0x437bf84f000000000000000000000000000000000000000000000000000000000000006000000000000000000000000000000000000000000000000000000000000000a000000000000000000000000000000000000000000000000000000000000001400000000000000000000000000000000000000000000000000000000000000004323438340000000000000000000000000000000000000000000000000000000000000000000000000000000000000000000000000000000000000000000000010000000000000000000000000000000000000000000000000000000000000020000000000000000000000000000000000000000000000000000000000000002a3078626635333536616465376535663737353635396633303162303763346263363936313034346231310000000000000000000000000000000000000000000000000000000000000000000000000000000000000000000000000000000000010000000000000000000000000000000000000000000000000000000000000064",
        "nonce": "0x5fb",
        "chainId": "0x66eee"
      },
      "additionalContracts": [],
      "isFixedGasLimit": false
    },
    {
      "hash": "0xad06eab3d5a97a5ab490fa192b0a4330a6d824541cfd36dfd02b22a226b9062b",
      "transactionType": "CALL",
      "contractName": "FeeManager",
      "contractAddress": "0xc4edb1cbb639143a6faa63b7caf194ce53d88d29",
      "function": "addFeeToken(string,string[],uint256[])",
      "arguments": [
        "1946",
        "[0xbf5356ade7e5f775659f301b07c4bc6961044b11]",
        "[100]"
      ],
      "transaction": {
        "from": "0xe62ab4d111f968660c6b2188046f9b9ba53c4bae",
        "to": "0xc4edb1cbb639143a6faa63b7caf194ce53d88d29",
        "gas": "0x299df",
        "value": "0x0",
        "input": "0x437bf84f000000000000000000000000000000000000000000000000000000000000006000000000000000000000000000000000000000000000000000000000000000a000000000000000000000000000000000000000000000000000000000000001400000000000000000000000000000000000000000000000000000000000000004313934360000000000000000000000000000000000000000000000000000000000000000000000000000000000000000000000000000000000000000000000010000000000000000000000000000000000000000000000000000000000000020000000000000000000000000000000000000000000000000000000000000002a3078626635333536616465376535663737353635396633303162303763346263363936313034346231310000000000000000000000000000000000000000000000000000000000000000000000000000000000000000000000000000000000010000000000000000000000000000000000000000000000000000000000000064",
        "nonce": "0x5fc",
        "chainId": "0x66eee"
      },
      "additionalContracts": [],
      "isFixedGasLimit": false
    },
    {
      "hash": "0xc185f0aab00998ef1a11be7fe8ef8ff0c7d1dcac02fd02c3b82e810d0dd20b8a",
      "transactionType": "CALL",
      "contractName": "FeeManager",
      "contractAddress": "0xc4edb1cbb639143a6faa63b7caf194ce53d88d29",
      "function": "addFeeToken(string,string[],uint256[])",
      "arguments": [
        "5611",
        "[0xbf5356ade7e5f775659f301b07c4bc6961044b11]",
        "[100]"
      ],
      "transaction": {
        "from": "0xe62ab4d111f968660c6b2188046f9b9ba53c4bae",
        "to": "0xc4edb1cbb639143a6faa63b7caf194ce53d88d29",
        "gas": "0x299df",
        "value": "0x0",
        "input": "0x437bf84f000000000000000000000000000000000000000000000000000000000000006000000000000000000000000000000000000000000000000000000000000000a000000000000000000000000000000000000000000000000000000000000001400000000000000000000000000000000000000000000000000000000000000004353631310000000000000000000000000000000000000000000000000000000000000000000000000000000000000000000000000000000000000000000000010000000000000000000000000000000000000000000000000000000000000020000000000000000000000000000000000000000000000000000000000000002a3078626635333536616465376535663737353635396633303162303763346263363936313034346231310000000000000000000000000000000000000000000000000000000000000000000000000000000000000000000000000000000000010000000000000000000000000000000000000000000000000000000000000064",
        "nonce": "0x5fd",
        "chainId": "0x66eee"
      },
      "additionalContracts": [],
      "isFixedGasLimit": false
    },
    {
      "hash": "0xc4dcce187a67fbcc6c9991812051fb1f3300884391b15acd0a7671dea0804fc2",
      "transactionType": "CALL",
      "contractName": "FeeManager",
      "contractAddress": "0xc4edb1cbb639143a6faa63b7caf194ce53d88d29",
      "function": "addFeeToken(string,string[],uint256[])",
      "arguments": [
        "64165",
        "[0xbf5356ade7e5f775659f301b07c4bc6961044b11]",
        "[100]"
      ],
      "transaction": {
        "from": "0xe62ab4d111f968660c6b2188046f9b9ba53c4bae",
        "to": "0xc4edb1cbb639143a6faa63b7caf194ce53d88d29",
        "gas": "0x2c342",
        "value": "0x0",
        "input": "0x437bf84f000000000000000000000000000000000000000000000000000000000000006000000000000000000000000000000000000000000000000000000000000000a000000000000000000000000000000000000000000000000000000000000001400000000000000000000000000000000000000000000000000000000000000005363431363500000000000000000000000000000000000000000000000000000000000000000000000000000000000000000000000000000000000000000000010000000000000000000000000000000000000000000000000000000000000020000000000000000000000000000000000000000000000000000000000000002a3078626635333536616465376535663737353635396633303162303763346263363936313034346231310000000000000000000000000000000000000000000000000000000000000000000000000000000000000000000000000000000000010000000000000000000000000000000000000000000000000000000000000064",
        "nonce": "0x5fe",
        "chainId": "0x66eee"
      },
      "additionalContracts": [],
      "isFixedGasLimit": false
    },
    {
      "hash": "0x87b2cda6b7857b430389d613da6b71e673e439ba69389929374f094ee570a148",
      "transactionType": "CALL",
      "contractName": "FeeManager",
      "contractAddress": "0xc4edb1cbb639143a6faa63b7caf194ce53d88d29",
      "function": "addFeeToken(string,string[],uint256[])",
      "arguments": [
        "997",
        "[0xbf5356ade7e5f775659f301b07c4bc6961044b11]",
        "[100]"
      ],
      "transaction": {
        "from": "0xe62ab4d111f968660c6b2188046f9b9ba53c4bae",
        "to": "0xc4edb1cbb639143a6faa63b7caf194ce53d88d29",
        "gas": "0x2bed3",
        "value": "0x0",
        "input": "0x437bf84f000000000000000000000000000000000000000000000000000000000000006000000000000000000000000000000000000000000000000000000000000000a000000000000000000000000000000000000000000000000000000000000001400000000000000000000000000000000000000000000000000000000000000003393937000000000000000000000000000000000000000000000000000000000000000000000000000000000000000000000000000000000000000000000000010000000000000000000000000000000000000000000000000000000000000020000000000000000000000000000000000000000000000000000000000000002a3078626635333536616465376535663737353635396633303162303763346263363936313034346231310000000000000000000000000000000000000000000000000000000000000000000000000000000000000000000000000000000000010000000000000000000000000000000000000000000000000000000000000064",
        "nonce": "0x5ff",
        "chainId": "0x66eee"
      },
      "additionalContracts": [],
      "isFixedGasLimit": false
    },
    {
      "hash": "0x3d45fabe3cfadfc2b5ef4808906bd7bdef59cdfc2d772c49db235e79e4093d28",
      "transactionType": "CALL",
      "contractName": "FeeManager",
      "contractAddress": "0xc4edb1cbb639143a6faa63b7caf194ce53d88d29",
      "function": "addFeeToken(string,string[],uint256[])",
      "arguments": [
        "14853",
        "[0xbf5356ade7e5f775659f301b07c4bc6961044b11]",
        "[100]"
      ],
      "transaction": {
        "from": "0xe62ab4d111f968660c6b2188046f9b9ba53c4bae",
        "to": "0xc4edb1cbb639143a6faa63b7caf194ce53d88d29",
        "gas": "0x2c342",
        "value": "0x0",
        "input": "0x437bf84f000000000000000000000000000000000000000000000000000000000000006000000000000000000000000000000000000000000000000000000000000000a000000000000000000000000000000000000000000000000000000000000001400000000000000000000000000000000000000000000000000000000000000005313438353300000000000000000000000000000000000000000000000000000000000000000000000000000000000000000000000000000000000000000000010000000000000000000000000000000000000000000000000000000000000020000000000000000000000000000000000000000000000000000000000000002a3078626635333536616465376535663737353635396633303162303763346263363936313034346231310000000000000000000000000000000000000000000000000000000000000000000000000000000000000000000000000000000000010000000000000000000000000000000000000000000000000000000000000064",
        "nonce": "0x600",
        "chainId": "0x66eee"
      },
      "additionalContracts": [],
      "isFixedGasLimit": false
    },
    {
      "hash": "0x634cd5d1482a9523dcf4874d0e6c34b7da768944f13a2d582b87e48e1d4b7ed1",
      "transactionType": "CALL",
      "contractName": "FeeManager",
      "contractAddress": "0xc4edb1cbb639143a6faa63b7caf194ce53d88d29",
      "function": "addFeeToken(string,string[],uint256[])",
      "arguments": [
        "338",
        "[0xbf5356ade7e5f775659f301b07c4bc6961044b11]",
        "[100]"
      ],
      "transaction": {
        "from": "0xe62ab4d111f968660c6b2188046f9b9ba53c4bae",
        "to": "0xc4edb1cbb639143a6faa63b7caf194ce53d88d29",
        "gas": "0x2bed3",
        "value": "0x0",
        "input": "0x437bf84f000000000000000000000000000000000000000000000000000000000000006000000000000000000000000000000000000000000000000000000000000000a000000000000000000000000000000000000000000000000000000000000001400000000000000000000000000000000000000000000000000000000000000003333338000000000000000000000000000000000000000000000000000000000000000000000000000000000000000000000000000000000000000000000000010000000000000000000000000000000000000000000000000000000000000020000000000000000000000000000000000000000000000000000000000000002a3078626635333536616465376535663737353635396633303162303763346263363936313034346231310000000000000000000000000000000000000000000000000000000000000000000000000000000000000000000000000000000000010000000000000000000000000000000000000000000000000000000000000064",
        "nonce": "0x601",
        "chainId": "0x66eee"
      },
      "additionalContracts": [],
      "isFixedGasLimit": false
    },
    {
      "hash": "0xf3c1b21252b51d96cf86f565d6537d1b3ca21048fa28da2d374c1c6a39c10237",
      "transactionType": "CALL",
      "contractName": "FeeManager",
      "contractAddress": "0xc4edb1cbb639143a6faa63b7caf194ce53d88d29",
      "function": "addFeeToken(string,string[],uint256[])",
      "arguments": [
        "97",
        "[0xbf5356ade7e5f775659f301b07c4bc6961044b11]",
        "[100]"
      ],
      "transaction": {
        "from": "0xe62ab4d111f968660c6b2188046f9b9ba53c4bae",
        "to": "0xc4edb1cbb639143a6faa63b7caf194ce53d88d29",
        "gas": "0x295af",
        "value": "0x0",
        "input": "0x437bf84f000000000000000000000000000000000000000000000000000000000000006000000000000000000000000000000000000000000000000000000000000000a000000000000000000000000000000000000000000000000000000000000001400000000000000000000000000000000000000000000000000000000000000002393700000000000000000000000000000000000000000000000000000000000000000000000000000000000000000000000000000000000000000000000000010000000000000000000000000000000000000000000000000000000000000020000000000000000000000000000000000000000000000000000000000000002a3078626635333536616465376535663737353635396633303162303763346263363936313034346231310000000000000000000000000000000000000000000000000000000000000000000000000000000000000000000000000000000000010000000000000000000000000000000000000000000000000000000000000064",
        "nonce": "0x602",
        "chainId": "0x66eee"
      },
      "additionalContracts": [],
      "isFixedGasLimit": false
    },
    {
      "hash": "0x6f6f322f40f3c1859262807634c0cc52eb204a71883fc603af4770a861e8cab3",
      "transactionType": "CALL",
      "contractName": "FeeManager",
      "contractAddress": "0xc4edb1cbb639143a6faa63b7caf194ce53d88d29",
      "function": "addFeeToken(string,string[],uint256[])",
      "arguments": [
        "11155111",
        "[0xbf5356ade7e5f775659f301b07c4bc6961044b11]",
        "[100]"
      ],
      "transaction": {
        "from": "0xe62ab4d111f968660c6b2188046f9b9ba53c4bae",
        "to": "0xc4edb1cbb639143a6faa63b7caf194ce53d88d29",
        "gas": "0x2a23f",
        "value": "0x0",
        "input": "0x437bf84f000000000000000000000000000000000000000000000000000000000000006000000000000000000000000000000000000000000000000000000000000000a000000000000000000000000000000000000000000000000000000000000001400000000000000000000000000000000000000000000000000000000000000008313131353531313100000000000000000000000000000000000000000000000000000000000000000000000000000000000000000000000000000000000000010000000000000000000000000000000000000000000000000000000000000020000000000000000000000000000000000000000000000000000000000000002a3078626635333536616465376535663737353635396633303162303763346263363936313034346231310000000000000000000000000000000000000000000000000000000000000000000000000000000000000000000000000000000000010000000000000000000000000000000000000000000000000000000000000064",
        "nonce": "0x603",
        "chainId": "0x66eee"
      },
      "additionalContracts": [],
      "isFixedGasLimit": false
    },
    {
      "hash": "0x873e5f74ed4d8b2d1ce45b8d30817787bfb99beaa43fb206e4f9f2d3939a9ebc",
      "transactionType": "CALL",
      "contractName": "CTMRWAGateway",
      "contractAddress": "0x20a9f9d7282c6fde913522a42c3951f5b18f62d5",
      "function": "addChainContract(string[],string[])",
      "arguments": [
        "[80002, 84532, 59141, 1115, 17000, 2810, 168587773, 200810, 534351, 5003, 4201, 80084, 1952959480, 78600, 1918988905, 2484, 1946, 5611, 64165, 997, 14853, 338, 97, 11155111]",
        "[0x114ace1c918409889464c2a714f8442a97934ccf, 0xf3a991cb19949cb6abd9e416f0408c648b6c36fa, 0x9266e8bf4943f2b366f2be89688a8622084db8b9, 0xf4e7a775c8abc8e0b7ed11d660b0a6b2e1b7a132, 0xf4e7a775c8abc8e0b7ed11d660b0a6b2e1b7a132, 0x9266e8bf4943f2b366f2be89688a8622084db8b9, 0x9266e8bf4943f2b366f2be89688a8622084db8b9, 0x64c5734e22cf8126c6367c0230b66788fbe4ab90, 0x9266e8bf4943f2b366f2be89688a8622084db8b9, 0x9266e8bf4943f2b366f2be89688a8622084db8b9, 0x2927d422cbea7f315ee3e0660af2ed9b35302004, 0xa42864da3ee7b05489ef1d99704089b734cb73a2, 0xd1f0743c665d80d6bdaf1b4b8c9e82bfd1ae1994, 0xeadb6779c7284a7ef6f611f4535e60c3d59b321b, 0x22c254662850f21bfb09714f6a5638d929439f8d, 0x9266e8bf4943f2b366f2be89688a8622084db8b9, 0x9266e8bf4943f2b366f2be89688a8622084db8b9, 0x9266e8bf4943f2b366f2be89688a8622084db8b9, 0xf4e7a775c8abc8e0b7ed11d660b0a6b2e1b7a132, 0xf4e7a775c8abc8e0b7ed11d660b0a6b2e1b7a132, 0x9266e8bf4943f2b366f2be89688a8622084db8b9, 0xae66c08b9d76eecaa74314c60f3305d43707acc9, 0xba08c3b81ed1a13e7a3457b6ab5dddba2df34df4, 0x10a04ad4a73c8bb00ee5a29b27d11eee85390306]"
      ],
      "transaction": {
        "from": "0xe62ab4d111f968660c6b2188046f9b9ba53c4bae",
        "to": "0x20a9f9d7282c6fde913522a42c3951f5b18f62d5",
        "gas": "0x4d6004",
        "value": "0x0",
        "input": "0x013fd3bd00000000000000000000000000000000000000000000000000000000000000400000000000000000000000000000000000000000000000000000000000000960000000000000000000000000000000000000000000000000000000000000001800000000000000000000000000000000000000000000000000000000000003000000000000000000000000000000000000000000000000000000000000000340000000000000000000000000000000000000000000000000000000000000038000000000000000000000000000000000000000000000000000000000000003c000000000000000000000000000000000000000000000000000000000000004000000000000000000000000000000000000000000000000000000000000000440000000000000000000000000000000000000000000000000000000000000048000000000000000000000000000000000000000000000000000000000000004c000000000000000000000000000000000000000000000000000000000000005000000000000000000000000000000000000000000000000000000000000000540000000000000000000000000000000000000000000000000000000000000058000000000000000000000000000000000000000000000000000000000000005c000000000000000000000000000000000000000000000000000000000000006000000000000000000000000000000000000000000000000000000000000000640000000000000000000000000000000000000000000000000000000000000068000000000000000000000000000000000000000000000000000000000000006c000000000000000000000000000000000000000000000000000000000000007000000000000000000000000000000000000000000000000000000000000000740000000000000000000000000000000000000000000000000000000000000078000000000000000000000000000000000000000000000000000000000000007c000000000000000000000000000000000000000000000000000000000000008000000000000000000000000000000000000000000000000000000000000000840000000000000000000000000000000000000000000000000000000000000088000000000000000000000000000000000000000000000000000000000000008c0000000000000000000000000000000000000000000000000000000000000000538303030320000000000000000000000000000000000000000000000000000000000000000000000000000000000000000000000000000000000000000000005383435333200000000000000000000000000000000000000000000000000000000000000000000000000000000000000000000000000000000000000000000053539313431000000000000000000000000000000000000000000000000000000000000000000000000000000000000000000000000000000000000000000000431313135000000000000000000000000000000000000000000000000000000000000000000000000000000000000000000000000000000000000000000000005313730303000000000000000000000000000000000000000000000000000000000000000000000000000000000000000000000000000000000000000000000043238313000000000000000000000000000000000000000000000000000000000000000000000000000000000000000000000000000000000000000000000000931363835383737373300000000000000000000000000000000000000000000000000000000000000000000000000000000000000000000000000000000000006323030383130000000000000000000000000000000000000000000000000000000000000000000000000000000000000000000000000000000000000000000063533343335310000000000000000000000000000000000000000000000000000000000000000000000000000000000000000000000000000000000000000000435303033000000000000000000000000000000000000000000000000000000000000000000000000000000000000000000000000000000000000000000000004343230310000000000000000000000000000000000000000000000000000000000000000000000000000000000000000000000000000000000000000000000053830303834000000000000000000000000000000000000000000000000000000000000000000000000000000000000000000000000000000000000000000000a313935323935393438300000000000000000000000000000000000000000000000000000000000000000000000000000000000000000000000000000000000053738363030000000000000000000000000000000000000000000000000000000000000000000000000000000000000000000000000000000000000000000000a313931383938383930350000000000000000000000000000000000000000000000000000000000000000000000000000000000000000000000000000000000043234383400000000000000000000000000000000000000000000000000000000000000000000000000000000000000000000000000000000000000000000000431393436000000000000000000000000000000000000000000000000000000000000000000000000000000000000000000000000000000000000000000000004353631310000000000000000000000000000000000000000000000000000000000000000000000000000000000000000000000000000000000000000000000053634313635000000000000000000000000000000000000000000000000000000000000000000000000000000000000000000000000000000000000000000000339393700000000000000000000000000000000000000000000000000000000000000000000000000000000000000000000000000000000000000000000000005313438353300000000000000000000000000000000000000000000000000000000000000000000000000000000000000000000000000000000000000000000033333380000000000000000000000000000000000000000000000000000000000000000000000000000000000000000000000000000000000000000000000000239370000000000000000000000000000000000000000000000000000000000000000000000000000000000000000000000000000000000000000000000000008313131353531313100000000000000000000000000000000000000000000000000000000000000000000000000000000000000000000000000000000000000180000000000000000000000000000000000000000000000000000000000000300000000000000000000000000000000000000000000000000000000000000036000000000000000000000000000000000000000000000000000000000000003c00000000000000000000000000000000000000000000000000000000000000420000000000000000000000000000000000000000000000000000000000000048000000000000000000000000000000000000000000000000000000000000004e0000000000000000000000000000000000000000000000000000000000000054000000000000000000000000000000000000000000000000000000000000005a00000000000000000000000000000000000000000000000000000000000000600000000000000000000000000000000000000000000000000000000000000066000000000000000000000000000000000000000000000000000000000000006c00000000000000000000000000000000000000000000000000000000000000720000000000000000000000000000000000000000000000000000000000000078000000000000000000000000000000000000000000000000000000000000007e0000000000000000000000000000000000000000000000000000000000000084000000000000000000000000000000000000000000000000000000000000008a00000000000000000000000000000000000000000000000000000000000000900000000000000000000000000000000000000000000000000000000000000096000000000000000000000000000000000000000000000000000000000000009c00000000000000000000000000000000000000000000000000000000000000a200000000000000000000000000000000000000000000000000000000000000a800000000000000000000000000000000000000000000000000000000000000ae00000000000000000000000000000000000000000000000000000000000000b400000000000000000000000000000000000000000000000000000000000000ba0000000000000000000000000000000000000000000000000000000000000002a30783131346163653163393138343039383839343634633261373134663834343261393739333463636600000000000000000000000000000000000000000000000000000000000000000000000000000000000000000000000000000000002a30786633613939316362313939343963623661626439653431366630343038633634386236633336666100000000000000000000000000000000000000000000000000000000000000000000000000000000000000000000000000000000002a30783932363665386266343934336632623336366632626538393638386138363232303834646238623900000000000000000000000000000000000000000000000000000000000000000000000000000000000000000000000000000000002a30786634653761373735633861626338653062376564313164363630623061366232653162376131333200000000000000000000000000000000000000000000000000000000000000000000000000000000000000000000000000000000002a30786634653761373735633861626338653062376564313164363630623061366232653162376131333200000000000000000000000000000000000000000000000000000000000000000000000000000000000000000000000000000000002a30783932363665386266343934336632623336366632626538393638386138363232303834646238623900000000000000000000000000000000000000000000000000000000000000000000000000000000000000000000000000000000002a30783932363665386266343934336632623336366632626538393638386138363232303834646238623900000000000000000000000000000000000000000000000000000000000000000000000000000000000000000000000000000000002a30783634633537333465323263663831323663363336376330323330623636373838666265346162393000000000000000000000000000000000000000000000000000000000000000000000000000000000000000000000000000000000002a30783932363665386266343934336632623336366632626538393638386138363232303834646238623900000000000000000000000000000000000000000000000000000000000000000000000000000000000000000000000000000000002a30783932363665386266343934336632623336366632626538393638386138363232303834646238623900000000000000000000000000000000000000000000000000000000000000000000000000000000000000000000000000000000002a30783239323764343232636265613766333135656533653036363061663265643962333533303230303400000000000000000000000000000000000000000000000000000000000000000000000000000000000000000000000000000000002a30786134323836346461336565376230353438396566316439393730343038396237333463623733613200000000000000000000000000000000000000000000000000000000000000000000000000000000000000000000000000000000002a30786431663037343363363635643830643662646166316234623863396538326266643161653139393400000000000000000000000000000000000000000000000000000000000000000000000000000000000000000000000000000000002a30786561646236373739633732383461376566366636313166343533356536306333643539623332316200000000000000000000000000000000000000000000000000000000000000000000000000000000000000000000000000000000002a30783232633235343636323835306632316266623039373134663661353633386439323934333966386400000000000000000000000000000000000000000000000000000000000000000000000000000000000000000000000000000000002a30783932363665386266343934336632623336366632626538393638386138363232303834646238623900000000000000000000000000000000000000000000000000000000000000000000000000000000000000000000000000000000002a30783932363665386266343934336632623336366632626538393638386138363232303834646238623900000000000000000000000000000000000000000000000000000000000000000000000000000000000000000000000000000000002a30783932363665386266343934336632623336366632626538393638386138363232303834646238623900000000000000000000000000000000000000000000000000000000000000000000000000000000000000000000000000000000002a30786634653761373735633861626338653062376564313164363630623061366232653162376131333200000000000000000000000000000000000000000000000000000000000000000000000000000000000000000000000000000000002a30786634653761373735633861626338653062376564313164363630623061366232653162376131333200000000000000000000000000000000000000000000000000000000000000000000000000000000000000000000000000000000002a30783932363665386266343934336632623336366632626538393638386138363232303834646238623900000000000000000000000000000000000000000000000000000000000000000000000000000000000000000000000000000000002a30786165363663303862396437366565636161373433313463363066333330356434333730376163633900000000000000000000000000000000000000000000000000000000000000000000000000000000000000000000000000000000002a30786261303863336238316564316131336537613334353762366162356464646261326466333464663400000000000000000000000000000000000000000000000000000000000000000000000000000000000000000000000000000000002a30783130613034616434613733633862623030656535613239623237643131656565383533393033303600000000000000000000000000000000000000000000",
        "nonce": "0x604",
        "chainId": "0x66eee"
      },
      "additionalContracts": [],
      "isFixedGasLimit": false
    },
    {
      "hash": "0x69196d6bc4e604ff39b5e90752c414bf0d0483d9b1521cb386c6e7b9bf518f61",
      "transactionType": "CALL",
      "contractName": "CTMRWAGateway",
      "contractAddress": "0x20a9f9d7282c6fde913522a42c3951f5b18f62d5",
      "function": "attachRWAX(uint256,uint256,string[],string[])",
      "arguments": [
        "1",
        "1",
        "[421614, 80002, 84532, 59141, 1115, 17000, 2810, 168587773, 200810, 534351, 5003, 4201, 80084, 1952959480, 78600, 1918988905, 2484, 1946, 5611, 64165, 997, 14853, 338, 97, 11155111]",
        "[0xd5870cb8400e75f2097f3af9fd37af0c758707e0, 0x88a23d9ec1a9f1100d807d0e8c7a39927d4a7897, 0xb5d1f61f6b9f0ca2b89eb9d693e8cd737076846a, 0xb5638019cbfc1b523d5167a269e755b05bf24fd9, 0x73943ec95aafbb4dd073b11f5c9701e5bc3708a6, 0x73943ec95aafbb4dd073b11f5c9701e5bc3708a6, 0xb5638019cbfc1b523d5167a269e755b05bf24fd9, 0xb5638019cbfc1b523d5167a269e755b05bf24fd9, 0xa4482df3a723654a599ba66d1b5091fd9c42ad05, 0xb5638019cbfc1b523d5167a269e755b05bf24fd9, 0xb5638019cbfc1b523d5167a269e755b05bf24fd9, 0x1b87108b35abb5751bfc64647e9d5cd1cb77e236, 0x67510816512511818b5047a4cce6e8f2ebb15d20, 0x9266e8bf4943f2b366f2be89688a8622084db8b9, 0x232c61b3d1a03cc57e976cccd0f9c9cd33a98fe0, 0x3abb2780b0bbf630490d155c4861f4e82c623246, 0xb5638019cbfc1b523d5167a269e755b05bf24fd9, 0xb5638019cbfc1b523d5167a269e755b05bf24fd9, 0xb5638019cbfc1b523d5167a269e755b05bf24fd9, 0x73943ec95aafbb4dd073b11f5c9701e5bc3708a6, 0x73943ec95aafbb4dd073b11f5c9701e5bc3708a6, 0xb5638019cbfc1b523d5167a269e755b05bf24fd9, 0x176cd7abf4919068d7fec79935c303b32b7dabe7, 0x21ea338975678968da85dea76f298e7f11a09334, 0x3af6a526dd51c8b08fd54dbb624e042bb3b0a77e]"
      ],
      "transaction": {
        "from": "0xe62ab4d111f968660c6b2188046f9b9ba53c4bae",
        "to": "0x20a9f9d7282c6fde913522a42c3951f5b18f62d5",
        "gas": "0x5e2b44",
        "value": "0x0",
        "input": "0x33a5f5b40000000000000000000000000000000000000000000000000000000000000001000000000000000000000000000000000000000000000000000000000000000100000000000000000000000000000000000000000000000000000000000000800000000000000000000000000000000000000000000000000000000000000a0000000000000000000000000000000000000000000000000000000000000000190000000000000000000000000000000000000000000000000000000000000320000000000000000000000000000000000000000000000000000000000000036000000000000000000000000000000000000000000000000000000000000003a000000000000000000000000000000000000000000000000000000000000003e00000000000000000000000000000000000000000000000000000000000000420000000000000000000000000000000000000000000000000000000000000046000000000000000000000000000000000000000000000000000000000000004a000000000000000000000000000000000000000000000000000000000000004e00000000000000000000000000000000000000000000000000000000000000520000000000000000000000000000000000000000000000000000000000000056000000000000000000000000000000000000000000000000000000000000005a000000000000000000000000000000000000000000000000000000000000005e00000000000000000000000000000000000000000000000000000000000000620000000000000000000000000000000000000000000000000000000000000066000000000000000000000000000000000000000000000000000000000000006a000000000000000000000000000000000000000000000000000000000000006e00000000000000000000000000000000000000000000000000000000000000720000000000000000000000000000000000000000000000000000000000000076000000000000000000000000000000000000000000000000000000000000007a000000000000000000000000000000000000000000000000000000000000007e00000000000000000000000000000000000000000000000000000000000000820000000000000000000000000000000000000000000000000000000000000086000000000000000000000000000000000000000000000000000000000000008a000000000000000000000000000000000000000000000000000000000000008e0000000000000000000000000000000000000000000000000000000000000092000000000000000000000000000000000000000000000000000000000000000063432313631340000000000000000000000000000000000000000000000000000000000000000000000000000000000000000000000000000000000000000000538303030320000000000000000000000000000000000000000000000000000000000000000000000000000000000000000000000000000000000000000000005383435333200000000000000000000000000000000000000000000000000000000000000000000000000000000000000000000000000000000000000000000053539313431000000000000000000000000000000000000000000000000000000000000000000000000000000000000000000000000000000000000000000000431313135000000000000000000000000000000000000000000000000000000000000000000000000000000000000000000000000000000000000000000000005313730303000000000000000000000000000000000000000000000000000000000000000000000000000000000000000000000000000000000000000000000043238313000000000000000000000000000000000000000000000000000000000000000000000000000000000000000000000000000000000000000000000000931363835383737373300000000000000000000000000000000000000000000000000000000000000000000000000000000000000000000000000000000000006323030383130000000000000000000000000000000000000000000000000000000000000000000000000000000000000000000000000000000000000000000063533343335310000000000000000000000000000000000000000000000000000000000000000000000000000000000000000000000000000000000000000000435303033000000000000000000000000000000000000000000000000000000000000000000000000000000000000000000000000000000000000000000000004343230310000000000000000000000000000000000000000000000000000000000000000000000000000000000000000000000000000000000000000000000053830303834000000000000000000000000000000000000000000000000000000000000000000000000000000000000000000000000000000000000000000000a313935323935393438300000000000000000000000000000000000000000000000000000000000000000000000000000000000000000000000000000000000053738363030000000000000000000000000000000000000000000000000000000000000000000000000000000000000000000000000000000000000000000000a313931383938383930350000000000000000000000000000000000000000000000000000000000000000000000000000000000000000000000000000000000043234383400000000000000000000000000000000000000000000000000000000000000000000000000000000000000000000000000000000000000000000000431393436000000000000000000000000000000000000000000000000000000000000000000000000000000000000000000000000000000000000000000000004353631310000000000000000000000000000000000000000000000000000000000000000000000000000000000000000000000000000000000000000000000053634313635000000000000000000000000000000000000000000000000000000000000000000000000000000000000000000000000000000000000000000000339393700000000000000000000000000000000000000000000000000000000000000000000000000000000000000000000000000000000000000000000000005313438353300000000000000000000000000000000000000000000000000000000000000000000000000000000000000000000000000000000000000000000033333380000000000000000000000000000000000000000000000000000000000000000000000000000000000000000000000000000000000000000000000000239370000000000000000000000000000000000000000000000000000000000000000000000000000000000000000000000000000000000000000000000000008313131353531313100000000000000000000000000000000000000000000000000000000000000000000000000000000000000000000000000000000000000190000000000000000000000000000000000000000000000000000000000000320000000000000000000000000000000000000000000000000000000000000038000000000000000000000000000000000000000000000000000000000000003e0000000000000000000000000000000000000000000000000000000000000044000000000000000000000000000000000000000000000000000000000000004a00000000000000000000000000000000000000000000000000000000000000500000000000000000000000000000000000000000000000000000000000000056000000000000000000000000000000000000000000000000000000000000005c00000000000000000000000000000000000000000000000000000000000000620000000000000000000000000000000000000000000000000000000000000068000000000000000000000000000000000000000000000000000000000000006e0000000000000000000000000000000000000000000000000000000000000074000000000000000000000000000000000000000000000000000000000000007a00000000000000000000000000000000000000000000000000000000000000800000000000000000000000000000000000000000000000000000000000000086000000000000000000000000000000000000000000000000000000000000008c00000000000000000000000000000000000000000000000000000000000000920000000000000000000000000000000000000000000000000000000000000098000000000000000000000000000000000000000000000000000000000000009e00000000000000000000000000000000000000000000000000000000000000a400000000000000000000000000000000000000000000000000000000000000aa00000000000000000000000000000000000000000000000000000000000000b000000000000000000000000000000000000000000000000000000000000000b600000000000000000000000000000000000000000000000000000000000000bc00000000000000000000000000000000000000000000000000000000000000c20000000000000000000000000000000000000000000000000000000000000002a30786435383730636238343030653735663230393766336166396664333761663063373538373037653000000000000000000000000000000000000000000000000000000000000000000000000000000000000000000000000000000000002a30783838613233643965633161396631313030643830376430653863376133393932376434613738393700000000000000000000000000000000000000000000000000000000000000000000000000000000000000000000000000000000002a30786235643166363166366239663063613262383965623964363933653863643733373037363834366100000000000000000000000000000000000000000000000000000000000000000000000000000000000000000000000000000000002a30786235363338303139636266633162353233643531363761323639653735356230356266323466643900000000000000000000000000000000000000000000000000000000000000000000000000000000000000000000000000000000002a30783733393433656339356161666262346464303733623131663563393730316535626333373038613600000000000000000000000000000000000000000000000000000000000000000000000000000000000000000000000000000000002a30783733393433656339356161666262346464303733623131663563393730316535626333373038613600000000000000000000000000000000000000000000000000000000000000000000000000000000000000000000000000000000002a30786235363338303139636266633162353233643531363761323639653735356230356266323466643900000000000000000000000000000000000000000000000000000000000000000000000000000000000000000000000000000000002a30786235363338303139636266633162353233643531363761323639653735356230356266323466643900000000000000000000000000000000000000000000000000000000000000000000000000000000000000000000000000000000002a30786134343832646633613732333635346135393962613636643162353039316664396334326164303500000000000000000000000000000000000000000000000000000000000000000000000000000000000000000000000000000000002a30786235363338303139636266633162353233643531363761323639653735356230356266323466643900000000000000000000000000000000000000000000000000000000000000000000000000000000000000000000000000000000002a30786235363338303139636266633162353233643531363761323639653735356230356266323466643900000000000000000000000000000000000000000000000000000000000000000000000000000000000000000000000000000000002a30783162383731303862333561626235373531626663363436343765396435636431636237376532333600000000000000000000000000000000000000000000000000000000000000000000000000000000000000000000000000000000002a30783637353130383136353132353131383138623530343761346363653665386632656262313564323000000000000000000000000000000000000000000000000000000000000000000000000000000000000000000000000000000000002a30783932363665386266343934336632623336366632626538393638386138363232303834646238623900000000000000000000000000000000000000000000000000000000000000000000000000000000000000000000000000000000002a30783233326336316233643161303363633537653937366363636430663963396364333361393866653000000000000000000000000000000000000000000000000000000000000000000000000000000000000000000000000000000000002a30783361626232373830623062626636333034393064313535633438363166346538326336323332343600000000000000000000000000000000000000000000000000000000000000000000000000000000000000000000000000000000002a30786235363338303139636266633162353233643531363761323639653735356230356266323466643900000000000000000000000000000000000000000000000000000000000000000000000000000000000000000000000000000000002a30786235363338303139636266633162353233643531363761323639653735356230356266323466643900000000000000000000000000000000000000000000000000000000000000000000000000000000000000000000000000000000002a30786235363338303139636266633162353233643531363761323639653735356230356266323466643900000000000000000000000000000000000000000000000000000000000000000000000000000000000000000000000000000000002a30783733393433656339356161666262346464303733623131663563393730316535626333373038613600000000000000000000000000000000000000000000000000000000000000000000000000000000000000000000000000000000002a30783733393433656339356161666262346464303733623131663563393730316535626333373038613600000000000000000000000000000000000000000000000000000000000000000000000000000000000000000000000000000000002a30786235363338303139636266633162353233643531363761323639653735356230356266323466643900000000000000000000000000000000000000000000000000000000000000000000000000000000000000000000000000000000002a30783137366364376162663439313930363864376665633739393335633330336233326237646162653700000000000000000000000000000000000000000000000000000000000000000000000000000000000000000000000000000000002a30783231656133333839373536373839363864613835646561373666323938653766313161303933333400000000000000000000000000000000000000000000000000000000000000000000000000000000000000000000000000000000002a30783361663661353236646435316338623038666435346462623632346530343262623362306137376500000000000000000000000000000000000000000000",
        "nonce": "0x605",
        "chainId": "0x66eee"
      },
      "additionalContracts": [],
      "isFixedGasLimit": false
    },
    {
      "hash": "0x7f74e21f72e966880f46809a682a5941135478726747c84a123b852fcc5a8f2f",
      "transactionType": "CALL",
      "contractName": "CTMRWAGateway",
      "contractAddress": "0x20a9f9d7282c6fde913522a42c3951f5b18f62d5",
      "function": "attachStorageManager(uint256,uint256,string[],string[])",
      "arguments": [
        "1",
        "1",
        "[421614, 80002, 84532, 59141, 1115, 17000, 2810, 168587773, 200810, 534351, 5003, 4201, 80084, 1952959480, 78600, 1918988905, 2484, 1946, 5611, 64165, 997, 14853, 338, 97, 11155111]",
        "[0x769139881024ce730de9de9c21e3ad6fb5a872f2, 0x95ae66ad780e73ef2d2a80611458883c950a1356, 0xf9229aceba228fdbb757a637eeebadb46fdb617e, 0xa240b0714712e2927ec055ceaa8e031ac671a55f, 0x4b17e8ee1cc1814636dde9ac12a42472799ccb64, 0x4b17e8ee1cc1814636dde9ac12a42472799ccb64, 0xa240b0714712e2927ec055ceaa8e031ac671a55f, 0xa240b0714712e2927ec055ceaa8e031ac671a55f, 0x048a5cefcdf0faeb734bc4a941e0de44d8c49f55, 0xa240b0714712e2927ec055ceaa8e031ac671a55f, 0xa240b0714712e2927ec055ceaa8e031ac671a55f, 0x3418a45e442210ec9579b074ae9acb13b2a67554, 0xa7c57315395def05f906310d590f4ea15308fe30, 0xde3fdb278b0ec3254e8701c38e58cfd1168f13a5, 0xc33b3317912d173806d782bfade797f262d9a4bd, 0x56249f01cf2b50a7f211bb9de08b1480835f574a, 0xa240b0714712e2927ec055ceaa8e031ac671a55f, 0xa240b0714712e2927ec055ceaa8e031ac671a55f, 0xa240b0714712e2927ec055ceaa8e031ac671a55f, 0x4b17e8ee1cc1814636dde9ac12a42472799ccb64, 0x4b17e8ee1cc1814636dde9ac12a42472799ccb64, 0xa240b0714712e2927ec055ceaa8e031ac671a55f, 0xb8b99101c1dbfad6aa418220592773be082db804, 0x60a5b05db6c8eb0b47f8227ea3b04bd751b79dbc, 0x93def24108852be52b2c34084d584338e46ab8f4]"
      ],
      "transaction": {
        "from": "0xe62ab4d111f968660c6b2188046f9b9ba53c4bae",
        "to": "0x20a9f9d7282c6fde913522a42c3951f5b18f62d5",
        "gas": "0x521ed1",
        "value": "0x0",
        "input": "0x2f68b4890000000000000000000000000000000000000000000000000000000000000001000000000000000000000000000000000000000000000000000000000000000100000000000000000000000000000000000000000000000000000000000000800000000000000000000000000000000000000000000000000000000000000a0000000000000000000000000000000000000000000000000000000000000000190000000000000000000000000000000000000000000000000000000000000320000000000000000000000000000000000000000000000000000000000000036000000000000000000000000000000000000000000000000000000000000003a000000000000000000000000000000000000000000000000000000000000003e00000000000000000000000000000000000000000000000000000000000000420000000000000000000000000000000000000000000000000000000000000046000000000000000000000000000000000000000000000000000000000000004a000000000000000000000000000000000000000000000000000000000000004e00000000000000000000000000000000000000000000000000000000000000520000000000000000000000000000000000000000000000000000000000000056000000000000000000000000000000000000000000000000000000000000005a000000000000000000000000000000000000000000000000000000000000005e00000000000000000000000000000000000000000000000000000000000000620000000000000000000000000000000000000000000000000000000000000066000000000000000000000000000000000000000000000000000000000000006a000000000000000000000000000000000000000000000000000000000000006e00000000000000000000000000000000000000000000000000000000000000720000000000000000000000000000000000000000000000000000000000000076000000000000000000000000000000000000000000000000000000000000007a000000000000000000000000000000000000000000000000000000000000007e00000000000000000000000000000000000000000000000000000000000000820000000000000000000000000000000000000000000000000000000000000086000000000000000000000000000000000000000000000000000000000000008a000000000000000000000000000000000000000000000000000000000000008e0000000000000000000000000000000000000000000000000000000000000092000000000000000000000000000000000000000000000000000000000000000063432313631340000000000000000000000000000000000000000000000000000000000000000000000000000000000000000000000000000000000000000000538303030320000000000000000000000000000000000000000000000000000000000000000000000000000000000000000000000000000000000000000000005383435333200000000000000000000000000000000000000000000000000000000000000000000000000000000000000000000000000000000000000000000053539313431000000000000000000000000000000000000000000000000000000000000000000000000000000000000000000000000000000000000000000000431313135000000000000000000000000000000000000000000000000000000000000000000000000000000000000000000000000000000000000000000000005313730303000000000000000000000000000000000000000000000000000000000000000000000000000000000000000000000000000000000000000000000043238313000000000000000000000000000000000000000000000000000000000000000000000000000000000000000000000000000000000000000000000000931363835383737373300000000000000000000000000000000000000000000000000000000000000000000000000000000000000000000000000000000000006323030383130000000000000000000000000000000000000000000000000000000000000000000000000000000000000000000000000000000000000000000063533343335310000000000000000000000000000000000000000000000000000000000000000000000000000000000000000000000000000000000000000000435303033000000000000000000000000000000000000000000000000000000000000000000000000000000000000000000000000000000000000000000000004343230310000000000000000000000000000000000000000000000000000000000000000000000000000000000000000000000000000000000000000000000053830303834000000000000000000000000000000000000000000000000000000000000000000000000000000000000000000000000000000000000000000000a313935323935393438300000000000000000000000000000000000000000000000000000000000000000000000000000000000000000000000000000000000053738363030000000000000000000000000000000000000000000000000000000000000000000000000000000000000000000000000000000000000000000000a313931383938383930350000000000000000000000000000000000000000000000000000000000000000000000000000000000000000000000000000000000043234383400000000000000000000000000000000000000000000000000000000000000000000000000000000000000000000000000000000000000000000000431393436000000000000000000000000000000000000000000000000000000000000000000000000000000000000000000000000000000000000000000000004353631310000000000000000000000000000000000000000000000000000000000000000000000000000000000000000000000000000000000000000000000053634313635000000000000000000000000000000000000000000000000000000000000000000000000000000000000000000000000000000000000000000000339393700000000000000000000000000000000000000000000000000000000000000000000000000000000000000000000000000000000000000000000000005313438353300000000000000000000000000000000000000000000000000000000000000000000000000000000000000000000000000000000000000000000033333380000000000000000000000000000000000000000000000000000000000000000000000000000000000000000000000000000000000000000000000000239370000000000000000000000000000000000000000000000000000000000000000000000000000000000000000000000000000000000000000000000000008313131353531313100000000000000000000000000000000000000000000000000000000000000000000000000000000000000000000000000000000000000190000000000000000000000000000000000000000000000000000000000000320000000000000000000000000000000000000000000000000000000000000038000000000000000000000000000000000000000000000000000000000000003e0000000000000000000000000000000000000000000000000000000000000044000000000000000000000000000000000000000000000000000000000000004a00000000000000000000000000000000000000000000000000000000000000500000000000000000000000000000000000000000000000000000000000000056000000000000000000000000000000000000000000000000000000000000005c00000000000000000000000000000000000000000000000000000000000000620000000000000000000000000000000000000000000000000000000000000068000000000000000000000000000000000000000000000000000000000000006e0000000000000000000000000000000000000000000000000000000000000074000000000000000000000000000000000000000000000000000000000000007a00000000000000000000000000000000000000000000000000000000000000800000000000000000000000000000000000000000000000000000000000000086000000000000000000000000000000000000000000000000000000000000008c00000000000000000000000000000000000000000000000000000000000000920000000000000000000000000000000000000000000000000000000000000098000000000000000000000000000000000000000000000000000000000000009e00000000000000000000000000000000000000000000000000000000000000a400000000000000000000000000000000000000000000000000000000000000aa00000000000000000000000000000000000000000000000000000000000000b000000000000000000000000000000000000000000000000000000000000000b600000000000000000000000000000000000000000000000000000000000000bc00000000000000000000000000000000000000000000000000000000000000c20000000000000000000000000000000000000000000000000000000000000002a30783736393133393838313032346365373330646539646539633231653361643666623561383732663200000000000000000000000000000000000000000000000000000000000000000000000000000000000000000000000000000000002a30783935616536366164373830653733656632643261383036313134353838383363393530613133353600000000000000000000000000000000000000000000000000000000000000000000000000000000000000000000000000000000002a30786639323239616365626132323866646262373537613633376565656261646234366664623631376500000000000000000000000000000000000000000000000000000000000000000000000000000000000000000000000000000000002a30786132343062303731343731326532393237656330353563656161386530333161633637316135356600000000000000000000000000000000000000000000000000000000000000000000000000000000000000000000000000000000002a30783462313765386565316363313831343633366464653961633132613432343732373939636362363400000000000000000000000000000000000000000000000000000000000000000000000000000000000000000000000000000000002a30783462313765386565316363313831343633366464653961633132613432343732373939636362363400000000000000000000000000000000000000000000000000000000000000000000000000000000000000000000000000000000002a30786132343062303731343731326532393237656330353563656161386530333161633637316135356600000000000000000000000000000000000000000000000000000000000000000000000000000000000000000000000000000000002a30786132343062303731343731326532393237656330353563656161386530333161633637316135356600000000000000000000000000000000000000000000000000000000000000000000000000000000000000000000000000000000002a30783034386135636566636466306661656237333462633461393431653064653434643863343966353500000000000000000000000000000000000000000000000000000000000000000000000000000000000000000000000000000000002a30786132343062303731343731326532393237656330353563656161386530333161633637316135356600000000000000000000000000000000000000000000000000000000000000000000000000000000000000000000000000000000002a30786132343062303731343731326532393237656330353563656161386530333161633637316135356600000000000000000000000000000000000000000000000000000000000000000000000000000000000000000000000000000000002a30783334313861343565343432323130656339353739623037346165396163623133623261363735353400000000000000000000000000000000000000000000000000000000000000000000000000000000000000000000000000000000002a30786137633537333135333935646566303566393036333130643539306634656131353330386665333000000000000000000000000000000000000000000000000000000000000000000000000000000000000000000000000000000000002a30786465336664623237386230656333323534653837303163333865353863666431313638663133613500000000000000000000000000000000000000000000000000000000000000000000000000000000000000000000000000000000002a30786333336233333137393132643137333830366437383262666164653739376632363264396134626400000000000000000000000000000000000000000000000000000000000000000000000000000000000000000000000000000000002a30783536323439663031636632623530613766323131626239646530386231343830383335663537346100000000000000000000000000000000000000000000000000000000000000000000000000000000000000000000000000000000002a30786132343062303731343731326532393237656330353563656161386530333161633637316135356600000000000000000000000000000000000000000000000000000000000000000000000000000000000000000000000000000000002a30786132343062303731343731326532393237656330353563656161386530333161633637316135356600000000000000000000000000000000000000000000000000000000000000000000000000000000000000000000000000000000002a30786132343062303731343731326532393237656330353563656161386530333161633637316135356600000000000000000000000000000000000000000000000000000000000000000000000000000000000000000000000000000000002a30783462313765386565316363313831343633366464653961633132613432343732373939636362363400000000000000000000000000000000000000000000000000000000000000000000000000000000000000000000000000000000002a30783462313765386565316363313831343633366464653961633132613432343732373939636362363400000000000000000000000000000000000000000000000000000000000000000000000000000000000000000000000000000000002a30786132343062303731343731326532393237656330353563656161386530333161633637316135356600000000000000000000000000000000000000000000000000000000000000000000000000000000000000000000000000000000002a30786238623939313031633164626661643661613431383232303539323737336265303832646238303400000000000000000000000000000000000000000000000000000000000000000000000000000000000000000000000000000000002a30783630613562303564623663386562306234376638323237656133623034626437353162373964626300000000000000000000000000000000000000000000000000000000000000000000000000000000000000000000000000000000002a30783933646566323431303838353262653532623263333430383464353834333338653436616238663400000000000000000000000000000000000000000000",
        "nonce": "0x606",
        "chainId": "0x66eee"
      },
      "additionalContracts": [],
      "isFixedGasLimit": false
    }
  ],
  "receipts": [
    {
      "status": "0x1",
      "cumulativeGasUsed": "0x14713",
      "logs": [],
      "logsBloom": "0x00000000000000000000000000000000000000000000000000000000000000000000000000000000000000000000000000000000000000000000000000000000000000000000000000000000000000000000000000000000000000000000000000000000000000000000000000000000000000000000000000000000000000000000000000000000000000000000000000000000000000000000000000000000000000000000000000000000000000000000000000000000000000000000000000000000000000000000000000000000000000000000000000000000000000000000000000000000000000000000000000000000000000000000000000000000",
      "type": "0x2",
      "transactionHash": "0x52801c7b273d8e81537a02d3b350b77cc5b35dfbdf450e2ddc05cee57c79a9d3",
      "transactionIndex": "0x1",
      "blockHash": "0xda19d5c6d147453dd765551e124d1d281b83647a6b7b5f96907fe865dfb505e3",
      "blockNumber": "0x6787786",
      "gasUsed": "0x14713",
      "effectiveGasPrice": "0x5f5e100",
      "from": "0xe62ab4d111f968660c6b2188046f9b9ba53c4bae",
      "to": "0xc4edb1cbb639143a6faa63b7caf194ce53d88d29",
      "contractAddress": null,
      "gasUsedForL1": "0xe860",
      "l1BlockNumber": "0x6f8f02"
    },
    {
      "status": "0x1",
      "cumulativeGasUsed": "0x3a082",
      "logs": [
        {
          "address": "0xc4edb1cbb639143a6faa63b7caf194ce53d88d29",
          "topics": [
            "0x1394cfab38f3fc78ed77ea6f9318782a446d96e7dc8e9a6b0149f6be25c08bcf",
            "0x000000000000000000000000bf5356ade7e5f775659f301b07c4bc6961044b11"
          ],
          "data": "0x",
          "blockHash": "0xe71b28520ae96776aca420ac58e88d707498ec4f67c1f29837871ff671c1515d",
          "blockNumber": "0x678778a",
          "transactionHash": "0xb388d8cf4237115f8eac31a564dae90b05191583c2561182146d2b010ec0c4b6",
          "transactionIndex": "0x1",
          "logIndex": "0x0",
          "removed": false
        }
      ],
      "logsBloom": "0x00000000000000000000000000000000000000000000000000000000000000000000000000000000000000000000000000000000000000000000000000000000000000000000000000000000000000000000001000000000000000000000000000000000000000000000000000000000000000200000000000000000000000000000000100000000008000000000000000000000000000000000000000000000400000000000000000000000000000000000000100000000000000000000000000040000000000000000000000000000000000000000000000000000000008000000000000020000000000000000000000000000000000000000000000000000",
      "type": "0x2",
      "transactionHash": "0xb388d8cf4237115f8eac31a564dae90b05191583c2561182146d2b010ec0c4b6",
      "transactionIndex": "0x1",
      "blockHash": "0xe71b28520ae96776aca420ac58e88d707498ec4f67c1f29837871ff671c1515d",
      "blockNumber": "0x678778a",
      "gasUsed": "0x3a082",
      "effectiveGasPrice": "0x5f5e100",
      "from": "0xe62ab4d111f968660c6b2188046f9b9ba53c4bae",
      "to": "0xc4edb1cbb639143a6faa63b7caf194ce53d88d29",
      "contractAddress": null,
      "gasUsedForL1": "0x1e448",
      "l1BlockNumber": "0x6f8f02"
    },
    {
      "status": "0x1",
      "cumulativeGasUsed": "0x22347",
      "logs": [],
      "logsBloom": "0x00000000000000000000000000000000000000000000000000000000000000000000000000000000000000000000000000000000000000000000000000000000000000000000000000000000000000000000000000000000000000000000000000000000000000000000000000000000000000000000000000000000000000000000000000000000000000000000000000000000000000000000000000000000000000000000000000000000000000000000000000000000000000000000000000000000000000000000000000000000000000000000000000000000000000000000000000000000000000000000000000000000000000000000000000000000",
      "type": "0x2",
      "transactionHash": "0x670da51f337a895ddab3eb378f91b58985e149e9ab75fa64a4d440f252e53bb4",
      "transactionIndex": "0x1",
      "blockHash": "0x95f3df405aa87cf8ab6b91ae2c070f5f4f0d6f7aadb5bba63ae2afc1e990a727",
      "blockNumber": "0x67877ab",
      "gasUsed": "0x22347",
      "effectiveGasPrice": "0x5f5e100",
      "from": "0xe62ab4d111f968660c6b2188046f9b9ba53c4bae",
      "to": "0xc4edb1cbb639143a6faa63b7caf194ce53d88d29",
      "contractAddress": null,
      "gasUsedForL1": "0x1674e",
      "l1BlockNumber": "0x6f8f02"
    },
    {
      "status": "0x1",
      "cumulativeGasUsed": "0x22370",
      "logs": [],
      "logsBloom": "0x00000000000000000000000000000000000000000000000000000000000000000000000000000000000000000000000000000000000000000000000000000000000000000000000000000000000000000000000000000000000000000000000000000000000000000000000000000000000000000000000000000000000000000000000000000000000000000000000000000000000000000000000000000000000000000000000000000000000000000000000000000000000000000000000000000000000000000000000000000000000000000000000000000000000000000000000000000000000000000000000000000000000000000000000000000000",
      "type": "0x2",
      "transactionHash": "0x40a211b748e3e9726fabeefce4f62e35cab31886031ac73f644cb2102767c71d",
      "transactionIndex": "0x1",
      "blockHash": "0x37d93de210641eeffb43d2599af71bcd7e089319855c3d2f7068c636dadc0c2b",
      "blockNumber": "0x67877cc",
      "gasUsed": "0x22370",
      "effectiveGasPrice": "0x5f5e100",
      "from": "0xe62ab4d111f968660c6b2188046f9b9ba53c4bae",
      "to": "0xc4edb1cbb639143a6faa63b7caf194ce53d88d29",
      "contractAddress": null,
      "gasUsedForL1": "0x1674e",
      "l1BlockNumber": "0x6f8f03"
    },
    {
      "status": "0x1",
      "cumulativeGasUsed": "0x1e909d",
      "logs": [],
      "logsBloom": "0x00000000000000000000000000000000000000000000000000000000000000000000000000000000000000000000000000000000000000000000000000000000000000000000000000000000000000000000000000000000000000000000000000000000000000000000000000000000000000000000000000000000000000000000000000000000000000000000000000000000000000000000000000000000000000000000000000000000000000000000000000000000000000000000000000000000000000000000000000000000000000000000000000000000000000000000000000000000000000000000000000000000000000000000000000000000",
      "type": "0x2",
      "transactionHash": "0x07995fa898e4eeb69859f61c64ad457609ccb3dc3f8d66dc722a585676afb2c0",
      "transactionIndex": "0x8",
      "blockHash": "0x47be2a9891524f5d20edc0bb7ef397b55c6f9e83b69c4a5f2d91952cf0f2bd9b",
      "blockNumber": "0x67877ec",
      "gasUsed": "0x22387",
      "effectiveGasPrice": "0x5f5e100",
      "from": "0xe62ab4d111f968660c6b2188046f9b9ba53c4bae",
      "to": "0xc4edb1cbb639143a6faa63b7caf194ce53d88d29",
      "contractAddress": null,
      "gasUsedForL1": "0x1674e",
      "l1BlockNumber": "0x6f8f04"
    },
    {
      "status": "0x1",
      "cumulativeGasUsed": "0x2239e",
      "logs": [],
      "logsBloom": "0x00000000000000000000000000000000000000000000000000000000000000000000000000000000000000000000000000000000000000000000000000000000000000000000000000000000000000000000000000000000000000000000000000000000000000000000000000000000000000000000000000000000000000000000000000000000000000000000000000000000000000000000000000000000000000000000000000000000000000000000000000000000000000000000000000000000000000000000000000000000000000000000000000000000000000000000000000000000000000000000000000000000000000000000000000000000",
      "type": "0x2",
      "transactionHash": "0x3e156c3f0c7181206530ee364371121b8d94f20883db9d8c04943b617ed2b606",
      "transactionIndex": "0x1",
      "blockHash": "0x3a49bbe9bcdbc1d9dccd77ed0ffda681939af7eb88efe54edcc2518c7ec8791b",
      "blockNumber": "0x678780d",
      "gasUsed": "0x2239e",
      "effectiveGasPrice": "0x5f5e100",
      "from": "0xe62ab4d111f968660c6b2188046f9b9ba53c4bae",
      "to": "0xc4edb1cbb639143a6faa63b7caf194ce53d88d29",
      "contractAddress": null,
      "gasUsedForL1": "0x1674e",
      "l1BlockNumber": "0x6f8f04"
    },
    {
      "status": "0x1",
      "cumulativeGasUsed": "0x36205",
      "logs": [],
      "logsBloom": "0x00000000000000000000000000000000000000000000000000000000000000000000000000000000000000000000000000000000000000000000000000000000000000000000000000000000000000000000000000000000000000000000000000000000000000000000000000000000000000000000000000000000000000000000000000000000000000000000000000000000000000000000000000000000000000000000000000000000000000000000000000000000000000000000000000000000000000000000000000000000000000000000000000000000000000000000000000000000000000000000000000000000000000000000000000000000",
      "type": "0x2",
      "transactionHash": "0xf251cdb6445523b4342fa710f0a2986aec8af2897946406fc64a8049b6aed7bc",
      "transactionIndex": "0x2",
      "blockHash": "0x28082f7a93004057f127c0f9ce9d32d3c4a1be8534f844a498b41c12e454dec3",
      "blockNumber": "0x6787811",
      "gasUsed": "0x223b5",
      "effectiveGasPrice": "0x5f5e100",
      "from": "0xe62ab4d111f968660c6b2188046f9b9ba53c4bae",
      "to": "0xc4edb1cbb639143a6faa63b7caf194ce53d88d29",
      "contractAddress": null,
      "gasUsedForL1": "0x1674e",
      "l1BlockNumber": "0x6f8f04"
    },
    {
      "status": "0x1",
      "cumulativeGasUsed": "0x107786",
      "logs": [],
      "logsBloom": "0x00000000000000000000000000000000000000000000000000000000000000000000000000000000000000000000000000000000000000000000000000000000000000000000000000000000000000000000000000000000000000000000000000000000000000000000000000000000000000000000000000000000000000000000000000000000000000000000000000000000000000000000000000000000000000000000000000000000000000000000000000000000000000000000000000000000000000000000000000000000000000000000000000000000000000000000000000000000000000000000000000000000000000000000000000000000",
      "type": "0x2",
      "transactionHash": "0xa82461ab4e8d947a52e8f02b2151e17b73beec5a8a010a32bb064867c7a629f8",
      "transactionIndex": "0x3",
      "blockHash": "0x1b04847f8b54dc76124ff432307ba27f89d4c3fc76e42d70dd95782f849e46b5",
      "blockNumber": "0x6787815",
      "gasUsed": "0x223cc",
      "effectiveGasPrice": "0x5f5e100",
      "from": "0xe62ab4d111f968660c6b2188046f9b9ba53c4bae",
      "to": "0xc4edb1cbb639143a6faa63b7caf194ce53d88d29",
      "contractAddress": null,
      "gasUsedForL1": "0x1674e",
      "l1BlockNumber": "0x6f8f04"
    },
    {
      "status": "0x1",
      "cumulativeGasUsed": "0x223e3",
      "logs": [],
      "logsBloom": "0x00000000000000000000000000000000000000000000000000000000000000000000000000000000000000000000000000000000000000000000000000000000000000000000000000000000000000000000000000000000000000000000000000000000000000000000000000000000000000000000000000000000000000000000000000000000000000000000000000000000000000000000000000000000000000000000000000000000000000000000000000000000000000000000000000000000000000000000000000000000000000000000000000000000000000000000000000000000000000000000000000000000000000000000000000000000",
      "type": "0x2",
      "transactionHash": "0x258543c4ca5e8e303798d76bfcf839a72845a3a138f3414e582a5f90d13aa89e",
      "transactionIndex": "0x1",
      "blockHash": "0xf5698dfcf277a7c9749a341fd69d45052fa4456b92c0bd365ffffa1c8a185175",
      "blockNumber": "0x6787819",
      "gasUsed": "0x223e3",
      "effectiveGasPrice": "0x5f5e100",
      "from": "0xe62ab4d111f968660c6b2188046f9b9ba53c4bae",
      "to": "0xc4edb1cbb639143a6faa63b7caf194ce53d88d29",
      "contractAddress": null,
      "gasUsedForL1": "0x1674e",
      "l1BlockNumber": "0x6f8f04"
    },
    {
      "status": "0x1",
      "cumulativeGasUsed": "0x82385",
      "logs": [],
      "logsBloom": "0x00000000000000000000000000000000000000000000000000000000000000000000000000000000000000000000000000000000000000000000000000000000000000000000000000000000000000000000000000000000000000000000000000000000000000000000000000000000000000000000000000000000000000000000000000000000000000000000000000000000000000000000000000000000000000000000000000000000000000000000000000000000000000000000000000000000000000000000000000000000000000000000000000000000000000000000000000000000000000000000000000000000000000000000000000000000",
      "type": "0x2",
      "transactionHash": "0x9507cf01b1e9269f840f171d3d67ddad799fa22af7cf2ad68ab9e109afb429a6",
      "transactionIndex": "0x2",
      "blockHash": "0x1d63964a44a4b2b82708381637042d8a6f28746952fbf21cab6377df7655525a",
      "blockNumber": "0x678781d",
      "gasUsed": "0x223fa",
      "effectiveGasPrice": "0x5f5e100",
      "from": "0xe62ab4d111f968660c6b2188046f9b9ba53c4bae",
      "to": "0xc4edb1cbb639143a6faa63b7caf194ce53d88d29",
      "contractAddress": null,
      "gasUsedForL1": "0x1674e",
      "l1BlockNumber": "0x6f8f04"
    },
    {
      "status": "0x1",
      "cumulativeGasUsed": "0x2254c2",
      "logs": [],
      "logsBloom": "0x00000000000000000000000000000000000000000000000000000000000000000000000000000000000000000000000000000000000000000000000000000000000000000000000000000000000000000000000000000000000000000000000000000000000000000000000000000000000000000000000000000000000000000000000000000000000000000000000000000000000000000000000000000000000000000000000000000000000000000000000000000000000000000000000000000000000000000000000000000000000000000000000000000000000000000000000000000000000000000000000000000000000000000000000000000000",
      "type": "0x2",
      "transactionHash": "0xd5ce3f502638e6754eda1379679e1507f3ffbed9b100624effea96dd8a3db295",
      "transactionIndex": "0x5",
      "blockHash": "0x428432ec60922f999b89aecfc5c22c80d97569142b78a306fac5f11f6de7728f",
      "blockNumber": "0x6787821",
      "gasUsed": "0x22411",
      "effectiveGasPrice": "0x5f5e100",
      "from": "0xe62ab4d111f968660c6b2188046f9b9ba53c4bae",
      "to": "0xc4edb1cbb639143a6faa63b7caf194ce53d88d29",
      "contractAddress": null,
      "gasUsedForL1": "0x1674e",
      "l1BlockNumber": "0x6f8f04"
    },
    {
      "status": "0x1",
      "cumulativeGasUsed": "0x11e93b",
      "logs": [],
      "logsBloom": "0x00000000000000000000000000000000000000000000000000000000000000000000000000000000000000000000000000000000000000000000000000000000000000000000000000000000000000000000000000000000000000000000000000000000000000000000000000000000000000000000000000000000000000000000000000000000000000000000000000000000000000000000000000000000000000000000000000000000000000000000000000000000000000000000000000000000000000000000000000000000000000000000000000000000000000000000000000000000000000000000000000000000000000000000000000000000",
      "type": "0x2",
      "transactionHash": "0x7a5a800f1138726cee75ece4bde5e323c42e39edd9cf73c6eb41fb64895a03fd",
      "transactionIndex": "0x8",
      "blockHash": "0x19441b4f9e3142f0871f1b8969e808faad9e5aae9ff091577bcd60cebf525ef1",
      "blockNumber": "0x6787842",
      "gasUsed": "0x22428",
      "effectiveGasPrice": "0x5f5e100",
      "from": "0xe62ab4d111f968660c6b2188046f9b9ba53c4bae",
      "to": "0xc4edb1cbb639143a6faa63b7caf194ce53d88d29",
      "contractAddress": null,
      "gasUsedForL1": "0x1674e",
      "l1BlockNumber": "0x6f8f06"
    },
    {
      "status": "0x1",
      "cumulativeGasUsed": "0x2243f",
      "logs": [],
      "logsBloom": "0x00000000000000000000000000000000000000000000000000000000000000000000000000000000000000000000000000000000000000000000000000000000000000000000000000000000000000000000000000000000000000000000000000000000000000000000000000000000000000000000000000000000000000000000000000000000000000000000000000000000000000000000000000000000000000000000000000000000000000000000000000000000000000000000000000000000000000000000000000000000000000000000000000000000000000000000000000000000000000000000000000000000000000000000000000000000",
      "type": "0x2",
      "transactionHash": "0xad414db02e7e7ca596f6aa3a46b107a395187346eab85f2694d708a9f988f7b7",
      "transactionIndex": "0x1",
      "blockHash": "0x7b6a4bbcb07ebbe441dc18c990527335f956c26a4de74ed3a673bc3649b69b5c",
      "blockNumber": "0x6787863",
      "gasUsed": "0x2243f",
      "effectiveGasPrice": "0x5f5e100",
      "from": "0xe62ab4d111f968660c6b2188046f9b9ba53c4bae",
      "to": "0xc4edb1cbb639143a6faa63b7caf194ce53d88d29",
      "contractAddress": null,
      "gasUsedForL1": "0x1674e",
      "l1BlockNumber": "0x6f8f07"
    },
    {
      "status": "0x1",
      "cumulativeGasUsed": "0x8f8dc",
      "logs": [],
      "logsBloom": "0x00000000000000000000000000000000000000000000000000000000000000000000000000000000000000000000000000000000000000000000000000000000000000000000000000000000000000000000000000000000000000000000000000000000000000000000000000000000000000000000000000000000000000000000000000000000000000000000000000000000000000000000000000000000000000000000000000000000000000000000000000000000000000000000000000000000000000000000000000000000000000000000000000000000000000000000000000000000000000000000000000000000000000000000000000000000",
      "type": "0x2",
      "transactionHash": "0xe82062cba43c8c21c023c2abfe68a1c680ff34030c6c31c8bb924c8ae1084588",
      "transactionIndex": "0x4",
      "blockHash": "0xcc4f28a2dad25eb04fa50782b99f5b9fe3eed13d94889408b52484e85fbd93e4",
      "blockNumber": "0x6787883",
      "gasUsed": "0x22456",
      "effectiveGasPrice": "0x5f5e100",
      "from": "0xe62ab4d111f968660c6b2188046f9b9ba53c4bae",
      "to": "0xc4edb1cbb639143a6faa63b7caf194ce53d88d29",
      "contractAddress": null,
      "gasUsedForL1": "0x1674e",
      "l1BlockNumber": "0x6f8f07"
    },
    {
      "status": "0x1",
      "cumulativeGasUsed": "0x2246d",
      "logs": [],
      "logsBloom": "0x00000000000000000000000000000000000000000000000000000000000000000000000000000000000000000000000000000000000000000000000000000000000000000000000000000000000000000000000000000000000000000000000000000000000000000000000000000000000000000000000000000000000000000000000000000000000000000000000000000000000000000000000000000000000000000000000000000000000000000000000000000000000000000000000000000000000000000000000000000000000000000000000000000000000000000000000000000000000000000000000000000000000000000000000000000000",
      "type": "0x2",
      "transactionHash": "0x36497797d727a20becb64754daa628d2f82ea21a5068bb6f424f2e6be39b9422",
      "transactionIndex": "0x1",
      "blockHash": "0x452d0b1c5804f74bd28fad8de47e42e37c9938c2cdea0304021e04e281646cb1",
      "blockNumber": "0x67878a4",
      "gasUsed": "0x2246d",
      "effectiveGasPrice": "0x5f5e100",
      "from": "0xe62ab4d111f968660c6b2188046f9b9ba53c4bae",
      "to": "0xc4edb1cbb639143a6faa63b7caf194ce53d88d29",
      "contractAddress": null,
      "gasUsedForL1": "0x1674e",
      "l1BlockNumber": "0x6f8f08"
    },
    {
      "status": "0x1",
      "cumulativeGasUsed": "0x80c40",
      "logs": [],
      "logsBloom": "0x00000000000000000000000000000000000000000000000000000000000000000000000000000000000000000000000000000000000000000000000000000000000000000000000000000000000000000000000000000000000000000000000000000000000000000000000000000000000000000000000000000000000000000000000000000000000000000000000000000000000000000000000000000000000000000000000000000000000000000000000000000000000000000000000000000000000000000000000000000000000000000000000000000000000000000000000000000000000000000000000000000000000000000000000000000000",
      "type": "0x2",
      "transactionHash": "0xed763f283119b84f071e147d5bf3af1d343fe2f77e77c123b066f7b61787639a",
      "transactionIndex": "0x3",
      "blockHash": "0xab3b25f24946b443487e83f8c5f5537cf94f1d81767e89888ff2caf3fea6f43a",
      "blockNumber": "0x67878c4",
      "gasUsed": "0x22484",
      "effectiveGasPrice": "0x5f5e100",
      "from": "0xe62ab4d111f968660c6b2188046f9b9ba53c4bae",
      "to": "0xc4edb1cbb639143a6faa63b7caf194ce53d88d29",
      "contractAddress": null,
      "gasUsedForL1": "0x1674e",
      "l1BlockNumber": "0x6f8f08"
    },
    {
      "status": "0x1",
      "cumulativeGasUsed": "0x5cc0c",
      "logs": [],
      "logsBloom": "0x00000000000000000000000000000000000000000000000000000000000000000000000000000000000000000000000000000000000000000000000000000000000000000000000000000000000000000000000000000000000000000000000000000000000000000000000000000000000000000000000000000000000000000000000000000000000000000000000000000000000000000000000000000000000000000000000000000000000000000000000000000000000000000000000000000000000000000000000000000000000000000000000000000000000000000000000000000000000000000000000000000000000000000000000000000000",
      "type": "0x2",
      "transactionHash": "0x9e7db17f8a640867a6cc9989b9488e19321f5798d73500195b79257650de5d25",
      "transactionIndex": "0x2",
      "blockHash": "0x37a11020d907207a121b492e1154578c5f57617b6faed1e8f7788ece8e4f9d1e",
      "blockNumber": "0x67878c9",
      "gasUsed": "0x2249b",
      "effectiveGasPrice": "0x5f5e100",
      "from": "0xe62ab4d111f968660c6b2188046f9b9ba53c4bae",
      "to": "0xc4edb1cbb639143a6faa63b7caf194ce53d88d29",
      "contractAddress": null,
      "gasUsedForL1": "0x1674e",
      "l1BlockNumber": "0x6f8f08"
    },
    {
      "status": "0x1",
      "cumulativeGasUsed": "0x224b2",
      "logs": [],
      "logsBloom": "0x00000000000000000000000000000000000000000000000000000000000000000000000000000000000000000000000000000000000000000000000000000000000000000000000000000000000000000000000000000000000000000000000000000000000000000000000000000000000000000000000000000000000000000000000000000000000000000000000000000000000000000000000000000000000000000000000000000000000000000000000000000000000000000000000000000000000000000000000000000000000000000000000000000000000000000000000000000000000000000000000000000000000000000000000000000000",
      "type": "0x2",
      "transactionHash": "0xa94041aa0899f7d095c9a6b3ba7be8db8b6c9fd8dde0833c803c7ce017205f7a",
      "transactionIndex": "0x1",
      "blockHash": "0xf29fbc64c414d119f64cde2d2983cf559d83c63ac1a96f439e6ef09f2c09ecb8",
      "blockNumber": "0x67878ea",
      "gasUsed": "0x224b2",
      "effectiveGasPrice": "0x5f5e100",
      "from": "0xe62ab4d111f968660c6b2188046f9b9ba53c4bae",
      "to": "0xc4edb1cbb639143a6faa63b7caf194ce53d88d29",
      "contractAddress": null,
      "gasUsedForL1": "0x1674e",
      "l1BlockNumber": "0x6f8f0a"
    },
    {
      "status": "0x1",
      "cumulativeGasUsed": "0xc82b3",
      "logs": [],
      "logsBloom": "0x00000000000000000000000000000000000000000000000000000000000000000000000000000000000000000000000000000000000000000000000000000000000000000000000000000000000000000000000000000000000000000000000000000000000000000000000000000000000000000000000000000000000000000000000000000000000000000000000000000000000000000000000000000000000000000000000000000000000000000000000000000000000000000000000000000000000000000000000000000000000000000000000000000000000000000000000000000000000000000000000000000000000000000000000000000000",
      "type": "0x2",
      "transactionHash": "0x56e608ab8a387395bc82342c7bc9a226cbf6b496dabc9c53c16ff4acc9ef66c5",
      "transactionIndex": "0x5",
      "blockHash": "0xf18f405d97e07d89b06699134f58e0e77640b87812566747b0ac39d82c718c44",
      "blockNumber": "0x678790a",
      "gasUsed": "0x224c9",
      "effectiveGasPrice": "0x5f5e100",
      "from": "0xe62ab4d111f968660c6b2188046f9b9ba53c4bae",
      "to": "0xc4edb1cbb639143a6faa63b7caf194ce53d88d29",
      "contractAddress": null,
      "gasUsedForL1": "0x1674e",
      "l1BlockNumber": "0x6f8f0a"
    },
    {
      "status": "0x1",
      "cumulativeGasUsed": "0xe5ccf",
      "logs": [],
      "logsBloom": "0x00000000000000000000000000000000000000000000000000000000000000000000000000000000000000000000000000000000000000000000000000000000000000000000000000000000000000000000000000000000000000000000000000000000000000000000000000000000000000000000000000000000000000000000000000000000000000000000000000000000000000000000000000000000000000000000000000000000000000000000000000000000000000000000000000000000000000000000000000000000000000000000000000000000000000000000000000000000000000000000000000000000000000000000000000000000",
      "type": "0x2",
      "transactionHash": "0xab120b5ab2c2cd76d4a1f7814d14bdbf87353501e3ab56a9faa9cbf86a0f5036",
      "transactionIndex": "0x4",
      "blockHash": "0x21326cc1aead38a31bd5b8744df58605c11da70cc1ac5ea367948dc8ed75ba7f",
      "blockNumber": "0x678792a",
      "gasUsed": "0x224e0",
      "effectiveGasPrice": "0x5f5e100",
      "from": "0xe62ab4d111f968660c6b2188046f9b9ba53c4bae",
      "to": "0xc4edb1cbb639143a6faa63b7caf194ce53d88d29",
      "contractAddress": null,
      "gasUsedForL1": "0x1674e",
      "l1BlockNumber": "0x6f8f0b"
    },
    {
      "status": "0x1",
      "cumulativeGasUsed": "0xe7a6c",
      "logs": [],
      "logsBloom": "0x00000000000000000000000000000000000000000000000000000000000000000000000000000000000000000000000000000000000000000000000000000000000000000000000000000000000000000000000000000000000000000000000000000000000000000000000000000000000000000000000000000000000000000000000000000000000000000000000000000000000000000000000000000000000000000000000000000000000000000000000000000000000000000000000000000000000000000000000000000000000000000000000000000000000000000000000000000000000000000000000000000000000000000000000000000000",
      "type": "0x2",
      "transactionHash": "0xb613576e9d6994d89e545a4e415fc616e527c3787d2f3d72f9e5d222e5109d27",
      "transactionIndex": "0x3",
      "blockHash": "0xd1c1f8a66a9554b24c0b891c37531b57f9d4bebe42e607c5f8d722b2b3c6cdfc",
      "blockNumber": "0x678794a",
      "gasUsed": "0x224f7",
      "effectiveGasPrice": "0x5f5e100",
      "from": "0xe62ab4d111f968660c6b2188046f9b9ba53c4bae",
      "to": "0xc4edb1cbb639143a6faa63b7caf194ce53d88d29",
      "contractAddress": null,
      "gasUsedForL1": "0x1674e",
      "l1BlockNumber": "0x6f8f0b"
    },
    {
      "status": "0x1",
      "cumulativeGasUsed": "0x4287d6",
      "logs": [],
      "logsBloom": "0x00000000000000000000000000000000000000000000000000000000000000000000000000000000000000000000000000000000000000000000000000000000000000000000000000000000000000000000000000000000000000000000000000000000000000000000000000000000000000000000000000000000000000000000000000000000000000000000000000000000000000000000000000000000000000000000000000000000000000000000000000000000000000000000000000000000000000000000000000000000000000000000000000000000000000000000000000000000000000000000000000000000000000000000000000000000",
      "type": "0x2",
      "transactionHash": "0xa249a08d4b711b2cd212cb06b38ac0bef3cde23b44d8dc8a63bd5c975ac4d44f",
      "transactionIndex": "0x9",
      "blockHash": "0x179d01082c8eef60cf728ca775b04a9a4d7416dc7f47d9d4509e06bef80fcf8e",
      "blockNumber": "0x678796a",
      "gasUsed": "0x2250e",
      "effectiveGasPrice": "0x5f5e100",
      "from": "0xe62ab4d111f968660c6b2188046f9b9ba53c4bae",
      "to": "0xc4edb1cbb639143a6faa63b7caf194ce53d88d29",
      "contractAddress": null,
      "gasUsedForL1": "0x1674e",
      "l1BlockNumber": "0x6f8f0c"
    },
    {
      "status": "0x1",
      "cumulativeGasUsed": "0x48a9e",
      "logs": [],
      "logsBloom": "0x00000000000000000000000000000000000000000000000000000000000000000000000000000000000000000000000000000000000000000000000000000000000000000000000000000000000000000000000000000000000000000000000000000000000000000000000000000000000000000000000000000000000000000000000000000000000000000000000000000000000000000000000000000000000000000000000000000000000000000000000000000000000000000000000000000000000000000000000000000000000000000000000000000000000000000000000000000000000000000000000000000000000000000000000000000000",
      "type": "0x2",
      "transactionHash": "0x9ace6a2d1bd6e31b4db8b215a4f8e5d06f9e352ebf06c6b28acc31cdfe1db1ff",
      "transactionIndex": "0x2",
      "blockHash": "0xd72edf88d7188bf11ad1d16d945d9ae990510a5e209200bdda827cf3c4c81eb2",
      "blockNumber": "0x678796e",
      "gasUsed": "0x22520",
      "effectiveGasPrice": "0x5f5e100",
      "from": "0xe62ab4d111f968660c6b2188046f9b9ba53c4bae",
      "to": "0xc4edb1cbb639143a6faa63b7caf194ce53d88d29",
      "contractAddress": null,
      "gasUsedForL1": "0x1674e",
      "l1BlockNumber": "0x6f8f0c"
    },
    {
      "status": "0x1",
      "cumulativeGasUsed": "0x174d9a",
      "logs": [],
      "logsBloom": "0x00000000000000000000000000000000000000000000000000000000000000000000000000000000000000000000000000000000000000000000000000000000000000000000000000000000000000000000000000000000000000000000000000000000000000000000000000000000000000000000000000000000000000000000000000000000000000000000000000000000000000000000000000000000000000000000000000000000000000000000000000000000000000000000000000000000000000000000000000000000000000000000000000000000000000000000000000000000000000000000000000000000000000000000000000000000",
      "type": "0x2",
      "transactionHash": "0xbeafb07e7cf2603a97225a6bf39203d370c8ff753d61700b1211513caafc672f",
      "transactionIndex": "0x6",
      "blockHash": "0xf5d54cf6ee08c8fc0b9b81849a25371c70aeccaf016662d3ab8037a66ea2af5d",
      "blockNumber": "0x678798e",
      "gasUsed": "0x45e34",
      "effectiveGasPrice": "0x5f5e100",
      "from": "0xe62ab4d111f968660c6b2188046f9b9ba53c4bae",
      "to": "0xc4edb1cbb639143a6faa63b7caf194ce53d88d29",
      "contractAddress": null,
      "gasUsedForL1": "0x23e1b",
      "l1BlockNumber": "0x6f8f0c"
    },
    {
      "status": "0x1",
      "cumulativeGasUsed": "0x4259c",
      "logs": [],
      "logsBloom": "0x00000000000000000000000000000000000000000000000000000000000000000000000000000000000000000000000000000000000000000000000000000000000000000000000000000000000000000000000000000000000000000000000000000000000000000000000000000000000000000000000000000000000000000000000000000000000000000000000000000000000000000000000000000000000000000000000000000000000000000000000000000000000000000000000000000000000000000000000000000000000000000000000000000000000000000000000000000000000000000000000000000000000000000000000000000000",
      "type": "0x2",
      "transactionHash": "0xdc41565520d5e50b3ebec286f2f1a7db574c7d3f0ce62fe5b2c00c179e9cfd7f",
      "transactionIndex": "0x1",
      "blockHash": "0x926f844a6ef6ac214833576d1b6bfc808eb5c52a8253602840b16d16d2f5701d",
      "blockNumber": "0x67879ae",
      "gasUsed": "0x4259c",
      "effectiveGasPrice": "0x5f5e100",
      "from": "0xe62ab4d111f968660c6b2188046f9b9ba53c4bae",
      "to": "0xc4edb1cbb639143a6faa63b7caf194ce53d88d29",
      "contractAddress": null,
      "gasUsedForL1": "0x24203",
      "l1BlockNumber": "0x6f8f0c"
    },
    {
      "status": "0x1",
      "cumulativeGasUsed": "0x8606f",
      "logs": [],
      "logsBloom": "0x00000000000000000000000000000000000000000000000000000000000000000000000000000000000000000000000000000000000000000000000000000000000000000000000000000000000000000000000000000000000000000000000000000000000000000000000000000000000000000000000000000000000000000000000000000000000000000000000000000000000000000000000000000000000000000000000000000000000000000000000000000000000000000000000000000000000000000000000000000000000000000000000000000000000000000000000000000000000000000000000000000000000000000000000000000000",
      "type": "0x2",
      "transactionHash": "0x93311ab301be321c5384a7c6b498b839d7c14eeb5ed97f28c451e3621fc0b6c5",
      "transactionIndex": "0x3",
      "blockHash": "0x9e4e32eac6e056a7c7e056657da8bcb1be8abeb43bd35968abf86bc8fe0f11f4",
      "blockNumber": "0x67879ce",
      "gasUsed": "0x421b4",
      "effectiveGasPrice": "0x5f5e100",
      "from": "0xe62ab4d111f968660c6b2188046f9b9ba53c4bae",
      "to": "0xc4edb1cbb639143a6faa63b7caf194ce53d88d29",
      "contractAddress": null,
      "gasUsedForL1": "0x23e1b",
      "l1BlockNumber": "0x6f8f0e"
    },
    {
      "status": "0x1",
      "cumulativeGasUsed": "0x162162",
      "logs": [],
      "logsBloom": "0x00000000000000000000000000000000000000000000000000000000000000000000000000000000000000000000000000000000000000000000000000000000000000000000000000000000000000000000000000000000000000000000000000000000000000000000000000000000000000000000000000000000000000000000000000000000000000000000000000000000000000000000000000000000000000000000000000000000000000000000000000000000000000000000000000000000000000000000000000000000000000000000000000000000000000000000000000000000000000000000000000000000000000000000000000000000",
      "type": "0x2",
      "transactionHash": "0x3ea4129eb1492c841b0ef275e320e654df35535a08e3ea0655d6313685dd4ae2",
      "transactionIndex": "0x6",
      "blockHash": "0x5f7b287e9adebf81ae85892a34b06ebdd7539f76d4138b1fb13678f2610f14ef",
      "blockNumber": "0x67879ee",
      "gasUsed": "0x42b78",
      "effectiveGasPrice": "0x5f5e100",
      "from": "0xe62ab4d111f968660c6b2188046f9b9ba53c4bae",
      "to": "0xc4edb1cbb639143a6faa63b7caf194ce53d88d29",
      "contractAddress": null,
      "gasUsedForL1": "0x247df",
      "l1BlockNumber": "0x6f8f0e"
    },
    {
      "status": "0x1",
      "cumulativeGasUsed": "0xadcbc",
      "logs": [],
      "logsBloom": "0x00000000000000000000000000000000000000000000000000000000000000000000000000000000000000000000000000000000000000000000000000000000000000000000000000000000000000000000000000000000000000000000000000000000000000000000000000000000000000000000000000000000000000000000000000000000000000000000000000000000000000000000000000000000000000000000000000000000000000000000000000000000000000000000000000000000000000000000000000000000000000000000000000000000000000000000000000000000000000000000000000000000000000000000000000000000",
      "type": "0x2",
      "transactionHash": "0x99699349d307cf311ea0f2f0cc199f5a635c4f380707ff2357265f773cda6eac",
      "transactionIndex": "0x4",
      "blockHash": "0x98be2468878e1d7d7c124295818180ef84893133751d72f2b1f589ed142b493c",
      "blockNumber": "0x6787a0e",
      "gasUsed": "0x41479",
      "effectiveGasPrice": "0x5f5e100",
      "from": "0xe62ab4d111f968660c6b2188046f9b9ba53c4bae",
      "to": "0xc4edb1cbb639143a6faa63b7caf194ce53d88d29",
      "contractAddress": null,
      "gasUsedForL1": "0x23264",
      "l1BlockNumber": "0x6f8f0e"
    },
    {
      "status": "0x1",
      "cumulativeGasUsed": "0x10ff05",
      "logs": [],
      "logsBloom": "0x00000000000000000000000000000000000000000000000000000000000000000000000000000000000000000000000000000000000000000000000000000000000000000000000000000000000000000000000000000000000000000000000000000000000000000000000000000000000000000000000000000000000000000000000000000000000000000000000000000000000000000000000000000000000000000000000000000000000000000000000000000000000000000000000000000000000000000000000000000000000000000000000000000000000000000000000000000000000000000000000000000000000000000000000000000000",
      "type": "0x2",
      "transactionHash": "0xb9bb56c8c34353ed74932fcabe4cc84135eaaa3ca205bf4ad8ca8ea849b8e987",
      "transactionIndex": "0x5",
      "blockHash": "0x19390589d8d85cdc1db09cf965a68005b8745a242ee3252c6fbb5d789f02e1d0",
      "blockNumber": "0x6787a2e",
      "gasUsed": "0x419e5",
      "effectiveGasPrice": "0x5f5e100",
      "from": "0xe62ab4d111f968660c6b2188046f9b9ba53c4bae",
      "to": "0xc4edb1cbb639143a6faa63b7caf194ce53d88d29",
      "contractAddress": null,
      "gasUsedForL1": "0x2364c",
      "l1BlockNumber": "0x6f8f0e"
    },
    {
      "status": "0x1",
      "cumulativeGasUsed": "0x1045da",
      "logs": [],
      "logsBloom": "0x00000000000000000000000000000000000000000000000000000000000000000000000000000000000000000000000000000000000000000000000000000000000000000000000000000000000000000000000000000000000000000000000000000000000000000000000000000000000000000000000000000000000000000000000000000000000000000000000000000000000000000000000000000000000000000000000000000000000000000000000000000000000000000000000000000000000000000000000000000000000000000000000000000000000000000000000000000000000000000000000000000000000000000000000000000000",
      "type": "0x2",
      "transactionHash": "0x755f393c142993181ea14cacb7b528d0be9256861e25512c65127af0c9b66431",
      "transactionIndex": "0x5",
      "blockHash": "0x8eb8385e2882847b45ba43fe4c5d0515806b18550763f5bdccb689b05e462ede",
      "blockNumber": "0x6787a4e",
      "gasUsed": "0x4260c",
      "effectiveGasPrice": "0x5f5e100",
      "from": "0xe62ab4d111f968660c6b2188046f9b9ba53c4bae",
      "to": "0xc4edb1cbb639143a6faa63b7caf194ce53d88d29",
      "contractAddress": null,
      "gasUsedForL1": "0x243f7",
      "l1BlockNumber": "0x6f8f0f"
    },
    {
      "status": "0x1",
      "cumulativeGasUsed": "0x8d9d8",
      "logs": [],
      "logsBloom": "0x00000000000000000000000000000000000000000000000000000000000000000000000000000000000000000000000000000000000000000000000000000000000000000000000000000000000000000000000000000000000000000000000000000000000000000000000000000000000000000000000000000000000000000000000000000000000000000000000000000000000000000000000000000000000000000000000000000000000000000000000000000000000000000000000000000000000000000000000000000000000000000000000000000000000000000000000000000000000000000000000000000000000000000000000000000000",
      "type": "0x2",
      "transactionHash": "0x68c1b4208036d875ebc9ec3d0243347769d537ccb18d37558ab38bcae2ae7ff3",
      "transactionIndex": "0x3",
      "blockHash": "0xfbfc296aa4416ab9da118a2ded95f6776cb9a0290cf3b5f0eff32de04eef198e",
      "blockNumber": "0x6787a6e",
      "gasUsed": "0x4337c",
      "effectiveGasPrice": "0x5f5e100",
      "from": "0xe62ab4d111f968660c6b2188046f9b9ba53c4bae",
      "to": "0xc4edb1cbb639143a6faa63b7caf194ce53d88d29",
      "contractAddress": null,
      "gasUsedForL1": "0x249d3",
      "l1BlockNumber": "0x6f8f0f"
    },
    {
      "status": "0x1",
      "cumulativeGasUsed": "0x173f2a",
      "logs": [],
      "logsBloom": "0x00000000000000000000000000000000000000000000000000000000000000000000000000000000000000000000000000000000000000000000000000000000000000000000000000000000000000000000000000000000000000000000000000000000000000000000000000000000000000000000000000000000000000000000000000000000000000000000000000000000000000000000000000000000000000000000000000000000000000000000000000000000000000000000000000000000000000000000000000000000000000000000000000000000000000000000000000000000000000000000000000000000000000000000000000000000",
      "type": "0x2",
      "transactionHash": "0x20a168a4e9139223a20c6be7f9863fb2242b86f6abc61c6509bc2c9319e5fee8",
      "transactionIndex": "0x6",
      "blockHash": "0x4456e4e804d0c72e6727d2bef6b6202739a4bea84185afdf9793ac17387a6080",
      "blockNumber": "0x6787a8e",
      "gasUsed": "0x41b69",
      "effectiveGasPrice": "0x5f5e100",
      "from": "0xe62ab4d111f968660c6b2188046f9b9ba53c4bae",
      "to": "0xc4edb1cbb639143a6faa63b7caf194ce53d88d29",
      "contractAddress": null,
      "gasUsedForL1": "0x2364c",
      "l1BlockNumber": "0x6f8f10"
    },
    {
      "status": "0x1",
      "cumulativeGasUsed": "0x7a2b3",
      "logs": [],
      "logsBloom": "0x00000000000000000000000000000000000000000000000000000000000000000000000000000000000000000000000000000000000000000000000000000000000000000000000000000000000000000000000000000000000000000000000000000000000000000000000000000000000000000000000000000000000000000000000000000000000000000000000000000000000000000000000000000000000000000000000000000000000000000000000000000000000000000000000000000000000000000000000000000000000000000000000000000000000000000000000000000000000000000000000000000000000000000000000000000000",
      "type": "0x2",
      "transactionHash": "0xfe5eb9e3f8ce9ff1b7c3d8c0d1c89e08f63a55e1a82d35d532f9a27a8c86a5a3",
      "transactionIndex": "0x2",
      "blockHash": "0xf30092c4fe0436bf8078a33f51419db61d464f74015348373772bdae838b509d",
      "blockNumber": "0x6787aae",
      "gasUsed": "0x42cfc",
      "effectiveGasPrice": "0x5f5e100",
      "from": "0xe62ab4d111f968660c6b2188046f9b9ba53c4bae",
      "to": "0xc4edb1cbb639143a6faa63b7caf194ce53d88d29",
      "contractAddress": null,
      "gasUsedForL1": "0x247df",
      "l1BlockNumber": "0x6f8f10"
    },
    {
      "status": "0x1",
      "cumulativeGasUsed": "0xc0268",
      "logs": [],
      "logsBloom": "0x00000000000000000000000000000000000000000000000000000000000000000000000000000000000000000000000000000000000000000000000000000000000000000000000000000000000000000000000000000000000000000000000000000000000000000000000000000000000000000000000000000000000000000000000000000000000000000000000000000000000000000000000000000000000000000000000000000000000000000000000000000000000000000000000000000000000000000000000000000000000000000000000000000000000000000000000000000000000000000000000000000000000000000000000000000000",
      "type": "0x2",
      "transactionHash": "0xcb1e02c2c1e2d3dd35d54216482fe6772c28747433b1ff5d94fbdcd33f4f859e",
      "transactionIndex": "0x3",
      "blockHash": "0x97a85aa380ee3c9347c2564af746d9bbffd243794f30b413a6e1497bf1b8e0c7",
      "blockNumber": "0x6787ace",
      "gasUsed": "0x42224",
      "effectiveGasPrice": "0x5f5e100",
      "from": "0xe62ab4d111f968660c6b2188046f9b9ba53c4bae",
      "to": "0xc4edb1cbb639143a6faa63b7caf194ce53d88d29",
      "contractAddress": null,
      "gasUsedForL1": "0x2400f",
      "l1BlockNumber": "0x6f8f11"
    },
    {
      "status": "0x1",
      "cumulativeGasUsed": "0x10edf2",
      "logs": [],
      "logsBloom": "0x00000000000000000000000000000000000000000000000000000000000000000000000000000000000000000000000000000000000000000000000000000000000000000000000000000000000000000000000000000000000000000000000000000000000000000000000000000000000000000000000000000000000000000000000000000000000000000000000000000000000000000000000000000000000000000000000000000000000000000000000000000000000000000000000000000000000000000000000000000000000000000000000000000000000000000000000000000000000000000000000000000000000000000000000000000000",
      "type": "0x2",
      "transactionHash": "0x91da22d75af40436fd405fd56b3a9a1d1b05173f629afe6aab89740eb08b7906",
      "transactionIndex": "0x5",
      "blockHash": "0x92e4f92226cd44495aac610918654c0dc8e9ecade60eafaf644c6265707ad7cd",
      "blockNumber": "0x6787aee",
      "gasUsed": "0x42030",
      "effectiveGasPrice": "0x5f5e100",
      "from": "0xe62ab4d111f968660c6b2188046f9b9ba53c4bae",
      "to": "0xc4edb1cbb639143a6faa63b7caf194ce53d88d29",
      "contractAddress": null,
      "gasUsedForL1": "0x23e1b",
      "l1BlockNumber": "0x6f8f11"
    },
    {
      "status": "0x1",
      "cumulativeGasUsed": "0xbea7c",
      "logs": [],
      "logsBloom": "0x00000000000000000000000000000000000000000000000000000000000000000000000000000000000000000000000000000000000000000000000000000000000000000000000000000000000000000000000000000000000000000000000000000000000000000000000000000000000000000000000000000000000000000000000000000000000000000000000000000000000000000000000000000000000000000000000000000000000000000000000000000000000000000000000000000000000000000000000000000000000000000000000000000000000000000000000000000000000000000000000000000000000000000000000000000000",
      "type": "0x2",
      "transactionHash": "0xfa92826d875192167b37c3b02f741ed35af9320589af405e6696bb67057f985e",
      "transactionIndex": "0x3",
      "blockHash": "0xf4141eebbc920a161140bc60c4a4bedc870ad627d68bfbba37147ce8d655231f",
      "blockNumber": "0x6787b0e",
      "gasUsed": "0x4353b",
      "effectiveGasPrice": "0x5f5e100",
      "from": "0xe62ab4d111f968660c6b2188046f9b9ba53c4bae",
      "to": "0xc4edb1cbb639143a6faa63b7caf194ce53d88d29",
      "contractAddress": null,
      "gasUsedForL1": "0x251a2",
      "l1BlockNumber": "0x6f8f13"
    },
    {
      "status": "0x1",
      "cumulativeGasUsed": "0x3342b",
      "logs": [],
      "logsBloom": "0x00000000000000000000000000000000000000000000000000000000000000000000000000000000000000000000000000000000000000000000000000000000000000000000000000000000000000000000000000000000000000000000000000000000000000000000000000000000000000000000000000000000000000000000000000000000000000000000000000000000000000000000000000000000000000000000000000000000000000000000000000000000000000000000000000000000000000000000000000000000000000000000000000000000000000000000000000000000000000000000000000000000000000000000000000000000",
      "type": "0x2",
      "transactionHash": "0x9ffa7cdf832b95e64f651f52cba926b25d78178ea3a0fdd5fb3f6aea421d0774",
      "transactionIndex": "0x1",
      "blockHash": "0x557f1f6ca547162b7d9344d8d18340997b8d9d2e97c331487d72c58c267230b1",
      "blockNumber": "0x6787b3f",
      "gasUsed": "0x3342b",
      "effectiveGasPrice": "0x5f5e100",
      "from": "0xe62ab4d111f968660c6b2188046f9b9ba53c4bae",
      "to": "0xc4edb1cbb639143a6faa63b7caf194ce53d88d29",
      "contractAddress": null,
      "gasUsedForL1": "0x148fe",
      "l1BlockNumber": "0x6f8f13"
    },
    {
      "status": "0x1",
      "cumulativeGasUsed": "0x31f90",
      "logs": [],
      "logsBloom": "0x00000000000000000000000000000000000000000000000000000000000000000000000000000000000000000000000000000000000000000000000000000000000000000000000000000000000000000000000000000000000000000000000000000000000000000000000000000000000000000000000000000000000000000000000000000000000000000000000000000000000000000000000000000000000000000000000000000000000000000000000000000000000000000000000000000000000000000000000000000000000000000000000000000000000000000000000000000000000000000000000000000000000000000000000000000000",
      "type": "0x2",
      "transactionHash": "0xc6b471c233c324f543b8eaef4dd3c14bb365e42df034abab377c9d30e672df0a",
      "transactionIndex": "0x1",
      "blockHash": "0x58c0ba0ba0aed28fb588c51f24b7bbaf4ec08d5e32ead317cea061a60153722a",
      "blockNumber": "0x6787b60",
      "gasUsed": "0x31f90",
      "effectiveGasPrice": "0x5f5e100",
      "from": "0xe62ab4d111f968660c6b2188046f9b9ba53c4bae",
      "to": "0xc4edb1cbb639143a6faa63b7caf194ce53d88d29",
      "contractAddress": null,
      "gasUsedForL1": "0x13bf7",
      "l1BlockNumber": "0x6f8f14"
    },
    {
      "status": "0x1",
      "cumulativeGasUsed": "0x4d62c",
      "logs": [],
      "logsBloom": "0x00000000000000000000000000000000000000000000000000000000000000000000000000000000000000000000000000000000000000000000000000000000000000000000000000000000000000000000000000000000000000000000000000000000000000000000000000000000000000000000000000000000000000000000000000000000000000000000000000000000000000000000000000000000000000000000000000000000000000000000000000000000000000000000000000000000000000000000000000000000000000000000000000000000000000000000000000000000000000000000000000000000000000000000000000000000",
      "type": "0x2",
      "transactionHash": "0x41e48f7ad995af634d355a43b155430b6dc93730bdbfedf5c9e1ac53ad45427b",
      "transactionIndex": "0x2",
      "blockHash": "0x6dcccee2e85ec2f4c653edd8a4ece7878b918c4bed780f9c371e5c6081691b97",
      "blockNumber": "0x6787b80",
      "gasUsed": "0x32ebd",
      "effectiveGasPrice": "0x5f5e100",
      "from": "0xe62ab4d111f968660c6b2188046f9b9ba53c4bae",
      "to": "0xc4edb1cbb639143a6faa63b7caf194ce53d88d29",
      "contractAddress": null,
      "gasUsedForL1": "0x14390",
      "l1BlockNumber": "0x6f8f15"
    },
    {
      "status": "0x1",
      "cumulativeGasUsed": "0x9d310",
      "logs": [],
      "logsBloom": "0x00000000000000000000000000000000000000000000000000000000000000000000000000000000000000000000000000000000000000000000000000000000000000000000000000000000000000000000000000000000000000000000000000000000000000000000000000000000000000000000000000000000000000000000000000000000000000000000000000000000000000000000000000000000000000000000000000000000000000000000000000000000000000000000000000000000000000000000000000000000000000000000000000000000000000000000000000000000000000000000000000000000000000000000000000000000",
      "type": "0x2",
      "transactionHash": "0x0cca798bda67d1ef246988e8554a1eb694eff790ece8b136493e92c72180887b",
      "transactionIndex": "0x4",
      "blockHash": "0xbdc539b5db88fd5dc688f5b9db05734a2b3d64d6ca531f513604daf08d95de2a",
      "blockNumber": "0x6787ba0",
      "gasUsed": "0x326bb",
      "effectiveGasPrice": "0x5f5e100",
      "from": "0xe62ab4d111f968660c6b2188046f9b9ba53c4bae",
      "to": "0xc4edb1cbb639143a6faa63b7caf194ce53d88d29",
      "contractAddress": null,
      "gasUsedForL1": "0x144a6",
      "l1BlockNumber": "0x6f8f15"
    },
    {
      "status": "0x1",
      "cumulativeGasUsed": "0x325a5",
      "logs": [],
      "logsBloom": "0x00000000000000000000000000000000000000000000000000000000000000000000000000000000000000000000000000000000000000000000000000000000000000000000000000000000000000000000000000000000000000000000000000000000000000000000000000000000000000000000000000000000000000000000000000000000000000000000000000000000000000000000000000000000000000000000000000000000000000000000000000000000000000000000000000000000000000000000000000000000000000000000000000000000000000000000000000000000000000000000000000000000000000000000000000000000",
      "type": "0x2",
      "transactionHash": "0xad06eab3d5a97a5ab490fa192b0a4330a6d824541cfd36dfd02b22a226b9062b",
      "transactionIndex": "0x1",
      "blockHash": "0x26e7011fb5ba20db262f18cabdc0dda0c293ddefa87c78d0994a6c78c72cb979",
      "blockNumber": "0x6787bc1",
      "gasUsed": "0x325a5",
      "effectiveGasPrice": "0x5f5e100",
      "from": "0xe62ab4d111f968660c6b2188046f9b9ba53c4bae",
      "to": "0xc4edb1cbb639143a6faa63b7caf194ce53d88d29",
      "contractAddress": null,
      "gasUsedForL1": "0x14390",
      "l1BlockNumber": "0x6f8f17"
    },
    {
      "status": "0x1",
      "cumulativeGasUsed": "0x31cf6",
      "logs": [],
      "logsBloom": "0x00000000000000000000000000000000000000000000000000000000000000000000000000000000000000000000000000000000000000000000000000000000000000000000000000000000000000000000000000000000000000000000000000000000000000000000000000000000000000000000000000000000000000000000000000000000000000000000000000000000000000000000000000000000000000000000000000000000000000000000000000000000000000000000000000000000000000000000000000000000000000000000000000000000000000000000000000000000000000000000000000000000000000000000000000000000",
      "type": "0x2",
      "transactionHash": "0xc185f0aab00998ef1a11be7fe8ef8ff0c7d1dcac02fd02c3b82e810d0dd20b8a",
      "transactionIndex": "0x1",
      "blockHash": "0x2097f3b011c2057a5926a81f61bb8908fd4f44916adf7ce2999084e9d0e6b7f3",
      "blockNumber": "0x6787bc5",
      "gasUsed": "0x31cf6",
      "effectiveGasPrice": "0x5f5e100",
      "from": "0xe62ab4d111f968660c6b2188046f9b9ba53c4bae",
      "to": "0xc4edb1cbb639143a6faa63b7caf194ce53d88d29",
      "contractAddress": null,
      "gasUsedForL1": "0x13ae1",
      "l1BlockNumber": "0x6f8f17"
    },
    {
      "status": "0x1",
      "cumulativeGasUsed": "0x31c4e",
      "logs": [],
      "logsBloom": "0x00000000000000000000000000000000000000000000000000000000000000000000000000000000000000000000000000000000000000000000000000000000000000000000000000000000000000000000000000000000000000000000000000000000000000000000000000000000000000000000000000000000000000000000000000000000000000000000000000000000000000000000000000000000000000000000000000000000000000000000000000000000000000000000000000000000000000000000000000000000000000000000000000000000000000000000000000000000000000000000000000000000000000000000000000000000",
      "type": "0x2",
      "transactionHash": "0xc4dcce187a67fbcc6c9991812051fb1f3300884391b15acd0a7671dea0804fc2",
      "transactionIndex": "0x1",
      "blockHash": "0xc2ecc58c638e8e00ccb64677d00f213ab4f11558550363a84aff7ff84805d524",
      "blockNumber": "0x6787be6",
      "gasUsed": "0x31c4e",
      "effectiveGasPrice": "0x5f5e100",
      "from": "0xe62ab4d111f968660c6b2188046f9b9ba53c4bae",
      "to": "0xc4edb1cbb639143a6faa63b7caf194ce53d88d29",
      "contractAddress": null,
      "gasUsedForL1": "0x138b5",
      "l1BlockNumber": "0x6f8f17"
    },
    {
      "status": "0x1",
      "cumulativeGasUsed": "0x31b72",
      "logs": [],
      "logsBloom": "0x00000000000000000000000000000000000000000000000000000000000000000000000000000000000000000000000000000000000000000000000000000000000000000000000000000000000000000000000000000000000000000000000000000000000000000000000000000000000000000000000000000000000000000000000000000000000000000000000000000000000000000000000000000000000000000000000000000000000000000000000000000000000000000000000000000000000000000000000000000000000000000000000000000000000000000000000000000000000000000000000000000000000000000000000000000000",
      "type": "0x2",
      "transactionHash": "0x87b2cda6b7857b430389d613da6b71e673e439ba69389929374f094ee570a148",
      "transactionIndex": "0x1",
      "blockHash": "0x6da060978193a151c9d04938c8691018b10dd0b2a34c0ab5b4291b2d0952061c",
      "blockNumber": "0x6787c07",
      "gasUsed": "0x31b72",
      "effectiveGasPrice": "0x5f5e100",
      "from": "0xe62ab4d111f968660c6b2188046f9b9ba53c4bae",
      "to": "0xc4edb1cbb639143a6faa63b7caf194ce53d88d29",
      "contractAddress": null,
      "gasUsedForL1": "0x13ae1",
      "l1BlockNumber": "0x6f8f18"
    },
    {
      "status": "0x1",
      "cumulativeGasUsed": "0x547d8",
      "logs": [],
      "logsBloom": "0x00000000000000000000000000000000000000000000000000000000000000000000000000000000000000000000000000000000000000000000000000000000000000000000000000000000000000000000000000000000000000000000000000000000000000000000000000000000000000000000000000000000000000000000000000000000000000000000000000000000000000000000000000000000000000000000000000000000000000000000000000000000000000000000000000000000000000000000000000000000000000000000000000000000000000000000000000000000000000000000000000000000000000000000000000000000",
      "type": "0x2",
      "transactionHash": "0x3d45fabe3cfadfc2b5ef4808906bd7bdef59cdfc2d772c49db235e79e4093d28",
      "transactionIndex": "0x2",
      "blockHash": "0x4080c705d5c54088c515312ce305959685f9b38d6dd494cbbe7d8c041c91bad0",
      "blockNumber": "0x6787c27",
      "gasUsed": "0x31c4e",
      "effectiveGasPrice": "0x5f5e100",
      "from": "0xe62ab4d111f968660c6b2188046f9b9ba53c4bae",
      "to": "0xc4edb1cbb639143a6faa63b7caf194ce53d88d29",
      "contractAddress": null,
      "gasUsedForL1": "0x138b5",
      "l1BlockNumber": "0x6f8f18"
    },
    {
      "status": "0x1",
      "cumulativeGasUsed": "0xab2fb",
      "logs": [],
      "logsBloom": "0x00000000000000000000000000000000000000000000000000000000000000000000000000000000000000000000000000000000000000000000000000000000000000000000000000000000000000000000000000000000000000000000000000000000000000000000000000000000000000000000000000000000000000000000000000000000000000000000000000000000000000000000000000000000000000000000000000000000000000000000000000000000000000000000000000000000000000000000000000000000000000000000000000000000000000000000000000000000000000000000000000000000000000000000000000000000",
      "type": "0x2",
      "transactionHash": "0x634cd5d1482a9523dcf4874d0e6c34b7da768944f13a2d582b87e48e1d4b7ed1",
      "transactionIndex": "0x4",
      "blockHash": "0xb88f49c5915097e9f6c66ee525b56b721a8c974ae5c4cb08d7af6e23a6bfaeaf",
      "blockNumber": "0x6787c48",
      "gasUsed": "0x314ee",
      "effectiveGasPrice": "0x5f5e100",
      "from": "0xe62ab4d111f968660c6b2188046f9b9ba53c4bae",
      "to": "0xc4edb1cbb639143a6faa63b7caf194ce53d88d29",
      "contractAddress": null,
      "gasUsedForL1": "0x1345d",
      "l1BlockNumber": "0x6f8f19"
    },
    {
      "status": "0x1",
      "cumulativeGasUsed": "0x5827a",
      "logs": [],
      "logsBloom": "0x00000000000000000000000000000000000000000000000000000000000000000000000000000000000000000000000000000000000000000000000000000000000000000000000000000000000000000000000000000000000000000000000000000000000000000000000000000000000000000000000000000000000000000000000000000000000000000000000000000000000000000000000000000000000000000000000000000000000000000000000000000000000000000000000000000000000000000000000000000000000000000000000000000000000000000000000000000000000000000000000000000000000000000000000000000000",
      "type": "0x2",
      "transactionHash": "0xf3c1b21252b51d96cf86f565d6537d1b3ca21048fa28da2d374c1c6a39c10237",
      "transactionIndex": "0x2",
      "blockHash": "0xcfb0fe6bc4d1ccc483b62b2185a1d5c6de893d9fb76ca500e5040e132f92ad2d",
      "blockNumber": "0x6787c69",
      "gasUsed": "0x308a5",
      "effectiveGasPrice": "0x60bb2f0",
      "from": "0xe62ab4d111f968660c6b2188046f9b9ba53c4bae",
      "to": "0xc4edb1cbb639143a6faa63b7caf194ce53d88d29",
      "contractAddress": null,
      "gasUsedForL1": "0x12998",
      "l1BlockNumber": "0x6f8f19"
    },
    {
      "status": "0x1",
      "cumulativeGasUsed": "0x6d2a6",
      "logs": [],
      "logsBloom": "0x00000000000000000000000000000000000000000000000000000000000000000000000000000000000000000000000000000000000000000000000000000000000000000000000000000000000000000000000000000000000000000000000000000000000000000000000000000000000000000000000000000000000000000000000000000000000000000000000000000000000000000000000000000000000000000000000000000000000000000000000000000000000000000000000000000000000000000000000000000000000000000000000000000000000000000000000000000000000000000000000000000000000000000000000000000000",
      "type": "0x2",
      "transactionHash": "0x6f6f322f40f3c1859262807634c0cc52eb204a71883fc603af4770a861e8cab3",
      "transactionIndex": "0x2",
      "blockHash": "0xb21a3ca9c554ac2e9987415291dbf537f89d8ff45a6b74feebd3bc404455253f",
      "blockNumber": "0x6787c6d",
      "gasUsed": "0x321e1",
      "effectiveGasPrice": "0x600b670",
      "from": "0xe62ab4d111f968660c6b2188046f9b9ba53c4bae",
      "to": "0xc4edb1cbb639143a6faa63b7caf194ce53d88d29",
      "contractAddress": null,
      "gasUsedForL1": "0x139bc",
      "l1BlockNumber": "0x6f8f1a"
    },
    {
      "status": "0x1",
      "cumulativeGasUsed": "0x6b6742",
      "logs": [],
      "logsBloom": "0x00000000000000000000000000000000000000000000000000000000000000000000000000000000000000000000000000000000000000000000000000000000000000000000000000000000000000000000000000000000000000000000000000000000000000000000000000000000000000000000000000000000000000000000000000000000000000000000000000000000000000000000000000000000000000000000000000000000000000000000000000000000000000000000000000000000000000000000000000000000000000000000000000000000000000000000000000000000000000000000000000000000000000000000000000000000",
      "type": "0x2",
      "transactionHash": "0x873e5f74ed4d8b2d1ce45b8d30817787bfb99beaa43fb206e4f9f2d3939a9ebc",
      "transactionIndex": "0xd",
      "blockHash": "0xdd7813111997e946476ca9c44246a24d796eee410ad2c61b0b22b59b95b631b4",
      "blockNumber": "0x6787c8d",
      "gasUsed": "0x36c744",
      "effectiveGasPrice": "0x5f5e100",
      "from": "0xe62ab4d111f968660c6b2188046f9b9ba53c4bae",
      "to": "0x20a9f9d7282c6fde913522a42c3951f5b18f62d5",
      "contractAddress": null,
      "gasUsedForL1": "0x4043e",
      "l1BlockNumber": "0x6f8f1a"
    },
    {
      "status": "0x1",
      "cumulativeGasUsed": "0x484599",
      "logs": [],
      "logsBloom": "0x00000000000000000000000000000000000000000000000000000000000000000000000000000000000000000000000000000000000000000000000000000000000000000000000000000000000000000000000000000000000000000000000000000000000000000000000000000000000000000000000000000000000000000000000000000000000000000000000000000000000000000000000000000000000000000000000000000000000000000000000000000000000000000000000000000000000000000000000000000000000000000000000000000000000000000000000000000000000000000000000000000000000000000000000000000000",
      "type": "0x2",
      "transactionHash": "0x69196d6bc4e604ff39b5e90752c414bf0d0483d9b1521cb386c6e7b9bf518f61",
      "transactionIndex": "0x2",
      "blockHash": "0x1e4ec3f1535c1256588e06ea99da0ee68bf665a2c31042a492852d93bda22886",
      "blockNumber": "0x6787cab",
      "gasUsed": "0x433e07",
      "effectiveGasPrice": "0x6403070",
      "from": "0xe62ab4d111f968660c6b2188046f9b9ba53c4bae",
      "to": "0x20a9f9d7282c6fde913522a42c3951f5b18f62d5",
      "contractAddress": null,
      "gasUsedForL1": "0x3f17c",
      "l1BlockNumber": "0x6f8f1b"
    },
    {
      "status": "0x1",
      "cumulativeGasUsed": "0x52ac77",
      "logs": [],
      "logsBloom": "0x00000000000000000000000000000000000000000000000000000000000000000000000000000000000000000000000000000000000000000000000000000000000000000000000000000000000000000000000000000000000000000000000000000000000000000000000000000000000000000000000000000000000000000000000000000000000000000000000000000000000000000000000000000000000000000000000000000000000000000000000000000000000000000000000000000000000000000000000000000000000000000000000000000000000000000000000000000000000000000000000000000000000000000000000000000000",
      "type": "0x2",
      "transactionHash": "0x7f74e21f72e966880f46809a682a5941135478726747c84a123b852fcc5a8f2f",
      "transactionIndex": "0x7",
      "blockHash": "0x1ec67759cb2f45e9e8d8189b2cd2e3ff9a0f420e91e98e05070fc097af583976",
      "blockNumber": "0x6787ccc",
      "gasUsed": "0x3a092d",
      "effectiveGasPrice": "0x63f9430",
      "from": "0xe62ab4d111f968660c6b2188046f9b9ba53c4bae",
      "to": "0x20a9f9d7282c6fde913522a42c3951f5b18f62d5",
      "contractAddress": null,
      "gasUsedForL1": "0x3f2e7",
      "l1BlockNumber": "0x6f8f1b"
    }
  ],
  "libraries": [],
  "pending": [],
  "returns": {},
  "timestamp": 1734610663,
  "chain": 421614,
  "commit": "2746b202"
}