{
  "transactions": [
    {
      "hash": "0xb2c5e39c7e9da6814ee056cdb4b24b24ed37dbd01386be98b595a56c75fef5d8",
      "transactionType": "CALL",
      "contractName": "CTMRWAGateway",
      "contractAddress": "0x74972e7ff5561bd902e3ec3ddd5a22653088ca6f",
      "function": "addChainContract(string,string)",
      "arguments": [
        "84532",
        "0x443731488c75cdb209fbab813b574953ba973597"
      ],
      "transaction": {
        "from": "0xe62ab4d111f968660c6b2188046f9b9ba53c4bae",
        "to": "0x74972e7ff5561bd902e3ec3ddd5a22653088ca6f",
        "gas": "0x3a2e5",
        "value": "0x0",
        "input": "0x12d3fcfa0000000000000000000000000000000000000000000000000000000000000040000000000000000000000000000000000000000000000000000000000000008000000000000000000000000000000000000000000000000000000000000000053834353332000000000000000000000000000000000000000000000000000000000000000000000000000000000000000000000000000000000000000000002a30783434333733313438386337356364623230396662616238313362353734393533626139373335393700000000000000000000000000000000000000000000",
        "nonce": "0x1f1",
        "chainId": "0x66eee"
      },
      "additionalContracts": [],
      "isFixedGasLimit": false
    },
    {
      "hash": "0xaae629a0f644df9d6f29932e0b2d2ebb362947e3c3431f5e03699ecd0d1076d1",
      "transactionType": "CALL",
      "contractName": "CTMRWAGateway",
      "contractAddress": "0x74972e7ff5561bd902e3ec3ddd5a22653088ca6f",
      "function": "attachRWAX(uint256,uint256,string,string)",
      "arguments": [
        "1",
        "1",
        "84532",
        "0x842391b3c9103a0cfcae764a201150a08774e810"
      ],
      "transaction": {
        "from": "0xe62ab4d111f968660c6b2188046f9b9ba53c4bae",
        "to": "0x74972e7ff5561bd902e3ec3ddd5a22653088ca6f",
        "gas": "0x3ab2b",
        "value": "0x0",
        "input": "0x5cbee36a00000000000000000000000000000000000000000000000000000000000000010000000000000000000000000000000000000000000000000000000000000001000000000000000000000000000000000000000000000000000000000000008000000000000000000000000000000000000000000000000000000000000000c000000000000000000000000000000000000000000000000000000000000000053834353332000000000000000000000000000000000000000000000000000000000000000000000000000000000000000000000000000000000000000000002a30783834323339316233633931303361306366636165373634613230313135306130383737346538313000000000000000000000000000000000000000000000",
        "nonce": "0x1f2",
        "chainId": "0x66eee"
      },
      "additionalContracts": [],
      "isFixedGasLimit": false
    },
    {
      "hash": "0xeec0e82290ea5ed63c39331a4e3e76dd73ccb0f19b715fb8e900cff3fddbde48",
      "transactionType": "CALL",
      "contractName": "CTMRWAGateway",
      "contractAddress": "0x74972e7ff5561bd902e3ec3ddd5a22653088ca6f",
      "function": "attachStorageManager(uint256,uint256,string,string)",
      "arguments": [
        "1",
        "1",
        "84532",
        "0x2ba0f2383bee65838c07f89823414f7ee5124847"
      ],
      "transaction": {
        "from": "0xe62ab4d111f968660c6b2188046f9b9ba53c4bae",
        "to": "0x74972e7ff5561bd902e3ec3ddd5a22653088ca6f",
        "gas": "0x3ab82",
        "value": "0x0",
        "input": "0x6bb884f300000000000000000000000000000000000000000000000000000000000000010000000000000000000000000000000000000000000000000000000000000001000000000000000000000000000000000000000000000000000000000000008000000000000000000000000000000000000000000000000000000000000000c000000000000000000000000000000000000000000000000000000000000000053834353332000000000000000000000000000000000000000000000000000000000000000000000000000000000000000000000000000000000000000000002a30783262613066323338336265653635383338633037663839383233343134663765653531323438343700000000000000000000000000000000000000000000",
        "nonce": "0x1f3",
        "chainId": "0x66eee"
      },
      "additionalContracts": [],
      "isFixedGasLimit": false
    }
  ],
  "receipts": [
    {
      "status": "0x1",
      "cumulativeGasUsed": "0x2b410",
      "logs": [],
      "logsBloom": "0x00000000000000000000000000000000000000000000000000000000000000000000000000000000000000000000000000000000000000000000000000000000000000000000000000000000000000000000000000000000000000000000000000000000000000000000000000000000000000000000000000000000000000000000000000000000000000000000000000000000000000000000000000000000000000000000000000000000000000000000000000000000000000000000000000000000000000000000000000000000000000000000000000000000000000000000000000000000000000000000000000000000000000000000000000000000",
      "type": "0x2",
      "transactionHash": "0xb2c5e39c7e9da6814ee056cdb4b24b24ed37dbd01386be98b595a56c75fef5d8",
      "transactionIndex": "0x1",
      "blockHash": "0x406d2d2ca7f08671c4e92383f6272bdb8a7636af4e11b0f6cdd5dbd9220591b0",
      "blockNumber": "0x58ea494",
      "gasUsed": "0x2b410",
      "effectiveGasPrice": "0x5f5e100",
      "from": "0xe62ab4d111f968660c6b2188046f9b9ba53c4bae",
      "to": "0x74972e7ff5561bd902e3ec3ddd5a22653088ca6f",
      "contractAddress": null,
      "gasUsedForL1": "0x42aa",
      "l1BlockNumber": "0x6a8d82"
    },
    {
      "status": "0x1",
      "cumulativeGasUsed": "0x2b80e",
      "logs": [],
      "logsBloom": "0x00000000000000000000000000000000000000000000000000000000000000000000000000000000000000000000000000000000000000000000000000000000000000000000000000000000000000000000000000000000000000000000000000000000000000000000000000000000000000000000000000000000000000000000000000000000000000000000000000000000000000000000000000000000000000000000000000000000000000000000000000000000000000000000000000000000000000000000000000000000000000000000000000000000000000000000000000000000000000000000000000000000000000000000000000000000",
      "type": "0x2",
      "transactionHash": "0xaae629a0f644df9d6f29932e0b2d2ebb362947e3c3431f5e03699ecd0d1076d1",
      "transactionIndex": "0x1",
      "blockHash": "0xd147ee3d18accdd4cebd59715102cd22bf1aa676e278a6a7a4378707f7fdf0b2",
      "blockNumber": "0x58ea4a7",
      "gasUsed": "0x2b80e",
      "effectiveGasPrice": "0x5f5e100",
      "from": "0xe62ab4d111f968660c6b2188046f9b9ba53c4bae",
      "to": "0x74972e7ff5561bd902e3ec3ddd5a22653088ca6f",
      "contractAddress": null,
      "gasUsedForL1": "0x41b2",
      "l1BlockNumber": "0x6a8d82"
    },
    {
      "status": "0x1",
      "cumulativeGasUsed": "0x49d51",
      "logs": [],
      "logsBloom": "0x00000000000000000000000000000000000000000000000000000000000000000000000000000000000000000000000000000000000000000000000000000000000000000000000000000000000000000000000000000000000000000000000000000000000000000000000000000000000000000000000000000000000000000000000000000000000000000000000000000000000000000000000000000000000000000000000000000000000000000000000000000000000000000000000000000000000000000000000000000000000000000000000000000000000000000000000000000000000000000000000000000000000000000000000000000000",
      "type": "0x2",
      "transactionHash": "0xeec0e82290ea5ed63c39331a4e3e76dd73ccb0f19b715fb8e900cff3fddbde48",
      "transactionIndex": "0x2",
      "blockHash": "0xe7cac608fade960522d4a1dae5509d7113d402f37288fd1f5322ba5c6061abe8",
      "blockNumber": "0x58ea4bd",
      "gasUsed": "0x2b88e",
      "effectiveGasPrice": "0x5f5e100",
      "from": "0xe62ab4d111f968660c6b2188046f9b9ba53c4bae",
      "to": "0x74972e7ff5561bd902e3ec3ddd5a22653088ca6f",
      "contractAddress": null,
      "gasUsedForL1": "0x41f0",
      "l1BlockNumber": "0x6a8d83"
    }
  ],
  "libraries": [],
  "pending": [],
  "returns": {},
  "timestamp": 1730373817,
  "chain": 421614,
  "commit": "34a11392"
}