{
  "transactions": [
    {
      "hash": "0xc9b2abc4516d8d0c610a10de5b19aaf299c7932bec1aa819367d7a3928651a3e",
      "transactionType": "CALL",
      "contractName": "FeeManager",
      "contractAddress": "0x00cb1299d29a1d389879c1af2316a4b2c78da610",
      "function": "addFeeToken(string)",
      "arguments": [
        "0x1ee4ba474da815f728df08f0147defac07f0bab3"
      ],
      "transaction": {
        "from": "0xe62ab4d111f968660c6b2188046f9b9ba53c4bae",
        "to": "0x00cb1299d29a1d389879c1af2316a4b2c78da610",
        "gas": "0x224c3",
        "value": "0x0",
        "input": "0x12a6385f0000000000000000000000000000000000000000000000000000000000000020000000000000000000000000000000000000000000000000000000000000002a30783165653462613437346461383135663732386466303866303134376465666163303766306261623300000000000000000000000000000000000000000000",
        "nonce": "0x1e5",
        "chainId": "0x66eee"
      },
      "additionalContracts": [],
      "isFixedGasLimit": false
    },
    {
      "hash": "0xe7d921535bbec49a17ab1ed0e3e27948dec2d1c42b6edc7cb5701a2316a31efd",
      "transactionType": "CALL",
      "contractName": "CTMRWAGateway",
      "contractAddress": "0x74972e7ff5561bd902e3ec3ddd5a22653088ca6f",
      "function": "attachRWAX(uint256,uint256,string,string)",
      "arguments": [
        "1",
        "1",
        "421614",
        "0xb41c8b53ea014188ba6777233e04efddbf4877b1"
      ],
      "transaction": {
        "from": "0xe62ab4d111f968660c6b2188046f9b9ba53c4bae",
        "to": "0x74972e7ff5561bd902e3ec3ddd5a22653088ca6f",
        "gas": "0x36bbb",
        "value": "0x0",
        "input": "0x5cbee36a00000000000000000000000000000000000000000000000000000000000000010000000000000000000000000000000000000000000000000000000000000001000000000000000000000000000000000000000000000000000000000000008000000000000000000000000000000000000000000000000000000000000000c000000000000000000000000000000000000000000000000000000000000000063432313631340000000000000000000000000000000000000000000000000000000000000000000000000000000000000000000000000000000000000000002a30786234316338623533656130313431383862613637373732333365303465666464626634383737623100000000000000000000000000000000000000000000",
        "nonce": "0x1e6",
        "chainId": "0x66eee"
      },
      "additionalContracts": [],
      "isFixedGasLimit": false
    }
  ],
  "receipts": [
    {
      "status": "0x1",
      "cumulativeGasUsed": "0x1a0d1",
      "logs": [
        {
          "address": "0x00cb1299d29a1d389879c1af2316a4b2c78da610",
          "topics": [
            "0x1394cfab38f3fc78ed77ea6f9318782a446d96e7dc8e9a6b0149f6be25c08bcf",
            "0x0000000000000000000000001ee4ba474da815f728df08f0147defac07f0bab3"
          ],
          "data": "0x",
          "blockHash": "0xd84ad761e2e43d07c3a243c3aa9be4ab6a3cb7d829ba0db2e128617d79e2e8f7",
          "blockNumber": "0x58c2e78",
          "transactionHash": "0xc9b2abc4516d8d0c610a10de5b19aaf299c7932bec1aa819367d7a3928651a3e",
          "transactionIndex": "0x1",
          "logIndex": "0x0",
          "removed": false
        }
      ],
      "logsBloom": "0x00000000000000000000000000000000000000000000000000000000000000000000000000000000000000000000000000000000000000000000000000000000000000000000000000000000000000000000001000000000000000000000000002000000000000000000000000000000000000000000000000000000000000000000000100000000000000000000000000000000000000000000000000000000000004000000000080000000000000000000000100000000000000000000000000000000000000000000000000000000000000000000000000000000000000000000000000000000000000100000000000000000000000000001000400000000",
      "type": "0x2",
      "transactionHash": "0xc9b2abc4516d8d0c610a10de5b19aaf299c7932bec1aa819367d7a3928651a3e",
      "transactionIndex": "0x1",
      "blockHash": "0xd84ad761e2e43d07c3a243c3aa9be4ab6a3cb7d829ba0db2e128617d79e2e8f7",
      "blockNumber": "0x58c2e78",
      "gasUsed": "0x1a0d1",
      "effectiveGasPrice": "0x5f5e100",
      "from": "0xe62ab4d111f968660c6b2188046f9b9ba53c4bae",
      "to": "0x00cb1299d29a1d389879c1af2316a4b2c78da610",
      "contractAddress": null,
      "gasUsedForL1": "0x5ea",
      "l1BlockNumber": "0x6a7d45"
    },
    {
      "status": "0x1",
      "cumulativeGasUsed": "0x29645",
      "logs": [],
      "logsBloom": "0x00000000000000000000000000000000000000000000000000000000000000000000000000000000000000000000000000000000000000000000000000000000000000000000000000000000000000000000000000000000000000000000000000000000000000000000000000000000000000000000000000000000000000000000000000000000000000000000000000000000000000000000000000000000000000000000000000000000000000000000000000000000000000000000000000000000000000000000000000000000000000000000000000000000000000000000000000000000000000000000000000000000000000000000000000000000",
      "type": "0x2",
      "transactionHash": "0xe7d921535bbec49a17ab1ed0e3e27948dec2d1c42b6edc7cb5701a2316a31efd",
      "transactionIndex": "0x1",
      "blockHash": "0xc8fc66b655bf6611fdbc1c84279430c4c06ce6f64ca9bb9a91b4d52ae69fba44",
      "blockNumber": "0x58c2e96",
      "gasUsed": "0x29645",
      "effectiveGasPrice": "0x5f5e100",
      "from": "0xe62ab4d111f968660c6b2188046f9b9ba53c4bae",
      "to": "0x74972e7ff5561bd902e3ec3ddd5a22653088ca6f",
      "contractAddress": null,
      "gasUsedForL1": "0x689",
      "l1BlockNumber": "0x6a7d45"
    }
  ],
  "libraries": [],
  "pending": [],
  "returns": {},
  "timestamp": 1730320509,
  "chain": 421614,
  "commit": "34a11392"
}