{
  "transactions": [
    {
      "hash": "0x9aa5ec1978273211e7c756357b71db7b7dd634363e615770ea769e096ed49f3d",
      "transactionType": "CALL",
      "contractName": null,
      "contractAddress": "0xfa89dd803b8872f991997778d26c74a3aecd9639",
      "function": "addChainContract(string[],string[])",
      "arguments": [
        "[1115, 200810]",
        "[0xc0b8f765907ab09106010190ee991aaae01f88ba, 0xe08c7ee637336565511eb3421dafdf45b860f9bc]"
      ],
      "transaction": {
        "from": "0xe62ab4d111f968660c6b2188046f9b9ba53c4bae",
        "to": "0xfa89dd803b8872f991997778d26c74a3aecd9639",
        "gas": "0x6c55a",
        "value": "0x0",
        "input": "0x013fd3bd0000000000000000000000000000000000000000000000000000000000000040000000000000000000000000000000000000000000000000000000000000012000000000000000000000000000000000000000000000000000000000000000020000000000000000000000000000000000000000000000000000000000000040000000000000000000000000000000000000000000000000000000000000008000000000000000000000000000000000000000000000000000000000000000043131313500000000000000000000000000000000000000000000000000000000000000000000000000000000000000000000000000000000000000000000000632303038313000000000000000000000000000000000000000000000000000000000000000000000000000000000000000000000000000000000000000000002000000000000000000000000000000000000000000000000000000000000004000000000000000000000000000000000000000000000000000000000000000a0000000000000000000000000000000000000000000000000000000000000002a30786330623866373635393037616230393130363031303139306565393931616161653031663838626100000000000000000000000000000000000000000000000000000000000000000000000000000000000000000000000000000000002a30786530386337656536333733333635363535313165623334323164616664663435623836306639626300000000000000000000000000000000000000000000",
        "nonce": "0xd3f",
        "chainId": "0x66eee"
      },
      "additionalContracts": [],
      "isFixedGasLimit": false
    },
    {
      "hash": "0xf8bb8e926a99d419100199495c391cd2b9d060fbb726d0487c486abaa8e61620",
      "transactionType": "CALL",
      "contractName": null,
      "contractAddress": "0xfa89dd803b8872f991997778d26c74a3aecd9639",
      "function": "attachRWAX(uint256,uint256,string[],string[])",
      "arguments": [
        "1",
        "1",
        "[1115, 200810]",
        "[0xc981d340ac02b717b52dc249c46b1942e20edbad, 0x78f81b1aee019efaafe58853d96c5e9ac87be731]"
      ],
      "transaction": {
        "from": "0xe62ab4d111f968660c6b2188046f9b9ba53c4bae",
        "to": "0xfa89dd803b8872f991997778d26c74a3aecd9639",
        "gas": "0x7f8e7",
        "value": "0x0",
        "input": "0x33a5f5b4000000000000000000000000000000000000000000000000000000000000000100000000000000000000000000000000000000000000000000000000000000010000000000000000000000000000000000000000000000000000000000000080000000000000000000000000000000000000000000000000000000000000016000000000000000000000000000000000000000000000000000000000000000020000000000000000000000000000000000000000000000000000000000000040000000000000000000000000000000000000000000000000000000000000008000000000000000000000000000000000000000000000000000000000000000043131313500000000000000000000000000000000000000000000000000000000000000000000000000000000000000000000000000000000000000000000000632303038313000000000000000000000000000000000000000000000000000000000000000000000000000000000000000000000000000000000000000000002000000000000000000000000000000000000000000000000000000000000004000000000000000000000000000000000000000000000000000000000000000a0000000000000000000000000000000000000000000000000000000000000002a30786339383164333430616330326237313762353264633234396334366231393432653230656462616400000000000000000000000000000000000000000000000000000000000000000000000000000000000000000000000000000000002a30783738663831623161656530313965666161666535383835336439366335653961633837626537333100000000000000000000000000000000000000000000",
        "nonce": "0xd40",
        "chainId": "0x66eee"
      },
      "additionalContracts": [],
      "isFixedGasLimit": false
    },
    {
      "hash": "0x340108a2de0b90e0f2f34e1585b9a65e3b304d15de6b2b9d45dbf61187f747b1",
      "transactionType": "CALL",
      "contractName": null,
      "contractAddress": "0xfa89dd803b8872f991997778d26c74a3aecd9639",
      "function": "attachStorageManager(uint256,uint256,string[],string[])",
      "arguments": [
        "1",
        "1",
        "[1115, 200810]",
        "[0x2809808fc225fdaf859826ce7499a56b106d8870, 0x0f607af04457e86ec349fbebb6e23b0a6a0d067f]"
      ],
      "transaction": {
        "from": "0xe62ab4d111f968660c6b2188046f9b9ba53c4bae",
        "to": "0xfa89dd803b8872f991997778d26c74a3aecd9639",
        "gas": "0x6f0ff",
        "value": "0x0",
        "input": "0x2f68b489000000000000000000000000000000000000000000000000000000000000000100000000000000000000000000000000000000000000000000000000000000010000000000000000000000000000000000000000000000000000000000000080000000000000000000000000000000000000000000000000000000000000016000000000000000000000000000000000000000000000000000000000000000020000000000000000000000000000000000000000000000000000000000000040000000000000000000000000000000000000000000000000000000000000008000000000000000000000000000000000000000000000000000000000000000043131313500000000000000000000000000000000000000000000000000000000000000000000000000000000000000000000000000000000000000000000000632303038313000000000000000000000000000000000000000000000000000000000000000000000000000000000000000000000000000000000000000000002000000000000000000000000000000000000000000000000000000000000004000000000000000000000000000000000000000000000000000000000000000a0000000000000000000000000000000000000000000000000000000000000002a30783238303938303866633232356664616638353938323663653734393961353662313036643838373000000000000000000000000000000000000000000000000000000000000000000000000000000000000000000000000000000000002a30783066363037616630343435376538366563333439666265626236653233623061366130643036376600000000000000000000000000000000000000000000",
        "nonce": "0xd41",
        "chainId": "0x66eee"
      },
      "additionalContracts": [],
      "isFixedGasLimit": false
    },
    {
      "hash": "0x4c0c20bf6e601c1e4c44ba7e70dcc0fb49dafd1c2dfc5fda3b43730c0c87e4cc",
      "transactionType": "CALL",
      "contractName": null,
      "contractAddress": "0xfa89dd803b8872f991997778d26c74a3aecd9639",
      "function": "attachSentryManager(uint256,uint256,string[],string[])",
      "arguments": [
        "1",
        "1",
        "[1115, 200810]",
        "[0xea37aefe52e5327528f71171844474cf77507770, 0x10a04ad4a73c8bb00ee5a29b27d11eee85390306]"
      ],
      "transaction": {
        "from": "0xe62ab4d111f968660c6b2188046f9b9ba53c4bae",
        "to": "0xfa89dd803b8872f991997778d26c74a3aecd9639",
        "gas": "0x6ef9c",
        "value": "0x0",
        "input": "0x349de797000000000000000000000000000000000000000000000000000000000000000100000000000000000000000000000000000000000000000000000000000000010000000000000000000000000000000000000000000000000000000000000080000000000000000000000000000000000000000000000000000000000000016000000000000000000000000000000000000000000000000000000000000000020000000000000000000000000000000000000000000000000000000000000040000000000000000000000000000000000000000000000000000000000000008000000000000000000000000000000000000000000000000000000000000000043131313500000000000000000000000000000000000000000000000000000000000000000000000000000000000000000000000000000000000000000000000632303038313000000000000000000000000000000000000000000000000000000000000000000000000000000000000000000000000000000000000000000002000000000000000000000000000000000000000000000000000000000000004000000000000000000000000000000000000000000000000000000000000000a0000000000000000000000000000000000000000000000000000000000000002a30786561333761656665353265353332373532386637313137313834343437346366373735303737373000000000000000000000000000000000000000000000000000000000000000000000000000000000000000000000000000000000002a30783130613034616434613733633862623030656535613239623237643131656565383533393033303600000000000000000000000000000000000000000000",
        "nonce": "0xd42",
        "chainId": "0x66eee"
      },
      "additionalContracts": [],
      "isFixedGasLimit": false
    }
  ],
  "receipts": [
    {
      "status": "0x1",
      "cumulativeGasUsed": "0x8bff8",
      "logs": [],
      "logsBloom": "0x00000000000000000000000000000000000000000000000000000000000000000000000000000000000000000000000000000000000000000000000000000000000000000000000000000000000000000000000000000000000000000000000000000000000000000000000000000000000000000000000000000000000000000000000000000000000000000000000000000000000000000000000000000000000000000000000000000000000000000000000000000000000000000000000000000000000000000000000000000000000000000000000000000000000000000000000000000000000000000000000000000000000000000000000000000000",
      "type": "0x2",
      "transactionHash": "0x9aa5ec1978273211e7c756357b71db7b7dd634363e615770ea769e096ed49f3d",
      "transactionIndex": "0x5",
      "blockHash": "0xf46579a45b23fffd662f2783c408a45c02af4c96d74468ca78e999d4c1286cd3",
      "blockNumber": "0x96ba5db",
      "gasUsed": "0x52653",
      "effectiveGasPrice": "0x5f5e100",
      "from": "0xe62ab4d111f968660c6b2188046f9b9ba53c4bae",
      "to": "0xfa89dd803b8872f991997778d26c74a3aecd9639",
      "contractAddress": null,
      "gasUsedForL1": "0x0",
      "l1BlockNumber": "0x80ac50",
      "timeboosted": false
    },
    {
      "status": "0x1",
      "cumulativeGasUsed": "0x6c836",
      "logs": [],
      "logsBloom": "0x00000000000000000000000000000000000000000000000000000000000000000000000000000000000000000000000000000000000000000000000000000000000000000000000000000000000000000000000000000000000000000000000000000000000000000000000000000000000000000000000000000000000000000000000000000000000000000000000000000000000000000000000000000000000000000000000000000000000000000000000000000000000000000000000000000000000000000000000000000000000000000000000000000000000000000000000000000000000000000000000000000000000000000000000000000000",
      "type": "0x2",
      "transactionHash": "0xf8bb8e926a99d419100199495c391cd2b9d060fbb726d0487c486abaa8e61620",
      "transactionIndex": "0x2",
      "blockHash": "0xfe9acd59ab9c4f98a0caaeac81490589fc967bf1dabb08d9d69f476d5638321d",
      "blockNumber": "0x96ba5e7",
      "gasUsed": "0x6110a",
      "effectiveGasPrice": "0x5f5e100",
      "from": "0xe62ab4d111f968660c6b2188046f9b9ba53c4bae",
      "to": "0xfa89dd803b8872f991997778d26c74a3aecd9639",
      "contractAddress": null,
      "gasUsedForL1": "0x0",
      "l1BlockNumber": "0x80ac50",
      "timeboosted": false
    },
    {
      "status": "0x1",
      "cumulativeGasUsed": "0x8717c",
      "logs": [],
      "logsBloom": "0x00000000000000000000000000000000000000000000000000000000000000000000000000000000000000000000000000000000000000000000000000000000000000000000000000000000000000000000000000000000000000000000000000000000000000000000000000000000000000000000000000000000000000000000000000000000000000000000000000000000000000000000000000000000000000000000000000000000000000000000000000000000000000000000000000000000000000000000000000000000000000000000000000000000000000000000000000000000000000000000000000000000000000000000000000000000",
      "type": "0x2",
      "transactionHash": "0x340108a2de0b90e0f2f34e1585b9a65e3b304d15de6b2b9d45dbf61187f747b1",
      "transactionIndex": "0x4",
      "blockHash": "0x6d4a95ca64edfd9c83c7d60e2f208245bfe56e9eacbd247cc0727134bd74f59b",
      "blockNumber": "0x96ba5f2",
      "gasUsed": "0x547a3",
      "effectiveGasPrice": "0x5f5e100",
      "from": "0xe62ab4d111f968660c6b2188046f9b9ba53c4bae",
      "to": "0xfa89dd803b8872f991997778d26c74a3aecd9639",
      "contractAddress": null,
      "gasUsedForL1": "0x0",
      "l1BlockNumber": "0x80ac50",
      "timeboosted": false
    },
    {
      "status": "0x1",
      "cumulativeGasUsed": "0xf9a78",
      "logs": [],
      "logsBloom": "0x00000000000000000000000000000000000000000000000000000000000000000000000000000000000000000000000000000000000000000000000000000000000000000000000000000000000000000000000000000000000000000000000000000000000000000000000000000000000000000000000000000000000000000000000000000000000000000000000000000000000000000000000000000000000000000000000000000000000000000000000000000000000000000000000000000000000000000000000000000000000000000000000000000000000000000000000000000000000000000000000000000000000000000000000000000000",
      "type": "0x2",
      "transactionHash": "0x4c0c20bf6e601c1e4c44ba7e70dcc0fb49dafd1c2dfc5fda3b43730c0c87e4cc",
      "transactionIndex": "0x2",
      "blockHash": "0x6e03c555a32b3b82181a1a406723ba4d8f0d4aec5ded6d263e558a1985349909",
      "blockNumber": "0x96ba5fd",
      "gasUsed": "0x54694",
      "effectiveGasPrice": "0x5f5e100",
      "from": "0xe62ab4d111f968660c6b2188046f9b9ba53c4bae",
      "to": "0xfa89dd803b8872f991997778d26c74a3aecd9639",
      "contractAddress": null,
      "gasUsedForL1": "0x0",
      "l1BlockNumber": "0x80ac50",
      "timeboosted": false
    }
  ],
  "libraries": [],
  "pending": [],
  "returns": {},
  "timestamp": 1748531033,
  "chain": 421614,
  "commit": "c07ce9ba"
}