{
  "transactions": [
    {
      "hash": "0x3b2aad4677b5a0de8432bba4556020fdbabbc24519d6c40e9b8fb6fb6c8764bb",
      "transactionType": "CALL",
      "contractName": "CTMRWAGateway",
      "contractAddress": "0x74972e7ff5561bd902e3ec3ddd5a22653088ca6f",
      "function": "attachRWAX(uint256,uint256,string,string)",
      "arguments": [
        "1",
        "1",
        "421614",
        "0xb41c8b53ea014188ba6777233e04efddbf4877b1"
      ],
      "transaction": {
        "from": "0xe62ab4d111f968660c6b2188046f9b9ba53c4bae",
        "to": "0x74972e7ff5561bd902e3ec3ddd5a22653088ca6f",
        "gas": "0x18a15",
        "value": "0x0",
        "input": "0x5cbee36a00000000000000000000000000000000000000000000000000000000000000010000000000000000000000000000000000000000000000000000000000000001000000000000000000000000000000000000000000000000000000000000008000000000000000000000000000000000000000000000000000000000000000c000000000000000000000000000000000000000000000000000000000000000063432313631340000000000000000000000000000000000000000000000000000000000000000000000000000000000000000000000000000000000000000002a30786234316338623533656130313431383862613637373732333365303465666464626634383737623100000000000000000000000000000000000000000000",
        "nonce": "0x1e7",
        "chainId": "0x66eee"
      },
      "additionalContracts": [],
      "isFixedGasLimit": false
    },
    {
      "hash": "0x195de1a52758b92525194903c00bdfc096b8c565fea7066c7e42925697e5acc2",
      "transactionType": "CALL",
      "contractName": "CTMRWAGateway",
      "contractAddress": "0x74972e7ff5561bd902e3ec3ddd5a22653088ca6f",
      "function": "attachStorageManager(uint256,uint256,string,string)",
      "arguments": [
        "1",
        "1",
        "421614",
        "0x00cb1299d29a1d389879c1af2316a4b2c78da610"
      ],
      "transaction": {
        "from": "0xe62ab4d111f968660c6b2188046f9b9ba53c4bae",
        "to": "0x74972e7ff5561bd902e3ec3ddd5a22653088ca6f",
        "gas": "0x37480",
        "value": "0x0",
        "input": "0x6bb884f300000000000000000000000000000000000000000000000000000000000000010000000000000000000000000000000000000000000000000000000000000001000000000000000000000000000000000000000000000000000000000000008000000000000000000000000000000000000000000000000000000000000000c000000000000000000000000000000000000000000000000000000000000000063432313631340000000000000000000000000000000000000000000000000000000000000000000000000000000000000000000000000000000000000000002a30783030636231323939643239613164333839383739633161663233313661346232633738646136313000000000000000000000000000000000000000000000",
        "nonce": "0x1e8",
        "chainId": "0x66eee"
      },
      "additionalContracts": [],
      "isFixedGasLimit": false
    }
  ],
  "receipts": [
    {
      "status": "0x1",
      "cumulativeGasUsed": "0x121f7",
      "logs": [],
      "logsBloom": "0x00000000000000000000000000000000000000000000000000000000000000000000000000000000000000000000000000000000000000000000000000000000000000000000000000000000000000000000000000000000000000000000000000000000000000000000000000000000000000000000000000000000000000000000000000000000000000000000000000000000000000000000000000000000000000000000000000000000000000000000000000000000000000000000000000000000000000000000000000000000000000000000000000000000000000000000000000000000000000000000000000000000000000000000000000000000",
      "type": "0x2",
      "transactionHash": "0x3b2aad4677b5a0de8432bba4556020fdbabbc24519d6c40e9b8fb6fb6c8764bb",
      "transactionIndex": "0x1",
      "blockHash": "0xdac93d2557aa2aaf8c583b810cde24155207bb8c4ae6ff38b4ca963c882a72fb",
      "blockNumber": "0x58c6a0e",
      "gasUsed": "0x121f7",
      "effectiveGasPrice": "0x5f5e100",
      "from": "0xe62ab4d111f968660c6b2188046f9b9ba53c4bae",
      "to": "0x74972e7ff5561bd902e3ec3ddd5a22653088ca6f",
      "contractAddress": null,
      "gasUsedForL1": "0xc88",
      "l1BlockNumber": "0x6a7ec9"
    },
    {
      "status": "0x1",
      "cumulativeGasUsed": "0x29b85",
      "logs": [],
      "logsBloom": "0x00000000000000000000000000000000000000000000000000000000000000000000000000000000000000000000000000000000000000000000000000000000000000000000000000000000000000000000000000000000000000000000000000000000000000000000000000000000000000000000000000000000000000000000000000000000000000000000000000000000000000000000000000000000000000000000000000000000000000000000000000000000000000000000000000000000000000000000000000000000000000000000000000000000000000000000000000000000000000000000000000000000000000000000000000000000",
      "type": "0x2",
      "transactionHash": "0x195de1a52758b92525194903c00bdfc096b8c565fea7066c7e42925697e5acc2",
      "transactionIndex": "0x1",
      "blockHash": "0x004cd4978c5ce920cdebb9b23ea29dd2ebef1ec291d2c951dc7c9726395bae1b",
      "blockNumber": "0x58c6a10",
      "gasUsed": "0x29b85",
      "effectiveGasPrice": "0x5f5e100",
      "from": "0xe62ab4d111f968660c6b2188046f9b9ba53c4bae",
      "to": "0x74972e7ff5561bd902e3ec3ddd5a22653088ca6f",
      "contractAddress": null,
      "gasUsedForL1": "0xc59",
      "l1BlockNumber": "0x6a7ec9"
    }
  ],
  "libraries": [],
  "pending": [],
  "returns": {},
  "timestamp": 1730325570,
  "chain": 421614,
  "commit": "34a11392"
}