{
  "transactions": [
    {
      "hash": "0x44d6b6e778ac70a6627857514f25731e545ddc14028fb70dbb0a9d053a3012cd",
      "transactionType": "CALL",
      "contractName": null,
      "contractAddress": "0x7226289b8df9ffe5b98ad54d0225e8c83ecc7191",
      "function": "getFeeTokenList()",
      "arguments": [],
      "transaction": {
        "from": "0xe62ab4d111f968660c6b2188046f9b9ba53c4bae",
        "to": "0x7226289b8df9ffe5b98ad54d0225e8c83ecc7191",
        "gas": "0x96c5",
        "value": "0x0",
        "input": "0xe28ab277",
        "nonce": "0x3f1",
        "chainId": "0x66eee"
      },
      "additionalContracts": [],
      "isFixedGasLimit": false
    },
    {
      "hash": "0xd4fd7720d9ebd64eec6c845a8da44eaa83fb284b49d581c275cdefbbe2dc2901",
      "transactionType": "CALL",
      "contractName": null,
      "contractAddress": "0x7226289b8df9ffe5b98ad54d0225e8c83ecc7191",
      "function": "addFeeToken(string)",
      "arguments": [
        "0x92829288c6aa874c1a0f190da35a4023c22be637"
      ],
      "transaction": {
        "from": "0xe62ab4d111f968660c6b2188046f9b9ba53c4bae",
        "to": "0x7226289b8df9ffe5b98ad54d0225e8c83ecc7191",
        "gas": "0x276fc",
        "value": "0x0",
        "input": "0x12a6385f0000000000000000000000000000000000000000000000000000000000000020000000000000000000000000000000000000000000000000000000000000002a30783932383239323838633661613837346331613066313930646133356134303233633232626536333700000000000000000000000000000000000000000000",
        "nonce": "0x3f2",
        "chainId": "0x66eee"
      },
      "additionalContracts": [],
      "isFixedGasLimit": false
    },
    {
      "hash": "0x2da194c5d2af4fa5b4f206a2d95f4ff7283b9f044c97d15f057e5ef74c5ebdb6",
      "transactionType": "CALL",
      "contractName": null,
      "contractAddress": "0x7226289b8df9ffe5b98ad54d0225e8c83ecc7191",
      "function": "setFeeMultiplier(uint8,uint256)",
      "arguments": [
        "0",
        "2"
      ],
      "transaction": {
        "from": "0xe62ab4d111f968660c6b2188046f9b9ba53c4bae",
        "to": "0x7226289b8df9ffe5b98ad54d0225e8c83ecc7191",
        "gas": "0x11dda",
        "value": "0x0",
        "input": "0x0ee24eb500000000000000000000000000000000000000000000000000000000000000000000000000000000000000000000000000000000000000000000000000000002",
        "nonce": "0x3f3",
        "chainId": "0x66eee"
      },
      "additionalContracts": [],
      "isFixedGasLimit": false
    },
    {
      "hash": "0x63d80b888bcd8992424f86f7ae9637dd944936d03a6eff9eaaefb67bfac41027",
      "transactionType": "CALL",
      "contractName": null,
      "contractAddress": "0x7226289b8df9ffe5b98ad54d0225e8c83ecc7191",
      "function": "setFeeMultiplier(uint8,uint256)",
      "arguments": [
        "1",
        "10"
      ],
      "transaction": {
        "from": "0xe62ab4d111f968660c6b2188046f9b9ba53c4bae",
        "to": "0x7226289b8df9ffe5b98ad54d0225e8c83ecc7191",
        "gas": "0x11e0f",
        "value": "0x0",
        "input": "0x0ee24eb50000000000000000000000000000000000000000000000000000000000000001000000000000000000000000000000000000000000000000000000000000000a",
        "nonce": "0x3f4",
        "chainId": "0x66eee"
      },
      "additionalContracts": [],
      "isFixedGasLimit": false
    },
    {
      "hash": "0x8937d731e1178995465deb37bc3cb6c7d3e204535322aca6b3b677522e686f9a",
      "transactionType": "CALL",
      "contractName": null,
      "contractAddress": "0x7226289b8df9ffe5b98ad54d0225e8c83ecc7191",
      "function": "setFeeMultiplier(uint8,uint256)",
      "arguments": [
        "2",
        "1"
      ],
      "transaction": {
        "from": "0xe62ab4d111f968660c6b2188046f9b9ba53c4bae",
        "to": "0x7226289b8df9ffe5b98ad54d0225e8c83ecc7191",
        "gas": "0x11e2d",
        "value": "0x0",
        "input": "0x0ee24eb500000000000000000000000000000000000000000000000000000000000000020000000000000000000000000000000000000000000000000000000000000001",
        "nonce": "0x3f5",
        "chainId": "0x66eee"
      },
      "additionalContracts": [],
      "isFixedGasLimit": false
    },
    {
      "hash": "0x85af4bc0aa67dcddbbd8571b22ff4ab3ad412aa741219f7db84886f5e0adbadd",
      "transactionType": "CALL",
      "contractName": null,
      "contractAddress": "0x7226289b8df9ffe5b98ad54d0225e8c83ecc7191",
      "function": "setFeeMultiplier(uint8,uint256)",
      "arguments": [
        "3",
        "4"
      ],
      "transaction": {
        "from": "0xe62ab4d111f968660c6b2188046f9b9ba53c4bae",
        "to": "0x7226289b8df9ffe5b98ad54d0225e8c83ecc7191",
        "gas": "0x11e4b",
        "value": "0x0",
        "input": "0x0ee24eb500000000000000000000000000000000000000000000000000000000000000030000000000000000000000000000000000000000000000000000000000000004",
        "nonce": "0x3f6",
        "chainId": "0x66eee"
      },
      "additionalContracts": [],
      "isFixedGasLimit": false
    },
    {
      "hash": "0x3116a248a02f9df3d7e17776f5aaa277992597aa687685ecfea490cdac08f6b0",
      "transactionType": "CALL",
      "contractName": null,
      "contractAddress": "0x7226289b8df9ffe5b98ad54d0225e8c83ecc7191",
      "function": "setFeeMultiplier(uint8,uint256)",
      "arguments": [
        "4",
        "4"
      ],
      "transaction": {
        "from": "0xe62ab4d111f968660c6b2188046f9b9ba53c4bae",
        "to": "0x7226289b8df9ffe5b98ad54d0225e8c83ecc7191",
        "gas": "0x11e6a",
        "value": "0x0",
        "input": "0x0ee24eb500000000000000000000000000000000000000000000000000000000000000040000000000000000000000000000000000000000000000000000000000000004",
        "nonce": "0x3f7",
        "chainId": "0x66eee"
      },
      "additionalContracts": [],
      "isFixedGasLimit": false
    },
    {
      "hash": "0xf0fa4149ab6f527d56ea3b1e6b762541c3c6a171cb41f18c45bf0c3b17b6999d",
      "transactionType": "CALL",
      "contractName": null,
      "contractAddress": "0x7226289b8df9ffe5b98ad54d0225e8c83ecc7191",
      "function": "setFeeMultiplier(uint8,uint256)",
      "arguments": [
        "5",
        "8"
      ],
      "transaction": {
        "from": "0xe62ab4d111f968660c6b2188046f9b9ba53c4bae",
        "to": "0x7226289b8df9ffe5b98ad54d0225e8c83ecc7191",
        "gas": "0x11e88",
        "value": "0x0",
        "input": "0x0ee24eb500000000000000000000000000000000000000000000000000000000000000050000000000000000000000000000000000000000000000000000000000000008",
        "nonce": "0x3f8",
        "chainId": "0x66eee"
      },
      "additionalContracts": [],
      "isFixedGasLimit": false
    },
    {
      "hash": "0x667d9123deba06f6c12287cbedb2f461c3a8ff058543ad75817c751302994f2d",
      "transactionType": "CALL",
      "contractName": null,
      "contractAddress": "0x7226289b8df9ffe5b98ad54d0225e8c83ecc7191",
      "function": "setFeeMultiplier(uint8,uint256)",
      "arguments": [
        "6",
        "4"
      ],
      "transaction": {
        "from": "0xe62ab4d111f968660c6b2188046f9b9ba53c4bae",
        "to": "0x7226289b8df9ffe5b98ad54d0225e8c83ecc7191",
        "gas": "0x11ea6",
        "value": "0x0",
        "input": "0x0ee24eb500000000000000000000000000000000000000000000000000000000000000060000000000000000000000000000000000000000000000000000000000000004",
        "nonce": "0x3f9",
        "chainId": "0x66eee"
      },
      "additionalContracts": [],
      "isFixedGasLimit": false
    },
    {
      "hash": "0x939539bcbb4ef87197fe59b1f15cc8b3b0e704ae840ad2859d30b24087d42aab",
      "transactionType": "CALL",
      "contractName": null,
      "contractAddress": "0x7226289b8df9ffe5b98ad54d0225e8c83ecc7191",
      "function": "setFeeMultiplier(uint8,uint256)",
      "arguments": [
        "7",
        "10"
      ],
      "transaction": {
        "from": "0xe62ab4d111f968660c6b2188046f9b9ba53c4bae",
        "to": "0x7226289b8df9ffe5b98ad54d0225e8c83ecc7191",
        "gas": "0x11ec4",
        "value": "0x0",
        "input": "0x0ee24eb50000000000000000000000000000000000000000000000000000000000000007000000000000000000000000000000000000000000000000000000000000000a",
        "nonce": "0x3fa",
        "chainId": "0x66eee"
      },
      "additionalContracts": [],
      "isFixedGasLimit": false
    },
    {
      "hash": "0x0adfc59619729172f8567df7d1a51e286092f1749d29b4faaee8673c21dbfc0f",
      "transactionType": "CALL",
      "contractName": null,
      "contractAddress": "0x7226289b8df9ffe5b98ad54d0225e8c83ecc7191",
      "function": "setFeeMultiplier(uint8,uint256)",
      "arguments": [
        "8",
        "8"
      ],
      "transaction": {
        "from": "0xe62ab4d111f968660c6b2188046f9b9ba53c4bae",
        "to": "0x7226289b8df9ffe5b98ad54d0225e8c83ecc7191",
        "gas": "0x11ee2",
        "value": "0x0",
        "input": "0x0ee24eb500000000000000000000000000000000000000000000000000000000000000080000000000000000000000000000000000000000000000000000000000000008",
        "nonce": "0x3fb",
        "chainId": "0x66eee"
      },
      "additionalContracts": [],
      "isFixedGasLimit": false
    },
    {
      "hash": "0xab2b4280b4340313acdaa9f98719f587a7c1dba7511244a5c15de1628f37154c",
      "transactionType": "CALL",
      "contractName": null,
      "contractAddress": "0x7226289b8df9ffe5b98ad54d0225e8c83ecc7191",
      "function": "setFeeMultiplier(uint8,uint256)",
      "arguments": [
        "9",
        "8"
      ],
      "transaction": {
        "from": "0xe62ab4d111f968660c6b2188046f9b9ba53c4bae",
        "to": "0x7226289b8df9ffe5b98ad54d0225e8c83ecc7191",
        "gas": "0x11f00",
        "value": "0x0",
        "input": "0x0ee24eb500000000000000000000000000000000000000000000000000000000000000090000000000000000000000000000000000000000000000000000000000000008",
        "nonce": "0x3fc",
        "chainId": "0x66eee"
      },
      "additionalContracts": [],
      "isFixedGasLimit": false
    },
    {
      "hash": "0x3ace1e60a8c33ae43bd796780c4368242e6728cf2d5068acf8922607645753f0",
      "transactionType": "CALL",
      "contractName": null,
      "contractAddress": "0x7226289b8df9ffe5b98ad54d0225e8c83ecc7191",
      "function": "setFeeMultiplier(uint8,uint256)",
      "arguments": [
        "10",
        "8"
      ],
      "transaction": {
        "from": "0xe62ab4d111f968660c6b2188046f9b9ba53c4bae",
        "to": "0x7226289b8df9ffe5b98ad54d0225e8c83ecc7191",
        "gas": "0x11f1e",
        "value": "0x0",
        "input": "0x0ee24eb5000000000000000000000000000000000000000000000000000000000000000a0000000000000000000000000000000000000000000000000000000000000008",
        "nonce": "0x3fd",
        "chainId": "0x66eee"
      },
      "additionalContracts": [],
      "isFixedGasLimit": false
    },
    {
      "hash": "0xeb488468a4805fc2f8b5710d2023da048b3dee1ca8b9304ec59d9d843146b6fc",
      "transactionType": "CALL",
      "contractName": null,
      "contractAddress": "0x7226289b8df9ffe5b98ad54d0225e8c83ecc7191",
      "function": "setFeeMultiplier(uint8,uint256)",
      "arguments": [
        "11",
        "20"
      ],
      "transaction": {
        "from": "0xe62ab4d111f968660c6b2188046f9b9ba53c4bae",
        "to": "0x7226289b8df9ffe5b98ad54d0225e8c83ecc7191",
        "gas": "0x11f3b",
        "value": "0x0",
        "input": "0x0ee24eb5000000000000000000000000000000000000000000000000000000000000000b0000000000000000000000000000000000000000000000000000000000000014",
        "nonce": "0x3fe",
        "chainId": "0x66eee"
      },
      "additionalContracts": [],
      "isFixedGasLimit": false
    },
    {
      "hash": "0xb3ccfe8463018225f9fa29a863f9065a724c2a4b38e18ddb68efa516718ceef9",
      "transactionType": "CALL",
      "contractName": null,
      "contractAddress": "0x7226289b8df9ffe5b98ad54d0225e8c83ecc7191",
      "function": "setFeeMultiplier(uint8,uint256)",
      "arguments": [
        "12",
        "8"
      ],
      "transaction": {
        "from": "0xe62ab4d111f968660c6b2188046f9b9ba53c4bae",
        "to": "0x7226289b8df9ffe5b98ad54d0225e8c83ecc7191",
        "gas": "0x11f59",
        "value": "0x0",
        "input": "0x0ee24eb5000000000000000000000000000000000000000000000000000000000000000c0000000000000000000000000000000000000000000000000000000000000008",
        "nonce": "0x3ff",
        "chainId": "0x66eee"
      },
      "additionalContracts": [],
      "isFixedGasLimit": false
    },
    {
      "hash": "0x9270ef952dbad1791fa693fb441eca29f081aefd9c9c7a842ab2f181baf24962",
      "transactionType": "CALL",
      "contractName": null,
      "contractAddress": "0x7226289b8df9ffe5b98ad54d0225e8c83ecc7191",
      "function": "setFeeMultiplier(uint8,uint256)",
      "arguments": [
        "13",
        "4"
      ],
      "transaction": {
        "from": "0xe62ab4d111f968660c6b2188046f9b9ba53c4bae",
        "to": "0x7226289b8df9ffe5b98ad54d0225e8c83ecc7191",
        "gas": "0x11f77",
        "value": "0x0",
        "input": "0x0ee24eb5000000000000000000000000000000000000000000000000000000000000000d0000000000000000000000000000000000000000000000000000000000000004",
        "nonce": "0x400",
        "chainId": "0x66eee"
      },
      "additionalContracts": [],
      "isFixedGasLimit": false
    },
    {
      "hash": "0xdcb4f697fc36f893c3a6e426e7babf9e88c049e390881081e6cfaae201ee3199",
      "transactionType": "CALL",
      "contractName": null,
      "contractAddress": "0x7226289b8df9ffe5b98ad54d0225e8c83ecc7191",
      "function": "setFeeMultiplier(uint8,uint256)",
      "arguments": [
        "14",
        "4"
      ],
      "transaction": {
        "from": "0xe62ab4d111f968660c6b2188046f9b9ba53c4bae",
        "to": "0x7226289b8df9ffe5b98ad54d0225e8c83ecc7191",
        "gas": "0x11f95",
        "value": "0x0",
        "input": "0x0ee24eb5000000000000000000000000000000000000000000000000000000000000000e0000000000000000000000000000000000000000000000000000000000000004",
        "nonce": "0x401",
        "chainId": "0x66eee"
      },
      "additionalContracts": [],
      "isFixedGasLimit": false
    },
    {
      "hash": "0xb049bdce7c5af1c814cd706496c392015f1f74167855bbd93e123d43e4a2239d",
      "transactionType": "CALL",
      "contractName": null,
      "contractAddress": "0x7226289b8df9ffe5b98ad54d0225e8c83ecc7191",
      "function": "setFeeMultiplier(uint8,uint256)",
      "arguments": [
        "15",
        "4"
      ],
      "transaction": {
        "from": "0xe62ab4d111f968660c6b2188046f9b9ba53c4bae",
        "to": "0x7226289b8df9ffe5b98ad54d0225e8c83ecc7191",
        "gas": "0x11fb4",
        "value": "0x0",
        "input": "0x0ee24eb5000000000000000000000000000000000000000000000000000000000000000f0000000000000000000000000000000000000000000000000000000000000004",
        "nonce": "0x402",
        "chainId": "0x66eee"
      },
      "additionalContracts": [],
      "isFixedGasLimit": false
    },
    {
      "hash": "0x3c05e4734de44d3873821890ea38b464aba6a967a14bbbb421af9e0658ff1b73",
      "transactionType": "CALL",
      "contractName": null,
      "contractAddress": "0x7226289b8df9ffe5b98ad54d0225e8c83ecc7191",
      "function": "setFeeMultiplier(uint8,uint256)",
      "arguments": [
        "16",
        "2"
      ],
      "transaction": {
        "from": "0xe62ab4d111f968660c6b2188046f9b9ba53c4bae",
        "to": "0x7226289b8df9ffe5b98ad54d0225e8c83ecc7191",
        "gas": "0x11fcc",
        "value": "0x0",
        "input": "0x0ee24eb500000000000000000000000000000000000000000000000000000000000000100000000000000000000000000000000000000000000000000000000000000002",
        "nonce": "0x403",
        "chainId": "0x66eee"
      },
      "additionalContracts": [],
      "isFixedGasLimit": false
    },
    {
      "hash": "0xc108ce74ad3a182ea2ea16d4f4510274c081ffb780a3da90d71fd3231ac29e06",
      "transactionType": "CALL",
      "contractName": null,
      "contractAddress": "0x7226289b8df9ffe5b98ad54d0225e8c83ecc7191",
      "function": "addFeeToken(string,string[],uint256[])",
      "arguments": [
        "421614",
        "[0x92829288c6aa874c1a0f190da35a4023c22be637]",
        "[100]"
      ],
      "transaction": {
        "from": "0xe62ab4d111f968660c6b2188046f9b9ba53c4bae",
        "to": "0x7226289b8df9ffe5b98ad54d0225e8c83ecc7191",
        "gas": "0x31a54",
        "value": "0x0",
        "input": "0x437bf84f000000000000000000000000000000000000000000000000000000000000006000000000000000000000000000000000000000000000000000000000000000a000000000000000000000000000000000000000000000000000000000000001400000000000000000000000000000000000000000000000000000000000000006343231363134000000000000000000000000000000000000000000000000000000000000000000000000000000000000000000000000000000000000000000010000000000000000000000000000000000000000000000000000000000000020000000000000000000000000000000000000000000000000000000000000002a3078393238323932383863366161383734633161306631393064613335613430323363323262653633370000000000000000000000000000000000000000000000000000000000000000000000000000000000000000000000000000000000010000000000000000000000000000000000000000000000000000000000000064",
        "nonce": "0x404",
        "chainId": "0x66eee"
      },
      "additionalContracts": [],
      "isFixedGasLimit": false
    },
    {
      "hash": "0xbe77f9a30043242756ed658a64a3bdd8f40a3ef1e37203d7e131cdcb06241cd1",
      "transactionType": "CALL",
      "contractName": null,
      "contractAddress": "0x7226289b8df9ffe5b98ad54d0225e8c83ecc7191",
      "function": "addFeeToken(string,string[],uint256[])",
      "arguments": [
        "80002",
        "[0x92829288c6aa874c1a0f190da35a4023c22be637]",
        "[100]"
      ],
      "transaction": {
        "from": "0xe62ab4d111f968660c6b2188046f9b9ba53c4bae",
        "to": "0x7226289b8df9ffe5b98ad54d0225e8c83ecc7191",
        "gas": "0x2c1d9",
        "value": "0x0",
        "input": "0x437bf84f000000000000000000000000000000000000000000000000000000000000006000000000000000000000000000000000000000000000000000000000000000a000000000000000000000000000000000000000000000000000000000000001400000000000000000000000000000000000000000000000000000000000000005383030303200000000000000000000000000000000000000000000000000000000000000000000000000000000000000000000000000000000000000000000010000000000000000000000000000000000000000000000000000000000000020000000000000000000000000000000000000000000000000000000000000002a3078393238323932383863366161383734633161306631393064613335613430323363323262653633370000000000000000000000000000000000000000000000000000000000000000000000000000000000000000000000000000000000010000000000000000000000000000000000000000000000000000000000000064",
        "nonce": "0x405",
        "chainId": "0x66eee"
      },
      "additionalContracts": [],
      "isFixedGasLimit": false
    },
    {
      "hash": "0xfcc3bb05da299134cb385e4b1f053ef6bc1fe08a602d1a3c40fa5a1202d68b71",
      "transactionType": "CALL",
      "contractName": null,
      "contractAddress": "0x7226289b8df9ffe5b98ad54d0225e8c83ecc7191",
      "function": "addFeeToken(string,string[],uint256[])",
      "arguments": [
        "84532",
        "[0x92829288c6aa874c1a0f190da35a4023c22be637]",
        "[100]"
      ],
      "transaction": {
        "from": "0xe62ab4d111f968660c6b2188046f9b9ba53c4bae",
        "to": "0x7226289b8df9ffe5b98ad54d0225e8c83ecc7191",
        "gas": "0x2c1d9",
        "value": "0x0",
        "input": "0x437bf84f000000000000000000000000000000000000000000000000000000000000006000000000000000000000000000000000000000000000000000000000000000a000000000000000000000000000000000000000000000000000000000000001400000000000000000000000000000000000000000000000000000000000000005383435333200000000000000000000000000000000000000000000000000000000000000000000000000000000000000000000000000000000000000000000010000000000000000000000000000000000000000000000000000000000000020000000000000000000000000000000000000000000000000000000000000002a3078393238323932383863366161383734633161306631393064613335613430323363323262653633370000000000000000000000000000000000000000000000000000000000000000000000000000000000000000000000000000000000010000000000000000000000000000000000000000000000000000000000000064",
        "nonce": "0x406",
        "chainId": "0x66eee"
      },
      "additionalContracts": [],
      "isFixedGasLimit": false
    },
    {
      "hash": "0xca80734d9e2fd67c8b023a9c167c700b04dfd02209f46821bf329ffa144beef5",
      "transactionType": "CALL",
      "contractName": null,
      "contractAddress": "0x7226289b8df9ffe5b98ad54d0225e8c83ecc7191",
      "function": "addFeeToken(string,string[],uint256[])",
      "arguments": [
        "97",
        "[0x92829288c6aa874c1a0f190da35a4023c22be637]",
        "[100]"
      ],
      "transaction": {
        "from": "0xe62ab4d111f968660c6b2188046f9b9ba53c4bae",
        "to": "0x7226289b8df9ffe5b98ad54d0225e8c83ecc7191",
        "gas": "0x2945a",
        "value": "0x0",
        "input": "0x437bf84f000000000000000000000000000000000000000000000000000000000000006000000000000000000000000000000000000000000000000000000000000000a000000000000000000000000000000000000000000000000000000000000001400000000000000000000000000000000000000000000000000000000000000002393700000000000000000000000000000000000000000000000000000000000000000000000000000000000000000000000000000000000000000000000000010000000000000000000000000000000000000000000000000000000000000020000000000000000000000000000000000000000000000000000000000000002a3078393238323932383863366161383734633161306631393064613335613430323363323262653633370000000000000000000000000000000000000000000000000000000000000000000000000000000000000000000000000000000000010000000000000000000000000000000000000000000000000000000000000064",
        "nonce": "0x407",
        "chainId": "0x66eee"
      },
      "additionalContracts": [],
      "isFixedGasLimit": false
    },
    {
      "hash": "0x43026979daf79c2a77b9ef1934196408c9e5c73b2f1a24444c5bc5018ec1220d",
      "transactionType": "CALL",
      "contractName": null,
      "contractAddress": "0x7226289b8df9ffe5b98ad54d0225e8c83ecc7191",
      "function": "addFeeToken(string,string[],uint256[])",
      "arguments": [
        "11155111",
        "[0x92829288c6aa874c1a0f190da35a4023c22be637]",
        "[100]"
      ],
      "transaction": {
        "from": "0xe62ab4d111f968660c6b2188046f9b9ba53c4bae",
        "to": "0x7226289b8df9ffe5b98ad54d0225e8c83ecc7191",
        "gas": "0x2a0e9",
        "value": "0x0",
        "input": "0x437bf84f000000000000000000000000000000000000000000000000000000000000006000000000000000000000000000000000000000000000000000000000000000a000000000000000000000000000000000000000000000000000000000000001400000000000000000000000000000000000000000000000000000000000000008313131353531313100000000000000000000000000000000000000000000000000000000000000000000000000000000000000000000000000000000000000010000000000000000000000000000000000000000000000000000000000000020000000000000000000000000000000000000000000000000000000000000002a3078393238323932383863366161383734633161306631393064613335613430323363323262653633370000000000000000000000000000000000000000000000000000000000000000000000000000000000000000000000000000000000010000000000000000000000000000000000000000000000000000000000000064",
        "nonce": "0x408",
        "chainId": "0x66eee"
      },
      "additionalContracts": [],
      "isFixedGasLimit": false
    },
    {
      "hash": "0x98f4d6d2f241c36f6302805bc3b48c461d2f1c19761008762eb52a26cc3276c8",
      "transactionType": "CALL",
      "contractName": null,
      "contractAddress": "0xb81d017b3606a7e6eba0049de9f0ea0e4a1d90dd",
      "function": "addChainContract(string[],string[])",
      "arguments": [
        "[80002, 84532, 97, 11155111]",
        "[0xf97c2b87a7193b7800f50fc402e8f999bf1bf3e4, 0x7635a9b23275892ac46479b7ead9831a80171ace, 0xb64a86e7f8d84b2cd88535bdaac6d19c87754024, 0x699de1ff83fad8c40aea628975e1b3ee71dcfb56]"
      ],
      "transaction": {
        "from": "0xe62ab4d111f968660c6b2188046f9b9ba53c4bae",
        "to": "0xb81d017b3606a7e6eba0049de9f0ea0e4a1d90dd",
        "gas": "0xa6fb2",
        "value": "0x0",
        "input": "0x013fd3bd000000000000000000000000000000000000000000000000000000000000004000000000000000000000000000000000000000000000000000000000000001e00000000000000000000000000000000000000000000000000000000000000004000000000000000000000000000000000000000000000000000000000000008000000000000000000000000000000000000000000000000000000000000000c000000000000000000000000000000000000000000000000000000000000001000000000000000000000000000000000000000000000000000000000000000140000000000000000000000000000000000000000000000000000000000000000538303030320000000000000000000000000000000000000000000000000000000000000000000000000000000000000000000000000000000000000000000005383435333200000000000000000000000000000000000000000000000000000000000000000000000000000000000000000000000000000000000000000000023937000000000000000000000000000000000000000000000000000000000000000000000000000000000000000000000000000000000000000000000000000831313135353131310000000000000000000000000000000000000000000000000000000000000000000000000000000000000000000000000000000000000004000000000000000000000000000000000000000000000000000000000000008000000000000000000000000000000000000000000000000000000000000000e0000000000000000000000000000000000000000000000000000000000000014000000000000000000000000000000000000000000000000000000000000001a0000000000000000000000000000000000000000000000000000000000000002a30786639376332623837613731393362373830306635306663343032653866393939626631626633653400000000000000000000000000000000000000000000000000000000000000000000000000000000000000000000000000000000002a30783736333561396232333237353839326163343634373962376561643938333161383031373161636500000000000000000000000000000000000000000000000000000000000000000000000000000000000000000000000000000000002a30786236346138366537663864383462326364383835333562646161633664313963383737353430323400000000000000000000000000000000000000000000000000000000000000000000000000000000000000000000000000000000002a30783639396465316666383366616438633430616561363238393735653162336565373164636662353600000000000000000000000000000000000000000000",
        "nonce": "0x409",
        "chainId": "0x66eee"
      },
      "additionalContracts": [],
      "isFixedGasLimit": false
    },
    {
      "hash": "0x802d9c3eb0ea5a9308888f3d55965402729b01f232f84afad586fe6e020cda87",
      "transactionType": "CALL",
      "contractName": null,
      "contractAddress": "0xb81d017b3606a7e6eba0049de9f0ea0e4a1d90dd",
      "function": "attachRWAX(uint256,uint256,string[],string[])",
      "arguments": [
        "1",
        "1",
        "[421614, 80002, 84532, 97, 11155111]",
        "[0xd06cda2c8f2258ceec5efb8c6371f54d7853480e, 0xb008b6cc593fc290ed03d5011e90f4e9d19f9a87, 0x6187ee058bb5b7db140cfd470a27ebe1f16d92b1, 0xcff54249dae66746377e15c07d95c42188d5d3a8, 0xb37c81d6f90a16bbd778886af49abebfd1ad02c7]"
      ],
      "transaction": {
        "from": "0xe62ab4d111f968660c6b2188046f9b9ba53c4bae",
        "to": "0xb81d017b3606a7e6eba0049de9f0ea0e4a1d90dd",
        "gas": "0xd2337",
        "value": "0x0",
        "input": "0x33a5f5b40000000000000000000000000000000000000000000000000000000000000001000000000000000000000000000000000000000000000000000000000000000100000000000000000000000000000000000000000000000000000000000000800000000000000000000000000000000000000000000000000000000000000280000000000000000000000000000000000000000000000000000000000000000500000000000000000000000000000000000000000000000000000000000000a000000000000000000000000000000000000000000000000000000000000000e00000000000000000000000000000000000000000000000000000000000000120000000000000000000000000000000000000000000000000000000000000016000000000000000000000000000000000000000000000000000000000000001a00000000000000000000000000000000000000000000000000000000000000006343231363134000000000000000000000000000000000000000000000000000000000000000000000000000000000000000000000000000000000000000000053830303032000000000000000000000000000000000000000000000000000000000000000000000000000000000000000000000000000000000000000000000538343533320000000000000000000000000000000000000000000000000000000000000000000000000000000000000000000000000000000000000000000002393700000000000000000000000000000000000000000000000000000000000000000000000000000000000000000000000000000000000000000000000000083131313535313131000000000000000000000000000000000000000000000000000000000000000000000000000000000000000000000000000000000000000500000000000000000000000000000000000000000000000000000000000000a00000000000000000000000000000000000000000000000000000000000000100000000000000000000000000000000000000000000000000000000000000016000000000000000000000000000000000000000000000000000000000000001c00000000000000000000000000000000000000000000000000000000000000220000000000000000000000000000000000000000000000000000000000000002a30786430366364613263386632323538636565633565666238633633373166353464373835333438306500000000000000000000000000000000000000000000000000000000000000000000000000000000000000000000000000000000002a30786230303862366363353933666332393065643033643530313165393066346539643139663961383700000000000000000000000000000000000000000000000000000000000000000000000000000000000000000000000000000000002a30783631383765653035386262356237646231343063666434373061323765626531663136643932623100000000000000000000000000000000000000000000000000000000000000000000000000000000000000000000000000000000002a30786366663534323439646165363637343633373765313563303764393563343231383864356433613800000000000000000000000000000000000000000000000000000000000000000000000000000000000000000000000000000000002a30786233376338316436663930613136626264373738383836616634396162656266643161643032633700000000000000000000000000000000000000000000",
        "nonce": "0x40a",
        "chainId": "0x66eee"
      },
      "additionalContracts": [],
      "isFixedGasLimit": false
    },
    {
      "hash": "0x33c21499d37d77c836a9383bdc210f6cfe1e2c0a513bf571ec50934a91a9d50b",
      "transactionType": "CALL",
      "contractName": null,
      "contractAddress": "0xb81d017b3606a7e6eba0049de9f0ea0e4a1d90dd",
      "function": "attachStorageManager(uint256,uint256,string[],string[])",
      "arguments": [
        "1",
        "1",
        "[421614, 80002, 84532, 97, 11155111]",
        "[0x298c11661856dc1194c578ecd2c230eb4fa433a0, 0xd4bd9bba2fb97c36bbd619303cab636f476f8904, 0x4f6af153614d50051bad6f3e76110f959817738f, 0x0156a74fd9432446030f47f7c55f4d1fbfdf5e9a, 0x563c5c85cc7ba923c50b66479588e5b3b2c93470]"
      ],
      "transaction": {
        "from": "0xe62ab4d111f968660c6b2188046f9b9ba53c4bae",
        "to": "0xb81d017b3606a7e6eba0049de9f0ea0e4a1d90dd",
        "gas": "0xd1c1e",
        "value": "0x0",
        "input": "0x2f68b4890000000000000000000000000000000000000000000000000000000000000001000000000000000000000000000000000000000000000000000000000000000100000000000000000000000000000000000000000000000000000000000000800000000000000000000000000000000000000000000000000000000000000280000000000000000000000000000000000000000000000000000000000000000500000000000000000000000000000000000000000000000000000000000000a000000000000000000000000000000000000000000000000000000000000000e00000000000000000000000000000000000000000000000000000000000000120000000000000000000000000000000000000000000000000000000000000016000000000000000000000000000000000000000000000000000000000000001a00000000000000000000000000000000000000000000000000000000000000006343231363134000000000000000000000000000000000000000000000000000000000000000000000000000000000000000000000000000000000000000000053830303032000000000000000000000000000000000000000000000000000000000000000000000000000000000000000000000000000000000000000000000538343533320000000000000000000000000000000000000000000000000000000000000000000000000000000000000000000000000000000000000000000002393700000000000000000000000000000000000000000000000000000000000000000000000000000000000000000000000000000000000000000000000000083131313535313131000000000000000000000000000000000000000000000000000000000000000000000000000000000000000000000000000000000000000500000000000000000000000000000000000000000000000000000000000000a00000000000000000000000000000000000000000000000000000000000000100000000000000000000000000000000000000000000000000000000000000016000000000000000000000000000000000000000000000000000000000000001c00000000000000000000000000000000000000000000000000000000000000220000000000000000000000000000000000000000000000000000000000000002a30783239386331313636313835366463313139346335373865636432633233306562346661343333613000000000000000000000000000000000000000000000000000000000000000000000000000000000000000000000000000000000002a30786434626439626261326662393763333662626436313933303363616236333666343736663839303400000000000000000000000000000000000000000000000000000000000000000000000000000000000000000000000000000000002a30783466366166313533363134643530303531626164366633653736313130663935393831373733386600000000000000000000000000000000000000000000000000000000000000000000000000000000000000000000000000000000002a30783031353661373466643934333234343630333066343766376335356634643166626664663565396100000000000000000000000000000000000000000000000000000000000000000000000000000000000000000000000000000000002a30783536336335633835636337626139323363353062363634373935383865356233623263393334373000000000000000000000000000000000000000000000",
        "nonce": "0x40b",
        "chainId": "0x66eee"
      },
      "additionalContracts": [],
      "isFixedGasLimit": false
    }
  ],
  "receipts": [
    {
      "status": "0x1",
      "cumulativeGasUsed": "0x3781a",
      "logs": [],
      "logsBloom": "0x00000000000000000000000000000000000000000000000000000000000000000000000000000000000000000000000000000000000000000000000000000000000000000000000000000000000000000000000000000000000000000000000000000000000000000000000000000000000000000000000000000000000000000000000000000000000000000000000000000000000000000000000000000000000000000000000000000000000000000000000000000000000000000000000000000000000000000000000000000000000000000000000000000000000000000000000000000000000000000000000000000000000000000000000000000000",
      "type": "0x2",
      "transactionHash": "0x44d6b6e778ac70a6627857514f25731e545ddc14028fb70dbb0a9d053a3012cd",
      "transactionIndex": "0x3",
      "blockHash": "0xa86842b2cef5de7a73774c93f3b0f0f9925593d41203341fd7b4ac25cb9ecf98",
      "blockNumber": "0x5e3a991",
      "gasUsed": "0x6d30",
      "effectiveGasPrice": "0x5f5e100",
      "from": "0xe62ab4d111f968660c6b2188046f9b9ba53c4bae",
      "to": "0x7226289b8df9ffe5b98ad54d0225e8c83ecc7191",
      "contractAddress": null,
      "gasUsedForL1": "0xe7d",
      "l1BlockNumber": "0x6c8787"
    },
    {
      "status": "0x1",
      "cumulativeGasUsed": "0x33682",
      "logs": [
        {
          "address": "0x7226289b8df9ffe5b98ad54d0225e8c83ecc7191",
          "topics": [
            "0x1394cfab38f3fc78ed77ea6f9318782a446d96e7dc8e9a6b0149f6be25c08bcf",
            "0x00000000000000000000000092829288c6aa874c1a0f190da35a4023c22be637"
          ],
          "data": "0x",
          "blockHash": "0xf0e30e41ea56499db54434212a2d725045dd21cced1e1d658fc84c5cec5f795f",
          "blockNumber": "0x5e3a995",
          "transactionHash": "0xd4fd7720d9ebd64eec6c845a8da44eaa83fb284b49d581c275cdefbbe2dc2901",
          "transactionIndex": "0x3",
          "logIndex": "0x1",
          "removed": false
        }
      ],
      "logsBloom": "0x00000000000000000000000020000000000000000000000000000000000000000000000000000000000000000000000000000000000000000000000000000000000000000000000000000000000000000000001000000000000000000000000000000000000020000000000000000000000000000000000000000000000000000000000100000000000000000000000000000000000000000000000000000000000000400000000000000000000000000000000100000000000000000000000000000000000000000000000000000008000000000004000000000000000000000000000000000000000000000000000000000000000000000000000000000040",
      "type": "0x2",
      "transactionHash": "0xd4fd7720d9ebd64eec6c845a8da44eaa83fb284b49d581c275cdefbbe2dc2901",
      "transactionIndex": "0x3",
      "blockHash": "0xf0e30e41ea56499db54434212a2d725045dd21cced1e1d658fc84c5cec5f795f",
      "blockNumber": "0x5e3a995",
      "gasUsed": "0x1da20",
      "effectiveGasPrice": "0x5f5e100",
      "from": "0xe62ab4d111f968660c6b2188046f9b9ba53c4bae",
      "to": "0x7226289b8df9ffe5b98ad54d0225e8c83ecc7191",
      "contractAddress": null,
      "gasUsedForL1": "0x1e74",
      "l1BlockNumber": "0x6c8787"
    },
    {
      "status": "0x1",
      "cumulativeGasUsed": "0x652d8",
      "logs": [],
      "logsBloom": "0x00000000000000000000000000000000000000000000000000000000000000000000000000000000000000000000000000000000000000000000000000000000000000000000000000000000000000000000000000000000000000000000000000000000000000000000000000000000000000000000000000000000000000000000000000000000000000000000000000000000000000000000000000000000000000000000000000000000000000000000000000000000000000000000000000000000000000000000000000000000000000000000000000000000000000000000000000000000000000000000000000000000000000000000000000000000",
      "type": "0x2",
      "transactionHash": "0x2da194c5d2af4fa5b4f206a2d95f4ff7283b9f044c97d15f057e5ef74c5ebdb6",
      "transactionIndex": "0x3",
      "blockHash": "0xa6ee62e5348c8bab297174a23f8210541de946ec01bffc252d7c258b32ee9098",
      "blockNumber": "0x5e3a999",
      "gasUsed": "0xd291",
      "effectiveGasPrice": "0x5f5e100",
      "from": "0xe62ab4d111f968660c6b2188046f9b9ba53c4bae",
      "to": "0x7226289b8df9ffe5b98ad54d0225e8c83ecc7191",
      "contractAddress": null,
      "gasUsedForL1": "0x1698",
      "l1BlockNumber": "0x6c8787"
    },
    {
      "status": "0x1",
      "cumulativeGasUsed": "0xd2ba",
      "logs": [],
      "logsBloom": "0x00000000000000000000000000000000000000000000000000000000000000000000000000000000000000000000000000000000000000000000000000000000000000000000000000000000000000000000000000000000000000000000000000000000000000000000000000000000000000000000000000000000000000000000000000000000000000000000000000000000000000000000000000000000000000000000000000000000000000000000000000000000000000000000000000000000000000000000000000000000000000000000000000000000000000000000000000000000000000000000000000000000000000000000000000000000",
      "type": "0x2",
      "transactionHash": "0x63d80b888bcd8992424f86f7ae9637dd944936d03a6eff9eaaefb67bfac41027",
      "transactionIndex": "0x1",
      "blockHash": "0x31f72c2dbf105616075f57d9121e5e2ff913c19176382392025aebc7cecb0e9d",
      "blockNumber": "0x5e3a9b7",
      "gasUsed": "0xd2ba",
      "effectiveGasPrice": "0x5f5e100",
      "from": "0xe62ab4d111f968660c6b2188046f9b9ba53c4bae",
      "to": "0x7226289b8df9ffe5b98ad54d0225e8c83ecc7191",
      "contractAddress": null,
      "gasUsedForL1": "0x1698",
      "l1BlockNumber": "0x6c8788"
    },
    {
      "status": "0x1",
      "cumulativeGasUsed": "0x169e2",
      "logs": [],
      "logsBloom": "0x00000000000000000000000000000000000000000000000000000000000000000000000000000000000000000000000000000000000000000000000000000000000000000000000000000000000000000000000000000000000000000000000000000000000000000000000000000000000000000000000000000000000000000000000000000000000000000000000000000000000000000000000000000000000000000000000000000000000000000000000000000000000000000000000000000000000000000000000000000000000000000000000000000000000000000000000000000000000000000000000000000000000000000000000000000000",
      "type": "0x2",
      "transactionHash": "0x8937d731e1178995465deb37bc3cb6c7d3e204535322aca6b3b677522e686f9a",
      "transactionIndex": "0x2",
      "blockHash": "0xcbd80e7237a85ae12d1e1609c863edb17447e049c1517887ad771730771c7a80",
      "blockNumber": "0x5e3a9d8",
      "gasUsed": "0xd2d1",
      "effectiveGasPrice": "0x5f5e100",
      "from": "0xe62ab4d111f968660c6b2188046f9b9ba53c4bae",
      "to": "0x7226289b8df9ffe5b98ad54d0225e8c83ecc7191",
      "contractAddress": null,
      "gasUsedForL1": "0x1698",
      "l1BlockNumber": "0x6c8789"
    },
    {
      "status": "0x1",
      "cumulativeGasUsed": "0xd2e8",
      "logs": [],
      "logsBloom": "0x00000000000000000000000000000000000000000000000000000000000000000000000000000000000000000000000000000000000000000000000000000000000000000000000000000000000000000000000000000000000000000000000000000000000000000000000000000000000000000000000000000000000000000000000000000000000000000000000000000000000000000000000000000000000000000000000000000000000000000000000000000000000000000000000000000000000000000000000000000000000000000000000000000000000000000000000000000000000000000000000000000000000000000000000000000000",
      "type": "0x2",
      "transactionHash": "0x85af4bc0aa67dcddbbd8571b22ff4ab3ad412aa741219f7db84886f5e0adbadd",
      "transactionIndex": "0x1",
      "blockHash": "0x7b3d4eda9fc1f70ac32d6d2e1c41a2281ef0055c71ba1a2bd95fc08334a01afd",
      "blockNumber": "0x5e3a9dc",
      "gasUsed": "0xd2e8",
      "effectiveGasPrice": "0x5f5e100",
      "from": "0xe62ab4d111f968660c6b2188046f9b9ba53c4bae",
      "to": "0x7226289b8df9ffe5b98ad54d0225e8c83ecc7191",
      "contractAddress": null,
      "gasUsedForL1": "0x1698",
      "l1BlockNumber": "0x6c8789"
    },
    {
      "status": "0x1",
      "cumulativeGasUsed": "0x59fcf",
      "logs": [],
      "logsBloom": "0x00000000000000000000000000000000000000000000000000000000000000000000000000000000000000000000000000000000000000000000000000000000000000000000000000000000000000000000000000000000000000000000000000000000000000000000000000000000000000000000000000000000000000000000000000000000000000000000000000000000000000000000000000000000000000000000000000000000000000000000000000000000000000000000000000000000000000000000000000000000000000000000000000000000000000000000000000000000000000000000000000000000000000000000000000000000",
      "type": "0x2",
      "transactionHash": "0x3116a248a02f9df3d7e17776f5aaa277992597aa687685ecfea490cdac08f6b0",
      "transactionIndex": "0x2",
      "blockHash": "0xb3fa189adb20ad51e198b8558dbb83910f3445297fbfb8c3a8b9b721bc8342e4",
      "blockNumber": "0x5e3a9e0",
      "gasUsed": "0xd2ff",
      "effectiveGasPrice": "0x5f5e100",
      "from": "0xe62ab4d111f968660c6b2188046f9b9ba53c4bae",
      "to": "0x7226289b8df9ffe5b98ad54d0225e8c83ecc7191",
      "contractAddress": null,
      "gasUsedForL1": "0x1698",
      "l1BlockNumber": "0x6c8789"
    },
    {
      "status": "0x1",
      "cumulativeGasUsed": "0x30329",
      "logs": [],
      "logsBloom": "0x00000000000000000000000000000000000000000000000000000000000000000000000000000000000000000000000000000000000000000000000000000000000000000000000000000000000000000000000000000000000000000000000000000000000000000000000000000000000000000000000000000000000000000000000000000000000000000000000000000000000000000000000000000000000000000000000000000000000000000000000000000000000000000000000000000000000000000000000000000000000000000000000000000000000000000000000000000000000000000000000000000000000000000000000000000000",
      "type": "0x2",
      "transactionHash": "0xf0fa4149ab6f527d56ea3b1e6b762541c3c6a171cb41f18c45bf0c3b17b6999d",
      "transactionIndex": "0x2",
      "blockHash": "0x6adda080266a83923fa347f59831b7a8ce2380d9a08dbe5ca05d001933c23d3b",
      "blockNumber": "0x5e3a9e3",
      "gasUsed": "0xd316",
      "effectiveGasPrice": "0x5f5e100",
      "from": "0xe62ab4d111f968660c6b2188046f9b9ba53c4bae",
      "to": "0x7226289b8df9ffe5b98ad54d0225e8c83ecc7191",
      "contractAddress": null,
      "gasUsedForL1": "0x1698",
      "l1BlockNumber": "0x6c8789"
    },
    {
      "status": "0x1",
      "cumulativeGasUsed": "0x341ee",
      "logs": [],
      "logsBloom": "0x00000000000000000000000000000000000000000000000000000000000000000000000000000000000000000000000000000000000000000000000000000000000000000000000000000000000000000000000000000000000000000000000000000000000000000000000000000000000000000000000000000000000000000000000000000000000000000000000000000000000000000000000000000000000000000000000000000000000000000000000000000000000000000000000000000000000000000000000000000000000000000000000000000000000000000000000000000000000000000000000000000000000000000000000000000000",
      "type": "0x2",
      "transactionHash": "0x667d9123deba06f6c12287cbedb2f461c3a8ff058543ad75817c751302994f2d",
      "transactionIndex": "0x2",
      "blockHash": "0xc8a18b0afe4f8e3267215cce6140a1db4187d5f1205e49a66ab52b7a743345b7",
      "blockNumber": "0x5e3aa03",
      "gasUsed": "0xd32d",
      "effectiveGasPrice": "0x5f5e100",
      "from": "0xe62ab4d111f968660c6b2188046f9b9ba53c4bae",
      "to": "0x7226289b8df9ffe5b98ad54d0225e8c83ecc7191",
      "contractAddress": null,
      "gasUsedForL1": "0x1698",
      "l1BlockNumber": "0x6c8789"
    },
    {
      "status": "0x1",
      "cumulativeGasUsed": "0xd344",
      "logs": [],
      "logsBloom": "0x00000000000000000000000000000000000000000000000000000000000000000000000000000000000000000000000000000000000000000000000000000000000000000000000000000000000000000000000000000000000000000000000000000000000000000000000000000000000000000000000000000000000000000000000000000000000000000000000000000000000000000000000000000000000000000000000000000000000000000000000000000000000000000000000000000000000000000000000000000000000000000000000000000000000000000000000000000000000000000000000000000000000000000000000000000000",
      "type": "0x2",
      "transactionHash": "0x939539bcbb4ef87197fe59b1f15cc8b3b0e704ae840ad2859d30b24087d42aab",
      "transactionIndex": "0x1",
      "blockHash": "0x6620e965ab60d5cd71d6426bcdccd6615c3f19aea9641b126790e0380ceb3789",
      "blockNumber": "0x5e3aa07",
      "gasUsed": "0xd344",
      "effectiveGasPrice": "0x5f5e100",
      "from": "0xe62ab4d111f968660c6b2188046f9b9ba53c4bae",
      "to": "0x7226289b8df9ffe5b98ad54d0225e8c83ecc7191",
      "contractAddress": null,
      "gasUsedForL1": "0x1698",
      "l1BlockNumber": "0x6c8789"
    },
    {
      "status": "0x1",
      "cumulativeGasUsed": "0xd35b",
      "logs": [],
      "logsBloom": "0x00000000000000000000000000000000000000000000000000000000000000000000000000000000000000000000000000000000000000000000000000000000000000000000000000000000000000000000000000000000000000000000000000000000000000000000000000000000000000000000000000000000000000000000000000000000000000000000000000000000000000000000000000000000000000000000000000000000000000000000000000000000000000000000000000000000000000000000000000000000000000000000000000000000000000000000000000000000000000000000000000000000000000000000000000000000",
      "type": "0x2",
      "transactionHash": "0x0adfc59619729172f8567df7d1a51e286092f1749d29b4faaee8673c21dbfc0f",
      "transactionIndex": "0x1",
      "blockHash": "0x5cb3de09a80b53fcf9be398ca953b743d9e9c1f3f49d7843d4568148413faf74",
      "blockNumber": "0x5e3aa0b",
      "gasUsed": "0xd35b",
      "effectiveGasPrice": "0x5f5e100",
      "from": "0xe62ab4d111f968660c6b2188046f9b9ba53c4bae",
      "to": "0x7226289b8df9ffe5b98ad54d0225e8c83ecc7191",
      "contractAddress": null,
      "gasUsedForL1": "0x1698",
      "l1BlockNumber": "0x6c8789"
    },
    {
      "status": "0x1",
      "cumulativeGasUsed": "0xd372",
      "logs": [],
      "logsBloom": "0x00000000000000000000000000000000000000000000000000000000000000000000000000000000000000000000000000000000000000000000000000000000000000000000000000000000000000000000000000000000000000000000000000000000000000000000000000000000000000000000000000000000000000000000000000000000000000000000000000000000000000000000000000000000000000000000000000000000000000000000000000000000000000000000000000000000000000000000000000000000000000000000000000000000000000000000000000000000000000000000000000000000000000000000000000000000",
      "type": "0x2",
      "transactionHash": "0xab2b4280b4340313acdaa9f98719f587a7c1dba7511244a5c15de1628f37154c",
      "transactionIndex": "0x1",
      "blockHash": "0xf1c66810c3229bbbd07ea0d99f886529bc24de71804d8a54b8f38569a7317687",
      "blockNumber": "0x5e3aa0f",
      "gasUsed": "0xd372",
      "effectiveGasPrice": "0x5f5e100",
      "from": "0xe62ab4d111f968660c6b2188046f9b9ba53c4bae",
      "to": "0x7226289b8df9ffe5b98ad54d0225e8c83ecc7191",
      "contractAddress": null,
      "gasUsedForL1": "0x1698",
      "l1BlockNumber": "0x6c8789"
    },
    {
      "status": "0x1",
      "cumulativeGasUsed": "0x683c4",
      "logs": [],
      "logsBloom": "0x00000000000000000000000000000000000000000000000000000000000000000000000000000000000000000000000000000000000000000000000000000000000000000000000000000000000000000000000000000000000000000000000000000000000000000000000000000000000000000000000000000000000000000000000000000000000000000000000000000000000000000000000000000000000000000000000000000000000000000000000000000000000000000000000000000000000000000000000000000000000000000000000000000000000000000000000000000000000000000000000000000000000000000000000000000000",
      "type": "0x2",
      "transactionHash": "0x3ace1e60a8c33ae43bd796780c4368242e6728cf2d5068acf8922607645753f0",
      "transactionIndex": "0x9",
      "blockHash": "0xdbc013083bc7b50981d2e5a867227e945446a4e4d3f2cf9a9579288c3b4e7a3d",
      "blockNumber": "0x5e3aa13",
      "gasUsed": "0xd389",
      "effectiveGasPrice": "0x5f5e100",
      "from": "0xe62ab4d111f968660c6b2188046f9b9ba53c4bae",
      "to": "0x7226289b8df9ffe5b98ad54d0225e8c83ecc7191",
      "contractAddress": null,
      "gasUsedForL1": "0x1698",
      "l1BlockNumber": "0x6c878a"
    },
    {
      "status": "0x1",
      "cumulativeGasUsed": "0xd3a0",
      "logs": [],
      "logsBloom": "0x00000000000000000000000000000000000000000000000000000000000000000000000000000000000000000000000000000000000000000000000000000000000000000000000000000000000000000000000000000000000000000000000000000000000000000000000000000000000000000000000000000000000000000000000000000000000000000000000000000000000000000000000000000000000000000000000000000000000000000000000000000000000000000000000000000000000000000000000000000000000000000000000000000000000000000000000000000000000000000000000000000000000000000000000000000000",
      "type": "0x2",
      "transactionHash": "0xeb488468a4805fc2f8b5710d2023da048b3dee1ca8b9304ec59d9d843146b6fc",
      "transactionIndex": "0x1",
      "blockHash": "0xa127d7bcd5967a17aefddde8925c066cbe145256e2de2edc7571332ba03b945f",
      "blockNumber": "0x5e3aa17",
      "gasUsed": "0xd3a0",
      "effectiveGasPrice": "0x5f5e100",
      "from": "0xe62ab4d111f968660c6b2188046f9b9ba53c4bae",
      "to": "0x7226289b8df9ffe5b98ad54d0225e8c83ecc7191",
      "contractAddress": null,
      "gasUsedForL1": "0x1698",
      "l1BlockNumber": "0x6c878a"
    },
    {
      "status": "0x1",
      "cumulativeGasUsed": "0xd3b7",
      "logs": [],
      "logsBloom": "0x00000000000000000000000000000000000000000000000000000000000000000000000000000000000000000000000000000000000000000000000000000000000000000000000000000000000000000000000000000000000000000000000000000000000000000000000000000000000000000000000000000000000000000000000000000000000000000000000000000000000000000000000000000000000000000000000000000000000000000000000000000000000000000000000000000000000000000000000000000000000000000000000000000000000000000000000000000000000000000000000000000000000000000000000000000000",
      "type": "0x2",
      "transactionHash": "0xb3ccfe8463018225f9fa29a863f9065a724c2a4b38e18ddb68efa516718ceef9",
      "transactionIndex": "0x1",
      "blockHash": "0xfa1f5e01c3474e446f8eb35c070eb83419a08d93c68e536ab462c35bb32a5dc3",
      "blockNumber": "0x5e3aa1b",
      "gasUsed": "0xd3b7",
      "effectiveGasPrice": "0x5f5e100",
      "from": "0xe62ab4d111f968660c6b2188046f9b9ba53c4bae",
      "to": "0x7226289b8df9ffe5b98ad54d0225e8c83ecc7191",
      "contractAddress": null,
      "gasUsedForL1": "0x1698",
      "l1BlockNumber": "0x6c878a"
    },
    {
      "status": "0x1",
      "cumulativeGasUsed": "0xd3ce",
      "logs": [],
      "logsBloom": "0x00000000000000000000000000000000000000000000000000000000000000000000000000000000000000000000000000000000000000000000000000000000000000000000000000000000000000000000000000000000000000000000000000000000000000000000000000000000000000000000000000000000000000000000000000000000000000000000000000000000000000000000000000000000000000000000000000000000000000000000000000000000000000000000000000000000000000000000000000000000000000000000000000000000000000000000000000000000000000000000000000000000000000000000000000000000",
      "type": "0x2",
      "transactionHash": "0x9270ef952dbad1791fa693fb441eca29f081aefd9c9c7a842ab2f181baf24962",
      "transactionIndex": "0x1",
      "blockHash": "0x028cf8af7102cf418d274e206fc7d07cc9de04fa30ba166bb11d016a687c9bde",
      "blockNumber": "0x5e3aa1f",
      "gasUsed": "0xd3ce",
      "effectiveGasPrice": "0x5f5e100",
      "from": "0xe62ab4d111f968660c6b2188046f9b9ba53c4bae",
      "to": "0x7226289b8df9ffe5b98ad54d0225e8c83ecc7191",
      "contractAddress": null,
      "gasUsedForL1": "0x1698",
      "l1BlockNumber": "0x6c878a"
    },
    {
      "status": "0x1",
      "cumulativeGasUsed": "0xd3e5",
      "logs": [],
      "logsBloom": "0x00000000000000000000000000000000000000000000000000000000000000000000000000000000000000000000000000000000000000000000000000000000000000000000000000000000000000000000000000000000000000000000000000000000000000000000000000000000000000000000000000000000000000000000000000000000000000000000000000000000000000000000000000000000000000000000000000000000000000000000000000000000000000000000000000000000000000000000000000000000000000000000000000000000000000000000000000000000000000000000000000000000000000000000000000000000",
      "type": "0x2",
      "transactionHash": "0xdcb4f697fc36f893c3a6e426e7babf9e88c049e390881081e6cfaae201ee3199",
      "transactionIndex": "0x1",
      "blockHash": "0xef8d94d775cf2a3589f665004af1fc22141343e549e4ea719cb788b51803893c",
      "blockNumber": "0x5e3aa23",
      "gasUsed": "0xd3e5",
      "effectiveGasPrice": "0x5f5e100",
      "from": "0xe62ab4d111f968660c6b2188046f9b9ba53c4bae",
      "to": "0x7226289b8df9ffe5b98ad54d0225e8c83ecc7191",
      "contractAddress": null,
      "gasUsedForL1": "0x1698",
      "l1BlockNumber": "0x6c878a"
    },
    {
      "status": "0x1",
      "cumulativeGasUsed": "0xd3fc",
      "logs": [],
      "logsBloom": "0x00000000000000000000000000000000000000000000000000000000000000000000000000000000000000000000000000000000000000000000000000000000000000000000000000000000000000000000000000000000000000000000000000000000000000000000000000000000000000000000000000000000000000000000000000000000000000000000000000000000000000000000000000000000000000000000000000000000000000000000000000000000000000000000000000000000000000000000000000000000000000000000000000000000000000000000000000000000000000000000000000000000000000000000000000000000",
      "type": "0x2",
      "transactionHash": "0xb049bdce7c5af1c814cd706496c392015f1f74167855bbd93e123d43e4a2239d",
      "transactionIndex": "0x1",
      "blockHash": "0xfb44bcdbf377009fcef01611b6df3c40956994b1f1b775defbb695a6269f06d6",
      "blockNumber": "0x5e3aa27",
      "gasUsed": "0xd3fc",
      "effectiveGasPrice": "0x5f5e100",
      "from": "0xe62ab4d111f968660c6b2188046f9b9ba53c4bae",
      "to": "0x7226289b8df9ffe5b98ad54d0225e8c83ecc7191",
      "contractAddress": null,
      "gasUsedForL1": "0x1698",
      "l1BlockNumber": "0x6c878a"
    },
    {
      "status": "0x1",
      "cumulativeGasUsed": "0xd40e",
      "logs": [],
      "logsBloom": "0x00000000000000000000000000000000000000000000000000000000000000000000000000000000000000000000000000000000000000000000000000000000000000000000000000000000000000000000000000000000000000000000000000000000000000000000000000000000000000000000000000000000000000000000000000000000000000000000000000000000000000000000000000000000000000000000000000000000000000000000000000000000000000000000000000000000000000000000000000000000000000000000000000000000000000000000000000000000000000000000000000000000000000000000000000000000",
      "type": "0x2",
      "transactionHash": "0x3c05e4734de44d3873821890ea38b464aba6a967a14bbbb421af9e0658ff1b73",
      "transactionIndex": "0x1",
      "blockHash": "0xada7060385bd9fde3fa2ea4412e126e729084766e376d9273464d819c8ee90d7",
      "blockNumber": "0x5e3aa2b",
      "gasUsed": "0xd40e",
      "effectiveGasPrice": "0x5f5e100",
      "from": "0xe62ab4d111f968660c6b2188046f9b9ba53c4bae",
      "to": "0x7226289b8df9ffe5b98ad54d0225e8c83ecc7191",
      "contractAddress": null,
      "gasUsedForL1": "0x1698",
      "l1BlockNumber": "0x6c878a"
    },
    {
      "status": "0x1",
      "cumulativeGasUsed": "0x2437b",
      "logs": [],
      "logsBloom": "0x00000000000000000000000000000000000000000000000000000000000000000000000000000000000000000000000000000000000000000000000000000000000000000000000000000000000000000000000000000000000000000000000000000000000000000000000000000000000000000000000000000000000000000000000000000000000000000000000000000000000000000000000000000000000000000000000000000000000000000000000000000000000000000000000000000000000000000000000000000000000000000000000000000000000000000000000000000000000000000000000000000000000000000000000000000000",
      "type": "0x2",
      "transactionHash": "0xc108ce74ad3a182ea2ea16d4f4510274c081ffb780a3da90d71fd3231ac29e06",
      "transactionIndex": "0x1",
      "blockHash": "0x378af5a001b71a52d1d2a7c1c999308d5f85ff845eeded58274d4cf1403c6213",
      "blockNumber": "0x5e3aa2f",
      "gasUsed": "0x2437b",
      "effectiveGasPrice": "0x5f5e100",
      "from": "0xe62ab4d111f968660c6b2188046f9b9ba53c4bae",
      "to": "0x7226289b8df9ffe5b98ad54d0225e8c83ecc7191",
      "contractAddress": null,
      "gasUsedForL1": "0x2459",
      "l1BlockNumber": "0x6c878a"
    },
    {
      "status": "0x1",
      "cumulativeGasUsed": "0x206fb",
      "logs": [],
      "logsBloom": "0x00000000000000000000000000000000000000000000000000000000000000000000000000000000000000000000000000000000000000000000000000000000000000000000000000000000000000000000000000000000000000000000000000000000000000000000000000000000000000000000000000000000000000000000000000000000000000000000000000000000000000000000000000000000000000000000000000000000000000000000000000000000000000000000000000000000000000000000000000000000000000000000000000000000000000000000000000000000000000000000000000000000000000000000000000000000",
      "type": "0x2",
      "transactionHash": "0xbe77f9a30043242756ed658a64a3bdd8f40a3ef1e37203d7e131cdcb06241cd1",
      "transactionIndex": "0x1",
      "blockHash": "0x5928d2259d7471b80cd0e5c9e348a500b30645a07e87f0611b20eb29c17495d0",
      "blockNumber": "0x5e3aa33",
      "gasUsed": "0x206fb",
      "effectiveGasPrice": "0x5f5e100",
      "from": "0xe62ab4d111f968660c6b2188046f9b9ba53c4bae",
      "to": "0x7226289b8df9ffe5b98ad54d0225e8c83ecc7191",
      "contractAddress": null,
      "gasUsedForL1": "0x2459",
      "l1BlockNumber": "0x6c878a"
    },
    {
      "status": "0x1",
      "cumulativeGasUsed": "0x20779",
      "logs": [],
      "logsBloom": "0x00000000000000000000000000000000000000000000000000000000000000000000000000000000000000000000000000000000000000000000000000000000000000000000000000000000000000000000000000000000000000000000000000000000000000000000000000000000000000000000000000000000000000000000000000000000000000000000000000000000000000000000000000000000000000000000000000000000000000000000000000000000000000000000000000000000000000000000000000000000000000000000000000000000000000000000000000000000000000000000000000000000000000000000000000000000",
      "type": "0x2",
      "transactionHash": "0xfcc3bb05da299134cb385e4b1f053ef6bc1fe08a602d1a3c40fa5a1202d68b71",
      "transactionIndex": "0x1",
      "blockHash": "0x17d3108192f7c76783e70ca7bd7a62d264b8242435c3c55d8b3ebb7247c1ec7e",
      "blockNumber": "0x5e3aa37",
      "gasUsed": "0x20779",
      "effectiveGasPrice": "0x5f5e100",
      "from": "0xe62ab4d111f968660c6b2188046f9b9ba53c4bae",
      "to": "0x7226289b8df9ffe5b98ad54d0225e8c83ecc7191",
      "contractAddress": null,
      "gasUsedForL1": "0x24d7",
      "l1BlockNumber": "0x6c878a"
    },
    {
      "status": "0x1",
      "cumulativeGasUsed": "0x2034b",
      "logs": [],
      "logsBloom": "0x00000000000000000000000000000000000000000000000000000000000000000000000000000000000000000000000000000000000000000000000000000000000000000000000000000000000000000000000000000000000000000000000000000000000000000000000000000000000000000000000000000000000000000000000000000000000000000000000000000000000000000000000000000000000000000000000000000000000000000000000000000000000000000000000000000000000000000000000000000000000000000000000000000000000000000000000000000000000000000000000000000000000000000000000000000000",
      "type": "0x2",
      "transactionHash": "0xca80734d9e2fd67c8b023a9c167c700b04dfd02209f46821bf329ffa144beef5",
      "transactionIndex": "0x1",
      "blockHash": "0x1ffe8c9f9968bb9559f4ebff4305cde7869f0d60755b9eaab21d31556285c237",
      "blockNumber": "0x5e3aa3b",
      "gasUsed": "0x2034b",
      "effectiveGasPrice": "0x5f5e100",
      "from": "0xe62ab4d111f968660c6b2188046f9b9ba53c4bae",
      "to": "0x7226289b8df9ffe5b98ad54d0225e8c83ecc7191",
      "contractAddress": null,
      "gasUsedForL1": "0x2535",
      "l1BlockNumber": "0x6c878a"
    },
    {
      "status": "0x1",
      "cumulativeGasUsed": "0x20b48",
      "logs": [],
      "logsBloom": "0x00000000000000000000000000000000000000000000000000000000000000000000000000000000000000000000000000000000000000000000000000000000000000000000000000000000000000000000000000000000000000000000000000000000000000000000000000000000000000000000000000000000000000000000000000000000000000000000000000000000000000000000000000000000000000000000000000000000000000000000000000000000000000000000000000000000000000000000000000000000000000000000000000000000000000000000000000000000000000000000000000000000000000000000000000000000",
      "type": "0x2",
      "transactionHash": "0x43026979daf79c2a77b9ef1934196408c9e5c73b2f1a24444c5bc5018ec1220d",
      "transactionIndex": "0x1",
      "blockHash": "0x73458820362c2faf77b5b4727453e8d40eda1741ece991233cb5c63e033bab10",
      "blockNumber": "0x5e3aa3e",
      "gasUsed": "0x20b48",
      "effectiveGasPrice": "0x5f5e100",
      "from": "0xe62ab4d111f968660c6b2188046f9b9ba53c4bae",
      "to": "0x7226289b8df9ffe5b98ad54d0225e8c83ecc7191",
      "contractAddress": null,
      "gasUsedForL1": "0x241a",
      "l1BlockNumber": "0x6c878a"
    },
    {
      "status": "0x1",
      "cumulativeGasUsed": "0x7e7c9",
      "logs": [],
      "logsBloom": "0x00000000000000000000000000000000000000000000000000000000000000000000000000000000000000000000000000000000000000000000000000000000000000000000000000000000000000000000000000000000000000000000000000000000000000000000000000000000000000000000000000000000000000000000000000000000000000000000000000000000000000000000000000000000000000000000000000000000000000000000000000000000000000000000000000000000000000000000000000000000000000000000000000000000000000000000000000000000000000000000000000000000000000000000000000000000",
      "type": "0x2",
      "transactionHash": "0x98f4d6d2f241c36f6302805bc3b48c461d2f1c19761008762eb52a26cc3276c8",
      "transactionIndex": "0x1",
      "blockHash": "0xa3683decad25e5bfff1b53f9890426be374f1e0fc77d3a6093dc960434d25326",
      "blockNumber": "0x5e3aa5f",
      "gasUsed": "0x7e7c9",
      "effectiveGasPrice": "0x5f5e100",
      "from": "0xe62ab4d111f968660c6b2188046f9b9ba53c4bae",
      "to": "0xb81d017b3606a7e6eba0049de9f0ea0e4a1d90dd",
      "contractAddress": null,
      "gasUsedForL1": "0x350c",
      "l1BlockNumber": "0x6c878b"
    },
    {
      "status": "0x1",
      "cumulativeGasUsed": "0x9f62c",
      "logs": [],
      "logsBloom": "0x00000000000000000000000000000000000000000000000000000000000000000000000000000000000000000000000000000000000000000000000000000000000000000000000000000000000000000000000000000000000000000000000000000000000000000000000000000000000000000000000000000000000000000000000000000000000000000000000000000000000000000000000000000000000000000000000000000000000000000000000000000000000000000000000000000000000000000000000000000000000000000000000000000000000000000000000000000000000000000000000000000000000000000000000000000000",
      "type": "0x2",
      "transactionHash": "0x802d9c3eb0ea5a9308888f3d55965402729b01f232f84afad586fe6e020cda87",
      "transactionIndex": "0x1",
      "blockHash": "0x352c7d2df8ba219dadd385f201e8250dcea4672fe65667cfe9882a2b744222ef",
      "blockNumber": "0x5e3aa63",
      "gasUsed": "0x9f62c",
      "effectiveGasPrice": "0x5f5e100",
      "from": "0xe62ab4d111f968660c6b2188046f9b9ba53c4bae",
      "to": "0xb81d017b3606a7e6eba0049de9f0ea0e4a1d90dd",
      "contractAddress": null,
      "gasUsedForL1": "0x38bb",
      "l1BlockNumber": "0x6c878b"
    },
    {
      "status": "0x1",
      "cumulativeGasUsed": "0x9f25a",
      "logs": [],
      "logsBloom": "0x00000000000000000000000000000000000000000000000000000000000000000000000000000000000000000000000000000000000000000000000000000000000000000000000000000000000000000000000000000000000000000000000000000000000000000000000000000000000000000000000000000000000000000000000000000000000000000000000000000000000000000000000000000000000000000000000000000000000000000000000000000000000000000000000000000000000000000000000000000000000000000000000000000000000000000000000000000000000000000000000000000000000000000000000000000000",
      "type": "0x2",
      "transactionHash": "0x33c21499d37d77c836a9383bdc210f6cfe1e2c0a513bf571ec50934a91a9d50b",
      "transactionIndex": "0x1",
      "blockHash": "0xddde4f6f1073269c62e73c4963965e7dc164828bcc5229c37a63ecf4e40bdb3f",
      "blockNumber": "0x5e3aa67",
      "gasUsed": "0x9f25a",
      "effectiveGasPrice": "0x5f5e100",
      "from": "0xe62ab4d111f968660c6b2188046f9b9ba53c4bae",
      "to": "0xb81d017b3606a7e6eba0049de9f0ea0e4a1d90dd",
      "contractAddress": null,
      "gasUsedForL1": "0x3a54",
      "l1BlockNumber": "0x6c878b"
    }
  ],
  "libraries": [],
  "pending": [],
  "returns": {},
  "timestamp": 1732064710,
  "chain": 421614,
  "commit": "4b2e1f8c"
}