{
  "transactions": [
    {
      "hash": "0x4b9d667aae03bd2470250df0099a407433dedaeb34be9ad2ea1d9cb6e6fee343",
      "transactionType": "CALL",
      "contractName": null,
      "contractAddress": "0x0e95227823f64f54d6611ae6f4fb70a4d76d4378",
      "function": "getFeeTokenList()",
      "arguments": [],
      "transaction": {
        "from": "0xe62ab4d111f968660c6b2188046f9b9ba53c4bae",
        "to": "0x0e95227823f64f54d6611ae6f4fb70a4d76d4378",
        "gas": "0x2f8c7",
        "value": "0x0",
        "input": "0xe28ab277",
        "nonce": "0x431",
        "chainId": "0x66eee"
      },
      "additionalContracts": [],
      "isFixedGasLimit": false
    },
    {
      "hash": "0xfb624dae53e0c10d54669a2c21007ac8e86542b5d43cea606fc593645e6d6452",
      "transactionType": "CALL",
      "contractName": null,
      "contractAddress": "0x0e95227823f64f54d6611ae6f4fb70a4d76d4378",
      "function": "addFeeToken(string)",
      "arguments": [
        "0x92829288c6aa874c1a0f190da35a4023c22be637"
      ],
      "transaction": {
        "from": "0xe62ab4d111f968660c6b2188046f9b9ba53c4bae",
        "to": "0x0e95227823f64f54d6611ae6f4fb70a4d76d4378",
        "gas": "0x6fac7",
        "value": "0x0",
        "input": "0x12a6385f0000000000000000000000000000000000000000000000000000000000000020000000000000000000000000000000000000000000000000000000000000002a30783932383239323838633661613837346331613066313930646133356134303233633232626536333700000000000000000000000000000000000000000000",
        "nonce": "0x432",
        "chainId": "0x66eee"
      },
      "additionalContracts": [],
      "isFixedGasLimit": false
    },
    {
      "hash": "0x147b7b249b4f95fa78292453532c6735cde3bca366becc5e5d2a7284bc6ce181",
      "transactionType": "CALL",
      "contractName": null,
      "contractAddress": "0x0e95227823f64f54d6611ae6f4fb70a4d76d4378",
      "function": "setFeeMultiplier(uint8,uint256)",
      "arguments": [
        "0",
        "2"
      ],
      "transaction": {
        "from": "0xe62ab4d111f968660c6b2188046f9b9ba53c4bae",
        "to": "0x0e95227823f64f54d6611ae6f4fb70a4d76d4378",
        "gas": "0x4945d",
        "value": "0x0",
        "input": "0x0ee24eb500000000000000000000000000000000000000000000000000000000000000000000000000000000000000000000000000000000000000000000000000000002",
        "nonce": "0x433",
        "chainId": "0x66eee"
      },
      "additionalContracts": [],
      "isFixedGasLimit": false
    },
    {
      "hash": "0xcdb3b6853d7867a24459ed4c6bdf5bd01030c33e912759e388a8f145af71ded5",
      "transactionType": "CALL",
      "contractName": null,
      "contractAddress": "0x0e95227823f64f54d6611ae6f4fb70a4d76d4378",
      "function": "setFeeMultiplier(uint8,uint256)",
      "arguments": [
        "1",
        "10"
      ],
      "transaction": {
        "from": "0xe62ab4d111f968660c6b2188046f9b9ba53c4bae",
        "to": "0x0e95227823f64f54d6611ae6f4fb70a4d76d4378",
        "gas": "0x49493",
        "value": "0x0",
        "input": "0x0ee24eb50000000000000000000000000000000000000000000000000000000000000001000000000000000000000000000000000000000000000000000000000000000a",
        "nonce": "0x434",
        "chainId": "0x66eee"
      },
      "additionalContracts": [],
      "isFixedGasLimit": false
    },
    {
      "hash": "0x14ae99a9a30c3ee44aafbbdc4acbbb4df8ef1f6c3d7ca1338d10c2a3ec776765",
      "transactionType": "CALL",
      "contractName": null,
      "contractAddress": "0x0e95227823f64f54d6611ae6f4fb70a4d76d4378",
      "function": "setFeeMultiplier(uint8,uint256)",
      "arguments": [
        "2",
        "1"
      ],
      "transaction": {
        "from": "0xe62ab4d111f968660c6b2188046f9b9ba53c4bae",
        "to": "0x0e95227823f64f54d6611ae6f4fb70a4d76d4378",
        "gas": "0x494b1",
        "value": "0x0",
        "input": "0x0ee24eb500000000000000000000000000000000000000000000000000000000000000020000000000000000000000000000000000000000000000000000000000000001",
        "nonce": "0x435",
        "chainId": "0x66eee"
      },
      "additionalContracts": [],
      "isFixedGasLimit": false
    },
    {
      "hash": "0xfaae18fac7dcc1ea511ffff677ced5336b6fcf34212931c27bed8fad8799c9bb",
      "transactionType": "CALL",
      "contractName": null,
      "contractAddress": "0x0e95227823f64f54d6611ae6f4fb70a4d76d4378",
      "function": "setFeeMultiplier(uint8,uint256)",
      "arguments": [
        "3",
        "4"
      ],
      "transaction": {
        "from": "0xe62ab4d111f968660c6b2188046f9b9ba53c4bae",
        "to": "0x0e95227823f64f54d6611ae6f4fb70a4d76d4378",
        "gas": "0x494d0",
        "value": "0x0",
        "input": "0x0ee24eb500000000000000000000000000000000000000000000000000000000000000030000000000000000000000000000000000000000000000000000000000000004",
        "nonce": "0x436",
        "chainId": "0x66eee"
      },
      "additionalContracts": [],
      "isFixedGasLimit": false
    },
    {
      "hash": "0x188509e5578a4bc94d74220f67fc4c372f16ba3cf948efc88017786085c69332",
      "transactionType": "CALL",
      "contractName": null,
      "contractAddress": "0x0e95227823f64f54d6611ae6f4fb70a4d76d4378",
      "function": "setFeeMultiplier(uint8,uint256)",
      "arguments": [
        "4",
        "4"
      ],
      "transaction": {
        "from": "0xe62ab4d111f968660c6b2188046f9b9ba53c4bae",
        "to": "0x0e95227823f64f54d6611ae6f4fb70a4d76d4378",
        "gas": "0x494ee",
        "value": "0x0",
        "input": "0x0ee24eb500000000000000000000000000000000000000000000000000000000000000040000000000000000000000000000000000000000000000000000000000000004",
        "nonce": "0x437",
        "chainId": "0x66eee"
      },
      "additionalContracts": [],
      "isFixedGasLimit": false
    },
    {
      "hash": "0xc07b0500c28f56ad1643eda8ad14fd83727191f219436b4edc10d387b934806a",
      "transactionType": "CALL",
      "contractName": null,
      "contractAddress": "0x0e95227823f64f54d6611ae6f4fb70a4d76d4378",
      "function": "setFeeMultiplier(uint8,uint256)",
      "arguments": [
        "5",
        "8"
      ],
      "transaction": {
        "from": "0xe62ab4d111f968660c6b2188046f9b9ba53c4bae",
        "to": "0x0e95227823f64f54d6611ae6f4fb70a4d76d4378",
        "gas": "0x4950c",
        "value": "0x0",
        "input": "0x0ee24eb500000000000000000000000000000000000000000000000000000000000000050000000000000000000000000000000000000000000000000000000000000008",
        "nonce": "0x438",
        "chainId": "0x66eee"
      },
      "additionalContracts": [],
      "isFixedGasLimit": false
    },
    {
      "hash": "0xdcc9de34e20dfb2877cce13dfbd9ae9d0c9d7b14cde7d6a233d8dcc992bc0220",
      "transactionType": "CALL",
      "contractName": null,
      "contractAddress": "0x0e95227823f64f54d6611ae6f4fb70a4d76d4378",
      "function": "setFeeMultiplier(uint8,uint256)",
      "arguments": [
        "6",
        "4"
      ],
      "transaction": {
        "from": "0xe62ab4d111f968660c6b2188046f9b9ba53c4bae",
        "to": "0x0e95227823f64f54d6611ae6f4fb70a4d76d4378",
        "gas": "0x49529",
        "value": "0x0",
        "input": "0x0ee24eb500000000000000000000000000000000000000000000000000000000000000060000000000000000000000000000000000000000000000000000000000000004",
        "nonce": "0x439",
        "chainId": "0x66eee"
      },
      "additionalContracts": [],
      "isFixedGasLimit": false
    },
    {
      "hash": "0x489512c5e79a96f6fe6b1b25de973e0088a032736493444f9c4b1a0c45981224",
      "transactionType": "CALL",
      "contractName": null,
      "contractAddress": "0x0e95227823f64f54d6611ae6f4fb70a4d76d4378",
      "function": "setFeeMultiplier(uint8,uint256)",
      "arguments": [
        "7",
        "10"
      ],
      "transaction": {
        "from": "0xe62ab4d111f968660c6b2188046f9b9ba53c4bae",
        "to": "0x0e95227823f64f54d6611ae6f4fb70a4d76d4378",
        "gas": "0x49547",
        "value": "0x0",
        "input": "0x0ee24eb50000000000000000000000000000000000000000000000000000000000000007000000000000000000000000000000000000000000000000000000000000000a",
        "nonce": "0x43a",
        "chainId": "0x66eee"
      },
      "additionalContracts": [],
      "isFixedGasLimit": false
    },
    {
      "hash": "0x3d38099eb21e9aaf0b97c4d5c263e07b80c8a06cc1b99dd07b90f5a9ed6ccceb",
      "transactionType": "CALL",
      "contractName": null,
      "contractAddress": "0x0e95227823f64f54d6611ae6f4fb70a4d76d4378",
      "function": "setFeeMultiplier(uint8,uint256)",
      "arguments": [
        "8",
        "8"
      ],
      "transaction": {
        "from": "0xe62ab4d111f968660c6b2188046f9b9ba53c4bae",
        "to": "0x0e95227823f64f54d6611ae6f4fb70a4d76d4378",
        "gas": "0x49567",
        "value": "0x0",
        "input": "0x0ee24eb500000000000000000000000000000000000000000000000000000000000000080000000000000000000000000000000000000000000000000000000000000008",
        "nonce": "0x43b",
        "chainId": "0x66eee"
      },
      "additionalContracts": [],
      "isFixedGasLimit": false
    },
    {
      "hash": "0xedbcd003f573063188eb1dce12ef3f76f716e61a09b79d372979c72ed08e302d",
      "transactionType": "CALL",
      "contractName": null,
      "contractAddress": "0x0e95227823f64f54d6611ae6f4fb70a4d76d4378",
      "function": "setFeeMultiplier(uint8,uint256)",
      "arguments": [
        "9",
        "8"
      ],
      "transaction": {
        "from": "0xe62ab4d111f968660c6b2188046f9b9ba53c4bae",
        "to": "0x0e95227823f64f54d6611ae6f4fb70a4d76d4378",
        "gas": "0x49584",
        "value": "0x0",
        "input": "0x0ee24eb500000000000000000000000000000000000000000000000000000000000000090000000000000000000000000000000000000000000000000000000000000008",
        "nonce": "0x43c",
        "chainId": "0x66eee"
      },
      "additionalContracts": [],
      "isFixedGasLimit": false
    },
    {
      "hash": "0xd36f8390434a43d9e84f6f2deee2aeed575ba35247b38771736463c07320dfbf",
      "transactionType": "CALL",
      "contractName": null,
      "contractAddress": "0x0e95227823f64f54d6611ae6f4fb70a4d76d4378",
      "function": "setFeeMultiplier(uint8,uint256)",
      "arguments": [
        "10",
        "8"
      ],
      "transaction": {
        "from": "0xe62ab4d111f968660c6b2188046f9b9ba53c4bae",
        "to": "0x0e95227823f64f54d6611ae6f4fb70a4d76d4378",
        "gas": "0x495a2",
        "value": "0x0",
        "input": "0x0ee24eb5000000000000000000000000000000000000000000000000000000000000000a0000000000000000000000000000000000000000000000000000000000000008",
        "nonce": "0x43d",
        "chainId": "0x66eee"
      },
      "additionalContracts": [],
      "isFixedGasLimit": false
    },
    {
      "hash": "0x41a3d4c806749a0acb0fa8c510196d709ac14b6a362b5de2a91ca964dc63a43d",
      "transactionType": "CALL",
      "contractName": null,
      "contractAddress": "0x0e95227823f64f54d6611ae6f4fb70a4d76d4378",
      "function": "setFeeMultiplier(uint8,uint256)",
      "arguments": [
        "11",
        "20"
      ],
      "transaction": {
        "from": "0xe62ab4d111f968660c6b2188046f9b9ba53c4bae",
        "to": "0x0e95227823f64f54d6611ae6f4fb70a4d76d4378",
        "gas": "0x495c0",
        "value": "0x0",
        "input": "0x0ee24eb5000000000000000000000000000000000000000000000000000000000000000b0000000000000000000000000000000000000000000000000000000000000014",
        "nonce": "0x43e",
        "chainId": "0x66eee"
      },
      "additionalContracts": [],
      "isFixedGasLimit": false
    },
    {
      "hash": "0xb152f05ca337c6a9babfc4600ac76b74bb86a25bfff05eddbb917f99d47b68a1",
      "transactionType": "CALL",
      "contractName": null,
      "contractAddress": "0x0e95227823f64f54d6611ae6f4fb70a4d76d4378",
      "function": "setFeeMultiplier(uint8,uint256)",
      "arguments": [
        "12",
        "8"
      ],
      "transaction": {
        "from": "0xe62ab4d111f968660c6b2188046f9b9ba53c4bae",
        "to": "0x0e95227823f64f54d6611ae6f4fb70a4d76d4378",
        "gas": "0x495de",
        "value": "0x0",
        "input": "0x0ee24eb5000000000000000000000000000000000000000000000000000000000000000c0000000000000000000000000000000000000000000000000000000000000008",
        "nonce": "0x43f",
        "chainId": "0x66eee"
      },
      "additionalContracts": [],
      "isFixedGasLimit": false
    },
    {
      "hash": "0x9a58df7db62b80a01b235a84e848bbaf9c098cb904aa01eed74955cce539aa34",
      "transactionType": "CALL",
      "contractName": null,
      "contractAddress": "0x0e95227823f64f54d6611ae6f4fb70a4d76d4378",
      "function": "setFeeMultiplier(uint8,uint256)",
      "arguments": [
        "13",
        "4"
      ],
      "transaction": {
        "from": "0xe62ab4d111f968660c6b2188046f9b9ba53c4bae",
        "to": "0x0e95227823f64f54d6611ae6f4fb70a4d76d4378",
        "gas": "0x495fc",
        "value": "0x0",
        "input": "0x0ee24eb5000000000000000000000000000000000000000000000000000000000000000d0000000000000000000000000000000000000000000000000000000000000004",
        "nonce": "0x440",
        "chainId": "0x66eee"
      },
      "additionalContracts": [],
      "isFixedGasLimit": false
    },
    {
      "hash": "0x5b7d6f7957b8320365f94f8107c02e5e60df091749c258ed2ab0081ebd367ca2",
      "transactionType": "CALL",
      "contractName": null,
      "contractAddress": "0x0e95227823f64f54d6611ae6f4fb70a4d76d4378",
      "function": "setFeeMultiplier(uint8,uint256)",
      "arguments": [
        "14",
        "4"
      ],
      "transaction": {
        "from": "0xe62ab4d111f968660c6b2188046f9b9ba53c4bae",
        "to": "0x0e95227823f64f54d6611ae6f4fb70a4d76d4378",
        "gas": "0x4961b",
        "value": "0x0",
        "input": "0x0ee24eb5000000000000000000000000000000000000000000000000000000000000000e0000000000000000000000000000000000000000000000000000000000000004",
        "nonce": "0x441",
        "chainId": "0x66eee"
      },
      "additionalContracts": [],
      "isFixedGasLimit": false
    },
    {
      "hash": "0x2337d147442e6c7d602f0c3e1314e598dc9ed1ec39418fa60fad592bbfcbc87e",
      "transactionType": "CALL",
      "contractName": null,
      "contractAddress": "0x0e95227823f64f54d6611ae6f4fb70a4d76d4378",
      "function": "setFeeMultiplier(uint8,uint256)",
      "arguments": [
        "15",
        "4"
      ],
      "transaction": {
        "from": "0xe62ab4d111f968660c6b2188046f9b9ba53c4bae",
        "to": "0x0e95227823f64f54d6611ae6f4fb70a4d76d4378",
        "gas": "0x49639",
        "value": "0x0",
        "input": "0x0ee24eb5000000000000000000000000000000000000000000000000000000000000000f0000000000000000000000000000000000000000000000000000000000000004",
        "nonce": "0x442",
        "chainId": "0x66eee"
      },
      "additionalContracts": [],
      "isFixedGasLimit": false
    },
    {
      "hash": "0x685f965ebf709978d735354050c21a4e73d1a95d12817e246ec3e8bb7167b33a",
      "transactionType": "CALL",
      "contractName": null,
      "contractAddress": "0x0e95227823f64f54d6611ae6f4fb70a4d76d4378",
      "function": "setFeeMultiplier(uint8,uint256)",
      "arguments": [
        "16",
        "2"
      ],
      "transaction": {
        "from": "0xe62ab4d111f968660c6b2188046f9b9ba53c4bae",
        "to": "0x0e95227823f64f54d6611ae6f4fb70a4d76d4378",
        "gas": "0x49651",
        "value": "0x0",
        "input": "0x0ee24eb500000000000000000000000000000000000000000000000000000000000000100000000000000000000000000000000000000000000000000000000000000002",
        "nonce": "0x443",
        "chainId": "0x66eee"
      },
      "additionalContracts": [],
      "isFixedGasLimit": false
    },
    {
      "hash": "0xe25e85be793748d8b806b58b6fd8435effc299f4a734472fd4b169bc3bb89390",
      "transactionType": "CALL",
      "contractName": null,
      "contractAddress": "0x0e95227823f64f54d6611ae6f4fb70a4d76d4378",
      "function": "addFeeToken(string,string[],uint256[])",
      "arguments": [
        "421614",
        "[0x92829288c6aa874c1a0f190da35a4023c22be637]",
        "[100]"
      ],
      "transaction": {
        "from": "0xe62ab4d111f968660c6b2188046f9b9ba53c4bae",
        "to": "0x0e95227823f64f54d6611ae6f4fb70a4d76d4378",
        "gas": "0x31a54",
        "value": "0x0",
        "input": "0x437bf84f000000000000000000000000000000000000000000000000000000000000006000000000000000000000000000000000000000000000000000000000000000a000000000000000000000000000000000000000000000000000000000000001400000000000000000000000000000000000000000000000000000000000000006343231363134000000000000000000000000000000000000000000000000000000000000000000000000000000000000000000000000000000000000000000010000000000000000000000000000000000000000000000000000000000000020000000000000000000000000000000000000000000000000000000000000002a3078393238323932383863366161383734633161306631393064613335613430323363323262653633370000000000000000000000000000000000000000000000000000000000000000000000000000000000000000000000000000000000010000000000000000000000000000000000000000000000000000000000000064",
        "nonce": "0x444",
        "chainId": "0x66eee"
      },
      "additionalContracts": [],
      "isFixedGasLimit": false
    },
    {
      "hash": "0x9ca9abd2df8f6cb04b9566a32d55ae9e06b3d5a64fc74fbae270a26b1367bf29",
      "transactionType": "CALL",
      "contractName": null,
      "contractAddress": "0x0e95227823f64f54d6611ae6f4fb70a4d76d4378",
      "function": "addFeeToken(string,string[],uint256[])",
      "arguments": [
        "80002",
        "[0x92829288c6aa874c1a0f190da35a4023c22be637]",
        "[100]"
      ],
      "transaction": {
        "from": "0xe62ab4d111f968660c6b2188046f9b9ba53c4bae",
        "to": "0x0e95227823f64f54d6611ae6f4fb70a4d76d4378",
        "gas": "0x2c1d9",
        "value": "0x0",
        "input": "0x437bf84f000000000000000000000000000000000000000000000000000000000000006000000000000000000000000000000000000000000000000000000000000000a000000000000000000000000000000000000000000000000000000000000001400000000000000000000000000000000000000000000000000000000000000005383030303200000000000000000000000000000000000000000000000000000000000000000000000000000000000000000000000000000000000000000000010000000000000000000000000000000000000000000000000000000000000020000000000000000000000000000000000000000000000000000000000000002a3078393238323932383863366161383734633161306631393064613335613430323363323262653633370000000000000000000000000000000000000000000000000000000000000000000000000000000000000000000000000000000000010000000000000000000000000000000000000000000000000000000000000064",
        "nonce": "0x445",
        "chainId": "0x66eee"
      },
      "additionalContracts": [],
      "isFixedGasLimit": false
    },
    {
      "hash": "0xc854739ac50d8308fe97f9301a967d33b1d76a9207649f65fc2ccf82187d8962",
      "transactionType": "CALL",
      "contractName": null,
      "contractAddress": "0x0e95227823f64f54d6611ae6f4fb70a4d76d4378",
      "function": "addFeeToken(string,string[],uint256[])",
      "arguments": [
        "84532",
        "[0x92829288c6aa874c1a0f190da35a4023c22be637]",
        "[100]"
      ],
      "transaction": {
        "from": "0xe62ab4d111f968660c6b2188046f9b9ba53c4bae",
        "to": "0x0e95227823f64f54d6611ae6f4fb70a4d76d4378",
        "gas": "0x2c1d9",
        "value": "0x0",
        "input": "0x437bf84f000000000000000000000000000000000000000000000000000000000000006000000000000000000000000000000000000000000000000000000000000000a000000000000000000000000000000000000000000000000000000000000001400000000000000000000000000000000000000000000000000000000000000005383435333200000000000000000000000000000000000000000000000000000000000000000000000000000000000000000000000000000000000000000000010000000000000000000000000000000000000000000000000000000000000020000000000000000000000000000000000000000000000000000000000000002a3078393238323932383863366161383734633161306631393064613335613430323363323262653633370000000000000000000000000000000000000000000000000000000000000000000000000000000000000000000000000000000000010000000000000000000000000000000000000000000000000000000000000064",
        "nonce": "0x446",
        "chainId": "0x66eee"
      },
      "additionalContracts": [],
      "isFixedGasLimit": false
    },
    {
      "hash": "0xa55c1f4f5096c0239d8ad26294472f69aa86799a77e09ccd77469c9ed22a85ca",
      "transactionType": "CALL",
      "contractName": null,
      "contractAddress": "0x0e95227823f64f54d6611ae6f4fb70a4d76d4378",
      "function": "addFeeToken(string,string[],uint256[])",
      "arguments": [
        "97",
        "[0x92829288c6aa874c1a0f190da35a4023c22be637]",
        "[100]"
      ],
      "transaction": {
        "from": "0xe62ab4d111f968660c6b2188046f9b9ba53c4bae",
        "to": "0x0e95227823f64f54d6611ae6f4fb70a4d76d4378",
        "gas": "0x2945a",
        "value": "0x0",
        "input": "0x437bf84f000000000000000000000000000000000000000000000000000000000000006000000000000000000000000000000000000000000000000000000000000000a000000000000000000000000000000000000000000000000000000000000001400000000000000000000000000000000000000000000000000000000000000002393700000000000000000000000000000000000000000000000000000000000000000000000000000000000000000000000000000000000000000000000000010000000000000000000000000000000000000000000000000000000000000020000000000000000000000000000000000000000000000000000000000000002a3078393238323932383863366161383734633161306631393064613335613430323363323262653633370000000000000000000000000000000000000000000000000000000000000000000000000000000000000000000000000000000000010000000000000000000000000000000000000000000000000000000000000064",
        "nonce": "0x447",
        "chainId": "0x66eee"
      },
      "additionalContracts": [],
      "isFixedGasLimit": false
    },
    {
      "hash": "0x6df48a7de148a66ef77a0969afad80038306fbd54e06b93bc92868f286c37149",
      "transactionType": "CALL",
      "contractName": null,
      "contractAddress": "0x0e95227823f64f54d6611ae6f4fb70a4d76d4378",
      "function": "addFeeToken(string,string[],uint256[])",
      "arguments": [
        "11155111",
        "[0x92829288c6aa874c1a0f190da35a4023c22be637]",
        "[100]"
      ],
      "transaction": {
        "from": "0xe62ab4d111f968660c6b2188046f9b9ba53c4bae",
        "to": "0x0e95227823f64f54d6611ae6f4fb70a4d76d4378",
        "gas": "0x2a0e9",
        "value": "0x0",
        "input": "0x437bf84f000000000000000000000000000000000000000000000000000000000000006000000000000000000000000000000000000000000000000000000000000000a000000000000000000000000000000000000000000000000000000000000001400000000000000000000000000000000000000000000000000000000000000008313131353531313100000000000000000000000000000000000000000000000000000000000000000000000000000000000000000000000000000000000000010000000000000000000000000000000000000000000000000000000000000020000000000000000000000000000000000000000000000000000000000000002a3078393238323932383863366161383734633161306631393064613335613430323363323262653633370000000000000000000000000000000000000000000000000000000000000000000000000000000000000000000000000000000000010000000000000000000000000000000000000000000000000000000000000064",
        "nonce": "0x448",
        "chainId": "0x66eee"
      },
      "additionalContracts": [],
      "isFixedGasLimit": false
    },
    {
      "hash": "0x5c5f9b95d7b183d6f3f23c23425a9069921e26df8b865a9d57a10510483df394",
      "transactionType": "CALL",
      "contractName": null,
      "contractAddress": "0xeb4b038c0f1f086bb7ab5b4192611015aff95390",
      "function": "addChainContract(string[],string[])",
      "arguments": [
        "[80002, 84532, 97, 11155111]",
        "[0xfdd1a5b3aeea2df15a6f6b502784b61bdcbf66bc, 0xea4a06cb68aba869e6bf98edc4bdbc731d2d82e3, 0xc0dd542bcac26095a2c83ffb10826ccef806c07b, 0xf065f9bbd5f59afa0d24be34bdf8ad483485ed1c]"
      ],
      "transaction": {
        "from": "0xe62ab4d111f968660c6b2188046f9b9ba53c4bae",
        "to": "0xeb4b038c0f1f086bb7ab5b4192611015aff95390",
        "gas": "0x123a3d",
        "value": "0x0",
        "input": "0x013fd3bd000000000000000000000000000000000000000000000000000000000000004000000000000000000000000000000000000000000000000000000000000001e00000000000000000000000000000000000000000000000000000000000000004000000000000000000000000000000000000000000000000000000000000008000000000000000000000000000000000000000000000000000000000000000c000000000000000000000000000000000000000000000000000000000000001000000000000000000000000000000000000000000000000000000000000000140000000000000000000000000000000000000000000000000000000000000000538303030320000000000000000000000000000000000000000000000000000000000000000000000000000000000000000000000000000000000000000000005383435333200000000000000000000000000000000000000000000000000000000000000000000000000000000000000000000000000000000000000000000023937000000000000000000000000000000000000000000000000000000000000000000000000000000000000000000000000000000000000000000000000000831313135353131310000000000000000000000000000000000000000000000000000000000000000000000000000000000000000000000000000000000000004000000000000000000000000000000000000000000000000000000000000008000000000000000000000000000000000000000000000000000000000000000e0000000000000000000000000000000000000000000000000000000000000014000000000000000000000000000000000000000000000000000000000000001a0000000000000000000000000000000000000000000000000000000000000002a30786664643161356233616565613264663135613666366235303237383462363162646362663636626300000000000000000000000000000000000000000000000000000000000000000000000000000000000000000000000000000000002a30786561346130366362363861626138363965366266393865646334626462633733316432643832653300000000000000000000000000000000000000000000000000000000000000000000000000000000000000000000000000000000002a30786330646435343262636163323630393561326338336666623130383236636365663830366330376200000000000000000000000000000000000000000000000000000000000000000000000000000000000000000000000000000000002a30786630363566396262643566353961666130643234626533346264663861643438333438356564316300000000000000000000000000000000000000000000",
        "nonce": "0x449",
        "chainId": "0x66eee"
      },
      "additionalContracts": [],
      "isFixedGasLimit": false
    },
    {
      "hash": "0x31e7956ccbb4a56021f89b978fea5bf3c0175bb5dce191e7016980c79c2d3021",
      "transactionType": "CALL",
      "contractName": null,
      "contractAddress": "0xeb4b038c0f1f086bb7ab5b4192611015aff95390",
      "function": "attachRWAX(uint256,uint256,string[],string[])",
      "arguments": [
        "1",
        "1",
        "[421614, 80002, 84532, 97, 11155111]",
        "[0xb3aefea9f49de70c41ce22afa321e64393932d21, 0xd586ea1fce09384f71b69e80f643135fc0641def, 0x9a0f81de582ce9194feadc6ccefaf9ea70451616, 0x7658e59cdba5e7e08263a216e89c8438c9f02048, 0x1ee4ba474da815f728df08f0147defac07f0bab3]"
      ],
      "transaction": {
        "from": "0xe62ab4d111f968660c6b2188046f9b9ba53c4bae",
        "to": "0xeb4b038c0f1f086bb7ab5b4192611015aff95390",
        "gas": "0x156d12",
        "value": "0x0",
        "input": "0x33a5f5b40000000000000000000000000000000000000000000000000000000000000001000000000000000000000000000000000000000000000000000000000000000100000000000000000000000000000000000000000000000000000000000000800000000000000000000000000000000000000000000000000000000000000280000000000000000000000000000000000000000000000000000000000000000500000000000000000000000000000000000000000000000000000000000000a000000000000000000000000000000000000000000000000000000000000000e00000000000000000000000000000000000000000000000000000000000000120000000000000000000000000000000000000000000000000000000000000016000000000000000000000000000000000000000000000000000000000000001a00000000000000000000000000000000000000000000000000000000000000006343231363134000000000000000000000000000000000000000000000000000000000000000000000000000000000000000000000000000000000000000000053830303032000000000000000000000000000000000000000000000000000000000000000000000000000000000000000000000000000000000000000000000538343533320000000000000000000000000000000000000000000000000000000000000000000000000000000000000000000000000000000000000000000002393700000000000000000000000000000000000000000000000000000000000000000000000000000000000000000000000000000000000000000000000000083131313535313131000000000000000000000000000000000000000000000000000000000000000000000000000000000000000000000000000000000000000500000000000000000000000000000000000000000000000000000000000000a00000000000000000000000000000000000000000000000000000000000000100000000000000000000000000000000000000000000000000000000000000016000000000000000000000000000000000000000000000000000000000000001c00000000000000000000000000000000000000000000000000000000000000220000000000000000000000000000000000000000000000000000000000000002a30786233616566656139663439646537306334316365323261666133323165363433393339333264323100000000000000000000000000000000000000000000000000000000000000000000000000000000000000000000000000000000002a30786435383665613166636530393338346637316236396538306636343331333566633036343164656600000000000000000000000000000000000000000000000000000000000000000000000000000000000000000000000000000000002a30783961306638316465353832636539313934666561646336636365666166396561373034353136313600000000000000000000000000000000000000000000000000000000000000000000000000000000000000000000000000000000002a30783736353865353963646261356537653038323633613231366538396338343338633966303230343800000000000000000000000000000000000000000000000000000000000000000000000000000000000000000000000000000000002a30783165653462613437346461383135663732386466303866303134376465666163303766306261623300000000000000000000000000000000000000000000",
        "nonce": "0x44a",
        "chainId": "0x66eee"
      },
      "additionalContracts": [],
      "isFixedGasLimit": false
    },
    {
      "hash": "0xcc6f86262ac1594e8d068f7e872d94c9e79e2a4788b0a6307e3423bb4345a6ba",
      "transactionType": "CALL",
      "contractName": null,
      "contractAddress": "0xeb4b038c0f1f086bb7ab5b4192611015aff95390",
      "function": "attachStorageManager(uint256,uint256,string[],string[])",
      "arguments": [
        "1",
        "1",
        "[421614, 80002, 84532, 97, 11155111]",
        "[0x37c7137dc6e3dc3c3637bfed3f6dbfbd43386429, 0xb523f0e72a7bdf94a5a3d84ba9e8dc42e69229ea, 0x9372cd1287e0bb6337802d80dff342348c85fd78, 0x855c06f9f7b01838dc540ec6fcff17fd86a378d8, 0xcbf4e5fda887e602e5132fa800d74154dfb5b237]"
      ],
      "transaction": {
        "from": "0xe62ab4d111f968660c6b2188046f9b9ba53c4bae",
        "to": "0xeb4b038c0f1f086bb7ab5b4192611015aff95390",
        "gas": "0x1580f1",
        "value": "0x0",
        "input": "0x2f68b4890000000000000000000000000000000000000000000000000000000000000001000000000000000000000000000000000000000000000000000000000000000100000000000000000000000000000000000000000000000000000000000000800000000000000000000000000000000000000000000000000000000000000280000000000000000000000000000000000000000000000000000000000000000500000000000000000000000000000000000000000000000000000000000000a000000000000000000000000000000000000000000000000000000000000000e00000000000000000000000000000000000000000000000000000000000000120000000000000000000000000000000000000000000000000000000000000016000000000000000000000000000000000000000000000000000000000000001a00000000000000000000000000000000000000000000000000000000000000006343231363134000000000000000000000000000000000000000000000000000000000000000000000000000000000000000000000000000000000000000000053830303032000000000000000000000000000000000000000000000000000000000000000000000000000000000000000000000000000000000000000000000538343533320000000000000000000000000000000000000000000000000000000000000000000000000000000000000000000000000000000000000000000002393700000000000000000000000000000000000000000000000000000000000000000000000000000000000000000000000000000000000000000000000000083131313535313131000000000000000000000000000000000000000000000000000000000000000000000000000000000000000000000000000000000000000500000000000000000000000000000000000000000000000000000000000000a00000000000000000000000000000000000000000000000000000000000000100000000000000000000000000000000000000000000000000000000000000016000000000000000000000000000000000000000000000000000000000000001c00000000000000000000000000000000000000000000000000000000000000220000000000000000000000000000000000000000000000000000000000000002a30783337633731333764633665336463336333363337626665643366366462666264343333383634323900000000000000000000000000000000000000000000000000000000000000000000000000000000000000000000000000000000002a30786235323366306537326137626466393461356133643834626139653864633432653639323239656100000000000000000000000000000000000000000000000000000000000000000000000000000000000000000000000000000000002a30783933373263643132383765306262363333373830326438306466663334323334386338356664373800000000000000000000000000000000000000000000000000000000000000000000000000000000000000000000000000000000002a30783835356330366639663762303138333864633534306563366663666631376664383661333738643800000000000000000000000000000000000000000000000000000000000000000000000000000000000000000000000000000000002a30786362663465356664613838376536303265353133326661383030643734313534646662356232333700000000000000000000000000000000000000000000",
        "nonce": "0x44b",
        "chainId": "0x66eee"
      },
      "additionalContracts": [],
      "isFixedGasLimit": false
    }
  ],
  "receipts": [
    {
      "status": "0x1",
      "cumulativeGasUsed": "0x1c340",
      "logs": [],
      "logsBloom": "0x00000000000000000000000000000000000000000000000000000000000000000000000000000000000000000000000000000000000000000000000000000000000000000000000000000000000000000000000000000000000000000000000000000000000000000000000000000000000000000000000000000000000000000000000000000000000000000000000000000000000000000000000000000000000000000000000000000000000000000000000000000000000000000000000000000000000000000000000000000000000000000000000000000000000000000000000000000000000000000000000000000000000000000000000000000000",
      "type": "0x2",
      "transactionHash": "0x4b9d667aae03bd2470250df0099a407433dedaeb34be9ad2ea1d9cb6e6fee343",
      "transactionIndex": "0x1",
      "blockHash": "0x0104fb1108e7b17ed95a74fd53143438c67dea4902776b04a6ad2f83a9109cea",
      "blockNumber": "0x5eba146",
      "gasUsed": "0x1c340",
      "effectiveGasPrice": "0x5f5e100",
      "from": "0xe62ab4d111f968660c6b2188046f9b9ba53c4bae",
      "to": "0x0e95227823f64f54d6611ae6f4fb70a4d76d4378",
      "contractAddress": null,
      "gasUsedForL1": "0x1648d",
      "l1BlockNumber": "0x6cb4c6"
    },
    {
      "status": "0x1",
      "cumulativeGasUsed": "0x7a234",
      "logs": [
        {
          "address": "0x0e95227823f64f54d6611ae6f4fb70a4d76d4378",
          "topics": [
            "0x1394cfab38f3fc78ed77ea6f9318782a446d96e7dc8e9a6b0149f6be25c08bcf",
            "0x00000000000000000000000092829288c6aa874c1a0f190da35a4023c22be637"
          ],
          "data": "0x",
          "blockHash": "0x1fe522e293b865e91a8846a6374c8e76de465401f0bef7946d28a6a86a533fa5",
          "blockNumber": "0x5eba165",
          "transactionHash": "0xfb624dae53e0c10d54669a2c21007ac8e86542b5d43cea606fc593645e6d6452",
          "transactionIndex": "0x2",
          "logIndex": "0x1",
          "removed": false
        }
      ],
      "logsBloom": "0x00000000000000000000000220000000000000000000000000000000000000000000000000000000000000000000000000000000000000000000000000000000000000000000000000000000000000000000001000000000000000000000000000000000000000000000004000000000000000000000000000000000000080000000000100000000000000000000000000000000000000000000000000000000000000000000000000000000000000000000000100000000000000000000000000000000000000000000000000000008000000000004000000000000000000000000000000000000000000000000000000000000000000000000000000000000",
      "type": "0x2",
      "transactionHash": "0xfb624dae53e0c10d54669a2c21007ac8e86542b5d43cea606fc593645e6d6452",
      "transactionIndex": "0x2",
      "blockHash": "0x1fe522e293b865e91a8846a6374c8e76de465401f0bef7946d28a6a86a533fa5",
      "blockNumber": "0x5eba165",
      "gasUsed": "0x4a2bd",
      "effectiveGasPrice": "0x5f5e100",
      "from": "0xe62ab4d111f968660c6b2188046f9b9ba53c4bae",
      "to": "0x0e95227823f64f54d6611ae6f4fb70a4d76d4378",
      "contractAddress": null,
      "gasUsedForL1": "0x2e711",
      "l1BlockNumber": "0x6cb4c7"
    },
    {
      "status": "0x1",
      "cumulativeGasUsed": "0x2e347",
      "logs": [],
      "logsBloom": "0x00000000000000000000000000000000000000000000000000000000000000000000000000000000000000000000000000000000000000000000000000000000000000000000000000000000000000000000000000000000000000000000000000000000000000000000000000000000000000000000000000000000000000000000000000000000000000000000000000000000000000000000000000000000000000000000000000000000000000000000000000000000000000000000000000000000000000000000000000000000000000000000000000000000000000000000000000000000000000000000000000000000000000000000000000000000",
      "type": "0x2",
      "transactionHash": "0x147b7b249b4f95fa78292453532c6735cde3bca366becc5e5d2a7284bc6ce181",
      "transactionIndex": "0x1",
      "blockHash": "0xfe1167f88e7ff868d0da3e8ddc88552e235f99bee96a7dc06f81c8f6169273e4",
      "blockNumber": "0x5eba183",
      "gasUsed": "0x2e347",
      "effectiveGasPrice": "0x5f5e100",
      "from": "0xe62ab4d111f968660c6b2188046f9b9ba53c4bae",
      "to": "0x0e95227823f64f54d6611ae6f4fb70a4d76d4378",
      "contractAddress": null,
      "gasUsedForL1": "0x2274e",
      "l1BlockNumber": "0x6cb4c7"
    },
    {
      "status": "0x1",
      "cumulativeGasUsed": "0x2e370",
      "logs": [],
      "logsBloom": "0x00000000000000000000000000000000000000000000000000000000000000000000000000000000000000000000000000000000000000000000000000000000000000000000000000000000000000000000000000000000000000000000000000000000000000000000000000000000000000000000000000000000000000000000000000000000000000000000000000000000000000000000000000000000000000000000000000000000000000000000000000000000000000000000000000000000000000000000000000000000000000000000000000000000000000000000000000000000000000000000000000000000000000000000000000000000",
      "type": "0x2",
      "transactionHash": "0xcdb3b6853d7867a24459ed4c6bdf5bd01030c33e912759e388a8f145af71ded5",
      "transactionIndex": "0x1",
      "blockHash": "0x5e64a658264b2a0c5f76f50c121227dfe3996fa353cbff721ae31edfceafcf9f",
      "blockNumber": "0x5eba1a2",
      "gasUsed": "0x2e370",
      "effectiveGasPrice": "0x5f5e100",
      "from": "0xe62ab4d111f968660c6b2188046f9b9ba53c4bae",
      "to": "0x0e95227823f64f54d6611ae6f4fb70a4d76d4378",
      "contractAddress": null,
      "gasUsedForL1": "0x2274e",
      "l1BlockNumber": "0x6cb4c8"
    },
    {
      "status": "0x1",
      "cumulativeGasUsed": "0x2e387",
      "logs": [],
      "logsBloom": "0x00000000000000000000000000000000000000000000000000000000000000000000000000000000000000000000000000000000000000000000000000000000000000000000000000000000000000000000000000000000000000000000000000000000000000000000000000000000000000000000000000000000000000000000000000000000000000000000000000000000000000000000000000000000000000000000000000000000000000000000000000000000000000000000000000000000000000000000000000000000000000000000000000000000000000000000000000000000000000000000000000000000000000000000000000000000",
      "type": "0x2",
      "transactionHash": "0x14ae99a9a30c3ee44aafbbdc4acbbb4df8ef1f6c3d7ca1338d10c2a3ec776765",
      "transactionIndex": "0x1",
      "blockHash": "0x675b518df6487bfbeb2b4250159db955db18a41771789420833f5ee8f328f334",
      "blockNumber": "0x5eba1bd",
      "gasUsed": "0x2e387",
      "effectiveGasPrice": "0x5f5e100",
      "from": "0xe62ab4d111f968660c6b2188046f9b9ba53c4bae",
      "to": "0x0e95227823f64f54d6611ae6f4fb70a4d76d4378",
      "contractAddress": null,
      "gasUsedForL1": "0x2274e",
      "l1BlockNumber": "0x6cb4c8"
    },
    {
      "status": "0x1",
      "cumulativeGasUsed": "0x2e39e",
      "logs": [],
      "logsBloom": "0x00000000000000000000000000000000000000000000000000000000000000000000000000000000000000000000000000000000000000000000000000000000000000000000000000000000000000000000000000000000000000000000000000000000000000000000000000000000000000000000000000000000000000000000000000000000000000000000000000000000000000000000000000000000000000000000000000000000000000000000000000000000000000000000000000000000000000000000000000000000000000000000000000000000000000000000000000000000000000000000000000000000000000000000000000000000",
      "type": "0x2",
      "transactionHash": "0xfaae18fac7dcc1ea511ffff677ced5336b6fcf34212931c27bed8fad8799c9bb",
      "transactionIndex": "0x1",
      "blockHash": "0xc9984e54cfe005b34d587922dfc01f7954a543fa6c2c8294a77f180cd36f1faf",
      "blockNumber": "0x5eba1dd",
      "gasUsed": "0x2e39e",
      "effectiveGasPrice": "0x5f5e100",
      "from": "0xe62ab4d111f968660c6b2188046f9b9ba53c4bae",
      "to": "0x0e95227823f64f54d6611ae6f4fb70a4d76d4378",
      "contractAddress": null,
      "gasUsedForL1": "0x2274e",
      "l1BlockNumber": "0x6cb4c8"
    },
    {
      "status": "0x1",
      "cumulativeGasUsed": "0x2e3b5",
      "logs": [],
      "logsBloom": "0x00000000000000000000000000000000000000000000000000000000000000000000000000000000000000000000000000000000000000000000000000000000000000000000000000000000000000000000000000000000000000000000000000000000000000000000000000000000000000000000000000000000000000000000000000000000000000000000000000000000000000000000000000000000000000000000000000000000000000000000000000000000000000000000000000000000000000000000000000000000000000000000000000000000000000000000000000000000000000000000000000000000000000000000000000000000",
      "type": "0x2",
      "transactionHash": "0x188509e5578a4bc94d74220f67fc4c372f16ba3cf948efc88017786085c69332",
      "transactionIndex": "0x1",
      "blockHash": "0x3d287f7eeb19d60cc622160578b38274075369b08e792cda89ff45e300eb79c7",
      "blockNumber": "0x5eba1fc",
      "gasUsed": "0x2e3b5",
      "effectiveGasPrice": "0x5f5e100",
      "from": "0xe62ab4d111f968660c6b2188046f9b9ba53c4bae",
      "to": "0x0e95227823f64f54d6611ae6f4fb70a4d76d4378",
      "contractAddress": null,
      "gasUsedForL1": "0x2274e",
      "l1BlockNumber": "0x6cb4c8"
    },
    {
      "status": "0x1",
      "cumulativeGasUsed": "0x2e3cc",
      "logs": [],
      "logsBloom": "0x00000000000000000000000000000000000000000000000000000000000000000000000000000000000000000000000000000000000000000000000000000000000000000000000000000000000000000000000000000000000000000000000000000000000000000000000000000000000000000000000000000000000000000000000000000000000000000000000000000000000000000000000000000000000000000000000000000000000000000000000000000000000000000000000000000000000000000000000000000000000000000000000000000000000000000000000000000000000000000000000000000000000000000000000000000000",
      "type": "0x2",
      "transactionHash": "0xc07b0500c28f56ad1643eda8ad14fd83727191f219436b4edc10d387b934806a",
      "transactionIndex": "0x1",
      "blockHash": "0xe1d79f39f69299a43bd57ceed6f7c16b05b8a2bab671df2511183404c91b4078",
      "blockNumber": "0x5eba219",
      "gasUsed": "0x2e3cc",
      "effectiveGasPrice": "0x5f5e100",
      "from": "0xe62ab4d111f968660c6b2188046f9b9ba53c4bae",
      "to": "0x0e95227823f64f54d6611ae6f4fb70a4d76d4378",
      "contractAddress": null,
      "gasUsedForL1": "0x2274e",
      "l1BlockNumber": "0x6cb4ca"
    },
    {
      "status": "0x1",
      "cumulativeGasUsed": "0x2e3e3",
      "logs": [],
      "logsBloom": "0x00000000000000000000000000000000000000000000000000000000000000000000000000000000000000000000000000000000000000000000000000000000000000000000000000000000000000000000000000000000000000000000000000000000000000000000000000000000000000000000000000000000000000000000000000000000000000000000000000000000000000000000000000000000000000000000000000000000000000000000000000000000000000000000000000000000000000000000000000000000000000000000000000000000000000000000000000000000000000000000000000000000000000000000000000000000",
      "type": "0x2",
      "transactionHash": "0xdcc9de34e20dfb2877cce13dfbd9ae9d0c9d7b14cde7d6a233d8dcc992bc0220",
      "transactionIndex": "0x1",
      "blockHash": "0x11ca5b0148277672384ad1ef8e39d100cf301627b759997b957c8966a199f88a",
      "blockNumber": "0x5eba236",
      "gasUsed": "0x2e3e3",
      "effectiveGasPrice": "0x5f5e100",
      "from": "0xe62ab4d111f968660c6b2188046f9b9ba53c4bae",
      "to": "0x0e95227823f64f54d6611ae6f4fb70a4d76d4378",
      "contractAddress": null,
      "gasUsedForL1": "0x2274e",
      "l1BlockNumber": "0x6cb4cb"
    },
    {
      "status": "0x1",
      "cumulativeGasUsed": "0x2e3fa",
      "logs": [],
      "logsBloom": "0x00000000000000000000000000000000000000000000000000000000000000000000000000000000000000000000000000000000000000000000000000000000000000000000000000000000000000000000000000000000000000000000000000000000000000000000000000000000000000000000000000000000000000000000000000000000000000000000000000000000000000000000000000000000000000000000000000000000000000000000000000000000000000000000000000000000000000000000000000000000000000000000000000000000000000000000000000000000000000000000000000000000000000000000000000000000",
      "type": "0x2",
      "transactionHash": "0x489512c5e79a96f6fe6b1b25de973e0088a032736493444f9c4b1a0c45981224",
      "transactionIndex": "0x1",
      "blockHash": "0xa5f6e94b5e5eba912219cf8f89e72588559f5fdba93d1a2187ce542a53bedf3a",
      "blockNumber": "0x5eba253",
      "gasUsed": "0x2e3fa",
      "effectiveGasPrice": "0x5f5e100",
      "from": "0xe62ab4d111f968660c6b2188046f9b9ba53c4bae",
      "to": "0x0e95227823f64f54d6611ae6f4fb70a4d76d4378",
      "contractAddress": null,
      "gasUsedForL1": "0x2274e",
      "l1BlockNumber": "0x6cb4cb"
    },
    {
      "status": "0x1",
      "cumulativeGasUsed": "0xa22a0",
      "logs": [],
      "logsBloom": "0x00000000000000000000000000000000000000000000000000000000000000000000000000000000000000000000000000000000000000000000000000000000000000000000000000000000000000000000000000000000000000000000000000000000000000000000000000000000000000000000000000000000000000000000000000000000000000000000000000000000000000000000000000000000000000000000000000000000000000000000000000000000000000000000000000000000000000000000000000000000000000000000000000000000000000000000000000000000000000000000000000000000000000000000000000000000",
      "type": "0x2",
      "transactionHash": "0x3d38099eb21e9aaf0b97c4d5c263e07b80c8a06cc1b99dd07b90f5a9ed6ccceb",
      "transactionIndex": "0x3",
      "blockHash": "0x54c78d43688d5839d438dc3394a35e1b33931bd78fd181cfe625a9e08bd168e0",
      "blockNumber": "0x5eba26f",
      "gasUsed": "0x2e411",
      "effectiveGasPrice": "0x5f5e100",
      "from": "0xe62ab4d111f968660c6b2188046f9b9ba53c4bae",
      "to": "0x0e95227823f64f54d6611ae6f4fb70a4d76d4378",
      "contractAddress": null,
      "gasUsedForL1": "0x2274e",
      "l1BlockNumber": "0x6cb4cc"
    },
    {
      "status": "0x1",
      "cumulativeGasUsed": "0x2e428",
      "logs": [],
      "logsBloom": "0x00000000000000000000000000000000000000000000000000000000000000000000000000000000000000000000000000000000000000000000000000000000000000000000000000000000000000000000000000000000000000000000000000000000000000000000000000000000000000000000000000000000000000000000000000000000000000000000000000000000000000000000000000000000000000000000000000000000000000000000000000000000000000000000000000000000000000000000000000000000000000000000000000000000000000000000000000000000000000000000000000000000000000000000000000000000",
      "type": "0x2",
      "transactionHash": "0xedbcd003f573063188eb1dce12ef3f76f716e61a09b79d372979c72ed08e302d",
      "transactionIndex": "0x1",
      "blockHash": "0x4252b974ad6ad16eca4f297aa9e0a1619fd1ee9b3ab070434afc62b2b37f219f",
      "blockNumber": "0x5eba28c",
      "gasUsed": "0x2e428",
      "effectiveGasPrice": "0x5f5e100",
      "from": "0xe62ab4d111f968660c6b2188046f9b9ba53c4bae",
      "to": "0x0e95227823f64f54d6611ae6f4fb70a4d76d4378",
      "contractAddress": null,
      "gasUsedForL1": "0x2274e",
      "l1BlockNumber": "0x6cb4cc"
    },
    {
      "status": "0x1",
      "cumulativeGasUsed": "0x2e43f",
      "logs": [],
      "logsBloom": "0x00000000000000000000000000000000000000000000000000000000000000000000000000000000000000000000000000000000000000000000000000000000000000000000000000000000000000000000000000000000000000000000000000000000000000000000000000000000000000000000000000000000000000000000000000000000000000000000000000000000000000000000000000000000000000000000000000000000000000000000000000000000000000000000000000000000000000000000000000000000000000000000000000000000000000000000000000000000000000000000000000000000000000000000000000000000",
      "type": "0x2",
      "transactionHash": "0xd36f8390434a43d9e84f6f2deee2aeed575ba35247b38771736463c07320dfbf",
      "transactionIndex": "0x1",
      "blockHash": "0x6700b691e6add59e125c7d3058a9b2fbdbe701d02f6e77ed09296313fee4b6bb",
      "blockNumber": "0x5eba2ac",
      "gasUsed": "0x2e43f",
      "effectiveGasPrice": "0x5f5e100",
      "from": "0xe62ab4d111f968660c6b2188046f9b9ba53c4bae",
      "to": "0x0e95227823f64f54d6611ae6f4fb70a4d76d4378",
      "contractAddress": null,
      "gasUsedForL1": "0x2274e",
      "l1BlockNumber": "0x6cb4cd"
    },
    {
      "status": "0x1",
      "cumulativeGasUsed": "0x2e456",
      "logs": [],
      "logsBloom": "0x00000000000000000000000000000000000000000000000000000000000000000000000000000000000000000000000000000000000000000000000000000000000000000000000000000000000000000000000000000000000000000000000000000000000000000000000000000000000000000000000000000000000000000000000000000000000000000000000000000000000000000000000000000000000000000000000000000000000000000000000000000000000000000000000000000000000000000000000000000000000000000000000000000000000000000000000000000000000000000000000000000000000000000000000000000000",
      "type": "0x2",
      "transactionHash": "0x41a3d4c806749a0acb0fa8c510196d709ac14b6a362b5de2a91ca964dc63a43d",
      "transactionIndex": "0x1",
      "blockHash": "0xf3f740aa7c2ecd8b6b4a533ea4e3ab531630b2cfcbd01de5dce39ae858a79647",
      "blockNumber": "0x5eba2ca",
      "gasUsed": "0x2e456",
      "effectiveGasPrice": "0x5f5e100",
      "from": "0xe62ab4d111f968660c6b2188046f9b9ba53c4bae",
      "to": "0x0e95227823f64f54d6611ae6f4fb70a4d76d4378",
      "contractAddress": null,
      "gasUsedForL1": "0x2274e",
      "l1BlockNumber": "0x6cb4cd"
    },
    {
      "status": "0x1",
      "cumulativeGasUsed": "0x5d867",
      "logs": [],
      "logsBloom": "0x00000000000000000000000000000000000000000000000000000000000000000000000000000000000000000000000000000000000000000000000000000000000000000000000000000000000000000000000000000000000000000000000000000000000000000000000000000000000000000000000000000000000000000000000000000000000000000000000000000000000000000000000000000000000000000000000000000000000000000000000000000000000000000000000000000000000000000000000000000000000000000000000000000000000000000000000000000000000000000000000000000000000000000000000000000000",
      "type": "0x2",
      "transactionHash": "0xb152f05ca337c6a9babfc4600ac76b74bb86a25bfff05eddbb917f99d47b68a1",
      "transactionIndex": "0x2",
      "blockHash": "0xd7e284c4a626b8ada90c2cfc618f6db008d70c05aeac09b5b8369e63968352b1",
      "blockNumber": "0x5eba2ce",
      "gasUsed": "0x2e46d",
      "effectiveGasPrice": "0x5f5e100",
      "from": "0xe62ab4d111f968660c6b2188046f9b9ba53c4bae",
      "to": "0x0e95227823f64f54d6611ae6f4fb70a4d76d4378",
      "contractAddress": null,
      "gasUsedForL1": "0x2274e",
      "l1BlockNumber": "0x6cb4cd"
    },
    {
      "status": "0x1",
      "cumulativeGasUsed": "0x2e484",
      "logs": [],
      "logsBloom": "0x00000000000000000000000000000000000000000000000000000000000000000000000000000000000000000000000000000000000000000000000000000000000000000000000000000000000000000000000000000000000000000000000000000000000000000000000000000000000000000000000000000000000000000000000000000000000000000000000000000000000000000000000000000000000000000000000000000000000000000000000000000000000000000000000000000000000000000000000000000000000000000000000000000000000000000000000000000000000000000000000000000000000000000000000000000000",
      "type": "0x2",
      "transactionHash": "0x9a58df7db62b80a01b235a84e848bbaf9c098cb904aa01eed74955cce539aa34",
      "transactionIndex": "0x1",
      "blockHash": "0xcec882fdcb82c0e01c79c21fd7f1845865cd3a6281f3214ad67d187bfa56dcb8",
      "blockNumber": "0x5eba2d2",
      "gasUsed": "0x2e484",
      "effectiveGasPrice": "0x5f5e100",
      "from": "0xe62ab4d111f968660c6b2188046f9b9ba53c4bae",
      "to": "0x0e95227823f64f54d6611ae6f4fb70a4d76d4378",
      "contractAddress": null,
      "gasUsedForL1": "0x2274e",
      "l1BlockNumber": "0x6cb4cd"
    },
    {
      "status": "0x1",
      "cumulativeGasUsed": "0x2e49b",
      "logs": [],
      "logsBloom": "0x00000000000000000000000000000000000000000000000000000000000000000000000000000000000000000000000000000000000000000000000000000000000000000000000000000000000000000000000000000000000000000000000000000000000000000000000000000000000000000000000000000000000000000000000000000000000000000000000000000000000000000000000000000000000000000000000000000000000000000000000000000000000000000000000000000000000000000000000000000000000000000000000000000000000000000000000000000000000000000000000000000000000000000000000000000000",
      "type": "0x2",
      "transactionHash": "0x5b7d6f7957b8320365f94f8107c02e5e60df091749c258ed2ab0081ebd367ca2",
      "transactionIndex": "0x1",
      "blockHash": "0xc5e9ba31abde33380af72cdfb784b9393521d675e8b02b8158dec56062a55146",
      "blockNumber": "0x5eba2d4",
      "gasUsed": "0x2e49b",
      "effectiveGasPrice": "0x5f5e100",
      "from": "0xe62ab4d111f968660c6b2188046f9b9ba53c4bae",
      "to": "0x0e95227823f64f54d6611ae6f4fb70a4d76d4378",
      "contractAddress": null,
      "gasUsedForL1": "0x2274e",
      "l1BlockNumber": "0x6cb4cd"
    },
    {
      "status": "0x1",
      "cumulativeGasUsed": "0x2e4b2",
      "logs": [],
      "logsBloom": "0x00000000000000000000000000000000000000000000000000000000000000000000000000000000000000000000000000000000000000000000000000000000000000000000000000000000000000000000000000000000000000000000000000000000000000000000000000000000000000000000000000000000000000000000000000000000000000000000000000000000000000000000000000000000000000000000000000000000000000000000000000000000000000000000000000000000000000000000000000000000000000000000000000000000000000000000000000000000000000000000000000000000000000000000000000000000",
      "type": "0x2",
      "transactionHash": "0x2337d147442e6c7d602f0c3e1314e598dc9ed1ec39418fa60fad592bbfcbc87e",
      "transactionIndex": "0x1",
      "blockHash": "0x169340923718757c952ffa3f30f97125afafa4379d8404bfb6562859232f72d9",
      "blockNumber": "0x5eba2ef",
      "gasUsed": "0x2e4b2",
      "effectiveGasPrice": "0x5f5e100",
      "from": "0xe62ab4d111f968660c6b2188046f9b9ba53c4bae",
      "to": "0x0e95227823f64f54d6611ae6f4fb70a4d76d4378",
      "contractAddress": null,
      "gasUsedForL1": "0x2274e",
      "l1BlockNumber": "0x6cb4ce"
    },
    {
      "status": "0x1",
      "cumulativeGasUsed": "0x2e4c4",
      "logs": [],
      "logsBloom": "0x00000000000000000000000000000000000000000000000000000000000000000000000000000000000000000000000000000000000000000000000000000000000000000000000000000000000000000000000000000000000000000000000000000000000000000000000000000000000000000000000000000000000000000000000000000000000000000000000000000000000000000000000000000000000000000000000000000000000000000000000000000000000000000000000000000000000000000000000000000000000000000000000000000000000000000000000000000000000000000000000000000000000000000000000000000000",
      "type": "0x2",
      "transactionHash": "0x685f965ebf709978d735354050c21a4e73d1a95d12817e246ec3e8bb7167b33a",
      "transactionIndex": "0x1",
      "blockHash": "0x61c3e66486ef9644320f64dac307e1cd4aa5f7ec67d43125eb82d9021f908629",
      "blockNumber": "0x5eba30b",
      "gasUsed": "0x2e4c4",
      "effectiveGasPrice": "0x5f5e100",
      "from": "0xe62ab4d111f968660c6b2188046f9b9ba53c4bae",
      "to": "0x0e95227823f64f54d6611ae6f4fb70a4d76d4378",
      "contractAddress": null,
      "gasUsedForL1": "0x2274e",
      "l1BlockNumber": "0x6cb4ce"
    },
    {
      "status": "0x1",
      "cumulativeGasUsed": "0x58709",
      "logs": [],
      "logsBloom": "0x00000000000000000000000000000000000000000000000000000000000000000000000000000000000000000000000000000000000000000000000000000000000000000000000000000000000000000000000000000000000000000000000000000000000000000000000000000000000000000000000000000000000000000000000000000000000000000000000000000000000000000000000000000000000000000000000000000000000000000000000000000000000000000000000000000000000000000000000000000000000000000000000000000000000000000000000000000000000000000000000000000000000000000000000000000000",
      "type": "0x2",
      "transactionHash": "0xe25e85be793748d8b806b58b6fd8435effc299f4a734472fd4b169bc3bb89390",
      "transactionIndex": "0x1",
      "blockHash": "0x2a51fd759f61f550027c8000df5879aa9be3d2df634baf25257805b47870f690",
      "blockNumber": "0x5eba325",
      "gasUsed": "0x58709",
      "effectiveGasPrice": "0x5f5e100",
      "from": "0xe62ab4d111f968660c6b2188046f9b9ba53c4bae",
      "to": "0x0e95227823f64f54d6611ae6f4fb70a4d76d4378",
      "contractAddress": null,
      "gasUsedForL1": "0x367e7",
      "l1BlockNumber": "0x6cb4cf"
    },
    {
      "status": "0x1",
      "cumulativeGasUsed": "0x54d89",
      "logs": [],
      "logsBloom": "0x00000000000000000000000000000000000000000000000000000000000000000000000000000000000000000000000000000000000000000000000000000000000000000000000000000000000000000000000000000000000000000000000000000000000000000000000000000000000000000000000000000000000000000000000000000000000000000000000000000000000000000000000000000000000000000000000000000000000000000000000000000000000000000000000000000000000000000000000000000000000000000000000000000000000000000000000000000000000000000000000000000000000000000000000000000000",
      "type": "0x2",
      "transactionHash": "0x9ca9abd2df8f6cb04b9566a32d55ae9e06b3d5a64fc74fbae270a26b1367bf29",
      "transactionIndex": "0x1",
      "blockHash": "0x7c1e51ad077f0beb6be3c4d7a1265892778223671891647a46d6f6c7b25916a1",
      "blockNumber": "0x5eba33e",
      "gasUsed": "0x54d89",
      "effectiveGasPrice": "0x5f5e100",
      "from": "0xe62ab4d111f968660c6b2188046f9b9ba53c4bae",
      "to": "0x0e95227823f64f54d6611ae6f4fb70a4d76d4378",
      "contractAddress": null,
      "gasUsedForL1": "0x36ae7",
      "l1BlockNumber": "0x6cb4d0"
    },
    {
      "status": "0x1",
      "cumulativeGasUsed": "0x55f83",
      "logs": [],
      "logsBloom": "0x00000000000000000000000000000000000000000000000000000000000000000000000000000000000000000000000000000000000000000000000000000000000000000000000000000000000000000000000000000000000000000000000000000000000000000000000000000000000000000000000000000000000000000000000000000000000000000000000000000000000000000000000000000000000000000000000000000000000000000000000000000000000000000000000000000000000000000000000000000000000000000000000000000000000000000000000000000000000000000000000000000000000000000000000000000000",
      "type": "0x2",
      "transactionHash": "0xc854739ac50d8308fe97f9301a967d33b1d76a9207649f65fc2ccf82187d8962",
      "transactionIndex": "0x1",
      "blockHash": "0xaa8835744523eef7fc90202b2df2f62afcf5e52a151788e94ffc75ca57bd9526",
      "blockNumber": "0x5eba358",
      "gasUsed": "0x55f83",
      "effectiveGasPrice": "0x5f5e100",
      "from": "0xe62ab4d111f968660c6b2188046f9b9ba53c4bae",
      "to": "0x0e95227823f64f54d6611ae6f4fb70a4d76d4378",
      "contractAddress": null,
      "gasUsedForL1": "0x37ce1",
      "l1BlockNumber": "0x6cb4d0"
    },
    {
      "status": "0x1",
      "cumulativeGasUsed": "0x872c28",
      "logs": [],
      "logsBloom": "0x00000000000000000000000000000000000000000000000000000000000000000000000000000000000000000000000000000000000000000000000000000000000000000000000000000000000000000000000000000000000000000000000000000000000000000000000000000000000000000000000000000000000000000000000000000000000000000000000000000000000000000000000000000000000000000000000000000000000000000000000000000000000000000000000000000000000000000000000000000000000000000000000000000000000000000000000000000000000000000000000000000000000000000000000000000000",
      "type": "0x2",
      "transactionHash": "0xa55c1f4f5096c0239d8ad26294472f69aa86799a77e09ccd77469c9ed22a85ca",
      "transactionIndex": "0x4",
      "blockHash": "0x9ea957c720b529ee8dc17015d4c471fe08f9b3e841b4c93f3161590a5699aa95",
      "blockNumber": "0x5eba375",
      "gasUsed": "0x53702",
      "effectiveGasPrice": "0x5f5e100",
      "from": "0xe62ab4d111f968660c6b2188046f9b9ba53c4bae",
      "to": "0x0e95227823f64f54d6611ae6f4fb70a4d76d4378",
      "contractAddress": null,
      "gasUsedForL1": "0x358ec",
      "l1BlockNumber": "0x6cb4d2"
    },
    {
      "status": "0x1",
      "cumulativeGasUsed": "0x55514",
      "logs": [],
      "logsBloom": "0x00000000000000000000000000000000000000000000000000000000000000000000000000000000000000000000000000000000000000000000000000000000000000000000000000000000000000000000000000000000000000000000000000000000000000000000000000000000000000000000000000000000000000000000000000000000000000000000000000000000000000000000000000000000000000000000000000000000000000000000000000000000000000000000000000000000000000000000000000000000000000000000000000000000000000000000000000000000000000000000000000000000000000000000000000000000",
      "type": "0x2",
      "transactionHash": "0x6df48a7de148a66ef77a0969afad80038306fbd54e06b93bc92868f286c37149",
      "transactionIndex": "0x1",
      "blockHash": "0xbad849b46dbb8729e2f00a858ff4c51d5953449e39be4a8a0b1517e77498af69",
      "blockNumber": "0x5eba390",
      "gasUsed": "0x55514",
      "effectiveGasPrice": "0x5f5e100",
      "from": "0xe62ab4d111f968660c6b2188046f9b9ba53c4bae",
      "to": "0x0e95227823f64f54d6611ae6f4fb70a4d76d4378",
      "contractAddress": null,
      "gasUsedForL1": "0x36de6",
      "l1BlockNumber": "0x6cb4d2"
    },
    {
      "status": "0x1",
      "cumulativeGasUsed": "0x3d40c9",
      "logs": [],
      "logsBloom": "0x00000000000000000000000000000000000000000000000000000000000000000000000000000000000000000000000000000000000000000000000000000000000000000000000000000000000000000000000000000000000000000000000000000000000000000000000000000000000000000000000000000000000000000000000000000000000000000000000000000000000000000000000000000000000000000000000000000000000000000000000000000000000000000000000000000000000000000000000000000000000000000000000000000000000000000000000000000000000000000000000000000000000000000000000000000000",
      "type": "0x2",
      "transactionHash": "0x5c5f9b95d7b183d6f3f23c23425a9069921e26df8b865a9d57a10510483df394",
      "transactionIndex": "0x3",
      "blockHash": "0x2543e6667fdfb23816d80c06d8685f885c4e099c6f1f2ea36e94c4bc94f23c8d",
      "blockNumber": "0x5eba3ac",
      "gasUsed": "0xcf343",
      "effectiveGasPrice": "0x5f5e100",
      "from": "0xe62ab4d111f968660c6b2188046f9b9ba53c4bae",
      "to": "0xeb4b038c0f1f086bb7ab5b4192611015aff95390",
      "contractAddress": null,
      "gasUsedForL1": "0x53852",
      "l1BlockNumber": "0x6cb4d3"
    },
    {
      "status": "0x1",
      "cumulativeGasUsed": "0xf4d10",
      "logs": [],
      "logsBloom": "0x00000000000000000000000000000000000000000000000000000000000000000000000000000000000000000000000000000000000000000000000000000000000000000000000000000000000000000000000000000000000000000000000000000000000000000000000000000000000000000000000000000000000000000000000000000000000000000000000000000000000000000000000000000000000000000000000000000000000000000000000000000000000000000000000000000000000000000000000000000000000000000000000000000000000000000000000000000000000000000000000000000000000000000000000000000000",
      "type": "0x2",
      "transactionHash": "0x31e7956ccbb4a56021f89b978fea5bf3c0175bb5dce191e7016980c79c2d3021",
      "transactionIndex": "0x1",
      "blockHash": "0xf5117ed16fc06710d7ddcf8f1b88634deca21c3dc9de1839b0ca68cfa5334781",
      "blockNumber": "0x5eba3b0",
      "gasUsed": "0xf4d10",
      "effectiveGasPrice": "0x5f5e100",
      "from": "0xe62ab4d111f968660c6b2188046f9b9ba53c4bae",
      "to": "0xeb4b038c0f1f086bb7ab5b4192611015aff95390",
      "contractAddress": null,
      "gasUsedForL1": "0x58f36",
      "l1BlockNumber": "0x6cb4d3"
    },
    {
      "status": "0x1",
      "cumulativeGasUsed": "0xf39c5",
      "logs": [],
      "logsBloom": "0x00000000000000000000000000000000000000000000000000000000000000000000000000000000000000000000000000000000000000000000000000000000000000000000000000000000000000000000000000000000000000000000000000000000000000000000000000000000000000000000000000000000000000000000000000000000000000000000000000000000000000000000000000000000000000000000000000000000000000000000000000000000000000000000000000000000000000000000000000000000000000000000000000000000000000000000000000000000000000000000000000000000000000000000000000000000",
      "type": "0x2",
      "transactionHash": "0xcc6f86262ac1594e8d068f7e872d94c9e79e2a4788b0a6307e3423bb4345a6ba",
      "transactionIndex": "0x1",
      "blockHash": "0x776bf535d3264853018cff706c7873add4de6318f4b173bc35f346b97161c927",
      "blockNumber": "0x5eba3b3",
      "gasUsed": "0xf39c5",
      "effectiveGasPrice": "0x5f5e100",
      "from": "0xe62ab4d111f968660c6b2188046f9b9ba53c4bae",
      "to": "0xeb4b038c0f1f086bb7ab5b4192611015aff95390",
      "contractAddress": null,
      "gasUsedForL1": "0x57d3c",
      "l1BlockNumber": "0x6cb4d3"
    }
  ],
  "libraries": [],
  "pending": [],
  "returns": {},
  "timestamp": 1732212388,
  "chain": 421614,
  "commit": "4b2e1f8c"
}