{
  "transactions": [
    {
      "hash": "0xd132be95404cf2cfc30f6a2b4dd4278a750069be28a4f799228e7718dd1238ac",
      "transactionType": "CALL",
      "contractName": "CTMRWAGateway",
      "contractAddress": "0x74972e7ff5561bd902e3ec3ddd5a22653088ca6f",
      "function": "attachStorageManager(uint256,uint256,string,string)",
      "arguments": [
        "1",
        "1",
        "80002",
        "0x3b44962bf264b8cebac13da24722faa27fc693a1"
      ],
      "transaction": {
        "from": "0xe62ab4d111f968660c6b2188046f9b9ba53c4bae",
        "to": "0x74972e7ff5561bd902e3ec3ddd5a22653088ca6f",
        "gas": "0x1bf90",
        "value": "0x0",
        "input": "0x6bb884f300000000000000000000000000000000000000000000000000000000000000010000000000000000000000000000000000000000000000000000000000000001000000000000000000000000000000000000000000000000000000000000008000000000000000000000000000000000000000000000000000000000000000c000000000000000000000000000000000000000000000000000000000000000053830303032000000000000000000000000000000000000000000000000000000000000000000000000000000000000000000000000000000000000000000002a30783362343439363262663236346238636562616331336461323437323266616132376663363933613100000000000000000000000000000000000000000000",
        "nonce": "0x23c",
        "chainId": "0x66eee"
      },
      "additionalContracts": [],
      "isFixedGasLimit": false
    },
    {
      "hash": "0x48fddb83b179c3d905ede2699b0c359ec7f39967c6f9d879038acabe96595853",
      "transactionType": "CALL",
      "contractName": "FeeManager",
      "contractAddress": "0x00cb1299d29a1d389879c1af2316a4b2c78da610",
      "function": "addFeeToken(string,string[],uint256[])",
      "arguments": [
        "80002",
        "[0x1ee4ba474da815f728df08f0147defac07f0bab3]",
        "[1000]"
      ],
      "transaction": {
        "from": "0xe62ab4d111f968660c6b2188046f9b9ba53c4bae",
        "to": "0x00cb1299d29a1d389879c1af2316a4b2c78da610",
        "gas": "0x30b90",
        "value": "0x0",
        "input": "0x437bf84f000000000000000000000000000000000000000000000000000000000000006000000000000000000000000000000000000000000000000000000000000000a000000000000000000000000000000000000000000000000000000000000001400000000000000000000000000000000000000000000000000000000000000005383030303200000000000000000000000000000000000000000000000000000000000000000000000000000000000000000000000000000000000000000000010000000000000000000000000000000000000000000000000000000000000020000000000000000000000000000000000000000000000000000000000000002a30783165653462613437346461383135663732386466303866303134376465666163303766306261623300000000000000000000000000000000000000000000000000000000000000000000000000000000000000000000000000000000000100000000000000000000000000000000000000000000000000000000000003e8",
        "nonce": "0x23d",
        "chainId": "0x66eee"
      },
      "additionalContracts": [],
      "isFixedGasLimit": false
    }
  ],
  "receipts": [
    {
      "status": "0x1",
      "cumulativeGasUsed": "0x14b67",
      "logs": [],
      "logsBloom": "0x00000000000000000000000000000000000000000000000000000000000000000000000000000000000000000000000000000000000000000000000000000000000000000000000000000000000000000000000000000000000000000000000000000000000000000000000000000000000000000000000000000000000000000000000000000000000000000000000000000000000000000000000000000000000000000000000000000000000000000000000000000000000000000000000000000000000000000000000000000000000000000000000000000000000000000000000000000000000000000000000000000000000000000000000000000000",
      "type": "0x2",
      "transactionHash": "0xd132be95404cf2cfc30f6a2b4dd4278a750069be28a4f799228e7718dd1238ac",
      "transactionIndex": "0x1",
      "blockHash": "0x8f925115986a0c5dc3049bc08871bc7f478ef04f966a28a6c595fa64408a6362",
      "blockNumber": "0x58ef8e4",
      "gasUsed": "0x14b67",
      "effectiveGasPrice": "0x5f5e100",
      "from": "0xe62ab4d111f968660c6b2188046f9b9ba53c4bae",
      "to": "0x74972e7ff5561bd902e3ec3ddd5a22653088ca6f",
      "contractAddress": null,
      "gasUsedForL1": "0xa41",
      "l1BlockNumber": "0x6a8f99"
    },
    {
      "status": "0x1",
      "cumulativeGasUsed": "0x2504c",
      "logs": [],
      "logsBloom": "0x00000000000000000000000000000000000000000000000000000000000000000000000000000000000000000000000000000000000000000000000000000000000000000000000000000000000000000000000000000000000000000000000000000000000000000000000000000000000000000000000000000000000000000000000000000000000000000000000000000000000000000000000000000000000000000000000000000000000000000000000000000000000000000000000000000000000000000000000000000000000000000000000000000000000000000000000000000000000000000000000000000000000000000000000000000000",
      "type": "0x2",
      "transactionHash": "0x48fddb83b179c3d905ede2699b0c359ec7f39967c6f9d879038acabe96595853",
      "transactionIndex": "0x1",
      "blockHash": "0x607039cad931c46f5dedab89e9c983287d322d4a889a51328cd927606b02f0aa",
      "blockNumber": "0x58ef8ff",
      "gasUsed": "0x2504c",
      "effectiveGasPrice": "0x5f5e100",
      "from": "0xe62ab4d111f968660c6b2188046f9b9ba53c4bae",
      "to": "0x00cb1299d29a1d389879c1af2316a4b2c78da610",
      "contractAddress": null,
      "gasUsedForL1": "0xac3",
      "l1BlockNumber": "0x6a8f99"
    }
  ],
  "libraries": [],
  "pending": [],
  "returns": {},
  "timestamp": 1730380580,
  "chain": 421614,
  "commit": "34a11392"
}