{
  "transactions": [
    {
      "hash": "0x14c85393987da77a0e9554cdf40e695417bd3a20f409ae83d07a194d8ae70f1b",
      "transactionType": "CALL",
      "contractName": null,
      "contractAddress": "0x15e8bba5f3f0118c357e74d86a65f46977d58053",
      "function": "addChainContract(string[],string[])",
      "arguments": [
        "[43113]",
        "[0x005c5fd1585a73817107bfd3929f7e559750ceed]"
      ],
      "transaction": {
        "from": "0xe62ab4d111f968660c6b2188046f9b9ba53c4bae",
        "to": "0x15e8bba5f3f0118c357e74d86a65f46977d58053",
        "gas": "0x4811c",
        "value": "0x0",
        "input": "0x013fd3bd000000000000000000000000000000000000000000000000000000000000004000000000000000000000000000000000000000000000000000000000000000c0000000000000000000000000000000000000000000000000000000000000000100000000000000000000000000000000000000000000000000000000000000200000000000000000000000000000000000000000000000000000000000000005343331313300000000000000000000000000000000000000000000000000000000000000000000000000000000000000000000000000000000000000000000010000000000000000000000000000000000000000000000000000000000000020000000000000000000000000000000000000000000000000000000000000002a30783030356335666431353835613733383137313037626664333932396637653535393735306365656400000000000000000000000000000000000000000000",
        "nonce": "0xc31",
        "chainId": "0x66eee"
      },
      "additionalContracts": [],
      "isFixedGasLimit": false
    },
    {
      "hash": "0xdf19d7e965a40d032a0442863797fa4686696d8381401073bb1d55494b9cc105",
      "transactionType": "CALL",
      "contractName": null,
      "contractAddress": "0x15e8bba5f3f0118c357e74d86a65f46977d58053",
      "function": "attachRWAX(uint256,uint256,string[],string[])",
      "arguments": [
        "1",
        "1",
        "[43113]",
        "[0xdef5d31e4b2e0bf38af3e8092a5abf51db484eec]"
      ],
      "transaction": {
        "from": "0xe62ab4d111f968660c6b2188046f9b9ba53c4bae",
        "to": "0x15e8bba5f3f0118c357e74d86a65f46977d58053",
        "gas": "0x5337c",
        "value": "0x0",
        "input": "0x33a5f5b40000000000000000000000000000000000000000000000000000000000000001000000000000000000000000000000000000000000000000000000000000000100000000000000000000000000000000000000000000000000000000000000800000000000000000000000000000000000000000000000000000000000000100000000000000000000000000000000000000000000000000000000000000000100000000000000000000000000000000000000000000000000000000000000200000000000000000000000000000000000000000000000000000000000000005343331313300000000000000000000000000000000000000000000000000000000000000000000000000000000000000000000000000000000000000000000010000000000000000000000000000000000000000000000000000000000000020000000000000000000000000000000000000000000000000000000000000002a30786465663564333165346232653062663338616633653830393261356162663531646234383465656300000000000000000000000000000000000000000000",
        "nonce": "0xc32",
        "chainId": "0x66eee"
      },
      "additionalContracts": [],
      "isFixedGasLimit": false
    },
    {
      "hash": "0xa0e018097cbe3e41fbce49c1f0800da1f174a4953e4737f6376eb4bf6180d32e",
      "transactionType": "CALL",
      "contractName": null,
      "contractAddress": "0x15e8bba5f3f0118c357e74d86a65f46977d58053",
      "function": "attachStorageManager(uint256,uint256,string[],string[])",
      "arguments": [
        "1",
        "1",
        "[43113]",
        "[0xcacf2003d4bc2e19c865e65ebb9d57c440217f0f]"
      ],
      "transaction": {
        "from": "0xe62ab4d111f968660c6b2188046f9b9ba53c4bae",
        "to": "0x15e8bba5f3f0118c357e74d86a65f46977d58053",
        "gas": "0x4a2a9",
        "value": "0x0",
        "input": "0x2f68b4890000000000000000000000000000000000000000000000000000000000000001000000000000000000000000000000000000000000000000000000000000000100000000000000000000000000000000000000000000000000000000000000800000000000000000000000000000000000000000000000000000000000000100000000000000000000000000000000000000000000000000000000000000000100000000000000000000000000000000000000000000000000000000000000200000000000000000000000000000000000000000000000000000000000000005343331313300000000000000000000000000000000000000000000000000000000000000000000000000000000000000000000000000000000000000000000010000000000000000000000000000000000000000000000000000000000000020000000000000000000000000000000000000000000000000000000000000002a30786361636632303033643462633265313963383635653635656262396435376334343032313766306600000000000000000000000000000000000000000000",
        "nonce": "0xc33",
        "chainId": "0x66eee"
      },
      "additionalContracts": [],
      "isFixedGasLimit": false
    },
    {
      "hash": "0x6d541249b3a13052b1157ddf4f984bde094bfe281c3977b85c2272be70ee0a68",
      "transactionType": "CALL",
      "contractName": null,
      "contractAddress": "0x15e8bba5f3f0118c357e74d86a65f46977d58053",
      "function": "attachSentryManager(uint256,uint256,string[],string[])",
      "arguments": [
        "1",
        "1",
        "[43113]",
        "[0xf53fb9bb64ab9d3d78f976735762c5af9b5ff341]"
      ],
      "transaction": {
        "from": "0xe62ab4d111f968660c6b2188046f9b9ba53c4bae",
        "to": "0x15e8bba5f3f0118c357e74d86a65f46977d58053",
        "gas": "0x4a25a",
        "value": "0x0",
        "input": "0x349de7970000000000000000000000000000000000000000000000000000000000000001000000000000000000000000000000000000000000000000000000000000000100000000000000000000000000000000000000000000000000000000000000800000000000000000000000000000000000000000000000000000000000000100000000000000000000000000000000000000000000000000000000000000000100000000000000000000000000000000000000000000000000000000000000200000000000000000000000000000000000000000000000000000000000000005343331313300000000000000000000000000000000000000000000000000000000000000000000000000000000000000000000000000000000000000000000010000000000000000000000000000000000000000000000000000000000000020000000000000000000000000000000000000000000000000000000000000002a30786635336662396262363461623964336437386639373637333537363263356166396235666633343100000000000000000000000000000000000000000000",
        "nonce": "0xc34",
        "chainId": "0x66eee"
      },
      "additionalContracts": [],
      "isFixedGasLimit": false
    }
  ],
  "receipts": [
    {
      "status": "0x1",
      "cumulativeGasUsed": "0x36b80",
      "logs": [],
      "logsBloom": "0x00000000000000000000000000000000000000000000000000000000000000000000000000000000000000000000000000000000000000000000000000000000000000000000000000000000000000000000000000000000000000000000000000000000000000000000000000000000000000000000000000000000000000000000000000000000000000000000000000000000000000000000000000000000000000000000000000000000000000000000000000000000000000000000000000000000000000000000000000000000000000000000000000000000000000000000000000000000000000000000000000000000000000000000000000000000",
      "type": "0x2",
      "transactionHash": "0x14c85393987da77a0e9554cdf40e695417bd3a20f409ae83d07a194d8ae70f1b",
      "transactionIndex": "0x1",
      "blockHash": "0x7d02cf526e130b089e9543c42b0dc79ae320776c244328ee9908d33b0dfc70d2",
      "blockNumber": "0x80e9401",
      "gasUsed": "0x36b80",
      "effectiveGasPrice": "0x5f5e100",
      "from": "0xe62ab4d111f968660c6b2188046f9b9ba53c4bae",
      "to": "0x15e8bba5f3f0118c357e74d86a65f46977d58053",
      "contractAddress": null,
      "gasUsedForL1": "0x0",
      "l1BlockNumber": "0x798ba4",
      "timeboosted": false
    },
    {
      "status": "0x1",
      "cumulativeGasUsed": "0x3f3a1",
      "logs": [],
      "logsBloom": "0x00000000000000000000000000000000000000000000000000000000000000000000000000000000000000000000000000000000000000000000000000000000000000000000000000000000000000000000000000000000000000000000000000000000000000000000000000000000000000000000000000000000000000000000000000000000000000000000000000000000000000000000000000000000000000000000000000000000000000000000000000000000000000000000000000000000000000000000000000000000000000000000000000000000000000000000000000000000000000000000000000000000000000000000000000000000",
      "type": "0x2",
      "transactionHash": "0xdf19d7e965a40d032a0442863797fa4686696d8381401073bb1d55494b9cc105",
      "transactionIndex": "0x1",
      "blockHash": "0x4c0afbbafc93e17a0ff11ffdf3fd251f8f37cb42b76f1ce0472352b027987acf",
      "blockNumber": "0x80e940c",
      "gasUsed": "0x3f3a1",
      "effectiveGasPrice": "0x5f5e100",
      "from": "0xe62ab4d111f968660c6b2188046f9b9ba53c4bae",
      "to": "0x15e8bba5f3f0118c357e74d86a65f46977d58053",
      "contractAddress": null,
      "gasUsedForL1": "0x0",
      "l1BlockNumber": "0x798ba4",
      "timeboosted": false
    },
    {
      "status": "0x1",
      "cumulativeGasUsed": "0x9c2d2",
      "logs": [],
      "logsBloom": "0x00000000000000000000000000000000000000000000000000000000000000000000000000000000000000000000000000000000000000000000000000000000000000000000000000000000000000000000000000000000000000000000000000000000000000000000000000000000000000000000000000000000000000000000000000000000000000000000000000000000000000000000000000000000000000000000000000000000000000000000000000000000000000000000000000000000000000000000000000000000000000000000000000000000000000000000000000000000000000000000000000000000000000000000000000000000",
      "type": "0x2",
      "transactionHash": "0xa0e018097cbe3e41fbce49c1f0800da1f174a4953e4737f6376eb4bf6180d32e",
      "transactionIndex": "0x4",
      "blockHash": "0x9a73a63b81c3781c7b382e1d48f0f14ed8c35e6c52c9d6f92779a15973bd5313",
      "blockNumber": "0x80e9417",
      "gasUsed": "0x3851b",
      "effectiveGasPrice": "0x5f5e100",
      "from": "0xe62ab4d111f968660c6b2188046f9b9ba53c4bae",
      "to": "0x15e8bba5f3f0118c357e74d86a65f46977d58053",
      "contractAddress": null,
      "gasUsedForL1": "0x0",
      "l1BlockNumber": "0x798ba4",
      "timeboosted": false
    },
    {
      "status": "0x1",
      "cumulativeGasUsed": "0x4fc94",
      "logs": [],
      "logsBloom": "0x00000000000000000000000000000000000000000000000000000000000000000000000000000000000000000000000000000000000000000000000000000000000000000000000000000000000000000000000000000000000000000000000000000000000000000000000000000000000000000000000000000000000000000000000000000000000000000000000000000000000000000000000000000000000000000000000000000000000000000000000000000000000000000000000000000000000000000000000000000000000000000000000000000000000000000000000000000000000000000000000000000000000000000000000000000000",
      "type": "0x2",
      "transactionHash": "0x6d541249b3a13052b1157ddf4f984bde094bfe281c3977b85c2272be70ee0a68",
      "transactionIndex": "0x2",
      "blockHash": "0x2e64437b7a4f4e97a5fcd9d76eedd2945b65c263f219b97cba19709660d7ac00",
      "blockNumber": "0x80e9421",
      "gasUsed": "0x384de",
      "effectiveGasPrice": "0x5f5e100",
      "from": "0xe62ab4d111f968660c6b2188046f9b9ba53c4bae",
      "to": "0x15e8bba5f3f0118c357e74d86a65f46977d58053",
      "contractAddress": null,
      "gasUsedForL1": "0x0",
      "l1BlockNumber": "0x798ba5",
      "timeboosted": false
    }
  ],
  "libraries": [],
  "pending": [],
  "returns": {},
  "timestamp": 1742754597,
  "chain": 421614,
  "commit": "0d2d6543"
}