{
  "transactions": [
    {
      "hash": "0xe29a24c3196cd4bd58b2db94aae52d331c94a87977421d5af7267b3ab3f7b7ec",
      "transactionType": "CALL",
      "contractName": "CTMRWAGateway",
      "contractAddress": "0x74972e7ff5561bd902e3ec3ddd5a22653088ca6f",
      "function": "addChainContract(string,string)",
      "arguments": [
        "80002",
        "0xdc432bc497a9e38f3ae319842777c9829aac47c4"
      ],
      "transaction": {
        "from": "0xe62ab4d111f968660c6b2188046f9b9ba53c4bae",
        "to": "0x74972e7ff5561bd902e3ec3ddd5a22653088ca6f",
        "gas": "0x1a08b",
        "value": "0x0",
        "input": "0x12d3fcfa0000000000000000000000000000000000000000000000000000000000000040000000000000000000000000000000000000000000000000000000000000008000000000000000000000000000000000000000000000000000000000000000053830303032000000000000000000000000000000000000000000000000000000000000000000000000000000000000000000000000000000000000000000002a30786463343332626334393761396533386633616533313938343237373763393832396161633437633400000000000000000000000000000000000000000000",
        "nonce": "0x1ee",
        "chainId": "0x66eee"
      },
      "additionalContracts": [],
      "isFixedGasLimit": false
    },
    {
      "hash": "0x25838079a5f0ebc5139d54c5607f11cfe114232249de4a4d16fee70df1ea3b1f",
      "transactionType": "CALL",
      "contractName": "CTMRWAGateway",
      "contractAddress": "0x74972e7ff5561bd902e3ec3ddd5a22653088ca6f",
      "function": "attachRWAX(uint256,uint256,string,string)",
      "arguments": [
        "1",
        "1",
        "80002",
        "0xd7155b99ca57aa4c0711a87b982f517de5a036de"
      ],
      "transaction": {
        "from": "0xe62ab4d111f968660c6b2188046f9b9ba53c4bae",
        "to": "0x74972e7ff5561bd902e3ec3ddd5a22653088ca6f",
        "gas": "0x1a71c",
        "value": "0x0",
        "input": "0x5cbee36a00000000000000000000000000000000000000000000000000000000000000010000000000000000000000000000000000000000000000000000000000000001000000000000000000000000000000000000000000000000000000000000008000000000000000000000000000000000000000000000000000000000000000c000000000000000000000000000000000000000000000000000000000000000053830303032000000000000000000000000000000000000000000000000000000000000000000000000000000000000000000000000000000000000000000002a30786437313535623939636135376161346330373131613837623938326635313764653561303336646500000000000000000000000000000000000000000000",
        "nonce": "0x1ef",
        "chainId": "0x66eee"
      },
      "additionalContracts": [],
      "isFixedGasLimit": false
    },
    {
      "hash": "0x081f1215005154c072ffd95a700d227f73395f3f1de500fa9d8f0ac0acbd4407",
      "transactionType": "CALL",
      "contractName": "CTMRWAGateway",
      "contractAddress": "0x74972e7ff5561bd902e3ec3ddd5a22653088ca6f",
      "function": "attachStorageManager(uint256,uint256,string,string)",
      "arguments": [
        "1",
        "1",
        "80002",
        "0xb9676266295363bc85a31305b479baddf4516033"
      ],
      "transaction": {
        "from": "0xe62ab4d111f968660c6b2188046f9b9ba53c4bae",
        "to": "0x74972e7ff5561bd902e3ec3ddd5a22653088ca6f",
        "gas": "0x1a4bf",
        "value": "0x0",
        "input": "0x6bb884f300000000000000000000000000000000000000000000000000000000000000010000000000000000000000000000000000000000000000000000000000000001000000000000000000000000000000000000000000000000000000000000008000000000000000000000000000000000000000000000000000000000000000c000000000000000000000000000000000000000000000000000000000000000053830303032000000000000000000000000000000000000000000000000000000000000000000000000000000000000000000000000000000000000000000002a30786239363736323636323935333633626338356133313330356234373962616464663435313630333300000000000000000000000000000000000000000000",
        "nonce": "0x1f0",
        "chainId": "0x66eee"
      },
      "additionalContracts": [],
      "isFixedGasLimit": false
    }
  ],
  "receipts": [
    {
      "status": "0x1",
      "cumulativeGasUsed": "0x132c1",
      "logs": [],
      "logsBloom": "0x00000000000000000000000000000000000000000000000000000000000000000000000000000000000000000000000000000000000000000000000000000000000000000000000000000000000000000000000000000000000000000000000000000000000000000000000000000000000000000000000000000000000000000000000000000000000000000000000000000000000000000000000000000000000000000000000000000000000000000000000000000000000000000000000000000000000000000000000000000000000000000000000000000000000000000000000000000000000000000000000000000000000000000000000000000000",
      "type": "0x2",
      "transactionHash": "0xe29a24c3196cd4bd58b2db94aae52d331c94a87977421d5af7267b3ab3f7b7ec",
      "transactionIndex": "0x1",
      "blockHash": "0x9b6e1192b889dd98e97682f92c49cd62f986281df52729d51df11a5fc31cf5cc",
      "blockNumber": "0x58e9380",
      "gasUsed": "0x132c1",
      "effectiveGasPrice": "0x5f5e100",
      "from": "0xe62ab4d111f968660c6b2188046f9b9ba53c4bae",
      "to": "0x74972e7ff5561bd902e3ec3ddd5a22653088ca6f",
      "contractAddress": null,
      "gasUsedForL1": "0xd63",
      "l1BlockNumber": "0x6a8d27"
    },
    {
      "status": "0x1",
      "cumulativeGasUsed": "0x38312",
      "logs": [],
      "logsBloom": "0x00000000000000000000000000000000000000000000000000000000000000000000000000000000000000000000000000000000000000000000000000000000000000000000000000000000000000000000000000000000000000000000000000000000000000000000000000000000000000000000000000000000000000000000000000000000000000000000000000000000000000000000000000000000000000000000000000000000000000000000000000000000000000000000000000000000000000000000000000000000000000000000000000000000000000000000000000000000000000000000000000000000000000000000000000000000",
      "type": "0x2",
      "transactionHash": "0x25838079a5f0ebc5139d54c5607f11cfe114232249de4a4d16fee70df1ea3b1f",
      "transactionIndex": "0x2",
      "blockHash": "0x0bed14e2797ca305b986e414f9c3593b2a26b1de5db43be0773f18cc3a1a0557",
      "blockNumber": "0x58e93a1",
      "gasUsed": "0x137fb",
      "effectiveGasPrice": "0x5f5e100",
      "from": "0xe62ab4d111f968660c6b2188046f9b9ba53c4bae",
      "to": "0x74972e7ff5561bd902e3ec3ddd5a22653088ca6f",
      "contractAddress": null,
      "gasUsedForL1": "0xdc9",
      "l1BlockNumber": "0x6a8d28"
    },
    {
      "status": "0x1",
      "cumulativeGasUsed": "0x1c27f0",
      "logs": [],
      "logsBloom": "0x00000000000000000000000000000000000000000000000000000000000000000000000000000000000000000000000000000000000000000000000000000000000000000000000000000000000000000000000000000000000000000000000000000000000000000000000000000000000000000000000000000000000000000000000000000000000000000000000000000000000000000000000000000000000000000000000000000000000000000000000000000000000000000000000000000000000000000000000000000000000000000000000000000000000000000000000000000000000000000000000000000000000000000000000000000000",
      "type": "0x2",
      "transactionHash": "0x081f1215005154c072ffd95a700d227f73395f3f1de500fa9d8f0ac0acbd4407",
      "transactionIndex": "0x2",
      "blockHash": "0x24de6f2e36c3794fec833e78405d6685777ce2434b9e631972f60fb654a193ad",
      "blockNumber": "0x58e93c1",
      "gasUsed": "0x135f0",
      "effectiveGasPrice": "0x5f5e100",
      "from": "0xe62ab4d111f968660c6b2188046f9b9ba53c4bae",
      "to": "0x74972e7ff5561bd902e3ec3ddd5a22653088ca6f",
      "contractAddress": null,
      "gasUsedForL1": "0xd89",
      "l1BlockNumber": "0x6a8d28"
    }
  ],
  "libraries": [],
  "pending": [],
  "returns": {},
  "timestamp": 1730372586,
  "chain": 421614,
  "commit": "34a11392"
}