{
  "transactions": [
    {
      "hash": "0x51d826331cd25628797b1b01b9828882184f56f46a9a64a079b31fdbce62424e",
      "transactionType": "CALL",
      "contractName": "CTMRWAGateway",
      "contractAddress": "0x74972e7ff5561bd902e3ec3ddd5a22653088ca6f",
      "function": "addChainContract(string,string)",
      "arguments": [
        "59141",
        "0xd52966352e5a15dcb05cdfb4d8f54f565d487210"
      ],
      "transaction": {
        "from": "0xe62ab4d111f968660c6b2188046f9b9ba53c4bae",
        "to": "0x74972e7ff5561bd902e3ec3ddd5a22653088ca6f",
        "gas": "0x39ac8",
        "value": "0x0",
        "input": "0x12d3fcfa0000000000000000000000000000000000000000000000000000000000000040000000000000000000000000000000000000000000000000000000000000008000000000000000000000000000000000000000000000000000000000000000053539313431000000000000000000000000000000000000000000000000000000000000000000000000000000000000000000000000000000000000000000002a30786435323936363335326535613135646362303563646662346438663534663536356434383732313000000000000000000000000000000000000000000000",
        "nonce": "0x1f4",
        "chainId": "0x66eee"
      },
      "additionalContracts": [],
      "isFixedGasLimit": false
    },
    {
      "hash": "0xd3a61929c781316d40ddd900818ab5123beb6dc4909cb0909e978515a326220c",
      "transactionType": "CALL",
      "contractName": "CTMRWAGateway",
      "contractAddress": "0x74972e7ff5561bd902e3ec3ddd5a22653088ca6f",
      "function": "attachRWAX(uint256,uint256,string,string)",
      "arguments": [
        "1",
        "1",
        "59141",
        "0x7dabce18c66b5c857355a815b6c1e926c701c23f"
      ],
      "transaction": {
        "from": "0xe62ab4d111f968660c6b2188046f9b9ba53c4bae",
        "to": "0x74972e7ff5561bd902e3ec3ddd5a22653088ca6f",
        "gas": "0x3a395",
        "value": "0x0",
        "input": "0x5cbee36a00000000000000000000000000000000000000000000000000000000000000010000000000000000000000000000000000000000000000000000000000000001000000000000000000000000000000000000000000000000000000000000008000000000000000000000000000000000000000000000000000000000000000c000000000000000000000000000000000000000000000000000000000000000053539313431000000000000000000000000000000000000000000000000000000000000000000000000000000000000000000000000000000000000000000002a30783764616263653138633636623563383537333535613831356236633165393236633730316332336600000000000000000000000000000000000000000000",
        "nonce": "0x1f5",
        "chainId": "0x66eee"
      },
      "additionalContracts": [],
      "isFixedGasLimit": false
    },
    {
      "hash": "0xd9033e70602b199a7cd626c3a321882706c1fabe579296cc0492d42c45287435",
      "transactionType": "CALL",
      "contractName": "CTMRWAGateway",
      "contractAddress": "0x74972e7ff5561bd902e3ec3ddd5a22653088ca6f",
      "function": "attachStorageManager(uint256,uint256,string,string)",
      "arguments": [
        "1",
        "1",
        "59141",
        "0x92bb6defef73fa2ee42fec2273d98693571bd7f3"
      ],
      "transaction": {
        "from": "0xe62ab4d111f968660c6b2188046f9b9ba53c4bae",
        "to": "0x74972e7ff5561bd902e3ec3ddd5a22653088ca6f",
        "gas": "0x3a5f9",
        "value": "0x0",
        "input": "0x6bb884f300000000000000000000000000000000000000000000000000000000000000010000000000000000000000000000000000000000000000000000000000000001000000000000000000000000000000000000000000000000000000000000008000000000000000000000000000000000000000000000000000000000000000c000000000000000000000000000000000000000000000000000000000000000053539313431000000000000000000000000000000000000000000000000000000000000000000000000000000000000000000000000000000000000000000002a30783932626236646566656637336661326565343266656332323733643938363933353731626437663300000000000000000000000000000000000000000000",
        "nonce": "0x1f6",
        "chainId": "0x66eee"
      },
      "additionalContracts": [],
      "isFixedGasLimit": false
    },
    {
      "hash": "0xe431556d0349d5986b8cc86c3f8cee79ab197f5340ef0e10df4167fdf9337ca9",
      "transactionType": "CALL",
      "contractName": "CTMRWAGateway",
      "contractAddress": "0x74972e7ff5561bd902e3ec3ddd5a22653088ca6f",
      "function": "addChainContract(string,string)",
      "arguments": [
        "71",
        "0x25903bea74d4fbe43b7d30703d2a740841dfb7b2"
      ],
      "transaction": {
        "from": "0xe62ab4d111f968660c6b2188046f9b9ba53c4bae",
        "to": "0x74972e7ff5561bd902e3ec3ddd5a22653088ca6f",
        "gas": "0x3940c",
        "value": "0x0",
        "input": "0x12d3fcfa0000000000000000000000000000000000000000000000000000000000000040000000000000000000000000000000000000000000000000000000000000008000000000000000000000000000000000000000000000000000000000000000023731000000000000000000000000000000000000000000000000000000000000000000000000000000000000000000000000000000000000000000000000002a30783235393033626561373464346662653433623764333037303364326137343038343164666237623200000000000000000000000000000000000000000000",
        "nonce": "0x1f7",
        "chainId": "0x66eee"
      },
      "additionalContracts": [],
      "isFixedGasLimit": false
    },
    {
      "hash": "0x2695dbc53a8ed56b96072369b4cad557d56deabfdaae02be1b56e395b34ed004",
      "transactionType": "CALL",
      "contractName": "CTMRWAGateway",
      "contractAddress": "0x74972e7ff5561bd902e3ec3ddd5a22653088ca6f",
      "function": "attachRWAX(uint256,uint256,string,string)",
      "arguments": [
        "1",
        "1",
        "71",
        "0x45cdde4bdabc97b3ec02b1271432ceebc04d4c53"
      ],
      "transaction": {
        "from": "0xe62ab4d111f968660c6b2188046f9b9ba53c4bae",
        "to": "0x74972e7ff5561bd902e3ec3ddd5a22653088ca6f",
        "gas": "0x39f39",
        "value": "0x0",
        "input": "0x5cbee36a00000000000000000000000000000000000000000000000000000000000000010000000000000000000000000000000000000000000000000000000000000001000000000000000000000000000000000000000000000000000000000000008000000000000000000000000000000000000000000000000000000000000000c000000000000000000000000000000000000000000000000000000000000000023731000000000000000000000000000000000000000000000000000000000000000000000000000000000000000000000000000000000000000000000000002a30783435636464653462646162633937623365633032623132373134333263656562633034643463353300000000000000000000000000000000000000000000",
        "nonce": "0x1f8",
        "chainId": "0x66eee"
      },
      "additionalContracts": [],
      "isFixedGasLimit": false
    },
    {
      "hash": "0x36337dd30d9b8df103b1e36b05cb0268da0968ea6d12edea8641a1dbab7ee77c",
      "transactionType": "CALL",
      "contractName": "CTMRWAGateway",
      "contractAddress": "0x74972e7ff5561bd902e3ec3ddd5a22653088ca6f",
      "function": "attachStorageManager(uint256,uint256,string,string)",
      "arguments": [
        "1",
        "1",
        "71",
        "0x9e2f5d1228b02c2fbf3168db1162e7461574ebb9"
      ],
      "transaction": {
        "from": "0xe62ab4d111f968660c6b2188046f9b9ba53c4bae",
        "to": "0x74972e7ff5561bd902e3ec3ddd5a22653088ca6f",
        "gas": "0x39c55",
        "value": "0x0",
        "input": "0x6bb884f300000000000000000000000000000000000000000000000000000000000000010000000000000000000000000000000000000000000000000000000000000001000000000000000000000000000000000000000000000000000000000000008000000000000000000000000000000000000000000000000000000000000000c000000000000000000000000000000000000000000000000000000000000000023731000000000000000000000000000000000000000000000000000000000000000000000000000000000000000000000000000000000000000000000000002a30783965326635643132323862303263326662663331363864623131363265373436313537346562623900000000000000000000000000000000000000000000",
        "nonce": "0x1f9",
        "chainId": "0x66eee"
      },
      "additionalContracts": [],
      "isFixedGasLimit": false
    },
    {
      "hash": "0xe06b1ebb74f435b5e85faad673f799bcfb30e4685f5c46291ca36dfc3171a321",
      "transactionType": "CALL",
      "contractName": "CTMRWAGateway",
      "contractAddress": "0x74972e7ff5561bd902e3ec3ddd5a22653088ca6f",
      "function": "addChainContract(string,string)",
      "arguments": [
        "1115",
        "0xeadb6779c7284a7ef6f611f4535e60c3d59b321b"
      ],
      "transaction": {
        "from": "0xe62ab4d111f968660c6b2188046f9b9ba53c4bae",
        "to": "0x74972e7ff5561bd902e3ec3ddd5a22653088ca6f",
        "gas": "0x3991f",
        "value": "0x0",
        "input": "0x12d3fcfa0000000000000000000000000000000000000000000000000000000000000040000000000000000000000000000000000000000000000000000000000000008000000000000000000000000000000000000000000000000000000000000000043131313500000000000000000000000000000000000000000000000000000000000000000000000000000000000000000000000000000000000000000000002a30786561646236373739633732383461376566366636313166343533356536306333643539623332316200000000000000000000000000000000000000000000",
        "nonce": "0x1fa",
        "chainId": "0x66eee"
      },
      "additionalContracts": [],
      "isFixedGasLimit": false
    },
    {
      "hash": "0x558aab5c4bab4b32b64672a60b549ff4b2d2e8cfb0858d7106b8913ef86bb4e7",
      "transactionType": "CALL",
      "contractName": "CTMRWAGateway",
      "contractAddress": "0x74972e7ff5561bd902e3ec3ddd5a22653088ca6f",
      "function": "attachRWAX(uint256,uint256,string,string)",
      "arguments": [
        "1",
        "1",
        "1115",
        "0x232c61b3d1a03cc57e976cccd0f9c9cd33a98fe0"
      ],
      "transaction": {
        "from": "0xe62ab4d111f968660c6b2188046f9b9ba53c4bae",
        "to": "0x74972e7ff5561bd902e3ec3ddd5a22653088ca6f",
        "gas": "0x3a2ff",
        "value": "0x0",
        "input": "0x5cbee36a00000000000000000000000000000000000000000000000000000000000000010000000000000000000000000000000000000000000000000000000000000001000000000000000000000000000000000000000000000000000000000000008000000000000000000000000000000000000000000000000000000000000000c000000000000000000000000000000000000000000000000000000000000000043131313500000000000000000000000000000000000000000000000000000000000000000000000000000000000000000000000000000000000000000000002a30783233326336316233643161303363633537653937366363636430663963396364333361393866653000000000000000000000000000000000000000000000",
        "nonce": "0x1fb",
        "chainId": "0x66eee"
      },
      "additionalContracts": [],
      "isFixedGasLimit": false
    },
    {
      "hash": "0xe438c619a83c89c5e8a9868cc7dc2f0b4d999f32fd0f74e56658a38cd6d1c0a1",
      "transactionType": "CALL",
      "contractName": "CTMRWAGateway",
      "contractAddress": "0x74972e7ff5561bd902e3ec3ddd5a22653088ca6f",
      "function": "attachStorageManager(uint256,uint256,string,string)",
      "arguments": [
        "1",
        "1",
        "1115",
        "0xa6e0fa5cceef6e87d89b4dc51053e1ff1a557b53"
      ],
      "transaction": {
        "from": "0xe62ab4d111f968660c6b2188046f9b9ba53c4bae",
        "to": "0x74972e7ff5561bd902e3ec3ddd5a22653088ca6f",
        "gas": "0x3a3a7",
        "value": "0x0",
        "input": "0x6bb884f300000000000000000000000000000000000000000000000000000000000000010000000000000000000000000000000000000000000000000000000000000001000000000000000000000000000000000000000000000000000000000000008000000000000000000000000000000000000000000000000000000000000000c000000000000000000000000000000000000000000000000000000000000000043131313500000000000000000000000000000000000000000000000000000000000000000000000000000000000000000000000000000000000000000000002a30786136653066613563636565663665383764383962346463353130353365316666316135353762353300000000000000000000000000000000000000000000",
        "nonce": "0x1fc",
        "chainId": "0x66eee"
      },
      "additionalContracts": [],
      "isFixedGasLimit": false
    },
    {
      "hash": "0x9d1dd7e57b9e84ed0e92ce588a9c2a8b7d9ede33a80299e4099de106d2ac133a",
      "transactionType": "CALL",
      "contractName": "CTMRWAGateway",
      "contractAddress": "0x74972e7ff5561bd902e3ec3ddd5a22653088ca6f",
      "function": "addChainContract(string,string)",
      "arguments": [
        "17000",
        "0xd52966352e5a15dcb05cdfb4d8f54f565d487210"
      ],
      "transaction": {
        "from": "0xe62ab4d111f968660c6b2188046f9b9ba53c4bae",
        "to": "0x74972e7ff5561bd902e3ec3ddd5a22653088ca6f",
        "gas": "0x39a8e",
        "value": "0x0",
        "input": "0x12d3fcfa0000000000000000000000000000000000000000000000000000000000000040000000000000000000000000000000000000000000000000000000000000008000000000000000000000000000000000000000000000000000000000000000053137303030000000000000000000000000000000000000000000000000000000000000000000000000000000000000000000000000000000000000000000002a30786435323936363335326535613135646362303563646662346438663534663536356434383732313000000000000000000000000000000000000000000000",
        "nonce": "0x1fd",
        "chainId": "0x66eee"
      },
      "additionalContracts": [],
      "isFixedGasLimit": false
    },
    {
      "hash": "0x7a65234c5059418b9b6e5245e97fb1b1b5f274e3475a770dbd13da58d9e77714",
      "transactionType": "CALL",
      "contractName": "CTMRWAGateway",
      "contractAddress": "0x74972e7ff5561bd902e3ec3ddd5a22653088ca6f",
      "function": "attachRWAX(uint256,uint256,string,string)",
      "arguments": [
        "1",
        "1",
        "17000",
        "0x7dabce18c66b5c857355a815b6c1e926c701c23f"
      ],
      "transaction": {
        "from": "0xe62ab4d111f968660c6b2188046f9b9ba53c4bae",
        "to": "0x74972e7ff5561bd902e3ec3ddd5a22653088ca6f",
        "gas": "0x3a395",
        "value": "0x0",
        "input": "0x5cbee36a00000000000000000000000000000000000000000000000000000000000000010000000000000000000000000000000000000000000000000000000000000001000000000000000000000000000000000000000000000000000000000000008000000000000000000000000000000000000000000000000000000000000000c000000000000000000000000000000000000000000000000000000000000000053137303030000000000000000000000000000000000000000000000000000000000000000000000000000000000000000000000000000000000000000000002a30783764616263653138633636623563383537333535613831356236633165393236633730316332336600000000000000000000000000000000000000000000",
        "nonce": "0x1fe",
        "chainId": "0x66eee"
      },
      "additionalContracts": [],
      "isFixedGasLimit": false
    },
    {
      "hash": "0x29c698b4db508454530965e674ccb1bcddc9dc7f09c4049f0699b04999c25933",
      "transactionType": "CALL",
      "contractName": "CTMRWAGateway",
      "contractAddress": "0x74972e7ff5561bd902e3ec3ddd5a22653088ca6f",
      "function": "attachStorageManager(uint256,uint256,string,string)",
      "arguments": [
        "1",
        "1",
        "17000",
        "0x92bb6defef73fa2ee42fec2273d98693571bd7f3"
      ],
      "transaction": {
        "from": "0xe62ab4d111f968660c6b2188046f9b9ba53c4bae",
        "to": "0x74972e7ff5561bd902e3ec3ddd5a22653088ca6f",
        "gas": "0x3a5c1",
        "value": "0x0",
        "input": "0x6bb884f300000000000000000000000000000000000000000000000000000000000000010000000000000000000000000000000000000000000000000000000000000001000000000000000000000000000000000000000000000000000000000000008000000000000000000000000000000000000000000000000000000000000000c000000000000000000000000000000000000000000000000000000000000000053137303030000000000000000000000000000000000000000000000000000000000000000000000000000000000000000000000000000000000000000000002a30783932626236646566656637336661326565343266656332323733643938363933353731626437663300000000000000000000000000000000000000000000",
        "nonce": "0x1ff",
        "chainId": "0x66eee"
      },
      "additionalContracts": [],
      "isFixedGasLimit": false
    },
    {
      "hash": "0xda2cf189a89b6118bea0fcb6b963979c9a4397a49e79c4ffb8c6596aa9cdfad1",
      "transactionType": "CALL",
      "contractName": "CTMRWAGateway",
      "contractAddress": "0x74972e7ff5561bd902e3ec3ddd5a22653088ca6f",
      "function": "addChainContract(string,string)",
      "arguments": [
        "2810",
        "0xd52966352e5a15dcb05cdfb4d8f54f565d487210"
      ],
      "transaction": {
        "from": "0xe62ab4d111f968660c6b2188046f9b9ba53c4bae",
        "to": "0x74972e7ff5561bd902e3ec3ddd5a22653088ca6f",
        "gas": "0x39820",
        "value": "0x0",
        "input": "0x12d3fcfa0000000000000000000000000000000000000000000000000000000000000040000000000000000000000000000000000000000000000000000000000000008000000000000000000000000000000000000000000000000000000000000000043238313000000000000000000000000000000000000000000000000000000000000000000000000000000000000000000000000000000000000000000000002a30786435323936363335326535613135646362303563646662346438663534663536356434383732313000000000000000000000000000000000000000000000",
        "nonce": "0x200",
        "chainId": "0x66eee"
      },
      "additionalContracts": [],
      "isFixedGasLimit": false
    },
    {
      "hash": "0xb8827adc686d6ab8f03c8079c652f05d13009f56cf22e6b515f3c97d1c445603",
      "transactionType": "CALL",
      "contractName": "CTMRWAGateway",
      "contractAddress": "0x74972e7ff5561bd902e3ec3ddd5a22653088ca6f",
      "function": "attachRWAX(uint256,uint256,string,string)",
      "arguments": [
        "1",
        "1",
        "2810",
        "0x7dabce18c66b5c857355a815b6c1e926c701c23f"
      ],
      "transaction": {
        "from": "0xe62ab4d111f968660c6b2188046f9b9ba53c4bae",
        "to": "0x74972e7ff5561bd902e3ec3ddd5a22653088ca6f",
        "gas": "0x3a19b",
        "value": "0x0",
        "input": "0x5cbee36a00000000000000000000000000000000000000000000000000000000000000010000000000000000000000000000000000000000000000000000000000000001000000000000000000000000000000000000000000000000000000000000008000000000000000000000000000000000000000000000000000000000000000c000000000000000000000000000000000000000000000000000000000000000043238313000000000000000000000000000000000000000000000000000000000000000000000000000000000000000000000000000000000000000000000002a30783764616263653138633636623563383537333535613831356236633165393236633730316332336600000000000000000000000000000000000000000000",
        "nonce": "0x201",
        "chainId": "0x66eee"
      },
      "additionalContracts": [],
      "isFixedGasLimit": false
    },
    {
      "hash": "0xaf98350f6c88b7f78a33f4f15cf5e7931aefa6f9cc2984cf9f8696a5c16fa9a0",
      "transactionType": "CALL",
      "contractName": "CTMRWAGateway",
      "contractAddress": "0x74972e7ff5561bd902e3ec3ddd5a22653088ca6f",
      "function": "attachStorageManager(uint256,uint256,string,string)",
      "arguments": [
        "1",
        "1",
        "2810",
        "0x92bb6defef73fa2ee42fec2273d98693571bd7f3"
      ],
      "transaction": {
        "from": "0xe62ab4d111f968660c6b2188046f9b9ba53c4bae",
        "to": "0x74972e7ff5561bd902e3ec3ddd5a22653088ca6f",
        "gas": "0x3a38f",
        "value": "0x0",
        "input": "0x6bb884f300000000000000000000000000000000000000000000000000000000000000010000000000000000000000000000000000000000000000000000000000000001000000000000000000000000000000000000000000000000000000000000008000000000000000000000000000000000000000000000000000000000000000c000000000000000000000000000000000000000000000000000000000000000043238313000000000000000000000000000000000000000000000000000000000000000000000000000000000000000000000000000000000000000000000002a30783932626236646566656637336661326565343266656332323733643938363933353731626437663300000000000000000000000000000000000000000000",
        "nonce": "0x202",
        "chainId": "0x66eee"
      },
      "additionalContracts": [],
      "isFixedGasLimit": false
    },
    {
      "hash": "0x1e56fef5666079ce581c984b40403acabe965a8ddc832d5c898d474c7cfc4aab",
      "transactionType": "CALL",
      "contractName": "CTMRWAGateway",
      "contractAddress": "0x74972e7ff5561bd902e3ec3ddd5a22653088ca6f",
      "function": "addChainContract(string,string)",
      "arguments": [
        "168587773",
        "0xd52966352e5a15dcb05cdfb4d8f54f565d487210"
      ],
      "transaction": {
        "from": "0xe62ab4d111f968660c6b2188046f9b9ba53c4bae",
        "to": "0x74972e7ff5561bd902e3ec3ddd5a22653088ca6f",
        "gas": "0x3a2a9",
        "value": "0x0",
        "input": "0x12d3fcfa0000000000000000000000000000000000000000000000000000000000000040000000000000000000000000000000000000000000000000000000000000008000000000000000000000000000000000000000000000000000000000000000093136383538373737330000000000000000000000000000000000000000000000000000000000000000000000000000000000000000000000000000000000002a30786435323936363335326535613135646362303563646662346438663534663536356434383732313000000000000000000000000000000000000000000000",
        "nonce": "0x203",
        "chainId": "0x66eee"
      },
      "additionalContracts": [],
      "isFixedGasLimit": false
    },
    {
      "hash": "0x57425e206c69ec61409cc57c70f0cb0e31b42ab6166a5884c8b81fa7220570f3",
      "transactionType": "CALL",
      "contractName": "CTMRWAGateway",
      "contractAddress": "0x74972e7ff5561bd902e3ec3ddd5a22653088ca6f",
      "function": "attachRWAX(uint256,uint256,string,string)",
      "arguments": [
        "1",
        "1",
        "168587773",
        "0x7dabce18c66b5c857355a815b6c1e926c701c23f"
      ],
      "transaction": {
        "from": "0xe62ab4d111f968660c6b2188046f9b9ba53c4bae",
        "to": "0x74972e7ff5561bd902e3ec3ddd5a22653088ca6f",
        "gas": "0x3abe7",
        "value": "0x0",
        "input": "0x5cbee36a00000000000000000000000000000000000000000000000000000000000000010000000000000000000000000000000000000000000000000000000000000001000000000000000000000000000000000000000000000000000000000000008000000000000000000000000000000000000000000000000000000000000000c000000000000000000000000000000000000000000000000000000000000000093136383538373737330000000000000000000000000000000000000000000000000000000000000000000000000000000000000000000000000000000000002a30783764616263653138633636623563383537333535613831356236633165393236633730316332336600000000000000000000000000000000000000000000",
        "nonce": "0x204",
        "chainId": "0x66eee"
      },
      "additionalContracts": [],
      "isFixedGasLimit": false
    },
    {
      "hash": "0x45c6f82f65a8782c415087a4bd0f796f34c1f41991518c46db0fd288aba0f1c2",
      "transactionType": "CALL",
      "contractName": "CTMRWAGateway",
      "contractAddress": "0x74972e7ff5561bd902e3ec3ddd5a22653088ca6f",
      "function": "attachStorageManager(uint256,uint256,string,string)",
      "arguments": [
        "1",
        "1",
        "168587773",
        "0x92bb6defef73fa2ee42fec2273d98693571bd7f3"
      ],
      "transaction": {
        "from": "0xe62ab4d111f968660c6b2188046f9b9ba53c4bae",
        "to": "0x74972e7ff5561bd902e3ec3ddd5a22653088ca6f",
        "gas": "0x3adda",
        "value": "0x0",
        "input": "0x6bb884f300000000000000000000000000000000000000000000000000000000000000010000000000000000000000000000000000000000000000000000000000000001000000000000000000000000000000000000000000000000000000000000008000000000000000000000000000000000000000000000000000000000000000c000000000000000000000000000000000000000000000000000000000000000093136383538373737330000000000000000000000000000000000000000000000000000000000000000000000000000000000000000000000000000000000002a30783932626236646566656637336661326565343266656332323733643938363933353731626437663300000000000000000000000000000000000000000000",
        "nonce": "0x205",
        "chainId": "0x66eee"
      },
      "additionalContracts": [],
      "isFixedGasLimit": false
    },
    {
      "hash": "0x60d52ed4628111868dcdc29413c1344330d40f22600b0807491f5720880798ad",
      "transactionType": "CALL",
      "contractName": "CTMRWAGateway",
      "contractAddress": "0x74972e7ff5561bd902e3ec3ddd5a22653088ca6f",
      "function": "addChainContract(string,string)",
      "arguments": [
        "200810",
        "0x2cd9f1d9000d8752cc7653e10f259f7d9a94a5e7"
      ],
      "transaction": {
        "from": "0xe62ab4d111f968660c6b2188046f9b9ba53c4bae",
        "to": "0x74972e7ff5561bd902e3ec3ddd5a22653088ca6f",
        "gas": "0x39cf8",
        "value": "0x0",
        "input": "0x12d3fcfa0000000000000000000000000000000000000000000000000000000000000040000000000000000000000000000000000000000000000000000000000000008000000000000000000000000000000000000000000000000000000000000000063230303831300000000000000000000000000000000000000000000000000000000000000000000000000000000000000000000000000000000000000000002a30783263643966316439303030643837353263633736353365313066323539663764396139346135653700000000000000000000000000000000000000000000",
        "nonce": "0x206",
        "chainId": "0x66eee"
      },
      "additionalContracts": [],
      "isFixedGasLimit": false
    },
    {
      "hash": "0xeb2c3ac373c3242a2b10e7a8c813cb2a829f5c53b742967e8066cf1a7159b06d",
      "transactionType": "CALL",
      "contractName": "CTMRWAGateway",
      "contractAddress": "0x74972e7ff5561bd902e3ec3ddd5a22653088ca6f",
      "function": "attachRWAX(uint256,uint256,string,string)",
      "arguments": [
        "1",
        "1",
        "200810",
        "0xfc2b6634dc49ba4b353540f344050724c932359a"
      ],
      "transaction": {
        "from": "0xe62ab4d111f968660c6b2188046f9b9ba53c4bae",
        "to": "0x74972e7ff5561bd902e3ec3ddd5a22653088ca6f",
        "gas": "0x3a3a0",
        "value": "0x0",
        "input": "0x5cbee36a00000000000000000000000000000000000000000000000000000000000000010000000000000000000000000000000000000000000000000000000000000001000000000000000000000000000000000000000000000000000000000000008000000000000000000000000000000000000000000000000000000000000000c000000000000000000000000000000000000000000000000000000000000000063230303831300000000000000000000000000000000000000000000000000000000000000000000000000000000000000000000000000000000000000000002a30786663326236363334646334396261346233353335343066333434303530373234633933323335396100000000000000000000000000000000000000000000",
        "nonce": "0x207",
        "chainId": "0x66eee"
      },
      "additionalContracts": [],
      "isFixedGasLimit": false
    },
    {
      "hash": "0xf764ec55aadf07e5047907825ea00fa5441b0fc35b16d75347a8e7020c44e7e5",
      "transactionType": "CALL",
      "contractName": "CTMRWAGateway",
      "contractAddress": "0x74972e7ff5561bd902e3ec3ddd5a22653088ca6f",
      "function": "attachStorageManager(uint256,uint256,string,string)",
      "arguments": [
        "1",
        "1",
        "200810",
        "0xeeccd5e6b0c4dca7d06bef132e3be04009eeef65"
      ],
      "transaction": {
        "from": "0xe62ab4d111f968660c6b2188046f9b9ba53c4bae",
        "to": "0x74972e7ff5561bd902e3ec3ddd5a22653088ca6f",
        "gas": "0x3a9a6",
        "value": "0x0",
        "input": "0x6bb884f300000000000000000000000000000000000000000000000000000000000000010000000000000000000000000000000000000000000000000000000000000001000000000000000000000000000000000000000000000000000000000000008000000000000000000000000000000000000000000000000000000000000000c000000000000000000000000000000000000000000000000000000000000000063230303831300000000000000000000000000000000000000000000000000000000000000000000000000000000000000000000000000000000000000000002a30786565636364356536623063346463613764303662656631333265336265303430303965656566363500000000000000000000000000000000000000000000",
        "nonce": "0x208",
        "chainId": "0x66eee"
      },
      "additionalContracts": [],
      "isFixedGasLimit": false
    },
    {
      "hash": "0xc1fdb74076dcace3a2772a72187e0584e349299a5b557e732abc856f1a6ff790",
      "transactionType": "CALL",
      "contractName": "CTMRWAGateway",
      "contractAddress": "0x74972e7ff5561bd902e3ec3ddd5a22653088ca6f",
      "function": "addChainContract(string,string)",
      "arguments": [
        "534351",
        "0xd52966352e5a15dcb05cdfb4d8f54f565d487210"
      ],
      "transaction": {
        "from": "0xe62ab4d111f968660c6b2188046f9b9ba53c4bae",
        "to": "0x74972e7ff5561bd902e3ec3ddd5a22653088ca6f",
        "gas": "0x39c87",
        "value": "0x0",
        "input": "0x12d3fcfa0000000000000000000000000000000000000000000000000000000000000040000000000000000000000000000000000000000000000000000000000000008000000000000000000000000000000000000000000000000000000000000000063533343335310000000000000000000000000000000000000000000000000000000000000000000000000000000000000000000000000000000000000000002a30786435323936363335326535613135646362303563646662346438663534663536356434383732313000000000000000000000000000000000000000000000",
        "nonce": "0x209",
        "chainId": "0x66eee"
      },
      "additionalContracts": [],
      "isFixedGasLimit": false
    },
    {
      "hash": "0xd2bc40e22b455630d8d207f4df061cc9890e6eb9fa9d414bdd5747ef2774b7f5",
      "transactionType": "CALL",
      "contractName": "CTMRWAGateway",
      "contractAddress": "0x74972e7ff5561bd902e3ec3ddd5a22653088ca6f",
      "function": "attachRWAX(uint256,uint256,string,string)",
      "arguments": [
        "1",
        "1",
        "534351",
        "0x7dabce18c66b5c857355a815b6c1e926c701c23f"
      ],
      "transaction": {
        "from": "0xe62ab4d111f968660c6b2188046f9b9ba53c4bae",
        "to": "0x74972e7ff5561bd902e3ec3ddd5a22653088ca6f",
        "gas": "0x3a5fe",
        "value": "0x0",
        "input": "0x5cbee36a00000000000000000000000000000000000000000000000000000000000000010000000000000000000000000000000000000000000000000000000000000001000000000000000000000000000000000000000000000000000000000000008000000000000000000000000000000000000000000000000000000000000000c000000000000000000000000000000000000000000000000000000000000000063533343335310000000000000000000000000000000000000000000000000000000000000000000000000000000000000000000000000000000000000000002a30783764616263653138633636623563383537333535613831356236633165393236633730316332336600000000000000000000000000000000000000000000",
        "nonce": "0x20a",
        "chainId": "0x66eee"
      },
      "additionalContracts": [],
      "isFixedGasLimit": false
    },
    {
      "hash": "0x0451b310cef3cbea121785cb4207afd8dc1e9a3250cc91662ba0cbbc0c882d57",
      "transactionType": "CALL",
      "contractName": "CTMRWAGateway",
      "contractAddress": "0x74972e7ff5561bd902e3ec3ddd5a22653088ca6f",
      "function": "attachStorageManager(uint256,uint256,string,string)",
      "arguments": [
        "1",
        "1",
        "534351",
        "0x92bb6defef73fa2ee42fec2273d98693571bd7f3"
      ],
      "transaction": {
        "from": "0xe62ab4d111f968660c6b2188046f9b9ba53c4bae",
        "to": "0x74972e7ff5561bd902e3ec3ddd5a22653088ca6f",
        "gas": "0x3a7f1",
        "value": "0x0",
        "input": "0x6bb884f300000000000000000000000000000000000000000000000000000000000000010000000000000000000000000000000000000000000000000000000000000001000000000000000000000000000000000000000000000000000000000000008000000000000000000000000000000000000000000000000000000000000000c000000000000000000000000000000000000000000000000000000000000000063533343335310000000000000000000000000000000000000000000000000000000000000000000000000000000000000000000000000000000000000000002a30783932626236646566656637336661326565343266656332323733643938363933353731626437663300000000000000000000000000000000000000000000",
        "nonce": "0x20b",
        "chainId": "0x66eee"
      },
      "additionalContracts": [],
      "isFixedGasLimit": false
    },
    {
      "hash": "0x18e5e70af12add609ee4f58e2e4f5fed23051f9d996f40c35960bd1aa7ec20e0",
      "transactionType": "CALL",
      "contractName": "CTMRWAGateway",
      "contractAddress": "0x74972e7ff5561bd902e3ec3ddd5a22653088ca6f",
      "function": "addChainContract(string,string)",
      "arguments": [
        "5003",
        "0xd52966352e5a15dcb05cdfb4d8f54f565d487210"
      ],
      "transaction": {
        "from": "0xe62ab4d111f968660c6b2188046f9b9ba53c4bae",
        "to": "0x74972e7ff5561bd902e3ec3ddd5a22653088ca6f",
        "gas": "0x39859",
        "value": "0x0",
        "input": "0x12d3fcfa0000000000000000000000000000000000000000000000000000000000000040000000000000000000000000000000000000000000000000000000000000008000000000000000000000000000000000000000000000000000000000000000043530303300000000000000000000000000000000000000000000000000000000000000000000000000000000000000000000000000000000000000000000002a30786435323936363335326535613135646362303563646662346438663534663536356434383732313000000000000000000000000000000000000000000000",
        "nonce": "0x20c",
        "chainId": "0x66eee"
      },
      "additionalContracts": [],
      "isFixedGasLimit": false
    },
    {
      "hash": "0x71a9f6bc1fdeb3a6ea3fc148ff5c6af3ecf9e06f29ef476847ae05b97ab60145",
      "transactionType": "CALL",
      "contractName": "CTMRWAGateway",
      "contractAddress": "0x74972e7ff5561bd902e3ec3ddd5a22653088ca6f",
      "function": "attachRWAX(uint256,uint256,string,string)",
      "arguments": [
        "1",
        "1",
        "5003",
        "0x7dabce18c66b5c857355a815b6c1e926c701c23f"
      ],
      "transaction": {
        "from": "0xe62ab4d111f968660c6b2188046f9b9ba53c4bae",
        "to": "0x74972e7ff5561bd902e3ec3ddd5a22653088ca6f",
        "gas": "0x3a162",
        "value": "0x0",
        "input": "0x5cbee36a00000000000000000000000000000000000000000000000000000000000000010000000000000000000000000000000000000000000000000000000000000001000000000000000000000000000000000000000000000000000000000000008000000000000000000000000000000000000000000000000000000000000000c000000000000000000000000000000000000000000000000000000000000000043530303300000000000000000000000000000000000000000000000000000000000000000000000000000000000000000000000000000000000000000000002a30783764616263653138633636623563383537333535613831356236633165393236633730316332336600000000000000000000000000000000000000000000",
        "nonce": "0x20d",
        "chainId": "0x66eee"
      },
      "additionalContracts": [],
      "isFixedGasLimit": false
    },
    {
      "hash": "0x2e41875925a55dc8e9198c8dcc17342481313e92bef11e2974d6d80675b42fc2",
      "transactionType": "CALL",
      "contractName": "CTMRWAGateway",
      "contractAddress": "0x74972e7ff5561bd902e3ec3ddd5a22653088ca6f",
      "function": "attachStorageManager(uint256,uint256,string,string)",
      "arguments": [
        "1",
        "1",
        "5003",
        "0x92bb6defef73fa2ee42fec2273d98693571bd7f3"
      ],
      "transaction": {
        "from": "0xe62ab4d111f968660c6b2188046f9b9ba53c4bae",
        "to": "0x74972e7ff5561bd902e3ec3ddd5a22653088ca6f",
        "gas": "0x3a38f",
        "value": "0x0",
        "input": "0x6bb884f300000000000000000000000000000000000000000000000000000000000000010000000000000000000000000000000000000000000000000000000000000001000000000000000000000000000000000000000000000000000000000000008000000000000000000000000000000000000000000000000000000000000000c000000000000000000000000000000000000000000000000000000000000000043530303300000000000000000000000000000000000000000000000000000000000000000000000000000000000000000000000000000000000000000000002a30783932626236646566656637336661326565343266656332323733643938363933353731626437663300000000000000000000000000000000000000000000",
        "nonce": "0x20e",
        "chainId": "0x66eee"
      },
      "additionalContracts": [],
      "isFixedGasLimit": false
    },
    {
      "hash": "0x878dba715585db0fb347dab19e83e2cea071340c597c6669c4f81ca8598e336f",
      "transactionType": "CALL",
      "contractName": "CTMRWAGateway",
      "contractAddress": "0x74972e7ff5561bd902e3ec3ddd5a22653088ca6f",
      "function": "addChainContract(string,string)",
      "arguments": [
        "4201",
        "0xe305d37adbe6f7c987108f537dc247f8df5c1f24"
      ],
      "transaction": {
        "from": "0xe62ab4d111f968660c6b2188046f9b9ba53c4bae",
        "to": "0x74972e7ff5561bd902e3ec3ddd5a22653088ca6f",
        "gas": "0x399a8",
        "value": "0x0",
        "input": "0x12d3fcfa0000000000000000000000000000000000000000000000000000000000000040000000000000000000000000000000000000000000000000000000000000008000000000000000000000000000000000000000000000000000000000000000043432303100000000000000000000000000000000000000000000000000000000000000000000000000000000000000000000000000000000000000000000002a30786533303564333761646265366637633938373130386635333764633234376638646635633166323400000000000000000000000000000000000000000000",
        "nonce": "0x20f",
        "chainId": "0x66eee"
      },
      "additionalContracts": [],
      "isFixedGasLimit": false
    },
    {
      "hash": "0x26da2c148ac8fc08a0c8c0b594418ca0b8033adfceb3706e734a335458ca84c6",
      "transactionType": "CALL",
      "contractName": "CTMRWAGateway",
      "contractAddress": "0x74972e7ff5561bd902e3ec3ddd5a22653088ca6f",
      "function": "attachRWAX(uint256,uint256,string,string)",
      "arguments": [
        "1",
        "1",
        "4201",
        "0xcacf2003d4bc2e19c865e65ebb9d57c440217f0f"
      ],
      "transaction": {
        "from": "0xe62ab4d111f968660c6b2188046f9b9ba53c4bae",
        "to": "0x74972e7ff5561bd902e3ec3ddd5a22653088ca6f",
        "gas": "0x3a2ae",
        "value": "0x0",
        "input": "0x5cbee36a00000000000000000000000000000000000000000000000000000000000000010000000000000000000000000000000000000000000000000000000000000001000000000000000000000000000000000000000000000000000000000000008000000000000000000000000000000000000000000000000000000000000000c000000000000000000000000000000000000000000000000000000000000000043432303100000000000000000000000000000000000000000000000000000000000000000000000000000000000000000000000000000000000000000000002a30786361636632303033643462633265313963383635653635656262396435376334343032313766306600000000000000000000000000000000000000000000",
        "nonce": "0x210",
        "chainId": "0x66eee"
      },
      "additionalContracts": [],
      "isFixedGasLimit": false
    },
    {
      "hash": "0xb154bb8c2b4051d5712da2c7f678cc884e6f66d6519d12a4dfdd53637a68f696",
      "transactionType": "CALL",
      "contractName": "CTMRWAGateway",
      "contractAddress": "0x74972e7ff5561bd902e3ec3ddd5a22653088ca6f",
      "function": "attachStorageManager(uint256,uint256,string,string)",
      "arguments": [
        "1",
        "1",
        "4201",
        "0xad2e580c931861360c998db3f0b090a5391da58e"
      ],
      "transaction": {
        "from": "0xe62ab4d111f968660c6b2188046f9b9ba53c4bae",
        "to": "0x74972e7ff5561bd902e3ec3ddd5a22653088ca6f",
        "gas": "0x3a0de",
        "value": "0x0",
        "input": "0x6bb884f300000000000000000000000000000000000000000000000000000000000000010000000000000000000000000000000000000000000000000000000000000001000000000000000000000000000000000000000000000000000000000000008000000000000000000000000000000000000000000000000000000000000000c000000000000000000000000000000000000000000000000000000000000000043432303100000000000000000000000000000000000000000000000000000000000000000000000000000000000000000000000000000000000000000000002a30786164326535383063393331383631333630633939386462336630623039306135333931646135386500000000000000000000000000000000000000000000",
        "nonce": "0x211",
        "chainId": "0x66eee"
      },
      "additionalContracts": [],
      "isFixedGasLimit": false
    },
    {
      "hash": "0x6e1290d500dcbc618abfc785ed7b36cd1c8b0d5b7fb7940824f0e47315a9853e",
      "transactionType": "CALL",
      "contractName": "CTMRWAGateway",
      "contractAddress": "0x74972e7ff5561bd902e3ec3ddd5a22653088ca6f",
      "function": "addChainContract(string,string)",
      "arguments": [
        "80084",
        "0xd52966352e5a15dcb05cdfb4d8f54f565d487210"
      ],
      "transaction": {
        "from": "0xe62ab4d111f968660c6b2188046f9b9ba53c4bae",
        "to": "0x74972e7ff5561bd902e3ec3ddd5a22653088ca6f",
        "gas": "0x39ac8",
        "value": "0x0",
        "input": "0x12d3fcfa0000000000000000000000000000000000000000000000000000000000000040000000000000000000000000000000000000000000000000000000000000008000000000000000000000000000000000000000000000000000000000000000053830303834000000000000000000000000000000000000000000000000000000000000000000000000000000000000000000000000000000000000000000002a30786435323936363335326535613135646362303563646662346438663534663536356434383732313000000000000000000000000000000000000000000000",
        "nonce": "0x212",
        "chainId": "0x66eee"
      },
      "additionalContracts": [],
      "isFixedGasLimit": false
    },
    {
      "hash": "0x9666601b1c5a71ac37de152b57cef367118b05279655551fe1c1550d4d6e7cd8",
      "transactionType": "CALL",
      "contractName": "CTMRWAGateway",
      "contractAddress": "0x74972e7ff5561bd902e3ec3ddd5a22653088ca6f",
      "function": "attachRWAX(uint256,uint256,string,string)",
      "arguments": [
        "1",
        "1",
        "80084",
        "0x7dabce18c66b5c857355a815b6c1e926c701c23f"
      ],
      "transaction": {
        "from": "0xe62ab4d111f968660c6b2188046f9b9ba53c4bae",
        "to": "0x74972e7ff5561bd902e3ec3ddd5a22653088ca6f",
        "gas": "0x3a406",
        "value": "0x0",
        "input": "0x5cbee36a00000000000000000000000000000000000000000000000000000000000000010000000000000000000000000000000000000000000000000000000000000001000000000000000000000000000000000000000000000000000000000000008000000000000000000000000000000000000000000000000000000000000000c000000000000000000000000000000000000000000000000000000000000000053830303834000000000000000000000000000000000000000000000000000000000000000000000000000000000000000000000000000000000000000000002a30783764616263653138633636623563383537333535613831356236633165393236633730316332336600000000000000000000000000000000000000000000",
        "nonce": "0x213",
        "chainId": "0x66eee"
      },
      "additionalContracts": [],
      "isFixedGasLimit": false
    },
    {
      "hash": "0xb15ae44bf586f5c09bda0dd008e3aadd1ad0990f3bc390476f3457df2baa8ce3",
      "transactionType": "CALL",
      "contractName": "CTMRWAGateway",
      "contractAddress": "0x74972e7ff5561bd902e3ec3ddd5a22653088ca6f",
      "function": "attachStorageManager(uint256,uint256,string,string)",
      "arguments": [
        "1",
        "1",
        "80084",
        "0x92bb6defef73fa2ee42fec2273d98693571bd7f3"
      ],
      "transaction": {
        "from": "0xe62ab4d111f968660c6b2188046f9b9ba53c4bae",
        "to": "0x74972e7ff5561bd902e3ec3ddd5a22653088ca6f",
        "gas": "0x3a5f9",
        "value": "0x0",
        "input": "0x6bb884f300000000000000000000000000000000000000000000000000000000000000010000000000000000000000000000000000000000000000000000000000000001000000000000000000000000000000000000000000000000000000000000008000000000000000000000000000000000000000000000000000000000000000c000000000000000000000000000000000000000000000000000000000000000053830303834000000000000000000000000000000000000000000000000000000000000000000000000000000000000000000000000000000000000000000002a30783932626236646566656637336661326565343266656332323733643938363933353731626437663300000000000000000000000000000000000000000000",
        "nonce": "0x214",
        "chainId": "0x66eee"
      },
      "additionalContracts": [],
      "isFixedGasLimit": false
    },
    {
      "hash": "0x4108e12e6048569ab16e4ccc8ef18f1e60833471b75a34ba78d749e958a59348",
      "transactionType": "CALL",
      "contractName": "CTMRWAGateway",
      "contractAddress": "0x74972e7ff5561bd902e3ec3ddd5a22653088ca6f",
      "function": "addChainContract(string,string)",
      "arguments": [
        "1952959480",
        "0xd52966352e5a15dcb05cdfb4d8f54f565d487210"
      ],
      "transaction": {
        "from": "0xe62ab4d111f968660c6b2188046f9b9ba53c4bae",
        "to": "0x74972e7ff5561bd902e3ec3ddd5a22653088ca6f",
        "gas": "0x3a4db",
        "value": "0x0",
        "input": "0x12d3fcfa00000000000000000000000000000000000000000000000000000000000000400000000000000000000000000000000000000000000000000000000000000080000000000000000000000000000000000000000000000000000000000000000a3139353239353934383000000000000000000000000000000000000000000000000000000000000000000000000000000000000000000000000000000000002a30786435323936363335326535613135646362303563646662346438663534663536356434383732313000000000000000000000000000000000000000000000",
        "nonce": "0x215",
        "chainId": "0x66eee"
      },
      "additionalContracts": [],
      "isFixedGasLimit": false
    },
    {
      "hash": "0x7db3c329c8c47296d7f64a80137275db868d9b31e08ea230d4027bbe5426db2c",
      "transactionType": "CALL",
      "contractName": "CTMRWAGateway",
      "contractAddress": "0x74972e7ff5561bd902e3ec3ddd5a22653088ca6f",
      "function": "attachRWAX(uint256,uint256,string,string)",
      "arguments": [
        "1",
        "1",
        "1952959480",
        "0x7dabce18c66b5c857355a815b6c1e926c701c23f"
      ],
      "transaction": {
        "from": "0xe62ab4d111f968660c6b2188046f9b9ba53c4bae",
        "to": "0x74972e7ff5561bd902e3ec3ddd5a22653088ca6f",
        "gas": "0x3ae90",
        "value": "0x0",
        "input": "0x5cbee36a00000000000000000000000000000000000000000000000000000000000000010000000000000000000000000000000000000000000000000000000000000001000000000000000000000000000000000000000000000000000000000000008000000000000000000000000000000000000000000000000000000000000000c0000000000000000000000000000000000000000000000000000000000000000a3139353239353934383000000000000000000000000000000000000000000000000000000000000000000000000000000000000000000000000000000000002a30783764616263653138633636623563383537333535613831356236633165393236633730316332336600000000000000000000000000000000000000000000",
        "nonce": "0x216",
        "chainId": "0x66eee"
      },
      "additionalContracts": [],
      "isFixedGasLimit": false
    },
    {
      "hash": "0xb884c2a52367c9a55c2a0c6af53278e1d95d58cd62c9d3ccb3085f153d365e37",
      "transactionType": "CALL",
      "contractName": "CTMRWAGateway",
      "contractAddress": "0x74972e7ff5561bd902e3ec3ddd5a22653088ca6f",
      "function": "attachStorageManager(uint256,uint256,string,string)",
      "arguments": [
        "1",
        "1",
        "1952959480",
        "0x92bb6defef73fa2ee42fec2273d98693571bd7f3"
      ],
      "transaction": {
        "from": "0xe62ab4d111f968660c6b2188046f9b9ba53c4bae",
        "to": "0x74972e7ff5561bd902e3ec3ddd5a22653088ca6f",
        "gas": "0x3b00d",
        "value": "0x0",
        "input": "0x6bb884f300000000000000000000000000000000000000000000000000000000000000010000000000000000000000000000000000000000000000000000000000000001000000000000000000000000000000000000000000000000000000000000008000000000000000000000000000000000000000000000000000000000000000c0000000000000000000000000000000000000000000000000000000000000000a3139353239353934383000000000000000000000000000000000000000000000000000000000000000000000000000000000000000000000000000000000002a30783932626236646566656637336661326565343266656332323733643938363933353731626437663300000000000000000000000000000000000000000000",
        "nonce": "0x217",
        "chainId": "0x66eee"
      },
      "additionalContracts": [],
      "isFixedGasLimit": false
    },
    {
      "hash": "0xd9f1e7c645604257edd4daaaa0e87da64526fe7a11b7bf02dabe38020375b1d1",
      "transactionType": "CALL",
      "contractName": "CTMRWAGateway",
      "contractAddress": "0x74972e7ff5561bd902e3ec3ddd5a22653088ca6f",
      "function": "addChainContract(string,string)",
      "arguments": [
        "161221135",
        "0xd52966352e5a15dcb05cdfb4d8f54f565d487210"
      ],
      "transaction": {
        "from": "0xe62ab4d111f968660c6b2188046f9b9ba53c4bae",
        "to": "0x74972e7ff5561bd902e3ec3ddd5a22653088ca6f",
        "gas": "0x3a2e1",
        "value": "0x0",
        "input": "0x12d3fcfa0000000000000000000000000000000000000000000000000000000000000040000000000000000000000000000000000000000000000000000000000000008000000000000000000000000000000000000000000000000000000000000000093136313232313133350000000000000000000000000000000000000000000000000000000000000000000000000000000000000000000000000000000000002a30786435323936363335326535613135646362303563646662346438663534663536356434383732313000000000000000000000000000000000000000000000",
        "nonce": "0x218",
        "chainId": "0x66eee"
      },
      "additionalContracts": [],
      "isFixedGasLimit": false
    },
    {
      "hash": "0x43f0e7aa2a8400be0496e0ed42f3a791e8e3ed8a79d92628720f115c89f6eaa6",
      "transactionType": "CALL",
      "contractName": "CTMRWAGateway",
      "contractAddress": "0x74972e7ff5561bd902e3ec3ddd5a22653088ca6f",
      "function": "attachRWAX(uint256,uint256,string,string)",
      "arguments": [
        "1",
        "1",
        "161221135",
        "0x7dabce18c66b5c857355a815b6c1e926c701c23f"
      ],
      "transaction": {
        "from": "0xe62ab4d111f968660c6b2188046f9b9ba53c4bae",
        "to": "0x74972e7ff5561bd902e3ec3ddd5a22653088ca6f",
        "gas": "0x3ac22",
        "value": "0x0",
        "input": "0x5cbee36a00000000000000000000000000000000000000000000000000000000000000010000000000000000000000000000000000000000000000000000000000000001000000000000000000000000000000000000000000000000000000000000008000000000000000000000000000000000000000000000000000000000000000c000000000000000000000000000000000000000000000000000000000000000093136313232313133350000000000000000000000000000000000000000000000000000000000000000000000000000000000000000000000000000000000002a30783764616263653138633636623563383537333535613831356236633165393236633730316332336600000000000000000000000000000000000000000000",
        "nonce": "0x219",
        "chainId": "0x66eee"
      },
      "additionalContracts": [],
      "isFixedGasLimit": false
    },
    {
      "hash": "0xad6b50ba91f26e0ba6a7eb88e990c999d54be75ff8a69c48d8d7d761020bf1ee",
      "transactionType": "CALL",
      "contractName": "CTMRWAGateway",
      "contractAddress": "0x74972e7ff5561bd902e3ec3ddd5a22653088ca6f",
      "function": "attachStorageManager(uint256,uint256,string,string)",
      "arguments": [
        "1",
        "1",
        "161221135",
        "0x92bb6defef73fa2ee42fec2273d98693571bd7f3"
      ],
      "transaction": {
        "from": "0xe62ab4d111f968660c6b2188046f9b9ba53c4bae",
        "to": "0x74972e7ff5561bd902e3ec3ddd5a22653088ca6f",
        "gas": "0x3adda",
        "value": "0x0",
        "input": "0x6bb884f300000000000000000000000000000000000000000000000000000000000000010000000000000000000000000000000000000000000000000000000000000001000000000000000000000000000000000000000000000000000000000000008000000000000000000000000000000000000000000000000000000000000000c000000000000000000000000000000000000000000000000000000000000000093136313232313133350000000000000000000000000000000000000000000000000000000000000000000000000000000000000000000000000000000000002a30783932626236646566656637336661326565343266656332323733643938363933353731626437663300000000000000000000000000000000000000000000",
        "nonce": "0x21a",
        "chainId": "0x66eee"
      },
      "additionalContracts": [],
      "isFixedGasLimit": false
    },
    {
      "hash": "0xca6dbba1ff57fdc3f4a269b84b055c96033fab572008c8e840a8f4e4d1df0dd8",
      "transactionType": "CALL",
      "contractName": "CTMRWAGateway",
      "contractAddress": "0x74972e7ff5561bd902e3ec3ddd5a22653088ca6f",
      "function": "addChainContract(string,string)",
      "arguments": [
        "78600",
        "0xd52966352e5a15dcb05cdfb4d8f54f565d487210"
      ],
      "transaction": {
        "from": "0xe62ab4d111f968660c6b2188046f9b9ba53c4bae",
        "to": "0x74972e7ff5561bd902e3ec3ddd5a22653088ca6f",
        "gas": "0x39a8e",
        "value": "0x0",
        "input": "0x12d3fcfa0000000000000000000000000000000000000000000000000000000000000040000000000000000000000000000000000000000000000000000000000000008000000000000000000000000000000000000000000000000000000000000000053738363030000000000000000000000000000000000000000000000000000000000000000000000000000000000000000000000000000000000000000000002a30786435323936363335326535613135646362303563646662346438663534663536356434383732313000000000000000000000000000000000000000000000",
        "nonce": "0x21b",
        "chainId": "0x66eee"
      },
      "additionalContracts": [],
      "isFixedGasLimit": false
    },
    {
      "hash": "0xa5320d307975519ca988f4d3792365da64e144e54b15a44d28566e32db65de9c",
      "transactionType": "CALL",
      "contractName": "CTMRWAGateway",
      "contractAddress": "0x74972e7ff5561bd902e3ec3ddd5a22653088ca6f",
      "function": "attachRWAX(uint256,uint256,string,string)",
      "arguments": [
        "1",
        "1",
        "78600",
        "0x7dabce18c66b5c857355a815b6c1e926c701c23f"
      ],
      "transaction": {
        "from": "0xe62ab4d111f968660c6b2188046f9b9ba53c4bae",
        "to": "0x74972e7ff5561bd902e3ec3ddd5a22653088ca6f",
        "gas": "0x3a3ce",
        "value": "0x0",
        "input": "0x5cbee36a00000000000000000000000000000000000000000000000000000000000000010000000000000000000000000000000000000000000000000000000000000001000000000000000000000000000000000000000000000000000000000000008000000000000000000000000000000000000000000000000000000000000000c000000000000000000000000000000000000000000000000000000000000000053738363030000000000000000000000000000000000000000000000000000000000000000000000000000000000000000000000000000000000000000000002a30783764616263653138633636623563383537333535613831356236633165393236633730316332336600000000000000000000000000000000000000000000",
        "nonce": "0x21c",
        "chainId": "0x66eee"
      },
      "additionalContracts": [],
      "isFixedGasLimit": false
    },
    {
      "hash": "0x12dd2d0be5aafacf14aaac43d380f03f9410dfb94005cd665f99ec12252cdeb6",
      "transactionType": "CALL",
      "contractName": "CTMRWAGateway",
      "contractAddress": "0x74972e7ff5561bd902e3ec3ddd5a22653088ca6f",
      "function": "attachStorageManager(uint256,uint256,string,string)",
      "arguments": [
        "1",
        "1",
        "78600",
        "0x92bb6defef73fa2ee42fec2273d98693571bd7f3"
      ],
      "transaction": {
        "from": "0xe62ab4d111f968660c6b2188046f9b9ba53c4bae",
        "to": "0x74972e7ff5561bd902e3ec3ddd5a22653088ca6f",
        "gas": "0x3a5f9",
        "value": "0x0",
        "input": "0x6bb884f300000000000000000000000000000000000000000000000000000000000000010000000000000000000000000000000000000000000000000000000000000001000000000000000000000000000000000000000000000000000000000000008000000000000000000000000000000000000000000000000000000000000000c000000000000000000000000000000000000000000000000000000000000000053738363030000000000000000000000000000000000000000000000000000000000000000000000000000000000000000000000000000000000000000000002a30783932626236646566656637336661326565343266656332323733643938363933353731626437663300000000000000000000000000000000000000000000",
        "nonce": "0x21d",
        "chainId": "0x66eee"
      },
      "additionalContracts": [],
      "isFixedGasLimit": false
    },
    {
      "hash": "0x7a3904d7fe0cabaeb8a69ecc2cadab46d559ca4166446d43ffef5d56979bf903",
      "transactionType": "CALL",
      "contractName": "CTMRWAGateway",
      "contractAddress": "0x74972e7ff5561bd902e3ec3ddd5a22653088ca6f",
      "function": "addChainContract(string,string)",
      "arguments": [
        "1918988905",
        "0x63e754dabf952456427b9958682d58aa07f85982"
      ],
      "transaction": {
        "from": "0xe62ab4d111f968660c6b2188046f9b9ba53c4bae",
        "to": "0x74972e7ff5561bd902e3ec3ddd5a22653088ca6f",
        "gas": "0x3a2b4",
        "value": "0x0",
        "input": "0x12d3fcfa00000000000000000000000000000000000000000000000000000000000000400000000000000000000000000000000000000000000000000000000000000080000000000000000000000000000000000000000000000000000000000000000a3139313839383839303500000000000000000000000000000000000000000000000000000000000000000000000000000000000000000000000000000000002a30783633653735346461626639353234353634323762393935383638326435386161303766383539383200000000000000000000000000000000000000000000",
        "nonce": "0x21e",
        "chainId": "0x66eee"
      },
      "additionalContracts": [],
      "isFixedGasLimit": false
    },
    {
      "hash": "0x1ad0470770bb519bb84f84862d004d4fadfb6b94511b9d171ffb2d7895b009d7",
      "transactionType": "CALL",
      "contractName": "CTMRWAGateway",
      "contractAddress": "0x74972e7ff5561bd902e3ec3ddd5a22653088ca6f",
      "function": "attachRWAX(uint256,uint256,string,string)",
      "arguments": [
        "1",
        "1",
        "1918988905",
        "0xb9676266295363bc85a31305b479baddf4516033"
      ],
      "transaction": {
        "from": "0xe62ab4d111f968660c6b2188046f9b9ba53c4bae",
        "to": "0x74972e7ff5561bd902e3ec3ddd5a22653088ca6f",
        "gas": "0x3aba6",
        "value": "0x0",
        "input": "0x5cbee36a00000000000000000000000000000000000000000000000000000000000000010000000000000000000000000000000000000000000000000000000000000001000000000000000000000000000000000000000000000000000000000000008000000000000000000000000000000000000000000000000000000000000000c0000000000000000000000000000000000000000000000000000000000000000a3139313839383839303500000000000000000000000000000000000000000000000000000000000000000000000000000000000000000000000000000000002a30786239363736323636323935333633626338356133313330356234373962616464663435313630333300000000000000000000000000000000000000000000",
        "nonce": "0x21f",
        "chainId": "0x66eee"
      },
      "additionalContracts": [],
      "isFixedGasLimit": false
    },
    {
      "hash": "0xda9c070ba97129c2a9b1022c6f93f2c1ec9196ffb4c03550e0cee8f5fe9f394f",
      "transactionType": "CALL",
      "contractName": "CTMRWAGateway",
      "contractAddress": "0x74972e7ff5561bd902e3ec3ddd5a22653088ca6f",
      "function": "attachStorageManager(uint256,uint256,string,string)",
      "arguments": [
        "1",
        "1",
        "1918988905",
        "0x272d46ca49c87ab9e4cbd919cf35a32527d544db"
      ],
      "transaction": {
        "from": "0xe62ab4d111f968660c6b2188046f9b9ba53c4bae",
        "to": "0x74972e7ff5561bd902e3ec3ddd5a22653088ca6f",
        "gas": "0x3aefa",
        "value": "0x0",
        "input": "0x6bb884f300000000000000000000000000000000000000000000000000000000000000010000000000000000000000000000000000000000000000000000000000000001000000000000000000000000000000000000000000000000000000000000008000000000000000000000000000000000000000000000000000000000000000c0000000000000000000000000000000000000000000000000000000000000000a3139313839383839303500000000000000000000000000000000000000000000000000000000000000000000000000000000000000000000000000000000002a30783237326434366361343963383761623965346362643931396366333561333235323764353434646200000000000000000000000000000000000000000000",
        "nonce": "0x220",
        "chainId": "0x66eee"
      },
      "additionalContracts": [],
      "isFixedGasLimit": false
    },
    {
      "hash": "0x3fb13bc3109034dd4807126ae8f9399b2e98df5c4fb9955cf9b5fe494b536a04",
      "transactionType": "CALL",
      "contractName": "CTMRWAGateway",
      "contractAddress": "0x74972e7ff5561bd902e3ec3ddd5a22653088ca6f",
      "function": "addChainContract(string,string)",
      "arguments": [
        "2484",
        "0xd52966352e5a15dcb05cdfb4d8f54f565d487210"
      ],
      "transaction": {
        "from": "0xe62ab4d111f968660c6b2188046f9b9ba53c4bae",
        "to": "0x74972e7ff5561bd902e3ec3ddd5a22653088ca6f",
        "gas": "0x39896",
        "value": "0x0",
        "input": "0x12d3fcfa0000000000000000000000000000000000000000000000000000000000000040000000000000000000000000000000000000000000000000000000000000008000000000000000000000000000000000000000000000000000000000000000043234383400000000000000000000000000000000000000000000000000000000000000000000000000000000000000000000000000000000000000000000002a30786435323936363335326535613135646362303563646662346438663534663536356434383732313000000000000000000000000000000000000000000000",
        "nonce": "0x221",
        "chainId": "0x66eee"
      },
      "additionalContracts": [],
      "isFixedGasLimit": false
    },
    {
      "hash": "0x70eef8733ef3299fdbeb93f766db83613ceec8aebfb40ae7dda798ce0e378d01",
      "transactionType": "CALL",
      "contractName": "CTMRWAGateway",
      "contractAddress": "0x74972e7ff5561bd902e3ec3ddd5a22653088ca6f",
      "function": "attachRWAX(uint256,uint256,string,string)",
      "arguments": [
        "1",
        "1",
        "2484",
        "0x7dabce18c66b5c857355a815b6c1e926c701c23f"
      ],
      "transaction": {
        "from": "0xe62ab4d111f968660c6b2188046f9b9ba53c4bae",
        "to": "0x74972e7ff5561bd902e3ec3ddd5a22653088ca6f",
        "gas": "0x3a19b",
        "value": "0x0",
        "input": "0x5cbee36a00000000000000000000000000000000000000000000000000000000000000010000000000000000000000000000000000000000000000000000000000000001000000000000000000000000000000000000000000000000000000000000008000000000000000000000000000000000000000000000000000000000000000c000000000000000000000000000000000000000000000000000000000000000043234383400000000000000000000000000000000000000000000000000000000000000000000000000000000000000000000000000000000000000000000002a30783764616263653138633636623563383537333535613831356236633165393236633730316332336600000000000000000000000000000000000000000000",
        "nonce": "0x222",
        "chainId": "0x66eee"
      },
      "additionalContracts": [],
      "isFixedGasLimit": false
    },
    {
      "hash": "0x23eee7cef8d2419274598700b72cb66c27709c96c78d5db4e2d73b2223f2f31d",
      "transactionType": "CALL",
      "contractName": "CTMRWAGateway",
      "contractAddress": "0x74972e7ff5561bd902e3ec3ddd5a22653088ca6f",
      "function": "attachStorageManager(uint256,uint256,string,string)",
      "arguments": [
        "1",
        "1",
        "2484",
        "0x92bb6defef73fa2ee42fec2273d98693571bd7f3"
      ],
      "transaction": {
        "from": "0xe62ab4d111f968660c6b2188046f9b9ba53c4bae",
        "to": "0x74972e7ff5561bd902e3ec3ddd5a22653088ca6f",
        "gas": "0x3a38f",
        "value": "0x0",
        "input": "0x6bb884f300000000000000000000000000000000000000000000000000000000000000010000000000000000000000000000000000000000000000000000000000000001000000000000000000000000000000000000000000000000000000000000008000000000000000000000000000000000000000000000000000000000000000c000000000000000000000000000000000000000000000000000000000000000043234383400000000000000000000000000000000000000000000000000000000000000000000000000000000000000000000000000000000000000000000002a30783932626236646566656637336661326565343266656332323733643938363933353731626437663300000000000000000000000000000000000000000000",
        "nonce": "0x223",
        "chainId": "0x66eee"
      },
      "additionalContracts": [],
      "isFixedGasLimit": false
    },
    {
      "hash": "0xff8c403758493db3cebeb96cecf3bc4f751fc670e6eadaed3c1acbd84a3e009c",
      "transactionType": "CALL",
      "contractName": "CTMRWAGateway",
      "contractAddress": "0x74972e7ff5561bd902e3ec3ddd5a22653088ca6f",
      "function": "addChainContract(string,string)",
      "arguments": [
        "1946",
        "0xd52966352e5a15dcb05cdfb4d8f54f565d487210"
      ],
      "transaction": {
        "from": "0xe62ab4d111f968660c6b2188046f9b9ba53c4bae",
        "to": "0x74972e7ff5561bd902e3ec3ddd5a22653088ca6f",
        "gas": "0x39896",
        "value": "0x0",
        "input": "0x12d3fcfa0000000000000000000000000000000000000000000000000000000000000040000000000000000000000000000000000000000000000000000000000000008000000000000000000000000000000000000000000000000000000000000000043139343600000000000000000000000000000000000000000000000000000000000000000000000000000000000000000000000000000000000000000000002a30786435323936363335326535613135646362303563646662346438663534663536356434383732313000000000000000000000000000000000000000000000",
        "nonce": "0x224",
        "chainId": "0x66eee"
      },
      "additionalContracts": [],
      "isFixedGasLimit": false
    },
    {
      "hash": "0x235422fc2b08ed9eabb7aa60ad0bdd27e29737a33fcd7e70137a1f4daf96dbf4",
      "transactionType": "CALL",
      "contractName": "CTMRWAGateway",
      "contractAddress": "0x74972e7ff5561bd902e3ec3ddd5a22653088ca6f",
      "function": "attachRWAX(uint256,uint256,string,string)",
      "arguments": [
        "1",
        "1",
        "1946",
        "0x7dabce18c66b5c857355a815b6c1e926c701c23f"
      ],
      "transaction": {
        "from": "0xe62ab4d111f968660c6b2188046f9b9ba53c4bae",
        "to": "0x74972e7ff5561bd902e3ec3ddd5a22653088ca6f",
        "gas": "0x3a19b",
        "value": "0x0",
        "input": "0x5cbee36a00000000000000000000000000000000000000000000000000000000000000010000000000000000000000000000000000000000000000000000000000000001000000000000000000000000000000000000000000000000000000000000008000000000000000000000000000000000000000000000000000000000000000c000000000000000000000000000000000000000000000000000000000000000043139343600000000000000000000000000000000000000000000000000000000000000000000000000000000000000000000000000000000000000000000002a30783764616263653138633636623563383537333535613831356236633165393236633730316332336600000000000000000000000000000000000000000000",
        "nonce": "0x225",
        "chainId": "0x66eee"
      },
      "additionalContracts": [],
      "isFixedGasLimit": false
    },
    {
      "hash": "0xb1d690826469485881c184754f0042f5be8eab07247420fbca77d0e1ae57e905",
      "transactionType": "CALL",
      "contractName": "CTMRWAGateway",
      "contractAddress": "0x74972e7ff5561bd902e3ec3ddd5a22653088ca6f",
      "function": "attachStorageManager(uint256,uint256,string,string)",
      "arguments": [
        "1",
        "1",
        "1946",
        "0x92bb6defef73fa2ee42fec2273d98693571bd7f3"
      ],
      "transaction": {
        "from": "0xe62ab4d111f968660c6b2188046f9b9ba53c4bae",
        "to": "0x74972e7ff5561bd902e3ec3ddd5a22653088ca6f",
        "gas": "0x3a38f",
        "value": "0x0",
        "input": "0x6bb884f300000000000000000000000000000000000000000000000000000000000000010000000000000000000000000000000000000000000000000000000000000001000000000000000000000000000000000000000000000000000000000000008000000000000000000000000000000000000000000000000000000000000000c000000000000000000000000000000000000000000000000000000000000000043139343600000000000000000000000000000000000000000000000000000000000000000000000000000000000000000000000000000000000000000000002a30783932626236646566656637336661326565343266656332323733643938363933353731626437663300000000000000000000000000000000000000000000",
        "nonce": "0x226",
        "chainId": "0x66eee"
      },
      "additionalContracts": [],
      "isFixedGasLimit": false
    },
    {
      "hash": "0x909b6f985dc8df4fcd0000ccdfdfb181a6a614e7aed7de805c711afac8a5c002",
      "transactionType": "CALL",
      "contractName": "CTMRWAGateway",
      "contractAddress": "0x74972e7ff5561bd902e3ec3ddd5a22653088ca6f",
      "function": "addChainContract(string,string)",
      "arguments": [
        "5611",
        "0xd52966352e5a15dcb05cdfb4d8f54f565d487210"
      ],
      "transaction": {
        "from": "0xe62ab4d111f968660c6b2188046f9b9ba53c4bae",
        "to": "0x74972e7ff5561bd902e3ec3ddd5a22653088ca6f",
        "gas": "0x39896",
        "value": "0x0",
        "input": "0x12d3fcfa0000000000000000000000000000000000000000000000000000000000000040000000000000000000000000000000000000000000000000000000000000008000000000000000000000000000000000000000000000000000000000000000043536313100000000000000000000000000000000000000000000000000000000000000000000000000000000000000000000000000000000000000000000002a30786435323936363335326535613135646362303563646662346438663534663536356434383732313000000000000000000000000000000000000000000000",
        "nonce": "0x227",
        "chainId": "0x66eee"
      },
      "additionalContracts": [],
      "isFixedGasLimit": false
    },
    {
      "hash": "0x6390ad8af712d75dc00f080c23cc6ab5f001b67d45bdac5a2b7bb3665ecba31e",
      "transactionType": "CALL",
      "contractName": "CTMRWAGateway",
      "contractAddress": "0x74972e7ff5561bd902e3ec3ddd5a22653088ca6f",
      "function": "attachRWAX(uint256,uint256,string,string)",
      "arguments": [
        "1",
        "1",
        "5611",
        "0x7dabce18c66b5c857355a815b6c1e926c701c23f"
      ],
      "transaction": {
        "from": "0xe62ab4d111f968660c6b2188046f9b9ba53c4bae",
        "to": "0x74972e7ff5561bd902e3ec3ddd5a22653088ca6f",
        "gas": "0x3a162",
        "value": "0x0",
        "input": "0x5cbee36a00000000000000000000000000000000000000000000000000000000000000010000000000000000000000000000000000000000000000000000000000000001000000000000000000000000000000000000000000000000000000000000008000000000000000000000000000000000000000000000000000000000000000c000000000000000000000000000000000000000000000000000000000000000043536313100000000000000000000000000000000000000000000000000000000000000000000000000000000000000000000000000000000000000000000002a30783764616263653138633636623563383537333535613831356236633165393236633730316332336600000000000000000000000000000000000000000000",
        "nonce": "0x228",
        "chainId": "0x66eee"
      },
      "additionalContracts": [],
      "isFixedGasLimit": false
    },
    {
      "hash": "0x9cf1867b93176f6b628019a655f7e669c3bb2c8b9083a19ee575e1de59ab43c5",
      "transactionType": "CALL",
      "contractName": "CTMRWAGateway",
      "contractAddress": "0x74972e7ff5561bd902e3ec3ddd5a22653088ca6f",
      "function": "attachStorageManager(uint256,uint256,string,string)",
      "arguments": [
        "1",
        "1",
        "5611",
        "0x92bb6defef73fa2ee42fec2273d98693571bd7f3"
      ],
      "transaction": {
        "from": "0xe62ab4d111f968660c6b2188046f9b9ba53c4bae",
        "to": "0x74972e7ff5561bd902e3ec3ddd5a22653088ca6f",
        "gas": "0x3a38f",
        "value": "0x0",
        "input": "0x6bb884f300000000000000000000000000000000000000000000000000000000000000010000000000000000000000000000000000000000000000000000000000000001000000000000000000000000000000000000000000000000000000000000008000000000000000000000000000000000000000000000000000000000000000c000000000000000000000000000000000000000000000000000000000000000043536313100000000000000000000000000000000000000000000000000000000000000000000000000000000000000000000000000000000000000000000002a30783932626236646566656637336661326565343266656332323733643938363933353731626437663300000000000000000000000000000000000000000000",
        "nonce": "0x229",
        "chainId": "0x66eee"
      },
      "additionalContracts": [],
      "isFixedGasLimit": false
    },
    {
      "hash": "0x1659390c313ce43c3035d86b584b4643012010042cb7634d21705916513fc25c",
      "transactionType": "CALL",
      "contractName": "CTMRWAGateway",
      "contractAddress": "0x74972e7ff5561bd902e3ec3ddd5a22653088ca6f",
      "function": "addChainContract(string,string)",
      "arguments": [
        "64165",
        "0xeadb6779c7284a7ef6f611f4535e60c3d59b321b"
      ],
      "transaction": {
        "from": "0xe62ab4d111f968660c6b2188046f9b9ba53c4bae",
        "to": "0x74972e7ff5561bd902e3ec3ddd5a22653088ca6f",
        "gas": "0x39b89",
        "value": "0x0",
        "input": "0x12d3fcfa0000000000000000000000000000000000000000000000000000000000000040000000000000000000000000000000000000000000000000000000000000008000000000000000000000000000000000000000000000000000000000000000053634313635000000000000000000000000000000000000000000000000000000000000000000000000000000000000000000000000000000000000000000002a30786561646236373739633732383461376566366636313166343533356536306333643539623332316200000000000000000000000000000000000000000000",
        "nonce": "0x22a",
        "chainId": "0x66eee"
      },
      "additionalContracts": [],
      "isFixedGasLimit": false
    },
    {
      "hash": "0xa2d643ba5ecde2d31f828beced08c13eae08c5f3fcd8d24354b3c33c3f62b678",
      "transactionType": "CALL",
      "contractName": "CTMRWAGateway",
      "contractAddress": "0x74972e7ff5561bd902e3ec3ddd5a22653088ca6f",
      "function": "attachRWAX(uint256,uint256,string,string)",
      "arguments": [
        "1",
        "1",
        "64165",
        "0x232c61b3d1a03cc57e976cccd0f9c9cd33a98fe0"
      ],
      "transaction": {
        "from": "0xe62ab4d111f968660c6b2188046f9b9ba53c4bae",
        "to": "0x74972e7ff5561bd902e3ec3ddd5a22653088ca6f",
        "gas": "0x3a56a",
        "value": "0x0",
        "input": "0x5cbee36a00000000000000000000000000000000000000000000000000000000000000010000000000000000000000000000000000000000000000000000000000000001000000000000000000000000000000000000000000000000000000000000008000000000000000000000000000000000000000000000000000000000000000c000000000000000000000000000000000000000000000000000000000000000053634313635000000000000000000000000000000000000000000000000000000000000000000000000000000000000000000000000000000000000000000002a30783233326336316233643161303363633537653937366363636430663963396364333361393866653000000000000000000000000000000000000000000000",
        "nonce": "0x22b",
        "chainId": "0x66eee"
      },
      "additionalContracts": [],
      "isFixedGasLimit": false
    },
    {
      "hash": "0x30bc5464b7602dd2f84ab3565c4bdf228bc2032a147daac2f06fc65464a4be5e",
      "transactionType": "CALL",
      "contractName": "CTMRWAGateway",
      "contractAddress": "0x74972e7ff5561bd902e3ec3ddd5a22653088ca6f",
      "function": "attachStorageManager(uint256,uint256,string,string)",
      "arguments": [
        "1",
        "1",
        "64165",
        "0xa6e0fa5cceef6e87d89b4dc51053e1ff1a557b53"
      ],
      "transaction": {
        "from": "0xe62ab4d111f968660c6b2188046f9b9ba53c4bae",
        "to": "0x74972e7ff5561bd902e3ec3ddd5a22653088ca6f",
        "gas": "0x3a64b",
        "value": "0x0",
        "input": "0x6bb884f300000000000000000000000000000000000000000000000000000000000000010000000000000000000000000000000000000000000000000000000000000001000000000000000000000000000000000000000000000000000000000000008000000000000000000000000000000000000000000000000000000000000000c000000000000000000000000000000000000000000000000000000000000000053634313635000000000000000000000000000000000000000000000000000000000000000000000000000000000000000000000000000000000000000000002a30786136653066613563636565663665383764383962346463353130353365316666316135353762353300000000000000000000000000000000000000000000",
        "nonce": "0x22c",
        "chainId": "0x66eee"
      },
      "additionalContracts": [],
      "isFixedGasLimit": false
    },
    {
      "hash": "0xa910cd63478d41f03cb650ad9ce5ff41578717fd020b4d0ada21f792b75f608f",
      "transactionType": "CALL",
      "contractName": "CTMRWAGateway",
      "contractAddress": "0x74972e7ff5561bd902e3ec3ddd5a22653088ca6f",
      "function": "addChainContract(string,string)",
      "arguments": [
        "997",
        "0xeadb6779c7284a7ef6f611f4535e60c3d59b321b"
      ],
      "transaction": {
        "from": "0xe62ab4d111f968660c6b2188046f9b9ba53c4bae",
        "to": "0x74972e7ff5561bd902e3ec3ddd5a22653088ca6f",
        "gas": "0x396ea",
        "value": "0x0",
        "input": "0x12d3fcfa0000000000000000000000000000000000000000000000000000000000000040000000000000000000000000000000000000000000000000000000000000008000000000000000000000000000000000000000000000000000000000000000033939370000000000000000000000000000000000000000000000000000000000000000000000000000000000000000000000000000000000000000000000002a30786561646236373739633732383461376566366636313166343533356536306333643539623332316200000000000000000000000000000000000000000000",
        "nonce": "0x22d",
        "chainId": "0x66eee"
      },
      "additionalContracts": [],
      "isFixedGasLimit": false
    },
    {
      "hash": "0xa68bb16396ca8279f4e7eac08d690bd25e537e22bd39184fcc2fc25beeb1c451",
      "transactionType": "CALL",
      "contractName": "CTMRWAGateway",
      "contractAddress": "0x74972e7ff5561bd902e3ec3ddd5a22653088ca6f",
      "function": "attachRWAX(uint256,uint256,string,string)",
      "arguments": [
        "1",
        "1",
        "997",
        "0x232c61b3d1a03cc57e976cccd0f9c9cd33a98fe0"
      ],
      "transaction": {
        "from": "0xe62ab4d111f968660c6b2188046f9b9ba53c4bae",
        "to": "0x74972e7ff5561bd902e3ec3ddd5a22653088ca6f",
        "gas": "0x3a0cd",
        "value": "0x0",
        "input": "0x5cbee36a00000000000000000000000000000000000000000000000000000000000000010000000000000000000000000000000000000000000000000000000000000001000000000000000000000000000000000000000000000000000000000000008000000000000000000000000000000000000000000000000000000000000000c000000000000000000000000000000000000000000000000000000000000000033939370000000000000000000000000000000000000000000000000000000000000000000000000000000000000000000000000000000000000000000000002a30783233326336316233643161303363633537653937366363636430663963396364333361393866653000000000000000000000000000000000000000000000",
        "nonce": "0x22e",
        "chainId": "0x66eee"
      },
      "additionalContracts": [],
      "isFixedGasLimit": false
    },
    {
      "hash": "0xe35afd02ce2a1e254b7e9c777562f8687ab2afc09b734f19864f45af1226df36",
      "transactionType": "CALL",
      "contractName": "CTMRWAGateway",
      "contractAddress": "0x74972e7ff5561bd902e3ec3ddd5a22653088ca6f",
      "function": "attachStorageManager(uint256,uint256,string,string)",
      "arguments": [
        "1",
        "1",
        "997",
        "0xa6e0fa5cceef6e87d89b4dc51053e1ff1a557b53"
      ],
      "transaction": {
        "from": "0xe62ab4d111f968660c6b2188046f9b9ba53c4bae",
        "to": "0x74972e7ff5561bd902e3ec3ddd5a22653088ca6f",
        "gas": "0x3a174",
        "value": "0x0",
        "input": "0x6bb884f300000000000000000000000000000000000000000000000000000000000000010000000000000000000000000000000000000000000000000000000000000001000000000000000000000000000000000000000000000000000000000000008000000000000000000000000000000000000000000000000000000000000000c000000000000000000000000000000000000000000000000000000000000000033939370000000000000000000000000000000000000000000000000000000000000000000000000000000000000000000000000000000000000000000000002a30786136653066613563636565663665383764383962346463353130353365316666316135353762353300000000000000000000000000000000000000000000",
        "nonce": "0x22f",
        "chainId": "0x66eee"
      },
      "additionalContracts": [],
      "isFixedGasLimit": false
    },
    {
      "hash": "0xc9d5850b62b6ae056b97bb37478bed90e3bceaf3ed4802a262f7c422179970df",
      "transactionType": "CALL",
      "contractName": "CTMRWAGateway",
      "contractAddress": "0x74972e7ff5561bd902e3ec3ddd5a22653088ca6f",
      "function": "addChainContract(string,string)",
      "arguments": [
        "14853",
        "0xd52966352e5a15dcb05cdfb4d8f54f565d487210"
      ],
      "transaction": {
        "from": "0xe62ab4d111f968660c6b2188046f9b9ba53c4bae",
        "to": "0x74972e7ff5561bd902e3ec3ddd5a22653088ca6f",
        "gas": "0x39a8e",
        "value": "0x0",
        "input": "0x12d3fcfa0000000000000000000000000000000000000000000000000000000000000040000000000000000000000000000000000000000000000000000000000000008000000000000000000000000000000000000000000000000000000000000000053134383533000000000000000000000000000000000000000000000000000000000000000000000000000000000000000000000000000000000000000000002a30786435323936363335326535613135646362303563646662346438663534663536356434383732313000000000000000000000000000000000000000000000",
        "nonce": "0x230",
        "chainId": "0x66eee"
      },
      "additionalContracts": [],
      "isFixedGasLimit": false
    },
    {
      "hash": "0x96a1254fe6f8fb97d69dbf043651f80e369a9b47f5c22551dd98f052dbf913b7",
      "transactionType": "CALL",
      "contractName": "CTMRWAGateway",
      "contractAddress": "0x74972e7ff5561bd902e3ec3ddd5a22653088ca6f",
      "function": "attachRWAX(uint256,uint256,string,string)",
      "arguments": [
        "1",
        "1",
        "14853",
        "0x7dabce18c66b5c857355a815b6c1e926c701c23f"
      ],
      "transaction": {
        "from": "0xe62ab4d111f968660c6b2188046f9b9ba53c4bae",
        "to": "0x74972e7ff5561bd902e3ec3ddd5a22653088ca6f",
        "gas": "0x3a3ce",
        "value": "0x0",
        "input": "0x5cbee36a00000000000000000000000000000000000000000000000000000000000000010000000000000000000000000000000000000000000000000000000000000001000000000000000000000000000000000000000000000000000000000000008000000000000000000000000000000000000000000000000000000000000000c000000000000000000000000000000000000000000000000000000000000000053134383533000000000000000000000000000000000000000000000000000000000000000000000000000000000000000000000000000000000000000000002a30783764616263653138633636623563383537333535613831356236633165393236633730316332336600000000000000000000000000000000000000000000",
        "nonce": "0x231",
        "chainId": "0x66eee"
      },
      "additionalContracts": [],
      "isFixedGasLimit": false
    },
    {
      "hash": "0x91943bd5ce1cfa8062a0bc723eb393581e3f8c29875be52b33c527626799c730",
      "transactionType": "CALL",
      "contractName": "CTMRWAGateway",
      "contractAddress": "0x74972e7ff5561bd902e3ec3ddd5a22653088ca6f",
      "function": "attachStorageManager(uint256,uint256,string,string)",
      "arguments": [
        "1",
        "1",
        "14853",
        "0x92bb6defef73fa2ee42fec2273d98693571bd7f3"
      ],
      "transaction": {
        "from": "0xe62ab4d111f968660c6b2188046f9b9ba53c4bae",
        "to": "0x74972e7ff5561bd902e3ec3ddd5a22653088ca6f",
        "gas": "0x3a5f9",
        "value": "0x0",
        "input": "0x6bb884f300000000000000000000000000000000000000000000000000000000000000010000000000000000000000000000000000000000000000000000000000000001000000000000000000000000000000000000000000000000000000000000008000000000000000000000000000000000000000000000000000000000000000c000000000000000000000000000000000000000000000000000000000000000053134383533000000000000000000000000000000000000000000000000000000000000000000000000000000000000000000000000000000000000000000002a30783932626236646566656637336661326565343266656332323733643938363933353731626437663300000000000000000000000000000000000000000000",
        "nonce": "0x232",
        "chainId": "0x66eee"
      },
      "additionalContracts": [],
      "isFixedGasLimit": false
    },
    {
      "hash": "0xeac8e7b3c18bc7f2944a96c18e2c8f7d430e6ea614ca711827278fb3a07817d0",
      "transactionType": "CALL",
      "contractName": "CTMRWAGateway",
      "contractAddress": "0x74972e7ff5561bd902e3ec3ddd5a22653088ca6f",
      "function": "addChainContract(string,string)",
      "arguments": [
        "338",
        "0x0a47eff3560ee2c0a2773f3927b6869f193f6858"
      ],
      "transaction": {
        "from": "0xe62ab4d111f968660c6b2188046f9b9ba53c4bae",
        "to": "0x74972e7ff5561bd902e3ec3ddd5a22653088ca6f",
        "gas": "0x39514",
        "value": "0x0",
        "input": "0x12d3fcfa0000000000000000000000000000000000000000000000000000000000000040000000000000000000000000000000000000000000000000000000000000008000000000000000000000000000000000000000000000000000000000000000033333380000000000000000000000000000000000000000000000000000000000000000000000000000000000000000000000000000000000000000000000002a30783061343765666633353630656532633061323737336633393237623638363966313933663638353800000000000000000000000000000000000000000000",
        "nonce": "0x233",
        "chainId": "0x66eee"
      },
      "additionalContracts": [],
      "isFixedGasLimit": false
    },
    {
      "hash": "0x13edb3fa325a39f879fa83c85d3ee0b4ae33113674e58a739f9e8ed1f5365c23",
      "transactionType": "CALL",
      "contractName": "CTMRWAGateway",
      "contractAddress": "0x74972e7ff5561bd902e3ec3ddd5a22653088ca6f",
      "function": "attachRWAX(uint256,uint256,string,string)",
      "arguments": [
        "1",
        "1",
        "338",
        "0x5fd3ef94668d7f5b6a439a9e2c662960115658c7"
      ],
      "transaction": {
        "from": "0xe62ab4d111f968660c6b2188046f9b9ba53c4bae",
        "to": "0x74972e7ff5561bd902e3ec3ddd5a22653088ca6f",
        "gas": "0x39dcd",
        "value": "0x0",
        "input": "0x5cbee36a00000000000000000000000000000000000000000000000000000000000000010000000000000000000000000000000000000000000000000000000000000001000000000000000000000000000000000000000000000000000000000000008000000000000000000000000000000000000000000000000000000000000000c000000000000000000000000000000000000000000000000000000000000000033333380000000000000000000000000000000000000000000000000000000000000000000000000000000000000000000000000000000000000000000000002a30783566643365663934363638643766356236613433396139653263363632393630313135363538633700000000000000000000000000000000000000000000",
        "nonce": "0x234",
        "chainId": "0x66eee"
      },
      "additionalContracts": [],
      "isFixedGasLimit": false
    },
    {
      "hash": "0x62000c7332e08382437ab33a333ba4f1977f467f9cf889682f90ff645e0ed655",
      "transactionType": "CALL",
      "contractName": "CTMRWAGateway",
      "contractAddress": "0x74972e7ff5561bd902e3ec3ddd5a22653088ca6f",
      "function": "attachStorageManager(uint256,uint256,string,string)",
      "arguments": [
        "1",
        "1",
        "338",
        "0x4a82933a6d097a1f4c99880e4a3b4c7b7d291765"
      ],
      "transaction": {
        "from": "0xe62ab4d111f968660c6b2188046f9b9ba53c4bae",
        "to": "0x74972e7ff5561bd902e3ec3ddd5a22653088ca6f",
        "gas": "0x39e23",
        "value": "0x0",
        "input": "0x6bb884f300000000000000000000000000000000000000000000000000000000000000010000000000000000000000000000000000000000000000000000000000000001000000000000000000000000000000000000000000000000000000000000008000000000000000000000000000000000000000000000000000000000000000c000000000000000000000000000000000000000000000000000000000000000033333380000000000000000000000000000000000000000000000000000000000000000000000000000000000000000000000000000000000000000000000002a30783461383239333361366430393761316634633939383830653461336234633762376432393137363500000000000000000000000000000000000000000000",
        "nonce": "0x235",
        "chainId": "0x66eee"
      },
      "additionalContracts": [],
      "isFixedGasLimit": false
    },
    {
      "hash": "0x4459cadad3046dd2859a252d007df7ce5eef8c4c849196514e06e0768736cfdc",
      "transactionType": "CALL",
      "contractName": "CTMRWAGateway",
      "contractAddress": "0x74972e7ff5561bd902e3ec3ddd5a22653088ca6f",
      "function": "addChainContract(string,string)",
      "arguments": [
        "97",
        "0x7478600f35ccb2421e9dadc84954290adeca1196"
      ],
      "transaction": {
        "from": "0xe62ab4d111f968660c6b2188046f9b9ba53c4bae",
        "to": "0x74972e7ff5561bd902e3ec3ddd5a22653088ca6f",
        "gas": "0x393bd",
        "value": "0x0",
        "input": "0x12d3fcfa0000000000000000000000000000000000000000000000000000000000000040000000000000000000000000000000000000000000000000000000000000008000000000000000000000000000000000000000000000000000000000000000023937000000000000000000000000000000000000000000000000000000000000000000000000000000000000000000000000000000000000000000000000002a30783734373836303066333563636232343231653964616463383439353432393061646563613131393600000000000000000000000000000000000000000000",
        "nonce": "0x236",
        "chainId": "0x66eee"
      },
      "additionalContracts": [],
      "isFixedGasLimit": false
    },
    {
      "hash": "0x0b325fb684261302f1a8f45be41a6442ceec19eb6dee9a1ef9cafe1aac0a68b4",
      "transactionType": "CALL",
      "contractName": "CTMRWAGateway",
      "contractAddress": "0x74972e7ff5561bd902e3ec3ddd5a22653088ca6f",
      "function": "attachRWAX(uint256,uint256,string,string)",
      "arguments": [
        "1",
        "1",
        "97",
        "0x9b0bc1e8267252b2e99fda8c302b0713ba3a8202"
      ],
      "transaction": {
        "from": "0xe62ab4d111f968660c6b2188046f9b9ba53c4bae",
        "to": "0x74972e7ff5561bd902e3ec3ddd5a22653088ca6f",
        "gas": "0x39c39",
        "value": "0x0",
        "input": "0x5cbee36a00000000000000000000000000000000000000000000000000000000000000010000000000000000000000000000000000000000000000000000000000000001000000000000000000000000000000000000000000000000000000000000008000000000000000000000000000000000000000000000000000000000000000c000000000000000000000000000000000000000000000000000000000000000023937000000000000000000000000000000000000000000000000000000000000000000000000000000000000000000000000000000000000000000000000002a30783962306263316538323637323532623265393966646138633330326230373133626133613832303200000000000000000000000000000000000000000000",
        "nonce": "0x237",
        "chainId": "0x66eee"
      },
      "additionalContracts": [],
      "isFixedGasLimit": false
    },
    {
      "hash": "0xf5cfc0b347a3d1ce4d4887c49f17e9e34b02bc9fa732a364c314f6af9e2cce0d",
      "transactionType": "CALL",
      "contractName": "CTMRWAGateway",
      "contractAddress": "0x74972e7ff5561bd902e3ec3ddd5a22653088ca6f",
      "function": "attachStorageManager(uint256,uint256,string,string)",
      "arguments": [
        "1",
        "1",
        "97",
        "0xef01a0adff5a96820a7c267d6a92ba041fa0c781"
      ],
      "transaction": {
        "from": "0xe62ab4d111f968660c6b2188046f9b9ba53c4bae",
        "to": "0x74972e7ff5561bd902e3ec3ddd5a22653088ca6f",
        "gas": "0x39db8",
        "value": "0x0",
        "input": "0x6bb884f300000000000000000000000000000000000000000000000000000000000000010000000000000000000000000000000000000000000000000000000000000001000000000000000000000000000000000000000000000000000000000000008000000000000000000000000000000000000000000000000000000000000000c000000000000000000000000000000000000000000000000000000000000000023937000000000000000000000000000000000000000000000000000000000000000000000000000000000000000000000000000000000000000000000000002a30786566303161306164666635613936383230613763323637643661393262613034316661306337383100000000000000000000000000000000000000000000",
        "nonce": "0x238",
        "chainId": "0x66eee"
      },
      "additionalContracts": [],
      "isFixedGasLimit": false
    },
    {
      "hash": "0x555ce58e5288003b6d8b69069982f4fb05de8ceaa65cd08604a05639f6b79c80",
      "transactionType": "CALL",
      "contractName": "CTMRWAGateway",
      "contractAddress": "0x74972e7ff5561bd902e3ec3ddd5a22653088ca6f",
      "function": "addChainContract(string,string)",
      "arguments": [
        "11155111",
        "0xd52966352e5a15dcb05cdfb4d8f54f565d487210"
      ],
      "transaction": {
        "from": "0xe62ab4d111f968660c6b2188046f9b9ba53c4bae",
        "to": "0x74972e7ff5561bd902e3ec3ddd5a22653088ca6f",
        "gas": "0x3a0b1",
        "value": "0x0",
        "input": "0x12d3fcfa0000000000000000000000000000000000000000000000000000000000000040000000000000000000000000000000000000000000000000000000000000008000000000000000000000000000000000000000000000000000000000000000083131313535313131000000000000000000000000000000000000000000000000000000000000000000000000000000000000000000000000000000000000002a30786435323936363335326535613135646362303563646662346438663534663536356434383732313000000000000000000000000000000000000000000000",
        "nonce": "0x239",
        "chainId": "0x66eee"
      },
      "additionalContracts": [],
      "isFixedGasLimit": false
    },
    {
      "hash": "0x0415b4b876e2e3ab13ff440d103cdea8249c344a3f4ac4d2ac2a6573fc679219",
      "transactionType": "CALL",
      "contractName": "CTMRWAGateway",
      "contractAddress": "0x74972e7ff5561bd902e3ec3ddd5a22653088ca6f",
      "function": "attachRWAX(uint256,uint256,string,string)",
      "arguments": [
        "1",
        "1",
        "11155111",
        "0x7dabce18c66b5c857355a815b6c1e926c701c23f"
      ],
      "transaction": {
        "from": "0xe62ab4d111f968660c6b2188046f9b9ba53c4bae",
        "to": "0x74972e7ff5561bd902e3ec3ddd5a22653088ca6f",
        "gas": "0x3a9b7",
        "value": "0x0",
        "input": "0x5cbee36a00000000000000000000000000000000000000000000000000000000000000010000000000000000000000000000000000000000000000000000000000000001000000000000000000000000000000000000000000000000000000000000008000000000000000000000000000000000000000000000000000000000000000c000000000000000000000000000000000000000000000000000000000000000083131313535313131000000000000000000000000000000000000000000000000000000000000000000000000000000000000000000000000000000000000002a30783764616263653138633636623563383537333535613831356236633165393236633730316332336600000000000000000000000000000000000000000000",
        "nonce": "0x23a",
        "chainId": "0x66eee"
      },
      "additionalContracts": [],
      "isFixedGasLimit": false
    },
    {
      "hash": "0x1d502c4d3667b312b1bee2776f6153d52804158eda6eca9b3c7e3130ffcdb367",
      "transactionType": "CALL",
      "contractName": "CTMRWAGateway",
      "contractAddress": "0x74972e7ff5561bd902e3ec3ddd5a22653088ca6f",
      "function": "attachStorageManager(uint256,uint256,string,string)",
      "arguments": [
        "1",
        "1",
        "11155111",
        "0x92bb6defef73fa2ee42fec2273d98693571bd7f3"
      ],
      "transaction": {
        "from": "0xe62ab4d111f968660c6b2188046f9b9ba53c4bae",
        "to": "0x74972e7ff5561bd902e3ec3ddd5a22653088ca6f",
        "gas": "0x3abe2",
        "value": "0x0",
        "input": "0x6bb884f300000000000000000000000000000000000000000000000000000000000000010000000000000000000000000000000000000000000000000000000000000001000000000000000000000000000000000000000000000000000000000000008000000000000000000000000000000000000000000000000000000000000000c000000000000000000000000000000000000000000000000000000000000000083131313535313131000000000000000000000000000000000000000000000000000000000000000000000000000000000000000000000000000000000000002a30783932626236646566656637336661326565343266656332323733643938363933353731626437663300000000000000000000000000000000000000000000",
        "nonce": "0x23b",
        "chainId": "0x66eee"
      },
      "additionalContracts": [],
      "isFixedGasLimit": false
    }
  ],
  "receipts": [
    {
      "status": "0x1",
      "cumulativeGasUsed": "0x1b17f8",
      "logs": [],
      "logsBloom": "0x00000000000000000000000000000000000000000000000000000000000000000000000000000000000000000000000000000000000000000000000000000000000000000000000000000000000000000000000000000000000000000000000000000000000000000000000000000000000000000000000000000000000000000000000000000000000000000000000000000000000000000000000000000000000000000000000000000000000000000000000000000000000000000000000000000000000000000000000000000000000000000000000000000000000000000000000000000000000000000000000000000000000000000000000000000000",
      "type": "0x2",
      "transactionHash": "0x51d826331cd25628797b1b01b9828882184f56f46a9a64a079b31fdbce62424e",
      "transactionIndex": "0x2",
      "blockHash": "0xd059a5cb4dfbdc479a8c9e6134c5a3d616edf7ece648e69c5e025f0c1ccd08aa",
      "blockNumber": "0x58ea79d",
      "gasUsed": "0x2b1e4",
      "effectiveGasPrice": "0x5f5e100",
      "from": "0xe62ab4d111f968660c6b2188046f9b9ba53c4bae",
      "to": "0x74972e7ff5561bd902e3ec3ddd5a22653088ca6f",
      "contractAddress": null,
      "gasUsedForL1": "0x2a00",
      "l1BlockNumber": "0x6a8d94"
    },
    {
      "status": "0x1",
      "cumulativeGasUsed": "0x434a5",
      "logs": [],
      "logsBloom": "0x00000000000000000000000000000000000000000000000000000000000000000000000000000000000000000000000000000000000000000000000000000000000000000000000000000000000000000000000000000000000000000000000000000000000000000000000000000000000000000000000000000000000000000000000000000000000000000000000000000000000000000000000000000000000000000000000000000000000000000000000000000000000000000000000000000000000000000000000000000000000000000000000000000000000000000000000000000000000000000000000000000000000000000000000000000000",
      "type": "0x2",
      "transactionHash": "0xd3a61929c781316d40ddd900818ab5123beb6dc4909cb0909e978515a326220c",
      "transactionIndex": "0x3",
      "blockHash": "0x910e997f24dcd61b7e91b36c9e09a8d6383fa668707c0803c2a5d145a366b155",
      "blockNumber": "0x58ea7b7",
      "gasUsed": "0x2b8bb",
      "effectiveGasPrice": "0x5f5e100",
      "from": "0xe62ab4d111f968660c6b2188046f9b9ba53c4bae",
      "to": "0x74972e7ff5561bd902e3ec3ddd5a22653088ca6f",
      "contractAddress": null,
      "gasUsedForL1": "0x2a77",
      "l1BlockNumber": "0x6a8d95"
    },
    {
      "status": "0x1",
      "cumulativeGasUsed": "0x41007",
      "logs": [],
      "logsBloom": "0x00000000000000000000000000000000000000000000000000000000000000000000000000000000000000000000000000000000000000000000000000000000000000000000000000000000000000000000000000000000000000000000000000000000000000000000000000000000000000000000000000000000000000000000000000000000000000000000000000000000000000000000000000000000000000000000000000000000000000000000000000000000000000000000000000000000000000000000000000000000000000000000000000000000000000000000000000000000000000000000000000000000000000000000000000000000",
      "type": "0x2",
      "transactionHash": "0xd9033e70602b199a7cd626c3a321882706c1fabe579296cc0492d42c45287435",
      "transactionIndex": "0x2",
      "blockHash": "0xd4ec13259970ee9f20b48da69f3fdfc037ec7ee0f159a76e7bf2df919d10875b",
      "blockNumber": "0x58ea7d2",
      "gasUsed": "0x2ba10",
      "effectiveGasPrice": "0x5f5e100",
      "from": "0xe62ab4d111f968660c6b2188046f9b9ba53c4bae",
      "to": "0x74972e7ff5561bd902e3ec3ddd5a22653088ca6f",
      "contractAddress": null,
      "gasUsedForL1": "0x2a4f",
      "l1BlockNumber": "0x6a8d96"
    },
    {
      "status": "0x1",
      "cumulativeGasUsed": "0x2c30d",
      "logs": [],
      "logsBloom": "0x00000000000000000000000000000000000000000000000000000000000000000000000000000000000000000000000000000000000000000000000000000000000000000000000000000000000000000000000000000000000000000000000000000000000000000000000000000000000000000000000000000000000000000000000000000000000000000000000000000000000000000000000000000000000000000000000000000000000000000000000000000000000000000000000000000000000000000000000000000000000000000000000000000000000000000000000000000000000000000000000000000000000000000000000000000000",
      "type": "0x2",
      "transactionHash": "0xe431556d0349d5986b8cc86c3f8cee79ab197f5340ef0e10df4167fdf9337ca9",
      "transactionIndex": "0x1",
      "blockHash": "0x96ec09a42c116c9915b054868ea7180af7af1b5cad98493ec9472ef77fa7fcfb",
      "blockNumber": "0x58ea7e9",
      "gasUsed": "0x2c30d",
      "effectiveGasPrice": "0x5f5e100",
      "from": "0xe62ab4d111f968660c6b2188046f9b9ba53c4bae",
      "to": "0x74972e7ff5561bd902e3ec3ddd5a22653088ca6f",
      "contractAddress": null,
      "gasUsedForL1": "0x2a00",
      "l1BlockNumber": "0x6a8d96"
    },
    {
      "status": "0x1",
      "cumulativeGasUsed": "0x330db",
      "logs": [],
      "logsBloom": "0x00000000000000000000000000000000000000000000000000000000000000000000000000000000000000000000000000000000000000000000000000000000000000000000000000000000000000000000000000000000000000000000000000000000000000000000000000000000000000000000000000000000000000000000000000000000000000000000000000000000000000000000000000000000000000000000000000000000000000000000000000000000000000000000000000000000000000000000000000000000000000000000000000000000000000000000000000000000000000000000000000000000000000000000000000000000",
      "type": "0x2",
      "transactionHash": "0x2695dbc53a8ed56b96072369b4cad557d56deabfdaae02be1b56e395b34ed004",
      "transactionIndex": "0x2",
      "blockHash": "0x6a85a0d104030c6ceb71a216f4767c1d7952a218c1357cd1a1697bddb8ce8071",
      "blockNumber": "0x58ea808",
      "gasUsed": "0x2ccb1",
      "effectiveGasPrice": "0x5f5e100",
      "from": "0xe62ab4d111f968660c6b2188046f9b9ba53c4bae",
      "to": "0x74972e7ff5561bd902e3ec3ddd5a22653088ca6f",
      "contractAddress": null,
      "gasUsedForL1": "0x2a9f",
      "l1BlockNumber": "0x6a8d97"
    },
    {
      "status": "0x1",
      "cumulativeGasUsed": "0x2c93f",
      "logs": [],
      "logsBloom": "0x00000000000000000000000000000000000000000000000000000000000000000000000000000000000000000000000000000000000000000000000000000000000000000000000000000000000000000000000000000000000000000000000000000000000000000000000000000000000000000000000000000000000000000000000000000000000000000000000000000000000000000000000000000000000000000000000000000000000000000000000000000000000000000000000000000000000000000000000000000000000000000000000000000000000000000000000000000000000000000000000000000000000000000000000000000000",
      "type": "0x2",
      "transactionHash": "0x36337dd30d9b8df103b1e36b05cb0268da0968ea6d12edea8641a1dbab7ee77c",
      "transactionIndex": "0x1",
      "blockHash": "0xb94a187d5b1c7daae0088f6fb486a22a9bbae3d5c062e5979b3b7153db943377",
      "blockNumber": "0x58ea827",
      "gasUsed": "0x2c93f",
      "effectiveGasPrice": "0x5f5e100",
      "from": "0xe62ab4d111f968660c6b2188046f9b9ba53c4bae",
      "to": "0x74972e7ff5561bd902e3ec3ddd5a22653088ca6f",
      "contractAddress": null,
      "gasUsedForL1": "0x2961",
      "l1BlockNumber": "0x6a8d97"
    },
    {
      "status": "0x1",
      "cumulativeGasUsed": "0x2dbca",
      "logs": [],
      "logsBloom": "0x00000000000000000000000000000000000000000000000000000000000000000000000000000000000000000000000000000000000000000000000000000000000000000000000000000000000000000000000000000000000000000000000000000000000000000000000000000000000000000000000000000000000000000000000000000000000000000000000000000000000000000000000000000000000000000000000000000000000000000000000000000000000000000000000000000000000000000000000000000000000000000000000000000000000000000000000000000000000000000000000000000000000000000000000000000000",
      "type": "0x2",
      "transactionHash": "0xe06b1ebb74f435b5e85faad673f799bcfb30e4685f5c46291ca36dfc3171a321",
      "transactionIndex": "0x1",
      "blockHash": "0x42ce74565b284216bcb2423c07ece04bf9ff6b296fea98ffcc6464300d1f39fc",
      "blockNumber": "0x58ea842",
      "gasUsed": "0x2dbca",
      "effectiveGasPrice": "0x5f5e100",
      "from": "0xe62ab4d111f968660c6b2188046f9b9ba53c4bae",
      "to": "0x74972e7ff5561bd902e3ec3ddd5a22653088ca6f",
      "contractAddress": null,
      "gasUsedForL1": "0x2a77",
      "l1BlockNumber": "0x6a8d99"
    },
    {
      "status": "0x1",
      "cumulativeGasUsed": "0x2e45f",
      "logs": [],
      "logsBloom": "0x00000000000000000000000000000000000000000000000000000000000000000000000000000000000000000000000000000000000000000000000000000000000000000000000000000000000000000000000000000000000000000000000000000000000000000000000000000000000000000000000000000000000000000000000000000000000000000000000000000000000000000000000000000000000000000000000000000000000000000000000000000000000000000000000000000000000000000000000000000000000000000000000000000000000000000000000000000000000000000000000000000000000000000000000000000000",
      "type": "0x2",
      "transactionHash": "0x558aab5c4bab4b32b64672a60b549ff4b2d2e8cfb0858d7106b8913ef86bb4e7",
      "transactionIndex": "0x1",
      "blockHash": "0x370aef60fec5bd26f038dfd370d87e84f589d5537e7e32a914a7cc5174a2efed",
      "blockNumber": "0x58ea861",
      "gasUsed": "0x2e45f",
      "effectiveGasPrice": "0x5f5e100",
      "from": "0xe62ab4d111f968660c6b2188046f9b9ba53c4bae",
      "to": "0x74972e7ff5561bd902e3ec3ddd5a22653088ca6f",
      "contractAddress": null,
      "gasUsedForL1": "0x29d8",
      "l1BlockNumber": "0x6a8d99"
    },
    {
      "status": "0x1",
      "cumulativeGasUsed": "0x34a72",
      "logs": [],
      "logsBloom": "0x00000000000000000000000000000000000000000000000000000000000000000000000000000000000000000000000000000000000000000000000000000000000000000000000000000000000000000000000000000000000000000000000000000000000000000000000000000000000000000000000000000000000000000000000000000000000000000000000000000000000000000000000000000000000000000000000000000000000000000000000000000000000000000000000000000000000000000000000000000000000000000000000000000000000000000000000000000000000000000000000000000000000000000000000000000000",
      "type": "0x2",
      "transactionHash": "0xe438c619a83c89c5e8a9868cc7dc2f0b4d999f32fd0f74e56658a38cd6d1c0a1",
      "transactionIndex": "0x2",
      "blockHash": "0x7c56944cab9e1c3f3e38ae7d911ec4d510752ba9cad16410679d5b50f6b2a529",
      "blockNumber": "0x58ea880",
      "gasUsed": "0x2e648",
      "effectiveGasPrice": "0x5f5e100",
      "from": "0xe62ab4d111f968660c6b2188046f9b9ba53c4bae",
      "to": "0x74972e7ff5561bd902e3ec3ddd5a22653088ca6f",
      "contractAddress": null,
      "gasUsedForL1": "0x2b16",
      "l1BlockNumber": "0x6a8d9a"
    },
    {
      "status": "0x1",
      "cumulativeGasUsed": "0xd6d42",
      "logs": [],
      "logsBloom": "0x00000000000000000000000000000000000000000000000000000000000000000000000000000000000000000000000000000000000000000000000000000000000000000000000000000000000000000000000000000000000000000000000000000000000000000000000000000000000000000000000000000000000000000000000000000000000000000000000000000000000000000000000000000000000000000000000000000000000000000000000000000000000000000000000000000000000000000000000000000000000000000000000000000000000000000000000000000000000000000000000000000000000000000000000000000000",
      "type": "0x2",
      "transactionHash": "0x9d1dd7e57b9e84ed0e92ce588a9c2a8b7d9ede33a80299e4099de106d2ac133a",
      "transactionIndex": "0x2",
      "blockHash": "0x4836454f6e30d711606ee265732ef42e517e208b435afa78f999fd02e1461c5b",
      "blockNumber": "0x58ea89c",
      "gasUsed": "0x2f098",
      "effectiveGasPrice": "0x5f5e100",
      "from": "0xe62ab4d111f968660c6b2188046f9b9ba53c4bae",
      "to": "0x74972e7ff5561bd902e3ec3ddd5a22653088ca6f",
      "contractAddress": null,
      "gasUsedForL1": "0x28ea",
      "l1BlockNumber": "0x6a8d9a"
    },
    {
      "status": "0x1",
      "cumulativeGasUsed": "0x2fac2",
      "logs": [],
      "logsBloom": "0x00000000000000000000000000000000000000000000000000000000000000000000000000000000000000000000000000000000000000000000000000000000000000000000000000000000000000000000000000000000000000000000000000000000000000000000000000000000000000000000000000000000000000000000000000000000000000000000000000000000000000000000000000000000000000000000000000000000000000000000000000000000000000000000000000000000000000000000000000000000000000000000000000000000000000000000000000000000000000000000000000000000000000000000000000000000",
      "type": "0x2",
      "transactionHash": "0x7a65234c5059418b9b6e5245e97fb1b1b5f274e3475a770dbd13da58d9e77714",
      "transactionIndex": "0x1",
      "blockHash": "0x2571d813b362a44502c8e54838c9deb7eac8cf91e85daf444c6b6917ee8f304b",
      "blockNumber": "0x58ea8b9",
      "gasUsed": "0x2fac2",
      "effectiveGasPrice": "0x5f5e100",
      "from": "0xe62ab4d111f968660c6b2188046f9b9ba53c4bae",
      "to": "0x74972e7ff5561bd902e3ec3ddd5a22653088ca6f",
      "contractAddress": null,
      "gasUsedForL1": "0x29b1",
      "l1BlockNumber": "0x6a8d9b"
    },
    {
      "status": "0x1",
      "cumulativeGasUsed": "0xa4c0a",
      "logs": [],
      "logsBloom": "0x00000000000000000000000000000000000000000000000000000000000000000000000000000000000000000000000000000000000000000000000000000000000000000000000000000000000000000000000000000000000000000000000000000000000000000000000000000000000000000000000000000000000000000000000000000000000000000000000000000000000000000000000000000000000000000000000000000000000000000000000000000000000000000000000000000000000000000000000000000000000000000000000000000000000000000000000000000000000000000000000000000000000000000000000000000000",
      "type": "0x2",
      "transactionHash": "0x29c698b4db508454530965e674ccb1bcddc9dc7f09c4049f0699b04999c25933",
      "transactionIndex": "0x4",
      "blockHash": "0x4c03e406e5d76e987cbb66c9302d9a52a30fe0957aca604538ca397821c759b7",
      "blockNumber": "0x58ea8bd",
      "gasUsed": "0x2fcdd",
      "effectiveGasPrice": "0x5f5e100",
      "from": "0xe62ab4d111f968660c6b2188046f9b9ba53c4bae",
      "to": "0x74972e7ff5561bd902e3ec3ddd5a22653088ca6f",
      "contractAddress": null,
      "gasUsedForL1": "0x2a4f",
      "l1BlockNumber": "0x6a8d9b"
    },
    {
      "status": "0x1",
      "cumulativeGasUsed": "0xd7dbf",
      "logs": [],
      "logsBloom": "0x00000000000000000000000000000000000000000000000000000000000000000000000000000000000000000000000000000000000000000000000000000000000000000000000000000000000000000000000000000000000000000000000000000000000000000000000000000000000000000000000000000000000000000000000000000000000000000000000000000000000000000000000000000000000000000000000000000000000000000000000000000000000000000000000000000000000000000000000000000000000000000000000000000000000000000000000000000000000000000000000000000000000000000000000000000000",
      "type": "0x2",
      "transactionHash": "0xda2cf189a89b6118bea0fcb6b963979c9a4397a49e79c4ffb8c6596aa9cdfad1",
      "transactionIndex": "0x2",
      "blockHash": "0x69ba5bfd2be55e7d40c27a99aa29c05a1bddf09dde2260f24dc984385659d2d7",
      "blockNumber": "0x58ea8c1",
      "gasUsed": "0x3065e",
      "effectiveGasPrice": "0x5f5e100",
      "from": "0xe62ab4d111f968660c6b2188046f9b9ba53c4bae",
      "to": "0x74972e7ff5561bd902e3ec3ddd5a22653088ca6f",
      "contractAddress": null,
      "gasUsedForL1": "0x2aee",
      "l1BlockNumber": "0x6a8d9b"
    },
    {
      "status": "0x1",
      "cumulativeGasUsed": "0x30fd4",
      "logs": [],
      "logsBloom": "0x00000000000000000000000000000000000000000000000000000000000000000000000000000000000000000000000000000000000000000000000000000000000000000000000000000000000000000000000000000000000000000000000000000000000000000000000000000000000000000000000000000000000000000000000000000000000000000000000000000000000000000000000000000000000000000000000000000000000000000000000000000000000000000000000000000000000000000000000000000000000000000000000000000000000000000000000000000000000000000000000000000000000000000000000000000000",
      "type": "0x2",
      "transactionHash": "0xb8827adc686d6ab8f03c8079c652f05d13009f56cf22e6b515f3c97d1c445603",
      "transactionIndex": "0x1",
      "blockHash": "0xea44bef6131255a0fcd3a93f2892482dc8e6309698a4c27cd67f6d88cd4b235f",
      "blockNumber": "0x58ea8c4",
      "gasUsed": "0x30fd4",
      "effectiveGasPrice": "0x5f5e100",
      "from": "0xe62ab4d111f968660c6b2188046f9b9ba53c4bae",
      "to": "0x74972e7ff5561bd902e3ec3ddd5a22653088ca6f",
      "contractAddress": null,
      "gasUsedForL1": "0x2a00",
      "l1BlockNumber": "0x6a8d9b"
    },
    {
      "status": "0x1",
      "cumulativeGasUsed": "0x311c8",
      "logs": [],
      "logsBloom": "0x00000000000000000000000000000000000000000000000000000000000000000000000000000000000000000000000000000000000000000000000000000000000000000000000000000000000000000000000000000000000000000000000000000000000000000000000000000000000000000000000000000000000000000000000000000000000000000000000000000000000000000000000000000000000000000000000000000000000000000000000000000000000000000000000000000000000000000000000000000000000000000000000000000000000000000000000000000000000000000000000000000000000000000000000000000000",
      "type": "0x2",
      "transactionHash": "0xaf98350f6c88b7f78a33f4f15cf5e7931aefa6f9cc2984cf9f8696a5c16fa9a0",
      "transactionIndex": "0x1",
      "blockHash": "0x948fc68bc016b2a95c11c194266e302d356a5daa7ae2edc6a84573401e790dc5",
      "blockNumber": "0x58ea8e3",
      "gasUsed": "0x311c8",
      "effectiveGasPrice": "0x5f5e100",
      "from": "0xe62ab4d111f968660c6b2188046f9b9ba53c4bae",
      "to": "0x74972e7ff5561bd902e3ec3ddd5a22653088ca6f",
      "contractAddress": null,
      "gasUsedForL1": "0x2a77",
      "l1BlockNumber": "0x6a8d9c"
    },
    {
      "status": "0x1",
      "cumulativeGasUsed": "0x32375",
      "logs": [],
      "logsBloom": "0x00000000000000000000000000000000000000000000000000000000000000000000000000000000000000000000000000000000000000000000000000000000000000000000000000000000000000000000000000000000000000000000000000000000000000000000000000000000000000000000000000000000000000000000000000000000000000000000000000000000000000000000000000000000000000000000000000000000000000000000000000000000000000000000000000000000000000000000000000000000000000000000000000000000000000000000000000000000000000000000000000000000000000000000000000000000",
      "type": "0x2",
      "transactionHash": "0x1e56fef5666079ce581c984b40403acabe965a8ddc832d5c898d474c7cfc4aab",
      "transactionIndex": "0x1",
      "blockHash": "0x03de6b3113017c353bddd9e0637b3f7330ad547e53c04e5114b33dd96485e34d",
      "blockNumber": "0x58ea8ff",
      "gasUsed": "0x32375",
      "effectiveGasPrice": "0x5f5e100",
      "from": "0xe62ab4d111f968660c6b2188046f9b9ba53c4bae",
      "to": "0x74972e7ff5561bd902e3ec3ddd5a22653088ca6f",
      "contractAddress": null,
      "gasUsedForL1": "0x2b3d",
      "l1BlockNumber": "0x6a8d9c"
    },
    {
      "status": "0x1",
      "cumulativeGasUsed": "0x32cd7",
      "logs": [],
      "logsBloom": "0x00000000000000000000000000000000000000000000000000000000000000000000000000000000000000000000000000000000000000000000000000000000000000000000000000000000000000000000000000000000000000000000000000000000000000000000000000000000000000000000000000000000000000000000000000000000000000000000000000000000000000000000000000000000000000000000000000000000000000000000000000000000000000000000000000000000000000000000000000000000000000000000000000000000000000000000000000000000000000000000000000000000000000000000000000000000",
      "type": "0x2",
      "transactionHash": "0x57425e206c69ec61409cc57c70f0cb0e31b42ab6166a5884c8b81fa7220570f3",
      "transactionIndex": "0x1",
      "blockHash": "0x52c214033955930cf1ea4927e17ce504b4f9382b72953f98abc896e02f56aa5c",
      "blockNumber": "0x58ea903",
      "gasUsed": "0x32cd7",
      "effectiveGasPrice": "0x5f5e100",
      "from": "0xe62ab4d111f968660c6b2188046f9b9ba53c4bae",
      "to": "0x74972e7ff5561bd902e3ec3ddd5a22653088ca6f",
      "contractAddress": null,
      "gasUsedForL1": "0x293a",
      "l1BlockNumber": "0x6a8d9c"
    },
    {
      "status": "0x1",
      "cumulativeGasUsed": "0x32d8d",
      "logs": [],
      "logsBloom": "0x00000000000000000000000000000000000000000000000000000000000000000000000000000000000000000000000000000000000000000000000000000000000000000000000000000000000000000000000000000000000000000000000000000000000000000000000000000000000000000000000000000000000000000000000000000000000000000000000000000000000000000000000000000000000000000000000000000000000000000000000000000000000000000000000000000000000000000000000000000000000000000000000000000000000000000000000000000000000000000000000000000000000000000000000000000000",
      "type": "0x2",
      "transactionHash": "0x45c6f82f65a8782c415087a4bd0f796f34c1f41991518c46db0fd288aba0f1c2",
      "transactionIndex": "0x1",
      "blockHash": "0xfc58aec8062c06b8fbc8c7ac7f433675cad720276780845f58f6f81aa6f4a0a6",
      "blockNumber": "0x58ea920",
      "gasUsed": "0x32d8d",
      "effectiveGasPrice": "0x5f5e100",
      "from": "0xe62ab4d111f968660c6b2188046f9b9ba53c4bae",
      "to": "0x74972e7ff5561bd902e3ec3ddd5a22653088ca6f",
      "contractAddress": null,
      "gasUsedForL1": "0x2873",
      "l1BlockNumber": "0x6a8d9e"
    },
    {
      "status": "0x1",
      "cumulativeGasUsed": "0x333be",
      "logs": [],
      "logsBloom": "0x00000000000000000000000000000000000000000000000000000000000000000000000000000000000000000000000000000000000000000000000000000000000000000000000000000000000000000000000000000000000000000000000000000000000000000000000000000000000000000000000000000000000000000000000000000000000000000000000000000000000000000000000000000000000000000000000000000000000000000000000000000000000000000000000000000000000000000000000000000000000000000000000000000000000000000000000000000000000000000000000000000000000000000000000000000000",
      "type": "0x2",
      "transactionHash": "0x60d52ed4628111868dcdc29413c1344330d40f22600b0807491f5720880798ad",
      "transactionIndex": "0x1",
      "blockHash": "0x1f52b1864aed30a395ea2f49f36395c0526eb78cf065c75923a3b0e3bd9c0113",
      "blockNumber": "0x58ea924",
      "gasUsed": "0x333be",
      "effectiveGasPrice": "0x5f5e100",
      "from": "0xe62ab4d111f968660c6b2188046f9b9ba53c4bae",
      "to": "0x74972e7ff5561bd902e3ec3ddd5a22653088ca6f",
      "contractAddress": null,
      "gasUsedForL1": "0x2ac6",
      "l1BlockNumber": "0x6a8d9e"
    },
    {
      "status": "0x1",
      "cumulativeGasUsed": "0x33ef7",
      "logs": [],
      "logsBloom": "0x00000000000000000000000000000000000000000000000000000000000000000000000000000000000000000000000000000000000000000000000000000000000000000000000000000000000000000000000000000000000000000000000000000000000000000000000000000000000000000000000000000000000000000000000000000000000000000000000000000000000000000000000000000000000000000000000000000000000000000000000000000000000000000000000000000000000000000000000000000000000000000000000000000000000000000000000000000000000000000000000000000000000000000000000000000000",
      "type": "0x2",
      "transactionHash": "0xeb2c3ac373c3242a2b10e7a8c813cb2a829f5c53b742967e8066cf1a7159b06d",
      "transactionIndex": "0x1",
      "blockHash": "0x1b4ed8266ee6628b856144b2a3b35b2183397f4ef90bc1541b8b9c3473fcd7cb",
      "blockNumber": "0x58ea93e",
      "gasUsed": "0x33ef7",
      "effectiveGasPrice": "0x5f5e100",
      "from": "0xe62ab4d111f968660c6b2188046f9b9ba53c4bae",
      "to": "0x74972e7ff5561bd902e3ec3ddd5a22653088ca6f",
      "contractAddress": null,
      "gasUsedForL1": "0x2b3d",
      "l1BlockNumber": "0x6a8d9e"
    },
    {
      "status": "0x1",
      "cumulativeGasUsed": "0x3431e",
      "logs": [],
      "logsBloom": "0x00000000000000000000000000000000000000000000000000000000000000000000000000000000000000000000000000000000000000000000000000000000000000000000000000000000000000000000000000000000000000000000000000000000000000000000000000000000000000000000000000000000000000000000000000000000000000000000000000000000000000000000000000000000000000000000000000000000000000000000000000000000000000000000000000000000000000000000000000000000000000000000000000000000000000000000000000000000000000000000000000000000000000000000000000000000",
      "type": "0x2",
      "transactionHash": "0xf764ec55aadf07e5047907825ea00fa5441b0fc35b16d75347a8e7020c44e7e5",
      "transactionIndex": "0x1",
      "blockHash": "0xdf9ab64299d45ebbde1dfae2e834e3b831cf8364718b3546ddd462f82e8a711b",
      "blockNumber": "0x58ea95c",
      "gasUsed": "0x3431e",
      "effectiveGasPrice": "0x5f5e100",
      "from": "0xe62ab4d111f968660c6b2188046f9b9ba53c4bae",
      "to": "0x74972e7ff5561bd902e3ec3ddd5a22653088ca6f",
      "contractAddress": null,
      "gasUsedForL1": "0x2a9f",
      "l1BlockNumber": "0x6a8d9f"
    },
    {
      "status": "0x1",
      "cumulativeGasUsed": "0x34951",
      "logs": [],
      "logsBloom": "0x00000000000000000000000000000000000000000000000000000000000000000000000000000000000000000000000000000000000000000000000000000000000000000000000000000000000000000000000000000000000000000000000000000000000000000000000000000000000000000000000000000000000000000000000000000000000000000000000000000000000000000000000000000000000000000000000000000000000000000000000000000000000000000000000000000000000000000000000000000000000000000000000000000000000000000000000000000000000000000000000000000000000000000000000000000000",
      "type": "0x2",
      "transactionHash": "0xc1fdb74076dcace3a2772a72187e0584e349299a5b557e732abc856f1a6ff790",
      "transactionIndex": "0x1",
      "blockHash": "0xc87f5226f0fccc65db98e94a8ad38084cbb2645e47d6ae6eb8d4c6102d0b069f",
      "blockNumber": "0x58ea972",
      "gasUsed": "0x34951",
      "effectiveGasPrice": "0x5f5e100",
      "from": "0xe62ab4d111f968660c6b2188046f9b9ba53c4bae",
      "to": "0x74972e7ff5561bd902e3ec3ddd5a22653088ca6f",
      "contractAddress": null,
      "gasUsedForL1": "0x2b16",
      "l1BlockNumber": "0x6a8d9f"
    },
    {
      "status": "0x1",
      "cumulativeGasUsed": "0x355a2",
      "logs": [],
      "logsBloom": "0x00000000000000000000000000000000000000000000000000000000000000000000000000000000000000000000000000000000000000000000000000000000000000000000000000000000000000000000000000000000000000000000000000000000000000000000000000000000000000000000000000000000000000000000000000000000000000000000000000000000000000000000000000000000000000000000000000000000000000000000000000000000000000000000000000000000000000000000000000000000000000000000000000000000000000000000000000000000000000000000000000000000000000000000000000000000",
      "type": "0x2",
      "transactionHash": "0xd2bc40e22b455630d8d207f4df061cc9890e6eb9fa9d414bdd5747ef2774b7f5",
      "transactionIndex": "0x1",
      "blockHash": "0xd99ab859ed049c7895c8fc92c153e3a7cc93d7f5b27ec89bfd8289d161078317",
      "blockNumber": "0x58ea98f",
      "gasUsed": "0x355a2",
      "effectiveGasPrice": "0x5f5e100",
      "from": "0xe62ab4d111f968660c6b2188046f9b9ba53c4bae",
      "to": "0x74972e7ff5561bd902e3ec3ddd5a22653088ca6f",
      "contractAddress": null,
      "gasUsedForL1": "0x2a00",
      "l1BlockNumber": "0x6a8da0"
    },
    {
      "status": "0x1",
      "cumulativeGasUsed": "0x3571f",
      "logs": [],
      "logsBloom": "0x00000000000000000000000000000000000000000000000000000000000000000000000000000000000000000000000000000000000000000000000000000000000000000000000000000000000000000000000000000000000000000000000000000000000000000000000000000000000000000000000000000000000000000000000000000000000000000000000000000000000000000000000000000000000000000000000000000000000000000000000000000000000000000000000000000000000000000000000000000000000000000000000000000000000000000000000000000000000000000000000000000000000000000000000000000000",
      "type": "0x2",
      "transactionHash": "0x0451b310cef3cbea121785cb4207afd8dc1e9a3250cc91662ba0cbbc0c882d57",
      "transactionIndex": "0x1",
      "blockHash": "0xd08d32ef71a3f95015be513ee0e4bc27749e2a0c252b2642807917d42ded6c46",
      "blockNumber": "0x58ea991",
      "gasUsed": "0x3571f",
      "effectiveGasPrice": "0x5f5e100",
      "from": "0xe62ab4d111f968660c6b2188046f9b9ba53c4bae",
      "to": "0x74972e7ff5561bd902e3ec3ddd5a22653088ca6f",
      "contractAddress": null,
      "gasUsedForL1": "0x2a00",
      "l1BlockNumber": "0x6a8da0"
    },
    {
      "status": "0x1",
      "cumulativeGasUsed": "0x35a2d",
      "logs": [],
      "logsBloom": "0x00000000000000000000000000000000000000000000000000000000000000000000000000000000000000000000000000000000000000000000000000000000000000000000000000000000000000000000000000000000000000000000000000000000000000000000000000000000000000000000000000000000000000000000000000000000000000000000000000000000000000000000000000000000000000000000000000000000000000000000000000000000000000000000000000000000000000000000000000000000000000000000000000000000000000000000000000000000000000000000000000000000000000000000000000000000",
      "type": "0x2",
      "transactionHash": "0x18e5e70af12add609ee4f58e2e4f5fed23051f9d996f40c35960bd1aa7ec20e0",
      "transactionIndex": "0x1",
      "blockHash": "0x5cd94d130bb829ed7f4ac134ecb397cadad3eed6a681e602ddd04689baed7512",
      "blockNumber": "0x58ea9ac",
      "gasUsed": "0x35a2d",
      "effectiveGasPrice": "0x5f5e100",
      "from": "0xe62ab4d111f968660c6b2188046f9b9ba53c4bae",
      "to": "0x74972e7ff5561bd902e3ec3ddd5a22653088ca6f",
      "contractAddress": null,
      "gasUsedForL1": "0x29b1",
      "l1BlockNumber": "0x6a8da1"
    },
    {
      "status": "0x1",
      "cumulativeGasUsed": "0x36a99",
      "logs": [],
      "logsBloom": "0x00000000000000000000000000000000000000000000000000000000000000000000000000000000000000000000000000000000000000000000000000000000000000000000000000000000000000000000000000000000000000000000000000000000000000000000000000000000000000000000000000000000000000000000000000000000000000000000000000000000000000000000000000000000000000000000000000000000000000000000000000000000000000000000000000000000000000000000000000000000000000000000000000000000000000000000000000000000000000000000000000000000000000000000000000000000",
      "type": "0x2",
      "transactionHash": "0x71a9f6bc1fdeb3a6ea3fc148ff5c6af3ecf9e06f29ef476847ae05b97ab60145",
      "transactionIndex": "0x1",
      "blockHash": "0x53e05cf0630bb0cc0ea97f5ae5498aa02634e87c77130129ad260a2c975f0c6b",
      "blockNumber": "0x58ea9b0",
      "gasUsed": "0x36a99",
      "effectiveGasPrice": "0x5f5e100",
      "from": "0xe62ab4d111f968660c6b2188046f9b9ba53c4bae",
      "to": "0x74972e7ff5561bd902e3ec3ddd5a22653088ca6f",
      "contractAddress": null,
      "gasUsedForL1": "0x2bb5",
      "l1BlockNumber": "0x6a8da1"
    },
    {
      "status": "0x1",
      "cumulativeGasUsed": "0x3ce14",
      "logs": [],
      "logsBloom": "0x00000000000000000000000000000000000000000000000000000000000000000000000000000000000000000000000000000000000000000000000000000000000000000000000000000000000000000000000000000000000000000000000000000000000000000000000000000000000000000000000000000000000000000000000000000000000000000000000000000000000000000000000000000000000000000000000000000000000000000000000000000000000000000000000000000000000000000000000000000000000000000000000000000000000000000000000000000000000000000000000000000000000000000000000000000000",
      "type": "0x2",
      "transactionHash": "0x2e41875925a55dc8e9198c8dcc17342481313e92bef11e2974d6d80675b42fc2",
      "transactionIndex": "0x2",
      "blockHash": "0xdf69af8e42424f500255b60de70873ab0e4a0fb29e7b7127664a580701a81dab",
      "blockNumber": "0x58ea9b4",
      "gasUsed": "0x369ea",
      "effectiveGasPrice": "0x5f5e100",
      "from": "0xe62ab4d111f968660c6b2188046f9b9ba53c4bae",
      "to": "0x74972e7ff5561bd902e3ec3ddd5a22653088ca6f",
      "contractAddress": null,
      "gasUsedForL1": "0x2989",
      "l1BlockNumber": "0x6a8da1"
    },
    {
      "status": "0x1",
      "cumulativeGasUsed": "0x37091",
      "logs": [],
      "logsBloom": "0x00000000000000000000000000000000000000000000000000000000000000000000000000000000000000000000000000000000000000000000000000000000000000000000000000000000000000000000000000000000000000000000000000000000000000000000000000000000000000000000000000000000000000000000000000000000000000000000000000000000000000000000000000000000000000000000000000000000000000000000000000000000000000000000000000000000000000000000000000000000000000000000000000000000000000000000000000000000000000000000000000000000000000000000000000000000",
      "type": "0x2",
      "transactionHash": "0x878dba715585db0fb347dab19e83e2cea071340c597c6669c4f81ca8598e336f",
      "transactionIndex": "0x1",
      "blockHash": "0x586bab1a0c8c2e1004d7ef4b520f563cf7d2e8f15f2f46bdee1f4f28d3aee231",
      "blockNumber": "0x58ea9b8",
      "gasUsed": "0x37091",
      "effectiveGasPrice": "0x5f5e100",
      "from": "0xe62ab4d111f968660c6b2188046f9b9ba53c4bae",
      "to": "0x74972e7ff5561bd902e3ec3ddd5a22653088ca6f",
      "contractAddress": null,
      "gasUsedForL1": "0x2a00",
      "l1BlockNumber": "0x6a8da1"
    },
    {
      "status": "0x1",
      "cumulativeGasUsed": "0x38071",
      "logs": [],
      "logsBloom": "0x00000000000000000000000000000000000000000000000000000000000000000000000000000000000000000000000000000000000000000000000000000000000000000000000000000000000000000000000000000000000000000000000000000000000000000000000000000000000000000000000000000000000000000000000000000000000000000000000000000000000000000000000000000000000000000000000000000000000000000000000000000000000000000000000000000000000000000000000000000000000000000000000000000000000000000000000000000000000000000000000000000000000000000000000000000000",
      "type": "0x2",
      "transactionHash": "0x26da2c148ac8fc08a0c8c0b594418ca0b8033adfceb3706e734a335458ca84c6",
      "transactionIndex": "0x1",
      "blockHash": "0x11817d4c965efad291ea2acff48e86d6f688560f3a756812c0d7cca00801beef",
      "blockNumber": "0x58ea9bc",
      "gasUsed": "0x38071",
      "effectiveGasPrice": "0x5f5e100",
      "from": "0xe62ab4d111f968660c6b2188046f9b9ba53c4bae",
      "to": "0x74972e7ff5561bd902e3ec3ddd5a22653088ca6f",
      "contractAddress": null,
      "gasUsedForL1": "0x2a77",
      "l1BlockNumber": "0x6a8da1"
    },
    {
      "status": "0x1",
      "cumulativeGasUsed": "0x37e98",
      "logs": [],
      "logsBloom": "0x00000000000000000000000000000000000000000000000000000000000000000000000000000000000000000000000000000000000000000000000000000000000000000000000000000000000000000000000000000000000000000000000000000000000000000000000000000000000000000000000000000000000000000000000000000000000000000000000000000000000000000000000000000000000000000000000000000000000000000000000000000000000000000000000000000000000000000000000000000000000000000000000000000000000000000000000000000000000000000000000000000000000000000000000000000000",
      "type": "0x2",
      "transactionHash": "0xb154bb8c2b4051d5712da2c7f678cc884e6f66d6519d12a4dfdd53637a68f696",
      "transactionIndex": "0x1",
      "blockHash": "0xb73c119361ee989e1cb2fea059b8c8405c2f5c77b0fe25a02ac26fca2fde5046",
      "blockNumber": "0x58ea9c0",
      "gasUsed": "0x37e98",
      "effectiveGasPrice": "0x5f5e100",
      "from": "0xe62ab4d111f968660c6b2188046f9b9ba53c4bae",
      "to": "0x74972e7ff5561bd902e3ec3ddd5a22653088ca6f",
      "contractAddress": null,
      "gasUsedForL1": "0x2a00",
      "l1BlockNumber": "0x6a8da1"
    },
    {
      "status": "0x1",
      "cumulativeGasUsed": "0x3865c",
      "logs": [],
      "logsBloom": "0x00000000000000000000000000000000000000000000000000000000000000000000000000000000000000000000000000000000000000000000000000000000000000000000000000000000000000000000000000000000000000000000000000000000000000000000000000000000000000000000000000000000000000000000000000000000000000000000000000000000000000000000000000000000000000000000000000000000000000000000000000000000000000000000000000000000000000000000000000000000000000000000000000000000000000000000000000000000000000000000000000000000000000000000000000000000",
      "type": "0x2",
      "transactionHash": "0x6e1290d500dcbc618abfc785ed7b36cd1c8b0d5b7fb7940824f0e47315a9853e",
      "transactionIndex": "0x1",
      "blockHash": "0x2dfbb74bb659cd95af4074edf75e490ce28f181e7c7be58a6671abe44cf21a62",
      "blockNumber": "0x58ea9c4",
      "gasUsed": "0x3865c",
      "effectiveGasPrice": "0x5f5e100",
      "from": "0xe62ab4d111f968660c6b2188046f9b9ba53c4bae",
      "to": "0x74972e7ff5561bd902e3ec3ddd5a22653088ca6f",
      "contractAddress": null,
      "gasUsedForL1": "0x29d8",
      "l1BlockNumber": "0x6a8da1"
    },
    {
      "status": "0x1",
      "cumulativeGasUsed": "0x39853",
      "logs": [],
      "logsBloom": "0x00000000000000000000000000000000000000000000000000000000000000000000000000000000000000000000000000000000000000000000000000000000000000000000000000000000000000000000000000000000000000000000000000000000000000000000000000000000000000000000000000000000000000000000000000000000000000000000000000000000000000000000000000000000000000000000000000000000000000000000000000000000000000000000000000000000000000000000000000000000000000000000000000000000000000000000000000000000000000000000000000000000000000000000000000000000",
      "type": "0x2",
      "transactionHash": "0x9666601b1c5a71ac37de152b57cef367118b05279655551fe1c1550d4d6e7cd8",
      "transactionIndex": "0x1",
      "blockHash": "0x49cc9153be5c3ca04f4e6aaf452d91df5e95024579afe292bf47e99b9bf5575b",
      "blockNumber": "0x58ea9c7",
      "gasUsed": "0x39853",
      "effectiveGasPrice": "0x5f5e100",
      "from": "0xe62ab4d111f968660c6b2188046f9b9ba53c4bae",
      "to": "0x74972e7ff5561bd902e3ec3ddd5a22653088ca6f",
      "contractAddress": null,
      "gasUsedForL1": "0x2b65",
      "l1BlockNumber": "0x6a8da1"
    },
    {
      "status": "0x1",
      "cumulativeGasUsed": "0x398e2",
      "logs": [],
      "logsBloom": "0x00000000000000000000000000000000000000000000000000000000000000000000000000000000000000000000000000000000000000000000000000000000000000000000000000000000000000000000000000000000000000000000000000000000000000000000000000000000000000000000000000000000000000000000000000000000000000000000000000000000000000000000000000000000000000000000000000000000000000000000000000000000000000000000000000000000000000000000000000000000000000000000000000000000000000000000000000000000000000000000000000000000000000000000000000000000",
      "type": "0x2",
      "transactionHash": "0xb15ae44bf586f5c09bda0dd008e3aadd1ad0990f3bc390476f3457df2baa8ce3",
      "transactionIndex": "0x1",
      "blockHash": "0xe2a8e32fa0632783a43234ef83aa2221fcd07d690620465680b0f7b4899b7983",
      "blockNumber": "0x58ea9e7",
      "gasUsed": "0x398e2",
      "effectiveGasPrice": "0x5f5e100",
      "from": "0xe62ab4d111f968660c6b2188046f9b9ba53c4bae",
      "to": "0x74972e7ff5561bd902e3ec3ddd5a22653088ca6f",
      "contractAddress": null,
      "gasUsedForL1": "0x2a77",
      "l1BlockNumber": "0x6a8da3"
    },
    {
      "status": "0x1",
      "cumulativeGasUsed": "0x3a3eb",
      "logs": [],
      "logsBloom": "0x00000000000000000000000000000000000000000000000000000000000000000000000000000000000000000000000000000000000000000000000000000000000000000000000000000000000000000000000000000000000000000000000000000000000000000000000000000000000000000000000000000000000000000000000000000000000000000000000000000000000000000000000000000000000000000000000000000000000000000000000000000000000000000000000000000000000000000000000000000000000000000000000000000000000000000000000000000000000000000000000000000000000000000000000000000000",
      "type": "0x2",
      "transactionHash": "0x4108e12e6048569ab16e4ccc8ef18f1e60833471b75a34ba78d749e958a59348",
      "transactionIndex": "0x1",
      "blockHash": "0x995ff8d85aeb07b5311bf0bfd2e68df3bdc03aba78519a19ef25716e0fae06af",
      "blockNumber": "0x58ea9eb",
      "gasUsed": "0x3a3eb",
      "effectiveGasPrice": "0x5f5e100",
      "from": "0xe62ab4d111f968660c6b2188046f9b9ba53c4bae",
      "to": "0x74972e7ff5561bd902e3ec3ddd5a22653088ca6f",
      "contractAddress": null,
      "gasUsedForL1": "0x2a9f",
      "l1BlockNumber": "0x6a8da3"
    },
    {
      "status": "0x1",
      "cumulativeGasUsed": "0x4ab55",
      "logs": [],
      "logsBloom": "0x00000000000000000000000000000000000000000000000000000000000000000000000000000000000000000000000000000000000000000000000000000000000000000000000000000000000000000000000000000000000000000000000000000000000000000000000000000000000000000000000000000000000000000000000000000000000000000000000000000000000000000000000000000000000000000000000000000000000000000000000000000000000000000000000000000000000000000000000000000000000000000000000000000000000000000000000000000000000000000000000000000000000000000000000000000000",
      "type": "0x2",
      "transactionHash": "0x7db3c329c8c47296d7f64a80137275db868d9b31e08ea230d4027bbe5426db2c",
      "transactionIndex": "0x2",
      "blockHash": "0x9d5d9553a98e32bca8ab4fc2f1e4cbe957c94154c1939a2346ce3af56d1bce2c",
      "blockNumber": "0x58ea9ef",
      "gasUsed": "0x3b61c",
      "effectiveGasPrice": "0x5f5e100",
      "from": "0xe62ab4d111f968660c6b2188046f9b9ba53c4bae",
      "to": "0x74972e7ff5561bd902e3ec3ddd5a22653088ca6f",
      "contractAddress": null,
      "gasUsedForL1": "0x2b65",
      "l1BlockNumber": "0x6a8da3"
    },
    {
      "status": "0x1",
      "cumulativeGasUsed": "0x3b771",
      "logs": [],
      "logsBloom": "0x00000000000000000000000000000000000000000000000000000000000000000000000000000000000000000000000000000000000000000000000000000000000000000000000000000000000000000000000000000000000000000000000000000000000000000000000000000000000000000000000000000000000000000000000000000000000000000000000000000000000000000000000000000000000000000000000000000000000000000000000000000000000000000000000000000000000000000000000000000000000000000000000000000000000000000000000000000000000000000000000000000000000000000000000000000000",
      "type": "0x2",
      "transactionHash": "0xb884c2a52367c9a55c2a0c6af53278e1d95d58cd62c9d3ccb3085f153d365e37",
      "transactionIndex": "0x1",
      "blockHash": "0x9f3db4ecab4cbe760927423438f134e14ac55aca7d1ccce3323545bf06be6193",
      "blockNumber": "0x58eaa0e",
      "gasUsed": "0x3b771",
      "effectiveGasPrice": "0x5f5e100",
      "from": "0xe62ab4d111f968660c6b2188046f9b9ba53c4bae",
      "to": "0x74972e7ff5561bd902e3ec3ddd5a22653088ca6f",
      "contractAddress": null,
      "gasUsedForL1": "0x2b3d",
      "l1BlockNumber": "0x6a8da3"
    },
    {
      "status": "0x1",
      "cumulativeGasUsed": "0x430b3",
      "logs": [],
      "logsBloom": "0x00000000000000000000000000000000000000000000000000000000000000000000000000000000000000000000000000000000000000000000000000000000000000000000000000000000000000000000000000000000000000000000000000000000000000000000000000000000000000000000000000000000000000000000000000000000000000000000000000000000000000000000000000000000000000000000000000000000000000000000000000000000000000000000000000000000000000000000000000000000000000000000000000000000000000000000000000000000000000000000000000000000000000000000000000000000",
      "type": "0x2",
      "transactionHash": "0xd9f1e7c645604257edd4daaaa0e87da64526fe7a11b7bf02dabe38020375b1d1",
      "transactionIndex": "0x2",
      "blockHash": "0x1287db7b32d57e766b63c68fb2c52777b15bdb4bc726126271bb8e5707bea782",
      "blockNumber": "0x58eaa26",
      "gasUsed": "0x3b785",
      "effectiveGasPrice": "0x5f5e100",
      "from": "0xe62ab4d111f968660c6b2188046f9b9ba53c4bae",
      "to": "0x74972e7ff5561bd902e3ec3ddd5a22653088ca6f",
      "contractAddress": null,
      "gasUsedForL1": "0x2a77",
      "l1BlockNumber": "0x6a8da4"
    },
    {
      "status": "0x1",
      "cumulativeGasUsed": "0x3cab7",
      "logs": [],
      "logsBloom": "0x00000000000000000000000000000000000000000000000000000000000000000000000000000000000000000000000000000000000000000000000000000000000000000000000000000000000000000000000000000000000000000000000000000000000000000000000000000000000000000000000000000000000000000000000000000000000000000000000000000000000000000000000000000000000000000000000000000000000000000000000000000000000000000000000000000000000000000000000000000000000000000000000000000000000000000000000000000000000000000000000000000000000000000000000000000000",
      "type": "0x2",
      "transactionHash": "0x43f0e7aa2a8400be0496e0ed42f3a791e8e3ed8a79d92628720f115c89f6eaa6",
      "transactionIndex": "0x1",
      "blockHash": "0x7683b0e9eaeea27dd510430d9dafa49afbd9aaab182b9f9175c852cbbd930f76",
      "blockNumber": "0x58eaa42",
      "gasUsed": "0x3cab7",
      "effectiveGasPrice": "0x5f5e100",
      "from": "0xe62ab4d111f968660c6b2188046f9b9ba53c4bae",
      "to": "0x74972e7ff5561bd902e3ec3ddd5a22653088ca6f",
      "contractAddress": null,
      "gasUsedForL1": "0x2b3d",
      "l1BlockNumber": "0x6a8da4"
    },
    {
      "status": "0x1",
      "cumulativeGasUsed": "0x43037",
      "logs": [],
      "logsBloom": "0x00000000000000000000000000000000000000000000000000000000000000000000000000000000000000000000000000000000000000000000000000000000000000000000000000000000000000000000000000000000000000000000000000000000000000000000000000000000000000000000000000000000000000000000000000000000000000000000000000000000000000000000000000000000000000000000000000000000000000000000000000000000000000000000000000000000000000000000000000000000000000000000000000000000000000000000000000000000000000000000000000000000000000000000000000000000",
      "type": "0x2",
      "transactionHash": "0xad6b50ba91f26e0ba6a7eb88e990c999d54be75ff8a69c48d8d7d761020bf1ee",
      "transactionIndex": "0x2",
      "blockHash": "0x71b909ed1b93a90e5ce60957df73c83c83b3ee9b4d84a07e51acb7e23313d087",
      "blockNumber": "0x58eaa60",
      "gasUsed": "0x3cc0d",
      "effectiveGasPrice": "0x5f5e100",
      "from": "0xe62ab4d111f968660c6b2188046f9b9ba53c4bae",
      "to": "0x74972e7ff5561bd902e3ec3ddd5a22653088ca6f",
      "contractAddress": null,
      "gasUsedForL1": "0x2b16",
      "l1BlockNumber": "0x6a8da5"
    },
    {
      "status": "0x1",
      "cumulativeGasUsed": "0x3c5ae",
      "logs": [],
      "logsBloom": "0x00000000000000000000000000000000000000000000000000000000000000000000000000000000000000000000000000000000000000000000000000000000000000000000000000000000000000000000000000000000000000000000000000000000000000000000000000000000000000000000000000000000000000000000000000000000000000000000000000000000000000000000000000000000000000000000000000000000000000000000000000000000000000000000000000000000000000000000000000000000000000000000000000000000000000000000000000000000000000000000000000000000000000000000000000000000",
      "type": "0x2",
      "transactionHash": "0xca6dbba1ff57fdc3f4a269b84b055c96033fab572008c8e840a8f4e4d1df0dd8",
      "transactionIndex": "0x1",
      "blockHash": "0x9761567cc12d4a4526c333da29c845aa09ef693589f2fc0e6d41094b95a3452a",
      "blockNumber": "0x58eaa7e",
      "gasUsed": "0x3c5ae",
      "effectiveGasPrice": "0x5f5e100",
      "from": "0xe62ab4d111f968660c6b2188046f9b9ba53c4bae",
      "to": "0x74972e7ff5561bd902e3ec3ddd5a22653088ca6f",
      "contractAddress": null,
      "gasUsedForL1": "0x2961",
      "l1BlockNumber": "0x6a8da5"
    },
    {
      "status": "0x1",
      "cumulativeGasUsed": "0x3da59",
      "logs": [],
      "logsBloom": "0x00000000000000000000000000000000000000000000000000000000000000000000000000000000000000000000000000000000000000000000000000000000000000000000000000000000000000000000000000000000000000000000000000000000000000000000000000000000000000000000000000000000000000000000000000000000000000000000000000000000000000000000000000000000000000000000000000000000000000000000000000000000000000000000000000000000000000000000000000000000000000000000000000000000000000000000000000000000000000000000000000000000000000000000000000000000",
      "type": "0x2",
      "transactionHash": "0xa5320d307975519ca988f4d3792365da64e144e54b15a44d28566e32db65de9c",
      "transactionIndex": "0x1",
      "blockHash": "0xcb8b269f32408351071a2f5c49f9c3b52b02f0e1754750f457f3472b96b1f5b6",
      "blockNumber": "0x58eaa96",
      "gasUsed": "0x3da59",
      "effectiveGasPrice": "0x5f5e100",
      "from": "0xe62ab4d111f968660c6b2188046f9b9ba53c4bae",
      "to": "0x74972e7ff5561bd902e3ec3ddd5a22653088ca6f",
      "contractAddress": null,
      "gasUsedForL1": "0x2a9f",
      "l1BlockNumber": "0x6a8da6"
    },
    {
      "status": "0x1",
      "cumulativeGasUsed": "0x3dbfd",
      "logs": [],
      "logsBloom": "0x00000000000000000000000000000000000000000000000000000000000000000000000000000000000000000000000000000000000000000000000000000000000000000000000000000000000000000000000000000000000000000000000000000000000000000000000000000000000000000000000000000000000000000000000000000000000000000000000000000000000000000000000000000000000000000000000000000000000000000000000000000000000000000000000000000000000000000000000000000000000000000000000000000000000000000000000000000000000000000000000000000000000000000000000000000000",
      "type": "0x2",
      "transactionHash": "0x12dd2d0be5aafacf14aaac43d380f03f9410dfb94005cd665f99ec12252cdeb6",
      "transactionIndex": "0x1",
      "blockHash": "0x195f685340ace5c8ad173ef9bea1a23618030ced5e3865f1831138582b84512e",
      "blockNumber": "0x58eaa99",
      "gasUsed": "0x3dbfd",
      "effectiveGasPrice": "0x5f5e100",
      "from": "0xe62ab4d111f968660c6b2188046f9b9ba53c4bae",
      "to": "0x74972e7ff5561bd902e3ec3ddd5a22653088ca6f",
      "contractAddress": null,
      "gasUsedForL1": "0x2ac6",
      "l1BlockNumber": "0x6a8da6"
    },
    {
      "status": "0x1",
      "cumulativeGasUsed": "0xbb793",
      "logs": [],
      "logsBloom": "0x00000000000000000000000000000000000000000000000000000000000000000000000000000000000000000000000000000000000000000000000000000000000000000000000000000000000000000000000000000000000000000000000000000000000000000000000000000000000000000000000000000000000000000000000000000000000000000000000000000000000000000000000000000000000000000000000000000000000000000000000000000000000000000000000000000000000000000000000000000000000000000000000000000000000000000000000000000000000000000000000000000000000000000000000000000000",
      "type": "0x2",
      "transactionHash": "0x7a3904d7fe0cabaeb8a69ecc2cadab46d559ca4166446d43ffef5d56979bf903",
      "transactionIndex": "0x5",
      "blockHash": "0xd39e029b8c5cdccca835776741e2dedd9f00f7fed1b50606ba5ce4ed466648c6",
      "blockNumber": "0x58eaab5",
      "gasUsed": "0x3df09",
      "effectiveGasPrice": "0x6ac38b0",
      "from": "0xe62ab4d111f968660c6b2188046f9b9ba53c4bae",
      "to": "0x74972e7ff5561bd902e3ec3ddd5a22653088ca6f",
      "contractAddress": null,
      "gasUsedForL1": "0x2798",
      "l1BlockNumber": "0x6a8da8"
    },
    {
      "status": "0x1",
      "cumulativeGasUsed": "0x3e1d9",
      "logs": [],
      "logsBloom": "0x00000000000000000000000000000000000000000000000000000000000000000000000000000000000000000000000000000000000000000000000000000000000000000000000000000000000000000000000000000000000000000000000000000000000000000000000000000000000000000000000000000000000000000000000000000000000000000000000000000000000000000000000000000000000000000000000000000000000000000000000000000000000000000000000000000000000000000000000000000000000000000000000000000000000000000000000000000000000000000000000000000000000000000000000000000000",
      "type": "0x2",
      "transactionHash": "0x1ad0470770bb519bb84f84862d004d4fadfb6b94511b9d171ffb2d7895b009d7",
      "transactionIndex": "0x1",
      "blockHash": "0x8353c64cfd8f793937452a7306e5cd5336fe593c0edcac8b1008f39c1b6d3fd0",
      "blockNumber": "0x58eaac4",
      "gasUsed": "0x3e1d9",
      "effectiveGasPrice": "0x6a69360",
      "from": "0xe62ab4d111f968660c6b2188046f9b9ba53c4bae",
      "to": "0x74972e7ff5561bd902e3ec3ddd5a22653088ca6f",
      "contractAddress": null,
      "gasUsedForL1": "0x1663",
      "l1BlockNumber": "0x6a8da8"
    },
    {
      "status": "0x1",
      "cumulativeGasUsed": "0x4e378",
      "logs": [],
      "logsBloom": "0x00000000000000000000000000000000000000000000000000000000000000000000000000000000000000000000000000000000000000000000000000000000000000000000000000000000000000000000000000000000000000000000000000000000000000000000000000000000000000000000000000000000000000000000000000000000000000000000000000000000000000000000000000000000000000000000000000000000000000000000000000000000000000000000000000000000000000000000000000000000000000000000000000000000000000000000000000000000000000000000000000000000000000000000000000000000",
      "type": "0x2",
      "transactionHash": "0xda9c070ba97129c2a9b1022c6f93f2c1ec9196ffb4c03550e0cee8f5fe9f394f",
      "transactionIndex": "0x2",
      "blockHash": "0x61eecef2d48f7ea690ea025ff74fe05e102a14bab1f9bfc6b347ca32c48f925d",
      "blockNumber": "0x58eaac8",
      "gasUsed": "0x3e51f",
      "effectiveGasPrice": "0x69be500",
      "from": "0xe62ab4d111f968660c6b2188046f9b9ba53c4bae",
      "to": "0x74972e7ff5561bd902e3ec3ddd5a22653088ca6f",
      "contractAddress": null,
      "gasUsedForL1": "0x16f1",
      "l1BlockNumber": "0x6a8da8"
    },
    {
      "status": "0x1",
      "cumulativeGasUsed": "0x793ac",
      "logs": [],
      "logsBloom": "0x00000000000000000000000000000000000000000000000000000000000000000000000000000000000000000000000000000000000000000000000000000000000000000000000000000000000000000000000000000000000000000000000000000000000000000000000000000000000000000000000000000000000000000000000000000000000000000000000000000000000000000000000000000000000000000000000000000000000000000000000000000000000000000000000000000000000000000000000000000000000000000000000000000000000000000000000000000000000000000000000000000000000000000000000000000000",
      "type": "0x2",
      "transactionHash": "0x3fb13bc3109034dd4807126ae8f9399b2e98df5c4fb9955cf9b5fe494b536a04",
      "transactionIndex": "0x3",
      "blockHash": "0x37882b829ea2fd6478b28e2f2f0e960ed68741aa01f8e3f7830dbf8951692e4a",
      "blockNumber": "0x58eaacc",
      "gasUsed": "0x3db1f",
      "effectiveGasPrice": "0x6946af0",
      "from": "0xe62ab4d111f968660c6b2188046f9b9ba53c4bae",
      "to": "0x74972e7ff5561bd902e3ec3ddd5a22653088ca6f",
      "contractAddress": null,
      "gasUsedForL1": "0x15cd",
      "l1BlockNumber": "0x6a8da8"
    },
    {
      "status": "0x1",
      "cumulativeGasUsed": "0x6ab4f",
      "logs": [],
      "logsBloom": "0x00000000000000000000000000000000000000000000000000000000000000000000000000000000000000000000000000000000000000000000000000000000000000000000000000000000000000000000000000000000000000000000000000000000000000000000000000000000000000000000000000000000000000000000000000000000000000000000000000000000000000000000000000000000000000000000000000000000000000000000000000000000000000000000000000000000000000000000000000000000000000000000000000000000000000000000000000000000000000000000000000000000000000000000000000000000",
      "type": "0x2",
      "transactionHash": "0x70eef8733ef3299fdbeb93f766db83613ceec8aebfb40ae7dda798ce0e378d01",
      "transactionIndex": "0x2",
      "blockHash": "0x77c0aa7b47727f7384f45d0d3665e5b2f3805e253462293be54aaf685ca27f95",
      "blockNumber": "0x58eaad0",
      "gasUsed": "0x3f14a",
      "effectiveGasPrice": "0x68eecb0",
      "from": "0xe62ab4d111f968660c6b2188046f9b9ba53c4bae",
      "to": "0x74972e7ff5561bd902e3ec3ddd5a22653088ca6f",
      "contractAddress": null,
      "gasUsedForL1": "0x1689",
      "l1BlockNumber": "0x6a8da8"
    },
    {
      "status": "0x1",
      "cumulativeGasUsed": "0x6ef61",
      "logs": [],
      "logsBloom": "0x00000000000000000000000000000000000000000000000000000000000000000000000000000000000000000000000000000000000000000000000000000000000000000000000000000000000000000000000000000000000000000000000000000000000000000000000000000000000000000000000000000000000000000000000000000000000000000000000000000000000000000000000000000000000000000000000000000000000000000000000000000000000000000000000000000000000000000000000000000000000000000000000000000000000000000000000000000000000000000000000000000000000000000000000000000000",
      "type": "0x2",
      "transactionHash": "0x23eee7cef8d2419274598700b72cb66c27709c96c78d5db4e2d73b2223f2f31d",
      "transactionIndex": "0x4",
      "blockHash": "0x979a29f9025e8dffc2afa29d82643512544094d55bdca315bb1a1876e0f63ef0",
      "blockNumber": "0x58eaad4",
      "gasUsed": "0x3f30f",
      "effectiveGasPrice": "0x6868840",
      "from": "0xe62ab4d111f968660c6b2188046f9b9ba53c4bae",
      "to": "0x74972e7ff5561bd902e3ec3ddd5a22653088ca6f",
      "contractAddress": null,
      "gasUsedForL1": "0x16d1",
      "l1BlockNumber": "0x6a8da8"
    },
    {
      "status": "0x1",
      "cumulativeGasUsed": "0x98283",
      "logs": [],
      "logsBloom": "0x00000000000000000000000000000000000000000000000000000000000000000000000000000000000000000000000000000000000000000000000000000000000000000000000000000000000000000000000000000000000000000000000000000000000000000000000000000000000000000000000000000000000000000000000000000000000000000000000000000000000000000000000000000000000000000000000000000000000000000000000000000000000000000000000000000000000000000000000000000000000000000000000000000000000000000000000000000000000000000000000000000000000000000000000000000000",
      "type": "0x2",
      "transactionHash": "0xff8c403758493db3cebeb96cecf3bc4f751fc670e6eadaed3c1acbd84a3e009c",
      "transactionIndex": "0x6",
      "blockHash": "0x39539f03cf31743dfd6758dea2217be4dcefc25fd63a9628f22cf7de58ac76a4",
      "blockNumber": "0x58eaad8",
      "gasUsed": "0x3f190",
      "effectiveGasPrice": "0x67aef80",
      "from": "0xe62ab4d111f968660c6b2188046f9b9ba53c4bae",
      "to": "0x74972e7ff5561bd902e3ec3ddd5a22653088ca6f",
      "contractAddress": null,
      "gasUsedForL1": "0x16fa",
      "l1BlockNumber": "0x6a8da8"
    },
    {
      "status": "0x1",
      "cumulativeGasUsed": "0x7c0fb",
      "logs": [],
      "logsBloom": "0x00000000000000000000000000000000000000000000000000000000000000000000000000000000000000000000000000000000000000000000000000000000000000000000000000000000000000000000000000000000000000000000000000000000000000000000000000000000000000000000000000000000000000000000000000000000000000000000000000000000000000000000000000000000000000000000000000000000000000000000000000000000000000000000000000000000000000000000000000000000000000000000000000000000000000000000000000000000000000000000000000000000000000000000000000000000",
      "type": "0x2",
      "transactionHash": "0x235422fc2b08ed9eabb7aa60ad0bdd27e29737a33fcd7e70137a1f4daf96dbf4",
      "transactionIndex": "0x3",
      "blockHash": "0xa775feeb8fd968910cd9a634a76ef4740af11b42524a20cc92cc5eb325a6da91",
      "blockNumber": "0x58eaadc",
      "gasUsed": "0x4078c",
      "effectiveGasPrice": "0x6710470",
      "from": "0xe62ab4d111f968660c6b2188046f9b9ba53c4bae",
      "to": "0x74972e7ff5561bd902e3ec3ddd5a22653088ca6f",
      "contractAddress": null,
      "gasUsedForL1": "0x1686",
      "l1BlockNumber": "0x6a8da8"
    },
    {
      "status": "0x1",
      "cumulativeGasUsed": "0xc381e",
      "logs": [],
      "logsBloom": "0x00000000000000000000000000000000000000000000000000000000000000000000000000000000000000000000000000000000000000000000000000000000000000000000000000000000000000000000000000000000000000000000000000000000000000000000000000000000000000000000000000000000000000000000000000000000000000000000000000000000000000000000000000000000000000000000000000000000000000000000000000000000000000000000000000000000000000000000000000000000000000000000000000000000000000000000000000000000000000000000000000000000000000000000000000000000",
      "type": "0x2",
      "transactionHash": "0xb1d690826469485881c184754f0042f5be8eab07247420fbca77d0e1ae57e905",
      "transactionIndex": "0x3",
      "blockHash": "0x3e7b474ca8847636b0c6562d3311c851e3d5ff75c6b011c33fc1ec426f2bac32",
      "blockNumber": "0x58eaae0",
      "gasUsed": "0x40948",
      "effectiveGasPrice": "0x66544a0",
      "from": "0xe62ab4d111f968660c6b2188046f9b9ba53c4bae",
      "to": "0x74972e7ff5561bd902e3ec3ddd5a22653088ca6f",
      "contractAddress": null,
      "gasUsedForL1": "0x16c5",
      "l1BlockNumber": "0x6a8da8"
    },
    {
      "status": "0x1",
      "cumulativeGasUsed": "0xa8a6c",
      "logs": [],
      "logsBloom": "0x00000000000000000000000000000000000000000000000000000000000000000000000000000000000000000000000000000000000000000000000000000000000000000000000000000000000000000000000000000000000000000000000000000000000000000000000000000000000000000000000000000000000000000000000000000000000000000000000000000000000000000000000000000000000000000000000000000000000000000000000000000000000000000000000000000000000000000000000000000000000000000000000000000000000000000000000000000000000000000000000000000000000000000000000000000000",
      "type": "0x2",
      "transactionHash": "0x909b6f985dc8df4fcd0000ccdfdfb181a6a614e7aed7de805c711afac8a5c002",
      "transactionIndex": "0x5",
      "blockHash": "0xbc2a3eca620c22f4a8dad8983b740361bea04676e41c7ebaf9524c6ba9531211",
      "blockNumber": "0x58eaae4",
      "gasUsed": "0x40742",
      "effectiveGasPrice": "0x65c43f0",
      "from": "0xe62ab4d111f968660c6b2188046f9b9ba53c4bae",
      "to": "0x74972e7ff5561bd902e3ec3ddd5a22653088ca6f",
      "contractAddress": null,
      "gasUsedForL1": "0x1769",
      "l1BlockNumber": "0x6a8da8"
    },
    {
      "status": "0x1",
      "cumulativeGasUsed": "0x1025dc",
      "logs": [],
      "logsBloom": "0x00000000000000000000000000000000000000000000000000000000000000000000000000000000000000000000000000000000000000000000000000000000000000000000000000000000000000000000000000000000000000000000000000000000000000000000000000000000000000000000000000000000000000000000000000000000000000000000000000000000000000000000000000000000000000000000000000000000000000000000000000000000000000000000000000000000000000000000000000000000000000000000000000000000000000000000000000000000000000000000000000000000000000000000000000000000",
      "type": "0x2",
      "transactionHash": "0x6390ad8af712d75dc00f080c23cc6ab5f001b67d45bdac5a2b7bb3665ecba31e",
      "transactionIndex": "0x4",
      "blockHash": "0x0dc79d24fc7836496d7253010879b961e00d0d7b1716b9f2e9066ae3c058ae4b",
      "blockNumber": "0x58eaae8",
      "gasUsed": "0x41e60",
      "effectiveGasPrice": "0x654f0f0",
      "from": "0xe62ab4d111f968660c6b2188046f9b9ba53c4bae",
      "to": "0x74972e7ff5561bd902e3ec3ddd5a22653088ca6f",
      "contractAddress": null,
      "gasUsedForL1": "0x1716",
      "l1BlockNumber": "0x6a8da8"
    },
    {
      "status": "0x1",
      "cumulativeGasUsed": "0x34103e",
      "logs": [],
      "logsBloom": "0x00000000000000000000000000000000000000000000000000000000000000000000000000000000000000000000000000000000000000000000000000000000000000000000000000000000000000000000000000000000000000000000000000000000000000000000000000000000000000000000000000000000000000000000000000000000000000000000000000000000000000000000000000000000000000000000000000000000000000000000000000000000000000000000000000000000000000000000000000000000000000000000000000000000000000000000000000000000000000000000000000000000000000000000000000000000",
      "type": "0x2",
      "transactionHash": "0x9cf1867b93176f6b628019a655f7e669c3bb2c8b9083a19ee575e1de59ab43c5",
      "transactionIndex": "0xd",
      "blockHash": "0xf2c12d2d29c2b751e5b8258212a0489875cb019a825899ba459e727207136857",
      "blockNumber": "0x58eab09",
      "gasUsed": "0x41f42",
      "effectiveGasPrice": "0x6930b60",
      "from": "0xe62ab4d111f968660c6b2188046f9b9ba53c4bae",
      "to": "0x74972e7ff5561bd902e3ec3ddd5a22653088ca6f",
      "contractAddress": null,
      "gasUsedForL1": "0x167b",
      "l1BlockNumber": "0x6a8da9"
    },
    {
      "status": "0x1",
      "cumulativeGasUsed": "0x117760",
      "logs": [],
      "logsBloom": "0x00000000000000000000000000000000000000000000000000000000000000000000000000000000000000000000000000000000000000000000000000000000000000000000000000000000000000000000000000000000000000000000000000000000000000000000000000000000000000000000000000000000000000000000000000000000000000000000000000000000000000000000000000000000000000000000000000000000000000000000000000000000000000000000000000000000000000000000000000000000000000000000000000000000000000000000000000000000000000000000000000000000000000000000000000000000",
      "type": "0x2",
      "transactionHash": "0x1659390c313ce43c3035d86b584b4643012010042cb7634d21705916513fc25c",
      "transactionIndex": "0x5",
      "blockHash": "0xff74193e0cb23ef5241bbc47032da5c90768fd8c1fd146a3dbd212d005ae6126",
      "blockNumber": "0x58eab2a",
      "gasUsed": "0x41cc0",
      "effectiveGasPrice": "0x7075100",
      "from": "0xe62ab4d111f968660c6b2188046f9b9ba53c4bae",
      "to": "0x74972e7ff5561bd902e3ec3ddd5a22653088ca6f",
      "contractAddress": null,
      "gasUsedForL1": "0x15ba",
      "l1BlockNumber": "0x6a8da9"
    },
    {
      "status": "0x1",
      "cumulativeGasUsed": "0x1130d3",
      "logs": [],
      "logsBloom": "0x00000000000000000000000000000000000000000000000000000000000000000000000000000000000000000000000000000000000000000000000000000000000000000000000000000000000000000000000000000000000000000000000000000000000000000000000000000000000000000000000000000000000000000000000000000000000000000000000000000000000000000000000000000000000000000000000000000000000000000000000000000000000000000000000000000000000000000000000000000000000000000000000000000000000000000000000000000000000000000000000000000000000000000000000000000000",
      "type": "0x2",
      "transactionHash": "0xa2d643ba5ecde2d31f828beced08c13eae08c5f3fcd8d24354b3c33c3f62b678",
      "transactionIndex": "0x6",
      "blockHash": "0x88a03bd2cd4d273f7c993e5d7b375e13ae3fe9708ac91b2c03847b0591d92c60",
      "blockNumber": "0x58eab4b",
      "gasUsed": "0x434f9",
      "effectiveGasPrice": "0x6fcf0c0",
      "from": "0xe62ab4d111f968660c6b2188046f9b9ba53c4bae",
      "to": "0x74972e7ff5561bd902e3ec3ddd5a22653088ca6f",
      "contractAddress": null,
      "gasUsedForL1": "0x14af",
      "l1BlockNumber": "0x6a8daa"
    },
    {
      "status": "0x1",
      "cumulativeGasUsed": "0x4372f",
      "logs": [],
      "logsBloom": "0x00000000000000000000000000000000000000000000000000000000000000000000000000000000000000000000000000000000000000000000000000000000000000000000000000000000000000000000000000000000000000000000000000000000000000000000000000000000000000000000000000000000000000000000000000000000000000000000000000000000000000000000000000000000000000000000000000000000000000000000000000000000000000000000000000000000000000000000000000000000000000000000000000000000000000000000000000000000000000000000000000000000000000000000000000000000",
      "type": "0x2",
      "transactionHash": "0x30bc5464b7602dd2f84ab3565c4bdf228bc2032a147daac2f06fc65464a4be5e",
      "transactionIndex": "0x1",
      "blockHash": "0xbeae6af52d1961850808b9d74df3ea33d3964794fb5bfa373a5eb7d6d8352696",
      "blockNumber": "0x58eab6b",
      "gasUsed": "0x4372f",
      "effectiveGasPrice": "0x6ac86d0",
      "from": "0xe62ab4d111f968660c6b2188046f9b9ba53c4bae",
      "to": "0x74972e7ff5561bd902e3ec3ddd5a22653088ca6f",
      "contractAddress": null,
      "gasUsedForL1": "0x163a",
      "l1BlockNumber": "0x6a8dab"
    },
    {
      "status": "0x1",
      "cumulativeGasUsed": "0x43093",
      "logs": [],
      "logsBloom": "0x00000000000000000000000000000000000000000000000000000000000000000000000000000000000000000000000000000000000000000000000000000000000000000000000000000000000000000000000000000000000000000000000000000000000000000000000000000000000000000000000000000000000000000000000000000000000000000000000000000000000000000000000000000000000000000000000000000000000000000000000000000000000000000000000000000000000000000000000000000000000000000000000000000000000000000000000000000000000000000000000000000000000000000000000000000000",
      "type": "0x2",
      "transactionHash": "0xa910cd63478d41f03cb650ad9ce5ff41578717fd020b4d0ada21f792b75f608f",
      "transactionIndex": "0x1",
      "blockHash": "0xfe5bb63853684bba2d67b296ea895d2ebd94d574b974f26e119b4efbac8ed7e3",
      "blockNumber": "0x58eab88",
      "gasUsed": "0x43093",
      "effectiveGasPrice": "0x6403070",
      "from": "0xe62ab4d111f968660c6b2188046f9b9ba53c4bae",
      "to": "0x74972e7ff5561bd902e3ec3ddd5a22653088ca6f",
      "contractAddress": null,
      "gasUsedForL1": "0x174c",
      "l1BlockNumber": "0x6a8dab"
    },
    {
      "status": "0x1",
      "cumulativeGasUsed": "0x44b7f",
      "logs": [],
      "logsBloom": "0x00000000000000000000000000000000000000000000000000000000000000000000000000000000000000000000000000000000000000000000000000000000000000000000000000000000000000000000000000000000000000000000000000000000000000000000000000000000000000000000000000000000000000000000000000000000000000000000000000000000000000000000000000000000000000000000000000000000000000000000000000000000000000000000000000000000000000000000000000000000000000000000000000000000000000000000000000000000000000000000000000000000000000000000000000000000",
      "type": "0x2",
      "transactionHash": "0xa68bb16396ca8279f4e7eac08d690bd25e537e22bd39184fcc2fc25beeb1c451",
      "transactionIndex": "0x1",
      "blockHash": "0x62a0edf414bbf1a25c3954f508c5a07f170e86b873a1364515852ee244c4771a",
      "blockNumber": "0x58eab8b",
      "gasUsed": "0x44b7f",
      "effectiveGasPrice": "0x631d890",
      "from": "0xe62ab4d111f968660c6b2188046f9b9ba53c4bae",
      "to": "0x74972e7ff5561bd902e3ec3ddd5a22653088ca6f",
      "contractAddress": null,
      "gasUsedForL1": "0x17f3",
      "l1BlockNumber": "0x6a8dab"
    },
    {
      "status": "0x1",
      "cumulativeGasUsed": "0x1dd391",
      "logs": [],
      "logsBloom": "0x00000000000000000000000000000000000000000000000000000000000000000000000000000000000000000000000000000000000000000000000000000000000000000000000000000000000000000000000000000000000000000000000000000000000000000000000000000000000000000000000000000000000000000000000000000000000000000000000000000000000000000000000000000000000000000000000000000000000000000000000000000000000000000000000000000000000000000000000000000000000000000000000000000000000000000000000000000000000000000000000000000000000000000000000000000000",
      "type": "0x2",
      "transactionHash": "0xe35afd02ce2a1e254b7e9c777562f8687ab2afc09b734f19864f45af1226df36",
      "transactionIndex": "0xa",
      "blockHash": "0x9653edb930faf0eed8d75e2f3cb5f40a481c02026d2b18cac3f43a2e66d4b774",
      "blockNumber": "0x58eaba6",
      "gasUsed": "0x44d90",
      "effectiveGasPrice": "0x5f5e100",
      "from": "0xe62ab4d111f968660c6b2188046f9b9ba53c4bae",
      "to": "0x74972e7ff5561bd902e3ec3ddd5a22653088ca6f",
      "contractAddress": null,
      "gasUsedForL1": "0x1959",
      "l1BlockNumber": "0x6a8dad"
    },
    {
      "status": "0x1",
      "cumulativeGasUsed": "0x44aaa",
      "logs": [],
      "logsBloom": "0x00000000000000000000000000000000000000000000000000000000000000000000000000000000000000000000000000000000000000000000000000000000000000000000000000000000000000000000000000000000000000000000000000000000000000000000000000000000000000000000000000000000000000000000000000000000000000000000000000000000000000000000000000000000000000000000000000000000000000000000000000000000000000000000000000000000000000000000000000000000000000000000000000000000000000000000000000000000000000000000000000000000000000000000000000000000",
      "type": "0x2",
      "transactionHash": "0xc9d5850b62b6ae056b97bb37478bed90e3bceaf3ed4802a262f7c422179970df",
      "transactionIndex": "0x1",
      "blockHash": "0x925edb8e5e5336f84a7936814cd36b6d6d4374267f565acd271a0d27f20e20f0",
      "blockNumber": "0x58eabaa",
      "gasUsed": "0x44aaa",
      "effectiveGasPrice": "0x5f5e100",
      "from": "0xe62ab4d111f968660c6b2188046f9b9ba53c4bae",
      "to": "0x74972e7ff5561bd902e3ec3ddd5a22653088ca6f",
      "contractAddress": null,
      "gasUsedForL1": "0x1987",
      "l1BlockNumber": "0x6a8dad"
    },
    {
      "status": "0x1",
      "cumulativeGasUsed": "0x46536",
      "logs": [],
      "logsBloom": "0x00000000000000000000000000000000000000000000000000000000000000000000000000000000000000000000000000000000000000000000000000000000000000000000000000000000000000000000000000000000000000000000000000000000000000000000000000000000000000000000000000000000000000000000000000000000000000000000000000000000000000000000000000000000000000000000000000000000000000000000000000000000000000000000000000000000000000000000000000000000000000000000000000000000000000000000000000000000000000000000000000000000000000000000000000000000",
      "type": "0x2",
      "transactionHash": "0x96a1254fe6f8fb97d69dbf043651f80e369a9b47f5c22551dd98f052dbf913b7",
      "transactionIndex": "0x1",
      "blockHash": "0xf936419b201251f17f2e4d853dc88025c002374a061d4a3465335eb4af804732",
      "blockNumber": "0x58eabc5",
      "gasUsed": "0x46536",
      "effectiveGasPrice": "0x5f5e100",
      "from": "0xe62ab4d111f968660c6b2188046f9b9ba53c4bae",
      "to": "0x74972e7ff5561bd902e3ec3ddd5a22653088ca6f",
      "contractAddress": null,
      "gasUsedForL1": "0x199f",
      "l1BlockNumber": "0x6a8dad"
    },
    {
      "status": "0x1",
      "cumulativeGasUsed": "0x465f7",
      "logs": [],
      "logsBloom": "0x00000000000000000000000000000000000000000000000000000000000000000000000000000000000000000000000000000000000000000000000000000000000000000000000000000000000000000000000000000000000000000000000000000000000000000000000000000000000000000000000000000000000000000000000000000000000000000000000000000000000000000000000000000000000000000000000000000000000000000000000000000000000000000000000000000000000000000000000000000000000000000000000000000000000000000000000000000000000000000000000000000000000000000000000000000000",
      "type": "0x2",
      "transactionHash": "0x91943bd5ce1cfa8062a0bc723eb393581e3f8c29875be52b33c527626799c730",
      "transactionIndex": "0x1",
      "blockHash": "0x7a8cd597330058cb12a021e1def020728f8baec28289ca335b6d283f72e6d7bb",
      "blockNumber": "0x58eabd8",
      "gasUsed": "0x465f7",
      "effectiveGasPrice": "0x5f5e100",
      "from": "0xe62ab4d111f968660c6b2188046f9b9ba53c4bae",
      "to": "0x74972e7ff5561bd902e3ec3ddd5a22653088ca6f",
      "contractAddress": null,
      "gasUsedForL1": "0x18e3",
      "l1BlockNumber": "0x6a8dae"
    },
    {
      "status": "0x1",
      "cumulativeGasUsed": "0x45b01",
      "logs": [],
      "logsBloom": "0x00000000000000000000000000000000000000000000000000000000000000000000000000000000000000000000000000000000000000000000000000000000000000000000000000000000000000000000000000000000000000000000000000000000000000000000000000000000000000000000000000000000000000000000000000000000000000000000000000000000000000000000000000000000000000000000000000000000000000000000000000000000000000000000000000000000000000000000000000000000000000000000000000000000000000000000000000000000000000000000000000000000000000000000000000000000",
      "type": "0x2",
      "transactionHash": "0xeac8e7b3c18bc7f2944a96c18e2c8f7d430e6ea614ca711827278fb3a07817d0",
      "transactionIndex": "0x1",
      "blockHash": "0xb2a1bc3931eaef1f4f9f0bb3af3e08f7fde8e9bc7414166b39f974bff0d093dc",
      "blockNumber": "0x58eabf3",
      "gasUsed": "0x45b01",
      "effectiveGasPrice": "0x5f5e100",
      "from": "0xe62ab4d111f968660c6b2188046f9b9ba53c4bae",
      "to": "0x74972e7ff5561bd902e3ec3ddd5a22653088ca6f",
      "contractAddress": null,
      "gasUsedForL1": "0x186e",
      "l1BlockNumber": "0x6a8dae"
    },
    {
      "status": "0x1",
      "cumulativeGasUsed": "0xe0ed8",
      "logs": [],
      "logsBloom": "0x00000000000000000000000000000000000000000000000000000000000000000000000000000000000000000000000000000000000000000000000000000000000000000000000000000000000000000000000000000000000000000000000000000000000000000000000000000000000000000000000000000000000000000000000000000000000000000000000000000000000000000000000000000000000000000000000000000000000000000000000000000000000000000000000000000000000000000000000000000000000000000000000000000000000000000000000000000000000000000000000000000000000000000000000000000000",
      "type": "0x2",
      "transactionHash": "0x13edb3fa325a39f879fa83c85d3ee0b4ae33113674e58a739f9e8ed1f5365c23",
      "transactionIndex": "0x3",
      "blockHash": "0xd00947c7b688a2cfb501279c9c85cb8259ead4356ce49a10095eb5667c409798",
      "blockNumber": "0x58eac0e",
      "gasUsed": "0x4760d",
      "effectiveGasPrice": "0x5f5e100",
      "from": "0xe62ab4d111f968660c6b2188046f9b9ba53c4bae",
      "to": "0x74972e7ff5561bd902e3ec3ddd5a22653088ca6f",
      "contractAddress": null,
      "gasUsedForL1": "0x186e",
      "l1BlockNumber": "0x6a8daf"
    },
    {
      "status": "0x1",
      "cumulativeGasUsed": "0x5e852",
      "logs": [],
      "logsBloom": "0x00000000000000000000000000000000000000000000000000000000000000000000000000000000000000000000000000000000000000000000000000000000000000000000000000000000000000000000000000000000000000000000000000000000000000000000000000000000000000000000000000000000000000000000000000000000000000000000000000000000000000000000000000000000000000000000000000000000000000000000000000000000000000000000000000000000000000000000000000000000000000000000000000000000000000000000000000000000000000000000000000000000000000000000000000000000",
      "type": "0x2",
      "transactionHash": "0x62000c7332e08382437ab33a333ba4f1977f467f9cf889682f90ff645e0ed655",
      "transactionIndex": "0x2",
      "blockHash": "0x14c89b2b2ab8a0a7a0e8595713a32fb35f5797ea126d0c35bf4a43e3ea1219db",
      "blockNumber": "0x58eac12",
      "gasUsed": "0x476c4",
      "effectiveGasPrice": "0x5f5e100",
      "from": "0xe62ab4d111f968660c6b2188046f9b9ba53c4bae",
      "to": "0x74972e7ff5561bd902e3ec3ddd5a22653088ca6f",
      "contractAddress": null,
      "gasUsedForL1": "0x18e3",
      "l1BlockNumber": "0x6a8daf"
    },
    {
      "status": "0x1",
      "cumulativeGasUsed": "0xf44bf",
      "logs": [],
      "logsBloom": "0x00000000000000000000000000000000000000000000000000000000000000000000000000000000000000000000000000000000000000000000000000000000000000000000000000000000000000000000000000000000000000000000000000000000000000000000000000000000000000000000000000000000000000000000000000000000000000000000000000000000000000000000000000000000000000000000000000000000000000000000000000000000000000000000000000000000000000000000000000000000000000000000000000000000000000000000000000000000000000000000000000000000000000000000000000000000",
      "type": "0x2",
      "transactionHash": "0x4459cadad3046dd2859a252d007df7ce5eef8c4c849196514e06e0768736cfdc",
      "transactionIndex": "0x4",
      "blockHash": "0x5134e85e6088f3f6515e485dfb02df2428a96b5ec8eff9ea186c2f9f81ae0ef2",
      "blockNumber": "0x58eac2c",
      "gasUsed": "0x47068",
      "effectiveGasPrice": "0x5f5e100",
      "from": "0xe62ab4d111f968660c6b2188046f9b9ba53c4bae",
      "to": "0x74972e7ff5561bd902e3ec3ddd5a22653088ca6f",
      "contractAddress": null,
      "gasUsedForL1": "0x1941",
      "l1BlockNumber": "0x6a8daf"
    },
    {
      "status": "0x1",
      "cumulativeGasUsed": "0x48ae7",
      "logs": [],
      "logsBloom": "0x00000000000000000000000000000000000000000000000000000000000000000000000000000000000000000000000000000000000000000000000000000000000000000000000000000000000000000000000000000000000000000000000000000000000000000000000000000000000000000000000000000000000000000000000000000000000000000000000000000000000000000000000000000000000000000000000000000000000000000000000000000000000000000000000000000000000000000000000000000000000000000000000000000000000000000000000000000000000000000000000000000000000000000000000000000000",
      "type": "0x2",
      "transactionHash": "0x0b325fb684261302f1a8f45be41a6442ceec19eb6dee9a1ef9cafe1aac0a68b4",
      "transactionIndex": "0x1",
      "blockHash": "0xbd55baaf0a542255d69a95a1353db9af54ca6a7ee2e02f1180166bce15554811",
      "blockNumber": "0x58eac47",
      "gasUsed": "0x48ae7",
      "effectiveGasPrice": "0x5f5e100",
      "from": "0xe62ab4d111f968660c6b2188046f9b9ba53c4bae",
      "to": "0x74972e7ff5561bd902e3ec3ddd5a22653088ca6f",
      "contractAddress": null,
      "gasUsedForL1": "0x17b3",
      "l1BlockNumber": "0x6a8db0"
    },
    {
      "status": "0x1",
      "cumulativeGasUsed": "0x48d4e",
      "logs": [],
      "logsBloom": "0x00000000000000000000000000000000000000000000000000000000000000000000000000000000000000000000000000000000000000000000000000000000000000000000000000000000000000000000000000000000000000000000000000000000000000000000000000000000000000000000000000000000000000000000000000000000000000000000000000000000000000000000000000000000000000000000000000000000000000000000000000000000000000000000000000000000000000000000000000000000000000000000000000000000000000000000000000000000000000000000000000000000000000000000000000000000",
      "type": "0x2",
      "transactionHash": "0xf5cfc0b347a3d1ce4d4887c49f17e9e34b02bc9fa732a364c314f6af9e2cce0d",
      "transactionIndex": "0x1",
      "blockHash": "0x86809e9c7bc1a783bba35ee211694fe9abe5557abb0aa4040d89755808656d13",
      "blockNumber": "0x58eac5d",
      "gasUsed": "0x48d4e",
      "effectiveGasPrice": "0x5f5e100",
      "from": "0xe62ab4d111f968660c6b2188046f9b9ba53c4bae",
      "to": "0x74972e7ff5561bd902e3ec3ddd5a22653088ca6f",
      "contractAddress": null,
      "gasUsedForL1": "0x189d",
      "l1BlockNumber": "0x6a8db2"
    },
    {
      "status": "0x1",
      "cumulativeGasUsed": "0x48e53",
      "logs": [],
      "logsBloom": "0x00000000000000000000000000000000000000000000000000000000000000000000000000000000000000000000000000000000000000000000000000000000000000000000000000000000000000000000000000000000000000000000000000000000000000000000000000000000000000000000000000000000000000000000000000000000000000000000000000000000000000000000000000000000000000000000000000000000000000000000000000000000000000000000000000000000000000000000000000000000000000000000000000000000000000000000000000000000000000000000000000000000000000000000000000000000",
      "type": "0x2",
      "transactionHash": "0x555ce58e5288003b6d8b69069982f4fb05de8ceaa65cd08604a05639f6b79c80",
      "transactionIndex": "0x1",
      "blockHash": "0x1c2628e7b36493533cf1c1dbea70c988f6849891c55cc393a0bf00fef99f7104",
      "blockNumber": "0x58eac7b",
      "gasUsed": "0x48e53",
      "effectiveGasPrice": "0x5f5e100",
      "from": "0xe62ab4d111f968660c6b2188046f9b9ba53c4bae",
      "to": "0x74972e7ff5561bd902e3ec3ddd5a22653088ca6f",
      "contractAddress": null,
      "gasUsedForL1": "0x18e3",
      "l1BlockNumber": "0x6a8db2"
    },
    {
      "status": "0x1",
      "cumulativeGasUsed": "0x4ac28",
      "logs": [],
      "logsBloom": "0x00000000000000000000000000000000000000000000000000000000000000000000000000000000000000000000000000000000000000000000000000000000000000000000000000000000000000000000000000000000000000000000000000000000000000000000000000000000000000000000000000000000000000000000000000000000000000000000000000000000000000000000000000000000000000000000000000000000000000000000000000000000000000000000000000000000000000000000000000000000000000000000000000000000000000000000000000000000000000000000000000000000000000000000000000000000",
      "type": "0x2",
      "transactionHash": "0x0415b4b876e2e3ab13ff440d103cdea8249c344a3f4ac4d2ac2a6573fc679219",
      "transactionIndex": "0x1",
      "blockHash": "0xa49c86789b278b348ca51ac225f684ed253b8daa458263c9c22dd77724682a09",
      "blockNumber": "0x58eac92",
      "gasUsed": "0x4ac28",
      "effectiveGasPrice": "0x5f5e100",
      "from": "0xe62ab4d111f968660c6b2188046f9b9ba53c4bae",
      "to": "0x74972e7ff5561bd902e3ec3ddd5a22653088ca6f",
      "contractAddress": null,
      "gasUsedForL1": "0x1941",
      "l1BlockNumber": "0x6a8db3"
    },
    {
      "status": "0x1",
      "cumulativeGasUsed": "0x4ad8e",
      "logs": [],
      "logsBloom": "0x00000000000000000000000000000000000000000000000000000000000000000000000000000000000000000000000000000000000000000000000000000000000000000000000000000000000000000000000000000000000000000000000000000000000000000000000000000000000000000000000000000000000000000000000000000000000000000000000000000000000000000000000000000000000000000000000000000000000000000000000000000000000000000000000000000000000000000000000000000000000000000000000000000000000000000000000000000000000000000000000000000000000000000000000000000000",
      "type": "0x2",
      "transactionHash": "0x1d502c4d3667b312b1bee2776f6153d52804158eda6eca9b3c7e3130ffcdb367",
      "transactionIndex": "0x1",
      "blockHash": "0xf77260cdd01a424694e9deea65c66d72865f825019ffbaa260bcbbf3f987f24a",
      "blockNumber": "0x58eaca7",
      "gasUsed": "0x4ad8e",
      "effectiveGasPrice": "0x5f5e100",
      "from": "0xe62ab4d111f968660c6b2188046f9b9ba53c4bae",
      "to": "0x74972e7ff5561bd902e3ec3ddd5a22653088ca6f",
      "contractAddress": null,
      "gasUsedForL1": "0x192a",
      "l1BlockNumber": "0x6a8db3"
    }
  ],
  "libraries": [],
  "pending": [],
  "returns": {},
  "timestamp": 1730374416,
  "chain": 421614,
  "commit": "34a11392"
}