{
  "transactions": [
    {
      "hash": "0x63a99d40af0190d8246818c06d2b5366b32bb9773f41ea4ca9b089e798d3eb44",
      "transactionType": "CALL",
      "contractName": null,
      "contractAddress": "0x1211a2dd0d01848dc4042a7a354cb8a4c51df594",
      "function": "getFeeTokenList()",
      "arguments": [],
      "transaction": {
        "from": "0xe62ab4d111f968660c6b2188046f9b9ba53c4bae",
        "to": "0x1211a2dd0d01848dc4042a7a354cb8a4c51df594",
        "gas": "0x7cd4",
        "value": "0x0",
        "input": "0xe28ab277",
        "nonce": "0x31d",
        "chainId": "0x66eee"
      },
      "additionalContracts": [],
      "isFixedGasLimit": false
    },
    {
      "hash": "0xb2a67b4118b5e303b52bacf47ce1d15c179f3dc4c8b91a9be1e988d83beeaf9e",
      "transactionType": "CALL",
      "contractName": null,
      "contractAddress": "0x1211a2dd0d01848dc4042a7a354cb8a4c51df594",
      "function": "addFeeToken(string)",
      "arguments": [
        "0x92829288c6aa874c1a0f190da35a4023c22be637"
      ],
      "transaction": {
        "from": "0xe62ab4d111f968660c6b2188046f9b9ba53c4bae",
        "to": "0x1211a2dd0d01848dc4042a7a354cb8a4c51df594",
        "gas": "0x24606",
        "value": "0x0",
        "input": "0x12a6385f0000000000000000000000000000000000000000000000000000000000000020000000000000000000000000000000000000000000000000000000000000002a30783932383239323838633661613837346331613066313930646133356134303233633232626536333700000000000000000000000000000000000000000000",
        "nonce": "0x31e",
        "chainId": "0x66eee"
      },
      "additionalContracts": [],
      "isFixedGasLimit": false
    },
    {
      "hash": "0x480f00d93061787b9696c4243f43641786b4f5ae16bce522638cdddc3edae814",
      "transactionType": "CALL",
      "contractName": null,
      "contractAddress": "0x1211a2dd0d01848dc4042a7a354cb8a4c51df594",
      "function": "setFeeMultiplier(uint8,uint256)",
      "arguments": [
        "0",
        "2"
      ],
      "transaction": {
        "from": "0xe62ab4d111f968660c6b2188046f9b9ba53c4bae",
        "to": "0x1211a2dd0d01848dc4042a7a354cb8a4c51df594",
        "gas": "0xf653",
        "value": "0x0",
        "input": "0x0ee24eb500000000000000000000000000000000000000000000000000000000000000000000000000000000000000000000000000000000000000000000000000000002",
        "nonce": "0x31f",
        "chainId": "0x66eee"
      },
      "additionalContracts": [],
      "isFixedGasLimit": false
    },
    {
      "hash": "0x941738159b73a953cd21028c9486f60738aa45a439f4057630ded80a5ee73e18",
      "transactionType": "CALL",
      "contractName": null,
      "contractAddress": "0x1211a2dd0d01848dc4042a7a354cb8a4c51df594",
      "function": "setFeeMultiplier(uint8,uint256)",
      "arguments": [
        "1",
        "10"
      ],
      "transaction": {
        "from": "0xe62ab4d111f968660c6b2188046f9b9ba53c4bae",
        "to": "0x1211a2dd0d01848dc4042a7a354cb8a4c51df594",
        "gas": "0xf688",
        "value": "0x0",
        "input": "0x0ee24eb50000000000000000000000000000000000000000000000000000000000000001000000000000000000000000000000000000000000000000000000000000000a",
        "nonce": "0x320",
        "chainId": "0x66eee"
      },
      "additionalContracts": [],
      "isFixedGasLimit": false
    },
    {
      "hash": "0x578c2db49ca5c13eb4bd16a655d0276bfa9189f0ecc1b46e1acb18bb3a95584f",
      "transactionType": "CALL",
      "contractName": null,
      "contractAddress": "0x1211a2dd0d01848dc4042a7a354cb8a4c51df594",
      "function": "setFeeMultiplier(uint8,uint256)",
      "arguments": [
        "2",
        "1"
      ],
      "transaction": {
        "from": "0xe62ab4d111f968660c6b2188046f9b9ba53c4bae",
        "to": "0x1211a2dd0d01848dc4042a7a354cb8a4c51df594",
        "gas": "0xf6a6",
        "value": "0x0",
        "input": "0x0ee24eb500000000000000000000000000000000000000000000000000000000000000020000000000000000000000000000000000000000000000000000000000000001",
        "nonce": "0x321",
        "chainId": "0x66eee"
      },
      "additionalContracts": [],
      "isFixedGasLimit": false
    },
    {
      "hash": "0xa81c3d89a4eac6f8d29ddbed8cb49e3c2ce3f9faaac534e11782282e18a95d0e",
      "transactionType": "CALL",
      "contractName": null,
      "contractAddress": "0x1211a2dd0d01848dc4042a7a354cb8a4c51df594",
      "function": "setFeeMultiplier(uint8,uint256)",
      "arguments": [
        "3",
        "4"
      ],
      "transaction": {
        "from": "0xe62ab4d111f968660c6b2188046f9b9ba53c4bae",
        "to": "0x1211a2dd0d01848dc4042a7a354cb8a4c51df594",
        "gas": "0xf6c4",
        "value": "0x0",
        "input": "0x0ee24eb500000000000000000000000000000000000000000000000000000000000000030000000000000000000000000000000000000000000000000000000000000004",
        "nonce": "0x322",
        "chainId": "0x66eee"
      },
      "additionalContracts": [],
      "isFixedGasLimit": false
    },
    {
      "hash": "0xa3f246f4ed788837ce6b61c78a005900fc14bc1a45233e6c1ed9fac8428ddbdc",
      "transactionType": "CALL",
      "contractName": null,
      "contractAddress": "0x1211a2dd0d01848dc4042a7a354cb8a4c51df594",
      "function": "setFeeMultiplier(uint8,uint256)",
      "arguments": [
        "4",
        "4"
      ],
      "transaction": {
        "from": "0xe62ab4d111f968660c6b2188046f9b9ba53c4bae",
        "to": "0x1211a2dd0d01848dc4042a7a354cb8a4c51df594",
        "gas": "0xf6e2",
        "value": "0x0",
        "input": "0x0ee24eb500000000000000000000000000000000000000000000000000000000000000040000000000000000000000000000000000000000000000000000000000000004",
        "nonce": "0x323",
        "chainId": "0x66eee"
      },
      "additionalContracts": [],
      "isFixedGasLimit": false
    },
    {
      "hash": "0x4494d5c45c1a786e1e53a8ef033ce581804ba057600a19128b75456cc0b19519",
      "transactionType": "CALL",
      "contractName": null,
      "contractAddress": "0x1211a2dd0d01848dc4042a7a354cb8a4c51df594",
      "function": "setFeeMultiplier(uint8,uint256)",
      "arguments": [
        "5",
        "8"
      ],
      "transaction": {
        "from": "0xe62ab4d111f968660c6b2188046f9b9ba53c4bae",
        "to": "0x1211a2dd0d01848dc4042a7a354cb8a4c51df594",
        "gas": "0xf700",
        "value": "0x0",
        "input": "0x0ee24eb500000000000000000000000000000000000000000000000000000000000000050000000000000000000000000000000000000000000000000000000000000008",
        "nonce": "0x324",
        "chainId": "0x66eee"
      },
      "additionalContracts": [],
      "isFixedGasLimit": false
    },
    {
      "hash": "0xa782c18d66760830185346f6726580b263ef67eb04b1383508c1aa6ce55468d6",
      "transactionType": "CALL",
      "contractName": null,
      "contractAddress": "0x1211a2dd0d01848dc4042a7a354cb8a4c51df594",
      "function": "setFeeMultiplier(uint8,uint256)",
      "arguments": [
        "6",
        "4"
      ],
      "transaction": {
        "from": "0xe62ab4d111f968660c6b2188046f9b9ba53c4bae",
        "to": "0x1211a2dd0d01848dc4042a7a354cb8a4c51df594",
        "gas": "0xf717",
        "value": "0x0",
        "input": "0x0ee24eb500000000000000000000000000000000000000000000000000000000000000060000000000000000000000000000000000000000000000000000000000000004",
        "nonce": "0x325",
        "chainId": "0x66eee"
      },
      "additionalContracts": [],
      "isFixedGasLimit": false
    },
    {
      "hash": "0x999c40ed3e309066e68837831622b1319a20dd023e9762e1fe6ea7c8f446abde",
      "transactionType": "CALL",
      "contractName": null,
      "contractAddress": "0x1211a2dd0d01848dc4042a7a354cb8a4c51df594",
      "function": "addFeeToken(string,string[],uint256[])",
      "arguments": [
        "421614",
        "[0x92829288c6aa874c1a0f190da35a4023c22be637]",
        "[1000]"
      ],
      "transaction": {
        "from": "0xe62ab4d111f968660c6b2188046f9b9ba53c4bae",
        "to": "0x1211a2dd0d01848dc4042a7a354cb8a4c51df594",
        "gas": "0x2ee43",
        "value": "0x0",
        "input": "0x437bf84f000000000000000000000000000000000000000000000000000000000000006000000000000000000000000000000000000000000000000000000000000000a000000000000000000000000000000000000000000000000000000000000001400000000000000000000000000000000000000000000000000000000000000006343231363134000000000000000000000000000000000000000000000000000000000000000000000000000000000000000000000000000000000000000000010000000000000000000000000000000000000000000000000000000000000020000000000000000000000000000000000000000000000000000000000000002a30783932383239323838633661613837346331613066313930646133356134303233633232626536333700000000000000000000000000000000000000000000000000000000000000000000000000000000000000000000000000000000000100000000000000000000000000000000000000000000000000000000000003e8",
        "nonce": "0x326",
        "chainId": "0x66eee"
      },
      "additionalContracts": [],
      "isFixedGasLimit": false
    },
    {
      "hash": "0x13437e4da6e5d8b33cc0f084ea4d588f9274f78d9fbb9a3794c353b8f73db42a",
      "transactionType": "CALL",
      "contractName": null,
      "contractAddress": "0x1211a2dd0d01848dc4042a7a354cb8a4c51df594",
      "function": "addFeeToken(string,string[],uint256[])",
      "arguments": [
        "80002",
        "[0x92829288c6aa874c1a0f190da35a4023c22be637]",
        "[1000]"
      ],
      "transaction": {
        "from": "0xe62ab4d111f968660c6b2188046f9b9ba53c4bae",
        "to": "0x1211a2dd0d01848dc4042a7a354cb8a4c51df594",
        "gas": "0x29ab2",
        "value": "0x0",
        "input": "0x437bf84f000000000000000000000000000000000000000000000000000000000000006000000000000000000000000000000000000000000000000000000000000000a000000000000000000000000000000000000000000000000000000000000001400000000000000000000000000000000000000000000000000000000000000005383030303200000000000000000000000000000000000000000000000000000000000000000000000000000000000000000000000000000000000000000000010000000000000000000000000000000000000000000000000000000000000020000000000000000000000000000000000000000000000000000000000000002a30783932383239323838633661613837346331613066313930646133356134303233633232626536333700000000000000000000000000000000000000000000000000000000000000000000000000000000000000000000000000000000000100000000000000000000000000000000000000000000000000000000000003e8",
        "nonce": "0x327",
        "chainId": "0x66eee"
      },
      "additionalContracts": [],
      "isFixedGasLimit": false
    },
    {
      "hash": "0x3c7e0abe0116b4d92d06a62cdc9b60ba2df5e59938798facdc6b18c32ef852cb",
      "transactionType": "CALL",
      "contractName": null,
      "contractAddress": "0x1211a2dd0d01848dc4042a7a354cb8a4c51df594",
      "function": "addFeeToken(string,string[],uint256[])",
      "arguments": [
        "84532",
        "[0x92829288c6aa874c1a0f190da35a4023c22be637]",
        "[1000]"
      ],
      "transaction": {
        "from": "0xe62ab4d111f968660c6b2188046f9b9ba53c4bae",
        "to": "0x1211a2dd0d01848dc4042a7a354cb8a4c51df594",
        "gas": "0x29ab2",
        "value": "0x0",
        "input": "0x437bf84f000000000000000000000000000000000000000000000000000000000000006000000000000000000000000000000000000000000000000000000000000000a000000000000000000000000000000000000000000000000000000000000001400000000000000000000000000000000000000000000000000000000000000005383435333200000000000000000000000000000000000000000000000000000000000000000000000000000000000000000000000000000000000000000000010000000000000000000000000000000000000000000000000000000000000020000000000000000000000000000000000000000000000000000000000000002a30783932383239323838633661613837346331613066313930646133356134303233633232626536333700000000000000000000000000000000000000000000000000000000000000000000000000000000000000000000000000000000000100000000000000000000000000000000000000000000000000000000000003e8",
        "nonce": "0x328",
        "chainId": "0x66eee"
      },
      "additionalContracts": [],
      "isFixedGasLimit": false
    },
    {
      "hash": "0xa5d10dc814694ddec8eb382ea96287da0f1f3f6c64bd5ccc84bed337c2d55248",
      "transactionType": "CALL",
      "contractName": null,
      "contractAddress": "0x1211a2dd0d01848dc4042a7a354cb8a4c51df594",
      "function": "addFeeToken(string,string[],uint256[])",
      "arguments": [
        "97",
        "[0x92829288c6aa874c1a0f190da35a4023c22be637]",
        "[1000]"
      ],
      "transaction": {
        "from": "0xe62ab4d111f968660c6b2188046f9b9ba53c4bae",
        "to": "0x1211a2dd0d01848dc4042a7a354cb8a4c51df594",
        "gas": "0x2bb44",
        "value": "0x0",
        "input": "0x437bf84f000000000000000000000000000000000000000000000000000000000000006000000000000000000000000000000000000000000000000000000000000000a000000000000000000000000000000000000000000000000000000000000001400000000000000000000000000000000000000000000000000000000000000002393700000000000000000000000000000000000000000000000000000000000000000000000000000000000000000000000000000000000000000000000000010000000000000000000000000000000000000000000000000000000000000020000000000000000000000000000000000000000000000000000000000000002a30783932383239323838633661613837346331613066313930646133356134303233633232626536333700000000000000000000000000000000000000000000000000000000000000000000000000000000000000000000000000000000000100000000000000000000000000000000000000000000000000000000000003e8",
        "nonce": "0x329",
        "chainId": "0x66eee"
      },
      "additionalContracts": [],
      "isFixedGasLimit": false
    },
    {
      "hash": "0xa28bf148eed421b7408ae7dfa9280a647872ef0218f43ffd1053b22f0a07386d",
      "transactionType": "CALL",
      "contractName": null,
      "contractAddress": "0x1211a2dd0d01848dc4042a7a354cb8a4c51df594",
      "function": "addFeeToken(string,string[],uint256[])",
      "arguments": [
        "11155111",
        "[0x92829288c6aa874c1a0f190da35a4023c22be637]",
        "[1000]"
      ],
      "transaction": {
        "from": "0xe62ab4d111f968660c6b2188046f9b9ba53c4bae",
        "to": "0x1211a2dd0d01848dc4042a7a354cb8a4c51df594",
        "gas": "0x2c891",
        "value": "0x0",
        "input": "0x437bf84f000000000000000000000000000000000000000000000000000000000000006000000000000000000000000000000000000000000000000000000000000000a000000000000000000000000000000000000000000000000000000000000001400000000000000000000000000000000000000000000000000000000000000008313131353531313100000000000000000000000000000000000000000000000000000000000000000000000000000000000000000000000000000000000000010000000000000000000000000000000000000000000000000000000000000020000000000000000000000000000000000000000000000000000000000000002a30783932383239323838633661613837346331613066313930646133356134303233633232626536333700000000000000000000000000000000000000000000000000000000000000000000000000000000000000000000000000000000000100000000000000000000000000000000000000000000000000000000000003e8",
        "nonce": "0x32a",
        "chainId": "0x66eee"
      },
      "additionalContracts": [],
      "isFixedGasLimit": false
    },
    {
      "hash": "0x819c8e13a447181f02a3382d0202b691738e68c44738bd32ccfaf1111c862116",
      "transactionType": "CALL",
      "contractName": null,
      "contractAddress": "0x82c7cf3ad2a7c6ea732c131e552ad171d190421e",
      "function": "addChainContract(string[],string[])",
      "arguments": [
        "[80002, 84532, 97, 11155111]",
        "[0xb75a2833405907508bd5f8dea3a24fa537d9c85c, 0x8b8de69a9cbca6b7cb85406dde46116dd520d5b0, 0x291e038ef58dcfdf020e0bbea0c9a36713db7966, 0xf1a79c24eff78ffffbd4f8df0ce31adec284b9cf]"
      ],
      "transaction": {
        "from": "0xe62ab4d111f968660c6b2188046f9b9ba53c4bae",
        "to": "0x82c7cf3ad2a7c6ea732c131e552ad171d190421e",
        "gas": "0xa22ab",
        "value": "0x0",
        "input": "0x013fd3bd000000000000000000000000000000000000000000000000000000000000004000000000000000000000000000000000000000000000000000000000000001e00000000000000000000000000000000000000000000000000000000000000004000000000000000000000000000000000000000000000000000000000000008000000000000000000000000000000000000000000000000000000000000000c000000000000000000000000000000000000000000000000000000000000001000000000000000000000000000000000000000000000000000000000000000140000000000000000000000000000000000000000000000000000000000000000538303030320000000000000000000000000000000000000000000000000000000000000000000000000000000000000000000000000000000000000000000005383435333200000000000000000000000000000000000000000000000000000000000000000000000000000000000000000000000000000000000000000000023937000000000000000000000000000000000000000000000000000000000000000000000000000000000000000000000000000000000000000000000000000831313135353131310000000000000000000000000000000000000000000000000000000000000000000000000000000000000000000000000000000000000004000000000000000000000000000000000000000000000000000000000000008000000000000000000000000000000000000000000000000000000000000000e0000000000000000000000000000000000000000000000000000000000000014000000000000000000000000000000000000000000000000000000000000001a0000000000000000000000000000000000000000000000000000000000000002a30786237356132383333343035393037353038626435663864656133613234666135333764396338356300000000000000000000000000000000000000000000000000000000000000000000000000000000000000000000000000000000002a30783862386465363961396362636136623763623835343036646465343631313664643532306435623000000000000000000000000000000000000000000000000000000000000000000000000000000000000000000000000000000000002a30783239316530333865663538646366646630323065306262656130633961333637313364623739363600000000000000000000000000000000000000000000000000000000000000000000000000000000000000000000000000000000002a30786631613739633234656666373866666666626434663864663063653331616465633238346239636600000000000000000000000000000000000000000000",
        "nonce": "0x32b",
        "chainId": "0x66eee"
      },
      "additionalContracts": [],
      "isFixedGasLimit": false
    },
    {
      "hash": "0xfbc6826fa305d1fd6e0bc2c58cd0eebb4336b3dfacfde9f4a08a1f33d86ac9f3",
      "transactionType": "CALL",
      "contractName": null,
      "contractAddress": "0x82c7cf3ad2a7c6ea732c131e552ad171d190421e",
      "function": "attachRWAX(uint256,uint256,string[],string[])",
      "arguments": [
        "1",
        "1",
        "[421614, 80002, 84532, 97, 11155111]",
        "[0x6f2f79720c81631d3a0fe8e19c96f3cebd56519a, 0x74da08abcb64a66370e9c1609771e68aafede27b, 0x24da0f2114b682d01234bc9e103ff7eebf86ae6a, 0x4328bf65bc8c69067a03d0fbde94ca1e24ed966c, 0x2be0c4ac75784737d4d0e75c4026d4bc671b938e]"
      ],
      "transaction": {
        "from": "0xe62ab4d111f968660c6b2188046f9b9ba53c4bae",
        "to": "0x82c7cf3ad2a7c6ea732c131e552ad171d190421e",
        "gas": "0xcc896",
        "value": "0x0",
        "input": "0x33a5f5b40000000000000000000000000000000000000000000000000000000000000001000000000000000000000000000000000000000000000000000000000000000100000000000000000000000000000000000000000000000000000000000000800000000000000000000000000000000000000000000000000000000000000280000000000000000000000000000000000000000000000000000000000000000500000000000000000000000000000000000000000000000000000000000000a000000000000000000000000000000000000000000000000000000000000000e00000000000000000000000000000000000000000000000000000000000000120000000000000000000000000000000000000000000000000000000000000016000000000000000000000000000000000000000000000000000000000000001a00000000000000000000000000000000000000000000000000000000000000006343231363134000000000000000000000000000000000000000000000000000000000000000000000000000000000000000000000000000000000000000000053830303032000000000000000000000000000000000000000000000000000000000000000000000000000000000000000000000000000000000000000000000538343533320000000000000000000000000000000000000000000000000000000000000000000000000000000000000000000000000000000000000000000002393700000000000000000000000000000000000000000000000000000000000000000000000000000000000000000000000000000000000000000000000000083131313535313131000000000000000000000000000000000000000000000000000000000000000000000000000000000000000000000000000000000000000500000000000000000000000000000000000000000000000000000000000000a00000000000000000000000000000000000000000000000000000000000000100000000000000000000000000000000000000000000000000000000000000016000000000000000000000000000000000000000000000000000000000000001c00000000000000000000000000000000000000000000000000000000000000220000000000000000000000000000000000000000000000000000000000000002a30783666326637393732306338313633316433613066653865313963393666336365626435363531396100000000000000000000000000000000000000000000000000000000000000000000000000000000000000000000000000000000002a30783734646130386162636236346136363337306539633136303937373165363861616665646532376200000000000000000000000000000000000000000000000000000000000000000000000000000000000000000000000000000000002a30783234646130663231313462363832643031323334626339653130336666376565626638366165366100000000000000000000000000000000000000000000000000000000000000000000000000000000000000000000000000000000002a30783433323862663635626338633639303637613033643066626465393463613165323465643936366300000000000000000000000000000000000000000000000000000000000000000000000000000000000000000000000000000000002a30783262653063346163373537383437333764346430653735633430323664346263363731623933386500000000000000000000000000000000000000000000",
        "nonce": "0x32c",
        "chainId": "0x66eee"
      },
      "additionalContracts": [],
      "isFixedGasLimit": false
    },
    {
      "hash": "0xc54e007dcfefe606d9164965aec1c0970afe13cd2796dc480e78ec6c929cb9a2",
      "transactionType": "CALL",
      "contractName": null,
      "contractAddress": "0x82c7cf3ad2a7c6ea732c131e552ad171d190421e",
      "function": "attachStorageManager(uint256,uint256,string[],string[])",
      "arguments": [
        "1",
        "1",
        "[421614, 80002, 84532, 97, 11155111]",
        "[0x6dd5666ef6b2e83d504c1ee586fb3c630abc7fd2, 0x44bd5b80fed6d6574d21f9b748d0b9a1d5566312, 0x4fb3a28c53c88731d783610d0ff275b02bbf19e0, 0x6187ee058bb5b7db140cfd470a27ebe1f16d92b1, 0x8e36c2b1ac03d98fac0074c9e8e27023a3ce2206]"
      ],
      "transaction": {
        "from": "0xe62ab4d111f968660c6b2188046f9b9ba53c4bae",
        "to": "0x82c7cf3ad2a7c6ea732c131e552ad171d190421e",
        "gas": "0xcc767",
        "value": "0x0",
        "input": "0x2f68b4890000000000000000000000000000000000000000000000000000000000000001000000000000000000000000000000000000000000000000000000000000000100000000000000000000000000000000000000000000000000000000000000800000000000000000000000000000000000000000000000000000000000000280000000000000000000000000000000000000000000000000000000000000000500000000000000000000000000000000000000000000000000000000000000a000000000000000000000000000000000000000000000000000000000000000e00000000000000000000000000000000000000000000000000000000000000120000000000000000000000000000000000000000000000000000000000000016000000000000000000000000000000000000000000000000000000000000001a00000000000000000000000000000000000000000000000000000000000000006343231363134000000000000000000000000000000000000000000000000000000000000000000000000000000000000000000000000000000000000000000053830303032000000000000000000000000000000000000000000000000000000000000000000000000000000000000000000000000000000000000000000000538343533320000000000000000000000000000000000000000000000000000000000000000000000000000000000000000000000000000000000000000000002393700000000000000000000000000000000000000000000000000000000000000000000000000000000000000000000000000000000000000000000000000083131313535313131000000000000000000000000000000000000000000000000000000000000000000000000000000000000000000000000000000000000000500000000000000000000000000000000000000000000000000000000000000a00000000000000000000000000000000000000000000000000000000000000100000000000000000000000000000000000000000000000000000000000000016000000000000000000000000000000000000000000000000000000000000001c00000000000000000000000000000000000000000000000000000000000000220000000000000000000000000000000000000000000000000000000000000002a30783664643536363665663662326538336435303463316565353836666233633633306162633766643200000000000000000000000000000000000000000000000000000000000000000000000000000000000000000000000000000000002a30783434626435623830666564366436353734643231663962373438643062396131643535363633313200000000000000000000000000000000000000000000000000000000000000000000000000000000000000000000000000000000002a30783466623361323863353363383837333164373833363130643066663237356230326262663139653000000000000000000000000000000000000000000000000000000000000000000000000000000000000000000000000000000000002a30783631383765653035386262356237646231343063666434373061323765626531663136643932623100000000000000000000000000000000000000000000000000000000000000000000000000000000000000000000000000000000002a30783865333663326231616330336439386661633030373463396538653237303233613363653232303600000000000000000000000000000000000000000000",
        "nonce": "0x32d",
        "chainId": "0x66eee"
      },
      "additionalContracts": [],
      "isFixedGasLimit": false
    }
  ],
  "receipts": [
    {
      "status": "0x1",
      "cumulativeGasUsed": "0x5eb3",
      "logs": [],
      "logsBloom": "0x00000000000000000000000000000000000000000000000000000000000000000000000000000000000000000000000000000000000000000000000000000000000000000000000000000000000000000000000000000000000000000000000000000000000000000000000000000000000000000000000000000000000000000000000000000000000000000000000000000000000000000000000000000000000000000000000000000000000000000000000000000000000000000000000000000000000000000000000000000000000000000000000000000000000000000000000000000000000000000000000000000000000000000000000000000000",
      "type": "0x2",
      "transactionHash": "0x63a99d40af0190d8246818c06d2b5366b32bb9773f41ea4ca9b089e798d3eb44",
      "transactionIndex": "0x1",
      "blockHash": "0x6027537a5158ac6d52044e0153dbbccfb1b459fa8552a162b388468f9d8ac356",
      "blockNumber": "0x5b2b0e9",
      "gasUsed": "0x5eb3",
      "effectiveGasPrice": "0x5f5e100",
      "from": "0xe62ab4d111f968660c6b2188046f9b9ba53c4bae",
      "to": "0x1211a2dd0d01848dc4042a7a354cb8a4c51df594",
      "contractAddress": null,
      "gasUsedForL1": "0x0",
      "l1BlockNumber": "0x6b6403"
    },
    {
      "status": "0x1",
      "cumulativeGasUsed": "0x1bbac",
      "logs": [
        {
          "address": "0x1211a2dd0d01848dc4042a7a354cb8a4c51df594",
          "topics": [
            "0x1394cfab38f3fc78ed77ea6f9318782a446d96e7dc8e9a6b0149f6be25c08bcf",
            "0x00000000000000000000000092829288c6aa874c1a0f190da35a4023c22be637"
          ],
          "data": "0x",
          "blockHash": "0x00088b4f181e051331377b3fdd8c597b317e8c7e451254e3697797fc472c7220",
          "blockNumber": "0x5b2b102",
          "transactionHash": "0xb2a67b4118b5e303b52bacf47ce1d15c179f3dc4c8b91a9be1e988d83beeaf9e",
          "transactionIndex": "0x1",
          "logIndex": "0x0",
          "removed": false
        }
      ],
      "logsBloom": "0x00000000000000000000000020000000000000000000000000000000000000000000000000000000000000000000000000000000000000000000000000000000000000000000000000000000000000000000001000000000000000000000000000000000000000000000000000004000000000000000000000000000000000000000000100000000000000000100000000000000000000000000000000000000000000000000000000000000000000000000000100000000000000000000000000000000000000000000000000000808000000000004000000000000000000000000000000000000000000000000000000000000000000000000000000000000",
      "type": "0x2",
      "transactionHash": "0xb2a67b4118b5e303b52bacf47ce1d15c179f3dc4c8b91a9be1e988d83beeaf9e",
      "transactionIndex": "0x1",
      "blockHash": "0x00088b4f181e051331377b3fdd8c597b317e8c7e451254e3697797fc472c7220",
      "blockNumber": "0x5b2b102",
      "gasUsed": "0x1bbac",
      "effectiveGasPrice": "0x5f5e100",
      "from": "0xe62ab4d111f968660c6b2188046f9b9ba53c4bae",
      "to": "0x1211a2dd0d01848dc4042a7a354cb8a4c51df594",
      "contractAddress": null,
      "gasUsedForL1": "0x0",
      "l1BlockNumber": "0x6b6404"
    },
    {
      "status": "0x1",
      "cumulativeGasUsed": "0xbbf9",
      "logs": [],
      "logsBloom": "0x00000000000000000000000000000000000000000000000000000000000000000000000000000000000000000000000000000000000000000000000000000000000000000000000000000000000000000000000000000000000000000000000000000000000000000000000000000000000000000000000000000000000000000000000000000000000000000000000000000000000000000000000000000000000000000000000000000000000000000000000000000000000000000000000000000000000000000000000000000000000000000000000000000000000000000000000000000000000000000000000000000000000000000000000000000000",
      "type": "0x2",
      "transactionHash": "0x480f00d93061787b9696c4243f43641786b4f5ae16bce522638cdddc3edae814",
      "transactionIndex": "0x1",
      "blockHash": "0x7b556e1967ed65f054c1e81e36e703970dcdfec45c2dc97acec6132d13c0ea54",
      "blockNumber": "0x5b2b118",
      "gasUsed": "0xbbf9",
      "effectiveGasPrice": "0x5f5e100",
      "from": "0xe62ab4d111f968660c6b2188046f9b9ba53c4bae",
      "to": "0x1211a2dd0d01848dc4042a7a354cb8a4c51df594",
      "contractAddress": null,
      "gasUsedForL1": "0x0",
      "l1BlockNumber": "0x6b6404"
    },
    {
      "status": "0x1",
      "cumulativeGasUsed": "0xbc22",
      "logs": [],
      "logsBloom": "0x00000000000000000000000000000000000000000000000000000000000000000000000000000000000000000000000000000000000000000000000000000000000000000000000000000000000000000000000000000000000000000000000000000000000000000000000000000000000000000000000000000000000000000000000000000000000000000000000000000000000000000000000000000000000000000000000000000000000000000000000000000000000000000000000000000000000000000000000000000000000000000000000000000000000000000000000000000000000000000000000000000000000000000000000000000000",
      "type": "0x2",
      "transactionHash": "0x941738159b73a953cd21028c9486f60738aa45a439f4057630ded80a5ee73e18",
      "transactionIndex": "0x1",
      "blockHash": "0x6bd520bee735443f9fcca88926897c2ee841439b4e5c6d72188c6e4482fb013d",
      "blockNumber": "0x5b2b134",
      "gasUsed": "0xbc22",
      "effectiveGasPrice": "0x5f5e100",
      "from": "0xe62ab4d111f968660c6b2188046f9b9ba53c4bae",
      "to": "0x1211a2dd0d01848dc4042a7a354cb8a4c51df594",
      "contractAddress": null,
      "gasUsedForL1": "0x0",
      "l1BlockNumber": "0x6b6405"
    },
    {
      "status": "0x1",
      "cumulativeGasUsed": "0xbc39",
      "logs": [],
      "logsBloom": "0x00000000000000000000000000000000000000000000000000000000000000000000000000000000000000000000000000000000000000000000000000000000000000000000000000000000000000000000000000000000000000000000000000000000000000000000000000000000000000000000000000000000000000000000000000000000000000000000000000000000000000000000000000000000000000000000000000000000000000000000000000000000000000000000000000000000000000000000000000000000000000000000000000000000000000000000000000000000000000000000000000000000000000000000000000000000",
      "type": "0x2",
      "transactionHash": "0x578c2db49ca5c13eb4bd16a655d0276bfa9189f0ecc1b46e1acb18bb3a95584f",
      "transactionIndex": "0x1",
      "blockHash": "0xee28266128261df51f45dda7c19874fbae4e79b93e088d751d48451faf3cab4d",
      "blockNumber": "0x5b2b151",
      "gasUsed": "0xbc39",
      "effectiveGasPrice": "0x5f5e100",
      "from": "0xe62ab4d111f968660c6b2188046f9b9ba53c4bae",
      "to": "0x1211a2dd0d01848dc4042a7a354cb8a4c51df594",
      "contractAddress": null,
      "gasUsedForL1": "0x0",
      "l1BlockNumber": "0x6b6405"
    },
    {
      "status": "0x1",
      "cumulativeGasUsed": "0xbc50",
      "logs": [],
      "logsBloom": "0x00000000000000000000000000000000000000000000000000000000000000000000000000000000000000000000000000000000000000000000000000000000000000000000000000000000000000000000000000000000000000000000000000000000000000000000000000000000000000000000000000000000000000000000000000000000000000000000000000000000000000000000000000000000000000000000000000000000000000000000000000000000000000000000000000000000000000000000000000000000000000000000000000000000000000000000000000000000000000000000000000000000000000000000000000000000",
      "type": "0x2",
      "transactionHash": "0xa81c3d89a4eac6f8d29ddbed8cb49e3c2ce3f9faaac534e11782282e18a95d0e",
      "transactionIndex": "0x1",
      "blockHash": "0xeeae496469029a6a4acacc90cf711b82a3e9e012c2cc20f37d1870ead7c7b113",
      "blockNumber": "0x5b2b16e",
      "gasUsed": "0xbc50",
      "effectiveGasPrice": "0x5f5e100",
      "from": "0xe62ab4d111f968660c6b2188046f9b9ba53c4bae",
      "to": "0x1211a2dd0d01848dc4042a7a354cb8a4c51df594",
      "contractAddress": null,
      "gasUsedForL1": "0x0",
      "l1BlockNumber": "0x6b6406"
    },
    {
      "status": "0x1",
      "cumulativeGasUsed": "0x2b193",
      "logs": [],
      "logsBloom": "0x00000000000000000000000000000000000000000000000000000000000000000000000000000000000000000000000000000000000000000000000000000000000000000000000000000000000000000000000000000000000000000000000000000000000000000000000000000000000000000000000000000000000000000000000000000000000000000000000000000000000000000000000000000000000000000000000000000000000000000000000000000000000000000000000000000000000000000000000000000000000000000000000000000000000000000000000000000000000000000000000000000000000000000000000000000000",
      "type": "0x2",
      "transactionHash": "0xa3f246f4ed788837ce6b61c78a005900fc14bc1a45233e6c1ed9fac8428ddbdc",
      "transactionIndex": "0x2",
      "blockHash": "0xd9a9afe9b56aba7091568789aa25083888a7c0c79b6fb8ec0326058fbcb51343",
      "blockNumber": "0x5b2b18d",
      "gasUsed": "0xbc67",
      "effectiveGasPrice": "0x5f5e100",
      "from": "0xe62ab4d111f968660c6b2188046f9b9ba53c4bae",
      "to": "0x1211a2dd0d01848dc4042a7a354cb8a4c51df594",
      "contractAddress": null,
      "gasUsedForL1": "0x0",
      "l1BlockNumber": "0x6b6406"
    },
    {
      "status": "0x1",
      "cumulativeGasUsed": "0xbc7e",
      "logs": [],
      "logsBloom": "0x00000000000000000000000000000000000000000000000000000000000000000000000000000000000000000000000000000000000000000000000000000000000000000000000000000000000000000000000000000000000000000000000000000000000000000000000000000000000000000000000000000000000000000000000000000000000000000000000000000000000000000000000000000000000000000000000000000000000000000000000000000000000000000000000000000000000000000000000000000000000000000000000000000000000000000000000000000000000000000000000000000000000000000000000000000000",
      "type": "0x2",
      "transactionHash": "0x4494d5c45c1a786e1e53a8ef033ce581804ba057600a19128b75456cc0b19519",
      "transactionIndex": "0x1",
      "blockHash": "0x370c9f2358247b94fe5322c8c321e10e192865aab42a8385c01cba31198edbfa",
      "blockNumber": "0x5b2b1ad",
      "gasUsed": "0xbc7e",
      "effectiveGasPrice": "0x5f5e100",
      "from": "0xe62ab4d111f968660c6b2188046f9b9ba53c4bae",
      "to": "0x1211a2dd0d01848dc4042a7a354cb8a4c51df594",
      "contractAddress": null,
      "gasUsedForL1": "0x0",
      "l1BlockNumber": "0x6b6408"
    },
    {
      "status": "0x1",
      "cumulativeGasUsed": "0xbc90",
      "logs": [],
      "logsBloom": "0x00000000000000000000000000000000000000000000000000000000000000000000000000000000000000000000000000000000000000000000000000000000000000000000000000000000000000000000000000000000000000000000000000000000000000000000000000000000000000000000000000000000000000000000000000000000000000000000000000000000000000000000000000000000000000000000000000000000000000000000000000000000000000000000000000000000000000000000000000000000000000000000000000000000000000000000000000000000000000000000000000000000000000000000000000000000",
      "type": "0x2",
      "transactionHash": "0xa782c18d66760830185346f6726580b263ef67eb04b1383508c1aa6ce55468d6",
      "transactionIndex": "0x1",
      "blockHash": "0x0fd39c2c196392ad279afd211a0892572a08158a11194f3a7c87e2fb9d6525f5",
      "blockNumber": "0x5b2b1c9",
      "gasUsed": "0xbc90",
      "effectiveGasPrice": "0x5f5e100",
      "from": "0xe62ab4d111f968660c6b2188046f9b9ba53c4bae",
      "to": "0x1211a2dd0d01848dc4042a7a354cb8a4c51df594",
      "contractAddress": null,
      "gasUsedForL1": "0x0",
      "l1BlockNumber": "0x6b6408"
    },
    {
      "status": "0x1",
      "cumulativeGasUsed": "0x21f2e",
      "logs": [],
      "logsBloom": "0x00000000000000000000000000000000000000000000000000000000000000000000000000000000000000000000000000000000000000000000000000000000000000000000000000000000000000000000000000000000000000000000000000000000000000000000000000000000000000000000000000000000000000000000000000000000000000000000000000000000000000000000000000000000000000000000000000000000000000000000000000000000000000000000000000000000000000000000000000000000000000000000000000000000000000000000000000000000000000000000000000000000000000000000000000000000",
      "type": "0x2",
      "transactionHash": "0x999c40ed3e309066e68837831622b1319a20dd023e9762e1fe6ea7c8f446abde",
      "transactionIndex": "0x1",
      "blockHash": "0x098dc3cf0aa7b734fecefc042ca1cf421203e0e3ceb8b2f0cb39600d1bbd79d2",
      "blockNumber": "0x5b2b1e3",
      "gasUsed": "0x21f2e",
      "effectiveGasPrice": "0x5f5e100",
      "from": "0xe62ab4d111f968660c6b2188046f9b9ba53c4bae",
      "to": "0x1211a2dd0d01848dc4042a7a354cb8a4c51df594",
      "contractAddress": null,
      "gasUsedForL1": "0x0",
      "l1BlockNumber": "0x6b6409"
    },
    {
      "status": "0x1",
      "cumulativeGasUsed": "0x1e2ae",
      "logs": [],
      "logsBloom": "0x00000000000000000000000000000000000000000000000000000000000000000000000000000000000000000000000000000000000000000000000000000000000000000000000000000000000000000000000000000000000000000000000000000000000000000000000000000000000000000000000000000000000000000000000000000000000000000000000000000000000000000000000000000000000000000000000000000000000000000000000000000000000000000000000000000000000000000000000000000000000000000000000000000000000000000000000000000000000000000000000000000000000000000000000000000000",
      "type": "0x2",
      "transactionHash": "0x13437e4da6e5d8b33cc0f084ea4d588f9274f78d9fbb9a3794c353b8f73db42a",
      "transactionIndex": "0x1",
      "blockHash": "0x2771d6f4115e1444693c406d853cafaf7a48dacd495c85a7bad484dd3889d168",
      "blockNumber": "0x5b2b1fe",
      "gasUsed": "0x1e2ae",
      "effectiveGasPrice": "0x5f5e100",
      "from": "0xe62ab4d111f968660c6b2188046f9b9ba53c4bae",
      "to": "0x1211a2dd0d01848dc4042a7a354cb8a4c51df594",
      "contractAddress": null,
      "gasUsedForL1": "0x0",
      "l1BlockNumber": "0x6b6409"
    },
    {
      "status": "0x1",
      "cumulativeGasUsed": "0x1e2ae",
      "logs": [],
      "logsBloom": "0x00000000000000000000000000000000000000000000000000000000000000000000000000000000000000000000000000000000000000000000000000000000000000000000000000000000000000000000000000000000000000000000000000000000000000000000000000000000000000000000000000000000000000000000000000000000000000000000000000000000000000000000000000000000000000000000000000000000000000000000000000000000000000000000000000000000000000000000000000000000000000000000000000000000000000000000000000000000000000000000000000000000000000000000000000000000",
      "type": "0x2",
      "transactionHash": "0x3c7e0abe0116b4d92d06a62cdc9b60ba2df5e59938798facdc6b18c32ef852cb",
      "transactionIndex": "0x1",
      "blockHash": "0xb68be3ce953e7cecf2ca6bd56fdc11500fbe06f71e5ff5fd3b4b25d84e24c5d4",
      "blockNumber": "0x5b2b217",
      "gasUsed": "0x1e2ae",
      "effectiveGasPrice": "0x5f5e100",
      "from": "0xe62ab4d111f968660c6b2188046f9b9ba53c4bae",
      "to": "0x1211a2dd0d01848dc4042a7a354cb8a4c51df594",
      "contractAddress": null,
      "gasUsedForL1": "0x0",
      "l1BlockNumber": "0x6b640a"
    },
    {
      "status": "0x1",
      "cumulativeGasUsed": "0x1de22",
      "logs": [],
      "logsBloom": "0x00000000000000000000000000000000000000000000000000000000000000000000000000000000000000000000000000000000000000000000000000000000000000000000000000000000000000000000000000000000000000000000000000000000000000000000000000000000000000000000000000000000000000000000000000000000000000000000000000000000000000000000000000000000000000000000000000000000000000000000000000000000000000000000000000000000000000000000000000000000000000000000000000000000000000000000000000000000000000000000000000000000000000000000000000000000",
      "type": "0x2",
      "transactionHash": "0xa5d10dc814694ddec8eb382ea96287da0f1f3f6c64bd5ccc84bed337c2d55248",
      "transactionIndex": "0x1",
      "blockHash": "0x624de6a4db8e5a669a80f12b009651b9946efd96d98868ffa54746cdbdb7cc88",
      "blockNumber": "0x5b2b235",
      "gasUsed": "0x1de22",
      "effectiveGasPrice": "0x5f5e100",
      "from": "0xe62ab4d111f968660c6b2188046f9b9ba53c4bae",
      "to": "0x1211a2dd0d01848dc4042a7a354cb8a4c51df594",
      "contractAddress": null,
      "gasUsedForL1": "0x0",
      "l1BlockNumber": "0x6b640b"
    },
    {
      "status": "0x1",
      "cumulativeGasUsed": "0x1e73a",
      "logs": [],
      "logsBloom": "0x00000000000000000000000000000000000000000000000000000000000000000000000000000000000000000000000000000000000000000000000000000000000000000000000000000000000000000000000000000000000000000000000000000000000000000000000000000000000000000000000000000000000000000000000000000000000000000000000000000000000000000000000000000000000000000000000000000000000000000000000000000000000000000000000000000000000000000000000000000000000000000000000000000000000000000000000000000000000000000000000000000000000000000000000000000000",
      "type": "0x2",
      "transactionHash": "0xa28bf148eed421b7408ae7dfa9280a647872ef0218f43ffd1053b22f0a07386d",
      "transactionIndex": "0x1",
      "blockHash": "0x6fc6c4eeb994ca37fb984af9eb13175a6c205a302bd232e49535161036597ead",
      "blockNumber": "0x5b2b24f",
      "gasUsed": "0x1e73a",
      "effectiveGasPrice": "0x5f5e100",
      "from": "0xe62ab4d111f968660c6b2188046f9b9ba53c4bae",
      "to": "0x1211a2dd0d01848dc4042a7a354cb8a4c51df594",
      "contractAddress": null,
      "gasUsedForL1": "0x0",
      "l1BlockNumber": "0x6b640b"
    },
    {
      "status": "0x1",
      "cumulativeGasUsed": "0xa13ff",
      "logs": [],
      "logsBloom": "0x00000000000000000000000000000000000000000000000000000000000000000000000000000000000000000000000000000000000000000000000000000000000000000000000000000000000000000000000000000000000000000000000000000000000000000000000000000000000000000000000000000000000000000000000000000000000000000000000000000000000000000000000000000000000000000000000000000000000000000000000000000000000000000000000000000000000000000000000000000000000000000000000000000000000000000000000000000000000000000000000000000000000000000000000000000000",
      "type": "0x2",
      "transactionHash": "0x819c8e13a447181f02a3382d0202b691738e68c44738bd32ccfaf1111c862116",
      "transactionIndex": "0x2",
      "blockHash": "0xe86f130b43bc2ef34a914bd57e995a3445ad25975f81ee43250d079ea7892a07",
      "blockNumber": "0x5b2b26f",
      "gasUsed": "0x7b7a9",
      "effectiveGasPrice": "0x5f5e100",
      "from": "0xe62ab4d111f968660c6b2188046f9b9ba53c4bae",
      "to": "0x82c7cf3ad2a7c6ea732c131e552ad171d190421e",
      "contractAddress": null,
      "gasUsedForL1": "0x0",
      "l1BlockNumber": "0x6b640d"
    },
    {
      "status": "0x1",
      "cumulativeGasUsed": "0xb2611",
      "logs": [],
      "logsBloom": "0x00000000000000000000000000000000000000000000000000000000000000000000000000000000000000000000000000000000000000000000000000000000000000000000000000000000000000000000000000000000000000000000000000000000000000000000000000000000000000000000000000000000000000000000000000000000000000000000000000000000000000000000000000000000000000000000000000000000000000000000000000000000000000000000000000000000000000000000000000000000000000000000000000000000000000000000000000000000000000000000000000000000000000000000000000000000",
      "type": "0x2",
      "transactionHash": "0xfbc6826fa305d1fd6e0bc2c58cd0eebb4336b3dfacfde9f4a08a1f33d86ac9f3",
      "transactionIndex": "0x2",
      "blockHash": "0x7d95581ce2f091fc7bb49c6bfde6baefad648fd9790f00f833cc19a78b27d450",
      "blockNumber": "0x5b2b28b",
      "gasUsed": "0x9bd08",
      "effectiveGasPrice": "0x5f5e100",
      "from": "0xe62ab4d111f968660c6b2188046f9b9ba53c4bae",
      "to": "0x82c7cf3ad2a7c6ea732c131e552ad171d190421e",
      "contractAddress": null,
      "gasUsedForL1": "0x0",
      "l1BlockNumber": "0x6b640d"
    },
    {
      "status": "0x1",
      "cumulativeGasUsed": "0x9bc20",
      "logs": [],
      "logsBloom": "0x00000000000000000000000000000000000000000000000000000000000000000000000000000000000000000000000000000000000000000000000000000000000000000000000000000000000000000000000000000000000000000000000000000000000000000000000000000000000000000000000000000000000000000000000000000000000000000000000000000000000000000000000000000000000000000000000000000000000000000000000000000000000000000000000000000000000000000000000000000000000000000000000000000000000000000000000000000000000000000000000000000000000000000000000000000000",
      "type": "0x2",
      "transactionHash": "0xc54e007dcfefe606d9164965aec1c0970afe13cd2796dc480e78ec6c929cb9a2",
      "transactionIndex": "0x1",
      "blockHash": "0xf2e5e409cd420d8e5403ecd395ec106b33cbc07470c20dbe06cc2b10abe101c2",
      "blockNumber": "0x5b2b2a7",
      "gasUsed": "0x9bc20",
      "effectiveGasPrice": "0x5f5e100",
      "from": "0xe62ab4d111f968660c6b2188046f9b9ba53c4bae",
      "to": "0x82c7cf3ad2a7c6ea732c131e552ad171d190421e",
      "contractAddress": null,
      "gasUsedForL1": "0x0",
      "l1BlockNumber": "0x6b640e"
    }
  ],
  "libraries": [],
  "pending": [],
  "returns": {},
  "timestamp": 1731091395,
  "chain": 421614,
  "commit": "ac6d4a5e"
}