{
  "transactions": [
    {
      "hash": "0x2dabba55121b19992811b14a4ae6f5eff32aa468d0f223466e9bb77a93c49c22",
      "transactionType": "CALL",
      "contractName": null,
      "contractAddress": "0xb413850c2d470643f5cb4ba9678c4e7d822c326e",
      "function": "getFeeTokenList()",
      "arguments": [],
      "transaction": {
        "from": "0xe62ab4d111f968660c6b2188046f9b9ba53c4bae",
        "to": "0xb413850c2d470643f5cb4ba9678c4e7d822c326e",
        "gas": "0xc54a",
        "value": "0x0",
        "input": "0xe28ab277",
        "nonce": "0x3b7",
        "chainId": "0x66eee"
      },
      "additionalContracts": [],
      "isFixedGasLimit": false
    },
    {
      "hash": "0xef7cc422a5abd1a8bcf2275217c258543e982bd0850ad09ab249d8aa7f521bf4",
      "transactionType": "CALL",
      "contractName": null,
      "contractAddress": "0xb413850c2d470643f5cb4ba9678c4e7d822c326e",
      "function": "addFeeToken(string)",
      "arguments": [
        "0x92829288c6aa874c1a0f190da35a4023c22be637"
      ],
      "transaction": {
        "from": "0xe62ab4d111f968660c6b2188046f9b9ba53c4bae",
        "to": "0xb413850c2d470643f5cb4ba9678c4e7d822c326e",
        "gas": "0x2cecc",
        "value": "0x0",
        "input": "0x12a6385f0000000000000000000000000000000000000000000000000000000000000020000000000000000000000000000000000000000000000000000000000000002a30783932383239323838633661613837346331613066313930646133356134303233633232626536333700000000000000000000000000000000000000000000",
        "nonce": "0x3b8",
        "chainId": "0x66eee"
      },
      "additionalContracts": [],
      "isFixedGasLimit": false
    },
    {
      "hash": "0x23fe240c9c881fe79007dd673093329faf513bb21fc216d65927ed59d3b834f3",
      "transactionType": "CALL",
      "contractName": null,
      "contractAddress": "0xb413850c2d470643f5cb4ba9678c4e7d822c326e",
      "function": "setFeeMultiplier(uint8,uint256)",
      "arguments": [
        "0",
        "2"
      ],
      "transaction": {
        "from": "0xe62ab4d111f968660c6b2188046f9b9ba53c4bae",
        "to": "0xb413850c2d470643f5cb4ba9678c4e7d822c326e",
        "gas": "0x16135",
        "value": "0x0",
        "input": "0x0ee24eb500000000000000000000000000000000000000000000000000000000000000000000000000000000000000000000000000000000000000000000000000000002",
        "nonce": "0x3b9",
        "chainId": "0x66eee"
      },
      "additionalContracts": [],
      "isFixedGasLimit": false
    },
    {
      "hash": "0xc51aa7493ed59cb99036179c5dd1913df0aa33f2c348ed78962db1fc2a906519",
      "transactionType": "CALL",
      "contractName": null,
      "contractAddress": "0xb413850c2d470643f5cb4ba9678c4e7d822c326e",
      "function": "setFeeMultiplier(uint8,uint256)",
      "arguments": [
        "1",
        "10"
      ],
      "transaction": {
        "from": "0xe62ab4d111f968660c6b2188046f9b9ba53c4bae",
        "to": "0xb413850c2d470643f5cb4ba9678c4e7d822c326e",
        "gas": "0x1616c",
        "value": "0x0",
        "input": "0x0ee24eb50000000000000000000000000000000000000000000000000000000000000001000000000000000000000000000000000000000000000000000000000000000a",
        "nonce": "0x3ba",
        "chainId": "0x66eee"
      },
      "additionalContracts": [],
      "isFixedGasLimit": false
    },
    {
      "hash": "0x2312ddb4bdbb1d1ac68789c5640fb83c082a22c469b98de3d13f4d3621a0dd62",
      "transactionType": "CALL",
      "contractName": null,
      "contractAddress": "0xb413850c2d470643f5cb4ba9678c4e7d822c326e",
      "function": "setFeeMultiplier(uint8,uint256)",
      "arguments": [
        "2",
        "1"
      ],
      "transaction": {
        "from": "0xe62ab4d111f968660c6b2188046f9b9ba53c4bae",
        "to": "0xb413850c2d470643f5cb4ba9678c4e7d822c326e",
        "gas": "0x1618a",
        "value": "0x0",
        "input": "0x0ee24eb500000000000000000000000000000000000000000000000000000000000000020000000000000000000000000000000000000000000000000000000000000001",
        "nonce": "0x3bb",
        "chainId": "0x66eee"
      },
      "additionalContracts": [],
      "isFixedGasLimit": false
    },
    {
      "hash": "0x527ec368b16e8666450f95e58dbf623c74607a8f2ecf1b75a6627dbedd666c37",
      "transactionType": "CALL",
      "contractName": null,
      "contractAddress": "0xb413850c2d470643f5cb4ba9678c4e7d822c326e",
      "function": "setFeeMultiplier(uint8,uint256)",
      "arguments": [
        "3",
        "4"
      ],
      "transaction": {
        "from": "0xe62ab4d111f968660c6b2188046f9b9ba53c4bae",
        "to": "0xb413850c2d470643f5cb4ba9678c4e7d822c326e",
        "gas": "0x161a7",
        "value": "0x0",
        "input": "0x0ee24eb500000000000000000000000000000000000000000000000000000000000000030000000000000000000000000000000000000000000000000000000000000004",
        "nonce": "0x3bc",
        "chainId": "0x66eee"
      },
      "additionalContracts": [],
      "isFixedGasLimit": false
    },
    {
      "hash": "0x45310c6973231b908acfcba4af35d42c64d34b058e4487fab1aea1d8ac2145f0",
      "transactionType": "CALL",
      "contractName": null,
      "contractAddress": "0xb413850c2d470643f5cb4ba9678c4e7d822c326e",
      "function": "setFeeMultiplier(uint8,uint256)",
      "arguments": [
        "4",
        "4"
      ],
      "transaction": {
        "from": "0xe62ab4d111f968660c6b2188046f9b9ba53c4bae",
        "to": "0xb413850c2d470643f5cb4ba9678c4e7d822c326e",
        "gas": "0x161c5",
        "value": "0x0",
        "input": "0x0ee24eb500000000000000000000000000000000000000000000000000000000000000040000000000000000000000000000000000000000000000000000000000000004",
        "nonce": "0x3bd",
        "chainId": "0x66eee"
      },
      "additionalContracts": [],
      "isFixedGasLimit": false
    },
    {
      "hash": "0x99a6af1a57f355e5121cf69f925364574644e3b804d0f4b19ca2e770472e3ef3",
      "transactionType": "CALL",
      "contractName": null,
      "contractAddress": "0xb413850c2d470643f5cb4ba9678c4e7d822c326e",
      "function": "setFeeMultiplier(uint8,uint256)",
      "arguments": [
        "5",
        "8"
      ],
      "transaction": {
        "from": "0xe62ab4d111f968660c6b2188046f9b9ba53c4bae",
        "to": "0xb413850c2d470643f5cb4ba9678c4e7d822c326e",
        "gas": "0x161e3",
        "value": "0x0",
        "input": "0x0ee24eb500000000000000000000000000000000000000000000000000000000000000050000000000000000000000000000000000000000000000000000000000000008",
        "nonce": "0x3be",
        "chainId": "0x66eee"
      },
      "additionalContracts": [],
      "isFixedGasLimit": false
    },
    {
      "hash": "0x8d8209511c377ff8c315453496b3e1b70de69e596f8f967b0262a03d0cb74531",
      "transactionType": "CALL",
      "contractName": null,
      "contractAddress": "0xb413850c2d470643f5cb4ba9678c4e7d822c326e",
      "function": "setFeeMultiplier(uint8,uint256)",
      "arguments": [
        "6",
        "4"
      ],
      "transaction": {
        "from": "0xe62ab4d111f968660c6b2188046f9b9ba53c4bae",
        "to": "0xb413850c2d470643f5cb4ba9678c4e7d822c326e",
        "gas": "0x16201",
        "value": "0x0",
        "input": "0x0ee24eb500000000000000000000000000000000000000000000000000000000000000060000000000000000000000000000000000000000000000000000000000000004",
        "nonce": "0x3bf",
        "chainId": "0x66eee"
      },
      "additionalContracts": [],
      "isFixedGasLimit": false
    },
    {
      "hash": "0x4fae3274270c95fe7d8236331f759b4df079d99ce8323a0716ad45dd2c84bf5d",
      "transactionType": "CALL",
      "contractName": null,
      "contractAddress": "0xb413850c2d470643f5cb4ba9678c4e7d822c326e",
      "function": "setFeeMultiplier(uint8,uint256)",
      "arguments": [
        "7",
        "10"
      ],
      "transaction": {
        "from": "0xe62ab4d111f968660c6b2188046f9b9ba53c4bae",
        "to": "0xb413850c2d470643f5cb4ba9678c4e7d822c326e",
        "gas": "0x1621f",
        "value": "0x0",
        "input": "0x0ee24eb50000000000000000000000000000000000000000000000000000000000000007000000000000000000000000000000000000000000000000000000000000000a",
        "nonce": "0x3c0",
        "chainId": "0x66eee"
      },
      "additionalContracts": [],
      "isFixedGasLimit": false
    },
    {
      "hash": "0xc11098dd167903bdbf67069aa8060772bff9e9b7ccb3ccad88b156c4559f9cc1",
      "transactionType": "CALL",
      "contractName": null,
      "contractAddress": "0xb413850c2d470643f5cb4ba9678c4e7d822c326e",
      "function": "setFeeMultiplier(uint8,uint256)",
      "arguments": [
        "8",
        "8"
      ],
      "transaction": {
        "from": "0xe62ab4d111f968660c6b2188046f9b9ba53c4bae",
        "to": "0xb413850c2d470643f5cb4ba9678c4e7d822c326e",
        "gas": "0x1623d",
        "value": "0x0",
        "input": "0x0ee24eb500000000000000000000000000000000000000000000000000000000000000080000000000000000000000000000000000000000000000000000000000000008",
        "nonce": "0x3c1",
        "chainId": "0x66eee"
      },
      "additionalContracts": [],
      "isFixedGasLimit": false
    },
    {
      "hash": "0x5d3de8d50e8c9bce123f1feea6779becb90589f0a3d1d7386bb6da9697da610f",
      "transactionType": "CALL",
      "contractName": null,
      "contractAddress": "0xb413850c2d470643f5cb4ba9678c4e7d822c326e",
      "function": "setFeeMultiplier(uint8,uint256)",
      "arguments": [
        "9",
        "8"
      ],
      "transaction": {
        "from": "0xe62ab4d111f968660c6b2188046f9b9ba53c4bae",
        "to": "0xb413850c2d470643f5cb4ba9678c4e7d822c326e",
        "gas": "0x1625b",
        "value": "0x0",
        "input": "0x0ee24eb500000000000000000000000000000000000000000000000000000000000000090000000000000000000000000000000000000000000000000000000000000008",
        "nonce": "0x3c2",
        "chainId": "0x66eee"
      },
      "additionalContracts": [],
      "isFixedGasLimit": false
    },
    {
      "hash": "0x0ffde09562aba97340a66cac3af6394749d901a39357111c7d80debe402dc826",
      "transactionType": "CALL",
      "contractName": null,
      "contractAddress": "0xb413850c2d470643f5cb4ba9678c4e7d822c326e",
      "function": "setFeeMultiplier(uint8,uint256)",
      "arguments": [
        "10",
        "8"
      ],
      "transaction": {
        "from": "0xe62ab4d111f968660c6b2188046f9b9ba53c4bae",
        "to": "0xb413850c2d470643f5cb4ba9678c4e7d822c326e",
        "gas": "0x16279",
        "value": "0x0",
        "input": "0x0ee24eb5000000000000000000000000000000000000000000000000000000000000000a0000000000000000000000000000000000000000000000000000000000000008",
        "nonce": "0x3c3",
        "chainId": "0x66eee"
      },
      "additionalContracts": [],
      "isFixedGasLimit": false
    },
    {
      "hash": "0x9028930c97e9d183d63d279581e11f2404d49672d295b4aea90dd27f797bb933",
      "transactionType": "CALL",
      "contractName": null,
      "contractAddress": "0xb413850c2d470643f5cb4ba9678c4e7d822c326e",
      "function": "setFeeMultiplier(uint8,uint256)",
      "arguments": [
        "11",
        "20"
      ],
      "transaction": {
        "from": "0xe62ab4d111f968660c6b2188046f9b9ba53c4bae",
        "to": "0xb413850c2d470643f5cb4ba9678c4e7d822c326e",
        "gas": "0x16298",
        "value": "0x0",
        "input": "0x0ee24eb5000000000000000000000000000000000000000000000000000000000000000b0000000000000000000000000000000000000000000000000000000000000014",
        "nonce": "0x3c4",
        "chainId": "0x66eee"
      },
      "additionalContracts": [],
      "isFixedGasLimit": false
    },
    {
      "hash": "0xc77caaa80649d1f88e51e1386158b846cc83b13b964933ea5ae82085902a7146",
      "transactionType": "CALL",
      "contractName": null,
      "contractAddress": "0xb413850c2d470643f5cb4ba9678c4e7d822c326e",
      "function": "setFeeMultiplier(uint8,uint256)",
      "arguments": [
        "12",
        "8"
      ],
      "transaction": {
        "from": "0xe62ab4d111f968660c6b2188046f9b9ba53c4bae",
        "to": "0xb413850c2d470643f5cb4ba9678c4e7d822c326e",
        "gas": "0x162b6",
        "value": "0x0",
        "input": "0x0ee24eb5000000000000000000000000000000000000000000000000000000000000000c0000000000000000000000000000000000000000000000000000000000000008",
        "nonce": "0x3c5",
        "chainId": "0x66eee"
      },
      "additionalContracts": [],
      "isFixedGasLimit": false
    },
    {
      "hash": "0x8c90fad23821f970627e7a957efbdd3489444a161df260a477f577ee261a1bcf",
      "transactionType": "CALL",
      "contractName": null,
      "contractAddress": "0xb413850c2d470643f5cb4ba9678c4e7d822c326e",
      "function": "setFeeMultiplier(uint8,uint256)",
      "arguments": [
        "13",
        "4"
      ],
      "transaction": {
        "from": "0xe62ab4d111f968660c6b2188046f9b9ba53c4bae",
        "to": "0xb413850c2d470643f5cb4ba9678c4e7d822c326e",
        "gas": "0x162d4",
        "value": "0x0",
        "input": "0x0ee24eb5000000000000000000000000000000000000000000000000000000000000000d0000000000000000000000000000000000000000000000000000000000000004",
        "nonce": "0x3c6",
        "chainId": "0x66eee"
      },
      "additionalContracts": [],
      "isFixedGasLimit": false
    },
    {
      "hash": "0x4a5a9e597f72b690ab97cfb4c31f75c8db16e4320b01836a3912baf20d65f3ac",
      "transactionType": "CALL",
      "contractName": null,
      "contractAddress": "0xb413850c2d470643f5cb4ba9678c4e7d822c326e",
      "function": "setFeeMultiplier(uint8,uint256)",
      "arguments": [
        "14",
        "4"
      ],
      "transaction": {
        "from": "0xe62ab4d111f968660c6b2188046f9b9ba53c4bae",
        "to": "0xb413850c2d470643f5cb4ba9678c4e7d822c326e",
        "gas": "0x162f2",
        "value": "0x0",
        "input": "0x0ee24eb5000000000000000000000000000000000000000000000000000000000000000e0000000000000000000000000000000000000000000000000000000000000004",
        "nonce": "0x3c7",
        "chainId": "0x66eee"
      },
      "additionalContracts": [],
      "isFixedGasLimit": false
    },
    {
      "hash": "0x391150846ddd6fffc4b5b6c5157fe2bc7b57f718c04c7105dbf632f9939f99a7",
      "transactionType": "CALL",
      "contractName": null,
      "contractAddress": "0xb413850c2d470643f5cb4ba9678c4e7d822c326e",
      "function": "setFeeMultiplier(uint8,uint256)",
      "arguments": [
        "15",
        "2"
      ],
      "transaction": {
        "from": "0xe62ab4d111f968660c6b2188046f9b9ba53c4bae",
        "to": "0xb413850c2d470643f5cb4ba9678c4e7d822c326e",
        "gas": "0x16309",
        "value": "0x0",
        "input": "0x0ee24eb5000000000000000000000000000000000000000000000000000000000000000f0000000000000000000000000000000000000000000000000000000000000002",
        "nonce": "0x3c8",
        "chainId": "0x66eee"
      },
      "additionalContracts": [],
      "isFixedGasLimit": false
    },
    {
      "hash": "0x700832091ae1b4ab0f84f61c70c5b343e44d0332c27931ccd459c2d5522887e7",
      "transactionType": "CALL",
      "contractName": null,
      "contractAddress": "0xb413850c2d470643f5cb4ba9678c4e7d822c326e",
      "function": "addFeeToken(string,string[],uint256[])",
      "arguments": [
        "421614",
        "[0x92829288c6aa874c1a0f190da35a4023c22be637]",
        "[1000]"
      ],
      "transaction": {
        "from": "0xe62ab4d111f968660c6b2188046f9b9ba53c4bae",
        "to": "0xb413850c2d470643f5cb4ba9678c4e7d822c326e",
        "gas": "0x2ee43",
        "value": "0x0",
        "input": "0x437bf84f000000000000000000000000000000000000000000000000000000000000006000000000000000000000000000000000000000000000000000000000000000a000000000000000000000000000000000000000000000000000000000000001400000000000000000000000000000000000000000000000000000000000000006343231363134000000000000000000000000000000000000000000000000000000000000000000000000000000000000000000000000000000000000000000010000000000000000000000000000000000000000000000000000000000000020000000000000000000000000000000000000000000000000000000000000002a30783932383239323838633661613837346331613066313930646133356134303233633232626536333700000000000000000000000000000000000000000000000000000000000000000000000000000000000000000000000000000000000100000000000000000000000000000000000000000000000000000000000003e8",
        "nonce": "0x3c9",
        "chainId": "0x66eee"
      },
      "additionalContracts": [],
      "isFixedGasLimit": false
    },
    {
      "hash": "0xe52ce7e3819a739670b347f693b02059d3c34b6dd131afa66ac133b2e53d8c00",
      "transactionType": "CALL",
      "contractName": null,
      "contractAddress": "0xb413850c2d470643f5cb4ba9678c4e7d822c326e",
      "function": "addFeeToken(string,string[],uint256[])",
      "arguments": [
        "84532",
        "[0x92829288c6aa874c1a0f190da35a4023c22be637]",
        "[1000]"
      ],
      "transaction": {
        "from": "0xe62ab4d111f968660c6b2188046f9b9ba53c4bae",
        "to": "0xb413850c2d470643f5cb4ba9678c4e7d822c326e",
        "gas": "0x29ab2",
        "value": "0x0",
        "input": "0x437bf84f000000000000000000000000000000000000000000000000000000000000006000000000000000000000000000000000000000000000000000000000000000a000000000000000000000000000000000000000000000000000000000000001400000000000000000000000000000000000000000000000000000000000000005383435333200000000000000000000000000000000000000000000000000000000000000000000000000000000000000000000000000000000000000000000010000000000000000000000000000000000000000000000000000000000000020000000000000000000000000000000000000000000000000000000000000002a30783932383239323838633661613837346331613066313930646133356134303233633232626536333700000000000000000000000000000000000000000000000000000000000000000000000000000000000000000000000000000000000100000000000000000000000000000000000000000000000000000000000003e8",
        "nonce": "0x3ca",
        "chainId": "0x66eee"
      },
      "additionalContracts": [],
      "isFixedGasLimit": false
    },
    {
      "hash": "0x2bc32f31a555a73ba58ff9fc0c1af4efc4b827d49d415d2811195f921456ef28",
      "transactionType": "CALL",
      "contractName": null,
      "contractAddress": "0x787a3afdebabb386b31d56cf7cc3cd6637340799",
      "function": "addChainContract(string[],string[])",
      "arguments": [
        "[84532]",
        "[0x969035b34b913c507b87fd805fff608fb1fe13f0]"
      ],
      "transaction": {
        "from": "0xe62ab4d111f968660c6b2188046f9b9ba53c4bae",
        "to": "0x787a3afdebabb386b31d56cf7cc3cd6637340799",
        "gas": "0x39ca2",
        "value": "0x0",
        "input": "0x013fd3bd000000000000000000000000000000000000000000000000000000000000004000000000000000000000000000000000000000000000000000000000000000c0000000000000000000000000000000000000000000000000000000000000000100000000000000000000000000000000000000000000000000000000000000200000000000000000000000000000000000000000000000000000000000000005383435333200000000000000000000000000000000000000000000000000000000000000000000000000000000000000000000000000000000000000000000010000000000000000000000000000000000000000000000000000000000000020000000000000000000000000000000000000000000000000000000000000002a30783936393033356233346239313363353037623837666438303566666636303866623166653133663000000000000000000000000000000000000000000000",
        "nonce": "0x3cb",
        "chainId": "0x66eee"
      },
      "additionalContracts": [],
      "isFixedGasLimit": false
    },
    {
      "hash": "0xf0c59ba41316e25bab5e3171655ed7c26141cacc8d5564a7cf1d5c28e924b12c",
      "transactionType": "CALL",
      "contractName": null,
      "contractAddress": "0x787a3afdebabb386b31d56cf7cc3cd6637340799",
      "function": "attachRWAX(uint256,uint256,string[],string[])",
      "arguments": [
        "1",
        "1",
        "[421614, 84532]",
        "[0x386ed9c1a214cc8700af43f4a39df8c722176e01, 0x66b719c489193594c617801e67119959cd15b63a]"
      ],
      "transaction": {
        "from": "0xe62ab4d111f968660c6b2188046f9b9ba53c4bae",
        "to": "0x787a3afdebabb386b31d56cf7cc3cd6637340799",
        "gas": "0x64748",
        "value": "0x0",
        "input": "0x33a5f5b4000000000000000000000000000000000000000000000000000000000000000100000000000000000000000000000000000000000000000000000000000000010000000000000000000000000000000000000000000000000000000000000080000000000000000000000000000000000000000000000000000000000000016000000000000000000000000000000000000000000000000000000000000000020000000000000000000000000000000000000000000000000000000000000040000000000000000000000000000000000000000000000000000000000000008000000000000000000000000000000000000000000000000000000000000000063432313631340000000000000000000000000000000000000000000000000000000000000000000000000000000000000000000000000000000000000000000538343533320000000000000000000000000000000000000000000000000000000000000000000000000000000000000000000000000000000000000000000002000000000000000000000000000000000000000000000000000000000000004000000000000000000000000000000000000000000000000000000000000000a0000000000000000000000000000000000000000000000000000000000000002a30783338366564396331613231346363383730306166343366346133396466386337323231373665303100000000000000000000000000000000000000000000000000000000000000000000000000000000000000000000000000000000002a30783636623731396334383931393335393463363137383031653637313139393539636431356236336100000000000000000000000000000000000000000000",
        "nonce": "0x3cc",
        "chainId": "0x66eee"
      },
      "additionalContracts": [],
      "isFixedGasLimit": false
    },
    {
      "hash": "0x29ad80eb14f0b0f23c756ab66d3216573da151c3bf5cc389000017a729438348",
      "transactionType": "CALL",
      "contractName": null,
      "contractAddress": "0x787a3afdebabb386b31d56cf7cc3cd6637340799",
      "function": "attachStorageManager(uint256,uint256,string[],string[])",
      "arguments": [
        "1",
        "1",
        "[421614, 84532]",
        "[0xe60cc236b36ba33b07832ec9bfeaf875a409a1d3, 0xe569c146b0d4c1c941607b5c6a648b5877ae29ef]"
      ],
      "transaction": {
        "from": "0xe62ab4d111f968660c6b2188046f9b9ba53c4bae",
        "to": "0x787a3afdebabb386b31d56cf7cc3cd6637340799",
        "gas": "0x64d06",
        "value": "0x0",
        "input": "0x2f68b489000000000000000000000000000000000000000000000000000000000000000100000000000000000000000000000000000000000000000000000000000000010000000000000000000000000000000000000000000000000000000000000080000000000000000000000000000000000000000000000000000000000000016000000000000000000000000000000000000000000000000000000000000000020000000000000000000000000000000000000000000000000000000000000040000000000000000000000000000000000000000000000000000000000000008000000000000000000000000000000000000000000000000000000000000000063432313631340000000000000000000000000000000000000000000000000000000000000000000000000000000000000000000000000000000000000000000538343533320000000000000000000000000000000000000000000000000000000000000000000000000000000000000000000000000000000000000000000002000000000000000000000000000000000000000000000000000000000000004000000000000000000000000000000000000000000000000000000000000000a0000000000000000000000000000000000000000000000000000000000000002a30786536306363323336623336626133336230373833326563396266656166383735613430396131643300000000000000000000000000000000000000000000000000000000000000000000000000000000000000000000000000000000002a30786535363963313436623064346331633934313630376235633661363438623538373761653239656600000000000000000000000000000000000000000000",
        "nonce": "0x3cd",
        "chainId": "0x66eee"
      },
      "additionalContracts": [],
      "isFixedGasLimit": false
    }
  ],
  "receipts": [
    {
      "status": "0x1",
      "cumulativeGasUsed": "0x872c",
      "logs": [],
      "logsBloom": "0x00000000000000000000000000000000000000000000000000000000000000000000000000000000000000000000000000000000000000000000000000000000000000000000000000000000000000000000000000000000000000000000000000000000000000000000000000000000000000000000000000000000000000000000000000000000000000000000000000000000000000000000000000000000000000000000000000000000000000000000000000000000000000000000000000000000000000000000000000000000000000000000000000000000000000000000000000000000000000000000000000000000000000000000000000000000",
      "type": "0x2",
      "transactionHash": "0x2dabba55121b19992811b14a4ae6f5eff32aa468d0f223466e9bb77a93c49c22",
      "transactionIndex": "0x1",
      "blockHash": "0x55edf813c3b61569ef465a1e33dc902c4ac9ad248c41bb25b83c8913e6881b4d",
      "blockNumber": "0x5e1eaaf",
      "gasUsed": "0x872c",
      "effectiveGasPrice": "0x5f5e100",
      "from": "0xe62ab4d111f968660c6b2188046f9b9ba53c4bae",
      "to": "0xb413850c2d470643f5cb4ba9678c4e7d822c326e",
      "contractAddress": null,
      "gasUsedForL1": "0x2879",
      "l1BlockNumber": "0x6c7dde"
    },
    {
      "status": "0x1",
      "cumulativeGasUsed": "0x4c83b",
      "logs": [
        {
          "address": "0xb413850c2d470643f5cb4ba9678c4e7d822c326e",
          "topics": [
            "0x1394cfab38f3fc78ed77ea6f9318782a446d96e7dc8e9a6b0149f6be25c08bcf",
            "0x00000000000000000000000092829288c6aa874c1a0f190da35a4023c22be637"
          ],
          "data": "0x",
          "blockHash": "0xe3eb35c7d82ca9599f7270fb5fdb181809398564c6916ddc40647ebc2f34043d",
          "blockNumber": "0x5e1eab3",
          "transactionHash": "0xef7cc422a5abd1a8bcf2275217c258543e982bd0850ad09ab249d8aa7f521bf4",
          "transactionIndex": "0x4",
          "logIndex": "0x0",
          "removed": false
        }
      ],
      "logsBloom": "0x00000000000000000000000020000000000000000000000000000000000000040000000000000000000000000000000000000000000000000000000000020000000000000000000000000000000000000000001000000000000000000000000000000000000000000000000000000000000000000000000000000000000000000000000100000400000000000000000000000000000000000000000000000000000000000000000000000000000000000000000100000000000000000000000000000000000000000000000000000008000000000004000000000000000000000000000000000000000000000000000000000000000000000000000000000000",
      "type": "0x2",
      "transactionHash": "0xef7cc422a5abd1a8bcf2275217c258543e982bd0850ad09ab249d8aa7f521bf4",
      "transactionIndex": "0x4",
      "blockHash": "0xe3eb35c7d82ca9599f7270fb5fdb181809398564c6916ddc40647ebc2f34043d",
      "blockNumber": "0x5e1eab3",
      "gasUsed": "0x210bc",
      "effectiveGasPrice": "0x5f5e100",
      "from": "0xe62ab4d111f968660c6b2188046f9b9ba53c4bae",
      "to": "0xb413850c2d470643f5cb4ba9678c4e7d822c326e",
      "contractAddress": null,
      "gasUsedForL1": "0x5510",
      "l1BlockNumber": "0x6c7dde"
    },
    {
      "status": "0x1",
      "cumulativeGasUsed": "0xfb15",
      "logs": [],
      "logsBloom": "0x00000000000000000000000000000000000000000000000000000000000000000000000000000000000000000000000000000000000000000000000000000000000000000000000000000000000000000000000000000000000000000000000000000000000000000000000000000000000000000000000000000000000000000000000000000000000000000000000000000000000000000000000000000000000000000000000000000000000000000000000000000000000000000000000000000000000000000000000000000000000000000000000000000000000000000000000000000000000000000000000000000000000000000000000000000000",
      "type": "0x2",
      "transactionHash": "0x23fe240c9c881fe79007dd673093329faf513bb21fc216d65927ed59d3b834f3",
      "transactionIndex": "0x1",
      "blockHash": "0x5b002e0390876cb27647d55fad444b6731c94e57759c81074a4103a52ba87f8e",
      "blockNumber": "0x5e1ead4",
      "gasUsed": "0xfb15",
      "effectiveGasPrice": "0x5f5e100",
      "from": "0xe62ab4d111f968660c6b2188046f9b9ba53c4bae",
      "to": "0xb413850c2d470643f5cb4ba9678c4e7d822c326e",
      "contractAddress": null,
      "gasUsedForL1": "0x3f1c",
      "l1BlockNumber": "0x6c7ddf"
    },
    {
      "status": "0x1",
      "cumulativeGasUsed": "0x4aa24",
      "logs": [],
      "logsBloom": "0x00000000000000000000000000000000000000000000000000000000000000000000000000000000000000000000000000000000000000000000000000000000000000000000000000000000000000000000000000000000000000000000000000000000000000000000000000000000000000000000000000000000000000000000000000000000000000000000000000000000000000000000000000000000000000000000000000000000000000000000000000000000000000000000000000000000000000000000000000000000000000000000000000000000000000000000000000000000000000000000000000000000000000000000000000000000",
      "type": "0x2",
      "transactionHash": "0xc51aa7493ed59cb99036179c5dd1913df0aa33f2c348ed78962db1fc2a906519",
      "transactionIndex": "0x2",
      "blockHash": "0xef3b23bb91e4bdc08cc1a3acf3e5a5ae108b3c22bf643eaa7df06e74db26490f",
      "blockNumber": "0x5e1eaf5",
      "gasUsed": "0xfb3e",
      "effectiveGasPrice": "0x5f5e100",
      "from": "0xe62ab4d111f968660c6b2188046f9b9ba53c4bae",
      "to": "0xb413850c2d470643f5cb4ba9678c4e7d822c326e",
      "contractAddress": null,
      "gasUsedForL1": "0x3f1c",
      "l1BlockNumber": "0x6c7ddf"
    },
    {
      "status": "0x1",
      "cumulativeGasUsed": "0xfb55",
      "logs": [],
      "logsBloom": "0x00000000000000000000000000000000000000000000000000000000000000000000000000000000000000000000000000000000000000000000000000000000000000000000000000000000000000000000000000000000000000000000000000000000000000000000000000000000000000000000000000000000000000000000000000000000000000000000000000000000000000000000000000000000000000000000000000000000000000000000000000000000000000000000000000000000000000000000000000000000000000000000000000000000000000000000000000000000000000000000000000000000000000000000000000000000",
      "type": "0x2",
      "transactionHash": "0x2312ddb4bdbb1d1ac68789c5640fb83c082a22c469b98de3d13f4d3621a0dd62",
      "transactionIndex": "0x1",
      "blockHash": "0x962ac79cb897ad21ac5915d3bea213d943ab5aaefe000ddbb7836da5b67a3fe4",
      "blockNumber": "0x5e1eb15",
      "gasUsed": "0xfb55",
      "effectiveGasPrice": "0x5f5e100",
      "from": "0xe62ab4d111f968660c6b2188046f9b9ba53c4bae",
      "to": "0xb413850c2d470643f5cb4ba9678c4e7d822c326e",
      "contractAddress": null,
      "gasUsedForL1": "0x3f1c",
      "l1BlockNumber": "0x6c7de0"
    },
    {
      "status": "0x1",
      "cumulativeGasUsed": "0xfb6c",
      "logs": [],
      "logsBloom": "0x00000000000000000000000000000000000000000000000000000000000000000000000000000000000000000000000000000000000000000000000000000000000000000000000000000000000000000000000000000000000000000000000000000000000000000000000000000000000000000000000000000000000000000000000000000000000000000000000000000000000000000000000000000000000000000000000000000000000000000000000000000000000000000000000000000000000000000000000000000000000000000000000000000000000000000000000000000000000000000000000000000000000000000000000000000000",
      "type": "0x2",
      "transactionHash": "0x527ec368b16e8666450f95e58dbf623c74607a8f2ecf1b75a6627dbedd666c37",
      "transactionIndex": "0x1",
      "blockHash": "0xe5e25150a8b72406c982a459f806a4c134e859553f2f77c7e01f8993f28eb490",
      "blockNumber": "0x5e1eb36",
      "gasUsed": "0xfb6c",
      "effectiveGasPrice": "0x5f5e100",
      "from": "0xe62ab4d111f968660c6b2188046f9b9ba53c4bae",
      "to": "0xb413850c2d470643f5cb4ba9678c4e7d822c326e",
      "contractAddress": null,
      "gasUsedForL1": "0x3f1c",
      "l1BlockNumber": "0x6c7de0"
    },
    {
      "status": "0x1",
      "cumulativeGasUsed": "0xfb83",
      "logs": [],
      "logsBloom": "0x00000000000000000000000000000000000000000000000000000000000000000000000000000000000000000000000000000000000000000000000000000000000000000000000000000000000000000000000000000000000000000000000000000000000000000000000000000000000000000000000000000000000000000000000000000000000000000000000000000000000000000000000000000000000000000000000000000000000000000000000000000000000000000000000000000000000000000000000000000000000000000000000000000000000000000000000000000000000000000000000000000000000000000000000000000000",
      "type": "0x2",
      "transactionHash": "0x45310c6973231b908acfcba4af35d42c64d34b058e4487fab1aea1d8ac2145f0",
      "transactionIndex": "0x1",
      "blockHash": "0xdc756ba02becb38fa8303f97fdf65c788304478c1bafbbf773df92f5d71c221b",
      "blockNumber": "0x5e1eb57",
      "gasUsed": "0xfb83",
      "effectiveGasPrice": "0x5f5e100",
      "from": "0xe62ab4d111f968660c6b2188046f9b9ba53c4bae",
      "to": "0xb413850c2d470643f5cb4ba9678c4e7d822c326e",
      "contractAddress": null,
      "gasUsedForL1": "0x3f1c",
      "l1BlockNumber": "0x6c7de2"
    },
    {
      "status": "0x1",
      "cumulativeGasUsed": "0xfb9a",
      "logs": [],
      "logsBloom": "0x00000000000000000000000000000000000000000000000000000000000000000000000000000000000000000000000000000000000000000000000000000000000000000000000000000000000000000000000000000000000000000000000000000000000000000000000000000000000000000000000000000000000000000000000000000000000000000000000000000000000000000000000000000000000000000000000000000000000000000000000000000000000000000000000000000000000000000000000000000000000000000000000000000000000000000000000000000000000000000000000000000000000000000000000000000000",
      "type": "0x2",
      "transactionHash": "0x99a6af1a57f355e5121cf69f925364574644e3b804d0f4b19ca2e770472e3ef3",
      "transactionIndex": "0x1",
      "blockHash": "0x3d88d1600f6ea364312101f3182a531ed4d25e617bde60118360624250cd2153",
      "blockNumber": "0x5e1eb78",
      "gasUsed": "0xfb9a",
      "effectiveGasPrice": "0x5f5e100",
      "from": "0xe62ab4d111f968660c6b2188046f9b9ba53c4bae",
      "to": "0xb413850c2d470643f5cb4ba9678c4e7d822c326e",
      "contractAddress": null,
      "gasUsedForL1": "0x3f1c",
      "l1BlockNumber": "0x6c7de2"
    },
    {
      "status": "0x1",
      "cumulativeGasUsed": "0xfbb1",
      "logs": [],
      "logsBloom": "0x00000000000000000000000000000000000000000000000000000000000000000000000000000000000000000000000000000000000000000000000000000000000000000000000000000000000000000000000000000000000000000000000000000000000000000000000000000000000000000000000000000000000000000000000000000000000000000000000000000000000000000000000000000000000000000000000000000000000000000000000000000000000000000000000000000000000000000000000000000000000000000000000000000000000000000000000000000000000000000000000000000000000000000000000000000000",
      "type": "0x2",
      "transactionHash": "0x8d8209511c377ff8c315453496b3e1b70de69e596f8f967b0262a03d0cb74531",
      "transactionIndex": "0x1",
      "blockHash": "0x03274fd452f1360c63461a3565be08c7ea2d881cb698d52084817c9888b2231f",
      "blockNumber": "0x5e1eb99",
      "gasUsed": "0xfbb1",
      "effectiveGasPrice": "0x5f5e100",
      "from": "0xe62ab4d111f968660c6b2188046f9b9ba53c4bae",
      "to": "0xb413850c2d470643f5cb4ba9678c4e7d822c326e",
      "contractAddress": null,
      "gasUsedForL1": "0x3f1c",
      "l1BlockNumber": "0x6c7de3"
    },
    {
      "status": "0x1",
      "cumulativeGasUsed": "0x3d7a4",
      "logs": [],
      "logsBloom": "0x00000000000000000000000000000000000000000000000000000000000000000000000000000000000000000000000000000000000000000000000000000000000000000000000000000000000000000000000000000000000000000000000000000000000000000000000000000000000000000000000000000000000000000000000000000000000000000000000000000000000000000000000000000000000000000000000000000000000000000000000000000000000000000000000000000000000000000000000000000000000000000000000000000000000000000000000000000000000000000000000000000000000000000000000000000000",
      "type": "0x2",
      "transactionHash": "0x4fae3274270c95fe7d8236331f759b4df079d99ce8323a0716ad45dd2c84bf5d",
      "transactionIndex": "0x2",
      "blockHash": "0xdecd049802ab175bc86949338b62343db8204903ad246320c1993f3817b37f49",
      "blockNumber": "0x5e1ebba",
      "gasUsed": "0xfbc8",
      "effectiveGasPrice": "0x5f5e100",
      "from": "0xe62ab4d111f968660c6b2188046f9b9ba53c4bae",
      "to": "0xb413850c2d470643f5cb4ba9678c4e7d822c326e",
      "contractAddress": null,
      "gasUsedForL1": "0x3f1c",
      "l1BlockNumber": "0x6c7de4"
    },
    {
      "status": "0x1",
      "cumulativeGasUsed": "0xfbdf",
      "logs": [],
      "logsBloom": "0x00000000000000000000000000000000000000000000000000000000000000000000000000000000000000000000000000000000000000000000000000000000000000000000000000000000000000000000000000000000000000000000000000000000000000000000000000000000000000000000000000000000000000000000000000000000000000000000000000000000000000000000000000000000000000000000000000000000000000000000000000000000000000000000000000000000000000000000000000000000000000000000000000000000000000000000000000000000000000000000000000000000000000000000000000000000",
      "type": "0x2",
      "transactionHash": "0xc11098dd167903bdbf67069aa8060772bff9e9b7ccb3ccad88b156c4559f9cc1",
      "transactionIndex": "0x1",
      "blockHash": "0x235bdda9743e55aa55fea2654a3440c011ae662b322c94f6635f3bcaccf1ce63",
      "blockNumber": "0x5e1ebdb",
      "gasUsed": "0xfbdf",
      "effectiveGasPrice": "0x5f5e100",
      "from": "0xe62ab4d111f968660c6b2188046f9b9ba53c4bae",
      "to": "0xb413850c2d470643f5cb4ba9678c4e7d822c326e",
      "contractAddress": null,
      "gasUsedForL1": "0x3f1c",
      "l1BlockNumber": "0x6c7de4"
    },
    {
      "status": "0x1",
      "cumulativeGasUsed": "0x6ce60",
      "logs": [],
      "logsBloom": "0x00000000000000000000000000000000000000000000000000000000000000000000000000000000000000000000000000000000000000000000000000000000000000000000000000000000000000000000000000000000000000000000000000000000000000000000000000000000000000000000000000000000000000000000000000000000000000000000000000000000000000000000000000000000000000000000000000000000000000000000000000000000000000000000000000000000000000000000000000000000000000000000000000000000000000000000000000000000000000000000000000000000000000000000000000000000",
      "type": "0x2",
      "transactionHash": "0x5d3de8d50e8c9bce123f1feea6779becb90589f0a3d1d7386bb6da9697da610f",
      "transactionIndex": "0x3",
      "blockHash": "0x9df54162b22defeafcad3488075851e684684ef1af66ff656e2535c799f9b623",
      "blockNumber": "0x5e1ebfb",
      "gasUsed": "0xfbf6",
      "effectiveGasPrice": "0x5f5e100",
      "from": "0xe62ab4d111f968660c6b2188046f9b9ba53c4bae",
      "to": "0xb413850c2d470643f5cb4ba9678c4e7d822c326e",
      "contractAddress": null,
      "gasUsedForL1": "0x3f1c",
      "l1BlockNumber": "0x6c7de5"
    },
    {
      "status": "0x1",
      "cumulativeGasUsed": "0xfc0d",
      "logs": [],
      "logsBloom": "0x00000000000000000000000000000000000000000000000000000000000000000000000000000000000000000000000000000000000000000000000000000000000000000000000000000000000000000000000000000000000000000000000000000000000000000000000000000000000000000000000000000000000000000000000000000000000000000000000000000000000000000000000000000000000000000000000000000000000000000000000000000000000000000000000000000000000000000000000000000000000000000000000000000000000000000000000000000000000000000000000000000000000000000000000000000000",
      "type": "0x2",
      "transactionHash": "0x0ffde09562aba97340a66cac3af6394749d901a39357111c7d80debe402dc826",
      "transactionIndex": "0x1",
      "blockHash": "0x5f304aa8461f4adb9990d069130c09ff954b7842e60d34639f68cc7c53736a50",
      "blockNumber": "0x5e1ec1c",
      "gasUsed": "0xfc0d",
      "effectiveGasPrice": "0x5f5e100",
      "from": "0xe62ab4d111f968660c6b2188046f9b9ba53c4bae",
      "to": "0xb413850c2d470643f5cb4ba9678c4e7d822c326e",
      "contractAddress": null,
      "gasUsedForL1": "0x3f1c",
      "l1BlockNumber": "0x6c7de5"
    },
    {
      "status": "0x1",
      "cumulativeGasUsed": "0xfc24",
      "logs": [],
      "logsBloom": "0x00000000000000000000000000000000000000000000000000000000000000000000000000000000000000000000000000000000000000000000000000000000000000000000000000000000000000000000000000000000000000000000000000000000000000000000000000000000000000000000000000000000000000000000000000000000000000000000000000000000000000000000000000000000000000000000000000000000000000000000000000000000000000000000000000000000000000000000000000000000000000000000000000000000000000000000000000000000000000000000000000000000000000000000000000000000",
      "type": "0x2",
      "transactionHash": "0x9028930c97e9d183d63d279581e11f2404d49672d295b4aea90dd27f797bb933",
      "transactionIndex": "0x1",
      "blockHash": "0xf92b1be58df254b34a85596c6c4af71151eb66fdea3faf309c5af5be9854e739",
      "blockNumber": "0x5e1ec3d",
      "gasUsed": "0xfc24",
      "effectiveGasPrice": "0x5f5e100",
      "from": "0xe62ab4d111f968660c6b2188046f9b9ba53c4bae",
      "to": "0xb413850c2d470643f5cb4ba9678c4e7d822c326e",
      "contractAddress": null,
      "gasUsedForL1": "0x3f1c",
      "l1BlockNumber": "0x6c7de7"
    },
    {
      "status": "0x1",
      "cumulativeGasUsed": "0xfc3b",
      "logs": [],
      "logsBloom": "0x00000000000000000000000000000000000000000000000000000000000000000000000000000000000000000000000000000000000000000000000000000000000000000000000000000000000000000000000000000000000000000000000000000000000000000000000000000000000000000000000000000000000000000000000000000000000000000000000000000000000000000000000000000000000000000000000000000000000000000000000000000000000000000000000000000000000000000000000000000000000000000000000000000000000000000000000000000000000000000000000000000000000000000000000000000000",
      "type": "0x2",
      "transactionHash": "0xc77caaa80649d1f88e51e1386158b846cc83b13b964933ea5ae82085902a7146",
      "transactionIndex": "0x1",
      "blockHash": "0xac501b03b8ce9ac13c83a017ae389c9a7281a8ec158826854782037cfe568b75",
      "blockNumber": "0x5e1ec5e",
      "gasUsed": "0xfc3b",
      "effectiveGasPrice": "0x5f5e100",
      "from": "0xe62ab4d111f968660c6b2188046f9b9ba53c4bae",
      "to": "0xb413850c2d470643f5cb4ba9678c4e7d822c326e",
      "contractAddress": null,
      "gasUsedForL1": "0x3f1c",
      "l1BlockNumber": "0x6c7de7"
    },
    {
      "status": "0x1",
      "cumulativeGasUsed": "0xfc52",
      "logs": [],
      "logsBloom": "0x00000000000000000000000000000000000000000000000000000000000000000000000000000000000000000000000000000000000000000000000000000000000000000000000000000000000000000000000000000000000000000000000000000000000000000000000000000000000000000000000000000000000000000000000000000000000000000000000000000000000000000000000000000000000000000000000000000000000000000000000000000000000000000000000000000000000000000000000000000000000000000000000000000000000000000000000000000000000000000000000000000000000000000000000000000000",
      "type": "0x2",
      "transactionHash": "0x8c90fad23821f970627e7a957efbdd3489444a161df260a477f577ee261a1bcf",
      "transactionIndex": "0x1",
      "blockHash": "0xa10d9463dc09bf8ae6cb646327f6351202cc950173052a4a4f4617daebc0e947",
      "blockNumber": "0x5e1ec7e",
      "gasUsed": "0xfc52",
      "effectiveGasPrice": "0x5f5e100",
      "from": "0xe62ab4d111f968660c6b2188046f9b9ba53c4bae",
      "to": "0xb413850c2d470643f5cb4ba9678c4e7d822c326e",
      "contractAddress": null,
      "gasUsedForL1": "0x3f1c",
      "l1BlockNumber": "0x6c7de8"
    },
    {
      "status": "0x1",
      "cumulativeGasUsed": "0xfc69",
      "logs": [],
      "logsBloom": "0x00000000000000000000000000000000000000000000000000000000000000000000000000000000000000000000000000000000000000000000000000000000000000000000000000000000000000000000000000000000000000000000000000000000000000000000000000000000000000000000000000000000000000000000000000000000000000000000000000000000000000000000000000000000000000000000000000000000000000000000000000000000000000000000000000000000000000000000000000000000000000000000000000000000000000000000000000000000000000000000000000000000000000000000000000000000",
      "type": "0x2",
      "transactionHash": "0x4a5a9e597f72b690ab97cfb4c31f75c8db16e4320b01836a3912baf20d65f3ac",
      "transactionIndex": "0x1",
      "blockHash": "0x1df6c9fd3fab21a27e07fb73f3a569b7ba6106eecf3636f953bfe41af2360784",
      "blockNumber": "0x5e1ec9f",
      "gasUsed": "0xfc69",
      "effectiveGasPrice": "0x5f5e100",
      "from": "0xe62ab4d111f968660c6b2188046f9b9ba53c4bae",
      "to": "0xb413850c2d470643f5cb4ba9678c4e7d822c326e",
      "contractAddress": null,
      "gasUsedForL1": "0x3f1c",
      "l1BlockNumber": "0x6c7de8"
    },
    {
      "status": "0x1",
      "cumulativeGasUsed": "0xfc7b",
      "logs": [],
      "logsBloom": "0x00000000000000000000000000000000000000000000000000000000000000000000000000000000000000000000000000000000000000000000000000000000000000000000000000000000000000000000000000000000000000000000000000000000000000000000000000000000000000000000000000000000000000000000000000000000000000000000000000000000000000000000000000000000000000000000000000000000000000000000000000000000000000000000000000000000000000000000000000000000000000000000000000000000000000000000000000000000000000000000000000000000000000000000000000000000",
      "type": "0x2",
      "transactionHash": "0x391150846ddd6fffc4b5b6c5157fe2bc7b57f718c04c7105dbf632f9939f99a7",
      "transactionIndex": "0x1",
      "blockHash": "0x9ac3afb688aeedddf6c037509bc02bcc09ef3b625d09f424662b55c5c858dc45",
      "blockNumber": "0x5e1ecbf",
      "gasUsed": "0xfc7b",
      "effectiveGasPrice": "0x5f5e100",
      "from": "0xe62ab4d111f968660c6b2188046f9b9ba53c4bae",
      "to": "0xb413850c2d470643f5cb4ba9678c4e7d822c326e",
      "contractAddress": null,
      "gasUsedForL1": "0x3f1c",
      "l1BlockNumber": "0x6c7de9"
    },
    {
      "status": "0x1",
      "cumulativeGasUsed": "0x285bd",
      "logs": [],
      "logsBloom": "0x00000000000000000000000000000000000000000000000000000000000000000000000000000000000000000000000000000000000000000000000000000000000000000000000000000000000000000000000000000000000000000000000000000000000000000000000000000000000000000000000000000000000000000000000000000000000000000000000000000000000000000000000000000000000000000000000000000000000000000000000000000000000000000000000000000000000000000000000000000000000000000000000000000000000000000000000000000000000000000000000000000000000000000000000000000000",
      "type": "0x2",
      "transactionHash": "0x700832091ae1b4ab0f84f61c70c5b343e44d0332c27931ccd459c2d5522887e7",
      "transactionIndex": "0x1",
      "blockHash": "0xb19bb81abd11ac0d49f9f917042fd515fcb67f7057bb9c9246df479fa160b8df",
      "blockNumber": "0x5e1ecc3",
      "gasUsed": "0x285bd",
      "effectiveGasPrice": "0x5f5e100",
      "from": "0xe62ab4d111f968660c6b2188046f9b9ba53c4bae",
      "to": "0xb413850c2d470643f5cb4ba9678c4e7d822c326e",
      "contractAddress": null,
      "gasUsedForL1": "0x668f",
      "l1BlockNumber": "0x6c7de9"
    },
    {
      "status": "0x1",
      "cumulativeGasUsed": "0x247dd",
      "logs": [],
      "logsBloom": "0x00000000000000000000000000000000000000000000000000000000000000000000000000000000000000000000000000000000000000000000000000000000000000000000000000000000000000000000000000000000000000000000000000000000000000000000000000000000000000000000000000000000000000000000000000000000000000000000000000000000000000000000000000000000000000000000000000000000000000000000000000000000000000000000000000000000000000000000000000000000000000000000000000000000000000000000000000000000000000000000000000000000000000000000000000000000",
      "type": "0x2",
      "transactionHash": "0xe52ce7e3819a739670b347f693b02059d3c34b6dd131afa66ac133b2e53d8c00",
      "transactionIndex": "0x1",
      "blockHash": "0xcb4a275050a818d90a0a3629ddcfaebc922a49ed5a0875fd807f34ed8ae6c1cb",
      "blockNumber": "0x5e1ecc7",
      "gasUsed": "0x247dd",
      "effectiveGasPrice": "0x5f5e100",
      "from": "0xe62ab4d111f968660c6b2188046f9b9ba53c4bae",
      "to": "0xb413850c2d470643f5cb4ba9678c4e7d822c326e",
      "contractAddress": null,
      "gasUsedForL1": "0x652f",
      "l1BlockNumber": "0x6c7de9"
    },
    {
      "status": "0x1",
      "cumulativeGasUsed": "0xceafd",
      "logs": [],
      "logsBloom": "0x00000000000000000000000000000000000000000000000000000000000000000000000000000000000000000000000000000000000000000000000000000000000000000000000000000000000000000000000000000000000000000000000000000000000000000000000000000000000000000000000000000000000000000000000000000000000000000000000000000000000000000000000000000000000000000000000000000000000000000000000000000000000000000000000000000000000000000000000000000000000000000000000000000000000000000000000000000000000000000000000000000000000000000000000000000000",
      "type": "0x2",
      "transactionHash": "0x2bc32f31a555a73ba58ff9fc0c1af4efc4b827d49d415d2811195f921456ef28",
      "transactionIndex": "0xb",
      "blockHash": "0xbb9bc852294cbb997d043b7894dcfe8e6527e2a2ae002b95f368f44432bd0a84",
      "blockNumber": "0x5e1eccb",
      "gasUsed": "0x2a5c2",
      "effectiveGasPrice": "0x5f5e100",
      "from": "0xe62ab4d111f968660c6b2188046f9b9ba53c4bae",
      "to": "0x787a3afdebabb386b31d56cf7cc3cd6637340799",
      "contractAddress": null,
      "gasUsedForL1": "0x6169",
      "l1BlockNumber": "0x6c7de9"
    },
    {
      "status": "0x1",
      "cumulativeGasUsed": "0xc71f5",
      "logs": [],
      "logsBloom": "0x00000000000000000000000000000000000000000000000000000000000000000000000000000000000000000000000000000000000000000000000000000000000000000000000000000000000000000000000000000000000000000000000000000000000000000000000000000000000000000000000000000000000000000000000000000000000000000000000000000000000000000000000000000000000000000000000000000000000000000000000000000000000000000000000000000000000000000000000000000000000000000000000000000000000000000000000000000000000000000000000000000000000000000000000000000000",
      "type": "0x2",
      "transactionHash": "0xf0c59ba41316e25bab5e3171655ed7c26141cacc8d5564a7cf1d5c28e924b12c",
      "transactionIndex": "0x7",
      "blockHash": "0x4f7a2017ab4730c9e5fb899e3475d6c099b2099b0ae9d6aabf9079b728e8dbbc",
      "blockNumber": "0x5e1eccf",
      "gasUsed": "0x4ac61",
      "effectiveGasPrice": "0x5f5e100",
      "from": "0xe62ab4d111f968660c6b2188046f9b9ba53c4bae",
      "to": "0x787a3afdebabb386b31d56cf7cc3cd6637340799",
      "contractAddress": null,
      "gasUsedForL1": "0x6fd1",
      "l1BlockNumber": "0x6c7de9"
    },
    {
      "status": "0x1",
      "cumulativeGasUsed": "0x599db",
      "logs": [],
      "logsBloom": "0x00000000000000000000000000000000000000000000000000000000000000000000000000000000000000000000000000000000000000000000000000000000000000000000000000000000000000000000000000000000000000000000000000000000000000000000000000000000000000000000000000000000000000000000000000000000000000000000000000000000000000000000000000000000000000000000000000000000000000000000000000000000000000000000000000000000000000000000000000000000000000000000000000000000000000000000000000000000000000000000000000000000000000000000000000000000",
      "type": "0x2",
      "transactionHash": "0x29ad80eb14f0b0f23c756ab66d3216573da151c3bf5cc389000017a729438348",
      "transactionIndex": "0x2",
      "blockHash": "0x86524db24956db5742c06933a781e891f92f98855769cd3bf656efd8c83dc066",
      "blockNumber": "0x5e1ecd3",
      "gasUsed": "0x4b263",
      "effectiveGasPrice": "0x5f5e100",
      "from": "0xe62ab4d111f968660c6b2188046f9b9ba53c4bae",
      "to": "0x787a3afdebabb386b31d56cf7cc3cd6637340799",
      "contractAddress": null,
      "gasUsedForL1": "0x7238",
      "l1BlockNumber": "0x6c7de9"
    }
  ],
  "libraries": [],
  "pending": [],
  "returns": {},
  "timestamp": 1732032946,
  "chain": 421614,
  "commit": "b96f5048"
}