{
  "transactions": [
    {
      "hash": "0xc82c1c5758890c88d5bc0dbaa2377f1682ec95fad1a781017035656839ef6051",
      "transactionType": "CALL",
      "contractName": null,
      "contractAddress": "0x3dd9bb1ff0e52390c1bc16f1ab77608a2c7631c4",
      "function": "getFeeTokenList()",
      "arguments": [],
      "transaction": {
        "from": "0xe62ab4d111f968660c6b2188046f9b9ba53c4bae",
        "to": "0x3dd9bb1ff0e52390c1bc16f1ab77608a2c7631c4",
        "gas": "0x8522",
        "value": "0x0",
        "input": "0xe28ab277",
        "nonce": "0x527",
        "chainId": "0x66eee"
      },
      "additionalContracts": [],
      "isFixedGasLimit": false
    },
    {
      "hash": "0x01cdfebe582997696f9a4c39c9c7ce60117eb150ef959217f9013f10ff7bf6fa",
      "transactionType": "CALL",
      "contractName": null,
      "contractAddress": "0x3dd9bb1ff0e52390c1bc16f1ab77608a2c7631c4",
      "function": "addFeeToken(string)",
      "arguments": [
        "0x92829288c6aa874c1a0f190da35a4023c22be637"
      ],
      "transaction": {
        "from": "0xe62ab4d111f968660c6b2188046f9b9ba53c4bae",
        "to": "0x3dd9bb1ff0e52390c1bc16f1ab77608a2c7631c4",
        "gas": "0x255b4",
        "value": "0x0",
        "input": "0x12a6385f0000000000000000000000000000000000000000000000000000000000000020000000000000000000000000000000000000000000000000000000000000002a30783932383239323838633661613837346331613066313930646133356134303233633232626536333700000000000000000000000000000000000000000000",
        "nonce": "0x528",
        "chainId": "0x66eee"
      },
      "additionalContracts": [],
      "isFixedGasLimit": false
    },
    {
      "hash": "0x986d6ffc7c299cf51a619c096a2cde5e623da50ea06f3807647d0fb12b958c1c",
      "transactionType": "CALL",
      "contractName": null,
      "contractAddress": "0x3dd9bb1ff0e52390c1bc16f1ab77608a2c7631c4",
      "function": "setFeeMultiplier(uint8,uint256)",
      "arguments": [
        "0",
        "2"
      ],
      "transaction": {
        "from": "0xe62ab4d111f968660c6b2188046f9b9ba53c4bae",
        "to": "0x3dd9bb1ff0e52390c1bc16f1ab77608a2c7631c4",
        "gas": "0x10254",
        "value": "0x0",
        "input": "0x0ee24eb500000000000000000000000000000000000000000000000000000000000000000000000000000000000000000000000000000000000000000000000000000002",
        "nonce": "0x529",
        "chainId": "0x66eee"
      },
      "additionalContracts": [],
      "isFixedGasLimit": false
    },
    {
      "hash": "0x0771a1e2a865d6dff796196dff3140618c4b0e031fdea1d1d0cb83ef902db1ed",
      "transactionType": "CALL",
      "contractName": null,
      "contractAddress": "0x3dd9bb1ff0e52390c1bc16f1ab77608a2c7631c4",
      "function": "setFeeMultiplier(uint8,uint256)",
      "arguments": [
        "1",
        "10"
      ],
      "transaction": {
        "from": "0xe62ab4d111f968660c6b2188046f9b9ba53c4bae",
        "to": "0x3dd9bb1ff0e52390c1bc16f1ab77608a2c7631c4",
        "gas": "0x10289",
        "value": "0x0",
        "input": "0x0ee24eb50000000000000000000000000000000000000000000000000000000000000001000000000000000000000000000000000000000000000000000000000000000a",
        "nonce": "0x52a",
        "chainId": "0x66eee"
      },
      "additionalContracts": [],
      "isFixedGasLimit": false
    },
    {
      "hash": "0x323ca2a914ede3f5a594b043d0d19f750860020a454abc9c7ef81f61c9d5703a",
      "transactionType": "CALL",
      "contractName": null,
      "contractAddress": "0x3dd9bb1ff0e52390c1bc16f1ab77608a2c7631c4",
      "function": "setFeeMultiplier(uint8,uint256)",
      "arguments": [
        "2",
        "1"
      ],
      "transaction": {
        "from": "0xe62ab4d111f968660c6b2188046f9b9ba53c4bae",
        "to": "0x3dd9bb1ff0e52390c1bc16f1ab77608a2c7631c4",
        "gas": "0x102a7",
        "value": "0x0",
        "input": "0x0ee24eb500000000000000000000000000000000000000000000000000000000000000020000000000000000000000000000000000000000000000000000000000000001",
        "nonce": "0x52b",
        "chainId": "0x66eee"
      },
      "additionalContracts": [],
      "isFixedGasLimit": false
    },
    {
      "hash": "0xec1633b0a29dbb8a5d5cfaa4b1a7b60cd1323bbc68af3d5b4980ded36ec81b7d",
      "transactionType": "CALL",
      "contractName": null,
      "contractAddress": "0x3dd9bb1ff0e52390c1bc16f1ab77608a2c7631c4",
      "function": "setFeeMultiplier(uint8,uint256)",
      "arguments": [
        "3",
        "4"
      ],
      "transaction": {
        "from": "0xe62ab4d111f968660c6b2188046f9b9ba53c4bae",
        "to": "0x3dd9bb1ff0e52390c1bc16f1ab77608a2c7631c4",
        "gas": "0x102c5",
        "value": "0x0",
        "input": "0x0ee24eb500000000000000000000000000000000000000000000000000000000000000030000000000000000000000000000000000000000000000000000000000000004",
        "nonce": "0x52c",
        "chainId": "0x66eee"
      },
      "additionalContracts": [],
      "isFixedGasLimit": false
    },
    {
      "hash": "0x44ff85dd5afe343659ca1209dc18678ad3a429dd60702c39caad39e1290d58b1",
      "transactionType": "CALL",
      "contractName": null,
      "contractAddress": "0x3dd9bb1ff0e52390c1bc16f1ab77608a2c7631c4",
      "function": "setFeeMultiplier(uint8,uint256)",
      "arguments": [
        "4",
        "4"
      ],
      "transaction": {
        "from": "0xe62ab4d111f968660c6b2188046f9b9ba53c4bae",
        "to": "0x3dd9bb1ff0e52390c1bc16f1ab77608a2c7631c4",
        "gas": "0x102e3",
        "value": "0x0",
        "input": "0x0ee24eb500000000000000000000000000000000000000000000000000000000000000040000000000000000000000000000000000000000000000000000000000000004",
        "nonce": "0x52d",
        "chainId": "0x66eee"
      },
      "additionalContracts": [],
      "isFixedGasLimit": false
    },
    {
      "hash": "0x3a18060caa818d6f68efeb502a724da251bfbfd0e46df701dccdfb6080ce3531",
      "transactionType": "CALL",
      "contractName": null,
      "contractAddress": "0x3dd9bb1ff0e52390c1bc16f1ab77608a2c7631c4",
      "function": "setFeeMultiplier(uint8,uint256)",
      "arguments": [
        "5",
        "4"
      ],
      "transaction": {
        "from": "0xe62ab4d111f968660c6b2188046f9b9ba53c4bae",
        "to": "0x3dd9bb1ff0e52390c1bc16f1ab77608a2c7631c4",
        "gas": "0x10301",
        "value": "0x0",
        "input": "0x0ee24eb500000000000000000000000000000000000000000000000000000000000000050000000000000000000000000000000000000000000000000000000000000004",
        "nonce": "0x52e",
        "chainId": "0x66eee"
      },
      "additionalContracts": [],
      "isFixedGasLimit": false
    },
    {
      "hash": "0xf64e31c356e9954b3079860a8a4e92942f2a67023e1f7d2a8c22a33f2f00ac37",
      "transactionType": "CALL",
      "contractName": null,
      "contractAddress": "0x3dd9bb1ff0e52390c1bc16f1ab77608a2c7631c4",
      "function": "setFeeMultiplier(uint8,uint256)",
      "arguments": [
        "6",
        "8"
      ],
      "transaction": {
        "from": "0xe62ab4d111f968660c6b2188046f9b9ba53c4bae",
        "to": "0x3dd9bb1ff0e52390c1bc16f1ab77608a2c7631c4",
        "gas": "0x1031f",
        "value": "0x0",
        "input": "0x0ee24eb500000000000000000000000000000000000000000000000000000000000000060000000000000000000000000000000000000000000000000000000000000008",
        "nonce": "0x52f",
        "chainId": "0x66eee"
      },
      "additionalContracts": [],
      "isFixedGasLimit": false
    },
    {
      "hash": "0x78aea542d459fa6d6caafa0f12e5a18c2d53da60082b243d85c08ba45f32b0bc",
      "transactionType": "CALL",
      "contractName": null,
      "contractAddress": "0x3dd9bb1ff0e52390c1bc16f1ab77608a2c7631c4",
      "function": "setFeeMultiplier(uint8,uint256)",
      "arguments": [
        "7",
        "4"
      ],
      "transaction": {
        "from": "0xe62ab4d111f968660c6b2188046f9b9ba53c4bae",
        "to": "0x3dd9bb1ff0e52390c1bc16f1ab77608a2c7631c4",
        "gas": "0x1033d",
        "value": "0x0",
        "input": "0x0ee24eb500000000000000000000000000000000000000000000000000000000000000070000000000000000000000000000000000000000000000000000000000000004",
        "nonce": "0x530",
        "chainId": "0x66eee"
      },
      "additionalContracts": [],
      "isFixedGasLimit": false
    },
    {
      "hash": "0x29664e92de6c76202cc1e74f7b6b005be6f998f8c4d0d9c4e4348442404abf3a",
      "transactionType": "CALL",
      "contractName": null,
      "contractAddress": "0x3dd9bb1ff0e52390c1bc16f1ab77608a2c7631c4",
      "function": "setFeeMultiplier(uint8,uint256)",
      "arguments": [
        "8",
        "10"
      ],
      "transaction": {
        "from": "0xe62ab4d111f968660c6b2188046f9b9ba53c4bae",
        "to": "0x3dd9bb1ff0e52390c1bc16f1ab77608a2c7631c4",
        "gas": "0x1035a",
        "value": "0x0",
        "input": "0x0ee24eb50000000000000000000000000000000000000000000000000000000000000008000000000000000000000000000000000000000000000000000000000000000a",
        "nonce": "0x531",
        "chainId": "0x66eee"
      },
      "additionalContracts": [],
      "isFixedGasLimit": false
    },
    {
      "hash": "0x778ea7cd97d53b44e243df14de87b8099b5f21da62c82c7939fd4b30e6fd25ab",
      "transactionType": "CALL",
      "contractName": null,
      "contractAddress": "0x3dd9bb1ff0e52390c1bc16f1ab77608a2c7631c4",
      "function": "setFeeMultiplier(uint8,uint256)",
      "arguments": [
        "9",
        "8"
      ],
      "transaction": {
        "from": "0xe62ab4d111f968660c6b2188046f9b9ba53c4bae",
        "to": "0x3dd9bb1ff0e52390c1bc16f1ab77608a2c7631c4",
        "gas": "0x10378",
        "value": "0x0",
        "input": "0x0ee24eb500000000000000000000000000000000000000000000000000000000000000090000000000000000000000000000000000000000000000000000000000000008",
        "nonce": "0x532",
        "chainId": "0x66eee"
      },
      "additionalContracts": [],
      "isFixedGasLimit": false
    },
    {
      "hash": "0x634637ba9fd038fa98d8203fb83eeab2338a2c209306696fcb43c85a8b0bc3a2",
      "transactionType": "CALL",
      "contractName": null,
      "contractAddress": "0x3dd9bb1ff0e52390c1bc16f1ab77608a2c7631c4",
      "function": "setFeeMultiplier(uint8,uint256)",
      "arguments": [
        "10",
        "8"
      ],
      "transaction": {
        "from": "0xe62ab4d111f968660c6b2188046f9b9ba53c4bae",
        "to": "0x3dd9bb1ff0e52390c1bc16f1ab77608a2c7631c4",
        "gas": "0x10396",
        "value": "0x0",
        "input": "0x0ee24eb5000000000000000000000000000000000000000000000000000000000000000a0000000000000000000000000000000000000000000000000000000000000008",
        "nonce": "0x533",
        "chainId": "0x66eee"
      },
      "additionalContracts": [],
      "isFixedGasLimit": false
    },
    {
      "hash": "0xc1d9930d74275f5ea3f60c5c8e266aca4ccaa33a065a9584a93bbce20d9004fc",
      "transactionType": "CALL",
      "contractName": null,
      "contractAddress": "0x3dd9bb1ff0e52390c1bc16f1ab77608a2c7631c4",
      "function": "setFeeMultiplier(uint8,uint256)",
      "arguments": [
        "11",
        "8"
      ],
      "transaction": {
        "from": "0xe62ab4d111f968660c6b2188046f9b9ba53c4bae",
        "to": "0x3dd9bb1ff0e52390c1bc16f1ab77608a2c7631c4",
        "gas": "0x103b4",
        "value": "0x0",
        "input": "0x0ee24eb5000000000000000000000000000000000000000000000000000000000000000b0000000000000000000000000000000000000000000000000000000000000008",
        "nonce": "0x534",
        "chainId": "0x66eee"
      },
      "additionalContracts": [],
      "isFixedGasLimit": false
    },
    {
      "hash": "0xdc4cb194b95f9446e1baea5f5ed54188e12a52d245ae343adc0afd8cbe10259c",
      "transactionType": "CALL",
      "contractName": null,
      "contractAddress": "0x3dd9bb1ff0e52390c1bc16f1ab77608a2c7631c4",
      "function": "setFeeMultiplier(uint8,uint256)",
      "arguments": [
        "12",
        "20"
      ],
      "transaction": {
        "from": "0xe62ab4d111f968660c6b2188046f9b9ba53c4bae",
        "to": "0x3dd9bb1ff0e52390c1bc16f1ab77608a2c7631c4",
        "gas": "0x103d2",
        "value": "0x0",
        "input": "0x0ee24eb5000000000000000000000000000000000000000000000000000000000000000c0000000000000000000000000000000000000000000000000000000000000014",
        "nonce": "0x535",
        "chainId": "0x66eee"
      },
      "additionalContracts": [],
      "isFixedGasLimit": false
    },
    {
      "hash": "0x12e858661c3f2545ca33a708fcd786a266fa3af3494ef2897a0c8d71db184248",
      "transactionType": "CALL",
      "contractName": null,
      "contractAddress": "0x3dd9bb1ff0e52390c1bc16f1ab77608a2c7631c4",
      "function": "setFeeMultiplier(uint8,uint256)",
      "arguments": [
        "13",
        "8"
      ],
      "transaction": {
        "from": "0xe62ab4d111f968660c6b2188046f9b9ba53c4bae",
        "to": "0x3dd9bb1ff0e52390c1bc16f1ab77608a2c7631c4",
        "gas": "0x103f0",
        "value": "0x0",
        "input": "0x0ee24eb5000000000000000000000000000000000000000000000000000000000000000d0000000000000000000000000000000000000000000000000000000000000008",
        "nonce": "0x536",
        "chainId": "0x66eee"
      },
      "additionalContracts": [],
      "isFixedGasLimit": false
    },
    {
      "hash": "0x7e74c534150bebe6c6f7a863f681b726dc4a263fe6e052adcb3be410f10fad30",
      "transactionType": "CALL",
      "contractName": null,
      "contractAddress": "0x3dd9bb1ff0e52390c1bc16f1ab77608a2c7631c4",
      "function": "setFeeMultiplier(uint8,uint256)",
      "arguments": [
        "14",
        "4"
      ],
      "transaction": {
        "from": "0xe62ab4d111f968660c6b2188046f9b9ba53c4bae",
        "to": "0x3dd9bb1ff0e52390c1bc16f1ab77608a2c7631c4",
        "gas": "0x1040f",
        "value": "0x0",
        "input": "0x0ee24eb5000000000000000000000000000000000000000000000000000000000000000e0000000000000000000000000000000000000000000000000000000000000004",
        "nonce": "0x537",
        "chainId": "0x66eee"
      },
      "additionalContracts": [],
      "isFixedGasLimit": false
    },
    {
      "hash": "0x8cbfe1ce9af51191d113123e2589c5f90bd86efee0fbe0f0833f6b48d8aee9f1",
      "transactionType": "CALL",
      "contractName": null,
      "contractAddress": "0x3dd9bb1ff0e52390c1bc16f1ab77608a2c7631c4",
      "function": "setFeeMultiplier(uint8,uint256)",
      "arguments": [
        "15",
        "4"
      ],
      "transaction": {
        "from": "0xe62ab4d111f968660c6b2188046f9b9ba53c4bae",
        "to": "0x3dd9bb1ff0e52390c1bc16f1ab77608a2c7631c4",
        "gas": "0x1042d",
        "value": "0x0",
        "input": "0x0ee24eb5000000000000000000000000000000000000000000000000000000000000000f0000000000000000000000000000000000000000000000000000000000000004",
        "nonce": "0x538",
        "chainId": "0x66eee"
      },
      "additionalContracts": [],
      "isFixedGasLimit": false
    },
    {
      "hash": "0x7133066c56988ed49ef9495c4ca2216523a15d75dd8ed4a776e83805186e697f",
      "transactionType": "CALL",
      "contractName": null,
      "contractAddress": "0x3dd9bb1ff0e52390c1bc16f1ab77608a2c7631c4",
      "function": "setFeeMultiplier(uint8,uint256)",
      "arguments": [
        "16",
        "4"
      ],
      "transaction": {
        "from": "0xe62ab4d111f968660c6b2188046f9b9ba53c4bae",
        "to": "0x3dd9bb1ff0e52390c1bc16f1ab77608a2c7631c4",
        "gas": "0x1044b",
        "value": "0x0",
        "input": "0x0ee24eb500000000000000000000000000000000000000000000000000000000000000100000000000000000000000000000000000000000000000000000000000000004",
        "nonce": "0x539",
        "chainId": "0x66eee"
      },
      "additionalContracts": [],
      "isFixedGasLimit": false
    },
    {
      "hash": "0x39ee4875beebde0ca59f97d608dce597cf57ab55bbd1748b73e8ae07711a8497",
      "transactionType": "CALL",
      "contractName": null,
      "contractAddress": "0x3dd9bb1ff0e52390c1bc16f1ab77608a2c7631c4",
      "function": "setFeeMultiplier(uint8,uint256)",
      "arguments": [
        "17",
        "4"
      ],
      "transaction": {
        "from": "0xe62ab4d111f968660c6b2188046f9b9ba53c4bae",
        "to": "0x3dd9bb1ff0e52390c1bc16f1ab77608a2c7631c4",
        "gas": "0x10469",
        "value": "0x0",
        "input": "0x0ee24eb500000000000000000000000000000000000000000000000000000000000000110000000000000000000000000000000000000000000000000000000000000004",
        "nonce": "0x53a",
        "chainId": "0x66eee"
      },
      "additionalContracts": [],
      "isFixedGasLimit": false
    },
    {
      "hash": "0x2e250e9eaa1bea08d01871b2416def21ab8eba3eafe2c09fa7d0c0c8b111a1dd",
      "transactionType": "CALL",
      "contractName": null,
      "contractAddress": "0x3dd9bb1ff0e52390c1bc16f1ab77608a2c7631c4",
      "function": "setFeeMultiplier(uint8,uint256)",
      "arguments": [
        "18",
        "2"
      ],
      "transaction": {
        "from": "0xe62ab4d111f968660c6b2188046f9b9ba53c4bae",
        "to": "0x3dd9bb1ff0e52390c1bc16f1ab77608a2c7631c4",
        "gas": "0x10487",
        "value": "0x0",
        "input": "0x0ee24eb500000000000000000000000000000000000000000000000000000000000000120000000000000000000000000000000000000000000000000000000000000002",
        "nonce": "0x53b",
        "chainId": "0x66eee"
      },
      "additionalContracts": [],
      "isFixedGasLimit": false
    },
    {
      "hash": "0x0fcd8be4cc2eb6573053d3c13127fbe68a1aa7fa669a6cbe74d0982bcf48a9d2",
      "transactionType": "CALL",
      "contractName": null,
      "contractAddress": "0x3dd9bb1ff0e52390c1bc16f1ab77608a2c7631c4",
      "function": "setFeeMultiplier(uint8,uint256)",
      "arguments": [
        "19",
        "2"
      ],
      "transaction": {
        "from": "0xe62ab4d111f968660c6b2188046f9b9ba53c4bae",
        "to": "0x3dd9bb1ff0e52390c1bc16f1ab77608a2c7631c4",
        "gas": "0x1049e",
        "value": "0x0",
        "input": "0x0ee24eb500000000000000000000000000000000000000000000000000000000000000130000000000000000000000000000000000000000000000000000000000000002",
        "nonce": "0x53c",
        "chainId": "0x66eee"
      },
      "additionalContracts": [],
      "isFixedGasLimit": false
    },
    {
      "hash": "0xc8f8aac3c008edda7b047cd222a58bc9f805a5d20515b4b6a88658f08b79d45e",
      "transactionType": "CALL",
      "contractName": null,
      "contractAddress": "0x3dd9bb1ff0e52390c1bc16f1ab77608a2c7631c4",
      "function": "addFeeToken(string,string[],uint256[])",
      "arguments": [
        "421614",
        "[0x92829288c6aa874c1a0f190da35a4023c22be637]",
        "[100]"
      ],
      "transaction": {
        "from": "0xe62ab4d111f968660c6b2188046f9b9ba53c4bae",
        "to": "0x3dd9bb1ff0e52390c1bc16f1ab77608a2c7631c4",
        "gas": "0x31a54",
        "value": "0x0",
        "input": "0x437bf84f000000000000000000000000000000000000000000000000000000000000006000000000000000000000000000000000000000000000000000000000000000a000000000000000000000000000000000000000000000000000000000000001400000000000000000000000000000000000000000000000000000000000000006343231363134000000000000000000000000000000000000000000000000000000000000000000000000000000000000000000000000000000000000000000010000000000000000000000000000000000000000000000000000000000000020000000000000000000000000000000000000000000000000000000000000002a3078393238323932383863366161383734633161306631393064613335613430323363323262653633370000000000000000000000000000000000000000000000000000000000000000000000000000000000000000000000000000000000010000000000000000000000000000000000000000000000000000000000000064",
        "nonce": "0x53d",
        "chainId": "0x66eee"
      },
      "additionalContracts": [],
      "isFixedGasLimit": false
    },
    {
      "hash": "0x200661938d739d227c8762e2add8d71316620e385fd295cf5cc8b63103a19c53",
      "transactionType": "CALL",
      "contractName": null,
      "contractAddress": "0x3dd9bb1ff0e52390c1bc16f1ab77608a2c7631c4",
      "function": "addFeeToken(string,string[],uint256[])",
      "arguments": [
        "80002",
        "[0x92829288c6aa874c1a0f190da35a4023c22be637]",
        "[100]"
      ],
      "transaction": {
        "from": "0xe62ab4d111f968660c6b2188046f9b9ba53c4bae",
        "to": "0x3dd9bb1ff0e52390c1bc16f1ab77608a2c7631c4",
        "gas": "0x2c1d9",
        "value": "0x0",
        "input": "0x437bf84f000000000000000000000000000000000000000000000000000000000000006000000000000000000000000000000000000000000000000000000000000000a000000000000000000000000000000000000000000000000000000000000001400000000000000000000000000000000000000000000000000000000000000005383030303200000000000000000000000000000000000000000000000000000000000000000000000000000000000000000000000000000000000000000000010000000000000000000000000000000000000000000000000000000000000020000000000000000000000000000000000000000000000000000000000000002a3078393238323932383863366161383734633161306631393064613335613430323363323262653633370000000000000000000000000000000000000000000000000000000000000000000000000000000000000000000000000000000000010000000000000000000000000000000000000000000000000000000000000064",
        "nonce": "0x53e",
        "chainId": "0x66eee"
      },
      "additionalContracts": [],
      "isFixedGasLimit": false
    },
    {
      "hash": "0x809ef8d64b0dc4ec203ad44d200f0edb73c5349cfb9a3fa07af4da247fc6edd8",
      "transactionType": "CALL",
      "contractName": null,
      "contractAddress": "0x3dd9bb1ff0e52390c1bc16f1ab77608a2c7631c4",
      "function": "addFeeToken(string,string[],uint256[])",
      "arguments": [
        "84532",
        "[0x92829288c6aa874c1a0f190da35a4023c22be637]",
        "[100]"
      ],
      "transaction": {
        "from": "0xe62ab4d111f968660c6b2188046f9b9ba53c4bae",
        "to": "0x3dd9bb1ff0e52390c1bc16f1ab77608a2c7631c4",
        "gas": "0x2c1d9",
        "value": "0x0",
        "input": "0x437bf84f000000000000000000000000000000000000000000000000000000000000006000000000000000000000000000000000000000000000000000000000000000a000000000000000000000000000000000000000000000000000000000000001400000000000000000000000000000000000000000000000000000000000000005383435333200000000000000000000000000000000000000000000000000000000000000000000000000000000000000000000000000000000000000000000010000000000000000000000000000000000000000000000000000000000000020000000000000000000000000000000000000000000000000000000000000002a3078393238323932383863366161383734633161306631393064613335613430323363323262653633370000000000000000000000000000000000000000000000000000000000000000000000000000000000000000000000000000000000010000000000000000000000000000000000000000000000000000000000000064",
        "nonce": "0x53f",
        "chainId": "0x66eee"
      },
      "additionalContracts": [],
      "isFixedGasLimit": false
    },
    {
      "hash": "0xd29c9ebb0aef42e57121b297deae471c698b374f9afc9cf1496dfb55abba2cf5",
      "transactionType": "CALL",
      "contractName": null,
      "contractAddress": "0x3dd9bb1ff0e52390c1bc16f1ab77608a2c7631c4",
      "function": "addFeeToken(string,string[],uint256[])",
      "arguments": [
        "97",
        "[0x92829288c6aa874c1a0f190da35a4023c22be637]",
        "[100]"
      ],
      "transaction": {
        "from": "0xe62ab4d111f968660c6b2188046f9b9ba53c4bae",
        "to": "0x3dd9bb1ff0e52390c1bc16f1ab77608a2c7631c4",
        "gas": "0x2945a",
        "value": "0x0",
        "input": "0x437bf84f000000000000000000000000000000000000000000000000000000000000006000000000000000000000000000000000000000000000000000000000000000a000000000000000000000000000000000000000000000000000000000000001400000000000000000000000000000000000000000000000000000000000000002393700000000000000000000000000000000000000000000000000000000000000000000000000000000000000000000000000000000000000000000000000010000000000000000000000000000000000000000000000000000000000000020000000000000000000000000000000000000000000000000000000000000002a3078393238323932383863366161383734633161306631393064613335613430323363323262653633370000000000000000000000000000000000000000000000000000000000000000000000000000000000000000000000000000000000010000000000000000000000000000000000000000000000000000000000000064",
        "nonce": "0x540",
        "chainId": "0x66eee"
      },
      "additionalContracts": [],
      "isFixedGasLimit": false
    },
    {
      "hash": "0x6f1142b5fb614888df2870ccab1d8acd4c882091263376fd27f79ad790aad4a0",
      "transactionType": "CALL",
      "contractName": null,
      "contractAddress": "0x3dd9bb1ff0e52390c1bc16f1ab77608a2c7631c4",
      "function": "addFeeToken(string,string[],uint256[])",
      "arguments": [
        "11155111",
        "[0x92829288c6aa874c1a0f190da35a4023c22be637]",
        "[100]"
      ],
      "transaction": {
        "from": "0xe62ab4d111f968660c6b2188046f9b9ba53c4bae",
        "to": "0x3dd9bb1ff0e52390c1bc16f1ab77608a2c7631c4",
        "gas": "0x2a0e9",
        "value": "0x0",
        "input": "0x437bf84f000000000000000000000000000000000000000000000000000000000000006000000000000000000000000000000000000000000000000000000000000000a000000000000000000000000000000000000000000000000000000000000001400000000000000000000000000000000000000000000000000000000000000008313131353531313100000000000000000000000000000000000000000000000000000000000000000000000000000000000000000000000000000000000000010000000000000000000000000000000000000000000000000000000000000020000000000000000000000000000000000000000000000000000000000000002a3078393238323932383863366161383734633161306631393064613335613430323363323262653633370000000000000000000000000000000000000000000000000000000000000000000000000000000000000000000000000000000000010000000000000000000000000000000000000000000000000000000000000064",
        "nonce": "0x541",
        "chainId": "0x66eee"
      },
      "additionalContracts": [],
      "isFixedGasLimit": false
    },
    {
      "hash": "0xb15b7c478dca95dbfa06a240d377135cdcf9c6359bc074b5dbb41831e83cd127",
      "transactionType": "CALL",
      "contractName": null,
      "contractAddress": "0x9b81c6a2a62eea2a814afdbb5d69ce0592e1c751",
      "function": "addChainContract(string[],string[])",
      "arguments": [
        "[80002, 84532, 97, 11155111]",
        "[0x1249d751e6a0b7b11b9e55cbf8bc7d397ac3c083, 0x2d1967ef42ecf9a42785d08398aadba806aa090b, 0x1392fc45312550197adf2039de80e8da58fc72a3, 0xb07c3788549cd48ad1d4cb9b7336f7c9dd53d67f]"
      ],
      "transaction": {
        "from": "0xe62ab4d111f968660c6b2188046f9b9ba53c4bae",
        "to": "0x9b81c6a2a62eea2a814afdbb5d69ce0592e1c751",
        "gas": "0xa3919",
        "value": "0x0",
        "input": "0x013fd3bd000000000000000000000000000000000000000000000000000000000000004000000000000000000000000000000000000000000000000000000000000001e00000000000000000000000000000000000000000000000000000000000000004000000000000000000000000000000000000000000000000000000000000008000000000000000000000000000000000000000000000000000000000000000c000000000000000000000000000000000000000000000000000000000000001000000000000000000000000000000000000000000000000000000000000000140000000000000000000000000000000000000000000000000000000000000000538303030320000000000000000000000000000000000000000000000000000000000000000000000000000000000000000000000000000000000000000000005383435333200000000000000000000000000000000000000000000000000000000000000000000000000000000000000000000000000000000000000000000023937000000000000000000000000000000000000000000000000000000000000000000000000000000000000000000000000000000000000000000000000000831313135353131310000000000000000000000000000000000000000000000000000000000000000000000000000000000000000000000000000000000000004000000000000000000000000000000000000000000000000000000000000008000000000000000000000000000000000000000000000000000000000000000e0000000000000000000000000000000000000000000000000000000000000014000000000000000000000000000000000000000000000000000000000000001a0000000000000000000000000000000000000000000000000000000000000002a30783132343964373531653661306237623131623965353563626638626337643339376163336330383300000000000000000000000000000000000000000000000000000000000000000000000000000000000000000000000000000000002a30783264313936376566343265636639613432373835643038333938616164626138303661613039306200000000000000000000000000000000000000000000000000000000000000000000000000000000000000000000000000000000002a30783133393266633435333132353530313937616466323033396465383065386461353866633732613300000000000000000000000000000000000000000000000000000000000000000000000000000000000000000000000000000000002a30786230376333373838353439636434386164316434636239623733333666376339646435336436376600000000000000000000000000000000000000000000",
        "nonce": "0x542",
        "chainId": "0x66eee"
      },
      "additionalContracts": [],
      "isFixedGasLimit": false
    },
    {
      "hash": "0xdc8ef4c376c3e40fa5d6e7078f207abfb73015f334dd748c20cd816744622fae",
      "transactionType": "CALL",
      "contractName": null,
      "contractAddress": "0x9b81c6a2a62eea2a814afdbb5d69ce0592e1c751",
      "function": "attachRWAX(uint256,uint256,string[],string[])",
      "arguments": [
        "1",
        "1",
        "[421614, 80002, 84532, 97, 11155111]",
        "[0xe0f1cd117107457bc14c2f1b82e218157c2a620c, 0x797aa64f83e4d17c2c6c80321f22445aab153630, 0xa09e913fa1aa5383a90ad6d8b94bc3dabee90332, 0xc5070659d0290f2eb2b1ed886f3f7574fde5c4be, 0x69d461e1314af5e3bcab39f0eba3872c5de2c1e5]"
      ],
      "transaction": {
        "from": "0xe62ab4d111f968660c6b2188046f9b9ba53c4bae",
        "to": "0x9b81c6a2a62eea2a814afdbb5d69ce0592e1c751",
        "gas": "0xfa560",
        "value": "0x0",
        "input": "0x33a5f5b40000000000000000000000000000000000000000000000000000000000000001000000000000000000000000000000000000000000000000000000000000000100000000000000000000000000000000000000000000000000000000000000800000000000000000000000000000000000000000000000000000000000000280000000000000000000000000000000000000000000000000000000000000000500000000000000000000000000000000000000000000000000000000000000a000000000000000000000000000000000000000000000000000000000000000e00000000000000000000000000000000000000000000000000000000000000120000000000000000000000000000000000000000000000000000000000000016000000000000000000000000000000000000000000000000000000000000001a00000000000000000000000000000000000000000000000000000000000000006343231363134000000000000000000000000000000000000000000000000000000000000000000000000000000000000000000000000000000000000000000053830303032000000000000000000000000000000000000000000000000000000000000000000000000000000000000000000000000000000000000000000000538343533320000000000000000000000000000000000000000000000000000000000000000000000000000000000000000000000000000000000000000000002393700000000000000000000000000000000000000000000000000000000000000000000000000000000000000000000000000000000000000000000000000083131313535313131000000000000000000000000000000000000000000000000000000000000000000000000000000000000000000000000000000000000000500000000000000000000000000000000000000000000000000000000000000a00000000000000000000000000000000000000000000000000000000000000100000000000000000000000000000000000000000000000000000000000000016000000000000000000000000000000000000000000000000000000000000001c00000000000000000000000000000000000000000000000000000000000000220000000000000000000000000000000000000000000000000000000000000002a30786530663163643131373130373435376263313463326631623832653231383135376332613632306300000000000000000000000000000000000000000000000000000000000000000000000000000000000000000000000000000000002a30783739376161363466383365346431376332633663383033323166323234343561616231353336333000000000000000000000000000000000000000000000000000000000000000000000000000000000000000000000000000000000002a30786130396539313366613161613533383361393061643664386239346263336461626565393033333200000000000000000000000000000000000000000000000000000000000000000000000000000000000000000000000000000000002a30786335303730363539643032393066326562326231656438383666336637353734666465356334626500000000000000000000000000000000000000000000000000000000000000000000000000000000000000000000000000000000002a30783639643436316531333134616635653362636162333966306562613338373263356465326331653500000000000000000000000000000000000000000000",
        "nonce": "0x543",
        "chainId": "0x66eee"
      },
      "additionalContracts": [],
      "isFixedGasLimit": false
    },
    {
      "hash": "0xe33e6141d4e2ac2c835d247506fe50dac0dc5a3ff40c665fb67036d399f99ca4",
      "transactionType": "CALL",
      "contractName": null,
      "contractAddress": "0x9b81c6a2a62eea2a814afdbb5d69ce0592e1c751",
      "function": "attachStorageManager(uint256,uint256,string[],string[])",
      "arguments": [
        "1",
        "1",
        "[421614, 80002, 84532, 97, 11155111]",
        "[0x78e9f16b42508a9bc0892bff922c09067de08fc5, 0xb406b937c12e03d676727fc1bb686279eedbc178, 0xa840a5ec6557df201a6a1561dbdc8ad6f3b3faf4, 0x8159be9135ecc4893826e40cf19047a79c523008, 0x8ee0aee8a42f55ed43f5e7db765fa591c4714c41]"
      ],
      "transaction": {
        "from": "0xe62ab4d111f968660c6b2188046f9b9ba53c4bae",
        "to": "0x9b81c6a2a62eea2a814afdbb5d69ce0592e1c751",
        "gas": "0xce4ae",
        "value": "0x0",
        "input": "0x2f68b4890000000000000000000000000000000000000000000000000000000000000001000000000000000000000000000000000000000000000000000000000000000100000000000000000000000000000000000000000000000000000000000000800000000000000000000000000000000000000000000000000000000000000280000000000000000000000000000000000000000000000000000000000000000500000000000000000000000000000000000000000000000000000000000000a000000000000000000000000000000000000000000000000000000000000000e00000000000000000000000000000000000000000000000000000000000000120000000000000000000000000000000000000000000000000000000000000016000000000000000000000000000000000000000000000000000000000000001a00000000000000000000000000000000000000000000000000000000000000006343231363134000000000000000000000000000000000000000000000000000000000000000000000000000000000000000000000000000000000000000000053830303032000000000000000000000000000000000000000000000000000000000000000000000000000000000000000000000000000000000000000000000538343533320000000000000000000000000000000000000000000000000000000000000000000000000000000000000000000000000000000000000000000002393700000000000000000000000000000000000000000000000000000000000000000000000000000000000000000000000000000000000000000000000000083131313535313131000000000000000000000000000000000000000000000000000000000000000000000000000000000000000000000000000000000000000500000000000000000000000000000000000000000000000000000000000000a00000000000000000000000000000000000000000000000000000000000000100000000000000000000000000000000000000000000000000000000000000016000000000000000000000000000000000000000000000000000000000000001c00000000000000000000000000000000000000000000000000000000000000220000000000000000000000000000000000000000000000000000000000000002a30783738653966313662343235303861396263303839326266663932326330393036376465303866633500000000000000000000000000000000000000000000000000000000000000000000000000000000000000000000000000000000002a30786234303662393337633132653033643637363732376663316262363836323739656564626331373800000000000000000000000000000000000000000000000000000000000000000000000000000000000000000000000000000000002a30786138343061356563363535376466323031613661313536316462646338616436663362336661663400000000000000000000000000000000000000000000000000000000000000000000000000000000000000000000000000000000002a30783831353962653931333565636334383933383236653430636631393034376137396335323330303800000000000000000000000000000000000000000000000000000000000000000000000000000000000000000000000000000000002a30783865653061656538613432663535656434336635653764623736356661353931633437313463343100000000000000000000000000000000000000000000",
        "nonce": "0x544",
        "chainId": "0x66eee"
      },
      "additionalContracts": [],
      "isFixedGasLimit": false
    }
  ],
  "receipts": [
    {
      "status": "0x1",
      "cumulativeGasUsed": "0x6357",
      "logs": [],
      "logsBloom": "0x00000000000000000000000000000000000000000000000000000000000000000000000000000000000000000000000000000000000000000000000000000000000000000000000000000000000000000000000000000000000000000000000000000000000000000000000000000000000000000000000000000000000000000000000000000000000000000000000000000000000000000000000000000000000000000000000000000000000000000000000000000000000000000000000000000000000000000000000000000000000000000000000000000000000000000000000000000000000000000000000000000000000000000000000000000000",
      "type": "0x2",
      "transactionHash": "0xc82c1c5758890c88d5bc0dbaa2377f1682ec95fad1a781017035656839ef6051",
      "transactionIndex": "0x1",
      "blockHash": "0xabe8232044fad210ac41740fda5703b7d66000e63fb3c255ba68a0bb5f28c3c9",
      "blockNumber": "0x60b9899",
      "gasUsed": "0x6357",
      "effectiveGasPrice": "0x5f5e100",
      "from": "0xe62ab4d111f968660c6b2188046f9b9ba53c4bae",
      "to": "0x3dd9bb1ff0e52390c1bc16f1ab77608a2c7631c4",
      "contractAddress": null,
      "gasUsedForL1": "0x4a4",
      "l1BlockNumber": "0x6d687b"
    },
    {
      "status": "0x1",
      "cumulativeGasUsed": "0x1c56d",
      "logs": [
        {
          "address": "0x3dd9bb1ff0e52390c1bc16f1ab77608a2c7631c4",
          "topics": [
            "0x1394cfab38f3fc78ed77ea6f9318782a446d96e7dc8e9a6b0149f6be25c08bcf",
            "0x00000000000000000000000092829288c6aa874c1a0f190da35a4023c22be637"
          ],
          "data": "0x",
          "blockHash": "0x27f37537cb64305b21baaa27670c58ba99e117cb6359c2360e053cb5abfdc5a3",
          "blockNumber": "0x60b98b7",
          "transactionHash": "0x01cdfebe582997696f9a4c39c9c7ce60117eb150ef959217f9013f10ff7bf6fa",
          "transactionIndex": "0x1",
          "logIndex": "0x0",
          "removed": false
        }
      ],
      "logsBloom": "0x00000000000000000000000020000000000000000000000000000000000000000000000000000000000000000000000000000000000000000000000000000000000000000000000000000000000000000100001000000000000000000000000000000000000000000000000000000000000000000000000000000000000000000000000100100000000000000000000040000000000000000000000000000000000000000000000000000000000000000000000100000000000000000000000000000000000000000000000000000008000000000004000000000000000000000000000000000000000000000000000000000000000000000000000000000000",
      "type": "0x2",
      "transactionHash": "0x01cdfebe582997696f9a4c39c9c7ce60117eb150ef959217f9013f10ff7bf6fa",
      "transactionIndex": "0x1",
      "blockHash": "0x27f37537cb64305b21baaa27670c58ba99e117cb6359c2360e053cb5abfdc5a3",
      "blockNumber": "0x60b98b7",
      "gasUsed": "0x1c56d",
      "effectiveGasPrice": "0x5f5e100",
      "from": "0xe62ab4d111f968660c6b2188046f9b9ba53c4bae",
      "to": "0x3dd9bb1ff0e52390c1bc16f1ab77608a2c7631c4",
      "contractAddress": null,
      "gasUsedForL1": "0x9c1",
      "l1BlockNumber": "0x6d687b"
    },
    {
      "status": "0x1",
      "cumulativeGasUsed": "0xc335",
      "logs": [],
      "logsBloom": "0x00000000000000000000000000000000000000000000000000000000000000000000000000000000000000000000000000000000000000000000000000000000000000000000000000000000000000000000000000000000000000000000000000000000000000000000000000000000000000000000000000000000000000000000000000000000000000000000000000000000000000000000000000000000000000000000000000000000000000000000000000000000000000000000000000000000000000000000000000000000000000000000000000000000000000000000000000000000000000000000000000000000000000000000000000000000",
      "type": "0x2",
      "transactionHash": "0x986d6ffc7c299cf51a619c096a2cde5e623da50ea06f3807647d0fb12b958c1c",
      "transactionIndex": "0x1",
      "blockHash": "0xe550ac2c40b661ba73f4ed2481d70ae6a927a216c6ee3977cac735e603e6be85",
      "blockNumber": "0x60b98d3",
      "gasUsed": "0xc335",
      "effectiveGasPrice": "0x5f5e100",
      "from": "0xe62ab4d111f968660c6b2188046f9b9ba53c4bae",
      "to": "0x3dd9bb1ff0e52390c1bc16f1ab77608a2c7631c4",
      "contractAddress": null,
      "gasUsedForL1": "0x73c",
      "l1BlockNumber": "0x6d687d"
    },
    {
      "status": "0x1",
      "cumulativeGasUsed": "0xc35e",
      "logs": [],
      "logsBloom": "0x00000000000000000000000000000000000000000000000000000000000000000000000000000000000000000000000000000000000000000000000000000000000000000000000000000000000000000000000000000000000000000000000000000000000000000000000000000000000000000000000000000000000000000000000000000000000000000000000000000000000000000000000000000000000000000000000000000000000000000000000000000000000000000000000000000000000000000000000000000000000000000000000000000000000000000000000000000000000000000000000000000000000000000000000000000000",
      "type": "0x2",
      "transactionHash": "0x0771a1e2a865d6dff796196dff3140618c4b0e031fdea1d1d0cb83ef902db1ed",
      "transactionIndex": "0x1",
      "blockHash": "0xcb0d322b663204a152689e117102a43ee096032d58c81c8b207db116b97128ba",
      "blockNumber": "0x60b98ec",
      "gasUsed": "0xc35e",
      "effectiveGasPrice": "0x5f5e100",
      "from": "0xe62ab4d111f968660c6b2188046f9b9ba53c4bae",
      "to": "0x3dd9bb1ff0e52390c1bc16f1ab77608a2c7631c4",
      "contractAddress": null,
      "gasUsedForL1": "0x73c",
      "l1BlockNumber": "0x6d687e"
    },
    {
      "status": "0x1",
      "cumulativeGasUsed": "0xc375",
      "logs": [],
      "logsBloom": "0x00000000000000000000000000000000000000000000000000000000000000000000000000000000000000000000000000000000000000000000000000000000000000000000000000000000000000000000000000000000000000000000000000000000000000000000000000000000000000000000000000000000000000000000000000000000000000000000000000000000000000000000000000000000000000000000000000000000000000000000000000000000000000000000000000000000000000000000000000000000000000000000000000000000000000000000000000000000000000000000000000000000000000000000000000000000",
      "type": "0x2",
      "transactionHash": "0x323ca2a914ede3f5a594b043d0d19f750860020a454abc9c7ef81f61c9d5703a",
      "transactionIndex": "0x1",
      "blockHash": "0x67330d7a03c9967e8e314870ef2a4f41791ea592c52a589dc05b17b8c0b2b39a",
      "blockNumber": "0x60b990d",
      "gasUsed": "0xc375",
      "effectiveGasPrice": "0x5f5e100",
      "from": "0xe62ab4d111f968660c6b2188046f9b9ba53c4bae",
      "to": "0x3dd9bb1ff0e52390c1bc16f1ab77608a2c7631c4",
      "contractAddress": null,
      "gasUsedForL1": "0x73c",
      "l1BlockNumber": "0x6d687e"
    },
    {
      "status": "0x1",
      "cumulativeGasUsed": "0xc38c",
      "logs": [],
      "logsBloom": "0x00000000000000000000000000000000000000000000000000000000000000000000000000000000000000000000000000000000000000000000000000000000000000000000000000000000000000000000000000000000000000000000000000000000000000000000000000000000000000000000000000000000000000000000000000000000000000000000000000000000000000000000000000000000000000000000000000000000000000000000000000000000000000000000000000000000000000000000000000000000000000000000000000000000000000000000000000000000000000000000000000000000000000000000000000000000",
      "type": "0x2",
      "transactionHash": "0xec1633b0a29dbb8a5d5cfaa4b1a7b60cd1323bbc68af3d5b4980ded36ec81b7d",
      "transactionIndex": "0x1",
      "blockHash": "0xe8baf1d281d13c3b56b257fe026d72fe94366fdeedcd82ebc936f50df7b07c56",
      "blockNumber": "0x60b990f",
      "gasUsed": "0xc38c",
      "effectiveGasPrice": "0x5f5e100",
      "from": "0xe62ab4d111f968660c6b2188046f9b9ba53c4bae",
      "to": "0x3dd9bb1ff0e52390c1bc16f1ab77608a2c7631c4",
      "contractAddress": null,
      "gasUsedForL1": "0x73c",
      "l1BlockNumber": "0x6d687e"
    },
    {
      "status": "0x1",
      "cumulativeGasUsed": "0x2c43b",
      "logs": [],
      "logsBloom": "0x00000000000000000000000000000000000000000000000000000000000000000000000000000000000000000000000000000000000000000000000000000000000000000000000000000000000000000000000000000000000000000000000000000000000000000000000000000000000000000000000000000000000000000000000000000000000000000000000000000000000000000000000000000000000000000000000000000000000000000000000000000000000000000000000000000000000000000000000000000000000000000000000000000000000000000000000000000000000000000000000000000000000000000000000000000000",
      "type": "0x2",
      "transactionHash": "0x44ff85dd5afe343659ca1209dc18678ad3a429dd60702c39caad39e1290d58b1",
      "transactionIndex": "0x2",
      "blockHash": "0xc22780ac41537a1ff7c292ec28da0ba725fbbd659563896dcdc57c4fa87c745b",
      "blockNumber": "0x60b992c",
      "gasUsed": "0xc3a3",
      "effectiveGasPrice": "0x5f5e100",
      "from": "0xe62ab4d111f968660c6b2188046f9b9ba53c4bae",
      "to": "0x3dd9bb1ff0e52390c1bc16f1ab77608a2c7631c4",
      "contractAddress": null,
      "gasUsedForL1": "0x73c",
      "l1BlockNumber": "0x6d687f"
    },
    {
      "status": "0x1",
      "cumulativeGasUsed": "0xc3ba",
      "logs": [],
      "logsBloom": "0x00000000000000000000000000000000000000000000000000000000000000000000000000000000000000000000000000000000000000000000000000000000000000000000000000000000000000000000000000000000000000000000000000000000000000000000000000000000000000000000000000000000000000000000000000000000000000000000000000000000000000000000000000000000000000000000000000000000000000000000000000000000000000000000000000000000000000000000000000000000000000000000000000000000000000000000000000000000000000000000000000000000000000000000000000000000",
      "type": "0x2",
      "transactionHash": "0x3a18060caa818d6f68efeb502a724da251bfbfd0e46df701dccdfb6080ce3531",
      "transactionIndex": "0x1",
      "blockHash": "0xea06950d393227d87c83c4f6b70752004be95883d95a25c5273b3bf55a42ef51",
      "blockNumber": "0x60b9930",
      "gasUsed": "0xc3ba",
      "effectiveGasPrice": "0x5f5e100",
      "from": "0xe62ab4d111f968660c6b2188046f9b9ba53c4bae",
      "to": "0x3dd9bb1ff0e52390c1bc16f1ab77608a2c7631c4",
      "contractAddress": null,
      "gasUsedForL1": "0x73c",
      "l1BlockNumber": "0x6d687f"
    },
    {
      "status": "0x1",
      "cumulativeGasUsed": "0xc3d1",
      "logs": [],
      "logsBloom": "0x00000000000000000000000000000000000000000000000000000000000000000000000000000000000000000000000000000000000000000000000000000000000000000000000000000000000000000000000000000000000000000000000000000000000000000000000000000000000000000000000000000000000000000000000000000000000000000000000000000000000000000000000000000000000000000000000000000000000000000000000000000000000000000000000000000000000000000000000000000000000000000000000000000000000000000000000000000000000000000000000000000000000000000000000000000000",
      "type": "0x2",
      "transactionHash": "0xf64e31c356e9954b3079860a8a4e92942f2a67023e1f7d2a8c22a33f2f00ac37",
      "transactionIndex": "0x1",
      "blockHash": "0x66ac6c2bf20f1707a01a0afa10b383c03e09d8bbb293d9e214fdde3f6f175b79",
      "blockNumber": "0x60b9933",
      "gasUsed": "0xc3d1",
      "effectiveGasPrice": "0x5f5e100",
      "from": "0xe62ab4d111f968660c6b2188046f9b9ba53c4bae",
      "to": "0x3dd9bb1ff0e52390c1bc16f1ab77608a2c7631c4",
      "contractAddress": null,
      "gasUsedForL1": "0x73c",
      "l1BlockNumber": "0x6d687f"
    },
    {
      "status": "0x1",
      "cumulativeGasUsed": "0x25d4f",
      "logs": [],
      "logsBloom": "0x00000000000000000000000000000000000000000000000000000000000000000000000000000000000000000000000000000000000000000000000000000000000000000000000000000000000000000000000000000000000000000000000000000000000000000000000000000000000000000000000000000000000000000000000000000000000000000000000000000000000000000000000000000000000000000000000000000000000000000000000000000000000000000000000000000000000000000000000000000000000000000000000000000000000000000000000000000000000000000000000000000000000000000000000000000000",
      "type": "0x2",
      "transactionHash": "0x78aea542d459fa6d6caafa0f12e5a18c2d53da60082b243d85c08ba45f32b0bc",
      "transactionIndex": "0x2",
      "blockHash": "0xc816208859459cf7adb067227ce8c4fc77ab395c271f0a49d2195e98d71bcff6",
      "blockNumber": "0x60b9953",
      "gasUsed": "0xc3e8",
      "effectiveGasPrice": "0x5f5e100",
      "from": "0xe62ab4d111f968660c6b2188046f9b9ba53c4bae",
      "to": "0x3dd9bb1ff0e52390c1bc16f1ab77608a2c7631c4",
      "contractAddress": null,
      "gasUsedForL1": "0x73c",
      "l1BlockNumber": "0x6d687f"
    },
    {
      "status": "0x1",
      "cumulativeGasUsed": "0xc3ff",
      "logs": [],
      "logsBloom": "0x00000000000000000000000000000000000000000000000000000000000000000000000000000000000000000000000000000000000000000000000000000000000000000000000000000000000000000000000000000000000000000000000000000000000000000000000000000000000000000000000000000000000000000000000000000000000000000000000000000000000000000000000000000000000000000000000000000000000000000000000000000000000000000000000000000000000000000000000000000000000000000000000000000000000000000000000000000000000000000000000000000000000000000000000000000000",
      "type": "0x2",
      "transactionHash": "0x29664e92de6c76202cc1e74f7b6b005be6f998f8c4d0d9c4e4348442404abf3a",
      "transactionIndex": "0x1",
      "blockHash": "0xc72ded099e0188e1f6cb2d2467956cb16bd913210d3e06e0636c12bde0dc05c0",
      "blockNumber": "0x60b9957",
      "gasUsed": "0xc3ff",
      "effectiveGasPrice": "0x5f5e100",
      "from": "0xe62ab4d111f968660c6b2188046f9b9ba53c4bae",
      "to": "0x3dd9bb1ff0e52390c1bc16f1ab77608a2c7631c4",
      "contractAddress": null,
      "gasUsedForL1": "0x73c",
      "l1BlockNumber": "0x6d687f"
    },
    {
      "status": "0x1",
      "cumulativeGasUsed": "0xc40c",
      "logs": [],
      "logsBloom": "0x00000000000000000000000000000000000000000000000000000000000000000000000000000000000000000000000000000000000000000000000000000000000000000000000000000000000000000000000000000000000000000000000000000000000000000000000000000000000000000000000000000000000000000000000000000000000000000000000000000000000000000000000000000000000000000000000000000000000000000000000000000000000000000000000000000000000000000000000000000000000000000000000000000000000000000000000000000000000000000000000000000000000000000000000000000000",
      "type": "0x2",
      "transactionHash": "0x778ea7cd97d53b44e243df14de87b8099b5f21da62c82c7939fd4b30e6fd25ab",
      "transactionIndex": "0x1",
      "blockHash": "0xeae38e7ef3774b25663357d57ec49383fbf136df1bc7224c96a1cb993f278a9b",
      "blockNumber": "0x60b995a",
      "gasUsed": "0xc40c",
      "effectiveGasPrice": "0x5f5e100",
      "from": "0xe62ab4d111f968660c6b2188046f9b9ba53c4bae",
      "to": "0x3dd9bb1ff0e52390c1bc16f1ab77608a2c7631c4",
      "contractAddress": null,
      "gasUsedForL1": "0x732",
      "l1BlockNumber": "0x6d687f"
    },
    {
      "status": "0x1",
      "cumulativeGasUsed": "0xc42d",
      "logs": [],
      "logsBloom": "0x00000000000000000000000000000000000000000000000000000000000000000000000000000000000000000000000000000000000000000000000000000000000000000000000000000000000000000000000000000000000000000000000000000000000000000000000000000000000000000000000000000000000000000000000000000000000000000000000000000000000000000000000000000000000000000000000000000000000000000000000000000000000000000000000000000000000000000000000000000000000000000000000000000000000000000000000000000000000000000000000000000000000000000000000000000000",
      "type": "0x2",
      "transactionHash": "0x634637ba9fd038fa98d8203fb83eeab2338a2c209306696fcb43c85a8b0bc3a2",
      "transactionIndex": "0x1",
      "blockHash": "0xe172314455fec8d52985172517415e28b13fe50925e11b564cd03fbc6682db1c",
      "blockNumber": "0x60b997b",
      "gasUsed": "0xc42d",
      "effectiveGasPrice": "0x5f5e100",
      "from": "0xe62ab4d111f968660c6b2188046f9b9ba53c4bae",
      "to": "0x3dd9bb1ff0e52390c1bc16f1ab77608a2c7631c4",
      "contractAddress": null,
      "gasUsedForL1": "0x73c",
      "l1BlockNumber": "0x6d6881"
    },
    {
      "status": "0x1",
      "cumulativeGasUsed": "0xc444",
      "logs": [],
      "logsBloom": "0x00000000000000000000000000000000000000000000000000000000000000000000000000000000000000000000000000000000000000000000000000000000000000000000000000000000000000000000000000000000000000000000000000000000000000000000000000000000000000000000000000000000000000000000000000000000000000000000000000000000000000000000000000000000000000000000000000000000000000000000000000000000000000000000000000000000000000000000000000000000000000000000000000000000000000000000000000000000000000000000000000000000000000000000000000000000",
      "type": "0x2",
      "transactionHash": "0xc1d9930d74275f5ea3f60c5c8e266aca4ccaa33a065a9584a93bbce20d9004fc",
      "transactionIndex": "0x1",
      "blockHash": "0x85e733ae189d7c4c294c5f87b26ee522ae136eb388bc11c6f4d0412b11d2c7ee",
      "blockNumber": "0x60b997e",
      "gasUsed": "0xc444",
      "effectiveGasPrice": "0x5f5e100",
      "from": "0xe62ab4d111f968660c6b2188046f9b9ba53c4bae",
      "to": "0x3dd9bb1ff0e52390c1bc16f1ab77608a2c7631c4",
      "contractAddress": null,
      "gasUsedForL1": "0x73c",
      "l1BlockNumber": "0x6d6881"
    },
    {
      "status": "0x1",
      "cumulativeGasUsed": "0xc45b",
      "logs": [],
      "logsBloom": "0x00000000000000000000000000000000000000000000000000000000000000000000000000000000000000000000000000000000000000000000000000000000000000000000000000000000000000000000000000000000000000000000000000000000000000000000000000000000000000000000000000000000000000000000000000000000000000000000000000000000000000000000000000000000000000000000000000000000000000000000000000000000000000000000000000000000000000000000000000000000000000000000000000000000000000000000000000000000000000000000000000000000000000000000000000000000",
      "type": "0x2",
      "transactionHash": "0xdc4cb194b95f9446e1baea5f5ed54188e12a52d245ae343adc0afd8cbe10259c",
      "transactionIndex": "0x1",
      "blockHash": "0x8f546059346f2ade3f0de45c339df50ddd000e045ec45e24171bbce7dc2600f5",
      "blockNumber": "0x60b999c",
      "gasUsed": "0xc45b",
      "effectiveGasPrice": "0x5f5e100",
      "from": "0xe62ab4d111f968660c6b2188046f9b9ba53c4bae",
      "to": "0x3dd9bb1ff0e52390c1bc16f1ab77608a2c7631c4",
      "contractAddress": null,
      "gasUsedForL1": "0x73c",
      "l1BlockNumber": "0x6d6882"
    },
    {
      "status": "0x1",
      "cumulativeGasUsed": "0xc472",
      "logs": [],
      "logsBloom": "0x00000000000000000000000000000000000000000000000000000000000000000000000000000000000000000000000000000000000000000000000000000000000000000000000000000000000000000000000000000000000000000000000000000000000000000000000000000000000000000000000000000000000000000000000000000000000000000000000000000000000000000000000000000000000000000000000000000000000000000000000000000000000000000000000000000000000000000000000000000000000000000000000000000000000000000000000000000000000000000000000000000000000000000000000000000000",
      "type": "0x2",
      "transactionHash": "0x12e858661c3f2545ca33a708fcd786a266fa3af3494ef2897a0c8d71db184248",
      "transactionIndex": "0x1",
      "blockHash": "0x74045b5280c89ea7e9a118c43304725df8075dfe91bfa3ee724b1536236cee9c",
      "blockNumber": "0x60b99a0",
      "gasUsed": "0xc472",
      "effectiveGasPrice": "0x5f5e100",
      "from": "0xe62ab4d111f968660c6b2188046f9b9ba53c4bae",
      "to": "0x3dd9bb1ff0e52390c1bc16f1ab77608a2c7631c4",
      "contractAddress": null,
      "gasUsedForL1": "0x73c",
      "l1BlockNumber": "0x6d6882"
    },
    {
      "status": "0x1",
      "cumulativeGasUsed": "0xc489",
      "logs": [],
      "logsBloom": "0x00000000000000000000000000000000000000000000000000000000000000000000000000000000000000000000000000000000000000000000000000000000000000000000000000000000000000000000000000000000000000000000000000000000000000000000000000000000000000000000000000000000000000000000000000000000000000000000000000000000000000000000000000000000000000000000000000000000000000000000000000000000000000000000000000000000000000000000000000000000000000000000000000000000000000000000000000000000000000000000000000000000000000000000000000000000",
      "type": "0x2",
      "transactionHash": "0x7e74c534150bebe6c6f7a863f681b726dc4a263fe6e052adcb3be410f10fad30",
      "transactionIndex": "0x1",
      "blockHash": "0x404b161ba367cd873255915616f2eb2c7290f42c0a4fd7f3bb81f98bf526f5ba",
      "blockNumber": "0x60b99a4",
      "gasUsed": "0xc489",
      "effectiveGasPrice": "0x5f5e100",
      "from": "0xe62ab4d111f968660c6b2188046f9b9ba53c4bae",
      "to": "0x3dd9bb1ff0e52390c1bc16f1ab77608a2c7631c4",
      "contractAddress": null,
      "gasUsedForL1": "0x73c",
      "l1BlockNumber": "0x6d6882"
    },
    {
      "status": "0x1",
      "cumulativeGasUsed": "0xc4a0",
      "logs": [],
      "logsBloom": "0x00000000000000000000000000000000000000000000000000000000000000000000000000000000000000000000000000000000000000000000000000000000000000000000000000000000000000000000000000000000000000000000000000000000000000000000000000000000000000000000000000000000000000000000000000000000000000000000000000000000000000000000000000000000000000000000000000000000000000000000000000000000000000000000000000000000000000000000000000000000000000000000000000000000000000000000000000000000000000000000000000000000000000000000000000000000",
      "type": "0x2",
      "transactionHash": "0x8cbfe1ce9af51191d113123e2589c5f90bd86efee0fbe0f0833f6b48d8aee9f1",
      "transactionIndex": "0x1",
      "blockHash": "0xcb93cdbbdaec22e53b91aa6816f8ec2282625354727c6d442929b2f42b7b73b7",
      "blockNumber": "0x60b99a8",
      "gasUsed": "0xc4a0",
      "effectiveGasPrice": "0x5f5e100",
      "from": "0xe62ab4d111f968660c6b2188046f9b9ba53c4bae",
      "to": "0x3dd9bb1ff0e52390c1bc16f1ab77608a2c7631c4",
      "contractAddress": null,
      "gasUsedForL1": "0x73c",
      "l1BlockNumber": "0x6d6882"
    },
    {
      "status": "0x1",
      "cumulativeGasUsed": "0x3d82b",
      "logs": [],
      "logsBloom": "0x00000000000000000000000000000000000000000000000000000000000000000000000000000000000000000000000000000000000000000000000000000000000000000000000000000000000000000000000000000000000000000000000000000000000000000000000000000000000000000000000000000000000000000000000000000000000000000000000000000000000000000000000000000000000000000000000000000000000000000000000000000000000000000000000000000000000000000000000000000000000000000000000000000000000000000000000000000000000000000000000000000000000000000000000000000000",
      "type": "0x2",
      "transactionHash": "0x7133066c56988ed49ef9495c4ca2216523a15d75dd8ed4a776e83805186e697f",
      "transactionIndex": "0x2",
      "blockHash": "0x1eb88af4a871c5323abb5db4896f0619debb118ba0a0344513be6c1e2d98471d",
      "blockNumber": "0x60b99ac",
      "gasUsed": "0xc4b7",
      "effectiveGasPrice": "0x5f5e100",
      "from": "0xe62ab4d111f968660c6b2188046f9b9ba53c4bae",
      "to": "0x3dd9bb1ff0e52390c1bc16f1ab77608a2c7631c4",
      "contractAddress": null,
      "gasUsedForL1": "0x73c",
      "l1BlockNumber": "0x6d6882"
    },
    {
      "status": "0x1",
      "cumulativeGasUsed": "0x96923",
      "logs": [],
      "logsBloom": "0x00000000000000000000000000000000000000000000000000000000000000000000000000000000000000000000000000000000000000000000000000000000000000000000000000000000000000000000000000000000000000000000000000000000000000000000000000000000000000000000000000000000000000000000000000000000000000000000000000000000000000000000000000000000000000000000000000000000000000000000000000000000000000000000000000000000000000000000000000000000000000000000000000000000000000000000000000000000000000000000000000000000000000000000000000000000",
      "type": "0x2",
      "transactionHash": "0x39ee4875beebde0ca59f97d608dce597cf57ab55bbd1748b73e8ae07711a8497",
      "transactionIndex": "0x3",
      "blockHash": "0x59deee5c83e4654df3cbe997bcbf8c5e58fdf1847b9344304d20c32095777355",
      "blockNumber": "0x60b99b0",
      "gasUsed": "0xc4ce",
      "effectiveGasPrice": "0x5f5e100",
      "from": "0xe62ab4d111f968660c6b2188046f9b9ba53c4bae",
      "to": "0x3dd9bb1ff0e52390c1bc16f1ab77608a2c7631c4",
      "contractAddress": null,
      "gasUsedForL1": "0x73c",
      "l1BlockNumber": "0x6d6882"
    },
    {
      "status": "0x1",
      "cumulativeGasUsed": "0xc4e5",
      "logs": [],
      "logsBloom": "0x00000000000000000000000000000000000000000000000000000000000000000000000000000000000000000000000000000000000000000000000000000000000000000000000000000000000000000000000000000000000000000000000000000000000000000000000000000000000000000000000000000000000000000000000000000000000000000000000000000000000000000000000000000000000000000000000000000000000000000000000000000000000000000000000000000000000000000000000000000000000000000000000000000000000000000000000000000000000000000000000000000000000000000000000000000000",
      "type": "0x2",
      "transactionHash": "0x2e250e9eaa1bea08d01871b2416def21ab8eba3eafe2c09fa7d0c0c8b111a1dd",
      "transactionIndex": "0x1",
      "blockHash": "0x2e84647033d3a9084c6d973ca0227b0b0bab9af3830e8ce7e61a16e2291c2c1f",
      "blockNumber": "0x60b99b3",
      "gasUsed": "0xc4e5",
      "effectiveGasPrice": "0x5f5e100",
      "from": "0xe62ab4d111f968660c6b2188046f9b9ba53c4bae",
      "to": "0x3dd9bb1ff0e52390c1bc16f1ab77608a2c7631c4",
      "contractAddress": null,
      "gasUsedForL1": "0x73c",
      "l1BlockNumber": "0x6d6882"
    },
    {
      "status": "0x1",
      "cumulativeGasUsed": "0xc4f7",
      "logs": [],
      "logsBloom": "0x00000000000000000000000000000000000000000000000000000000000000000000000000000000000000000000000000000000000000000000000000000000000000000000000000000000000000000000000000000000000000000000000000000000000000000000000000000000000000000000000000000000000000000000000000000000000000000000000000000000000000000000000000000000000000000000000000000000000000000000000000000000000000000000000000000000000000000000000000000000000000000000000000000000000000000000000000000000000000000000000000000000000000000000000000000000",
      "type": "0x2",
      "transactionHash": "0x0fcd8be4cc2eb6573053d3c13127fbe68a1aa7fa669a6cbe74d0982bcf48a9d2",
      "transactionIndex": "0x1",
      "blockHash": "0xbb7469b94df1b4b2f1adb28b3ddb1ef9c7b342db2afc725574f424f2821fdeae",
      "blockNumber": "0x60b99d0",
      "gasUsed": "0xc4f7",
      "effectiveGasPrice": "0x5f5e100",
      "from": "0xe62ab4d111f968660c6b2188046f9b9ba53c4bae",
      "to": "0x3dd9bb1ff0e52390c1bc16f1ab77608a2c7631c4",
      "contractAddress": null,
      "gasUsedForL1": "0x73c",
      "l1BlockNumber": "0x6d6883"
    },
    {
      "status": "0x1",
      "cumulativeGasUsed": "0x38dc1",
      "logs": [],
      "logsBloom": "0x00000000000000000000000000000000000000000000000000000000000000000000000000000000000000000000000000000000000000000000000000000000000000000000000000000000000000000000000000000000000000000000000000000000000000000000000000000000000000000000000000000000000000000000000000000000000000000000000000000000000000000000000000000000000000000000000000000000000000000000000000000000000000000000000000000000000000000000000000000000000000000000000000000000000000000000000000000000000000000000000000000000000000000000000000000000",
      "type": "0x2",
      "transactionHash": "0xc8f8aac3c008edda7b047cd222a58bc9f805a5d20515b4b6a88658f08b79d45e",
      "transactionIndex": "0x2",
      "blockHash": "0xae58cfafacf5821b450d29b29b25281e42cab6b0ec5b9b54b0433ee493c16ee0",
      "blockNumber": "0x60b99ef",
      "gasUsed": "0x22a7f",
      "effectiveGasPrice": "0x5f5e100",
      "from": "0xe62ab4d111f968660c6b2188046f9b9ba53c4bae",
      "to": "0x3dd9bb1ff0e52390c1bc16f1ab77608a2c7631c4",
      "contractAddress": null,
      "gasUsedForL1": "0xb5d",
      "l1BlockNumber": "0x6d6883"
    },
    {
      "status": "0x1",
      "cumulativeGasUsed": "0x1ee13",
      "logs": [],
      "logsBloom": "0x00000000000000000000000000000000000000000000000000000000000000000000000000000000000000000000000000000000000000000000000000000000000000000000000000000000000000000000000000000000000000000000000000000000000000000000000000000000000000000000000000000000000000000000000000000000000000000000000000000000000000000000000000000000000000000000000000000000000000000000000000000000000000000000000000000000000000000000000000000000000000000000000000000000000000000000000000000000000000000000000000000000000000000000000000000000",
      "type": "0x2",
      "transactionHash": "0x200661938d739d227c8762e2add8d71316620e385fd295cf5cc8b63103a19c53",
      "transactionIndex": "0x1",
      "blockHash": "0xed857bef01b337bba651a18286cd04e88eb5b7eb96c241da694abfd0f2da5bf6",
      "blockNumber": "0x60b99f2",
      "gasUsed": "0x1ee13",
      "effectiveGasPrice": "0x5f5e100",
      "from": "0xe62ab4d111f968660c6b2188046f9b9ba53c4bae",
      "to": "0x3dd9bb1ff0e52390c1bc16f1ab77608a2c7631c4",
      "contractAddress": null,
      "gasUsedForL1": "0xb71",
      "l1BlockNumber": "0x6d6883"
    },
    {
      "status": "0x1",
      "cumulativeGasUsed": "0x1ee5a",
      "logs": [],
      "logsBloom": "0x00000000000000000000000000000000000000000000000000000000000000000000000000000000000000000000000000000000000000000000000000000000000000000000000000000000000000000000000000000000000000000000000000000000000000000000000000000000000000000000000000000000000000000000000000000000000000000000000000000000000000000000000000000000000000000000000000000000000000000000000000000000000000000000000000000000000000000000000000000000000000000000000000000000000000000000000000000000000000000000000000000000000000000000000000000000",
      "type": "0x2",
      "transactionHash": "0x809ef8d64b0dc4ec203ad44d200f0edb73c5349cfb9a3fa07af4da247fc6edd8",
      "transactionIndex": "0x1",
      "blockHash": "0xc4d632677619b1600f75a64a3461572f5649fd343006fda0a30fba82e4b4c648",
      "blockNumber": "0x60b9a0e",
      "gasUsed": "0x1ee5a",
      "effectiveGasPrice": "0x5f5e100",
      "from": "0xe62ab4d111f968660c6b2188046f9b9ba53c4bae",
      "to": "0x3dd9bb1ff0e52390c1bc16f1ab77608a2c7631c4",
      "contractAddress": null,
      "gasUsedForL1": "0xbb8",
      "l1BlockNumber": "0x6d6884"
    },
    {
      "status": "0x1",
      "cumulativeGasUsed": "0x1e973",
      "logs": [],
      "logsBloom": "0x00000000000000000000000000000000000000000000000000000000000000000000000000000000000000000000000000000000000000000000000000000000000000000000000000000000000000000000000000000000000000000000000000000000000000000000000000000000000000000000000000000000000000000000000000000000000000000000000000000000000000000000000000000000000000000000000000000000000000000000000000000000000000000000000000000000000000000000000000000000000000000000000000000000000000000000000000000000000000000000000000000000000000000000000000000000",
      "type": "0x2",
      "transactionHash": "0xd29c9ebb0aef42e57121b297deae471c698b374f9afc9cf1496dfb55abba2cf5",
      "transactionIndex": "0x1",
      "blockHash": "0xaa02c72d9a4511864913097b73565a94e40080929341556a4ed21e637f138485",
      "blockNumber": "0x60b9a27",
      "gasUsed": "0x1e973",
      "effectiveGasPrice": "0x5f5e100",
      "from": "0xe62ab4d111f968660c6b2188046f9b9ba53c4bae",
      "to": "0x3dd9bb1ff0e52390c1bc16f1ab77608a2c7631c4",
      "contractAddress": null,
      "gasUsedForL1": "0xb5d",
      "l1BlockNumber": "0x6d6884"
    },
    {
      "status": "0x1",
      "cumulativeGasUsed": "0x1f2e6",
      "logs": [],
      "logsBloom": "0x00000000000000000000000000000000000000000000000000000000000000000000000000000000000000000000000000000000000000000000000000000000000000000000000000000000000000000000000000000000000000000000000000000000000000000000000000000000000000000000000000000000000000000000000000000000000000000000000000000000000000000000000000000000000000000000000000000000000000000000000000000000000000000000000000000000000000000000000000000000000000000000000000000000000000000000000000000000000000000000000000000000000000000000000000000000",
      "type": "0x2",
      "transactionHash": "0x6f1142b5fb614888df2870ccab1d8acd4c882091263376fd27f79ad790aad4a0",
      "transactionIndex": "0x1",
      "blockHash": "0x28daa431221440b619847b04f9d7948521cb8e7aebc672e2a909bc53b863d69d",
      "blockNumber": "0x60b9a43",
      "gasUsed": "0x1f2e6",
      "effectiveGasPrice": "0x5f5e100",
      "from": "0xe62ab4d111f968660c6b2188046f9b9ba53c4bae",
      "to": "0x3dd9bb1ff0e52390c1bc16f1ab77608a2c7631c4",
      "contractAddress": null,
      "gasUsedForL1": "0xbb8",
      "l1BlockNumber": "0x6d6886"
    },
    {
      "status": "0x1",
      "cumulativeGasUsed": "0x86b9e",
      "logs": [],
      "logsBloom": "0x00000000000000000000000000000000000000000000000000000000000000000000000000000000000000000000000000000000000000000000000000000000000000000000000000000000000000000000000000000000000000000000000000000000000000000000000000000000000000000000000000000000000000000000000000000000000000000000000000000000000000000000000000000000000000000000000000000000000000000000000000000000000000000000000000000000000000000000000000000000000000000000000000000000000000000000000000000000000000000000000000000000000000000000000000000000",
      "type": "0x2",
      "transactionHash": "0xb15b7c478dca95dbfa06a240d377135cdcf9c6359bc074b5dbb41831e83cd127",
      "transactionIndex": "0x2",
      "blockHash": "0xc2f9d0fa7883529c057c3a3e6b31152ebde1b3e7cea6c0f318b0298e4aa6c384",
      "blockNumber": "0x60b9a60",
      "gasUsed": "0x7c585",
      "effectiveGasPrice": "0x5f5e100",
      "from": "0xe62ab4d111f968660c6b2188046f9b9ba53c4bae",
      "to": "0x9b81c6a2a62eea2a814afdbb5d69ce0592e1c751",
      "contractAddress": null,
      "gasUsedForL1": "0x1125",
      "l1BlockNumber": "0x6d6886"
    },
    {
      "status": "0x1",
      "cumulativeGasUsed": "0xbe8ac",
      "logs": [],
      "logsBloom": "0x00000000000000000000000000000000000000000000000000000000000000000000000000000000000000000000000000000000000000000000000000000000000000000000000000000000000000000000000000000000000000000000000000000000000000000000000000000000000000000000000000000000000000000000000000000000000000000000000000000000000000000000000000000000000000000000000000000000000000000000000000000000000000000000000000000000000000000000000000000000000000000000000000000000000000000000000000000000000000000000000000000000000000000000000000000000",
      "type": "0x2",
      "transactionHash": "0xdc8ef4c376c3e40fa5d6e7078f207abfb73015f334dd748c20cd816744622fae",
      "transactionIndex": "0x1",
      "blockHash": "0x3e26368145654362e0c1f1ac595f1727c7a42d71ff1949f7d737c6a9589af04b",
      "blockNumber": "0x60b9a63",
      "gasUsed": "0xbe8ac",
      "effectiveGasPrice": "0x5f5e100",
      "from": "0xe62ab4d111f968660c6b2188046f9b9ba53c4bae",
      "to": "0x9b81c6a2a62eea2a814afdbb5d69ce0592e1c751",
      "contractAddress": null,
      "gasUsedForL1": "0x123f",
      "l1BlockNumber": "0x6d6886"
    },
    {
      "status": "0x1",
      "cumulativeGasUsed": "0x9cf03",
      "logs": [],
      "logsBloom": "0x00000000000000000000000000000000000000000000000000000000000000000000000000000000000000000000000000000000000000000000000000000000000000000000000000000000000000000000000000000000000000000000000000000000000000000000000000000000000000000000000000000000000000000000000000000000000000000000000000000000000000000000000000000000000000000000000000000000000000000000000000000000000000000000000000000000000000000000000000000000000000000000000000000000000000000000000000000000000000000000000000000000000000000000000000000000",
      "type": "0x2",
      "transactionHash": "0xe33e6141d4e2ac2c835d247506fe50dac0dc5a3ff40c665fb67036d399f99ca4",
      "transactionIndex": "0x1",
      "blockHash": "0xde2578d22f301800ea85196237ac95118cf9e2bbd2c2b2bca911be8f5ef26c95",
      "blockNumber": "0x60b9a84",
      "gasUsed": "0x9cf03",
      "effectiveGasPrice": "0x5f5e100",
      "from": "0xe62ab4d111f968660c6b2188046f9b9ba53c4bae",
      "to": "0x9b81c6a2a62eea2a814afdbb5d69ce0592e1c751",
      "contractAddress": null,
      "gasUsedForL1": "0x1290",
      "l1BlockNumber": "0x6d6887"
    }
  ],
  "libraries": [],
  "pending": [],
  "returns": {},
  "timestamp": 1732799806,
  "chain": 421614,
  "commit": "9c84b963"
}