{
  "transactions": [
    {
      "hash": "0x4d89c08dce2471f12848a885a44332bbded2e30ecae68926d94d8f5be6c800e6",
      "transactionType": "CALL",
      "contractName": null,
      "contractAddress": "0x58b610a359c870e0fc941139821a51f5aa23f14e",
      "function": "addTxSender(address)",
      "arguments": [
        "0x0c6235c04eF4Fa5013A58afb22967a068810C929"
      ],
      "transaction": {
        "from": "0xc3ca11bd8e131471904dced927b3fb7edb453179",
        "to": "0x58b610a359c870e0fc941139821a51f5aa23f14e",
        "gas": "0x12a32",
        "value": "0x0",
        "input": "0xeebd14af0000000000000000000000000c6235c04ef4fa5013a58afb22967a068810c929",
        "nonce": "0x59",
        "chainId": "0x79a"
      },
      "additionalContracts": [],
      "isFixedGasLimit": false
    },
    {
      "hash": "0x80ca93c5ee578ebbb8d098111b48ec3e67ed8b920a8e0de5342eb7fccb7cc705",
      "transactionType": "CALL",
      "contractName": null,
      "contractAddress": "0x2f925d6512b2bbb00f5a36d8b18e01fcf35f7dc7",
      "function": "addTxSender(address)",
      "arguments": [
        "0x0c6235c04eF4Fa5013A58afb22967a068810C929"
      ],
      "transaction": {
        "from": "0xc3ca11bd8e131471904dced927b3fb7edb453179",
        "to": "0x2f925d6512b2bbb00f5a36d8b18e01fcf35f7dc7",
        "gas": "0x12a13",
        "value": "0x0",
        "input": "0xeebd14af0000000000000000000000000c6235c04ef4fa5013a58afb22967a068810c929",
        "nonce": "0x5a",
        "chainId": "0x79a"
      },
      "additionalContracts": [],
      "isFixedGasLimit": false
    },
    {
      "hash": "0x4389778010774e9096176916f3937c4fcd448934ced4886370ca94e4c145814e",
      "transactionType": "CALL",
      "contractName": null,
      "contractAddress": "0x9c9e9fad264089339aad66ff3e32d2ba1ddf6951",
      "function": "addTxSender(address)",
      "arguments": [
        "0x0c6235c04eF4Fa5013A58afb22967a068810C929"
      ],
      "transaction": {
        "from": "0xc3ca11bd8e131471904dced927b3fb7edb453179",
        "to": "0x9c9e9fad264089339aad66ff3e32d2ba1ddf6951",
        "gas": "0x12b07",
        "value": "0x0",
        "input": "0xeebd14af0000000000000000000000000c6235c04ef4fa5013a58afb22967a068810c929",
        "nonce": "0x5b",
        "chainId": "0x79a"
      },
      "additionalContracts": [],
      "isFixedGasLimit": false
    },
    {
      "hash": "0x243f0cd02d3515a944c4cb0111c7f9373ce0822cacd9b0a7d35997d401e4a1ef",
      "transactionType": "CALL",
      "contractName": null,
      "contractAddress": "0xe912f7c7a59470a6e3f178388106e3caa9e6fbd1",
      "function": "addTxSender(address)",
      "arguments": [
        "0x0c6235c04eF4Fa5013A58afb22967a068810C929"
      ],
      "transaction": {
        "from": "0xc3ca11bd8e131471904dced927b3fb7edb453179",
        "to": "0xe912f7c7a59470a6e3f178388106e3caa9e6fbd1",
        "gas": "0x12a8d",
        "value": "0x0",
        "input": "0xeebd14af0000000000000000000000000c6235c04ef4fa5013a58afb22967a068810c929",
        "nonce": "0x5c",
        "chainId": "0x79a"
      },
      "additionalContracts": [],
      "isFixedGasLimit": false
    },
    {
      "hash": "0xefe99b6d283de52bf84c45d80426bc1147a029894586b5bb6e4300f26acbd12b",
      "transactionType": "CALL",
      "contractName": null,
      "contractAddress": "0x92228b058f25bc4fb333fa296dddecbddf6496f3",
      "function": "addTxSender(address)",
      "arguments": [
        "0x0c6235c04eF4Fa5013A58afb22967a068810C929"
      ],
      "transaction": {
        "from": "0xc3ca11bd8e131471904dced927b3fb7edb453179",
        "to": "0x92228b058f25bc4fb333fa296dddecbddf6496f3",
        "gas": "0x12940",
        "value": "0x0",
        "input": "0xeebd14af0000000000000000000000000c6235c04ef4fa5013a58afb22967a068810c929",
        "nonce": "0x5d",
        "chainId": "0x79a"
      },
      "additionalContracts": [],
      "isFixedGasLimit": false
    },
    {
      "hash": "0xa067b4a4cf96994933575c2b8cca749d721ad558fe91277b8661ff9eb48302bf",
      "transactionType": "CALL",
      "contractName": null,
      "contractAddress": "0x2af842c6517cf30fb3456aef485230e0dd085845",
      "function": "addTxSender(address)",
      "arguments": [
        "0x0c6235c04eF4Fa5013A58afb22967a068810C929"
      ],
      "transaction": {
        "from": "0xc3ca11bd8e131471904dced927b3fb7edb453179",
        "to": "0x2af842c6517cf30fb3456aef485230e0dd085845",
        "gas": "0x12a14",
        "value": "0x0",
        "input": "0xeebd14af0000000000000000000000000c6235c04ef4fa5013a58afb22967a068810c929",
        "nonce": "0x5e",
        "chainId": "0x79a"
      },
      "additionalContracts": [],
      "isFixedGasLimit": false
    },
    {
      "hash": "0xfa01e611552cba610f87e32a7b25f9ab70672be2e86880c9489873aa52293a54",
      "transactionType": "CALL",
      "contractName": null,
      "contractAddress": "0x2026027054f5bebceb650abd62dc623e327658e7",
      "function": "addTxSender(address)",
      "arguments": [
        "0x0c6235c04eF4Fa5013A58afb22967a068810C929"
      ],
      "transaction": {
        "from": "0xc3ca11bd8e131471904dced927b3fb7edb453179",
        "to": "0x2026027054f5bebceb650abd62dc623e327658e7",
        "gas": "0x1294d",
        "value": "0x0",
        "input": "0xeebd14af0000000000000000000000000c6235c04ef4fa5013a58afb22967a068810c929",
        "nonce": "0x5f",
        "chainId": "0x79a"
      },
      "additionalContracts": [],
      "isFixedGasLimit": false
    }
  ],
  "receipts": [
    {
      "status": "0x1",
      "cumulativeGasUsed": "0x18c48",
      "logs": [
        {
          "address": "0x58b610a359c870e0fc941139821a51f5aa23f14e",
          "topics": [
            "0xbfb8b3e2f6221ae729e9cacb0d35f5d9be686ba10cb1d4e34b646bbb87f7a269",
            "0x0000000000000000000000000c6235c04ef4fa5013a58afb22967a068810c929"
          ],
          "data": "0x0000000000000000000000000000000000000000000000000000000000000001",
          "blockHash": "0x83497c79873f90b38a00ce9ecd661e8f700238c1d51e8685306de553905705f5",
          "blockNumber": "0xf4cb1a",
          "transactionHash": "0x4d89c08dce2471f12848a885a44332bbded2e30ecae68926d94d8f5be6c800e6",
          "transactionIndex": "0x1",
          "logIndex": "0x0",
          "removed": false
        }
      ],
      "logsBloom": "0x00000000000010000000000000000000000000000000000000000000000000000000000000000080000000000000000020000020000000000000000000000000000040000000000000000000000000000000000000000000000000000000000000000000000000000000000000000000000000000000000000000002000000000000000000000000000000000000000000000000000000000000000000000000000000000100000000000000000000000000000000000000000000000000000000000000000000000000000000000000000000000000000000000000000000000000200000000000000000080000000000000000000000000000000000000000",
      "type": "0x2",
      "transactionHash": "0x4d89c08dce2471f12848a885a44332bbded2e30ecae68926d94d8f5be6c800e6",
      "transactionIndex": "0x1",
      "blockHash": "0x83497c79873f90b38a00ce9ecd661e8f700238c1d51e8685306de553905705f5",
      "blockNumber": "0xf4cb1a",
      "gasUsed": "0xd7e4",
      "effectiveGasPrice": "0xfd",
      "from": "0xc3ca11bd8e131471904dced927b3fb7edb453179",
      "to": "0x58b610a359c870e0fc941139821a51f5aa23f14e",
      "contractAddress": null,
      "l1BaseFeeScalar": "0x2608",
      "l1BlobBaseFee": "0x8aa2c4f9",
      "l1BlobBaseFeeScalar": "0x177fef",
      "l1Fee": "0x53828dccd6",
      "l1GasPrice": "0x1c4a1fb",
      "l1GasUsed": "0x640"
    },
    {
      "status": "0x1",
      "cumulativeGasUsed": "0x18c32",
      "logs": [
        {
          "address": "0x2f925d6512b2bbb00f5a36d8b18e01fcf35f7dc7",
          "topics": [
            "0xbfb8b3e2f6221ae729e9cacb0d35f5d9be686ba10cb1d4e34b646bbb87f7a269",
            "0x0000000000000000000000000c6235c04ef4fa5013a58afb22967a068810c929"
          ],
          "data": "0x0000000000000000000000000000000000000000000000000000000000000001",
          "blockHash": "0xc4cd1cecfdc9035b04fcf2ef3da80d73d3c9a96ce11a8e7cc429694df415bc9d",
          "blockNumber": "0xf4cb1c",
          "transactionHash": "0x80ca93c5ee578ebbb8d098111b48ec3e67ed8b920a8e0de5342eb7fccb7cc705",
          "transactionIndex": "0x1",
          "logIndex": "0x0",
          "removed": false
        }
      ],
      "logsBloom": "0x00000000000000000000000000000000000000000000000000000000000000000000000000000080000000000000000020000020000000000000000000000000000040000000000000000000000000000000000000000000000000000000000000000000000000000000000000000000000000000000000000000002000000000000000400000000000000000000000000000000000000000000000000000000000000000000000000000000000000000000000000000000000000000000004000000000000000000000000000004000000000000000000000000000000000000000200000000000000000000000000000000000000000000000000000000000",
      "type": "0x2",
      "transactionHash": "0x80ca93c5ee578ebbb8d098111b48ec3e67ed8b920a8e0de5342eb7fccb7cc705",
      "transactionIndex": "0x1",
      "blockHash": "0xc4cd1cecfdc9035b04fcf2ef3da80d73d3c9a96ce11a8e7cc429694df415bc9d",
      "blockNumber": "0xf4cb1c",
      "gasUsed": "0xd7ce",
      "effectiveGasPrice": "0xfd",
      "from": "0xc3ca11bd8e131471904dced927b3fb7edb453179",
      "to": "0x2f925d6512b2bbb00f5a36d8b18e01fcf35f7dc7",
      "contractAddress": null,
      "l1BaseFeeScalar": "0x2608",
      "l1BlobBaseFee": "0x8aa2c4f9",
      "l1BlobBaseFeeScalar": "0x177fef",
      "l1Fee": "0x53828dccd6",
      "l1GasPrice": "0x1c4a1fb",
      "l1GasUsed": "0x640"
    },
    {
      "status": "0x1",
      "cumulativeGasUsed": "0x1b897",
      "logs": [
        {
          "address": "0x9c9e9fad264089339aad66ff3e32d2ba1ddf6951",
          "topics": [
            "0xbfb8b3e2f6221ae729e9cacb0d35f5d9be686ba10cb1d4e34b646bbb87f7a269",
            "0x0000000000000000000000000c6235c04ef4fa5013a58afb22967a068810c929"
          ],
          "data": "0x0000000000000000000000000000000000000000000000000000000000000001",
          "blockHash": "0x1fd658c2f7ac81f2c085704d1c9cf93a4b3f49258fd7162c690090cc3d161445",
          "blockNumber": "0xf4cb1e",
          "transactionHash": "0x4389778010774e9096176916f3937c4fcd448934ced4886370ca94e4c145814e",
          "transactionIndex": "0x1",
          "logIndex": "0x0",
          "removed": false
        }
      ],
      "logsBloom": "0x00000000000000000000000000000000000000000000000000000000000000000000000000000080000000000000000020000020000000000000000000000000000040000000000000000000000000000000000000000000000000000000000000000000000000000000000000000000000000000000000000000002000000000000000000000000000000000000000000000000000000000000000000000000000000000000000000000000000000000000000000000000000000000000000000000000000000000000000800000000000000000000000000000000000002000000600000000000000000000000000000000000000000000000000000000000",
      "type": "0x2",
      "transactionHash": "0x4389778010774e9096176916f3937c4fcd448934ced4886370ca94e4c145814e",
      "transactionIndex": "0x1",
      "blockHash": "0x1fd658c2f7ac81f2c085704d1c9cf93a4b3f49258fd7162c690090cc3d161445",
      "blockNumber": "0xf4cb1e",
      "gasUsed": "0xd87f",
      "effectiveGasPrice": "0xfd",
      "from": "0xc3ca11bd8e131471904dced927b3fb7edb453179",
      "to": "0x9c9e9fad264089339aad66ff3e32d2ba1ddf6951",
      "contractAddress": null,
      "l1BaseFeeScalar": "0x2608",
      "l1BlobBaseFee": "0x95f5e906",
      "l1BlobBaseFeeScalar": "0x177fef",
      "l1Fee": "0x5a51e25559",
      "l1GasPrice": "0x1b7eb25",
      "l1GasUsed": "0x640"
    },
    {
      "status": "0x1",
      "cumulativeGasUsed": "0x1400b8",
      "logs": [
        {
          "address": "0xe912f7c7a59470a6e3f178388106e3caa9e6fbd1",
          "topics": [
            "0xbfb8b3e2f6221ae729e9cacb0d35f5d9be686ba10cb1d4e34b646bbb87f7a269",
            "0x0000000000000000000000000c6235c04ef4fa5013a58afb22967a068810c929"
          ],
          "data": "0x0000000000000000000000000000000000000000000000000000000000000001",
          "blockHash": "0x8f4ea1387f1999a32f93377229a355ad91806a1df664759eab181311c4e96040",
          "blockNumber": "0xf4cb20",
          "transactionHash": "0x243f0cd02d3515a944c4cb0111c7f9373ce0822cacd9b0a7d35997d401e4a1ef",
          "transactionIndex": "0x2",
          "logIndex": "0x1",
          "removed": false
        }
      ],
      "logsBloom": "0x00000000000000000000000000000000000000000000000000000000000004000000000000000080000000000000000020000020000000000000000000000000000040020000000000010000000000000000000000000000000000000000000000000000000000000000000000000000000000000000000000000002000000000000000000000000000000000000000000000000000000000000000000000000000000000000000000000000000000000000000000000000000000000000000000000000000000000000000000000000000000000000000000000000000000000000200000000000000000000000000000000000000000000000000000000000",
      "type": "0x2",
      "transactionHash": "0x243f0cd02d3515a944c4cb0111c7f9373ce0822cacd9b0a7d35997d401e4a1ef",
      "transactionIndex": "0x2",
      "blockHash": "0x8f4ea1387f1999a32f93377229a355ad91806a1df664759eab181311c4e96040",
      "blockNumber": "0xf4cb20",
      "gasUsed": "0xd826",
      "effectiveGasPrice": "0xfd",
      "from": "0xc3ca11bd8e131471904dced927b3fb7edb453179",
      "to": "0xe912f7c7a59470a6e3f178388106e3caa9e6fbd1",
      "contractAddress": null,
      "l1BaseFeeScalar": "0x2608",
      "l1BlobBaseFee": "0x95f5e906",
      "l1BlobBaseFeeScalar": "0x177fef",
      "l1Fee": "0x5a51e25559",
      "l1GasPrice": "0x1b7eb25",
      "l1GasUsed": "0x640"
    },
    {
      "status": "0x1",
      "cumulativeGasUsed": "0x18b99",
      "logs": [
        {
          "address": "0x92228b058f25bc4fb333fa296dddecbddf6496f3",
          "topics": [
            "0xbfb8b3e2f6221ae729e9cacb0d35f5d9be686ba10cb1d4e34b646bbb87f7a269",
            "0x0000000000000000000000000c6235c04ef4fa5013a58afb22967a068810c929"
          ],
          "data": "0x0000000000000000000000000000000000000000000000000000000000000001",
          "blockHash": "0x0e84c3edf73ea1969b320ab8f4a43a125f42f6248ee27e93690704b30a83d0c5",
          "blockNumber": "0xf4cb23",
          "transactionHash": "0xefe99b6d283de52bf84c45d80426bc1147a029894586b5bb6e4300f26acbd12b",
          "transactionIndex": "0x1",
          "logIndex": "0x0",
          "removed": false
        }
      ],
      "logsBloom": "0x00000000000000000000000000000000000000000000000000000000000000000000000000000080000000000000000020000020000000000000000000000000000040000000000000000000000000000000000000000000000000000000000000000000000000000000000000000000000000000000000000000002000000000000000000000000000000000000000000000000000000008010000000000000000000000000000000000000000000000000000000000000000000000000000000000000002000000000000000000000000000000000000000000000000000000000200000000000000000000000000000000000000000000000000000000000",
      "type": "0x2",
      "transactionHash": "0xefe99b6d283de52bf84c45d80426bc1147a029894586b5bb6e4300f26acbd12b",
      "transactionIndex": "0x1",
      "blockHash": "0x0e84c3edf73ea1969b320ab8f4a43a125f42f6248ee27e93690704b30a83d0c5",
      "blockNumber": "0xf4cb23",
      "gasUsed": "0xd735",
      "effectiveGasPrice": "0xfd",
      "from": "0xc3ca11bd8e131471904dced927b3fb7edb453179",
      "to": "0x92228b058f25bc4fb333fa296dddecbddf6496f3",
      "contractAddress": null,
      "l1BaseFeeScalar": "0x2608",
      "l1BlobBaseFee": "0x95f5e906",
      "l1BlobBaseFeeScalar": "0x177fef",
      "l1Fee": "0x5a51e25559",
      "l1GasPrice": "0x1b7eb25",
      "l1GasUsed": "0x640"
    },
    {
      "status": "0x1",
      "cumulativeGasUsed": "0x18c33",
      "logs": [
        {
          "address": "0x2af842c6517cf30fb3456aef485230e0dd085845",
          "topics": [
            "0xbfb8b3e2f6221ae729e9cacb0d35f5d9be686ba10cb1d4e34b646bbb87f7a269",
            "0x0000000000000000000000000c6235c04ef4fa5013a58afb22967a068810c929"
          ],
          "data": "0x0000000000000000000000000000000000000000000000000000000000000001",
          "blockHash": "0xb5f6d3af5819e19e8feecc7e9763047aa93247c86799befd9cff53fbda8d306c",
          "blockNumber": "0xf4cb26",
          "transactionHash": "0xa067b4a4cf96994933575c2b8cca749d721ad558fe91277b8661ff9eb48302bf",
          "transactionIndex": "0x1",
          "logIndex": "0x0",
          "removed": false
        }
      ],
      "logsBloom": "0x00000000000000000000000000000000000000000000000000000000000000000000000000000080000000000000000020000020000000000000000000000000000040000000800000000000000000000000000000000000000000000000000000000000000000000000000000000000000000000000000000000002000000000000000000000000000000000000000000000000000000000000000000000000000000004000000000000000000000000000000000000000000000000000000000000000000000000000000000000000000000000000000000000200000000000000200000000000000000000000000000000000000000000000000000000000",
      "type": "0x2",
      "transactionHash": "0xa067b4a4cf96994933575c2b8cca749d721ad558fe91277b8661ff9eb48302bf",
      "transactionIndex": "0x1",
      "blockHash": "0xb5f6d3af5819e19e8feecc7e9763047aa93247c86799befd9cff53fbda8d306c",
      "blockNumber": "0xf4cb26",
      "gasUsed": "0xd7cf",
      "effectiveGasPrice": "0xfd",
      "from": "0xc3ca11bd8e131471904dced927b3fb7edb453179",
      "to": "0x2af842c6517cf30fb3456aef485230e0dd085845",
      "contractAddress": null,
      "l1BaseFeeScalar": "0x2608",
      "l1BlobBaseFee": "0x870de2a5",
      "l1BlobBaseFeeScalar": "0x177fef",
      "l1Fee": "0x5158b5e053",
      "l1GasPrice": "0x19f9f5f",
      "l1GasUsed": "0x640"
    },
    {
      "status": "0x1",
      "cumulativeGasUsed": "0x18ba3",
      "logs": [
        {
          "address": "0x2026027054f5bebceb650abd62dc623e327658e7",
          "topics": [
            "0xbfb8b3e2f6221ae729e9cacb0d35f5d9be686ba10cb1d4e34b646bbb87f7a269",
            "0x0000000000000000000000000c6235c04ef4fa5013a58afb22967a068810c929"
          ],
          "data": "0x0000000000000000000000000000000000000000000000000000000000000001",
          "blockHash": "0x67615d0e8018406af9e8842b0d2ab0a9e0a10beced99265b9d99652b543a232f",
          "blockNumber": "0xf4cb29",
          "transactionHash": "0xfa01e611552cba610f87e32a7b25f9ab70672be2e86880c9489873aa52293a54",
          "transactionIndex": "0x1",
          "logIndex": "0x0",
          "removed": false
        }
      ],
      "logsBloom": "0x00000000000000000000000000000000000000000000000000000000000000000000000000800080000000000000000020000020000000000000000000000200000040000000000000000000000000000000000000000000000000000000000000000000000000000000000000000000000000000000000000000002000000000020000000000000000000000000000000000000000000000000000000000000000000000000000000000000000000000000000000000000000000000000000000000000000000000000000000000000000000000000000000000000000000000000200000000000000000000000000000000000000000000000000000000000",
      "type": "0x2",
      "transactionHash": "0xfa01e611552cba610f87e32a7b25f9ab70672be2e86880c9489873aa52293a54",
      "transactionIndex": "0x1",
      "blockHash": "0x67615d0e8018406af9e8842b0d2ab0a9e0a10beced99265b9d99652b543a232f",
      "blockNumber": "0xf4cb29",
      "gasUsed": "0xd73f",
      "effectiveGasPrice": "0xfd",
      "from": "0xc3ca11bd8e131471904dced927b3fb7edb453179",
      "to": "0x2026027054f5bebceb650abd62dc623e327658e7",
      "contractAddress": null,
      "l1BaseFeeScalar": "0x2608",
      "l1BlobBaseFee": "0x870de2a5",
      "l1BlobBaseFeeScalar": "0x177fef",
      "l1Fee": "0x5158b5e053",
      "l1GasPrice": "0x19f9f5f",
      "l1GasUsed": "0x640"
    }
  ],
  "libraries": [],
  "pending": [],
  "returns": {},
  "timestamp": 1755279923,
  "chain": 1946,
  "commit": "cdeee31"
}