{
  "transactions": [
    {
      "hash": "0xc161b614148f57d5b6cecb93d0fd1cc6940d1c5a64d70c120ae12f398ee751af",
      "transactionType": "CALL",
      "contractName": null,
      "contractAddress": "0x2f925d6512b2bbb00f5a36d8b18e01fcf35f7dc7",
      "function": "getFeeTokenList()",
      "arguments": [],
      "transaction": {
        "from": "0xc3ca11bd8e131471904dced927b3fb7edb453179",
        "to": "0x2f925d6512b2bbb00f5a36d8b18e01fcf35f7dc7",
        "gas": "0x9d1e",
        "value": "0x0",
        "input": "0xe28ab277",
        "nonce": "0x19",
        "chainId": "0x79a"
      },
      "additionalContracts": [],
      "isFixedGasLimit": false
    },
    {
      "hash": "0xc82b122e847b56f72d8512d352418acee0f8409b4cbee6a49fa97a991536852c",
      "transactionType": "CALL",
      "contractName": null,
      "contractAddress": "0x2f925d6512b2bbb00f5a36d8b18e01fcf35f7dc7",
      "function": "addFeeToken(string)",
      "arguments": [
        "0x6a4DBC971533Ba36bdc23aD70F5A7a12E064f4ae"
      ],
      "transaction": {
        "from": "0xc3ca11bd8e131471904dced927b3fb7edb453179",
        "to": "0x2f925d6512b2bbb00f5a36d8b18e01fcf35f7dc7",
        "gas": "0x2c3cf",
        "value": "0x0",
        "input": "0x12a6385f0000000000000000000000000000000000000000000000000000000000000020000000000000000000000000000000000000000000000000000000000000002a30783661344442433937313533334261333662646332336144373046354137613132453036346634616500000000000000000000000000000000000000000000",
        "nonce": "0x1a",
        "chainId": "0x79a"
      },
      "additionalContracts": [],
      "isFixedGasLimit": false
    },
    {
      "hash": "0x9f8495e6d1c4e4bffe75b0cf1cc252b06699972e4565ee7328d4102d526e216b",
      "transactionType": "CALL",
      "contractName": null,
      "contractAddress": "0x2f925d6512b2bbb00f5a36d8b18e01fcf35f7dc7",
      "function": "addFeeToken(string,string[],uint256[])",
      "arguments": [
        "11155111",
        "[0x6a4DBC971533Ba36bdc23aD70F5A7a12E064f4ae]",
        "[100]"
      ],
      "transaction": {
        "from": "0xc3ca11bd8e131471904dced927b3fb7edb453179",
        "to": "0x2f925d6512b2bbb00f5a36d8b18e01fcf35f7dc7",
        "gas": "0x237db",
        "value": "0x0",
        "input": "0x437bf84f000000000000000000000000000000000000000000000000000000000000006000000000000000000000000000000000000000000000000000000000000000a000000000000000000000000000000000000000000000000000000000000001400000000000000000000000000000000000000000000000000000000000000008313131353531313100000000000000000000000000000000000000000000000000000000000000000000000000000000000000000000000000000000000000010000000000000000000000000000000000000000000000000000000000000020000000000000000000000000000000000000000000000000000000000000002a3078366134444243393731353333426133366264633233614437304635413761313245303634663461650000000000000000000000000000000000000000000000000000000000000000000000000000000000000000000000000000000000010000000000000000000000000000000000000000000000000000000000000064",
        "nonce": "0x1b",
        "chainId": "0x79a"
      },
      "additionalContracts": [],
      "isFixedGasLimit": false
    },
    {
      "hash": "0x9e50c3df126915efd2d0613d15be882869a2042364cc988e12b938248a4f81d3",
      "transactionType": "CALL",
      "contractName": null,
      "contractAddress": "0x2f925d6512b2bbb00f5a36d8b18e01fcf35f7dc7",
      "function": "addFeeToken(string,string[],uint256[])",
      "arguments": [
        "17000",
        "[0x6a4DBC971533Ba36bdc23aD70F5A7a12E064f4ae]",
        "[100]"
      ],
      "transaction": {
        "from": "0xc3ca11bd8e131471904dced927b3fb7edb453179",
        "to": "0x2f925d6512b2bbb00f5a36d8b18e01fcf35f7dc7",
        "gas": "0x231c5",
        "value": "0x0",
        "input": "0x437bf84f000000000000000000000000000000000000000000000000000000000000006000000000000000000000000000000000000000000000000000000000000000a000000000000000000000000000000000000000000000000000000000000001400000000000000000000000000000000000000000000000000000000000000005313730303000000000000000000000000000000000000000000000000000000000000000000000000000000000000000000000000000000000000000000000010000000000000000000000000000000000000000000000000000000000000020000000000000000000000000000000000000000000000000000000000000002a3078366134444243393731353333426133366264633233614437304635413761313245303634663461650000000000000000000000000000000000000000000000000000000000000000000000000000000000000000000000000000000000010000000000000000000000000000000000000000000000000000000000000064",
        "nonce": "0x1c",
        "chainId": "0x79a"
      },
      "additionalContracts": [],
      "isFixedGasLimit": false
    },
    {
      "hash": "0x29895b2d706baa1d7140ae71f4c10a59775cdfd5fa4a6148ec0e0cc59726c45e",
      "transactionType": "CALL",
      "contractName": null,
      "contractAddress": "0x2f925d6512b2bbb00f5a36d8b18e01fcf35f7dc7",
      "function": "addFeeToken(string,string[],uint256[])",
      "arguments": [
        "421614",
        "[0x6a4DBC971533Ba36bdc23aD70F5A7a12E064f4ae]",
        "[100]"
      ],
      "transaction": {
        "from": "0xc3ca11bd8e131471904dced927b3fb7edb453179",
        "to": "0x2f925d6512b2bbb00f5a36d8b18e01fcf35f7dc7",
        "gas": "0x233cc",
        "value": "0x0",
        "input": "0x437bf84f000000000000000000000000000000000000000000000000000000000000006000000000000000000000000000000000000000000000000000000000000000a000000000000000000000000000000000000000000000000000000000000001400000000000000000000000000000000000000000000000000000000000000006343231363134000000000000000000000000000000000000000000000000000000000000000000000000000000000000000000000000000000000000000000010000000000000000000000000000000000000000000000000000000000000020000000000000000000000000000000000000000000000000000000000000002a3078366134444243393731353333426133366264633233614437304635413761313245303634663461650000000000000000000000000000000000000000000000000000000000000000000000000000000000000000000000000000000000010000000000000000000000000000000000000000000000000000000000000064",
        "nonce": "0x1d",
        "chainId": "0x79a"
      },
      "additionalContracts": [],
      "isFixedGasLimit": false
    },
    {
      "hash": "0xd7cf06dd1cfd9354dab66cb7a39d97e76d0b49e9e78d6a204bbd3ec3191736af",
      "transactionType": "CALL",
      "contractName": null,
      "contractAddress": "0x2f925d6512b2bbb00f5a36d8b18e01fcf35f7dc7",
      "function": "addFeeToken(string,string[],uint256[])",
      "arguments": [
        "43113",
        "[0x6a4DBC971533Ba36bdc23aD70F5A7a12E064f4ae]",
        "[100]"
      ],
      "transaction": {
        "from": "0xc3ca11bd8e131471904dced927b3fb7edb453179",
        "to": "0x2f925d6512b2bbb00f5a36d8b18e01fcf35f7dc7",
        "gas": "0x231c5",
        "value": "0x0",
        "input": "0x437bf84f000000000000000000000000000000000000000000000000000000000000006000000000000000000000000000000000000000000000000000000000000000a000000000000000000000000000000000000000000000000000000000000001400000000000000000000000000000000000000000000000000000000000000005343331313300000000000000000000000000000000000000000000000000000000000000000000000000000000000000000000000000000000000000000000010000000000000000000000000000000000000000000000000000000000000020000000000000000000000000000000000000000000000000000000000000002a3078366134444243393731353333426133366264633233614437304635413761313245303634663461650000000000000000000000000000000000000000000000000000000000000000000000000000000000000000000000000000000000010000000000000000000000000000000000000000000000000000000000000064",
        "nonce": "0x1e",
        "chainId": "0x79a"
      },
      "additionalContracts": [],
      "isFixedGasLimit": false
    },
    {
      "hash": "0x49e6a893aef809e0e35deb4b18e9868d9367f1c24a71eadb244a5bde4ffbf7ac",
      "transactionType": "CALL",
      "contractName": null,
      "contractAddress": "0x2f925d6512b2bbb00f5a36d8b18e01fcf35f7dc7",
      "function": "addFeeToken(string,string[],uint256[])",
      "arguments": [
        "534351",
        "[0x6a4DBC971533Ba36bdc23aD70F5A7a12E064f4ae]",
        "[100]"
      ],
      "transaction": {
        "from": "0xc3ca11bd8e131471904dced927b3fb7edb453179",
        "to": "0x2f925d6512b2bbb00f5a36d8b18e01fcf35f7dc7",
        "gas": "0x233cc",
        "value": "0x0",
        "input": "0x437bf84f000000000000000000000000000000000000000000000000000000000000006000000000000000000000000000000000000000000000000000000000000000a000000000000000000000000000000000000000000000000000000000000001400000000000000000000000000000000000000000000000000000000000000006353334333531000000000000000000000000000000000000000000000000000000000000000000000000000000000000000000000000000000000000000000010000000000000000000000000000000000000000000000000000000000000020000000000000000000000000000000000000000000000000000000000000002a3078366134444243393731353333426133366264633233614437304635413761313245303634663461650000000000000000000000000000000000000000000000000000000000000000000000000000000000000000000000000000000000010000000000000000000000000000000000000000000000000000000000000064",
        "nonce": "0x1f",
        "chainId": "0x79a"
      },
      "additionalContracts": [],
      "isFixedGasLimit": false
    },
    {
      "hash": "0xc1f583325bfccab25726f297fda4d06fd7e7e83ff053f541a2d31421c55a22f1",
      "transactionType": "CALL",
      "contractName": null,
      "contractAddress": "0x2f925d6512b2bbb00f5a36d8b18e01fcf35f7dc7",
      "function": "addFeeToken(string,string[],uint256[])",
      "arguments": [
        "5611",
        "[0x6a4DBC971533Ba36bdc23aD70F5A7a12E064f4ae]",
        "[100]"
      ],
      "transaction": {
        "from": "0xc3ca11bd8e131471904dced927b3fb7edb453179",
        "to": "0x2f925d6512b2bbb00f5a36d8b18e01fcf35f7dc7",
        "gas": "0x22fbd",
        "value": "0x0",
        "input": "0x437bf84f000000000000000000000000000000000000000000000000000000000000006000000000000000000000000000000000000000000000000000000000000000a000000000000000000000000000000000000000000000000000000000000001400000000000000000000000000000000000000000000000000000000000000004353631310000000000000000000000000000000000000000000000000000000000000000000000000000000000000000000000000000000000000000000000010000000000000000000000000000000000000000000000000000000000000020000000000000000000000000000000000000000000000000000000000000002a3078366134444243393731353333426133366264633233614437304635413761313245303634663461650000000000000000000000000000000000000000000000000000000000000000000000000000000000000000000000000000000000010000000000000000000000000000000000000000000000000000000000000064",
        "nonce": "0x20",
        "chainId": "0x79a"
      },
      "additionalContracts": [],
      "isFixedGasLimit": false
    },
    {
      "hash": "0x03810a386ffd7a5ee1658e94eb698d3729f3b135870e1fa91eb8ce668a5be1ba",
      "transactionType": "CALL",
      "contractName": null,
      "contractAddress": "0x2f925d6512b2bbb00f5a36d8b18e01fcf35f7dc7",
      "function": "addFeeToken(string,string[],uint256[])",
      "arguments": [
        "84532",
        "[0x6a4DBC971533Ba36bdc23aD70F5A7a12E064f4ae]",
        "[100]"
      ],
      "transaction": {
        "from": "0xc3ca11bd8e131471904dced927b3fb7edb453179",
        "to": "0x2f925d6512b2bbb00f5a36d8b18e01fcf35f7dc7",
        "gas": "0x231c5",
        "value": "0x0",
        "input": "0x437bf84f000000000000000000000000000000000000000000000000000000000000006000000000000000000000000000000000000000000000000000000000000000a000000000000000000000000000000000000000000000000000000000000001400000000000000000000000000000000000000000000000000000000000000005383435333200000000000000000000000000000000000000000000000000000000000000000000000000000000000000000000000000000000000000000000010000000000000000000000000000000000000000000000000000000000000020000000000000000000000000000000000000000000000000000000000000002a3078366134444243393731353333426133366264633233614437304635413761313245303634663461650000000000000000000000000000000000000000000000000000000000000000000000000000000000000000000000000000000000010000000000000000000000000000000000000000000000000000000000000064",
        "nonce": "0x21",
        "chainId": "0x79a"
      },
      "additionalContracts": [],
      "isFixedGasLimit": false
    },
    {
      "hash": "0x8a053343bf58b39865081c9340bf495dff30cd5f3c4b499a61c91a6838bf3528",
      "transactionType": "CALL",
      "contractName": null,
      "contractAddress": "0x2f925d6512b2bbb00f5a36d8b18e01fcf35f7dc7",
      "function": "addFeeToken(string,string[],uint256[])",
      "arguments": [
        "97",
        "[0x6a4DBC971533Ba36bdc23aD70F5A7a12E064f4ae]",
        "[100]"
      ],
      "transaction": {
        "from": "0xc3ca11bd8e131471904dced927b3fb7edb453179",
        "to": "0x2f925d6512b2bbb00f5a36d8b18e01fcf35f7dc7",
        "gas": "0x22baf",
        "value": "0x0",
        "input": "0x437bf84f000000000000000000000000000000000000000000000000000000000000006000000000000000000000000000000000000000000000000000000000000000a000000000000000000000000000000000000000000000000000000000000001400000000000000000000000000000000000000000000000000000000000000002393700000000000000000000000000000000000000000000000000000000000000000000000000000000000000000000000000000000000000000000000000010000000000000000000000000000000000000000000000000000000000000020000000000000000000000000000000000000000000000000000000000000002a3078366134444243393731353333426133366264633233614437304635413761313245303634663461650000000000000000000000000000000000000000000000000000000000000000000000000000000000000000000000000000000000010000000000000000000000000000000000000000000000000000000000000064",
        "nonce": "0x22",
        "chainId": "0x79a"
      },
      "additionalContracts": [],
      "isFixedGasLimit": false
    },
    {
      "hash": "0x5c2b48db26b0b730d56ba97f073128111558f0383ce9b6bc04f3e03e2c5289b1",
      "transactionType": "CALL",
      "contractName": null,
      "contractAddress": "0x2f925d6512b2bbb00f5a36d8b18e01fcf35f7dc7",
      "function": "setFeeMultiplier(uint8,uint256)",
      "arguments": [
        "0",
        "2"
      ],
      "transaction": {
        "from": "0xc3ca11bd8e131471904dced927b3fb7edb453179",
        "to": "0x2f925d6512b2bbb00f5a36d8b18e01fcf35f7dc7",
        "gas": "0x13e30",
        "value": "0x0",
        "input": "0x0ee24eb500000000000000000000000000000000000000000000000000000000000000000000000000000000000000000000000000000000000000000000000000000002",
        "nonce": "0x23",
        "chainId": "0x79a"
      },
      "additionalContracts": [],
      "isFixedGasLimit": false
    },
    {
      "hash": "0xee1564ba07b3c82cb1223df694597f8cc86f00f9514d33ebe3c9c71435a5b2ae",
      "transactionType": "CALL",
      "contractName": null,
      "contractAddress": "0x2f925d6512b2bbb00f5a36d8b18e01fcf35f7dc7",
      "function": "setFeeMultiplier(uint8,uint256)",
      "arguments": [
        "1",
        "10"
      ],
      "transaction": {
        "from": "0xc3ca11bd8e131471904dced927b3fb7edb453179",
        "to": "0x2f925d6512b2bbb00f5a36d8b18e01fcf35f7dc7",
        "gas": "0x150fa",
        "value": "0x0",
        "input": "0x0ee24eb50000000000000000000000000000000000000000000000000000000000000001000000000000000000000000000000000000000000000000000000000000000a",
        "nonce": "0x24",
        "chainId": "0x79a"
      },
      "additionalContracts": [],
      "isFixedGasLimit": false
    },
    {
      "hash": "0x8340cdac9b8f6a880b21641c3ebdff9539c8ce900c84a104d0700027b1fc3769",
      "transactionType": "CALL",
      "contractName": null,
      "contractAddress": "0x2f925d6512b2bbb00f5a36d8b18e01fcf35f7dc7",
      "function": "setFeeMultiplier(uint8,uint256)",
      "arguments": [
        "2",
        "1"
      ],
      "transaction": {
        "from": "0xc3ca11bd8e131471904dced927b3fb7edb453179",
        "to": "0x2f925d6512b2bbb00f5a36d8b18e01fcf35f7dc7",
        "gas": "0x150fa",
        "value": "0x0",
        "input": "0x0ee24eb500000000000000000000000000000000000000000000000000000000000000020000000000000000000000000000000000000000000000000000000000000001",
        "nonce": "0x25",
        "chainId": "0x79a"
      },
      "additionalContracts": [],
      "isFixedGasLimit": false
    },
    {
      "hash": "0x7399fd9904021d5ffb0b181269804249abf917d00f78ca80214d24f0ba24703c",
      "transactionType": "CALL",
      "contractName": null,
      "contractAddress": "0x2f925d6512b2bbb00f5a36d8b18e01fcf35f7dc7",
      "function": "setFeeMultiplier(uint8,uint256)",
      "arguments": [
        "3",
        "4"
      ],
      "transaction": {
        "from": "0xc3ca11bd8e131471904dced927b3fb7edb453179",
        "to": "0x2f925d6512b2bbb00f5a36d8b18e01fcf35f7dc7",
        "gas": "0x150fa",
        "value": "0x0",
        "input": "0x0ee24eb500000000000000000000000000000000000000000000000000000000000000030000000000000000000000000000000000000000000000000000000000000004",
        "nonce": "0x26",
        "chainId": "0x79a"
      },
      "additionalContracts": [],
      "isFixedGasLimit": false
    },
    {
      "hash": "0x8d50862c1c58cecdf872cbbd090c96f6f0b9374db6fc79e2d6f67c1fcb53e755",
      "transactionType": "CALL",
      "contractName": null,
      "contractAddress": "0x2f925d6512b2bbb00f5a36d8b18e01fcf35f7dc7",
      "function": "setFeeMultiplier(uint8,uint256)",
      "arguments": [
        "4",
        "4"
      ],
      "transaction": {
        "from": "0xc3ca11bd8e131471904dced927b3fb7edb453179",
        "to": "0x2f925d6512b2bbb00f5a36d8b18e01fcf35f7dc7",
        "gas": "0x150fa",
        "value": "0x0",
        "input": "0x0ee24eb500000000000000000000000000000000000000000000000000000000000000040000000000000000000000000000000000000000000000000000000000000004",
        "nonce": "0x27",
        "chainId": "0x79a"
      },
      "additionalContracts": [],
      "isFixedGasLimit": false
    },
    {
      "hash": "0xf6c47391ec35e0c156acb4e10ec8408cfe1e00334d20d3408ffcdd44c3e88a64",
      "transactionType": "CALL",
      "contractName": null,
      "contractAddress": "0x2f925d6512b2bbb00f5a36d8b18e01fcf35f7dc7",
      "function": "setFeeMultiplier(uint8,uint256)",
      "arguments": [
        "5",
        "4"
      ],
      "transaction": {
        "from": "0xc3ca11bd8e131471904dced927b3fb7edb453179",
        "to": "0x2f925d6512b2bbb00f5a36d8b18e01fcf35f7dc7",
        "gas": "0x150fa",
        "value": "0x0",
        "input": "0x0ee24eb500000000000000000000000000000000000000000000000000000000000000050000000000000000000000000000000000000000000000000000000000000004",
        "nonce": "0x28",
        "chainId": "0x79a"
      },
      "additionalContracts": [],
      "isFixedGasLimit": false
    },
    {
      "hash": "0xdeb6e10ec8b39dc2f54f9e43b5d67e145c50117e0a5800a60c67f48d3ac35b20",
      "transactionType": "CALL",
      "contractName": null,
      "contractAddress": "0x2f925d6512b2bbb00f5a36d8b18e01fcf35f7dc7",
      "function": "setFeeMultiplier(uint8,uint256)",
      "arguments": [
        "6",
        "8"
      ],
      "transaction": {
        "from": "0xc3ca11bd8e131471904dced927b3fb7edb453179",
        "to": "0x2f925d6512b2bbb00f5a36d8b18e01fcf35f7dc7",
        "gas": "0x150fa",
        "value": "0x0",
        "input": "0x0ee24eb500000000000000000000000000000000000000000000000000000000000000060000000000000000000000000000000000000000000000000000000000000008",
        "nonce": "0x29",
        "chainId": "0x79a"
      },
      "additionalContracts": [],
      "isFixedGasLimit": false
    },
    {
      "hash": "0x079aa58e31e8aa8c5da2a9b812e10a4874c3db5595cf21a48020a863e42ce701",
      "transactionType": "CALL",
      "contractName": null,
      "contractAddress": "0x2f925d6512b2bbb00f5a36d8b18e01fcf35f7dc7",
      "function": "setFeeMultiplier(uint8,uint256)",
      "arguments": [
        "7",
        "4"
      ],
      "transaction": {
        "from": "0xc3ca11bd8e131471904dced927b3fb7edb453179",
        "to": "0x2f925d6512b2bbb00f5a36d8b18e01fcf35f7dc7",
        "gas": "0x150fa",
        "value": "0x0",
        "input": "0x0ee24eb500000000000000000000000000000000000000000000000000000000000000070000000000000000000000000000000000000000000000000000000000000004",
        "nonce": "0x2a",
        "chainId": "0x79a"
      },
      "additionalContracts": [],
      "isFixedGasLimit": false
    },
    {
      "hash": "0x5a2c5f6af083e9b1fc7e9d24368816716ff698e176b01a13017aef48e0666397",
      "transactionType": "CALL",
      "contractName": null,
      "contractAddress": "0x2f925d6512b2bbb00f5a36d8b18e01fcf35f7dc7",
      "function": "setFeeMultiplier(uint8,uint256)",
      "arguments": [
        "8",
        "10"
      ],
      "transaction": {
        "from": "0xc3ca11bd8e131471904dced927b3fb7edb453179",
        "to": "0x2f925d6512b2bbb00f5a36d8b18e01fcf35f7dc7",
        "gas": "0x150fa",
        "value": "0x0",
        "input": "0x0ee24eb50000000000000000000000000000000000000000000000000000000000000008000000000000000000000000000000000000000000000000000000000000000a",
        "nonce": "0x2b",
        "chainId": "0x79a"
      },
      "additionalContracts": [],
      "isFixedGasLimit": false
    },
    {
      "hash": "0x17fed56d61c139543b497758acaac81a26373fdcbbd5e83f708e92e8a5c2e224",
      "transactionType": "CALL",
      "contractName": null,
      "contractAddress": "0x2f925d6512b2bbb00f5a36d8b18e01fcf35f7dc7",
      "function": "setFeeMultiplier(uint8,uint256)",
      "arguments": [
        "9",
        "8"
      ],
      "transaction": {
        "from": "0xc3ca11bd8e131471904dced927b3fb7edb453179",
        "to": "0x2f925d6512b2bbb00f5a36d8b18e01fcf35f7dc7",
        "gas": "0x150fa",
        "value": "0x0",
        "input": "0x0ee24eb500000000000000000000000000000000000000000000000000000000000000090000000000000000000000000000000000000000000000000000000000000008",
        "nonce": "0x2c",
        "chainId": "0x79a"
      },
      "additionalContracts": [],
      "isFixedGasLimit": false
    },
    {
      "hash": "0x2406d74ef21d1ee1f9d6ab6ff8f964a972bca4fdeef6244545805caf69f47136",
      "transactionType": "CALL",
      "contractName": null,
      "contractAddress": "0x2f925d6512b2bbb00f5a36d8b18e01fcf35f7dc7",
      "function": "setFeeMultiplier(uint8,uint256)",
      "arguments": [
        "10",
        "8"
      ],
      "transaction": {
        "from": "0xc3ca11bd8e131471904dced927b3fb7edb453179",
        "to": "0x2f925d6512b2bbb00f5a36d8b18e01fcf35f7dc7",
        "gas": "0x150fa",
        "value": "0x0",
        "input": "0x0ee24eb5000000000000000000000000000000000000000000000000000000000000000a0000000000000000000000000000000000000000000000000000000000000008",
        "nonce": "0x2d",
        "chainId": "0x79a"
      },
      "additionalContracts": [],
      "isFixedGasLimit": false
    },
    {
      "hash": "0x2c940cf950acbc9c1147bc17fc0168146a9afe2495a638fa075b7d175455ecfe",
      "transactionType": "CALL",
      "contractName": null,
      "contractAddress": "0x2f925d6512b2bbb00f5a36d8b18e01fcf35f7dc7",
      "function": "setFeeMultiplier(uint8,uint256)",
      "arguments": [
        "11",
        "8"
      ],
      "transaction": {
        "from": "0xc3ca11bd8e131471904dced927b3fb7edb453179",
        "to": "0x2f925d6512b2bbb00f5a36d8b18e01fcf35f7dc7",
        "gas": "0x150fa",
        "value": "0x0",
        "input": "0x0ee24eb5000000000000000000000000000000000000000000000000000000000000000b0000000000000000000000000000000000000000000000000000000000000008",
        "nonce": "0x2e",
        "chainId": "0x79a"
      },
      "additionalContracts": [],
      "isFixedGasLimit": false
    },
    {
      "hash": "0x653ceb584f002c7caf8bb97575ddd1fce22a17a2627e0d93cf0cfeb18e65db94",
      "transactionType": "CALL",
      "contractName": null,
      "contractAddress": "0x2f925d6512b2bbb00f5a36d8b18e01fcf35f7dc7",
      "function": "setFeeMultiplier(uint8,uint256)",
      "arguments": [
        "12",
        "20"
      ],
      "transaction": {
        "from": "0xc3ca11bd8e131471904dced927b3fb7edb453179",
        "to": "0x2f925d6512b2bbb00f5a36d8b18e01fcf35f7dc7",
        "gas": "0x150fa",
        "value": "0x0",
        "input": "0x0ee24eb5000000000000000000000000000000000000000000000000000000000000000c0000000000000000000000000000000000000000000000000000000000000014",
        "nonce": "0x2f",
        "chainId": "0x79a"
      },
      "additionalContracts": [],
      "isFixedGasLimit": false
    },
    {
      "hash": "0x2be61591d9fbee7b2025b9ac3d641dac04f88dc0b47dee1e73c2d0b61ea9284f",
      "transactionType": "CALL",
      "contractName": null,
      "contractAddress": "0x2f925d6512b2bbb00f5a36d8b18e01fcf35f7dc7",
      "function": "setFeeMultiplier(uint8,uint256)",
      "arguments": [
        "13",
        "8"
      ],
      "transaction": {
        "from": "0xc3ca11bd8e131471904dced927b3fb7edb453179",
        "to": "0x2f925d6512b2bbb00f5a36d8b18e01fcf35f7dc7",
        "gas": "0x150fa",
        "value": "0x0",
        "input": "0x0ee24eb5000000000000000000000000000000000000000000000000000000000000000d0000000000000000000000000000000000000000000000000000000000000008",
        "nonce": "0x30",
        "chainId": "0x79a"
      },
      "additionalContracts": [],
      "isFixedGasLimit": false
    },
    {
      "hash": "0xa7347c1fe08e1900ec1d3203d8706d789e21ae3b27dc5c2b77c14a790287a14a",
      "transactionType": "CALL",
      "contractName": null,
      "contractAddress": "0x2f925d6512b2bbb00f5a36d8b18e01fcf35f7dc7",
      "function": "setFeeMultiplier(uint8,uint256)",
      "arguments": [
        "14",
        "4"
      ],
      "transaction": {
        "from": "0xc3ca11bd8e131471904dced927b3fb7edb453179",
        "to": "0x2f925d6512b2bbb00f5a36d8b18e01fcf35f7dc7",
        "gas": "0x150fa",
        "value": "0x0",
        "input": "0x0ee24eb5000000000000000000000000000000000000000000000000000000000000000e0000000000000000000000000000000000000000000000000000000000000004",
        "nonce": "0x31",
        "chainId": "0x79a"
      },
      "additionalContracts": [],
      "isFixedGasLimit": false
    },
    {
      "hash": "0x75385577b9e84df5aff81fc8cdcd104c228c2563666387fc87f0650a1b456172",
      "transactionType": "CALL",
      "contractName": null,
      "contractAddress": "0x2f925d6512b2bbb00f5a36d8b18e01fcf35f7dc7",
      "function": "setFeeMultiplier(uint8,uint256)",
      "arguments": [
        "15",
        "4"
      ],
      "transaction": {
        "from": "0xc3ca11bd8e131471904dced927b3fb7edb453179",
        "to": "0x2f925d6512b2bbb00f5a36d8b18e01fcf35f7dc7",
        "gas": "0x150fa",
        "value": "0x0",
        "input": "0x0ee24eb5000000000000000000000000000000000000000000000000000000000000000f0000000000000000000000000000000000000000000000000000000000000004",
        "nonce": "0x32",
        "chainId": "0x79a"
      },
      "additionalContracts": [],
      "isFixedGasLimit": false
    },
    {
      "hash": "0x169e23c4a8bf8268c4cef868474545b4ffe6ffe24d04f500693107ed745cb0c8",
      "transactionType": "CALL",
      "contractName": null,
      "contractAddress": "0x2f925d6512b2bbb00f5a36d8b18e01fcf35f7dc7",
      "function": "setFeeMultiplier(uint8,uint256)",
      "arguments": [
        "16",
        "4"
      ],
      "transaction": {
        "from": "0xc3ca11bd8e131471904dced927b3fb7edb453179",
        "to": "0x2f925d6512b2bbb00f5a36d8b18e01fcf35f7dc7",
        "gas": "0x150fa",
        "value": "0x0",
        "input": "0x0ee24eb500000000000000000000000000000000000000000000000000000000000000100000000000000000000000000000000000000000000000000000000000000004",
        "nonce": "0x33",
        "chainId": "0x79a"
      },
      "additionalContracts": [],
      "isFixedGasLimit": false
    },
    {
      "hash": "0x6b1b605dd9c5b4158539d0752a4ed4f9884af86ee488a874b5340a995e9a32a0",
      "transactionType": "CALL",
      "contractName": null,
      "contractAddress": "0x2f925d6512b2bbb00f5a36d8b18e01fcf35f7dc7",
      "function": "setFeeMultiplier(uint8,uint256)",
      "arguments": [
        "17",
        "4"
      ],
      "transaction": {
        "from": "0xc3ca11bd8e131471904dced927b3fb7edb453179",
        "to": "0x2f925d6512b2bbb00f5a36d8b18e01fcf35f7dc7",
        "gas": "0x150fa",
        "value": "0x0",
        "input": "0x0ee24eb500000000000000000000000000000000000000000000000000000000000000110000000000000000000000000000000000000000000000000000000000000004",
        "nonce": "0x34",
        "chainId": "0x79a"
      },
      "additionalContracts": [],
      "isFixedGasLimit": false
    },
    {
      "hash": "0xa780b39ee46c0fa7b0618f8279e23f287a7b4d81391c74d44e56fbd6d16c3abb",
      "transactionType": "CALL",
      "contractName": null,
      "contractAddress": "0x2f925d6512b2bbb00f5a36d8b18e01fcf35f7dc7",
      "function": "setFeeMultiplier(uint8,uint256)",
      "arguments": [
        "18",
        "2"
      ],
      "transaction": {
        "from": "0xc3ca11bd8e131471904dced927b3fb7edb453179",
        "to": "0x2f925d6512b2bbb00f5a36d8b18e01fcf35f7dc7",
        "gas": "0x150fa",
        "value": "0x0",
        "input": "0x0ee24eb500000000000000000000000000000000000000000000000000000000000000120000000000000000000000000000000000000000000000000000000000000002",
        "nonce": "0x35",
        "chainId": "0x79a"
      },
      "additionalContracts": [],
      "isFixedGasLimit": false
    },
    {
      "hash": "0xa59f86e56873dbd488ace561158f2ee63783d4641e5df036ae35ce73c6e1389e",
      "transactionType": "CALL",
      "contractName": null,
      "contractAddress": "0x2f925d6512b2bbb00f5a36d8b18e01fcf35f7dc7",
      "function": "setFeeMultiplier(uint8,uint256)",
      "arguments": [
        "19",
        "20"
      ],
      "transaction": {
        "from": "0xc3ca11bd8e131471904dced927b3fb7edb453179",
        "to": "0x2f925d6512b2bbb00f5a36d8b18e01fcf35f7dc7",
        "gas": "0x150fa",
        "value": "0x0",
        "input": "0x0ee24eb500000000000000000000000000000000000000000000000000000000000000130000000000000000000000000000000000000000000000000000000000000014",
        "nonce": "0x36",
        "chainId": "0x79a"
      },
      "additionalContracts": [],
      "isFixedGasLimit": false
    },
    {
      "hash": "0x7b98edde129078d223d5901afb7504eb14bb9e93501e9def7bf86aedbf558a8c",
      "transactionType": "CALL",
      "contractName": null,
      "contractAddress": "0x2f925d6512b2bbb00f5a36d8b18e01fcf35f7dc7",
      "function": "setFeeMultiplier(uint8,uint256)",
      "arguments": [
        "20",
        "2"
      ],
      "transaction": {
        "from": "0xc3ca11bd8e131471904dced927b3fb7edb453179",
        "to": "0x2f925d6512b2bbb00f5a36d8b18e01fcf35f7dc7",
        "gas": "0x150fa",
        "value": "0x0",
        "input": "0x0ee24eb500000000000000000000000000000000000000000000000000000000000000140000000000000000000000000000000000000000000000000000000000000002",
        "nonce": "0x37",
        "chainId": "0x79a"
      },
      "additionalContracts": [],
      "isFixedGasLimit": false
    },
    {
      "hash": "0xd0103f5b8fcfaaf697d83321581da803522528adc956d4e2c4b997b1a026dae0",
      "transactionType": "CALL",
      "contractName": null,
      "contractAddress": "0x2f925d6512b2bbb00f5a36d8b18e01fcf35f7dc7",
      "function": "setFeeMultiplier(uint8,uint256)",
      "arguments": [
        "21",
        "1"
      ],
      "transaction": {
        "from": "0xc3ca11bd8e131471904dced927b3fb7edb453179",
        "to": "0x2f925d6512b2bbb00f5a36d8b18e01fcf35f7dc7",
        "gas": "0x150fa",
        "value": "0x0",
        "input": "0x0ee24eb500000000000000000000000000000000000000000000000000000000000000150000000000000000000000000000000000000000000000000000000000000001",
        "nonce": "0x38",
        "chainId": "0x79a"
      },
      "additionalContracts": [],
      "isFixedGasLimit": false
    },
    {
      "hash": "0x5642fafa1520534019b0c110b587d3aafc4fc24d65fbfde8d4af3c7d55ab099d",
      "transactionType": "CALL",
      "contractName": null,
      "contractAddress": "0x2f925d6512b2bbb00f5a36d8b18e01fcf35f7dc7",
      "function": "setFeeMultiplier(uint8,uint256)",
      "arguments": [
        "22",
        "1"
      ],
      "transaction": {
        "from": "0xc3ca11bd8e131471904dced927b3fb7edb453179",
        "to": "0x2f925d6512b2bbb00f5a36d8b18e01fcf35f7dc7",
        "gas": "0x150fa",
        "value": "0x0",
        "input": "0x0ee24eb500000000000000000000000000000000000000000000000000000000000000160000000000000000000000000000000000000000000000000000000000000001",
        "nonce": "0x39",
        "chainId": "0x79a"
      },
      "additionalContracts": [],
      "isFixedGasLimit": false
    },
    {
      "hash": "0xb84fc8bc2b77fd379e3fba31a0b39b3eb119509b7103d00fa7009e040a8a7bf3",
      "transactionType": "CALL",
      "contractName": null,
      "contractAddress": "0x2f925d6512b2bbb00f5a36d8b18e01fcf35f7dc7",
      "function": "setFeeMultiplier(uint8,uint256)",
      "arguments": [
        "23",
        "5"
      ],
      "transaction": {
        "from": "0xc3ca11bd8e131471904dced927b3fb7edb453179",
        "to": "0x2f925d6512b2bbb00f5a36d8b18e01fcf35f7dc7",
        "gas": "0x150fa",
        "value": "0x0",
        "input": "0x0ee24eb500000000000000000000000000000000000000000000000000000000000000170000000000000000000000000000000000000000000000000000000000000005",
        "nonce": "0x3a",
        "chainId": "0x79a"
      },
      "additionalContracts": [],
      "isFixedGasLimit": false
    },
    {
      "hash": "0x8e3f2c57b8f1c2a189f99a1f45d59ca04761bd8e027542432d84b282edbdfeeb",
      "transactionType": "CALL",
      "contractName": null,
      "contractAddress": "0x2f925d6512b2bbb00f5a36d8b18e01fcf35f7dc7",
      "function": "setFeeMultiplier(uint8,uint256)",
      "arguments": [
        "24",
        "5"
      ],
      "transaction": {
        "from": "0xc3ca11bd8e131471904dced927b3fb7edb453179",
        "to": "0x2f925d6512b2bbb00f5a36d8b18e01fcf35f7dc7",
        "gas": "0x150fa",
        "value": "0x0",
        "input": "0x0ee24eb500000000000000000000000000000000000000000000000000000000000000180000000000000000000000000000000000000000000000000000000000000005",
        "nonce": "0x3b",
        "chainId": "0x79a"
      },
      "additionalContracts": [],
      "isFixedGasLimit": false
    },
    {
      "hash": "0xc14ef04f7982c8dcb687d78ce605ce178ccd23011dcd796d07484456640f1a0f",
      "transactionType": "CALL",
      "contractName": null,
      "contractAddress": "0x2f925d6512b2bbb00f5a36d8b18e01fcf35f7dc7",
      "function": "setFeeMultiplier(uint8,uint256)",
      "arguments": [
        "25",
        "5"
      ],
      "transaction": {
        "from": "0xc3ca11bd8e131471904dced927b3fb7edb453179",
        "to": "0x2f925d6512b2bbb00f5a36d8b18e01fcf35f7dc7",
        "gas": "0x150fa",
        "value": "0x0",
        "input": "0x0ee24eb500000000000000000000000000000000000000000000000000000000000000190000000000000000000000000000000000000000000000000000000000000005",
        "nonce": "0x3c",
        "chainId": "0x79a"
      },
      "additionalContracts": [],
      "isFixedGasLimit": false
    },
    {
      "hash": "0xa8cf5621bdc40c305ed847bd8d88ab5e38e0aea1a739c2b1d5a9a398f4c9dc29",
      "transactionType": "CALL",
      "contractName": null,
      "contractAddress": "0x2f925d6512b2bbb00f5a36d8b18e01fcf35f7dc7",
      "function": "setFeeMultiplier(uint8,uint256)",
      "arguments": [
        "26",
        "5"
      ],
      "transaction": {
        "from": "0xc3ca11bd8e131471904dced927b3fb7edb453179",
        "to": "0x2f925d6512b2bbb00f5a36d8b18e01fcf35f7dc7",
        "gas": "0x150fa",
        "value": "0x0",
        "input": "0x0ee24eb5000000000000000000000000000000000000000000000000000000000000001a0000000000000000000000000000000000000000000000000000000000000005",
        "nonce": "0x3d",
        "chainId": "0x79a"
      },
      "additionalContracts": [],
      "isFixedGasLimit": false
    },
    {
      "hash": "0xf2ee3bafc6e50159f3ee59b2d46e4569d8ac5d92448cf1e9fe2ef0530f66b906",
      "transactionType": "CALL",
      "contractName": null,
      "contractAddress": "0x9c9e9fad264089339aad66ff3e32d2ba1ddf6951",
      "function": "setFallback(address)",
      "arguments": [
        "0xa35EF74f047fC846Af8863e4FAc5E750eB5A59cf"
      ],
      "transaction": {
        "from": "0xc3ca11bd8e131471904dced927b3fb7edb453179",
        "to": "0x9c9e9fad264089339aad66ff3e32d2ba1ddf6951",
        "gas": "0x1a3cb",
        "value": "0x0",
        "input": "0x32b12eac000000000000000000000000a35ef74f047fc846af8863e4fac5e750eb5a59cf",
        "nonce": "0x3e",
        "chainId": "0x79a"
      },
      "additionalContracts": [],
      "isFixedGasLimit": false
    },
    {
      "hash": "0x796b56e1c0785bbdf6974fa17428dcc444b33db20fe6e06f6bf907e7f7bb6695",
      "transactionType": "CALL",
      "contractName": null,
      "contractAddress": "0x9c9e9fad264089339aad66ff3e32d2ba1ddf6951",
      "function": "setCtmRwaDeployer(address)",
      "arguments": [
        "0xE912F7c7A59470a6E3f178388106E3caa9e6fbd1"
      ],
      "transaction": {
        "from": "0xc3ca11bd8e131471904dced927b3fb7edb453179",
        "to": "0x9c9e9fad264089339aad66ff3e32d2ba1ddf6951",
        "gas": "0x12314",
        "value": "0x0",
        "input": "0xf1e4f707000000000000000000000000e912f7c7a59470a6e3f178388106e3caa9e6fbd1",
        "nonce": "0x3f",
        "chainId": "0x79a"
      },
      "additionalContracts": [],
      "isFixedGasLimit": false
    },
    {
      "hash": "0xb23f2dfc36b08d0159aed3c92880d507fd9f9e404b322bd2b4a3f837b5721902",
      "transactionType": "CALL",
      "contractName": null,
      "contractAddress": "0x9c9e9fad264089339aad66ff3e32d2ba1ddf6951",
      "function": "setCtmRwaMap(address)",
      "arguments": [
        "0x2026027054F5beBCEB650aBD62dC623e327658e7"
      ],
      "transaction": {
        "from": "0xc3ca11bd8e131471904dced927b3fb7edb453179",
        "to": "0x9c9e9fad264089339aad66ff3e32d2ba1ddf6951",
        "gas": "0x21040",
        "value": "0x0",
        "input": "0x08add95f0000000000000000000000002026027054f5bebceb650abd62dc623e327658e7",
        "nonce": "0x40",
        "chainId": "0x79a"
      },
      "additionalContracts": [],
      "isFixedGasLimit": false
    },
    {
      "hash": "0x6aea1e2f388ae14ef18535a19c794259c13b371ba08516dc38a4eefa7168ba15",
      "transactionType": "CALL",
      "contractName": null,
      "contractAddress": "0xe912f7c7a59470a6e3f178388106e3caa9e6fbd1",
      "function": "setDeployInvest(address)",
      "arguments": [
        "0x082D752d0f439aa7F69c2c6BE79fF7056515636D"
      ],
      "transaction": {
        "from": "0xc3ca11bd8e131471904dced927b3fb7edb453179",
        "to": "0xe912f7c7a59470a6e3f178388106e3caa9e6fbd1",
        "gas": "0x13028",
        "value": "0x0",
        "input": "0x51ae9e56000000000000000000000000082d752d0f439aa7f69c2c6be79ff7056515636d",
        "nonce": "0x41",
        "chainId": "0x79a"
      },
      "additionalContracts": [],
      "isFixedGasLimit": false
    },
    {
      "hash": "0x0678e8b44080b89d11888ed6ec69e0639f4627b43ceb8bf8e25ed8c396669617",
      "transactionType": "CALL",
      "contractName": null,
      "contractAddress": "0xe912f7c7a59470a6e3f178388106e3caa9e6fbd1",
      "function": "setErc20DeployerAddress(address)",
      "arguments": [
        "0xEbC3c7C5f2EE040db257bf4e3c7d5794818a13F8"
      ],
      "transaction": {
        "from": "0xc3ca11bd8e131471904dced927b3fb7edb453179",
        "to": "0xe912f7c7a59470a6e3f178388106e3caa9e6fbd1",
        "gas": "0x12f06",
        "value": "0x0",
        "input": "0x0eab9e49000000000000000000000000ebc3c7c5f2ee040db257bf4e3c7d5794818a13f8",
        "nonce": "0x42",
        "chainId": "0x79a"
      },
      "additionalContracts": [],
      "isFixedGasLimit": false
    },
    {
      "hash": "0x3d4e1ff96cc2573437304597cf2c37723e0063b113e635ba0d466733732ce520",
      "transactionType": "CALL",
      "contractName": null,
      "contractAddress": "0xe912f7c7a59470a6e3f178388106e3caa9e6fbd1",
      "function": "setTokenFactory(uint256,uint256,address)",
      "arguments": [
        "1",
        "1",
        "0x902e297ef81a3250f9F20D73b7465ac5d4966241"
      ],
      "transaction": {
        "from": "0xc3ca11bd8e131471904dced927b3fb7edb453179",
        "to": "0xe912f7c7a59470a6e3f178388106e3caa9e6fbd1",
        "gas": "0x1253d",
        "value": "0x0",
        "input": "0xf1a31c6d00000000000000000000000000000000000000000000000000000000000000010000000000000000000000000000000000000000000000000000000000000001000000000000000000000000902e297ef81a3250f9f20d73b7465ac5d4966241",
        "nonce": "0x43",
        "chainId": "0x79a"
      },
      "additionalContracts": [],
      "isFixedGasLimit": false
    },
    {
      "hash": "0x613b82ed7ebb2c4c563d5e8ec7bf02ce3c71ea8dfeddf70778c4ee3d08b6452a",
      "transactionType": "CALL",
      "contractName": null,
      "contractAddress": "0xe912f7c7a59470a6e3f178388106e3caa9e6fbd1",
      "function": "setDividendFactory(uint256,uint256,address)",
      "arguments": [
        "1",
        "1",
        "0xbF5F67A9387a488a9aC054FCD49E39fBF37E79b0"
      ],
      "transaction": {
        "from": "0xc3ca11bd8e131471904dced927b3fb7edb453179",
        "to": "0xe912f7c7a59470a6e3f178388106e3caa9e6fbd1",
        "gas": "0x123a3",
        "value": "0x0",
        "input": "0xae7b00fc00000000000000000000000000000000000000000000000000000000000000010000000000000000000000000000000000000000000000000000000000000001000000000000000000000000bf5f67a9387a488a9ac054fcd49e39fbf37e79b0",
        "nonce": "0x44",
        "chainId": "0x79a"
      },
      "additionalContracts": [],
      "isFixedGasLimit": false
    },
    {
      "hash": "0x2241f5cc6b4952c0e4fb623f55b5e5e612f853ef364757f3e8d951cf9fd70911",
      "transactionType": "CALL",
      "contractName": null,
      "contractAddress": "0xe912f7c7a59470a6e3f178388106e3caa9e6fbd1",
      "function": "setStorageFactory(uint256,uint256,address)",
      "arguments": [
        "1",
        "1",
        "0x92228B058f25Bc4fb333fA296dDdECBdDf6496f3"
      ],
      "transaction": {
        "from": "0xc3ca11bd8e131471904dced927b3fb7edb453179",
        "to": "0xe912f7c7a59470a6e3f178388106e3caa9e6fbd1",
        "gas": "0x12246",
        "value": "0x0",
        "input": "0x5b2004dc0000000000000000000000000000000000000000000000000000000000000001000000000000000000000000000000000000000000000000000000000000000100000000000000000000000092228b058f25bc4fb333fa296dddecbddf6496f3",
        "nonce": "0x45",
        "chainId": "0x79a"
      },
      "additionalContracts": [],
      "isFixedGasLimit": false
    },
    {
      "hash": "0x8471c43bb1f5b7913185551edba88052421d1b373989714280d4b52b4ee40b85",
      "transactionType": "CALL",
      "contractName": null,
      "contractAddress": "0xe912f7c7a59470a6e3f178388106e3caa9e6fbd1",
      "function": "setSentryFactory(uint256,uint256,address)",
      "arguments": [
        "1",
        "1",
        "0x2AF842C6517CF30Fb3456aeF485230e0DD085845"
      ],
      "transaction": {
        "from": "0xc3ca11bd8e131471904dced927b3fb7edb453179",
        "to": "0xe912f7c7a59470a6e3f178388106e3caa9e6fbd1",
        "gas": "0x12339",
        "value": "0x0",
        "input": "0x9aa3f089000000000000000000000000000000000000000000000000000000000000000100000000000000000000000000000000000000000000000000000000000000010000000000000000000000002af842c6517cf30fb3456aef485230e0dd085845",
        "nonce": "0x46",
        "chainId": "0x79a"
      },
      "additionalContracts": [],
      "isFixedGasLimit": false
    },
    {
      "hash": "0x344657a5a184aa747262ad1782dcf36fbf38480f0bf1997dcd747559a49785cb",
      "transactionType": "CALL",
      "contractName": null,
      "contractAddress": "0x92228b058f25bc4fb333fa296dddecbddf6496f3",
      "function": "setStorageUtils(address)",
      "arguments": [
        "0xee6A66C156EADfefA260618627dF5BCbA04fD2B1"
      ],
      "transaction": {
        "from": "0xc3ca11bd8e131471904dced927b3fb7edb453179",
        "to": "0x92228b058f25bc4fb333fa296dddecbddf6496f3",
        "gas": "0x11fb7",
        "value": "0x0",
        "input": "0x9dcbd16c000000000000000000000000ee6a66c156eadfefa260618627df5bcba04fd2b1",
        "nonce": "0x47",
        "chainId": "0x79a"
      },
      "additionalContracts": [],
      "isFixedGasLimit": false
    },
    {
      "hash": "0xbb2eebc05905f51e1f624c4719a35b849148833e2fc621a44d61a00dd62b4ccc",
      "transactionType": "CALL",
      "contractName": null,
      "contractAddress": "0x92228b058f25bc4fb333fa296dddecbddf6496f3",
      "function": "setCtmRwaDeployer(address)",
      "arguments": [
        "0xE912F7c7A59470a6E3f178388106E3caa9e6fbd1"
      ],
      "transaction": {
        "from": "0xc3ca11bd8e131471904dced927b3fb7edb453179",
        "to": "0x92228b058f25bc4fb333fa296dddecbddf6496f3",
        "gas": "0xb5f5",
        "value": "0x0",
        "input": "0xf1e4f707000000000000000000000000e912f7c7a59470a6e3f178388106e3caa9e6fbd1",
        "nonce": "0x48",
        "chainId": "0x79a"
      },
      "additionalContracts": [],
      "isFixedGasLimit": false
    },
    {
      "hash": "0xd4c3168de02d2b48500a85552d9d55ac3bcb31ff10502bdb9ce0fab2fafcf577",
      "transactionType": "CALL",
      "contractName": null,
      "contractAddress": "0x92228b058f25bc4fb333fa296dddecbddf6496f3",
      "function": "setCtmRwaMap(address)",
      "arguments": [
        "0x2026027054F5beBCEB650aBD62dC623e327658e7"
      ],
      "transaction": {
        "from": "0xc3ca11bd8e131471904dced927b3fb7edb453179",
        "to": "0x92228b058f25bc4fb333fa296dddecbddf6496f3",
        "gas": "0x11e4b",
        "value": "0x0",
        "input": "0x08add95f0000000000000000000000002026027054f5bebceb650abd62dc623e327658e7",
        "nonce": "0x49",
        "chainId": "0x79a"
      },
      "additionalContracts": [],
      "isFixedGasLimit": false
    },
    {
      "hash": "0xde8341cfe236ab3d099fca28bd04cf4dd19f8c56ba5e2de8886c2b0df22e8521",
      "transactionType": "CALL",
      "contractName": null,
      "contractAddress": "0x2af842c6517cf30fb3456aef485230e0dd085845",
      "function": "setSentryUtils(address)",
      "arguments": [
        "0x1CBc0DE1CD20d6D80ae755275A63DBc9B1131a7C"
      ],
      "transaction": {
        "from": "0xc3ca11bd8e131471904dced927b3fb7edb453179",
        "to": "0x2af842c6517cf30fb3456aef485230e0dd085845",
        "gas": "0x1306f",
        "value": "0x0",
        "input": "0x672f91940000000000000000000000001cbc0de1cd20d6d80ae755275a63dbc9b1131a7c",
        "nonce": "0x4a",
        "chainId": "0x79a"
      },
      "additionalContracts": [],
      "isFixedGasLimit": false
    },
    {
      "hash": "0x1c4aa62c48f0a2f65cc8d88cd87c9fb9c15a25fb7ec53ad6b07f317b687d4ccb",
      "transactionType": "CALL",
      "contractName": null,
      "contractAddress": "0x2af842c6517cf30fb3456aef485230e0dd085845",
      "function": "setCtmRwaDeployer(address)",
      "arguments": [
        "0xE912F7c7A59470a6E3f178388106E3caa9e6fbd1"
      ],
      "transaction": {
        "from": "0xc3ca11bd8e131471904dced927b3fb7edb453179",
        "to": "0x2af842c6517cf30fb3456aef485230e0dd085845",
        "gas": "0xb6ca",
        "value": "0x0",
        "input": "0xf1e4f707000000000000000000000000e912f7c7a59470a6e3f178388106e3caa9e6fbd1",
        "nonce": "0x4b",
        "chainId": "0x79a"
      },
      "additionalContracts": [],
      "isFixedGasLimit": false
    },
    {
      "hash": "0x2900619969a3e6765bfba76604ed28f51bb2a3c1503eb5739650941bdaa34fe8",
      "transactionType": "CALL",
      "contractName": null,
      "contractAddress": "0x2af842c6517cf30fb3456aef485230e0dd085845",
      "function": "setCtmRwaMap(address)",
      "arguments": [
        "0x2026027054F5beBCEB650aBD62dC623e327658e7"
      ],
      "transaction": {
        "from": "0xc3ca11bd8e131471904dced927b3fb7edb453179",
        "to": "0x2af842c6517cf30fb3456aef485230e0dd085845",
        "gas": "0x11e2d",
        "value": "0x0",
        "input": "0x08add95f0000000000000000000000002026027054f5bebceb650abd62dc623e327658e7",
        "nonce": "0x4c",
        "chainId": "0x79a"
      },
      "additionalContracts": [],
      "isFixedGasLimit": false
    },
    {
      "hash": "0x043de6766cd8ff056214f8d8851ebad70a4580bc38232fb2dc14433bd93a40f0",
      "transactionType": "CALL",
      "contractName": null,
      "contractAddress": "0x58b610a359c870e0fc941139821a51f5aa23f14e",
      "function": "addChainContract(string[],string[])",
      "arguments": [
        "[11155111, 17000, 421614, 43113, 534351, 5611, 84532, 97]",
        "[0x58B610a359c870E0fc941139821a51F5aa23f14E, 0x58B610a359c870E0fc941139821a51F5aa23f14E, 0x58B610a359c870E0fc941139821a51F5aa23f14E, 0x58B610a359c870E0fc941139821a51F5aa23f14E, 0x58B610a359c870E0fc941139821a51F5aa23f14E, 0x58B610a359c870E0fc941139821a51F5aa23f14E, 0x58B610a359c870E0fc941139821a51F5aa23f14E, 0x58B610a359c870E0fc941139821a51F5aa23f14E]"
      ],
      "transaction": {
        "from": "0xc3ca11bd8e131471904dced927b3fb7edb453179",
        "to": "0x58b610a359c870e0fc941139821a51f5aa23f14e",
        "gas": "0x15baa2",
        "value": "0x0",
        "input": "0x013fd3bd00000000000000000000000000000000000000000000000000000000000000400000000000000000000000000000000000000000000000000000000000000360000000000000000000000000000000000000000000000000000000000000000800000000000000000000000000000000000000000000000000000000000001000000000000000000000000000000000000000000000000000000000000000140000000000000000000000000000000000000000000000000000000000000018000000000000000000000000000000000000000000000000000000000000001c000000000000000000000000000000000000000000000000000000000000002000000000000000000000000000000000000000000000000000000000000000240000000000000000000000000000000000000000000000000000000000000028000000000000000000000000000000000000000000000000000000000000002c0000000000000000000000000000000000000000000000000000000000000000831313135353131310000000000000000000000000000000000000000000000000000000000000000000000000000000000000000000000000000000000000005313730303000000000000000000000000000000000000000000000000000000000000000000000000000000000000000000000000000000000000000000000063432313631340000000000000000000000000000000000000000000000000000000000000000000000000000000000000000000000000000000000000000000534333131330000000000000000000000000000000000000000000000000000000000000000000000000000000000000000000000000000000000000000000006353334333531000000000000000000000000000000000000000000000000000000000000000000000000000000000000000000000000000000000000000000043536313100000000000000000000000000000000000000000000000000000000000000000000000000000000000000000000000000000000000000000000000538343533320000000000000000000000000000000000000000000000000000000000000000000000000000000000000000000000000000000000000000000002393700000000000000000000000000000000000000000000000000000000000000000000000000000000000000000000000000000000000000000000000000080000000000000000000000000000000000000000000000000000000000000100000000000000000000000000000000000000000000000000000000000000016000000000000000000000000000000000000000000000000000000000000001c00000000000000000000000000000000000000000000000000000000000000220000000000000000000000000000000000000000000000000000000000000028000000000000000000000000000000000000000000000000000000000000002e0000000000000000000000000000000000000000000000000000000000000034000000000000000000000000000000000000000000000000000000000000003a0000000000000000000000000000000000000000000000000000000000000002a30783538423631306133353963383730453066633934313133393832316135314635616132336631344500000000000000000000000000000000000000000000000000000000000000000000000000000000000000000000000000000000002a30783538423631306133353963383730453066633934313133393832316135314635616132336631344500000000000000000000000000000000000000000000000000000000000000000000000000000000000000000000000000000000002a30783538423631306133353963383730453066633934313133393832316135314635616132336631344500000000000000000000000000000000000000000000000000000000000000000000000000000000000000000000000000000000002a30783538423631306133353963383730453066633934313133393832316135314635616132336631344500000000000000000000000000000000000000000000000000000000000000000000000000000000000000000000000000000000002a30783538423631306133353963383730453066633934313133393832316135314635616132336631344500000000000000000000000000000000000000000000000000000000000000000000000000000000000000000000000000000000002a30783538423631306133353963383730453066633934313133393832316135314635616132336631344500000000000000000000000000000000000000000000000000000000000000000000000000000000000000000000000000000000002a30783538423631306133353963383730453066633934313133393832316135314635616132336631344500000000000000000000000000000000000000000000000000000000000000000000000000000000000000000000000000000000002a30783538423631306133353963383730453066633934313133393832316135314635616132336631344500000000000000000000000000000000000000000000",
        "nonce": "0x4d",
        "chainId": "0x79a"
      },
      "additionalContracts": [],
      "isFixedGasLimit": false
    },
    {
      "hash": "0xe28a08799dcb90493448e86bf9045575cb29996a6efbc4e8e819108d69e66fe5",
      "transactionType": "CALL",
      "contractName": null,
      "contractAddress": "0x58b610a359c870e0fc941139821a51f5aa23f14e",
      "function": "attachRWAX(uint256,uint256,string[],string[])",
      "arguments": [
        "1",
        "1",
        "[11155111, 17000, 421614, 43113, 534351, 5611, 84532, 97]",
        "[0x9C9e9Fad264089339aAd66Ff3e32D2bA1DdF6951, 0x9C9e9Fad264089339aAd66Ff3e32D2bA1DdF6951, 0x9C9e9Fad264089339aAd66Ff3e32D2bA1DdF6951, 0x9C9e9Fad264089339aAd66Ff3e32D2bA1DdF6951, 0x9C9e9Fad264089339aAd66Ff3e32D2bA1DdF6951, 0x9C9e9Fad264089339aAd66Ff3e32D2bA1DdF6951, 0x9C9e9Fad264089339aAd66Ff3e32D2bA1DdF6951, 0x9C9e9Fad264089339aAd66Ff3e32D2bA1DdF6951]"
      ],
      "transaction": {
        "from": "0xc3ca11bd8e131471904dced927b3fb7edb453179",
        "to": "0x58b610a359c870e0fc941139821a51f5aa23f14e",
        "gas": "0x1ad451",
        "value": "0x0",
        "input": "0x33a5f5b400000000000000000000000000000000000000000000000000000000000000010000000000000000000000000000000000000000000000000000000000000001000000000000000000000000000000000000000000000000000000000000008000000000000000000000000000000000000000000000000000000000000003a0000000000000000000000000000000000000000000000000000000000000000800000000000000000000000000000000000000000000000000000000000001000000000000000000000000000000000000000000000000000000000000000140000000000000000000000000000000000000000000000000000000000000018000000000000000000000000000000000000000000000000000000000000001c000000000000000000000000000000000000000000000000000000000000002000000000000000000000000000000000000000000000000000000000000000240000000000000000000000000000000000000000000000000000000000000028000000000000000000000000000000000000000000000000000000000000002c0000000000000000000000000000000000000000000000000000000000000000831313135353131310000000000000000000000000000000000000000000000000000000000000000000000000000000000000000000000000000000000000005313730303000000000000000000000000000000000000000000000000000000000000000000000000000000000000000000000000000000000000000000000063432313631340000000000000000000000000000000000000000000000000000000000000000000000000000000000000000000000000000000000000000000534333131330000000000000000000000000000000000000000000000000000000000000000000000000000000000000000000000000000000000000000000006353334333531000000000000000000000000000000000000000000000000000000000000000000000000000000000000000000000000000000000000000000043536313100000000000000000000000000000000000000000000000000000000000000000000000000000000000000000000000000000000000000000000000538343533320000000000000000000000000000000000000000000000000000000000000000000000000000000000000000000000000000000000000000000002393700000000000000000000000000000000000000000000000000000000000000000000000000000000000000000000000000000000000000000000000000080000000000000000000000000000000000000000000000000000000000000100000000000000000000000000000000000000000000000000000000000000016000000000000000000000000000000000000000000000000000000000000001c00000000000000000000000000000000000000000000000000000000000000220000000000000000000000000000000000000000000000000000000000000028000000000000000000000000000000000000000000000000000000000000002e0000000000000000000000000000000000000000000000000000000000000034000000000000000000000000000000000000000000000000000000000000003a0000000000000000000000000000000000000000000000000000000000000002a30783943396539466164323634303839333339614164363646663365333244326241314464463639353100000000000000000000000000000000000000000000000000000000000000000000000000000000000000000000000000000000002a30783943396539466164323634303839333339614164363646663365333244326241314464463639353100000000000000000000000000000000000000000000000000000000000000000000000000000000000000000000000000000000002a30783943396539466164323634303839333339614164363646663365333244326241314464463639353100000000000000000000000000000000000000000000000000000000000000000000000000000000000000000000000000000000002a30783943396539466164323634303839333339614164363646663365333244326241314464463639353100000000000000000000000000000000000000000000000000000000000000000000000000000000000000000000000000000000002a30783943396539466164323634303839333339614164363646663365333244326241314464463639353100000000000000000000000000000000000000000000000000000000000000000000000000000000000000000000000000000000002a30783943396539466164323634303839333339614164363646663365333244326241314464463639353100000000000000000000000000000000000000000000000000000000000000000000000000000000000000000000000000000000002a30783943396539466164323634303839333339614164363646663365333244326241314464463639353100000000000000000000000000000000000000000000000000000000000000000000000000000000000000000000000000000000002a30783943396539466164323634303839333339614164363646663365333244326241314464463639353100000000000000000000000000000000000000000000",
        "nonce": "0x4e",
        "chainId": "0x79a"
      },
      "additionalContracts": [],
      "isFixedGasLimit": false
    },
    {
      "hash": "0x3964642d525e990ec877003e77e660b87ea2f71f8d4416cb26083c4e8f775fdc",
      "transactionType": "CALL",
      "contractName": null,
      "contractAddress": "0x58b610a359c870e0fc941139821a51f5aa23f14e",
      "function": "attachStorageManager(uint256,uint256,string[],string[])",
      "arguments": [
        "1",
        "1",
        "[11155111, 17000, 421614, 43113, 534351, 5611, 84532, 97]",
        "[0x92228B058f25Bc4fb333fA296dDdECBdDf6496f3, 0x92228B058f25Bc4fb333fA296dDdECBdDf6496f3, 0x92228B058f25Bc4fb333fA296dDdECBdDf6496f3, 0x92228B058f25Bc4fb333fA296dDdECBdDf6496f3, 0x92228B058f25Bc4fb333fA296dDdECBdDf6496f3, 0x92228B058f25Bc4fb333fA296dDdECBdDf6496f3, 0x92228B058f25Bc4fb333fA296dDdECBdDf6496f3, 0x92228B058f25Bc4fb333fA296dDdECBdDf6496f3]"
      ],
      "transaction": {
        "from": "0xc3ca11bd8e131471904dced927b3fb7edb453179",
        "to": "0x58b610a359c870e0fc941139821a51f5aa23f14e",
        "gas": "0x163d10",
        "value": "0x0",
        "input": "0x2f68b48900000000000000000000000000000000000000000000000000000000000000010000000000000000000000000000000000000000000000000000000000000001000000000000000000000000000000000000000000000000000000000000008000000000000000000000000000000000000000000000000000000000000003a0000000000000000000000000000000000000000000000000000000000000000800000000000000000000000000000000000000000000000000000000000001000000000000000000000000000000000000000000000000000000000000000140000000000000000000000000000000000000000000000000000000000000018000000000000000000000000000000000000000000000000000000000000001c000000000000000000000000000000000000000000000000000000000000002000000000000000000000000000000000000000000000000000000000000000240000000000000000000000000000000000000000000000000000000000000028000000000000000000000000000000000000000000000000000000000000002c0000000000000000000000000000000000000000000000000000000000000000831313135353131310000000000000000000000000000000000000000000000000000000000000000000000000000000000000000000000000000000000000005313730303000000000000000000000000000000000000000000000000000000000000000000000000000000000000000000000000000000000000000000000063432313631340000000000000000000000000000000000000000000000000000000000000000000000000000000000000000000000000000000000000000000534333131330000000000000000000000000000000000000000000000000000000000000000000000000000000000000000000000000000000000000000000006353334333531000000000000000000000000000000000000000000000000000000000000000000000000000000000000000000000000000000000000000000043536313100000000000000000000000000000000000000000000000000000000000000000000000000000000000000000000000000000000000000000000000538343533320000000000000000000000000000000000000000000000000000000000000000000000000000000000000000000000000000000000000000000002393700000000000000000000000000000000000000000000000000000000000000000000000000000000000000000000000000000000000000000000000000080000000000000000000000000000000000000000000000000000000000000100000000000000000000000000000000000000000000000000000000000000016000000000000000000000000000000000000000000000000000000000000001c00000000000000000000000000000000000000000000000000000000000000220000000000000000000000000000000000000000000000000000000000000028000000000000000000000000000000000000000000000000000000000000002e0000000000000000000000000000000000000000000000000000000000000034000000000000000000000000000000000000000000000000000000000000003a0000000000000000000000000000000000000000000000000000000000000002a30783932323238423035386632354263346662333333664132393664446445434264446636343936663300000000000000000000000000000000000000000000000000000000000000000000000000000000000000000000000000000000002a30783932323238423035386632354263346662333333664132393664446445434264446636343936663300000000000000000000000000000000000000000000000000000000000000000000000000000000000000000000000000000000002a30783932323238423035386632354263346662333333664132393664446445434264446636343936663300000000000000000000000000000000000000000000000000000000000000000000000000000000000000000000000000000000002a30783932323238423035386632354263346662333333664132393664446445434264446636343936663300000000000000000000000000000000000000000000000000000000000000000000000000000000000000000000000000000000002a30783932323238423035386632354263346662333333664132393664446445434264446636343936663300000000000000000000000000000000000000000000000000000000000000000000000000000000000000000000000000000000002a30783932323238423035386632354263346662333333664132393664446445434264446636343936663300000000000000000000000000000000000000000000000000000000000000000000000000000000000000000000000000000000002a30783932323238423035386632354263346662333333664132393664446445434264446636343936663300000000000000000000000000000000000000000000000000000000000000000000000000000000000000000000000000000000002a30783932323238423035386632354263346662333333664132393664446445434264446636343936663300000000000000000000000000000000000000000000",
        "nonce": "0x4f",
        "chainId": "0x79a"
      },
      "additionalContracts": [],
      "isFixedGasLimit": false
    },
    {
      "hash": "0xf007f90c35960d611760efdb2c1b5552f0769deb6d550a8c857085f360f07712",
      "transactionType": "CALL",
      "contractName": null,
      "contractAddress": "0x58b610a359c870e0fc941139821a51f5aa23f14e",
      "function": "attachSentryManager(uint256,uint256,string[],string[])",
      "arguments": [
        "1",
        "1",
        "[11155111, 17000, 421614, 43113, 534351, 5611, 84532, 97]",
        "[0x2AF842C6517CF30Fb3456aeF485230e0DD085845, 0x2AF842C6517CF30Fb3456aeF485230e0DD085845, 0x2AF842C6517CF30Fb3456aeF485230e0DD085845, 0x2AF842C6517CF30Fb3456aeF485230e0DD085845, 0x2AF842C6517CF30Fb3456aeF485230e0DD085845, 0x2AF842C6517CF30Fb3456aeF485230e0DD085845, 0x2AF842C6517CF30Fb3456aeF485230e0DD085845, 0x2AF842C6517CF30Fb3456aeF485230e0DD085845]"
      ],
      "transaction": {
        "from": "0xc3ca11bd8e131471904dced927b3fb7edb453179",
        "to": "0x58b610a359c870e0fc941139821a51f5aa23f14e",
        "gas": "0x14ebb2",
        "value": "0x0",
        "input": "0x349de79700000000000000000000000000000000000000000000000000000000000000010000000000000000000000000000000000000000000000000000000000000001000000000000000000000000000000000000000000000000000000000000008000000000000000000000000000000000000000000000000000000000000003a0000000000000000000000000000000000000000000000000000000000000000800000000000000000000000000000000000000000000000000000000000001000000000000000000000000000000000000000000000000000000000000000140000000000000000000000000000000000000000000000000000000000000018000000000000000000000000000000000000000000000000000000000000001c000000000000000000000000000000000000000000000000000000000000002000000000000000000000000000000000000000000000000000000000000000240000000000000000000000000000000000000000000000000000000000000028000000000000000000000000000000000000000000000000000000000000002c0000000000000000000000000000000000000000000000000000000000000000831313135353131310000000000000000000000000000000000000000000000000000000000000000000000000000000000000000000000000000000000000005313730303000000000000000000000000000000000000000000000000000000000000000000000000000000000000000000000000000000000000000000000063432313631340000000000000000000000000000000000000000000000000000000000000000000000000000000000000000000000000000000000000000000534333131330000000000000000000000000000000000000000000000000000000000000000000000000000000000000000000000000000000000000000000006353334333531000000000000000000000000000000000000000000000000000000000000000000000000000000000000000000000000000000000000000000043536313100000000000000000000000000000000000000000000000000000000000000000000000000000000000000000000000000000000000000000000000538343533320000000000000000000000000000000000000000000000000000000000000000000000000000000000000000000000000000000000000000000002393700000000000000000000000000000000000000000000000000000000000000000000000000000000000000000000000000000000000000000000000000080000000000000000000000000000000000000000000000000000000000000100000000000000000000000000000000000000000000000000000000000000016000000000000000000000000000000000000000000000000000000000000001c00000000000000000000000000000000000000000000000000000000000000220000000000000000000000000000000000000000000000000000000000000028000000000000000000000000000000000000000000000000000000000000002e0000000000000000000000000000000000000000000000000000000000000034000000000000000000000000000000000000000000000000000000000000003a0000000000000000000000000000000000000000000000000000000000000002a30783241463834324336353137434633304662333435366165463438353233306530444430383538343500000000000000000000000000000000000000000000000000000000000000000000000000000000000000000000000000000000002a30783241463834324336353137434633304662333435366165463438353233306530444430383538343500000000000000000000000000000000000000000000000000000000000000000000000000000000000000000000000000000000002a30783241463834324336353137434633304662333435366165463438353233306530444430383538343500000000000000000000000000000000000000000000000000000000000000000000000000000000000000000000000000000000002a30783241463834324336353137434633304662333435366165463438353233306530444430383538343500000000000000000000000000000000000000000000000000000000000000000000000000000000000000000000000000000000002a30783241463834324336353137434633304662333435366165463438353233306530444430383538343500000000000000000000000000000000000000000000000000000000000000000000000000000000000000000000000000000000002a30783241463834324336353137434633304662333435366165463438353233306530444430383538343500000000000000000000000000000000000000000000000000000000000000000000000000000000000000000000000000000000002a30783241463834324336353137434633304662333435366165463438353233306530444430383538343500000000000000000000000000000000000000000000000000000000000000000000000000000000000000000000000000000000002a30783241463834324336353137434633304662333435366165463438353233306530444430383538343500000000000000000000000000000000000000000000",
        "nonce": "0x50",
        "chainId": "0x79a"
      },
      "additionalContracts": [],
      "isFixedGasLimit": false
    }
  ],
  "receipts": [
    {
      "status": "0x1",
      "cumulativeGasUsed": "0x17814",
      "logs": [],
      "logsBloom": "0x00000000000000000000000000000000000000000000000000000000000000000000000000000000000000000000000000000000000000000000000000000000000000000000000000000000000000000000000000000000000000000000000000000000000000000000000000000000000000000000000000000000000000000000000000000000000000000000000000000000000000000000000000000000000000000000000000000000000000000000000000000000000000000000000000000000000000000000000000000000000000000000000000000000000000000000000000000000000000000000000000000000000000000000000000000000",
      "type": "0x2",
      "transactionHash": "0xc161b614148f57d5b6cecb93d0fd1cc6940d1c5a64d70c120ae12f398ee751af",
      "transactionIndex": "0x2",
      "blockHash": "0x275dd74d2568d732a265cc8bdf93c5f419f8660f3a5d20da8d03002322532a5f",
      "blockNumber": "0xf03e6f",
      "gasUsed": "0x71c0",
      "effectiveGasPrice": "0xfd",
      "from": "0xc3ca11bd8e131471904dced927b3fb7edb453179",
      "to": "0x2f925d6512b2bbb00f5a36d8b18e01fcf35f7dc7",
      "contractAddress": null,
      "l1BaseFeeScalar": "0x2608",
      "l1BlobBaseFee": "0xd259e77",
      "l1BlobBaseFeeScalar": "0x177fef",
      "l1Fee": "0x7e8be6445",
      "l1GasPrice": "0x28b4",
      "l1GasUsed": "0x640"
    },
    {
      "status": "0x1",
      "cumulativeGasUsed": "0x31601",
      "logs": [
        {
          "address": "0x2f925d6512b2bbb00f5a36d8b18e01fcf35f7dc7",
          "topics": [
            "0x1394cfab38f3fc78ed77ea6f9318782a446d96e7dc8e9a6b0149f6be25c08bcf",
            "0x0000000000000000000000006a4dbc971533ba36bdc23ad70f5a7a12e064f4ae"
          ],
          "data": "0x",
          "blockHash": "0xbbf4b93d0f7df3e4bef09e1f8b06fd5bf12c8fed64838f246f7fdc0273dc1f49",
          "blockNumber": "0xf03e72",
          "transactionHash": "0xc82b122e847b56f72d8512d352418acee0f8409b4cbee6a49fa97a991536852c",
          "transactionIndex": "0x2",
          "logIndex": "0x0",
          "removed": false
        }
      ],
      "logsBloom": "0x00000000000000000000000000000000000200000000000000000000000000000000000000000000000000000000000000000000000000001000000000000000000000000000000000000000000000000000001000000000000000000000000000000000000000000000000000000000000000000000000000000000000000000000000500000000000000000000000000000000000000000000000000000000000000000000000000000000000000000000000100000000000000000000004000000000000000000000000000004000000000002000000000000000000000000000000000000000000000000000000000000000000000000000000000000000",
      "type": "0x2",
      "transactionHash": "0xc82b122e847b56f72d8512d352418acee0f8409b4cbee6a49fa97a991536852c",
      "transactionIndex": "0x2",
      "blockHash": "0xbbf4b93d0f7df3e4bef09e1f8b06fd5bf12c8fed64838f246f7fdc0273dc1f49",
      "blockNumber": "0xf03e72",
      "gasUsed": "0x1e3f9",
      "effectiveGasPrice": "0xfd",
      "from": "0xc3ca11bd8e131471904dced927b3fb7edb453179",
      "to": "0x2f925d6512b2bbb00f5a36d8b18e01fcf35f7dc7",
      "contractAddress": null,
      "l1BaseFeeScalar": "0x2608",
      "l1BlobBaseFee": "0xe388c03",
      "l1BlobBaseFeeScalar": "0x177fef",
      "l1Fee": "0x8f3b9d73d",
      "l1GasPrice": "0x28d1",
      "l1GasUsed": "0x68a"
    },
    {
      "status": "0x1",
      "cumulativeGasUsed": "0x24f6b",
      "logs": [],
      "logsBloom": "0x00000000000000000000000000000000000000000000000000000000000000000000000000000000000000000000000000000000000000000000000000000000000000000000000000000000000000000000000000000000000000000000000000000000000000000000000000000000000000000000000000000000000000000000000000000000000000000000000000000000000000000000000000000000000000000000000000000000000000000000000000000000000000000000000000000000000000000000000000000000000000000000000000000000000000000000000000000000000000000000000000000000000000000000000000000000",
      "type": "0x2",
      "transactionHash": "0x9f8495e6d1c4e4bffe75b0cf1cc252b06699972e4565ee7328d4102d526e216b",
      "transactionIndex": "0x1",
      "blockHash": "0x604af881157444a35e5aefa0abd3abd3cd7330da125451a9c1c0e8af64f914b7",
      "blockNumber": "0xf03e74",
      "gasUsed": "0x19b1f",
      "effectiveGasPrice": "0xfd",
      "from": "0xc3ca11bd8e131471904dced927b3fb7edb453179",
      "to": "0x2f925d6512b2bbb00f5a36d8b18e01fcf35f7dc7",
      "contractAddress": null,
      "l1BaseFeeScalar": "0x2608",
      "l1BlobBaseFee": "0xe388c03",
      "l1BlobBaseFeeScalar": "0x177fef",
      "l1Fee": "0xc3e7827a1",
      "l1GasPrice": "0x28d1",
      "l1GasUsed": "0x8f1"
    },
    {
      "status": "0x1",
      "cumulativeGasUsed": "0x24b03",
      "logs": [],
      "logsBloom": "0x00000000000000000000000000000000000000000000000000000000000000000000000000000000000000000000000000000000000000000000000000000000000000000000000000000000000000000000000000000000000000000000000000000000000000000000000000000000000000000000000000000000000000000000000000000000000000000000000000000000000000000000000000000000000000000000000000000000000000000000000000000000000000000000000000000000000000000000000000000000000000000000000000000000000000000000000000000000000000000000000000000000000000000000000000000000",
      "type": "0x2",
      "transactionHash": "0x9e50c3df126915efd2d0613d15be882869a2042364cc988e12b938248a4f81d3",
      "transactionIndex": "0x1",
      "blockHash": "0x6fe69f4422e98f1f56b09a8c4850f6ed07ac169e6ce9bb15e9a2e309a6489162",
      "blockNumber": "0xf03e76",
      "gasUsed": "0x196b7",
      "effectiveGasPrice": "0xfd",
      "from": "0xc3ca11bd8e131471904dced927b3fb7edb453179",
      "to": "0x2f925d6512b2bbb00f5a36d8b18e01fcf35f7dc7",
      "contractAddress": null,
      "l1BaseFeeScalar": "0x2608",
      "l1BlobBaseFee": "0xe388c03",
      "l1BlobBaseFeeScalar": "0x177fef",
      "l1Fee": "0xc19d40de0",
      "l1GasPrice": "0x28d1",
      "l1GasUsed": "0x8d7"
    },
    {
      "status": "0x1",
      "cumulativeGasUsed": "0x26d3f",
      "logs": [],
      "logsBloom": "0x00000000000000000000000000000000000000000000000000000000000000000000000000000000000000000000000000000000000000000000000000000000000000000000000000000000000000000000000000000000000000000000000000000000000000000000000000000000000000000000000000000000000000000000000000000000000000000000000000000000000000000000000000000000000000000000000000000000000000000000000000000000000000000000000000000000000000000000000000000000000000000000000000000000000000000000000000000000000000000000000000000000000000000000000000000000",
      "type": "0x2",
      "transactionHash": "0x29895b2d706baa1d7140ae71f4c10a59775cdfd5fa4a6148ec0e0cc59726c45e",
      "transactionIndex": "0x1",
      "blockHash": "0x5827cf07bdb2f65272b8ef93346835e7f546e618b3641072f9c470b0f4f15857",
      "blockNumber": "0xf03e78",
      "gasUsed": "0x1982f",
      "effectiveGasPrice": "0xfd",
      "from": "0xc3ca11bd8e131471904dced927b3fb7edb453179",
      "to": "0x2f925d6512b2bbb00f5a36d8b18e01fcf35f7dc7",
      "contractAddress": null,
      "l1BaseFeeScalar": "0x2608",
      "l1BlobBaseFee": "0xe388c03",
      "l1BlobBaseFeeScalar": "0x177fef",
      "l1Fee": "0xc2c261880",
      "l1GasPrice": "0x28b7",
      "l1GasUsed": "0x8e4"
    },
    {
      "status": "0x1",
      "cumulativeGasUsed": "0x24b03",
      "logs": [],
      "logsBloom": "0x00000000000000000000000000000000000000000000000000000000000000000000000000000000000000000000000000000000000000000000000000000000000000000000000000000000000000000000000000000000000000000000000000000000000000000000000000000000000000000000000000000000000000000000000000000000000000000000000000000000000000000000000000000000000000000000000000000000000000000000000000000000000000000000000000000000000000000000000000000000000000000000000000000000000000000000000000000000000000000000000000000000000000000000000000000000",
      "type": "0x2",
      "transactionHash": "0xd7cf06dd1cfd9354dab66cb7a39d97e76d0b49e9e78d6a204bbd3ec3191736af",
      "transactionIndex": "0x1",
      "blockHash": "0x7552d49f14ff13e3983b7f0ede68ce73c7b901dce3cbdb79ae62120a039f6be8",
      "blockNumber": "0xf03e7a",
      "gasUsed": "0x196b7",
      "effectiveGasPrice": "0xfd",
      "from": "0xc3ca11bd8e131471904dced927b3fb7edb453179",
      "to": "0x2f925d6512b2bbb00f5a36d8b18e01fcf35f7dc7",
      "contractAddress": null,
      "l1BaseFeeScalar": "0x2608",
      "l1BlobBaseFee": "0xe388c03",
      "l1BlobBaseFeeScalar": "0x177fef",
      "l1Fee": "0xc19d40ba3",
      "l1GasPrice": "0x28b7",
      "l1GasUsed": "0x8d7"
    },
    {
      "status": "0x1",
      "cumulativeGasUsed": "0x24c7b",
      "logs": [],
      "logsBloom": "0x00000000000000000000000000000000000000000000000000000000000000000000000000000000000000000000000000000000000000000000000000000000000000000000000000000000000000000000000000000000000000000000000000000000000000000000000000000000000000000000000000000000000000000000000000000000000000000000000000000000000000000000000000000000000000000000000000000000000000000000000000000000000000000000000000000000000000000000000000000000000000000000000000000000000000000000000000000000000000000000000000000000000000000000000000000000",
      "type": "0x2",
      "transactionHash": "0x49e6a893aef809e0e35deb4b18e9868d9367f1c24a71eadb244a5bde4ffbf7ac",
      "transactionIndex": "0x1",
      "blockHash": "0xbd913bd95b7d1760f3d5edab892f3483096b863b8ff6c17206bd7edd1ebf4213",
      "blockNumber": "0xf03e7c",
      "gasUsed": "0x1982f",
      "effectiveGasPrice": "0xfd",
      "from": "0xc3ca11bd8e131471904dced927b3fb7edb453179",
      "to": "0x2f925d6512b2bbb00f5a36d8b18e01fcf35f7dc7",
      "contractAddress": null,
      "l1BaseFeeScalar": "0x2608",
      "l1BlobBaseFee": "0xe388c03",
      "l1BlobBaseFeeScalar": "0x177fef",
      "l1Fee": "0xc2c261880",
      "l1GasPrice": "0x28b7",
      "l1GasUsed": "0x8e4"
    },
    {
      "status": "0x1",
      "cumulativeGasUsed": "0x2c747",
      "logs": [],
      "logsBloom": "0x00000000000000000000000000000000000000000000000000000000000000000000000000000000000000000000000000000000000000000000000000000000000000000000000000000000000000000000000000000000000000000000000000000000000000000000000000000000000000000000000000000000000000000000000000000000000000000000000000000000000000000000000000000000000000000000000000000000000000000000000000000000000000000000000000000000000000000000000000000000000000000000000000000000000000000000000000000000000000000000000000000000000000000000000000000000",
      "type": "0x2",
      "transactionHash": "0xc1f583325bfccab25726f297fda4d06fd7e7e83ff053f541a2d31421c55a22f1",
      "transactionIndex": "0x2",
      "blockHash": "0x3873b7ae01f629918809f42dc64fe7d0fb5a5f46564e1c97db295efb95f4662b",
      "blockNumber": "0xf03e7e",
      "gasUsed": "0x1953f",
      "effectiveGasPrice": "0xfd",
      "from": "0xc3ca11bd8e131471904dced927b3fb7edb453179",
      "to": "0x2f925d6512b2bbb00f5a36d8b18e01fcf35f7dc7",
      "contractAddress": null,
      "l1BaseFeeScalar": "0x2608",
      "l1BlobBaseFee": "0xcceab8e",
      "l1BlobBaseFeeScalar": "0x177fef",
      "l1Fee": "0xad566f54c",
      "l1GasPrice": "0x2d53",
      "l1GasUsed": "0x8c9"
    },
    {
      "status": "0x1",
      "cumulativeGasUsed": "0x168de8",
      "logs": [],
      "logsBloom": "0x00000000000000000000000000000000000000000000000000000000000000000000000000000000000000000000000000000000000000000000000000000000000000000000000000000000000000000000000000000000000000000000000000000000000000000000000000000000000000000000000000000000000000000000000000000000000000000000000000000000000000000000000000000000000000000000000000000000000000000000000000000000000000000000000000000000000000000000000000000000000000000000000000000000000000000000000000000000000000000000000000000000000000000000000000000000",
      "type": "0x2",
      "transactionHash": "0x03810a386ffd7a5ee1658e94eb698d3729f3b135870e1fa91eb8ce668a5be1ba",
      "transactionIndex": "0x2",
      "blockHash": "0x3f29034cb2bbfdaa93a333ecf7ba8c2eae1f99d5bd827664c6b2b43033637038",
      "blockNumber": "0xf03e80",
      "gasUsed": "0x196b7",
      "effectiveGasPrice": "0xfd",
      "from": "0xc3ca11bd8e131471904dced927b3fb7edb453179",
      "to": "0x2f925d6512b2bbb00f5a36d8b18e01fcf35f7dc7",
      "contractAddress": null,
      "l1BaseFeeScalar": "0x2608",
      "l1BlobBaseFee": "0xcceab8e",
      "l1BlobBaseFeeScalar": "0x177fef",
      "l1Fee": "0xae5e6d047",
      "l1GasPrice": "0x2d53",
      "l1GasUsed": "0x8d7"
    },
    {
      "status": "0x1",
      "cumulativeGasUsed": "0x298a3",
      "logs": [],
      "logsBloom": "0x00000000000000000000000000000000000000000000000000000000000000000000000000000000000000000000000000000000000000000000000000000000000000000000000000000000000000000000000000000000000000000000000000000000000000000000000000000000000000000000000000000000000000000000000000000000000000000000000000000000000000000000000000000000000000000000000000000000000000000000000000000000000000000000000000000000000000000000000000000000000000000000000000000000000000000000000000000000000000000000000000000000000000000000000000000000",
      "type": "0x2",
      "transactionHash": "0x8a053343bf58b39865081c9340bf495dff30cd5f3c4b499a61c91a6838bf3528",
      "transactionIndex": "0x2",
      "blockHash": "0xbd4117f5b8e00030687f4371845422b7fbbb99c61a0102863eb4fa7bdecb8b00",
      "blockNumber": "0xf03e83",
      "gasUsed": "0x1924f",
      "effectiveGasPrice": "0xfd",
      "from": "0xc3ca11bd8e131471904dced927b3fb7edb453179",
      "to": "0x2f925d6512b2bbb00f5a36d8b18e01fcf35f7dc7",
      "contractAddress": null,
      "l1BaseFeeScalar": "0x2608",
      "l1BlobBaseFee": "0xcceab8e",
      "l1BlobBaseFeeScalar": "0x177fef",
      "l1Fee": "0xab4673f56",
      "l1GasPrice": "0x2d53",
      "l1GasUsed": "0x8ae"
    },
    {
      "status": "0x1",
      "cumulativeGasUsed": "0x4ed1c",
      "logs": [
        {
          "address": "0x2f925d6512b2bbb00f5a36d8b18e01fcf35f7dc7",
          "topics": [
            "0x128b13f5a7f3d4a8f9ebafb4d8c23d5f6f5a287c83c1e81e79b1f80c1708a5fb",
            "0x0000000000000000000000000000000000000000000000000000000000000000"
          ],
          "data": "0x0000000000000000000000000000000000000000000000000000000000000002",
          "blockHash": "0x0cf47594ab3633fdc42687d1ffc3230957bce3f8b796fef0995cec4da67f3c41",
          "blockNumber": "0xf03e86",
          "transactionHash": "0x5c2b48db26b0b730d56ba97f073128111558f0383ce9b6bc04f3e03e2c5289b1",
          "transactionIndex": "0x4",
          "logIndex": "0x5",
          "removed": false
        }
      ],
      "logsBloom": "0x00000000000000000000000000000000000000000000000000000000000000000000000000000000000000000000000000000000000000000000000000000000000000000000000000000000000000000000000000000000000000000000000000000000020000000000000000000800000000000000000009000000000000000000000400000000000000000000000000000000000000000000000000000000000000000000001000000000000000000000000000000000000000000000004000000000000000000000000000004000000000000000000000000000000020000000000000000000000000000000000000000000000000000000000000000000",
      "type": "0x2",
      "transactionHash": "0x5c2b48db26b0b730d56ba97f073128111558f0383ce9b6bc04f3e03e2c5289b1",
      "transactionIndex": "0x4",
      "blockHash": "0x0cf47594ab3633fdc42687d1ffc3230957bce3f8b796fef0995cec4da67f3c41",
      "blockNumber": "0xf03e86",
      "gasUsed": "0xe65e",
      "effectiveGasPrice": "0xfd",
      "from": "0xc3ca11bd8e131471904dced927b3fb7edb453179",
      "to": "0x2f925d6512b2bbb00f5a36d8b18e01fcf35f7dc7",
      "contractAddress": null,
      "l1BaseFeeScalar": "0x2608",
      "l1BlobBaseFee": "0xd7edfac",
      "l1BlobBaseFeeScalar": "0x177fef",
      "l1Fee": "0x81e7061df",
      "l1GasPrice": "0x29ae",
      "l1GasUsed": "0x640"
    },
    {
      "status": "0x1",
      "cumulativeGasUsed": "0x19ab6",
      "logs": [
        {
          "address": "0x2f925d6512b2bbb00f5a36d8b18e01fcf35f7dc7",
          "topics": [
            "0x128b13f5a7f3d4a8f9ebafb4d8c23d5f6f5a287c83c1e81e79b1f80c1708a5fb",
            "0x0000000000000000000000000000000000000000000000000000000000000001"
          ],
          "data": "0x000000000000000000000000000000000000000000000000000000000000000a",
          "blockHash": "0x4d3e26b7b258632121fd77cfea3a10247e9b6ff225ebaaf54c3073c43518b8e2",
          "blockNumber": "0xf03e89",
          "transactionHash": "0xee1564ba07b3c82cb1223df694597f8cc86f00f9514d33ebe3c9c71435a5b2ae",
          "transactionIndex": "0x1",
          "logIndex": "0x0",
          "removed": false
        }
      ],
      "logsBloom": "0x00000000000000000000000000000000000000000000000000000000000000000000000000000000000000000000000000000000000000000000000000040000000000000000000000000000000000000000000000040000000000000000000000000000000000000000000000000000000000000000000009000000000000000000000400000000000000000000000000000000000000000000000000000000000000000000001000000000000000000000000000000000000000000000004000000000000000000000000000004000000000000000000000000000000040000000000000000000000000000000000000000000000000000000000000000000",
      "type": "0x2",
      "transactionHash": "0xee1564ba07b3c82cb1223df694597f8cc86f00f9514d33ebe3c9c71435a5b2ae",
      "transactionIndex": "0x1",
      "blockHash": "0x4d3e26b7b258632121fd77cfea3a10247e9b6ff225ebaaf54c3073c43518b8e2",
      "blockNumber": "0xf03e89",
      "gasUsed": "0xe66a",
      "effectiveGasPrice": "0xfd",
      "from": "0xc3ca11bd8e131471904dced927b3fb7edb453179",
      "to": "0x2f925d6512b2bbb00f5a36d8b18e01fcf35f7dc7",
      "contractAddress": null,
      "l1BaseFeeScalar": "0x2608",
      "l1BlobBaseFee": "0xd7edfac",
      "l1BlobBaseFeeScalar": "0x177fef",
      "l1Fee": "0x81e7061df",
      "l1GasPrice": "0x29ae",
      "l1GasUsed": "0x640"
    },
    {
      "status": "0x1",
      "cumulativeGasUsed": "0x113d4c",
      "logs": [
        {
          "address": "0x2f925d6512b2bbb00f5a36d8b18e01fcf35f7dc7",
          "topics": [
            "0x128b13f5a7f3d4a8f9ebafb4d8c23d5f6f5a287c83c1e81e79b1f80c1708a5fb",
            "0x0000000000000000000000000000000000000000000000000000000000000002"
          ],
          "data": "0x0000000000000000000000000000000000000000000000000000000000000001",
          "blockHash": "0x3e6a9f5cf6548f31c9e55811f02d45af3dd5abd59a0f27d536ba7352a8246177",
          "blockNumber": "0xf03e8b",
          "transactionHash": "0x8340cdac9b8f6a880b21641c3ebdff9539c8ce900c84a104d0700027b1fc3769",
          "transactionIndex": "0x2",
          "logIndex": "0x1",
          "removed": false
        }
      ],
      "logsBloom": "0x04000000000000000000000000000000000000000000000000000000000000000000000000000000000000000000000000000000000000000000000000000000000000000000000000000000000000000000000000000000000000000000000000000000000000000000000000000000000000000000000009000000000000000000000400000000000000000000000000000000000000000000000000000000000000000000001000000100000000000000000000000000000000000000004000000000000000000000000000004000000000000000000000000000000000000000000000000000000000000000000000000000008000000000000000000000",
      "type": "0x2",
      "transactionHash": "0x8340cdac9b8f6a880b21641c3ebdff9539c8ce900c84a104d0700027b1fc3769",
      "transactionIndex": "0x2",
      "blockHash": "0x3e6a9f5cf6548f31c9e55811f02d45af3dd5abd59a0f27d536ba7352a8246177",
      "blockNumber": "0xf03e8b",
      "gasUsed": "0xe66a",
      "effectiveGasPrice": "0xfd",
      "from": "0xc3ca11bd8e131471904dced927b3fb7edb453179",
      "to": "0x2f925d6512b2bbb00f5a36d8b18e01fcf35f7dc7",
      "contractAddress": null,
      "l1BaseFeeScalar": "0x2608",
      "l1BlobBaseFee": "0xd259e77",
      "l1BlobBaseFeeScalar": "0x177fef",
      "l1Fee": "0x7e8be3d63",
      "l1GasPrice": "0x2635",
      "l1GasUsed": "0x640"
    },
    {
      "status": "0x1",
      "cumulativeGasUsed": "0x19ab6",
      "logs": [
        {
          "address": "0x2f925d6512b2bbb00f5a36d8b18e01fcf35f7dc7",
          "topics": [
            "0x128b13f5a7f3d4a8f9ebafb4d8c23d5f6f5a287c83c1e81e79b1f80c1708a5fb",
            "0x0000000000000000000000000000000000000000000000000000000000000003"
          ],
          "data": "0x0000000000000000000000000000000000000000000000000000000000000004",
          "blockHash": "0xeab61c99ea3a2a1e71b8dd9b996193306a6ec614cf0bfe99f74e99e1c8b01b5b",
          "blockNumber": "0xf03e8d",
          "transactionHash": "0x7399fd9904021d5ffb0b181269804249abf917d00f78ca80214d24f0ba24703c",
          "transactionIndex": "0x1",
          "logIndex": "0x0",
          "removed": false
        }
      ],
      "logsBloom": "0x00000000000000000000000000000000000000000000000000000000000000000000000000000000000000000000000000000000020000000000000000000000000000000000000000000000000000000000000000000000000000000000000000000000000000000000000000000000000000000000000009000000000000000000000400000000000000000000000000000000000000000000000000000000000000000000001000000000000000000000000000800000000000000000404000000000000000000000000000004000000000000000000000000000000000000000000000000000000000000000000000000000000000000000000000000000",
      "type": "0x2",
      "transactionHash": "0x7399fd9904021d5ffb0b181269804249abf917d00f78ca80214d24f0ba24703c",
      "transactionIndex": "0x1",
      "blockHash": "0xeab61c99ea3a2a1e71b8dd9b996193306a6ec614cf0bfe99f74e99e1c8b01b5b",
      "blockNumber": "0xf03e8d",
      "gasUsed": "0xe66a",
      "effectiveGasPrice": "0xfd",
      "from": "0xc3ca11bd8e131471904dced927b3fb7edb453179",
      "to": "0x2f925d6512b2bbb00f5a36d8b18e01fcf35f7dc7",
      "contractAddress": null,
      "l1BaseFeeScalar": "0x2608",
      "l1BlobBaseFee": "0xd259e77",
      "l1BlobBaseFeeScalar": "0x177fef",
      "l1Fee": "0x7e8be3d63",
      "l1GasPrice": "0x2635",
      "l1GasUsed": "0x640"
    },
    {
      "status": "0x1",
      "cumulativeGasUsed": "0x472d1",
      "logs": [
        {
          "address": "0x2f925d6512b2bbb00f5a36d8b18e01fcf35f7dc7",
          "topics": [
            "0x128b13f5a7f3d4a8f9ebafb4d8c23d5f6f5a287c83c1e81e79b1f80c1708a5fb",
            "0x0000000000000000000000000000000000000000000000000000000000000004"
          ],
          "data": "0x0000000000000000000000000000000000000000000000000000000000000004",
          "blockHash": "0x0e09d1fa176e6e0751b49edcfcf4cdef57383f79b7f362a50dda6a3ad6fac367",
          "blockNumber": "0xf03e8f",
          "transactionHash": "0x8d50862c1c58cecdf872cbbd090c96f6f0b9374db6fc79e2d6f67c1fcb53e755",
          "transactionIndex": "0x2",
          "logIndex": "0x4",
          "removed": false
        }
      ],
      "logsBloom": "0x00000000000000000000000000000000000000000000000000000000000000000000000000000000000000000000000000000000000000000000000000000000000000000000000000000000000000000000000000000000000000000000000008000000000000000000000000000000000000000000000009000000000000000000000400000000000000000000000000000000000000000000000000000000000000000000001000000000000000000000000000000000002000000000004000000000000000000000000000004000000000008000000000000000000000000000000000000000000000000000000000000000000000000000000000000000",
      "type": "0x2",
      "transactionHash": "0x8d50862c1c58cecdf872cbbd090c96f6f0b9374db6fc79e2d6f67c1fcb53e755",
      "transactionIndex": "0x2",
      "blockHash": "0x0e09d1fa176e6e0751b49edcfcf4cdef57383f79b7f362a50dda6a3ad6fac367",
      "blockNumber": "0xf03e8f",
      "gasUsed": "0xe66a",
      "effectiveGasPrice": "0xfd",
      "from": "0xc3ca11bd8e131471904dced927b3fb7edb453179",
      "to": "0x2f925d6512b2bbb00f5a36d8b18e01fcf35f7dc7",
      "contractAddress": null,
      "l1BaseFeeScalar": "0x2608",
      "l1BlobBaseFee": "0xd259e77",
      "l1BlobBaseFeeScalar": "0x177fef",
      "l1Fee": "0x7e8be3d63",
      "l1GasPrice": "0x2635",
      "l1GasUsed": "0x640"
    },
    {
      "status": "0x1",
      "cumulativeGasUsed": "0x442d7",
      "logs": [
        {
          "address": "0x2f925d6512b2bbb00f5a36d8b18e01fcf35f7dc7",
          "topics": [
            "0x128b13f5a7f3d4a8f9ebafb4d8c23d5f6f5a287c83c1e81e79b1f80c1708a5fb",
            "0x0000000000000000000000000000000000000000000000000000000000000005"
          ],
          "data": "0x0000000000000000000000000000000000000000000000000000000000000004",
          "blockHash": "0x51d63815d0e7ce96327139235a953ce2247ac0ab9edacd62bbe871f43100b5ca",
          "blockNumber": "0xf03e91",
          "transactionHash": "0xf6c47391ec35e0c156acb4e10ec8408cfe1e00334d20d3408ffcdd44c3e88a64",
          "transactionIndex": "0x2",
          "logIndex": "0x4",
          "removed": false
        }
      ],
      "logsBloom": "0x00000000000000000000000000000000000000000000000000000000000000000000000000000000000000000000000000000000000000000000000000000000000010000000000000000000000000000000000000000000000000000000000000000000000000000000000000000000000000000000000009000000000000000000000400000000000000000000001000000800000000000000000000000000000000000000001000000000000000000000000000000000000000000000004000000000000000000000000000004000000000000000000000000000000000000000000000000000000000000000000000000000000000000000000000000000",
      "type": "0x2",
      "transactionHash": "0xf6c47391ec35e0c156acb4e10ec8408cfe1e00334d20d3408ffcdd44c3e88a64",
      "transactionIndex": "0x2",
      "blockHash": "0x51d63815d0e7ce96327139235a953ce2247ac0ab9edacd62bbe871f43100b5ca",
      "blockNumber": "0xf03e91",
      "gasUsed": "0xe66a",
      "effectiveGasPrice": "0xfd",
      "from": "0xc3ca11bd8e131471904dced927b3fb7edb453179",
      "to": "0x2f925d6512b2bbb00f5a36d8b18e01fcf35f7dc7",
      "contractAddress": null,
      "l1BaseFeeScalar": "0x2608",
      "l1BlobBaseFee": "0xc79f7b0",
      "l1BlobBaseFeeScalar": "0x177fef",
      "l1Fee": "0x7817a6d0f",
      "l1GasPrice": "0x240f",
      "l1GasUsed": "0x640"
    },
    {
      "status": "0x1",
      "cumulativeGasUsed": "0x19ab6",
      "logs": [
        {
          "address": "0x2f925d6512b2bbb00f5a36d8b18e01fcf35f7dc7",
          "topics": [
            "0x128b13f5a7f3d4a8f9ebafb4d8c23d5f6f5a287c83c1e81e79b1f80c1708a5fb",
            "0x0000000000000000000000000000000000000000000000000000000000000006"
          ],
          "data": "0x0000000000000000000000000000000000000000000000000000000000000008",
          "blockHash": "0xef453d5c5d075a9fe2da965189c5ded759dc473cec36db492ad3538430a3f94e",
          "blockNumber": "0xf03e93",
          "transactionHash": "0xdeb6e10ec8b39dc2f54f9e43b5d67e145c50117e0a5800a60c67f48d3ac35b20",
          "transactionIndex": "0x1",
          "logIndex": "0x0",
          "removed": false
        }
      ],
      "logsBloom": "0x00000000000000000000000000000000000000000000000000000000000000000000000000000000000000000000000000000000000400000000000000000000000000000000000000000000000000000000000000000000000000000000000000000000000000000000000000000000000000000000000009000000000000000000000400000000000000000000000000000000000000000000000000000000000000000000001000000000000000000000000000000000000000080000004000000000000000000000000000004000000000000000000000000000000000000000000000000000000000000000000000000000000000000000000000000000",
      "type": "0x2",
      "transactionHash": "0xdeb6e10ec8b39dc2f54f9e43b5d67e145c50117e0a5800a60c67f48d3ac35b20",
      "transactionIndex": "0x1",
      "blockHash": "0xef453d5c5d075a9fe2da965189c5ded759dc473cec36db492ad3538430a3f94e",
      "blockNumber": "0xf03e93",
      "gasUsed": "0xe66a",
      "effectiveGasPrice": "0xfd",
      "from": "0xc3ca11bd8e131471904dced927b3fb7edb453179",
      "to": "0x2f925d6512b2bbb00f5a36d8b18e01fcf35f7dc7",
      "contractAddress": null,
      "l1BaseFeeScalar": "0x2608",
      "l1BlobBaseFee": "0xc79f7b0",
      "l1BlobBaseFeeScalar": "0x177fef",
      "l1Fee": "0x7817a6d0f",
      "l1GasPrice": "0x240f",
      "l1GasUsed": "0x640"
    },
    {
      "status": "0x1",
      "cumulativeGasUsed": "0x1c66a",
      "logs": [
        {
          "address": "0x2f925d6512b2bbb00f5a36d8b18e01fcf35f7dc7",
          "topics": [
            "0x128b13f5a7f3d4a8f9ebafb4d8c23d5f6f5a287c83c1e81e79b1f80c1708a5fb",
            "0x0000000000000000000000000000000000000000000000000000000000000007"
          ],
          "data": "0x0000000000000000000000000000000000000000000000000000000000000004",
          "blockHash": "0x4b8b25b890eaf5eaa544e6d6e087bf2cb6340c88e0944d1a4ad74ec2f8e8b7a3",
          "blockNumber": "0xf03e96",
          "transactionHash": "0x079aa58e31e8aa8c5da2a9b812e10a4874c3db5595cf21a48020a863e42ce701",
          "transactionIndex": "0x1",
          "logIndex": "0x0",
          "removed": false
        }
      ],
      "logsBloom": "0x00000000000000000000000000000000000000000000000000000000000000000000000000000000000000000000000000001000000000000000000000000000000020000000000000000000000000000000000000000000000000000000000000000000000000000000000000000000000000000000000009000000000000000000000400000000000000000000000000000000000000000000000000000000000000000000001000000000000000000000000000000000000000000000004000000000000000000000000000004000000000000000000000000100000000000000000000000000000000000000000000000000000000000000000000000000",
      "type": "0x2",
      "transactionHash": "0x079aa58e31e8aa8c5da2a9b812e10a4874c3db5595cf21a48020a863e42ce701",
      "transactionIndex": "0x1",
      "blockHash": "0x4b8b25b890eaf5eaa544e6d6e087bf2cb6340c88e0944d1a4ad74ec2f8e8b7a3",
      "blockNumber": "0xf03e96",
      "gasUsed": "0xe66a",
      "effectiveGasPrice": "0xfd",
      "from": "0xc3ca11bd8e131471904dced927b3fb7edb453179",
      "to": "0x2f925d6512b2bbb00f5a36d8b18e01fcf35f7dc7",
      "contractAddress": null,
      "l1BaseFeeScalar": "0x2608",
      "l1BlobBaseFee": "0xd259e77",
      "l1BlobBaseFeeScalar": "0x177fef",
      "l1Fee": "0x7e8bdf6fb",
      "l1GasPrice": "0x21b0",
      "l1GasUsed": "0x640"
    },
    {
      "status": "0x1",
      "cumulativeGasUsed": "0x19ab6",
      "logs": [
        {
          "address": "0x2f925d6512b2bbb00f5a36d8b18e01fcf35f7dc7",
          "topics": [
            "0x128b13f5a7f3d4a8f9ebafb4d8c23d5f6f5a287c83c1e81e79b1f80c1708a5fb",
            "0x0000000000000000000000000000000000000000000000000000000000000008"
          ],
          "data": "0x000000000000000000000000000000000000000000000000000000000000000a",
          "blockHash": "0xd956c682b00a20192e6799ecdf0d243fa093893359b13bd5023a22ad506d2c3a",
          "blockNumber": "0xf03e99",
          "transactionHash": "0x5a2c5f6af083e9b1fc7e9d24368816716ff698e176b01a13017aef48e0666397",
          "transactionIndex": "0x1",
          "logIndex": "0x0",
          "removed": false
        }
      ],
      "logsBloom": "0x00000000000000000000000000000000000000000000000000000000000000000000000000000000000000000000000000000000000080000000000000000000000000000000000000000000000000000000000000000000000000000000000000000000000000000000000000000000000000000000000009000000000000000080000400000000000000000000000000000000000000000000000000000000000000000000001000000000000000000000000000000000000000000000004040000000000000000000000000004000000000000000000000000000000000000000000000000000000000000000000000000000000000000000000000000000",
      "type": "0x2",
      "transactionHash": "0x5a2c5f6af083e9b1fc7e9d24368816716ff698e176b01a13017aef48e0666397",
      "transactionIndex": "0x1",
      "blockHash": "0xd956c682b00a20192e6799ecdf0d243fa093893359b13bd5023a22ad506d2c3a",
      "blockNumber": "0xf03e99",
      "gasUsed": "0xe66a",
      "effectiveGasPrice": "0xfd",
      "from": "0xc3ca11bd8e131471904dced927b3fb7edb453179",
      "to": "0x2f925d6512b2bbb00f5a36d8b18e01fcf35f7dc7",
      "contractAddress": null,
      "l1BaseFeeScalar": "0x2608",
      "l1BlobBaseFee": "0xd259e77",
      "l1BlobBaseFeeScalar": "0x177fef",
      "l1Fee": "0x7e8bdf6fb",
      "l1GasPrice": "0x21b0",
      "l1GasUsed": "0x640"
    },
    {
      "status": "0x1",
      "cumulativeGasUsed": "0x21872",
      "logs": [
        {
          "address": "0x2f925d6512b2bbb00f5a36d8b18e01fcf35f7dc7",
          "topics": [
            "0x128b13f5a7f3d4a8f9ebafb4d8c23d5f6f5a287c83c1e81e79b1f80c1708a5fb",
            "0x0000000000000000000000000000000000000000000000000000000000000009"
          ],
          "data": "0x0000000000000000000000000000000000000000000000000000000000000008",
          "blockHash": "0x61f7c95a9b4b218516be670483433ff7aa8c7dc448e4a72cd04a1e154f6249eb",
          "blockNumber": "0xf03e9c",
          "transactionHash": "0x17fed56d61c139543b497758acaac81a26373fdcbbd5e83f708e92e8a5c2e224",
          "transactionIndex": "0x2",
          "logIndex": "0x0",
          "removed": false
        }
      ],
      "logsBloom": "0x00000000000000000000000000000000000000000000000000000000000000000000000000000000000000000000000000000000000000000000000000200000000000000000000000000000000000000000000000000000000000000000000000000000000000000000000000000000000000000000000009000000000000000000000400000000000000000000000000001000000000000000000000000000000000000000001000000000000000000000000000000000000000000000004000000000000000000000000000004000000000000000000000000000000000000000000000000000000000000000000000000000000000000000000000800000",
      "type": "0x2",
      "transactionHash": "0x17fed56d61c139543b497758acaac81a26373fdcbbd5e83f708e92e8a5c2e224",
      "transactionIndex": "0x2",
      "blockHash": "0x61f7c95a9b4b218516be670483433ff7aa8c7dc448e4a72cd04a1e154f6249eb",
      "blockNumber": "0xf03e9c",
      "gasUsed": "0xe66a",
      "effectiveGasPrice": "0xfd",
      "from": "0xc3ca11bd8e131471904dced927b3fb7edb453179",
      "to": "0x2f925d6512b2bbb00f5a36d8b18e01fcf35f7dc7",
      "contractAddress": null,
      "l1BaseFeeScalar": "0x2608",
      "l1BlobBaseFee": "0xdda7ed5",
      "l1BlobBaseFeeScalar": "0x177fef",
      "l1Fee": "0x8558e3bbf",
      "l1GasPrice": "0x1f88",
      "l1GasUsed": "0x640"
    },
    {
      "status": "0x1",
      "cumulativeGasUsed": "0x19ab6",
      "logs": [
        {
          "address": "0x2f925d6512b2bbb00f5a36d8b18e01fcf35f7dc7",
          "topics": [
            "0x128b13f5a7f3d4a8f9ebafb4d8c23d5f6f5a287c83c1e81e79b1f80c1708a5fb",
            "0x000000000000000000000000000000000000000000000000000000000000000a"
          ],
          "data": "0x0000000000000000000000000000000000000000000000000000000000000008",
          "blockHash": "0xe7576c4df0e3bbdef9a831f1b0832d1618e02b7d36e117347b1ac9a617c9d1a2",
          "blockNumber": "0xf03e9f",
          "transactionHash": "0x2406d74ef21d1ee1f9d6ab6ff8f964a972bca4fdeef6244545805caf69f47136",
          "transactionIndex": "0x1",
          "logIndex": "0x0",
          "removed": false
        }
      ],
      "logsBloom": "0x00000000000000000000000000000000000000000000000000000000000000000000000000000000000000000000000000000000040000000020000000000000000000000000000000000000000000000000000000000000000000000000000000000000000000000000000000000000000000000000000009000000000000000000000400000000010000000000000000000000000000000000000000000000000000000000001000000000000000000000000000000000000000000000004000000000000000000000000000004000000000000000000000000000000000000000000000000000000000000000000000000000000000000000000000000000",
      "type": "0x2",
      "transactionHash": "0x2406d74ef21d1ee1f9d6ab6ff8f964a972bca4fdeef6244545805caf69f47136",
      "transactionIndex": "0x1",
      "blockHash": "0xe7576c4df0e3bbdef9a831f1b0832d1618e02b7d36e117347b1ac9a617c9d1a2",
      "blockNumber": "0xf03e9f",
      "gasUsed": "0xe66a",
      "effectiveGasPrice": "0xfd",
      "from": "0xc3ca11bd8e131471904dced927b3fb7edb453179",
      "to": "0x2f925d6512b2bbb00f5a36d8b18e01fcf35f7dc7",
      "contractAddress": null,
      "l1BaseFeeScalar": "0x2608",
      "l1BlobBaseFee": "0xdda7ed5",
      "l1BlobBaseFeeScalar": "0x177fef",
      "l1Fee": "0x8558e3bbf",
      "l1GasPrice": "0x1f88",
      "l1GasUsed": "0x640"
    },
    {
      "status": "0x1",
      "cumulativeGasUsed": "0x1bb6e",
      "logs": [
        {
          "address": "0x2f925d6512b2bbb00f5a36d8b18e01fcf35f7dc7",
          "topics": [
            "0x128b13f5a7f3d4a8f9ebafb4d8c23d5f6f5a287c83c1e81e79b1f80c1708a5fb",
            "0x000000000000000000000000000000000000000000000000000000000000000b"
          ],
          "data": "0x0000000000000000000000000000000000000000000000000000000000000008",
          "blockHash": "0xa65c0dd5aa590ae7ff7e7a0266473d473bf69da8ccdddd457da42920dc50129c",
          "blockNumber": "0xf03ea2",
          "transactionHash": "0x2c940cf950acbc9c1147bc17fc0168146a9afe2495a638fa075b7d175455ecfe",
          "transactionIndex": "0x1",
          "logIndex": "0x0",
          "removed": false
        }
      ],
      "logsBloom": "0x00000000000000000000004000000000000000000000000000000000000000000000000000000000000000000000000000000000000000000000000000000000000000000000000000000000000000000000000000000000000000000000000000000000000000000000000000000000000000000000000009000000000000000000000400000000000000000000000000000000000000000000000000000000000000000000001000000000000000000000000000000000000000000000004000000000000000000000000000004000002000000000000000000000000000000000000000000000000000000000000000000000000000040000000000000000",
      "type": "0x2",
      "transactionHash": "0x2c940cf950acbc9c1147bc17fc0168146a9afe2495a638fa075b7d175455ecfe",
      "transactionIndex": "0x1",
      "blockHash": "0xa65c0dd5aa590ae7ff7e7a0266473d473bf69da8ccdddd457da42920dc50129c",
      "blockNumber": "0xf03ea2",
      "gasUsed": "0xe66a",
      "effectiveGasPrice": "0xfd",
      "from": "0xc3ca11bd8e131471904dced927b3fb7edb453179",
      "to": "0x2f925d6512b2bbb00f5a36d8b18e01fcf35f7dc7",
      "contractAddress": null,
      "l1BaseFeeScalar": "0x2608",
      "l1BlobBaseFee": "0xdda7ed5",
      "l1BlobBaseFeeScalar": "0x177fef",
      "l1Fee": "0x8558e2211",
      "l1GasPrice": "0x1de2",
      "l1GasUsed": "0x640"
    },
    {
      "status": "0x1",
      "cumulativeGasUsed": "0x1ecb2",
      "logs": [
        {
          "address": "0x2f925d6512b2bbb00f5a36d8b18e01fcf35f7dc7",
          "topics": [
            "0x128b13f5a7f3d4a8f9ebafb4d8c23d5f6f5a287c83c1e81e79b1f80c1708a5fb",
            "0x000000000000000000000000000000000000000000000000000000000000000c"
          ],
          "data": "0x0000000000000000000000000000000000000000000000000000000000000014",
          "blockHash": "0x71776ccb50ca2a7f8794f590aae4d2fa2d442dc92a5ea2b8c62451de43536693",
          "blockNumber": "0xf03ea4",
          "transactionHash": "0x653ceb584f002c7caf8bb97575ddd1fce22a17a2627e0d93cf0cfeb18e65db94",
          "transactionIndex": "0x2",
          "logIndex": "0x0",
          "removed": false
        }
      ],
      "logsBloom": "0x00000000000000000000000000000000000002000000000000000000000000000000000000000200000000000000000000000000000000000000000000000000000000000000000000000000000000000000000000000000000000000000000000000000000000000000000000000000000000000000000009000000000000000000000400000000000000000000000000000000000000000000000000000000000000000000001000000000000000000000000000000000000000000000004000000000000000000000000000004000000000000000000000000000000000200000000000000000000000000000000000000000000000000000000000000000",
      "type": "0x2",
      "transactionHash": "0x653ceb584f002c7caf8bb97575ddd1fce22a17a2627e0d93cf0cfeb18e65db94",
      "transactionIndex": "0x2",
      "blockHash": "0x71776ccb50ca2a7f8794f590aae4d2fa2d442dc92a5ea2b8c62451de43536693",
      "blockNumber": "0xf03ea4",
      "gasUsed": "0xe66a",
      "effectiveGasPrice": "0xfd",
      "from": "0xc3ca11bd8e131471904dced927b3fb7edb453179",
      "to": "0x2f925d6512b2bbb00f5a36d8b18e01fcf35f7dc7",
      "contractAddress": null,
      "l1BaseFeeScalar": "0x2608",
      "l1BlobBaseFee": "0xdda7ed5",
      "l1BlobBaseFeeScalar": "0x177fef",
      "l1Fee": "0x8558e2211",
      "l1GasPrice": "0x1de2",
      "l1GasUsed": "0x640"
    },
    {
      "status": "0x1",
      "cumulativeGasUsed": "0x1ecb2",
      "logs": [
        {
          "address": "0x2f925d6512b2bbb00f5a36d8b18e01fcf35f7dc7",
          "topics": [
            "0x128b13f5a7f3d4a8f9ebafb4d8c23d5f6f5a287c83c1e81e79b1f80c1708a5fb",
            "0x000000000000000000000000000000000000000000000000000000000000000d"
          ],
          "data": "0x0000000000000000000000000000000000000000000000000000000000000008",
          "blockHash": "0x60dadb2c14fc6ea9ae9f16d968a20c00c8835ef7e09deb0f8c69c4cf4b5a4ba3",
          "blockNumber": "0xf03ea6",
          "transactionHash": "0x2be61591d9fbee7b2025b9ac3d641dac04f88dc0b47dee1e73c2d0b61ea9284f",
          "transactionIndex": "0x2",
          "logIndex": "0x0",
          "removed": false
        }
      ],
      "logsBloom": "0x00000000000000000040000000000000000000000000000000000000000000000000000000000000000000000000000000000000000000000000000000000000000000000000000000000000000000000002000000000000000000000000000000000000000000000000000000000000000000000000000009000000000000000000000400000000000000000000000000000000000000000000000000000000000000000000001000000000000000000000000000000000000000000000004000000000000000000000000000004000000000000000000000000000000000020000000000000000000000000000000000000000000000000000000000000000",
      "type": "0x2",
      "transactionHash": "0x2be61591d9fbee7b2025b9ac3d641dac04f88dc0b47dee1e73c2d0b61ea9284f",
      "transactionIndex": "0x2",
      "blockHash": "0x60dadb2c14fc6ea9ae9f16d968a20c00c8835ef7e09deb0f8c69c4cf4b5a4ba3",
      "blockNumber": "0xf03ea6",
      "gasUsed": "0xe66a",
      "effectiveGasPrice": "0xfd",
      "from": "0xc3ca11bd8e131471904dced927b3fb7edb453179",
      "to": "0x2f925d6512b2bbb00f5a36d8b18e01fcf35f7dc7",
      "contractAddress": null,
      "l1BaseFeeScalar": "0x2608",
      "l1BlobBaseFee": "0xdda7ed5",
      "l1BlobBaseFeeScalar": "0x177fef",
      "l1Fee": "0x8558e2211",
      "l1GasPrice": "0x1de2",
      "l1GasUsed": "0x640"
    },
    {
      "status": "0x1",
      "cumulativeGasUsed": "0x1bb7a",
      "logs": [
        {
          "address": "0x2f925d6512b2bbb00f5a36d8b18e01fcf35f7dc7",
          "topics": [
            "0x128b13f5a7f3d4a8f9ebafb4d8c23d5f6f5a287c83c1e81e79b1f80c1708a5fb",
            "0x000000000000000000000000000000000000000000000000000000000000000e"
          ],
          "data": "0x0000000000000000000000000000000000000000000000000000000000000004",
          "blockHash": "0x99460a2af81bd2f25845aba763512949c5b41cd86274105d6acae61dad85630a",
          "blockNumber": "0xf03ea8",
          "transactionHash": "0xa7347c1fe08e1900ec1d3203d8706d789e21ae3b27dc5c2b77c14a790287a14a",
          "transactionIndex": "0x1",
          "logIndex": "0x0",
          "removed": false
        }
      ],
      "logsBloom": "0x00000000000000000000000000000000000000000000000000000000000000000000000000000000000000000000000000000000000000000000000000000000000000000000000800000000000000000000000000000000000000000000000000000000000000000000000000000000000000000000000009000000000000000000000400000000000000000000000008000000000000000000000000000000000000000000001000000000000000000000000000000020000000000000004000000000000000000000000000004000000000000000000000000000000000000000000000000000000000000000000000000000000000000000000000000000",
      "type": "0x2",
      "transactionHash": "0xa7347c1fe08e1900ec1d3203d8706d789e21ae3b27dc5c2b77c14a790287a14a",
      "transactionIndex": "0x1",
      "blockHash": "0x99460a2af81bd2f25845aba763512949c5b41cd86274105d6acae61dad85630a",
      "blockNumber": "0xf03ea8",
      "gasUsed": "0xe66a",
      "effectiveGasPrice": "0xfd",
      "from": "0xc3ca11bd8e131471904dced927b3fb7edb453179",
      "to": "0x2f925d6512b2bbb00f5a36d8b18e01fcf35f7dc7",
      "contractAddress": null,
      "l1BaseFeeScalar": "0x2608",
      "l1BlobBaseFee": "0xdda7ed5",
      "l1BlobBaseFeeScalar": "0x177fef",
      "l1Fee": "0x8558e53b8",
      "l1GasPrice": "0x2112",
      "l1GasUsed": "0x640"
    },
    {
      "status": "0x1",
      "cumulativeGasUsed": "0x19ab6",
      "logs": [
        {
          "address": "0x2f925d6512b2bbb00f5a36d8b18e01fcf35f7dc7",
          "topics": [
            "0x128b13f5a7f3d4a8f9ebafb4d8c23d5f6f5a287c83c1e81e79b1f80c1708a5fb",
            "0x000000000000000000000000000000000000000000000000000000000000000f"
          ],
          "data": "0x0000000000000000000000000000000000000000000000000000000000000004",
          "blockHash": "0x4677a1d5c75f605e217197563a7244b077a448d6a41af635a95f6051778b1299",
          "blockNumber": "0xf03eaa",
          "transactionHash": "0x75385577b9e84df5aff81fc8cdcd104c228c2563666387fc87f0650a1b456172",
          "transactionIndex": "0x1",
          "logIndex": "0x0",
          "removed": false
        }
      ],
      "logsBloom": "0x00000000000000000000000000000000000000000000000000000000000000000000000000000000000000000000000000000000000000000000000000000000000000000000000000000000000000000000000000000000000000000002000000000000000000000000000000000000000000000000000009000000000000000000000400000800000000000000000000000000000000000000000000000000000000000000001000000000000000000000000000000000000000000000004000000000000000000000000000004000000000000000000000000000000000000000000200000000000000000000000000000000000000000000000000000000",
      "type": "0x2",
      "transactionHash": "0x75385577b9e84df5aff81fc8cdcd104c228c2563666387fc87f0650a1b456172",
      "transactionIndex": "0x1",
      "blockHash": "0x4677a1d5c75f605e217197563a7244b077a448d6a41af635a95f6051778b1299",
      "blockNumber": "0xf03eaa",
      "gasUsed": "0xe66a",
      "effectiveGasPrice": "0xfd",
      "from": "0xc3ca11bd8e131471904dced927b3fb7edb453179",
      "to": "0x2f925d6512b2bbb00f5a36d8b18e01fcf35f7dc7",
      "contractAddress": null,
      "l1BaseFeeScalar": "0x2608",
      "l1BlobBaseFee": "0xdda7ed5",
      "l1BlobBaseFeeScalar": "0x177fef",
      "l1Fee": "0x8558e53b8",
      "l1GasPrice": "0x2112",
      "l1GasUsed": "0x640"
    },
    {
      "status": "0x1",
      "cumulativeGasUsed": "0x19ab6",
      "logs": [
        {
          "address": "0x2f925d6512b2bbb00f5a36d8b18e01fcf35f7dc7",
          "topics": [
            "0x128b13f5a7f3d4a8f9ebafb4d8c23d5f6f5a287c83c1e81e79b1f80c1708a5fb",
            "0x0000000000000000000000000000000000000000000000000000000000000010"
          ],
          "data": "0x0000000000000000000000000000000000000000000000000000000000000004",
          "blockHash": "0x9a9e84a9bc131ef472b9f699fd226c75fb6987307057219c550cac302da0fd85",
          "blockNumber": "0xf03eac",
          "transactionHash": "0x169e23c4a8bf8268c4cef868474545b4ffe6ffe24d04f500693107ed745cb0c8",
          "transactionIndex": "0x1",
          "logIndex": "0x0",
          "removed": false
        }
      ],
      "logsBloom": "0x00000000100000000000000000000000000000000000000000000000000000000000000000000000000000000000000000000000000000000000000000000000000000000000000000000000000000000000000000000000000000000000000000000000000000000000000000000000000000000000000009000000040000000000000400000000000000000000000000000100000000000000000000000000000000000000001000000000000000000000000000000000000000000000004000000000000000000000000000004000000000000000000000000000000000000000000000000000000000000000000000000000000000000000000000000000",
      "type": "0x2",
      "transactionHash": "0x169e23c4a8bf8268c4cef868474545b4ffe6ffe24d04f500693107ed745cb0c8",
      "transactionIndex": "0x1",
      "blockHash": "0x9a9e84a9bc131ef472b9f699fd226c75fb6987307057219c550cac302da0fd85",
      "blockNumber": "0xf03eac",
      "gasUsed": "0xe66a",
      "effectiveGasPrice": "0xfd",
      "from": "0xc3ca11bd8e131471904dced927b3fb7edb453179",
      "to": "0x2f925d6512b2bbb00f5a36d8b18e01fcf35f7dc7",
      "contractAddress": null,
      "l1BaseFeeScalar": "0x2608",
      "l1BlobBaseFee": "0xdda7ed5",
      "l1BlobBaseFeeScalar": "0x177fef",
      "l1Fee": "0x8558e53b8",
      "l1GasPrice": "0x2112",
      "l1GasUsed": "0x640"
    },
    {
      "status": "0x1",
      "cumulativeGasUsed": "0x1c66a",
      "logs": [
        {
          "address": "0x2f925d6512b2bbb00f5a36d8b18e01fcf35f7dc7",
          "topics": [
            "0x128b13f5a7f3d4a8f9ebafb4d8c23d5f6f5a287c83c1e81e79b1f80c1708a5fb",
            "0x0000000000000000000000000000000000000000000000000000000000000011"
          ],
          "data": "0x0000000000000000000000000000000000000000000000000000000000000004",
          "blockHash": "0xd4bed85d7d76e9c2c2eaa0f5c239c827f5a6e7e7bcf0b7e3a0f7d4674fff2470",
          "blockNumber": "0xf03eae",
          "transactionHash": "0x6b1b605dd9c5b4158539d0752a4ed4f9884af86ee488a874b5340a995e9a32a0",
          "transactionIndex": "0x1",
          "logIndex": "0x0",
          "removed": false
        }
      ],
      "logsBloom": "0x00000000000000000000000000000000000000000000000000000000000000000000000000000000000000000000000000000000000000000000000000000000000000000000000000000000000000000000000000000000000000000000000000000000000000000000000000000000000000004000000009000000000000000000000400000000000000000000000000000000000000000000000000000000000000000000001000000000000000000000000000000000000000000400004000001000000000000000000000004000000000000000000000000000000000000000000000000000000000000000000000000000000000000000000000000000",
      "type": "0x2",
      "transactionHash": "0x6b1b605dd9c5b4158539d0752a4ed4f9884af86ee488a874b5340a995e9a32a0",
      "transactionIndex": "0x1",
      "blockHash": "0xd4bed85d7d76e9c2c2eaa0f5c239c827f5a6e7e7bcf0b7e3a0f7d4674fff2470",
      "blockNumber": "0xf03eae",
      "gasUsed": "0xe66a",
      "effectiveGasPrice": "0xfd",
      "from": "0xc3ca11bd8e131471904dced927b3fb7edb453179",
      "to": "0x2f925d6512b2bbb00f5a36d8b18e01fcf35f7dc7",
      "contractAddress": null,
      "l1BaseFeeScalar": "0x2608",
      "l1BlobBaseFee": "0xe9917b6",
      "l1BlobBaseFeeScalar": "0x177fef",
      "l1Fee": "0x8c837ab9d",
      "l1GasPrice": "0x1ef5",
      "l1GasUsed": "0x640"
    },
    {
      "status": "0x1",
      "cumulativeGasUsed": "0x19ab6",
      "logs": [
        {
          "address": "0x2f925d6512b2bbb00f5a36d8b18e01fcf35f7dc7",
          "topics": [
            "0x128b13f5a7f3d4a8f9ebafb4d8c23d5f6f5a287c83c1e81e79b1f80c1708a5fb",
            "0x0000000000000000000000000000000000000000000000000000000000000012"
          ],
          "data": "0x0000000000000000000000000000000000000000000000000000000000000002",
          "blockHash": "0x496fb6df8eab8ec1445d55899372cc03a1b5807afc78617f10a7b23cf3473230",
          "blockNumber": "0xf03eb0",
          "transactionHash": "0xa780b39ee46c0fa7b0618f8279e23f287a7b4d81391c74d44e56fbd6d16c3abb",
          "transactionIndex": "0x1",
          "logIndex": "0x0",
          "removed": false
        }
      ],
      "logsBloom": "0x00000000000000000000000000000000000000000000000000000000000000000000000000000000000000000000000000000000000000000000000000000000000000000000000000000000000000000000000000000000000000000000000000000000000000000000000000000000000000000000000009000000000000000000000400000000000000000000040000000000000000000000000000000000000000000000001000000000000000000000000000000040000000000000004000000000000000000400000000004000000000000000000000000000000000000000000000000000000000000000000000000000000000000000000000000000",
      "type": "0x2",
      "transactionHash": "0xa780b39ee46c0fa7b0618f8279e23f287a7b4d81391c74d44e56fbd6d16c3abb",
      "transactionIndex": "0x1",
      "blockHash": "0x496fb6df8eab8ec1445d55899372cc03a1b5807afc78617f10a7b23cf3473230",
      "blockNumber": "0xf03eb0",
      "gasUsed": "0xe66a",
      "effectiveGasPrice": "0xfd",
      "from": "0xc3ca11bd8e131471904dced927b3fb7edb453179",
      "to": "0x2f925d6512b2bbb00f5a36d8b18e01fcf35f7dc7",
      "contractAddress": null,
      "l1BaseFeeScalar": "0x2608",
      "l1BlobBaseFee": "0xe9917b6",
      "l1BlobBaseFeeScalar": "0x177fef",
      "l1Fee": "0x8c837ab9d",
      "l1GasPrice": "0x1ef5",
      "l1GasUsed": "0x640"
    },
    {
      "status": "0x1",
      "cumulativeGasUsed": "0x19ab6",
      "logs": [
        {
          "address": "0x2f925d6512b2bbb00f5a36d8b18e01fcf35f7dc7",
          "topics": [
            "0x128b13f5a7f3d4a8f9ebafb4d8c23d5f6f5a287c83c1e81e79b1f80c1708a5fb",
            "0x0000000000000000000000000000000000000000000000000000000000000013"
          ],
          "data": "0x0000000000000000000000000000000000000000000000000000000000000014",
          "blockHash": "0x534f5430f32064e66625a19e5ec886bbcf21375f820291cccddd187483e394c9",
          "blockNumber": "0xf03eb2",
          "transactionHash": "0xa59f86e56873dbd488ace561158f2ee63783d4641e5df036ae35ce73c6e1389e",
          "transactionIndex": "0x1",
          "logIndex": "0x0",
          "removed": false
        }
      ],
      "logsBloom": "0x20000000000000000000000000800000000000000000000000000000000000000000000040000000000000000000000000000000000000000000000000000000000000000000000000000000000000000000000000000000000000000000000000000000000000000000000000000000000000000000000009000000000000000000000400000000000000000000000000000000000000000000000000000000000000000000001000000000000000000000000000000000000000000000004000000000000000000000000000004000000000000000000000000000000000000000000000000000000000000000000000000000000000000000000000000000",
      "type": "0x2",
      "transactionHash": "0xa59f86e56873dbd488ace561158f2ee63783d4641e5df036ae35ce73c6e1389e",
      "transactionIndex": "0x1",
      "blockHash": "0x534f5430f32064e66625a19e5ec886bbcf21375f820291cccddd187483e394c9",
      "blockNumber": "0xf03eb2",
      "gasUsed": "0xe66a",
      "effectiveGasPrice": "0xfd",
      "from": "0xc3ca11bd8e131471904dced927b3fb7edb453179",
      "to": "0x2f925d6512b2bbb00f5a36d8b18e01fcf35f7dc7",
      "contractAddress": null,
      "l1BaseFeeScalar": "0x2608",
      "l1BlobBaseFee": "0xe9917b6",
      "l1BlobBaseFeeScalar": "0x177fef",
      "l1Fee": "0x8c837ab9d",
      "l1GasPrice": "0x1ef5",
      "l1GasUsed": "0x640"
    },
    {
      "status": "0x1",
      "cumulativeGasUsed": "0x1c65e",
      "logs": [
        {
          "address": "0x2f925d6512b2bbb00f5a36d8b18e01fcf35f7dc7",
          "topics": [
            "0x128b13f5a7f3d4a8f9ebafb4d8c23d5f6f5a287c83c1e81e79b1f80c1708a5fb",
            "0x0000000000000000000000000000000000000000000000000000000000000014"
          ],
          "data": "0x0000000000000000000000000000000000000000000000000000000000000002",
          "blockHash": "0x028725538aef8cdf0b22789353cc509761c492384c6c0cf5a6aefa2cc3c58ad1",
          "blockNumber": "0xf03eb4",
          "transactionHash": "0x7b98edde129078d223d5901afb7504eb14bb9e93501e9def7bf86aedbf558a8c",
          "transactionIndex": "0x1",
          "logIndex": "0x0",
          "removed": false
        }
      ],
      "logsBloom": "0x00000000000000000000000000000000000000000000000000000000000000000000000000000000000000000000000000002000000000000000000000000000000000000000000000000000000000000000000000000000000000000000000000000000000000000000000000000000000000000000000009000000000000000000000400000000000000000000000000000000000400000000000000000000000000000000001020000000000000000000000000000000000000000000004000000000000000000000000000004000000000000000000000000000000000000000000000000000000000000000000000000000000000000000000000000000",
      "type": "0x2",
      "transactionHash": "0x7b98edde129078d223d5901afb7504eb14bb9e93501e9def7bf86aedbf558a8c",
      "transactionIndex": "0x1",
      "blockHash": "0x028725538aef8cdf0b22789353cc509761c492384c6c0cf5a6aefa2cc3c58ad1",
      "blockNumber": "0xf03eb4",
      "gasUsed": "0xe66a",
      "effectiveGasPrice": "0xfd",
      "from": "0xc3ca11bd8e131471904dced927b3fb7edb453179",
      "to": "0x2f925d6512b2bbb00f5a36d8b18e01fcf35f7dc7",
      "contractAddress": null,
      "l1BaseFeeScalar": "0x2608",
      "l1BlobBaseFee": "0xfca5d7c",
      "l1BlobBaseFeeScalar": "0x177fef",
      "l1Fee": "0x97fdde871",
      "l1GasPrice": "0x1c8a",
      "l1GasUsed": "0x640"
    },
    {
      "status": "0x1",
      "cumulativeGasUsed": "0x19aaa",
      "logs": [
        {
          "address": "0x2f925d6512b2bbb00f5a36d8b18e01fcf35f7dc7",
          "topics": [
            "0x128b13f5a7f3d4a8f9ebafb4d8c23d5f6f5a287c83c1e81e79b1f80c1708a5fb",
            "0x0000000000000000000000000000000000000000000000000000000000000015"
          ],
          "data": "0x0000000000000000000000000000000000000000000000000000000000000001",
          "blockHash": "0xf13a12a1a5ad1ff24a33260aaa93ac2a0b2e787b5f2e485368e01961c5239ad3",
          "blockNumber": "0xf03eb6",
          "transactionHash": "0xd0103f5b8fcfaaf697d83321581da803522528adc956d4e2c4b997b1a026dae0",
          "transactionIndex": "0x1",
          "logIndex": "0x0",
          "removed": false
        }
      ],
      "logsBloom": "0x00000000000000000000000000000000000000000000000000000000000000000000000000000000000000000000000000000000000000000000000000000000001000000000000000000000000000000000000000000000000000000000000000000000000000000000000000000000000000000000000009000000000000000000000400000000000000000000000000000000000000000000000000000000000000000000001000000000010000000000000000000000000000000000004000000000000000000000000000004000000000000000000000000000000000002000000000000000000000000000000000000000000000000000000000000000",
      "type": "0x2",
      "transactionHash": "0xd0103f5b8fcfaaf697d83321581da803522528adc956d4e2c4b997b1a026dae0",
      "transactionIndex": "0x1",
      "blockHash": "0xf13a12a1a5ad1ff24a33260aaa93ac2a0b2e787b5f2e485368e01961c5239ad3",
      "blockNumber": "0xf03eb6",
      "gasUsed": "0xe66a",
      "effectiveGasPrice": "0xfd",
      "from": "0xc3ca11bd8e131471904dced927b3fb7edb453179",
      "to": "0x2f925d6512b2bbb00f5a36d8b18e01fcf35f7dc7",
      "contractAddress": null,
      "l1BaseFeeScalar": "0x2608",
      "l1BlobBaseFee": "0xfca5d7c",
      "l1BlobBaseFeeScalar": "0x177fef",
      "l1Fee": "0x97fdde871",
      "l1GasPrice": "0x1c8a",
      "l1GasUsed": "0x640"
    },
    {
      "status": "0x1",
      "cumulativeGasUsed": "0x19aaa",
      "logs": [
        {
          "address": "0x2f925d6512b2bbb00f5a36d8b18e01fcf35f7dc7",
          "topics": [
            "0x128b13f5a7f3d4a8f9ebafb4d8c23d5f6f5a287c83c1e81e79b1f80c1708a5fb",
            "0x0000000000000000000000000000000000000000000000000000000000000016"
          ],
          "data": "0x0000000000000000000000000000000000000000000000000000000000000001",
          "blockHash": "0x57d8bffc22462ab70a83708b909f58d2a3b4a1c4dd7e1a64d040e091359eb40f",
          "blockNumber": "0xf03eb8",
          "transactionHash": "0x5642fafa1520534019b0c110b587d3aafc4fc24d65fbfde8d4af3c7d55ab099d",
          "transactionIndex": "0x1",
          "logIndex": "0x0",
          "removed": false
        }
      ],
      "logsBloom": "0x00000000000000000000000000000000000000000000000000000000000000000000000000000000000000000000000000000000000000000000000000000000000000000000000800000000000000000000000000000000000000000000000000000000000000000000000000000000200000000000000009000000000000000000000400000000000000000000000000000000000000000000000000000000000000000000001000000000000000000000000000000000000000000000004000000000000000000000000000004000000000000000000000000000000000000000000000000000000000000000000000000000000000000008000000000000",
      "type": "0x2",
      "transactionHash": "0x5642fafa1520534019b0c110b587d3aafc4fc24d65fbfde8d4af3c7d55ab099d",
      "transactionIndex": "0x1",
      "blockHash": "0x57d8bffc22462ab70a83708b909f58d2a3b4a1c4dd7e1a64d040e091359eb40f",
      "blockNumber": "0xf03eb8",
      "gasUsed": "0xe66a",
      "effectiveGasPrice": "0xfd",
      "from": "0xc3ca11bd8e131471904dced927b3fb7edb453179",
      "to": "0x2f925d6512b2bbb00f5a36d8b18e01fcf35f7dc7",
      "contractAddress": null,
      "l1BaseFeeScalar": "0x2608",
      "l1BlobBaseFee": "0xfca5d7c",
      "l1BlobBaseFeeScalar": "0x177fef",
      "l1Fee": "0x97fdde871",
      "l1GasPrice": "0x1c8a",
      "l1GasUsed": "0x640"
    },
    {
      "status": "0x1",
      "cumulativeGasUsed": "0x1ecbe",
      "logs": [
        {
          "address": "0x2f925d6512b2bbb00f5a36d8b18e01fcf35f7dc7",
          "topics": [
            "0x128b13f5a7f3d4a8f9ebafb4d8c23d5f6f5a287c83c1e81e79b1f80c1708a5fb",
            "0x0000000000000000000000000000000000000000000000000000000000000017"
          ],
          "data": "0x0000000000000000000000000000000000000000000000000000000000000005",
          "blockHash": "0x7462ccab1f24eee24de1cce7afe6bc0ce0fd9f28a8a3f004577bae6b52da653f",
          "blockNumber": "0xf03ebb",
          "transactionHash": "0xb84fc8bc2b77fd379e3fba31a0b39b3eb119509b7103d00fa7009e040a8a7bf3",
          "transactionIndex": "0x2",
          "logIndex": "0x0",
          "removed": false
        }
      ],
      "logsBloom": "0x00000000000000000000000000000000000000000000000000000000000000000000000000000000000000000000000000001000000000000000001000000000000000000000000000000000000000000000000000000000000000000000000000000000000000000000000000000000000000000000000009000000000000000000000400000000000000000000000000000000000000000000000000000000000000000000001000000000000000000000000000000000000000000000004000000000000000000000000000004000000000000000000000000000000000000000000000000000000000000000000000000000000000000000000000080000",
      "type": "0x2",
      "transactionHash": "0xb84fc8bc2b77fd379e3fba31a0b39b3eb119509b7103d00fa7009e040a8a7bf3",
      "transactionIndex": "0x2",
      "blockHash": "0x7462ccab1f24eee24de1cce7afe6bc0ce0fd9f28a8a3f004577bae6b52da653f",
      "blockNumber": "0xf03ebb",
      "gasUsed": "0xe66a",
      "effectiveGasPrice": "0xfd",
      "from": "0xc3ca11bd8e131471904dced927b3fb7edb453179",
      "to": "0x2f925d6512b2bbb00f5a36d8b18e01fcf35f7dc7",
      "contractAddress": null,
      "l1BaseFeeScalar": "0x2608",
      "l1BlobBaseFee": "0x11149317",
      "l1BlobBaseFeeScalar": "0x177fef",
      "l1Fee": "0xa4684a054",
      "l1GasPrice": "0x1a48",
      "l1GasUsed": "0x640"
    },
    {
      "status": "0x1",
      "cumulativeGasUsed": "0x19ab6",
      "logs": [
        {
          "address": "0x2f925d6512b2bbb00f5a36d8b18e01fcf35f7dc7",
          "topics": [
            "0x128b13f5a7f3d4a8f9ebafb4d8c23d5f6f5a287c83c1e81e79b1f80c1708a5fb",
            "0x0000000000000000000000000000000000000000000000000000000000000018"
          ],
          "data": "0x0000000000000000000000000000000000000000000000000000000000000005",
          "blockHash": "0x055a7fd2be55ac4385cfb6be3d19914d93ca6d1041354a67d5cadff5894e22cf",
          "blockNumber": "0xf03ebe",
          "transactionHash": "0x8e3f2c57b8f1c2a189f99a1f45d59ca04761bd8e027542432d84b282edbdfeeb",
          "transactionIndex": "0x1",
          "logIndex": "0x0",
          "removed": false
        }
      ],
      "logsBloom": "0x00000000000000000000000000000000000000000000000000000000000000000000000000000000000000000000000000000000000000000000000000000000000000000000000000000000000000000040000000000000000000000000000000000000000000000000000000000000000000000000000009000000000000000000000400000000000000000000000000000000000000000000000000000000000000000000001000000000000000000000000000000000000000000000004000100000000000000000000000004000000000000000000020000000000000000000000000000000000000000000000000000000000000000000000000000000",
      "type": "0x2",
      "transactionHash": "0x8e3f2c57b8f1c2a189f99a1f45d59ca04761bd8e027542432d84b282edbdfeeb",
      "transactionIndex": "0x1",
      "blockHash": "0x055a7fd2be55ac4385cfb6be3d19914d93ca6d1041354a67d5cadff5894e22cf",
      "blockNumber": "0xf03ebe",
      "gasUsed": "0xe66a",
      "effectiveGasPrice": "0xfd",
      "from": "0xc3ca11bd8e131471904dced927b3fb7edb453179",
      "to": "0x2f925d6512b2bbb00f5a36d8b18e01fcf35f7dc7",
      "contractAddress": null,
      "l1BaseFeeScalar": "0x2608",
      "l1BlobBaseFee": "0x11149317",
      "l1BlobBaseFeeScalar": "0x177fef",
      "l1Fee": "0xa4684a054",
      "l1GasPrice": "0x1a48",
      "l1GasUsed": "0x640"
    },
    {
      "status": "0x1",
      "cumulativeGasUsed": "0x1ecbe",
      "logs": [
        {
          "address": "0x2f925d6512b2bbb00f5a36d8b18e01fcf35f7dc7",
          "topics": [
            "0x128b13f5a7f3d4a8f9ebafb4d8c23d5f6f5a287c83c1e81e79b1f80c1708a5fb",
            "0x0000000000000000000000000000000000000000000000000000000000000019"
          ],
          "data": "0x0000000000000000000000000000000000000000000000000000000000000005",
          "blockHash": "0xf7c8ef81be8373f8ded730b360e36318c98fc36229cee15fe06db001b9049b37",
          "blockNumber": "0xf03ec1",
          "transactionHash": "0xc14ef04f7982c8dcb687d78ce605ce178ccd23011dcd796d07484456640f1a0f",
          "transactionIndex": "0x2",
          "logIndex": "0x0",
          "removed": false
        }
      ],
      "logsBloom": "0x00000000000000000000000000000000000000000000000000000000000000000000000000000000000000000000000000000000000000800000000000000000000000000000000000000000000000000000000000000000000000000000000000000000000000000000000000000000000000000000020009000000000000000000000400000000000000000000000000000000000000000000000000000000000000000000001000000000000000000000000000000000000000000000004000000000000000000000000000004000000000000000000000000000000000000000000000000000000000000000000000000000000000000000008000000000",
      "type": "0x2",
      "transactionHash": "0xc14ef04f7982c8dcb687d78ce605ce178ccd23011dcd796d07484456640f1a0f",
      "transactionIndex": "0x2",
      "blockHash": "0xf7c8ef81be8373f8ded730b360e36318c98fc36229cee15fe06db001b9049b37",
      "blockNumber": "0xf03ec1",
      "gasUsed": "0xe66a",
      "effectiveGasPrice": "0xfd",
      "from": "0xc3ca11bd8e131471904dced927b3fb7edb453179",
      "to": "0x2f925d6512b2bbb00f5a36d8b18e01fcf35f7dc7",
      "contractAddress": null,
      "l1BaseFeeScalar": "0x2608",
      "l1BlobBaseFee": "0x1279c203",
      "l1BlobBaseFeeScalar": "0x177fef",
      "l1Fee": "0xb1d65d9d1",
      "l1GasPrice": "0x1d2e",
      "l1GasUsed": "0x640"
    },
    {
      "status": "0x1",
      "cumulativeGasUsed": "0xcb774",
      "logs": [
        {
          "address": "0x2f925d6512b2bbb00f5a36d8b18e01fcf35f7dc7",
          "topics": [
            "0x128b13f5a7f3d4a8f9ebafb4d8c23d5f6f5a287c83c1e81e79b1f80c1708a5fb",
            "0x000000000000000000000000000000000000000000000000000000000000001a"
          ],
          "data": "0x0000000000000000000000000000000000000000000000000000000000000005",
          "blockHash": "0xabcd9c7a9fe4603a5fff557bb5a6f38348fbdc5aabe5f0c7fb059e3b2a0a788d",
          "blockNumber": "0xf03ec4",
          "transactionHash": "0xa8cf5621bdc40c305ed847bd8d88ab5e38e0aea1a739c2b1d5a9a398f4c9dc29",
          "transactionIndex": "0x2",
          "logIndex": "0x1",
          "removed": false
        }
      ],
      "logsBloom": "0x00000000000000000000000000000000000000000000000000000000000000000000000000000000000000000000000000000000000000000000000000000000000000000000000000000000000000001000000000000000000000001000000000000000000000000000000000000000000000000000000009000000000000000000000400000000000000000000000000000000000000000000000000000000000000000000001000000000000000000000000000000000000000000000004000000000000000000000000000004000000000000000000000000000000000000000000000000000000000000000000000000000000004000000000000000000",
      "type": "0x2",
      "transactionHash": "0xa8cf5621bdc40c305ed847bd8d88ab5e38e0aea1a739c2b1d5a9a398f4c9dc29",
      "transactionIndex": "0x2",
      "blockHash": "0xabcd9c7a9fe4603a5fff557bb5a6f38348fbdc5aabe5f0c7fb059e3b2a0a788d",
      "blockNumber": "0xf03ec4",
      "gasUsed": "0xe66a",
      "effectiveGasPrice": "0xfd",
      "from": "0xc3ca11bd8e131471904dced927b3fb7edb453179",
      "to": "0x2f925d6512b2bbb00f5a36d8b18e01fcf35f7dc7",
      "contractAddress": null,
      "l1BaseFeeScalar": "0x2608",
      "l1BlobBaseFee": "0x1279c203",
      "l1BlobBaseFeeScalar": "0x177fef",
      "l1Fee": "0xb1d65d9d1",
      "l1GasPrice": "0x1d2e",
      "l1GasUsed": "0x640"
    },
    {
      "status": "0x1",
      "cumulativeGasUsed": "0x1e439",
      "logs": [],
      "logsBloom": "0x00000000000000000000000000000000000000000000000000000000000000000000000000000000000000000000000000000000000000000000000000000000000000000000000000000000000000000000000000000000000000000000000000000000000000000000000000000000000000000000000000000000000000000000000000000000000000000000000000000000000000000000000000000000000000000000000000000000000000000000000000000000000000000000000000000000000000000000000000000000000000000000000000000000000000000000000000000000000000000000000000000000000000000000000000000000",
      "type": "0x2",
      "transactionHash": "0xf2ee3bafc6e50159f3ee59b2d46e4569d8ac5d92448cf1e9fe2ef0530f66b906",
      "transactionIndex": "0x1",
      "blockHash": "0x535444ea44adc89921333cc37725de2a528857b5508532837b1da8eae34fc4cd",
      "blockNumber": "0xf03ec7",
      "gasUsed": "0x12fed",
      "effectiveGasPrice": "0xfd",
      "from": "0xc3ca11bd8e131471904dced927b3fb7edb453179",
      "to": "0x9c9e9fad264089339aad66ff3e32d2ba1ddf6951",
      "contractAddress": null,
      "l1BaseFeeScalar": "0x2608",
      "l1BlobBaseFee": "0x13fc1e51",
      "l1BlobBaseFeeScalar": "0x177fef",
      "l1Fee": "0xc05d45402",
      "l1GasPrice": "0x1b81",
      "l1GasUsed": "0x640"
    },
    {
      "status": "0x1",
      "cumulativeGasUsed": "0x24432",
      "logs": [],
      "logsBloom": "0x00000000000000000000000000000000000000000000000000000000000000000000000000000000000000000000000000000000000000000000000000000000000000000000000000000000000000000000000000000000000000000000000000000000000000000000000000000000000000000000000000000000000000000000000000000000000000000000000000000000000000000000000000000000000000000000000000000000000000000000000000000000000000000000000000000000000000000000000000000000000000000000000000000000000000000000000000000000000000000000000000000000000000000000000000000000",
      "type": "0x2",
      "transactionHash": "0x796b56e1c0785bbdf6974fa17428dcc444b33db20fe6e06f6bf907e7f7bb6695",
      "transactionIndex": "0x2",
      "blockHash": "0x60fc520e9b63ef09abd10e0654a25167d9e69dd1f4dbb2fda900543254b2b051",
      "blockNumber": "0xf03ec9",
      "gasUsed": "0xd2bd",
      "effectiveGasPrice": "0xfd",
      "from": "0xc3ca11bd8e131471904dced927b3fb7edb453179",
      "to": "0x9c9e9fad264089339aad66ff3e32d2ba1ddf6951",
      "contractAddress": null,
      "l1BaseFeeScalar": "0x2608",
      "l1BlobBaseFee": "0x13fc1e51",
      "l1BlobBaseFeeScalar": "0x177fef",
      "l1Fee": "0xc05d45402",
      "l1GasPrice": "0x1b81",
      "l1GasUsed": "0x640"
    },
    {
      "status": "0x1",
      "cumulativeGasUsed": "0x21d7f",
      "logs": [],
      "logsBloom": "0x00000000000000000000000000000000000000000000000000000000000000000000000000000000000000000000000000000000000000000000000000000000000000000000000000000000000000000000000000000000000000000000000000000000000000000000000000000000000000000000000000000000000000000000000000000000000000000000000000000000000000000000000000000000000000000000000000000000000000000000000000000000000000000000000000000000000000000000000000000000000000000000000000000000000000000000000000000000000000000000000000000000000000000000000000000000",
      "type": "0x2",
      "transactionHash": "0xb23f2dfc36b08d0159aed3c92880d507fd9f9e404b322bd2b4a3f837b5721902",
      "transactionIndex": "0x1",
      "blockHash": "0xe31788500b177fba6486ab19719aa6b4a5ed3f9d20258fdc02d9c7b01b593768",
      "blockNumber": "0xf03ecb",
      "gasUsed": "0x16933",
      "effectiveGasPrice": "0xfd",
      "from": "0xc3ca11bd8e131471904dced927b3fb7edb453179",
      "to": "0x9c9e9fad264089339aad66ff3e32d2ba1ddf6951",
      "contractAddress": null,
      "l1BaseFeeScalar": "0x2608",
      "l1BlobBaseFee": "0x13fc1e51",
      "l1BlobBaseFeeScalar": "0x177fef",
      "l1Fee": "0xc05d45402",
      "l1GasPrice": "0x1b81",
      "l1GasUsed": "0x640"
    },
    {
      "status": "0x1",
      "cumulativeGasUsed": "0x18445",
      "logs": [],
      "logsBloom": "0x00000000000000000000000000000000000000000000000000000000000000000000000000000000000000000000000000000000000000000000000000000000000000000000000000000000000000000000000000000000000000000000000000000000000000000000000000000000000000000000000000000000000000000000000000000000000000000000000000000000000000000000000000000000000000000000000000000000000000000000000000000000000000000000000000000000000000000000000000000000000000000000000000000000000000000000000000000000000000000000000000000000000000000000000000000000",
      "type": "0x2",
      "transactionHash": "0x6aea1e2f388ae14ef18535a19c794259c13b371ba08516dc38a4eefa7168ba15",
      "transactionIndex": "0x1",
      "blockHash": "0x0fa7e01a501157d38bc293a83858a50d3d8d2c17100d518177e0e1bc2591ab3d",
      "blockNumber": "0xf03ecd",
      "gasUsed": "0xcff9",
      "effectiveGasPrice": "0xfd",
      "from": "0xc3ca11bd8e131471904dced927b3fb7edb453179",
      "to": "0xe912f7c7a59470a6e3f178388106e3caa9e6fbd1",
      "contractAddress": null,
      "l1BaseFeeScalar": "0x2608",
      "l1BlobBaseFee": "0x12f7305e",
      "l1BlobBaseFeeScalar": "0x177fef",
      "l1Fee": "0xb68db0f73",
      "l1GasPrice": "0x1a6f",
      "l1GasUsed": "0x640"
    },
    {
      "status": "0x1",
      "cumulativeGasUsed": "0x24070",
      "logs": [],
      "logsBloom": "0x00000000000000000000000000000000000000000000000000000000000000000000000000000000000000000000000000000000000000000000000000000000000000000000000000000000000000000000000000000000000000000000000000000000000000000000000000000000000000000000000000000000000000000000000000000000000000000000000000000000000000000000000000000000000000000000000000000000000000000000000000000000000000000000000000000000000000000000000000000000000000000000000000000000000000000000000000000000000000000000000000000000000000000000000000000000",
      "type": "0x2",
      "transactionHash": "0x0678e8b44080b89d11888ed6ec69e0639f4627b43ceb8bf8e25ed8c396669617",
      "transactionIndex": "0x2",
      "blockHash": "0x1153453fedadb9095d3638ed91e60b1447fc2c55aefd0f1b2417d2b89d44bbab",
      "blockNumber": "0xf03ecf",
      "gasUsed": "0xcf33",
      "effectiveGasPrice": "0xfd",
      "from": "0xc3ca11bd8e131471904dced927b3fb7edb453179",
      "to": "0xe912f7c7a59470a6e3f178388106e3caa9e6fbd1",
      "contractAddress": null,
      "l1BaseFeeScalar": "0x2608",
      "l1BlobBaseFee": "0x12f7305e",
      "l1BlobBaseFeeScalar": "0x177fef",
      "l1Fee": "0xb68db0f73",
      "l1GasPrice": "0x1a6f",
      "l1GasUsed": "0x640"
    },
    {
      "status": "0x1",
      "cumulativeGasUsed": "0x1889a",
      "logs": [],
      "logsBloom": "0x00000000000000000000000000000000000000000000000000000000000000000000000000000000000000000000000000000000000000000000000000000000000000000000000000000000000000000000000000000000000000000000000000000000000000000000000000000000000000000000000000000000000000000000000000000000000000000000000000000000000000000000000000000000000000000000000000000000000000000000000000000000000000000000000000000000000000000000000000000000000000000000000000000000000000000000000000000000000000000000000000000000000000000000000000000000",
      "type": "0x2",
      "transactionHash": "0x3d4e1ff96cc2573437304597cf2c37723e0063b113e635ba0d466733732ce520",
      "transactionIndex": "0x1",
      "blockHash": "0xe405644eb1d5041826704990451597fd571bef7df100c6274b8b85fbb715b773",
      "blockNumber": "0xf03ed1",
      "gasUsed": "0xd44e",
      "effectiveGasPrice": "0xfd",
      "from": "0xc3ca11bd8e131471904dced927b3fb7edb453179",
      "to": "0xe912f7c7a59470a6e3f178388106e3caa9e6fbd1",
      "contractAddress": null,
      "l1BaseFeeScalar": "0x2608",
      "l1BlobBaseFee": "0x12f7305e",
      "l1BlobBaseFeeScalar": "0x177fef",
      "l1Fee": "0xb68db0f73",
      "l1GasPrice": "0x1a6f",
      "l1GasUsed": "0x640"
    },
    {
      "status": "0x1",
      "cumulativeGasUsed": "0x27d88",
      "logs": [],
      "logsBloom": "0x00000000000000000000000000000000000000000000000000000000000000000000000000000000000000000000000000000000000000000000000000000000000000000000000000000000000000000000000000000000000000000000000000000000000000000000000000000000000000000000000000000000000000000000000000000000000000000000000000000000000000000000000000000000000000000000000000000000000000000000000000000000000000000000000000000000000000000000000000000000000000000000000000000000000000000000000000000000000000000000000000000000000000000000000000000000",
      "type": "0x2",
      "transactionHash": "0x613b82ed7ebb2c4c563d5e8ec7bf02ce3c71ea8dfeddf70778c4ee3d08b6452a",
      "transactionIndex": "0x4",
      "blockHash": "0xb63a55882c5c359cec4efa65c89567ebfb72818ecd8c9179f46a0603fd60cbb7",
      "blockNumber": "0xf03ed3",
      "gasUsed": "0xd324",
      "effectiveGasPrice": "0xfd",
      "from": "0xc3ca11bd8e131471904dced927b3fb7edb453179",
      "to": "0xe912f7c7a59470a6e3f178388106e3caa9e6fbd1",
      "contractAddress": null,
      "l1BaseFeeScalar": "0x2608",
      "l1BlobBaseFee": "0x1377f246",
      "l1BlobBaseFeeScalar": "0x177fef",
      "l1Fee": "0xbb6509b4b",
      "l1GasPrice": "0x1880",
      "l1GasUsed": "0x640"
    },
    {
      "status": "0x1",
      "cumulativeGasUsed": "0x18674",
      "logs": [],
      "logsBloom": "0x00000000000000000000000000000000000000000000000000000000000000000000000000000000000000000000000000000000000000000000000000000000000000000000000000000000000000000000000000000000000000000000000000000000000000000000000000000000000000000000000000000000000000000000000000000000000000000000000000000000000000000000000000000000000000000000000000000000000000000000000000000000000000000000000000000000000000000000000000000000000000000000000000000000000000000000000000000000000000000000000000000000000000000000000000000000",
      "type": "0x2",
      "transactionHash": "0x2241f5cc6b4952c0e4fb623f55b5e5e612f853ef364757f3e8d951cf9fd70911",
      "transactionIndex": "0x1",
      "blockHash": "0xfa55cfaf478ff47def6961db540e4b9c52df25cf74e4e1a6398da1a2a44c2eef",
      "blockNumber": "0xf03ed5",
      "gasUsed": "0xd228",
      "effectiveGasPrice": "0xfd",
      "from": "0xc3ca11bd8e131471904dced927b3fb7edb453179",
      "to": "0xe912f7c7a59470a6e3f178388106e3caa9e6fbd1",
      "contractAddress": null,
      "l1BaseFeeScalar": "0x2608",
      "l1BlobBaseFee": "0x1377f246",
      "l1BlobBaseFeeScalar": "0x177fef",
      "l1Fee": "0xbb6509b4b",
      "l1GasPrice": "0x1880",
      "l1GasUsed": "0x640"
    },
    {
      "status": "0x1",
      "cumulativeGasUsed": "0x18724",
      "logs": [],
      "logsBloom": "0x00000000000000000000000000000000000000000000000000000000000000000000000000000000000000000000000000000000000000000000000000000000000000000000000000000000000000000000000000000000000000000000000000000000000000000000000000000000000000000000000000000000000000000000000000000000000000000000000000000000000000000000000000000000000000000000000000000000000000000000000000000000000000000000000000000000000000000000000000000000000000000000000000000000000000000000000000000000000000000000000000000000000000000000000000000000",
      "type": "0x2",
      "transactionHash": "0x8471c43bb1f5b7913185551edba88052421d1b373989714280d4b52b4ee40b85",
      "transactionIndex": "0x1",
      "blockHash": "0x451f0b703aaa95fe2fde676741416a4d9d494cfb09eddbdf611aab4b81785b46",
      "blockNumber": "0xf03ed7",
      "gasUsed": "0xd2d8",
      "effectiveGasPrice": "0xfd",
      "from": "0xc3ca11bd8e131471904dced927b3fb7edb453179",
      "to": "0xe912f7c7a59470a6e3f178388106e3caa9e6fbd1",
      "contractAddress": null,
      "l1BaseFeeScalar": "0x2608",
      "l1BlobBaseFee": "0x1377f246",
      "l1BlobBaseFeeScalar": "0x177fef",
      "l1Fee": "0xbb6509b4b",
      "l1GasPrice": "0x1880",
      "l1GasUsed": "0x640"
    },
    {
      "status": "0x1",
      "cumulativeGasUsed": "0x1d6a2",
      "logs": [],
      "logsBloom": "0x00000000000000000000000000000000000000000000000000000000000000000000000000000000000000000000000000000000000000000000000000000000000000000000000000000000000000000000000000000000000000000000000000000000000000000000000000000000000000000000000000000000000000000000000000000000000000000000000000000000000000000000000000000000000000000000000000000000000000000000000000000000000000000000000000000000000000000000000000000000000000000000000000000000000000000000000000000000000000000000000000000000000000000000000000000000",
      "type": "0x2",
      "transactionHash": "0x344657a5a184aa747262ad1782dcf36fbf38480f0bf1997dcd747559a49785cb",
      "transactionIndex": "0x2",
      "blockHash": "0xcca3553124820c187de8050b0d467658df17f84eb1355b3550650fe4719cceaa",
      "blockNumber": "0xf03ed9",
      "gasUsed": "0xd04e",
      "effectiveGasPrice": "0xfd",
      "from": "0xc3ca11bd8e131471904dced927b3fb7edb453179",
      "to": "0x92228b058f25bc4fb333fa296dddecbddf6496f3",
      "contractAddress": null,
      "l1BaseFeeScalar": "0x2608",
      "l1BlobBaseFee": "0x13fc1e51",
      "l1BlobBaseFeeScalar": "0x177fef",
      "l1Fee": "0xc05d40a04",
      "l1GasPrice": "0x16c1",
      "l1GasUsed": "0x640"
    },
    {
      "status": "0x1",
      "cumulativeGasUsed": "0x13809",
      "logs": [],
      "logsBloom": "0x00000000000000000000000000000000000000000000000000000000000000000000000000000000000000000000000000000000000000000000000000000000000000000000000000000000000000000000000000000000000000000000000000000000000000000000000000000000000000000000000000000000000000000000000000000000000000000000000000000000000000000000000000000000000000000000000000000000000000000000000000000000000000000000000000000000000000000000000000000000000000000000000000000000000000000000000000000000000000000000000000000000000000000000000000000000",
      "type": "0x2",
      "transactionHash": "0xbb2eebc05905f51e1f624c4719a35b849148833e2fc621a44d61a00dd62b4ccc",
      "transactionIndex": "0x1",
      "blockHash": "0x63ecbcb4f585c638230affda8fd7cb5ba58ccd88f3120daa9efee177557cad69",
      "blockNumber": "0xf03edb",
      "gasUsed": "0x83bd",
      "effectiveGasPrice": "0xfd",
      "from": "0xc3ca11bd8e131471904dced927b3fb7edb453179",
      "to": "0x92228b058f25bc4fb333fa296dddecbddf6496f3",
      "contractAddress": null,
      "l1BaseFeeScalar": "0x2608",
      "l1BlobBaseFee": "0x13fc1e51",
      "l1BlobBaseFeeScalar": "0x177fef",
      "l1Fee": "0xc05d40a04",
      "l1GasPrice": "0x16c1",
      "l1GasUsed": "0x640"
    },
    {
      "status": "0x1",
      "cumulativeGasUsed": "0x1af46",
      "logs": [],
      "logsBloom": "0x00000000000000000000000000000000000000000000000000000000000000000000000000000000000000000000000000000000000000000000000000000000000000000000000000000000000000000000000000000000000000000000000000000000000000000000000000000000000000000000000000000000000000000000000000000000000000000000000000000000000000000000000000000000000000000000000000000000000000000000000000000000000000000000000000000000000000000000000000000000000000000000000000000000000000000000000000000000000000000000000000000000000000000000000000000000",
      "type": "0x2",
      "transactionHash": "0xd4c3168de02d2b48500a85552d9d55ac3bcb31ff10502bdb9ce0fab2fafcf577",
      "transactionIndex": "0x1",
      "blockHash": "0xa6e0feb5c94ab50c6be67dcc827027aa167092829af2bf3013af8f1aebf2e027",
      "blockNumber": "0xf03ede",
      "gasUsed": "0xcf46",
      "effectiveGasPrice": "0xfd",
      "from": "0xc3ca11bd8e131471904dced927b3fb7edb453179",
      "to": "0x92228b058f25bc4fb333fa296dddecbddf6496f3",
      "contractAddress": null,
      "l1BaseFeeScalar": "0x2608",
      "l1BlobBaseFee": "0x12f7305e",
      "l1BlobBaseFeeScalar": "0x177fef",
      "l1Fee": "0xb68dac7c5",
      "l1GasPrice": "0x15d5",
      "l1GasUsed": "0x640"
    },
    {
      "status": "0x1",
      "cumulativeGasUsed": "0x1d67d",
      "logs": [],
      "logsBloom": "0x00000000000000000000000000000000000000000000000000000000000000000000000000000000000000000000000000000000000000000000000000000000000000000000000000000000000000000000000000000000000000000000000000000000000000000000000000000000000000000000000000000000000000000000000000000000000000000000000000000000000000000000000000000000000000000000000000000000000000000000000000000000000000000000000000000000000000000000000000000000000000000000000000000000000000000000000000000000000000000000000000000000000000000000000000000000",
      "type": "0x2",
      "transactionHash": "0xde8341cfe236ab3d099fca28bd04cf4dd19f8c56ba5e2de8886c2b0df22e8521",
      "transactionIndex": "0x2",
      "blockHash": "0x2dd050c78a8b3fa75b70a7f2a03dca61dc539737b9778aed18a1acbf8c588f4b",
      "blockNumber": "0xf03ee1",
      "gasUsed": "0xd029",
      "effectiveGasPrice": "0xfd",
      "from": "0xc3ca11bd8e131471904dced927b3fb7edb453179",
      "to": "0x2af842c6517cf30fb3456aef485230e0dd085845",
      "contractAddress": null,
      "l1BaseFeeScalar": "0x2608",
      "l1BlobBaseFee": "0x12f7305e",
      "l1BlobBaseFeeScalar": "0x177fef",
      "l1Fee": "0xb68dac7c5",
      "l1GasPrice": "0x15d5",
      "l1GasUsed": "0x640"
    },
    {
      "status": "0x1",
      "cumulativeGasUsed": "0x16457",
      "logs": [],
      "logsBloom": "0x00000000000000000000000000000000000000000000000000000000000000000000000000000000000000000000000000000000000000000000000000000000000000000000000000000000000000000000000000000000000000000000000000000000000000000000000000000000000000000000000000000000000000000000000000000000000000000000000000000000000000000000000000000000000000000000000000000000000000000000000000000000000000000000000000000000000000000000000000000000000000000000000000000000000000000000000000000000000000000000000000000000000000000000000000000000",
      "type": "0x2",
      "transactionHash": "0x1c4aa62c48f0a2f65cc8d88cd87c9fb9c15a25fb7ec53ad6b07f317b687d4ccb",
      "transactionIndex": "0x1",
      "blockHash": "0x8bc185d4e1023bcc89d1e6587cedd5388a12019c6943b2e1fba3b9ac3c427422",
      "blockNumber": "0xf03ee4",
      "gasUsed": "0x8457",
      "effectiveGasPrice": "0xfd",
      "from": "0xc3ca11bd8e131471904dced927b3fb7edb453179",
      "to": "0x2af842c6517cf30fb3456aef485230e0dd085845",
      "contractAddress": null,
      "l1BaseFeeScalar": "0x2608",
      "l1BlobBaseFee": "0x1483cbae",
      "l1BlobBaseFeeScalar": "0x177fef",
      "l1Fee": "0xc57735496",
      "l1GasPrice": "0x159d",
      "l1GasUsed": "0x640"
    },
    {
      "status": "0x1",
      "cumulativeGasUsed": "0x1837c",
      "logs": [],
      "logsBloom": "0x00000000000000000000000000000000000000000000000000000000000000000000000000000000000000000000000000000000000000000000000000000000000000000000000000000000000000000000000000000000000000000000000000000000000000000000000000000000000000000000000000000000000000000000000000000000000000000000000000000000000000000000000000000000000000000000000000000000000000000000000000000000000000000000000000000000000000000000000000000000000000000000000000000000000000000000000000000000000000000000000000000000000000000000000000000000",
      "type": "0x2",
      "transactionHash": "0x2900619969a3e6765bfba76604ed28f51bb2a3c1503eb5739650941bdaa34fe8",
      "transactionIndex": "0x1",
      "blockHash": "0x8e313060d183c7e7861298a0741e0ec6838a56cd8598a4ef9edff0d3d3adb603",
      "blockNumber": "0xf03ee7",
      "gasUsed": "0xcf30",
      "effectiveGasPrice": "0xfd",
      "from": "0xc3ca11bd8e131471904dced927b3fb7edb453179",
      "to": "0x2af842c6517cf30fb3456aef485230e0dd085845",
      "contractAddress": null,
      "l1BaseFeeScalar": "0x2608",
      "l1BlobBaseFee": "0x1483cbae",
      "l1BlobBaseFeeScalar": "0x177fef",
      "l1Fee": "0xc57735496",
      "l1GasPrice": "0x159d",
      "l1GasUsed": "0x640"
    },
    {
      "status": "0x1",
      "cumulativeGasUsed": "0xf8fcf",
      "logs": [],
      "logsBloom": "0x00000000000000000000000000000000000000000000000000000000000000000000000000000000000000000000000000000000000000000000000000000000000000000000000000000000000000000000000000000000000000000000000000000000000000000000000000000000000000000000000000000000000000000000000000000000000000000000000000000000000000000000000000000000000000000000000000000000000000000000000000000000000000000000000000000000000000000000000000000000000000000000000000000000000000000000000000000000000000000000000000000000000000000000000000000000",
      "type": "0x2",
      "transactionHash": "0x043de6766cd8ff056214f8d8851ebad70a4580bc38232fb2dc14433bd93a40f0",
      "transactionIndex": "0x1",
      "blockHash": "0x99023bbca80626e81c67eb710f9597656ecff73eaefe1fdef7567173efd0b518",
      "blockNumber": "0xf03ee9",
      "gasUsed": "0xedb83",
      "effectiveGasPrice": "0xfd",
      "from": "0xc3ca11bd8e131471904dced927b3fb7edb453179",
      "to": "0x58b610a359c870e0fc941139821a51f5aa23f14e",
      "contractAddress": null,
      "l1BaseFeeScalar": "0x2608",
      "l1BlobBaseFee": "0x1483cbae",
      "l1BlobBaseFeeScalar": "0x177fef",
      "l1Fee": "0x2248c2c30c",
      "l1GasPrice": "0x159d",
      "l1GasUsed": "0x115c"
    },
    {
      "status": "0x1",
      "cumulativeGasUsed": "0x135e9d",
      "logs": [],
      "logsBloom": "0x00000000000000000000000000000000000000000000000000000000000000000000000000000000000000000000000000000000000000000000000000000000000000000000000000000000000000000000000000000000000000000000000000000000000000000000000000000000000000000000000000000000000000000000000000000000000000000000000000000000000000000000000000000000000000000000000000000000000000000000000000000000000000000000000000000000000000000000000000000000000000000000000000000000000000000000000000000000000000000000000000000000000000000000000000000000",
      "type": "0x2",
      "transactionHash": "0xe28a08799dcb90493448e86bf9045575cb29996a6efbc4e8e819108d69e66fe5",
      "transactionIndex": "0x2",
      "blockHash": "0x4e9f3151f38d3775b89ce067ff4fe2452be381e9e0f2267d8b50b63f0c8eb44e",
      "blockNumber": "0xf03eeb",
      "gasUsed": "0x125849",
      "effectiveGasPrice": "0xfd",
      "from": "0xc3ca11bd8e131471904dced927b3fb7edb453179",
      "to": "0x58b610a359c870e0fc941139821a51f5aa23f14e",
      "contractAddress": null,
      "l1BaseFeeScalar": "0x2608",
      "l1BlobBaseFee": "0x11888887",
      "l1BlobBaseFeeScalar": "0x177fef",
      "l1Fee": "0x1d63cb4b5d",
      "l1GasPrice": "0x1806",
      "l1GasUsed": "0x116a"
    },
    {
      "status": "0x1",
      "cumulativeGasUsed": "0x103b06",
      "logs": [],
      "logsBloom": "0x00000000000000000000000000000000000000000000000000000000000000000000000000000000000000000000000000000000000000000000000000000000000000000000000000000000000000000000000000000000000000000000000000000000000000000000000000000000000000000000000000000000000000000000000000000000000000000000000000000000000000000000000000000000000000000000000000000000000000000000000000000000000000000000000000000000000000000000000000000000000000000000000000000000000000000000000000000000000000000000000000000000000000000000000000000000",
      "type": "0x2",
      "transactionHash": "0x3964642d525e990ec877003e77e660b87ea2f71f8d4416cb26083c4e8f775fdc",
      "transactionIndex": "0x2",
      "blockHash": "0xb255344dcf407940ccea3787c63edcfb65d31e2db267fb1a6c92ab8705ce5383",
      "blockNumber": "0xf03eed",
      "gasUsed": "0xf34b2",
      "effectiveGasPrice": "0xfd",
      "from": "0xc3ca11bd8e131471904dced927b3fb7edb453179",
      "to": "0x58b610a359c870e0fc941139821a51f5aa23f14e",
      "contractAddress": null,
      "l1BaseFeeScalar": "0x2608",
      "l1BlobBaseFee": "0x11888887",
      "l1BlobBaseFeeScalar": "0x177fef",
      "l1Fee": "0x1d7a61c6d8",
      "l1GasPrice": "0x1806",
      "l1GasUsed": "0x1177"
    },
    {
      "status": "0x1",
      "cumulativeGasUsed": "0xfd9ba",
      "logs": [],
      "logsBloom": "0x00000000000000000000000000000000000000000000000000000000000000000000000000000000000000000000000000000000000000000000000000000000000000000000000000000000000000000000000000000000000000000000000000000000000000000000000000000000000000000000000000000000000000000000000000000000000000000000000000000000000000000000000000000000000000000000000000000000000000000000000000000000000000000000000000000000000000000000000000000000000000000000000000000000000000000000000000000000000000000000000000000000000000000000000000000000",
      "type": "0x2",
      "transactionHash": "0xf007f90c35960d611760efdb2c1b5552f0769deb6d550a8c857085f360f07712",
      "transactionIndex": "0x1",
      "blockHash": "0x189f496fb9e1580c3df57e9f2a57e2a8c23e840776a356d33e1bfa3a8457f6e2",
      "blockNumber": "0xf03eef",
      "gasUsed": "0xf256e",
      "effectiveGasPrice": "0xfd",
      "from": "0xc3ca11bd8e131471904dced927b3fb7edb453179",
      "to": "0x58b610a359c870e0fc941139821a51f5aa23f14e",
      "contractAddress": null,
      "l1BaseFeeScalar": "0x2608",
      "l1BlobBaseFee": "0x11888887",
      "l1BlobBaseFeeScalar": "0x177fef",
      "l1Fee": "0x1dbe253948",
      "l1GasPrice": "0x1806",
      "l1GasUsed": "0x119f"
    }
  ],
  "libraries": [],
  "pending": [],
  "returns": {},
  "timestamp": 1754683839,
  "chain": 1946,
  "commit": "5798807"
}