{
  "transactions": [
    {
      "hash": "0xd9349a4abbadcb0f660fa1060057a4ba810bef5f5ad09fa1639f2baff19db139",
      "transactionType": "CALL",
      "contractName": null,
      "contractAddress": "0x1736009b39009f1cd6f08791c781317c2dce4a88",
      "function": "getFeeTokenList()",
      "arguments": [],
      "transaction": {
        "from": "0xe62ab4d111f968660c6b2188046f9b9ba53c4bae",
        "to": "0x1736009b39009f1cd6f08791c781317c2dce4a88",
        "gas": "0x8a38",
        "value": "0x0",
        "input": "0xe28ab277",
        "nonce": "0x442",
        "chainId": "0x61"
      },
      "additionalContracts": [],
      "isFixedGasLimit": false
    },
    {
      "hash": "0xe2ce6ca16af8373dc9aa59cbecd390b14b81aaa66472e441b975b8f8df43d9a6",
      "transactionType": "CALL",
      "contractName": null,
      "contractAddress": "0x1736009b39009f1cd6f08791c781317c2dce4a88",
      "function": "addFeeToken(string)",
      "arguments": [
        "0xdd43fc986a13392ddbc7aea150b41efe27b2d0ed"
      ],
      "transaction": {
        "from": "0xe62ab4d111f968660c6b2188046f9b9ba53c4bae",
        "to": "0x1736009b39009f1cd6f08791c781317c2dce4a88",
        "gas": "0x28d63",
        "value": "0x0",
        "input": "0x12a6385f0000000000000000000000000000000000000000000000000000000000000020000000000000000000000000000000000000000000000000000000000000002a30786464343366633938366131333339326464626337616561313530623431656665323762326430656400000000000000000000000000000000000000000000",
        "nonce": "0x443",
        "chainId": "0x61"
      },
      "additionalContracts": [],
      "isFixedGasLimit": false
    },
    {
      "hash": "0x8b6192ba11b5b33adde77d5946b112fafb3afa10a51f5fdc7ab5def26b7e4db0",
      "transactionType": "CALL",
      "contractName": null,
      "contractAddress": "0x1736009b39009f1cd6f08791c781317c2dce4a88",
      "function": "setFeeMultiplier(uint8,uint256)",
      "arguments": [
        "0",
        "2"
      ],
      "transaction": {
        "from": "0xe62ab4d111f968660c6b2188046f9b9ba53c4bae",
        "to": "0x1736009b39009f1cd6f08791c781317c2dce4a88",
        "gas": "0x112ba",
        "value": "0x0",
        "input": "0x0ee24eb500000000000000000000000000000000000000000000000000000000000000000000000000000000000000000000000000000000000000000000000000000002",
        "nonce": "0x444",
        "chainId": "0x61"
      },
      "additionalContracts": [],
      "isFixedGasLimit": false
    },
    {
      "hash": "0xc558483d42f6fd6ca727dfd945c949bccc13dd9537f7b6fa09f5d113e243c940",
      "transactionType": "CALL",
      "contractName": null,
      "contractAddress": "0x1736009b39009f1cd6f08791c781317c2dce4a88",
      "function": "setFeeMultiplier(uint8,uint256)",
      "arguments": [
        "1",
        "10"
      ],
      "transaction": {
        "from": "0xe62ab4d111f968660c6b2188046f9b9ba53c4bae",
        "to": "0x1736009b39009f1cd6f08791c781317c2dce4a88",
        "gas": "0x103a6",
        "value": "0x0",
        "input": "0x0ee24eb50000000000000000000000000000000000000000000000000000000000000001000000000000000000000000000000000000000000000000000000000000000a",
        "nonce": "0x445",
        "chainId": "0x61"
      },
      "additionalContracts": [],
      "isFixedGasLimit": false
    },
    {
      "hash": "0x7f8fad3bbb7839e69ef58423a6bf8672723e220da460df2759e92841c91199b5",
      "transactionType": "CALL",
      "contractName": null,
      "contractAddress": "0x1736009b39009f1cd6f08791c781317c2dce4a88",
      "function": "setFeeMultiplier(uint8,uint256)",
      "arguments": [
        "2",
        "1"
      ],
      "transaction": {
        "from": "0xe62ab4d111f968660c6b2188046f9b9ba53c4bae",
        "to": "0x1736009b39009f1cd6f08791c781317c2dce4a88",
        "gas": "0x1130e",
        "value": "0x0",
        "input": "0x0ee24eb500000000000000000000000000000000000000000000000000000000000000020000000000000000000000000000000000000000000000000000000000000001",
        "nonce": "0x446",
        "chainId": "0x61"
      },
      "additionalContracts": [],
      "isFixedGasLimit": false
    },
    {
      "hash": "0x8404ce1c818a27f23589e407751e76298b6e4b624bb3c37c38a0a3545027f0d6",
      "transactionType": "CALL",
      "contractName": null,
      "contractAddress": "0x1736009b39009f1cd6f08791c781317c2dce4a88",
      "function": "setFeeMultiplier(uint8,uint256)",
      "arguments": [
        "3",
        "4"
      ],
      "transaction": {
        "from": "0xe62ab4d111f968660c6b2188046f9b9ba53c4bae",
        "to": "0x1736009b39009f1cd6f08791c781317c2dce4a88",
        "gas": "0x11330",
        "value": "0x0",
        "input": "0x0ee24eb500000000000000000000000000000000000000000000000000000000000000030000000000000000000000000000000000000000000000000000000000000004",
        "nonce": "0x447",
        "chainId": "0x61"
      },
      "additionalContracts": [],
      "isFixedGasLimit": false
    },
    {
      "hash": "0x1059dba35f3505ce1046ad504611a6586a7af47e4b5c076871c3cb25e61eb701",
      "transactionType": "CALL",
      "contractName": null,
      "contractAddress": "0x1736009b39009f1cd6f08791c781317c2dce4a88",
      "function": "setFeeMultiplier(uint8,uint256)",
      "arguments": [
        "4",
        "4"
      ],
      "transaction": {
        "from": "0xe62ab4d111f968660c6b2188046f9b9ba53c4bae",
        "to": "0x1736009b39009f1cd6f08791c781317c2dce4a88",
        "gas": "0x11352",
        "value": "0x0",
        "input": "0x0ee24eb500000000000000000000000000000000000000000000000000000000000000040000000000000000000000000000000000000000000000000000000000000004",
        "nonce": "0x448",
        "chainId": "0x61"
      },
      "additionalContracts": [],
      "isFixedGasLimit": false
    },
    {
      "hash": "0xa73bf56a7cf25a6d9fe9213c8f1277e197785e8463c85d03f7b10f979e1187f7",
      "transactionType": "CALL",
      "contractName": null,
      "contractAddress": "0x1736009b39009f1cd6f08791c781317c2dce4a88",
      "function": "setFeeMultiplier(uint8,uint256)",
      "arguments": [
        "5",
        "4"
      ],
      "transaction": {
        "from": "0xe62ab4d111f968660c6b2188046f9b9ba53c4bae",
        "to": "0x1736009b39009f1cd6f08791c781317c2dce4a88",
        "gas": "0x10425",
        "value": "0x0",
        "input": "0x0ee24eb500000000000000000000000000000000000000000000000000000000000000050000000000000000000000000000000000000000000000000000000000000004",
        "nonce": "0x449",
        "chainId": "0x61"
      },
      "additionalContracts": [],
      "isFixedGasLimit": false
    },
    {
      "hash": "0x5b6cbe1677290675e72ca587926c82ed405b33ac9e56c50793fd329c2fffaf1d",
      "transactionType": "CALL",
      "contractName": null,
      "contractAddress": "0x1736009b39009f1cd6f08791c781317c2dce4a88",
      "function": "setFeeMultiplier(uint8,uint256)",
      "arguments": [
        "6",
        "8"
      ],
      "transaction": {
        "from": "0xe62ab4d111f968660c6b2188046f9b9ba53c4bae",
        "to": "0x1736009b39009f1cd6f08791c781317c2dce4a88",
        "gas": "0x10444",
        "value": "0x0",
        "input": "0x0ee24eb500000000000000000000000000000000000000000000000000000000000000060000000000000000000000000000000000000000000000000000000000000008",
        "nonce": "0x44a",
        "chainId": "0x61"
      },
      "additionalContracts": [],
      "isFixedGasLimit": false
    },
    {
      "hash": "0x7b7f01a26e57992a42b193fc13eccabeb8ca982f2a652fd695aae3543c706c24",
      "transactionType": "CALL",
      "contractName": null,
      "contractAddress": "0x1736009b39009f1cd6f08791c781317c2dce4a88",
      "function": "setFeeMultiplier(uint8,uint256)",
      "arguments": [
        "7",
        "4"
      ],
      "transaction": {
        "from": "0xe62ab4d111f968660c6b2188046f9b9ba53c4bae",
        "to": "0x1736009b39009f1cd6f08791c781317c2dce4a88",
        "gas": "0x10465",
        "value": "0x0",
        "input": "0x0ee24eb500000000000000000000000000000000000000000000000000000000000000070000000000000000000000000000000000000000000000000000000000000004",
        "nonce": "0x44b",
        "chainId": "0x61"
      },
      "additionalContracts": [],
      "isFixedGasLimit": false
    },
    {
      "hash": "0xff9f8b7b9733fd8f792dadd66fd9b7fda6e584b286c84da5c7217ef74cff7984",
      "transactionType": "CALL",
      "contractName": null,
      "contractAddress": "0x1736009b39009f1cd6f08791c781317c2dce4a88",
      "function": "setFeeMultiplier(uint8,uint256)",
      "arguments": [
        "8",
        "10"
      ],
      "transaction": {
        "from": "0xe62ab4d111f968660c6b2188046f9b9ba53c4bae",
        "to": "0x1736009b39009f1cd6f08791c781317c2dce4a88",
        "gas": "0x10484",
        "value": "0x0",
        "input": "0x0ee24eb50000000000000000000000000000000000000000000000000000000000000008000000000000000000000000000000000000000000000000000000000000000a",
        "nonce": "0x44c",
        "chainId": "0x61"
      },
      "additionalContracts": [],
      "isFixedGasLimit": false
    },
    {
      "hash": "0x627e1e1a2b7fbc760b220571858c69fbfa766017ea110f6da4c4c59207d215f9",
      "transactionType": "CALL",
      "contractName": null,
      "contractAddress": "0x1736009b39009f1cd6f08791c781317c2dce4a88",
      "function": "setFeeMultiplier(uint8,uint256)",
      "arguments": [
        "9",
        "8"
      ],
      "transaction": {
        "from": "0xe62ab4d111f968660c6b2188046f9b9ba53c4bae",
        "to": "0x1736009b39009f1cd6f08791c781317c2dce4a88",
        "gas": "0x104a5",
        "value": "0x0",
        "input": "0x0ee24eb500000000000000000000000000000000000000000000000000000000000000090000000000000000000000000000000000000000000000000000000000000008",
        "nonce": "0x44d",
        "chainId": "0x61"
      },
      "additionalContracts": [],
      "isFixedGasLimit": false
    },
    {
      "hash": "0xcfb9e542f45261babaa7d7c7339887d649ce2cb35aad9f0f0ebadcb1f8ae7b44",
      "transactionType": "CALL",
      "contractName": null,
      "contractAddress": "0x1736009b39009f1cd6f08791c781317c2dce4a88",
      "function": "setFeeMultiplier(uint8,uint256)",
      "arguments": [
        "10",
        "8"
      ],
      "transaction": {
        "from": "0xe62ab4d111f968660c6b2188046f9b9ba53c4bae",
        "to": "0x1736009b39009f1cd6f08791c781317c2dce4a88",
        "gas": "0x1141b",
        "value": "0x0",
        "input": "0x0ee24eb5000000000000000000000000000000000000000000000000000000000000000a0000000000000000000000000000000000000000000000000000000000000008",
        "nonce": "0x44e",
        "chainId": "0x61"
      },
      "additionalContracts": [],
      "isFixedGasLimit": false
    },
    {
      "hash": "0x7de2ea5d97f6c260b3e9e450a464d74acbdc1d7ade8e6932c9f188ac011df3b3",
      "transactionType": "CALL",
      "contractName": null,
      "contractAddress": "0x1736009b39009f1cd6f08791c781317c2dce4a88",
      "function": "setFeeMultiplier(uint8,uint256)",
      "arguments": [
        "11",
        "8"
      ],
      "transaction": {
        "from": "0xe62ab4d111f968660c6b2188046f9b9ba53c4bae",
        "to": "0x1736009b39009f1cd6f08791c781317c2dce4a88",
        "gas": "0x1143d",
        "value": "0x0",
        "input": "0x0ee24eb5000000000000000000000000000000000000000000000000000000000000000b0000000000000000000000000000000000000000000000000000000000000008",
        "nonce": "0x44f",
        "chainId": "0x61"
      },
      "additionalContracts": [],
      "isFixedGasLimit": false
    },
    {
      "hash": "0x81e92bb8c89e8ce7cece216c6abb2243c0616bb99f26b3440e8a2686ef898607",
      "transactionType": "CALL",
      "contractName": null,
      "contractAddress": "0x1736009b39009f1cd6f08791c781317c2dce4a88",
      "function": "setFeeMultiplier(uint8,uint256)",
      "arguments": [
        "12",
        "20"
      ],
      "transaction": {
        "from": "0xe62ab4d111f968660c6b2188046f9b9ba53c4bae",
        "to": "0x1736009b39009f1cd6f08791c781317c2dce4a88",
        "gas": "0x1145f",
        "value": "0x0",
        "input": "0x0ee24eb5000000000000000000000000000000000000000000000000000000000000000c0000000000000000000000000000000000000000000000000000000000000014",
        "nonce": "0x450",
        "chainId": "0x61"
      },
      "additionalContracts": [],
      "isFixedGasLimit": false
    },
    {
      "hash": "0x2fbed8abe81befd22ecb7f981f7b8352d8fe344b418ce257759e1a31a24e61be",
      "transactionType": "CALL",
      "contractName": null,
      "contractAddress": "0x1736009b39009f1cd6f08791c781317c2dce4a88",
      "function": "setFeeMultiplier(uint8,uint256)",
      "arguments": [
        "13",
        "8"
      ],
      "transaction": {
        "from": "0xe62ab4d111f968660c6b2188046f9b9ba53c4bae",
        "to": "0x1736009b39009f1cd6f08791c781317c2dce4a88",
        "gas": "0x10524",
        "value": "0x0",
        "input": "0x0ee24eb5000000000000000000000000000000000000000000000000000000000000000d0000000000000000000000000000000000000000000000000000000000000008",
        "nonce": "0x451",
        "chainId": "0x61"
      },
      "additionalContracts": [],
      "isFixedGasLimit": false
    },
    {
      "hash": "0x61978a129202013852ea08687cecb9f1feeea70698650c278b62ee81fc0a6837",
      "transactionType": "CALL",
      "contractName": null,
      "contractAddress": "0x1736009b39009f1cd6f08791c781317c2dce4a88",
      "function": "setFeeMultiplier(uint8,uint256)",
      "arguments": [
        "14",
        "4"
      ],
      "transaction": {
        "from": "0xe62ab4d111f968660c6b2188046f9b9ba53c4bae",
        "to": "0x1736009b39009f1cd6f08791c781317c2dce4a88",
        "gas": "0x10543",
        "value": "0x0",
        "input": "0x0ee24eb5000000000000000000000000000000000000000000000000000000000000000e0000000000000000000000000000000000000000000000000000000000000004",
        "nonce": "0x452",
        "chainId": "0x61"
      },
      "additionalContracts": [],
      "isFixedGasLimit": false
    },
    {
      "hash": "0xe0e785e3b8afb1d70ba5d641e2b623a9cb23fe461904ff063c34ee79dcd25e7b",
      "transactionType": "CALL",
      "contractName": null,
      "contractAddress": "0x1736009b39009f1cd6f08791c781317c2dce4a88",
      "function": "setFeeMultiplier(uint8,uint256)",
      "arguments": [
        "15",
        "4"
      ],
      "transaction": {
        "from": "0xe62ab4d111f968660c6b2188046f9b9ba53c4bae",
        "to": "0x1736009b39009f1cd6f08791c781317c2dce4a88",
        "gas": "0x10562",
        "value": "0x0",
        "input": "0x0ee24eb5000000000000000000000000000000000000000000000000000000000000000f0000000000000000000000000000000000000000000000000000000000000004",
        "nonce": "0x453",
        "chainId": "0x61"
      },
      "additionalContracts": [],
      "isFixedGasLimit": false
    },
    {
      "hash": "0xf91b3e6ca925e24d1ff68c258026de77c173ac6c28471812e448f56dbfc11cf0",
      "transactionType": "CALL",
      "contractName": null,
      "contractAddress": "0x1736009b39009f1cd6f08791c781317c2dce4a88",
      "function": "setFeeMultiplier(uint8,uint256)",
      "arguments": [
        "16",
        "4"
      ],
      "transaction": {
        "from": "0xe62ab4d111f968660c6b2188046f9b9ba53c4bae",
        "to": "0x1736009b39009f1cd6f08791c781317c2dce4a88",
        "gas": "0x10583",
        "value": "0x0",
        "input": "0x0ee24eb500000000000000000000000000000000000000000000000000000000000000100000000000000000000000000000000000000000000000000000000000000004",
        "nonce": "0x454",
        "chainId": "0x61"
      },
      "additionalContracts": [],
      "isFixedGasLimit": false
    },
    {
      "hash": "0xe2ab3bb2e4cf3f335cb0b8977eae20ee04685afa01eac7cafe7bd729ade35d38",
      "transactionType": "CALL",
      "contractName": null,
      "contractAddress": "0x1736009b39009f1cd6f08791c781317c2dce4a88",
      "function": "setFeeMultiplier(uint8,uint256)",
      "arguments": [
        "17",
        "4"
      ],
      "transaction": {
        "from": "0xe62ab4d111f968660c6b2188046f9b9ba53c4bae",
        "to": "0x1736009b39009f1cd6f08791c781317c2dce4a88",
        "gas": "0x105a2",
        "value": "0x0",
        "input": "0x0ee24eb500000000000000000000000000000000000000000000000000000000000000110000000000000000000000000000000000000000000000000000000000000004",
        "nonce": "0x455",
        "chainId": "0x61"
      },
      "additionalContracts": [],
      "isFixedGasLimit": false
    },
    {
      "hash": "0x2a08fdaae73dea5e912d1258b89930ac1f2b348f0f31cda445b2389e573b54aa",
      "transactionType": "CALL",
      "contractName": null,
      "contractAddress": "0x1736009b39009f1cd6f08791c781317c2dce4a88",
      "function": "setFeeMultiplier(uint8,uint256)",
      "arguments": [
        "18",
        "2"
      ],
      "transaction": {
        "from": "0xe62ab4d111f968660c6b2188046f9b9ba53c4bae",
        "to": "0x1736009b39009f1cd6f08791c781317c2dce4a88",
        "gas": "0x11528",
        "value": "0x0",
        "input": "0x0ee24eb500000000000000000000000000000000000000000000000000000000000000120000000000000000000000000000000000000000000000000000000000000002",
        "nonce": "0x456",
        "chainId": "0x61"
      },
      "additionalContracts": [],
      "isFixedGasLimit": false
    },
    {
      "hash": "0x4cfb5114aa32eb482b884509f5dfd2b973189b3740bd45b4274c2804114b2090",
      "transactionType": "CALL",
      "contractName": null,
      "contractAddress": "0x1736009b39009f1cd6f08791c781317c2dce4a88",
      "function": "setFeeMultiplier(uint8,uint256)",
      "arguments": [
        "19",
        "20"
      ],
      "transaction": {
        "from": "0xe62ab4d111f968660c6b2188046f9b9ba53c4bae",
        "to": "0x1736009b39009f1cd6f08791c781317c2dce4a88",
        "gas": "0x1154a",
        "value": "0x0",
        "input": "0x0ee24eb500000000000000000000000000000000000000000000000000000000000000130000000000000000000000000000000000000000000000000000000000000014",
        "nonce": "0x457",
        "chainId": "0x61"
      },
      "additionalContracts": [],
      "isFixedGasLimit": false
    },
    {
      "hash": "0x8b4905adf46854c03b02aa60213d8791dc0fd733984c019c3534ab5c9ce81d9c",
      "transactionType": "CALL",
      "contractName": null,
      "contractAddress": "0x1736009b39009f1cd6f08791c781317c2dce4a88",
      "function": "setFeeMultiplier(uint8,uint256)",
      "arguments": [
        "20",
        "2"
      ],
      "transaction": {
        "from": "0xe62ab4d111f968660c6b2188046f9b9ba53c4bae",
        "to": "0x1736009b39009f1cd6f08791c781317c2dce4a88",
        "gas": "0x1156c",
        "value": "0x0",
        "input": "0x0ee24eb500000000000000000000000000000000000000000000000000000000000000140000000000000000000000000000000000000000000000000000000000000002",
        "nonce": "0x458",
        "chainId": "0x61"
      },
      "additionalContracts": [],
      "isFixedGasLimit": false
    },
    {
      "hash": "0xac5199c23570abd39241880a3fb69b8c95b8d8713b815c1d76933fe29a722546",
      "transactionType": "CALL",
      "contractName": null,
      "contractAddress": "0x1736009b39009f1cd6f08791c781317c2dce4a88",
      "function": "setFeeMultiplier(uint8,uint256)",
      "arguments": [
        "21",
        "1"
      ],
      "transaction": {
        "from": "0xe62ab4d111f968660c6b2188046f9b9ba53c4bae",
        "to": "0x1736009b39009f1cd6f08791c781317c2dce4a88",
        "gas": "0x10622",
        "value": "0x0",
        "input": "0x0ee24eb500000000000000000000000000000000000000000000000000000000000000150000000000000000000000000000000000000000000000000000000000000001",
        "nonce": "0x459",
        "chainId": "0x61"
      },
      "additionalContracts": [],
      "isFixedGasLimit": false
    },
    {
      "hash": "0x7d21bf5dc4fee2db9e4cf62169f11c85fd12fddbd5197deca3773de71c68927e",
      "transactionType": "CALL",
      "contractName": null,
      "contractAddress": "0x1736009b39009f1cd6f08791c781317c2dce4a88",
      "function": "setFeeMultiplier(uint8,uint256)",
      "arguments": [
        "22",
        "1"
      ],
      "transaction": {
        "from": "0xe62ab4d111f968660c6b2188046f9b9ba53c4bae",
        "to": "0x1736009b39009f1cd6f08791c781317c2dce4a88",
        "gas": "0x10641",
        "value": "0x0",
        "input": "0x0ee24eb500000000000000000000000000000000000000000000000000000000000000160000000000000000000000000000000000000000000000000000000000000001",
        "nonce": "0x45a",
        "chainId": "0x61"
      },
      "additionalContracts": [],
      "isFixedGasLimit": false
    },
    {
      "hash": "0xccfc1e07c064ae6dd5b5b9fb64b79089d42e84767bd7933880bbf624b7e6fded",
      "transactionType": "CALL",
      "contractName": null,
      "contractAddress": "0x1736009b39009f1cd6f08791c781317c2dce4a88",
      "function": "setFeeMultiplier(uint8,uint256)",
      "arguments": [
        "23",
        "5"
      ],
      "transaction": {
        "from": "0xe62ab4d111f968660c6b2188046f9b9ba53c4bae",
        "to": "0x1736009b39009f1cd6f08791c781317c2dce4a88",
        "gas": "0x10661",
        "value": "0x0",
        "input": "0x0ee24eb500000000000000000000000000000000000000000000000000000000000000170000000000000000000000000000000000000000000000000000000000000005",
        "nonce": "0x45b",
        "chainId": "0x61"
      },
      "additionalContracts": [],
      "isFixedGasLimit": false
    },
    {
      "hash": "0x90de5ba01c85536e2533f0f931e3c33c7aa40ecb4bea8e619fd36f677376b1db",
      "transactionType": "CALL",
      "contractName": null,
      "contractAddress": "0x1736009b39009f1cd6f08791c781317c2dce4a88",
      "function": "addFeeToken(string,string[],uint256[])",
      "arguments": [
        "421614",
        "[0xdd43fc986a13392ddbc7aea150b41efe27b2d0ed]",
        "[100]"
      ],
      "transaction": {
        "from": "0xe62ab4d111f968660c6b2188046f9b9ba53c4bae",
        "to": "0x1736009b39009f1cd6f08791c781317c2dce4a88",
        "gas": "0x2f2aa",
        "value": "0x0",
        "input": "0x437bf84f000000000000000000000000000000000000000000000000000000000000006000000000000000000000000000000000000000000000000000000000000000a000000000000000000000000000000000000000000000000000000000000001400000000000000000000000000000000000000000000000000000000000000006343231363134000000000000000000000000000000000000000000000000000000000000000000000000000000000000000000000000000000000000000000010000000000000000000000000000000000000000000000000000000000000020000000000000000000000000000000000000000000000000000000000000002a3078646434336663393836613133333932646462633761656131353062343165666532376232643065640000000000000000000000000000000000000000000000000000000000000000000000000000000000000000000000000000000000010000000000000000000000000000000000000000000000000000000000000064",
        "nonce": "0x45c",
        "chainId": "0x61"
      },
      "additionalContracts": [],
      "isFixedGasLimit": false
    },
    {
      "hash": "0x5ccd2449db5349ee839c109a05144b875e61217c9c28946152ee5225ef84ac4e",
      "transactionType": "CALL",
      "contractName": null,
      "contractAddress": "0x1736009b39009f1cd6f08791c781317c2dce4a88",
      "function": "addFeeToken(string,string[],uint256[])",
      "arguments": [
        "84532",
        "[0xdd43fc986a13392ddbc7aea150b41efe27b2d0ed]",
        "[100]"
      ],
      "transaction": {
        "from": "0xe62ab4d111f968660c6b2188046f9b9ba53c4bae",
        "to": "0x1736009b39009f1cd6f08791c781317c2dce4a88",
        "gas": "0x2c6a5",
        "value": "0x0",
        "input": "0x437bf84f000000000000000000000000000000000000000000000000000000000000006000000000000000000000000000000000000000000000000000000000000000a000000000000000000000000000000000000000000000000000000000000001400000000000000000000000000000000000000000000000000000000000000005383435333200000000000000000000000000000000000000000000000000000000000000000000000000000000000000000000000000000000000000000000010000000000000000000000000000000000000000000000000000000000000020000000000000000000000000000000000000000000000000000000000000002a3078646434336663393836613133333932646462633761656131353062343165666532376232643065640000000000000000000000000000000000000000000000000000000000000000000000000000000000000000000000000000000000010000000000000000000000000000000000000000000000000000000000000064",
        "nonce": "0x45d",
        "chainId": "0x61"
      },
      "additionalContracts": [],
      "isFixedGasLimit": false
    },
    {
      "hash": "0x65b6c479ce2cefeb413098d5c7182b9426b7bd84aeaaab7b80379df36f965d54",
      "transactionType": "CALL",
      "contractName": null,
      "contractAddress": "0x1736009b39009f1cd6f08791c781317c2dce4a88",
      "function": "addFeeToken(string,string[],uint256[])",
      "arguments": [
        "80002",
        "[0xdd43fc986a13392ddbc7aea150b41efe27b2d0ed]",
        "[100]"
      ],
      "transaction": {
        "from": "0xe62ab4d111f968660c6b2188046f9b9ba53c4bae",
        "to": "0x1736009b39009f1cd6f08791c781317c2dce4a88",
        "gas": "0x2c6a5",
        "value": "0x0",
        "input": "0x437bf84f000000000000000000000000000000000000000000000000000000000000006000000000000000000000000000000000000000000000000000000000000000a000000000000000000000000000000000000000000000000000000000000001400000000000000000000000000000000000000000000000000000000000000005383030303200000000000000000000000000000000000000000000000000000000000000000000000000000000000000000000000000000000000000000000010000000000000000000000000000000000000000000000000000000000000020000000000000000000000000000000000000000000000000000000000000002a3078646434336663393836613133333932646462633761656131353062343165666532376232643065640000000000000000000000000000000000000000000000000000000000000000000000000000000000000000000000000000000000010000000000000000000000000000000000000000000000000000000000000064",
        "nonce": "0x45e",
        "chainId": "0x61"
      },
      "additionalContracts": [],
      "isFixedGasLimit": false
    },
    {
      "hash": "0x34c36dca85517fe776a1d8a72c31b0be1459df16b68ca8118a460364efca7e2c",
      "transactionType": "CALL",
      "contractName": null,
      "contractAddress": "0x1736009b39009f1cd6f08791c781317c2dce4a88",
      "function": "addFeeToken(string,string[],uint256[])",
      "arguments": [
        "11155111",
        "[0xdd43fc986a13392ddbc7aea150b41efe27b2d0ed]",
        "[100]"
      ],
      "transaction": {
        "from": "0xe62ab4d111f968660c6b2188046f9b9ba53c4bae",
        "to": "0x1736009b39009f1cd6f08791c781317c2dce4a88",
        "gas": "0x2cd17",
        "value": "0x0",
        "input": "0x437bf84f000000000000000000000000000000000000000000000000000000000000006000000000000000000000000000000000000000000000000000000000000000a000000000000000000000000000000000000000000000000000000000000001400000000000000000000000000000000000000000000000000000000000000008313131353531313100000000000000000000000000000000000000000000000000000000000000000000000000000000000000000000000000000000000000010000000000000000000000000000000000000000000000000000000000000020000000000000000000000000000000000000000000000000000000000000002a3078646434336663393836613133333932646462633761656131353062343165666532376232643065640000000000000000000000000000000000000000000000000000000000000000000000000000000000000000000000000000000000010000000000000000000000000000000000000000000000000000000000000064",
        "nonce": "0x45f",
        "chainId": "0x61"
      },
      "additionalContracts": [],
      "isFixedGasLimit": false
    },
    {
      "hash": "0x9efdeb86c1b746d7c4836140fe176e15fa091576f7ec618c132c980c89b1d9fe",
      "transactionType": "CALL",
      "contractName": null,
      "contractAddress": "0x1736009b39009f1cd6f08791c781317c2dce4a88",
      "function": "addFeeToken(string,string[],uint256[])",
      "arguments": [
        "97",
        "[0xdd43fc986a13392ddbc7aea150b41efe27b2d0ed]",
        "[100]"
      ],
      "transaction": {
        "from": "0xe62ab4d111f968660c6b2188046f9b9ba53c4bae",
        "to": "0x1736009b39009f1cd6f08791c781317c2dce4a88",
        "gas": "0x2c034",
        "value": "0x0",
        "input": "0x437bf84f000000000000000000000000000000000000000000000000000000000000006000000000000000000000000000000000000000000000000000000000000000a000000000000000000000000000000000000000000000000000000000000001400000000000000000000000000000000000000000000000000000000000000002393700000000000000000000000000000000000000000000000000000000000000000000000000000000000000000000000000000000000000000000000000010000000000000000000000000000000000000000000000000000000000000020000000000000000000000000000000000000000000000000000000000000002a3078646434336663393836613133333932646462633761656131353062343165666532376232643065640000000000000000000000000000000000000000000000000000000000000000000000000000000000000000000000000000000000010000000000000000000000000000000000000000000000000000000000000064",
        "nonce": "0x460",
        "chainId": "0x61"
      },
      "additionalContracts": [],
      "isFixedGasLimit": false
    },
    {
      "hash": "0xffba5425809d32825d50f409a14cd4db07c929b383db0476a48cbbb67ebc1ab5",
      "transactionType": "CALL",
      "contractName": null,
      "contractAddress": "0x1736009b39009f1cd6f08791c781317c2dce4a88",
      "function": "addFeeToken(string,string[],uint256[])",
      "arguments": [
        "1952959480",
        "[0xdd43fc986a13392ddbc7aea150b41efe27b2d0ed]",
        "[100]"
      ],
      "transaction": {
        "from": "0xe62ab4d111f968660c6b2188046f9b9ba53c4bae",
        "to": "0x1736009b39009f1cd6f08791c781317c2dce4a88",
        "gas": "0x2d163",
        "value": "0x0",
        "input": "0x437bf84f000000000000000000000000000000000000000000000000000000000000006000000000000000000000000000000000000000000000000000000000000000a00000000000000000000000000000000000000000000000000000000000000140000000000000000000000000000000000000000000000000000000000000000a313935323935393438300000000000000000000000000000000000000000000000000000000000000000000000000000000000000000000000000000000000010000000000000000000000000000000000000000000000000000000000000020000000000000000000000000000000000000000000000000000000000000002a3078646434336663393836613133333932646462633761656131353062343165666532376232643065640000000000000000000000000000000000000000000000000000000000000000000000000000000000000000000000000000000000010000000000000000000000000000000000000000000000000000000000000064",
        "nonce": "0x461",
        "chainId": "0x61"
      },
      "additionalContracts": [],
      "isFixedGasLimit": false
    },
    {
      "hash": "0x06cc7f25acf5d9bda4d216f302a409a28b8bb6f7149ff30d6a25af1df3c2212e",
      "transactionType": "CALL",
      "contractName": null,
      "contractAddress": "0x1736009b39009f1cd6f08791c781317c2dce4a88",
      "function": "addFeeToken(string,string[],uint256[])",
      "arguments": [
        "5611",
        "[0xdd43fc986a13392ddbc7aea150b41efe27b2d0ed]",
        "[100]"
      ],
      "transaction": {
        "from": "0xe62ab4d111f968660c6b2188046f9b9ba53c4bae",
        "to": "0x1736009b39009f1cd6f08791c781317c2dce4a88",
        "gas": "0x2c480",
        "value": "0x0",
        "input": "0x437bf84f000000000000000000000000000000000000000000000000000000000000006000000000000000000000000000000000000000000000000000000000000000a000000000000000000000000000000000000000000000000000000000000001400000000000000000000000000000000000000000000000000000000000000004353631310000000000000000000000000000000000000000000000000000000000000000000000000000000000000000000000000000000000000000000000010000000000000000000000000000000000000000000000000000000000000020000000000000000000000000000000000000000000000000000000000000002a3078646434336663393836613133333932646462633761656131353062343165666532376232643065640000000000000000000000000000000000000000000000000000000000000000000000000000000000000000000000000000000000010000000000000000000000000000000000000000000000000000000000000064",
        "nonce": "0x462",
        "chainId": "0x61"
      },
      "additionalContracts": [],
      "isFixedGasLimit": false
    },
    {
      "hash": "0x2a011a1492f60dc42e1224cf7c8ca1422bb67422be21977e51912222cddbafc2",
      "transactionType": "CALL",
      "contractName": null,
      "contractAddress": "0x1736009b39009f1cd6f08791c781317c2dce4a88",
      "function": "addFeeToken(string,string[],uint256[])",
      "arguments": [
        "1946",
        "[0xdd43fc986a13392ddbc7aea150b41efe27b2d0ed]",
        "[100]"
      ],
      "transaction": {
        "from": "0xe62ab4d111f968660c6b2188046f9b9ba53c4bae",
        "to": "0x1736009b39009f1cd6f08791c781317c2dce4a88",
        "gas": "0x2c480",
        "value": "0x0",
        "input": "0x437bf84f000000000000000000000000000000000000000000000000000000000000006000000000000000000000000000000000000000000000000000000000000000a000000000000000000000000000000000000000000000000000000000000001400000000000000000000000000000000000000000000000000000000000000004313934360000000000000000000000000000000000000000000000000000000000000000000000000000000000000000000000000000000000000000000000010000000000000000000000000000000000000000000000000000000000000020000000000000000000000000000000000000000000000000000000000000002a3078646434336663393836613133333932646462633761656131353062343165666532376232643065640000000000000000000000000000000000000000000000000000000000000000000000000000000000000000000000000000000000010000000000000000000000000000000000000000000000000000000000000064",
        "nonce": "0x463",
        "chainId": "0x61"
      },
      "additionalContracts": [],
      "isFixedGasLimit": false
    },
    {
      "hash": "0xd4cd6531d7529b618e10e8e5ea740a03c1df85ba1213fa5bbe4ef8aa514ca3a9",
      "transactionType": "CALL",
      "contractName": null,
      "contractAddress": "0x1736009b39009f1cd6f08791c781317c2dce4a88",
      "function": "addFeeToken(string,string[],uint256[])",
      "arguments": [
        "534351",
        "[0xdd43fc986a13392ddbc7aea150b41efe27b2d0ed]",
        "[100]"
      ],
      "transaction": {
        "from": "0xe62ab4d111f968660c6b2188046f9b9ba53c4bae",
        "to": "0x1736009b39009f1cd6f08791c781317c2dce4a88",
        "gas": "0x2c8cb",
        "value": "0x0",
        "input": "0x437bf84f000000000000000000000000000000000000000000000000000000000000006000000000000000000000000000000000000000000000000000000000000000a000000000000000000000000000000000000000000000000000000000000001400000000000000000000000000000000000000000000000000000000000000006353334333531000000000000000000000000000000000000000000000000000000000000000000000000000000000000000000000000000000000000000000010000000000000000000000000000000000000000000000000000000000000020000000000000000000000000000000000000000000000000000000000000002a3078646434336663393836613133333932646462633761656131353062343165666532376232643065640000000000000000000000000000000000000000000000000000000000000000000000000000000000000000000000000000000000010000000000000000000000000000000000000000000000000000000000000064",
        "nonce": "0x464",
        "chainId": "0x61"
      },
      "additionalContracts": [],
      "isFixedGasLimit": false
    },
    {
      "hash": "0xe3fe9043478b2cb706514405df557e38f5a084c6b029e79425650996458046a9",
      "transactionType": "CALL",
      "contractName": null,
      "contractAddress": "0x1736009b39009f1cd6f08791c781317c2dce4a88",
      "function": "addFeeToken(string,string[],uint256[])",
      "arguments": [
        "17000",
        "[0xdd43fc986a13392ddbc7aea150b41efe27b2d0ed]",
        "[100]"
      ],
      "transaction": {
        "from": "0xe62ab4d111f968660c6b2188046f9b9ba53c4bae",
        "to": "0x1736009b39009f1cd6f08791c781317c2dce4a88",
        "gas": "0x2c6a5",
        "value": "0x0",
        "input": "0x437bf84f000000000000000000000000000000000000000000000000000000000000006000000000000000000000000000000000000000000000000000000000000000a000000000000000000000000000000000000000000000000000000000000001400000000000000000000000000000000000000000000000000000000000000005313730303000000000000000000000000000000000000000000000000000000000000000000000000000000000000000000000000000000000000000000000010000000000000000000000000000000000000000000000000000000000000020000000000000000000000000000000000000000000000000000000000000002a3078646434336663393836613133333932646462633761656131353062343165666532376232643065640000000000000000000000000000000000000000000000000000000000000000000000000000000000000000000000000000000000010000000000000000000000000000000000000000000000000000000000000064",
        "nonce": "0x465",
        "chainId": "0x61"
      },
      "additionalContracts": [],
      "isFixedGasLimit": false
    },
    {
      "hash": "0xaae830e5e2f78546dbbf90ca6936e307f206ee242686ae311aaa0218cc33dee2",
      "transactionType": "CALL",
      "contractName": null,
      "contractAddress": "0x1736009b39009f1cd6f08791c781317c2dce4a88",
      "function": "addFeeToken(string,string[],uint256[])",
      "arguments": [
        "5003",
        "[0xdd43fc986a13392ddbc7aea150b41efe27b2d0ed]",
        "[100]"
      ],
      "transaction": {
        "from": "0xe62ab4d111f968660c6b2188046f9b9ba53c4bae",
        "to": "0x1736009b39009f1cd6f08791c781317c2dce4a88",
        "gas": "0x2c480",
        "value": "0x0",
        "input": "0x437bf84f000000000000000000000000000000000000000000000000000000000000006000000000000000000000000000000000000000000000000000000000000000a000000000000000000000000000000000000000000000000000000000000001400000000000000000000000000000000000000000000000000000000000000004353030330000000000000000000000000000000000000000000000000000000000000000000000000000000000000000000000000000000000000000000000010000000000000000000000000000000000000000000000000000000000000020000000000000000000000000000000000000000000000000000000000000002a3078646434336663393836613133333932646462633761656131353062343165666532376232643065640000000000000000000000000000000000000000000000000000000000000000000000000000000000000000000000000000000000010000000000000000000000000000000000000000000000000000000000000064",
        "nonce": "0x466",
        "chainId": "0x61"
      },
      "additionalContracts": [],
      "isFixedGasLimit": false
    },
    {
      "hash": "0x9e60aa2858c1ebcd455d1265a881b627cb48b8336ecf9d0a2b6963285f024ab6",
      "transactionType": "CALL",
      "contractName": null,
      "contractAddress": "0x1736009b39009f1cd6f08791c781317c2dce4a88",
      "function": "addFeeToken(string,string[],uint256[])",
      "arguments": [
        "168587773",
        "[0xdd43fc986a13392ddbc7aea150b41efe27b2d0ed]",
        "[100]"
      ],
      "transaction": {
        "from": "0xe62ab4d111f968660c6b2188046f9b9ba53c4bae",
        "to": "0x1736009b39009f1cd6f08791c781317c2dce4a88",
        "gas": "0x2cf3d",
        "value": "0x0",
        "input": "0x437bf84f000000000000000000000000000000000000000000000000000000000000006000000000000000000000000000000000000000000000000000000000000000a000000000000000000000000000000000000000000000000000000000000001400000000000000000000000000000000000000000000000000000000000000009313638353837373733000000000000000000000000000000000000000000000000000000000000000000000000000000000000000000000000000000000000010000000000000000000000000000000000000000000000000000000000000020000000000000000000000000000000000000000000000000000000000000002a3078646434336663393836613133333932646462633761656131353062343165666532376232643065640000000000000000000000000000000000000000000000000000000000000000000000000000000000000000000000000000000000010000000000000000000000000000000000000000000000000000000000000064",
        "nonce": "0x467",
        "chainId": "0x61"
      },
      "additionalContracts": [],
      "isFixedGasLimit": false
    },
    {
      "hash": "0xfadebc4cba9fb031ce4c545a0df1d9b9d14bcb478f4898d0425e10ad8a60b993",
      "transactionType": "CALL",
      "contractName": null,
      "contractAddress": "0x1736009b39009f1cd6f08791c781317c2dce4a88",
      "function": "addFeeToken(string,string[],uint256[])",
      "arguments": [
        "153",
        "[0xdd43fc986a13392ddbc7aea150b41efe27b2d0ed]",
        "[100]"
      ],
      "transaction": {
        "from": "0xe62ab4d111f968660c6b2188046f9b9ba53c4bae",
        "to": "0x1736009b39009f1cd6f08791c781317c2dce4a88",
        "gas": "0x2c25a",
        "value": "0x0",
        "input": "0x437bf84f000000000000000000000000000000000000000000000000000000000000006000000000000000000000000000000000000000000000000000000000000000a000000000000000000000000000000000000000000000000000000000000001400000000000000000000000000000000000000000000000000000000000000003313533000000000000000000000000000000000000000000000000000000000000000000000000000000000000000000000000000000000000000000000000010000000000000000000000000000000000000000000000000000000000000020000000000000000000000000000000000000000000000000000000000000002a3078646434336663393836613133333932646462633761656131353062343165666532376232643065640000000000000000000000000000000000000000000000000000000000000000000000000000000000000000000000000000000000010000000000000000000000000000000000000000000000000000000000000064",
        "nonce": "0x468",
        "chainId": "0x61"
      },
      "additionalContracts": [],
      "isFixedGasLimit": false
    },
    {
      "hash": "0xb4f77af2301871d92539ae83be6f66ba653e7121584325665859ca34a44cb733",
      "transactionType": "CALL",
      "contractName": null,
      "contractAddress": "0x1736009b39009f1cd6f08791c781317c2dce4a88",
      "function": "addFeeToken(string,string[],uint256[])",
      "arguments": [
        "11155420",
        "[0xdd43fc986a13392ddbc7aea150b41efe27b2d0ed]",
        "[100]"
      ],
      "transaction": {
        "from": "0xe62ab4d111f968660c6b2188046f9b9ba53c4bae",
        "to": "0x1736009b39009f1cd6f08791c781317c2dce4a88",
        "gas": "0x2cd17",
        "value": "0x0",
        "input": "0x437bf84f000000000000000000000000000000000000000000000000000000000000006000000000000000000000000000000000000000000000000000000000000000a000000000000000000000000000000000000000000000000000000000000001400000000000000000000000000000000000000000000000000000000000000008313131353534323000000000000000000000000000000000000000000000000000000000000000000000000000000000000000000000000000000000000000010000000000000000000000000000000000000000000000000000000000000020000000000000000000000000000000000000000000000000000000000000002a3078646434336663393836613133333932646462633761656131353062343165666532376232643065640000000000000000000000000000000000000000000000000000000000000000000000000000000000000000000000000000000000010000000000000000000000000000000000000000000000000000000000000064",
        "nonce": "0x469",
        "chainId": "0x61"
      },
      "additionalContracts": [],
      "isFixedGasLimit": false
    },
    {
      "hash": "0x6eb21cb0bdf7c50d71bd2aee5b8265255b82ea746e9ca6128a9f9aa33bf8dd8b",
      "transactionType": "CALL",
      "contractName": null,
      "contractAddress": "0x1736009b39009f1cd6f08791c781317c2dce4a88",
      "function": "addFeeToken(string,string[],uint256[])",
      "arguments": [
        "43113",
        "[0xdd43fc986a13392ddbc7aea150b41efe27b2d0ed]",
        "[100]"
      ],
      "transaction": {
        "from": "0xe62ab4d111f968660c6b2188046f9b9ba53c4bae",
        "to": "0x1736009b39009f1cd6f08791c781317c2dce4a88",
        "gas": "0x2c6a5",
        "value": "0x0",
        "input": "0x437bf84f000000000000000000000000000000000000000000000000000000000000006000000000000000000000000000000000000000000000000000000000000000a000000000000000000000000000000000000000000000000000000000000001400000000000000000000000000000000000000000000000000000000000000005343331313300000000000000000000000000000000000000000000000000000000000000000000000000000000000000000000000000000000000000000000010000000000000000000000000000000000000000000000000000000000000020000000000000000000000000000000000000000000000000000000000000002a3078646434336663393836613133333932646462633761656131353062343165666532376232643065640000000000000000000000000000000000000000000000000000000000000000000000000000000000000000000000000000000000010000000000000000000000000000000000000000000000000000000000000064",
        "nonce": "0x46a",
        "chainId": "0x61"
      },
      "additionalContracts": [],
      "isFixedGasLimit": false
    },
    {
      "hash": "0xad0bc91617c8fbde9bc4d23f8b0dd6b915454af5fc3d98ed0fa5bd3d4bba387f",
      "transactionType": "CALL",
      "contractName": null,
      "contractAddress": "0x7a63f6b51c503e9a3354af8262e8c7129abdbbeb",
      "function": "addChainContract(string[],string[])",
      "arguments": [
        "[421614, 84532, 80002, 11155111, 1952959480, 5611, 1946, 534351, 17000, 5003, 168587773, 153, 11155420, 43113]",
        "[0xfa89dd803b8872f991997778d26c74a3aecd9639, 0x31f21c6e2605d28e6b204cd323ff58421fc8dd00, 0x66db3f564807fdc689ec85285981ef464daeb943, 0x13797c225f8e3645299f17d83365e0f5db1c1607, 0x5fd63ca6c373cd35e8e373fb5fa7830a8783eced, 0x78f81b1aee019efaafe58853d96c5e9ac87be731, 0xa7441037961e31d4b64aca57417d7673fedc8fec, 0x1944f7fdd330af7b0e7c08349591213e35ed5948, 0x1eebc47aae37f2ea390869efe60db5a2cf2c9d80, 0xf5b9b2dcda465ad62b56390da5c36e4403e5ae92, 0xea4a06cb68aba869e6bf98edc4bdbc731d2d82e3, 0xfbdbf53eb371419e92c718ac76632c7f3617545a, 0xf74b4051a565399b114a0fd6a674ecab864ae186, 0x8176186fa521e54f12dd8011eb6729003e3d3fe0]"
      ],
      "transaction": {
        "from": "0xe62ab4d111f968660c6b2188046f9b9ba53c4bae",
        "to": "0x7a63f6b51c503e9a3354af8262e8c7129abdbbeb",
        "gas": "0x25abe8",
        "value": "0x0",
        "input": "0x013fd3bd000000000000000000000000000000000000000000000000000000000000004000000000000000000000000000000000000000000000000000000000000005a0000000000000000000000000000000000000000000000000000000000000000e00000000000000000000000000000000000000000000000000000000000001c000000000000000000000000000000000000000000000000000000000000002000000000000000000000000000000000000000000000000000000000000000240000000000000000000000000000000000000000000000000000000000000028000000000000000000000000000000000000000000000000000000000000002c000000000000000000000000000000000000000000000000000000000000003000000000000000000000000000000000000000000000000000000000000000340000000000000000000000000000000000000000000000000000000000000038000000000000000000000000000000000000000000000000000000000000003c000000000000000000000000000000000000000000000000000000000000004000000000000000000000000000000000000000000000000000000000000000440000000000000000000000000000000000000000000000000000000000000048000000000000000000000000000000000000000000000000000000000000004c0000000000000000000000000000000000000000000000000000000000000050000000000000000000000000000000000000000000000000000000000000000063432313631340000000000000000000000000000000000000000000000000000000000000000000000000000000000000000000000000000000000000000000538343533320000000000000000000000000000000000000000000000000000000000000000000000000000000000000000000000000000000000000000000005383030303200000000000000000000000000000000000000000000000000000000000000000000000000000000000000000000000000000000000000000000083131313535313131000000000000000000000000000000000000000000000000000000000000000000000000000000000000000000000000000000000000000a3139353239353934383000000000000000000000000000000000000000000000000000000000000000000000000000000000000000000000000000000000000435363131000000000000000000000000000000000000000000000000000000000000000000000000000000000000000000000000000000000000000000000004313934360000000000000000000000000000000000000000000000000000000000000000000000000000000000000000000000000000000000000000000000063533343335310000000000000000000000000000000000000000000000000000000000000000000000000000000000000000000000000000000000000000000531373030300000000000000000000000000000000000000000000000000000000000000000000000000000000000000000000000000000000000000000000004353030330000000000000000000000000000000000000000000000000000000000000000000000000000000000000000000000000000000000000000000000093136383538373737330000000000000000000000000000000000000000000000000000000000000000000000000000000000000000000000000000000000000331353300000000000000000000000000000000000000000000000000000000000000000000000000000000000000000000000000000000000000000000000008313131353534323000000000000000000000000000000000000000000000000000000000000000000000000000000000000000000000000000000000000000053433313133000000000000000000000000000000000000000000000000000000000000000000000000000000000000000000000000000000000000000000000e00000000000000000000000000000000000000000000000000000000000001c00000000000000000000000000000000000000000000000000000000000000220000000000000000000000000000000000000000000000000000000000000028000000000000000000000000000000000000000000000000000000000000002e0000000000000000000000000000000000000000000000000000000000000034000000000000000000000000000000000000000000000000000000000000003a00000000000000000000000000000000000000000000000000000000000000400000000000000000000000000000000000000000000000000000000000000046000000000000000000000000000000000000000000000000000000000000004c00000000000000000000000000000000000000000000000000000000000000520000000000000000000000000000000000000000000000000000000000000058000000000000000000000000000000000000000000000000000000000000005e0000000000000000000000000000000000000000000000000000000000000064000000000000000000000000000000000000000000000000000000000000006a0000000000000000000000000000000000000000000000000000000000000002a30786661383964643830336238383732663939313939373737386432366337346133616563643936333900000000000000000000000000000000000000000000000000000000000000000000000000000000000000000000000000000000002a30783331663231633665323630356432386536623230346364333233666635383432316663386464303000000000000000000000000000000000000000000000000000000000000000000000000000000000000000000000000000000000002a30783636646233663536343830376664633638396563383532383539383165663436346461656239343300000000000000000000000000000000000000000000000000000000000000000000000000000000000000000000000000000000002a30783133373937633232356638653336343532393966313764383333363565306635646231633136303700000000000000000000000000000000000000000000000000000000000000000000000000000000000000000000000000000000002a30783566643633636136633337336364333565386533373366623566613738333061383738336563656400000000000000000000000000000000000000000000000000000000000000000000000000000000000000000000000000000000002a30783738663831623161656530313965666161666535383835336439366335653961633837626537333100000000000000000000000000000000000000000000000000000000000000000000000000000000000000000000000000000000002a30786137343431303337393631653331643462363461636135373431376437363733666564633866656300000000000000000000000000000000000000000000000000000000000000000000000000000000000000000000000000000000002a30783139343466376664643333306166376230653763303833343935393132313365333565643539343800000000000000000000000000000000000000000000000000000000000000000000000000000000000000000000000000000000002a30783165656263343761616533376632656133393038363965666536306462356132636632633964383000000000000000000000000000000000000000000000000000000000000000000000000000000000000000000000000000000000002a30786635623962326463646134363561643632623536333930646135633336653434303365356165393200000000000000000000000000000000000000000000000000000000000000000000000000000000000000000000000000000000002a30786561346130366362363861626138363965366266393865646334626462633733316432643832653300000000000000000000000000000000000000000000000000000000000000000000000000000000000000000000000000000000002a30786662646266353365623337313431396539326337313861633736363332633766333631373534356100000000000000000000000000000000000000000000000000000000000000000000000000000000000000000000000000000000002a30786637346234303531613536353339396231313461306664366136373465636162383634616531383600000000000000000000000000000000000000000000000000000000000000000000000000000000000000000000000000000000002a30783831373631383666613532316535346631326464383031316562363732393030336533643366653000000000000000000000000000000000000000000000",
        "nonce": "0x46b",
        "chainId": "0x61"
      },
      "additionalContracts": [],
      "isFixedGasLimit": false
    },
    {
      "hash": "0xe28fbcb31da5cd835db9652b928e9369444d4db69820f08a9d3e1bb0bbd5e2a7",
      "transactionType": "CALL",
      "contractName": null,
      "contractAddress": "0x7a63f6b51c503e9a3354af8262e8c7129abdbbeb",
      "function": "attachRWAX(uint256,uint256,string[],string[])",
      "arguments": [
        "1",
        "1",
        "[97, 421614, 84532, 80002, 11155111, 1952959480, 5611, 1946, 534351, 17000, 5003, 168587773, 153, 11155420, 43113]",
        "[0x37c7137dc6e3dc3c3637bfed3f6dbfbd43386429, 0x8bd737f4ea451911edf0445acb1b7efdc9565221, 0x8736d3b789a6548cc8fb607da34ed860ab626322, 0x2da1b2763cf56b9df5cbbb5a996c7e8836d8c6d8, 0x778511925d3243cf03a2486386ecc363e9ad6647, 0x62421e1c0110aebd376e34411c2616c10eff9161, 0x7743150e59d6a27ec96ddda07b24131d0122b611, 0xf299832e535b9cc50d4002909061c320964d03fc, 0x1249d751e6a0b7b11b9e55cbf8bc7d397ac3c083, 0x9372cd1287e0bb6337802d80dff342348c85fd78, 0x6b39331e9478571bf6d55842aab470ba3196bd5a, 0x9a0f81de582ce9194feadc6ccefaf9ea70451616, 0xfdf17bece656a0ac2d1302305962122a968eea28, 0xb9de1c03eea7546d9db1fa6fc19dfa7443f0aede, 0x5e0d85dfa2827cd3065ab2d4af93e58dc82c5e96]"
      ],
      "transaction": {
        "from": "0xe62ab4d111f968660c6b2188046f9b9ba53c4bae",
        "to": "0x7a63f6b51c503e9a3354af8262e8c7129abdbbeb",
        "gas": "0x30b912",
        "value": "0x0",
        "input": "0x33a5f5b40000000000000000000000000000000000000000000000000000000000000001000000000000000000000000000000000000000000000000000000000000000100000000000000000000000000000000000000000000000000000000000000800000000000000000000000000000000000000000000000000000000000000640000000000000000000000000000000000000000000000000000000000000000f00000000000000000000000000000000000000000000000000000000000001e00000000000000000000000000000000000000000000000000000000000000220000000000000000000000000000000000000000000000000000000000000026000000000000000000000000000000000000000000000000000000000000002a000000000000000000000000000000000000000000000000000000000000002e00000000000000000000000000000000000000000000000000000000000000320000000000000000000000000000000000000000000000000000000000000036000000000000000000000000000000000000000000000000000000000000003a000000000000000000000000000000000000000000000000000000000000003e00000000000000000000000000000000000000000000000000000000000000420000000000000000000000000000000000000000000000000000000000000046000000000000000000000000000000000000000000000000000000000000004a000000000000000000000000000000000000000000000000000000000000004e0000000000000000000000000000000000000000000000000000000000000052000000000000000000000000000000000000000000000000000000000000005600000000000000000000000000000000000000000000000000000000000000002393700000000000000000000000000000000000000000000000000000000000000000000000000000000000000000000000000000000000000000000000000063432313631340000000000000000000000000000000000000000000000000000000000000000000000000000000000000000000000000000000000000000000538343533320000000000000000000000000000000000000000000000000000000000000000000000000000000000000000000000000000000000000000000005383030303200000000000000000000000000000000000000000000000000000000000000000000000000000000000000000000000000000000000000000000083131313535313131000000000000000000000000000000000000000000000000000000000000000000000000000000000000000000000000000000000000000a3139353239353934383000000000000000000000000000000000000000000000000000000000000000000000000000000000000000000000000000000000000435363131000000000000000000000000000000000000000000000000000000000000000000000000000000000000000000000000000000000000000000000004313934360000000000000000000000000000000000000000000000000000000000000000000000000000000000000000000000000000000000000000000000063533343335310000000000000000000000000000000000000000000000000000000000000000000000000000000000000000000000000000000000000000000531373030300000000000000000000000000000000000000000000000000000000000000000000000000000000000000000000000000000000000000000000004353030330000000000000000000000000000000000000000000000000000000000000000000000000000000000000000000000000000000000000000000000093136383538373737330000000000000000000000000000000000000000000000000000000000000000000000000000000000000000000000000000000000000331353300000000000000000000000000000000000000000000000000000000000000000000000000000000000000000000000000000000000000000000000008313131353534323000000000000000000000000000000000000000000000000000000000000000000000000000000000000000000000000000000000000000053433313133000000000000000000000000000000000000000000000000000000000000000000000000000000000000000000000000000000000000000000000f00000000000000000000000000000000000000000000000000000000000001e0000000000000000000000000000000000000000000000000000000000000024000000000000000000000000000000000000000000000000000000000000002a00000000000000000000000000000000000000000000000000000000000000300000000000000000000000000000000000000000000000000000000000000036000000000000000000000000000000000000000000000000000000000000003c00000000000000000000000000000000000000000000000000000000000000420000000000000000000000000000000000000000000000000000000000000048000000000000000000000000000000000000000000000000000000000000004e0000000000000000000000000000000000000000000000000000000000000054000000000000000000000000000000000000000000000000000000000000005a00000000000000000000000000000000000000000000000000000000000000600000000000000000000000000000000000000000000000000000000000000066000000000000000000000000000000000000000000000000000000000000006c00000000000000000000000000000000000000000000000000000000000000720000000000000000000000000000000000000000000000000000000000000002a30783337633731333764633665336463336333363337626665643366366462666264343333383634323900000000000000000000000000000000000000000000000000000000000000000000000000000000000000000000000000000000002a30783862643733376634656134353139313165646630343435616362316237656664633935363532323100000000000000000000000000000000000000000000000000000000000000000000000000000000000000000000000000000000002a30783837333664336237383961363534386363386662363037646133346564383630616236323633323200000000000000000000000000000000000000000000000000000000000000000000000000000000000000000000000000000000002a30783264613162323736336366353662396466356362626235613939366337653838333664386336643800000000000000000000000000000000000000000000000000000000000000000000000000000000000000000000000000000000002a30783737383531313932356433323433636630336132343836333836656363333633653961643636343700000000000000000000000000000000000000000000000000000000000000000000000000000000000000000000000000000000002a30783632343231653163303131306165626433373665333434313163323631366331306566663931363100000000000000000000000000000000000000000000000000000000000000000000000000000000000000000000000000000000002a30783737343331353065353964366132376563393664646461303762323431333164303132326236313100000000000000000000000000000000000000000000000000000000000000000000000000000000000000000000000000000000002a30786632393938333265353335623963633530643430303239303930363163333230393634643033666300000000000000000000000000000000000000000000000000000000000000000000000000000000000000000000000000000000002a30783132343964373531653661306237623131623965353563626638626337643339376163336330383300000000000000000000000000000000000000000000000000000000000000000000000000000000000000000000000000000000002a30783933373263643132383765306262363333373830326438306466663334323334386338356664373800000000000000000000000000000000000000000000000000000000000000000000000000000000000000000000000000000000002a30783662333933333165393437383537316266366435353834326161623437306261333139366264356100000000000000000000000000000000000000000000000000000000000000000000000000000000000000000000000000000000002a30783961306638316465353832636539313934666561646336636365666166396561373034353136313600000000000000000000000000000000000000000000000000000000000000000000000000000000000000000000000000000000002a30786664663137626563653635366130616332643133303233303539363231323261393638656561323800000000000000000000000000000000000000000000000000000000000000000000000000000000000000000000000000000000002a30786239646531633033656561373534366439646231666136666331396466613734343366306165646500000000000000000000000000000000000000000000000000000000000000000000000000000000000000000000000000000000002a30783565306438356466613238323763643330363561623264346166393365353864633832633565393600000000000000000000000000000000000000000000",
        "nonce": "0x46c",
        "chainId": "0x61"
      },
      "additionalContracts": [],
      "isFixedGasLimit": false
    },
    {
      "hash": "0xb0290693296b11f30f34a64d883ca5b9139ea2a643241f15853aa93438f9d791",
      "transactionType": "CALL",
      "contractName": null,
      "contractAddress": "0x7a63f6b51c503e9a3354af8262e8c7129abdbbeb",
      "function": "attachStorageManager(uint256,uint256,string[],string[])",
      "arguments": [
        "1",
        "1",
        "[97, 421614, 84532, 80002, 11155111, 1952959480, 5611, 1946, 534351, 17000, 5003, 168587773, 153, 11155420, 43113]",
        "[0x71645806ee984439adc3352abb5491ec03928e63, 0x7ab4de775c88e4aa4c93d0078d8318463fabfb13, 0x7e0858de387f30ebc0bc2f24a35dc4ad9231cffd, 0xb3d138f0613cc476faa8c5e2c1a64e90d9d506f3, 0x6681db630eb117050d78e0b89eb5619b35ea12e8, 0xe3a405aa844da4b6e83eae852ba471219163cbe0, 0x926df1f820af8e3cf53a58c94332eb16ba4cb4b5, 0x3f547b04f8cf9552434b7f3a51fc23247911b797, 0xb406b937c12e03d676727fc1bb686279eedbc178, 0xe148fbc6c35b6cecc50d18ebf69959a6a989cb7c, 0xf3f62daf8f096e5e1e8626cf2f35d816d454bc93, 0x8d4eee23a687b304e94eee3211f3058a60744502, 0x35f5b7a7469c7b3e3bb159335ec92ce74f7f11cd, 0x6429d598684efbe5a5ff70451e7b2c501c85e254, 0xae66c08b9d76eecaa74314c60f3305d43707acc9]"
      ],
      "transaction": {
        "from": "0xe62ab4d111f968660c6b2188046f9b9ba53c4bae",
        "to": "0x7a63f6b51c503e9a3354af8262e8c7129abdbbeb",
        "gas": "0x2b63b3",
        "value": "0x0",
        "input": "0x2f68b4890000000000000000000000000000000000000000000000000000000000000001000000000000000000000000000000000000000000000000000000000000000100000000000000000000000000000000000000000000000000000000000000800000000000000000000000000000000000000000000000000000000000000640000000000000000000000000000000000000000000000000000000000000000f00000000000000000000000000000000000000000000000000000000000001e00000000000000000000000000000000000000000000000000000000000000220000000000000000000000000000000000000000000000000000000000000026000000000000000000000000000000000000000000000000000000000000002a000000000000000000000000000000000000000000000000000000000000002e00000000000000000000000000000000000000000000000000000000000000320000000000000000000000000000000000000000000000000000000000000036000000000000000000000000000000000000000000000000000000000000003a000000000000000000000000000000000000000000000000000000000000003e00000000000000000000000000000000000000000000000000000000000000420000000000000000000000000000000000000000000000000000000000000046000000000000000000000000000000000000000000000000000000000000004a000000000000000000000000000000000000000000000000000000000000004e0000000000000000000000000000000000000000000000000000000000000052000000000000000000000000000000000000000000000000000000000000005600000000000000000000000000000000000000000000000000000000000000002393700000000000000000000000000000000000000000000000000000000000000000000000000000000000000000000000000000000000000000000000000063432313631340000000000000000000000000000000000000000000000000000000000000000000000000000000000000000000000000000000000000000000538343533320000000000000000000000000000000000000000000000000000000000000000000000000000000000000000000000000000000000000000000005383030303200000000000000000000000000000000000000000000000000000000000000000000000000000000000000000000000000000000000000000000083131313535313131000000000000000000000000000000000000000000000000000000000000000000000000000000000000000000000000000000000000000a3139353239353934383000000000000000000000000000000000000000000000000000000000000000000000000000000000000000000000000000000000000435363131000000000000000000000000000000000000000000000000000000000000000000000000000000000000000000000000000000000000000000000004313934360000000000000000000000000000000000000000000000000000000000000000000000000000000000000000000000000000000000000000000000063533343335310000000000000000000000000000000000000000000000000000000000000000000000000000000000000000000000000000000000000000000531373030300000000000000000000000000000000000000000000000000000000000000000000000000000000000000000000000000000000000000000000004353030330000000000000000000000000000000000000000000000000000000000000000000000000000000000000000000000000000000000000000000000093136383538373737330000000000000000000000000000000000000000000000000000000000000000000000000000000000000000000000000000000000000331353300000000000000000000000000000000000000000000000000000000000000000000000000000000000000000000000000000000000000000000000008313131353534323000000000000000000000000000000000000000000000000000000000000000000000000000000000000000000000000000000000000000053433313133000000000000000000000000000000000000000000000000000000000000000000000000000000000000000000000000000000000000000000000f00000000000000000000000000000000000000000000000000000000000001e0000000000000000000000000000000000000000000000000000000000000024000000000000000000000000000000000000000000000000000000000000002a00000000000000000000000000000000000000000000000000000000000000300000000000000000000000000000000000000000000000000000000000000036000000000000000000000000000000000000000000000000000000000000003c00000000000000000000000000000000000000000000000000000000000000420000000000000000000000000000000000000000000000000000000000000048000000000000000000000000000000000000000000000000000000000000004e0000000000000000000000000000000000000000000000000000000000000054000000000000000000000000000000000000000000000000000000000000005a00000000000000000000000000000000000000000000000000000000000000600000000000000000000000000000000000000000000000000000000000000066000000000000000000000000000000000000000000000000000000000000006c00000000000000000000000000000000000000000000000000000000000000720000000000000000000000000000000000000000000000000000000000000002a30783731363435383036656539383434333961646333333532616262353439316563303339323865363300000000000000000000000000000000000000000000000000000000000000000000000000000000000000000000000000000000002a30783761623464653737356338386534616134633933643030373864383331383436336661626662313300000000000000000000000000000000000000000000000000000000000000000000000000000000000000000000000000000000002a30783765303835386465333837663330656263306263326632346133356463346164393233316366666400000000000000000000000000000000000000000000000000000000000000000000000000000000000000000000000000000000002a30786233643133386630363133636334373666616138633565326331613634653930643964353036663300000000000000000000000000000000000000000000000000000000000000000000000000000000000000000000000000000000002a30783636383164623633306562313137303530643738653062383965623536313962333565613132653800000000000000000000000000000000000000000000000000000000000000000000000000000000000000000000000000000000002a30786533613430356161383434646134623665383365616538353262613437313231393136336362653000000000000000000000000000000000000000000000000000000000000000000000000000000000000000000000000000000000002a30783932366466316638323061663865336366353361353863393433333265623136626134636234623500000000000000000000000000000000000000000000000000000000000000000000000000000000000000000000000000000000002a30783366353437623034663863663935353234333462376633613531666332333234373931316237393700000000000000000000000000000000000000000000000000000000000000000000000000000000000000000000000000000000002a30786234303662393337633132653033643637363732376663316262363836323739656564626331373800000000000000000000000000000000000000000000000000000000000000000000000000000000000000000000000000000000002a30786531343866626336633335623663656363353064313865626636393935396136613938396362376300000000000000000000000000000000000000000000000000000000000000000000000000000000000000000000000000000000002a30786633663632646166386630393665356531653836323663663266333564383136643435346263393300000000000000000000000000000000000000000000000000000000000000000000000000000000000000000000000000000000002a30783864346565653233613638376233303465393465656533323131663330353861363037343435303200000000000000000000000000000000000000000000000000000000000000000000000000000000000000000000000000000000002a30783335663562376137343639633762336533626231353933333565633932636537346637663131636400000000000000000000000000000000000000000000000000000000000000000000000000000000000000000000000000000000002a30783634323964353938363834656662653561356666373034353165376232633530316338356532353400000000000000000000000000000000000000000000000000000000000000000000000000000000000000000000000000000000002a30786165363663303862396437366565636161373433313463363066333330356434333730376163633900000000000000000000000000000000000000000000",
        "nonce": "0x46d",
        "chainId": "0x61"
      },
      "additionalContracts": [],
      "isFixedGasLimit": false
    },
    {
      "hash": "0xcb0e0bb8386d270a137fcb7ee3516d0b2abb3a451759fd2fe09404262ed79763",
      "transactionType": "CALL",
      "contractName": null,
      "contractAddress": "0x7a63f6b51c503e9a3354af8262e8c7129abdbbeb",
      "function": "attachSentryManager(uint256,uint256,string[],string[])",
      "arguments": [
        "1",
        "1",
        "[97, 421614, 84532, 80002, 11155111, 1952959480, 5611, 1946, 534351, 17000, 5003, 168587773, 153, 11155420, 43113]",
        "[0x0d7b0bb763557ea0c7c2d938b5ae3d5ccbbf8d44, 0xb63f83484b9bdbad5c574b4c89badf0359e78854, 0x669ab21e6cea598ea34cd1292680937c3def535c, 0xf32bc63a511b3b3deb8fb6aeb3c52ebc0541067e, 0xf4842c8354fe42e85d6dcde11cfada1b80beaa33, 0x4a707b416ee66af8b1671209ed48f5dcc00257bf, 0x3af6a526dd51c8b08fd54dbb624e042bb3b0a77e, 0xc04058e417de221448d4140fc1622de24121c5e3, 0x66dc636132fb9b7f6ed858928b65864d3fd0ea67, 0x208ec1ca3b07a50151c5741bc0e05c61beddad90, 0xb5f5be1ac436d8ad082c4804afeda73088730ed1, 0x0156a74fd9432446030f47f7c55f4d1fbfdf5e9a, 0x2b15aab31879e4b3a9dc521a3a4ebdb5d691d18a, 0xa31ac55003cde3ef9ce9c576a691d0f41586c20b, 0xf9edce2638da660f51ee08220a1a5a32fab61d61]"
      ],
      "transaction": {
        "from": "0xe62ab4d111f968660c6b2188046f9b9ba53c4bae",
        "to": "0x7a63f6b51c503e9a3354af8262e8c7129abdbbeb",
        "gas": "0x29074f",
        "value": "0x0",
        "input": "0x349de7970000000000000000000000000000000000000000000000000000000000000001000000000000000000000000000000000000000000000000000000000000000100000000000000000000000000000000000000000000000000000000000000800000000000000000000000000000000000000000000000000000000000000640000000000000000000000000000000000000000000000000000000000000000f00000000000000000000000000000000000000000000000000000000000001e00000000000000000000000000000000000000000000000000000000000000220000000000000000000000000000000000000000000000000000000000000026000000000000000000000000000000000000000000000000000000000000002a000000000000000000000000000000000000000000000000000000000000002e00000000000000000000000000000000000000000000000000000000000000320000000000000000000000000000000000000000000000000000000000000036000000000000000000000000000000000000000000000000000000000000003a000000000000000000000000000000000000000000000000000000000000003e00000000000000000000000000000000000000000000000000000000000000420000000000000000000000000000000000000000000000000000000000000046000000000000000000000000000000000000000000000000000000000000004a000000000000000000000000000000000000000000000000000000000000004e0000000000000000000000000000000000000000000000000000000000000052000000000000000000000000000000000000000000000000000000000000005600000000000000000000000000000000000000000000000000000000000000002393700000000000000000000000000000000000000000000000000000000000000000000000000000000000000000000000000000000000000000000000000063432313631340000000000000000000000000000000000000000000000000000000000000000000000000000000000000000000000000000000000000000000538343533320000000000000000000000000000000000000000000000000000000000000000000000000000000000000000000000000000000000000000000005383030303200000000000000000000000000000000000000000000000000000000000000000000000000000000000000000000000000000000000000000000083131313535313131000000000000000000000000000000000000000000000000000000000000000000000000000000000000000000000000000000000000000a3139353239353934383000000000000000000000000000000000000000000000000000000000000000000000000000000000000000000000000000000000000435363131000000000000000000000000000000000000000000000000000000000000000000000000000000000000000000000000000000000000000000000004313934360000000000000000000000000000000000000000000000000000000000000000000000000000000000000000000000000000000000000000000000063533343335310000000000000000000000000000000000000000000000000000000000000000000000000000000000000000000000000000000000000000000531373030300000000000000000000000000000000000000000000000000000000000000000000000000000000000000000000000000000000000000000000004353030330000000000000000000000000000000000000000000000000000000000000000000000000000000000000000000000000000000000000000000000093136383538373737330000000000000000000000000000000000000000000000000000000000000000000000000000000000000000000000000000000000000331353300000000000000000000000000000000000000000000000000000000000000000000000000000000000000000000000000000000000000000000000008313131353534323000000000000000000000000000000000000000000000000000000000000000000000000000000000000000000000000000000000000000053433313133000000000000000000000000000000000000000000000000000000000000000000000000000000000000000000000000000000000000000000000f00000000000000000000000000000000000000000000000000000000000001e0000000000000000000000000000000000000000000000000000000000000024000000000000000000000000000000000000000000000000000000000000002a00000000000000000000000000000000000000000000000000000000000000300000000000000000000000000000000000000000000000000000000000000036000000000000000000000000000000000000000000000000000000000000003c00000000000000000000000000000000000000000000000000000000000000420000000000000000000000000000000000000000000000000000000000000048000000000000000000000000000000000000000000000000000000000000004e0000000000000000000000000000000000000000000000000000000000000054000000000000000000000000000000000000000000000000000000000000005a00000000000000000000000000000000000000000000000000000000000000600000000000000000000000000000000000000000000000000000000000000066000000000000000000000000000000000000000000000000000000000000006c00000000000000000000000000000000000000000000000000000000000000720000000000000000000000000000000000000000000000000000000000000002a30783064376230626237363335353765613063376332643933386235616533643563636262663864343400000000000000000000000000000000000000000000000000000000000000000000000000000000000000000000000000000000002a30786236336638333438346239626462616435633537346234633839626164663033353965373838353400000000000000000000000000000000000000000000000000000000000000000000000000000000000000000000000000000000002a30783636396162323165366365613539386561333463643132393236383039333763336465663533356300000000000000000000000000000000000000000000000000000000000000000000000000000000000000000000000000000000002a30786633326263363361353131623362336465623866623661656233633532656263303534313036376500000000000000000000000000000000000000000000000000000000000000000000000000000000000000000000000000000000002a30786634383432633833353466653432653835643664636465313163666164613162383062656161333300000000000000000000000000000000000000000000000000000000000000000000000000000000000000000000000000000000002a30783461373037623431366565363661663862313637313230396564343866356463633030323537626600000000000000000000000000000000000000000000000000000000000000000000000000000000000000000000000000000000002a30783361663661353236646435316338623038666435346462623632346530343262623362306137376500000000000000000000000000000000000000000000000000000000000000000000000000000000000000000000000000000000002a30786330343035386534313764653232313434386434313430666331363232646532343132316335653300000000000000000000000000000000000000000000000000000000000000000000000000000000000000000000000000000000002a30783636646336333631333266623962376636656438353839323862363538363464336664306561363700000000000000000000000000000000000000000000000000000000000000000000000000000000000000000000000000000000002a30783230386563316361336230376135303135316335373431626330653035633631626564646164393000000000000000000000000000000000000000000000000000000000000000000000000000000000000000000000000000000000002a30786235663562653161633433366438616430383263343830346166656461373330383837333065643100000000000000000000000000000000000000000000000000000000000000000000000000000000000000000000000000000000002a30783031353661373466643934333234343630333066343766376335356634643166626664663565396100000000000000000000000000000000000000000000000000000000000000000000000000000000000000000000000000000000002a30783262313561616233313837396534623361396463353231613361346562646235643639316431386100000000000000000000000000000000000000000000000000000000000000000000000000000000000000000000000000000000002a30786133316163353530303363646533656639636539633537366136393164306634313538366332306200000000000000000000000000000000000000000000000000000000000000000000000000000000000000000000000000000000002a30786639656463653236333864613636306635316565303832323061316135613332666162363164363100000000000000000000000000000000000000000000",
        "nonce": "0x46e",
        "chainId": "0x61"
      },
      "additionalContracts": [],
      "isFixedGasLimit": false
    }
  ],
  "receipts": [
    {
      "status": "0x1",
      "cumulativeGasUsed": "0x5e83",
      "logs": [],
      "logsBloom": "0x00000000000000000000000000000000000000000000000000000000000000000000000000000000000000000000000000000000000000000000000000000000000000000000000000000000000000000000000000000000000000000000000000000000000000000000000000000000000000000000000000000000000000000000000000000000000000000000000000000000000000000000000000000000000000000000000000000000000000000000000000000000000000000000000000000000000000000000000000000000000000000000000000000000000000000000000000000000000000000000000000000000000000000000000000000000",
      "type": "0x0",
      "transactionHash": "0xd9349a4abbadcb0f660fa1060057a4ba810bef5f5ad09fa1639f2baff19db139",
      "transactionIndex": "0x0",
      "blockHash": "0xafb056ec0c166db4616d18b09b43794793694d022759b5861c31ce64772c0cf3",
      "blockNumber": "0x324f87c",
      "gasUsed": "0x5e83",
      "effectiveGasPrice": "0x4a817c800",
      "from": "0xe62ab4d111f968660c6b2188046f9b9ba53c4bae",
      "to": "0x1736009b39009f1cd6f08791c781317c2dce4a88",
      "contractAddress": null
    },
    {
      "status": "0x1",
      "cumulativeGasUsed": "0x1bec3",
      "logs": [
        {
          "address": "0x1736009b39009f1cd6f08791c781317c2dce4a88",
          "topics": [
            "0x1394cfab38f3fc78ed77ea6f9318782a446d96e7dc8e9a6b0149f6be25c08bcf",
            "0x000000000000000000000000dd43fc986a13392ddbc7aea150b41efe27b2d0ed"
          ],
          "data": "0x",
          "blockHash": "0xaf73b39d114efd8ee0aad9875ebc23904483009781dbde9762aa9edd13cfb5bb",
          "blockNumber": "0x324f880",
          "transactionHash": "0xe2ce6ca16af8373dc9aa59cbecd390b14b81aaa66472e441b975b8f8df43d9a6",
          "transactionIndex": "0x0",
          "logIndex": "0x0",
          "removed": false
        }
      ],
      "logsBloom": "0x00000000000000000000000000000000000000000000000000000000000020000000000000000000000000000000000000000000000000000000000000000000000000004000000400000000000000000000001000000000000000000000000010000000000000000000000000000000000000000000000000000000000000000000000100000000000000000000000000000000000000000000000000000000000000000000000000000000000000000000000100000000000000000000000000000000020000000000000000000000000000000000000000000000000000000000000000010000000000000000000000000000000000000000000000000000",
      "type": "0x0",
      "transactionHash": "0xe2ce6ca16af8373dc9aa59cbecd390b14b81aaa66472e441b975b8f8df43d9a6",
      "transactionIndex": "0x0",
      "blockHash": "0xaf73b39d114efd8ee0aad9875ebc23904483009781dbde9762aa9edd13cfb5bb",
      "blockNumber": "0x324f880",
      "gasUsed": "0x1bec3",
      "effectiveGasPrice": "0x4a817c800",
      "from": "0xe62ab4d111f968660c6b2188046f9b9ba53c4bae",
      "to": "0x1736009b39009f1cd6f08791c781317c2dce4a88",
      "contractAddress": null
    },
    {
      "status": "0x1",
      "cumulativeGasUsed": "0xbbd9",
      "logs": [],
      "logsBloom": "0x00000000000000000000000000000000000000000000000000000000000000000000000000000000000000000000000000000000000000000000000000000000000000000000000000000000000000000000000000000000000000000000000000000000000000000000000000000000000000000000000000000000000000000000000000000000000000000000000000000000000000000000000000000000000000000000000000000000000000000000000000000000000000000000000000000000000000000000000000000000000000000000000000000000000000000000000000000000000000000000000000000000000000000000000000000000",
      "type": "0x0",
      "transactionHash": "0x8b6192ba11b5b33adde77d5946b112fafb3afa10a51f5fdc7ab5def26b7e4db0",
      "transactionIndex": "0x0",
      "blockHash": "0x0fa698cd1545eeca6dd363fc0d142eba6642106bc6a33db888ff6a7e3ad67439",
      "blockNumber": "0x324f885",
      "gasUsed": "0xbbd9",
      "effectiveGasPrice": "0x4a817c800",
      "from": "0xe62ab4d111f968660c6b2188046f9b9ba53c4bae",
      "to": "0x1736009b39009f1cd6f08791c781317c2dce4a88",
      "contractAddress": null
    },
    {
      "status": "0x1",
      "cumulativeGasUsed": "0x1abff",
      "logs": [],
      "logsBloom": "0x00000000000000000000000000000000000000000000000000000000000000000000000000000000000000000000000000000000000000000000000000000000000000000000000000000000000000000000000000000000000000000000000000000000000000000000000000000000000000000000000000000000000000000000000000000000000000000000000000000000000000000000000000000000000000000000000000000000000000000000000000000000000000000000000000000000000000000000000000000000000000000000000000000000000000000000000000000000000000000000000000000000000000000000000000000000",
      "type": "0x0",
      "transactionHash": "0xc558483d42f6fd6ca727dfd945c949bccc13dd9537f7b6fa09f5d113e243c940",
      "transactionIndex": "0x1",
      "blockHash": "0x9b2c1b717d7ae06deb0031201082de0937e9184d00c8633bbafbc95236a10cf3",
      "blockNumber": "0x324f889",
      "gasUsed": "0xbbfc",
      "effectiveGasPrice": "0x4a817c800",
      "from": "0xe62ab4d111f968660c6b2188046f9b9ba53c4bae",
      "to": "0x1736009b39009f1cd6f08791c781317c2dce4a88",
      "contractAddress": null
    },
    {
      "status": "0x1",
      "cumulativeGasUsed": "0xbc13",
      "logs": [],
      "logsBloom": "0x00000000000000000000000000000000000000000000000000000000000000000000000000000000000000000000000000000000000000000000000000000000000000000000000000000000000000000000000000000000000000000000000000000000000000000000000000000000000000000000000000000000000000000000000000000000000000000000000000000000000000000000000000000000000000000000000000000000000000000000000000000000000000000000000000000000000000000000000000000000000000000000000000000000000000000000000000000000000000000000000000000000000000000000000000000000",
      "type": "0x0",
      "transactionHash": "0x7f8fad3bbb7839e69ef58423a6bf8672723e220da460df2759e92841c91199b5",
      "transactionIndex": "0x0",
      "blockHash": "0x4d47bdae7a8a5523da2dbc48f4a52a2b1979697f8982714c8120bd37207895b9",
      "blockNumber": "0x324f88d",
      "gasUsed": "0xbc13",
      "effectiveGasPrice": "0x4a817c800",
      "from": "0xe62ab4d111f968660c6b2188046f9b9ba53c4bae",
      "to": "0x1736009b39009f1cd6f08791c781317c2dce4a88",
      "contractAddress": null
    },
    {
      "status": "0x1",
      "cumulativeGasUsed": "0xbc2a",
      "logs": [],
      "logsBloom": "0x00000000000000000000000000000000000000000000000000000000000000000000000000000000000000000000000000000000000000000000000000000000000000000000000000000000000000000000000000000000000000000000000000000000000000000000000000000000000000000000000000000000000000000000000000000000000000000000000000000000000000000000000000000000000000000000000000000000000000000000000000000000000000000000000000000000000000000000000000000000000000000000000000000000000000000000000000000000000000000000000000000000000000000000000000000000",
      "type": "0x0",
      "transactionHash": "0x8404ce1c818a27f23589e407751e76298b6e4b624bb3c37c38a0a3545027f0d6",
      "transactionIndex": "0x0",
      "blockHash": "0xaa97abcdce948fd4ee1341178e8be9d1a70b1d65e35d75bc336180512c35c431",
      "blockNumber": "0x324f892",
      "gasUsed": "0xbc2a",
      "effectiveGasPrice": "0x4a817c800",
      "from": "0xe62ab4d111f968660c6b2188046f9b9ba53c4bae",
      "to": "0x1736009b39009f1cd6f08791c781317c2dce4a88",
      "contractAddress": null
    },
    {
      "status": "0x1",
      "cumulativeGasUsed": "0xbc41",
      "logs": [],
      "logsBloom": "0x00000000000000000000000000000000000000000000000000000000000000000000000000000000000000000000000000000000000000000000000000000000000000000000000000000000000000000000000000000000000000000000000000000000000000000000000000000000000000000000000000000000000000000000000000000000000000000000000000000000000000000000000000000000000000000000000000000000000000000000000000000000000000000000000000000000000000000000000000000000000000000000000000000000000000000000000000000000000000000000000000000000000000000000000000000000",
      "type": "0x0",
      "transactionHash": "0x1059dba35f3505ce1046ad504611a6586a7af47e4b5c076871c3cb25e61eb701",
      "transactionIndex": "0x0",
      "blockHash": "0xc4aa36c937129eeddec9b41f49dff56d14d18c5fb59e8ececcc626da5923f19d",
      "blockNumber": "0x324f896",
      "gasUsed": "0xbc41",
      "effectiveGasPrice": "0x4a817c800",
      "from": "0xe62ab4d111f968660c6b2188046f9b9ba53c4bae",
      "to": "0x1736009b39009f1cd6f08791c781317c2dce4a88",
      "contractAddress": null
    },
    {
      "status": "0x1",
      "cumulativeGasUsed": "0xbc58",
      "logs": [],
      "logsBloom": "0x00000000000000000000000000000000000000000000000000000000000000000000000000000000000000000000000000000000000000000000000000000000000000000000000000000000000000000000000000000000000000000000000000000000000000000000000000000000000000000000000000000000000000000000000000000000000000000000000000000000000000000000000000000000000000000000000000000000000000000000000000000000000000000000000000000000000000000000000000000000000000000000000000000000000000000000000000000000000000000000000000000000000000000000000000000000",
      "type": "0x0",
      "transactionHash": "0xa73bf56a7cf25a6d9fe9213c8f1277e197785e8463c85d03f7b10f979e1187f7",
      "transactionIndex": "0x0",
      "blockHash": "0x503c0a50c33284ac48f562e6b969c8078104c80ac45b2911d06b2fa39773cae3",
      "blockNumber": "0x324f89b",
      "gasUsed": "0xbc58",
      "effectiveGasPrice": "0x4a817c800",
      "from": "0xe62ab4d111f968660c6b2188046f9b9ba53c4bae",
      "to": "0x1736009b39009f1cd6f08791c781317c2dce4a88",
      "contractAddress": null
    },
    {
      "status": "0x1",
      "cumulativeGasUsed": "0xbc6f",
      "logs": [],
      "logsBloom": "0x00000000000000000000000000000000000000000000000000000000000000000000000000000000000000000000000000000000000000000000000000000000000000000000000000000000000000000000000000000000000000000000000000000000000000000000000000000000000000000000000000000000000000000000000000000000000000000000000000000000000000000000000000000000000000000000000000000000000000000000000000000000000000000000000000000000000000000000000000000000000000000000000000000000000000000000000000000000000000000000000000000000000000000000000000000000",
      "type": "0x0",
      "transactionHash": "0x5b6cbe1677290675e72ca587926c82ed405b33ac9e56c50793fd329c2fffaf1d",
      "transactionIndex": "0x0",
      "blockHash": "0xb3f2c9f2b18cfb8c88cee2c843ee714a1a02b8b2c6527caff61d9346f0c69b8c",
      "blockNumber": "0x324f8a0",
      "gasUsed": "0xbc6f",
      "effectiveGasPrice": "0x4a817c800",
      "from": "0xe62ab4d111f968660c6b2188046f9b9ba53c4bae",
      "to": "0x1736009b39009f1cd6f08791c781317c2dce4a88",
      "contractAddress": null
    },
    {
      "status": "0x1",
      "cumulativeGasUsed": "0xbc86",
      "logs": [],
      "logsBloom": "0x00000000000000000000000000000000000000000000000000000000000000000000000000000000000000000000000000000000000000000000000000000000000000000000000000000000000000000000000000000000000000000000000000000000000000000000000000000000000000000000000000000000000000000000000000000000000000000000000000000000000000000000000000000000000000000000000000000000000000000000000000000000000000000000000000000000000000000000000000000000000000000000000000000000000000000000000000000000000000000000000000000000000000000000000000000000",
      "type": "0x0",
      "transactionHash": "0x7b7f01a26e57992a42b193fc13eccabeb8ca982f2a652fd695aae3543c706c24",
      "transactionIndex": "0x0",
      "blockHash": "0xdc2cc348c74f65cf93cbcb96baba1a3a3e8d93979ad5088f54cb7fd3d0ae4646",
      "blockNumber": "0x324f8a5",
      "gasUsed": "0xbc86",
      "effectiveGasPrice": "0x4a817c800",
      "from": "0xe62ab4d111f968660c6b2188046f9b9ba53c4bae",
      "to": "0x1736009b39009f1cd6f08791c781317c2dce4a88",
      "contractAddress": null
    },
    {
      "status": "0x1",
      "cumulativeGasUsed": "0xbc9d",
      "logs": [],
      "logsBloom": "0x00000000000000000000000000000000000000000000000000000000000000000000000000000000000000000000000000000000000000000000000000000000000000000000000000000000000000000000000000000000000000000000000000000000000000000000000000000000000000000000000000000000000000000000000000000000000000000000000000000000000000000000000000000000000000000000000000000000000000000000000000000000000000000000000000000000000000000000000000000000000000000000000000000000000000000000000000000000000000000000000000000000000000000000000000000000",
      "type": "0x0",
      "transactionHash": "0xff9f8b7b9733fd8f792dadd66fd9b7fda6e584b286c84da5c7217ef74cff7984",
      "transactionIndex": "0x0",
      "blockHash": "0x945763b12c3d8b81a93deb82e762e443ffdfd5ed2a11f2c3f178310cd4be274d",
      "blockNumber": "0x324f8aa",
      "gasUsed": "0xbc9d",
      "effectiveGasPrice": "0x4a817c800",
      "from": "0xe62ab4d111f968660c6b2188046f9b9ba53c4bae",
      "to": "0x1736009b39009f1cd6f08791c781317c2dce4a88",
      "contractAddress": null
    },
    {
      "status": "0x1",
      "cumulativeGasUsed": "0xbcb4",
      "logs": [],
      "logsBloom": "0x00000000000000000000000000000000000000000000000000000000000000000000000000000000000000000000000000000000000000000000000000000000000000000000000000000000000000000000000000000000000000000000000000000000000000000000000000000000000000000000000000000000000000000000000000000000000000000000000000000000000000000000000000000000000000000000000000000000000000000000000000000000000000000000000000000000000000000000000000000000000000000000000000000000000000000000000000000000000000000000000000000000000000000000000000000000",
      "type": "0x0",
      "transactionHash": "0x627e1e1a2b7fbc760b220571858c69fbfa766017ea110f6da4c4c59207d215f9",
      "transactionIndex": "0x0",
      "blockHash": "0xb966dfe3d778986eec8a35330625e2dbf080ea95aec6e61a15e8480b8629d712",
      "blockNumber": "0x324f8af",
      "gasUsed": "0xbcb4",
      "effectiveGasPrice": "0x4a817c800",
      "from": "0xe62ab4d111f968660c6b2188046f9b9ba53c4bae",
      "to": "0x1736009b39009f1cd6f08791c781317c2dce4a88",
      "contractAddress": null
    },
    {
      "status": "0x1",
      "cumulativeGasUsed": "0xbccb",
      "logs": [],
      "logsBloom": "0x00000000000000000000000000000000000000000000000000000000000000000000000000000000000000000000000000000000000000000000000000000000000000000000000000000000000000000000000000000000000000000000000000000000000000000000000000000000000000000000000000000000000000000000000000000000000000000000000000000000000000000000000000000000000000000000000000000000000000000000000000000000000000000000000000000000000000000000000000000000000000000000000000000000000000000000000000000000000000000000000000000000000000000000000000000000",
      "type": "0x0",
      "transactionHash": "0xcfb9e542f45261babaa7d7c7339887d649ce2cb35aad9f0f0ebadcb1f8ae7b44",
      "transactionIndex": "0x0",
      "blockHash": "0x1b513b0fa093b006670c01af3bea9755d7b6374771460a797accc4c12dc6ec08",
      "blockNumber": "0x324f8b4",
      "gasUsed": "0xbccb",
      "effectiveGasPrice": "0x4a817c800",
      "from": "0xe62ab4d111f968660c6b2188046f9b9ba53c4bae",
      "to": "0x1736009b39009f1cd6f08791c781317c2dce4a88",
      "contractAddress": null
    },
    {
      "status": "0x1",
      "cumulativeGasUsed": "0xbce2",
      "logs": [],
      "logsBloom": "0x00000000000000000000000000000000000000000000000000000000000000000000000000000000000000000000000000000000000000000000000000000000000000000000000000000000000000000000000000000000000000000000000000000000000000000000000000000000000000000000000000000000000000000000000000000000000000000000000000000000000000000000000000000000000000000000000000000000000000000000000000000000000000000000000000000000000000000000000000000000000000000000000000000000000000000000000000000000000000000000000000000000000000000000000000000000",
      "type": "0x0",
      "transactionHash": "0x7de2ea5d97f6c260b3e9e450a464d74acbdc1d7ade8e6932c9f188ac011df3b3",
      "transactionIndex": "0x0",
      "blockHash": "0x517a005b2fe04b4799546633f467052631b5d1791cf1cfcd4da092de85256286",
      "blockNumber": "0x324f8b9",
      "gasUsed": "0xbce2",
      "effectiveGasPrice": "0x4a817c800",
      "from": "0xe62ab4d111f968660c6b2188046f9b9ba53c4bae",
      "to": "0x1736009b39009f1cd6f08791c781317c2dce4a88",
      "contractAddress": null
    },
    {
      "status": "0x1",
      "cumulativeGasUsed": "0x1acfc",
      "logs": [],
      "logsBloom": "0x00000000000000000000000000000000000000000000000000000000000000000000000000000000000000000000000000000000000000000000000000000000000000000000000000000000000000000000000000000000000000000000000000000000000000000000000000000000000000000000000000000000000000000000000000000000000000000000000000000000000000000000000000000000000000000000000000000000000000000000000000000000000000000000000000000000000000000000000000000000000000000000000000000000000000000000000000000000000000000000000000000000000000000000000000000000",
      "type": "0x0",
      "transactionHash": "0x81e92bb8c89e8ce7cece216c6abb2243c0616bb99f26b3440e8a2686ef898607",
      "transactionIndex": "0x1",
      "blockHash": "0x5d6e920b110f59d4fc3aba51a9884f3f216d26d34ab37af8127ba95a4d354e11",
      "blockNumber": "0x324f8be",
      "gasUsed": "0xbcf9",
      "effectiveGasPrice": "0x4a817c800",
      "from": "0xe62ab4d111f968660c6b2188046f9b9ba53c4bae",
      "to": "0x1736009b39009f1cd6f08791c781317c2dce4a88",
      "contractAddress": null
    },
    {
      "status": "0x1",
      "cumulativeGasUsed": "0xbd10",
      "logs": [],
      "logsBloom": "0x00000000000000000000000000000000000000000000000000000000000000000000000000000000000000000000000000000000000000000000000000000000000000000000000000000000000000000000000000000000000000000000000000000000000000000000000000000000000000000000000000000000000000000000000000000000000000000000000000000000000000000000000000000000000000000000000000000000000000000000000000000000000000000000000000000000000000000000000000000000000000000000000000000000000000000000000000000000000000000000000000000000000000000000000000000000",
      "type": "0x0",
      "transactionHash": "0x2fbed8abe81befd22ecb7f981f7b8352d8fe344b418ce257759e1a31a24e61be",
      "transactionIndex": "0x0",
      "blockHash": "0xf49ee02bc7174cc01900480f3a136b46fe8a8b417cf8bf45edf4ee370bbaf321",
      "blockNumber": "0x324f8c3",
      "gasUsed": "0xbd10",
      "effectiveGasPrice": "0x4a817c800",
      "from": "0xe62ab4d111f968660c6b2188046f9b9ba53c4bae",
      "to": "0x1736009b39009f1cd6f08791c781317c2dce4a88",
      "contractAddress": null
    },
    {
      "status": "0x1",
      "cumulativeGasUsed": "0xbd27",
      "logs": [],
      "logsBloom": "0x00000000000000000000000000000000000000000000000000000000000000000000000000000000000000000000000000000000000000000000000000000000000000000000000000000000000000000000000000000000000000000000000000000000000000000000000000000000000000000000000000000000000000000000000000000000000000000000000000000000000000000000000000000000000000000000000000000000000000000000000000000000000000000000000000000000000000000000000000000000000000000000000000000000000000000000000000000000000000000000000000000000000000000000000000000000",
      "type": "0x0",
      "transactionHash": "0x61978a129202013852ea08687cecb9f1feeea70698650c278b62ee81fc0a6837",
      "transactionIndex": "0x0",
      "blockHash": "0xcff1e0e99925250597306039d80523f117e9c28b1a97cb0becf72c3734d13301",
      "blockNumber": "0x324f8c8",
      "gasUsed": "0xbd27",
      "effectiveGasPrice": "0x4a817c800",
      "from": "0xe62ab4d111f968660c6b2188046f9b9ba53c4bae",
      "to": "0x1736009b39009f1cd6f08791c781317c2dce4a88",
      "contractAddress": null
    },
    {
      "status": "0x1",
      "cumulativeGasUsed": "0xbd3e",
      "logs": [],
      "logsBloom": "0x00000000000000000000000000000000000000000000000000000000000000000000000000000000000000000000000000000000000000000000000000000000000000000000000000000000000000000000000000000000000000000000000000000000000000000000000000000000000000000000000000000000000000000000000000000000000000000000000000000000000000000000000000000000000000000000000000000000000000000000000000000000000000000000000000000000000000000000000000000000000000000000000000000000000000000000000000000000000000000000000000000000000000000000000000000000",
      "type": "0x0",
      "transactionHash": "0xe0e785e3b8afb1d70ba5d641e2b623a9cb23fe461904ff063c34ee79dcd25e7b",
      "transactionIndex": "0x0",
      "blockHash": "0xa0a1b03d587316225ccfc54e832da7a37e8f65e8e2c499b952bf8e3626843639",
      "blockNumber": "0x324f8cd",
      "gasUsed": "0xbd3e",
      "effectiveGasPrice": "0x4a817c800",
      "from": "0xe62ab4d111f968660c6b2188046f9b9ba53c4bae",
      "to": "0x1736009b39009f1cd6f08791c781317c2dce4a88",
      "contractAddress": null
    },
    {
      "status": "0x1",
      "cumulativeGasUsed": "0xbd55",
      "logs": [],
      "logsBloom": "0x00000000000000000000000000000000000000000000000000000000000000000000000000000000000000000000000000000000000000000000000000000000000000000000000000000000000000000000000000000000000000000000000000000000000000000000000000000000000000000000000000000000000000000000000000000000000000000000000000000000000000000000000000000000000000000000000000000000000000000000000000000000000000000000000000000000000000000000000000000000000000000000000000000000000000000000000000000000000000000000000000000000000000000000000000000000",
      "type": "0x0",
      "transactionHash": "0xf91b3e6ca925e24d1ff68c258026de77c173ac6c28471812e448f56dbfc11cf0",
      "transactionIndex": "0x0",
      "blockHash": "0x8a4079a0af698c0012b3776c858f88db3e72683ef85cd4bbf6eed045cafdb2ad",
      "blockNumber": "0x324f8d2",
      "gasUsed": "0xbd55",
      "effectiveGasPrice": "0x4a817c800",
      "from": "0xe62ab4d111f968660c6b2188046f9b9ba53c4bae",
      "to": "0x1736009b39009f1cd6f08791c781317c2dce4a88",
      "contractAddress": null
    },
    {
      "status": "0x1",
      "cumulativeGasUsed": "0xbd6c",
      "logs": [],
      "logsBloom": "0x00000000000000000000000000000000000000000000000000000000000000000000000000000000000000000000000000000000000000000000000000000000000000000000000000000000000000000000000000000000000000000000000000000000000000000000000000000000000000000000000000000000000000000000000000000000000000000000000000000000000000000000000000000000000000000000000000000000000000000000000000000000000000000000000000000000000000000000000000000000000000000000000000000000000000000000000000000000000000000000000000000000000000000000000000000000",
      "type": "0x0",
      "transactionHash": "0xe2ab3bb2e4cf3f335cb0b8977eae20ee04685afa01eac7cafe7bd729ade35d38",
      "transactionIndex": "0x0",
      "blockHash": "0x706258f32e3425eb289fac5aace9c2fbd3556447be75ba05c0c0b23cc7519049",
      "blockNumber": "0x324f8d8",
      "gasUsed": "0xbd6c",
      "effectiveGasPrice": "0x4a817c800",
      "from": "0xe62ab4d111f968660c6b2188046f9b9ba53c4bae",
      "to": "0x1736009b39009f1cd6f08791c781317c2dce4a88",
      "contractAddress": null
    },
    {
      "status": "0x1",
      "cumulativeGasUsed": "0xbd83",
      "logs": [],
      "logsBloom": "0x00000000000000000000000000000000000000000000000000000000000000000000000000000000000000000000000000000000000000000000000000000000000000000000000000000000000000000000000000000000000000000000000000000000000000000000000000000000000000000000000000000000000000000000000000000000000000000000000000000000000000000000000000000000000000000000000000000000000000000000000000000000000000000000000000000000000000000000000000000000000000000000000000000000000000000000000000000000000000000000000000000000000000000000000000000000",
      "type": "0x0",
      "transactionHash": "0x2a08fdaae73dea5e912d1258b89930ac1f2b348f0f31cda445b2389e573b54aa",
      "transactionIndex": "0x0",
      "blockHash": "0x303038bdc45cbf56132be59681b31368e2a61090400b34087e3881664c0fabc7",
      "blockNumber": "0x324f8dc",
      "gasUsed": "0xbd83",
      "effectiveGasPrice": "0x4a817c800",
      "from": "0xe62ab4d111f968660c6b2188046f9b9ba53c4bae",
      "to": "0x1736009b39009f1cd6f08791c781317c2dce4a88",
      "contractAddress": null
    },
    {
      "status": "0x1",
      "cumulativeGasUsed": "0xbd9a",
      "logs": [],
      "logsBloom": "0x00000000000000000000000000000000000000000000000000000000000000000000000000000000000000000000000000000000000000000000000000000000000000000000000000000000000000000000000000000000000000000000000000000000000000000000000000000000000000000000000000000000000000000000000000000000000000000000000000000000000000000000000000000000000000000000000000000000000000000000000000000000000000000000000000000000000000000000000000000000000000000000000000000000000000000000000000000000000000000000000000000000000000000000000000000000",
      "type": "0x0",
      "transactionHash": "0x4cfb5114aa32eb482b884509f5dfd2b973189b3740bd45b4274c2804114b2090",
      "transactionIndex": "0x0",
      "blockHash": "0xbd39237b603f7322b21ccc040dc7078bab65537fb44b86652d09ee2d424d2869",
      "blockNumber": "0x324f8e0",
      "gasUsed": "0xbd9a",
      "effectiveGasPrice": "0x4a817c800",
      "from": "0xe62ab4d111f968660c6b2188046f9b9ba53c4bae",
      "to": "0x1736009b39009f1cd6f08791c781317c2dce4a88",
      "contractAddress": null
    },
    {
      "status": "0x1",
      "cumulativeGasUsed": "0xbdb1",
      "logs": [],
      "logsBloom": "0x00000000000000000000000000000000000000000000000000000000000000000000000000000000000000000000000000000000000000000000000000000000000000000000000000000000000000000000000000000000000000000000000000000000000000000000000000000000000000000000000000000000000000000000000000000000000000000000000000000000000000000000000000000000000000000000000000000000000000000000000000000000000000000000000000000000000000000000000000000000000000000000000000000000000000000000000000000000000000000000000000000000000000000000000000000000",
      "type": "0x0",
      "transactionHash": "0x8b4905adf46854c03b02aa60213d8791dc0fd733984c019c3534ab5c9ce81d9c",
      "transactionIndex": "0x0",
      "blockHash": "0x0c9c5e7c066aee79380c3114f53b2291c010ad994c43a538bfb6f9463647d2d6",
      "blockNumber": "0x324f8e4",
      "gasUsed": "0xbdb1",
      "effectiveGasPrice": "0x4a817c800",
      "from": "0xe62ab4d111f968660c6b2188046f9b9ba53c4bae",
      "to": "0x1736009b39009f1cd6f08791c781317c2dce4a88",
      "contractAddress": null
    },
    {
      "status": "0x1",
      "cumulativeGasUsed": "0xbdc8",
      "logs": [],
      "logsBloom": "0x00000000000000000000000000000000000000000000000000000000000000000000000000000000000000000000000000000000000000000000000000000000000000000000000000000000000000000000000000000000000000000000000000000000000000000000000000000000000000000000000000000000000000000000000000000000000000000000000000000000000000000000000000000000000000000000000000000000000000000000000000000000000000000000000000000000000000000000000000000000000000000000000000000000000000000000000000000000000000000000000000000000000000000000000000000000",
      "type": "0x0",
      "transactionHash": "0xac5199c23570abd39241880a3fb69b8c95b8d8713b815c1d76933fe29a722546",
      "transactionIndex": "0x0",
      "blockHash": "0xeaebaf083cde582c5008fe0e02c32f1e47df358c70180f20733799717e844bdf",
      "blockNumber": "0x324f8e8",
      "gasUsed": "0xbdc8",
      "effectiveGasPrice": "0x4a817c800",
      "from": "0xe62ab4d111f968660c6b2188046f9b9ba53c4bae",
      "to": "0x1736009b39009f1cd6f08791c781317c2dce4a88",
      "contractAddress": null
    },
    {
      "status": "0x1",
      "cumulativeGasUsed": "0xbddf",
      "logs": [],
      "logsBloom": "0x00000000000000000000000000000000000000000000000000000000000000000000000000000000000000000000000000000000000000000000000000000000000000000000000000000000000000000000000000000000000000000000000000000000000000000000000000000000000000000000000000000000000000000000000000000000000000000000000000000000000000000000000000000000000000000000000000000000000000000000000000000000000000000000000000000000000000000000000000000000000000000000000000000000000000000000000000000000000000000000000000000000000000000000000000000000",
      "type": "0x0",
      "transactionHash": "0x7d21bf5dc4fee2db9e4cf62169f11c85fd12fddbd5197deca3773de71c68927e",
      "transactionIndex": "0x0",
      "blockHash": "0xa25503ec7e7cfb538d00ef13de552b01408a93d408243401f6ca935f6daeff46",
      "blockNumber": "0x324f8ed",
      "gasUsed": "0xbddf",
      "effectiveGasPrice": "0x4a817c800",
      "from": "0xe62ab4d111f968660c6b2188046f9b9ba53c4bae",
      "to": "0x1736009b39009f1cd6f08791c781317c2dce4a88",
      "contractAddress": null
    },
    {
      "status": "0x1",
      "cumulativeGasUsed": "0xbdf6",
      "logs": [],
      "logsBloom": "0x00000000000000000000000000000000000000000000000000000000000000000000000000000000000000000000000000000000000000000000000000000000000000000000000000000000000000000000000000000000000000000000000000000000000000000000000000000000000000000000000000000000000000000000000000000000000000000000000000000000000000000000000000000000000000000000000000000000000000000000000000000000000000000000000000000000000000000000000000000000000000000000000000000000000000000000000000000000000000000000000000000000000000000000000000000000",
      "type": "0x0",
      "transactionHash": "0xccfc1e07c064ae6dd5b5b9fb64b79089d42e84767bd7933880bbf624b7e6fded",
      "transactionIndex": "0x0",
      "blockHash": "0xe69508c7024826c9ca8659aa7bf30728878678a7a56d277b9e22bf27a1cff8ea",
      "blockNumber": "0x324f8f3",
      "gasUsed": "0xbdf6",
      "effectiveGasPrice": "0x4a817c800",
      "from": "0xe62ab4d111f968660c6b2188046f9b9ba53c4bae",
      "to": "0x1736009b39009f1cd6f08791c781317c2dce4a88",
      "contractAddress": null
    },
    {
      "status": "0x1",
      "cumulativeGasUsed": "0x2225e",
      "logs": [],
      "logsBloom": "0x00000000000000000000000000000000000000000000000000000000000000000000000000000000000000000000000000000000000000000000000000000000000000000000000000000000000000000000000000000000000000000000000000000000000000000000000000000000000000000000000000000000000000000000000000000000000000000000000000000000000000000000000000000000000000000000000000000000000000000000000000000000000000000000000000000000000000000000000000000000000000000000000000000000000000000000000000000000000000000000000000000000000000000000000000000000",
      "type": "0x0",
      "transactionHash": "0x90de5ba01c85536e2533f0f931e3c33c7aa40ecb4bea8e619fd36f677376b1db",
      "transactionIndex": "0x0",
      "blockHash": "0x39cbc025c8f4fed0a4baaad4e7eccd551b3ff63e220c82adaf859d4884cff9f3",
      "blockNumber": "0x324f8f7",
      "gasUsed": "0x2225e",
      "effectiveGasPrice": "0x4a817c800",
      "from": "0xe62ab4d111f968660c6b2188046f9b9ba53c4bae",
      "to": "0x1736009b39009f1cd6f08791c781317c2dce4a88",
      "contractAddress": null
    },
    {
      "status": "0x1",
      "cumulativeGasUsed": "0x1e5ea",
      "logs": [],
      "logsBloom": "0x00000000000000000000000000000000000000000000000000000000000000000000000000000000000000000000000000000000000000000000000000000000000000000000000000000000000000000000000000000000000000000000000000000000000000000000000000000000000000000000000000000000000000000000000000000000000000000000000000000000000000000000000000000000000000000000000000000000000000000000000000000000000000000000000000000000000000000000000000000000000000000000000000000000000000000000000000000000000000000000000000000000000000000000000000000000",
      "type": "0x0",
      "transactionHash": "0x5ccd2449db5349ee839c109a05144b875e61217c9c28946152ee5225ef84ac4e",
      "transactionIndex": "0x0",
      "blockHash": "0xb4bdbd766de92fd8c1672510561d76162cf067a4a632fd78c01f56746312e66e",
      "blockNumber": "0x324f8fb",
      "gasUsed": "0x1e5ea",
      "effectiveGasPrice": "0x4a817c800",
      "from": "0xe62ab4d111f968660c6b2188046f9b9ba53c4bae",
      "to": "0x1736009b39009f1cd6f08791c781317c2dce4a88",
      "contractAddress": null
    },
    {
      "status": "0x1",
      "cumulativeGasUsed": "0x1e5ea",
      "logs": [],
      "logsBloom": "0x00000000000000000000000000000000000000000000000000000000000000000000000000000000000000000000000000000000000000000000000000000000000000000000000000000000000000000000000000000000000000000000000000000000000000000000000000000000000000000000000000000000000000000000000000000000000000000000000000000000000000000000000000000000000000000000000000000000000000000000000000000000000000000000000000000000000000000000000000000000000000000000000000000000000000000000000000000000000000000000000000000000000000000000000000000000",
      "type": "0x0",
      "transactionHash": "0x65b6c479ce2cefeb413098d5c7182b9426b7bd84aeaaab7b80379df36f965d54",
      "transactionIndex": "0x0",
      "blockHash": "0x6397cf5675ecb4c4a5271f09ccfa89a10554fc415c7d08a9791c42aab6201574",
      "blockNumber": "0x324f8ff",
      "gasUsed": "0x1e5ea",
      "effectiveGasPrice": "0x4a817c800",
      "from": "0xe62ab4d111f968660c6b2188046f9b9ba53c4bae",
      "to": "0x1736009b39009f1cd6f08791c781317c2dce4a88",
      "contractAddress": null
    },
    {
      "status": "0x1",
      "cumulativeGasUsed": "0x1ea52",
      "logs": [],
      "logsBloom": "0x00000000000000000000000000000000000000000000000000000000000000000000000000000000000000000000000000000000000000000000000000000000000000000000000000000000000000000000000000000000000000000000000000000000000000000000000000000000000000000000000000000000000000000000000000000000000000000000000000000000000000000000000000000000000000000000000000000000000000000000000000000000000000000000000000000000000000000000000000000000000000000000000000000000000000000000000000000000000000000000000000000000000000000000000000000000",
      "type": "0x0",
      "transactionHash": "0x34c36dca85517fe776a1d8a72c31b0be1459df16b68ca8118a460364efca7e2c",
      "transactionIndex": "0x0",
      "blockHash": "0x49ba7b9fab6baaab38563d82fc3f4d28f0821edd217275421ff3d1b6483c2455",
      "blockNumber": "0x324f904",
      "gasUsed": "0x1ea52",
      "effectiveGasPrice": "0x4a817c800",
      "from": "0xe62ab4d111f968660c6b2188046f9b9ba53c4bae",
      "to": "0x1736009b39009f1cd6f08791c781317c2dce4a88",
      "contractAddress": null
    },
    {
      "status": "0x1",
      "cumulativeGasUsed": "0x1e182",
      "logs": [],
      "logsBloom": "0x00000000000000000000000000000000000000000000000000000000000000000000000000000000000000000000000000000000000000000000000000000000000000000000000000000000000000000000000000000000000000000000000000000000000000000000000000000000000000000000000000000000000000000000000000000000000000000000000000000000000000000000000000000000000000000000000000000000000000000000000000000000000000000000000000000000000000000000000000000000000000000000000000000000000000000000000000000000000000000000000000000000000000000000000000000000",
      "type": "0x0",
      "transactionHash": "0x9efdeb86c1b746d7c4836140fe176e15fa091576f7ec618c132c980c89b1d9fe",
      "transactionIndex": "0x0",
      "blockHash": "0x26a72de728294cbf80dcc900a996494ce954bbf15d2a83df5b1d0a45dcdca95e",
      "blockNumber": "0x324f909",
      "gasUsed": "0x1e182",
      "effectiveGasPrice": "0x4a817c800",
      "from": "0xe62ab4d111f968660c6b2188046f9b9ba53c4bae",
      "to": "0x1736009b39009f1cd6f08791c781317c2dce4a88",
      "contractAddress": null
    },
    {
      "status": "0x1",
      "cumulativeGasUsed": "0x1ed42",
      "logs": [],
      "logsBloom": "0x00000000000000000000000000000000000000000000000000000000000000000000000000000000000000000000000000000000000000000000000000000000000000000000000000000000000000000000000000000000000000000000000000000000000000000000000000000000000000000000000000000000000000000000000000000000000000000000000000000000000000000000000000000000000000000000000000000000000000000000000000000000000000000000000000000000000000000000000000000000000000000000000000000000000000000000000000000000000000000000000000000000000000000000000000000000",
      "type": "0x0",
      "transactionHash": "0xffba5425809d32825d50f409a14cd4db07c929b383db0476a48cbbb67ebc1ab5",
      "transactionIndex": "0x0",
      "blockHash": "0xcfa3b27d6d5354f8757b25f19c0c5afc7788fd6db0d2055149f3ca8a89825877",
      "blockNumber": "0x324f90e",
      "gasUsed": "0x1ed42",
      "effectiveGasPrice": "0x4a817c800",
      "from": "0xe62ab4d111f968660c6b2188046f9b9ba53c4bae",
      "to": "0x1736009b39009f1cd6f08791c781317c2dce4a88",
      "contractAddress": null
    },
    {
      "status": "0x1",
      "cumulativeGasUsed": "0x1e472",
      "logs": [],
      "logsBloom": "0x00000000000000000000000000000000000000000000000000000000000000000000000000000000000000000000000000000000000000000000000000000000000000000000000000000000000000000000000000000000000000000000000000000000000000000000000000000000000000000000000000000000000000000000000000000000000000000000000000000000000000000000000000000000000000000000000000000000000000000000000000000000000000000000000000000000000000000000000000000000000000000000000000000000000000000000000000000000000000000000000000000000000000000000000000000000",
      "type": "0x0",
      "transactionHash": "0x06cc7f25acf5d9bda4d216f302a409a28b8bb6f7149ff30d6a25af1df3c2212e",
      "transactionIndex": "0x0",
      "blockHash": "0x6c6e18d98d950cb589ac4a5a02c925544903713cb274af25bc75454372b483a3",
      "blockNumber": "0x324f913",
      "gasUsed": "0x1e472",
      "effectiveGasPrice": "0x4a817c800",
      "from": "0xe62ab4d111f968660c6b2188046f9b9ba53c4bae",
      "to": "0x1736009b39009f1cd6f08791c781317c2dce4a88",
      "contractAddress": null
    },
    {
      "status": "0x1",
      "cumulativeGasUsed": "0x1e472",
      "logs": [],
      "logsBloom": "0x00000000000000000000000000000000000000000000000000000000000000000000000000000000000000000000000000000000000000000000000000000000000000000000000000000000000000000000000000000000000000000000000000000000000000000000000000000000000000000000000000000000000000000000000000000000000000000000000000000000000000000000000000000000000000000000000000000000000000000000000000000000000000000000000000000000000000000000000000000000000000000000000000000000000000000000000000000000000000000000000000000000000000000000000000000000",
      "type": "0x0",
      "transactionHash": "0x2a011a1492f60dc42e1224cf7c8ca1422bb67422be21977e51912222cddbafc2",
      "transactionIndex": "0x0",
      "blockHash": "0x22e15a6af06e3931d3dc7c0358ba95cbe30b8e5b6c37adfc8767d7cbaf00b2e1",
      "blockNumber": "0x324f918",
      "gasUsed": "0x1e472",
      "effectiveGasPrice": "0x4a817c800",
      "from": "0xe62ab4d111f968660c6b2188046f9b9ba53c4bae",
      "to": "0x1736009b39009f1cd6f08791c781317c2dce4a88",
      "contractAddress": null
    },
    {
      "status": "0x1",
      "cumulativeGasUsed": "0x1e762",
      "logs": [],
      "logsBloom": "0x00000000000000000000000000000000000000000000000000000000000000000000000000000000000000000000000000000000000000000000000000000000000000000000000000000000000000000000000000000000000000000000000000000000000000000000000000000000000000000000000000000000000000000000000000000000000000000000000000000000000000000000000000000000000000000000000000000000000000000000000000000000000000000000000000000000000000000000000000000000000000000000000000000000000000000000000000000000000000000000000000000000000000000000000000000000",
      "type": "0x0",
      "transactionHash": "0xd4cd6531d7529b618e10e8e5ea740a03c1df85ba1213fa5bbe4ef8aa514ca3a9",
      "transactionIndex": "0x0",
      "blockHash": "0xf5098b2203a25f243f5ec881212e9ba8d02227cfac885fd0995bb10b0878f278",
      "blockNumber": "0x324f91d",
      "gasUsed": "0x1e762",
      "effectiveGasPrice": "0x4a817c800",
      "from": "0xe62ab4d111f968660c6b2188046f9b9ba53c4bae",
      "to": "0x1736009b39009f1cd6f08791c781317c2dce4a88",
      "contractAddress": null
    },
    {
      "status": "0x1",
      "cumulativeGasUsed": "0x1e5ea",
      "logs": [],
      "logsBloom": "0x00000000000000000000000000000000000000000000000000000000000000000000000000000000000000000000000000000000000000000000000000000000000000000000000000000000000000000000000000000000000000000000000000000000000000000000000000000000000000000000000000000000000000000000000000000000000000000000000000000000000000000000000000000000000000000000000000000000000000000000000000000000000000000000000000000000000000000000000000000000000000000000000000000000000000000000000000000000000000000000000000000000000000000000000000000000",
      "type": "0x0",
      "transactionHash": "0xe3fe9043478b2cb706514405df557e38f5a084c6b029e79425650996458046a9",
      "transactionIndex": "0x0",
      "blockHash": "0xb3ac79b2bd85168aea977cfaeae135917fa5aaef1522c3c67a5cb95265d050e3",
      "blockNumber": "0x324f922",
      "gasUsed": "0x1e5ea",
      "effectiveGasPrice": "0x4a817c800",
      "from": "0xe62ab4d111f968660c6b2188046f9b9ba53c4bae",
      "to": "0x1736009b39009f1cd6f08791c781317c2dce4a88",
      "contractAddress": null
    },
    {
      "status": "0x1",
      "cumulativeGasUsed": "0x1e472",
      "logs": [],
      "logsBloom": "0x00000000000000000000000000000000000000000000000000000000000000000000000000000000000000000000000000000000000000000000000000000000000000000000000000000000000000000000000000000000000000000000000000000000000000000000000000000000000000000000000000000000000000000000000000000000000000000000000000000000000000000000000000000000000000000000000000000000000000000000000000000000000000000000000000000000000000000000000000000000000000000000000000000000000000000000000000000000000000000000000000000000000000000000000000000000",
      "type": "0x0",
      "transactionHash": "0xaae830e5e2f78546dbbf90ca6936e307f206ee242686ae311aaa0218cc33dee2",
      "transactionIndex": "0x0",
      "blockHash": "0x425dd2f96319d10930da7517901b91d0579c4a60ece76ef5f7f12288c9266c97",
      "blockNumber": "0x324f927",
      "gasUsed": "0x1e472",
      "effectiveGasPrice": "0x4a817c800",
      "from": "0xe62ab4d111f968660c6b2188046f9b9ba53c4bae",
      "to": "0x1736009b39009f1cd6f08791c781317c2dce4a88",
      "contractAddress": null
    },
    {
      "status": "0x1",
      "cumulativeGasUsed": "0x1ebca",
      "logs": [],
      "logsBloom": "0x00000000000000000000000000000000000000000000000000000000000000000000000000000000000000000000000000000000000000000000000000000000000000000000000000000000000000000000000000000000000000000000000000000000000000000000000000000000000000000000000000000000000000000000000000000000000000000000000000000000000000000000000000000000000000000000000000000000000000000000000000000000000000000000000000000000000000000000000000000000000000000000000000000000000000000000000000000000000000000000000000000000000000000000000000000000",
      "type": "0x0",
      "transactionHash": "0x9e60aa2858c1ebcd455d1265a881b627cb48b8336ecf9d0a2b6963285f024ab6",
      "transactionIndex": "0x0",
      "blockHash": "0xa9db473448aa56e592c30e3d6de9995860eaac63ebcbe1b399ad535adc38d1d3",
      "blockNumber": "0x324f92c",
      "gasUsed": "0x1ebca",
      "effectiveGasPrice": "0x4a817c800",
      "from": "0xe62ab4d111f968660c6b2188046f9b9ba53c4bae",
      "to": "0x1736009b39009f1cd6f08791c781317c2dce4a88",
      "contractAddress": null
    },
    {
      "status": "0x1",
      "cumulativeGasUsed": "0x1e2fa",
      "logs": [],
      "logsBloom": "0x00000000000000000000000000000000000000000000000000000000000000000000000000000000000000000000000000000000000000000000000000000000000000000000000000000000000000000000000000000000000000000000000000000000000000000000000000000000000000000000000000000000000000000000000000000000000000000000000000000000000000000000000000000000000000000000000000000000000000000000000000000000000000000000000000000000000000000000000000000000000000000000000000000000000000000000000000000000000000000000000000000000000000000000000000000000",
      "type": "0x0",
      "transactionHash": "0xfadebc4cba9fb031ce4c545a0df1d9b9d14bcb478f4898d0425e10ad8a60b993",
      "transactionIndex": "0x0",
      "blockHash": "0xc1164f152259cc420cab29d83554bf41363620edaf1c8a31479aaa8a7dc8f415",
      "blockNumber": "0x324f931",
      "gasUsed": "0x1e2fa",
      "effectiveGasPrice": "0x4a817c800",
      "from": "0xe62ab4d111f968660c6b2188046f9b9ba53c4bae",
      "to": "0x1736009b39009f1cd6f08791c781317c2dce4a88",
      "contractAddress": null
    },
    {
      "status": "0x1",
      "cumulativeGasUsed": "0x1ea52",
      "logs": [],
      "logsBloom": "0x00000000000000000000000000000000000000000000000000000000000000000000000000000000000000000000000000000000000000000000000000000000000000000000000000000000000000000000000000000000000000000000000000000000000000000000000000000000000000000000000000000000000000000000000000000000000000000000000000000000000000000000000000000000000000000000000000000000000000000000000000000000000000000000000000000000000000000000000000000000000000000000000000000000000000000000000000000000000000000000000000000000000000000000000000000000",
      "type": "0x0",
      "transactionHash": "0xb4f77af2301871d92539ae83be6f66ba653e7121584325665859ca34a44cb733",
      "transactionIndex": "0x0",
      "blockHash": "0x6a8f857f929e9c2bd41ce3941aa58f48753f30cb51a0c9759db055e5e3d60075",
      "blockNumber": "0x324f936",
      "gasUsed": "0x1ea52",
      "effectiveGasPrice": "0x4a817c800",
      "from": "0xe62ab4d111f968660c6b2188046f9b9ba53c4bae",
      "to": "0x1736009b39009f1cd6f08791c781317c2dce4a88",
      "contractAddress": null
    },
    {
      "status": "0x1",
      "cumulativeGasUsed": "0x1e5ea",
      "logs": [],
      "logsBloom": "0x00000000000000000000000000000000000000000000000000000000000000000000000000000000000000000000000000000000000000000000000000000000000000000000000000000000000000000000000000000000000000000000000000000000000000000000000000000000000000000000000000000000000000000000000000000000000000000000000000000000000000000000000000000000000000000000000000000000000000000000000000000000000000000000000000000000000000000000000000000000000000000000000000000000000000000000000000000000000000000000000000000000000000000000000000000000",
      "type": "0x0",
      "transactionHash": "0x6eb21cb0bdf7c50d71bd2aee5b8265255b82ea746e9ca6128a9f9aa33bf8dd8b",
      "transactionIndex": "0x0",
      "blockHash": "0x6fc4d7d5c58c55e8ccb099ec98a8c3969288bfb4ac728b1009d807277b0e0736",
      "blockNumber": "0x324f93b",
      "gasUsed": "0x1e5ea",
      "effectiveGasPrice": "0x4a817c800",
      "from": "0xe62ab4d111f968660c6b2188046f9b9ba53c4bae",
      "to": "0x1736009b39009f1cd6f08791c781317c2dce4a88",
      "contractAddress": null
    },
    {
      "status": "0x1",
      "cumulativeGasUsed": "0x1b4604",
      "logs": [],
      "logsBloom": "0x00000000000000000000000000000000000000000000000000000000000000000000000000000000000000000000000000000000000000000000000000000000000000000000000000000000000000000000000000000000000000000000000000000000000000000000000000000000000000000000000000000000000000000000000000000000000000000000000000000000000000000000000000000000000000000000000000000000000000000000000000000000000000000000000000000000000000000000000000000000000000000000000000000000000000000000000000000000000000000000000000000000000000000000000000000000",
      "type": "0x0",
      "transactionHash": "0xad0bc91617c8fbde9bc4d23f8b0dd6b915454af5fc3d98ed0fa5bd3d4bba387f",
      "transactionIndex": "0x0",
      "blockHash": "0x4f5ae7e5e3cad53017f21f590b9983d26e47a87ee90fcd928db7e5fa13855514",
      "blockNumber": "0x324f941",
      "gasUsed": "0x1b4604",
      "effectiveGasPrice": "0x4a817c800",
      "from": "0xe62ab4d111f968660c6b2188046f9b9ba53c4bae",
      "to": "0x7a63f6b51c503e9a3354af8262e8c7129abdbbeb",
      "contractAddress": null
    },
    {
      "status": "0x1",
      "cumulativeGasUsed": "0x234648",
      "logs": [],
      "logsBloom": "0x00000000000000000000000000000000000000000000000000000000000000000000000000000000000000000000000000000000000000000000000000000000000000000000000000000000000000000000000000000000000000000000000000000000000000000000000000000000000000000000000000000000000000000000000000000000000000000000000000000000000000000000000000000000000000000000000000000000000000000000000000000000000000000000000000000000000000000000000000000000000000000000000000000000000000000000000000000000000000000000000000000000000000000000000000000000",
      "type": "0x0",
      "transactionHash": "0xe28fbcb31da5cd835db9652b928e9369444d4db69820f08a9d3e1bb0bbd5e2a7",
      "transactionIndex": "0x0",
      "blockHash": "0x0c036329336d24aa6c98d086026ae9ef947cc061dcc2e1a446a99948ed1876ab",
      "blockNumber": "0x324f945",
      "gasUsed": "0x234648",
      "effectiveGasPrice": "0x4a817c800",
      "from": "0xe62ab4d111f968660c6b2188046f9b9ba53c4bae",
      "to": "0x7a63f6b51c503e9a3354af8262e8c7129abdbbeb",
      "contractAddress": null
    },
    {
      "status": "0x1",
      "cumulativeGasUsed": "0x1dab03",
      "logs": [],
      "logsBloom": "0x00000000000000000000000000000000000000000000000000000000000000000000000000000000000000000000000000000000000000000000000000000000000000000000000000000000000000000000000000000000000000000000000000000000000000000000000000000000000000000000000000000000000000000000000000000000000000000000000000000000000000000000000000000000000000000000000000000000000000000000000000000000000000000000000000000000000000000000000000000000000000000000000000000000000000000000000000000000000000000000000000000000000000000000000000000000",
      "type": "0x0",
      "transactionHash": "0xb0290693296b11f30f34a64d883ca5b9139ea2a643241f15853aa93438f9d791",
      "transactionIndex": "0x0",
      "blockHash": "0xd781203a89bd879561bdf470e6e1d008562e6c4fe914a4fcec4b78dbf0b0e913",
      "blockNumber": "0x324f949",
      "gasUsed": "0x1dab03",
      "effectiveGasPrice": "0x4a817c800",
      "from": "0xe62ab4d111f968660c6b2188046f9b9ba53c4bae",
      "to": "0x7a63f6b51c503e9a3354af8262e8c7129abdbbeb",
      "contractAddress": null
    },
    {
      "status": "0x1",
      "cumulativeGasUsed": "0x1ee108",
      "logs": [],
      "logsBloom": "0x00000000000000000000000000000000000000000000000000000000000000000000000000000000000000000000000000000000000000000000000000000000000000000000000000000000000000000000000000000000000000000000000000000000000000000000000000000000000000000000000000000000000000000000000000000000000000000000000000000000000000000000000000000000000000000000000000000000000000000000000000000000000000000000000000000000000000000000000000000000000000000000000000000000000000000000000000000000000000000000000000000000000000000000000000000000",
      "type": "0x0",
      "transactionHash": "0xcb0e0bb8386d270a137fcb7ee3516d0b2abb3a451759fd2fe09404262ed79763",
      "transactionIndex": "0x1",
      "blockHash": "0x11105863526944ef81df34343ee74f559674ead7713b200b61c06814dfdc9c7d",
      "blockNumber": "0x324f94d",
      "gasUsed": "0x1db435",
      "effectiveGasPrice": "0x4a817c800",
      "from": "0xe62ab4d111f968660c6b2188046f9b9ba53c4bae",
      "to": "0x7a63f6b51c503e9a3354af8262e8c7129abdbbeb",
      "contractAddress": null
    }
  ],
  "libraries": [],
  "pending": [],
  "returns": {},
  "timestamp": 1748394941,
  "chain": 97,
  "commit": "2bab1f2d"
}