{
  "transactions": [
    {
      "hash": "0x1ee1a89a1eb287d9692852b207c223880bb001a8f754ad987edfd7a675fc3bf0",
      "transactionType": "CALL",
      "contractName": "FeeManager",
      "contractAddress": "0x8b97e011a2f64f705c0a65706fb7bb968cb13d52",
      "function": "getFeeTokenList()",
      "arguments": [],
      "transaction": {
        "from": "0xe62ab4d111f968660c6b2188046f9b9ba53c4bae",
        "to": "0x8b97e011a2f64f705c0a65706fb7bb968cb13d52",
        "gas": "0x8a7e",
        "value": "0x0",
        "input": "0xe28ab277",
        "nonce": "0x2f2",
        "chainId": "0x61"
      },
      "additionalContracts": [],
      "isFixedGasLimit": false
    },
    {
      "hash": "0xfae27e703018f57dc263d4d9660a0661aef3b4a92b6745fc5ec034a20a713b90",
      "transactionType": "CALL",
      "contractName": "FeeManager",
      "contractAddress": "0x8b97e011a2f64f705c0a65706fb7bb968cb13d52",
      "function": "addFeeToken(string)",
      "arguments": [
        "0xdd43fc986a13392ddbc7aea150b41efe27b2d0ed"
      ],
      "transaction": {
        "from": "0xe62ab4d111f968660c6b2188046f9b9ba53c4bae",
        "to": "0x8b97e011a2f64f705c0a65706fb7bb968cb13d52",
        "gas": "0x26af2",
        "value": "0x0",
        "input": "0x12a6385f0000000000000000000000000000000000000000000000000000000000000020000000000000000000000000000000000000000000000000000000000000002a30786464343366633938366131333339326464626337616561313530623431656665323762326430656400000000000000000000000000000000000000000000",
        "nonce": "0x2f3",
        "chainId": "0x61"
      },
      "additionalContracts": [],
      "isFixedGasLimit": false
    },
    {
      "hash": "0xcbbc3c9e6c3efbe88678170a5be2daaa940a825f71f0f03ffb34435bcd176e27",
      "transactionType": "CALL",
      "contractName": "FeeManager",
      "contractAddress": "0x8b97e011a2f64f705c0a65706fb7bb968cb13d52",
      "function": "setFeeMultiplier(uint8,uint256)",
      "arguments": [
        "0",
        "2"
      ],
      "transaction": {
        "from": "0xe62ab4d111f968660c6b2188046f9b9ba53c4bae",
        "to": "0x8b97e011a2f64f705c0a65706fb7bb968cb13d52",
        "gas": "0x112e8",
        "value": "0x0",
        "input": "0x0ee24eb500000000000000000000000000000000000000000000000000000000000000000000000000000000000000000000000000000000000000000000000000000002",
        "nonce": "0x2f4",
        "chainId": "0x61"
      },
      "additionalContracts": [],
      "isFixedGasLimit": false
    },
    {
      "hash": "0x6fea856d989e2d7ac5c5d64b704ae5c47081c7271289861ee6dd49cd106fc6b0",
      "transactionType": "CALL",
      "contractName": "FeeManager",
      "contractAddress": "0x8b97e011a2f64f705c0a65706fb7bb968cb13d52",
      "function": "setFeeMultiplier(uint8,uint256)",
      "arguments": [
        "1",
        "10"
      ],
      "transaction": {
        "from": "0xe62ab4d111f968660c6b2188046f9b9ba53c4bae",
        "to": "0x8b97e011a2f64f705c0a65706fb7bb968cb13d52",
        "gas": "0x11324",
        "value": "0x0",
        "input": "0x0ee24eb50000000000000000000000000000000000000000000000000000000000000001000000000000000000000000000000000000000000000000000000000000000a",
        "nonce": "0x2f5",
        "chainId": "0x61"
      },
      "additionalContracts": [],
      "isFixedGasLimit": false
    },
    {
      "hash": "0xfa860147875d68ac6c1056386d102391a6764524531f7dc4ae37ac80914eb617",
      "transactionType": "CALL",
      "contractName": "FeeManager",
      "contractAddress": "0x8b97e011a2f64f705c0a65706fb7bb968cb13d52",
      "function": "setFeeMultiplier(uint8,uint256)",
      "arguments": [
        "2",
        "1"
      ],
      "transaction": {
        "from": "0xe62ab4d111f968660c6b2188046f9b9ba53c4bae",
        "to": "0x8b97e011a2f64f705c0a65706fb7bb968cb13d52",
        "gas": "0x11346",
        "value": "0x0",
        "input": "0x0ee24eb500000000000000000000000000000000000000000000000000000000000000020000000000000000000000000000000000000000000000000000000000000001",
        "nonce": "0x2f6",
        "chainId": "0x61"
      },
      "additionalContracts": [],
      "isFixedGasLimit": false
    },
    {
      "hash": "0x81a2a4ace2a0f688f31f16c285a7cacd0fee7be2c28a85088a88cc9cd98a1b9a",
      "transactionType": "CALL",
      "contractName": "FeeManager",
      "contractAddress": "0x8b97e011a2f64f705c0a65706fb7bb968cb13d52",
      "function": "setFeeMultiplier(uint8,uint256)",
      "arguments": [
        "3",
        "4"
      ],
      "transaction": {
        "from": "0xe62ab4d111f968660c6b2188046f9b9ba53c4bae",
        "to": "0x8b97e011a2f64f705c0a65706fb7bb968cb13d52",
        "gas": "0x1041b",
        "value": "0x0",
        "input": "0x0ee24eb500000000000000000000000000000000000000000000000000000000000000030000000000000000000000000000000000000000000000000000000000000004",
        "nonce": "0x2f7",
        "chainId": "0x61"
      },
      "additionalContracts": [],
      "isFixedGasLimit": false
    },
    {
      "hash": "0x36f8e6118dbe88975c1ca7b68ef0af1ac98be175ca847197e4ec199c09e71044",
      "transactionType": "CALL",
      "contractName": "FeeManager",
      "contractAddress": "0x8b97e011a2f64f705c0a65706fb7bb968cb13d52",
      "function": "setFeeMultiplier(uint8,uint256)",
      "arguments": [
        "4",
        "4"
      ],
      "transaction": {
        "from": "0xe62ab4d111f968660c6b2188046f9b9ba53c4bae",
        "to": "0x8b97e011a2f64f705c0a65706fb7bb968cb13d52",
        "gas": "0x1043a",
        "value": "0x0",
        "input": "0x0ee24eb500000000000000000000000000000000000000000000000000000000000000040000000000000000000000000000000000000000000000000000000000000004",
        "nonce": "0x2f8",
        "chainId": "0x61"
      },
      "additionalContracts": [],
      "isFixedGasLimit": false
    },
    {
      "hash": "0x3b6ff471114ceffa24fd61cf6562300dd4d558b6d7fb03a4f59e7822758111c6",
      "transactionType": "CALL",
      "contractName": "FeeManager",
      "contractAddress": "0x8b97e011a2f64f705c0a65706fb7bb968cb13d52",
      "function": "setFeeMultiplier(uint8,uint256)",
      "arguments": [
        "5",
        "4"
      ],
      "transaction": {
        "from": "0xe62ab4d111f968660c6b2188046f9b9ba53c4bae",
        "to": "0x8b97e011a2f64f705c0a65706fb7bb968cb13d52",
        "gas": "0x10459",
        "value": "0x0",
        "input": "0x0ee24eb500000000000000000000000000000000000000000000000000000000000000050000000000000000000000000000000000000000000000000000000000000004",
        "nonce": "0x2f9",
        "chainId": "0x61"
      },
      "additionalContracts": [],
      "isFixedGasLimit": false
    },
    {
      "hash": "0xc399256e4b565a41640ca1ccf8147dc75112785e15552f8270263feba896d4b9",
      "transactionType": "CALL",
      "contractName": "FeeManager",
      "contractAddress": "0x8b97e011a2f64f705c0a65706fb7bb968cb13d52",
      "function": "setFeeMultiplier(uint8,uint256)",
      "arguments": [
        "6",
        "8"
      ],
      "transaction": {
        "from": "0xe62ab4d111f968660c6b2188046f9b9ba53c4bae",
        "to": "0x8b97e011a2f64f705c0a65706fb7bb968cb13d52",
        "gas": "0x1047a",
        "value": "0x0",
        "input": "0x0ee24eb500000000000000000000000000000000000000000000000000000000000000060000000000000000000000000000000000000000000000000000000000000008",
        "nonce": "0x2fa",
        "chainId": "0x61"
      },
      "additionalContracts": [],
      "isFixedGasLimit": false
    },
    {
      "hash": "0xc153df11a5c220ef236fd9abb1afd83f2d351c492c9d9f12a1ad9792a3f3da43",
      "transactionType": "CALL",
      "contractName": "FeeManager",
      "contractAddress": "0x8b97e011a2f64f705c0a65706fb7bb968cb13d52",
      "function": "setFeeMultiplier(uint8,uint256)",
      "arguments": [
        "7",
        "4"
      ],
      "transaction": {
        "from": "0xe62ab4d111f968660c6b2188046f9b9ba53c4bae",
        "to": "0x8b97e011a2f64f705c0a65706fb7bb968cb13d52",
        "gas": "0x10499",
        "value": "0x0",
        "input": "0x0ee24eb500000000000000000000000000000000000000000000000000000000000000070000000000000000000000000000000000000000000000000000000000000004",
        "nonce": "0x2fb",
        "chainId": "0x61"
      },
      "additionalContracts": [],
      "isFixedGasLimit": false
    },
    {
      "hash": "0x3f41df9e0bfb560977b20483f2a0a185ddbb3b502cc670d9ad5bc0514f620c15",
      "transactionType": "CALL",
      "contractName": "FeeManager",
      "contractAddress": "0x8b97e011a2f64f705c0a65706fb7bb968cb13d52",
      "function": "setFeeMultiplier(uint8,uint256)",
      "arguments": [
        "8",
        "10"
      ],
      "transaction": {
        "from": "0xe62ab4d111f968660c6b2188046f9b9ba53c4bae",
        "to": "0x8b97e011a2f64f705c0a65706fb7bb968cb13d52",
        "gas": "0x1140f",
        "value": "0x0",
        "input": "0x0ee24eb50000000000000000000000000000000000000000000000000000000000000008000000000000000000000000000000000000000000000000000000000000000a",
        "nonce": "0x2fc",
        "chainId": "0x61"
      },
      "additionalContracts": [],
      "isFixedGasLimit": false
    },
    {
      "hash": "0x690d205ceede3e3f06f13631762ef5ac9e460c231756f603ef556335a9e041d2",
      "transactionType": "CALL",
      "contractName": "FeeManager",
      "contractAddress": "0x8b97e011a2f64f705c0a65706fb7bb968cb13d52",
      "function": "setFeeMultiplier(uint8,uint256)",
      "arguments": [
        "9",
        "8"
      ],
      "transaction": {
        "from": "0xe62ab4d111f968660c6b2188046f9b9ba53c4bae",
        "to": "0x8b97e011a2f64f705c0a65706fb7bb968cb13d52",
        "gas": "0x11431",
        "value": "0x0",
        "input": "0x0ee24eb500000000000000000000000000000000000000000000000000000000000000090000000000000000000000000000000000000000000000000000000000000008",
        "nonce": "0x2fd",
        "chainId": "0x61"
      },
      "additionalContracts": [],
      "isFixedGasLimit": false
    },
    {
      "hash": "0xee75fd37cfad3b74af3b4ad0e9a7832885cfa7155d1cf77306d03bbac7efdeb3",
      "transactionType": "CALL",
      "contractName": "FeeManager",
      "contractAddress": "0x8b97e011a2f64f705c0a65706fb7bb968cb13d52",
      "function": "setFeeMultiplier(uint8,uint256)",
      "arguments": [
        "10",
        "8"
      ],
      "transaction": {
        "from": "0xe62ab4d111f968660c6b2188046f9b9ba53c4bae",
        "to": "0x8b97e011a2f64f705c0a65706fb7bb968cb13d52",
        "gas": "0x11453",
        "value": "0x0",
        "input": "0x0ee24eb5000000000000000000000000000000000000000000000000000000000000000a0000000000000000000000000000000000000000000000000000000000000008",
        "nonce": "0x2fe",
        "chainId": "0x61"
      },
      "additionalContracts": [],
      "isFixedGasLimit": false
    },
    {
      "hash": "0x58885b9fbf2f796c499b238365eb2af5ad518d2571ec8292b0b204afff004ac1",
      "transactionType": "CALL",
      "contractName": "FeeManager",
      "contractAddress": "0x8b97e011a2f64f705c0a65706fb7bb968cb13d52",
      "function": "setFeeMultiplier(uint8,uint256)",
      "arguments": [
        "11",
        "8"
      ],
      "transaction": {
        "from": "0xe62ab4d111f968660c6b2188046f9b9ba53c4bae",
        "to": "0x8b97e011a2f64f705c0a65706fb7bb968cb13d52",
        "gas": "0x10518",
        "value": "0x0",
        "input": "0x0ee24eb5000000000000000000000000000000000000000000000000000000000000000b0000000000000000000000000000000000000000000000000000000000000008",
        "nonce": "0x2ff",
        "chainId": "0x61"
      },
      "additionalContracts": [],
      "isFixedGasLimit": false
    },
    {
      "hash": "0x746294f175a6976fab4d54f99b455dd11017e59eaefe68f177ef4971720a66e3",
      "transactionType": "CALL",
      "contractName": "FeeManager",
      "contractAddress": "0x8b97e011a2f64f705c0a65706fb7bb968cb13d52",
      "function": "setFeeMultiplier(uint8,uint256)",
      "arguments": [
        "12",
        "20"
      ],
      "transaction": {
        "from": "0xe62ab4d111f968660c6b2188046f9b9ba53c4bae",
        "to": "0x8b97e011a2f64f705c0a65706fb7bb968cb13d52",
        "gas": "0x10538",
        "value": "0x0",
        "input": "0x0ee24eb5000000000000000000000000000000000000000000000000000000000000000c0000000000000000000000000000000000000000000000000000000000000014",
        "nonce": "0x300",
        "chainId": "0x61"
      },
      "additionalContracts": [],
      "isFixedGasLimit": false
    },
    {
      "hash": "0x132760003a12a78468bca0acca29848647e1738c714f5264116204560d2a283f",
      "transactionType": "CALL",
      "contractName": "FeeManager",
      "contractAddress": "0x8b97e011a2f64f705c0a65706fb7bb968cb13d52",
      "function": "setFeeMultiplier(uint8,uint256)",
      "arguments": [
        "13",
        "8"
      ],
      "transaction": {
        "from": "0xe62ab4d111f968660c6b2188046f9b9ba53c4bae",
        "to": "0x8b97e011a2f64f705c0a65706fb7bb968cb13d52",
        "gas": "0x10558",
        "value": "0x0",
        "input": "0x0ee24eb5000000000000000000000000000000000000000000000000000000000000000d0000000000000000000000000000000000000000000000000000000000000008",
        "nonce": "0x301",
        "chainId": "0x61"
      },
      "additionalContracts": [],
      "isFixedGasLimit": false
    },
    {
      "hash": "0x2617e8d44b9e025f60cebf06727d7bc022e99a7c348b353aa01d56a22402cae5",
      "transactionType": "CALL",
      "contractName": "FeeManager",
      "contractAddress": "0x8b97e011a2f64f705c0a65706fb7bb968cb13d52",
      "function": "setFeeMultiplier(uint8,uint256)",
      "arguments": [
        "14",
        "4"
      ],
      "transaction": {
        "from": "0xe62ab4d111f968660c6b2188046f9b9ba53c4bae",
        "to": "0x8b97e011a2f64f705c0a65706fb7bb968cb13d52",
        "gas": "0x10577",
        "value": "0x0",
        "input": "0x0ee24eb5000000000000000000000000000000000000000000000000000000000000000e0000000000000000000000000000000000000000000000000000000000000004",
        "nonce": "0x302",
        "chainId": "0x61"
      },
      "additionalContracts": [],
      "isFixedGasLimit": false
    },
    {
      "hash": "0x47ce461eed85bf080c4e4077dd8ccf204e68012862e522d00ef500a8b7eab375",
      "transactionType": "CALL",
      "contractName": "FeeManager",
      "contractAddress": "0x8b97e011a2f64f705c0a65706fb7bb968cb13d52",
      "function": "setFeeMultiplier(uint8,uint256)",
      "arguments": [
        "15",
        "4"
      ],
      "transaction": {
        "from": "0xe62ab4d111f968660c6b2188046f9b9ba53c4bae",
        "to": "0x8b97e011a2f64f705c0a65706fb7bb968cb13d52",
        "gas": "0x10598",
        "value": "0x0",
        "input": "0x0ee24eb5000000000000000000000000000000000000000000000000000000000000000f0000000000000000000000000000000000000000000000000000000000000004",
        "nonce": "0x303",
        "chainId": "0x61"
      },
      "additionalContracts": [],
      "isFixedGasLimit": false
    },
    {
      "hash": "0x196065bb9b041593433fe0f2762afb8d7d99cf081c414bb00a97c35c7923f61c",
      "transactionType": "CALL",
      "contractName": "FeeManager",
      "contractAddress": "0x8b97e011a2f64f705c0a65706fb7bb968cb13d52",
      "function": "setFeeMultiplier(uint8,uint256)",
      "arguments": [
        "16",
        "4"
      ],
      "transaction": {
        "from": "0xe62ab4d111f968660c6b2188046f9b9ba53c4bae",
        "to": "0x8b97e011a2f64f705c0a65706fb7bb968cb13d52",
        "gas": "0x1151d",
        "value": "0x0",
        "input": "0x0ee24eb500000000000000000000000000000000000000000000000000000000000000100000000000000000000000000000000000000000000000000000000000000004",
        "nonce": "0x304",
        "chainId": "0x61"
      },
      "additionalContracts": [],
      "isFixedGasLimit": false
    },
    {
      "hash": "0xd56b584d6bd7a7abfaaea1f2d7b571b704b7a1468990ec478d4d467e49ae66db",
      "transactionType": "CALL",
      "contractName": "FeeManager",
      "contractAddress": "0x8b97e011a2f64f705c0a65706fb7bb968cb13d52",
      "function": "setFeeMultiplier(uint8,uint256)",
      "arguments": [
        "17",
        "4"
      ],
      "transaction": {
        "from": "0xe62ab4d111f968660c6b2188046f9b9ba53c4bae",
        "to": "0x8b97e011a2f64f705c0a65706fb7bb968cb13d52",
        "gas": "0x1153e",
        "value": "0x0",
        "input": "0x0ee24eb500000000000000000000000000000000000000000000000000000000000000110000000000000000000000000000000000000000000000000000000000000004",
        "nonce": "0x305",
        "chainId": "0x61"
      },
      "additionalContracts": [],
      "isFixedGasLimit": false
    },
    {
      "hash": "0x0ecdcd680de83c70fa4c181512275a9c36441987a12f343fc9c8deeb5f846e1f",
      "transactionType": "CALL",
      "contractName": "FeeManager",
      "contractAddress": "0x8b97e011a2f64f705c0a65706fb7bb968cb13d52",
      "function": "setFeeMultiplier(uint8,uint256)",
      "arguments": [
        "18",
        "2"
      ],
      "transaction": {
        "from": "0xe62ab4d111f968660c6b2188046f9b9ba53c4bae",
        "to": "0x8b97e011a2f64f705c0a65706fb7bb968cb13d52",
        "gas": "0x11560",
        "value": "0x0",
        "input": "0x0ee24eb500000000000000000000000000000000000000000000000000000000000000120000000000000000000000000000000000000000000000000000000000000002",
        "nonce": "0x306",
        "chainId": "0x61"
      },
      "additionalContracts": [],
      "isFixedGasLimit": false
    },
    {
      "hash": "0x6ab9d9c628951bcac255f8ab15e5fd16b8be57f0aef510913cd59c446f3a3671",
      "transactionType": "CALL",
      "contractName": "FeeManager",
      "contractAddress": "0x8b97e011a2f64f705c0a65706fb7bb968cb13d52",
      "function": "setFeeMultiplier(uint8,uint256)",
      "arguments": [
        "19",
        "20"
      ],
      "transaction": {
        "from": "0xe62ab4d111f968660c6b2188046f9b9ba53c4bae",
        "to": "0x8b97e011a2f64f705c0a65706fb7bb968cb13d52",
        "gas": "0x10617",
        "value": "0x0",
        "input": "0x0ee24eb500000000000000000000000000000000000000000000000000000000000000130000000000000000000000000000000000000000000000000000000000000014",
        "nonce": "0x307",
        "chainId": "0x61"
      },
      "additionalContracts": [],
      "isFixedGasLimit": false
    },
    {
      "hash": "0x22e4bfdfc188c6c3c23fe4fb6b574d2ef9385474a2f08410687054f77fa3ee00",
      "transactionType": "CALL",
      "contractName": "FeeManager",
      "contractAddress": "0x8b97e011a2f64f705c0a65706fb7bb968cb13d52",
      "function": "setFeeMultiplier(uint8,uint256)",
      "arguments": [
        "20",
        "2"
      ],
      "transaction": {
        "from": "0xe62ab4d111f968660c6b2188046f9b9ba53c4bae",
        "to": "0x8b97e011a2f64f705c0a65706fb7bb968cb13d52",
        "gas": "0x1159c",
        "value": "0x0",
        "input": "0x0ee24eb500000000000000000000000000000000000000000000000000000000000000140000000000000000000000000000000000000000000000000000000000000002",
        "nonce": "0x308",
        "chainId": "0x61"
      },
      "additionalContracts": [],
      "isFixedGasLimit": false
    },
    {
      "hash": "0x4374f7cd6ab8daffb8e39b34c16472c23a739ef16c1a07009659038cfe719e2f",
      "transactionType": "CALL",
      "contractName": "FeeManager",
      "contractAddress": "0x8b97e011a2f64f705c0a65706fb7bb968cb13d52",
      "function": "addFeeToken(string,string[],uint256[])",
      "arguments": [
        "421614",
        "[0xdd43fc986a13392ddbc7aea150b41efe27b2d0ed]",
        "[100]"
      ],
      "transaction": {
        "from": "0xe62ab4d111f968660c6b2188046f9b9ba53c4bae",
        "to": "0x8b97e011a2f64f705c0a65706fb7bb968cb13d52",
        "gas": "0x3259e",
        "value": "0x0",
        "input": "0x437bf84f000000000000000000000000000000000000000000000000000000000000006000000000000000000000000000000000000000000000000000000000000000a000000000000000000000000000000000000000000000000000000000000001400000000000000000000000000000000000000000000000000000000000000006343231363134000000000000000000000000000000000000000000000000000000000000000000000000000000000000000000000000000000000000000000010000000000000000000000000000000000000000000000000000000000000020000000000000000000000000000000000000000000000000000000000000002a3078646434336663393836613133333932646462633761656131353062343165666532376232643065640000000000000000000000000000000000000000000000000000000000000000000000000000000000000000000000000000000000010000000000000000000000000000000000000000000000000000000000000064",
        "nonce": "0x309",
        "chainId": "0x61"
      },
      "additionalContracts": [],
      "isFixedGasLimit": false
    },
    {
      "hash": "0xeee397178171a10acb7cdac147ab4e99cd3f21568a962c689484cd4ea6374663",
      "transactionType": "CALL",
      "contractName": "FeeManager",
      "contractAddress": "0x8b97e011a2f64f705c0a65706fb7bb968cb13d52",
      "function": "addFeeToken(string,string[],uint256[])",
      "arguments": [
        "80002",
        "[0xdd43fc986a13392ddbc7aea150b41efe27b2d0ed]",
        "[100]"
      ],
      "transaction": {
        "from": "0xe62ab4d111f968660c6b2188046f9b9ba53c4bae",
        "to": "0x8b97e011a2f64f705c0a65706fb7bb968cb13d52",
        "gas": "0x2cd23",
        "value": "0x0",
        "input": "0x437bf84f000000000000000000000000000000000000000000000000000000000000006000000000000000000000000000000000000000000000000000000000000000a000000000000000000000000000000000000000000000000000000000000001400000000000000000000000000000000000000000000000000000000000000005383030303200000000000000000000000000000000000000000000000000000000000000000000000000000000000000000000000000000000000000000000010000000000000000000000000000000000000000000000000000000000000020000000000000000000000000000000000000000000000000000000000000002a3078646434336663393836613133333932646462633761656131353062343165666532376232643065640000000000000000000000000000000000000000000000000000000000000000000000000000000000000000000000000000000000010000000000000000000000000000000000000000000000000000000000000064",
        "nonce": "0x30a",
        "chainId": "0x61"
      },
      "additionalContracts": [],
      "isFixedGasLimit": false
    },
    {
      "hash": "0x201ca0f68d94b2d903e31a3b99340e248a3466a3637c0e45e2c10020facef7f6",
      "transactionType": "CALL",
      "contractName": "FeeManager",
      "contractAddress": "0x8b97e011a2f64f705c0a65706fb7bb968cb13d52",
      "function": "addFeeToken(string,string[],uint256[])",
      "arguments": [
        "84532",
        "[0xdd43fc986a13392ddbc7aea150b41efe27b2d0ed]",
        "[100]"
      ],
      "transaction": {
        "from": "0xe62ab4d111f968660c6b2188046f9b9ba53c4bae",
        "to": "0x8b97e011a2f64f705c0a65706fb7bb968cb13d52",
        "gas": "0x2cd23",
        "value": "0x0",
        "input": "0x437bf84f000000000000000000000000000000000000000000000000000000000000006000000000000000000000000000000000000000000000000000000000000000a000000000000000000000000000000000000000000000000000000000000001400000000000000000000000000000000000000000000000000000000000000005383435333200000000000000000000000000000000000000000000000000000000000000000000000000000000000000000000000000000000000000000000010000000000000000000000000000000000000000000000000000000000000020000000000000000000000000000000000000000000000000000000000000002a3078646434336663393836613133333932646462633761656131353062343165666532376232643065640000000000000000000000000000000000000000000000000000000000000000000000000000000000000000000000000000000000010000000000000000000000000000000000000000000000000000000000000064",
        "nonce": "0x30b",
        "chainId": "0x61"
      },
      "additionalContracts": [],
      "isFixedGasLimit": false
    },
    {
      "hash": "0x18449edd457a3299f93e57d22de4ad6522d890718ecfd734e2ff7116a5ea9b66",
      "transactionType": "CALL",
      "contractName": "FeeManager",
      "contractAddress": "0x8b97e011a2f64f705c0a65706fb7bb968cb13d52",
      "function": "addFeeToken(string,string[],uint256[])",
      "arguments": [
        "59141",
        "[0xdd43fc986a13392ddbc7aea150b41efe27b2d0ed]",
        "[100]"
      ],
      "transaction": {
        "from": "0xe62ab4d111f968660c6b2188046f9b9ba53c4bae",
        "to": "0x8b97e011a2f64f705c0a65706fb7bb968cb13d52",
        "gas": "0x2cd23",
        "value": "0x0",
        "input": "0x437bf84f000000000000000000000000000000000000000000000000000000000000006000000000000000000000000000000000000000000000000000000000000000a000000000000000000000000000000000000000000000000000000000000001400000000000000000000000000000000000000000000000000000000000000005353931343100000000000000000000000000000000000000000000000000000000000000000000000000000000000000000000000000000000000000000000010000000000000000000000000000000000000000000000000000000000000020000000000000000000000000000000000000000000000000000000000000002a3078646434336663393836613133333932646462633761656131353062343165666532376232643065640000000000000000000000000000000000000000000000000000000000000000000000000000000000000000000000000000000000010000000000000000000000000000000000000000000000000000000000000064",
        "nonce": "0x30c",
        "chainId": "0x61"
      },
      "additionalContracts": [],
      "isFixedGasLimit": false
    },
    {
      "hash": "0x84b7dc899829463e5946bb00d2f2b200d52156364a2b495b5c6aaa27c0bd14f5",
      "transactionType": "CALL",
      "contractName": "FeeManager",
      "contractAddress": "0x8b97e011a2f64f705c0a65706fb7bb968cb13d52",
      "function": "addFeeToken(string,string[],uint256[])",
      "arguments": [
        "1115",
        "[0xdd43fc986a13392ddbc7aea150b41efe27b2d0ed]",
        "[100]"
      ],
      "transaction": {
        "from": "0xe62ab4d111f968660c6b2188046f9b9ba53c4bae",
        "to": "0x8b97e011a2f64f705c0a65706fb7bb968cb13d52",
        "gas": "0x2a333",
        "value": "0x0",
        "input": "0x437bf84f000000000000000000000000000000000000000000000000000000000000006000000000000000000000000000000000000000000000000000000000000000a000000000000000000000000000000000000000000000000000000000000001400000000000000000000000000000000000000000000000000000000000000004313131350000000000000000000000000000000000000000000000000000000000000000000000000000000000000000000000000000000000000000000000010000000000000000000000000000000000000000000000000000000000000020000000000000000000000000000000000000000000000000000000000000002a3078646434336663393836613133333932646462633761656131353062343165666532376232643065640000000000000000000000000000000000000000000000000000000000000000000000000000000000000000000000000000000000010000000000000000000000000000000000000000000000000000000000000064",
        "nonce": "0x30d",
        "chainId": "0x61"
      },
      "additionalContracts": [],
      "isFixedGasLimit": false
    },
    {
      "hash": "0x65611f3e0dd033abaa7b742e2fc769ce6a41399f14d4170dd5e39a528289fb7e",
      "transactionType": "CALL",
      "contractName": "FeeManager",
      "contractAddress": "0x8b97e011a2f64f705c0a65706fb7bb968cb13d52",
      "function": "addFeeToken(string,string[],uint256[])",
      "arguments": [
        "17000",
        "[0xdd43fc986a13392ddbc7aea150b41efe27b2d0ed]",
        "[100]"
      ],
      "transaction": {
        "from": "0xe62ab4d111f968660c6b2188046f9b9ba53c4bae",
        "to": "0x8b97e011a2f64f705c0a65706fb7bb968cb13d52",
        "gas": "0x2cd23",
        "value": "0x0",
        "input": "0x437bf84f000000000000000000000000000000000000000000000000000000000000006000000000000000000000000000000000000000000000000000000000000000a000000000000000000000000000000000000000000000000000000000000001400000000000000000000000000000000000000000000000000000000000000005313730303000000000000000000000000000000000000000000000000000000000000000000000000000000000000000000000000000000000000000000000010000000000000000000000000000000000000000000000000000000000000020000000000000000000000000000000000000000000000000000000000000002a3078646434336663393836613133333932646462633761656131353062343165666532376232643065640000000000000000000000000000000000000000000000000000000000000000000000000000000000000000000000000000000000010000000000000000000000000000000000000000000000000000000000000064",
        "nonce": "0x30e",
        "chainId": "0x61"
      },
      "additionalContracts": [],
      "isFixedGasLimit": false
    },
    {
      "hash": "0xd5f88f7b14e87334f0ef00f3588a77e13b64afad4b21fae17d0bc5370bc516e6",
      "transactionType": "CALL",
      "contractName": "FeeManager",
      "contractAddress": "0x8b97e011a2f64f705c0a65706fb7bb968cb13d52",
      "function": "addFeeToken(string,string[],uint256[])",
      "arguments": [
        "2810",
        "[0xdd43fc986a13392ddbc7aea150b41efe27b2d0ed]",
        "[100]"
      ],
      "transaction": {
        "from": "0xe62ab4d111f968660c6b2188046f9b9ba53c4bae",
        "to": "0x8b97e011a2f64f705c0a65706fb7bb968cb13d52",
        "gas": "0x2a333",
        "value": "0x0",
        "input": "0x437bf84f000000000000000000000000000000000000000000000000000000000000006000000000000000000000000000000000000000000000000000000000000000a000000000000000000000000000000000000000000000000000000000000001400000000000000000000000000000000000000000000000000000000000000004323831300000000000000000000000000000000000000000000000000000000000000000000000000000000000000000000000000000000000000000000000010000000000000000000000000000000000000000000000000000000000000020000000000000000000000000000000000000000000000000000000000000002a3078646434336663393836613133333932646462633761656131353062343165666532376232643065640000000000000000000000000000000000000000000000000000000000000000000000000000000000000000000000000000000000010000000000000000000000000000000000000000000000000000000000000064",
        "nonce": "0x30f",
        "chainId": "0x61"
      },
      "additionalContracts": [],
      "isFixedGasLimit": false
    },
    {
      "hash": "0xe32e36dec4e347c9bdc1f82025dcdc7b95dc7c8319d7cb6d76d156df114c5ec7",
      "transactionType": "CALL",
      "contractName": "FeeManager",
      "contractAddress": "0x8b97e011a2f64f705c0a65706fb7bb968cb13d52",
      "function": "addFeeToken(string,string[],uint256[])",
      "arguments": [
        "168587773",
        "[0xdd43fc986a13392ddbc7aea150b41efe27b2d0ed]",
        "[100]"
      ],
      "transaction": {
        "from": "0xe62ab4d111f968660c6b2188046f9b9ba53c4bae",
        "to": "0x8b97e011a2f64f705c0a65706fb7bb968cb13d52",
        "gas": "0x2d601",
        "value": "0x0",
        "input": "0x437bf84f000000000000000000000000000000000000000000000000000000000000006000000000000000000000000000000000000000000000000000000000000000a000000000000000000000000000000000000000000000000000000000000001400000000000000000000000000000000000000000000000000000000000000009313638353837373733000000000000000000000000000000000000000000000000000000000000000000000000000000000000000000000000000000000000010000000000000000000000000000000000000000000000000000000000000020000000000000000000000000000000000000000000000000000000000000002a3078646434336663393836613133333932646462633761656131353062343165666532376232643065640000000000000000000000000000000000000000000000000000000000000000000000000000000000000000000000000000000000010000000000000000000000000000000000000000000000000000000000000064",
        "nonce": "0x310",
        "chainId": "0x61"
      },
      "additionalContracts": [],
      "isFixedGasLimit": false
    },
    {
      "hash": "0x0d3d5d029341536f26475bcaaf251fae5d39f368180480130c3c9d7b86f4159f",
      "transactionType": "CALL",
      "contractName": "FeeManager",
      "contractAddress": "0x8b97e011a2f64f705c0a65706fb7bb968cb13d52",
      "function": "addFeeToken(string,string[],uint256[])",
      "arguments": [
        "200810",
        "[0xdd43fc986a13392ddbc7aea150b41efe27b2d0ed]",
        "[100]"
      ],
      "transaction": {
        "from": "0xe62ab4d111f968660c6b2188046f9b9ba53c4bae",
        "to": "0x8b97e011a2f64f705c0a65706fb7bb968cb13d52",
        "gas": "0x2a763",
        "value": "0x0",
        "input": "0x437bf84f000000000000000000000000000000000000000000000000000000000000006000000000000000000000000000000000000000000000000000000000000000a000000000000000000000000000000000000000000000000000000000000001400000000000000000000000000000000000000000000000000000000000000006323030383130000000000000000000000000000000000000000000000000000000000000000000000000000000000000000000000000000000000000000000010000000000000000000000000000000000000000000000000000000000000020000000000000000000000000000000000000000000000000000000000000002a3078646434336663393836613133333932646462633761656131353062343165666532376232643065640000000000000000000000000000000000000000000000000000000000000000000000000000000000000000000000000000000000010000000000000000000000000000000000000000000000000000000000000064",
        "nonce": "0x311",
        "chainId": "0x61"
      },
      "additionalContracts": [],
      "isFixedGasLimit": false
    },
    {
      "hash": "0x0e11240179f90e910fd8c2fe31d60ec972d39d5bfecc3d42ca1b8ac7e6aac21e",
      "transactionType": "CALL",
      "contractName": "FeeManager",
      "contractAddress": "0x8b97e011a2f64f705c0a65706fb7bb968cb13d52",
      "function": "addFeeToken(string,string[],uint256[])",
      "arguments": [
        "534351",
        "[0xdd43fc986a13392ddbc7aea150b41efe27b2d0ed]",
        "[100]"
      ],
      "transaction": {
        "from": "0xe62ab4d111f968660c6b2188046f9b9ba53c4bae",
        "to": "0x8b97e011a2f64f705c0a65706fb7bb968cb13d52",
        "gas": "0x2a763",
        "value": "0x0",
        "input": "0x437bf84f000000000000000000000000000000000000000000000000000000000000006000000000000000000000000000000000000000000000000000000000000000a000000000000000000000000000000000000000000000000000000000000001400000000000000000000000000000000000000000000000000000000000000006353334333531000000000000000000000000000000000000000000000000000000000000000000000000000000000000000000000000000000000000000000010000000000000000000000000000000000000000000000000000000000000020000000000000000000000000000000000000000000000000000000000000002a3078646434336663393836613133333932646462633761656131353062343165666532376232643065640000000000000000000000000000000000000000000000000000000000000000000000000000000000000000000000000000000000010000000000000000000000000000000000000000000000000000000000000064",
        "nonce": "0x312",
        "chainId": "0x61"
      },
      "additionalContracts": [],
      "isFixedGasLimit": false
    },
    {
      "hash": "0xedd8cd224183d2387c9fb63dd27167c3adbfc2f18fe7556fc0ec3039d6c95dc5",
      "transactionType": "CALL",
      "contractName": "FeeManager",
      "contractAddress": "0x8b97e011a2f64f705c0a65706fb7bb968cb13d52",
      "function": "addFeeToken(string,string[],uint256[])",
      "arguments": [
        "5003",
        "[0xdd43fc986a13392ddbc7aea150b41efe27b2d0ed]",
        "[100]"
      ],
      "transaction": {
        "from": "0xe62ab4d111f968660c6b2188046f9b9ba53c4bae",
        "to": "0x8b97e011a2f64f705c0a65706fb7bb968cb13d52",
        "gas": "0x2a333",
        "value": "0x0",
        "input": "0x437bf84f000000000000000000000000000000000000000000000000000000000000006000000000000000000000000000000000000000000000000000000000000000a000000000000000000000000000000000000000000000000000000000000001400000000000000000000000000000000000000000000000000000000000000004353030330000000000000000000000000000000000000000000000000000000000000000000000000000000000000000000000000000000000000000000000010000000000000000000000000000000000000000000000000000000000000020000000000000000000000000000000000000000000000000000000000000002a3078646434336663393836613133333932646462633761656131353062343165666532376232643065640000000000000000000000000000000000000000000000000000000000000000000000000000000000000000000000000000000000010000000000000000000000000000000000000000000000000000000000000064",
        "nonce": "0x313",
        "chainId": "0x61"
      },
      "additionalContracts": [],
      "isFixedGasLimit": false
    },
    {
      "hash": "0x231adc063554285a985fe8fd448f1ba3da8c246814eee186cdcda7c4f29f0e84",
      "transactionType": "CALL",
      "contractName": "FeeManager",
      "contractAddress": "0x8b97e011a2f64f705c0a65706fb7bb968cb13d52",
      "function": "addFeeToken(string,string[],uint256[])",
      "arguments": [
        "4201",
        "[0xdd43fc986a13392ddbc7aea150b41efe27b2d0ed]",
        "[100]"
      ],
      "transaction": {
        "from": "0xe62ab4d111f968660c6b2188046f9b9ba53c4bae",
        "to": "0x8b97e011a2f64f705c0a65706fb7bb968cb13d52",
        "gas": "0x2a333",
        "value": "0x0",
        "input": "0x437bf84f000000000000000000000000000000000000000000000000000000000000006000000000000000000000000000000000000000000000000000000000000000a000000000000000000000000000000000000000000000000000000000000001400000000000000000000000000000000000000000000000000000000000000004343230310000000000000000000000000000000000000000000000000000000000000000000000000000000000000000000000000000000000000000000000010000000000000000000000000000000000000000000000000000000000000020000000000000000000000000000000000000000000000000000000000000002a3078646434336663393836613133333932646462633761656131353062343165666532376232643065640000000000000000000000000000000000000000000000000000000000000000000000000000000000000000000000000000000000010000000000000000000000000000000000000000000000000000000000000064",
        "nonce": "0x314",
        "chainId": "0x61"
      },
      "additionalContracts": [],
      "isFixedGasLimit": false
    },
    {
      "hash": "0x33b267f9d18f51f3797cae080b80d43831a3322e18d0ab9c4978fc9984d0b362",
      "transactionType": "CALL",
      "contractName": "FeeManager",
      "contractAddress": "0x8b97e011a2f64f705c0a65706fb7bb968cb13d52",
      "function": "addFeeToken(string,string[],uint256[])",
      "arguments": [
        "80084",
        "[0xdd43fc986a13392ddbc7aea150b41efe27b2d0ed]",
        "[100]"
      ],
      "transaction": {
        "from": "0xe62ab4d111f968660c6b2188046f9b9ba53c4bae",
        "to": "0x8b97e011a2f64f705c0a65706fb7bb968cb13d52",
        "gas": "0x2cd23",
        "value": "0x0",
        "input": "0x437bf84f000000000000000000000000000000000000000000000000000000000000006000000000000000000000000000000000000000000000000000000000000000a000000000000000000000000000000000000000000000000000000000000001400000000000000000000000000000000000000000000000000000000000000005383030383400000000000000000000000000000000000000000000000000000000000000000000000000000000000000000000000000000000000000000000010000000000000000000000000000000000000000000000000000000000000020000000000000000000000000000000000000000000000000000000000000002a3078646434336663393836613133333932646462633761656131353062343165666532376232643065640000000000000000000000000000000000000000000000000000000000000000000000000000000000000000000000000000000000010000000000000000000000000000000000000000000000000000000000000064",
        "nonce": "0x315",
        "chainId": "0x61"
      },
      "additionalContracts": [],
      "isFixedGasLimit": false
    },
    {
      "hash": "0x2f0265dbd9eda53b3220a420ec94e026ba62529f729a59a3333e72edb0df3c4f",
      "transactionType": "CALL",
      "contractName": "FeeManager",
      "contractAddress": "0x8b97e011a2f64f705c0a65706fb7bb968cb13d52",
      "function": "addFeeToken(string,string[],uint256[])",
      "arguments": [
        "1952959480",
        "[0xdd43fc986a13392ddbc7aea150b41efe27b2d0ed]",
        "[100]"
      ],
      "transaction": {
        "from": "0xe62ab4d111f968660c6b2188046f9b9ba53c4bae",
        "to": "0x8b97e011a2f64f705c0a65706fb7bb968cb13d52",
        "gas": "0x2afc2",
        "value": "0x0",
        "input": "0x437bf84f000000000000000000000000000000000000000000000000000000000000006000000000000000000000000000000000000000000000000000000000000000a00000000000000000000000000000000000000000000000000000000000000140000000000000000000000000000000000000000000000000000000000000000a313935323935393438300000000000000000000000000000000000000000000000000000000000000000000000000000000000000000000000000000000000010000000000000000000000000000000000000000000000000000000000000020000000000000000000000000000000000000000000000000000000000000002a3078646434336663393836613133333932646462633761656131353062343165666532376232643065640000000000000000000000000000000000000000000000000000000000000000000000000000000000000000000000000000000000010000000000000000000000000000000000000000000000000000000000000064",
        "nonce": "0x316",
        "chainId": "0x61"
      },
      "additionalContracts": [],
      "isFixedGasLimit": false
    },
    {
      "hash": "0xc4ebc8335d7c67409d6d1f5f2a5df05fb78ec3a524a0655f89cab757eea1b108",
      "transactionType": "CALL",
      "contractName": "FeeManager",
      "contractAddress": "0x8b97e011a2f64f705c0a65706fb7bb968cb13d52",
      "function": "addFeeToken(string,string[],uint256[])",
      "arguments": [
        "78600",
        "[0xdd43fc986a13392ddbc7aea150b41efe27b2d0ed]",
        "[100]"
      ],
      "transaction": {
        "from": "0xe62ab4d111f968660c6b2188046f9b9ba53c4bae",
        "to": "0x8b97e011a2f64f705c0a65706fb7bb968cb13d52",
        "gas": "0x2cd23",
        "value": "0x0",
        "input": "0x437bf84f000000000000000000000000000000000000000000000000000000000000006000000000000000000000000000000000000000000000000000000000000000a000000000000000000000000000000000000000000000000000000000000001400000000000000000000000000000000000000000000000000000000000000005373836303000000000000000000000000000000000000000000000000000000000000000000000000000000000000000000000000000000000000000000000010000000000000000000000000000000000000000000000000000000000000020000000000000000000000000000000000000000000000000000000000000002a3078646434336663393836613133333932646462633761656131353062343165666532376232643065640000000000000000000000000000000000000000000000000000000000000000000000000000000000000000000000000000000000010000000000000000000000000000000000000000000000000000000000000064",
        "nonce": "0x317",
        "chainId": "0x61"
      },
      "additionalContracts": [],
      "isFixedGasLimit": false
    },
    {
      "hash": "0x5978df15aae082987e50d72967754258b0b2b5fc652e619f4bc7c8c16a6d7992",
      "transactionType": "CALL",
      "contractName": "FeeManager",
      "contractAddress": "0x8b97e011a2f64f705c0a65706fb7bb968cb13d52",
      "function": "addFeeToken(string,string[],uint256[])",
      "arguments": [
        "1918988905",
        "[0xdd43fc986a13392ddbc7aea150b41efe27b2d0ed]",
        "[100]"
      ],
      "transaction": {
        "from": "0xe62ab4d111f968660c6b2188046f9b9ba53c4bae",
        "to": "0x8b97e011a2f64f705c0a65706fb7bb968cb13d52",
        "gas": "0x2afc2",
        "value": "0x0",
        "input": "0x437bf84f000000000000000000000000000000000000000000000000000000000000006000000000000000000000000000000000000000000000000000000000000000a00000000000000000000000000000000000000000000000000000000000000140000000000000000000000000000000000000000000000000000000000000000a313931383938383930350000000000000000000000000000000000000000000000000000000000000000000000000000000000000000000000000000000000010000000000000000000000000000000000000000000000000000000000000020000000000000000000000000000000000000000000000000000000000000002a3078646434336663393836613133333932646462633761656131353062343165666532376232643065640000000000000000000000000000000000000000000000000000000000000000000000000000000000000000000000000000000000010000000000000000000000000000000000000000000000000000000000000064",
        "nonce": "0x318",
        "chainId": "0x61"
      },
      "additionalContracts": [],
      "isFixedGasLimit": false
    },
    {
      "hash": "0x02c5d4d907f67dc89ae001dc99a1d88a7e3a1af8f299e1cd0125c55a9d17d563",
      "transactionType": "CALL",
      "contractName": "FeeManager",
      "contractAddress": "0x8b97e011a2f64f705c0a65706fb7bb968cb13d52",
      "function": "addFeeToken(string,string[],uint256[])",
      "arguments": [
        "2484",
        "[0xdd43fc986a13392ddbc7aea150b41efe27b2d0ed]",
        "[100]"
      ],
      "transaction": {
        "from": "0xe62ab4d111f968660c6b2188046f9b9ba53c4bae",
        "to": "0x8b97e011a2f64f705c0a65706fb7bb968cb13d52",
        "gas": "0x2a333",
        "value": "0x0",
        "input": "0x437bf84f000000000000000000000000000000000000000000000000000000000000006000000000000000000000000000000000000000000000000000000000000000a000000000000000000000000000000000000000000000000000000000000001400000000000000000000000000000000000000000000000000000000000000004323438340000000000000000000000000000000000000000000000000000000000000000000000000000000000000000000000000000000000000000000000010000000000000000000000000000000000000000000000000000000000000020000000000000000000000000000000000000000000000000000000000000002a3078646434336663393836613133333932646462633761656131353062343165666532376232643065640000000000000000000000000000000000000000000000000000000000000000000000000000000000000000000000000000000000010000000000000000000000000000000000000000000000000000000000000064",
        "nonce": "0x319",
        "chainId": "0x61"
      },
      "additionalContracts": [],
      "isFixedGasLimit": false
    },
    {
      "hash": "0x71cfeefba466d2998005857a30e0d0c2289d8d8f623d7b90898e9304f6d1eb70",
      "transactionType": "CALL",
      "contractName": "FeeManager",
      "contractAddress": "0x8b97e011a2f64f705c0a65706fb7bb968cb13d52",
      "function": "addFeeToken(string,string[],uint256[])",
      "arguments": [
        "1946",
        "[0xdd43fc986a13392ddbc7aea150b41efe27b2d0ed]",
        "[100]"
      ],
      "transaction": {
        "from": "0xe62ab4d111f968660c6b2188046f9b9ba53c4bae",
        "to": "0x8b97e011a2f64f705c0a65706fb7bb968cb13d52",
        "gas": "0x2a333",
        "value": "0x0",
        "input": "0x437bf84f000000000000000000000000000000000000000000000000000000000000006000000000000000000000000000000000000000000000000000000000000000a000000000000000000000000000000000000000000000000000000000000001400000000000000000000000000000000000000000000000000000000000000004313934360000000000000000000000000000000000000000000000000000000000000000000000000000000000000000000000000000000000000000000000010000000000000000000000000000000000000000000000000000000000000020000000000000000000000000000000000000000000000000000000000000002a3078646434336663393836613133333932646462633761656131353062343165666532376232643065640000000000000000000000000000000000000000000000000000000000000000000000000000000000000000000000000000000000010000000000000000000000000000000000000000000000000000000000000064",
        "nonce": "0x31a",
        "chainId": "0x61"
      },
      "additionalContracts": [],
      "isFixedGasLimit": false
    },
    {
      "hash": "0x927aa95a8c845ab8b2b30ab90075ccee8a606155d92a5471f025ae87e04728cd",
      "transactionType": "CALL",
      "contractName": "FeeManager",
      "contractAddress": "0x8b97e011a2f64f705c0a65706fb7bb968cb13d52",
      "function": "addFeeToken(string,string[],uint256[])",
      "arguments": [
        "5611",
        "[0xdd43fc986a13392ddbc7aea150b41efe27b2d0ed]",
        "[100]"
      ],
      "transaction": {
        "from": "0xe62ab4d111f968660c6b2188046f9b9ba53c4bae",
        "to": "0x8b97e011a2f64f705c0a65706fb7bb968cb13d52",
        "gas": "0x2a333",
        "value": "0x0",
        "input": "0x437bf84f000000000000000000000000000000000000000000000000000000000000006000000000000000000000000000000000000000000000000000000000000000a000000000000000000000000000000000000000000000000000000000000001400000000000000000000000000000000000000000000000000000000000000004353631310000000000000000000000000000000000000000000000000000000000000000000000000000000000000000000000000000000000000000000000010000000000000000000000000000000000000000000000000000000000000020000000000000000000000000000000000000000000000000000000000000002a3078646434336663393836613133333932646462633761656131353062343165666532376232643065640000000000000000000000000000000000000000000000000000000000000000000000000000000000000000000000000000000000010000000000000000000000000000000000000000000000000000000000000064",
        "nonce": "0x31b",
        "chainId": "0x61"
      },
      "additionalContracts": [],
      "isFixedGasLimit": false
    },
    {
      "hash": "0xbe7c9532434f8b20bfd7cc76863b338b78143ef1dc30ffcf1dad5ed61d1b8c2d",
      "transactionType": "CALL",
      "contractName": "FeeManager",
      "contractAddress": "0x8b97e011a2f64f705c0a65706fb7bb968cb13d52",
      "function": "addFeeToken(string,string[],uint256[])",
      "arguments": [
        "64165",
        "[0xdd43fc986a13392ddbc7aea150b41efe27b2d0ed]",
        "[100]"
      ],
      "transaction": {
        "from": "0xe62ab4d111f968660c6b2188046f9b9ba53c4bae",
        "to": "0x8b97e011a2f64f705c0a65706fb7bb968cb13d52",
        "gas": "0x2cd23",
        "value": "0x0",
        "input": "0x437bf84f000000000000000000000000000000000000000000000000000000000000006000000000000000000000000000000000000000000000000000000000000000a000000000000000000000000000000000000000000000000000000000000001400000000000000000000000000000000000000000000000000000000000000005363431363500000000000000000000000000000000000000000000000000000000000000000000000000000000000000000000000000000000000000000000010000000000000000000000000000000000000000000000000000000000000020000000000000000000000000000000000000000000000000000000000000002a3078646434336663393836613133333932646462633761656131353062343165666532376232643065640000000000000000000000000000000000000000000000000000000000000000000000000000000000000000000000000000000000010000000000000000000000000000000000000000000000000000000000000064",
        "nonce": "0x31c",
        "chainId": "0x61"
      },
      "additionalContracts": [],
      "isFixedGasLimit": false
    },
    {
      "hash": "0xe5af534a3c47fb9268c01d70b8a09259b16100465c4da6462e416da4b160eba4",
      "transactionType": "CALL",
      "contractName": "FeeManager",
      "contractAddress": "0x8b97e011a2f64f705c0a65706fb7bb968cb13d52",
      "function": "addFeeToken(string,string[],uint256[])",
      "arguments": [
        "997",
        "[0xdd43fc986a13392ddbc7aea150b41efe27b2d0ed]",
        "[100]"
      ],
      "transaction": {
        "from": "0xe62ab4d111f968660c6b2188046f9b9ba53c4bae",
        "to": "0x8b97e011a2f64f705c0a65706fb7bb968cb13d52",
        "gas": "0x2c8b4",
        "value": "0x0",
        "input": "0x437bf84f000000000000000000000000000000000000000000000000000000000000006000000000000000000000000000000000000000000000000000000000000000a000000000000000000000000000000000000000000000000000000000000001400000000000000000000000000000000000000000000000000000000000000003393937000000000000000000000000000000000000000000000000000000000000000000000000000000000000000000000000000000000000000000000000010000000000000000000000000000000000000000000000000000000000000020000000000000000000000000000000000000000000000000000000000000002a3078646434336663393836613133333932646462633761656131353062343165666532376232643065640000000000000000000000000000000000000000000000000000000000000000000000000000000000000000000000000000000000010000000000000000000000000000000000000000000000000000000000000064",
        "nonce": "0x31d",
        "chainId": "0x61"
      },
      "additionalContracts": [],
      "isFixedGasLimit": false
    },
    {
      "hash": "0x9aa89606215134ca681a37bf22fa77d9046c0d059bb2507c42c1ba427987cea2",
      "transactionType": "CALL",
      "contractName": "FeeManager",
      "contractAddress": "0x8b97e011a2f64f705c0a65706fb7bb968cb13d52",
      "function": "addFeeToken(string,string[],uint256[])",
      "arguments": [
        "14853",
        "[0xdd43fc986a13392ddbc7aea150b41efe27b2d0ed]",
        "[100]"
      ],
      "transaction": {
        "from": "0xe62ab4d111f968660c6b2188046f9b9ba53c4bae",
        "to": "0x8b97e011a2f64f705c0a65706fb7bb968cb13d52",
        "gas": "0x2cd23",
        "value": "0x0",
        "input": "0x437bf84f000000000000000000000000000000000000000000000000000000000000006000000000000000000000000000000000000000000000000000000000000000a000000000000000000000000000000000000000000000000000000000000001400000000000000000000000000000000000000000000000000000000000000005313438353300000000000000000000000000000000000000000000000000000000000000000000000000000000000000000000000000000000000000000000010000000000000000000000000000000000000000000000000000000000000020000000000000000000000000000000000000000000000000000000000000002a3078646434336663393836613133333932646462633761656131353062343165666532376232643065640000000000000000000000000000000000000000000000000000000000000000000000000000000000000000000000000000000000010000000000000000000000000000000000000000000000000000000000000064",
        "nonce": "0x31e",
        "chainId": "0x61"
      },
      "additionalContracts": [],
      "isFixedGasLimit": false
    },
    {
      "hash": "0x03aa6ffccb27ccc49ab72c5c262d31d90ee140708c63ce54ee81dc2cdf023370",
      "transactionType": "CALL",
      "contractName": "FeeManager",
      "contractAddress": "0x8b97e011a2f64f705c0a65706fb7bb968cb13d52",
      "function": "addFeeToken(string,string[],uint256[])",
      "arguments": [
        "338",
        "[0xdd43fc986a13392ddbc7aea150b41efe27b2d0ed]",
        "[100]"
      ],
      "transaction": {
        "from": "0xe62ab4d111f968660c6b2188046f9b9ba53c4bae",
        "to": "0x8b97e011a2f64f705c0a65706fb7bb968cb13d52",
        "gas": "0x2c8b4",
        "value": "0x0",
        "input": "0x437bf84f000000000000000000000000000000000000000000000000000000000000006000000000000000000000000000000000000000000000000000000000000000a000000000000000000000000000000000000000000000000000000000000001400000000000000000000000000000000000000000000000000000000000000003333338000000000000000000000000000000000000000000000000000000000000000000000000000000000000000000000000000000000000000000000000010000000000000000000000000000000000000000000000000000000000000020000000000000000000000000000000000000000000000000000000000000002a3078646434336663393836613133333932646462633761656131353062343165666532376232643065640000000000000000000000000000000000000000000000000000000000000000000000000000000000000000000000000000000000010000000000000000000000000000000000000000000000000000000000000064",
        "nonce": "0x31f",
        "chainId": "0x61"
      },
      "additionalContracts": [],
      "isFixedGasLimit": false
    },
    {
      "hash": "0x81ba87bd12e47c167b2a2e299763f14d68561d3dabc940d872bf340dc0cf618d",
      "transactionType": "CALL",
      "contractName": "FeeManager",
      "contractAddress": "0x8b97e011a2f64f705c0a65706fb7bb968cb13d52",
      "function": "addFeeToken(string,string[],uint256[])",
      "arguments": [
        "97",
        "[0xdd43fc986a13392ddbc7aea150b41efe27b2d0ed]",
        "[100]"
      ],
      "transaction": {
        "from": "0xe62ab4d111f968660c6b2188046f9b9ba53c4bae",
        "to": "0x8b97e011a2f64f705c0a65706fb7bb968cb13d52",
        "gas": "0x29f03",
        "value": "0x0",
        "input": "0x437bf84f000000000000000000000000000000000000000000000000000000000000006000000000000000000000000000000000000000000000000000000000000000a000000000000000000000000000000000000000000000000000000000000001400000000000000000000000000000000000000000000000000000000000000002393700000000000000000000000000000000000000000000000000000000000000000000000000000000000000000000000000000000000000000000000000010000000000000000000000000000000000000000000000000000000000000020000000000000000000000000000000000000000000000000000000000000002a3078646434336663393836613133333932646462633761656131353062343165666532376232643065640000000000000000000000000000000000000000000000000000000000000000000000000000000000000000000000000000000000010000000000000000000000000000000000000000000000000000000000000064",
        "nonce": "0x320",
        "chainId": "0x61"
      },
      "additionalContracts": [],
      "isFixedGasLimit": false
    },
    {
      "hash": "0x7f8488d1ae46ce6127c45c5dab58bbbe69e337ef51c4793f99289297ce10b923",
      "transactionType": "CALL",
      "contractName": "FeeManager",
      "contractAddress": "0x8b97e011a2f64f705c0a65706fb7bb968cb13d52",
      "function": "addFeeToken(string,string[],uint256[])",
      "arguments": [
        "11155111",
        "[0xdd43fc986a13392ddbc7aea150b41efe27b2d0ed]",
        "[100]"
      ],
      "transaction": {
        "from": "0xe62ab4d111f968660c6b2188046f9b9ba53c4bae",
        "to": "0x8b97e011a2f64f705c0a65706fb7bb968cb13d52",
        "gas": "0x2ab93",
        "value": "0x0",
        "input": "0x437bf84f000000000000000000000000000000000000000000000000000000000000006000000000000000000000000000000000000000000000000000000000000000a000000000000000000000000000000000000000000000000000000000000001400000000000000000000000000000000000000000000000000000000000000008313131353531313100000000000000000000000000000000000000000000000000000000000000000000000000000000000000000000000000000000000000010000000000000000000000000000000000000000000000000000000000000020000000000000000000000000000000000000000000000000000000000000002a3078646434336663393836613133333932646462633761656131353062343165666532376232643065640000000000000000000000000000000000000000000000000000000000000000000000000000000000000000000000000000000000010000000000000000000000000000000000000000000000000000000000000064",
        "nonce": "0x321",
        "chainId": "0x61"
      },
      "additionalContracts": [],
      "isFixedGasLimit": false
    },
    {
      "hash": "0xbcc06e6e6250407eefa00d2fe77612899e8e0514774104a8c525a7ecf47ed405",
      "transactionType": "CALL",
      "contractName": "CTMRWAGateway",
      "contractAddress": "0xba08c3b81ed1a13e7a3457b6ab5dddba2df34df4",
      "function": "addChainContract(string[],string[])",
      "arguments": [
        "[421614, 80002, 84532, 59141, 1115, 17000, 2810, 168587773, 200810, 534351, 5003, 4201, 80084, 1952959480, 78600, 1918988905, 2484, 1946, 5611, 64165, 997, 14853, 338, 11155111]",
        "[0x20a9f9d7282c6fde913522a42c3951f5b18f62d5, 0x114ace1c918409889464c2a714f8442a97934ccf, 0xf3a991cb19949cb6abd9e416f0408c648b6c36fa, 0x9266e8bf4943f2b366f2be89688a8622084db8b9, 0xf4e7a775c8abc8e0b7ed11d660b0a6b2e1b7a132, 0xf4e7a775c8abc8e0b7ed11d660b0a6b2e1b7a132, 0x9266e8bf4943f2b366f2be89688a8622084db8b9, 0x9266e8bf4943f2b366f2be89688a8622084db8b9, 0x64c5734e22cf8126c6367c0230b66788fbe4ab90, 0x9266e8bf4943f2b366f2be89688a8622084db8b9, 0x9266e8bf4943f2b366f2be89688a8622084db8b9, 0x2927d422cbea7f315ee3e0660af2ed9b35302004, 0xa42864da3ee7b05489ef1d99704089b734cb73a2, 0xd1f0743c665d80d6bdaf1b4b8c9e82bfd1ae1994, 0xeadb6779c7284a7ef6f611f4535e60c3d59b321b, 0x22c254662850f21bfb09714f6a5638d929439f8d, 0x9266e8bf4943f2b366f2be89688a8622084db8b9, 0x9266e8bf4943f2b366f2be89688a8622084db8b9, 0x9266e8bf4943f2b366f2be89688a8622084db8b9, 0xf4e7a775c8abc8e0b7ed11d660b0a6b2e1b7a132, 0xf4e7a775c8abc8e0b7ed11d660b0a6b2e1b7a132, 0x9266e8bf4943f2b366f2be89688a8622084db8b9, 0xae66c08b9d76eecaa74314c60f3305d43707acc9, 0x10a04ad4a73c8bb00ee5a29b27d11eee85390306]"
      ],
      "transaction": {
        "from": "0xe62ab4d111f968660c6b2188046f9b9ba53c4bae",
        "to": "0xba08c3b81ed1a13e7a3457b6ab5dddba2df34df4",
        "gas": "0x462136",
        "value": "0x0",
        "input": "0x013fd3bd00000000000000000000000000000000000000000000000000000000000000400000000000000000000000000000000000000000000000000000000000000960000000000000000000000000000000000000000000000000000000000000001800000000000000000000000000000000000000000000000000000000000003000000000000000000000000000000000000000000000000000000000000000340000000000000000000000000000000000000000000000000000000000000038000000000000000000000000000000000000000000000000000000000000003c000000000000000000000000000000000000000000000000000000000000004000000000000000000000000000000000000000000000000000000000000000440000000000000000000000000000000000000000000000000000000000000048000000000000000000000000000000000000000000000000000000000000004c000000000000000000000000000000000000000000000000000000000000005000000000000000000000000000000000000000000000000000000000000000540000000000000000000000000000000000000000000000000000000000000058000000000000000000000000000000000000000000000000000000000000005c000000000000000000000000000000000000000000000000000000000000006000000000000000000000000000000000000000000000000000000000000000640000000000000000000000000000000000000000000000000000000000000068000000000000000000000000000000000000000000000000000000000000006c000000000000000000000000000000000000000000000000000000000000007000000000000000000000000000000000000000000000000000000000000000740000000000000000000000000000000000000000000000000000000000000078000000000000000000000000000000000000000000000000000000000000007c000000000000000000000000000000000000000000000000000000000000008000000000000000000000000000000000000000000000000000000000000000840000000000000000000000000000000000000000000000000000000000000088000000000000000000000000000000000000000000000000000000000000008c000000000000000000000000000000000000000000000000000000000000000063432313631340000000000000000000000000000000000000000000000000000000000000000000000000000000000000000000000000000000000000000000538303030320000000000000000000000000000000000000000000000000000000000000000000000000000000000000000000000000000000000000000000005383435333200000000000000000000000000000000000000000000000000000000000000000000000000000000000000000000000000000000000000000000053539313431000000000000000000000000000000000000000000000000000000000000000000000000000000000000000000000000000000000000000000000431313135000000000000000000000000000000000000000000000000000000000000000000000000000000000000000000000000000000000000000000000005313730303000000000000000000000000000000000000000000000000000000000000000000000000000000000000000000000000000000000000000000000043238313000000000000000000000000000000000000000000000000000000000000000000000000000000000000000000000000000000000000000000000000931363835383737373300000000000000000000000000000000000000000000000000000000000000000000000000000000000000000000000000000000000006323030383130000000000000000000000000000000000000000000000000000000000000000000000000000000000000000000000000000000000000000000063533343335310000000000000000000000000000000000000000000000000000000000000000000000000000000000000000000000000000000000000000000435303033000000000000000000000000000000000000000000000000000000000000000000000000000000000000000000000000000000000000000000000004343230310000000000000000000000000000000000000000000000000000000000000000000000000000000000000000000000000000000000000000000000053830303834000000000000000000000000000000000000000000000000000000000000000000000000000000000000000000000000000000000000000000000a313935323935393438300000000000000000000000000000000000000000000000000000000000000000000000000000000000000000000000000000000000053738363030000000000000000000000000000000000000000000000000000000000000000000000000000000000000000000000000000000000000000000000a3139313839383839303500000000000000000000000000000000000000000000000000000000000000000000000000000000000000000000000000000000000432343834000000000000000000000000000000000000000000000000000000000000000000000000000000000000000000000000000000000000000000000004313934360000000000000000000000000000000000000000000000000000000000000000000000000000000000000000000000000000000000000000000000043536313100000000000000000000000000000000000000000000000000000000000000000000000000000000000000000000000000000000000000000000000536343136350000000000000000000000000000000000000000000000000000000000000000000000000000000000000000000000000000000000000000000003393937000000000000000000000000000000000000000000000000000000000000000000000000000000000000000000000000000000000000000000000000053134383533000000000000000000000000000000000000000000000000000000000000000000000000000000000000000000000000000000000000000000000333333800000000000000000000000000000000000000000000000000000000000000000000000000000000000000000000000000000000000000000000000008313131353531313100000000000000000000000000000000000000000000000000000000000000000000000000000000000000000000000000000000000000180000000000000000000000000000000000000000000000000000000000000300000000000000000000000000000000000000000000000000000000000000036000000000000000000000000000000000000000000000000000000000000003c00000000000000000000000000000000000000000000000000000000000000420000000000000000000000000000000000000000000000000000000000000048000000000000000000000000000000000000000000000000000000000000004e0000000000000000000000000000000000000000000000000000000000000054000000000000000000000000000000000000000000000000000000000000005a00000000000000000000000000000000000000000000000000000000000000600000000000000000000000000000000000000000000000000000000000000066000000000000000000000000000000000000000000000000000000000000006c00000000000000000000000000000000000000000000000000000000000000720000000000000000000000000000000000000000000000000000000000000078000000000000000000000000000000000000000000000000000000000000007e0000000000000000000000000000000000000000000000000000000000000084000000000000000000000000000000000000000000000000000000000000008a00000000000000000000000000000000000000000000000000000000000000900000000000000000000000000000000000000000000000000000000000000096000000000000000000000000000000000000000000000000000000000000009c00000000000000000000000000000000000000000000000000000000000000a200000000000000000000000000000000000000000000000000000000000000a800000000000000000000000000000000000000000000000000000000000000ae00000000000000000000000000000000000000000000000000000000000000b400000000000000000000000000000000000000000000000000000000000000ba0000000000000000000000000000000000000000000000000000000000000002a30783230613966396437323832633666646539313335323261343263333935316635623138663632643500000000000000000000000000000000000000000000000000000000000000000000000000000000000000000000000000000000002a30783131346163653163393138343039383839343634633261373134663834343261393739333463636600000000000000000000000000000000000000000000000000000000000000000000000000000000000000000000000000000000002a30786633613939316362313939343963623661626439653431366630343038633634386236633336666100000000000000000000000000000000000000000000000000000000000000000000000000000000000000000000000000000000002a30783932363665386266343934336632623336366632626538393638386138363232303834646238623900000000000000000000000000000000000000000000000000000000000000000000000000000000000000000000000000000000002a30786634653761373735633861626338653062376564313164363630623061366232653162376131333200000000000000000000000000000000000000000000000000000000000000000000000000000000000000000000000000000000002a30786634653761373735633861626338653062376564313164363630623061366232653162376131333200000000000000000000000000000000000000000000000000000000000000000000000000000000000000000000000000000000002a30783932363665386266343934336632623336366632626538393638386138363232303834646238623900000000000000000000000000000000000000000000000000000000000000000000000000000000000000000000000000000000002a30783932363665386266343934336632623336366632626538393638386138363232303834646238623900000000000000000000000000000000000000000000000000000000000000000000000000000000000000000000000000000000002a30783634633537333465323263663831323663363336376330323330623636373838666265346162393000000000000000000000000000000000000000000000000000000000000000000000000000000000000000000000000000000000002a30783932363665386266343934336632623336366632626538393638386138363232303834646238623900000000000000000000000000000000000000000000000000000000000000000000000000000000000000000000000000000000002a30783932363665386266343934336632623336366632626538393638386138363232303834646238623900000000000000000000000000000000000000000000000000000000000000000000000000000000000000000000000000000000002a30783239323764343232636265613766333135656533653036363061663265643962333533303230303400000000000000000000000000000000000000000000000000000000000000000000000000000000000000000000000000000000002a30786134323836346461336565376230353438396566316439393730343038396237333463623733613200000000000000000000000000000000000000000000000000000000000000000000000000000000000000000000000000000000002a30786431663037343363363635643830643662646166316234623863396538326266643161653139393400000000000000000000000000000000000000000000000000000000000000000000000000000000000000000000000000000000002a30786561646236373739633732383461376566366636313166343533356536306333643539623332316200000000000000000000000000000000000000000000000000000000000000000000000000000000000000000000000000000000002a30783232633235343636323835306632316266623039373134663661353633386439323934333966386400000000000000000000000000000000000000000000000000000000000000000000000000000000000000000000000000000000002a30783932363665386266343934336632623336366632626538393638386138363232303834646238623900000000000000000000000000000000000000000000000000000000000000000000000000000000000000000000000000000000002a30783932363665386266343934336632623336366632626538393638386138363232303834646238623900000000000000000000000000000000000000000000000000000000000000000000000000000000000000000000000000000000002a30783932363665386266343934336632623336366632626538393638386138363232303834646238623900000000000000000000000000000000000000000000000000000000000000000000000000000000000000000000000000000000002a30786634653761373735633861626338653062376564313164363630623061366232653162376131333200000000000000000000000000000000000000000000000000000000000000000000000000000000000000000000000000000000002a30786634653761373735633861626338653062376564313164363630623061366232653162376131333200000000000000000000000000000000000000000000000000000000000000000000000000000000000000000000000000000000002a30783932363665386266343934336632623336366632626538393638386138363232303834646238623900000000000000000000000000000000000000000000000000000000000000000000000000000000000000000000000000000000002a30786165363663303862396437366565636161373433313463363066333330356434333730376163633900000000000000000000000000000000000000000000000000000000000000000000000000000000000000000000000000000000002a30783130613034616434613733633862623030656535613239623237643131656565383533393033303600000000000000000000000000000000000000000000",
        "nonce": "0x322",
        "chainId": "0x61"
      },
      "additionalContracts": [],
      "isFixedGasLimit": false
    },
    {
      "hash": "0xaaabc1098aeb7c844ba08dc3cab0356a54da5e9ba7ce466c112888de20695d97",
      "transactionType": "CALL",
      "contractName": "CTMRWAGateway",
      "contractAddress": "0xba08c3b81ed1a13e7a3457b6ab5dddba2df34df4",
      "function": "attachRWAX(uint256,uint256,string[],string[])",
      "arguments": [
        "1",
        "1",
        "[97, 421614, 80002, 84532, 59141, 1115, 17000, 2810, 168587773, 200810, 534351, 5003, 4201, 80084, 1952959480, 78600, 1918988905, 2484, 1946, 5611, 64165, 997, 14853, 338, 11155111]",
        "[0x21ea338975678968da85dea76f298e7f11a09334, 0xd5870cb8400e75f2097f3af9fd37af0c758707e0, 0x88a23d9ec1a9f1100d807d0e8c7a39927d4a7897, 0xb5d1f61f6b9f0ca2b89eb9d693e8cd737076846a, 0xb5638019cbfc1b523d5167a269e755b05bf24fd9, 0x73943ec95aafbb4dd073b11f5c9701e5bc3708a6, 0x73943ec95aafbb4dd073b11f5c9701e5bc3708a6, 0xb5638019cbfc1b523d5167a269e755b05bf24fd9, 0xb5638019cbfc1b523d5167a269e755b05bf24fd9, 0xa4482df3a723654a599ba66d1b5091fd9c42ad05, 0xb5638019cbfc1b523d5167a269e755b05bf24fd9, 0xb5638019cbfc1b523d5167a269e755b05bf24fd9, 0x1b87108b35abb5751bfc64647e9d5cd1cb77e236, 0x67510816512511818b5047a4cce6e8f2ebb15d20, 0x9266e8bf4943f2b366f2be89688a8622084db8b9, 0x232c61b3d1a03cc57e976cccd0f9c9cd33a98fe0, 0x3abb2780b0bbf630490d155c4861f4e82c623246, 0xb5638019cbfc1b523d5167a269e755b05bf24fd9, 0xb5638019cbfc1b523d5167a269e755b05bf24fd9, 0xb5638019cbfc1b523d5167a269e755b05bf24fd9, 0x73943ec95aafbb4dd073b11f5c9701e5bc3708a6, 0x73943ec95aafbb4dd073b11f5c9701e5bc3708a6, 0xb5638019cbfc1b523d5167a269e755b05bf24fd9, 0x176cd7abf4919068d7fec79935c303b32b7dabe7, 0x3af6a526dd51c8b08fd54dbb624e042bb3b0a77e]"
      ],
      "transaction": {
        "from": "0xe62ab4d111f968660c6b2188046f9b9ba53c4bae",
        "to": "0xba08c3b81ed1a13e7a3457b6ab5dddba2df34df4",
        "gas": "0x5c9324",
        "value": "0x0",
        "input": "0x33a5f5b40000000000000000000000000000000000000000000000000000000000000001000000000000000000000000000000000000000000000000000000000000000100000000000000000000000000000000000000000000000000000000000000800000000000000000000000000000000000000000000000000000000000000a0000000000000000000000000000000000000000000000000000000000000000190000000000000000000000000000000000000000000000000000000000000320000000000000000000000000000000000000000000000000000000000000036000000000000000000000000000000000000000000000000000000000000003a000000000000000000000000000000000000000000000000000000000000003e00000000000000000000000000000000000000000000000000000000000000420000000000000000000000000000000000000000000000000000000000000046000000000000000000000000000000000000000000000000000000000000004a000000000000000000000000000000000000000000000000000000000000004e00000000000000000000000000000000000000000000000000000000000000520000000000000000000000000000000000000000000000000000000000000056000000000000000000000000000000000000000000000000000000000000005a000000000000000000000000000000000000000000000000000000000000005e00000000000000000000000000000000000000000000000000000000000000620000000000000000000000000000000000000000000000000000000000000066000000000000000000000000000000000000000000000000000000000000006a000000000000000000000000000000000000000000000000000000000000006e00000000000000000000000000000000000000000000000000000000000000720000000000000000000000000000000000000000000000000000000000000076000000000000000000000000000000000000000000000000000000000000007a000000000000000000000000000000000000000000000000000000000000007e00000000000000000000000000000000000000000000000000000000000000820000000000000000000000000000000000000000000000000000000000000086000000000000000000000000000000000000000000000000000000000000008a000000000000000000000000000000000000000000000000000000000000008e000000000000000000000000000000000000000000000000000000000000009200000000000000000000000000000000000000000000000000000000000000002393700000000000000000000000000000000000000000000000000000000000000000000000000000000000000000000000000000000000000000000000000063432313631340000000000000000000000000000000000000000000000000000000000000000000000000000000000000000000000000000000000000000000538303030320000000000000000000000000000000000000000000000000000000000000000000000000000000000000000000000000000000000000000000005383435333200000000000000000000000000000000000000000000000000000000000000000000000000000000000000000000000000000000000000000000053539313431000000000000000000000000000000000000000000000000000000000000000000000000000000000000000000000000000000000000000000000431313135000000000000000000000000000000000000000000000000000000000000000000000000000000000000000000000000000000000000000000000005313730303000000000000000000000000000000000000000000000000000000000000000000000000000000000000000000000000000000000000000000000043238313000000000000000000000000000000000000000000000000000000000000000000000000000000000000000000000000000000000000000000000000931363835383737373300000000000000000000000000000000000000000000000000000000000000000000000000000000000000000000000000000000000006323030383130000000000000000000000000000000000000000000000000000000000000000000000000000000000000000000000000000000000000000000063533343335310000000000000000000000000000000000000000000000000000000000000000000000000000000000000000000000000000000000000000000435303033000000000000000000000000000000000000000000000000000000000000000000000000000000000000000000000000000000000000000000000004343230310000000000000000000000000000000000000000000000000000000000000000000000000000000000000000000000000000000000000000000000053830303834000000000000000000000000000000000000000000000000000000000000000000000000000000000000000000000000000000000000000000000a313935323935393438300000000000000000000000000000000000000000000000000000000000000000000000000000000000000000000000000000000000053738363030000000000000000000000000000000000000000000000000000000000000000000000000000000000000000000000000000000000000000000000a3139313839383839303500000000000000000000000000000000000000000000000000000000000000000000000000000000000000000000000000000000000432343834000000000000000000000000000000000000000000000000000000000000000000000000000000000000000000000000000000000000000000000004313934360000000000000000000000000000000000000000000000000000000000000000000000000000000000000000000000000000000000000000000000043536313100000000000000000000000000000000000000000000000000000000000000000000000000000000000000000000000000000000000000000000000536343136350000000000000000000000000000000000000000000000000000000000000000000000000000000000000000000000000000000000000000000003393937000000000000000000000000000000000000000000000000000000000000000000000000000000000000000000000000000000000000000000000000053134383533000000000000000000000000000000000000000000000000000000000000000000000000000000000000000000000000000000000000000000000333333800000000000000000000000000000000000000000000000000000000000000000000000000000000000000000000000000000000000000000000000008313131353531313100000000000000000000000000000000000000000000000000000000000000000000000000000000000000000000000000000000000000190000000000000000000000000000000000000000000000000000000000000320000000000000000000000000000000000000000000000000000000000000038000000000000000000000000000000000000000000000000000000000000003e0000000000000000000000000000000000000000000000000000000000000044000000000000000000000000000000000000000000000000000000000000004a00000000000000000000000000000000000000000000000000000000000000500000000000000000000000000000000000000000000000000000000000000056000000000000000000000000000000000000000000000000000000000000005c00000000000000000000000000000000000000000000000000000000000000620000000000000000000000000000000000000000000000000000000000000068000000000000000000000000000000000000000000000000000000000000006e0000000000000000000000000000000000000000000000000000000000000074000000000000000000000000000000000000000000000000000000000000007a00000000000000000000000000000000000000000000000000000000000000800000000000000000000000000000000000000000000000000000000000000086000000000000000000000000000000000000000000000000000000000000008c00000000000000000000000000000000000000000000000000000000000000920000000000000000000000000000000000000000000000000000000000000098000000000000000000000000000000000000000000000000000000000000009e00000000000000000000000000000000000000000000000000000000000000a400000000000000000000000000000000000000000000000000000000000000aa00000000000000000000000000000000000000000000000000000000000000b000000000000000000000000000000000000000000000000000000000000000b600000000000000000000000000000000000000000000000000000000000000bc00000000000000000000000000000000000000000000000000000000000000c20000000000000000000000000000000000000000000000000000000000000002a30783231656133333839373536373839363864613835646561373666323938653766313161303933333400000000000000000000000000000000000000000000000000000000000000000000000000000000000000000000000000000000002a30786435383730636238343030653735663230393766336166396664333761663063373538373037653000000000000000000000000000000000000000000000000000000000000000000000000000000000000000000000000000000000002a30783838613233643965633161396631313030643830376430653863376133393932376434613738393700000000000000000000000000000000000000000000000000000000000000000000000000000000000000000000000000000000002a30786235643166363166366239663063613262383965623964363933653863643733373037363834366100000000000000000000000000000000000000000000000000000000000000000000000000000000000000000000000000000000002a30786235363338303139636266633162353233643531363761323639653735356230356266323466643900000000000000000000000000000000000000000000000000000000000000000000000000000000000000000000000000000000002a30783733393433656339356161666262346464303733623131663563393730316535626333373038613600000000000000000000000000000000000000000000000000000000000000000000000000000000000000000000000000000000002a30783733393433656339356161666262346464303733623131663563393730316535626333373038613600000000000000000000000000000000000000000000000000000000000000000000000000000000000000000000000000000000002a30786235363338303139636266633162353233643531363761323639653735356230356266323466643900000000000000000000000000000000000000000000000000000000000000000000000000000000000000000000000000000000002a30786235363338303139636266633162353233643531363761323639653735356230356266323466643900000000000000000000000000000000000000000000000000000000000000000000000000000000000000000000000000000000002a30786134343832646633613732333635346135393962613636643162353039316664396334326164303500000000000000000000000000000000000000000000000000000000000000000000000000000000000000000000000000000000002a30786235363338303139636266633162353233643531363761323639653735356230356266323466643900000000000000000000000000000000000000000000000000000000000000000000000000000000000000000000000000000000002a30786235363338303139636266633162353233643531363761323639653735356230356266323466643900000000000000000000000000000000000000000000000000000000000000000000000000000000000000000000000000000000002a30783162383731303862333561626235373531626663363436343765396435636431636237376532333600000000000000000000000000000000000000000000000000000000000000000000000000000000000000000000000000000000002a30783637353130383136353132353131383138623530343761346363653665386632656262313564323000000000000000000000000000000000000000000000000000000000000000000000000000000000000000000000000000000000002a30783932363665386266343934336632623336366632626538393638386138363232303834646238623900000000000000000000000000000000000000000000000000000000000000000000000000000000000000000000000000000000002a30783233326336316233643161303363633537653937366363636430663963396364333361393866653000000000000000000000000000000000000000000000000000000000000000000000000000000000000000000000000000000000002a30783361626232373830623062626636333034393064313535633438363166346538326336323332343600000000000000000000000000000000000000000000000000000000000000000000000000000000000000000000000000000000002a30786235363338303139636266633162353233643531363761323639653735356230356266323466643900000000000000000000000000000000000000000000000000000000000000000000000000000000000000000000000000000000002a30786235363338303139636266633162353233643531363761323639653735356230356266323466643900000000000000000000000000000000000000000000000000000000000000000000000000000000000000000000000000000000002a30786235363338303139636266633162353233643531363761323639653735356230356266323466643900000000000000000000000000000000000000000000000000000000000000000000000000000000000000000000000000000000002a30783733393433656339356161666262346464303733623131663563393730316535626333373038613600000000000000000000000000000000000000000000000000000000000000000000000000000000000000000000000000000000002a30783733393433656339356161666262346464303733623131663563393730316535626333373038613600000000000000000000000000000000000000000000000000000000000000000000000000000000000000000000000000000000002a30786235363338303139636266633162353233643531363761323639653735356230356266323466643900000000000000000000000000000000000000000000000000000000000000000000000000000000000000000000000000000000002a30783137366364376162663439313930363864376665633739393335633330336233326237646162653700000000000000000000000000000000000000000000000000000000000000000000000000000000000000000000000000000000002a30783361663661353236646435316338623038666435346462623632346530343262623362306137376500000000000000000000000000000000000000000000",
        "nonce": "0x323",
        "chainId": "0x61"
      },
      "additionalContracts": [],
      "isFixedGasLimit": false
    },
    {
      "hash": "0xc7782e8e80ff15dd6acd594cc4d8f4922c41ac7b09ea1cd38dadd8c2065507fe",
      "transactionType": "CALL",
      "contractName": "CTMRWAGateway",
      "contractAddress": "0xba08c3b81ed1a13e7a3457b6ab5dddba2df34df4",
      "function": "attachStorageManager(uint256,uint256,string[],string[])",
      "arguments": [
        "1",
        "1",
        "[97, 421614, 80002, 84532, 59141, 1115, 17000, 2810, 168587773, 200810, 534351, 5003, 4201, 80084, 1952959480, 78600, 1918988905, 2484, 1946, 5611, 64165, 997, 14853, 338, 11155111]",
        "[0x60a5b05db6c8eb0b47f8227ea3b04bd751b79dbc, 0x769139881024ce730de9de9c21e3ad6fb5a872f2, 0x95ae66ad780e73ef2d2a80611458883c950a1356, 0xf9229aceba228fdbb757a637eeebadb46fdb617e, 0xa240b0714712e2927ec055ceaa8e031ac671a55f, 0x4b17e8ee1cc1814636dde9ac12a42472799ccb64, 0x4b17e8ee1cc1814636dde9ac12a42472799ccb64, 0xa240b0714712e2927ec055ceaa8e031ac671a55f, 0xa240b0714712e2927ec055ceaa8e031ac671a55f, 0x048a5cefcdf0faeb734bc4a941e0de44d8c49f55, 0xa240b0714712e2927ec055ceaa8e031ac671a55f, 0xa240b0714712e2927ec055ceaa8e031ac671a55f, 0x3418a45e442210ec9579b074ae9acb13b2a67554, 0xa7c57315395def05f906310d590f4ea15308fe30, 0xde3fdb278b0ec3254e8701c38e58cfd1168f13a5, 0xc33b3317912d173806d782bfade797f262d9a4bd, 0x56249f01cf2b50a7f211bb9de08b1480835f574a, 0xa240b0714712e2927ec055ceaa8e031ac671a55f, 0xa240b0714712e2927ec055ceaa8e031ac671a55f, 0xa240b0714712e2927ec055ceaa8e031ac671a55f, 0x4b17e8ee1cc1814636dde9ac12a42472799ccb64, 0x4b17e8ee1cc1814636dde9ac12a42472799ccb64, 0xa240b0714712e2927ec055ceaa8e031ac671a55f, 0xb8b99101c1dbfad6aa418220592773be082db804, 0x93def24108852be52b2c34084d584338e46ab8f4]"
      ],
      "transaction": {
        "from": "0xe62ab4d111f968660c6b2188046f9b9ba53c4bae",
        "to": "0xba08c3b81ed1a13e7a3457b6ab5dddba2df34df4",
        "gas": "0x4ab529",
        "value": "0x0",
        "input": "0x2f68b4890000000000000000000000000000000000000000000000000000000000000001000000000000000000000000000000000000000000000000000000000000000100000000000000000000000000000000000000000000000000000000000000800000000000000000000000000000000000000000000000000000000000000a0000000000000000000000000000000000000000000000000000000000000000190000000000000000000000000000000000000000000000000000000000000320000000000000000000000000000000000000000000000000000000000000036000000000000000000000000000000000000000000000000000000000000003a000000000000000000000000000000000000000000000000000000000000003e00000000000000000000000000000000000000000000000000000000000000420000000000000000000000000000000000000000000000000000000000000046000000000000000000000000000000000000000000000000000000000000004a000000000000000000000000000000000000000000000000000000000000004e00000000000000000000000000000000000000000000000000000000000000520000000000000000000000000000000000000000000000000000000000000056000000000000000000000000000000000000000000000000000000000000005a000000000000000000000000000000000000000000000000000000000000005e00000000000000000000000000000000000000000000000000000000000000620000000000000000000000000000000000000000000000000000000000000066000000000000000000000000000000000000000000000000000000000000006a000000000000000000000000000000000000000000000000000000000000006e00000000000000000000000000000000000000000000000000000000000000720000000000000000000000000000000000000000000000000000000000000076000000000000000000000000000000000000000000000000000000000000007a000000000000000000000000000000000000000000000000000000000000007e00000000000000000000000000000000000000000000000000000000000000820000000000000000000000000000000000000000000000000000000000000086000000000000000000000000000000000000000000000000000000000000008a000000000000000000000000000000000000000000000000000000000000008e000000000000000000000000000000000000000000000000000000000000009200000000000000000000000000000000000000000000000000000000000000002393700000000000000000000000000000000000000000000000000000000000000000000000000000000000000000000000000000000000000000000000000063432313631340000000000000000000000000000000000000000000000000000000000000000000000000000000000000000000000000000000000000000000538303030320000000000000000000000000000000000000000000000000000000000000000000000000000000000000000000000000000000000000000000005383435333200000000000000000000000000000000000000000000000000000000000000000000000000000000000000000000000000000000000000000000053539313431000000000000000000000000000000000000000000000000000000000000000000000000000000000000000000000000000000000000000000000431313135000000000000000000000000000000000000000000000000000000000000000000000000000000000000000000000000000000000000000000000005313730303000000000000000000000000000000000000000000000000000000000000000000000000000000000000000000000000000000000000000000000043238313000000000000000000000000000000000000000000000000000000000000000000000000000000000000000000000000000000000000000000000000931363835383737373300000000000000000000000000000000000000000000000000000000000000000000000000000000000000000000000000000000000006323030383130000000000000000000000000000000000000000000000000000000000000000000000000000000000000000000000000000000000000000000063533343335310000000000000000000000000000000000000000000000000000000000000000000000000000000000000000000000000000000000000000000435303033000000000000000000000000000000000000000000000000000000000000000000000000000000000000000000000000000000000000000000000004343230310000000000000000000000000000000000000000000000000000000000000000000000000000000000000000000000000000000000000000000000053830303834000000000000000000000000000000000000000000000000000000000000000000000000000000000000000000000000000000000000000000000a313935323935393438300000000000000000000000000000000000000000000000000000000000000000000000000000000000000000000000000000000000053738363030000000000000000000000000000000000000000000000000000000000000000000000000000000000000000000000000000000000000000000000a3139313839383839303500000000000000000000000000000000000000000000000000000000000000000000000000000000000000000000000000000000000432343834000000000000000000000000000000000000000000000000000000000000000000000000000000000000000000000000000000000000000000000004313934360000000000000000000000000000000000000000000000000000000000000000000000000000000000000000000000000000000000000000000000043536313100000000000000000000000000000000000000000000000000000000000000000000000000000000000000000000000000000000000000000000000536343136350000000000000000000000000000000000000000000000000000000000000000000000000000000000000000000000000000000000000000000003393937000000000000000000000000000000000000000000000000000000000000000000000000000000000000000000000000000000000000000000000000053134383533000000000000000000000000000000000000000000000000000000000000000000000000000000000000000000000000000000000000000000000333333800000000000000000000000000000000000000000000000000000000000000000000000000000000000000000000000000000000000000000000000008313131353531313100000000000000000000000000000000000000000000000000000000000000000000000000000000000000000000000000000000000000190000000000000000000000000000000000000000000000000000000000000320000000000000000000000000000000000000000000000000000000000000038000000000000000000000000000000000000000000000000000000000000003e0000000000000000000000000000000000000000000000000000000000000044000000000000000000000000000000000000000000000000000000000000004a00000000000000000000000000000000000000000000000000000000000000500000000000000000000000000000000000000000000000000000000000000056000000000000000000000000000000000000000000000000000000000000005c00000000000000000000000000000000000000000000000000000000000000620000000000000000000000000000000000000000000000000000000000000068000000000000000000000000000000000000000000000000000000000000006e0000000000000000000000000000000000000000000000000000000000000074000000000000000000000000000000000000000000000000000000000000007a00000000000000000000000000000000000000000000000000000000000000800000000000000000000000000000000000000000000000000000000000000086000000000000000000000000000000000000000000000000000000000000008c00000000000000000000000000000000000000000000000000000000000000920000000000000000000000000000000000000000000000000000000000000098000000000000000000000000000000000000000000000000000000000000009e00000000000000000000000000000000000000000000000000000000000000a400000000000000000000000000000000000000000000000000000000000000aa00000000000000000000000000000000000000000000000000000000000000b000000000000000000000000000000000000000000000000000000000000000b600000000000000000000000000000000000000000000000000000000000000bc00000000000000000000000000000000000000000000000000000000000000c20000000000000000000000000000000000000000000000000000000000000002a30783630613562303564623663386562306234376638323237656133623034626437353162373964626300000000000000000000000000000000000000000000000000000000000000000000000000000000000000000000000000000000002a30783736393133393838313032346365373330646539646539633231653361643666623561383732663200000000000000000000000000000000000000000000000000000000000000000000000000000000000000000000000000000000002a30783935616536366164373830653733656632643261383036313134353838383363393530613133353600000000000000000000000000000000000000000000000000000000000000000000000000000000000000000000000000000000002a30786639323239616365626132323866646262373537613633376565656261646234366664623631376500000000000000000000000000000000000000000000000000000000000000000000000000000000000000000000000000000000002a30786132343062303731343731326532393237656330353563656161386530333161633637316135356600000000000000000000000000000000000000000000000000000000000000000000000000000000000000000000000000000000002a30783462313765386565316363313831343633366464653961633132613432343732373939636362363400000000000000000000000000000000000000000000000000000000000000000000000000000000000000000000000000000000002a30783462313765386565316363313831343633366464653961633132613432343732373939636362363400000000000000000000000000000000000000000000000000000000000000000000000000000000000000000000000000000000002a30786132343062303731343731326532393237656330353563656161386530333161633637316135356600000000000000000000000000000000000000000000000000000000000000000000000000000000000000000000000000000000002a30786132343062303731343731326532393237656330353563656161386530333161633637316135356600000000000000000000000000000000000000000000000000000000000000000000000000000000000000000000000000000000002a30783034386135636566636466306661656237333462633461393431653064653434643863343966353500000000000000000000000000000000000000000000000000000000000000000000000000000000000000000000000000000000002a30786132343062303731343731326532393237656330353563656161386530333161633637316135356600000000000000000000000000000000000000000000000000000000000000000000000000000000000000000000000000000000002a30786132343062303731343731326532393237656330353563656161386530333161633637316135356600000000000000000000000000000000000000000000000000000000000000000000000000000000000000000000000000000000002a30783334313861343565343432323130656339353739623037346165396163623133623261363735353400000000000000000000000000000000000000000000000000000000000000000000000000000000000000000000000000000000002a30786137633537333135333935646566303566393036333130643539306634656131353330386665333000000000000000000000000000000000000000000000000000000000000000000000000000000000000000000000000000000000002a30786465336664623237386230656333323534653837303163333865353863666431313638663133613500000000000000000000000000000000000000000000000000000000000000000000000000000000000000000000000000000000002a30786333336233333137393132643137333830366437383262666164653739376632363264396134626400000000000000000000000000000000000000000000000000000000000000000000000000000000000000000000000000000000002a30783536323439663031636632623530613766323131626239646530386231343830383335663537346100000000000000000000000000000000000000000000000000000000000000000000000000000000000000000000000000000000002a30786132343062303731343731326532393237656330353563656161386530333161633637316135356600000000000000000000000000000000000000000000000000000000000000000000000000000000000000000000000000000000002a30786132343062303731343731326532393237656330353563656161386530333161633637316135356600000000000000000000000000000000000000000000000000000000000000000000000000000000000000000000000000000000002a30786132343062303731343731326532393237656330353563656161386530333161633637316135356600000000000000000000000000000000000000000000000000000000000000000000000000000000000000000000000000000000002a30783462313765386565316363313831343633366464653961633132613432343732373939636362363400000000000000000000000000000000000000000000000000000000000000000000000000000000000000000000000000000000002a30783462313765386565316363313831343633366464653961633132613432343732373939636362363400000000000000000000000000000000000000000000000000000000000000000000000000000000000000000000000000000000002a30786132343062303731343731326532393237656330353563656161386530333161633637316135356600000000000000000000000000000000000000000000000000000000000000000000000000000000000000000000000000000000002a30786238623939313031633164626661643661613431383232303539323737336265303832646238303400000000000000000000000000000000000000000000000000000000000000000000000000000000000000000000000000000000002a30783933646566323431303838353262653532623263333430383464353834333338653436616238663400000000000000000000000000000000000000000000",
        "nonce": "0x324",
        "chainId": "0x61"
      },
      "additionalContracts": [],
      "isFixedGasLimit": false
    }
  ],
  "receipts": [
    {
      "status": "0x1",
      "cumulativeGasUsed": "0xe50a",
      "logs": [],
      "logsBloom": "0x00000000000000000000000000000000000000000000000000000000000000000000000000000000000000000000000000000000000000000000000000000000000000000000000000000000000000000000000000000000000000000000000000000000000000000000000000000000000000000000000000000000000000000000000000000000000000000000000000000000000000000000000000000000000000000000000000000000000000000000000000000000000000000000000000000000000000000000000000000000000000000000000000000000000000000000000000000000000000000000000000000000000000000000000000000000",
      "type": "0x0",
      "transactionHash": "0x1ee1a89a1eb287d9692852b207c223880bb001a8f754ad987edfd7a675fc3bf0",
      "transactionIndex": "0x1",
      "blockHash": "0xd106acea2b2fac656b09adf27b47e8255be99efb75edde3fee0e479aa470bd51",
      "blockNumber": "0x2c79dcf",
      "gasUsed": "0x5eb3",
      "effectiveGasPrice": "0x174876e800",
      "from": "0xe62ab4d111f968660c6b2188046f9b9ba53c4bae",
      "to": "0x8b97e011a2f64f705c0a65706fb7bb968cb13d52",
      "contractAddress": null
    },
    {
      "status": "0x1",
      "cumulativeGasUsed": "0x2ccca",
      "logs": [
        {
          "address": "0x8b97e011a2f64f705c0a65706fb7bb968cb13d52",
          "topics": [
            "0x1394cfab38f3fc78ed77ea6f9318782a446d96e7dc8e9a6b0149f6be25c08bcf",
            "0x000000000000000000000000dd43fc986a13392ddbc7aea150b41efe27b2d0ed"
          ],
          "data": "0x",
          "blockHash": "0xc2422053820e927cfd044849f44f45c1f5be8c8283db6ea78cc1516235107154",
          "blockNumber": "0x2c79dd1",
          "transactionHash": "0xfae27e703018f57dc263d4d9660a0661aef3b4a92b6745fc5ec034a20a713b90",
          "transactionIndex": "0x2",
          "logIndex": "0x2",
          "removed": false
        }
      ],
      "logsBloom": "0x00000000000000000000000000000000000000000000000000000000000000000000000000000000000000000200000000000000000000000000000000000000000000004000000400000000000000000000001000000000000000000000000000000000000000000000000000000400000000000000000000000000000000000000000100000000000000000000000000000000000000000000000000000000000000000000000000000000000000000000000100000000000000000000000000000000000000000000000000000000000000000000000000000000000000000000000000010000000000000000000000000000000000000000100000000000",
      "type": "0x0",
      "transactionHash": "0xfae27e703018f57dc263d4d9660a0661aef3b4a92b6745fc5ec034a20a713b90",
      "transactionIndex": "0x2",
      "blockHash": "0xc2422053820e927cfd044849f44f45c1f5be8c8283db6ea78cc1516235107154",
      "blockNumber": "0x2c79dd1",
      "gasUsed": "0x1c01c",
      "effectiveGasPrice": "0x174876e800",
      "from": "0xe62ab4d111f968660c6b2188046f9b9ba53c4bae",
      "to": "0x8b97e011a2f64f705c0a65706fb7bb968cb13d52",
      "contractAddress": null
    },
    {
      "status": "0x1",
      "cumulativeGasUsed": "0x19458",
      "logs": [],
      "logsBloom": "0x00000000000000000000000000000000000000000000000000000000000000000000000000000000000000000000000000000000000000000000000000000000000000000000000000000000000000000000000000000000000000000000000000000000000000000000000000000000000000000000000000000000000000000000000000000000000000000000000000000000000000000000000000000000000000000000000000000000000000000000000000000000000000000000000000000000000000000000000000000000000000000000000000000000000000000000000000000000000000000000000000000000000000000000000000000000",
      "type": "0x0",
      "transactionHash": "0xcbbc3c9e6c3efbe88678170a5be2daaa940a825f71f0f03ffb34435bcd176e27",
      "transactionIndex": "0x2",
      "blockHash": "0xb106f44ec3aa139ca39dcf69bbdddadd7edbcfc1651fd71a81b2a2fc61b02658",
      "blockNumber": "0x2c79dd4",
      "gasUsed": "0xbbf9",
      "effectiveGasPrice": "0x174876e800",
      "from": "0xe62ab4d111f968660c6b2188046f9b9ba53c4bae",
      "to": "0x8b97e011a2f64f705c0a65706fb7bb968cb13d52",
      "contractAddress": null
    },
    {
      "status": "0x1",
      "cumulativeGasUsed": "0x18545",
      "logs": [],
      "logsBloom": "0x00000000000000000000000000000000000000000000000000000000000000000000000000000000000000000000000000000000000000000000000000000000000000000000000000000000000000000000000000000000000000000000000000000000000000000000000000000000000000000000000000000000000000000000000000000000000000000000000000000000000000000000000000000000000000000000000000000000000000000000000000000000000000000000000000000000000000000000000000000000000000000000000000000000000000000000000000000000000000000000000000000000000000000000000000000000",
      "type": "0x0",
      "transactionHash": "0x6fea856d989e2d7ac5c5d64b704ae5c47081c7271289861ee6dd49cd106fc6b0",
      "transactionIndex": "0x1",
      "blockHash": "0xc23ae34865ae2cda7827eedba89e934b690513a0cad87584604b062d4d8d843b",
      "blockNumber": "0x2c79dd6",
      "gasUsed": "0xbc22",
      "effectiveGasPrice": "0x174876e800",
      "from": "0xe62ab4d111f968660c6b2188046f9b9ba53c4bae",
      "to": "0x8b97e011a2f64f705c0a65706fb7bb968cb13d52",
      "contractAddress": null
    },
    {
      "status": "0x1",
      "cumulativeGasUsed": "0x1c8e7",
      "logs": [],
      "logsBloom": "0x00000000000000000000000000000000000000000000000000000000000000000000000000000000000000000000000000000000000000000000000000000000000000000000000000000000000000000000000000000000000000000000000000000000000000000000000000000000000000000000000000000000000000000000000000000000000000000000000000000000000000000000000000000000000000000000000000000000000000000000000000000000000000000000000000000000000000000000000000000000000000000000000000000000000000000000000000000000000000000000000000000000000000000000000000000000",
      "type": "0x0",
      "transactionHash": "0xfa860147875d68ac6c1056386d102391a6764524531f7dc4ae37ac80914eb617",
      "transactionIndex": "0x2",
      "blockHash": "0xed8c63ea4133e1e6fa6d161f8591de5f190679cf8dd8e943351223d4236dfa74",
      "blockNumber": "0x2c79dd9",
      "gasUsed": "0xbc39",
      "effectiveGasPrice": "0x174876e800",
      "from": "0xe62ab4d111f968660c6b2188046f9b9ba53c4bae",
      "to": "0x8b97e011a2f64f705c0a65706fb7bb968cb13d52",
      "contractAddress": null
    },
    {
      "status": "0x1",
      "cumulativeGasUsed": "0x226b1",
      "logs": [],
      "logsBloom": "0x00000000000000000000000000000000000000000000000000000000000000000000000000000000000000000000000000000000000000000000000000000000000000000000000000000000000000000000000000000000000000000000000000000000000000000000000000000000000000000000000000000000000000000000000000000000000000000000000000000000000000000000000000000000000000000000000000000000000000000000000000000000000000000000000000000000000000000000000000000000000000000000000000000000000000000000000000000000000000000000000000000000000000000000000000000000",
      "type": "0x0",
      "transactionHash": "0x81a2a4ace2a0f688f31f16c285a7cacd0fee7be2c28a85088a88cc9cd98a1b9a",
      "transactionIndex": "0x1",
      "blockHash": "0xdece317af4ee043c945779f4bebdcee6820cb916837a07b15852aad17e21eb1f",
      "blockNumber": "0x2c79ddb",
      "gasUsed": "0xbc50",
      "effectiveGasPrice": "0x174876e800",
      "from": "0xe62ab4d111f968660c6b2188046f9b9ba53c4bae",
      "to": "0x8b97e011a2f64f705c0a65706fb7bb968cb13d52",
      "contractAddress": null
    },
    {
      "status": "0x1",
      "cumulativeGasUsed": "0xbc67",
      "logs": [],
      "logsBloom": "0x00000000000000000000000000000000000000000000000000000000000000000000000000000000000000000000000000000000000000000000000000000000000000000000000000000000000000000000000000000000000000000000000000000000000000000000000000000000000000000000000000000000000000000000000000000000000000000000000000000000000000000000000000000000000000000000000000000000000000000000000000000000000000000000000000000000000000000000000000000000000000000000000000000000000000000000000000000000000000000000000000000000000000000000000000000000",
      "type": "0x0",
      "transactionHash": "0x36f8e6118dbe88975c1ca7b68ef0af1ac98be175ca847197e4ec199c09e71044",
      "transactionIndex": "0x0",
      "blockHash": "0xc5bd5ed7ef061340e872b038a8bec55407e54501c18ea775532eb39802769a5e",
      "blockNumber": "0x2c79ddd",
      "gasUsed": "0xbc67",
      "effectiveGasPrice": "0x174876e800",
      "from": "0xe62ab4d111f968660c6b2188046f9b9ba53c4bae",
      "to": "0x8b97e011a2f64f705c0a65706fb7bb968cb13d52",
      "contractAddress": null
    },
    {
      "status": "0x1",
      "cumulativeGasUsed": "0xbc7e",
      "logs": [],
      "logsBloom": "0x00000000000000000000000000000000000000000000000000000000000000000000000000000000000000000000000000000000000000000000000000000000000000000000000000000000000000000000000000000000000000000000000000000000000000000000000000000000000000000000000000000000000000000000000000000000000000000000000000000000000000000000000000000000000000000000000000000000000000000000000000000000000000000000000000000000000000000000000000000000000000000000000000000000000000000000000000000000000000000000000000000000000000000000000000000000",
      "type": "0x0",
      "transactionHash": "0x3b6ff471114ceffa24fd61cf6562300dd4d558b6d7fb03a4f59e7822758111c6",
      "transactionIndex": "0x0",
      "blockHash": "0x865ef75b5f10273eae993f812fb529f01f68896d8febb969d2637c1263d696f0",
      "blockNumber": "0x2c79de0",
      "gasUsed": "0xbc7e",
      "effectiveGasPrice": "0x174876e800",
      "from": "0xe62ab4d111f968660c6b2188046f9b9ba53c4bae",
      "to": "0x8b97e011a2f64f705c0a65706fb7bb968cb13d52",
      "contractAddress": null
    },
    {
      "status": "0x1",
      "cumulativeGasUsed": "0x29e3b",
      "logs": [],
      "logsBloom": "0x00000000000000000000000000000000000000000000000000000000000000000000000000000000000000000000000000000000000000000000000000000000000000000000000000000000000000000000000000000000000000000000000000000000000000000000000000000000000000000000000000000000000000000000000000000000000000000000000000000000000000000000000000000000000000000000000000000000000000000000000000000000000000000000000000000000000000000000000000000000000000000000000000000000000000000000000000000000000000000000000000000000000000000000000000000000",
      "type": "0x0",
      "transactionHash": "0xc399256e4b565a41640ca1ccf8147dc75112785e15552f8270263feba896d4b9",
      "transactionIndex": "0x1",
      "blockHash": "0x76929fce9b94b75a7e494fdaa098b5eae8472dfecbacfdcdc0c920a67d1da652",
      "blockNumber": "0x2c79de2",
      "gasUsed": "0xbc95",
      "effectiveGasPrice": "0x174876e800",
      "from": "0xe62ab4d111f968660c6b2188046f9b9ba53c4bae",
      "to": "0x8b97e011a2f64f705c0a65706fb7bb968cb13d52",
      "contractAddress": null
    },
    {
      "status": "0x1",
      "cumulativeGasUsed": "0xbcac",
      "logs": [],
      "logsBloom": "0x00000000000000000000000000000000000000000000000000000000000000000000000000000000000000000000000000000000000000000000000000000000000000000000000000000000000000000000000000000000000000000000000000000000000000000000000000000000000000000000000000000000000000000000000000000000000000000000000000000000000000000000000000000000000000000000000000000000000000000000000000000000000000000000000000000000000000000000000000000000000000000000000000000000000000000000000000000000000000000000000000000000000000000000000000000000",
      "type": "0x0",
      "transactionHash": "0xc153df11a5c220ef236fd9abb1afd83f2d351c492c9d9f12a1ad9792a3f3da43",
      "transactionIndex": "0x0",
      "blockHash": "0xb0054df965f5a7add192f26a3b2e3ca827135f7f1c92774f06193a1f3c06f29f",
      "blockNumber": "0x2c79de5",
      "gasUsed": "0xbcac",
      "effectiveGasPrice": "0x174876e800",
      "from": "0xe62ab4d111f968660c6b2188046f9b9ba53c4bae",
      "to": "0x8b97e011a2f64f705c0a65706fb7bb968cb13d52",
      "contractAddress": null
    },
    {
      "status": "0x1",
      "cumulativeGasUsed": "0xbcc3",
      "logs": [],
      "logsBloom": "0x00000000000000000000000000000000000000000000000000000000000000000000000000000000000000000000000000000000000000000000000000000000000000000000000000000000000000000000000000000000000000000000000000000000000000000000000000000000000000000000000000000000000000000000000000000000000000000000000000000000000000000000000000000000000000000000000000000000000000000000000000000000000000000000000000000000000000000000000000000000000000000000000000000000000000000000000000000000000000000000000000000000000000000000000000000000",
      "type": "0x0",
      "transactionHash": "0x3f41df9e0bfb560977b20483f2a0a185ddbb3b502cc670d9ad5bc0514f620c15",
      "transactionIndex": "0x0",
      "blockHash": "0x93f94173fcedbe39da52d8270c6d623ea949e00bd0448d2ee4be12b7deb2612a",
      "blockNumber": "0x2c79de7",
      "gasUsed": "0xbcc3",
      "effectiveGasPrice": "0x174876e800",
      "from": "0xe62ab4d111f968660c6b2188046f9b9ba53c4bae",
      "to": "0x8b97e011a2f64f705c0a65706fb7bb968cb13d52",
      "contractAddress": null
    },
    {
      "status": "0x1",
      "cumulativeGasUsed": "0xbcda",
      "logs": [],
      "logsBloom": "0x00000000000000000000000000000000000000000000000000000000000000000000000000000000000000000000000000000000000000000000000000000000000000000000000000000000000000000000000000000000000000000000000000000000000000000000000000000000000000000000000000000000000000000000000000000000000000000000000000000000000000000000000000000000000000000000000000000000000000000000000000000000000000000000000000000000000000000000000000000000000000000000000000000000000000000000000000000000000000000000000000000000000000000000000000000000",
      "type": "0x0",
      "transactionHash": "0x690d205ceede3e3f06f13631762ef5ac9e460c231756f603ef556335a9e041d2",
      "transactionIndex": "0x0",
      "blockHash": "0x7b59edc062224c071f13e8be6bd26036236c2a98fe2850069ca0e56427e43500",
      "blockNumber": "0x2c79dea",
      "gasUsed": "0xbcda",
      "effectiveGasPrice": "0x174876e800",
      "from": "0xe62ab4d111f968660c6b2188046f9b9ba53c4bae",
      "to": "0x8b97e011a2f64f705c0a65706fb7bb968cb13d52",
      "contractAddress": null
    },
    {
      "status": "0x1",
      "cumulativeGasUsed": "0xbcf1",
      "logs": [],
      "logsBloom": "0x00000000000000000000000000000000000000000000000000000000000000000000000000000000000000000000000000000000000000000000000000000000000000000000000000000000000000000000000000000000000000000000000000000000000000000000000000000000000000000000000000000000000000000000000000000000000000000000000000000000000000000000000000000000000000000000000000000000000000000000000000000000000000000000000000000000000000000000000000000000000000000000000000000000000000000000000000000000000000000000000000000000000000000000000000000000",
      "type": "0x0",
      "transactionHash": "0xee75fd37cfad3b74af3b4ad0e9a7832885cfa7155d1cf77306d03bbac7efdeb3",
      "transactionIndex": "0x0",
      "blockHash": "0x027e480e35cff54f8e2962b21b31a61a67447ff6b7aae6a7461d680db4315028",
      "blockNumber": "0x2c79dec",
      "gasUsed": "0xbcf1",
      "effectiveGasPrice": "0x174876e800",
      "from": "0xe62ab4d111f968660c6b2188046f9b9ba53c4bae",
      "to": "0x8b97e011a2f64f705c0a65706fb7bb968cb13d52",
      "contractAddress": null
    },
    {
      "status": "0x1",
      "cumulativeGasUsed": "0xbd08",
      "logs": [],
      "logsBloom": "0x00000000000000000000000000000000000000000000000000000000000000000000000000000000000000000000000000000000000000000000000000000000000000000000000000000000000000000000000000000000000000000000000000000000000000000000000000000000000000000000000000000000000000000000000000000000000000000000000000000000000000000000000000000000000000000000000000000000000000000000000000000000000000000000000000000000000000000000000000000000000000000000000000000000000000000000000000000000000000000000000000000000000000000000000000000000",
      "type": "0x0",
      "transactionHash": "0x58885b9fbf2f796c499b238365eb2af5ad518d2571ec8292b0b204afff004ac1",
      "transactionIndex": "0x0",
      "blockHash": "0xf453ec4c47bb8aa24a7ae09cfe993c33b921dedc6822eda834faa92b208952cf",
      "blockNumber": "0x2c79def",
      "gasUsed": "0xbd08",
      "effectiveGasPrice": "0x174876e800",
      "from": "0xe62ab4d111f968660c6b2188046f9b9ba53c4bae",
      "to": "0x8b97e011a2f64f705c0a65706fb7bb968cb13d52",
      "contractAddress": null
    },
    {
      "status": "0x1",
      "cumulativeGasUsed": "0xbd1f",
      "logs": [],
      "logsBloom": "0x00000000000000000000000000000000000000000000000000000000000000000000000000000000000000000000000000000000000000000000000000000000000000000000000000000000000000000000000000000000000000000000000000000000000000000000000000000000000000000000000000000000000000000000000000000000000000000000000000000000000000000000000000000000000000000000000000000000000000000000000000000000000000000000000000000000000000000000000000000000000000000000000000000000000000000000000000000000000000000000000000000000000000000000000000000000",
      "type": "0x0",
      "transactionHash": "0x746294f175a6976fab4d54f99b455dd11017e59eaefe68f177ef4971720a66e3",
      "transactionIndex": "0x0",
      "blockHash": "0xe05bb2713896d3107885263671d9506b9f5625a53ba4247ebfd0ff2e83076f92",
      "blockNumber": "0x2c79df1",
      "gasUsed": "0xbd1f",
      "effectiveGasPrice": "0x174876e800",
      "from": "0xe62ab4d111f968660c6b2188046f9b9ba53c4bae",
      "to": "0x8b97e011a2f64f705c0a65706fb7bb968cb13d52",
      "contractAddress": null
    },
    {
      "status": "0x1",
      "cumulativeGasUsed": "0xbd36",
      "logs": [],
      "logsBloom": "0x00000000000000000000000000000000000000000000000000000000000000000000000000000000000000000000000000000000000000000000000000000000000000000000000000000000000000000000000000000000000000000000000000000000000000000000000000000000000000000000000000000000000000000000000000000000000000000000000000000000000000000000000000000000000000000000000000000000000000000000000000000000000000000000000000000000000000000000000000000000000000000000000000000000000000000000000000000000000000000000000000000000000000000000000000000000",
      "type": "0x0",
      "transactionHash": "0x132760003a12a78468bca0acca29848647e1738c714f5264116204560d2a283f",
      "transactionIndex": "0x0",
      "blockHash": "0x327ce73dcc4d4b326af03961cbcc9d38e02e640cdfad5c307b8036b819d2fd88",
      "blockNumber": "0x2c79df4",
      "gasUsed": "0xbd36",
      "effectiveGasPrice": "0x174876e800",
      "from": "0xe62ab4d111f968660c6b2188046f9b9ba53c4bae",
      "to": "0x8b97e011a2f64f705c0a65706fb7bb968cb13d52",
      "contractAddress": null
    },
    {
      "status": "0x1",
      "cumulativeGasUsed": "0xbd4d",
      "logs": [],
      "logsBloom": "0x00000000000000000000000000000000000000000000000000000000000000000000000000000000000000000000000000000000000000000000000000000000000000000000000000000000000000000000000000000000000000000000000000000000000000000000000000000000000000000000000000000000000000000000000000000000000000000000000000000000000000000000000000000000000000000000000000000000000000000000000000000000000000000000000000000000000000000000000000000000000000000000000000000000000000000000000000000000000000000000000000000000000000000000000000000000",
      "type": "0x0",
      "transactionHash": "0x2617e8d44b9e025f60cebf06727d7bc022e99a7c348b353aa01d56a22402cae5",
      "transactionIndex": "0x0",
      "blockHash": "0x410439f08150ab6a21e611b45832e2245a83ba767090c9e16c03ab69e9bc5607",
      "blockNumber": "0x2c79df6",
      "gasUsed": "0xbd4d",
      "effectiveGasPrice": "0x174876e800",
      "from": "0xe62ab4d111f968660c6b2188046f9b9ba53c4bae",
      "to": "0x8b97e011a2f64f705c0a65706fb7bb968cb13d52",
      "contractAddress": null
    },
    {
      "status": "0x1",
      "cumulativeGasUsed": "0xbd64",
      "logs": [],
      "logsBloom": "0x00000000000000000000000000000000000000000000000000000000000000000000000000000000000000000000000000000000000000000000000000000000000000000000000000000000000000000000000000000000000000000000000000000000000000000000000000000000000000000000000000000000000000000000000000000000000000000000000000000000000000000000000000000000000000000000000000000000000000000000000000000000000000000000000000000000000000000000000000000000000000000000000000000000000000000000000000000000000000000000000000000000000000000000000000000000",
      "type": "0x0",
      "transactionHash": "0x47ce461eed85bf080c4e4077dd8ccf204e68012862e522d00ef500a8b7eab375",
      "transactionIndex": "0x0",
      "blockHash": "0x4b3b57b11c74366e0b24e971c5d7bc2949bf74e086abcca025f32d95540827b0",
      "blockNumber": "0x2c79df8",
      "gasUsed": "0xbd64",
      "effectiveGasPrice": "0x174876e800",
      "from": "0xe62ab4d111f968660c6b2188046f9b9ba53c4bae",
      "to": "0x8b97e011a2f64f705c0a65706fb7bb968cb13d52",
      "contractAddress": null
    },
    {
      "status": "0x1",
      "cumulativeGasUsed": "0xbd7b",
      "logs": [],
      "logsBloom": "0x00000000000000000000000000000000000000000000000000000000000000000000000000000000000000000000000000000000000000000000000000000000000000000000000000000000000000000000000000000000000000000000000000000000000000000000000000000000000000000000000000000000000000000000000000000000000000000000000000000000000000000000000000000000000000000000000000000000000000000000000000000000000000000000000000000000000000000000000000000000000000000000000000000000000000000000000000000000000000000000000000000000000000000000000000000000",
      "type": "0x0",
      "transactionHash": "0x196065bb9b041593433fe0f2762afb8d7d99cf081c414bb00a97c35c7923f61c",
      "transactionIndex": "0x0",
      "blockHash": "0xda6e07730c508c2321458743fa3aeb0159e78a8a43b8e1f8a5dc320ecb7b2d5d",
      "blockNumber": "0x2c79dfb",
      "gasUsed": "0xbd7b",
      "effectiveGasPrice": "0x174876e800",
      "from": "0xe62ab4d111f968660c6b2188046f9b9ba53c4bae",
      "to": "0x8b97e011a2f64f705c0a65706fb7bb968cb13d52",
      "contractAddress": null
    },
    {
      "status": "0x1",
      "cumulativeGasUsed": "0xbd92",
      "logs": [],
      "logsBloom": "0x00000000000000000000000000000000000000000000000000000000000000000000000000000000000000000000000000000000000000000000000000000000000000000000000000000000000000000000000000000000000000000000000000000000000000000000000000000000000000000000000000000000000000000000000000000000000000000000000000000000000000000000000000000000000000000000000000000000000000000000000000000000000000000000000000000000000000000000000000000000000000000000000000000000000000000000000000000000000000000000000000000000000000000000000000000000",
      "type": "0x0",
      "transactionHash": "0xd56b584d6bd7a7abfaaea1f2d7b571b704b7a1468990ec478d4d467e49ae66db",
      "transactionIndex": "0x0",
      "blockHash": "0x160a7791a9673d3091bb4c9f65f4739d3995adef191f5a35588bb9a8223e5817",
      "blockNumber": "0x2c79dfd",
      "gasUsed": "0xbd92",
      "effectiveGasPrice": "0x174876e800",
      "from": "0xe62ab4d111f968660c6b2188046f9b9ba53c4bae",
      "to": "0x8b97e011a2f64f705c0a65706fb7bb968cb13d52",
      "contractAddress": null
    },
    {
      "status": "0x1",
      "cumulativeGasUsed": "0xbda9",
      "logs": [],
      "logsBloom": "0x00000000000000000000000000000000000000000000000000000000000000000000000000000000000000000000000000000000000000000000000000000000000000000000000000000000000000000000000000000000000000000000000000000000000000000000000000000000000000000000000000000000000000000000000000000000000000000000000000000000000000000000000000000000000000000000000000000000000000000000000000000000000000000000000000000000000000000000000000000000000000000000000000000000000000000000000000000000000000000000000000000000000000000000000000000000",
      "type": "0x0",
      "transactionHash": "0x0ecdcd680de83c70fa4c181512275a9c36441987a12f343fc9c8deeb5f846e1f",
      "transactionIndex": "0x0",
      "blockHash": "0x690cb2e4bc3a59100540b92efb8a52340337af70ac47d3b139523c1531527cd5",
      "blockNumber": "0x2c79dff",
      "gasUsed": "0xbda9",
      "effectiveGasPrice": "0x174876e800",
      "from": "0xe62ab4d111f968660c6b2188046f9b9ba53c4bae",
      "to": "0x8b97e011a2f64f705c0a65706fb7bb968cb13d52",
      "contractAddress": null
    },
    {
      "status": "0x1",
      "cumulativeGasUsed": "0xbdc0",
      "logs": [],
      "logsBloom": "0x00000000000000000000000000000000000000000000000000000000000000000000000000000000000000000000000000000000000000000000000000000000000000000000000000000000000000000000000000000000000000000000000000000000000000000000000000000000000000000000000000000000000000000000000000000000000000000000000000000000000000000000000000000000000000000000000000000000000000000000000000000000000000000000000000000000000000000000000000000000000000000000000000000000000000000000000000000000000000000000000000000000000000000000000000000000",
      "type": "0x0",
      "transactionHash": "0x6ab9d9c628951bcac255f8ab15e5fd16b8be57f0aef510913cd59c446f3a3671",
      "transactionIndex": "0x0",
      "blockHash": "0xef6f1759101fe85d50520474b678384b0fa200dfba452b0d19917188ea4262a6",
      "blockNumber": "0x2c79e02",
      "gasUsed": "0xbdc0",
      "effectiveGasPrice": "0x174876e800",
      "from": "0xe62ab4d111f968660c6b2188046f9b9ba53c4bae",
      "to": "0x8b97e011a2f64f705c0a65706fb7bb968cb13d52",
      "contractAddress": null
    },
    {
      "status": "0x1",
      "cumulativeGasUsed": "0xbdd2",
      "logs": [],
      "logsBloom": "0x00000000000000000000000000000000000000000000000000000000000000000000000000000000000000000000000000000000000000000000000000000000000000000000000000000000000000000000000000000000000000000000000000000000000000000000000000000000000000000000000000000000000000000000000000000000000000000000000000000000000000000000000000000000000000000000000000000000000000000000000000000000000000000000000000000000000000000000000000000000000000000000000000000000000000000000000000000000000000000000000000000000000000000000000000000000",
      "type": "0x0",
      "transactionHash": "0x22e4bfdfc188c6c3c23fe4fb6b574d2ef9385474a2f08410687054f77fa3ee00",
      "transactionIndex": "0x0",
      "blockHash": "0xc14e7bd9129a60966dce7e456b573439a3453bc81208080be99faea35aeed8de",
      "blockNumber": "0x2c79e04",
      "gasUsed": "0xbdd2",
      "effectiveGasPrice": "0x174876e800",
      "from": "0xe62ab4d111f968660c6b2188046f9b9ba53c4bae",
      "to": "0x8b97e011a2f64f705c0a65706fb7bb968cb13d52",
      "contractAddress": null
    },
    {
      "status": "0x1",
      "cumulativeGasUsed": "0x226da",
      "logs": [],
      "logsBloom": "0x00000000000000000000000000000000000000000000000000000000000000000000000000000000000000000000000000000000000000000000000000000000000000000000000000000000000000000000000000000000000000000000000000000000000000000000000000000000000000000000000000000000000000000000000000000000000000000000000000000000000000000000000000000000000000000000000000000000000000000000000000000000000000000000000000000000000000000000000000000000000000000000000000000000000000000000000000000000000000000000000000000000000000000000000000000000",
      "type": "0x0",
      "transactionHash": "0x4374f7cd6ab8daffb8e39b34c16472c23a739ef16c1a07009659038cfe719e2f",
      "transactionIndex": "0x0",
      "blockHash": "0x4489fdcadb90d44612e7343d4510db213ec0049ad88baf45ffba46de9eb614f1",
      "blockNumber": "0x2c79e07",
      "gasUsed": "0x226da",
      "effectiveGasPrice": "0x174876e800",
      "from": "0xe62ab4d111f968660c6b2188046f9b9ba53c4bae",
      "to": "0x8b97e011a2f64f705c0a65706fb7bb968cb13d52",
      "contractAddress": null
    },
    {
      "status": "0x1",
      "cumulativeGasUsed": "0x1ea5a",
      "logs": [],
      "logsBloom": "0x00000000000000000000000000000000000000000000000000000000000000000000000000000000000000000000000000000000000000000000000000000000000000000000000000000000000000000000000000000000000000000000000000000000000000000000000000000000000000000000000000000000000000000000000000000000000000000000000000000000000000000000000000000000000000000000000000000000000000000000000000000000000000000000000000000000000000000000000000000000000000000000000000000000000000000000000000000000000000000000000000000000000000000000000000000000",
      "type": "0x0",
      "transactionHash": "0xeee397178171a10acb7cdac147ab4e99cd3f21568a962c689484cd4ea6374663",
      "transactionIndex": "0x0",
      "blockHash": "0xa6b4a87d2d981d3b8c5f11a421f206939bc712dc2e511ce8454e51fc830c461e",
      "blockNumber": "0x2c79e09",
      "gasUsed": "0x1ea5a",
      "effectiveGasPrice": "0x174876e800",
      "from": "0xe62ab4d111f968660c6b2188046f9b9ba53c4bae",
      "to": "0x8b97e011a2f64f705c0a65706fb7bb968cb13d52",
      "contractAddress": null
    },
    {
      "status": "0x1",
      "cumulativeGasUsed": "0x1ea5a",
      "logs": [],
      "logsBloom": "0x00000000000000000000000000000000000000000000000000000000000000000000000000000000000000000000000000000000000000000000000000000000000000000000000000000000000000000000000000000000000000000000000000000000000000000000000000000000000000000000000000000000000000000000000000000000000000000000000000000000000000000000000000000000000000000000000000000000000000000000000000000000000000000000000000000000000000000000000000000000000000000000000000000000000000000000000000000000000000000000000000000000000000000000000000000000",
      "type": "0x0",
      "transactionHash": "0x201ca0f68d94b2d903e31a3b99340e248a3466a3637c0e45e2c10020facef7f6",
      "transactionIndex": "0x0",
      "blockHash": "0xf6723be5a3adf66e6507b556739b428881034d122ed8107e56c366269edc9bb0",
      "blockNumber": "0x2c79e0c",
      "gasUsed": "0x1ea5a",
      "effectiveGasPrice": "0x174876e800",
      "from": "0xe62ab4d111f968660c6b2188046f9b9ba53c4bae",
      "to": "0x8b97e011a2f64f705c0a65706fb7bb968cb13d52",
      "contractAddress": null
    },
    {
      "status": "0x1",
      "cumulativeGasUsed": "0x1ea5a",
      "logs": [],
      "logsBloom": "0x00000000000000000000000000000000000000000000000000000000000000000000000000000000000000000000000000000000000000000000000000000000000000000000000000000000000000000000000000000000000000000000000000000000000000000000000000000000000000000000000000000000000000000000000000000000000000000000000000000000000000000000000000000000000000000000000000000000000000000000000000000000000000000000000000000000000000000000000000000000000000000000000000000000000000000000000000000000000000000000000000000000000000000000000000000000",
      "type": "0x0",
      "transactionHash": "0x18449edd457a3299f93e57d22de4ad6522d890718ecfd734e2ff7116a5ea9b66",
      "transactionIndex": "0x0",
      "blockHash": "0xfcdf5f81ec72e24ef7bfe9350453c28e2b06e28ae78ddb639abaa663190eacce",
      "blockNumber": "0x2c79e0e",
      "gasUsed": "0x1ea5a",
      "effectiveGasPrice": "0x174876e800",
      "from": "0xe62ab4d111f968660c6b2188046f9b9ba53c4bae",
      "to": "0x8b97e011a2f64f705c0a65706fb7bb968cb13d52",
      "contractAddress": null
    },
    {
      "status": "0x1",
      "cumulativeGasUsed": "0x1e8d6",
      "logs": [],
      "logsBloom": "0x00000000000000000000000000000000000000000000000000000000000000000000000000000000000000000000000000000000000000000000000000000000000000000000000000000000000000000000000000000000000000000000000000000000000000000000000000000000000000000000000000000000000000000000000000000000000000000000000000000000000000000000000000000000000000000000000000000000000000000000000000000000000000000000000000000000000000000000000000000000000000000000000000000000000000000000000000000000000000000000000000000000000000000000000000000000",
      "type": "0x0",
      "transactionHash": "0x84b7dc899829463e5946bb00d2f2b200d52156364a2b495b5c6aaa27c0bd14f5",
      "transactionIndex": "0x0",
      "blockHash": "0xc9737ee6036382aff72a29b5e2a770b3cc70f7a1fcf073c1085abb83a8ec3c83",
      "blockNumber": "0x2c79e11",
      "gasUsed": "0x1e8d6",
      "effectiveGasPrice": "0x174876e800",
      "from": "0xe62ab4d111f968660c6b2188046f9b9ba53c4bae",
      "to": "0x8b97e011a2f64f705c0a65706fb7bb968cb13d52",
      "contractAddress": null
    },
    {
      "status": "0x1",
      "cumulativeGasUsed": "0x303ac",
      "logs": [],
      "logsBloom": "0x00000000000000000000000000000000000000000000000000000000000000000000000000000000000000000000000000000000000000000000000000000000000000000000000000000000000000000000000000000000000000000000000000000000000000000000000000000000000000000000000000000000000000000000000000000000000000000000000000000000000000000000000000000000000000000000000000000000000000000000000000000000000000000000000000000000000000000000000000000000000000000000000000000000000000000000000000000000000000000000000000000000000000000000000000000000",
      "type": "0x0",
      "transactionHash": "0x65611f3e0dd033abaa7b742e2fc769ce6a41399f14d4170dd5e39a528289fb7e",
      "transactionIndex": "0x1",
      "blockHash": "0x06b507bf7d9dcb063b7fccbbc9c6c340eab9a738230e2ec6592b3bee2b8ceb0c",
      "blockNumber": "0x2c79e13",
      "gasUsed": "0x1ea5a",
      "effectiveGasPrice": "0x174876e800",
      "from": "0xe62ab4d111f968660c6b2188046f9b9ba53c4bae",
      "to": "0x8b97e011a2f64f705c0a65706fb7bb968cb13d52",
      "contractAddress": null
    },
    {
      "status": "0x1",
      "cumulativeGasUsed": "0x1e8d6",
      "logs": [],
      "logsBloom": "0x00000000000000000000000000000000000000000000000000000000000000000000000000000000000000000000000000000000000000000000000000000000000000000000000000000000000000000000000000000000000000000000000000000000000000000000000000000000000000000000000000000000000000000000000000000000000000000000000000000000000000000000000000000000000000000000000000000000000000000000000000000000000000000000000000000000000000000000000000000000000000000000000000000000000000000000000000000000000000000000000000000000000000000000000000000000",
      "type": "0x0",
      "transactionHash": "0xd5f88f7b14e87334f0ef00f3588a77e13b64afad4b21fae17d0bc5370bc516e6",
      "transactionIndex": "0x0",
      "blockHash": "0xa904842a12b46bece8615c59209d19c028560c7e876af3e83057431b56d38ebc",
      "blockNumber": "0x2c79e15",
      "gasUsed": "0x1e8d6",
      "effectiveGasPrice": "0x174876e800",
      "from": "0xe62ab4d111f968660c6b2188046f9b9ba53c4bae",
      "to": "0x8b97e011a2f64f705c0a65706fb7bb968cb13d52",
      "contractAddress": null
    },
    {
      "status": "0x1",
      "cumulativeGasUsed": "0x1f06a",
      "logs": [],
      "logsBloom": "0x00000000000000000000000000000000000000000000000000000000000000000000000000000000000000000000000000000000000000000000000000000000000000000000000000000000000000000000000000000000000000000000000000000000000000000000000000000000000000000000000000000000000000000000000000000000000000000000000000000000000000000000000000000000000000000000000000000000000000000000000000000000000000000000000000000000000000000000000000000000000000000000000000000000000000000000000000000000000000000000000000000000000000000000000000000000",
      "type": "0x0",
      "transactionHash": "0xe32e36dec4e347c9bdc1f82025dcdc7b95dc7c8319d7cb6d76d156df114c5ec7",
      "transactionIndex": "0x0",
      "blockHash": "0xa0a489815396ef76decd3ab60ca51e8c7eda9a27e117c3eb343a5f84cf98458c",
      "blockNumber": "0x2c79e18",
      "gasUsed": "0x1f06a",
      "effectiveGasPrice": "0x174876e800",
      "from": "0xe62ab4d111f968660c6b2188046f9b9ba53c4bae",
      "to": "0x8b97e011a2f64f705c0a65706fb7bb968cb13d52",
      "contractAddress": null
    },
    {
      "status": "0x1",
      "cumulativeGasUsed": "0x1ebde",
      "logs": [],
      "logsBloom": "0x00000000000000000000000000000000000000000000000000000000000000000000000000000000000000000000000000000000000000000000000000000000000000000000000000000000000000000000000000000000000000000000000000000000000000000000000000000000000000000000000000000000000000000000000000000000000000000000000000000000000000000000000000000000000000000000000000000000000000000000000000000000000000000000000000000000000000000000000000000000000000000000000000000000000000000000000000000000000000000000000000000000000000000000000000000000",
      "type": "0x0",
      "transactionHash": "0x0d3d5d029341536f26475bcaaf251fae5d39f368180480130c3c9d7b86f4159f",
      "transactionIndex": "0x0",
      "blockHash": "0x28c3b0b50fe27ff86e6a7ba90fbf043d91546531b228f879f75cf2af4e4c33f1",
      "blockNumber": "0x2c79e1a",
      "gasUsed": "0x1ebde",
      "effectiveGasPrice": "0x174876e800",
      "from": "0xe62ab4d111f968660c6b2188046f9b9ba53c4bae",
      "to": "0x8b97e011a2f64f705c0a65706fb7bb968cb13d52",
      "contractAddress": null
    },
    {
      "status": "0x1",
      "cumulativeGasUsed": "0x1ebde",
      "logs": [],
      "logsBloom": "0x00000000000000000000000000000000000000000000000000000000000000000000000000000000000000000000000000000000000000000000000000000000000000000000000000000000000000000000000000000000000000000000000000000000000000000000000000000000000000000000000000000000000000000000000000000000000000000000000000000000000000000000000000000000000000000000000000000000000000000000000000000000000000000000000000000000000000000000000000000000000000000000000000000000000000000000000000000000000000000000000000000000000000000000000000000000",
      "type": "0x0",
      "transactionHash": "0x0e11240179f90e910fd8c2fe31d60ec972d39d5bfecc3d42ca1b8ac7e6aac21e",
      "transactionIndex": "0x0",
      "blockHash": "0x015f8e5ae63b43f65aab77f2b2a4fbf0bb9f4a560ff35545606ed150fe018dcf",
      "blockNumber": "0x2c79e1d",
      "gasUsed": "0x1ebde",
      "effectiveGasPrice": "0x174876e800",
      "from": "0xe62ab4d111f968660c6b2188046f9b9ba53c4bae",
      "to": "0x8b97e011a2f64f705c0a65706fb7bb968cb13d52",
      "contractAddress": null
    },
    {
      "status": "0x1",
      "cumulativeGasUsed": "0x1e8d6",
      "logs": [],
      "logsBloom": "0x00000000000000000000000000000000000000000000000000000000000000000000000000000000000000000000000000000000000000000000000000000000000000000000000000000000000000000000000000000000000000000000000000000000000000000000000000000000000000000000000000000000000000000000000000000000000000000000000000000000000000000000000000000000000000000000000000000000000000000000000000000000000000000000000000000000000000000000000000000000000000000000000000000000000000000000000000000000000000000000000000000000000000000000000000000000",
      "type": "0x0",
      "transactionHash": "0xedd8cd224183d2387c9fb63dd27167c3adbfc2f18fe7556fc0ec3039d6c95dc5",
      "transactionIndex": "0x0",
      "blockHash": "0xe58c8f1f5f26ee0a18ed4bd66aed23ed3b1e2b7623007d91e2c76487f85cb630",
      "blockNumber": "0x2c79e1f",
      "gasUsed": "0x1e8d6",
      "effectiveGasPrice": "0x174876e800",
      "from": "0xe62ab4d111f968660c6b2188046f9b9ba53c4bae",
      "to": "0x8b97e011a2f64f705c0a65706fb7bb968cb13d52",
      "contractAddress": null
    },
    {
      "status": "0x1",
      "cumulativeGasUsed": "0x1e8d6",
      "logs": [],
      "logsBloom": "0x00000000000000000000000000000000000000000000000000000000000000000000000000000000000000000000000000000000000000000000000000000000000000000000000000000000000000000000000000000000000000000000000000000000000000000000000000000000000000000000000000000000000000000000000000000000000000000000000000000000000000000000000000000000000000000000000000000000000000000000000000000000000000000000000000000000000000000000000000000000000000000000000000000000000000000000000000000000000000000000000000000000000000000000000000000000",
      "type": "0x0",
      "transactionHash": "0x231adc063554285a985fe8fd448f1ba3da8c246814eee186cdcda7c4f29f0e84",
      "transactionIndex": "0x0",
      "blockHash": "0xdc5c6a3ec984ee758e4be143e1a64a7ad3b1a5b85d844ae9f768038cfd1922ba",
      "blockNumber": "0x2c79e21",
      "gasUsed": "0x1e8d6",
      "effectiveGasPrice": "0x174876e800",
      "from": "0xe62ab4d111f968660c6b2188046f9b9ba53c4bae",
      "to": "0x8b97e011a2f64f705c0a65706fb7bb968cb13d52",
      "contractAddress": null
    },
    {
      "status": "0x1",
      "cumulativeGasUsed": "0x1ea5a",
      "logs": [],
      "logsBloom": "0x00000000000000000000000000000000000000000000000000000000000000000000000000000000000000000000000000000000000000000000000000000000000000000000000000000000000000000000000000000000000000000000000000000000000000000000000000000000000000000000000000000000000000000000000000000000000000000000000000000000000000000000000000000000000000000000000000000000000000000000000000000000000000000000000000000000000000000000000000000000000000000000000000000000000000000000000000000000000000000000000000000000000000000000000000000000",
      "type": "0x0",
      "transactionHash": "0x33b267f9d18f51f3797cae080b80d43831a3322e18d0ab9c4978fc9984d0b362",
      "transactionIndex": "0x0",
      "blockHash": "0xf08cece0e6ac46461714de7e54cd7d53709beba589c6a01fafdb059489b6fd7e",
      "blockNumber": "0x2c79e24",
      "gasUsed": "0x1ea5a",
      "effectiveGasPrice": "0x174876e800",
      "from": "0xe62ab4d111f968660c6b2188046f9b9ba53c4bae",
      "to": "0x8b97e011a2f64f705c0a65706fb7bb968cb13d52",
      "contractAddress": null
    },
    {
      "status": "0x1",
      "cumulativeGasUsed": "0x27845",
      "logs": [],
      "logsBloom": "0x00000000000000000000000000000000000000000000000000000000000000000000000000000000000000000000000000000000000000000000000000000000000000000000000000000000000000000000000000000000000000000000000000000000000000000000000000000000000000000000000000000000000000000000000000000000000000000000000000000000000000000000000000000000000000000000000000000000000000000000000000000000000000000000000000000000000000000000000000000000000000000000000000000000000000000000000000000000000000000000000000000000000000000000000000000000",
      "type": "0x0",
      "transactionHash": "0x2f0265dbd9eda53b3220a420ec94e026ba62529f729a59a3333e72edb0df3c4f",
      "transactionIndex": "0x1",
      "blockHash": "0xb47489a884431e225d6bab38d998ccfdc4f7e63b99957408b7464eeda65d8da1",
      "blockNumber": "0x2c79e26",
      "gasUsed": "0x1f1ee",
      "effectiveGasPrice": "0x174876e800",
      "from": "0xe62ab4d111f968660c6b2188046f9b9ba53c4bae",
      "to": "0x8b97e011a2f64f705c0a65706fb7bb968cb13d52",
      "contractAddress": null
    },
    {
      "status": "0x1",
      "cumulativeGasUsed": "0x270b1",
      "logs": [],
      "logsBloom": "0x00000000000000000000000000000000000000000000000000000000000000000000000000000000000000000000000000000000000000000000000000000000000000000000000000000000000000000000000000000000000000000000000000000000000000000000000000000000000000000000000000000000000000000000000000000000000000000000000000000000000000000000000000000000000000000000000000000000000000000000000000000000000000000000000000000000000000000000000000000000000000000000000000000000000000000000000000000000000000000000000000000000000000000000000000000000",
      "type": "0x0",
      "transactionHash": "0xc4ebc8335d7c67409d6d1f5f2a5df05fb78ec3a524a0655f89cab757eea1b108",
      "transactionIndex": "0x1",
      "blockHash": "0xa1eb73645017e6f025864c461b013aff7ff138ea69854ed984f4b277bba790b5",
      "blockNumber": "0x2c79e29",
      "gasUsed": "0x1ea5a",
      "effectiveGasPrice": "0x174876e800",
      "from": "0xe62ab4d111f968660c6b2188046f9b9ba53c4bae",
      "to": "0x8b97e011a2f64f705c0a65706fb7bb968cb13d52",
      "contractAddress": null
    },
    {
      "status": "0x1",
      "cumulativeGasUsed": "0x3e2a6",
      "logs": [],
      "logsBloom": "0x00000000000000000000000000000000000000000000000000000000000000000000000000000000000000000000000000000000000000000000000000000000000000000000000000000000000000000000000000000000000000000000000000000000000000000000000000000000000000000000000000000000000000000000000000000000000000000000000000000000000000000000000000000000000000000000000000000000000000000000000000000000000000000000000000000000000000000000000000000000000000000000000000000000000000000000000000000000000000000000000000000000000000000000000000000000",
      "type": "0x0",
      "transactionHash": "0x5978df15aae082987e50d72967754258b0b2b5fc652e619f4bc7c8c16a6d7992",
      "transactionIndex": "0x2",
      "blockHash": "0xe5e149b092a68babf978bcc5e69a2bf8ab302c8a1a53ac708d3d9aa7633c408e",
      "blockNumber": "0x2c79e2b",
      "gasUsed": "0x1f1ee",
      "effectiveGasPrice": "0x174876e800",
      "from": "0xe62ab4d111f968660c6b2188046f9b9ba53c4bae",
      "to": "0x8b97e011a2f64f705c0a65706fb7bb968cb13d52",
      "contractAddress": null
    },
    {
      "status": "0x1",
      "cumulativeGasUsed": "0x26f2d",
      "logs": [],
      "logsBloom": "0x00000000000000000000000000000000000000000000000000000000000000000000000000000000000000000000000000000000000000000000000000000000000000000000000000000000000000000000000000000000000000000000000000000000000000000000000000000000000000000000000000000000000000000000000000000000000000000000000000000000000000000000000000000000000000000000000000000000000000000000000000000000000000000000000000000000000000000000000000000000000000000000000000000000000000000000000000000000000000000000000000000000000000000000000000000000",
      "type": "0x0",
      "transactionHash": "0x02c5d4d907f67dc89ae001dc99a1d88a7e3a1af8f299e1cd0125c55a9d17d563",
      "transactionIndex": "0x1",
      "blockHash": "0x100ca9673a61b4aaaa33348c96c5b4d79bfb29cb65b5589e6fbecdc7e56bc1a7",
      "blockNumber": "0x2c79e2e",
      "gasUsed": "0x1e8d6",
      "effectiveGasPrice": "0x174876e800",
      "from": "0xe62ab4d111f968660c6b2188046f9b9ba53c4bae",
      "to": "0x8b97e011a2f64f705c0a65706fb7bb968cb13d52",
      "contractAddress": null
    },
    {
      "status": "0x1",
      "cumulativeGasUsed": "0x26f2d",
      "logs": [],
      "logsBloom": "0x00000000000000000000000000000000000000000000000000000000000000000000000000000000000000000000000000000000000000000000000000000000000000000000000000000000000000000000000000000000000000000000000000000000000000000000000000000000000000000000000000000000000000000000000000000000000000000000000000000000000000000000000000000000000000000000000000000000000000000000000000000000000000000000000000000000000000000000000000000000000000000000000000000000000000000000000000000000000000000000000000000000000000000000000000000000",
      "type": "0x0",
      "transactionHash": "0x71cfeefba466d2998005857a30e0d0c2289d8d8f623d7b90898e9304f6d1eb70",
      "transactionIndex": "0x1",
      "blockHash": "0x427f0a3e46d315958d46fdf0dc8066e73bf90890dd135fdc50800a51d6008b9a",
      "blockNumber": "0x2c79e30",
      "gasUsed": "0x1e8d6",
      "effectiveGasPrice": "0x174876e800",
      "from": "0xe62ab4d111f968660c6b2188046f9b9ba53c4bae",
      "to": "0x8b97e011a2f64f705c0a65706fb7bb968cb13d52",
      "contractAddress": null
    },
    {
      "status": "0x1",
      "cumulativeGasUsed": "0x1e8d6",
      "logs": [],
      "logsBloom": "0x00000000000000000000000000000000000000000000000000000000000000000000000000000000000000000000000000000000000000000000000000000000000000000000000000000000000000000000000000000000000000000000000000000000000000000000000000000000000000000000000000000000000000000000000000000000000000000000000000000000000000000000000000000000000000000000000000000000000000000000000000000000000000000000000000000000000000000000000000000000000000000000000000000000000000000000000000000000000000000000000000000000000000000000000000000000",
      "type": "0x0",
      "transactionHash": "0x927aa95a8c845ab8b2b30ab90075ccee8a606155d92a5471f025ae87e04728cd",
      "transactionIndex": "0x0",
      "blockHash": "0xfee377513fdf3565c1161ff3f6b332056096c3a973e0bf43b731fdbc8769f706",
      "blockNumber": "0x2c79e32",
      "gasUsed": "0x1e8d6",
      "effectiveGasPrice": "0x174876e800",
      "from": "0xe62ab4d111f968660c6b2188046f9b9ba53c4bae",
      "to": "0x8b97e011a2f64f705c0a65706fb7bb968cb13d52",
      "contractAddress": null
    },
    {
      "status": "0x1",
      "cumulativeGasUsed": "0x1ea5a",
      "logs": [],
      "logsBloom": "0x00000000000000000000000000000000000000000000000000000000000000000000000000000000000000000000000000000000000000000000000000000000000000000000000000000000000000000000000000000000000000000000000000000000000000000000000000000000000000000000000000000000000000000000000000000000000000000000000000000000000000000000000000000000000000000000000000000000000000000000000000000000000000000000000000000000000000000000000000000000000000000000000000000000000000000000000000000000000000000000000000000000000000000000000000000000",
      "type": "0x0",
      "transactionHash": "0xbe7c9532434f8b20bfd7cc76863b338b78143ef1dc30ffcf1dad5ed61d1b8c2d",
      "transactionIndex": "0x0",
      "blockHash": "0x8960fb4f27db1bffecf7c40cba4f3ffd2a1bca14dfaeb1e90dbb5d98ca07dc18",
      "blockNumber": "0x2c79e35",
      "gasUsed": "0x1ea5a",
      "effectiveGasPrice": "0x174876e800",
      "from": "0xe62ab4d111f968660c6b2188046f9b9ba53c4bae",
      "to": "0x8b97e011a2f64f705c0a65706fb7bb968cb13d52",
      "contractAddress": null
    },
    {
      "status": "0x1",
      "cumulativeGasUsed": "0x2395a",
      "logs": [],
      "logsBloom": "0x00000000000000000000000000000000000000000000000000000000000000000000000000000000000000000000000000000000000000000000000000000000000000000000000000000000000000000000000000000000000000000000000000000000000000000000000000000000000000000000000000000000000000000000000000000000000000000000000000000000000000000000000000000000000000000000000000000000000000000000000000000000000000000000000000000000000000000000000000000000000000000000000000000000000000000000000000000000000000000000000000000000000000000000000000000000",
      "type": "0x0",
      "transactionHash": "0xe5af534a3c47fb9268c01d70b8a09259b16100465c4da6462e416da4b160eba4",
      "transactionIndex": "0x1",
      "blockHash": "0x10afdb833557bfd81b6eb72397ccfc408d43c644267b9c1d8f231da0a9c7b99a",
      "blockNumber": "0x2c79e37",
      "gasUsed": "0x1e752",
      "effectiveGasPrice": "0x174876e800",
      "from": "0xe62ab4d111f968660c6b2188046f9b9ba53c4bae",
      "to": "0x8b97e011a2f64f705c0a65706fb7bb968cb13d52",
      "contractAddress": null
    },
    {
      "status": "0x1",
      "cumulativeGasUsed": "0x1ea5a",
      "logs": [],
      "logsBloom": "0x00000000000000000000000000000000000000000000000000000000000000000000000000000000000000000000000000000000000000000000000000000000000000000000000000000000000000000000000000000000000000000000000000000000000000000000000000000000000000000000000000000000000000000000000000000000000000000000000000000000000000000000000000000000000000000000000000000000000000000000000000000000000000000000000000000000000000000000000000000000000000000000000000000000000000000000000000000000000000000000000000000000000000000000000000000000",
      "type": "0x0",
      "transactionHash": "0x9aa89606215134ca681a37bf22fa77d9046c0d059bb2507c42c1ba427987cea2",
      "transactionIndex": "0x0",
      "blockHash": "0x4b2ab8b1de0e8bc49dee28e1efc3c5de6e4fd5c7dbe97d794dd70dd59b34834b",
      "blockNumber": "0x2c79e3a",
      "gasUsed": "0x1ea5a",
      "effectiveGasPrice": "0x174876e800",
      "from": "0xe62ab4d111f968660c6b2188046f9b9ba53c4bae",
      "to": "0x8b97e011a2f64f705c0a65706fb7bb968cb13d52",
      "contractAddress": null
    },
    {
      "status": "0x1",
      "cumulativeGasUsed": "0x1e752",
      "logs": [],
      "logsBloom": "0x00000000000000000000000000000000000000000000000000000000000000000000000000000000000000000000000000000000000000000000000000000000000000000000000000000000000000000000000000000000000000000000000000000000000000000000000000000000000000000000000000000000000000000000000000000000000000000000000000000000000000000000000000000000000000000000000000000000000000000000000000000000000000000000000000000000000000000000000000000000000000000000000000000000000000000000000000000000000000000000000000000000000000000000000000000000",
      "type": "0x0",
      "transactionHash": "0x03aa6ffccb27ccc49ab72c5c262d31d90ee140708c63ce54ee81dc2cdf023370",
      "transactionIndex": "0x0",
      "blockHash": "0xec893cb9f2923f1ccec7b50368c3fa358b70f2171bbfd7876acd46556b2ebe53",
      "blockNumber": "0x2c79e3c",
      "gasUsed": "0x1e752",
      "effectiveGasPrice": "0x174876e800",
      "from": "0xe62ab4d111f968660c6b2188046f9b9ba53c4bae",
      "to": "0x8b97e011a2f64f705c0a65706fb7bb968cb13d52",
      "contractAddress": null
    },
    {
      "status": "0x1",
      "cumulativeGasUsed": "0x1e5ce",
      "logs": [],
      "logsBloom": "0x00000000000000000000000000000000000000000000000000000000000000000000000000000000000000000000000000000000000000000000000000000000000000000000000000000000000000000000000000000000000000000000000000000000000000000000000000000000000000000000000000000000000000000000000000000000000000000000000000000000000000000000000000000000000000000000000000000000000000000000000000000000000000000000000000000000000000000000000000000000000000000000000000000000000000000000000000000000000000000000000000000000000000000000000000000000",
      "type": "0x0",
      "transactionHash": "0x81ba87bd12e47c167b2a2e299763f14d68561d3dabc940d872bf340dc0cf618d",
      "transactionIndex": "0x0",
      "blockHash": "0xa52d614f2c7fcf8e762766eb0a361e02a23464f913e2adfb6086ec3412031fde",
      "blockNumber": "0x2c79e3f",
      "gasUsed": "0x1e5ce",
      "effectiveGasPrice": "0x174876e800",
      "from": "0xe62ab4d111f968660c6b2188046f9b9ba53c4bae",
      "to": "0x8b97e011a2f64f705c0a65706fb7bb968cb13d52",
      "contractAddress": null
    },
    {
      "status": "0x1",
      "cumulativeGasUsed": "0x8a083",
      "logs": [],
      "logsBloom": "0x00000000000000000000000000000000000000000000000000000000000000000000000000000000000000000000000000000000000000000000000000000000000000000000000000000000000000000000000000000000000000000000000000000000000000000000000000000000000000000000000000000000000000000000000000000000000000000000000000000000000000000000000000000000000000000000000000000000000000000000000000000000000000000000000000000000000000000000000000000000000000000000000000000000000000000000000000000000000000000000000000000000000000000000000000000000",
      "type": "0x0",
      "transactionHash": "0x7f8488d1ae46ce6127c45c5dab58bbbe69e337ef51c4793f99289297ce10b923",
      "transactionIndex": "0x9",
      "blockHash": "0x1d9bd981bd6a47717e718efeac9ed8fa33341080c06f78587017560ce3b3bf57",
      "blockNumber": "0x2c79e41",
      "gasUsed": "0x1eee6",
      "effectiveGasPrice": "0x174876e800",
      "from": "0xe62ab4d111f968660c6b2188046f9b9ba53c4bae",
      "to": "0x8b97e011a2f64f705c0a65706fb7bb968cb13d52",
      "contractAddress": null
    },
    {
      "status": "0x1",
      "cumulativeGasUsed": "0x32c5ce",
      "logs": [],
      "logsBloom": "0x00000000000000000000000000000000000000000000000000000000000000000000000000000000000000000000000000000000000000000000000000000000000000000000000000000000000000000000000000000000000000000000000000000000000000000000000000000000000000000000000000000000000000000000000000000000000000000000000000000000000000000000000000000000000000000000000000000000000000000000000000000000000000000000000000000000000000000000000000000000000000000000000000000000000000000000000000000000000000000000000000000000000000000000000000000000",
      "type": "0x0",
      "transactionHash": "0xbcc06e6e6250407eefa00d2fe77612899e8e0514774104a8c525a7ecf47ed405",
      "transactionIndex": "0x0",
      "blockHash": "0x479f27e31239baa8cf8f8179dcc9ba7cc93c281b70a95d9e6d845efa13cf3127",
      "blockNumber": "0x2c79e44",
      "gasUsed": "0x32c5ce",
      "effectiveGasPrice": "0x174876e800",
      "from": "0xe62ab4d111f968660c6b2188046f9b9ba53c4bae",
      "to": "0xba08c3b81ed1a13e7a3457b6ab5dddba2df34df4",
      "contractAddress": null
    },
    {
      "status": "0x1",
      "cumulativeGasUsed": "0x3fd2e2",
      "logs": [],
      "logsBloom": "0x00000000000000000000000000000000000000000000000000000000000000000000000000000000000000000000000000000000000000000000000000000000000000000000000000000000000000000000000000000000000000000000000000000000000000000000000000000000000000000000000000000000000000000000000000000000000000000000000000000000000000000000000000000000000000000000000000000000000000000000000000000000000000000000000000000000000000000000000000000000000000000000000000000000000000000000000000000000000000000000000000000000000000000000000000000000",
      "type": "0x0",
      "transactionHash": "0xaaabc1098aeb7c844ba08dc3cab0356a54da5e9ba7ce466c112888de20695d97",
      "transactionIndex": "0x1",
      "blockHash": "0xdf027a7aba68b6066dfbb81a82fb78bf51e636e89d44aad2476c16fd02c56911",
      "blockNumber": "0x2c79e46",
      "gasUsed": "0x3f4c8b",
      "effectiveGasPrice": "0x174876e800",
      "from": "0xe62ab4d111f968660c6b2188046f9b9ba53c4bae",
      "to": "0xba08c3b81ed1a13e7a3457b6ab5dddba2df34df4",
      "contractAddress": null
    },
    {
      "status": "0x1",
      "cumulativeGasUsed": "0x37b64e",
      "logs": [],
      "logsBloom": "0x00000000000000000000000000000000000000000000000000000000000000000000000000000000000000000000000000000000000000000000000000000000000000000000000000000000000000000000000000000000000000000000000000000000000000000000000000000000000000000000000000000000000000000000000000000000000000000000000000000000000000000000000000000000000000000000000000000000000000000000000000000000000000000000000000000000000000000000000000000000000000000000000000000000000000000000000000000000000000000000000000000000000000000000000000000000",
      "type": "0x0",
      "transactionHash": "0xc7782e8e80ff15dd6acd594cc4d8f4922c41ac7b09ea1cd38dadd8c2065507fe",
      "transactionIndex": "0x2",
      "blockHash": "0xbe2c2c3d028ca458346e27067a828e83991a4364b4bbdc1255703e583eafc275",
      "blockNumber": "0x2c79e48",
      "gasUsed": "0x361646",
      "effectiveGasPrice": "0x174876e800",
      "from": "0xe62ab4d111f968660c6b2188046f9b9ba53c4bae",
      "to": "0xba08c3b81ed1a13e7a3457b6ab5dddba2df34df4",
      "contractAddress": null
    }
  ],
  "libraries": [],
  "pending": [],
  "returns": {},
  "timestamp": 1734631295,
  "chain": 97,
  "commit": "2746b202"
}