{
  "transactions": [
    {
      "hash": "0x4500c76c610280e41b31c877df8326bc905631c98babe1a2e975db8745d62482",
      "transactionType": "CALL",
      "contractName": null,
      "contractAddress": "0xf204b97dbbba1bed029bd13bef456d1a17da9bf9",
      "function": "getFeeTokenList()",
      "arguments": [],
      "transaction": {
        "from": "0xe62ab4d111f968660c6b2188046f9b9ba53c4bae",
        "to": "0xf204b97dbbba1bed029bd13bef456d1a17da9bf9",
        "gas": "0x8a7e",
        "value": "0x0",
        "input": "0xe28ab277",
        "nonce": "0x290",
        "chainId": "0x61"
      },
      "additionalContracts": [],
      "isFixedGasLimit": false
    },
    {
      "hash": "0x24c4f3dde6b3a8ffb6961b05a0a0700530dc11860722971b461c35736e29be9d",
      "transactionType": "CALL",
      "contractName": null,
      "contractAddress": "0xf204b97dbbba1bed029bd13bef456d1a17da9bf9",
      "function": "addFeeToken(string)",
      "arguments": [
        "0xdd43fc986a13392ddbc7aea150b41efe27b2d0ed"
      ],
      "transaction": {
        "from": "0xe62ab4d111f968660c6b2188046f9b9ba53c4bae",
        "to": "0xf204b97dbbba1bed029bd13bef456d1a17da9bf9",
        "gas": "0x26af2",
        "value": "0x0",
        "input": "0x12a6385f0000000000000000000000000000000000000000000000000000000000000020000000000000000000000000000000000000000000000000000000000000002a30786464343366633938366131333339326464626337616561313530623431656665323762326430656400000000000000000000000000000000000000000000",
        "nonce": "0x291",
        "chainId": "0x61"
      },
      "additionalContracts": [],
      "isFixedGasLimit": false
    },
    {
      "hash": "0xb6dd781c25a4f03b7cf5cdff9ba63321effadb5ba3f8593f6bc608907776bbd0",
      "transactionType": "CALL",
      "contractName": null,
      "contractAddress": "0xf204b97dbbba1bed029bd13bef456d1a17da9bf9",
      "function": "setFeeMultiplier(uint8,uint256)",
      "arguments": [
        "0",
        "2"
      ],
      "transaction": {
        "from": "0xe62ab4d111f968660c6b2188046f9b9ba53c4bae",
        "to": "0xf204b97dbbba1bed029bd13bef456d1a17da9bf9",
        "gas": "0x112e8",
        "value": "0x0",
        "input": "0x0ee24eb500000000000000000000000000000000000000000000000000000000000000000000000000000000000000000000000000000000000000000000000000000002",
        "nonce": "0x292",
        "chainId": "0x61"
      },
      "additionalContracts": [],
      "isFixedGasLimit": false
    },
    {
      "hash": "0x5a1aa4f89a52279007521a3e3fa2bc15af4744290c367ca0d0137b3aeb66598d",
      "transactionType": "CALL",
      "contractName": null,
      "contractAddress": "0xf204b97dbbba1bed029bd13bef456d1a17da9bf9",
      "function": "setFeeMultiplier(uint8,uint256)",
      "arguments": [
        "1",
        "10"
      ],
      "transaction": {
        "from": "0xe62ab4d111f968660c6b2188046f9b9ba53c4bae",
        "to": "0xf204b97dbbba1bed029bd13bef456d1a17da9bf9",
        "gas": "0x11324",
        "value": "0x0",
        "input": "0x0ee24eb50000000000000000000000000000000000000000000000000000000000000001000000000000000000000000000000000000000000000000000000000000000a",
        "nonce": "0x293",
        "chainId": "0x61"
      },
      "additionalContracts": [],
      "isFixedGasLimit": false
    },
    {
      "hash": "0x810f3418325f2e28d41e5398db504e76007f5b3e242d4f7bd4912fd654ccdf3a",
      "transactionType": "CALL",
      "contractName": null,
      "contractAddress": "0xf204b97dbbba1bed029bd13bef456d1a17da9bf9",
      "function": "setFeeMultiplier(uint8,uint256)",
      "arguments": [
        "2",
        "1"
      ],
      "transaction": {
        "from": "0xe62ab4d111f968660c6b2188046f9b9ba53c4bae",
        "to": "0xf204b97dbbba1bed029bd13bef456d1a17da9bf9",
        "gas": "0x11346",
        "value": "0x0",
        "input": "0x0ee24eb500000000000000000000000000000000000000000000000000000000000000020000000000000000000000000000000000000000000000000000000000000001",
        "nonce": "0x294",
        "chainId": "0x61"
      },
      "additionalContracts": [],
      "isFixedGasLimit": false
    },
    {
      "hash": "0x22f84f1df2b2be53f905083696c9af7d01a6c9c9843d6d64050e5ad7abb15838",
      "transactionType": "CALL",
      "contractName": null,
      "contractAddress": "0xf204b97dbbba1bed029bd13bef456d1a17da9bf9",
      "function": "setFeeMultiplier(uint8,uint256)",
      "arguments": [
        "3",
        "4"
      ],
      "transaction": {
        "from": "0xe62ab4d111f968660c6b2188046f9b9ba53c4bae",
        "to": "0xf204b97dbbba1bed029bd13bef456d1a17da9bf9",
        "gas": "0x1041b",
        "value": "0x0",
        "input": "0x0ee24eb500000000000000000000000000000000000000000000000000000000000000030000000000000000000000000000000000000000000000000000000000000004",
        "nonce": "0x295",
        "chainId": "0x61"
      },
      "additionalContracts": [],
      "isFixedGasLimit": false
    },
    {
      "hash": "0x5b27901be3c12674b44472ed49dffbc0aeb5775776c982fe3d89cde1fe2144f6",
      "transactionType": "CALL",
      "contractName": null,
      "contractAddress": "0xf204b97dbbba1bed029bd13bef456d1a17da9bf9",
      "function": "setFeeMultiplier(uint8,uint256)",
      "arguments": [
        "4",
        "4"
      ],
      "transaction": {
        "from": "0xe62ab4d111f968660c6b2188046f9b9ba53c4bae",
        "to": "0xf204b97dbbba1bed029bd13bef456d1a17da9bf9",
        "gas": "0x1043a",
        "value": "0x0",
        "input": "0x0ee24eb500000000000000000000000000000000000000000000000000000000000000040000000000000000000000000000000000000000000000000000000000000004",
        "nonce": "0x296",
        "chainId": "0x61"
      },
      "additionalContracts": [],
      "isFixedGasLimit": false
    },
    {
      "hash": "0x8716f25ccd3bbc60574c8e47b8ff5d81a6c48fa2ad242653e9ffd916eb89b730",
      "transactionType": "CALL",
      "contractName": null,
      "contractAddress": "0xf204b97dbbba1bed029bd13bef456d1a17da9bf9",
      "function": "setFeeMultiplier(uint8,uint256)",
      "arguments": [
        "5",
        "4"
      ],
      "transaction": {
        "from": "0xe62ab4d111f968660c6b2188046f9b9ba53c4bae",
        "to": "0xf204b97dbbba1bed029bd13bef456d1a17da9bf9",
        "gas": "0x10459",
        "value": "0x0",
        "input": "0x0ee24eb500000000000000000000000000000000000000000000000000000000000000050000000000000000000000000000000000000000000000000000000000000004",
        "nonce": "0x297",
        "chainId": "0x61"
      },
      "additionalContracts": [],
      "isFixedGasLimit": false
    },
    {
      "hash": "0x0888de065733b650aae631bd3c8c1d24e4af4058db90c53c0ed21d5f40a24f49",
      "transactionType": "CALL",
      "contractName": null,
      "contractAddress": "0xf204b97dbbba1bed029bd13bef456d1a17da9bf9",
      "function": "setFeeMultiplier(uint8,uint256)",
      "arguments": [
        "6",
        "8"
      ],
      "transaction": {
        "from": "0xe62ab4d111f968660c6b2188046f9b9ba53c4bae",
        "to": "0xf204b97dbbba1bed029bd13bef456d1a17da9bf9",
        "gas": "0x1047a",
        "value": "0x0",
        "input": "0x0ee24eb500000000000000000000000000000000000000000000000000000000000000060000000000000000000000000000000000000000000000000000000000000008",
        "nonce": "0x298",
        "chainId": "0x61"
      },
      "additionalContracts": [],
      "isFixedGasLimit": false
    },
    {
      "hash": "0x4fb116fdc97857c4e4c9046c4c15c833156d0ac4c31bc0904b07767a92f6b88e",
      "transactionType": "CALL",
      "contractName": null,
      "contractAddress": "0xf204b97dbbba1bed029bd13bef456d1a17da9bf9",
      "function": "setFeeMultiplier(uint8,uint256)",
      "arguments": [
        "7",
        "4"
      ],
      "transaction": {
        "from": "0xe62ab4d111f968660c6b2188046f9b9ba53c4bae",
        "to": "0xf204b97dbbba1bed029bd13bef456d1a17da9bf9",
        "gas": "0x10499",
        "value": "0x0",
        "input": "0x0ee24eb500000000000000000000000000000000000000000000000000000000000000070000000000000000000000000000000000000000000000000000000000000004",
        "nonce": "0x299",
        "chainId": "0x61"
      },
      "additionalContracts": [],
      "isFixedGasLimit": false
    },
    {
      "hash": "0xe1ce9a1b3c1ffabb8aa87ce571ac62ce7b8c6efd420a7fc5ff39d64ce0326970",
      "transactionType": "CALL",
      "contractName": null,
      "contractAddress": "0xf204b97dbbba1bed029bd13bef456d1a17da9bf9",
      "function": "setFeeMultiplier(uint8,uint256)",
      "arguments": [
        "8",
        "10"
      ],
      "transaction": {
        "from": "0xe62ab4d111f968660c6b2188046f9b9ba53c4bae",
        "to": "0xf204b97dbbba1bed029bd13bef456d1a17da9bf9",
        "gas": "0x1140f",
        "value": "0x0",
        "input": "0x0ee24eb50000000000000000000000000000000000000000000000000000000000000008000000000000000000000000000000000000000000000000000000000000000a",
        "nonce": "0x29a",
        "chainId": "0x61"
      },
      "additionalContracts": [],
      "isFixedGasLimit": false
    },
    {
      "hash": "0x807578dbe8ed52d471c97dcc0d2e04fa3d72a759fbb74d2298ea29de1388fa38",
      "transactionType": "CALL",
      "contractName": null,
      "contractAddress": "0xf204b97dbbba1bed029bd13bef456d1a17da9bf9",
      "function": "setFeeMultiplier(uint8,uint256)",
      "arguments": [
        "9",
        "8"
      ],
      "transaction": {
        "from": "0xe62ab4d111f968660c6b2188046f9b9ba53c4bae",
        "to": "0xf204b97dbbba1bed029bd13bef456d1a17da9bf9",
        "gas": "0x11431",
        "value": "0x0",
        "input": "0x0ee24eb500000000000000000000000000000000000000000000000000000000000000090000000000000000000000000000000000000000000000000000000000000008",
        "nonce": "0x29b",
        "chainId": "0x61"
      },
      "additionalContracts": [],
      "isFixedGasLimit": false
    },
    {
      "hash": "0xe13bc2b04a62250c71957885c4d2593c42907942d4a631c628b64ed8c9df0be8",
      "transactionType": "CALL",
      "contractName": null,
      "contractAddress": "0xf204b97dbbba1bed029bd13bef456d1a17da9bf9",
      "function": "setFeeMultiplier(uint8,uint256)",
      "arguments": [
        "10",
        "8"
      ],
      "transaction": {
        "from": "0xe62ab4d111f968660c6b2188046f9b9ba53c4bae",
        "to": "0xf204b97dbbba1bed029bd13bef456d1a17da9bf9",
        "gas": "0x11453",
        "value": "0x0",
        "input": "0x0ee24eb5000000000000000000000000000000000000000000000000000000000000000a0000000000000000000000000000000000000000000000000000000000000008",
        "nonce": "0x29c",
        "chainId": "0x61"
      },
      "additionalContracts": [],
      "isFixedGasLimit": false
    },
    {
      "hash": "0xb99dbc8104df455897540d5ac7756fe2143fe2a2d06b8b3b8d30f5c263c7fb76",
      "transactionType": "CALL",
      "contractName": null,
      "contractAddress": "0xf204b97dbbba1bed029bd13bef456d1a17da9bf9",
      "function": "setFeeMultiplier(uint8,uint256)",
      "arguments": [
        "11",
        "8"
      ],
      "transaction": {
        "from": "0xe62ab4d111f968660c6b2188046f9b9ba53c4bae",
        "to": "0xf204b97dbbba1bed029bd13bef456d1a17da9bf9",
        "gas": "0x10518",
        "value": "0x0",
        "input": "0x0ee24eb5000000000000000000000000000000000000000000000000000000000000000b0000000000000000000000000000000000000000000000000000000000000008",
        "nonce": "0x29d",
        "chainId": "0x61"
      },
      "additionalContracts": [],
      "isFixedGasLimit": false
    },
    {
      "hash": "0xfca104e2dc06985ea4ee474c9d8db3cfbcd545b69cc92450b4f40f45ca5aae5e",
      "transactionType": "CALL",
      "contractName": null,
      "contractAddress": "0xf204b97dbbba1bed029bd13bef456d1a17da9bf9",
      "function": "setFeeMultiplier(uint8,uint256)",
      "arguments": [
        "12",
        "20"
      ],
      "transaction": {
        "from": "0xe62ab4d111f968660c6b2188046f9b9ba53c4bae",
        "to": "0xf204b97dbbba1bed029bd13bef456d1a17da9bf9",
        "gas": "0x10538",
        "value": "0x0",
        "input": "0x0ee24eb5000000000000000000000000000000000000000000000000000000000000000c0000000000000000000000000000000000000000000000000000000000000014",
        "nonce": "0x29e",
        "chainId": "0x61"
      },
      "additionalContracts": [],
      "isFixedGasLimit": false
    },
    {
      "hash": "0xf5fcd2aed454f9577f59a80d6645188025818536d731ba3bb85fd855ddef0929",
      "transactionType": "CALL",
      "contractName": null,
      "contractAddress": "0xf204b97dbbba1bed029bd13bef456d1a17da9bf9",
      "function": "setFeeMultiplier(uint8,uint256)",
      "arguments": [
        "13",
        "8"
      ],
      "transaction": {
        "from": "0xe62ab4d111f968660c6b2188046f9b9ba53c4bae",
        "to": "0xf204b97dbbba1bed029bd13bef456d1a17da9bf9",
        "gas": "0x10558",
        "value": "0x0",
        "input": "0x0ee24eb5000000000000000000000000000000000000000000000000000000000000000d0000000000000000000000000000000000000000000000000000000000000008",
        "nonce": "0x29f",
        "chainId": "0x61"
      },
      "additionalContracts": [],
      "isFixedGasLimit": false
    },
    {
      "hash": "0x10df06ddbd4208640ee259271d231745788252f74ad5a47a99f5bde9524cff80",
      "transactionType": "CALL",
      "contractName": null,
      "contractAddress": "0xf204b97dbbba1bed029bd13bef456d1a17da9bf9",
      "function": "setFeeMultiplier(uint8,uint256)",
      "arguments": [
        "14",
        "4"
      ],
      "transaction": {
        "from": "0xe62ab4d111f968660c6b2188046f9b9ba53c4bae",
        "to": "0xf204b97dbbba1bed029bd13bef456d1a17da9bf9",
        "gas": "0x10577",
        "value": "0x0",
        "input": "0x0ee24eb5000000000000000000000000000000000000000000000000000000000000000e0000000000000000000000000000000000000000000000000000000000000004",
        "nonce": "0x2a0",
        "chainId": "0x61"
      },
      "additionalContracts": [],
      "isFixedGasLimit": false
    },
    {
      "hash": "0x41ce7302f326195deed10294e32fda63d07da018ec5266b519299e6f7e4f4c69",
      "transactionType": "CALL",
      "contractName": null,
      "contractAddress": "0xf204b97dbbba1bed029bd13bef456d1a17da9bf9",
      "function": "setFeeMultiplier(uint8,uint256)",
      "arguments": [
        "15",
        "4"
      ],
      "transaction": {
        "from": "0xe62ab4d111f968660c6b2188046f9b9ba53c4bae",
        "to": "0xf204b97dbbba1bed029bd13bef456d1a17da9bf9",
        "gas": "0x10598",
        "value": "0x0",
        "input": "0x0ee24eb5000000000000000000000000000000000000000000000000000000000000000f0000000000000000000000000000000000000000000000000000000000000004",
        "nonce": "0x2a1",
        "chainId": "0x61"
      },
      "additionalContracts": [],
      "isFixedGasLimit": false
    },
    {
      "hash": "0x448f0bf2da63ae0ca311641f7af26f7ed2cc0ea8de5cf57ad837e15590950125",
      "transactionType": "CALL",
      "contractName": null,
      "contractAddress": "0xf204b97dbbba1bed029bd13bef456d1a17da9bf9",
      "function": "setFeeMultiplier(uint8,uint256)",
      "arguments": [
        "16",
        "4"
      ],
      "transaction": {
        "from": "0xe62ab4d111f968660c6b2188046f9b9ba53c4bae",
        "to": "0xf204b97dbbba1bed029bd13bef456d1a17da9bf9",
        "gas": "0x1151d",
        "value": "0x0",
        "input": "0x0ee24eb500000000000000000000000000000000000000000000000000000000000000100000000000000000000000000000000000000000000000000000000000000004",
        "nonce": "0x2a2",
        "chainId": "0x61"
      },
      "additionalContracts": [],
      "isFixedGasLimit": false
    },
    {
      "hash": "0xb2ff3b557c6305d5d05b90a601d7d936b16c4e7257a6edb803905ecbfdea294d",
      "transactionType": "CALL",
      "contractName": null,
      "contractAddress": "0xf204b97dbbba1bed029bd13bef456d1a17da9bf9",
      "function": "setFeeMultiplier(uint8,uint256)",
      "arguments": [
        "17",
        "4"
      ],
      "transaction": {
        "from": "0xe62ab4d111f968660c6b2188046f9b9ba53c4bae",
        "to": "0xf204b97dbbba1bed029bd13bef456d1a17da9bf9",
        "gas": "0x1153e",
        "value": "0x0",
        "input": "0x0ee24eb500000000000000000000000000000000000000000000000000000000000000110000000000000000000000000000000000000000000000000000000000000004",
        "nonce": "0x2a3",
        "chainId": "0x61"
      },
      "additionalContracts": [],
      "isFixedGasLimit": false
    },
    {
      "hash": "0xa8dd67946d8e455d5e576f12b4dee54dc6f867d1848e4a90fafb97c189202c9c",
      "transactionType": "CALL",
      "contractName": null,
      "contractAddress": "0xf204b97dbbba1bed029bd13bef456d1a17da9bf9",
      "function": "setFeeMultiplier(uint8,uint256)",
      "arguments": [
        "18",
        "2"
      ],
      "transaction": {
        "from": "0xe62ab4d111f968660c6b2188046f9b9ba53c4bae",
        "to": "0xf204b97dbbba1bed029bd13bef456d1a17da9bf9",
        "gas": "0x11560",
        "value": "0x0",
        "input": "0x0ee24eb500000000000000000000000000000000000000000000000000000000000000120000000000000000000000000000000000000000000000000000000000000002",
        "nonce": "0x2a4",
        "chainId": "0x61"
      },
      "additionalContracts": [],
      "isFixedGasLimit": false
    },
    {
      "hash": "0x41698e3539e56b7916fa8361dd17fe24c3e22b351629afb558ea7a05f1dddc51",
      "transactionType": "CALL",
      "contractName": null,
      "contractAddress": "0xf204b97dbbba1bed029bd13bef456d1a17da9bf9",
      "function": "setFeeMultiplier(uint8,uint256)",
      "arguments": [
        "19",
        "2"
      ],
      "transaction": {
        "from": "0xe62ab4d111f968660c6b2188046f9b9ba53c4bae",
        "to": "0xf204b97dbbba1bed029bd13bef456d1a17da9bf9",
        "gas": "0x1157a",
        "value": "0x0",
        "input": "0x0ee24eb500000000000000000000000000000000000000000000000000000000000000130000000000000000000000000000000000000000000000000000000000000002",
        "nonce": "0x2a5",
        "chainId": "0x61"
      },
      "additionalContracts": [],
      "isFixedGasLimit": false
    },
    {
      "hash": "0x8ee570c10d6d8db1b052d793997b63b79dc555586cd0be232d763913159a0430",
      "transactionType": "CALL",
      "contractName": null,
      "contractAddress": "0xf204b97dbbba1bed029bd13bef456d1a17da9bf9",
      "function": "addFeeToken(string,string[],uint256[])",
      "arguments": [
        "421614",
        "[0xdd43fc986a13392ddbc7aea150b41efe27b2d0ed]",
        "[100]"
      ],
      "transaction": {
        "from": "0xe62ab4d111f968660c6b2188046f9b9ba53c4bae",
        "to": "0xf204b97dbbba1bed029bd13bef456d1a17da9bf9",
        "gas": "0x3259e",
        "value": "0x0",
        "input": "0x437bf84f000000000000000000000000000000000000000000000000000000000000006000000000000000000000000000000000000000000000000000000000000000a000000000000000000000000000000000000000000000000000000000000001400000000000000000000000000000000000000000000000000000000000000006343231363134000000000000000000000000000000000000000000000000000000000000000000000000000000000000000000000000000000000000000000010000000000000000000000000000000000000000000000000000000000000020000000000000000000000000000000000000000000000000000000000000002a3078646434336663393836613133333932646462633761656131353062343165666532376232643065640000000000000000000000000000000000000000000000000000000000000000000000000000000000000000000000000000000000010000000000000000000000000000000000000000000000000000000000000064",
        "nonce": "0x2a6",
        "chainId": "0x61"
      },
      "additionalContracts": [],
      "isFixedGasLimit": false
    },
    {
      "hash": "0xb25363aa3a836f543d059366230cfc67e9c64940f13bd6da13729cbad6ba4ada",
      "transactionType": "CALL",
      "contractName": null,
      "contractAddress": "0xf204b97dbbba1bed029bd13bef456d1a17da9bf9",
      "function": "addFeeToken(string,string[],uint256[])",
      "arguments": [
        "80002",
        "[0xdd43fc986a13392ddbc7aea150b41efe27b2d0ed]",
        "[100]"
      ],
      "transaction": {
        "from": "0xe62ab4d111f968660c6b2188046f9b9ba53c4bae",
        "to": "0xf204b97dbbba1bed029bd13bef456d1a17da9bf9",
        "gas": "0x2cd23",
        "value": "0x0",
        "input": "0x437bf84f000000000000000000000000000000000000000000000000000000000000006000000000000000000000000000000000000000000000000000000000000000a000000000000000000000000000000000000000000000000000000000000001400000000000000000000000000000000000000000000000000000000000000005383030303200000000000000000000000000000000000000000000000000000000000000000000000000000000000000000000000000000000000000000000010000000000000000000000000000000000000000000000000000000000000020000000000000000000000000000000000000000000000000000000000000002a3078646434336663393836613133333932646462633761656131353062343165666532376232643065640000000000000000000000000000000000000000000000000000000000000000000000000000000000000000000000000000000000010000000000000000000000000000000000000000000000000000000000000064",
        "nonce": "0x2a7",
        "chainId": "0x61"
      },
      "additionalContracts": [],
      "isFixedGasLimit": false
    },
    {
      "hash": "0x55667a10fb582f4103f825aa20016f76a66d184f39eae4cb9b189278fb0887f5",
      "transactionType": "CALL",
      "contractName": null,
      "contractAddress": "0xf204b97dbbba1bed029bd13bef456d1a17da9bf9",
      "function": "addFeeToken(string,string[],uint256[])",
      "arguments": [
        "84532",
        "[0xdd43fc986a13392ddbc7aea150b41efe27b2d0ed]",
        "[100]"
      ],
      "transaction": {
        "from": "0xe62ab4d111f968660c6b2188046f9b9ba53c4bae",
        "to": "0xf204b97dbbba1bed029bd13bef456d1a17da9bf9",
        "gas": "0x2cd23",
        "value": "0x0",
        "input": "0x437bf84f000000000000000000000000000000000000000000000000000000000000006000000000000000000000000000000000000000000000000000000000000000a000000000000000000000000000000000000000000000000000000000000001400000000000000000000000000000000000000000000000000000000000000005383435333200000000000000000000000000000000000000000000000000000000000000000000000000000000000000000000000000000000000000000000010000000000000000000000000000000000000000000000000000000000000020000000000000000000000000000000000000000000000000000000000000002a3078646434336663393836613133333932646462633761656131353062343165666532376232643065640000000000000000000000000000000000000000000000000000000000000000000000000000000000000000000000000000000000010000000000000000000000000000000000000000000000000000000000000064",
        "nonce": "0x2a8",
        "chainId": "0x61"
      },
      "additionalContracts": [],
      "isFixedGasLimit": false
    },
    {
      "hash": "0xb2c1aadd245f654ca25310999ca6638cee2c8b7dcd71e8383e0eac602b198398",
      "transactionType": "CALL",
      "contractName": null,
      "contractAddress": "0xf204b97dbbba1bed029bd13bef456d1a17da9bf9",
      "function": "addFeeToken(string,string[],uint256[])",
      "arguments": [
        "97",
        "[0xdd43fc986a13392ddbc7aea150b41efe27b2d0ed]",
        "[100]"
      ],
      "transaction": {
        "from": "0xe62ab4d111f968660c6b2188046f9b9ba53c4bae",
        "to": "0xf204b97dbbba1bed029bd13bef456d1a17da9bf9",
        "gas": "0x29f03",
        "value": "0x0",
        "input": "0x437bf84f000000000000000000000000000000000000000000000000000000000000006000000000000000000000000000000000000000000000000000000000000000a000000000000000000000000000000000000000000000000000000000000001400000000000000000000000000000000000000000000000000000000000000002393700000000000000000000000000000000000000000000000000000000000000000000000000000000000000000000000000000000000000000000000000010000000000000000000000000000000000000000000000000000000000000020000000000000000000000000000000000000000000000000000000000000002a3078646434336663393836613133333932646462633761656131353062343165666532376232643065640000000000000000000000000000000000000000000000000000000000000000000000000000000000000000000000000000000000010000000000000000000000000000000000000000000000000000000000000064",
        "nonce": "0x2a9",
        "chainId": "0x61"
      },
      "additionalContracts": [],
      "isFixedGasLimit": false
    },
    {
      "hash": "0x4f0b6b6b6db5729dd4a3964fe39c92d02cd42ba6d02c4062896969ac938b2c93",
      "transactionType": "CALL",
      "contractName": null,
      "contractAddress": "0xf204b97dbbba1bed029bd13bef456d1a17da9bf9",
      "function": "addFeeToken(string,string[],uint256[])",
      "arguments": [
        "11155111",
        "[0xdd43fc986a13392ddbc7aea150b41efe27b2d0ed]",
        "[100]"
      ],
      "transaction": {
        "from": "0xe62ab4d111f968660c6b2188046f9b9ba53c4bae",
        "to": "0xf204b97dbbba1bed029bd13bef456d1a17da9bf9",
        "gas": "0x2ab93",
        "value": "0x0",
        "input": "0x437bf84f000000000000000000000000000000000000000000000000000000000000006000000000000000000000000000000000000000000000000000000000000000a000000000000000000000000000000000000000000000000000000000000001400000000000000000000000000000000000000000000000000000000000000008313131353531313100000000000000000000000000000000000000000000000000000000000000000000000000000000000000000000000000000000000000010000000000000000000000000000000000000000000000000000000000000020000000000000000000000000000000000000000000000000000000000000002a3078646434336663393836613133333932646462633761656131353062343165666532376232643065640000000000000000000000000000000000000000000000000000000000000000000000000000000000000000000000000000000000010000000000000000000000000000000000000000000000000000000000000064",
        "nonce": "0x2aa",
        "chainId": "0x61"
      },
      "additionalContracts": [],
      "isFixedGasLimit": false
    },
    {
      "hash": "0xbdeec631d74522f8f882792ee5617f7cec91bd5aca27c55faa0b594ebfbea446",
      "transactionType": "CALL",
      "contractName": null,
      "contractAddress": "0x1392fc45312550197adf2039de80e8da58fc72a3",
      "function": "addChainContract(string[],string[])",
      "arguments": [
        "[421614, 80002, 84532, 11155111]",
        "[0x9b81c6a2a62eea2a814afdbb5d69ce0592e1c751, 0x1249d751e6a0b7b11b9e55cbf8bc7d397ac3c083, 0x2d1967ef42ecf9a42785d08398aadba806aa090b, 0xb07c3788549cd48ad1d4cb9b7336f7c9dd53d67f]"
      ],
      "transaction": {
        "from": "0xe62ab4d111f968660c6b2188046f9b9ba53c4bae",
        "to": "0x1392fc45312550197adf2039de80e8da58fc72a3",
        "gas": "0xaaf8b",
        "value": "0x0",
        "input": "0x013fd3bd000000000000000000000000000000000000000000000000000000000000004000000000000000000000000000000000000000000000000000000000000001e00000000000000000000000000000000000000000000000000000000000000004000000000000000000000000000000000000000000000000000000000000008000000000000000000000000000000000000000000000000000000000000000c000000000000000000000000000000000000000000000000000000000000001000000000000000000000000000000000000000000000000000000000000000140000000000000000000000000000000000000000000000000000000000000000634323136313400000000000000000000000000000000000000000000000000000000000000000000000000000000000000000000000000000000000000000005383030303200000000000000000000000000000000000000000000000000000000000000000000000000000000000000000000000000000000000000000000053834353332000000000000000000000000000000000000000000000000000000000000000000000000000000000000000000000000000000000000000000000831313135353131310000000000000000000000000000000000000000000000000000000000000000000000000000000000000000000000000000000000000004000000000000000000000000000000000000000000000000000000000000008000000000000000000000000000000000000000000000000000000000000000e0000000000000000000000000000000000000000000000000000000000000014000000000000000000000000000000000000000000000000000000000000001a0000000000000000000000000000000000000000000000000000000000000002a30783962383163366132613632656561326138313461666462623564363963653035393265316337353100000000000000000000000000000000000000000000000000000000000000000000000000000000000000000000000000000000002a30783132343964373531653661306237623131623965353563626638626337643339376163336330383300000000000000000000000000000000000000000000000000000000000000000000000000000000000000000000000000000000002a30783264313936376566343265636639613432373835643038333938616164626138303661613039306200000000000000000000000000000000000000000000000000000000000000000000000000000000000000000000000000000000002a30786230376333373838353439636434386164316434636239623733333666376339646435336436376600000000000000000000000000000000000000000000",
        "nonce": "0x2ab",
        "chainId": "0x61"
      },
      "additionalContracts": [],
      "isFixedGasLimit": false
    },
    {
      "hash": "0x19066293f76f91a1bc87cf4b9ad6a17c54039c9ced26d6eaab532ef86f264244",
      "transactionType": "CALL",
      "contractName": null,
      "contractAddress": "0x1392fc45312550197adf2039de80e8da58fc72a3",
      "function": "attachRWAX(uint256,uint256,string[],string[])",
      "arguments": [
        "1",
        "1",
        "[97, 421614, 80002, 84532, 11155111]",
        "[0xc5070659d0290f2eb2b1ed886f3f7574fde5c4be, 0xe0f1cd117107457bc14c2f1b82e218157c2a620c, 0x797aa64f83e4d17c2c6c80321f22445aab153630, 0xa09e913fa1aa5383a90ad6d8b94bc3dabee90332, 0x69d461e1314af5e3bcab39f0eba3872c5de2c1e5]"
      ],
      "transaction": {
        "from": "0xe62ab4d111f968660c6b2188046f9b9ba53c4bae",
        "to": "0x1392fc45312550197adf2039de80e8da58fc72a3",
        "gas": "0x1059c5",
        "value": "0x0",
        "input": "0x33a5f5b40000000000000000000000000000000000000000000000000000000000000001000000000000000000000000000000000000000000000000000000000000000100000000000000000000000000000000000000000000000000000000000000800000000000000000000000000000000000000000000000000000000000000280000000000000000000000000000000000000000000000000000000000000000500000000000000000000000000000000000000000000000000000000000000a000000000000000000000000000000000000000000000000000000000000000e00000000000000000000000000000000000000000000000000000000000000120000000000000000000000000000000000000000000000000000000000000016000000000000000000000000000000000000000000000000000000000000001a00000000000000000000000000000000000000000000000000000000000000002393700000000000000000000000000000000000000000000000000000000000000000000000000000000000000000000000000000000000000000000000000063432313631340000000000000000000000000000000000000000000000000000000000000000000000000000000000000000000000000000000000000000000538303030320000000000000000000000000000000000000000000000000000000000000000000000000000000000000000000000000000000000000000000005383435333200000000000000000000000000000000000000000000000000000000000000000000000000000000000000000000000000000000000000000000083131313535313131000000000000000000000000000000000000000000000000000000000000000000000000000000000000000000000000000000000000000500000000000000000000000000000000000000000000000000000000000000a00000000000000000000000000000000000000000000000000000000000000100000000000000000000000000000000000000000000000000000000000000016000000000000000000000000000000000000000000000000000000000000001c00000000000000000000000000000000000000000000000000000000000000220000000000000000000000000000000000000000000000000000000000000002a30786335303730363539643032393066326562326231656438383666336637353734666465356334626500000000000000000000000000000000000000000000000000000000000000000000000000000000000000000000000000000000002a30786530663163643131373130373435376263313463326631623832653231383135376332613632306300000000000000000000000000000000000000000000000000000000000000000000000000000000000000000000000000000000002a30783739376161363466383365346431376332633663383033323166323234343561616231353336333000000000000000000000000000000000000000000000000000000000000000000000000000000000000000000000000000000000002a30786130396539313366613161613533383361393061643664386239346263336461626565393033333200000000000000000000000000000000000000000000000000000000000000000000000000000000000000000000000000000000002a30783639643436316531333134616635653362636162333966306562613338373263356465326331653500000000000000000000000000000000000000000000",
        "nonce": "0x2ac",
        "chainId": "0x61"
      },
      "additionalContracts": [],
      "isFixedGasLimit": false
    },
    {
      "hash": "0x0f1bd96d3a2883306de102406a7a9e2199665a88a3bc09e7b5833871c8c7f67c",
      "transactionType": "CALL",
      "contractName": null,
      "contractAddress": "0x1392fc45312550197adf2039de80e8da58fc72a3",
      "function": "attachStorageManager(uint256,uint256,string[],string[])",
      "arguments": [
        "1",
        "1",
        "[97, 421614, 80002, 84532, 11155111]",
        "[0x8159be9135ecc4893826e40cf19047a79c523008, 0x78e9f16b42508a9bc0892bff922c09067de08fc5, 0xb406b937c12e03d676727fc1bb686279eedbc178, 0xa840a5ec6557df201a6a1561dbdc8ad6f3b3faf4, 0x8ee0aee8a42f55ed43f5e7db765fa591c4714c41]"
      ],
      "transaction": {
        "from": "0xe62ab4d111f968660c6b2188046f9b9ba53c4bae",
        "to": "0x1392fc45312550197adf2039de80e8da58fc72a3",
        "gas": "0xe3d34",
        "value": "0x0",
        "input": "0x2f68b4890000000000000000000000000000000000000000000000000000000000000001000000000000000000000000000000000000000000000000000000000000000100000000000000000000000000000000000000000000000000000000000000800000000000000000000000000000000000000000000000000000000000000280000000000000000000000000000000000000000000000000000000000000000500000000000000000000000000000000000000000000000000000000000000a000000000000000000000000000000000000000000000000000000000000000e00000000000000000000000000000000000000000000000000000000000000120000000000000000000000000000000000000000000000000000000000000016000000000000000000000000000000000000000000000000000000000000001a00000000000000000000000000000000000000000000000000000000000000002393700000000000000000000000000000000000000000000000000000000000000000000000000000000000000000000000000000000000000000000000000063432313631340000000000000000000000000000000000000000000000000000000000000000000000000000000000000000000000000000000000000000000538303030320000000000000000000000000000000000000000000000000000000000000000000000000000000000000000000000000000000000000000000005383435333200000000000000000000000000000000000000000000000000000000000000000000000000000000000000000000000000000000000000000000083131313535313131000000000000000000000000000000000000000000000000000000000000000000000000000000000000000000000000000000000000000500000000000000000000000000000000000000000000000000000000000000a00000000000000000000000000000000000000000000000000000000000000100000000000000000000000000000000000000000000000000000000000000016000000000000000000000000000000000000000000000000000000000000001c00000000000000000000000000000000000000000000000000000000000000220000000000000000000000000000000000000000000000000000000000000002a30783831353962653931333565636334383933383236653430636631393034376137396335323330303800000000000000000000000000000000000000000000000000000000000000000000000000000000000000000000000000000000002a30783738653966313662343235303861396263303839326266663932326330393036376465303866633500000000000000000000000000000000000000000000000000000000000000000000000000000000000000000000000000000000002a30786234303662393337633132653033643637363732376663316262363836323739656564626331373800000000000000000000000000000000000000000000000000000000000000000000000000000000000000000000000000000000002a30786138343061356563363535376466323031613661313536316462646338616436663362336661663400000000000000000000000000000000000000000000000000000000000000000000000000000000000000000000000000000000002a30783865653061656538613432663535656434336635653764623736356661353931633437313463343100000000000000000000000000000000000000000000",
        "nonce": "0x2ad",
        "chainId": "0x61"
      },
      "additionalContracts": [],
      "isFixedGasLimit": false
    }
  ],
  "receipts": [
    {
      "status": "0x1",
      "cumulativeGasUsed": "0x1cab2",
      "logs": [],
      "logsBloom": "0x00000000000000000000000000000000000000000000000000000000000000000000000000000000000000000000000000000000000000000000000000000000000000000000000000000000000000000000000000000000000000000000000000000000000000000000000000000000000000000000000000000000000000000000000000000000000000000000000000000000000000000000000000000000000000000000000000000000000000000000000000000000000000000000000000000000000000000000000000000000000000000000000000000000000000000000000000000000000000000000000000000000000000000000000000000000",
      "type": "0x0",
      "transactionHash": "0x4500c76c610280e41b31c877df8326bc905631c98babe1a2e975db8745d62482",
      "transactionIndex": "0x1",
      "blockHash": "0x179c3bc3981525731d2c0bab7739ceefa029654cdd45b4a48572e75956874beb",
      "blockNumber": "0x2be4ee9",
      "gasUsed": "0x5eb3",
      "effectiveGasPrice": "0x12a05f200",
      "from": "0xe62ab4d111f968660c6b2188046f9b9ba53c4bae",
      "to": "0xf204b97dbbba1bed029bd13bef456d1a17da9bf9",
      "contractAddress": null
    },
    {
      "status": "0x1",
      "cumulativeGasUsed": "0x2aab6",
      "logs": [
        {
          "address": "0xf204b97dbbba1bed029bd13bef456d1a17da9bf9",
          "topics": [
            "0x1394cfab38f3fc78ed77ea6f9318782a446d96e7dc8e9a6b0149f6be25c08bcf",
            "0x000000000000000000000000dd43fc986a13392ddbc7aea150b41efe27b2d0ed"
          ],
          "data": "0x",
          "blockHash": "0xf40dce8cc690f7d1f6d60b3b238de76a88a6567b43b79108c934b6a927a29c4e",
          "blockNumber": "0x2be4eeb",
          "transactionHash": "0x24c4f3dde6b3a8ffb6961b05a0a0700530dc11860722971b461c35736e29be9d",
          "transactionIndex": "0x1",
          "logIndex": "0x1",
          "removed": false
        }
      ],
      "logsBloom": "0x00000000000000000000000000000000000000000000000000000000000000000000000000000000000000000000000000000000000000000000000000000000000000004000000400000000001000000000001000000000000000000000000000000000000000000000000000000000000000000000000000000000000000000000000100000000000000000000000000000000000000000000000000000000000000000000000000000000000000000000000100000000000000000000000000000000000000000000000000000000000000000000000000000000000000000000000000010000000002000000000000000000000000000000000000000400",
      "type": "0x0",
      "transactionHash": "0x24c4f3dde6b3a8ffb6961b05a0a0700530dc11860722971b461c35736e29be9d",
      "transactionIndex": "0x1",
      "blockHash": "0xf40dce8cc690f7d1f6d60b3b238de76a88a6567b43b79108c934b6a927a29c4e",
      "blockNumber": "0x2be4eeb",
      "gasUsed": "0x1c01c",
      "effectiveGasPrice": "0x12a05f200",
      "from": "0xe62ab4d111f968660c6b2188046f9b9ba53c4bae",
      "to": "0xf204b97dbbba1bed029bd13bef456d1a17da9bf9",
      "contractAddress": null
    },
    {
      "status": "0x1",
      "cumulativeGasUsed": "0x14250",
      "logs": [],
      "logsBloom": "0x00000000000000000000000000000000000000000000000000000000000000000000000000000000000000000000000000000000000000000000000000000000000000000000000000000000000000000000000000000000000000000000000000000000000000000000000000000000000000000000000000000000000000000000000000000000000000000000000000000000000000000000000000000000000000000000000000000000000000000000000000000000000000000000000000000000000000000000000000000000000000000000000000000000000000000000000000000000000000000000000000000000000000000000000000000000",
      "type": "0x0",
      "transactionHash": "0xb6dd781c25a4f03b7cf5cdff9ba63321effadb5ba3f8593f6bc608907776bbd0",
      "transactionIndex": "0x1",
      "blockHash": "0xb58808a1c647610d71662d13425c60a0bb0a3e7cb9628f9a16e6c71d3acb0990",
      "blockNumber": "0x2be4eee",
      "gasUsed": "0xbbf9",
      "effectiveGasPrice": "0x12a05f200",
      "from": "0xe62ab4d111f968660c6b2188046f9b9ba53c4bae",
      "to": "0xf204b97dbbba1bed029bd13bef456d1a17da9bf9",
      "contractAddress": null
    },
    {
      "status": "0x1",
      "cumulativeGasUsed": "0x1c8d0",
      "logs": [],
      "logsBloom": "0x00000000000000000000000000000000000000000000000000000000000000000000000000000000000000000000000000000000000000000000000000000000000000000000000000000000000000000000000000000000000000000000000000000000000000000000000000000000000000000000000000000000000000000000000000000000000000000000000000000000000000000000000000000000000000000000000000000000000000000000000000000000000000000000000000000000000000000000000000000000000000000000000000000000000000000000000000000000000000000000000000000000000000000000000000000000",
      "type": "0x0",
      "transactionHash": "0x5a1aa4f89a52279007521a3e3fa2bc15af4744290c367ca0d0137b3aeb66598d",
      "transactionIndex": "0x2",
      "blockHash": "0xaffbda165ec1d31abdc5b625c681c1650e4b66e101f34f4a0af09baf8f59ca00",
      "blockNumber": "0x2be4ef1",
      "gasUsed": "0xbc22",
      "effectiveGasPrice": "0x12a05f200",
      "from": "0xe62ab4d111f968660c6b2188046f9b9ba53c4bae",
      "to": "0xf204b97dbbba1bed029bd13bef456d1a17da9bf9",
      "contractAddress": null
    },
    {
      "status": "0x1",
      "cumulativeGasUsed": "0x6f469",
      "logs": [],
      "logsBloom": "0x00000000000000000000000000000000000000000000000000000000000000000000000000000000000000000000000000000000000000000000000000000000000000000000000000000000000000000000000000000000000000000000000000000000000000000000000000000000000000000000000000000000000000000000000000000000000000000000000000000000000000000000000000000000000000000000000000000000000000000000000000000000000000000000000000000000000000000000000000000000000000000000000000000000000000000000000000000000000000000000000000000000000000000000000000000000",
      "type": "0x0",
      "transactionHash": "0x810f3418325f2e28d41e5398db504e76007f5b3e242d4f7bd4912fd654ccdf3a",
      "transactionIndex": "0x5",
      "blockHash": "0x45cfecde462df7288f82c797e9821da6c1c556f1deaaa82b75977b0863fb6579",
      "blockNumber": "0x2be4ef3",
      "gasUsed": "0xbc39",
      "effectiveGasPrice": "0x12a05f200",
      "from": "0xe62ab4d111f968660c6b2188046f9b9ba53c4bae",
      "to": "0xf204b97dbbba1bed029bd13bef456d1a17da9bf9",
      "contractAddress": null
    },
    {
      "status": "0x1",
      "cumulativeGasUsed": "0x5d21f",
      "logs": [],
      "logsBloom": "0x00000000000000000000000000000000000000000000000000000000000000000000000000000000000000000000000000000000000000000000000000000000000000000000000000000000000000000000000000000000000000000000000000000000000000000000000000000000000000000000000000000000000000000000000000000000000000000000000000000000000000000000000000000000000000000000000000000000000000000000000000000000000000000000000000000000000000000000000000000000000000000000000000000000000000000000000000000000000000000000000000000000000000000000000000000000",
      "type": "0x0",
      "transactionHash": "0x22f84f1df2b2be53f905083696c9af7d01a6c9c9843d6d64050e5ad7abb15838",
      "transactionIndex": "0x5",
      "blockHash": "0xdf51e38615f286e3c8f5b7165f8039ee229e5cbba7de9f6d2b831c37fdb9208f",
      "blockNumber": "0x2be4ef5",
      "gasUsed": "0xbc50",
      "effectiveGasPrice": "0x12a05f200",
      "from": "0xe62ab4d111f968660c6b2188046f9b9ba53c4bae",
      "to": "0xf204b97dbbba1bed029bd13bef456d1a17da9bf9",
      "contractAddress": null
    },
    {
      "status": "0x1",
      "cumulativeGasUsed": "0x1c915",
      "logs": [],
      "logsBloom": "0x00000000000000000000000000000000000000000000000000000000000000000000000000000000000000000000000000000000000000000000000000000000000000000000000000000000000000000000000000000000000000000000000000000000000000000000000000000000000000000000000000000000000000000000000000000000000000000000000000000000000000000000000000000000000000000000000000000000000000000000000000000000000000000000000000000000000000000000000000000000000000000000000000000000000000000000000000000000000000000000000000000000000000000000000000000000",
      "type": "0x0",
      "transactionHash": "0x5b27901be3c12674b44472ed49dffbc0aeb5775776c982fe3d89cde1fe2144f6",
      "transactionIndex": "0x2",
      "blockHash": "0xf6695ff60cbd396ac76994b2efcdf1bb3d433d26f0ad7dea020e31462c25d431",
      "blockNumber": "0x2be4ef8",
      "gasUsed": "0xbc67",
      "effectiveGasPrice": "0x12a05f200",
      "from": "0xe62ab4d111f968660c6b2188046f9b9ba53c4bae",
      "to": "0xf204b97dbbba1bed029bd13bef456d1a17da9bf9",
      "contractAddress": null
    },
    {
      "status": "0x1",
      "cumulativeGasUsed": "0x1c92c",
      "logs": [],
      "logsBloom": "0x00000000000000000000000000000000000000000000000000000000000000000000000000000000000000000000000000000000000000000000000000000000000000000000000000000000000000000000000000000000000000000000000000000000000000000000000000000000000000000000000000000000000000000000000000000000000000000000000000000000000000000000000000000000000000000000000000000000000000000000000000000000000000000000000000000000000000000000000000000000000000000000000000000000000000000000000000000000000000000000000000000000000000000000000000000000",
      "type": "0x0",
      "transactionHash": "0x8716f25ccd3bbc60574c8e47b8ff5d81a6c48fa2ad242653e9ffd916eb89b730",
      "transactionIndex": "0x2",
      "blockHash": "0x2769401e5d52295bbae3456aca418d631d1c77bcd7ac06a116f6a71e578eef63",
      "blockNumber": "0x2be4efa",
      "gasUsed": "0xbc7e",
      "effectiveGasPrice": "0x12a05f200",
      "from": "0xe62ab4d111f968660c6b2188046f9b9ba53c4bae",
      "to": "0xf204b97dbbba1bed029bd13bef456d1a17da9bf9",
      "contractAddress": null
    },
    {
      "status": "0x1",
      "cumulativeGasUsed": "0x142ec",
      "logs": [],
      "logsBloom": "0x00000000000000000000000000000000000000000000000000000000000000000000000000000000000000000000000000000000000000000000000000000000000000000000000000000000000000000000000000000000000000000000000000000000000000000000000000000000000000000000000000000000000000000000000000000000000000000000000000000000000000000000000000000000000000000000000000000000000000000000000000000000000000000000000000000000000000000000000000000000000000000000000000000000000000000000000000000000000000000000000000000000000000000000000000000000",
      "type": "0x0",
      "transactionHash": "0x0888de065733b650aae631bd3c8c1d24e4af4058db90c53c0ed21d5f40a24f49",
      "transactionIndex": "0x1",
      "blockHash": "0xb7bd2aaef3027e14cb2ac2acc9c9554108812773cabbbaad8975cd845cb7118b",
      "blockNumber": "0x2be4efd",
      "gasUsed": "0xbc95",
      "effectiveGasPrice": "0x12a05f200",
      "from": "0xe62ab4d111f968660c6b2188046f9b9ba53c4bae",
      "to": "0xf204b97dbbba1bed029bd13bef456d1a17da9bf9",
      "contractAddress": null
    },
    {
      "status": "0x1",
      "cumulativeGasUsed": "0x21b62",
      "logs": [],
      "logsBloom": "0x00000000000000000000000000000000000000000000000000000000000000000000000000000000000000000000000000000000000000000000000000000000000000000000000000000000000000000000000000000000000000000000000000000000000000000000000000000000000000000000000000000000000000000000000000000000000000000000000000000000000000000000000000000000000000000000000000000000000000000000000000000000000000000000000000000000000000000000000000000000000000000000000000000000000000000000000000000000000000000000000000000000000000000000000000000000",
      "type": "0x0",
      "transactionHash": "0x4fb116fdc97857c4e4c9046c4c15c833156d0ac4c31bc0904b07767a92f6b88e",
      "transactionIndex": "0x3",
      "blockHash": "0xc89d5728d1dc6732bea0f1ef4594f7d1f4d4b9834ab9a82ba0ed394549cc2b0f",
      "blockNumber": "0x2be4eff",
      "gasUsed": "0xbcac",
      "effectiveGasPrice": "0x12a05f200",
      "from": "0xe62ab4d111f968660c6b2188046f9b9ba53c4bae",
      "to": "0xf204b97dbbba1bed029bd13bef456d1a17da9bf9",
      "contractAddress": null
    },
    {
      "status": "0x1",
      "cumulativeGasUsed": "0x4def8",
      "logs": [],
      "logsBloom": "0x00000000000000000000000000000000000000000000000000000000000000000000000000000000000000000000000000000000000000000000000000000000000000000000000000000000000000000000000000000000000000000000000000000000000000000000000000000000000000000000000000000000000000000000000000000000000000000000000000000000000000000000000000000000000000000000000000000000000000000000000000000000000000000000000000000000000000000000000000000000000000000000000000000000000000000000000000000000000000000000000000000000000000000000000000000000",
      "type": "0x0",
      "transactionHash": "0xe1ce9a1b3c1ffabb8aa87ce571ac62ce7b8c6efd420a7fc5ff39d64ce0326970",
      "transactionIndex": "0x4",
      "blockHash": "0xd7c3edeec81606693b9cd455d64841b0d5cb0aa71d4ffa30869e92ed55d67d63",
      "blockNumber": "0x2be4f01",
      "gasUsed": "0xbcc3",
      "effectiveGasPrice": "0x12a05f200",
      "from": "0xe62ab4d111f968660c6b2188046f9b9ba53c4bae",
      "to": "0xf204b97dbbba1bed029bd13bef456d1a17da9bf9",
      "contractAddress": null
    },
    {
      "status": "0x1",
      "cumulativeGasUsed": "0x48a1f",
      "logs": [],
      "logsBloom": "0x00000000000000000000000000000000000000000000000000000000000000000000000000000000000000000000000000000000000000000000000000000000000000000000000000000000000000000000000000000000000000000000000000000000000000000000000000000000000000000000000000000000000000000000000000000000000000000000000000000000000000000000000000000000000000000000000000000000000000000000000000000000000000000000000000000000000000000000000000000000000000000000000000000000000000000000000000000000000000000000000000000000000000000000000000000000",
      "type": "0x0",
      "transactionHash": "0x807578dbe8ed52d471c97dcc0d2e04fa3d72a759fbb74d2298ea29de1388fa38",
      "transactionIndex": "0x4",
      "blockHash": "0x9c642ba8d5746175be1a87edcbea7096bffee330f5caa783fa9e3fbb5c30298e",
      "blockNumber": "0x2be4f04",
      "gasUsed": "0xbcda",
      "effectiveGasPrice": "0x12a05f200",
      "from": "0xe62ab4d111f968660c6b2188046f9b9ba53c4bae",
      "to": "0xf204b97dbbba1bed029bd13bef456d1a17da9bf9",
      "contractAddress": null
    },
    {
      "status": "0x1",
      "cumulativeGasUsed": "0x33400",
      "logs": [],
      "logsBloom": "0x00000000000000000000000000000000000000000000000000000000000000000000000000000000000000000000000000000000000000000000000000000000000000000000000000000000000000000000000000000000000000000000000000000000000000000000000000000000000000000000000000000000000000000000000000000000000000000000000000000000000000000000000000000000000000000000000000000000000000000000000000000000000000000000000000000000000000000000000000000000000000000000000000000000000000000000000000000000000000000000000000000000000000000000000000000000",
      "type": "0x0",
      "transactionHash": "0xe13bc2b04a62250c71957885c4d2593c42907942d4a631c628b64ed8c9df0be8",
      "transactionIndex": "0x3",
      "blockHash": "0x4b51c6ffcc13e6e32be8f5240145204ca8febf8f4ef13baf6df109c494570f5b",
      "blockNumber": "0x2be4f06",
      "gasUsed": "0xbcf1",
      "effectiveGasPrice": "0x12a05f200",
      "from": "0xe62ab4d111f968660c6b2188046f9b9ba53c4bae",
      "to": "0xf204b97dbbba1bed029bd13bef456d1a17da9bf9",
      "contractAddress": null
    },
    {
      "status": "0x1",
      "cumulativeGasUsed": "0x1435f",
      "logs": [],
      "logsBloom": "0x00000000000000000000000000000000000000000000000000000000000000000000000000000000000000000000000000000000000000000000000000000000000000000000000000000000000000000000000000000000000000000000000000000000000000000000000000000000000000000000000000000000000000000000000000000000000000000000000000000000000000000000000000000000000000000000000000000000000000000000000000000000000000000000000000000000000000000000000000000000000000000000000000000000000000000000000000000000000000000000000000000000000000000000000000000000",
      "type": "0x0",
      "transactionHash": "0xb99dbc8104df455897540d5ac7756fe2143fe2a2d06b8b3b8d30f5c263c7fb76",
      "transactionIndex": "0x1",
      "blockHash": "0xd128961823db0fcd355f45292b275dc7915b673d12f150c293af8107e7782e5a",
      "blockNumber": "0x2be4f09",
      "gasUsed": "0xbd08",
      "effectiveGasPrice": "0x12a05f200",
      "from": "0xe62ab4d111f968660c6b2188046f9b9ba53c4bae",
      "to": "0xf204b97dbbba1bed029bd13bef456d1a17da9bf9",
      "contractAddress": null
    },
    {
      "status": "0x1",
      "cumulativeGasUsed": "0x26622",
      "logs": [],
      "logsBloom": "0x00000000000000000000000000000000000000000000000000000000000000000000000000000000000000000000000000000000000000000000000000000000000000000000000000000000000000000000000000000000000000000000000000000000000000000000000000000000000000000000000000000000000000000000000000000000000000000000000000000000000000000000000000000000000000000000000000000000000000000000000000000000000000000000000000000000000000000000000000000000000000000000000000000000000000000000000000000000000000000000000000000000000000000000000000000000",
      "type": "0x0",
      "transactionHash": "0xfca104e2dc06985ea4ee474c9d8db3cfbcd545b69cc92450b4f40f45ca5aae5e",
      "transactionIndex": "0x3",
      "blockHash": "0x829f0058040a65de7d1ed676b42d4ca52ffbe6b3248a91834a0a9dc1c0998b87",
      "blockNumber": "0x2be4f0b",
      "gasUsed": "0xbd1f",
      "effectiveGasPrice": "0x12a05f200",
      "from": "0xe62ab4d111f968660c6b2188046f9b9ba53c4bae",
      "to": "0xf204b97dbbba1bed029bd13bef456d1a17da9bf9",
      "contractAddress": null
    },
    {
      "status": "0x1",
      "cumulativeGasUsed": "0xbd36",
      "logs": [],
      "logsBloom": "0x00000000000000000000000000000000000000000000000000000000000000000000000000000000000000000000000000000000000000000000000000000000000000000000000000000000000000000000000000000000000000000000000000000000000000000000000000000000000000000000000000000000000000000000000000000000000000000000000000000000000000000000000000000000000000000000000000000000000000000000000000000000000000000000000000000000000000000000000000000000000000000000000000000000000000000000000000000000000000000000000000000000000000000000000000000000",
      "type": "0x0",
      "transactionHash": "0xf5fcd2aed454f9577f59a80d6645188025818536d731ba3bb85fd855ddef0929",
      "transactionIndex": "0x0",
      "blockHash": "0xd0f04ea0e8925c1f01467adaf9345df79d8f93099971744def56e848291b7fbe",
      "blockNumber": "0x2be4f0e",
      "gasUsed": "0xbd36",
      "effectiveGasPrice": "0x12a05f200",
      "from": "0xe62ab4d111f968660c6b2188046f9b9ba53c4bae",
      "to": "0xf204b97dbbba1bed029bd13bef456d1a17da9bf9",
      "contractAddress": null
    },
    {
      "status": "0x1",
      "cumulativeGasUsed": "0x25bec",
      "logs": [],
      "logsBloom": "0x00000000000000000000000000000000000000000000000000000000000000000000000000000000000000000000000000000000000000000000000000000000000000000000000000000000000000000000000000000000000000000000000000000000000000000000000000000000000000000000000000000000000000000000000000000000000000000000000000000000000000000000000000000000000000000000000000000000000000000000000000000000000000000000000000000000000000000000000000000000000000000000000000000000000000000000000000000000000000000000000000000000000000000000000000000000",
      "type": "0x0",
      "transactionHash": "0x10df06ddbd4208640ee259271d231745788252f74ad5a47a99f5bde9524cff80",
      "transactionIndex": "0x1",
      "blockHash": "0xa3dc19c22a878b527303e74a79bfcebdb58555f70f6e44366cff9a0d6bf1adf9",
      "blockNumber": "0x2be4f10",
      "gasUsed": "0xbd4d",
      "effectiveGasPrice": "0x12a05f200",
      "from": "0xe62ab4d111f968660c6b2188046f9b9ba53c4bae",
      "to": "0xf204b97dbbba1bed029bd13bef456d1a17da9bf9",
      "contractAddress": null
    },
    {
      "status": "0x1",
      "cumulativeGasUsed": "0x10f6c",
      "logs": [],
      "logsBloom": "0x00000000000000000000000000000000000000000000000000000000000000000000000000000000000000000000000000000000000000000000000000000000000000000000000000000000000000000000000000000000000000000000000000000000000000000000000000000000000000000000000000000000000000000000000000000000000000000000000000000000000000000000000000000000000000000000000000000000000000000000000000000000000000000000000000000000000000000000000000000000000000000000000000000000000000000000000000000000000000000000000000000000000000000000000000000000",
      "type": "0x0",
      "transactionHash": "0x41ce7302f326195deed10294e32fda63d07da018ec5266b519299e6f7e4f4c69",
      "transactionIndex": "0x1",
      "blockHash": "0xa1709a89b7876a8027f98d038a30cf1ee5381aade18b53e3ed7d7b4ae66845dd",
      "blockNumber": "0x2be4f13",
      "gasUsed": "0xbd64",
      "effectiveGasPrice": "0x12a05f200",
      "from": "0xe62ab4d111f968660c6b2188046f9b9ba53c4bae",
      "to": "0xf204b97dbbba1bed029bd13bef456d1a17da9bf9",
      "contractAddress": null
    },
    {
      "status": "0x1",
      "cumulativeGasUsed": "0x17268",
      "logs": [],
      "logsBloom": "0x00000000000000000000000000000000000000000000000000000000000000000000000000000000000000000000000000000000000000000000000000000000000000000000000000000000000000000000000000000000000000000000000000000000000000000000000000000000000000000000000000000000000000000000000000000000000000000000000000000000000000000000000000000000000000000000000000000000000000000000000000000000000000000000000000000000000000000000000000000000000000000000000000000000000000000000000000000000000000000000000000000000000000000000000000000000",
      "type": "0x0",
      "transactionHash": "0x448f0bf2da63ae0ca311641f7af26f7ed2cc0ea8de5cf57ad837e15590950125",
      "transactionIndex": "0x2",
      "blockHash": "0x9f97e6666b5a9d931e6db22848e5dd13b79bdfd37bae4a805fd3bd50881f4d35",
      "blockNumber": "0x2be4f15",
      "gasUsed": "0xbd7b",
      "effectiveGasPrice": "0x12a05f200",
      "from": "0xe62ab4d111f968660c6b2188046f9b9ba53c4bae",
      "to": "0xf204b97dbbba1bed029bd13bef456d1a17da9bf9",
      "contractAddress": null
    },
    {
      "status": "0x1",
      "cumulativeGasUsed": "0x3fa08",
      "logs": [],
      "logsBloom": "0x00000000000000000000000000000000000000000000000000000000000000000000000000000000000000000000000000000000000000000000000000000000000000000000000000000000000000000000000000000000000000000000000000000000000000000000000000000000000000000000000000000000000000000000000000000000000000000000000000000000000000000000000000000000000000000000000000000000000000000000000000000000000000000000000000000000000000000000000000000000000000000000000000000000000000000000000000000000000000000000000000000000000000000000000000000000",
      "type": "0x0",
      "transactionHash": "0xb2ff3b557c6305d5d05b90a601d7d936b16c4e7257a6edb803905ecbfdea294d",
      "transactionIndex": "0x3",
      "blockHash": "0x13714954ef5ccd0a796bfd011edf2f4d4a764d7ce3c21733768eb143c717d66b",
      "blockNumber": "0x2be4f17",
      "gasUsed": "0xbd92",
      "effectiveGasPrice": "0x12a05f200",
      "from": "0xe62ab4d111f968660c6b2188046f9b9ba53c4bae",
      "to": "0xf204b97dbbba1bed029bd13bef456d1a17da9bf9",
      "contractAddress": null
    },
    {
      "status": "0x1",
      "cumulativeGasUsed": "0x10fb1",
      "logs": [],
      "logsBloom": "0x00000000000000000000000000000000000000000000000000000000000000000000000000000000000000000000000000000000000000000000000000000000000000000000000000000000000000000000000000000000000000000000000000000000000000000000000000000000000000000000000000000000000000000000000000000000000000000000000000000000000000000000000000000000000000000000000000000000000000000000000000000000000000000000000000000000000000000000000000000000000000000000000000000000000000000000000000000000000000000000000000000000000000000000000000000000",
      "type": "0x0",
      "transactionHash": "0xa8dd67946d8e455d5e576f12b4dee54dc6f867d1848e4a90fafb97c189202c9c",
      "transactionIndex": "0x1",
      "blockHash": "0xa29df18cdc47dff01e1b28c332ac63f06ee5bb346d16eea8e5dcd8f4ebfe270d",
      "blockNumber": "0x2be4f1a",
      "gasUsed": "0xbda9",
      "effectiveGasPrice": "0x12a05f200",
      "from": "0xe62ab4d111f968660c6b2188046f9b9ba53c4bae",
      "to": "0xf204b97dbbba1bed029bd13bef456d1a17da9bf9",
      "contractAddress": null
    },
    {
      "status": "0x1",
      "cumulativeGasUsed": "0x5d52a",
      "logs": [],
      "logsBloom": "0x00000000000000000000000000000000000000000000000000000000000000000000000000000000000000000000000000000000000000000000000000000000000000000000000000000000000000000000000000000000000000000000000000000000000000000000000000000000000000000000000000000000000000000000000000000000000000000000000000000000000000000000000000000000000000000000000000000000000000000000000000000000000000000000000000000000000000000000000000000000000000000000000000000000000000000000000000000000000000000000000000000000000000000000000000000000",
      "type": "0x0",
      "transactionHash": "0x41698e3539e56b7916fa8361dd17fe24c3e22b351629afb558ea7a05f1dddc51",
      "transactionIndex": "0x3",
      "blockHash": "0x1bc5c1617ad42573343fdacde80db09575aa0250a61251b905126547b4f1e35b",
      "blockNumber": "0x2be4f1c",
      "gasUsed": "0xbdbb",
      "effectiveGasPrice": "0x12a05f200",
      "from": "0xe62ab4d111f968660c6b2188046f9b9ba53c4bae",
      "to": "0xf204b97dbbba1bed029bd13bef456d1a17da9bf9",
      "contractAddress": null
    },
    {
      "status": "0x1",
      "cumulativeGasUsed": "0x2dbc7",
      "logs": [],
      "logsBloom": "0x00000000000000000000000000000000000000000000000000000000000000000000000000000000000000000000000000000000000000000000000000000000000000000000000000000000000000000000000000000000000000000000000000000000000000000000000000000000000000000000000000000000000000000000000000000000000000000000000000000000000000000000000000000000000000000000000000000000000000000000000000000000000000000000000000000000000000000000000000000000000000000000000000000000000000000000000000000000000000000000000000000000000000000000000000000000",
      "type": "0x0",
      "transactionHash": "0x8ee570c10d6d8db1b052d793997b63b79dc555586cd0be232d763913159a0430",
      "transactionIndex": "0x2",
      "blockHash": "0x3bd70923e0137ed67a53a43711edb4463d550891a3fe18d9085292344fea512f",
      "blockNumber": "0x2be4f1f",
      "gasUsed": "0x226da",
      "effectiveGasPrice": "0x12a05f200",
      "from": "0xe62ab4d111f968660c6b2188046f9b9ba53c4bae",
      "to": "0xf204b97dbbba1bed029bd13bef456d1a17da9bf9",
      "contractAddress": null
    },
    {
      "status": "0x1",
      "cumulativeGasUsed": "0x23c62",
      "logs": [],
      "logsBloom": "0x00000000000000000000000000000000000000000000000000000000000000000000000000000000000000000000000000000000000000000000000000000000000000000000000000000000000000000000000000000000000000000000000000000000000000000000000000000000000000000000000000000000000000000000000000000000000000000000000000000000000000000000000000000000000000000000000000000000000000000000000000000000000000000000000000000000000000000000000000000000000000000000000000000000000000000000000000000000000000000000000000000000000000000000000000000000",
      "type": "0x0",
      "transactionHash": "0xb25363aa3a836f543d059366230cfc67e9c64940f13bd6da13729cbad6ba4ada",
      "transactionIndex": "0x1",
      "blockHash": "0xf9c98bf616a87b677cd4ebf3dc8b6c5006f5a0d47a5b29bdb2153d396664a488",
      "blockNumber": "0x2be4f21",
      "gasUsed": "0x1ea5a",
      "effectiveGasPrice": "0x12a05f200",
      "from": "0xe62ab4d111f968660c6b2188046f9b9ba53c4bae",
      "to": "0xf204b97dbbba1bed029bd13bef456d1a17da9bf9",
      "contractAddress": null
    },
    {
      "status": "0x1",
      "cumulativeGasUsed": "0x52a6f",
      "logs": [],
      "logsBloom": "0x00000000000000000000000000000000000000000000000000000000000000000000000000000000000000000000000000000000000000000000000000000000000000000000000000000000000000000000000000000000000000000000000000000000000000000000000000000000000000000000000000000000000000000000000000000000000000000000000000000000000000000000000000000000000000000000000000000000000000000000000000000000000000000000000000000000000000000000000000000000000000000000000000000000000000000000000000000000000000000000000000000000000000000000000000000000",
      "type": "0x0",
      "transactionHash": "0x55667a10fb582f4103f825aa20016f76a66d184f39eae4cb9b189278fb0887f5",
      "transactionIndex": "0x2",
      "blockHash": "0x71b5713d7f5aed07ef63f28d96e40672ac6f33fee8bbe55f1a0394b2f53e6bab",
      "blockNumber": "0x2be4f23",
      "gasUsed": "0x1ea5a",
      "effectiveGasPrice": "0x12a05f200",
      "from": "0xe62ab4d111f968660c6b2188046f9b9ba53c4bae",
      "to": "0xf204b97dbbba1bed029bd13bef456d1a17da9bf9",
      "contractAddress": null
    },
    {
      "status": "0x1",
      "cumulativeGasUsed": "0x27f3c",
      "logs": [],
      "logsBloom": "0x00000000000000000000000000000000000000000000000000000000000000000000000000000000000000000000000000000000000000000000000000000000000000000000000000000000000000000000000000000000000000000000000000000000000000000000000000000000000000000000000000000000000000000000000000000000000000000000000000000000000000000000000000000000000000000000000000000000000000000000000000000000000000000000000000000000000000000000000000000000000000000000000000000000000000000000000000000000000000000000000000000000000000000000000000000000",
      "type": "0x0",
      "transactionHash": "0xb2c1aadd245f654ca25310999ca6638cee2c8b7dcd71e8383e0eac602b198398",
      "transactionIndex": "0x1",
      "blockHash": "0xa7243df87f0f3179b47f116b91c697d6234339220a1ed0e467811c805d6edde8",
      "blockNumber": "0x2be4f26",
      "gasUsed": "0x1e5ce",
      "effectiveGasPrice": "0x12a05f200",
      "from": "0xe62ab4d111f968660c6b2188046f9b9ba53c4bae",
      "to": "0xf204b97dbbba1bed029bd13bef456d1a17da9bf9",
      "contractAddress": null
    },
    {
      "status": "0x1",
      "cumulativeGasUsed": "0x2a716",
      "logs": [],
      "logsBloom": "0x00000000000000000000000000000000000000000000000000000000000000000000000000000000000000000000000000000000000000000000000000000000000000000000000000000000000000000000000000000000000000000000000000000000000000000000000000000000000000000000000000000000000000000000000000000000000000000000000000000000000000000000000000000000000000000000000000000000000000000000000000000000000000000000000000000000000000000000000000000000000000000000000000000000000000000000000000000000000000000000000000000000000000000000000000000000",
      "type": "0x0",
      "transactionHash": "0x4f0b6b6b6db5729dd4a3964fe39c92d02cd42ba6d02c4062896969ac938b2c93",
      "transactionIndex": "0x1",
      "blockHash": "0xf4690f86265208bc35564bc16dd333964832e6119a67611ecc27c26cf35b95e0",
      "blockNumber": "0x2be4f28",
      "gasUsed": "0x1eee6",
      "effectiveGasPrice": "0x12a05f200",
      "from": "0xe62ab4d111f968660c6b2188046f9b9ba53c4bae",
      "to": "0xf204b97dbbba1bed029bd13bef456d1a17da9bf9",
      "contractAddress": null
    },
    {
      "status": "0x1",
      "cumulativeGasUsed": "0x8f91f",
      "logs": [],
      "logsBloom": "0x00000000000000000000000000000000000000000000000000000000000000000000000000000000000000000000000000000000000000000000000000000000000000000000000000000000000000000000000000000000000000000000000000000000000000000000000000000000000000000000000000000000000000000000000000000000000000000000000000000000000000000000000000000000000000000000000000000000000000000000000000000000000000000000000000000000000000000000000000000000000000000000000000000000000000000000000000000000000000000000000000000000000000000000000000000000",
      "type": "0x0",
      "transactionHash": "0xbdeec631d74522f8f882792ee5617f7cec91bd5aca27c55faa0b594ebfbea446",
      "transactionIndex": "0x2",
      "blockHash": "0x112721e4845d285f1c1db54c4a02566766c3cd56651f1dcb04ceda175dbbac58",
      "blockNumber": "0x2be4f2b",
      "gasUsed": "0x7bc7d",
      "effectiveGasPrice": "0x12a05f200",
      "from": "0xe62ab4d111f968660c6b2188046f9b9ba53c4bae",
      "to": "0x1392fc45312550197adf2039de80e8da58fc72a3",
      "contractAddress": null
    },
    {
      "status": "0x1",
      "cumulativeGasUsed": "0xce076",
      "logs": [],
      "logsBloom": "0x00000000000000000000000000000000000000000000000000000000000000000000000000000000000000000000000000000000000000000000000000000000000000000000000000000000000000000000000000000000000000000000000000000000000000000000000000000000000000000000000000000000000000000000000000000000000000000000000000000000000000000000000000000000000000000000000000000000000000000000000000000000000000000000000000000000000000000000000000000000000000000000000000000000000000000000000000000000000000000000000000000000000000000000000000000000",
      "type": "0x0",
      "transactionHash": "0x19066293f76f91a1bc87cf4b9ad6a17c54039c9ced26d6eaab532ef86f264244",
      "transactionIndex": "0x2",
      "blockHash": "0x5a74062b0f6f0679763f5352b61fb6855bb5fc1b176cd617720ef17bb4ecb9af",
      "blockNumber": "0x2be4f2d",
      "gasUsed": "0xbd66d",
      "effectiveGasPrice": "0x12a05f200",
      "from": "0xe62ab4d111f968660c6b2188046f9b9ba53c4bae",
      "to": "0x1392fc45312550197adf2039de80e8da58fc72a3",
      "contractAddress": null
    },
    {
      "status": "0x1",
      "cumulativeGasUsed": "0x181228",
      "logs": [],
      "logsBloom": "0x00000000000000000000000000000000000000000000000000000000000000000000000000000000000000000000000000000000000000000000000000000000000000000000000000000000000000000000000000000000000000000000000000000000000000000000000000000000000000000000000000000000000000000000000000000000000000000000000000000000000000000000000000000000000000000000000000000000000000000000000000000000000000000000000000000000000000000000000000000000000000000000000000000000000000000000000000000000000000000000000000000000000000000000000000000000",
      "type": "0x0",
      "transactionHash": "0x0f1bd96d3a2883306de102406a7a9e2199665a88a3bc09e7b5833871c8c7f67c",
      "transactionIndex": "0x1",
      "blockHash": "0x5a18b9017fd481517280086c0b8e89ae02a52227a7eaa918fbbdad82865fbfb5",
      "blockNumber": "0x2be4f30",
      "gasUsed": "0x9bc73",
      "effectiveGasPrice": "0x12a05f200",
      "from": "0xe62ab4d111f968660c6b2188046f9b9ba53c4bae",
      "to": "0x1392fc45312550197adf2039de80e8da58fc72a3",
      "contractAddress": null
    }
  ],
  "libraries": [],
  "pending": [],
  "returns": {},
  "timestamp": 1732800795,
  "chain": 97,
  "commit": "9c84b963"
}