{
  "transactions": [
    {
      "hash": "0x9582107648ed1eb8829d6573df39e0c55f8b48474359a75656956fad124e6bf9",
      "transactionType": "CALL",
      "contractName": null,
      "contractAddress": "0x41543a4c6423e2546fc58ac63117b5692d68c323",
      "function": "getFeeTokenList()",
      "arguments": [],
      "transaction": {
        "from": "0xe62ab4d111f968660c6b2188046f9b9ba53c4bae",
        "to": "0x41543a4c6423e2546fc58ac63117b5692d68c323",
        "gas": "0x8a7e",
        "value": "0x0",
        "input": "0xe28ab277",
        "nonce": "0x172",
        "chainId": "0x61"
      },
      "additionalContracts": [],
      "isFixedGasLimit": false
    },
    {
      "hash": "0xd1e82772532e68a2084eb10ea40e1b285dccfc2cda6222ec2d530b65a0f89589",
      "transactionType": "CALL",
      "contractName": null,
      "contractAddress": "0x41543a4c6423e2546fc58ac63117b5692d68c323",
      "function": "addFeeToken(string)",
      "arguments": [
        "0xdd43fc986a13392ddbc7aea150b41efe27b2d0ed"
      ],
      "transaction": {
        "from": "0xe62ab4d111f968660c6b2188046f9b9ba53c4bae",
        "to": "0x41543a4c6423e2546fc58ac63117b5692d68c323",
        "gas": "0x26af2",
        "value": "0x0",
        "input": "0x12a6385f0000000000000000000000000000000000000000000000000000000000000020000000000000000000000000000000000000000000000000000000000000002a30786464343366633938366131333339326464626337616561313530623431656665323762326430656400000000000000000000000000000000000000000000",
        "nonce": "0x173",
        "chainId": "0x61"
      },
      "additionalContracts": [],
      "isFixedGasLimit": false
    },
    {
      "hash": "0x7a312e24de5c3f2938dfb6fc18847497fca350a5c8778a47b2a15394e0d105a1",
      "transactionType": "CALL",
      "contractName": null,
      "contractAddress": "0x41543a4c6423e2546fc58ac63117b5692d68c323",
      "function": "setFeeMultiplier(uint8,uint256)",
      "arguments": [
        "0",
        "2"
      ],
      "transaction": {
        "from": "0xe62ab4d111f968660c6b2188046f9b9ba53c4bae",
        "to": "0x41543a4c6423e2546fc58ac63117b5692d68c323",
        "gas": "0x112e8",
        "value": "0x0",
        "input": "0x0ee24eb500000000000000000000000000000000000000000000000000000000000000000000000000000000000000000000000000000000000000000000000000000002",
        "nonce": "0x174",
        "chainId": "0x61"
      },
      "additionalContracts": [],
      "isFixedGasLimit": false
    },
    {
      "hash": "0xb9c4a42a3411b9032b7cc054066196af07ae4dd9a55b83990e0c6e487f6470f9",
      "transactionType": "CALL",
      "contractName": null,
      "contractAddress": "0x41543a4c6423e2546fc58ac63117b5692d68c323",
      "function": "setFeeMultiplier(uint8,uint256)",
      "arguments": [
        "1",
        "10"
      ],
      "transaction": {
        "from": "0xe62ab4d111f968660c6b2188046f9b9ba53c4bae",
        "to": "0x41543a4c6423e2546fc58ac63117b5692d68c323",
        "gas": "0x103d2",
        "value": "0x0",
        "input": "0x0ee24eb50000000000000000000000000000000000000000000000000000000000000001000000000000000000000000000000000000000000000000000000000000000a",
        "nonce": "0x175",
        "chainId": "0x61"
      },
      "additionalContracts": [],
      "isFixedGasLimit": false
    },
    {
      "hash": "0xf29889bcd594eb7bc159a6e2273d433efef278fb427ac9818a85cb5a674ec19b",
      "transactionType": "CALL",
      "contractName": null,
      "contractAddress": "0x41543a4c6423e2546fc58ac63117b5692d68c323",
      "function": "setFeeMultiplier(uint8,uint256)",
      "arguments": [
        "2",
        "1"
      ],
      "transaction": {
        "from": "0xe62ab4d111f968660c6b2188046f9b9ba53c4bae",
        "to": "0x41543a4c6423e2546fc58ac63117b5692d68c323",
        "gas": "0x1133d",
        "value": "0x0",
        "input": "0x0ee24eb500000000000000000000000000000000000000000000000000000000000000020000000000000000000000000000000000000000000000000000000000000001",
        "nonce": "0x176",
        "chainId": "0x61"
      },
      "additionalContracts": [],
      "isFixedGasLimit": false
    },
    {
      "hash": "0xb7403cadbdf3e917f2a764b51efde8e5ba74bd973f43637055f54f05e4c0243a",
      "transactionType": "CALL",
      "contractName": null,
      "contractAddress": "0x41543a4c6423e2546fc58ac63117b5692d68c323",
      "function": "setFeeMultiplier(uint8,uint256)",
      "arguments": [
        "3",
        "4"
      ],
      "transaction": {
        "from": "0xe62ab4d111f968660c6b2188046f9b9ba53c4bae",
        "to": "0x41543a4c6423e2546fc58ac63117b5692d68c323",
        "gas": "0x1135f",
        "value": "0x0",
        "input": "0x0ee24eb500000000000000000000000000000000000000000000000000000000000000030000000000000000000000000000000000000000000000000000000000000004",
        "nonce": "0x177",
        "chainId": "0x61"
      },
      "additionalContracts": [],
      "isFixedGasLimit": false
    },
    {
      "hash": "0xbef897595d2603f1b1ef7552a1109b89ea89de1aeb9e399eade395ed32bc2b01",
      "transactionType": "CALL",
      "contractName": null,
      "contractAddress": "0x41543a4c6423e2546fc58ac63117b5692d68c323",
      "function": "setFeeMultiplier(uint8,uint256)",
      "arguments": [
        "4",
        "4"
      ],
      "transaction": {
        "from": "0xe62ab4d111f968660c6b2188046f9b9ba53c4bae",
        "to": "0x41543a4c6423e2546fc58ac63117b5692d68c323",
        "gas": "0x1042a",
        "value": "0x0",
        "input": "0x0ee24eb500000000000000000000000000000000000000000000000000000000000000040000000000000000000000000000000000000000000000000000000000000004",
        "nonce": "0x178",
        "chainId": "0x61"
      },
      "additionalContracts": [],
      "isFixedGasLimit": false
    },
    {
      "hash": "0x94a21f0996f9946b706e6cefeadc6a2cc0a8026f45f523984e852fe0f54f1afb",
      "transactionType": "CALL",
      "contractName": null,
      "contractAddress": "0x41543a4c6423e2546fc58ac63117b5692d68c323",
      "function": "addFeeToken(string,string[],uint256[])",
      "arguments": [
        "421614",
        "[0xdd43fc986a13392ddbc7aea150b41efe27b2d0ed]",
        "[1000]"
      ],
      "transaction": {
        "from": "0xe62ab4d111f968660c6b2188046f9b9ba53c4bae",
        "to": "0x41543a4c6423e2546fc58ac63117b5692d68c323",
        "gas": "0x2f8ed",
        "value": "0x0",
        "input": "0x437bf84f000000000000000000000000000000000000000000000000000000000000006000000000000000000000000000000000000000000000000000000000000000a000000000000000000000000000000000000000000000000000000000000001400000000000000000000000000000000000000000000000000000000000000006343231363134000000000000000000000000000000000000000000000000000000000000000000000000000000000000000000000000000000000000000000010000000000000000000000000000000000000000000000000000000000000020000000000000000000000000000000000000000000000000000000000000002a30786464343366633938366131333339326464626337616561313530623431656665323762326430656400000000000000000000000000000000000000000000000000000000000000000000000000000000000000000000000000000000000100000000000000000000000000000000000000000000000000000000000003e8",
        "nonce": "0x179",
        "chainId": "0x61"
      },
      "additionalContracts": [],
      "isFixedGasLimit": false
    },
    {
      "hash": "0x62e297bf813a061ef539f375843d1719af5776f7a387d51e447f4a26219c755f",
      "transactionType": "CALL",
      "contractName": null,
      "contractAddress": "0x41543a4c6423e2546fc58ac63117b5692d68c323",
      "function": "addFeeToken(string,string[],uint256[])",
      "arguments": [
        "80002",
        "[0xdd43fc986a13392ddbc7aea150b41efe27b2d0ed]",
        "[1000]"
      ],
      "transaction": {
        "from": "0xe62ab4d111f968660c6b2188046f9b9ba53c4bae",
        "to": "0x41543a4c6423e2546fc58ac63117b5692d68c323",
        "gas": "0x2a55c",
        "value": "0x0",
        "input": "0x437bf84f000000000000000000000000000000000000000000000000000000000000006000000000000000000000000000000000000000000000000000000000000000a000000000000000000000000000000000000000000000000000000000000001400000000000000000000000000000000000000000000000000000000000000005383030303200000000000000000000000000000000000000000000000000000000000000000000000000000000000000000000000000000000000000000000010000000000000000000000000000000000000000000000000000000000000020000000000000000000000000000000000000000000000000000000000000002a30786464343366633938366131333339326464626337616561313530623431656665323762326430656400000000000000000000000000000000000000000000000000000000000000000000000000000000000000000000000000000000000100000000000000000000000000000000000000000000000000000000000003e8",
        "nonce": "0x17a",
        "chainId": "0x61"
      },
      "additionalContracts": [],
      "isFixedGasLimit": false
    },
    {
      "hash": "0x9ae8ff21d3e5b9422c9d0dae3b866edd8fa32f0677eebc6dc70ea6941298d00b",
      "transactionType": "CALL",
      "contractName": null,
      "contractAddress": "0x41543a4c6423e2546fc58ac63117b5692d68c323",
      "function": "addFeeToken(string,string[],uint256[])",
      "arguments": [
        "84532",
        "[0xdd43fc986a13392ddbc7aea150b41efe27b2d0ed]",
        "[1000]"
      ],
      "transaction": {
        "from": "0xe62ab4d111f968660c6b2188046f9b9ba53c4bae",
        "to": "0x41543a4c6423e2546fc58ac63117b5692d68c323",
        "gas": "0x2a55c",
        "value": "0x0",
        "input": "0x437bf84f000000000000000000000000000000000000000000000000000000000000006000000000000000000000000000000000000000000000000000000000000000a000000000000000000000000000000000000000000000000000000000000001400000000000000000000000000000000000000000000000000000000000000005383435333200000000000000000000000000000000000000000000000000000000000000000000000000000000000000000000000000000000000000000000010000000000000000000000000000000000000000000000000000000000000020000000000000000000000000000000000000000000000000000000000000002a30786464343366633938366131333339326464626337616561313530623431656665323762326430656400000000000000000000000000000000000000000000000000000000000000000000000000000000000000000000000000000000000100000000000000000000000000000000000000000000000000000000000003e8",
        "nonce": "0x17b",
        "chainId": "0x61"
      },
      "additionalContracts": [],
      "isFixedGasLimit": false
    },
    {
      "hash": "0xe155b01115ff7d711217cdd8327d9b97516d6d503af33c330052015be7743b01",
      "transactionType": "CALL",
      "contractName": null,
      "contractAddress": "0x41543a4c6423e2546fc58ac63117b5692d68c323",
      "function": "addFeeToken(string,string[],uint256[])",
      "arguments": [
        "11155111",
        "[0xdd43fc986a13392ddbc7aea150b41efe27b2d0ed]",
        "[1000]"
      ],
      "transaction": {
        "from": "0xe62ab4d111f968660c6b2188046f9b9ba53c4bae",
        "to": "0x41543a4c6423e2546fc58ac63117b5692d68c323",
        "gas": "0x2d3db",
        "value": "0x0",
        "input": "0x437bf84f000000000000000000000000000000000000000000000000000000000000006000000000000000000000000000000000000000000000000000000000000000a000000000000000000000000000000000000000000000000000000000000001400000000000000000000000000000000000000000000000000000000000000008313131353531313100000000000000000000000000000000000000000000000000000000000000000000000000000000000000000000000000000000000000010000000000000000000000000000000000000000000000000000000000000020000000000000000000000000000000000000000000000000000000000000002a30786464343366633938366131333339326464626337616561313530623431656665323762326430656400000000000000000000000000000000000000000000000000000000000000000000000000000000000000000000000000000000000100000000000000000000000000000000000000000000000000000000000003e8",
        "nonce": "0x17c",
        "chainId": "0x61"
      },
      "additionalContracts": [],
      "isFixedGasLimit": false
    },
    {
      "hash": "0x201f3c40b25def74d148b72de4924f22e8d8796f8462209b1256bbb9a3338565",
      "transactionType": "CALL",
      "contractName": null,
      "contractAddress": "0x969035b34b913c507b87fd805fff608fb1fe13f0",
      "function": "addChainContract(string[],string[])",
      "arguments": [
        "[421614, 80002, 84532, 11155111]",
        "[0x358498985e6ac7ca73f5110b415525ae04cb8313, 0x2927d422cbea7f315ee3e0660af2ed9b35302004, 0x6640ec42f86abcf799c21a070f7baf6db38a2ab9, 0x9266e8bf4943f2b366f2be89688a8622084db8b9]"
      ],
      "transaction": {
        "from": "0xe62ab4d111f968660c6b2188046f9b9ba53c4bae",
        "to": "0x969035b34b913c507b87fd805fff608fb1fe13f0",
        "gas": "0xaa70e",
        "value": "0x0",
        "input": "0x013fd3bd000000000000000000000000000000000000000000000000000000000000004000000000000000000000000000000000000000000000000000000000000001e00000000000000000000000000000000000000000000000000000000000000004000000000000000000000000000000000000000000000000000000000000008000000000000000000000000000000000000000000000000000000000000000c000000000000000000000000000000000000000000000000000000000000001000000000000000000000000000000000000000000000000000000000000000140000000000000000000000000000000000000000000000000000000000000000634323136313400000000000000000000000000000000000000000000000000000000000000000000000000000000000000000000000000000000000000000005383030303200000000000000000000000000000000000000000000000000000000000000000000000000000000000000000000000000000000000000000000053834353332000000000000000000000000000000000000000000000000000000000000000000000000000000000000000000000000000000000000000000000831313135353131310000000000000000000000000000000000000000000000000000000000000000000000000000000000000000000000000000000000000004000000000000000000000000000000000000000000000000000000000000008000000000000000000000000000000000000000000000000000000000000000e0000000000000000000000000000000000000000000000000000000000000014000000000000000000000000000000000000000000000000000000000000001a0000000000000000000000000000000000000000000000000000000000000002a30783335383439383938356536616337636137336635313130623431353532356165303463623833313300000000000000000000000000000000000000000000000000000000000000000000000000000000000000000000000000000000002a30783239323764343232636265613766333135656533653036363061663265643962333533303230303400000000000000000000000000000000000000000000000000000000000000000000000000000000000000000000000000000000002a30783636343065633432663836616263663739396332316130373066376261663664623338613261623900000000000000000000000000000000000000000000000000000000000000000000000000000000000000000000000000000000002a30783932363665386266343934336632623336366632626538393638386138363232303834646238623900000000000000000000000000000000000000000000",
        "nonce": "0x17d",
        "chainId": "0x61"
      },
      "additionalContracts": [],
      "isFixedGasLimit": false
    },
    {
      "hash": "0x538fd5d5909610de6c8a4f1d3033f022f0eaa069278bf2114d1d2740c3550d72",
      "transactionType": "CALL",
      "contractName": null,
      "contractAddress": "0x969035b34b913c507b87fd805fff608fb1fe13f0",
      "function": "attachRWAX(uint256,uint256,string[],string[])",
      "arguments": [
        "1",
        "1",
        "[97, 421614, 80002, 84532, 11155111]",
        "[0x66b719c489193594c617801e67119959cd15b63a, 0x9dc772b55e95a630031ebe431706d105af01cf03, 0x1b87108b35abb5751bfc64647e9d5cd1cb77e236, 0x8230abab39f9c618282ddd0af1dfa278de7df98f, 0xb5638019cbfc1b523d5167a269e755b05bf24fd9]"
      ],
      "transaction": {
        "from": "0xe62ab4d111f968660c6b2188046f9b9ba53c4bae",
        "to": "0x969035b34b913c507b87fd805fff608fb1fe13f0",
        "gas": "0xd6d44",
        "value": "0x0",
        "input": "0x33a5f5b40000000000000000000000000000000000000000000000000000000000000001000000000000000000000000000000000000000000000000000000000000000100000000000000000000000000000000000000000000000000000000000000800000000000000000000000000000000000000000000000000000000000000280000000000000000000000000000000000000000000000000000000000000000500000000000000000000000000000000000000000000000000000000000000a000000000000000000000000000000000000000000000000000000000000000e00000000000000000000000000000000000000000000000000000000000000120000000000000000000000000000000000000000000000000000000000000016000000000000000000000000000000000000000000000000000000000000001a00000000000000000000000000000000000000000000000000000000000000002393700000000000000000000000000000000000000000000000000000000000000000000000000000000000000000000000000000000000000000000000000063432313631340000000000000000000000000000000000000000000000000000000000000000000000000000000000000000000000000000000000000000000538303030320000000000000000000000000000000000000000000000000000000000000000000000000000000000000000000000000000000000000000000005383435333200000000000000000000000000000000000000000000000000000000000000000000000000000000000000000000000000000000000000000000083131313535313131000000000000000000000000000000000000000000000000000000000000000000000000000000000000000000000000000000000000000500000000000000000000000000000000000000000000000000000000000000a00000000000000000000000000000000000000000000000000000000000000100000000000000000000000000000000000000000000000000000000000000016000000000000000000000000000000000000000000000000000000000000001c00000000000000000000000000000000000000000000000000000000000000220000000000000000000000000000000000000000000000000000000000000002a30783636623731396334383931393335393463363137383031653637313139393539636431356236336100000000000000000000000000000000000000000000000000000000000000000000000000000000000000000000000000000000002a30783964633737326235356539356136333030333165626534333137303664313035616630316366303300000000000000000000000000000000000000000000000000000000000000000000000000000000000000000000000000000000002a30783162383731303862333561626235373531626663363436343765396435636431636237376532333600000000000000000000000000000000000000000000000000000000000000000000000000000000000000000000000000000000002a30783832333061626162333966396336313832383264646430616631646661323738646537646639386600000000000000000000000000000000000000000000000000000000000000000000000000000000000000000000000000000000002a30786235363338303139636266633162353233643531363761323639653735356230356266323466643900000000000000000000000000000000000000000000",
        "nonce": "0x17e",
        "chainId": "0x61"
      },
      "additionalContracts": [],
      "isFixedGasLimit": false
    },
    {
      "hash": "0x5ae7da6aacc65d61fa4c96f6ba4a008e47f380627b4fca853f62dcd4fabd04b4",
      "transactionType": "CALL",
      "contractName": null,
      "contractAddress": "0x969035b34b913c507b87fd805fff608fb1fe13f0",
      "function": "attachStorageManager(uint256,uint256,string[],string[])",
      "arguments": [
        "1",
        "1",
        "[97, 421614, 80002, 84532, 11155111]",
        "[0xe569c146b0d4c1c941607b5c6a648b5877ae29ef, 0xc047401f28f43ec8af8c5aaac26bf7d007e2474a, 0x3418a45e442210ec9579b074ae9acb13b2a67554, 0xaf685f104e7428311f25526180cbd416fa8668cd, 0xa240b0714712e2927ec055ceaa8e031ac671a55f]"
      ],
      "transaction": {
        "from": "0xe62ab4d111f968660c6b2188046f9b9ba53c4bae",
        "to": "0x969035b34b913c507b87fd805fff608fb1fe13f0",
        "gas": "0xd6d24",
        "value": "0x0",
        "input": "0x2f68b4890000000000000000000000000000000000000000000000000000000000000001000000000000000000000000000000000000000000000000000000000000000100000000000000000000000000000000000000000000000000000000000000800000000000000000000000000000000000000000000000000000000000000280000000000000000000000000000000000000000000000000000000000000000500000000000000000000000000000000000000000000000000000000000000a000000000000000000000000000000000000000000000000000000000000000e00000000000000000000000000000000000000000000000000000000000000120000000000000000000000000000000000000000000000000000000000000016000000000000000000000000000000000000000000000000000000000000001a00000000000000000000000000000000000000000000000000000000000000002393700000000000000000000000000000000000000000000000000000000000000000000000000000000000000000000000000000000000000000000000000063432313631340000000000000000000000000000000000000000000000000000000000000000000000000000000000000000000000000000000000000000000538303030320000000000000000000000000000000000000000000000000000000000000000000000000000000000000000000000000000000000000000000005383435333200000000000000000000000000000000000000000000000000000000000000000000000000000000000000000000000000000000000000000000083131313535313131000000000000000000000000000000000000000000000000000000000000000000000000000000000000000000000000000000000000000500000000000000000000000000000000000000000000000000000000000000a00000000000000000000000000000000000000000000000000000000000000100000000000000000000000000000000000000000000000000000000000000016000000000000000000000000000000000000000000000000000000000000001c00000000000000000000000000000000000000000000000000000000000000220000000000000000000000000000000000000000000000000000000000000002a30786535363963313436623064346331633934313630376235633661363438623538373761653239656600000000000000000000000000000000000000000000000000000000000000000000000000000000000000000000000000000000002a30786330343734303166323866343365633861663863356161616332366266376430303765323437346100000000000000000000000000000000000000000000000000000000000000000000000000000000000000000000000000000000002a30783334313861343565343432323130656339353739623037346165396163623133623261363735353400000000000000000000000000000000000000000000000000000000000000000000000000000000000000000000000000000000002a30786166363835663130346537343238333131663235353236313830636264343136666138363638636400000000000000000000000000000000000000000000000000000000000000000000000000000000000000000000000000000000002a30786132343062303731343731326532393237656330353563656161386530333161633637316135356600000000000000000000000000000000000000000000",
        "nonce": "0x17f",
        "chainId": "0x61"
      },
      "additionalContracts": [],
      "isFixedGasLimit": false
    }
  ],
  "receipts": [
    {
      "status": "0x1",
      "cumulativeGasUsed": "0x206d5",
      "logs": [],
      "logsBloom": "0x00000000000000000000000000000000000000000000000000000000000000000000000000000000000000000000000000000000000000000000000000000000000000000000000000000000000000000000000000000000000000000000000000000000000000000000000000000000000000000000000000000000000000000000000000000000000000000000000000000000000000000000000000000000000000000000000000000000000000000000000000000000000000000000000000000000000000000000000000000000000000000000000000000000000000000000000000000000000000000000000000000000000000000000000000000000",
      "type": "0x0",
      "transactionHash": "0x9582107648ed1eb8829d6573df39e0c55f8b48474359a75656956fad124e6bf9",
      "transactionIndex": "0x1",
      "blockHash": "0x33aa5dd761f26712d00aa71c73a6f6f97f02aa2fc4cb6def52794c27607cbb69",
      "blockNumber": "0x2b3e134",
      "gasUsed": "0x5eb3",
      "effectiveGasPrice": "0x2540be400",
      "from": "0xe62ab4d111f968660c6b2188046f9b9ba53c4bae",
      "to": "0x41543a4c6423e2546fc58ac63117b5692d68c323",
      "contractAddress": null
    },
    {
      "status": "0x1",
      "cumulativeGasUsed": "0x3ee95",
      "logs": [
        {
          "address": "0x41543a4c6423e2546fc58ac63117b5692d68c323",
          "topics": [
            "0x1394cfab38f3fc78ed77ea6f9318782a446d96e7dc8e9a6b0149f6be25c08bcf",
            "0x000000000000000000000000dd43fc986a13392ddbc7aea150b41efe27b2d0ed"
          ],
          "data": "0x",
          "blockHash": "0x676f05b1c05385f9183c402129385e790fe1eac433d6088b3eb89d643e8a2069",
          "blockNumber": "0x2b3e137",
          "transactionHash": "0xd1e82772532e68a2084eb10ea40e1b285dccfc2cda6222ec2d530b65a0f89589",
          "transactionIndex": "0x2",
          "logIndex": "0x3",
          "removed": false
        }
      ],
      "logsBloom": "0x00000000000000000000000000000000000000000000000000000000000000000000000000000000000000000000000000000000000000000000000000000000000000004000000400000000000000000000001000000000000000000000010000000000000000000040000000000000000000000000000000000000000000000000000100000000000000000000000000000000000000000000000000000000000000000000000000000000000000000000000100000000000000000000000000000000000000000000000000000000000000000000000000000000000000000000000000010000000000000000000000000000000000010000000000000000",
      "type": "0x0",
      "transactionHash": "0xd1e82772532e68a2084eb10ea40e1b285dccfc2cda6222ec2d530b65a0f89589",
      "transactionIndex": "0x2",
      "blockHash": "0x676f05b1c05385f9183c402129385e790fe1eac433d6088b3eb89d643e8a2069",
      "blockNumber": "0x2b3e137",
      "gasUsed": "0x1c01c",
      "effectiveGasPrice": "0x2540be400",
      "from": "0xe62ab4d111f968660c6b2188046f9b9ba53c4bae",
      "to": "0x41543a4c6423e2546fc58ac63117b5692d68c323",
      "contractAddress": null
    },
    {
      "status": "0x1",
      "cumulativeGasUsed": "0x1c8a7",
      "logs": [],
      "logsBloom": "0x00000000000000000000000000000000000000000000000000000000000000000000000000000000000000000000000000000000000000000000000000000000000000000000000000000000000000000000000000000000000000000000000000000000000000000000000000000000000000000000000000000000000000000000000000000000000000000000000000000000000000000000000000000000000000000000000000000000000000000000000000000000000000000000000000000000000000000000000000000000000000000000000000000000000000000000000000000000000000000000000000000000000000000000000000000000",
      "type": "0x0",
      "transactionHash": "0x7a312e24de5c3f2938dfb6fc18847497fca350a5c8778a47b2a15394e0d105a1",
      "transactionIndex": "0x2",
      "blockHash": "0x4430bb0bb62dd1d6a7fedcfbfabd9229f38dd6187d27516a036bb1bd7b8b6e27",
      "blockNumber": "0x2b3e13a",
      "gasUsed": "0xbbf9",
      "effectiveGasPrice": "0x2540be400",
      "from": "0xe62ab4d111f968660c6b2188046f9b9ba53c4bae",
      "to": "0x41543a4c6423e2546fc58ac63117b5692d68c323",
      "contractAddress": null
    },
    {
      "status": "0x1",
      "cumulativeGasUsed": "0x1c8ca",
      "logs": [],
      "logsBloom": "0x00000000000000000000000000000000000000000000000000000000000000000000000000000000000000000000000000000000000000000000000000000000000000000000000000000000000000000000000000000000000000000000000000000000000000000000000000000000000000000000000000000000000000000000000000000000000000000000000000000000000000000000000000000000000000000000000000000000000000000000000000000000000000000000000000000000000000000000000000000000000000000000000000000000000000000000000000000000000000000000000000000000000000000000000000000000",
      "type": "0x0",
      "transactionHash": "0xb9c4a42a3411b9032b7cc054066196af07ae4dd9a55b83990e0c6e487f6470f9",
      "transactionIndex": "0x2",
      "blockHash": "0x555716b75c7f3bf234f75b09abd3c9fe8233e059a13917ff2948863155094784",
      "blockNumber": "0x2b3e13c",
      "gasUsed": "0xbc1c",
      "effectiveGasPrice": "0x2540be400",
      "from": "0xe62ab4d111f968660c6b2188046f9b9ba53c4bae",
      "to": "0x41543a4c6423e2546fc58ac63117b5692d68c323",
      "contractAddress": null
    },
    {
      "status": "0x1",
      "cumulativeGasUsed": "0x33cb4",
      "logs": [],
      "logsBloom": "0x00000000000000000000000000000000000000000000000000000000000000000000000000000000000000000000000000000000000000000000000000000000000000000000000000000000000000000000000000000000000000000000000000000000000000000000000000000000000000000000000000000000000000000000000000000000000000000000000000000000000000000000000000000000000000000000000000000000000000000000000000000000000000000000000000000000000000000000000000000000000000000000000000000000000000000000000000000000000000000000000000000000000000000000000000000000",
      "type": "0x0",
      "transactionHash": "0xf29889bcd594eb7bc159a6e2273d433efef278fb427ac9818a85cb5a674ec19b",
      "transactionIndex": "0x3",
      "blockHash": "0xaa78a9ebdd107917d3f5362758fc531c9757397c7dfcfe21c76f6610798854b9",
      "blockNumber": "0x2b3e13e",
      "gasUsed": "0xbc33",
      "effectiveGasPrice": "0x2540be400",
      "from": "0xe62ab4d111f968660c6b2188046f9b9ba53c4bae",
      "to": "0x41543a4c6423e2546fc58ac63117b5692d68c323",
      "contractAddress": null
    },
    {
      "status": "0x1",
      "cumulativeGasUsed": "0x82bfc",
      "logs": [],
      "logsBloom": "0x00000000000000000000000000000000000000000000000000000000000000000000000000000000000000000000000000000000000000000000000000000000000000000000000000000000000000000000000000000000000000000000000000000000000000000000000000000000000000000000000000000000000000000000000000000000000000000000000000000000000000000000000000000000000000000000000000000000000000000000000000000000000000000000000000000000000000000000000000000000000000000000000000000000000000000000000000000000000000000000000000000000000000000000000000000000",
      "type": "0x0",
      "transactionHash": "0xb7403cadbdf3e917f2a764b51efde8e5ba74bd973f43637055f54f05e4c0243a",
      "transactionIndex": "0x7",
      "blockHash": "0x1d9f0808fc9972de0c58e1d32bd7a70b90fa98cb75fd4c92c9e6488f02e5a09f",
      "blockNumber": "0x2b3e140",
      "gasUsed": "0xbc4a",
      "effectiveGasPrice": "0x2540be400",
      "from": "0xe62ab4d111f968660c6b2188046f9b9ba53c4bae",
      "to": "0x41543a4c6423e2546fc58ac63117b5692d68c323",
      "contractAddress": null
    },
    {
      "status": "0x1",
      "cumulativeGasUsed": "0x1c90a",
      "logs": [],
      "logsBloom": "0x00000000000000000000000000000000000000000000000000000000000000000000000000000000000000000000000000000000000000000000000000000000000000000000000000000000000000000000000000000000000000000000000000000000000000000000000000000000000000000000000000000000000000000000000000000000000000000000000000000000000000000000000000000000000000000000000000000000000000000000000000000000000000000000000000000000000000000000000000000000000000000000000000000000000000000000000000000000000000000000000000000000000000000000000000000000",
      "type": "0x0",
      "transactionHash": "0xbef897595d2603f1b1ef7552a1109b89ea89de1aeb9e399eade395ed32bc2b01",
      "transactionIndex": "0x2",
      "blockHash": "0xdef2e7f2dc0748f6b6eefa3da1bd4b95b158a6ac38328daf05c2e1faa12e645c",
      "blockNumber": "0x2b3e142",
      "gasUsed": "0xbc5c",
      "effectiveGasPrice": "0x2540be400",
      "from": "0xe62ab4d111f968660c6b2188046f9b9ba53c4bae",
      "to": "0x41543a4c6423e2546fc58ac63117b5692d68c323",
      "contractAddress": null
    },
    {
      "status": "0x1",
      "cumulativeGasUsed": "0x2ad3d",
      "logs": [],
      "logsBloom": "0x00000000000000000000000000000000000000000000000000000000000000000000000000000000000000000000000000000000000000000000000000000000000000000000000000000000000000000000000000000000000000000000000000000000000000000000000000000000000000000000000000000000000000000000000000000000000000000000000000000000000000000000000000000000000000000000000000000000000000000000000000000000000000000000000000000000000000000000000000000000000000000000000000000000000000000000000000000000000000000000000000000000000000000000000000000000",
      "type": "0x0",
      "transactionHash": "0x94a21f0996f9946b706e6cefeadc6a2cc0a8026f45f523984e852fe0f54f1afb",
      "transactionIndex": "0x1",
      "blockHash": "0x2c40e2a422646daf9444b187a6e23be5dd944ad57035e89362bf5d1e6271e067",
      "blockNumber": "0x2b3e143",
      "gasUsed": "0x226e6",
      "effectiveGasPrice": "0x2540be400",
      "from": "0xe62ab4d111f968660c6b2188046f9b9ba53c4bae",
      "to": "0x41543a4c6423e2546fc58ac63117b5692d68c323",
      "contractAddress": null
    },
    {
      "status": "0x1",
      "cumulativeGasUsed": "0x2f714",
      "logs": [],
      "logsBloom": "0x00000000000000000000000000000000000000000000000000000000000000000000000000000000000000000000000000000000000000000000000000000000000000000000000000000000000000000000000000000000000000000000000000000000000000000000000000000000000000000000000000000000000000000000000000000000000000000000000000000000000000000000000000000000000000000000000000000000000000000000000000000000000000000000000000000000000000000000000000000000000000000000000000000000000000000000000000000000000000000000000000000000000000000000000000000000",
      "type": "0x0",
      "transactionHash": "0x62e297bf813a061ef539f375843d1719af5776f7a387d51e447f4a26219c755f",
      "transactionIndex": "0x2",
      "blockHash": "0x6da7e0e3454db2d783b51a8042f119aa98549dd3b464f729110f822d181cdc5b",
      "blockNumber": "0x2b3e146",
      "gasUsed": "0x1ea66",
      "effectiveGasPrice": "0x2540be400",
      "from": "0xe62ab4d111f968660c6b2188046f9b9ba53c4bae",
      "to": "0x41543a4c6423e2546fc58ac63117b5692d68c323",
      "contractAddress": null
    },
    {
      "status": "0x1",
      "cumulativeGasUsed": "0x4ecda",
      "logs": [],
      "logsBloom": "0x00000000000000000000000000000000000000000000000000000000000000000000000000000000000000000000000000000000000000000000000000000000000000000000000000000000000000000000000000000000000000000000000000000000000000000000000000000000000000000000000000000000000000000000000000000000000000000000000000000000000000000000000000000000000000000000000000000000000000000000000000000000000000000000000000000000000000000000000000000000000000000000000000000000000000000000000000000000000000000000000000000000000000000000000000000000",
      "type": "0x0",
      "transactionHash": "0x9ae8ff21d3e5b9422c9d0dae3b866edd8fa32f0677eebc6dc70ea6941298d00b",
      "transactionIndex": "0x3",
      "blockHash": "0x0aa5d773739e4f103be4d971c4a7458bf1ac0bed47a5c732d539ff6e0b81596d",
      "blockNumber": "0x2b3e148",
      "gasUsed": "0x1ea66",
      "effectiveGasPrice": "0x2540be400",
      "from": "0xe62ab4d111f968660c6b2188046f9b9ba53c4bae",
      "to": "0x41543a4c6423e2546fc58ac63117b5692d68c323",
      "contractAddress": null
    },
    {
      "status": "0x1",
      "cumulativeGasUsed": "0x2fb94",
      "logs": [],
      "logsBloom": "0x00000000000000000000000000000000000000000000000000000000000000000000000000000000000000000000000000000000000000000000000000000000000000000000000000000000000000000000000000000000000000000000000000000000000000000000000000000000000000000000000000000000000000000000000000000000000000000000000000000000000000000000000000000000000000000000000000000000000000000000000000000000000000000000000000000000000000000000000000000000000000000000000000000000000000000000000000000000000000000000000000000000000000000000000000000000",
      "type": "0x0",
      "transactionHash": "0xe155b01115ff7d711217cdd8327d9b97516d6d503af33c330052015be7743b01",
      "transactionIndex": "0x2",
      "blockHash": "0xe7f47064076fda7b38fec4685ddf0d6a2d59652b59c32cc5747c0bb4985dab5f",
      "blockNumber": "0x2b3e14a",
      "gasUsed": "0x1eef2",
      "effectiveGasPrice": "0x2540be400",
      "from": "0xe62ab4d111f968660c6b2188046f9b9ba53c4bae",
      "to": "0x41543a4c6423e2546fc58ac63117b5692d68c323",
      "contractAddress": null
    },
    {
      "status": "0x1",
      "cumulativeGasUsed": "0x83cae",
      "logs": [],
      "logsBloom": "0x00000000000000000000000000000000000000000000000000000000000000000000000000000000000000000000000000000000000000000000000000000000000000000000000000000000000000000000000000000000000000000000000000000000000000000000000000000000000000000000000000000000000000000000000000000000000000000000000000000000000000000000000000000000000000000000000000000000000000000000000000000000000000000000000000000000000000000000000000000000000000000000000000000000000000000000000000000000000000000000000000000000000000000000000000000000",
      "type": "0x0",
      "transactionHash": "0x201f3c40b25def74d148b72de4924f22e8d8796f8462209b1256bbb9a3338565",
      "transactionIndex": "0x1",
      "blockHash": "0x49132c47a375ccc62d6201ec1f23de87c877a289aaee1d92ec6ad14195ee9ff4",
      "blockNumber": "0x2b3e14d",
      "gasUsed": "0x7b657",
      "effectiveGasPrice": "0x2540be400",
      "from": "0xe62ab4d111f968660c6b2188046f9b9ba53c4bae",
      "to": "0x969035b34b913c507b87fd805fff608fb1fe13f0",
      "contractAddress": null
    },
    {
      "status": "0x1",
      "cumulativeGasUsed": "0xb521c",
      "logs": [],
      "logsBloom": "0x00000000000000000000000000000000000000000000000000000000000000000000000000000000000000000000000000000000000000000000000000000000000000000000000000000000000000000000000000000000000000000000000000000000000000000000000000000000000000000000000000000000000000000000000000000000000000000000000000000000000000000000000000000000000000000000000000000000000000000000000000000000000000000000000000000000000000000000000000000000000000000000000000000000000000000000000000000000000000000000000000000000000000000000000000000000",
      "type": "0x0",
      "transactionHash": "0x538fd5d5909610de6c8a4f1d3033f022f0eaa069278bf2114d1d2740c3550d72",
      "transactionIndex": "0x1",
      "blockHash": "0x3c5563f787f5980c4828e5b9b7aa5351724468e1e172d17b85e85728acf39e5f",
      "blockNumber": "0x2b3e150",
      "gasUsed": "0x9b885",
      "effectiveGasPrice": "0x2540be400",
      "from": "0xe62ab4d111f968660c6b2188046f9b9ba53c4bae",
      "to": "0x969035b34b913c507b87fd805fff608fb1fe13f0",
      "contractAddress": null
    },
    {
      "status": "0x1",
      "cumulativeGasUsed": "0xac511",
      "logs": [],
      "logsBloom": "0x00000000000000000000000000000000000000000000000000000000000000000000000000000000000000000000000000000000000000000000000000000000000000000000000000000000000000000000000000000000000000000000000000000000000000000000000000000000000000000000000000000000000000000000000000000000000000000000000000000000000000000000000000000000000000000000000000000000000000000000000000000000000000000000000000000000000000000000000000000000000000000000000000000000000000000000000000000000000000000000000000000000000000000000000000000000",
      "type": "0x0",
      "transactionHash": "0x5ae7da6aacc65d61fa4c96f6ba4a008e47f380627b4fca853f62dcd4fabd04b4",
      "transactionIndex": "0x2",
      "blockHash": "0x8d1f61802a2e3b0ba2d62803dd72b3a5ce8d25fb773e79f70bd515064791adee",
      "blockNumber": "0x2b3e152",
      "gasUsed": "0x9b86f",
      "effectiveGasPrice": "0x2540be400",
      "from": "0xe62ab4d111f968660c6b2188046f9b9ba53c4bae",
      "to": "0x969035b34b913c507b87fd805fff608fb1fe13f0",
      "contractAddress": null
    }
  ],
  "libraries": [],
  "pending": [],
  "returns": {},
  "timestamp": 1730750118,
  "chain": 97,
  "commit": "34a11392"
}