{
  "transactions": [
    {
      "hash": "0x55b0583dd06f125c7240ce019fe9cfdaa0e362048265512a099ce031171dedd4",
      "transactionType": "CALL",
      "contractName": null,
      "contractAddress": "0xdc44569f688a91ba3517c292de75e30ea284eea0",
      "function": "getFeeTokenList()",
      "arguments": [],
      "transaction": {
        "from": "0xe62ab4d111f968660c6b2188046f9b9ba53c4bae",
        "to": "0xdc44569f688a91ba3517c292de75e30ea284eea0",
        "gas": "0x8a7e",
        "value": "0x0",
        "input": "0xe28ab277",
        "nonce": "0x2c0",
        "chainId": "0x61"
      },
      "additionalContracts": [],
      "isFixedGasLimit": false
    },
    {
      "hash": "0xf0d8c8b352ed739c69243d93adb17a6814344ef538379b8ff210ab9f10591081",
      "transactionType": "CALL",
      "contractName": null,
      "contractAddress": "0xdc44569f688a91ba3517c292de75e30ea284eea0",
      "function": "addFeeToken(string)",
      "arguments": [
        "0xdd43fc986a13392ddbc7aea150b41efe27b2d0ed"
      ],
      "transaction": {
        "from": "0xe62ab4d111f968660c6b2188046f9b9ba53c4bae",
        "to": "0xdc44569f688a91ba3517c292de75e30ea284eea0",
        "gas": "0x26af2",
        "value": "0x0",
        "input": "0x12a6385f0000000000000000000000000000000000000000000000000000000000000020000000000000000000000000000000000000000000000000000000000000002a30786464343366633938366131333339326464626337616561313530623431656665323762326430656400000000000000000000000000000000000000000000",
        "nonce": "0x2c1",
        "chainId": "0x61"
      },
      "additionalContracts": [],
      "isFixedGasLimit": false
    },
    {
      "hash": "0x3e7a144352e77910f7b12d4d0f08291a02dbbe84bc54ffefb922a9202b31332a",
      "transactionType": "CALL",
      "contractName": null,
      "contractAddress": "0xdc44569f688a91ba3517c292de75e30ea284eea0",
      "function": "setFeeMultiplier(uint8,uint256)",
      "arguments": [
        "0",
        "2"
      ],
      "transaction": {
        "from": "0xe62ab4d111f968660c6b2188046f9b9ba53c4bae",
        "to": "0xdc44569f688a91ba3517c292de75e30ea284eea0",
        "gas": "0x112e8",
        "value": "0x0",
        "input": "0x0ee24eb500000000000000000000000000000000000000000000000000000000000000000000000000000000000000000000000000000000000000000000000000000002",
        "nonce": "0x2c2",
        "chainId": "0x61"
      },
      "additionalContracts": [],
      "isFixedGasLimit": false
    },
    {
      "hash": "0xe0c830695ca73bef7c5f41575f7092217b2ee7620418b8899302161648e87166",
      "transactionType": "CALL",
      "contractName": null,
      "contractAddress": "0xdc44569f688a91ba3517c292de75e30ea284eea0",
      "function": "setFeeMultiplier(uint8,uint256)",
      "arguments": [
        "1",
        "10"
      ],
      "transaction": {
        "from": "0xe62ab4d111f968660c6b2188046f9b9ba53c4bae",
        "to": "0xdc44569f688a91ba3517c292de75e30ea284eea0",
        "gas": "0x11324",
        "value": "0x0",
        "input": "0x0ee24eb50000000000000000000000000000000000000000000000000000000000000001000000000000000000000000000000000000000000000000000000000000000a",
        "nonce": "0x2c3",
        "chainId": "0x61"
      },
      "additionalContracts": [],
      "isFixedGasLimit": false
    },
    {
      "hash": "0x0f6d552a19b6b5e87bcd38c9dd9c431a16dca125a21d00169001c65b723bcba1",
      "transactionType": "CALL",
      "contractName": null,
      "contractAddress": "0xdc44569f688a91ba3517c292de75e30ea284eea0",
      "function": "setFeeMultiplier(uint8,uint256)",
      "arguments": [
        "2",
        "1"
      ],
      "transaction": {
        "from": "0xe62ab4d111f968660c6b2188046f9b9ba53c4bae",
        "to": "0xdc44569f688a91ba3517c292de75e30ea284eea0",
        "gas": "0x11346",
        "value": "0x0",
        "input": "0x0ee24eb500000000000000000000000000000000000000000000000000000000000000020000000000000000000000000000000000000000000000000000000000000001",
        "nonce": "0x2c4",
        "chainId": "0x61"
      },
      "additionalContracts": [],
      "isFixedGasLimit": false
    },
    {
      "hash": "0xeb77bf949e55ced254b2c05bb588ae11b1678d1d7dc4959f8cc5a6f110df8839",
      "transactionType": "CALL",
      "contractName": null,
      "contractAddress": "0xdc44569f688a91ba3517c292de75e30ea284eea0",
      "function": "setFeeMultiplier(uint8,uint256)",
      "arguments": [
        "3",
        "4"
      ],
      "transaction": {
        "from": "0xe62ab4d111f968660c6b2188046f9b9ba53c4bae",
        "to": "0xdc44569f688a91ba3517c292de75e30ea284eea0",
        "gas": "0x1041b",
        "value": "0x0",
        "input": "0x0ee24eb500000000000000000000000000000000000000000000000000000000000000030000000000000000000000000000000000000000000000000000000000000004",
        "nonce": "0x2c5",
        "chainId": "0x61"
      },
      "additionalContracts": [],
      "isFixedGasLimit": false
    },
    {
      "hash": "0xda3069f032a419ce842f2cfe5bcb479abc2d5354211fbae675ccd854088d8747",
      "transactionType": "CALL",
      "contractName": null,
      "contractAddress": "0xdc44569f688a91ba3517c292de75e30ea284eea0",
      "function": "setFeeMultiplier(uint8,uint256)",
      "arguments": [
        "4",
        "4"
      ],
      "transaction": {
        "from": "0xe62ab4d111f968660c6b2188046f9b9ba53c4bae",
        "to": "0xdc44569f688a91ba3517c292de75e30ea284eea0",
        "gas": "0x1043a",
        "value": "0x0",
        "input": "0x0ee24eb500000000000000000000000000000000000000000000000000000000000000040000000000000000000000000000000000000000000000000000000000000004",
        "nonce": "0x2c6",
        "chainId": "0x61"
      },
      "additionalContracts": [],
      "isFixedGasLimit": false
    },
    {
      "hash": "0xc2abcf36ecfae77e12a8eb9f0bb7749fa1bc89852fc5b7b3baa5e60ca2258e62",
      "transactionType": "CALL",
      "contractName": null,
      "contractAddress": "0xdc44569f688a91ba3517c292de75e30ea284eea0",
      "function": "setFeeMultiplier(uint8,uint256)",
      "arguments": [
        "5",
        "4"
      ],
      "transaction": {
        "from": "0xe62ab4d111f968660c6b2188046f9b9ba53c4bae",
        "to": "0xdc44569f688a91ba3517c292de75e30ea284eea0",
        "gas": "0x10459",
        "value": "0x0",
        "input": "0x0ee24eb500000000000000000000000000000000000000000000000000000000000000050000000000000000000000000000000000000000000000000000000000000004",
        "nonce": "0x2c7",
        "chainId": "0x61"
      },
      "additionalContracts": [],
      "isFixedGasLimit": false
    },
    {
      "hash": "0xbc9aa2cded2d76fa3f624da2d450d6c2d3b4e5e0adf20b8e6a825dcb3caca8f9",
      "transactionType": "CALL",
      "contractName": null,
      "contractAddress": "0xdc44569f688a91ba3517c292de75e30ea284eea0",
      "function": "setFeeMultiplier(uint8,uint256)",
      "arguments": [
        "6",
        "8"
      ],
      "transaction": {
        "from": "0xe62ab4d111f968660c6b2188046f9b9ba53c4bae",
        "to": "0xdc44569f688a91ba3517c292de75e30ea284eea0",
        "gas": "0x1047a",
        "value": "0x0",
        "input": "0x0ee24eb500000000000000000000000000000000000000000000000000000000000000060000000000000000000000000000000000000000000000000000000000000008",
        "nonce": "0x2c8",
        "chainId": "0x61"
      },
      "additionalContracts": [],
      "isFixedGasLimit": false
    },
    {
      "hash": "0xdcd2d597f4d7ed37fff22b477cb2cc8cdb4fb88e4b7f79ac0ad19d026e7856fb",
      "transactionType": "CALL",
      "contractName": null,
      "contractAddress": "0xdc44569f688a91ba3517c292de75e30ea284eea0",
      "function": "setFeeMultiplier(uint8,uint256)",
      "arguments": [
        "7",
        "4"
      ],
      "transaction": {
        "from": "0xe62ab4d111f968660c6b2188046f9b9ba53c4bae",
        "to": "0xdc44569f688a91ba3517c292de75e30ea284eea0",
        "gas": "0x10499",
        "value": "0x0",
        "input": "0x0ee24eb500000000000000000000000000000000000000000000000000000000000000070000000000000000000000000000000000000000000000000000000000000004",
        "nonce": "0x2c9",
        "chainId": "0x61"
      },
      "additionalContracts": [],
      "isFixedGasLimit": false
    },
    {
      "hash": "0x82e426545c3d6cc5e24b15c0ac29cd45f01aea3bf8ce7c7270fc420f735dd560",
      "transactionType": "CALL",
      "contractName": null,
      "contractAddress": "0xdc44569f688a91ba3517c292de75e30ea284eea0",
      "function": "setFeeMultiplier(uint8,uint256)",
      "arguments": [
        "8",
        "10"
      ],
      "transaction": {
        "from": "0xe62ab4d111f968660c6b2188046f9b9ba53c4bae",
        "to": "0xdc44569f688a91ba3517c292de75e30ea284eea0",
        "gas": "0x1140f",
        "value": "0x0",
        "input": "0x0ee24eb50000000000000000000000000000000000000000000000000000000000000008000000000000000000000000000000000000000000000000000000000000000a",
        "nonce": "0x2ca",
        "chainId": "0x61"
      },
      "additionalContracts": [],
      "isFixedGasLimit": false
    },
    {
      "hash": "0x0dbd78871bb23fd6986b9e4fd3eb527f0326b79e5c8d5c2ecd8f12aa4525337f",
      "transactionType": "CALL",
      "contractName": null,
      "contractAddress": "0xdc44569f688a91ba3517c292de75e30ea284eea0",
      "function": "setFeeMultiplier(uint8,uint256)",
      "arguments": [
        "9",
        "8"
      ],
      "transaction": {
        "from": "0xe62ab4d111f968660c6b2188046f9b9ba53c4bae",
        "to": "0xdc44569f688a91ba3517c292de75e30ea284eea0",
        "gas": "0x11431",
        "value": "0x0",
        "input": "0x0ee24eb500000000000000000000000000000000000000000000000000000000000000090000000000000000000000000000000000000000000000000000000000000008",
        "nonce": "0x2cb",
        "chainId": "0x61"
      },
      "additionalContracts": [],
      "isFixedGasLimit": false
    },
    {
      "hash": "0xb1633a722f87db3fa7762787519c6b633761102f4b8b96247990df2f3d081d16",
      "transactionType": "CALL",
      "contractName": null,
      "contractAddress": "0xdc44569f688a91ba3517c292de75e30ea284eea0",
      "function": "setFeeMultiplier(uint8,uint256)",
      "arguments": [
        "10",
        "8"
      ],
      "transaction": {
        "from": "0xe62ab4d111f968660c6b2188046f9b9ba53c4bae",
        "to": "0xdc44569f688a91ba3517c292de75e30ea284eea0",
        "gas": "0x11453",
        "value": "0x0",
        "input": "0x0ee24eb5000000000000000000000000000000000000000000000000000000000000000a0000000000000000000000000000000000000000000000000000000000000008",
        "nonce": "0x2cc",
        "chainId": "0x61"
      },
      "additionalContracts": [],
      "isFixedGasLimit": false
    },
    {
      "hash": "0xec4859004ce122bd232e2e8f8e0e052fba8c31b583d2d8928f329fec7f921f6d",
      "transactionType": "CALL",
      "contractName": null,
      "contractAddress": "0xdc44569f688a91ba3517c292de75e30ea284eea0",
      "function": "setFeeMultiplier(uint8,uint256)",
      "arguments": [
        "11",
        "8"
      ],
      "transaction": {
        "from": "0xe62ab4d111f968660c6b2188046f9b9ba53c4bae",
        "to": "0xdc44569f688a91ba3517c292de75e30ea284eea0",
        "gas": "0x10518",
        "value": "0x0",
        "input": "0x0ee24eb5000000000000000000000000000000000000000000000000000000000000000b0000000000000000000000000000000000000000000000000000000000000008",
        "nonce": "0x2cd",
        "chainId": "0x61"
      },
      "additionalContracts": [],
      "isFixedGasLimit": false
    },
    {
      "hash": "0xe83757356ba7b3e71e7e49293c0d2dc6d58526fb481cb8df9ef37b8e7e66cc20",
      "transactionType": "CALL",
      "contractName": null,
      "contractAddress": "0xdc44569f688a91ba3517c292de75e30ea284eea0",
      "function": "setFeeMultiplier(uint8,uint256)",
      "arguments": [
        "12",
        "20"
      ],
      "transaction": {
        "from": "0xe62ab4d111f968660c6b2188046f9b9ba53c4bae",
        "to": "0xdc44569f688a91ba3517c292de75e30ea284eea0",
        "gas": "0x10538",
        "value": "0x0",
        "input": "0x0ee24eb5000000000000000000000000000000000000000000000000000000000000000c0000000000000000000000000000000000000000000000000000000000000014",
        "nonce": "0x2ce",
        "chainId": "0x61"
      },
      "additionalContracts": [],
      "isFixedGasLimit": false
    },
    {
      "hash": "0xc0a949192d45c28baaa4e28bf0d7e8a8ac91b5f14ec3077eaa96461f32caa0e9",
      "transactionType": "CALL",
      "contractName": null,
      "contractAddress": "0xdc44569f688a91ba3517c292de75e30ea284eea0",
      "function": "setFeeMultiplier(uint8,uint256)",
      "arguments": [
        "13",
        "8"
      ],
      "transaction": {
        "from": "0xe62ab4d111f968660c6b2188046f9b9ba53c4bae",
        "to": "0xdc44569f688a91ba3517c292de75e30ea284eea0",
        "gas": "0x10558",
        "value": "0x0",
        "input": "0x0ee24eb5000000000000000000000000000000000000000000000000000000000000000d0000000000000000000000000000000000000000000000000000000000000008",
        "nonce": "0x2cf",
        "chainId": "0x61"
      },
      "additionalContracts": [],
      "isFixedGasLimit": false
    },
    {
      "hash": "0x569a3d4865bb86d6ba9e70545c562a0764e2e365cf9fe20f5ed70a8b973fe2dd",
      "transactionType": "CALL",
      "contractName": null,
      "contractAddress": "0xdc44569f688a91ba3517c292de75e30ea284eea0",
      "function": "setFeeMultiplier(uint8,uint256)",
      "arguments": [
        "14",
        "4"
      ],
      "transaction": {
        "from": "0xe62ab4d111f968660c6b2188046f9b9ba53c4bae",
        "to": "0xdc44569f688a91ba3517c292de75e30ea284eea0",
        "gas": "0x10577",
        "value": "0x0",
        "input": "0x0ee24eb5000000000000000000000000000000000000000000000000000000000000000e0000000000000000000000000000000000000000000000000000000000000004",
        "nonce": "0x2d0",
        "chainId": "0x61"
      },
      "additionalContracts": [],
      "isFixedGasLimit": false
    },
    {
      "hash": "0x71ac59cb66a0100b6820c40539d03e52d88c5d5acc56ca73b9d619afd868c345",
      "transactionType": "CALL",
      "contractName": null,
      "contractAddress": "0xdc44569f688a91ba3517c292de75e30ea284eea0",
      "function": "setFeeMultiplier(uint8,uint256)",
      "arguments": [
        "15",
        "4"
      ],
      "transaction": {
        "from": "0xe62ab4d111f968660c6b2188046f9b9ba53c4bae",
        "to": "0xdc44569f688a91ba3517c292de75e30ea284eea0",
        "gas": "0x10598",
        "value": "0x0",
        "input": "0x0ee24eb5000000000000000000000000000000000000000000000000000000000000000f0000000000000000000000000000000000000000000000000000000000000004",
        "nonce": "0x2d1",
        "chainId": "0x61"
      },
      "additionalContracts": [],
      "isFixedGasLimit": false
    },
    {
      "hash": "0x70077b8d8435a24bb0f37bc916faf8f2ae9f092d4f7338fec24bbe70df586e37",
      "transactionType": "CALL",
      "contractName": null,
      "contractAddress": "0xdc44569f688a91ba3517c292de75e30ea284eea0",
      "function": "setFeeMultiplier(uint8,uint256)",
      "arguments": [
        "16",
        "4"
      ],
      "transaction": {
        "from": "0xe62ab4d111f968660c6b2188046f9b9ba53c4bae",
        "to": "0xdc44569f688a91ba3517c292de75e30ea284eea0",
        "gas": "0x1151d",
        "value": "0x0",
        "input": "0x0ee24eb500000000000000000000000000000000000000000000000000000000000000100000000000000000000000000000000000000000000000000000000000000004",
        "nonce": "0x2d2",
        "chainId": "0x61"
      },
      "additionalContracts": [],
      "isFixedGasLimit": false
    },
    {
      "hash": "0xeb1e4338962e48d975dd57cfa267e275a918ada5062672b439f12fc5207cc884",
      "transactionType": "CALL",
      "contractName": null,
      "contractAddress": "0xdc44569f688a91ba3517c292de75e30ea284eea0",
      "function": "setFeeMultiplier(uint8,uint256)",
      "arguments": [
        "17",
        "4"
      ],
      "transaction": {
        "from": "0xe62ab4d111f968660c6b2188046f9b9ba53c4bae",
        "to": "0xdc44569f688a91ba3517c292de75e30ea284eea0",
        "gas": "0x1153e",
        "value": "0x0",
        "input": "0x0ee24eb500000000000000000000000000000000000000000000000000000000000000110000000000000000000000000000000000000000000000000000000000000004",
        "nonce": "0x2d3",
        "chainId": "0x61"
      },
      "additionalContracts": [],
      "isFixedGasLimit": false
    },
    {
      "hash": "0xe713bdd2d001be75dea54055d0242018b60d17a7a905332547506eab6505e005",
      "transactionType": "CALL",
      "contractName": null,
      "contractAddress": "0xdc44569f688a91ba3517c292de75e30ea284eea0",
      "function": "setFeeMultiplier(uint8,uint256)",
      "arguments": [
        "18",
        "2"
      ],
      "transaction": {
        "from": "0xe62ab4d111f968660c6b2188046f9b9ba53c4bae",
        "to": "0xdc44569f688a91ba3517c292de75e30ea284eea0",
        "gas": "0x11560",
        "value": "0x0",
        "input": "0x0ee24eb500000000000000000000000000000000000000000000000000000000000000120000000000000000000000000000000000000000000000000000000000000002",
        "nonce": "0x2d4",
        "chainId": "0x61"
      },
      "additionalContracts": [],
      "isFixedGasLimit": false
    },
    {
      "hash": "0x4431dca67398f52e92fcdbd78280af8e32c7c3bd885e4221cb35993a3f8bab99",
      "transactionType": "CALL",
      "contractName": null,
      "contractAddress": "0xdc44569f688a91ba3517c292de75e30ea284eea0",
      "function": "setFeeMultiplier(uint8,uint256)",
      "arguments": [
        "19",
        "2"
      ],
      "transaction": {
        "from": "0xe62ab4d111f968660c6b2188046f9b9ba53c4bae",
        "to": "0xdc44569f688a91ba3517c292de75e30ea284eea0",
        "gas": "0x1157a",
        "value": "0x0",
        "input": "0x0ee24eb500000000000000000000000000000000000000000000000000000000000000130000000000000000000000000000000000000000000000000000000000000002",
        "nonce": "0x2d5",
        "chainId": "0x61"
      },
      "additionalContracts": [],
      "isFixedGasLimit": false
    },
    {
      "hash": "0xb3a9820a9863035f5e43d5149a8fcfa46d39c3e8380f8650f0e73d3cb1c1006b",
      "transactionType": "CALL",
      "contractName": null,
      "contractAddress": "0xdc44569f688a91ba3517c292de75e30ea284eea0",
      "function": "addFeeToken(string,string[],uint256[])",
      "arguments": [
        "421614",
        "[0xdd43fc986a13392ddbc7aea150b41efe27b2d0ed]",
        "[100]"
      ],
      "transaction": {
        "from": "0xe62ab4d111f968660c6b2188046f9b9ba53c4bae",
        "to": "0xdc44569f688a91ba3517c292de75e30ea284eea0",
        "gas": "0x3259e",
        "value": "0x0",
        "input": "0x437bf84f000000000000000000000000000000000000000000000000000000000000006000000000000000000000000000000000000000000000000000000000000000a000000000000000000000000000000000000000000000000000000000000001400000000000000000000000000000000000000000000000000000000000000006343231363134000000000000000000000000000000000000000000000000000000000000000000000000000000000000000000000000000000000000000000010000000000000000000000000000000000000000000000000000000000000020000000000000000000000000000000000000000000000000000000000000002a3078646434336663393836613133333932646462633761656131353062343165666532376232643065640000000000000000000000000000000000000000000000000000000000000000000000000000000000000000000000000000000000010000000000000000000000000000000000000000000000000000000000000064",
        "nonce": "0x2d6",
        "chainId": "0x61"
      },
      "additionalContracts": [],
      "isFixedGasLimit": false
    },
    {
      "hash": "0xc2ff66de7f76ebe5e9dee8af0576600bbde5283ef33a0c3722f538fb70048a82",
      "transactionType": "CALL",
      "contractName": null,
      "contractAddress": "0xdc44569f688a91ba3517c292de75e30ea284eea0",
      "function": "addFeeToken(string,string[],uint256[])",
      "arguments": [
        "80002",
        "[0xdd43fc986a13392ddbc7aea150b41efe27b2d0ed]",
        "[100]"
      ],
      "transaction": {
        "from": "0xe62ab4d111f968660c6b2188046f9b9ba53c4bae",
        "to": "0xdc44569f688a91ba3517c292de75e30ea284eea0",
        "gas": "0x2cd23",
        "value": "0x0",
        "input": "0x437bf84f000000000000000000000000000000000000000000000000000000000000006000000000000000000000000000000000000000000000000000000000000000a000000000000000000000000000000000000000000000000000000000000001400000000000000000000000000000000000000000000000000000000000000005383030303200000000000000000000000000000000000000000000000000000000000000000000000000000000000000000000000000000000000000000000010000000000000000000000000000000000000000000000000000000000000020000000000000000000000000000000000000000000000000000000000000002a3078646434336663393836613133333932646462633761656131353062343165666532376232643065640000000000000000000000000000000000000000000000000000000000000000000000000000000000000000000000000000000000010000000000000000000000000000000000000000000000000000000000000064",
        "nonce": "0x2d7",
        "chainId": "0x61"
      },
      "additionalContracts": [],
      "isFixedGasLimit": false
    },
    {
      "hash": "0x44c605c7fa05d90673f5b9abc3a42e64521452b9579cdb1d26f28e2b68d1ef5b",
      "transactionType": "CALL",
      "contractName": null,
      "contractAddress": "0xdc44569f688a91ba3517c292de75e30ea284eea0",
      "function": "addFeeToken(string,string[],uint256[])",
      "arguments": [
        "84532",
        "[0xdd43fc986a13392ddbc7aea150b41efe27b2d0ed]",
        "[100]"
      ],
      "transaction": {
        "from": "0xe62ab4d111f968660c6b2188046f9b9ba53c4bae",
        "to": "0xdc44569f688a91ba3517c292de75e30ea284eea0",
        "gas": "0x2cd23",
        "value": "0x0",
        "input": "0x437bf84f000000000000000000000000000000000000000000000000000000000000006000000000000000000000000000000000000000000000000000000000000000a000000000000000000000000000000000000000000000000000000000000001400000000000000000000000000000000000000000000000000000000000000005383435333200000000000000000000000000000000000000000000000000000000000000000000000000000000000000000000000000000000000000000000010000000000000000000000000000000000000000000000000000000000000020000000000000000000000000000000000000000000000000000000000000002a3078646434336663393836613133333932646462633761656131353062343165666532376232643065640000000000000000000000000000000000000000000000000000000000000000000000000000000000000000000000000000000000010000000000000000000000000000000000000000000000000000000000000064",
        "nonce": "0x2d8",
        "chainId": "0x61"
      },
      "additionalContracts": [],
      "isFixedGasLimit": false
    },
    {
      "hash": "0x33531c999c883fc47457ea6d3078c5f7d7df7b22756d1deb71087fe7ac19d80e",
      "transactionType": "CALL",
      "contractName": null,
      "contractAddress": "0xdc44569f688a91ba3517c292de75e30ea284eea0",
      "function": "addFeeToken(string,string[],uint256[])",
      "arguments": [
        "97",
        "[0xdd43fc986a13392ddbc7aea150b41efe27b2d0ed]",
        "[100]"
      ],
      "transaction": {
        "from": "0xe62ab4d111f968660c6b2188046f9b9ba53c4bae",
        "to": "0xdc44569f688a91ba3517c292de75e30ea284eea0",
        "gas": "0x29f03",
        "value": "0x0",
        "input": "0x437bf84f000000000000000000000000000000000000000000000000000000000000006000000000000000000000000000000000000000000000000000000000000000a000000000000000000000000000000000000000000000000000000000000001400000000000000000000000000000000000000000000000000000000000000002393700000000000000000000000000000000000000000000000000000000000000000000000000000000000000000000000000000000000000000000000000010000000000000000000000000000000000000000000000000000000000000020000000000000000000000000000000000000000000000000000000000000002a3078646434336663393836613133333932646462633761656131353062343165666532376232643065640000000000000000000000000000000000000000000000000000000000000000000000000000000000000000000000000000000000010000000000000000000000000000000000000000000000000000000000000064",
        "nonce": "0x2d9",
        "chainId": "0x61"
      },
      "additionalContracts": [],
      "isFixedGasLimit": false
    },
    {
      "hash": "0x5ba0c971e84517221e82ec2bf2746d95b743e7c04bea5de53be8d9d9df79b029",
      "transactionType": "CALL",
      "contractName": null,
      "contractAddress": "0xdc44569f688a91ba3517c292de75e30ea284eea0",
      "function": "addFeeToken(string,string[],uint256[])",
      "arguments": [
        "11155111",
        "[0xdd43fc986a13392ddbc7aea150b41efe27b2d0ed]",
        "[100]"
      ],
      "transaction": {
        "from": "0xe62ab4d111f968660c6b2188046f9b9ba53c4bae",
        "to": "0xdc44569f688a91ba3517c292de75e30ea284eea0",
        "gas": "0x2ab93",
        "value": "0x0",
        "input": "0x437bf84f000000000000000000000000000000000000000000000000000000000000006000000000000000000000000000000000000000000000000000000000000000a000000000000000000000000000000000000000000000000000000000000001400000000000000000000000000000000000000000000000000000000000000008313131353531313100000000000000000000000000000000000000000000000000000000000000000000000000000000000000000000000000000000000000010000000000000000000000000000000000000000000000000000000000000020000000000000000000000000000000000000000000000000000000000000002a3078646434336663393836613133333932646462633761656131353062343165666532376232643065640000000000000000000000000000000000000000000000000000000000000000000000000000000000000000000000000000000000010000000000000000000000000000000000000000000000000000000000000064",
        "nonce": "0x2da",
        "chainId": "0x61"
      },
      "additionalContracts": [],
      "isFixedGasLimit": false
    },
    {
      "hash": "0x7ed7babb7e7b67b02717a6c3d36646a5f7174974fec9e57324d34008bacefa41",
      "transactionType": "CALL",
      "contractName": null,
      "contractAddress": "0x7240fcdb0dd116293044ed50db499680aa532eeb",
      "function": "addChainContract(string[],string[])",
      "arguments": [
        "[421614, 80002, 84532, 11155111]",
        "[0x67fd0c58bd8b925a3d3546ecc505653514b64013, 0x89330be16c672d4378b6731a8347d23b0c611de3, 0x3561aa249d1262a912764770bb8c387a7bbb56b6, 0xb406b937c12e03d676727fc1bb686279eedbc178]"
      ],
      "transaction": {
        "from": "0xe62ab4d111f968660c6b2188046f9b9ba53c4bae",
        "to": "0x7240fcdb0dd116293044ed50db499680aa532eeb",
        "gas": "0xaa5ea",
        "value": "0x0",
        "input": "0x013fd3bd000000000000000000000000000000000000000000000000000000000000004000000000000000000000000000000000000000000000000000000000000001e00000000000000000000000000000000000000000000000000000000000000004000000000000000000000000000000000000000000000000000000000000008000000000000000000000000000000000000000000000000000000000000000c000000000000000000000000000000000000000000000000000000000000001000000000000000000000000000000000000000000000000000000000000000140000000000000000000000000000000000000000000000000000000000000000634323136313400000000000000000000000000000000000000000000000000000000000000000000000000000000000000000000000000000000000000000005383030303200000000000000000000000000000000000000000000000000000000000000000000000000000000000000000000000000000000000000000000053834353332000000000000000000000000000000000000000000000000000000000000000000000000000000000000000000000000000000000000000000000831313135353131310000000000000000000000000000000000000000000000000000000000000000000000000000000000000000000000000000000000000004000000000000000000000000000000000000000000000000000000000000008000000000000000000000000000000000000000000000000000000000000000e0000000000000000000000000000000000000000000000000000000000000014000000000000000000000000000000000000000000000000000000000000001a0000000000000000000000000000000000000000000000000000000000000002a30783637666430633538626438623932356133643335343665636335303536353335313462363430313300000000000000000000000000000000000000000000000000000000000000000000000000000000000000000000000000000000002a30783839333330626531366336373264343337386236373331613833343764323362306336313164653300000000000000000000000000000000000000000000000000000000000000000000000000000000000000000000000000000000002a30783335363161613234396431323632613931323736343737306262386333383761376262623536623600000000000000000000000000000000000000000000000000000000000000000000000000000000000000000000000000000000002a30786234303662393337633132653033643637363732376663316262363836323739656564626331373800000000000000000000000000000000000000000000",
        "nonce": "0x2db",
        "chainId": "0x61"
      },
      "additionalContracts": [],
      "isFixedGasLimit": false
    },
    {
      "hash": "0xb2e476d53809426bd2d10e1d7e2ca116a2153f979768c835ddc0bd15a4cb751a",
      "transactionType": "CALL",
      "contractName": null,
      "contractAddress": "0x7240fcdb0dd116293044ed50db499680aa532eeb",
      "function": "attachRWAX(uint256,uint256,string[],string[])",
      "arguments": [
        "1",
        "1",
        "[97, 421614, 80002, 84532, 11155111]",
        "[0x636d43798340603707c936c1a93597dc44effbee, 0xa8f94374facdf9413407fd10af8954e20e299c5d, 0xb4317dba65486889643585a8d96c8d1990971cad, 0x410871e12756f751974379d56319ae5d34bb3eb5, 0xd455bb0f664ac8241b505729c3116f1acc441be4]"
      ],
      "transaction": {
        "from": "0xe62ab4d111f968660c6b2188046f9b9ba53c4bae",
        "to": "0x7240fcdb0dd116293044ed50db499680aa532eeb",
        "gas": "0x105146",
        "value": "0x0",
        "input": "0x33a5f5b40000000000000000000000000000000000000000000000000000000000000001000000000000000000000000000000000000000000000000000000000000000100000000000000000000000000000000000000000000000000000000000000800000000000000000000000000000000000000000000000000000000000000280000000000000000000000000000000000000000000000000000000000000000500000000000000000000000000000000000000000000000000000000000000a000000000000000000000000000000000000000000000000000000000000000e00000000000000000000000000000000000000000000000000000000000000120000000000000000000000000000000000000000000000000000000000000016000000000000000000000000000000000000000000000000000000000000001a00000000000000000000000000000000000000000000000000000000000000002393700000000000000000000000000000000000000000000000000000000000000000000000000000000000000000000000000000000000000000000000000063432313631340000000000000000000000000000000000000000000000000000000000000000000000000000000000000000000000000000000000000000000538303030320000000000000000000000000000000000000000000000000000000000000000000000000000000000000000000000000000000000000000000005383435333200000000000000000000000000000000000000000000000000000000000000000000000000000000000000000000000000000000000000000000083131313535313131000000000000000000000000000000000000000000000000000000000000000000000000000000000000000000000000000000000000000500000000000000000000000000000000000000000000000000000000000000a00000000000000000000000000000000000000000000000000000000000000100000000000000000000000000000000000000000000000000000000000000016000000000000000000000000000000000000000000000000000000000000001c00000000000000000000000000000000000000000000000000000000000000220000000000000000000000000000000000000000000000000000000000000002a30783633366434333739383334303630333730376339333663316139333539376463343465666662656500000000000000000000000000000000000000000000000000000000000000000000000000000000000000000000000000000000002a30786138663934333734666163646639343133343037666431306166383935346532306532393963356400000000000000000000000000000000000000000000000000000000000000000000000000000000000000000000000000000000002a30786234333137646261363534383638383936343335383561386439366338643139393039373163616400000000000000000000000000000000000000000000000000000000000000000000000000000000000000000000000000000000002a30783431303837316531323735366637353139373433373964353633313961653564333462623365623500000000000000000000000000000000000000000000000000000000000000000000000000000000000000000000000000000000002a30786434353562623066363634616338323431623530353732396333313136663161636334343162653400000000000000000000000000000000000000000000",
        "nonce": "0x2dc",
        "chainId": "0x61"
      },
      "additionalContracts": [],
      "isFixedGasLimit": false
    },
    {
      "hash": "0xb514438c010b1091b3aa5d174ca40497f7cab3dca7c87c652cff90a5ff7176e9",
      "transactionType": "CALL",
      "contractName": null,
      "contractAddress": "0x7240fcdb0dd116293044ed50db499680aa532eeb",
      "function": "attachStorageManager(uint256,uint256,string[],string[])",
      "arguments": [
        "1",
        "1",
        "[97, 421614, 80002, 84532, 11155111]",
        "[0x358498985e6ac7ca73f5110b415525ae04cb8313, 0xe38f40efc472aae401ba1edf37edd98ba43f5266, 0x10a04ad4a73c8bb00ee5a29b27d11eee85390306, 0xa3d476bb425ad923483c5f699fab17dbeb4473be, 0xad77409a722056b0d41b5ce2f03a6b7a2b18e3ed]"
      ],
      "transaction": {
        "from": "0xe62ab4d111f968660c6b2188046f9b9ba53c4bae",
        "to": "0x7240fcdb0dd116293044ed50db499680aa532eeb",
        "gas": "0xd74f5",
        "value": "0x0",
        "input": "0x2f68b4890000000000000000000000000000000000000000000000000000000000000001000000000000000000000000000000000000000000000000000000000000000100000000000000000000000000000000000000000000000000000000000000800000000000000000000000000000000000000000000000000000000000000280000000000000000000000000000000000000000000000000000000000000000500000000000000000000000000000000000000000000000000000000000000a000000000000000000000000000000000000000000000000000000000000000e00000000000000000000000000000000000000000000000000000000000000120000000000000000000000000000000000000000000000000000000000000016000000000000000000000000000000000000000000000000000000000000001a00000000000000000000000000000000000000000000000000000000000000002393700000000000000000000000000000000000000000000000000000000000000000000000000000000000000000000000000000000000000000000000000063432313631340000000000000000000000000000000000000000000000000000000000000000000000000000000000000000000000000000000000000000000538303030320000000000000000000000000000000000000000000000000000000000000000000000000000000000000000000000000000000000000000000005383435333200000000000000000000000000000000000000000000000000000000000000000000000000000000000000000000000000000000000000000000083131313535313131000000000000000000000000000000000000000000000000000000000000000000000000000000000000000000000000000000000000000500000000000000000000000000000000000000000000000000000000000000a00000000000000000000000000000000000000000000000000000000000000100000000000000000000000000000000000000000000000000000000000000016000000000000000000000000000000000000000000000000000000000000001c00000000000000000000000000000000000000000000000000000000000000220000000000000000000000000000000000000000000000000000000000000002a30783335383439383938356536616337636137336635313130623431353532356165303463623833313300000000000000000000000000000000000000000000000000000000000000000000000000000000000000000000000000000000002a30786533386634306566633437326161653430316261316564663337656464393862613433663532363600000000000000000000000000000000000000000000000000000000000000000000000000000000000000000000000000000000002a30783130613034616434613733633862623030656535613239623237643131656565383533393033303600000000000000000000000000000000000000000000000000000000000000000000000000000000000000000000000000000000002a30786133643437366262343235616439323334383363356636393966616231376462656234343733626500000000000000000000000000000000000000000000000000000000000000000000000000000000000000000000000000000000002a30786164373734303961373232303536623064343162356365326630336136623761326231386533656400000000000000000000000000000000000000000000",
        "nonce": "0x2dd",
        "chainId": "0x61"
      },
      "additionalContracts": [],
      "isFixedGasLimit": false
    }
  ],
  "receipts": [
    {
      "status": "0x1",
      "cumulativeGasUsed": "0x5eb3",
      "logs": [],
      "logsBloom": "0x00000000000000000000000000000000000000000000000000000000000000000000000000000000000000000000000000000000000000000000000000000000000000000000000000000000000000000000000000000000000000000000000000000000000000000000000000000000000000000000000000000000000000000000000000000000000000000000000000000000000000000000000000000000000000000000000000000000000000000000000000000000000000000000000000000000000000000000000000000000000000000000000000000000000000000000000000000000000000000000000000000000000000000000000000000000",
      "type": "0x0",
      "transactionHash": "0x55b0583dd06f125c7240ce019fe9cfdaa0e362048265512a099ce031171dedd4",
      "transactionIndex": "0x0",
      "blockHash": "0x7b1a9bfb1805d750ad0029b69bdc3d45bef1ebe741b4fdd95ac0e8225a8e7066",
      "blockNumber": "0x2c1878d",
      "gasUsed": "0x5eb3",
      "effectiveGasPrice": "0x174876e800",
      "from": "0xe62ab4d111f968660c6b2188046f9b9ba53c4bae",
      "to": "0xdc44569f688a91ba3517c292de75e30ea284eea0",
      "contractAddress": null
    },
    {
      "status": "0x1",
      "cumulativeGasUsed": "0x24e1d",
      "logs": [
        {
          "address": "0xdc44569f688a91ba3517c292de75e30ea284eea0",
          "topics": [
            "0x1394cfab38f3fc78ed77ea6f9318782a446d96e7dc8e9a6b0149f6be25c08bcf",
            "0x000000000000000000000000dd43fc986a13392ddbc7aea150b41efe27b2d0ed"
          ],
          "data": "0x",
          "blockHash": "0x593ce3796e4d6016d3ab13861c426c1d588e304d129d0c00a4db044a57018e5d",
          "blockNumber": "0x2c1878f",
          "transactionHash": "0xf0d8c8b352ed739c69243d93adb17a6814344ef538379b8ff210ab9f10591081",
          "transactionIndex": "0x1",
          "logIndex": "0x1",
          "removed": false
        }
      ],
      "logsBloom": "0x00000000000800000000000000000000000000000000000000000000000000000000000000100000000000000000000004000000000000000000000000000000000000004000000400000000000000000000001000000000000000000000000000000000000000000000000000000000000000000000000000000000000000000000000100000000000000000000000000000000000000000000000000000000000000000000000000000000000000000000000100000000000000000000000000000000000000000000000000000000000000000000000000000000000000000000000000010000000000000000000000000000000000000000000000000000",
      "type": "0x0",
      "transactionHash": "0xf0d8c8b352ed739c69243d93adb17a6814344ef538379b8ff210ab9f10591081",
      "transactionIndex": "0x1",
      "blockHash": "0x593ce3796e4d6016d3ab13861c426c1d588e304d129d0c00a4db044a57018e5d",
      "blockNumber": "0x2c1878f",
      "gasUsed": "0x1c01c",
      "effectiveGasPrice": "0x174876e800",
      "from": "0xe62ab4d111f968660c6b2188046f9b9ba53c4bae",
      "to": "0xdc44569f688a91ba3517c292de75e30ea284eea0",
      "contractAddress": null
    },
    {
      "status": "0x1",
      "cumulativeGasUsed": "0x1b0b7",
      "logs": [],
      "logsBloom": "0x00000000000000000000000000000000000000000000000000000000000000000000000000000000000000000000000000000000000000000000000000000000000000000000000000000000000000000000000000000000000000000000000000000000000000000000000000000000000000000000000000000000000000000000000000000000000000000000000000000000000000000000000000000000000000000000000000000000000000000000000000000000000000000000000000000000000000000000000000000000000000000000000000000000000000000000000000000000000000000000000000000000000000000000000000000000",
      "type": "0x0",
      "transactionHash": "0x3e7a144352e77910f7b12d4d0f08291a02dbbe84bc54ffefb922a9202b31332a",
      "transactionIndex": "0x1",
      "blockHash": "0x8d22c430d6dd7ffd3aaf374b4d7f092195a411bbe742103894f8c26c1f32fd9b",
      "blockNumber": "0x2c18792",
      "gasUsed": "0xbbf9",
      "effectiveGasPrice": "0x174876e800",
      "from": "0xe62ab4d111f968660c6b2188046f9b9ba53c4bae",
      "to": "0xdc44569f688a91ba3517c292de75e30ea284eea0",
      "contractAddress": null
    },
    {
      "status": "0x1",
      "cumulativeGasUsed": "0xbc22",
      "logs": [],
      "logsBloom": "0x00000000000000000000000000000000000000000000000000000000000000000000000000000000000000000000000000000000000000000000000000000000000000000000000000000000000000000000000000000000000000000000000000000000000000000000000000000000000000000000000000000000000000000000000000000000000000000000000000000000000000000000000000000000000000000000000000000000000000000000000000000000000000000000000000000000000000000000000000000000000000000000000000000000000000000000000000000000000000000000000000000000000000000000000000000000",
      "type": "0x0",
      "transactionHash": "0xe0c830695ca73bef7c5f41575f7092217b2ee7620418b8899302161648e87166",
      "transactionIndex": "0x0",
      "blockHash": "0x8c6ecc25ffeb2edd42954f4ebc06937dc2b8660beb1e22ad48c60f277c74e395",
      "blockNumber": "0x2c18794",
      "gasUsed": "0xbc22",
      "effectiveGasPrice": "0x174876e800",
      "from": "0xe62ab4d111f968660c6b2188046f9b9ba53c4bae",
      "to": "0xdc44569f688a91ba3517c292de75e30ea284eea0",
      "contractAddress": null
    },
    {
      "status": "0x1",
      "cumulativeGasUsed": "0x20677",
      "logs": [],
      "logsBloom": "0x00000000000000000000000000000000000000000000000000000000000000000000000000000000000000000000000000000000000000000000000000000000000000000000000000000000000000000000000000000000000000000000000000000000000000000000000000000000000000000000000000000000000000000000000000000000000000000000000000000000000000000000000000000000000000000000000000000000000000000000000000000000000000000000000000000000000000000000000000000000000000000000000000000000000000000000000000000000000000000000000000000000000000000000000000000000",
      "type": "0x0",
      "transactionHash": "0x0f6d552a19b6b5e87bcd38c9dd9c431a16dca125a21d00169001c65b723bcba1",
      "transactionIndex": "0x1",
      "blockHash": "0xb44838470fa8a9f7055ff7ca11ceadc5843e8de03ccc93862effd9e69c924190",
      "blockNumber": "0x2c18796",
      "gasUsed": "0xbc39",
      "effectiveGasPrice": "0x174876e800",
      "from": "0xe62ab4d111f968660c6b2188046f9b9ba53c4bae",
      "to": "0xdc44569f688a91ba3517c292de75e30ea284eea0",
      "contractAddress": null
    },
    {
      "status": "0x1",
      "cumulativeGasUsed": "0xbc50",
      "logs": [],
      "logsBloom": "0x00000000000000000000000000000000000000000000000000000000000000000000000000000000000000000000000000000000000000000000000000000000000000000000000000000000000000000000000000000000000000000000000000000000000000000000000000000000000000000000000000000000000000000000000000000000000000000000000000000000000000000000000000000000000000000000000000000000000000000000000000000000000000000000000000000000000000000000000000000000000000000000000000000000000000000000000000000000000000000000000000000000000000000000000000000000",
      "type": "0x0",
      "transactionHash": "0xeb77bf949e55ced254b2c05bb588ae11b1678d1d7dc4959f8cc5a6f110df8839",
      "transactionIndex": "0x0",
      "blockHash": "0x084daba4a764841d65298891a3931fb8c59f653e015fee0c7df4adb9be474e58",
      "blockNumber": "0x2c18799",
      "gasUsed": "0xbc50",
      "effectiveGasPrice": "0x174876e800",
      "from": "0xe62ab4d111f968660c6b2188046f9b9ba53c4bae",
      "to": "0xdc44569f688a91ba3517c292de75e30ea284eea0",
      "contractAddress": null
    },
    {
      "status": "0x1",
      "cumulativeGasUsed": "0xbc67",
      "logs": [],
      "logsBloom": "0x00000000000000000000000000000000000000000000000000000000000000000000000000000000000000000000000000000000000000000000000000000000000000000000000000000000000000000000000000000000000000000000000000000000000000000000000000000000000000000000000000000000000000000000000000000000000000000000000000000000000000000000000000000000000000000000000000000000000000000000000000000000000000000000000000000000000000000000000000000000000000000000000000000000000000000000000000000000000000000000000000000000000000000000000000000000",
      "type": "0x0",
      "transactionHash": "0xda3069f032a419ce842f2cfe5bcb479abc2d5354211fbae675ccd854088d8747",
      "transactionIndex": "0x0",
      "blockHash": "0x36e953bf8f5d6033375db75a0d034a17153e2cd7b3e56a2a31ee92cf25377f43",
      "blockNumber": "0x2c1879b",
      "gasUsed": "0xbc67",
      "effectiveGasPrice": "0x174876e800",
      "from": "0xe62ab4d111f968660c6b2188046f9b9ba53c4bae",
      "to": "0xdc44569f688a91ba3517c292de75e30ea284eea0",
      "contractAddress": null
    },
    {
      "status": "0x1",
      "cumulativeGasUsed": "0xbc7e",
      "logs": [],
      "logsBloom": "0x00000000000000000000000000000000000000000000000000000000000000000000000000000000000000000000000000000000000000000000000000000000000000000000000000000000000000000000000000000000000000000000000000000000000000000000000000000000000000000000000000000000000000000000000000000000000000000000000000000000000000000000000000000000000000000000000000000000000000000000000000000000000000000000000000000000000000000000000000000000000000000000000000000000000000000000000000000000000000000000000000000000000000000000000000000000",
      "type": "0x0",
      "transactionHash": "0xc2abcf36ecfae77e12a8eb9f0bb7749fa1bc89852fc5b7b3baa5e60ca2258e62",
      "transactionIndex": "0x0",
      "blockHash": "0xedf58b997baf776ae10b8db5d205a28ce3d5563bd54032129bd44e75396a1da2",
      "blockNumber": "0x2c1879e",
      "gasUsed": "0xbc7e",
      "effectiveGasPrice": "0x174876e800",
      "from": "0xe62ab4d111f968660c6b2188046f9b9ba53c4bae",
      "to": "0xdc44569f688a91ba3517c292de75e30ea284eea0",
      "contractAddress": null
    },
    {
      "status": "0x1",
      "cumulativeGasUsed": "0xbc95",
      "logs": [],
      "logsBloom": "0x00000000000000000000000000000000000000000000000000000000000000000000000000000000000000000000000000000000000000000000000000000000000000000000000000000000000000000000000000000000000000000000000000000000000000000000000000000000000000000000000000000000000000000000000000000000000000000000000000000000000000000000000000000000000000000000000000000000000000000000000000000000000000000000000000000000000000000000000000000000000000000000000000000000000000000000000000000000000000000000000000000000000000000000000000000000",
      "type": "0x0",
      "transactionHash": "0xbc9aa2cded2d76fa3f624da2d450d6c2d3b4e5e0adf20b8e6a825dcb3caca8f9",
      "transactionIndex": "0x0",
      "blockHash": "0x28ff54fc2952ae4979995259fd60de5bb9772756cfab0a3affa04cbdecd831c7",
      "blockNumber": "0x2c187a0",
      "gasUsed": "0xbc95",
      "effectiveGasPrice": "0x174876e800",
      "from": "0xe62ab4d111f968660c6b2188046f9b9ba53c4bae",
      "to": "0xdc44569f688a91ba3517c292de75e30ea284eea0",
      "contractAddress": null
    },
    {
      "status": "0x1",
      "cumulativeGasUsed": "0xbcac",
      "logs": [],
      "logsBloom": "0x00000000000000000000000000000000000000000000000000000000000000000000000000000000000000000000000000000000000000000000000000000000000000000000000000000000000000000000000000000000000000000000000000000000000000000000000000000000000000000000000000000000000000000000000000000000000000000000000000000000000000000000000000000000000000000000000000000000000000000000000000000000000000000000000000000000000000000000000000000000000000000000000000000000000000000000000000000000000000000000000000000000000000000000000000000000",
      "type": "0x0",
      "transactionHash": "0xdcd2d597f4d7ed37fff22b477cb2cc8cdb4fb88e4b7f79ac0ad19d026e7856fb",
      "transactionIndex": "0x0",
      "blockHash": "0x2abf5cb3d0c7d06b2f61d3210a9b72270ad620f7707611cc2d529403ca397ca0",
      "blockNumber": "0x2c187a3",
      "gasUsed": "0xbcac",
      "effectiveGasPrice": "0x174876e800",
      "from": "0xe62ab4d111f968660c6b2188046f9b9ba53c4bae",
      "to": "0xdc44569f688a91ba3517c292de75e30ea284eea0",
      "contractAddress": null
    },
    {
      "status": "0x1",
      "cumulativeGasUsed": "0xbcc3",
      "logs": [],
      "logsBloom": "0x00000000000000000000000000000000000000000000000000000000000000000000000000000000000000000000000000000000000000000000000000000000000000000000000000000000000000000000000000000000000000000000000000000000000000000000000000000000000000000000000000000000000000000000000000000000000000000000000000000000000000000000000000000000000000000000000000000000000000000000000000000000000000000000000000000000000000000000000000000000000000000000000000000000000000000000000000000000000000000000000000000000000000000000000000000000",
      "type": "0x0",
      "transactionHash": "0x82e426545c3d6cc5e24b15c0ac29cd45f01aea3bf8ce7c7270fc420f735dd560",
      "transactionIndex": "0x0",
      "blockHash": "0xafc83b02d94e2fdf5794fba4ae188b231946a2280c9455477f7aebd7f93d0983",
      "blockNumber": "0x2c187a5",
      "gasUsed": "0xbcc3",
      "effectiveGasPrice": "0x174876e800",
      "from": "0xe62ab4d111f968660c6b2188046f9b9ba53c4bae",
      "to": "0xdc44569f688a91ba3517c292de75e30ea284eea0",
      "contractAddress": null
    },
    {
      "status": "0x1",
      "cumulativeGasUsed": "0x20718",
      "logs": [],
      "logsBloom": "0x00000000000000000000000000000000000000000000000000000000000000000000000000000000000000000000000000000000000000000000000000000000000000000000000000000000000000000000000000000000000000000000000000000000000000000000000000000000000000000000000000000000000000000000000000000000000000000000000000000000000000000000000000000000000000000000000000000000000000000000000000000000000000000000000000000000000000000000000000000000000000000000000000000000000000000000000000000000000000000000000000000000000000000000000000000000",
      "type": "0x0",
      "transactionHash": "0x0dbd78871bb23fd6986b9e4fd3eb527f0326b79e5c8d5c2ecd8f12aa4525337f",
      "transactionIndex": "0x1",
      "blockHash": "0x8a9478dc2e43891abc3ed4f9b63e9bc98c1cd67f4192622689e612e00be4eaa4",
      "blockNumber": "0x2c187a7",
      "gasUsed": "0xbcda",
      "effectiveGasPrice": "0x174876e800",
      "from": "0xe62ab4d111f968660c6b2188046f9b9ba53c4bae",
      "to": "0xdc44569f688a91ba3517c292de75e30ea284eea0",
      "contractAddress": null
    },
    {
      "status": "0x1",
      "cumulativeGasUsed": "0xbcf1",
      "logs": [],
      "logsBloom": "0x00000000000000000000000000000000000000000000000000000000000000000000000000000000000000000000000000000000000000000000000000000000000000000000000000000000000000000000000000000000000000000000000000000000000000000000000000000000000000000000000000000000000000000000000000000000000000000000000000000000000000000000000000000000000000000000000000000000000000000000000000000000000000000000000000000000000000000000000000000000000000000000000000000000000000000000000000000000000000000000000000000000000000000000000000000000",
      "type": "0x0",
      "transactionHash": "0xb1633a722f87db3fa7762787519c6b633761102f4b8b96247990df2f3d081d16",
      "transactionIndex": "0x0",
      "blockHash": "0xca8e7d5bb7225ac102e4e620f897e4c82a4541999176d5a68947e2ef1f66a796",
      "blockNumber": "0x2c187aa",
      "gasUsed": "0xbcf1",
      "effectiveGasPrice": "0x174876e800",
      "from": "0xe62ab4d111f968660c6b2188046f9b9ba53c4bae",
      "to": "0xdc44569f688a91ba3517c292de75e30ea284eea0",
      "contractAddress": null
    },
    {
      "status": "0x1",
      "cumulativeGasUsed": "0xbd08",
      "logs": [],
      "logsBloom": "0x00000000000000000000000000000000000000000000000000000000000000000000000000000000000000000000000000000000000000000000000000000000000000000000000000000000000000000000000000000000000000000000000000000000000000000000000000000000000000000000000000000000000000000000000000000000000000000000000000000000000000000000000000000000000000000000000000000000000000000000000000000000000000000000000000000000000000000000000000000000000000000000000000000000000000000000000000000000000000000000000000000000000000000000000000000000",
      "type": "0x0",
      "transactionHash": "0xec4859004ce122bd232e2e8f8e0e052fba8c31b583d2d8928f329fec7f921f6d",
      "transactionIndex": "0x0",
      "blockHash": "0x8c20d48f0efbfe773f7260acd0f2d78b2eff9897c18d99f116f7acd3e0bda333",
      "blockNumber": "0x2c187ac",
      "gasUsed": "0xbd08",
      "effectiveGasPrice": "0x174876e800",
      "from": "0xe62ab4d111f968660c6b2188046f9b9ba53c4bae",
      "to": "0xdc44569f688a91ba3517c292de75e30ea284eea0",
      "contractAddress": null
    },
    {
      "status": "0x1",
      "cumulativeGasUsed": "0x1b812",
      "logs": [],
      "logsBloom": "0x00000000000000000000000000000000000000000000000000000000000000000000000000000000000000000000000000000000000000000000000000000000000000000000000000000000000000000000000000000000000000000000000000000000000000000000000000000000000000000000000000000000000000000000000000000000000000000000000000000000000000000000000000000000000000000000000000000000000000000000000000000000000000000000000000000000000000000000000000000000000000000000000000000000000000000000000000000000000000000000000000000000000000000000000000000000",
      "type": "0x0",
      "transactionHash": "0xe83757356ba7b3e71e7e49293c0d2dc6d58526fb481cb8df9ef37b8e7e66cc20",
      "transactionIndex": "0x1",
      "blockHash": "0x6bba659ab254586cc77a462723952d21cc6ada4ac2accac2b29eaf21d82bacc7",
      "blockNumber": "0x2c187af",
      "gasUsed": "0xbd1f",
      "effectiveGasPrice": "0x174876e800",
      "from": "0xe62ab4d111f968660c6b2188046f9b9ba53c4bae",
      "to": "0xdc44569f688a91ba3517c292de75e30ea284eea0",
      "contractAddress": null
    },
    {
      "status": "0x1",
      "cumulativeGasUsed": "0xbd36",
      "logs": [],
      "logsBloom": "0x00000000000000000000000000000000000000000000000000000000000000000000000000000000000000000000000000000000000000000000000000000000000000000000000000000000000000000000000000000000000000000000000000000000000000000000000000000000000000000000000000000000000000000000000000000000000000000000000000000000000000000000000000000000000000000000000000000000000000000000000000000000000000000000000000000000000000000000000000000000000000000000000000000000000000000000000000000000000000000000000000000000000000000000000000000000",
      "type": "0x0",
      "transactionHash": "0xc0a949192d45c28baaa4e28bf0d7e8a8ac91b5f14ec3077eaa96461f32caa0e9",
      "transactionIndex": "0x0",
      "blockHash": "0xf0f51bf9c65fdbea8bde3d8bde7361ac42c307732016b2396120a141fb45d83d",
      "blockNumber": "0x2c187b1",
      "gasUsed": "0xbd36",
      "effectiveGasPrice": "0x174876e800",
      "from": "0xe62ab4d111f968660c6b2188046f9b9ba53c4bae",
      "to": "0xdc44569f688a91ba3517c292de75e30ea284eea0",
      "contractAddress": null
    },
    {
      "status": "0x1",
      "cumulativeGasUsed": "0x2078b",
      "logs": [],
      "logsBloom": "0x00000000000000000000000000000000000000000000000000000000000000000000000000000000000000000000000000000000000000000000000000000000000000000000000000000000000000000000000000000000000000000000000000000000000000000000000000000000000000000000000000000000000000000000000000000000000000000000000000000000000000000000000000000000000000000000000000000000000000000000000000000000000000000000000000000000000000000000000000000000000000000000000000000000000000000000000000000000000000000000000000000000000000000000000000000000",
      "type": "0x0",
      "transactionHash": "0x569a3d4865bb86d6ba9e70545c562a0764e2e365cf9fe20f5ed70a8b973fe2dd",
      "transactionIndex": "0x1",
      "blockHash": "0x9b1959e2b0caf06f43b048ca64adac793ccddb7e16f36282a52bb12cbe63711f",
      "blockNumber": "0x2c187b3",
      "gasUsed": "0xbd4d",
      "effectiveGasPrice": "0x174876e800",
      "from": "0xe62ab4d111f968660c6b2188046f9b9ba53c4bae",
      "to": "0xdc44569f688a91ba3517c292de75e30ea284eea0",
      "contractAddress": null
    },
    {
      "status": "0x1",
      "cumulativeGasUsed": "0x1b8af",
      "logs": [],
      "logsBloom": "0x00000000000000000000000000000000000000000000000000000000000000000000000000000000000000000000000000000000000000000000000000000000000000000000000000000000000000000000000000000000000000000000000000000000000000000000000000000000000000000000000000000000000000000000000000000000000000000000000000000000000000000000000000000000000000000000000000000000000000000000000000000000000000000000000000000000000000000000000000000000000000000000000000000000000000000000000000000000000000000000000000000000000000000000000000000000",
      "type": "0x0",
      "transactionHash": "0x71ac59cb66a0100b6820c40539d03e52d88c5d5acc56ca73b9d619afd868c345",
      "transactionIndex": "0x1",
      "blockHash": "0xa4439a4a26fb5d7c78920ae265e2836d041d78684092ad66e3a4838ca0ed70b1",
      "blockNumber": "0x2c187b6",
      "gasUsed": "0xbd64",
      "effectiveGasPrice": "0x174876e800",
      "from": "0xe62ab4d111f968660c6b2188046f9b9ba53c4bae",
      "to": "0xdc44569f688a91ba3517c292de75e30ea284eea0",
      "contractAddress": null
    },
    {
      "status": "0x1",
      "cumulativeGasUsed": "0xbd7b",
      "logs": [],
      "logsBloom": "0x00000000000000000000000000000000000000000000000000000000000000000000000000000000000000000000000000000000000000000000000000000000000000000000000000000000000000000000000000000000000000000000000000000000000000000000000000000000000000000000000000000000000000000000000000000000000000000000000000000000000000000000000000000000000000000000000000000000000000000000000000000000000000000000000000000000000000000000000000000000000000000000000000000000000000000000000000000000000000000000000000000000000000000000000000000000",
      "type": "0x0",
      "transactionHash": "0x70077b8d8435a24bb0f37bc916faf8f2ae9f092d4f7338fec24bbe70df586e37",
      "transactionIndex": "0x0",
      "blockHash": "0x52f275f2a4f6648262101818b5b7dfbc14fa2f169b5bdbbb2deb439df592c41f",
      "blockNumber": "0x2c187b8",
      "gasUsed": "0xbd7b",
      "effectiveGasPrice": "0x174876e800",
      "from": "0xe62ab4d111f968660c6b2188046f9b9ba53c4bae",
      "to": "0xdc44569f688a91ba3517c292de75e30ea284eea0",
      "contractAddress": null
    },
    {
      "status": "0x1",
      "cumulativeGasUsed": "0xbd92",
      "logs": [],
      "logsBloom": "0x00000000000000000000000000000000000000000000000000000000000000000000000000000000000000000000000000000000000000000000000000000000000000000000000000000000000000000000000000000000000000000000000000000000000000000000000000000000000000000000000000000000000000000000000000000000000000000000000000000000000000000000000000000000000000000000000000000000000000000000000000000000000000000000000000000000000000000000000000000000000000000000000000000000000000000000000000000000000000000000000000000000000000000000000000000000",
      "type": "0x0",
      "transactionHash": "0xeb1e4338962e48d975dd57cfa267e275a918ada5062672b439f12fc5207cc884",
      "transactionIndex": "0x0",
      "blockHash": "0x80597511a7ac3b54e70d34bd15158548ec9af90bcbb828e69076f619753654a1",
      "blockNumber": "0x2c187bb",
      "gasUsed": "0xbd92",
      "effectiveGasPrice": "0x174876e800",
      "from": "0xe62ab4d111f968660c6b2188046f9b9ba53c4bae",
      "to": "0xdc44569f688a91ba3517c292de75e30ea284eea0",
      "contractAddress": null
    },
    {
      "status": "0x1",
      "cumulativeGasUsed": "0x18e6a",
      "logs": [],
      "logsBloom": "0x00000000000000000000000000000000000000000000000000000000000000000000000000000000000000000000000000000000000000000000000000000000000000000000000000000000000000000000000000000000000000000000000000000000000000000000000000000000000000000000000000000000000000000000000000000000000000000000000000000000000000000000000000000000000000000000000000000000000000000000000000000000000000000000000000000000000000000000000000000000000000000000000000000000000000000000000000000000000000000000000000000000000000000000000000000000",
      "type": "0x0",
      "transactionHash": "0xe713bdd2d001be75dea54055d0242018b60d17a7a905332547506eab6505e005",
      "transactionIndex": "0x1",
      "blockHash": "0xfa68d462ee8976b6b1a852102f63b2525b366e960b3ca25f50399a72d23be8bd",
      "blockNumber": "0x2c187bd",
      "gasUsed": "0xbda9",
      "effectiveGasPrice": "0x174876e800",
      "from": "0xe62ab4d111f968660c6b2188046f9b9ba53c4bae",
      "to": "0xdc44569f688a91ba3517c292de75e30ea284eea0",
      "contractAddress": null
    },
    {
      "status": "0x1",
      "cumulativeGasUsed": "0xbdbb",
      "logs": [],
      "logsBloom": "0x00000000000000000000000000000000000000000000000000000000000000000000000000000000000000000000000000000000000000000000000000000000000000000000000000000000000000000000000000000000000000000000000000000000000000000000000000000000000000000000000000000000000000000000000000000000000000000000000000000000000000000000000000000000000000000000000000000000000000000000000000000000000000000000000000000000000000000000000000000000000000000000000000000000000000000000000000000000000000000000000000000000000000000000000000000000",
      "type": "0x0",
      "transactionHash": "0x4431dca67398f52e92fcdbd78280af8e32c7c3bd885e4221cb35993a3f8bab99",
      "transactionIndex": "0x0",
      "blockHash": "0x317923a3f6b975b3be0d148102766b487ff6e9761f2297f6de84581449b41f5a",
      "blockNumber": "0x2c187c0",
      "gasUsed": "0xbdbb",
      "effectiveGasPrice": "0x174876e800",
      "from": "0xe62ab4d111f968660c6b2188046f9b9ba53c4bae",
      "to": "0xdc44569f688a91ba3517c292de75e30ea284eea0",
      "contractAddress": null
    },
    {
      "status": "0x1",
      "cumulativeGasUsed": "0x49ee0",
      "logs": [],
      "logsBloom": "0x00000000000000000000000000000000000000000000000000000000000000000000000000000000000000000000000000000000000000000000000000000000000000000000000000000000000000000000000000000000000000000000000000000000000000000000000000000000000000000000000000000000000000000000000000000000000000000000000000000000000000000000000000000000000000000000000000000000000000000000000000000000000000000000000000000000000000000000000000000000000000000000000000000000000000000000000000000000000000000000000000000000000000000000000000000000",
      "type": "0x0",
      "transactionHash": "0xb3a9820a9863035f5e43d5149a8fcfa46d39c3e8380f8650f0e73d3cb1c1006b",
      "transactionIndex": "0x1",
      "blockHash": "0x533b58f12152b709d700a2ed9e06abff6090ea52cc7a16c24b5c3e0c08aaa59e",
      "blockNumber": "0x2c187c2",
      "gasUsed": "0x226da",
      "effectiveGasPrice": "0x174876e800",
      "from": "0xe62ab4d111f968660c6b2188046f9b9ba53c4bae",
      "to": "0xdc44569f688a91ba3517c292de75e30ea284eea0",
      "contractAddress": null
    },
    {
      "status": "0x1",
      "cumulativeGasUsed": "0x1ea5a",
      "logs": [],
      "logsBloom": "0x00000000000000000000000000000000000000000000000000000000000000000000000000000000000000000000000000000000000000000000000000000000000000000000000000000000000000000000000000000000000000000000000000000000000000000000000000000000000000000000000000000000000000000000000000000000000000000000000000000000000000000000000000000000000000000000000000000000000000000000000000000000000000000000000000000000000000000000000000000000000000000000000000000000000000000000000000000000000000000000000000000000000000000000000000000000",
      "type": "0x0",
      "transactionHash": "0xc2ff66de7f76ebe5e9dee8af0576600bbde5283ef33a0c3722f538fb70048a82",
      "transactionIndex": "0x0",
      "blockHash": "0xbca0a8d32d4c603079ed5f5600dfefeab2b08b50a3e7b99c25a10e395486560b",
      "blockNumber": "0x2c187c5",
      "gasUsed": "0x1ea5a",
      "effectiveGasPrice": "0x174876e800",
      "from": "0xe62ab4d111f968660c6b2188046f9b9ba53c4bae",
      "to": "0xdc44569f688a91ba3517c292de75e30ea284eea0",
      "contractAddress": null
    },
    {
      "status": "0x1",
      "cumulativeGasUsed": "0x1ea5a",
      "logs": [],
      "logsBloom": "0x00000000000000000000000000000000000000000000000000000000000000000000000000000000000000000000000000000000000000000000000000000000000000000000000000000000000000000000000000000000000000000000000000000000000000000000000000000000000000000000000000000000000000000000000000000000000000000000000000000000000000000000000000000000000000000000000000000000000000000000000000000000000000000000000000000000000000000000000000000000000000000000000000000000000000000000000000000000000000000000000000000000000000000000000000000000",
      "type": "0x0",
      "transactionHash": "0x44c605c7fa05d90673f5b9abc3a42e64521452b9579cdb1d26f28e2b68d1ef5b",
      "transactionIndex": "0x0",
      "blockHash": "0x13e8f19a1846f4c2dc7ddf238681edb6cc467883bbcb9a1f00eeb58c92700a00",
      "blockNumber": "0x2c187c7",
      "gasUsed": "0x1ea5a",
      "effectiveGasPrice": "0x174876e800",
      "from": "0xe62ab4d111f968660c6b2188046f9b9ba53c4bae",
      "to": "0xdc44569f688a91ba3517c292de75e30ea284eea0",
      "contractAddress": null
    },
    {
      "status": "0x1",
      "cumulativeGasUsed": "0x3300c",
      "logs": [],
      "logsBloom": "0x00000000000000000000000000000000000000000000000000000000000000000000000000000000000000000000000000000000000000000000000000000000000000000000000000000000000000000000000000000000000000000000000000000000000000000000000000000000000000000000000000000000000000000000000000000000000000000000000000000000000000000000000000000000000000000000000000000000000000000000000000000000000000000000000000000000000000000000000000000000000000000000000000000000000000000000000000000000000000000000000000000000000000000000000000000000",
      "type": "0x0",
      "transactionHash": "0x33531c999c883fc47457ea6d3078c5f7d7df7b22756d1deb71087fe7ac19d80e",
      "transactionIndex": "0x1",
      "blockHash": "0x8d364444266e7d8bc6b66351ae5128d4eae02bbd18e5ce7969defafd1a69b5e2",
      "blockNumber": "0x2c187c9",
      "gasUsed": "0x1e5ce",
      "effectiveGasPrice": "0x174876e800",
      "from": "0xe62ab4d111f968660c6b2188046f9b9ba53c4bae",
      "to": "0xdc44569f688a91ba3517c292de75e30ea284eea0",
      "contractAddress": null
    },
    {
      "status": "0x1",
      "cumulativeGasUsed": "0x1eee6",
      "logs": [],
      "logsBloom": "0x00000000000000000000000000000000000000000000000000000000000000000000000000000000000000000000000000000000000000000000000000000000000000000000000000000000000000000000000000000000000000000000000000000000000000000000000000000000000000000000000000000000000000000000000000000000000000000000000000000000000000000000000000000000000000000000000000000000000000000000000000000000000000000000000000000000000000000000000000000000000000000000000000000000000000000000000000000000000000000000000000000000000000000000000000000000",
      "type": "0x0",
      "transactionHash": "0x5ba0c971e84517221e82ec2bf2746d95b743e7c04bea5de53be8d9d9df79b029",
      "transactionIndex": "0x0",
      "blockHash": "0x9d2cbc63e7cfa1c99cc300a5d6bfb0aca38c1e95860cdc81b337bcc2818f6514",
      "blockNumber": "0x2c187cc",
      "gasUsed": "0x1eee6",
      "effectiveGasPrice": "0x174876e800",
      "from": "0xe62ab4d111f968660c6b2188046f9b9ba53c4bae",
      "to": "0xdc44569f688a91ba3517c292de75e30ea284eea0",
      "contractAddress": null
    },
    {
      "status": "0x1",
      "cumulativeGasUsed": "0x8ffc2",
      "logs": [],
      "logsBloom": "0x00000000000000000000000000000000000000000000000000000000000000000000000000000000000000000000000000000000000000000000000000000000000000000000000000000000000000000000000000000000000000000000000000000000000000000000000000000000000000000000000000000000000000000000000000000000000000000000000000000000000000000000000000000000000000000000000000000000000000000000000000000000000000000000000000000000000000000000000000000000000000000000000000000000000000000000000000000000000000000000000000000000000000000000000000000000",
      "type": "0x0",
      "transactionHash": "0x7ed7babb7e7b67b02717a6c3d36646a5f7174974fec9e57324d34008bacefa41",
      "transactionIndex": "0x1",
      "blockHash": "0x404d0b2937500e16656aea4fc24ae6d193d227ff2e5ef69e762b6686d88e5b57",
      "blockNumber": "0x2c187ce",
      "gasUsed": "0x7b584",
      "effectiveGasPrice": "0x174876e800",
      "from": "0xe62ab4d111f968660c6b2188046f9b9ba53c4bae",
      "to": "0x7240fcdb0dd116293044ed50db499680aa532eeb",
      "contractAddress": null
    },
    {
      "status": "0x1",
      "cumulativeGasUsed": "0xd1a84",
      "logs": [],
      "logsBloom": "0x00000000000000000000000000000000000000000000000000000000000000000000000000000000000000000000000000000000000000000000000000000000000000000000000000000000000000000000000000000000000000000000000000000000000000000000000000000000000000000000000000000000000000000000000000000000000000000000000000000000000000000000000000000000000000000000000000000000000000000000000000000000000000000000000000000000000000000000000000000000000000000000000000000000000000000000000000000000000000000000000000000000000000000000000000000000",
      "type": "0x0",
      "transactionHash": "0xb2e476d53809426bd2d10e1d7e2ca116a2153f979768c835ddc0bd15a4cb751a",
      "transactionIndex": "0x1",
      "blockHash": "0xa73ad068acb6c411753f65d0d67a9bc0eb2c05e6104a019c5adc442012781ebd",
      "blockNumber": "0x2c187d0",
      "gasUsed": "0xbd046",
      "effectiveGasPrice": "0x174876e800",
      "from": "0xe62ab4d111f968660c6b2188046f9b9ba53c4bae",
      "to": "0x7240fcdb0dd116293044ed50db499680aa532eeb",
      "contractAddress": null
    },
    {
      "status": "0x1",
      "cumulativeGasUsed": "0xc9df9",
      "logs": [],
      "logsBloom": "0x00000000000000000000000000000000000000000000000000000000000000000000000000000000000000000000000000000000000000000000000000000000000000000000000000000000000000000000000000000000000000000000000000000000000000000000000000000000000000000000000000000000000000000000000000000000000000000000000000000000000000000000000000000000000000000000000000000000000000000000000000000000000000000000000000000000000000000000000000000000000000000000000000000000000000000000000000000000000000000000000000000000000000000000000000000000",
      "type": "0x0",
      "transactionHash": "0xb514438c010b1091b3aa5d174ca40497f7cab3dca7c87c652cff90a5ff7176e9",
      "transactionIndex": "0x2",
      "blockHash": "0x07741d56bfb5b427c5f068e20795237058e0962e73072ed507399488e9aa8364",
      "blockNumber": "0x2c187d3",
      "gasUsed": "0x9be17",
      "effectiveGasPrice": "0x174876e800",
      "from": "0xe62ab4d111f968660c6b2188046f9b9ba53c4bae",
      "to": "0x7240fcdb0dd116293044ed50db499680aa532eeb",
      "contractAddress": null
    }
  ],
  "libraries": [],
  "pending": [],
  "returns": {},
  "timestamp": 1733434144,
  "chain": 97,
  "commit": "d684feb7"
}