{
  "transactions": [
    {
      "hash": "0x1412da2690eba7a86072182174460fe062f9d0ce599540759dc29093695423a8",
      "transactionType": "CALL",
      "contractName": null,
      "contractAddress": "0x4146fe54fd379fd095c227ea012a50387674766d",
      "function": "addChainContract(string[],string[])",
      "arguments": [
        "[43113]",
        "[0x005c5fd1585a73817107bfd3929f7e559750ceed]"
      ],
      "transaction": {
        "from": "0xe62ab4d111f968660c6b2188046f9b9ba53c4bae",
        "to": "0x4146fe54fd379fd095c227ea012a50387674766d",
        "gas": "0x4b948",
        "value": "0x0",
        "input": "0x013fd3bd000000000000000000000000000000000000000000000000000000000000004000000000000000000000000000000000000000000000000000000000000000c0000000000000000000000000000000000000000000000000000000000000000100000000000000000000000000000000000000000000000000000000000000200000000000000000000000000000000000000000000000000000000000000005343331313300000000000000000000000000000000000000000000000000000000000000000000000000000000000000000000000000000000000000000000010000000000000000000000000000000000000000000000000000000000000020000000000000000000000000000000000000000000000000000000000000002a30783030356335666431353835613733383137313037626664333932396637653535393735306365656400000000000000000000000000000000000000000000",
        "nonce": "0x41a",
        "chainId": "0x61"
      },
      "additionalContracts": [],
      "isFixedGasLimit": false
    },
    {
      "hash": "0x573b114a9fed125e2e854c433f5c4f4e19b9293554b7f67e1872f0ac7ae5ae90",
      "transactionType": "CALL",
      "contractName": null,
      "contractAddress": "0x4146fe54fd379fd095c227ea012a50387674766d",
      "function": "attachRWAX(uint256,uint256,string[],string[])",
      "arguments": [
        "1",
        "1",
        "[43113]",
        "[0xdef5d31e4b2e0bf38af3e8092a5abf51db484eec]"
      ],
      "transaction": {
        "from": "0xe62ab4d111f968660c6b2188046f9b9ba53c4bae",
        "to": "0x4146fe54fd379fd095c227ea012a50387674766d",
        "gas": "0x5c781",
        "value": "0x0",
        "input": "0x33a5f5b40000000000000000000000000000000000000000000000000000000000000001000000000000000000000000000000000000000000000000000000000000000100000000000000000000000000000000000000000000000000000000000000800000000000000000000000000000000000000000000000000000000000000100000000000000000000000000000000000000000000000000000000000000000100000000000000000000000000000000000000000000000000000000000000200000000000000000000000000000000000000000000000000000000000000005343331313300000000000000000000000000000000000000000000000000000000000000000000000000000000000000000000000000000000000000000000010000000000000000000000000000000000000000000000000000000000000020000000000000000000000000000000000000000000000000000000000000002a30786465663564333165346232653062663338616633653830393261356162663531646234383465656300000000000000000000000000000000000000000000",
        "nonce": "0x41b",
        "chainId": "0x61"
      },
      "additionalContracts": [],
      "isFixedGasLimit": false
    },
    {
      "hash": "0x6d55cd1423c49d405c402c91a08be87e7fa2c9a472ba436418cf0d504573eed5",
      "transactionType": "CALL",
      "contractName": null,
      "contractAddress": "0x4146fe54fd379fd095c227ea012a50387674766d",
      "function": "attachStorageManager(uint256,uint256,string[],string[])",
      "arguments": [
        "1",
        "1",
        "[43113]",
        "[0xcacf2003d4bc2e19c865e65ebb9d57c440217f0f]"
      ],
      "transaction": {
        "from": "0xe62ab4d111f968660c6b2188046f9b9ba53c4bae",
        "to": "0x4146fe54fd379fd095c227ea012a50387674766d",
        "gas": "0x525dd",
        "value": "0x0",
        "input": "0x2f68b4890000000000000000000000000000000000000000000000000000000000000001000000000000000000000000000000000000000000000000000000000000000100000000000000000000000000000000000000000000000000000000000000800000000000000000000000000000000000000000000000000000000000000100000000000000000000000000000000000000000000000000000000000000000100000000000000000000000000000000000000000000000000000000000000200000000000000000000000000000000000000000000000000000000000000005343331313300000000000000000000000000000000000000000000000000000000000000000000000000000000000000000000000000000000000000000000010000000000000000000000000000000000000000000000000000000000000020000000000000000000000000000000000000000000000000000000000000002a30786361636632303033643462633265313963383635653635656262396435376334343032313766306600000000000000000000000000000000000000000000",
        "nonce": "0x41c",
        "chainId": "0x61"
      },
      "additionalContracts": [],
      "isFixedGasLimit": false
    },
    {
      "hash": "0x4549f982eb2d174e4ba1edf7c2eaa1c59e0f4cea5c55296c83cebac53d668d47",
      "transactionType": "CALL",
      "contractName": null,
      "contractAddress": "0x4146fe54fd379fd095c227ea012a50387674766d",
      "function": "attachSentryManager(uint256,uint256,string[],string[])",
      "arguments": [
        "1",
        "1",
        "[43113]",
        "[0xf53fb9bb64ab9d3d78f976735762c5af9b5ff341]"
      ],
      "transaction": {
        "from": "0xe62ab4d111f968660c6b2188046f9b9ba53c4bae",
        "to": "0x4146fe54fd379fd095c227ea012a50387674766d",
        "gas": "0x4dc51",
        "value": "0x0",
        "input": "0x349de7970000000000000000000000000000000000000000000000000000000000000001000000000000000000000000000000000000000000000000000000000000000100000000000000000000000000000000000000000000000000000000000000800000000000000000000000000000000000000000000000000000000000000100000000000000000000000000000000000000000000000000000000000000000100000000000000000000000000000000000000000000000000000000000000200000000000000000000000000000000000000000000000000000000000000005343331313300000000000000000000000000000000000000000000000000000000000000000000000000000000000000000000000000000000000000000000010000000000000000000000000000000000000000000000000000000000000020000000000000000000000000000000000000000000000000000000000000002a30786635336662396262363461623964336437386639373637333537363263356166396235666633343100000000000000000000000000000000000000000000",
        "nonce": "0x41d",
        "chainId": "0x61"
      },
      "additionalContracts": [],
      "isFixedGasLimit": false
    }
  ],
  "receipts": [
    {
      "status": "0x1",
      "cumulativeGasUsed": "0x41c9b",
      "logs": [],
      "logsBloom": "0x00000000000000000000000000000000000000000000000000000000000000000000000000000000000000000000000000000000000000000000000000000000000000000000000000000000000000000000000000000000000000000000000000000000000000000000000000000000000000000000000000000000000000000000000000000000000000000000000000000000000000000000000000000000000000000000000000000000000000000000000000000000000000000000000000000000000000000000000000000000000000000000000000000000000000000000000000000000000000000000000000000000000000000000000000000000",
      "type": "0x0",
      "transactionHash": "0x1412da2690eba7a86072182174460fe062f9d0ce599540759dc29093695423a8",
      "transactionIndex": "0x1",
      "blockHash": "0xcc24a3f230d2d87dfd8202e73382e700adbc596f996a379cda7185607555ccef",
      "blockNumber": "0x2f0ef27",
      "gasUsed": "0x36b80",
      "effectiveGasPrice": "0x2540be400",
      "from": "0xe62ab4d111f968660c6b2188046f9b9ba53c4bae",
      "to": "0x4146fe54fd379fd095c227ea012a50387674766d",
      "contractAddress": null
    },
    {
      "status": "0x1",
      "cumulativeGasUsed": "0x3f3a1",
      "logs": [],
      "logsBloom": "0x00000000000000000000000000000000000000000000000000000000000000000000000000000000000000000000000000000000000000000000000000000000000000000000000000000000000000000000000000000000000000000000000000000000000000000000000000000000000000000000000000000000000000000000000000000000000000000000000000000000000000000000000000000000000000000000000000000000000000000000000000000000000000000000000000000000000000000000000000000000000000000000000000000000000000000000000000000000000000000000000000000000000000000000000000000000",
      "type": "0x0",
      "transactionHash": "0x573b114a9fed125e2e854c433f5c4f4e19b9293554b7f67e1872f0ac7ae5ae90",
      "transactionIndex": "0x0",
      "blockHash": "0x5e5ba5a68439582677558a3a29c9fda07b90790240a67177ecd30a77910343b2",
      "blockNumber": "0x2f0ef29",
      "gasUsed": "0x3f3a1",
      "effectiveGasPrice": "0x2540be400",
      "from": "0xe62ab4d111f968660c6b2188046f9b9ba53c4bae",
      "to": "0x4146fe54fd379fd095c227ea012a50387674766d",
      "contractAddress": null
    },
    {
      "status": "0x1",
      "cumulativeGasUsed": "0x3851b",
      "logs": [],
      "logsBloom": "0x00000000000000000000000000000000000000000000000000000000000000000000000000000000000000000000000000000000000000000000000000000000000000000000000000000000000000000000000000000000000000000000000000000000000000000000000000000000000000000000000000000000000000000000000000000000000000000000000000000000000000000000000000000000000000000000000000000000000000000000000000000000000000000000000000000000000000000000000000000000000000000000000000000000000000000000000000000000000000000000000000000000000000000000000000000000",
      "type": "0x0",
      "transactionHash": "0x6d55cd1423c49d405c402c91a08be87e7fa2c9a472ba436418cf0d504573eed5",
      "transactionIndex": "0x0",
      "blockHash": "0x4c87ae2cdcdc81e44e4f8b70ca4238e92826d2c744bbd9ceb9ea9eb2d65aa126",
      "blockNumber": "0x2f0ef2a",
      "gasUsed": "0x3851b",
      "effectiveGasPrice": "0x2540be400",
      "from": "0xe62ab4d111f968660c6b2188046f9b9ba53c4bae",
      "to": "0x4146fe54fd379fd095c227ea012a50387674766d",
      "contractAddress": null
    },
    {
      "status": "0x1",
      "cumulativeGasUsed": "0x384de",
      "logs": [],
      "logsBloom": "0x00000000000000000000000000000000000000000000000000000000000000000000000000000000000000000000000000000000000000000000000000000000000000000000000000000000000000000000000000000000000000000000000000000000000000000000000000000000000000000000000000000000000000000000000000000000000000000000000000000000000000000000000000000000000000000000000000000000000000000000000000000000000000000000000000000000000000000000000000000000000000000000000000000000000000000000000000000000000000000000000000000000000000000000000000000000",
      "type": "0x0",
      "transactionHash": "0x4549f982eb2d174e4ba1edf7c2eaa1c59e0f4cea5c55296c83cebac53d668d47",
      "transactionIndex": "0x0",
      "blockHash": "0xc8b15437ed154b54bcbd26bb9caff8dd60512da9dee97d8ab764eb03537573f5",
      "blockNumber": "0x2f0ef2b",
      "gasUsed": "0x384de",
      "effectiveGasPrice": "0x2540be400",
      "from": "0xe62ab4d111f968660c6b2188046f9b9ba53c4bae",
      "to": "0x4146fe54fd379fd095c227ea012a50387674766d",
      "contractAddress": null
    }
  ],
  "libraries": [],
  "pending": [],
  "returns": {},
  "timestamp": 1742756332,
  "chain": 97,
  "commit": "0d2d6543"
}