{
  "transactions": [
    {
      "hash": "0xba67ec9b7a69b8df4e520a1603e275c8efa2fec11f7f01b0c179a092cc37772a",
      "transactionType": "CALL",
      "contractName": null,
      "contractAddress": "0x7a63f6b51c503e9a3354af8262e8c7129abdbbeb",
      "function": "addChainContract(string[],string[])",
      "arguments": [
        "[5003, 153]",
        "[0x9dc772b55e95a630031ebe431706d105af01cf03, 0x24a74106195acd7e3e0a8cc17fd44761cc32474a]"
      ],
      "transaction": {
        "from": "0xe62ab4d111f968660c6b2188046f9b9ba53c4bae",
        "to": "0x7a63f6b51c503e9a3354af8262e8c7129abdbbeb",
        "gas": "0x3c07c",
        "value": "0x0",
        "input": "0x013fd3bd0000000000000000000000000000000000000000000000000000000000000040000000000000000000000000000000000000000000000000000000000000012000000000000000000000000000000000000000000000000000000000000000020000000000000000000000000000000000000000000000000000000000000040000000000000000000000000000000000000000000000000000000000000008000000000000000000000000000000000000000000000000000000000000000043530303300000000000000000000000000000000000000000000000000000000000000000000000000000000000000000000000000000000000000000000000331353300000000000000000000000000000000000000000000000000000000000000000000000000000000000000000000000000000000000000000000000002000000000000000000000000000000000000000000000000000000000000004000000000000000000000000000000000000000000000000000000000000000a0000000000000000000000000000000000000000000000000000000000000002a30783964633737326235356539356136333030333165626534333137303664313035616630316366303300000000000000000000000000000000000000000000000000000000000000000000000000000000000000000000000000000000002a30783234613734313036313935616364376533653061386363313766643434373631636333323437346100000000000000000000000000000000000000000000",
        "nonce": "0x46f",
        "chainId": "0x61"
      },
      "additionalContracts": [],
      "isFixedGasLimit": false
    },
    {
      "hash": "0x90da040579b48128c9a55075456f29f750038bed12976590b575b395fb10d281",
      "transactionType": "CALL",
      "contractName": null,
      "contractAddress": "0x7a63f6b51c503e9a3354af8262e8c7129abdbbeb",
      "function": "attachRWAX(uint256,uint256,string[],string[])",
      "arguments": [
        "1",
        "1",
        "[5003, 153]",
        "[0xad49cabd336f943a9c350b9ed60680c54fa2c3d1, 0x41388451eca7344136004d29a813dcee49577b44]"
      ],
      "transaction": {
        "from": "0xe62ab4d111f968660c6b2188046f9b9ba53c4bae",
        "to": "0x7a63f6b51c503e9a3354af8262e8c7129abdbbeb",
        "gas": "0x3eda8",
        "value": "0x0",
        "input": "0x33a5f5b4000000000000000000000000000000000000000000000000000000000000000100000000000000000000000000000000000000000000000000000000000000010000000000000000000000000000000000000000000000000000000000000080000000000000000000000000000000000000000000000000000000000000016000000000000000000000000000000000000000000000000000000000000000020000000000000000000000000000000000000000000000000000000000000040000000000000000000000000000000000000000000000000000000000000008000000000000000000000000000000000000000000000000000000000000000043530303300000000000000000000000000000000000000000000000000000000000000000000000000000000000000000000000000000000000000000000000331353300000000000000000000000000000000000000000000000000000000000000000000000000000000000000000000000000000000000000000000000002000000000000000000000000000000000000000000000000000000000000004000000000000000000000000000000000000000000000000000000000000000a0000000000000000000000000000000000000000000000000000000000000002a30786164343963616264333336663934336139633335306239656436303638306335346661326333643100000000000000000000000000000000000000000000000000000000000000000000000000000000000000000000000000000000002a30783431333838343531656361373334343133363030346432396138313364636565343935373762343400000000000000000000000000000000000000000000",
        "nonce": "0x470",
        "chainId": "0x61"
      },
      "additionalContracts": [],
      "isFixedGasLimit": false
    },
    {
      "hash": "0x5f14d01107682cb920ad6b1d367182221e0756145372c12f27ffce0089ec261b",
      "transactionType": "CALL",
      "contractName": null,
      "contractAddress": "0x7a63f6b51c503e9a3354af8262e8c7129abdbbeb",
      "function": "attachStorageManager(uint256,uint256,string[],string[])",
      "arguments": [
        "1",
        "1",
        "[5003, 153]",
        "[0xede597aa066e6d7bc84bf586c494735deb7dde9f, 0x74972e7ff5561bd902e3ec3ddd5a22653088ca6f]"
      ],
      "transaction": {
        "from": "0xe62ab4d111f968660c6b2188046f9b9ba53c4bae",
        "to": "0x7a63f6b51c503e9a3354af8262e8c7129abdbbeb",
        "gas": "0x3f195",
        "value": "0x0",
        "input": "0x2f68b489000000000000000000000000000000000000000000000000000000000000000100000000000000000000000000000000000000000000000000000000000000010000000000000000000000000000000000000000000000000000000000000080000000000000000000000000000000000000000000000000000000000000016000000000000000000000000000000000000000000000000000000000000000020000000000000000000000000000000000000000000000000000000000000040000000000000000000000000000000000000000000000000000000000000008000000000000000000000000000000000000000000000000000000000000000043530303300000000000000000000000000000000000000000000000000000000000000000000000000000000000000000000000000000000000000000000000331353300000000000000000000000000000000000000000000000000000000000000000000000000000000000000000000000000000000000000000000000002000000000000000000000000000000000000000000000000000000000000004000000000000000000000000000000000000000000000000000000000000000a0000000000000000000000000000000000000000000000000000000000000002a30786564653539376161303636653664376263383462663538366334393437333564656237646465396600000000000000000000000000000000000000000000000000000000000000000000000000000000000000000000000000000000002a30783734393732653766663535363162643930326533656333646464356132323635333038386361366600000000000000000000000000000000000000000000",
        "nonce": "0x471",
        "chainId": "0x61"
      },
      "additionalContracts": [],
      "isFixedGasLimit": false
    },
    {
      "hash": "0x342d516ba1412533dbf8a8ae666fd8e72d8a675a0785ce8c02d66fe2fc6ba50f",
      "transactionType": "CALL",
      "contractName": null,
      "contractAddress": "0x7a63f6b51c503e9a3354af8262e8c7129abdbbeb",
      "function": "attachSentryManager(uint256,uint256,string[],string[])",
      "arguments": [
        "1",
        "1",
        "[5003, 153]",
        "[0xda61b02d88d2c857da9d2da435152b08f03e2836, 0x5930640c1572bcd396eb410f62a6975ab9b8a148]"
      ],
      "transaction": {
        "from": "0xe62ab4d111f968660c6b2188046f9b9ba53c4bae",
        "to": "0x7a63f6b51c503e9a3354af8262e8c7129abdbbeb",
        "gas": "0x3ed4a",
        "value": "0x0",
        "input": "0x349de797000000000000000000000000000000000000000000000000000000000000000100000000000000000000000000000000000000000000000000000000000000010000000000000000000000000000000000000000000000000000000000000080000000000000000000000000000000000000000000000000000000000000016000000000000000000000000000000000000000000000000000000000000000020000000000000000000000000000000000000000000000000000000000000040000000000000000000000000000000000000000000000000000000000000008000000000000000000000000000000000000000000000000000000000000000043530303300000000000000000000000000000000000000000000000000000000000000000000000000000000000000000000000000000000000000000000000331353300000000000000000000000000000000000000000000000000000000000000000000000000000000000000000000000000000000000000000000000002000000000000000000000000000000000000000000000000000000000000004000000000000000000000000000000000000000000000000000000000000000a0000000000000000000000000000000000000000000000000000000000000002a30786461363162303264383864326338353764613964326461343335313532623038663033653238333600000000000000000000000000000000000000000000000000000000000000000000000000000000000000000000000000000000002a30783539333036343063313537326263643339366562343130663632613639373561623962386131343800000000000000000000000000000000000000000000",
        "nonce": "0x472",
        "chainId": "0x61"
      },
      "additionalContracts": [],
      "isFixedGasLimit": false
    }
  ],
  "receipts": [
    {
      "status": "0x1",
      "cumulativeGasUsed": "0x30968",
      "logs": [],
      "logsBloom": "0x00000000000000000000000000000000000000000000000000000000000000000000000000000000000000000000000000000000000000000000000000000000000000000000000000000000000000000000000000000000000000000000000000000000000000000000000000000000000000000000000000000000000000000000000000000000000000000000000000000000000000000000000000000000000000000000000000000000000000000000000000000000000000000000000000000000000000000000000000000000000000000000000000000000000000000000000000000000000000000000000000000000000000000000000000000000",
      "type": "0x0",
      "transactionHash": "0xba67ec9b7a69b8df4e520a1603e275c8efa2fec11f7f01b0c179a092cc37772a",
      "transactionIndex": "0x1",
      "blockHash": "0xfdf353a80ac598ddf85ab21b6392c9440c6b4a2bb990696dd37dfe877c998203",
      "blockNumber": "0x326292b",
      "gasUsed": "0x2b760",
      "effectiveGasPrice": "0x5f5e100",
      "from": "0xe62ab4d111f968660c6b2188046f9b9ba53c4bae",
      "to": "0x7a63f6b51c503e9a3354af8262e8c7129abdbbeb",
      "contractAddress": null
    },
    {
      "status": "0x1",
      "cumulativeGasUsed": "0x37c24",
      "logs": [],
      "logsBloom": "0x00000000000000000000000000000000000000000000000000000000000000000000000000000000000000000000000000000000000000000000000000000000000000000000000000000000000000000000000000000000000000000000000000000000000000000000000000000000000000000000000000000000000000000000000000000000000000000000000000000000000000000000000000000000000000000000000000000000000000000000000000000000000000000000000000000000000000000000000000000000000000000000000000000000000000000000000000000000000000000000000000000000000000000000000000000000",
      "type": "0x0",
      "transactionHash": "0x90da040579b48128c9a55075456f29f750038bed12976590b575b395fb10d281",
      "transactionIndex": "0x2",
      "blockHash": "0x971f016440519328f2adf5e51d314a91f2b21a887d70790ee4f2952f51df209a",
      "blockNumber": "0x326292f",
      "gasUsed": "0x2d814",
      "effectiveGasPrice": "0x5f5e100",
      "from": "0xe62ab4d111f968660c6b2188046f9b9ba53c4bae",
      "to": "0x7a63f6b51c503e9a3354af8262e8c7129abdbbeb",
      "contractAddress": null
    },
    {
      "status": "0x1",
      "cumulativeGasUsed": "0x2daec",
      "logs": [],
      "logsBloom": "0x00000000000000000000000000000000000000000000000000000000000000000000000000000000000000000000000000000000000000000000000000000000000000000000000000000000000000000000000000000000000000000000000000000000000000000000000000000000000000000000000000000000000000000000000000000000000000000000000000000000000000000000000000000000000000000000000000000000000000000000000000000000000000000000000000000000000000000000000000000000000000000000000000000000000000000000000000000000000000000000000000000000000000000000000000000000",
      "type": "0x0",
      "transactionHash": "0x5f14d01107682cb920ad6b1d367182221e0756145372c12f27ffce0089ec261b",
      "transactionIndex": "0x0",
      "blockHash": "0xa6f12891220dc44b38f8d52a608ee2a7e97df402f4c29af983a7994a57428098",
      "blockNumber": "0x3262933",
      "gasUsed": "0x2daec",
      "effectiveGasPrice": "0x5f5e100",
      "from": "0xe62ab4d111f968660c6b2188046f9b9ba53c4bae",
      "to": "0x7a63f6b51c503e9a3354af8262e8c7129abdbbeb",
      "contractAddress": null
    },
    {
      "status": "0x1",
      "cumulativeGasUsed": "0x38c95",
      "logs": [],
      "logsBloom": "0x00000000000000000000000000000000000000000000000000000000000000000000000000000000000000000000000000000000000000000000000000000000000000000000000000000000000000000000000000000000000000000000000000000000000000000000000000000000000000000000000000000000000000000000000000000000000000000000000000000000000000000000000000000000000000000000000000000000000000000000000000000000000000000000000000000000000000000000000000000000000000000000000000000000000000000000000000000000000000000000000000000000000000000000000000000000",
      "type": "0x0",
      "transactionHash": "0x342d516ba1412533dbf8a8ae666fd8e72d8a675a0785ce8c02d66fe2fc6ba50f",
      "transactionIndex": "0x1",
      "blockHash": "0xf801c6efa88c3800069ca5e05d6748f5984d697e768136863ac971dddc5aeffe",
      "blockNumber": "0x3262938",
      "gasUsed": "0x2d7d0",
      "effectiveGasPrice": "0x5f5e100",
      "from": "0xe62ab4d111f968660c6b2188046f9b9ba53c4bae",
      "to": "0x7a63f6b51c503e9a3354af8262e8c7129abdbbeb",
      "contractAddress": null
    }
  ],
  "libraries": [],
  "pending": [],
  "returns": {},
  "timestamp": 1748453522,
  "chain": 97,
  "commit": "f02f4300"
}