{
  "transactions": [
    {
      "hash": "0xbbe25fb954636053abe7c242521c94ee089b0e28f4fd8b9e7b073bd45466c53c",
      "transactionType": "CALL",
      "contractName": null,
      "contractAddress": "0x605ab9626e57c5d1f3f0508d5400ab0449b5a015",
      "function": "getFeeTokenList()",
      "arguments": [],
      "transaction": {
        "from": "0xe62ab4d111f968660c6b2188046f9b9ba53c4bae",
        "to": "0x605ab9626e57c5d1f3f0508d5400ab0449b5a015",
        "gas": "0x8a7e",
        "value": "0x0",
        "input": "0xe28ab277",
        "nonce": "0x1f8",
        "chainId": "0x61"
      },
      "additionalContracts": [],
      "isFixedGasLimit": false
    },
    {
      "hash": "0xa7768fbb25d0d5a79999b5968a6ad465007ddb433a87ad1536464b20f155ee8c",
      "transactionType": "CALL",
      "contractName": null,
      "contractAddress": "0x605ab9626e57c5d1f3f0508d5400ab0449b5a015",
      "function": "addFeeToken(string)",
      "arguments": [
        "0xdd43fc986a13392ddbc7aea150b41efe27b2d0ed"
      ],
      "transaction": {
        "from": "0xe62ab4d111f968660c6b2188046f9b9ba53c4bae",
        "to": "0x605ab9626e57c5d1f3f0508d5400ab0449b5a015",
        "gas": "0x26af2",
        "value": "0x0",
        "input": "0x12a6385f0000000000000000000000000000000000000000000000000000000000000020000000000000000000000000000000000000000000000000000000000000002a30786464343366633938366131333339326464626337616561313530623431656665323762326430656400000000000000000000000000000000000000000000",
        "nonce": "0x1f9",
        "chainId": "0x61"
      },
      "additionalContracts": [],
      "isFixedGasLimit": false
    },
    {
      "hash": "0x1c8239a1a2c346d38064b707bd64a6b1f3b2bfc37b2771d12f76a8ba7aee1a1b",
      "transactionType": "CALL",
      "contractName": null,
      "contractAddress": "0x605ab9626e57c5d1f3f0508d5400ab0449b5a015",
      "function": "setFeeMultiplier(uint8,uint256)",
      "arguments": [
        "0",
        "2"
      ],
      "transaction": {
        "from": "0xe62ab4d111f968660c6b2188046f9b9ba53c4bae",
        "to": "0x605ab9626e57c5d1f3f0508d5400ab0449b5a015",
        "gas": "0x112e8",
        "value": "0x0",
        "input": "0x0ee24eb500000000000000000000000000000000000000000000000000000000000000000000000000000000000000000000000000000000000000000000000000000002",
        "nonce": "0x1fa",
        "chainId": "0x61"
      },
      "additionalContracts": [],
      "isFixedGasLimit": false
    },
    {
      "hash": "0x839b60106ebe95b4ff6072a5a70eb09f344aa2306f6d07c775a0cceb9618fa88",
      "transactionType": "CALL",
      "contractName": null,
      "contractAddress": "0x605ab9626e57c5d1f3f0508d5400ab0449b5a015",
      "function": "setFeeMultiplier(uint8,uint256)",
      "arguments": [
        "1",
        "10"
      ],
      "transaction": {
        "from": "0xe62ab4d111f968660c6b2188046f9b9ba53c4bae",
        "to": "0x605ab9626e57c5d1f3f0508d5400ab0449b5a015",
        "gas": "0x11324",
        "value": "0x0",
        "input": "0x0ee24eb50000000000000000000000000000000000000000000000000000000000000001000000000000000000000000000000000000000000000000000000000000000a",
        "nonce": "0x1fb",
        "chainId": "0x61"
      },
      "additionalContracts": [],
      "isFixedGasLimit": false
    },
    {
      "hash": "0xef35361d046da6e5495b4a4a08d88c91eee003cf6dfa612871d78ee5e324967d",
      "transactionType": "CALL",
      "contractName": null,
      "contractAddress": "0x605ab9626e57c5d1f3f0508d5400ab0449b5a015",
      "function": "setFeeMultiplier(uint8,uint256)",
      "arguments": [
        "2",
        "1"
      ],
      "transaction": {
        "from": "0xe62ab4d111f968660c6b2188046f9b9ba53c4bae",
        "to": "0x605ab9626e57c5d1f3f0508d5400ab0449b5a015",
        "gas": "0x11346",
        "value": "0x0",
        "input": "0x0ee24eb500000000000000000000000000000000000000000000000000000000000000020000000000000000000000000000000000000000000000000000000000000001",
        "nonce": "0x1fc",
        "chainId": "0x61"
      },
      "additionalContracts": [],
      "isFixedGasLimit": false
    },
    {
      "hash": "0x8e49df37daebed2905a0520650d416a230466ce6d40caef8e6362cc721b6de94",
      "transactionType": "CALL",
      "contractName": null,
      "contractAddress": "0x605ab9626e57c5d1f3f0508d5400ab0449b5a015",
      "function": "setFeeMultiplier(uint8,uint256)",
      "arguments": [
        "3",
        "4"
      ],
      "transaction": {
        "from": "0xe62ab4d111f968660c6b2188046f9b9ba53c4bae",
        "to": "0x605ab9626e57c5d1f3f0508d5400ab0449b5a015",
        "gas": "0x1041b",
        "value": "0x0",
        "input": "0x0ee24eb500000000000000000000000000000000000000000000000000000000000000030000000000000000000000000000000000000000000000000000000000000004",
        "nonce": "0x1fd",
        "chainId": "0x61"
      },
      "additionalContracts": [],
      "isFixedGasLimit": false
    },
    {
      "hash": "0x7a1b86d4c3a4010f7babb922e57c5b82c0c8aad5b4c9705756ac618ff3f14569",
      "transactionType": "CALL",
      "contractName": null,
      "contractAddress": "0x605ab9626e57c5d1f3f0508d5400ab0449b5a015",
      "function": "setFeeMultiplier(uint8,uint256)",
      "arguments": [
        "4",
        "4"
      ],
      "transaction": {
        "from": "0xe62ab4d111f968660c6b2188046f9b9ba53c4bae",
        "to": "0x605ab9626e57c5d1f3f0508d5400ab0449b5a015",
        "gas": "0x1043a",
        "value": "0x0",
        "input": "0x0ee24eb500000000000000000000000000000000000000000000000000000000000000040000000000000000000000000000000000000000000000000000000000000004",
        "nonce": "0x1fe",
        "chainId": "0x61"
      },
      "additionalContracts": [],
      "isFixedGasLimit": false
    },
    {
      "hash": "0x3f49341c7465ec15cfe7b3d75fdffb2952d359d69047ef9c7e38287f9aa91476",
      "transactionType": "CALL",
      "contractName": null,
      "contractAddress": "0x605ab9626e57c5d1f3f0508d5400ab0449b5a015",
      "function": "setFeeMultiplier(uint8,uint256)",
      "arguments": [
        "5",
        "8"
      ],
      "transaction": {
        "from": "0xe62ab4d111f968660c6b2188046f9b9ba53c4bae",
        "to": "0x605ab9626e57c5d1f3f0508d5400ab0449b5a015",
        "gas": "0x10459",
        "value": "0x0",
        "input": "0x0ee24eb500000000000000000000000000000000000000000000000000000000000000050000000000000000000000000000000000000000000000000000000000000008",
        "nonce": "0x1ff",
        "chainId": "0x61"
      },
      "additionalContracts": [],
      "isFixedGasLimit": false
    },
    {
      "hash": "0x58a011521d1f86eb2024f626f7026015bb0004fdee07d12b5a557d5e874c8cf1",
      "transactionType": "CALL",
      "contractName": null,
      "contractAddress": "0x605ab9626e57c5d1f3f0508d5400ab0449b5a015",
      "function": "setFeeMultiplier(uint8,uint256)",
      "arguments": [
        "6",
        "4"
      ],
      "transaction": {
        "from": "0xe62ab4d111f968660c6b2188046f9b9ba53c4bae",
        "to": "0x605ab9626e57c5d1f3f0508d5400ab0449b5a015",
        "gas": "0x1047a",
        "value": "0x0",
        "input": "0x0ee24eb500000000000000000000000000000000000000000000000000000000000000060000000000000000000000000000000000000000000000000000000000000004",
        "nonce": "0x200",
        "chainId": "0x61"
      },
      "additionalContracts": [],
      "isFixedGasLimit": false
    },
    {
      "hash": "0xa0a5d7f0856e054f426b9e3dccd55d7b159ad619162c9996c0dbd9a649d0ccee",
      "transactionType": "CALL",
      "contractName": null,
      "contractAddress": "0x605ab9626e57c5d1f3f0508d5400ab0449b5a015",
      "function": "setFeeMultiplier(uint8,uint256)",
      "arguments": [
        "7",
        "10"
      ],
      "transaction": {
        "from": "0xe62ab4d111f968660c6b2188046f9b9ba53c4bae",
        "to": "0x605ab9626e57c5d1f3f0508d5400ab0449b5a015",
        "gas": "0x10499",
        "value": "0x0",
        "input": "0x0ee24eb50000000000000000000000000000000000000000000000000000000000000007000000000000000000000000000000000000000000000000000000000000000a",
        "nonce": "0x201",
        "chainId": "0x61"
      },
      "additionalContracts": [],
      "isFixedGasLimit": false
    },
    {
      "hash": "0x7046a4d67c33d5a7656711128f47bea416d8f01e08f92f26282b5c258e8fed6a",
      "transactionType": "CALL",
      "contractName": null,
      "contractAddress": "0x605ab9626e57c5d1f3f0508d5400ab0449b5a015",
      "function": "setFeeMultiplier(uint8,uint256)",
      "arguments": [
        "8",
        "8"
      ],
      "transaction": {
        "from": "0xe62ab4d111f968660c6b2188046f9b9ba53c4bae",
        "to": "0x605ab9626e57c5d1f3f0508d5400ab0449b5a015",
        "gas": "0x1140f",
        "value": "0x0",
        "input": "0x0ee24eb500000000000000000000000000000000000000000000000000000000000000080000000000000000000000000000000000000000000000000000000000000008",
        "nonce": "0x202",
        "chainId": "0x61"
      },
      "additionalContracts": [],
      "isFixedGasLimit": false
    },
    {
      "hash": "0x6c8ba022649c28dfc23d193961129e5676b85a3815286f2e5d558da5ac897e50",
      "transactionType": "CALL",
      "contractName": null,
      "contractAddress": "0x605ab9626e57c5d1f3f0508d5400ab0449b5a015",
      "function": "setFeeMultiplier(uint8,uint256)",
      "arguments": [
        "9",
        "8"
      ],
      "transaction": {
        "from": "0xe62ab4d111f968660c6b2188046f9b9ba53c4bae",
        "to": "0x605ab9626e57c5d1f3f0508d5400ab0449b5a015",
        "gas": "0x11431",
        "value": "0x0",
        "input": "0x0ee24eb500000000000000000000000000000000000000000000000000000000000000090000000000000000000000000000000000000000000000000000000000000008",
        "nonce": "0x203",
        "chainId": "0x61"
      },
      "additionalContracts": [],
      "isFixedGasLimit": false
    },
    {
      "hash": "0x25f87c9d5f147d71b58e6c4ab98cab7cf8657c016fcf1263a43f74328d57914f",
      "transactionType": "CALL",
      "contractName": null,
      "contractAddress": "0x605ab9626e57c5d1f3f0508d5400ab0449b5a015",
      "function": "setFeeMultiplier(uint8,uint256)",
      "arguments": [
        "10",
        "8"
      ],
      "transaction": {
        "from": "0xe62ab4d111f968660c6b2188046f9b9ba53c4bae",
        "to": "0x605ab9626e57c5d1f3f0508d5400ab0449b5a015",
        "gas": "0x11453",
        "value": "0x0",
        "input": "0x0ee24eb5000000000000000000000000000000000000000000000000000000000000000a0000000000000000000000000000000000000000000000000000000000000008",
        "nonce": "0x204",
        "chainId": "0x61"
      },
      "additionalContracts": [],
      "isFixedGasLimit": false
    },
    {
      "hash": "0x744ca8d98a443cef027a36a39548ad75f112ec7653720491a4ca47a137184007",
      "transactionType": "CALL",
      "contractName": null,
      "contractAddress": "0x605ab9626e57c5d1f3f0508d5400ab0449b5a015",
      "function": "setFeeMultiplier(uint8,uint256)",
      "arguments": [
        "11",
        "20"
      ],
      "transaction": {
        "from": "0xe62ab4d111f968660c6b2188046f9b9ba53c4bae",
        "to": "0x605ab9626e57c5d1f3f0508d5400ab0449b5a015",
        "gas": "0x10518",
        "value": "0x0",
        "input": "0x0ee24eb5000000000000000000000000000000000000000000000000000000000000000b0000000000000000000000000000000000000000000000000000000000000014",
        "nonce": "0x205",
        "chainId": "0x61"
      },
      "additionalContracts": [],
      "isFixedGasLimit": false
    },
    {
      "hash": "0x0ec136f09da05f3131334170db9d5118646a485637a54603454a98a617be5bc3",
      "transactionType": "CALL",
      "contractName": null,
      "contractAddress": "0x605ab9626e57c5d1f3f0508d5400ab0449b5a015",
      "function": "setFeeMultiplier(uint8,uint256)",
      "arguments": [
        "12",
        "8"
      ],
      "transaction": {
        "from": "0xe62ab4d111f968660c6b2188046f9b9ba53c4bae",
        "to": "0x605ab9626e57c5d1f3f0508d5400ab0449b5a015",
        "gas": "0x10538",
        "value": "0x0",
        "input": "0x0ee24eb5000000000000000000000000000000000000000000000000000000000000000c0000000000000000000000000000000000000000000000000000000000000008",
        "nonce": "0x206",
        "chainId": "0x61"
      },
      "additionalContracts": [],
      "isFixedGasLimit": false
    },
    {
      "hash": "0xea243f6b0d93a1539922922f20e2edf013a1a7a5c564487612a6b81112293af4",
      "transactionType": "CALL",
      "contractName": null,
      "contractAddress": "0x605ab9626e57c5d1f3f0508d5400ab0449b5a015",
      "function": "setFeeMultiplier(uint8,uint256)",
      "arguments": [
        "13",
        "4"
      ],
      "transaction": {
        "from": "0xe62ab4d111f968660c6b2188046f9b9ba53c4bae",
        "to": "0x605ab9626e57c5d1f3f0508d5400ab0449b5a015",
        "gas": "0x10558",
        "value": "0x0",
        "input": "0x0ee24eb5000000000000000000000000000000000000000000000000000000000000000d0000000000000000000000000000000000000000000000000000000000000004",
        "nonce": "0x207",
        "chainId": "0x61"
      },
      "additionalContracts": [],
      "isFixedGasLimit": false
    },
    {
      "hash": "0xaaaa418b205e99c1eabbbd1e3d443d88c75dc9db5a466e1ab46047fafa662874",
      "transactionType": "CALL",
      "contractName": null,
      "contractAddress": "0x605ab9626e57c5d1f3f0508d5400ab0449b5a015",
      "function": "setFeeMultiplier(uint8,uint256)",
      "arguments": [
        "14",
        "4"
      ],
      "transaction": {
        "from": "0xe62ab4d111f968660c6b2188046f9b9ba53c4bae",
        "to": "0x605ab9626e57c5d1f3f0508d5400ab0449b5a015",
        "gas": "0x10577",
        "value": "0x0",
        "input": "0x0ee24eb5000000000000000000000000000000000000000000000000000000000000000e0000000000000000000000000000000000000000000000000000000000000004",
        "nonce": "0x208",
        "chainId": "0x61"
      },
      "additionalContracts": [],
      "isFixedGasLimit": false
    },
    {
      "hash": "0x4fd658748443a2cfcf2babb15205def9fbc8354a0c5749858592e9969b06f2b1",
      "transactionType": "CALL",
      "contractName": null,
      "contractAddress": "0x605ab9626e57c5d1f3f0508d5400ab0449b5a015",
      "function": "setFeeMultiplier(uint8,uint256)",
      "arguments": [
        "15",
        "4"
      ],
      "transaction": {
        "from": "0xe62ab4d111f968660c6b2188046f9b9ba53c4bae",
        "to": "0x605ab9626e57c5d1f3f0508d5400ab0449b5a015",
        "gas": "0x10598",
        "value": "0x0",
        "input": "0x0ee24eb5000000000000000000000000000000000000000000000000000000000000000f0000000000000000000000000000000000000000000000000000000000000004",
        "nonce": "0x209",
        "chainId": "0x61"
      },
      "additionalContracts": [],
      "isFixedGasLimit": false
    },
    {
      "hash": "0x344bd8517aa58097b4f721bf08c2ddeb7cf01e256acb57a982728e91ec082c4e",
      "transactionType": "CALL",
      "contractName": null,
      "contractAddress": "0x605ab9626e57c5d1f3f0508d5400ab0449b5a015",
      "function": "setFeeMultiplier(uint8,uint256)",
      "arguments": [
        "16",
        "2"
      ],
      "transaction": {
        "from": "0xe62ab4d111f968660c6b2188046f9b9ba53c4bae",
        "to": "0x605ab9626e57c5d1f3f0508d5400ab0449b5a015",
        "gas": "0x105b0",
        "value": "0x0",
        "input": "0x0ee24eb500000000000000000000000000000000000000000000000000000000000000100000000000000000000000000000000000000000000000000000000000000002",
        "nonce": "0x20a",
        "chainId": "0x61"
      },
      "additionalContracts": [],
      "isFixedGasLimit": false
    },
    {
      "hash": "0x127b61bf31b33755a8c4465255ee5d5ae02f05fc17a5e826d73ee2420c6e831e",
      "transactionType": "CALL",
      "contractName": null,
      "contractAddress": "0x605ab9626e57c5d1f3f0508d5400ab0449b5a015",
      "function": "addFeeToken(string,string[],uint256[])",
      "arguments": [
        "421614",
        "[0xdd43fc986a13392ddbc7aea150b41efe27b2d0ed]",
        "[100]"
      ],
      "transaction": {
        "from": "0xe62ab4d111f968660c6b2188046f9b9ba53c4bae",
        "to": "0x605ab9626e57c5d1f3f0508d5400ab0449b5a015",
        "gas": "0x3259e",
        "value": "0x0",
        "input": "0x437bf84f000000000000000000000000000000000000000000000000000000000000006000000000000000000000000000000000000000000000000000000000000000a000000000000000000000000000000000000000000000000000000000000001400000000000000000000000000000000000000000000000000000000000000006343231363134000000000000000000000000000000000000000000000000000000000000000000000000000000000000000000000000000000000000000000010000000000000000000000000000000000000000000000000000000000000020000000000000000000000000000000000000000000000000000000000000002a3078646434336663393836613133333932646462633761656131353062343165666532376232643065640000000000000000000000000000000000000000000000000000000000000000000000000000000000000000000000000000000000010000000000000000000000000000000000000000000000000000000000000064",
        "nonce": "0x20b",
        "chainId": "0x61"
      },
      "additionalContracts": [],
      "isFixedGasLimit": false
    },
    {
      "hash": "0x3da5f6914459bd6c31797c1b01dff2bf228c68af60c96c21a267f084523e7d98",
      "transactionType": "CALL",
      "contractName": null,
      "contractAddress": "0x605ab9626e57c5d1f3f0508d5400ab0449b5a015",
      "function": "addFeeToken(string,string[],uint256[])",
      "arguments": [
        "80002",
        "[0xdd43fc986a13392ddbc7aea150b41efe27b2d0ed]",
        "[100]"
      ],
      "transaction": {
        "from": "0xe62ab4d111f968660c6b2188046f9b9ba53c4bae",
        "to": "0x605ab9626e57c5d1f3f0508d5400ab0449b5a015",
        "gas": "0x2cd23",
        "value": "0x0",
        "input": "0x437bf84f000000000000000000000000000000000000000000000000000000000000006000000000000000000000000000000000000000000000000000000000000000a000000000000000000000000000000000000000000000000000000000000001400000000000000000000000000000000000000000000000000000000000000005383030303200000000000000000000000000000000000000000000000000000000000000000000000000000000000000000000000000000000000000000000010000000000000000000000000000000000000000000000000000000000000020000000000000000000000000000000000000000000000000000000000000002a3078646434336663393836613133333932646462633761656131353062343165666532376232643065640000000000000000000000000000000000000000000000000000000000000000000000000000000000000000000000000000000000010000000000000000000000000000000000000000000000000000000000000064",
        "nonce": "0x20c",
        "chainId": "0x61"
      },
      "additionalContracts": [],
      "isFixedGasLimit": false
    },
    {
      "hash": "0x2e1f362da11f4c7f77136411d7fcf1d233ebac08d971d9fb5bca54695d6cfdf1",
      "transactionType": "CALL",
      "contractName": null,
      "contractAddress": "0x605ab9626e57c5d1f3f0508d5400ab0449b5a015",
      "function": "addFeeToken(string,string[],uint256[])",
      "arguments": [
        "84532",
        "[0xdd43fc986a13392ddbc7aea150b41efe27b2d0ed]",
        "[100]"
      ],
      "transaction": {
        "from": "0xe62ab4d111f968660c6b2188046f9b9ba53c4bae",
        "to": "0x605ab9626e57c5d1f3f0508d5400ab0449b5a015",
        "gas": "0x2cd23",
        "value": "0x0",
        "input": "0x437bf84f000000000000000000000000000000000000000000000000000000000000006000000000000000000000000000000000000000000000000000000000000000a000000000000000000000000000000000000000000000000000000000000001400000000000000000000000000000000000000000000000000000000000000005383435333200000000000000000000000000000000000000000000000000000000000000000000000000000000000000000000000000000000000000000000010000000000000000000000000000000000000000000000000000000000000020000000000000000000000000000000000000000000000000000000000000002a3078646434336663393836613133333932646462633761656131353062343165666532376232643065640000000000000000000000000000000000000000000000000000000000000000000000000000000000000000000000000000000000010000000000000000000000000000000000000000000000000000000000000064",
        "nonce": "0x20d",
        "chainId": "0x61"
      },
      "additionalContracts": [],
      "isFixedGasLimit": false
    },
    {
      "hash": "0x18544c3b3b1e546f5c023f1094e5190d639cb90ce3678ef5fb711c353b789eef",
      "transactionType": "CALL",
      "contractName": null,
      "contractAddress": "0x605ab9626e57c5d1f3f0508d5400ab0449b5a015",
      "function": "addFeeToken(string,string[],uint256[])",
      "arguments": [
        "97",
        "[0xdd43fc986a13392ddbc7aea150b41efe27b2d0ed]",
        "[100]"
      ],
      "transaction": {
        "from": "0xe62ab4d111f968660c6b2188046f9b9ba53c4bae",
        "to": "0x605ab9626e57c5d1f3f0508d5400ab0449b5a015",
        "gas": "0x29f03",
        "value": "0x0",
        "input": "0x437bf84f000000000000000000000000000000000000000000000000000000000000006000000000000000000000000000000000000000000000000000000000000000a000000000000000000000000000000000000000000000000000000000000001400000000000000000000000000000000000000000000000000000000000000002393700000000000000000000000000000000000000000000000000000000000000000000000000000000000000000000000000000000000000000000000000010000000000000000000000000000000000000000000000000000000000000020000000000000000000000000000000000000000000000000000000000000002a3078646434336663393836613133333932646462633761656131353062343165666532376232643065640000000000000000000000000000000000000000000000000000000000000000000000000000000000000000000000000000000000010000000000000000000000000000000000000000000000000000000000000064",
        "nonce": "0x20e",
        "chainId": "0x61"
      },
      "additionalContracts": [],
      "isFixedGasLimit": false
    },
    {
      "hash": "0xb7d67a973c0ac543bff05982bee57dbe05c84a76d9f4e247810bc38a342a9b35",
      "transactionType": "CALL",
      "contractName": null,
      "contractAddress": "0x605ab9626e57c5d1f3f0508d5400ab0449b5a015",
      "function": "addFeeToken(string,string[],uint256[])",
      "arguments": [
        "11155111",
        "[0xdd43fc986a13392ddbc7aea150b41efe27b2d0ed]",
        "[100]"
      ],
      "transaction": {
        "from": "0xe62ab4d111f968660c6b2188046f9b9ba53c4bae",
        "to": "0x605ab9626e57c5d1f3f0508d5400ab0449b5a015",
        "gas": "0x2ab93",
        "value": "0x0",
        "input": "0x437bf84f000000000000000000000000000000000000000000000000000000000000006000000000000000000000000000000000000000000000000000000000000000a000000000000000000000000000000000000000000000000000000000000001400000000000000000000000000000000000000000000000000000000000000008313131353531313100000000000000000000000000000000000000000000000000000000000000000000000000000000000000000000000000000000000000010000000000000000000000000000000000000000000000000000000000000020000000000000000000000000000000000000000000000000000000000000002a3078646434336663393836613133333932646462633761656131353062343165666532376232643065640000000000000000000000000000000000000000000000000000000000000000000000000000000000000000000000000000000000010000000000000000000000000000000000000000000000000000000000000064",
        "nonce": "0x20f",
        "chainId": "0x61"
      },
      "additionalContracts": [],
      "isFixedGasLimit": false
    },
    {
      "hash": "0xb4ac76ee7b0e81622a1d8310b21ed06a9a13d6c89bcde261998aae068d5a0954",
      "transactionType": "CALL",
      "contractName": null,
      "contractAddress": "0xc0dd542bcac26095a2c83ffb10826ccef806c07b",
      "function": "addChainContract(string[],string[])",
      "arguments": [
        "[421614, 80002, 84532, 11155111]",
        "[0xeb4b038c0f1f086bb7ab5b4192611015aff95390, 0xfdd1a5b3aeea2df15a6f6b502784b61bdcbf66bc, 0xea4a06cb68aba869e6bf98edc4bdbc731d2d82e3, 0xf065f9bbd5f59afa0d24be34bdf8ad483485ed1c]"
      ],
      "transaction": {
        "from": "0xe62ab4d111f968660c6b2188046f9b9ba53c4bae",
        "to": "0xc0dd542bcac26095a2c83ffb10826ccef806c07b",
        "gas": "0xab384",
        "value": "0x0",
        "input": "0x013fd3bd000000000000000000000000000000000000000000000000000000000000004000000000000000000000000000000000000000000000000000000000000001e00000000000000000000000000000000000000000000000000000000000000004000000000000000000000000000000000000000000000000000000000000008000000000000000000000000000000000000000000000000000000000000000c000000000000000000000000000000000000000000000000000000000000001000000000000000000000000000000000000000000000000000000000000000140000000000000000000000000000000000000000000000000000000000000000634323136313400000000000000000000000000000000000000000000000000000000000000000000000000000000000000000000000000000000000000000005383030303200000000000000000000000000000000000000000000000000000000000000000000000000000000000000000000000000000000000000000000053834353332000000000000000000000000000000000000000000000000000000000000000000000000000000000000000000000000000000000000000000000831313135353131310000000000000000000000000000000000000000000000000000000000000000000000000000000000000000000000000000000000000004000000000000000000000000000000000000000000000000000000000000008000000000000000000000000000000000000000000000000000000000000000e0000000000000000000000000000000000000000000000000000000000000014000000000000000000000000000000000000000000000000000000000000001a0000000000000000000000000000000000000000000000000000000000000002a30786562346230333863306631663038366262376162356234313932363131303135616666393533393000000000000000000000000000000000000000000000000000000000000000000000000000000000000000000000000000000000002a30786664643161356233616565613264663135613666366235303237383462363162646362663636626300000000000000000000000000000000000000000000000000000000000000000000000000000000000000000000000000000000002a30786561346130366362363861626138363965366266393865646334626462633733316432643832653300000000000000000000000000000000000000000000000000000000000000000000000000000000000000000000000000000000002a30786630363566396262643566353961666130643234626533346264663861643438333438356564316300000000000000000000000000000000000000000000",
        "nonce": "0x210",
        "chainId": "0x61"
      },
      "additionalContracts": [],
      "isFixedGasLimit": false
    },
    {
      "hash": "0xe9d1da4fdc0d6c56c48d33ff2a33d11997449ecedac7527c7bc4c2501793d9fa",
      "transactionType": "CALL",
      "contractName": null,
      "contractAddress": "0xc0dd542bcac26095a2c83ffb10826ccef806c07b",
      "function": "attachRWAX(uint256,uint256,string[],string[])",
      "arguments": [
        "1",
        "1",
        "[97, 421614, 80002, 84532, 11155111]",
        "[0x7658e59cdba5e7e08263a216e89c8438c9f02048, 0xb3aefea9f49de70c41ce22afa321e64393932d21, 0xd586ea1fce09384f71b69e80f643135fc0641def, 0x9a0f81de582ce9194feadc6ccefaf9ea70451616, 0x1ee4ba474da815f728df08f0147defac07f0bab3]"
      ],
      "transaction": {
        "from": "0xe62ab4d111f968660c6b2188046f9b9ba53c4bae",
        "to": "0xc0dd542bcac26095a2c83ffb10826ccef806c07b",
        "gas": "0xe3f41",
        "value": "0x0",
        "input": "0x33a5f5b40000000000000000000000000000000000000000000000000000000000000001000000000000000000000000000000000000000000000000000000000000000100000000000000000000000000000000000000000000000000000000000000800000000000000000000000000000000000000000000000000000000000000280000000000000000000000000000000000000000000000000000000000000000500000000000000000000000000000000000000000000000000000000000000a000000000000000000000000000000000000000000000000000000000000000e00000000000000000000000000000000000000000000000000000000000000120000000000000000000000000000000000000000000000000000000000000016000000000000000000000000000000000000000000000000000000000000001a00000000000000000000000000000000000000000000000000000000000000002393700000000000000000000000000000000000000000000000000000000000000000000000000000000000000000000000000000000000000000000000000063432313631340000000000000000000000000000000000000000000000000000000000000000000000000000000000000000000000000000000000000000000538303030320000000000000000000000000000000000000000000000000000000000000000000000000000000000000000000000000000000000000000000005383435333200000000000000000000000000000000000000000000000000000000000000000000000000000000000000000000000000000000000000000000083131313535313131000000000000000000000000000000000000000000000000000000000000000000000000000000000000000000000000000000000000000500000000000000000000000000000000000000000000000000000000000000a00000000000000000000000000000000000000000000000000000000000000100000000000000000000000000000000000000000000000000000000000000016000000000000000000000000000000000000000000000000000000000000001c00000000000000000000000000000000000000000000000000000000000000220000000000000000000000000000000000000000000000000000000000000002a30783736353865353963646261356537653038323633613231366538396338343338633966303230343800000000000000000000000000000000000000000000000000000000000000000000000000000000000000000000000000000000002a30786233616566656139663439646537306334316365323261666133323165363433393339333264323100000000000000000000000000000000000000000000000000000000000000000000000000000000000000000000000000000000002a30786435383665613166636530393338346637316236396538306636343331333566633036343164656600000000000000000000000000000000000000000000000000000000000000000000000000000000000000000000000000000000002a30783961306638316465353832636539313934666561646336636365666166396561373034353136313600000000000000000000000000000000000000000000000000000000000000000000000000000000000000000000000000000000002a30783165653462613437346461383135663732386466303866303134376465666163303766306261623300000000000000000000000000000000000000000000",
        "nonce": "0x211",
        "chainId": "0x61"
      },
      "additionalContracts": [],
      "isFixedGasLimit": false
    },
    {
      "hash": "0x5d764f1f4dd47832ebac70b60699b2583d984354ba35f36fdde1fee022efb4ed",
      "transactionType": "CALL",
      "contractName": null,
      "contractAddress": "0xc0dd542bcac26095a2c83ffb10826ccef806c07b",
      "function": "attachStorageManager(uint256,uint256,string[],string[])",
      "arguments": [
        "1",
        "1",
        "[97, 421614, 80002, 84532, 11155111]",
        "[0x855c06f9f7b01838dc540ec6fcff17fd86a378d8, 0x37c7137dc6e3dc3c3637bfed3f6dbfbd43386429, 0xb523f0e72a7bdf94a5a3d84ba9e8dc42e69229ea, 0x9372cd1287e0bb6337802d80dff342348c85fd78, 0xcbf4e5fda887e602e5132fa800d74154dfb5b237]"
      ],
      "transaction": {
        "from": "0xe62ab4d111f968660c6b2188046f9b9ba53c4bae",
        "to": "0xc0dd542bcac26095a2c83ffb10826ccef806c07b",
        "gas": "0xe3d55",
        "value": "0x0",
        "input": "0x2f68b4890000000000000000000000000000000000000000000000000000000000000001000000000000000000000000000000000000000000000000000000000000000100000000000000000000000000000000000000000000000000000000000000800000000000000000000000000000000000000000000000000000000000000280000000000000000000000000000000000000000000000000000000000000000500000000000000000000000000000000000000000000000000000000000000a000000000000000000000000000000000000000000000000000000000000000e00000000000000000000000000000000000000000000000000000000000000120000000000000000000000000000000000000000000000000000000000000016000000000000000000000000000000000000000000000000000000000000001a00000000000000000000000000000000000000000000000000000000000000002393700000000000000000000000000000000000000000000000000000000000000000000000000000000000000000000000000000000000000000000000000063432313631340000000000000000000000000000000000000000000000000000000000000000000000000000000000000000000000000000000000000000000538303030320000000000000000000000000000000000000000000000000000000000000000000000000000000000000000000000000000000000000000000005383435333200000000000000000000000000000000000000000000000000000000000000000000000000000000000000000000000000000000000000000000083131313535313131000000000000000000000000000000000000000000000000000000000000000000000000000000000000000000000000000000000000000500000000000000000000000000000000000000000000000000000000000000a00000000000000000000000000000000000000000000000000000000000000100000000000000000000000000000000000000000000000000000000000000016000000000000000000000000000000000000000000000000000000000000001c00000000000000000000000000000000000000000000000000000000000000220000000000000000000000000000000000000000000000000000000000000002a30783835356330366639663762303138333864633534306563366663666631376664383661333738643800000000000000000000000000000000000000000000000000000000000000000000000000000000000000000000000000000000002a30783337633731333764633665336463336333363337626665643366366462666264343333383634323900000000000000000000000000000000000000000000000000000000000000000000000000000000000000000000000000000000002a30786235323366306537326137626466393461356133643834626139653864633432653639323239656100000000000000000000000000000000000000000000000000000000000000000000000000000000000000000000000000000000002a30783933373263643132383765306262363333373830326438306466663334323334386338356664373800000000000000000000000000000000000000000000000000000000000000000000000000000000000000000000000000000000002a30786362663465356664613838376536303265353133326661383030643734313534646662356232333700000000000000000000000000000000000000000000",
        "nonce": "0x212",
        "chainId": "0x61"
      },
      "additionalContracts": [],
      "isFixedGasLimit": false
    }
  ],
  "receipts": [
    {
      "status": "0x1",
      "cumulativeGasUsed": "0x14475a",
      "logs": [],
      "logsBloom": "0x00000000000000000000000000000000000000000000000000000000000000000000000000000000000000000000000000000000000000000000000000000000000000000000000000000000000000000000000000000000000000000000000000000000000000000000000000000000000000000000000000000000000000000000000000000000000000000000000000000000000000000000000000000000000000000000000000000000000000000000000000000000000000000000000000000000000000000000000000000000000000000000000000000000000000000000000000000000000000000000000000000000000000000000000000000000",
      "type": "0x0",
      "transactionHash": "0xbbe25fb954636053abe7c242521c94ee089b0e28f4fd8b9e7b073bd45466c53c",
      "transactionIndex": "0x1",
      "blockHash": "0x7c38937e187d8470034276cbf7df8d502770bf47c89ed2ba7b8fc4d63a49e4a1",
      "blockNumber": "0x2bb52af",
      "gasUsed": "0x5eb3",
      "effectiveGasPrice": "0x174876e800",
      "from": "0xe62ab4d111f968660c6b2188046f9b9ba53c4bae",
      "to": "0x605ab9626e57c5d1f3f0508d5400ab0449b5a015",
      "contractAddress": null
    },
    {
      "status": "0x1",
      "cumulativeGasUsed": "0x1c01c",
      "logs": [
        {
          "address": "0x605ab9626e57c5d1f3f0508d5400ab0449b5a015",
          "topics": [
            "0x1394cfab38f3fc78ed77ea6f9318782a446d96e7dc8e9a6b0149f6be25c08bcf",
            "0x000000000000000000000000dd43fc986a13392ddbc7aea150b41efe27b2d0ed"
          ],
          "data": "0x",
          "blockHash": "0x4777c7a330c90dd7f5f42994ed01caf7ed234174d4db7497f8c6862e064c4ac8",
          "blockNumber": "0x2bb52b2",
          "transactionHash": "0xa7768fbb25d0d5a79999b5968a6ad465007ddb433a87ad1536464b20f155ee8c",
          "transactionIndex": "0x0",
          "logIndex": "0x0",
          "removed": false
        }
      ],
      "logsBloom": "0x00000000000000000000000000000000000000000000000000000000000000000000000000000000000000000000000000000000000000000000000000000000000000004000200400000000000000000000001000000000000000000000000000000000000000000000000000000000000000000000000000000000000000000000000100000000000000000000000000010000000000000000000000000000000000000000000000000000000000000000000100000000000000000000000000000000000000000000000000000000000000000000000000000000000000000000000000010000000000000000000000000000002000000000000000000000",
      "type": "0x0",
      "transactionHash": "0xa7768fbb25d0d5a79999b5968a6ad465007ddb433a87ad1536464b20f155ee8c",
      "transactionIndex": "0x0",
      "blockHash": "0x4777c7a330c90dd7f5f42994ed01caf7ed234174d4db7497f8c6862e064c4ac8",
      "blockNumber": "0x2bb52b2",
      "gasUsed": "0x1c01c",
      "effectiveGasPrice": "0x174876e800",
      "from": "0xe62ab4d111f968660c6b2188046f9b9ba53c4bae",
      "to": "0x605ab9626e57c5d1f3f0508d5400ab0449b5a015",
      "contractAddress": null
    },
    {
      "status": "0x1",
      "cumulativeGasUsed": "0xbbf9",
      "logs": [],
      "logsBloom": "0x00000000000000000000000000000000000000000000000000000000000000000000000000000000000000000000000000000000000000000000000000000000000000000000000000000000000000000000000000000000000000000000000000000000000000000000000000000000000000000000000000000000000000000000000000000000000000000000000000000000000000000000000000000000000000000000000000000000000000000000000000000000000000000000000000000000000000000000000000000000000000000000000000000000000000000000000000000000000000000000000000000000000000000000000000000000",
      "type": "0x0",
      "transactionHash": "0x1c8239a1a2c346d38064b707bd64a6b1f3b2bfc37b2771d12f76a8ba7aee1a1b",
      "transactionIndex": "0x0",
      "blockHash": "0xe945880a6b10c5b5f48c33d60d7a82143e8df4204ac758bca5101b486ac87318",
      "blockNumber": "0x2bb52b4",
      "gasUsed": "0xbbf9",
      "effectiveGasPrice": "0x174876e800",
      "from": "0xe62ab4d111f968660c6b2188046f9b9ba53c4bae",
      "to": "0x605ab9626e57c5d1f3f0508d5400ab0449b5a015",
      "contractAddress": null
    },
    {
      "status": "0x1",
      "cumulativeGasUsed": "0xbc22",
      "logs": [],
      "logsBloom": "0x00000000000000000000000000000000000000000000000000000000000000000000000000000000000000000000000000000000000000000000000000000000000000000000000000000000000000000000000000000000000000000000000000000000000000000000000000000000000000000000000000000000000000000000000000000000000000000000000000000000000000000000000000000000000000000000000000000000000000000000000000000000000000000000000000000000000000000000000000000000000000000000000000000000000000000000000000000000000000000000000000000000000000000000000000000000",
      "type": "0x0",
      "transactionHash": "0x839b60106ebe95b4ff6072a5a70eb09f344aa2306f6d07c775a0cceb9618fa88",
      "transactionIndex": "0x0",
      "blockHash": "0x9c5d7e6cff4604fb9fd9e0d3ed76c70c59abfeaab1252427358ebbbf5ee32b15",
      "blockNumber": "0x2bb52b8",
      "gasUsed": "0xbc22",
      "effectiveGasPrice": "0x174876e800",
      "from": "0xe62ab4d111f968660c6b2188046f9b9ba53c4bae",
      "to": "0x605ab9626e57c5d1f3f0508d5400ab0449b5a015",
      "contractAddress": null
    },
    {
      "status": "0x1",
      "cumulativeGasUsed": "0xbc39",
      "logs": [],
      "logsBloom": "0x00000000000000000000000000000000000000000000000000000000000000000000000000000000000000000000000000000000000000000000000000000000000000000000000000000000000000000000000000000000000000000000000000000000000000000000000000000000000000000000000000000000000000000000000000000000000000000000000000000000000000000000000000000000000000000000000000000000000000000000000000000000000000000000000000000000000000000000000000000000000000000000000000000000000000000000000000000000000000000000000000000000000000000000000000000000",
      "type": "0x0",
      "transactionHash": "0xef35361d046da6e5495b4a4a08d88c91eee003cf6dfa612871d78ee5e324967d",
      "transactionIndex": "0x0",
      "blockHash": "0x9e319f138555167dcc1c7429f08a0ccab66634df4e5f79a01afb138b55d0fe53",
      "blockNumber": "0x2bb52ba",
      "gasUsed": "0xbc39",
      "effectiveGasPrice": "0x174876e800",
      "from": "0xe62ab4d111f968660c6b2188046f9b9ba53c4bae",
      "to": "0x605ab9626e57c5d1f3f0508d5400ab0449b5a015",
      "contractAddress": null
    },
    {
      "status": "0x1",
      "cumulativeGasUsed": "0xbc50",
      "logs": [],
      "logsBloom": "0x00000000000000000000000000000000000000000000000000000000000000000000000000000000000000000000000000000000000000000000000000000000000000000000000000000000000000000000000000000000000000000000000000000000000000000000000000000000000000000000000000000000000000000000000000000000000000000000000000000000000000000000000000000000000000000000000000000000000000000000000000000000000000000000000000000000000000000000000000000000000000000000000000000000000000000000000000000000000000000000000000000000000000000000000000000000",
      "type": "0x0",
      "transactionHash": "0x8e49df37daebed2905a0520650d416a230466ce6d40caef8e6362cc721b6de94",
      "transactionIndex": "0x0",
      "blockHash": "0x3acc120f80cd6a7b05bf5205e3f4ee2ac53fa692ceb97f6d29c63c572a3e7db1",
      "blockNumber": "0x2bb52bc",
      "gasUsed": "0xbc50",
      "effectiveGasPrice": "0x174876e800",
      "from": "0xe62ab4d111f968660c6b2188046f9b9ba53c4bae",
      "to": "0x605ab9626e57c5d1f3f0508d5400ab0449b5a015",
      "contractAddress": null
    },
    {
      "status": "0x1",
      "cumulativeGasUsed": "0x26e29",
      "logs": [],
      "logsBloom": "0x00000000000000000000000000000000000000000000000000000000000000000000000000000000000000000000000000000000000000000000000000000000000000000000000000000000000000000000000000000000000000000000000000000000000000000000000000000000000000000000000000000000000000000000000000000000000000000000000000000000000000000000000000000000000000000000000000000000000000000000000000000000000000000000000000000000000000000000000000000000000000000000000000000000000000000000000000000000000000000000000000000000000000000000000000000000",
      "type": "0x0",
      "transactionHash": "0x7a1b86d4c3a4010f7babb922e57c5b82c0c8aad5b4c9705756ac618ff3f14569",
      "transactionIndex": "0x1",
      "blockHash": "0x11482fc0c6eb4bc6932437c39c50ab3b5454a85a4674db8b7ec19d48145a0d60",
      "blockNumber": "0x2bb52be",
      "gasUsed": "0xbc67",
      "effectiveGasPrice": "0x174876e800",
      "from": "0xe62ab4d111f968660c6b2188046f9b9ba53c4bae",
      "to": "0x605ab9626e57c5d1f3f0508d5400ab0449b5a015",
      "contractAddress": null
    },
    {
      "status": "0x1",
      "cumulativeGasUsed": "0xbc7e",
      "logs": [],
      "logsBloom": "0x00000000000000000000000000000000000000000000000000000000000000000000000000000000000000000000000000000000000000000000000000000000000000000000000000000000000000000000000000000000000000000000000000000000000000000000000000000000000000000000000000000000000000000000000000000000000000000000000000000000000000000000000000000000000000000000000000000000000000000000000000000000000000000000000000000000000000000000000000000000000000000000000000000000000000000000000000000000000000000000000000000000000000000000000000000000",
      "type": "0x0",
      "transactionHash": "0x3f49341c7465ec15cfe7b3d75fdffb2952d359d69047ef9c7e38287f9aa91476",
      "transactionIndex": "0x0",
      "blockHash": "0xbbee1aa58da1a896264661c3310654a841ad99b165ea6ecb1f96f2e411054f37",
      "blockNumber": "0x2bb52c1",
      "gasUsed": "0xbc7e",
      "effectiveGasPrice": "0x174876e800",
      "from": "0xe62ab4d111f968660c6b2188046f9b9ba53c4bae",
      "to": "0x605ab9626e57c5d1f3f0508d5400ab0449b5a015",
      "contractAddress": null
    },
    {
      "status": "0x1",
      "cumulativeGasUsed": "0x26e57",
      "logs": [],
      "logsBloom": "0x00000000000000000000000000000000000000000000000000000000000000000000000000000000000000000000000000000000000000000000000000000000000000000000000000000000000000000000000000000000000000000000000000000000000000000000000000000000000000000000000000000000000000000000000000000000000000000000000000000000000000000000000000000000000000000000000000000000000000000000000000000000000000000000000000000000000000000000000000000000000000000000000000000000000000000000000000000000000000000000000000000000000000000000000000000000",
      "type": "0x0",
      "transactionHash": "0x58a011521d1f86eb2024f626f7026015bb0004fdee07d12b5a557d5e874c8cf1",
      "transactionIndex": "0x1",
      "blockHash": "0xde177c9897b44a4c33aa88d8dce6d4bd67386484fa32de2dbf40d29e5962cc8c",
      "blockNumber": "0x2bb52c3",
      "gasUsed": "0xbc95",
      "effectiveGasPrice": "0x174876e800",
      "from": "0xe62ab4d111f968660c6b2188046f9b9ba53c4bae",
      "to": "0x605ab9626e57c5d1f3f0508d5400ab0449b5a015",
      "contractAddress": null
    },
    {
      "status": "0x1",
      "cumulativeGasUsed": "0xbcac",
      "logs": [],
      "logsBloom": "0x00000000000000000000000000000000000000000000000000000000000000000000000000000000000000000000000000000000000000000000000000000000000000000000000000000000000000000000000000000000000000000000000000000000000000000000000000000000000000000000000000000000000000000000000000000000000000000000000000000000000000000000000000000000000000000000000000000000000000000000000000000000000000000000000000000000000000000000000000000000000000000000000000000000000000000000000000000000000000000000000000000000000000000000000000000000",
      "type": "0x0",
      "transactionHash": "0xa0a5d7f0856e054f426b9e3dccd55d7b159ad619162c9996c0dbd9a649d0ccee",
      "transactionIndex": "0x0",
      "blockHash": "0xbda294eccfff62512438e813818a5920e07bdec47b5232a2077adf0d6c41d18c",
      "blockNumber": "0x2bb52c6",
      "gasUsed": "0xbcac",
      "effectiveGasPrice": "0x174876e800",
      "from": "0xe62ab4d111f968660c6b2188046f9b9ba53c4bae",
      "to": "0x605ab9626e57c5d1f3f0508d5400ab0449b5a015",
      "contractAddress": null
    },
    {
      "status": "0x1",
      "cumulativeGasUsed": "0x26e85",
      "logs": [],
      "logsBloom": "0x00000000000000000000000000000000000000000000000000000000000000000000000000000000000000000000000000000000000000000000000000000000000000000000000000000000000000000000000000000000000000000000000000000000000000000000000000000000000000000000000000000000000000000000000000000000000000000000000000000000000000000000000000000000000000000000000000000000000000000000000000000000000000000000000000000000000000000000000000000000000000000000000000000000000000000000000000000000000000000000000000000000000000000000000000000000",
      "type": "0x0",
      "transactionHash": "0x7046a4d67c33d5a7656711128f47bea416d8f01e08f92f26282b5c258e8fed6a",
      "transactionIndex": "0x1",
      "blockHash": "0xdfddc9c1ba755aaffedfad559b1c2ab4fdbe42c2a7e6a0f22f3da0dafde9408d",
      "blockNumber": "0x2bb52c8",
      "gasUsed": "0xbcc3",
      "effectiveGasPrice": "0x174876e800",
      "from": "0xe62ab4d111f968660c6b2188046f9b9ba53c4bae",
      "to": "0x605ab9626e57c5d1f3f0508d5400ab0449b5a015",
      "contractAddress": null
    },
    {
      "status": "0x1",
      "cumulativeGasUsed": "0xbcda",
      "logs": [],
      "logsBloom": "0x00000000000000000000000000000000000000000000000000000000000000000000000000000000000000000000000000000000000000000000000000000000000000000000000000000000000000000000000000000000000000000000000000000000000000000000000000000000000000000000000000000000000000000000000000000000000000000000000000000000000000000000000000000000000000000000000000000000000000000000000000000000000000000000000000000000000000000000000000000000000000000000000000000000000000000000000000000000000000000000000000000000000000000000000000000000",
      "type": "0x0",
      "transactionHash": "0x6c8ba022649c28dfc23d193961129e5676b85a3815286f2e5d558da5ac897e50",
      "transactionIndex": "0x0",
      "blockHash": "0xe752c134e4b61e3324f825ca327b46a79828a1cf4ef17461aca125e7f9f63cfe",
      "blockNumber": "0x2bb52ca",
      "gasUsed": "0xbcda",
      "effectiveGasPrice": "0x174876e800",
      "from": "0xe62ab4d111f968660c6b2188046f9b9ba53c4bae",
      "to": "0x605ab9626e57c5d1f3f0508d5400ab0449b5a015",
      "contractAddress": null
    },
    {
      "status": "0x1",
      "cumulativeGasUsed": "0x3f729",
      "logs": [],
      "logsBloom": "0x00000000000000000000000000000000000000000000000000000000000000000000000000000000000000000000000000000000000000000000000000000000000000000000000000000000000000000000000000000000000000000000000000000000000000000000000000000000000000000000000000000000000000000000000000000000000000000000000000000000000000000000000000000000000000000000000000000000000000000000000000000000000000000000000000000000000000000000000000000000000000000000000000000000000000000000000000000000000000000000000000000000000000000000000000000000",
      "type": "0x0",
      "transactionHash": "0x25f87c9d5f147d71b58e6c4ab98cab7cf8657c016fcf1263a43f74328d57914f",
      "transactionIndex": "0x2",
      "blockHash": "0xd291cf49690368b46e6420bf003ab37eca5da2394085d16c82f54576fe679ba2",
      "blockNumber": "0x2bb52cd",
      "gasUsed": "0xbcf1",
      "effectiveGasPrice": "0x174876e800",
      "from": "0xe62ab4d111f968660c6b2188046f9b9ba53c4bae",
      "to": "0x605ab9626e57c5d1f3f0508d5400ab0449b5a015",
      "contractAddress": null
    },
    {
      "status": "0x1",
      "cumulativeGasUsed": "0xbd08",
      "logs": [],
      "logsBloom": "0x00000000000000000000000000000000000000000000000000000000000000000000000000000000000000000000000000000000000000000000000000000000000000000000000000000000000000000000000000000000000000000000000000000000000000000000000000000000000000000000000000000000000000000000000000000000000000000000000000000000000000000000000000000000000000000000000000000000000000000000000000000000000000000000000000000000000000000000000000000000000000000000000000000000000000000000000000000000000000000000000000000000000000000000000000000000",
      "type": "0x0",
      "transactionHash": "0x744ca8d98a443cef027a36a39548ad75f112ec7653720491a4ca47a137184007",
      "transactionIndex": "0x0",
      "blockHash": "0x7d83e7b0bb58ae4d1b1051d21f46d74bd7ce6d137e8d64fa9e84ad59280d8d51",
      "blockNumber": "0x2bb52cf",
      "gasUsed": "0xbd08",
      "effectiveGasPrice": "0x174876e800",
      "from": "0xe62ab4d111f968660c6b2188046f9b9ba53c4bae",
      "to": "0x605ab9626e57c5d1f3f0508d5400ab0449b5a015",
      "contractAddress": null
    },
    {
      "status": "0x1",
      "cumulativeGasUsed": "0x26ee1",
      "logs": [],
      "logsBloom": "0x00000000000000000000000000000000000000000000000000000000000000000000000000000000000000000000000000000000000000000000000000000000000000000000000000000000000000000000000000000000000000000000000000000000000000000000000000000000000000000000000000000000000000000000000000000000000000000000000000000000000000000000000000000000000000000000000000000000000000000000000000000000000000000000000000000000000000000000000000000000000000000000000000000000000000000000000000000000000000000000000000000000000000000000000000000000",
      "type": "0x0",
      "transactionHash": "0x0ec136f09da05f3131334170db9d5118646a485637a54603454a98a617be5bc3",
      "transactionIndex": "0x1",
      "blockHash": "0x076089eb4979bdbef89d0b08f31cba3d17a176176f5e0c0d1e9ef1c313465369",
      "blockNumber": "0x2bb52d2",
      "gasUsed": "0xbd1f",
      "effectiveGasPrice": "0x174876e800",
      "from": "0xe62ab4d111f968660c6b2188046f9b9ba53c4bae",
      "to": "0x605ab9626e57c5d1f3f0508d5400ab0449b5a015",
      "contractAddress": null
    },
    {
      "status": "0x1",
      "cumulativeGasUsed": "0xbd36",
      "logs": [],
      "logsBloom": "0x00000000000000000000000000000000000000000000000000000000000000000000000000000000000000000000000000000000000000000000000000000000000000000000000000000000000000000000000000000000000000000000000000000000000000000000000000000000000000000000000000000000000000000000000000000000000000000000000000000000000000000000000000000000000000000000000000000000000000000000000000000000000000000000000000000000000000000000000000000000000000000000000000000000000000000000000000000000000000000000000000000000000000000000000000000000",
      "type": "0x0",
      "transactionHash": "0xea243f6b0d93a1539922922f20e2edf013a1a7a5c564487612a6b81112293af4",
      "transactionIndex": "0x0",
      "blockHash": "0x34e6b3a339f5bc11639162f76df22bc7c4de89c1e508c61ae9caf9d9c47ddede",
      "blockNumber": "0x2bb52d4",
      "gasUsed": "0xbd36",
      "effectiveGasPrice": "0x174876e800",
      "from": "0xe62ab4d111f968660c6b2188046f9b9ba53c4bae",
      "to": "0x605ab9626e57c5d1f3f0508d5400ab0449b5a015",
      "contractAddress": null
    },
    {
      "status": "0x1",
      "cumulativeGasUsed": "0xbd4d",
      "logs": [],
      "logsBloom": "0x00000000000000000000000000000000000000000000000000000000000000000000000000000000000000000000000000000000000000000000000000000000000000000000000000000000000000000000000000000000000000000000000000000000000000000000000000000000000000000000000000000000000000000000000000000000000000000000000000000000000000000000000000000000000000000000000000000000000000000000000000000000000000000000000000000000000000000000000000000000000000000000000000000000000000000000000000000000000000000000000000000000000000000000000000000000",
      "type": "0x0",
      "transactionHash": "0xaaaa418b205e99c1eabbbd1e3d443d88c75dc9db5a466e1ab46047fafa662874",
      "transactionIndex": "0x0",
      "blockHash": "0xacc98a422a5acdc343c219ad6bdebbc4d481a3073945ec8055a3441202649ffb",
      "blockNumber": "0x2bb52d7",
      "gasUsed": "0xbd4d",
      "effectiveGasPrice": "0x174876e800",
      "from": "0xe62ab4d111f968660c6b2188046f9b9ba53c4bae",
      "to": "0x605ab9626e57c5d1f3f0508d5400ab0449b5a015",
      "contractAddress": null
    },
    {
      "status": "0x1",
      "cumulativeGasUsed": "0xbd64",
      "logs": [],
      "logsBloom": "0x00000000000000000000000000000000000000000000000000000000000000000000000000000000000000000000000000000000000000000000000000000000000000000000000000000000000000000000000000000000000000000000000000000000000000000000000000000000000000000000000000000000000000000000000000000000000000000000000000000000000000000000000000000000000000000000000000000000000000000000000000000000000000000000000000000000000000000000000000000000000000000000000000000000000000000000000000000000000000000000000000000000000000000000000000000000",
      "type": "0x0",
      "transactionHash": "0x4fd658748443a2cfcf2babb15205def9fbc8354a0c5749858592e9969b06f2b1",
      "transactionIndex": "0x0",
      "blockHash": "0xb91061f4063e899913d847765efe152372dfbd7a9e0ffbab1caf8b396f619a61",
      "blockNumber": "0x2bb52d9",
      "gasUsed": "0xbd64",
      "effectiveGasPrice": "0x174876e800",
      "from": "0xe62ab4d111f968660c6b2188046f9b9ba53c4bae",
      "to": "0x605ab9626e57c5d1f3f0508d5400ab0449b5a015",
      "contractAddress": null
    },
    {
      "status": "0x1",
      "cumulativeGasUsed": "0xbd76",
      "logs": [],
      "logsBloom": "0x00000000000000000000000000000000000000000000000000000000000000000000000000000000000000000000000000000000000000000000000000000000000000000000000000000000000000000000000000000000000000000000000000000000000000000000000000000000000000000000000000000000000000000000000000000000000000000000000000000000000000000000000000000000000000000000000000000000000000000000000000000000000000000000000000000000000000000000000000000000000000000000000000000000000000000000000000000000000000000000000000000000000000000000000000000000",
      "type": "0x0",
      "transactionHash": "0x344bd8517aa58097b4f721bf08c2ddeb7cf01e256acb57a982728e91ec082c4e",
      "transactionIndex": "0x0",
      "blockHash": "0xe66c1cada65357e5b146eea32b68535257109589675f01c99752200eb9874825",
      "blockNumber": "0x2bb52dc",
      "gasUsed": "0xbd76",
      "effectiveGasPrice": "0x174876e800",
      "from": "0xe62ab4d111f968660c6b2188046f9b9ba53c4bae",
      "to": "0x605ab9626e57c5d1f3f0508d5400ab0449b5a015",
      "contractAddress": null
    },
    {
      "status": "0x1",
      "cumulativeGasUsed": "0x226da",
      "logs": [],
      "logsBloom": "0x00000000000000000000000000000000000000000000000000000000000000000000000000000000000000000000000000000000000000000000000000000000000000000000000000000000000000000000000000000000000000000000000000000000000000000000000000000000000000000000000000000000000000000000000000000000000000000000000000000000000000000000000000000000000000000000000000000000000000000000000000000000000000000000000000000000000000000000000000000000000000000000000000000000000000000000000000000000000000000000000000000000000000000000000000000000",
      "type": "0x0",
      "transactionHash": "0x127b61bf31b33755a8c4465255ee5d5ae02f05fc17a5e826d73ee2420c6e831e",
      "transactionIndex": "0x0",
      "blockHash": "0xdbb5ef4167bdeaca980e6ebee2157b020017887fd2d7ce8921aed4ac455ccec3",
      "blockNumber": "0x2bb52de",
      "gasUsed": "0x226da",
      "effectiveGasPrice": "0x174876e800",
      "from": "0xe62ab4d111f968660c6b2188046f9b9ba53c4bae",
      "to": "0x605ab9626e57c5d1f3f0508d5400ab0449b5a015",
      "contractAddress": null
    },
    {
      "status": "0x1",
      "cumulativeGasUsed": "0x1ea5a",
      "logs": [],
      "logsBloom": "0x00000000000000000000000000000000000000000000000000000000000000000000000000000000000000000000000000000000000000000000000000000000000000000000000000000000000000000000000000000000000000000000000000000000000000000000000000000000000000000000000000000000000000000000000000000000000000000000000000000000000000000000000000000000000000000000000000000000000000000000000000000000000000000000000000000000000000000000000000000000000000000000000000000000000000000000000000000000000000000000000000000000000000000000000000000000",
      "type": "0x0",
      "transactionHash": "0x3da5f6914459bd6c31797c1b01dff2bf228c68af60c96c21a267f084523e7d98",
      "transactionIndex": "0x0",
      "blockHash": "0x15e1bbb41df68445daceae79cfe11ac7e746f1a8053db1920c676c50b6fb164f",
      "blockNumber": "0x2bb52e1",
      "gasUsed": "0x1ea5a",
      "effectiveGasPrice": "0x174876e800",
      "from": "0xe62ab4d111f968660c6b2188046f9b9ba53c4bae",
      "to": "0x605ab9626e57c5d1f3f0508d5400ab0449b5a015",
      "contractAddress": null
    },
    {
      "status": "0x1",
      "cumulativeGasUsed": "0x1ea5a",
      "logs": [],
      "logsBloom": "0x00000000000000000000000000000000000000000000000000000000000000000000000000000000000000000000000000000000000000000000000000000000000000000000000000000000000000000000000000000000000000000000000000000000000000000000000000000000000000000000000000000000000000000000000000000000000000000000000000000000000000000000000000000000000000000000000000000000000000000000000000000000000000000000000000000000000000000000000000000000000000000000000000000000000000000000000000000000000000000000000000000000000000000000000000000000",
      "type": "0x0",
      "transactionHash": "0x2e1f362da11f4c7f77136411d7fcf1d233ebac08d971d9fb5bca54695d6cfdf1",
      "transactionIndex": "0x0",
      "blockHash": "0x6d9d48aee28a1897f2fc1e5110473ca32d833267cfd4a4a8aec88fe087e6e608",
      "blockNumber": "0x2bb52e3",
      "gasUsed": "0x1ea5a",
      "effectiveGasPrice": "0x174876e800",
      "from": "0xe62ab4d111f968660c6b2188046f9b9ba53c4bae",
      "to": "0x605ab9626e57c5d1f3f0508d5400ab0449b5a015",
      "contractAddress": null
    },
    {
      "status": "0x1",
      "cumulativeGasUsed": "0x1e5ce",
      "logs": [],
      "logsBloom": "0x00000000000000000000000000000000000000000000000000000000000000000000000000000000000000000000000000000000000000000000000000000000000000000000000000000000000000000000000000000000000000000000000000000000000000000000000000000000000000000000000000000000000000000000000000000000000000000000000000000000000000000000000000000000000000000000000000000000000000000000000000000000000000000000000000000000000000000000000000000000000000000000000000000000000000000000000000000000000000000000000000000000000000000000000000000000",
      "type": "0x0",
      "transactionHash": "0x18544c3b3b1e546f5c023f1094e5190d639cb90ce3678ef5fb711c353b789eef",
      "transactionIndex": "0x0",
      "blockHash": "0xb7ce331cbd604451330cd0c69b0d8c8fb7243a01c2f70303a213a0f237062671",
      "blockNumber": "0x2bb52e5",
      "gasUsed": "0x1e5ce",
      "effectiveGasPrice": "0x174876e800",
      "from": "0xe62ab4d111f968660c6b2188046f9b9ba53c4bae",
      "to": "0x605ab9626e57c5d1f3f0508d5400ab0449b5a015",
      "contractAddress": null
    },
    {
      "status": "0x1",
      "cumulativeGasUsed": "0x1eee6",
      "logs": [],
      "logsBloom": "0x00000000000000000000000000000000000000000000000000000000000000000000000000000000000000000000000000000000000000000000000000000000000000000000000000000000000000000000000000000000000000000000000000000000000000000000000000000000000000000000000000000000000000000000000000000000000000000000000000000000000000000000000000000000000000000000000000000000000000000000000000000000000000000000000000000000000000000000000000000000000000000000000000000000000000000000000000000000000000000000000000000000000000000000000000000000",
      "type": "0x0",
      "transactionHash": "0xb7d67a973c0ac543bff05982bee57dbe05c84a76d9f4e247810bc38a342a9b35",
      "transactionIndex": "0x0",
      "blockHash": "0xa947100cc3cb1f2918ac5400f2943cde6f88221d40538fa7bfe0332cd3eea17a",
      "blockNumber": "0x2bb52e8",
      "gasUsed": "0x1eee6",
      "effectiveGasPrice": "0x174876e800",
      "from": "0xe62ab4d111f968660c6b2188046f9b9ba53c4bae",
      "to": "0x605ab9626e57c5d1f3f0508d5400ab0449b5a015",
      "contractAddress": null
    },
    {
      "status": "0x1",
      "cumulativeGasUsed": "0x7bf5d",
      "logs": [],
      "logsBloom": "0x00000000000000000000000000000000000000000000000000000000000000000000000000000000000000000000000000000000000000000000000000000000000000000000000000000000000000000000000000000000000000000000000000000000000000000000000000000000000000000000000000000000000000000000000000000000000000000000000000000000000000000000000000000000000000000000000000000000000000000000000000000000000000000000000000000000000000000000000000000000000000000000000000000000000000000000000000000000000000000000000000000000000000000000000000000000",
      "type": "0x0",
      "transactionHash": "0xb4ac76ee7b0e81622a1d8310b21ed06a9a13d6c89bcde261998aae068d5a0954",
      "transactionIndex": "0x0",
      "blockHash": "0xaf39fe736f35abf3b5eee230bf9d034a983ef46b680e4f88370f8644e738a52f",
      "blockNumber": "0x2bb52ea",
      "gasUsed": "0x7bf5d",
      "effectiveGasPrice": "0x174876e800",
      "from": "0xe62ab4d111f968660c6b2188046f9b9ba53c4bae",
      "to": "0xc0dd542bcac26095a2c83ffb10826ccef806c07b",
      "contractAddress": null
    },
    {
      "status": "0x1",
      "cumulativeGasUsed": "0xa623a",
      "logs": [],
      "logsBloom": "0x00000000000000000000000000000000000000000000000000000000000000000000000000000000000000000000000000000000000000000000000000000000000000000000000000000000000000000000000000000000000000000000000000000000000000000000000000000000000000000000000000000000000000000000000000000000000000000000000000000000000000000000000000000000000000000000000000000000000000000000000000000000000000000000000000000000000000000000000000000000000000000000000000000000000000000000000000000000000000000000000000000000000000000000000000000000",
      "type": "0x0",
      "transactionHash": "0xe9d1da4fdc0d6c56c48d33ff2a33d11997449ecedac7527c7bc4c2501793d9fa",
      "transactionIndex": "0x2",
      "blockHash": "0xf4ce8149908a067ce67d21b65e0acb4920e918e79b03c6c60dd40f39a8f38fa6",
      "blockNumber": "0x2bb52ed",
      "gasUsed": "0x9bdda",
      "effectiveGasPrice": "0x174876e800",
      "from": "0xe62ab4d111f968660c6b2188046f9b9ba53c4bae",
      "to": "0xc0dd542bcac26095a2c83ffb10826ccef806c07b",
      "contractAddress": null
    },
    {
      "status": "0x1",
      "cumulativeGasUsed": "0x9bc89",
      "logs": [],
      "logsBloom": "0x00000000000000000000000000000000000000000000000000000000000000000000000000000000000000000000000000000000000000000000000000000000000000000000000000000000000000000000000000000000000000000000000000000000000000000000000000000000000000000000000000000000000000000000000000000000000000000000000000000000000000000000000000000000000000000000000000000000000000000000000000000000000000000000000000000000000000000000000000000000000000000000000000000000000000000000000000000000000000000000000000000000000000000000000000000000",
      "type": "0x0",
      "transactionHash": "0x5d764f1f4dd47832ebac70b60699b2583d984354ba35f36fdde1fee022efb4ed",
      "transactionIndex": "0x0",
      "blockHash": "0xf3b669a4fc7da4535a2c70bf698bb0a74d7c9aaf3c8bb51910b6d33e019354d3",
      "blockNumber": "0x2bb52ef",
      "gasUsed": "0x9bc89",
      "effectiveGasPrice": "0x174876e800",
      "from": "0xe62ab4d111f968660c6b2188046f9b9ba53c4bae",
      "to": "0xc0dd542bcac26095a2c83ffb10826ccef806c07b",
      "contractAddress": null
    }
  ],
  "libraries": [],
  "pending": [],
  "returns": {},
  "timestamp": 1732213847,
  "chain": 97,
  "commit": "4b2e1f8c"
}