{
  "transactions": [
    {
      "hash": "0xa8c5d4e014c646ee28374775071bdd914e2237f2d14557e1854518282ddf8d5c",
      "transactionType": "CALL",
      "contractName": null,
      "contractAddress": "0xbce6b1ab3790bce90e2299cc9c46f6d2bcb56324",
      "function": "getFeeTokenList()",
      "arguments": [],
      "transaction": {
        "from": "0xe62ab4d111f968660c6b2188046f9b9ba53c4bae",
        "to": "0xbce6b1ab3790bce90e2299cc9c46f6d2bcb56324",
        "gas": "0x8a7e",
        "value": "0x0",
        "input": "0xe28ab277",
        "nonce": "0x192",
        "chainId": "0x61"
      },
      "additionalContracts": [],
      "isFixedGasLimit": false
    },
    {
      "hash": "0x58649b8dec5a2411a940e0abc80447fe089bb060086d2794cd3d7bd32240b479",
      "transactionType": "CALL",
      "contractName": null,
      "contractAddress": "0xbce6b1ab3790bce90e2299cc9c46f6d2bcb56324",
      "function": "addFeeToken(string)",
      "arguments": [
        "0xdd43fc986a13392ddbc7aea150b41efe27b2d0ed"
      ],
      "transaction": {
        "from": "0xe62ab4d111f968660c6b2188046f9b9ba53c4bae",
        "to": "0xbce6b1ab3790bce90e2299cc9c46f6d2bcb56324",
        "gas": "0x26af2",
        "value": "0x0",
        "input": "0x12a6385f0000000000000000000000000000000000000000000000000000000000000020000000000000000000000000000000000000000000000000000000000000002a30786464343366633938366131333339326464626337616561313530623431656665323762326430656400000000000000000000000000000000000000000000",
        "nonce": "0x193",
        "chainId": "0x61"
      },
      "additionalContracts": [],
      "isFixedGasLimit": false
    },
    {
      "hash": "0xeefbc5b638dc4cb7c0d8947af847529b468fa5f8f70767a2fa09ae4e41efcde5",
      "transactionType": "CALL",
      "contractName": null,
      "contractAddress": "0xbce6b1ab3790bce90e2299cc9c46f6d2bcb56324",
      "function": "setFeeMultiplier(uint8,uint256)",
      "arguments": [
        "0",
        "2"
      ],
      "transaction": {
        "from": "0xe62ab4d111f968660c6b2188046f9b9ba53c4bae",
        "to": "0xbce6b1ab3790bce90e2299cc9c46f6d2bcb56324",
        "gas": "0x112e8",
        "value": "0x0",
        "input": "0x0ee24eb500000000000000000000000000000000000000000000000000000000000000000000000000000000000000000000000000000000000000000000000000000002",
        "nonce": "0x194",
        "chainId": "0x61"
      },
      "additionalContracts": [],
      "isFixedGasLimit": false
    },
    {
      "hash": "0xb96fd52e222f1c48356b8f6a7ea14d3b9fe1aa28b0fcaef0a563e28619f39907",
      "transactionType": "CALL",
      "contractName": null,
      "contractAddress": "0xbce6b1ab3790bce90e2299cc9c46f6d2bcb56324",
      "function": "setFeeMultiplier(uint8,uint256)",
      "arguments": [
        "1",
        "10"
      ],
      "transaction": {
        "from": "0xe62ab4d111f968660c6b2188046f9b9ba53c4bae",
        "to": "0xbce6b1ab3790bce90e2299cc9c46f6d2bcb56324",
        "gas": "0x11324",
        "value": "0x0",
        "input": "0x0ee24eb50000000000000000000000000000000000000000000000000000000000000001000000000000000000000000000000000000000000000000000000000000000a",
        "nonce": "0x195",
        "chainId": "0x61"
      },
      "additionalContracts": [],
      "isFixedGasLimit": false
    },
    {
      "hash": "0x63df666b350cb5e04b78941eb503334f29c8532073cf064a69679896fccab159",
      "transactionType": "CALL",
      "contractName": null,
      "contractAddress": "0xbce6b1ab3790bce90e2299cc9c46f6d2bcb56324",
      "function": "setFeeMultiplier(uint8,uint256)",
      "arguments": [
        "2",
        "1"
      ],
      "transaction": {
        "from": "0xe62ab4d111f968660c6b2188046f9b9ba53c4bae",
        "to": "0xbce6b1ab3790bce90e2299cc9c46f6d2bcb56324",
        "gas": "0x11346",
        "value": "0x0",
        "input": "0x0ee24eb500000000000000000000000000000000000000000000000000000000000000020000000000000000000000000000000000000000000000000000000000000001",
        "nonce": "0x196",
        "chainId": "0x61"
      },
      "additionalContracts": [],
      "isFixedGasLimit": false
    },
    {
      "hash": "0x3f9d3d047230ac50f651eae7269f944ab8b5e912907b9804ed090b555a5f6133",
      "transactionType": "CALL",
      "contractName": null,
      "contractAddress": "0xbce6b1ab3790bce90e2299cc9c46f6d2bcb56324",
      "function": "setFeeMultiplier(uint8,uint256)",
      "arguments": [
        "3",
        "4"
      ],
      "transaction": {
        "from": "0xe62ab4d111f968660c6b2188046f9b9ba53c4bae",
        "to": "0xbce6b1ab3790bce90e2299cc9c46f6d2bcb56324",
        "gas": "0x1041b",
        "value": "0x0",
        "input": "0x0ee24eb500000000000000000000000000000000000000000000000000000000000000030000000000000000000000000000000000000000000000000000000000000004",
        "nonce": "0x197",
        "chainId": "0x61"
      },
      "additionalContracts": [],
      "isFixedGasLimit": false
    },
    {
      "hash": "0xdbfad388ba4fbfdb896f6c7aeddcba095ee993f66cff7018f7b450b6e6139a55",
      "transactionType": "CALL",
      "contractName": null,
      "contractAddress": "0xbce6b1ab3790bce90e2299cc9c46f6d2bcb56324",
      "function": "setFeeMultiplier(uint8,uint256)",
      "arguments": [
        "4",
        "4"
      ],
      "transaction": {
        "from": "0xe62ab4d111f968660c6b2188046f9b9ba53c4bae",
        "to": "0xbce6b1ab3790bce90e2299cc9c46f6d2bcb56324",
        "gas": "0x1043a",
        "value": "0x0",
        "input": "0x0ee24eb500000000000000000000000000000000000000000000000000000000000000040000000000000000000000000000000000000000000000000000000000000004",
        "nonce": "0x198",
        "chainId": "0x61"
      },
      "additionalContracts": [],
      "isFixedGasLimit": false
    },
    {
      "hash": "0x34de59e62630f8ce13d737e9df916b0267c0f2f7d38c0e08927060cce1747299",
      "transactionType": "CALL",
      "contractName": null,
      "contractAddress": "0xbce6b1ab3790bce90e2299cc9c46f6d2bcb56324",
      "function": "setFeeMultiplier(uint8,uint256)",
      "arguments": [
        "5",
        "8"
      ],
      "transaction": {
        "from": "0xe62ab4d111f968660c6b2188046f9b9ba53c4bae",
        "to": "0xbce6b1ab3790bce90e2299cc9c46f6d2bcb56324",
        "gas": "0x10459",
        "value": "0x0",
        "input": "0x0ee24eb500000000000000000000000000000000000000000000000000000000000000050000000000000000000000000000000000000000000000000000000000000008",
        "nonce": "0x199",
        "chainId": "0x61"
      },
      "additionalContracts": [],
      "isFixedGasLimit": false
    },
    {
      "hash": "0xf19d5cfc280fd531a6df025d5d47428a84dc9d4c6dac66b2803036219bad5c37",
      "transactionType": "CALL",
      "contractName": null,
      "contractAddress": "0xbce6b1ab3790bce90e2299cc9c46f6d2bcb56324",
      "function": "setFeeMultiplier(uint8,uint256)",
      "arguments": [
        "6",
        "4"
      ],
      "transaction": {
        "from": "0xe62ab4d111f968660c6b2188046f9b9ba53c4bae",
        "to": "0xbce6b1ab3790bce90e2299cc9c46f6d2bcb56324",
        "gas": "0x10473",
        "value": "0x0",
        "input": "0x0ee24eb500000000000000000000000000000000000000000000000000000000000000060000000000000000000000000000000000000000000000000000000000000004",
        "nonce": "0x19a",
        "chainId": "0x61"
      },
      "additionalContracts": [],
      "isFixedGasLimit": false
    },
    {
      "hash": "0x100a1e3a5c90fc4ad2dfd82455630f5a20ee0535cfacca3b1eda55a00b82fdaa",
      "transactionType": "CALL",
      "contractName": null,
      "contractAddress": "0xbce6b1ab3790bce90e2299cc9c46f6d2bcb56324",
      "function": "addFeeToken(string,string[],uint256[])",
      "arguments": [
        "421614",
        "[0xdd43fc986a13392ddbc7aea150b41efe27b2d0ed]",
        "[1000]"
      ],
      "transaction": {
        "from": "0xe62ab4d111f968660c6b2188046f9b9ba53c4bae",
        "to": "0xbce6b1ab3790bce90e2299cc9c46f6d2bcb56324",
        "gas": "0x2f8ed",
        "value": "0x0",
        "input": "0x437bf84f000000000000000000000000000000000000000000000000000000000000006000000000000000000000000000000000000000000000000000000000000000a000000000000000000000000000000000000000000000000000000000000001400000000000000000000000000000000000000000000000000000000000000006343231363134000000000000000000000000000000000000000000000000000000000000000000000000000000000000000000000000000000000000000000010000000000000000000000000000000000000000000000000000000000000020000000000000000000000000000000000000000000000000000000000000002a30786464343366633938366131333339326464626337616561313530623431656665323762326430656400000000000000000000000000000000000000000000000000000000000000000000000000000000000000000000000000000000000100000000000000000000000000000000000000000000000000000000000003e8",
        "nonce": "0x19b",
        "chainId": "0x61"
      },
      "additionalContracts": [],
      "isFixedGasLimit": false
    },
    {
      "hash": "0x5be3b71e664449667912d6080464bdadb5a7179ea0c6169255f67b0732f20c91",
      "transactionType": "CALL",
      "contractName": null,
      "contractAddress": "0xbce6b1ab3790bce90e2299cc9c46f6d2bcb56324",
      "function": "addFeeToken(string,string[],uint256[])",
      "arguments": [
        "80002",
        "[0xdd43fc986a13392ddbc7aea150b41efe27b2d0ed]",
        "[1000]"
      ],
      "transaction": {
        "from": "0xe62ab4d111f968660c6b2188046f9b9ba53c4bae",
        "to": "0xbce6b1ab3790bce90e2299cc9c46f6d2bcb56324",
        "gas": "0x2a55c",
        "value": "0x0",
        "input": "0x437bf84f000000000000000000000000000000000000000000000000000000000000006000000000000000000000000000000000000000000000000000000000000000a000000000000000000000000000000000000000000000000000000000000001400000000000000000000000000000000000000000000000000000000000000005383030303200000000000000000000000000000000000000000000000000000000000000000000000000000000000000000000000000000000000000000000010000000000000000000000000000000000000000000000000000000000000020000000000000000000000000000000000000000000000000000000000000002a30786464343366633938366131333339326464626337616561313530623431656665323762326430656400000000000000000000000000000000000000000000000000000000000000000000000000000000000000000000000000000000000100000000000000000000000000000000000000000000000000000000000003e8",
        "nonce": "0x19c",
        "chainId": "0x61"
      },
      "additionalContracts": [],
      "isFixedGasLimit": false
    },
    {
      "hash": "0xca5647ab545570dbb757b384c5d07a1d072eda367b3d7340977f6229d1975916",
      "transactionType": "CALL",
      "contractName": null,
      "contractAddress": "0xbce6b1ab3790bce90e2299cc9c46f6d2bcb56324",
      "function": "addFeeToken(string,string[],uint256[])",
      "arguments": [
        "84532",
        "[0xdd43fc986a13392ddbc7aea150b41efe27b2d0ed]",
        "[1000]"
      ],
      "transaction": {
        "from": "0xe62ab4d111f968660c6b2188046f9b9ba53c4bae",
        "to": "0xbce6b1ab3790bce90e2299cc9c46f6d2bcb56324",
        "gas": "0x2a55c",
        "value": "0x0",
        "input": "0x437bf84f000000000000000000000000000000000000000000000000000000000000006000000000000000000000000000000000000000000000000000000000000000a000000000000000000000000000000000000000000000000000000000000001400000000000000000000000000000000000000000000000000000000000000005383435333200000000000000000000000000000000000000000000000000000000000000000000000000000000000000000000000000000000000000000000010000000000000000000000000000000000000000000000000000000000000020000000000000000000000000000000000000000000000000000000000000002a30786464343366633938366131333339326464626337616561313530623431656665323762326430656400000000000000000000000000000000000000000000000000000000000000000000000000000000000000000000000000000000000100000000000000000000000000000000000000000000000000000000000003e8",
        "nonce": "0x19d",
        "chainId": "0x61"
      },
      "additionalContracts": [],
      "isFixedGasLimit": false
    },
    {
      "hash": "0xaafd74c233f85de7f0b5005df3ce1b8b40ef4ae9e8b2701cee5b1e60b44708af",
      "transactionType": "CALL",
      "contractName": null,
      "contractAddress": "0xbce6b1ab3790bce90e2299cc9c46f6d2bcb56324",
      "function": "addFeeToken(string,string[],uint256[])",
      "arguments": [
        "97",
        "[0xdd43fc986a13392ddbc7aea150b41efe27b2d0ed]",
        "[1000]"
      ],
      "transaction": {
        "from": "0xe62ab4d111f968660c6b2188046f9b9ba53c4bae",
        "to": "0xbce6b1ab3790bce90e2299cc9c46f6d2bcb56324",
        "gas": "0x2c68e",
        "value": "0x0",
        "input": "0x437bf84f000000000000000000000000000000000000000000000000000000000000006000000000000000000000000000000000000000000000000000000000000000a000000000000000000000000000000000000000000000000000000000000001400000000000000000000000000000000000000000000000000000000000000002393700000000000000000000000000000000000000000000000000000000000000000000000000000000000000000000000000000000000000000000000000010000000000000000000000000000000000000000000000000000000000000020000000000000000000000000000000000000000000000000000000000000002a30786464343366633938366131333339326464626337616561313530623431656665323762326430656400000000000000000000000000000000000000000000000000000000000000000000000000000000000000000000000000000000000100000000000000000000000000000000000000000000000000000000000003e8",
        "nonce": "0x19e",
        "chainId": "0x61"
      },
      "additionalContracts": [],
      "isFixedGasLimit": false
    },
    {
      "hash": "0x8955405fe22ac83b5f0f8f5f609c3685c7d1b78c6d8e8fdac1dcb6bc20e4b821",
      "transactionType": "CALL",
      "contractName": null,
      "contractAddress": "0xbce6b1ab3790bce90e2299cc9c46f6d2bcb56324",
      "function": "addFeeToken(string,string[],uint256[])",
      "arguments": [
        "11155111",
        "[0xdd43fc986a13392ddbc7aea150b41efe27b2d0ed]",
        "[1000]"
      ],
      "transaction": {
        "from": "0xe62ab4d111f968660c6b2188046f9b9ba53c4bae",
        "to": "0xbce6b1ab3790bce90e2299cc9c46f6d2bcb56324",
        "gas": "0x2d3db",
        "value": "0x0",
        "input": "0x437bf84f000000000000000000000000000000000000000000000000000000000000006000000000000000000000000000000000000000000000000000000000000000a000000000000000000000000000000000000000000000000000000000000001400000000000000000000000000000000000000000000000000000000000000008313131353531313100000000000000000000000000000000000000000000000000000000000000000000000000000000000000000000000000000000000000010000000000000000000000000000000000000000000000000000000000000020000000000000000000000000000000000000000000000000000000000000002a30786464343366633938366131333339326464626337616561313530623431656665323762326430656400000000000000000000000000000000000000000000000000000000000000000000000000000000000000000000000000000000000100000000000000000000000000000000000000000000000000000000000003e8",
        "nonce": "0x19f",
        "chainId": "0x61"
      },
      "additionalContracts": [],
      "isFixedGasLimit": false
    },
    {
      "hash": "0x8fd467404b1d91e1ea5e2cdc5f095b52229ea5023033faf6f3f09cab05a3afb4",
      "transactionType": "CALL",
      "contractName": null,
      "contractAddress": "0x291e038ef58dcfdf020e0bbea0c9a36713db7966",
      "function": "addChainContract(string[],string[])",
      "arguments": [
        "[421614, 80002, 84532, 11155111]",
        "[0x82c7cf3ad2a7c6ea732c131e552ad171d190421e, 0xb75a2833405907508bd5f8dea3a24fa537d9c85c, 0x8b8de69a9cbca6b7cb85406dde46116dd520d5b0, 0xf1a79c24eff78ffffbd4f8df0ce31adec284b9cf]"
      ],
      "transaction": {
        "from": "0xe62ab4d111f968660c6b2188046f9b9ba53c4bae",
        "to": "0x291e038ef58dcfdf020e0bbea0c9a36713db7966",
        "gas": "0xab01e",
        "value": "0x0",
        "input": "0x013fd3bd000000000000000000000000000000000000000000000000000000000000004000000000000000000000000000000000000000000000000000000000000001e00000000000000000000000000000000000000000000000000000000000000004000000000000000000000000000000000000000000000000000000000000008000000000000000000000000000000000000000000000000000000000000000c000000000000000000000000000000000000000000000000000000000000001000000000000000000000000000000000000000000000000000000000000000140000000000000000000000000000000000000000000000000000000000000000634323136313400000000000000000000000000000000000000000000000000000000000000000000000000000000000000000000000000000000000000000005383030303200000000000000000000000000000000000000000000000000000000000000000000000000000000000000000000000000000000000000000000053834353332000000000000000000000000000000000000000000000000000000000000000000000000000000000000000000000000000000000000000000000831313135353131310000000000000000000000000000000000000000000000000000000000000000000000000000000000000000000000000000000000000004000000000000000000000000000000000000000000000000000000000000008000000000000000000000000000000000000000000000000000000000000000e0000000000000000000000000000000000000000000000000000000000000014000000000000000000000000000000000000000000000000000000000000001a0000000000000000000000000000000000000000000000000000000000000002a30783832633763663361643261376336656137333263313331653535326164313731643139303432316500000000000000000000000000000000000000000000000000000000000000000000000000000000000000000000000000000000002a30786237356132383333343035393037353038626435663864656133613234666135333764396338356300000000000000000000000000000000000000000000000000000000000000000000000000000000000000000000000000000000002a30783862386465363961396362636136623763623835343036646465343631313664643532306435623000000000000000000000000000000000000000000000000000000000000000000000000000000000000000000000000000000000002a30786631613739633234656666373866666666626434663864663063653331616465633238346239636600000000000000000000000000000000000000000000",
        "nonce": "0x1a0",
        "chainId": "0x61"
      },
      "additionalContracts": [],
      "isFixedGasLimit": false
    },
    {
      "hash": "0xf92c766b1b9ecb952afefaf64643bf56c888888d875121806a88410599e712f4",
      "transactionType": "CALL",
      "contractName": null,
      "contractAddress": "0x291e038ef58dcfdf020e0bbea0c9a36713db7966",
      "function": "attachRWAX(uint256,uint256,string[],string[])",
      "arguments": [
        "1",
        "1",
        "[97, 421614, 80002, 84532, 11155111]",
        "[0x4328bf65bc8c69067a03d0fbde94ca1e24ed966c, 0x6f2f79720c81631d3a0fe8e19c96f3cebd56519a, 0x74da08abcb64a66370e9c1609771e68aafede27b, 0x24da0f2114b682d01234bc9e103ff7eebf86ae6a, 0x2be0c4ac75784737d4d0e75c4026d4bc671b938e]"
      ],
      "transaction": {
        "from": "0xe62ab4d111f968660c6b2188046f9b9ba53c4bae",
        "to": "0x291e038ef58dcfdf020e0bbea0c9a36713db7966",
        "gas": "0xd737f",
        "value": "0x0",
        "input": "0x33a5f5b40000000000000000000000000000000000000000000000000000000000000001000000000000000000000000000000000000000000000000000000000000000100000000000000000000000000000000000000000000000000000000000000800000000000000000000000000000000000000000000000000000000000000280000000000000000000000000000000000000000000000000000000000000000500000000000000000000000000000000000000000000000000000000000000a000000000000000000000000000000000000000000000000000000000000000e00000000000000000000000000000000000000000000000000000000000000120000000000000000000000000000000000000000000000000000000000000016000000000000000000000000000000000000000000000000000000000000001a00000000000000000000000000000000000000000000000000000000000000002393700000000000000000000000000000000000000000000000000000000000000000000000000000000000000000000000000000000000000000000000000063432313631340000000000000000000000000000000000000000000000000000000000000000000000000000000000000000000000000000000000000000000538303030320000000000000000000000000000000000000000000000000000000000000000000000000000000000000000000000000000000000000000000005383435333200000000000000000000000000000000000000000000000000000000000000000000000000000000000000000000000000000000000000000000083131313535313131000000000000000000000000000000000000000000000000000000000000000000000000000000000000000000000000000000000000000500000000000000000000000000000000000000000000000000000000000000a00000000000000000000000000000000000000000000000000000000000000100000000000000000000000000000000000000000000000000000000000000016000000000000000000000000000000000000000000000000000000000000001c00000000000000000000000000000000000000000000000000000000000000220000000000000000000000000000000000000000000000000000000000000002a30783433323862663635626338633639303637613033643066626465393463613165323465643936366300000000000000000000000000000000000000000000000000000000000000000000000000000000000000000000000000000000002a30783666326637393732306338313633316433613066653865313963393666336365626435363531396100000000000000000000000000000000000000000000000000000000000000000000000000000000000000000000000000000000002a30783734646130386162636236346136363337306539633136303937373165363861616665646532376200000000000000000000000000000000000000000000000000000000000000000000000000000000000000000000000000000000002a30783234646130663231313462363832643031323334626339653130336666376565626638366165366100000000000000000000000000000000000000000000000000000000000000000000000000000000000000000000000000000000002a30783262653063346163373537383437333764346430653735633430323664346263363731623933386500000000000000000000000000000000000000000000",
        "nonce": "0x1a1",
        "chainId": "0x61"
      },
      "additionalContracts": [],
      "isFixedGasLimit": false
    },
    {
      "hash": "0x15a806b567a065bebf199e97bd4be12b4eec4b783dea128c77b2d9060e1edfbc",
      "transactionType": "CALL",
      "contractName": null,
      "contractAddress": "0x291e038ef58dcfdf020e0bbea0c9a36713db7966",
      "function": "attachStorageManager(uint256,uint256,string[],string[])",
      "arguments": [
        "1",
        "1",
        "[97, 421614, 80002, 84532, 11155111]",
        "[0x6187ee058bb5b7db140cfd470a27ebe1f16d92b1, 0x6dd5666ef6b2e83d504c1ee586fb3c630abc7fd2, 0x44bd5b80fed6d6574d21f9b748d0b9a1d5566312, 0x4fb3a28c53c88731d783610d0ff275b02bbf19e0, 0x8e36c2b1ac03d98fac0074c9e8e27023a3ce2206]"
      ],
      "transaction": {
        "from": "0xe62ab4d111f968660c6b2188046f9b9ba53c4bae",
        "to": "0x291e038ef58dcfdf020e0bbea0c9a36713db7966",
        "gas": "0xd723f",
        "value": "0x0",
        "input": "0x2f68b4890000000000000000000000000000000000000000000000000000000000000001000000000000000000000000000000000000000000000000000000000000000100000000000000000000000000000000000000000000000000000000000000800000000000000000000000000000000000000000000000000000000000000280000000000000000000000000000000000000000000000000000000000000000500000000000000000000000000000000000000000000000000000000000000a000000000000000000000000000000000000000000000000000000000000000e00000000000000000000000000000000000000000000000000000000000000120000000000000000000000000000000000000000000000000000000000000016000000000000000000000000000000000000000000000000000000000000001a00000000000000000000000000000000000000000000000000000000000000002393700000000000000000000000000000000000000000000000000000000000000000000000000000000000000000000000000000000000000000000000000063432313631340000000000000000000000000000000000000000000000000000000000000000000000000000000000000000000000000000000000000000000538303030320000000000000000000000000000000000000000000000000000000000000000000000000000000000000000000000000000000000000000000005383435333200000000000000000000000000000000000000000000000000000000000000000000000000000000000000000000000000000000000000000000083131313535313131000000000000000000000000000000000000000000000000000000000000000000000000000000000000000000000000000000000000000500000000000000000000000000000000000000000000000000000000000000a00000000000000000000000000000000000000000000000000000000000000100000000000000000000000000000000000000000000000000000000000000016000000000000000000000000000000000000000000000000000000000000001c00000000000000000000000000000000000000000000000000000000000000220000000000000000000000000000000000000000000000000000000000000002a30783631383765653035386262356237646231343063666434373061323765626531663136643932623100000000000000000000000000000000000000000000000000000000000000000000000000000000000000000000000000000000002a30783664643536363665663662326538336435303463316565353836666233633633306162633766643200000000000000000000000000000000000000000000000000000000000000000000000000000000000000000000000000000000002a30783434626435623830666564366436353734643231663962373438643062396131643535363633313200000000000000000000000000000000000000000000000000000000000000000000000000000000000000000000000000000000002a30783466623361323863353363383837333164373833363130643066663237356230326262663139653000000000000000000000000000000000000000000000000000000000000000000000000000000000000000000000000000000000002a30783865333663326231616330336439386661633030373463396538653237303233613363653232303600000000000000000000000000000000000000000000",
        "nonce": "0x1a2",
        "chainId": "0x61"
      },
      "additionalContracts": [],
      "isFixedGasLimit": false
    }
  ],
  "receipts": [
    {
      "status": "0x1",
      "cumulativeGasUsed": "0x5eb3",
      "logs": [],
      "logsBloom": "0x00000000000000000000000000000000000000000000000000000000000000000000000000000000000000000000000000000000000000000000000000000000000000000000000000000000000000000000000000000000000000000000000000000000000000000000000000000000000000000000000000000000000000000000000000000000000000000000000000000000000000000000000000000000000000000000000000000000000000000000000000000000000000000000000000000000000000000000000000000000000000000000000000000000000000000000000000000000000000000000000000000000000000000000000000000000",
      "type": "0x0",
      "transactionHash": "0xa8c5d4e014c646ee28374775071bdd914e2237f2d14557e1854518282ddf8d5c",
      "transactionIndex": "0x0",
      "blockHash": "0xdfe40a822d140201871faf1735d3889c45a7b7c6f3427692b8bc9687c4ca6a42",
      "blockNumber": "0x2b59e3f",
      "gasUsed": "0x5eb3",
      "effectiveGasPrice": "0x174876e800",
      "from": "0xe62ab4d111f968660c6b2188046f9b9ba53c4bae",
      "to": "0xbce6b1ab3790bce90e2299cc9c46f6d2bcb56324",
      "contractAddress": null
    },
    {
      "status": "0x1",
      "cumulativeGasUsed": "0x1c01c",
      "logs": [
        {
          "address": "0xbce6b1ab3790bce90e2299cc9c46f6d2bcb56324",
          "topics": [
            "0x1394cfab38f3fc78ed77ea6f9318782a446d96e7dc8e9a6b0149f6be25c08bcf",
            "0x000000000000000000000000dd43fc986a13392ddbc7aea150b41efe27b2d0ed"
          ],
          "data": "0x",
          "blockHash": "0x28711b12315e158cfee1b9bd0b208ab619001b8a3b9a2cdde2ede1a2b83a96b4",
          "blockNumber": "0x2b59e41",
          "transactionHash": "0x58649b8dec5a2411a940e0abc80447fe089bb060086d2794cd3d7bd32240b479",
          "transactionIndex": "0x0",
          "logIndex": "0x0",
          "removed": false
        }
      ],
      "logsBloom": "0x00000000000000000000000000000000000000000000000000000000000000000000000000000000000000000000010000000000000000000000000000000000000400004000000400000000000000000000001000000000000000000000000000000000000000000000000000000000000000000000000000000000000000000000000100000000000000000000000000000000000000000000000000000000000000000000000000000000000000000000000100000000000000000000000000000000000000000000000000000000000000000008000000000000000000000000000000010000000000000000000000000000000000000000000000000000",
      "type": "0x0",
      "transactionHash": "0x58649b8dec5a2411a940e0abc80447fe089bb060086d2794cd3d7bd32240b479",
      "transactionIndex": "0x0",
      "blockHash": "0x28711b12315e158cfee1b9bd0b208ab619001b8a3b9a2cdde2ede1a2b83a96b4",
      "blockNumber": "0x2b59e41",
      "gasUsed": "0x1c01c",
      "effectiveGasPrice": "0x174876e800",
      "from": "0xe62ab4d111f968660c6b2188046f9b9ba53c4bae",
      "to": "0xbce6b1ab3790bce90e2299cc9c46f6d2bcb56324",
      "contractAddress": null
    },
    {
      "status": "0x1",
      "cumulativeGasUsed": "0x16059",
      "logs": [],
      "logsBloom": "0x00000000000000000000000000000000000000000000000000000000000000000000000000000000000000000000000000000000000000000000000000000000000000000000000000000000000000000000000000000000000000000000000000000000000000000000000000000000000000000000000000000000000000000000000000000000000000000000000000000000000000000000000000000000000000000000000000000000000000000000000000000000000000000000000000000000000000000000000000000000000000000000000000000000000000000000000000000000000000000000000000000000000000000000000000000000",
      "type": "0x0",
      "transactionHash": "0xeefbc5b638dc4cb7c0d8947af847529b468fa5f8f70767a2fa09ae4e41efcde5",
      "transactionIndex": "0x2",
      "blockHash": "0x78619f78098165a5f8af04d1404881b7d8871af8990fdf5ff3161ca34b384a92",
      "blockNumber": "0x2b59e44",
      "gasUsed": "0xbbf9",
      "effectiveGasPrice": "0x174876e800",
      "from": "0xe62ab4d111f968660c6b2188046f9b9ba53c4bae",
      "to": "0xbce6b1ab3790bce90e2299cc9c46f6d2bcb56324",
      "contractAddress": null
    },
    {
      "status": "0x1",
      "cumulativeGasUsed": "0xbc22",
      "logs": [],
      "logsBloom": "0x00000000000000000000000000000000000000000000000000000000000000000000000000000000000000000000000000000000000000000000000000000000000000000000000000000000000000000000000000000000000000000000000000000000000000000000000000000000000000000000000000000000000000000000000000000000000000000000000000000000000000000000000000000000000000000000000000000000000000000000000000000000000000000000000000000000000000000000000000000000000000000000000000000000000000000000000000000000000000000000000000000000000000000000000000000000",
      "type": "0x0",
      "transactionHash": "0xb96fd52e222f1c48356b8f6a7ea14d3b9fe1aa28b0fcaef0a563e28619f39907",
      "transactionIndex": "0x0",
      "blockHash": "0xb2bb1d7132adbefb8523ddbd5a24bcdc4d17d274cba093ee908f9914bb9b958f",
      "blockNumber": "0x2b59e46",
      "gasUsed": "0xbc22",
      "effectiveGasPrice": "0x174876e800",
      "from": "0xe62ab4d111f968660c6b2188046f9b9ba53c4bae",
      "to": "0xbce6b1ab3790bce90e2299cc9c46f6d2bcb56324",
      "contractAddress": null
    },
    {
      "status": "0x1",
      "cumulativeGasUsed": "0xbc39",
      "logs": [],
      "logsBloom": "0x00000000000000000000000000000000000000000000000000000000000000000000000000000000000000000000000000000000000000000000000000000000000000000000000000000000000000000000000000000000000000000000000000000000000000000000000000000000000000000000000000000000000000000000000000000000000000000000000000000000000000000000000000000000000000000000000000000000000000000000000000000000000000000000000000000000000000000000000000000000000000000000000000000000000000000000000000000000000000000000000000000000000000000000000000000000",
      "type": "0x0",
      "transactionHash": "0x63df666b350cb5e04b78941eb503334f29c8532073cf064a69679896fccab159",
      "transactionIndex": "0x0",
      "blockHash": "0x10f18e522ee85baf7b725fe4d1a10e117f6e8be23408410d6a8b7c9eec36e3c0",
      "blockNumber": "0x2b59e48",
      "gasUsed": "0xbc39",
      "effectiveGasPrice": "0x174876e800",
      "from": "0xe62ab4d111f968660c6b2188046f9b9ba53c4bae",
      "to": "0xbce6b1ab3790bce90e2299cc9c46f6d2bcb56324",
      "contractAddress": null
    },
    {
      "status": "0x1",
      "cumulativeGasUsed": "0xbc50",
      "logs": [],
      "logsBloom": "0x00000000000000000000000000000000000000000000000000000000000000000000000000000000000000000000000000000000000000000000000000000000000000000000000000000000000000000000000000000000000000000000000000000000000000000000000000000000000000000000000000000000000000000000000000000000000000000000000000000000000000000000000000000000000000000000000000000000000000000000000000000000000000000000000000000000000000000000000000000000000000000000000000000000000000000000000000000000000000000000000000000000000000000000000000000000",
      "type": "0x0",
      "transactionHash": "0x3f9d3d047230ac50f651eae7269f944ab8b5e912907b9804ed090b555a5f6133",
      "transactionIndex": "0x0",
      "blockHash": "0xb2df1bd341b20332c5dfdd8c7f3cde5f9064a533384dcfa9e4f84b8797f4ba8f",
      "blockNumber": "0x2b59e4b",
      "gasUsed": "0xbc50",
      "effectiveGasPrice": "0x174876e800",
      "from": "0xe62ab4d111f968660c6b2188046f9b9ba53c4bae",
      "to": "0xbce6b1ab3790bce90e2299cc9c46f6d2bcb56324",
      "contractAddress": null
    },
    {
      "status": "0x1",
      "cumulativeGasUsed": "0x1ea74",
      "logs": [],
      "logsBloom": "0x00000000000000000000000000000000000000000000000000000000000000000000000000000000000000000000000000000000000000000000000000000000000000000000000000000000000000000000000000000000000000000000000000000000000000000000000000000000000000000000000000000000000000000000000000000000000000000000000000000000000000000000000000000000000000000000000000000000000000000000000000000000000000000000000000000000000000000000000000000000000000000000000000000000000000000000000000000000000000000000000000000000000000000000000000000000",
      "type": "0x0",
      "transactionHash": "0xdbfad388ba4fbfdb896f6c7aeddcba095ee993f66cff7018f7b450b6e6139a55",
      "transactionIndex": "0x1",
      "blockHash": "0xf0bbae5ec58ca2a308f55050f4cf1eef8716fba380a56d0e709a38c251f82822",
      "blockNumber": "0x2b59e4d",
      "gasUsed": "0xbc67",
      "effectiveGasPrice": "0x174876e800",
      "from": "0xe62ab4d111f968660c6b2188046f9b9ba53c4bae",
      "to": "0xbce6b1ab3790bce90e2299cc9c46f6d2bcb56324",
      "contractAddress": null
    },
    {
      "status": "0x1",
      "cumulativeGasUsed": "0x1194e",
      "logs": [],
      "logsBloom": "0x00000000000000000000000000000000000000000000000000000000000000000000000000000000000000000000000000000000000000000000000000000000000000000000000000000000000000000000000000000000000000000000000000000000000000000000000000000000000000000000000000000000000000000000000000000000000000000000000000000000000000000000000000000000000000000000000000000000000000000000000000000000000000000000000000000000000000000000000000000000000000000000000000000000000000000000000000000000000000000000000000000000000000000000000000000000",
      "type": "0x0",
      "transactionHash": "0x34de59e62630f8ce13d737e9df916b0267c0f2f7d38c0e08927060cce1747299",
      "transactionIndex": "0x1",
      "blockHash": "0x0ee5b5b9a53ad060c5a68ac54cfdbd87b77341899216e0d9aa8adb15c53c3874",
      "blockNumber": "0x2b59e50",
      "gasUsed": "0xbc7e",
      "effectiveGasPrice": "0x174876e800",
      "from": "0xe62ab4d111f968660c6b2188046f9b9ba53c4bae",
      "to": "0xbce6b1ab3790bce90e2299cc9c46f6d2bcb56324",
      "contractAddress": null
    },
    {
      "status": "0x1",
      "cumulativeGasUsed": "0x3bafd",
      "logs": [],
      "logsBloom": "0x00000000000000000000000000000000000000000000000000000000000000000000000000000000000000000000000000000000000000000000000000000000000000000000000000000000000000000000000000000000000000000000000000000000000000000000000000000000000000000000000000000000000000000000000000000000000000000000000000000000000000000000000000000000000000000000000000000000000000000000000000000000000000000000000000000000000000000000000000000000000000000000000000000000000000000000000000000000000000000000000000000000000000000000000000000000",
      "type": "0x0",
      "transactionHash": "0xf19d5cfc280fd531a6df025d5d47428a84dc9d4c6dac66b2803036219bad5c37",
      "transactionIndex": "0x2",
      "blockHash": "0x63696209af0270eb08fd8cf680457214faf1046cf07edb2d3cd8a0f47f60f88e",
      "blockNumber": "0x2b59e52",
      "gasUsed": "0xbc90",
      "effectiveGasPrice": "0x174876e800",
      "from": "0xe62ab4d111f968660c6b2188046f9b9ba53c4bae",
      "to": "0xbce6b1ab3790bce90e2299cc9c46f6d2bcb56324",
      "contractAddress": null
    },
    {
      "status": "0x1",
      "cumulativeGasUsed": "0x226e6",
      "logs": [],
      "logsBloom": "0x00000000000000000000000000000000000000000000000000000000000000000000000000000000000000000000000000000000000000000000000000000000000000000000000000000000000000000000000000000000000000000000000000000000000000000000000000000000000000000000000000000000000000000000000000000000000000000000000000000000000000000000000000000000000000000000000000000000000000000000000000000000000000000000000000000000000000000000000000000000000000000000000000000000000000000000000000000000000000000000000000000000000000000000000000000000",
      "type": "0x0",
      "transactionHash": "0x100a1e3a5c90fc4ad2dfd82455630f5a20ee0535cfacca3b1eda55a00b82fdaa",
      "transactionIndex": "0x0",
      "blockHash": "0x78a2087baf0f61ae5ca65471ad21963a23aeed935c30e88e7f5977d5a1c2d730",
      "blockNumber": "0x2b59e55",
      "gasUsed": "0x226e6",
      "effectiveGasPrice": "0x174876e800",
      "from": "0xe62ab4d111f968660c6b2188046f9b9ba53c4bae",
      "to": "0xbce6b1ab3790bce90e2299cc9c46f6d2bcb56324",
      "contractAddress": null
    },
    {
      "status": "0x1",
      "cumulativeGasUsed": "0x23c6e",
      "logs": [],
      "logsBloom": "0x00000000000000000000000000000000000000000000000000000000000000000000000000000000000000000000000000000000000000000000000000000000000000000000000000000000000000000000000000000000000000000000000000000000000000000000000000000000000000000000000000000000000000000000000000000000000000000000000000000000000000000000000000000000000000000000000000000000000000000000000000000000000000000000000000000000000000000000000000000000000000000000000000000000000000000000000000000000000000000000000000000000000000000000000000000000",
      "type": "0x0",
      "transactionHash": "0x5be3b71e664449667912d6080464bdadb5a7179ea0c6169255f67b0732f20c91",
      "transactionIndex": "0x1",
      "blockHash": "0xaa37b960a49c9a7a329d1417748963eb10d8ed729fc7a61cbd119e73f6a41726",
      "blockNumber": "0x2b59e57",
      "gasUsed": "0x1ea66",
      "effectiveGasPrice": "0x174876e800",
      "from": "0xe62ab4d111f968660c6b2188046f9b9ba53c4bae",
      "to": "0xbce6b1ab3790bce90e2299cc9c46f6d2bcb56324",
      "contractAddress": null
    },
    {
      "status": "0x1",
      "cumulativeGasUsed": "0x4d0cb",
      "logs": [],
      "logsBloom": "0x00000000000000000000000000000000000000000000000000000000000000000000000000000000000000000000000000000000000000000000000000000000000000000000000000000000000000000000000000000000000000000000000000000000000000000000000000000000000000000000000000000000000000000000000000000000000000000000000000000000000000000000000000000000000000000000000000000000000000000000000000000000000000000000000000000000000000000000000000000000000000000000000000000000000000000000000000000000000000000000000000000000000000000000000000000000",
      "type": "0x0",
      "transactionHash": "0xca5647ab545570dbb757b384c5d07a1d072eda367b3d7340977f6229d1975916",
      "transactionIndex": "0x5",
      "blockHash": "0xc850361130d781c70e22da00c3c61ea7d67ac09bd6461a203e83d5755cf8e812",
      "blockNumber": "0x2b59e5a",
      "gasUsed": "0x1ea66",
      "effectiveGasPrice": "0x174876e800",
      "from": "0xe62ab4d111f968660c6b2188046f9b9ba53c4bae",
      "to": "0xbce6b1ab3790bce90e2299cc9c46f6d2bcb56324",
      "contractAddress": null
    },
    {
      "status": "0x1",
      "cumulativeGasUsed": "0x1e5da",
      "logs": [],
      "logsBloom": "0x00000000000000000000000000000000000000000000000000000000000000000000000000000000000000000000000000000000000000000000000000000000000000000000000000000000000000000000000000000000000000000000000000000000000000000000000000000000000000000000000000000000000000000000000000000000000000000000000000000000000000000000000000000000000000000000000000000000000000000000000000000000000000000000000000000000000000000000000000000000000000000000000000000000000000000000000000000000000000000000000000000000000000000000000000000000",
      "type": "0x0",
      "transactionHash": "0xaafd74c233f85de7f0b5005df3ce1b8b40ef4ae9e8b2701cee5b1e60b44708af",
      "transactionIndex": "0x0",
      "blockHash": "0xfa0e1c9b03b59f88365f659027983b511851ed689a5b1f1bfc84204db6a7790c",
      "blockNumber": "0x2b59e5c",
      "gasUsed": "0x1e5da",
      "effectiveGasPrice": "0x174876e800",
      "from": "0xe62ab4d111f968660c6b2188046f9b9ba53c4bae",
      "to": "0xbce6b1ab3790bce90e2299cc9c46f6d2bcb56324",
      "contractAddress": null
    },
    {
      "status": "0x1",
      "cumulativeGasUsed": "0x1eef2",
      "logs": [],
      "logsBloom": "0x00000000000000000000000000000000000000000000000000000000000000000000000000000000000000000000000000000000000000000000000000000000000000000000000000000000000000000000000000000000000000000000000000000000000000000000000000000000000000000000000000000000000000000000000000000000000000000000000000000000000000000000000000000000000000000000000000000000000000000000000000000000000000000000000000000000000000000000000000000000000000000000000000000000000000000000000000000000000000000000000000000000000000000000000000000000",
      "type": "0x0",
      "transactionHash": "0x8955405fe22ac83b5f0f8f5f609c3685c7d1b78c6d8e8fdac1dcb6bc20e4b821",
      "transactionIndex": "0x0",
      "blockHash": "0x7b9934260c83e35507485a3ea92364122f1bdcdf39df0252153dc9158424385d",
      "blockNumber": "0x2b59e5f",
      "gasUsed": "0x1eef2",
      "effectiveGasPrice": "0x174876e800",
      "from": "0xe62ab4d111f968660c6b2188046f9b9ba53c4bae",
      "to": "0xbce6b1ab3790bce90e2299cc9c46f6d2bcb56324",
      "contractAddress": null
    },
    {
      "status": "0x1",
      "cumulativeGasUsed": "0x7bce7",
      "logs": [],
      "logsBloom": "0x00000000000000000000000000000000000000000000000000000000000000000000000000000000000000000000000000000000000000000000000000000000000000000000000000000000000000000000000000000000000000000000000000000000000000000000000000000000000000000000000000000000000000000000000000000000000000000000000000000000000000000000000000000000000000000000000000000000000000000000000000000000000000000000000000000000000000000000000000000000000000000000000000000000000000000000000000000000000000000000000000000000000000000000000000000000",
      "type": "0x0",
      "transactionHash": "0x8fd467404b1d91e1ea5e2cdc5f095b52229ea5023033faf6f3f09cab05a3afb4",
      "transactionIndex": "0x0",
      "blockHash": "0xe66c1c7acf7bc5bf254858332ebc2bb7fc32b9bcfe9cda84b6a6960c54241b3d",
      "blockNumber": "0x2b59e61",
      "gasUsed": "0x7bce7",
      "effectiveGasPrice": "0x174876e800",
      "from": "0xe62ab4d111f968660c6b2188046f9b9ba53c4bae",
      "to": "0x291e038ef58dcfdf020e0bbea0c9a36713db7966",
      "contractAddress": null
    },
    {
      "status": "0x1",
      "cumulativeGasUsed": "0x9bd08",
      "logs": [],
      "logsBloom": "0x00000000000000000000000000000000000000000000000000000000000000000000000000000000000000000000000000000000000000000000000000000000000000000000000000000000000000000000000000000000000000000000000000000000000000000000000000000000000000000000000000000000000000000000000000000000000000000000000000000000000000000000000000000000000000000000000000000000000000000000000000000000000000000000000000000000000000000000000000000000000000000000000000000000000000000000000000000000000000000000000000000000000000000000000000000000",
      "type": "0x0",
      "transactionHash": "0xf92c766b1b9ecb952afefaf64643bf56c888888d875121806a88410599e712f4",
      "transactionIndex": "0x0",
      "blockHash": "0x74841c1fd5262cdf833eb4cc6e62d7fe03b1b8a35d5380dca4f62e771ca5aea4",
      "blockNumber": "0x2b59e63",
      "gasUsed": "0x9bd08",
      "effectiveGasPrice": "0x174876e800",
      "from": "0xe62ab4d111f968660c6b2188046f9b9ba53c4bae",
      "to": "0x291e038ef58dcfdf020e0bbea0c9a36713db7966",
      "contractAddress": null
    },
    {
      "status": "0x1",
      "cumulativeGasUsed": "0xa868a",
      "logs": [],
      "logsBloom": "0x00000000000000000000000000000000000000000000000000000000000000000000000000000000000000000000000000000000000000000000000000000000000000000000000000000000000000000000000000000000000000000000000000000000000000000000000000000000000000000000000000000000000000000000000000000000000000000000000000000000000000000000000000000000000000000000000000000000000000000000000000000000000000000000000000000000000000000000000000000000000000000000000000000000000000000000000000000000000000000000000000000000000000000000000000000000",
      "type": "0x0",
      "transactionHash": "0x15a806b567a065bebf199e97bd4be12b4eec4b783dea128c77b2d9060e1edfbc",
      "transactionIndex": "0x1",
      "blockHash": "0xd945f1b123b1a69e7842c8f2a4674faa84a938a9f6b2a30185e27c7ac8bdcea2",
      "blockNumber": "0x2b59e66",
      "gasUsed": "0x9bc20",
      "effectiveGasPrice": "0x174876e800",
      "from": "0xe62ab4d111f968660c6b2188046f9b9ba53c4bae",
      "to": "0x291e038ef58dcfdf020e0bbea0c9a36713db7966",
      "contractAddress": null
    }
  ],
  "libraries": [],
  "pending": [],
  "returns": {},
  "timestamp": 1731091942,
  "chain": 97,
  "commit": "ac6d4a5e"
}