{
  "transactions": [
    {
      "hash": "0x664c5fc57062830dbcc00aa49bdc92827c5f1877906cc0a7a527368c0ce0828b",
      "transactionType": "CALL",
      "contractName": null,
      "contractAddress": "0xd362afb113d7a2226aff228f4fb161befd3b6bd4",
      "function": "addChainContract(string[],string[])",
      "arguments": [
        "[59141, 78600, 2484]",
        "[0x41543a4c6423e2546fc58ac63117b5692d68c323, 0x06edc167555ceb6038e2c6b3bed7a47c628f2eed, 0x16b049e17b49c5dc1d8598b53593d4497c858c9a]"
      ],
      "transaction": {
        "from": "0xe62ab4d111f968660c6b2188046f9b9ba53c4bae",
        "to": "0xd362afb113d7a2226aff228f4fb161befd3b6bd4",
        "gas": "0xaf40f",
        "value": "0x0",
        "input": "0x013fd3bd000000000000000000000000000000000000000000000000000000000000004000000000000000000000000000000000000000000000000000000000000001800000000000000000000000000000000000000000000000000000000000000003000000000000000000000000000000000000000000000000000000000000006000000000000000000000000000000000000000000000000000000000000000a000000000000000000000000000000000000000000000000000000000000000e00000000000000000000000000000000000000000000000000000000000000005353931343100000000000000000000000000000000000000000000000000000000000000000000000000000000000000000000000000000000000000000000053738363030000000000000000000000000000000000000000000000000000000000000000000000000000000000000000000000000000000000000000000000432343834000000000000000000000000000000000000000000000000000000000000000000000000000000000000000000000000000000000000000000000003000000000000000000000000000000000000000000000000000000000000006000000000000000000000000000000000000000000000000000000000000000c00000000000000000000000000000000000000000000000000000000000000120000000000000000000000000000000000000000000000000000000000000002a30783431353433613463363432336532353436666335386163363331313762353639326436386333323300000000000000000000000000000000000000000000000000000000000000000000000000000000000000000000000000000000002a30783036656463313637353535636562363033386532633662336265643761343763363238663265656400000000000000000000000000000000000000000000000000000000000000000000000000000000000000000000000000000000002a30783136623034396531376234396335646331643835393862353335393364343439376338353863396100000000000000000000000000000000000000000000",
        "nonce": "0x383",
        "chainId": "0x61"
      },
      "additionalContracts": [],
      "isFixedGasLimit": false
    },
    {
      "hash": "0x0064c8a2538f772118d5d40a6b3f25727eaf68dc38dc73041d46161aaadd8473",
      "transactionType": "CALL",
      "contractName": null,
      "contractAddress": "0xd362afb113d7a2226aff228f4fb161befd3b6bd4",
      "function": "attachRWAX(uint256,uint256,string[],string[])",
      "arguments": [
        "1",
        "1",
        "[59141, 78600, 2484]",
        "[0x969035b34b913c507b87fd805fff608fb1fe13f0, 0x282eccb80074e9ab23ea5d28bd795c0bba3726a6, 0xfc63dc90296800c67cbb96330238fc17fbd674a2]"
      ],
      "transaction": {
        "from": "0xe62ab4d111f968660c6b2188046f9b9ba53c4bae",
        "to": "0xd362afb113d7a2226aff228f4fb161befd3b6bd4",
        "gas": "0xce2f1",
        "value": "0x0",
        "input": "0x33a5f5b400000000000000000000000000000000000000000000000000000000000000010000000000000000000000000000000000000000000000000000000000000001000000000000000000000000000000000000000000000000000000000000008000000000000000000000000000000000000000000000000000000000000001c00000000000000000000000000000000000000000000000000000000000000003000000000000000000000000000000000000000000000000000000000000006000000000000000000000000000000000000000000000000000000000000000a000000000000000000000000000000000000000000000000000000000000000e00000000000000000000000000000000000000000000000000000000000000005353931343100000000000000000000000000000000000000000000000000000000000000000000000000000000000000000000000000000000000000000000053738363030000000000000000000000000000000000000000000000000000000000000000000000000000000000000000000000000000000000000000000000432343834000000000000000000000000000000000000000000000000000000000000000000000000000000000000000000000000000000000000000000000003000000000000000000000000000000000000000000000000000000000000006000000000000000000000000000000000000000000000000000000000000000c00000000000000000000000000000000000000000000000000000000000000120000000000000000000000000000000000000000000000000000000000000002a30783936393033356233346239313363353037623837666438303566666636303866623166653133663000000000000000000000000000000000000000000000000000000000000000000000000000000000000000000000000000000000002a30783238326563636238303037346539616232336561356432386264373935633062626133373236613600000000000000000000000000000000000000000000000000000000000000000000000000000000000000000000000000000000002a30786663363364633930323936383030633637636262393633333032333866633137666264363734613200000000000000000000000000000000000000000000",
        "nonce": "0x384",
        "chainId": "0x61"
      },
      "additionalContracts": [],
      "isFixedGasLimit": false
    },
    {
      "hash": "0xe877c7d3b653c4ea6002dcc0c52759a414d7b6078ca4973ef36258625d0e0f0d",
      "transactionType": "CALL",
      "contractName": null,
      "contractAddress": "0xd362afb113d7a2226aff228f4fb161befd3b6bd4",
      "function": "attachStorageManager(uint256,uint256,string[],string[])",
      "arguments": [
        "1",
        "1",
        "[59141, 78600, 2484]",
        "[0x20b88eba092c4ceb11e88f92abe1c01bc7fe7234, 0x8393181277c8a85ec0468b3f1ee61bbfd78e62b4, 0xc74d2556d610f886b55653faffddf4bd0c1605b6]"
      ],
      "transaction": {
        "from": "0xe62ab4d111f968660c6b2188046f9b9ba53c4bae",
        "to": "0xd362afb113d7a2226aff228f4fb161befd3b6bd4",
        "gas": "0xb538b",
        "value": "0x0",
        "input": "0x2f68b48900000000000000000000000000000000000000000000000000000000000000010000000000000000000000000000000000000000000000000000000000000001000000000000000000000000000000000000000000000000000000000000008000000000000000000000000000000000000000000000000000000000000001c00000000000000000000000000000000000000000000000000000000000000003000000000000000000000000000000000000000000000000000000000000006000000000000000000000000000000000000000000000000000000000000000a000000000000000000000000000000000000000000000000000000000000000e00000000000000000000000000000000000000000000000000000000000000005353931343100000000000000000000000000000000000000000000000000000000000000000000000000000000000000000000000000000000000000000000053738363030000000000000000000000000000000000000000000000000000000000000000000000000000000000000000000000000000000000000000000000432343834000000000000000000000000000000000000000000000000000000000000000000000000000000000000000000000000000000000000000000000003000000000000000000000000000000000000000000000000000000000000006000000000000000000000000000000000000000000000000000000000000000c00000000000000000000000000000000000000000000000000000000000000120000000000000000000000000000000000000000000000000000000000000002a30783230623838656261303932633463656231316538386639326162653163303162633766653732333400000000000000000000000000000000000000000000000000000000000000000000000000000000000000000000000000000000002a30783833393331383132373763386138356563303436386233663165653631626266643738653632623400000000000000000000000000000000000000000000000000000000000000000000000000000000000000000000000000000000002a30786337346432353536643631306638383662353536353366616666646466346264306331363035623600000000000000000000000000000000000000000000",
        "nonce": "0x385",
        "chainId": "0x61"
      },
      "additionalContracts": [],
      "isFixedGasLimit": false
    },
    {
      "hash": "0xaed126ef205a3e3a3438052cc1ea5ff0502abe4a3661d6234b844353b084983e",
      "transactionType": "CALL",
      "contractName": null,
      "contractAddress": "0xd362afb113d7a2226aff228f4fb161befd3b6bd4",
      "function": "attachSentryManager(uint256,uint256,string[],string[])",
      "arguments": [
        "1",
        "1",
        "[59141, 78600, 2484]",
        "[0xe569c146b0d4c1c941607b5c6a648b5877ae29ef, 0xac71dcf325724594525cc05552bee7d6550a80fd, 0xdbd55d95d447e363251592a8ff573bbf16c2cb68]"
      ],
      "transaction": {
        "from": "0xe62ab4d111f968660c6b2188046f9b9ba53c4bae",
        "to": "0xd362afb113d7a2226aff228f4fb161befd3b6bd4",
        "gas": "0xb50f2",
        "value": "0x0",
        "input": "0x349de79700000000000000000000000000000000000000000000000000000000000000010000000000000000000000000000000000000000000000000000000000000001000000000000000000000000000000000000000000000000000000000000008000000000000000000000000000000000000000000000000000000000000001c00000000000000000000000000000000000000000000000000000000000000003000000000000000000000000000000000000000000000000000000000000006000000000000000000000000000000000000000000000000000000000000000a000000000000000000000000000000000000000000000000000000000000000e00000000000000000000000000000000000000000000000000000000000000005353931343100000000000000000000000000000000000000000000000000000000000000000000000000000000000000000000000000000000000000000000053738363030000000000000000000000000000000000000000000000000000000000000000000000000000000000000000000000000000000000000000000000432343834000000000000000000000000000000000000000000000000000000000000000000000000000000000000000000000000000000000000000000000003000000000000000000000000000000000000000000000000000000000000006000000000000000000000000000000000000000000000000000000000000000c00000000000000000000000000000000000000000000000000000000000000120000000000000000000000000000000000000000000000000000000000000002a30786535363963313436623064346331633934313630376235633661363438623538373761653239656600000000000000000000000000000000000000000000000000000000000000000000000000000000000000000000000000000000002a30786163373164636633323537323435393435323563633035353532626565376436353530613830666400000000000000000000000000000000000000000000000000000000000000000000000000000000000000000000000000000000002a30786462643535643935643434376533363332353135393261386666353733626266313663326362363800000000000000000000000000000000000000000000",
        "nonce": "0x386",
        "chainId": "0x61"
      },
      "additionalContracts": [],
      "isFixedGasLimit": false
    }
  ],
  "receipts": [
    {
      "status": "0x1",
      "cumulativeGasUsed": "0x91330",
      "logs": [],
      "logsBloom": "0x00000000000000000000000000000000000000000000000000000000000000000000000000000000000000000000000000000000000000000000000000000000000000000000000000000000000000000000000000000000000000000000000000000000000000000000000000000000000000000000000000000000000000000000000000000000000000000000000000000000000000000000000000000000000000000000000000000000000000000000000000000000000000000000000000000000000000000000000000000000000000000000000000000000000000000000000000000000000000000000000000000000000000000000000000000000",
      "type": "0x0",
      "transactionHash": "0x664c5fc57062830dbcc00aa49bdc92827c5f1877906cc0a7a527368c0ce0828b",
      "transactionIndex": "0x1",
      "blockHash": "0xaa38025461bcdd427ce1acd9294196ee03616f7ee910cd427e9653ff6eabf0cc",
      "blockNumber": "0x2e5178c",
      "gasUsed": "0x7ee17",
      "effectiveGasPrice": "0x174876e800",
      "from": "0xe62ab4d111f968660c6b2188046f9b9ba53c4bae",
      "to": "0xd362afb113d7a2226aff228f4fb161befd3b6bd4",
      "contractAddress": null
    },
    {
      "status": "0x1",
      "cumulativeGasUsed": "0xa7979",
      "logs": [],
      "logsBloom": "0x00000000000000000000000000000000000000000000000000000000000000000000000000000000000000000000000000000000000000000000000000000000000000000000000000000000000000000000000000000000000000000000000000000000000000000000000000000000000000000000000000000000000000000000000000000000000000000000000000000000000000000000000000000000000000000000000000000000000000000000000000000000000000000000000000000000000000000000000000000000000000000000000000000000000000000000000000000000000000000000000000000000000000000000000000000000",
      "type": "0x0",
      "transactionHash": "0x0064c8a2538f772118d5d40a6b3f25727eaf68dc38dc73041d46161aaadd8473",
      "transactionIndex": "0x1",
      "blockHash": "0xe90d293c33788208e9321828bbb48144efad4199a1df17b9b4f8d3638e308005",
      "blockNumber": "0x2e5178d",
      "gasUsed": "0x95460",
      "effectiveGasPrice": "0x174876e800",
      "from": "0xe62ab4d111f968660c6b2188046f9b9ba53c4bae",
      "to": "0xd362afb113d7a2226aff228f4fb161befd3b6bd4",
      "contractAddress": null
    },
    {
      "status": "0x1",
      "cumulativeGasUsed": "0x95851",
      "logs": [],
      "logsBloom": "0x00000000000000000000000000000000000000000000000000000000000000000000000000000000000000000000000000000000000000000000000000000000000000000000000000000000000000000000000000000000000000000000000000000000000000000000000000000000000000000000000000000000000000000000000000000000000000000000000000000000000000000000000000000000000000000000000000000000000000000000000000000000000000000000000000000000000000000000000000000000000000000000000000000000000000000000000000000000000000000000000000000000000000000000000000000000",
      "type": "0x0",
      "transactionHash": "0xe877c7d3b653c4ea6002dcc0c52759a414d7b6078ca4973ef36258625d0e0f0d",
      "transactionIndex": "0x1",
      "blockHash": "0x652a43af9f8f2db6c297dbb3b10cbd5b8511d7e1af00eba003d7dd88d0eb6e1e",
      "blockNumber": "0x2e5178f",
      "gasUsed": "0x83338",
      "effectiveGasPrice": "0x174876e800",
      "from": "0xe62ab4d111f968660c6b2188046f9b9ba53c4bae",
      "to": "0xd362afb113d7a2226aff228f4fb161befd3b6bd4",
      "contractAddress": null
    },
    {
      "status": "0x1",
      "cumulativeGasUsed": "0x95670",
      "logs": [],
      "logsBloom": "0x00000000000000000000000000000000000000000000000000000000000000000000000000000000000000000000000000000000000000000000000000000000000000000000000000000000000000000000000000000000000000000000000000000000000000000000000000000000000000000000000000000000000000000000000000000000000000000000000000000000000000000000000000000000000000000000000000000000000000000000000000000000000000000000000000000000000000000000000000000000000000000000000000000000000000000000000000000000000000000000000000000000000000000000000000000000",
      "type": "0x0",
      "transactionHash": "0xaed126ef205a3e3a3438052cc1ea5ff0502abe4a3661d6234b844353b084983e",
      "transactionIndex": "0x1",
      "blockHash": "0xff31bd29076a66cc61486dedb74c5542cbf75e05b03417d8ba0bcab095c73af1",
      "blockNumber": "0x2e51790",
      "gasUsed": "0x83157",
      "effectiveGasPrice": "0x174876e800",
      "from": "0xe62ab4d111f968660c6b2188046f9b9ba53c4bae",
      "to": "0xd362afb113d7a2226aff228f4fb161befd3b6bd4",
      "contractAddress": null
    }
  ],
  "libraries": [],
  "pending": [],
  "returns": {},
  "timestamp": 1740427147,
  "chain": 97,
  "commit": "82ab662e"
}