{
  "transactions": [
    {
      "hash": "0xba04bd5c0810b77d83982dc040e4d94526259b8a6dd4c67c9966eee3630247c2",
      "transactionType": "CALL",
      "contractName": null,
      "contractAddress": "0xf84a465ce158aad1848b737a6ecabe6d253d12c2",
      "function": "getFeeTokenList()",
      "arguments": [],
      "transaction": {
        "from": "0xe62ab4d111f968660c6b2188046f9b9ba53c4bae",
        "to": "0xf84a465ce158aad1848b737a6ecabe6d253d12c2",
        "gas": "0x8a7e",
        "value": "0x0",
        "input": "0xe28ab277",
        "nonce": "0x1cb",
        "chainId": "0x61"
      },
      "additionalContracts": [],
      "isFixedGasLimit": false
    },
    {
      "hash": "0xc0a8adae7badf5e428f95b68958a0531adc96956bdc03417b59ebc86fed51520",
      "transactionType": "CALL",
      "contractName": null,
      "contractAddress": "0xf84a465ce158aad1848b737a6ecabe6d253d12c2",
      "function": "addFeeToken(string)",
      "arguments": [
        "0xdd43fc986a13392ddbc7aea150b41efe27b2d0ed"
      ],
      "transaction": {
        "from": "0xe62ab4d111f968660c6b2188046f9b9ba53c4bae",
        "to": "0xf84a465ce158aad1848b737a6ecabe6d253d12c2",
        "gas": "0x26af2",
        "value": "0x0",
        "input": "0x12a6385f0000000000000000000000000000000000000000000000000000000000000020000000000000000000000000000000000000000000000000000000000000002a30786464343366633938366131333339326464626337616561313530623431656665323762326430656400000000000000000000000000000000000000000000",
        "nonce": "0x1cc",
        "chainId": "0x61"
      },
      "additionalContracts": [],
      "isFixedGasLimit": false
    },
    {
      "hash": "0x5c8c8a05355927dfd34402a8bc91b1faac99b46f144180a7ae03424d77b48446",
      "transactionType": "CALL",
      "contractName": null,
      "contractAddress": "0xf84a465ce158aad1848b737a6ecabe6d253d12c2",
      "function": "setFeeMultiplier(uint8,uint256)",
      "arguments": [
        "0",
        "2"
      ],
      "transaction": {
        "from": "0xe62ab4d111f968660c6b2188046f9b9ba53c4bae",
        "to": "0xf84a465ce158aad1848b737a6ecabe6d253d12c2",
        "gas": "0x112e8",
        "value": "0x0",
        "input": "0x0ee24eb500000000000000000000000000000000000000000000000000000000000000000000000000000000000000000000000000000000000000000000000000000002",
        "nonce": "0x1cd",
        "chainId": "0x61"
      },
      "additionalContracts": [],
      "isFixedGasLimit": false
    },
    {
      "hash": "0x981ce6cfc94ea1408183809eebfa29d893e70eeeabd6f941828fce66517343dc",
      "transactionType": "CALL",
      "contractName": null,
      "contractAddress": "0xf84a465ce158aad1848b737a6ecabe6d253d12c2",
      "function": "setFeeMultiplier(uint8,uint256)",
      "arguments": [
        "1",
        "10"
      ],
      "transaction": {
        "from": "0xe62ab4d111f968660c6b2188046f9b9ba53c4bae",
        "to": "0xf84a465ce158aad1848b737a6ecabe6d253d12c2",
        "gas": "0x11324",
        "value": "0x0",
        "input": "0x0ee24eb50000000000000000000000000000000000000000000000000000000000000001000000000000000000000000000000000000000000000000000000000000000a",
        "nonce": "0x1ce",
        "chainId": "0x61"
      },
      "additionalContracts": [],
      "isFixedGasLimit": false
    },
    {
      "hash": "0x16afc91b01f0fd3c8118c6155d15180c5b3853bc0d7cde85d17e029be50d30cd",
      "transactionType": "CALL",
      "contractName": null,
      "contractAddress": "0xf84a465ce158aad1848b737a6ecabe6d253d12c2",
      "function": "setFeeMultiplier(uint8,uint256)",
      "arguments": [
        "2",
        "1"
      ],
      "transaction": {
        "from": "0xe62ab4d111f968660c6b2188046f9b9ba53c4bae",
        "to": "0xf84a465ce158aad1848b737a6ecabe6d253d12c2",
        "gas": "0x11346",
        "value": "0x0",
        "input": "0x0ee24eb500000000000000000000000000000000000000000000000000000000000000020000000000000000000000000000000000000000000000000000000000000001",
        "nonce": "0x1cf",
        "chainId": "0x61"
      },
      "additionalContracts": [],
      "isFixedGasLimit": false
    },
    {
      "hash": "0xab7174ccb7b78ef4ad857138464da87a10d60f2b5df69b755ec1edd5dc05887e",
      "transactionType": "CALL",
      "contractName": null,
      "contractAddress": "0xf84a465ce158aad1848b737a6ecabe6d253d12c2",
      "function": "setFeeMultiplier(uint8,uint256)",
      "arguments": [
        "3",
        "4"
      ],
      "transaction": {
        "from": "0xe62ab4d111f968660c6b2188046f9b9ba53c4bae",
        "to": "0xf84a465ce158aad1848b737a6ecabe6d253d12c2",
        "gas": "0x1041b",
        "value": "0x0",
        "input": "0x0ee24eb500000000000000000000000000000000000000000000000000000000000000030000000000000000000000000000000000000000000000000000000000000004",
        "nonce": "0x1d0",
        "chainId": "0x61"
      },
      "additionalContracts": [],
      "isFixedGasLimit": false
    },
    {
      "hash": "0xda985a7e9724cd50043116efdc0a9a7735e5f35ab64ff36bc6bf27fc05de9a32",
      "transactionType": "CALL",
      "contractName": null,
      "contractAddress": "0xf84a465ce158aad1848b737a6ecabe6d253d12c2",
      "function": "setFeeMultiplier(uint8,uint256)",
      "arguments": [
        "4",
        "4"
      ],
      "transaction": {
        "from": "0xe62ab4d111f968660c6b2188046f9b9ba53c4bae",
        "to": "0xf84a465ce158aad1848b737a6ecabe6d253d12c2",
        "gas": "0x1043a",
        "value": "0x0",
        "input": "0x0ee24eb500000000000000000000000000000000000000000000000000000000000000040000000000000000000000000000000000000000000000000000000000000004",
        "nonce": "0x1d1",
        "chainId": "0x61"
      },
      "additionalContracts": [],
      "isFixedGasLimit": false
    },
    {
      "hash": "0x612286e585402f5411540b835e5a3411e5ddfebe76179ac424144327aa2892c4",
      "transactionType": "CALL",
      "contractName": null,
      "contractAddress": "0xf84a465ce158aad1848b737a6ecabe6d253d12c2",
      "function": "setFeeMultiplier(uint8,uint256)",
      "arguments": [
        "5",
        "8"
      ],
      "transaction": {
        "from": "0xe62ab4d111f968660c6b2188046f9b9ba53c4bae",
        "to": "0xf84a465ce158aad1848b737a6ecabe6d253d12c2",
        "gas": "0x10459",
        "value": "0x0",
        "input": "0x0ee24eb500000000000000000000000000000000000000000000000000000000000000050000000000000000000000000000000000000000000000000000000000000008",
        "nonce": "0x1d2",
        "chainId": "0x61"
      },
      "additionalContracts": [],
      "isFixedGasLimit": false
    },
    {
      "hash": "0x370af7a1a6be1d4352b3bd7aa5de710946249b626bcb315ceba50aa2fd2c0ff6",
      "transactionType": "CALL",
      "contractName": null,
      "contractAddress": "0xf84a465ce158aad1848b737a6ecabe6d253d12c2",
      "function": "setFeeMultiplier(uint8,uint256)",
      "arguments": [
        "6",
        "4"
      ],
      "transaction": {
        "from": "0xe62ab4d111f968660c6b2188046f9b9ba53c4bae",
        "to": "0xf84a465ce158aad1848b737a6ecabe6d253d12c2",
        "gas": "0x1047a",
        "value": "0x0",
        "input": "0x0ee24eb500000000000000000000000000000000000000000000000000000000000000060000000000000000000000000000000000000000000000000000000000000004",
        "nonce": "0x1d3",
        "chainId": "0x61"
      },
      "additionalContracts": [],
      "isFixedGasLimit": false
    },
    {
      "hash": "0x9788d8542a0e3fb754a5da065884578b583d3eeef0e43e4f2dad6bb8b3690eff",
      "transactionType": "CALL",
      "contractName": null,
      "contractAddress": "0xf84a465ce158aad1848b737a6ecabe6d253d12c2",
      "function": "setFeeMultiplier(uint8,uint256)",
      "arguments": [
        "7",
        "10"
      ],
      "transaction": {
        "from": "0xe62ab4d111f968660c6b2188046f9b9ba53c4bae",
        "to": "0xf84a465ce158aad1848b737a6ecabe6d253d12c2",
        "gas": "0x10499",
        "value": "0x0",
        "input": "0x0ee24eb50000000000000000000000000000000000000000000000000000000000000007000000000000000000000000000000000000000000000000000000000000000a",
        "nonce": "0x1d4",
        "chainId": "0x61"
      },
      "additionalContracts": [],
      "isFixedGasLimit": false
    },
    {
      "hash": "0x7f0af60cb95212c36a0145c122bb509b63070298f97304415d8693aedce22454",
      "transactionType": "CALL",
      "contractName": null,
      "contractAddress": "0xf84a465ce158aad1848b737a6ecabe6d253d12c2",
      "function": "setFeeMultiplier(uint8,uint256)",
      "arguments": [
        "8",
        "8"
      ],
      "transaction": {
        "from": "0xe62ab4d111f968660c6b2188046f9b9ba53c4bae",
        "to": "0xf84a465ce158aad1848b737a6ecabe6d253d12c2",
        "gas": "0x1140f",
        "value": "0x0",
        "input": "0x0ee24eb500000000000000000000000000000000000000000000000000000000000000080000000000000000000000000000000000000000000000000000000000000008",
        "nonce": "0x1d5",
        "chainId": "0x61"
      },
      "additionalContracts": [],
      "isFixedGasLimit": false
    },
    {
      "hash": "0x92f765170bc463afdddee40d191e6fbb44e36062e8b84a163d4f18e9927422bf",
      "transactionType": "CALL",
      "contractName": null,
      "contractAddress": "0xf84a465ce158aad1848b737a6ecabe6d253d12c2",
      "function": "setFeeMultiplier(uint8,uint256)",
      "arguments": [
        "9",
        "8"
      ],
      "transaction": {
        "from": "0xe62ab4d111f968660c6b2188046f9b9ba53c4bae",
        "to": "0xf84a465ce158aad1848b737a6ecabe6d253d12c2",
        "gas": "0x11431",
        "value": "0x0",
        "input": "0x0ee24eb500000000000000000000000000000000000000000000000000000000000000090000000000000000000000000000000000000000000000000000000000000008",
        "nonce": "0x1d6",
        "chainId": "0x61"
      },
      "additionalContracts": [],
      "isFixedGasLimit": false
    },
    {
      "hash": "0x37829f619b71b3cba7e86d9ea757f7763cba2cd976ad112dd2c386cbf5502729",
      "transactionType": "CALL",
      "contractName": null,
      "contractAddress": "0xf84a465ce158aad1848b737a6ecabe6d253d12c2",
      "function": "setFeeMultiplier(uint8,uint256)",
      "arguments": [
        "10",
        "8"
      ],
      "transaction": {
        "from": "0xe62ab4d111f968660c6b2188046f9b9ba53c4bae",
        "to": "0xf84a465ce158aad1848b737a6ecabe6d253d12c2",
        "gas": "0x11453",
        "value": "0x0",
        "input": "0x0ee24eb5000000000000000000000000000000000000000000000000000000000000000a0000000000000000000000000000000000000000000000000000000000000008",
        "nonce": "0x1d7",
        "chainId": "0x61"
      },
      "additionalContracts": [],
      "isFixedGasLimit": false
    },
    {
      "hash": "0x2c9cf32c0366cbbd944b22194525ab41b1071c79b145955430cd1314a40e034d",
      "transactionType": "CALL",
      "contractName": null,
      "contractAddress": "0xf84a465ce158aad1848b737a6ecabe6d253d12c2",
      "function": "setFeeMultiplier(uint8,uint256)",
      "arguments": [
        "11",
        "20"
      ],
      "transaction": {
        "from": "0xe62ab4d111f968660c6b2188046f9b9ba53c4bae",
        "to": "0xf84a465ce158aad1848b737a6ecabe6d253d12c2",
        "gas": "0x10518",
        "value": "0x0",
        "input": "0x0ee24eb5000000000000000000000000000000000000000000000000000000000000000b0000000000000000000000000000000000000000000000000000000000000014",
        "nonce": "0x1d8",
        "chainId": "0x61"
      },
      "additionalContracts": [],
      "isFixedGasLimit": false
    },
    {
      "hash": "0x1a2f450221dd6ddd14a0d11a4085a71f9c29fe242c15890cf88bf7167828c257",
      "transactionType": "CALL",
      "contractName": null,
      "contractAddress": "0xf84a465ce158aad1848b737a6ecabe6d253d12c2",
      "function": "setFeeMultiplier(uint8,uint256)",
      "arguments": [
        "12",
        "8"
      ],
      "transaction": {
        "from": "0xe62ab4d111f968660c6b2188046f9b9ba53c4bae",
        "to": "0xf84a465ce158aad1848b737a6ecabe6d253d12c2",
        "gas": "0x10538",
        "value": "0x0",
        "input": "0x0ee24eb5000000000000000000000000000000000000000000000000000000000000000c0000000000000000000000000000000000000000000000000000000000000008",
        "nonce": "0x1d9",
        "chainId": "0x61"
      },
      "additionalContracts": [],
      "isFixedGasLimit": false
    },
    {
      "hash": "0x44914582454969af867dbef48b9e0c22565209a84e659572a24c16e50e70ae4d",
      "transactionType": "CALL",
      "contractName": null,
      "contractAddress": "0xf84a465ce158aad1848b737a6ecabe6d253d12c2",
      "function": "setFeeMultiplier(uint8,uint256)",
      "arguments": [
        "13",
        "4"
      ],
      "transaction": {
        "from": "0xe62ab4d111f968660c6b2188046f9b9ba53c4bae",
        "to": "0xf84a465ce158aad1848b737a6ecabe6d253d12c2",
        "gas": "0x10558",
        "value": "0x0",
        "input": "0x0ee24eb5000000000000000000000000000000000000000000000000000000000000000d0000000000000000000000000000000000000000000000000000000000000004",
        "nonce": "0x1da",
        "chainId": "0x61"
      },
      "additionalContracts": [],
      "isFixedGasLimit": false
    },
    {
      "hash": "0xdf06966449a5e49c36cb2b56d6fe71bcb9b199c71285d582f818db57b9c6e64f",
      "transactionType": "CALL",
      "contractName": null,
      "contractAddress": "0xf84a465ce158aad1848b737a6ecabe6d253d12c2",
      "function": "setFeeMultiplier(uint8,uint256)",
      "arguments": [
        "14",
        "4"
      ],
      "transaction": {
        "from": "0xe62ab4d111f968660c6b2188046f9b9ba53c4bae",
        "to": "0xf84a465ce158aad1848b737a6ecabe6d253d12c2",
        "gas": "0x10577",
        "value": "0x0",
        "input": "0x0ee24eb5000000000000000000000000000000000000000000000000000000000000000e0000000000000000000000000000000000000000000000000000000000000004",
        "nonce": "0x1db",
        "chainId": "0x61"
      },
      "additionalContracts": [],
      "isFixedGasLimit": false
    },
    {
      "hash": "0xf125068dfa45a4c174d556c471488c5fb7ca108e190aa267c360f397714b6a63",
      "transactionType": "CALL",
      "contractName": null,
      "contractAddress": "0xf84a465ce158aad1848b737a6ecabe6d253d12c2",
      "function": "setFeeMultiplier(uint8,uint256)",
      "arguments": [
        "15",
        "4"
      ],
      "transaction": {
        "from": "0xe62ab4d111f968660c6b2188046f9b9ba53c4bae",
        "to": "0xf84a465ce158aad1848b737a6ecabe6d253d12c2",
        "gas": "0x10598",
        "value": "0x0",
        "input": "0x0ee24eb5000000000000000000000000000000000000000000000000000000000000000f0000000000000000000000000000000000000000000000000000000000000004",
        "nonce": "0x1dc",
        "chainId": "0x61"
      },
      "additionalContracts": [],
      "isFixedGasLimit": false
    },
    {
      "hash": "0x02ea067333372bf67e526600cdec9bf1cf7e0b18981be2f78e31f400a33764cb",
      "transactionType": "CALL",
      "contractName": null,
      "contractAddress": "0xf84a465ce158aad1848b737a6ecabe6d253d12c2",
      "function": "setFeeMultiplier(uint8,uint256)",
      "arguments": [
        "16",
        "2"
      ],
      "transaction": {
        "from": "0xe62ab4d111f968660c6b2188046f9b9ba53c4bae",
        "to": "0xf84a465ce158aad1848b737a6ecabe6d253d12c2",
        "gas": "0x105b0",
        "value": "0x0",
        "input": "0x0ee24eb500000000000000000000000000000000000000000000000000000000000000100000000000000000000000000000000000000000000000000000000000000002",
        "nonce": "0x1dd",
        "chainId": "0x61"
      },
      "additionalContracts": [],
      "isFixedGasLimit": false
    },
    {
      "hash": "0xe8d6d4b36e1f82e0454d93196b30f24a296d94c1765cc64f870edc7eb220437b",
      "transactionType": "CALL",
      "contractName": null,
      "contractAddress": "0xf84a465ce158aad1848b737a6ecabe6d253d12c2",
      "function": "addFeeToken(string,string[],uint256[])",
      "arguments": [
        "421614",
        "[0xdd43fc986a13392ddbc7aea150b41efe27b2d0ed]",
        "[100]"
      ],
      "transaction": {
        "from": "0xe62ab4d111f968660c6b2188046f9b9ba53c4bae",
        "to": "0xf84a465ce158aad1848b737a6ecabe6d253d12c2",
        "gas": "0x3259e",
        "value": "0x0",
        "input": "0x437bf84f000000000000000000000000000000000000000000000000000000000000006000000000000000000000000000000000000000000000000000000000000000a000000000000000000000000000000000000000000000000000000000000001400000000000000000000000000000000000000000000000000000000000000006343231363134000000000000000000000000000000000000000000000000000000000000000000000000000000000000000000000000000000000000000000010000000000000000000000000000000000000000000000000000000000000020000000000000000000000000000000000000000000000000000000000000002a3078646434336663393836613133333932646462633761656131353062343165666532376232643065640000000000000000000000000000000000000000000000000000000000000000000000000000000000000000000000000000000000010000000000000000000000000000000000000000000000000000000000000064",
        "nonce": "0x1de",
        "chainId": "0x61"
      },
      "additionalContracts": [],
      "isFixedGasLimit": false
    },
    {
      "hash": "0xfdbba24571869ed82065ffe6821eb4ad6bff1a2394991e643766d744713c6979",
      "transactionType": "CALL",
      "contractName": null,
      "contractAddress": "0xf84a465ce158aad1848b737a6ecabe6d253d12c2",
      "function": "addFeeToken(string,string[],uint256[])",
      "arguments": [
        "80002",
        "[0xdd43fc986a13392ddbc7aea150b41efe27b2d0ed]",
        "[100]"
      ],
      "transaction": {
        "from": "0xe62ab4d111f968660c6b2188046f9b9ba53c4bae",
        "to": "0xf84a465ce158aad1848b737a6ecabe6d253d12c2",
        "gas": "0x2cd23",
        "value": "0x0",
        "input": "0x437bf84f000000000000000000000000000000000000000000000000000000000000006000000000000000000000000000000000000000000000000000000000000000a000000000000000000000000000000000000000000000000000000000000001400000000000000000000000000000000000000000000000000000000000000005383030303200000000000000000000000000000000000000000000000000000000000000000000000000000000000000000000000000000000000000000000010000000000000000000000000000000000000000000000000000000000000020000000000000000000000000000000000000000000000000000000000000002a3078646434336663393836613133333932646462633761656131353062343165666532376232643065640000000000000000000000000000000000000000000000000000000000000000000000000000000000000000000000000000000000010000000000000000000000000000000000000000000000000000000000000064",
        "nonce": "0x1df",
        "chainId": "0x61"
      },
      "additionalContracts": [],
      "isFixedGasLimit": false
    },
    {
      "hash": "0x295fe5def17455e0436039c15b0cdfd0a8d02a671210c61d56cd65f6b6df218e",
      "transactionType": "CALL",
      "contractName": null,
      "contractAddress": "0xf84a465ce158aad1848b737a6ecabe6d253d12c2",
      "function": "addFeeToken(string,string[],uint256[])",
      "arguments": [
        "84532",
        "[0xdd43fc986a13392ddbc7aea150b41efe27b2d0ed]",
        "[100]"
      ],
      "transaction": {
        "from": "0xe62ab4d111f968660c6b2188046f9b9ba53c4bae",
        "to": "0xf84a465ce158aad1848b737a6ecabe6d253d12c2",
        "gas": "0x2cd23",
        "value": "0x0",
        "input": "0x437bf84f000000000000000000000000000000000000000000000000000000000000006000000000000000000000000000000000000000000000000000000000000000a000000000000000000000000000000000000000000000000000000000000001400000000000000000000000000000000000000000000000000000000000000005383435333200000000000000000000000000000000000000000000000000000000000000000000000000000000000000000000000000000000000000000000010000000000000000000000000000000000000000000000000000000000000020000000000000000000000000000000000000000000000000000000000000002a3078646434336663393836613133333932646462633761656131353062343165666532376232643065640000000000000000000000000000000000000000000000000000000000000000000000000000000000000000000000000000000000010000000000000000000000000000000000000000000000000000000000000064",
        "nonce": "0x1e0",
        "chainId": "0x61"
      },
      "additionalContracts": [],
      "isFixedGasLimit": false
    },
    {
      "hash": "0x26d11ae5c1d78e6712cffa289b8f81142e17ff55c4a586939eaf133634747ff2",
      "transactionType": "CALL",
      "contractName": null,
      "contractAddress": "0xf84a465ce158aad1848b737a6ecabe6d253d12c2",
      "function": "addFeeToken(string,string[],uint256[])",
      "arguments": [
        "97",
        "[0xdd43fc986a13392ddbc7aea150b41efe27b2d0ed]",
        "[100]"
      ],
      "transaction": {
        "from": "0xe62ab4d111f968660c6b2188046f9b9ba53c4bae",
        "to": "0xf84a465ce158aad1848b737a6ecabe6d253d12c2",
        "gas": "0x29f03",
        "value": "0x0",
        "input": "0x437bf84f000000000000000000000000000000000000000000000000000000000000006000000000000000000000000000000000000000000000000000000000000000a000000000000000000000000000000000000000000000000000000000000001400000000000000000000000000000000000000000000000000000000000000002393700000000000000000000000000000000000000000000000000000000000000000000000000000000000000000000000000000000000000000000000000010000000000000000000000000000000000000000000000000000000000000020000000000000000000000000000000000000000000000000000000000000002a3078646434336663393836613133333932646462633761656131353062343165666532376232643065640000000000000000000000000000000000000000000000000000000000000000000000000000000000000000000000000000000000010000000000000000000000000000000000000000000000000000000000000064",
        "nonce": "0x1e1",
        "chainId": "0x61"
      },
      "additionalContracts": [],
      "isFixedGasLimit": false
    },
    {
      "hash": "0x0a8eb6eb688ef167c7ea52444c95fe95375f8f22c2558e2ee6307b37a6793a84",
      "transactionType": "CALL",
      "contractName": null,
      "contractAddress": "0xf84a465ce158aad1848b737a6ecabe6d253d12c2",
      "function": "addFeeToken(string,string[],uint256[])",
      "arguments": [
        "11155111",
        "[0xdd43fc986a13392ddbc7aea150b41efe27b2d0ed]",
        "[100]"
      ],
      "transaction": {
        "from": "0xe62ab4d111f968660c6b2188046f9b9ba53c4bae",
        "to": "0xf84a465ce158aad1848b737a6ecabe6d253d12c2",
        "gas": "0x2ab93",
        "value": "0x0",
        "input": "0x437bf84f000000000000000000000000000000000000000000000000000000000000006000000000000000000000000000000000000000000000000000000000000000a000000000000000000000000000000000000000000000000000000000000001400000000000000000000000000000000000000000000000000000000000000008313131353531313100000000000000000000000000000000000000000000000000000000000000000000000000000000000000000000000000000000000000010000000000000000000000000000000000000000000000000000000000000020000000000000000000000000000000000000000000000000000000000000002a3078646434336663393836613133333932646462633761656131353062343165666532376232643065640000000000000000000000000000000000000000000000000000000000000000000000000000000000000000000000000000000000010000000000000000000000000000000000000000000000000000000000000064",
        "nonce": "0x1e2",
        "chainId": "0x61"
      },
      "additionalContracts": [],
      "isFixedGasLimit": false
    },
    {
      "hash": "0x3ccdfb2c409f7fded82e924207e41785c247231c52b796aaf582e8b9c0b22811",
      "transactionType": "CALL",
      "contractName": null,
      "contractAddress": "0xb64a86e7f8d84b2cd88535bdaac6d19c87754024",
      "function": "addChainContract(string[],string[])",
      "arguments": [
        "[421614, 80002, 84532, 11155111]",
        "[0xb81d017b3606a7e6eba0049de9f0ea0e4a1d90dd, 0xf97c2b87a7193b7800f50fc402e8f999bf1bf3e4, 0x7635a9b23275892ac46479b7ead9831a80171ace, 0x699de1ff83fad8c40aea628975e1b3ee71dcfb56]"
      ],
      "transaction": {
        "from": "0xe62ab4d111f968660c6b2188046f9b9ba53c4bae",
        "to": "0xb64a86e7f8d84b2cd88535bdaac6d19c87754024",
        "gas": "0xaac27",
        "value": "0x0",
        "input": "0x013fd3bd000000000000000000000000000000000000000000000000000000000000004000000000000000000000000000000000000000000000000000000000000001e00000000000000000000000000000000000000000000000000000000000000004000000000000000000000000000000000000000000000000000000000000008000000000000000000000000000000000000000000000000000000000000000c000000000000000000000000000000000000000000000000000000000000001000000000000000000000000000000000000000000000000000000000000000140000000000000000000000000000000000000000000000000000000000000000634323136313400000000000000000000000000000000000000000000000000000000000000000000000000000000000000000000000000000000000000000005383030303200000000000000000000000000000000000000000000000000000000000000000000000000000000000000000000000000000000000000000000053834353332000000000000000000000000000000000000000000000000000000000000000000000000000000000000000000000000000000000000000000000831313135353131310000000000000000000000000000000000000000000000000000000000000000000000000000000000000000000000000000000000000004000000000000000000000000000000000000000000000000000000000000008000000000000000000000000000000000000000000000000000000000000000e0000000000000000000000000000000000000000000000000000000000000014000000000000000000000000000000000000000000000000000000000000001a0000000000000000000000000000000000000000000000000000000000000002a30786238316430313762333630366137653665626130303439646539663065613065346131643930646400000000000000000000000000000000000000000000000000000000000000000000000000000000000000000000000000000000002a30786639376332623837613731393362373830306635306663343032653866393939626631626633653400000000000000000000000000000000000000000000000000000000000000000000000000000000000000000000000000000000002a30783736333561396232333237353839326163343634373962376561643938333161383031373161636500000000000000000000000000000000000000000000000000000000000000000000000000000000000000000000000000000000002a30783639396465316666383366616438633430616561363238393735653162336565373164636662353600000000000000000000000000000000000000000000",
        "nonce": "0x1e3",
        "chainId": "0x61"
      },
      "additionalContracts": [],
      "isFixedGasLimit": false
    },
    {
      "hash": "0x22295b9220afabfa4f5ad3c40553e71c3be112a793dec0f714d788cf82ba78c7",
      "transactionType": "CALL",
      "contractName": null,
      "contractAddress": "0xb64a86e7f8d84b2cd88535bdaac6d19c87754024",
      "function": "attachRWAX(uint256,uint256,string[],string[])",
      "arguments": [
        "1",
        "1",
        "[97, 421614, 80002, 84532, 11155111]",
        "[0xcff54249dae66746377e15c07d95c42188d5d3a8, 0xd06cda2c8f2258ceec5efb8c6371f54d7853480e, 0xb008b6cc593fc290ed03d5011e90f4e9d19f9a87, 0x6187ee058bb5b7db140cfd470a27ebe1f16d92b1, 0xb37c81d6f90a16bbd778886af49abebfd1ad02c7]"
      ],
      "transaction": {
        "from": "0xe62ab4d111f968660c6b2188046f9b9ba53c4bae",
        "to": "0xb64a86e7f8d84b2cd88535bdaac6d19c87754024",
        "gas": "0xe3ea8",
        "value": "0x0",
        "input": "0x33a5f5b40000000000000000000000000000000000000000000000000000000000000001000000000000000000000000000000000000000000000000000000000000000100000000000000000000000000000000000000000000000000000000000000800000000000000000000000000000000000000000000000000000000000000280000000000000000000000000000000000000000000000000000000000000000500000000000000000000000000000000000000000000000000000000000000a000000000000000000000000000000000000000000000000000000000000000e00000000000000000000000000000000000000000000000000000000000000120000000000000000000000000000000000000000000000000000000000000016000000000000000000000000000000000000000000000000000000000000001a00000000000000000000000000000000000000000000000000000000000000002393700000000000000000000000000000000000000000000000000000000000000000000000000000000000000000000000000000000000000000000000000063432313631340000000000000000000000000000000000000000000000000000000000000000000000000000000000000000000000000000000000000000000538303030320000000000000000000000000000000000000000000000000000000000000000000000000000000000000000000000000000000000000000000005383435333200000000000000000000000000000000000000000000000000000000000000000000000000000000000000000000000000000000000000000000083131313535313131000000000000000000000000000000000000000000000000000000000000000000000000000000000000000000000000000000000000000500000000000000000000000000000000000000000000000000000000000000a00000000000000000000000000000000000000000000000000000000000000100000000000000000000000000000000000000000000000000000000000000016000000000000000000000000000000000000000000000000000000000000001c00000000000000000000000000000000000000000000000000000000000000220000000000000000000000000000000000000000000000000000000000000002a30786366663534323439646165363637343633373765313563303764393563343231383864356433613800000000000000000000000000000000000000000000000000000000000000000000000000000000000000000000000000000000002a30786430366364613263386632323538636565633565666238633633373166353464373835333438306500000000000000000000000000000000000000000000000000000000000000000000000000000000000000000000000000000000002a30786230303862366363353933666332393065643033643530313165393066346539643139663961383700000000000000000000000000000000000000000000000000000000000000000000000000000000000000000000000000000000002a30783631383765653035386262356237646231343063666434373061323765626531663136643932623100000000000000000000000000000000000000000000000000000000000000000000000000000000000000000000000000000000002a30786233376338316436663930613136626264373738383836616634396162656266643161643032633700000000000000000000000000000000000000000000",
        "nonce": "0x1e4",
        "chainId": "0x61"
      },
      "additionalContracts": [],
      "isFixedGasLimit": false
    },
    {
      "hash": "0xe9a82d8a84e5ca074ca5d0b06fb11d18acd8c7231a798d75c02c2a1b8900ff10",
      "transactionType": "CALL",
      "contractName": null,
      "contractAddress": "0xb64a86e7f8d84b2cd88535bdaac6d19c87754024",
      "function": "attachStorageManager(uint256,uint256,string[],string[])",
      "arguments": [
        "1",
        "1",
        "[97, 421614, 80002, 84532, 11155111]",
        "[0x0156a74fd9432446030f47f7c55f4d1fbfdf5e9a, 0x298c11661856dc1194c578ecd2c230eb4fa433a0, 0xd4bd9bba2fb97c36bbd619303cab636f476f8904, 0x4f6af153614d50051bad6f3e76110f959817738f, 0x563c5c85cc7ba923c50b66479588e5b3b2c93470]"
      ],
      "transaction": {
        "from": "0xe62ab4d111f968660c6b2188046f9b9ba53c4bae",
        "to": "0xb64a86e7f8d84b2cd88535bdaac6d19c87754024",
        "gas": "0xd6c94",
        "value": "0x0",
        "input": "0x2f68b4890000000000000000000000000000000000000000000000000000000000000001000000000000000000000000000000000000000000000000000000000000000100000000000000000000000000000000000000000000000000000000000000800000000000000000000000000000000000000000000000000000000000000280000000000000000000000000000000000000000000000000000000000000000500000000000000000000000000000000000000000000000000000000000000a000000000000000000000000000000000000000000000000000000000000000e00000000000000000000000000000000000000000000000000000000000000120000000000000000000000000000000000000000000000000000000000000016000000000000000000000000000000000000000000000000000000000000001a00000000000000000000000000000000000000000000000000000000000000002393700000000000000000000000000000000000000000000000000000000000000000000000000000000000000000000000000000000000000000000000000063432313631340000000000000000000000000000000000000000000000000000000000000000000000000000000000000000000000000000000000000000000538303030320000000000000000000000000000000000000000000000000000000000000000000000000000000000000000000000000000000000000000000005383435333200000000000000000000000000000000000000000000000000000000000000000000000000000000000000000000000000000000000000000000083131313535313131000000000000000000000000000000000000000000000000000000000000000000000000000000000000000000000000000000000000000500000000000000000000000000000000000000000000000000000000000000a00000000000000000000000000000000000000000000000000000000000000100000000000000000000000000000000000000000000000000000000000000016000000000000000000000000000000000000000000000000000000000000001c00000000000000000000000000000000000000000000000000000000000000220000000000000000000000000000000000000000000000000000000000000002a30783031353661373466643934333234343630333066343766376335356634643166626664663565396100000000000000000000000000000000000000000000000000000000000000000000000000000000000000000000000000000000002a30783239386331313636313835366463313139346335373865636432633233306562346661343333613000000000000000000000000000000000000000000000000000000000000000000000000000000000000000000000000000000000002a30786434626439626261326662393763333662626436313933303363616236333666343736663839303400000000000000000000000000000000000000000000000000000000000000000000000000000000000000000000000000000000002a30783466366166313533363134643530303531626164366633653736313130663935393831373733386600000000000000000000000000000000000000000000000000000000000000000000000000000000000000000000000000000000002a30783536336335633835636337626139323363353062363634373935383865356233623263393334373000000000000000000000000000000000000000000000",
        "nonce": "0x1e5",
        "chainId": "0x61"
      },
      "additionalContracts": [],
      "isFixedGasLimit": false
    }
  ],
  "receipts": [
    {
      "status": "0x1",
      "cumulativeGasUsed": "0x5eb3",
      "logs": [],
      "logsBloom": "0x00000000000000000000000000000000000000000000000000000000000000000000000000000000000000000000000000000000000000000000000000000000000000000000000000000000000000000000000000000000000000000000000000000000000000000000000000000000000000000000000000000000000000000000000000000000000000000000000000000000000000000000000000000000000000000000000000000000000000000000000000000000000000000000000000000000000000000000000000000000000000000000000000000000000000000000000000000000000000000000000000000000000000000000000000000000",
      "type": "0x0",
      "transactionHash": "0xba04bd5c0810b77d83982dc040e4d94526259b8a6dd4c67c9966eee3630247c2",
      "transactionIndex": "0x0",
      "blockHash": "0x93322c52702c55cfbcc671b55b8f6b91bd97cc790260a8e416b017600d59dfd1",
      "blockNumber": "0x2ba9212",
      "gasUsed": "0x5eb3",
      "effectiveGasPrice": "0x2540be400",
      "from": "0xe62ab4d111f968660c6b2188046f9b9ba53c4bae",
      "to": "0xf84a465ce158aad1848b737a6ecabe6d253d12c2",
      "contractAddress": null
    },
    {
      "status": "0x1",
      "cumulativeGasUsed": "0x1c01c",
      "logs": [
        {
          "address": "0xf84a465ce158aad1848b737a6ecabe6d253d12c2",
          "topics": [
            "0x1394cfab38f3fc78ed77ea6f9318782a446d96e7dc8e9a6b0149f6be25c08bcf",
            "0x000000000000000000000000dd43fc986a13392ddbc7aea150b41efe27b2d0ed"
          ],
          "data": "0x",
          "blockHash": "0xbec1cef494a36491f83adbda509ca534ce15918cd131037272ec586a164b6e2b",
          "blockNumber": "0x2ba9214",
          "transactionHash": "0xc0a8adae7badf5e428f95b68958a0531adc96956bdc03417b59ebc86fed51520",
          "transactionIndex": "0x0",
          "logIndex": "0x0",
          "removed": false
        }
      ],
      "logsBloom": "0x00000000000000000000000000000000000000000000000000000000000000000000000000000000000000000000000000000002000000000000000000000000000000004000000400000000000000000000001000000000000000000000000000000000000200000000000000000000000000000000000000000000000000000000100100000000000000000000000000000000000000000000000000000000000000000000000000000000000000000000000100000000000000000000000000000000000000000000000000000000000000000000000000000000000000000000000000010000000000000000000000000000000000000000000000000000",
      "type": "0x0",
      "transactionHash": "0xc0a8adae7badf5e428f95b68958a0531adc96956bdc03417b59ebc86fed51520",
      "transactionIndex": "0x0",
      "blockHash": "0xbec1cef494a36491f83adbda509ca534ce15918cd131037272ec586a164b6e2b",
      "blockNumber": "0x2ba9214",
      "gasUsed": "0x1c01c",
      "effectiveGasPrice": "0x2540be400",
      "from": "0xe62ab4d111f968660c6b2188046f9b9ba53c4bae",
      "to": "0xf84a465ce158aad1848b737a6ecabe6d253d12c2",
      "contractAddress": null
    },
    {
      "status": "0x1",
      "cumulativeGasUsed": "0xbbf9",
      "logs": [],
      "logsBloom": "0x00000000000000000000000000000000000000000000000000000000000000000000000000000000000000000000000000000000000000000000000000000000000000000000000000000000000000000000000000000000000000000000000000000000000000000000000000000000000000000000000000000000000000000000000000000000000000000000000000000000000000000000000000000000000000000000000000000000000000000000000000000000000000000000000000000000000000000000000000000000000000000000000000000000000000000000000000000000000000000000000000000000000000000000000000000000",
      "type": "0x0",
      "transactionHash": "0x5c8c8a05355927dfd34402a8bc91b1faac99b46f144180a7ae03424d77b48446",
      "transactionIndex": "0x0",
      "blockHash": "0x1e3bc56ed87e345cc732e30c5eea0f6ab1d1f4347bd1c735c45857d7e35b1c27",
      "blockNumber": "0x2ba9217",
      "gasUsed": "0xbbf9",
      "effectiveGasPrice": "0x2540be400",
      "from": "0xe62ab4d111f968660c6b2188046f9b9ba53c4bae",
      "to": "0xf84a465ce158aad1848b737a6ecabe6d253d12c2",
      "contractAddress": null
    },
    {
      "status": "0x1",
      "cumulativeGasUsed": "0xbc22",
      "logs": [],
      "logsBloom": "0x00000000000000000000000000000000000000000000000000000000000000000000000000000000000000000000000000000000000000000000000000000000000000000000000000000000000000000000000000000000000000000000000000000000000000000000000000000000000000000000000000000000000000000000000000000000000000000000000000000000000000000000000000000000000000000000000000000000000000000000000000000000000000000000000000000000000000000000000000000000000000000000000000000000000000000000000000000000000000000000000000000000000000000000000000000000",
      "type": "0x0",
      "transactionHash": "0x981ce6cfc94ea1408183809eebfa29d893e70eeeabd6f941828fce66517343dc",
      "transactionIndex": "0x0",
      "blockHash": "0x6016240a00c1d2368e04599563c4e54512458b5d6dfdfe5637568c3575cb403d",
      "blockNumber": "0x2ba9219",
      "gasUsed": "0xbc22",
      "effectiveGasPrice": "0x2540be400",
      "from": "0xe62ab4d111f968660c6b2188046f9b9ba53c4bae",
      "to": "0xf84a465ce158aad1848b737a6ecabe6d253d12c2",
      "contractAddress": null
    },
    {
      "status": "0x1",
      "cumulativeGasUsed": "0xbc39",
      "logs": [],
      "logsBloom": "0x00000000000000000000000000000000000000000000000000000000000000000000000000000000000000000000000000000000000000000000000000000000000000000000000000000000000000000000000000000000000000000000000000000000000000000000000000000000000000000000000000000000000000000000000000000000000000000000000000000000000000000000000000000000000000000000000000000000000000000000000000000000000000000000000000000000000000000000000000000000000000000000000000000000000000000000000000000000000000000000000000000000000000000000000000000000",
      "type": "0x0",
      "transactionHash": "0x16afc91b01f0fd3c8118c6155d15180c5b3853bc0d7cde85d17e029be50d30cd",
      "transactionIndex": "0x0",
      "blockHash": "0x177d912811979edf0fc6a680822f80afd9b6a346968cd00fa3c05dc2f0a828a3",
      "blockNumber": "0x2ba921c",
      "gasUsed": "0xbc39",
      "effectiveGasPrice": "0x2540be400",
      "from": "0xe62ab4d111f968660c6b2188046f9b9ba53c4bae",
      "to": "0xf84a465ce158aad1848b737a6ecabe6d253d12c2",
      "contractAddress": null
    },
    {
      "status": "0x1",
      "cumulativeGasUsed": "0xbc50",
      "logs": [],
      "logsBloom": "0x00000000000000000000000000000000000000000000000000000000000000000000000000000000000000000000000000000000000000000000000000000000000000000000000000000000000000000000000000000000000000000000000000000000000000000000000000000000000000000000000000000000000000000000000000000000000000000000000000000000000000000000000000000000000000000000000000000000000000000000000000000000000000000000000000000000000000000000000000000000000000000000000000000000000000000000000000000000000000000000000000000000000000000000000000000000",
      "type": "0x0",
      "transactionHash": "0xab7174ccb7b78ef4ad857138464da87a10d60f2b5df69b755ec1edd5dc05887e",
      "transactionIndex": "0x0",
      "blockHash": "0x2d2c3c4b78ff4a3255650d12f2a8c2fd9d9652895cb78e5db3e0bdd403681e08",
      "blockNumber": "0x2ba921e",
      "gasUsed": "0xbc50",
      "effectiveGasPrice": "0x2540be400",
      "from": "0xe62ab4d111f968660c6b2188046f9b9ba53c4bae",
      "to": "0xf84a465ce158aad1848b737a6ecabe6d253d12c2",
      "contractAddress": null
    },
    {
      "status": "0x1",
      "cumulativeGasUsed": "0xbc67",
      "logs": [],
      "logsBloom": "0x00000000000000000000000000000000000000000000000000000000000000000000000000000000000000000000000000000000000000000000000000000000000000000000000000000000000000000000000000000000000000000000000000000000000000000000000000000000000000000000000000000000000000000000000000000000000000000000000000000000000000000000000000000000000000000000000000000000000000000000000000000000000000000000000000000000000000000000000000000000000000000000000000000000000000000000000000000000000000000000000000000000000000000000000000000000",
      "type": "0x0",
      "transactionHash": "0xda985a7e9724cd50043116efdc0a9a7735e5f35ab64ff36bc6bf27fc05de9a32",
      "transactionIndex": "0x0",
      "blockHash": "0xe24f83f3ab1de0c6811108f16f80c436bf5bb5f7697f24f7a6222fc71007e48a",
      "blockNumber": "0x2ba9221",
      "gasUsed": "0xbc67",
      "effectiveGasPrice": "0x2540be400",
      "from": "0xe62ab4d111f968660c6b2188046f9b9ba53c4bae",
      "to": "0xf84a465ce158aad1848b737a6ecabe6d253d12c2",
      "contractAddress": null
    },
    {
      "status": "0x1",
      "cumulativeGasUsed": "0xbc7e",
      "logs": [],
      "logsBloom": "0x00000000000000000000000000000000000000000000000000000000000000000000000000000000000000000000000000000000000000000000000000000000000000000000000000000000000000000000000000000000000000000000000000000000000000000000000000000000000000000000000000000000000000000000000000000000000000000000000000000000000000000000000000000000000000000000000000000000000000000000000000000000000000000000000000000000000000000000000000000000000000000000000000000000000000000000000000000000000000000000000000000000000000000000000000000000",
      "type": "0x0",
      "transactionHash": "0x612286e585402f5411540b835e5a3411e5ddfebe76179ac424144327aa2892c4",
      "transactionIndex": "0x0",
      "blockHash": "0x85f95618e9c60683aea26543ced040dc9f1f5e848bdccf98f9c3fcbbf6d62af3",
      "blockNumber": "0x2ba9223",
      "gasUsed": "0xbc7e",
      "effectiveGasPrice": "0x2540be400",
      "from": "0xe62ab4d111f968660c6b2188046f9b9ba53c4bae",
      "to": "0xf84a465ce158aad1848b737a6ecabe6d253d12c2",
      "contractAddress": null
    },
    {
      "status": "0x1",
      "cumulativeGasUsed": "0xbc95",
      "logs": [],
      "logsBloom": "0x00000000000000000000000000000000000000000000000000000000000000000000000000000000000000000000000000000000000000000000000000000000000000000000000000000000000000000000000000000000000000000000000000000000000000000000000000000000000000000000000000000000000000000000000000000000000000000000000000000000000000000000000000000000000000000000000000000000000000000000000000000000000000000000000000000000000000000000000000000000000000000000000000000000000000000000000000000000000000000000000000000000000000000000000000000000",
      "type": "0x0",
      "transactionHash": "0x370af7a1a6be1d4352b3bd7aa5de710946249b626bcb315ceba50aa2fd2c0ff6",
      "transactionIndex": "0x0",
      "blockHash": "0xa507e283177da69771c7683e382c10785f90eff1be3f95836e894dd395739076",
      "blockNumber": "0x2ba9226",
      "gasUsed": "0xbc95",
      "effectiveGasPrice": "0x2540be400",
      "from": "0xe62ab4d111f968660c6b2188046f9b9ba53c4bae",
      "to": "0xf84a465ce158aad1848b737a6ecabe6d253d12c2",
      "contractAddress": null
    },
    {
      "status": "0x1",
      "cumulativeGasUsed": "0xbcac",
      "logs": [],
      "logsBloom": "0x00000000000000000000000000000000000000000000000000000000000000000000000000000000000000000000000000000000000000000000000000000000000000000000000000000000000000000000000000000000000000000000000000000000000000000000000000000000000000000000000000000000000000000000000000000000000000000000000000000000000000000000000000000000000000000000000000000000000000000000000000000000000000000000000000000000000000000000000000000000000000000000000000000000000000000000000000000000000000000000000000000000000000000000000000000000",
      "type": "0x0",
      "transactionHash": "0x9788d8542a0e3fb754a5da065884578b583d3eeef0e43e4f2dad6bb8b3690eff",
      "transactionIndex": "0x0",
      "blockHash": "0x1423498bfa4fd9de6189ca493e5d9347c5f8b1edd56a80eaa03585d5c4bbbf3e",
      "blockNumber": "0x2ba9228",
      "gasUsed": "0xbcac",
      "effectiveGasPrice": "0x2540be400",
      "from": "0xe62ab4d111f968660c6b2188046f9b9ba53c4bae",
      "to": "0xf84a465ce158aad1848b737a6ecabe6d253d12c2",
      "contractAddress": null
    },
    {
      "status": "0x1",
      "cumulativeGasUsed": "0xbcc3",
      "logs": [],
      "logsBloom": "0x00000000000000000000000000000000000000000000000000000000000000000000000000000000000000000000000000000000000000000000000000000000000000000000000000000000000000000000000000000000000000000000000000000000000000000000000000000000000000000000000000000000000000000000000000000000000000000000000000000000000000000000000000000000000000000000000000000000000000000000000000000000000000000000000000000000000000000000000000000000000000000000000000000000000000000000000000000000000000000000000000000000000000000000000000000000",
      "type": "0x0",
      "transactionHash": "0x7f0af60cb95212c36a0145c122bb509b63070298f97304415d8693aedce22454",
      "transactionIndex": "0x0",
      "blockHash": "0x04c792a001edb414202bcec43149cbcac260b94b5de1cdd0da84e0df95f73fec",
      "blockNumber": "0x2ba922a",
      "gasUsed": "0xbcc3",
      "effectiveGasPrice": "0x2540be400",
      "from": "0xe62ab4d111f968660c6b2188046f9b9ba53c4bae",
      "to": "0xf84a465ce158aad1848b737a6ecabe6d253d12c2",
      "contractAddress": null
    },
    {
      "status": "0x1",
      "cumulativeGasUsed": "0xbcda",
      "logs": [],
      "logsBloom": "0x00000000000000000000000000000000000000000000000000000000000000000000000000000000000000000000000000000000000000000000000000000000000000000000000000000000000000000000000000000000000000000000000000000000000000000000000000000000000000000000000000000000000000000000000000000000000000000000000000000000000000000000000000000000000000000000000000000000000000000000000000000000000000000000000000000000000000000000000000000000000000000000000000000000000000000000000000000000000000000000000000000000000000000000000000000000",
      "type": "0x0",
      "transactionHash": "0x92f765170bc463afdddee40d191e6fbb44e36062e8b84a163d4f18e9927422bf",
      "transactionIndex": "0x0",
      "blockHash": "0xb7cfd49fa365876a1cefc93f09dd9b5d7478016cf1383a2f5de31de6372573c2",
      "blockNumber": "0x2ba922d",
      "gasUsed": "0xbcda",
      "effectiveGasPrice": "0x2540be400",
      "from": "0xe62ab4d111f968660c6b2188046f9b9ba53c4bae",
      "to": "0xf84a465ce158aad1848b737a6ecabe6d253d12c2",
      "contractAddress": null
    },
    {
      "status": "0x1",
      "cumulativeGasUsed": "0xbcf1",
      "logs": [],
      "logsBloom": "0x00000000000000000000000000000000000000000000000000000000000000000000000000000000000000000000000000000000000000000000000000000000000000000000000000000000000000000000000000000000000000000000000000000000000000000000000000000000000000000000000000000000000000000000000000000000000000000000000000000000000000000000000000000000000000000000000000000000000000000000000000000000000000000000000000000000000000000000000000000000000000000000000000000000000000000000000000000000000000000000000000000000000000000000000000000000",
      "type": "0x0",
      "transactionHash": "0x37829f619b71b3cba7e86d9ea757f7763cba2cd976ad112dd2c386cbf5502729",
      "transactionIndex": "0x0",
      "blockHash": "0xde9c7419c061887b99ed3c3fdfeaa883a92f7e2ab68baf7959b2119f27a33a2b",
      "blockNumber": "0x2ba922f",
      "gasUsed": "0xbcf1",
      "effectiveGasPrice": "0x2540be400",
      "from": "0xe62ab4d111f968660c6b2188046f9b9ba53c4bae",
      "to": "0xf84a465ce158aad1848b737a6ecabe6d253d12c2",
      "contractAddress": null
    },
    {
      "status": "0x1",
      "cumulativeGasUsed": "0xbd08",
      "logs": [],
      "logsBloom": "0x00000000000000000000000000000000000000000000000000000000000000000000000000000000000000000000000000000000000000000000000000000000000000000000000000000000000000000000000000000000000000000000000000000000000000000000000000000000000000000000000000000000000000000000000000000000000000000000000000000000000000000000000000000000000000000000000000000000000000000000000000000000000000000000000000000000000000000000000000000000000000000000000000000000000000000000000000000000000000000000000000000000000000000000000000000000",
      "type": "0x0",
      "transactionHash": "0x2c9cf32c0366cbbd944b22194525ab41b1071c79b145955430cd1314a40e034d",
      "transactionIndex": "0x0",
      "blockHash": "0x526fa8b35c9b07ff814172df8176802568b72e73f0bcee0b76bb15641fea6e0c",
      "blockNumber": "0x2ba9232",
      "gasUsed": "0xbd08",
      "effectiveGasPrice": "0x2540be400",
      "from": "0xe62ab4d111f968660c6b2188046f9b9ba53c4bae",
      "to": "0xf84a465ce158aad1848b737a6ecabe6d253d12c2",
      "contractAddress": null
    },
    {
      "status": "0x1",
      "cumulativeGasUsed": "0xbd1f",
      "logs": [],
      "logsBloom": "0x00000000000000000000000000000000000000000000000000000000000000000000000000000000000000000000000000000000000000000000000000000000000000000000000000000000000000000000000000000000000000000000000000000000000000000000000000000000000000000000000000000000000000000000000000000000000000000000000000000000000000000000000000000000000000000000000000000000000000000000000000000000000000000000000000000000000000000000000000000000000000000000000000000000000000000000000000000000000000000000000000000000000000000000000000000000",
      "type": "0x0",
      "transactionHash": "0x1a2f450221dd6ddd14a0d11a4085a71f9c29fe242c15890cf88bf7167828c257",
      "transactionIndex": "0x0",
      "blockHash": "0x5333bd5a9e6287ac3a46c5a2a5af69b310792e1fec3f5ab9bc5eba560cd77bd7",
      "blockNumber": "0x2ba9234",
      "gasUsed": "0xbd1f",
      "effectiveGasPrice": "0x2540be400",
      "from": "0xe62ab4d111f968660c6b2188046f9b9ba53c4bae",
      "to": "0xf84a465ce158aad1848b737a6ecabe6d253d12c2",
      "contractAddress": null
    },
    {
      "status": "0x1",
      "cumulativeGasUsed": "0xbd36",
      "logs": [],
      "logsBloom": "0x00000000000000000000000000000000000000000000000000000000000000000000000000000000000000000000000000000000000000000000000000000000000000000000000000000000000000000000000000000000000000000000000000000000000000000000000000000000000000000000000000000000000000000000000000000000000000000000000000000000000000000000000000000000000000000000000000000000000000000000000000000000000000000000000000000000000000000000000000000000000000000000000000000000000000000000000000000000000000000000000000000000000000000000000000000000",
      "type": "0x0",
      "transactionHash": "0x44914582454969af867dbef48b9e0c22565209a84e659572a24c16e50e70ae4d",
      "transactionIndex": "0x0",
      "blockHash": "0x3e3a774722d5bcf234596abe3394fdaab8714a27a91c4422bbf7b1ca135c8076",
      "blockNumber": "0x2ba9237",
      "gasUsed": "0xbd36",
      "effectiveGasPrice": "0x2540be400",
      "from": "0xe62ab4d111f968660c6b2188046f9b9ba53c4bae",
      "to": "0xf84a465ce158aad1848b737a6ecabe6d253d12c2",
      "contractAddress": null
    },
    {
      "status": "0x1",
      "cumulativeGasUsed": "0xbd4d",
      "logs": [],
      "logsBloom": "0x00000000000000000000000000000000000000000000000000000000000000000000000000000000000000000000000000000000000000000000000000000000000000000000000000000000000000000000000000000000000000000000000000000000000000000000000000000000000000000000000000000000000000000000000000000000000000000000000000000000000000000000000000000000000000000000000000000000000000000000000000000000000000000000000000000000000000000000000000000000000000000000000000000000000000000000000000000000000000000000000000000000000000000000000000000000",
      "type": "0x0",
      "transactionHash": "0xdf06966449a5e49c36cb2b56d6fe71bcb9b199c71285d582f818db57b9c6e64f",
      "transactionIndex": "0x0",
      "blockHash": "0xd4cf1a96e6f5e5ad5315cffba021327403562ef3b466e34c668c18f6ae658cc8",
      "blockNumber": "0x2ba9239",
      "gasUsed": "0xbd4d",
      "effectiveGasPrice": "0x2540be400",
      "from": "0xe62ab4d111f968660c6b2188046f9b9ba53c4bae",
      "to": "0xf84a465ce158aad1848b737a6ecabe6d253d12c2",
      "contractAddress": null
    },
    {
      "status": "0x1",
      "cumulativeGasUsed": "0xbd64",
      "logs": [],
      "logsBloom": "0x00000000000000000000000000000000000000000000000000000000000000000000000000000000000000000000000000000000000000000000000000000000000000000000000000000000000000000000000000000000000000000000000000000000000000000000000000000000000000000000000000000000000000000000000000000000000000000000000000000000000000000000000000000000000000000000000000000000000000000000000000000000000000000000000000000000000000000000000000000000000000000000000000000000000000000000000000000000000000000000000000000000000000000000000000000000",
      "type": "0x0",
      "transactionHash": "0xf125068dfa45a4c174d556c471488c5fb7ca108e190aa267c360f397714b6a63",
      "transactionIndex": "0x0",
      "blockHash": "0xc79d3bf3d8416a6a4682fb0e8b60eb54ec273632547536c8267b8245e9af5f2f",
      "blockNumber": "0x2ba923c",
      "gasUsed": "0xbd64",
      "effectiveGasPrice": "0x2540be400",
      "from": "0xe62ab4d111f968660c6b2188046f9b9ba53c4bae",
      "to": "0xf84a465ce158aad1848b737a6ecabe6d253d12c2",
      "contractAddress": null
    },
    {
      "status": "0x1",
      "cumulativeGasUsed": "0xbd76",
      "logs": [],
      "logsBloom": "0x00000000000000000000000000000000000000000000000000000000000000000000000000000000000000000000000000000000000000000000000000000000000000000000000000000000000000000000000000000000000000000000000000000000000000000000000000000000000000000000000000000000000000000000000000000000000000000000000000000000000000000000000000000000000000000000000000000000000000000000000000000000000000000000000000000000000000000000000000000000000000000000000000000000000000000000000000000000000000000000000000000000000000000000000000000000",
      "type": "0x0",
      "transactionHash": "0x02ea067333372bf67e526600cdec9bf1cf7e0b18981be2f78e31f400a33764cb",
      "transactionIndex": "0x0",
      "blockHash": "0xc77a4a5563679c134391a490951db8e4ce7a5a22569556b9963296918f713e2b",
      "blockNumber": "0x2ba923e",
      "gasUsed": "0xbd76",
      "effectiveGasPrice": "0x2540be400",
      "from": "0xe62ab4d111f968660c6b2188046f9b9ba53c4bae",
      "to": "0xf84a465ce158aad1848b737a6ecabe6d253d12c2",
      "contractAddress": null
    },
    {
      "status": "0x1",
      "cumulativeGasUsed": "0x226da",
      "logs": [],
      "logsBloom": "0x00000000000000000000000000000000000000000000000000000000000000000000000000000000000000000000000000000000000000000000000000000000000000000000000000000000000000000000000000000000000000000000000000000000000000000000000000000000000000000000000000000000000000000000000000000000000000000000000000000000000000000000000000000000000000000000000000000000000000000000000000000000000000000000000000000000000000000000000000000000000000000000000000000000000000000000000000000000000000000000000000000000000000000000000000000000",
      "type": "0x0",
      "transactionHash": "0xe8d6d4b36e1f82e0454d93196b30f24a296d94c1765cc64f870edc7eb220437b",
      "transactionIndex": "0x0",
      "blockHash": "0x209b3a4679bc32a61642196aac4bcb9d4700a0399276d19b9b7cb9b5ffc70450",
      "blockNumber": "0x2ba9241",
      "gasUsed": "0x226da",
      "effectiveGasPrice": "0x2540be400",
      "from": "0xe62ab4d111f968660c6b2188046f9b9ba53c4bae",
      "to": "0xf84a465ce158aad1848b737a6ecabe6d253d12c2",
      "contractAddress": null
    },
    {
      "status": "0x1",
      "cumulativeGasUsed": "0x1ea5a",
      "logs": [],
      "logsBloom": "0x00000000000000000000000000000000000000000000000000000000000000000000000000000000000000000000000000000000000000000000000000000000000000000000000000000000000000000000000000000000000000000000000000000000000000000000000000000000000000000000000000000000000000000000000000000000000000000000000000000000000000000000000000000000000000000000000000000000000000000000000000000000000000000000000000000000000000000000000000000000000000000000000000000000000000000000000000000000000000000000000000000000000000000000000000000000",
      "type": "0x0",
      "transactionHash": "0xfdbba24571869ed82065ffe6821eb4ad6bff1a2394991e643766d744713c6979",
      "transactionIndex": "0x0",
      "blockHash": "0xf52eb085d5b37babdcb068efb625009d92b867629dff726c2fe0b001c1907eab",
      "blockNumber": "0x2ba9243",
      "gasUsed": "0x1ea5a",
      "effectiveGasPrice": "0x2540be400",
      "from": "0xe62ab4d111f968660c6b2188046f9b9ba53c4bae",
      "to": "0xf84a465ce158aad1848b737a6ecabe6d253d12c2",
      "contractAddress": null
    },
    {
      "status": "0x1",
      "cumulativeGasUsed": "0x1ea5a",
      "logs": [],
      "logsBloom": "0x00000000000000000000000000000000000000000000000000000000000000000000000000000000000000000000000000000000000000000000000000000000000000000000000000000000000000000000000000000000000000000000000000000000000000000000000000000000000000000000000000000000000000000000000000000000000000000000000000000000000000000000000000000000000000000000000000000000000000000000000000000000000000000000000000000000000000000000000000000000000000000000000000000000000000000000000000000000000000000000000000000000000000000000000000000000",
      "type": "0x0",
      "transactionHash": "0x295fe5def17455e0436039c15b0cdfd0a8d02a671210c61d56cd65f6b6df218e",
      "transactionIndex": "0x0",
      "blockHash": "0x6c4f0cd1fe909122bd397b52f5555e77d9fded1d1efa96f633619742c878b46e",
      "blockNumber": "0x2ba9245",
      "gasUsed": "0x1ea5a",
      "effectiveGasPrice": "0x2540be400",
      "from": "0xe62ab4d111f968660c6b2188046f9b9ba53c4bae",
      "to": "0xf84a465ce158aad1848b737a6ecabe6d253d12c2",
      "contractAddress": null
    },
    {
      "status": "0x1",
      "cumulativeGasUsed": "0x1e5ce",
      "logs": [],
      "logsBloom": "0x00000000000000000000000000000000000000000000000000000000000000000000000000000000000000000000000000000000000000000000000000000000000000000000000000000000000000000000000000000000000000000000000000000000000000000000000000000000000000000000000000000000000000000000000000000000000000000000000000000000000000000000000000000000000000000000000000000000000000000000000000000000000000000000000000000000000000000000000000000000000000000000000000000000000000000000000000000000000000000000000000000000000000000000000000000000",
      "type": "0x0",
      "transactionHash": "0x26d11ae5c1d78e6712cffa289b8f81142e17ff55c4a586939eaf133634747ff2",
      "transactionIndex": "0x0",
      "blockHash": "0x6aaf9afb405b5f7478cdeae188d68c83bf3eaf3e71991268afc40969c033f257",
      "blockNumber": "0x2ba9248",
      "gasUsed": "0x1e5ce",
      "effectiveGasPrice": "0x2540be400",
      "from": "0xe62ab4d111f968660c6b2188046f9b9ba53c4bae",
      "to": "0xf84a465ce158aad1848b737a6ecabe6d253d12c2",
      "contractAddress": null
    },
    {
      "status": "0x1",
      "cumulativeGasUsed": "0x251cb",
      "logs": [],
      "logsBloom": "0x00000000000000000000000000000000000000000000000000000000000000000000000000000000000000000000000000000000000000000000000000000000000000000000000000000000000000000000000000000000000000000000000000000000000000000000000000000000000000000000000000000000000000000000000000000000000000000000000000000000000000000000000000000000000000000000000000000000000000000000000000000000000000000000000000000000000000000000000000000000000000000000000000000000000000000000000000000000000000000000000000000000000000000000000000000000",
      "type": "0x0",
      "transactionHash": "0x0a8eb6eb688ef167c7ea52444c95fe95375f8f22c2558e2ee6307b37a6793a84",
      "transactionIndex": "0x1",
      "blockHash": "0xa01fa568e05bd4dd5b26843175400596c89aa2270385cf49363ecc08d572672a",
      "blockNumber": "0x2ba924a",
      "gasUsed": "0x1eee6",
      "effectiveGasPrice": "0x2540be400",
      "from": "0xe62ab4d111f968660c6b2188046f9b9ba53c4bae",
      "to": "0xf84a465ce158aad1848b737a6ecabe6d253d12c2",
      "contractAddress": null
    },
    {
      "status": "0x1",
      "cumulativeGasUsed": "0x7ba08",
      "logs": [],
      "logsBloom": "0x00000000000000000000000000000000000000000000000000000000000000000000000000000000000000000000000000000000000000000000000000000000000000000000000000000000000000000000000000000000000000000000000000000000000000000000000000000000000000000000000000000000000000000000000000000000000000000000000000000000000000000000000000000000000000000000000000000000000000000000000000000000000000000000000000000000000000000000000000000000000000000000000000000000000000000000000000000000000000000000000000000000000000000000000000000000",
      "type": "0x0",
      "transactionHash": "0x3ccdfb2c409f7fded82e924207e41785c247231c52b796aaf582e8b9c0b22811",
      "transactionIndex": "0x0",
      "blockHash": "0xa02af8b9a38b0ef0fe487be0c325dd879d2619879cadfb51afa2b10b17877510",
      "blockNumber": "0x2ba924d",
      "gasUsed": "0x7ba08",
      "effectiveGasPrice": "0x2540be400",
      "from": "0xe62ab4d111f968660c6b2188046f9b9ba53c4bae",
      "to": "0xb64a86e7f8d84b2cd88535bdaac6d19c87754024",
      "contractAddress": null
    },
    {
      "status": "0x1",
      "cumulativeGasUsed": "0x9bd71",
      "logs": [],
      "logsBloom": "0x00000000000000000000000000000000000000000000000000000000000000000000000000000000000000000000000000000000000000000000000000000000000000000000000000000000000000000000000000000000000000000000000000000000000000000000000000000000000000000000000000000000000000000000000000000000000000000000000000000000000000000000000000000000000000000000000000000000000000000000000000000000000000000000000000000000000000000000000000000000000000000000000000000000000000000000000000000000000000000000000000000000000000000000000000000000",
      "type": "0x0",
      "transactionHash": "0x22295b9220afabfa4f5ad3c40553e71c3be112a793dec0f714d788cf82ba78c7",
      "transactionIndex": "0x0",
      "blockHash": "0xb8f74bed7c23d2a0f26f367940d3191f251407d9fb07347b7ca95ab1873585fc",
      "blockNumber": "0x2ba9250",
      "gasUsed": "0x9bd71",
      "effectiveGasPrice": "0x2540be400",
      "from": "0xe62ab4d111f968660c6b2188046f9b9ba53c4bae",
      "to": "0xb64a86e7f8d84b2cd88535bdaac6d19c87754024",
      "contractAddress": null
    },
    {
      "status": "0x1",
      "cumulativeGasUsed": "0x9b806",
      "logs": [],
      "logsBloom": "0x00000000000000000000000000000000000000000000000000000000000000000000000000000000000000000000000000000000000000000000000000000000000000000000000000000000000000000000000000000000000000000000000000000000000000000000000000000000000000000000000000000000000000000000000000000000000000000000000000000000000000000000000000000000000000000000000000000000000000000000000000000000000000000000000000000000000000000000000000000000000000000000000000000000000000000000000000000000000000000000000000000000000000000000000000000000",
      "type": "0x0",
      "transactionHash": "0xe9a82d8a84e5ca074ca5d0b06fb11d18acd8c7231a798d75c02c2a1b8900ff10",
      "transactionIndex": "0x0",
      "blockHash": "0xa2468a4ecd8bd567b1ce235b5db4e2c4adafe6841ebf423520e832cb7fc9f3c5",
      "blockNumber": "0x2ba9252",
      "gasUsed": "0x9b806",
      "effectiveGasPrice": "0x2540be400",
      "from": "0xe62ab4d111f968660c6b2188046f9b9ba53c4bae",
      "to": "0xb64a86e7f8d84b2cd88535bdaac6d19c87754024",
      "contractAddress": null
    }
  ],
  "libraries": [],
  "pending": [],
  "returns": {},
  "timestamp": 1732065903,
  "chain": 97,
  "commit": "4b2e1f8c"
}