{
  "transactions": [
    {
      "hash": "0x51bdbfda3b476d5fedbf2e564932574c9ecb382cff07feff358327a48ef00b03",
      "transactionType": "CALL",
      "contractName": null,
      "contractAddress": "0x7ad438d2b3ac77d55c85275fd09d51cec9bb2987",
      "function": "getFeeTokenList()",
      "arguments": [],
      "transaction": {
        "from": "0xe62ab4d111f968660c6b2188046f9b9ba53c4bae",
        "to": "0x7ad438d2b3ac77d55c85275fd09d51cec9bb2987",
        "gas": "0x979a",
        "value": "0x0",
        "input": "0xe28ab277",
        "nonce": "0x37b",
        "chainId": "0x61"
      },
      "additionalContracts": [],
      "isFixedGasLimit": false
    },
    {
      "hash": "0x1053dce184310fa2533b0b70d931b84e8d8adbc32b7edeaf0840dfe94c3fbb00",
      "transactionType": "CALL",
      "contractName": null,
      "contractAddress": "0x7ad438d2b3ac77d55c85275fd09d51cec9bb2987",
      "function": "addFeeToken(string,string[],uint256[])",
      "arguments": [
        "97",
        "[0xdd43fc986a13392ddbc7aea150b41efe27b2d0ed]",
        "[100]"
      ],
      "transaction": {
        "from": "0xe62ab4d111f968660c6b2188046f9b9ba53c4bae",
        "to": "0x7ad438d2b3ac77d55c85275fd09d51cec9bb2987",
        "gas": "0x23327",
        "value": "0x0",
        "input": "0x437bf84f000000000000000000000000000000000000000000000000000000000000006000000000000000000000000000000000000000000000000000000000000000a000000000000000000000000000000000000000000000000000000000000001400000000000000000000000000000000000000000000000000000000000000002393700000000000000000000000000000000000000000000000000000000000000000000000000000000000000000000000000000000000000000000000000010000000000000000000000000000000000000000000000000000000000000020000000000000000000000000000000000000000000000000000000000000002a3078646434336663393836613133333932646462633761656131353062343165666532376232643065640000000000000000000000000000000000000000000000000000000000000000000000000000000000000000000000000000000000010000000000000000000000000000000000000000000000000000000000000064",
        "nonce": "0x37c",
        "chainId": "0x61"
      },
      "additionalContracts": [],
      "isFixedGasLimit": false
    },
    {
      "hash": "0x6740d5b7e0e7d24438d576c069584a1edef496639576b21c8cc96363ebd9ef27",
      "transactionType": "CALL",
      "contractName": null,
      "contractAddress": "0x7ad438d2b3ac77d55c85275fd09d51cec9bb2987",
      "function": "addFeeToken(string,string[],uint256[])",
      "arguments": [
        "11155420",
        "[0xdd43fc986a13392ddbc7aea150b41efe27b2d0ed]",
        "[100]"
      ],
      "transaction": {
        "from": "0xe62ab4d111f968660c6b2188046f9b9ba53c4bae",
        "to": "0x7ad438d2b3ac77d55c85275fd09d51cec9bb2987",
        "gas": "0x2ab0d",
        "value": "0x0",
        "input": "0x437bf84f000000000000000000000000000000000000000000000000000000000000006000000000000000000000000000000000000000000000000000000000000000a000000000000000000000000000000000000000000000000000000000000001400000000000000000000000000000000000000000000000000000000000000008313131353534323000000000000000000000000000000000000000000000000000000000000000000000000000000000000000000000000000000000000000010000000000000000000000000000000000000000000000000000000000000020000000000000000000000000000000000000000000000000000000000000002a3078646434336663393836613133333932646462633761656131353062343165666532376232643065640000000000000000000000000000000000000000000000000000000000000000000000000000000000000000000000000000000000010000000000000000000000000000000000000000000000000000000000000064",
        "nonce": "0x37d",
        "chainId": "0x61"
      },
      "additionalContracts": [],
      "isFixedGasLimit": false
    },
    {
      "hash": "0x9d5ed5d92944891b5fdb5b88a42e4877b2cd59c64348d3aaa8a1c22e7fdc149c",
      "transactionType": "CALL",
      "contractName": null,
      "contractAddress": "0xd362afb113d7a2226aff228f4fb161befd3b6bd4",
      "function": "addChainContract(string[],string[])",
      "arguments": [
        "[11155420]",
        "[0x3b44962bf264b8cebac13da24722faa27fc693a1]"
      ],
      "transaction": {
        "from": "0xe62ab4d111f968660c6b2188046f9b9ba53c4bae",
        "to": "0xd362afb113d7a2226aff228f4fb161befd3b6bd4",
        "gas": "0x48b4f",
        "value": "0x0",
        "input": "0x013fd3bd000000000000000000000000000000000000000000000000000000000000004000000000000000000000000000000000000000000000000000000000000000c0000000000000000000000000000000000000000000000000000000000000000100000000000000000000000000000000000000000000000000000000000000200000000000000000000000000000000000000000000000000000000000000008313131353534323000000000000000000000000000000000000000000000000000000000000000000000000000000000000000000000000000000000000000010000000000000000000000000000000000000000000000000000000000000020000000000000000000000000000000000000000000000000000000000000002a30783362343439363262663236346238636562616331336461323437323266616132376663363933613100000000000000000000000000000000000000000000",
        "nonce": "0x37e",
        "chainId": "0x61"
      },
      "additionalContracts": [],
      "isFixedGasLimit": false
    },
    {
      "hash": "0x95a747fc747778cf8514883a8c98d58a4c11b108df678513d69e093d76151c1c",
      "transactionType": "CALL",
      "contractName": null,
      "contractAddress": "0xd362afb113d7a2226aff228f4fb161befd3b6bd4",
      "function": "attachRWAX(uint256,uint256,string[],string[])",
      "arguments": [
        "1",
        "1",
        "[11155420]",
        "[0x266442249f62a8dd4e29348a52af8c806c7cb0da]"
      ],
      "transaction": {
        "from": "0xe62ab4d111f968660c6b2188046f9b9ba53c4bae",
        "to": "0xd362afb113d7a2226aff228f4fb161befd3b6bd4",
        "gas": "0x58cb2",
        "value": "0x0",
        "input": "0x33a5f5b40000000000000000000000000000000000000000000000000000000000000001000000000000000000000000000000000000000000000000000000000000000100000000000000000000000000000000000000000000000000000000000000800000000000000000000000000000000000000000000000000000000000000100000000000000000000000000000000000000000000000000000000000000000100000000000000000000000000000000000000000000000000000000000000200000000000000000000000000000000000000000000000000000000000000008313131353534323000000000000000000000000000000000000000000000000000000000000000000000000000000000000000000000000000000000000000010000000000000000000000000000000000000000000000000000000000000020000000000000000000000000000000000000000000000000000000000000002a30783236363434323234396636326138646434653239333438613532616638633830366337636230646100000000000000000000000000000000000000000000",
        "nonce": "0x37f",
        "chainId": "0x61"
      },
      "additionalContracts": [],
      "isFixedGasLimit": false
    },
    {
      "hash": "0x50295252fdf5af726a6bbe3454f36d8c5dcacc2dce7d6697977c92a59e04a20b",
      "transactionType": "CALL",
      "contractName": null,
      "contractAddress": "0xd362afb113d7a2226aff228f4fb161befd3b6bd4",
      "function": "attachStorageManager(uint256,uint256,string[],string[])",
      "arguments": [
        "1",
        "1",
        "[11155420]",
        "[0x62ab67f946aca3991898ac7bb59beac125eb5902]"
      ],
      "transaction": {
        "from": "0xe62ab4d111f968660c6b2188046f9b9ba53c4bae",
        "to": "0xd362afb113d7a2226aff228f4fb161befd3b6bd4",
        "gas": "0x4a7f6",
        "value": "0x0",
        "input": "0x2f68b4890000000000000000000000000000000000000000000000000000000000000001000000000000000000000000000000000000000000000000000000000000000100000000000000000000000000000000000000000000000000000000000000800000000000000000000000000000000000000000000000000000000000000100000000000000000000000000000000000000000000000000000000000000000100000000000000000000000000000000000000000000000000000000000000200000000000000000000000000000000000000000000000000000000000000008313131353534323000000000000000000000000000000000000000000000000000000000000000000000000000000000000000000000000000000000000000010000000000000000000000000000000000000000000000000000000000000020000000000000000000000000000000000000000000000000000000000000002a30783632616236376639343661636133393931383938616337626235396265616331323565623539303200000000000000000000000000000000000000000000",
        "nonce": "0x380",
        "chainId": "0x61"
      },
      "additionalContracts": [],
      "isFixedGasLimit": false
    },
    {
      "hash": "0x6f9a4f7fd5f387755705fb9f5951fa856af9233d1db5f596398a9d16d73aca7b",
      "transactionType": "CALL",
      "contractName": null,
      "contractAddress": "0xd362afb113d7a2226aff228f4fb161befd3b6bd4",
      "function": "attachSentryManager(uint256,uint256,string[],string[])",
      "arguments": [
        "1",
        "1",
        "[11155420]",
        "[0x1bb2dab2ce968db0d992a6289acbdd8f764be36a]"
      ],
      "transaction": {
        "from": "0xe62ab4d111f968660c6b2188046f9b9ba53c4bae",
        "to": "0xd362afb113d7a2226aff228f4fb161befd3b6bd4",
        "gas": "0x4aa77",
        "value": "0x0",
        "input": "0x349de7970000000000000000000000000000000000000000000000000000000000000001000000000000000000000000000000000000000000000000000000000000000100000000000000000000000000000000000000000000000000000000000000800000000000000000000000000000000000000000000000000000000000000100000000000000000000000000000000000000000000000000000000000000000100000000000000000000000000000000000000000000000000000000000000200000000000000000000000000000000000000000000000000000000000000008313131353534323000000000000000000000000000000000000000000000000000000000000000000000000000000000000000000000000000000000000000010000000000000000000000000000000000000000000000000000000000000020000000000000000000000000000000000000000000000000000000000000002a30783162623264616232636539363864623064393932613632383961636264643866373634626533366100000000000000000000000000000000000000000000",
        "nonce": "0x381",
        "chainId": "0x61"
      },
      "additionalContracts": [],
      "isFixedGasLimit": false
    }
  ],
  "receipts": [
    {
      "status": "0x1",
      "cumulativeGasUsed": "0x67a9",
      "logs": [],
      "logsBloom": "0x00000000000000000000000000000000000000000000000000000000000000000000000000000000000000000000000000000000000000000000000000000000000000000000000000000000000000000000000000000000000000000000000000000000000000000000000000000000000000000000000000000000000000000000000000000000000000000000000000000000000000000000000000000000000000000000000000000000000000000000000000000000000000000000000000000000000000000000000000000000000000000000000000000000000000000000000000000000000000000000000000000000000000000000000000000000",
      "type": "0x0",
      "transactionHash": "0x51bdbfda3b476d5fedbf2e564932574c9ecb382cff07feff358327a48ef00b03",
      "transactionIndex": "0x0",
      "blockHash": "0x11a3d635f09c54dd778aa4d4a6c35c19e40f6dd44f7a041869d626dca6cb03cd",
      "blockNumber": "0x2e26905",
      "gasUsed": "0x67a9",
      "effectiveGasPrice": "0x174876e800",
      "from": "0xe62ab4d111f968660c6b2188046f9b9ba53c4bae",
      "to": "0x7ad438d2b3ac77d55c85275fd09d51cec9bb2987",
      "contractAddress": null
    },
    {
      "status": "0x1",
      "cumulativeGasUsed": "0x2427d",
      "logs": [],
      "logsBloom": "0x00000000000000000000000000000000000000000000000000000000000000000000000000000000000000000000000000000000000000000000000000000000000000000000000000000000000000000000000000000000000000000000000000000000000000000000000000000000000000000000000000000000000000000000000000000000000000000000000000000000000000000000000000000000000000000000000000000000000000000000000000000000000000000000000000000000000000000000000000000000000000000000000000000000000000000000000000000000000000000000000000000000000000000000000000000000",
      "type": "0x0",
      "transactionHash": "0x1053dce184310fa2533b0b70d931b84e8d8adbc32b7edeaf0840dfe94c3fbb00",
      "transactionIndex": "0x1",
      "blockHash": "0x7d9eb763711be89d177c6ca3e601bb991c5c9a2daa8c43965a366ce08a29acdf",
      "blockNumber": "0x2e26906",
      "gasUsed": "0x197b7",
      "effectiveGasPrice": "0x174876e800",
      "from": "0xe62ab4d111f968660c6b2188046f9b9ba53c4bae",
      "to": "0x7ad438d2b3ac77d55c85275fd09d51cec9bb2987",
      "contractAddress": null
    },
    {
      "status": "0x1",
      "cumulativeGasUsed": "0x1ee85",
      "logs": [],
      "logsBloom": "0x00000000000000000000000000000000000000000000000000000000000000000000000000000000000000000000000000000000000000000000000000000000000000000000000000000000000000000000000000000000000000000000000000000000000000000000000000000000000000000000000000000000000000000000000000000000000000000000000000000000000000000000000000000000000000000000000000000000000000000000000000000000000000000000000000000000000000000000000000000000000000000000000000000000000000000000000000000000000000000000000000000000000000000000000000000000",
      "type": "0x0",
      "transactionHash": "0x6740d5b7e0e7d24438d576c069584a1edef496639576b21c8cc96363ebd9ef27",
      "transactionIndex": "0x0",
      "blockHash": "0x6b321b4e04fff85805e4b345ad8afac74b1f7f0c05903c3cae0c930230a2bc93",
      "blockNumber": "0x2e26908",
      "gasUsed": "0x1ee85",
      "effectiveGasPrice": "0x174876e800",
      "from": "0xe62ab4d111f968660c6b2188046f9b9ba53c4bae",
      "to": "0x7ad438d2b3ac77d55c85275fd09d51cec9bb2987",
      "contractAddress": null
    },
    {
      "status": "0x1",
      "cumulativeGasUsed": "0x34a38",
      "logs": [],
      "logsBloom": "0x00000000000000000000000000000000000000000000000000000000000000000000000000000000000000000000000000000000000000000000000000000000000000000000000000000000000000000000000000000000000000000000000000000000000000000000000000000000000000000000000000000000000000000000000000000000000000000000000000000000000000000000000000000000000000000000000000000000000000000000000000000000000000000000000000000000000000000000000000000000000000000000000000000000000000000000000000000000000000000000000000000000000000000000000000000000",
      "type": "0x0",
      "transactionHash": "0x9d5ed5d92944891b5fdb5b88a42e4877b2cd59c64348d3aaa8a1c22e7fdc149c",
      "transactionIndex": "0x0",
      "blockHash": "0x06f7e8b6a0a7fd52c08a9f295f7df295e3b2214b356471900af17715aa12e899",
      "blockNumber": "0x2e26909",
      "gasUsed": "0x34a38",
      "effectiveGasPrice": "0x174876e800",
      "from": "0xe62ab4d111f968660c6b2188046f9b9ba53c4bae",
      "to": "0xd362afb113d7a2226aff228f4fb161befd3b6bd4",
      "contractAddress": null
    },
    {
      "status": "0x1",
      "cumulativeGasUsed": "0x3cb6b",
      "logs": [],
      "logsBloom": "0x00000000000000000000000000000000000000000000000000000000000000000000000000000000000000000000000000000000000000000000000000000000000000000000000000000000000000000000000000000000000000000000000000000000000000000000000000000000000000000000000000000000000000000000000000000000000000000000000000000000000000000000000000000000000000000000000000000000000000000000000000000000000000000000000000000000000000000000000000000000000000000000000000000000000000000000000000000000000000000000000000000000000000000000000000000000",
      "type": "0x0",
      "transactionHash": "0x95a747fc747778cf8514883a8c98d58a4c11b108df678513d69e093d76151c1c",
      "transactionIndex": "0x0",
      "blockHash": "0x7efb6a59b5059d20e1be753edf85b269ed884608f48ac75d23e735e51cbd438b",
      "blockNumber": "0x2e2690a",
      "gasUsed": "0x3cb6b",
      "effectiveGasPrice": "0x174876e800",
      "from": "0xe62ab4d111f968660c6b2188046f9b9ba53c4bae",
      "to": "0xd362afb113d7a2226aff228f4fb161befd3b6bd4",
      "contractAddress": null
    },
    {
      "status": "0x1",
      "cumulativeGasUsed": "0x35ef6",
      "logs": [],
      "logsBloom": "0x00000000000000000000000000000000000000000000000000000000000000000000000000000000000000000000000000000000000000000000000000000000000000000000000000000000000000000000000000000000000000000000000000000000000000000000000000000000000000000000000000000000000000000000000000000000000000000000000000000000000000000000000000000000000000000000000000000000000000000000000000000000000000000000000000000000000000000000000000000000000000000000000000000000000000000000000000000000000000000000000000000000000000000000000000000000",
      "type": "0x0",
      "transactionHash": "0x50295252fdf5af726a6bbe3454f36d8c5dcacc2dce7d6697977c92a59e04a20b",
      "transactionIndex": "0x0",
      "blockHash": "0x6f548470d2629a0c446630b4f55a5d6decbeec461c86d1886a08c06409c1081a",
      "blockNumber": "0x2e2690b",
      "gasUsed": "0x35ef6",
      "effectiveGasPrice": "0x174876e800",
      "from": "0xe62ab4d111f968660c6b2188046f9b9ba53c4bae",
      "to": "0xd362afb113d7a2226aff228f4fb161befd3b6bd4",
      "contractAddress": null
    },
    {
      "status": "0x1",
      "cumulativeGasUsed": "0x40b8c",
      "logs": [],
      "logsBloom": "0x00000000000000000000000000000000000000000000000000000000000000000000000000000000000000000000000000000000000000000000000000000000000000000000000000000000000000000000000000000000000000000000000000000000000000000000000000000000000000000000000000000000000000000000000000000000000000000000000000000000000000000000000000000000000000000000000000000000000000000000000000000000000000000000000000000000000000000000000000000000000000000000000000000000000000000000000000000000000000000000000000000000000000000000000000000000",
      "type": "0x0",
      "transactionHash": "0x6f9a4f7fd5f387755705fb9f5951fa856af9233d1db5f596398a9d16d73aca7b",
      "transactionIndex": "0x1",
      "blockHash": "0xc0ecdd34b94015f5a0d7577d554b3f07955612edb4fe178c4d36104b9bb848a1",
      "blockNumber": "0x2e2690c",
      "gasUsed": "0x360c6",
      "effectiveGasPrice": "0x174876e800",
      "from": "0xe62ab4d111f968660c6b2188046f9b9ba53c4bae",
      "to": "0xd362afb113d7a2226aff228f4fb161befd3b6bd4",
      "contractAddress": null
    }
  ],
  "libraries": [],
  "pending": [],
  "returns": {},
  "timestamp": 1739899643,
  "chain": 97,
  "commit": "be616da9"
}