{
  "transactions": [
    {
      "hash": "0x90e9227e19f977be91ec625cda81aad2131ec15695aafebc76e31db703c6b520",
      "transactionType": "CALL",
      "contractName": null,
      "contractAddress": "0x0bcb87c43e2ad859412d90892ff73d64c6dbb962",
      "function": "getFeeTokenList()",
      "arguments": [],
      "transaction": {
        "from": "0xe62ab4d111f968660c6b2188046f9b9ba53c4bae",
        "to": "0x0bcb87c43e2ad859412d90892ff73d64c6dbb962",
        "gas": "0x8a7e",
        "value": "0x0",
        "input": "0xe28ab277",
        "nonce": "0x260",
        "chainId": "0x61"
      },
      "additionalContracts": [],
      "isFixedGasLimit": false
    },
    {
      "hash": "0xd11e9f303d8128be9cfb7d7dfb06d5c53f9db9e8a27e67c6fd73a81b1ed90cd5",
      "transactionType": "CALL",
      "contractName": null,
      "contractAddress": "0x0bcb87c43e2ad859412d90892ff73d64c6dbb962",
      "function": "addFeeToken(string)",
      "arguments": [
        "0xdd43fc986a13392ddbc7aea150b41efe27b2d0ed"
      ],
      "transaction": {
        "from": "0xe62ab4d111f968660c6b2188046f9b9ba53c4bae",
        "to": "0x0bcb87c43e2ad859412d90892ff73d64c6dbb962",
        "gas": "0x26af2",
        "value": "0x0",
        "input": "0x12a6385f0000000000000000000000000000000000000000000000000000000000000020000000000000000000000000000000000000000000000000000000000000002a30786464343366633938366131333339326464626337616561313530623431656665323762326430656400000000000000000000000000000000000000000000",
        "nonce": "0x261",
        "chainId": "0x61"
      },
      "additionalContracts": [],
      "isFixedGasLimit": false
    },
    {
      "hash": "0x6ea3d2fe7af7d3acd4ef8a37c511ecd8a988edff1f4784752a78ef170cad14b7",
      "transactionType": "CALL",
      "contractName": null,
      "contractAddress": "0x0bcb87c43e2ad859412d90892ff73d64c6dbb962",
      "function": "setFeeMultiplier(uint8,uint256)",
      "arguments": [
        "0",
        "2"
      ],
      "transaction": {
        "from": "0xe62ab4d111f968660c6b2188046f9b9ba53c4bae",
        "to": "0x0bcb87c43e2ad859412d90892ff73d64c6dbb962",
        "gas": "0x112e8",
        "value": "0x0",
        "input": "0x0ee24eb500000000000000000000000000000000000000000000000000000000000000000000000000000000000000000000000000000000000000000000000000000002",
        "nonce": "0x262",
        "chainId": "0x61"
      },
      "additionalContracts": [],
      "isFixedGasLimit": false
    },
    {
      "hash": "0x80bd774525026cb9c9ff17513b2b9faee1722913912725381a27562d82b6590b",
      "transactionType": "CALL",
      "contractName": null,
      "contractAddress": "0x0bcb87c43e2ad859412d90892ff73d64c6dbb962",
      "function": "setFeeMultiplier(uint8,uint256)",
      "arguments": [
        "1",
        "10"
      ],
      "transaction": {
        "from": "0xe62ab4d111f968660c6b2188046f9b9ba53c4bae",
        "to": "0x0bcb87c43e2ad859412d90892ff73d64c6dbb962",
        "gas": "0x11324",
        "value": "0x0",
        "input": "0x0ee24eb50000000000000000000000000000000000000000000000000000000000000001000000000000000000000000000000000000000000000000000000000000000a",
        "nonce": "0x263",
        "chainId": "0x61"
      },
      "additionalContracts": [],
      "isFixedGasLimit": false
    },
    {
      "hash": "0x22b7beb540c2030d559ef0d8040ccc10783350531a6f789cd6007d2bcba7fa8c",
      "transactionType": "CALL",
      "contractName": null,
      "contractAddress": "0x0bcb87c43e2ad859412d90892ff73d64c6dbb962",
      "function": "setFeeMultiplier(uint8,uint256)",
      "arguments": [
        "2",
        "1"
      ],
      "transaction": {
        "from": "0xe62ab4d111f968660c6b2188046f9b9ba53c4bae",
        "to": "0x0bcb87c43e2ad859412d90892ff73d64c6dbb962",
        "gas": "0x11346",
        "value": "0x0",
        "input": "0x0ee24eb500000000000000000000000000000000000000000000000000000000000000020000000000000000000000000000000000000000000000000000000000000001",
        "nonce": "0x264",
        "chainId": "0x61"
      },
      "additionalContracts": [],
      "isFixedGasLimit": false
    },
    {
      "hash": "0x25f1449cbabcd71a7768962d5129e40a54d49f1e8e372f2262efd5af39baf053",
      "transactionType": "CALL",
      "contractName": null,
      "contractAddress": "0x0bcb87c43e2ad859412d90892ff73d64c6dbb962",
      "function": "setFeeMultiplier(uint8,uint256)",
      "arguments": [
        "3",
        "4"
      ],
      "transaction": {
        "from": "0xe62ab4d111f968660c6b2188046f9b9ba53c4bae",
        "to": "0x0bcb87c43e2ad859412d90892ff73d64c6dbb962",
        "gas": "0x1041b",
        "value": "0x0",
        "input": "0x0ee24eb500000000000000000000000000000000000000000000000000000000000000030000000000000000000000000000000000000000000000000000000000000004",
        "nonce": "0x265",
        "chainId": "0x61"
      },
      "additionalContracts": [],
      "isFixedGasLimit": false
    },
    {
      "hash": "0xab95dbcd63aec32e8e9b64611d9ea8e04eb4c098e0b344f0343aa446158b30f5",
      "transactionType": "CALL",
      "contractName": null,
      "contractAddress": "0x0bcb87c43e2ad859412d90892ff73d64c6dbb962",
      "function": "setFeeMultiplier(uint8,uint256)",
      "arguments": [
        "4",
        "4"
      ],
      "transaction": {
        "from": "0xe62ab4d111f968660c6b2188046f9b9ba53c4bae",
        "to": "0x0bcb87c43e2ad859412d90892ff73d64c6dbb962",
        "gas": "0x1043a",
        "value": "0x0",
        "input": "0x0ee24eb500000000000000000000000000000000000000000000000000000000000000040000000000000000000000000000000000000000000000000000000000000004",
        "nonce": "0x266",
        "chainId": "0x61"
      },
      "additionalContracts": [],
      "isFixedGasLimit": false
    },
    {
      "hash": "0x47a6aa88ba418e3eb1e2e14c19222f24b2088ce2dedf5021e8e215db6f6ffa8c",
      "transactionType": "CALL",
      "contractName": null,
      "contractAddress": "0x0bcb87c43e2ad859412d90892ff73d64c6dbb962",
      "function": "setFeeMultiplier(uint8,uint256)",
      "arguments": [
        "5",
        "4"
      ],
      "transaction": {
        "from": "0xe62ab4d111f968660c6b2188046f9b9ba53c4bae",
        "to": "0x0bcb87c43e2ad859412d90892ff73d64c6dbb962",
        "gas": "0x10459",
        "value": "0x0",
        "input": "0x0ee24eb500000000000000000000000000000000000000000000000000000000000000050000000000000000000000000000000000000000000000000000000000000004",
        "nonce": "0x267",
        "chainId": "0x61"
      },
      "additionalContracts": [],
      "isFixedGasLimit": false
    },
    {
      "hash": "0x1bc5818c2448b19ca5f152f5da4ac8a239f2a2459a94b7239a737ae9605c6dbd",
      "transactionType": "CALL",
      "contractName": null,
      "contractAddress": "0x0bcb87c43e2ad859412d90892ff73d64c6dbb962",
      "function": "setFeeMultiplier(uint8,uint256)",
      "arguments": [
        "6",
        "8"
      ],
      "transaction": {
        "from": "0xe62ab4d111f968660c6b2188046f9b9ba53c4bae",
        "to": "0x0bcb87c43e2ad859412d90892ff73d64c6dbb962",
        "gas": "0x1047a",
        "value": "0x0",
        "input": "0x0ee24eb500000000000000000000000000000000000000000000000000000000000000060000000000000000000000000000000000000000000000000000000000000008",
        "nonce": "0x268",
        "chainId": "0x61"
      },
      "additionalContracts": [],
      "isFixedGasLimit": false
    },
    {
      "hash": "0x5dc0e572b736697b2df6c7f3f122e42a7bc147de95fde4124a15da89b4be2346",
      "transactionType": "CALL",
      "contractName": null,
      "contractAddress": "0x0bcb87c43e2ad859412d90892ff73d64c6dbb962",
      "function": "setFeeMultiplier(uint8,uint256)",
      "arguments": [
        "7",
        "4"
      ],
      "transaction": {
        "from": "0xe62ab4d111f968660c6b2188046f9b9ba53c4bae",
        "to": "0x0bcb87c43e2ad859412d90892ff73d64c6dbb962",
        "gas": "0x10499",
        "value": "0x0",
        "input": "0x0ee24eb500000000000000000000000000000000000000000000000000000000000000070000000000000000000000000000000000000000000000000000000000000004",
        "nonce": "0x269",
        "chainId": "0x61"
      },
      "additionalContracts": [],
      "isFixedGasLimit": false
    },
    {
      "hash": "0xc6a08d304d05e3f5b618c50431d40573d43411b2990c7f34e85fc82cbe564df2",
      "transactionType": "CALL",
      "contractName": null,
      "contractAddress": "0x0bcb87c43e2ad859412d90892ff73d64c6dbb962",
      "function": "setFeeMultiplier(uint8,uint256)",
      "arguments": [
        "8",
        "10"
      ],
      "transaction": {
        "from": "0xe62ab4d111f968660c6b2188046f9b9ba53c4bae",
        "to": "0x0bcb87c43e2ad859412d90892ff73d64c6dbb962",
        "gas": "0x1140f",
        "value": "0x0",
        "input": "0x0ee24eb50000000000000000000000000000000000000000000000000000000000000008000000000000000000000000000000000000000000000000000000000000000a",
        "nonce": "0x26a",
        "chainId": "0x61"
      },
      "additionalContracts": [],
      "isFixedGasLimit": false
    },
    {
      "hash": "0x89885e6689f51dcf2d6132712bc92a2af3890cc5233b73e1200afc082ec85a54",
      "transactionType": "CALL",
      "contractName": null,
      "contractAddress": "0x0bcb87c43e2ad859412d90892ff73d64c6dbb962",
      "function": "setFeeMultiplier(uint8,uint256)",
      "arguments": [
        "9",
        "8"
      ],
      "transaction": {
        "from": "0xe62ab4d111f968660c6b2188046f9b9ba53c4bae",
        "to": "0x0bcb87c43e2ad859412d90892ff73d64c6dbb962",
        "gas": "0x11431",
        "value": "0x0",
        "input": "0x0ee24eb500000000000000000000000000000000000000000000000000000000000000090000000000000000000000000000000000000000000000000000000000000008",
        "nonce": "0x26b",
        "chainId": "0x61"
      },
      "additionalContracts": [],
      "isFixedGasLimit": false
    },
    {
      "hash": "0x3e5dd54cef40657109a3a1b878be11efed8251a9a77c21a092affa2b21fa84af",
      "transactionType": "CALL",
      "contractName": null,
      "contractAddress": "0x0bcb87c43e2ad859412d90892ff73d64c6dbb962",
      "function": "setFeeMultiplier(uint8,uint256)",
      "arguments": [
        "10",
        "8"
      ],
      "transaction": {
        "from": "0xe62ab4d111f968660c6b2188046f9b9ba53c4bae",
        "to": "0x0bcb87c43e2ad859412d90892ff73d64c6dbb962",
        "gas": "0x11453",
        "value": "0x0",
        "input": "0x0ee24eb5000000000000000000000000000000000000000000000000000000000000000a0000000000000000000000000000000000000000000000000000000000000008",
        "nonce": "0x26c",
        "chainId": "0x61"
      },
      "additionalContracts": [],
      "isFixedGasLimit": false
    },
    {
      "hash": "0xab510b1bac6842f0e97f5f5b9f4d424a865e5c3ce843258acfdfa0b76bd7045a",
      "transactionType": "CALL",
      "contractName": null,
      "contractAddress": "0x0bcb87c43e2ad859412d90892ff73d64c6dbb962",
      "function": "setFeeMultiplier(uint8,uint256)",
      "arguments": [
        "11",
        "8"
      ],
      "transaction": {
        "from": "0xe62ab4d111f968660c6b2188046f9b9ba53c4bae",
        "to": "0x0bcb87c43e2ad859412d90892ff73d64c6dbb962",
        "gas": "0x10518",
        "value": "0x0",
        "input": "0x0ee24eb5000000000000000000000000000000000000000000000000000000000000000b0000000000000000000000000000000000000000000000000000000000000008",
        "nonce": "0x26d",
        "chainId": "0x61"
      },
      "additionalContracts": [],
      "isFixedGasLimit": false
    },
    {
      "hash": "0x55d3696071c73727549a052cc9b35382fea87508f1c3fb0c50ea688822f73487",
      "transactionType": "CALL",
      "contractName": null,
      "contractAddress": "0x0bcb87c43e2ad859412d90892ff73d64c6dbb962",
      "function": "setFeeMultiplier(uint8,uint256)",
      "arguments": [
        "12",
        "20"
      ],
      "transaction": {
        "from": "0xe62ab4d111f968660c6b2188046f9b9ba53c4bae",
        "to": "0x0bcb87c43e2ad859412d90892ff73d64c6dbb962",
        "gas": "0x10538",
        "value": "0x0",
        "input": "0x0ee24eb5000000000000000000000000000000000000000000000000000000000000000c0000000000000000000000000000000000000000000000000000000000000014",
        "nonce": "0x26e",
        "chainId": "0x61"
      },
      "additionalContracts": [],
      "isFixedGasLimit": false
    },
    {
      "hash": "0xdc048ee9cea99640cb2571251aff2eeed2d00db1353e383562b720131972b7d6",
      "transactionType": "CALL",
      "contractName": null,
      "contractAddress": "0x0bcb87c43e2ad859412d90892ff73d64c6dbb962",
      "function": "setFeeMultiplier(uint8,uint256)",
      "arguments": [
        "13",
        "8"
      ],
      "transaction": {
        "from": "0xe62ab4d111f968660c6b2188046f9b9ba53c4bae",
        "to": "0x0bcb87c43e2ad859412d90892ff73d64c6dbb962",
        "gas": "0x10558",
        "value": "0x0",
        "input": "0x0ee24eb5000000000000000000000000000000000000000000000000000000000000000d0000000000000000000000000000000000000000000000000000000000000008",
        "nonce": "0x26f",
        "chainId": "0x61"
      },
      "additionalContracts": [],
      "isFixedGasLimit": false
    },
    {
      "hash": "0x20f1f0b11e2c545754e758b20b397d92f4033d65b738751d3c132fa128d04e63",
      "transactionType": "CALL",
      "contractName": null,
      "contractAddress": "0x0bcb87c43e2ad859412d90892ff73d64c6dbb962",
      "function": "setFeeMultiplier(uint8,uint256)",
      "arguments": [
        "14",
        "4"
      ],
      "transaction": {
        "from": "0xe62ab4d111f968660c6b2188046f9b9ba53c4bae",
        "to": "0x0bcb87c43e2ad859412d90892ff73d64c6dbb962",
        "gas": "0x10577",
        "value": "0x0",
        "input": "0x0ee24eb5000000000000000000000000000000000000000000000000000000000000000e0000000000000000000000000000000000000000000000000000000000000004",
        "nonce": "0x270",
        "chainId": "0x61"
      },
      "additionalContracts": [],
      "isFixedGasLimit": false
    },
    {
      "hash": "0x9ec144f748b03fa3ff0827cee34d05e4a024b1fff4c61e69eec8e4eac704125a",
      "transactionType": "CALL",
      "contractName": null,
      "contractAddress": "0x0bcb87c43e2ad859412d90892ff73d64c6dbb962",
      "function": "setFeeMultiplier(uint8,uint256)",
      "arguments": [
        "15",
        "4"
      ],
      "transaction": {
        "from": "0xe62ab4d111f968660c6b2188046f9b9ba53c4bae",
        "to": "0x0bcb87c43e2ad859412d90892ff73d64c6dbb962",
        "gas": "0x10598",
        "value": "0x0",
        "input": "0x0ee24eb5000000000000000000000000000000000000000000000000000000000000000f0000000000000000000000000000000000000000000000000000000000000004",
        "nonce": "0x271",
        "chainId": "0x61"
      },
      "additionalContracts": [],
      "isFixedGasLimit": false
    },
    {
      "hash": "0xd30d3223c21cb1f0c7c431e2c93983290cda5821c10747bc92831379847d3cfe",
      "transactionType": "CALL",
      "contractName": null,
      "contractAddress": "0x0bcb87c43e2ad859412d90892ff73d64c6dbb962",
      "function": "setFeeMultiplier(uint8,uint256)",
      "arguments": [
        "16",
        "4"
      ],
      "transaction": {
        "from": "0xe62ab4d111f968660c6b2188046f9b9ba53c4bae",
        "to": "0x0bcb87c43e2ad859412d90892ff73d64c6dbb962",
        "gas": "0x1151d",
        "value": "0x0",
        "input": "0x0ee24eb500000000000000000000000000000000000000000000000000000000000000100000000000000000000000000000000000000000000000000000000000000004",
        "nonce": "0x272",
        "chainId": "0x61"
      },
      "additionalContracts": [],
      "isFixedGasLimit": false
    },
    {
      "hash": "0x908b744cdc29d217496542da49f0eb84b4ab7f8b1b43b797204589961ed6b0b2",
      "transactionType": "CALL",
      "contractName": null,
      "contractAddress": "0x0bcb87c43e2ad859412d90892ff73d64c6dbb962",
      "function": "setFeeMultiplier(uint8,uint256)",
      "arguments": [
        "17",
        "4"
      ],
      "transaction": {
        "from": "0xe62ab4d111f968660c6b2188046f9b9ba53c4bae",
        "to": "0x0bcb87c43e2ad859412d90892ff73d64c6dbb962",
        "gas": "0x1153e",
        "value": "0x0",
        "input": "0x0ee24eb500000000000000000000000000000000000000000000000000000000000000110000000000000000000000000000000000000000000000000000000000000004",
        "nonce": "0x273",
        "chainId": "0x61"
      },
      "additionalContracts": [],
      "isFixedGasLimit": false
    },
    {
      "hash": "0x7b03f5610e962be55cd357a6a7d32a7314aa97eee8b3500765af638aad5dd398",
      "transactionType": "CALL",
      "contractName": null,
      "contractAddress": "0x0bcb87c43e2ad859412d90892ff73d64c6dbb962",
      "function": "setFeeMultiplier(uint8,uint256)",
      "arguments": [
        "18",
        "2"
      ],
      "transaction": {
        "from": "0xe62ab4d111f968660c6b2188046f9b9ba53c4bae",
        "to": "0x0bcb87c43e2ad859412d90892ff73d64c6dbb962",
        "gas": "0x11560",
        "value": "0x0",
        "input": "0x0ee24eb500000000000000000000000000000000000000000000000000000000000000120000000000000000000000000000000000000000000000000000000000000002",
        "nonce": "0x274",
        "chainId": "0x61"
      },
      "additionalContracts": [],
      "isFixedGasLimit": false
    },
    {
      "hash": "0xe5989c99f24f4193014cee54ab5387709e8a161eabbfb877abcf1e70096d0ace",
      "transactionType": "CALL",
      "contractName": null,
      "contractAddress": "0x0bcb87c43e2ad859412d90892ff73d64c6dbb962",
      "function": "setFeeMultiplier(uint8,uint256)",
      "arguments": [
        "19",
        "2"
      ],
      "transaction": {
        "from": "0xe62ab4d111f968660c6b2188046f9b9ba53c4bae",
        "to": "0x0bcb87c43e2ad859412d90892ff73d64c6dbb962",
        "gas": "0x1157a",
        "value": "0x0",
        "input": "0x0ee24eb500000000000000000000000000000000000000000000000000000000000000130000000000000000000000000000000000000000000000000000000000000002",
        "nonce": "0x275",
        "chainId": "0x61"
      },
      "additionalContracts": [],
      "isFixedGasLimit": false
    },
    {
      "hash": "0x4e6725b812d2d4557aa20b05fbe7eb9280e666d20f9b0115b261a8b69f98d96a",
      "transactionType": "CALL",
      "contractName": null,
      "contractAddress": "0x0bcb87c43e2ad859412d90892ff73d64c6dbb962",
      "function": "addFeeToken(string,string[],uint256[])",
      "arguments": [
        "421614",
        "[0xdd43fc986a13392ddbc7aea150b41efe27b2d0ed]",
        "[100]"
      ],
      "transaction": {
        "from": "0xe62ab4d111f968660c6b2188046f9b9ba53c4bae",
        "to": "0x0bcb87c43e2ad859412d90892ff73d64c6dbb962",
        "gas": "0x3259e",
        "value": "0x0",
        "input": "0x437bf84f000000000000000000000000000000000000000000000000000000000000006000000000000000000000000000000000000000000000000000000000000000a000000000000000000000000000000000000000000000000000000000000001400000000000000000000000000000000000000000000000000000000000000006343231363134000000000000000000000000000000000000000000000000000000000000000000000000000000000000000000000000000000000000000000010000000000000000000000000000000000000000000000000000000000000020000000000000000000000000000000000000000000000000000000000000002a3078646434336663393836613133333932646462633761656131353062343165666532376232643065640000000000000000000000000000000000000000000000000000000000000000000000000000000000000000000000000000000000010000000000000000000000000000000000000000000000000000000000000064",
        "nonce": "0x276",
        "chainId": "0x61"
      },
      "additionalContracts": [],
      "isFixedGasLimit": false
    },
    {
      "hash": "0xf8b5ccba86b7c20435f94629be6b36bec9f27c148ef7d8b179335186d4b47f8e",
      "transactionType": "CALL",
      "contractName": null,
      "contractAddress": "0x0bcb87c43e2ad859412d90892ff73d64c6dbb962",
      "function": "addFeeToken(string,string[],uint256[])",
      "arguments": [
        "80002",
        "[0xdd43fc986a13392ddbc7aea150b41efe27b2d0ed]",
        "[100]"
      ],
      "transaction": {
        "from": "0xe62ab4d111f968660c6b2188046f9b9ba53c4bae",
        "to": "0x0bcb87c43e2ad859412d90892ff73d64c6dbb962",
        "gas": "0x2cd23",
        "value": "0x0",
        "input": "0x437bf84f000000000000000000000000000000000000000000000000000000000000006000000000000000000000000000000000000000000000000000000000000000a000000000000000000000000000000000000000000000000000000000000001400000000000000000000000000000000000000000000000000000000000000005383030303200000000000000000000000000000000000000000000000000000000000000000000000000000000000000000000000000000000000000000000010000000000000000000000000000000000000000000000000000000000000020000000000000000000000000000000000000000000000000000000000000002a3078646434336663393836613133333932646462633761656131353062343165666532376232643065640000000000000000000000000000000000000000000000000000000000000000000000000000000000000000000000000000000000010000000000000000000000000000000000000000000000000000000000000064",
        "nonce": "0x277",
        "chainId": "0x61"
      },
      "additionalContracts": [],
      "isFixedGasLimit": false
    },
    {
      "hash": "0x28a55f73fc55b649ebd1f9370b257d07e8caa0d82e6c66adc377fcb01594f4c5",
      "transactionType": "CALL",
      "contractName": null,
      "contractAddress": "0x0bcb87c43e2ad859412d90892ff73d64c6dbb962",
      "function": "addFeeToken(string,string[],uint256[])",
      "arguments": [
        "84532",
        "[0xdd43fc986a13392ddbc7aea150b41efe27b2d0ed]",
        "[100]"
      ],
      "transaction": {
        "from": "0xe62ab4d111f968660c6b2188046f9b9ba53c4bae",
        "to": "0x0bcb87c43e2ad859412d90892ff73d64c6dbb962",
        "gas": "0x2cd23",
        "value": "0x0",
        "input": "0x437bf84f000000000000000000000000000000000000000000000000000000000000006000000000000000000000000000000000000000000000000000000000000000a000000000000000000000000000000000000000000000000000000000000001400000000000000000000000000000000000000000000000000000000000000005383435333200000000000000000000000000000000000000000000000000000000000000000000000000000000000000000000000000000000000000000000010000000000000000000000000000000000000000000000000000000000000020000000000000000000000000000000000000000000000000000000000000002a3078646434336663393836613133333932646462633761656131353062343165666532376232643065640000000000000000000000000000000000000000000000000000000000000000000000000000000000000000000000000000000000010000000000000000000000000000000000000000000000000000000000000064",
        "nonce": "0x278",
        "chainId": "0x61"
      },
      "additionalContracts": [],
      "isFixedGasLimit": false
    },
    {
      "hash": "0x756bbdad775207b24ec6559a6ed91c265201f7f0da9754fec221785efaef5325",
      "transactionType": "CALL",
      "contractName": null,
      "contractAddress": "0x0bcb87c43e2ad859412d90892ff73d64c6dbb962",
      "function": "addFeeToken(string,string[],uint256[])",
      "arguments": [
        "97",
        "[0xdd43fc986a13392ddbc7aea150b41efe27b2d0ed]",
        "[100]"
      ],
      "transaction": {
        "from": "0xe62ab4d111f968660c6b2188046f9b9ba53c4bae",
        "to": "0x0bcb87c43e2ad859412d90892ff73d64c6dbb962",
        "gas": "0x29f03",
        "value": "0x0",
        "input": "0x437bf84f000000000000000000000000000000000000000000000000000000000000006000000000000000000000000000000000000000000000000000000000000000a000000000000000000000000000000000000000000000000000000000000001400000000000000000000000000000000000000000000000000000000000000002393700000000000000000000000000000000000000000000000000000000000000000000000000000000000000000000000000000000000000000000000000010000000000000000000000000000000000000000000000000000000000000020000000000000000000000000000000000000000000000000000000000000002a3078646434336663393836613133333932646462633761656131353062343165666532376232643065640000000000000000000000000000000000000000000000000000000000000000000000000000000000000000000000000000000000010000000000000000000000000000000000000000000000000000000000000064",
        "nonce": "0x279",
        "chainId": "0x61"
      },
      "additionalContracts": [],
      "isFixedGasLimit": false
    },
    {
      "hash": "0xa53d56a0b1a042b12fb947f556c3215bd72aa08d7edb8ff0ded496a18ce1a07d",
      "transactionType": "CALL",
      "contractName": null,
      "contractAddress": "0x0bcb87c43e2ad859412d90892ff73d64c6dbb962",
      "function": "addFeeToken(string,string[],uint256[])",
      "arguments": [
        "11155111",
        "[0xdd43fc986a13392ddbc7aea150b41efe27b2d0ed]",
        "[100]"
      ],
      "transaction": {
        "from": "0xe62ab4d111f968660c6b2188046f9b9ba53c4bae",
        "to": "0x0bcb87c43e2ad859412d90892ff73d64c6dbb962",
        "gas": "0x2ab93",
        "value": "0x0",
        "input": "0x437bf84f000000000000000000000000000000000000000000000000000000000000006000000000000000000000000000000000000000000000000000000000000000a000000000000000000000000000000000000000000000000000000000000001400000000000000000000000000000000000000000000000000000000000000008313131353531313100000000000000000000000000000000000000000000000000000000000000000000000000000000000000000000000000000000000000010000000000000000000000000000000000000000000000000000000000000020000000000000000000000000000000000000000000000000000000000000002a3078646434336663393836613133333932646462633761656131353062343165666532376232643065640000000000000000000000000000000000000000000000000000000000000000000000000000000000000000000000000000000000010000000000000000000000000000000000000000000000000000000000000064",
        "nonce": "0x27a",
        "chainId": "0x61"
      },
      "additionalContracts": [],
      "isFixedGasLimit": false
    },
    {
      "hash": "0x4ebcd8812f759a0108c2a2b566f3224b0ebc9c5191b186bfd2532854e8414efa",
      "transactionType": "CALL",
      "contractName": null,
      "contractAddress": "0x9b191600588b59e314d2927204c8edc57603d672",
      "function": "addChainContract(string[],string[])",
      "arguments": [
        "[421614, 80002, 84532, 11155111]",
        "[0xd990ef52a6a375b19375b07cfc2aad2b592e66be, 0x73a3ecd2fad26975d16b31e482eaf0f5152d420e, 0x497d31415cc6d20113d2f96c90c706b98701c1c9, 0x3cb56e6e5917a2a8924bc2a5c1f0ecc90b585e74]"
      ],
      "transaction": {
        "from": "0xe62ab4d111f968660c6b2188046f9b9ba53c4bae",
        "to": "0x9b191600588b59e314d2927204c8edc57603d672",
        "gas": "0xaac25",
        "value": "0x0",
        "input": "0x013fd3bd000000000000000000000000000000000000000000000000000000000000004000000000000000000000000000000000000000000000000000000000000001e00000000000000000000000000000000000000000000000000000000000000004000000000000000000000000000000000000000000000000000000000000008000000000000000000000000000000000000000000000000000000000000000c000000000000000000000000000000000000000000000000000000000000001000000000000000000000000000000000000000000000000000000000000000140000000000000000000000000000000000000000000000000000000000000000634323136313400000000000000000000000000000000000000000000000000000000000000000000000000000000000000000000000000000000000000000005383030303200000000000000000000000000000000000000000000000000000000000000000000000000000000000000000000000000000000000000000000053834353332000000000000000000000000000000000000000000000000000000000000000000000000000000000000000000000000000000000000000000000831313135353131310000000000000000000000000000000000000000000000000000000000000000000000000000000000000000000000000000000000000004000000000000000000000000000000000000000000000000000000000000008000000000000000000000000000000000000000000000000000000000000000e0000000000000000000000000000000000000000000000000000000000000014000000000000000000000000000000000000000000000000000000000000001a0000000000000000000000000000000000000000000000000000000000000002a30786439393065663532613661333735623139333735623037636663326161643262353932653636626500000000000000000000000000000000000000000000000000000000000000000000000000000000000000000000000000000000002a30783733613365636432666164323639373564313662333165343832656166306635313532643432306500000000000000000000000000000000000000000000000000000000000000000000000000000000000000000000000000000000002a30783439376433313431356363366432303131336432663936633930633730366239383730316331633900000000000000000000000000000000000000000000000000000000000000000000000000000000000000000000000000000000002a30783363623536653665353931376132613839323462633261356331663065636339306235383565373400000000000000000000000000000000000000000000",
        "nonce": "0x27b",
        "chainId": "0x61"
      },
      "additionalContracts": [],
      "isFixedGasLimit": false
    },
    {
      "hash": "0x463615f200fa96677f2b41df62d5c9dc5f625ae3bd7826e12b546e8290711097",
      "transactionType": "CALL",
      "contractName": null,
      "contractAddress": "0x9b191600588b59e314d2927204c8edc57603d672",
      "function": "attachRWAX(uint256,uint256,string[],string[])",
      "arguments": [
        "1",
        "1",
        "[97, 421614, 80002, 84532, 11155111]",
        "[0x730e8b2d89ba0d3403bb3d8c9929a9f0da61e051, 0x8bde23e16f4f9b19b3e11edcb65168e7f2720006, 0x4da174a7024b242fb979d120ee63f1bf6aba3e07, 0xbe87477fd18fbebd8cccdd003f6f66ffc4d49cd1, 0x1f652e2d8a9fca346a0f45d59a67fb998999e454]"
      ],
      "transaction": {
        "from": "0xe62ab4d111f968660c6b2188046f9b9ba53c4bae",
        "to": "0x9b191600588b59e314d2927204c8edc57603d672",
        "gas": "0x1152fe",
        "value": "0x0",
        "input": "0x33a5f5b40000000000000000000000000000000000000000000000000000000000000001000000000000000000000000000000000000000000000000000000000000000100000000000000000000000000000000000000000000000000000000000000800000000000000000000000000000000000000000000000000000000000000280000000000000000000000000000000000000000000000000000000000000000500000000000000000000000000000000000000000000000000000000000000a000000000000000000000000000000000000000000000000000000000000000e00000000000000000000000000000000000000000000000000000000000000120000000000000000000000000000000000000000000000000000000000000016000000000000000000000000000000000000000000000000000000000000001a00000000000000000000000000000000000000000000000000000000000000002393700000000000000000000000000000000000000000000000000000000000000000000000000000000000000000000000000000000000000000000000000063432313631340000000000000000000000000000000000000000000000000000000000000000000000000000000000000000000000000000000000000000000538303030320000000000000000000000000000000000000000000000000000000000000000000000000000000000000000000000000000000000000000000005383435333200000000000000000000000000000000000000000000000000000000000000000000000000000000000000000000000000000000000000000000083131313535313131000000000000000000000000000000000000000000000000000000000000000000000000000000000000000000000000000000000000000500000000000000000000000000000000000000000000000000000000000000a00000000000000000000000000000000000000000000000000000000000000100000000000000000000000000000000000000000000000000000000000000016000000000000000000000000000000000000000000000000000000000000001c00000000000000000000000000000000000000000000000000000000000000220000000000000000000000000000000000000000000000000000000000000002a30783733306538623264383962613064333430336262336438633939323961396630646136316530353100000000000000000000000000000000000000000000000000000000000000000000000000000000000000000000000000000000002a30783862646532336531366634663962313962336531316564636236353136386537663237323030303600000000000000000000000000000000000000000000000000000000000000000000000000000000000000000000000000000000002a30783464613137346137303234623234326662393739643132306565363366316266366162613365303700000000000000000000000000000000000000000000000000000000000000000000000000000000000000000000000000000000002a30786265383734373766643138666265626438636363646430303366366636366666633464343963643100000000000000000000000000000000000000000000000000000000000000000000000000000000000000000000000000000000002a30783166363532653264386139666361333436613066343564353961363766623939383939396534353400000000000000000000000000000000000000000000",
        "nonce": "0x27c",
        "chainId": "0x61"
      },
      "additionalContracts": [],
      "isFixedGasLimit": false
    },
    {
      "hash": "0x664b4e4c443afdee6898782705d9b2554f819a25c25792564bb1f0238d776f20",
      "transactionType": "CALL",
      "contractName": null,
      "contractAddress": "0x9b191600588b59e314d2927204c8edc57603d672",
      "function": "attachStorageManager(uint256,uint256,string[],string[])",
      "arguments": [
        "1",
        "1",
        "[97, 421614, 80002, 84532, 11155111]",
        "[0xc653cd79f70165005319ef97ad1229ac7f88a25d, 0xf4e9dc949ca6eb2bbafa1e887017e91e523c1bc8, 0xb07c3788549cd48ad1d4cb9b7336f7c9dd53d67f, 0x2c4be93acd346ca06363b37a06beb9d693d02dac, 0xa33cfd901896c775c5a6d62e94081b4fdd1b09bc]"
      ],
      "transaction": {
        "from": "0xe62ab4d111f968660c6b2188046f9b9ba53c4bae",
        "to": "0x9b191600588b59e314d2927204c8edc57603d672",
        "gas": "0xe4201",
        "value": "0x0",
        "input": "0x2f68b4890000000000000000000000000000000000000000000000000000000000000001000000000000000000000000000000000000000000000000000000000000000100000000000000000000000000000000000000000000000000000000000000800000000000000000000000000000000000000000000000000000000000000280000000000000000000000000000000000000000000000000000000000000000500000000000000000000000000000000000000000000000000000000000000a000000000000000000000000000000000000000000000000000000000000000e00000000000000000000000000000000000000000000000000000000000000120000000000000000000000000000000000000000000000000000000000000016000000000000000000000000000000000000000000000000000000000000001a00000000000000000000000000000000000000000000000000000000000000002393700000000000000000000000000000000000000000000000000000000000000000000000000000000000000000000000000000000000000000000000000063432313631340000000000000000000000000000000000000000000000000000000000000000000000000000000000000000000000000000000000000000000538303030320000000000000000000000000000000000000000000000000000000000000000000000000000000000000000000000000000000000000000000005383435333200000000000000000000000000000000000000000000000000000000000000000000000000000000000000000000000000000000000000000000083131313535313131000000000000000000000000000000000000000000000000000000000000000000000000000000000000000000000000000000000000000500000000000000000000000000000000000000000000000000000000000000a00000000000000000000000000000000000000000000000000000000000000100000000000000000000000000000000000000000000000000000000000000016000000000000000000000000000000000000000000000000000000000000001c00000000000000000000000000000000000000000000000000000000000000220000000000000000000000000000000000000000000000000000000000000002a30786336353363643739663730313635303035333139656639376164313232396163376638386132356400000000000000000000000000000000000000000000000000000000000000000000000000000000000000000000000000000000002a30786634653964633934396361366562326262616661316538383730313765393165353233633162633800000000000000000000000000000000000000000000000000000000000000000000000000000000000000000000000000000000002a30786230376333373838353439636434386164316434636239623733333666376339646435336436376600000000000000000000000000000000000000000000000000000000000000000000000000000000000000000000000000000000002a30783263346265393361636433343663613036333633623337613036626562396436393364303264616300000000000000000000000000000000000000000000000000000000000000000000000000000000000000000000000000000000002a30786133336366643930313839366337373563356136643632653934303831623466646431623039626300000000000000000000000000000000000000000000",
        "nonce": "0x27d",
        "chainId": "0x61"
      },
      "additionalContracts": [],
      "isFixedGasLimit": false
    }
  ],
  "receipts": [
    {
      "status": "0x1",
      "cumulativeGasUsed": "0xe50a",
      "logs": [],
      "logsBloom": "0x00000000000000000000000000000000000000000000000000000000000000000000000000000000000000000000000000000000000000000000000000000000000000000000000000000000000000000000000000000000000000000000000000000000000000000000000000000000000000000000000000000000000000000000000000000000000000000000000000000000000000000000000000000000000000000000000000000000000000000000000000000000000000000000000000000000000000000000000000000000000000000000000000000000000000000000000000000000000000000000000000000000000000000000000000000000",
      "type": "0x0",
      "transactionHash": "0x90e9227e19f977be91ec625cda81aad2131ec15695aafebc76e31db703c6b520",
      "transactionIndex": "0x1",
      "blockHash": "0xe2d19c439bebce4a7d03d87526dde69096732255fe06f39e1dd890ef344e1f69",
      "blockNumber": "0x2be15d8",
      "gasUsed": "0x5eb3",
      "effectiveGasPrice": "0xa3e9ab800",
      "from": "0xe62ab4d111f968660c6b2188046f9b9ba53c4bae",
      "to": "0x0bcb87c43e2ad859412d90892ff73d64c6dbb962",
      "contractAddress": null
    },
    {
      "status": "0x1",
      "cumulativeGasUsed": "0x1c01c",
      "logs": [
        {
          "address": "0x0bcb87c43e2ad859412d90892ff73d64c6dbb962",
          "topics": [
            "0x1394cfab38f3fc78ed77ea6f9318782a446d96e7dc8e9a6b0149f6be25c08bcf",
            "0x000000000000000000000000dd43fc986a13392ddbc7aea150b41efe27b2d0ed"
          ],
          "data": "0x",
          "blockHash": "0x3c403a10bfbd7e70ba52e90531f178f14ada335c52599827da1e1c6f63357977",
          "blockNumber": "0x2be15da",
          "transactionHash": "0xd11e9f303d8128be9cfb7d7dfb06d5c53f9db9e8a27e67c6fd73a81b1ed90cd5",
          "transactionIndex": "0x0",
          "logIndex": "0x0",
          "removed": false
        }
      ],
      "logsBloom": "0x00000000000000000000000000000000000000000000000000000000000000000000000000000000000000000000000000000000000000000002000000000000000000004000000400000000000000000000001000000000000000000000000000000000000000000000000000000000000000000000000000000000000000002000000100000000000000000000000000000000000000000000000000000000000000000000000000000000000000000000000100000000000000000000000000000000000000000000000000000000000000000000000000000000000000400000000000010000000000000000000000000000000000000000000000000000",
      "type": "0x0",
      "transactionHash": "0xd11e9f303d8128be9cfb7d7dfb06d5c53f9db9e8a27e67c6fd73a81b1ed90cd5",
      "transactionIndex": "0x0",
      "blockHash": "0x3c403a10bfbd7e70ba52e90531f178f14ada335c52599827da1e1c6f63357977",
      "blockNumber": "0x2be15da",
      "gasUsed": "0x1c01c",
      "effectiveGasPrice": "0xa3e9ab800",
      "from": "0xe62ab4d111f968660c6b2188046f9b9ba53c4bae",
      "to": "0x0bcb87c43e2ad859412d90892ff73d64c6dbb962",
      "contractAddress": null
    },
    {
      "status": "0x1",
      "cumulativeGasUsed": "0x2fa31",
      "logs": [],
      "logsBloom": "0x00000000000000000000000000000000000000000000000000000000000000000000000000000000000000000000000000000000000000000000000000000000000000000000000000000000000000000000000000000000000000000000000000000000000000000000000000000000000000000000000000000000000000000000000000000000000000000000000000000000000000000000000000000000000000000000000000000000000000000000000000000000000000000000000000000000000000000000000000000000000000000000000000000000000000000000000000000000000000000000000000000000000000000000000000000000",
      "type": "0x0",
      "transactionHash": "0x6ea3d2fe7af7d3acd4ef8a37c511ecd8a988edff1f4784752a78ef170cad14b7",
      "transactionIndex": "0x7",
      "blockHash": "0xe894cdad4141bbbf491ba45fafffa93f1d7be39cbe5a36ba479fdff798ec2558",
      "blockNumber": "0x2be15dd",
      "gasUsed": "0xbbf9",
      "effectiveGasPrice": "0xa3e9ab800",
      "from": "0xe62ab4d111f968660c6b2188046f9b9ba53c4bae",
      "to": "0x0bcb87c43e2ad859412d90892ff73d64c6dbb962",
      "contractAddress": null
    },
    {
      "status": "0x1",
      "cumulativeGasUsed": "0x58a9a",
      "logs": [],
      "logsBloom": "0x00000000000000000000000000000000000000000000000000000000000000000000000000000000000000000000000000000000000000000000000000000000000000000000000000000000000000000000000000000000000000000000000000000000000000000000000000000000000000000000000000000000000000000000000000000000000000000000000000000000000000000000000000000000000000000000000000000000000000000000000000000000000000000000000000000000000000000000000000000000000000000000000000000000000000000000000000000000000000000000000000000000000000000000000000000000",
      "type": "0x0",
      "transactionHash": "0x80bd774525026cb9c9ff17513b2b9faee1722913912725381a27562d82b6590b",
      "transactionIndex": "0xf",
      "blockHash": "0x26ab78456eed345e270af4f3ff60dd0f5384cb00581479361a7e0c06b3fe3d54",
      "blockNumber": "0x2be15df",
      "gasUsed": "0xbc22",
      "effectiveGasPrice": "0xa3e9ab800",
      "from": "0xe62ab4d111f968660c6b2188046f9b9ba53c4bae",
      "to": "0x0bcb87c43e2ad859412d90892ff73d64c6dbb962",
      "contractAddress": null
    },
    {
      "status": "0x1",
      "cumulativeGasUsed": "0x311a8",
      "logs": [],
      "logsBloom": "0x00000000000000000000000000000000000000000000000000000000000000000000000000000000000000000000000000000000000000000000000000000000000000000000000000000000000000000000000000000000000000000000000000000000000000000000000000000000000000000000000000000000000000000000000000000000000000000000000000000000000000000000000000000000000000000000000000000000000000000000000000000000000000000000000000000000000000000000000000000000000000000000000000000000000000000000000000000000000000000000000000000000000000000000000000000000",
      "type": "0x0",
      "transactionHash": "0x22b7beb540c2030d559ef0d8040ccc10783350531a6f789cd6007d2bcba7fa8c",
      "transactionIndex": "0x3",
      "blockHash": "0x20a69b5a06639e77c57c2083772ee5bf5a6db852c11ede3a1272bc7494bf18ac",
      "blockNumber": "0x2be15e2",
      "gasUsed": "0xbc39",
      "effectiveGasPrice": "0xa3e9ab800",
      "from": "0xe62ab4d111f968660c6b2188046f9b9ba53c4bae",
      "to": "0x0bcb87c43e2ad859412d90892ff73d64c6dbb962",
      "contractAddress": null
    },
    {
      "status": "0x1",
      "cumulativeGasUsed": "0x2a880",
      "logs": [],
      "logsBloom": "0x00000000000000000000000000000000000000000000000000000000000000000000000000000000000000000000000000000000000000000000000000000000000000000000000000000000000000000000000000000000000000000000000000000000000000000000000000000000000000000000000000000000000000000000000000000000000000000000000000000000000000000000000000000000000000000000000000000000000000000000000000000000000000000000000000000000000000000000000000000000000000000000000000000000000000000000000000000000000000000000000000000000000000000000000000000000",
      "type": "0x0",
      "transactionHash": "0x25f1449cbabcd71a7768962d5129e40a54d49f1e8e372f2262efd5af39baf053",
      "transactionIndex": "0x6",
      "blockHash": "0x0ee64712fc6f82f0484fcb18f58e496ccfd4fbb596575918f7b72c887fe857af",
      "blockNumber": "0x2be15e4",
      "gasUsed": "0xbc50",
      "effectiveGasPrice": "0xa3e9ab800",
      "from": "0xe62ab4d111f968660c6b2188046f9b9ba53c4bae",
      "to": "0x0bcb87c43e2ad859412d90892ff73d64c6dbb962",
      "contractAddress": null
    },
    {
      "status": "0x1",
      "cumulativeGasUsed": "0x4e6cf",
      "logs": [],
      "logsBloom": "0x00000000000000000000000000000000000000000000000000000000000000000000000000000000000000000000000000000000000000000000000000000000000000000000000000000000000000000000000000000000000000000000000000000000000000000000000000000000000000000000000000000000000000000000000000000000000000000000000000000000000000000000000000000000000000000000000000000000000000000000000000000000000000000000000000000000000000000000000000000000000000000000000000000000000000000000000000000000000000000000000000000000000000000000000000000000",
      "type": "0x0",
      "transactionHash": "0xab95dbcd63aec32e8e9b64611d9ea8e04eb4c098e0b344f0343aa446158b30f5",
      "transactionIndex": "0xd",
      "blockHash": "0x53239d5c2d19b0768ed1bdeff6c4b5a415a2042aacae7cdf233a6a54f5259ac5",
      "blockNumber": "0x2be15e6",
      "gasUsed": "0xbc67",
      "effectiveGasPrice": "0xa3e9ab800",
      "from": "0xe62ab4d111f968660c6b2188046f9b9ba53c4bae",
      "to": "0x0bcb87c43e2ad859412d90892ff73d64c6dbb962",
      "contractAddress": null
    },
    {
      "status": "0x1",
      "cumulativeGasUsed": "0x90313",
      "logs": [],
      "logsBloom": "0x00000000000000000000000000000000000000000000000000000000000000000000000000000000000000000000000000000000000000000000000000000000000000000000000000000000000000000000000000000000000000000000000000000000000000000000000000000000000000000000000000000000000000000000000000000000000000000000000000000000000000000000000000000000000000000000000000000000000000000000000000000000000000000000000000000000000000000000000000000000000000000000000000000000000000000000000000000000000000000000000000000000000000000000000000000000",
      "type": "0x0",
      "transactionHash": "0x47a6aa88ba418e3eb1e2e14c19222f24b2088ce2dedf5021e8e215db6f6ffa8c",
      "transactionIndex": "0x10",
      "blockHash": "0x2288632f820436a18dbd9c54388a07acf9c913bfae8e6ff600a6912d717e6faf",
      "blockNumber": "0x2be15e9",
      "gasUsed": "0xbc7e",
      "effectiveGasPrice": "0xa3e9ab800",
      "from": "0xe62ab4d111f968660c6b2188046f9b9ba53c4bae",
      "to": "0x0bcb87c43e2ad859412d90892ff73d64c6dbb962",
      "contractAddress": null
    },
    {
      "status": "0x1",
      "cumulativeGasUsed": "0x5aef8",
      "logs": [],
      "logsBloom": "0x00000000000000000000000000000000000000000000000000000000000000000000000000000000000000000000000000000000000000000000000000000000000000000000000000000000000000000000000000000000000000000000000000000000000000000000000000000000000000000000000000000000000000000000000000000000000000000000000000000000000000000000000000000000000000000000000000000000000000000000000000000000000000000000000000000000000000000000000000000000000000000000000000000000000000000000000000000000000000000000000000000000000000000000000000000000",
      "type": "0x0",
      "transactionHash": "0x1bc5818c2448b19ca5f152f5da4ac8a239f2a2459a94b7239a737ae9605c6dbd",
      "transactionIndex": "0xc",
      "blockHash": "0xcdc5079ec5c0294ae0c48fe7d6f098c4ec3bcc57609f7c355b90e4709208283c",
      "blockNumber": "0x2be15eb",
      "gasUsed": "0xbc95",
      "effectiveGasPrice": "0xa3e9ab800",
      "from": "0xe62ab4d111f968660c6b2188046f9b9ba53c4bae",
      "to": "0x0bcb87c43e2ad859412d90892ff73d64c6dbb962",
      "contractAddress": null
    },
    {
      "status": "0x1",
      "cumulativeGasUsed": "0x4e714",
      "logs": [],
      "logsBloom": "0x00000000000000000000000000000000000000000000000000000000000000000000000000000000000000000000000000000000000000000000000000000000000000000000000000000000000000000000000000000000000000000000000000000000000000000000000000000000000000000000000000000000000000000000000000000000000000000000000000000000000000000000000000000000000000000000000000000000000000000000000000000000000000000000000000000000000000000000000000000000000000000000000000000000000000000000000000000000000000000000000000000000000000000000000000000000",
      "type": "0x0",
      "transactionHash": "0x5dc0e572b736697b2df6c7f3f122e42a7bc147de95fde4124a15da89b4be2346",
      "transactionIndex": "0xd",
      "blockHash": "0xd9d5f300e38d8a89f3839594d3b79f20538c9304bf88302f58abb7309c82ff66",
      "blockNumber": "0x2be15ee",
      "gasUsed": "0xbcac",
      "effectiveGasPrice": "0xa3e9ab800",
      "from": "0xe62ab4d111f968660c6b2188046f9b9ba53c4bae",
      "to": "0x0bcb87c43e2ad859412d90892ff73d64c6dbb962",
      "contractAddress": null
    },
    {
      "status": "0x1",
      "cumulativeGasUsed": "0x4f3d5",
      "logs": [],
      "logsBloom": "0x00000000000000000000000000000000000000000000000000000000000000000000000000000000000000000000000000000000000000000000000000000000000000000000000000000000000000000000000000000000000000000000000000000000000000000000000000000000000000000000000000000000000000000000000000000000000000000000000000000000000000000000000000000000000000000000000000000000000000000000000000000000000000000000000000000000000000000000000000000000000000000000000000000000000000000000000000000000000000000000000000000000000000000000000000000000",
      "type": "0x0",
      "transactionHash": "0xc6a08d304d05e3f5b618c50431d40573d43411b2990c7f34e85fc82cbe564df2",
      "transactionIndex": "0x8",
      "blockHash": "0x377158392a651589a199009eb4456a262317102af59ee05468a04b8b2f379afa",
      "blockNumber": "0x2be15f0",
      "gasUsed": "0xbcc3",
      "effectiveGasPrice": "0xa3e9ab800",
      "from": "0xe62ab4d111f968660c6b2188046f9b9ba53c4bae",
      "to": "0x0bcb87c43e2ad859412d90892ff73d64c6dbb962",
      "contractAddress": null
    },
    {
      "status": "0x1",
      "cumulativeGasUsed": "0x316c9",
      "logs": [],
      "logsBloom": "0x00000000000000000000000000000000000000000000000000000000000000000000000000000000000000000000000000000000000000000000000000000000000000000000000000000000000000000000000000000000000000000000000000000000000000000000000000000000000000000000000000000000000000000000000000000000000000000000000000000000000000000000000000000000000000000000000000000000000000000000000000000000000000000000000000000000000000000000000000000000000000000000000000000000000000000000000000000000000000000000000000000000000000000000000000000000",
      "type": "0x0",
      "transactionHash": "0x89885e6689f51dcf2d6132712bc92a2af3890cc5233b73e1200afc082ec85a54",
      "transactionIndex": "0x6",
      "blockHash": "0x89cd9af1749ace197391a963cf35e78dcd81cee61687edd77108b682b76e2912",
      "blockNumber": "0x2be15f2",
      "gasUsed": "0xbcda",
      "effectiveGasPrice": "0xa3e9ab800",
      "from": "0xe62ab4d111f968660c6b2188046f9b9ba53c4bae",
      "to": "0x0bcb87c43e2ad859412d90892ff73d64c6dbb962",
      "contractAddress": null
    },
    {
      "status": "0x1",
      "cumulativeGasUsed": "0x54812",
      "logs": [],
      "logsBloom": "0x00000000000000000000000000000000000000000000000000000000000000000000000000000000000000000000000000000000000000000000000000000000000000000000000000000000000000000000000000000000000000000000000000000000000000000000000000000000000000000000000000000000000000000000000000000000000000000000000000000000000000000000000000000000000000000000000000000000000000000000000000000000000000000000000000000000000000000000000000000000000000000000000000000000000000000000000000000000000000000000000000000000000000000000000000000000",
      "type": "0x0",
      "transactionHash": "0x3e5dd54cef40657109a3a1b878be11efed8251a9a77c21a092affa2b21fa84af",
      "transactionIndex": "0x8",
      "blockHash": "0xfea51d6786c7cc387c945b5fd8ac66f56ca9dc7f9e61789de97fe8635d4c4207",
      "blockNumber": "0x2be15f5",
      "gasUsed": "0xbcf1",
      "effectiveGasPrice": "0xa3e9ab800",
      "from": "0xe62ab4d111f968660c6b2188046f9b9ba53c4bae",
      "to": "0x0bcb87c43e2ad859412d90892ff73d64c6dbb962",
      "contractAddress": null
    },
    {
      "status": "0x1",
      "cumulativeGasUsed": "0x6f77f",
      "logs": [],
      "logsBloom": "0x00000000000000000000000000000000000000000000000000000000000000000000000000000000000000000000000000000000000000000000000000000000000000000000000000000000000000000000000000000000000000000000000000000000000000000000000000000000000000000000000000000000000000000000000000000000000000000000000000000000000000000000000000000000000000000000000000000000000000000000000000000000000000000000000000000000000000000000000000000000000000000000000000000000000000000000000000000000000000000000000000000000000000000000000000000000",
      "type": "0x0",
      "transactionHash": "0xab510b1bac6842f0e97f5f5b9f4d424a865e5c3ce843258acfdfa0b76bd7045a",
      "transactionIndex": "0x10",
      "blockHash": "0x431c8d2d3397344ab821ab736ab283d4a39d8c5ccd00de49acd1ee0f02d01fba",
      "blockNumber": "0x2be15f7",
      "gasUsed": "0xbd08",
      "effectiveGasPrice": "0xa3e9ab800",
      "from": "0xe62ab4d111f968660c6b2188046f9b9ba53c4bae",
      "to": "0x0bcb87c43e2ad859412d90892ff73d64c6dbb962",
      "contractAddress": null
    },
    {
      "status": "0x1",
      "cumulativeGasUsed": "0x5398f",
      "logs": [],
      "logsBloom": "0x00000000000000000000000000000000000000000000000000000000000000000000000000000000000000000000000000000000000000000000000000000000000000000000000000000000000000000000000000000000000000000000000000000000000000000000000000000000000000000000000000000000000000000000000000000000000000000000000000000000000000000000000000000000000000000000000000000000000000000000000000000000000000000000000000000000000000000000000000000000000000000000000000000000000000000000000000000000000000000000000000000000000000000000000000000000",
      "type": "0x0",
      "transactionHash": "0x55d3696071c73727549a052cc9b35382fea87508f1c3fb0c50ea688822f73487",
      "transactionIndex": "0xe",
      "blockHash": "0xab83e827d9cfce0edf6add2ae72f1b0b0900303f08bf12e9d499034eeeb313ba",
      "blockNumber": "0x2be15fa",
      "gasUsed": "0xbd1f",
      "effectiveGasPrice": "0xa3e9ab800",
      "from": "0xe62ab4d111f968660c6b2188046f9b9ba53c4bae",
      "to": "0x0bcb87c43e2ad859412d90892ff73d64c6dbb962",
      "contractAddress": null
    },
    {
      "status": "0x1",
      "cumulativeGasUsed": "0x545f0",
      "logs": [],
      "logsBloom": "0x00000000000000000000000000000000000000000000000000000000000000000000000000000000000000000000000000000000000000000000000000000000000000000000000000000000000000000000000000000000000000000000000000000000000000000000000000000000000000000000000000000000000000000000000000000000000000000000000000000000000000000000000000000000000000000000000000000000000000000000000000000000000000000000000000000000000000000000000000000000000000000000000000000000000000000000000000000000000000000000000000000000000000000000000000000000",
      "type": "0x0",
      "transactionHash": "0xdc048ee9cea99640cb2571251aff2eeed2d00db1353e383562b720131972b7d6",
      "transactionIndex": "0x9",
      "blockHash": "0x0a9d0c45cc4e3611bbdc5b595fe9424bb7f9796ad859768c7540ce6ff937ce17",
      "blockNumber": "0x2be15fc",
      "gasUsed": "0xbd36",
      "effectiveGasPrice": "0xa3e9ab800",
      "from": "0xe62ab4d111f968660c6b2188046f9b9ba53c4bae",
      "to": "0x0bcb87c43e2ad859412d90892ff73d64c6dbb962",
      "contractAddress": null
    },
    {
      "status": "0x1",
      "cumulativeGasUsed": "0x364c4",
      "logs": [],
      "logsBloom": "0x00000000000000000000000000000000000000000000000000000000000000000000000000000000000000000000000000000000000000000000000000000000000000000000000000000000000000000000000000000000000000000000000000000000000000000000000000000000000000000000000000000000000000000000000000000000000000000000000000000000000000000000000000000000000000000000000000000000000000000000000000000000000000000000000000000000000000000000000000000000000000000000000000000000000000000000000000000000000000000000000000000000000000000000000000000000",
      "type": "0x0",
      "transactionHash": "0x20f1f0b11e2c545754e758b20b397d92f4033d65b738751d3c132fa128d04e63",
      "transactionIndex": "0x4",
      "blockHash": "0x74d4332fa51d63c7eee9b281ce0ce75752099bb2574324fe166bd6dec6091ded",
      "blockNumber": "0x2be15ff",
      "gasUsed": "0xbd4d",
      "effectiveGasPrice": "0xa3e9ab800",
      "from": "0xe62ab4d111f968660c6b2188046f9b9ba53c4bae",
      "to": "0x0bcb87c43e2ad859412d90892ff73d64c6dbb962",
      "contractAddress": null
    },
    {
      "status": "0x1",
      "cumulativeGasUsed": "0x2a994",
      "logs": [],
      "logsBloom": "0x00000000000000000000000000000000000000000000000000000000000000000000000000000000000000000000000000000000000000000000000000000000000000000000000000000000000000000000000000000000000000000000000000000000000000000000000000000000000000000000000000000000000000000000000000000000000000000000000000000000000000000000000000000000000000000000000000000000000000000000000000000000000000000000000000000000000000000000000000000000000000000000000000000000000000000000000000000000000000000000000000000000000000000000000000000000",
      "type": "0x0",
      "transactionHash": "0x9ec144f748b03fa3ff0827cee34d05e4a024b1fff4c61e69eec8e4eac704125a",
      "transactionIndex": "0x6",
      "blockHash": "0x40c4f746bb803671cb767ed63ea5049c7b44ea6f7b560cc30a79186bdc5a9f8b",
      "blockNumber": "0x2be1601",
      "gasUsed": "0xbd64",
      "effectiveGasPrice": "0xa3e9ab800",
      "from": "0xe62ab4d111f968660c6b2188046f9b9ba53c4bae",
      "to": "0x0bcb87c43e2ad859412d90892ff73d64c6dbb962",
      "contractAddress": null
    },
    {
      "status": "0x1",
      "cumulativeGasUsed": "0x443d3",
      "logs": [],
      "logsBloom": "0x00000000000000000000000000000000000000000000000000000000000000000000000000000000000000000000000000000000000000000000000000000000000000000000000000000000000000000000000000000000000000000000000000000000000000000000000000000000000000000000000000000000000000000000000000000000000000000000000000000000000000000000000000000000000000000000000000000000000000000000000000000000000000000000000000000000000000000000000000000000000000000000000000000000000000000000000000000000000000000000000000000000000000000000000000000000",
      "type": "0x0",
      "transactionHash": "0xd30d3223c21cb1f0c7c431e2c93983290cda5821c10747bc92831379847d3cfe",
      "transactionIndex": "0xb",
      "blockHash": "0xb08cda430c2968ba9dc5bad55d659bd7181a28fb60e2eb450430bc66f72c545f",
      "blockNumber": "0x2be1604",
      "gasUsed": "0xbd7b",
      "effectiveGasPrice": "0xa3e9ab800",
      "from": "0xe62ab4d111f968660c6b2188046f9b9ba53c4bae",
      "to": "0x0bcb87c43e2ad859412d90892ff73d64c6dbb962",
      "contractAddress": null
    },
    {
      "status": "0x1",
      "cumulativeGasUsed": "0x2fbca",
      "logs": [],
      "logsBloom": "0x00000000000000000000000000000000000000000000000000000000000000000000000000000000000000000000000000000000000000000000000000000000000000000000000000000000000000000000000000000000000000000000000000000000000000000000000000000000000000000000000000000000000000000000000000000000000000000000000000000000000000000000000000000000000000000000000000000000000000000000000000000000000000000000000000000000000000000000000000000000000000000000000000000000000000000000000000000000000000000000000000000000000000000000000000000000",
      "type": "0x0",
      "transactionHash": "0x908b744cdc29d217496542da49f0eb84b4ab7f8b1b43b797204589961ed6b0b2",
      "transactionIndex": "0x7",
      "blockHash": "0x325b3c124290cbc6443d2be844540a3e4a23e6d931abcac06b391042acd3e3e8",
      "blockNumber": "0x2be1606",
      "gasUsed": "0xbd92",
      "effectiveGasPrice": "0xa3e9ab800",
      "from": "0xe62ab4d111f968660c6b2188046f9b9ba53c4bae",
      "to": "0x0bcb87c43e2ad859412d90892ff73d64c6dbb962",
      "contractAddress": null
    },
    {
      "status": "0x1",
      "cumulativeGasUsed": "0x3818b",
      "logs": [],
      "logsBloom": "0x00000000000000000000000000000000000000000000000000000000000000000000000000000000000000000000000000000000000000000000000000000000000000000000000000000000000000000000000000000000000000000000000000000000000000000000000000000000000000000000000000000000000000000000000000000000000000000000000000000000000000000000000000000000000000000000000000000000000000000000000000000000000000000000000000000000000000000000000000000000000000000000000000000000000000000000000000000000000000000000000000000000000000000000000000000000",
      "type": "0x0",
      "transactionHash": "0x7b03f5610e962be55cd357a6a7d32a7314aa97eee8b3500765af638aad5dd398",
      "transactionIndex": "0x3",
      "blockHash": "0xc4352a34ff78c44f902caada7820895e9de2b06f4e62e61d43562d3dd1c0b5bf",
      "blockNumber": "0x2be1608",
      "gasUsed": "0xbda9",
      "effectiveGasPrice": "0xa3e9ab800",
      "from": "0xe62ab4d111f968660c6b2188046f9b9ba53c4bae",
      "to": "0x0bcb87c43e2ad859412d90892ff73d64c6dbb962",
      "contractAddress": null
    },
    {
      "status": "0x1",
      "cumulativeGasUsed": "0xbdbb",
      "logs": [],
      "logsBloom": "0x00000000000000000000000000000000000000000000000000000000000000000000000000000000000000000000000000000000000000000000000000000000000000000000000000000000000000000000000000000000000000000000000000000000000000000000000000000000000000000000000000000000000000000000000000000000000000000000000000000000000000000000000000000000000000000000000000000000000000000000000000000000000000000000000000000000000000000000000000000000000000000000000000000000000000000000000000000000000000000000000000000000000000000000000000000000",
      "type": "0x0",
      "transactionHash": "0xe5989c99f24f4193014cee54ab5387709e8a161eabbfb877abcf1e70096d0ace",
      "transactionIndex": "0x0",
      "blockHash": "0x5c450f98a51eaec09b98099c48af645e5b0fa0329a4721a5fd31c91edce6baff",
      "blockNumber": "0x2be160b",
      "gasUsed": "0xbdbb",
      "effectiveGasPrice": "0xa3e9ab800",
      "from": "0xe62ab4d111f968660c6b2188046f9b9ba53c4bae",
      "to": "0x0bcb87c43e2ad859412d90892ff73d64c6dbb962",
      "contractAddress": null
    },
    {
      "status": "0x1",
      "cumulativeGasUsed": "0x226da",
      "logs": [],
      "logsBloom": "0x00000000000000000000000000000000000000000000000000000000000000000000000000000000000000000000000000000000000000000000000000000000000000000000000000000000000000000000000000000000000000000000000000000000000000000000000000000000000000000000000000000000000000000000000000000000000000000000000000000000000000000000000000000000000000000000000000000000000000000000000000000000000000000000000000000000000000000000000000000000000000000000000000000000000000000000000000000000000000000000000000000000000000000000000000000000",
      "type": "0x0",
      "transactionHash": "0x4e6725b812d2d4557aa20b05fbe7eb9280e666d20f9b0115b261a8b69f98d96a",
      "transactionIndex": "0x0",
      "blockHash": "0x14fd59fb10e8d9990436918ad813537644bb98cb11fb2be2333ce45ac86486e1",
      "blockNumber": "0x2be160d",
      "gasUsed": "0x226da",
      "effectiveGasPrice": "0xa3e9ab800",
      "from": "0xe62ab4d111f968660c6b2188046f9b9ba53c4bae",
      "to": "0x0bcb87c43e2ad859412d90892ff73d64c6dbb962",
      "contractAddress": null
    },
    {
      "status": "0x1",
      "cumulativeGasUsed": "0x1ea5a",
      "logs": [],
      "logsBloom": "0x00000000000000000000000000000000000000000000000000000000000000000000000000000000000000000000000000000000000000000000000000000000000000000000000000000000000000000000000000000000000000000000000000000000000000000000000000000000000000000000000000000000000000000000000000000000000000000000000000000000000000000000000000000000000000000000000000000000000000000000000000000000000000000000000000000000000000000000000000000000000000000000000000000000000000000000000000000000000000000000000000000000000000000000000000000000",
      "type": "0x0",
      "transactionHash": "0xf8b5ccba86b7c20435f94629be6b36bec9f27c148ef7d8b179335186d4b47f8e",
      "transactionIndex": "0x0",
      "blockHash": "0x938390b406acdc291f3b1c92774d6695f68693aa6ec1fe55d91c76432a454717",
      "blockNumber": "0x2be1610",
      "gasUsed": "0x1ea5a",
      "effectiveGasPrice": "0xa3e9ab800",
      "from": "0xe62ab4d111f968660c6b2188046f9b9ba53c4bae",
      "to": "0x0bcb87c43e2ad859412d90892ff73d64c6dbb962",
      "contractAddress": null
    },
    {
      "status": "0x1",
      "cumulativeGasUsed": "0x1ea5a",
      "logs": [],
      "logsBloom": "0x00000000000000000000000000000000000000000000000000000000000000000000000000000000000000000000000000000000000000000000000000000000000000000000000000000000000000000000000000000000000000000000000000000000000000000000000000000000000000000000000000000000000000000000000000000000000000000000000000000000000000000000000000000000000000000000000000000000000000000000000000000000000000000000000000000000000000000000000000000000000000000000000000000000000000000000000000000000000000000000000000000000000000000000000000000000",
      "type": "0x0",
      "transactionHash": "0x28a55f73fc55b649ebd1f9370b257d07e8caa0d82e6c66adc377fcb01594f4c5",
      "transactionIndex": "0x0",
      "blockHash": "0x03e03d267d6c369d46df3e483e748cf250f6f6df4d25a02e0e1d493779aa07ea",
      "blockNumber": "0x2be1612",
      "gasUsed": "0x1ea5a",
      "effectiveGasPrice": "0xa3e9ab800",
      "from": "0xe62ab4d111f968660c6b2188046f9b9ba53c4bae",
      "to": "0x0bcb87c43e2ad859412d90892ff73d64c6dbb962",
      "contractAddress": null
    },
    {
      "status": "0x1",
      "cumulativeGasUsed": "0x1e5ce",
      "logs": [],
      "logsBloom": "0x00000000000000000000000000000000000000000000000000000000000000000000000000000000000000000000000000000000000000000000000000000000000000000000000000000000000000000000000000000000000000000000000000000000000000000000000000000000000000000000000000000000000000000000000000000000000000000000000000000000000000000000000000000000000000000000000000000000000000000000000000000000000000000000000000000000000000000000000000000000000000000000000000000000000000000000000000000000000000000000000000000000000000000000000000000000",
      "type": "0x0",
      "transactionHash": "0x756bbdad775207b24ec6559a6ed91c265201f7f0da9754fec221785efaef5325",
      "transactionIndex": "0x0",
      "blockHash": "0x143e040a74be3b268f3688e27bb142ec4731e81b48627f670c0b96d03830868c",
      "blockNumber": "0x2be1614",
      "gasUsed": "0x1e5ce",
      "effectiveGasPrice": "0xa3e9ab800",
      "from": "0xe62ab4d111f968660c6b2188046f9b9ba53c4bae",
      "to": "0x0bcb87c43e2ad859412d90892ff73d64c6dbb962",
      "contractAddress": null
    },
    {
      "status": "0x1",
      "cumulativeGasUsed": "0x1eee6",
      "logs": [],
      "logsBloom": "0x00000000000000000000000000000000000000000000000000000000000000000000000000000000000000000000000000000000000000000000000000000000000000000000000000000000000000000000000000000000000000000000000000000000000000000000000000000000000000000000000000000000000000000000000000000000000000000000000000000000000000000000000000000000000000000000000000000000000000000000000000000000000000000000000000000000000000000000000000000000000000000000000000000000000000000000000000000000000000000000000000000000000000000000000000000000",
      "type": "0x0",
      "transactionHash": "0xa53d56a0b1a042b12fb947f556c3215bd72aa08d7edb8ff0ded496a18ce1a07d",
      "transactionIndex": "0x0",
      "blockHash": "0x84b5010c887aeb9a1f4e45cf930451b0dccc4384b7535ae45babad498e698cf8",
      "blockNumber": "0x2be1617",
      "gasUsed": "0x1eee6",
      "effectiveGasPrice": "0xa3e9ab800",
      "from": "0xe62ab4d111f968660c6b2188046f9b9ba53c4bae",
      "to": "0x0bcb87c43e2ad859412d90892ff73d64c6dbb962",
      "contractAddress": null
    },
    {
      "status": "0x1",
      "cumulativeGasUsed": "0x80c0f",
      "logs": [],
      "logsBloom": "0x00000000000000000000000000000000000000000000000000000000000000000000000000000000000000000000000000000000000000000000000000000000000000000000000000000000000000000000000000000000000000000000000000000000000000000000000000000000000000000000000000000000000000000000000000000000000000000000000000000000000000000000000000000000000000000000000000000000000000000000000000000000000000000000000000000000000000000000000000000000000000000000000000000000000000000000000000000000000000000000000000000000000000000000000000000000",
      "type": "0x0",
      "transactionHash": "0x4ebcd8812f759a0108c2a2b566f3224b0ebc9c5191b186bfd2532854e8414efa",
      "transactionIndex": "0x1",
      "blockHash": "0x9210b6d058924b0a83d5a32f20206573b1a82de11b30d2f92f0116660a414b05",
      "blockNumber": "0x2be1619",
      "gasUsed": "0x7ba07",
      "effectiveGasPrice": "0xa3e9ab800",
      "from": "0xe62ab4d111f968660c6b2188046f9b9ba53c4bae",
      "to": "0x9b191600588b59e314d2927204c8edc57603d672",
      "contractAddress": null
    },
    {
      "status": "0x1",
      "cumulativeGasUsed": "0xbd87a",
      "logs": [],
      "logsBloom": "0x00000000000000000000000000000000000000000000000000000000000000000000000000000000000000000000000000000000000000000000000000000000000000000000000000000000000000000000000000000000000000000000000000000000000000000000000000000000000000000000000000000000000000000000000000000000000000000000000000000000000000000000000000000000000000000000000000000000000000000000000000000000000000000000000000000000000000000000000000000000000000000000000000000000000000000000000000000000000000000000000000000000000000000000000000000000",
      "type": "0x0",
      "transactionHash": "0x463615f200fa96677f2b41df62d5c9dc5f625ae3bd7826e12b546e8290711097",
      "transactionIndex": "0x0",
      "blockHash": "0x455e2e0d42bb2d18dcc1bb50fe468aba1bf22227344d164d5426209fba1789b4",
      "blockNumber": "0x2be161c",
      "gasUsed": "0xbd87a",
      "effectiveGasPrice": "0xa3e9ab800",
      "from": "0xe62ab4d111f968660c6b2188046f9b9ba53c4bae",
      "to": "0x9b191600588b59e314d2927204c8edc57603d672",
      "contractAddress": null
    },
    {
      "status": "0x1",
      "cumulativeGasUsed": "0xa7f82",
      "logs": [],
      "logsBloom": "0x00000000000000000000000000000000000000000000000000000000000000000000000000000000000000000000000000000000000000000000000000000000000000000000000000000000000000000000000000000000000000000000000000000000000000000000000000000000000000000000000000000000000000000000000000000000000000000000000000000000000000000000000000000000000000000000000000000000000000000000000000000000000000000000000000000000000000000000000000000000000000000000000000000000000000000000000000000000000000000000000000000000000000000000000000000000",
      "type": "0x0",
      "transactionHash": "0x664b4e4c443afdee6898782705d9b2554f819a25c25792564bb1f0238d776f20",
      "transactionIndex": "0x1",
      "blockHash": "0xfe291537a0d113bb02c6c42eb71be1ba8b88a188ce60b18d242cdfd1ae24a904",
      "blockNumber": "0x2be161e",
      "gasUsed": "0x9bfbb",
      "effectiveGasPrice": "0xa3e9ab800",
      "from": "0xe62ab4d111f968660c6b2188046f9b9ba53c4bae",
      "to": "0x9b191600588b59e314d2927204c8edc57603d672",
      "contractAddress": null
    }
  ],
  "libraries": [],
  "pending": [],
  "returns": {},
  "timestamp": 1732756966,
  "chain": 97,
  "commit": "3a8898ab"
}