{
  "transactions": [
    {
      "hash": "0x9fb36e2fce060337f2501d8b1a9b6cbbb09780398a95143ad209227e3588a5b8",
      "transactionType": "CALL",
      "contractName": null,
      "contractAddress": "0x7a63f6b51c503e9a3354af8262e8c7129abdbbeb",
      "function": "addChainContract(string[],string[])",
      "arguments": [
        "[1115, 200810]",
        "[0xc0b8f765907ab09106010190ee991aaae01f88ba, 0xe08c7ee637336565511eb3421dafdf45b860f9bc]"
      ],
      "transaction": {
        "from": "0xe62ab4d111f968660c6b2188046f9b9ba53c4bae",
        "to": "0x7a63f6b51c503e9a3354af8262e8c7129abdbbeb",
        "gas": "0x7880c",
        "value": "0x0",
        "input": "0x013fd3bd0000000000000000000000000000000000000000000000000000000000000040000000000000000000000000000000000000000000000000000000000000012000000000000000000000000000000000000000000000000000000000000000020000000000000000000000000000000000000000000000000000000000000040000000000000000000000000000000000000000000000000000000000000008000000000000000000000000000000000000000000000000000000000000000043131313500000000000000000000000000000000000000000000000000000000000000000000000000000000000000000000000000000000000000000000000632303038313000000000000000000000000000000000000000000000000000000000000000000000000000000000000000000000000000000000000000000002000000000000000000000000000000000000000000000000000000000000004000000000000000000000000000000000000000000000000000000000000000a0000000000000000000000000000000000000000000000000000000000000002a30786330623866373635393037616230393130363031303139306565393931616161653031663838626100000000000000000000000000000000000000000000000000000000000000000000000000000000000000000000000000000000002a30786530386337656536333733333635363535313165623334323164616664663435623836306639626300000000000000000000000000000000000000000000",
        "nonce": "0x473",
        "chainId": "0x61"
      },
      "additionalContracts": [],
      "isFixedGasLimit": false
    },
    {
      "hash": "0x3c420feef2badca0e3d2811c526059d758324ec06ee422a029d79c67af4a3dc5",
      "transactionType": "CALL",
      "contractName": null,
      "contractAddress": "0x7a63f6b51c503e9a3354af8262e8c7129abdbbeb",
      "function": "attachRWAX(uint256,uint256,string[],string[])",
      "arguments": [
        "1",
        "1",
        "[1115, 200810]",
        "[0xc981d340ac02b717b52dc249c46b1942e20edbad, 0x78f81b1aee019efaafe58853d96c5e9ac87be731]"
      ],
      "transaction": {
        "from": "0xe62ab4d111f968660c6b2188046f9b9ba53c4bae",
        "to": "0x7a63f6b51c503e9a3354af8262e8c7129abdbbeb",
        "gas": "0x8df51",
        "value": "0x0",
        "input": "0x33a5f5b4000000000000000000000000000000000000000000000000000000000000000100000000000000000000000000000000000000000000000000000000000000010000000000000000000000000000000000000000000000000000000000000080000000000000000000000000000000000000000000000000000000000000016000000000000000000000000000000000000000000000000000000000000000020000000000000000000000000000000000000000000000000000000000000040000000000000000000000000000000000000000000000000000000000000008000000000000000000000000000000000000000000000000000000000000000043131313500000000000000000000000000000000000000000000000000000000000000000000000000000000000000000000000000000000000000000000000632303038313000000000000000000000000000000000000000000000000000000000000000000000000000000000000000000000000000000000000000000002000000000000000000000000000000000000000000000000000000000000004000000000000000000000000000000000000000000000000000000000000000a0000000000000000000000000000000000000000000000000000000000000002a30786339383164333430616330326237313762353264633234396334366231393432653230656462616400000000000000000000000000000000000000000000000000000000000000000000000000000000000000000000000000000000002a30783738663831623161656530313965666161666535383835336439366335653961633837626537333100000000000000000000000000000000000000000000",
        "nonce": "0x474",
        "chainId": "0x61"
      },
      "additionalContracts": [],
      "isFixedGasLimit": false
    },
    {
      "hash": "0x80cea781929315bfe1faa05f89dbe0fbd42661164deb2cfeca293a90286b2e6b",
      "transactionType": "CALL",
      "contractName": null,
      "contractAddress": "0x7a63f6b51c503e9a3354af8262e8c7129abdbbeb",
      "function": "attachStorageManager(uint256,uint256,string[],string[])",
      "arguments": [
        "1",
        "1",
        "[1115, 200810]",
        "[0x2809808fc225fdaf859826ce7499a56b106d8870, 0x0f607af04457e86ec349fbebb6e23b0a6a0d067f]"
      ],
      "transaction": {
        "from": "0xe62ab4d111f968660c6b2188046f9b9ba53c4bae",
        "to": "0x7a63f6b51c503e9a3354af8262e8c7129abdbbeb",
        "gas": "0x7b8c4",
        "value": "0x0",
        "input": "0x2f68b489000000000000000000000000000000000000000000000000000000000000000100000000000000000000000000000000000000000000000000000000000000010000000000000000000000000000000000000000000000000000000000000080000000000000000000000000000000000000000000000000000000000000016000000000000000000000000000000000000000000000000000000000000000020000000000000000000000000000000000000000000000000000000000000040000000000000000000000000000000000000000000000000000000000000008000000000000000000000000000000000000000000000000000000000000000043131313500000000000000000000000000000000000000000000000000000000000000000000000000000000000000000000000000000000000000000000000632303038313000000000000000000000000000000000000000000000000000000000000000000000000000000000000000000000000000000000000000000002000000000000000000000000000000000000000000000000000000000000004000000000000000000000000000000000000000000000000000000000000000a0000000000000000000000000000000000000000000000000000000000000002a30783238303938303866633232356664616638353938323663653734393961353662313036643838373000000000000000000000000000000000000000000000000000000000000000000000000000000000000000000000000000000000002a30783066363037616630343435376538366563333439666265626236653233623061366130643036376600000000000000000000000000000000000000000000",
        "nonce": "0x475",
        "chainId": "0x61"
      },
      "additionalContracts": [],
      "isFixedGasLimit": false
    },
    {
      "hash": "0xc9437dec12898600d7e6242f9451cbbf36a888b313113fa3ac8be86aa4463285",
      "transactionType": "CALL",
      "contractName": null,
      "contractAddress": "0x7a63f6b51c503e9a3354af8262e8c7129abdbbeb",
      "function": "attachSentryManager(uint256,uint256,string[],string[])",
      "arguments": [
        "1",
        "1",
        "[1115, 200810]",
        "[0xea37aefe52e5327528f71171844474cf77507770, 0x10a04ad4a73c8bb00ee5a29b27d11eee85390306]"
      ],
      "transaction": {
        "from": "0xe62ab4d111f968660c6b2188046f9b9ba53c4bae",
        "to": "0x7a63f6b51c503e9a3354af8262e8c7129abdbbeb",
        "gas": "0x7497c",
        "value": "0x0",
        "input": "0x349de797000000000000000000000000000000000000000000000000000000000000000100000000000000000000000000000000000000000000000000000000000000010000000000000000000000000000000000000000000000000000000000000080000000000000000000000000000000000000000000000000000000000000016000000000000000000000000000000000000000000000000000000000000000020000000000000000000000000000000000000000000000000000000000000040000000000000000000000000000000000000000000000000000000000000008000000000000000000000000000000000000000000000000000000000000000043131313500000000000000000000000000000000000000000000000000000000000000000000000000000000000000000000000000000000000000000000000632303038313000000000000000000000000000000000000000000000000000000000000000000000000000000000000000000000000000000000000000000002000000000000000000000000000000000000000000000000000000000000004000000000000000000000000000000000000000000000000000000000000000a0000000000000000000000000000000000000000000000000000000000000002a30786561333761656665353265353332373532386637313137313834343437346366373735303737373000000000000000000000000000000000000000000000000000000000000000000000000000000000000000000000000000000000002a30783130613034616434613733633862623030656535613239623237643131656565383533393033303600000000000000000000000000000000000000000000",
        "nonce": "0x476",
        "chainId": "0x61"
      },
      "additionalContracts": [],
      "isFixedGasLimit": false
    }
  ],
  "receipts": [
    {
      "status": "0x1",
      "cumulativeGasUsed": "0x5d9c8",
      "logs": [],
      "logsBloom": "0x00000000000000000000000000000000000000000000000000000000000000000000000000000000000000000000000000000000000000000000000000000000000000000000000000000000000000000000000000000000000000000000000000000000000000000000000000000000000000000000000000000000000000000000000000000000000000000000000000000000000000000000000000000000000000000000000000000000000000000000000000000000000000000000000000000000000000000000000000000000000000000000000000000000000000000000000000000000000000000000000000000000000000000000000000000000",
      "type": "0x0",
      "transactionHash": "0x9fb36e2fce060337f2501d8b1a9b6cbbb09780398a95143ad209227e3588a5b8",
      "transactionIndex": "0x1",
      "blockHash": "0xa0314f5ee91995a86667084d844ce41fd3b47d6766479f9240b2a4dcea4b9276",
      "blockNumber": "0x327beb0",
      "gasUsed": "0x52653",
      "effectiveGasPrice": "0x5f5e100",
      "from": "0xe62ab4d111f968660c6b2188046f9b9ba53c4bae",
      "to": "0x7a63f6b51c503e9a3354af8262e8c7129abdbbeb",
      "contractAddress": null
    },
    {
      "status": "0x1",
      "cumulativeGasUsed": "0x6110a",
      "logs": [],
      "logsBloom": "0x00000000000000000000000000000000000000000000000000000000000000000000000000000000000000000000000000000000000000000000000000000000000000000000000000000000000000000000000000000000000000000000000000000000000000000000000000000000000000000000000000000000000000000000000000000000000000000000000000000000000000000000000000000000000000000000000000000000000000000000000000000000000000000000000000000000000000000000000000000000000000000000000000000000000000000000000000000000000000000000000000000000000000000000000000000000",
      "type": "0x0",
      "transactionHash": "0x3c420feef2badca0e3d2811c526059d758324ec06ee422a029d79c67af4a3dc5",
      "transactionIndex": "0x0",
      "blockHash": "0x8685b5835d30b8b5fcd0bc7296c66f7d816c5bad3c6ed3ecc7e9ff6aea6b65bf",
      "blockNumber": "0x327beb4",
      "gasUsed": "0x6110a",
      "effectiveGasPrice": "0x5f5e100",
      "from": "0xe62ab4d111f968660c6b2188046f9b9ba53c4bae",
      "to": "0x7a63f6b51c503e9a3354af8262e8c7129abdbbeb",
      "contractAddress": null
    },
    {
      "status": "0x1",
      "cumulativeGasUsed": "0x76aac",
      "logs": [],
      "logsBloom": "0x00000000000000000000000000000000000000000000000000000000000000000000000000000000000000000000000000000000000000000000000000000000000000000000000000000000000000000000000000000000000000000000000000000000000000000000000000000000000000000000000000000000000000000000000000000000000000000000000000000000000000000000000000000000000000000000000000000000000000000000000000000000000000000000000000000000000000000000000000000000000000000000000000000000000000000000000000000000000000000000000000000000000000000000000000000000",
      "type": "0x0",
      "transactionHash": "0x80cea781929315bfe1faa05f89dbe0fbd42661164deb2cfeca293a90286b2e6b",
      "transactionIndex": "0x2",
      "blockHash": "0x37ffdb1a876d2d1ab92823f2d82ecc7a77e53d0693e7d62ff87397f9c1ec1579",
      "blockNumber": "0x327beb8",
      "gasUsed": "0x547a3",
      "effectiveGasPrice": "0x5f5e100",
      "from": "0xe62ab4d111f968660c6b2188046f9b9ba53c4bae",
      "to": "0x7a63f6b51c503e9a3354af8262e8c7129abdbbeb",
      "contractAddress": null
    },
    {
      "status": "0x1",
      "cumulativeGasUsed": "0x5fc92",
      "logs": [],
      "logsBloom": "0x00000000000000000000000000000000000000000000000000000000000000000000000000000000000000000000000000000000000000000000000000000000000000000000000000000000000000000000000000000000000000000000000000000000000000000000000000000000000000000000000000000000000000000000000000000000000000000000000000000000000000000000000000000000000000000000000000000000000000000000000000000000000000000000000000000000000000000000000000000000000000000000000000000000000000000000000000000000000000000000000000000000000000000000000000000000",
      "type": "0x0",
      "transactionHash": "0xc9437dec12898600d7e6242f9451cbbf36a888b313113fa3ac8be86aa4463285",
      "transactionIndex": "0x1",
      "blockHash": "0x79c1d2efeea21db91b603b325a8e44fba44f53552e2bb6a39b26a2ab28b9d80b",
      "blockNumber": "0x327bebd",
      "gasUsed": "0x54694",
      "effectiveGasPrice": "0x5f5e100",
      "from": "0xe62ab4d111f968660c6b2188046f9b9ba53c4bae",
      "to": "0x7a63f6b51c503e9a3354af8262e8c7129abdbbeb",
      "contractAddress": null
    }
  ],
  "libraries": [],
  "pending": [],
  "returns": {},
  "timestamp": 1748531384,
  "chain": 97,
  "commit": "c07ce9ba"
}