{
  "transactions": [
    {
      "hash": "0x9407cc831edca61ce0ff052c2f7f59b3fd9cdd05bce19e8354c854af77db5c37",
      "transactionType": "CALL",
      "contractName": null,
      "contractAddress": "0x2f925d6512b2bbb00f5a36d8b18e01fcf35f7dc7",
      "function": "getFeeTokenList()",
      "arguments": [],
      "transaction": {
        "from": "0xc3ca11bd8e131471904dced927b3fb7edb453179",
        "to": "0x2f925d6512b2bbb00f5a36d8b18e01fcf35f7dc7",
        "gas": "0x9d1e",
        "value": "0x0",
        "input": "0xe28ab277",
        "nonce": "0x19",
        "chainId": "0x14a34"
      },
      "additionalContracts": [],
      "isFixedGasLimit": false
    },
    {
      "hash": "0xf3e48431a66f46dfe879dfac06e490e0f1e5c5439848a91cb2d096d9720b1028",
      "transactionType": "CALL",
      "contractName": null,
      "contractAddress": "0x2f925d6512b2bbb00f5a36d8b18e01fcf35f7dc7",
      "function": "addFeeToken(string)",
      "arguments": [
        "0x6a4DBC971533Ba36bdc23aD70F5A7a12E064f4ae"
      ],
      "transaction": {
        "from": "0xc3ca11bd8e131471904dced927b3fb7edb453179",
        "to": "0x2f925d6512b2bbb00f5a36d8b18e01fcf35f7dc7",
        "gas": "0x2c3cf",
        "value": "0x0",
        "input": "0x12a6385f0000000000000000000000000000000000000000000000000000000000000020000000000000000000000000000000000000000000000000000000000000002a30783661344442433937313533334261333662646332336144373046354137613132453036346634616500000000000000000000000000000000000000000000",
        "nonce": "0x1a",
        "chainId": "0x14a34"
      },
      "additionalContracts": [],
      "isFixedGasLimit": false
    },
    {
      "hash": "0xb8fb61a65ace48931f3cd26286b702263fe0c9034c95ebf850bbea4200c54883",
      "transactionType": "CALL",
      "contractName": null,
      "contractAddress": "0x2f925d6512b2bbb00f5a36d8b18e01fcf35f7dc7",
      "function": "addFeeToken(string,string[],uint256[])",
      "arguments": [
        "11155111",
        "[0x6a4DBC971533Ba36bdc23aD70F5A7a12E064f4ae]",
        "[100]"
      ],
      "transaction": {
        "from": "0xc3ca11bd8e131471904dced927b3fb7edb453179",
        "to": "0x2f925d6512b2bbb00f5a36d8b18e01fcf35f7dc7",
        "gas": "0x237db",
        "value": "0x0",
        "input": "0x437bf84f000000000000000000000000000000000000000000000000000000000000006000000000000000000000000000000000000000000000000000000000000000a000000000000000000000000000000000000000000000000000000000000001400000000000000000000000000000000000000000000000000000000000000008313131353531313100000000000000000000000000000000000000000000000000000000000000000000000000000000000000000000000000000000000000010000000000000000000000000000000000000000000000000000000000000020000000000000000000000000000000000000000000000000000000000000002a3078366134444243393731353333426133366264633233614437304635413761313245303634663461650000000000000000000000000000000000000000000000000000000000000000000000000000000000000000000000000000000000010000000000000000000000000000000000000000000000000000000000000064",
        "nonce": "0x1b",
        "chainId": "0x14a34"
      },
      "additionalContracts": [],
      "isFixedGasLimit": false
    },
    {
      "hash": "0x44fb10752d5f85b2bf403b2cba36d80bc5177f12e8f079cb51a93a586ccc58b0",
      "transactionType": "CALL",
      "contractName": null,
      "contractAddress": "0x2f925d6512b2bbb00f5a36d8b18e01fcf35f7dc7",
      "function": "addFeeToken(string,string[],uint256[])",
      "arguments": [
        "17000",
        "[0x6a4DBC971533Ba36bdc23aD70F5A7a12E064f4ae]",
        "[100]"
      ],
      "transaction": {
        "from": "0xc3ca11bd8e131471904dced927b3fb7edb453179",
        "to": "0x2f925d6512b2bbb00f5a36d8b18e01fcf35f7dc7",
        "gas": "0x231c5",
        "value": "0x0",
        "input": "0x437bf84f000000000000000000000000000000000000000000000000000000000000006000000000000000000000000000000000000000000000000000000000000000a000000000000000000000000000000000000000000000000000000000000001400000000000000000000000000000000000000000000000000000000000000005313730303000000000000000000000000000000000000000000000000000000000000000000000000000000000000000000000000000000000000000000000010000000000000000000000000000000000000000000000000000000000000020000000000000000000000000000000000000000000000000000000000000002a3078366134444243393731353333426133366264633233614437304635413761313245303634663461650000000000000000000000000000000000000000000000000000000000000000000000000000000000000000000000000000000000010000000000000000000000000000000000000000000000000000000000000064",
        "nonce": "0x1c",
        "chainId": "0x14a34"
      },
      "additionalContracts": [],
      "isFixedGasLimit": false
    },
    {
      "hash": "0x8158b419c3a2ea0999bedf9885f9ec12e6ac8b5b6d7219511787eddb1543b63c",
      "transactionType": "CALL",
      "contractName": null,
      "contractAddress": "0x2f925d6512b2bbb00f5a36d8b18e01fcf35f7dc7",
      "function": "addFeeToken(string,string[],uint256[])",
      "arguments": [
        "1946",
        "[0x6a4DBC971533Ba36bdc23aD70F5A7a12E064f4ae]",
        "[100]"
      ],
      "transaction": {
        "from": "0xc3ca11bd8e131471904dced927b3fb7edb453179",
        "to": "0x2f925d6512b2bbb00f5a36d8b18e01fcf35f7dc7",
        "gas": "0x22fbd",
        "value": "0x0",
        "input": "0x437bf84f000000000000000000000000000000000000000000000000000000000000006000000000000000000000000000000000000000000000000000000000000000a000000000000000000000000000000000000000000000000000000000000001400000000000000000000000000000000000000000000000000000000000000004313934360000000000000000000000000000000000000000000000000000000000000000000000000000000000000000000000000000000000000000000000010000000000000000000000000000000000000000000000000000000000000020000000000000000000000000000000000000000000000000000000000000002a3078366134444243393731353333426133366264633233614437304635413761313245303634663461650000000000000000000000000000000000000000000000000000000000000000000000000000000000000000000000000000000000010000000000000000000000000000000000000000000000000000000000000064",
        "nonce": "0x1d",
        "chainId": "0x14a34"
      },
      "additionalContracts": [],
      "isFixedGasLimit": false
    },
    {
      "hash": "0x2f05445c5de6bdddc21da2d3afb93791b3d445537b020cfc31b32b4ad066a788",
      "transactionType": "CALL",
      "contractName": null,
      "contractAddress": "0x2f925d6512b2bbb00f5a36d8b18e01fcf35f7dc7",
      "function": "addFeeToken(string,string[],uint256[])",
      "arguments": [
        "421614",
        "[0x6a4DBC971533Ba36bdc23aD70F5A7a12E064f4ae]",
        "[100]"
      ],
      "transaction": {
        "from": "0xc3ca11bd8e131471904dced927b3fb7edb453179",
        "to": "0x2f925d6512b2bbb00f5a36d8b18e01fcf35f7dc7",
        "gas": "0x233cc",
        "value": "0x0",
        "input": "0x437bf84f000000000000000000000000000000000000000000000000000000000000006000000000000000000000000000000000000000000000000000000000000000a000000000000000000000000000000000000000000000000000000000000001400000000000000000000000000000000000000000000000000000000000000006343231363134000000000000000000000000000000000000000000000000000000000000000000000000000000000000000000000000000000000000000000010000000000000000000000000000000000000000000000000000000000000020000000000000000000000000000000000000000000000000000000000000002a3078366134444243393731353333426133366264633233614437304635413761313245303634663461650000000000000000000000000000000000000000000000000000000000000000000000000000000000000000000000000000000000010000000000000000000000000000000000000000000000000000000000000064",
        "nonce": "0x1e",
        "chainId": "0x14a34"
      },
      "additionalContracts": [],
      "isFixedGasLimit": false
    },
    {
      "hash": "0x09076e25b4d08abcf67b1e6e3f6aa17d261c369c84de1a500aba90a4c2ab2376",
      "transactionType": "CALL",
      "contractName": null,
      "contractAddress": "0x2f925d6512b2bbb00f5a36d8b18e01fcf35f7dc7",
      "function": "addFeeToken(string,string[],uint256[])",
      "arguments": [
        "43113",
        "[0x6a4DBC971533Ba36bdc23aD70F5A7a12E064f4ae]",
        "[100]"
      ],
      "transaction": {
        "from": "0xc3ca11bd8e131471904dced927b3fb7edb453179",
        "to": "0x2f925d6512b2bbb00f5a36d8b18e01fcf35f7dc7",
        "gas": "0x231c5",
        "value": "0x0",
        "input": "0x437bf84f000000000000000000000000000000000000000000000000000000000000006000000000000000000000000000000000000000000000000000000000000000a000000000000000000000000000000000000000000000000000000000000001400000000000000000000000000000000000000000000000000000000000000005343331313300000000000000000000000000000000000000000000000000000000000000000000000000000000000000000000000000000000000000000000010000000000000000000000000000000000000000000000000000000000000020000000000000000000000000000000000000000000000000000000000000002a3078366134444243393731353333426133366264633233614437304635413761313245303634663461650000000000000000000000000000000000000000000000000000000000000000000000000000000000000000000000000000000000010000000000000000000000000000000000000000000000000000000000000064",
        "nonce": "0x1f",
        "chainId": "0x14a34"
      },
      "additionalContracts": [],
      "isFixedGasLimit": false
    },
    {
      "hash": "0x7c7903ac8981e7e42dcc5aa3576a0a340e3399594ed56b7846a4e41c936cb9a7",
      "transactionType": "CALL",
      "contractName": null,
      "contractAddress": "0x2f925d6512b2bbb00f5a36d8b18e01fcf35f7dc7",
      "function": "addFeeToken(string,string[],uint256[])",
      "arguments": [
        "534351",
        "[0x6a4DBC971533Ba36bdc23aD70F5A7a12E064f4ae]",
        "[100]"
      ],
      "transaction": {
        "from": "0xc3ca11bd8e131471904dced927b3fb7edb453179",
        "to": "0x2f925d6512b2bbb00f5a36d8b18e01fcf35f7dc7",
        "gas": "0x233cc",
        "value": "0x0",
        "input": "0x437bf84f000000000000000000000000000000000000000000000000000000000000006000000000000000000000000000000000000000000000000000000000000000a000000000000000000000000000000000000000000000000000000000000001400000000000000000000000000000000000000000000000000000000000000006353334333531000000000000000000000000000000000000000000000000000000000000000000000000000000000000000000000000000000000000000000010000000000000000000000000000000000000000000000000000000000000020000000000000000000000000000000000000000000000000000000000000002a3078366134444243393731353333426133366264633233614437304635413761313245303634663461650000000000000000000000000000000000000000000000000000000000000000000000000000000000000000000000000000000000010000000000000000000000000000000000000000000000000000000000000064",
        "nonce": "0x20",
        "chainId": "0x14a34"
      },
      "additionalContracts": [],
      "isFixedGasLimit": false
    },
    {
      "hash": "0x9e482fb10814449e86b74fba9f856e3775bb44a708d808a32fa6f24bcc3ead35",
      "transactionType": "CALL",
      "contractName": null,
      "contractAddress": "0x2f925d6512b2bbb00f5a36d8b18e01fcf35f7dc7",
      "function": "addFeeToken(string,string[],uint256[])",
      "arguments": [
        "5611",
        "[0x6a4DBC971533Ba36bdc23aD70F5A7a12E064f4ae]",
        "[100]"
      ],
      "transaction": {
        "from": "0xc3ca11bd8e131471904dced927b3fb7edb453179",
        "to": "0x2f925d6512b2bbb00f5a36d8b18e01fcf35f7dc7",
        "gas": "0x22fbd",
        "value": "0x0",
        "input": "0x437bf84f000000000000000000000000000000000000000000000000000000000000006000000000000000000000000000000000000000000000000000000000000000a000000000000000000000000000000000000000000000000000000000000001400000000000000000000000000000000000000000000000000000000000000004353631310000000000000000000000000000000000000000000000000000000000000000000000000000000000000000000000000000000000000000000000010000000000000000000000000000000000000000000000000000000000000020000000000000000000000000000000000000000000000000000000000000002a3078366134444243393731353333426133366264633233614437304635413761313245303634663461650000000000000000000000000000000000000000000000000000000000000000000000000000000000000000000000000000000000010000000000000000000000000000000000000000000000000000000000000064",
        "nonce": "0x21",
        "chainId": "0x14a34"
      },
      "additionalContracts": [],
      "isFixedGasLimit": false
    },
    {
      "hash": "0x59769615b7c1aad037f05d4632ebe5a54635e2570c79905895183da15bb8c8e9",
      "transactionType": "CALL",
      "contractName": null,
      "contractAddress": "0x2f925d6512b2bbb00f5a36d8b18e01fcf35f7dc7",
      "function": "addFeeToken(string,string[],uint256[])",
      "arguments": [
        "97",
        "[0x6a4DBC971533Ba36bdc23aD70F5A7a12E064f4ae]",
        "[100]"
      ],
      "transaction": {
        "from": "0xc3ca11bd8e131471904dced927b3fb7edb453179",
        "to": "0x2f925d6512b2bbb00f5a36d8b18e01fcf35f7dc7",
        "gas": "0x22baf",
        "value": "0x0",
        "input": "0x437bf84f000000000000000000000000000000000000000000000000000000000000006000000000000000000000000000000000000000000000000000000000000000a000000000000000000000000000000000000000000000000000000000000001400000000000000000000000000000000000000000000000000000000000000002393700000000000000000000000000000000000000000000000000000000000000000000000000000000000000000000000000000000000000000000000000010000000000000000000000000000000000000000000000000000000000000020000000000000000000000000000000000000000000000000000000000000002a3078366134444243393731353333426133366264633233614437304635413761313245303634663461650000000000000000000000000000000000000000000000000000000000000000000000000000000000000000000000000000000000010000000000000000000000000000000000000000000000000000000000000064",
        "nonce": "0x22",
        "chainId": "0x14a34"
      },
      "additionalContracts": [],
      "isFixedGasLimit": false
    },
    {
      "hash": "0xa14fe745b308d1c9ff5a95ecb3ff17022001d4d645aefc822d557937b46949bc",
      "transactionType": "CALL",
      "contractName": null,
      "contractAddress": "0x2f925d6512b2bbb00f5a36d8b18e01fcf35f7dc7",
      "function": "setFeeMultiplier(uint8,uint256)",
      "arguments": [
        "0",
        "2"
      ],
      "transaction": {
        "from": "0xc3ca11bd8e131471904dced927b3fb7edb453179",
        "to": "0x2f925d6512b2bbb00f5a36d8b18e01fcf35f7dc7",
        "gas": "0x13e30",
        "value": "0x0",
        "input": "0x0ee24eb500000000000000000000000000000000000000000000000000000000000000000000000000000000000000000000000000000000000000000000000000000002",
        "nonce": "0x23",
        "chainId": "0x14a34"
      },
      "additionalContracts": [],
      "isFixedGasLimit": false
    },
    {
      "hash": "0x3afab3766577ecbd4f7080bf2fb249d4c4a14c405293eff2efc28e3eafb769fd",
      "transactionType": "CALL",
      "contractName": null,
      "contractAddress": "0x2f925d6512b2bbb00f5a36d8b18e01fcf35f7dc7",
      "function": "setFeeMultiplier(uint8,uint256)",
      "arguments": [
        "1",
        "10"
      ],
      "transaction": {
        "from": "0xc3ca11bd8e131471904dced927b3fb7edb453179",
        "to": "0x2f925d6512b2bbb00f5a36d8b18e01fcf35f7dc7",
        "gas": "0x150fa",
        "value": "0x0",
        "input": "0x0ee24eb50000000000000000000000000000000000000000000000000000000000000001000000000000000000000000000000000000000000000000000000000000000a",
        "nonce": "0x24",
        "chainId": "0x14a34"
      },
      "additionalContracts": [],
      "isFixedGasLimit": false
    },
    {
      "hash": "0xc63b2e5c2ec78b74ca4d0ffa89fb9044513186afe1efba874071f8b7c283a6cf",
      "transactionType": "CALL",
      "contractName": null,
      "contractAddress": "0x2f925d6512b2bbb00f5a36d8b18e01fcf35f7dc7",
      "function": "setFeeMultiplier(uint8,uint256)",
      "arguments": [
        "2",
        "1"
      ],
      "transaction": {
        "from": "0xc3ca11bd8e131471904dced927b3fb7edb453179",
        "to": "0x2f925d6512b2bbb00f5a36d8b18e01fcf35f7dc7",
        "gas": "0x150fa",
        "value": "0x0",
        "input": "0x0ee24eb500000000000000000000000000000000000000000000000000000000000000020000000000000000000000000000000000000000000000000000000000000001",
        "nonce": "0x25",
        "chainId": "0x14a34"
      },
      "additionalContracts": [],
      "isFixedGasLimit": false
    },
    {
      "hash": "0xb8bebbcc12f35f375b4a873a2218c499638d1f5213d1f016185682c56ae37405",
      "transactionType": "CALL",
      "contractName": null,
      "contractAddress": "0x2f925d6512b2bbb00f5a36d8b18e01fcf35f7dc7",
      "function": "setFeeMultiplier(uint8,uint256)",
      "arguments": [
        "3",
        "4"
      ],
      "transaction": {
        "from": "0xc3ca11bd8e131471904dced927b3fb7edb453179",
        "to": "0x2f925d6512b2bbb00f5a36d8b18e01fcf35f7dc7",
        "gas": "0x150fa",
        "value": "0x0",
        "input": "0x0ee24eb500000000000000000000000000000000000000000000000000000000000000030000000000000000000000000000000000000000000000000000000000000004",
        "nonce": "0x26",
        "chainId": "0x14a34"
      },
      "additionalContracts": [],
      "isFixedGasLimit": false
    },
    {
      "hash": "0x9d874179ca6005c6260fc245086e6c4afdd1ce9b63e4d0ff7620c156728b76b0",
      "transactionType": "CALL",
      "contractName": null,
      "contractAddress": "0x2f925d6512b2bbb00f5a36d8b18e01fcf35f7dc7",
      "function": "setFeeMultiplier(uint8,uint256)",
      "arguments": [
        "4",
        "4"
      ],
      "transaction": {
        "from": "0xc3ca11bd8e131471904dced927b3fb7edb453179",
        "to": "0x2f925d6512b2bbb00f5a36d8b18e01fcf35f7dc7",
        "gas": "0x150fa",
        "value": "0x0",
        "input": "0x0ee24eb500000000000000000000000000000000000000000000000000000000000000040000000000000000000000000000000000000000000000000000000000000004",
        "nonce": "0x27",
        "chainId": "0x14a34"
      },
      "additionalContracts": [],
      "isFixedGasLimit": false
    },
    {
      "hash": "0xc5ba41178f1d0233cf9e9b9d7e5c5ed683d548933ba2b7806946cd1ccfde379c",
      "transactionType": "CALL",
      "contractName": null,
      "contractAddress": "0x2f925d6512b2bbb00f5a36d8b18e01fcf35f7dc7",
      "function": "setFeeMultiplier(uint8,uint256)",
      "arguments": [
        "5",
        "4"
      ],
      "transaction": {
        "from": "0xc3ca11bd8e131471904dced927b3fb7edb453179",
        "to": "0x2f925d6512b2bbb00f5a36d8b18e01fcf35f7dc7",
        "gas": "0x150fa",
        "value": "0x0",
        "input": "0x0ee24eb500000000000000000000000000000000000000000000000000000000000000050000000000000000000000000000000000000000000000000000000000000004",
        "nonce": "0x28",
        "chainId": "0x14a34"
      },
      "additionalContracts": [],
      "isFixedGasLimit": false
    },
    {
      "hash": "0x32416a192551179a37e6d0cddad85276f00a337fe2f9bbcccf25ef5f5badb0fb",
      "transactionType": "CALL",
      "contractName": null,
      "contractAddress": "0x2f925d6512b2bbb00f5a36d8b18e01fcf35f7dc7",
      "function": "setFeeMultiplier(uint8,uint256)",
      "arguments": [
        "6",
        "8"
      ],
      "transaction": {
        "from": "0xc3ca11bd8e131471904dced927b3fb7edb453179",
        "to": "0x2f925d6512b2bbb00f5a36d8b18e01fcf35f7dc7",
        "gas": "0x150fa",
        "value": "0x0",
        "input": "0x0ee24eb500000000000000000000000000000000000000000000000000000000000000060000000000000000000000000000000000000000000000000000000000000008",
        "nonce": "0x29",
        "chainId": "0x14a34"
      },
      "additionalContracts": [],
      "isFixedGasLimit": false
    },
    {
      "hash": "0x9edaacd6eb137aa21c975008b64fb4788a20c831b941e7076332bc6b3d29df48",
      "transactionType": "CALL",
      "contractName": null,
      "contractAddress": "0x2f925d6512b2bbb00f5a36d8b18e01fcf35f7dc7",
      "function": "setFeeMultiplier(uint8,uint256)",
      "arguments": [
        "7",
        "4"
      ],
      "transaction": {
        "from": "0xc3ca11bd8e131471904dced927b3fb7edb453179",
        "to": "0x2f925d6512b2bbb00f5a36d8b18e01fcf35f7dc7",
        "gas": "0x150fa",
        "value": "0x0",
        "input": "0x0ee24eb500000000000000000000000000000000000000000000000000000000000000070000000000000000000000000000000000000000000000000000000000000004",
        "nonce": "0x2a",
        "chainId": "0x14a34"
      },
      "additionalContracts": [],
      "isFixedGasLimit": false
    },
    {
      "hash": "0x39207ac11210ed9fb01b4a6d098fc43f240b66a367a0c323264e81f2853d778f",
      "transactionType": "CALL",
      "contractName": null,
      "contractAddress": "0x2f925d6512b2bbb00f5a36d8b18e01fcf35f7dc7",
      "function": "setFeeMultiplier(uint8,uint256)",
      "arguments": [
        "8",
        "10"
      ],
      "transaction": {
        "from": "0xc3ca11bd8e131471904dced927b3fb7edb453179",
        "to": "0x2f925d6512b2bbb00f5a36d8b18e01fcf35f7dc7",
        "gas": "0x150fa",
        "value": "0x0",
        "input": "0x0ee24eb50000000000000000000000000000000000000000000000000000000000000008000000000000000000000000000000000000000000000000000000000000000a",
        "nonce": "0x2b",
        "chainId": "0x14a34"
      },
      "additionalContracts": [],
      "isFixedGasLimit": false
    },
    {
      "hash": "0xfda31dcc726ea9d590163a94a27a1af5fd303d0fde61957676084f10e8af93be",
      "transactionType": "CALL",
      "contractName": null,
      "contractAddress": "0x2f925d6512b2bbb00f5a36d8b18e01fcf35f7dc7",
      "function": "setFeeMultiplier(uint8,uint256)",
      "arguments": [
        "9",
        "8"
      ],
      "transaction": {
        "from": "0xc3ca11bd8e131471904dced927b3fb7edb453179",
        "to": "0x2f925d6512b2bbb00f5a36d8b18e01fcf35f7dc7",
        "gas": "0x150fa",
        "value": "0x0",
        "input": "0x0ee24eb500000000000000000000000000000000000000000000000000000000000000090000000000000000000000000000000000000000000000000000000000000008",
        "nonce": "0x2c",
        "chainId": "0x14a34"
      },
      "additionalContracts": [],
      "isFixedGasLimit": false
    },
    {
      "hash": "0xab7c71037605ddabd2f041f1a1f4f605eac136e92ce479daac5fcb908da903d9",
      "transactionType": "CALL",
      "contractName": null,
      "contractAddress": "0x2f925d6512b2bbb00f5a36d8b18e01fcf35f7dc7",
      "function": "setFeeMultiplier(uint8,uint256)",
      "arguments": [
        "10",
        "8"
      ],
      "transaction": {
        "from": "0xc3ca11bd8e131471904dced927b3fb7edb453179",
        "to": "0x2f925d6512b2bbb00f5a36d8b18e01fcf35f7dc7",
        "gas": "0x150fa",
        "value": "0x0",
        "input": "0x0ee24eb5000000000000000000000000000000000000000000000000000000000000000a0000000000000000000000000000000000000000000000000000000000000008",
        "nonce": "0x2d",
        "chainId": "0x14a34"
      },
      "additionalContracts": [],
      "isFixedGasLimit": false
    },
    {
      "hash": "0xc450e1feb1e6d2385e7e4cc3690d45ea9468e1196b0a83247e2583032b35d5df",
      "transactionType": "CALL",
      "contractName": null,
      "contractAddress": "0x2f925d6512b2bbb00f5a36d8b18e01fcf35f7dc7",
      "function": "setFeeMultiplier(uint8,uint256)",
      "arguments": [
        "11",
        "8"
      ],
      "transaction": {
        "from": "0xc3ca11bd8e131471904dced927b3fb7edb453179",
        "to": "0x2f925d6512b2bbb00f5a36d8b18e01fcf35f7dc7",
        "gas": "0x150fa",
        "value": "0x0",
        "input": "0x0ee24eb5000000000000000000000000000000000000000000000000000000000000000b0000000000000000000000000000000000000000000000000000000000000008",
        "nonce": "0x2e",
        "chainId": "0x14a34"
      },
      "additionalContracts": [],
      "isFixedGasLimit": false
    },
    {
      "hash": "0x1148865576c917097f65adc835bca6d5f556dc304304a29c21d5d88ed8c190ba",
      "transactionType": "CALL",
      "contractName": null,
      "contractAddress": "0x2f925d6512b2bbb00f5a36d8b18e01fcf35f7dc7",
      "function": "setFeeMultiplier(uint8,uint256)",
      "arguments": [
        "12",
        "20"
      ],
      "transaction": {
        "from": "0xc3ca11bd8e131471904dced927b3fb7edb453179",
        "to": "0x2f925d6512b2bbb00f5a36d8b18e01fcf35f7dc7",
        "gas": "0x150fa",
        "value": "0x0",
        "input": "0x0ee24eb5000000000000000000000000000000000000000000000000000000000000000c0000000000000000000000000000000000000000000000000000000000000014",
        "nonce": "0x2f",
        "chainId": "0x14a34"
      },
      "additionalContracts": [],
      "isFixedGasLimit": false
    },
    {
      "hash": "0x872e628ba27a3ba449822a2fa5da19eeb4d92630e540ae08322fcf94b401eb6b",
      "transactionType": "CALL",
      "contractName": null,
      "contractAddress": "0x2f925d6512b2bbb00f5a36d8b18e01fcf35f7dc7",
      "function": "setFeeMultiplier(uint8,uint256)",
      "arguments": [
        "13",
        "8"
      ],
      "transaction": {
        "from": "0xc3ca11bd8e131471904dced927b3fb7edb453179",
        "to": "0x2f925d6512b2bbb00f5a36d8b18e01fcf35f7dc7",
        "gas": "0x150fa",
        "value": "0x0",
        "input": "0x0ee24eb5000000000000000000000000000000000000000000000000000000000000000d0000000000000000000000000000000000000000000000000000000000000008",
        "nonce": "0x30",
        "chainId": "0x14a34"
      },
      "additionalContracts": [],
      "isFixedGasLimit": false
    },
    {
      "hash": "0x04a5654959dfb48467bdbd8739f7992cbb22e7d6464ac61af91cd35737ced112",
      "transactionType": "CALL",
      "contractName": null,
      "contractAddress": "0x2f925d6512b2bbb00f5a36d8b18e01fcf35f7dc7",
      "function": "setFeeMultiplier(uint8,uint256)",
      "arguments": [
        "14",
        "4"
      ],
      "transaction": {
        "from": "0xc3ca11bd8e131471904dced927b3fb7edb453179",
        "to": "0x2f925d6512b2bbb00f5a36d8b18e01fcf35f7dc7",
        "gas": "0x150fa",
        "value": "0x0",
        "input": "0x0ee24eb5000000000000000000000000000000000000000000000000000000000000000e0000000000000000000000000000000000000000000000000000000000000004",
        "nonce": "0x31",
        "chainId": "0x14a34"
      },
      "additionalContracts": [],
      "isFixedGasLimit": false
    },
    {
      "hash": "0x189b8e4847baf67279810e3befd0f1febf33b6546bfe8a5540160cc4bab8d485",
      "transactionType": "CALL",
      "contractName": null,
      "contractAddress": "0x2f925d6512b2bbb00f5a36d8b18e01fcf35f7dc7",
      "function": "setFeeMultiplier(uint8,uint256)",
      "arguments": [
        "15",
        "4"
      ],
      "transaction": {
        "from": "0xc3ca11bd8e131471904dced927b3fb7edb453179",
        "to": "0x2f925d6512b2bbb00f5a36d8b18e01fcf35f7dc7",
        "gas": "0x150fa",
        "value": "0x0",
        "input": "0x0ee24eb5000000000000000000000000000000000000000000000000000000000000000f0000000000000000000000000000000000000000000000000000000000000004",
        "nonce": "0x32",
        "chainId": "0x14a34"
      },
      "additionalContracts": [],
      "isFixedGasLimit": false
    },
    {
      "hash": "0x34e6f19f02205971bdfc39276c29076b252aba3c438927a4260199a37c95ac7c",
      "transactionType": "CALL",
      "contractName": null,
      "contractAddress": "0x2f925d6512b2bbb00f5a36d8b18e01fcf35f7dc7",
      "function": "setFeeMultiplier(uint8,uint256)",
      "arguments": [
        "16",
        "4"
      ],
      "transaction": {
        "from": "0xc3ca11bd8e131471904dced927b3fb7edb453179",
        "to": "0x2f925d6512b2bbb00f5a36d8b18e01fcf35f7dc7",
        "gas": "0x150fa",
        "value": "0x0",
        "input": "0x0ee24eb500000000000000000000000000000000000000000000000000000000000000100000000000000000000000000000000000000000000000000000000000000004",
        "nonce": "0x33",
        "chainId": "0x14a34"
      },
      "additionalContracts": [],
      "isFixedGasLimit": false
    },
    {
      "hash": "0x82149fcc94cf2420f6f08a04fe0b7a1a6b1d0b451f780df2474f5cb90ae04fc9",
      "transactionType": "CALL",
      "contractName": null,
      "contractAddress": "0x2f925d6512b2bbb00f5a36d8b18e01fcf35f7dc7",
      "function": "setFeeMultiplier(uint8,uint256)",
      "arguments": [
        "17",
        "4"
      ],
      "transaction": {
        "from": "0xc3ca11bd8e131471904dced927b3fb7edb453179",
        "to": "0x2f925d6512b2bbb00f5a36d8b18e01fcf35f7dc7",
        "gas": "0x150fa",
        "value": "0x0",
        "input": "0x0ee24eb500000000000000000000000000000000000000000000000000000000000000110000000000000000000000000000000000000000000000000000000000000004",
        "nonce": "0x34",
        "chainId": "0x14a34"
      },
      "additionalContracts": [],
      "isFixedGasLimit": false
    },
    {
      "hash": "0xc3ccc83d7799c8a63bac3cc272e6755fea2f03167aee181d977015d4ba2139e9",
      "transactionType": "CALL",
      "contractName": null,
      "contractAddress": "0x2f925d6512b2bbb00f5a36d8b18e01fcf35f7dc7",
      "function": "setFeeMultiplier(uint8,uint256)",
      "arguments": [
        "18",
        "2"
      ],
      "transaction": {
        "from": "0xc3ca11bd8e131471904dced927b3fb7edb453179",
        "to": "0x2f925d6512b2bbb00f5a36d8b18e01fcf35f7dc7",
        "gas": "0x150fa",
        "value": "0x0",
        "input": "0x0ee24eb500000000000000000000000000000000000000000000000000000000000000120000000000000000000000000000000000000000000000000000000000000002",
        "nonce": "0x35",
        "chainId": "0x14a34"
      },
      "additionalContracts": [],
      "isFixedGasLimit": false
    },
    {
      "hash": "0xd2cdf9ec414f9b66f29e5370e2f324e0bf8a6ba1d24058a7cee82b04d6f93100",
      "transactionType": "CALL",
      "contractName": null,
      "contractAddress": "0x2f925d6512b2bbb00f5a36d8b18e01fcf35f7dc7",
      "function": "setFeeMultiplier(uint8,uint256)",
      "arguments": [
        "19",
        "20"
      ],
      "transaction": {
        "from": "0xc3ca11bd8e131471904dced927b3fb7edb453179",
        "to": "0x2f925d6512b2bbb00f5a36d8b18e01fcf35f7dc7",
        "gas": "0x150fa",
        "value": "0x0",
        "input": "0x0ee24eb500000000000000000000000000000000000000000000000000000000000000130000000000000000000000000000000000000000000000000000000000000014",
        "nonce": "0x36",
        "chainId": "0x14a34"
      },
      "additionalContracts": [],
      "isFixedGasLimit": false
    },
    {
      "hash": "0x50a4e2956cc09495f49c3b8bdb5452bea81f8769970605e408e66457a44dadfe",
      "transactionType": "CALL",
      "contractName": null,
      "contractAddress": "0x2f925d6512b2bbb00f5a36d8b18e01fcf35f7dc7",
      "function": "setFeeMultiplier(uint8,uint256)",
      "arguments": [
        "20",
        "2"
      ],
      "transaction": {
        "from": "0xc3ca11bd8e131471904dced927b3fb7edb453179",
        "to": "0x2f925d6512b2bbb00f5a36d8b18e01fcf35f7dc7",
        "gas": "0x150fa",
        "value": "0x0",
        "input": "0x0ee24eb500000000000000000000000000000000000000000000000000000000000000140000000000000000000000000000000000000000000000000000000000000002",
        "nonce": "0x37",
        "chainId": "0x14a34"
      },
      "additionalContracts": [],
      "isFixedGasLimit": false
    },
    {
      "hash": "0x6bea678d58aca67939092f24abdaeed6e6176b8a6dfb92887ebc8ed15a8fba4c",
      "transactionType": "CALL",
      "contractName": null,
      "contractAddress": "0x2f925d6512b2bbb00f5a36d8b18e01fcf35f7dc7",
      "function": "setFeeMultiplier(uint8,uint256)",
      "arguments": [
        "21",
        "1"
      ],
      "transaction": {
        "from": "0xc3ca11bd8e131471904dced927b3fb7edb453179",
        "to": "0x2f925d6512b2bbb00f5a36d8b18e01fcf35f7dc7",
        "gas": "0x150fa",
        "value": "0x0",
        "input": "0x0ee24eb500000000000000000000000000000000000000000000000000000000000000150000000000000000000000000000000000000000000000000000000000000001",
        "nonce": "0x38",
        "chainId": "0x14a34"
      },
      "additionalContracts": [],
      "isFixedGasLimit": false
    },
    {
      "hash": "0x93dfe4ffd4b92722f3dfd428ab67448c2e71c78f2aa1a52cdb50f0756ac0395a",
      "transactionType": "CALL",
      "contractName": null,
      "contractAddress": "0x2f925d6512b2bbb00f5a36d8b18e01fcf35f7dc7",
      "function": "setFeeMultiplier(uint8,uint256)",
      "arguments": [
        "22",
        "1"
      ],
      "transaction": {
        "from": "0xc3ca11bd8e131471904dced927b3fb7edb453179",
        "to": "0x2f925d6512b2bbb00f5a36d8b18e01fcf35f7dc7",
        "gas": "0x150fa",
        "value": "0x0",
        "input": "0x0ee24eb500000000000000000000000000000000000000000000000000000000000000160000000000000000000000000000000000000000000000000000000000000001",
        "nonce": "0x39",
        "chainId": "0x14a34"
      },
      "additionalContracts": [],
      "isFixedGasLimit": false
    },
    {
      "hash": "0xb6e8efda88f4bb986e07bbc5b962372cbeb4869ca049d51ef80760954497f846",
      "transactionType": "CALL",
      "contractName": null,
      "contractAddress": "0x2f925d6512b2bbb00f5a36d8b18e01fcf35f7dc7",
      "function": "setFeeMultiplier(uint8,uint256)",
      "arguments": [
        "23",
        "5"
      ],
      "transaction": {
        "from": "0xc3ca11bd8e131471904dced927b3fb7edb453179",
        "to": "0x2f925d6512b2bbb00f5a36d8b18e01fcf35f7dc7",
        "gas": "0x150fa",
        "value": "0x0",
        "input": "0x0ee24eb500000000000000000000000000000000000000000000000000000000000000170000000000000000000000000000000000000000000000000000000000000005",
        "nonce": "0x3a",
        "chainId": "0x14a34"
      },
      "additionalContracts": [],
      "isFixedGasLimit": false
    },
    {
      "hash": "0x0c4ac570a6e53479b6cf82dbb2399f70aa80137596bdff7bdaeda16a47c173b8",
      "transactionType": "CALL",
      "contractName": null,
      "contractAddress": "0x2f925d6512b2bbb00f5a36d8b18e01fcf35f7dc7",
      "function": "setFeeMultiplier(uint8,uint256)",
      "arguments": [
        "24",
        "5"
      ],
      "transaction": {
        "from": "0xc3ca11bd8e131471904dced927b3fb7edb453179",
        "to": "0x2f925d6512b2bbb00f5a36d8b18e01fcf35f7dc7",
        "gas": "0x150fa",
        "value": "0x0",
        "input": "0x0ee24eb500000000000000000000000000000000000000000000000000000000000000180000000000000000000000000000000000000000000000000000000000000005",
        "nonce": "0x3b",
        "chainId": "0x14a34"
      },
      "additionalContracts": [],
      "isFixedGasLimit": false
    },
    {
      "hash": "0xa1700b10cd35dd002e038bf6392cb2c157e9becd224c6bccd726cc42b5e96de0",
      "transactionType": "CALL",
      "contractName": null,
      "contractAddress": "0x2f925d6512b2bbb00f5a36d8b18e01fcf35f7dc7",
      "function": "setFeeMultiplier(uint8,uint256)",
      "arguments": [
        "25",
        "5"
      ],
      "transaction": {
        "from": "0xc3ca11bd8e131471904dced927b3fb7edb453179",
        "to": "0x2f925d6512b2bbb00f5a36d8b18e01fcf35f7dc7",
        "gas": "0x150fa",
        "value": "0x0",
        "input": "0x0ee24eb500000000000000000000000000000000000000000000000000000000000000190000000000000000000000000000000000000000000000000000000000000005",
        "nonce": "0x3c",
        "chainId": "0x14a34"
      },
      "additionalContracts": [],
      "isFixedGasLimit": false
    },
    {
      "hash": "0x27c332c3f6b6cdd43a2064341ec1a031bbe7e1a07735ca12a320fffa52a61976",
      "transactionType": "CALL",
      "contractName": null,
      "contractAddress": "0x2f925d6512b2bbb00f5a36d8b18e01fcf35f7dc7",
      "function": "setFeeMultiplier(uint8,uint256)",
      "arguments": [
        "26",
        "5"
      ],
      "transaction": {
        "from": "0xc3ca11bd8e131471904dced927b3fb7edb453179",
        "to": "0x2f925d6512b2bbb00f5a36d8b18e01fcf35f7dc7",
        "gas": "0x150fa",
        "value": "0x0",
        "input": "0x0ee24eb5000000000000000000000000000000000000000000000000000000000000001a0000000000000000000000000000000000000000000000000000000000000005",
        "nonce": "0x3d",
        "chainId": "0x14a34"
      },
      "additionalContracts": [],
      "isFixedGasLimit": false
    },
    {
      "hash": "0xadf8f14c48552654d034575f7d94715e0da6235ff90c852cacb1762141d8b77f",
      "transactionType": "CALL",
      "contractName": null,
      "contractAddress": "0x9c9e9fad264089339aad66ff3e32d2ba1ddf6951",
      "function": "setFallback(address)",
      "arguments": [
        "0xa35EF74f047fC846Af8863e4FAc5E750eB5A59cf"
      ],
      "transaction": {
        "from": "0xc3ca11bd8e131471904dced927b3fb7edb453179",
        "to": "0x9c9e9fad264089339aad66ff3e32d2ba1ddf6951",
        "gas": "0x1a3cb",
        "value": "0x0",
        "input": "0x32b12eac000000000000000000000000a35ef74f047fc846af8863e4fac5e750eb5a59cf",
        "nonce": "0x3e",
        "chainId": "0x14a34"
      },
      "additionalContracts": [],
      "isFixedGasLimit": false
    },
    {
      "hash": "0x62464c0cf0c959c2f4ec1e5379ad2a5e1cc357ff30b02b5acc34d1d67c178b76",
      "transactionType": "CALL",
      "contractName": null,
      "contractAddress": "0x9c9e9fad264089339aad66ff3e32d2ba1ddf6951",
      "function": "setCtmRwaDeployer(address)",
      "arguments": [
        "0xE912F7c7A59470a6E3f178388106E3caa9e6fbd1"
      ],
      "transaction": {
        "from": "0xc3ca11bd8e131471904dced927b3fb7edb453179",
        "to": "0x9c9e9fad264089339aad66ff3e32d2ba1ddf6951",
        "gas": "0x12314",
        "value": "0x0",
        "input": "0xf1e4f707000000000000000000000000e912f7c7a59470a6e3f178388106e3caa9e6fbd1",
        "nonce": "0x3f",
        "chainId": "0x14a34"
      },
      "additionalContracts": [],
      "isFixedGasLimit": false
    },
    {
      "hash": "0xe4fa7049b5fbe5adb8f95e0b856e9d4c4b7b1697402ab27a59c1da31e518867e",
      "transactionType": "CALL",
      "contractName": null,
      "contractAddress": "0x9c9e9fad264089339aad66ff3e32d2ba1ddf6951",
      "function": "setCtmRwaMap(address)",
      "arguments": [
        "0x2026027054F5beBCEB650aBD62dC623e327658e7"
      ],
      "transaction": {
        "from": "0xc3ca11bd8e131471904dced927b3fb7edb453179",
        "to": "0x9c9e9fad264089339aad66ff3e32d2ba1ddf6951",
        "gas": "0x21040",
        "value": "0x0",
        "input": "0x08add95f0000000000000000000000002026027054f5bebceb650abd62dc623e327658e7",
        "nonce": "0x40",
        "chainId": "0x14a34"
      },
      "additionalContracts": [],
      "isFixedGasLimit": false
    },
    {
      "hash": "0xf2c774c20101067cc3d93fe76cc8b752ec365501c8756fc6ef8d1dad5cc9d784",
      "transactionType": "CALL",
      "contractName": null,
      "contractAddress": "0xe912f7c7a59470a6e3f178388106e3caa9e6fbd1",
      "function": "setDeployInvest(address)",
      "arguments": [
        "0x082D752d0f439aa7F69c2c6BE79fF7056515636D"
      ],
      "transaction": {
        "from": "0xc3ca11bd8e131471904dced927b3fb7edb453179",
        "to": "0xe912f7c7a59470a6e3f178388106e3caa9e6fbd1",
        "gas": "0x13028",
        "value": "0x0",
        "input": "0x51ae9e56000000000000000000000000082d752d0f439aa7f69c2c6be79ff7056515636d",
        "nonce": "0x41",
        "chainId": "0x14a34"
      },
      "additionalContracts": [],
      "isFixedGasLimit": false
    },
    {
      "hash": "0xb64ec3a8674ee61237c24fbdbe1b6d961930263d3f409007253a28999b6ca32e",
      "transactionType": "CALL",
      "contractName": null,
      "contractAddress": "0xe912f7c7a59470a6e3f178388106e3caa9e6fbd1",
      "function": "setErc20DeployerAddress(address)",
      "arguments": [
        "0xEbC3c7C5f2EE040db257bf4e3c7d5794818a13F8"
      ],
      "transaction": {
        "from": "0xc3ca11bd8e131471904dced927b3fb7edb453179",
        "to": "0xe912f7c7a59470a6e3f178388106e3caa9e6fbd1",
        "gas": "0x12f06",
        "value": "0x0",
        "input": "0x0eab9e49000000000000000000000000ebc3c7c5f2ee040db257bf4e3c7d5794818a13f8",
        "nonce": "0x42",
        "chainId": "0x14a34"
      },
      "additionalContracts": [],
      "isFixedGasLimit": false
    },
    {
      "hash": "0xa8986ac1fb50a37dcb70c15df4c7fd7b5dfca4950bb860959a514c20d5392f9f",
      "transactionType": "CALL",
      "contractName": null,
      "contractAddress": "0xe912f7c7a59470a6e3f178388106e3caa9e6fbd1",
      "function": "setTokenFactory(uint256,uint256,address)",
      "arguments": [
        "1",
        "1",
        "0x902e297ef81a3250f9F20D73b7465ac5d4966241"
      ],
      "transaction": {
        "from": "0xc3ca11bd8e131471904dced927b3fb7edb453179",
        "to": "0xe912f7c7a59470a6e3f178388106e3caa9e6fbd1",
        "gas": "0x1253d",
        "value": "0x0",
        "input": "0xf1a31c6d00000000000000000000000000000000000000000000000000000000000000010000000000000000000000000000000000000000000000000000000000000001000000000000000000000000902e297ef81a3250f9f20d73b7465ac5d4966241",
        "nonce": "0x43",
        "chainId": "0x14a34"
      },
      "additionalContracts": [],
      "isFixedGasLimit": false
    },
    {
      "hash": "0x03d8ae98a67160f529d728f41a763f6c98e0d313e51502b85a22967d447922ee",
      "transactionType": "CALL",
      "contractName": null,
      "contractAddress": "0xe912f7c7a59470a6e3f178388106e3caa9e6fbd1",
      "function": "setDividendFactory(uint256,uint256,address)",
      "arguments": [
        "1",
        "1",
        "0xbF5F67A9387a488a9aC054FCD49E39fBF37E79b0"
      ],
      "transaction": {
        "from": "0xc3ca11bd8e131471904dced927b3fb7edb453179",
        "to": "0xe912f7c7a59470a6e3f178388106e3caa9e6fbd1",
        "gas": "0x123a3",
        "value": "0x0",
        "input": "0xae7b00fc00000000000000000000000000000000000000000000000000000000000000010000000000000000000000000000000000000000000000000000000000000001000000000000000000000000bf5f67a9387a488a9ac054fcd49e39fbf37e79b0",
        "nonce": "0x44",
        "chainId": "0x14a34"
      },
      "additionalContracts": [],
      "isFixedGasLimit": false
    },
    {
      "hash": "0x85eb01bc23c89441a9be3736ff307afb1277d6f571272097c6c39ef892403fe2",
      "transactionType": "CALL",
      "contractName": null,
      "contractAddress": "0xe912f7c7a59470a6e3f178388106e3caa9e6fbd1",
      "function": "setStorageFactory(uint256,uint256,address)",
      "arguments": [
        "1",
        "1",
        "0x92228B058f25Bc4fb333fA296dDdECBdDf6496f3"
      ],
      "transaction": {
        "from": "0xc3ca11bd8e131471904dced927b3fb7edb453179",
        "to": "0xe912f7c7a59470a6e3f178388106e3caa9e6fbd1",
        "gas": "0x12246",
        "value": "0x0",
        "input": "0x5b2004dc0000000000000000000000000000000000000000000000000000000000000001000000000000000000000000000000000000000000000000000000000000000100000000000000000000000092228b058f25bc4fb333fa296dddecbddf6496f3",
        "nonce": "0x45",
        "chainId": "0x14a34"
      },
      "additionalContracts": [],
      "isFixedGasLimit": false
    },
    {
      "hash": "0x1c952805892f87a4105b8d89277733482eb988808cf171cb4b95724b1fca3b4c",
      "transactionType": "CALL",
      "contractName": null,
      "contractAddress": "0xe912f7c7a59470a6e3f178388106e3caa9e6fbd1",
      "function": "setSentryFactory(uint256,uint256,address)",
      "arguments": [
        "1",
        "1",
        "0x2AF842C6517CF30Fb3456aeF485230e0DD085845"
      ],
      "transaction": {
        "from": "0xc3ca11bd8e131471904dced927b3fb7edb453179",
        "to": "0xe912f7c7a59470a6e3f178388106e3caa9e6fbd1",
        "gas": "0x12339",
        "value": "0x0",
        "input": "0x9aa3f089000000000000000000000000000000000000000000000000000000000000000100000000000000000000000000000000000000000000000000000000000000010000000000000000000000002af842c6517cf30fb3456aef485230e0dd085845",
        "nonce": "0x46",
        "chainId": "0x14a34"
      },
      "additionalContracts": [],
      "isFixedGasLimit": false
    },
    {
      "hash": "0x7d0cc17207cdd31e6244a74b2cf2e9cd0a4cef685454261fe36e518cd2a795d6",
      "transactionType": "CALL",
      "contractName": null,
      "contractAddress": "0x92228b058f25bc4fb333fa296dddecbddf6496f3",
      "function": "setStorageUtils(address)",
      "arguments": [
        "0xee6A66C156EADfefA260618627dF5BCbA04fD2B1"
      ],
      "transaction": {
        "from": "0xc3ca11bd8e131471904dced927b3fb7edb453179",
        "to": "0x92228b058f25bc4fb333fa296dddecbddf6496f3",
        "gas": "0x11fb7",
        "value": "0x0",
        "input": "0x9dcbd16c000000000000000000000000ee6a66c156eadfefa260618627df5bcba04fd2b1",
        "nonce": "0x47",
        "chainId": "0x14a34"
      },
      "additionalContracts": [],
      "isFixedGasLimit": false
    },
    {
      "hash": "0xd29fcdf6290ccfbd530ec31eaf91e7f8f3fc5219c04ff383166d5bbe113e28cb",
      "transactionType": "CALL",
      "contractName": null,
      "contractAddress": "0x92228b058f25bc4fb333fa296dddecbddf6496f3",
      "function": "setCtmRwaDeployer(address)",
      "arguments": [
        "0xE912F7c7A59470a6E3f178388106E3caa9e6fbd1"
      ],
      "transaction": {
        "from": "0xc3ca11bd8e131471904dced927b3fb7edb453179",
        "to": "0x92228b058f25bc4fb333fa296dddecbddf6496f3",
        "gas": "0xb5f5",
        "value": "0x0",
        "input": "0xf1e4f707000000000000000000000000e912f7c7a59470a6e3f178388106e3caa9e6fbd1",
        "nonce": "0x48",
        "chainId": "0x14a34"
      },
      "additionalContracts": [],
      "isFixedGasLimit": false
    },
    {
      "hash": "0x7fb644ce2f70b56f62d8905abd5f3ceeff46e8e3249b438262067e9b7ba7ae99",
      "transactionType": "CALL",
      "contractName": null,
      "contractAddress": "0x92228b058f25bc4fb333fa296dddecbddf6496f3",
      "function": "setCtmRwaMap(address)",
      "arguments": [
        "0x2026027054F5beBCEB650aBD62dC623e327658e7"
      ],
      "transaction": {
        "from": "0xc3ca11bd8e131471904dced927b3fb7edb453179",
        "to": "0x92228b058f25bc4fb333fa296dddecbddf6496f3",
        "gas": "0x11e4b",
        "value": "0x0",
        "input": "0x08add95f0000000000000000000000002026027054f5bebceb650abd62dc623e327658e7",
        "nonce": "0x49",
        "chainId": "0x14a34"
      },
      "additionalContracts": [],
      "isFixedGasLimit": false
    },
    {
      "hash": "0xa53dad66ad8391320a32b52e487c4c6d86d8d794ef6597452ab4e53b205776cc",
      "transactionType": "CALL",
      "contractName": null,
      "contractAddress": "0x2af842c6517cf30fb3456aef485230e0dd085845",
      "function": "setSentryUtils(address)",
      "arguments": [
        "0x1CBc0DE1CD20d6D80ae755275A63DBc9B1131a7C"
      ],
      "transaction": {
        "from": "0xc3ca11bd8e131471904dced927b3fb7edb453179",
        "to": "0x2af842c6517cf30fb3456aef485230e0dd085845",
        "gas": "0x1306f",
        "value": "0x0",
        "input": "0x672f91940000000000000000000000001cbc0de1cd20d6d80ae755275a63dbc9b1131a7c",
        "nonce": "0x4a",
        "chainId": "0x14a34"
      },
      "additionalContracts": [],
      "isFixedGasLimit": false
    },
    {
      "hash": "0xff519f39b850fc7ff5eec07df27d07c1065d34811469e951a2005468179acb41",
      "transactionType": "CALL",
      "contractName": null,
      "contractAddress": "0x2af842c6517cf30fb3456aef485230e0dd085845",
      "function": "setCtmRwaDeployer(address)",
      "arguments": [
        "0xE912F7c7A59470a6E3f178388106E3caa9e6fbd1"
      ],
      "transaction": {
        "from": "0xc3ca11bd8e131471904dced927b3fb7edb453179",
        "to": "0x2af842c6517cf30fb3456aef485230e0dd085845",
        "gas": "0xb6ca",
        "value": "0x0",
        "input": "0xf1e4f707000000000000000000000000e912f7c7a59470a6e3f178388106e3caa9e6fbd1",
        "nonce": "0x4b",
        "chainId": "0x14a34"
      },
      "additionalContracts": [],
      "isFixedGasLimit": false
    },
    {
      "hash": "0x15e6ee43edf4966620b3f701c7eb61cce022f0fca14ddc4a33902eec319430a0",
      "transactionType": "CALL",
      "contractName": null,
      "contractAddress": "0x2af842c6517cf30fb3456aef485230e0dd085845",
      "function": "setCtmRwaMap(address)",
      "arguments": [
        "0x2026027054F5beBCEB650aBD62dC623e327658e7"
      ],
      "transaction": {
        "from": "0xc3ca11bd8e131471904dced927b3fb7edb453179",
        "to": "0x2af842c6517cf30fb3456aef485230e0dd085845",
        "gas": "0x11e2d",
        "value": "0x0",
        "input": "0x08add95f0000000000000000000000002026027054f5bebceb650abd62dc623e327658e7",
        "nonce": "0x4c",
        "chainId": "0x14a34"
      },
      "additionalContracts": [],
      "isFixedGasLimit": false
    },
    {
      "hash": "0x2909e00f0d1c8f660910a99d26136320d7b834ac3ecdc6aff9828ce21058be0f",
      "transactionType": "CALL",
      "contractName": null,
      "contractAddress": "0x58b610a359c870e0fc941139821a51f5aa23f14e",
      "function": "addChainContract(string[],string[])",
      "arguments": [
        "[11155111, 17000, 1946, 421614, 43113, 534351, 5611, 97]",
        "[0x58B610a359c870E0fc941139821a51F5aa23f14E, 0x58B610a359c870E0fc941139821a51F5aa23f14E, 0x58B610a359c870E0fc941139821a51F5aa23f14E, 0x58B610a359c870E0fc941139821a51F5aa23f14E, 0x58B610a359c870E0fc941139821a51F5aa23f14E, 0x58B610a359c870E0fc941139821a51F5aa23f14E, 0x58B610a359c870E0fc941139821a51F5aa23f14E, 0x58B610a359c870E0fc941139821a51F5aa23f14E]"
      ],
      "transaction": {
        "from": "0xc3ca11bd8e131471904dced927b3fb7edb453179",
        "to": "0x58b610a359c870e0fc941139821a51f5aa23f14e",
        "gas": "0x15b87c",
        "value": "0x0",
        "input": "0x013fd3bd00000000000000000000000000000000000000000000000000000000000000400000000000000000000000000000000000000000000000000000000000000360000000000000000000000000000000000000000000000000000000000000000800000000000000000000000000000000000000000000000000000000000001000000000000000000000000000000000000000000000000000000000000000140000000000000000000000000000000000000000000000000000000000000018000000000000000000000000000000000000000000000000000000000000001c000000000000000000000000000000000000000000000000000000000000002000000000000000000000000000000000000000000000000000000000000000240000000000000000000000000000000000000000000000000000000000000028000000000000000000000000000000000000000000000000000000000000002c0000000000000000000000000000000000000000000000000000000000000000831313135353131310000000000000000000000000000000000000000000000000000000000000000000000000000000000000000000000000000000000000005313730303000000000000000000000000000000000000000000000000000000000000000000000000000000000000000000000000000000000000000000000043139343600000000000000000000000000000000000000000000000000000000000000000000000000000000000000000000000000000000000000000000000634323136313400000000000000000000000000000000000000000000000000000000000000000000000000000000000000000000000000000000000000000005343331313300000000000000000000000000000000000000000000000000000000000000000000000000000000000000000000000000000000000000000000063533343335310000000000000000000000000000000000000000000000000000000000000000000000000000000000000000000000000000000000000000000435363131000000000000000000000000000000000000000000000000000000000000000000000000000000000000000000000000000000000000000000000002393700000000000000000000000000000000000000000000000000000000000000000000000000000000000000000000000000000000000000000000000000080000000000000000000000000000000000000000000000000000000000000100000000000000000000000000000000000000000000000000000000000000016000000000000000000000000000000000000000000000000000000000000001c00000000000000000000000000000000000000000000000000000000000000220000000000000000000000000000000000000000000000000000000000000028000000000000000000000000000000000000000000000000000000000000002e0000000000000000000000000000000000000000000000000000000000000034000000000000000000000000000000000000000000000000000000000000003a0000000000000000000000000000000000000000000000000000000000000002a30783538423631306133353963383730453066633934313133393832316135314635616132336631344500000000000000000000000000000000000000000000000000000000000000000000000000000000000000000000000000000000002a30783538423631306133353963383730453066633934313133393832316135314635616132336631344500000000000000000000000000000000000000000000000000000000000000000000000000000000000000000000000000000000002a30783538423631306133353963383730453066633934313133393832316135314635616132336631344500000000000000000000000000000000000000000000000000000000000000000000000000000000000000000000000000000000002a30783538423631306133353963383730453066633934313133393832316135314635616132336631344500000000000000000000000000000000000000000000000000000000000000000000000000000000000000000000000000000000002a30783538423631306133353963383730453066633934313133393832316135314635616132336631344500000000000000000000000000000000000000000000000000000000000000000000000000000000000000000000000000000000002a30783538423631306133353963383730453066633934313133393832316135314635616132336631344500000000000000000000000000000000000000000000000000000000000000000000000000000000000000000000000000000000002a30783538423631306133353963383730453066633934313133393832316135314635616132336631344500000000000000000000000000000000000000000000000000000000000000000000000000000000000000000000000000000000002a30783538423631306133353963383730453066633934313133393832316135314635616132336631344500000000000000000000000000000000000000000000",
        "nonce": "0x4d",
        "chainId": "0x14a34"
      },
      "additionalContracts": [],
      "isFixedGasLimit": false
    },
    {
      "hash": "0xc9a2b13c9de9d472d8e7f31bd69db062a513b7af1bb3295c191bb49d215d9573",
      "transactionType": "CALL",
      "contractName": null,
      "contractAddress": "0x58b610a359c870e0fc941139821a51f5aa23f14e",
      "function": "attachRWAX(uint256,uint256,string[],string[])",
      "arguments": [
        "1",
        "1",
        "[11155111, 17000, 1946, 421614, 43113, 534351, 5611, 97]",
        "[0x9C9e9Fad264089339aAd66Ff3e32D2bA1DdF6951, 0x9C9e9Fad264089339aAd66Ff3e32D2bA1DdF6951, 0x9C9e9Fad264089339aAd66Ff3e32D2bA1DdF6951, 0x9C9e9Fad264089339aAd66Ff3e32D2bA1DdF6951, 0x9C9e9Fad264089339aAd66Ff3e32D2bA1DdF6951, 0x9C9e9Fad264089339aAd66Ff3e32D2bA1DdF6951, 0x9C9e9Fad264089339aAd66Ff3e32D2bA1DdF6951, 0x9C9e9Fad264089339aAd66Ff3e32D2bA1DdF6951]"
      ],
      "transaction": {
        "from": "0xc3ca11bd8e131471904dced927b3fb7edb453179",
        "to": "0x58b610a359c870e0fc941139821a51f5aa23f14e",
        "gas": "0x19540a",
        "value": "0x0",
        "input": "0x33a5f5b400000000000000000000000000000000000000000000000000000000000000010000000000000000000000000000000000000000000000000000000000000001000000000000000000000000000000000000000000000000000000000000008000000000000000000000000000000000000000000000000000000000000003a0000000000000000000000000000000000000000000000000000000000000000800000000000000000000000000000000000000000000000000000000000001000000000000000000000000000000000000000000000000000000000000000140000000000000000000000000000000000000000000000000000000000000018000000000000000000000000000000000000000000000000000000000000001c000000000000000000000000000000000000000000000000000000000000002000000000000000000000000000000000000000000000000000000000000000240000000000000000000000000000000000000000000000000000000000000028000000000000000000000000000000000000000000000000000000000000002c0000000000000000000000000000000000000000000000000000000000000000831313135353131310000000000000000000000000000000000000000000000000000000000000000000000000000000000000000000000000000000000000005313730303000000000000000000000000000000000000000000000000000000000000000000000000000000000000000000000000000000000000000000000043139343600000000000000000000000000000000000000000000000000000000000000000000000000000000000000000000000000000000000000000000000634323136313400000000000000000000000000000000000000000000000000000000000000000000000000000000000000000000000000000000000000000005343331313300000000000000000000000000000000000000000000000000000000000000000000000000000000000000000000000000000000000000000000063533343335310000000000000000000000000000000000000000000000000000000000000000000000000000000000000000000000000000000000000000000435363131000000000000000000000000000000000000000000000000000000000000000000000000000000000000000000000000000000000000000000000002393700000000000000000000000000000000000000000000000000000000000000000000000000000000000000000000000000000000000000000000000000080000000000000000000000000000000000000000000000000000000000000100000000000000000000000000000000000000000000000000000000000000016000000000000000000000000000000000000000000000000000000000000001c00000000000000000000000000000000000000000000000000000000000000220000000000000000000000000000000000000000000000000000000000000028000000000000000000000000000000000000000000000000000000000000002e0000000000000000000000000000000000000000000000000000000000000034000000000000000000000000000000000000000000000000000000000000003a0000000000000000000000000000000000000000000000000000000000000002a30783943396539466164323634303839333339614164363646663365333244326241314464463639353100000000000000000000000000000000000000000000000000000000000000000000000000000000000000000000000000000000002a30783943396539466164323634303839333339614164363646663365333244326241314464463639353100000000000000000000000000000000000000000000000000000000000000000000000000000000000000000000000000000000002a30783943396539466164323634303839333339614164363646663365333244326241314464463639353100000000000000000000000000000000000000000000000000000000000000000000000000000000000000000000000000000000002a30783943396539466164323634303839333339614164363646663365333244326241314464463639353100000000000000000000000000000000000000000000000000000000000000000000000000000000000000000000000000000000002a30783943396539466164323634303839333339614164363646663365333244326241314464463639353100000000000000000000000000000000000000000000000000000000000000000000000000000000000000000000000000000000002a30783943396539466164323634303839333339614164363646663365333244326241314464463639353100000000000000000000000000000000000000000000000000000000000000000000000000000000000000000000000000000000002a30783943396539466164323634303839333339614164363646663365333244326241314464463639353100000000000000000000000000000000000000000000000000000000000000000000000000000000000000000000000000000000002a30783943396539466164323634303839333339614164363646663365333244326241314464463639353100000000000000000000000000000000000000000000",
        "nonce": "0x4e",
        "chainId": "0x14a34"
      },
      "additionalContracts": [],
      "isFixedGasLimit": false
    },
    {
      "hash": "0x7b390a8d60e32c5d54452cad419713c4517624e9fa32de593be864023cf6e776",
      "transactionType": "CALL",
      "contractName": null,
      "contractAddress": "0x58b610a359c870e0fc941139821a51f5aa23f14e",
      "function": "attachStorageManager(uint256,uint256,string[],string[])",
      "arguments": [
        "1",
        "1",
        "[11155111, 17000, 1946, 421614, 43113, 534351, 5611, 97]",
        "[0x92228B058f25Bc4fb333fA296dDdECBdDf6496f3, 0x92228B058f25Bc4fb333fA296dDdECBdDf6496f3, 0x92228B058f25Bc4fb333fA296dDdECBdDf6496f3, 0x92228B058f25Bc4fb333fA296dDdECBdDf6496f3, 0x92228B058f25Bc4fb333fA296dDdECBdDf6496f3, 0x92228B058f25Bc4fb333fA296dDdECBdDf6496f3, 0x92228B058f25Bc4fb333fA296dDdECBdDf6496f3, 0x92228B058f25Bc4fb333fA296dDdECBdDf6496f3]"
      ],
      "transaction": {
        "from": "0xc3ca11bd8e131471904dced927b3fb7edb453179",
        "to": "0x58b610a359c870e0fc941139821a51f5aa23f14e",
        "gas": "0x14fe14",
        "value": "0x0",
        "input": "0x2f68b48900000000000000000000000000000000000000000000000000000000000000010000000000000000000000000000000000000000000000000000000000000001000000000000000000000000000000000000000000000000000000000000008000000000000000000000000000000000000000000000000000000000000003a0000000000000000000000000000000000000000000000000000000000000000800000000000000000000000000000000000000000000000000000000000001000000000000000000000000000000000000000000000000000000000000000140000000000000000000000000000000000000000000000000000000000000018000000000000000000000000000000000000000000000000000000000000001c000000000000000000000000000000000000000000000000000000000000002000000000000000000000000000000000000000000000000000000000000000240000000000000000000000000000000000000000000000000000000000000028000000000000000000000000000000000000000000000000000000000000002c0000000000000000000000000000000000000000000000000000000000000000831313135353131310000000000000000000000000000000000000000000000000000000000000000000000000000000000000000000000000000000000000005313730303000000000000000000000000000000000000000000000000000000000000000000000000000000000000000000000000000000000000000000000043139343600000000000000000000000000000000000000000000000000000000000000000000000000000000000000000000000000000000000000000000000634323136313400000000000000000000000000000000000000000000000000000000000000000000000000000000000000000000000000000000000000000005343331313300000000000000000000000000000000000000000000000000000000000000000000000000000000000000000000000000000000000000000000063533343335310000000000000000000000000000000000000000000000000000000000000000000000000000000000000000000000000000000000000000000435363131000000000000000000000000000000000000000000000000000000000000000000000000000000000000000000000000000000000000000000000002393700000000000000000000000000000000000000000000000000000000000000000000000000000000000000000000000000000000000000000000000000080000000000000000000000000000000000000000000000000000000000000100000000000000000000000000000000000000000000000000000000000000016000000000000000000000000000000000000000000000000000000000000001c00000000000000000000000000000000000000000000000000000000000000220000000000000000000000000000000000000000000000000000000000000028000000000000000000000000000000000000000000000000000000000000002e0000000000000000000000000000000000000000000000000000000000000034000000000000000000000000000000000000000000000000000000000000003a0000000000000000000000000000000000000000000000000000000000000002a30783932323238423035386632354263346662333333664132393664446445434264446636343936663300000000000000000000000000000000000000000000000000000000000000000000000000000000000000000000000000000000002a30783932323238423035386632354263346662333333664132393664446445434264446636343936663300000000000000000000000000000000000000000000000000000000000000000000000000000000000000000000000000000000002a30783932323238423035386632354263346662333333664132393664446445434264446636343936663300000000000000000000000000000000000000000000000000000000000000000000000000000000000000000000000000000000002a30783932323238423035386632354263346662333333664132393664446445434264446636343936663300000000000000000000000000000000000000000000000000000000000000000000000000000000000000000000000000000000002a30783932323238423035386632354263346662333333664132393664446445434264446636343936663300000000000000000000000000000000000000000000000000000000000000000000000000000000000000000000000000000000002a30783932323238423035386632354263346662333333664132393664446445434264446636343936663300000000000000000000000000000000000000000000000000000000000000000000000000000000000000000000000000000000002a30783932323238423035386632354263346662333333664132393664446445434264446636343936663300000000000000000000000000000000000000000000000000000000000000000000000000000000000000000000000000000000002a30783932323238423035386632354263346662333333664132393664446445434264446636343936663300000000000000000000000000000000000000000000",
        "nonce": "0x4f",
        "chainId": "0x14a34"
      },
      "additionalContracts": [],
      "isFixedGasLimit": false
    },
    {
      "hash": "0x99ae147dda4b6fd0a7a8f1199d101787bee2ccce3e4b1a55429b0c2bc4aa314e",
      "transactionType": "CALL",
      "contractName": null,
      "contractAddress": "0x58b610a359c870e0fc941139821a51f5aa23f14e",
      "function": "attachSentryManager(uint256,uint256,string[],string[])",
      "arguments": [
        "1",
        "1",
        "[11155111, 17000, 1946, 421614, 43113, 534351, 5611, 97]",
        "[0x2AF842C6517CF30Fb3456aeF485230e0DD085845, 0x2AF842C6517CF30Fb3456aeF485230e0DD085845, 0x2AF842C6517CF30Fb3456aeF485230e0DD085845, 0x2AF842C6517CF30Fb3456aeF485230e0DD085845, 0x2AF842C6517CF30Fb3456aeF485230e0DD085845, 0x2AF842C6517CF30Fb3456aeF485230e0DD085845, 0x2AF842C6517CF30Fb3456aeF485230e0DD085845, 0x2AF842C6517CF30Fb3456aeF485230e0DD085845]"
      ],
      "transaction": {
        "from": "0xc3ca11bd8e131471904dced927b3fb7edb453179",
        "to": "0x58b610a359c870e0fc941139821a51f5aa23f14e",
        "gas": "0x1623e0",
        "value": "0x0",
        "input": "0x349de79700000000000000000000000000000000000000000000000000000000000000010000000000000000000000000000000000000000000000000000000000000001000000000000000000000000000000000000000000000000000000000000008000000000000000000000000000000000000000000000000000000000000003a0000000000000000000000000000000000000000000000000000000000000000800000000000000000000000000000000000000000000000000000000000001000000000000000000000000000000000000000000000000000000000000000140000000000000000000000000000000000000000000000000000000000000018000000000000000000000000000000000000000000000000000000000000001c000000000000000000000000000000000000000000000000000000000000002000000000000000000000000000000000000000000000000000000000000000240000000000000000000000000000000000000000000000000000000000000028000000000000000000000000000000000000000000000000000000000000002c0000000000000000000000000000000000000000000000000000000000000000831313135353131310000000000000000000000000000000000000000000000000000000000000000000000000000000000000000000000000000000000000005313730303000000000000000000000000000000000000000000000000000000000000000000000000000000000000000000000000000000000000000000000043139343600000000000000000000000000000000000000000000000000000000000000000000000000000000000000000000000000000000000000000000000634323136313400000000000000000000000000000000000000000000000000000000000000000000000000000000000000000000000000000000000000000005343331313300000000000000000000000000000000000000000000000000000000000000000000000000000000000000000000000000000000000000000000063533343335310000000000000000000000000000000000000000000000000000000000000000000000000000000000000000000000000000000000000000000435363131000000000000000000000000000000000000000000000000000000000000000000000000000000000000000000000000000000000000000000000002393700000000000000000000000000000000000000000000000000000000000000000000000000000000000000000000000000000000000000000000000000080000000000000000000000000000000000000000000000000000000000000100000000000000000000000000000000000000000000000000000000000000016000000000000000000000000000000000000000000000000000000000000001c00000000000000000000000000000000000000000000000000000000000000220000000000000000000000000000000000000000000000000000000000000028000000000000000000000000000000000000000000000000000000000000002e0000000000000000000000000000000000000000000000000000000000000034000000000000000000000000000000000000000000000000000000000000003a0000000000000000000000000000000000000000000000000000000000000002a30783241463834324336353137434633304662333435366165463438353233306530444430383538343500000000000000000000000000000000000000000000000000000000000000000000000000000000000000000000000000000000002a30783241463834324336353137434633304662333435366165463438353233306530444430383538343500000000000000000000000000000000000000000000000000000000000000000000000000000000000000000000000000000000002a30783241463834324336353137434633304662333435366165463438353233306530444430383538343500000000000000000000000000000000000000000000000000000000000000000000000000000000000000000000000000000000002a30783241463834324336353137434633304662333435366165463438353233306530444430383538343500000000000000000000000000000000000000000000000000000000000000000000000000000000000000000000000000000000002a30783241463834324336353137434633304662333435366165463438353233306530444430383538343500000000000000000000000000000000000000000000000000000000000000000000000000000000000000000000000000000000002a30783241463834324336353137434633304662333435366165463438353233306530444430383538343500000000000000000000000000000000000000000000000000000000000000000000000000000000000000000000000000000000002a30783241463834324336353137434633304662333435366165463438353233306530444430383538343500000000000000000000000000000000000000000000000000000000000000000000000000000000000000000000000000000000002a30783241463834324336353137434633304662333435366165463438353233306530444430383538343500000000000000000000000000000000000000000000",
        "nonce": "0x50",
        "chainId": "0x14a34"
      },
      "additionalContracts": [],
      "isFixedGasLimit": false
    }
  ],
  "receipts": [
    {
      "status": "0x1",
      "cumulativeGasUsed": "0x9db3f",
      "logs": [],
      "logsBloom": "0x00000000000000000000000000000000000000000000000000000000000000000000000000000000000000000000000000000000000000000000000000000000000000000000000000000000000000000000000000000000000000000000000000000000000000000000000000000000000000000000000000000000000000000000000000000000000000000000000000000000000000000000000000000000000000000000000000000000000000000000000000000000000000000000000000000000000000000000000000000000000000000000000000000000000000000000000000000000000000000000000000000000000000000000000000000000",
      "type": "0x2",
      "transactionHash": "0x9407cc831edca61ce0ff052c2f7f59b3fd9cdd05bce19e8354c854af77db5c37",
      "transactionIndex": "0x7",
      "blockHash": "0x55137053787337faf74520dd9d6a4e69cf36f69f3730072917a3dcb065a860fd",
      "blockNumber": "0x1c17a13",
      "gasUsed": "0x71c0",
      "effectiveGasPrice": "0xf4275",
      "from": "0xc3ca11bd8e131471904dced927b3fb7edb453179",
      "to": "0x2f925d6512b2bbb00f5a36d8b18e01fcf35f7dc7",
      "contractAddress": null,
      "l1BaseFeeScalar": "0x44d",
      "l1BlobBaseFee": "0xa1e8dde",
      "l1BlobBaseFeeScalar": "0xa118b",
      "l1Fee": "0x29bbb533e",
      "l1GasPrice": "0xc415",
      "l1GasUsed": "0x640"
    },
    {
      "status": "0x1",
      "cumulativeGasUsed": "0x163c01",
      "logs": [
        {
          "address": "0x2f925d6512b2bbb00f5a36d8b18e01fcf35f7dc7",
          "topics": [
            "0x1394cfab38f3fc78ed77ea6f9318782a446d96e7dc8e9a6b0149f6be25c08bcf",
            "0x0000000000000000000000006a4dbc971533ba36bdc23ad70f5a7a12e064f4ae"
          ],
          "data": "0x",
          "blockHash": "0xd9f4f3ea5ee21998061e24fb15b6967527e1c385a9586e351281b6dda7632176",
          "blockNumber": "0x1c17a14",
          "transactionHash": "0xf3e48431a66f46dfe879dfac06e490e0f1e5c5439848a91cb2d096d9720b1028",
          "transactionIndex": "0x7",
          "logIndex": "0x36",
          "removed": false
        }
      ],
      "logsBloom": "0x00000000000000000000000000000000000200000000000000000000000000000000000000000000000000000000000000000000000000001000000000000000000000000000000000000000000000000000001000000000000000000000000000000000000000000000000000000000000000000000000000000000000000000000000500000000000000000000000000000000000000000000000000000000000000000000000000000000000000000000000100000000000000000000004000000000000000000000000000004000000000002000000000000000000000000000000000000000000000000000000000000000000000000000000000000000",
      "type": "0x2",
      "transactionHash": "0xf3e48431a66f46dfe879dfac06e490e0f1e5c5439848a91cb2d096d9720b1028",
      "transactionIndex": "0x7",
      "blockHash": "0xd9f4f3ea5ee21998061e24fb15b6967527e1c385a9586e351281b6dda7632176",
      "blockNumber": "0x1c17a14",
      "gasUsed": "0x1e3f9",
      "effectiveGasPrice": "0xf4275",
      "from": "0xc3ca11bd8e131471904dced927b3fb7edb453179",
      "to": "0x2f925d6512b2bbb00f5a36d8b18e01fcf35f7dc7",
      "contractAddress": null,
      "l1BaseFeeScalar": "0x44d",
      "l1BlobBaseFee": "0xa1e8dde",
      "l1BlobBaseFeeScalar": "0xa118b",
      "l1Fee": "0x2d6a1b64c",
      "l1GasPrice": "0xc415",
      "l1GasUsed": "0x6cd"
    },
    {
      "status": "0x1",
      "cumulativeGasUsed": "0x59ca1",
      "logs": [],
      "logsBloom": "0x00000000000000000000000000000000000000000000000000000000000000000000000000000000000000000000000000000000000000000000000000000000000000000000000000000000000000000000000000000000000000000000000000000000000000000000000000000000000000000000000000000000000000000000000000000000000000000000000000000000000000000000000000000000000000000000000000000000000000000000000000000000000000000000000000000000000000000000000000000000000000000000000000000000000000000000000000000000000000000000000000000000000000000000000000000000",
      "type": "0x2",
      "transactionHash": "0xb8fb61a65ace48931f3cd26286b702263fe0c9034c95ebf850bbea4200c54883",
      "transactionIndex": "0x3",
      "blockHash": "0x8ff82def307fcca161bcf528a6b9a419726242a7d633d38252f956d45fd6ee41",
      "blockNumber": "0x1c17a16",
      "gasUsed": "0x19b1f",
      "effectiveGasPrice": "0xf4275",
      "from": "0xc3ca11bd8e131471904dced927b3fb7edb453179",
      "to": "0x2f925d6512b2bbb00f5a36d8b18e01fcf35f7dc7",
      "contractAddress": null,
      "l1BaseFeeScalar": "0x44d",
      "l1BlobBaseFee": "0xa1e8dde",
      "l1BlobBaseFeeScalar": "0xa118b",
      "l1Fee": "0x3d791747c",
      "l1GasPrice": "0xc415",
      "l1GasUsed": "0x934"
    },
    {
      "status": "0x1",
      "cumulativeGasUsed": "0x1aef15",
      "logs": [],
      "logsBloom": "0x00000000000000000000000000000000000000000000000000000000000000000000000000000000000000000000000000000000000000000000000000000000000000000000000000000000000000000000000000000000000000000000000000000000000000000000000000000000000000000000000000000000000000000000000000000000000000000000000000000000000000000000000000000000000000000000000000000000000000000000000000000000000000000000000000000000000000000000000000000000000000000000000000000000000000000000000000000000000000000000000000000000000000000000000000000000",
      "type": "0x2",
      "transactionHash": "0x44fb10752d5f85b2bf403b2cba36d80bc5177f12e8f079cb51a93a586ccc58b0",
      "transactionIndex": "0xd",
      "blockHash": "0xf22bd16a47b8c3d938abecfbf57c34c55c1b72537c79733efa0e49aea63193f7",
      "blockNumber": "0x1c17a17",
      "gasUsed": "0x196b7",
      "effectiveGasPrice": "0xf4275",
      "from": "0xc3ca11bd8e131471904dced927b3fb7edb453179",
      "to": "0x2f925d6512b2bbb00f5a36d8b18e01fcf35f7dc7",
      "contractAddress": null,
      "l1BaseFeeScalar": "0x44d",
      "l1BlobBaseFee": "0xa1e8dde",
      "l1BlobBaseFeeScalar": "0xa118b",
      "l1Fee": "0x3cc65a3de",
      "l1GasPrice": "0xc415",
      "l1GasUsed": "0x91a"
    },
    {
      "status": "0x1",
      "cumulativeGasUsed": "0x9f04b",
      "logs": [],
      "logsBloom": "0x00000000000000000000000000000000000000000000000000000000000000000000000000000000000000000000000000000000000000000000000000000000000000000000000000000000000000000000000000000000000000000000000000000000000000000000000000000000000000000000000000000000000000000000000000000000000000000000000000000000000000000000000000000000000000000000000000000000000000000000000000000000000000000000000000000000000000000000000000000000000000000000000000000000000000000000000000000000000000000000000000000000000000000000000000000000",
      "type": "0x2",
      "transactionHash": "0x8158b419c3a2ea0999bedf9885f9ec12e6ac8b5b6d7219511787eddb1543b63c",
      "transactionIndex": "0x6",
      "blockHash": "0xc9c997423853cb99ba899b2948386d147f693d5fe85a0100c5e1d782b681dbbb",
      "blockNumber": "0x1c17a18",
      "gasUsed": "0x1953f",
      "effectiveGasPrice": "0xf4275",
      "from": "0xc3ca11bd8e131471904dced927b3fb7edb453179",
      "to": "0x2f925d6512b2bbb00f5a36d8b18e01fcf35f7dc7",
      "contractAddress": null,
      "l1BaseFeeScalar": "0x44d",
      "l1BlobBaseFee": "0xa1e8dde",
      "l1BlobBaseFeeScalar": "0xa118b",
      "l1Fee": "0x3c6cfbb90",
      "l1GasPrice": "0xc415",
      "l1GasUsed": "0x90c"
    },
    {
      "status": "0x1",
      "cumulativeGasUsed": "0x19b5ee",
      "logs": [],
      "logsBloom": "0x00000000000000000000000000000000000000000000000000000000000000000000000000000000000000000000000000000000000000000000000000000000000000000000000000000000000000000000000000000000000000000000000000000000000000000000000000000000000000000000000000000000000000000000000000000000000000000000000000000000000000000000000000000000000000000000000000000000000000000000000000000000000000000000000000000000000000000000000000000000000000000000000000000000000000000000000000000000000000000000000000000000000000000000000000000000",
      "type": "0x2",
      "transactionHash": "0x2f05445c5de6bdddc21da2d3afb93791b3d445537b020cfc31b32b4ad066a788",
      "transactionIndex": "0xe",
      "blockHash": "0x61311b52eda7ac8d852a475d6a50263650678b2360640e2a0d08c49ac6e70d5e",
      "blockNumber": "0x1c17a19",
      "gasUsed": "0x1982f",
      "effectiveGasPrice": "0xf4275",
      "from": "0xc3ca11bd8e131471904dced927b3fb7edb453179",
      "to": "0x2f925d6512b2bbb00f5a36d8b18e01fcf35f7dc7",
      "contractAddress": null,
      "l1BaseFeeScalar": "0x44d",
      "l1BlobBaseFee": "0x99a6ea0",
      "l1BlobBaseFeeScalar": "0xa118b",
      "l1Fee": "0x3a01aed1c",
      "l1GasPrice": "0xd652",
      "l1GasUsed": "0x927"
    },
    {
      "status": "0x1",
      "cumulativeGasUsed": "0x400b5b",
      "logs": [],
      "logsBloom": "0x00000000000000000000000000000000000000000000000000000000000000000000000000000000000000000000000000000000000000000000000000000000000000000000000000000000000000000000000000000000000000000000000000000000000000000000000000000000000000000000000000000000000000000000000000000000000000000000000000000000000000000000000000000000000000000000000000000000000000000000000000000000000000000000000000000000000000000000000000000000000000000000000000000000000000000000000000000000000000000000000000000000000000000000000000000000",
      "type": "0x2",
      "transactionHash": "0x09076e25b4d08abcf67b1e6e3f6aa17d261c369c84de1a500aba90a4c2ab2376",
      "transactionIndex": "0x9",
      "blockHash": "0xca93e29a3863626208e28dd45362f28ac04667a8b3502a6ccb09c7798cb0124c",
      "blockNumber": "0x1c17a1a",
      "gasUsed": "0x196b7",
      "effectiveGasPrice": "0xf4275",
      "from": "0xc3ca11bd8e131471904dced927b3fb7edb453179",
      "to": "0x2f925d6512b2bbb00f5a36d8b18e01fcf35f7dc7",
      "contractAddress": null,
      "l1BaseFeeScalar": "0x44d",
      "l1BlobBaseFee": "0x99a6ea0",
      "l1BlobBaseFeeScalar": "0xa118b",
      "l1Fee": "0x39acdf1ca",
      "l1GasPrice": "0xd652",
      "l1GasUsed": "0x91a"
    },
    {
      "status": "0x1",
      "cumulativeGasUsed": "0x5bd22",
      "logs": [],
      "logsBloom": "0x00000000000000000000000000000000000000000000000000000000000000000000000000000000000000000000000000000000000000000000000000000000000000000000000000000000000000000000000000000000000000000000000000000000000000000000000000000000000000000000000000000000000000000000000000000000000000000000000000000000000000000000000000000000000000000000000000000000000000000000000000000000000000000000000000000000000000000000000000000000000000000000000000000000000000000000000000000000000000000000000000000000000000000000000000000000",
      "type": "0x2",
      "transactionHash": "0x7c7903ac8981e7e42dcc5aa3576a0a340e3399594ed56b7846a4e41c936cb9a7",
      "transactionIndex": "0x2",
      "blockHash": "0xa33158061c689bdb73daf0e3aad891632ca36856b5e504ebd9d8fd740c35ad98",
      "blockNumber": "0x1c17a1c",
      "gasUsed": "0x1982f",
      "effectiveGasPrice": "0xf4275",
      "from": "0xc3ca11bd8e131471904dced927b3fb7edb453179",
      "to": "0x2f925d6512b2bbb00f5a36d8b18e01fcf35f7dc7",
      "contractAddress": null,
      "l1BaseFeeScalar": "0x44d",
      "l1BlobBaseFee": "0x99a6ea0",
      "l1BlobBaseFeeScalar": "0xa118b",
      "l1Fee": "0x3a01aed1c",
      "l1GasPrice": "0xd652",
      "l1GasUsed": "0x927"
    },
    {
      "status": "0x1",
      "cumulativeGasUsed": "0x4becd",
      "logs": [],
      "logsBloom": "0x00000000000000000000000000000000000000000000000000000000000000000000000000000000000000000000000000000000000000000000000000000000000000000000000000000000000000000000000000000000000000000000000000000000000000000000000000000000000000000000000000000000000000000000000000000000000000000000000000000000000000000000000000000000000000000000000000000000000000000000000000000000000000000000000000000000000000000000000000000000000000000000000000000000000000000000000000000000000000000000000000000000000000000000000000000000",
      "type": "0x2",
      "transactionHash": "0x9e482fb10814449e86b74fba9f856e3775bb44a708d808a32fa6f24bcc3ead35",
      "transactionIndex": "0x2",
      "blockHash": "0xc518fff09cdf401562029868b998ec48b3d3cce15149975c901e88b704195618",
      "blockNumber": "0x1c17a1e",
      "gasUsed": "0x1953f",
      "effectiveGasPrice": "0xf4275",
      "from": "0xc3ca11bd8e131471904dced927b3fb7edb453179",
      "to": "0x2f925d6512b2bbb00f5a36d8b18e01fcf35f7dc7",
      "contractAddress": null,
      "l1BaseFeeScalar": "0x44d",
      "l1BlobBaseFee": "0x99a6ea0",
      "l1BlobBaseFeeScalar": "0xa118b",
      "l1Fee": "0x39580f678",
      "l1GasPrice": "0xd652",
      "l1GasUsed": "0x90c"
    },
    {
      "status": "0x1",
      "cumulativeGasUsed": "0x2469b",
      "logs": [],
      "logsBloom": "0x00000000000000000000000000000000000000000000000000000000000000000000000000000000000000000000000000000000000000000000000000000000000000000000000000000000000000000000000000000000000000000000000000000000000000000000000000000000000000000000000000000000000000000000000000000000000000000000000000000000000000000000000000000000000000000000000000000000000000000000000000000000000000000000000000000000000000000000000000000000000000000000000000000000000000000000000000000000000000000000000000000000000000000000000000000000",
      "type": "0x2",
      "transactionHash": "0x59769615b7c1aad037f05d4632ebe5a54635e2570c79905895183da15bb8c8e9",
      "transactionIndex": "0x1",
      "blockHash": "0xad2a348ae4dcdd0ab7cafebe95ef5d94cd603a8e82ce5cd2116fcfe3d6767ab4",
      "blockNumber": "0x1c17a20",
      "gasUsed": "0x1924f",
      "effectiveGasPrice": "0xf4275",
      "from": "0xc3ca11bd8e131471904dced927b3fb7edb453179",
      "to": "0x2f925d6512b2bbb00f5a36d8b18e01fcf35f7dc7",
      "contractAddress": null,
      "l1BaseFeeScalar": "0x44d",
      "l1BlobBaseFee": "0xa1e8dde",
      "l1BlobBaseFeeScalar": "0xa118b",
      "l1Fee": "0x3bba3f132",
      "l1GasPrice": "0xc690",
      "l1GasUsed": "0x8f1"
    },
    {
      "status": "0x1",
      "cumulativeGasUsed": "0x46e36",
      "logs": [
        {
          "address": "0x2f925d6512b2bbb00f5a36d8b18e01fcf35f7dc7",
          "topics": [
            "0x128b13f5a7f3d4a8f9ebafb4d8c23d5f6f5a287c83c1e81e79b1f80c1708a5fb",
            "0x0000000000000000000000000000000000000000000000000000000000000000"
          ],
          "data": "0x0000000000000000000000000000000000000000000000000000000000000002",
          "blockHash": "0x0ec6f7aefb199e76f1c96a0b88ca0389e54515da80019adde1dda723c56c419d",
          "blockNumber": "0x1c17a22",
          "transactionHash": "0xa14fe745b308d1c9ff5a95ecb3ff17022001d4d645aefc822d557937b46949bc",
          "transactionIndex": "0x3",
          "logIndex": "0x5",
          "removed": false
        }
      ],
      "logsBloom": "0x00000000000000000000000000000000000000000000000000000000000000000000000000000000000000000000000000000000000000000000000000000000000000000000000000000000000000000000000000000000000000000000000000000000020000000000000000000800000000000000000009000000000000000000000400000000000000000000000000000000000000000000000000000000000000000000001000000000000000000000000000000000000000000000004000000000000000000000000000004000000000000000000000000000000020000000000000000000000000000000000000000000000000000000000000000000",
      "type": "0x2",
      "transactionHash": "0xa14fe745b308d1c9ff5a95ecb3ff17022001d4d645aefc822d557937b46949bc",
      "transactionIndex": "0x3",
      "blockHash": "0x0ec6f7aefb199e76f1c96a0b88ca0389e54515da80019adde1dda723c56c419d",
      "blockNumber": "0x1c17a22",
      "gasUsed": "0xe65e",
      "effectiveGasPrice": "0xf4275",
      "from": "0xc3ca11bd8e131471904dced927b3fb7edb453179",
      "to": "0x2f925d6512b2bbb00f5a36d8b18e01fcf35f7dc7",
      "contractAddress": null,
      "l1BaseFeeScalar": "0x44d",
      "l1BlobBaseFee": "0xa1e8dde",
      "l1BlobBaseFeeScalar": "0xa118b",
      "l1Fee": "0x29bbb579c",
      "l1GasPrice": "0xc690",
      "l1GasUsed": "0x640"
    },
    {
      "status": "0x1",
      "cumulativeGasUsed": "0x26eb5b",
      "logs": [
        {
          "address": "0x2f925d6512b2bbb00f5a36d8b18e01fcf35f7dc7",
          "topics": [
            "0x128b13f5a7f3d4a8f9ebafb4d8c23d5f6f5a287c83c1e81e79b1f80c1708a5fb",
            "0x0000000000000000000000000000000000000000000000000000000000000001"
          ],
          "data": "0x000000000000000000000000000000000000000000000000000000000000000a",
          "blockHash": "0x6d04b987957c3c8e267ad330290e8011128cebd9fd92488f697f5e1887841524",
          "blockNumber": "0x1c17a23",
          "transactionHash": "0x3afab3766577ecbd4f7080bf2fb249d4c4a14c405293eff2efc28e3eafb769fd",
          "transactionIndex": "0x10",
          "logIndex": "0x39",
          "removed": false
        }
      ],
      "logsBloom": "0x00000000000000000000000000000000000000000000000000000000000000000000000000000000000000000000000000000000000000000000000000040000000000000000000000000000000000000000000000040000000000000000000000000000000000000000000000000000000000000000000009000000000000000000000400000000000000000000000000000000000000000000000000000000000000000000001000000000000000000000000000000000000000000000004000000000000000000000000000004000000000000000000000000000000040000000000000000000000000000000000000000000000000000000000000000000",
      "type": "0x2",
      "transactionHash": "0x3afab3766577ecbd4f7080bf2fb249d4c4a14c405293eff2efc28e3eafb769fd",
      "transactionIndex": "0x10",
      "blockHash": "0x6d04b987957c3c8e267ad330290e8011128cebd9fd92488f697f5e1887841524",
      "blockNumber": "0x1c17a23",
      "gasUsed": "0xe66a",
      "effectiveGasPrice": "0xf4275",
      "from": "0xc3ca11bd8e131471904dced927b3fb7edb453179",
      "to": "0x2f925d6512b2bbb00f5a36d8b18e01fcf35f7dc7",
      "contractAddress": null,
      "l1BaseFeeScalar": "0x44d",
      "l1BlobBaseFee": "0xa1e8dde",
      "l1BlobBaseFeeScalar": "0xa118b",
      "l1Fee": "0x29bbb579c",
      "l1GasPrice": "0xc690",
      "l1GasUsed": "0x640"
    },
    {
      "status": "0x1",
      "cumulativeGasUsed": "0xd9ff2",
      "logs": [
        {
          "address": "0x2f925d6512b2bbb00f5a36d8b18e01fcf35f7dc7",
          "topics": [
            "0x128b13f5a7f3d4a8f9ebafb4d8c23d5f6f5a287c83c1e81e79b1f80c1708a5fb",
            "0x0000000000000000000000000000000000000000000000000000000000000002"
          ],
          "data": "0x0000000000000000000000000000000000000000000000000000000000000001",
          "blockHash": "0x718e954904913034c1149a4f147d5de32a81e050057bd3d4dbbcdeabec03d751",
          "blockNumber": "0x1c17a25",
          "transactionHash": "0xc63b2e5c2ec78b74ca4d0ffa89fb9044513186afe1efba874071f8b7c283a6cf",
          "transactionIndex": "0x3",
          "logIndex": "0x29",
          "removed": false
        }
      ],
      "logsBloom": "0x04000000000000000000000000000000000000000000000000000000000000000000000000000000000000000000000000000000000000000000000000000000000000000000000000000000000000000000000000000000000000000000000000000000000000000000000000000000000000000000000009000000000000000000000400000000000000000000000000000000000000000000000000000000000000000000001000000100000000000000000000000000000000000000004000000000000000000000000000004000000000000000000000000000000000000000000000000000000000000000000000000000008000000000000000000000",
      "type": "0x2",
      "transactionHash": "0xc63b2e5c2ec78b74ca4d0ffa89fb9044513186afe1efba874071f8b7c283a6cf",
      "transactionIndex": "0x3",
      "blockHash": "0x718e954904913034c1149a4f147d5de32a81e050057bd3d4dbbcdeabec03d751",
      "blockNumber": "0x1c17a25",
      "gasUsed": "0xe66a",
      "effectiveGasPrice": "0xf4275",
      "from": "0xc3ca11bd8e131471904dced927b3fb7edb453179",
      "to": "0x2f925d6512b2bbb00f5a36d8b18e01fcf35f7dc7",
      "contractAddress": null,
      "l1BaseFeeScalar": "0x44d",
      "l1BlobBaseFee": "0x91d0c6b",
      "l1BlobBaseFeeScalar": "0xa118b",
      "l1Fee": "0x2595bf53b",
      "l1GasPrice": "0xdcb9",
      "l1GasUsed": "0x640"
    },
    {
      "status": "0x1",
      "cumulativeGasUsed": "0x370b18",
      "logs": [
        {
          "address": "0x2f925d6512b2bbb00f5a36d8b18e01fcf35f7dc7",
          "topics": [
            "0x128b13f5a7f3d4a8f9ebafb4d8c23d5f6f5a287c83c1e81e79b1f80c1708a5fb",
            "0x0000000000000000000000000000000000000000000000000000000000000003"
          ],
          "data": "0x0000000000000000000000000000000000000000000000000000000000000004",
          "blockHash": "0xd2d85b0092b07ffd85b20ed5a566380095231002dc082a23099f05dbff39763c",
          "blockNumber": "0x1c17a26",
          "transactionHash": "0xb8bebbcc12f35f375b4a873a2218c499638d1f5213d1f016185682c56ae37405",
          "transactionIndex": "0x11",
          "logIndex": "0x55",
          "removed": false
        }
      ],
      "logsBloom": "0x00000000000000000000000000000000000000000000000000000000000000000000000000000000000000000000000000000000020000000000000000000000000000000000000000000000000000000000000000000000000000000000000000000000000000000000000000000000000000000000000009000000000000000000000400000000000000000000000000000000000000000000000000000000000000000000001000000000000000000000000000800000000000000000404000000000000000000000000000004000000000000000000000000000000000000000000000000000000000000000000000000000000000000000000000000000",
      "type": "0x2",
      "transactionHash": "0xb8bebbcc12f35f375b4a873a2218c499638d1f5213d1f016185682c56ae37405",
      "transactionIndex": "0x11",
      "blockHash": "0xd2d85b0092b07ffd85b20ed5a566380095231002dc082a23099f05dbff39763c",
      "blockNumber": "0x1c17a26",
      "gasUsed": "0xe66a",
      "effectiveGasPrice": "0xf4275",
      "from": "0xc3ca11bd8e131471904dced927b3fb7edb453179",
      "to": "0x2f925d6512b2bbb00f5a36d8b18e01fcf35f7dc7",
      "contractAddress": null,
      "l1BaseFeeScalar": "0x44d",
      "l1BlobBaseFee": "0x91d0c6b",
      "l1BlobBaseFeeScalar": "0xa118b",
      "l1Fee": "0x2595bf53b",
      "l1GasPrice": "0xdcb9",
      "l1GasUsed": "0x640"
    },
    {
      "status": "0x1",
      "cumulativeGasUsed": "0x6f36f5",
      "logs": [
        {
          "address": "0x2f925d6512b2bbb00f5a36d8b18e01fcf35f7dc7",
          "topics": [
            "0x128b13f5a7f3d4a8f9ebafb4d8c23d5f6f5a287c83c1e81e79b1f80c1708a5fb",
            "0x0000000000000000000000000000000000000000000000000000000000000004"
          ],
          "data": "0x0000000000000000000000000000000000000000000000000000000000000004",
          "blockHash": "0xb1780dfbe92b54f3387a37f9b8d2bc7f09f9f8b89188c38727015096787ff1dd",
          "blockNumber": "0x1c17a27",
          "transactionHash": "0x9d874179ca6005c6260fc245086e6c4afdd1ce9b63e4d0ff7620c156728b76b0",
          "transactionIndex": "0x1a",
          "logIndex": "0x70",
          "removed": false
        }
      ],
      "logsBloom": "0x00000000000000000000000000000000000000000000000000000000000000000000000000000000000000000000000000000000000000000000000000000000000000000000000000000000000000000000000000000000000000000000000008000000000000000000000000000000000000000000000009000000000000000000000400000000000000000000000000000000000000000000000000000000000000000000001000000000000000000000000000000000002000000000004000000000000000000000000000004000000000008000000000000000000000000000000000000000000000000000000000000000000000000000000000000000",
      "type": "0x2",
      "transactionHash": "0x9d874179ca6005c6260fc245086e6c4afdd1ce9b63e4d0ff7620c156728b76b0",
      "transactionIndex": "0x1a",
      "blockHash": "0xb1780dfbe92b54f3387a37f9b8d2bc7f09f9f8b89188c38727015096787ff1dd",
      "blockNumber": "0x1c17a27",
      "gasUsed": "0xe66a",
      "effectiveGasPrice": "0xf4275",
      "from": "0xc3ca11bd8e131471904dced927b3fb7edb453179",
      "to": "0x2f925d6512b2bbb00f5a36d8b18e01fcf35f7dc7",
      "contractAddress": null,
      "l1BaseFeeScalar": "0x44d",
      "l1BlobBaseFee": "0x91d0c6b",
      "l1BlobBaseFeeScalar": "0xa118b",
      "l1Fee": "0x2595bf53b",
      "l1GasPrice": "0xdcb9",
      "l1GasUsed": "0x640"
    },
    {
      "status": "0x1",
      "cumulativeGasUsed": "0x5d173c",
      "logs": [
        {
          "address": "0x2f925d6512b2bbb00f5a36d8b18e01fcf35f7dc7",
          "topics": [
            "0x128b13f5a7f3d4a8f9ebafb4d8c23d5f6f5a287c83c1e81e79b1f80c1708a5fb",
            "0x0000000000000000000000000000000000000000000000000000000000000005"
          ],
          "data": "0x0000000000000000000000000000000000000000000000000000000000000004",
          "blockHash": "0x7253a56b53edaf9ee3f3e6de9b6f5c84260799f43fe03f2efe7b19d1442db851",
          "blockNumber": "0x1c17a28",
          "transactionHash": "0xc5ba41178f1d0233cf9e9b9d7e5c5ed683d548933ba2b7806946cd1ccfde379c",
          "transactionIndex": "0x1b",
          "logIndex": "0x6c",
          "removed": false
        }
      ],
      "logsBloom": "0x00000000000000000000000000000000000000000000000000000000000000000000000000000000000000000000000000000000000000000000000000000000000010000000000000000000000000000000000000000000000000000000000000000000000000000000000000000000000000000000000009000000000000000000000400000000000000000000001000000800000000000000000000000000000000000000001000000000000000000000000000000000000000000000004000000000000000000000000000004000000000000000000000000000000000000000000000000000000000000000000000000000000000000000000000000000",
      "type": "0x2",
      "transactionHash": "0xc5ba41178f1d0233cf9e9b9d7e5c5ed683d548933ba2b7806946cd1ccfde379c",
      "transactionIndex": "0x1b",
      "blockHash": "0x7253a56b53edaf9ee3f3e6de9b6f5c84260799f43fe03f2efe7b19d1442db851",
      "blockNumber": "0x1c17a28",
      "gasUsed": "0xe66a",
      "effectiveGasPrice": "0xf4275",
      "from": "0xc3ca11bd8e131471904dced927b3fb7edb453179",
      "to": "0x2f925d6512b2bbb00f5a36d8b18e01fcf35f7dc7",
      "contractAddress": null,
      "l1BaseFeeScalar": "0x44d",
      "l1BlobBaseFee": "0x91d0c6b",
      "l1BlobBaseFeeScalar": "0xa118b",
      "l1Fee": "0x2595bf53b",
      "l1GasPrice": "0xdcb9",
      "l1GasUsed": "0x640"
    },
    {
      "status": "0x1",
      "cumulativeGasUsed": "0x362cc8",
      "logs": [
        {
          "address": "0x2f925d6512b2bbb00f5a36d8b18e01fcf35f7dc7",
          "topics": [
            "0x128b13f5a7f3d4a8f9ebafb4d8c23d5f6f5a287c83c1e81e79b1f80c1708a5fb",
            "0x0000000000000000000000000000000000000000000000000000000000000006"
          ],
          "data": "0x0000000000000000000000000000000000000000000000000000000000000008",
          "blockHash": "0x9c8ded1cd357ab9ffa71101a7d21fc0f90fec236407acd6a309a3a7568ce6dc5",
          "blockNumber": "0x1c17a29",
          "transactionHash": "0x32416a192551179a37e6d0cddad85276f00a337fe2f9bbcccf25ef5f5badb0fb",
          "transactionIndex": "0x12",
          "logIndex": "0x7d",
          "removed": false
        }
      ],
      "logsBloom": "0x00000000000000000000000000000000000000000000000000000000000000000000000000000000000000000000000000000000000400000000000000000000000000000000000000000000000000000000000000000000000000000000000000000000000000000000000000000000000000000000000009000000000000000000000400000000000000000000000000000000000000000000000000000000000000000000001000000000000000000000000000000000000000080000004000000000000000000000000000004000000000000000000000000000000000000000000000000000000000000000000000000000000000000000000000000000",
      "type": "0x2",
      "transactionHash": "0x32416a192551179a37e6d0cddad85276f00a337fe2f9bbcccf25ef5f5badb0fb",
      "transactionIndex": "0x12",
      "blockHash": "0x9c8ded1cd357ab9ffa71101a7d21fc0f90fec236407acd6a309a3a7568ce6dc5",
      "blockNumber": "0x1c17a29",
      "gasUsed": "0xe66a",
      "effectiveGasPrice": "0xf4275",
      "from": "0xc3ca11bd8e131471904dced927b3fb7edb453179",
      "to": "0x2f925d6512b2bbb00f5a36d8b18e01fcf35f7dc7",
      "contractAddress": null,
      "l1BaseFeeScalar": "0x44d",
      "l1BlobBaseFee": "0x91d0c6b",
      "l1BlobBaseFeeScalar": "0xa118b",
      "l1Fee": "0x2595bf53b",
      "l1GasPrice": "0xdcb9",
      "l1GasUsed": "0x640"
    },
    {
      "status": "0x1",
      "cumulativeGasUsed": "0x2b18cb",
      "logs": [
        {
          "address": "0x2f925d6512b2bbb00f5a36d8b18e01fcf35f7dc7",
          "topics": [
            "0x128b13f5a7f3d4a8f9ebafb4d8c23d5f6f5a287c83c1e81e79b1f80c1708a5fb",
            "0x0000000000000000000000000000000000000000000000000000000000000007"
          ],
          "data": "0x0000000000000000000000000000000000000000000000000000000000000004",
          "blockHash": "0xa41be479049de81858538a507ef51552c63ddd15f16ab3be1655da55c2e9f4f9",
          "blockNumber": "0x1c17a2a",
          "transactionHash": "0x9edaacd6eb137aa21c975008b64fb4788a20c831b941e7076332bc6b3d29df48",
          "transactionIndex": "0x11",
          "logIndex": "0x22",
          "removed": false
        }
      ],
      "logsBloom": "0x00000000000000000000000000000000000000000000000000000000000000000000000000000000000000000000000000001000000000000000000000000000000020000000000000000000000000000000000000000000000000000000000000000000000000000000000000000000000000000000000009000000000000000000000400000000000000000000000000000000000000000000000000000000000000000000001000000000000000000000000000000000000000000000004000000000000000000000000000004000000000000000000000000100000000000000000000000000000000000000000000000000000000000000000000000000",
      "type": "0x2",
      "transactionHash": "0x9edaacd6eb137aa21c975008b64fb4788a20c831b941e7076332bc6b3d29df48",
      "transactionIndex": "0x11",
      "blockHash": "0xa41be479049de81858538a507ef51552c63ddd15f16ab3be1655da55c2e9f4f9",
      "blockNumber": "0x1c17a2a",
      "gasUsed": "0xe66a",
      "effectiveGasPrice": "0xf4275",
      "from": "0xc3ca11bd8e131471904dced927b3fb7edb453179",
      "to": "0x2f925d6512b2bbb00f5a36d8b18e01fcf35f7dc7",
      "contractAddress": null,
      "l1BaseFeeScalar": "0x44d",
      "l1BlobBaseFee": "0x91d0c6b",
      "l1BlobBaseFeeScalar": "0xa118b",
      "l1Fee": "0x2595bf53b",
      "l1GasPrice": "0xdcb9",
      "l1GasUsed": "0x640"
    },
    {
      "status": "0x1",
      "cumulativeGasUsed": "0x55bb0f",
      "logs": [
        {
          "address": "0x2f925d6512b2bbb00f5a36d8b18e01fcf35f7dc7",
          "topics": [
            "0x128b13f5a7f3d4a8f9ebafb4d8c23d5f6f5a287c83c1e81e79b1f80c1708a5fb",
            "0x0000000000000000000000000000000000000000000000000000000000000008"
          ],
          "data": "0x000000000000000000000000000000000000000000000000000000000000000a",
          "blockHash": "0x97552c549d9837629bbc3f0d1fbd6b3ddbc56c58181c44fd7f0ce88024deb585",
          "blockNumber": "0x1c17a2b",
          "transactionHash": "0x39207ac11210ed9fb01b4a6d098fc43f240b66a367a0c323264e81f2853d778f",
          "transactionIndex": "0x1d",
          "logIndex": "0x73",
          "removed": false
        }
      ],
      "logsBloom": "0x00000000000000000000000000000000000000000000000000000000000000000000000000000000000000000000000000000000000080000000000000000000000000000000000000000000000000000000000000000000000000000000000000000000000000000000000000000000000000000000000009000000000000000080000400000000000000000000000000000000000000000000000000000000000000000000001000000000000000000000000000000000000000000000004040000000000000000000000000004000000000000000000000000000000000000000000000000000000000000000000000000000000000000000000000000000",
      "type": "0x2",
      "transactionHash": "0x39207ac11210ed9fb01b4a6d098fc43f240b66a367a0c323264e81f2853d778f",
      "transactionIndex": "0x1d",
      "blockHash": "0x97552c549d9837629bbc3f0d1fbd6b3ddbc56c58181c44fd7f0ce88024deb585",
      "blockNumber": "0x1c17a2b",
      "gasUsed": "0xe66a",
      "effectiveGasPrice": "0xf4275",
      "from": "0xc3ca11bd8e131471904dced927b3fb7edb453179",
      "to": "0x2f925d6512b2bbb00f5a36d8b18e01fcf35f7dc7",
      "contractAddress": null,
      "l1BaseFeeScalar": "0x44d",
      "l1BlobBaseFee": "0x8a60f44",
      "l1BlobBaseFeeScalar": "0xa118b",
      "l1Fee": "0x23ab05bea",
      "l1GasPrice": "0xcd52",
      "l1GasUsed": "0x640"
    },
    {
      "status": "0x1",
      "cumulativeGasUsed": "0xbdf74",
      "logs": [
        {
          "address": "0x2f925d6512b2bbb00f5a36d8b18e01fcf35f7dc7",
          "topics": [
            "0x128b13f5a7f3d4a8f9ebafb4d8c23d5f6f5a287c83c1e81e79b1f80c1708a5fb",
            "0x0000000000000000000000000000000000000000000000000000000000000009"
          ],
          "data": "0x0000000000000000000000000000000000000000000000000000000000000008",
          "blockHash": "0xfcaa564886edc6fe0efea9ef5d8f64739343261d068b2955c2337e69a4e65bfe",
          "blockNumber": "0x1c17a2c",
          "transactionHash": "0xfda31dcc726ea9d590163a94a27a1af5fd303d0fde61957676084f10e8af93be",
          "transactionIndex": "0x7",
          "logIndex": "0xa",
          "removed": false
        }
      ],
      "logsBloom": "0x00000000000000000000000000000000000000000000000000000000000000000000000000000000000000000000000000000000000000000000000000200000000000000000000000000000000000000000000000000000000000000000000000000000000000000000000000000000000000000000000009000000000000000000000400000000000000000000000000001000000000000000000000000000000000000000001000000000000000000000000000000000000000000000004000000000000000000000000000004000000000000000000000000000000000000000000000000000000000000000000000000000000000000000000000800000",
      "type": "0x2",
      "transactionHash": "0xfda31dcc726ea9d590163a94a27a1af5fd303d0fde61957676084f10e8af93be",
      "transactionIndex": "0x7",
      "blockHash": "0xfcaa564886edc6fe0efea9ef5d8f64739343261d068b2955c2337e69a4e65bfe",
      "blockNumber": "0x1c17a2c",
      "gasUsed": "0xe66a",
      "effectiveGasPrice": "0xf4275",
      "from": "0xc3ca11bd8e131471904dced927b3fb7edb453179",
      "to": "0x2f925d6512b2bbb00f5a36d8b18e01fcf35f7dc7",
      "contractAddress": null,
      "l1BaseFeeScalar": "0x44d",
      "l1BlobBaseFee": "0x8a60f44",
      "l1BlobBaseFeeScalar": "0xa118b",
      "l1Fee": "0x23ab05bea",
      "l1GasPrice": "0xcd52",
      "l1GasUsed": "0x640"
    },
    {
      "status": "0x1",
      "cumulativeGasUsed": "0xe5dbb",
      "logs": [
        {
          "address": "0x2f925d6512b2bbb00f5a36d8b18e01fcf35f7dc7",
          "topics": [
            "0x128b13f5a7f3d4a8f9ebafb4d8c23d5f6f5a287c83c1e81e79b1f80c1708a5fb",
            "0x000000000000000000000000000000000000000000000000000000000000000a"
          ],
          "data": "0x0000000000000000000000000000000000000000000000000000000000000008",
          "blockHash": "0x29e07c9ce1ea7548923292c843a8c5bb9be2c8dfb7c6591ab9acad235230f2ec",
          "blockNumber": "0x1c17a2e",
          "transactionHash": "0xab7c71037605ddabd2f041f1a1f4f605eac136e92ce479daac5fcb908da903d9",
          "transactionIndex": "0x6",
          "logIndex": "0xf",
          "removed": false
        }
      ],
      "logsBloom": "0x00000000000000000000000000000000000000000000000000000000000000000000000000000000000000000000000000000000040000000020000000000000000000000000000000000000000000000000000000000000000000000000000000000000000000000000000000000000000000000000000009000000000000000000000400000000010000000000000000000000000000000000000000000000000000000000001000000000000000000000000000000000000000000000004000000000000000000000000000004000000000000000000000000000000000000000000000000000000000000000000000000000000000000000000000000000",
      "type": "0x2",
      "transactionHash": "0xab7c71037605ddabd2f041f1a1f4f605eac136e92ce479daac5fcb908da903d9",
      "transactionIndex": "0x6",
      "blockHash": "0x29e07c9ce1ea7548923292c843a8c5bb9be2c8dfb7c6591ab9acad235230f2ec",
      "blockNumber": "0x1c17a2e",
      "gasUsed": "0xe66a",
      "effectiveGasPrice": "0xf4275",
      "from": "0xc3ca11bd8e131471904dced927b3fb7edb453179",
      "to": "0x2f925d6512b2bbb00f5a36d8b18e01fcf35f7dc7",
      "contractAddress": null,
      "l1BaseFeeScalar": "0x44d",
      "l1BlobBaseFee": "0x8a60f44",
      "l1BlobBaseFeeScalar": "0xa118b",
      "l1Fee": "0x23ab05bea",
      "l1GasPrice": "0xcd52",
      "l1GasUsed": "0x640"
    },
    {
      "status": "0x1",
      "cumulativeGasUsed": "0x264015",
      "logs": [
        {
          "address": "0x2f925d6512b2bbb00f5a36d8b18e01fcf35f7dc7",
          "topics": [
            "0x128b13f5a7f3d4a8f9ebafb4d8c23d5f6f5a287c83c1e81e79b1f80c1708a5fb",
            "0x000000000000000000000000000000000000000000000000000000000000000b"
          ],
          "data": "0x0000000000000000000000000000000000000000000000000000000000000008",
          "blockHash": "0x69475a3db10a5339d776cbf0079855b169c8268447a9a261236a47794e0f2944",
          "blockNumber": "0x1c17a2f",
          "transactionHash": "0xc450e1feb1e6d2385e7e4cc3690d45ea9468e1196b0a83247e2583032b35d5df",
          "transactionIndex": "0xc",
          "logIndex": "0x4d",
          "removed": false
        }
      ],
      "logsBloom": "0x00000000000000000000004000000000000000000000000000000000000000000000000000000000000000000000000000000000000000000000000000000000000000000000000000000000000000000000000000000000000000000000000000000000000000000000000000000000000000000000000009000000000000000000000400000000000000000000000000000000000000000000000000000000000000000000001000000000000000000000000000000000000000000000004000000000000000000000000000004000002000000000000000000000000000000000000000000000000000000000000000000000000000040000000000000000",
      "type": "0x2",
      "transactionHash": "0xc450e1feb1e6d2385e7e4cc3690d45ea9468e1196b0a83247e2583032b35d5df",
      "transactionIndex": "0xc",
      "blockHash": "0x69475a3db10a5339d776cbf0079855b169c8268447a9a261236a47794e0f2944",
      "blockNumber": "0x1c17a2f",
      "gasUsed": "0xe66a",
      "effectiveGasPrice": "0xf4275",
      "from": "0xc3ca11bd8e131471904dced927b3fb7edb453179",
      "to": "0x2f925d6512b2bbb00f5a36d8b18e01fcf35f7dc7",
      "contractAddress": null,
      "l1BaseFeeScalar": "0x44d",
      "l1BlobBaseFee": "0x8a60f44",
      "l1BlobBaseFeeScalar": "0xa118b",
      "l1Fee": "0x23ab05bea",
      "l1GasPrice": "0xcd52",
      "l1GasUsed": "0x640"
    },
    {
      "status": "0x1",
      "cumulativeGasUsed": "0x7cb504",
      "logs": [
        {
          "address": "0x2f925d6512b2bbb00f5a36d8b18e01fcf35f7dc7",
          "topics": [
            "0x128b13f5a7f3d4a8f9ebafb4d8c23d5f6f5a287c83c1e81e79b1f80c1708a5fb",
            "0x000000000000000000000000000000000000000000000000000000000000000c"
          ],
          "data": "0x0000000000000000000000000000000000000000000000000000000000000014",
          "blockHash": "0x73101ee1fd0a908cd127566f7f05e96998da195386a09396d7e2f908b304431b",
          "blockNumber": "0x1c17a30",
          "transactionHash": "0x1148865576c917097f65adc835bca6d5f556dc304304a29c21d5d88ed8c190ba",
          "transactionIndex": "0xf",
          "logIndex": "0x32",
          "removed": false
        }
      ],
      "logsBloom": "0x00000000000000000000000000000000000002000000000000000000000000000000000000000200000000000000000000000000000000000000000000000000000000000000000000000000000000000000000000000000000000000000000000000000000000000000000000000000000000000000000009000000000000000000000400000000000000000000000000000000000000000000000000000000000000000000001000000000000000000000000000000000000000000000004000000000000000000000000000004000000000000000000000000000000000200000000000000000000000000000000000000000000000000000000000000000",
      "type": "0x2",
      "transactionHash": "0x1148865576c917097f65adc835bca6d5f556dc304304a29c21d5d88ed8c190ba",
      "transactionIndex": "0xf",
      "blockHash": "0x73101ee1fd0a908cd127566f7f05e96998da195386a09396d7e2f908b304431b",
      "blockNumber": "0x1c17a30",
      "gasUsed": "0xe66a",
      "effectiveGasPrice": "0xf4275",
      "from": "0xc3ca11bd8e131471904dced927b3fb7edb453179",
      "to": "0x2f925d6512b2bbb00f5a36d8b18e01fcf35f7dc7",
      "contractAddress": null,
      "l1BaseFeeScalar": "0x44d",
      "l1BlobBaseFee": "0x8a60f44",
      "l1BlobBaseFeeScalar": "0xa118b",
      "l1Fee": "0x23ab05bea",
      "l1GasPrice": "0xcd52",
      "l1GasUsed": "0x640"
    },
    {
      "status": "0x1",
      "cumulativeGasUsed": "0x118fc8",
      "logs": [
        {
          "address": "0x2f925d6512b2bbb00f5a36d8b18e01fcf35f7dc7",
          "topics": [
            "0x128b13f5a7f3d4a8f9ebafb4d8c23d5f6f5a287c83c1e81e79b1f80c1708a5fb",
            "0x000000000000000000000000000000000000000000000000000000000000000d"
          ],
          "data": "0x0000000000000000000000000000000000000000000000000000000000000008",
          "blockHash": "0xa206277f27cecffeeb2e967ac978e3d34a2c07ff1cfb2964a6f9a71ade6b61f5",
          "blockNumber": "0x1c17a32",
          "transactionHash": "0x872e628ba27a3ba449822a2fa5da19eeb4d92630e540ae08322fcf94b401eb6b",
          "transactionIndex": "0x6",
          "logIndex": "0x19",
          "removed": false
        }
      ],
      "logsBloom": "0x00000000000000000040000000000000000000000000000000000000000000000000000000000000000000000000000000000000000000000000000000000000000000000000000000000000000000000002000000000000000000000000000000000000000000000000000000000000000000000000000009000000000000000000000400000000000000000000000000000000000000000000000000000000000000000000001000000000000000000000000000000000000000000000004000000000000000000000000000004000000000000000000000000000000000020000000000000000000000000000000000000000000000000000000000000000",
      "type": "0x2",
      "transactionHash": "0x872e628ba27a3ba449822a2fa5da19eeb4d92630e540ae08322fcf94b401eb6b",
      "transactionIndex": "0x6",
      "blockHash": "0xa206277f27cecffeeb2e967ac978e3d34a2c07ff1cfb2964a6f9a71ade6b61f5",
      "blockNumber": "0x1c17a32",
      "gasUsed": "0xe66a",
      "effectiveGasPrice": "0xf4275",
      "from": "0xc3ca11bd8e131471904dced927b3fb7edb453179",
      "to": "0x2f925d6512b2bbb00f5a36d8b18e01fcf35f7dc7",
      "contractAddress": null,
      "l1BaseFeeScalar": "0x44d",
      "l1BlobBaseFee": "0x86cdc53",
      "l1BlobBaseFeeScalar": "0xa118b",
      "l1Fee": "0x22bf1fafb",
      "l1GasPrice": "0xbf24",
      "l1GasUsed": "0x640"
    },
    {
      "status": "0x1",
      "cumulativeGasUsed": "0x10f1fc",
      "logs": [
        {
          "address": "0x2f925d6512b2bbb00f5a36d8b18e01fcf35f7dc7",
          "topics": [
            "0x128b13f5a7f3d4a8f9ebafb4d8c23d5f6f5a287c83c1e81e79b1f80c1708a5fb",
            "0x000000000000000000000000000000000000000000000000000000000000000e"
          ],
          "data": "0x0000000000000000000000000000000000000000000000000000000000000004",
          "blockHash": "0x7a83f29c9ac4deb62445368caf81bd289e1160734d6a36a5b9fa21ac807836bb",
          "blockNumber": "0x1c17a33",
          "transactionHash": "0x04a5654959dfb48467bdbd8739f7992cbb22e7d6464ac61af91cd35737ced112",
          "transactionIndex": "0xa",
          "logIndex": "0x2a",
          "removed": false
        }
      ],
      "logsBloom": "0x00000000000000000000000000000000000000000000000000000000000000000000000000000000000000000000000000000000000000000000000000000000000000000000000800000000000000000000000000000000000000000000000000000000000000000000000000000000000000000000000009000000000000000000000400000000000000000000000008000000000000000000000000000000000000000000001000000000000000000000000000000020000000000000004000000000000000000000000000004000000000000000000000000000000000000000000000000000000000000000000000000000000000000000000000000000",
      "type": "0x2",
      "transactionHash": "0x04a5654959dfb48467bdbd8739f7992cbb22e7d6464ac61af91cd35737ced112",
      "transactionIndex": "0xa",
      "blockHash": "0x7a83f29c9ac4deb62445368caf81bd289e1160734d6a36a5b9fa21ac807836bb",
      "blockNumber": "0x1c17a33",
      "gasUsed": "0xe66a",
      "effectiveGasPrice": "0xf4275",
      "from": "0xc3ca11bd8e131471904dced927b3fb7edb453179",
      "to": "0x2f925d6512b2bbb00f5a36d8b18e01fcf35f7dc7",
      "contractAddress": null,
      "l1BaseFeeScalar": "0x44d",
      "l1BlobBaseFee": "0x86cdc53",
      "l1BlobBaseFeeScalar": "0xa118b",
      "l1Fee": "0x22bf1fafb",
      "l1GasPrice": "0xbf24",
      "l1GasUsed": "0x640"
    },
    {
      "status": "0x1",
      "cumulativeGasUsed": "0xc8b3f",
      "logs": [
        {
          "address": "0x2f925d6512b2bbb00f5a36d8b18e01fcf35f7dc7",
          "topics": [
            "0x128b13f5a7f3d4a8f9ebafb4d8c23d5f6f5a287c83c1e81e79b1f80c1708a5fb",
            "0x000000000000000000000000000000000000000000000000000000000000000f"
          ],
          "data": "0x0000000000000000000000000000000000000000000000000000000000000004",
          "blockHash": "0xf649a69c61df0104b7b8d0cf2a1ff8248532b12a0167a61846c2296b9201b87c",
          "blockNumber": "0x1c17a34",
          "transactionHash": "0x189b8e4847baf67279810e3befd0f1febf33b6546bfe8a5540160cc4bab8d485",
          "transactionIndex": "0x6",
          "logIndex": "0xc",
          "removed": false
        }
      ],
      "logsBloom": "0x00000000000000000000000000000000000000000000000000000000000000000000000000000000000000000000000000000000000000000000000000000000000000000000000000000000000000000000000000000000000000000002000000000000000000000000000000000000000000000000000009000000000000000000000400000800000000000000000000000000000000000000000000000000000000000000001000000000000000000000000000000000000000000000004000000000000000000000000000004000000000000000000000000000000000000000000200000000000000000000000000000000000000000000000000000000",
      "type": "0x2",
      "transactionHash": "0x189b8e4847baf67279810e3befd0f1febf33b6546bfe8a5540160cc4bab8d485",
      "transactionIndex": "0x6",
      "blockHash": "0xf649a69c61df0104b7b8d0cf2a1ff8248532b12a0167a61846c2296b9201b87c",
      "blockNumber": "0x1c17a34",
      "gasUsed": "0xe66a",
      "effectiveGasPrice": "0xf4275",
      "from": "0xc3ca11bd8e131471904dced927b3fb7edb453179",
      "to": "0x2f925d6512b2bbb00f5a36d8b18e01fcf35f7dc7",
      "contractAddress": null,
      "l1BaseFeeScalar": "0x44d",
      "l1BlobBaseFee": "0x86cdc53",
      "l1BlobBaseFeeScalar": "0xa118b",
      "l1Fee": "0x22bf1fafb",
      "l1GasPrice": "0xbf24",
      "l1GasUsed": "0x640"
    },
    {
      "status": "0x1",
      "cumulativeGasUsed": "0x52669d",
      "logs": [
        {
          "address": "0x2f925d6512b2bbb00f5a36d8b18e01fcf35f7dc7",
          "topics": [
            "0x128b13f5a7f3d4a8f9ebafb4d8c23d5f6f5a287c83c1e81e79b1f80c1708a5fb",
            "0x0000000000000000000000000000000000000000000000000000000000000010"
          ],
          "data": "0x0000000000000000000000000000000000000000000000000000000000000004",
          "blockHash": "0x94fd32ade06055d4383ff77a19c51e3e3a940d908645330baa498e96c966cf0c",
          "blockNumber": "0x1c17a35",
          "transactionHash": "0x34e6f19f02205971bdfc39276c29076b252aba3c438927a4260199a37c95ac7c",
          "transactionIndex": "0x11",
          "logIndex": "0x25",
          "removed": false
        }
      ],
      "logsBloom": "0x00000000100000000000000000000000000000000000000000000000000000000000000000000000000000000000000000000000000000000000000000000000000000000000000000000000000000000000000000000000000000000000000000000000000000000000000000000000000000000000000009000000040000000000000400000000000000000000000000000100000000000000000000000000000000000000001000000000000000000000000000000000000000000000004000000000000000000000000000004000000000000000000000000000000000000000000000000000000000000000000000000000000000000000000000000000",
      "type": "0x2",
      "transactionHash": "0x34e6f19f02205971bdfc39276c29076b252aba3c438927a4260199a37c95ac7c",
      "transactionIndex": "0x11",
      "blockHash": "0x94fd32ade06055d4383ff77a19c51e3e3a940d908645330baa498e96c966cf0c",
      "blockNumber": "0x1c17a35",
      "gasUsed": "0xe66a",
      "effectiveGasPrice": "0xf4275",
      "from": "0xc3ca11bd8e131471904dced927b3fb7edb453179",
      "to": "0x2f925d6512b2bbb00f5a36d8b18e01fcf35f7dc7",
      "contractAddress": null,
      "l1BaseFeeScalar": "0x44d",
      "l1BlobBaseFee": "0x86cdc53",
      "l1BlobBaseFeeScalar": "0xa118b",
      "l1Fee": "0x22bf1fafb",
      "l1GasPrice": "0xbf24",
      "l1GasUsed": "0x640"
    },
    {
      "status": "0x1",
      "cumulativeGasUsed": "0x26474b",
      "logs": [
        {
          "address": "0x2f925d6512b2bbb00f5a36d8b18e01fcf35f7dc7",
          "topics": [
            "0x128b13f5a7f3d4a8f9ebafb4d8c23d5f6f5a287c83c1e81e79b1f80c1708a5fb",
            "0x0000000000000000000000000000000000000000000000000000000000000011"
          ],
          "data": "0x0000000000000000000000000000000000000000000000000000000000000004",
          "blockHash": "0x4f23036e274be162e1a74243da11ec64a7d08c89f2688c389fdd1463277849a6",
          "blockNumber": "0x1c17a36",
          "transactionHash": "0x82149fcc94cf2420f6f08a04fe0b7a1a6b1d0b451f780df2474f5cb90ae04fc9",
          "transactionIndex": "0xe",
          "logIndex": "0x6a",
          "removed": false
        }
      ],
      "logsBloom": "0x00000000000000000000000000000000000000000000000000000000000000000000000000000000000000000000000000000000000000000000000000000000000000000000000000000000000000000000000000000000000000000000000000000000000000000000000000000000000000004000000009000000000000000000000400000000000000000000000000000000000000000000000000000000000000000000001000000000000000000000000000000000000000000400004000001000000000000000000000004000000000000000000000000000000000000000000000000000000000000000000000000000000000000000000000000000",
      "type": "0x2",
      "transactionHash": "0x82149fcc94cf2420f6f08a04fe0b7a1a6b1d0b451f780df2474f5cb90ae04fc9",
      "transactionIndex": "0xe",
      "blockHash": "0x4f23036e274be162e1a74243da11ec64a7d08c89f2688c389fdd1463277849a6",
      "blockNumber": "0x1c17a36",
      "gasUsed": "0xe66a",
      "effectiveGasPrice": "0xf4275",
      "from": "0xc3ca11bd8e131471904dced927b3fb7edb453179",
      "to": "0x2f925d6512b2bbb00f5a36d8b18e01fcf35f7dc7",
      "contractAddress": null,
      "l1BaseFeeScalar": "0x44d",
      "l1BlobBaseFee": "0x86cdc53",
      "l1BlobBaseFeeScalar": "0xa118b",
      "l1Fee": "0x22bf1fafb",
      "l1GasPrice": "0xbf24",
      "l1GasUsed": "0x640"
    },
    {
      "status": "0x1",
      "cumulativeGasUsed": "0x21f69e",
      "logs": [
        {
          "address": "0x2f925d6512b2bbb00f5a36d8b18e01fcf35f7dc7",
          "topics": [
            "0x128b13f5a7f3d4a8f9ebafb4d8c23d5f6f5a287c83c1e81e79b1f80c1708a5fb",
            "0x0000000000000000000000000000000000000000000000000000000000000012"
          ],
          "data": "0x0000000000000000000000000000000000000000000000000000000000000002",
          "blockHash": "0x18120be77e444a5f74e9c1e494680a2f9407d420b4b762716ebde07a933a7159",
          "blockNumber": "0x1c17a37",
          "transactionHash": "0xc3ccc83d7799c8a63bac3cc272e6755fea2f03167aee181d977015d4ba2139e9",
          "transactionIndex": "0xe",
          "logIndex": "0x25",
          "removed": false
        }
      ],
      "logsBloom": "0x00000000000000000000000000000000000000000000000000000000000000000000000000000000000000000000000000000000000000000000000000000000000000000000000000000000000000000000000000000000000000000000000000000000000000000000000000000000000000000000000009000000000000000000000400000000000000000000040000000000000000000000000000000000000000000000001000000000000000000000000000000040000000000000004000000000000000000400000000004000000000000000000000000000000000000000000000000000000000000000000000000000000000000000000000000000",
      "type": "0x2",
      "transactionHash": "0xc3ccc83d7799c8a63bac3cc272e6755fea2f03167aee181d977015d4ba2139e9",
      "transactionIndex": "0xe",
      "blockHash": "0x18120be77e444a5f74e9c1e494680a2f9407d420b4b762716ebde07a933a7159",
      "blockNumber": "0x1c17a37",
      "gasUsed": "0xe66a",
      "effectiveGasPrice": "0xf4275",
      "from": "0xc3ca11bd8e131471904dced927b3fb7edb453179",
      "to": "0x2f925d6512b2bbb00f5a36d8b18e01fcf35f7dc7",
      "contractAddress": null,
      "l1BaseFeeScalar": "0x44d",
      "l1BlobBaseFee": "0x86cdc53",
      "l1BlobBaseFeeScalar": "0xa118b",
      "l1Fee": "0x22bf21b3d",
      "l1GasPrice": "0xd174",
      "l1GasUsed": "0x640"
    },
    {
      "status": "0x1",
      "cumulativeGasUsed": "0x2f3cdd",
      "logs": [
        {
          "address": "0x2f925d6512b2bbb00f5a36d8b18e01fcf35f7dc7",
          "topics": [
            "0x128b13f5a7f3d4a8f9ebafb4d8c23d5f6f5a287c83c1e81e79b1f80c1708a5fb",
            "0x0000000000000000000000000000000000000000000000000000000000000013"
          ],
          "data": "0x0000000000000000000000000000000000000000000000000000000000000014",
          "blockHash": "0x900f7dbb64bc22f091932f8981a6cf3baeb1ff4977bd63a315a5aee3f504e282",
          "blockNumber": "0x1c17a38",
          "transactionHash": "0xd2cdf9ec414f9b66f29e5370e2f324e0bf8a6ba1d24058a7cee82b04d6f93100",
          "transactionIndex": "0x18",
          "logIndex": "0x4c",
          "removed": false
        }
      ],
      "logsBloom": "0x20000000000000000000000000800000000000000000000000000000000000000000000040000000000000000000000000000000000000000000000000000000000000000000000000000000000000000000000000000000000000000000000000000000000000000000000000000000000000000000000009000000000000000000000400000000000000000000000000000000000000000000000000000000000000000000001000000000000000000000000000000000000000000000004000000000000000000000000000004000000000000000000000000000000000000000000000000000000000000000000000000000000000000000000000000000",
      "type": "0x2",
      "transactionHash": "0xd2cdf9ec414f9b66f29e5370e2f324e0bf8a6ba1d24058a7cee82b04d6f93100",
      "transactionIndex": "0x18",
      "blockHash": "0x900f7dbb64bc22f091932f8981a6cf3baeb1ff4977bd63a315a5aee3f504e282",
      "blockNumber": "0x1c17a38",
      "gasUsed": "0xe66a",
      "effectiveGasPrice": "0xf4275",
      "from": "0xc3ca11bd8e131471904dced927b3fb7edb453179",
      "to": "0x2f925d6512b2bbb00f5a36d8b18e01fcf35f7dc7",
      "contractAddress": null,
      "l1BaseFeeScalar": "0x44d",
      "l1BlobBaseFee": "0x86cdc53",
      "l1BlobBaseFeeScalar": "0xa118b",
      "l1Fee": "0x22bf21b3d",
      "l1GasPrice": "0xd174",
      "l1GasUsed": "0x640"
    },
    {
      "status": "0x1",
      "cumulativeGasUsed": "0x19ab6",
      "logs": [
        {
          "address": "0x2f925d6512b2bbb00f5a36d8b18e01fcf35f7dc7",
          "topics": [
            "0x128b13f5a7f3d4a8f9ebafb4d8c23d5f6f5a287c83c1e81e79b1f80c1708a5fb",
            "0x0000000000000000000000000000000000000000000000000000000000000014"
          ],
          "data": "0x0000000000000000000000000000000000000000000000000000000000000002",
          "blockHash": "0xec00583d744f80e4937951ade24e17befd4c277d13d0d98d4d5a5dd446fbf4c7",
          "blockNumber": "0x1c17a3a",
          "transactionHash": "0x50a4e2956cc09495f49c3b8bdb5452bea81f8769970605e408e66457a44dadfe",
          "transactionIndex": "0x1",
          "logIndex": "0x0",
          "removed": false
        }
      ],
      "logsBloom": "0x00000000000000000000000000000000000000000000000000000000000000000000000000000000000000000000000000002000000000000000000000000000000000000000000000000000000000000000000000000000000000000000000000000000000000000000000000000000000000000000000009000000000000000000000400000000000000000000000000000000000400000000000000000000000000000000001020000000000000000000000000000000000000000000004000000000000000000000000000004000000000000000000000000000000000000000000000000000000000000000000000000000000000000000000000000000",
      "type": "0x2",
      "transactionHash": "0x50a4e2956cc09495f49c3b8bdb5452bea81f8769970605e408e66457a44dadfe",
      "transactionIndex": "0x1",
      "blockHash": "0xec00583d744f80e4937951ade24e17befd4c277d13d0d98d4d5a5dd446fbf4c7",
      "blockNumber": "0x1c17a3a",
      "gasUsed": "0xe66a",
      "effectiveGasPrice": "0xf4275",
      "from": "0xc3ca11bd8e131471904dced927b3fb7edb453179",
      "to": "0x2f925d6512b2bbb00f5a36d8b18e01fcf35f7dc7",
      "contractAddress": null,
      "l1BaseFeeScalar": "0x44d",
      "l1BlobBaseFee": "0x86cdc53",
      "l1BlobBaseFeeScalar": "0xa118b",
      "l1Fee": "0x22bf21b3d",
      "l1GasPrice": "0xd174",
      "l1GasUsed": "0x640"
    },
    {
      "status": "0x1",
      "cumulativeGasUsed": "0x211aa7",
      "logs": [
        {
          "address": "0x2f925d6512b2bbb00f5a36d8b18e01fcf35f7dc7",
          "topics": [
            "0x128b13f5a7f3d4a8f9ebafb4d8c23d5f6f5a287c83c1e81e79b1f80c1708a5fb",
            "0x0000000000000000000000000000000000000000000000000000000000000015"
          ],
          "data": "0x0000000000000000000000000000000000000000000000000000000000000001",
          "blockHash": "0xcbce6da27a14bbe671e52759061f69e1ce1abe6820d2fdbbe185cab1ebb49d96",
          "blockNumber": "0x1c17a3b",
          "transactionHash": "0x6bea678d58aca67939092f24abdaeed6e6176b8a6dfb92887ebc8ed15a8fba4c",
          "transactionIndex": "0x11",
          "logIndex": "0x32",
          "removed": false
        }
      ],
      "logsBloom": "0x00000000000000000000000000000000000000000000000000000000000000000000000000000000000000000000000000000000000000000000000000000000001000000000000000000000000000000000000000000000000000000000000000000000000000000000000000000000000000000000000009000000000000000000000400000000000000000000000000000000000000000000000000000000000000000000001000000000010000000000000000000000000000000000004000000000000000000000000000004000000000000000000000000000000000002000000000000000000000000000000000000000000000000000000000000000",
      "type": "0x2",
      "transactionHash": "0x6bea678d58aca67939092f24abdaeed6e6176b8a6dfb92887ebc8ed15a8fba4c",
      "transactionIndex": "0x11",
      "blockHash": "0xcbce6da27a14bbe671e52759061f69e1ce1abe6820d2fdbbe185cab1ebb49d96",
      "blockNumber": "0x1c17a3b",
      "gasUsed": "0xe66a",
      "effectiveGasPrice": "0xf4275",
      "from": "0xc3ca11bd8e131471904dced927b3fb7edb453179",
      "to": "0x2f925d6512b2bbb00f5a36d8b18e01fcf35f7dc7",
      "contractAddress": null,
      "l1BaseFeeScalar": "0x44d",
      "l1BlobBaseFee": "0x86cdc53",
      "l1BlobBaseFeeScalar": "0xa118b",
      "l1Fee": "0x22bf21b3d",
      "l1GasPrice": "0xd174",
      "l1GasUsed": "0x640"
    },
    {
      "status": "0x1",
      "cumulativeGasUsed": "0x77051",
      "logs": [
        {
          "address": "0x2f925d6512b2bbb00f5a36d8b18e01fcf35f7dc7",
          "topics": [
            "0x128b13f5a7f3d4a8f9ebafb4d8c23d5f6f5a287c83c1e81e79b1f80c1708a5fb",
            "0x0000000000000000000000000000000000000000000000000000000000000016"
          ],
          "data": "0x0000000000000000000000000000000000000000000000000000000000000001",
          "blockHash": "0x0641e6dc04dc1f05b0f9238f4b7022d0646c69fb72dc8a38a9f54e14218bd752",
          "blockNumber": "0x1c17a3d",
          "transactionHash": "0x93dfe4ffd4b92722f3dfd428ab67448c2e71c78f2aa1a52cdb50f0756ac0395a",
          "transactionIndex": "0x5",
          "logIndex": "0xd",
          "removed": false
        }
      ],
      "logsBloom": "0x00000000000000000000000000000000000000000000000000000000000000000000000000000000000000000000000000000000000000000000000000000000000000000000000800000000000000000000000000000000000000000000000000000000000000000000000000000000200000000000000009000000000000000000000400000000000000000000000000000000000000000000000000000000000000000000001000000000000000000000000000000000000000000000004000000000000000000000000000004000000000000000000000000000000000000000000000000000000000000000000000000000000000000008000000000000",
      "type": "0x2",
      "transactionHash": "0x93dfe4ffd4b92722f3dfd428ab67448c2e71c78f2aa1a52cdb50f0756ac0395a",
      "transactionIndex": "0x5",
      "blockHash": "0x0641e6dc04dc1f05b0f9238f4b7022d0646c69fb72dc8a38a9f54e14218bd752",
      "blockNumber": "0x1c17a3d",
      "gasUsed": "0xe66a",
      "effectiveGasPrice": "0xf4275",
      "from": "0xc3ca11bd8e131471904dced927b3fb7edb453179",
      "to": "0x2f925d6512b2bbb00f5a36d8b18e01fcf35f7dc7",
      "contractAddress": null,
      "l1BaseFeeScalar": "0x44d",
      "l1BlobBaseFee": "0x8a60f44",
      "l1BlobBaseFeeScalar": "0xa118b",
      "l1Fee": "0x23ab04ae3",
      "l1GasPrice": "0xc3a8",
      "l1GasUsed": "0x640"
    },
    {
      "status": "0x1",
      "cumulativeGasUsed": "0x205fa6",
      "logs": [
        {
          "address": "0x2f925d6512b2bbb00f5a36d8b18e01fcf35f7dc7",
          "topics": [
            "0x128b13f5a7f3d4a8f9ebafb4d8c23d5f6f5a287c83c1e81e79b1f80c1708a5fb",
            "0x0000000000000000000000000000000000000000000000000000000000000017"
          ],
          "data": "0x0000000000000000000000000000000000000000000000000000000000000005",
          "blockHash": "0x61b841ae3c2cbc5024d937d091ea04889b803b0349f9cabfcc10a6aaec9f3ccc",
          "blockNumber": "0x1c17a3e",
          "transactionHash": "0xb6e8efda88f4bb986e07bbc5b962372cbeb4869ca049d51ef80760954497f846",
          "transactionIndex": "0x14",
          "logIndex": "0x38",
          "removed": false
        }
      ],
      "logsBloom": "0x00000000000000000000000000000000000000000000000000000000000000000000000000000000000000000000000000001000000000000000001000000000000000000000000000000000000000000000000000000000000000000000000000000000000000000000000000000000000000000000000009000000000000000000000400000000000000000000000000000000000000000000000000000000000000000000001000000000000000000000000000000000000000000000004000000000000000000000000000004000000000000000000000000000000000000000000000000000000000000000000000000000000000000000000000080000",
      "type": "0x2",
      "transactionHash": "0xb6e8efda88f4bb986e07bbc5b962372cbeb4869ca049d51ef80760954497f846",
      "transactionIndex": "0x14",
      "blockHash": "0x61b841ae3c2cbc5024d937d091ea04889b803b0349f9cabfcc10a6aaec9f3ccc",
      "blockNumber": "0x1c17a3e",
      "gasUsed": "0xe66a",
      "effectiveGasPrice": "0xf4275",
      "from": "0xc3ca11bd8e131471904dced927b3fb7edb453179",
      "to": "0x2f925d6512b2bbb00f5a36d8b18e01fcf35f7dc7",
      "contractAddress": null,
      "l1BaseFeeScalar": "0x44d",
      "l1BlobBaseFee": "0x8a60f44",
      "l1BlobBaseFeeScalar": "0xa118b",
      "l1Fee": "0x23ab04ae3",
      "l1GasPrice": "0xc3a8",
      "l1GasUsed": "0x640"
    },
    {
      "status": "0x1",
      "cumulativeGasUsed": "0x301dd0",
      "logs": [
        {
          "address": "0x2f925d6512b2bbb00f5a36d8b18e01fcf35f7dc7",
          "topics": [
            "0x128b13f5a7f3d4a8f9ebafb4d8c23d5f6f5a287c83c1e81e79b1f80c1708a5fb",
            "0x0000000000000000000000000000000000000000000000000000000000000018"
          ],
          "data": "0x0000000000000000000000000000000000000000000000000000000000000005",
          "blockHash": "0x13c47c686c741a28b1915ab8ea6d311806a5c2ba07c805715597bfba21a68db3",
          "blockNumber": "0x1c17a3f",
          "transactionHash": "0x0c4ac570a6e53479b6cf82dbb2399f70aa80137596bdff7bdaeda16a47c173b8",
          "transactionIndex": "0x13",
          "logIndex": "0x72",
          "removed": false
        }
      ],
      "logsBloom": "0x00000000000000000000000000000000000000000000000000000000000000000000000000000000000000000000000000000000000000000000000000000000000000000000000000000000000000000040000000000000000000000000000000000000000000000000000000000000000000000000000009000000000000000000000400000000000000000000000000000000000000000000000000000000000000000000001000000000000000000000000000000000000000000000004000100000000000000000000000004000000000000000000020000000000000000000000000000000000000000000000000000000000000000000000000000000",
      "type": "0x2",
      "transactionHash": "0x0c4ac570a6e53479b6cf82dbb2399f70aa80137596bdff7bdaeda16a47c173b8",
      "transactionIndex": "0x13",
      "blockHash": "0x13c47c686c741a28b1915ab8ea6d311806a5c2ba07c805715597bfba21a68db3",
      "blockNumber": "0x1c17a3f",
      "gasUsed": "0xe66a",
      "effectiveGasPrice": "0xf4275",
      "from": "0xc3ca11bd8e131471904dced927b3fb7edb453179",
      "to": "0x2f925d6512b2bbb00f5a36d8b18e01fcf35f7dc7",
      "contractAddress": null,
      "l1BaseFeeScalar": "0x44d",
      "l1BlobBaseFee": "0x8a60f44",
      "l1BlobBaseFeeScalar": "0xa118b",
      "l1Fee": "0x23ab04ae3",
      "l1GasPrice": "0xc3a8",
      "l1GasUsed": "0x640"
    },
    {
      "status": "0x1",
      "cumulativeGasUsed": "0x5fb408",
      "logs": [
        {
          "address": "0x2f925d6512b2bbb00f5a36d8b18e01fcf35f7dc7",
          "topics": [
            "0x128b13f5a7f3d4a8f9ebafb4d8c23d5f6f5a287c83c1e81e79b1f80c1708a5fb",
            "0x0000000000000000000000000000000000000000000000000000000000000019"
          ],
          "data": "0x0000000000000000000000000000000000000000000000000000000000000005",
          "blockHash": "0x46cc19942c66008dc838626e615d1006053a856e808f6278bdd9d72d8d03ae3d",
          "blockNumber": "0x1c17a40",
          "transactionHash": "0xa1700b10cd35dd002e038bf6392cb2c157e9becd224c6bccd726cc42b5e96de0",
          "transactionIndex": "0x1b",
          "logIndex": "0x69",
          "removed": false
        }
      ],
      "logsBloom": "0x00000000000000000000000000000000000000000000000000000000000000000000000000000000000000000000000000000000000000800000000000000000000000000000000000000000000000000000000000000000000000000000000000000000000000000000000000000000000000000000020009000000000000000000000400000000000000000000000000000000000000000000000000000000000000000000001000000000000000000000000000000000000000000000004000000000000000000000000000004000000000000000000000000000000000000000000000000000000000000000000000000000000000000000008000000000",
      "type": "0x2",
      "transactionHash": "0xa1700b10cd35dd002e038bf6392cb2c157e9becd224c6bccd726cc42b5e96de0",
      "transactionIndex": "0x1b",
      "blockHash": "0x46cc19942c66008dc838626e615d1006053a856e808f6278bdd9d72d8d03ae3d",
      "blockNumber": "0x1c17a40",
      "gasUsed": "0xe66a",
      "effectiveGasPrice": "0xf4275",
      "from": "0xc3ca11bd8e131471904dced927b3fb7edb453179",
      "to": "0x2f925d6512b2bbb00f5a36d8b18e01fcf35f7dc7",
      "contractAddress": null,
      "l1BaseFeeScalar": "0x44d",
      "l1BlobBaseFee": "0x8a60f44",
      "l1BlobBaseFeeScalar": "0xa118b",
      "l1Fee": "0x23ab04ae3",
      "l1GasPrice": "0xc3a8",
      "l1GasUsed": "0x640"
    },
    {
      "status": "0x1",
      "cumulativeGasUsed": "0x5f4bb0",
      "logs": [
        {
          "address": "0x2f925d6512b2bbb00f5a36d8b18e01fcf35f7dc7",
          "topics": [
            "0x128b13f5a7f3d4a8f9ebafb4d8c23d5f6f5a287c83c1e81e79b1f80c1708a5fb",
            "0x000000000000000000000000000000000000000000000000000000000000001a"
          ],
          "data": "0x0000000000000000000000000000000000000000000000000000000000000005",
          "blockHash": "0x3f1e39c9f0880c26fe722faeaed56bb8b3f7074bb0b382f0d638f8c0e872ca7c",
          "blockNumber": "0x1c17a41",
          "transactionHash": "0x27c332c3f6b6cdd43a2064341ec1a031bbe7e1a07735ca12a320fffa52a61976",
          "transactionIndex": "0x17",
          "logIndex": "0x41",
          "removed": false
        }
      ],
      "logsBloom": "0x00000000000000000000000000000000000000000000000000000000000000000000000000000000000000000000000000000000000000000000000000000000000000000000000000000000000000001000000000000000000000001000000000000000000000000000000000000000000000000000000009000000000000000000000400000000000000000000000000000000000000000000000000000000000000000000001000000000000000000000000000000000000000000000004000000000000000000000000000004000000000000000000000000000000000000000000000000000000000000000000000000000000004000000000000000000",
      "type": "0x2",
      "transactionHash": "0x27c332c3f6b6cdd43a2064341ec1a031bbe7e1a07735ca12a320fffa52a61976",
      "transactionIndex": "0x17",
      "blockHash": "0x3f1e39c9f0880c26fe722faeaed56bb8b3f7074bb0b382f0d638f8c0e872ca7c",
      "blockNumber": "0x1c17a41",
      "gasUsed": "0xe66a",
      "effectiveGasPrice": "0xf4275",
      "from": "0xc3ca11bd8e131471904dced927b3fb7edb453179",
      "to": "0x2f925d6512b2bbb00f5a36d8b18e01fcf35f7dc7",
      "contractAddress": null,
      "l1BaseFeeScalar": "0x44d",
      "l1BlobBaseFee": "0x8a60f44",
      "l1BlobBaseFeeScalar": "0xa118b",
      "l1Fee": "0x23ab04ae3",
      "l1GasPrice": "0xc3a8",
      "l1GasUsed": "0x640"
    },
    {
      "status": "0x1",
      "cumulativeGasUsed": "0x1d0c97",
      "logs": [],
      "logsBloom": "0x00000000000000000000000000000000000000000000000000000000000000000000000000000000000000000000000000000000000000000000000000000000000000000000000000000000000000000000000000000000000000000000000000000000000000000000000000000000000000000000000000000000000000000000000000000000000000000000000000000000000000000000000000000000000000000000000000000000000000000000000000000000000000000000000000000000000000000000000000000000000000000000000000000000000000000000000000000000000000000000000000000000000000000000000000000000",
      "type": "0x2",
      "transactionHash": "0xadf8f14c48552654d034575f7d94715e0da6235ff90c852cacb1762141d8b77f",
      "transactionIndex": "0xf",
      "blockHash": "0xe7c1b9d61b43ff6f0101425a533e87b1391a67d16c996da70c479ecaae75b429",
      "blockNumber": "0x1c17a42",
      "gasUsed": "0x12fed",
      "effectiveGasPrice": "0xf4275",
      "from": "0xc3ca11bd8e131471904dced927b3fb7edb453179",
      "to": "0x9c9e9fad264089339aad66ff3e32d2ba1ddf6951",
      "contractAddress": null,
      "l1BaseFeeScalar": "0x44d",
      "l1BlobBaseFee": "0x8a60f44",
      "l1BlobBaseFeeScalar": "0xa118b",
      "l1Fee": "0x23ab04ae3",
      "l1GasPrice": "0xc3a8",
      "l1GasUsed": "0x640"
    },
    {
      "status": "0x1",
      "cumulativeGasUsed": "0x2b12c9",
      "logs": [],
      "logsBloom": "0x00000000000000000000000000000000000000000000000000000000000000000000000000000000000000000000000000000000000000000000000000000000000000000000000000000000000000000000000000000000000000000000000000000000000000000000000000000000000000000000000000000000000000000000000000000000000000000000000000000000000000000000000000000000000000000000000000000000000000000000000000000000000000000000000000000000000000000000000000000000000000000000000000000000000000000000000000000000000000000000000000000000000000000000000000000000",
      "type": "0x2",
      "transactionHash": "0x62464c0cf0c959c2f4ec1e5379ad2a5e1cc357ff30b02b5acc34d1d67c178b76",
      "transactionIndex": "0xf",
      "blockHash": "0xd879e1c482161cd5e7982d191f92ef8d18425f7aee644422aa66721b731ebd57",
      "blockNumber": "0x1c17a43",
      "gasUsed": "0xd2bd",
      "effectiveGasPrice": "0xf4275",
      "from": "0xc3ca11bd8e131471904dced927b3fb7edb453179",
      "to": "0x9c9e9fad264089339aad66ff3e32d2ba1ddf6951",
      "contractAddress": null,
      "l1BaseFeeScalar": "0x44d",
      "l1BlobBaseFee": "0x95aeb7f",
      "l1BlobBaseFeeScalar": "0xa118b",
      "l1Fee": "0x2694e4d96",
      "l1GasPrice": "0xb913",
      "l1GasUsed": "0x640"
    },
    {
      "status": "0x1",
      "cumulativeGasUsed": "0x3743cc",
      "logs": [],
      "logsBloom": "0x00000000000000000000000000000000000000000000000000000000000000000000000000000000000000000000000000000000000000000000000000000000000000000000000000000000000000000000000000000000000000000000000000000000000000000000000000000000000000000000000000000000000000000000000000000000000000000000000000000000000000000000000000000000000000000000000000000000000000000000000000000000000000000000000000000000000000000000000000000000000000000000000000000000000000000000000000000000000000000000000000000000000000000000000000000000",
      "type": "0x2",
      "transactionHash": "0xe4fa7049b5fbe5adb8f95e0b856e9d4c4b7b1697402ab27a59c1da31e518867e",
      "transactionIndex": "0xe",
      "blockHash": "0xa1ce2f1a1a833ebf5f16ffcc8fee61318fbab1a5aaf2f342dfd16c81a7637302",
      "blockNumber": "0x1c17a44",
      "gasUsed": "0x16933",
      "effectiveGasPrice": "0xf4275",
      "from": "0xc3ca11bd8e131471904dced927b3fb7edb453179",
      "to": "0x9c9e9fad264089339aad66ff3e32d2ba1ddf6951",
      "contractAddress": null,
      "l1BaseFeeScalar": "0x44d",
      "l1BlobBaseFee": "0x95aeb7f",
      "l1BlobBaseFeeScalar": "0xa118b",
      "l1Fee": "0x2694e4d96",
      "l1GasPrice": "0xb913",
      "l1GasUsed": "0x640"
    },
    {
      "status": "0x1",
      "cumulativeGasUsed": "0x71eb9a",
      "logs": [],
      "logsBloom": "0x00000000000000000000000000000000000000000000000000000000000000000000000000000000000000000000000000000000000000000000000000000000000000000000000000000000000000000000000000000000000000000000000000000000000000000000000000000000000000000000000000000000000000000000000000000000000000000000000000000000000000000000000000000000000000000000000000000000000000000000000000000000000000000000000000000000000000000000000000000000000000000000000000000000000000000000000000000000000000000000000000000000000000000000000000000000",
      "type": "0x2",
      "transactionHash": "0xf2c774c20101067cc3d93fe76cc8b752ec365501c8756fc6ef8d1dad5cc9d784",
      "transactionIndex": "0x10",
      "blockHash": "0xf423e84e3e57336bc7a6669fc10fdfd84fdee6a4fbe65ae6ca9887bb1aef5341",
      "blockNumber": "0x1c17a45",
      "gasUsed": "0xcff9",
      "effectiveGasPrice": "0xf4275",
      "from": "0xc3ca11bd8e131471904dced927b3fb7edb453179",
      "to": "0xe912f7c7a59470a6e3f178388106e3caa9e6fbd1",
      "contractAddress": null,
      "l1BaseFeeScalar": "0x44d",
      "l1BlobBaseFee": "0x95aeb7f",
      "l1BlobBaseFeeScalar": "0xa118b",
      "l1Fee": "0x2694e4d96",
      "l1GasPrice": "0xb913",
      "l1GasUsed": "0x640"
    },
    {
      "status": "0x1",
      "cumulativeGasUsed": "0x10a11d",
      "logs": [],
      "logsBloom": "0x00000000000000000000000000000000000000000000000000000000000000000000000000000000000000000000000000000000000000000000000000000000000000000000000000000000000000000000000000000000000000000000000000000000000000000000000000000000000000000000000000000000000000000000000000000000000000000000000000000000000000000000000000000000000000000000000000000000000000000000000000000000000000000000000000000000000000000000000000000000000000000000000000000000000000000000000000000000000000000000000000000000000000000000000000000000",
      "type": "0x2",
      "transactionHash": "0xb64ec3a8674ee61237c24fbdbe1b6d961930263d3f409007253a28999b6ca32e",
      "transactionIndex": "0x6",
      "blockHash": "0x8bfdf44350b762853c7c56660d2155d9e3d436340aa557724cccf7024b178333",
      "blockNumber": "0x1c17a47",
      "gasUsed": "0xcf33",
      "effectiveGasPrice": "0xf4275",
      "from": "0xc3ca11bd8e131471904dced927b3fb7edb453179",
      "to": "0xe912f7c7a59470a6e3f178388106e3caa9e6fbd1",
      "contractAddress": null,
      "l1BaseFeeScalar": "0x44d",
      "l1BlobBaseFee": "0x95aeb7f",
      "l1BlobBaseFeeScalar": "0xa118b",
      "l1Fee": "0x2694e4d96",
      "l1GasPrice": "0xb913",
      "l1GasUsed": "0x640"
    },
    {
      "status": "0x1",
      "cumulativeGasUsed": "0x1f5129",
      "logs": [],
      "logsBloom": "0x00000000000000000000000000000000000000000000000000000000000000000000000000000000000000000000000000000000000000000000000000000000000000000000000000000000000000000000000000000000000000000000000000000000000000000000000000000000000000000000000000000000000000000000000000000000000000000000000000000000000000000000000000000000000000000000000000000000000000000000000000000000000000000000000000000000000000000000000000000000000000000000000000000000000000000000000000000000000000000000000000000000000000000000000000000000",
      "type": "0x2",
      "transactionHash": "0xa8986ac1fb50a37dcb70c15df4c7fd7b5dfca4950bb860959a514c20d5392f9f",
      "transactionIndex": "0xb",
      "blockHash": "0xe673727056031a4c9b28df1a5b9a55f14ee029b1936e63e31f43ef1e9f1faf7e",
      "blockNumber": "0x1c17a48",
      "gasUsed": "0xd44e",
      "effectiveGasPrice": "0xf4275",
      "from": "0xc3ca11bd8e131471904dced927b3fb7edb453179",
      "to": "0xe912f7c7a59470a6e3f178388106e3caa9e6fbd1",
      "contractAddress": null,
      "l1BaseFeeScalar": "0x44d",
      "l1BlobBaseFee": "0x95aeb7f",
      "l1BlobBaseFeeScalar": "0xa118b",
      "l1Fee": "0x2694e4d96",
      "l1GasPrice": "0xb913",
      "l1GasUsed": "0x640"
    },
    {
      "status": "0x1",
      "cumulativeGasUsed": "0x15ae53",
      "logs": [],
      "logsBloom": "0x00000000000000000000000000000000000000000000000000000000000000000000000000000000000000000000000000000000000000000000000000000000000000000000000000000000000000000000000000000000000000000000000000000000000000000000000000000000000000000000000000000000000000000000000000000000000000000000000000000000000000000000000000000000000000000000000000000000000000000000000000000000000000000000000000000000000000000000000000000000000000000000000000000000000000000000000000000000000000000000000000000000000000000000000000000000",
      "type": "0x2",
      "transactionHash": "0x03d8ae98a67160f529d728f41a763f6c98e0d313e51502b85a22967d447922ee",
      "transactionIndex": "0xc",
      "blockHash": "0x9b3c29ec08ed5f71eaad13daf1bb483147c42d5652423c7e5aa0a74c01bd2e61",
      "blockNumber": "0x1c17a49",
      "gasUsed": "0xd324",
      "effectiveGasPrice": "0xf4275",
      "from": "0xc3ca11bd8e131471904dced927b3fb7edb453179",
      "to": "0xe912f7c7a59470a6e3f178388106e3caa9e6fbd1",
      "contractAddress": null,
      "l1BaseFeeScalar": "0x44d",
      "l1BlobBaseFee": "0x9dba0ef",
      "l1BlobBaseFeeScalar": "0xa118b",
      "l1Fee": "0x28a7b1c90",
      "l1GasPrice": "0xb1b9",
      "l1GasUsed": "0x640"
    },
    {
      "status": "0x1",
      "cumulativeGasUsed": "0x9c372",
      "logs": [],
      "logsBloom": "0x00000000000000000000000000000000000000000000000000000000000000000000000000000000000000000000000000000000000000000000000000000000000000000000000000000000000000000000000000000000000000000000000000000000000000000000000000000000000000000000000000000000000000000000000000000000000000000000000000000000000000000000000000000000000000000000000000000000000000000000000000000000000000000000000000000000000000000000000000000000000000000000000000000000000000000000000000000000000000000000000000000000000000000000000000000000",
      "type": "0x2",
      "transactionHash": "0x85eb01bc23c89441a9be3736ff307afb1277d6f571272097c6c39ef892403fe2",
      "transactionIndex": "0x6",
      "blockHash": "0xe9dd90383b933b951f2b3e084e69b5c772bd81bbda0b0c302cd9dd3e711a3887",
      "blockNumber": "0x1c17a4b",
      "gasUsed": "0xd228",
      "effectiveGasPrice": "0xf4275",
      "from": "0xc3ca11bd8e131471904dced927b3fb7edb453179",
      "to": "0xe912f7c7a59470a6e3f178388106e3caa9e6fbd1",
      "contractAddress": null,
      "l1BaseFeeScalar": "0x44d",
      "l1BlobBaseFee": "0x9dba0ef",
      "l1BlobBaseFeeScalar": "0xa118b",
      "l1Fee": "0x28a7b1c90",
      "l1GasPrice": "0xb1b9",
      "l1GasUsed": "0x640"
    },
    {
      "status": "0x1",
      "cumulativeGasUsed": "0x9ffb56",
      "logs": [],
      "logsBloom": "0x00000000000000000000000000000000000000000000000000000000000000000000000000000000000000000000000000000000000000000000000000000000000000000000000000000000000000000000000000000000000000000000000000000000000000000000000000000000000000000000000000000000000000000000000000000000000000000000000000000000000000000000000000000000000000000000000000000000000000000000000000000000000000000000000000000000000000000000000000000000000000000000000000000000000000000000000000000000000000000000000000000000000000000000000000000000",
      "type": "0x2",
      "transactionHash": "0x1c952805892f87a4105b8d89277733482eb988808cf171cb4b95724b1fca3b4c",
      "transactionIndex": "0x26",
      "blockHash": "0x26c816aec3cb3d21b8ef78cec2fffa78f544b4092b7fc30da9dc39e9994ea448",
      "blockNumber": "0x1c17a4c",
      "gasUsed": "0xd2d8",
      "effectiveGasPrice": "0xf4275",
      "from": "0xc3ca11bd8e131471904dced927b3fb7edb453179",
      "to": "0xe912f7c7a59470a6e3f178388106e3caa9e6fbd1",
      "contractAddress": null,
      "l1BaseFeeScalar": "0x44d",
      "l1BlobBaseFee": "0x9dba0ef",
      "l1BlobBaseFeeScalar": "0xa118b",
      "l1Fee": "0x28a7b1c90",
      "l1GasPrice": "0xb1b9",
      "l1GasUsed": "0x640"
    },
    {
      "status": "0x1",
      "cumulativeGasUsed": "0x70fd9",
      "logs": [],
      "logsBloom": "0x00000000000000000000000000000000000000000000000000000000000000000000000000000000000000000000000000000000000000000000000000000000000000000000000000000000000000000000000000000000000000000000000000000000000000000000000000000000000000000000000000000000000000000000000000000000000000000000000000000000000000000000000000000000000000000000000000000000000000000000000000000000000000000000000000000000000000000000000000000000000000000000000000000000000000000000000000000000000000000000000000000000000000000000000000000000",
      "type": "0x2",
      "transactionHash": "0x7d0cc17207cdd31e6244a74b2cf2e9cd0a4cef685454261fe36e518cd2a795d6",
      "transactionIndex": "0x3",
      "blockHash": "0x6d55cd978619a0cabbccb5bf8e8955ce3861dbca81862e310f28019816fad064",
      "blockNumber": "0x1c17a4e",
      "gasUsed": "0xd04e",
      "effectiveGasPrice": "0xf4275",
      "from": "0xc3ca11bd8e131471904dced927b3fb7edb453179",
      "to": "0x92228b058f25bc4fb333fa296dddecbddf6496f3",
      "contractAddress": null,
      "l1BaseFeeScalar": "0x44d",
      "l1BlobBaseFee": "0x9dba0ef",
      "l1BlobBaseFeeScalar": "0xa118b",
      "l1Fee": "0x28a7b1c90",
      "l1GasPrice": "0xb1b9",
      "l1GasUsed": "0x640"
    },
    {
      "status": "0x1",
      "cumulativeGasUsed": "0x31713",
      "logs": [],
      "logsBloom": "0x00000000000000000000000000000000000000000000000000000000000000000000000000000000000000000000000000000000000000000000000000000000000000000000000000000000000000000000000000000000000000000000000000000000000000000000000000000000000000000000000000000000000000000000000000000000000000000000000000000000000000000000000000000000000000000000000000000000000000000000000000000000000000000000000000000000000000000000000000000000000000000000000000000000000000000000000000000000000000000000000000000000000000000000000000000000",
      "type": "0x2",
      "transactionHash": "0xd29fcdf6290ccfbd530ec31eaf91e7f8f3fc5219c04ff383166d5bbe113e28cb",
      "transactionIndex": "0x2",
      "blockHash": "0x6c04632ece05aa434d8c6e6ef4c05f6dc72cb4d5a2674ed05cce44d93f2fb9e3",
      "blockNumber": "0x1c17a50",
      "gasUsed": "0x83bd",
      "effectiveGasPrice": "0xf4275",
      "from": "0xc3ca11bd8e131471904dced927b3fb7edb453179",
      "to": "0x92228b058f25bc4fb333fa296dddecbddf6496f3",
      "contractAddress": null,
      "l1BaseFeeScalar": "0x44d",
      "l1BlobBaseFee": "0x99a6ea0",
      "l1BlobBaseFeeScalar": "0xa118b",
      "l1Fee": "0x279ad0441",
      "l1GasPrice": "0xa3be",
      "l1GasUsed": "0x640"
    },
    {
      "status": "0x1",
      "cumulativeGasUsed": "0x2bad5",
      "logs": [],
      "logsBloom": "0x00000000000000000000000000000000000000000000000000000000000000000000000000000000000000000000000000000000000000000000000000000000000000000000000000000000000000000000000000000000000000000000000000000000000000000000000000000000000000000000000000000000000000000000000000000000000000000000000000000000000000000000000000000000000000000000000000000000000000000000000000000000000000000000000000000000000000000000000000000000000000000000000000000000000000000000000000000000000000000000000000000000000000000000000000000000",
      "type": "0x2",
      "transactionHash": "0x7fb644ce2f70b56f62d8905abd5f3ceeff46e8e3249b438262067e9b7ba7ae99",
      "transactionIndex": "0x2",
      "blockHash": "0xe91db9ebb652e12c6c0ccf330660afecaf8455a06e3cdbec87ce97325cdd3a84",
      "blockNumber": "0x1c17a52",
      "gasUsed": "0xcf46",
      "effectiveGasPrice": "0xf4275",
      "from": "0xc3ca11bd8e131471904dced927b3fb7edb453179",
      "to": "0x92228b058f25bc4fb333fa296dddecbddf6496f3",
      "contractAddress": null,
      "l1BaseFeeScalar": "0x44d",
      "l1BlobBaseFee": "0x99a6ea0",
      "l1BlobBaseFeeScalar": "0xa118b",
      "l1Fee": "0x279ad0441",
      "l1GasPrice": "0xa3be",
      "l1GasUsed": "0x640"
    },
    {
      "status": "0x1",
      "cumulativeGasUsed": "0x76efb7",
      "logs": [],
      "logsBloom": "0x00000000000000000000000000000000000000000000000000000000000000000000000000000000000000000000000000000000000000000000000000000000000000000000000000000000000000000000000000000000000000000000000000000000000000000000000000000000000000000000000000000000000000000000000000000000000000000000000000000000000000000000000000000000000000000000000000000000000000000000000000000000000000000000000000000000000000000000000000000000000000000000000000000000000000000000000000000000000000000000000000000000000000000000000000000000",
      "type": "0x2",
      "transactionHash": "0xa53dad66ad8391320a32b52e487c4c6d86d8d794ef6597452ab4e53b205776cc",
      "transactionIndex": "0x20",
      "blockHash": "0x61a301039ece48148769f8fa2468b8906408da8010ad41369481a8a63be52fa3",
      "blockNumber": "0x1c17a53",
      "gasUsed": "0xd029",
      "effectiveGasPrice": "0xf4275",
      "from": "0xc3ca11bd8e131471904dced927b3fb7edb453179",
      "to": "0x2af842c6517cf30fb3456aef485230e0dd085845",
      "contractAddress": null,
      "l1BaseFeeScalar": "0x44d",
      "l1BlobBaseFee": "0x99a6ea0",
      "l1BlobBaseFeeScalar": "0xa118b",
      "l1Fee": "0x279ad0441",
      "l1GasPrice": "0xa3be",
      "l1GasUsed": "0x640"
    },
    {
      "status": "0x1",
      "cumulativeGasUsed": "0x7a8db9",
      "logs": [],
      "logsBloom": "0x00000000000000000000000000000000000000000000000000000000000000000000000000000000000000000000000000000000000000000000000000000000000000000000000000000000000000000000000000000000000000000000000000000000000000000000000000000000000000000000000000000000000000000000000000000000000000000000000000000000000000000000000000000000000000000000000000000000000000000000000000000000000000000000000000000000000000000000000000000000000000000000000000000000000000000000000000000000000000000000000000000000000000000000000000000000",
      "type": "0x2",
      "transactionHash": "0xff519f39b850fc7ff5eec07df27d07c1065d34811469e951a2005468179acb41",
      "transactionIndex": "0x20",
      "blockHash": "0xff9db33470840d0c6b3af8a06bacba6b9fa785cf4c1e7196fe97cbfde12f3a5b",
      "blockNumber": "0x1c17a54",
      "gasUsed": "0x8457",
      "effectiveGasPrice": "0xf4275",
      "from": "0xc3ca11bd8e131471904dced927b3fb7edb453179",
      "to": "0x2af842c6517cf30fb3456aef485230e0dd085845",
      "contractAddress": null,
      "l1BaseFeeScalar": "0x44d",
      "l1BlobBaseFee": "0x99a6ea0",
      "l1BlobBaseFeeScalar": "0xa118b",
      "l1Fee": "0x279ad0441",
      "l1GasPrice": "0xa3be",
      "l1GasUsed": "0x640"
    },
    {
      "status": "0x1",
      "cumulativeGasUsed": "0x1db6b7",
      "logs": [],
      "logsBloom": "0x00000000000000000000000000000000000000000000000000000000000000000000000000000000000000000000000000000000000000000000000000000000000000000000000000000000000000000000000000000000000000000000000000000000000000000000000000000000000000000000000000000000000000000000000000000000000000000000000000000000000000000000000000000000000000000000000000000000000000000000000000000000000000000000000000000000000000000000000000000000000000000000000000000000000000000000000000000000000000000000000000000000000000000000000000000000",
      "type": "0x2",
      "transactionHash": "0x15e6ee43edf4966620b3f701c7eb61cce022f0fca14ddc4a33902eec319430a0",
      "transactionIndex": "0xd",
      "blockHash": "0x78000b5720ee8076aedb8d50a54506d3042606fffea7a23570edb5466e9257f2",
      "blockNumber": "0x1c17a55",
      "gasUsed": "0xcf30",
      "effectiveGasPrice": "0xf4275",
      "from": "0xc3ca11bd8e131471904dced927b3fb7edb453179",
      "to": "0x2af842c6517cf30fb3456aef485230e0dd085845",
      "contractAddress": null,
      "l1BaseFeeScalar": "0x44d",
      "l1BlobBaseFee": "0x8e0c688",
      "l1BlobBaseFeeScalar": "0xa118b",
      "l1Fee": "0x249d28fa5",
      "l1GasPrice": "0xb470",
      "l1GasUsed": "0x640"
    },
    {
      "status": "0x1",
      "cumulativeGasUsed": "0x456f18",
      "logs": [],
      "logsBloom": "0x00000000000000000000000000000000000000000000000000000000000000000000000000000000000000000000000000000000000000000000000000000000000000000000000000000000000000000000000000000000000000000000000000000000000000000000000000000000000000000000000000000000000000000000000000000000000000000000000000000000000000000000000000000000000000000000000000000000000000000000000000000000000000000000000000000000000000000000000000000000000000000000000000000000000000000000000000000000000000000000000000000000000000000000000000000000",
      "type": "0x2",
      "transactionHash": "0x2909e00f0d1c8f660910a99d26136320d7b834ac3ecdc6aff9828ce21058be0f",
      "transactionIndex": "0xf",
      "blockHash": "0x632dbd0d081ca5e1d1e577382dcecd1cf234d82edd4a90c146af038354e9734a",
      "blockNumber": "0x1c17a56",
      "gasUsed": "0xeda0b",
      "effectiveGasPrice": "0xf4275",
      "from": "0xc3ca11bd8e131471904dced927b3fb7edb453179",
      "to": "0x58b610a359c870e0fc941139821a51f5aa23f14e",
      "contractAddress": null,
      "l1BaseFeeScalar": "0x44d",
      "l1BlobBaseFee": "0x8e0c688",
      "l1BlobBaseFeeScalar": "0xa118b",
      "l1Fee": "0x64cad8f31",
      "l1GasPrice": "0xb470",
      "l1GasUsed": "0x1134"
    },
    {
      "status": "0x1",
      "cumulativeGasUsed": "0xad3a4d",
      "logs": [],
      "logsBloom": "0x00000000000000000000000000000000000000000000000000000000000000000000000000000000000000000000000000000000000000000000000000000000000000000000000000000000000000000000000000000000000000000000000000000000000000000000000000000000000000000000000000000000000000000000000000000000000000000000000000000000000000000000000000000000000000000000000000000000000000000000000000000000000000000000000000000000000000000000000000000000000000000000000000000000000000000000000000000000000000000000000000000000000000000000000000000000",
      "type": "0x2",
      "transactionHash": "0xc9a2b13c9de9d472d8e7f31bd69db062a513b7af1bb3295c191bb49d215d9573",
      "transactionIndex": "0x14",
      "blockHash": "0x948285b3c70b518ab8d10a00042e5c98dd480b64f77ca9b4913e1120a9e58a8f",
      "blockNumber": "0x1c17a57",
      "gasUsed": "0x125654",
      "effectiveGasPrice": "0xf4275",
      "from": "0xc3ca11bd8e131471904dced927b3fb7edb453179",
      "to": "0x58b610a359c870e0fc941139821a51f5aa23f14e",
      "contractAddress": null,
      "l1BaseFeeScalar": "0x44d",
      "l1BlobBaseFee": "0x8e0c688",
      "l1BlobBaseFeeScalar": "0xa118b",
      "l1Fee": "0x651941026",
      "l1GasPrice": "0xb470",
      "l1GasUsed": "0x1141"
    },
    {
      "status": "0x1",
      "cumulativeGasUsed": "0x27a346",
      "logs": [],
      "logsBloom": "0x00000000000000000000000000000000000000000000000000000000000000000000000000000000000000000000000000000000000000000000000000000000000000000000000000000000000000000000000000000000000000000000000000000000000000000000000000000000000000000000000000000000000000000000000000000000000000000000000000000000000000000000000000000000000000000000000000000000000000000000000000000000000000000000000000000000000000000000000000000000000000000000000000000000000000000000000000000000000000000000000000000000000000000000000000000000",
      "type": "0x2",
      "transactionHash": "0x7b390a8d60e32c5d54452cad419713c4517624e9fa32de593be864023cf6e776",
      "transactionIndex": "0xa",
      "blockHash": "0x848f58a7065bdb5fd668a02b19783dcadf64b669a29a24415a1dea77d7524e53",
      "blockNumber": "0x1c17a58",
      "gasUsed": "0xf32bd",
      "effectiveGasPrice": "0xf4275",
      "from": "0xc3ca11bd8e131471904dced927b3fb7edb453179",
      "to": "0x58b610a359c870e0fc941139821a51f5aa23f14e",
      "contractAddress": null,
      "l1BaseFeeScalar": "0x44d",
      "l1BlobBaseFee": "0x8e0c688",
      "l1BlobBaseFeeScalar": "0xa118b",
      "l1Fee": "0x6567a911c",
      "l1GasPrice": "0xb470",
      "l1GasUsed": "0x114f"
    },
    {
      "status": "0x1",
      "cumulativeGasUsed": "0x34fe72",
      "logs": [],
      "logsBloom": "0x00000000000000000000000000000000000000000000000000000000000000000000000000000000000000000000000000000000000000000000000000000000000000000000000000000000000000000000000000000000000000000000000000000000000000000000000000000000000000000000000000000000000000000000000000000000000000000000000000000000000000000000000000000000000000000000000000000000000000000000000000000000000000000000000000000000000000000000000000000000000000000000000000000000000000000000000000000000000000000000000000000000000000000000000000000000",
      "type": "0x2",
      "transactionHash": "0x99ae147dda4b6fd0a7a8f1199d101787bee2ccce3e4b1a55429b0c2bc4aa314e",
      "transactionIndex": "0xc",
      "blockHash": "0x0fd275340b7f793155aa9918800b098d863fa1e4e045793fad0c1ac0188026c6",
      "blockNumber": "0x1c17a59",
      "gasUsed": "0xf2379",
      "effectiveGasPrice": "0xf4275",
      "from": "0xc3ca11bd8e131471904dced927b3fb7edb453179",
      "to": "0x58b610a359c870e0fc941139821a51f5aa23f14e",
      "contractAddress": null,
      "l1BaseFeeScalar": "0x44d",
      "l1BlobBaseFee": "0x8e0c688",
      "l1BlobBaseFeeScalar": "0xa118b",
      "l1Fee": "0x66a1494f1",
      "l1GasPrice": "0xb470",
      "l1GasUsed": "0x1184"
    }
  ],
  "libraries": [],
  "pending": [],
  "returns": {},
  "timestamp": 1754682258,
  "chain": 84532,
  "commit": "5798807"
}