{
  "transactions": [
    {
      "hash": "0x4bf20466e3540f9acf94916c786b4cfbb93bd598d0eb7354506d1a8f64189b6e",
      "transactionType": "CALL",
      "contractName": null,
      "contractAddress": "0x8Ea9B4616e5653CF21B87e60c8D72d8384685ec6",
      "function": "addChainContract(string,string)",
      "arguments": [
        "200810",
        "0x005c5Fd1585A73817107bFd3929f7e559750ceEd"
      ],
      "transaction": {
        "from": "0xe62Ab4D111f968660C6B2188046F9B9bA53C4Bae",
        "to": "0x8Ea9B4616e5653CF21B87e60c8D72d8384685ec6",
        "gas": "0x392e7",
        "value": "0x0",
        "input": "0x12d3fcfa0000000000000000000000000000000000000000000000000000000000000040000000000000000000000000000000000000000000000000000000000000008000000000000000000000000000000000000000000000000000000000000000063230303831300000000000000000000000000000000000000000000000000000000000000000000000000000000000000000000000000000000000000000002a30783030356335466431353835413733383137313037624664333932396637653535393735306365456400000000000000000000000000000000000000000000",
        "nonce": "0x1bc",
        "chainId": "0x66eee"
      },
      "additionalContracts": [],
      "isFixedGasLimit": false
    },
    {
      "hash": "0x5c85dadac5ec0d0cd9289208ccbc3476915e8152122a5cca85dedbd20558f348",
      "transactionType": "CALL",
      "contractName": null,
      "contractAddress": "0x8Ea9B4616e5653CF21B87e60c8D72d8384685ec6",
      "function": "attachRWAX(uint256,uint256,string,string)",
      "arguments": [
        "1",
        "1",
        "200810",
        "0xDef5D31e4b2E0BF38Af3E8092a5ABF51Db484Eec"
      ],
      "transaction": {
        "from": "0xe62Ab4D111f968660C6B2188046F9B9bA53C4Bae",
        "to": "0x8Ea9B4616e5653CF21B87e60c8D72d8384685ec6",
        "gas": "0x3a375",
        "value": "0x0",
        "input": "0x5cbee36a00000000000000000000000000000000000000000000000000000000000000010000000000000000000000000000000000000000000000000000000000000001000000000000000000000000000000000000000000000000000000000000008000000000000000000000000000000000000000000000000000000000000000c000000000000000000000000000000000000000000000000000000000000000063230303831300000000000000000000000000000000000000000000000000000000000000000000000000000000000000000000000000000000000000000002a30784465663544333165346232453042463338416633453830393261354142463531446234383445656300000000000000000000000000000000000000000000",
        "nonce": "0x1bd",
        "chainId": "0x66eee"
      },
      "additionalContracts": [],
      "isFixedGasLimit": false
    }
  ],
  "receipts": [
    {
      "status": "0x1",
      "cumulativeGasUsed": "0x29b59",
      "logs": [],
      "logsBloom": "0x00000000000000000000000000000000000000000000000000000000000000000000000000000000000000000000000000000000000000000000000000000000000000000000000000000000000000000000000000000000000000000000000000000000000000000000000000000000000000000000000000000000000000000000000000000000000000000000000000000000000000000000000000000000000000000000000000000000000000000000000000000000000000000000000000000000000000000000000000000000000000000000000000000000000000000000000000000000000000000000000000000000000000000000000000000000",
      "type": "0x0",
      "transactionHash": "0x4bf20466e3540f9acf94916c786b4cfbb93bd598d0eb7354506d1a8f64189b6e",
      "transactionIndex": "0x1",
      "blockHash": "0x4a675fa8f71f4e9415332613b459844d9e8e9ea893643ad6ebcf258f0d051e29",
      "blockNumber": "0x554d8e6",
      "gasUsed": "0x29b59",
      "effectiveGasPrice": "0x5f5e100",
      "from": "0xe62Ab4D111f968660C6B2188046F9B9bA53C4Bae",
      "to": "0x8Ea9B4616e5653CF21B87e60c8D72d8384685ec6",
      "contractAddress": null,
      "gasUsedForL1": "0x5ee0",
      "l1BlockNumber": "0x692e42"
    },
    {
      "status": "0x1",
      "cumulativeGasUsed": "0x8d52f",
      "logs": [],
      "logsBloom": "0x00000000000000000000000000000000000000000000000000000000000000000000000000000000000000000000000000000000000000000000000000000000000000000000000000000000000000000000000000000000000000000000000000000000000000000000000000000000000000000000000000000000000000000000000000000000000000000000000000000000000000000000000000000000000000000000000000000000000000000000000000000000000000000000000000000000000000000000000000000000000000000000000000000000000000000000000000000000000000000000000000000000000000000000000000000000",
      "type": "0x0",
      "transactionHash": "0x5c85dadac5ec0d0cd9289208ccbc3476915e8152122a5cca85dedbd20558f348",
      "transactionIndex": "0x2",
      "blockHash": "0x1ca198a36a606d31b374f405a93441a088c41baef2fa0ecc9ffa9bcabb3d486c",
      "blockNumber": "0x554d8fc",
      "gasUsed": "0x2a712",
      "effectiveGasPrice": "0x5f5e100",
      "from": "0xe62Ab4D111f968660C6B2188046F9B9bA53C4Bae",
      "to": "0x8Ea9B4616e5653CF21B87e60c8D72d8384685ec6",
      "contractAddress": null,
      "gasUsedForL1": "0x5ff2",
      "l1BlockNumber": "0x692e42"
    }
  ],
  "libraries": [],
  "pending": [],
  "returns": {},
  "timestamp": 1729180804,
  "chain": 421614,
  "commit": "089dfaad"
}