{
  "transactions": [
    {
      "hash": "0x5f41205e74fb78b2b9edf7fd68f3f1e7d68b30649faf87a4afd355454ece092d",
      "transactionType": "CALL",
      "contractName": null,
      "contractAddress": "0x58b610a359c870e0fc941139821a51f5aa23f14e",
      "function": "addTxSender(address)",
      "arguments": [
        "0x5d0725Add79feD3f0E61851b3C4704148Ef9c7eA"
      ],
      "transaction": {
        "from": "0xc3ca11bd8e131471904dced927b3fb7edb453179",
        "to": "0x58b610a359c870e0fc941139821a51f5aa23f14e",
        "gas": "0x12a32",
        "value": "0x0",
        "input": "0xeebd14af0000000000000000000000005d0725add79fed3f0e61851b3c4704148ef9c7ea",
        "nonce": "0xc5",
        "chainId": "0x61"
      },
      "additionalContracts": [],
      "isFixedGasLimit": false
    },
    {
      "hash": "0x4d5f4d97559be21ea3f3ec9a6df77a851e5ecdedd6fbd807a77eaeb1c06deaac",
      "transactionType": "CALL",
      "contractName": null,
      "contractAddress": "0x2f925d6512b2bbb00f5a36d8b18e01fcf35f7dc7",
      "function": "addTxSender(address)",
      "arguments": [
        "0x5d0725Add79feD3f0E61851b3C4704148Ef9c7eA"
      ],
      "transaction": {
        "from": "0xc3ca11bd8e131471904dced927b3fb7edb453179",
        "to": "0x2f925d6512b2bbb00f5a36d8b18e01fcf35f7dc7",
        "gas": "0x12a13",
        "value": "0x0",
        "input": "0xeebd14af0000000000000000000000005d0725add79fed3f0e61851b3c4704148ef9c7ea",
        "nonce": "0xc6",
        "chainId": "0x61"
      },
      "additionalContracts": [],
      "isFixedGasLimit": false
    },
    {
      "hash": "0x52874473eadb910e6639a11f93f9d63241f461aae93e36d4c1ebe30a1c5bfcc9",
      "transactionType": "CALL",
      "contractName": null,
      "contractAddress": "0x9c9e9fad264089339aad66ff3e32d2ba1ddf6951",
      "function": "addTxSender(address)",
      "arguments": [
        "0x5d0725Add79feD3f0E61851b3C4704148Ef9c7eA"
      ],
      "transaction": {
        "from": "0xc3ca11bd8e131471904dced927b3fb7edb453179",
        "to": "0x9c9e9fad264089339aad66ff3e32d2ba1ddf6951",
        "gas": "0x12b07",
        "value": "0x0",
        "input": "0xeebd14af0000000000000000000000005d0725add79fed3f0e61851b3c4704148ef9c7ea",
        "nonce": "0xc7",
        "chainId": "0x61"
      },
      "additionalContracts": [],
      "isFixedGasLimit": false
    },
    {
      "hash": "0xbdd4faada567da823d73279669c746747fccc57fafe5f26fb03ec55015fb03ca",
      "transactionType": "CALL",
      "contractName": null,
      "contractAddress": "0xe912f7c7a59470a6e3f178388106e3caa9e6fbd1",
      "function": "addTxSender(address)",
      "arguments": [
        "0x5d0725Add79feD3f0E61851b3C4704148Ef9c7eA"
      ],
      "transaction": {
        "from": "0xc3ca11bd8e131471904dced927b3fb7edb453179",
        "to": "0xe912f7c7a59470a6e3f178388106e3caa9e6fbd1",
        "gas": "0x12a8d",
        "value": "0x0",
        "input": "0xeebd14af0000000000000000000000005d0725add79fed3f0e61851b3c4704148ef9c7ea",
        "nonce": "0xc8",
        "chainId": "0x61"
      },
      "additionalContracts": [],
      "isFixedGasLimit": false
    },
    {
      "hash": "0x0cdb1acaa2b1374b0827bb070df874ee4ace2e543485af9987fd36e30fdaa4ef",
      "transactionType": "CALL",
      "contractName": null,
      "contractAddress": "0x92228b058f25bc4fb333fa296dddecbddf6496f3",
      "function": "addTxSender(address)",
      "arguments": [
        "0x5d0725Add79feD3f0E61851b3C4704148Ef9c7eA"
      ],
      "transaction": {
        "from": "0xc3ca11bd8e131471904dced927b3fb7edb453179",
        "to": "0x92228b058f25bc4fb333fa296dddecbddf6496f3",
        "gas": "0x12940",
        "value": "0x0",
        "input": "0xeebd14af0000000000000000000000005d0725add79fed3f0e61851b3c4704148ef9c7ea",
        "nonce": "0xc9",
        "chainId": "0x61"
      },
      "additionalContracts": [],
      "isFixedGasLimit": false
    },
    {
      "hash": "0xe392dcbb12cc321100c2b4e6b408bd272bffca36dc1d20a63925b423d459a021",
      "transactionType": "CALL",
      "contractName": null,
      "contractAddress": "0x2af842c6517cf30fb3456aef485230e0dd085845",
      "function": "addTxSender(address)",
      "arguments": [
        "0x5d0725Add79feD3f0E61851b3C4704148Ef9c7eA"
      ],
      "transaction": {
        "from": "0xc3ca11bd8e131471904dced927b3fb7edb453179",
        "to": "0x2af842c6517cf30fb3456aef485230e0dd085845",
        "gas": "0x12a14",
        "value": "0x0",
        "input": "0xeebd14af0000000000000000000000005d0725add79fed3f0e61851b3c4704148ef9c7ea",
        "nonce": "0xca",
        "chainId": "0x61"
      },
      "additionalContracts": [],
      "isFixedGasLimit": false
    },
    {
      "hash": "0x12214bc59c6f0306fec477ac3f9fc8948f0212c6de278bf97b6c48906934a198",
      "transactionType": "CALL",
      "contractName": null,
      "contractAddress": "0x2026027054f5bebceb650abd62dc623e327658e7",
      "function": "addTxSender(address)",
      "arguments": [
        "0x5d0725Add79feD3f0E61851b3C4704148Ef9c7eA"
      ],
      "transaction": {
        "from": "0xc3ca11bd8e131471904dced927b3fb7edb453179",
        "to": "0x2026027054f5bebceb650abd62dc623e327658e7",
        "gas": "0x1294d",
        "value": "0x0",
        "input": "0xeebd14af0000000000000000000000005d0725add79fed3f0e61851b3c4704148ef9c7ea",
        "nonce": "0xcb",
        "chainId": "0x61"
      },
      "additionalContracts": [],
      "isFixedGasLimit": false
    }
  ],
  "receipts": [
    {
      "status": "0x1",
      "cumulativeGasUsed": "0xd7e4",
      "logs": [
        {
          "address": "0x58b610a359c870e0fc941139821a51f5aa23f14e",
          "topics": [
            "0xbfb8b3e2f6221ae729e9cacb0d35f5d9be686ba10cb1d4e34b646bbb87f7a269",
            "0x0000000000000000000000005d0725add79fed3f0e61851b3c4704148ef9c7ea"
          ],
          "data": "0x0000000000000000000000000000000000000000000000000000000000000001",
          "blockHash": "0xd36c315e50c83889aa460854072f7261d0caa2a55f7d9451a5c69639489ab9ff",
          "blockNumber": "0x3f85202",
          "transactionHash": "0x5f41205e74fb78b2b9edf7fd68f3f1e7d68b30649faf87a4afd355454ece092d",
          "transactionIndex": "0x0",
          "logIndex": "0x0",
          "removed": false
        }
      ],
      "logsBloom": "0x00000000000010000000000000000000000000000000000000000000000000000000000000000000000000000000000000000020000000000000000000000000000040000000000000000000000000000000000000000000000000000000000000000000000000000000000000000000000000000000000000000002000000000000000000000000000000000000000000000000000000000000000000000000000000000100000000000000000000000000000000000000000000000000000000000000000000000000000000000000000000000000000000000000000008000000000000000000000000080000000000000008000001000000000000000000",
      "type": "0x2",
      "transactionHash": "0x5f41205e74fb78b2b9edf7fd68f3f1e7d68b30649faf87a4afd355454ece092d",
      "transactionIndex": "0x0",
      "blockHash": "0xd36c315e50c83889aa460854072f7261d0caa2a55f7d9451a5c69639489ab9ff",
      "blockNumber": "0x3f85202",
      "gasUsed": "0xd7e4",
      "effectiveGasPrice": "0x3b9aca00",
      "from": "0xc3ca11bd8e131471904dced927b3fb7edb453179",
      "to": "0x58b610a359c870e0fc941139821a51f5aa23f14e",
      "contractAddress": null
    },
    {
      "status": "0x1",
      "cumulativeGasUsed": "0xd7ce",
      "logs": [
        {
          "address": "0x2f925d6512b2bbb00f5a36d8b18e01fcf35f7dc7",
          "topics": [
            "0xbfb8b3e2f6221ae729e9cacb0d35f5d9be686ba10cb1d4e34b646bbb87f7a269",
            "0x0000000000000000000000005d0725add79fed3f0e61851b3c4704148ef9c7ea"
          ],
          "data": "0x0000000000000000000000000000000000000000000000000000000000000001",
          "blockHash": "0x9abcabf656cd951752afe9b663f8f16061b4c659a5861fb3c629df13cd399e89",
          "blockNumber": "0x3f85207",
          "transactionHash": "0x4d5f4d97559be21ea3f3ec9a6df77a851e5ecdedd6fbd807a77eaeb1c06deaac",
          "transactionIndex": "0x0",
          "logIndex": "0x0",
          "removed": false
        }
      ],
      "logsBloom": "0x00000000000000000000000000000000000000000000000000000000000000000000000000000000000000000000000000000020000000000000000000000000000040000000000000000000000000000000000000000000000000000000000000000000000000000000000000000000000000000000000000000002000000000000000400000000000000000000000000000000000000000000000000000000000000000000000000000000000000000000000000000000000000000000004000000000000000000000000000004000000000000000000000000000000008000000000000000000000000000000000000000008000001000000000000000000",
      "type": "0x2",
      "transactionHash": "0x4d5f4d97559be21ea3f3ec9a6df77a851e5ecdedd6fbd807a77eaeb1c06deaac",
      "transactionIndex": "0x0",
      "blockHash": "0x9abcabf656cd951752afe9b663f8f16061b4c659a5861fb3c629df13cd399e89",
      "blockNumber": "0x3f85207",
      "gasUsed": "0xd7ce",
      "effectiveGasPrice": "0x3b9aca00",
      "from": "0xc3ca11bd8e131471904dced927b3fb7edb453179",
      "to": "0x2f925d6512b2bbb00f5a36d8b18e01fcf35f7dc7",
      "contractAddress": null
    },
    {
      "status": "0x1",
      "cumulativeGasUsed": "0xd87f",
      "logs": [
        {
          "address": "0x9c9e9fad264089339aad66ff3e32d2ba1ddf6951",
          "topics": [
            "0xbfb8b3e2f6221ae729e9cacb0d35f5d9be686ba10cb1d4e34b646bbb87f7a269",
            "0x0000000000000000000000005d0725add79fed3f0e61851b3c4704148ef9c7ea"
          ],
          "data": "0x0000000000000000000000000000000000000000000000000000000000000001",
          "blockHash": "0xce60aa5c23b2ee97043225091b6762297435fee50a316544390f0930c634fb2c",
          "blockNumber": "0x3f8520b",
          "transactionHash": "0x52874473eadb910e6639a11f93f9d63241f461aae93e36d4c1ebe30a1c5bfcc9",
          "transactionIndex": "0x0",
          "logIndex": "0x0",
          "removed": false
        }
      ],
      "logsBloom": "0x0000000000000000000000000000000000000000000000000000000000000000000000000000000000000000000000000000002000000000000000000000000000004000000000000000000000000000000000000000000000000000000000000000000000000000000000000000000000000000000000000000000200000000000000000000000000000000000000000000000000000000000000000000000000000000000000000000000000000000000000000000000000000000000000000000000000000000000000080000000000000000000000000000000000000a000000400000000000000000000000000000000008000001000000000000000000",
      "type": "0x2",
      "transactionHash": "0x52874473eadb910e6639a11f93f9d63241f461aae93e36d4c1ebe30a1c5bfcc9",
      "transactionIndex": "0x0",
      "blockHash": "0xce60aa5c23b2ee97043225091b6762297435fee50a316544390f0930c634fb2c",
      "blockNumber": "0x3f8520b",
      "gasUsed": "0xd87f",
      "effectiveGasPrice": "0x3b9aca00",
      "from": "0xc3ca11bd8e131471904dced927b3fb7edb453179",
      "to": "0x9c9e9fad264089339aad66ff3e32d2ba1ddf6951",
      "contractAddress": null
    },
    {
      "status": "0x1",
      "cumulativeGasUsed": "0x61830",
      "logs": [
        {
          "address": "0xe912f7c7a59470a6e3f178388106e3caa9e6fbd1",
          "topics": [
            "0xbfb8b3e2f6221ae729e9cacb0d35f5d9be686ba10cb1d4e34b646bbb87f7a269",
            "0x0000000000000000000000005d0725add79fed3f0e61851b3c4704148ef9c7ea"
          ],
          "data": "0x0000000000000000000000000000000000000000000000000000000000000001",
          "blockHash": "0xc2d6cf814e671c4bb0f727d67f5757add41be2450064859bbfccb1a66ab48e89",
          "blockNumber": "0x3f85210",
          "transactionHash": "0xbdd4faada567da823d73279669c746747fccc57fafe5f26fb03ec55015fb03ca",
          "transactionIndex": "0x2",
          "logIndex": "0x8",
          "removed": false
        }
      ],
      "logsBloom": "0x00000000000000000000000000000000000000000000000000000000000004000000000000000000000000000000000000000020000000000000000000000000000040020000000000010000000000000000000000000000000000000000000000000000000000000000000000000000000000000000000000000002000000000000000000000000000000000000000000000000000000000000000000000000000000000000000000000000000000000000000000000000000000000000000000000000000000000000000000000000000000000000000000000000000008000000000000000000000000000000000000000008000001000000000000000000",
      "type": "0x2",
      "transactionHash": "0xbdd4faada567da823d73279669c746747fccc57fafe5f26fb03ec55015fb03ca",
      "transactionIndex": "0x2",
      "blockHash": "0xc2d6cf814e671c4bb0f727d67f5757add41be2450064859bbfccb1a66ab48e89",
      "blockNumber": "0x3f85210",
      "gasUsed": "0xd826",
      "effectiveGasPrice": "0x3b9aca00",
      "from": "0xc3ca11bd8e131471904dced927b3fb7edb453179",
      "to": "0xe912f7c7a59470a6e3f178388106e3caa9e6fbd1",
      "contractAddress": null
    },
    {
      "status": "0x1",
      "cumulativeGasUsed": "0xd735",
      "logs": [
        {
          "address": "0x92228b058f25bc4fb333fa296dddecbddf6496f3",
          "topics": [
            "0xbfb8b3e2f6221ae729e9cacb0d35f5d9be686ba10cb1d4e34b646bbb87f7a269",
            "0x0000000000000000000000005d0725add79fed3f0e61851b3c4704148ef9c7ea"
          ],
          "data": "0x0000000000000000000000000000000000000000000000000000000000000001",
          "blockHash": "0x21e7eae2442e7ed78fa05943df0b120c78c8d41a8ba1ece30152143f64f96ae4",
          "blockNumber": "0x3f85216",
          "transactionHash": "0x0cdb1acaa2b1374b0827bb070df874ee4ace2e543485af9987fd36e30fdaa4ef",
          "transactionIndex": "0x0",
          "logIndex": "0x0",
          "removed": false
        }
      ],
      "logsBloom": "0x00000000000000000000000000000000000000000000000000000000000000000000000000000000000000000000000000000020000000000000000000000000000040000000000000000000000000000000000000000000000000000000000000000000000000000000000000000000000000000000000000000002000000000000000000000000000000000000000000000000000000008010000000000000000000000000000000000000000000000000000000000000000000000000000000000000002000000000000000000000000000000000000000000000000008000000000000000000000000000000000000000008000001000000000000000000",
      "type": "0x2",
      "transactionHash": "0x0cdb1acaa2b1374b0827bb070df874ee4ace2e543485af9987fd36e30fdaa4ef",
      "transactionIndex": "0x0",
      "blockHash": "0x21e7eae2442e7ed78fa05943df0b120c78c8d41a8ba1ece30152143f64f96ae4",
      "blockNumber": "0x3f85216",
      "gasUsed": "0xd735",
      "effectiveGasPrice": "0x3b9aca00",
      "from": "0xc3ca11bd8e131471904dced927b3fb7edb453179",
      "to": "0x92228b058f25bc4fb333fa296dddecbddf6496f3",
      "contractAddress": null
    },
    {
      "status": "0x1",
      "cumulativeGasUsed": "0xd7cf",
      "logs": [
        {
          "address": "0x2af842c6517cf30fb3456aef485230e0dd085845",
          "topics": [
            "0xbfb8b3e2f6221ae729e9cacb0d35f5d9be686ba10cb1d4e34b646bbb87f7a269",
            "0x0000000000000000000000005d0725add79fed3f0e61851b3c4704148ef9c7ea"
          ],
          "data": "0x0000000000000000000000000000000000000000000000000000000000000001",
          "blockHash": "0xc3ba6a304b74a9a4d55c8983e44d458722e06c9285043a9ea368894ba343761b",
          "blockNumber": "0x3f8521a",
          "transactionHash": "0xe392dcbb12cc321100c2b4e6b408bd272bffca36dc1d20a63925b423d459a021",
          "transactionIndex": "0x0",
          "logIndex": "0x0",
          "removed": false
        }
      ],
      "logsBloom": "0x00000000000000000000000000000000000000000000000000000000000000000000000000000000000000000000000000000020000000000000000000000000000040000000800000000000000000000000000000000000000000000000000000000000000000000000000000000000000000000000000000000002000000000000000000000000000000000000000000000000000000000000000000000000000000004000000000000000000000000000000000000000000000000000000000000000000000000000000000000000000000000000000000000200000008000000000000000000000000000000000000000008000001000000000000000000",
      "type": "0x2",
      "transactionHash": "0xe392dcbb12cc321100c2b4e6b408bd272bffca36dc1d20a63925b423d459a021",
      "transactionIndex": "0x0",
      "blockHash": "0xc3ba6a304b74a9a4d55c8983e44d458722e06c9285043a9ea368894ba343761b",
      "blockNumber": "0x3f8521a",
      "gasUsed": "0xd7cf",
      "effectiveGasPrice": "0x3b9aca00",
      "from": "0xc3ca11bd8e131471904dced927b3fb7edb453179",
      "to": "0x2af842c6517cf30fb3456aef485230e0dd085845",
      "contractAddress": null
    },
    {
      "status": "0x1",
      "cumulativeGasUsed": "0xd73f",
      "logs": [
        {
          "address": "0x2026027054f5bebceb650abd62dc623e327658e7",
          "topics": [
            "0xbfb8b3e2f6221ae729e9cacb0d35f5d9be686ba10cb1d4e34b646bbb87f7a269",
            "0x0000000000000000000000005d0725add79fed3f0e61851b3c4704148ef9c7ea"
          ],
          "data": "0x0000000000000000000000000000000000000000000000000000000000000001",
          "blockHash": "0x342e1b0deb33f68b18cbe55dc41fc303bdb02b04822c5fe1cd78121c4e0f296f",
          "blockNumber": "0x3f85221",
          "transactionHash": "0x12214bc59c6f0306fec477ac3f9fc8948f0212c6de278bf97b6c48906934a198",
          "transactionIndex": "0x0",
          "logIndex": "0x0",
          "removed": false
        }
      ],
      "logsBloom": "0x00000000000000000000000000000000000000000000000000000000000000000000000000800000000000000000000000000020000000000000000000000200000040000000000000000000000000000000000000000000000000000000000000000000000000000000000000000000000000000000000000000002000000000020000000000000000000000000000000000000000000000000000000000000000000000000000000000000000000000000000000000000000000000000000000000000000000000000000000000000000000000000000000000000000008000000000000000000000000000000000000000008000001000000000000000000",
      "type": "0x2",
      "transactionHash": "0x12214bc59c6f0306fec477ac3f9fc8948f0212c6de278bf97b6c48906934a198",
      "transactionIndex": "0x0",
      "blockHash": "0x342e1b0deb33f68b18cbe55dc41fc303bdb02b04822c5fe1cd78121c4e0f296f",
      "blockNumber": "0x3f85221",
      "gasUsed": "0xd73f",
      "effectiveGasPrice": "0x3b9aca00",
      "from": "0xc3ca11bd8e131471904dced927b3fb7edb453179",
      "to": "0x2026027054f5bebceb650abd62dc623e327658e7",
      "contractAddress": null
    }
  ],
  "libraries": [],
  "pending": [],
  "returns": {},
  "timestamp": 1758798804303,
  "chain": 97,
  "commit": "9b3cda6"
}