{
  "transactions": [
    {
      "hash": "0x12f01d8c5e607ea8ad9887053d8525a366e0aeaa4215220216e7f00f381427c1",
      "transactionType": "CALL",
      "contractName": null,
      "contractAddress": "0x58b610a359c870e0fc941139821a51f5aa23f14e",
      "function": "addTxSender(address)",
      "arguments": [
        "0xa0CDAc76fA51aa65402137e3FA5357432Af02e02"
      ],
      "transaction": {
        "from": "0xc3ca11bd8e131471904dced927b3fb7edb453179",
        "to": "0x58b610a359c870e0fc941139821a51f5aa23f14e",
        "gas": "0xbed3",
        "value": "0x0",
        "input": "0xeebd14af000000000000000000000000a0cdac76fa51aa65402137e3fa5357432af02e02",
        "nonce": "0xcc",
        "chainId": "0x61"
      },
      "additionalContracts": [],
      "isFixedGasLimit": false
    },
    {
      "hash": "0xa376c3da2a8bd7330aaff4eebc3a256c55c502641cae2ac537afbda236541fd8",
      "transactionType": "CALL",
      "contractName": null,
      "contractAddress": "0x2f925d6512b2bbb00f5a36d8b18e01fcf35f7dc7",
      "function": "addTxSender(address)",
      "arguments": [
        "0xa0CDAc76fA51aa65402137e3FA5357432Af02e02"
      ],
      "transaction": {
        "from": "0xc3ca11bd8e131471904dced927b3fb7edb453179",
        "to": "0x2f925d6512b2bbb00f5a36d8b18e01fcf35f7dc7",
        "gas": "0xc9ed",
        "value": "0x0",
        "input": "0xeebd14af000000000000000000000000a0cdac76fa51aa65402137e3fa5357432af02e02",
        "nonce": "0xcd",
        "chainId": "0x61"
      },
      "additionalContracts": [],
      "isFixedGasLimit": false
    },
    {
      "hash": "0x386e2db115853d6c8a94a6dd2667bd774ed9e120c6c6a6068119406d25daeb6e",
      "transactionType": "CALL",
      "contractName": null,
      "contractAddress": "0x9c9e9fad264089339aad66ff3e32d2ba1ddf6951",
      "function": "addTxSender(address)",
      "arguments": [
        "0xa0CDAc76fA51aa65402137e3FA5357432Af02e02"
      ],
      "transaction": {
        "from": "0xc3ca11bd8e131471904dced927b3fb7edb453179",
        "to": "0x9c9e9fad264089339aad66ff3e32d2ba1ddf6951",
        "gas": "0xcaef",
        "value": "0x0",
        "input": "0xeebd14af000000000000000000000000a0cdac76fa51aa65402137e3fa5357432af02e02",
        "nonce": "0xce",
        "chainId": "0x61"
      },
      "additionalContracts": [],
      "isFixedGasLimit": false
    },
    {
      "hash": "0x8293d4a0aff5f6643d0bdbef242ef47da20e1aef7bde85852bb571b1819d6f73",
      "transactionType": "CALL",
      "contractName": null,
      "contractAddress": "0xe912f7c7a59470a6e3f178388106e3caa9e6fbd1",
      "function": "addTxSender(address)",
      "arguments": [
        "0xa0CDAc76fA51aa65402137e3FA5357432Af02e02"
      ],
      "transaction": {
        "from": "0xc3ca11bd8e131471904dced927b3fb7edb453179",
        "to": "0xe912f7c7a59470a6e3f178388106e3caa9e6fbd1",
        "gas": "0xca6d",
        "value": "0x0",
        "input": "0xeebd14af000000000000000000000000a0cdac76fa51aa65402137e3fa5357432af02e02",
        "nonce": "0xcf",
        "chainId": "0x61"
      },
      "additionalContracts": [],
      "isFixedGasLimit": false
    },
    {
      "hash": "0x14ab3fdc834413de23319a80b4831d22ba5c96aa048207d1c92c8055e96a16ad",
      "transactionType": "CALL",
      "contractName": null,
      "contractAddress": "0x92228b058f25bc4fb333fa296dddecbddf6496f3",
      "function": "addTxSender(address)",
      "arguments": [
        "0xa0CDAc76fA51aa65402137e3FA5357432Af02e02"
      ],
      "transaction": {
        "from": "0xc3ca11bd8e131471904dced927b3fb7edb453179",
        "to": "0x92228b058f25bc4fb333fa296dddecbddf6496f3",
        "gas": "0xc90d",
        "value": "0x0",
        "input": "0xeebd14af000000000000000000000000a0cdac76fa51aa65402137e3fa5357432af02e02",
        "nonce": "0xd0",
        "chainId": "0x61"
      },
      "additionalContracts": [],
      "isFixedGasLimit": false
    },
    {
      "hash": "0x4cfc720cea0f773ac92f6ae6fb82159e6d34d16c900476056dd39968189289f6",
      "transactionType": "CALL",
      "contractName": null,
      "contractAddress": "0x2af842c6517cf30fb3456aef485230e0dd085845",
      "function": "addTxSender(address)",
      "arguments": [
        "0xa0CDAc76fA51aa65402137e3FA5357432Af02e02"
      ],
      "transaction": {
        "from": "0xc3ca11bd8e131471904dced927b3fb7edb453179",
        "to": "0x2af842c6517cf30fb3456aef485230e0dd085845",
        "gas": "0xc9ee",
        "value": "0x0",
        "input": "0xeebd14af000000000000000000000000a0cdac76fa51aa65402137e3fa5357432af02e02",
        "nonce": "0xd1",
        "chainId": "0x61"
      },
      "additionalContracts": [],
      "isFixedGasLimit": false
    },
    {
      "hash": "0x3752a3dc601796b782ad84e2517b422efe1c45693b674d66f6a9ad4fd4c47370",
      "transactionType": "CALL",
      "contractName": null,
      "contractAddress": "0x2026027054f5bebceb650abd62dc623e327658e7",
      "function": "addTxSender(address)",
      "arguments": [
        "0xa0CDAc76fA51aa65402137e3FA5357432Af02e02"
      ],
      "transaction": {
        "from": "0xc3ca11bd8e131471904dced927b3fb7edb453179",
        "to": "0x2026027054f5bebceb650abd62dc623e327658e7",
        "gas": "0xc91b",
        "value": "0x0",
        "input": "0xeebd14af000000000000000000000000a0cdac76fa51aa65402137e3fa5357432af02e02",
        "nonce": "0xd2",
        "chainId": "0x61"
      },
      "additionalContracts": [],
      "isFixedGasLimit": false
    }
  ],
  "receipts": [
    {
      "status": "0x1",
      "cumulativeGasUsed": "0x8a28",
      "logs": [
        {
          "address": "0x58b610a359c870e0fc941139821a51f5aa23f14e",
          "topics": [
            "0xbfb8b3e2f6221ae729e9cacb0d35f5d9be686ba10cb1d4e34b646bbb87f7a269",
            "0x000000000000000000000000a0cdac76fa51aa65402137e3fa5357432af02e02"
          ],
          "data": "0x0000000000000000000000000000000000000000000000000000000000000001",
          "blockHash": "0x51b263ab1ea0ed319a81b8b3632ad7ce5f613545b15e55dc5cdb2cb276f3359e",
          "blockNumber": "0x3f855ca",
          "transactionHash": "0x12f01d8c5e607ea8ad9887053d8525a366e0aeaa4215220216e7f00f381427c1",
          "transactionIndex": "0x0",
          "logIndex": "0x0",
          "removed": false
        }
      ],
      "logsBloom": "0x00000000000010000000000000800000000000000000000000000000000000000000000000000000000000000000000000000020000000000000000000000000000040000000000000000000000000000000000000000000000000000000000000000000000000000000000000000000020000000000000000000002000000000000000000000000000000000000000000000000000000000000000000000000000000000100000000000000000000000000000000000000000000000000000000000000000000000000000000000000000000000000000000000000000000000000000000010000000000080000000000000000000000000000000000000000",
      "type": "0x2",
      "transactionHash": "0x12f01d8c5e607ea8ad9887053d8525a366e0aeaa4215220216e7f00f381427c1",
      "transactionIndex": "0x0",
      "blockHash": "0x51b263ab1ea0ed319a81b8b3632ad7ce5f613545b15e55dc5cdb2cb276f3359e",
      "blockNumber": "0x3f855ca",
      "gasUsed": "0x8a28",
      "effectiveGasPrice": "0x3b9aca00",
      "from": "0xc3ca11bd8e131471904dced927b3fb7edb453179",
      "to": "0x58b610a359c870e0fc941139821a51f5aa23f14e",
      "contractAddress": null
    },
    {
      "status": "0x1",
      "cumulativeGasUsed": "0x8a12",
      "logs": [
        {
          "address": "0x2f925d6512b2bbb00f5a36d8b18e01fcf35f7dc7",
          "topics": [
            "0xbfb8b3e2f6221ae729e9cacb0d35f5d9be686ba10cb1d4e34b646bbb87f7a269",
            "0x000000000000000000000000a0cdac76fa51aa65402137e3fa5357432af02e02"
          ],
          "data": "0x0000000000000000000000000000000000000000000000000000000000000001",
          "blockHash": "0x62ce9227e94bb771861716a3131df9cf3a418c29eb39fc69d1c3dc63b43225d6",
          "blockNumber": "0x3f855cf",
          "transactionHash": "0xa376c3da2a8bd7330aaff4eebc3a256c55c502641cae2ac537afbda236541fd8",
          "transactionIndex": "0x0",
          "logIndex": "0x0",
          "removed": false
        }
      ],
      "logsBloom": "0x00000000000000000000000000800000000000000000000000000000000000000000000000000000000000000000000000000020000000000000000000000000000040000000000000000000000000000000000000000000000000000000000000000000000000000000000000000000020000000000000000000002000000000000000400000000000000000000000000000000000000000000000000000000000000000000000000000000000000000000000000000000000000000000004000000000000000000000000000004000000000000000000000000000000000000000000000010000000000000000000000000000000000000000000000000000",
      "type": "0x2",
      "transactionHash": "0xa376c3da2a8bd7330aaff4eebc3a256c55c502641cae2ac537afbda236541fd8",
      "transactionIndex": "0x0",
      "blockHash": "0x62ce9227e94bb771861716a3131df9cf3a418c29eb39fc69d1c3dc63b43225d6",
      "blockNumber": "0x3f855cf",
      "gasUsed": "0x8a12",
      "effectiveGasPrice": "0x3b9aca00",
      "from": "0xc3ca11bd8e131471904dced927b3fb7edb453179",
      "to": "0x2f925d6512b2bbb00f5a36d8b18e01fcf35f7dc7",
      "contractAddress": null
    },
    {
      "status": "0x1",
      "cumulativeGasUsed": "0xe2cf",
      "logs": [
        {
          "address": "0x9c9e9fad264089339aad66ff3e32d2ba1ddf6951",
          "topics": [
            "0xbfb8b3e2f6221ae729e9cacb0d35f5d9be686ba10cb1d4e34b646bbb87f7a269",
            "0x000000000000000000000000a0cdac76fa51aa65402137e3fa5357432af02e02"
          ],
          "data": "0x0000000000000000000000000000000000000000000000000000000000000001",
          "blockHash": "0x8e261082e19c57bf0352b89b11d9c698f7bc911df13c05cc2392464cbfde4e5f",
          "blockNumber": "0x3f855d3",
          "transactionHash": "0x386e2db115853d6c8a94a6dd2667bd774ed9e120c6c6a6068119406d25daeb6e",
          "transactionIndex": "0x1",
          "logIndex": "0x0",
          "removed": false
        }
      ],
      "logsBloom": "0x00000000000000000000000000800000000000000000000000000000000000000000000000000000000000000000000000000020000000000000000000000000000040000000000000000000000000000000000000000000000000000000000000000000000000000000000000000000020000000000000000000002000000000000000000000000000000000000000000000000000000000000000000000000000000000000000000000000000000000000000000000000000000000000000000000000000000000000000800000000000000000000000000000000000002000000400000010000000000000000000000000000000000000000000000000000",
      "type": "0x2",
      "transactionHash": "0x386e2db115853d6c8a94a6dd2667bd774ed9e120c6c6a6068119406d25daeb6e",
      "transactionIndex": "0x1",
      "blockHash": "0x8e261082e19c57bf0352b89b11d9c698f7bc911df13c05cc2392464cbfde4e5f",
      "blockNumber": "0x3f855d3",
      "gasUsed": "0x8ac3",
      "effectiveGasPrice": "0x3b9aca00",
      "from": "0xc3ca11bd8e131471904dced927b3fb7edb453179",
      "to": "0x9c9e9fad264089339aad66ff3e32d2ba1ddf6951",
      "contractAddress": null
    },
    {
      "status": "0x1",
      "cumulativeGasUsed": "0x8a6a",
      "logs": [
        {
          "address": "0xe912f7c7a59470a6e3f178388106e3caa9e6fbd1",
          "topics": [
            "0xbfb8b3e2f6221ae729e9cacb0d35f5d9be686ba10cb1d4e34b646bbb87f7a269",
            "0x000000000000000000000000a0cdac76fa51aa65402137e3fa5357432af02e02"
          ],
          "data": "0x0000000000000000000000000000000000000000000000000000000000000001",
          "blockHash": "0x422fc3d5ae95267ee814983f577e7b9f0f08fd2a63a38ccbc8a75facbf79d925",
          "blockNumber": "0x3f855d9",
          "transactionHash": "0x8293d4a0aff5f6643d0bdbef242ef47da20e1aef7bde85852bb571b1819d6f73",
          "transactionIndex": "0x0",
          "logIndex": "0x0",
          "removed": false
        }
      ],
      "logsBloom": "0x00000000000000000000000000800000000000000000000000000000000004000000000000000000000000000000000000000020000000000000000000000000000040020000000000010000000000000000000000000000000000000000000000000000000000000000000000000000020000000000000000000002000000000000000000000000000000000000000000000000000000000000000000000000000000000000000000000000000000000000000000000000000000000000000000000000000000000000000000000000000000000000000000000000000000000000000000010000000000000000000000000000000000000000000000000000",
      "type": "0x2",
      "transactionHash": "0x8293d4a0aff5f6643d0bdbef242ef47da20e1aef7bde85852bb571b1819d6f73",
      "transactionIndex": "0x0",
      "blockHash": "0x422fc3d5ae95267ee814983f577e7b9f0f08fd2a63a38ccbc8a75facbf79d925",
      "blockNumber": "0x3f855d9",
      "gasUsed": "0x8a6a",
      "effectiveGasPrice": "0x3b9aca00",
      "from": "0xc3ca11bd8e131471904dced927b3fb7edb453179",
      "to": "0xe912f7c7a59470a6e3f178388106e3caa9e6fbd1",
      "contractAddress": null
    },
    {
      "status": "0x1",
      "cumulativeGasUsed": "0x3b129",
      "logs": [
        {
          "address": "0x92228b058f25bc4fb333fa296dddecbddf6496f3",
          "topics": [
            "0xbfb8b3e2f6221ae729e9cacb0d35f5d9be686ba10cb1d4e34b646bbb87f7a269",
            "0x000000000000000000000000a0cdac76fa51aa65402137e3fa5357432af02e02"
          ],
          "data": "0x0000000000000000000000000000000000000000000000000000000000000001",
          "blockHash": "0x5da305de1cf4e192537c6bd95033aa731485403cb3a4f2ffd77e441d81a343ae",
          "blockNumber": "0x3f855de",
          "transactionHash": "0x14ab3fdc834413de23319a80b4831d22ba5c96aa048207d1c92c8055e96a16ad",
          "transactionIndex": "0x1",
          "logIndex": "0x4",
          "removed": false
        }
      ],
      "logsBloom": "0x00000000000000000000000000800000000000000000000000000000000000000000000000000000000000000000000000000020000000000000000000000000000040000000000000000000000000000000000000000000000000000000000000000000000000000000000000000000020000000000000000000002000000000000000000000000000000000000000000000000000000008010000000000000000000000000000000000000000000000000000000000000000000000000000000000000002000000000000000000000000000000000000000000000000000000000000000010000000000000000000000000000000000000000000000000000",
      "type": "0x2",
      "transactionHash": "0x14ab3fdc834413de23319a80b4831d22ba5c96aa048207d1c92c8055e96a16ad",
      "transactionIndex": "0x1",
      "blockHash": "0x5da305de1cf4e192537c6bd95033aa731485403cb3a4f2ffd77e441d81a343ae",
      "blockNumber": "0x3f855de",
      "gasUsed": "0x8979",
      "effectiveGasPrice": "0x3b9aca00",
      "from": "0xc3ca11bd8e131471904dced927b3fb7edb453179",
      "to": "0x92228b058f25bc4fb333fa296dddecbddf6496f3",
      "contractAddress": null
    },
    {
      "status": "0x1",
      "cumulativeGasUsed": "0x8a13",
      "logs": [
        {
          "address": "0x2af842c6517cf30fb3456aef485230e0dd085845",
          "topics": [
            "0xbfb8b3e2f6221ae729e9cacb0d35f5d9be686ba10cb1d4e34b646bbb87f7a269",
            "0x000000000000000000000000a0cdac76fa51aa65402137e3fa5357432af02e02"
          ],
          "data": "0x0000000000000000000000000000000000000000000000000000000000000001",
          "blockHash": "0x29f7859803b5a7d0a68b3a59645352a1b2ff6d26eecf780fa64d7c0137d40197",
          "blockNumber": "0x3f855e3",
          "transactionHash": "0x4cfc720cea0f773ac92f6ae6fb82159e6d34d16c900476056dd39968189289f6",
          "transactionIndex": "0x0",
          "logIndex": "0x0",
          "removed": false
        }
      ],
      "logsBloom": "0x00000000000000000000000000800000000000000000000000000000000000000000000000000000000000000000000000000020000000000000000000000000000040000000800000000000000000000000000000000000000000000000000000000000000000000000000000000000020000000000000000000002000000000000000000000000000000000000000000000000000000000000000000000000000000004000000000000000000000000000000000000000000000000000000000000000000000000000000000000000000000000000000000000200000000000000000000010000000000000000000000000000000000000000000000000000",
      "type": "0x2",
      "transactionHash": "0x4cfc720cea0f773ac92f6ae6fb82159e6d34d16c900476056dd39968189289f6",
      "transactionIndex": "0x0",
      "blockHash": "0x29f7859803b5a7d0a68b3a59645352a1b2ff6d26eecf780fa64d7c0137d40197",
      "blockNumber": "0x3f855e3",
      "gasUsed": "0x8a13",
      "effectiveGasPrice": "0x3b9aca00",
      "from": "0xc3ca11bd8e131471904dced927b3fb7edb453179",
      "to": "0x2af842c6517cf30fb3456aef485230e0dd085845",
      "contractAddress": null
    },
    {
      "status": "0x1",
      "cumulativeGasUsed": "0x8983",
      "logs": [
        {
          "address": "0x2026027054f5bebceb650abd62dc623e327658e7",
          "topics": [
            "0xbfb8b3e2f6221ae729e9cacb0d35f5d9be686ba10cb1d4e34b646bbb87f7a269",
            "0x000000000000000000000000a0cdac76fa51aa65402137e3fa5357432af02e02"
          ],
          "data": "0x0000000000000000000000000000000000000000000000000000000000000001",
          "blockHash": "0x246affff200ae244c6cb24d5f1b94ba4957f9083a2a54ce563c404c258773d36",
          "blockNumber": "0x3f855e9",
          "transactionHash": "0x3752a3dc601796b782ad84e2517b422efe1c45693b674d66f6a9ad4fd4c47370",
          "transactionIndex": "0x0",
          "logIndex": "0x0",
          "removed": false
        }
      ],
      "logsBloom": "0x00000000000000000000000000800000000000000000000000000000000000000000000000800000000000000000000000000020000000000000000000000200000040000000000000000000000000000000000000000000000000000000000000000000000000000000000000000000020000000000000000000002000000000020000000000000000000000000000000000000000000000000000000000000000000000000000000000000000000000000000000000000000000000000000000000000000000000000000000000000000000000000000000000000000000000000000000010000000000000000000000000000000000000000000000000000",
      "type": "0x2",
      "transactionHash": "0x3752a3dc601796b782ad84e2517b422efe1c45693b674d66f6a9ad4fd4c47370",
      "transactionIndex": "0x0",
      "blockHash": "0x246affff200ae244c6cb24d5f1b94ba4957f9083a2a54ce563c404c258773d36",
      "blockNumber": "0x3f855e9",
      "gasUsed": "0x8983",
      "effectiveGasPrice": "0x3b9aca00",
      "from": "0xc3ca11bd8e131471904dced927b3fb7edb453179",
      "to": "0x2026027054f5bebceb650abd62dc623e327658e7",
      "contractAddress": null
    }
  ],
  "libraries": [],
  "pending": [],
  "returns": {},
  "timestamp": 1758799530932,
  "chain": 97,
  "commit": "9b3cda6"
}