{
  "transactions": [
    {
      "hash": "0xa0f0d560ff75a06a58edb999b3445f840e05b1e32bc74628d6322f717c4195a6",
      "transactionType": "CALL",
      "contractName": null,
      "contractAddress": "0x92829288c6aa874c1a0f190da35a4023c22be637",
      "function": "approve(address,uint256)",
      "arguments": [
        "0x386ed9c1a214Cc8700AF43F4a39df8c722176e01",
        "10000000000"
      ],
      "transaction": {
        "from": "0xe62ab4d111f968660c6b2188046f9b9ba53c4bae",
        "to": "0x92829288c6aa874c1a0f190da35a4023c22be637",
        "gas": "0x10927",
        "value": "0x0",
        "input": "0x095ea7b3000000000000000000000000386ed9c1a214cc8700af43f4a39df8c722176e0100000000000000000000000000000000000000000000000000000002540be400",
        "nonce": "0x3d9",
        "chainId": "0x66eee"
      },
      "additionalContracts": [],
      "isFixedGasLimit": false
    },
    {
      "hash": "0x10f5b7334de542f1c0cf8d8d3db0e0bf12da7a9b2509621242d41c4ac7937994",
      "transactionType": "CALL",
      "contractName": null,
      "contractAddress": "0x386ed9c1a214cc8700af43f4a39df8c722176e01",
      "function": "createNewSlot(uint256,uint256,string,string[],string)",
      "arguments": [
        "31255904907791744662490374133141019095649941482209478087102547804664171463538",
        "6",
        "Another new RWA",
        "[421614, 84532]",
        "0x92829288c6aa874c1a0f190da35a4023c22be637"
      ],
      "transaction": {
        "from": "0xe62ab4d111f968660c6b2188046f9b9ba53c4bae",
        "to": "0x386ed9c1a214cc8700af43f4a39df8c722176e01",
        "gas": "0xba574",
        "value": "0x0",
        "input": "0x5bb1f8f4451a371b4af672ab00aa7d7bd6ba214608a746064097ba9027b05c8e6e760372000000000000000000000000000000000000000000000000000000000000000600000000000000000000000000000000000000000000000000000000000000a000000000000000000000000000000000000000000000000000000000000000e000000000000000000000000000000000000000000000000000000000000001c0000000000000000000000000000000000000000000000000000000000000000f416e6f74686572206e65772052574100000000000000000000000000000000000000000000000000000000000000000000000000000000000000000000000002000000000000000000000000000000000000000000000000000000000000004000000000000000000000000000000000000000000000000000000000000000800000000000000000000000000000000000000000000000000000000000000006343231363134000000000000000000000000000000000000000000000000000000000000000000000000000000000000000000000000000000000000000000053834353332000000000000000000000000000000000000000000000000000000000000000000000000000000000000000000000000000000000000000000002a30783932383239323838633661613837346331613066313930646133356134303233633232626536333700000000000000000000000000000000000000000000",
        "nonce": "0x3da",
        "chainId": "0x66eee"
      },
      "additionalContracts": [],
      "isFixedGasLimit": false
    }
  ],
  "receipts": [
    {
      "status": "0x1",
      "cumulativeGasUsed": "0xb502",
      "logs": [
        {
          "address": "0x92829288c6aa874c1a0f190da35a4023c22be637",
          "topics": [
            "0x8c5be1e5ebec7d5bd14f71427d1e84f3dd0314c0f7b2291e5b200ac8c7c3b925",
            "0x000000000000000000000000e62ab4d111f968660c6b2188046f9b9ba53c4bae",
            "0x000000000000000000000000386ed9c1a214cc8700af43f4a39df8c722176e01"
          ],
          "data": "0x00000000000000000000000000000000000000000000000000000002540be400",
          "blockHash": "0x037833caf037f7bf63f166b0f41b8b53a1a4d2955d2c4907282aaa16cdb72e62",
          "blockNumber": "0x5e21ee8",
          "transactionHash": "0xa0f0d560ff75a06a58edb999b3445f840e05b1e32bc74628d6322f717c4195a6",
          "transactionIndex": "0x1",
          "logIndex": "0x0",
          "removed": false
        }
      ],
      "logsBloom": "0x20000000000000000004000000000000000000000000000000000000000000000000000000000000000000001000000000000000000000000000000000200000000000000000000000000000000000000000000000000000000000000000000000000000400000000000000000000000000000000000000000000000000000000000000000000000000000000000040000000000000000000000000000020040020000000000000000000000000000000000000000000000000000000000000000000000000000000000000000000000000000001000000000000000010000000010000000000000000000000000000000000000000000000000000000000000",
      "type": "0x2",
      "transactionHash": "0xa0f0d560ff75a06a58edb999b3445f840e05b1e32bc74628d6322f717c4195a6",
      "transactionIndex": "0x1",
      "blockHash": "0x037833caf037f7bf63f166b0f41b8b53a1a4d2955d2c4907282aaa16cdb72e62",
      "blockNumber": "0x5e21ee8",
      "gasUsed": "0xb502",
      "effectiveGasPrice": "0x5f5e100",
      "from": "0xe62ab4d111f968660c6b2188046f9b9ba53c4bae",
      "to": "0x92829288c6aa874c1a0f190da35a4023c22be637",
      "contractAddress": null,
      "gasUsedForL1": "0x4e3e",
      "l1BlockNumber": "0x6c7f00"
    },
    {
      "status": "0x1",
      "cumulativeGasUsed": "0x8c1ac",
      "logs": [
        {
          "address": "0x770c70d44c0c7b5b7d805077b66daadc00480fbc",
          "topics": [
            "0x88ca677ce66cb94eb6b03d7e06b1735c23eafde3090030bf7fb84711690a287e",
            "0x000000000000000000000000000000000000000000000000000000000000002d",
            "0x332702940ecfbc508793c792626b21172ec9b02a40e45241dcc4a14e9bc623cd"
          ],
          "data": "0x000000000000000000000000386ed9c1a214cc8700af43f4a39df8c722176e0100000000000000000000000000000000000000000000000000000000000000a000000000000000000000000000000000000000000000000000000000000000e0000000000000000000000000000000000000000000000000000000000000014000000000000000000000000000000000000000000000000000000000000002a000000000000000000000000000000000000000000000000000000000000000053834353332000000000000000000000000000000000000000000000000000000000000000000000000000000000000000000000000000000000000000000002a307836366237313963343839313933353934633631373830316536373131393935396364313562363361000000000000000000000000000000000000000000000000000000000000000000000000000000000000000000000000000000000124528565d6451a371b4af672ab00aa7d7bd6ba214608a746064097ba9027b05c8e6e7603720000000000000000000000000000000000000000000000000000000000000080000000000000000000000000000000000000000000000000000000000000000600000000000000000000000000000000000000000000000000000000000000e0000000000000000000000000000000000000000000000000000000000000002a30786536326162346431313166393638363630633662323138383034366639623962613533633462616500000000000000000000000000000000000000000000000000000000000000000000000000000000000000000000000000000000000f416e6f74686572206e6577205257410000000000000000000000000000000000000000000000000000000000000000000000000000000000000000000000000000000000000000000000000000000000000000000000000000000000",
          "blockHash": "0x67264b548f80fb342638e93da2b0dc4324ebe144ea82b57c75b0024b4b720cb1",
          "blockNumber": "0x5e21f06",
          "transactionHash": "0x10f5b7334de542f1c0cf8d8d3db0e0bf12da7a9b2509621242d41c4ac7937994",
          "transactionIndex": "0x1",
          "logIndex": "0x0",
          "removed": false
        },
        {
          "address": "0xdf961a04618b8439f2a104137154fb0efbea0724",
          "topics": [
            "0xe4f48c240d3b994948aa54f3e2f5fca59263dfe1d52b6e4cf39a5d249b5ccb65",
            "0x0000000000000000000000000000000000000000000000000000000000000000",
            "0x0000000000000000000000000000000000000000000000000000000000000000",
            "0x0000000000000000000000000000000000000000000000000000000000000006"
          ],
          "data": "0x",
          "blockHash": "0x67264b548f80fb342638e93da2b0dc4324ebe144ea82b57c75b0024b4b720cb1",
          "blockNumber": "0x5e21f06",
          "transactionHash": "0x10f5b7334de542f1c0cf8d8d3db0e0bf12da7a9b2509621242d41c4ac7937994",
          "transactionIndex": "0x1",
          "logIndex": "0x1",
          "removed": false
        },
        {
          "address": "0x386ed9c1a214cc8700af43f4a39df8c722176e01",
          "topics": [
            "0x9d223dd987b9b80ed14cb80350a9052082a4b69610e6c53c073062dd02ee70ea"
          ],
          "data": "0x451a371b4af672ab00aa7d7bd6ba214608a746064097ba9027b05c8e6e7603720000000000000000000000000000000000000000000000000000000000000006000000000000000000000000000000000000000000000000000000000000006000000000000000000000000000000000000000000000000000000000000000063432313631340000000000000000000000000000000000000000000000000000",
          "blockHash": "0x67264b548f80fb342638e93da2b0dc4324ebe144ea82b57c75b0024b4b720cb1",
          "blockNumber": "0x5e21f06",
          "transactionHash": "0x10f5b7334de542f1c0cf8d8d3db0e0bf12da7a9b2509621242d41c4ac7937994",
          "transactionIndex": "0x1",
          "logIndex": "0x2",
          "removed": false
        }
      ],
      "logsBloom": "0x10000000000000000000000000000000000001000000000000000000400001000000000000000000000000000000000000000000000400000000008400000000000000000000000000000440000000000000000000000010000000000000000000000000020000000000008000000800000000000000000000000000000000000000000400000000400000000000040200000200000000000000000000400000000000000000000000040000000002000000002000000000000010080040000000000000000000000002000000000000000000000000000000000000400020000000000000000000020000000000000000000000000000000000000000000000",
      "type": "0x2",
      "transactionHash": "0x10f5b7334de542f1c0cf8d8d3db0e0bf12da7a9b2509621242d41c4ac7937994",
      "transactionIndex": "0x1",
      "blockHash": "0x67264b548f80fb342638e93da2b0dc4324ebe144ea82b57c75b0024b4b720cb1",
      "blockNumber": "0x5e21f06",
      "gasUsed": "0x8c1ac",
      "effectiveGasPrice": "0x5f5e100",
      "from": "0xe62ab4d111f968660c6b2188046f9b9ba53c4bae",
      "to": "0x386ed9c1a214cc8700af43f4a39df8c722176e01",
      "contractAddress": null,
      "gasUsedForL1": "0xa0bd",
      "l1BlockNumber": "0x6c7f01"
    }
  ],
  "libraries": [],
  "pending": [],
  "returns": {},
  "timestamp": 1732036582,
  "chain": 421614,
  "commit": "b96f5048"
}