{
  "transactions": [
    {
      "hash": "0x552a99daaaec4ee84484f618c80abd46d8685728aa65667977211bf41323dd21",
      "transactionType": "CALL",
      "contractName": "CTMRWA001X",
      "contractAddress": "0x22D305a430b57a12D569f1e578B9F2f7613f92F8",
      "function": "_addURI(uint256,uint8,uint8,uint256,bytes32,string[])",
      "arguments": [
        "77584703649289707259697594429131521757455372367565608163693872618853593546484",
        "0",
        "1",
        "4",
        "0x5b6149dd410e6b0d4ad137fcca5eeefb90692c20121059762d938813f59e83a3",
        "[421614, 97]"
      ],
      "transaction": {
        "from": "0xe62Ab4D111f968660C6B2188046F9B9bA53C4Bae",
        "to": "0x22D305a430b57a12D569f1e578B9F2f7613f92F8",
        "gas": "0xa1a01",
        "value": "0x0",
        "input": "0xde7bb425ab8762d7c087244331b3f5d1e4f5a7390bc6dcc78e476024d775dd9e62547ef40000000000000000000000000000000000000000000000000000000000000000000000000000000000000000000000000000000000000000000000000000000100000000000000000000000000000000000000000000000000000000000000045b6149dd410e6b0d4ad137fcca5eeefb90692c20121059762d938813f59e83a300000000000000000000000000000000000000000000000000000000000000c00000000000000000000000000000000000000000000000000000000000000002000000000000000000000000000000000000000000000000000000000000004000000000000000000000000000000000000000000000000000000000000000800000000000000000000000000000000000000000000000000000000000000006343231363134000000000000000000000000000000000000000000000000000000000000000000000000000000000000000000000000000000000000000000023937000000000000000000000000000000000000000000000000000000000000",
        "nonce": "0x17c",
        "chainId": "0x66eee"
      },
      "additionalContracts": [],
      "isFixedGasLimit": false
    }
  ],
  "receipts": [
    {
      "status": "0x1",
      "cumulativeGasUsed": "0x75904",
      "logs": [
        {
          "address": "0x770c70D44C0c7b5B7D805077B66daADC00480FbC",
          "topics": [
            "0x88ca677ce66cb94eb6b03d7e06b1735c23eafde3090030bf7fb84711690a287e",
            "0x000000000000000000000000000000000000000000000000000000000000002d",
            "0xfa38a9d0f88eb3b1447b7cdec353b92d79ed9339d70534b173bef214de33a275"
          ],
          "data": "0x00000000000000000000000022d305a430b57a12d569f1e578b9f2f7613f92f800000000000000000000000000000000000000000000000000000000000000a000000000000000000000000000000000000000000000000000000000000000e00000000000000000000000000000000000000000000000000000000000000140000000000000000000000000000000000000000000000000000000000000022000000000000000000000000000000000000000000000000000000000000000023937000000000000000000000000000000000000000000000000000000000000000000000000000000000000000000000000000000000000000000000000002a3078663363633039343562373636663239366137666637623562353238323033373661323332326633390000000000000000000000000000000000000000000000000000000000000000000000000000000000000000000000000000000000a471f70d62ab8762d7c087244331b3f5d1e4f5a7390bc6dcc78e476024d775dd9e62547ef40000000000000000000000000000000000000000000000000000000000000000000000000000000000000000000000000000000000000000000000000000000100000000000000000000000000000000000000000000000000000000000000045b6149dd410e6b0d4ad137fcca5eeefb90692c20121059762d938813f59e83a3000000000000000000000000000000000000000000000000000000000000000000000000000000000000000000000000000000000000000000000000",
          "blockHash": "0x32d1ca06ef532708189afa41225f2aabd650d292f1e286ae2e17bd94d8856b08",
          "blockNumber": "0x54bc3d7",
          "transactionHash": "0x552a99daaaec4ee84484f618c80abd46d8685728aa65667977211bf41323dd21",
          "transactionIndex": "0x1",
          "logIndex": "0x0",
          "removed": false
        }
      ],
      "logsBloom": "0x00000000000000000000000000000000000001000000000000000000400000000000000000000000000000000000000000000000000000000000008400000000000000000000000000000040000000000400000000000000000000000000000000000000000000000000008000000000000000000000000000000000000000000000000000000000000000000000000000000000000000000000000000000000000000000000000000000000000000000000002000000000000010000000000000000000000000000000000000000000000000000000000000000000400000000000000000000000000000000000000000010004000000000000000000000000",
      "type": "0x2",
      "transactionHash": "0x552a99daaaec4ee84484f618c80abd46d8685728aa65667977211bf41323dd21",
      "transactionIndex": "0x1",
      "blockHash": "0x32d1ca06ef532708189afa41225f2aabd650d292f1e286ae2e17bd94d8856b08",
      "blockNumber": "0x54bc3d7",
      "gasUsed": "0x75904",
      "effectiveGasPrice": "0x5f5e100",
      "from": "0xe62Ab4D111f968660C6B2188046F9B9bA53C4Bae",
      "to": "0x22D305a430b57a12D569f1e578B9F2f7613f92F8",
      "contractAddress": null,
      "gasUsedForL1": "0x1896d",
      "l1BlockNumber": "0x68fa16"
    }
  ],
  "libraries": [],
  "pending": [],
  "returns": {},
  "timestamp": 1728988244,
  "chain": 421614,
  "commit": "5b540a48"
}