{
  "transactions": [
    {
      "hash": "0x16d8f85a08e501900bb7d015afcd044d20460f4c2dab40d95c8c81cb088efd3b",
      "transactionType": "CALL",
      "contractName": null,
      "contractAddress": "0x9dc772b55e95a630031ebe431706d105af01cf03",
      "function": "mintNewTokenValueLocal(address,uint256,uint256,uint256,uint256)",
      "arguments": [
        "0xe62Ab4D111f968660C6B2188046F9B9bA53C4Bae",
        "0",
        "0",
        "1450",
        "22635303189685810603774341943740380258832277309368089736675155746122815957883"
      ],
      "transaction": {
        "from": "0xe62ab4d111f968660c6b2188046f9b9ba53c4bae",
        "to": "0x9dc772b55e95a630031ebe431706d105af01cf03",
        "gas": "0x84ca9",
        "value": "0x0",
        "input": "0xd299e54a000000000000000000000000e62ab4d111f968660c6b2188046f9b9ba53c4bae0000000000000000000000000000000000000000000000000000000000000000000000000000000000000000000000000000000000000000000000000000000000000000000000000000000000000000000000000000000000000000000005aa320b20aa2379772f4e6f8b56eb8ee31d62564d19349bdf64e3d8fb942742eb7b",
        "nonce": "0x2fb",
        "chainId": "0x66eee"
      },
      "additionalContracts": [],
      "isFixedGasLimit": false
    },
    {
      "hash": "0x27419ba6f439f9d99de2a1f481a3471bce685086a7b8d52768ffa77c8aaf9444",
      "transactionType": "CALL",
      "contractName": null,
      "contractAddress": "0x9dc772b55e95a630031ebe431706d105af01cf03",
      "function": "deployAllCTMRWA001X(bool,uint256,uint256,uint256,string,string,uint8,string,string[],string)",
      "arguments": [
        "false",
        "22635303189685810603774341943740380258832277309368089736675155746122815957883",
        "1",
        "1",
        "Selqui SQ1",
        "SQ1",
        "18",
        "GFLD",
        "[97]",
        "0x92829288c6aa874c1a0f190da35a4023c22be637"
      ],
      "transaction": {
        "from": "0xe62ab4d111f968660c6b2188046f9b9ba53c4bae",
        "to": "0x9dc772b55e95a630031ebe431706d105af01cf03",
        "gas": "0x84f85",
        "value": "0x0",
        "input": "0xa3d8f8500000000000000000000000000000000000000000000000000000000000000000320b20aa2379772f4e6f8b56eb8ee31d62564d19349bdf64e3d8fb942742eb7b0000000000000000000000000000000000000000000000000000000000000001000000000000000000000000000000000000000000000000000000000000000100000000000000000000000000000000000000000000000000000000000001400000000000000000000000000000000000000000000000000000000000000180000000000000000000000000000000000000000000000000000000000000001200000000000000000000000000000000000000000000000000000000000001c000000000000000000000000000000000000000000000000000000000000002000000000000000000000000000000000000000000000000000000000000000280000000000000000000000000000000000000000000000000000000000000000a53656c717569205351310000000000000000000000000000000000000000000000000000000000000000000000000000000000000000000000000000000000035351310000000000000000000000000000000000000000000000000000000000000000000000000000000000000000000000000000000000000000000000000447464c44000000000000000000000000000000000000000000000000000000000000000000000000000000000000000000000000000000000000000000000001000000000000000000000000000000000000000000000000000000000000002000000000000000000000000000000000000000000000000000000000000000023937000000000000000000000000000000000000000000000000000000000000000000000000000000000000000000000000000000000000000000000000002a30783932383239323838633661613837346331613066313930646133356134303233633232626536333700000000000000000000000000000000000000000000",
        "nonce": "0x2fc",
        "chainId": "0x66eee"
      },
      "additionalContracts": [],
      "isFixedGasLimit": false
    }
  ],
  "receipts": [
    {
      "status": "0x1",
      "cumulativeGasUsed": "0x7ed02",
      "logs": [
        {
          "address": "0x789c7d29992f09116facb7dbf565fde531610aff",
          "topics": [
            "0xe4f48c240d3b994948aa54f3e2f5fca59263dfe1d52b6e4cf39a5d249b5ccb65",
            "0x0000000000000000000000000000000000000000000000000000000000000000",
            "0x0000000000000000000000000000000000000000000000000000000000000000",
            "0x0000000000000000000000000000000000000000000000000000000000000000"
          ],
          "data": "0x",
          "blockHash": "0x4077c85125183482c4a7cceafdb6c802ef992c3d87534ed7328ecfa70818960e",
          "blockNumber": "0x5a13779",
          "transactionHash": "0x16d8f85a08e501900bb7d015afcd044d20460f4c2dab40d95c8c81cb088efd3b",
          "transactionIndex": "0x2",
          "logIndex": "0x0",
          "removed": false
        },
        {
          "address": "0x789c7d29992f09116facb7dbf565fde531610aff",
          "topics": [
            "0xddf252ad1be2c89b69c2b068fc378daa952ba7f163c4a11628f55a4df523b3ef",
            "0x0000000000000000000000000000000000000000000000000000000000000000",
            "0x000000000000000000000000e62ab4d111f968660c6b2188046f9b9ba53c4bae",
            "0x0000000000000000000000000000000000000000000000000000000000000001"
          ],
          "data": "0x",
          "blockHash": "0x4077c85125183482c4a7cceafdb6c802ef992c3d87534ed7328ecfa70818960e",
          "blockNumber": "0x5a13779",
          "transactionHash": "0x16d8f85a08e501900bb7d015afcd044d20460f4c2dab40d95c8c81cb088efd3b",
          "transactionIndex": "0x2",
          "logIndex": "0x1",
          "removed": false
        },
        {
          "address": "0x789c7d29992f09116facb7dbf565fde531610aff",
          "topics": [
            "0xe4f48c240d3b994948aa54f3e2f5fca59263dfe1d52b6e4cf39a5d249b5ccb65",
            "0x0000000000000000000000000000000000000000000000000000000000000001",
            "0x0000000000000000000000000000000000000000000000000000000000000000",
            "0x0000000000000000000000000000000000000000000000000000000000000000"
          ],
          "data": "0x",
          "blockHash": "0x4077c85125183482c4a7cceafdb6c802ef992c3d87534ed7328ecfa70818960e",
          "blockNumber": "0x5a13779",
          "transactionHash": "0x16d8f85a08e501900bb7d015afcd044d20460f4c2dab40d95c8c81cb088efd3b",
          "transactionIndex": "0x2",
          "logIndex": "0x2",
          "removed": false
        },
        {
          "address": "0x789c7d29992f09116facb7dbf565fde531610aff",
          "topics": [
            "0x0b2aac84f3ec956911fd78eae5311062972ff949f38412e8da39069d9f068cc6",
            "0x0000000000000000000000000000000000000000000000000000000000000000",
            "0x0000000000000000000000000000000000000000000000000000000000000001"
          ],
          "data": "0x00000000000000000000000000000000000000000000000000000000000005aa",
          "blockHash": "0x4077c85125183482c4a7cceafdb6c802ef992c3d87534ed7328ecfa70818960e",
          "blockNumber": "0x5a13779",
          "transactionHash": "0x16d8f85a08e501900bb7d015afcd044d20460f4c2dab40d95c8c81cb088efd3b",
          "transactionIndex": "0x2",
          "logIndex": "0x3",
          "removed": false
        }
      ],
      "logsBloom": "0x20000000000000000004000000000000000000000000001000000000000000000000000000000000000000000000000000008000000000000000000000040400000000000000000000000008000000000000000000040000000000000000000000000000020000000000000000000800000000000000000000000010000000400000000000000000400000000000040000000000000000000000000000000000000000000000000000000000000002000000000000000000000000000000000000000002000000000002000000000000000000000000000000000000000060000000000000000000000000000000000200000000000001000000000000000000",
      "type": "0x2",
      "transactionHash": "0x16d8f85a08e501900bb7d015afcd044d20460f4c2dab40d95c8c81cb088efd3b",
      "transactionIndex": "0x2",
      "blockHash": "0x4077c85125183482c4a7cceafdb6c802ef992c3d87534ed7328ecfa70818960e",
      "blockNumber": "0x5a13779",
      "gasUsed": "0x64f8b",
      "effectiveGasPrice": "0x5f5e100",
      "from": "0xe62ab4d111f968660c6b2188046f9b9ba53c4bae",
      "to": "0x9dc772b55e95a630031ebe431706d105af01cf03",
      "contractAddress": null,
      "gasUsedForL1": "0x683",
      "l1BlockNumber": "0x6b03a4"
    },
    {
      "status": "0x1",
      "cumulativeGasUsed": "0x65128",
      "logs": [
        {
          "address": "0x770c70d44c0c7b5b7d805077b66daadc00480fbc",
          "topics": [
            "0x88ca677ce66cb94eb6b03d7e06b1735c23eafde3090030bf7fb84711690a287e",
            "0x000000000000000000000000000000000000000000000000000000000000002d",
            "0x0af4db05db5de1fe5bf857058d248429a9b590d7ba9b0d9303245791707e87f4"
          ],
          "data": "0x0000000000000000000000009dc772b55e95a630031ebe431706d105af01cf0300000000000000000000000000000000000000000000000000000000000000a000000000000000000000000000000000000000000000000000000000000000e00000000000000000000000000000000000000000000000000000000000000140000000000000000000000000000000000000000000000000000000000000042000000000000000000000000000000000000000000000000000000000000000023937000000000000000000000000000000000000000000000000000000000000000000000000000000000000000000000000000000000000000000000000002a3078363662373139633438393139333539346336313738303165363731313939353963643135623633610000000000000000000000000000000000000000000000000000000000000000000000000000000000000000000000000000000002a43d9ab49f0000000000000000000000000000000000000000000000000000000000000120320b20aa2379772f4e6f8b56eb8ee31d62564d19349bdf64e3d8fb942742eb7b00000000000000000000000000000000000000000000000000000000000000010000000000000000000000000000000000000000000000000000000000000001000000000000000000000000000000000000000000000000000000000000018000000000000000000000000000000000000000000000000000000000000001c0000000000000000000000000000000000000000000000000000000000000001200000000000000000000000000000000000000000000000000000000000002000000000000000000000000000000000000000000000000000000000000000240000000000000000000000000000000000000000000000000000000000000002a30786536326162346431313166393638363630633662323138383034366639623962613533633462616500000000000000000000000000000000000000000000000000000000000000000000000000000000000000000000000000000000000a53656c717569205351310000000000000000000000000000000000000000000000000000000000000000000000000000000000000000000000000000000000035351310000000000000000000000000000000000000000000000000000000000000000000000000000000000000000000000000000000000000000000000000447464c4400000000000000000000000000000000000000000000000000000000000000000000000000000000000000000000000000000000000000000000002a30783738396337643239393932663039313136666163623764626635363566646535333136313061666600000000000000000000000000000000000000000000000000000000000000000000000000000000000000000000000000000000000000000000000000000000000000000000000000000000000000000000",
          "blockHash": "0x265e7b62a7d7396a377360bdd5534fab8b96b2a63e26128ac9880095829034a6",
          "blockNumber": "0x5a1377d",
          "transactionHash": "0x27419ba6f439f9d99de2a1f481a3471bce685086a7b8d52768ffa77c8aaf9444",
          "transactionIndex": "0x1",
          "logIndex": "0x0",
          "removed": false
        }
      ],
      "logsBloom": "0x00000000000000000000000000000000000001000000000000000000400000000000000000000000000010000000000000000000020000000000008400000000000000000000000000000040000000000000000000000000000000000000000000000000000000000000008000000000000000000000000000000000000000000000000000000000000000000000000000000000000000000000000000000000000000000000000000000000000000000000002000000000000010000000000000000000000000000000000000000000000004000000000000000000400000000000000000000000000000000000000000000000000000000000000000000000",
      "type": "0x2",
      "transactionHash": "0x27419ba6f439f9d99de2a1f481a3471bce685086a7b8d52768ffa77c8aaf9444",
      "transactionIndex": "0x1",
      "blockHash": "0x265e7b62a7d7396a377360bdd5534fab8b96b2a63e26128ac9880095829034a6",
      "blockNumber": "0x5a1377d",
      "gasUsed": "0x65128",
      "effectiveGasPrice": "0x5f5e100",
      "from": "0xe62ab4d111f968660c6b2188046f9b9ba53c4bae",
      "to": "0x9dc772b55e95a630031ebe431706d105af01cf03",
      "contractAddress": null,
      "gasUsedForL1": "0x89f",
      "l1BlockNumber": "0x6b03a4"
    }
  ],
  "libraries": [],
  "pending": [],
  "returns": {},
  "timestamp": 1730763935,
  "chain": 421614,
  "commit": "34a11392"
}