{
  "transactions": [
    {
      "hash": "0x5f2c726bee601942a2bc1e1a8296fa965bd9041616a981b5abe6b3e76e9dc127",
      "transactionType": "CALL",
      "contractName": null,
      "contractAddress": "0x5330db730fAb0Bf0bB9db2FCefe7b1876c09a242",
      "function": "mintNewTokenValueX(string,string,uint256,uint256,uint256,string)",
      "arguments": [
        "0xe62ab4d111f968660c6b2188046f9b9ba53c4bae",
        "200810",
        "4",
        "1234",
        "99684070135934630131606551487381759499506454134815756064540932287878103004710",
        "0x1ee4ba474da815f728df08f0147defac07f0bab3"
      ],
      "transaction": {
        "from": "0xe62Ab4D111f968660C6B2188046F9B9bA53C4Bae",
        "to": "0x5330db730fAb0Bf0bB9db2FCefe7b1876c09a242",
        "gas": "0x7493b",
        "value": "0x0",
        "input": "0x631d035500000000000000000000000000000000000000000000000000000000000000c00000000000000000000000000000000000000000000000000000000000000120000000000000000000000000000000000000000000000000000000000000000400000000000000000000000000000000000000000000000000000000000004d2dc632f2cbcd6a6080b87de81d8998e0444d14247d31b6c8a9500846f05ab76260000000000000000000000000000000000000000000000000000000000000160000000000000000000000000000000000000000000000000000000000000002a3078653632616234643131316639363836363063366232313838303436663962396261353363346261650000000000000000000000000000000000000000000000000000000000000000000000000000000000000000000000000000000000063230303831300000000000000000000000000000000000000000000000000000000000000000000000000000000000000000000000000000000000000000002a30783165653462613437346461383135663732386466303866303134376465666163303766306261623300000000000000000000000000000000000000000000",
        "nonce": "0x1c0",
        "chainId": "0x66eee"
      },
      "additionalContracts": [],
      "isFixedGasLimit": false
    }
  ],
  "receipts": [
    {
      "status": "0x1",
      "cumulativeGasUsed": "0x5792e",
      "logs": [
        {
          "address": "0x770c70D44C0c7b5B7D805077B66daADC00480FbC",
          "topics": [
            "0x88ca677ce66cb94eb6b03d7e06b1735c23eafde3090030bf7fb84711690a287e",
            "0x000000000000000000000000000000000000000000000000000000000000002d",
            "0x1d06de9913812167475303373619d7a047b9407f2cf9d1bf0449e7e46c7d3d88"
          ],
          "data": "0x0000000000000000000000005330db730fab0bf0bb9db2fcefe7b1876c09a24200000000000000000000000000000000000000000000000000000000000000a000000000000000000000000000000000000000000000000000000000000000e00000000000000000000000000000000000000000000000000000000000000140000000000000000000000000000000000000000000000000000000000000038000000000000000000000000000000000000000000000000000000000000000063230303831300000000000000000000000000000000000000000000000000000000000000000000000000000000000000000000000000000000000000000002a307864656635643331653462326530626633386166336538303932613561626635316462343834656563000000000000000000000000000000000000000000000000000000000000000000000000000000000000000000000000000000000204304194d1dc632f2cbcd6a6080b87de81d8998e0444d14247d31b6c8a9500846f05ab762600000000000000000000000000000000000000000000000000000000000000e000000000000000000000000000000000000000000000000000000000000001400000000000000000000000000000000000000000000000000000000000000000000000000000000000000000000000000000000000000000000000000000000400000000000000000000000000000000000000000000000000000000000004d200000000000000000000000000000000000000000000000000000000000001a0000000000000000000000000000000000000000000000000000000000000002a30786536326162346431313166393638363630633662323138383034366639623962613533633462616500000000000000000000000000000000000000000000000000000000000000000000000000000000000000000000000000000000002a30786536326162346431313166393638363630633662323138383034366639623962613533633462616500000000000000000000000000000000000000000000000000000000000000000000000000000000000000000000000000000000002a30783139646234353132663937393865626665306265623464663637353430343033653564616630626100000000000000000000000000000000000000000000000000000000000000000000000000000000000000000000000000000000000000000000000000000000000000000000000000000000000000000000",
          "blockHash": "0x6e554252c40845d13b9d6a8cbf564963226eb4cec25eef7258a163e1ce0a6ef7",
          "blockNumber": "0x554df7e",
          "transactionHash": "0x5f2c726bee601942a2bc1e1a8296fa965bd9041616a981b5abe6b3e76e9dc127",
          "transactionIndex": "0x1",
          "logIndex": "0x0",
          "removed": false
        }
      ],
      "logsBloom": "0x00000000000000000000000000000000000001000000000000000000400000000000000000000000000000000000000000000000000000000000008400000000000000000000000000000040000000000000000000000000000000000000000000000000000000000000008000000000000000000000000000000001000000000000000000000000000000000000000000000000000000000000000000000000000000000000000000000000000000000000002000000000000010000000000000000000010000000000000000000000000000000000000000000000400000000000000000000000000000000000000000000000000000000000080000000000",
      "type": "0x2",
      "transactionHash": "0x5f2c726bee601942a2bc1e1a8296fa965bd9041616a981b5abe6b3e76e9dc127",
      "transactionIndex": "0x1",
      "blockHash": "0x6e554252c40845d13b9d6a8cbf564963226eb4cec25eef7258a163e1ce0a6ef7",
      "blockNumber": "0x554df7e",
      "gasUsed": "0x5792e",
      "effectiveGasPrice": "0x5f5e100",
      "from": "0xe62Ab4D111f968660C6B2188046F9B9bA53C4Bae",
      "to": "0x5330db730fAb0Bf0bB9db2FCefe7b1876c09a242",
      "contractAddress": null,
      "gasUsedForL1": "0x5a49",
      "l1BlockNumber": "0x692e65"
    }
  ],
  "libraries": [],
  "pending": [],
  "returns": {},
  "timestamp": 1729181288,
  "chain": 421614,
  "commit": "089dfaad"
}