{
  "transactions": [
    {
      "hash": "0x79bd19d5f3717e4390e69397c4e5330334e8e87c0679ba8882087f9cc754b87d",
      "transactionType": "CALL",
      "contractName": null,
      "contractAddress": "0x92829288c6aa874c1a0f190da35a4023c22be637",
      "function": "approve(address,uint256)",
      "arguments": [
        "0xb3aefEa9F49De70C41Ce22Afa321E64393932d21",
        "10000000000"
      ],
      "transaction": {
        "from": "0xe62ab4d111f968660c6b2188046f9b9ba53c4bae",
        "to": "0x92829288c6aa874c1a0f190da35a4023c22be637",
        "gas": "0xbe4a",
        "value": "0x0",
        "input": "0x095ea7b3000000000000000000000000b3aefea9f49de70c41ce22afa321e64393932d2100000000000000000000000000000000000000000000000000000002540be400",
        "nonce": "0x463",
        "chainId": "0x66eee"
      },
      "additionalContracts": [],
      "isFixedGasLimit": false
    },
    {
      "hash": "0x396f3927f39bd9b72bb9a51d8b7b7d0096eb087257bf9e7368545129797d31ab",
      "transactionType": "CALL",
      "contractName": "CTMRWA001X",
      "contractAddress": "0xb3aefea9f49de70c41ce22afa321e64393932d21",
      "function": "createNewSlot(uint256,uint256,string,string[],string)",
      "arguments": [
        "111408646266712812166735691586478362390842293088154993734704734833727374496664",
        "6",
        "Another new RWA",
        "[421614, 84532]",
        "0x92829288c6aa874c1a0f190da35a4023c22be637"
      ],
      "transaction": {
        "from": "0xe62ab4d111f968660c6b2188046f9b9ba53c4bae",
        "to": "0xb3aefea9f49de70c41ce22afa321e64393932d21",
        "gas": "0xde7c4",
        "value": "0x0",
        "input": "0x5bb1f8f4f64f0f27b8f603da297a25f0bfb2ce387c5b73a93bb3aa3b301e71bb6be21398000000000000000000000000000000000000000000000000000000000000000600000000000000000000000000000000000000000000000000000000000000a000000000000000000000000000000000000000000000000000000000000000e000000000000000000000000000000000000000000000000000000000000001c0000000000000000000000000000000000000000000000000000000000000000f416e6f74686572206e65772052574100000000000000000000000000000000000000000000000000000000000000000000000000000000000000000000000002000000000000000000000000000000000000000000000000000000000000004000000000000000000000000000000000000000000000000000000000000000800000000000000000000000000000000000000000000000000000000000000006343231363134000000000000000000000000000000000000000000000000000000000000000000000000000000000000000000000000000000000000000000053834353332000000000000000000000000000000000000000000000000000000000000000000000000000000000000000000000000000000000000000000002a30783932383239323838633661613837346331613066313930646133356134303233633232626536333700000000000000000000000000000000000000000000",
        "nonce": "0x464",
        "chainId": "0x66eee"
      },
      "additionalContracts": [],
      "isFixedGasLimit": false
    }
  ],
  "receipts": [
    {
      "status": "0x1",
      "cumulativeGasUsed": "0x8a1e",
      "logs": [
        {
          "address": "0x92829288c6aa874c1a0f190da35a4023c22be637",
          "topics": [
            "0x8c5be1e5ebec7d5bd14f71427d1e84f3dd0314c0f7b2291e5b200ac8c7c3b925",
            "0x000000000000000000000000e62ab4d111f968660c6b2188046f9b9ba53c4bae",
            "0x000000000000000000000000b3aefea9f49de70c41ce22afa321e64393932d21"
          ],
          "data": "0x00000000000000000000000000000000000000000000000000000002540be400",
          "blockHash": "0xe762c8f3cdd817189365b432ea44a3290dd6e0c51b5ebf505c211e0bf6b1c9e0",
          "blockNumber": "0x5f806f1",
          "transactionHash": "0x79bd19d5f3717e4390e69397c4e5330334e8e87c0679ba8882087f9cc754b87d",
          "transactionIndex": "0x1",
          "logIndex": "0x0",
          "removed": false
        }
      ],
      "logsBloom": "0x20000000000000000004000000000000000000000000000000000000000000000000000000000000000000001000000000000000000000000000000000200000000000000000200000000000000000000000000000000000000000000000000000000000000000000000000000000000000000000000000000000000000000000000000000000000000000000000040000000000004000000000000000000040020000000000000000000000000000000000000000000002000000000000000000000000000000000000000000000000000000001000000000000000000000000010000000000000000000000000000000000000000000000000000000000000",
      "type": "0x2",
      "transactionHash": "0x79bd19d5f3717e4390e69397c4e5330334e8e87c0679ba8882087f9cc754b87d",
      "transactionIndex": "0x1",
      "blockHash": "0xe762c8f3cdd817189365b432ea44a3290dd6e0c51b5ebf505c211e0bf6b1c9e0",
      "blockNumber": "0x5f806f1",
      "gasUsed": "0x8a1e",
      "effectiveGasPrice": "0x5f5e100",
      "from": "0xe62ab4d111f968660c6b2188046f9b9ba53c4bae",
      "to": "0x92829288c6aa874c1a0f190da35a4023c22be637",
      "contractAddress": null,
      "gasUsedForL1": "0x185e",
      "l1BlockNumber": "0x6d000a"
    },
    {
      "status": "0x1",
      "cumulativeGasUsed": "0xcebd7",
      "logs": [
        {
          "address": "0x92829288c6aa874c1a0f190da35a4023c22be637",
          "topics": [
            "0x8c5be1e5ebec7d5bd14f71427d1e84f3dd0314c0f7b2291e5b200ac8c7c3b925",
            "0x000000000000000000000000e62ab4d111f968660c6b2188046f9b9ba53c4bae",
            "0x000000000000000000000000b3aefea9f49de70c41ce22afa321e64393932d21"
          ],
          "data": "0x0000000000000000000000000000000000000000000000000000000253b05680",
          "blockHash": "0x4d238608291bd89d1875c8b99eecd7ea75fb9ac30fb2f7ab02af15c54c4abc1b",
          "blockNumber": "0x5f806f5",
          "transactionHash": "0x396f3927f39bd9b72bb9a51d8b7b7d0096eb087257bf9e7368545129797d31ab",
          "transactionIndex": "0x3",
          "logIndex": "0x1",
          "removed": false
        },
        {
          "address": "0x92829288c6aa874c1a0f190da35a4023c22be637",
          "topics": [
            "0xddf252ad1be2c89b69c2b068fc378daa952ba7f163c4a11628f55a4df523b3ef",
            "0x000000000000000000000000e62ab4d111f968660c6b2188046f9b9ba53c4bae",
            "0x000000000000000000000000b3aefea9f49de70c41ce22afa321e64393932d21"
          ],
          "data": "0x00000000000000000000000000000000000000000000000000000000005b8d80",
          "blockHash": "0x4d238608291bd89d1875c8b99eecd7ea75fb9ac30fb2f7ab02af15c54c4abc1b",
          "blockNumber": "0x5f806f5",
          "transactionHash": "0x396f3927f39bd9b72bb9a51d8b7b7d0096eb087257bf9e7368545129797d31ab",
          "transactionIndex": "0x3",
          "logIndex": "0x2",
          "removed": false
        },
        {
          "address": "0x92829288c6aa874c1a0f190da35a4023c22be637",
          "topics": [
            "0x8c5be1e5ebec7d5bd14f71427d1e84f3dd0314c0f7b2291e5b200ac8c7c3b925",
            "0x000000000000000000000000b3aefea9f49de70c41ce22afa321e64393932d21",
            "0x0000000000000000000000000e95227823f64f54d6611ae6f4fb70a4d76d4378"
          ],
          "data": "0x00000000000000000000000000000000000000000000000000000000005b8d80",
          "blockHash": "0x4d238608291bd89d1875c8b99eecd7ea75fb9ac30fb2f7ab02af15c54c4abc1b",
          "blockNumber": "0x5f806f5",
          "transactionHash": "0x396f3927f39bd9b72bb9a51d8b7b7d0096eb087257bf9e7368545129797d31ab",
          "transactionIndex": "0x3",
          "logIndex": "0x3",
          "removed": false
        },
        {
          "address": "0x92829288c6aa874c1a0f190da35a4023c22be637",
          "topics": [
            "0x8c5be1e5ebec7d5bd14f71427d1e84f3dd0314c0f7b2291e5b200ac8c7c3b925",
            "0x000000000000000000000000b3aefea9f49de70c41ce22afa321e64393932d21",
            "0x0000000000000000000000000e95227823f64f54d6611ae6f4fb70a4d76d4378"
          ],
          "data": "0x0000000000000000000000000000000000000000000000000000000000000000",
          "blockHash": "0x4d238608291bd89d1875c8b99eecd7ea75fb9ac30fb2f7ab02af15c54c4abc1b",
          "blockNumber": "0x5f806f5",
          "transactionHash": "0x396f3927f39bd9b72bb9a51d8b7b7d0096eb087257bf9e7368545129797d31ab",
          "transactionIndex": "0x3",
          "logIndex": "0x4",
          "removed": false
        },
        {
          "address": "0x92829288c6aa874c1a0f190da35a4023c22be637",
          "topics": [
            "0xddf252ad1be2c89b69c2b068fc378daa952ba7f163c4a11628f55a4df523b3ef",
            "0x000000000000000000000000b3aefea9f49de70c41ce22afa321e64393932d21",
            "0x0000000000000000000000000e95227823f64f54d6611ae6f4fb70a4d76d4378"
          ],
          "data": "0x00000000000000000000000000000000000000000000000000000000005b8d80",
          "blockHash": "0x4d238608291bd89d1875c8b99eecd7ea75fb9ac30fb2f7ab02af15c54c4abc1b",
          "blockNumber": "0x5f806f5",
          "transactionHash": "0x396f3927f39bd9b72bb9a51d8b7b7d0096eb087257bf9e7368545129797d31ab",
          "transactionIndex": "0x3",
          "logIndex": "0x5",
          "removed": false
        },
        {
          "address": "0x770c70d44c0c7b5b7d805077b66daadc00480fbc",
          "topics": [
            "0x88ca677ce66cb94eb6b03d7e06b1735c23eafde3090030bf7fb84711690a287e",
            "0x000000000000000000000000000000000000000000000000000000000000002d",
            "0x52fde09cb380e255fd4120206a1cca26f8f90fd8ea2ef166ee4de89d52de28c2"
          ],
          "data": "0x000000000000000000000000b3aefea9f49de70c41ce22afa321e64393932d2100000000000000000000000000000000000000000000000000000000000000a000000000000000000000000000000000000000000000000000000000000000e0000000000000000000000000000000000000000000000000000000000000014000000000000000000000000000000000000000000000000000000000000002a000000000000000000000000000000000000000000000000000000000000000053834353332000000000000000000000000000000000000000000000000000000000000000000000000000000000000000000000000000000000000000000002a307839613066383164653538326365393139346665616463366363656661663965613730343531363136000000000000000000000000000000000000000000000000000000000000000000000000000000000000000000000000000000000124528565d6f64f0f27b8f603da297a25f0bfb2ce387c5b73a93bb3aa3b301e71bb6be213980000000000000000000000000000000000000000000000000000000000000080000000000000000000000000000000000000000000000000000000000000000600000000000000000000000000000000000000000000000000000000000000e0000000000000000000000000000000000000000000000000000000000000002a30786536326162346431313166393638363630633662323138383034366639623962613533633462616500000000000000000000000000000000000000000000000000000000000000000000000000000000000000000000000000000000000f416e6f74686572206e6577205257410000000000000000000000000000000000000000000000000000000000000000000000000000000000000000000000000000000000000000000000000000000000000000000000000000000000",
          "blockHash": "0x4d238608291bd89d1875c8b99eecd7ea75fb9ac30fb2f7ab02af15c54c4abc1b",
          "blockNumber": "0x5f806f5",
          "transactionHash": "0x396f3927f39bd9b72bb9a51d8b7b7d0096eb087257bf9e7368545129797d31ab",
          "transactionIndex": "0x3",
          "logIndex": "0x6",
          "removed": false
        },
        {
          "address": "0x6b17037249a4897cf37efdd6d09ba9874b7f5acc",
          "topics": [
            "0xe4f48c240d3b994948aa54f3e2f5fca59263dfe1d52b6e4cf39a5d249b5ccb65",
            "0x0000000000000000000000000000000000000000000000000000000000000000",
            "0x0000000000000000000000000000000000000000000000000000000000000000",
            "0x0000000000000000000000000000000000000000000000000000000000000006"
          ],
          "data": "0x",
          "blockHash": "0x4d238608291bd89d1875c8b99eecd7ea75fb9ac30fb2f7ab02af15c54c4abc1b",
          "blockNumber": "0x5f806f5",
          "transactionHash": "0x396f3927f39bd9b72bb9a51d8b7b7d0096eb087257bf9e7368545129797d31ab",
          "transactionIndex": "0x3",
          "logIndex": "0x7",
          "removed": false
        },
        {
          "address": "0xb3aefea9f49de70c41ce22afa321e64393932d21",
          "topics": [
            "0x9d223dd987b9b80ed14cb80350a9052082a4b69610e6c53c073062dd02ee70ea"
          ],
          "data": "0xf64f0f27b8f603da297a25f0bfb2ce387c5b73a93bb3aa3b301e71bb6be213980000000000000000000000000000000000000000000000000000000000000006000000000000000000000000000000000000000000000000000000000000006000000000000000000000000000000000000000000000000000000000000000063432313631340000000000000000000000000000000000000000000000000000",
          "blockHash": "0x4d238608291bd89d1875c8b99eecd7ea75fb9ac30fb2f7ab02af15c54c4abc1b",
          "blockNumber": "0x5f806f5",
          "transactionHash": "0x396f3927f39bd9b72bb9a51d8b7b7d0096eb087257bf9e7368545129797d31ab",
          "transactionIndex": "0x3",
          "logIndex": "0x8",
          "removed": false
        }
      ],
      "logsBloom": "0x20000010000000000004000000000000000001000000000000000000400008000000000000000400000400001000000000000000000400000000008400200000000000000000200000000049000000000000000001000010000000000000000000000100020000000000008000000800000000000000000000000010000000000000000400000000400000000000060000000000004000000000000000000040020000000000000000040040000002000000002000000002000110080000000000000002000100000002000000000000000000001100000000000000400020000010000000000000000000000000000000000000000000000000000000000000",
      "type": "0x2",
      "transactionHash": "0x396f3927f39bd9b72bb9a51d8b7b7d0096eb087257bf9e7368545129797d31ab",
      "transactionIndex": "0x3",
      "blockHash": "0x4d238608291bd89d1875c8b99eecd7ea75fb9ac30fb2f7ab02af15c54c4abc1b",
      "blockNumber": "0x5f806f5",
      "gasUsed": "0x9fbb4",
      "effectiveGasPrice": "0x5f5e100",
      "from": "0xe62ab4d111f968660c6b2188046f9b9ba53c4bae",
      "to": "0xb3aefea9f49de70c41ce22afa321e64393932d21",
      "contractAddress": null,
      "gasUsedForL1": "0x31ef",
      "l1BlockNumber": "0x6d000a"
    }
  ],
  "libraries": [],
  "pending": [],
  "returns": {},
  "timestamp": 1732458157,
  "chain": 421614,
  "commit": "e1e292db"
}