{
  "transactions": [
    {
      "hash": "0x06c75d0df4183f34ada732cddeee2f201318c41220cea6c292dfd87254a858d0",
      "transactionType": "CALL",
      "contractName": null,
      "contractAddress": "0x92829288c6aa874c1a0f190da35a4023c22be637",
      "function": "approve(address,uint256)",
      "arguments": [
        "0x9DC772b55e95A630031EBe431706D105af01Cf03",
        "10000000000"
      ],
      "transaction": {
        "from": "0xe62ab4d111f968660c6b2188046f9b9ba53c4bae",
        "to": "0x92829288c6aa874c1a0f190da35a4023c22be637",
        "gas": "0xfd62",
        "value": "0x0",
        "input": "0x095ea7b30000000000000000000000009dc772b55e95a630031ebe431706d105af01cf0300000000000000000000000000000000000000000000000000000002540be400",
        "nonce": "0x307",
        "chainId": "0x66eee"
      },
      "additionalContracts": [],
      "isFixedGasLimit": false
    },
    {
      "hash": "0xc34839b2293ef44578d795957e8dfdaf410a81204d81912821c16a84e207f338",
      "transactionType": "CALL",
      "contractName": "CTMRWA001X",
      "contractAddress": "0x9dc772b55e95a630031ebe431706d105af01cf03",
      "function": "mintNewTokenValueLocal(address,uint256,uint256,uint256,uint256)",
      "arguments": [
        "0xe62Ab4D111f968660C6B2188046F9B9bA53C4Bae",
        "0",
        "0",
        "1450",
        "22635303189685810603774341943740380258832277309368089736675155746122815957883"
      ],
      "transaction": {
        "from": "0xe62ab4d111f968660c6b2188046f9b9ba53c4bae",
        "to": "0x9dc772b55e95a630031ebe431706d105af01cf03",
        "gas": "0x7c514",
        "value": "0x0",
        "input": "0xd299e54a000000000000000000000000e62ab4d111f968660c6b2188046f9b9ba53c4bae0000000000000000000000000000000000000000000000000000000000000000000000000000000000000000000000000000000000000000000000000000000000000000000000000000000000000000000000000000000000000000000005aa320b20aa2379772f4e6f8b56eb8ee31d62564d19349bdf64e3d8fb942742eb7b",
        "nonce": "0x308",
        "chainId": "0x66eee"
      },
      "additionalContracts": [],
      "isFixedGasLimit": false
    },
    {
      "hash": "0x7af0bb8628d97f1b6d305f8e8dd3a271cd8bd25cc5350c5d2ab0851bc1e3fe82",
      "transactionType": "CALL",
      "contractName": "CTMRWA001X",
      "contractAddress": "0x9dc772b55e95a630031ebe431706d105af01cf03",
      "function": "deployAllCTMRWA001X(bool,uint256,uint256,uint256,string,string,uint8,string,string[],string)",
      "arguments": [
        "false",
        "22635303189685810603774341943740380258832277309368089736675155746122815957883",
        "1",
        "1",
        "Selqui SQ1",
        "SQ1",
        "18",
        "GFLD",
        "[97]",
        "0x92829288c6aa874c1a0f190da35a4023c22be637"
      ],
      "transaction": {
        "from": "0xe62ab4d111f968660c6b2188046f9b9ba53c4bae",
        "to": "0x9dc772b55e95a630031ebe431706d105af01cf03",
        "gas": "0xaac0e",
        "value": "0x0",
        "input": "0xa3d8f8500000000000000000000000000000000000000000000000000000000000000000320b20aa2379772f4e6f8b56eb8ee31d62564d19349bdf64e3d8fb942742eb7b0000000000000000000000000000000000000000000000000000000000000001000000000000000000000000000000000000000000000000000000000000000100000000000000000000000000000000000000000000000000000000000001400000000000000000000000000000000000000000000000000000000000000180000000000000000000000000000000000000000000000000000000000000001200000000000000000000000000000000000000000000000000000000000001c000000000000000000000000000000000000000000000000000000000000002000000000000000000000000000000000000000000000000000000000000000280000000000000000000000000000000000000000000000000000000000000000a53656c717569205351310000000000000000000000000000000000000000000000000000000000000000000000000000000000000000000000000000000000035351310000000000000000000000000000000000000000000000000000000000000000000000000000000000000000000000000000000000000000000000000447464c44000000000000000000000000000000000000000000000000000000000000000000000000000000000000000000000000000000000000000000000001000000000000000000000000000000000000000000000000000000000000002000000000000000000000000000000000000000000000000000000000000000023937000000000000000000000000000000000000000000000000000000000000000000000000000000000000000000000000000000000000000000000000002a30783932383239323838633661613837346331613066313930646133356134303233633232626536333700000000000000000000000000000000000000000000",
        "nonce": "0x309",
        "chainId": "0x66eee"
      },
      "additionalContracts": [],
      "isFixedGasLimit": false
    }
  ],
  "receipts": [
    {
      "status": "0x1",
      "cumulativeGasUsed": "0x1506f",
      "logs": [
        {
          "address": "0x92829288c6aa874c1a0f190da35a4023c22be637",
          "topics": [
            "0x8c5be1e5ebec7d5bd14f71427d1e84f3dd0314c0f7b2291e5b200ac8c7c3b925",
            "0x000000000000000000000000e62ab4d111f968660c6b2188046f9b9ba53c4bae",
            "0x0000000000000000000000009dc772b55e95a630031ebe431706d105af01cf03"
          ],
          "data": "0x00000000000000000000000000000000000000000000000000000002540be400",
          "blockHash": "0xe433e9062b7665348d43d4daa69bd2336ac7b3dd9b756d7e6bdc777a826a807b",
          "blockNumber": "0x5a4e503",
          "transactionHash": "0x06c75d0df4183f34ada732cddeee2f201318c41220cea6c292dfd87254a858d0",
          "transactionIndex": "0x2",
          "logIndex": "0x1",
          "removed": false
        }
      ],
      "logsBloom": "0x20000000000000000004000000000000000000000000000000000000000000000000000000000000000020001000000000000000000000000000000000200000000000000000000000000000000000000000000000000000000000000000000000000000000000000000000000000000000000000000000000000000000000000000000000000000000000000000040000000000000000000000000000000040020000000000000000400000000000000000000000000000000000000000000000000000000000000000000000000000000000001000000000000000000000000010000000000000000000000000000000000000000000000002000000000000",
      "type": "0x2",
      "transactionHash": "0x06c75d0df4183f34ada732cddeee2f201318c41220cea6c292dfd87254a858d0",
      "transactionIndex": "0x2",
      "blockHash": "0xe433e9062b7665348d43d4daa69bd2336ac7b3dd9b756d7e6bdc777a826a807b",
      "blockNumber": "0x5a4e503",
      "gasUsed": "0xbe94",
      "effectiveGasPrice": "0x5f5e100",
      "from": "0xe62ab4d111f968660c6b2188046f9b9ba53c4bae",
      "to": "0x92829288c6aa874c1a0f190da35a4023c22be637",
      "contractAddress": null,
      "gasUsedForL1": "0xa08",
      "l1BlockNumber": "0x6b19db"
    },
    {
      "status": "0x1",
      "cumulativeGasUsed": "0x5e608",
      "logs": [
        {
          "address": "0x789c7d29992f09116facb7dbf565fde531610aff",
          "topics": [
            "0xddf252ad1be2c89b69c2b068fc378daa952ba7f163c4a11628f55a4df523b3ef",
            "0x0000000000000000000000000000000000000000000000000000000000000000",
            "0x000000000000000000000000e62ab4d111f968660c6b2188046f9b9ba53c4bae",
            "0x0000000000000000000000000000000000000000000000000000000000000002"
          ],
          "data": "0x",
          "blockHash": "0xfa986d414ba65e58f274e15bde5689e7a0f9b9647c12594478ce6987847e6957",
          "blockNumber": "0x5a4e507",
          "transactionHash": "0xc34839b2293ef44578d795957e8dfdaf410a81204d81912821c16a84e207f338",
          "transactionIndex": "0x1",
          "logIndex": "0x0",
          "removed": false
        },
        {
          "address": "0x789c7d29992f09116facb7dbf565fde531610aff",
          "topics": [
            "0xe4f48c240d3b994948aa54f3e2f5fca59263dfe1d52b6e4cf39a5d249b5ccb65",
            "0x0000000000000000000000000000000000000000000000000000000000000002",
            "0x0000000000000000000000000000000000000000000000000000000000000000",
            "0x0000000000000000000000000000000000000000000000000000000000000000"
          ],
          "data": "0x",
          "blockHash": "0xfa986d414ba65e58f274e15bde5689e7a0f9b9647c12594478ce6987847e6957",
          "blockNumber": "0x5a4e507",
          "transactionHash": "0xc34839b2293ef44578d795957e8dfdaf410a81204d81912821c16a84e207f338",
          "transactionIndex": "0x1",
          "logIndex": "0x1",
          "removed": false
        },
        {
          "address": "0x789c7d29992f09116facb7dbf565fde531610aff",
          "topics": [
            "0x0b2aac84f3ec956911fd78eae5311062972ff949f38412e8da39069d9f068cc6",
            "0x0000000000000000000000000000000000000000000000000000000000000000",
            "0x0000000000000000000000000000000000000000000000000000000000000002"
          ],
          "data": "0x00000000000000000000000000000000000000000000000000000000000005aa",
          "blockHash": "0xfa986d414ba65e58f274e15bde5689e7a0f9b9647c12594478ce6987847e6957",
          "blockNumber": "0x5a4e507",
          "transactionHash": "0xc34839b2293ef44578d795957e8dfdaf410a81204d81912821c16a84e207f338",
          "transactionIndex": "0x1",
          "logIndex": "0x2",
          "removed": false
        }
      ],
      "logsBloom": "0x24000000000000000004000000000000000000000000001000000000000000000000000000000000000000000000000000008000000000000000000000000400000000000000000000000008000000000000000000000000000000000000000000000000020000000000000000000800000000000000000000000010000000400000000000000000400000000000040000000000000000000000000000000000000000000000000000000100000002000000000000000000000000000000000000000002000000000002000000000000000000000000000000000000000020000000000000000000000000000000000200000000008001000000000000000000",
      "type": "0x2",
      "transactionHash": "0xc34839b2293ef44578d795957e8dfdaf410a81204d81912821c16a84e207f338",
      "transactionIndex": "0x1",
      "blockHash": "0xfa986d414ba65e58f274e15bde5689e7a0f9b9647c12594478ce6987847e6957",
      "blockNumber": "0x5a4e507",
      "gasUsed": "0x5e608",
      "effectiveGasPrice": "0x5f5e100",
      "from": "0xe62ab4d111f968660c6b2188046f9b9ba53c4bae",
      "to": "0x9dc772b55e95a630031ebe431706d105af01cf03",
      "contractAddress": null,
      "gasUsedForL1": "0xf4b",
      "l1BlockNumber": "0x6b19db"
    },
    {
      "status": "0x1",
      "cumulativeGasUsed": "0x7ce5a",
      "logs": [
        {
          "address": "0x92829288c6aa874c1a0f190da35a4023c22be637",
          "topics": [
            "0x8c5be1e5ebec7d5bd14f71427d1e84f3dd0314c0f7b2291e5b200ac8c7c3b925",
            "0x000000000000000000000000e62ab4d111f968660c6b2188046f9b9ba53c4bae",
            "0x0000000000000000000000009dc772b55e95a630031ebe431706d105af01cf03"
          ],
          "data": "0x000000000000000000000000000000000000000000000000000000024e160300",
          "blockHash": "0x3cb65a628f5ccae3f9f4c5cfc0ba8c89ee65c5d7909fb588b9d6f3d71df5a76b",
          "blockNumber": "0x5a4e521",
          "transactionHash": "0x7af0bb8628d97f1b6d305f8e8dd3a271cd8bd25cc5350c5d2ab0851bc1e3fe82",
          "transactionIndex": "0x1",
          "logIndex": "0x0",
          "removed": false
        },
        {
          "address": "0x92829288c6aa874c1a0f190da35a4023c22be637",
          "topics": [
            "0xddf252ad1be2c89b69c2b068fc378daa952ba7f163c4a11628f55a4df523b3ef",
            "0x000000000000000000000000e62ab4d111f968660c6b2188046f9b9ba53c4bae",
            "0x0000000000000000000000009dc772b55e95a630031ebe431706d105af01cf03"
          ],
          "data": "0x0000000000000000000000000000000000000000000000000000000005f5e100",
          "blockHash": "0x3cb65a628f5ccae3f9f4c5cfc0ba8c89ee65c5d7909fb588b9d6f3d71df5a76b",
          "blockNumber": "0x5a4e521",
          "transactionHash": "0x7af0bb8628d97f1b6d305f8e8dd3a271cd8bd25cc5350c5d2ab0851bc1e3fe82",
          "transactionIndex": "0x1",
          "logIndex": "0x1",
          "removed": false
        },
        {
          "address": "0x92829288c6aa874c1a0f190da35a4023c22be637",
          "topics": [
            "0x8c5be1e5ebec7d5bd14f71427d1e84f3dd0314c0f7b2291e5b200ac8c7c3b925",
            "0x0000000000000000000000009dc772b55e95a630031ebe431706d105af01cf03",
            "0x0000000000000000000000009068f274555af3cd0a934dbcf1c56e7b83ad450a"
          ],
          "data": "0x0000000000000000000000000000000000000000000000000000000005f5e100",
          "blockHash": "0x3cb65a628f5ccae3f9f4c5cfc0ba8c89ee65c5d7909fb588b9d6f3d71df5a76b",
          "blockNumber": "0x5a4e521",
          "transactionHash": "0x7af0bb8628d97f1b6d305f8e8dd3a271cd8bd25cc5350c5d2ab0851bc1e3fe82",
          "transactionIndex": "0x1",
          "logIndex": "0x2",
          "removed": false
        },
        {
          "address": "0x92829288c6aa874c1a0f190da35a4023c22be637",
          "topics": [
            "0x8c5be1e5ebec7d5bd14f71427d1e84f3dd0314c0f7b2291e5b200ac8c7c3b925",
            "0x0000000000000000000000009dc772b55e95a630031ebe431706d105af01cf03",
            "0x0000000000000000000000009068f274555af3cd0a934dbcf1c56e7b83ad450a"
          ],
          "data": "0x0000000000000000000000000000000000000000000000000000000000000000",
          "blockHash": "0x3cb65a628f5ccae3f9f4c5cfc0ba8c89ee65c5d7909fb588b9d6f3d71df5a76b",
          "blockNumber": "0x5a4e521",
          "transactionHash": "0x7af0bb8628d97f1b6d305f8e8dd3a271cd8bd25cc5350c5d2ab0851bc1e3fe82",
          "transactionIndex": "0x1",
          "logIndex": "0x3",
          "removed": false
        },
        {
          "address": "0x92829288c6aa874c1a0f190da35a4023c22be637",
          "topics": [
            "0xddf252ad1be2c89b69c2b068fc378daa952ba7f163c4a11628f55a4df523b3ef",
            "0x0000000000000000000000009dc772b55e95a630031ebe431706d105af01cf03",
            "0x0000000000000000000000009068f274555af3cd0a934dbcf1c56e7b83ad450a"
          ],
          "data": "0x0000000000000000000000000000000000000000000000000000000005f5e100",
          "blockHash": "0x3cb65a628f5ccae3f9f4c5cfc0ba8c89ee65c5d7909fb588b9d6f3d71df5a76b",
          "blockNumber": "0x5a4e521",
          "transactionHash": "0x7af0bb8628d97f1b6d305f8e8dd3a271cd8bd25cc5350c5d2ab0851bc1e3fe82",
          "transactionIndex": "0x1",
          "logIndex": "0x4",
          "removed": false
        },
        {
          "address": "0x770c70d44c0c7b5b7d805077b66daadc00480fbc",
          "topics": [
            "0x88ca677ce66cb94eb6b03d7e06b1735c23eafde3090030bf7fb84711690a287e",
            "0x000000000000000000000000000000000000000000000000000000000000002d",
            "0x0c498079d386e1d82945204545073506dbf1b99b7cb74411fa944b3c1c713167"
          ],
          "data": "0x0000000000000000000000009dc772b55e95a630031ebe431706d105af01cf0300000000000000000000000000000000000000000000000000000000000000a000000000000000000000000000000000000000000000000000000000000000e00000000000000000000000000000000000000000000000000000000000000140000000000000000000000000000000000000000000000000000000000000042000000000000000000000000000000000000000000000000000000000000000023937000000000000000000000000000000000000000000000000000000000000000000000000000000000000000000000000000000000000000000000000002a3078363662373139633438393139333539346336313738303165363731313939353963643135623633610000000000000000000000000000000000000000000000000000000000000000000000000000000000000000000000000000000002a43d9ab49f0000000000000000000000000000000000000000000000000000000000000120320b20aa2379772f4e6f8b56eb8ee31d62564d19349bdf64e3d8fb942742eb7b00000000000000000000000000000000000000000000000000000000000000010000000000000000000000000000000000000000000000000000000000000001000000000000000000000000000000000000000000000000000000000000018000000000000000000000000000000000000000000000000000000000000001c0000000000000000000000000000000000000000000000000000000000000001200000000000000000000000000000000000000000000000000000000000002000000000000000000000000000000000000000000000000000000000000000240000000000000000000000000000000000000000000000000000000000000002a30786536326162346431313166393638363630633662323138383034366639623962613533633462616500000000000000000000000000000000000000000000000000000000000000000000000000000000000000000000000000000000000a53656c717569205351310000000000000000000000000000000000000000000000000000000000000000000000000000000000000000000000000000000000035351310000000000000000000000000000000000000000000000000000000000000000000000000000000000000000000000000000000000000000000000000447464c4400000000000000000000000000000000000000000000000000000000000000000000000000000000000000000000000000000000000000000000002a30783738396337643239393932663039313136666163623764626635363566646535333136313061666600000000000000000000000000000000000000000000000000000000000000000000000000000000000000000000000000000000000000000000000000000000000000000000000000000000000000000000",
          "blockHash": "0x3cb65a628f5ccae3f9f4c5cfc0ba8c89ee65c5d7909fb588b9d6f3d71df5a76b",
          "blockNumber": "0x5a4e521",
          "transactionHash": "0x7af0bb8628d97f1b6d305f8e8dd3a271cd8bd25cc5350c5d2ab0851bc1e3fe82",
          "transactionIndex": "0x1",
          "logIndex": "0x5",
          "removed": false
        }
      ],
      "logsBloom": "0xa0000000000000000004000000000000000001000000000000000000400000000000000000000000000020001000000000000000000000000000008400200000000000000000000200000048000000000000000000000000000000000000000000000000000000004000008000000000800000000000000000000010000000000000000400000000000000000000040000000000000000000000000000000040020000000000000000400000000000000000002000000000000010000000000000000002000000000000000400000000000000001000000000000000400000000010000000000000000000000000000000000000000000000002000000000000",
      "type": "0x2",
      "transactionHash": "0x7af0bb8628d97f1b6d305f8e8dd3a271cd8bd25cc5350c5d2ab0851bc1e3fe82",
      "transactionIndex": "0x1",
      "blockHash": "0x3cb65a628f5ccae3f9f4c5cfc0ba8c89ee65c5d7909fb588b9d6f3d71df5a76b",
      "blockNumber": "0x5a4e521",
      "gasUsed": "0x7ce5a",
      "effectiveGasPrice": "0x5f5e100",
      "from": "0xe62ab4d111f968660c6b2188046f9b9ba53c4bae",
      "to": "0x9dc772b55e95a630031ebe431706d105af01cf03",
      "contractAddress": null,
      "gasUsedForL1": "0x1464",
      "l1BlockNumber": "0x6b19db"
    }
  ],
  "libraries": [],
  "pending": [],
  "returns": {},
  "timestamp": 1730837180,
  "chain": 421614,
  "commit": "923fb933"
}