{
  "transactions": [
    {
      "hash": "0x0b2c8061306d330bbc94921f05bb5ebe6aa3d6368bcd2a721b84fa8d160d11b3",
      "transactionType": "CALL",
      "contractName": null,
      "contractAddress": "0xD2499F70542D598fE7679cD439A4cbA16e5b2BF9",
      "function": "mintNewTokenValueLocal(address,uint256,uint256,uint256,uint256)",
      "arguments": [
        "0xe62Ab4D111f968660C6B2188046F9B9bA53C4Bae",
        "0",
        "0",
        "1450",
        "9147904968889482208907034084512527252405720098827985479629846851769439457642"
      ],
      "transaction": {
        "from": "0xe62Ab4D111f968660C6B2188046F9B9bA53C4Bae",
        "to": "0xD2499F70542D598fE7679cD439A4cbA16e5b2BF9",
        "gas": "0x8fff8",
        "value": "0x0",
        "input": "0xd299e54a000000000000000000000000e62ab4d111f968660c6b2188046f9b9ba53c4bae0000000000000000000000000000000000000000000000000000000000000000000000000000000000000000000000000000000000000000000000000000000000000000000000000000000000000000000000000000000000000000000005aa143987ddc3dcde0050eebe55372cab7be1f7947f7d2da8555b25b506d5ed916a",
        "nonce": "0x19b",
        "chainId": "0x66eee"
      },
      "additionalContracts": [],
      "isFixedGasLimit": false
    },
    {
      "hash": "0x26974f6b605608e7badfe2e56b4c0da917c2228871a4e201d3eb02f5a124ce23",
      "transactionType": "CALL",
      "contractName": null,
      "contractAddress": "0xD2499F70542D598fE7679cD439A4cbA16e5b2BF9",
      "function": "deployAllCTMRWA001X(bool,uint256,uint256,uint256,string,string,uint8,string,string[],string)",
      "arguments": [
        "false",
        "9147904968889482208907034084512527252405720098827985479629846851769439457642",
        "1",
        "1",
        "Selqui SQ1",
        "SQ1",
        "18",
        "/Selqui",
        "[97]",
        "0x1ee4ba474da815f728df08f0147defac07f0bab3"
      ],
      "transaction": {
        "from": "0xe62Ab4D111f968660C6B2188046F9B9bA53C4Bae",
        "to": "0xD2499F70542D598fE7679cD439A4cbA16e5b2BF9",
        "gas": "0x911b9",
        "value": "0x0",
        "input": "0xa3d8f8500000000000000000000000000000000000000000000000000000000000000000143987ddc3dcde0050eebe55372cab7be1f7947f7d2da8555b25b506d5ed916a0000000000000000000000000000000000000000000000000000000000000001000000000000000000000000000000000000000000000000000000000000000100000000000000000000000000000000000000000000000000000000000001400000000000000000000000000000000000000000000000000000000000000180000000000000000000000000000000000000000000000000000000000000001200000000000000000000000000000000000000000000000000000000000001c000000000000000000000000000000000000000000000000000000000000002000000000000000000000000000000000000000000000000000000000000000280000000000000000000000000000000000000000000000000000000000000000a53656c71756920535131000000000000000000000000000000000000000000000000000000000000000000000000000000000000000000000000000000000003535131000000000000000000000000000000000000000000000000000000000000000000000000000000000000000000000000000000000000000000000000072f53656c717569000000000000000000000000000000000000000000000000000000000000000000000000000000000000000000000000000000000000000001000000000000000000000000000000000000000000000000000000000000002000000000000000000000000000000000000000000000000000000000000000023937000000000000000000000000000000000000000000000000000000000000000000000000000000000000000000000000000000000000000000000000002a30783165653462613437346461383135663732386466303866303134376465666163303766306261623300000000000000000000000000000000000000000000",
        "nonce": "0x19c",
        "chainId": "0x66eee"
      },
      "additionalContracts": [],
      "isFixedGasLimit": false
    }
  ],
  "receipts": [
    {
      "status": "0x1",
      "cumulativeGasUsed": "0x33e295",
      "logs": [
        {
          "address": "0xB3AcF97717DaE3C0767287328394Eb7cEfC79D4D",
          "topics": [
            "0xe4f48c240d3b994948aa54f3e2f5fca59263dfe1d52b6e4cf39a5d249b5ccb65",
            "0x0000000000000000000000000000000000000000000000000000000000000000",
            "0x0000000000000000000000000000000000000000000000000000000000000000",
            "0x0000000000000000000000000000000000000000000000000000000000000000"
          ],
          "data": "0x",
          "blockHash": "0xbfa2a0dc5a2cd39019d93d8a9e72f01566e8161550146fca412734f4f7aad56b",
          "blockNumber": "0x550b0dd",
          "transactionHash": "0x0b2c8061306d330bbc94921f05bb5ebe6aa3d6368bcd2a721b84fa8d160d11b3",
          "transactionIndex": "0xb",
          "logIndex": "0xa",
          "removed": false
        },
        {
          "address": "0xB3AcF97717DaE3C0767287328394Eb7cEfC79D4D",
          "topics": [
            "0xddf252ad1be2c89b69c2b068fc378daa952ba7f163c4a11628f55a4df523b3ef",
            "0x0000000000000000000000000000000000000000000000000000000000000000",
            "0x000000000000000000000000e62ab4d111f968660c6b2188046f9b9ba53c4bae",
            "0x0000000000000000000000000000000000000000000000000000000000000001"
          ],
          "data": "0x",
          "blockHash": "0xbfa2a0dc5a2cd39019d93d8a9e72f01566e8161550146fca412734f4f7aad56b",
          "blockNumber": "0x550b0dd",
          "transactionHash": "0x0b2c8061306d330bbc94921f05bb5ebe6aa3d6368bcd2a721b84fa8d160d11b3",
          "transactionIndex": "0xb",
          "logIndex": "0xb",
          "removed": false
        },
        {
          "address": "0xB3AcF97717DaE3C0767287328394Eb7cEfC79D4D",
          "topics": [
            "0xe4f48c240d3b994948aa54f3e2f5fca59263dfe1d52b6e4cf39a5d249b5ccb65",
            "0x0000000000000000000000000000000000000000000000000000000000000001",
            "0x0000000000000000000000000000000000000000000000000000000000000000",
            "0x0000000000000000000000000000000000000000000000000000000000000000"
          ],
          "data": "0x",
          "blockHash": "0xbfa2a0dc5a2cd39019d93d8a9e72f01566e8161550146fca412734f4f7aad56b",
          "blockNumber": "0x550b0dd",
          "transactionHash": "0x0b2c8061306d330bbc94921f05bb5ebe6aa3d6368bcd2a721b84fa8d160d11b3",
          "transactionIndex": "0xb",
          "logIndex": "0xc",
          "removed": false
        },
        {
          "address": "0xB3AcF97717DaE3C0767287328394Eb7cEfC79D4D",
          "topics": [
            "0x0b2aac84f3ec956911fd78eae5311062972ff949f38412e8da39069d9f068cc6",
            "0x0000000000000000000000000000000000000000000000000000000000000000",
            "0x0000000000000000000000000000000000000000000000000000000000000001"
          ],
          "data": "0x00000000000000000000000000000000000000000000000000000000000005aa",
          "blockHash": "0xbfa2a0dc5a2cd39019d93d8a9e72f01566e8161550146fca412734f4f7aad56b",
          "blockNumber": "0x550b0dd",
          "transactionHash": "0x0b2c8061306d330bbc94921f05bb5ebe6aa3d6368bcd2a721b84fa8d160d11b3",
          "transactionIndex": "0xb",
          "logIndex": "0xd",
          "removed": false
        }
      ],
      "logsBloom": "0x20000000000000000004000000000000000000000000001000000000000000000000000000000000000000000000000000000000000000000000000000040000000000000000000000000008000000000000000000040001000000000000000000000000020000000000000000000800000000000000000000000010000000000010000000000000400000000000040000000000000100000000000000000000000000000000000000000000000002000000000000000000000000000000000000000002000000000002000000000000000000000000000000000000000060000000000000000000000000000000000200000000000001000000000000000000",
      "type": "0x2",
      "transactionHash": "0x0b2c8061306d330bbc94921f05bb5ebe6aa3d6368bcd2a721b84fa8d160d11b3",
      "transactionIndex": "0xb",
      "blockHash": "0xbfa2a0dc5a2cd39019d93d8a9e72f01566e8161550146fca412734f4f7aad56b",
      "blockNumber": "0x550b0dd",
      "gasUsed": "0x6bb53",
      "effectiveGasPrice": "0x5f5e100",
      "from": "0xe62Ab4D111f968660C6B2188046F9B9bA53C4Bae",
      "to": "0xD2499F70542D598fE7679cD439A4cbA16e5b2BF9",
      "contractAddress": null,
      "gasUsedForL1": "0x71c7",
      "l1BlockNumber": "0x691692"
    },
    {
      "status": "0x1",
      "cumulativeGasUsed": "0x6c719",
      "logs": [
        {
          "address": "0x770c70D44C0c7b5B7D805077B66daADC00480FbC",
          "topics": [
            "0x88ca677ce66cb94eb6b03d7e06b1735c23eafde3090030bf7fb84711690a287e",
            "0x000000000000000000000000000000000000000000000000000000000000002d",
            "0x8424d2939d8cb8edcaa8f5eeb75e44ef82f712ca16b2b128b6caedd35506008a"
          ],
          "data": "0x000000000000000000000000d2499f70542d598fe7679cd439a4cba16e5b2bf900000000000000000000000000000000000000000000000000000000000000a000000000000000000000000000000000000000000000000000000000000000e00000000000000000000000000000000000000000000000000000000000000140000000000000000000000000000000000000000000000000000000000000042000000000000000000000000000000000000000000000000000000000000000023937000000000000000000000000000000000000000000000000000000000000000000000000000000000000000000000000000000000000000000000000002a3078333566623438303462663964633032613732633761313039333830333638646161666634356635640000000000000000000000000000000000000000000000000000000000000000000000000000000000000000000000000000000002a43d9ab49f0000000000000000000000000000000000000000000000000000000000000120143987ddc3dcde0050eebe55372cab7be1f7947f7d2da8555b25b506d5ed916a00000000000000000000000000000000000000000000000000000000000000010000000000000000000000000000000000000000000000000000000000000001000000000000000000000000000000000000000000000000000000000000018000000000000000000000000000000000000000000000000000000000000001c0000000000000000000000000000000000000000000000000000000000000001200000000000000000000000000000000000000000000000000000000000002000000000000000000000000000000000000000000000000000000000000000240000000000000000000000000000000000000000000000000000000000000002a30786536326162346431313166393638363630633662323138383034366639623962613533633462616500000000000000000000000000000000000000000000000000000000000000000000000000000000000000000000000000000000000a53656c71756920535131000000000000000000000000000000000000000000000000000000000000000000000000000000000000000000000000000000000003535131000000000000000000000000000000000000000000000000000000000000000000000000000000000000000000000000000000000000000000000000072f53656c71756900000000000000000000000000000000000000000000000000000000000000000000000000000000000000000000000000000000000000002a30786233616366393737313764616533633037363732383733323833393465623763656663373964346400000000000000000000000000000000000000000000000000000000000000000000000000000000000000000000000000000000000000000000000000000000000000000000000000000000000000000000",
          "blockHash": "0x1f9e768121f414e8422887c90017ae0df7952ad248976084706f7a86728d9bff",
          "blockNumber": "0x550b0fa",
          "transactionHash": "0x26974f6b605608e7badfe2e56b4c0da917c2228871a4e201d3eb02f5a124ce23",
          "transactionIndex": "0x1",
          "logIndex": "0x0",
          "removed": false
        }
      ],
      "logsBloom": "0x00000000000000000000000000000000000001000000000000000000400000000000000000000000000000000000000000000000000000000000008400000000000000000000001000000040000000000000000000000000000000000000000000000000000100000000008000000000000000000000000000000000000000000000000000000000000000000000000000000000000000000000000000000000000000000000000000000000000000000000002000000000000010000000000000000000000000000000000000000000000000000000000200000000400000000000000000000000000000000000000000000000000000000000000000000000",
      "type": "0x2",
      "transactionHash": "0x26974f6b605608e7badfe2e56b4c0da917c2228871a4e201d3eb02f5a124ce23",
      "transactionIndex": "0x1",
      "blockHash": "0x1f9e768121f414e8422887c90017ae0df7952ad248976084706f7a86728d9bff",
      "blockNumber": "0x550b0fa",
      "gasUsed": "0x6c719",
      "effectiveGasPrice": "0x5f5e100",
      "from": "0xe62Ab4D111f968660C6B2188046F9B9bA53C4Bae",
      "to": "0xD2499F70542D598fE7679cD439A4cbA16e5b2BF9",
      "contractAddress": null,
      "gasUsedForL1": "0x9f75",
      "l1BlockNumber": "0x691692"
    }
  ],
  "libraries": [],
  "pending": [],
  "returns": {},
  "timestamp": 1729092797,
  "chain": 421614,
  "commit": "7d051dd0"
}