{
  "transactions": [
    {
      "hash": "0x2be76bc55f0c84533fa7d7713650836adaed3ea6f3663dc347b73028bdcb0ded",
      "transactionType": "CALL",
      "contractName": null,
      "contractAddress": "0x92829288c6aa874c1a0f190da35a4023c22be637",
      "function": "approve(address,uint256)",
      "arguments": [
        "0x6F2F79720C81631d3a0FE8e19c96F3ceBd56519a",
        "10000000000"
      ],
      "transaction": {
        "from": "0xe62ab4d111f968660c6b2188046f9b9ba53c4bae",
        "to": "0x92829288c6aa874c1a0f190da35a4023c22be637",
        "gas": "0xbd9b",
        "value": "0x0",
        "input": "0x095ea7b30000000000000000000000006f2f79720c81631d3a0fe8e19c96f3cebd56519a00000000000000000000000000000000000000000000000000000002540be400",
        "nonce": "0x34c",
        "chainId": "0x66eee"
      },
      "additionalContracts": [],
      "isFixedGasLimit": false
    },
    {
      "hash": "0xa5a59a4b1db2e072a434d37ead292be86fcee8582a06a7448992d856e0e7078b",
      "transactionType": "CALL",
      "contractName": null,
      "contractAddress": "0x6f2f79720c81631d3a0fe8e19c96f3cebd56519a",
      "function": "createNewSlot(uint256,uint256,string,string[],string)",
      "arguments": [
        "29251130053171396288129669670399520996794011934199132580927820677505894114636",
        "5",
        "Brand new RWA",
        "[421614]",
        "0x92829288c6aa874c1a0f190da35a4023c22be637"
      ],
      "transaction": {
        "from": "0xe62ab4d111f968660c6b2188046f9b9ba53c4bae",
        "to": "0x6f2f79720c81631d3a0fe8e19c96f3cebd56519a",
        "gas": "0x8dc2c",
        "value": "0x0",
        "input": "0x5bb1f8f440ab8d8b13eb5ef270c65eb4d4917b5039e670bf034580be23ab94424f94e54c000000000000000000000000000000000000000000000000000000000000000500000000000000000000000000000000000000000000000000000000000000a000000000000000000000000000000000000000000000000000000000000000e00000000000000000000000000000000000000000000000000000000000000160000000000000000000000000000000000000000000000000000000000000000d4272616e64206e657720525741000000000000000000000000000000000000000000000000000000000000000000000000000000000000000000000000000001000000000000000000000000000000000000000000000000000000000000002000000000000000000000000000000000000000000000000000000000000000063432313631340000000000000000000000000000000000000000000000000000000000000000000000000000000000000000000000000000000000000000002a30783932383239323838633661613837346331613066313930646133356134303233633232626536333700000000000000000000000000000000000000000000",
        "nonce": "0x34d",
        "chainId": "0x66eee"
      },
      "additionalContracts": [],
      "isFixedGasLimit": false
    }
  ],
  "receipts": [
    {
      "status": "0x1",
      "cumulativeGasUsed": "0x3e261",
      "logs": [
        {
          "address": "0x92829288c6aa874c1a0f190da35a4023c22be637",
          "topics": [
            "0x8c5be1e5ebec7d5bd14f71427d1e84f3dd0314c0f7b2291e5b200ac8c7c3b925",
            "0x000000000000000000000000e62ab4d111f968660c6b2188046f9b9ba53c4bae",
            "0x0000000000000000000000006f2f79720c81631d3a0fe8e19c96f3cebd56519a"
          ],
          "data": "0x00000000000000000000000000000000000000000000000000000002540be400",
          "blockHash": "0x9c7fa74e31eb6b2f2961bc8bad347747b6fcf8d033f789a4a4585baa07735cf1",
          "blockNumber": "0x5b60b1e",
          "transactionHash": "0x2be76bc55f0c84533fa7d7713650836adaed3ea6f3663dc347b73028bdcb0ded",
          "transactionIndex": "0x3",
          "logIndex": "0x8",
          "removed": false
        }
      ],
      "logsBloom": "0x20000000000000000004000000000000000004000000000000000000000000000000000000000000000000001000000000000000000000000000000000200000000000000000000000000000000000000000000000000000000000000000000000000000000000000000000000000000000000000000000000000000000000000000000000000000000000000000040000000000000000000000000000000040020008000000000000000000000000000000000000000000000000000010000000000000000000000000000000000000000000001000000000000000000000000010000000000000000000000000000000000000000000000000000000000000",
      "type": "0x2",
      "transactionHash": "0x2be76bc55f0c84533fa7d7713650836adaed3ea6f3663dc347b73028bdcb0ded",
      "transactionIndex": "0x3",
      "blockHash": "0x9c7fa74e31eb6b2f2961bc8bad347747b6fcf8d033f789a4a4585baa07735cf1",
      "blockNumber": "0x5b60b1e",
      "gasUsed": "0x89b5",
      "effectiveGasPrice": "0x5f5e100",
      "from": "0xe62ab4d111f968660c6b2188046f9b9ba53c4bae",
      "to": "0x92829288c6aa874c1a0f190da35a4023c22be637",
      "contractAddress": null,
      "gasUsedForL1": "0x17f5",
      "l1BlockNumber": "0x6b7691"
    },
    {
      "status": "0x1",
      "cumulativeGasUsed": "0x75c91",
      "logs": [
        {
          "address": "0x92829288c6aa874c1a0f190da35a4023c22be637",
          "topics": [
            "0x8c5be1e5ebec7d5bd14f71427d1e84f3dd0314c0f7b2291e5b200ac8c7c3b925",
            "0x000000000000000000000000e62ab4d111f968660c6b2188046f9b9ba53c4bae",
            "0x0000000000000000000000006f2f79720c81631d3a0fe8e19c96f3cebd56519a"
          ],
          "data": "0x0000000000000000000000000000000000000000000000000000000251a98a00",
          "blockHash": "0x52ee0beca8c724a0dab35289fcf1cfd9a8456f5e92a194c82b51fc2b1b8f12a3",
          "blockNumber": "0x5b60b3a",
          "transactionHash": "0xa5a59a4b1db2e072a434d37ead292be86fcee8582a06a7448992d856e0e7078b",
          "transactionIndex": "0x2",
          "logIndex": "0x1",
          "removed": false
        },
        {
          "address": "0x92829288c6aa874c1a0f190da35a4023c22be637",
          "topics": [
            "0xddf252ad1be2c89b69c2b068fc378daa952ba7f163c4a11628f55a4df523b3ef",
            "0x000000000000000000000000e62ab4d111f968660c6b2188046f9b9ba53c4bae",
            "0x0000000000000000000000006f2f79720c81631d3a0fe8e19c96f3cebd56519a"
          ],
          "data": "0x0000000000000000000000000000000000000000000000000000000002625a00",
          "blockHash": "0x52ee0beca8c724a0dab35289fcf1cfd9a8456f5e92a194c82b51fc2b1b8f12a3",
          "blockNumber": "0x5b60b3a",
          "transactionHash": "0xa5a59a4b1db2e072a434d37ead292be86fcee8582a06a7448992d856e0e7078b",
          "transactionIndex": "0x2",
          "logIndex": "0x2",
          "removed": false
        },
        {
          "address": "0x92829288c6aa874c1a0f190da35a4023c22be637",
          "topics": [
            "0x8c5be1e5ebec7d5bd14f71427d1e84f3dd0314c0f7b2291e5b200ac8c7c3b925",
            "0x0000000000000000000000006f2f79720c81631d3a0fe8e19c96f3cebd56519a",
            "0x0000000000000000000000001211a2dd0d01848dc4042a7a354cb8a4c51df594"
          ],
          "data": "0x0000000000000000000000000000000000000000000000000000000002625a00",
          "blockHash": "0x52ee0beca8c724a0dab35289fcf1cfd9a8456f5e92a194c82b51fc2b1b8f12a3",
          "blockNumber": "0x5b60b3a",
          "transactionHash": "0xa5a59a4b1db2e072a434d37ead292be86fcee8582a06a7448992d856e0e7078b",
          "transactionIndex": "0x2",
          "logIndex": "0x3",
          "removed": false
        },
        {
          "address": "0x92829288c6aa874c1a0f190da35a4023c22be637",
          "topics": [
            "0x8c5be1e5ebec7d5bd14f71427d1e84f3dd0314c0f7b2291e5b200ac8c7c3b925",
            "0x0000000000000000000000006f2f79720c81631d3a0fe8e19c96f3cebd56519a",
            "0x0000000000000000000000001211a2dd0d01848dc4042a7a354cb8a4c51df594"
          ],
          "data": "0x0000000000000000000000000000000000000000000000000000000000000000",
          "blockHash": "0x52ee0beca8c724a0dab35289fcf1cfd9a8456f5e92a194c82b51fc2b1b8f12a3",
          "blockNumber": "0x5b60b3a",
          "transactionHash": "0xa5a59a4b1db2e072a434d37ead292be86fcee8582a06a7448992d856e0e7078b",
          "transactionIndex": "0x2",
          "logIndex": "0x4",
          "removed": false
        },
        {
          "address": "0x92829288c6aa874c1a0f190da35a4023c22be637",
          "topics": [
            "0xddf252ad1be2c89b69c2b068fc378daa952ba7f163c4a11628f55a4df523b3ef",
            "0x0000000000000000000000006f2f79720c81631d3a0fe8e19c96f3cebd56519a",
            "0x0000000000000000000000001211a2dd0d01848dc4042a7a354cb8a4c51df594"
          ],
          "data": "0x0000000000000000000000000000000000000000000000000000000002625a00",
          "blockHash": "0x52ee0beca8c724a0dab35289fcf1cfd9a8456f5e92a194c82b51fc2b1b8f12a3",
          "blockNumber": "0x5b60b3a",
          "transactionHash": "0xa5a59a4b1db2e072a434d37ead292be86fcee8582a06a7448992d856e0e7078b",
          "transactionIndex": "0x2",
          "logIndex": "0x5",
          "removed": false
        },
        {
          "address": "0x601611dbf6b8916c5c5445f536ba16b58782edcf",
          "topics": [
            "0xe4f48c240d3b994948aa54f3e2f5fca59263dfe1d52b6e4cf39a5d249b5ccb65",
            "0x0000000000000000000000000000000000000000000000000000000000000000",
            "0x0000000000000000000000000000000000000000000000000000000000000000",
            "0x0000000000000000000000000000000000000000000000000000000000000005"
          ],
          "data": "0x",
          "blockHash": "0x52ee0beca8c724a0dab35289fcf1cfd9a8456f5e92a194c82b51fc2b1b8f12a3",
          "blockNumber": "0x5b60b3a",
          "transactionHash": "0xa5a59a4b1db2e072a434d37ead292be86fcee8582a06a7448992d856e0e7078b",
          "transactionIndex": "0x2",
          "logIndex": "0x6",
          "removed": false
        },
        {
          "address": "0x6f2f79720c81631d3a0fe8e19c96f3cebd56519a",
          "topics": [
            "0x9d223dd987b9b80ed14cb80350a9052082a4b69610e6c53c073062dd02ee70ea"
          ],
          "data": "0x40ab8d8b13eb5ef270c65eb4d4917b5039e670bf034580be23ab94424f94e54c0000000000000000000000000000000000000000000000000000000000000005000000000000000000000000000000000000000000000000000000000000006000000000000000000000000000000000000000000000000000000000000000063432313631340000000000000000000000000000000000000000000000000000",
          "blockHash": "0x52ee0beca8c724a0dab35289fcf1cfd9a8456f5e92a194c82b51fc2b1b8f12a3",
          "blockNumber": "0x5b60b3a",
          "transactionHash": "0xa5a59a4b1db2e072a434d37ead292be86fcee8582a06a7448992d856e0e7078b",
          "transactionIndex": "0x2",
          "logIndex": "0x7",
          "removed": false
        }
      ],
      "logsBloom": "0x20000000000000000004000000000000000004000000000000020000000000000000000000000000000000001000000000000000000000800000000000200000000010000000000000000008020000000000000000000010000000000000000000000000020000000000000000000800000000000000040000000011000000000000000200000000400000000000041000000800000000000100000000000040020008000000000000040000000002000000000000000000000000000010000000000002000000400002000000000000000000001000000000000000000020000010000000000000000000000000000000000000000000020000000000000000",
      "type": "0x2",
      "transactionHash": "0xa5a59a4b1db2e072a434d37ead292be86fcee8582a06a7448992d856e0e7078b",
      "transactionIndex": "0x2",
      "blockHash": "0x52ee0beca8c724a0dab35289fcf1cfd9a8456f5e92a194c82b51fc2b1b8f12a3",
      "blockNumber": "0x5b60b3a",
      "gasUsed": "0x625a9",
      "effectiveGasPrice": "0x5f5e100",
      "from": "0xe62ab4d111f968660c6b2188046f9b9ba53c4bae",
      "to": "0x6f2f79720c81631d3a0fe8e19c96f3cebd56519a",
      "contractAddress": null,
      "gasUsedForL1": "0x2e79",
      "l1BlockNumber": "0x6b7692"
    }
  ],
  "libraries": [],
  "pending": [],
  "returns": {},
  "timestamp": 1731157184,
  "chain": 421614,
  "commit": "ac6d4a5e"
}