{
  "transactions": [
    {
      "hash": "0xf56409728b84e52aeb4320921ec657c7af554c6fb68e73f273f9c9f3a9a7ac40",
      "transactionType": "CALL",
      "contractName": "CTMRWA001X",
      "contractAddress": "0xb41c8b53ea014188ba6777233e04efddbf4877b1",
      "function": "mintNewTokenValueLocal(address,uint256,uint256,uint256,uint256)",
      "arguments": [
        "0xe62Ab4D111f968660C6B2188046F9B9bA53C4Bae",
        "0",
        "0",
        "1450",
        "114908704033570776358027907357572286845893233464317984709423197573067815841049"
      ],
      "transaction": {
        "from": "0xe62ab4d111f968660c6b2188046f9b9ba53c4bae",
        "to": "0xb41c8b53ea014188ba6777233e04efddbf4877b1",
        "gas": "0x881b4",
        "value": "0x0",
        "input": "0xd299e54a000000000000000000000000e62ab4d111f968660c6b2188046f9b9ba53c4bae0000000000000000000000000000000000000000000000000000000000000000000000000000000000000000000000000000000000000000000000000000000000000000000000000000000000000000000000000000000000000000000005aafe0c058db03bc9f82a333ab40edc1b613c98e4070a5e26d4c7073c4fd3b4ed19",
        "nonce": "0x2ad",
        "chainId": "0x66eee"
      },
      "additionalContracts": [],
      "isFixedGasLimit": false
    },
    {
      "hash": "0x1d58fc7df20357b63b7385e8ae335e0b7ec2608a87964599e807cae9dd627473",
      "transactionType": "CALL",
      "contractName": "CTMRWA001X",
      "contractAddress": "0xb41c8b53ea014188ba6777233e04efddbf4877b1",
      "function": "deployAllCTMRWA001X(bool,uint256,uint256,uint256,string,string,uint8,string,string[],string)",
      "arguments": [
        "false",
        "114908704033570776358027907357572286845893233464317984709423197573067815841049",
        "1",
        "1",
        "Selqui SQ1",
        "SQ1",
        "18",
        "/Selqui",
        "[200810]",
        "0x1ee4ba474da815f728df08f0147defac07f0bab3"
      ],
      "transaction": {
        "from": "0xe62ab4d111f968660c6b2188046f9b9ba53c4bae",
        "to": "0xb41c8b53ea014188ba6777233e04efddbf4877b1",
        "gas": "0x9eaab",
        "value": "0x0",
        "input": "0xa3d8f8500000000000000000000000000000000000000000000000000000000000000000fe0c058db03bc9f82a333ab40edc1b613c98e4070a5e26d4c7073c4fd3b4ed190000000000000000000000000000000000000000000000000000000000000001000000000000000000000000000000000000000000000000000000000000000100000000000000000000000000000000000000000000000000000000000001400000000000000000000000000000000000000000000000000000000000000180000000000000000000000000000000000000000000000000000000000000001200000000000000000000000000000000000000000000000000000000000001c000000000000000000000000000000000000000000000000000000000000002000000000000000000000000000000000000000000000000000000000000000280000000000000000000000000000000000000000000000000000000000000000a53656c71756920535131000000000000000000000000000000000000000000000000000000000000000000000000000000000000000000000000000000000003535131000000000000000000000000000000000000000000000000000000000000000000000000000000000000000000000000000000000000000000000000072f53656c717569000000000000000000000000000000000000000000000000000000000000000000000000000000000000000000000000000000000000000001000000000000000000000000000000000000000000000000000000000000002000000000000000000000000000000000000000000000000000000000000000063230303831300000000000000000000000000000000000000000000000000000000000000000000000000000000000000000000000000000000000000000002a30783165653462613437346461383135663732386466303866303134376465666163303766306261623300000000000000000000000000000000000000000000",
        "nonce": "0x2ae",
        "chainId": "0x66eee"
      },
      "additionalContracts": [],
      "isFixedGasLimit": false
    }
  ],
  "receipts": [
    {
      "status": "0x1",
      "cumulativeGasUsed": "0x676a9",
      "logs": [
        {
          "address": "0x0a824a953e067595fed22ed580ec8798152b726a",
          "topics": [
            "0xe4f48c240d3b994948aa54f3e2f5fca59263dfe1d52b6e4cf39a5d249b5ccb65",
            "0x0000000000000000000000000000000000000000000000000000000000000000",
            "0x0000000000000000000000000000000000000000000000000000000000000000",
            "0x0000000000000000000000000000000000000000000000000000000000000000"
          ],
          "data": "0x",
          "blockHash": "0x0dd3877447866ea624bfa5fcfc519e6b454f4b51bb1421ee0edd70a082bc59ae",
          "blockNumber": "0x5974077",
          "transactionHash": "0xf56409728b84e52aeb4320921ec657c7af554c6fb68e73f273f9c9f3a9a7ac40",
          "transactionIndex": "0x1",
          "logIndex": "0x0",
          "removed": false
        },
        {
          "address": "0x0a824a953e067595fed22ed580ec8798152b726a",
          "topics": [
            "0xddf252ad1be2c89b69c2b068fc378daa952ba7f163c4a11628f55a4df523b3ef",
            "0x0000000000000000000000000000000000000000000000000000000000000000",
            "0x000000000000000000000000e62ab4d111f968660c6b2188046f9b9ba53c4bae",
            "0x0000000000000000000000000000000000000000000000000000000000000001"
          ],
          "data": "0x",
          "blockHash": "0x0dd3877447866ea624bfa5fcfc519e6b454f4b51bb1421ee0edd70a082bc59ae",
          "blockNumber": "0x5974077",
          "transactionHash": "0xf56409728b84e52aeb4320921ec657c7af554c6fb68e73f273f9c9f3a9a7ac40",
          "transactionIndex": "0x1",
          "logIndex": "0x1",
          "removed": false
        },
        {
          "address": "0x0a824a953e067595fed22ed580ec8798152b726a",
          "topics": [
            "0xe4f48c240d3b994948aa54f3e2f5fca59263dfe1d52b6e4cf39a5d249b5ccb65",
            "0x0000000000000000000000000000000000000000000000000000000000000001",
            "0x0000000000000000000000000000000000000000000000000000000000000000",
            "0x0000000000000000000000000000000000000000000000000000000000000000"
          ],
          "data": "0x",
          "blockHash": "0x0dd3877447866ea624bfa5fcfc519e6b454f4b51bb1421ee0edd70a082bc59ae",
          "blockNumber": "0x5974077",
          "transactionHash": "0xf56409728b84e52aeb4320921ec657c7af554c6fb68e73f273f9c9f3a9a7ac40",
          "transactionIndex": "0x1",
          "logIndex": "0x2",
          "removed": false
        },
        {
          "address": "0x0a824a953e067595fed22ed580ec8798152b726a",
          "topics": [
            "0x0b2aac84f3ec956911fd78eae5311062972ff949f38412e8da39069d9f068cc6",
            "0x0000000000000000000000000000000000000000000000000000000000000000",
            "0x0000000000000000000000000000000000000000000000000000000000000001"
          ],
          "data": "0x00000000000000000000000000000000000000000000000000000000000005aa",
          "blockHash": "0x0dd3877447866ea624bfa5fcfc519e6b454f4b51bb1421ee0edd70a082bc59ae",
          "blockNumber": "0x5974077",
          "transactionHash": "0xf56409728b84e52aeb4320921ec657c7af554c6fb68e73f273f9c9f3a9a7ac40",
          "transactionIndex": "0x1",
          "logIndex": "0x3",
          "removed": false
        }
      ],
      "logsBloom": "0x20000000000000000004000000000000000000000000001000000000000000000000000000000000000000000000000000000000000000000000000000040000000000000000000000000008000000000000000000040000000000000000000000000000020000040000000000000800000000000000000200000010000000000000000000000000400000000000040000000000000000000000000000000000000000000000000000000000000002000000000000000000000000000000000000000002000000000002800000000000000000000000000000000000000060000000000000000000000000000000000200000000000001000000000000000000",
      "type": "0x2",
      "transactionHash": "0xf56409728b84e52aeb4320921ec657c7af554c6fb68e73f273f9c9f3a9a7ac40",
      "transactionIndex": "0x1",
      "blockHash": "0x0dd3877447866ea624bfa5fcfc519e6b454f4b51bb1421ee0edd70a082bc59ae",
      "blockNumber": "0x5974077",
      "gasUsed": "0x676a9",
      "effectiveGasPrice": "0x5f5e100",
      "from": "0xe62ab4d111f968660c6b2188046f9b9ba53c4bae",
      "to": "0xb41c8b53ea014188ba6777233e04efddbf4877b1",
      "contractAddress": null,
      "gasUsedForL1": "0xc0a",
      "l1BlockNumber": "0x6ac615"
    },
    {
      "status": "0x1",
      "cumulativeGasUsed": "0x789e6",
      "logs": [
        {
          "address": "0x770c70d44c0c7b5b7d805077b66daadc00480fbc",
          "topics": [
            "0x88ca677ce66cb94eb6b03d7e06b1735c23eafde3090030bf7fb84711690a287e",
            "0x000000000000000000000000000000000000000000000000000000000000002d",
            "0x599c8b5be8ed1648fb8e3346da3d3eaeabb6570745cdcd3f2a719e19d92607b6"
          ],
          "data": "0x000000000000000000000000b41c8b53ea014188ba6777233e04efddbf4877b100000000000000000000000000000000000000000000000000000000000000a000000000000000000000000000000000000000000000000000000000000000e00000000000000000000000000000000000000000000000000000000000000140000000000000000000000000000000000000000000000000000000000000042000000000000000000000000000000000000000000000000000000000000000063230303831300000000000000000000000000000000000000000000000000000000000000000000000000000000000000000000000000000000000000000002a3078666332623636333464633439626134623335333534306633343430353037323463393332333539610000000000000000000000000000000000000000000000000000000000000000000000000000000000000000000000000000000002a43d9ab49f0000000000000000000000000000000000000000000000000000000000000120fe0c058db03bc9f82a333ab40edc1b613c98e4070a5e26d4c7073c4fd3b4ed1900000000000000000000000000000000000000000000000000000000000000010000000000000000000000000000000000000000000000000000000000000001000000000000000000000000000000000000000000000000000000000000018000000000000000000000000000000000000000000000000000000000000001c0000000000000000000000000000000000000000000000000000000000000001200000000000000000000000000000000000000000000000000000000000002000000000000000000000000000000000000000000000000000000000000000240000000000000000000000000000000000000000000000000000000000000002a30786536326162346431313166393638363630633662323138383034366639623962613533633462616500000000000000000000000000000000000000000000000000000000000000000000000000000000000000000000000000000000000a53656c71756920535131000000000000000000000000000000000000000000000000000000000000000000000000000000000000000000000000000000000003535131000000000000000000000000000000000000000000000000000000000000000000000000000000000000000000000000000000000000000000000000072f53656c71756900000000000000000000000000000000000000000000000000000000000000000000000000000000000000000000000000000000000000002a30783061383234613935336530363735393566656432326564353830656338373938313532623732366100000000000000000000000000000000000000000000000000000000000000000000000000000000000000000000000000000000000000000000000000000000000000000000000000000000000000000000",
          "blockHash": "0x684f03dabee455812641bc43da8c21b98f2102ac6cc7070be19e0c62bcbb6cfb",
          "blockNumber": "0x5974095",
          "transactionHash": "0x1d58fc7df20357b63b7385e8ae335e0b7ec2608a87964599e807cae9dd627473",
          "transactionIndex": "0x1",
          "logIndex": "0x0",
          "removed": false
        }
      ],
      "logsBloom": "0x00000000000000000000000000000000000001000000000000000000400000000000000000000000000000000004000000000000000000000000008400000000000000000000000000000040000000000000000000000000000000000000000000000000000000000000008000000000000000000000000000000000000000000000000000000000000000000000000000000000000000000000000000000000000000000000000000000000000000000000002000000000000010000000000000000000000000000000000000000000000000000000000000000000400000000000000400000000000000000000000400000000000000000000000000000000",
      "type": "0x2",
      "transactionHash": "0x1d58fc7df20357b63b7385e8ae335e0b7ec2608a87964599e807cae9dd627473",
      "transactionIndex": "0x1",
      "blockHash": "0x684f03dabee455812641bc43da8c21b98f2102ac6cc7070be19e0c62bcbb6cfb",
      "blockNumber": "0x5974095",
      "gasUsed": "0x789e6",
      "effectiveGasPrice": "0x5f5e100",
      "from": "0xe62ab4d111f968660c6b2188046f9b9ba53c4bae",
      "to": "0xb41c8b53ea014188ba6777233e04efddbf4877b1",
      "contractAddress": null,
      "gasUsedForL1": "0x1076",
      "l1BlockNumber": "0x6ac615"
    }
  ],
  "libraries": [],
  "pending": [],
  "returns": {},
  "timestamp": 1730558022,
  "chain": 421614,
  "commit": "34a11392"
}