{
  "transactions": [
    {
      "hash": "0x0de591304ffaea4dc31399a69f6e65bd44ef4560e0462c37b41ef675b2b313e7",
      "transactionType": "CALL",
      "contractName": "CTMRWA001X",
      "contractAddress": "0x9dc772b55e95a630031ebe431706d105af01cf03",
      "function": "transferFromX(uint256,string,string,uint256,uint256,string)",
      "arguments": [
        "1",
        "0xe62ab4d111f968660c6b2188046f9b9ba53c4bae",
        "97",
        "50",
        "22635303189685810603774341943740380258832277309368089736675155746122815957883",
        "0x92829288c6aa874c1a0f190da35a4023c22be637"
      ],
      "transaction": {
        "from": "0xe62ab4d111f968660c6b2188046f9b9ba53c4bae",
        "to": "0x9dc772b55e95a630031ebe431706d105af01cf03",
        "gas": "0x9365b",
        "value": "0x0",
        "input": "0xef69d6b2000000000000000000000000000000000000000000000000000000000000000100000000000000000000000000000000000000000000000000000000000000c000000000000000000000000000000000000000000000000000000000000001200000000000000000000000000000000000000000000000000000000000000032320b20aa2379772f4e6f8b56eb8ee31d62564d19349bdf64e3d8fb942742eb7b0000000000000000000000000000000000000000000000000000000000000160000000000000000000000000000000000000000000000000000000000000002a3078653632616234643131316639363836363063366232313838303436663962396261353363346261650000000000000000000000000000000000000000000000000000000000000000000000000000000000000000000000000000000000023937000000000000000000000000000000000000000000000000000000000000000000000000000000000000000000000000000000000000000000000000002a30783932383239323838633661613837346331613066313930646133356134303233633232626536333700000000000000000000000000000000000000000000",
        "nonce": "0x30a",
        "chainId": "0x66eee"
      },
      "additionalContracts": [],
      "isFixedGasLimit": false
    }
  ],
  "receipts": [
    {
      "status": "0x1",
      "cumulativeGasUsed": "0x66a09",
      "logs": [
        {
          "address": "0x92829288c6aa874c1a0f190da35a4023c22be637",
          "topics": [
            "0x8c5be1e5ebec7d5bd14f71427d1e84f3dd0314c0f7b2291e5b200ac8c7c3b925",
            "0x000000000000000000000000e62ab4d111f968660c6b2188046f9b9ba53c4bae",
            "0x0000000000000000000000009dc772b55e95a630031ebe431706d105af01cf03"
          ],
          "data": "0x000000000000000000000000000000000000000000000000000000024d7d6c80",
          "blockHash": "0xf4be0fa5e258f04c38a8e952c5eea6e7149ae45840b0327047911f76b65e3355",
          "blockNumber": "0x5a4e8b1",
          "transactionHash": "0x0de591304ffaea4dc31399a69f6e65bd44ef4560e0462c37b41ef675b2b313e7",
          "transactionIndex": "0x1",
          "logIndex": "0x0",
          "removed": false
        },
        {
          "address": "0x92829288c6aa874c1a0f190da35a4023c22be637",
          "topics": [
            "0xddf252ad1be2c89b69c2b068fc378daa952ba7f163c4a11628f55a4df523b3ef",
            "0x000000000000000000000000e62ab4d111f968660c6b2188046f9b9ba53c4bae",
            "0x0000000000000000000000009dc772b55e95a630031ebe431706d105af01cf03"
          ],
          "data": "0x0000000000000000000000000000000000000000000000000000000000989680",
          "blockHash": "0xf4be0fa5e258f04c38a8e952c5eea6e7149ae45840b0327047911f76b65e3355",
          "blockNumber": "0x5a4e8b1",
          "transactionHash": "0x0de591304ffaea4dc31399a69f6e65bd44ef4560e0462c37b41ef675b2b313e7",
          "transactionIndex": "0x1",
          "logIndex": "0x1",
          "removed": false
        },
        {
          "address": "0x92829288c6aa874c1a0f190da35a4023c22be637",
          "topics": [
            "0x8c5be1e5ebec7d5bd14f71427d1e84f3dd0314c0f7b2291e5b200ac8c7c3b925",
            "0x0000000000000000000000009dc772b55e95a630031ebe431706d105af01cf03",
            "0x0000000000000000000000009068f274555af3cd0a934dbcf1c56e7b83ad450a"
          ],
          "data": "0x0000000000000000000000000000000000000000000000000000000000989680",
          "blockHash": "0xf4be0fa5e258f04c38a8e952c5eea6e7149ae45840b0327047911f76b65e3355",
          "blockNumber": "0x5a4e8b1",
          "transactionHash": "0x0de591304ffaea4dc31399a69f6e65bd44ef4560e0462c37b41ef675b2b313e7",
          "transactionIndex": "0x1",
          "logIndex": "0x2",
          "removed": false
        },
        {
          "address": "0x92829288c6aa874c1a0f190da35a4023c22be637",
          "topics": [
            "0x8c5be1e5ebec7d5bd14f71427d1e84f3dd0314c0f7b2291e5b200ac8c7c3b925",
            "0x0000000000000000000000009dc772b55e95a630031ebe431706d105af01cf03",
            "0x0000000000000000000000009068f274555af3cd0a934dbcf1c56e7b83ad450a"
          ],
          "data": "0x0000000000000000000000000000000000000000000000000000000000000000",
          "blockHash": "0xf4be0fa5e258f04c38a8e952c5eea6e7149ae45840b0327047911f76b65e3355",
          "blockNumber": "0x5a4e8b1",
          "transactionHash": "0x0de591304ffaea4dc31399a69f6e65bd44ef4560e0462c37b41ef675b2b313e7",
          "transactionIndex": "0x1",
          "logIndex": "0x3",
          "removed": false
        },
        {
          "address": "0x92829288c6aa874c1a0f190da35a4023c22be637",
          "topics": [
            "0xddf252ad1be2c89b69c2b068fc378daa952ba7f163c4a11628f55a4df523b3ef",
            "0x0000000000000000000000009dc772b55e95a630031ebe431706d105af01cf03",
            "0x0000000000000000000000009068f274555af3cd0a934dbcf1c56e7b83ad450a"
          ],
          "data": "0x0000000000000000000000000000000000000000000000000000000000989680",
          "blockHash": "0xf4be0fa5e258f04c38a8e952c5eea6e7149ae45840b0327047911f76b65e3355",
          "blockNumber": "0x5a4e8b1",
          "transactionHash": "0x0de591304ffaea4dc31399a69f6e65bd44ef4560e0462c37b41ef675b2b313e7",
          "transactionIndex": "0x1",
          "logIndex": "0x4",
          "removed": false
        },
        {
          "address": "0x770c70d44c0c7b5b7d805077b66daadc00480fbc",
          "topics": [
            "0x88ca677ce66cb94eb6b03d7e06b1735c23eafde3090030bf7fb84711690a287e",
            "0x000000000000000000000000000000000000000000000000000000000000002d",
            "0x9b1dcac5d28ce82ce96e6b58b008fedb2907d6095003ee7b5777b787a1f74c3c"
          ],
          "data": "0x0000000000000000000000009dc772b55e95a630031ebe431706d105af01cf0300000000000000000000000000000000000000000000000000000000000000a000000000000000000000000000000000000000000000000000000000000000e00000000000000000000000000000000000000000000000000000000000000140000000000000000000000000000000000000000000000000000000000000038000000000000000000000000000000000000000000000000000000000000000023937000000000000000000000000000000000000000000000000000000000000000000000000000000000000000000000000000000000000000000000000002a307836366237313963343839313933353934633631373830316536373131393935396364313562363361000000000000000000000000000000000000000000000000000000000000000000000000000000000000000000000000000000000204304194d1320b20aa2379772f4e6f8b56eb8ee31d62564d19349bdf64e3d8fb942742eb7b00000000000000000000000000000000000000000000000000000000000000e0000000000000000000000000000000000000000000000000000000000000014000000000000000000000000000000000000000000000000000000000000000010000000000000000000000000000000000000000000000000000000000000000000000000000000000000000000000000000000000000000000000000000003200000000000000000000000000000000000000000000000000000000000001a0000000000000000000000000000000000000000000000000000000000000002a30786536326162346431313166393638363630633662323138383034366639623962613533633462616500000000000000000000000000000000000000000000000000000000000000000000000000000000000000000000000000000000002a30786536326162346431313166393638363630633662323138383034366639623962613533633462616500000000000000000000000000000000000000000000000000000000000000000000000000000000000000000000000000000000002a30783738396337643239393932663039313136666163623764626635363566646535333136313061666600000000000000000000000000000000000000000000000000000000000000000000000000000000000000000000000000000000000000000000000000000000000000000000000000000000000000000000",
          "blockHash": "0xf4be0fa5e258f04c38a8e952c5eea6e7149ae45840b0327047911f76b65e3355",
          "blockNumber": "0x5a4e8b1",
          "transactionHash": "0x0de591304ffaea4dc31399a69f6e65bd44ef4560e0462c37b41ef675b2b313e7",
          "transactionIndex": "0x1",
          "logIndex": "0x5",
          "removed": false
        }
      ],
      "logsBloom": "0x20000000000000000004000000000000000021000000000800000000400000000000000000000000000020001000000000000000000000000000008400200000000000000000000000000048000000000000000000000000000000000000000000000000000000004000008000000000800000000000000000000010000000000000000400000000000000000000040000000000000000000000000000000040020000000000000000400000000000000000002000000000000010000000000000000002000000000000000000000000000000001000000000000000400000000010000000000000000000000000000000000000020000000002000000000000",
      "type": "0x2",
      "transactionHash": "0x0de591304ffaea4dc31399a69f6e65bd44ef4560e0462c37b41ef675b2b313e7",
      "transactionIndex": "0x1",
      "blockHash": "0xf4be0fa5e258f04c38a8e952c5eea6e7149ae45840b0327047911f76b65e3355",
      "blockNumber": "0x5a4e8b1",
      "gasUsed": "0x66a09",
      "effectiveGasPrice": "0x5f5e100",
      "from": "0xe62ab4d111f968660c6b2188046f9b9ba53c4bae",
      "to": "0x9dc772b55e95a630031ebe431706d105af01cf03",
      "contractAddress": null,
      "gasUsedForL1": "0x171d",
      "l1BlockNumber": "0x6b19f0"
    }
  ],
  "libraries": [],
  "pending": [],
  "returns": {},
  "timestamp": 1730837465,
  "chain": 421614,
  "commit": "923fb933"
}