{
  "transactions": [
    {
      "hash": "0x9a0f6c775e5fad4a9b8279e3706a0aa255468003bf0461306c616354ff0ca352",
      "transactionType": "CALL",
      "contractName": null,
      "contractAddress": "0x92829288c6aa874c1a0f190da35a4023c22be637",
      "function": "approve(address,uint256)",
      "arguments": [
        "0x9DC772b55e95A630031EBe431706D105af01Cf03",
        "10000000000"
      ],
      "transaction": {
        "from": "0xe62ab4d111f968660c6b2188046f9b9ba53c4bae",
        "to": "0x92829288c6aa874c1a0f190da35a4023c22be637",
        "gas": "0x95a4",
        "value": "0x0",
        "input": "0x095ea7b30000000000000000000000009dc772b55e95a630031ebe431706d105af01cf0300000000000000000000000000000000000000000000000000000002540be400",
        "nonce": "0x343",
        "chainId": "0x66eee"
      },
      "additionalContracts": [],
      "isFixedGasLimit": false
    },
    {
      "hash": "0x4c6bbbc7d6ee7b5ba0e396a8ca27917d1ad86fe25e63d6b45a7ba44e1c322d4a",
      "transactionType": "CALL",
      "contractName": "CTMRWA001X",
      "contractAddress": "0x9dc772b55e95a630031ebe431706d105af01cf03",
      "function": "mintNewTokenValueLocal(address,uint256,uint256,uint256,uint256)",
      "arguments": [
        "0xe62Ab4D111f968660C6B2188046F9B9bA53C4Bae",
        "0",
        "0",
        "1450",
        "22635303189685810603774341943740380258832277309368089736675155746122815957883"
      ],
      "transaction": {
        "from": "0xe62ab4d111f968660c6b2188046f9b9ba53c4bae",
        "to": "0x9dc772b55e95a630031ebe431706d105af01cf03",
        "gas": "0x7ac82",
        "value": "0x0",
        "input": "0xd299e54a000000000000000000000000e62ab4d111f968660c6b2188046f9b9ba53c4bae0000000000000000000000000000000000000000000000000000000000000000000000000000000000000000000000000000000000000000000000000000000000000000000000000000000000000000000000000000000000000000000005aa320b20aa2379772f4e6f8b56eb8ee31d62564d19349bdf64e3d8fb942742eb7b",
        "nonce": "0x344",
        "chainId": "0x66eee"
      },
      "additionalContracts": [],
      "isFixedGasLimit": false
    },
    {
      "hash": "0x47602f1de5cc8efb33f0afe0c4b64f6ddc370a7a29103b4999dcfb520c5f52df",
      "transactionType": "CALL",
      "contractName": "CTMRWA001X",
      "contractAddress": "0x9dc772b55e95a630031ebe431706d105af01cf03",
      "function": "deployAllCTMRWA001X(bool,uint256,uint256,uint256,string,string,uint8,string,string[],string)",
      "arguments": [
        "false",
        "22635303189685810603774341943740380258832277309368089736675155746122815957883",
        "1",
        "1",
        "Selqui SQ1",
        "SQ1",
        "18",
        "GFLD",
        "[97]",
        "0x92829288c6aa874c1a0f190da35a4023c22be637"
      ],
      "transaction": {
        "from": "0xe62ab4d111f968660c6b2188046f9b9ba53c4bae",
        "to": "0x9dc772b55e95a630031ebe431706d105af01cf03",
        "gas": "0xaadeb",
        "value": "0x0",
        "input": "0xa3d8f8500000000000000000000000000000000000000000000000000000000000000000320b20aa2379772f4e6f8b56eb8ee31d62564d19349bdf64e3d8fb942742eb7b0000000000000000000000000000000000000000000000000000000000000001000000000000000000000000000000000000000000000000000000000000000100000000000000000000000000000000000000000000000000000000000001400000000000000000000000000000000000000000000000000000000000000180000000000000000000000000000000000000000000000000000000000000001200000000000000000000000000000000000000000000000000000000000001c000000000000000000000000000000000000000000000000000000000000002000000000000000000000000000000000000000000000000000000000000000280000000000000000000000000000000000000000000000000000000000000000a53656c717569205351310000000000000000000000000000000000000000000000000000000000000000000000000000000000000000000000000000000000035351310000000000000000000000000000000000000000000000000000000000000000000000000000000000000000000000000000000000000000000000000447464c44000000000000000000000000000000000000000000000000000000000000000000000000000000000000000000000000000000000000000000000001000000000000000000000000000000000000000000000000000000000000002000000000000000000000000000000000000000000000000000000000000000023937000000000000000000000000000000000000000000000000000000000000000000000000000000000000000000000000000000000000000000000000002a30783932383239323838633661613837346331613066313930646133356134303233633232626536333700000000000000000000000000000000000000000000",
        "nonce": "0x345",
        "chainId": "0x66eee"
      },
      "additionalContracts": [],
      "isFixedGasLimit": false
    }
  ],
  "receipts": [
    {
      "status": "0x1",
      "cumulativeGasUsed": "0x71c0",
      "logs": [
        {
          "address": "0x92829288c6aa874c1a0f190da35a4023c22be637",
          "topics": [
            "0x8c5be1e5ebec7d5bd14f71427d1e84f3dd0314c0f7b2291e5b200ac8c7c3b925",
            "0x000000000000000000000000e62ab4d111f968660c6b2188046f9b9ba53c4bae",
            "0x0000000000000000000000009dc772b55e95a630031ebe431706d105af01cf03"
          ],
          "data": "0x00000000000000000000000000000000000000000000000000000002540be400",
          "blockHash": "0x48a17edf99a940fb9a086396233f1dc9001bd013880ceb3df6bfa6f60f2230e4",
          "blockNumber": "0x5b2dd78",
          "transactionHash": "0x9a0f6c775e5fad4a9b8279e3706a0aa255468003bf0461306c616354ff0ca352",
          "transactionIndex": "0x1",
          "logIndex": "0x0",
          "removed": false
        }
      ],
      "logsBloom": "0x20000000000000000004000000000000000000000000000000000000000000000000000000000000000020001000000000000000000000000000000000200000000000000000000000000000000000000000000000000000000000000000000000000000000000000000000000000000000000000000000000000000000000000000000000000000000000000000040000000000000000000000000000000040020000000000000000400000000000000000000000000000000000000000000000000000000000000000000000000000000000001000000000000000000000000010000000000000000000000000000000000000000000000002000000000000",
      "type": "0x2",
      "transactionHash": "0x9a0f6c775e5fad4a9b8279e3706a0aa255468003bf0461306c616354ff0ca352",
      "transactionIndex": "0x1",
      "blockHash": "0x48a17edf99a940fb9a086396233f1dc9001bd013880ceb3df6bfa6f60f2230e4",
      "blockNumber": "0x5b2dd78",
      "gasUsed": "0x71c0",
      "effectiveGasPrice": "0x5f5e100",
      "from": "0xe62ab4d111f968660c6b2188046f9b9ba53c4bae",
      "to": "0x92829288c6aa874c1a0f190da35a4023c22be637",
      "contractAddress": null,
      "gasUsedForL1": "0x0",
      "l1BlockNumber": "0x6b64e9"
    },
    {
      "status": "0x1",
      "cumulativeGasUsed": "0x5d6bd",
      "logs": [
        {
          "address": "0x789c7d29992f09116facb7dbf565fde531610aff",
          "topics": [
            "0xddf252ad1be2c89b69c2b068fc378daa952ba7f163c4a11628f55a4df523b3ef",
            "0x0000000000000000000000000000000000000000000000000000000000000000",
            "0x000000000000000000000000e62ab4d111f968660c6b2188046f9b9ba53c4bae",
            "0x0000000000000000000000000000000000000000000000000000000000000003"
          ],
          "data": "0x",
          "blockHash": "0x12e5b766f9ff206c8f928ed77895d0c744220949e437e5708cecd9912a226b30",
          "blockNumber": "0x5b2dd7c",
          "transactionHash": "0x4c6bbbc7d6ee7b5ba0e396a8ca27917d1ad86fe25e63d6b45a7ba44e1c322d4a",
          "transactionIndex": "0x1",
          "logIndex": "0x0",
          "removed": false
        },
        {
          "address": "0x789c7d29992f09116facb7dbf565fde531610aff",
          "topics": [
            "0xe4f48c240d3b994948aa54f3e2f5fca59263dfe1d52b6e4cf39a5d249b5ccb65",
            "0x0000000000000000000000000000000000000000000000000000000000000003",
            "0x0000000000000000000000000000000000000000000000000000000000000000",
            "0x0000000000000000000000000000000000000000000000000000000000000000"
          ],
          "data": "0x",
          "blockHash": "0x12e5b766f9ff206c8f928ed77895d0c744220949e437e5708cecd9912a226b30",
          "blockNumber": "0x5b2dd7c",
          "transactionHash": "0x4c6bbbc7d6ee7b5ba0e396a8ca27917d1ad86fe25e63d6b45a7ba44e1c322d4a",
          "transactionIndex": "0x1",
          "logIndex": "0x1",
          "removed": false
        },
        {
          "address": "0x789c7d29992f09116facb7dbf565fde531610aff",
          "topics": [
            "0x0b2aac84f3ec956911fd78eae5311062972ff949f38412e8da39069d9f068cc6",
            "0x0000000000000000000000000000000000000000000000000000000000000000",
            "0x0000000000000000000000000000000000000000000000000000000000000003"
          ],
          "data": "0x00000000000000000000000000000000000000000000000000000000000005aa",
          "blockHash": "0x12e5b766f9ff206c8f928ed77895d0c744220949e437e5708cecd9912a226b30",
          "blockNumber": "0x5b2dd7c",
          "transactionHash": "0x4c6bbbc7d6ee7b5ba0e396a8ca27917d1ad86fe25e63d6b45a7ba44e1c322d4a",
          "transactionIndex": "0x1",
          "logIndex": "0x2",
          "removed": false
        }
      ],
      "logsBloom": "0x20000000000000000004000000000000000000000000001000000000000000000000000000000000000000000000000000008000020000000000000000000400000000000000000000000008000000000000000000000000000000000000000000000000020000000000000000000800000000000000000000000010000000400000000000000000400000000000040000000000000000000000000000000000000000000000000000000000000002000000000000800000000000000000400000000002000000000002000000000000000000000000000000000000000020000000000000000000000000000000000200000000000001000000000000000000",
      "type": "0x2",
      "transactionHash": "0x4c6bbbc7d6ee7b5ba0e396a8ca27917d1ad86fe25e63d6b45a7ba44e1c322d4a",
      "transactionIndex": "0x1",
      "blockHash": "0x12e5b766f9ff206c8f928ed77895d0c744220949e437e5708cecd9912a226b30",
      "blockNumber": "0x5b2dd7c",
      "gasUsed": "0x5d6bd",
      "effectiveGasPrice": "0x5f5e100",
      "from": "0xe62ab4d111f968660c6b2188046f9b9ba53c4bae",
      "to": "0x9dc772b55e95a630031ebe431706d105af01cf03",
      "contractAddress": null,
      "gasUsedForL1": "0x0",
      "l1BlockNumber": "0x6b64e9"
    },
    {
      "status": "0x1",
      "cumulativeGasUsed": "0x7772a",
      "logs": [
        {
          "address": "0x92829288c6aa874c1a0f190da35a4023c22be637",
          "topics": [
            "0x8c5be1e5ebec7d5bd14f71427d1e84f3dd0314c0f7b2291e5b200ac8c7c3b925",
            "0x000000000000000000000000e62ab4d111f968660c6b2188046f9b9ba53c4bae",
            "0x0000000000000000000000009dc772b55e95a630031ebe431706d105af01cf03"
          ],
          "data": "0x000000000000000000000000000000000000000000000000000000024e160300",
          "blockHash": "0x696f22d97d303891576146494fc01cb48aa6797c8cc3f931de85fd5acf9906f7",
          "blockNumber": "0x5b2dd80",
          "transactionHash": "0x47602f1de5cc8efb33f0afe0c4b64f6ddc370a7a29103b4999dcfb520c5f52df",
          "transactionIndex": "0x1",
          "logIndex": "0x0",
          "removed": false
        },
        {
          "address": "0x92829288c6aa874c1a0f190da35a4023c22be637",
          "topics": [
            "0xddf252ad1be2c89b69c2b068fc378daa952ba7f163c4a11628f55a4df523b3ef",
            "0x000000000000000000000000e62ab4d111f968660c6b2188046f9b9ba53c4bae",
            "0x0000000000000000000000009dc772b55e95a630031ebe431706d105af01cf03"
          ],
          "data": "0x0000000000000000000000000000000000000000000000000000000005f5e100",
          "blockHash": "0x696f22d97d303891576146494fc01cb48aa6797c8cc3f931de85fd5acf9906f7",
          "blockNumber": "0x5b2dd80",
          "transactionHash": "0x47602f1de5cc8efb33f0afe0c4b64f6ddc370a7a29103b4999dcfb520c5f52df",
          "transactionIndex": "0x1",
          "logIndex": "0x1",
          "removed": false
        },
        {
          "address": "0x92829288c6aa874c1a0f190da35a4023c22be637",
          "topics": [
            "0x8c5be1e5ebec7d5bd14f71427d1e84f3dd0314c0f7b2291e5b200ac8c7c3b925",
            "0x0000000000000000000000009dc772b55e95a630031ebe431706d105af01cf03",
            "0x0000000000000000000000009068f274555af3cd0a934dbcf1c56e7b83ad450a"
          ],
          "data": "0x0000000000000000000000000000000000000000000000000000000005f5e100",
          "blockHash": "0x696f22d97d303891576146494fc01cb48aa6797c8cc3f931de85fd5acf9906f7",
          "blockNumber": "0x5b2dd80",
          "transactionHash": "0x47602f1de5cc8efb33f0afe0c4b64f6ddc370a7a29103b4999dcfb520c5f52df",
          "transactionIndex": "0x1",
          "logIndex": "0x2",
          "removed": false
        },
        {
          "address": "0x92829288c6aa874c1a0f190da35a4023c22be637",
          "topics": [
            "0x8c5be1e5ebec7d5bd14f71427d1e84f3dd0314c0f7b2291e5b200ac8c7c3b925",
            "0x0000000000000000000000009dc772b55e95a630031ebe431706d105af01cf03",
            "0x0000000000000000000000009068f274555af3cd0a934dbcf1c56e7b83ad450a"
          ],
          "data": "0x0000000000000000000000000000000000000000000000000000000000000000",
          "blockHash": "0x696f22d97d303891576146494fc01cb48aa6797c8cc3f931de85fd5acf9906f7",
          "blockNumber": "0x5b2dd80",
          "transactionHash": "0x47602f1de5cc8efb33f0afe0c4b64f6ddc370a7a29103b4999dcfb520c5f52df",
          "transactionIndex": "0x1",
          "logIndex": "0x3",
          "removed": false
        },
        {
          "address": "0x92829288c6aa874c1a0f190da35a4023c22be637",
          "topics": [
            "0xddf252ad1be2c89b69c2b068fc378daa952ba7f163c4a11628f55a4df523b3ef",
            "0x0000000000000000000000009dc772b55e95a630031ebe431706d105af01cf03",
            "0x0000000000000000000000009068f274555af3cd0a934dbcf1c56e7b83ad450a"
          ],
          "data": "0x0000000000000000000000000000000000000000000000000000000005f5e100",
          "blockHash": "0x696f22d97d303891576146494fc01cb48aa6797c8cc3f931de85fd5acf9906f7",
          "blockNumber": "0x5b2dd80",
          "transactionHash": "0x47602f1de5cc8efb33f0afe0c4b64f6ddc370a7a29103b4999dcfb520c5f52df",
          "transactionIndex": "0x1",
          "logIndex": "0x4",
          "removed": false
        },
        {
          "address": "0x770c70d44c0c7b5b7d805077b66daadc00480fbc",
          "topics": [
            "0x88ca677ce66cb94eb6b03d7e06b1735c23eafde3090030bf7fb84711690a287e",
            "0x000000000000000000000000000000000000000000000000000000000000002d",
            "0x5ac034af3c666312122c867720cf9654946c44f40ab142db808a714eca143c8b"
          ],
          "data": "0x0000000000000000000000009dc772b55e95a630031ebe431706d105af01cf0300000000000000000000000000000000000000000000000000000000000000a000000000000000000000000000000000000000000000000000000000000000e00000000000000000000000000000000000000000000000000000000000000140000000000000000000000000000000000000000000000000000000000000042000000000000000000000000000000000000000000000000000000000000000023937000000000000000000000000000000000000000000000000000000000000000000000000000000000000000000000000000000000000000000000000002a3078363662373139633438393139333539346336313738303165363731313939353963643135623633610000000000000000000000000000000000000000000000000000000000000000000000000000000000000000000000000000000002a43d9ab49f0000000000000000000000000000000000000000000000000000000000000120320b20aa2379772f4e6f8b56eb8ee31d62564d19349bdf64e3d8fb942742eb7b00000000000000000000000000000000000000000000000000000000000000010000000000000000000000000000000000000000000000000000000000000001000000000000000000000000000000000000000000000000000000000000018000000000000000000000000000000000000000000000000000000000000001c0000000000000000000000000000000000000000000000000000000000000001200000000000000000000000000000000000000000000000000000000000002000000000000000000000000000000000000000000000000000000000000000240000000000000000000000000000000000000000000000000000000000000002a30786536326162346431313166393638363630633662323138383034366639623962613533633462616500000000000000000000000000000000000000000000000000000000000000000000000000000000000000000000000000000000000a53656c717569205351310000000000000000000000000000000000000000000000000000000000000000000000000000000000000000000000000000000000035351310000000000000000000000000000000000000000000000000000000000000000000000000000000000000000000000000000000000000000000000000447464c4400000000000000000000000000000000000000000000000000000000000000000000000000000000000000000000000000000000000000000000002a30783738396337643239393932663039313136666163623764626635363566646535333136313061666600000000000000000000000000000000000000000000000000000000000000000000000000000000000000000000000000000000000000000000000000000000000000000000000000000000000000000000",
          "blockHash": "0x696f22d97d303891576146494fc01cb48aa6797c8cc3f931de85fd5acf9906f7",
          "blockNumber": "0x5b2dd80",
          "transactionHash": "0x47602f1de5cc8efb33f0afe0c4b64f6ddc370a7a29103b4999dcfb520c5f52df",
          "transactionIndex": "0x1",
          "logIndex": "0x5",
          "removed": false
        }
      ],
      "logsBloom": "0x20000000000800000004000000000000000001000000000000000000400000000000000000000000000020001000000000000000000000000000008400200000000000000000000000000048000000000000000000000000000000000000000000000000000000004000008000000000800000000000000000000010000000000000000440000000000000000000040000000000000000000000000000000040020200000000000000400000000000000000002000000000000010000000000000000002000000000000000000000000000000001000000000000000400000000010000000000000000000000000000000000000000000000002000000000000",
      "type": "0x2",
      "transactionHash": "0x47602f1de5cc8efb33f0afe0c4b64f6ddc370a7a29103b4999dcfb520c5f52df",
      "transactionIndex": "0x1",
      "blockHash": "0x696f22d97d303891576146494fc01cb48aa6797c8cc3f931de85fd5acf9906f7",
      "blockNumber": "0x5b2dd80",
      "gasUsed": "0x7772a",
      "effectiveGasPrice": "0x5f5e100",
      "from": "0xe62ab4d111f968660c6b2188046f9b9ba53c4bae",
      "to": "0x9dc772b55e95a630031ebe431706d105af01cf03",
      "contractAddress": null,
      "gasUsedForL1": "0x0",
      "l1BlockNumber": "0x6b64e9"
    }
  ],
  "libraries": [],
  "pending": [],
  "returns": {},
  "timestamp": 1731094534,
  "chain": 421614,
  "commit": "ac6d4a5e"
}