{
  "transactions": [
    {
      "hash": "0x9da0e87645f8fbb8bf70c6ed9b1856440891ade75a8a8498001a33da6a6c00ae",
      "transactionType": "CALL",
      "contractName": "CTMRWA001X",
      "contractAddress": "0x22D305a430b57a12D569f1e578B9F2f7613f92F8",
      "function": "transferFromX(uint256,string,string,uint256,uint256,string)",
      "arguments": [
        "4",
        "0xe62ab4d111f968660c6b2188046f9b9ba53c4bae",
        "97",
        "50",
        "77584703649289707259697594429131521757455372367565608163693872618853593546484",
        "0x1ee4ba474da815f728df08f0147defac07f0bab3"
      ],
      "transaction": {
        "from": "0xe62Ab4D111f968660C6B2188046F9B9bA53C4Bae",
        "to": "0x22D305a430b57a12D569f1e578B9F2f7613f92F8",
        "gas": "0x8ade2",
        "value": "0x0",
        "input": "0xef69d6b2000000000000000000000000000000000000000000000000000000000000000400000000000000000000000000000000000000000000000000000000000000c000000000000000000000000000000000000000000000000000000000000001200000000000000000000000000000000000000000000000000000000000000032ab8762d7c087244331b3f5d1e4f5a7390bc6dcc78e476024d775dd9e62547ef40000000000000000000000000000000000000000000000000000000000000160000000000000000000000000000000000000000000000000000000000000002a3078653632616234643131316639363836363063366232313838303436663962396261353363346261650000000000000000000000000000000000000000000000000000000000000000000000000000000000000000000000000000000000023937000000000000000000000000000000000000000000000000000000000000000000000000000000000000000000000000000000000000000000000000002a30783165653462613437346461383135663732386466303866303134376465666163303766306261623300000000000000000000000000000000000000000000",
        "nonce": "0x17b",
        "chainId": "0x66eee"
      },
      "additionalContracts": [],
      "isFixedGasLimit": false
    }
  ],
  "receipts": [
    {
      "status": "0x1",
      "cumulativeGasUsed": "0x76a8d",
      "logs": [
        {
          "address": "0x770c70D44C0c7b5B7D805077B66daADC00480FbC",
          "topics": [
            "0x88ca677ce66cb94eb6b03d7e06b1735c23eafde3090030bf7fb84711690a287e",
            "0x000000000000000000000000000000000000000000000000000000000000002d",
            "0x1c21ad6f5980d3fc40406f41413cbf511dc0a28b8038ba37dd860bb6b5843678"
          ],
          "data": "0x00000000000000000000000022d305a430b57a12d569f1e578b9f2f7613f92f800000000000000000000000000000000000000000000000000000000000000a000000000000000000000000000000000000000000000000000000000000000e00000000000000000000000000000000000000000000000000000000000000140000000000000000000000000000000000000000000000000000000000000032000000000000000000000000000000000000000000000000000000000000000023937000000000000000000000000000000000000000000000000000000000000000000000000000000000000000000000000000000000000000000000000002a3078663363633039343562373636663239366137666637623562353238323033373661323332326633390000000000000000000000000000000000000000000000000000000000000000000000000000000000000000000000000000000001a4304194d1ab8762d7c087244331b3f5d1e4f5a7390bc6dcc78e476024d775dd9e62547ef400000000000000000000000000000000000000000000000000000000000000e000000000000000000000000000000000000000000000000000000000000001400000000000000000000000000000000000000000000000000000000000000004000000000000000000000000000000000000000000000000000000000000000700000000000000000000000000000000000000000000000000000000000000320000000000000000000000006fddea7fc897276fe361dddf2d578a4e3479bcbe000000000000000000000000000000000000000000000000000000000000002a30786536326162346431313166393638363630633662323138383034366639623962613533633462616500000000000000000000000000000000000000000000000000000000000000000000000000000000000000000000000000000000002a30786536326162346431313166393638363630633662323138383034366639623962613533633462616500000000000000000000000000000000000000000000000000000000000000000000000000000000000000000000000000000000000000000000000000000000000000000000000000000000000000000000",
          "blockHash": "0x76eaed0143eb78b50bccfa715523fee7e306038d2743e682d144718c3ca482fb",
          "blockNumber": "0x54ba969",
          "transactionHash": "0x9da0e87645f8fbb8bf70c6ed9b1856440891ade75a8a8498001a33da6a6c00ae",
          "transactionIndex": "0x2",
          "logIndex": "0x1",
          "removed": false
        }
      ],
      "logsBloom": "0x00000000000000000000000000000000000001000000000000000000400000000000000000000000000000000000000000000000000000000000008400000000000000000000000000000040000000000000000000000000000000000000000000000000000000000000008000000000000080000000000000000000000000000000000000000000000000000000000000000000000000000000000000000000000000000000000000000000000000000000002008000000000010000000004000000000000000000000000000000000000000000000000000000000400000000000000000000000000000000000000000000000000000000000000000000000",
      "type": "0x2",
      "transactionHash": "0x9da0e87645f8fbb8bf70c6ed9b1856440891ade75a8a8498001a33da6a6c00ae",
      "transactionIndex": "0x2",
      "blockHash": "0x76eaed0143eb78b50bccfa715523fee7e306038d2743e682d144718c3ca482fb",
      "blockNumber": "0x54ba969",
      "gasUsed": "0x6588c",
      "effectiveGasPrice": "0x5f5e100",
      "from": "0xe62Ab4D111f968660C6B2188046F9B9bA53C4Bae",
      "to": "0x22D305a430b57a12D569f1e578B9F2f7613f92F8",
      "contractAddress": null,
      "gasUsedForL1": "0x15afd",
      "l1BlockNumber": "0x68f994"
    }
  ],
  "libraries": [],
  "pending": [],
  "returns": {},
  "timestamp": 1728986323,
  "chain": 421614,
  "commit": "5b540a48"
}