{
  "transactions": [
    {
      "hash": "0x71d8ce0d220766491fa9776de4b9b910f80b5e7074fa537390d634f852efd7bc",
      "transactionType": "CALL",
      "contractName": "CTMRWA001X",
      "contractAddress": "0xb41c8b53ea014188ba6777233e04efddbf4877b1",
      "function": "mintNewTokenValueLocal(address,uint256,uint256,uint256,uint256)",
      "arguments": [
        "0xe62Ab4D111f968660C6B2188046F9B9bA53C4Bae",
        "0",
        "0",
        "1450",
        "84189191537645023510194262022921602973721400810783507685233787044050297562213"
      ],
      "transaction": {
        "from": "0xe62ab4d111f968660c6b2188046f9b9ba53c4bae",
        "to": "0xb41c8b53ea014188ba6777233e04efddbf4877b1",
        "gas": "0x7e691",
        "value": "0x0",
        "input": "0xd299e54a000000000000000000000000e62ab4d111f968660c6b2188046f9b9ba53c4bae0000000000000000000000000000000000000000000000000000000000000000000000000000000000000000000000000000000000000000000000000000000000000000000000000000000000000000000000000000000000000000000005aaba2164ceba74b49a633fe49773785daecf83a8af13eeb22e8c160ca2cfb62465",
        "nonce": "0x2b5",
        "chainId": "0x66eee"
      },
      "additionalContracts": [],
      "isFixedGasLimit": false
    },
    {
      "hash": "0xfaa0e0ef1a7e28819c9e9877e5ccba3155c2e047f9f28ba0f7bd850559157c10",
      "transactionType": "CALL",
      "contractName": "CTMRWA001X",
      "contractAddress": "0xb41c8b53ea014188ba6777233e04efddbf4877b1",
      "function": "deployAllCTMRWA001X(bool,uint256,uint256,uint256,string,string,uint8,string,string[],string)",
      "arguments": [
        "false",
        "84189191537645023510194262022921602973721400810783507685233787044050297562213",
        "1",
        "1",
        "Selqui SQ1",
        "SQ1",
        "18",
        "GFLD",
        "[200810]",
        "0x1ee4ba474da815f728df08f0147defac07f0bab3"
      ],
      "transaction": {
        "from": "0xe62ab4d111f968660c6b2188046f9b9ba53c4bae",
        "to": "0xb41c8b53ea014188ba6777233e04efddbf4877b1",
        "gas": "0x9e4b8",
        "value": "0x0",
        "input": "0xa3d8f8500000000000000000000000000000000000000000000000000000000000000000ba2164ceba74b49a633fe49773785daecf83a8af13eeb22e8c160ca2cfb624650000000000000000000000000000000000000000000000000000000000000001000000000000000000000000000000000000000000000000000000000000000100000000000000000000000000000000000000000000000000000000000001400000000000000000000000000000000000000000000000000000000000000180000000000000000000000000000000000000000000000000000000000000001200000000000000000000000000000000000000000000000000000000000001c000000000000000000000000000000000000000000000000000000000000002000000000000000000000000000000000000000000000000000000000000000280000000000000000000000000000000000000000000000000000000000000000a53656c717569205351310000000000000000000000000000000000000000000000000000000000000000000000000000000000000000000000000000000000035351310000000000000000000000000000000000000000000000000000000000000000000000000000000000000000000000000000000000000000000000000447464c44000000000000000000000000000000000000000000000000000000000000000000000000000000000000000000000000000000000000000000000001000000000000000000000000000000000000000000000000000000000000002000000000000000000000000000000000000000000000000000000000000000063230303831300000000000000000000000000000000000000000000000000000000000000000000000000000000000000000000000000000000000000000002a30783165653462613437346461383135663732386466303866303134376465666163303766306261623300000000000000000000000000000000000000000000",
        "nonce": "0x2b6",
        "chainId": "0x66eee"
      },
      "additionalContracts": [],
      "isFixedGasLimit": false
    }
  ],
  "receipts": [
    {
      "status": "0x1",
      "cumulativeGasUsed": "0x9bc9e",
      "logs": [
        {
          "address": "0xe20c8f2fa8ede98a2716e8651a66fc52d6dcfa21",
          "topics": [
            "0xddf252ad1be2c89b69c2b068fc378daa952ba7f163c4a11628f55a4df523b3ef",
            "0x0000000000000000000000000000000000000000000000000000000000000000",
            "0x000000000000000000000000e62ab4d111f968660c6b2188046f9b9ba53c4bae",
            "0x0000000000000000000000000000000000000000000000000000000000000002"
          ],
          "data": "0x",
          "blockHash": "0xed34bea47a2df0f8fe1c2fd113004fd18b5fbe8839ec8c7df8f9b3b422923a0d",
          "blockNumber": "0x59b81d5",
          "transactionHash": "0x71d8ce0d220766491fa9776de4b9b910f80b5e7074fa537390d634f852efd7bc",
          "transactionIndex": "0x3",
          "logIndex": "0x2",
          "removed": false
        },
        {
          "address": "0xe20c8f2fa8ede98a2716e8651a66fc52d6dcfa21",
          "topics": [
            "0xe4f48c240d3b994948aa54f3e2f5fca59263dfe1d52b6e4cf39a5d249b5ccb65",
            "0x0000000000000000000000000000000000000000000000000000000000000002",
            "0x0000000000000000000000000000000000000000000000000000000000000000",
            "0x0000000000000000000000000000000000000000000000000000000000000000"
          ],
          "data": "0x",
          "blockHash": "0xed34bea47a2df0f8fe1c2fd113004fd18b5fbe8839ec8c7df8f9b3b422923a0d",
          "blockNumber": "0x59b81d5",
          "transactionHash": "0x71d8ce0d220766491fa9776de4b9b910f80b5e7074fa537390d634f852efd7bc",
          "transactionIndex": "0x3",
          "logIndex": "0x3",
          "removed": false
        },
        {
          "address": "0xe20c8f2fa8ede98a2716e8651a66fc52d6dcfa21",
          "topics": [
            "0x0b2aac84f3ec956911fd78eae5311062972ff949f38412e8da39069d9f068cc6",
            "0x0000000000000000000000000000000000000000000000000000000000000000",
            "0x0000000000000000000000000000000000000000000000000000000000000002"
          ],
          "data": "0x00000000000000000000000000000000000000000000000000000000000005aa",
          "blockHash": "0xed34bea47a2df0f8fe1c2fd113004fd18b5fbe8839ec8c7df8f9b3b422923a0d",
          "blockNumber": "0x59b81d5",
          "transactionHash": "0x71d8ce0d220766491fa9776de4b9b910f80b5e7074fa537390d634f852efd7bc",
          "transactionIndex": "0x3",
          "logIndex": "0x4",
          "removed": false
        }
      ],
      "logsBloom": "0x24000000000000000004000000000000000000000800001000000000000000040000000000000000000000000000000000000000000000000000000000800000000000000000000000000008000000000000000000000000000000000000000000000000020000000000000000000800000000000000000000000010000000000000000000000000400000000000040000000000000000000000000000000000000000000000000000000100000002000000000000000000000000000000000000000002000000000002000000000000000000000000000000000000000020000000000000000000000000000000000200000000008001000000000000000000",
      "type": "0x2",
      "transactionHash": "0x71d8ce0d220766491fa9776de4b9b910f80b5e7074fa537390d634f852efd7bc",
      "transactionIndex": "0x3",
      "blockHash": "0xed34bea47a2df0f8fe1c2fd113004fd18b5fbe8839ec8c7df8f9b3b422923a0d",
      "blockNumber": "0x59b81d5",
      "gasUsed": "0x601cc",
      "effectiveGasPrice": "0x5f5e100",
      "from": "0xe62ab4d111f968660c6b2188046f9b9ba53c4bae",
      "to": "0xb41c8b53ea014188ba6777233e04efddbf4877b1",
      "contractAddress": null,
      "gasUsedForL1": "0x498",
      "l1BlockNumber": "0x6ade8a"
    },
    {
      "status": "0x1",
      "cumulativeGasUsed": "0x9cd3d",
      "logs": [
        {
          "address": "0x770c70d44c0c7b5b7d805077b66daadc00480fbc",
          "topics": [
            "0x88ca677ce66cb94eb6b03d7e06b1735c23eafde3090030bf7fb84711690a287e",
            "0x000000000000000000000000000000000000000000000000000000000000002d",
            "0x53352680079bc42eed09dab5c0f3e9e7f85d1b65a16351be31bc423bd1eb63d7"
          ],
          "data": "0x000000000000000000000000b41c8b53ea014188ba6777233e04efddbf4877b100000000000000000000000000000000000000000000000000000000000000a000000000000000000000000000000000000000000000000000000000000000e00000000000000000000000000000000000000000000000000000000000000140000000000000000000000000000000000000000000000000000000000000042000000000000000000000000000000000000000000000000000000000000000063230303831300000000000000000000000000000000000000000000000000000000000000000000000000000000000000000000000000000000000000000002a3078666332623636333464633439626134623335333534306633343430353037323463393332333539610000000000000000000000000000000000000000000000000000000000000000000000000000000000000000000000000000000002a43d9ab49f0000000000000000000000000000000000000000000000000000000000000120ba2164ceba74b49a633fe49773785daecf83a8af13eeb22e8c160ca2cfb6246500000000000000000000000000000000000000000000000000000000000000010000000000000000000000000000000000000000000000000000000000000001000000000000000000000000000000000000000000000000000000000000018000000000000000000000000000000000000000000000000000000000000001c0000000000000000000000000000000000000000000000000000000000000001200000000000000000000000000000000000000000000000000000000000002000000000000000000000000000000000000000000000000000000000000000240000000000000000000000000000000000000000000000000000000000000002a30786536326162346431313166393638363630633662323138383034366639623962613533633462616500000000000000000000000000000000000000000000000000000000000000000000000000000000000000000000000000000000000a53656c717569205351310000000000000000000000000000000000000000000000000000000000000000000000000000000000000000000000000000000000035351310000000000000000000000000000000000000000000000000000000000000000000000000000000000000000000000000000000000000000000000000447464c4400000000000000000000000000000000000000000000000000000000000000000000000000000000000000000000000000000000000000000000002a30786532306338663266613865646539386132373136653836353161363666633532643664636661323100000000000000000000000000000000000000000000000000000000000000000000000000000000000000000000000000000000000000000000000000000000000000000000000000000000000000000000",
          "blockHash": "0x878b2940b8098ccd2c6da2828b8e444a381cee2789bc01353e0c123ec44554eb",
          "blockNumber": "0x59b81f4",
          "transactionHash": "0xfaa0e0ef1a7e28819c9e9877e5ccba3155c2e047f9f28ba0f7bd850559157c10",
          "transactionIndex": "0x2",
          "logIndex": "0x7",
          "removed": false
        }
      ],
      "logsBloom": "0x00000000000000000000000080000000000001000000000000000000400000000000000000000000000000000000000000000000000000000000008400000000000000000000000000000040000000000000000000000000000000000000000000000000000000000000008000000000000000000000000000000000000000000000000000000000000000000000000000020000000000000000000000000000000000000000000400000000000000000000002000000000000010000000000000000000000000000000000000000000000000000000000000000000400000000000000000000000000000000000000000000000000000000000000000000000",
      "type": "0x2",
      "transactionHash": "0xfaa0e0ef1a7e28819c9e9877e5ccba3155c2e047f9f28ba0f7bd850559157c10",
      "transactionIndex": "0x2",
      "blockHash": "0x878b2940b8098ccd2c6da2828b8e444a381cee2789bc01353e0c123ec44554eb",
      "blockNumber": "0x59b81f4",
      "gasUsed": "0x78718",
      "effectiveGasPrice": "0x5f5e100",
      "from": "0xe62ab4d111f968660c6b2188046f9b9ba53c4bae",
      "to": "0xb41c8b53ea014188ba6777233e04efddbf4877b1",
      "contractAddress": null,
      "gasUsedForL1": "0x682",
      "l1BlockNumber": "0x6ade8a"
    }
  ],
  "libraries": [],
  "pending": [],
  "returns": {},
  "timestamp": 1730641016,
  "chain": 421614,
  "commit": "34a11392"
}