{
  "transactions": [
    {
      "hash": "0xda89de329d041aa94f4f550a3b285a8d52f2e7492c5f5dc675e338be7552a0c2",
      "transactionType": "CALL",
      "contractName": "CTMRWA001X",
      "contractAddress": "0x22D305a430b57a12D569f1e578B9F2f7613f92F8",
      "function": "transferFromX(uint256,string,uint256,string,uint256,uint256,string)",
      "arguments": [
        "2",
        "0xe62ab4d111f968660c6b2188046f9b9ba53c4bae",
        "1",
        "97",
        "100",
        "77584703649289707259697594429131521757455372367565608163693872618853593546484",
        "0x1ee4ba474da815f728df08f0147defac07f0bab3"
      ],
      "transaction": {
        "from": "0xe62Ab4D111f968660C6B2188046F9B9bA53C4Bae",
        "to": "0x22D305a430b57a12D569f1e578B9F2f7613f92F8",
        "gas": "0xca83a",
        "value": "0x0",
        "input": "0xb4a4a12f000000000000000000000000000000000000000000000000000000000000000200000000000000000000000000000000000000000000000000000000000000e0000000000000000000000000000000000000000000000000000000000000000100000000000000000000000000000000000000000000000000000000000001400000000000000000000000000000000000000000000000000000000000000064ab8762d7c087244331b3f5d1e4f5a7390bc6dcc78e476024d775dd9e62547ef40000000000000000000000000000000000000000000000000000000000000180000000000000000000000000000000000000000000000000000000000000002a3078653632616234643131316639363836363063366232313838303436663962396261353363346261650000000000000000000000000000000000000000000000000000000000000000000000000000000000000000000000000000000000023937000000000000000000000000000000000000000000000000000000000000000000000000000000000000000000000000000000000000000000000000002a30783165653462613437346461383135663732386466303866303134376465666163303766306261623300000000000000000000000000000000000000000000",
        "nonce": "0x177",
        "chainId": "0x66eee"
      },
      "additionalContracts": [],
      "isFixedGasLimit": false
    }
  ],
  "receipts": [
    {
      "status": "0x1",
      "cumulativeGasUsed": "0x8e6ce",
      "logs": [
        {
          "address": "0x770c70D44C0c7b5B7D805077B66daADC00480FbC",
          "topics": [
            "0x88ca677ce66cb94eb6b03d7e06b1735c23eafde3090030bf7fb84711690a287e",
            "0x000000000000000000000000000000000000000000000000000000000000002d",
            "0xeb97f67eeba5a2ebcb3d7249ffa38125408f70d2a8c5f3fee6055f26d4128ed1"
          ],
          "data": "0x00000000000000000000000022d305a430b57a12d569f1e578b9f2f7613f92f800000000000000000000000000000000000000000000000000000000000000a000000000000000000000000000000000000000000000000000000000000000e0000000000000000000000000000000000000000000000000000000000000014000000000000000000000000000000000000000000000000000000000000003a000000000000000000000000000000000000000000000000000000000000000023937000000000000000000000000000000000000000000000000000000000000000000000000000000000000000000000000000000000000000000000000002a30786633636330393435623736366632393661376666376235623532383230333736613233323266333900000000000000000000000000000000000000000000000000000000000000000000000000000000000000000000000000000000022486fd1e99ab8762d7c087244331b3f5d1e4f5a7390bc6dcc78e476024d775dd9e62547ef400000000000000000000000000000000000000000000000000000000000001000000000000000000000000000000000000000000000000000000000000000160000000000000000000000000000000000000000000000000000000000000000200000000000000000000000000000000000000000000000000000000000000010000000000000000000000000000000000000000000000000000000000000004000000000000000000000000000000000000000000000000000000000000006400000000000000000000000000000000000000000000000000000000000001c0000000000000000000000000000000000000000000000000000000000000002a30786536326162346431313166393638363630633662323138383034366639623962613533633462616500000000000000000000000000000000000000000000000000000000000000000000000000000000000000000000000000000000002a30786536326162346431313166393638363630633662323138383034366639623962613533633462616500000000000000000000000000000000000000000000000000000000000000000000000000000000000000000000000000000000002a30783666646465613766633839373237366665333631646464663264353738613465333437396263626500000000000000000000000000000000000000000000000000000000000000000000000000000000000000000000000000000000000000000000000000000000000000000000000000000000000000000000",
          "blockHash": "0x275978e4046bd0d82e53ec0467d5de67986dee16d67f505433c8dcba78464bf2",
          "blockNumber": "0x549e7ea",
          "transactionHash": "0xda89de329d041aa94f4f550a3b285a8d52f2e7492c5f5dc675e338be7552a0c2",
          "transactionIndex": "0x1",
          "logIndex": "0x0",
          "removed": false
        }
      ],
      "logsBloom": "0x00000000000000000000000000000000000001000000000000000000400000000000000000000000000000000000000000000000000100000000008400000000000000000000200000000040000000000000000000000000000000000000000000000000000000000000008000000000000000000000000000008000000000000000000000000000000000000000000000000000000000000000000000000000000000000000000000000000000000000000002000000000000010000000000000000000000000000000000000000000000000000000000000000000400000000000000000000000000000000000000000000000000000000000000000000000",
      "type": "0x2",
      "transactionHash": "0xda89de329d041aa94f4f550a3b285a8d52f2e7492c5f5dc675e338be7552a0c2",
      "transactionIndex": "0x1",
      "blockHash": "0x275978e4046bd0d82e53ec0467d5de67986dee16d67f505433c8dcba78464bf2",
      "blockNumber": "0x549e7ea",
      "gasUsed": "0x8e6ce",
      "effectiveGasPrice": "0x5f5e100",
      "from": "0xe62Ab4D111f968660C6B2188046F9B9bA53C4Bae",
      "to": "0x22D305a430b57a12D569f1e578B9F2f7613f92F8",
      "contractAddress": null,
      "gasUsedForL1": "0x3e32a",
      "l1BlockNumber": "0x68ef85"
    }
  ],
  "libraries": [],
  "pending": [],
  "returns": {},
  "timestamp": 1728949227,
  "chain": 421614,
  "commit": "5b540a48"
}