{
  "transactions": [
    {
      "hash": "0x06b249d642dc55e4960dce5c69371fc6803ebf9be67a310e50fea7d48a027498",
      "transactionType": "CALL",
      "contractName": null,
      "contractAddress": "0x92829288c6aa874c1a0f190da35a4023c22be637",
      "function": "approve(address,uint256)",
      "arguments": [
        "0x386ed9c1a214Cc8700AF43F4a39df8c722176e01",
        "10000000000"
      ],
      "transaction": {
        "from": "0xe62ab4d111f968660c6b2188046f9b9ba53c4bae",
        "to": "0x92829288c6aa874c1a0f190da35a4023c22be637",
        "gas": "0xee2a",
        "value": "0x0",
        "input": "0x095ea7b3000000000000000000000000386ed9c1a214cc8700af43f4a39df8c722176e0100000000000000000000000000000000000000000000000000000002540be400",
        "nonce": "0x3db",
        "chainId": "0x66eee"
      },
      "additionalContracts": [],
      "isFixedGasLimit": false
    },
    {
      "hash": "0x2712e53b415ca79ed1f94a3c180ac63b0ff91645670ce34859d52331375d6c5d",
      "transactionType": "CALL",
      "contractName": null,
      "contractAddress": "0x386ed9c1a214cc8700af43f4a39df8c722176e01",
      "function": "mintNewTokenValueLocal(address,uint256,uint256,uint256,uint256)",
      "arguments": [
        "0xe62Ab4D111f968660C6B2188046F9B9bA53C4Bae",
        "0",
        "5",
        "1450",
        "31255904907791744662490374133141019095649941482209478087102547804664171463538"
      ],
      "transaction": {
        "from": "0xe62ab4d111f968660c6b2188046f9b9ba53c4bae",
        "to": "0x386ed9c1a214cc8700af43f4a39df8c722176e01",
        "gas": "0x8e16d",
        "value": "0x0",
        "input": "0xd299e54a000000000000000000000000e62ab4d111f968660c6b2188046f9b9ba53c4bae0000000000000000000000000000000000000000000000000000000000000000000000000000000000000000000000000000000000000000000000000000000500000000000000000000000000000000000000000000000000000000000005aa451a371b4af672ab00aa7d7bd6ba214608a746064097ba9027b05c8e6e760372",
        "nonce": "0x3dc",
        "chainId": "0x66eee"
      },
      "additionalContracts": [],
      "isFixedGasLimit": false
    }
  ],
  "receipts": [
    {
      "status": "0x1",
      "cumulativeGasUsed": "0x1faef",
      "logs": [
        {
          "address": "0x92829288c6aa874c1a0f190da35a4023c22be637",
          "topics": [
            "0x8c5be1e5ebec7d5bd14f71427d1e84f3dd0314c0f7b2291e5b200ac8c7c3b925",
            "0x000000000000000000000000e62ab4d111f968660c6b2188046f9b9ba53c4bae",
            "0x000000000000000000000000386ed9c1a214cc8700af43f4a39df8c722176e01"
          ],
          "data": "0x00000000000000000000000000000000000000000000000000000002540be400",
          "blockHash": "0x5cacea7f756738707135d152b9ad6e2c4d06f6bf6b57cfb8e7ccbbde729e9d49",
          "blockNumber": "0x5e22482",
          "transactionHash": "0x06b249d642dc55e4960dce5c69371fc6803ebf9be67a310e50fea7d48a027498",
          "transactionIndex": "0x2",
          "logIndex": "0x1",
          "removed": false
        }
      ],
      "logsBloom": "0x20000000000000000004000000000000000000000000000000000000000000000000000000000000000000001000000000000000000000000000000000200000000000000000000000000000000000000000000000000000000000000000000000000000400000000000000000000000000000000000000000000000000000000000000000000000000000000000040000000000000000000000000000020040020000000000000000000000000000000000000000000000000000000000000000000000000000000000000000000000000000001000000000000000010000000010000000000000000000000000000000000000000000000000000000000000",
      "type": "0x2",
      "transactionHash": "0x06b249d642dc55e4960dce5c69371fc6803ebf9be67a310e50fea7d48a027498",
      "transactionIndex": "0x2",
      "blockHash": "0x5cacea7f756738707135d152b9ad6e2c4d06f6bf6b57cfb8e7ccbbde729e9d49",
      "blockNumber": "0x5e22482",
      "gasUsed": "0xa468",
      "effectiveGasPrice": "0x5f5e100",
      "from": "0xe62ab4d111f968660c6b2188046f9b9ba53c4bae",
      "to": "0x92829288c6aa874c1a0f190da35a4023c22be637",
      "contractAddress": null,
      "gasUsedForL1": "0x3da4",
      "l1BlockNumber": "0x6c7f20"
    },
    {
      "status": "0x1",
      "cumulativeGasUsed": "0x6ade4",
      "logs": [
        {
          "address": "0xdf961a04618b8439f2a104137154fb0efbea0724",
          "topics": [
            "0xddf252ad1be2c89b69c2b068fc378daa952ba7f163c4a11628f55a4df523b3ef",
            "0x0000000000000000000000000000000000000000000000000000000000000000",
            "0x000000000000000000000000e62ab4d111f968660c6b2188046f9b9ba53c4bae",
            "0x0000000000000000000000000000000000000000000000000000000000000001"
          ],
          "data": "0x",
          "blockHash": "0x044d883323792a4d4563700715581609747e9c4c88f1de0c1e39d6e398770718",
          "blockNumber": "0x5e2249e",
          "transactionHash": "0x2712e53b415ca79ed1f94a3c180ac63b0ff91645670ce34859d52331375d6c5d",
          "transactionIndex": "0x1",
          "logIndex": "0x0",
          "removed": false
        },
        {
          "address": "0xdf961a04618b8439f2a104137154fb0efbea0724",
          "topics": [
            "0xe4f48c240d3b994948aa54f3e2f5fca59263dfe1d52b6e4cf39a5d249b5ccb65",
            "0x0000000000000000000000000000000000000000000000000000000000000001",
            "0x0000000000000000000000000000000000000000000000000000000000000000",
            "0x0000000000000000000000000000000000000000000000000000000000000005"
          ],
          "data": "0x",
          "blockHash": "0x044d883323792a4d4563700715581609747e9c4c88f1de0c1e39d6e398770718",
          "blockNumber": "0x5e2249e",
          "transactionHash": "0x2712e53b415ca79ed1f94a3c180ac63b0ff91645670ce34859d52331375d6c5d",
          "transactionIndex": "0x1",
          "logIndex": "0x1",
          "removed": false
        },
        {
          "address": "0xdf961a04618b8439f2a104137154fb0efbea0724",
          "topics": [
            "0x0b2aac84f3ec956911fd78eae5311062972ff949f38412e8da39069d9f068cc6",
            "0x0000000000000000000000000000000000000000000000000000000000000000",
            "0x0000000000000000000000000000000000000000000000000000000000000001"
          ],
          "data": "0x00000000000000000000000000000000000000000000000000000000000005aa",
          "blockHash": "0x044d883323792a4d4563700715581609747e9c4c88f1de0c1e39d6e398770718",
          "blockNumber": "0x5e2249e",
          "transactionHash": "0x2712e53b415ca79ed1f94a3c180ac63b0ff91645670ce34859d52331375d6c5d",
          "transactionIndex": "0x1",
          "logIndex": "0x2",
          "removed": false
        }
      ],
      "logsBloom": "0x20000000000000000004000000000000000000000000001000000000000000000000000000000000000000000000000000000000000000000000000000040000000010000000000000000008000000000000000000040000000000000000000000000000020000000000000000000800000000000000000000000010000000000000000000000000400000000000041200000a00000000000000000000400000000000000000000000000000000002000000000000000000000000000000000000000002000000000002000000000000000000000000000000000000000060000000000000000000000000000000000200000000000001000000000000000000",
      "type": "0x2",
      "transactionHash": "0x2712e53b415ca79ed1f94a3c180ac63b0ff91645670ce34859d52331375d6c5d",
      "transactionIndex": "0x1",
      "blockHash": "0x044d883323792a4d4563700715581609747e9c4c88f1de0c1e39d6e398770718",
      "blockNumber": "0x5e2249e",
      "gasUsed": "0x6ade4",
      "effectiveGasPrice": "0x5f5e100",
      "from": "0xe62ab4d111f968660c6b2188046f9b9ba53c4bae",
      "to": "0x386ed9c1a214cc8700af43f4a39df8c722176e01",
      "contractAddress": null,
      "gasUsedForL1": "0x5ea6",
      "l1BlockNumber": "0x6c7f20"
    }
  ],
  "libraries": [],
  "pending": [],
  "returns": {},
  "timestamp": 1732036985,
  "chain": 421614,
  "commit": "b96f5048"
}