{
  "transactions": [
    {
      "hash": "0x7e8fb1db59070f60b02def49796f1cb33b564fec7fa0f0f6934bb0524e03eb62",
      "transactionType": "CALL",
      "contractName": null,
      "contractAddress": "0x386ed9c1a214cc8700af43f4a39df8c722176e01",
      "function": "deployAllCTMRWA001X(bool,uint256,uint256,uint256,string,string,uint8,string,string[],string)",
      "arguments": [
        "false",
        "31255904907791744662490374133141019095649941482209478087102547804664171463538",
        "1",
        "1",
        "Selqui SQ1",
        "SQ1",
        "18",
        "GFLD",
        "[84532]",
        "0x92829288c6aa874c1a0f190da35a4023c22be637"
      ],
      "transaction": {
        "from": "0xe62ab4d111f968660c6b2188046f9b9ba53c4bae",
        "to": "0x386ed9c1a214cc8700af43f4a39df8c722176e01",
        "gas": "0xe8ceb",
        "value": "0x0",
        "input": "0xa3d8f8500000000000000000000000000000000000000000000000000000000000000000451a371b4af672ab00aa7d7bd6ba214608a746064097ba9027b05c8e6e7603720000000000000000000000000000000000000000000000000000000000000001000000000000000000000000000000000000000000000000000000000000000100000000000000000000000000000000000000000000000000000000000001400000000000000000000000000000000000000000000000000000000000000180000000000000000000000000000000000000000000000000000000000000001200000000000000000000000000000000000000000000000000000000000001c000000000000000000000000000000000000000000000000000000000000002000000000000000000000000000000000000000000000000000000000000000280000000000000000000000000000000000000000000000000000000000000000a53656c717569205351310000000000000000000000000000000000000000000000000000000000000000000000000000000000000000000000000000000000035351310000000000000000000000000000000000000000000000000000000000000000000000000000000000000000000000000000000000000000000000000447464c44000000000000000000000000000000000000000000000000000000000000000000000000000000000000000000000000000000000000000000000001000000000000000000000000000000000000000000000000000000000000002000000000000000000000000000000000000000000000000000000000000000053834353332000000000000000000000000000000000000000000000000000000000000000000000000000000000000000000000000000000000000000000002a30783932383239323838633661613837346331613066313930646133356134303233633232626536333700000000000000000000000000000000000000000000",
        "nonce": "0x3d5",
        "chainId": "0x66eee"
      },
      "additionalContracts": [],
      "isFixedGasLimit": false
    }
  ],
  "receipts": [
    {
      "status": "0x1",
      "cumulativeGasUsed": "0x19a89f",
      "logs": [
        {
          "address": "0x770c70d44c0c7b5b7d805077b66daadc00480fbc",
          "topics": [
            "0x88ca677ce66cb94eb6b03d7e06b1735c23eafde3090030bf7fb84711690a287e",
            "0x000000000000000000000000000000000000000000000000000000000000002d",
            "0x9c511e5b6d8d6b2b57ea278ea87f1ddfe04aca925adb24342ba9f3803baf7c44"
          ],
          "data": "0x000000000000000000000000386ed9c1a214cc8700af43f4a39df8c722176e0100000000000000000000000000000000000000000000000000000000000000a000000000000000000000000000000000000000000000000000000000000000e0000000000000000000000000000000000000000000000000000000000000014000000000000000000000000000000000000000000000000000000000000003e000000000000000000000000000000000000000000000000000000000000000053834353332000000000000000000000000000000000000000000000000000000000000000000000000000000000000000000000000000000000000000000002a307836366237313963343839313933353934633631373830316536373131393935396364313562363361000000000000000000000000000000000000000000000000000000000000000000000000000000000000000000000000000000000264a374c14b0000000000000000000000000000000000000000000000000000000000000100451a371b4af672ab00aa7d7bd6ba214608a746064097ba9027b05c8e6e760372000000000000000000000000000000000000000000000000000000000000016000000000000000000000000000000000000000000000000000000000000001a0000000000000000000000000000000000000000000000000000000000000001200000000000000000000000000000000000000000000000000000000000001e000000000000000000000000000000000000000000000000000000000000002200000000000000000000000000000000000000000000000000000000000000240000000000000000000000000000000000000000000000000000000000000002a30786536326162346431313166393638363630633662323138383034366639623962613533633462616500000000000000000000000000000000000000000000000000000000000000000000000000000000000000000000000000000000000a53656c717569205351310000000000000000000000000000000000000000000000000000000000000000000000000000000000000000000000000000000000035351310000000000000000000000000000000000000000000000000000000000000000000000000000000000000000000000000000000000000000000000000447464c440000000000000000000000000000000000000000000000000000000000000000000000000000000000000000000000000000000000000000000000000000000000000000000000000000000000000000000000000000000000000000000000000000000000000000000000000000000000000000000000000000000000000000000000000000000000000000000000000000000000000000",
          "blockHash": "0x6bf4b937eba44e65a000ab001e52d40ff1ec527f9eb65518a3dba55f89bb402b",
          "blockNumber": "0x5e1f0d8",
          "transactionHash": "0x7e8fb1db59070f60b02def49796f1cb33b564fec7fa0f0f6934bb0524e03eb62",
          "transactionIndex": "0x2",
          "logIndex": "0x19",
          "removed": false
        }
      ],
      "logsBloom": "0x00000000000000000000000000000000000001000000000000000000400000000000000000000000000000000000000000000000000000000000008400000400000000000000000000000040000000000000000008000000000000000000000000000000000000000000008000000000000000000000000000000000000000000000000000000000000000000000000000000000000000000000000000000000000000000000000000000000000000000000002000000000000010000000000000000000000080000000000000000000000000000000000000000000400000000000000000000000000000000000000000000000000000000000000000000000",
      "type": "0x2",
      "transactionHash": "0x7e8fb1db59070f60b02def49796f1cb33b564fec7fa0f0f6934bb0524e03eb62",
      "transactionIndex": "0x2",
      "blockHash": "0x6bf4b937eba44e65a000ab001e52d40ff1ec527f9eb65518a3dba55f89bb402b",
      "blockNumber": "0x5e1f0d8",
      "gasUsed": "0xa52b2",
      "effectiveGasPrice": "0x5f5e100",
      "from": "0xe62ab4d111f968660c6b2188046f9b9ba53c4bae",
      "to": "0x386ed9c1a214cc8700af43f4a39df8c722176e01",
      "contractAddress": null,
      "gasUsedForL1": "0x40970",
      "l1BlockNumber": "0x6c7e00"
    }
  ],
  "libraries": [],
  "pending": [],
  "returns": {},
  "timestamp": 1732033219,
  "chain": 421614,
  "commit": "b96f5048"
}