{
  "transactions": [
    {
      "hash": "0xd5ac8561d03bcdb29ae64512dd782178b5323d658527a226ebfd8d358c4e0d3e",
      "transactionType": "CALL",
      "contractName": null,
      "contractAddress": "0x5330db730fAb0Bf0bB9db2FCefe7b1876c09a242",
      "function": "deployAllCTMRWA001X(bool,uint256,uint256,uint256,string,string,uint8,string,string[],string)",
      "arguments": [
        "true",
        "0",
        "1",
        "1",
        "Selqui SQ1",
        "SQ1",
        "18",
        "/Selqui",
        "[]",
        "0x1ee4ba474da815f728df08f0147defac07f0bab3"
      ],
      "transaction": {
        "from": "0xe62Ab4D111f968660C6B2188046F9B9bA53C4Bae",
        "to": "0x5330db730fAb0Bf0bB9db2FCefe7b1876c09a242",
        "gas": "0x79cd4c",
        "value": "0x0",
        "input": "0xa3d8f850000000000000000000000000000000000000000000000000000000000000000100000000000000000000000000000000000000000000000000000000000000000000000000000000000000000000000000000000000000000000000000000001000000000000000000000000000000000000000000000000000000000000000100000000000000000000000000000000000000000000000000000000000001400000000000000000000000000000000000000000000000000000000000000180000000000000000000000000000000000000000000000000000000000000001200000000000000000000000000000000000000000000000000000000000001c000000000000000000000000000000000000000000000000000000000000002000000000000000000000000000000000000000000000000000000000000000220000000000000000000000000000000000000000000000000000000000000000a53656c71756920535131000000000000000000000000000000000000000000000000000000000000000000000000000000000000000000000000000000000003535131000000000000000000000000000000000000000000000000000000000000000000000000000000000000000000000000000000000000000000000000072f53656c717569000000000000000000000000000000000000000000000000000000000000000000000000000000000000000000000000000000000000000000000000000000000000000000000000000000000000000000000000000000002a30783165653462613437346461383135663732386466303866303134376465666163303766306261623300000000000000000000000000000000000000000000",
        "nonce": "0x1b5",
        "chainId": "0x66eee"
      },
      "additionalContracts": [],
      "isFixedGasLimit": false
    }
  ],
  "receipts": [
    {
      "status": "0x1",
      "cumulativeGasUsed": "0x5ce7d6",
      "logs": [
        {
          "address": "0x5330db730fAb0Bf0bB9db2FCefe7b1876c09a242",
          "topics": [
            "0x28129b47929e9a908e07c89f47c303a716a56cbf5c543d97e0cef9af66d3031f"
          ],
          "data": "0x00000000000000000000000019db4512f9798ebfe0beb4df67540403e5daf0badc632f2cbcd6a6080b87de81d8998e0444d14247d31b6c8a9500846f05ab7626000000000000000000000000e62ab4d111f968660c6b2188046f9b9ba53c4bae00000000000000000000000000000000000000000000000000000000000000a000000000000000000000000000000000000000000000000000000000000000e0000000000000000000000000000000000000000000000000000000000000000634323136313400000000000000000000000000000000000000000000000000000000000000000000000000000000000000000000000000000000000000000000",
          "blockHash": "0xc321090f12512b2e0c8e305c6def1c7e07fc22da7da9062e08fda9e500c4fc5a",
          "blockNumber": "0x5539d84",
          "transactionHash": "0xd5ac8561d03bcdb29ae64512dd782178b5323d658527a226ebfd8d358c4e0d3e",
          "transactionIndex": "0x1",
          "logIndex": "0x0",
          "removed": false
        }
      ],
      "logsBloom": "0x00200000000000000000001000000000000000000000000000000000000000000000000000000000000000000000000000000000000000000000000000000000000000000000000000000000000000000000000000000000000000000000000000000040000000000000000000000000000000000000000000000000000000000000000000000000000000000000000000000000000000000000000000000000000000080000000000000000000000000020000000000000000000000000000000000000080000000000000000000000000000000000000000000000000000000000000000000000000000000000000000000000000000000000000000000000",
      "type": "0x2",
      "transactionHash": "0xd5ac8561d03bcdb29ae64512dd782178b5323d658527a226ebfd8d358c4e0d3e",
      "transactionIndex": "0x1",
      "blockHash": "0xc321090f12512b2e0c8e305c6def1c7e07fc22da7da9062e08fda9e500c4fc5a",
      "blockNumber": "0x5539d84",
      "gasUsed": "0x5ce7d6",
      "effectiveGasPrice": "0x5f5e100",
      "from": "0xe62Ab4D111f968660C6B2188046F9B9bA53C4Bae",
      "to": "0x5330db730fAb0Bf0bB9db2FCefe7b1876c09a242",
      "contractAddress": null,
      "gasUsedForL1": "0x2c94",
      "l1BlockNumber": "0x692813"
    }
  ],
  "libraries": [],
  "pending": [],
  "returns": {},
  "timestamp": 1729157450,
  "chain": 421614,
  "commit": "089dfaad"
}