{
  "transactions": [
    {
      "hash": "0x3f3c1fed4ada90c2bfffda1d88dbdd7674e483476bf954b0ded8b2fb248ba1c5",
      "transactionType": "CALL",
      "contractName": null,
      "contractAddress": "0xA450Ae39bf325c23a45B126eD2735F02d36b9A2d",
      "function": "deployAllCTMRWA001X(bool,uint256,uint256,uint256,string,string,uint8,string,string[],string)",
      "arguments": [
        "true",
        "0",
        "1",
        "1",
        "Selqui SQ1",
        "SQ1",
        "18",
        "/Selqui",
        "[]",
        "0x1ee4ba474da815f728df08f0147defac07f0bab3"
      ],
      "transaction": {
        "from": "0xe62Ab4D111f968660C6B2188046F9B9bA53C4Bae",
        "to": "0xA450Ae39bf325c23a45B126eD2735F02d36b9A2d",
        "gas": "0x799b19",
        "value": "0x0",
        "input": "0xa3d8f850000000000000000000000000000000000000000000000000000000000000000100000000000000000000000000000000000000000000000000000000000000000000000000000000000000000000000000000000000000000000000000000001000000000000000000000000000000000000000000000000000000000000000100000000000000000000000000000000000000000000000000000000000001400000000000000000000000000000000000000000000000000000000000000180000000000000000000000000000000000000000000000000000000000000001200000000000000000000000000000000000000000000000000000000000001c000000000000000000000000000000000000000000000000000000000000002000000000000000000000000000000000000000000000000000000000000000220000000000000000000000000000000000000000000000000000000000000000a53656c71756920535131000000000000000000000000000000000000000000000000000000000000000000000000000000000000000000000000000000000003535131000000000000000000000000000000000000000000000000000000000000000000000000000000000000000000000000000000000000000000000000072f53656c717569000000000000000000000000000000000000000000000000000000000000000000000000000000000000000000000000000000000000000000000000000000000000000000000000000000000000000000000000000000002a30783165653462613437346461383135663732386466303866303134376465666163303766306261623300000000000000000000000000000000000000000000",
        "nonce": "0x13c",
        "chainId": "0x66eee"
      },
      "additionalContracts": [],
      "isFixedGasLimit": false
    }
  ],
  "receipts": [
    {
      "status": "0x1",
      "cumulativeGasUsed": "0x5cce6e",
      "logs": [
        {
          "address": "0xA450Ae39bf325c23a45B126eD2735F02d36b9A2d",
          "topics": [
            "0x28129b47929e9a908e07c89f47c303a716a56cbf5c543d97e0cef9af66d3031f"
          ],
          "data": "0x000000000000000000000000b4311685de060bbec56c9b342e60741f305afc91110504e2ab4fbf44ceab5b82c78d9a08209001c207469f7fbfb8c8733dcbf443000000000000000000000000e62ab4d111f968660c6b2188046f9b9ba53c4bae00000000000000000000000000000000000000000000000000000000000000a000000000000000000000000000000000000000000000000000000000000000e0000000000000000000000000000000000000000000000000000000000000000634323136313400000000000000000000000000000000000000000000000000000000000000000000000000000000000000000000000000000000000000000000",
          "blockHash": "0xc0cbacf4365deb3c25ddf6ce3fa96bc77e7bb3fd164508a29cd799b66a5ff852",
          "blockNumber": "0x5416a19",
          "transactionHash": "0x3f3c1fed4ada90c2bfffda1d88dbdd7674e483476bf954b0ded8b2fb248ba1c5",
          "transactionIndex": "0x1",
          "logIndex": "0x0",
          "removed": false
        }
      ],
      "logsBloom": "0x00000000000000000000000000000000000000000000000000000000000100000000000000000000000000000000000000000000000000000000000000000000000000000000000000000000000000000000000000000000000000000000000000000040000000004000000000000000000000000000000000000000000000000000000000000000000000000000000000000000000000000000000000000000000000000000000000000000000040000020000000000000000000000000000000000000080000000000000000000000000000000000000000000000000000000000000000000000000000000000000000000000000000000000000000000000",
      "type": "0x2",
      "transactionHash": "0x3f3c1fed4ada90c2bfffda1d88dbdd7674e483476bf954b0ded8b2fb248ba1c5",
      "transactionIndex": "0x1",
      "blockHash": "0xc0cbacf4365deb3c25ddf6ce3fa96bc77e7bb3fd164508a29cd799b66a5ff852",
      "blockNumber": "0x5416a19",
      "gasUsed": "0x5cce6e",
      "effectiveGasPrice": "0x5f5e100",
      "from": "0xe62Ab4D111f968660C6B2188046F9B9bA53C4Bae",
      "to": "0xA450Ae39bf325c23a45B126eD2735F02d36b9A2d",
      "contractAddress": null,
      "gasUsedForL1": "0x0",
      "l1BlockNumber": "0x68bf79"
    }
  ],
  "libraries": [],
  "pending": [],
  "returns": {},
  "timestamp": 1728771529,
  "chain": 421614,
  "commit": "aa196d20"
}