{
  "transactions": [
    {
      "hash": "0x7f2879d97914e75ad130fb7f4f7ca9fb4c88d4d16d161342b9eadf476a284fc5",
      "transactionType": "CALL",
      "contractName": null,
      "contractAddress": "0x22D305a430b57a12D569f1e578B9F2f7613f92F8",
      "function": "deployAllCTMRWA001X(bool,uint256,uint256,uint256,string,string,uint8,string,string[],string)",
      "arguments": [
        "true",
        "0",
        "1",
        "1",
        "Selqui SQ1",
        "SQ1",
        "18",
        "/Selqui",
        "[]",
        "0x1ee4ba474da815f728df08f0147defac07f0bab3"
      ],
      "transaction": {
        "from": "0xe62Ab4D111f968660C6B2188046F9B9bA53C4Bae",
        "to": "0x22D305a430b57a12D569f1e578B9F2f7613f92F8",
        "gas": "0x7b2b55",
        "value": "0x0",
        "input": "0xa3d8f850000000000000000000000000000000000000000000000000000000000000000100000000000000000000000000000000000000000000000000000000000000000000000000000000000000000000000000000000000000000000000000000001000000000000000000000000000000000000000000000000000000000000000100000000000000000000000000000000000000000000000000000000000001400000000000000000000000000000000000000000000000000000000000000180000000000000000000000000000000000000000000000000000000000000001200000000000000000000000000000000000000000000000000000000000001c000000000000000000000000000000000000000000000000000000000000002000000000000000000000000000000000000000000000000000000000000000220000000000000000000000000000000000000000000000000000000000000000a53656c71756920535131000000000000000000000000000000000000000000000000000000000000000000000000000000000000000000000000000000000003535131000000000000000000000000000000000000000000000000000000000000000000000000000000000000000000000000000000000000000000000000072f53656c717569000000000000000000000000000000000000000000000000000000000000000000000000000000000000000000000000000000000000000000000000000000000000000000000000000000000000000000000000000000002a30783165653462613437346461383135663732386466303866303134376465666163303766306261623300000000000000000000000000000000000000000000",
        "nonce": "0x170",
        "chainId": "0x66eee"
      },
      "additionalContracts": [],
      "isFixedGasLimit": false
    }
  ],
  "receipts": [
    {
      "status": "0x1",
      "cumulativeGasUsed": "0x5dd0d7",
      "logs": [
        {
          "address": "0x22D305a430b57a12D569f1e578B9F2f7613f92F8",
          "topics": [
            "0x28129b47929e9a908e07c89f47c303a716a56cbf5c543d97e0cef9af66d3031f"
          ],
          "data": "0x0000000000000000000000006fddea7fc897276fe361dddf2d578a4e3479bcbeab8762d7c087244331b3f5d1e4f5a7390bc6dcc78e476024d775dd9e62547ef4000000000000000000000000e62ab4d111f968660c6b2188046f9b9ba53c4bae00000000000000000000000000000000000000000000000000000000000000a000000000000000000000000000000000000000000000000000000000000000e0000000000000000000000000000000000000000000000000000000000000000634323136313400000000000000000000000000000000000000000000000000000000000000000000000000000000000000000000000000000000000000000000",
          "blockHash": "0xb7861ac7e5015dbc77f1ba46f2e10fe4ccc128120c36a5e03a4c547e9729a752",
          "blockNumber": "0x5442ef4",
          "transactionHash": "0x7f2879d97914e75ad130fb7f4f7ca9fb4c88d4d16d161342b9eadf476a284fc5",
          "transactionIndex": "0x1",
          "logIndex": "0x0",
          "removed": false
        }
      ],
      "logsBloom": "0x00000000000000000000000000000000000000000000000000000000000000000000000000000000000000000000000000000000000000000000000000000000000000000000000000000000000010000000000000000000000000000000000000000040000000000000000000000000000000000000000000000000000000000000000000000000000000000000000000000000000000000000000000000000000000000000000000000004000000000020000000000000000000000000000000000000080000000000000000000000000000000000000000000000000000000000000000000000000000000000000000000000000000000000000000000080",
      "type": "0x2",
      "transactionHash": "0x7f2879d97914e75ad130fb7f4f7ca9fb4c88d4d16d161342b9eadf476a284fc5",
      "transactionIndex": "0x1",
      "blockHash": "0xb7861ac7e5015dbc77f1ba46f2e10fe4ccc128120c36a5e03a4c547e9729a752",
      "blockNumber": "0x5442ef4",
      "gasUsed": "0x5dd0d7",
      "effectiveGasPrice": "0x5f5e100",
      "from": "0xe62Ab4D111f968660C6B2188046F9B9bA53C4Bae",
      "to": "0x22D305a430b57a12D569f1e578B9F2f7613f92F8",
      "contractAddress": null,
      "gasUsedForL1": "0xa85f",
      "l1BlockNumber": "0x68cee1"
    }
  ],
  "libraries": [],
  "pending": [],
  "returns": {},
  "timestamp": 1728828732,
  "chain": 421614,
  "commit": "5b540a48"
}