{
  "transactions": [
    {
      "hash": "0x7dce6a866ca57ba38937a84c5aaeeba42390e1c695aae84c85faeeb854f59992",
      "transactionType": "CALL",
      "contractName": null,
      "contractAddress": "0xD2499F70542D598fE7679cD439A4cbA16e5b2BF9",
      "function": "_addURI(uint256,uint8,uint8,uint256,bytes32,string[])",
      "arguments": [
        "9147904968889482208907034084512527252405720098827985479629846851769439457642",
        "0",
        "1",
        "0",
        "0x5b6149dd410e6b0d4ad137fcca5eeefb90692c20121059762d938813f59e83a3",
        "[421614, 97]"
      ],
      "transaction": {
        "from": "0xe62Ab4D111f968660C6B2188046F9B9bA53C4Bae",
        "to": "0xD2499F70542D598fE7679cD439A4cbA16e5b2BF9",
        "gas": "0x755f1",
        "value": "0x0",
        "input": "0xde7bb425143987ddc3dcde0050eebe55372cab7be1f7947f7d2da8555b25b506d5ed916a0000000000000000000000000000000000000000000000000000000000000000000000000000000000000000000000000000000000000000000000000000000100000000000000000000000000000000000000000000000000000000000000005b6149dd410e6b0d4ad137fcca5eeefb90692c20121059762d938813f59e83a300000000000000000000000000000000000000000000000000000000000000c00000000000000000000000000000000000000000000000000000000000000002000000000000000000000000000000000000000000000000000000000000004000000000000000000000000000000000000000000000000000000000000000800000000000000000000000000000000000000000000000000000000000000006343231363134000000000000000000000000000000000000000000000000000000000000000000000000000000000000000000000000000000000000000000023937000000000000000000000000000000000000000000000000000000000000",
        "nonce": "0x19e",
        "chainId": "0x66eee"
      },
      "additionalContracts": [],
      "isFixedGasLimit": false
    }
  ],
  "receipts": [
    {
      "status": "0x1",
      "cumulativeGasUsed": "0x59040",
      "logs": [
        {
          "address": "0x770c70D44C0c7b5B7D805077B66daADC00480FbC",
          "topics": [
            "0x88ca677ce66cb94eb6b03d7e06b1735c23eafde3090030bf7fb84711690a287e",
            "0x000000000000000000000000000000000000000000000000000000000000002d",
            "0x66c86fe11d0789e64185587e76e1ff2d609440a520657561df9c5dc45c93273a"
          ],
          "data": "0x000000000000000000000000d2499f70542d598fe7679cd439a4cba16e5b2bf900000000000000000000000000000000000000000000000000000000000000a000000000000000000000000000000000000000000000000000000000000000e00000000000000000000000000000000000000000000000000000000000000140000000000000000000000000000000000000000000000000000000000000022000000000000000000000000000000000000000000000000000000000000000023937000000000000000000000000000000000000000000000000000000000000000000000000000000000000000000000000000000000000000000000000002a3078333566623438303462663964633032613732633761313039333830333638646161666634356635640000000000000000000000000000000000000000000000000000000000000000000000000000000000000000000000000000000000a48a1036b1143987ddc3dcde0050eebe55372cab7be1f7947f7d2da8555b25b506d5ed916a0000000000000000000000000000000000000000000000000000000000000000000000000000000000000000000000000000000000000000000000000000000100000000000000000000000000000000000000000000000000000000000000005b6149dd410e6b0d4ad137fcca5eeefb90692c20121059762d938813f59e83a3000000000000000000000000000000000000000000000000000000000000000000000000000000000000000000000000000000000000000000000000",
          "blockHash": "0xf06fbf8553a1633042f50e3bd09fe71aa13f728fb6c6452b0856c1af67ff70c5",
          "blockNumber": "0x550e564",
          "transactionHash": "0x7dce6a866ca57ba38937a84c5aaeeba42390e1c695aae84c85faeeb854f59992",
          "transactionIndex": "0x1",
          "logIndex": "0x0",
          "removed": false
        }
      ],
      "logsBloom": "0x00200000000000000000000000000000000001000000000000000000400000000000000000000000000000000000000000000000000000000000008400000000000000000000000000000040000000000000000000000000000000000000000000000000000000000000008000000000000000000000000000000000000000000000000000000000010000000000000000000000000000010000000000000000000000000000000000000000000000000000002000000000000010000000000000000000000000000000000000000000000000000000000000000000400000000000000000000000000000000000000000000000000000000000000000000000",
      "type": "0x2",
      "transactionHash": "0x7dce6a866ca57ba38937a84c5aaeeba42390e1c695aae84c85faeeb854f59992",
      "transactionIndex": "0x1",
      "blockHash": "0xf06fbf8553a1633042f50e3bd09fe71aa13f728fb6c6452b0856c1af67ff70c5",
      "blockNumber": "0x550e564",
      "gasUsed": "0x59040",
      "effectiveGasPrice": "0x5f5e100",
      "from": "0xe62Ab4D111f968660C6B2188046F9B9bA53C4Bae",
      "to": "0xD2499F70542D598fE7679cD439A4cbA16e5b2BF9",
      "contractAddress": null,
      "gasUsedForL1": "0x138a",
      "l1BlockNumber": "0x6917b9"
    }
  ],
  "libraries": [],
  "pending": [],
  "returns": {},
  "timestamp": 1729096984,
  "chain": 421614,
  "commit": "7d051dd0"
}