{
  "transactions": [
    {
      "hash": "0x78887cd1d860759d2cd8226fd874ba5624d0d0a9136822d6e8b33246391f857d",
      "transactionType": "CALL",
      "contractName": null,
      "contractAddress": "0x22D305a430b57a12D569f1e578B9F2f7613f92F8",
      "function": "mintNewTokenValueX(string,string,uint256,uint256,uint256,string)",
      "arguments": [
        "0xe62ab4d111f968660c6b2188046f9b9ba53c4bae",
        "97",
        "4",
        "1234",
        "77584703649289707259697594429131521757455372367565608163693872618853593546484",
        "0x1ee4ba474da815f728df08f0147defac07f0bab3"
      ],
      "transaction": {
        "from": "0xe62Ab4D111f968660C6B2188046F9B9bA53C4Bae",
        "to": "0x22D305a430b57a12D569f1e578B9F2f7613f92F8",
        "gas": "0xc0b82",
        "value": "0x0",
        "input": "0x631d035500000000000000000000000000000000000000000000000000000000000000c00000000000000000000000000000000000000000000000000000000000000120000000000000000000000000000000000000000000000000000000000000000400000000000000000000000000000000000000000000000000000000000004d2ab8762d7c087244331b3f5d1e4f5a7390bc6dcc78e476024d775dd9e62547ef40000000000000000000000000000000000000000000000000000000000000160000000000000000000000000000000000000000000000000000000000000002a3078653632616234643131316639363836363063366232313838303436663962396261353363346261650000000000000000000000000000000000000000000000000000000000000000000000000000000000000000000000000000000000023937000000000000000000000000000000000000000000000000000000000000000000000000000000000000000000000000000000000000000000000000002a30783165653462613437346461383135663732386466303866303134376465666163303766306261623300000000000000000000000000000000000000000000",
        "nonce": "0x174",
        "chainId": "0x66eee"
      },
      "additionalContracts": [],
      "isFixedGasLimit": false
    }
  ],
  "receipts": [
    {
      "status": "0x1",
      "cumulativeGasUsed": "0x86e13",
      "logs": [
        {
          "address": "0x770c70D44C0c7b5B7D805077B66daADC00480FbC",
          "topics": [
            "0x88ca677ce66cb94eb6b03d7e06b1735c23eafde3090030bf7fb84711690a287e",
            "0x000000000000000000000000000000000000000000000000000000000000002d",
            "0xa4f6294b335c6936568f4cf136ca636c3ba206f0fd11c9bb6d16dd4fb80bc77b"
          ],
          "data": "0x00000000000000000000000022d305a430b57a12d569f1e578b9f2f7613f92f800000000000000000000000000000000000000000000000000000000000000a000000000000000000000000000000000000000000000000000000000000000e00000000000000000000000000000000000000000000000000000000000000140000000000000000000000000000000000000000000000000000000000000038000000000000000000000000000000000000000000000000000000000000000023937000000000000000000000000000000000000000000000000000000000000000000000000000000000000000000000000000000000000000000000000002a307866336363303934356237363666323936613766663762356235323832303337366132333232663339000000000000000000000000000000000000000000000000000000000000000000000000000000000000000000000000000000000204304194d1ab8762d7c087244331b3f5d1e4f5a7390bc6dcc78e476024d775dd9e62547ef400000000000000000000000000000000000000000000000000000000000000e000000000000000000000000000000000000000000000000000000000000001400000000000000000000000000000000000000000000000000000000000000000000000000000000000000000000000000000000000000000000000000000000400000000000000000000000000000000000000000000000000000000000004d200000000000000000000000000000000000000000000000000000000000001a0000000000000000000000000000000000000000000000000000000000000002a30786536326162346431313166393638363630633662323138383034366639623962613533633462616500000000000000000000000000000000000000000000000000000000000000000000000000000000000000000000000000000000002a30786536326162346431313166393638363630633662323138383034366639623962613533633462616500000000000000000000000000000000000000000000000000000000000000000000000000000000000000000000000000000000002a30783666646465613766633839373237366665333631646464663264353738613465333437396263626500000000000000000000000000000000000000000000000000000000000000000000000000000000000000000000000000000000000000000000000000000000000000000000000000000000000000000000",
          "blockHash": "0x0a0e77329502e12205fa101ffd55f3ae5cce6492a9db358cef0ad61f07e873a6",
          "blockNumber": "0x5480e50",
          "transactionHash": "0x78887cd1d860759d2cd8226fd874ba5624d0d0a9136822d6e8b33246391f857d",
          "transactionIndex": "0x1",
          "logIndex": "0x0",
          "removed": false
        }
      ],
      "logsBloom": "0x00000000000000000000000000000000000001000000000000000000400000000000000000000000000000000000000000000000000000000000008400000000000000000000800000000040000000000000000000000000000000000000000000000000000000000000008000000000000000000000000000000000000000000000000000000000000000000000000000000000000000000000000000000000000008000000000000000000000000000000002000000000000010000000000000000000000000000000000000000000000000000400000000000000400000000000000000000000000000000000000000000000000000000000000000000000",
      "type": "0x2",
      "transactionHash": "0x78887cd1d860759d2cd8226fd874ba5624d0d0a9136822d6e8b33246391f857d",
      "transactionIndex": "0x1",
      "blockHash": "0x0a0e77329502e12205fa101ffd55f3ae5cce6492a9db358cef0ad61f07e873a6",
      "blockNumber": "0x5480e50",
      "gasUsed": "0x86e13",
      "effectiveGasPrice": "0x5f5e100",
      "from": "0xe62Ab4D111f968660C6B2188046F9B9bA53C4Bae",
      "to": "0x22D305a430b57a12D569f1e578B9F2f7613f92F8",
      "contractAddress": null,
      "gasUsedForL1": "0x3694b",
      "l1BlockNumber": "0x68e4c9"
    }
  ],
  "libraries": [],
  "pending": [],
  "returns": {},
  "timestamp": 1728909643,
  "chain": 421614,
  "commit": "5b540a48"
}