{
  "transactions": [
    {
      "hash": "0xbd848a74e556638dc64f1c212bd89347364c482f26156a62faf4e6b5554e5eb3",
      "transactionType": "CALL",
      "contractName": null,
      "contractAddress": "0x386ed9c1a214cc8700af43f4a39df8c722176e01",
      "function": "deployAllCTMRWA001X(bool,uint256,uint256,uint256,string,string,uint8,string,string[],string)",
      "arguments": [
        "false",
        "31255904907791744662490374133141019095649941482209478087102547804664171463538",
        "1",
        "1",
        "Selqui SQ1",
        "SQ1",
        "18",
        "GFLD",
        "[84532]",
        "0x92829288c6aa874c1a0f190da35a4023c22be637"
      ],
      "transaction": {
        "from": "0xe62ab4d111f968660c6b2188046f9b9ba53c4bae",
        "to": "0x386ed9c1a214cc8700af43f4a39df8c722176e01",
        "gas": "0xcce3f",
        "value": "0x0",
        "input": "0xa3d8f8500000000000000000000000000000000000000000000000000000000000000000451a371b4af672ab00aa7d7bd6ba214608a746064097ba9027b05c8e6e7603720000000000000000000000000000000000000000000000000000000000000001000000000000000000000000000000000000000000000000000000000000000100000000000000000000000000000000000000000000000000000000000001400000000000000000000000000000000000000000000000000000000000000180000000000000000000000000000000000000000000000000000000000000001200000000000000000000000000000000000000000000000000000000000001c000000000000000000000000000000000000000000000000000000000000002000000000000000000000000000000000000000000000000000000000000000280000000000000000000000000000000000000000000000000000000000000000a53656c717569205351310000000000000000000000000000000000000000000000000000000000000000000000000000000000000000000000000000000000035351310000000000000000000000000000000000000000000000000000000000000000000000000000000000000000000000000000000000000000000000000447464c44000000000000000000000000000000000000000000000000000000000000000000000000000000000000000000000000000000000000000000000001000000000000000000000000000000000000000000000000000000000000002000000000000000000000000000000000000000000000000000000000000000053834353332000000000000000000000000000000000000000000000000000000000000000000000000000000000000000000000000000000000000000000002a30783932383239323838633661613837346331613066313930646133356134303233633232626536333700000000000000000000000000000000000000000000",
        "nonce": "0x3d6",
        "chainId": "0x66eee"
      },
      "additionalContracts": [],
      "isFixedGasLimit": false
    },
    {
      "hash": "0x881314f32739e4e70f5ee369b2b61d8c3cce81df80c277344dd18a18061afde4",
      "transactionType": "CALL",
      "contractName": null,
      "contractAddress": "0x92829288c6aa874c1a0f190da35a4023c22be637",
      "function": "approve(address,uint256)",
      "arguments": [
        "0x386ed9c1a214Cc8700AF43F4a39df8c722176e01",
        "10000000000"
      ],
      "transaction": {
        "from": "0xe62ab4d111f968660c6b2188046f9b9ba53c4bae",
        "to": "0x92829288c6aa874c1a0f190da35a4023c22be637",
        "gas": "0x2dd86",
        "value": "0x0",
        "input": "0x095ea7b3000000000000000000000000386ed9c1a214cc8700af43f4a39df8c722176e0100000000000000000000000000000000000000000000000000000002540be400",
        "nonce": "0x3d7",
        "chainId": "0x66eee"
      },
      "additionalContracts": [],
      "isFixedGasLimit": false
    },
    {
      "hash": "0xf0cc13c04be064438b147ec5d6d0d0f2a0484030e03bfcab071f0fc6db307407",
      "transactionType": "CALL",
      "contractName": null,
      "contractAddress": "0x386ed9c1a214cc8700af43f4a39df8c722176e01",
      "function": "createNewSlot(uint256,uint256,string,string[],string)",
      "arguments": [
        "31255904907791744662490374133141019095649941482209478087102547804664171463538",
        "5",
        "Brand new RWA",
        "[84532, 421614, 84532]",
        "0x92829288c6aa874c1a0f190da35a4023c22be637"
      ],
      "transaction": {
        "from": "0xe62ab4d111f968660c6b2188046f9b9ba53c4bae",
        "to": "0x386ed9c1a214cc8700af43f4a39df8c722176e01",
        "gas": "0x11d02f",
        "value": "0x0",
        "input": "0x5bb1f8f4451a371b4af672ab00aa7d7bd6ba214608a746064097ba9027b05c8e6e760372000000000000000000000000000000000000000000000000000000000000000500000000000000000000000000000000000000000000000000000000000000a000000000000000000000000000000000000000000000000000000000000000e00000000000000000000000000000000000000000000000000000000000000220000000000000000000000000000000000000000000000000000000000000000d4272616e64206e657720525741000000000000000000000000000000000000000000000000000000000000000000000000000000000000000000000000000003000000000000000000000000000000000000000000000000000000000000006000000000000000000000000000000000000000000000000000000000000000a000000000000000000000000000000000000000000000000000000000000000e0000000000000000000000000000000000000000000000000000000000000000538343533320000000000000000000000000000000000000000000000000000000000000000000000000000000000000000000000000000000000000000000006343231363134000000000000000000000000000000000000000000000000000000000000000000000000000000000000000000000000000000000000000000053834353332000000000000000000000000000000000000000000000000000000000000000000000000000000000000000000000000000000000000000000002a30783932383239323838633661613837346331613066313930646133356134303233633232626536333700000000000000000000000000000000000000000000",
        "nonce": "0x3d8",
        "chainId": "0x66eee"
      },
      "additionalContracts": [],
      "isFixedGasLimit": false
    }
  ],
  "receipts": [
    {
      "status": "0x1",
      "cumulativeGasUsed": "0x93219",
      "logs": [
        {
          "address": "0x770c70d44c0c7b5b7d805077b66daadc00480fbc",
          "topics": [
            "0x88ca677ce66cb94eb6b03d7e06b1735c23eafde3090030bf7fb84711690a287e",
            "0x000000000000000000000000000000000000000000000000000000000000002d",
            "0x14f14c84ccb1d242390d9d6dec5a90bf66b813632002e5bcd59274af72829828"
          ],
          "data": "0x000000000000000000000000386ed9c1a214cc8700af43f4a39df8c722176e0100000000000000000000000000000000000000000000000000000000000000a000000000000000000000000000000000000000000000000000000000000000e0000000000000000000000000000000000000000000000000000000000000014000000000000000000000000000000000000000000000000000000000000003e000000000000000000000000000000000000000000000000000000000000000053834353332000000000000000000000000000000000000000000000000000000000000000000000000000000000000000000000000000000000000000000002a307836366237313963343839313933353934633631373830316536373131393935396364313562363361000000000000000000000000000000000000000000000000000000000000000000000000000000000000000000000000000000000264a374c14b0000000000000000000000000000000000000000000000000000000000000100451a371b4af672ab00aa7d7bd6ba214608a746064097ba9027b05c8e6e760372000000000000000000000000000000000000000000000000000000000000016000000000000000000000000000000000000000000000000000000000000001a0000000000000000000000000000000000000000000000000000000000000001200000000000000000000000000000000000000000000000000000000000001e000000000000000000000000000000000000000000000000000000000000002200000000000000000000000000000000000000000000000000000000000000240000000000000000000000000000000000000000000000000000000000000002a30786536326162346431313166393638363630633662323138383034366639623962613533633462616500000000000000000000000000000000000000000000000000000000000000000000000000000000000000000000000000000000000a53656c717569205351310000000000000000000000000000000000000000000000000000000000000000000000000000000000000000000000000000000000035351310000000000000000000000000000000000000000000000000000000000000000000000000000000000000000000000000000000000000000000000000447464c440000000000000000000000000000000000000000000000000000000000000000000000000000000000000000000000000000000000000000000000000000000000000000000000000000000000000000000000000000000000000000000000000000000000000000000000000000000000000000000000000000000000000000000000000000000000000000000000000000000000000000",
          "blockHash": "0x20f0fc2b77d02273a921bb8bc1af288504f8710c2f701015af9fe4a2280e363d",
          "blockNumber": "0x5e1fa1a",
          "transactionHash": "0xbd848a74e556638dc64f1c212bd89347364c482f26156a62faf4e6b5554e5eb3",
          "transactionIndex": "0x1",
          "logIndex": "0x0",
          "removed": false
        }
      ],
      "logsBloom": "0x00000000000000000000000002000000000001000000000000000000400000000000000000000000000000000000000000000000000000000000008400000000000000000000000000000040000000000000200000000000000000000000000000000000000000000000008000000000000000000000000000000000000000000000000000000000000000000000000000000000000000000000000000000000000000000000000000000000000000000000002000000000000010010000000000000000000000000000000000000000000000000000000000000000400000000000000000000000000000000000000000000000000000000000000000000000",
      "type": "0x2",
      "transactionHash": "0xbd848a74e556638dc64f1c212bd89347364c482f26156a62faf4e6b5554e5eb3",
      "transactionIndex": "0x1",
      "blockHash": "0x20f0fc2b77d02273a921bb8bc1af288504f8710c2f701015af9fe4a2280e363d",
      "blockNumber": "0x5e1fa1a",
      "gasUsed": "0x93219",
      "effectiveGasPrice": "0x5f5e100",
      "from": "0xe62ab4d111f968660c6b2188046f9b9ba53c4bae",
      "to": "0x386ed9c1a214cc8700af43f4a39df8c722176e01",
      "contractAddress": null,
      "gasUsedForL1": "0x2e8d7",
      "l1BlockNumber": "0x6c7e34"
    },
    {
      "status": "0x1",
      "cumulativeGasUsed": "0x3bdf0",
      "logs": [
        {
          "address": "0x92829288c6aa874c1a0f190da35a4023c22be637",
          "topics": [
            "0x8c5be1e5ebec7d5bd14f71427d1e84f3dd0314c0f7b2291e5b200ac8c7c3b925",
            "0x000000000000000000000000e62ab4d111f968660c6b2188046f9b9ba53c4bae",
            "0x000000000000000000000000386ed9c1a214cc8700af43f4a39df8c722176e01"
          ],
          "data": "0x00000000000000000000000000000000000000000000000000000002540be400",
          "blockHash": "0x1924f1be727ecdf3d0933222e4c6c43937ddd5de8e1a008f2098c2917036b7bc",
          "blockNumber": "0x5e1fa36",
          "transactionHash": "0x881314f32739e4e70f5ee369b2b61d8c3cce81df80c277344dd18a18061afde4",
          "transactionIndex": "0x2",
          "logIndex": "0x2",
          "removed": false
        }
      ],
      "logsBloom": "0x20000000000000000004000000000000000000000000000000000000000000000000000000000000000000001000000000000000000000000000000000200000000000000000000000000000000000000000000000000000000000000000000000000000400000000000000000000000000000000000000000000000000000000000000000000000000000000000040000000000000000000000000000020040020000000000000000000000000000000000000000000000000000000000000000000000000000000000000000000000000000001000000000000000010000000010000000000000000000000000000000000000000000000000000000000000",
      "type": "0x2",
      "transactionHash": "0x881314f32739e4e70f5ee369b2b61d8c3cce81df80c277344dd18a18061afde4",
      "transactionIndex": "0x2",
      "blockHash": "0x1924f1be727ecdf3d0933222e4c6c43937ddd5de8e1a008f2098c2917036b7bc",
      "blockNumber": "0x5e1fa36",
      "gasUsed": "0x1cd89",
      "effectiveGasPrice": "0x5f5e100",
      "from": "0xe62ab4d111f968660c6b2188046f9b9ba53c4bae",
      "to": "0x92829288c6aa874c1a0f190da35a4023c22be637",
      "contractAddress": null,
      "gasUsedForL1": "0x166c5",
      "l1BlockNumber": "0x6c7e36"
    },
    {
      "status": "0x1",
      "cumulativeGasUsed": "0x2c75eb",
      "logs": [
        {
          "address": "0x770c70d44c0c7b5b7d805077b66daadc00480fbc",
          "topics": [
            "0x88ca677ce66cb94eb6b03d7e06b1735c23eafde3090030bf7fb84711690a287e",
            "0x000000000000000000000000000000000000000000000000000000000000002d",
            "0x1201e0437f190c93aee75d7d07335d2bad81a69c43adb218b4352a443e803ca7"
          ],
          "data": "0x000000000000000000000000386ed9c1a214cc8700af43f4a39df8c722176e0100000000000000000000000000000000000000000000000000000000000000a000000000000000000000000000000000000000000000000000000000000000e0000000000000000000000000000000000000000000000000000000000000014000000000000000000000000000000000000000000000000000000000000002a000000000000000000000000000000000000000000000000000000000000000053834353332000000000000000000000000000000000000000000000000000000000000000000000000000000000000000000000000000000000000000000002a307836366237313963343839313933353934633631373830316536373131393935396364313562363361000000000000000000000000000000000000000000000000000000000000000000000000000000000000000000000000000000000124528565d6451a371b4af672ab00aa7d7bd6ba214608a746064097ba9027b05c8e6e7603720000000000000000000000000000000000000000000000000000000000000080000000000000000000000000000000000000000000000000000000000000000500000000000000000000000000000000000000000000000000000000000000e0000000000000000000000000000000000000000000000000000000000000002a30786536326162346431313166393638363630633662323138383034366639623962613533633462616500000000000000000000000000000000000000000000000000000000000000000000000000000000000000000000000000000000000d4272616e64206e65772052574100000000000000000000000000000000000000000000000000000000000000000000000000000000000000000000000000000000000000000000000000000000000000000000000000000000000000",
          "blockHash": "0x0a18f5977e5f3210b06bdcf31e4f6cc9f6b605ab078b4c31b461a13f1530579b",
          "blockNumber": "0x5e1fa55",
          "transactionHash": "0xf0cc13c04be064438b147ec5d6d0d0f2a0484030e03bfcab071f0fc6db307407",
          "transactionIndex": "0x3",
          "logIndex": "0xc",
          "removed": false
        },
        {
          "address": "0x770c70d44c0c7b5b7d805077b66daadc00480fbc",
          "topics": [
            "0x88ca677ce66cb94eb6b03d7e06b1735c23eafde3090030bf7fb84711690a287e",
            "0x000000000000000000000000000000000000000000000000000000000000002d",
            "0x32bde76fff809339c9e485fd1be997ed06dba51fc7fea71d55407b0d70feb709"
          ],
          "data": "0x000000000000000000000000386ed9c1a214cc8700af43f4a39df8c722176e0100000000000000000000000000000000000000000000000000000000000000a000000000000000000000000000000000000000000000000000000000000000e0000000000000000000000000000000000000000000000000000000000000014000000000000000000000000000000000000000000000000000000000000002a000000000000000000000000000000000000000000000000000000000000000053834353332000000000000000000000000000000000000000000000000000000000000000000000000000000000000000000000000000000000000000000002a307836366237313963343839313933353934633631373830316536373131393935396364313562363361000000000000000000000000000000000000000000000000000000000000000000000000000000000000000000000000000000000124528565d6451a371b4af672ab00aa7d7bd6ba214608a746064097ba9027b05c8e6e7603720000000000000000000000000000000000000000000000000000000000000080000000000000000000000000000000000000000000000000000000000000000500000000000000000000000000000000000000000000000000000000000000e0000000000000000000000000000000000000000000000000000000000000002a30786536326162346431313166393638363630633662323138383034366639623962613533633462616500000000000000000000000000000000000000000000000000000000000000000000000000000000000000000000000000000000000d4272616e64206e65772052574100000000000000000000000000000000000000000000000000000000000000000000000000000000000000000000000000000000000000000000000000000000000000000000000000000000000000",
          "blockHash": "0x0a18f5977e5f3210b06bdcf31e4f6cc9f6b605ab078b4c31b461a13f1530579b",
          "blockNumber": "0x5e1fa55",
          "transactionHash": "0xf0cc13c04be064438b147ec5d6d0d0f2a0484030e03bfcab071f0fc6db307407",
          "transactionIndex": "0x3",
          "logIndex": "0xd",
          "removed": false
        },
        {
          "address": "0xdf961a04618b8439f2a104137154fb0efbea0724",
          "topics": [
            "0xe4f48c240d3b994948aa54f3e2f5fca59263dfe1d52b6e4cf39a5d249b5ccb65",
            "0x0000000000000000000000000000000000000000000000000000000000000000",
            "0x0000000000000000000000000000000000000000000000000000000000000000",
            "0x0000000000000000000000000000000000000000000000000000000000000005"
          ],
          "data": "0x",
          "blockHash": "0x0a18f5977e5f3210b06bdcf31e4f6cc9f6b605ab078b4c31b461a13f1530579b",
          "blockNumber": "0x5e1fa55",
          "transactionHash": "0xf0cc13c04be064438b147ec5d6d0d0f2a0484030e03bfcab071f0fc6db307407",
          "transactionIndex": "0x3",
          "logIndex": "0xe",
          "removed": false
        },
        {
          "address": "0x386ed9c1a214cc8700af43f4a39df8c722176e01",
          "topics": [
            "0x9d223dd987b9b80ed14cb80350a9052082a4b69610e6c53c073062dd02ee70ea"
          ],
          "data": "0x451a371b4af672ab00aa7d7bd6ba214608a746064097ba9027b05c8e6e7603720000000000000000000000000000000000000000000000000000000000000005000000000000000000000000000000000000000000000000000000000000006000000000000000000000000000000000000000000000000000000000000000063432313631340000000000000000000000000000000000000000000000000000",
          "blockHash": "0x0a18f5977e5f3210b06bdcf31e4f6cc9f6b605ab078b4c31b461a13f1530579b",
          "blockNumber": "0x5e1fa55",
          "transactionHash": "0xf0cc13c04be064438b147ec5d6d0d0f2a0484030e03bfcab071f0fc6db307407",
          "transactionIndex": "0x3",
          "logIndex": "0xf",
          "removed": false
        }
      ],
      "logsBloom": "0x00000000000000000000000000000000000001000000000000000000400000000000000000000000000000000000000000000000000000000000008400000000000010000000000000000440000000000000000000000010000000000000000000000000020200000000008000000800000000800000000000000000000000000000000000000000400000000000041210000a00000000000000000000400000000000000000000000040000000002000000002000000000000010000240000000000000000000000002000000000000000000000000000000000000400020000000000000000000020000000000000000020000000000000000000000200000",
      "type": "0x2",
      "transactionHash": "0xf0cc13c04be064438b147ec5d6d0d0f2a0484030e03bfcab071f0fc6db307407",
      "transactionIndex": "0x3",
      "blockHash": "0x0a18f5977e5f3210b06bdcf31e4f6cc9f6b605ab078b4c31b461a13f1530579b",
      "blockNumber": "0x5e1fa55",
      "gasUsed": "0xcfd7e",
      "effectiveGasPrice": "0x5f5e100",
      "from": "0xe62ab4d111f968660c6b2188046f9b9ba53c4bae",
      "to": "0x386ed9c1a214cc8700af43f4a39df8c722176e01",
      "contractAddress": null,
      "gasUsedForL1": "0x2c5bf",
      "l1BlockNumber": "0x6c7e36"
    }
  ],
  "libraries": [],
  "pending": [],
  "returns": {},
  "timestamp": 1732033904,
  "chain": 421614,
  "commit": "b96f5048"
}