{
  "transactions": [
    {
      "hash": "0x0aa8d471f9fbc9d805fbbb484f50a8843e15193bcedcafe723a0b3ac8e924126",
      "transactionType": "CALL",
      "contractName": null,
      "contractAddress": "0x92829288c6aa874c1a0f190da35a4023c22be637",
      "function": "approve(address,uint256)",
      "arguments": [
        "0x386ed9c1a214Cc8700AF43F4a39df8c722176e01",
        "10000000000"
      ],
      "transaction": {
        "from": "0xe62ab4d111f968660c6b2188046f9b9ba53c4bae",
        "to": "0x92829288c6aa874c1a0f190da35a4023c22be637",
        "gas": "0xe5a3",
        "value": "0x0",
        "input": "0x095ea7b3000000000000000000000000386ed9c1a214cc8700af43f4a39df8c722176e0100000000000000000000000000000000000000000000000000000002540be400",
        "nonce": "0x3dd",
        "chainId": "0x66eee"
      },
      "additionalContracts": [],
      "isFixedGasLimit": false
    },
    {
      "hash": "0xa2effb61665a31effbc9a2294370c1714902b17e624b3d66b24953e7190119dc",
      "transactionType": "CALL",
      "contractName": null,
      "contractAddress": "0x386ed9c1a214cc8700af43f4a39df8c722176e01",
      "function": "transferFromX(uint256,string,string,uint256,uint256,string)",
      "arguments": [
        "1",
        "0xe62ab4d111f968660c6b2188046f9b9ba53c4bae",
        "84532",
        "50",
        "31255904907791744662490374133141019095649941482209478087102547804664171463538",
        "0x92829288c6aa874c1a0f190da35a4023c22be637"
      ],
      "transaction": {
        "from": "0xe62ab4d111f968660c6b2188046f9b9ba53c4bae",
        "to": "0x386ed9c1a214cc8700af43f4a39df8c722176e01",
        "gas": "0x757d8",
        "value": "0x0",
        "input": "0xef69d6b2000000000000000000000000000000000000000000000000000000000000000100000000000000000000000000000000000000000000000000000000000000c000000000000000000000000000000000000000000000000000000000000001200000000000000000000000000000000000000000000000000000000000000032451a371b4af672ab00aa7d7bd6ba214608a746064097ba9027b05c8e6e7603720000000000000000000000000000000000000000000000000000000000000160000000000000000000000000000000000000000000000000000000000000002a3078653632616234643131316639363836363063366232313838303436663962396261353363346261650000000000000000000000000000000000000000000000000000000000000000000000000000000000000000000000000000000000053834353332000000000000000000000000000000000000000000000000000000000000000000000000000000000000000000000000000000000000000000002a30783932383239323838633661613837346331613066313930646133356134303233633232626536333700000000000000000000000000000000000000000000",
        "nonce": "0x3de",
        "chainId": "0x66eee"
      },
      "additionalContracts": [],
      "isFixedGasLimit": false
    }
  ],
  "receipts": [
    {
      "status": "0x1",
      "cumulativeGasUsed": "0x9f4b",
      "logs": [
        {
          "address": "0x92829288c6aa874c1a0f190da35a4023c22be637",
          "topics": [
            "0x8c5be1e5ebec7d5bd14f71427d1e84f3dd0314c0f7b2291e5b200ac8c7c3b925",
            "0x000000000000000000000000e62ab4d111f968660c6b2188046f9b9ba53c4bae",
            "0x000000000000000000000000386ed9c1a214cc8700af43f4a39df8c722176e01"
          ],
          "data": "0x00000000000000000000000000000000000000000000000000000002540be400",
          "blockHash": "0x34f643cbe76d61852d0baa75bfd76e9cdb75b5893ad986e878b2c943a5f4f944",
          "blockNumber": "0x5e22780",
          "transactionHash": "0x0aa8d471f9fbc9d805fbbb484f50a8843e15193bcedcafe723a0b3ac8e924126",
          "transactionIndex": "0x1",
          "logIndex": "0x0",
          "removed": false
        }
      ],
      "logsBloom": "0x20000000000000000004000000000000000000000000000000000000000000000000000000000000000000001000000000000000000000000000000000200000000000000000000000000000000000000000000000000000000000000000000000000000400000000000000000000000000000000000000000000000000000000000000000000000000000000000040000000000000000000000000000020040020000000000000000000000000000000000000000000000000000000000000000000000000000000000000000000000000000001000000000000000010000000010000000000000000000000000000000000000000000000000000000000000",
      "type": "0x2",
      "transactionHash": "0x0aa8d471f9fbc9d805fbbb484f50a8843e15193bcedcafe723a0b3ac8e924126",
      "transactionIndex": "0x1",
      "blockHash": "0x34f643cbe76d61852d0baa75bfd76e9cdb75b5893ad986e878b2c943a5f4f944",
      "blockNumber": "0x5e22780",
      "gasUsed": "0x9f4b",
      "effectiveGasPrice": "0x5f5e100",
      "from": "0xe62ab4d111f968660c6b2188046f9b9ba53c4bae",
      "to": "0x92829288c6aa874c1a0f190da35a4023c22be637",
      "contractAddress": null,
      "gasUsedForL1": "0x3887",
      "l1BlockNumber": "0x6c7f30"
    },
    {
      "status": "0x1",
      "cumulativeGasUsed": "0x73f34",
      "logs": [
        {
          "address": "0x770c70d44c0c7b5b7d805077b66daadc00480fbc",
          "topics": [
            "0x88ca677ce66cb94eb6b03d7e06b1735c23eafde3090030bf7fb84711690a287e",
            "0x000000000000000000000000000000000000000000000000000000000000002d",
            "0x79f071337dc592f7ad7de31025002f55c784c083d54e1fabb80e9b07c80371e0"
          ],
          "data": "0x000000000000000000000000386ed9c1a214cc8700af43f4a39df8c722176e0100000000000000000000000000000000000000000000000000000000000000a000000000000000000000000000000000000000000000000000000000000000e00000000000000000000000000000000000000000000000000000000000000140000000000000000000000000000000000000000000000000000000000000038000000000000000000000000000000000000000000000000000000000000000053834353332000000000000000000000000000000000000000000000000000000000000000000000000000000000000000000000000000000000000000000002a307836366237313963343839313933353934633631373830316536373131393935396364313562363361000000000000000000000000000000000000000000000000000000000000000000000000000000000000000000000000000000000204304194d1451a371b4af672ab00aa7d7bd6ba214608a746064097ba9027b05c8e6e76037200000000000000000000000000000000000000000000000000000000000000e0000000000000000000000000000000000000000000000000000000000000014000000000000000000000000000000000000000000000000000000000000000010000000000000000000000000000000000000000000000000000000000000005000000000000000000000000000000000000000000000000000000000000003200000000000000000000000000000000000000000000000000000000000001a0000000000000000000000000000000000000000000000000000000000000002a30786536326162346431313166393638363630633662323138383034366639623962613533633462616500000000000000000000000000000000000000000000000000000000000000000000000000000000000000000000000000000000002a30786536326162346431313166393638363630633662323138383034366639623962613533633462616500000000000000000000000000000000000000000000000000000000000000000000000000000000000000000000000000000000002a30786466393631613034363138623834333966326131303431333731353466623065666265613037323400000000000000000000000000000000000000000000000000000000000000000000000000000000000000000000000000000000000000000000000000000000000000000000000000000000000000000000",
          "blockHash": "0x7e595c805b783a1eebecba8a3390045355ae52bf3bb3711a87a2e139664a5006",
          "blockNumber": "0x5e22785",
          "transactionHash": "0xa2effb61665a31effbc9a2294370c1714902b17e624b3d66b24953e7190119dc",
          "transactionIndex": "0x2",
          "logIndex": "0x0",
          "removed": false
        }
      ],
      "logsBloom": "0x00000000000000000000000000000000000001000000000000000000400000000000000000000000000000000000000000000000000000000000008400000000000000000000000000000040000000000000000000000000000000000000000000000000000000000000008000000000000000000100000000000000000000000000000000800000000000000000000000000000000000000000000000000000000000000000000000000000000000000000002000000000000010000000000000000000000000000000000000000000000000000000000000000000400000000000000000000200000000000000000000000000000000000000000000000000",
      "type": "0x2",
      "transactionHash": "0xa2effb61665a31effbc9a2294370c1714902b17e624b3d66b24953e7190119dc",
      "transactionIndex": "0x2",
      "blockHash": "0x7e595c805b783a1eebecba8a3390045355ae52bf3bb3711a87a2e139664a5006",
      "blockNumber": "0x5e22785",
      "gasUsed": "0x57e99",
      "effectiveGasPrice": "0x5f5e100",
      "from": "0xe62ab4d111f968660c6b2188046f9b9ba53c4bae",
      "to": "0x386ed9c1a214cc8700af43f4a39df8c722176e01",
      "contractAddress": null,
      "gasUsedForL1": "0x7425",
      "l1BlockNumber": "0x6c7f30"
    }
  ],
  "libraries": [],
  "pending": [],
  "returns": {},
  "timestamp": 1732037196,
  "chain": 421614,
  "commit": "b96f5048"
}