{
  "transactions": [
    {
      "hash": "0x9a6e35bc8a5b98054a089f0e10f9852e55deac4415e9ea1312a884005755bfeb",
      "transactionType": "CALL",
      "contractName": null,
      "contractAddress": "0x22D305a430b57a12D569f1e578B9F2f7613f92F8",
      "function": "mintNewTokenValueLocal(address,uint256,uint256,uint256,uint256)",
      "arguments": [
        "0xe62Ab4D111f968660C6B2188046F9B9bA53C4Bae",
        "0",
        "0",
        "1450",
        "77584703649289707259697594429131521757455372367565608163693872618853593546484"
      ],
      "transaction": {
        "from": "0xe62Ab4D111f968660C6B2188046F9B9bA53C4Bae",
        "to": "0x22D305a430b57a12D569f1e578B9F2f7613f92F8",
        "gas": "0x9380d",
        "value": "0x0",
        "input": "0xd299e54a000000000000000000000000e62ab4d111f968660c6b2188046f9b9ba53c4bae0000000000000000000000000000000000000000000000000000000000000000000000000000000000000000000000000000000000000000000000000000000000000000000000000000000000000000000000000000000000000000000005aaab8762d7c087244331b3f5d1e4f5a7390bc6dcc78e476024d775dd9e62547ef4",
        "nonce": "0x171",
        "chainId": "0x66eee"
      },
      "additionalContracts": [],
      "isFixedGasLimit": false
    },
    {
      "hash": "0x4b77f56ceb66c07a89b4b3874721f38adb21e009962caa761ca85aa0ee809e69",
      "transactionType": "CALL",
      "contractName": null,
      "contractAddress": "0x22D305a430b57a12D569f1e578B9F2f7613f92F8",
      "function": "deployAllCTMRWA001X(bool,uint256,uint256,uint256,string,string,uint8,string,string[],string)",
      "arguments": [
        "false",
        "77584703649289707259697594429131521757455372367565608163693872618853593546484",
        "1",
        "1",
        "Selqui SQ1",
        "SQ1",
        "18",
        "/Selqui",
        "[97]",
        "0x1ee4ba474da815f728df08f0147defac07f0bab3"
      ],
      "transaction": {
        "from": "0xe62Ab4D111f968660C6B2188046F9B9bA53C4Bae",
        "to": "0x22D305a430b57a12D569f1e578B9F2f7613f92F8",
        "gas": "0x957fc",
        "value": "0x0",
        "input": "0xa3d8f8500000000000000000000000000000000000000000000000000000000000000000ab8762d7c087244331b3f5d1e4f5a7390bc6dcc78e476024d775dd9e62547ef40000000000000000000000000000000000000000000000000000000000000001000000000000000000000000000000000000000000000000000000000000000100000000000000000000000000000000000000000000000000000000000001400000000000000000000000000000000000000000000000000000000000000180000000000000000000000000000000000000000000000000000000000000001200000000000000000000000000000000000000000000000000000000000001c000000000000000000000000000000000000000000000000000000000000002000000000000000000000000000000000000000000000000000000000000000280000000000000000000000000000000000000000000000000000000000000000a53656c71756920535131000000000000000000000000000000000000000000000000000000000000000000000000000000000000000000000000000000000003535131000000000000000000000000000000000000000000000000000000000000000000000000000000000000000000000000000000000000000000000000072f53656c717569000000000000000000000000000000000000000000000000000000000000000000000000000000000000000000000000000000000000000001000000000000000000000000000000000000000000000000000000000000002000000000000000000000000000000000000000000000000000000000000000023937000000000000000000000000000000000000000000000000000000000000000000000000000000000000000000000000000000000000000000000000002a30783165653462613437346461383135663732386466303866303134376465666163303766306261623300000000000000000000000000000000000000000000",
        "nonce": "0x172",
        "chainId": "0x66eee"
      },
      "additionalContracts": [],
      "isFixedGasLimit": false
    }
  ],
  "receipts": [
    {
      "status": "0x1",
      "cumulativeGasUsed": "0x6dcf6",
      "logs": [
        {
          "address": "0x6fDDeA7fC897276Fe361dDdF2D578a4e3479BCbE",
          "topics": [
            "0xe4f48c240d3b994948aa54f3e2f5fca59263dfe1d52b6e4cf39a5d249b5ccb65",
            "0x0000000000000000000000000000000000000000000000000000000000000000",
            "0x0000000000000000000000000000000000000000000000000000000000000000",
            "0x0000000000000000000000000000000000000000000000000000000000000000"
          ],
          "data": "0x",
          "blockHash": "0x338ff48fedc8eb3267a838af6b32e6daf26f345609d61bbbeb32cef057a627c1",
          "blockNumber": "0x54430f0",
          "transactionHash": "0x9a6e35bc8a5b98054a089f0e10f9852e55deac4415e9ea1312a884005755bfeb",
          "transactionIndex": "0x1",
          "logIndex": "0x0",
          "removed": false
        },
        {
          "address": "0x6fDDeA7fC897276Fe361dDdF2D578a4e3479BCbE",
          "topics": [
            "0xddf252ad1be2c89b69c2b068fc378daa952ba7f163c4a11628f55a4df523b3ef",
            "0x0000000000000000000000000000000000000000000000000000000000000000",
            "0x000000000000000000000000e62ab4d111f968660c6b2188046f9b9ba53c4bae",
            "0x0000000000000000000000000000000000000000000000000000000000000001"
          ],
          "data": "0x",
          "blockHash": "0x338ff48fedc8eb3267a838af6b32e6daf26f345609d61bbbeb32cef057a627c1",
          "blockNumber": "0x54430f0",
          "transactionHash": "0x9a6e35bc8a5b98054a089f0e10f9852e55deac4415e9ea1312a884005755bfeb",
          "transactionIndex": "0x1",
          "logIndex": "0x1",
          "removed": false
        },
        {
          "address": "0x6fDDeA7fC897276Fe361dDdF2D578a4e3479BCbE",
          "topics": [
            "0xe4f48c240d3b994948aa54f3e2f5fca59263dfe1d52b6e4cf39a5d249b5ccb65",
            "0x0000000000000000000000000000000000000000000000000000000000000001",
            "0x0000000000000000000000000000000000000000000000000000000000000000",
            "0x0000000000000000000000000000000000000000000000000000000000000000"
          ],
          "data": "0x",
          "blockHash": "0x338ff48fedc8eb3267a838af6b32e6daf26f345609d61bbbeb32cef057a627c1",
          "blockNumber": "0x54430f0",
          "transactionHash": "0x9a6e35bc8a5b98054a089f0e10f9852e55deac4415e9ea1312a884005755bfeb",
          "transactionIndex": "0x1",
          "logIndex": "0x2",
          "removed": false
        },
        {
          "address": "0x6fDDeA7fC897276Fe361dDdF2D578a4e3479BCbE",
          "topics": [
            "0x0b2aac84f3ec956911fd78eae5311062972ff949f38412e8da39069d9f068cc6",
            "0x0000000000000000000000000000000000000000000000000000000000000000",
            "0x0000000000000000000000000000000000000000000000000000000000000001"
          ],
          "data": "0x00000000000000000000000000000000000000000000000000000000000005aa",
          "blockHash": "0x338ff48fedc8eb3267a838af6b32e6daf26f345609d61bbbeb32cef057a627c1",
          "blockNumber": "0x54430f0",
          "transactionHash": "0x9a6e35bc8a5b98054a089f0e10f9852e55deac4415e9ea1312a884005755bfeb",
          "transactionIndex": "0x1",
          "logIndex": "0x3",
          "removed": false
        }
      ],
      "logsBloom": "0x20000000000000000004000000000000000000000000001000000000000000000000000000000000000000000000000000000000000000000000000000040000000000000000000000000008000000000040000000040000000000000000000008000000020000000000000000000800000000000000000000000010000000000000000000000000400000000000040000000000000000000000000000000000000000000000000000000000000002000000000000000000000000000000000000000002000000000002000000000000000000000000000000000000000060000000000000000000000000000000000200000000000041000000000000000000",
      "type": "0x2",
      "transactionHash": "0x9a6e35bc8a5b98054a089f0e10f9852e55deac4415e9ea1312a884005755bfeb",
      "transactionIndex": "0x1",
      "blockHash": "0x338ff48fedc8eb3267a838af6b32e6daf26f345609d61bbbeb32cef057a627c1",
      "blockNumber": "0x54430f0",
      "gasUsed": "0x6dcf6",
      "effectiveGasPrice": "0x5f5e100",
      "from": "0xe62Ab4D111f968660C6B2188046F9B9bA53C4Bae",
      "to": "0x22D305a430b57a12D569f1e578B9F2f7613f92F8",
      "contractAddress": null,
      "gasUsedForL1": "0x8f40",
      "l1BlockNumber": "0x68ceee"
    },
    {
      "status": "0x1",
      "cumulativeGasUsed": "0x6f14e",
      "logs": [
        {
          "address": "0x770c70D44C0c7b5B7D805077B66daADC00480FbC",
          "topics": [
            "0x88ca677ce66cb94eb6b03d7e06b1735c23eafde3090030bf7fb84711690a287e",
            "0x000000000000000000000000000000000000000000000000000000000000002d",
            "0x6a0161501802aba8875c3060142cd39da5611264b960c479fc43ef3612735fa9"
          ],
          "data": "0x00000000000000000000000022d305a430b57a12d569f1e578b9f2f7613f92f800000000000000000000000000000000000000000000000000000000000000a000000000000000000000000000000000000000000000000000000000000000e00000000000000000000000000000000000000000000000000000000000000140000000000000000000000000000000000000000000000000000000000000042000000000000000000000000000000000000000000000000000000000000000023937000000000000000000000000000000000000000000000000000000000000000000000000000000000000000000000000000000000000000000000000002a3078663363633039343562373636663239366137666637623562353238323033373661323332326633390000000000000000000000000000000000000000000000000000000000000000000000000000000000000000000000000000000002a43d9ab49f0000000000000000000000000000000000000000000000000000000000000120ab8762d7c087244331b3f5d1e4f5a7390bc6dcc78e476024d775dd9e62547ef400000000000000000000000000000000000000000000000000000000000000010000000000000000000000000000000000000000000000000000000000000001000000000000000000000000000000000000000000000000000000000000018000000000000000000000000000000000000000000000000000000000000001c0000000000000000000000000000000000000000000000000000000000000001200000000000000000000000000000000000000000000000000000000000002000000000000000000000000000000000000000000000000000000000000000240000000000000000000000000000000000000000000000000000000000000002a30786536326162346431313166393638363630633662323138383034366639623962613533633462616500000000000000000000000000000000000000000000000000000000000000000000000000000000000000000000000000000000000a53656c71756920535131000000000000000000000000000000000000000000000000000000000000000000000000000000000000000000000000000000000003535131000000000000000000000000000000000000000000000000000000000000000000000000000000000000000000000000000000000000000000000000072f53656c71756900000000000000000000000000000000000000000000000000000000000000000000000000000000000000000000000000000000000000002a30783666646465613766633839373237366665333631646464663264353738613465333437396263626500000000000000000000000000000000000000000000000000000000000000000000000000000000000000000000000000000000000000000000000000000000000000000000000000000000000000000000",
          "blockHash": "0x0f5b7aef3a4fd77ef45252e4f179bdc9a5ac64c7ee23d53e0563a5207d3cbd11",
          "blockNumber": "0x544310a",
          "transactionHash": "0x4b77f56ceb66c07a89b4b3874721f38adb21e009962caa761ca85aa0ee809e69",
          "transactionIndex": "0x1",
          "logIndex": "0x0",
          "removed": false
        }
      ],
      "logsBloom": "0x00000000000000000000000000000000000001000000000000000000400000000000000000000000000000000000000000000000000000000000008400000000000000000000000000000040000000000000000000000000000000000000400000000000001000000000008000000000000000000000000000000000000000000000000000000000000000000000000000000000000000000000000000000000000000000000000000000000000000000000002000000004000010000000000000000000000000000000000000000000000000000000000000000000400000000000000000000000000000000000000000000000000000000000000000000000",
      "type": "0x2",
      "transactionHash": "0x4b77f56ceb66c07a89b4b3874721f38adb21e009962caa761ca85aa0ee809e69",
      "transactionIndex": "0x1",
      "blockHash": "0x0f5b7aef3a4fd77ef45252e4f179bdc9a5ac64c7ee23d53e0563a5207d3cbd11",
      "blockNumber": "0x544310a",
      "gasUsed": "0x6f14e",
      "effectiveGasPrice": "0x5f5e100",
      "from": "0xe62Ab4D111f968660C6B2188046F9B9bA53C4Bae",
      "to": "0x22D305a430b57a12D569f1e578B9F2f7613f92F8",
      "contractAddress": null,
      "gasUsedForL1": "0xc3a2",
      "l1BlockNumber": "0x68ceef"
    }
  ],
  "libraries": [],
  "pending": [],
  "returns": {},
  "timestamp": 1728828910,
  "chain": 421614,
  "commit": "5b540a48"
}