{
  "transactions": [
    {
      "hash": "0x102a6137b83ee20a333a3dadf953a5bcf981a6386cc894f0d47000e5138e6cf6",
      "transactionType": "CALL",
      "contractName": null,
      "contractAddress": "0xD2499F70542D598fE7679cD439A4cbA16e5b2BF9",
      "function": "transferFromX(uint256,string,string,uint256,uint256,string)",
      "arguments": [
        "1",
        "0xe62ab4d111f968660c6b2188046f9b9ba53c4bae",
        "97",
        "50",
        "9147904968889482208907034084512527252405720098827985479629846851769439457642",
        "0x1ee4ba474da815f728df08f0147defac07f0bab3"
      ],
      "transaction": {
        "from": "0xe62Ab4D111f968660C6B2188046F9B9bA53C4Bae",
        "to": "0xD2499F70542D598fE7679cD439A4cbA16e5b2BF9",
        "gas": "0x6ada4",
        "value": "0x0",
        "input": "0xef69d6b2000000000000000000000000000000000000000000000000000000000000000100000000000000000000000000000000000000000000000000000000000000c000000000000000000000000000000000000000000000000000000000000001200000000000000000000000000000000000000000000000000000000000000032143987ddc3dcde0050eebe55372cab7be1f7947f7d2da8555b25b506d5ed916a0000000000000000000000000000000000000000000000000000000000000160000000000000000000000000000000000000000000000000000000000000002a3078653632616234643131316639363836363063366232313838303436663962396261353363346261650000000000000000000000000000000000000000000000000000000000000000000000000000000000000000000000000000000000023937000000000000000000000000000000000000000000000000000000000000000000000000000000000000000000000000000000000000000000000000002a30783165653462613437346461383135663732386466303866303134376465666163303766306261623300000000000000000000000000000000000000000000",
        "nonce": "0x19d",
        "chainId": "0x66eee"
      },
      "additionalContracts": [],
      "isFixedGasLimit": false
    }
  ],
  "receipts": [
    {
      "status": "0x1",
      "cumulativeGasUsed": "0x50f68",
      "logs": [
        {
          "address": "0x770c70D44C0c7b5B7D805077B66daADC00480FbC",
          "topics": [
            "0x88ca677ce66cb94eb6b03d7e06b1735c23eafde3090030bf7fb84711690a287e",
            "0x000000000000000000000000000000000000000000000000000000000000002d",
            "0x6eece87740c7de6d562b6125cbcc40385baca496b351129e2624e6bb003679ea"
          ],
          "data": "0x000000000000000000000000d2499f70542d598fe7679cd439a4cba16e5b2bf900000000000000000000000000000000000000000000000000000000000000a000000000000000000000000000000000000000000000000000000000000000e00000000000000000000000000000000000000000000000000000000000000140000000000000000000000000000000000000000000000000000000000000032000000000000000000000000000000000000000000000000000000000000000023937000000000000000000000000000000000000000000000000000000000000000000000000000000000000000000000000000000000000000000000000002a3078333566623438303462663964633032613732633761313039333830333638646161666634356635640000000000000000000000000000000000000000000000000000000000000000000000000000000000000000000000000000000001a4304194d1143987ddc3dcde0050eebe55372cab7be1f7947f7d2da8555b25b506d5ed916a00000000000000000000000000000000000000000000000000000000000000e00000000000000000000000000000000000000000000000000000000000000140000000000000000000000000000000000000000000000000000000000000000100000000000000000000000000000000000000000000000000000000000000000000000000000000000000000000000000000000000000000000000000000032000000000000000000000000b3acf97717dae3c0767287328394eb7cefc79d4d000000000000000000000000000000000000000000000000000000000000002a30786536326162346431313166393638363630633662323138383034366639623962613533633462616500000000000000000000000000000000000000000000000000000000000000000000000000000000000000000000000000000000002a30786536326162346431313166393638363630633662323138383034366639623962613533633462616500000000000000000000000000000000000000000000000000000000000000000000000000000000000000000000000000000000000000000000000000000000000000000000000000000000000000000000",
          "blockHash": "0x8a0d2b254488d46c3ef8c826da7987485cd981079852dd970012b67c8240829f",
          "blockNumber": "0x550e323",
          "transactionHash": "0x102a6137b83ee20a333a3dadf953a5bcf981a6386cc894f0d47000e5138e6cf6",
          "transactionIndex": "0x1",
          "logIndex": "0x0",
          "removed": false
        }
      ],
      "logsBloom": "0x00000002000000000000000000000000000001000000000000000000400000000000000000000002000000000000000000000000000000000000008400000000100000000000000000000040000000000000000000000000000000000000000000000000000000000000008000000000000000000000000000000000000000000000000000000000000000000000000000000000000000000000000000000000000000000000000000000000000000000000002000000000000010000000000000000000000000000000000000000000000000000000000000000000400000000000000000000000000000000000000000000000000000000000000000000000",
      "type": "0x2",
      "transactionHash": "0x102a6137b83ee20a333a3dadf953a5bcf981a6386cc894f0d47000e5138e6cf6",
      "transactionIndex": "0x1",
      "blockHash": "0x8a0d2b254488d46c3ef8c826da7987485cd981079852dd970012b67c8240829f",
      "blockNumber": "0x550e323",
      "gasUsed": "0x50f68",
      "effectiveGasPrice": "0x5f5e100",
      "from": "0xe62Ab4D111f968660C6B2188046F9B9bA53C4Bae",
      "to": "0xD2499F70542D598fE7679cD439A4cbA16e5b2BF9",
      "contractAddress": null,
      "gasUsedForL1": "0x15ed",
      "l1BlockNumber": "0x6917ab"
    }
  ],
  "libraries": [],
  "pending": [],
  "returns": {},
  "timestamp": 1729096790,
  "chain": 421614,
  "commit": "7d051dd0"
}