{
  "transactions": [
    {
      "hash": "0xb4fbe69e30a42969b2c91e7a8a6b07771b20f8030cfcfe202f34edb8c5cb2539",
      "transactionType": "CALL",
      "contractName": null,
      "contractAddress": "0x22D305a430b57a12D569f1e578B9F2f7613f92F8",
      "function": "transferFromX(uint256,string,string,uint256,uint256,string)",
      "arguments": [
        "1",
        "0xe62ab4d111f968660c6b2188046f9b9ba53c4bae",
        "97",
        "50",
        "77584703649289707259697594429131521757455372367565608163693872618853593546484",
        "0x1ee4ba474da815f728df08f0147defac07f0bab3"
      ],
      "transaction": {
        "from": "0xe62Ab4D111f968660C6B2188046F9B9bA53C4Bae",
        "to": "0x22D305a430b57a12D569f1e578B9F2f7613f92F8",
        "gas": "0x72c7a",
        "value": "0x0",
        "input": "0xef69d6b2000000000000000000000000000000000000000000000000000000000000000100000000000000000000000000000000000000000000000000000000000000c000000000000000000000000000000000000000000000000000000000000001200000000000000000000000000000000000000000000000000000000000000032ab8762d7c087244331b3f5d1e4f5a7390bc6dcc78e476024d775dd9e62547ef40000000000000000000000000000000000000000000000000000000000000160000000000000000000000000000000000000000000000000000000000000002a3078653632616234643131316639363836363063366232313838303436663962396261353363346261650000000000000000000000000000000000000000000000000000000000000000000000000000000000000000000000000000000000023937000000000000000000000000000000000000000000000000000000000000000000000000000000000000000000000000000000000000000000000000002a30783165653462613437346461383135663732386466303866303134376465666163303766306261623300000000000000000000000000000000000000000000",
        "nonce": "0x173",
        "chainId": "0x66eee"
      },
      "additionalContracts": [],
      "isFixedGasLimit": false
    }
  ],
  "receipts": [
    {
      "status": "0x1",
      "cumulativeGasUsed": "0x55e89",
      "logs": [
        {
          "address": "0x770c70D44C0c7b5B7D805077B66daADC00480FbC",
          "topics": [
            "0x88ca677ce66cb94eb6b03d7e06b1735c23eafde3090030bf7fb84711690a287e",
            "0x000000000000000000000000000000000000000000000000000000000000002d",
            "0x44e197259e8e61863685d3d644f54ffc5ede67a8b7aa0c68910c7d9454b04629"
          ],
          "data": "0x00000000000000000000000022d305a430b57a12d569f1e578b9f2f7613f92f800000000000000000000000000000000000000000000000000000000000000a000000000000000000000000000000000000000000000000000000000000000e00000000000000000000000000000000000000000000000000000000000000140000000000000000000000000000000000000000000000000000000000000032000000000000000000000000000000000000000000000000000000000000000023937000000000000000000000000000000000000000000000000000000000000000000000000000000000000000000000000000000000000000000000000002a3078663363633039343562373636663239366137666637623562353238323033373661323332326633390000000000000000000000000000000000000000000000000000000000000000000000000000000000000000000000000000000001a4304194d1ab8762d7c087244331b3f5d1e4f5a7390bc6dcc78e476024d775dd9e62547ef400000000000000000000000000000000000000000000000000000000000000e000000000000000000000000000000000000000000000000000000000000001400000000000000000000000000000000000000000000000000000000000000001000000000000000000000000000000000000000000000000000000000000000000000000000000000000000000000000000000000000000000000000000000320000000000000000000000006fddea7fc897276fe361dddf2d578a4e3479bcbe000000000000000000000000000000000000000000000000000000000000002a30786536326162346431313166393638363630633662323138383034366639623962613533633462616500000000000000000000000000000000000000000000000000000000000000000000000000000000000000000000000000000000002a30786536326162346431313166393638363630633662323138383034366639623962613533633462616500000000000000000000000000000000000000000000000000000000000000000000000000000000000000000000000000000000000000000000000000000000000000000000000000000000000000000000",
          "blockHash": "0x36df22c626dc3ab083ebfc2ba8885f8d5be22d083d717ab1032707c1697a0b63",
          "blockNumber": "0x5446e99",
          "transactionHash": "0xb4fbe69e30a42969b2c91e7a8a6b07771b20f8030cfcfe202f34edb8c5cb2539",
          "transactionIndex": "0x1",
          "logIndex": "0x0",
          "removed": false
        }
      ],
      "logsBloom": "0x00000000000000000000000000000000000001000000000000000000400000000000000000000000000000000000100000000000000000000000008400000000000000000000000000000040000000000000000000000000000000000000000000000000000000000000008000000000000000000000000000000000000000000000000000000000000000000000000000000000000000000002000000000000000000000000000000000000000000000000002000000000000010000000000000000000080000000000000000000000000000000000000000000000400000000000000000000000000000000000000000000000000000000000000000000000",
      "type": "0x2",
      "transactionHash": "0xb4fbe69e30a42969b2c91e7a8a6b07771b20f8030cfcfe202f34edb8c5cb2539",
      "transactionIndex": "0x1",
      "blockHash": "0x36df22c626dc3ab083ebfc2ba8885f8d5be22d083d717ab1032707c1697a0b63",
      "blockNumber": "0x5446e99",
      "gasUsed": "0x55e89",
      "effectiveGasPrice": "0x5f5e100",
      "from": "0xe62Ab4D111f968660C6B2188046F9B9bA53C4Bae",
      "to": "0x22D305a430b57a12D569f1e578B9F2f7613f92F8",
      "contractAddress": null,
      "gasUsedForL1": "0x60fa",
      "l1BlockNumber": "0x68d058"
    }
  ],
  "libraries": [],
  "pending": [],
  "returns": {},
  "timestamp": 1728833996,
  "chain": 421614,
  "commit": "5b540a48"
}