{
  "transactions": [
    {
      "hash": "0xfda507bf9950905ca3acf6578879952150b977177d454ef7eca8b5cba7d20ece",
      "transactionType": "CALL",
      "contractName": null,
      "contractAddress": "0x5330db730fAb0Bf0bB9db2FCefe7b1876c09a242",
      "function": "mintNewTokenValueLocal(address,uint256,uint256,uint256,uint256)",
      "arguments": [
        "0xe62Ab4D111f968660C6B2188046F9B9bA53C4Bae",
        "0",
        "0",
        "1450",
        "99684070135934630131606551487381759499506454134815756064540932287878103004710"
      ],
      "transaction": {
        "from": "0xe62Ab4D111f968660C6B2188046F9B9bA53C4Bae",
        "to": "0x5330db730fAb0Bf0bB9db2FCefe7b1876c09a242",
        "gas": "0x7f14b",
        "value": "0x0",
        "input": "0xd299e54a000000000000000000000000e62ab4d111f968660c6b2188046f9b9ba53c4bae0000000000000000000000000000000000000000000000000000000000000000000000000000000000000000000000000000000000000000000000000000000000000000000000000000000000000000000000000000000000000000000005aadc632f2cbcd6a6080b87de81d8998e0444d14247d31b6c8a9500846f05ab7626",
        "nonce": "0x1be",
        "chainId": "0x66eee"
      },
      "additionalContracts": [],
      "isFixedGasLimit": false
    },
    {
      "hash": "0xb6beb6a4dd929d0fc315a13924dfae787c5831b2fb8ba12e8a9d7f6aba80529d",
      "transactionType": "CALL",
      "contractName": null,
      "contractAddress": "0x5330db730fAb0Bf0bB9db2FCefe7b1876c09a242",
      "function": "deployAllCTMRWA001X(bool,uint256,uint256,uint256,string,string,uint8,string,string[],string)",
      "arguments": [
        "false",
        "99684070135934630131606551487381759499506454134815756064540932287878103004710",
        "1",
        "1",
        "Selqui SQ1",
        "SQ1",
        "18",
        "/Selqui",
        "[200810]",
        "0x1ee4ba474da815f728df08f0147defac07f0bab3"
      ],
      "transaction": {
        "from": "0xe62Ab4D111f968660C6B2188046F9B9bA53C4Bae",
        "to": "0x5330db730fAb0Bf0bB9db2FCefe7b1876c09a242",
        "gas": "0x896ae",
        "value": "0x0",
        "input": "0xa3d8f8500000000000000000000000000000000000000000000000000000000000000000dc632f2cbcd6a6080b87de81d8998e0444d14247d31b6c8a9500846f05ab76260000000000000000000000000000000000000000000000000000000000000001000000000000000000000000000000000000000000000000000000000000000100000000000000000000000000000000000000000000000000000000000001400000000000000000000000000000000000000000000000000000000000000180000000000000000000000000000000000000000000000000000000000000001200000000000000000000000000000000000000000000000000000000000001c000000000000000000000000000000000000000000000000000000000000002000000000000000000000000000000000000000000000000000000000000000280000000000000000000000000000000000000000000000000000000000000000a53656c71756920535131000000000000000000000000000000000000000000000000000000000000000000000000000000000000000000000000000000000003535131000000000000000000000000000000000000000000000000000000000000000000000000000000000000000000000000000000000000000000000000072f53656c717569000000000000000000000000000000000000000000000000000000000000000000000000000000000000000000000000000000000000000001000000000000000000000000000000000000000000000000000000000000002000000000000000000000000000000000000000000000000000000000000000063230303831300000000000000000000000000000000000000000000000000000000000000000000000000000000000000000000000000000000000000000002a30783165653462613437346461383135663732386466303866303134376465666163303766306261623300000000000000000000000000000000000000000000",
        "nonce": "0x1bf",
        "chainId": "0x66eee"
      },
      "additionalContracts": [],
      "isFixedGasLimit": false
    }
  ],
  "receipts": [
    {
      "status": "0x1",
      "cumulativeGasUsed": "0x60286",
      "logs": [
        {
          "address": "0x19DB4512F9798ebfE0beB4df67540403E5dAF0bA",
          "topics": [
            "0xddf252ad1be2c89b69c2b068fc378daa952ba7f163c4a11628f55a4df523b3ef",
            "0x0000000000000000000000000000000000000000000000000000000000000000",
            "0x000000000000000000000000e62ab4d111f968660c6b2188046f9b9ba53c4bae",
            "0x0000000000000000000000000000000000000000000000000000000000000002"
          ],
          "data": "0x",
          "blockHash": "0xf3a336858f03b475ea407e0b748eb9e91d8ec0befdd11244c895ffcfba793512",
          "blockNumber": "0x554dc81",
          "transactionHash": "0xfda507bf9950905ca3acf6578879952150b977177d454ef7eca8b5cba7d20ece",
          "transactionIndex": "0x1",
          "logIndex": "0x0",
          "removed": false
        },
        {
          "address": "0x19DB4512F9798ebfE0beB4df67540403E5dAF0bA",
          "topics": [
            "0xe4f48c240d3b994948aa54f3e2f5fca59263dfe1d52b6e4cf39a5d249b5ccb65",
            "0x0000000000000000000000000000000000000000000000000000000000000002",
            "0x0000000000000000000000000000000000000000000000000000000000000000",
            "0x0000000000000000000000000000000000000000000000000000000000000000"
          ],
          "data": "0x",
          "blockHash": "0xf3a336858f03b475ea407e0b748eb9e91d8ec0befdd11244c895ffcfba793512",
          "blockNumber": "0x554dc81",
          "transactionHash": "0xfda507bf9950905ca3acf6578879952150b977177d454ef7eca8b5cba7d20ece",
          "transactionIndex": "0x1",
          "logIndex": "0x1",
          "removed": false
        },
        {
          "address": "0x19DB4512F9798ebfE0beB4df67540403E5dAF0bA",
          "topics": [
            "0x0b2aac84f3ec956911fd78eae5311062972ff949f38412e8da39069d9f068cc6",
            "0x0000000000000000000000000000000000000000000000000000000000000000",
            "0x0000000000000000000000000000000000000000000000000000000000000002"
          ],
          "data": "0x00000000000000000000000000000000000000000000000000000000000005aa",
          "blockHash": "0xf3a336858f03b475ea407e0b748eb9e91d8ec0befdd11244c895ffcfba793512",
          "blockNumber": "0x554dc81",
          "transactionHash": "0xfda507bf9950905ca3acf6578879952150b977177d454ef7eca8b5cba7d20ece",
          "transactionIndex": "0x1",
          "logIndex": "0x2",
          "removed": false
        }
      ],
      "logsBloom": "0x24000000000000000004000000000000000000000000201000000000000000000000000000000000000000000000000000000000000000000000000000000000000000000000000000000008000000000000000000000000000000000000020000000000020000000000000000000800000000000000000000000010000000000000000000000000400000000000040100000000000000000000000000000000000000000000000000000100000002000000000000000000000000000000000000000002000000000002000000000000000000000000000000000000000020000000000000000000000000000000000200000000008001000000000000000000",
      "type": "0x2",
      "transactionHash": "0xfda507bf9950905ca3acf6578879952150b977177d454ef7eca8b5cba7d20ece",
      "transactionIndex": "0x1",
      "blockHash": "0xf3a336858f03b475ea407e0b748eb9e91d8ec0befdd11244c895ffcfba793512",
      "blockNumber": "0x554dc81",
      "gasUsed": "0x60286",
      "effectiveGasPrice": "0x5f5e100",
      "from": "0xe62Ab4D111f968660C6B2188046F9B9bA53C4Bae",
      "to": "0x5330db730fAb0Bf0bB9db2FCefe7b1876c09a242",
      "contractAddress": null,
      "gasUsedForL1": "0x2957",
      "l1BlockNumber": "0x692e54"
    },
    {
      "status": "0x1",
      "cumulativeGasUsed": "0x11174e",
      "logs": [
        {
          "address": "0x770c70D44C0c7b5B7D805077B66daADC00480FbC",
          "topics": [
            "0x88ca677ce66cb94eb6b03d7e06b1735c23eafde3090030bf7fb84711690a287e",
            "0x000000000000000000000000000000000000000000000000000000000000002d",
            "0x885de00c9491c6074d83ea486b619bc5f313650ea7b3be291150bc3a94a05775"
          ],
          "data": "0x0000000000000000000000005330db730fab0bf0bb9db2fcefe7b1876c09a24200000000000000000000000000000000000000000000000000000000000000a000000000000000000000000000000000000000000000000000000000000000e00000000000000000000000000000000000000000000000000000000000000140000000000000000000000000000000000000000000000000000000000000042000000000000000000000000000000000000000000000000000000000000000063230303831300000000000000000000000000000000000000000000000000000000000000000000000000000000000000000000000000000000000000000002a3078646566356433316534623265306266333861663365383039326135616266353164623438346565630000000000000000000000000000000000000000000000000000000000000000000000000000000000000000000000000000000002a43d9ab49f0000000000000000000000000000000000000000000000000000000000000120dc632f2cbcd6a6080b87de81d8998e0444d14247d31b6c8a9500846f05ab762600000000000000000000000000000000000000000000000000000000000000010000000000000000000000000000000000000000000000000000000000000001000000000000000000000000000000000000000000000000000000000000018000000000000000000000000000000000000000000000000000000000000001c0000000000000000000000000000000000000000000000000000000000000001200000000000000000000000000000000000000000000000000000000000002000000000000000000000000000000000000000000000000000000000000000240000000000000000000000000000000000000000000000000000000000000002a30786536326162346431313166393638363630633662323138383034366639623962613533633462616500000000000000000000000000000000000000000000000000000000000000000000000000000000000000000000000000000000000a53656c71756920535131000000000000000000000000000000000000000000000000000000000000000000000000000000000000000000000000000000000003535131000000000000000000000000000000000000000000000000000000000000000000000000000000000000000000000000000000000000000000000000072f53656c71756900000000000000000000000000000000000000000000000000000000000000000000000000000000000000000000000000000000000000002a30783139646234353132663937393865626665306265623464663637353430343033653564616630626100000000000000000000000000000000000000000000000000000000000000000000000000000000000000000000000000000000000000000000000000000000000000000000000000000000000000000000",
          "blockHash": "0x1291dc163d7a3b91a9e4c3a122027a537d6160a6c03dab16de88af12afb78331",
          "blockNumber": "0x554dc86",
          "transactionHash": "0xb6beb6a4dd929d0fc315a13924dfae787c5831b2fb8ba12e8a9d7f6aba80529d",
          "transactionIndex": "0x4",
          "logIndex": "0xe",
          "removed": false
        }
      ],
      "logsBloom": "0x00000000000000000000000000000000000001000040000000000000400000000000000000000000000000000000000000000000000000000000008400000000000000000000000000000040000000000000000000000000000000000000000000000000000000000000008000000000000000000000000000000000000000000000000000000000002000000000000000000000000000000000000000000000000000000000000000000000000000000000002000000000000010000000000000000000000000000000000000000000000000200000000000000000400000000000000000000000000000000000000000000000000000000000000000000000",
      "type": "0x2",
      "transactionHash": "0xb6beb6a4dd929d0fc315a13924dfae787c5831b2fb8ba12e8a9d7f6aba80529d",
      "transactionIndex": "0x4",
      "blockHash": "0x1291dc163d7a3b91a9e4c3a122027a537d6160a6c03dab16de88af12afb78331",
      "blockNumber": "0x554dc86",
      "gasUsed": "0x67e76",
      "effectiveGasPrice": "0x5f5e100",
      "from": "0xe62Ab4D111f968660C6B2188046F9B9bA53C4Bae",
      "to": "0x5330db730fAb0Bf0bB9db2FCefe7b1876c09a242",
      "contractAddress": null,
      "gasUsedForL1": "0x37e9",
      "l1BlockNumber": "0x692e54"
    }
  ],
  "libraries": [],
  "pending": [],
  "returns": {},
  "timestamp": 1729181062,
  "chain": 421614,
  "commit": "089dfaad"
}