{
  "transactions": [
    {
      "hash": "0x8d8aa0c7e777177a0341a1da51b23d620d3f00e21b07d86d39bfa756ef592693",
      "transactionType": "CALL",
      "contractName": null,
      "contractAddress": "0xA450Ae39bf325c23a45B126eD2735F02d36b9A2d",
      "function": "mintNewTokenValueLocal(address,uint256,uint256,uint256,uint256)",
      "arguments": [
        "0xe62Ab4D111f968660C6B2188046F9B9bA53C4Bae",
        "0",
        "0",
        "1450",
        "7698186379213962409701432849682795543434249731059962252441980100204726842435"
      ],
      "transaction": {
        "from": "0xe62Ab4D111f968660C6B2188046F9B9bA53C4Bae",
        "to": "0xA450Ae39bf325c23a45B126eD2735F02d36b9A2d",
        "gas": "0x840b4",
        "value": "0x0",
        "input": "0xd299e54a000000000000000000000000e62ab4d111f968660c6b2188046f9b9ba53c4bae0000000000000000000000000000000000000000000000000000000000000000000000000000000000000000000000000000000000000000000000000000000000000000000000000000000000000000000000000000000000000000000005aa110504e2ab4fbf44ceab5b82c78d9a08209001c207469f7fbfb8c8733dcbf443",
        "nonce": "0x13d",
        "chainId": "0x66eee"
      },
      "additionalContracts": [],
      "isFixedGasLimit": false
    },
    {
      "hash": "0x2f869c314e305a8fa0cf407c8260eb3392ae8d6bcc16c13de21868ceafa16cf9",
      "transactionType": "CALL",
      "contractName": null,
      "contractAddress": "0xA450Ae39bf325c23a45B126eD2735F02d36b9A2d",
      "function": "deployAllCTMRWA001X(bool,uint256,uint256,uint256,string,string,uint8,string,string[],string)",
      "arguments": [
        "false",
        "7698186379213962409701432849682795543434249731059962252441980100204726842435",
        "1",
        "1",
        "Selqui SQ1",
        "SQ1",
        "18",
        "/Selqui",
        "[97]",
        "0x1ee4ba474da815f728df08f0147defac07f0bab3"
      ],
      "transaction": {
        "from": "0xe62Ab4D111f968660C6B2188046F9B9bA53C4Bae",
        "to": "0xA450Ae39bf325c23a45B126eD2735F02d36b9A2d",
        "gas": "0x81372",
        "value": "0x0",
        "input": "0xa3d8f8500000000000000000000000000000000000000000000000000000000000000000110504e2ab4fbf44ceab5b82c78d9a08209001c207469f7fbfb8c8733dcbf4430000000000000000000000000000000000000000000000000000000000000001000000000000000000000000000000000000000000000000000000000000000100000000000000000000000000000000000000000000000000000000000001400000000000000000000000000000000000000000000000000000000000000180000000000000000000000000000000000000000000000000000000000000001200000000000000000000000000000000000000000000000000000000000001c000000000000000000000000000000000000000000000000000000000000002000000000000000000000000000000000000000000000000000000000000000280000000000000000000000000000000000000000000000000000000000000000a53656c71756920535131000000000000000000000000000000000000000000000000000000000000000000000000000000000000000000000000000000000003535131000000000000000000000000000000000000000000000000000000000000000000000000000000000000000000000000000000000000000000000000072f53656c717569000000000000000000000000000000000000000000000000000000000000000000000000000000000000000000000000000000000000000001000000000000000000000000000000000000000000000000000000000000002000000000000000000000000000000000000000000000000000000000000000023937000000000000000000000000000000000000000000000000000000000000000000000000000000000000000000000000000000000000000000000000002a30783165653462613437346461383135663732386466303866303134376465666163303766306261623300000000000000000000000000000000000000000000",
        "nonce": "0x13e",
        "chainId": "0x66eee"
      },
      "additionalContracts": [],
      "isFixedGasLimit": false
    }
  ],
  "receipts": [
    {
      "status": "0x1",
      "cumulativeGasUsed": "0x7a062",
      "logs": [
        {
          "address": "0xB4311685dE060bbEC56C9b342E60741F305AfC91",
          "topics": [
            "0xe4f48c240d3b994948aa54f3e2f5fca59263dfe1d52b6e4cf39a5d249b5ccb65",
            "0x0000000000000000000000000000000000000000000000000000000000000000",
            "0x0000000000000000000000000000000000000000000000000000000000000000",
            "0x0000000000000000000000000000000000000000000000000000000000000000"
          ],
          "data": "0x",
          "blockHash": "0x64cf965dabfad3fd223b0cdf52d4af8214809608a19fdcddb4b0c2df07b54ac5",
          "blockNumber": "0x5416d0d",
          "transactionHash": "0x8d8aa0c7e777177a0341a1da51b23d620d3f00e21b07d86d39bfa756ef592693",
          "transactionIndex": "0x2",
          "logIndex": "0x2",
          "removed": false
        },
        {
          "address": "0xB4311685dE060bbEC56C9b342E60741F305AfC91",
          "topics": [
            "0xddf252ad1be2c89b69c2b068fc378daa952ba7f163c4a11628f55a4df523b3ef",
            "0x0000000000000000000000000000000000000000000000000000000000000000",
            "0x000000000000000000000000e62ab4d111f968660c6b2188046f9b9ba53c4bae",
            "0x0000000000000000000000000000000000000000000000000000000000000001"
          ],
          "data": "0x",
          "blockHash": "0x64cf965dabfad3fd223b0cdf52d4af8214809608a19fdcddb4b0c2df07b54ac5",
          "blockNumber": "0x5416d0d",
          "transactionHash": "0x8d8aa0c7e777177a0341a1da51b23d620d3f00e21b07d86d39bfa756ef592693",
          "transactionIndex": "0x2",
          "logIndex": "0x3",
          "removed": false
        },
        {
          "address": "0xB4311685dE060bbEC56C9b342E60741F305AfC91",
          "topics": [
            "0xe4f48c240d3b994948aa54f3e2f5fca59263dfe1d52b6e4cf39a5d249b5ccb65",
            "0x0000000000000000000000000000000000000000000000000000000000000001",
            "0x0000000000000000000000000000000000000000000000000000000000000000",
            "0x0000000000000000000000000000000000000000000000000000000000000000"
          ],
          "data": "0x",
          "blockHash": "0x64cf965dabfad3fd223b0cdf52d4af8214809608a19fdcddb4b0c2df07b54ac5",
          "blockNumber": "0x5416d0d",
          "transactionHash": "0x8d8aa0c7e777177a0341a1da51b23d620d3f00e21b07d86d39bfa756ef592693",
          "transactionIndex": "0x2",
          "logIndex": "0x4",
          "removed": false
        },
        {
          "address": "0xB4311685dE060bbEC56C9b342E60741F305AfC91",
          "topics": [
            "0x0b2aac84f3ec956911fd78eae5311062972ff949f38412e8da39069d9f068cc6",
            "0x0000000000000000000000000000000000000000000000000000000000000000",
            "0x0000000000000000000000000000000000000000000000000000000000000001"
          ],
          "data": "0x00000000000000000000000000000000000000000000000000000000000005aa",
          "blockHash": "0x64cf965dabfad3fd223b0cdf52d4af8214809608a19fdcddb4b0c2df07b54ac5",
          "blockNumber": "0x5416d0d",
          "transactionHash": "0x8d8aa0c7e777177a0341a1da51b23d620d3f00e21b07d86d39bfa756ef592693",
          "transactionIndex": "0x2",
          "logIndex": "0x5",
          "removed": false
        }
      ],
      "logsBloom": "0x20000000000000002004000000000000000000000000001000000000000000000000000000000000000000000000000000000000000000000000000000040000000000000000000000000008000000000000000000040000000000000000020000000000020000000000000000000800000000000000000000000010000000000000000000000000400000000000040000000000000000000000000000000000000000000000000000000000000002000000000000000000000000000000000000000002000000000002000000400000000000000000000000000000000060000000000000000000000000000000000200000000000001000000000000000000",
      "type": "0x2",
      "transactionHash": "0x8d8aa0c7e777177a0341a1da51b23d620d3f00e21b07d86d39bfa756ef592693",
      "transactionIndex": "0x2",
      "blockHash": "0x64cf965dabfad3fd223b0cdf52d4af8214809608a19fdcddb4b0c2df07b54ac5",
      "blockNumber": "0x5416d0d",
      "gasUsed": "0x647d6",
      "effectiveGasPrice": "0x5f5e100",
      "from": "0xe62Ab4D111f968660C6B2188046F9B9bA53C4Bae",
      "to": "0xA450Ae39bf325c23a45B126eD2735F02d36b9A2d",
      "contractAddress": null,
      "gasUsedForL1": "0x0",
      "l1BlockNumber": "0x68bf8a"
    },
    {
      "status": "0x1",
      "cumulativeGasUsed": "0x6254c",
      "logs": [
        {
          "address": "0x770c70D44C0c7b5B7D805077B66daADC00480FbC",
          "topics": [
            "0x88ca677ce66cb94eb6b03d7e06b1735c23eafde3090030bf7fb84711690a287e",
            "0x000000000000000000000000000000000000000000000000000000000000002d",
            "0x2d91e8c9105c329e9619683df2904341c0c3f94f29e264f0bada0e15fd3045d2"
          ],
          "data": "0x000000000000000000000000a450ae39bf325c23a45b126ed2735f02d36b9a2d00000000000000000000000000000000000000000000000000000000000000a000000000000000000000000000000000000000000000000000000000000000e00000000000000000000000000000000000000000000000000000000000000140000000000000000000000000000000000000000000000000000000000000042000000000000000000000000000000000000000000000000000000000000000023937000000000000000000000000000000000000000000000000000000000000000000000000000000000000000000000000000000000000000000000000002a3078383765313663323139646166363034633864333361656136316632366236313135326366376331640000000000000000000000000000000000000000000000000000000000000000000000000000000000000000000000000000000002a43d9ab49f0000000000000000000000000000000000000000000000000000000000000120110504e2ab4fbf44ceab5b82c78d9a08209001c207469f7fbfb8c8733dcbf44300000000000000000000000000000000000000000000000000000000000000010000000000000000000000000000000000000000000000000000000000000001000000000000000000000000000000000000000000000000000000000000018000000000000000000000000000000000000000000000000000000000000001c0000000000000000000000000000000000000000000000000000000000000001200000000000000000000000000000000000000000000000000000000000002000000000000000000000000000000000000000000000000000000000000000240000000000000000000000000000000000000000000000000000000000000002a30786536326162346431313166393638363630633662323138383034366639623962613533633462616500000000000000000000000000000000000000000000000000000000000000000000000000000000000000000000000000000000000a53656c71756920535131000000000000000000000000000000000000000000000000000000000000000000000000000000000000000000000000000000000003535131000000000000000000000000000000000000000000000000000000000000000000000000000000000000000000000000000000000000000000000000072f53656c71756900000000000000000000000000000000000000000000000000000000000000000000000000000000000000000000000000000000000000002a30786234333131363835646530363062626563353663396233343265363037343166333035616663393100000000000000000000000000000000000000000000000000000000000000000000000000000000000000000000000000000000000000000000000000000000000000000000000000000000000000000000",
          "blockHash": "0xecf817646dabe2671f3cbd9fdd0264a9a937ed98b71d64a846d823c380a0118d",
          "blockNumber": "0x5416d11",
          "transactionHash": "0x2f869c314e305a8fa0cf407c8260eb3392ae8d6bcc16c13de21868ceafa16cf9",
          "transactionIndex": "0x1",
          "logIndex": "0x0",
          "removed": false
        }
      ],
      "logsBloom": "0x00000000000000000000000000000000000001000000000000000000400000000000000000000000000000000000000000000000000000000000008400000000000000000000000000000040800000000000000000000000000000000000000000000000000000000000008000000000000000000000000000000200000000000000000000000000000000000000000000000000000000000000000000000000000000000000000000000000000000000000002000000000000010000000000000000000000000000000000000000000000000000000000000000000400000000000000000002000000000000000000000000000000000000000000000000000",
      "type": "0x2",
      "transactionHash": "0x2f869c314e305a8fa0cf407c8260eb3392ae8d6bcc16c13de21868ceafa16cf9",
      "transactionIndex": "0x1",
      "blockHash": "0xecf817646dabe2671f3cbd9fdd0264a9a937ed98b71d64a846d823c380a0118d",
      "blockNumber": "0x5416d11",
      "gasUsed": "0x6254c",
      "effectiveGasPrice": "0x5f5e100",
      "from": "0xe62Ab4D111f968660C6B2188046F9B9bA53C4Bae",
      "to": "0xA450Ae39bf325c23a45B126eD2735F02d36b9A2d",
      "contractAddress": null,
      "gasUsedForL1": "0x0",
      "l1BlockNumber": "0x68bf8a"
    }
  ],
  "libraries": [],
  "pending": [],
  "returns": {},
  "timestamp": 1728771812,
  "chain": 421614,
  "commit": "aa196d20"
}