{
  "transactions": [
    {
      "hash": "0xc6664df6c5d0ac4893ea7b8c4f944cebdd1b4f704d6484f040c3112c25da2134",
      "transactionType": "CALL",
      "contractName": "CTMRWA001X",
      "contractAddress": "0xb41c8b53ea014188ba6777233e04efddbf4877b1",
      "function": "mintNewTokenValueLocal(address,uint256,uint256,uint256,uint256)",
      "arguments": [
        "0xe62Ab4D111f968660C6B2188046F9B9bA53C4Bae",
        "0",
        "0",
        "1450",
        "84189191537645023510194262022921602973721400810783507685233787044050297562213"
      ],
      "transaction": {
        "from": "0xe62ab4d111f968660c6b2188046f9b9ba53c4bae",
        "to": "0xb41c8b53ea014188ba6777233e04efddbf4877b1",
        "gas": "0x8279c",
        "value": "0x0",
        "input": "0xd299e54a000000000000000000000000e62ab4d111f968660c6b2188046f9b9ba53c4bae0000000000000000000000000000000000000000000000000000000000000000000000000000000000000000000000000000000000000000000000000000000000000000000000000000000000000000000000000000000000000000000005aaba2164ceba74b49a633fe49773785daecf83a8af13eeb22e8c160ca2cfb62465",
        "nonce": "0x2b0",
        "chainId": "0x66eee"
      },
      "additionalContracts": [],
      "isFixedGasLimit": false
    },
    {
      "hash": "0x32ed12cfb4c2868628b16bf1604d8c3aea4503999706a5fa49aaf3daabd4bf11",
      "transactionType": "CALL",
      "contractName": "CTMRWA001X",
      "contractAddress": "0xb41c8b53ea014188ba6777233e04efddbf4877b1",
      "function": "deployAllCTMRWA001X(bool,uint256,uint256,uint256,string,string,uint8,string,string[],string)",
      "arguments": [
        "false",
        "84189191537645023510194262022921602973721400810783507685233787044050297562213",
        "1",
        "1",
        "Selqui SQ1",
        "SQ1",
        "18",
        "GFLD",
        "[97]",
        "0x1ee4ba474da815f728df08f0147defac07f0bab3"
      ],
      "transaction": {
        "from": "0xe62ab4d111f968660c6b2188046f9b9ba53c4bae",
        "to": "0xb41c8b53ea014188ba6777233e04efddbf4877b1",
        "gas": "0xbaca8",
        "value": "0x0",
        "input": "0xa3d8f8500000000000000000000000000000000000000000000000000000000000000000ba2164ceba74b49a633fe49773785daecf83a8af13eeb22e8c160ca2cfb624650000000000000000000000000000000000000000000000000000000000000001000000000000000000000000000000000000000000000000000000000000000100000000000000000000000000000000000000000000000000000000000001400000000000000000000000000000000000000000000000000000000000000180000000000000000000000000000000000000000000000000000000000000001200000000000000000000000000000000000000000000000000000000000001c000000000000000000000000000000000000000000000000000000000000002000000000000000000000000000000000000000000000000000000000000000280000000000000000000000000000000000000000000000000000000000000000a53656c717569205351310000000000000000000000000000000000000000000000000000000000000000000000000000000000000000000000000000000000035351310000000000000000000000000000000000000000000000000000000000000000000000000000000000000000000000000000000000000000000000000447464c44000000000000000000000000000000000000000000000000000000000000000000000000000000000000000000000000000000000000000000000001000000000000000000000000000000000000000000000000000000000000002000000000000000000000000000000000000000000000000000000000000000023937000000000000000000000000000000000000000000000000000000000000000000000000000000000000000000000000000000000000000000000000002a30783165653462613437346461383135663732386466303866303134376465666163303766306261623300000000000000000000000000000000000000000000",
        "nonce": "0x2b1",
        "chainId": "0x66eee"
      },
      "additionalContracts": [],
      "isFixedGasLimit": false
    }
  ],
  "receipts": [
    {
      "status": "0x1",
      "cumulativeGasUsed": "0x63325",
      "logs": [
        {
          "address": "0xe20c8f2fa8ede98a2716e8651a66fc52d6dcfa21",
          "topics": [
            "0xe4f48c240d3b994948aa54f3e2f5fca59263dfe1d52b6e4cf39a5d249b5ccb65",
            "0x0000000000000000000000000000000000000000000000000000000000000000",
            "0x0000000000000000000000000000000000000000000000000000000000000000",
            "0x0000000000000000000000000000000000000000000000000000000000000000"
          ],
          "data": "0x",
          "blockHash": "0x8b1106f01cfe7d12f688d0b5886f214eb0ae40e5867965d83ca8ea5c4a6f4518",
          "blockNumber": "0x597531b",
          "transactionHash": "0xc6664df6c5d0ac4893ea7b8c4f944cebdd1b4f704d6484f040c3112c25da2134",
          "transactionIndex": "0x1",
          "logIndex": "0x0",
          "removed": false
        },
        {
          "address": "0xe20c8f2fa8ede98a2716e8651a66fc52d6dcfa21",
          "topics": [
            "0xddf252ad1be2c89b69c2b068fc378daa952ba7f163c4a11628f55a4df523b3ef",
            "0x0000000000000000000000000000000000000000000000000000000000000000",
            "0x000000000000000000000000e62ab4d111f968660c6b2188046f9b9ba53c4bae",
            "0x0000000000000000000000000000000000000000000000000000000000000001"
          ],
          "data": "0x",
          "blockHash": "0x8b1106f01cfe7d12f688d0b5886f214eb0ae40e5867965d83ca8ea5c4a6f4518",
          "blockNumber": "0x597531b",
          "transactionHash": "0xc6664df6c5d0ac4893ea7b8c4f944cebdd1b4f704d6484f040c3112c25da2134",
          "transactionIndex": "0x1",
          "logIndex": "0x1",
          "removed": false
        },
        {
          "address": "0xe20c8f2fa8ede98a2716e8651a66fc52d6dcfa21",
          "topics": [
            "0xe4f48c240d3b994948aa54f3e2f5fca59263dfe1d52b6e4cf39a5d249b5ccb65",
            "0x0000000000000000000000000000000000000000000000000000000000000001",
            "0x0000000000000000000000000000000000000000000000000000000000000000",
            "0x0000000000000000000000000000000000000000000000000000000000000000"
          ],
          "data": "0x",
          "blockHash": "0x8b1106f01cfe7d12f688d0b5886f214eb0ae40e5867965d83ca8ea5c4a6f4518",
          "blockNumber": "0x597531b",
          "transactionHash": "0xc6664df6c5d0ac4893ea7b8c4f944cebdd1b4f704d6484f040c3112c25da2134",
          "transactionIndex": "0x1",
          "logIndex": "0x2",
          "removed": false
        },
        {
          "address": "0xe20c8f2fa8ede98a2716e8651a66fc52d6dcfa21",
          "topics": [
            "0x0b2aac84f3ec956911fd78eae5311062972ff949f38412e8da39069d9f068cc6",
            "0x0000000000000000000000000000000000000000000000000000000000000000",
            "0x0000000000000000000000000000000000000000000000000000000000000001"
          ],
          "data": "0x00000000000000000000000000000000000000000000000000000000000005aa",
          "blockHash": "0x8b1106f01cfe7d12f688d0b5886f214eb0ae40e5867965d83ca8ea5c4a6f4518",
          "blockNumber": "0x597531b",
          "transactionHash": "0xc6664df6c5d0ac4893ea7b8c4f944cebdd1b4f704d6484f040c3112c25da2134",
          "transactionIndex": "0x1",
          "logIndex": "0x3",
          "removed": false
        }
      ],
      "logsBloom": "0x20000000000000000004000000000000000000000800001000000000000000040000000000000000000000000000000000000000000000000000000000840000000000000000000000000008000000000000000000040000000000000000000000000000020000000000000000000800000000000000000000000010000000000000000000000000400000000000040000000000000000000000000000000000000000000000000000000000000002000000000000000000000000000000000000000002000000000002000000000000000000000000000000000000000060000000000000000000000000000000000200000000000001000000000000000000",
      "type": "0x2",
      "transactionHash": "0xc6664df6c5d0ac4893ea7b8c4f944cebdd1b4f704d6484f040c3112c25da2134",
      "transactionIndex": "0x1",
      "blockHash": "0x8b1106f01cfe7d12f688d0b5886f214eb0ae40e5867965d83ca8ea5c4a6f4518",
      "blockNumber": "0x597531b",
      "gasUsed": "0x63325",
      "effectiveGasPrice": "0x5f5e100",
      "from": "0xe62ab4d111f968660c6b2188046f9b9ba53c4bae",
      "to": "0xb41c8b53ea014188ba6777233e04efddbf4877b1",
      "contractAddress": null,
      "gasUsedForL1": "0x672",
      "l1BlockNumber": "0x6ac67f"
    },
    {
      "status": "0x1",
      "cumulativeGasUsed": "0x8e273",
      "logs": [
        {
          "address": "0x770c70d44c0c7b5b7d805077b66daadc00480fbc",
          "topics": [
            "0x88ca677ce66cb94eb6b03d7e06b1735c23eafde3090030bf7fb84711690a287e",
            "0x000000000000000000000000000000000000000000000000000000000000002d",
            "0xcad0d3ab6176a33ecb87036a66917aac96f7e369c28bf47018d9abcf939de223"
          ],
          "data": "0x000000000000000000000000b41c8b53ea014188ba6777233e04efddbf4877b100000000000000000000000000000000000000000000000000000000000000a000000000000000000000000000000000000000000000000000000000000000e00000000000000000000000000000000000000000000000000000000000000140000000000000000000000000000000000000000000000000000000000000042000000000000000000000000000000000000000000000000000000000000000023937000000000000000000000000000000000000000000000000000000000000000000000000000000000000000000000000000000000000000000000000002a3078396230626331653832363732353262326539396664613863333032623037313362613361383230320000000000000000000000000000000000000000000000000000000000000000000000000000000000000000000000000000000002a43d9ab49f0000000000000000000000000000000000000000000000000000000000000120ba2164ceba74b49a633fe49773785daecf83a8af13eeb22e8c160ca2cfb6246500000000000000000000000000000000000000000000000000000000000000010000000000000000000000000000000000000000000000000000000000000001000000000000000000000000000000000000000000000000000000000000018000000000000000000000000000000000000000000000000000000000000001c0000000000000000000000000000000000000000000000000000000000000001200000000000000000000000000000000000000000000000000000000000002000000000000000000000000000000000000000000000000000000000000000240000000000000000000000000000000000000000000000000000000000000002a30786536326162346431313166393638363630633662323138383034366639623962613533633462616500000000000000000000000000000000000000000000000000000000000000000000000000000000000000000000000000000000000a53656c717569205351310000000000000000000000000000000000000000000000000000000000000000000000000000000000000000000000000000000000035351310000000000000000000000000000000000000000000000000000000000000000000000000000000000000000000000000000000000000000000000000447464c4400000000000000000000000000000000000000000000000000000000000000000000000000000000000000000000000000000000000000000000002a30786532306338663266613865646539386132373136653836353161363666633532643664636661323100000000000000000000000000000000000000000000000000000000000000000000000000000000000000000000000000000000000000000000000000000000000000000000000000000000000000000000",
          "blockHash": "0x0df5bacb1787b77489374e0a962dfa8c24ddd7a88e16157efdd26dfedee8c2a1",
          "blockNumber": "0x597533a",
          "transactionHash": "0x32ed12cfb4c2868628b16bf1604d8c3aea4503999706a5fa49aaf3daabd4bf11",
          "transactionIndex": "0x1",
          "logIndex": "0x0",
          "removed": false
        }
      ],
      "logsBloom": "0x00000000000000000000000000000000000001000000000000000000400000000000000000000000000000000000000000000000000000000002008400000000000000000000000000000040000000000000000010000000000000000000000000000000000000000000008000000000000000000000000000000000000000000000000000000000000000000000000000000000000000000000000000000000000000000000000000000000000000000000002000000000000010000000000000000000000000000000000000000000000000000000000000000000400000000000000000000000000000000000000000000000000000000004000000000000",
      "type": "0x2",
      "transactionHash": "0x32ed12cfb4c2868628b16bf1604d8c3aea4503999706a5fa49aaf3daabd4bf11",
      "transactionIndex": "0x1",
      "blockHash": "0x0df5bacb1787b77489374e0a962dfa8c24ddd7a88e16157efdd26dfedee8c2a1",
      "blockNumber": "0x597533a",
      "gasUsed": "0x8e273",
      "effectiveGasPrice": "0x5f5e100",
      "from": "0xe62ab4d111f968660c6b2188046f9b9ba53c4bae",
      "to": "0xb41c8b53ea014188ba6777233e04efddbf4877b1",
      "contractAddress": null,
      "gasUsedForL1": "0x8a3",
      "l1BlockNumber": "0x6ac680"
    }
  ],
  "libraries": [],
  "pending": [],
  "returns": {},
  "timestamp": 1730559385,
  "chain": 421614,
  "commit": "34a11392"
}