{
  "transactions": [
    {
      "hash": "0x4b5796404dc476bb2f033ceadcf495a37793c03192e8d6a9a4418d9eb7efa0f0",
      "transactionType": "CALL",
      "contractName": "CTMRWA001X",
      "contractAddress": "0x22D305a430b57a12D569f1e578B9F2f7613f92F8",
      "function": "transferFromX(string,string,uint256,uint256,string)",
      "arguments": [
        "0xe62ab4d111f968660c6b2188046f9b9ba53c4bae",
        "97",
        "3",
        "77584703649289707259697594429131521757455372367565608163693872618853593546484",
        "0x1ee4ba474da815f728df08f0147defac07f0bab3"
      ],
      "transaction": {
        "from": "0xe62Ab4D111f968660C6B2188046F9B9bA53C4Bae",
        "to": "0x22D305a430b57a12D569f1e578B9F2f7613f92F8",
        "gas": "0x9983d",
        "value": "0x0",
        "input": "0xb498b02400000000000000000000000000000000000000000000000000000000000000a000000000000000000000000000000000000000000000000000000000000001000000000000000000000000000000000000000000000000000000000000000003ab8762d7c087244331b3f5d1e4f5a7390bc6dcc78e476024d775dd9e62547ef40000000000000000000000000000000000000000000000000000000000000140000000000000000000000000000000000000000000000000000000000000002a3078653632616234643131316639363836363063366232313838303436663962396261353363346261650000000000000000000000000000000000000000000000000000000000000000000000000000000000000000000000000000000000023937000000000000000000000000000000000000000000000000000000000000000000000000000000000000000000000000000000000000000000000000002a30783165653462613437346461383135663732386466303866303134376465666163303766306261623300000000000000000000000000000000000000000000",
        "nonce": "0x179",
        "chainId": "0x66eee"
      },
      "additionalContracts": [],
      "isFixedGasLimit": false
    }
  ],
  "receipts": [
    {
      "status": "0x1",
      "cumulativeGasUsed": "0x6be1e",
      "logs": [
        {
          "address": "0x6fDDeA7fC897276Fe361dDdF2D578a4e3479BCbE",
          "topics": [
            "0x8c5be1e5ebec7d5bd14f71427d1e84f3dd0314c0f7b2291e5b200ac8c7c3b925",
            "0x000000000000000000000000e62ab4d111f968660c6b2188046f9b9ba53c4bae",
            "0x0000000000000000000000000000000000000000000000000000000000000000",
            "0x0000000000000000000000000000000000000000000000000000000000000003"
          ],
          "data": "0x",
          "blockHash": "0x3e73e827e508f4927cc93380fffdc88b40375eeff738f1086dde3f8243ff47c9",
          "blockNumber": "0x549f5b3",
          "transactionHash": "0x4b5796404dc476bb2f033ceadcf495a37793c03192e8d6a9a4418d9eb7efa0f0",
          "transactionIndex": "0x1",
          "logIndex": "0x0",
          "removed": false
        },
        {
          "address": "0x770c70D44C0c7b5B7D805077B66daADC00480FbC",
          "topics": [
            "0x88ca677ce66cb94eb6b03d7e06b1735c23eafde3090030bf7fb84711690a287e",
            "0x000000000000000000000000000000000000000000000000000000000000002d",
            "0x167fa5857986bc367c94e974611acd2ea61dfc6b6ec101594f39b1693222f70f"
          ],
          "data": "0x00000000000000000000000022d305a430b57a12d569f1e578b9f2f7613f92f800000000000000000000000000000000000000000000000000000000000000a000000000000000000000000000000000000000000000000000000000000000e00000000000000000000000000000000000000000000000000000000000000140000000000000000000000000000000000000000000000000000000000000038000000000000000000000000000000000000000000000000000000000000000023937000000000000000000000000000000000000000000000000000000000000000000000000000000000000000000000000000000000000000000000000002a307866336363303934356237363666323936613766663762356235323832303337366132333232663339000000000000000000000000000000000000000000000000000000000000000000000000000000000000000000000000000000000204304194d1ab8762d7c087244331b3f5d1e4f5a7390bc6dcc78e476024d775dd9e62547ef400000000000000000000000000000000000000000000000000000000000000e0000000000000000000000000000000000000000000000000000000000000014000000000000000000000000000000000000000000000000000000000000000030000000000000000000000000000000000000000000000000000000000000006000000000000000000000000000000000000000000000000000000000000269400000000000000000000000000000000000000000000000000000000000001a0000000000000000000000000000000000000000000000000000000000000002a30786536326162346431313166393638363630633662323138383034366639623962613533633462616500000000000000000000000000000000000000000000000000000000000000000000000000000000000000000000000000000000002a30786536326162346431313166393638363630633662323138383034366639623962613533633462616500000000000000000000000000000000000000000000000000000000000000000000000000000000000000000000000000000000002a30783666646465613766633839373237366665333631646464663264353738613465333437396263626500000000000000000000000000000000000000000000000000000000000000000000000000000000000000000000000000000000000000000000000000000000000000000000000000000000000000000000",
          "blockHash": "0x3e73e827e508f4927cc93380fffdc88b40375eeff738f1086dde3f8243ff47c9",
          "blockNumber": "0x549f5b3",
          "transactionHash": "0x4b5796404dc476bb2f033ceadcf495a37793c03192e8d6a9a4418d9eb7efa0f0",
          "transactionIndex": "0x1",
          "logIndex": "0x1",
          "removed": false
        }
      ],
      "logsBloom": "0x20000000000000000004000000000000000001000000000000000000400000000000000000000000000000000000000000000000020000000000008400200000000000000000000000000040000000000040000000000000000000000000000008000000020000000000008000000800000000000000000000000000000000000000000000000001000000000000040000000800000000000000000000000000020000000000000000000000000000000000002000800000000011000000400000000000000000000000000000000000000000000000000000000000400020000010000000000000000000000000000000000000000040000000000000000000",
      "type": "0x2",
      "transactionHash": "0x4b5796404dc476bb2f033ceadcf495a37793c03192e8d6a9a4418d9eb7efa0f0",
      "transactionIndex": "0x1",
      "blockHash": "0x3e73e827e508f4927cc93380fffdc88b40375eeff738f1086dde3f8243ff47c9",
      "blockNumber": "0x549f5b3",
      "gasUsed": "0x6be1e",
      "effectiveGasPrice": "0x5f5e100",
      "from": "0xe62Ab4D111f968660C6B2188046F9B9bA53C4Bae",
      "to": "0x22D305a430b57a12D569f1e578B9F2f7613f92F8",
      "contractAddress": null,
      "gasUsedForL1": "0x18e85",
      "l1BlockNumber": "0x68efd5"
    }
  ],
  "libraries": [],
  "pending": [],
  "returns": {},
  "timestamp": 1728950377,
  "chain": 421614,
  "commit": "5b540a48"
}