{
  "transactions": [
    {
      "hash": "0x41488c344162614f8cf0dd7b215c6afab0e65c641aed3b89452e8118778a07a8",
      "transactionType": "CALL",
      "contractName": null,
      "contractAddress": "0xcd1f6cb9977db3187ec00bcfaa99d5f808537be8",
      "function": "deployAllCTMRWA001X(bool,uint256,uint256,uint256,string,string,uint8,string,string[],string)",
      "arguments": [
        "false",
        "81354886597977667022913304676153938054691926125561733411669592529129710370410",
        "1",
        "1",
        "Selqui SQ1",
        "SQ1",
        "18",
        "GFLD",
        "[84532]",
        "0x92829288c6aa874c1a0f190da35a4023c22be637"
      ],
      "transaction": {
        "from": "0xe62ab4d111f968660c6b2188046f9b9ba53c4bae",
        "to": "0xcd1f6cb9977db3187ec00bcfaa99d5f808537be8",
        "gas": "0x8424a",
        "value": "0x0",
        "input": "0xa3d8f8500000000000000000000000000000000000000000000000000000000000000000b3dd3be993b3ee8304b01fc7d824ae796d4a3d199cb8dd4476bb68df27a93e6a0000000000000000000000000000000000000000000000000000000000000001000000000000000000000000000000000000000000000000000000000000000100000000000000000000000000000000000000000000000000000000000001400000000000000000000000000000000000000000000000000000000000000180000000000000000000000000000000000000000000000000000000000000001200000000000000000000000000000000000000000000000000000000000001c000000000000000000000000000000000000000000000000000000000000002000000000000000000000000000000000000000000000000000000000000000280000000000000000000000000000000000000000000000000000000000000000a53656c717569205351310000000000000000000000000000000000000000000000000000000000000000000000000000000000000000000000000000000000035351310000000000000000000000000000000000000000000000000000000000000000000000000000000000000000000000000000000000000000000000000447464c44000000000000000000000000000000000000000000000000000000000000000000000000000000000000000000000000000000000000000000000001000000000000000000000000000000000000000000000000000000000000002000000000000000000000000000000000000000000000000000000000000000053834353332000000000000000000000000000000000000000000000000000000000000000000000000000000000000000000000000000000000000000000002a30783932383239323838633661613837346331613066313930646133356134303233633232626536333700000000000000000000000000000000000000000000",
        "nonce": "0x39f",
        "chainId": "0x66eee"
      },
      "additionalContracts": [],
      "isFixedGasLimit": false
    }
  ],
  "receipts": [
    {
      "status": "0x1",
      "cumulativeGasUsed": "0x70183",
      "logs": [
        {
          "address": "0x770c70d44c0c7b5b7d805077b66daadc00480fbc",
          "topics": [
            "0x88ca677ce66cb94eb6b03d7e06b1735c23eafde3090030bf7fb84711690a287e",
            "0x000000000000000000000000000000000000000000000000000000000000002d",
            "0x59560ab2084f5d04d159bb2956b7fbeab77dd831fdecbcca9e49e8d7b7847281"
          ],
          "data": "0x000000000000000000000000cd1f6cb9977db3187ec00bcfaa99d5f808537be800000000000000000000000000000000000000000000000000000000000000a000000000000000000000000000000000000000000000000000000000000000e0000000000000000000000000000000000000000000000000000000000000014000000000000000000000000000000000000000000000000000000000000003a000000000000000000000000000000000000000000000000000000000000000053834353332000000000000000000000000000000000000000000000000000000000000000000000000000000000000000000000000000000000000000000002a30786534333730383234613135383534656564366431333263623263376565376134393533653761636100000000000000000000000000000000000000000000000000000000000000000000000000000000000000000000000000000000022474c195fa00000000000000000000000000000000000000000000000000000000000000e0b3dd3be993b3ee8304b01fc7d824ae796d4a3d199cb8dd4476bb68df27a93e6a00000000000000000000000000000000000000000000000000000000000001400000000000000000000000000000000000000000000000000000000000000180000000000000000000000000000000000000000000000000000000000000001200000000000000000000000000000000000000000000000000000000000001c00000000000000000000000000000000000000000000000000000000000000200000000000000000000000000000000000000000000000000000000000000002a30786536326162346431313166393638363630633662323138383034366639623962613533633462616500000000000000000000000000000000000000000000000000000000000000000000000000000000000000000000000000000000000a53656c717569205351310000000000000000000000000000000000000000000000000000000000000000000000000000000000000000000000000000000000035351310000000000000000000000000000000000000000000000000000000000000000000000000000000000000000000000000000000000000000000000000447464c44000000000000000000000000000000000000000000000000000000000000000000000000000000000000000000000000000000000000000000000000000000000000000000000000000000000000000000000000000000000000000000000000000000000000000000000000000000000000000000000000",
          "blockHash": "0x2243d60ac7e45c67d04b123110ede3ff550221ce2c721d768cb88b9e1b858b8a",
          "blockNumber": "0x5d99f7f",
          "transactionHash": "0x41488c344162614f8cf0dd7b215c6afab0e65c641aed3b89452e8118778a07a8",
          "transactionIndex": "0x2",
          "logIndex": "0x1",
          "removed": false
        }
      ],
      "logsBloom": "0x00000000000000000000000000000000000001000000000000000000400000000000000000000000000000000000000000000000000000000000008400000010000000000000000000000040000000000000000000000000000000000000000000000000400000000000008000000000008000000000000000000000000000000000000000000000000000000000000000000000000000000000000000000000000000000000000000000000000000000000002000000000000010000000000000000000000000000000000000000000000000000000000000000000400000000000000000000000000000000000000000000000000000000000000000000000",
      "type": "0x2",
      "transactionHash": "0x41488c344162614f8cf0dd7b215c6afab0e65c641aed3b89452e8118778a07a8",
      "transactionIndex": "0x2",
      "blockHash": "0x2243d60ac7e45c67d04b123110ede3ff550221ce2c721d768cb88b9e1b858b8a",
      "blockNumber": "0x5d99f7f",
      "gasUsed": "0x64839",
      "effectiveGasPrice": "0x5f5e100",
      "from": "0xe62ab4d111f968660c6b2188046f9b9ba53c4bae",
      "to": "0xcd1f6cb9977db3187ec00bcfaa99d5f808537be8",
      "contractAddress": null,
      "gasUsedForL1": "0x462",
      "l1BlockNumber": "0x6c4729"
    }
  ],
  "libraries": [],
  "pending": [],
  "returns": {},
  "timestamp": 1731853895,
  "chain": 421614,
  "commit": "b96f5048"
}