{
  "transactions": [
    {
      "hash": "0x7dbda91c9110474f89bd8a33736d5f1319e87853ed229dde219a6d85c7d2b7bc",
      "transactionType": "CALL",
      "contractName": null,
      "contractAddress": "0x92829288c6aa874c1a0f190da35a4023c22be637",
      "function": "approve(address,uint256)",
      "arguments": [
        "0x6F2F79720C81631d3a0FE8e19c96F3ceBd56519a",
        "10000000000"
      ],
      "transaction": {
        "from": "0xe62ab4d111f968660c6b2188046f9b9ba53c4bae",
        "to": "0x92829288c6aa874c1a0f190da35a4023c22be637",
        "gas": "0xae85",
        "value": "0x0",
        "input": "0x095ea7b30000000000000000000000006f2f79720c81631d3a0fe8e19c96f3cebd56519a00000000000000000000000000000000000000000000000000000002540be400",
        "nonce": "0x34e",
        "chainId": "0x66eee"
      },
      "additionalContracts": [],
      "isFixedGasLimit": false
    },
    {
      "hash": "0x27f827964333ab50944784b9b314e25e20050ca0b2d5c7582993abf37228c846",
      "transactionType": "CALL",
      "contractName": null,
      "contractAddress": "0x6f2f79720c81631d3a0fe8e19c96f3cebd56519a",
      "function": "deployAllCTMRWA001X(bool,uint256,uint256,uint256,string,string,uint8,string,string[],string)",
      "arguments": [
        "false",
        "29251130053171396288129669670399520996794011934199132580927820677505894114636",
        "1",
        "1",
        "Selqui SQ1",
        "SQ1",
        "18",
        "GFLD",
        "[97]",
        "0x92829288c6aa874c1a0f190da35a4023c22be637"
      ],
      "transaction": {
        "from": "0xe62ab4d111f968660c6b2188046f9b9ba53c4bae",
        "to": "0x6f2f79720c81631d3a0fe8e19c96f3cebd56519a",
        "gas": "0xcc031",
        "value": "0x0",
        "input": "0xa3d8f850000000000000000000000000000000000000000000000000000000000000000040ab8d8b13eb5ef270c65eb4d4917b5039e670bf034580be23ab94424f94e54c0000000000000000000000000000000000000000000000000000000000000001000000000000000000000000000000000000000000000000000000000000000100000000000000000000000000000000000000000000000000000000000001400000000000000000000000000000000000000000000000000000000000000180000000000000000000000000000000000000000000000000000000000000001200000000000000000000000000000000000000000000000000000000000001c000000000000000000000000000000000000000000000000000000000000002000000000000000000000000000000000000000000000000000000000000000280000000000000000000000000000000000000000000000000000000000000000a53656c717569205351310000000000000000000000000000000000000000000000000000000000000000000000000000000000000000000000000000000000035351310000000000000000000000000000000000000000000000000000000000000000000000000000000000000000000000000000000000000000000000000447464c44000000000000000000000000000000000000000000000000000000000000000000000000000000000000000000000000000000000000000000000001000000000000000000000000000000000000000000000000000000000000002000000000000000000000000000000000000000000000000000000000000000023937000000000000000000000000000000000000000000000000000000000000000000000000000000000000000000000000000000000000000000000000002a30783932383239323838633661613837346331613066313930646133356134303233633232626536333700000000000000000000000000000000000000000000",
        "nonce": "0x34f",
        "chainId": "0x66eee"
      },
      "additionalContracts": [],
      "isFixedGasLimit": false
    }
  ],
  "receipts": [
    {
      "status": "0x1",
      "cumulativeGasUsed": "0x80a9",
      "logs": [
        {
          "address": "0x92829288c6aa874c1a0f190da35a4023c22be637",
          "topics": [
            "0x8c5be1e5ebec7d5bd14f71427d1e84f3dd0314c0f7b2291e5b200ac8c7c3b925",
            "0x000000000000000000000000e62ab4d111f968660c6b2188046f9b9ba53c4bae",
            "0x0000000000000000000000006f2f79720c81631d3a0fe8e19c96f3cebd56519a"
          ],
          "data": "0x00000000000000000000000000000000000000000000000000000002540be400",
          "blockHash": "0x59ecf3e3a6fbd9fb4e506e70ffc2c715fa8d22a6c4eaa7998abbcdea026f1522",
          "blockNumber": "0x5b61ae4",
          "transactionHash": "0x7dbda91c9110474f89bd8a33736d5f1319e87853ed229dde219a6d85c7d2b7bc",
          "transactionIndex": "0x1",
          "logIndex": "0x0",
          "removed": false
        }
      ],
      "logsBloom": "0x20000000000000000004000000000000000004000000000000000000000000000000000000000000000000001000000000000000000000000000000000200000000000000000000000000000000000000000000000000000000000000000000000000000000000000000000000000000000000000000000000000000000000000000000000000000000000000000040000000000000000000000000000000040020008000000000000000000000000000000000000000000000000000010000000000000000000000000000000000000000000001000000000000000000000000010000000000000000000000000000000000000000000000000000000000000",
      "type": "0x2",
      "transactionHash": "0x7dbda91c9110474f89bd8a33736d5f1319e87853ed229dde219a6d85c7d2b7bc",
      "transactionIndex": "0x1",
      "blockHash": "0x59ecf3e3a6fbd9fb4e506e70ffc2c715fa8d22a6c4eaa7998abbcdea026f1522",
      "blockNumber": "0x5b61ae4",
      "gasUsed": "0x80a9",
      "effectiveGasPrice": "0x5f5e100",
      "from": "0xe62ab4d111f968660c6b2188046f9b9ba53c4bae",
      "to": "0x92829288c6aa874c1a0f190da35a4023c22be637",
      "contractAddress": null,
      "gasUsedForL1": "0xee9",
      "l1BlockNumber": "0x6b76fd"
    },
    {
      "status": "0x1",
      "cumulativeGasUsed": "0x90681",
      "logs": [
        {
          "address": "0x92829288c6aa874c1a0f190da35a4023c22be637",
          "topics": [
            "0x8c5be1e5ebec7d5bd14f71427d1e84f3dd0314c0f7b2291e5b200ac8c7c3b925",
            "0x000000000000000000000000e62ab4d111f968660c6b2188046f9b9ba53c4bae",
            "0x0000000000000000000000006f2f79720c81631d3a0fe8e19c96f3cebd56519a"
          ],
          "data": "0x000000000000000000000000000000000000000000000000000000024e160300",
          "blockHash": "0x752d347041f452ea6dbeb2ced151d69b315c9ceae70ca439e4cd700fc28343d3",
          "blockNumber": "0x5b61af8",
          "transactionHash": "0x27f827964333ab50944784b9b314e25e20050ca0b2d5c7582993abf37228c846",
          "transactionIndex": "0x1",
          "logIndex": "0x0",
          "removed": false
        },
        {
          "address": "0x92829288c6aa874c1a0f190da35a4023c22be637",
          "topics": [
            "0xddf252ad1be2c89b69c2b068fc378daa952ba7f163c4a11628f55a4df523b3ef",
            "0x000000000000000000000000e62ab4d111f968660c6b2188046f9b9ba53c4bae",
            "0x0000000000000000000000006f2f79720c81631d3a0fe8e19c96f3cebd56519a"
          ],
          "data": "0x0000000000000000000000000000000000000000000000000000000005f5e100",
          "blockHash": "0x752d347041f452ea6dbeb2ced151d69b315c9ceae70ca439e4cd700fc28343d3",
          "blockNumber": "0x5b61af8",
          "transactionHash": "0x27f827964333ab50944784b9b314e25e20050ca0b2d5c7582993abf37228c846",
          "transactionIndex": "0x1",
          "logIndex": "0x1",
          "removed": false
        },
        {
          "address": "0x92829288c6aa874c1a0f190da35a4023c22be637",
          "topics": [
            "0x8c5be1e5ebec7d5bd14f71427d1e84f3dd0314c0f7b2291e5b200ac8c7c3b925",
            "0x0000000000000000000000006f2f79720c81631d3a0fe8e19c96f3cebd56519a",
            "0x0000000000000000000000001211a2dd0d01848dc4042a7a354cb8a4c51df594"
          ],
          "data": "0x0000000000000000000000000000000000000000000000000000000005f5e100",
          "blockHash": "0x752d347041f452ea6dbeb2ced151d69b315c9ceae70ca439e4cd700fc28343d3",
          "blockNumber": "0x5b61af8",
          "transactionHash": "0x27f827964333ab50944784b9b314e25e20050ca0b2d5c7582993abf37228c846",
          "transactionIndex": "0x1",
          "logIndex": "0x2",
          "removed": false
        },
        {
          "address": "0x92829288c6aa874c1a0f190da35a4023c22be637",
          "topics": [
            "0x8c5be1e5ebec7d5bd14f71427d1e84f3dd0314c0f7b2291e5b200ac8c7c3b925",
            "0x0000000000000000000000006f2f79720c81631d3a0fe8e19c96f3cebd56519a",
            "0x0000000000000000000000001211a2dd0d01848dc4042a7a354cb8a4c51df594"
          ],
          "data": "0x0000000000000000000000000000000000000000000000000000000000000000",
          "blockHash": "0x752d347041f452ea6dbeb2ced151d69b315c9ceae70ca439e4cd700fc28343d3",
          "blockNumber": "0x5b61af8",
          "transactionHash": "0x27f827964333ab50944784b9b314e25e20050ca0b2d5c7582993abf37228c846",
          "transactionIndex": "0x1",
          "logIndex": "0x3",
          "removed": false
        },
        {
          "address": "0x92829288c6aa874c1a0f190da35a4023c22be637",
          "topics": [
            "0xddf252ad1be2c89b69c2b068fc378daa952ba7f163c4a11628f55a4df523b3ef",
            "0x0000000000000000000000006f2f79720c81631d3a0fe8e19c96f3cebd56519a",
            "0x0000000000000000000000001211a2dd0d01848dc4042a7a354cb8a4c51df594"
          ],
          "data": "0x0000000000000000000000000000000000000000000000000000000005f5e100",
          "blockHash": "0x752d347041f452ea6dbeb2ced151d69b315c9ceae70ca439e4cd700fc28343d3",
          "blockNumber": "0x5b61af8",
          "transactionHash": "0x27f827964333ab50944784b9b314e25e20050ca0b2d5c7582993abf37228c846",
          "transactionIndex": "0x1",
          "logIndex": "0x4",
          "removed": false
        },
        {
          "address": "0x770c70d44c0c7b5b7d805077b66daadc00480fbc",
          "topics": [
            "0x88ca677ce66cb94eb6b03d7e06b1735c23eafde3090030bf7fb84711690a287e",
            "0x000000000000000000000000000000000000000000000000000000000000002d",
            "0x313d4e65a3914cb6779401963c92e877bccab1ab136909f496cd30a4befdf396"
          ],
          "data": "0x0000000000000000000000006f2f79720c81631d3a0fe8e19c96f3cebd56519a00000000000000000000000000000000000000000000000000000000000000a000000000000000000000000000000000000000000000000000000000000000e00000000000000000000000000000000000000000000000000000000000000140000000000000000000000000000000000000000000000000000000000000056000000000000000000000000000000000000000000000000000000000000000023937000000000000000000000000000000000000000000000000000000000000000000000000000000000000000000000000000000000000000000000000002a3078343332386266363562633863363930363761303364306662646539346361316532346564393636630000000000000000000000000000000000000000000000000000000000000000000000000000000000000000000000000000000003e44d05610c000000000000000000000000000000000000000000000000000000000000014040ab8d8b13eb5ef270c65eb4d4917b5039e670bf034580be23ab94424f94e54c0000000000000000000000000000000000000000000000000000000000000001000000000000000000000000000000000000000000000000000000000000000100000000000000000000000000000000000000000000000000000000000001a000000000000000000000000000000000000000000000000000000000000001e00000000000000000000000000000000000000000000000000000000000000012000000000000000000000000000000000000000000000000000000000000022000000000000000000000000000000000000000000000000000000000000002600000000000000000000000000000000000000000000000000000000000000380000000000000000000000000000000000000000000000000000000000000002a30786536326162346431313166393638363630633662323138383034366639623962613533633462616500000000000000000000000000000000000000000000000000000000000000000000000000000000000000000000000000000000000a53656c717569205351310000000000000000000000000000000000000000000000000000000000000000000000000000000000000000000000000000000000035351310000000000000000000000000000000000000000000000000000000000000000000000000000000000000000000000000000000000000000000000000447464c44000000000000000000000000000000000000000000000000000000000000000000000000000000000000000000000000000000000000000000000001000000000000000000000000000000000000000000000000000000000000002000000000000000000000000000000000000000000000000000000000000000050000000000000000000000000000000000000000000000000000000000000080000000000000000000000000000000000000000000000000000000000000000000000000000000000000000000000000000000000000000000000000000000c0000000000000000000000000000000000000000000000000000000000000000d4272616e64206e657720525741000000000000000000000000000000000000000000000000000000000000000000000000000000000000000000000000000000000000000000000000000000000000000000000000000000000000000000002a30783630313631316462663662383931366335633534343566353336626131366235383738326564636600000000000000000000000000000000000000000000000000000000000000000000000000000000000000000000000000000000000000000000000000000000000000000000000000000000000000000000",
          "blockHash": "0x752d347041f452ea6dbeb2ced151d69b315c9ceae70ca439e4cd700fc28343d3",
          "blockNumber": "0x5b61af8",
          "transactionHash": "0x27f827964333ab50944784b9b314e25e20050ca0b2d5c7582993abf37228c846",
          "transactionIndex": "0x1",
          "logIndex": "0x5",
          "removed": false
        }
      ],
      "logsBloom": "0x20000000000000000004000000000000000005000000000000000000400000000000000000000000000000001000000000000000000000000000008400200000000000000000000000000048020000000000000000000000000000000000000000000000000000000000008000000000100000000000000000000011000000000000000000000000000000000000040000000000000000000000000000000040020008000000000040000000000000000000002000000000000010000010000000000042000000000000000000000000000000001000000000000000400000000010000000000000000000000000000000000000000000020000000000000000",
      "type": "0x2",
      "transactionHash": "0x27f827964333ab50944784b9b314e25e20050ca0b2d5c7582993abf37228c846",
      "transactionIndex": "0x1",
      "blockHash": "0x752d347041f452ea6dbeb2ced151d69b315c9ceae70ca439e4cd700fc28343d3",
      "blockNumber": "0x5b61af8",
      "gasUsed": "0x90681",
      "effectiveGasPrice": "0x5f5e100",
      "from": "0xe62ab4d111f968660c6b2188046f9b9ba53c4bae",
      "to": "0x6f2f79720c81631d3a0fe8e19c96f3cebd56519a",
      "contractAddress": null,
      "gasUsedForL1": "0x1e65",
      "l1BlockNumber": "0x6b76fe"
    }
  ],
  "libraries": [],
  "pending": [],
  "returns": {},
  "timestamp": 1731158573,
  "chain": 421614,
  "commit": "ac6d4a5e"
}