{
  "transactions": [
    {
      "hash": "0xc41343c443cc9e5785f557ebde45bf28e191b765fa19cd2bf2af3c219982d905",
      "transactionType": "CALL",
      "contractName": null,
      "contractAddress": "0x1eE4bA474da815f728dF08F0147DeFac07F0BAb3",
      "function": "deployAllCTMRWA001X(bool,uint256,uint256,uint256,string,string,uint8,string,string[],string)",
      "arguments": [
        "true",
        "0",
        "1",
        "1",
        "Selqui SQ1",
        "SQ1",
        "18",
        "/Selqui",
        "[]",
        "0x2a2a5e1e2475bf35d8f3f85d8c736f376bdb1c02"
      ],
      "transaction": {
        "from": "0xe62Ab4D111f968660C6B2188046F9B9bA53C4Bae",
        "to": "0x1eE4bA474da815f728dF08F0147DeFac07F0BAb3",
        "gas": "0x7b3ee4",
        "value": "0x0",
        "input": "0xa3d8f850000000000000000000000000000000000000000000000000000000000000000100000000000000000000000000000000000000000000000000000000000000000000000000000000000000000000000000000000000000000000000000000001000000000000000000000000000000000000000000000000000000000000000100000000000000000000000000000000000000000000000000000000000001400000000000000000000000000000000000000000000000000000000000000180000000000000000000000000000000000000000000000000000000000000001200000000000000000000000000000000000000000000000000000000000001c000000000000000000000000000000000000000000000000000000000000002000000000000000000000000000000000000000000000000000000000000000220000000000000000000000000000000000000000000000000000000000000000a53656c71756920535131000000000000000000000000000000000000000000000000000000000000000000000000000000000000000000000000000000000003535131000000000000000000000000000000000000000000000000000000000000000000000000000000000000000000000000000000000000000000000000072f53656c717569000000000000000000000000000000000000000000000000000000000000000000000000000000000000000000000000000000000000000000000000000000000000000000000000000000000000000000000000000000002a30783261326135653165323437356266333564386633663835643863373336663337366264623163303200000000000000000000000000000000000000000000",
        "nonce": "0x10c",
        "chainId": "0x66eee"
      },
      "additionalContracts": [],
      "isFixedGasLimit": false
    }
  ],
  "receipts": [
    {
      "status": "0x1",
      "cumulativeGasUsed": "0x5dd6c3",
      "logs": [
        {
          "address": "0x1eE4bA474da815f728dF08F0147DeFac07F0BAb3",
          "topics": [
            "0x28129b47929e9a908e07c89f47c303a716a56cbf5c543d97e0cef9af66d3031f"
          ],
          "data": "0x000000000000000000000000a82e918ac3a2e94d862ceeef520dde4a40f7a4724d793500282edc77512f1fecb120fb957c9b4fe3fa3b8a4d023bbf876de74a34000000000000000000000000e62ab4d111f968660c6b2188046f9b9ba53c4bae00000000000000000000000000000000000000000000000000000000000000a000000000000000000000000000000000000000000000000000000000000000e0000000000000000000000000000000000000000000000000000000000000000634323136313400000000000000000000000000000000000000000000000000000000000000000000000000000000000000000000000000000000000000000000",
          "blockHash": "0x509e15a043ba4f84de6a0ce0494ec3260d48fdca7ab157f71f25871d9eb7f018",
          "blockNumber": "0x54005e1",
          "transactionHash": "0xc41343c443cc9e5785f557ebde45bf28e191b765fa19cd2bf2af3c219982d905",
          "transactionIndex": "0x1",
          "logIndex": "0x0",
          "removed": false
        }
      ],
      "logsBloom": "0x00000000000000000000000000000000000000000000000000000000000000000000000000000000000000000000000000000000000000000000000000000000000200000000000000000000000000000000000000000000000000000000000000000040000000000000000000000000000000000000000000000001000000000000000000000000000000000000000000000000000000000000000000000000000000000000000000000000000000000020000000000000000000000000000000000000080000000000000000000000000000000000000010000000000000000000000000000000000000000000000000000000000000000000000000000000",
      "type": "0x2",
      "transactionHash": "0xc41343c443cc9e5785f557ebde45bf28e191b765fa19cd2bf2af3c219982d905",
      "transactionIndex": "0x1",
      "blockHash": "0x509e15a043ba4f84de6a0ce0494ec3260d48fdca7ab157f71f25871d9eb7f018",
      "blockNumber": "0x54005e1",
      "gasUsed": "0x5dd6c3",
      "effectiveGasPrice": "0x5f5e100",
      "from": "0xe62Ab4D111f968660C6B2188046F9B9bA53C4Bae",
      "to": "0x1eE4bA474da815f728dF08F0147DeFac07F0BAb3",
      "contractAddress": null,
      "gasUsedForL1": "0x10ad7",
      "l1BlockNumber": "0x68b7cc"
    }
  ],
  "libraries": [],
  "pending": [],
  "returns": {},
  "timestamp": 1728743124,
  "chain": 421614,
  "commit": "aa196d20"
}