{
  "transactions": [
    {
      "hash": "0x285c61176866c403a678d3aec4b74285e7fc9185a9bb6348fc393218ce1126a9",
      "transactionType": "CALL",
      "contractName": null,
      "contractAddress": "0xD2499F70542D598fE7679cD439A4cbA16e5b2BF9",
      "function": "deployAllCTMRWA001X(bool,uint256,uint256,uint256,string,string,uint8,string,string[],string)",
      "arguments": [
        "true",
        "0",
        "1",
        "1",
        "Selqui SQ1",
        "SQ1",
        "18",
        "/Selqui",
        "[]",
        "0x1ee4ba474da815f728df08f0147defac07f0bab3"
      ],
      "transaction": {
        "from": "0xe62Ab4D111f968660C6B2188046F9B9bA53C4Bae",
        "to": "0xD2499F70542D598fE7679cD439A4cbA16e5b2BF9",
        "gas": "0x7a605e",
        "value": "0x0",
        "input": "0xa3d8f850000000000000000000000000000000000000000000000000000000000000000100000000000000000000000000000000000000000000000000000000000000000000000000000000000000000000000000000000000000000000000000000001000000000000000000000000000000000000000000000000000000000000000100000000000000000000000000000000000000000000000000000000000001400000000000000000000000000000000000000000000000000000000000000180000000000000000000000000000000000000000000000000000000000000001200000000000000000000000000000000000000000000000000000000000001c000000000000000000000000000000000000000000000000000000000000002000000000000000000000000000000000000000000000000000000000000000220000000000000000000000000000000000000000000000000000000000000000a53656c71756920535131000000000000000000000000000000000000000000000000000000000000000000000000000000000000000000000000000000000003535131000000000000000000000000000000000000000000000000000000000000000000000000000000000000000000000000000000000000000000000000072f53656c717569000000000000000000000000000000000000000000000000000000000000000000000000000000000000000000000000000000000000000000000000000000000000000000000000000000000000000000000000000000002a30783165653462613437346461383135663732386466303866303134376465666163303766306261623300000000000000000000000000000000000000000000",
        "nonce": "0x19a",
        "chainId": "0x66eee"
      },
      "additionalContracts": [],
      "isFixedGasLimit": false
    }
  ],
  "receipts": [
    {
      "status": "0x1",
      "cumulativeGasUsed": "0x5d43e0",
      "logs": [
        {
          "address": "0xD2499F70542D598fE7679cD439A4cbA16e5b2BF9",
          "topics": [
            "0x28129b47929e9a908e07c89f47c303a716a56cbf5c543d97e0cef9af66d3031f"
          ],
          "data": "0x000000000000000000000000b3acf97717dae3c0767287328394eb7cefc79d4d143987ddc3dcde0050eebe55372cab7be1f7947f7d2da8555b25b506d5ed916a000000000000000000000000e62ab4d111f968660c6b2188046f9b9ba53c4bae00000000000000000000000000000000000000000000000000000000000000a000000000000000000000000000000000000000000000000000000000000000e0000000000000000000000000000000000000000000000000000000000000000634323136313400000000000000000000000000000000000000000000000000000000000000000000000000000000000000000000000000000000000000000000",
          "blockHash": "0x37ba5a6895be83ac8cb8e175f4201f7db8a6db9cfa16548c052e24d58c9d87ab",
          "blockNumber": "0x550aee6",
          "transactionHash": "0x285c61176866c403a678d3aec4b74285e7fc9185a9bb6348fc393218ce1126a9",
          "transactionIndex": "0x1",
          "logIndex": "0x0",
          "removed": false
        }
      ],
      "logsBloom": "0x00000000000000000000000000000000000000000000000000000000000000000000000000000000000000000000000000000000000000000000000000000000000000000000000000000000000000000000000000000000000000000020000000000040000000000000000000000000000000000000000000000000000000000000000000000004000000000000000000000000000000000000000000000000000000000000000000000000000000000020000000000000000000000000000000000000080000000000000000000000000000000000000000000000000000000000000000000000000000000000008000000000000000000000000000000000",
      "type": "0x2",
      "transactionHash": "0x285c61176866c403a678d3aec4b74285e7fc9185a9bb6348fc393218ce1126a9",
      "transactionIndex": "0x1",
      "blockHash": "0x37ba5a6895be83ac8cb8e175f4201f7db8a6db9cfa16548c052e24d58c9d87ab",
      "blockNumber": "0x550aee6",
      "gasUsed": "0x5d43e0",
      "effectiveGasPrice": "0x5f5e100",
      "from": "0xe62Ab4D111f968660C6B2188046F9B9bA53C4Bae",
      "to": "0xD2499F70542D598fE7679cD439A4cbA16e5b2BF9",
      "contractAddress": null,
      "gasUsedForL1": "0x889e",
      "l1BlockNumber": "0x691689"
    }
  ],
  "libraries": [],
  "pending": [],
  "returns": {},
  "timestamp": 1729092639,
  "chain": 421614,
  "commit": "7d051dd0"
}