{
  "transactions": [
    {
      "hash": "0xdfa3678495c65fcb7e75fb67b3542dd7251c07ade4579863df899026f172661a",
      "transactionType": "CALL",
      "contractName": null,
      "contractAddress": "0x58b610a359c870e0fc941139821a51f5aa23f14e",
      "function": "addTxSender(address)",
      "arguments": [
        "0x0c6235c04eF4Fa5013A58afb22967a068810C929"
      ],
      "transaction": {
        "from": "0xc3ca11bd8e131471904dced927b3fb7edb453179",
        "to": "0x58b610a359c870e0fc941139821a51f5aa23f14e",
        "gas": "0x12a32",
        "value": "0x0",
        "input": "0xeebd14af0000000000000000000000000c6235c04ef4fa5013a58afb22967a068810c929",
        "nonce": "0x59",
        "chainId": "0x4268"
      },
      "additionalContracts": [],
      "isFixedGasLimit": false
    },
    {
      "hash": "0x55b13a177c95b7e540425c172447bab528625711bc3864c59e24dfcb2e4cac15",
      "transactionType": "CALL",
      "contractName": null,
      "contractAddress": "0x2f925d6512b2bbb00f5a36d8b18e01fcf35f7dc7",
      "function": "addTxSender(address)",
      "arguments": [
        "0x0c6235c04eF4Fa5013A58afb22967a068810C929"
      ],
      "transaction": {
        "from": "0xc3ca11bd8e131471904dced927b3fb7edb453179",
        "to": "0x2f925d6512b2bbb00f5a36d8b18e01fcf35f7dc7",
        "gas": "0x12a13",
        "value": "0x0",
        "input": "0xeebd14af0000000000000000000000000c6235c04ef4fa5013a58afb22967a068810c929",
        "nonce": "0x5a",
        "chainId": "0x4268"
      },
      "additionalContracts": [],
      "isFixedGasLimit": false
    },
    {
      "hash": "0x35ef8bdbda37e48d26de488bd60580c6ce0cb7dc3751888808d48e8e21466daa",
      "transactionType": "CALL",
      "contractName": null,
      "contractAddress": "0x9c9e9fad264089339aad66ff3e32d2ba1ddf6951",
      "function": "addTxSender(address)",
      "arguments": [
        "0x0c6235c04eF4Fa5013A58afb22967a068810C929"
      ],
      "transaction": {
        "from": "0xc3ca11bd8e131471904dced927b3fb7edb453179",
        "to": "0x9c9e9fad264089339aad66ff3e32d2ba1ddf6951",
        "gas": "0x12b07",
        "value": "0x0",
        "input": "0xeebd14af0000000000000000000000000c6235c04ef4fa5013a58afb22967a068810c929",
        "nonce": "0x5b",
        "chainId": "0x4268"
      },
      "additionalContracts": [],
      "isFixedGasLimit": false
    },
    {
      "hash": "0xdf7a6e953adff72120bd804ed6fb4aee510ad4e19cb3ff8f860dac438e2c18fd",
      "transactionType": "CALL",
      "contractName": null,
      "contractAddress": "0xe912f7c7a59470a6e3f178388106e3caa9e6fbd1",
      "function": "addTxSender(address)",
      "arguments": [
        "0x0c6235c04eF4Fa5013A58afb22967a068810C929"
      ],
      "transaction": {
        "from": "0xc3ca11bd8e131471904dced927b3fb7edb453179",
        "to": "0xe912f7c7a59470a6e3f178388106e3caa9e6fbd1",
        "gas": "0x12a8d",
        "value": "0x0",
        "input": "0xeebd14af0000000000000000000000000c6235c04ef4fa5013a58afb22967a068810c929",
        "nonce": "0x5c",
        "chainId": "0x4268"
      },
      "additionalContracts": [],
      "isFixedGasLimit": false
    },
    {
      "hash": "0x98688b5593f2b2ed575eff96cf4acb82e999eb82e0ee0e35c3f24285ff8c644d",
      "transactionType": "CALL",
      "contractName": null,
      "contractAddress": "0x92228b058f25bc4fb333fa296dddecbddf6496f3",
      "function": "addTxSender(address)",
      "arguments": [
        "0x0c6235c04eF4Fa5013A58afb22967a068810C929"
      ],
      "transaction": {
        "from": "0xc3ca11bd8e131471904dced927b3fb7edb453179",
        "to": "0x92228b058f25bc4fb333fa296dddecbddf6496f3",
        "gas": "0x12940",
        "value": "0x0",
        "input": "0xeebd14af0000000000000000000000000c6235c04ef4fa5013a58afb22967a068810c929",
        "nonce": "0x5d",
        "chainId": "0x4268"
      },
      "additionalContracts": [],
      "isFixedGasLimit": false
    },
    {
      "hash": "0x8467c8adbe9c9e612234af1e42a1846e70dc0642ae45962815d24f9d64ac7da4",
      "transactionType": "CALL",
      "contractName": null,
      "contractAddress": "0x2af842c6517cf30fb3456aef485230e0dd085845",
      "function": "addTxSender(address)",
      "arguments": [
        "0x0c6235c04eF4Fa5013A58afb22967a068810C929"
      ],
      "transaction": {
        "from": "0xc3ca11bd8e131471904dced927b3fb7edb453179",
        "to": "0x2af842c6517cf30fb3456aef485230e0dd085845",
        "gas": "0x12a14",
        "value": "0x0",
        "input": "0xeebd14af0000000000000000000000000c6235c04ef4fa5013a58afb22967a068810c929",
        "nonce": "0x5e",
        "chainId": "0x4268"
      },
      "additionalContracts": [],
      "isFixedGasLimit": false
    },
    {
      "hash": "0x4578525d86250e0b620af14a68fddea0c87ed7835170dbced44ec2152c2122cf",
      "transactionType": "CALL",
      "contractName": null,
      "contractAddress": "0x2026027054f5bebceb650abd62dc623e327658e7",
      "function": "addTxSender(address)",
      "arguments": [
        "0x0c6235c04eF4Fa5013A58afb22967a068810C929"
      ],
      "transaction": {
        "from": "0xc3ca11bd8e131471904dced927b3fb7edb453179",
        "to": "0x2026027054f5bebceb650abd62dc623e327658e7",
        "gas": "0x1294d",
        "value": "0x0",
        "input": "0xeebd14af0000000000000000000000000c6235c04ef4fa5013a58afb22967a068810c929",
        "nonce": "0x5f",
        "chainId": "0x4268"
      },
      "additionalContracts": [],
      "isFixedGasLimit": false
    }
  ],
  "receipts": [
    {
      "status": "0x1",
      "cumulativeGasUsed": "0x689c3c",
      "logs": [
        {
          "address": "0x58b610a359c870e0fc941139821a51f5aa23f14e",
          "topics": [
            "0xbfb8b3e2f6221ae729e9cacb0d35f5d9be686ba10cb1d4e34b646bbb87f7a269",
            "0x0000000000000000000000000c6235c04ef4fa5013a58afb22967a068810c929"
          ],
          "data": "0x0000000000000000000000000000000000000000000000000000000000000001",
          "blockHash": "0x91574a4d9f788bc0487ceda5eeedbb1658fea661f69e4e6b67b0e13b2dcccddc",
          "blockNumber": "0x42494b",
          "transactionHash": "0xdfa3678495c65fcb7e75fb67b3542dd7251c07ade4579863df899026f172661a",
          "transactionIndex": "0x29",
          "logIndex": "0x71",
          "removed": false
        }
      ],
      "logsBloom": "0x00000000000010000000000000000000000000000000000000000000000000000000000000000080000000000000000020000020000000000000000000000000000040000000000000000000000000000000000000000000000000000000000000000000000000000000000000000000000000000000000000000002000000000000000000000000000000000000000000000000000000000000000000000000000000000100000000000000000000000000000000000000000000000000000000000000000000000000000000000000000000000000000000000000000000000000200000000000000000080000000000000000000000000000000000000000",
      "type": "0x2",
      "transactionHash": "0xdfa3678495c65fcb7e75fb67b3542dd7251c07ade4579863df899026f172661a",
      "transactionIndex": "0x29",
      "blockHash": "0x91574a4d9f788bc0487ceda5eeedbb1658fea661f69e4e6b67b0e13b2dcccddc",
      "blockNumber": "0x42494b",
      "gasUsed": "0xd7e4",
      "effectiveGasPrice": "0x4e68",
      "blobGasUsed": "0x0",
      "from": "0xc3ca11bd8e131471904dced927b3fb7edb453179",
      "to": "0x58b610a359c870e0fc941139821a51f5aa23f14e",
      "contractAddress": null
    },
    {
      "status": "0x1",
      "cumulativeGasUsed": "0x6ad7a8",
      "logs": [
        {
          "address": "0x2f925d6512b2bbb00f5a36d8b18e01fcf35f7dc7",
          "topics": [
            "0xbfb8b3e2f6221ae729e9cacb0d35f5d9be686ba10cb1d4e34b646bbb87f7a269",
            "0x0000000000000000000000000c6235c04ef4fa5013a58afb22967a068810c929"
          ],
          "data": "0x0000000000000000000000000000000000000000000000000000000000000001",
          "blockHash": "0x7b78210c9899f3656e73ad7b67898ae96734bd73598a5dfc62cc350dcbf5d83f",
          "blockNumber": "0x42494d",
          "transactionHash": "0x55b13a177c95b7e540425c172447bab528625711bc3864c59e24dfcb2e4cac15",
          "transactionIndex": "0x33",
          "logIndex": "0x6e",
          "removed": false
        }
      ],
      "logsBloom": "0x00000000000000000000000000000000000000000000000000000000000000000000000000000080000000000000000020000020000000000000000000000000000040000000000000000000000000000000000000000000000000000000000000000000000000000000000000000000000000000000000000000002000000000000000400000000000000000000000000000000000000000000000000000000000000000000000000000000000000000000000000000000000000000000004000000000000000000000000000004000000000000000000000000000000000000000200000000000000000000000000000000000000000000000000000000000",
      "type": "0x2",
      "transactionHash": "0x55b13a177c95b7e540425c172447bab528625711bc3864c59e24dfcb2e4cac15",
      "transactionIndex": "0x33",
      "blockHash": "0x7b78210c9899f3656e73ad7b67898ae96734bd73598a5dfc62cc350dcbf5d83f",
      "blockNumber": "0x42494d",
      "gasUsed": "0xd7ce",
      "effectiveGasPrice": "0x4d2c",
      "blobGasUsed": "0x0",
      "from": "0xc3ca11bd8e131471904dced927b3fb7edb453179",
      "to": "0x2f925d6512b2bbb00f5a36d8b18e01fcf35f7dc7",
      "contractAddress": null
    },
    {
      "status": "0x1",
      "cumulativeGasUsed": "0x72986d",
      "logs": [
        {
          "address": "0x9c9e9fad264089339aad66ff3e32d2ba1ddf6951",
          "topics": [
            "0xbfb8b3e2f6221ae729e9cacb0d35f5d9be686ba10cb1d4e34b646bbb87f7a269",
            "0x0000000000000000000000000c6235c04ef4fa5013a58afb22967a068810c929"
          ],
          "data": "0x0000000000000000000000000000000000000000000000000000000000000001",
          "blockHash": "0x57d7d5854a40718fe05ebd7ddb39c870e7531ef9d94e6a8578bd8ccdb2e04ad5",
          "blockNumber": "0x42494e",
          "transactionHash": "0x35ef8bdbda37e48d26de488bd60580c6ce0cb7dc3751888808d48e8e21466daa",
          "transactionIndex": "0x33",
          "logIndex": "0x85",
          "removed": false
        }
      ],
      "logsBloom": "0x00000000000000000000000000000000000000000000000000000000000000000000000000000080000000000000000020000020000000000000000000000000000040000000000000000000000000000000000000000000000000000000000000000000000000000000000000000000000000000000000000000002000000000000000000000000000000000000000000000000000000000000000000000000000000000000000000000000000000000000000000000000000000000000000000000000000000000000000800000000000000000000000000000000000002000000600000000000000000000000000000000000000000000000000000000000",
      "type": "0x2",
      "transactionHash": "0x35ef8bdbda37e48d26de488bd60580c6ce0cb7dc3751888808d48e8e21466daa",
      "transactionIndex": "0x33",
      "blockHash": "0x57d7d5854a40718fe05ebd7ddb39c870e7531ef9d94e6a8578bd8ccdb2e04ad5",
      "blockNumber": "0x42494e",
      "gasUsed": "0xd87f",
      "effectiveGasPrice": "0x5624",
      "blobGasUsed": "0x0",
      "from": "0xc3ca11bd8e131471904dced927b3fb7edb453179",
      "to": "0x9c9e9fad264089339aad66ff3e32d2ba1ddf6951",
      "contractAddress": null
    },
    {
      "status": "0x1",
      "cumulativeGasUsed": "0x9f7268",
      "logs": [
        {
          "address": "0xe912f7c7a59470a6e3f178388106e3caa9e6fbd1",
          "topics": [
            "0xbfb8b3e2f6221ae729e9cacb0d35f5d9be686ba10cb1d4e34b646bbb87f7a269",
            "0x0000000000000000000000000c6235c04ef4fa5013a58afb22967a068810c929"
          ],
          "data": "0x0000000000000000000000000000000000000000000000000000000000000001",
          "blockHash": "0xb67f023fb65d8c67245b28f14c2d455aad5e918899edae9d3eeded18cc3a1bd2",
          "blockNumber": "0x42494f",
          "transactionHash": "0xdf7a6e953adff72120bd804ed6fb4aee510ad4e19cb3ff8f860dac438e2c18fd",
          "transactionIndex": "0x40",
          "logIndex": "0xbe",
          "removed": false
        }
      ],
      "logsBloom": "0x00000000000000000000000000000000000000000000000000000000000004000000000000000080000000000000000020000020000000000000000000000000000040020000000000010000000000000000000000000000000000000000000000000000000000000000000000000000000000000000000000000002000000000000000000000000000000000000000000000000000000000000000000000000000000000000000000000000000000000000000000000000000000000000000000000000000000000000000000000000000000000000000000000000000000000000200000000000000000000000000000000000000000000000000000000000",
      "type": "0x2",
      "transactionHash": "0xdf7a6e953adff72120bd804ed6fb4aee510ad4e19cb3ff8f860dac438e2c18fd",
      "transactionIndex": "0x40",
      "blockHash": "0xb67f023fb65d8c67245b28f14c2d455aad5e918899edae9d3eeded18cc3a1bd2",
      "blockNumber": "0x42494f",
      "gasUsed": "0xd826",
      "effectiveGasPrice": "0x4f1d",
      "blobGasUsed": "0x0",
      "from": "0xc3ca11bd8e131471904dced927b3fb7edb453179",
      "to": "0xe912f7c7a59470a6e3f178388106e3caa9e6fbd1",
      "contractAddress": null
    },
    {
      "status": "0x1",
      "cumulativeGasUsed": "0x197149",
      "logs": [
        {
          "address": "0x92228b058f25bc4fb333fa296dddecbddf6496f3",
          "topics": [
            "0xbfb8b3e2f6221ae729e9cacb0d35f5d9be686ba10cb1d4e34b646bbb87f7a269",
            "0x0000000000000000000000000c6235c04ef4fa5013a58afb22967a068810c929"
          ],
          "data": "0x0000000000000000000000000000000000000000000000000000000000000001",
          "blockHash": "0xad3b96b3887e175c300571dc25f15a837fa4261b7894f14a66e50320fc018919",
          "blockNumber": "0x424950",
          "transactionHash": "0x98688b5593f2b2ed575eff96cf4acb82e999eb82e0ee0e35c3f24285ff8c644d",
          "transactionIndex": "0xc",
          "logIndex": "0x1e",
          "removed": false
        }
      ],
      "logsBloom": "0x00000000000000000000000000000000000000000000000000000000000000000000000000000080000000000000000020000020000000000000000000000000000040000000000000000000000000000000000000000000000000000000000000000000000000000000000000000000000000000000000000000002000000000000000000000000000000000000000000000000000000008010000000000000000000000000000000000000000000000000000000000000000000000000000000000000002000000000000000000000000000000000000000000000000000000000200000000000000000000000000000000000000000000000000000000000",
      "type": "0x2",
      "transactionHash": "0x98688b5593f2b2ed575eff96cf4acb82e999eb82e0ee0e35c3f24285ff8c644d",
      "transactionIndex": "0xc",
      "blockHash": "0xad3b96b3887e175c300571dc25f15a837fa4261b7894f14a66e50320fc018919",
      "blockNumber": "0x424950",
      "gasUsed": "0xd735",
      "effectiveGasPrice": "0x5855",
      "blobGasUsed": "0x0",
      "from": "0xc3ca11bd8e131471904dced927b3fb7edb453179",
      "to": "0x92228b058f25bc4fb333fa296dddecbddf6496f3",
      "contractAddress": null
    },
    {
      "status": "0x1",
      "cumulativeGasUsed": "0x76a424",
      "logs": [
        {
          "address": "0x2af842c6517cf30fb3456aef485230e0dd085845",
          "topics": [
            "0xbfb8b3e2f6221ae729e9cacb0d35f5d9be686ba10cb1d4e34b646bbb87f7a269",
            "0x0000000000000000000000000c6235c04ef4fa5013a58afb22967a068810c929"
          ],
          "data": "0x0000000000000000000000000000000000000000000000000000000000000001",
          "blockHash": "0xe2cebb80cf9f115f395d155a23e68800e6066c2817f7b89bfb6f4fa02a4d3752",
          "blockNumber": "0x424951",
          "transactionHash": "0x8467c8adbe9c9e612234af1e42a1846e70dc0642ae45962815d24f9d64ac7da4",
          "transactionIndex": "0x2a",
          "logIndex": "0x74",
          "removed": false
        }
      ],
      "logsBloom": "0x00000000000000000000000000000000000000000000000000000000000000000000000000000080000000000000000020000020000000000000000000000000000040000000800000000000000000000000000000000000000000000000000000000000000000000000000000000000000000000000000000000002000000000000000000000000000000000000000000000000000000000000000000000000000000004000000000000000000000000000000000000000000000000000000000000000000000000000000000000000000000000000000000000200000000000000200000000000000000000000000000000000000000000000000000000000",
      "type": "0x2",
      "transactionHash": "0x8467c8adbe9c9e612234af1e42a1846e70dc0642ae45962815d24f9d64ac7da4",
      "transactionIndex": "0x2a",
      "blockHash": "0xe2cebb80cf9f115f395d155a23e68800e6066c2817f7b89bfb6f4fa02a4d3752",
      "blockNumber": "0x424951",
      "gasUsed": "0xd7cf",
      "effectiveGasPrice": "0x4f2b",
      "blobGasUsed": "0x0",
      "from": "0xc3ca11bd8e131471904dced927b3fb7edb453179",
      "to": "0x2af842c6517cf30fb3456aef485230e0dd085845",
      "contractAddress": null
    },
    {
      "status": "0x1",
      "cumulativeGasUsed": "0x310d52",
      "logs": [
        {
          "address": "0x2026027054f5bebceb650abd62dc623e327658e7",
          "topics": [
            "0xbfb8b3e2f6221ae729e9cacb0d35f5d9be686ba10cb1d4e34b646bbb87f7a269",
            "0x0000000000000000000000000c6235c04ef4fa5013a58afb22967a068810c929"
          ],
          "data": "0x0000000000000000000000000000000000000000000000000000000000000001",
          "blockHash": "0xee9d5cb47c1fac9ca4971ef2df9d7950292e3e12ab3e0cd5e823b7bb75abb771",
          "blockNumber": "0x424952",
          "transactionHash": "0x4578525d86250e0b620af14a68fddea0c87ed7835170dbced44ec2152c2122cf",
          "transactionIndex": "0x16",
          "logIndex": "0x2d",
          "removed": false
        }
      ],
      "logsBloom": "0x00000000000000000000000000000000000000000000000000000000000000000000000000800080000000000000000020000020000000000000000000000200000040000000000000000000000000000000000000000000000000000000000000000000000000000000000000000000000000000000000000000002000000000020000000000000000000000000000000000000000000000000000000000000000000000000000000000000000000000000000000000000000000000000000000000000000000000000000000000000000000000000000000000000000000000000200000000000000000000000000000000000000000000000000000000000",
      "type": "0x2",
      "transactionHash": "0x4578525d86250e0b620af14a68fddea0c87ed7835170dbced44ec2152c2122cf",
      "transactionIndex": "0x16",
      "blockHash": "0xee9d5cb47c1fac9ca4971ef2df9d7950292e3e12ab3e0cd5e823b7bb75abb771",
      "blockNumber": "0x424952",
      "gasUsed": "0xd73f",
      "effectiveGasPrice": "0x5868",
      "blobGasUsed": "0x0",
      "from": "0xc3ca11bd8e131471904dced927b3fb7edb453179",
      "to": "0x2026027054f5bebceb650abd62dc623e327658e7",
      "contractAddress": null
    }
  ],
  "libraries": [],
  "pending": [],
  "returns": {},
  "timestamp": 1755279506,
  "chain": 17000,
  "commit": "cdeee31"
}