{
  "transactions": [
    {
      "hash": "0x0f6e5cc49e4212ad94b7886e97aea03ac38f7733c8092b7091677b3b2a9f45dc",
      "transactionType": "CALL",
      "contractName": null,
      "contractAddress": "0x808490311debe8818cdffe1faae436cb84faa906",
      "function": "addChainContract(string[],string[])",
      "arguments": [
        "[43113]",
        "[0x005c5fd1585a73817107bfd3929f7e559750ceed]"
      ],
      "transaction": {
        "from": "0xe62ab4d111f968660c6b2188046f9b9ba53c4bae",
        "to": "0x808490311debe8818cdffe1faae436cb84faa906",
        "gas": "0x4b948",
        "value": "0x0",
        "input": "0x013fd3bd000000000000000000000000000000000000000000000000000000000000004000000000000000000000000000000000000000000000000000000000000000c0000000000000000000000000000000000000000000000000000000000000000100000000000000000000000000000000000000000000000000000000000000200000000000000000000000000000000000000000000000000000000000000005343331313300000000000000000000000000000000000000000000000000000000000000000000000000000000000000000000000000000000000000000000010000000000000000000000000000000000000000000000000000000000000020000000000000000000000000000000000000000000000000000000000000002a30783030356335666431353835613733383137313037626664333932396637653535393735306365656400000000000000000000000000000000000000000000",
        "nonce": "0x40e",
        "chainId": "0x14a34"
      },
      "additionalContracts": [],
      "isFixedGasLimit": false
    },
    {
      "hash": "0x6195b2f6502210e0f4d07cdddb1d788e903c68129ce036dbddd11a2fb2cbd99a",
      "transactionType": "CALL",
      "contractName": null,
      "contractAddress": "0x808490311debe8818cdffe1faae436cb84faa906",
      "function": "attachRWAX(uint256,uint256,string[],string[])",
      "arguments": [
        "1",
        "1",
        "[43113]",
        "[0xdef5d31e4b2e0bf38af3e8092a5abf51db484eec]"
      ],
      "transaction": {
        "from": "0xe62ab4d111f968660c6b2188046f9b9ba53c4bae",
        "to": "0x808490311debe8818cdffe1faae436cb84faa906",
        "gas": "0x5c781",
        "value": "0x0",
        "input": "0x33a5f5b40000000000000000000000000000000000000000000000000000000000000001000000000000000000000000000000000000000000000000000000000000000100000000000000000000000000000000000000000000000000000000000000800000000000000000000000000000000000000000000000000000000000000100000000000000000000000000000000000000000000000000000000000000000100000000000000000000000000000000000000000000000000000000000000200000000000000000000000000000000000000000000000000000000000000005343331313300000000000000000000000000000000000000000000000000000000000000000000000000000000000000000000000000000000000000000000010000000000000000000000000000000000000000000000000000000000000020000000000000000000000000000000000000000000000000000000000000002a30786465663564333165346232653062663338616633653830393261356162663531646234383465656300000000000000000000000000000000000000000000",
        "nonce": "0x40f",
        "chainId": "0x14a34"
      },
      "additionalContracts": [],
      "isFixedGasLimit": false
    },
    {
      "hash": "0xa947b1c93b358d9e764b2a393c5402e5c8ace10e740e22fd9ff10a316d91a69c",
      "transactionType": "CALL",
      "contractName": null,
      "contractAddress": "0x808490311debe8818cdffe1faae436cb84faa906",
      "function": "attachStorageManager(uint256,uint256,string[],string[])",
      "arguments": [
        "1",
        "1",
        "[43113]",
        "[0xcacf2003d4bc2e19c865e65ebb9d57c440217f0f]"
      ],
      "transaction": {
        "from": "0xe62ab4d111f968660c6b2188046f9b9ba53c4bae",
        "to": "0x808490311debe8818cdffe1faae436cb84faa906",
        "gas": "0x525dd",
        "value": "0x0",
        "input": "0x2f68b4890000000000000000000000000000000000000000000000000000000000000001000000000000000000000000000000000000000000000000000000000000000100000000000000000000000000000000000000000000000000000000000000800000000000000000000000000000000000000000000000000000000000000100000000000000000000000000000000000000000000000000000000000000000100000000000000000000000000000000000000000000000000000000000000200000000000000000000000000000000000000000000000000000000000000005343331313300000000000000000000000000000000000000000000000000000000000000000000000000000000000000000000000000000000000000000000010000000000000000000000000000000000000000000000000000000000000020000000000000000000000000000000000000000000000000000000000000002a30786361636632303033643462633265313963383635653635656262396435376334343032313766306600000000000000000000000000000000000000000000",
        "nonce": "0x410",
        "chainId": "0x14a34"
      },
      "additionalContracts": [],
      "isFixedGasLimit": false
    },
    {
      "hash": "0x6a065b9453cf58753de7ef3514a993b6e9aeb3b579ee95d0c53abafe054c83f1",
      "transactionType": "CALL",
      "contractName": null,
      "contractAddress": "0x808490311debe8818cdffe1faae436cb84faa906",
      "function": "attachSentryManager(uint256,uint256,string[],string[])",
      "arguments": [
        "1",
        "1",
        "[43113]",
        "[0xf53fb9bb64ab9d3d78f976735762c5af9b5ff341]"
      ],
      "transaction": {
        "from": "0xe62ab4d111f968660c6b2188046f9b9ba53c4bae",
        "to": "0x808490311debe8818cdffe1faae436cb84faa906",
        "gas": "0x4dc51",
        "value": "0x0",
        "input": "0x349de7970000000000000000000000000000000000000000000000000000000000000001000000000000000000000000000000000000000000000000000000000000000100000000000000000000000000000000000000000000000000000000000000800000000000000000000000000000000000000000000000000000000000000100000000000000000000000000000000000000000000000000000000000000000100000000000000000000000000000000000000000000000000000000000000200000000000000000000000000000000000000000000000000000000000000005343331313300000000000000000000000000000000000000000000000000000000000000000000000000000000000000000000000000000000000000000000010000000000000000000000000000000000000000000000000000000000000020000000000000000000000000000000000000000000000000000000000000002a30786635336662396262363461623964336437386639373637333537363263356166396235666633343100000000000000000000000000000000000000000000",
        "nonce": "0x411",
        "chainId": "0x14a34"
      },
      "additionalContracts": [],
      "isFixedGasLimit": false
    }
  ],
  "receipts": [
    {
      "status": "0x1",
      "cumulativeGasUsed": "0x161571",
      "logs": [],
      "logsBloom": "0x00000000000000000000000000000000000000000000000000000000000000000000000000000000000000000000000000000000000000000000000000000000000000000000000000000000000000000000000000000000000000000000000000000000000000000000000000000000000000000000000000000000000000000000000000000000000000000000000000000000000000000000000000000000000000000000000000000000000000000000000000000000000000000000000000000000000000000000000000000000000000000000000000000000000000000000000000000000000000000000000000000000000000000000000000000000",
      "type": "0x2",
      "transactionHash": "0x0f6e5cc49e4212ad94b7886e97aea03ac38f7733c8092b7091677b3b2a9f45dc",
      "transactionIndex": "0x6",
      "blockHash": "0x0851c7e4dc37d01f2d34c271c5b93650d3d8e5e20af35a49a709c0722eee66cb",
      "blockNumber": "0x1667a60",
      "gasUsed": "0x36b80",
      "effectiveGasPrice": "0x3eeec",
      "from": "0xe62ab4d111f968660c6b2188046f9b9ba53c4bae",
      "to": "0x808490311debe8818cdffe1faae436cb84faa906",
      "contractAddress": null,
      "l1BaseFeeScalar": "0x44d",
      "l1BlobBaseFee": "0x1",
      "l1BlobBaseFeeScalar": "0xa118b",
      "l1Fee": "0x5e8ced",
      "l1GasPrice": "0x25f223",
      "l1GasUsed": "0x8d7"
    },
    {
      "status": "0x1",
      "cumulativeGasUsed": "0x27042d",
      "logs": [],
      "logsBloom": "0x00000000000000000000000000000000000000000000000000000000000000000000000000000000000000000000000000000000000000000000000000000000000000000000000000000000000000000000000000000000000000000000000000000000000000000000000000000000000000000000000000000000000000000000000000000000000000000000000000000000000000000000000000000000000000000000000000000000000000000000000000000000000000000000000000000000000000000000000000000000000000000000000000000000000000000000000000000000000000000000000000000000000000000000000000000000",
      "type": "0x2",
      "transactionHash": "0x6195b2f6502210e0f4d07cdddb1d788e903c68129ce036dbddd11a2fb2cbd99a",
      "transactionIndex": "0xd",
      "blockHash": "0xaeef776d4e753312b71cb3c92559bff7b0532181ed55938e9c57e5fd38ac1245",
      "blockNumber": "0x1667a62",
      "gasUsed": "0x3f3a1",
      "effectiveGasPrice": "0x3ef44",
      "from": "0xe62ab4d111f968660c6b2188046f9b9ba53c4bae",
      "to": "0x808490311debe8818cdffe1faae436cb84faa906",
      "contractAddress": null,
      "l1BaseFeeScalar": "0x44d",
      "l1BlobBaseFee": "0x1",
      "l1BlobBaseFeeScalar": "0xa118b",
      "l1Fee": "0x60c984",
      "l1GasPrice": "0x25f223",
      "l1GasUsed": "0x90c"
    },
    {
      "status": "0x1",
      "cumulativeGasUsed": "0x43042",
      "logs": [],
      "logsBloom": "0x00000000000000000000000000000000000000000000000000000000000000000000000000000000000000000000000000000000000000000000000000000000000000000000000000000000000000000000000000000000000000000000000000000000000000000000000000000000000000000000000000000000000000000000000000000000000000000000000000000000000000000000000000000000000000000000000000000000000000000000000000000000000000000000000000000000000000000000000000000000000000000000000000000000000000000000000000000000000000000000000000000000000000000000000000000000",
      "type": "0x2",
      "transactionHash": "0xa947b1c93b358d9e764b2a393c5402e5c8ace10e740e22fd9ff10a316d91a69c",
      "transactionIndex": "0x1",
      "blockHash": "0x4b743a50012e938d9da317561d8f1720d5afedb192ca590f1110de9ab4e29d6e",
      "blockNumber": "0x1667a64",
      "gasUsed": "0x3851b",
      "effectiveGasPrice": "0x3eec6",
      "from": "0xe62ab4d111f968660c6b2188046f9b9ba53c4bae",
      "to": "0x808490311debe8818cdffe1faae436cb84faa906",
      "contractAddress": null,
      "l1BaseFeeScalar": "0x44d",
      "l1BlobBaseFee": "0x1",
      "l1BlobBaseFeeScalar": "0xa118b",
      "l1Fee": "0x5b9611",
      "l1GasPrice": "0x241d8b",
      "l1GasUsed": "0x8ff"
    },
    {
      "status": "0x1",
      "cumulativeGasUsed": "0x9a011",
      "logs": [],
      "logsBloom": "0x00000000000000000000000000000000000000000000000000000000000000000000000000000000000000000000000000000000000000000000000000000000000000000000000000000000000000000000000000000000000000000000000000000000000000000000000000000000000000000000000000000000000000000000000000000000000000000000000000000000000000000000000000000000000000000000000000000000000000000000000000000000000000000000000000000000000000000000000000000000000000000000000000000000000000000000000000000000000000000000000000000000000000000000000000000000",
      "type": "0x2",
      "transactionHash": "0x6a065b9453cf58753de7ef3514a993b6e9aeb3b579ee95d0c53abafe054c83f1",
      "transactionIndex": "0x5",
      "blockHash": "0xeec3106dc9704ba45b36a3eeefbf7f177dcece8852f3fe3a3b8cbb54aab70c18",
      "blockNumber": "0x1667a66",
      "gasUsed": "0x384de",
      "effectiveGasPrice": "0x3ef3f",
      "from": "0xe62ab4d111f968660c6b2188046f9b9ba53c4bae",
      "to": "0x808490311debe8818cdffe1faae436cb84faa906",
      "contractAddress": null,
      "l1BaseFeeScalar": "0x44d",
      "l1BlobBaseFee": "0x1",
      "l1BlobBaseFeeScalar": "0xa118b",
      "l1Fee": "0x5c1e4f",
      "l1GasPrice": "0x241d8b",
      "l1GasUsed": "0x90c"
    }
  ],
  "libraries": [],
  "pending": [],
  "returns": {},
  "timestamp": 1742754733,
  "chain": 84532,
  "commit": "0d2d6543"
}