{
  "transactions": [
    {
      "hash": "0xaffc65d59f74895f38b2810724cb638b8ddb766becaaf7e8ac5534fd9aede024",
      "transactionType": "CALL",
      "contractName": null,
      "contractAddress": "0x31f21c6e2605d28e6b204cd323ff58421fc8dd00",
      "function": "addChainContract(string[],string[])",
      "arguments": [
        "[5003, 153]",
        "[0x9dc772b55e95a630031ebe431706d105af01cf03, 0x24a74106195acd7e3e0a8cc17fd44761cc32474a]"
      ],
      "transaction": {
        "from": "0xe62ab4d111f968660c6b2188046f9b9ba53c4bae",
        "to": "0x31f21c6e2605d28e6b204cd323ff58421fc8dd00",
        "gas": "0x3c07c",
        "value": "0x0",
        "input": "0x013fd3bd0000000000000000000000000000000000000000000000000000000000000040000000000000000000000000000000000000000000000000000000000000012000000000000000000000000000000000000000000000000000000000000000020000000000000000000000000000000000000000000000000000000000000040000000000000000000000000000000000000000000000000000000000000008000000000000000000000000000000000000000000000000000000000000000043530303300000000000000000000000000000000000000000000000000000000000000000000000000000000000000000000000000000000000000000000000331353300000000000000000000000000000000000000000000000000000000000000000000000000000000000000000000000000000000000000000000000002000000000000000000000000000000000000000000000000000000000000004000000000000000000000000000000000000000000000000000000000000000a0000000000000000000000000000000000000000000000000000000000000002a30783964633737326235356539356136333030333165626534333137303664313035616630316366303300000000000000000000000000000000000000000000000000000000000000000000000000000000000000000000000000000000002a30783234613734313036313935616364376533653061386363313766643434373631636333323437346100000000000000000000000000000000000000000000",
        "nonce": "0x45e",
        "chainId": "0x14a34"
      },
      "additionalContracts": [],
      "isFixedGasLimit": false
    },
    {
      "hash": "0x716fb65ed522c509aa39972ac4f9443740eff198bf1cb6f27eb3d6207f39584f",
      "transactionType": "CALL",
      "contractName": null,
      "contractAddress": "0x31f21c6e2605d28e6b204cd323ff58421fc8dd00",
      "function": "attachRWAX(uint256,uint256,string[],string[])",
      "arguments": [
        "1",
        "1",
        "[5003, 153]",
        "[0xad49cabd336f943a9c350b9ed60680c54fa2c3d1, 0x41388451eca7344136004d29a813dcee49577b44]"
      ],
      "transaction": {
        "from": "0xe62ab4d111f968660c6b2188046f9b9ba53c4bae",
        "to": "0x31f21c6e2605d28e6b204cd323ff58421fc8dd00",
        "gas": "0x3eda8",
        "value": "0x0",
        "input": "0x33a5f5b4000000000000000000000000000000000000000000000000000000000000000100000000000000000000000000000000000000000000000000000000000000010000000000000000000000000000000000000000000000000000000000000080000000000000000000000000000000000000000000000000000000000000016000000000000000000000000000000000000000000000000000000000000000020000000000000000000000000000000000000000000000000000000000000040000000000000000000000000000000000000000000000000000000000000008000000000000000000000000000000000000000000000000000000000000000043530303300000000000000000000000000000000000000000000000000000000000000000000000000000000000000000000000000000000000000000000000331353300000000000000000000000000000000000000000000000000000000000000000000000000000000000000000000000000000000000000000000000002000000000000000000000000000000000000000000000000000000000000004000000000000000000000000000000000000000000000000000000000000000a0000000000000000000000000000000000000000000000000000000000000002a30786164343963616264333336663934336139633335306239656436303638306335346661326333643100000000000000000000000000000000000000000000000000000000000000000000000000000000000000000000000000000000002a30783431333838343531656361373334343133363030346432396138313364636565343935373762343400000000000000000000000000000000000000000000",
        "nonce": "0x45f",
        "chainId": "0x14a34"
      },
      "additionalContracts": [],
      "isFixedGasLimit": false
    },
    {
      "hash": "0x0d615355684fae85ac46457e318da17d1da7f549b546429935069bf3c4f4eeeb",
      "transactionType": "CALL",
      "contractName": null,
      "contractAddress": "0x31f21c6e2605d28e6b204cd323ff58421fc8dd00",
      "function": "attachStorageManager(uint256,uint256,string[],string[])",
      "arguments": [
        "1",
        "1",
        "[5003, 153]",
        "[0xede597aa066e6d7bc84bf586c494735deb7dde9f, 0x74972e7ff5561bd902e3ec3ddd5a22653088ca6f]"
      ],
      "transaction": {
        "from": "0xe62ab4d111f968660c6b2188046f9b9ba53c4bae",
        "to": "0x31f21c6e2605d28e6b204cd323ff58421fc8dd00",
        "gas": "0x3f195",
        "value": "0x0",
        "input": "0x2f68b489000000000000000000000000000000000000000000000000000000000000000100000000000000000000000000000000000000000000000000000000000000010000000000000000000000000000000000000000000000000000000000000080000000000000000000000000000000000000000000000000000000000000016000000000000000000000000000000000000000000000000000000000000000020000000000000000000000000000000000000000000000000000000000000040000000000000000000000000000000000000000000000000000000000000008000000000000000000000000000000000000000000000000000000000000000043530303300000000000000000000000000000000000000000000000000000000000000000000000000000000000000000000000000000000000000000000000331353300000000000000000000000000000000000000000000000000000000000000000000000000000000000000000000000000000000000000000000000002000000000000000000000000000000000000000000000000000000000000004000000000000000000000000000000000000000000000000000000000000000a0000000000000000000000000000000000000000000000000000000000000002a30786564653539376161303636653664376263383462663538366334393437333564656237646465396600000000000000000000000000000000000000000000000000000000000000000000000000000000000000000000000000000000002a30783734393732653766663535363162643930326533656333646464356132323635333038386361366600000000000000000000000000000000000000000000",
        "nonce": "0x460",
        "chainId": "0x14a34"
      },
      "additionalContracts": [],
      "isFixedGasLimit": false
    },
    {
      "hash": "0x4b219b2451f32bf90463e1c648984f57cd62353746b373c24625b7a2c094bb7d",
      "transactionType": "CALL",
      "contractName": null,
      "contractAddress": "0x31f21c6e2605d28e6b204cd323ff58421fc8dd00",
      "function": "attachSentryManager(uint256,uint256,string[],string[])",
      "arguments": [
        "1",
        "1",
        "[5003, 153]",
        "[0xda61b02d88d2c857da9d2da435152b08f03e2836, 0x5930640c1572bcd396eb410f62a6975ab9b8a148]"
      ],
      "transaction": {
        "from": "0xe62ab4d111f968660c6b2188046f9b9ba53c4bae",
        "to": "0x31f21c6e2605d28e6b204cd323ff58421fc8dd00",
        "gas": "0x3ed4a",
        "value": "0x0",
        "input": "0x349de797000000000000000000000000000000000000000000000000000000000000000100000000000000000000000000000000000000000000000000000000000000010000000000000000000000000000000000000000000000000000000000000080000000000000000000000000000000000000000000000000000000000000016000000000000000000000000000000000000000000000000000000000000000020000000000000000000000000000000000000000000000000000000000000040000000000000000000000000000000000000000000000000000000000000008000000000000000000000000000000000000000000000000000000000000000043530303300000000000000000000000000000000000000000000000000000000000000000000000000000000000000000000000000000000000000000000000331353300000000000000000000000000000000000000000000000000000000000000000000000000000000000000000000000000000000000000000000000002000000000000000000000000000000000000000000000000000000000000004000000000000000000000000000000000000000000000000000000000000000a0000000000000000000000000000000000000000000000000000000000000002a30786461363162303264383864326338353764613964326461343335313532623038663033653238333600000000000000000000000000000000000000000000000000000000000000000000000000000000000000000000000000000000002a30783539333036343063313537326263643339366562343130663632613639373561623962386131343800000000000000000000000000000000000000000000",
        "nonce": "0x461",
        "chainId": "0x14a34"
      },
      "additionalContracts": [],
      "isFixedGasLimit": false
    }
  ],
  "receipts": [
    {
      "status": "0x1",
      "cumulativeGasUsed": "0x5458ac",
      "logs": [],
      "logsBloom": "0x00000000000000000000000000000000000000000000000000000000000000000000000000000000000000000000000000000000000000000000000000000000000000000000000000000000000000000000000000000000000000000000000000000000000000000000000000000000000000000000000000000000000000000000000000000000000000000000000000000000000000000000000000000000000000000000000000000000000000000000000000000000000000000000000000000000000000000000000000000000000000000000000000000000000000000000000000000000000000000000000000000000000000000000000000000000",
      "type": "0x2",
      "transactionHash": "0xaffc65d59f74895f38b2810724cb638b8ddb766becaaf7e8ac5534fd9aede024",
      "transactionIndex": "0x69",
      "blockHash": "0xaac7ee4734a51748b5f01d5286f6dfe32879f666c6f6fc3ad46cd277561840af",
      "blockNumber": "0x191f46b",
      "gasUsed": "0x2b760",
      "effectiveGasPrice": "0x163bba5a",
      "from": "0xe62ab4d111f968660c6b2188046f9b9ba53c4bae",
      "to": "0x31f21c6e2605d28e6b204cd323ff58421fc8dd00",
      "contractAddress": null,
      "l1BaseFeeScalar": "0x44d",
      "l1BlobBaseFee": "0x1",
      "l1BlobBaseFeeScalar": "0xa118b",
      "l1Fee": "0x232d0fb3",
      "l1GasPrice": "0xa6b822c",
      "l1GasUsed": "0xbfa"
    },
    {
      "status": "0x1",
      "cumulativeGasUsed": "0x2a375d",
      "logs": [],
      "logsBloom": "0x00000000000000000000000000000000000000000000000000000000000000000000000000000000000000000000000000000000000000000000000000000000000000000000000000000000000000000000000000000000000000000000000000000000000000000000000000000000000000000000000000000000000000000000000000000000000000000000000000000000000000000000000000000000000000000000000000000000000000000000000000000000000000000000000000000000000000000000000000000000000000000000000000000000000000000000000000000000000000000000000000000000000000000000000000000000",
      "type": "0x2",
      "transactionHash": "0x716fb65ed522c509aa39972ac4f9443740eff198bf1cb6f27eb3d6207f39584f",
      "transactionIndex": "0x1d",
      "blockHash": "0x5996fd10cfe9cf93e1e4fddaffeced92f41246994868ce2fe5050ab865290994",
      "blockNumber": "0x191f46d",
      "gasUsed": "0x2d814",
      "effectiveGasPrice": "0x1685207f",
      "from": "0xe62ab4d111f968660c6b2188046f9b9ba53c4bae",
      "to": "0x31f21c6e2605d28e6b204cd323ff58421fc8dd00",
      "contractAddress": null,
      "l1BaseFeeScalar": "0x44d",
      "l1BlobBaseFee": "0x1",
      "l1BlobBaseFeeScalar": "0xa118b",
      "l1Fee": "0x245e19ca",
      "l1GasPrice": "0xa11d448",
      "l1GasUsed": "0xcd0"
    },
    {
      "status": "0x1",
      "cumulativeGasUsed": "0x1a38e4",
      "logs": [],
      "logsBloom": "0x00000000000000000000000000000000000000000000000000000000000000000000000000000000000000000000000000000000000000000000000000000000000000000000000000000000000000000000000000000000000000000000000000000000000000000000000000000000000000000000000000000000000000000000000000000000000000000000000000000000000000000000000000000000000000000000000000000000000000000000000000000000000000000000000000000000000000000000000000000000000000000000000000000000000000000000000000000000000000000000000000000000000000000000000000000000",
      "type": "0x2",
      "transactionHash": "0x0d615355684fae85ac46457e318da17d1da7f549b546429935069bf3c4f4eeeb",
      "transactionIndex": "0xf",
      "blockHash": "0x6b1480f5bc62be499eb3feabc19e09ca7165286d29c2f0663380cdb0f60105d7",
      "blockNumber": "0x191f46f",
      "gasUsed": "0x2daec",
      "effectiveGasPrice": "0x16b4c38c",
      "from": "0xe62ab4d111f968660c6b2188046f9b9ba53c4bae",
      "to": "0x31f21c6e2605d28e6b204cd323ff58421fc8dd00",
      "contractAddress": null,
      "l1BaseFeeScalar": "0x44d",
      "l1BlobBaseFee": "0x1",
      "l1BlobBaseFeeScalar": "0xa118b",
      "l1Fee": "0x245e19ca",
      "l1GasPrice": "0xa11d448",
      "l1GasUsed": "0xcd0"
    },
    {
      "status": "0x1",
      "cumulativeGasUsed": "0x192680",
      "logs": [],
      "logsBloom": "0x00000000000000000000000000000000000000000000000000000000000000000000000000000000000000000000000000000000000000000000000000000000000000000000000000000000000000000000000000000000000000000000000000000000000000000000000000000000000000000000000000000000000000000000000000000000000000000000000000000000000000000000000000000000000000000000000000000000000000000000000000000000000000000000000000000000000000000000000000000000000000000000000000000000000000000000000000000000000000000000000000000000000000000000000000000000",
      "type": "0x2",
      "transactionHash": "0x4b219b2451f32bf90463e1c648984f57cd62353746b373c24625b7a2c094bb7d",
      "transactionIndex": "0x1f",
      "blockHash": "0x05722c66d46b1651b296d8d4f71f54be4bc420190042cf8a0f1ce1ad4c0adf6d",
      "blockNumber": "0x191f471",
      "gasUsed": "0x2d7d0",
      "effectiveGasPrice": "0x167d8c80",
      "from": "0xe62ab4d111f968660c6b2188046f9b9ba53c4bae",
      "to": "0x31f21c6e2605d28e6b204cd323ff58421fc8dd00",
      "contractAddress": null,
      "l1BaseFeeScalar": "0x44d",
      "l1BlobBaseFee": "0x1",
      "l1BlobBaseFeeScalar": "0xa118b",
      "l1Fee": "0x2484164b",
      "l1GasPrice": "0xa11d448",
      "l1GasUsed": "0xcdd"
    }
  ],
  "libraries": [],
  "pending": [],
  "returns": {},
  "timestamp": 1748453315,
  "chain": 84532,
  "commit": "f02f4300"
}