{
  "transactions": [
    {
      "hash": "0x83f3d8909d9cb01a754b9a921486497523c5bfad523b8163208bbaa2b6ba09b1",
      "transactionType": "CALL",
      "contractName": null,
      "contractAddress": "0x7cd54fcbd1e2fdad5ec77557f76cc35972977a5a",
      "function": "getFeeTokenList()",
      "arguments": [],
      "transaction": {
        "from": "0xe62ab4d111f968660c6b2188046f9b9ba53c4bae",
        "to": "0x7cd54fcbd1e2fdad5ec77557f76cc35972977a5a",
        "gas": "0x8a7e",
        "value": "0x0",
        "input": "0xe28ab277",
        "nonce": "0x2a8",
        "chainId": "0x14a34"
      },
      "additionalContracts": [],
      "isFixedGasLimit": false
    },
    {
      "hash": "0xb2d0e754b446837ae0b1c70a8a95b1196d653fd57a7c44bfeefebd09fc082486",
      "transactionType": "CALL",
      "contractName": null,
      "contractAddress": "0x7cd54fcbd1e2fdad5ec77557f76cc35972977a5a",
      "function": "addFeeToken(string)",
      "arguments": [
        "0x6a4dbc971533ba36bdc23ad70f5a7a12e064f4ae"
      ],
      "transaction": {
        "from": "0xe62ab4d111f968660c6b2188046f9b9ba53c4bae",
        "to": "0x7cd54fcbd1e2fdad5ec77557f76cc35972977a5a",
        "gas": "0x2696b",
        "value": "0x0",
        "input": "0x12a6385f0000000000000000000000000000000000000000000000000000000000000020000000000000000000000000000000000000000000000000000000000000002a30783661346462633937313533336261333662646332336164373066356137613132653036346634616500000000000000000000000000000000000000000000",
        "nonce": "0x2a9",
        "chainId": "0x14a34"
      },
      "additionalContracts": [],
      "isFixedGasLimit": false
    },
    {
      "hash": "0x64ce1f5cc995879b452ead134dfd377ab49c0e7d19f346145c87972b9ad0be33",
      "transactionType": "CALL",
      "contractName": null,
      "contractAddress": "0x7cd54fcbd1e2fdad5ec77557f76cc35972977a5a",
      "function": "setFeeMultiplier(uint8,uint256)",
      "arguments": [
        "0",
        "2"
      ],
      "transaction": {
        "from": "0xe62ab4d111f968660c6b2188046f9b9ba53c4bae",
        "to": "0x7cd54fcbd1e2fdad5ec77557f76cc35972977a5a",
        "gas": "0x112e8",
        "value": "0x0",
        "input": "0x0ee24eb500000000000000000000000000000000000000000000000000000000000000000000000000000000000000000000000000000000000000000000000000000002",
        "nonce": "0x2aa",
        "chainId": "0x14a34"
      },
      "additionalContracts": [],
      "isFixedGasLimit": false
    },
    {
      "hash": "0xe0163fa2234c448509190ff0e97a9be17d3fb55d743ba20c82488d8546c8fd6c",
      "transactionType": "CALL",
      "contractName": null,
      "contractAddress": "0x7cd54fcbd1e2fdad5ec77557f76cc35972977a5a",
      "function": "setFeeMultiplier(uint8,uint256)",
      "arguments": [
        "1",
        "10"
      ],
      "transaction": {
        "from": "0xe62ab4d111f968660c6b2188046f9b9ba53c4bae",
        "to": "0x7cd54fcbd1e2fdad5ec77557f76cc35972977a5a",
        "gas": "0x11324",
        "value": "0x0",
        "input": "0x0ee24eb50000000000000000000000000000000000000000000000000000000000000001000000000000000000000000000000000000000000000000000000000000000a",
        "nonce": "0x2ab",
        "chainId": "0x14a34"
      },
      "additionalContracts": [],
      "isFixedGasLimit": false
    },
    {
      "hash": "0x67859b7d28e5134d166a79f25cfcb1193c9973cb516d0d5b8b7578a5d9d90d59",
      "transactionType": "CALL",
      "contractName": null,
      "contractAddress": "0x7cd54fcbd1e2fdad5ec77557f76cc35972977a5a",
      "function": "setFeeMultiplier(uint8,uint256)",
      "arguments": [
        "2",
        "1"
      ],
      "transaction": {
        "from": "0xe62ab4d111f968660c6b2188046f9b9ba53c4bae",
        "to": "0x7cd54fcbd1e2fdad5ec77557f76cc35972977a5a",
        "gas": "0x11346",
        "value": "0x0",
        "input": "0x0ee24eb500000000000000000000000000000000000000000000000000000000000000020000000000000000000000000000000000000000000000000000000000000001",
        "nonce": "0x2ac",
        "chainId": "0x14a34"
      },
      "additionalContracts": [],
      "isFixedGasLimit": false
    },
    {
      "hash": "0xc6fd1295d94f2632266c4c422a679d44bbac02fa3c6f295b6c5cf135f38f7a90",
      "transactionType": "CALL",
      "contractName": null,
      "contractAddress": "0x7cd54fcbd1e2fdad5ec77557f76cc35972977a5a",
      "function": "setFeeMultiplier(uint8,uint256)",
      "arguments": [
        "3",
        "4"
      ],
      "transaction": {
        "from": "0xe62ab4d111f968660c6b2188046f9b9ba53c4bae",
        "to": "0x7cd54fcbd1e2fdad5ec77557f76cc35972977a5a",
        "gas": "0x1041b",
        "value": "0x0",
        "input": "0x0ee24eb500000000000000000000000000000000000000000000000000000000000000030000000000000000000000000000000000000000000000000000000000000004",
        "nonce": "0x2ad",
        "chainId": "0x14a34"
      },
      "additionalContracts": [],
      "isFixedGasLimit": false
    },
    {
      "hash": "0xd71dcc766a70c9874e0f00b5aa345b063bb2a5c61ea7ed81635f57ea554a6bc2",
      "transactionType": "CALL",
      "contractName": null,
      "contractAddress": "0x7cd54fcbd1e2fdad5ec77557f76cc35972977a5a",
      "function": "setFeeMultiplier(uint8,uint256)",
      "arguments": [
        "4",
        "4"
      ],
      "transaction": {
        "from": "0xe62ab4d111f968660c6b2188046f9b9ba53c4bae",
        "to": "0x7cd54fcbd1e2fdad5ec77557f76cc35972977a5a",
        "gas": "0x1043a",
        "value": "0x0",
        "input": "0x0ee24eb500000000000000000000000000000000000000000000000000000000000000040000000000000000000000000000000000000000000000000000000000000004",
        "nonce": "0x2ae",
        "chainId": "0x14a34"
      },
      "additionalContracts": [],
      "isFixedGasLimit": false
    },
    {
      "hash": "0x883382aa755309d4230942d766350f724511e3051f5aef29a27073e3ec3bece3",
      "transactionType": "CALL",
      "contractName": null,
      "contractAddress": "0x7cd54fcbd1e2fdad5ec77557f76cc35972977a5a",
      "function": "setFeeMultiplier(uint8,uint256)",
      "arguments": [
        "5",
        "4"
      ],
      "transaction": {
        "from": "0xe62ab4d111f968660c6b2188046f9b9ba53c4bae",
        "to": "0x7cd54fcbd1e2fdad5ec77557f76cc35972977a5a",
        "gas": "0x10459",
        "value": "0x0",
        "input": "0x0ee24eb500000000000000000000000000000000000000000000000000000000000000050000000000000000000000000000000000000000000000000000000000000004",
        "nonce": "0x2af",
        "chainId": "0x14a34"
      },
      "additionalContracts": [],
      "isFixedGasLimit": false
    },
    {
      "hash": "0x1a70af316b8f82537bd98100de8f82236d5c6606f3ed835d80c8a44d55bea3d9",
      "transactionType": "CALL",
      "contractName": null,
      "contractAddress": "0x7cd54fcbd1e2fdad5ec77557f76cc35972977a5a",
      "function": "setFeeMultiplier(uint8,uint256)",
      "arguments": [
        "6",
        "8"
      ],
      "transaction": {
        "from": "0xe62ab4d111f968660c6b2188046f9b9ba53c4bae",
        "to": "0x7cd54fcbd1e2fdad5ec77557f76cc35972977a5a",
        "gas": "0x1047a",
        "value": "0x0",
        "input": "0x0ee24eb500000000000000000000000000000000000000000000000000000000000000060000000000000000000000000000000000000000000000000000000000000008",
        "nonce": "0x2b0",
        "chainId": "0x14a34"
      },
      "additionalContracts": [],
      "isFixedGasLimit": false
    },
    {
      "hash": "0xfb3d1e27aa3b8c36f699351e82b3a15188e2b49a3fae7b520d5e5491a86d6c7e",
      "transactionType": "CALL",
      "contractName": null,
      "contractAddress": "0x7cd54fcbd1e2fdad5ec77557f76cc35972977a5a",
      "function": "setFeeMultiplier(uint8,uint256)",
      "arguments": [
        "7",
        "4"
      ],
      "transaction": {
        "from": "0xe62ab4d111f968660c6b2188046f9b9ba53c4bae",
        "to": "0x7cd54fcbd1e2fdad5ec77557f76cc35972977a5a",
        "gas": "0x10499",
        "value": "0x0",
        "input": "0x0ee24eb500000000000000000000000000000000000000000000000000000000000000070000000000000000000000000000000000000000000000000000000000000004",
        "nonce": "0x2b1",
        "chainId": "0x14a34"
      },
      "additionalContracts": [],
      "isFixedGasLimit": false
    },
    {
      "hash": "0x734bcc9d84903a9048d8d255cbdd0daa48d8448c77694329776b83eff4c8dfa4",
      "transactionType": "CALL",
      "contractName": null,
      "contractAddress": "0x7cd54fcbd1e2fdad5ec77557f76cc35972977a5a",
      "function": "setFeeMultiplier(uint8,uint256)",
      "arguments": [
        "8",
        "10"
      ],
      "transaction": {
        "from": "0xe62ab4d111f968660c6b2188046f9b9ba53c4bae",
        "to": "0x7cd54fcbd1e2fdad5ec77557f76cc35972977a5a",
        "gas": "0x1140f",
        "value": "0x0",
        "input": "0x0ee24eb50000000000000000000000000000000000000000000000000000000000000008000000000000000000000000000000000000000000000000000000000000000a",
        "nonce": "0x2b2",
        "chainId": "0x14a34"
      },
      "additionalContracts": [],
      "isFixedGasLimit": false
    },
    {
      "hash": "0xe6bfa9e665cbb1c0ecab5431eb5198a1cd454ae16f2aa583f0307e68cee2b6bc",
      "transactionType": "CALL",
      "contractName": null,
      "contractAddress": "0x7cd54fcbd1e2fdad5ec77557f76cc35972977a5a",
      "function": "setFeeMultiplier(uint8,uint256)",
      "arguments": [
        "9",
        "8"
      ],
      "transaction": {
        "from": "0xe62ab4d111f968660c6b2188046f9b9ba53c4bae",
        "to": "0x7cd54fcbd1e2fdad5ec77557f76cc35972977a5a",
        "gas": "0x11431",
        "value": "0x0",
        "input": "0x0ee24eb500000000000000000000000000000000000000000000000000000000000000090000000000000000000000000000000000000000000000000000000000000008",
        "nonce": "0x2b3",
        "chainId": "0x14a34"
      },
      "additionalContracts": [],
      "isFixedGasLimit": false
    },
    {
      "hash": "0x1b3649e1b5c05411d643fdfd6d2d5b9a0900ef59ff25611843aa9bde6e767fff",
      "transactionType": "CALL",
      "contractName": null,
      "contractAddress": "0x7cd54fcbd1e2fdad5ec77557f76cc35972977a5a",
      "function": "setFeeMultiplier(uint8,uint256)",
      "arguments": [
        "10",
        "8"
      ],
      "transaction": {
        "from": "0xe62ab4d111f968660c6b2188046f9b9ba53c4bae",
        "to": "0x7cd54fcbd1e2fdad5ec77557f76cc35972977a5a",
        "gas": "0x11453",
        "value": "0x0",
        "input": "0x0ee24eb5000000000000000000000000000000000000000000000000000000000000000a0000000000000000000000000000000000000000000000000000000000000008",
        "nonce": "0x2b4",
        "chainId": "0x14a34"
      },
      "additionalContracts": [],
      "isFixedGasLimit": false
    },
    {
      "hash": "0x497063b622b734d1481925f4196e74d6827b672442db8152dcf2e8b92f5c0062",
      "transactionType": "CALL",
      "contractName": null,
      "contractAddress": "0x7cd54fcbd1e2fdad5ec77557f76cc35972977a5a",
      "function": "setFeeMultiplier(uint8,uint256)",
      "arguments": [
        "11",
        "8"
      ],
      "transaction": {
        "from": "0xe62ab4d111f968660c6b2188046f9b9ba53c4bae",
        "to": "0x7cd54fcbd1e2fdad5ec77557f76cc35972977a5a",
        "gas": "0x10518",
        "value": "0x0",
        "input": "0x0ee24eb5000000000000000000000000000000000000000000000000000000000000000b0000000000000000000000000000000000000000000000000000000000000008",
        "nonce": "0x2b5",
        "chainId": "0x14a34"
      },
      "additionalContracts": [],
      "isFixedGasLimit": false
    },
    {
      "hash": "0xb996647388c8378e735f9095720994d212dbbb6990f01a2c93c532f0a25ece0c",
      "transactionType": "CALL",
      "contractName": null,
      "contractAddress": "0x7cd54fcbd1e2fdad5ec77557f76cc35972977a5a",
      "function": "setFeeMultiplier(uint8,uint256)",
      "arguments": [
        "12",
        "20"
      ],
      "transaction": {
        "from": "0xe62ab4d111f968660c6b2188046f9b9ba53c4bae",
        "to": "0x7cd54fcbd1e2fdad5ec77557f76cc35972977a5a",
        "gas": "0x10538",
        "value": "0x0",
        "input": "0x0ee24eb5000000000000000000000000000000000000000000000000000000000000000c0000000000000000000000000000000000000000000000000000000000000014",
        "nonce": "0x2b6",
        "chainId": "0x14a34"
      },
      "additionalContracts": [],
      "isFixedGasLimit": false
    },
    {
      "hash": "0xf36b4d27468fa69a5d11e61c8b67adfe02fc3b828fc1124759209aa039e0ef99",
      "transactionType": "CALL",
      "contractName": null,
      "contractAddress": "0x7cd54fcbd1e2fdad5ec77557f76cc35972977a5a",
      "function": "setFeeMultiplier(uint8,uint256)",
      "arguments": [
        "13",
        "8"
      ],
      "transaction": {
        "from": "0xe62ab4d111f968660c6b2188046f9b9ba53c4bae",
        "to": "0x7cd54fcbd1e2fdad5ec77557f76cc35972977a5a",
        "gas": "0x10558",
        "value": "0x0",
        "input": "0x0ee24eb5000000000000000000000000000000000000000000000000000000000000000d0000000000000000000000000000000000000000000000000000000000000008",
        "nonce": "0x2b7",
        "chainId": "0x14a34"
      },
      "additionalContracts": [],
      "isFixedGasLimit": false
    },
    {
      "hash": "0x61ab5f37100a81afb00e0303ac6e399e41beb159f650b77676f7d3b5ff7b75ba",
      "transactionType": "CALL",
      "contractName": null,
      "contractAddress": "0x7cd54fcbd1e2fdad5ec77557f76cc35972977a5a",
      "function": "setFeeMultiplier(uint8,uint256)",
      "arguments": [
        "14",
        "4"
      ],
      "transaction": {
        "from": "0xe62ab4d111f968660c6b2188046f9b9ba53c4bae",
        "to": "0x7cd54fcbd1e2fdad5ec77557f76cc35972977a5a",
        "gas": "0x10577",
        "value": "0x0",
        "input": "0x0ee24eb5000000000000000000000000000000000000000000000000000000000000000e0000000000000000000000000000000000000000000000000000000000000004",
        "nonce": "0x2b8",
        "chainId": "0x14a34"
      },
      "additionalContracts": [],
      "isFixedGasLimit": false
    },
    {
      "hash": "0x64329061af5a6a0f8595e89573089098a8126206dbc52240073711ac3c8b3b1f",
      "transactionType": "CALL",
      "contractName": null,
      "contractAddress": "0x7cd54fcbd1e2fdad5ec77557f76cc35972977a5a",
      "function": "setFeeMultiplier(uint8,uint256)",
      "arguments": [
        "15",
        "4"
      ],
      "transaction": {
        "from": "0xe62ab4d111f968660c6b2188046f9b9ba53c4bae",
        "to": "0x7cd54fcbd1e2fdad5ec77557f76cc35972977a5a",
        "gas": "0x10598",
        "value": "0x0",
        "input": "0x0ee24eb5000000000000000000000000000000000000000000000000000000000000000f0000000000000000000000000000000000000000000000000000000000000004",
        "nonce": "0x2b9",
        "chainId": "0x14a34"
      },
      "additionalContracts": [],
      "isFixedGasLimit": false
    },
    {
      "hash": "0x0bfbaa7bf016d4b467955fd646e440096363cd41dc0eff0d5bf619f07deb7243",
      "transactionType": "CALL",
      "contractName": null,
      "contractAddress": "0x7cd54fcbd1e2fdad5ec77557f76cc35972977a5a",
      "function": "setFeeMultiplier(uint8,uint256)",
      "arguments": [
        "16",
        "4"
      ],
      "transaction": {
        "from": "0xe62ab4d111f968660c6b2188046f9b9ba53c4bae",
        "to": "0x7cd54fcbd1e2fdad5ec77557f76cc35972977a5a",
        "gas": "0x1151d",
        "value": "0x0",
        "input": "0x0ee24eb500000000000000000000000000000000000000000000000000000000000000100000000000000000000000000000000000000000000000000000000000000004",
        "nonce": "0x2ba",
        "chainId": "0x14a34"
      },
      "additionalContracts": [],
      "isFixedGasLimit": false
    },
    {
      "hash": "0x71d76b3000e8f9d191fc0f7f49c1d2054b4704d77c382cee11999ad235b8ad8d",
      "transactionType": "CALL",
      "contractName": null,
      "contractAddress": "0x7cd54fcbd1e2fdad5ec77557f76cc35972977a5a",
      "function": "setFeeMultiplier(uint8,uint256)",
      "arguments": [
        "17",
        "4"
      ],
      "transaction": {
        "from": "0xe62ab4d111f968660c6b2188046f9b9ba53c4bae",
        "to": "0x7cd54fcbd1e2fdad5ec77557f76cc35972977a5a",
        "gas": "0x1153e",
        "value": "0x0",
        "input": "0x0ee24eb500000000000000000000000000000000000000000000000000000000000000110000000000000000000000000000000000000000000000000000000000000004",
        "nonce": "0x2bb",
        "chainId": "0x14a34"
      },
      "additionalContracts": [],
      "isFixedGasLimit": false
    },
    {
      "hash": "0xdac9c396d8ca7df55527ae497b014b2adf921e109cd2792179ae596e666333dd",
      "transactionType": "CALL",
      "contractName": null,
      "contractAddress": "0x7cd54fcbd1e2fdad5ec77557f76cc35972977a5a",
      "function": "setFeeMultiplier(uint8,uint256)",
      "arguments": [
        "18",
        "2"
      ],
      "transaction": {
        "from": "0xe62ab4d111f968660c6b2188046f9b9ba53c4bae",
        "to": "0x7cd54fcbd1e2fdad5ec77557f76cc35972977a5a",
        "gas": "0x11560",
        "value": "0x0",
        "input": "0x0ee24eb500000000000000000000000000000000000000000000000000000000000000120000000000000000000000000000000000000000000000000000000000000002",
        "nonce": "0x2bc",
        "chainId": "0x14a34"
      },
      "additionalContracts": [],
      "isFixedGasLimit": false
    },
    {
      "hash": "0x41b76f56167e965271b5db4c2da94bb8986f83794d7ff82bdfe12db2333776a3",
      "transactionType": "CALL",
      "contractName": null,
      "contractAddress": "0x7cd54fcbd1e2fdad5ec77557f76cc35972977a5a",
      "function": "setFeeMultiplier(uint8,uint256)",
      "arguments": [
        "19",
        "2"
      ],
      "transaction": {
        "from": "0xe62ab4d111f968660c6b2188046f9b9ba53c4bae",
        "to": "0x7cd54fcbd1e2fdad5ec77557f76cc35972977a5a",
        "gas": "0x1157a",
        "value": "0x0",
        "input": "0x0ee24eb500000000000000000000000000000000000000000000000000000000000000130000000000000000000000000000000000000000000000000000000000000002",
        "nonce": "0x2bd",
        "chainId": "0x14a34"
      },
      "additionalContracts": [],
      "isFixedGasLimit": false
    },
    {
      "hash": "0xfa1370feae80f5b4593a70f835d99e4a768c8693785d99962a31d631d2c094ff",
      "transactionType": "CALL",
      "contractName": null,
      "contractAddress": "0x7cd54fcbd1e2fdad5ec77557f76cc35972977a5a",
      "function": "addFeeToken(string,string[],uint256[])",
      "arguments": [
        "421614",
        "[0x6a4dbc971533ba36bdc23ad70f5a7a12e064f4ae]",
        "[100]"
      ],
      "transaction": {
        "from": "0xe62ab4d111f968660c6b2188046f9b9ba53c4bae",
        "to": "0x7cd54fcbd1e2fdad5ec77557f76cc35972977a5a",
        "gas": "0x2f631",
        "value": "0x0",
        "input": "0x437bf84f000000000000000000000000000000000000000000000000000000000000006000000000000000000000000000000000000000000000000000000000000000a000000000000000000000000000000000000000000000000000000000000001400000000000000000000000000000000000000000000000000000000000000006343231363134000000000000000000000000000000000000000000000000000000000000000000000000000000000000000000000000000000000000000000010000000000000000000000000000000000000000000000000000000000000020000000000000000000000000000000000000000000000000000000000000002a3078366134646263393731353333626133366264633233616437306635613761313265303634663461650000000000000000000000000000000000000000000000000000000000000000000000000000000000000000000000000000000000010000000000000000000000000000000000000000000000000000000000000064",
        "nonce": "0x2be",
        "chainId": "0x14a34"
      },
      "additionalContracts": [],
      "isFixedGasLimit": false
    },
    {
      "hash": "0xb359be89ad3373c47e31120884ec62033fa1a883231972f4e2a8712d03402fcc",
      "transactionType": "CALL",
      "contractName": null,
      "contractAddress": "0x7cd54fcbd1e2fdad5ec77557f76cc35972977a5a",
      "function": "addFeeToken(string,string[],uint256[])",
      "arguments": [
        "80002",
        "[0x6a4dbc971533ba36bdc23ad70f5a7a12e064f4ae]",
        "[100]"
      ],
      "transaction": {
        "from": "0xe62ab4d111f968660c6b2188046f9b9ba53c4bae",
        "to": "0x7cd54fcbd1e2fdad5ec77557f76cc35972977a5a",
        "gas": "0x2a2a1",
        "value": "0x0",
        "input": "0x437bf84f000000000000000000000000000000000000000000000000000000000000006000000000000000000000000000000000000000000000000000000000000000a000000000000000000000000000000000000000000000000000000000000001400000000000000000000000000000000000000000000000000000000000000005383030303200000000000000000000000000000000000000000000000000000000000000000000000000000000000000000000000000000000000000000000010000000000000000000000000000000000000000000000000000000000000020000000000000000000000000000000000000000000000000000000000000002a3078366134646263393731353333626133366264633233616437306635613761313265303634663461650000000000000000000000000000000000000000000000000000000000000000000000000000000000000000000000000000000000010000000000000000000000000000000000000000000000000000000000000064",
        "nonce": "0x2bf",
        "chainId": "0x14a34"
      },
      "additionalContracts": [],
      "isFixedGasLimit": false
    },
    {
      "hash": "0xe4bfaf0cb043748f4dc8c29b4eb572dbf9e7d74cb0a3b3acd119c99e84300e6c",
      "transactionType": "CALL",
      "contractName": null,
      "contractAddress": "0x7cd54fcbd1e2fdad5ec77557f76cc35972977a5a",
      "function": "addFeeToken(string,string[],uint256[])",
      "arguments": [
        "84532",
        "[0x6a4dbc971533ba36bdc23ad70f5a7a12e064f4ae]",
        "[100]"
      ],
      "transaction": {
        "from": "0xe62ab4d111f968660c6b2188046f9b9ba53c4bae",
        "to": "0x7cd54fcbd1e2fdad5ec77557f76cc35972977a5a",
        "gas": "0x2a2a1",
        "value": "0x0",
        "input": "0x437bf84f000000000000000000000000000000000000000000000000000000000000006000000000000000000000000000000000000000000000000000000000000000a000000000000000000000000000000000000000000000000000000000000001400000000000000000000000000000000000000000000000000000000000000005383435333200000000000000000000000000000000000000000000000000000000000000000000000000000000000000000000000000000000000000000000010000000000000000000000000000000000000000000000000000000000000020000000000000000000000000000000000000000000000000000000000000002a3078366134646263393731353333626133366264633233616437306635613761313265303634663461650000000000000000000000000000000000000000000000000000000000000000000000000000000000000000000000000000000000010000000000000000000000000000000000000000000000000000000000000064",
        "nonce": "0x2c0",
        "chainId": "0x14a34"
      },
      "additionalContracts": [],
      "isFixedGasLimit": false
    },
    {
      "hash": "0x372a29f0b9964fac4414a742222b89d0f03d9cd9fef6d28890b62214d6b3c4c5",
      "transactionType": "CALL",
      "contractName": null,
      "contractAddress": "0x7cd54fcbd1e2fdad5ec77557f76cc35972977a5a",
      "function": "addFeeToken(string,string[],uint256[])",
      "arguments": [
        "97",
        "[0x6a4dbc971533ba36bdc23ad70f5a7a12e064f4ae]",
        "[100]"
      ],
      "transaction": {
        "from": "0xe62ab4d111f968660c6b2188046f9b9ba53c4bae",
        "to": "0x7cd54fcbd1e2fdad5ec77557f76cc35972977a5a",
        "gas": "0x29c5a",
        "value": "0x0",
        "input": "0x437bf84f000000000000000000000000000000000000000000000000000000000000006000000000000000000000000000000000000000000000000000000000000000a000000000000000000000000000000000000000000000000000000000000001400000000000000000000000000000000000000000000000000000000000000002393700000000000000000000000000000000000000000000000000000000000000000000000000000000000000000000000000000000000000000000000000010000000000000000000000000000000000000000000000000000000000000020000000000000000000000000000000000000000000000000000000000000002a3078366134646263393731353333626133366264633233616437306635613761313265303634663461650000000000000000000000000000000000000000000000000000000000000000000000000000000000000000000000000000000000010000000000000000000000000000000000000000000000000000000000000064",
        "nonce": "0x2c1",
        "chainId": "0x14a34"
      },
      "additionalContracts": [],
      "isFixedGasLimit": false
    },
    {
      "hash": "0xc0edd7d888bd585dfc12dffdf97e2507c2f7d03a2a4b0b92a4843ab11b67d42a",
      "transactionType": "CALL",
      "contractName": null,
      "contractAddress": "0x7cd54fcbd1e2fdad5ec77557f76cc35972977a5a",
      "function": "addFeeToken(string,string[],uint256[])",
      "arguments": [
        "11155111",
        "[0x6a4dbc971533ba36bdc23ad70f5a7a12e064f4ae]",
        "[100]"
      ],
      "transaction": {
        "from": "0xe62ab4d111f968660c6b2188046f9b9ba53c4bae",
        "to": "0x7cd54fcbd1e2fdad5ec77557f76cc35972977a5a",
        "gas": "0x2a8e9",
        "value": "0x0",
        "input": "0x437bf84f000000000000000000000000000000000000000000000000000000000000006000000000000000000000000000000000000000000000000000000000000000a000000000000000000000000000000000000000000000000000000000000001400000000000000000000000000000000000000000000000000000000000000008313131353531313100000000000000000000000000000000000000000000000000000000000000000000000000000000000000000000000000000000000000010000000000000000000000000000000000000000000000000000000000000020000000000000000000000000000000000000000000000000000000000000002a3078366134646263393731353333626133366264633233616437306635613761313265303634663461650000000000000000000000000000000000000000000000000000000000000000000000000000000000000000000000000000000000010000000000000000000000000000000000000000000000000000000000000064",
        "nonce": "0x2c2",
        "chainId": "0x14a34"
      },
      "additionalContracts": [],
      "isFixedGasLimit": false
    },
    {
      "hash": "0xb0fa757f89160da79c4f8028aaf409d6ed6907a61c8c6066333a55fbdcb8b94b",
      "transactionType": "CALL",
      "contractName": null,
      "contractAddress": "0x3561aa249d1262a912764770bb8c387a7bbb56b6",
      "function": "addChainContract(string[],string[])",
      "arguments": [
        "[421614, 80002, 97, 11155111]",
        "[0x67fd0c58bd8b925a3d3546ecc505653514b64013, 0x89330be16c672d4378b6731a8347d23b0c611de3, 0x7240fcdb0dd116293044ed50db499680aa532eeb, 0xb406b937c12e03d676727fc1bb686279eedbc178]"
      ],
      "transaction": {
        "from": "0xe62ab4d111f968660c6b2188046f9b9ba53c4bae",
        "to": "0x3561aa249d1262a912764770bb8c387a7bbb56b6",
        "gas": "0xb416a",
        "value": "0x0",
        "input": "0x013fd3bd000000000000000000000000000000000000000000000000000000000000004000000000000000000000000000000000000000000000000000000000000001e00000000000000000000000000000000000000000000000000000000000000004000000000000000000000000000000000000000000000000000000000000008000000000000000000000000000000000000000000000000000000000000000c000000000000000000000000000000000000000000000000000000000000001000000000000000000000000000000000000000000000000000000000000000140000000000000000000000000000000000000000000000000000000000000000634323136313400000000000000000000000000000000000000000000000000000000000000000000000000000000000000000000000000000000000000000005383030303200000000000000000000000000000000000000000000000000000000000000000000000000000000000000000000000000000000000000000000023937000000000000000000000000000000000000000000000000000000000000000000000000000000000000000000000000000000000000000000000000000831313135353131310000000000000000000000000000000000000000000000000000000000000000000000000000000000000000000000000000000000000004000000000000000000000000000000000000000000000000000000000000008000000000000000000000000000000000000000000000000000000000000000e0000000000000000000000000000000000000000000000000000000000000014000000000000000000000000000000000000000000000000000000000000001a0000000000000000000000000000000000000000000000000000000000000002a30783637666430633538626438623932356133643335343665636335303536353335313462363430313300000000000000000000000000000000000000000000000000000000000000000000000000000000000000000000000000000000002a30783839333330626531366336373264343337386236373331613833343764323362306336313164653300000000000000000000000000000000000000000000000000000000000000000000000000000000000000000000000000000000002a30783732343066636462306464313136323933303434656435306462343939363830616135333265656200000000000000000000000000000000000000000000000000000000000000000000000000000000000000000000000000000000002a30786234303662393337633132653033643637363732376663316262363836323739656564626331373800000000000000000000000000000000000000000000",
        "nonce": "0x2c3",
        "chainId": "0x14a34"
      },
      "additionalContracts": [],
      "isFixedGasLimit": false
    },
    {
      "hash": "0xf0849c453976b2145e7de0801ddce40117988ab4a2f36281cb9a58b9186b5da8",
      "transactionType": "CALL",
      "contractName": null,
      "contractAddress": "0x3561aa249d1262a912764770bb8c387a7bbb56b6",
      "function": "attachRWAX(uint256,uint256,string[],string[])",
      "arguments": [
        "1",
        "1",
        "[84532, 421614, 80002, 97, 11155111]",
        "[0x410871e12756f751974379d56319ae5d34bb3eb5, 0xa8f94374facdf9413407fd10af8954e20e299c5d, 0xb4317dba65486889643585a8d96c8d1990971cad, 0x636d43798340603707c936c1a93597dc44effbee, 0xd455bb0f664ac8241b505729c3116f1acc441be4]"
      ],
      "transaction": {
        "from": "0xe62ab4d111f968660c6b2188046f9b9ba53c4bae",
        "to": "0x3561aa249d1262a912764770bb8c387a7bbb56b6",
        "gas": "0x105146",
        "value": "0x0",
        "input": "0x33a5f5b40000000000000000000000000000000000000000000000000000000000000001000000000000000000000000000000000000000000000000000000000000000100000000000000000000000000000000000000000000000000000000000000800000000000000000000000000000000000000000000000000000000000000280000000000000000000000000000000000000000000000000000000000000000500000000000000000000000000000000000000000000000000000000000000a000000000000000000000000000000000000000000000000000000000000000e00000000000000000000000000000000000000000000000000000000000000120000000000000000000000000000000000000000000000000000000000000016000000000000000000000000000000000000000000000000000000000000001a00000000000000000000000000000000000000000000000000000000000000005383435333200000000000000000000000000000000000000000000000000000000000000000000000000000000000000000000000000000000000000000000063432313631340000000000000000000000000000000000000000000000000000000000000000000000000000000000000000000000000000000000000000000538303030320000000000000000000000000000000000000000000000000000000000000000000000000000000000000000000000000000000000000000000002393700000000000000000000000000000000000000000000000000000000000000000000000000000000000000000000000000000000000000000000000000083131313535313131000000000000000000000000000000000000000000000000000000000000000000000000000000000000000000000000000000000000000500000000000000000000000000000000000000000000000000000000000000a00000000000000000000000000000000000000000000000000000000000000100000000000000000000000000000000000000000000000000000000000000016000000000000000000000000000000000000000000000000000000000000001c00000000000000000000000000000000000000000000000000000000000000220000000000000000000000000000000000000000000000000000000000000002a30783431303837316531323735366637353139373433373964353633313961653564333462623365623500000000000000000000000000000000000000000000000000000000000000000000000000000000000000000000000000000000002a30786138663934333734666163646639343133343037666431306166383935346532306532393963356400000000000000000000000000000000000000000000000000000000000000000000000000000000000000000000000000000000002a30786234333137646261363534383638383936343335383561386439366338643139393039373163616400000000000000000000000000000000000000000000000000000000000000000000000000000000000000000000000000000000002a30783633366434333739383334303630333730376339333663316139333539376463343465666662656500000000000000000000000000000000000000000000000000000000000000000000000000000000000000000000000000000000002a30786434353562623066363634616338323431623530353732396333313136663161636334343162653400000000000000000000000000000000000000000000",
        "nonce": "0x2c4",
        "chainId": "0x14a34"
      },
      "additionalContracts": [],
      "isFixedGasLimit": false
    },
    {
      "hash": "0xb0a8f83fd6986608392d0f6d45de1722c90c4237049fe5bcc69730ae2ab069de",
      "transactionType": "CALL",
      "contractName": null,
      "contractAddress": "0x3561aa249d1262a912764770bb8c387a7bbb56b6",
      "function": "attachStorageManager(uint256,uint256,string[],string[])",
      "arguments": [
        "1",
        "1",
        "[84532, 421614, 80002, 97, 11155111]",
        "[0xa3d476bb425ad923483c5f699fab17dbeb4473be, 0xe38f40efc472aae401ba1edf37edd98ba43f5266, 0x10a04ad4a73c8bb00ee5a29b27d11eee85390306, 0x358498985e6ac7ca73f5110b415525ae04cb8313, 0xad77409a722056b0d41b5ce2f03a6b7a2b18e3ed]"
      ],
      "transaction": {
        "from": "0xe62ab4d111f968660c6b2188046f9b9ba53c4bae",
        "to": "0x3561aa249d1262a912764770bb8c387a7bbb56b6",
        "gas": "0xd74f5",
        "value": "0x0",
        "input": "0x2f68b4890000000000000000000000000000000000000000000000000000000000000001000000000000000000000000000000000000000000000000000000000000000100000000000000000000000000000000000000000000000000000000000000800000000000000000000000000000000000000000000000000000000000000280000000000000000000000000000000000000000000000000000000000000000500000000000000000000000000000000000000000000000000000000000000a000000000000000000000000000000000000000000000000000000000000000e00000000000000000000000000000000000000000000000000000000000000120000000000000000000000000000000000000000000000000000000000000016000000000000000000000000000000000000000000000000000000000000001a00000000000000000000000000000000000000000000000000000000000000005383435333200000000000000000000000000000000000000000000000000000000000000000000000000000000000000000000000000000000000000000000063432313631340000000000000000000000000000000000000000000000000000000000000000000000000000000000000000000000000000000000000000000538303030320000000000000000000000000000000000000000000000000000000000000000000000000000000000000000000000000000000000000000000002393700000000000000000000000000000000000000000000000000000000000000000000000000000000000000000000000000000000000000000000000000083131313535313131000000000000000000000000000000000000000000000000000000000000000000000000000000000000000000000000000000000000000500000000000000000000000000000000000000000000000000000000000000a00000000000000000000000000000000000000000000000000000000000000100000000000000000000000000000000000000000000000000000000000000016000000000000000000000000000000000000000000000000000000000000001c00000000000000000000000000000000000000000000000000000000000000220000000000000000000000000000000000000000000000000000000000000002a30786133643437366262343235616439323334383363356636393966616231376462656234343733626500000000000000000000000000000000000000000000000000000000000000000000000000000000000000000000000000000000002a30786533386634306566633437326161653430316261316564663337656464393862613433663532363600000000000000000000000000000000000000000000000000000000000000000000000000000000000000000000000000000000002a30783130613034616434613733633862623030656535613239623237643131656565383533393033303600000000000000000000000000000000000000000000000000000000000000000000000000000000000000000000000000000000002a30783335383439383938356536616337636137336635313130623431353532356165303463623833313300000000000000000000000000000000000000000000000000000000000000000000000000000000000000000000000000000000002a30786164373734303961373232303536623064343162356365326630336136623761326231386533656400000000000000000000000000000000000000000000",
        "nonce": "0x2c5",
        "chainId": "0x14a34"
      },
      "additionalContracts": [],
      "isFixedGasLimit": false
    }
  ],
  "receipts": [
    {
      "status": "0x1",
      "cumulativeGasUsed": "0x7bbf45",
      "logs": [],
      "logsBloom": "0x00000000000000000000000000000000000000000000000000000000000000000000000000000000000000000000000000000000000000000000000000000000000000000000000000000000000000000000000000000000000000000000000000000000000000000000000000000000000000000000000000000000000000000000000000000000000000000000000000000000000000000000000000000000000000000000000000000000000000000000000000000000000000000000000000000000000000000000000000000000000000000000000000000000000000000000000000000000000000000000000000000000000000000000000000000000",
      "type": "0x2",
      "transactionHash": "0x83f3d8909d9cb01a754b9a921486497523c5bfad523b8163208bbaa2b6ba09b1",
      "transactionIndex": "0x17",
      "blockHash": "0xdfbde692b4fa1fc4f46139fe5bfe6e6a04635b9f326f77f2b9da9cd7340b07e7",
      "blockNumber": "0x11f55d0",
      "gasUsed": "0x5eb3",
      "effectiveGasPrice": "0x18855",
      "from": "0xe62ab4d111f968660c6b2188046f9b9ba53c4bae",
      "to": "0x7cd54fcbd1e2fdad5ec77557f76cc35972977a5a",
      "contractAddress": null,
      "l1BaseFeeScalar": "0x44d",
      "l1BlobBaseFee": "0x80679abe1",
      "l1BlobBaseFeeScalar": "0xa118b",
      "l1Fee": "0x211e578777a",
      "l1GasPrice": "0x325c1cb3",
      "l1GasUsed": "0x640"
    },
    {
      "status": "0x1",
      "cumulativeGasUsed": "0xe9ae4",
      "logs": [
        {
          "address": "0x7cd54fcbd1e2fdad5ec77557f76cc35972977a5a",
          "topics": [
            "0x1394cfab38f3fc78ed77ea6f9318782a446d96e7dc8e9a6b0149f6be25c08bcf",
            "0x0000000000000000000000006a4dbc971533ba36bdc23ad70f5a7a12e064f4ae"
          ],
          "data": "0x",
          "blockHash": "0x5d1247326d055ae2497bc13e447b4ecb26a42848ad72e3f8af51ad7bd73584be",
          "blockNumber": "0x11f55d3",
          "transactionHash": "0xb2d0e754b446837ae0b1c70a8a95b1196d653fd57a7c44bfeefebd09fc082486",
          "transactionIndex": "0x9",
          "logIndex": "0xc",
          "removed": false
        }
      ],
      "logsBloom": "0x00000000000000000000000000000000000200000000000000000000000000000000000000000000000000000000000000000000000000001000000000000000000000000000000000000000000000000000001000000000000000000000000000000000000000000000000000000000000000000000000000800000000000000000000100000000000000000000000000020000000000000000000000000000000000000000000000000000000000000000000100000000000000000000000000000000000000000000000000000000000000002000000000000000000000000000000000000000000000000000000000000000000400000000000000000000",
      "type": "0x2",
      "transactionHash": "0xb2d0e754b446837ae0b1c70a8a95b1196d653fd57a7c44bfeefebd09fc082486",
      "transactionIndex": "0x9",
      "blockHash": "0x5d1247326d055ae2497bc13e447b4ecb26a42848ad72e3f8af51ad7bd73584be",
      "blockNumber": "0x11f55d3",
      "gasUsed": "0x1bf00",
      "effectiveGasPrice": "0x18854",
      "from": "0xe62ab4d111f968660c6b2188046f9b9ba53c4bae",
      "to": "0x7cd54fcbd1e2fdad5ec77557f76cc35972977a5a",
      "contractAddress": null,
      "l1BaseFeeScalar": "0x44d",
      "l1BlobBaseFee": "0x7b7609c19",
      "l1BlobBaseFeeScalar": "0xa118b",
      "l1Fee": "0x232fa791820",
      "l1GasPrice": "0x32b1d817",
      "l1GasUsed": "0x6e7"
    },
    {
      "status": "0x1",
      "cumulativeGasUsed": "0x4442ff",
      "logs": [],
      "logsBloom": "0x00000000000000000000000000000000000000000000000000000000000000000000000000000000000000000000000000000000000000000000000000000000000000000000000000000000000000000000000000000000000000000000000000000000000000000000000000000000000000000000000000000000000000000000000000000000000000000000000000000000000000000000000000000000000000000000000000000000000000000000000000000000000000000000000000000000000000000000000000000000000000000000000000000000000000000000000000000000000000000000000000000000000000000000000000000000",
      "type": "0x2",
      "transactionHash": "0x64ce1f5cc995879b452ead134dfd377ab49c0e7d19f346145c87972b9ad0be33",
      "transactionIndex": "0xc",
      "blockHash": "0x7d1b761bb1a46e7546177e6175870d82f2f428621d36707a12ada9209c0a0b65",
      "blockNumber": "0x11f55d6",
      "gasUsed": "0xbbf9",
      "effectiveGasPrice": "0x18852",
      "from": "0xe62ab4d111f968660c6b2188046f9b9ba53c4bae",
      "to": "0x7cd54fcbd1e2fdad5ec77557f76cc35972977a5a",
      "contractAddress": null,
      "l1BaseFeeScalar": "0x44d",
      "l1BlobBaseFee": "0x7b7609c19",
      "l1BlobBaseFeeScalar": "0xa118b",
      "l1Fee": "0x1fd82c72275",
      "l1GasPrice": "0x32b1d817",
      "l1GasUsed": "0x640"
    },
    {
      "status": "0x1",
      "cumulativeGasUsed": "0x118a39",
      "logs": [],
      "logsBloom": "0x00000000000000000000000000000000000000000000000000000000000000000000000000000000000000000000000000000000000000000000000000000000000000000000000000000000000000000000000000000000000000000000000000000000000000000000000000000000000000000000000000000000000000000000000000000000000000000000000000000000000000000000000000000000000000000000000000000000000000000000000000000000000000000000000000000000000000000000000000000000000000000000000000000000000000000000000000000000000000000000000000000000000000000000000000000000",
      "type": "0x2",
      "transactionHash": "0xe0163fa2234c448509190ff0e97a9be17d3fb55d743ba20c82488d8546c8fd6c",
      "transactionIndex": "0x3",
      "blockHash": "0xfe4ad69375e58a7718a5d64ccc3c5bf98bd1ee87862ca20e67619248815873a0",
      "blockNumber": "0x11f55da",
      "gasUsed": "0xbc22",
      "effectiveGasPrice": "0x18852",
      "from": "0xe62ab4d111f968660c6b2188046f9b9ba53c4bae",
      "to": "0x7cd54fcbd1e2fdad5ec77557f76cc35972977a5a",
      "contractAddress": null,
      "l1BaseFeeScalar": "0x44d",
      "l1BlobBaseFee": "0x80679abe1",
      "l1BlobBaseFeeScalar": "0xa118b",
      "l1Fee": "0x211e13eb535",
      "l1GasPrice": "0x2ff608de",
      "l1GasUsed": "0x640"
    },
    {
      "status": "0x1",
      "cumulativeGasUsed": "0xcc5249",
      "logs": [],
      "logsBloom": "0x00000000000000000000000000000000000000000000000000000000000000000000000000000000000000000000000000000000000000000000000000000000000000000000000000000000000000000000000000000000000000000000000000000000000000000000000000000000000000000000000000000000000000000000000000000000000000000000000000000000000000000000000000000000000000000000000000000000000000000000000000000000000000000000000000000000000000000000000000000000000000000000000000000000000000000000000000000000000000000000000000000000000000000000000000000000",
      "type": "0x2",
      "transactionHash": "0x67859b7d28e5134d166a79f25cfcb1193c9973cb516d0d5b8b7578a5d9d90d59",
      "transactionIndex": "0x6",
      "blockHash": "0x2877b3979b77352e4849d6d8fff2baa53dfa16844ad584ab5b29b1ff62e8e23e",
      "blockNumber": "0x11f55de",
      "gasUsed": "0xbc39",
      "effectiveGasPrice": "0x18852",
      "from": "0xe62ab4d111f968660c6b2188046f9b9ba53c4bae",
      "to": "0x7cd54fcbd1e2fdad5ec77557f76cc35972977a5a",
      "contractAddress": null,
      "l1BaseFeeScalar": "0x44d",
      "l1BlobBaseFee": "0x80679abe1",
      "l1BlobBaseFeeScalar": "0xa118b",
      "l1Fee": "0x211e3f4a1ef",
      "l1GasPrice": "0x317ff3b2",
      "l1GasUsed": "0x640"
    },
    {
      "status": "0x1",
      "cumulativeGasUsed": "0x10be618",
      "logs": [],
      "logsBloom": "0x00000000000000000000000000000000000000000000000000000000000000000000000000000000000000000000000000000000000000000000000000000000000000000000000000000000000000000000000000000000000000000000000000000000000000000000000000000000000000000000000000000000000000000000000000000000000000000000000000000000000000000000000000000000000000000000000000000000000000000000000000000000000000000000000000000000000000000000000000000000000000000000000000000000000000000000000000000000000000000000000000000000000000000000000000000000",
      "type": "0x2",
      "transactionHash": "0xc6fd1295d94f2632266c4c422a679d44bbac02fa3c6f295b6c5cf135f38f7a90",
      "transactionIndex": "0x19",
      "blockHash": "0x4fc2ec4ce654be9f0c88fff55457f87bfd19560aa11a5f8f622284da2bb5b265",
      "blockNumber": "0x11f55e3",
      "gasUsed": "0xbc50",
      "effectiveGasPrice": "0x18854",
      "from": "0xe62ab4d111f968660c6b2188046f9b9ba53c4bae",
      "to": "0x7cd54fcbd1e2fdad5ec77557f76cc35972977a5a",
      "contractAddress": null,
      "l1BaseFeeScalar": "0x44d",
      "l1BlobBaseFee": "0x80679abe1",
      "l1BlobBaseFeeScalar": "0xa118b",
      "l1Fee": "0x211e3f4a1ef",
      "l1GasPrice": "0x317ff3b2",
      "l1GasUsed": "0x640"
    },
    {
      "status": "0x1",
      "cumulativeGasUsed": "0x1dbb09",
      "logs": [],
      "logsBloom": "0x00000000000000000000000000000000000000000000000000000000000000000000000000000000000000000000000000000000000000000000000000000000000000000000000000000000000000000000000000000000000000000000000000000000000000000000000000000000000000000000000000000000000000000000000000000000000000000000000000000000000000000000000000000000000000000000000000000000000000000000000000000000000000000000000000000000000000000000000000000000000000000000000000000000000000000000000000000000000000000000000000000000000000000000000000000000",
      "type": "0x2",
      "transactionHash": "0xd71dcc766a70c9874e0f00b5aa345b063bb2a5c61ea7ed81635f57ea554a6bc2",
      "transactionIndex": "0xa",
      "blockHash": "0xebb5608e3ea3a797cf9b5d2449f9e08515e73ccba2288d9176bdbe663f55c1b6",
      "blockNumber": "0x11f55e8",
      "gasUsed": "0xbc67",
      "effectiveGasPrice": "0x18857",
      "from": "0xe62ab4d111f968660c6b2188046f9b9ba53c4bae",
      "to": "0x7cd54fcbd1e2fdad5ec77557f76cc35972977a5a",
      "contractAddress": null,
      "l1BaseFeeScalar": "0x44d",
      "l1BlobBaseFee": "0x7223341d4",
      "l1BlobBaseFeeScalar": "0xa118b",
      "l1Fee": "0x1d70a3da016",
      "l1GasPrice": "0x2fd16f66",
      "l1GasUsed": "0x640"
    },
    {
      "status": "0x1",
      "cumulativeGasUsed": "0x15a69b",
      "logs": [],
      "logsBloom": "0x00000000000000000000000000000000000000000000000000000000000000000000000000000000000000000000000000000000000000000000000000000000000000000000000000000000000000000000000000000000000000000000000000000000000000000000000000000000000000000000000000000000000000000000000000000000000000000000000000000000000000000000000000000000000000000000000000000000000000000000000000000000000000000000000000000000000000000000000000000000000000000000000000000000000000000000000000000000000000000000000000000000000000000000000000000000",
      "type": "0x2",
      "transactionHash": "0x883382aa755309d4230942d766350f724511e3051f5aef29a27073e3ec3bece3",
      "transactionIndex": "0x4",
      "blockHash": "0x3b5be302286e4a6d1e336c366a2e45817af881d40851f9e9519c4206e1bdf2da",
      "blockNumber": "0x11f55ec",
      "gasUsed": "0xbc7e",
      "effectiveGasPrice": "0x18858",
      "from": "0xe62ab4d111f968660c6b2188046f9b9ba53c4bae",
      "to": "0x7cd54fcbd1e2fdad5ec77557f76cc35972977a5a",
      "contractAddress": null,
      "l1BaseFeeScalar": "0x44d",
      "l1BlobBaseFee": "0x7b7609c19",
      "l1BlobBaseFeeScalar": "0xa118b",
      "l1Fee": "0x1fd7df99864",
      "l1GasPrice": "0x2ff7e071",
      "l1GasUsed": "0x640"
    },
    {
      "status": "0x1",
      "cumulativeGasUsed": "0xe08cf9",
      "logs": [],
      "logsBloom": "0x00000000000000000000000000000000000000000000000000000000000000000000000000000000000000000000000000000000000000000000000000000000000000000000000000000000000000000000000000000000000000000000000000000000000000000000000000000000000000000000000000000000000000000000000000000000000000000000000000000000000000000000000000000000000000000000000000000000000000000000000000000000000000000000000000000000000000000000000000000000000000000000000000000000000000000000000000000000000000000000000000000000000000000000000000000000",
      "type": "0x2",
      "transactionHash": "0x1a70af316b8f82537bd98100de8f82236d5c6606f3ed835d80c8a44d55bea3d9",
      "transactionIndex": "0x9",
      "blockHash": "0xc7584cb4badf62e270947cde504dc3eeba48b7f22806ceb9283a15079dff94ba",
      "blockNumber": "0x11f55f0",
      "gasUsed": "0xbc95",
      "effectiveGasPrice": "0x18858",
      "from": "0xe62ab4d111f968660c6b2188046f9b9ba53c4bae",
      "to": "0x7cd54fcbd1e2fdad5ec77557f76cc35972977a5a",
      "contractAddress": null,
      "l1BaseFeeScalar": "0x44d",
      "l1BlobBaseFee": "0x7b7609c19",
      "l1BlobBaseFeeScalar": "0xa118b",
      "l1Fee": "0x1fd7e195f42",
      "l1GasPrice": "0x3009ea54",
      "l1GasUsed": "0x640"
    },
    {
      "status": "0x1",
      "cumulativeGasUsed": "0x155930",
      "logs": [],
      "logsBloom": "0x00000000000000000000000000000000000000000000000000000000000000000000000000000000000000000000000000000000000000000000000000000000000000000000000000000000000000000000000000000000000000000000000000000000000000000000000000000000000000000000000000000000000000000000000000000000000000000000000000000000000000000000000000000000000000000000000000000000000000000000000000000000000000000000000000000000000000000000000000000000000000000000000000000000000000000000000000000000000000000000000000000000000000000000000000000000",
      "type": "0x2",
      "transactionHash": "0xfb3d1e27aa3b8c36f699351e82b3a15188e2b49a3fae7b520d5e5491a86d6c7e",
      "transactionIndex": "0x6",
      "blockHash": "0xd517feedb5720be04956438320dce5647362c0e806cd4d00c5dcfad9eb1e13b1",
      "blockNumber": "0x11f55f3",
      "gasUsed": "0xbcac",
      "effectiveGasPrice": "0x1885a",
      "from": "0xe62ab4d111f968660c6b2188046f9b9ba53c4bae",
      "to": "0x7cd54fcbd1e2fdad5ec77557f76cc35972977a5a",
      "contractAddress": null,
      "l1BaseFeeScalar": "0x44d",
      "l1BlobBaseFee": "0x7b7609c19",
      "l1BlobBaseFeeScalar": "0xa118b",
      "l1Fee": "0x1fd7e195f42",
      "l1GasPrice": "0x3009ea54",
      "l1GasUsed": "0x640"
    },
    {
      "status": "0x1",
      "cumulativeGasUsed": "0xdbd02d",
      "logs": [],
      "logsBloom": "0x00000000000000000000000000000000000000000000000000000000000000000000000000000000000000000000000000000000000000000000000000000000000000000000000000000000000000000000000000000000000000000000000000000000000000000000000000000000000000000000000000000000000000000000000000000000000000000000000000000000000000000000000000000000000000000000000000000000000000000000000000000000000000000000000000000000000000000000000000000000000000000000000000000000000000000000000000000000000000000000000000000000000000000000000000000000",
      "type": "0x2",
      "transactionHash": "0x734bcc9d84903a9048d8d255cbdd0daa48d8448c77694329776b83eff4c8dfa4",
      "transactionIndex": "0x7",
      "blockHash": "0xa5cefe523b321bcf9190ba0cac88c6293253ecaf3971af5beb09f23999372b3e",
      "blockNumber": "0x11f55f7",
      "gasUsed": "0xbcc3",
      "effectiveGasPrice": "0x1885e",
      "from": "0xe62ab4d111f968660c6b2188046f9b9ba53c4bae",
      "to": "0x7cd54fcbd1e2fdad5ec77557f76cc35972977a5a",
      "contractAddress": null,
      "l1BaseFeeScalar": "0x44d",
      "l1BlobBaseFee": "0x8ae4cb18d",
      "l1BlobBaseFeeScalar": "0xa118b",
      "l1Fee": "0x23d1fd78da2",
      "l1GasPrice": "0x2e15861a",
      "l1GasUsed": "0x640"
    },
    {
      "status": "0x1",
      "cumulativeGasUsed": "0x1dcec4",
      "logs": [],
      "logsBloom": "0x00000000000000000000000000000000000000000000000000000000000000000000000000000000000000000000000000000000000000000000000000000000000000000000000000000000000000000000000000000000000000000000000000000000000000000000000000000000000000000000000000000000000000000000000000000000000000000000000000000000000000000000000000000000000000000000000000000000000000000000000000000000000000000000000000000000000000000000000000000000000000000000000000000000000000000000000000000000000000000000000000000000000000000000000000000000",
      "type": "0x2",
      "transactionHash": "0xe6bfa9e665cbb1c0ecab5431eb5198a1cd454ae16f2aa583f0307e68cee2b6bc",
      "transactionIndex": "0x9",
      "blockHash": "0xef9ab27bec89b45240ddfb51626e76f15414a3c419f9e56a04633ae2f36bac62",
      "blockNumber": "0x11f55fb",
      "gasUsed": "0xbcda",
      "effectiveGasPrice": "0x18863",
      "from": "0xe62ab4d111f968660c6b2188046f9b9ba53c4bae",
      "to": "0x7cd54fcbd1e2fdad5ec77557f76cc35972977a5a",
      "contractAddress": null,
      "l1BaseFeeScalar": "0x44d",
      "l1BlobBaseFee": "0x8ae4cb18d",
      "l1BlobBaseFeeScalar": "0xa118b",
      "l1Fee": "0x23d1fd78da2",
      "l1GasPrice": "0x2e15861a",
      "l1GasUsed": "0x640"
    },
    {
      "status": "0x1",
      "cumulativeGasUsed": "0xe31ef7",
      "logs": [],
      "logsBloom": "0x00000000000000000000000000000000000000000000000000000000000000000000000000000000000000000000000000000000000000000000000000000000000000000000000000000000000000000000000000000000000000000000000000000000000000000000000000000000000000000000000000000000000000000000000000000000000000000000000000000000000000000000000000000000000000000000000000000000000000000000000000000000000000000000000000000000000000000000000000000000000000000000000000000000000000000000000000000000000000000000000000000000000000000000000000000000",
      "type": "0x2",
      "transactionHash": "0x1b3649e1b5c05411d643fdfd6d2d5b9a0900ef59ff25611843aa9bde6e767fff",
      "transactionIndex": "0x14",
      "blockHash": "0x60c83dd24a40e5c4932d383f543b5f39362f8db9f1efb0297921894b98bd8e37",
      "blockNumber": "0x11f55fe",
      "gasUsed": "0xbcf1",
      "effectiveGasPrice": "0x18862",
      "from": "0xe62ab4d111f968660c6b2188046f9b9ba53c4bae",
      "to": "0x7cd54fcbd1e2fdad5ec77557f76cc35972977a5a",
      "contractAddress": null,
      "l1BaseFeeScalar": "0x44d",
      "l1BlobBaseFee": "0x80679abe1",
      "l1BlobBaseFeeScalar": "0xa118b",
      "l1Fee": "0x211e03e9c58",
      "l1GasPrice": "0x2f64a836",
      "l1GasUsed": "0x640"
    },
    {
      "status": "0x1",
      "cumulativeGasUsed": "0x491993",
      "logs": [],
      "logsBloom": "0x00000000000000000000000000000000000000000000000000000000000000000000000000000000000000000000000000000000000000000000000000000000000000000000000000000000000000000000000000000000000000000000000000000000000000000000000000000000000000000000000000000000000000000000000000000000000000000000000000000000000000000000000000000000000000000000000000000000000000000000000000000000000000000000000000000000000000000000000000000000000000000000000000000000000000000000000000000000000000000000000000000000000000000000000000000000",
      "type": "0x2",
      "transactionHash": "0x497063b622b734d1481925f4196e74d6827b672442db8152dcf2e8b92f5c0062",
      "transactionIndex": "0x9",
      "blockHash": "0x34c685ac53fbb9ea0954614f6e30c0dd9150f3e92699a15577924ec50c7d4906",
      "blockNumber": "0x11f5602",
      "gasUsed": "0xbd08",
      "effectiveGasPrice": "0x18869",
      "from": "0xe62ab4d111f968660c6b2188046f9b9ba53c4bae",
      "to": "0x7cd54fcbd1e2fdad5ec77557f76cc35972977a5a",
      "contractAddress": null,
      "l1BaseFeeScalar": "0x44d",
      "l1BlobBaseFee": "0x80679abe1",
      "l1BlobBaseFeeScalar": "0xa118b",
      "l1Fee": "0x211e03e9c58",
      "l1GasPrice": "0x2f64a836",
      "l1GasUsed": "0x640"
    },
    {
      "status": "0x1",
      "cumulativeGasUsed": "0xfa1ac",
      "logs": [],
      "logsBloom": "0x00000000000000000000000000000000000000000000000000000000000000000000000000000000000000000000000000000000000000000000000000000000000000000000000000000000000000000000000000000000000000000000000000000000000000000000000000000000000000000000000000000000000000000000000000000000000000000000000000000000000000000000000000000000000000000000000000000000000000000000000000000000000000000000000000000000000000000000000000000000000000000000000000000000000000000000000000000000000000000000000000000000000000000000000000000000",
      "type": "0x2",
      "transactionHash": "0xb996647388c8378e735f9095720994d212dbbb6990f01a2c93c532f0a25ece0c",
      "transactionIndex": "0xa",
      "blockHash": "0xab4c877e2a88a3bfc7dfdf538ca2c045d17edf76f34022aa2156fe9cfc26464e",
      "blockNumber": "0x11f5606",
      "gasUsed": "0xbd1f",
      "effectiveGasPrice": "0x1886f",
      "from": "0xe62ab4d111f968660c6b2188046f9b9ba53c4bae",
      "to": "0x7cd54fcbd1e2fdad5ec77557f76cc35972977a5a",
      "contractAddress": null,
      "l1BaseFeeScalar": "0x44d",
      "l1BlobBaseFee": "0x80679abe1",
      "l1BlobBaseFeeScalar": "0xa118b",
      "l1Fee": "0x211e0dd11a6",
      "l1GasPrice": "0x2fbe9bbf",
      "l1GasUsed": "0x640"
    },
    {
      "status": "0x1",
      "cumulativeGasUsed": "0xe3eecb",
      "logs": [],
      "logsBloom": "0x00000000000000000000000000000000000000000000000000000000000000000000000000000000000000000000000000000000000000000000000000000000000000000000000000000000000000000000000000000000000000000000000000000000000000000000000000000000000000000000000000000000000000000000000000000000000000000000000000000000000000000000000000000000000000000000000000000000000000000000000000000000000000000000000000000000000000000000000000000000000000000000000000000000000000000000000000000000000000000000000000000000000000000000000000000000",
      "type": "0x2",
      "transactionHash": "0xf36b4d27468fa69a5d11e61c8b67adfe02fc3b828fc1124759209aa039e0ef99",
      "transactionIndex": "0xa",
      "blockHash": "0xa130a74bee73260e971bb4c877f6597dc3eb70b43263af7fb3f5b9881a9158e6",
      "blockNumber": "0x11f5609",
      "gasUsed": "0xbd36",
      "effectiveGasPrice": "0x1886d",
      "from": "0xe62ab4d111f968660c6b2188046f9b9ba53c4bae",
      "to": "0x7cd54fcbd1e2fdad5ec77557f76cc35972977a5a",
      "contractAddress": null,
      "l1BaseFeeScalar": "0x44d",
      "l1BlobBaseFee": "0x76b5324b4",
      "l1BlobBaseFeeScalar": "0xa118b",
      "l1Fee": "0x1e9e618213c",
      "l1GasPrice": "0x315d105b",
      "l1GasUsed": "0x640"
    },
    {
      "status": "0x1",
      "cumulativeGasUsed": "0x1b038d",
      "logs": [],
      "logsBloom": "0x00000000000000000000000000000000000000000000000000000000000000000000000000000000000000000000000000000000000000000000000000000000000000000000000000000000000000000000000000000000000000000000000000000000000000000000000000000000000000000000000000000000000000000000000000000000000000000000000000000000000000000000000000000000000000000000000000000000000000000000000000000000000000000000000000000000000000000000000000000000000000000000000000000000000000000000000000000000000000000000000000000000000000000000000000000000",
      "type": "0x2",
      "transactionHash": "0x61ab5f37100a81afb00e0303ac6e399e41beb159f650b77676f7d3b5ff7b75ba",
      "transactionIndex": "0xa",
      "blockHash": "0xc6db009c580b7334db8977c634e3a4fb8ef23979d6860bd06a615ba94ccc3105",
      "blockNumber": "0x11f560d",
      "gasUsed": "0xbd4d",
      "effectiveGasPrice": "0x1887d",
      "from": "0xe62ab4d111f968660c6b2188046f9b9ba53c4bae",
      "to": "0x7cd54fcbd1e2fdad5ec77557f76cc35972977a5a",
      "contractAddress": null,
      "l1BaseFeeScalar": "0x44d",
      "l1BlobBaseFee": "0x76b5324b4",
      "l1BlobBaseFeeScalar": "0xa118b",
      "l1Fee": "0x1e9e618213c",
      "l1GasPrice": "0x315d105b",
      "l1GasUsed": "0x640"
    },
    {
      "status": "0x1",
      "cumulativeGasUsed": "0xd2a097",
      "logs": [],
      "logsBloom": "0x00000000000000000000000000000000000000000000000000000000000000000000000000000000000000000000000000000000000000000000000000000000000000000000000000000000000000000000000000000000000000000000000000000000000000000000000000000000000000000000000000000000000000000000000000000000000000000000000000000000000000000000000000000000000000000000000000000000000000000000000000000000000000000000000000000000000000000000000000000000000000000000000000000000000000000000000000000000000000000000000000000000000000000000000000000000",
      "type": "0x2",
      "transactionHash": "0x64329061af5a6a0f8595e89573089098a8126206dbc52240073711ac3c8b3b1f",
      "transactionIndex": "0xa",
      "blockHash": "0x60f278c0843b5d8a65019bdf0444c857f12c14d317851c284eaeba3cf5083095",
      "blockNumber": "0x11f5610",
      "gasUsed": "0xbd64",
      "effectiveGasPrice": "0x1887d",
      "from": "0xe62ab4d111f968660c6b2188046f9b9ba53c4bae",
      "to": "0x7cd54fcbd1e2fdad5ec77557f76cc35972977a5a",
      "contractAddress": null,
      "l1BaseFeeScalar": "0x44d",
      "l1BlobBaseFee": "0x6dbe41789",
      "l1BlobBaseFeeScalar": "0xa118b",
      "l1Fee": "0x1c4ebbbcea3",
      "l1GasPrice": "0x304db22e",
      "l1GasUsed": "0x640"
    },
    {
      "status": "0x1",
      "cumulativeGasUsed": "0xedf05a",
      "logs": [],
      "logsBloom": "0x00000000000000000000000000000000000000000000000000000000000000000000000000000000000000000000000000000000000000000000000000000000000000000000000000000000000000000000000000000000000000000000000000000000000000000000000000000000000000000000000000000000000000000000000000000000000000000000000000000000000000000000000000000000000000000000000000000000000000000000000000000000000000000000000000000000000000000000000000000000000000000000000000000000000000000000000000000000000000000000000000000000000000000000000000000000",
      "type": "0x2",
      "transactionHash": "0x0bfbaa7bf016d4b467955fd646e440096363cd41dc0eff0d5bf619f07deb7243",
      "transactionIndex": "0x11",
      "blockHash": "0xf71f9c810db46333de1c5b8af9e5562bbfce9b94a99d38c198792690cf7f25f1",
      "blockNumber": "0x11f5615",
      "gasUsed": "0xbd7b",
      "effectiveGasPrice": "0x18881",
      "from": "0xe62ab4d111f968660c6b2188046f9b9ba53c4bae",
      "to": "0x7cd54fcbd1e2fdad5ec77557f76cc35972977a5a",
      "contractAddress": null,
      "l1BaseFeeScalar": "0x44d",
      "l1BlobBaseFee": "0x6574a002c",
      "l1BlobBaseFeeScalar": "0xa118b",
      "l1Fee": "0x1a2c258ff2a",
      "l1GasPrice": "0x32c803d0",
      "l1GasUsed": "0x640"
    },
    {
      "status": "0x1",
      "cumulativeGasUsed": "0x32bfcb",
      "logs": [],
      "logsBloom": "0x00000000000000000000000000000000000000000000000000000000000000000000000000000000000000000000000000000000000000000000000000000000000000000000000000000000000000000000000000000000000000000000000000000000000000000000000000000000000000000000000000000000000000000000000000000000000000000000000000000000000000000000000000000000000000000000000000000000000000000000000000000000000000000000000000000000000000000000000000000000000000000000000000000000000000000000000000000000000000000000000000000000000000000000000000000000",
      "type": "0x2",
      "transactionHash": "0x71d76b3000e8f9d191fc0f7f49c1d2054b4704d77c382cee11999ad235b8ad8d",
      "transactionIndex": "0xa",
      "blockHash": "0x39fd4f8906eda18e564827b519bb25ac5639b27c89afa8e1aa13a4f1c3d54da3",
      "blockNumber": "0x11f5618",
      "gasUsed": "0xbd92",
      "effectiveGasPrice": "0x18886",
      "from": "0xe62ab4d111f968660c6b2188046f9b9ba53c4bae",
      "to": "0x7cd54fcbd1e2fdad5ec77557f76cc35972977a5a",
      "contractAddress": null,
      "l1BaseFeeScalar": "0x44d",
      "l1BlobBaseFee": "0x6574a002c",
      "l1BlobBaseFeeScalar": "0xa118b",
      "l1Fee": "0x1a2c258ff2a",
      "l1GasPrice": "0x32c803d0",
      "l1GasUsed": "0x640"
    },
    {
      "status": "0x1",
      "cumulativeGasUsed": "0xb3315",
      "logs": [],
      "logsBloom": "0x00000000000000000000000000000000000000000000000000000000000000000000000000000000000000000000000000000000000000000000000000000000000000000000000000000000000000000000000000000000000000000000000000000000000000000000000000000000000000000000000000000000000000000000000000000000000000000000000000000000000000000000000000000000000000000000000000000000000000000000000000000000000000000000000000000000000000000000000000000000000000000000000000000000000000000000000000000000000000000000000000000000000000000000000000000000",
      "type": "0x2",
      "transactionHash": "0xdac9c396d8ca7df55527ae497b014b2adf921e109cd2792179ae596e666333dd",
      "transactionIndex": "0x7",
      "blockHash": "0x6150888989ff3cdc47e9d50cce674ac53d26d46be9349fe8ed1f8fbb5e87bb7c",
      "blockNumber": "0x11f561b",
      "gasUsed": "0xbda9",
      "effectiveGasPrice": "0x18886",
      "from": "0xe62ab4d111f968660c6b2188046f9b9ba53c4bae",
      "to": "0x7cd54fcbd1e2fdad5ec77557f76cc35972977a5a",
      "contractAddress": null,
      "l1BaseFeeScalar": "0x44d",
      "l1BlobBaseFee": "0x618cabe2d",
      "l1BlobBaseFeeScalar": "0xa118b",
      "l1Fee": "0x192a2da50f5",
      "l1GasPrice": "0x30ba5346",
      "l1GasUsed": "0x640"
    },
    {
      "status": "0x1",
      "cumulativeGasUsed": "0x29a968",
      "logs": [],
      "logsBloom": "0x00000000000000000000000000000000000000000000000000000000000000000000000000000000000000000000000000000000000000000000000000000000000000000000000000000000000000000000000000000000000000000000000000000000000000000000000000000000000000000000000000000000000000000000000000000000000000000000000000000000000000000000000000000000000000000000000000000000000000000000000000000000000000000000000000000000000000000000000000000000000000000000000000000000000000000000000000000000000000000000000000000000000000000000000000000000",
      "type": "0x2",
      "transactionHash": "0x41b76f56167e965271b5db4c2da94bb8986f83794d7ff82bdfe12db2333776a3",
      "transactionIndex": "0xa",
      "blockHash": "0xd8fd3cf54a9c2ce2bcf7dd4cf3e8c8de060372baca38b1719b73d9f8aeca1516",
      "blockNumber": "0x11f561f",
      "gasUsed": "0xbdbb",
      "effectiveGasPrice": "0x18887",
      "from": "0xe62ab4d111f968660c6b2188046f9b9ba53c4bae",
      "to": "0x7cd54fcbd1e2fdad5ec77557f76cc35972977a5a",
      "contractAddress": null,
      "l1BaseFeeScalar": "0x44d",
      "l1BlobBaseFee": "0x618cabe2d",
      "l1BlobBaseFeeScalar": "0xa118b",
      "l1Fee": "0x192a2da50f5",
      "l1GasPrice": "0x30ba5346",
      "l1GasUsed": "0x640"
    },
    {
      "status": "0x1",
      "cumulativeGasUsed": "0xacb68",
      "logs": [],
      "logsBloom": "0x00000000000000000000000000000000000000000000000000000000000000000000000000000000000000000000000000000000000000000000000000000000000000000000000000000000000000000000000000000000000000000000000000000000000000000000000000000000000000000000000000000000000000000000000000000000000000000000000000000000000000000000000000000000000000000000000000000000000000000000000000000000000000000000000000000000000000000000000000000000000000000000000000000000000000000000000000000000000000000000000000000000000000000000000000000000",
      "type": "0x2",
      "transactionHash": "0xfa1370feae80f5b4593a70f835d99e4a768c8693785d99962a31d631d2c094ff",
      "transactionIndex": "0x5",
      "blockHash": "0xc116d9815c3d1429c905f919a3c92bb6ad5f484a2972eead137a5c8b69099761",
      "blockNumber": "0x11f5623",
      "gasUsed": "0x224ec",
      "effectiveGasPrice": "0x18888",
      "from": "0xe62ab4d111f968660c6b2188046f9b9ba53c4bae",
      "to": "0x7cd54fcbd1e2fdad5ec77557f76cc35972977a5a",
      "contractAddress": null,
      "l1BaseFeeScalar": "0x44d",
      "l1BlobBaseFee": "0x6dbe41789",
      "l1BlobBaseFeeScalar": "0xa118b",
      "l1Fee": "0x29ef4ba2336",
      "l1GasPrice": "0x31cf18ab",
      "l1GasUsed": "0x942"
    },
    {
      "status": "0x1",
      "cumulativeGasUsed": "0x10bb34",
      "logs": [],
      "logsBloom": "0x00000000000000000000000000000000000000000000000000000000000000000000000000000000000000000000000000000000000000000000000000000000000000000000000000000000000000000000000000000000000000000000000000000000000000000000000000000000000000000000000000000000000000000000000000000000000000000000000000000000000000000000000000000000000000000000000000000000000000000000000000000000000000000000000000000000000000000000000000000000000000000000000000000000000000000000000000000000000000000000000000000000000000000000000000000000",
      "type": "0x2",
      "transactionHash": "0xb359be89ad3373c47e31120884ec62033fa1a883231972f4e2a8712d03402fcc",
      "transactionIndex": "0xc",
      "blockHash": "0x1319bb39f540ad0369448503e2a6d7317d98882b9ee232c9de6b5725bbeabfc7",
      "blockNumber": "0x11f5626",
      "gasUsed": "0x1e86c",
      "effectiveGasPrice": "0x1888a",
      "from": "0xe62ab4d111f968660c6b2188046f9b9ba53c4bae",
      "to": "0x7cd54fcbd1e2fdad5ec77557f76cc35972977a5a",
      "contractAddress": null,
      "l1BaseFeeScalar": "0x44d",
      "l1BlobBaseFee": "0x6dbe41789",
      "l1BlobBaseFeeScalar": "0xa118b",
      "l1Fee": "0x29b2acd57fb",
      "l1GasPrice": "0x31cf18ab",
      "l1GasUsed": "0x934"
    },
    {
      "status": "0x1",
      "cumulativeGasUsed": "0xcbdf2",
      "logs": [],
      "logsBloom": "0x00000000000000000000000000000000000000000000000000000000000000000000000000000000000000000000000000000000000000000000000000000000000000000000000000000000000000000000000000000000000000000000000000000000000000000000000000000000000000000000000000000000000000000000000000000000000000000000000000000000000000000000000000000000000000000000000000000000000000000000000000000000000000000000000000000000000000000000000000000000000000000000000000000000000000000000000000000000000000000000000000000000000000000000000000000000",
      "type": "0x2",
      "transactionHash": "0xe4bfaf0cb043748f4dc8c29b4eb572dbf9e7d74cb0a3b3acd119c99e84300e6c",
      "transactionIndex": "0x7",
      "blockHash": "0xdcc64cb764c5114e8ba8122bf836dd66c9637acc11fd9a33643941e80835c154",
      "blockNumber": "0x11f562a",
      "gasUsed": "0x1e86c",
      "effectiveGasPrice": "0x1888c",
      "from": "0xe62ab4d111f968660c6b2188046f9b9ba53c4bae",
      "to": "0x7cd54fcbd1e2fdad5ec77557f76cc35972977a5a",
      "contractAddress": null,
      "l1BaseFeeScalar": "0x44d",
      "l1BlobBaseFee": "0x6574a002c",
      "l1BlobBaseFeeScalar": "0xa118b",
      "l1Fee": "0x268d4d0175d",
      "l1GasPrice": "0x32ba65ef",
      "l1GasUsed": "0x934"
    },
    {
      "status": "0x1",
      "cumulativeGasUsed": "0x15f78c",
      "logs": [],
      "logsBloom": "0x00000000000000000000000000000000000000000000000000000000000000000000000000000000000000000000000000000000000000000000000000000000000000000000000000000000000000000000000000000000000000000000000000000000000000000000000000000000000000000000000000000000000000000000000000000000000000000000000000000000000000000000000000000000000000000000000000000000000000000000000000000000000000000000000000000000000000000000000000000000000000000000000000000000000000000000000000000000000000000000000000000000000000000000000000000000",
      "type": "0x2",
      "transactionHash": "0x372a29f0b9964fac4414a742222b89d0f03d9cd9fef6d28890b62214d6b3c4c5",
      "transactionIndex": "0xf",
      "blockHash": "0xa5fa2e06b934958783ccc4734505f6a50ac1b000ab509cc87e7f1e670c597d0d",
      "blockNumber": "0x11f562d",
      "gasUsed": "0x1e3e0",
      "effectiveGasPrice": "0x18891",
      "from": "0xe62ab4d111f968660c6b2188046f9b9ba53c4bae",
      "to": "0x7cd54fcbd1e2fdad5ec77557f76cc35972977a5a",
      "contractAddress": null,
      "l1BaseFeeScalar": "0x44d",
      "l1BlobBaseFee": "0x5dcb37612",
      "l1BlobBaseFeeScalar": "0xa118b",
      "l1Fee": "0x23090f5d942",
      "l1GasPrice": "0x321fec76",
      "l1GasUsed": "0x90c"
    },
    {
      "status": "0x1",
      "cumulativeGasUsed": "0x2adf00",
      "logs": [],
      "logsBloom": "0x00000000000000000000000000000000000000000000000000000000000000000000000000000000000000000000000000000000000000000000000000000000000000000000000000000000000000000000000000000000000000000000000000000000000000000000000000000000000000000000000000000000000000000000000000000000000000000000000000000000000000000000000000000000000000000000000000000000000000000000000000000000000000000000000000000000000000000000000000000000000000000000000000000000000000000000000000000000000000000000000000000000000000000000000000000000",
      "type": "0x2",
      "transactionHash": "0xc0edd7d888bd585dfc12dffdf97e2507c2f7d03a2a4b0b92a4843ab11b67d42a",
      "transactionIndex": "0x11",
      "blockHash": "0x221f2afac168ec5199dd7ff8fd9fc8a3c3efa28b41a1e6dae74a33e587424ded",
      "blockNumber": "0x11f5631",
      "gasUsed": "0x1ecf8",
      "effectiveGasPrice": "0x18896",
      "from": "0xe62ab4d111f968660c6b2188046f9b9ba53c4bae",
      "to": "0x7cd54fcbd1e2fdad5ec77557f76cc35972977a5a",
      "contractAddress": null,
      "l1BaseFeeScalar": "0x44d",
      "l1BlobBaseFee": "0x5dcb37612",
      "l1BlobBaseFeeScalar": "0xa118b",
      "l1Fee": "0x240c2541120",
      "l1GasPrice": "0x321fec76",
      "l1GasUsed": "0x94f"
    },
    {
      "status": "0x1",
      "cumulativeGasUsed": "0xf84dc",
      "logs": [],
      "logsBloom": "0x00000000000000000000000000000000000000000000000000000000000000000000000000000000000000000000000000000000000000000000000000000000000000000000000000000000000000000000000000000000000000000000000000000000000000000000000000000000000000000000000000000000000000000000000000000000000000000000000000000000000000000000000000000000000000000000000000000000000000000000000000000000000000000000000000000000000000000000000000000000000000000000000000000000000000000000000000000000000000000000000000000000000000000000000000000000",
      "type": "0x2",
      "transactionHash": "0xb0fa757f89160da79c4f8028aaf409d6ed6907a61c8c6066333a55fbdcb8b94b",
      "transactionIndex": "0x5",
      "blockHash": "0x87d3fb2001db947ab5c0442ac87b451c5ab02569367f2c0256fc68a0804c48fc",
      "blockNumber": "0x11f5635",
      "gasUsed": "0x7b233",
      "effectiveGasPrice": "0x1889b",
      "from": "0xe62ab4d111f968660c6b2188046f9b9ba53c4bae",
      "to": "0x3561aa249d1262a912764770bb8c387a7bbb56b6",
      "contractAddress": null,
      "l1BaseFeeScalar": "0x44d",
      "l1BlobBaseFee": "0x69849e63d",
      "l1BlobBaseFeeScalar": "0xa118b",
      "l1Fee": "0x55a14144976",
      "l1GasPrice": "0x30afe7f2",
      "l1GasUsed": "0x13a9"
    },
    {
      "status": "0x1",
      "cumulativeGasUsed": "0x26dc1b",
      "logs": [],
      "logsBloom": "0x00000000000000000000000000000000000000000000000000000000000000000000000000000000000000000000000000000000000000000000000000000000000000000000000000000000000000000000000000000000000000000000000000000000000000000000000000000000000000000000000000000000000000000000000000000000000000000000000000000000000000000000000000000000000000000000000000000000000000000000000000000000000000000000000000000000000000000000000000000000000000000000000000000000000000000000000000000000000000000000000000000000000000000000000000000000",
      "type": "0x2",
      "transactionHash": "0xf0849c453976b2145e7de0801ddce40117988ab4a2f36281cb9a58b9186b5da8",
      "transactionIndex": "0x9",
      "blockHash": "0x2e5e5ed744bbbc1b951fc8ca7b87aa845caf7abcaf7657077a71e7ddfaa8978b",
      "blockNumber": "0x11f5638",
      "gasUsed": "0xbd046",
      "effectiveGasPrice": "0x18898",
      "from": "0xe62ab4d111f968660c6b2188046f9b9ba53c4bae",
      "to": "0x3561aa249d1262a912764770bb8c387a7bbb56b6",
      "contractAddress": null,
      "l1BaseFeeScalar": "0x44d",
      "l1BlobBaseFee": "0x69849e63d",
      "l1BlobBaseFeeScalar": "0xa118b",
      "l1Fee": "0x68fba98724b",
      "l1GasPrice": "0x30afe7f2",
      "l1GasUsed": "0x181b"
    },
    {
      "status": "0x1",
      "cumulativeGasUsed": "0x169379",
      "logs": [],
      "logsBloom": "0x00000000000000000000000000000000000000000000000000000000000000000000000000000000000000000000000000000000000000000000000000000000000000000000000000000000000000000000000000000000000000000000000000000000000000000000000000000000000000000000000000000000000000000000000000000000000000000000000000000000000000000000000000000000000000000000000000000000000000000000000000000000000000000000000000000000000000000000000000000000000000000000000000000000000000000000000000000000000000000000000000000000000000000000000000000000",
      "type": "0x2",
      "transactionHash": "0xb0a8f83fd6986608392d0f6d45de1722c90c4237049fe5bcc69730ae2ab069de",
      "transactionIndex": "0x8",
      "blockHash": "0x531c4b0b375004b7ce0eaf519d2b598beca454c7ab15c443b1e1e81379b96fc1",
      "blockNumber": "0x11f563c",
      "gasUsed": "0x9be17",
      "effectiveGasPrice": "0x18897",
      "from": "0xe62ab4d111f968660c6b2188046f9b9ba53c4bae",
      "to": "0x3561aa249d1262a912764770bb8c387a7bbb56b6",
      "contractAddress": null,
      "l1BaseFeeScalar": "0x44d",
      "l1BlobBaseFee": "0x7223341d4",
      "l1BlobBaseFeeScalar": "0xa118b",
      "l1Fee": "0x71cbdd7a698",
      "l1GasPrice": "0x2f64ee6f",
      "l1GasUsed": "0x1828"
    }
  ],
  "libraries": [],
  "pending": [],
  "returns": {},
  "timestamp": 1733430109,
  "chain": 84532,
  "commit": "d684feb7"
}