{
  "transactions": [
    {
      "hash": "0x9b2135d8dd489f3eb753d53cf877a9e2aef7246e972717e9ab4103891766c675",
      "transactionType": "CALL",
      "contractName": "FeeManager",
      "contractAddress": "0x1b902cf02724ac790da51e8004b82c7d0de6f957",
      "function": "getFeeTokenList()",
      "arguments": [],
      "transaction": {
        "from": "0xe62ab4d111f968660c6b2188046f9b9ba53c4bae",
        "to": "0x1b902cf02724ac790da51e8004b82c7d0de6f957",
        "gas": "0x8f37",
        "value": "0x0",
        "input": "0xe28ab277",
        "nonce": "0x237",
        "chainId": "0x14a34"
      },
      "additionalContracts": [],
      "isFixedGasLimit": false
    },
    {
      "hash": "0x737391484964d1656f1b22da7d76a7671f683fbee6d79b0dbdfe8c5df91bb6a9",
      "transactionType": "CALL",
      "contractName": "FeeManager",
      "contractAddress": "0x1b902cf02724ac790da51e8004b82c7d0de6f957",
      "function": "setFeeMultiplier(uint8,uint256)",
      "arguments": [
        "0",
        "2"
      ],
      "transaction": {
        "from": "0xe62ab4d111f968660c6b2188046f9b9ba53c4bae",
        "to": "0x1b902cf02724ac790da51e8004b82c7d0de6f957",
        "gas": "0x9843",
        "value": "0x0",
        "input": "0x0ee24eb500000000000000000000000000000000000000000000000000000000000000000000000000000000000000000000000000000000000000000000000000000002",
        "nonce": "0x238",
        "chainId": "0x14a34"
      },
      "additionalContracts": [],
      "isFixedGasLimit": false
    },
    {
      "hash": "0x008b6ee274ea5f7ae4879c8f39800a1fd4c42c578dd1ada3331782a030fea69d",
      "transactionType": "CALL",
      "contractName": "FeeManager",
      "contractAddress": "0x1b902cf02724ac790da51e8004b82c7d0de6f957",
      "function": "setFeeMultiplier(uint8,uint256)",
      "arguments": [
        "1",
        "10"
      ],
      "transaction": {
        "from": "0xe62ab4d111f968660c6b2188046f9b9ba53c4bae",
        "to": "0x1b902cf02724ac790da51e8004b82c7d0de6f957",
        "gas": "0x987c",
        "value": "0x0",
        "input": "0x0ee24eb50000000000000000000000000000000000000000000000000000000000000001000000000000000000000000000000000000000000000000000000000000000a",
        "nonce": "0x239",
        "chainId": "0x14a34"
      },
      "additionalContracts": [],
      "isFixedGasLimit": false
    },
    {
      "hash": "0x54e8d9b81a48546a5d6eac45b708f2c8594c5febc0f935ad5c87ac8a42894473",
      "transactionType": "CALL",
      "contractName": "FeeManager",
      "contractAddress": "0x1b902cf02724ac790da51e8004b82c7d0de6f957",
      "function": "setFeeMultiplier(uint8,uint256)",
      "arguments": [
        "2",
        "1"
      ],
      "transaction": {
        "from": "0xe62ab4d111f968660c6b2188046f9b9ba53c4bae",
        "to": "0x1b902cf02724ac790da51e8004b82c7d0de6f957",
        "gas": "0x989b",
        "value": "0x0",
        "input": "0x0ee24eb500000000000000000000000000000000000000000000000000000000000000020000000000000000000000000000000000000000000000000000000000000001",
        "nonce": "0x23a",
        "chainId": "0x14a34"
      },
      "additionalContracts": [],
      "isFixedGasLimit": false
    },
    {
      "hash": "0xf61776fdecb596cc95951be42c7f86985defca89b941c0873f87f9e59c5834d0",
      "transactionType": "CALL",
      "contractName": "FeeManager",
      "contractAddress": "0x1b902cf02724ac790da51e8004b82c7d0de6f957",
      "function": "setFeeMultiplier(uint8,uint256)",
      "arguments": [
        "3",
        "4"
      ],
      "transaction": {
        "from": "0xe62ab4d111f968660c6b2188046f9b9ba53c4bae",
        "to": "0x1b902cf02724ac790da51e8004b82c7d0de6f957",
        "gas": "0x98bc",
        "value": "0x0",
        "input": "0x0ee24eb500000000000000000000000000000000000000000000000000000000000000030000000000000000000000000000000000000000000000000000000000000004",
        "nonce": "0x23b",
        "chainId": "0x14a34"
      },
      "additionalContracts": [],
      "isFixedGasLimit": false
    },
    {
      "hash": "0x6598665d6676797a468cd07edd0fb6bd6039d89b2b13feb7708ca47d307d8682",
      "transactionType": "CALL",
      "contractName": "FeeManager",
      "contractAddress": "0x1b902cf02724ac790da51e8004b82c7d0de6f957",
      "function": "setFeeMultiplier(uint8,uint256)",
      "arguments": [
        "4",
        "4"
      ],
      "transaction": {
        "from": "0xe62ab4d111f968660c6b2188046f9b9ba53c4bae",
        "to": "0x1b902cf02724ac790da51e8004b82c7d0de6f957",
        "gas": "0x1043a",
        "value": "0x0",
        "input": "0x0ee24eb500000000000000000000000000000000000000000000000000000000000000040000000000000000000000000000000000000000000000000000000000000004",
        "nonce": "0x23c",
        "chainId": "0x14a34"
      },
      "additionalContracts": [],
      "isFixedGasLimit": false
    },
    {
      "hash": "0x428431c269e9aad42e794e86d0ed1c36dd8525ecd157ea914c49dc9f4a1379eb",
      "transactionType": "CALL",
      "contractName": "FeeManager",
      "contractAddress": "0x1b902cf02724ac790da51e8004b82c7d0de6f957",
      "function": "setFeeMultiplier(uint8,uint256)",
      "arguments": [
        "5",
        "4"
      ],
      "transaction": {
        "from": "0xe62ab4d111f968660c6b2188046f9b9ba53c4bae",
        "to": "0x1b902cf02724ac790da51e8004b82c7d0de6f957",
        "gas": "0x10459",
        "value": "0x0",
        "input": "0x0ee24eb500000000000000000000000000000000000000000000000000000000000000050000000000000000000000000000000000000000000000000000000000000004",
        "nonce": "0x23d",
        "chainId": "0x14a34"
      },
      "additionalContracts": [],
      "isFixedGasLimit": false
    },
    {
      "hash": "0xf5fabc938ceac8156a0c6111c264ea27d5e432187a9126f392a82f040c87fcfe",
      "transactionType": "CALL",
      "contractName": "FeeManager",
      "contractAddress": "0x1b902cf02724ac790da51e8004b82c7d0de6f957",
      "function": "setFeeMultiplier(uint8,uint256)",
      "arguments": [
        "6",
        "8"
      ],
      "transaction": {
        "from": "0xe62ab4d111f968660c6b2188046f9b9ba53c4bae",
        "to": "0x1b902cf02724ac790da51e8004b82c7d0de6f957",
        "gas": "0x1047a",
        "value": "0x0",
        "input": "0x0ee24eb500000000000000000000000000000000000000000000000000000000000000060000000000000000000000000000000000000000000000000000000000000008",
        "nonce": "0x23e",
        "chainId": "0x14a34"
      },
      "additionalContracts": [],
      "isFixedGasLimit": false
    },
    {
      "hash": "0x951e4665a9dfb96c4136e9a4bc6b8e8f31793009ae39daafffcc512b9d104110",
      "transactionType": "CALL",
      "contractName": "FeeManager",
      "contractAddress": "0x1b902cf02724ac790da51e8004b82c7d0de6f957",
      "function": "setFeeMultiplier(uint8,uint256)",
      "arguments": [
        "7",
        "4"
      ],
      "transaction": {
        "from": "0xe62ab4d111f968660c6b2188046f9b9ba53c4bae",
        "to": "0x1b902cf02724ac790da51e8004b82c7d0de6f957",
        "gas": "0x10499",
        "value": "0x0",
        "input": "0x0ee24eb500000000000000000000000000000000000000000000000000000000000000070000000000000000000000000000000000000000000000000000000000000004",
        "nonce": "0x23f",
        "chainId": "0x14a34"
      },
      "additionalContracts": [],
      "isFixedGasLimit": false
    },
    {
      "hash": "0x248283a3838e3db869997562296cbb180a9bacb622d0df3eb03cfc6df8671e1a",
      "transactionType": "CALL",
      "contractName": "FeeManager",
      "contractAddress": "0x1b902cf02724ac790da51e8004b82c7d0de6f957",
      "function": "setFeeMultiplier(uint8,uint256)",
      "arguments": [
        "8",
        "10"
      ],
      "transaction": {
        "from": "0xe62ab4d111f968660c6b2188046f9b9ba53c4bae",
        "to": "0x1b902cf02724ac790da51e8004b82c7d0de6f957",
        "gas": "0x1140f",
        "value": "0x0",
        "input": "0x0ee24eb50000000000000000000000000000000000000000000000000000000000000008000000000000000000000000000000000000000000000000000000000000000a",
        "nonce": "0x240",
        "chainId": "0x14a34"
      },
      "additionalContracts": [],
      "isFixedGasLimit": false
    },
    {
      "hash": "0x276485967b218766ac82c227db2a989a2eb90279c557d8abe627feffaaeb2bf6",
      "transactionType": "CALL",
      "contractName": "FeeManager",
      "contractAddress": "0x1b902cf02724ac790da51e8004b82c7d0de6f957",
      "function": "setFeeMultiplier(uint8,uint256)",
      "arguments": [
        "9",
        "8"
      ],
      "transaction": {
        "from": "0xe62ab4d111f968660c6b2188046f9b9ba53c4bae",
        "to": "0x1b902cf02724ac790da51e8004b82c7d0de6f957",
        "gas": "0x11431",
        "value": "0x0",
        "input": "0x0ee24eb500000000000000000000000000000000000000000000000000000000000000090000000000000000000000000000000000000000000000000000000000000008",
        "nonce": "0x241",
        "chainId": "0x14a34"
      },
      "additionalContracts": [],
      "isFixedGasLimit": false
    },
    {
      "hash": "0xd39f8592f109574efebb903a2afcc2d8f4d1859b3ac158a5a143ef031b212438",
      "transactionType": "CALL",
      "contractName": "FeeManager",
      "contractAddress": "0x1b902cf02724ac790da51e8004b82c7d0de6f957",
      "function": "setFeeMultiplier(uint8,uint256)",
      "arguments": [
        "10",
        "8"
      ],
      "transaction": {
        "from": "0xe62ab4d111f968660c6b2188046f9b9ba53c4bae",
        "to": "0x1b902cf02724ac790da51e8004b82c7d0de6f957",
        "gas": "0x11453",
        "value": "0x0",
        "input": "0x0ee24eb5000000000000000000000000000000000000000000000000000000000000000a0000000000000000000000000000000000000000000000000000000000000008",
        "nonce": "0x242",
        "chainId": "0x14a34"
      },
      "additionalContracts": [],
      "isFixedGasLimit": false
    },
    {
      "hash": "0x6543415ce664629fc3e80a2a1105eab6e68e98976d9a088c47b0c910c72e53e5",
      "transactionType": "CALL",
      "contractName": "FeeManager",
      "contractAddress": "0x1b902cf02724ac790da51e8004b82c7d0de6f957",
      "function": "setFeeMultiplier(uint8,uint256)",
      "arguments": [
        "11",
        "8"
      ],
      "transaction": {
        "from": "0xe62ab4d111f968660c6b2188046f9b9ba53c4bae",
        "to": "0x1b902cf02724ac790da51e8004b82c7d0de6f957",
        "gas": "0x10518",
        "value": "0x0",
        "input": "0x0ee24eb5000000000000000000000000000000000000000000000000000000000000000b0000000000000000000000000000000000000000000000000000000000000008",
        "nonce": "0x243",
        "chainId": "0x14a34"
      },
      "additionalContracts": [],
      "isFixedGasLimit": false
    },
    {
      "hash": "0x513108f93109f90d8f7a27494a3df72f24e6f70799b3b2d7ad045ae1bd8dca1b",
      "transactionType": "CALL",
      "contractName": "FeeManager",
      "contractAddress": "0x1b902cf02724ac790da51e8004b82c7d0de6f957",
      "function": "setFeeMultiplier(uint8,uint256)",
      "arguments": [
        "12",
        "20"
      ],
      "transaction": {
        "from": "0xe62ab4d111f968660c6b2188046f9b9ba53c4bae",
        "to": "0x1b902cf02724ac790da51e8004b82c7d0de6f957",
        "gas": "0x10538",
        "value": "0x0",
        "input": "0x0ee24eb5000000000000000000000000000000000000000000000000000000000000000c0000000000000000000000000000000000000000000000000000000000000014",
        "nonce": "0x244",
        "chainId": "0x14a34"
      },
      "additionalContracts": [],
      "isFixedGasLimit": false
    },
    {
      "hash": "0x808df38f10cf450444f1731173243d46cbc73e56f76c0e4adaa6757df65277fa",
      "transactionType": "CALL",
      "contractName": "FeeManager",
      "contractAddress": "0x1b902cf02724ac790da51e8004b82c7d0de6f957",
      "function": "setFeeMultiplier(uint8,uint256)",
      "arguments": [
        "13",
        "8"
      ],
      "transaction": {
        "from": "0xe62ab4d111f968660c6b2188046f9b9ba53c4bae",
        "to": "0x1b902cf02724ac790da51e8004b82c7d0de6f957",
        "gas": "0x10558",
        "value": "0x0",
        "input": "0x0ee24eb5000000000000000000000000000000000000000000000000000000000000000d0000000000000000000000000000000000000000000000000000000000000008",
        "nonce": "0x245",
        "chainId": "0x14a34"
      },
      "additionalContracts": [],
      "isFixedGasLimit": false
    },
    {
      "hash": "0x35ce323cf3bde7ce7f6842730d5df7bb2b608397ba39582baff19c7ea0dbaaef",
      "transactionType": "CALL",
      "contractName": "FeeManager",
      "contractAddress": "0x1b902cf02724ac790da51e8004b82c7d0de6f957",
      "function": "setFeeMultiplier(uint8,uint256)",
      "arguments": [
        "14",
        "4"
      ],
      "transaction": {
        "from": "0xe62ab4d111f968660c6b2188046f9b9ba53c4bae",
        "to": "0x1b902cf02724ac790da51e8004b82c7d0de6f957",
        "gas": "0x10577",
        "value": "0x0",
        "input": "0x0ee24eb5000000000000000000000000000000000000000000000000000000000000000e0000000000000000000000000000000000000000000000000000000000000004",
        "nonce": "0x246",
        "chainId": "0x14a34"
      },
      "additionalContracts": [],
      "isFixedGasLimit": false
    },
    {
      "hash": "0xcc221e4092da87a27a35fe657fd07d57d26156dfcd3640f576cb99cdece3a5aa",
      "transactionType": "CALL",
      "contractName": "FeeManager",
      "contractAddress": "0x1b902cf02724ac790da51e8004b82c7d0de6f957",
      "function": "setFeeMultiplier(uint8,uint256)",
      "arguments": [
        "15",
        "4"
      ],
      "transaction": {
        "from": "0xe62ab4d111f968660c6b2188046f9b9ba53c4bae",
        "to": "0x1b902cf02724ac790da51e8004b82c7d0de6f957",
        "gas": "0x10598",
        "value": "0x0",
        "input": "0x0ee24eb5000000000000000000000000000000000000000000000000000000000000000f0000000000000000000000000000000000000000000000000000000000000004",
        "nonce": "0x247",
        "chainId": "0x14a34"
      },
      "additionalContracts": [],
      "isFixedGasLimit": false
    },
    {
      "hash": "0x2604a3d7c59ddde94790045820af0254ea02e6a35e47d3d08a0aceb1ca000736",
      "transactionType": "CALL",
      "contractName": "FeeManager",
      "contractAddress": "0x1b902cf02724ac790da51e8004b82c7d0de6f957",
      "function": "setFeeMultiplier(uint8,uint256)",
      "arguments": [
        "16",
        "4"
      ],
      "transaction": {
        "from": "0xe62ab4d111f968660c6b2188046f9b9ba53c4bae",
        "to": "0x1b902cf02724ac790da51e8004b82c7d0de6f957",
        "gas": "0x1151d",
        "value": "0x0",
        "input": "0x0ee24eb500000000000000000000000000000000000000000000000000000000000000100000000000000000000000000000000000000000000000000000000000000004",
        "nonce": "0x248",
        "chainId": "0x14a34"
      },
      "additionalContracts": [],
      "isFixedGasLimit": false
    },
    {
      "hash": "0x6ccc4a7499b18256ae4e446fe5ec5a4ab60c921db2b880a5764118573ca7645c",
      "transactionType": "CALL",
      "contractName": "FeeManager",
      "contractAddress": "0x1b902cf02724ac790da51e8004b82c7d0de6f957",
      "function": "setFeeMultiplier(uint8,uint256)",
      "arguments": [
        "17",
        "4"
      ],
      "transaction": {
        "from": "0xe62ab4d111f968660c6b2188046f9b9ba53c4bae",
        "to": "0x1b902cf02724ac790da51e8004b82c7d0de6f957",
        "gas": "0x1153e",
        "value": "0x0",
        "input": "0x0ee24eb500000000000000000000000000000000000000000000000000000000000000110000000000000000000000000000000000000000000000000000000000000004",
        "nonce": "0x249",
        "chainId": "0x14a34"
      },
      "additionalContracts": [],
      "isFixedGasLimit": false
    },
    {
      "hash": "0x8313a457c7601c57c5fdc224959cf1462060c2a6d3085cd053a707468c6c80b5",
      "transactionType": "CALL",
      "contractName": "FeeManager",
      "contractAddress": "0x1b902cf02724ac790da51e8004b82c7d0de6f957",
      "function": "setFeeMultiplier(uint8,uint256)",
      "arguments": [
        "18",
        "2"
      ],
      "transaction": {
        "from": "0xe62ab4d111f968660c6b2188046f9b9ba53c4bae",
        "to": "0x1b902cf02724ac790da51e8004b82c7d0de6f957",
        "gas": "0x11560",
        "value": "0x0",
        "input": "0x0ee24eb500000000000000000000000000000000000000000000000000000000000000120000000000000000000000000000000000000000000000000000000000000002",
        "nonce": "0x24a",
        "chainId": "0x14a34"
      },
      "additionalContracts": [],
      "isFixedGasLimit": false
    },
    {
      "hash": "0xa941545a8832be6dc6feb788da1b9abec8660dbd4bcfa0c70419a34f20634399",
      "transactionType": "CALL",
      "contractName": "FeeManager",
      "contractAddress": "0x1b902cf02724ac790da51e8004b82c7d0de6f957",
      "function": "setFeeMultiplier(uint8,uint256)",
      "arguments": [
        "19",
        "2"
      ],
      "transaction": {
        "from": "0xe62ab4d111f968660c6b2188046f9b9ba53c4bae",
        "to": "0x1b902cf02724ac790da51e8004b82c7d0de6f957",
        "gas": "0x1157a",
        "value": "0x0",
        "input": "0x0ee24eb500000000000000000000000000000000000000000000000000000000000000130000000000000000000000000000000000000000000000000000000000000002",
        "nonce": "0x24b",
        "chainId": "0x14a34"
      },
      "additionalContracts": [],
      "isFixedGasLimit": false
    },
    {
      "hash": "0x50ec369c3e9f0b46a9100259c254ad9d12f4a5efacfc47a2763e38c7da29a74d",
      "transactionType": "CALL",
      "contractName": "FeeManager",
      "contractAddress": "0x1b902cf02724ac790da51e8004b82c7d0de6f957",
      "function": "addFeeToken(string,string[],uint256[])",
      "arguments": [
        "421614",
        "[0x6a4dbc971533ba36bdc23ad70f5a7a12e064f4ae]",
        "[100]"
      ],
      "transaction": {
        "from": "0xe62ab4d111f968660c6b2188046f9b9ba53c4bae",
        "to": "0x1b902cf02724ac790da51e8004b82c7d0de6f957",
        "gas": "0x2f631",
        "value": "0x0",
        "input": "0x437bf84f000000000000000000000000000000000000000000000000000000000000006000000000000000000000000000000000000000000000000000000000000000a000000000000000000000000000000000000000000000000000000000000001400000000000000000000000000000000000000000000000000000000000000006343231363134000000000000000000000000000000000000000000000000000000000000000000000000000000000000000000000000000000000000000000010000000000000000000000000000000000000000000000000000000000000020000000000000000000000000000000000000000000000000000000000000002a3078366134646263393731353333626133366264633233616437306635613761313265303634663461650000000000000000000000000000000000000000000000000000000000000000000000000000000000000000000000000000000000010000000000000000000000000000000000000000000000000000000000000064",
        "nonce": "0x24c",
        "chainId": "0x14a34"
      },
      "additionalContracts": [],
      "isFixedGasLimit": false
    },
    {
      "hash": "0x11f63df07eff7505c454bf1886fb314435208449767a69d7253d673928e32932",
      "transactionType": "CALL",
      "contractName": "FeeManager",
      "contractAddress": "0x1b902cf02724ac790da51e8004b82c7d0de6f957",
      "function": "addFeeToken(string,string[],uint256[])",
      "arguments": [
        "80002",
        "[0x6a4dbc971533ba36bdc23ad70f5a7a12e064f4ae]",
        "[100]"
      ],
      "transaction": {
        "from": "0xe62ab4d111f968660c6b2188046f9b9ba53c4bae",
        "to": "0x1b902cf02724ac790da51e8004b82c7d0de6f957",
        "gas": "0x2a2a1",
        "value": "0x0",
        "input": "0x437bf84f000000000000000000000000000000000000000000000000000000000000006000000000000000000000000000000000000000000000000000000000000000a000000000000000000000000000000000000000000000000000000000000001400000000000000000000000000000000000000000000000000000000000000005383030303200000000000000000000000000000000000000000000000000000000000000000000000000000000000000000000000000000000000000000000010000000000000000000000000000000000000000000000000000000000000020000000000000000000000000000000000000000000000000000000000000002a3078366134646263393731353333626133366264633233616437306635613761313265303634663461650000000000000000000000000000000000000000000000000000000000000000000000000000000000000000000000000000000000010000000000000000000000000000000000000000000000000000000000000064",
        "nonce": "0x24d",
        "chainId": "0x14a34"
      },
      "additionalContracts": [],
      "isFixedGasLimit": false
    },
    {
      "hash": "0xb257cbe130127afc2d77694564581fd711fbe155f2379f9683b74df64feb8c93",
      "transactionType": "CALL",
      "contractName": "FeeManager",
      "contractAddress": "0x1b902cf02724ac790da51e8004b82c7d0de6f957",
      "function": "addFeeToken(string,string[],uint256[])",
      "arguments": [
        "84532",
        "[0x6a4dbc971533ba36bdc23ad70f5a7a12e064f4ae]",
        "[100]"
      ],
      "transaction": {
        "from": "0xe62ab4d111f968660c6b2188046f9b9ba53c4bae",
        "to": "0x1b902cf02724ac790da51e8004b82c7d0de6f957",
        "gas": "0x2a2a1",
        "value": "0x0",
        "input": "0x437bf84f000000000000000000000000000000000000000000000000000000000000006000000000000000000000000000000000000000000000000000000000000000a000000000000000000000000000000000000000000000000000000000000001400000000000000000000000000000000000000000000000000000000000000005383435333200000000000000000000000000000000000000000000000000000000000000000000000000000000000000000000000000000000000000000000010000000000000000000000000000000000000000000000000000000000000020000000000000000000000000000000000000000000000000000000000000002a3078366134646263393731353333626133366264633233616437306635613761313265303634663461650000000000000000000000000000000000000000000000000000000000000000000000000000000000000000000000000000000000010000000000000000000000000000000000000000000000000000000000000064",
        "nonce": "0x24e",
        "chainId": "0x14a34"
      },
      "additionalContracts": [],
      "isFixedGasLimit": false
    },
    {
      "hash": "0x60e741fdd9ccc2ef20c76b426dd59b8494d5f9d210b8143fe75f1ff5427ef7c9",
      "transactionType": "CALL",
      "contractName": "FeeManager",
      "contractAddress": "0x1b902cf02724ac790da51e8004b82c7d0de6f957",
      "function": "addFeeToken(string,string[],uint256[])",
      "arguments": [
        "97",
        "[0x6a4dbc971533ba36bdc23ad70f5a7a12e064f4ae]",
        "[100]"
      ],
      "transaction": {
        "from": "0xe62ab4d111f968660c6b2188046f9b9ba53c4bae",
        "to": "0x1b902cf02724ac790da51e8004b82c7d0de6f957",
        "gas": "0x29c5a",
        "value": "0x0",
        "input": "0x437bf84f000000000000000000000000000000000000000000000000000000000000006000000000000000000000000000000000000000000000000000000000000000a000000000000000000000000000000000000000000000000000000000000001400000000000000000000000000000000000000000000000000000000000000002393700000000000000000000000000000000000000000000000000000000000000000000000000000000000000000000000000000000000000000000000000010000000000000000000000000000000000000000000000000000000000000020000000000000000000000000000000000000000000000000000000000000002a3078366134646263393731353333626133366264633233616437306635613761313265303634663461650000000000000000000000000000000000000000000000000000000000000000000000000000000000000000000000000000000000010000000000000000000000000000000000000000000000000000000000000064",
        "nonce": "0x24f",
        "chainId": "0x14a34"
      },
      "additionalContracts": [],
      "isFixedGasLimit": false
    },
    {
      "hash": "0xe19e04600d7750fc9936d10d23fd8020705bbb09663a7038c21d6c7d9d2951d4",
      "transactionType": "CALL",
      "contractName": "FeeManager",
      "contractAddress": "0x1b902cf02724ac790da51e8004b82c7d0de6f957",
      "function": "addFeeToken(string,string[],uint256[])",
      "arguments": [
        "11155111",
        "[0x6a4dbc971533ba36bdc23ad70f5a7a12e064f4ae]",
        "[100]"
      ],
      "transaction": {
        "from": "0xe62ab4d111f968660c6b2188046f9b9ba53c4bae",
        "to": "0x1b902cf02724ac790da51e8004b82c7d0de6f957",
        "gas": "0x2a8e9",
        "value": "0x0",
        "input": "0x437bf84f000000000000000000000000000000000000000000000000000000000000006000000000000000000000000000000000000000000000000000000000000000a000000000000000000000000000000000000000000000000000000000000001400000000000000000000000000000000000000000000000000000000000000008313131353531313100000000000000000000000000000000000000000000000000000000000000000000000000000000000000000000000000000000000000010000000000000000000000000000000000000000000000000000000000000020000000000000000000000000000000000000000000000000000000000000002a3078366134646263393731353333626133366264633233616437306635613761313265303634663461650000000000000000000000000000000000000000000000000000000000000000000000000000000000000000000000000000000000010000000000000000000000000000000000000000000000000000000000000064",
        "nonce": "0x250",
        "chainId": "0x14a34"
      },
      "additionalContracts": [],
      "isFixedGasLimit": false
    },
    {
      "hash": "0x78b38156a7f188559536d414d61dcda08f7136903656ea24cf01ab77b294ef75",
      "transactionType": "CALL",
      "contractName": "CTMRWAGateway",
      "contractAddress": "0x497d31415cc6d20113d2f96c90c706b98701c1c9",
      "function": "addChainContract(string[],string[])",
      "arguments": [
        "[421614, 80002, 97, 11155111]",
        "[0xd990ef52a6a375b19375b07cfc2aad2b592e66be, 0x73a3ecd2fad26975d16b31e482eaf0f5152d420e, 0x9b191600588b59e314d2927204c8edc57603d672, 0x3cb56e6e5917a2a8924bc2a5c1f0ecc90b585e74]"
      ],
      "transaction": {
        "from": "0xe62ab4d111f968660c6b2188046f9b9ba53c4bae",
        "to": "0x497d31415cc6d20113d2f96c90c706b98701c1c9",
        "gas": "0xb4503",
        "value": "0x0",
        "input": "0x013fd3bd000000000000000000000000000000000000000000000000000000000000004000000000000000000000000000000000000000000000000000000000000001e00000000000000000000000000000000000000000000000000000000000000004000000000000000000000000000000000000000000000000000000000000008000000000000000000000000000000000000000000000000000000000000000c000000000000000000000000000000000000000000000000000000000000001000000000000000000000000000000000000000000000000000000000000000140000000000000000000000000000000000000000000000000000000000000000634323136313400000000000000000000000000000000000000000000000000000000000000000000000000000000000000000000000000000000000000000005383030303200000000000000000000000000000000000000000000000000000000000000000000000000000000000000000000000000000000000000000000023937000000000000000000000000000000000000000000000000000000000000000000000000000000000000000000000000000000000000000000000000000831313135353131310000000000000000000000000000000000000000000000000000000000000000000000000000000000000000000000000000000000000004000000000000000000000000000000000000000000000000000000000000008000000000000000000000000000000000000000000000000000000000000000e0000000000000000000000000000000000000000000000000000000000000014000000000000000000000000000000000000000000000000000000000000001a0000000000000000000000000000000000000000000000000000000000000002a30786439393065663532613661333735623139333735623037636663326161643262353932653636626500000000000000000000000000000000000000000000000000000000000000000000000000000000000000000000000000000000002a30783733613365636432666164323639373564313662333165343832656166306635313532643432306500000000000000000000000000000000000000000000000000000000000000000000000000000000000000000000000000000000002a30783962313931363030353838623539653331346432393237323034633865646335373630336436373200000000000000000000000000000000000000000000000000000000000000000000000000000000000000000000000000000000002a30783363623536653665353931376132613839323462633261356331663065636339306235383565373400000000000000000000000000000000000000000000",
        "nonce": "0x251",
        "chainId": "0x14a34"
      },
      "additionalContracts": [],
      "isFixedGasLimit": false
    },
    {
      "hash": "0xf882e6e79129ae3c81a097717eadc29511e6b2669e0def94bd9802c84fdc2a25",
      "transactionType": "CALL",
      "contractName": "CTMRWAGateway",
      "contractAddress": "0x497d31415cc6d20113d2f96c90c706b98701c1c9",
      "function": "attachRWAX(uint256,uint256,string[],string[])",
      "arguments": [
        "1",
        "1",
        "[84532, 421614, 80002, 97, 11155111]",
        "[0xbe87477fd18fbebd8cccdd003f6f66ffc4d49cd1, 0x8bde23e16f4f9b19b3e11edcb65168e7f2720006, 0x4da174a7024b242fb979d120ee63f1bf6aba3e07, 0x730e8b2d89ba0d3403bb3d8c9929a9f0da61e051, 0x1f652e2d8a9fca346a0f45d59a67fb998999e454]"
      ],
      "transaction": {
        "from": "0xe62ab4d111f968660c6b2188046f9b9ba53c4bae",
        "to": "0x497d31415cc6d20113d2f96c90c706b98701c1c9",
        "gas": "0x1152fe",
        "value": "0x0",
        "input": "0x33a5f5b40000000000000000000000000000000000000000000000000000000000000001000000000000000000000000000000000000000000000000000000000000000100000000000000000000000000000000000000000000000000000000000000800000000000000000000000000000000000000000000000000000000000000280000000000000000000000000000000000000000000000000000000000000000500000000000000000000000000000000000000000000000000000000000000a000000000000000000000000000000000000000000000000000000000000000e00000000000000000000000000000000000000000000000000000000000000120000000000000000000000000000000000000000000000000000000000000016000000000000000000000000000000000000000000000000000000000000001a00000000000000000000000000000000000000000000000000000000000000005383435333200000000000000000000000000000000000000000000000000000000000000000000000000000000000000000000000000000000000000000000063432313631340000000000000000000000000000000000000000000000000000000000000000000000000000000000000000000000000000000000000000000538303030320000000000000000000000000000000000000000000000000000000000000000000000000000000000000000000000000000000000000000000002393700000000000000000000000000000000000000000000000000000000000000000000000000000000000000000000000000000000000000000000000000083131313535313131000000000000000000000000000000000000000000000000000000000000000000000000000000000000000000000000000000000000000500000000000000000000000000000000000000000000000000000000000000a00000000000000000000000000000000000000000000000000000000000000100000000000000000000000000000000000000000000000000000000000000016000000000000000000000000000000000000000000000000000000000000001c00000000000000000000000000000000000000000000000000000000000000220000000000000000000000000000000000000000000000000000000000000002a30786265383734373766643138666265626438636363646430303366366636366666633464343963643100000000000000000000000000000000000000000000000000000000000000000000000000000000000000000000000000000000002a30783862646532336531366634663962313962336531316564636236353136386537663237323030303600000000000000000000000000000000000000000000000000000000000000000000000000000000000000000000000000000000002a30783464613137346137303234623234326662393739643132306565363366316266366162613365303700000000000000000000000000000000000000000000000000000000000000000000000000000000000000000000000000000000002a30783733306538623264383962613064333430336262336438633939323961396630646136316530353100000000000000000000000000000000000000000000000000000000000000000000000000000000000000000000000000000000002a30783166363532653264386139666361333436613066343564353961363766623939383939396534353400000000000000000000000000000000000000000000",
        "nonce": "0x252",
        "chainId": "0x14a34"
      },
      "additionalContracts": [],
      "isFixedGasLimit": false
    },
    {
      "hash": "0xf2dc07f58ad67115ccd7644f3db3b2a9122a3df473bb30f2296635b34cbe5e52",
      "transactionType": "CALL",
      "contractName": "CTMRWAGateway",
      "contractAddress": "0x497d31415cc6d20113d2f96c90c706b98701c1c9",
      "function": "attachStorageManager(uint256,uint256,string[],string[])",
      "arguments": [
        "1",
        "1",
        "[84532, 421614, 80002, 97, 11155111]",
        "[0x2c4be93acd346ca06363b37a06beb9d693d02dac, 0xf4e9dc949ca6eb2bbafa1e887017e91e523c1bc8, 0xb07c3788549cd48ad1d4cb9b7336f7c9dd53d67f, 0xc653cd79f70165005319ef97ad1229ac7f88a25d, 0xa33cfd901896c775c5a6d62e94081b4fdd1b09bc]"
      ],
      "transaction": {
        "from": "0xe62ab4d111f968660c6b2188046f9b9ba53c4bae",
        "to": "0x497d31415cc6d20113d2f96c90c706b98701c1c9",
        "gas": "0xe4201",
        "value": "0x0",
        "input": "0x2f68b4890000000000000000000000000000000000000000000000000000000000000001000000000000000000000000000000000000000000000000000000000000000100000000000000000000000000000000000000000000000000000000000000800000000000000000000000000000000000000000000000000000000000000280000000000000000000000000000000000000000000000000000000000000000500000000000000000000000000000000000000000000000000000000000000a000000000000000000000000000000000000000000000000000000000000000e00000000000000000000000000000000000000000000000000000000000000120000000000000000000000000000000000000000000000000000000000000016000000000000000000000000000000000000000000000000000000000000001a00000000000000000000000000000000000000000000000000000000000000005383435333200000000000000000000000000000000000000000000000000000000000000000000000000000000000000000000000000000000000000000000063432313631340000000000000000000000000000000000000000000000000000000000000000000000000000000000000000000000000000000000000000000538303030320000000000000000000000000000000000000000000000000000000000000000000000000000000000000000000000000000000000000000000002393700000000000000000000000000000000000000000000000000000000000000000000000000000000000000000000000000000000000000000000000000083131313535313131000000000000000000000000000000000000000000000000000000000000000000000000000000000000000000000000000000000000000500000000000000000000000000000000000000000000000000000000000000a00000000000000000000000000000000000000000000000000000000000000100000000000000000000000000000000000000000000000000000000000000016000000000000000000000000000000000000000000000000000000000000001c00000000000000000000000000000000000000000000000000000000000000220000000000000000000000000000000000000000000000000000000000000002a30783263346265393361636433343663613036333633623337613036626562396436393364303264616300000000000000000000000000000000000000000000000000000000000000000000000000000000000000000000000000000000002a30786634653964633934396361366562326262616661316538383730313765393165353233633162633800000000000000000000000000000000000000000000000000000000000000000000000000000000000000000000000000000000002a30786230376333373838353439636434386164316434636239623733333666376339646435336436376600000000000000000000000000000000000000000000000000000000000000000000000000000000000000000000000000000000002a30786336353363643739663730313635303035333139656639376164313232396163376638386132356400000000000000000000000000000000000000000000000000000000000000000000000000000000000000000000000000000000002a30786133336366643930313839366337373563356136643632653934303831623466646431623039626300000000000000000000000000000000000000000000",
        "nonce": "0x253",
        "chainId": "0x14a34"
      },
      "additionalContracts": [],
      "isFixedGasLimit": false
    }
  ],
  "receipts": [
    {
      "status": "0x1",
      "cumulativeGasUsed": "0xacb0d",
      "logs": [],
      "logsBloom": "0x00000000000000000000000000000000000000000000000000000000000000000000000000000000000000000000000000000000000000000000000000000000000000000000000000000000000000000000000000000000000000000000000000000000000000000000000000000000000000000000000000000000000000000000000000000000000000000000000000000000000000000000000000000000000000000000000000000000000000000000000000000000000000000000000000000000000000000000000000000000000000000000000000000000000000000000000000000000000000000000000000000000000000000000000000000000",
      "type": "0x2",
      "transactionHash": "0x9b2135d8dd489f3eb753d53cf877a9e2aef7246e972717e9ab4103891766c675",
      "transactionIndex": "0x5",
      "blockHash": "0x9f7b7e1e093ae7558ee166016a1d187510891c71b88f33f1c518cdf9f8d5317f",
      "blockNumber": "0x11a3290",
      "gasUsed": "0x67b0",
      "effectiveGasPrice": "0x839",
      "from": "0xe62ab4d111f968660c6b2188046f9b9ba53c4bae",
      "to": "0x1b902cf02724ac790da51e8004b82c7d0de6f957",
      "contractAddress": null,
      "l1BaseFeeScalar": "0x44d",
      "l1BlobBaseFee": "0x1",
      "l1BlobBaseFeeScalar": "0xa118b",
      "l1Fee": "0x7376879c",
      "l1GasPrice": "0x418b5d58",
      "l1GasUsed": "0x640"
    },
    {
      "status": "0x1",
      "cumulativeGasUsed": "0xdc262",
      "logs": [],
      "logsBloom": "0x00000000000000000000000000000000000000000000000000000000000000000000000000000000000000000000000000000000000000000000000000000000000000000000000000000000000000000000000000000000000000000000000000000000000000000000000000000000000000000000000000000000000000000000000000000000000000000000000000000000000000000000000000000000000000000000000000000000000000000000000000000000000000000000000000000000000000000000000000000000000000000000000000000000000000000000000000000000000000000000000000000000000000000000000000000000",
      "type": "0x2",
      "transactionHash": "0x737391484964d1656f1b22da7d76a7671f683fbee6d79b0dbdfe8c5df91bb6a9",
      "transactionIndex": "0xa",
      "blockHash": "0x9995648146654bb68a215e6d1ee99bd2519edb8111d18269441218ca0da430e4",
      "blockNumber": "0x11a3294",
      "gasUsed": "0x6e3d",
      "effectiveGasPrice": "0x839",
      "from": "0xe62ab4d111f968660c6b2188046f9b9ba53c4bae",
      "to": "0x1b902cf02724ac790da51e8004b82c7d0de6f957",
      "contractAddress": null,
      "l1BaseFeeScalar": "0x44d",
      "l1BlobBaseFee": "0x1",
      "l1BlobBaseFeeScalar": "0xa118b",
      "l1Fee": "0x7376879c",
      "l1GasPrice": "0x418b5d58",
      "l1GasUsed": "0x640"
    },
    {
      "status": "0x1",
      "cumulativeGasUsed": "0xafa47",
      "logs": [],
      "logsBloom": "0x00000000000000000000000000000000000000000000000000000000000000000000000000000000000000000000000000000000000000000000000000000000000000000000000000000000000000000000000000000000000000000000000000000000000000000000000000000000000000000000000000000000000000000000000000000000000000000000000000000000000000000000000000000000000000000000000000000000000000000000000000000000000000000000000000000000000000000000000000000000000000000000000000000000000000000000000000000000000000000000000000000000000000000000000000000000",
      "type": "0x2",
      "transactionHash": "0x008b6ee274ea5f7ae4879c8f39800a1fd4c42c578dd1ada3331782a030fea69d",
      "transactionIndex": "0x5",
      "blockHash": "0x7a3502ca486caa55349d06df74d52ff10a51e98168e6396eacce8fbbf1db9dd2",
      "blockNumber": "0x11a3298",
      "gasUsed": "0x6e66",
      "effectiveGasPrice": "0x83a",
      "from": "0xe62ab4d111f968660c6b2188046f9b9ba53c4bae",
      "to": "0x1b902cf02724ac790da51e8004b82c7d0de6f957",
      "contractAddress": null,
      "l1BaseFeeScalar": "0x44d",
      "l1BlobBaseFee": "0x1",
      "l1BlobBaseFeeScalar": "0xa118b",
      "l1Fee": "0x6f140895",
      "l1GasPrice": "0x3f0e2977",
      "l1GasUsed": "0x640"
    },
    {
      "status": "0x1",
      "cumulativeGasUsed": "0x3c4990",
      "logs": [],
      "logsBloom": "0x00000000000000000000000000000000000000000000000000000000000000000000000000000000000000000000000000000000000000000000000000000000000000000000000000000000000000000000000000000000000000000000000000000000000000000000000000000000000000000000000000000000000000000000000000000000000000000000000000000000000000000000000000000000000000000000000000000000000000000000000000000000000000000000000000000000000000000000000000000000000000000000000000000000000000000000000000000000000000000000000000000000000000000000000000000000",
      "type": "0x2",
      "transactionHash": "0x54e8d9b81a48546a5d6eac45b708f2c8594c5febc0f935ad5c87ac8a42894473",
      "transactionIndex": "0x6",
      "blockHash": "0x9a17464db22e09e24556118eb2a8ba029e5cff727e204b95585357a2895c4a50",
      "blockNumber": "0x11a329c",
      "gasUsed": "0x6e7d",
      "effectiveGasPrice": "0x83a",
      "from": "0xe62ab4d111f968660c6b2188046f9b9ba53c4bae",
      "to": "0x1b902cf02724ac790da51e8004b82c7d0de6f957",
      "contractAddress": null,
      "l1BaseFeeScalar": "0x44d",
      "l1BlobBaseFee": "0x1",
      "l1BlobBaseFeeScalar": "0xa118b",
      "l1Fee": "0x6cd3d370",
      "l1GasPrice": "0x3dc71193",
      "l1GasUsed": "0x640"
    },
    {
      "status": "0x1",
      "cumulativeGasUsed": "0x2091ec",
      "logs": [],
      "logsBloom": "0x00000000000000000000000000000000000000000000000000000000000000000000000000000000000000000000000000000000000000000000000000000000000000000000000000000000000000000000000000000000000000000000000000000000000000000000000000000000000000000000000000000000000000000000000000000000000000000000000000000000000000000000000000000000000000000000000000000000000000000000000000000000000000000000000000000000000000000000000000000000000000000000000000000000000000000000000000000000000000000000000000000000000000000000000000000000",
      "type": "0x2",
      "transactionHash": "0xf61776fdecb596cc95951be42c7f86985defca89b941c0873f87f9e59c5834d0",
      "transactionIndex": "0x7",
      "blockHash": "0xc7f7ec4b8924ffdff8e1cd9aa1bfc1979621d83acc58238aa37856a20d65d8ae",
      "blockNumber": "0x11a329f",
      "gasUsed": "0x6e94",
      "effectiveGasPrice": "0x83a",
      "from": "0xe62ab4d111f968660c6b2188046f9b9ba53c4bae",
      "to": "0x1b902cf02724ac790da51e8004b82c7d0de6f957",
      "contractAddress": null,
      "l1BaseFeeScalar": "0x44d",
      "l1BlobBaseFee": "0x1",
      "l1BlobBaseFeeScalar": "0xa118b",
      "l1Fee": "0x6cd3d370",
      "l1GasPrice": "0x3dc71193",
      "l1GasUsed": "0x640"
    },
    {
      "status": "0x1",
      "cumulativeGasUsed": "0xb21c0",
      "logs": [],
      "logsBloom": "0x00000000000000000000000000000000000000000000000000000000000000000000000000000000000000000000000000000000000000000000000000000000000000000000000000000000000000000000000000000000000000000000000000000000000000000000000000000000000000000000000000000000000000000000000000000000000000000000000000000000000000000000000000000000000000000000000000000000000000000000000000000000000000000000000000000000000000000000000000000000000000000000000000000000000000000000000000000000000000000000000000000000000000000000000000000000",
      "type": "0x2",
      "transactionHash": "0x6598665d6676797a468cd07edd0fb6bd6039d89b2b13feb7708ca47d307d8682",
      "transactionIndex": "0x8",
      "blockHash": "0x554287b6b8ad24013b60ff8371e4ec0e57faa3a7464b908226f663aca60865e0",
      "blockNumber": "0x11a32a3",
      "gasUsed": "0xbc67",
      "effectiveGasPrice": "0x83a",
      "from": "0xe62ab4d111f968660c6b2188046f9b9ba53c4bae",
      "to": "0x1b902cf02724ac790da51e8004b82c7d0de6f957",
      "contractAddress": null,
      "l1BaseFeeScalar": "0x44d",
      "l1BlobBaseFee": "0x1",
      "l1BlobBaseFeeScalar": "0xa118b",
      "l1Fee": "0x68496418",
      "l1GasPrice": "0x3b3331b3",
      "l1GasUsed": "0x640"
    },
    {
      "status": "0x1",
      "cumulativeGasUsed": "0x167b1",
      "logs": [],
      "logsBloom": "0x00000000000000000000000000000000000000000000000000000000000000000000000000000000000000000000000000000000000000000000000000000000000000000000000000000000000000000000000000000000000000000000000000000000000000000000000000000000000000000000000000000000000000000000000000000000000000000000000000000000000000000000000000000000000000000000000000000000000000000000000000000000000000000000000000000000000000000000000000000000000000000000000000000000000000000000000000000000000000000000000000000000000000000000000000000000",
      "type": "0x2",
      "transactionHash": "0x428431c269e9aad42e794e86d0ed1c36dd8525ecd157ea914c49dc9f4a1379eb",
      "transactionIndex": "0x1",
      "blockHash": "0x2025a26e776cc3e760b2dc11f8775edc5ebaf15c8cf20f921a4425a8732ad22c",
      "blockNumber": "0x11a32a7",
      "gasUsed": "0xbc7e",
      "effectiveGasPrice": "0x83a",
      "from": "0xe62ab4d111f968660c6b2188046f9b9ba53c4bae",
      "to": "0x1b902cf02724ac790da51e8004b82c7d0de6f957",
      "contractAddress": null,
      "l1BaseFeeScalar": "0x44d",
      "l1BlobBaseFee": "0x1",
      "l1BlobBaseFeeScalar": "0xa118b",
      "l1Fee": "0x68496418",
      "l1GasPrice": "0x3b3331b3",
      "l1GasUsed": "0x640"
    },
    {
      "status": "0x1",
      "cumulativeGasUsed": "0x12a27e",
      "logs": [],
      "logsBloom": "0x00000000000000000000000000000000000000000000000000000000000000000000000000000000000000000000000000000000000000000000000000000000000000000000000000000000000000000000000000000000000000000000000000000000000000000000000000000000000000000000000000000000000000000000000000000000000000000000000000000000000000000000000000000000000000000000000000000000000000000000000000000000000000000000000000000000000000000000000000000000000000000000000000000000000000000000000000000000000000000000000000000000000000000000000000000000",
      "type": "0x2",
      "transactionHash": "0xf5fabc938ceac8156a0c6111c264ea27d5e432187a9126f392a82f040c87fcfe",
      "transactionIndex": "0x9",
      "blockHash": "0x01a3be9489e7196544c9f6319c8ef6dde45f0cc5b6a96d124b682c5e547d55bb",
      "blockNumber": "0x11a32aa",
      "gasUsed": "0xbc95",
      "effectiveGasPrice": "0x839",
      "from": "0xe62ab4d111f968660c6b2188046f9b9ba53c4bae",
      "to": "0x1b902cf02724ac790da51e8004b82c7d0de6f957",
      "contractAddress": null,
      "l1BaseFeeScalar": "0x44d",
      "l1BlobBaseFee": "0x1",
      "l1BlobBaseFeeScalar": "0xa118b",
      "l1Fee": "0x75514da4",
      "l1GasPrice": "0x4298e098",
      "l1GasUsed": "0x640"
    },
    {
      "status": "0x1",
      "cumulativeGasUsed": "0x9f3ff",
      "logs": [],
      "logsBloom": "0x00000000000000000000000000000000000000000000000000000000000000000000000000000000000000000000000000000000000000000000000000000000000000000000000000000000000000000000000000000000000000000000000000000000000000000000000000000000000000000000000000000000000000000000000000000000000000000000000000000000000000000000000000000000000000000000000000000000000000000000000000000000000000000000000000000000000000000000000000000000000000000000000000000000000000000000000000000000000000000000000000000000000000000000000000000000",
      "type": "0x2",
      "transactionHash": "0x951e4665a9dfb96c4136e9a4bc6b8e8f31793009ae39daafffcc512b9d104110",
      "transactionIndex": "0x6",
      "blockHash": "0x31698e12c3b22a04347479d2b1c90eaa5bf26ef7840bf3da40e7f367fe2d636c",
      "blockNumber": "0x11a32ae",
      "gasUsed": "0xbcac",
      "effectiveGasPrice": "0x839",
      "from": "0xe62ab4d111f968660c6b2188046f9b9ba53c4bae",
      "to": "0x1b902cf02724ac790da51e8004b82c7d0de6f957",
      "contractAddress": null,
      "l1BaseFeeScalar": "0x44d",
      "l1BlobBaseFee": "0x1",
      "l1BlobBaseFeeScalar": "0xa118b",
      "l1Fee": "0x75ff56a9",
      "l1GasPrice": "0x42fbabd1",
      "l1GasUsed": "0x640"
    },
    {
      "status": "0x1",
      "cumulativeGasUsed": "0x4c085",
      "logs": [],
      "logsBloom": "0x00000000000000000000000000000000000000000000000000000000000000000000000000000000000000000000000000000000000000000000000000000000000000000000000000000000000000000000000000000000000000000000000000000000000000000000000000000000000000000000000000000000000000000000000000000000000000000000000000000000000000000000000000000000000000000000000000000000000000000000000000000000000000000000000000000000000000000000000000000000000000000000000000000000000000000000000000000000000000000000000000000000000000000000000000000000",
      "type": "0x2",
      "transactionHash": "0x248283a3838e3db869997562296cbb180a9bacb622d0df3eb03cfc6df8671e1a",
      "transactionIndex": "0x3",
      "blockHash": "0xd4df2f3495520f759c28bdde24052822b980e310b8b6194afb91d54ab11c4d0a",
      "blockNumber": "0x11a32b1",
      "gasUsed": "0xbcc3",
      "effectiveGasPrice": "0x839",
      "from": "0xe62ab4d111f968660c6b2188046f9b9ba53c4bae",
      "to": "0x1b902cf02724ac790da51e8004b82c7d0de6f957",
      "contractAddress": null,
      "l1BaseFeeScalar": "0x44d",
      "l1BlobBaseFee": "0x1",
      "l1BlobBaseFeeScalar": "0xa118b",
      "l1Fee": "0x75ff56a9",
      "l1GasPrice": "0x42fbabd1",
      "l1GasUsed": "0x640"
    },
    {
      "status": "0x1",
      "cumulativeGasUsed": "0xf180b",
      "logs": [],
      "logsBloom": "0x00000000000000000000000000000000000000000000000000000000000000000000000000000000000000000000000000000000000000000000000000000000000000000000000000000000000000000000000000000000000000000000000000000000000000000000000000000000000000000000000000000000000000000000000000000000000000000000000000000000000000000000000000000000000000000000000000000000000000000000000000000000000000000000000000000000000000000000000000000000000000000000000000000000000000000000000000000000000000000000000000000000000000000000000000000000",
      "type": "0x2",
      "transactionHash": "0x276485967b218766ac82c227db2a989a2eb90279c557d8abe627feffaaeb2bf6",
      "transactionIndex": "0x6",
      "blockHash": "0xefdcd9d940bb1a4e0e7621c6b45c0af87891eb016bd3379ae0385836223f5ce7",
      "blockNumber": "0x11a32b5",
      "gasUsed": "0xbcda",
      "effectiveGasPrice": "0x839",
      "from": "0xe62ab4d111f968660c6b2188046f9b9ba53c4bae",
      "to": "0x1b902cf02724ac790da51e8004b82c7d0de6f957",
      "contractAddress": null,
      "l1BaseFeeScalar": "0x44d",
      "l1BlobBaseFee": "0x1",
      "l1BlobBaseFeeScalar": "0xa118b",
      "l1Fee": "0x6a937bb5",
      "l1GasPrice": "0x3c7fe60d",
      "l1GasUsed": "0x640"
    },
    {
      "status": "0x1",
      "cumulativeGasUsed": "0x4379db",
      "logs": [],
      "logsBloom": "0x00000000000000000000000000000000000000000000000000000000000000000000000000000000000000000000000000000000000000000000000000000000000000000000000000000000000000000000000000000000000000000000000000000000000000000000000000000000000000000000000000000000000000000000000000000000000000000000000000000000000000000000000000000000000000000000000000000000000000000000000000000000000000000000000000000000000000000000000000000000000000000000000000000000000000000000000000000000000000000000000000000000000000000000000000000000",
      "type": "0x2",
      "transactionHash": "0xd39f8592f109574efebb903a2afcc2d8f4d1859b3ac158a5a143ef031b212438",
      "transactionIndex": "0x6",
      "blockHash": "0x9ac6d08ea07369ea8e4e79c03020f61c93a688ce6dec14359b3012f677e73a6c",
      "blockNumber": "0x11a32b9",
      "gasUsed": "0xbcf1",
      "effectiveGasPrice": "0x839",
      "from": "0xe62ab4d111f968660c6b2188046f9b9ba53c4bae",
      "to": "0x1b902cf02724ac790da51e8004b82c7d0de6f957",
      "contractAddress": null,
      "l1BaseFeeScalar": "0x44d",
      "l1BlobBaseFee": "0x1",
      "l1BlobBaseFeeScalar": "0xa118b",
      "l1Fee": "0x6a937bb5",
      "l1GasPrice": "0x3c7fe60d",
      "l1GasUsed": "0x640"
    },
    {
      "status": "0x1",
      "cumulativeGasUsed": "0x158bb1",
      "logs": [],
      "logsBloom": "0x00000000000000000000000000000000000000000000000000000000000000000000000000000000000000000000000000000000000000000000000000000000000000000000000000000000000000000000000000000000000000000000000000000000000000000000000000000000000000000000000000000000000000000000000000000000000000000000000000000000000000000000000000000000000000000000000000000000000000000000000000000000000000000000000000000000000000000000000000000000000000000000000000000000000000000000000000000000000000000000000000000000000000000000000000000000",
      "type": "0x2",
      "transactionHash": "0x6543415ce664629fc3e80a2a1105eab6e68e98976d9a088c47b0c910c72e53e5",
      "transactionIndex": "0x9",
      "blockHash": "0x02ae64000648a23560faaf864177cdbbdd21845c4bcbb5fcf91dc11aa5a851ac",
      "blockNumber": "0x11a32bc",
      "gasUsed": "0xbd08",
      "effectiveGasPrice": "0x839",
      "from": "0xe62ab4d111f968660c6b2188046f9b9ba53c4bae",
      "to": "0x1b902cf02724ac790da51e8004b82c7d0de6f957",
      "contractAddress": null,
      "l1BaseFeeScalar": "0x44d",
      "l1BlobBaseFee": "0x1",
      "l1BlobBaseFeeScalar": "0xa118b",
      "l1Fee": "0x6d53488b",
      "l1GasPrice": "0x3e0f6c00",
      "l1GasUsed": "0x640"
    },
    {
      "status": "0x1",
      "cumulativeGasUsed": "0xa2bf9",
      "logs": [],
      "logsBloom": "0x00000000000000000000000000000000000000000000000000000000000000000000000000000000000000000000000000000000000000000000000000000000000000000000000000000000000000000000000000000000000000000000000000000000000000000000000000000000000000000000000000000000000000000000000000000000000000000000000000000000000000000000000000000000000000000000000000000000000000000000000000000000000000000000000000000000000000000000000000000000000000000000000000000000000000000000000000000000000000000000000000000000000000000000000000000000",
      "type": "0x2",
      "transactionHash": "0x513108f93109f90d8f7a27494a3df72f24e6f70799b3b2d7ad045ae1bd8dca1b",
      "transactionIndex": "0x4",
      "blockHash": "0x66ec2976f5c795d04437528d996d89cd8b4cf5fdece33d587edcde440c458a1e",
      "blockNumber": "0x11a32c0",
      "gasUsed": "0xbd1f",
      "effectiveGasPrice": "0x839",
      "from": "0xe62ab4d111f968660c6b2188046f9b9ba53c4bae",
      "to": "0x1b902cf02724ac790da51e8004b82c7d0de6f957",
      "contractAddress": null,
      "l1BaseFeeScalar": "0x44d",
      "l1BlobBaseFee": "0x1",
      "l1BlobBaseFeeScalar": "0xa118b",
      "l1Fee": "0x69fced81",
      "l1GasPrice": "0x3c2a6ef6",
      "l1GasUsed": "0x640"
    },
    {
      "status": "0x1",
      "cumulativeGasUsed": "0x2056f1",
      "logs": [],
      "logsBloom": "0x00000000000000000000000000000000000000000000000000000000000000000000000000000000000000000000000000000000000000000000000000000000000000000000000000000000000000000000000000000000000000000000000000000000000000000000000000000000000000000000000000000000000000000000000000000000000000000000000000000000000000000000000000000000000000000000000000000000000000000000000000000000000000000000000000000000000000000000000000000000000000000000000000000000000000000000000000000000000000000000000000000000000000000000000000000000",
      "type": "0x2",
      "transactionHash": "0x808df38f10cf450444f1731173243d46cbc73e56f76c0e4adaa6757df65277fa",
      "transactionIndex": "0xc",
      "blockHash": "0xb8b6e6d39662c7c5b0d0c086906ee9e9262b5435532b27eac6722fb5cf5d8bff",
      "blockNumber": "0x11a32c4",
      "gasUsed": "0xbd36",
      "effectiveGasPrice": "0x83a",
      "from": "0xe62ab4d111f968660c6b2188046f9b9ba53c4bae",
      "to": "0x1b902cf02724ac790da51e8004b82c7d0de6f957",
      "contractAddress": null,
      "l1BaseFeeScalar": "0x44d",
      "l1BlobBaseFee": "0x1",
      "l1BlobBaseFeeScalar": "0xa118b",
      "l1Fee": "0x69fced81",
      "l1GasPrice": "0x3c2a6ef6",
      "l1GasUsed": "0x640"
    },
    {
      "status": "0x1",
      "cumulativeGasUsed": "0x5c938",
      "logs": [],
      "logsBloom": "0x00000000000000000000000000000000000000000000000000000000000000000000000000000000000000000000000000000000000000000000000000000000000000000000000000000000000000000000000000000000000000000000000000000000000000000000000000000000000000000000000000000000000000000000000000000000000000000000000000000000000000000000000000000000000000000000000000000000000000000000000000000000000000000000000000000000000000000000000000000000000000000000000000000000000000000000000000000000000000000000000000000000000000000000000000000000",
      "type": "0x2",
      "transactionHash": "0x35ce323cf3bde7ce7f6842730d5df7bb2b608397ba39582baff19c7ea0dbaaef",
      "transactionIndex": "0x4",
      "blockHash": "0xd6b23bd3d2155e5203ee4507703429728765106965120dcaf0bd9a7870cdff5b",
      "blockNumber": "0x11a32c7",
      "gasUsed": "0xbd4d",
      "effectiveGasPrice": "0x839",
      "from": "0xe62ab4d111f968660c6b2188046f9b9ba53c4bae",
      "to": "0x1b902cf02724ac790da51e8004b82c7d0de6f957",
      "contractAddress": null,
      "l1BaseFeeScalar": "0x44d",
      "l1BlobBaseFee": "0x1",
      "l1BlobBaseFeeScalar": "0xa118b",
      "l1Fee": "0x5f220d65",
      "l1GasPrice": "0x3600f605",
      "l1GasUsed": "0x640"
    },
    {
      "status": "0x1",
      "cumulativeGasUsed": "0xc5309",
      "logs": [],
      "logsBloom": "0x00000000000000000000000000000000000000000000000000000000000000000000000000000000000000000000000000000000000000000000000000000000000000000000000000000000000000000000000000000000000000000000000000000000000000000000000000000000000000000000000000000000000000000000000000000000000000000000000000000000000000000000000000000000000000000000000000000000000000000000000000000000000000000000000000000000000000000000000000000000000000000000000000000000000000000000000000000000000000000000000000000000000000000000000000000000",
      "type": "0x2",
      "transactionHash": "0xcc221e4092da87a27a35fe657fd07d57d26156dfcd3640f576cb99cdece3a5aa",
      "transactionIndex": "0x9",
      "blockHash": "0x1ffbec3d971ee0ac4bc4fdc050ac4e5ca741819637fab79d311b14a37307ddde",
      "blockNumber": "0x11a32cb",
      "gasUsed": "0xbd64",
      "effectiveGasPrice": "0x839",
      "from": "0xe62ab4d111f968660c6b2188046f9b9ba53c4bae",
      "to": "0x1b902cf02724ac790da51e8004b82c7d0de6f957",
      "contractAddress": null,
      "l1BaseFeeScalar": "0x44d",
      "l1BlobBaseFee": "0x1",
      "l1BlobBaseFeeScalar": "0xa118b",
      "l1Fee": "0x5f220d65",
      "l1GasPrice": "0x3600f605",
      "l1GasUsed": "0x640"
    },
    {
      "status": "0x1",
      "cumulativeGasUsed": "0x5d663",
      "logs": [],
      "logsBloom": "0x00000000000000000000000000000000000000000000000000000000000000000000000000000000000000000000000000000000000000000000000000000000000000000000000000000000000000000000000000000000000000000000000000000000000000000000000000000000000000000000000000000000000000000000000000000000000000000000000000000000000000000000000000000000000000000000000000000000000000000000000000000000000000000000000000000000000000000000000000000000000000000000000000000000000000000000000000000000000000000000000000000000000000000000000000000000",
      "type": "0x2",
      "transactionHash": "0x2604a3d7c59ddde94790045820af0254ea02e6a35e47d3d08a0aceb1ca000736",
      "transactionIndex": "0x4",
      "blockHash": "0xbeae8fc5bc3ee047bd52ef17926297972b8402672698b17bd5efb58a718697d7",
      "blockNumber": "0x11a32ce",
      "gasUsed": "0xbd7b",
      "effectiveGasPrice": "0x839",
      "from": "0xe62ab4d111f968660c6b2188046f9b9ba53c4bae",
      "to": "0x1b902cf02724ac790da51e8004b82c7d0de6f957",
      "contractAddress": null,
      "l1BaseFeeScalar": "0x44d",
      "l1BlobBaseFee": "0x1",
      "l1BlobBaseFeeScalar": "0xa118b",
      "l1Fee": "0x63802e75",
      "l1GasPrice": "0x387baf45",
      "l1GasUsed": "0x640"
    },
    {
      "status": "0x1",
      "cumulativeGasUsed": "0x59984",
      "logs": [],
      "logsBloom": "0x00000000000000000000000000000000000000000000000000000000000000000000000000000000000000000000000000000000000000000000000000000000000000000000000000000000000000000000000000000000000000000000000000000000000000000000000000000000000000000000000000000000000000000000000000000000000000000000000000000000000000000000000000000000000000000000000000000000000000000000000000000000000000000000000000000000000000000000000000000000000000000000000000000000000000000000000000000000000000000000000000000000000000000000000000000000",
      "type": "0x2",
      "transactionHash": "0x6ccc4a7499b18256ae4e446fe5ec5a4ab60c921db2b880a5764118573ca7645c",
      "transactionIndex": "0x5",
      "blockHash": "0xb6ac0626926af396dee355b1e2e7ee6d167d512753afa521b97b07cc7bfaf352",
      "blockNumber": "0x11a32d2",
      "gasUsed": "0xbd92",
      "effectiveGasPrice": "0x839",
      "from": "0xe62ab4d111f968660c6b2188046f9b9ba53c4bae",
      "to": "0x1b902cf02724ac790da51e8004b82c7d0de6f957",
      "contractAddress": null,
      "l1BaseFeeScalar": "0x44d",
      "l1BlobBaseFee": "0x1",
      "l1BlobBaseFeeScalar": "0xa118b",
      "l1Fee": "0x65a55a4e",
      "l1GasPrice": "0x39b36e2d",
      "l1GasUsed": "0x640"
    },
    {
      "status": "0x1",
      "cumulativeGasUsed": "0x6a741",
      "logs": [],
      "logsBloom": "0x00000000000000000000000000000000000000000000000000000000000000000000000000000000000000000000000000000000000000000000000000000000000000000000000000000000000000000000000000000000000000000000000000000000000000000000000000000000000000000000000000000000000000000000000000000000000000000000000000000000000000000000000000000000000000000000000000000000000000000000000000000000000000000000000000000000000000000000000000000000000000000000000000000000000000000000000000000000000000000000000000000000000000000000000000000000",
      "type": "0x2",
      "transactionHash": "0x8313a457c7601c57c5fdc224959cf1462060c2a6d3085cd053a707468c6c80b5",
      "transactionIndex": "0x5",
      "blockHash": "0x075257e996eb79dadee2901b25ab6b6e248c53c712e684fb7d4f6f66af2e6c85",
      "blockNumber": "0x11a32d6",
      "gasUsed": "0xbda9",
      "effectiveGasPrice": "0x839",
      "from": "0xe62ab4d111f968660c6b2188046f9b9ba53c4bae",
      "to": "0x1b902cf02724ac790da51e8004b82c7d0de6f957",
      "contractAddress": null,
      "l1BaseFeeScalar": "0x44d",
      "l1BlobBaseFee": "0x1",
      "l1BlobBaseFeeScalar": "0xa118b",
      "l1Fee": "0x65a55a4e",
      "l1GasPrice": "0x39b36e2d",
      "l1GasUsed": "0x640"
    },
    {
      "status": "0x1",
      "cumulativeGasUsed": "0xa2171",
      "logs": [],
      "logsBloom": "0x00000000000000000000000000000000000000000000000000000000000000000000000000000000000000000000000000000000000000000000000000000000000000000000000000000000000000000000000000000000000000000000000000000000000000000000000000000000000000000000000000000000000000000000000000000000000000000000000000000000000000000000000000000000000000000000000000000000000000000000000000000000000000000000000000000000000000000000000000000000000000000000000000000000000000000000000000000000000000000000000000000000000000000000000000000000",
      "type": "0x2",
      "transactionHash": "0xa941545a8832be6dc6feb788da1b9abec8660dbd4bcfa0c70419a34f20634399",
      "transactionIndex": "0x6",
      "blockHash": "0xde3f3a3d1fa4a460857f0a275d36021bbe477fb9fcaa0cfb4e39d20bb15a3aac",
      "blockNumber": "0x11a32d9",
      "gasUsed": "0xbdbb",
      "effectiveGasPrice": "0x839",
      "from": "0xe62ab4d111f968660c6b2188046f9b9ba53c4bae",
      "to": "0x1b902cf02724ac790da51e8004b82c7d0de6f957",
      "contractAddress": null,
      "l1BaseFeeScalar": "0x44d",
      "l1BlobBaseFee": "0x1",
      "l1BlobBaseFeeScalar": "0xa118b",
      "l1Fee": "0x623d7d01",
      "l1GasPrice": "0x37c480b6",
      "l1GasUsed": "0x640"
    },
    {
      "status": "0x1",
      "cumulativeGasUsed": "0x13bdf0",
      "logs": [],
      "logsBloom": "0x00000000000000000000000000000000000000000000000000000000000000000000000000000000000000000000000000000000000000000000000000000000000000000000000000000000000000000000000000000000000000000000000000000000000000000000000000000000000000000000000000000000000000000000000000000000000000000000000000000000000000000000000000000000000000000000000000000000000000000000000000000000000000000000000000000000000000000000000000000000000000000000000000000000000000000000000000000000000000000000000000000000000000000000000000000000",
      "type": "0x2",
      "transactionHash": "0x50ec369c3e9f0b46a9100259c254ad9d12f4a5efacfc47a2763e38c7da29a74d",
      "transactionIndex": "0x9",
      "blockHash": "0x2f0dd9cba2812aa938bd5b70fd1d0b97499596046864b5643cbfbdead68dea6b",
      "blockNumber": "0x11a32dd",
      "gasUsed": "0x224ec",
      "effectiveGasPrice": "0x839",
      "from": "0xe62ab4d111f968660c6b2188046f9b9ba53c4bae",
      "to": "0x1b902cf02724ac790da51e8004b82c7d0de6f957",
      "contractAddress": null,
      "l1BaseFeeScalar": "0x44d",
      "l1BlobBaseFee": "0x1",
      "l1BlobBaseFeeScalar": "0xa118b",
      "l1Fee": "0x8fe2cbaf",
      "l1GasPrice": "0x37c480b6",
      "l1GasUsed": "0x927"
    },
    {
      "status": "0x1",
      "cumulativeGasUsed": "0xd0e2b",
      "logs": [],
      "logsBloom": "0x00000000000000000000000000000000000000000000000000000000000000000000000000000000000000000000000000000000000000000000000000000000000000000000000000000000000000000000000000000000000000000000000000000000000000000000000000000000000000000000000000000000000000000000000000000000000000000000000000000000000000000000000000000000000000000000000000000000000000000000000000000000000000000000000000000000000000000000000000000000000000000000000000000000000000000000000000000000000000000000000000000000000000000000000000000000",
      "type": "0x2",
      "transactionHash": "0x11f63df07eff7505c454bf1886fb314435208449767a69d7253d673928e32932",
      "transactionIndex": "0x8",
      "blockHash": "0x56e5c771edd1ae9d53db9a009234399b167a178cd862ec2a85482872355521bb",
      "blockNumber": "0x11a32e1",
      "gasUsed": "0x1e86c",
      "effectiveGasPrice": "0x839",
      "from": "0xe62ab4d111f968660c6b2188046f9b9ba53c4bae",
      "to": "0x1b902cf02724ac790da51e8004b82c7d0de6f957",
      "contractAddress": null,
      "l1BaseFeeScalar": "0x44d",
      "l1BlobBaseFee": "0x1",
      "l1BlobBaseFeeScalar": "0xa118b",
      "l1Fee": "0x99a29bdb",
      "l1GasPrice": "0x3be365c9",
      "l1GasUsed": "0x91a"
    },
    {
      "status": "0x1",
      "cumulativeGasUsed": "0x4261e",
      "logs": [],
      "logsBloom": "0x00000000000000000000000000000000000000000000000000000000000000000000000000000000000000000000000000000000000000000000000000000000000000000000000000000000000000000000000000000000000000000000000000000000000000000000000000000000000000000000000000000000000000000000000000000000000000000000000000000000000000000000000000000000000000000000000000000000000000000000000000000000000000000000000000000000000000000000000000000000000000000000000000000000000000000000000000000000000000000000000000000000000000000000000000000000",
      "type": "0x2",
      "transactionHash": "0xb257cbe130127afc2d77694564581fd711fbe155f2379f9683b74df64feb8c93",
      "transactionIndex": "0x3",
      "blockHash": "0xa3a7d0a3b427d199879cb0ee3ff0db4ef8bc17496008b16bac2a7231aea32cce",
      "blockNumber": "0x11a32e4",
      "gasUsed": "0x1e86c",
      "effectiveGasPrice": "0x839",
      "from": "0xe62ab4d111f968660c6b2188046f9b9ba53c4bae",
      "to": "0x1b902cf02724ac790da51e8004b82c7d0de6f957",
      "contractAddress": null,
      "l1BaseFeeScalar": "0x44d",
      "l1BlobBaseFee": "0x1",
      "l1BlobBaseFeeScalar": "0xa118b",
      "l1Fee": "0x96d5d688",
      "l1GasPrice": "0x3acbfe90",
      "l1GasUsed": "0x91a"
    },
    {
      "status": "0x1",
      "cumulativeGasUsed": "0x9e64d",
      "logs": [],
      "logsBloom": "0x00000000000000000000000000000000000000000000000000000000000000000000000000000000000000000000000000000000000000000000000000000000000000000000000000000000000000000000000000000000000000000000000000000000000000000000000000000000000000000000000000000000000000000000000000000000000000000000000000000000000000000000000000000000000000000000000000000000000000000000000000000000000000000000000000000000000000000000000000000000000000000000000000000000000000000000000000000000000000000000000000000000000000000000000000000000",
      "type": "0x2",
      "transactionHash": "0x60e741fdd9ccc2ef20c76b426dd59b8494d5f9d210b8143fe75f1ff5427ef7c9",
      "transactionIndex": "0x7",
      "blockHash": "0xbbb680b3027c766a63582b1059595e7d5acc795704eac8d64c921c877a9d3c7b",
      "blockNumber": "0x11a32e8",
      "gasUsed": "0x1e3e0",
      "effectiveGasPrice": "0x839",
      "from": "0xe62ab4d111f968660c6b2188046f9b9ba53c4bae",
      "to": "0x1b902cf02724ac790da51e8004b82c7d0de6f957",
      "contractAddress": null,
      "l1BaseFeeScalar": "0x44d",
      "l1BlobBaseFee": "0x1",
      "l1BlobBaseFeeScalar": "0xa118b",
      "l1Fee": "0x943c6dde",
      "l1GasPrice": "0x3acbfe90",
      "l1GasUsed": "0x8f1"
    },
    {
      "status": "0x1",
      "cumulativeGasUsed": "0x66453",
      "logs": [],
      "logsBloom": "0x00000000000000000000000000000000000000000000000000000000000000000000000000000000000000000000000000000000000000000000000000000000000000000000000000000000000000000000000000000000000000000000000000000000000000000000000000000000000000000000000000000000000000000000000000000000000000000000000000000000000000000000000000000000000000000000000000000000000000000000000000000000000000000000000000000000000000000000000000000000000000000000000000000000000000000000000000000000000000000000000000000000000000000000000000000000",
      "type": "0x2",
      "transactionHash": "0xe19e04600d7750fc9936d10d23fd8020705bbb09663a7038c21d6c7d9d2951d4",
      "transactionIndex": "0x4",
      "blockHash": "0x1749b15f61f7f24620a7e2861918478e574a85f880a6ec2d2938dc1254eb64b1",
      "blockNumber": "0x11a32ec",
      "gasUsed": "0x1ecf8",
      "effectiveGasPrice": "0x839",
      "from": "0xe62ab4d111f968660c6b2188046f9b9ba53c4bae",
      "to": "0x1b902cf02724ac790da51e8004b82c7d0de6f957",
      "contractAddress": null,
      "l1BaseFeeScalar": "0x44d",
      "l1BlobBaseFee": "0x1",
      "l1BlobBaseFeeScalar": "0xa118b",
      "l1Fee": "0x95281bd8",
      "l1GasPrice": "0x397b6d7b",
      "l1GasUsed": "0x934"
    },
    {
      "status": "0x1",
      "cumulativeGasUsed": "0x3ee766",
      "logs": [],
      "logsBloom": "0x00000000000000000000000000000000000000000000000000000000000000000000000000000000000000000000000000000000000000000000000000000000000000000000000000000000000000000000000000000000000000000000000000000000000000000000000000000000000000000000000000000000000000000000000000000000000000000000000000000000000000000000000000000000000000000000000000000000000000000000000000000000000000000000000000000000000000000000000000000000000000000000000000000000000000000000000000000000000000000000000000000000000000000000000000000000",
      "type": "0x2",
      "transactionHash": "0x78b38156a7f188559536d414d61dcda08f7136903656ea24cf01ab77b294ef75",
      "transactionIndex": "0x9",
      "blockHash": "0xc1451e49f797d2dd97a98f762b106d8b41141edb477d05d300ed286b0656c647",
      "blockNumber": "0x11a32ef",
      "gasUsed": "0x7b4a9",
      "effectiveGasPrice": "0x839",
      "from": "0xe62ab4d111f968660c6b2188046f9b9ba53c4bae",
      "to": "0x497d31415cc6d20113d2f96c90c706b98701c1c9",
      "contractAddress": null,
      "l1BaseFeeScalar": "0x44d",
      "l1BlobBaseFee": "0x1",
      "l1BlobBaseFeeScalar": "0xa118b",
      "l1Fee": "0x1353f818c",
      "l1GasPrice": "0x397b6d7b",
      "l1GasUsed": "0x1316"
    },
    {
      "status": "0x1",
      "cumulativeGasUsed": "0x10913c",
      "logs": [],
      "logsBloom": "0x00000000000000000000000000000000000000000000000000000000000000000000000000000000000000000000000000000000000000000000000000000000000000000000000000000000000000000000000000000000000000000000000000000000000000000000000000000000000000000000000000000000000000000000000000000000000000000000000000000000000000000000000000000000000000000000000000000000000000000000000000000000000000000000000000000000000000000000000000000000000000000000000000000000000000000000000000000000000000000000000000000000000000000000000000000000",
      "type": "0x2",
      "transactionHash": "0xf882e6e79129ae3c81a097717eadc29511e6b2669e0def94bd9802c84fdc2a25",
      "transactionIndex": "0x3",
      "blockHash": "0xbe6a16eb80e14c022ca73740d0211d03751b8617b09e8ff5c15eceeb995bf7c2",
      "blockNumber": "0x11a32f3",
      "gasUsed": "0xbd87a",
      "effectiveGasPrice": "0x839",
      "from": "0xe62ab4d111f968660c6b2188046f9b9ba53c4bae",
      "to": "0x497d31415cc6d20113d2f96c90c706b98701c1c9",
      "contractAddress": null,
      "l1BaseFeeScalar": "0x44d",
      "l1BlobBaseFee": "0x1",
      "l1BlobBaseFeeScalar": "0xa118b",
      "l1Fee": "0x16e655679",
      "l1GasPrice": "0x371edaf9",
      "l1GasUsed": "0x1795"
    },
    {
      "status": "0x1",
      "cumulativeGasUsed": "0x10104a",
      "logs": [],
      "logsBloom": "0x00000000000000000000000000000000000000000000000000000000000000000000000000000000000000000000000000000000000000000000000000000000000000000000000000000000000000000000000000000000000000000000000000000000000000000000000000000000000000000000000000000000000000000000000000000000000000000000000000000000000000000000000000000000000000000000000000000000000000000000000000000000000000000000000000000000000000000000000000000000000000000000000000000000000000000000000000000000000000000000000000000000000000000000000000000000",
      "type": "0x2",
      "transactionHash": "0xf2dc07f58ad67115ccd7644f3db3b2a9122a3df473bb30f2296635b34cbe5e52",
      "transactionIndex": "0x4",
      "blockHash": "0x33fbb1c185986a0f8c0860da2c0020af111e0108a68e62b438ab84bbe227be8c",
      "blockNumber": "0x11a32f7",
      "gasUsed": "0x9bfbb",
      "effectiveGasPrice": "0x839",
      "from": "0xe62ab4d111f968660c6b2188046f9b9ba53c4bae",
      "to": "0x497d31415cc6d20113d2f96c90c706b98701c1c9",
      "contractAddress": null,
      "l1BaseFeeScalar": "0x44d",
      "l1BlobBaseFee": "0x1",
      "l1BlobBaseFeeScalar": "0xa118b",
      "l1Fee": "0x18a0d4bd8",
      "l1GasPrice": "0x39beb5f0",
      "l1GasUsed": "0x1836"
    }
  ],
  "libraries": [],
  "pending": [],
  "returns": {},
  "timestamp": 1732756690,
  "chain": 84532,
  "commit": "3a8898ab"
}