{
  "transactions": [
    {
      "hash": "0x692898e4f5dc61eaf19f9e8884e86f11945a7613704a0ec4f7f12a720dac2723",
      "transactionType": "CALL",
      "contractName": "FeeManager",
      "contractAddress": "0xecd4b2ab820215acc3cd579b8e65530d44a83643",
      "function": "getFeeTokenList()",
      "arguments": [],
      "transaction": {
        "from": "0xe62ab4d111f968660c6b2188046f9b9ba53c4bae",
        "to": "0xecd4b2ab820215acc3cd579b8e65530d44a83643",
        "gas": "0x8a7e",
        "value": "0x0",
        "input": "0xe28ab277",
        "nonce": "0xf4",
        "chainId": "0x14a34"
      },
      "additionalContracts": [],
      "isFixedGasLimit": false
    },
    {
      "hash": "0xa506e2e08a298a74b19dfd1cce8cdece9f4ad74f3b24940b269a4c4910a23c61",
      "transactionType": "CALL",
      "contractName": "FeeManager",
      "contractAddress": "0xecd4b2ab820215acc3cd579b8e65530d44a83643",
      "function": "addFeeToken(string)",
      "arguments": [
        "0x6a4dbc971533ba36bdc23ad70f5a7a12e064f4ae"
      ],
      "transaction": {
        "from": "0xe62ab4d111f968660c6b2188046f9b9ba53c4bae",
        "to": "0xecd4b2ab820215acc3cd579b8e65530d44a83643",
        "gas": "0x2696b",
        "value": "0x0",
        "input": "0x12a6385f0000000000000000000000000000000000000000000000000000000000000020000000000000000000000000000000000000000000000000000000000000002a30783661346462633937313533336261333662646332336164373066356137613132653036346634616500000000000000000000000000000000000000000000",
        "nonce": "0xf5",
        "chainId": "0x14a34"
      },
      "additionalContracts": [],
      "isFixedGasLimit": false
    },
    {
      "hash": "0x0739acf9db39cadab3afd4596ab0a79ea7eeafaa0801dc58fa5f59eb64a2dbf5",
      "transactionType": "CALL",
      "contractName": "FeeManager",
      "contractAddress": "0xecd4b2ab820215acc3cd579b8e65530d44a83643",
      "function": "setFeeMultiplier(uint8,uint256)",
      "arguments": [
        "0",
        "2"
      ],
      "transaction": {
        "from": "0xe62ab4d111f968660c6b2188046f9b9ba53c4bae",
        "to": "0xecd4b2ab820215acc3cd579b8e65530d44a83643",
        "gas": "0x112e8",
        "value": "0x0",
        "input": "0x0ee24eb500000000000000000000000000000000000000000000000000000000000000000000000000000000000000000000000000000000000000000000000000000002",
        "nonce": "0xf6",
        "chainId": "0x14a34"
      },
      "additionalContracts": [],
      "isFixedGasLimit": false
    },
    {
      "hash": "0xd778b5db7d4cd1a020c29115fced7265928257c88b27637df20e1e3da965f9f9",
      "transactionType": "CALL",
      "contractName": "FeeManager",
      "contractAddress": "0xecd4b2ab820215acc3cd579b8e65530d44a83643",
      "function": "setFeeMultiplier(uint8,uint256)",
      "arguments": [
        "1",
        "10"
      ],
      "transaction": {
        "from": "0xe62ab4d111f968660c6b2188046f9b9ba53c4bae",
        "to": "0xecd4b2ab820215acc3cd579b8e65530d44a83643",
        "gas": "0x103d2",
        "value": "0x0",
        "input": "0x0ee24eb50000000000000000000000000000000000000000000000000000000000000001000000000000000000000000000000000000000000000000000000000000000a",
        "nonce": "0xf7",
        "chainId": "0x14a34"
      },
      "additionalContracts": [],
      "isFixedGasLimit": false
    },
    {
      "hash": "0x2ab679a3f69ecaf9e90778aaa84d9a4ed8f23004351e7b5f7b1c02a33a3887f5",
      "transactionType": "CALL",
      "contractName": "FeeManager",
      "contractAddress": "0xecd4b2ab820215acc3cd579b8e65530d44a83643",
      "function": "setFeeMultiplier(uint8,uint256)",
      "arguments": [
        "2",
        "1"
      ],
      "transaction": {
        "from": "0xe62ab4d111f968660c6b2188046f9b9ba53c4bae",
        "to": "0xecd4b2ab820215acc3cd579b8e65530d44a83643",
        "gas": "0x1133d",
        "value": "0x0",
        "input": "0x0ee24eb500000000000000000000000000000000000000000000000000000000000000020000000000000000000000000000000000000000000000000000000000000001",
        "nonce": "0xf8",
        "chainId": "0x14a34"
      },
      "additionalContracts": [],
      "isFixedGasLimit": false
    },
    {
      "hash": "0x7cd72d1e5342bfbdd3a513afee0cd92fc575b554078161101980379bf58ac12f",
      "transactionType": "CALL",
      "contractName": "FeeManager",
      "contractAddress": "0xecd4b2ab820215acc3cd579b8e65530d44a83643",
      "function": "setFeeMultiplier(uint8,uint256)",
      "arguments": [
        "3",
        "4"
      ],
      "transaction": {
        "from": "0xe62ab4d111f968660c6b2188046f9b9ba53c4bae",
        "to": "0xecd4b2ab820215acc3cd579b8e65530d44a83643",
        "gas": "0x1135f",
        "value": "0x0",
        "input": "0x0ee24eb500000000000000000000000000000000000000000000000000000000000000030000000000000000000000000000000000000000000000000000000000000004",
        "nonce": "0xf9",
        "chainId": "0x14a34"
      },
      "additionalContracts": [],
      "isFixedGasLimit": false
    },
    {
      "hash": "0xdd23d0406ae180b8bc7970238d49b33c8298e4ddd94f7b5e7c84a74f95d5299b",
      "transactionType": "CALL",
      "contractName": "FeeManager",
      "contractAddress": "0xecd4b2ab820215acc3cd579b8e65530d44a83643",
      "function": "setFeeMultiplier(uint8,uint256)",
      "arguments": [
        "4",
        "4"
      ],
      "transaction": {
        "from": "0xe62ab4d111f968660c6b2188046f9b9ba53c4bae",
        "to": "0xecd4b2ab820215acc3cd579b8e65530d44a83643",
        "gas": "0x1042a",
        "value": "0x0",
        "input": "0x0ee24eb500000000000000000000000000000000000000000000000000000000000000040000000000000000000000000000000000000000000000000000000000000004",
        "nonce": "0xfa",
        "chainId": "0x14a34"
      },
      "additionalContracts": [],
      "isFixedGasLimit": false
    },
    {
      "hash": "0xda563b901f271383e9a1b5e4b3d2da9c8fc98b30f20636f3d508e1ba01eca060",
      "transactionType": "CALL",
      "contractName": "FeeManager",
      "contractAddress": "0xecd4b2ab820215acc3cd579b8e65530d44a83643",
      "function": "addFeeToken(string,string[],uint256[])",
      "arguments": [
        "421614",
        "[0x6a4dbc971533ba36bdc23ad70f5a7a12e064f4ae]",
        "[1000]"
      ],
      "transaction": {
        "from": "0xe62ab4d111f968660c6b2188046f9b9ba53c4bae",
        "to": "0xecd4b2ab820215acc3cd579b8e65530d44a83643",
        "gas": "0x2f642",
        "value": "0x0",
        "input": "0x437bf84f000000000000000000000000000000000000000000000000000000000000006000000000000000000000000000000000000000000000000000000000000000a000000000000000000000000000000000000000000000000000000000000001400000000000000000000000000000000000000000000000000000000000000006343231363134000000000000000000000000000000000000000000000000000000000000000000000000000000000000000000000000000000000000000000010000000000000000000000000000000000000000000000000000000000000020000000000000000000000000000000000000000000000000000000000000002a30783661346462633937313533336261333662646332336164373066356137613132653036346634616500000000000000000000000000000000000000000000000000000000000000000000000000000000000000000000000000000000000100000000000000000000000000000000000000000000000000000000000003e8",
        "nonce": "0xfb",
        "chainId": "0x14a34"
      },
      "additionalContracts": [],
      "isFixedGasLimit": false
    },
    {
      "hash": "0x4454b7d30e88eb4376476c64e8158d6980299e0b54a3d5f0a5daddf564fa6605",
      "transactionType": "CALL",
      "contractName": "FeeManager",
      "contractAddress": "0xecd4b2ab820215acc3cd579b8e65530d44a83643",
      "function": "addFeeToken(string,string[],uint256[])",
      "arguments": [
        "80002",
        "[0x6a4dbc971533ba36bdc23ad70f5a7a12e064f4ae]",
        "[1000]"
      ],
      "transaction": {
        "from": "0xe62ab4d111f968660c6b2188046f9b9ba53c4bae",
        "to": "0xecd4b2ab820215acc3cd579b8e65530d44a83643",
        "gas": "0x2a2b1",
        "value": "0x0",
        "input": "0x437bf84f000000000000000000000000000000000000000000000000000000000000006000000000000000000000000000000000000000000000000000000000000000a000000000000000000000000000000000000000000000000000000000000001400000000000000000000000000000000000000000000000000000000000000005383030303200000000000000000000000000000000000000000000000000000000000000000000000000000000000000000000000000000000000000000000010000000000000000000000000000000000000000000000000000000000000020000000000000000000000000000000000000000000000000000000000000002a30783661346462633937313533336261333662646332336164373066356137613132653036346634616500000000000000000000000000000000000000000000000000000000000000000000000000000000000000000000000000000000000100000000000000000000000000000000000000000000000000000000000003e8",
        "nonce": "0xfc",
        "chainId": "0x14a34"
      },
      "additionalContracts": [],
      "isFixedGasLimit": false
    },
    {
      "hash": "0x9d68da89dd9ef47001ca5f7a090fc2a53ec086fd333bf63145f9f8bf950bee98",
      "transactionType": "CALL",
      "contractName": "FeeManager",
      "contractAddress": "0xecd4b2ab820215acc3cd579b8e65530d44a83643",
      "function": "addFeeToken(string,string[],uint256[])",
      "arguments": [
        "97",
        "[0x6a4dbc971533ba36bdc23ad70f5a7a12e064f4ae]",
        "[1000]"
      ],
      "transaction": {
        "from": "0xe62ab4d111f968660c6b2188046f9b9ba53c4bae",
        "to": "0xecd4b2ab820215acc3cd579b8e65530d44a83643",
        "gas": "0x29c69",
        "value": "0x0",
        "input": "0x437bf84f000000000000000000000000000000000000000000000000000000000000006000000000000000000000000000000000000000000000000000000000000000a000000000000000000000000000000000000000000000000000000000000001400000000000000000000000000000000000000000000000000000000000000002393700000000000000000000000000000000000000000000000000000000000000000000000000000000000000000000000000000000000000000000000000010000000000000000000000000000000000000000000000000000000000000020000000000000000000000000000000000000000000000000000000000000002a30783661346462633937313533336261333662646332336164373066356137613132653036346634616500000000000000000000000000000000000000000000000000000000000000000000000000000000000000000000000000000000000100000000000000000000000000000000000000000000000000000000000003e8",
        "nonce": "0xfd",
        "chainId": "0x14a34"
      },
      "additionalContracts": [],
      "isFixedGasLimit": false
    },
    {
      "hash": "0x8927b4d8abd2fd27d5acccaa3a1af9ddb759570e9189cdba12b04e4a6e769319",
      "transactionType": "CALL",
      "contractName": "FeeManager",
      "contractAddress": "0xecd4b2ab820215acc3cd579b8e65530d44a83643",
      "function": "addFeeToken(string,string[],uint256[])",
      "arguments": [
        "11155111",
        "[0x6a4dbc971533ba36bdc23ad70f5a7a12e064f4ae]",
        "[1000]"
      ],
      "transaction": {
        "from": "0xe62ab4d111f968660c6b2188046f9b9ba53c4bae",
        "to": "0xecd4b2ab820215acc3cd579b8e65530d44a83643",
        "gas": "0x2a8fa",
        "value": "0x0",
        "input": "0x437bf84f000000000000000000000000000000000000000000000000000000000000006000000000000000000000000000000000000000000000000000000000000000a000000000000000000000000000000000000000000000000000000000000001400000000000000000000000000000000000000000000000000000000000000008313131353531313100000000000000000000000000000000000000000000000000000000000000000000000000000000000000000000000000000000000000010000000000000000000000000000000000000000000000000000000000000020000000000000000000000000000000000000000000000000000000000000002a30783661346462633937313533336261333662646332336164373066356137613132653036346634616500000000000000000000000000000000000000000000000000000000000000000000000000000000000000000000000000000000000100000000000000000000000000000000000000000000000000000000000003e8",
        "nonce": "0xfe",
        "chainId": "0x14a34"
      },
      "additionalContracts": [],
      "isFixedGasLimit": false
    },
    {
      "hash": "0x110200145e12db07606d9fd644f55b7db1c53e1f419d507d3ab263c29b57501e",
      "transactionType": "CALL",
      "contractName": "CTMRWAGateway",
      "contractAddress": "0x6640ec42f86abcf799c21a070f7baf6db38a2ab9",
      "function": "addChainContract(string[],string[])",
      "arguments": [
        "[421614, 80002, 97, 11155111]",
        "[0x358498985e6ac7ca73f5110b415525ae04cb8313, 0x2927d422cbea7f315ee3e0660af2ed9b35302004, 0x969035b34b913c507b87fd805fff608fb1fe13f0, 0x9266e8bf4943f2b366f2be89688a8622084db8b9]"
      ],
      "transaction": {
        "from": "0xe62ab4d111f968660c6b2188046f9b9ba53c4bae",
        "to": "0x6640ec42f86abcf799c21a070f7baf6db38a2ab9",
        "gas": "0xa9e82",
        "value": "0x0",
        "input": "0x013fd3bd000000000000000000000000000000000000000000000000000000000000004000000000000000000000000000000000000000000000000000000000000001e00000000000000000000000000000000000000000000000000000000000000004000000000000000000000000000000000000000000000000000000000000008000000000000000000000000000000000000000000000000000000000000000c000000000000000000000000000000000000000000000000000000000000001000000000000000000000000000000000000000000000000000000000000000140000000000000000000000000000000000000000000000000000000000000000634323136313400000000000000000000000000000000000000000000000000000000000000000000000000000000000000000000000000000000000000000005383030303200000000000000000000000000000000000000000000000000000000000000000000000000000000000000000000000000000000000000000000023937000000000000000000000000000000000000000000000000000000000000000000000000000000000000000000000000000000000000000000000000000831313135353131310000000000000000000000000000000000000000000000000000000000000000000000000000000000000000000000000000000000000004000000000000000000000000000000000000000000000000000000000000008000000000000000000000000000000000000000000000000000000000000000e0000000000000000000000000000000000000000000000000000000000000014000000000000000000000000000000000000000000000000000000000000001a0000000000000000000000000000000000000000000000000000000000000002a30783335383439383938356536616337636137336635313130623431353532356165303463623833313300000000000000000000000000000000000000000000000000000000000000000000000000000000000000000000000000000000002a30783239323764343232636265613766333135656533653036363061663265643962333533303230303400000000000000000000000000000000000000000000000000000000000000000000000000000000000000000000000000000000002a30783936393033356233346239313363353037623837666438303566666636303866623166653133663000000000000000000000000000000000000000000000000000000000000000000000000000000000000000000000000000000000002a30783932363665386266343934336632623336366632626538393638386138363232303834646238623900000000000000000000000000000000000000000000",
        "nonce": "0xff",
        "chainId": "0x14a34"
      },
      "additionalContracts": [],
      "isFixedGasLimit": false
    },
    {
      "hash": "0x7da25f89505c99f5b132595d39d375d5cd8afbdd915f3e75f07e5edb0765d525",
      "transactionType": "CALL",
      "contractName": "CTMRWAGateway",
      "contractAddress": "0x6640ec42f86abcf799c21a070f7baf6db38a2ab9",
      "function": "attachRWAX(uint256,uint256,string[],string[])",
      "arguments": [
        "1",
        "1",
        "[84532, 421614, 80002, 97, 11155111]",
        "[0x8230abab39f9c618282ddd0af1dfa278de7df98f, 0x9dc772b55e95a630031ebe431706d105af01cf03, 0x1b87108b35abb5751bfc64647e9d5cd1cb77e236, 0x66b719c489193594c617801e67119959cd15b63a, 0xb5638019cbfc1b523d5167a269e755b05bf24fd9]"
      ],
      "transaction": {
        "from": "0xe62ab4d111f968660c6b2188046f9b9ba53c4bae",
        "to": "0x6640ec42f86abcf799c21a070f7baf6db38a2ab9",
        "gas": "0xd6d44",
        "value": "0x0",
        "input": "0x33a5f5b40000000000000000000000000000000000000000000000000000000000000001000000000000000000000000000000000000000000000000000000000000000100000000000000000000000000000000000000000000000000000000000000800000000000000000000000000000000000000000000000000000000000000280000000000000000000000000000000000000000000000000000000000000000500000000000000000000000000000000000000000000000000000000000000a000000000000000000000000000000000000000000000000000000000000000e00000000000000000000000000000000000000000000000000000000000000120000000000000000000000000000000000000000000000000000000000000016000000000000000000000000000000000000000000000000000000000000001a00000000000000000000000000000000000000000000000000000000000000005383435333200000000000000000000000000000000000000000000000000000000000000000000000000000000000000000000000000000000000000000000063432313631340000000000000000000000000000000000000000000000000000000000000000000000000000000000000000000000000000000000000000000538303030320000000000000000000000000000000000000000000000000000000000000000000000000000000000000000000000000000000000000000000002393700000000000000000000000000000000000000000000000000000000000000000000000000000000000000000000000000000000000000000000000000083131313535313131000000000000000000000000000000000000000000000000000000000000000000000000000000000000000000000000000000000000000500000000000000000000000000000000000000000000000000000000000000a00000000000000000000000000000000000000000000000000000000000000100000000000000000000000000000000000000000000000000000000000000016000000000000000000000000000000000000000000000000000000000000001c00000000000000000000000000000000000000000000000000000000000000220000000000000000000000000000000000000000000000000000000000000002a30783832333061626162333966396336313832383264646430616631646661323738646537646639386600000000000000000000000000000000000000000000000000000000000000000000000000000000000000000000000000000000002a30783964633737326235356539356136333030333165626534333137303664313035616630316366303300000000000000000000000000000000000000000000000000000000000000000000000000000000000000000000000000000000002a30783162383731303862333561626235373531626663363436343765396435636431636237376532333600000000000000000000000000000000000000000000000000000000000000000000000000000000000000000000000000000000002a30783636623731396334383931393335393463363137383031653637313139393539636431356236336100000000000000000000000000000000000000000000000000000000000000000000000000000000000000000000000000000000002a30786235363338303139636266633162353233643531363761323639653735356230356266323466643900000000000000000000000000000000000000000000",
        "nonce": "0x100",
        "chainId": "0x14a34"
      },
      "additionalContracts": [],
      "isFixedGasLimit": false
    },
    {
      "hash": "0x719294340339c1c3b609900f36fd6a5fd8e4abab5ae2865e580bfe84447c4439",
      "transactionType": "CALL",
      "contractName": "CTMRWAGateway",
      "contractAddress": "0x6640ec42f86abcf799c21a070f7baf6db38a2ab9",
      "function": "attachStorageManager(uint256,uint256,string[],string[])",
      "arguments": [
        "1",
        "1",
        "[84532, 421614, 80002, 97, 11155111]",
        "[0xaf685f104e7428311f25526180cbd416fa8668cd, 0xc047401f28f43ec8af8c5aaac26bf7d007e2474a, 0x3418a45e442210ec9579b074ae9acb13b2a67554, 0xe569c146b0d4c1c941607b5c6a648b5877ae29ef, 0xa240b0714712e2927ec055ceaa8e031ac671a55f]"
      ],
      "transaction": {
        "from": "0xe62ab4d111f968660c6b2188046f9b9ba53c4bae",
        "to": "0x6640ec42f86abcf799c21a070f7baf6db38a2ab9",
        "gas": "0xd6d24",
        "value": "0x0",
        "input": "0x2f68b4890000000000000000000000000000000000000000000000000000000000000001000000000000000000000000000000000000000000000000000000000000000100000000000000000000000000000000000000000000000000000000000000800000000000000000000000000000000000000000000000000000000000000280000000000000000000000000000000000000000000000000000000000000000500000000000000000000000000000000000000000000000000000000000000a000000000000000000000000000000000000000000000000000000000000000e00000000000000000000000000000000000000000000000000000000000000120000000000000000000000000000000000000000000000000000000000000016000000000000000000000000000000000000000000000000000000000000001a00000000000000000000000000000000000000000000000000000000000000005383435333200000000000000000000000000000000000000000000000000000000000000000000000000000000000000000000000000000000000000000000063432313631340000000000000000000000000000000000000000000000000000000000000000000000000000000000000000000000000000000000000000000538303030320000000000000000000000000000000000000000000000000000000000000000000000000000000000000000000000000000000000000000000002393700000000000000000000000000000000000000000000000000000000000000000000000000000000000000000000000000000000000000000000000000083131313535313131000000000000000000000000000000000000000000000000000000000000000000000000000000000000000000000000000000000000000500000000000000000000000000000000000000000000000000000000000000a00000000000000000000000000000000000000000000000000000000000000100000000000000000000000000000000000000000000000000000000000000016000000000000000000000000000000000000000000000000000000000000001c00000000000000000000000000000000000000000000000000000000000000220000000000000000000000000000000000000000000000000000000000000002a30786166363835663130346537343238333131663235353236313830636264343136666138363638636400000000000000000000000000000000000000000000000000000000000000000000000000000000000000000000000000000000002a30786330343734303166323866343365633861663863356161616332366266376430303765323437346100000000000000000000000000000000000000000000000000000000000000000000000000000000000000000000000000000000002a30783334313861343565343432323130656339353739623037346165396163623133623261363735353400000000000000000000000000000000000000000000000000000000000000000000000000000000000000000000000000000000002a30786535363963313436623064346331633934313630376235633661363438623538373761653239656600000000000000000000000000000000000000000000000000000000000000000000000000000000000000000000000000000000002a30786132343062303731343731326532393237656330353563656161386530333161633637316135356600000000000000000000000000000000000000000000",
        "nonce": "0x101",
        "chainId": "0x14a34"
      },
      "additionalContracts": [],
      "isFixedGasLimit": false
    }
  ],
  "receipts": [
    {
      "status": "0x1",
      "cumulativeGasUsed": "0x16b99f",
      "logs": [],
      "logsBloom": "0x00000000000000000000000000000000000000000000000000000000000000000000000000000000000000000000000000000000000000000000000000000000000000000000000000000000000000000000000000000000000000000000000000000000000000000000000000000000000000000000000000000000000000000000000000000000000000000000000000000000000000000000000000000000000000000000000000000000000000000000000000000000000000000000000000000000000000000000000000000000000000000000000000000000000000000000000000000000000000000000000000000000000000000000000000000000",
      "type": "0x2",
      "transactionHash": "0x692898e4f5dc61eaf19f9e8884e86f11945a7613704a0ec4f7f12a720dac2723",
      "transactionIndex": "0xc",
      "blockHash": "0x87455eb2d2f8192e05258169c3d5fc52169d6d0310d63a427e7c14819fbc1108",
      "blockNumber": "0x10ae060",
      "gasUsed": "0x5eb3",
      "effectiveGasPrice": "0xf4388",
      "from": "0xe62ab4d111f968660c6b2188046f9b9ba53c4bae",
      "to": "0xecd4b2ab820215acc3cd579b8e65530d44a83643",
      "contractAddress": null,
      "l1BaseFeeScalar": "0x44d",
      "l1BlobBaseFee": "0x317",
      "l1BlobBaseFeeScalar": "0xa118b",
      "l1Fee": "0x5fc320cd9",
      "l1GasPrice": "0x365c5edc6",
      "l1GasUsed": "0x640"
    },
    {
      "status": "0x1",
      "cumulativeGasUsed": "0x23cc35",
      "logs": [
        {
          "address": "0xecd4b2ab820215acc3cd579b8e65530d44a83643",
          "topics": [
            "0x1394cfab38f3fc78ed77ea6f9318782a446d96e7dc8e9a6b0149f6be25c08bcf",
            "0x0000000000000000000000006a4dbc971533ba36bdc23ad70f5a7a12e064f4ae"
          ],
          "data": "0x",
          "blockHash": "0x0af6c7ff3c5651aa01f9d670817da087396740b08d42fc7fffc96bd94c45c3f6",
          "blockNumber": "0x10ae064",
          "transactionHash": "0xa506e2e08a298a74b19dfd1cce8cdece9f4ad74f3b24940b269a4c4910a23c61",
          "transactionIndex": "0xb",
          "logIndex": "0x18",
          "removed": false
        }
      ],
      "logsBloom": "0x00000000000000000000000000000000000200000000000000000000000000000000000000000000000000000000000008000000000000001000000000000000000000000000000000000000000000000000001000000000000000000000000000000000000000100000000000000000000000000000000000000000000080000000000100000000000000000000000000000000000000000000000000000000000000000000000000000000000000000000000100000000000000000000000000000000000000000000000000000000000000002000000000000000000000000000000000000000000000000000000000000000000000000000000000000000",
      "type": "0x2",
      "transactionHash": "0xa506e2e08a298a74b19dfd1cce8cdece9f4ad74f3b24940b269a4c4910a23c61",
      "transactionIndex": "0xb",
      "blockHash": "0x0af6c7ff3c5651aa01f9d670817da087396740b08d42fc7fffc96bd94c45c3f6",
      "blockNumber": "0x10ae064",
      "gasUsed": "0x1bf00",
      "effectiveGasPrice": "0xf4388",
      "from": "0xe62ab4d111f968660c6b2188046f9b9ba53c4bae",
      "to": "0xecd4b2ab820215acc3cd579b8e65530d44a83643",
      "contractAddress": null,
      "l1BaseFeeScalar": "0x44d",
      "l1BlobBaseFee": "0x337",
      "l1BlobBaseFeeScalar": "0xa118b",
      "l1Fee": "0x61df85b96",
      "l1GasPrice": "0x32aa83ebe",
      "l1GasUsed": "0x6da"
    },
    {
      "status": "0x1",
      "cumulativeGasUsed": "0x456009",
      "logs": [],
      "logsBloom": "0x00000000000000000000000000000000000000000000000000000000000000000000000000000000000000000000000000000000000000000000000000000000000000000000000000000000000000000000000000000000000000000000000000000000000000000000000000000000000000000000000000000000000000000000000000000000000000000000000000000000000000000000000000000000000000000000000000000000000000000000000000000000000000000000000000000000000000000000000000000000000000000000000000000000000000000000000000000000000000000000000000000000000000000000000000000000",
      "type": "0x2",
      "transactionHash": "0x0739acf9db39cadab3afd4596ab0a79ea7eeafaa0801dc58fa5f59eb64a2dbf5",
      "transactionIndex": "0x11",
      "blockHash": "0x2d246276ae811d62027441647b882d7de0a9ed96bbd2ecbd95862e94790fe3ba",
      "blockNumber": "0x10ae068",
      "gasUsed": "0xbbf9",
      "effectiveGasPrice": "0xf4388",
      "from": "0xe62ab4d111f968660c6b2188046f9b9ba53c4bae",
      "to": "0xecd4b2ab820215acc3cd579b8e65530d44a83643",
      "contractAddress": null,
      "l1BaseFeeScalar": "0x44d",
      "l1BlobBaseFee": "0x37a",
      "l1BlobBaseFeeScalar": "0xa118b",
      "l1Fee": "0x566f1a760",
      "l1GasPrice": "0x3110c461f",
      "l1GasUsed": "0x640"
    },
    {
      "status": "0x1",
      "cumulativeGasUsed": "0xcf055",
      "logs": [],
      "logsBloom": "0x00000000000000000000000000000000000000000000000000000000000000000000000000000000000000000000000000000000000000000000000000000000000000000000000000000000000000000000000000000000000000000000000000000000000000000000000000000000000000000000000000000000000000000000000000000000000000000000000000000000000000000000000000000000000000000000000000000000000000000000000000000000000000000000000000000000000000000000000000000000000000000000000000000000000000000000000000000000000000000000000000000000000000000000000000000000",
      "type": "0x2",
      "transactionHash": "0xd778b5db7d4cd1a020c29115fced7265928257c88b27637df20e1e3da965f9f9",
      "transactionIndex": "0xa",
      "blockHash": "0xdde80b90e1abcafc286377b6735bab73ef4238422a1665f375ff9bf7a9d86f9b",
      "blockNumber": "0x10ae06c",
      "gasUsed": "0xbc1c",
      "effectiveGasPrice": "0xf4389",
      "from": "0xe62ab4d111f968660c6b2188046f9b9ba53c4bae",
      "to": "0xecd4b2ab820215acc3cd579b8e65530d44a83643",
      "contractAddress": null,
      "l1BaseFeeScalar": "0x44d",
      "l1BlobBaseFee": "0x37a",
      "l1BlobBaseFeeScalar": "0xa118b",
      "l1Fee": "0x566f1a760",
      "l1GasPrice": "0x3110c461f",
      "l1GasUsed": "0x640"
    },
    {
      "status": "0x1",
      "cumulativeGasUsed": "0x205553",
      "logs": [],
      "logsBloom": "0x00000000000000000000000000000000000000000000000000000000000000000000000000000000000000000000000000000000000000000000000000000000000000000000000000000000000000000000000000000000000000000000000000000000000000000000000000000000000000000000000000000000000000000000000000000000000000000000000000000000000000000000000000000000000000000000000000000000000000000000000000000000000000000000000000000000000000000000000000000000000000000000000000000000000000000000000000000000000000000000000000000000000000000000000000000000",
      "type": "0x2",
      "transactionHash": "0x2ab679a3f69ecaf9e90778aaa84d9a4ed8f23004351e7b5f7b1c02a33a3887f5",
      "transactionIndex": "0xb",
      "blockHash": "0x10d8dc5957423d94495243be4100f2bf73f615a634e16232ae23a512f3ce299f",
      "blockNumber": "0x10ae06f",
      "gasUsed": "0xbc33",
      "effectiveGasPrice": "0xf4389",
      "from": "0xe62ab4d111f968660c6b2188046f9b9ba53c4bae",
      "to": "0xecd4b2ab820215acc3cd579b8e65530d44a83643",
      "contractAddress": null,
      "l1BaseFeeScalar": "0x44d",
      "l1BlobBaseFee": "0x39e",
      "l1BlobBaseFeeScalar": "0xa118b",
      "l1Fee": "0x5232fbcb3",
      "l1GasPrice": "0x2ea959204",
      "l1GasUsed": "0x640"
    },
    {
      "status": "0x1",
      "cumulativeGasUsed": "0x1a44dc",
      "logs": [],
      "logsBloom": "0x00000000000000000000000000000000000000000000000000000000000000000000000000000000000000000000000000000000000000000000000000000000000000000000000000000000000000000000000000000000000000000000000000000000000000000000000000000000000000000000000000000000000000000000000000000000000000000000000000000000000000000000000000000000000000000000000000000000000000000000000000000000000000000000000000000000000000000000000000000000000000000000000000000000000000000000000000000000000000000000000000000000000000000000000000000000",
      "type": "0x2",
      "transactionHash": "0x7cd72d1e5342bfbdd3a513afee0cd92fc575b554078161101980379bf58ac12f",
      "transactionIndex": "0x6",
      "blockHash": "0x64607944dd8104f0492adb5e60147b0e26a61d8f6997ca7c755ff842a887a073",
      "blockNumber": "0x10ae073",
      "gasUsed": "0xbc4a",
      "effectiveGasPrice": "0xf438a",
      "from": "0xe62ab4d111f968660c6b2188046f9b9ba53c4bae",
      "to": "0xecd4b2ab820215acc3cd579b8e65530d44a83643",
      "contractAddress": null,
      "l1BaseFeeScalar": "0x44d",
      "l1BlobBaseFee": "0x39e",
      "l1BlobBaseFeeScalar": "0xa118b",
      "l1Fee": "0x5232fbcb3",
      "l1GasPrice": "0x2ea959204",
      "l1GasUsed": "0x640"
    },
    {
      "status": "0x1",
      "cumulativeGasUsed": "0x47d085",
      "logs": [],
      "logsBloom": "0x00000000000000000000000000000000000000000000000000000000000000000000000000000000000000000000000000000000000000000000000000000000000000000000000000000000000000000000000000000000000000000000000000000000000000000000000000000000000000000000000000000000000000000000000000000000000000000000000000000000000000000000000000000000000000000000000000000000000000000000000000000000000000000000000000000000000000000000000000000000000000000000000000000000000000000000000000000000000000000000000000000000000000000000000000000000",
      "type": "0x2",
      "transactionHash": "0xdd23d0406ae180b8bc7970238d49b33c8298e4ddd94f7b5e7c84a74f95d5299b",
      "transactionIndex": "0xd",
      "blockHash": "0xe7b36ae008bd036412dfb8cca18481d92703b34b5fe4233bdee86c2e2f95911e",
      "blockNumber": "0x10ae077",
      "gasUsed": "0xbc5c",
      "effectiveGasPrice": "0xf438a",
      "from": "0xe62ab4d111f968660c6b2188046f9b9ba53c4bae",
      "to": "0xecd4b2ab820215acc3cd579b8e65530d44a83643",
      "contractAddress": null,
      "l1BaseFeeScalar": "0x44d",
      "l1BlobBaseFee": "0x39e",
      "l1BlobBaseFeeScalar": "0xa118b",
      "l1Fee": "0x5c0f89b15",
      "l1GasPrice": "0x344273804",
      "l1GasUsed": "0x640"
    },
    {
      "status": "0x1",
      "cumulativeGasUsed": "0x2dc34d",
      "logs": [],
      "logsBloom": "0x00000000000000000000000000000000000000000000000000000000000000000000000000000000000000000000000000000000000000000000000000000000000000000000000000000000000000000000000000000000000000000000000000000000000000000000000000000000000000000000000000000000000000000000000000000000000000000000000000000000000000000000000000000000000000000000000000000000000000000000000000000000000000000000000000000000000000000000000000000000000000000000000000000000000000000000000000000000000000000000000000000000000000000000000000000000",
      "type": "0x2",
      "transactionHash": "0xda563b901f271383e9a1b5e4b3d2da9c8fc98b30f20636f3d508e1ba01eca060",
      "transactionIndex": "0xb",
      "blockHash": "0x5472675a416963069f8fc371731a2df4ffe70d8744e29e23ae7537a0be4481f9",
      "blockNumber": "0x10ae07a",
      "gasUsed": "0x224f8",
      "effectiveGasPrice": "0xf438a",
      "from": "0xe62ab4d111f968660c6b2188046f9b9ba53c4bae",
      "to": "0xecd4b2ab820215acc3cd579b8e65530d44a83643",
      "contractAddress": null,
      "l1BaseFeeScalar": "0x44d",
      "l1BlobBaseFee": "0x412",
      "l1BlobBaseFeeScalar": "0xa118b",
      "l1Fee": "0x81c3727df",
      "l1GasPrice": "0x31b9d046f",
      "l1GasUsed": "0x942"
    },
    {
      "status": "0x1",
      "cumulativeGasUsed": "0x242c15",
      "logs": [],
      "logsBloom": "0x00000000000000000000000000000000000000000000000000000000000000000000000000000000000000000000000000000000000000000000000000000000000000000000000000000000000000000000000000000000000000000000000000000000000000000000000000000000000000000000000000000000000000000000000000000000000000000000000000000000000000000000000000000000000000000000000000000000000000000000000000000000000000000000000000000000000000000000000000000000000000000000000000000000000000000000000000000000000000000000000000000000000000000000000000000000",
      "type": "0x2",
      "transactionHash": "0x4454b7d30e88eb4376476c64e8158d6980299e0b54a3d5f0a5daddf564fa6605",
      "transactionIndex": "0xb",
      "blockHash": "0xdea41d2dbd4c8ffe080017d3e064d4d5d34fd60e8bbc39e8fd893a2785ead912",
      "blockNumber": "0x10ae07e",
      "gasUsed": "0x1e878",
      "effectiveGasPrice": "0xf438a",
      "from": "0xe62ab4d111f968660c6b2188046f9b9ba53c4bae",
      "to": "0xecd4b2ab820215acc3cd579b8e65530d44a83643",
      "contractAddress": null,
      "l1BaseFeeScalar": "0x44d",
      "l1BlobBaseFee": "0x412",
      "l1BlobBaseFeeScalar": "0xa118b",
      "l1Fee": "0x8107dce72",
      "l1GasPrice": "0x31b9d046f",
      "l1GasUsed": "0x934"
    },
    {
      "status": "0x1",
      "cumulativeGasUsed": "0x3a43fc",
      "logs": [],
      "logsBloom": "0x00000000000000000000000000000000000000000000000000000000000000000000000000000000000000000000000000000000000000000000000000000000000000000000000000000000000000000000000000000000000000000000000000000000000000000000000000000000000000000000000000000000000000000000000000000000000000000000000000000000000000000000000000000000000000000000000000000000000000000000000000000000000000000000000000000000000000000000000000000000000000000000000000000000000000000000000000000000000000000000000000000000000000000000000000000000",
      "type": "0x2",
      "transactionHash": "0x9d68da89dd9ef47001ca5f7a090fc2a53ec086fd333bf63145f9f8bf950bee98",
      "transactionIndex": "0xb",
      "blockHash": "0x6e0c0df6d6da7e99af57c3d8c727a3a06563d3592e597612c70cdb2f03a16d70",
      "blockNumber": "0x10ae082",
      "gasUsed": "0x1e3ec",
      "effectiveGasPrice": "0xf4389",
      "from": "0xe62ab4d111f968660c6b2188046f9b9ba53c4bae",
      "to": "0xecd4b2ab820215acc3cd579b8e65530d44a83643",
      "contractAddress": null,
      "l1BaseFeeScalar": "0x44d",
      "l1BlobBaseFee": "0x43c",
      "l1BlobBaseFeeScalar": "0xa118b",
      "l1Fee": "0x7a6993d69",
      "l1GasPrice": "0x2ffe2ede6",
      "l1GasUsed": "0x90c"
    },
    {
      "status": "0x1",
      "cumulativeGasUsed": "0x3049c9",
      "logs": [],
      "logsBloom": "0x00000000000000000000000000000000000000000000000000000000000000000000000000000000000000000000000000000000000000000000000000000000000000000000000000000000000000000000000000000000000000000000000000000000000000000000000000000000000000000000000000000000000000000000000000000000000000000000000000000000000000000000000000000000000000000000000000000000000000000000000000000000000000000000000000000000000000000000000000000000000000000000000000000000000000000000000000000000000000000000000000000000000000000000000000000000",
      "type": "0x2",
      "transactionHash": "0x8927b4d8abd2fd27d5acccaa3a1af9ddb759570e9189cdba12b04e4a6e769319",
      "transactionIndex": "0xc",
      "blockHash": "0x59dc4b8cc032945c58c686ee3310dc0a681c4791d8554dd4f0c260cbb725542c",
      "blockNumber": "0x10ae085",
      "gasUsed": "0x1ed04",
      "effectiveGasPrice": "0xf4389",
      "from": "0xe62ab4d111f968660c6b2188046f9b9ba53c4bae",
      "to": "0xecd4b2ab820215acc3cd579b8e65530d44a83643",
      "contractAddress": null,
      "l1BaseFeeScalar": "0x44d",
      "l1BlobBaseFee": "0x43c",
      "l1BlobBaseFeeScalar": "0xa118b",
      "l1Fee": "0x7df2d023d",
      "l1GasPrice": "0x2ffe2ede6",
      "l1GasUsed": "0x94f"
    },
    {
      "status": "0x1",
      "cumulativeGasUsed": "0x5bee52",
      "logs": [],
      "logsBloom": "0x00000000000000000000000000000000000000000000000000000000000000000000000000000000000000000000000000000000000000000000000000000000000000000000000000000000000000000000000000000000000000000000000000000000000000000000000000000000000000000000000000000000000000000000000000000000000000000000000000000000000000000000000000000000000000000000000000000000000000000000000000000000000000000000000000000000000000000000000000000000000000000000000000000000000000000000000000000000000000000000000000000000000000000000000000000000",
      "type": "0x2",
      "transactionHash": "0x110200145e12db07606d9fd644f55b7db1c53e1f419d507d3ab263c29b57501e",
      "transactionIndex": "0x15",
      "blockHash": "0xbb58dcab37390fba6989d92430fc9501937b183dea883967905c23421cf026ec",
      "blockNumber": "0x10ae089",
      "gasUsed": "0x7b027",
      "effectiveGasPrice": "0xf4389",
      "from": "0xe62ab4d111f968660c6b2188046f9b9ba53c4bae",
      "to": "0x6640ec42f86abcf799c21a070f7baf6db38a2ab9",
      "contractAddress": null,
      "l1BaseFeeScalar": "0x44d",
      "l1BlobBaseFee": "0x4c3",
      "l1BlobBaseFeeScalar": "0xa118b",
      "l1Fee": "0x11ac141e1d",
      "l1GasPrice": "0x3328034e5",
      "l1GasUsed": "0x139c"
    },
    {
      "status": "0x1",
      "cumulativeGasUsed": "0x4836c5",
      "logs": [],
      "logsBloom": "0x00000000000000000000000000000000000000000000000000000000000000000000000000000000000000000000000000000000000000000000000000000000000000000000000000000000000000000000000000000000000000000000000000000000000000000000000000000000000000000000000000000000000000000000000000000000000000000000000000000000000000000000000000000000000000000000000000000000000000000000000000000000000000000000000000000000000000000000000000000000000000000000000000000000000000000000000000000000000000000000000000000000000000000000000000000000",
      "type": "0x2",
      "transactionHash": "0x7da25f89505c99f5b132595d39d375d5cd8afbdd915f3e75f07e5edb0765d525",
      "transactionIndex": "0xf",
      "blockHash": "0x8558467ea7e2247b1cc4f6335d524c35f7f2a5915c63637a5e11ad72ed37a1b9",
      "blockNumber": "0x10ae08d",
      "gasUsed": "0x9b885",
      "effectiveGasPrice": "0xf438a",
      "from": "0xe62ab4d111f968660c6b2188046f9b9ba53c4bae",
      "to": "0x6640ec42f86abcf799c21a070f7baf6db38a2ab9",
      "contractAddress": null,
      "l1BaseFeeScalar": "0x44d",
      "l1BlobBaseFee": "0x55c",
      "l1BlobBaseFeeScalar": "0xa118b",
      "l1Fee": "0x1520a1768e",
      "l1GasPrice": "0x30e72b52d",
      "l1GasUsed": "0x1886"
    },
    {
      "status": "0x1",
      "cumulativeGasUsed": "0x3f5569",
      "logs": [],
      "logsBloom": "0x00000000000000000000000000000000000000000000000000000000000000000000000000000000000000000000000000000000000000000000000000000000000000000000000000000000000000000000000000000000000000000000000000000000000000000000000000000000000000000000000000000000000000000000000000000000000000000000000000000000000000000000000000000000000000000000000000000000000000000000000000000000000000000000000000000000000000000000000000000000000000000000000000000000000000000000000000000000000000000000000000000000000000000000000000000000",
      "type": "0x2",
      "transactionHash": "0x719294340339c1c3b609900f36fd6a5fd8e4abab5ae2865e580bfe84447c4439",
      "transactionIndex": "0x16",
      "blockHash": "0x30d0f560ad96594991e5c5ad667bb7bc99d6e8d7686f591142952ce3dd13a01e",
      "blockNumber": "0x10ae090",
      "gasUsed": "0x9b86f",
      "effectiveGasPrice": "0xf438a",
      "from": "0xe62ab4d111f968660c6b2188046f9b9ba53c4bae",
      "to": "0x6640ec42f86abcf799c21a070f7baf6db38a2ab9",
      "contractAddress": null,
      "l1BaseFeeScalar": "0x44d",
      "l1BlobBaseFee": "0x55c",
      "l1BlobBaseFeeScalar": "0xa118b",
      "l1Fee": "0x14c463f5aa",
      "l1GasPrice": "0x30e72b52d",
      "l1GasUsed": "0x181b"
    }
  ],
  "libraries": [],
  "pending": [],
  "returns": {},
  "timestamp": 1730748422,
  "chain": 84532,
  "commit": "34a11392"
}