{
  "transactions": [
    {
      "hash": "0x5acefd6e62bedd265e34d2f5a317fbe5c2afb846c2f881446599dc95f00c3a18",
      "transactionType": "CALL",
      "contractName": "FeeManager",
      "contractAddress": "0x66dc636132fb9b7f6ed858928b65864d3fd0ea67",
      "function": "getFeeTokenList()",
      "arguments": [],
      "transaction": {
        "from": "0xe62ab4d111f968660c6b2188046f9b9ba53c4bae",
        "to": "0x66dc636132fb9b7f6ed858928b65864d3fd0ea67",
        "gas": "0x8a7e",
        "value": "0x0",
        "input": "0xe28ab277",
        "nonce": "0x1c8",
        "chainId": "0x14a34"
      },
      "additionalContracts": [],
      "isFixedGasLimit": false
    },
    {
      "hash": "0xa18a6c4c70965799f04149a87302c962f718170cf8a37507026a19f94bd2510e",
      "transactionType": "CALL",
      "contractName": "FeeManager",
      "contractAddress": "0x66dc636132fb9b7f6ed858928b65864d3fd0ea67",
      "function": "addFeeToken(string)",
      "arguments": [
        "0x6a4dbc971533ba36bdc23ad70f5a7a12e064f4ae"
      ],
      "transaction": {
        "from": "0xe62ab4d111f968660c6b2188046f9b9ba53c4bae",
        "to": "0x66dc636132fb9b7f6ed858928b65864d3fd0ea67",
        "gas": "0x2696b",
        "value": "0x0",
        "input": "0x12a6385f0000000000000000000000000000000000000000000000000000000000000020000000000000000000000000000000000000000000000000000000000000002a30783661346462633937313533336261333662646332336164373066356137613132653036346634616500000000000000000000000000000000000000000000",
        "nonce": "0x1c9",
        "chainId": "0x14a34"
      },
      "additionalContracts": [],
      "isFixedGasLimit": false
    },
    {
      "hash": "0x9b9dbf75a0b9603a26114c274494d31eaf04fec8d51abcf13f592eaf0386477a",
      "transactionType": "CALL",
      "contractName": "FeeManager",
      "contractAddress": "0x66dc636132fb9b7f6ed858928b65864d3fd0ea67",
      "function": "setFeeMultiplier(uint8,uint256)",
      "arguments": [
        "0",
        "2"
      ],
      "transaction": {
        "from": "0xe62ab4d111f968660c6b2188046f9b9ba53c4bae",
        "to": "0x66dc636132fb9b7f6ed858928b65864d3fd0ea67",
        "gas": "0x112e8",
        "value": "0x0",
        "input": "0x0ee24eb500000000000000000000000000000000000000000000000000000000000000000000000000000000000000000000000000000000000000000000000000000002",
        "nonce": "0x1ca",
        "chainId": "0x14a34"
      },
      "additionalContracts": [],
      "isFixedGasLimit": false
    },
    {
      "hash": "0x05fea3a4fa4d4d6058a13908fc6c0c842e7988ccdc06307bda7e7faab8487d15",
      "transactionType": "CALL",
      "contractName": "FeeManager",
      "contractAddress": "0x66dc636132fb9b7f6ed858928b65864d3fd0ea67",
      "function": "setFeeMultiplier(uint8,uint256)",
      "arguments": [
        "1",
        "10"
      ],
      "transaction": {
        "from": "0xe62ab4d111f968660c6b2188046f9b9ba53c4bae",
        "to": "0x66dc636132fb9b7f6ed858928b65864d3fd0ea67",
        "gas": "0x11324",
        "value": "0x0",
        "input": "0x0ee24eb50000000000000000000000000000000000000000000000000000000000000001000000000000000000000000000000000000000000000000000000000000000a",
        "nonce": "0x1cb",
        "chainId": "0x14a34"
      },
      "additionalContracts": [],
      "isFixedGasLimit": false
    },
    {
      "hash": "0xc683fef23e2cea23820c33cc3cee72ce3c2d6c72c83f476d5a4f598458af714c",
      "transactionType": "CALL",
      "contractName": "FeeManager",
      "contractAddress": "0x66dc636132fb9b7f6ed858928b65864d3fd0ea67",
      "function": "setFeeMultiplier(uint8,uint256)",
      "arguments": [
        "2",
        "1"
      ],
      "transaction": {
        "from": "0xe62ab4d111f968660c6b2188046f9b9ba53c4bae",
        "to": "0x66dc636132fb9b7f6ed858928b65864d3fd0ea67",
        "gas": "0x11346",
        "value": "0x0",
        "input": "0x0ee24eb500000000000000000000000000000000000000000000000000000000000000020000000000000000000000000000000000000000000000000000000000000001",
        "nonce": "0x1cc",
        "chainId": "0x14a34"
      },
      "additionalContracts": [],
      "isFixedGasLimit": false
    },
    {
      "hash": "0xf1aed58d35c4597cb645ebd49726173988be9178931c4e67b3a6149a397e70fd",
      "transactionType": "CALL",
      "contractName": "FeeManager",
      "contractAddress": "0x66dc636132fb9b7f6ed858928b65864d3fd0ea67",
      "function": "setFeeMultiplier(uint8,uint256)",
      "arguments": [
        "3",
        "4"
      ],
      "transaction": {
        "from": "0xe62ab4d111f968660c6b2188046f9b9ba53c4bae",
        "to": "0x66dc636132fb9b7f6ed858928b65864d3fd0ea67",
        "gas": "0x1041b",
        "value": "0x0",
        "input": "0x0ee24eb500000000000000000000000000000000000000000000000000000000000000030000000000000000000000000000000000000000000000000000000000000004",
        "nonce": "0x1cd",
        "chainId": "0x14a34"
      },
      "additionalContracts": [],
      "isFixedGasLimit": false
    },
    {
      "hash": "0x251aa2b331aba2253fc65a9e4a5498e13175b25374a6e6e8f0a36e4c4245c00b",
      "transactionType": "CALL",
      "contractName": "FeeManager",
      "contractAddress": "0x66dc636132fb9b7f6ed858928b65864d3fd0ea67",
      "function": "setFeeMultiplier(uint8,uint256)",
      "arguments": [
        "4",
        "4"
      ],
      "transaction": {
        "from": "0xe62ab4d111f968660c6b2188046f9b9ba53c4bae",
        "to": "0x66dc636132fb9b7f6ed858928b65864d3fd0ea67",
        "gas": "0x1043a",
        "value": "0x0",
        "input": "0x0ee24eb500000000000000000000000000000000000000000000000000000000000000040000000000000000000000000000000000000000000000000000000000000004",
        "nonce": "0x1ce",
        "chainId": "0x14a34"
      },
      "additionalContracts": [],
      "isFixedGasLimit": false
    },
    {
      "hash": "0x405184ead7f168ff5b0136791411c4e8356008d195672ca91d4a445f573c0c3f",
      "transactionType": "CALL",
      "contractName": "FeeManager",
      "contractAddress": "0x66dc636132fb9b7f6ed858928b65864d3fd0ea67",
      "function": "setFeeMultiplier(uint8,uint256)",
      "arguments": [
        "5",
        "8"
      ],
      "transaction": {
        "from": "0xe62ab4d111f968660c6b2188046f9b9ba53c4bae",
        "to": "0x66dc636132fb9b7f6ed858928b65864d3fd0ea67",
        "gas": "0x10459",
        "value": "0x0",
        "input": "0x0ee24eb500000000000000000000000000000000000000000000000000000000000000050000000000000000000000000000000000000000000000000000000000000008",
        "nonce": "0x1cf",
        "chainId": "0x14a34"
      },
      "additionalContracts": [],
      "isFixedGasLimit": false
    },
    {
      "hash": "0x7c5f98ec5c816b5820915cc42a14b21891f65a1f11e7355de5e5227e7738773d",
      "transactionType": "CALL",
      "contractName": "FeeManager",
      "contractAddress": "0x66dc636132fb9b7f6ed858928b65864d3fd0ea67",
      "function": "setFeeMultiplier(uint8,uint256)",
      "arguments": [
        "6",
        "4"
      ],
      "transaction": {
        "from": "0xe62ab4d111f968660c6b2188046f9b9ba53c4bae",
        "to": "0x66dc636132fb9b7f6ed858928b65864d3fd0ea67",
        "gas": "0x1047a",
        "value": "0x0",
        "input": "0x0ee24eb500000000000000000000000000000000000000000000000000000000000000060000000000000000000000000000000000000000000000000000000000000004",
        "nonce": "0x1d0",
        "chainId": "0x14a34"
      },
      "additionalContracts": [],
      "isFixedGasLimit": false
    },
    {
      "hash": "0x0d09419f20126b724a4523af646b24d2917cf91742087a2181e4725fb8175ecf",
      "transactionType": "CALL",
      "contractName": "FeeManager",
      "contractAddress": "0x66dc636132fb9b7f6ed858928b65864d3fd0ea67",
      "function": "setFeeMultiplier(uint8,uint256)",
      "arguments": [
        "7",
        "10"
      ],
      "transaction": {
        "from": "0xe62ab4d111f968660c6b2188046f9b9ba53c4bae",
        "to": "0x66dc636132fb9b7f6ed858928b65864d3fd0ea67",
        "gas": "0x10499",
        "value": "0x0",
        "input": "0x0ee24eb50000000000000000000000000000000000000000000000000000000000000007000000000000000000000000000000000000000000000000000000000000000a",
        "nonce": "0x1d1",
        "chainId": "0x14a34"
      },
      "additionalContracts": [],
      "isFixedGasLimit": false
    },
    {
      "hash": "0x9dc30c06b4cd71d7c14d24e1e2326d5baf45bfa7d1146162031be61f289dd8de",
      "transactionType": "CALL",
      "contractName": "FeeManager",
      "contractAddress": "0x66dc636132fb9b7f6ed858928b65864d3fd0ea67",
      "function": "setFeeMultiplier(uint8,uint256)",
      "arguments": [
        "8",
        "8"
      ],
      "transaction": {
        "from": "0xe62ab4d111f968660c6b2188046f9b9ba53c4bae",
        "to": "0x66dc636132fb9b7f6ed858928b65864d3fd0ea67",
        "gas": "0x1140f",
        "value": "0x0",
        "input": "0x0ee24eb500000000000000000000000000000000000000000000000000000000000000080000000000000000000000000000000000000000000000000000000000000008",
        "nonce": "0x1d2",
        "chainId": "0x14a34"
      },
      "additionalContracts": [],
      "isFixedGasLimit": false
    },
    {
      "hash": "0x377327d5bd7f15356142d48602e0e3ca4cd9aca54a6d3ebb1827fa57253eaf73",
      "transactionType": "CALL",
      "contractName": "FeeManager",
      "contractAddress": "0x66dc636132fb9b7f6ed858928b65864d3fd0ea67",
      "function": "setFeeMultiplier(uint8,uint256)",
      "arguments": [
        "9",
        "8"
      ],
      "transaction": {
        "from": "0xe62ab4d111f968660c6b2188046f9b9ba53c4bae",
        "to": "0x66dc636132fb9b7f6ed858928b65864d3fd0ea67",
        "gas": "0x11431",
        "value": "0x0",
        "input": "0x0ee24eb500000000000000000000000000000000000000000000000000000000000000090000000000000000000000000000000000000000000000000000000000000008",
        "nonce": "0x1d3",
        "chainId": "0x14a34"
      },
      "additionalContracts": [],
      "isFixedGasLimit": false
    },
    {
      "hash": "0x4965e846e401670caae09fce7730a16c9e4d0ebb29ddbf40a60477944a25950e",
      "transactionType": "CALL",
      "contractName": "FeeManager",
      "contractAddress": "0x66dc636132fb9b7f6ed858928b65864d3fd0ea67",
      "function": "setFeeMultiplier(uint8,uint256)",
      "arguments": [
        "10",
        "8"
      ],
      "transaction": {
        "from": "0xe62ab4d111f968660c6b2188046f9b9ba53c4bae",
        "to": "0x66dc636132fb9b7f6ed858928b65864d3fd0ea67",
        "gas": "0x11453",
        "value": "0x0",
        "input": "0x0ee24eb5000000000000000000000000000000000000000000000000000000000000000a0000000000000000000000000000000000000000000000000000000000000008",
        "nonce": "0x1d4",
        "chainId": "0x14a34"
      },
      "additionalContracts": [],
      "isFixedGasLimit": false
    },
    {
      "hash": "0x3ca2cb12f2948b23c99b7e75228d73d994b4138bfbdd1c8a1ea53eb1cb470ab9",
      "transactionType": "CALL",
      "contractName": "FeeManager",
      "contractAddress": "0x66dc636132fb9b7f6ed858928b65864d3fd0ea67",
      "function": "setFeeMultiplier(uint8,uint256)",
      "arguments": [
        "11",
        "20"
      ],
      "transaction": {
        "from": "0xe62ab4d111f968660c6b2188046f9b9ba53c4bae",
        "to": "0x66dc636132fb9b7f6ed858928b65864d3fd0ea67",
        "gas": "0x10518",
        "value": "0x0",
        "input": "0x0ee24eb5000000000000000000000000000000000000000000000000000000000000000b0000000000000000000000000000000000000000000000000000000000000014",
        "nonce": "0x1d5",
        "chainId": "0x14a34"
      },
      "additionalContracts": [],
      "isFixedGasLimit": false
    },
    {
      "hash": "0x683c7f14b6be8981fb833afc0b09f83582b28f550422e1797337073bc724b981",
      "transactionType": "CALL",
      "contractName": "FeeManager",
      "contractAddress": "0x66dc636132fb9b7f6ed858928b65864d3fd0ea67",
      "function": "setFeeMultiplier(uint8,uint256)",
      "arguments": [
        "12",
        "8"
      ],
      "transaction": {
        "from": "0xe62ab4d111f968660c6b2188046f9b9ba53c4bae",
        "to": "0x66dc636132fb9b7f6ed858928b65864d3fd0ea67",
        "gas": "0x10538",
        "value": "0x0",
        "input": "0x0ee24eb5000000000000000000000000000000000000000000000000000000000000000c0000000000000000000000000000000000000000000000000000000000000008",
        "nonce": "0x1d6",
        "chainId": "0x14a34"
      },
      "additionalContracts": [],
      "isFixedGasLimit": false
    },
    {
      "hash": "0x2d3f7298fd9e46a91343da5df45f2baa590c6e6958df5b2beaff5b4a2cd2b598",
      "transactionType": "CALL",
      "contractName": "FeeManager",
      "contractAddress": "0x66dc636132fb9b7f6ed858928b65864d3fd0ea67",
      "function": "setFeeMultiplier(uint8,uint256)",
      "arguments": [
        "13",
        "4"
      ],
      "transaction": {
        "from": "0xe62ab4d111f968660c6b2188046f9b9ba53c4bae",
        "to": "0x66dc636132fb9b7f6ed858928b65864d3fd0ea67",
        "gas": "0x10558",
        "value": "0x0",
        "input": "0x0ee24eb5000000000000000000000000000000000000000000000000000000000000000d0000000000000000000000000000000000000000000000000000000000000004",
        "nonce": "0x1d7",
        "chainId": "0x14a34"
      },
      "additionalContracts": [],
      "isFixedGasLimit": false
    },
    {
      "hash": "0x8f7ea2812bc5a7aca463de05f66f61b57561dfdc42936b3151a29cfeddf575f1",
      "transactionType": "CALL",
      "contractName": "FeeManager",
      "contractAddress": "0x66dc636132fb9b7f6ed858928b65864d3fd0ea67",
      "function": "setFeeMultiplier(uint8,uint256)",
      "arguments": [
        "14",
        "4"
      ],
      "transaction": {
        "from": "0xe62ab4d111f968660c6b2188046f9b9ba53c4bae",
        "to": "0x66dc636132fb9b7f6ed858928b65864d3fd0ea67",
        "gas": "0x10577",
        "value": "0x0",
        "input": "0x0ee24eb5000000000000000000000000000000000000000000000000000000000000000e0000000000000000000000000000000000000000000000000000000000000004",
        "nonce": "0x1d8",
        "chainId": "0x14a34"
      },
      "additionalContracts": [],
      "isFixedGasLimit": false
    },
    {
      "hash": "0x3edcc19aba7d6d9679ec4d6814857f26ac7cb7ea5dd615e4de4a02abda383405",
      "transactionType": "CALL",
      "contractName": "FeeManager",
      "contractAddress": "0x66dc636132fb9b7f6ed858928b65864d3fd0ea67",
      "function": "setFeeMultiplier(uint8,uint256)",
      "arguments": [
        "15",
        "4"
      ],
      "transaction": {
        "from": "0xe62ab4d111f968660c6b2188046f9b9ba53c4bae",
        "to": "0x66dc636132fb9b7f6ed858928b65864d3fd0ea67",
        "gas": "0x10598",
        "value": "0x0",
        "input": "0x0ee24eb5000000000000000000000000000000000000000000000000000000000000000f0000000000000000000000000000000000000000000000000000000000000004",
        "nonce": "0x1d9",
        "chainId": "0x14a34"
      },
      "additionalContracts": [],
      "isFixedGasLimit": false
    },
    {
      "hash": "0x8e3d96c8ff3fc6563459121c72c7740a17b68f99199228cfa04426d045e8136a",
      "transactionType": "CALL",
      "contractName": "FeeManager",
      "contractAddress": "0x66dc636132fb9b7f6ed858928b65864d3fd0ea67",
      "function": "setFeeMultiplier(uint8,uint256)",
      "arguments": [
        "16",
        "2"
      ],
      "transaction": {
        "from": "0xe62ab4d111f968660c6b2188046f9b9ba53c4bae",
        "to": "0x66dc636132fb9b7f6ed858928b65864d3fd0ea67",
        "gas": "0x105b0",
        "value": "0x0",
        "input": "0x0ee24eb500000000000000000000000000000000000000000000000000000000000000100000000000000000000000000000000000000000000000000000000000000002",
        "nonce": "0x1da",
        "chainId": "0x14a34"
      },
      "additionalContracts": [],
      "isFixedGasLimit": false
    },
    {
      "hash": "0x472ae45a10f7b649c866f3178e14f0a9aa6281d07d86e188e22fa3475cfa8128",
      "transactionType": "CALL",
      "contractName": "FeeManager",
      "contractAddress": "0x66dc636132fb9b7f6ed858928b65864d3fd0ea67",
      "function": "addFeeToken(string,string[],uint256[])",
      "arguments": [
        "421614",
        "[0x6a4dbc971533ba36bdc23ad70f5a7a12e064f4ae]",
        "[100]"
      ],
      "transaction": {
        "from": "0xe62ab4d111f968660c6b2188046f9b9ba53c4bae",
        "to": "0x66dc636132fb9b7f6ed858928b65864d3fd0ea67",
        "gas": "0x2f631",
        "value": "0x0",
        "input": "0x437bf84f000000000000000000000000000000000000000000000000000000000000006000000000000000000000000000000000000000000000000000000000000000a000000000000000000000000000000000000000000000000000000000000001400000000000000000000000000000000000000000000000000000000000000006343231363134000000000000000000000000000000000000000000000000000000000000000000000000000000000000000000000000000000000000000000010000000000000000000000000000000000000000000000000000000000000020000000000000000000000000000000000000000000000000000000000000002a3078366134646263393731353333626133366264633233616437306635613761313265303634663461650000000000000000000000000000000000000000000000000000000000000000000000000000000000000000000000000000000000010000000000000000000000000000000000000000000000000000000000000064",
        "nonce": "0x1db",
        "chainId": "0x14a34"
      },
      "additionalContracts": [],
      "isFixedGasLimit": false
    },
    {
      "hash": "0x6b8a4e5bd656150229fe4e54f52dada03390cee7c7d57b8fdc879b7714ec6a80",
      "transactionType": "CALL",
      "contractName": "FeeManager",
      "contractAddress": "0x66dc636132fb9b7f6ed858928b65864d3fd0ea67",
      "function": "addFeeToken(string,string[],uint256[])",
      "arguments": [
        "80002",
        "[0x6a4dbc971533ba36bdc23ad70f5a7a12e064f4ae]",
        "[100]"
      ],
      "transaction": {
        "from": "0xe62ab4d111f968660c6b2188046f9b9ba53c4bae",
        "to": "0x66dc636132fb9b7f6ed858928b65864d3fd0ea67",
        "gas": "0x2a2a1",
        "value": "0x0",
        "input": "0x437bf84f000000000000000000000000000000000000000000000000000000000000006000000000000000000000000000000000000000000000000000000000000000a000000000000000000000000000000000000000000000000000000000000001400000000000000000000000000000000000000000000000000000000000000005383030303200000000000000000000000000000000000000000000000000000000000000000000000000000000000000000000000000000000000000000000010000000000000000000000000000000000000000000000000000000000000020000000000000000000000000000000000000000000000000000000000000002a3078366134646263393731353333626133366264633233616437306635613761313265303634663461650000000000000000000000000000000000000000000000000000000000000000000000000000000000000000000000000000000000010000000000000000000000000000000000000000000000000000000000000064",
        "nonce": "0x1dc",
        "chainId": "0x14a34"
      },
      "additionalContracts": [],
      "isFixedGasLimit": false
    },
    {
      "hash": "0xe1e197e4ea1865dc75afd18e0127a9dd70921defbba60bed11ddb77bebf4c486",
      "transactionType": "CALL",
      "contractName": "FeeManager",
      "contractAddress": "0x66dc636132fb9b7f6ed858928b65864d3fd0ea67",
      "function": "addFeeToken(string,string[],uint256[])",
      "arguments": [
        "84532",
        "[0x6a4dbc971533ba36bdc23ad70f5a7a12e064f4ae]",
        "[100]"
      ],
      "transaction": {
        "from": "0xe62ab4d111f968660c6b2188046f9b9ba53c4bae",
        "to": "0x66dc636132fb9b7f6ed858928b65864d3fd0ea67",
        "gas": "0x2a2a1",
        "value": "0x0",
        "input": "0x437bf84f000000000000000000000000000000000000000000000000000000000000006000000000000000000000000000000000000000000000000000000000000000a000000000000000000000000000000000000000000000000000000000000001400000000000000000000000000000000000000000000000000000000000000005383435333200000000000000000000000000000000000000000000000000000000000000000000000000000000000000000000000000000000000000000000010000000000000000000000000000000000000000000000000000000000000020000000000000000000000000000000000000000000000000000000000000002a3078366134646263393731353333626133366264633233616437306635613761313265303634663461650000000000000000000000000000000000000000000000000000000000000000000000000000000000000000000000000000000000010000000000000000000000000000000000000000000000000000000000000064",
        "nonce": "0x1dd",
        "chainId": "0x14a34"
      },
      "additionalContracts": [],
      "isFixedGasLimit": false
    },
    {
      "hash": "0x9bf098fbdaaa86237ad6746d1002cb94d878c78dd20a1e0932d7bbb98ee0908d",
      "transactionType": "CALL",
      "contractName": "FeeManager",
      "contractAddress": "0x66dc636132fb9b7f6ed858928b65864d3fd0ea67",
      "function": "addFeeToken(string,string[],uint256[])",
      "arguments": [
        "97",
        "[0x6a4dbc971533ba36bdc23ad70f5a7a12e064f4ae]",
        "[100]"
      ],
      "transaction": {
        "from": "0xe62ab4d111f968660c6b2188046f9b9ba53c4bae",
        "to": "0x66dc636132fb9b7f6ed858928b65864d3fd0ea67",
        "gas": "0x29c5a",
        "value": "0x0",
        "input": "0x437bf84f000000000000000000000000000000000000000000000000000000000000006000000000000000000000000000000000000000000000000000000000000000a000000000000000000000000000000000000000000000000000000000000001400000000000000000000000000000000000000000000000000000000000000002393700000000000000000000000000000000000000000000000000000000000000000000000000000000000000000000000000000000000000000000000000010000000000000000000000000000000000000000000000000000000000000020000000000000000000000000000000000000000000000000000000000000002a3078366134646263393731353333626133366264633233616437306635613761313265303634663461650000000000000000000000000000000000000000000000000000000000000000000000000000000000000000000000000000000000010000000000000000000000000000000000000000000000000000000000000064",
        "nonce": "0x1de",
        "chainId": "0x14a34"
      },
      "additionalContracts": [],
      "isFixedGasLimit": false
    },
    {
      "hash": "0x295d41fa073b1ae7267c6ff17b3d1876935fac0e882ea32cb4e9793bb0c75b6b",
      "transactionType": "CALL",
      "contractName": "FeeManager",
      "contractAddress": "0x66dc636132fb9b7f6ed858928b65864d3fd0ea67",
      "function": "addFeeToken(string,string[],uint256[])",
      "arguments": [
        "11155111",
        "[0x6a4dbc971533ba36bdc23ad70f5a7a12e064f4ae]",
        "[100]"
      ],
      "transaction": {
        "from": "0xe62ab4d111f968660c6b2188046f9b9ba53c4bae",
        "to": "0x66dc636132fb9b7f6ed858928b65864d3fd0ea67",
        "gas": "0x2a8e9",
        "value": "0x0",
        "input": "0x437bf84f000000000000000000000000000000000000000000000000000000000000006000000000000000000000000000000000000000000000000000000000000000a000000000000000000000000000000000000000000000000000000000000001400000000000000000000000000000000000000000000000000000000000000008313131353531313100000000000000000000000000000000000000000000000000000000000000000000000000000000000000000000000000000000000000010000000000000000000000000000000000000000000000000000000000000020000000000000000000000000000000000000000000000000000000000000002a3078366134646263393731353333626133366264633233616437306635613761313265303634663461650000000000000000000000000000000000000000000000000000000000000000000000000000000000000000000000000000000000010000000000000000000000000000000000000000000000000000000000000064",
        "nonce": "0x1df",
        "chainId": "0x14a34"
      },
      "additionalContracts": [],
      "isFixedGasLimit": false
    },
    {
      "hash": "0x847090180da00ddbfb85035b0475ff731c15afeed85cd23e0f3b6d94509201be",
      "transactionType": "CALL",
      "contractName": "CTMRWAGateway",
      "contractAddress": "0xea4a06cb68aba869e6bf98edc4bdbc731d2d82e3",
      "function": "addChainContract(string[],string[])",
      "arguments": [
        "[421614, 80002, 97, 11155111]",
        "[0xeb4b038c0f1f086bb7ab5b4192611015aff95390, 0xfdd1a5b3aeea2df15a6f6b502784b61bdcbf66bc, 0xc0dd542bcac26095a2c83ffb10826ccef806c07b, 0xf065f9bbd5f59afa0d24be34bdf8ad483485ed1c]"
      ],
      "transaction": {
        "from": "0xe62ab4d111f968660c6b2188046f9b9ba53c4bae",
        "to": "0xea4a06cb68aba869e6bf98edc4bdbc731d2d82e3",
        "gas": "0xaab89",
        "value": "0x0",
        "input": "0x013fd3bd000000000000000000000000000000000000000000000000000000000000004000000000000000000000000000000000000000000000000000000000000001e00000000000000000000000000000000000000000000000000000000000000004000000000000000000000000000000000000000000000000000000000000008000000000000000000000000000000000000000000000000000000000000000c000000000000000000000000000000000000000000000000000000000000001000000000000000000000000000000000000000000000000000000000000000140000000000000000000000000000000000000000000000000000000000000000634323136313400000000000000000000000000000000000000000000000000000000000000000000000000000000000000000000000000000000000000000005383030303200000000000000000000000000000000000000000000000000000000000000000000000000000000000000000000000000000000000000000000023937000000000000000000000000000000000000000000000000000000000000000000000000000000000000000000000000000000000000000000000000000831313135353131310000000000000000000000000000000000000000000000000000000000000000000000000000000000000000000000000000000000000004000000000000000000000000000000000000000000000000000000000000008000000000000000000000000000000000000000000000000000000000000000e0000000000000000000000000000000000000000000000000000000000000014000000000000000000000000000000000000000000000000000000000000001a0000000000000000000000000000000000000000000000000000000000000002a30786562346230333863306631663038366262376162356234313932363131303135616666393533393000000000000000000000000000000000000000000000000000000000000000000000000000000000000000000000000000000000002a30786664643161356233616565613264663135613666366235303237383462363162646362663636626300000000000000000000000000000000000000000000000000000000000000000000000000000000000000000000000000000000002a30786330646435343262636163323630393561326338336666623130383236636365663830366330376200000000000000000000000000000000000000000000000000000000000000000000000000000000000000000000000000000000002a30786630363566396262643566353961666130643234626533346264663861643438333438356564316300000000000000000000000000000000000000000000",
        "nonce": "0x1e0",
        "chainId": "0x14a34"
      },
      "additionalContracts": [],
      "isFixedGasLimit": false
    },
    {
      "hash": "0xaa4f009045e35f3490a2493c72477bc26dd932728b3be1480c6c44c42b27bae3",
      "transactionType": "CALL",
      "contractName": "CTMRWAGateway",
      "contractAddress": "0xea4a06cb68aba869e6bf98edc4bdbc731d2d82e3",
      "function": "attachRWAX(uint256,uint256,string[],string[])",
      "arguments": [
        "1",
        "1",
        "[84532, 421614, 80002, 97, 11155111]",
        "[0x9a0f81de582ce9194feadc6ccefaf9ea70451616, 0xb3aefea9f49de70c41ce22afa321e64393932d21, 0xd586ea1fce09384f71b69e80f643135fc0641def, 0x7658e59cdba5e7e08263a216e89c8438c9f02048, 0x1ee4ba474da815f728df08f0147defac07f0bab3]"
      ],
      "transaction": {
        "from": "0xe62ab4d111f968660c6b2188046f9b9ba53c4bae",
        "to": "0xea4a06cb68aba869e6bf98edc4bdbc731d2d82e3",
        "gas": "0xe3f41",
        "value": "0x0",
        "input": "0x33a5f5b40000000000000000000000000000000000000000000000000000000000000001000000000000000000000000000000000000000000000000000000000000000100000000000000000000000000000000000000000000000000000000000000800000000000000000000000000000000000000000000000000000000000000280000000000000000000000000000000000000000000000000000000000000000500000000000000000000000000000000000000000000000000000000000000a000000000000000000000000000000000000000000000000000000000000000e00000000000000000000000000000000000000000000000000000000000000120000000000000000000000000000000000000000000000000000000000000016000000000000000000000000000000000000000000000000000000000000001a00000000000000000000000000000000000000000000000000000000000000005383435333200000000000000000000000000000000000000000000000000000000000000000000000000000000000000000000000000000000000000000000063432313631340000000000000000000000000000000000000000000000000000000000000000000000000000000000000000000000000000000000000000000538303030320000000000000000000000000000000000000000000000000000000000000000000000000000000000000000000000000000000000000000000002393700000000000000000000000000000000000000000000000000000000000000000000000000000000000000000000000000000000000000000000000000083131313535313131000000000000000000000000000000000000000000000000000000000000000000000000000000000000000000000000000000000000000500000000000000000000000000000000000000000000000000000000000000a00000000000000000000000000000000000000000000000000000000000000100000000000000000000000000000000000000000000000000000000000000016000000000000000000000000000000000000000000000000000000000000001c00000000000000000000000000000000000000000000000000000000000000220000000000000000000000000000000000000000000000000000000000000002a30783961306638316465353832636539313934666561646336636365666166396561373034353136313600000000000000000000000000000000000000000000000000000000000000000000000000000000000000000000000000000000002a30786233616566656139663439646537306334316365323261666133323165363433393339333264323100000000000000000000000000000000000000000000000000000000000000000000000000000000000000000000000000000000002a30786435383665613166636530393338346637316236396538306636343331333566633036343164656600000000000000000000000000000000000000000000000000000000000000000000000000000000000000000000000000000000002a30783736353865353963646261356537653038323633613231366538396338343338633966303230343800000000000000000000000000000000000000000000000000000000000000000000000000000000000000000000000000000000002a30783165653462613437346461383135663732386466303866303134376465666163303766306261623300000000000000000000000000000000000000000000",
        "nonce": "0x1e1",
        "chainId": "0x14a34"
      },
      "additionalContracts": [],
      "isFixedGasLimit": false
    },
    {
      "hash": "0xf8598a2eacf85c20ccb8c0bb8ad04e673a1ddbd13a800286a6d444028e7cca02",
      "transactionType": "CALL",
      "contractName": "CTMRWAGateway",
      "contractAddress": "0xea4a06cb68aba869e6bf98edc4bdbc731d2d82e3",
      "function": "attachStorageManager(uint256,uint256,string[],string[])",
      "arguments": [
        "1",
        "1",
        "[84532, 421614, 80002, 97, 11155111]",
        "[0x9372cd1287e0bb6337802d80dff342348c85fd78, 0x37c7137dc6e3dc3c3637bfed3f6dbfbd43386429, 0xb523f0e72a7bdf94a5a3d84ba9e8dc42e69229ea, 0x855c06f9f7b01838dc540ec6fcff17fd86a378d8, 0xcbf4e5fda887e602e5132fa800d74154dfb5b237]"
      ],
      "transaction": {
        "from": "0xe62ab4d111f968660c6b2188046f9b9ba53c4bae",
        "to": "0xea4a06cb68aba869e6bf98edc4bdbc731d2d82e3",
        "gas": "0xe3d55",
        "value": "0x0",
        "input": "0x2f68b4890000000000000000000000000000000000000000000000000000000000000001000000000000000000000000000000000000000000000000000000000000000100000000000000000000000000000000000000000000000000000000000000800000000000000000000000000000000000000000000000000000000000000280000000000000000000000000000000000000000000000000000000000000000500000000000000000000000000000000000000000000000000000000000000a000000000000000000000000000000000000000000000000000000000000000e00000000000000000000000000000000000000000000000000000000000000120000000000000000000000000000000000000000000000000000000000000016000000000000000000000000000000000000000000000000000000000000001a00000000000000000000000000000000000000000000000000000000000000005383435333200000000000000000000000000000000000000000000000000000000000000000000000000000000000000000000000000000000000000000000063432313631340000000000000000000000000000000000000000000000000000000000000000000000000000000000000000000000000000000000000000000538303030320000000000000000000000000000000000000000000000000000000000000000000000000000000000000000000000000000000000000000000002393700000000000000000000000000000000000000000000000000000000000000000000000000000000000000000000000000000000000000000000000000083131313535313131000000000000000000000000000000000000000000000000000000000000000000000000000000000000000000000000000000000000000500000000000000000000000000000000000000000000000000000000000000a00000000000000000000000000000000000000000000000000000000000000100000000000000000000000000000000000000000000000000000000000000016000000000000000000000000000000000000000000000000000000000000001c00000000000000000000000000000000000000000000000000000000000000220000000000000000000000000000000000000000000000000000000000000002a30783933373263643132383765306262363333373830326438306466663334323334386338356664373800000000000000000000000000000000000000000000000000000000000000000000000000000000000000000000000000000000002a30783337633731333764633665336463336333363337626665643366366462666264343333383634323900000000000000000000000000000000000000000000000000000000000000000000000000000000000000000000000000000000002a30786235323366306537326137626466393461356133643834626139653864633432653639323239656100000000000000000000000000000000000000000000000000000000000000000000000000000000000000000000000000000000002a30783835356330366639663762303138333864633534306563366663666631376664383661333738643800000000000000000000000000000000000000000000000000000000000000000000000000000000000000000000000000000000002a30786362663465356664613838376536303265353133326661383030643734313534646662356232333700000000000000000000000000000000000000000000",
        "nonce": "0x1e2",
        "chainId": "0x14a34"
      },
      "additionalContracts": [],
      "isFixedGasLimit": false
    }
  ],
  "receipts": [
    {
      "status": "0x1",
      "cumulativeGasUsed": "0x109fe",
      "logs": [],
      "logsBloom": "0x00000000000000000000000000000000000000000000000000000000000000000000000000000000000000000000000000000000000000000000000000000000000000000000000000000000000000000000000000000000000000000000000000000000000000000000000000000000000000000000000000000000000000000000000000000000000000000000000000000000000000000000000000000000000000000000000000000000000000000000000000000000000000000000000000000000000000000000000000000000000000000000000000000000000000000000000000000000000000000000000000000000000000000000000000000000",
      "type": "0x2",
      "transactionHash": "0x5acefd6e62bedd265e34d2f5a317fbe5c2afb846c2f881446599dc95f00c3a18",
      "transactionIndex": "0x1",
      "blockHash": "0x10ce1d9ffb006825d2815bfe2ddc565ad2d01e95385eb967fd7fc56e982f567b",
      "blockNumber": "0x1160d56",
      "gasUsed": "0x5eb3",
      "effectiveGasPrice": "0x87e",
      "from": "0xe62ab4d111f968660c6b2188046f9b9ba53c4bae",
      "to": "0x66dc636132fb9b7f6ed858928b65864d3fd0ea67",
      "contractAddress": null,
      "l1BaseFeeScalar": "0x44d",
      "l1BlobBaseFee": "0x1",
      "l1BlobBaseFeeScalar": "0xa118b",
      "l1Fee": "0x21a856a5655",
      "l1GasPrice": "0x131b3347539",
      "l1GasUsed": "0x640"
    },
    {
      "status": "0x1",
      "cumulativeGasUsed": "0xbdf18",
      "logs": [
        {
          "address": "0x66dc636132fb9b7f6ed858928b65864d3fd0ea67",
          "topics": [
            "0x1394cfab38f3fc78ed77ea6f9318782a446d96e7dc8e9a6b0149f6be25c08bcf",
            "0x0000000000000000000000006a4dbc971533ba36bdc23ad70f5a7a12e064f4ae"
          ],
          "data": "0x",
          "blockHash": "0xdb81daec120d80eef32ba83625a69450e1b790fbdf7122987b6082fa936dc0f4",
          "blockNumber": "0x1160d5a",
          "transactionHash": "0xa18a6c4c70965799f04149a87302c962f718170cf8a37507026a19f94bd2510e",
          "transactionIndex": "0x6",
          "logIndex": "0x9",
          "removed": false
        }
      ],
      "logsBloom": "0x00000000000000000000000000000000000200000000000000000000000000000000000000000000000000000000000000000000000000001000000000000000000000000000000000000400000000000000001000000000000000000000000000000000000000000000000000000000000000000000000000000000000000010000000100000000000000000000000000000000000000000000000000000000000000000000000000000000000000000000000100000000000000000000000000000000000000000000000000000000000000002000000000000000000000000000000000000000000000000400000000000000000000000000000000000000",
      "type": "0x2",
      "transactionHash": "0xa18a6c4c70965799f04149a87302c962f718170cf8a37507026a19f94bd2510e",
      "transactionIndex": "0x6",
      "blockHash": "0xdb81daec120d80eef32ba83625a69450e1b790fbdf7122987b6082fa936dc0f4",
      "blockNumber": "0x1160d5a",
      "gasUsed": "0x1bf00",
      "effectiveGasPrice": "0x87d",
      "from": "0xe62ab4d111f968660c6b2188046f9b9ba53c4bae",
      "to": "0x66dc636132fb9b7f6ed858928b65864d3fd0ea67",
      "contractAddress": null,
      "l1BaseFeeScalar": "0x44d",
      "l1BlobBaseFee": "0x1",
      "l1BlobBaseFeeScalar": "0xa118b",
      "l1Fee": "0x24a060870a9",
      "l1GasPrice": "0x131b3347539",
      "l1GasUsed": "0x6cd"
    },
    {
      "status": "0x1",
      "cumulativeGasUsed": "0x5f92c",
      "logs": [],
      "logsBloom": "0x00000000000000000000000000000000000000000000000000000000000000000000000000000000000000000000000000000000000000000000000000000000000000000000000000000000000000000000000000000000000000000000000000000000000000000000000000000000000000000000000000000000000000000000000000000000000000000000000000000000000000000000000000000000000000000000000000000000000000000000000000000000000000000000000000000000000000000000000000000000000000000000000000000000000000000000000000000000000000000000000000000000000000000000000000000000",
      "type": "0x2",
      "transactionHash": "0x9b9dbf75a0b9603a26114c274494d31eaf04fec8d51abcf13f592eaf0386477a",
      "transactionIndex": "0x6",
      "blockHash": "0x88da9ba6676e4f52b384c800d3ff7fcf5842d845c984aedf4f7a0eb227165395",
      "blockNumber": "0x1160d5d",
      "gasUsed": "0xbbf9",
      "effectiveGasPrice": "0x87d",
      "from": "0xe62ab4d111f968660c6b2188046f9b9ba53c4bae",
      "to": "0x66dc636132fb9b7f6ed858928b65864d3fd0ea67",
      "contractAddress": null,
      "l1BaseFeeScalar": "0x44d",
      "l1BlobBaseFee": "0x1",
      "l1BlobBaseFeeScalar": "0xa118b",
      "l1Fee": "0x21a856a5655",
      "l1GasPrice": "0x131b3347539",
      "l1GasUsed": "0x640"
    },
    {
      "status": "0x1",
      "cumulativeGasUsed": "0x53ea6",
      "logs": [],
      "logsBloom": "0x00000000000000000000000000000000000000000000000000000000000000000000000000000000000000000000000000000000000000000000000000000000000000000000000000000000000000000000000000000000000000000000000000000000000000000000000000000000000000000000000000000000000000000000000000000000000000000000000000000000000000000000000000000000000000000000000000000000000000000000000000000000000000000000000000000000000000000000000000000000000000000000000000000000000000000000000000000000000000000000000000000000000000000000000000000000",
      "type": "0x2",
      "transactionHash": "0x05fea3a4fa4d4d6058a13908fc6c0c842e7988ccdc06307bda7e7faab8487d15",
      "transactionIndex": "0x4",
      "blockHash": "0x533ff1b5edc545ddcc32c0683b80ad6f6de16d2a52f07eddfa810cc533c594d7",
      "blockNumber": "0x1160d61",
      "gasUsed": "0xbc22",
      "effectiveGasPrice": "0x87d",
      "from": "0xe62ab4d111f968660c6b2188046f9b9ba53c4bae",
      "to": "0x66dc636132fb9b7f6ed858928b65864d3fd0ea67",
      "contractAddress": null,
      "l1BaseFeeScalar": "0x44d",
      "l1BlobBaseFee": "0x1",
      "l1BlobBaseFeeScalar": "0xa118b",
      "l1Fee": "0x21a856a5655",
      "l1GasPrice": "0x131b3347539",
      "l1GasUsed": "0x640"
    },
    {
      "status": "0x1",
      "cumulativeGasUsed": "0x3d927",
      "logs": [],
      "logsBloom": "0x00000000000000000000000000000000000000000000000000000000000000000000000000000000000000000000000000000000000000000000000000000000000000000000000000000000000000000000000000000000000000000000000000000000000000000000000000000000000000000000000000000000000000000000000000000000000000000000000000000000000000000000000000000000000000000000000000000000000000000000000000000000000000000000000000000000000000000000000000000000000000000000000000000000000000000000000000000000000000000000000000000000000000000000000000000000",
      "type": "0x2",
      "transactionHash": "0xc683fef23e2cea23820c33cc3cee72ce3c2d6c72c83f476d5a4f598458af714c",
      "transactionIndex": "0x3",
      "blockHash": "0x6ac1a394d17ea5bd4d262da46457e17b1e0e44299e23adab62ccf9be7407dced",
      "blockNumber": "0x1160d65",
      "gasUsed": "0xbc39",
      "effectiveGasPrice": "0x87d",
      "from": "0xe62ab4d111f968660c6b2188046f9b9ba53c4bae",
      "to": "0x66dc636132fb9b7f6ed858928b65864d3fd0ea67",
      "contractAddress": null,
      "l1BaseFeeScalar": "0x44d",
      "l1BlobBaseFee": "0x1",
      "l1BlobBaseFeeScalar": "0xa118b",
      "l1Fee": "0x21940ad5492",
      "l1GasPrice": "0x130fadcb24e",
      "l1GasUsed": "0x640"
    },
    {
      "status": "0x1",
      "cumulativeGasUsed": "0x30ccd",
      "logs": [],
      "logsBloom": "0x00000000000000000000000000000000000000000000000000000000000000000000000000000000000000000000000000000000000000000000000000000000000000000000000000000000000000000000000000000000000000000000000000000000000000000000000000000000000000000000000000000000000000000000000000000000000000000000000000000000000000000000000000000000000000000000000000000000000000000000000000000000000000000000000000000000000000000000000000000000000000000000000000000000000000000000000000000000000000000000000000000000000000000000000000000000",
      "type": "0x2",
      "transactionHash": "0xf1aed58d35c4597cb645ebd49726173988be9178931c4e67b3a6149a397e70fd",
      "transactionIndex": "0x3",
      "blockHash": "0xf7d5f5d05f3704793feefae9c95ee13911e49edea6ef89c729821da74bd1ec56",
      "blockNumber": "0x1160d68",
      "gasUsed": "0xbc50",
      "effectiveGasPrice": "0x87d",
      "from": "0xe62ab4d111f968660c6b2188046f9b9ba53c4bae",
      "to": "0x66dc636132fb9b7f6ed858928b65864d3fd0ea67",
      "contractAddress": null,
      "l1BaseFeeScalar": "0x44d",
      "l1BlobBaseFee": "0x1",
      "l1BlobBaseFeeScalar": "0xa118b",
      "l1Fee": "0x21940ad5492",
      "l1GasPrice": "0x130fadcb24e",
      "l1GasUsed": "0x640"
    },
    {
      "status": "0x1",
      "cumulativeGasUsed": "0x6589f",
      "logs": [],
      "logsBloom": "0x00000000000000000000000000000000000000000000000000000000000000000000000000000000000000000000000000000000000000000000000000000000000000000000000000000000000000000000000000000000000000000000000000000000000000000000000000000000000000000000000000000000000000000000000000000000000000000000000000000000000000000000000000000000000000000000000000000000000000000000000000000000000000000000000000000000000000000000000000000000000000000000000000000000000000000000000000000000000000000000000000000000000000000000000000000000",
      "type": "0x2",
      "transactionHash": "0x251aa2b331aba2253fc65a9e4a5498e13175b25374a6e6e8f0a36e4c4245c00b",
      "transactionIndex": "0x2",
      "blockHash": "0x7c298ba3b9082674b8a30c660bac16ef54cfabb610d75c56e5896fa3915745d7",
      "blockNumber": "0x1160d6c",
      "gasUsed": "0xbc67",
      "effectiveGasPrice": "0x87d",
      "from": "0xe62ab4d111f968660c6b2188046f9b9ba53c4bae",
      "to": "0x66dc636132fb9b7f6ed858928b65864d3fd0ea67",
      "contractAddress": null,
      "l1BaseFeeScalar": "0x44d",
      "l1BlobBaseFee": "0x1",
      "l1BlobBaseFeeScalar": "0xa118b",
      "l1Fee": "0x1e6dbdb2047",
      "l1GasPrice": "0x1145f81f85e",
      "l1GasUsed": "0x640"
    },
    {
      "status": "0x1",
      "cumulativeGasUsed": "0x2439a",
      "logs": [],
      "logsBloom": "0x00000000000000000000000000000000000000000000000000000000000000000000000000000000000000000000000000000000000000000000000000000000000000000000000000000000000000000000000000000000000000000000000000000000000000000000000000000000000000000000000000000000000000000000000000000000000000000000000000000000000000000000000000000000000000000000000000000000000000000000000000000000000000000000000000000000000000000000000000000000000000000000000000000000000000000000000000000000000000000000000000000000000000000000000000000000",
      "type": "0x2",
      "transactionHash": "0x405184ead7f168ff5b0136791411c4e8356008d195672ca91d4a445f573c0c3f",
      "transactionIndex": "0x3",
      "blockHash": "0xb1da40f71ed4994ec16bebbc11c75acb8934f87e4cd65c2296a6d364647d0413",
      "blockNumber": "0x1160d70",
      "gasUsed": "0xbc7e",
      "effectiveGasPrice": "0x87d",
      "from": "0xe62ab4d111f968660c6b2188046f9b9ba53c4bae",
      "to": "0x66dc636132fb9b7f6ed858928b65864d3fd0ea67",
      "contractAddress": null,
      "l1BaseFeeScalar": "0x44d",
      "l1BlobBaseFee": "0x1",
      "l1BlobBaseFeeScalar": "0xa118b",
      "l1Fee": "0x1e6dbdb2047",
      "l1GasPrice": "0x1145f81f85e",
      "l1GasUsed": "0x640"
    },
    {
      "status": "0x1",
      "cumulativeGasUsed": "0x93f5c",
      "logs": [],
      "logsBloom": "0x00000000000000000000000000000000000000000000000000000000000000000000000000000000000000000000000000000000000000000000000000000000000000000000000000000000000000000000000000000000000000000000000000000000000000000000000000000000000000000000000000000000000000000000000000000000000000000000000000000000000000000000000000000000000000000000000000000000000000000000000000000000000000000000000000000000000000000000000000000000000000000000000000000000000000000000000000000000000000000000000000000000000000000000000000000000",
      "type": "0x2",
      "transactionHash": "0x7c5f98ec5c816b5820915cc42a14b21891f65a1f11e7355de5e5227e7738773d",
      "transactionIndex": "0x5",
      "blockHash": "0x92a9b6895c05b1ac59f1a7c6f7373f2f6de40731019fb4d69e22e78723a976f8",
      "blockNumber": "0x1160d73",
      "gasUsed": "0xbc95",
      "effectiveGasPrice": "0x87d",
      "from": "0xe62ab4d111f968660c6b2188046f9b9ba53c4bae",
      "to": "0x66dc636132fb9b7f6ed858928b65864d3fd0ea67",
      "contractAddress": null,
      "l1BaseFeeScalar": "0x44d",
      "l1BlobBaseFee": "0x1",
      "l1BlobBaseFeeScalar": "0xa118b",
      "l1Fee": "0x220154803f2",
      "l1GasPrice": "0x134db7c1eed",
      "l1GasUsed": "0x640"
    },
    {
      "status": "0x1",
      "cumulativeGasUsed": "0x8fb44",
      "logs": [],
      "logsBloom": "0x00000000000000000000000000000000000000000000000000000000000000000000000000000000000000000000000000000000000000000000000000000000000000000000000000000000000000000000000000000000000000000000000000000000000000000000000000000000000000000000000000000000000000000000000000000000000000000000000000000000000000000000000000000000000000000000000000000000000000000000000000000000000000000000000000000000000000000000000000000000000000000000000000000000000000000000000000000000000000000000000000000000000000000000000000000000",
      "type": "0x2",
      "transactionHash": "0x0d09419f20126b724a4523af646b24d2917cf91742087a2181e4725fb8175ecf",
      "transactionIndex": "0x8",
      "blockHash": "0x58907a74e18ed0e4f1d0c6b28cb49ae8207cdf55b2131a9c36a0c80bec692225",
      "blockNumber": "0x1160d77",
      "gasUsed": "0xbcac",
      "effectiveGasPrice": "0x87d",
      "from": "0xe62ab4d111f968660c6b2188046f9b9ba53c4bae",
      "to": "0x66dc636132fb9b7f6ed858928b65864d3fd0ea67",
      "contractAddress": null,
      "l1BaseFeeScalar": "0x44d",
      "l1BlobBaseFee": "0x1",
      "l1BlobBaseFeeScalar": "0xa118b",
      "l1Fee": "0x201f7d8c776",
      "l1GasPrice": "0x123c31a54b7",
      "l1GasUsed": "0x640"
    },
    {
      "status": "0x1",
      "cumulativeGasUsed": "0x150a2f",
      "logs": [],
      "logsBloom": "0x00000000000000000000000000000000000000000000000000000000000000000000000000000000000000000000000000000000000000000000000000000000000000000000000000000000000000000000000000000000000000000000000000000000000000000000000000000000000000000000000000000000000000000000000000000000000000000000000000000000000000000000000000000000000000000000000000000000000000000000000000000000000000000000000000000000000000000000000000000000000000000000000000000000000000000000000000000000000000000000000000000000000000000000000000000000",
      "type": "0x2",
      "transactionHash": "0x9dc30c06b4cd71d7c14d24e1e2326d5baf45bfa7d1146162031be61f289dd8de",
      "transactionIndex": "0x7",
      "blockHash": "0x25c2ca7f42ebc565210a9a7e11b9b7f852776e8b63ef17f5926f32ad790bcafb",
      "blockNumber": "0x1160d7b",
      "gasUsed": "0xbcc3",
      "effectiveGasPrice": "0x87d",
      "from": "0xe62ab4d111f968660c6b2188046f9b9ba53c4bae",
      "to": "0x66dc636132fb9b7f6ed858928b65864d3fd0ea67",
      "contractAddress": null,
      "l1BaseFeeScalar": "0x44d",
      "l1BlobBaseFee": "0x1",
      "l1BlobBaseFeeScalar": "0xa118b",
      "l1Fee": "0x201f7d8c776",
      "l1GasPrice": "0x123c31a54b7",
      "l1GasUsed": "0x640"
    },
    {
      "status": "0x1",
      "cumulativeGasUsed": "0xea1ba",
      "logs": [],
      "logsBloom": "0x00000000000000000000000000000000000000000000000000000000000000000000000000000000000000000000000000000000000000000000000000000000000000000000000000000000000000000000000000000000000000000000000000000000000000000000000000000000000000000000000000000000000000000000000000000000000000000000000000000000000000000000000000000000000000000000000000000000000000000000000000000000000000000000000000000000000000000000000000000000000000000000000000000000000000000000000000000000000000000000000000000000000000000000000000000000",
      "type": "0x2",
      "transactionHash": "0x377327d5bd7f15356142d48602e0e3ca4cd9aca54a6d3ebb1827fa57253eaf73",
      "transactionIndex": "0x8",
      "blockHash": "0x540ac4c7e2e3872d781e8fe62c315ee177ddc6b78bd6a471d0eca70313722c43",
      "blockNumber": "0x1160d7e",
      "gasUsed": "0xbcda",
      "effectiveGasPrice": "0x87d",
      "from": "0xe62ab4d111f968660c6b2188046f9b9ba53c4bae",
      "to": "0x66dc636132fb9b7f6ed858928b65864d3fd0ea67",
      "contractAddress": null,
      "l1BaseFeeScalar": "0x44d",
      "l1BlobBaseFee": "0x1",
      "l1BlobBaseFeeScalar": "0xa118b",
      "l1Fee": "0x207de1fab0e",
      "l1GasPrice": "0x1271c6f72a1",
      "l1GasUsed": "0x640"
    },
    {
      "status": "0x1",
      "cumulativeGasUsed": "0x738ce",
      "logs": [],
      "logsBloom": "0x00000000000000000000000000000000000000000000000000000000000000000000000000000000000000000000000000000000000000000000000000000000000000000000000000000000000000000000000000000000000000000000000000000000000000000000000000000000000000000000000000000000000000000000000000000000000000000000000000000000000000000000000000000000000000000000000000000000000000000000000000000000000000000000000000000000000000000000000000000000000000000000000000000000000000000000000000000000000000000000000000000000000000000000000000000000",
      "type": "0x2",
      "transactionHash": "0x4965e846e401670caae09fce7730a16c9e4d0ebb29ddbf40a60477944a25950e",
      "transactionIndex": "0x5",
      "blockHash": "0xbbb9a91ed9af307429276d02313cd2342bbfbf58b7ae72fc95e57eb64461e6ee",
      "blockNumber": "0x1160d82",
      "gasUsed": "0xbcf1",
      "effectiveGasPrice": "0x87d",
      "from": "0xe62ab4d111f968660c6b2188046f9b9ba53c4bae",
      "to": "0x66dc636132fb9b7f6ed858928b65864d3fd0ea67",
      "contractAddress": null,
      "l1BaseFeeScalar": "0x44d",
      "l1BlobBaseFee": "0x1",
      "l1BlobBaseFeeScalar": "0xa118b",
      "l1Fee": "0x207de1fab0e",
      "l1GasPrice": "0x1271c6f72a1",
      "l1GasUsed": "0x640"
    },
    {
      "status": "0x1",
      "cumulativeGasUsed": "0x7ac36",
      "logs": [],
      "logsBloom": "0x00000000000000000000000000000000000000000000000000000000000000000000000000000000000000000000000000000000000000000000000000000000000000000000000000000000000000000000000000000000000000000000000000000000000000000000000000000000000000000000000000000000000000000000000000000000000000000000000000000000000000000000000000000000000000000000000000000000000000000000000000000000000000000000000000000000000000000000000000000000000000000000000000000000000000000000000000000000000000000000000000000000000000000000000000000000",
      "type": "0x2",
      "transactionHash": "0x3ca2cb12f2948b23c99b7e75228d73d994b4138bfbdd1c8a1ea53eb1cb470ab9",
      "transactionIndex": "0x5",
      "blockHash": "0xbfca0f567eb84cd8a2f6c12810db60db21155330686aafd44a3a634ff5aa610a",
      "blockNumber": "0x1160d85",
      "gasUsed": "0xbd08",
      "effectiveGasPrice": "0x87d",
      "from": "0xe62ab4d111f968660c6b2188046f9b9ba53c4bae",
      "to": "0x66dc636132fb9b7f6ed858928b65864d3fd0ea67",
      "contractAddress": null,
      "l1BaseFeeScalar": "0x44d",
      "l1BlobBaseFee": "0x1",
      "l1BlobBaseFeeScalar": "0xa118b",
      "l1Fee": "0x1fac4c8a076",
      "l1GasPrice": "0x11facdbea68",
      "l1GasUsed": "0x640"
    },
    {
      "status": "0x1",
      "cumulativeGasUsed": "0x10decd",
      "logs": [],
      "logsBloom": "0x00000000000000000000000000000000000000000000000000000000000000000000000000000000000000000000000000000000000000000000000000000000000000000000000000000000000000000000000000000000000000000000000000000000000000000000000000000000000000000000000000000000000000000000000000000000000000000000000000000000000000000000000000000000000000000000000000000000000000000000000000000000000000000000000000000000000000000000000000000000000000000000000000000000000000000000000000000000000000000000000000000000000000000000000000000000",
      "type": "0x2",
      "transactionHash": "0x683c7f14b6be8981fb833afc0b09f83582b28f550422e1797337073bc724b981",
      "transactionIndex": "0x6",
      "blockHash": "0x3446f72ba621ca0a6510df5b008fc1983f53affe12a805aa89a5f4acc6551109",
      "blockNumber": "0x1160d89",
      "gasUsed": "0xbd1f",
      "effectiveGasPrice": "0x87c",
      "from": "0xe62ab4d111f968660c6b2188046f9b9ba53c4bae",
      "to": "0x66dc636132fb9b7f6ed858928b65864d3fd0ea67",
      "contractAddress": null,
      "l1BaseFeeScalar": "0x44d",
      "l1BlobBaseFee": "0x1",
      "l1BlobBaseFeeScalar": "0xa118b",
      "l1Fee": "0x1fac4c8a076",
      "l1GasPrice": "0x11facdbea68",
      "l1GasUsed": "0x640"
    },
    {
      "status": "0x1",
      "cumulativeGasUsed": "0x8d712",
      "logs": [],
      "logsBloom": "0x00000000000000000000000000000000000000000000000000000000000000000000000000000000000000000000000000000000000000000000000000000000000000000000000000000000000000000000000000000000000000000000000000000000000000000000000000000000000000000000000000000000000000000000000000000000000000000000000000000000000000000000000000000000000000000000000000000000000000000000000000000000000000000000000000000000000000000000000000000000000000000000000000000000000000000000000000000000000000000000000000000000000000000000000000000000",
      "type": "0x2",
      "transactionHash": "0x2d3f7298fd9e46a91343da5df45f2baa590c6e6958df5b2beaff5b4a2cd2b598",
      "transactionIndex": "0x6",
      "blockHash": "0x9a32052a6edb64bf43c70b5944e5933932aa426e7fe1c01fde8422eb271b3f7f",
      "blockNumber": "0x1160d8d",
      "gasUsed": "0xbd36",
      "effectiveGasPrice": "0x87c",
      "from": "0xe62ab4d111f968660c6b2188046f9b9ba53c4bae",
      "to": "0x66dc636132fb9b7f6ed858928b65864d3fd0ea67",
      "contractAddress": null,
      "l1BaseFeeScalar": "0x44d",
      "l1BlobBaseFee": "0x1",
      "l1BlobBaseFeeScalar": "0xa118b",
      "l1Fee": "0x1f4d13bb58b",
      "l1GasPrice": "0x11c4bfddab4",
      "l1GasUsed": "0x640"
    },
    {
      "status": "0x1",
      "cumulativeGasUsed": "0xd0524",
      "logs": [],
      "logsBloom": "0x00000000000000000000000000000000000000000000000000000000000000000000000000000000000000000000000000000000000000000000000000000000000000000000000000000000000000000000000000000000000000000000000000000000000000000000000000000000000000000000000000000000000000000000000000000000000000000000000000000000000000000000000000000000000000000000000000000000000000000000000000000000000000000000000000000000000000000000000000000000000000000000000000000000000000000000000000000000000000000000000000000000000000000000000000000000",
      "type": "0x2",
      "transactionHash": "0x8f7ea2812bc5a7aca463de05f66f61b57561dfdc42936b3151a29cfeddf575f1",
      "transactionIndex": "0x7",
      "blockHash": "0xf477c5848e0d9498f5d311510c36cd15ef8134594a8ffa6e39f115cb889de1c0",
      "blockNumber": "0x1160d90",
      "gasUsed": "0xbd4d",
      "effectiveGasPrice": "0x87c",
      "from": "0xe62ab4d111f968660c6b2188046f9b9ba53c4bae",
      "to": "0x66dc636132fb9b7f6ed858928b65864d3fd0ea67",
      "contractAddress": null,
      "l1BaseFeeScalar": "0x44d",
      "l1BlobBaseFee": "0x1",
      "l1BlobBaseFeeScalar": "0xa118b",
      "l1Fee": "0x2010f9eb325",
      "l1GasPrice": "0x1233f468e79",
      "l1GasUsed": "0x640"
    },
    {
      "status": "0x1",
      "cumulativeGasUsed": "0x6d850",
      "logs": [],
      "logsBloom": "0x00000000000000000000000000000000000000000000000000000000000000000000000000000000000000000000000000000000000000000000000000000000000000000000000000000000000000000000000000000000000000000000000000000000000000000000000000000000000000000000000000000000000000000000000000000000000000000000000000000000000000000000000000000000000000000000000000000000000000000000000000000000000000000000000000000000000000000000000000000000000000000000000000000000000000000000000000000000000000000000000000000000000000000000000000000000",
      "type": "0x2",
      "transactionHash": "0x3edcc19aba7d6d9679ec4d6814857f26ac7cb7ea5dd615e4de4a02abda383405",
      "transactionIndex": "0x5",
      "blockHash": "0xbe270f87b3105c355395541aab69a2eebc09f51b5c2b04f2e823143fac1169e1",
      "blockNumber": "0x1160d94",
      "gasUsed": "0xbd64",
      "effectiveGasPrice": "0x87c",
      "from": "0xe62ab4d111f968660c6b2188046f9b9ba53c4bae",
      "to": "0x66dc636132fb9b7f6ed858928b65864d3fd0ea67",
      "contractAddress": null,
      "l1BaseFeeScalar": "0x44d",
      "l1BlobBaseFee": "0x1",
      "l1BlobBaseFeeScalar": "0xa118b",
      "l1Fee": "0x2010f9eb325",
      "l1GasPrice": "0x1233f468e79",
      "l1GasUsed": "0x640"
    },
    {
      "status": "0x1",
      "cumulativeGasUsed": "0x67ffa",
      "logs": [],
      "logsBloom": "0x00000000000000000000000000000000000000000000000000000000000000000000000000000000000000000000000000000000000000000000000000000000000000000000000000000000000000000000000000000000000000000000000000000000000000000000000000000000000000000000000000000000000000000000000000000000000000000000000000000000000000000000000000000000000000000000000000000000000000000000000000000000000000000000000000000000000000000000000000000000000000000000000000000000000000000000000000000000000000000000000000000000000000000000000000000000",
      "type": "0x2",
      "transactionHash": "0x8e3d96c8ff3fc6563459121c72c7740a17b68f99199228cfa04426d045e8136a",
      "transactionIndex": "0x5",
      "blockHash": "0xf08b8d8f13a83e92cc69f3b8bfab7d0f896d9a4845267f4d04204210d5ecad32",
      "blockNumber": "0x1160d98",
      "gasUsed": "0xbd76",
      "effectiveGasPrice": "0x87c",
      "from": "0xe62ab4d111f968660c6b2188046f9b9ba53c4bae",
      "to": "0x66dc636132fb9b7f6ed858928b65864d3fd0ea67",
      "contractAddress": null,
      "l1BaseFeeScalar": "0x44d",
      "l1BlobBaseFee": "0x1",
      "l1BlobBaseFeeScalar": "0xa118b",
      "l1Fee": "0x21abfc1e8b8",
      "l1GasPrice": "0x131d452dee0",
      "l1GasUsed": "0x640"
    },
    {
      "status": "0x1",
      "cumulativeGasUsed": "0x8e401",
      "logs": [],
      "logsBloom": "0x00000000000000000000000000000000000000000000000000000000000000000000000000000000000000000000000000000000000000000000000000000000000000000000000000000000000000000000000000000000000000000000000000000000000000000000000000000000000000000000000000000000000000000000000000000000000000000000000000000000000000000000000000000000000000000000000000000000000000000000000000000000000000000000000000000000000000000000000000000000000000000000000000000000000000000000000000000000000000000000000000000000000000000000000000000000",
      "type": "0x2",
      "transactionHash": "0x472ae45a10f7b649c866f3178e14f0a9aa6281d07d86e188e22fa3475cfa8128",
      "transactionIndex": "0x7",
      "blockHash": "0x814275be3616deebd1e07068eab4ade6993ef42766bd79337478a36bb3db6ab8",
      "blockNumber": "0x1160d9b",
      "gasUsed": "0x224ec",
      "effectiveGasPrice": "0x87c",
      "from": "0xe62ab4d111f968660c6b2188046f9b9ba53c4bae",
      "to": "0x66dc636132fb9b7f6ed858928b65864d3fd0ea67",
      "contractAddress": null,
      "l1BaseFeeScalar": "0x44d",
      "l1BlobBaseFee": "0x1",
      "l1BlobBaseFeeScalar": "0xa118b",
      "l1Fee": "0x31511f74ea3",
      "l1GasPrice": "0x131d452dee0",
      "l1GasUsed": "0x927"
    },
    {
      "status": "0x1",
      "cumulativeGasUsed": "0x82d24",
      "logs": [],
      "logsBloom": "0x00000000000000000000000000000000000000000000000000000000000000000000000000000000000000000000000000000000000000000000000000000000000000000000000000000000000000000000000000000000000000000000000000000000000000000000000000000000000000000000000000000000000000000000000000000000000000000000000000000000000000000000000000000000000000000000000000000000000000000000000000000000000000000000000000000000000000000000000000000000000000000000000000000000000000000000000000000000000000000000000000000000000000000000000000000000",
      "type": "0x2",
      "transactionHash": "0x6b8a4e5bd656150229fe4e54f52dada03390cee7c7d57b8fdc879b7714ec6a80",
      "transactionIndex": "0x3",
      "blockHash": "0xcfe7fb8cec3104c88a10ee9226b72af2f4ff60f0e42ba745a55f90135c497600",
      "blockNumber": "0x1160d9c",
      "gasUsed": "0x1e86c",
      "effectiveGasPrice": "0x87c",
      "from": "0xe62ab4d111f968660c6b2188046f9b9ba53c4bae",
      "to": "0x66dc636132fb9b7f6ed858928b65864d3fd0ea67",
      "contractAddress": null,
      "l1BaseFeeScalar": "0x44d",
      "l1BlobBaseFee": "0x1",
      "l1BlobBaseFeeScalar": "0xa118b",
      "l1Fee": "0x2f424695dc3",
      "l1GasPrice": "0x126c0227bcf",
      "l1GasUsed": "0x91a"
    },
    {
      "status": "0x1",
      "cumulativeGasUsed": "0x90020",
      "logs": [],
      "logsBloom": "0x00000000000000000000000000000000000000000000000000000000000000000000000000000000000000000000000000000000000000000000000000000000000000000000000000000000000000000000000000000000000000000000000000000000000000000000000000000000000000000000000000000000000000000000000000000000000000000000000000000000000000000000000000000000000000000000000000000000000000000000000000000000000000000000000000000000000000000000000000000000000000000000000000000000000000000000000000000000000000000000000000000000000000000000000000000000",
      "type": "0x2",
      "transactionHash": "0xe1e197e4ea1865dc75afd18e0127a9dd70921defbba60bed11ddb77bebf4c486",
      "transactionIndex": "0x5",
      "blockHash": "0xf14a2716fa1dd571130eb84d5437fc357465593c274749e95f6ce90d69f95fef",
      "blockNumber": "0x1160d9f",
      "gasUsed": "0x1e86c",
      "effectiveGasPrice": "0x87c",
      "from": "0xe62ab4d111f968660c6b2188046f9b9ba53c4bae",
      "to": "0x66dc636132fb9b7f6ed858928b65864d3fd0ea67",
      "contractAddress": null,
      "l1BaseFeeScalar": "0x44d",
      "l1BlobBaseFee": "0x1",
      "l1BlobBaseFeeScalar": "0xa118b",
      "l1Fee": "0x2f424695dc3",
      "l1GasPrice": "0x126c0227bcf",
      "l1GasUsed": "0x91a"
    },
    {
      "status": "0x1",
      "cumulativeGasUsed": "0xa9e03",
      "logs": [],
      "logsBloom": "0x00000000000000000000000000000000000000000000000000000000000000000000000000000000000000000000000000000000000000000000000000000000000000000000000000000000000000000000000000000000000000000000000000000000000000000000000000000000000000000000000000000000000000000000000000000000000000000000000000000000000000000000000000000000000000000000000000000000000000000000000000000000000000000000000000000000000000000000000000000000000000000000000000000000000000000000000000000000000000000000000000000000000000000000000000000000",
      "type": "0x2",
      "transactionHash": "0x9bf098fbdaaa86237ad6746d1002cb94d878c78dd20a1e0932d7bbb98ee0908d",
      "transactionIndex": "0x5",
      "blockHash": "0xffda76b699415cc110c8ed8f55aa2ee4bf2b615b2646012249603da98a070f75",
      "blockNumber": "0x1160da2",
      "gasUsed": "0x1e3e0",
      "effectiveGasPrice": "0x87c",
      "from": "0xe62ab4d111f968660c6b2188046f9b9ba53c4bae",
      "to": "0x66dc636132fb9b7f6ed858928b65864d3fd0ea67",
      "contractAddress": null,
      "l1BaseFeeScalar": "0x44d",
      "l1BlobBaseFee": "0x1",
      "l1BlobBaseFeeScalar": "0xa118b",
      "l1Fee": "0x297ade6f18c",
      "l1GasPrice": "0x1073e78f71f",
      "l1GasUsed": "0x8f1"
    },
    {
      "status": "0x1",
      "cumulativeGasUsed": "0x9be7b",
      "logs": [],
      "logsBloom": "0x00000000000000000000000000000000000000000000000000000000000000000000000000000000000000000000000000000000000000000000000000000000000000000000000000000000000000000000000000000000000000000000000000000000000000000000000000000000000000000000000000000000000000000000000000000000000000000000000000000000000000000000000000000000000000000000000000000000000000000000000000000000000000000000000000000000000000000000000000000000000000000000000000000000000000000000000000000000000000000000000000000000000000000000000000000000",
      "type": "0x2",
      "transactionHash": "0x295d41fa073b1ae7267c6ff17b3d1876935fac0e882ea32cb4e9793bb0c75b6b",
      "transactionIndex": "0x7",
      "blockHash": "0x8f4faa8ca47ddce74b71742f8458eb75548f715007781c3fc36302a0632f0278",
      "blockNumber": "0x1160da6",
      "gasUsed": "0x1ecf8",
      "effectiveGasPrice": "0x87c",
      "from": "0xe62ab4d111f968660c6b2188046f9b9ba53c4bae",
      "to": "0x66dc636132fb9b7f6ed858928b65864d3fd0ea67",
      "contractAddress": null,
      "l1BaseFeeScalar": "0x44d",
      "l1BlobBaseFee": "0x1",
      "l1BlobBaseFeeScalar": "0xa118b",
      "l1Fee": "0x2ab1328cb9f",
      "l1GasPrice": "0x1073e78f71f",
      "l1GasUsed": "0x934"
    },
    {
      "status": "0x1",
      "cumulativeGasUsed": "0x1339e0",
      "logs": [],
      "logsBloom": "0x00000000000000000000000000000000000000000000000000000000000000000000000000000000000000000000000000000000000000000000000000000000000000000000000000000000000000000000000000000000000000000000000000000000000000000000000000000000000000000000000000000000000000000000000000000000000000000000000000000000000000000000000000000000000000000000000000000000000000000000000000000000000000000000000000000000000000000000000000000000000000000000000000000000000000000000000000000000000000000000000000000000000000000000000000000000",
      "type": "0x2",
      "transactionHash": "0x847090180da00ddbfb85035b0475ff731c15afeed85cd23e0f3b6d94509201be",
      "transactionIndex": "0x5",
      "blockHash": "0x0357e469d08cab1213bc55de375b389e0c37998e3887d37b3c6c00b24fb41e5b",
      "blockNumber": "0x1160daa",
      "gasUsed": "0x7b996",
      "effectiveGasPrice": "0x87c",
      "from": "0xe62ab4d111f968660c6b2188046f9b9ba53c4bae",
      "to": "0xea4a06cb68aba869e6bf98edc4bdbc731d2d82e3",
      "contractAddress": null,
      "l1BaseFeeScalar": "0x44d",
      "l1BlobBaseFee": "0x1",
      "l1BlobBaseFeeScalar": "0xa118b",
      "l1Fee": "0x5e1c4e39db7",
      "l1GasPrice": "0x10d8d37a220",
      "l1GasUsed": "0x13d1"
    },
    {
      "status": "0x1",
      "cumulativeGasUsed": "0xe755c",
      "logs": [],
      "logsBloom": "0x00000000000000000000000000000000000000000000000000000000000000000000000000000000000000000000000000000000000000000000000000000000000000000000000000000000000000000000000000000000000000000000000000000000000000000000000000000000000000000000000000000000000000000000000000000000000000000000000000000000000000000000000000000000000000000000000000000000000000000000000000000000000000000000000000000000000000000000000000000000000000000000000000000000000000000000000000000000000000000000000000000000000000000000000000000000",
      "type": "0x2",
      "transactionHash": "0xaa4f009045e35f3490a2493c72477bc26dd932728b3be1480c6c44c42b27bae3",
      "transactionIndex": "0x5",
      "blockHash": "0x012c0169426f598527da3072cb3bdc3c7124e9094d5a41e49daa97e57eb8cf94",
      "blockNumber": "0x1160dad",
      "gasUsed": "0x9bdda",
      "effectiveGasPrice": "0x87c",
      "from": "0xe62ab4d111f968660c6b2188046f9b9ba53c4bae",
      "to": "0xea4a06cb68aba869e6bf98edc4bdbc731d2d82e3",
      "contractAddress": null,
      "l1BaseFeeScalar": "0x44d",
      "l1BlobBaseFee": "0x1",
      "l1BlobBaseFeeScalar": "0xa118b",
      "l1Fee": "0x7238169cd23",
      "l1GasPrice": "0x10d8d37a220",
      "l1GasUsed": "0x180d"
    },
    {
      "status": "0x1",
      "cumulativeGasUsed": "0x1330b0",
      "logs": [],
      "logsBloom": "0x00000000000000000000000000000000000000000000000000000000000000000000000000000000000000000000000000000000000000000000000000000000000000000000000000000000000000000000000000000000000000000000000000000000000000000000000000000000000000000000000000000000000000000000000000000000000000000000000000000000000000000000000000000000000000000000000000000000000000000000000000000000000000000000000000000000000000000000000000000000000000000000000000000000000000000000000000000000000000000000000000000000000000000000000000000000",
      "type": "0x2",
      "transactionHash": "0xf8598a2eacf85c20ccb8c0bb8ad04e673a1ddbd13a800286a6d444028e7cca02",
      "transactionIndex": "0x7",
      "blockHash": "0x16e4784cf97b7c00f732a24a5cf98c642530e506210de063de017247db0cad11",
      "blockNumber": "0x1160db1",
      "gasUsed": "0x9bc89",
      "effectiveGasPrice": "0x87c",
      "from": "0xe62ab4d111f968660c6b2188046f9b9ba53c4bae",
      "to": "0xea4a06cb68aba869e6bf98edc4bdbc731d2d82e3",
      "contractAddress": null,
      "l1BaseFeeScalar": "0x44d",
      "l1BlobBaseFee": "0x1",
      "l1BlobBaseFeeScalar": "0xa118b",
      "l1Fee": "0x6abf9fae580",
      "l1GasPrice": "0xfc785e8d89",
      "l1GasUsed": "0x1800"
    }
  ],
  "libraries": [],
  "pending": [],
  "returns": {},
  "timestamp": 1732213319,
  "chain": 84532,
  "commit": "4b2e1f8c"
}