{
  "transactions": [
    {
      "hash": "0x211bd8b3cf66acd91ddcac512067b86647a665785be2f86f872e015c329607a5",
      "transactionType": "CALL",
      "contractName": "FeeManager",
      "contractAddress": "0x5b4d2c1b2e918ff1b0de85803f5a737e5f816ecb",
      "function": "getFeeTokenList()",
      "arguments": [],
      "transaction": {
        "from": "0xe62ab4d111f968660c6b2188046f9b9ba53c4bae",
        "to": "0x5b4d2c1b2e918ff1b0de85803f5a737e5f816ecb",
        "gas": "0x8a7e",
        "value": "0x0",
        "input": "0xe28ab277",
        "nonce": "0x2de",
        "chainId": "0x14a34"
      },
      "additionalContracts": [],
      "isFixedGasLimit": false
    },
    {
      "hash": "0x9e3b52039c2c8972e28cf0f4c4064179a55451ab811ca8bbc851ffa59d995073",
      "transactionType": "CALL",
      "contractName": "FeeManager",
      "contractAddress": "0x5b4d2c1b2e918ff1b0de85803f5a737e5f816ecb",
      "function": "addFeeToken(string)",
      "arguments": [
        "0x6a4dbc971533ba36bdc23ad70f5a7a12e064f4ae"
      ],
      "transaction": {
        "from": "0xe62ab4d111f968660c6b2188046f9b9ba53c4bae",
        "to": "0x5b4d2c1b2e918ff1b0de85803f5a737e5f816ecb",
        "gas": "0x2696b",
        "value": "0x0",
        "input": "0x12a6385f0000000000000000000000000000000000000000000000000000000000000020000000000000000000000000000000000000000000000000000000000000002a30783661346462633937313533336261333662646332336164373066356137613132653036346634616500000000000000000000000000000000000000000000",
        "nonce": "0x2df",
        "chainId": "0x14a34"
      },
      "additionalContracts": [],
      "isFixedGasLimit": false
    },
    {
      "hash": "0x51d64c4e35512a4aa97a23395d5c79f45f53176b03d38d2dc1c7c0daa5f577ef",
      "transactionType": "CALL",
      "contractName": "FeeManager",
      "contractAddress": "0x5b4d2c1b2e918ff1b0de85803f5a737e5f816ecb",
      "function": "setFeeMultiplier(uint8,uint256)",
      "arguments": [
        "0",
        "2"
      ],
      "transaction": {
        "from": "0xe62ab4d111f968660c6b2188046f9b9ba53c4bae",
        "to": "0x5b4d2c1b2e918ff1b0de85803f5a737e5f816ecb",
        "gas": "0x112e8",
        "value": "0x0",
        "input": "0x0ee24eb500000000000000000000000000000000000000000000000000000000000000000000000000000000000000000000000000000000000000000000000000000002",
        "nonce": "0x2e0",
        "chainId": "0x14a34"
      },
      "additionalContracts": [],
      "isFixedGasLimit": false
    },
    {
      "hash": "0x8eeba7375ea4e1d6cfaa238b6ca5deed51b06a3152e8f89881fbb4b857542168",
      "transactionType": "CALL",
      "contractName": "FeeManager",
      "contractAddress": "0x5b4d2c1b2e918ff1b0de85803f5a737e5f816ecb",
      "function": "setFeeMultiplier(uint8,uint256)",
      "arguments": [
        "1",
        "10"
      ],
      "transaction": {
        "from": "0xe62ab4d111f968660c6b2188046f9b9ba53c4bae",
        "to": "0x5b4d2c1b2e918ff1b0de85803f5a737e5f816ecb",
        "gas": "0x11324",
        "value": "0x0",
        "input": "0x0ee24eb50000000000000000000000000000000000000000000000000000000000000001000000000000000000000000000000000000000000000000000000000000000a",
        "nonce": "0x2e1",
        "chainId": "0x14a34"
      },
      "additionalContracts": [],
      "isFixedGasLimit": false
    },
    {
      "hash": "0xb9693351919dd21c9fe79dcb22bca35c2b2bcadd7b024515df329da7f74c52ce",
      "transactionType": "CALL",
      "contractName": "FeeManager",
      "contractAddress": "0x5b4d2c1b2e918ff1b0de85803f5a737e5f816ecb",
      "function": "setFeeMultiplier(uint8,uint256)",
      "arguments": [
        "2",
        "1"
      ],
      "transaction": {
        "from": "0xe62ab4d111f968660c6b2188046f9b9ba53c4bae",
        "to": "0x5b4d2c1b2e918ff1b0de85803f5a737e5f816ecb",
        "gas": "0x11346",
        "value": "0x0",
        "input": "0x0ee24eb500000000000000000000000000000000000000000000000000000000000000020000000000000000000000000000000000000000000000000000000000000001",
        "nonce": "0x2e2",
        "chainId": "0x14a34"
      },
      "additionalContracts": [],
      "isFixedGasLimit": false
    },
    {
      "hash": "0xdc57fb48dac1e744ab4b4b983fdda3856d44c47fecc003af9708701a5211275e",
      "transactionType": "CALL",
      "contractName": "FeeManager",
      "contractAddress": "0x5b4d2c1b2e918ff1b0de85803f5a737e5f816ecb",
      "function": "setFeeMultiplier(uint8,uint256)",
      "arguments": [
        "3",
        "4"
      ],
      "transaction": {
        "from": "0xe62ab4d111f968660c6b2188046f9b9ba53c4bae",
        "to": "0x5b4d2c1b2e918ff1b0de85803f5a737e5f816ecb",
        "gas": "0x1041b",
        "value": "0x0",
        "input": "0x0ee24eb500000000000000000000000000000000000000000000000000000000000000030000000000000000000000000000000000000000000000000000000000000004",
        "nonce": "0x2e3",
        "chainId": "0x14a34"
      },
      "additionalContracts": [],
      "isFixedGasLimit": false
    },
    {
      "hash": "0xe4fe85a831e2b9b0783d0a0a5db07a0d66ab14dbdcad95005139a79ec6e9dae4",
      "transactionType": "CALL",
      "contractName": "FeeManager",
      "contractAddress": "0x5b4d2c1b2e918ff1b0de85803f5a737e5f816ecb",
      "function": "setFeeMultiplier(uint8,uint256)",
      "arguments": [
        "4",
        "4"
      ],
      "transaction": {
        "from": "0xe62ab4d111f968660c6b2188046f9b9ba53c4bae",
        "to": "0x5b4d2c1b2e918ff1b0de85803f5a737e5f816ecb",
        "gas": "0x1043a",
        "value": "0x0",
        "input": "0x0ee24eb500000000000000000000000000000000000000000000000000000000000000040000000000000000000000000000000000000000000000000000000000000004",
        "nonce": "0x2e4",
        "chainId": "0x14a34"
      },
      "additionalContracts": [],
      "isFixedGasLimit": false
    },
    {
      "hash": "0xc7e0096fe8372e589e702aa802f393c17de54ddedd1c273908f851cf2eedb9c1",
      "transactionType": "CALL",
      "contractName": "FeeManager",
      "contractAddress": "0x5b4d2c1b2e918ff1b0de85803f5a737e5f816ecb",
      "function": "setFeeMultiplier(uint8,uint256)",
      "arguments": [
        "5",
        "4"
      ],
      "transaction": {
        "from": "0xe62ab4d111f968660c6b2188046f9b9ba53c4bae",
        "to": "0x5b4d2c1b2e918ff1b0de85803f5a737e5f816ecb",
        "gas": "0x10459",
        "value": "0x0",
        "input": "0x0ee24eb500000000000000000000000000000000000000000000000000000000000000050000000000000000000000000000000000000000000000000000000000000004",
        "nonce": "0x2e5",
        "chainId": "0x14a34"
      },
      "additionalContracts": [],
      "isFixedGasLimit": false
    },
    {
      "hash": "0x4965e646e060cbb5ad04da0c7f6350905d924d0e1b288d9055b29276c1cbdb06",
      "transactionType": "CALL",
      "contractName": "FeeManager",
      "contractAddress": "0x5b4d2c1b2e918ff1b0de85803f5a737e5f816ecb",
      "function": "setFeeMultiplier(uint8,uint256)",
      "arguments": [
        "6",
        "8"
      ],
      "transaction": {
        "from": "0xe62ab4d111f968660c6b2188046f9b9ba53c4bae",
        "to": "0x5b4d2c1b2e918ff1b0de85803f5a737e5f816ecb",
        "gas": "0x1047a",
        "value": "0x0",
        "input": "0x0ee24eb500000000000000000000000000000000000000000000000000000000000000060000000000000000000000000000000000000000000000000000000000000008",
        "nonce": "0x2e6",
        "chainId": "0x14a34"
      },
      "additionalContracts": [],
      "isFixedGasLimit": false
    },
    {
      "hash": "0x8c486396e4b34a50cec612dd0b648121613d697c079d5daf6537272644d4c0e5",
      "transactionType": "CALL",
      "contractName": "FeeManager",
      "contractAddress": "0x5b4d2c1b2e918ff1b0de85803f5a737e5f816ecb",
      "function": "setFeeMultiplier(uint8,uint256)",
      "arguments": [
        "7",
        "4"
      ],
      "transaction": {
        "from": "0xe62ab4d111f968660c6b2188046f9b9ba53c4bae",
        "to": "0x5b4d2c1b2e918ff1b0de85803f5a737e5f816ecb",
        "gas": "0x10499",
        "value": "0x0",
        "input": "0x0ee24eb500000000000000000000000000000000000000000000000000000000000000070000000000000000000000000000000000000000000000000000000000000004",
        "nonce": "0x2e7",
        "chainId": "0x14a34"
      },
      "additionalContracts": [],
      "isFixedGasLimit": false
    },
    {
      "hash": "0x077e87afe6be2a35f3db2ccb298357055bbd7a20883313fa0034db6178d0d6c6",
      "transactionType": "CALL",
      "contractName": "FeeManager",
      "contractAddress": "0x5b4d2c1b2e918ff1b0de85803f5a737e5f816ecb",
      "function": "setFeeMultiplier(uint8,uint256)",
      "arguments": [
        "8",
        "10"
      ],
      "transaction": {
        "from": "0xe62ab4d111f968660c6b2188046f9b9ba53c4bae",
        "to": "0x5b4d2c1b2e918ff1b0de85803f5a737e5f816ecb",
        "gas": "0x1140f",
        "value": "0x0",
        "input": "0x0ee24eb50000000000000000000000000000000000000000000000000000000000000008000000000000000000000000000000000000000000000000000000000000000a",
        "nonce": "0x2e8",
        "chainId": "0x14a34"
      },
      "additionalContracts": [],
      "isFixedGasLimit": false
    },
    {
      "hash": "0xc7c6a1c4f4398e21d5d2d608d32b25eb47e723e142b3ccfb41b5446c801c3b01",
      "transactionType": "CALL",
      "contractName": "FeeManager",
      "contractAddress": "0x5b4d2c1b2e918ff1b0de85803f5a737e5f816ecb",
      "function": "setFeeMultiplier(uint8,uint256)",
      "arguments": [
        "9",
        "8"
      ],
      "transaction": {
        "from": "0xe62ab4d111f968660c6b2188046f9b9ba53c4bae",
        "to": "0x5b4d2c1b2e918ff1b0de85803f5a737e5f816ecb",
        "gas": "0x11431",
        "value": "0x0",
        "input": "0x0ee24eb500000000000000000000000000000000000000000000000000000000000000090000000000000000000000000000000000000000000000000000000000000008",
        "nonce": "0x2e9",
        "chainId": "0x14a34"
      },
      "additionalContracts": [],
      "isFixedGasLimit": false
    },
    {
      "hash": "0xa5784e2ed3aad303cc947dd8805620a762cd40c38a0e94f49cedee3dc01bb1dd",
      "transactionType": "CALL",
      "contractName": "FeeManager",
      "contractAddress": "0x5b4d2c1b2e918ff1b0de85803f5a737e5f816ecb",
      "function": "setFeeMultiplier(uint8,uint256)",
      "arguments": [
        "10",
        "8"
      ],
      "transaction": {
        "from": "0xe62ab4d111f968660c6b2188046f9b9ba53c4bae",
        "to": "0x5b4d2c1b2e918ff1b0de85803f5a737e5f816ecb",
        "gas": "0x11453",
        "value": "0x0",
        "input": "0x0ee24eb5000000000000000000000000000000000000000000000000000000000000000a0000000000000000000000000000000000000000000000000000000000000008",
        "nonce": "0x2ea",
        "chainId": "0x14a34"
      },
      "additionalContracts": [],
      "isFixedGasLimit": false
    },
    {
      "hash": "0xac0c4a5fedc2977bd1f937a5dbdcfc4325a9ececefbbf2f7a4127fc061f253ac",
      "transactionType": "CALL",
      "contractName": "FeeManager",
      "contractAddress": "0x5b4d2c1b2e918ff1b0de85803f5a737e5f816ecb",
      "function": "setFeeMultiplier(uint8,uint256)",
      "arguments": [
        "11",
        "8"
      ],
      "transaction": {
        "from": "0xe62ab4d111f968660c6b2188046f9b9ba53c4bae",
        "to": "0x5b4d2c1b2e918ff1b0de85803f5a737e5f816ecb",
        "gas": "0x10518",
        "value": "0x0",
        "input": "0x0ee24eb5000000000000000000000000000000000000000000000000000000000000000b0000000000000000000000000000000000000000000000000000000000000008",
        "nonce": "0x2eb",
        "chainId": "0x14a34"
      },
      "additionalContracts": [],
      "isFixedGasLimit": false
    },
    {
      "hash": "0x5d9b2f56e1e785cd67491d611a36df6c25420a9ec953a689be38c42da9ba05c5",
      "transactionType": "CALL",
      "contractName": "FeeManager",
      "contractAddress": "0x5b4d2c1b2e918ff1b0de85803f5a737e5f816ecb",
      "function": "setFeeMultiplier(uint8,uint256)",
      "arguments": [
        "12",
        "20"
      ],
      "transaction": {
        "from": "0xe62ab4d111f968660c6b2188046f9b9ba53c4bae",
        "to": "0x5b4d2c1b2e918ff1b0de85803f5a737e5f816ecb",
        "gas": "0x10538",
        "value": "0x0",
        "input": "0x0ee24eb5000000000000000000000000000000000000000000000000000000000000000c0000000000000000000000000000000000000000000000000000000000000014",
        "nonce": "0x2ec",
        "chainId": "0x14a34"
      },
      "additionalContracts": [],
      "isFixedGasLimit": false
    },
    {
      "hash": "0x89ad985a27d1daa670f48a9e2640a1f5c45d67ba4cb32081821054c98c896663",
      "transactionType": "CALL",
      "contractName": "FeeManager",
      "contractAddress": "0x5b4d2c1b2e918ff1b0de85803f5a737e5f816ecb",
      "function": "setFeeMultiplier(uint8,uint256)",
      "arguments": [
        "13",
        "8"
      ],
      "transaction": {
        "from": "0xe62ab4d111f968660c6b2188046f9b9ba53c4bae",
        "to": "0x5b4d2c1b2e918ff1b0de85803f5a737e5f816ecb",
        "gas": "0x10558",
        "value": "0x0",
        "input": "0x0ee24eb5000000000000000000000000000000000000000000000000000000000000000d0000000000000000000000000000000000000000000000000000000000000008",
        "nonce": "0x2ed",
        "chainId": "0x14a34"
      },
      "additionalContracts": [],
      "isFixedGasLimit": false
    },
    {
      "hash": "0x057efa56737c7a4a86ef7c39965b16efe28d73bf6ab11f8fc6a71f1b4ae5019b",
      "transactionType": "CALL",
      "contractName": "FeeManager",
      "contractAddress": "0x5b4d2c1b2e918ff1b0de85803f5a737e5f816ecb",
      "function": "setFeeMultiplier(uint8,uint256)",
      "arguments": [
        "14",
        "4"
      ],
      "transaction": {
        "from": "0xe62ab4d111f968660c6b2188046f9b9ba53c4bae",
        "to": "0x5b4d2c1b2e918ff1b0de85803f5a737e5f816ecb",
        "gas": "0x10577",
        "value": "0x0",
        "input": "0x0ee24eb5000000000000000000000000000000000000000000000000000000000000000e0000000000000000000000000000000000000000000000000000000000000004",
        "nonce": "0x2ee",
        "chainId": "0x14a34"
      },
      "additionalContracts": [],
      "isFixedGasLimit": false
    },
    {
      "hash": "0x8359ca93243e1635fc104dbdcc89a8d132831eb3ef413840f301bce7fd2c7826",
      "transactionType": "CALL",
      "contractName": "FeeManager",
      "contractAddress": "0x5b4d2c1b2e918ff1b0de85803f5a737e5f816ecb",
      "function": "setFeeMultiplier(uint8,uint256)",
      "arguments": [
        "15",
        "4"
      ],
      "transaction": {
        "from": "0xe62ab4d111f968660c6b2188046f9b9ba53c4bae",
        "to": "0x5b4d2c1b2e918ff1b0de85803f5a737e5f816ecb",
        "gas": "0x10598",
        "value": "0x0",
        "input": "0x0ee24eb5000000000000000000000000000000000000000000000000000000000000000f0000000000000000000000000000000000000000000000000000000000000004",
        "nonce": "0x2ef",
        "chainId": "0x14a34"
      },
      "additionalContracts": [],
      "isFixedGasLimit": false
    },
    {
      "hash": "0x6bb9b0fa381fa5be2093e094143ad50b67857c67faae4db574cadf59498f02e7",
      "transactionType": "CALL",
      "contractName": "FeeManager",
      "contractAddress": "0x5b4d2c1b2e918ff1b0de85803f5a737e5f816ecb",
      "function": "setFeeMultiplier(uint8,uint256)",
      "arguments": [
        "16",
        "4"
      ],
      "transaction": {
        "from": "0xe62ab4d111f968660c6b2188046f9b9ba53c4bae",
        "to": "0x5b4d2c1b2e918ff1b0de85803f5a737e5f816ecb",
        "gas": "0x1151d",
        "value": "0x0",
        "input": "0x0ee24eb500000000000000000000000000000000000000000000000000000000000000100000000000000000000000000000000000000000000000000000000000000004",
        "nonce": "0x2f0",
        "chainId": "0x14a34"
      },
      "additionalContracts": [],
      "isFixedGasLimit": false
    },
    {
      "hash": "0x0b39a002e34118d3a468c0f331d75f1e196a688bc286af3e1f27113e97a72d66",
      "transactionType": "CALL",
      "contractName": "FeeManager",
      "contractAddress": "0x5b4d2c1b2e918ff1b0de85803f5a737e5f816ecb",
      "function": "setFeeMultiplier(uint8,uint256)",
      "arguments": [
        "17",
        "4"
      ],
      "transaction": {
        "from": "0xe62ab4d111f968660c6b2188046f9b9ba53c4bae",
        "to": "0x5b4d2c1b2e918ff1b0de85803f5a737e5f816ecb",
        "gas": "0x1153e",
        "value": "0x0",
        "input": "0x0ee24eb500000000000000000000000000000000000000000000000000000000000000110000000000000000000000000000000000000000000000000000000000000004",
        "nonce": "0x2f1",
        "chainId": "0x14a34"
      },
      "additionalContracts": [],
      "isFixedGasLimit": false
    },
    {
      "hash": "0x7bcafb67d1e190b582bad690337e2d8e893492774f5d118bcc3fc806a404e13c",
      "transactionType": "CALL",
      "contractName": "FeeManager",
      "contractAddress": "0x5b4d2c1b2e918ff1b0de85803f5a737e5f816ecb",
      "function": "setFeeMultiplier(uint8,uint256)",
      "arguments": [
        "18",
        "2"
      ],
      "transaction": {
        "from": "0xe62ab4d111f968660c6b2188046f9b9ba53c4bae",
        "to": "0x5b4d2c1b2e918ff1b0de85803f5a737e5f816ecb",
        "gas": "0x11560",
        "value": "0x0",
        "input": "0x0ee24eb500000000000000000000000000000000000000000000000000000000000000120000000000000000000000000000000000000000000000000000000000000002",
        "nonce": "0x2f2",
        "chainId": "0x14a34"
      },
      "additionalContracts": [],
      "isFixedGasLimit": false
    },
    {
      "hash": "0x7e2fc1ec6d1a04d521489a41dbc2db792de8c99c955d34cfe43ef4d5e74eba7d",
      "transactionType": "CALL",
      "contractName": "FeeManager",
      "contractAddress": "0x5b4d2c1b2e918ff1b0de85803f5a737e5f816ecb",
      "function": "setFeeMultiplier(uint8,uint256)",
      "arguments": [
        "19",
        "20"
      ],
      "transaction": {
        "from": "0xe62ab4d111f968660c6b2188046f9b9ba53c4bae",
        "to": "0x5b4d2c1b2e918ff1b0de85803f5a737e5f816ecb",
        "gas": "0x10617",
        "value": "0x0",
        "input": "0x0ee24eb500000000000000000000000000000000000000000000000000000000000000130000000000000000000000000000000000000000000000000000000000000014",
        "nonce": "0x2f3",
        "chainId": "0x14a34"
      },
      "additionalContracts": [],
      "isFixedGasLimit": false
    },
    {
      "hash": "0x7fbe2fed4661beede1638c0f9ecad397c1f3add945c22ac636388f4e45746043",
      "transactionType": "CALL",
      "contractName": "FeeManager",
      "contractAddress": "0x5b4d2c1b2e918ff1b0de85803f5a737e5f816ecb",
      "function": "setFeeMultiplier(uint8,uint256)",
      "arguments": [
        "20",
        "2"
      ],
      "transaction": {
        "from": "0xe62ab4d111f968660c6b2188046f9b9ba53c4bae",
        "to": "0x5b4d2c1b2e918ff1b0de85803f5a737e5f816ecb",
        "gas": "0x1159c",
        "value": "0x0",
        "input": "0x0ee24eb500000000000000000000000000000000000000000000000000000000000000140000000000000000000000000000000000000000000000000000000000000002",
        "nonce": "0x2f4",
        "chainId": "0x14a34"
      },
      "additionalContracts": [],
      "isFixedGasLimit": false
    },
    {
      "hash": "0x4c2294a1fb488aa1ff5250446c1223d53705d8160a29577787ca82cefabda68b",
      "transactionType": "CALL",
      "contractName": "FeeManager",
      "contractAddress": "0x5b4d2c1b2e918ff1b0de85803f5a737e5f816ecb",
      "function": "addFeeToken(string,string[],uint256[])",
      "arguments": [
        "421614",
        "[0x6a4dbc971533ba36bdc23ad70f5a7a12e064f4ae]",
        "[100]"
      ],
      "transaction": {
        "from": "0xe62ab4d111f968660c6b2188046f9b9ba53c4bae",
        "to": "0x5b4d2c1b2e918ff1b0de85803f5a737e5f816ecb",
        "gas": "0x2f631",
        "value": "0x0",
        "input": "0x437bf84f000000000000000000000000000000000000000000000000000000000000006000000000000000000000000000000000000000000000000000000000000000a000000000000000000000000000000000000000000000000000000000000001400000000000000000000000000000000000000000000000000000000000000006343231363134000000000000000000000000000000000000000000000000000000000000000000000000000000000000000000000000000000000000000000010000000000000000000000000000000000000000000000000000000000000020000000000000000000000000000000000000000000000000000000000000002a3078366134646263393731353333626133366264633233616437306635613761313265303634663461650000000000000000000000000000000000000000000000000000000000000000000000000000000000000000000000000000000000010000000000000000000000000000000000000000000000000000000000000064",
        "nonce": "0x2f5",
        "chainId": "0x14a34"
      },
      "additionalContracts": [],
      "isFixedGasLimit": false
    },
    {
      "hash": "0xad0670dad60e83e7185ec248b411a83b9f03ea3e9225e709415ef7eb340651e4",
      "transactionType": "CALL",
      "contractName": "FeeManager",
      "contractAddress": "0x5b4d2c1b2e918ff1b0de85803f5a737e5f816ecb",
      "function": "addFeeToken(string,string[],uint256[])",
      "arguments": [
        "80002",
        "[0x6a4dbc971533ba36bdc23ad70f5a7a12e064f4ae]",
        "[100]"
      ],
      "transaction": {
        "from": "0xe62ab4d111f968660c6b2188046f9b9ba53c4bae",
        "to": "0x5b4d2c1b2e918ff1b0de85803f5a737e5f816ecb",
        "gas": "0x2a2a1",
        "value": "0x0",
        "input": "0x437bf84f000000000000000000000000000000000000000000000000000000000000006000000000000000000000000000000000000000000000000000000000000000a000000000000000000000000000000000000000000000000000000000000001400000000000000000000000000000000000000000000000000000000000000005383030303200000000000000000000000000000000000000000000000000000000000000000000000000000000000000000000000000000000000000000000010000000000000000000000000000000000000000000000000000000000000020000000000000000000000000000000000000000000000000000000000000002a3078366134646263393731353333626133366264633233616437306635613761313265303634663461650000000000000000000000000000000000000000000000000000000000000000000000000000000000000000000000000000000000010000000000000000000000000000000000000000000000000000000000000064",
        "nonce": "0x2f6",
        "chainId": "0x14a34"
      },
      "additionalContracts": [],
      "isFixedGasLimit": false
    },
    {
      "hash": "0xca7827fb25fe4dab2c19bc3cc4bbbad415f3faa9f0a3d90699b87678ffff3863",
      "transactionType": "CALL",
      "contractName": "FeeManager",
      "contractAddress": "0x5b4d2c1b2e918ff1b0de85803f5a737e5f816ecb",
      "function": "addFeeToken(string,string[],uint256[])",
      "arguments": [
        "84532",
        "[0x6a4dbc971533ba36bdc23ad70f5a7a12e064f4ae]",
        "[100]"
      ],
      "transaction": {
        "from": "0xe62ab4d111f968660c6b2188046f9b9ba53c4bae",
        "to": "0x5b4d2c1b2e918ff1b0de85803f5a737e5f816ecb",
        "gas": "0x2a2a1",
        "value": "0x0",
        "input": "0x437bf84f000000000000000000000000000000000000000000000000000000000000006000000000000000000000000000000000000000000000000000000000000000a000000000000000000000000000000000000000000000000000000000000001400000000000000000000000000000000000000000000000000000000000000005383435333200000000000000000000000000000000000000000000000000000000000000000000000000000000000000000000000000000000000000000000010000000000000000000000000000000000000000000000000000000000000020000000000000000000000000000000000000000000000000000000000000002a3078366134646263393731353333626133366264633233616437306635613761313265303634663461650000000000000000000000000000000000000000000000000000000000000000000000000000000000000000000000000000000000010000000000000000000000000000000000000000000000000000000000000064",
        "nonce": "0x2f7",
        "chainId": "0x14a34"
      },
      "additionalContracts": [],
      "isFixedGasLimit": false
    },
    {
      "hash": "0xaeefcf1abf9bf7f2b4a15624c7eadb7f6618ac98b4189b836d13e3e56775346f",
      "transactionType": "CALL",
      "contractName": "FeeManager",
      "contractAddress": "0x5b4d2c1b2e918ff1b0de85803f5a737e5f816ecb",
      "function": "addFeeToken(string,string[],uint256[])",
      "arguments": [
        "59141",
        "[0x6a4dbc971533ba36bdc23ad70f5a7a12e064f4ae]",
        "[100]"
      ],
      "transaction": {
        "from": "0xe62ab4d111f968660c6b2188046f9b9ba53c4bae",
        "to": "0x5b4d2c1b2e918ff1b0de85803f5a737e5f816ecb",
        "gas": "0x2a2a1",
        "value": "0x0",
        "input": "0x437bf84f000000000000000000000000000000000000000000000000000000000000006000000000000000000000000000000000000000000000000000000000000000a000000000000000000000000000000000000000000000000000000000000001400000000000000000000000000000000000000000000000000000000000000005353931343100000000000000000000000000000000000000000000000000000000000000000000000000000000000000000000000000000000000000000000010000000000000000000000000000000000000000000000000000000000000020000000000000000000000000000000000000000000000000000000000000002a3078366134646263393731353333626133366264633233616437306635613761313265303634663461650000000000000000000000000000000000000000000000000000000000000000000000000000000000000000000000000000000000010000000000000000000000000000000000000000000000000000000000000064",
        "nonce": "0x2f8",
        "chainId": "0x14a34"
      },
      "additionalContracts": [],
      "isFixedGasLimit": false
    },
    {
      "hash": "0x95402c105702ec1e74d7ff077cf4ae8f43d4fde2f744e86b232f8929fd088f23",
      "transactionType": "CALL",
      "contractName": "FeeManager",
      "contractAddress": "0x5b4d2c1b2e918ff1b0de85803f5a737e5f816ecb",
      "function": "addFeeToken(string,string[],uint256[])",
      "arguments": [
        "1115",
        "[0x6a4dbc971533ba36bdc23ad70f5a7a12e064f4ae]",
        "[100]"
      ],
      "transaction": {
        "from": "0xe62ab4d111f968660c6b2188046f9b9ba53c4bae",
        "to": "0x5b4d2c1b2e918ff1b0de85803f5a737e5f816ecb",
        "gas": "0x2a089",
        "value": "0x0",
        "input": "0x437bf84f000000000000000000000000000000000000000000000000000000000000006000000000000000000000000000000000000000000000000000000000000000a000000000000000000000000000000000000000000000000000000000000001400000000000000000000000000000000000000000000000000000000000000004313131350000000000000000000000000000000000000000000000000000000000000000000000000000000000000000000000000000000000000000000000010000000000000000000000000000000000000000000000000000000000000020000000000000000000000000000000000000000000000000000000000000002a3078366134646263393731353333626133366264633233616437306635613761313265303634663461650000000000000000000000000000000000000000000000000000000000000000000000000000000000000000000000000000000000010000000000000000000000000000000000000000000000000000000000000064",
        "nonce": "0x2f9",
        "chainId": "0x14a34"
      },
      "additionalContracts": [],
      "isFixedGasLimit": false
    },
    {
      "hash": "0xdca60ee72950db66e843ceddb6bdba100ad3c7278954aa70b6546026dc62244e",
      "transactionType": "CALL",
      "contractName": "FeeManager",
      "contractAddress": "0x5b4d2c1b2e918ff1b0de85803f5a737e5f816ecb",
      "function": "addFeeToken(string,string[],uint256[])",
      "arguments": [
        "17000",
        "[0x6a4dbc971533ba36bdc23ad70f5a7a12e064f4ae]",
        "[100]"
      ],
      "transaction": {
        "from": "0xe62ab4d111f968660c6b2188046f9b9ba53c4bae",
        "to": "0x5b4d2c1b2e918ff1b0de85803f5a737e5f816ecb",
        "gas": "0x2a2a1",
        "value": "0x0",
        "input": "0x437bf84f000000000000000000000000000000000000000000000000000000000000006000000000000000000000000000000000000000000000000000000000000000a000000000000000000000000000000000000000000000000000000000000001400000000000000000000000000000000000000000000000000000000000000005313730303000000000000000000000000000000000000000000000000000000000000000000000000000000000000000000000000000000000000000000000010000000000000000000000000000000000000000000000000000000000000020000000000000000000000000000000000000000000000000000000000000002a3078366134646263393731353333626133366264633233616437306635613761313265303634663461650000000000000000000000000000000000000000000000000000000000000000000000000000000000000000000000000000000000010000000000000000000000000000000000000000000000000000000000000064",
        "nonce": "0x2fa",
        "chainId": "0x14a34"
      },
      "additionalContracts": [],
      "isFixedGasLimit": false
    },
    {
      "hash": "0x588a4f59b090ac07e4512a7e01ae92ab971106ec637ca4ac0f21c6f0220af1eb",
      "transactionType": "CALL",
      "contractName": "FeeManager",
      "contractAddress": "0x5b4d2c1b2e918ff1b0de85803f5a737e5f816ecb",
      "function": "addFeeToken(string,string[],uint256[])",
      "arguments": [
        "2810",
        "[0x6a4dbc971533ba36bdc23ad70f5a7a12e064f4ae]",
        "[100]"
      ],
      "transaction": {
        "from": "0xe62ab4d111f968660c6b2188046f9b9ba53c4bae",
        "to": "0x5b4d2c1b2e918ff1b0de85803f5a737e5f816ecb",
        "gas": "0x2a089",
        "value": "0x0",
        "input": "0x437bf84f000000000000000000000000000000000000000000000000000000000000006000000000000000000000000000000000000000000000000000000000000000a000000000000000000000000000000000000000000000000000000000000001400000000000000000000000000000000000000000000000000000000000000004323831300000000000000000000000000000000000000000000000000000000000000000000000000000000000000000000000000000000000000000000000010000000000000000000000000000000000000000000000000000000000000020000000000000000000000000000000000000000000000000000000000000002a3078366134646263393731353333626133366264633233616437306635613761313265303634663461650000000000000000000000000000000000000000000000000000000000000000000000000000000000000000000000000000000000010000000000000000000000000000000000000000000000000000000000000064",
        "nonce": "0x2fb",
        "chainId": "0x14a34"
      },
      "additionalContracts": [],
      "isFixedGasLimit": false
    },
    {
      "hash": "0xc29aa60672869fd927cb98f66e778601b5bcfa8357a9c532a334b6a7cd54d162",
      "transactionType": "CALL",
      "contractName": "FeeManager",
      "contractAddress": "0x5b4d2c1b2e918ff1b0de85803f5a737e5f816ecb",
      "function": "addFeeToken(string,string[],uint256[])",
      "arguments": [
        "168587773",
        "[0x6a4dbc971533ba36bdc23ad70f5a7a12e064f4ae]",
        "[100]"
      ],
      "transaction": {
        "from": "0xe62ab4d111f968660c6b2188046f9b9ba53c4bae",
        "to": "0x5b4d2c1b2e918ff1b0de85803f5a737e5f816ecb",
        "gas": "0x2ab00",
        "value": "0x0",
        "input": "0x437bf84f000000000000000000000000000000000000000000000000000000000000006000000000000000000000000000000000000000000000000000000000000000a000000000000000000000000000000000000000000000000000000000000001400000000000000000000000000000000000000000000000000000000000000009313638353837373733000000000000000000000000000000000000000000000000000000000000000000000000000000000000000000000000000000000000010000000000000000000000000000000000000000000000000000000000000020000000000000000000000000000000000000000000000000000000000000002a3078366134646263393731353333626133366264633233616437306635613761313265303634663461650000000000000000000000000000000000000000000000000000000000000000000000000000000000000000000000000000000000010000000000000000000000000000000000000000000000000000000000000064",
        "nonce": "0x2fc",
        "chainId": "0x14a34"
      },
      "additionalContracts": [],
      "isFixedGasLimit": false
    },
    {
      "hash": "0x07521afb02e9d6ef37cdd29c54afc7d2af2f214fb2997abf675c4174c4f1da96",
      "transactionType": "CALL",
      "contractName": "FeeManager",
      "contractAddress": "0x5b4d2c1b2e918ff1b0de85803f5a737e5f816ecb",
      "function": "addFeeToken(string,string[],uint256[])",
      "arguments": [
        "200810",
        "[0x6a4dbc971533ba36bdc23ad70f5a7a12e064f4ae]",
        "[100]"
      ],
      "transaction": {
        "from": "0xe62ab4d111f968660c6b2188046f9b9ba53c4bae",
        "to": "0x5b4d2c1b2e918ff1b0de85803f5a737e5f816ecb",
        "gas": "0x2a4b9",
        "value": "0x0",
        "input": "0x437bf84f000000000000000000000000000000000000000000000000000000000000006000000000000000000000000000000000000000000000000000000000000000a000000000000000000000000000000000000000000000000000000000000001400000000000000000000000000000000000000000000000000000000000000006323030383130000000000000000000000000000000000000000000000000000000000000000000000000000000000000000000000000000000000000000000010000000000000000000000000000000000000000000000000000000000000020000000000000000000000000000000000000000000000000000000000000002a3078366134646263393731353333626133366264633233616437306635613761313265303634663461650000000000000000000000000000000000000000000000000000000000000000000000000000000000000000000000000000000000010000000000000000000000000000000000000000000000000000000000000064",
        "nonce": "0x2fd",
        "chainId": "0x14a34"
      },
      "additionalContracts": [],
      "isFixedGasLimit": false
    },
    {
      "hash": "0x6166d020ac0d8ec314c1539291bbf7a25125b6404108cabe1248ebd763df5786",
      "transactionType": "CALL",
      "contractName": "FeeManager",
      "contractAddress": "0x5b4d2c1b2e918ff1b0de85803f5a737e5f816ecb",
      "function": "addFeeToken(string,string[],uint256[])",
      "arguments": [
        "534351",
        "[0x6a4dbc971533ba36bdc23ad70f5a7a12e064f4ae]",
        "[100]"
      ],
      "transaction": {
        "from": "0xe62ab4d111f968660c6b2188046f9b9ba53c4bae",
        "to": "0x5b4d2c1b2e918ff1b0de85803f5a737e5f816ecb",
        "gas": "0x2a4b9",
        "value": "0x0",
        "input": "0x437bf84f000000000000000000000000000000000000000000000000000000000000006000000000000000000000000000000000000000000000000000000000000000a000000000000000000000000000000000000000000000000000000000000001400000000000000000000000000000000000000000000000000000000000000006353334333531000000000000000000000000000000000000000000000000000000000000000000000000000000000000000000000000000000000000000000010000000000000000000000000000000000000000000000000000000000000020000000000000000000000000000000000000000000000000000000000000002a3078366134646263393731353333626133366264633233616437306635613761313265303634663461650000000000000000000000000000000000000000000000000000000000000000000000000000000000000000000000000000000000010000000000000000000000000000000000000000000000000000000000000064",
        "nonce": "0x2fe",
        "chainId": "0x14a34"
      },
      "additionalContracts": [],
      "isFixedGasLimit": false
    },
    {
      "hash": "0x469e52ed902e9bd7629d58e7d0c7855885dab4151007afa5993040e8f43c9d3f",
      "transactionType": "CALL",
      "contractName": "FeeManager",
      "contractAddress": "0x5b4d2c1b2e918ff1b0de85803f5a737e5f816ecb",
      "function": "addFeeToken(string,string[],uint256[])",
      "arguments": [
        "5003",
        "[0x6a4dbc971533ba36bdc23ad70f5a7a12e064f4ae]",
        "[100]"
      ],
      "transaction": {
        "from": "0xe62ab4d111f968660c6b2188046f9b9ba53c4bae",
        "to": "0x5b4d2c1b2e918ff1b0de85803f5a737e5f816ecb",
        "gas": "0x2a089",
        "value": "0x0",
        "input": "0x437bf84f000000000000000000000000000000000000000000000000000000000000006000000000000000000000000000000000000000000000000000000000000000a000000000000000000000000000000000000000000000000000000000000001400000000000000000000000000000000000000000000000000000000000000004353030330000000000000000000000000000000000000000000000000000000000000000000000000000000000000000000000000000000000000000000000010000000000000000000000000000000000000000000000000000000000000020000000000000000000000000000000000000000000000000000000000000002a3078366134646263393731353333626133366264633233616437306635613761313265303634663461650000000000000000000000000000000000000000000000000000000000000000000000000000000000000000000000000000000000010000000000000000000000000000000000000000000000000000000000000064",
        "nonce": "0x2ff",
        "chainId": "0x14a34"
      },
      "additionalContracts": [],
      "isFixedGasLimit": false
    },
    {
      "hash": "0x0e96675b0e56faa388d1bf0bcf64ca6df047362873ac5d820edb75475f959dbf",
      "transactionType": "CALL",
      "contractName": "FeeManager",
      "contractAddress": "0x5b4d2c1b2e918ff1b0de85803f5a737e5f816ecb",
      "function": "addFeeToken(string,string[],uint256[])",
      "arguments": [
        "4201",
        "[0x6a4dbc971533ba36bdc23ad70f5a7a12e064f4ae]",
        "[100]"
      ],
      "transaction": {
        "from": "0xe62ab4d111f968660c6b2188046f9b9ba53c4bae",
        "to": "0x5b4d2c1b2e918ff1b0de85803f5a737e5f816ecb",
        "gas": "0x2a089",
        "value": "0x0",
        "input": "0x437bf84f000000000000000000000000000000000000000000000000000000000000006000000000000000000000000000000000000000000000000000000000000000a000000000000000000000000000000000000000000000000000000000000001400000000000000000000000000000000000000000000000000000000000000004343230310000000000000000000000000000000000000000000000000000000000000000000000000000000000000000000000000000000000000000000000010000000000000000000000000000000000000000000000000000000000000020000000000000000000000000000000000000000000000000000000000000002a3078366134646263393731353333626133366264633233616437306635613761313265303634663461650000000000000000000000000000000000000000000000000000000000000000000000000000000000000000000000000000000000010000000000000000000000000000000000000000000000000000000000000064",
        "nonce": "0x300",
        "chainId": "0x14a34"
      },
      "additionalContracts": [],
      "isFixedGasLimit": false
    },
    {
      "hash": "0x6ef233796c7f182d2cea09ca74c4e9a84a85bee5a9042d3959fbe63abdf99e9c",
      "transactionType": "CALL",
      "contractName": "FeeManager",
      "contractAddress": "0x5b4d2c1b2e918ff1b0de85803f5a737e5f816ecb",
      "function": "addFeeToken(string,string[],uint256[])",
      "arguments": [
        "80084",
        "[0x6a4dbc971533ba36bdc23ad70f5a7a12e064f4ae]",
        "[100]"
      ],
      "transaction": {
        "from": "0xe62ab4d111f968660c6b2188046f9b9ba53c4bae",
        "to": "0x5b4d2c1b2e918ff1b0de85803f5a737e5f816ecb",
        "gas": "0x2a2a1",
        "value": "0x0",
        "input": "0x437bf84f000000000000000000000000000000000000000000000000000000000000006000000000000000000000000000000000000000000000000000000000000000a000000000000000000000000000000000000000000000000000000000000001400000000000000000000000000000000000000000000000000000000000000005383030383400000000000000000000000000000000000000000000000000000000000000000000000000000000000000000000000000000000000000000000010000000000000000000000000000000000000000000000000000000000000020000000000000000000000000000000000000000000000000000000000000002a3078366134646263393731353333626133366264633233616437306635613761313265303634663461650000000000000000000000000000000000000000000000000000000000000000000000000000000000000000000000000000000000010000000000000000000000000000000000000000000000000000000000000064",
        "nonce": "0x301",
        "chainId": "0x14a34"
      },
      "additionalContracts": [],
      "isFixedGasLimit": false
    },
    {
      "hash": "0x0b8dde07331dbbff103c6f1b1b4f1c6b63a9829d421f92d166b71d6882acfddf",
      "transactionType": "CALL",
      "contractName": "FeeManager",
      "contractAddress": "0x5b4d2c1b2e918ff1b0de85803f5a737e5f816ecb",
      "function": "addFeeToken(string,string[],uint256[])",
      "arguments": [
        "1952959480",
        "[0x6a4dbc971533ba36bdc23ad70f5a7a12e064f4ae]",
        "[100]"
      ],
      "transaction": {
        "from": "0xe62ab4d111f968660c6b2188046f9b9ba53c4bae",
        "to": "0x5b4d2c1b2e918ff1b0de85803f5a737e5f816ecb",
        "gas": "0x2ad19",
        "value": "0x0",
        "input": "0x437bf84f000000000000000000000000000000000000000000000000000000000000006000000000000000000000000000000000000000000000000000000000000000a00000000000000000000000000000000000000000000000000000000000000140000000000000000000000000000000000000000000000000000000000000000a313935323935393438300000000000000000000000000000000000000000000000000000000000000000000000000000000000000000000000000000000000010000000000000000000000000000000000000000000000000000000000000020000000000000000000000000000000000000000000000000000000000000002a3078366134646263393731353333626133366264633233616437306635613761313265303634663461650000000000000000000000000000000000000000000000000000000000000000000000000000000000000000000000000000000000010000000000000000000000000000000000000000000000000000000000000064",
        "nonce": "0x302",
        "chainId": "0x14a34"
      },
      "additionalContracts": [],
      "isFixedGasLimit": false
    },
    {
      "hash": "0x407cd344b6c2ac7949c9c54bb93e626887056f98961f0bc0f01f941018e3b3a4",
      "transactionType": "CALL",
      "contractName": "FeeManager",
      "contractAddress": "0x5b4d2c1b2e918ff1b0de85803f5a737e5f816ecb",
      "function": "addFeeToken(string,string[],uint256[])",
      "arguments": [
        "78600",
        "[0x6a4dbc971533ba36bdc23ad70f5a7a12e064f4ae]",
        "[100]"
      ],
      "transaction": {
        "from": "0xe62ab4d111f968660c6b2188046f9b9ba53c4bae",
        "to": "0x5b4d2c1b2e918ff1b0de85803f5a737e5f816ecb",
        "gas": "0x2a2a1",
        "value": "0x0",
        "input": "0x437bf84f000000000000000000000000000000000000000000000000000000000000006000000000000000000000000000000000000000000000000000000000000000a000000000000000000000000000000000000000000000000000000000000001400000000000000000000000000000000000000000000000000000000000000005373836303000000000000000000000000000000000000000000000000000000000000000000000000000000000000000000000000000000000000000000000010000000000000000000000000000000000000000000000000000000000000020000000000000000000000000000000000000000000000000000000000000002a3078366134646263393731353333626133366264633233616437306635613761313265303634663461650000000000000000000000000000000000000000000000000000000000000000000000000000000000000000000000000000000000010000000000000000000000000000000000000000000000000000000000000064",
        "nonce": "0x303",
        "chainId": "0x14a34"
      },
      "additionalContracts": [],
      "isFixedGasLimit": false
    },
    {
      "hash": "0x78ccf54c726674b7269fcaf77e88e79508b1e449dbaa1df85f526345ca25ae67",
      "transactionType": "CALL",
      "contractName": "FeeManager",
      "contractAddress": "0x5b4d2c1b2e918ff1b0de85803f5a737e5f816ecb",
      "function": "addFeeToken(string,string[],uint256[])",
      "arguments": [
        "1918988905",
        "[0x6a4dbc971533ba36bdc23ad70f5a7a12e064f4ae]",
        "[100]"
      ],
      "transaction": {
        "from": "0xe62ab4d111f968660c6b2188046f9b9ba53c4bae",
        "to": "0x5b4d2c1b2e918ff1b0de85803f5a737e5f816ecb",
        "gas": "0x2ad19",
        "value": "0x0",
        "input": "0x437bf84f000000000000000000000000000000000000000000000000000000000000006000000000000000000000000000000000000000000000000000000000000000a00000000000000000000000000000000000000000000000000000000000000140000000000000000000000000000000000000000000000000000000000000000a313931383938383930350000000000000000000000000000000000000000000000000000000000000000000000000000000000000000000000000000000000010000000000000000000000000000000000000000000000000000000000000020000000000000000000000000000000000000000000000000000000000000002a3078366134646263393731353333626133366264633233616437306635613761313265303634663461650000000000000000000000000000000000000000000000000000000000000000000000000000000000000000000000000000000000010000000000000000000000000000000000000000000000000000000000000064",
        "nonce": "0x304",
        "chainId": "0x14a34"
      },
      "additionalContracts": [],
      "isFixedGasLimit": false
    },
    {
      "hash": "0x2300c56ed74ec6307d58a947a76f9c9f9968dbef1a860432161b0fcb1996d1b0",
      "transactionType": "CALL",
      "contractName": "FeeManager",
      "contractAddress": "0x5b4d2c1b2e918ff1b0de85803f5a737e5f816ecb",
      "function": "addFeeToken(string,string[],uint256[])",
      "arguments": [
        "2484",
        "[0x6a4dbc971533ba36bdc23ad70f5a7a12e064f4ae]",
        "[100]"
      ],
      "transaction": {
        "from": "0xe62ab4d111f968660c6b2188046f9b9ba53c4bae",
        "to": "0x5b4d2c1b2e918ff1b0de85803f5a737e5f816ecb",
        "gas": "0x2a089",
        "value": "0x0",
        "input": "0x437bf84f000000000000000000000000000000000000000000000000000000000000006000000000000000000000000000000000000000000000000000000000000000a000000000000000000000000000000000000000000000000000000000000001400000000000000000000000000000000000000000000000000000000000000004323438340000000000000000000000000000000000000000000000000000000000000000000000000000000000000000000000000000000000000000000000010000000000000000000000000000000000000000000000000000000000000020000000000000000000000000000000000000000000000000000000000000002a3078366134646263393731353333626133366264633233616437306635613761313265303634663461650000000000000000000000000000000000000000000000000000000000000000000000000000000000000000000000000000000000010000000000000000000000000000000000000000000000000000000000000064",
        "nonce": "0x305",
        "chainId": "0x14a34"
      },
      "additionalContracts": [],
      "isFixedGasLimit": false
    },
    {
      "hash": "0xfc9d2073c083e37aca15e73a0a6c3329b4f4c5ca5b32737f33fc5faa4f666137",
      "transactionType": "CALL",
      "contractName": "FeeManager",
      "contractAddress": "0x5b4d2c1b2e918ff1b0de85803f5a737e5f816ecb",
      "function": "addFeeToken(string,string[],uint256[])",
      "arguments": [
        "1946",
        "[0x6a4dbc971533ba36bdc23ad70f5a7a12e064f4ae]",
        "[100]"
      ],
      "transaction": {
        "from": "0xe62ab4d111f968660c6b2188046f9b9ba53c4bae",
        "to": "0x5b4d2c1b2e918ff1b0de85803f5a737e5f816ecb",
        "gas": "0x2a089",
        "value": "0x0",
        "input": "0x437bf84f000000000000000000000000000000000000000000000000000000000000006000000000000000000000000000000000000000000000000000000000000000a000000000000000000000000000000000000000000000000000000000000001400000000000000000000000000000000000000000000000000000000000000004313934360000000000000000000000000000000000000000000000000000000000000000000000000000000000000000000000000000000000000000000000010000000000000000000000000000000000000000000000000000000000000020000000000000000000000000000000000000000000000000000000000000002a3078366134646263393731353333626133366264633233616437306635613761313265303634663461650000000000000000000000000000000000000000000000000000000000000000000000000000000000000000000000000000000000010000000000000000000000000000000000000000000000000000000000000064",
        "nonce": "0x306",
        "chainId": "0x14a34"
      },
      "additionalContracts": [],
      "isFixedGasLimit": false
    },
    {
      "hash": "0x7bc7f412ecad99047fb4611cb8b2e7d1ccc0360a5c2f3af9a222d768577b58b8",
      "transactionType": "CALL",
      "contractName": "FeeManager",
      "contractAddress": "0x5b4d2c1b2e918ff1b0de85803f5a737e5f816ecb",
      "function": "addFeeToken(string,string[],uint256[])",
      "arguments": [
        "5611",
        "[0x6a4dbc971533ba36bdc23ad70f5a7a12e064f4ae]",
        "[100]"
      ],
      "transaction": {
        "from": "0xe62ab4d111f968660c6b2188046f9b9ba53c4bae",
        "to": "0x5b4d2c1b2e918ff1b0de85803f5a737e5f816ecb",
        "gas": "0x2a089",
        "value": "0x0",
        "input": "0x437bf84f000000000000000000000000000000000000000000000000000000000000006000000000000000000000000000000000000000000000000000000000000000a000000000000000000000000000000000000000000000000000000000000001400000000000000000000000000000000000000000000000000000000000000004353631310000000000000000000000000000000000000000000000000000000000000000000000000000000000000000000000000000000000000000000000010000000000000000000000000000000000000000000000000000000000000020000000000000000000000000000000000000000000000000000000000000002a3078366134646263393731353333626133366264633233616437306635613761313265303634663461650000000000000000000000000000000000000000000000000000000000000000000000000000000000000000000000000000000000010000000000000000000000000000000000000000000000000000000000000064",
        "nonce": "0x307",
        "chainId": "0x14a34"
      },
      "additionalContracts": [],
      "isFixedGasLimit": false
    },
    {
      "hash": "0x4a768cb0b223cc8b7e10c9ee615ea2830130956d897995f5a6e3901c99ebe377",
      "transactionType": "CALL",
      "contractName": "FeeManager",
      "contractAddress": "0x5b4d2c1b2e918ff1b0de85803f5a737e5f816ecb",
      "function": "addFeeToken(string,string[],uint256[])",
      "arguments": [
        "64165",
        "[0x6a4dbc971533ba36bdc23ad70f5a7a12e064f4ae]",
        "[100]"
      ],
      "transaction": {
        "from": "0xe62ab4d111f968660c6b2188046f9b9ba53c4bae",
        "to": "0x5b4d2c1b2e918ff1b0de85803f5a737e5f816ecb",
        "gas": "0x2a2a1",
        "value": "0x0",
        "input": "0x437bf84f000000000000000000000000000000000000000000000000000000000000006000000000000000000000000000000000000000000000000000000000000000a000000000000000000000000000000000000000000000000000000000000001400000000000000000000000000000000000000000000000000000000000000005363431363500000000000000000000000000000000000000000000000000000000000000000000000000000000000000000000000000000000000000000000010000000000000000000000000000000000000000000000000000000000000020000000000000000000000000000000000000000000000000000000000000002a3078366134646263393731353333626133366264633233616437306635613761313265303634663461650000000000000000000000000000000000000000000000000000000000000000000000000000000000000000000000000000000000010000000000000000000000000000000000000000000000000000000000000064",
        "nonce": "0x308",
        "chainId": "0x14a34"
      },
      "additionalContracts": [],
      "isFixedGasLimit": false
    },
    {
      "hash": "0xefee3b7c10abd7b652aa22a92c2cea0bbae3068576aa659a6c930069364d4dce",
      "transactionType": "CALL",
      "contractName": "FeeManager",
      "contractAddress": "0x5b4d2c1b2e918ff1b0de85803f5a737e5f816ecb",
      "function": "addFeeToken(string,string[],uint256[])",
      "arguments": [
        "997",
        "[0x6a4dbc971533ba36bdc23ad70f5a7a12e064f4ae]",
        "[100]"
      ],
      "transaction": {
        "from": "0xe62ab4d111f968660c6b2188046f9b9ba53c4bae",
        "to": "0x5b4d2c1b2e918ff1b0de85803f5a737e5f816ecb",
        "gas": "0x29e71",
        "value": "0x0",
        "input": "0x437bf84f000000000000000000000000000000000000000000000000000000000000006000000000000000000000000000000000000000000000000000000000000000a000000000000000000000000000000000000000000000000000000000000001400000000000000000000000000000000000000000000000000000000000000003393937000000000000000000000000000000000000000000000000000000000000000000000000000000000000000000000000000000000000000000000000010000000000000000000000000000000000000000000000000000000000000020000000000000000000000000000000000000000000000000000000000000002a3078366134646263393731353333626133366264633233616437306635613761313265303634663461650000000000000000000000000000000000000000000000000000000000000000000000000000000000000000000000000000000000010000000000000000000000000000000000000000000000000000000000000064",
        "nonce": "0x309",
        "chainId": "0x14a34"
      },
      "additionalContracts": [],
      "isFixedGasLimit": false
    },
    {
      "hash": "0x8b1abb644058238efb7aed3a62f5a5a78e52eea592306bf890c6692f806432d0",
      "transactionType": "CALL",
      "contractName": "FeeManager",
      "contractAddress": "0x5b4d2c1b2e918ff1b0de85803f5a737e5f816ecb",
      "function": "addFeeToken(string,string[],uint256[])",
      "arguments": [
        "14853",
        "[0x6a4dbc971533ba36bdc23ad70f5a7a12e064f4ae]",
        "[100]"
      ],
      "transaction": {
        "from": "0xe62ab4d111f968660c6b2188046f9b9ba53c4bae",
        "to": "0x5b4d2c1b2e918ff1b0de85803f5a737e5f816ecb",
        "gas": "0x2a2a1",
        "value": "0x0",
        "input": "0x437bf84f000000000000000000000000000000000000000000000000000000000000006000000000000000000000000000000000000000000000000000000000000000a000000000000000000000000000000000000000000000000000000000000001400000000000000000000000000000000000000000000000000000000000000005313438353300000000000000000000000000000000000000000000000000000000000000000000000000000000000000000000000000000000000000000000010000000000000000000000000000000000000000000000000000000000000020000000000000000000000000000000000000000000000000000000000000002a3078366134646263393731353333626133366264633233616437306635613761313265303634663461650000000000000000000000000000000000000000000000000000000000000000000000000000000000000000000000000000000000010000000000000000000000000000000000000000000000000000000000000064",
        "nonce": "0x30a",
        "chainId": "0x14a34"
      },
      "additionalContracts": [],
      "isFixedGasLimit": false
    },
    {
      "hash": "0x6d572bd7fc07748bc9b43cf7bca30d3d4c6ec5103f2b392d03e84fdcb144ad38",
      "transactionType": "CALL",
      "contractName": "FeeManager",
      "contractAddress": "0x5b4d2c1b2e918ff1b0de85803f5a737e5f816ecb",
      "function": "addFeeToken(string,string[],uint256[])",
      "arguments": [
        "338",
        "[0x6a4dbc971533ba36bdc23ad70f5a7a12e064f4ae]",
        "[100]"
      ],
      "transaction": {
        "from": "0xe62ab4d111f968660c6b2188046f9b9ba53c4bae",
        "to": "0x5b4d2c1b2e918ff1b0de85803f5a737e5f816ecb",
        "gas": "0x29e71",
        "value": "0x0",
        "input": "0x437bf84f000000000000000000000000000000000000000000000000000000000000006000000000000000000000000000000000000000000000000000000000000000a000000000000000000000000000000000000000000000000000000000000001400000000000000000000000000000000000000000000000000000000000000003333338000000000000000000000000000000000000000000000000000000000000000000000000000000000000000000000000000000000000000000000000010000000000000000000000000000000000000000000000000000000000000020000000000000000000000000000000000000000000000000000000000000002a3078366134646263393731353333626133366264633233616437306635613761313265303634663461650000000000000000000000000000000000000000000000000000000000000000000000000000000000000000000000000000000000010000000000000000000000000000000000000000000000000000000000000064",
        "nonce": "0x30b",
        "chainId": "0x14a34"
      },
      "additionalContracts": [],
      "isFixedGasLimit": false
    },
    {
      "hash": "0x896bcf8a4f1335d2883c903d5235a9de84c9d44d583ac7a5041a202114704bee",
      "transactionType": "CALL",
      "contractName": "FeeManager",
      "contractAddress": "0x5b4d2c1b2e918ff1b0de85803f5a737e5f816ecb",
      "function": "addFeeToken(string,string[],uint256[])",
      "arguments": [
        "97",
        "[0x6a4dbc971533ba36bdc23ad70f5a7a12e064f4ae]",
        "[100]"
      ],
      "transaction": {
        "from": "0xe62ab4d111f968660c6b2188046f9b9ba53c4bae",
        "to": "0x5b4d2c1b2e918ff1b0de85803f5a737e5f816ecb",
        "gas": "0x29c5a",
        "value": "0x0",
        "input": "0x437bf84f000000000000000000000000000000000000000000000000000000000000006000000000000000000000000000000000000000000000000000000000000000a000000000000000000000000000000000000000000000000000000000000001400000000000000000000000000000000000000000000000000000000000000002393700000000000000000000000000000000000000000000000000000000000000000000000000000000000000000000000000000000000000000000000000010000000000000000000000000000000000000000000000000000000000000020000000000000000000000000000000000000000000000000000000000000002a3078366134646263393731353333626133366264633233616437306635613761313265303634663461650000000000000000000000000000000000000000000000000000000000000000000000000000000000000000000000000000000000010000000000000000000000000000000000000000000000000000000000000064",
        "nonce": "0x30c",
        "chainId": "0x14a34"
      },
      "additionalContracts": [],
      "isFixedGasLimit": false
    },
    {
      "hash": "0xe6539499f2195bccb24a75bc0eac2c4d0593f97ce68472176514fcb420b641b4",
      "transactionType": "CALL",
      "contractName": "FeeManager",
      "contractAddress": "0x5b4d2c1b2e918ff1b0de85803f5a737e5f816ecb",
      "function": "addFeeToken(string,string[],uint256[])",
      "arguments": [
        "11155111",
        "[0x6a4dbc971533ba36bdc23ad70f5a7a12e064f4ae]",
        "[100]"
      ],
      "transaction": {
        "from": "0xe62ab4d111f968660c6b2188046f9b9ba53c4bae",
        "to": "0x5b4d2c1b2e918ff1b0de85803f5a737e5f816ecb",
        "gas": "0x2a8e9",
        "value": "0x0",
        "input": "0x437bf84f000000000000000000000000000000000000000000000000000000000000006000000000000000000000000000000000000000000000000000000000000000a000000000000000000000000000000000000000000000000000000000000001400000000000000000000000000000000000000000000000000000000000000008313131353531313100000000000000000000000000000000000000000000000000000000000000000000000000000000000000000000000000000000000000010000000000000000000000000000000000000000000000000000000000000020000000000000000000000000000000000000000000000000000000000000002a3078366134646263393731353333626133366264633233616437306635613761313265303634663461650000000000000000000000000000000000000000000000000000000000000000000000000000000000000000000000000000000000010000000000000000000000000000000000000000000000000000000000000064",
        "nonce": "0x30d",
        "chainId": "0x14a34"
      },
      "additionalContracts": [],
      "isFixedGasLimit": false
    },
    {
      "hash": "0xd3f4f4f78845c83a42bc6a45529390aa50b20848eb1ac7c6792bab4ab1debbcd",
      "transactionType": "CALL",
      "contractName": "CTMRWAGateway",
      "contractAddress": "0xf3a991cb19949cb6abd9e416f0408c648b6c36fa",
      "function": "addChainContract(string[],string[])",
      "arguments": [
        "[421614, 80002, 59141, 1115, 17000, 2810, 168587773, 200810, 534351, 5003, 4201, 80084, 1952959480, 78600, 1918988905, 2484, 1946, 5611, 64165, 997, 14853, 338, 97, 11155111]",
        "[0x20a9f9d7282c6fde913522a42c3951f5b18f62d5, 0x114ace1c918409889464c2a714f8442a97934ccf, 0x9266e8bf4943f2b366f2be89688a8622084db8b9, 0xf4e7a775c8abc8e0b7ed11d660b0a6b2e1b7a132, 0xf4e7a775c8abc8e0b7ed11d660b0a6b2e1b7a132, 0x9266e8bf4943f2b366f2be89688a8622084db8b9, 0x9266e8bf4943f2b366f2be89688a8622084db8b9, 0x64c5734e22cf8126c6367c0230b66788fbe4ab90, 0x9266e8bf4943f2b366f2be89688a8622084db8b9, 0x9266e8bf4943f2b366f2be89688a8622084db8b9, 0x2927d422cbea7f315ee3e0660af2ed9b35302004, 0xa42864da3ee7b05489ef1d99704089b734cb73a2, 0xd1f0743c665d80d6bdaf1b4b8c9e82bfd1ae1994, 0xeadb6779c7284a7ef6f611f4535e60c3d59b321b, 0x22c254662850f21bfb09714f6a5638d929439f8d, 0x9266e8bf4943f2b366f2be89688a8622084db8b9, 0x9266e8bf4943f2b366f2be89688a8622084db8b9, 0x9266e8bf4943f2b366f2be89688a8622084db8b9, 0xf4e7a775c8abc8e0b7ed11d660b0a6b2e1b7a132, 0xf4e7a775c8abc8e0b7ed11d660b0a6b2e1b7a132, 0x9266e8bf4943f2b366f2be89688a8622084db8b9, 0xae66c08b9d76eecaa74314c60f3305d43707acc9, 0xba08c3b81ed1a13e7a3457b6ab5dddba2df34df4, 0x10a04ad4a73c8bb00ee5a29b27d11eee85390306]"
      ],
      "transaction": {
        "from": "0xe62ab4d111f968660c6b2188046f9b9ba53c4bae",
        "to": "0xf3a991cb19949cb6abd9e416f0408c648b6c36fa",
        "gas": "0x461dc3",
        "value": "0x0",
        "input": "0x013fd3bd00000000000000000000000000000000000000000000000000000000000000400000000000000000000000000000000000000000000000000000000000000960000000000000000000000000000000000000000000000000000000000000001800000000000000000000000000000000000000000000000000000000000003000000000000000000000000000000000000000000000000000000000000000340000000000000000000000000000000000000000000000000000000000000038000000000000000000000000000000000000000000000000000000000000003c000000000000000000000000000000000000000000000000000000000000004000000000000000000000000000000000000000000000000000000000000000440000000000000000000000000000000000000000000000000000000000000048000000000000000000000000000000000000000000000000000000000000004c000000000000000000000000000000000000000000000000000000000000005000000000000000000000000000000000000000000000000000000000000000540000000000000000000000000000000000000000000000000000000000000058000000000000000000000000000000000000000000000000000000000000005c000000000000000000000000000000000000000000000000000000000000006000000000000000000000000000000000000000000000000000000000000000640000000000000000000000000000000000000000000000000000000000000068000000000000000000000000000000000000000000000000000000000000006c000000000000000000000000000000000000000000000000000000000000007000000000000000000000000000000000000000000000000000000000000000740000000000000000000000000000000000000000000000000000000000000078000000000000000000000000000000000000000000000000000000000000007c000000000000000000000000000000000000000000000000000000000000008000000000000000000000000000000000000000000000000000000000000000840000000000000000000000000000000000000000000000000000000000000088000000000000000000000000000000000000000000000000000000000000008c0000000000000000000000000000000000000000000000000000000000000000634323136313400000000000000000000000000000000000000000000000000000000000000000000000000000000000000000000000000000000000000000005383030303200000000000000000000000000000000000000000000000000000000000000000000000000000000000000000000000000000000000000000000053539313431000000000000000000000000000000000000000000000000000000000000000000000000000000000000000000000000000000000000000000000431313135000000000000000000000000000000000000000000000000000000000000000000000000000000000000000000000000000000000000000000000005313730303000000000000000000000000000000000000000000000000000000000000000000000000000000000000000000000000000000000000000000000043238313000000000000000000000000000000000000000000000000000000000000000000000000000000000000000000000000000000000000000000000000931363835383737373300000000000000000000000000000000000000000000000000000000000000000000000000000000000000000000000000000000000006323030383130000000000000000000000000000000000000000000000000000000000000000000000000000000000000000000000000000000000000000000063533343335310000000000000000000000000000000000000000000000000000000000000000000000000000000000000000000000000000000000000000000435303033000000000000000000000000000000000000000000000000000000000000000000000000000000000000000000000000000000000000000000000004343230310000000000000000000000000000000000000000000000000000000000000000000000000000000000000000000000000000000000000000000000053830303834000000000000000000000000000000000000000000000000000000000000000000000000000000000000000000000000000000000000000000000a313935323935393438300000000000000000000000000000000000000000000000000000000000000000000000000000000000000000000000000000000000053738363030000000000000000000000000000000000000000000000000000000000000000000000000000000000000000000000000000000000000000000000a313931383938383930350000000000000000000000000000000000000000000000000000000000000000000000000000000000000000000000000000000000043234383400000000000000000000000000000000000000000000000000000000000000000000000000000000000000000000000000000000000000000000000431393436000000000000000000000000000000000000000000000000000000000000000000000000000000000000000000000000000000000000000000000004353631310000000000000000000000000000000000000000000000000000000000000000000000000000000000000000000000000000000000000000000000053634313635000000000000000000000000000000000000000000000000000000000000000000000000000000000000000000000000000000000000000000000339393700000000000000000000000000000000000000000000000000000000000000000000000000000000000000000000000000000000000000000000000005313438353300000000000000000000000000000000000000000000000000000000000000000000000000000000000000000000000000000000000000000000033333380000000000000000000000000000000000000000000000000000000000000000000000000000000000000000000000000000000000000000000000000239370000000000000000000000000000000000000000000000000000000000000000000000000000000000000000000000000000000000000000000000000008313131353531313100000000000000000000000000000000000000000000000000000000000000000000000000000000000000000000000000000000000000180000000000000000000000000000000000000000000000000000000000000300000000000000000000000000000000000000000000000000000000000000036000000000000000000000000000000000000000000000000000000000000003c00000000000000000000000000000000000000000000000000000000000000420000000000000000000000000000000000000000000000000000000000000048000000000000000000000000000000000000000000000000000000000000004e0000000000000000000000000000000000000000000000000000000000000054000000000000000000000000000000000000000000000000000000000000005a00000000000000000000000000000000000000000000000000000000000000600000000000000000000000000000000000000000000000000000000000000066000000000000000000000000000000000000000000000000000000000000006c00000000000000000000000000000000000000000000000000000000000000720000000000000000000000000000000000000000000000000000000000000078000000000000000000000000000000000000000000000000000000000000007e0000000000000000000000000000000000000000000000000000000000000084000000000000000000000000000000000000000000000000000000000000008a00000000000000000000000000000000000000000000000000000000000000900000000000000000000000000000000000000000000000000000000000000096000000000000000000000000000000000000000000000000000000000000009c00000000000000000000000000000000000000000000000000000000000000a200000000000000000000000000000000000000000000000000000000000000a800000000000000000000000000000000000000000000000000000000000000ae00000000000000000000000000000000000000000000000000000000000000b400000000000000000000000000000000000000000000000000000000000000ba0000000000000000000000000000000000000000000000000000000000000002a30783230613966396437323832633666646539313335323261343263333935316635623138663632643500000000000000000000000000000000000000000000000000000000000000000000000000000000000000000000000000000000002a30783131346163653163393138343039383839343634633261373134663834343261393739333463636600000000000000000000000000000000000000000000000000000000000000000000000000000000000000000000000000000000002a30783932363665386266343934336632623336366632626538393638386138363232303834646238623900000000000000000000000000000000000000000000000000000000000000000000000000000000000000000000000000000000002a30786634653761373735633861626338653062376564313164363630623061366232653162376131333200000000000000000000000000000000000000000000000000000000000000000000000000000000000000000000000000000000002a30786634653761373735633861626338653062376564313164363630623061366232653162376131333200000000000000000000000000000000000000000000000000000000000000000000000000000000000000000000000000000000002a30783932363665386266343934336632623336366632626538393638386138363232303834646238623900000000000000000000000000000000000000000000000000000000000000000000000000000000000000000000000000000000002a30783932363665386266343934336632623336366632626538393638386138363232303834646238623900000000000000000000000000000000000000000000000000000000000000000000000000000000000000000000000000000000002a30783634633537333465323263663831323663363336376330323330623636373838666265346162393000000000000000000000000000000000000000000000000000000000000000000000000000000000000000000000000000000000002a30783932363665386266343934336632623336366632626538393638386138363232303834646238623900000000000000000000000000000000000000000000000000000000000000000000000000000000000000000000000000000000002a30783932363665386266343934336632623336366632626538393638386138363232303834646238623900000000000000000000000000000000000000000000000000000000000000000000000000000000000000000000000000000000002a30783239323764343232636265613766333135656533653036363061663265643962333533303230303400000000000000000000000000000000000000000000000000000000000000000000000000000000000000000000000000000000002a30786134323836346461336565376230353438396566316439393730343038396237333463623733613200000000000000000000000000000000000000000000000000000000000000000000000000000000000000000000000000000000002a30786431663037343363363635643830643662646166316234623863396538326266643161653139393400000000000000000000000000000000000000000000000000000000000000000000000000000000000000000000000000000000002a30786561646236373739633732383461376566366636313166343533356536306333643539623332316200000000000000000000000000000000000000000000000000000000000000000000000000000000000000000000000000000000002a30783232633235343636323835306632316266623039373134663661353633386439323934333966386400000000000000000000000000000000000000000000000000000000000000000000000000000000000000000000000000000000002a30783932363665386266343934336632623336366632626538393638386138363232303834646238623900000000000000000000000000000000000000000000000000000000000000000000000000000000000000000000000000000000002a30783932363665386266343934336632623336366632626538393638386138363232303834646238623900000000000000000000000000000000000000000000000000000000000000000000000000000000000000000000000000000000002a30783932363665386266343934336632623336366632626538393638386138363232303834646238623900000000000000000000000000000000000000000000000000000000000000000000000000000000000000000000000000000000002a30786634653761373735633861626338653062376564313164363630623061366232653162376131333200000000000000000000000000000000000000000000000000000000000000000000000000000000000000000000000000000000002a30786634653761373735633861626338653062376564313164363630623061366232653162376131333200000000000000000000000000000000000000000000000000000000000000000000000000000000000000000000000000000000002a30783932363665386266343934336632623336366632626538393638386138363232303834646238623900000000000000000000000000000000000000000000000000000000000000000000000000000000000000000000000000000000002a30786165363663303862396437366565636161373433313463363066333330356434333730376163633900000000000000000000000000000000000000000000000000000000000000000000000000000000000000000000000000000000002a30786261303863336238316564316131336537613334353762366162356464646261326466333464663400000000000000000000000000000000000000000000000000000000000000000000000000000000000000000000000000000000002a30783130613034616434613733633862623030656535613239623237643131656565383533393033303600000000000000000000000000000000000000000000",
        "nonce": "0x30e",
        "chainId": "0x14a34"
      },
      "additionalContracts": [],
      "isFixedGasLimit": false
    },
    {
      "hash": "0xd4c0140dde7623222c2fdf4e4b18baf95a802fdb093eb52204b412d5cf7ae336",
      "transactionType": "CALL",
      "contractName": "CTMRWAGateway",
      "contractAddress": "0xf3a991cb19949cb6abd9e416f0408c648b6c36fa",
      "function": "attachRWAX(uint256,uint256,string[],string[])",
      "arguments": [
        "1",
        "1",
        "[84532, 421614, 80002, 59141, 1115, 17000, 2810, 168587773, 200810, 534351, 5003, 4201, 80084, 1952959480, 78600, 1918988905, 2484, 1946, 5611, 64165, 997, 14853, 338, 97, 11155111]",
        "[0xb5d1f61f6b9f0ca2b89eb9d693e8cd737076846a, 0xd5870cb8400e75f2097f3af9fd37af0c758707e0, 0x88a23d9ec1a9f1100d807d0e8c7a39927d4a7897, 0xb5638019cbfc1b523d5167a269e755b05bf24fd9, 0x73943ec95aafbb4dd073b11f5c9701e5bc3708a6, 0x73943ec95aafbb4dd073b11f5c9701e5bc3708a6, 0xb5638019cbfc1b523d5167a269e755b05bf24fd9, 0xb5638019cbfc1b523d5167a269e755b05bf24fd9, 0xa4482df3a723654a599ba66d1b5091fd9c42ad05, 0xb5638019cbfc1b523d5167a269e755b05bf24fd9, 0xb5638019cbfc1b523d5167a269e755b05bf24fd9, 0x1b87108b35abb5751bfc64647e9d5cd1cb77e236, 0x67510816512511818b5047a4cce6e8f2ebb15d20, 0x9266e8bf4943f2b366f2be89688a8622084db8b9, 0x232c61b3d1a03cc57e976cccd0f9c9cd33a98fe0, 0x3abb2780b0bbf630490d155c4861f4e82c623246, 0xb5638019cbfc1b523d5167a269e755b05bf24fd9, 0xb5638019cbfc1b523d5167a269e755b05bf24fd9, 0xb5638019cbfc1b523d5167a269e755b05bf24fd9, 0x73943ec95aafbb4dd073b11f5c9701e5bc3708a6, 0x73943ec95aafbb4dd073b11f5c9701e5bc3708a6, 0xb5638019cbfc1b523d5167a269e755b05bf24fd9, 0x176cd7abf4919068d7fec79935c303b32b7dabe7, 0x21ea338975678968da85dea76f298e7f11a09334, 0x3af6a526dd51c8b08fd54dbb624e042bb3b0a77e]"
      ],
      "transaction": {
        "from": "0xe62ab4d111f968660c6b2188046f9b9ba53c4bae",
        "to": "0xf3a991cb19949cb6abd9e416f0408c648b6c36fa",
        "gas": "0x5c9324",
        "value": "0x0",
        "input": "0x33a5f5b40000000000000000000000000000000000000000000000000000000000000001000000000000000000000000000000000000000000000000000000000000000100000000000000000000000000000000000000000000000000000000000000800000000000000000000000000000000000000000000000000000000000000a0000000000000000000000000000000000000000000000000000000000000000190000000000000000000000000000000000000000000000000000000000000320000000000000000000000000000000000000000000000000000000000000036000000000000000000000000000000000000000000000000000000000000003a000000000000000000000000000000000000000000000000000000000000003e00000000000000000000000000000000000000000000000000000000000000420000000000000000000000000000000000000000000000000000000000000046000000000000000000000000000000000000000000000000000000000000004a000000000000000000000000000000000000000000000000000000000000004e00000000000000000000000000000000000000000000000000000000000000520000000000000000000000000000000000000000000000000000000000000056000000000000000000000000000000000000000000000000000000000000005a000000000000000000000000000000000000000000000000000000000000005e00000000000000000000000000000000000000000000000000000000000000620000000000000000000000000000000000000000000000000000000000000066000000000000000000000000000000000000000000000000000000000000006a000000000000000000000000000000000000000000000000000000000000006e00000000000000000000000000000000000000000000000000000000000000720000000000000000000000000000000000000000000000000000000000000076000000000000000000000000000000000000000000000000000000000000007a000000000000000000000000000000000000000000000000000000000000007e00000000000000000000000000000000000000000000000000000000000000820000000000000000000000000000000000000000000000000000000000000086000000000000000000000000000000000000000000000000000000000000008a000000000000000000000000000000000000000000000000000000000000008e0000000000000000000000000000000000000000000000000000000000000092000000000000000000000000000000000000000000000000000000000000000053834353332000000000000000000000000000000000000000000000000000000000000000000000000000000000000000000000000000000000000000000000634323136313400000000000000000000000000000000000000000000000000000000000000000000000000000000000000000000000000000000000000000005383030303200000000000000000000000000000000000000000000000000000000000000000000000000000000000000000000000000000000000000000000053539313431000000000000000000000000000000000000000000000000000000000000000000000000000000000000000000000000000000000000000000000431313135000000000000000000000000000000000000000000000000000000000000000000000000000000000000000000000000000000000000000000000005313730303000000000000000000000000000000000000000000000000000000000000000000000000000000000000000000000000000000000000000000000043238313000000000000000000000000000000000000000000000000000000000000000000000000000000000000000000000000000000000000000000000000931363835383737373300000000000000000000000000000000000000000000000000000000000000000000000000000000000000000000000000000000000006323030383130000000000000000000000000000000000000000000000000000000000000000000000000000000000000000000000000000000000000000000063533343335310000000000000000000000000000000000000000000000000000000000000000000000000000000000000000000000000000000000000000000435303033000000000000000000000000000000000000000000000000000000000000000000000000000000000000000000000000000000000000000000000004343230310000000000000000000000000000000000000000000000000000000000000000000000000000000000000000000000000000000000000000000000053830303834000000000000000000000000000000000000000000000000000000000000000000000000000000000000000000000000000000000000000000000a313935323935393438300000000000000000000000000000000000000000000000000000000000000000000000000000000000000000000000000000000000053738363030000000000000000000000000000000000000000000000000000000000000000000000000000000000000000000000000000000000000000000000a313931383938383930350000000000000000000000000000000000000000000000000000000000000000000000000000000000000000000000000000000000043234383400000000000000000000000000000000000000000000000000000000000000000000000000000000000000000000000000000000000000000000000431393436000000000000000000000000000000000000000000000000000000000000000000000000000000000000000000000000000000000000000000000004353631310000000000000000000000000000000000000000000000000000000000000000000000000000000000000000000000000000000000000000000000053634313635000000000000000000000000000000000000000000000000000000000000000000000000000000000000000000000000000000000000000000000339393700000000000000000000000000000000000000000000000000000000000000000000000000000000000000000000000000000000000000000000000005313438353300000000000000000000000000000000000000000000000000000000000000000000000000000000000000000000000000000000000000000000033333380000000000000000000000000000000000000000000000000000000000000000000000000000000000000000000000000000000000000000000000000239370000000000000000000000000000000000000000000000000000000000000000000000000000000000000000000000000000000000000000000000000008313131353531313100000000000000000000000000000000000000000000000000000000000000000000000000000000000000000000000000000000000000190000000000000000000000000000000000000000000000000000000000000320000000000000000000000000000000000000000000000000000000000000038000000000000000000000000000000000000000000000000000000000000003e0000000000000000000000000000000000000000000000000000000000000044000000000000000000000000000000000000000000000000000000000000004a00000000000000000000000000000000000000000000000000000000000000500000000000000000000000000000000000000000000000000000000000000056000000000000000000000000000000000000000000000000000000000000005c00000000000000000000000000000000000000000000000000000000000000620000000000000000000000000000000000000000000000000000000000000068000000000000000000000000000000000000000000000000000000000000006e0000000000000000000000000000000000000000000000000000000000000074000000000000000000000000000000000000000000000000000000000000007a00000000000000000000000000000000000000000000000000000000000000800000000000000000000000000000000000000000000000000000000000000086000000000000000000000000000000000000000000000000000000000000008c00000000000000000000000000000000000000000000000000000000000000920000000000000000000000000000000000000000000000000000000000000098000000000000000000000000000000000000000000000000000000000000009e00000000000000000000000000000000000000000000000000000000000000a400000000000000000000000000000000000000000000000000000000000000aa00000000000000000000000000000000000000000000000000000000000000b000000000000000000000000000000000000000000000000000000000000000b600000000000000000000000000000000000000000000000000000000000000bc00000000000000000000000000000000000000000000000000000000000000c20000000000000000000000000000000000000000000000000000000000000002a30786235643166363166366239663063613262383965623964363933653863643733373037363834366100000000000000000000000000000000000000000000000000000000000000000000000000000000000000000000000000000000002a30786435383730636238343030653735663230393766336166396664333761663063373538373037653000000000000000000000000000000000000000000000000000000000000000000000000000000000000000000000000000000000002a30783838613233643965633161396631313030643830376430653863376133393932376434613738393700000000000000000000000000000000000000000000000000000000000000000000000000000000000000000000000000000000002a30786235363338303139636266633162353233643531363761323639653735356230356266323466643900000000000000000000000000000000000000000000000000000000000000000000000000000000000000000000000000000000002a30783733393433656339356161666262346464303733623131663563393730316535626333373038613600000000000000000000000000000000000000000000000000000000000000000000000000000000000000000000000000000000002a30783733393433656339356161666262346464303733623131663563393730316535626333373038613600000000000000000000000000000000000000000000000000000000000000000000000000000000000000000000000000000000002a30786235363338303139636266633162353233643531363761323639653735356230356266323466643900000000000000000000000000000000000000000000000000000000000000000000000000000000000000000000000000000000002a30786235363338303139636266633162353233643531363761323639653735356230356266323466643900000000000000000000000000000000000000000000000000000000000000000000000000000000000000000000000000000000002a30786134343832646633613732333635346135393962613636643162353039316664396334326164303500000000000000000000000000000000000000000000000000000000000000000000000000000000000000000000000000000000002a30786235363338303139636266633162353233643531363761323639653735356230356266323466643900000000000000000000000000000000000000000000000000000000000000000000000000000000000000000000000000000000002a30786235363338303139636266633162353233643531363761323639653735356230356266323466643900000000000000000000000000000000000000000000000000000000000000000000000000000000000000000000000000000000002a30783162383731303862333561626235373531626663363436343765396435636431636237376532333600000000000000000000000000000000000000000000000000000000000000000000000000000000000000000000000000000000002a30783637353130383136353132353131383138623530343761346363653665386632656262313564323000000000000000000000000000000000000000000000000000000000000000000000000000000000000000000000000000000000002a30783932363665386266343934336632623336366632626538393638386138363232303834646238623900000000000000000000000000000000000000000000000000000000000000000000000000000000000000000000000000000000002a30783233326336316233643161303363633537653937366363636430663963396364333361393866653000000000000000000000000000000000000000000000000000000000000000000000000000000000000000000000000000000000002a30783361626232373830623062626636333034393064313535633438363166346538326336323332343600000000000000000000000000000000000000000000000000000000000000000000000000000000000000000000000000000000002a30786235363338303139636266633162353233643531363761323639653735356230356266323466643900000000000000000000000000000000000000000000000000000000000000000000000000000000000000000000000000000000002a30786235363338303139636266633162353233643531363761323639653735356230356266323466643900000000000000000000000000000000000000000000000000000000000000000000000000000000000000000000000000000000002a30786235363338303139636266633162353233643531363761323639653735356230356266323466643900000000000000000000000000000000000000000000000000000000000000000000000000000000000000000000000000000000002a30783733393433656339356161666262346464303733623131663563393730316535626333373038613600000000000000000000000000000000000000000000000000000000000000000000000000000000000000000000000000000000002a30783733393433656339356161666262346464303733623131663563393730316535626333373038613600000000000000000000000000000000000000000000000000000000000000000000000000000000000000000000000000000000002a30786235363338303139636266633162353233643531363761323639653735356230356266323466643900000000000000000000000000000000000000000000000000000000000000000000000000000000000000000000000000000000002a30783137366364376162663439313930363864376665633739393335633330336233326237646162653700000000000000000000000000000000000000000000000000000000000000000000000000000000000000000000000000000000002a30783231656133333839373536373839363864613835646561373666323938653766313161303933333400000000000000000000000000000000000000000000000000000000000000000000000000000000000000000000000000000000002a30783361663661353236646435316338623038666435346462623632346530343262623362306137376500000000000000000000000000000000000000000000",
        "nonce": "0x30f",
        "chainId": "0x14a34"
      },
      "additionalContracts": [],
      "isFixedGasLimit": false
    },
    {
      "hash": "0x91a271a0d1e754188b3334d00b2f11e841eb1398f24bbae89686417217800674",
      "transactionType": "CALL",
      "contractName": "CTMRWAGateway",
      "contractAddress": "0xf3a991cb19949cb6abd9e416f0408c648b6c36fa",
      "function": "attachStorageManager(uint256,uint256,string[],string[])",
      "arguments": [
        "1",
        "1",
        "[84532, 421614, 80002, 59141, 1115, 17000, 2810, 168587773, 200810, 534351, 5003, 4201, 80084, 1952959480, 78600, 1918988905, 2484, 1946, 5611, 64165, 997, 14853, 338, 97, 11155111]",
        "[0xf9229aceba228fdbb757a637eeebadb46fdb617e, 0x769139881024ce730de9de9c21e3ad6fb5a872f2, 0x95ae66ad780e73ef2d2a80611458883c950a1356, 0xa240b0714712e2927ec055ceaa8e031ac671a55f, 0x4b17e8ee1cc1814636dde9ac12a42472799ccb64, 0x4b17e8ee1cc1814636dde9ac12a42472799ccb64, 0xa240b0714712e2927ec055ceaa8e031ac671a55f, 0xa240b0714712e2927ec055ceaa8e031ac671a55f, 0x048a5cefcdf0faeb734bc4a941e0de44d8c49f55, 0xa240b0714712e2927ec055ceaa8e031ac671a55f, 0xa240b0714712e2927ec055ceaa8e031ac671a55f, 0x3418a45e442210ec9579b074ae9acb13b2a67554, 0xa7c57315395def05f906310d590f4ea15308fe30, 0xde3fdb278b0ec3254e8701c38e58cfd1168f13a5, 0xc33b3317912d173806d782bfade797f262d9a4bd, 0x56249f01cf2b50a7f211bb9de08b1480835f574a, 0xa240b0714712e2927ec055ceaa8e031ac671a55f, 0xa240b0714712e2927ec055ceaa8e031ac671a55f, 0xa240b0714712e2927ec055ceaa8e031ac671a55f, 0x4b17e8ee1cc1814636dde9ac12a42472799ccb64, 0x4b17e8ee1cc1814636dde9ac12a42472799ccb64, 0xa240b0714712e2927ec055ceaa8e031ac671a55f, 0xb8b99101c1dbfad6aa418220592773be082db804, 0x60a5b05db6c8eb0b47f8227ea3b04bd751b79dbc, 0x93def24108852be52b2c34084d584338e46ab8f4]"
      ],
      "transaction": {
        "from": "0xe62ab4d111f968660c6b2188046f9b9ba53c4bae",
        "to": "0xf3a991cb19949cb6abd9e416f0408c648b6c36fa",
        "gas": "0x4ab529",
        "value": "0x0",
        "input": "0x2f68b4890000000000000000000000000000000000000000000000000000000000000001000000000000000000000000000000000000000000000000000000000000000100000000000000000000000000000000000000000000000000000000000000800000000000000000000000000000000000000000000000000000000000000a0000000000000000000000000000000000000000000000000000000000000000190000000000000000000000000000000000000000000000000000000000000320000000000000000000000000000000000000000000000000000000000000036000000000000000000000000000000000000000000000000000000000000003a000000000000000000000000000000000000000000000000000000000000003e00000000000000000000000000000000000000000000000000000000000000420000000000000000000000000000000000000000000000000000000000000046000000000000000000000000000000000000000000000000000000000000004a000000000000000000000000000000000000000000000000000000000000004e00000000000000000000000000000000000000000000000000000000000000520000000000000000000000000000000000000000000000000000000000000056000000000000000000000000000000000000000000000000000000000000005a000000000000000000000000000000000000000000000000000000000000005e00000000000000000000000000000000000000000000000000000000000000620000000000000000000000000000000000000000000000000000000000000066000000000000000000000000000000000000000000000000000000000000006a000000000000000000000000000000000000000000000000000000000000006e00000000000000000000000000000000000000000000000000000000000000720000000000000000000000000000000000000000000000000000000000000076000000000000000000000000000000000000000000000000000000000000007a000000000000000000000000000000000000000000000000000000000000007e00000000000000000000000000000000000000000000000000000000000000820000000000000000000000000000000000000000000000000000000000000086000000000000000000000000000000000000000000000000000000000000008a000000000000000000000000000000000000000000000000000000000000008e0000000000000000000000000000000000000000000000000000000000000092000000000000000000000000000000000000000000000000000000000000000053834353332000000000000000000000000000000000000000000000000000000000000000000000000000000000000000000000000000000000000000000000634323136313400000000000000000000000000000000000000000000000000000000000000000000000000000000000000000000000000000000000000000005383030303200000000000000000000000000000000000000000000000000000000000000000000000000000000000000000000000000000000000000000000053539313431000000000000000000000000000000000000000000000000000000000000000000000000000000000000000000000000000000000000000000000431313135000000000000000000000000000000000000000000000000000000000000000000000000000000000000000000000000000000000000000000000005313730303000000000000000000000000000000000000000000000000000000000000000000000000000000000000000000000000000000000000000000000043238313000000000000000000000000000000000000000000000000000000000000000000000000000000000000000000000000000000000000000000000000931363835383737373300000000000000000000000000000000000000000000000000000000000000000000000000000000000000000000000000000000000006323030383130000000000000000000000000000000000000000000000000000000000000000000000000000000000000000000000000000000000000000000063533343335310000000000000000000000000000000000000000000000000000000000000000000000000000000000000000000000000000000000000000000435303033000000000000000000000000000000000000000000000000000000000000000000000000000000000000000000000000000000000000000000000004343230310000000000000000000000000000000000000000000000000000000000000000000000000000000000000000000000000000000000000000000000053830303834000000000000000000000000000000000000000000000000000000000000000000000000000000000000000000000000000000000000000000000a313935323935393438300000000000000000000000000000000000000000000000000000000000000000000000000000000000000000000000000000000000053738363030000000000000000000000000000000000000000000000000000000000000000000000000000000000000000000000000000000000000000000000a313931383938383930350000000000000000000000000000000000000000000000000000000000000000000000000000000000000000000000000000000000043234383400000000000000000000000000000000000000000000000000000000000000000000000000000000000000000000000000000000000000000000000431393436000000000000000000000000000000000000000000000000000000000000000000000000000000000000000000000000000000000000000000000004353631310000000000000000000000000000000000000000000000000000000000000000000000000000000000000000000000000000000000000000000000053634313635000000000000000000000000000000000000000000000000000000000000000000000000000000000000000000000000000000000000000000000339393700000000000000000000000000000000000000000000000000000000000000000000000000000000000000000000000000000000000000000000000005313438353300000000000000000000000000000000000000000000000000000000000000000000000000000000000000000000000000000000000000000000033333380000000000000000000000000000000000000000000000000000000000000000000000000000000000000000000000000000000000000000000000000239370000000000000000000000000000000000000000000000000000000000000000000000000000000000000000000000000000000000000000000000000008313131353531313100000000000000000000000000000000000000000000000000000000000000000000000000000000000000000000000000000000000000190000000000000000000000000000000000000000000000000000000000000320000000000000000000000000000000000000000000000000000000000000038000000000000000000000000000000000000000000000000000000000000003e0000000000000000000000000000000000000000000000000000000000000044000000000000000000000000000000000000000000000000000000000000004a00000000000000000000000000000000000000000000000000000000000000500000000000000000000000000000000000000000000000000000000000000056000000000000000000000000000000000000000000000000000000000000005c00000000000000000000000000000000000000000000000000000000000000620000000000000000000000000000000000000000000000000000000000000068000000000000000000000000000000000000000000000000000000000000006e0000000000000000000000000000000000000000000000000000000000000074000000000000000000000000000000000000000000000000000000000000007a00000000000000000000000000000000000000000000000000000000000000800000000000000000000000000000000000000000000000000000000000000086000000000000000000000000000000000000000000000000000000000000008c00000000000000000000000000000000000000000000000000000000000000920000000000000000000000000000000000000000000000000000000000000098000000000000000000000000000000000000000000000000000000000000009e00000000000000000000000000000000000000000000000000000000000000a400000000000000000000000000000000000000000000000000000000000000aa00000000000000000000000000000000000000000000000000000000000000b000000000000000000000000000000000000000000000000000000000000000b600000000000000000000000000000000000000000000000000000000000000bc00000000000000000000000000000000000000000000000000000000000000c20000000000000000000000000000000000000000000000000000000000000002a30786639323239616365626132323866646262373537613633376565656261646234366664623631376500000000000000000000000000000000000000000000000000000000000000000000000000000000000000000000000000000000002a30783736393133393838313032346365373330646539646539633231653361643666623561383732663200000000000000000000000000000000000000000000000000000000000000000000000000000000000000000000000000000000002a30783935616536366164373830653733656632643261383036313134353838383363393530613133353600000000000000000000000000000000000000000000000000000000000000000000000000000000000000000000000000000000002a30786132343062303731343731326532393237656330353563656161386530333161633637316135356600000000000000000000000000000000000000000000000000000000000000000000000000000000000000000000000000000000002a30783462313765386565316363313831343633366464653961633132613432343732373939636362363400000000000000000000000000000000000000000000000000000000000000000000000000000000000000000000000000000000002a30783462313765386565316363313831343633366464653961633132613432343732373939636362363400000000000000000000000000000000000000000000000000000000000000000000000000000000000000000000000000000000002a30786132343062303731343731326532393237656330353563656161386530333161633637316135356600000000000000000000000000000000000000000000000000000000000000000000000000000000000000000000000000000000002a30786132343062303731343731326532393237656330353563656161386530333161633637316135356600000000000000000000000000000000000000000000000000000000000000000000000000000000000000000000000000000000002a30783034386135636566636466306661656237333462633461393431653064653434643863343966353500000000000000000000000000000000000000000000000000000000000000000000000000000000000000000000000000000000002a30786132343062303731343731326532393237656330353563656161386530333161633637316135356600000000000000000000000000000000000000000000000000000000000000000000000000000000000000000000000000000000002a30786132343062303731343731326532393237656330353563656161386530333161633637316135356600000000000000000000000000000000000000000000000000000000000000000000000000000000000000000000000000000000002a30783334313861343565343432323130656339353739623037346165396163623133623261363735353400000000000000000000000000000000000000000000000000000000000000000000000000000000000000000000000000000000002a30786137633537333135333935646566303566393036333130643539306634656131353330386665333000000000000000000000000000000000000000000000000000000000000000000000000000000000000000000000000000000000002a30786465336664623237386230656333323534653837303163333865353863666431313638663133613500000000000000000000000000000000000000000000000000000000000000000000000000000000000000000000000000000000002a30786333336233333137393132643137333830366437383262666164653739376632363264396134626400000000000000000000000000000000000000000000000000000000000000000000000000000000000000000000000000000000002a30783536323439663031636632623530613766323131626239646530386231343830383335663537346100000000000000000000000000000000000000000000000000000000000000000000000000000000000000000000000000000000002a30786132343062303731343731326532393237656330353563656161386530333161633637316135356600000000000000000000000000000000000000000000000000000000000000000000000000000000000000000000000000000000002a30786132343062303731343731326532393237656330353563656161386530333161633637316135356600000000000000000000000000000000000000000000000000000000000000000000000000000000000000000000000000000000002a30786132343062303731343731326532393237656330353563656161386530333161633637316135356600000000000000000000000000000000000000000000000000000000000000000000000000000000000000000000000000000000002a30783462313765386565316363313831343633366464653961633132613432343732373939636362363400000000000000000000000000000000000000000000000000000000000000000000000000000000000000000000000000000000002a30783462313765386565316363313831343633366464653961633132613432343732373939636362363400000000000000000000000000000000000000000000000000000000000000000000000000000000000000000000000000000000002a30786132343062303731343731326532393237656330353563656161386530333161633637316135356600000000000000000000000000000000000000000000000000000000000000000000000000000000000000000000000000000000002a30786238623939313031633164626661643661613431383232303539323737336265303832646238303400000000000000000000000000000000000000000000000000000000000000000000000000000000000000000000000000000000002a30783630613562303564623663386562306234376638323237656133623034626437353162373964626300000000000000000000000000000000000000000000000000000000000000000000000000000000000000000000000000000000002a30783933646566323431303838353262653532623263333430383464353834333338653436616238663400000000000000000000000000000000000000000000",
        "nonce": "0x310",
        "chainId": "0x14a34"
      },
      "additionalContracts": [],
      "isFixedGasLimit": false
    }
  ],
  "receipts": [
    {
      "status": "0x1",
      "cumulativeGasUsed": "0x167622",
      "logs": [],
      "logsBloom": "0x00000000000000000000000000000000000000000000000000000000000000000000000000000000000000000000000000000000000000000000000000000000000000000000000000000000000000000000000000000000000000000000000000000000000000000000000000000000000000000000000000000000000000000000000000000000000000000000000000000000000000000000000000000000000000000000000000000000000000000000000000000000000000000000000000000000000000000000000000000000000000000000000000000000000000000000000000000000000000000000000000000000000000000000000000000000",
      "type": "0x2",
      "transactionHash": "0x211bd8b3cf66acd91ddcac512067b86647a665785be2f86f872e015c329607a5",
      "transactionIndex": "0xc",
      "blockHash": "0xa734fc40908c15e7be00f04c74692e29d4293e94ce9ce927c8fb9741c0e9f377",
      "blockNumber": "0x128593c",
      "gasUsed": "0x5eb3",
      "effectiveGasPrice": "0x18813",
      "from": "0xe62ab4d111f968660c6b2188046f9b9ba53c4bae",
      "to": "0x5b4d2c1b2e918ff1b0de85803f5a737e5f816ecb",
      "contractAddress": null,
      "l1BaseFeeScalar": "0x44d",
      "l1BlobBaseFee": "0x1",
      "l1BlobBaseFeeScalar": "0xa118b",
      "l1Fee": "0x3ed4228155",
      "l1GasPrice": "0x23aa699e24",
      "l1GasUsed": "0x640"
    },
    {
      "status": "0x1",
      "cumulativeGasUsed": "0x17c343",
      "logs": [
        {
          "address": "0x5b4d2c1b2e918ff1b0de85803f5a737e5f816ecb",
          "topics": [
            "0x1394cfab38f3fc78ed77ea6f9318782a446d96e7dc8e9a6b0149f6be25c08bcf",
            "0x0000000000000000000000006a4dbc971533ba36bdc23ad70f5a7a12e064f4ae"
          ],
          "data": "0x",
          "blockHash": "0xc98517bfa7b77101c4f35b6c54494a6c697bf7c0771479e472658e054919f5bd",
          "blockNumber": "0x1285940",
          "transactionHash": "0x9e3b52039c2c8972e28cf0f4c4064179a55451ab811ca8bbc851ffa59d995073",
          "transactionIndex": "0x10",
          "logIndex": "0x1e",
          "removed": false
        }
      ],
      "logsBloom": "0x00000000000000000000000000000000000200000000000000000000000000000000000000000000000000000000000000000000000000001000000000000000000000000000000000000000000000000000001000000000000000000000000000000080000000000000000000000000000000000000000000000000000000000000000100000000000000000000000000000000000000000000000000000000000000000000000000080000000000000000000100000000000000000000000000000000000000000000000000000000000000002000000000000000000000000000000400000000000000000000000000000000000000000000000000000000",
      "type": "0x2",
      "transactionHash": "0x9e3b52039c2c8972e28cf0f4c4064179a55451ab811ca8bbc851ffa59d995073",
      "transactionIndex": "0x10",
      "blockHash": "0xc98517bfa7b77101c4f35b6c54494a6c697bf7c0771479e472658e054919f5bd",
      "blockNumber": "0x1285940",
      "gasUsed": "0x1bf00",
      "effectiveGasPrice": "0x18812",
      "from": "0xe62ab4d111f968660c6b2188046f9b9ba53c4bae",
      "to": "0x5b4d2c1b2e918ff1b0de85803f5a737e5f816ecb",
      "contractAddress": null,
      "l1BaseFeeScalar": "0x44d",
      "l1BlobBaseFee": "0x1",
      "l1BlobBaseFeeScalar": "0xa118b",
      "l1Fee": "0x43468c577c",
      "l1GasPrice": "0x229022e55c",
      "l1GasUsed": "0x6e7"
    },
    {
      "status": "0x1",
      "cumulativeGasUsed": "0x3f5589",
      "logs": [],
      "logsBloom": "0x00000000000000000000000000000000000000000000000000000000000000000000000000000000000000000000000000000000000000000000000000000000000000000000000000000000000000000000000000000000000000000000000000000000000000000000000000000000000000000000000000000000000000000000000000000000000000000000000000000000000000000000000000000000000000000000000000000000000000000000000000000000000000000000000000000000000000000000000000000000000000000000000000000000000000000000000000000000000000000000000000000000000000000000000000000000",
      "type": "0x2",
      "transactionHash": "0x51d64c4e35512a4aa97a23395d5c79f45f53176b03d38d2dc1c7c0daa5f577ef",
      "transactionIndex": "0x14",
      "blockHash": "0xccafba6ab6de117515593cf6e90e54458ce46477e4cab481117fd3df6a660cf5",
      "blockNumber": "0x1285944",
      "gasUsed": "0xbbf9",
      "effectiveGasPrice": "0x18811",
      "from": "0xe62ab4d111f968660c6b2188046f9b9ba53c4bae",
      "to": "0x5b4d2c1b2e918ff1b0de85803f5a737e5f816ecb",
      "contractAddress": null,
      "l1BaseFeeScalar": "0x44d",
      "l1BlobBaseFee": "0x1",
      "l1BlobBaseFeeScalar": "0xa118b",
      "l1Fee": "0x3ce2e07e96",
      "l1GasPrice": "0x229022e55c",
      "l1GasUsed": "0x640"
    },
    {
      "status": "0x1",
      "cumulativeGasUsed": "0x2244ad",
      "logs": [],
      "logsBloom": "0x00000000000000000000000000000000000000000000000000000000000000000000000000000000000000000000000000000000000000000000000000000000000000000000000000000000000000000000000000000000000000000000000000000000000000000000000000000000000000000000000000000000000000000000000000000000000000000000000000000000000000000000000000000000000000000000000000000000000000000000000000000000000000000000000000000000000000000000000000000000000000000000000000000000000000000000000000000000000000000000000000000000000000000000000000000000",
      "type": "0x2",
      "transactionHash": "0x8eeba7375ea4e1d6cfaa238b6ca5deed51b06a3152e8f89881fbb4b857542168",
      "transactionIndex": "0xf",
      "blockHash": "0x216f900a42160a90b2d383edea449271f6509f882d66177771fd5837ac40c6db",
      "blockNumber": "0x1285948",
      "gasUsed": "0xbc22",
      "effectiveGasPrice": "0x18812",
      "from": "0xe62ab4d111f968660c6b2188046f9b9ba53c4bae",
      "to": "0x5b4d2c1b2e918ff1b0de85803f5a737e5f816ecb",
      "contractAddress": null,
      "l1BaseFeeScalar": "0x44d",
      "l1BlobBaseFee": "0x1",
      "l1BlobBaseFeeScalar": "0xa118b",
      "l1Fee": "0x3bca656438",
      "l1GasPrice": "0x21f0eabba7",
      "l1GasUsed": "0x640"
    },
    {
      "status": "0x1",
      "cumulativeGasUsed": "0x374f18",
      "logs": [],
      "logsBloom": "0x00000000000000000000000000000000000000000000000000000000000000000000000000000000000000000000000000000000000000000000000000000000000000000000000000000000000000000000000000000000000000000000000000000000000000000000000000000000000000000000000000000000000000000000000000000000000000000000000000000000000000000000000000000000000000000000000000000000000000000000000000000000000000000000000000000000000000000000000000000000000000000000000000000000000000000000000000000000000000000000000000000000000000000000000000000000",
      "type": "0x2",
      "transactionHash": "0xb9693351919dd21c9fe79dcb22bca35c2b2bcadd7b024515df329da7f74c52ce",
      "transactionIndex": "0x1b",
      "blockHash": "0x81354600ef2383f99881d8d1dbdb979ee68e2c28b1f5bebe12f6896f62264aed",
      "blockNumber": "0x128594b",
      "gasUsed": "0xbc39",
      "effectiveGasPrice": "0x18812",
      "from": "0xe62ab4d111f968660c6b2188046f9b9ba53c4bae",
      "to": "0x5b4d2c1b2e918ff1b0de85803f5a737e5f816ecb",
      "contractAddress": null,
      "l1BaseFeeScalar": "0x44d",
      "l1BlobBaseFee": "0x1",
      "l1BlobBaseFeeScalar": "0xa118b",
      "l1Fee": "0x427809988d",
      "l1GasPrice": "0x25bb6bfc78",
      "l1GasUsed": "0x640"
    },
    {
      "status": "0x1",
      "cumulativeGasUsed": "0x2260cd",
      "logs": [],
      "logsBloom": "0x00000000000000000000000000000000000000000000000000000000000000000000000000000000000000000000000000000000000000000000000000000000000000000000000000000000000000000000000000000000000000000000000000000000000000000000000000000000000000000000000000000000000000000000000000000000000000000000000000000000000000000000000000000000000000000000000000000000000000000000000000000000000000000000000000000000000000000000000000000000000000000000000000000000000000000000000000000000000000000000000000000000000000000000000000000000",
      "type": "0x2",
      "transactionHash": "0xdc57fb48dac1e744ab4b4b983fdda3856d44c47fecc003af9708701a5211275e",
      "transactionIndex": "0x11",
      "blockHash": "0xae944beba024a33d08aecb8ca0a3dededdb409e82b1ec316b7fc06765ffdc5f7",
      "blockNumber": "0x128594f",
      "gasUsed": "0xbc50",
      "effectiveGasPrice": "0x18812",
      "from": "0xe62ab4d111f968660c6b2188046f9b9ba53c4bae",
      "to": "0x5b4d2c1b2e918ff1b0de85803f5a737e5f816ecb",
      "contractAddress": null,
      "l1BaseFeeScalar": "0x44d",
      "l1BlobBaseFee": "0x1",
      "l1BlobBaseFeeScalar": "0xa118b",
      "l1Fee": "0x427809988d",
      "l1GasPrice": "0x25bb6bfc78",
      "l1GasUsed": "0x640"
    },
    {
      "status": "0x1",
      "cumulativeGasUsed": "0x3540b9",
      "logs": [],
      "logsBloom": "0x00000000000000000000000000000000000000000000000000000000000000000000000000000000000000000000000000000000000000000000000000000000000000000000000000000000000000000000000000000000000000000000000000000000000000000000000000000000000000000000000000000000000000000000000000000000000000000000000000000000000000000000000000000000000000000000000000000000000000000000000000000000000000000000000000000000000000000000000000000000000000000000000000000000000000000000000000000000000000000000000000000000000000000000000000000000",
      "type": "0x2",
      "transactionHash": "0xe4fe85a831e2b9b0783d0a0a5db07a0d66ab14dbdcad95005139a79ec6e9dae4",
      "transactionIndex": "0x1d",
      "blockHash": "0xc99d75b05cc58e504ca381c1d48dfda27575a6db4b388547236cfd5d8296ac41",
      "blockNumber": "0x1285952",
      "gasUsed": "0xbc67",
      "effectiveGasPrice": "0x18812",
      "from": "0xe62ab4d111f968660c6b2188046f9b9ba53c4bae",
      "to": "0x5b4d2c1b2e918ff1b0de85803f5a737e5f816ecb",
      "contractAddress": null,
      "l1BaseFeeScalar": "0x44d",
      "l1BlobBaseFee": "0x1",
      "l1BlobBaseFeeScalar": "0xa118b",
      "l1Fee": "0x43f256aad3",
      "l1GasPrice": "0x26922b9dfa",
      "l1GasUsed": "0x640"
    },
    {
      "status": "0x1",
      "cumulativeGasUsed": "0x29aa1a",
      "logs": [],
      "logsBloom": "0x00000000000000000000000000000000000000000000000000000000000000000000000000000000000000000000000000000000000000000000000000000000000000000000000000000000000000000000000000000000000000000000000000000000000000000000000000000000000000000000000000000000000000000000000000000000000000000000000000000000000000000000000000000000000000000000000000000000000000000000000000000000000000000000000000000000000000000000000000000000000000000000000000000000000000000000000000000000000000000000000000000000000000000000000000000000",
      "type": "0x2",
      "transactionHash": "0xc7e0096fe8372e589e702aa802f393c17de54ddedd1c273908f851cf2eedb9c1",
      "transactionIndex": "0x14",
      "blockHash": "0x52e645f7972163bcffeb2b5a8268233dc69d02beb48660841f05674feb8a24ff",
      "blockNumber": "0x1285956",
      "gasUsed": "0xbc7e",
      "effectiveGasPrice": "0x18811",
      "from": "0xe62ab4d111f968660c6b2188046f9b9ba53c4bae",
      "to": "0x5b4d2c1b2e918ff1b0de85803f5a737e5f816ecb",
      "contractAddress": null,
      "l1BaseFeeScalar": "0x44d",
      "l1BlobBaseFee": "0x1",
      "l1BlobBaseFeeScalar": "0xa118b",
      "l1Fee": "0x43f256aad3",
      "l1GasPrice": "0x26922b9dfa",
      "l1GasUsed": "0x640"
    },
    {
      "status": "0x1",
      "cumulativeGasUsed": "0x163870",
      "logs": [],
      "logsBloom": "0x00000000000000000000000000000000000000000000000000000000000000000000000000000000000000000000000000000000000000000000000000000000000000000000000000000000000000000000000000000000000000000000000000000000000000000000000000000000000000000000000000000000000000000000000000000000000000000000000000000000000000000000000000000000000000000000000000000000000000000000000000000000000000000000000000000000000000000000000000000000000000000000000000000000000000000000000000000000000000000000000000000000000000000000000000000000",
      "type": "0x2",
      "transactionHash": "0x4965e646e060cbb5ad04da0c7f6350905d924d0e1b288d9055b29276c1cbdb06",
      "transactionIndex": "0xc",
      "blockHash": "0xd9ff967ac6348aa295d0a511cd436ee2b49c72227a23fe7da103f95dd6b5db7d",
      "blockNumber": "0x128595a",
      "gasUsed": "0xbc95",
      "effectiveGasPrice": "0x18812",
      "from": "0xe62ab4d111f968660c6b2188046f9b9ba53c4bae",
      "to": "0x5b4d2c1b2e918ff1b0de85803f5a737e5f816ecb",
      "contractAddress": null,
      "l1BaseFeeScalar": "0x44d",
      "l1BlobBaseFee": "0x1",
      "l1BlobBaseFeeScalar": "0xa118b",
      "l1Fee": "0x4a3707d841",
      "l1GasPrice": "0x2a2119610a",
      "l1GasUsed": "0x640"
    },
    {
      "status": "0x1",
      "cumulativeGasUsed": "0x373235",
      "logs": [],
      "logsBloom": "0x00000000000000000000000000000000000000000000000000000000000000000000000000000000000000000000000000000000000000000000000000000000000000000000000000000000000000000000000000000000000000000000000000000000000000000000000000000000000000000000000000000000000000000000000000000000000000000000000000000000000000000000000000000000000000000000000000000000000000000000000000000000000000000000000000000000000000000000000000000000000000000000000000000000000000000000000000000000000000000000000000000000000000000000000000000000",
      "type": "0x2",
      "transactionHash": "0x8c486396e4b34a50cec612dd0b648121613d697c079d5daf6537272644d4c0e5",
      "transactionIndex": "0x14",
      "blockHash": "0x31d841933b3aa236557b9ed39ab8c5691081b5f25c9af29056f0900c830f72ef",
      "blockNumber": "0x128595d",
      "gasUsed": "0xbcac",
      "effectiveGasPrice": "0x18811",
      "from": "0xe62ab4d111f968660c6b2188046f9b9ba53c4bae",
      "to": "0x5b4d2c1b2e918ff1b0de85803f5a737e5f816ecb",
      "contractAddress": null,
      "l1BaseFeeScalar": "0x44d",
      "l1BlobBaseFee": "0x1",
      "l1BlobBaseFeeScalar": "0xa118b",
      "l1Fee": "0x49f3d5eaef",
      "l1GasPrice": "0x29faf46f21",
      "l1GasUsed": "0x640"
    },
    {
      "status": "0x1",
      "cumulativeGasUsed": "0x245f2f",
      "logs": [],
      "logsBloom": "0x00000000000000000000000000000000000000000000000000000000000000000000000000000000000000000000000000000000000000000000000000000000000000000000000000000000000000000000000000000000000000000000000000000000000000000000000000000000000000000000000000000000000000000000000000000000000000000000000000000000000000000000000000000000000000000000000000000000000000000000000000000000000000000000000000000000000000000000000000000000000000000000000000000000000000000000000000000000000000000000000000000000000000000000000000000000",
      "type": "0x2",
      "transactionHash": "0x077e87afe6be2a35f3db2ccb298357055bbd7a20883313fa0034db6178d0d6c6",
      "transactionIndex": "0x13",
      "blockHash": "0xe855447e121fc93c682e7485c437450683c5984f171b588d3ec1ee1f3221595c",
      "blockNumber": "0x1285961",
      "gasUsed": "0xbcc3",
      "effectiveGasPrice": "0x18811",
      "from": "0xe62ab4d111f968660c6b2188046f9b9ba53c4bae",
      "to": "0x5b4d2c1b2e918ff1b0de85803f5a737e5f816ecb",
      "contractAddress": null,
      "l1BaseFeeScalar": "0x44d",
      "l1BlobBaseFee": "0x1",
      "l1BlobBaseFeeScalar": "0xa118b",
      "l1Fee": "0x49f3d5eaef",
      "l1GasPrice": "0x29faf46f21",
      "l1GasUsed": "0x640"
    },
    {
      "status": "0x1",
      "cumulativeGasUsed": "0x19a49d",
      "logs": [],
      "logsBloom": "0x00000000000000000000000000000000000000000000000000000000000000000000000000000000000000000000000000000000000000000000000000000000000000000000000000000000000000000000000000000000000000000000000000000000000000000000000000000000000000000000000000000000000000000000000000000000000000000000000000000000000000000000000000000000000000000000000000000000000000000000000000000000000000000000000000000000000000000000000000000000000000000000000000000000000000000000000000000000000000000000000000000000000000000000000000000000",
      "type": "0x2",
      "transactionHash": "0xc7c6a1c4f4398e21d5d2d608d32b25eb47e723e142b3ccfb41b5446c801c3b01",
      "transactionIndex": "0x10",
      "blockHash": "0x15748e1add052730850e6cdce2350fb1f202f1ce4d09cd1f5ff81cf35189a1a7",
      "blockNumber": "0x1285965",
      "gasUsed": "0xbcda",
      "effectiveGasPrice": "0x18810",
      "from": "0xe62ab4d111f968660c6b2188046f9b9ba53c4bae",
      "to": "0x5b4d2c1b2e918ff1b0de85803f5a737e5f816ecb",
      "contractAddress": null,
      "l1BaseFeeScalar": "0x44d",
      "l1BlobBaseFee": "0x1",
      "l1BlobBaseFeeScalar": "0xa118b",
      "l1Fee": "0x4f39c12c93",
      "l1GasPrice": "0x2cf941f1dd",
      "l1GasUsed": "0x640"
    },
    {
      "status": "0x1",
      "cumulativeGasUsed": "0x1e159a",
      "logs": [],
      "logsBloom": "0x00000000000000000000000000000000000000000000000000000000000000000000000000000000000000000000000000000000000000000000000000000000000000000000000000000000000000000000000000000000000000000000000000000000000000000000000000000000000000000000000000000000000000000000000000000000000000000000000000000000000000000000000000000000000000000000000000000000000000000000000000000000000000000000000000000000000000000000000000000000000000000000000000000000000000000000000000000000000000000000000000000000000000000000000000000000",
      "type": "0x2",
      "transactionHash": "0xa5784e2ed3aad303cc947dd8805620a762cd40c38a0e94f49cedee3dc01bb1dd",
      "transactionIndex": "0x11",
      "blockHash": "0x26460fb20b1341c939e6ec53704e594e7d7b3f326da637d19dbda43611caf97a",
      "blockNumber": "0x1285968",
      "gasUsed": "0xbcf1",
      "effectiveGasPrice": "0x18810",
      "from": "0xe62ab4d111f968660c6b2188046f9b9ba53c4bae",
      "to": "0x5b4d2c1b2e918ff1b0de85803f5a737e5f816ecb",
      "contractAddress": null,
      "l1BaseFeeScalar": "0x44d",
      "l1BlobBaseFee": "0x1",
      "l1BlobBaseFeeScalar": "0xa118b",
      "l1Fee": "0x4f39c12c93",
      "l1GasPrice": "0x2cf941f1dd",
      "l1GasUsed": "0x640"
    },
    {
      "status": "0x1",
      "cumulativeGasUsed": "0x1119bc",
      "logs": [],
      "logsBloom": "0x00000000000000000000000000000000000000000000000000000000000000000000000000000000000000000000000000000000000000000000000000000000000000000000000000000000000000000000000000000000000000000000000000000000000000000000000000000000000000000000000000000000000000000000000000000000000000000000000000000000000000000000000000000000000000000000000000000000000000000000000000000000000000000000000000000000000000000000000000000000000000000000000000000000000000000000000000000000000000000000000000000000000000000000000000000000",
      "type": "0x2",
      "transactionHash": "0xac0c4a5fedc2977bd1f937a5dbdcfc4325a9ececefbbf2f7a4127fc061f253ac",
      "transactionIndex": "0x9",
      "blockHash": "0x74c95cbf52b6c744ea00ae1a46b684687ecbf701561dfabb895b6f48fb0927f3",
      "blockNumber": "0x128596c",
      "gasUsed": "0xbd08",
      "effectiveGasPrice": "0x18810",
      "from": "0xe62ab4d111f968660c6b2188046f9b9ba53c4bae",
      "to": "0x5b4d2c1b2e918ff1b0de85803f5a737e5f816ecb",
      "contractAddress": null,
      "l1BaseFeeScalar": "0x44d",
      "l1BlobBaseFee": "0x1",
      "l1BlobBaseFeeScalar": "0xa118b",
      "l1Fee": "0x50503f0d07",
      "l1GasPrice": "0x2d97590993",
      "l1GasUsed": "0x640"
    },
    {
      "status": "0x1",
      "cumulativeGasUsed": "0x229fee",
      "logs": [],
      "logsBloom": "0x00000000000000000000000000000000000000000000000000000000000000000000000000000000000000000000000000000000000000000000000000000000000000000000000000000000000000000000000000000000000000000000000000000000000000000000000000000000000000000000000000000000000000000000000000000000000000000000000000000000000000000000000000000000000000000000000000000000000000000000000000000000000000000000000000000000000000000000000000000000000000000000000000000000000000000000000000000000000000000000000000000000000000000000000000000000",
      "type": "0x2",
      "transactionHash": "0x5d9b2f56e1e785cd67491d611a36df6c25420a9ec953a689be38c42da9ba05c5",
      "transactionIndex": "0xe",
      "blockHash": "0x20378e43e27adcb1314df6eb9099f1b81599d7566f9eeda77aea162e63df87b2",
      "blockNumber": "0x1285970",
      "gasUsed": "0xbd1f",
      "effectiveGasPrice": "0x1880f",
      "from": "0xe62ab4d111f968660c6b2188046f9b9ba53c4bae",
      "to": "0x5b4d2c1b2e918ff1b0de85803f5a737e5f816ecb",
      "contractAddress": null,
      "l1BaseFeeScalar": "0x44d",
      "l1BlobBaseFee": "0x1",
      "l1BlobBaseFeeScalar": "0xa118b",
      "l1Fee": "0x4d25d9a05b",
      "l1GasPrice": "0x2bcb504a60",
      "l1GasUsed": "0x640"
    },
    {
      "status": "0x1",
      "cumulativeGasUsed": "0x1bae49",
      "logs": [],
      "logsBloom": "0x00000000000000000000000000000000000000000000000000000000000000000000000000000000000000000000000000000000000000000000000000000000000000000000000000000000000000000000000000000000000000000000000000000000000000000000000000000000000000000000000000000000000000000000000000000000000000000000000000000000000000000000000000000000000000000000000000000000000000000000000000000000000000000000000000000000000000000000000000000000000000000000000000000000000000000000000000000000000000000000000000000000000000000000000000000000",
      "type": "0x2",
      "transactionHash": "0x89ad985a27d1daa670f48a9e2640a1f5c45d67ba4cb32081821054c98c896663",
      "transactionIndex": "0x13",
      "blockHash": "0xea1f45375ced827cc7cb76e299108c5c5677c1db110a3c36439abd679bd94319",
      "blockNumber": "0x1285973",
      "gasUsed": "0xbd36",
      "effectiveGasPrice": "0x1880f",
      "from": "0xe62ab4d111f968660c6b2188046f9b9ba53c4bae",
      "to": "0x5b4d2c1b2e918ff1b0de85803f5a737e5f816ecb",
      "contractAddress": null,
      "l1BaseFeeScalar": "0x44d",
      "l1BlobBaseFee": "0x1",
      "l1BlobBaseFeeScalar": "0xa118b",
      "l1Fee": "0x4d25d9a05b",
      "l1GasPrice": "0x2bcb504a60",
      "l1GasUsed": "0x640"
    },
    {
      "status": "0x1",
      "cumulativeGasUsed": "0x223924",
      "logs": [],
      "logsBloom": "0x00000000000000000000000000000000000000000000000000000000000000000000000000000000000000000000000000000000000000000000000000000000000000000000000000000000000000000000000000000000000000000000000000000000000000000000000000000000000000000000000000000000000000000000000000000000000000000000000000000000000000000000000000000000000000000000000000000000000000000000000000000000000000000000000000000000000000000000000000000000000000000000000000000000000000000000000000000000000000000000000000000000000000000000000000000000",
      "type": "0x2",
      "transactionHash": "0x057efa56737c7a4a86ef7c39965b16efe28d73bf6ab11f8fc6a71f1b4ae5019b",
      "transactionIndex": "0x11",
      "blockHash": "0x8ffed6d631c3fa86fba8537b5a4625a7e893694b805b812293e1a4731f496d79",
      "blockNumber": "0x1285977",
      "gasUsed": "0xbd4d",
      "effectiveGasPrice": "0x18810",
      "from": "0xe62ab4d111f968660c6b2188046f9b9ba53c4bae",
      "to": "0x5b4d2c1b2e918ff1b0de85803f5a737e5f816ecb",
      "contractAddress": null,
      "l1BaseFeeScalar": "0x44d",
      "l1BlobBaseFee": "0x1",
      "l1BlobBaseFeeScalar": "0xa118b",
      "l1Fee": "0x508efb3bbd",
      "l1GasPrice": "0x2dbaf5da62",
      "l1GasUsed": "0x640"
    },
    {
      "status": "0x1",
      "cumulativeGasUsed": "0x2a8239",
      "logs": [],
      "logsBloom": "0x00000000000000000000000000000000000000000000000000000000000000000000000000000000000000000000000000000000000000000000000000000000000000000000000000000000000000000000000000000000000000000000000000000000000000000000000000000000000000000000000000000000000000000000000000000000000000000000000000000000000000000000000000000000000000000000000000000000000000000000000000000000000000000000000000000000000000000000000000000000000000000000000000000000000000000000000000000000000000000000000000000000000000000000000000000000",
      "type": "0x2",
      "transactionHash": "0x8359ca93243e1635fc104dbdcc89a8d132831eb3ef413840f301bce7fd2c7826",
      "transactionIndex": "0x18",
      "blockHash": "0xd2d522e61560b2f8c8b23d5ff1488862abe4ec1fc9a9f1194484ea3e1138dbec",
      "blockNumber": "0x128597a",
      "gasUsed": "0xbd64",
      "effectiveGasPrice": "0x1880f",
      "from": "0xe62ab4d111f968660c6b2188046f9b9ba53c4bae",
      "to": "0x5b4d2c1b2e918ff1b0de85803f5a737e5f816ecb",
      "contractAddress": null,
      "l1BaseFeeScalar": "0x44d",
      "l1BlobBaseFee": "0x1",
      "l1BlobBaseFeeScalar": "0xa118b",
      "l1Fee": "0x508efb3bbd",
      "l1GasPrice": "0x2dbaf5da62",
      "l1GasUsed": "0x640"
    },
    {
      "status": "0x1",
      "cumulativeGasUsed": "0x3fcc34",
      "logs": [],
      "logsBloom": "0x00000000000000000000000000000000000000000000000000000000000000000000000000000000000000000000000000000000000000000000000000000000000000000000000000000000000000000000000000000000000000000000000000000000000000000000000000000000000000000000000000000000000000000000000000000000000000000000000000000000000000000000000000000000000000000000000000000000000000000000000000000000000000000000000000000000000000000000000000000000000000000000000000000000000000000000000000000000000000000000000000000000000000000000000000000000",
      "type": "0x2",
      "transactionHash": "0x6bb9b0fa381fa5be2093e094143ad50b67857c67faae4db574cadf59498f02e7",
      "transactionIndex": "0x14",
      "blockHash": "0xfc2001cae7e1203114a276cced419836248f7d0c49809c319856c269ba1e18fe",
      "blockNumber": "0x128597e",
      "gasUsed": "0xbd7b",
      "effectiveGasPrice": "0x1880f",
      "from": "0xe62ab4d111f968660c6b2188046f9b9ba53c4bae",
      "to": "0x5b4d2c1b2e918ff1b0de85803f5a737e5f816ecb",
      "contractAddress": null,
      "l1BaseFeeScalar": "0x44d",
      "l1BlobBaseFee": "0x1",
      "l1BlobBaseFeeScalar": "0xa118b",
      "l1Fee": "0x4bdab91e3a",
      "l1GasPrice": "0x2b0f581c68",
      "l1GasUsed": "0x640"
    },
    {
      "status": "0x1",
      "cumulativeGasUsed": "0x1c6c1f",
      "logs": [],
      "logsBloom": "0x00000000000000000000000000000000000000000000000000000000000000000000000000000000000000000000000000000000000000000000000000000000000000000000000000000000000000000000000000000000000000000000000000000000000000000000000000000000000000000000000000000000000000000000000000000000000000000000000000000000000000000000000000000000000000000000000000000000000000000000000000000000000000000000000000000000000000000000000000000000000000000000000000000000000000000000000000000000000000000000000000000000000000000000000000000000",
      "type": "0x2",
      "transactionHash": "0x0b39a002e34118d3a468c0f331d75f1e196a688bc286af3e1f27113e97a72d66",
      "transactionIndex": "0x10",
      "blockHash": "0xd3a3cd3d30a95ffa2870b127f3c2f7864cf7e70c2c8231b37ee355029dfa9ee6",
      "blockNumber": "0x1285982",
      "gasUsed": "0xbd92",
      "effectiveGasPrice": "0x1880f",
      "from": "0xe62ab4d111f968660c6b2188046f9b9ba53c4bae",
      "to": "0x5b4d2c1b2e918ff1b0de85803f5a737e5f816ecb",
      "contractAddress": null,
      "l1BaseFeeScalar": "0x44d",
      "l1BlobBaseFee": "0x1",
      "l1BlobBaseFeeScalar": "0xa118b",
      "l1Fee": "0x48db95f15e",
      "l1GasPrice": "0x295bddd611",
      "l1GasUsed": "0x640"
    },
    {
      "status": "0x1",
      "cumulativeGasUsed": "0x3744fe",
      "logs": [],
      "logsBloom": "0x00000000000000000000000000000000000000000000000000000000000000000000000000000000000000000000000000000000000000000000000000000000000000000000000000000000000000000000000000000000000000000000000000000000000000000000000000000000000000000000000000000000000000000000000000000000000000000000000000000000000000000000000000000000000000000000000000000000000000000000000000000000000000000000000000000000000000000000000000000000000000000000000000000000000000000000000000000000000000000000000000000000000000000000000000000000",
      "type": "0x2",
      "transactionHash": "0x7bcafb67d1e190b582bad690337e2d8e893492774f5d118bcc3fc806a404e13c",
      "transactionIndex": "0x12",
      "blockHash": "0xc465ed3116ba50192e8a11ce521f565eb63a3e8549d23c01daea3dbba8e2b5ed",
      "blockNumber": "0x1285985",
      "gasUsed": "0xbda9",
      "effectiveGasPrice": "0x1880e",
      "from": "0xe62ab4d111f968660c6b2188046f9b9ba53c4bae",
      "to": "0x5b4d2c1b2e918ff1b0de85803f5a737e5f816ecb",
      "contractAddress": null,
      "l1BaseFeeScalar": "0x44d",
      "l1BlobBaseFee": "0x1",
      "l1BlobBaseFeeScalar": "0xa118b",
      "l1Fee": "0x48db95f15e",
      "l1GasPrice": "0x295bddd611",
      "l1GasUsed": "0x640"
    },
    {
      "status": "0x1",
      "cumulativeGasUsed": "0x23f126",
      "logs": [],
      "logsBloom": "0x00000000000000000000000000000000000000000000000000000000000000000000000000000000000000000000000000000000000000000000000000000000000000000000000000000000000000000000000000000000000000000000000000000000000000000000000000000000000000000000000000000000000000000000000000000000000000000000000000000000000000000000000000000000000000000000000000000000000000000000000000000000000000000000000000000000000000000000000000000000000000000000000000000000000000000000000000000000000000000000000000000000000000000000000000000000",
      "type": "0x2",
      "transactionHash": "0x7e2fc1ec6d1a04d521489a41dbc2db792de8c99c955d34cfe43ef4d5e74eba7d",
      "transactionIndex": "0x16",
      "blockHash": "0xbd10f97dd09cea45cc2d81d6a54735664147cb4bdc082fb1dcbefe0f0dd94f5c",
      "blockNumber": "0x1285989",
      "gasUsed": "0xbdc0",
      "effectiveGasPrice": "0x1880e",
      "from": "0xe62ab4d111f968660c6b2188046f9b9ba53c4bae",
      "to": "0x5b4d2c1b2e918ff1b0de85803f5a737e5f816ecb",
      "contractAddress": null,
      "l1BaseFeeScalar": "0x44d",
      "l1BlobBaseFee": "0x1",
      "l1BlobBaseFeeScalar": "0xa118b",
      "l1Fee": "0x48558355ed",
      "l1GasPrice": "0x290fc2113e",
      "l1GasUsed": "0x640"
    },
    {
      "status": "0x1",
      "cumulativeGasUsed": "0x24c65a",
      "logs": [],
      "logsBloom": "0x00000000000000000000000000000000000000000000000000000000000000000000000000000000000000000000000000000000000000000000000000000000000000000000000000000000000000000000000000000000000000000000000000000000000000000000000000000000000000000000000000000000000000000000000000000000000000000000000000000000000000000000000000000000000000000000000000000000000000000000000000000000000000000000000000000000000000000000000000000000000000000000000000000000000000000000000000000000000000000000000000000000000000000000000000000000",
      "type": "0x2",
      "transactionHash": "0x7fbe2fed4661beede1638c0f9ecad397c1f3add945c22ac636388f4e45746043",
      "transactionIndex": "0x7",
      "blockHash": "0x14efae695103ac74ce7e5e71545fb3acdb6821c4a791b27aace74a67ac242a58",
      "blockNumber": "0x128598d",
      "gasUsed": "0xbdd2",
      "effectiveGasPrice": "0x1880f",
      "from": "0xe62ab4d111f968660c6b2188046f9b9ba53c4bae",
      "to": "0x5b4d2c1b2e918ff1b0de85803f5a737e5f816ecb",
      "contractAddress": null,
      "l1BaseFeeScalar": "0x44d",
      "l1BlobBaseFee": "0x1",
      "l1BlobBaseFeeScalar": "0xa118b",
      "l1Fee": "0x4568e1b878",
      "l1GasPrice": "0x2766c924ad",
      "l1GasUsed": "0x640"
    },
    {
      "status": "0x1",
      "cumulativeGasUsed": "0x3bdde1",
      "logs": [],
      "logsBloom": "0x00000000000000000000000000000000000000000000000000000000000000000000000000000000000000000000000000000000000000000000000000000000000000000000000000000000000000000000000000000000000000000000000000000000000000000000000000000000000000000000000000000000000000000000000000000000000000000000000000000000000000000000000000000000000000000000000000000000000000000000000000000000000000000000000000000000000000000000000000000000000000000000000000000000000000000000000000000000000000000000000000000000000000000000000000000000",
      "type": "0x2",
      "transactionHash": "0x4c2294a1fb488aa1ff5250446c1223d53705d8160a29577787ca82cefabda68b",
      "transactionIndex": "0x14",
      "blockHash": "0xcf1669ec383614bbf22cc34b69e4d27345ab516c390b8f7a1edef30055315a08",
      "blockNumber": "0x1285990",
      "gasUsed": "0x224ec",
      "effectiveGasPrice": "0x18810",
      "from": "0xe62ab4d111f968660c6b2188046f9b9ba53c4bae",
      "to": "0x5b4d2c1b2e918ff1b0de85803f5a737e5f816ecb",
      "contractAddress": null,
      "l1BaseFeeScalar": "0x44d",
      "l1BlobBaseFee": "0x1",
      "l1BlobBaseFeeScalar": "0xa118b",
      "l1Fee": "0x66d22e8402",
      "l1GasPrice": "0x2766c924ad",
      "l1GasUsed": "0x942"
    },
    {
      "status": "0x1",
      "cumulativeGasUsed": "0x176ce9",
      "logs": [],
      "logsBloom": "0x00000000000000000000000000000000000000000000000000000000000000000000000000000000000000000000000000000000000000000000000000000000000000000000000000000000000000000000000000000000000000000000000000000000000000000000000000000000000000000000000000000000000000000000000000000000000000000000000000000000000000000000000000000000000000000000000000000000000000000000000000000000000000000000000000000000000000000000000000000000000000000000000000000000000000000000000000000000000000000000000000000000000000000000000000000000",
      "type": "0x2",
      "transactionHash": "0xad0670dad60e83e7185ec248b411a83b9f03ea3e9225e709415ef7eb340651e4",
      "transactionIndex": "0x12",
      "blockHash": "0x6a049a13cdfceaf23891de8f9b66081e55151b94862df32e9e2d276af652034d",
      "blockNumber": "0x1285994",
      "gasUsed": "0x1e86c",
      "effectiveGasPrice": "0x18811",
      "from": "0xe62ab4d111f968660c6b2188046f9b9ba53c4bae",
      "to": "0x5b4d2c1b2e918ff1b0de85803f5a737e5f816ecb",
      "contractAddress": null,
      "l1BaseFeeScalar": "0x44d",
      "l1BlobBaseFee": "0x1",
      "l1BlobBaseFeeScalar": "0xa118b",
      "l1Fee": "0x68f93877f2",
      "l1GasPrice": "0x28746d672a",
      "l1GasUsed": "0x934"
    },
    {
      "status": "0x1",
      "cumulativeGasUsed": "0x2bb481",
      "logs": [],
      "logsBloom": "0x00000000000000000000000000000000000000000000000000000000000000000000000000000000000000000000000000000000000000000000000000000000000000000000000000000000000000000000000000000000000000000000000000000000000000000000000000000000000000000000000000000000000000000000000000000000000000000000000000000000000000000000000000000000000000000000000000000000000000000000000000000000000000000000000000000000000000000000000000000000000000000000000000000000000000000000000000000000000000000000000000000000000000000000000000000000",
      "type": "0x2",
      "transactionHash": "0xca7827fb25fe4dab2c19bc3cc4bbbad415f3faa9f0a3d90699b87678ffff3863",
      "transactionIndex": "0x14",
      "blockHash": "0xdf9c1bdbd3330e627b0f4e35958838ee5c619c6fcfcf79b94aa5aef563561d06",
      "blockNumber": "0x1285998",
      "gasUsed": "0x1e86c",
      "effectiveGasPrice": "0x18811",
      "from": "0xe62ab4d111f968660c6b2188046f9b9ba53c4bae",
      "to": "0x5b4d2c1b2e918ff1b0de85803f5a737e5f816ecb",
      "contractAddress": null,
      "l1BaseFeeScalar": "0x44d",
      "l1BlobBaseFee": "0x1",
      "l1BlobBaseFeeScalar": "0xa118b",
      "l1Fee": "0x68f93877f2",
      "l1GasPrice": "0x28746d672a",
      "l1GasUsed": "0x934"
    },
    {
      "status": "0x1",
      "cumulativeGasUsed": "0x2587b8",
      "logs": [],
      "logsBloom": "0x00000000000000000000000000000000000000000000000000000000000000000000000000000000000000000000000000000000000000000000000000000000000000000000000000000000000000000000000000000000000000000000000000000000000000000000000000000000000000000000000000000000000000000000000000000000000000000000000000000000000000000000000000000000000000000000000000000000000000000000000000000000000000000000000000000000000000000000000000000000000000000000000000000000000000000000000000000000000000000000000000000000000000000000000000000000",
      "type": "0x2",
      "transactionHash": "0xaeefcf1abf9bf7f2b4a15624c7eadb7f6618ac98b4189b836d13e3e56775346f",
      "transactionIndex": "0x19",
      "blockHash": "0xabddd3406f6cc1f412c04e8a3f4a54c8f41b0cfcc21eae11e6fbb0d9a49893eb",
      "blockNumber": "0x128599b",
      "gasUsed": "0x1e86c",
      "effectiveGasPrice": "0x18811",
      "from": "0xe62ab4d111f968660c6b2188046f9b9ba53c4bae",
      "to": "0x5b4d2c1b2e918ff1b0de85803f5a737e5f816ecb",
      "contractAddress": null,
      "l1BaseFeeScalar": "0x44d",
      "l1BlobBaseFee": "0x1",
      "l1BlobBaseFeeScalar": "0xa118b",
      "l1Fee": "0x6984c2f292",
      "l1GasPrice": "0x28aa342a7e",
      "l1GasUsed": "0x934"
    },
    {
      "status": "0x1",
      "cumulativeGasUsed": "0x4d527e",
      "logs": [],
      "logsBloom": "0x00000000000000000000000000000000000000000000000000000000000000000000000000000000000000000000000000000000000000000000000000000000000000000000000000000000000000000000000000000000000000000000000000000000000000000000000000000000000000000000000000000000000000000000000000000000000000000000000000000000000000000000000000000000000000000000000000000000000000000000000000000000000000000000000000000000000000000000000000000000000000000000000000000000000000000000000000000000000000000000000000000000000000000000000000000000",
      "type": "0x2",
      "transactionHash": "0x95402c105702ec1e74d7ff077cf4ae8f43d4fde2f744e86b232f8929fd088f23",
      "transactionIndex": "0x17",
      "blockHash": "0xa85b74e6f8dca2275e9d2f78413f4111c34713f3e94387a6b13800bc5755ce18",
      "blockNumber": "0x128599f",
      "gasUsed": "0x1e6e8",
      "effectiveGasPrice": "0x18810",
      "from": "0xe62ab4d111f968660c6b2188046f9b9ba53c4bae",
      "to": "0x5b4d2c1b2e918ff1b0de85803f5a737e5f816ecb",
      "contractAddress": null,
      "l1BaseFeeScalar": "0x44d",
      "l1BlobBaseFee": "0x1",
      "l1BlobBaseFeeScalar": "0xa118b",
      "l1Fee": "0x6cdd3b7fda",
      "l1GasPrice": "0x2a319cce3b",
      "l1GasUsed": "0x927"
    },
    {
      "status": "0x1",
      "cumulativeGasUsed": "0x272d96",
      "logs": [],
      "logsBloom": "0x00000000000000000000000000000000000000000000000000000000000000000000000000000000000000000000000000000000000000000000000000000000000000000000000000000000000000000000000000000000000000000000000000000000000000000000000000000000000000000000000000000000000000000000000000000000000000000000000000000000000000000000000000000000000000000000000000000000000000000000000000000000000000000000000000000000000000000000000000000000000000000000000000000000000000000000000000000000000000000000000000000000000000000000000000000000",
      "type": "0x2",
      "transactionHash": "0xdca60ee72950db66e843ceddb6bdba100ad3c7278954aa70b6546026dc62244e",
      "transactionIndex": "0x14",
      "blockHash": "0x339ede5eab2eb8962528a7bcb8093c9f6f079c3652244705bb17e1616366c300",
      "blockNumber": "0x12859a2",
      "gasUsed": "0x1e86c",
      "effectiveGasPrice": "0x18810",
      "from": "0xe62ab4d111f968660c6b2188046f9b9ba53c4bae",
      "to": "0x5b4d2c1b2e918ff1b0de85803f5a737e5f816ecb",
      "contractAddress": null,
      "l1BaseFeeScalar": "0x44d",
      "l1BlobBaseFee": "0x1",
      "l1BlobBaseFeeScalar": "0xa118b",
      "l1Fee": "0x6d7c6713fb",
      "l1GasPrice": "0x2a319cce3b",
      "l1GasUsed": "0x934"
    },
    {
      "status": "0x1",
      "cumulativeGasUsed": "0x4028d4",
      "logs": [],
      "logsBloom": "0x00000000000000000000000000000000000000000000000000000000000000000000000000000000000000000000000000000000000000000000000000000000000000000000000000000000000000000000000000000000000000000000000000000000000000000000000000000000000000000000000000000000000000000000000000000000000000000000000000000000000000000000000000000000000000000000000000000000000000000000000000000000000000000000000000000000000000000000000000000000000000000000000000000000000000000000000000000000000000000000000000000000000000000000000000000000",
      "type": "0x2",
      "transactionHash": "0x588a4f59b090ac07e4512a7e01ae92ab971106ec637ca4ac0f21c6f0220af1eb",
      "transactionIndex": "0x1e",
      "blockHash": "0x6d7b1d69f41d14fa4852b9200067acf9f24674dbc8885ba454bd2107c1ad173b",
      "blockNumber": "0x12859a6",
      "gasUsed": "0x1e6e8",
      "effectiveGasPrice": "0x18810",
      "from": "0xe62ab4d111f968660c6b2188046f9b9ba53c4bae",
      "to": "0x5b4d2c1b2e918ff1b0de85803f5a737e5f816ecb",
      "contractAddress": null,
      "l1BaseFeeScalar": "0x44d",
      "l1BlobBaseFee": "0x1",
      "l1BlobBaseFeeScalar": "0xa118b",
      "l1Fee": "0x6980e3bd46",
      "l1GasPrice": "0x28e428bda1",
      "l1GasUsed": "0x927"
    },
    {
      "status": "0x1",
      "cumulativeGasUsed": "0x1c9316",
      "logs": [],
      "logsBloom": "0x00000000000000000000000000000000000000000000000000000000000000000000000000000000000000000000000000000000000000000000000000000000000000000000000000000000000000000000000000000000000000000000000000000000000000000000000000000000000000000000000000000000000000000000000000000000000000000000000000000000000000000000000000000000000000000000000000000000000000000000000000000000000000000000000000000000000000000000000000000000000000000000000000000000000000000000000000000000000000000000000000000000000000000000000000000000",
      "type": "0x2",
      "transactionHash": "0xc29aa60672869fd927cb98f66e778601b5bcfa8357a9c532a334b6a7cd54d162",
      "transactionIndex": "0x14",
      "blockHash": "0x93a05ee325b47dbb5493f6afe456135c9cd1f6525bfb60d511c1b50e947d1770",
      "blockNumber": "0x12859aa",
      "gasUsed": "0x1ee7c",
      "effectiveGasPrice": "0x18811",
      "from": "0xe62ab4d111f968660c6b2188046f9b9ba53c4bae",
      "to": "0x5b4d2c1b2e918ff1b0de85803f5a737e5f816ecb",
      "contractAddress": null,
      "l1BaseFeeScalar": "0x44d",
      "l1BlobBaseFee": "0x1",
      "l1BlobBaseFeeScalar": "0xa118b",
      "l1Fee": "0x6c842c19b2",
      "l1GasPrice": "0x28e428bda1",
      "l1GasUsed": "0x96a"
    },
    {
      "status": "0x1",
      "cumulativeGasUsed": "0x3ee22b",
      "logs": [],
      "logsBloom": "0x00000000000000000000000000000000000000000000000000000000000000000000000000000000000000000000000000000000000000000000000000000000000000000000000000000000000000000000000000000000000000000000000000000000000000000000000000000000000000000000000000000000000000000000000000000000000000000000000000000000000000000000000000000000000000000000000000000000000000000000000000000000000000000000000000000000000000000000000000000000000000000000000000000000000000000000000000000000000000000000000000000000000000000000000000000000",
      "type": "0x2",
      "transactionHash": "0x07521afb02e9d6ef37cdd29c54afc7d2af2f214fb2997abf675c4174c4f1da96",
      "transactionIndex": "0x18",
      "blockHash": "0x47c276dacfd56b3f4b512967b861050dab4c1ebc68b1ba20da926683455e34ac",
      "blockNumber": "0x12859ad",
      "gasUsed": "0x1e9f0",
      "effectiveGasPrice": "0x18811",
      "from": "0xe62ab4d111f968660c6b2188046f9b9ba53c4bae",
      "to": "0x5b4d2c1b2e918ff1b0de85803f5a737e5f816ecb",
      "contractAddress": null,
      "l1BaseFeeScalar": "0x44d",
      "l1BlobBaseFee": "0x1",
      "l1BlobBaseFeeScalar": "0xa118b",
      "l1Fee": "0x69727bd4da",
      "l1GasPrice": "0x28686a4142",
      "l1GasUsed": "0x942"
    },
    {
      "status": "0x1",
      "cumulativeGasUsed": "0x12f865",
      "logs": [],
      "logsBloom": "0x00000000000000000000000000000000000000000000000000000000000000000000000000000000000000000000000000000000000000000000000000000000000000000000000000000000000000000000000000000000000000000000000000000000000000000000000000000000000000000000000000000000000000000000000000000000000000000000000000000000000000000000000000000000000000000000000000000000000000000000000000000000000000000000000000000000000000000000000000000000000000000000000000000000000000000000000000000000000000000000000000000000000000000000000000000000",
      "type": "0x2",
      "transactionHash": "0x6166d020ac0d8ec314c1539291bbf7a25125b6404108cabe1248ebd763df5786",
      "transactionIndex": "0xc",
      "blockHash": "0x09aa7ef1584d33c41b91c05b16e017742d9920f8ac4083ac10b7b0ce493ae39e",
      "blockNumber": "0x12859b1",
      "gasUsed": "0x1e9f0",
      "effectiveGasPrice": "0x18811",
      "from": "0xe62ab4d111f968660c6b2188046f9b9ba53c4bae",
      "to": "0x5b4d2c1b2e918ff1b0de85803f5a737e5f816ecb",
      "contractAddress": null,
      "l1BaseFeeScalar": "0x44d",
      "l1BlobBaseFee": "0x1",
      "l1BlobBaseFeeScalar": "0xa118b",
      "l1Fee": "0x6cec76feff",
      "l1GasPrice": "0x29bd75c726",
      "l1GasUsed": "0x942"
    },
    {
      "status": "0x1",
      "cumulativeGasUsed": "0x81616c",
      "logs": [],
      "logsBloom": "0x00000000000000000000000000000000000000000000000000000000000000000000000000000000000000000000000000000000000000000000000000000000000000000000000000000000000000000000000000000000000000000000000000000000000000000000000000000000000000000000000000000000000000000000000000000000000000000000000000000000000000000000000000000000000000000000000000000000000000000000000000000000000000000000000000000000000000000000000000000000000000000000000000000000000000000000000000000000000000000000000000000000000000000000000000000000",
      "type": "0x2",
      "transactionHash": "0x469e52ed902e9bd7629d58e7d0c7855885dab4151007afa5993040e8f43c9d3f",
      "transactionIndex": "0x8",
      "blockHash": "0xdb086f5c572d20e00c2d6cde465ed1e6de26cee1e874c183efca415e4a5906a1",
      "blockNumber": "0x12859b5",
      "gasUsed": "0x1e6e8",
      "effectiveGasPrice": "0x18811",
      "from": "0xe62ab4d111f968660c6b2188046f9b9ba53c4bae",
      "to": "0x5b4d2c1b2e918ff1b0de85803f5a737e5f816ecb",
      "contractAddress": null,
      "l1BaseFeeScalar": "0x44d",
      "l1BlobBaseFee": "0x1",
      "l1BlobBaseFeeScalar": "0xa118b",
      "l1Fee": "0x6bb18c2d3d",
      "l1GasPrice": "0x29bd75c726",
      "l1GasUsed": "0x927"
    },
    {
      "status": "0x1",
      "cumulativeGasUsed": "0x1d9e75",
      "logs": [],
      "logsBloom": "0x00000000000000000000000000000000000000000000000000000000000000000000000000000000000000000000000000000000000000000000000000000000000000000000000000000000000000000000000000000000000000000000000000000000000000000000000000000000000000000000000000000000000000000000000000000000000000000000000000000000000000000000000000000000000000000000000000000000000000000000000000000000000000000000000000000000000000000000000000000000000000000000000000000000000000000000000000000000000000000000000000000000000000000000000000000000",
      "type": "0x2",
      "transactionHash": "0x0e96675b0e56faa388d1bf0bcf64ca6df047362873ac5d820edb75475f959dbf",
      "transactionIndex": "0x14",
      "blockHash": "0x43e3c0f3da83e6d7f4060d439313f94604fd3adef82c73248bd54b4ae07587a7",
      "blockNumber": "0x12859b8",
      "gasUsed": "0x1e6e8",
      "effectiveGasPrice": "0x18812",
      "from": "0xe62ab4d111f968660c6b2188046f9b9ba53c4bae",
      "to": "0x5b4d2c1b2e918ff1b0de85803f5a737e5f816ecb",
      "contractAddress": null,
      "l1BaseFeeScalar": "0x44d",
      "l1BlobBaseFee": "0x1",
      "l1BlobBaseFeeScalar": "0xa118b",
      "l1Fee": "0x6845381360",
      "l1GasPrice": "0x2869cf986e",
      "l1GasUsed": "0x927"
    },
    {
      "status": "0x1",
      "cumulativeGasUsed": "0x4846c1",
      "logs": [],
      "logsBloom": "0x00000000000000000000000000000000000000000000000000000000000000000000000000000000000000000000000000000000000000000000000000000000000000000000000000000000000000000000000000000000000000000000000000000000000000000000000000000000000000000000000000000000000000000000000000000000000000000000000000000000000000000000000000000000000000000000000000000000000000000000000000000000000000000000000000000000000000000000000000000000000000000000000000000000000000000000000000000000000000000000000000000000000000000000000000000000",
      "type": "0x2",
      "transactionHash": "0x6ef233796c7f182d2cea09ca74c4e9a84a85bee5a9042d3959fbe63abdf99e9c",
      "transactionIndex": "0x11",
      "blockHash": "0xfc1afaf052458dc9cca2a151229a12c1a187f8f6f2f9feedfb3f9e6c0c209446",
      "blockNumber": "0x12859bc",
      "gasUsed": "0x1e86c",
      "effectiveGasPrice": "0x18811",
      "from": "0xe62ab4d111f968660c6b2188046f9b9ba53c4bae",
      "to": "0x5b4d2c1b2e918ff1b0de85803f5a737e5f816ecb",
      "contractAddress": null,
      "l1BaseFeeScalar": "0x44d",
      "l1BlobBaseFee": "0x1",
      "l1BlobBaseFeeScalar": "0xa118b",
      "l1Fee": "0x68ddac34ce",
      "l1GasPrice": "0x2869cf986e",
      "l1GasUsed": "0x934"
    },
    {
      "status": "0x1",
      "cumulativeGasUsed": "0x18900e",
      "logs": [],
      "logsBloom": "0x00000000000000000000000000000000000000000000000000000000000000000000000000000000000000000000000000000000000000000000000000000000000000000000000000000000000000000000000000000000000000000000000000000000000000000000000000000000000000000000000000000000000000000000000000000000000000000000000000000000000000000000000000000000000000000000000000000000000000000000000000000000000000000000000000000000000000000000000000000000000000000000000000000000000000000000000000000000000000000000000000000000000000000000000000000000",
      "type": "0x2",
      "transactionHash": "0x0b8dde07331dbbff103c6f1b1b4f1c6b63a9829d421f92d166b71d6882acfddf",
      "transactionIndex": "0xd",
      "blockHash": "0xa6137165f6c01bf712de8e8e92a79dce160b7969632b71bc598043446d6a911d",
      "blockNumber": "0x12859c0",
      "gasUsed": "0x1f000",
      "effectiveGasPrice": "0x18812",
      "from": "0xe62ab4d111f968660c6b2188046f9b9ba53c4bae",
      "to": "0x5b4d2c1b2e918ff1b0de85803f5a737e5f816ecb",
      "contractAddress": null,
      "l1BaseFeeScalar": "0x44d",
      "l1BlobBaseFee": "0x1",
      "l1BlobBaseFeeScalar": "0xa118b",
      "l1Fee": "0x68a9c28e26",
      "l1GasPrice": "0x2738b456cd",
      "l1GasUsed": "0x977"
    },
    {
      "status": "0x1",
      "cumulativeGasUsed": "0x21fad6",
      "logs": [],
      "logsBloom": "0x00000000000000000000000000000000000000000000000000000000000000000000000000000000000000000000000000000000000000000000000000000000000000000000000000000000000000000000000000000000000000000000000000000000000000000000000000000000000000000000000000000000000000000000000000000000000000000000000000000000000000000000000000000000000000000000000000000000000000000000000000000000000000000000000000000000000000000000000000000000000000000000000000000000000000000000000000000000000000000000000000000000000000000000000000000000",
      "type": "0x2",
      "transactionHash": "0x407cd344b6c2ac7949c9c54bb93e626887056f98961f0bc0f01f941018e3b3a4",
      "transactionIndex": "0x11",
      "blockHash": "0x17bff7455e2d9c3ddadb360dd6d34440b6b50d89b2a5d4cbb15882bccd11bf99",
      "blockNumber": "0x12859c3",
      "gasUsed": "0x1e86c",
      "effectiveGasPrice": "0x18812",
      "from": "0xe62ab4d111f968660c6b2188046f9b9ba53c4bae",
      "to": "0x5b4d2c1b2e918ff1b0de85803f5a737e5f816ecb",
      "contractAddress": null,
      "l1BaseFeeScalar": "0x44d",
      "l1BlobBaseFee": "0x1",
      "l1BlobBaseFeeScalar": "0xa118b",
      "l1Fee": "0x65c5f8c2bd",
      "l1GasPrice": "0x2738b456cd",
      "l1GasUsed": "0x934"
    },
    {
      "status": "0x1",
      "cumulativeGasUsed": "0x245b74",
      "logs": [],
      "logsBloom": "0x00000000000000000000000000000000000000000000000000000000000000000000000000000000000000000000000000000000000000000000000000000000000000000000000000000000000000000000000000000000000000000000000000000000000000000000000000000000000000000000000000000000000000000000000000000000000000000000000000000000000000000000000000000000000000000000000000000000000000000000000000000000000000000000000000000000000000000000000000000000000000000000000000000000000000000000000000000000000000000000000000000000000000000000000000000000",
      "type": "0x2",
      "transactionHash": "0x78ccf54c726674b7269fcaf77e88e79508b1e449dbaa1df85f526345ca25ae67",
      "transactionIndex": "0x15",
      "blockHash": "0x83566a9c6d2d83128c1c0de7119de84a5e3e79e639de097d0eba5be596fbc727",
      "blockNumber": "0x12859c7",
      "gasUsed": "0x1f000",
      "effectiveGasPrice": "0x18812",
      "from": "0xe62ab4d111f968660c6b2188046f9b9ba53c4bae",
      "to": "0x5b4d2c1b2e918ff1b0de85803f5a737e5f816ecb",
      "contractAddress": null,
      "l1BaseFeeScalar": "0x44d",
      "l1BlobBaseFee": "0x1",
      "l1BlobBaseFeeScalar": "0xa118b",
      "l1Fee": "0x7120c21885",
      "l1GasPrice": "0x2a64c427dd",
      "l1GasUsed": "0x977"
    },
    {
      "status": "0x1",
      "cumulativeGasUsed": "0x243a8f",
      "logs": [],
      "logsBloom": "0x00000000000000000000000000000000000000000000000000000000000000000000000000000000000000000000000000000000000000000000000000000000000000000000000000000000000000000000000000000000000000000000000000000000000000000000000000000000000000000000000000000000000000000000000000000000000000000000000000000000000000000000000000000000000000000000000000000000000000000000000000000000000000000000000000000000000000000000000000000000000000000000000000000000000000000000000000000000000000000000000000000000000000000000000000000000",
      "type": "0x2",
      "transactionHash": "0x2300c56ed74ec6307d58a947a76f9c9f9968dbef1a860432161b0fcb1996d1b0",
      "transactionIndex": "0xe",
      "blockHash": "0xcb876aa209513ec300de69f9b283cc77818d374da5d5dc59d207e1b6a09a34f9",
      "blockNumber": "0x12859ca",
      "gasUsed": "0x1e6e8",
      "effectiveGasPrice": "0x18811",
      "from": "0xe62ab4d111f968660c6b2188046f9b9ba53c4bae",
      "to": "0x5b4d2c1b2e918ff1b0de85803f5a737e5f816ecb",
      "contractAddress": null,
      "l1BaseFeeScalar": "0x44d",
      "l1BlobBaseFee": "0x1",
      "l1BlobBaseFeeScalar": "0xa118b",
      "l1Fee": "0x6d2f2f25f9",
      "l1GasPrice": "0x2a516023bf",
      "l1GasUsed": "0x927"
    },
    {
      "status": "0x1",
      "cumulativeGasUsed": "0x258159",
      "logs": [],
      "logsBloom": "0x00000000000000000000000000000000000000000000000000000000000000000000000000000000000000000000000000000000000000000000000000000000000000000000000000000000000000000000000000000000000000000000000000000000000000000000000000000000000000000000000000000000000000000000000000000000000000000000000000000000000000000000000000000000000000000000000000000000000000000000000000000000000000000000000000000000000000000000000000000000000000000000000000000000000000000000000000000000000000000000000000000000000000000000000000000000",
      "type": "0x2",
      "transactionHash": "0xfc9d2073c083e37aca15e73a0a6c3329b4f4c5ca5b32737f33fc5faa4f666137",
      "transactionIndex": "0x12",
      "blockHash": "0x36dd156df1199cec821ff540356ee4fe35d6eff653cfe9f813de85e1bc120533",
      "blockNumber": "0x12859ce",
      "gasUsed": "0x1e6e8",
      "effectiveGasPrice": "0x18811",
      "from": "0xe62ab4d111f968660c6b2188046f9b9ba53c4bae",
      "to": "0x5b4d2c1b2e918ff1b0de85803f5a737e5f816ecb",
      "contractAddress": null,
      "l1BaseFeeScalar": "0x44d",
      "l1BlobBaseFee": "0x1",
      "l1BlobBaseFeeScalar": "0xa118b",
      "l1Fee": "0x6d2f2f25f9",
      "l1GasPrice": "0x2a516023bf",
      "l1GasUsed": "0x927"
    },
    {
      "status": "0x1",
      "cumulativeGasUsed": "0x118eb6",
      "logs": [],
      "logsBloom": "0x00000000000000000000000000000000000000000000000000000000000000000000000000000000000000000000000000000000000000000000000000000000000000000000000000000000000000000000000000000000000000000000000000000000000000000000000000000000000000000000000000000000000000000000000000000000000000000000000000000000000000000000000000000000000000000000000000000000000000000000000000000000000000000000000000000000000000000000000000000000000000000000000000000000000000000000000000000000000000000000000000000000000000000000000000000000",
      "type": "0x2",
      "transactionHash": "0x7bc7f412ecad99047fb4611cb8b2e7d1ccc0360a5c2f3af9a222d768577b58b8",
      "transactionIndex": "0xa",
      "blockHash": "0xa4f85f161897239dccf5cd71104f67c332427f4e7597210936b792ff7cb24db9",
      "blockNumber": "0x12859d2",
      "gasUsed": "0x1e6e8",
      "effectiveGasPrice": "0x18811",
      "from": "0xe62ab4d111f968660c6b2188046f9b9ba53c4bae",
      "to": "0x5b4d2c1b2e918ff1b0de85803f5a737e5f816ecb",
      "contractAddress": null,
      "l1BaseFeeScalar": "0x44d",
      "l1BlobBaseFee": "0x1",
      "l1BlobBaseFeeScalar": "0xa118b",
      "l1Fee": "0x6bc667f20a",
      "l1GasPrice": "0x29c58b6049",
      "l1GasUsed": "0x927"
    },
    {
      "status": "0x1",
      "cumulativeGasUsed": "0x29087e",
      "logs": [],
      "logsBloom": "0x00000000000000000000000000000000000000000000000000000000000000000000000000000000000000000000000000000000000000000000000000000000000000000000000000000000000000000000000000000000000000000000000000000000000000000000000000000000000000000000000000000000000000000000000000000000000000000000000000000000000000000000000000000000000000000000000000000000000000000000000000000000000000000000000000000000000000000000000000000000000000000000000000000000000000000000000000000000000000000000000000000000000000000000000000000000",
      "type": "0x2",
      "transactionHash": "0x4a768cb0b223cc8b7e10c9ee615ea2830130956d897995f5a6e3901c99ebe377",
      "transactionIndex": "0x12",
      "blockHash": "0x484e2cded00b41b6973c42d69bb19eadb2e0a094782389f731d71ef8da026651",
      "blockNumber": "0x12859d5",
      "gasUsed": "0x1e86c",
      "effectiveGasPrice": "0x18810",
      "from": "0xe62ab4d111f968660c6b2188046f9b9ba53c4bae",
      "to": "0x5b4d2c1b2e918ff1b0de85803f5a737e5f816ecb",
      "contractAddress": null,
      "l1BaseFeeScalar": "0x44d",
      "l1BlobBaseFee": "0x1",
      "l1BlobBaseFeeScalar": "0xa118b",
      "l1Fee": "0x6c63fbda30",
      "l1GasPrice": "0x29c58b6049",
      "l1GasUsed": "0x934"
    },
    {
      "status": "0x1",
      "cumulativeGasUsed": "0x3a058c",
      "logs": [],
      "logsBloom": "0x00000000000000000000000000000000000000000000000000000000000000000000000000000000000000000000000000000000000000000000000000000000000000000000000000000000000000000000000000000000000000000000000000000000000000000000000000000000000000000000000000000000000000000000000000000000000000000000000000000000000000000000000000000000000000000000000000000000000000000000000000000000000000000000000000000000000000000000000000000000000000000000000000000000000000000000000000000000000000000000000000000000000000000000000000000000",
      "type": "0x2",
      "transactionHash": "0xefee3b7c10abd7b652aa22a92c2cea0bbae3068576aa659a6c930069364d4dce",
      "transactionIndex": "0x14",
      "blockHash": "0x03186664e49c1d6fa32d01a5bddf35efb55371de49bd864065e88581e65ffb86",
      "blockNumber": "0x12859d9",
      "gasUsed": "0x1e564",
      "effectiveGasPrice": "0x18811",
      "from": "0xe62ab4d111f968660c6b2188046f9b9ba53c4bae",
      "to": "0x5b4d2c1b2e918ff1b0de85803f5a737e5f816ecb",
      "contractAddress": null,
      "l1BaseFeeScalar": "0x44d",
      "l1BlobBaseFee": "0x1",
      "l1BlobBaseFeeScalar": "0xa118b",
      "l1Fee": "0x6ae91e67c6",
      "l1GasPrice": "0x29acb5bedb",
      "l1GasUsed": "0x91a"
    },
    {
      "status": "0x1",
      "cumulativeGasUsed": "0x250342",
      "logs": [],
      "logsBloom": "0x00000000000000000000000000000000000000000000000000000000000000000000000000000000000000000000000000000000000000000000000000000000000000000000000000000000000000000000000000000000000000000000000000000000000000000000000000000000000000000000000000000000000000000000000000000000000000000000000000000000000000000000000000000000000000000000000000000000000000000000000000000000000000000000000000000000000000000000000000000000000000000000000000000000000000000000000000000000000000000000000000000000000000000000000000000000",
      "type": "0x2",
      "transactionHash": "0x8b1abb644058238efb7aed3a62f5a5a78e52eea592306bf890c6692f806432d0",
      "transactionIndex": "0x11",
      "blockHash": "0x7ef0f8a8f819ce6bf4871d3bdcc646de6bc3883a54822bcf1e049da5fcdaa17a",
      "blockNumber": "0x12859dd",
      "gasUsed": "0x1e86c",
      "effectiveGasPrice": "0x18811",
      "from": "0xe62ab4d111f968660c6b2188046f9b9ba53c4bae",
      "to": "0x5b4d2c1b2e918ff1b0de85803f5a737e5f816ecb",
      "contractAddress": null,
      "l1BaseFeeScalar": "0x44d",
      "l1BlobBaseFee": "0x1",
      "l1BlobBaseFeeScalar": "0xa118b",
      "l1Fee": "0x6966fb764d",
      "l1GasPrice": "0x289eba384c",
      "l1GasUsed": "0x934"
    },
    {
      "status": "0x1",
      "cumulativeGasUsed": "0x23b5ef",
      "logs": [],
      "logsBloom": "0x00000000000000000000000000000000000000000000000000000000000000000000000000000000000000000000000000000000000000000000000000000000000000000000000000000000000000000000000000000000000000000000000000000000000000000000000000000000000000000000000000000000000000000000000000000000000000000000000000000000000000000000000000000000000000000000000000000000000000000000000000000000000000000000000000000000000000000000000000000000000000000000000000000000000000000000000000000000000000000000000000000000000000000000000000000000",
      "type": "0x2",
      "transactionHash": "0x6d572bd7fc07748bc9b43cf7bca30d3d4c6ec5103f2b392d03e84fdcb144ad38",
      "transactionIndex": "0x11",
      "blockHash": "0x8f6722f05bfe5e1d512f896df7ecfc288fa67b675304f703ebd8b9f8214ee7ff",
      "blockNumber": "0x12859e0",
      "gasUsed": "0x1e564",
      "effectiveGasPrice": "0x18811",
      "from": "0xe62ab4d111f968660c6b2188046f9b9ba53c4bae",
      "to": "0x5b4d2c1b2e918ff1b0de85803f5a737e5f816ecb",
      "contractAddress": null,
      "l1BaseFeeScalar": "0x44d",
      "l1BlobBaseFee": "0x1",
      "l1BlobBaseFeeScalar": "0xa118b",
      "l1Fee": "0x683483f5f1",
      "l1GasPrice": "0x289eba384c",
      "l1GasUsed": "0x91a"
    },
    {
      "status": "0x1",
      "cumulativeGasUsed": "0x18cc5a",
      "logs": [],
      "logsBloom": "0x00000000000000000000000000000000000000000000000000000000000000000000000000000000000000000000000000000000000000000000000000000000000000000000000000000000000000000000000000000000000000000000000000000000000000000000000000000000000000000000000000000000000000000000000000000000000000000000000000000000000000000000000000000000000000000000000000000000000000000000000000000000000000000000000000000000000000000000000000000000000000000000000000000000000000000000000000000000000000000000000000000000000000000000000000000000",
      "type": "0x2",
      "transactionHash": "0x896bcf8a4f1335d2883c903d5235a9de84c9d44d583ac7a5041a202114704bee",
      "transactionIndex": "0xd",
      "blockHash": "0xc9e88a8c4f1d8056dd075ee015df73e09ebdbd002d0ae829671153ff105023e1",
      "blockNumber": "0x12859e4",
      "gasUsed": "0x1e3e0",
      "effectiveGasPrice": "0x18811",
      "from": "0xe62ab4d111f968660c6b2188046f9b9ba53c4bae",
      "to": "0x5b4d2c1b2e918ff1b0de85803f5a737e5f816ecb",
      "contractAddress": null,
      "l1BaseFeeScalar": "0x44d",
      "l1BlobBaseFee": "0x1",
      "l1BlobBaseFeeScalar": "0xa118b",
      "l1Fee": "0x66c1f89ab4",
      "l1GasPrice": "0x28498745d3",
      "l1GasUsed": "0x90c"
    },
    {
      "status": "0x1",
      "cumulativeGasUsed": "0x1a3052",
      "logs": [],
      "logsBloom": "0x00000000000000000000000000000000000000000000000000000000000000000000000000000000000000000000000000000000000000000000000000000000000000000000000000000000000000000000000000000000000000000000000000000000000000000000000000000000000000000000000000000000000000000000000000000000000000000000000000000000000000000000000000000000000000000000000000000000000000000000000000000000000000000000000000000000000000000000000000000000000000000000000000000000000000000000000000000000000000000000000000000000000000000000000000000000",
      "type": "0x2",
      "transactionHash": "0xe6539499f2195bccb24a75bc0eac2c4d0593f97ce68472176514fcb420b641b4",
      "transactionIndex": "0x13",
      "blockHash": "0x5644ffb7c958cd11c4a57ef6813b34089ebe44474893364260da56ff2b433001",
      "blockNumber": "0x12859e8",
      "gasUsed": "0x1ecf8",
      "effectiveGasPrice": "0x18811",
      "from": "0xe62ab4d111f968660c6b2188046f9b9ba53c4bae",
      "to": "0x5b4d2c1b2e918ff1b0de85803f5a737e5f816ecb",
      "contractAddress": null,
      "l1BaseFeeScalar": "0x44d",
      "l1BlobBaseFee": "0x1",
      "l1BlobBaseFeeScalar": "0xa118b",
      "l1Fee": "0x6d18244537",
      "l1GasPrice": "0x29921a69db",
      "l1GasUsed": "0x94f"
    },
    {
      "status": "0x1",
      "cumulativeGasUsed": "0x62ac19",
      "logs": [],
      "logsBloom": "0x00000000000000000000000000000000000000000000000000000000000000000000000000000000000000000000000000000000000000000000000000000000000000000000000000000000000000000000000000000000000000000000000000000000000000000000000000000000000000000000000000000000000000000000000000000000000000000000000000000000000000000000000000000000000000000000000000000000000000000000000000000000000000000000000000000000000000000000000000000000000000000000000000000000000000000000000000000000000000000000000000000000000000000000000000000000",
      "type": "0x2",
      "transactionHash": "0xd3f4f4f78845c83a42bc6a45529390aa50b20848eb1ac7c6792bab4ab1debbcd",
      "transactionIndex": "0x11",
      "blockHash": "0xe3fe9f374d36f8b599d1b47a25d537be6e736fd841b0bb0ecc1e07c3ed57bb79",
      "blockNumber": "0x12859eb",
      "gasUsed": "0x32c34f",
      "effectiveGasPrice": "0x18811",
      "from": "0xe62ab4d111f968660c6b2188046f9b9ba53c4bae",
      "to": "0xf3a991cb19949cb6abd9e416f0408c648b6c36fa",
      "contractAddress": null,
      "l1BaseFeeScalar": "0x44d",
      "l1BlobBaseFee": "0x1",
      "l1BlobBaseFeeScalar": "0xa118b",
      "l1Fee": "0x2d868e47c12",
      "l1GasPrice": "0x29921a69db",
      "l1GasUsed": "0x3e2a"
    },
    {
      "status": "0x1",
      "cumulativeGasUsed": "0x4ecf9d",
      "logs": [],
      "logsBloom": "0x00000000000000000000000000000000000000000000000000000000000000000000000000000000000000000000000000000000000000000000000000000000000000000000000000000000000000000000000000000000000000000000000000000000000000000000000000000000000000000000000000000000000000000000000000000000000000000000000000000000000000000000000000000000000000000000000000000000000000000000000000000000000000000000000000000000000000000000000000000000000000000000000000000000000000000000000000000000000000000000000000000000000000000000000000000000",
      "type": "0x2",
      "transactionHash": "0xd4c0140dde7623222c2fdf4e4b18baf95a802fdb093eb52204b412d5cf7ae336",
      "transactionIndex": "0xd",
      "blockHash": "0x704363f6e2a10748e3dcf9c63788b44b2649c53983b7e537d289cb51085e945c",
      "blockNumber": "0x12859ef",
      "gasUsed": "0x3f4c8b",
      "effectiveGasPrice": "0x18812",
      "from": "0xe62ab4d111f968660c6b2188046f9b9ba53c4bae",
      "to": "0xf3a991cb19949cb6abd9e416f0408c648b6c36fa",
      "contractAddress": null,
      "l1BaseFeeScalar": "0x44d",
      "l1BlobBaseFee": "0x1",
      "l1BlobBaseFeeScalar": "0xa118b",
      "l1Fee": "0x2ef5935c0cf",
      "l1GasPrice": "0x288731492c",
      "l1GasUsed": "0x41c6"
    },
    {
      "status": "0x1",
      "cumulativeGasUsed": "0x57cb7c",
      "logs": [],
      "logsBloom": "0x00000000000000000000000000000000000000000000000000000000000000000000000000000000000000000000000000000000000000000000000000000000000000000000000000000000000000000000000000000000000000000000000000000000000000000000000000000000000000000000000000000000000000000000000000000000000000000000000000000000000000000000000000000000000000000000000000000000000000000000000000000000000000000000000000000000000000000000000000000000000000000000000000000000000000000000000000000000000000000000000000000000000000000000000000000000",
      "type": "0x2",
      "transactionHash": "0x91a271a0d1e754188b3334d00b2f11e841eb1398f24bbae89686417217800674",
      "transactionIndex": "0x10",
      "blockHash": "0x38994a400409ebbc305b3a60e4425c1cb02aabb3cdd8f6b2c90a101c946b90a4",
      "blockNumber": "0x12859f2",
      "gasUsed": "0x361646",
      "effectiveGasPrice": "0x18812",
      "from": "0xe62ab4d111f968660c6b2188046f9b9ba53c4bae",
      "to": "0xf3a991cb19949cb6abd9e416f0408c648b6c36fa",
      "contractAddress": null,
      "l1BaseFeeScalar": "0x44d",
      "l1BlobBaseFee": "0x1",
      "l1BlobBaseFeeScalar": "0xa118b",
      "l1Fee": "0x2f71cbc583d",
      "l1GasPrice": "0x288731492c",
      "l1GasUsed": "0x4274"
    }
  ],
  "libraries": [],
  "pending": [],
  "returns": {},
  "timestamp": 1734611658,
  "chain": 84532,
  "commit": "2746b202"
}