{
  "transactions": [
    {
      "hash": "0x9c633ed5716ae603a1f6671a22bb891beb386f113a94ed4fb23838e590a64b2e",
      "transactionType": "CALL",
      "contractName": null,
      "contractAddress": "0x91677ec1879987abc3978fd2a71204640a9e9f4a",
      "function": "getFeeTokenList()",
      "arguments": [],
      "transaction": {
        "from": "0xe62ab4d111f968660c6b2188046f9b9ba53c4bae",
        "to": "0x91677ec1879987abc3978fd2a71204640a9e9f4a",
        "gas": "0x979a",
        "value": "0x0",
        "input": "0xe28ab277",
        "nonce": "0x35f",
        "chainId": "0x14a34"
      },
      "additionalContracts": [],
      "isFixedGasLimit": false
    },
    {
      "hash": "0x3d8c544131b0c402c2c43c2c6f6b433756ac8dfeece5e4847d76120007df6110",
      "transactionType": "CALL",
      "contractName": null,
      "contractAddress": "0x91677ec1879987abc3978fd2a71204640a9e9f4a",
      "function": "addFeeToken(string,string[],uint256[])",
      "arguments": [
        "84532",
        "[0x6a4dbc971533ba36bdc23ad70f5a7a12e064f4ae]",
        "[100]"
      ],
      "transaction": {
        "from": "0xe62ab4d111f968660c6b2188046f9b9ba53c4bae",
        "to": "0x91677ec1879987abc3978fd2a71204640a9e9f4a",
        "gas": "0x25817",
        "value": "0x0",
        "input": "0x437bf84f000000000000000000000000000000000000000000000000000000000000006000000000000000000000000000000000000000000000000000000000000000a000000000000000000000000000000000000000000000000000000000000001400000000000000000000000000000000000000000000000000000000000000005383435333200000000000000000000000000000000000000000000000000000000000000000000000000000000000000000000000000000000000000000000010000000000000000000000000000000000000000000000000000000000000020000000000000000000000000000000000000000000000000000000000000002a3078366134646263393731353333626133366264633233616437306635613761313265303634663461650000000000000000000000000000000000000000000000000000000000000000000000000000000000000000000000000000000000010000000000000000000000000000000000000000000000000000000000000064",
        "nonce": "0x360",
        "chainId": "0x14a34"
      },
      "additionalContracts": [],
      "isFixedGasLimit": false
    },
    {
      "hash": "0x31851203998a85f1a2339584332c3109efa3d55df010cd4c959b70cc8e89015e",
      "transactionType": "CALL",
      "contractName": null,
      "contractAddress": "0x91677ec1879987abc3978fd2a71204640a9e9f4a",
      "function": "addFeeToken(string,string[],uint256[])",
      "arguments": [
        "11155420",
        "[0x6a4dbc971533ba36bdc23ad70f5a7a12e064f4ae]",
        "[100]"
      ],
      "transaction": {
        "from": "0xe62ab4d111f968660c6b2188046f9b9ba53c4bae",
        "to": "0x91677ec1879987abc3978fd2a71204640a9e9f4a",
        "gas": "0x2a863",
        "value": "0x0",
        "input": "0x437bf84f000000000000000000000000000000000000000000000000000000000000006000000000000000000000000000000000000000000000000000000000000000a000000000000000000000000000000000000000000000000000000000000001400000000000000000000000000000000000000000000000000000000000000008313131353534323000000000000000000000000000000000000000000000000000000000000000000000000000000000000000000000000000000000000000010000000000000000000000000000000000000000000000000000000000000020000000000000000000000000000000000000000000000000000000000000002a3078366134646263393731353333626133366264633233616437306635613761313265303634663461650000000000000000000000000000000000000000000000000000000000000000000000000000000000000000000000000000000000010000000000000000000000000000000000000000000000000000000000000064",
        "nonce": "0x361",
        "chainId": "0x14a34"
      },
      "additionalContracts": [],
      "isFixedGasLimit": false
    },
    {
      "hash": "0xbb77c08a33061fe0a7296ea275d8c003a2f97088dbdd79aa1d0a72d63fd69617",
      "transactionType": "CALL",
      "contractName": null,
      "contractAddress": "0xe1c4c5a0e6a99bb61b842bb78e5c66ea1256d292",
      "function": "addChainContract(string[],string[])",
      "arguments": [
        "[11155420]",
        "[0x3b44962bf264b8cebac13da24722faa27fc693a1]"
      ],
      "transaction": {
        "from": "0xe62ab4d111f968660c6b2188046f9b9ba53c4bae",
        "to": "0xe1c4c5a0e6a99bb61b842bb78e5c66ea1256d292",
        "gas": "0x48b4f",
        "value": "0x0",
        "input": "0x013fd3bd000000000000000000000000000000000000000000000000000000000000004000000000000000000000000000000000000000000000000000000000000000c0000000000000000000000000000000000000000000000000000000000000000100000000000000000000000000000000000000000000000000000000000000200000000000000000000000000000000000000000000000000000000000000008313131353534323000000000000000000000000000000000000000000000000000000000000000000000000000000000000000000000000000000000000000010000000000000000000000000000000000000000000000000000000000000020000000000000000000000000000000000000000000000000000000000000002a30783362343439363262663236346238636562616331336461323437323266616132376663363933613100000000000000000000000000000000000000000000",
        "nonce": "0x362",
        "chainId": "0x14a34"
      },
      "additionalContracts": [],
      "isFixedGasLimit": false
    },
    {
      "hash": "0x984da96f4cf195f955b35204f8f2707844cc03b52e4be5736cd316d7b3f88184",
      "transactionType": "CALL",
      "contractName": null,
      "contractAddress": "0xe1c4c5a0e6a99bb61b842bb78e5c66ea1256d292",
      "function": "attachRWAX(uint256,uint256,string[],string[])",
      "arguments": [
        "1",
        "1",
        "[11155420]",
        "[0x266442249f62a8dd4e29348a52af8c806c7cb0da]"
      ],
      "transaction": {
        "from": "0xe62ab4d111f968660c6b2188046f9b9ba53c4bae",
        "to": "0xe1c4c5a0e6a99bb61b842bb78e5c66ea1256d292",
        "gas": "0x58cb2",
        "value": "0x0",
        "input": "0x33a5f5b40000000000000000000000000000000000000000000000000000000000000001000000000000000000000000000000000000000000000000000000000000000100000000000000000000000000000000000000000000000000000000000000800000000000000000000000000000000000000000000000000000000000000100000000000000000000000000000000000000000000000000000000000000000100000000000000000000000000000000000000000000000000000000000000200000000000000000000000000000000000000000000000000000000000000008313131353534323000000000000000000000000000000000000000000000000000000000000000000000000000000000000000000000000000000000000000010000000000000000000000000000000000000000000000000000000000000020000000000000000000000000000000000000000000000000000000000000002a30783236363434323234396636326138646434653239333438613532616638633830366337636230646100000000000000000000000000000000000000000000",
        "nonce": "0x363",
        "chainId": "0x14a34"
      },
      "additionalContracts": [],
      "isFixedGasLimit": false
    },
    {
      "hash": "0x4373cf95dd24ea941a88e585fbc9e66e15bcb5cddf00d3f5c55f34269074c271",
      "transactionType": "CALL",
      "contractName": null,
      "contractAddress": "0xe1c4c5a0e6a99bb61b842bb78e5c66ea1256d292",
      "function": "attachStorageManager(uint256,uint256,string[],string[])",
      "arguments": [
        "1",
        "1",
        "[11155420]",
        "[0x62ab67f946aca3991898ac7bb59beac125eb5902]"
      ],
      "transaction": {
        "from": "0xe62ab4d111f968660c6b2188046f9b9ba53c4bae",
        "to": "0xe1c4c5a0e6a99bb61b842bb78e5c66ea1256d292",
        "gas": "0x4a7f6",
        "value": "0x0",
        "input": "0x2f68b4890000000000000000000000000000000000000000000000000000000000000001000000000000000000000000000000000000000000000000000000000000000100000000000000000000000000000000000000000000000000000000000000800000000000000000000000000000000000000000000000000000000000000100000000000000000000000000000000000000000000000000000000000000000100000000000000000000000000000000000000000000000000000000000000200000000000000000000000000000000000000000000000000000000000000008313131353534323000000000000000000000000000000000000000000000000000000000000000000000000000000000000000000000000000000000000000010000000000000000000000000000000000000000000000000000000000000020000000000000000000000000000000000000000000000000000000000000002a30783632616236376639343661636133393931383938616337626235396265616331323565623539303200000000000000000000000000000000000000000000",
        "nonce": "0x364",
        "chainId": "0x14a34"
      },
      "additionalContracts": [],
      "isFixedGasLimit": false
    },
    {
      "hash": "0xe4e2bfbc790df76f2076e7279e951c6354c32ea4e5be16c5820d5be096c950b6",
      "transactionType": "CALL",
      "contractName": null,
      "contractAddress": "0xe1c4c5a0e6a99bb61b842bb78e5c66ea1256d292",
      "function": "attachSentryManager(uint256,uint256,string[],string[])",
      "arguments": [
        "1",
        "1",
        "[11155420]",
        "[0x1bb2dab2ce968db0d992a6289acbdd8f764be36a]"
      ],
      "transaction": {
        "from": "0xe62ab4d111f968660c6b2188046f9b9ba53c4bae",
        "to": "0xe1c4c5a0e6a99bb61b842bb78e5c66ea1256d292",
        "gas": "0x4aa77",
        "value": "0x0",
        "input": "0x349de7970000000000000000000000000000000000000000000000000000000000000001000000000000000000000000000000000000000000000000000000000000000100000000000000000000000000000000000000000000000000000000000000800000000000000000000000000000000000000000000000000000000000000100000000000000000000000000000000000000000000000000000000000000000100000000000000000000000000000000000000000000000000000000000000200000000000000000000000000000000000000000000000000000000000000008313131353534323000000000000000000000000000000000000000000000000000000000000000000000000000000000000000000000000000000000000000010000000000000000000000000000000000000000000000000000000000000020000000000000000000000000000000000000000000000000000000000000002a30783162623264616232636539363864623064393932613632383961636264643866373634626533366100000000000000000000000000000000000000000000",
        "nonce": "0x365",
        "chainId": "0x14a34"
      },
      "additionalContracts": [],
      "isFixedGasLimit": false
    }
  ],
  "receipts": [
    {
      "status": "0x1",
      "cumulativeGasUsed": "0x126890d",
      "logs": [],
      "logsBloom": "0x00000000000000000000000000000000000000000000000000000000000000000000000000000000000000000000000000000000000000000000000000000000000000000000000000000000000000000000000000000000000000000000000000000000000000000000000000000000000000000000000000000000000000000000000000000000000000000000000000000000000000000000000000000000000000000000000000000000000000000000000000000000000000000000000000000000000000000000000000000000000000000000000000000000000000000000000000000000000000000000000000000000000000000000000000000000",
      "type": "0x2",
      "transactionHash": "0x9c633ed5716ae603a1f6671a22bb891beb386f113a94ed4fb23838e590a64b2e",
      "transactionIndex": "0x21",
      "blockHash": "0xbd7d2570bf96d66cc18d1f1f6a000ddfde6512ee8d485fc7641ed5ae1b5cd477",
      "blockNumber": "0x150aed0",
      "gasUsed": "0x67a9",
      "effectiveGasPrice": "0xece78",
      "from": "0xe62ab4d111f968660c6b2188046f9b9ba53c4bae",
      "to": "0x91677ec1879987abc3978fd2a71204640a9e9f4a",
      "contractAddress": null,
      "l1BaseFeeScalar": "0x44d",
      "l1BlobBaseFee": "0xbedf",
      "l1BlobBaseFeeScalar": "0xa118b",
      "l1Fee": "0x913a2929",
      "l1GasPrice": "0x5254d746",
      "l1GasUsed": "0x640"
    },
    {
      "status": "0x1",
      "cumulativeGasUsed": "0x53a053",
      "logs": [],
      "logsBloom": "0x00000000000000000000000000000000000000000000000000000000000000000000000000000000000000000000000000000000000000000000000000000000000000000000000000000000000000000000000000000000000000000000000000000000000000000000000000000000000000000000000000000000000000000000000000000000000000000000000000000000000000000000000000000000000000000000000000000000000000000000000000000000000000000000000000000000000000000000000000000000000000000000000000000000000000000000000000000000000000000000000000000000000000000000000000000000",
      "type": "0x2",
      "transactionHash": "0x3d8c544131b0c402c2c43c2c6f6b433756ac8dfeece5e4847d76120007df6110",
      "transactionIndex": "0x25",
      "blockHash": "0xc1c2161434dd4878b442a6da24ec9b314ebc9326ecd5f8a7e0403fc40c581319",
      "blockNumber": "0x150aed1",
      "gasUsed": "0x19a52",
      "effectiveGasPrice": "0xece79",
      "from": "0xe62ab4d111f968660c6b2188046f9b9ba53c4bae",
      "to": "0x91677ec1879987abc3978fd2a71204640a9e9f4a",
      "contractAddress": null,
      "l1BaseFeeScalar": "0x44d",
      "l1BlobBaseFee": "0xbedf",
      "l1BlobBaseFeeScalar": "0xa118b",
      "l1Fee": "0xd5eb64c7",
      "l1GasPrice": "0x5254d746",
      "l1GasUsed": "0x934"
    },
    {
      "status": "0x1",
      "cumulativeGasUsed": "0x4f54df",
      "logs": [],
      "logsBloom": "0x00000000000000000000000000000000000000000000000000000000000000000000000000000000000000000000000000000000000000000000000000000000000000000000000000000000000000000000000000000000000000000000000000000000000000000000000000000000000000000000000000000000000000000000000000000000000000000000000000000000000000000000000000000000000000000000000000000000000000000000000000000000000000000000000000000000000000000000000000000000000000000000000000000000000000000000000000000000000000000000000000000000000000000000000000000000",
      "type": "0x2",
      "transactionHash": "0x31851203998a85f1a2339584332c3109efa3d55df010cd4c959b70cc8e89015e",
      "transactionIndex": "0x23",
      "blockHash": "0xbb3da33335d308a63ece2ed7146b516fd927c962c4f1b2c2dd6956f2c4b20a89",
      "blockNumber": "0x150aed2",
      "gasUsed": "0x1ec97",
      "effectiveGasPrice": "0xece79",
      "from": "0xe62ab4d111f968660c6b2188046f9b9ba53c4bae",
      "to": "0x91677ec1879987abc3978fd2a71204640a9e9f4a",
      "contractAddress": null,
      "l1BaseFeeScalar": "0x44d",
      "l1BlobBaseFee": "0xbedf",
      "l1BlobBaseFeeScalar": "0xa118b",
      "l1Fee": "0xd990612e",
      "l1GasPrice": "0x5254d746",
      "l1GasUsed": "0x95c"
    },
    {
      "status": "0x1",
      "cumulativeGasUsed": "0x5b286b",
      "logs": [],
      "logsBloom": "0x00000000000000000000000000000000000000000000000000000000000000000000000000000000000000000000000000000000000000000000000000000000000000000000000000000000000000000000000000000000000000000000000000000000000000000000000000000000000000000000000000000000000000000000000000000000000000000000000000000000000000000000000000000000000000000000000000000000000000000000000000000000000000000000000000000000000000000000000000000000000000000000000000000000000000000000000000000000000000000000000000000000000000000000000000000000",
      "type": "0x2",
      "transactionHash": "0xbb77c08a33061fe0a7296ea275d8c003a2f97088dbdd79aa1d0a72d63fd69617",
      "transactionIndex": "0x25",
      "blockHash": "0x6a625beb4e4b1d9d2dc5c5c3029102a0ce98105b8ce26710709f613a277c1b89",
      "blockNumber": "0x150aed3",
      "gasUsed": "0x34a38",
      "effectiveGasPrice": "0xece79",
      "from": "0xe62ab4d111f968660c6b2188046f9b9ba53c4bae",
      "to": "0xe1c4c5a0e6a99bb61b842bb78e5c66ea1256d292",
      "contractAddress": null,
      "l1BaseFeeScalar": "0x44d",
      "l1BlobBaseFee": "0xbedf",
      "l1BlobBaseFeeScalar": "0xa118b",
      "l1Fee": "0xd10f6993",
      "l1GasPrice": "0x5254d746",
      "l1GasUsed": "0x8ff"
    },
    {
      "status": "0x1",
      "cumulativeGasUsed": "0x503170",
      "logs": [],
      "logsBloom": "0x00000000000000000000000000000000000000000000000000000000000000000000000000000000000000000000000000000000000000000000000000000000000000000000000000000000000000000000000000000000000000000000000000000000000000000000000000000000000000000000000000000000000000000000000000000000000000000000000000000000000000000000000000000000000000000000000000000000000000000000000000000000000000000000000000000000000000000000000000000000000000000000000000000000000000000000000000000000000000000000000000000000000000000000000000000000",
      "type": "0x2",
      "transactionHash": "0x984da96f4cf195f955b35204f8f2707844cc03b52e4be5736cd316d7b3f88184",
      "transactionIndex": "0x1e",
      "blockHash": "0x4beadf0088b3992c958b9b47e4d21ca5a3c8981a86ceda6c7c5ce13bbe5f83a8",
      "blockNumber": "0x150aed5",
      "gasUsed": "0x3cb6b",
      "effectiveGasPrice": "0xece79",
      "from": "0xe62ab4d111f968660c6b2188046f9b9ba53c4bae",
      "to": "0xe1c4c5a0e6a99bb61b842bb78e5c66ea1256d292",
      "contractAddress": null,
      "l1BaseFeeScalar": "0x44d",
      "l1BlobBaseFee": "0xb785",
      "l1BlobBaseFeeScalar": "0xa118b",
      "l1Fee": "0xd2d0dc37",
      "l1GasPrice": "0x5123b7f1",
      "l1GasUsed": "0x934"
    },
    {
      "status": "0x1",
      "cumulativeGasUsed": "0x3df13e",
      "logs": [],
      "logsBloom": "0x00000000000000000000000000000000000000000000000000000000000000000000000000000000000000000000000000000000000000000000000000000000000000000000000000000000000000000000000000000000000000000000000000000000000000000000000000000000000000000000000000000000000000000000000000000000000000000000000000000000000000000000000000000000000000000000000000000000000000000000000000000000000000000000000000000000000000000000000000000000000000000000000000000000000000000000000000000000000000000000000000000000000000000000000000000000",
      "type": "0x2",
      "transactionHash": "0x4373cf95dd24ea941a88e585fbc9e66e15bcb5cddf00d3f5c55f34269074c271",
      "transactionIndex": "0x1b",
      "blockHash": "0xfbb28103c9bdc57cb5c23e25a5bb10e22ef5f61276134c20ccd91319316097c2",
      "blockNumber": "0x150aed7",
      "gasUsed": "0x35ef6",
      "effectiveGasPrice": "0xece7a",
      "from": "0xe62ab4d111f968660c6b2188046f9b9ba53c4bae",
      "to": "0xe1c4c5a0e6a99bb61b842bb78e5c66ea1256d292",
      "contractAddress": null,
      "l1BaseFeeScalar": "0x44d",
      "l1BlobBaseFee": "0xb785",
      "l1BlobBaseFeeScalar": "0xa118b",
      "l1Fee": "0xd2d0dc37",
      "l1GasPrice": "0x5123b7f1",
      "l1GasUsed": "0x934"
    },
    {
      "status": "0x1",
      "cumulativeGasUsed": "0x95685c",
      "logs": [],
      "logsBloom": "0x00000000000000000000000000000000000000000000000000000000000000000000000000000000000000000000000000000000000000000000000000000000000000000000000000000000000000000000000000000000000000000000000000000000000000000000000000000000000000000000000000000000000000000000000000000000000000000000000000000000000000000000000000000000000000000000000000000000000000000000000000000000000000000000000000000000000000000000000000000000000000000000000000000000000000000000000000000000000000000000000000000000000000000000000000000000",
      "type": "0x2",
      "transactionHash": "0xe4e2bfbc790df76f2076e7279e951c6354c32ea4e5be16c5820d5be096c950b6",
      "transactionIndex": "0x34",
      "blockHash": "0x5a8cda162cec941cb6a948560d03dc5e7f69131aefaac31872e8cabc74d50b0c",
      "blockNumber": "0x150aed9",
      "gasUsed": "0x360c6",
      "effectiveGasPrice": "0xece79",
      "from": "0xe62ab4d111f968660c6b2188046f9b9ba53c4bae",
      "to": "0xe1c4c5a0e6a99bb61b842bb78e5c66ea1256d292",
      "contractAddress": null,
      "l1BaseFeeScalar": "0x44d",
      "l1BlobBaseFee": "0xb785",
      "l1BlobBaseFeeScalar": "0xa118b",
      "l1Fee": "0xd2d0dc37",
      "l1GasPrice": "0x5123b7f1",
      "l1GasUsed": "0x934"
    }
  ],
  "libraries": [],
  "pending": [],
  "returns": {},
  "timestamp": 1739898003,
  "chain": 84532,
  "commit": "be616da9"
}