{
  "transactions": [
    {
      "hash": "0x116a39212c35a924c78264a200e1b3ceedc609fc9d682cf362d401ac6122f3f0",
      "transactionType": "CALL",
      "contractName": null,
      "contractAddress": "0x4c054027b323baaC49100c0929097df88B3e4b47",
      "function": "addChainContract(string,string)",
      "arguments": [
        "421614",
        "0x8Ea9B4616e5653CF21B87e60c8D72d8384685ec6"
      ],
      "transaction": {
        "from": "0xe62Ab4D111f968660C6B2188046F9B9bA53C4Bae",
        "to": "0x4c054027b323baaC49100c0929097df88B3e4b47",
        "gas": "0x32ff2",
        "value": "0x0",
        "input": "0x12d3fcfa0000000000000000000000000000000000000000000000000000000000000040000000000000000000000000000000000000000000000000000000000000008000000000000000000000000000000000000000000000000000000000000000063432313631340000000000000000000000000000000000000000000000000000000000000000000000000000000000000000000000000000000000000000002a30783845613942343631366535363533434632314238376536306338443732643833383436383565633600000000000000000000000000000000000000000000",
        "nonce": "0x36",
        "chainId": "0x14a34"
      },
      "additionalContracts": [],
      "isFixedGasLimit": false
    },
    {
      "hash": "0xbf61c069868b14d378feaa0f6540d45330a09e0fceed1d8d8e8d3a2af549243b",
      "transactionType": "CALL",
      "contractName": null,
      "contractAddress": "0x4c054027b323baaC49100c0929097df88B3e4b47",
      "function": "attachRWAX(uint256,uint256,string,string)",
      "arguments": [
        "1",
        "1",
        "421614",
        "0x5330db730fAb0Bf0bB9db2FCefe7b1876c09a242"
      ],
      "transaction": {
        "from": "0xe62Ab4D111f968660C6B2188046F9B9bA53C4Bae",
        "to": "0x4c054027b323baaC49100c0929097df88B3e4b47",
        "gas": "0x36906",
        "value": "0x0",
        "input": "0x5cbee36a00000000000000000000000000000000000000000000000000000000000000010000000000000000000000000000000000000000000000000000000000000001000000000000000000000000000000000000000000000000000000000000008000000000000000000000000000000000000000000000000000000000000000c000000000000000000000000000000000000000000000000000000000000000063432313631340000000000000000000000000000000000000000000000000000000000000000000000000000000000000000000000000000000000000000002a30783533333064623733306641623042663062423964623246436566653762313837366330396132343200000000000000000000000000000000000000000000",
        "nonce": "0x37",
        "chainId": "0x14a34"
      },
      "additionalContracts": [],
      "isFixedGasLimit": false
    },
    {
      "hash": "0x01a9219779c4294626c21e4962feafa0020e9b4b6706abd6dd3794edc0e895cb",
      "transactionType": "CALL",
      "contractName": null,
      "contractAddress": "0x4c054027b323baaC49100c0929097df88B3e4b47",
      "function": "addChainContract(string,string)",
      "arguments": [
        "97",
        "0x2BE0C4Ac75784737D4D0E75C4026d4Bc671B938E"
      ],
      "transaction": {
        "from": "0xe62Ab4D111f968660C6B2188046F9B9bA53C4Bae",
        "to": "0x4c054027b323baaC49100c0929097df88B3e4b47",
        "gas": "0x31003",
        "value": "0x0",
        "input": "0x12d3fcfa0000000000000000000000000000000000000000000000000000000000000040000000000000000000000000000000000000000000000000000000000000008000000000000000000000000000000000000000000000000000000000000000023937000000000000000000000000000000000000000000000000000000000000000000000000000000000000000000000000000000000000000000000000002a30783242453043344163373537383437333744344430453735433430323664344263363731423933384500000000000000000000000000000000000000000000",
        "nonce": "0x38",
        "chainId": "0x14a34"
      },
      "additionalContracts": [],
      "isFixedGasLimit": false
    },
    {
      "hash": "0xd566819e02e4f79150b24ad4b8d9cf6f7f0bfb63e3e36b386b03acfa9e8b67fe",
      "transactionType": "CALL",
      "contractName": null,
      "contractAddress": "0x4c054027b323baaC49100c0929097df88B3e4b47",
      "function": "attachRWAX(uint256,uint256,string,string)",
      "arguments": [
        "1",
        "1",
        "97",
        "0x048A5cefCDF0faeB734bc4A941E0de44d8c49f55"
      ],
      "transaction": {
        "from": "0xe62Ab4D111f968660C6B2188046F9B9bA53C4Bae",
        "to": "0x4c054027b323baaC49100c0929097df88B3e4b47",
        "gas": "0x31bb7",
        "value": "0x0",
        "input": "0x5cbee36a00000000000000000000000000000000000000000000000000000000000000010000000000000000000000000000000000000000000000000000000000000001000000000000000000000000000000000000000000000000000000000000008000000000000000000000000000000000000000000000000000000000000000c000000000000000000000000000000000000000000000000000000000000000023937000000000000000000000000000000000000000000000000000000000000000000000000000000000000000000000000000000000000000000000000002a30783034384135636566434446306661654237333462633441393431453064653434643863343966353500000000000000000000000000000000000000000000",
        "nonce": "0x39",
        "chainId": "0x14a34"
      },
      "additionalContracts": [],
      "isFixedGasLimit": false
    },
    {
      "hash": "0x87eac561335ab409e680041755352df06b055436248483cb2bfdf5a1999ff36c",
      "transactionType": "CALL",
      "contractName": null,
      "contractAddress": "0x4c054027b323baaC49100c0929097df88B3e4b47",
      "function": "addChainContract(string,string)",
      "arguments": [
        "200810",
        "0x005c5Fd1585A73817107bFd3929f7e559750ceEd"
      ],
      "transaction": {
        "from": "0xe62Ab4D111f968660C6B2188046F9B9bA53C4Bae",
        "to": "0x4c054027b323baaC49100c0929097df88B3e4b47",
        "gas": "0x35ade",
        "value": "0x0",
        "input": "0x12d3fcfa0000000000000000000000000000000000000000000000000000000000000040000000000000000000000000000000000000000000000000000000000000008000000000000000000000000000000000000000000000000000000000000000063230303831300000000000000000000000000000000000000000000000000000000000000000000000000000000000000000000000000000000000000000002a30783030356335466431353835413733383137313037624664333932396637653535393735306365456400000000000000000000000000000000000000000000",
        "nonce": "0x3a",
        "chainId": "0x14a34"
      },
      "additionalContracts": [],
      "isFixedGasLimit": false
    },
    {
      "hash": "0x3dc57f12ad47acedf255394f1b4353c9676e0ef630c5ce4c4bd9a3753653937e",
      "transactionType": "CALL",
      "contractName": null,
      "contractAddress": "0x4c054027b323baaC49100c0929097df88B3e4b47",
      "function": "attachRWAX(uint256,uint256,string,string)",
      "arguments": [
        "1",
        "1",
        "200810",
        "0xDef5D31e4b2E0BF38Af3E8092a5ABF51Db484Eec"
      ],
      "transaction": {
        "from": "0xe62Ab4D111f968660C6B2188046F9B9bA53C4Bae",
        "to": "0x4c054027b323baaC49100c0929097df88B3e4b47",
        "gas": "0x33be3",
        "value": "0x0",
        "input": "0x5cbee36a00000000000000000000000000000000000000000000000000000000000000010000000000000000000000000000000000000000000000000000000000000001000000000000000000000000000000000000000000000000000000000000008000000000000000000000000000000000000000000000000000000000000000c000000000000000000000000000000000000000000000000000000000000000063230303831300000000000000000000000000000000000000000000000000000000000000000000000000000000000000000000000000000000000000000002a30784465663544333165346232453042463338416633453830393261354142463531446234383445656300000000000000000000000000000000000000000000",
        "nonce": "0x3b",
        "chainId": "0x14a34"
      },
      "additionalContracts": [],
      "isFixedGasLimit": false
    },
    {
      "hash": "0xd6b73581eca4897bf83e06757aab4aacf1b01f1d021ce7d89fbe9c298532eacb",
      "transactionType": "CALL",
      "contractName": null,
      "contractAddress": "0x298F37599789926A4ab495F72d3Bb5CC7838ff73",
      "function": "addFeeToken(string)",
      "arguments": [
        "0x6a4DBC971533Ba36bdc23aD70F5A7a12E064f4ae"
      ],
      "transaction": {
        "from": "0xe62Ab4D111f968660C6B2188046F9B9bA53C4Bae",
        "to": "0x298F37599789926A4ab495F72d3Bb5CC7838ff73",
        "gas": "0x2cce6",
        "value": "0x0",
        "input": "0x12a6385f0000000000000000000000000000000000000000000000000000000000000020000000000000000000000000000000000000000000000000000000000000002a30783661344442433937313533334261333662646332336144373046354137613132453036346634616500000000000000000000000000000000000000000000",
        "nonce": "0x3c",
        "chainId": "0x14a34"
      },
      "additionalContracts": [],
      "isFixedGasLimit": false
    },
    {
      "hash": "0x051d353a577a9d665dc2e3fbc529b4d0753f3167dbf141effcac5a3e3e347555",
      "transactionType": "CALL",
      "contractName": null,
      "contractAddress": "0x298F37599789926A4ab495F72d3Bb5CC7838ff73",
      "function": "addFeeToken(string,string[],uint256[])",
      "arguments": [
        "421614",
        "[0x6a4DBC971533Ba36bdc23aD70F5A7a12E064f4ae]",
        "[0]"
      ],
      "transaction": {
        "from": "0xe62Ab4D111f968660C6B2188046F9B9bA53C4Bae",
        "to": "0x298F37599789926A4ab495F72d3Bb5CC7838ff73",
        "gas": "0x28c3f",
        "value": "0x0",
        "input": "0x437bf84f000000000000000000000000000000000000000000000000000000000000006000000000000000000000000000000000000000000000000000000000000000a000000000000000000000000000000000000000000000000000000000000001400000000000000000000000000000000000000000000000000000000000000006343231363134000000000000000000000000000000000000000000000000000000000000000000000000000000000000000000000000000000000000000000010000000000000000000000000000000000000000000000000000000000000020000000000000000000000000000000000000000000000000000000000000002a3078366134444243393731353333426133366264633233614437304635413761313245303634663461650000000000000000000000000000000000000000000000000000000000000000000000000000000000000000000000000000000000010000000000000000000000000000000000000000000000000000000000000000",
        "nonce": "0x3d",
        "chainId": "0x14a34"
      },
      "additionalContracts": [],
      "isFixedGasLimit": false
    },
    {
      "hash": "0x9a4c14a0612785a10b4a60860b67ef188212dfe75f735cf56003b0bfeb396d05",
      "transactionType": "CALL",
      "contractName": null,
      "contractAddress": "0x298F37599789926A4ab495F72d3Bb5CC7838ff73",
      "function": "addFeeToken(string,string[],uint256[])",
      "arguments": [
        "97",
        "[0x6a4DBC971533Ba36bdc23aD70F5A7a12E064f4ae]",
        "[0]"
      ],
      "transaction": {
        "from": "0xe62Ab4D111f968660C6B2188046F9B9bA53C4Bae",
        "to": "0x298F37599789926A4ab495F72d3Bb5CC7838ff73",
        "gas": "0x23267",
        "value": "0x0",
        "input": "0x437bf84f000000000000000000000000000000000000000000000000000000000000006000000000000000000000000000000000000000000000000000000000000000a000000000000000000000000000000000000000000000000000000000000001400000000000000000000000000000000000000000000000000000000000000002393700000000000000000000000000000000000000000000000000000000000000000000000000000000000000000000000000000000000000000000000000010000000000000000000000000000000000000000000000000000000000000020000000000000000000000000000000000000000000000000000000000000002a3078366134444243393731353333426133366264633233614437304635413761313245303634663461650000000000000000000000000000000000000000000000000000000000000000000000000000000000000000000000000000000000010000000000000000000000000000000000000000000000000000000000000000",
        "nonce": "0x3e",
        "chainId": "0x14a34"
      },
      "additionalContracts": [],
      "isFixedGasLimit": false
    },
    {
      "hash": "0x7d88ec01babe16e1434e9e39a43d77c19daad05b24e0c89b35fc8fa298f557e1",
      "transactionType": "CALL",
      "contractName": null,
      "contractAddress": "0x298F37599789926A4ab495F72d3Bb5CC7838ff73",
      "function": "addFeeToken(string,string[],uint256[])",
      "arguments": [
        "200810",
        "[0x6a4DBC971533Ba36bdc23aD70F5A7a12E064f4ae]",
        "[0]"
      ],
      "transaction": {
        "from": "0xe62Ab4D111f968660C6B2188046F9B9bA53C4Bae",
        "to": "0x298F37599789926A4ab495F72d3Bb5CC7838ff73",
        "gas": "0x23ac6",
        "value": "0x0",
        "input": "0x437bf84f000000000000000000000000000000000000000000000000000000000000006000000000000000000000000000000000000000000000000000000000000000a000000000000000000000000000000000000000000000000000000000000001400000000000000000000000000000000000000000000000000000000000000006323030383130000000000000000000000000000000000000000000000000000000000000000000000000000000000000000000000000000000000000000000010000000000000000000000000000000000000000000000000000000000000020000000000000000000000000000000000000000000000000000000000000002a3078366134444243393731353333426133366264633233614437304635413761313245303634663461650000000000000000000000000000000000000000000000000000000000000000000000000000000000000000000000000000000000010000000000000000000000000000000000000000000000000000000000000000",
        "nonce": "0x3f",
        "chainId": "0x14a34"
      },
      "additionalContracts": [],
      "isFixedGasLimit": false
    }
  ],
  "receipts": [
    {
      "status": "0x1",
      "cumulativeGasUsed": "0x6dfcc5",
      "logs": [],
      "logsBloom": "0x00000000000000000000000000000000000000000000000000000000000000000000000000000000000000000000000000000000000000000000000000000000000000000000000000000000000000000000000000000000000000000000000000000000000000000000000000000000000000000000000000000000000000000000000000000000000000000000000000000000000000000000000000000000000000000000000000000000000000000000000000000000000000000000000000000000000000000000000000000000000000000000000000000000000000000000000000000000000000000000000000000000000000000000000000000000",
      "type": "0x2",
      "transactionHash": "0x116a39212c35a924c78264a200e1b3ceedc609fc9d682cf362d401ac6122f3f0",
      "transactionIndex": "0x1a",
      "blockHash": "0xd4fc23cee85d37aba6719e3b80d6da43b70a6d779d91dced4a75de3145ab1465",
      "blockNumber": "0xfef708",
      "gasUsed": "0x22dea",
      "effectiveGasPrice": "0xd50bed7",
      "from": "0xe62Ab4D111f968660C6B2188046F9B9bA53C4Bae",
      "to": "0x4c054027b323baaC49100c0929097df88B3e4b47",
      "contractAddress": null,
      "l1BaseFeeScalar": "0x44d",
      "l1BlobBaseFee": "0x1",
      "l1BlobBaseFeeScalar": "0xa118b",
      "l1Fee": "0x49ccd7cc7",
      "l1GasPrice": "0x2125abfc5",
      "l1GasUsed": "0x7e6"
    },
    {
      "status": "0x1",
      "cumulativeGasUsed": "0x7074d4",
      "logs": [],
      "logsBloom": "0x00000000000000000000000000000000000000000000000000000000000000000000000000000000000000000000000000000000000000000000000000000000000000000000000000000000000000000000000000000000000000000000000000000000000000000000000000000000000000000000000000000000000000000000000000000000000000000000000000000000000000000000000000000000000000000000000000000000000000000000000000000000000000000000000000000000000000000000000000000000000000000000000000000000000000000000000000000000000000000000000000000000000000000000000000000000",
      "type": "0x2",
      "transactionHash": "0xbf61c069868b14d378feaa0f6540d45330a09e0fceed1d8d8e8d3a2af549243b",
      "transactionIndex": "0x1b",
      "blockHash": "0xd4fc23cee85d37aba6719e3b80d6da43b70a6d779d91dced4a75de3145ab1465",
      "blockNumber": "0xfef708",
      "gasUsed": "0x2780f",
      "effectiveGasPrice": "0xd50bed7",
      "from": "0xe62Ab4D111f968660C6B2188046F9B9bA53C4Bae",
      "to": "0x4c054027b323baaC49100c0929097df88B3e4b47",
      "contractAddress": null,
      "l1BaseFeeScalar": "0x44d",
      "l1BlobBaseFee": "0x1",
      "l1BlobBaseFeeScalar": "0xa118b",
      "l1Fee": "0x4e323aef2",
      "l1GasPrice": "0x2125abfc5",
      "l1GasUsed": "0x85e"
    },
    {
      "status": "0x1",
      "cumulativeGasUsed": "0x72ac71",
      "logs": [],
      "logsBloom": "0x00000000000000000000000000000000000000000000000000000000000000000000000000000000000000000000000000000000000000000000000000000000000000000000000000000000000000000000000000000000000000000000000000000000000000000000000000000000000000000000000000000000000000000000000000000000000000000000000000000000000000000000000000000000000000000000000000000000000000000000000000000000000000000000000000000000000000000000000000000000000000000000000000000000000000000000000000000000000000000000000000000000000000000000000000000000",
      "type": "0x2",
      "transactionHash": "0x01a9219779c4294626c21e4962feafa0020e9b4b6706abd6dd3794edc0e895cb",
      "transactionIndex": "0x1c",
      "blockHash": "0xd4fc23cee85d37aba6719e3b80d6da43b70a6d779d91dced4a75de3145ab1465",
      "blockNumber": "0xfef708",
      "gasUsed": "0x2379d",
      "effectiveGasPrice": "0xd50bed7",
      "from": "0xe62Ab4D111f968660C6B2188046F9B9bA53C4Bae",
      "to": "0x4c054027b323baaC49100c0929097df88B3e4b47",
      "contractAddress": null,
      "l1BaseFeeScalar": "0x44d",
      "l1BlobBaseFee": "0x1",
      "l1BlobBaseFeeScalar": "0xa118b",
      "l1Fee": "0x47d8abbd0",
      "l1GasPrice": "0x2125abfc5",
      "l1GasUsed": "0x7b0"
    },
    {
      "status": "0x1",
      "cumulativeGasUsed": "0x74ec87",
      "logs": [],
      "logsBloom": "0x00000000000000000000000000000000000000000000000000000000000000000000000000000000000000000000000000000000000000000000000000000000000000000000000000000000000000000000000000000000000000000000000000000000000000000000000000000000000000000000000000000000000000000000000000000000000000000000000000000000000000000000000000000000000000000000000000000000000000000000000000000000000000000000000000000000000000000000000000000000000000000000000000000000000000000000000000000000000000000000000000000000000000000000000000000000",
      "type": "0x2",
      "transactionHash": "0xd566819e02e4f79150b24ad4b8d9cf6f7f0bfb63e3e36b386b03acfa9e8b67fe",
      "transactionIndex": "0x1d",
      "blockHash": "0xd4fc23cee85d37aba6719e3b80d6da43b70a6d779d91dced4a75de3145ab1465",
      "blockNumber": "0xfef708",
      "gasUsed": "0x24016",
      "effectiveGasPrice": "0xd50bed7",
      "from": "0xe62Ab4D111f968660C6B2188046F9B9bA53C4Bae",
      "to": "0x4c054027b323baaC49100c0929097df88B3e4b47",
      "contractAddress": null,
      "l1BaseFeeScalar": "0x44d",
      "l1BlobBaseFee": "0x1",
      "l1BlobBaseFeeScalar": "0xa118b",
      "l1Fee": "0x4c3e0edfb",
      "l1GasPrice": "0x2125abfc5",
      "l1GasUsed": "0x829"
    },
    {
      "status": "0x1",
      "cumulativeGasUsed": "0x7737ca",
      "logs": [],
      "logsBloom": "0x00000000000000000000000000000000000000000000000000000000000000000000000000000000000000000000000000000000000000000000000000000000000000000000000000000000000000000000000000000000000000000000000000000000000000000000000000000000000000000000000000000000000000000000000000000000000000000000000000000000000000000000000000000000000000000000000000000000000000000000000000000000000000000000000000000000000000000000000000000000000000000000000000000000000000000000000000000000000000000000000000000000000000000000000000000000",
      "type": "0x2",
      "transactionHash": "0x87eac561335ab409e680041755352df06b055436248483cb2bfdf5a1999ff36c",
      "transactionIndex": "0x1e",
      "blockHash": "0xd4fc23cee85d37aba6719e3b80d6da43b70a6d779d91dced4a75de3145ab1465",
      "blockNumber": "0xfef708",
      "gasUsed": "0x24b43",
      "effectiveGasPrice": "0xd50bed7",
      "from": "0xe62Ab4D111f968660C6B2188046F9B9bA53C4Bae",
      "to": "0x4c054027b323baaC49100c0929097df88B3e4b47",
      "contractAddress": null,
      "l1BaseFeeScalar": "0x44d",
      "l1BlobBaseFee": "0x1",
      "l1BlobBaseFeeScalar": "0xa118b",
      "l1Fee": "0x49ccd7cc7",
      "l1GasPrice": "0x2125abfc5",
      "l1GasUsed": "0x7e6"
    },
    {
      "status": "0x1",
      "cumulativeGasUsed": "0x798f2a",
      "logs": [],
      "logsBloom": "0x00000000000000000000000000000000000000000000000000000000000000000000000000000000000000000000000000000000000000000000000000000000000000000000000000000000000000000000000000000000000000000000000000000000000000000000000000000000000000000000000000000000000000000000000000000000000000000000000000000000000000000000000000000000000000000000000000000000000000000000000000000000000000000000000000000000000000000000000000000000000000000000000000000000000000000000000000000000000000000000000000000000000000000000000000000000",
      "type": "0x2",
      "transactionHash": "0x3dc57f12ad47acedf255394f1b4353c9676e0ef630c5ce4c4bd9a3753653937e",
      "transactionIndex": "0x1f",
      "blockHash": "0xd4fc23cee85d37aba6719e3b80d6da43b70a6d779d91dced4a75de3145ab1465",
      "blockNumber": "0xfef708",
      "gasUsed": "0x25760",
      "effectiveGasPrice": "0xd50bed7",
      "from": "0xe62Ab4D111f968660C6B2188046F9B9bA53C4Bae",
      "to": "0x4c054027b323baaC49100c0929097df88B3e4b47",
      "contractAddress": null,
      "l1BaseFeeScalar": "0x44d",
      "l1BlobBaseFee": "0x1",
      "l1BlobBaseFeeScalar": "0xa118b",
      "l1Fee": "0x4e323aef2",
      "l1GasPrice": "0x2125abfc5",
      "l1GasUsed": "0x85e"
    },
    {
      "status": "0x1",
      "cumulativeGasUsed": "0x7b9630",
      "logs": [
        {
          "address": "0x298F37599789926A4ab495F72d3Bb5CC7838ff73",
          "topics": [
            "0x1394cfab38f3fc78ed77ea6f9318782a446d96e7dc8e9a6b0149f6be25c08bcf",
            "0x0000000000000000000000006a4dbc971533ba36bdc23ad70f5a7a12e064f4ae"
          ],
          "data": "0x",
          "blockHash": "0xd4fc23cee85d37aba6719e3b80d6da43b70a6d779d91dced4a75de3145ab1465",
          "blockNumber": "0xfef708",
          "transactionHash": "0xd6b73581eca4897bf83e06757aab4aacf1b01f1d021ce7d89fbe9c298532eacb",
          "transactionIndex": "0x20",
          "logIndex": "0x3d",
          "removed": false
        }
      ],
      "logsBloom": "0x00000000000000000000000000000000000200000000000000000000000000000000000000000000000000000000000000000000000000001000000000000000000000000000000000000000000000000000001000000000000000000000000000000000000000000000000000000000000000000000000000000000000000000000000100000000000000000040000000000000000000000000000000000000000000000000000000000000000000000040000100000000000000000000400000000000000000000000000000000000000000002000000000000000000000000000000000000000000000000000000000000000000000000000000000000000",
      "type": "0x2",
      "transactionHash": "0xd6b73581eca4897bf83e06757aab4aacf1b01f1d021ce7d89fbe9c298532eacb",
      "transactionIndex": "0x20",
      "blockHash": "0xd4fc23cee85d37aba6719e3b80d6da43b70a6d779d91dced4a75de3145ab1465",
      "blockNumber": "0xfef708",
      "gasUsed": "0x20706",
      "effectiveGasPrice": "0xd50bed7",
      "from": "0xe62Ab4D111f968660C6B2188046F9B9bA53C4Bae",
      "to": "0x298F37599789926A4ab495F72d3Bb5CC7838ff73",
      "contractAddress": null,
      "l1BaseFeeScalar": "0x44d",
      "l1BlobBaseFee": "0x1",
      "l1BlobBaseFeeScalar": "0xa118b",
      "l1Fee": "0x4007fb7f6",
      "l1GasPrice": "0x2125abfc5",
      "l1GasUsed": "0x6da"
    },
    {
      "status": "0x1",
      "cumulativeGasUsed": "0x7d6e68",
      "logs": [],
      "logsBloom": "0x00000000000000000000000000000000000000000000000000000000000000000000000000000000000000000000000000000000000000000000000000000000000000000000000000000000000000000000000000000000000000000000000000000000000000000000000000000000000000000000000000000000000000000000000000000000000000000000000000000000000000000000000000000000000000000000000000000000000000000000000000000000000000000000000000000000000000000000000000000000000000000000000000000000000000000000000000000000000000000000000000000000000000000000000000000000",
      "type": "0x2",
      "transactionHash": "0x051d353a577a9d665dc2e3fbc529b4d0753f3167dbf141effcac5a3e3e347555",
      "transactionIndex": "0x21",
      "blockHash": "0xd4fc23cee85d37aba6719e3b80d6da43b70a6d779d91dced4a75de3145ab1465",
      "blockNumber": "0xfef708",
      "gasUsed": "0x1d838",
      "effectiveGasPrice": "0xd50bed7",
      "from": "0xe62Ab4D111f968660C6B2188046F9B9bA53C4Bae",
      "to": "0x298F37599789926A4ab495F72d3Bb5CC7838ff73",
      "contractAddress": null,
      "l1BaseFeeScalar": "0x44d",
      "l1BlobBaseFee": "0x1",
      "l1BlobBaseFeeScalar": "0xa118b",
      "l1Fee": "0x5602eb2cc",
      "l1GasPrice": "0x2125abfc5",
      "l1GasUsed": "0x934"
    },
    {
      "status": "0x1",
      "cumulativeGasUsed": "0x7f0594",
      "logs": [],
      "logsBloom": "0x00000000000000000000000000000000000000000000000000000000000000000000000000000000000000000000000000000000000000000000000000000000000000000000000000000000000000000000000000000000000000000000000000000000000000000000000000000000000000000000000000000000000000000000000000000000000000000000000000000000000000000000000000000000000000000000000000000000000000000000000000000000000000000000000000000000000000000000000000000000000000000000000000000000000000000000000000000000000000000000000000000000000000000000000000000000",
      "type": "0x2",
      "transactionHash": "0x9a4c14a0612785a10b4a60860b67ef188212dfe75f735cf56003b0bfeb396d05",
      "transactionIndex": "0x22",
      "blockHash": "0xd4fc23cee85d37aba6719e3b80d6da43b70a6d779d91dced4a75de3145ab1465",
      "blockNumber": "0xfef708",
      "gasUsed": "0x1972c",
      "effectiveGasPrice": "0xd50bed7",
      "from": "0xe62Ab4D111f968660C6B2188046F9B9bA53C4Bae",
      "to": "0x298F37599789926A4ab495F72d3Bb5CC7838ff73",
      "contractAddress": null,
      "l1BaseFeeScalar": "0x44d",
      "l1BlobBaseFee": "0x1",
      "l1BlobBaseFeeScalar": "0xa118b",
      "l1Fee": "0x540ebf1d6",
      "l1GasPrice": "0x2125abfc5",
      "l1GasUsed": "0x8ff"
    },
    {
      "status": "0x1",
      "cumulativeGasUsed": "0x80a2d0",
      "logs": [],
      "logsBloom": "0x00000000000000000000000000000000000000000000000000000000000000000000000000000000000000000000000000000000000000000000000000000000000000000000000000000000000000000000000000000000000000000000000000000000000000000000000000000000000000000000000000000000000000000000000000000000000000000000000000000000000000000000000000000000000000000000000000000000000000000000000000000000000000000000000000000000000000000000000000000000000000000000000000000000000000000000000000000000000000000000000000000000000000000000000000000000",
      "type": "0x2",
      "transactionHash": "0x7d88ec01babe16e1434e9e39a43d77c19daad05b24e0c89b35fc8fa298f557e1",
      "transactionIndex": "0x23",
      "blockHash": "0xd4fc23cee85d37aba6719e3b80d6da43b70a6d779d91dced4a75de3145ab1465",
      "blockNumber": "0xfef708",
      "gasUsed": "0x19d3c",
      "effectiveGasPrice": "0xd50bed7",
      "from": "0xe62Ab4D111f968660C6B2188046F9B9bA53C4Bae",
      "to": "0x298F37599789926A4ab495F72d3Bb5CC7838ff73",
      "contractAddress": null,
      "l1BaseFeeScalar": "0x44d",
      "l1BlobBaseFee": "0x1",
      "l1BlobBaseFeeScalar": "0xa118b",
      "l1Fee": "0x5585e028f",
      "l1GasPrice": "0x2125abfc5",
      "l1GasUsed": "0x927"
    }
  ],
  "libraries": [],
  "pending": [],
  "returns": {},
  "timestamp": 1729187060,
  "chain": 84532,
  "commit": "089dfaad"
}