{
  "transactions": [
    {
      "hash": "0xf961e3006f9d0052b4a953f0d23e9f6206e67900fbd09173617d52db65ff7a08",
      "transactionType": "CALL",
      "contractName": null,
      "contractAddress": "0x31f21c6e2605d28e6b204cd323ff58421fc8dd00",
      "function": "addChainContract(string[],string[])",
      "arguments": [
        "[1115, 200810]",
        "[0xc0b8f765907ab09106010190ee991aaae01f88ba, 0xe08c7ee637336565511eb3421dafdf45b860f9bc]"
      ],
      "transaction": {
        "from": "0xe62ab4d111f968660c6b2188046f9b9ba53c4bae",
        "to": "0x31f21c6e2605d28e6b204cd323ff58421fc8dd00",
        "gas": "0x7880c",
        "value": "0x0",
        "input": "0x013fd3bd0000000000000000000000000000000000000000000000000000000000000040000000000000000000000000000000000000000000000000000000000000012000000000000000000000000000000000000000000000000000000000000000020000000000000000000000000000000000000000000000000000000000000040000000000000000000000000000000000000000000000000000000000000008000000000000000000000000000000000000000000000000000000000000000043131313500000000000000000000000000000000000000000000000000000000000000000000000000000000000000000000000000000000000000000000000632303038313000000000000000000000000000000000000000000000000000000000000000000000000000000000000000000000000000000000000000000002000000000000000000000000000000000000000000000000000000000000004000000000000000000000000000000000000000000000000000000000000000a0000000000000000000000000000000000000000000000000000000000000002a30786330623866373635393037616230393130363031303139306565393931616161653031663838626100000000000000000000000000000000000000000000000000000000000000000000000000000000000000000000000000000000002a30786530386337656536333733333635363535313165623334323164616664663435623836306639626300000000000000000000000000000000000000000000",
        "nonce": "0x462",
        "chainId": "0x14a34"
      },
      "additionalContracts": [],
      "isFixedGasLimit": false
    },
    {
      "hash": "0x8fbe09c84e65f33bb208ff4acdc00822606555019e754cd3338fd340bfb46b01",
      "transactionType": "CALL",
      "contractName": null,
      "contractAddress": "0x31f21c6e2605d28e6b204cd323ff58421fc8dd00",
      "function": "attachRWAX(uint256,uint256,string[],string[])",
      "arguments": [
        "1",
        "1",
        "[1115, 200810]",
        "[0xc981d340ac02b717b52dc249c46b1942e20edbad, 0x78f81b1aee019efaafe58853d96c5e9ac87be731]"
      ],
      "transaction": {
        "from": "0xe62ab4d111f968660c6b2188046f9b9ba53c4bae",
        "to": "0x31f21c6e2605d28e6b204cd323ff58421fc8dd00",
        "gas": "0x8df51",
        "value": "0x0",
        "input": "0x33a5f5b4000000000000000000000000000000000000000000000000000000000000000100000000000000000000000000000000000000000000000000000000000000010000000000000000000000000000000000000000000000000000000000000080000000000000000000000000000000000000000000000000000000000000016000000000000000000000000000000000000000000000000000000000000000020000000000000000000000000000000000000000000000000000000000000040000000000000000000000000000000000000000000000000000000000000008000000000000000000000000000000000000000000000000000000000000000043131313500000000000000000000000000000000000000000000000000000000000000000000000000000000000000000000000000000000000000000000000632303038313000000000000000000000000000000000000000000000000000000000000000000000000000000000000000000000000000000000000000000002000000000000000000000000000000000000000000000000000000000000004000000000000000000000000000000000000000000000000000000000000000a0000000000000000000000000000000000000000000000000000000000000002a30786339383164333430616330326237313762353264633234396334366231393432653230656462616400000000000000000000000000000000000000000000000000000000000000000000000000000000000000000000000000000000002a30783738663831623161656530313965666161666535383835336439366335653961633837626537333100000000000000000000000000000000000000000000",
        "nonce": "0x463",
        "chainId": "0x14a34"
      },
      "additionalContracts": [],
      "isFixedGasLimit": false
    },
    {
      "hash": "0xf46896a23c652fab5f0b1f8705f28c95354a4c19fe6e286be9eac54fb021c9c1",
      "transactionType": "CALL",
      "contractName": null,
      "contractAddress": "0x31f21c6e2605d28e6b204cd323ff58421fc8dd00",
      "function": "attachStorageManager(uint256,uint256,string[],string[])",
      "arguments": [
        "1",
        "1",
        "[1115, 200810]",
        "[0x2809808fc225fdaf859826ce7499a56b106d8870, 0x0f607af04457e86ec349fbebb6e23b0a6a0d067f]"
      ],
      "transaction": {
        "from": "0xe62ab4d111f968660c6b2188046f9b9ba53c4bae",
        "to": "0x31f21c6e2605d28e6b204cd323ff58421fc8dd00",
        "gas": "0x7b8c4",
        "value": "0x0",
        "input": "0x2f68b489000000000000000000000000000000000000000000000000000000000000000100000000000000000000000000000000000000000000000000000000000000010000000000000000000000000000000000000000000000000000000000000080000000000000000000000000000000000000000000000000000000000000016000000000000000000000000000000000000000000000000000000000000000020000000000000000000000000000000000000000000000000000000000000040000000000000000000000000000000000000000000000000000000000000008000000000000000000000000000000000000000000000000000000000000000043131313500000000000000000000000000000000000000000000000000000000000000000000000000000000000000000000000000000000000000000000000632303038313000000000000000000000000000000000000000000000000000000000000000000000000000000000000000000000000000000000000000000002000000000000000000000000000000000000000000000000000000000000004000000000000000000000000000000000000000000000000000000000000000a0000000000000000000000000000000000000000000000000000000000000002a30783238303938303866633232356664616638353938323663653734393961353662313036643838373000000000000000000000000000000000000000000000000000000000000000000000000000000000000000000000000000000000002a30783066363037616630343435376538366563333439666265626236653233623061366130643036376600000000000000000000000000000000000000000000",
        "nonce": "0x464",
        "chainId": "0x14a34"
      },
      "additionalContracts": [],
      "isFixedGasLimit": false
    },
    {
      "hash": "0x7109e3f125b6d7f61ceaef1abda3a0f77aa4e6a26eacaac02f13a851cabd5d51",
      "transactionType": "CALL",
      "contractName": null,
      "contractAddress": "0x31f21c6e2605d28e6b204cd323ff58421fc8dd00",
      "function": "attachSentryManager(uint256,uint256,string[],string[])",
      "arguments": [
        "1",
        "1",
        "[1115, 200810]",
        "[0xea37aefe52e5327528f71171844474cf77507770, 0x10a04ad4a73c8bb00ee5a29b27d11eee85390306]"
      ],
      "transaction": {
        "from": "0xe62ab4d111f968660c6b2188046f9b9ba53c4bae",
        "to": "0x31f21c6e2605d28e6b204cd323ff58421fc8dd00",
        "gas": "0x7497c",
        "value": "0x0",
        "input": "0x349de797000000000000000000000000000000000000000000000000000000000000000100000000000000000000000000000000000000000000000000000000000000010000000000000000000000000000000000000000000000000000000000000080000000000000000000000000000000000000000000000000000000000000016000000000000000000000000000000000000000000000000000000000000000020000000000000000000000000000000000000000000000000000000000000040000000000000000000000000000000000000000000000000000000000000008000000000000000000000000000000000000000000000000000000000000000043131313500000000000000000000000000000000000000000000000000000000000000000000000000000000000000000000000000000000000000000000000632303038313000000000000000000000000000000000000000000000000000000000000000000000000000000000000000000000000000000000000000000002000000000000000000000000000000000000000000000000000000000000004000000000000000000000000000000000000000000000000000000000000000a0000000000000000000000000000000000000000000000000000000000000002a30786561333761656665353265353332373532386637313137313834343437346366373735303737373000000000000000000000000000000000000000000000000000000000000000000000000000000000000000000000000000000000002a30783130613034616434613733633862623030656535613239623237643131656565383533393033303600000000000000000000000000000000000000000000",
        "nonce": "0x465",
        "chainId": "0x14a34"
      },
      "additionalContracts": [],
      "isFixedGasLimit": false
    }
  ],
  "receipts": [
    {
      "status": "0x1",
      "cumulativeGasUsed": "0x216abfe",
      "logs": [],
      "logsBloom": "0x00000000000000000000000000000000000000000000000000000000000000000000000000000000000000000000000000000000000000000000000000000000000000000000000000000000000000000000000000000000000000000000000000000000000000000000000000000000000000000000000000000000000000000000000000000000000000000000000000000000000000000000000000000000000000000000000000000000000000000000000000000000000000000000000000000000000000000000000000000000000000000000000000000000000000000000000000000000000000000000000000000000000000000000000000000000",
      "type": "0x2",
      "transactionHash": "0xf961e3006f9d0052b4a953f0d23e9f6206e67900fbd09173617d52db65ff7a08",
      "transactionIndex": "0xb6",
      "blockHash": "0xedb70e33e8a382b4721b0b1a2d5db6cdf1c972f8360dcb657f182ce3bd799077",
      "blockNumber": "0x1928c51",
      "gasUsed": "0x52653",
      "effectiveGasPrice": "0x1a8ff981",
      "from": "0xe62ab4d111f968660c6b2188046f9b9ba53c4bae",
      "to": "0x31f21c6e2605d28e6b204cd323ff58421fc8dd00",
      "contractAddress": null,
      "l1BaseFeeScalar": "0x44d",
      "l1BlobBaseFee": "0x1",
      "l1BlobBaseFeeScalar": "0xa118b",
      "l1Fee": "0x830d5a4",
      "l1GasPrice": "0x24bc6d2",
      "l1GasUsed": "0xca8"
    },
    {
      "status": "0x1",
      "cumulativeGasUsed": "0x703642",
      "logs": [],
      "logsBloom": "0x00000000000000000000000000000000000000000000000000000000000000000000000000000000000000000000000000000000000000000000000000000000000000000000000000000000000000000000000000000000000000000000000000000000000000000000000000000000000000000000000000000000000000000000000000000000000000000000000000000000000000000000000000000000000000000000000000000000000000000000000000000000000000000000000000000000000000000000000000000000000000000000000000000000000000000000000000000000000000000000000000000000000000000000000000000000",
      "type": "0x2",
      "transactionHash": "0x8fbe09c84e65f33bb208ff4acdc00822606555019e754cd3338fd340bfb46b01",
      "transactionIndex": "0x77",
      "blockHash": "0xaa61713fbcfb11373fc7ec49b075506a5e30f8057a2fca3df2849908f097b011",
      "blockNumber": "0x1928c53",
      "gasUsed": "0x6110a",
      "effectiveGasPrice": "0x1ad69449",
      "from": "0xe62ab4d111f968660c6b2188046f9b9ba53c4bae",
      "to": "0x31f21c6e2605d28e6b204cd323ff58421fc8dd00",
      "contractAddress": null,
      "l1BaseFeeScalar": "0x44d",
      "l1BlobBaseFee": "0x1",
      "l1BlobBaseFeeScalar": "0xa118b",
      "l1Fee": "0x876201a",
      "l1GasPrice": "0x24bc6d2",
      "l1GasUsed": "0xd13"
    },
    {
      "status": "0x1",
      "cumulativeGasUsed": "0x215cf40",
      "logs": [],
      "logsBloom": "0x00000000000000000000000000000000000000000000000000000000000000000000000000000000000000000000000000000000000000000000000000000000000000000000000000000000000000000000000000000000000000000000000000000000000000000000000000000000000000000000000000000000000000000000000000000000000000000000000000000000000000000000000000000000000000000000000000000000000000000000000000000000000000000000000000000000000000000000000000000000000000000000000000000000000000000000000000000000000000000000000000000000000000000000000000000000",
      "type": "0x2",
      "transactionHash": "0xf46896a23c652fab5f0b1f8705f28c95354a4c19fe6e286be9eac54fb021c9c1",
      "transactionIndex": "0xc5",
      "blockHash": "0x971b6893739f2574688c22bf9cb75f009e94dfe97dc29b9539facf8fdea98b33",
      "blockNumber": "0x1928c54",
      "gasUsed": "0x547a3",
      "effectiveGasPrice": "0x1a9b58ad",
      "from": "0xe62ab4d111f968660c6b2188046f9b9ba53c4bae",
      "to": "0x31f21c6e2605d28e6b204cd323ff58421fc8dd00",
      "contractAddress": null,
      "l1BaseFeeScalar": "0x44d",
      "l1BlobBaseFee": "0x1",
      "l1BlobBaseFeeScalar": "0xa118b",
      "l1Fee": "0x8537adf",
      "l1GasPrice": "0x24bc6d2",
      "l1GasUsed": "0xcdd"
    },
    {
      "status": "0x1",
      "cumulativeGasUsed": "0x396e12",
      "logs": [],
      "logsBloom": "0x00000000000000000000000000000000000000000000000000000000000000000000000000000000000000000000000000000000000000000000000000000000000000000000000000000000000000000000000000000000000000000000000000000000000000000000000000000000000000000000000000000000000000000000000000000000000000000000000000000000000000000000000000000000000000000000000000000000000000000000000000000000000000000000000000000000000000000000000000000000000000000000000000000000000000000000000000000000000000000000000000000000000000000000000000000000",
      "type": "0x2",
      "transactionHash": "0x7109e3f125b6d7f61ceaef1abda3a0f77aa4e6a26eacaac02f13a851cabd5d51",
      "transactionIndex": "0x1b",
      "blockHash": "0xf9fa3fd5adc865dca94b0a9f45873ec246aa18a77d42ee34a10befa0288e2d48",
      "blockNumber": "0x1928c56",
      "gasUsed": "0x54694",
      "effectiveGasPrice": "0x1b192a00",
      "from": "0xe62ab4d111f968660c6b2188046f9b9ba53c4bae",
      "to": "0x31f21c6e2605d28e6b204cd323ff58421fc8dd00",
      "contractAddress": null,
      "l1BaseFeeScalar": "0x44d",
      "l1BlobBaseFee": "0x1",
      "l1BlobBaseFeeScalar": "0xa118b",
      "l1Fee": "0x8537adf",
      "l1GasPrice": "0x24bc6d2",
      "l1GasUsed": "0xcdd"
    }
  ],
  "libraries": [],
  "pending": [],
  "returns": {},
  "timestamp": 1748531086,
  "chain": 84532,
  "commit": "c07ce9ba"
}