{
  "transactions": [
    {
      "hash": "0x5284b57d7a5f4b90c14312f96e71adefe22ec8f192f6a9507e07d783ca933d66",
      "transactionType": "CALL",
      "contractName": "FeeManager",
      "contractAddress": "0x957ebeecca9e712e335f99de34d0f46317283696",
      "function": "getFeeTokenList()",
      "arguments": [],
      "transaction": {
        "from": "0xe62ab4d111f968660c6b2188046f9b9ba53c4bae",
        "to": "0x957ebeecca9e712e335f99de34d0f46317283696",
        "gas": "0x8a7e",
        "value": "0x0",
        "input": "0xe28ab277",
        "nonce": "0x19b",
        "chainId": "0x14a34"
      },
      "additionalContracts": [],
      "isFixedGasLimit": false
    },
    {
      "hash": "0xa976e85c1385052a48f22f8a0bb33d2f07d5c8a360fe37f7df2a80468399f647",
      "transactionType": "CALL",
      "contractName": "FeeManager",
      "contractAddress": "0x957ebeecca9e712e335f99de34d0f46317283696",
      "function": "addFeeToken(string)",
      "arguments": [
        "0x6a4dbc971533ba36bdc23ad70f5a7a12e064f4ae"
      ],
      "transaction": {
        "from": "0xe62ab4d111f968660c6b2188046f9b9ba53c4bae",
        "to": "0x957ebeecca9e712e335f99de34d0f46317283696",
        "gas": "0x2696b",
        "value": "0x0",
        "input": "0x12a6385f0000000000000000000000000000000000000000000000000000000000000020000000000000000000000000000000000000000000000000000000000000002a30783661346462633937313533336261333662646332336164373066356137613132653036346634616500000000000000000000000000000000000000000000",
        "nonce": "0x19c",
        "chainId": "0x14a34"
      },
      "additionalContracts": [],
      "isFixedGasLimit": false
    },
    {
      "hash": "0x01f0725d7561402d18f59e2e8c8d4145dc07164abd9a14fca27580844e2aaaa9",
      "transactionType": "CALL",
      "contractName": "FeeManager",
      "contractAddress": "0x957ebeecca9e712e335f99de34d0f46317283696",
      "function": "setFeeMultiplier(uint8,uint256)",
      "arguments": [
        "0",
        "2"
      ],
      "transaction": {
        "from": "0xe62ab4d111f968660c6b2188046f9b9ba53c4bae",
        "to": "0x957ebeecca9e712e335f99de34d0f46317283696",
        "gas": "0x112e8",
        "value": "0x0",
        "input": "0x0ee24eb500000000000000000000000000000000000000000000000000000000000000000000000000000000000000000000000000000000000000000000000000000002",
        "nonce": "0x19d",
        "chainId": "0x14a34"
      },
      "additionalContracts": [],
      "isFixedGasLimit": false
    },
    {
      "hash": "0x8b7111085e5e8c59e0df0d3d964a1e773e9bc3981064ff93d1b9b9bce531cffd",
      "transactionType": "CALL",
      "contractName": "FeeManager",
      "contractAddress": "0x957ebeecca9e712e335f99de34d0f46317283696",
      "function": "setFeeMultiplier(uint8,uint256)",
      "arguments": [
        "1",
        "10"
      ],
      "transaction": {
        "from": "0xe62ab4d111f968660c6b2188046f9b9ba53c4bae",
        "to": "0x957ebeecca9e712e335f99de34d0f46317283696",
        "gas": "0x11324",
        "value": "0x0",
        "input": "0x0ee24eb50000000000000000000000000000000000000000000000000000000000000001000000000000000000000000000000000000000000000000000000000000000a",
        "nonce": "0x19e",
        "chainId": "0x14a34"
      },
      "additionalContracts": [],
      "isFixedGasLimit": false
    },
    {
      "hash": "0x2a14e2995c747b0b2bb168bfb95928d782d4e51b8e7cd78f3097ebd952d72958",
      "transactionType": "CALL",
      "contractName": "FeeManager",
      "contractAddress": "0x957ebeecca9e712e335f99de34d0f46317283696",
      "function": "setFeeMultiplier(uint8,uint256)",
      "arguments": [
        "2",
        "1"
      ],
      "transaction": {
        "from": "0xe62ab4d111f968660c6b2188046f9b9ba53c4bae",
        "to": "0x957ebeecca9e712e335f99de34d0f46317283696",
        "gas": "0x11346",
        "value": "0x0",
        "input": "0x0ee24eb500000000000000000000000000000000000000000000000000000000000000020000000000000000000000000000000000000000000000000000000000000001",
        "nonce": "0x19f",
        "chainId": "0x14a34"
      },
      "additionalContracts": [],
      "isFixedGasLimit": false
    },
    {
      "hash": "0xf051ff23970629ba5cacd2689cf26bd7e2da3c71e916f8079f93d2b642249a99",
      "transactionType": "CALL",
      "contractName": "FeeManager",
      "contractAddress": "0x957ebeecca9e712e335f99de34d0f46317283696",
      "function": "setFeeMultiplier(uint8,uint256)",
      "arguments": [
        "3",
        "4"
      ],
      "transaction": {
        "from": "0xe62ab4d111f968660c6b2188046f9b9ba53c4bae",
        "to": "0x957ebeecca9e712e335f99de34d0f46317283696",
        "gas": "0x1041b",
        "value": "0x0",
        "input": "0x0ee24eb500000000000000000000000000000000000000000000000000000000000000030000000000000000000000000000000000000000000000000000000000000004",
        "nonce": "0x1a0",
        "chainId": "0x14a34"
      },
      "additionalContracts": [],
      "isFixedGasLimit": false
    },
    {
      "hash": "0xcf4eeacc69c85449dd2520e61d559730e0dbc2e54cea6fe6881ad28dfc40f415",
      "transactionType": "CALL",
      "contractName": "FeeManager",
      "contractAddress": "0x957ebeecca9e712e335f99de34d0f46317283696",
      "function": "setFeeMultiplier(uint8,uint256)",
      "arguments": [
        "4",
        "4"
      ],
      "transaction": {
        "from": "0xe62ab4d111f968660c6b2188046f9b9ba53c4bae",
        "to": "0x957ebeecca9e712e335f99de34d0f46317283696",
        "gas": "0x1043a",
        "value": "0x0",
        "input": "0x0ee24eb500000000000000000000000000000000000000000000000000000000000000040000000000000000000000000000000000000000000000000000000000000004",
        "nonce": "0x1a1",
        "chainId": "0x14a34"
      },
      "additionalContracts": [],
      "isFixedGasLimit": false
    },
    {
      "hash": "0x6907fb5fdf239e9025ceeba0665279146d366667d10a75e3953d2c7311cb6edd",
      "transactionType": "CALL",
      "contractName": "FeeManager",
      "contractAddress": "0x957ebeecca9e712e335f99de34d0f46317283696",
      "function": "setFeeMultiplier(uint8,uint256)",
      "arguments": [
        "5",
        "8"
      ],
      "transaction": {
        "from": "0xe62ab4d111f968660c6b2188046f9b9ba53c4bae",
        "to": "0x957ebeecca9e712e335f99de34d0f46317283696",
        "gas": "0x10459",
        "value": "0x0",
        "input": "0x0ee24eb500000000000000000000000000000000000000000000000000000000000000050000000000000000000000000000000000000000000000000000000000000008",
        "nonce": "0x1a2",
        "chainId": "0x14a34"
      },
      "additionalContracts": [],
      "isFixedGasLimit": false
    },
    {
      "hash": "0xc1ea0d0f67719812791b1698fe9270783c1daaf3888b4b94762759ac28aa8358",
      "transactionType": "CALL",
      "contractName": "FeeManager",
      "contractAddress": "0x957ebeecca9e712e335f99de34d0f46317283696",
      "function": "setFeeMultiplier(uint8,uint256)",
      "arguments": [
        "6",
        "4"
      ],
      "transaction": {
        "from": "0xe62ab4d111f968660c6b2188046f9b9ba53c4bae",
        "to": "0x957ebeecca9e712e335f99de34d0f46317283696",
        "gas": "0x1047a",
        "value": "0x0",
        "input": "0x0ee24eb500000000000000000000000000000000000000000000000000000000000000060000000000000000000000000000000000000000000000000000000000000004",
        "nonce": "0x1a3",
        "chainId": "0x14a34"
      },
      "additionalContracts": [],
      "isFixedGasLimit": false
    },
    {
      "hash": "0xef2a6a16e9e00cc517f9acba4beb3a5379f2412b68576112d286cb3070a082f1",
      "transactionType": "CALL",
      "contractName": "FeeManager",
      "contractAddress": "0x957ebeecca9e712e335f99de34d0f46317283696",
      "function": "setFeeMultiplier(uint8,uint256)",
      "arguments": [
        "7",
        "10"
      ],
      "transaction": {
        "from": "0xe62ab4d111f968660c6b2188046f9b9ba53c4bae",
        "to": "0x957ebeecca9e712e335f99de34d0f46317283696",
        "gas": "0x10499",
        "value": "0x0",
        "input": "0x0ee24eb50000000000000000000000000000000000000000000000000000000000000007000000000000000000000000000000000000000000000000000000000000000a",
        "nonce": "0x1a4",
        "chainId": "0x14a34"
      },
      "additionalContracts": [],
      "isFixedGasLimit": false
    },
    {
      "hash": "0xc85538b7a5f2ccb6060f5c59c31dffbd1df9094dd34716e4620d0936c463fcfe",
      "transactionType": "CALL",
      "contractName": "FeeManager",
      "contractAddress": "0x957ebeecca9e712e335f99de34d0f46317283696",
      "function": "setFeeMultiplier(uint8,uint256)",
      "arguments": [
        "8",
        "8"
      ],
      "transaction": {
        "from": "0xe62ab4d111f968660c6b2188046f9b9ba53c4bae",
        "to": "0x957ebeecca9e712e335f99de34d0f46317283696",
        "gas": "0x1140f",
        "value": "0x0",
        "input": "0x0ee24eb500000000000000000000000000000000000000000000000000000000000000080000000000000000000000000000000000000000000000000000000000000008",
        "nonce": "0x1a5",
        "chainId": "0x14a34"
      },
      "additionalContracts": [],
      "isFixedGasLimit": false
    },
    {
      "hash": "0xdf478ba9ef021886f2a3c69006687a0f934ef474191a9da8bb2a4cacd14cf70c",
      "transactionType": "CALL",
      "contractName": "FeeManager",
      "contractAddress": "0x957ebeecca9e712e335f99de34d0f46317283696",
      "function": "setFeeMultiplier(uint8,uint256)",
      "arguments": [
        "9",
        "8"
      ],
      "transaction": {
        "from": "0xe62ab4d111f968660c6b2188046f9b9ba53c4bae",
        "to": "0x957ebeecca9e712e335f99de34d0f46317283696",
        "gas": "0x11431",
        "value": "0x0",
        "input": "0x0ee24eb500000000000000000000000000000000000000000000000000000000000000090000000000000000000000000000000000000000000000000000000000000008",
        "nonce": "0x1a6",
        "chainId": "0x14a34"
      },
      "additionalContracts": [],
      "isFixedGasLimit": false
    },
    {
      "hash": "0x63992ce0bed30abcff0377463728d75372389f7883acddc814891e5113a88a0d",
      "transactionType": "CALL",
      "contractName": "FeeManager",
      "contractAddress": "0x957ebeecca9e712e335f99de34d0f46317283696",
      "function": "setFeeMultiplier(uint8,uint256)",
      "arguments": [
        "10",
        "8"
      ],
      "transaction": {
        "from": "0xe62ab4d111f968660c6b2188046f9b9ba53c4bae",
        "to": "0x957ebeecca9e712e335f99de34d0f46317283696",
        "gas": "0x11453",
        "value": "0x0",
        "input": "0x0ee24eb5000000000000000000000000000000000000000000000000000000000000000a0000000000000000000000000000000000000000000000000000000000000008",
        "nonce": "0x1a7",
        "chainId": "0x14a34"
      },
      "additionalContracts": [],
      "isFixedGasLimit": false
    },
    {
      "hash": "0xa12109c017f1f7a04d9c79da46df2ef33bc8cd5a620bbec911f0065bc2f36afe",
      "transactionType": "CALL",
      "contractName": "FeeManager",
      "contractAddress": "0x957ebeecca9e712e335f99de34d0f46317283696",
      "function": "setFeeMultiplier(uint8,uint256)",
      "arguments": [
        "11",
        "20"
      ],
      "transaction": {
        "from": "0xe62ab4d111f968660c6b2188046f9b9ba53c4bae",
        "to": "0x957ebeecca9e712e335f99de34d0f46317283696",
        "gas": "0x10518",
        "value": "0x0",
        "input": "0x0ee24eb5000000000000000000000000000000000000000000000000000000000000000b0000000000000000000000000000000000000000000000000000000000000014",
        "nonce": "0x1a8",
        "chainId": "0x14a34"
      },
      "additionalContracts": [],
      "isFixedGasLimit": false
    },
    {
      "hash": "0x2635b5b11e3857ef98bb2e35ec34a4a7b946cb79f4e3070ffaf646fee253ce36",
      "transactionType": "CALL",
      "contractName": "FeeManager",
      "contractAddress": "0x957ebeecca9e712e335f99de34d0f46317283696",
      "function": "setFeeMultiplier(uint8,uint256)",
      "arguments": [
        "12",
        "8"
      ],
      "transaction": {
        "from": "0xe62ab4d111f968660c6b2188046f9b9ba53c4bae",
        "to": "0x957ebeecca9e712e335f99de34d0f46317283696",
        "gas": "0x10538",
        "value": "0x0",
        "input": "0x0ee24eb5000000000000000000000000000000000000000000000000000000000000000c0000000000000000000000000000000000000000000000000000000000000008",
        "nonce": "0x1a9",
        "chainId": "0x14a34"
      },
      "additionalContracts": [],
      "isFixedGasLimit": false
    },
    {
      "hash": "0x37ac947ffea933fc627f86417919a30cefff7e07dd0ec59b549132080fc055e0",
      "transactionType": "CALL",
      "contractName": "FeeManager",
      "contractAddress": "0x957ebeecca9e712e335f99de34d0f46317283696",
      "function": "setFeeMultiplier(uint8,uint256)",
      "arguments": [
        "13",
        "4"
      ],
      "transaction": {
        "from": "0xe62ab4d111f968660c6b2188046f9b9ba53c4bae",
        "to": "0x957ebeecca9e712e335f99de34d0f46317283696",
        "gas": "0x10558",
        "value": "0x0",
        "input": "0x0ee24eb5000000000000000000000000000000000000000000000000000000000000000d0000000000000000000000000000000000000000000000000000000000000004",
        "nonce": "0x1aa",
        "chainId": "0x14a34"
      },
      "additionalContracts": [],
      "isFixedGasLimit": false
    },
    {
      "hash": "0x7e083634dcf729537fe585b89e8bbf92ed66ca5d7602269b65122df2c8bd67d9",
      "transactionType": "CALL",
      "contractName": "FeeManager",
      "contractAddress": "0x957ebeecca9e712e335f99de34d0f46317283696",
      "function": "setFeeMultiplier(uint8,uint256)",
      "arguments": [
        "14",
        "4"
      ],
      "transaction": {
        "from": "0xe62ab4d111f968660c6b2188046f9b9ba53c4bae",
        "to": "0x957ebeecca9e712e335f99de34d0f46317283696",
        "gas": "0x10577",
        "value": "0x0",
        "input": "0x0ee24eb5000000000000000000000000000000000000000000000000000000000000000e0000000000000000000000000000000000000000000000000000000000000004",
        "nonce": "0x1ab",
        "chainId": "0x14a34"
      },
      "additionalContracts": [],
      "isFixedGasLimit": false
    },
    {
      "hash": "0x0aafb68700e9b05e6104465efbfa5b5877aff6d7e5f8a36444e5b3ab188039d5",
      "transactionType": "CALL",
      "contractName": "FeeManager",
      "contractAddress": "0x957ebeecca9e712e335f99de34d0f46317283696",
      "function": "setFeeMultiplier(uint8,uint256)",
      "arguments": [
        "15",
        "4"
      ],
      "transaction": {
        "from": "0xe62ab4d111f968660c6b2188046f9b9ba53c4bae",
        "to": "0x957ebeecca9e712e335f99de34d0f46317283696",
        "gas": "0x10598",
        "value": "0x0",
        "input": "0x0ee24eb5000000000000000000000000000000000000000000000000000000000000000f0000000000000000000000000000000000000000000000000000000000000004",
        "nonce": "0x1ac",
        "chainId": "0x14a34"
      },
      "additionalContracts": [],
      "isFixedGasLimit": false
    },
    {
      "hash": "0x89170d8a615848b7f38c1011ae54f4205328f106419909c96054e25ee983d064",
      "transactionType": "CALL",
      "contractName": "FeeManager",
      "contractAddress": "0x957ebeecca9e712e335f99de34d0f46317283696",
      "function": "setFeeMultiplier(uint8,uint256)",
      "arguments": [
        "16",
        "2"
      ],
      "transaction": {
        "from": "0xe62ab4d111f968660c6b2188046f9b9ba53c4bae",
        "to": "0x957ebeecca9e712e335f99de34d0f46317283696",
        "gas": "0x105b0",
        "value": "0x0",
        "input": "0x0ee24eb500000000000000000000000000000000000000000000000000000000000000100000000000000000000000000000000000000000000000000000000000000002",
        "nonce": "0x1ad",
        "chainId": "0x14a34"
      },
      "additionalContracts": [],
      "isFixedGasLimit": false
    },
    {
      "hash": "0xbd97e8dbe9e54e749c3ec0eb8724bf6b4df03aa0448886927b3a6963ad99b45f",
      "transactionType": "CALL",
      "contractName": "FeeManager",
      "contractAddress": "0x957ebeecca9e712e335f99de34d0f46317283696",
      "function": "addFeeToken(string,string[],uint256[])",
      "arguments": [
        "421614",
        "[0x6a4dbc971533ba36bdc23ad70f5a7a12e064f4ae]",
        "[100]"
      ],
      "transaction": {
        "from": "0xe62ab4d111f968660c6b2188046f9b9ba53c4bae",
        "to": "0x957ebeecca9e712e335f99de34d0f46317283696",
        "gas": "0x2f631",
        "value": "0x0",
        "input": "0x437bf84f000000000000000000000000000000000000000000000000000000000000006000000000000000000000000000000000000000000000000000000000000000a000000000000000000000000000000000000000000000000000000000000001400000000000000000000000000000000000000000000000000000000000000006343231363134000000000000000000000000000000000000000000000000000000000000000000000000000000000000000000000000000000000000000000010000000000000000000000000000000000000000000000000000000000000020000000000000000000000000000000000000000000000000000000000000002a3078366134646263393731353333626133366264633233616437306635613761313265303634663461650000000000000000000000000000000000000000000000000000000000000000000000000000000000000000000000000000000000010000000000000000000000000000000000000000000000000000000000000064",
        "nonce": "0x1ae",
        "chainId": "0x14a34"
      },
      "additionalContracts": [],
      "isFixedGasLimit": false
    },
    {
      "hash": "0x4c4b0c218179a98bfc05c1d12f09056d3e1e063595aeca86e044f456d9e133e4",
      "transactionType": "CALL",
      "contractName": "FeeManager",
      "contractAddress": "0x957ebeecca9e712e335f99de34d0f46317283696",
      "function": "addFeeToken(string,string[],uint256[])",
      "arguments": [
        "80002",
        "[0x6a4dbc971533ba36bdc23ad70f5a7a12e064f4ae]",
        "[100]"
      ],
      "transaction": {
        "from": "0xe62ab4d111f968660c6b2188046f9b9ba53c4bae",
        "to": "0x957ebeecca9e712e335f99de34d0f46317283696",
        "gas": "0x2a2a1",
        "value": "0x0",
        "input": "0x437bf84f000000000000000000000000000000000000000000000000000000000000006000000000000000000000000000000000000000000000000000000000000000a000000000000000000000000000000000000000000000000000000000000001400000000000000000000000000000000000000000000000000000000000000005383030303200000000000000000000000000000000000000000000000000000000000000000000000000000000000000000000000000000000000000000000010000000000000000000000000000000000000000000000000000000000000020000000000000000000000000000000000000000000000000000000000000002a3078366134646263393731353333626133366264633233616437306635613761313265303634663461650000000000000000000000000000000000000000000000000000000000000000000000000000000000000000000000000000000000010000000000000000000000000000000000000000000000000000000000000064",
        "nonce": "0x1af",
        "chainId": "0x14a34"
      },
      "additionalContracts": [],
      "isFixedGasLimit": false
    },
    {
      "hash": "0x033f243e614d86e30851b352d8e34ba5a50baae509a1e7c847660a852bac5553",
      "transactionType": "CALL",
      "contractName": "FeeManager",
      "contractAddress": "0x957ebeecca9e712e335f99de34d0f46317283696",
      "function": "addFeeToken(string,string[],uint256[])",
      "arguments": [
        "84532",
        "[0x6a4dbc971533ba36bdc23ad70f5a7a12e064f4ae]",
        "[100]"
      ],
      "transaction": {
        "from": "0xe62ab4d111f968660c6b2188046f9b9ba53c4bae",
        "to": "0x957ebeecca9e712e335f99de34d0f46317283696",
        "gas": "0x2a2a1",
        "value": "0x0",
        "input": "0x437bf84f000000000000000000000000000000000000000000000000000000000000006000000000000000000000000000000000000000000000000000000000000000a000000000000000000000000000000000000000000000000000000000000001400000000000000000000000000000000000000000000000000000000000000005383435333200000000000000000000000000000000000000000000000000000000000000000000000000000000000000000000000000000000000000000000010000000000000000000000000000000000000000000000000000000000000020000000000000000000000000000000000000000000000000000000000000002a3078366134646263393731353333626133366264633233616437306635613761313265303634663461650000000000000000000000000000000000000000000000000000000000000000000000000000000000000000000000000000000000010000000000000000000000000000000000000000000000000000000000000064",
        "nonce": "0x1b0",
        "chainId": "0x14a34"
      },
      "additionalContracts": [],
      "isFixedGasLimit": false
    },
    {
      "hash": "0xfb86ad52d114c5aeff3d403b13c311c3d51ee36c0c702b7b50ec1ce3b41f0d99",
      "transactionType": "CALL",
      "contractName": "FeeManager",
      "contractAddress": "0x957ebeecca9e712e335f99de34d0f46317283696",
      "function": "addFeeToken(string,string[],uint256[])",
      "arguments": [
        "97",
        "[0x6a4dbc971533ba36bdc23ad70f5a7a12e064f4ae]",
        "[100]"
      ],
      "transaction": {
        "from": "0xe62ab4d111f968660c6b2188046f9b9ba53c4bae",
        "to": "0x957ebeecca9e712e335f99de34d0f46317283696",
        "gas": "0x29c5a",
        "value": "0x0",
        "input": "0x437bf84f000000000000000000000000000000000000000000000000000000000000006000000000000000000000000000000000000000000000000000000000000000a000000000000000000000000000000000000000000000000000000000000001400000000000000000000000000000000000000000000000000000000000000002393700000000000000000000000000000000000000000000000000000000000000000000000000000000000000000000000000000000000000000000000000010000000000000000000000000000000000000000000000000000000000000020000000000000000000000000000000000000000000000000000000000000002a3078366134646263393731353333626133366264633233616437306635613761313265303634663461650000000000000000000000000000000000000000000000000000000000000000000000000000000000000000000000000000000000010000000000000000000000000000000000000000000000000000000000000064",
        "nonce": "0x1b1",
        "chainId": "0x14a34"
      },
      "additionalContracts": [],
      "isFixedGasLimit": false
    },
    {
      "hash": "0x7fbb9d5542a3d73945defabb3fe491ef0455f612942762f66dbeeb28d3aa39f1",
      "transactionType": "CALL",
      "contractName": "FeeManager",
      "contractAddress": "0x957ebeecca9e712e335f99de34d0f46317283696",
      "function": "addFeeToken(string,string[],uint256[])",
      "arguments": [
        "11155111",
        "[0x6a4dbc971533ba36bdc23ad70f5a7a12e064f4ae]",
        "[100]"
      ],
      "transaction": {
        "from": "0xe62ab4d111f968660c6b2188046f9b9ba53c4bae",
        "to": "0x957ebeecca9e712e335f99de34d0f46317283696",
        "gas": "0x2a8e9",
        "value": "0x0",
        "input": "0x437bf84f000000000000000000000000000000000000000000000000000000000000006000000000000000000000000000000000000000000000000000000000000000a000000000000000000000000000000000000000000000000000000000000001400000000000000000000000000000000000000000000000000000000000000008313131353531313100000000000000000000000000000000000000000000000000000000000000000000000000000000000000000000000000000000000000010000000000000000000000000000000000000000000000000000000000000020000000000000000000000000000000000000000000000000000000000000002a3078366134646263393731353333626133366264633233616437306635613761313265303634663461650000000000000000000000000000000000000000000000000000000000000000000000000000000000000000000000000000000000010000000000000000000000000000000000000000000000000000000000000064",
        "nonce": "0x1b2",
        "chainId": "0x14a34"
      },
      "additionalContracts": [],
      "isFixedGasLimit": false
    },
    {
      "hash": "0x9bee3312a1b21634c82d152e25f9e3dfb1c29dad407f92afa0cc860dc61360c4",
      "transactionType": "CALL",
      "contractName": "CTMRWAGateway",
      "contractAddress": "0x7635a9b23275892ac46479b7ead9831a80171ace",
      "function": "addChainContract(string[],string[])",
      "arguments": [
        "[421614, 80002, 97, 11155111]",
        "[0xb81d017b3606a7e6eba0049de9f0ea0e4a1d90dd, 0xf97c2b87a7193b7800f50fc402e8f999bf1bf3e4, 0xb64a86e7f8d84b2cd88535bdaac6d19c87754024, 0x699de1ff83fad8c40aea628975e1b3ee71dcfb56]"
      ],
      "transaction": {
        "from": "0xe62ab4d111f968660c6b2188046f9b9ba53c4bae",
        "to": "0x7635a9b23275892ac46479b7ead9831a80171ace",
        "gas": "0xaa792",
        "value": "0x0",
        "input": "0x013fd3bd000000000000000000000000000000000000000000000000000000000000004000000000000000000000000000000000000000000000000000000000000001e00000000000000000000000000000000000000000000000000000000000000004000000000000000000000000000000000000000000000000000000000000008000000000000000000000000000000000000000000000000000000000000000c000000000000000000000000000000000000000000000000000000000000001000000000000000000000000000000000000000000000000000000000000000140000000000000000000000000000000000000000000000000000000000000000634323136313400000000000000000000000000000000000000000000000000000000000000000000000000000000000000000000000000000000000000000005383030303200000000000000000000000000000000000000000000000000000000000000000000000000000000000000000000000000000000000000000000023937000000000000000000000000000000000000000000000000000000000000000000000000000000000000000000000000000000000000000000000000000831313135353131310000000000000000000000000000000000000000000000000000000000000000000000000000000000000000000000000000000000000004000000000000000000000000000000000000000000000000000000000000008000000000000000000000000000000000000000000000000000000000000000e0000000000000000000000000000000000000000000000000000000000000014000000000000000000000000000000000000000000000000000000000000001a0000000000000000000000000000000000000000000000000000000000000002a30786238316430313762333630366137653665626130303439646539663065613065346131643930646400000000000000000000000000000000000000000000000000000000000000000000000000000000000000000000000000000000002a30786639376332623837613731393362373830306635306663343032653866393939626631626633653400000000000000000000000000000000000000000000000000000000000000000000000000000000000000000000000000000000002a30786236346138366537663864383462326364383835333562646161633664313963383737353430323400000000000000000000000000000000000000000000000000000000000000000000000000000000000000000000000000000000002a30783639396465316666383366616438633430616561363238393735653162336565373164636662353600000000000000000000000000000000000000000000",
        "nonce": "0x1b3",
        "chainId": "0x14a34"
      },
      "additionalContracts": [],
      "isFixedGasLimit": false
    },
    {
      "hash": "0xbeb41026f7f12f5b6ce20df9ea1e1c341122f564d118fb5a7ef982c08c4fe93a",
      "transactionType": "CALL",
      "contractName": "CTMRWAGateway",
      "contractAddress": "0x7635a9b23275892ac46479b7ead9831a80171ace",
      "function": "attachRWAX(uint256,uint256,string[],string[])",
      "arguments": [
        "1",
        "1",
        "[84532, 421614, 80002, 97, 11155111]",
        "[0x6187ee058bb5b7db140cfd470a27ebe1f16d92b1, 0xd06cda2c8f2258ceec5efb8c6371f54d7853480e, 0xb008b6cc593fc290ed03d5011e90f4e9d19f9a87, 0xcff54249dae66746377e15c07d95c42188d5d3a8, 0xb37c81d6f90a16bbd778886af49abebfd1ad02c7]"
      ],
      "transaction": {
        "from": "0xe62ab4d111f968660c6b2188046f9b9ba53c4bae",
        "to": "0x7635a9b23275892ac46479b7ead9831a80171ace",
        "gas": "0xe3ea8",
        "value": "0x0",
        "input": "0x33a5f5b40000000000000000000000000000000000000000000000000000000000000001000000000000000000000000000000000000000000000000000000000000000100000000000000000000000000000000000000000000000000000000000000800000000000000000000000000000000000000000000000000000000000000280000000000000000000000000000000000000000000000000000000000000000500000000000000000000000000000000000000000000000000000000000000a000000000000000000000000000000000000000000000000000000000000000e00000000000000000000000000000000000000000000000000000000000000120000000000000000000000000000000000000000000000000000000000000016000000000000000000000000000000000000000000000000000000000000001a00000000000000000000000000000000000000000000000000000000000000005383435333200000000000000000000000000000000000000000000000000000000000000000000000000000000000000000000000000000000000000000000063432313631340000000000000000000000000000000000000000000000000000000000000000000000000000000000000000000000000000000000000000000538303030320000000000000000000000000000000000000000000000000000000000000000000000000000000000000000000000000000000000000000000002393700000000000000000000000000000000000000000000000000000000000000000000000000000000000000000000000000000000000000000000000000083131313535313131000000000000000000000000000000000000000000000000000000000000000000000000000000000000000000000000000000000000000500000000000000000000000000000000000000000000000000000000000000a00000000000000000000000000000000000000000000000000000000000000100000000000000000000000000000000000000000000000000000000000000016000000000000000000000000000000000000000000000000000000000000001c00000000000000000000000000000000000000000000000000000000000000220000000000000000000000000000000000000000000000000000000000000002a30783631383765653035386262356237646231343063666434373061323765626531663136643932623100000000000000000000000000000000000000000000000000000000000000000000000000000000000000000000000000000000002a30786430366364613263386632323538636565633565666238633633373166353464373835333438306500000000000000000000000000000000000000000000000000000000000000000000000000000000000000000000000000000000002a30786230303862366363353933666332393065643033643530313165393066346539643139663961383700000000000000000000000000000000000000000000000000000000000000000000000000000000000000000000000000000000002a30786366663534323439646165363637343633373765313563303764393563343231383864356433613800000000000000000000000000000000000000000000000000000000000000000000000000000000000000000000000000000000002a30786233376338316436663930613136626264373738383836616634396162656266643161643032633700000000000000000000000000000000000000000000",
        "nonce": "0x1b4",
        "chainId": "0x14a34"
      },
      "additionalContracts": [],
      "isFixedGasLimit": false
    },
    {
      "hash": "0x2399e9921d279cfda4b46e039e09ddff4676beba4371156128566b45c37ecb5f",
      "transactionType": "CALL",
      "contractName": "CTMRWAGateway",
      "contractAddress": "0x7635a9b23275892ac46479b7ead9831a80171ace",
      "function": "attachStorageManager(uint256,uint256,string[],string[])",
      "arguments": [
        "1",
        "1",
        "[84532, 421614, 80002, 97, 11155111]",
        "[0x4f6af153614d50051bad6f3e76110f959817738f, 0x298c11661856dc1194c578ecd2c230eb4fa433a0, 0xd4bd9bba2fb97c36bbd619303cab636f476f8904, 0x0156a74fd9432446030f47f7c55f4d1fbfdf5e9a, 0x563c5c85cc7ba923c50b66479588e5b3b2c93470]"
      ],
      "transaction": {
        "from": "0xe62ab4d111f968660c6b2188046f9b9ba53c4bae",
        "to": "0x7635a9b23275892ac46479b7ead9831a80171ace",
        "gas": "0xd6c94",
        "value": "0x0",
        "input": "0x2f68b4890000000000000000000000000000000000000000000000000000000000000001000000000000000000000000000000000000000000000000000000000000000100000000000000000000000000000000000000000000000000000000000000800000000000000000000000000000000000000000000000000000000000000280000000000000000000000000000000000000000000000000000000000000000500000000000000000000000000000000000000000000000000000000000000a000000000000000000000000000000000000000000000000000000000000000e00000000000000000000000000000000000000000000000000000000000000120000000000000000000000000000000000000000000000000000000000000016000000000000000000000000000000000000000000000000000000000000001a00000000000000000000000000000000000000000000000000000000000000005383435333200000000000000000000000000000000000000000000000000000000000000000000000000000000000000000000000000000000000000000000063432313631340000000000000000000000000000000000000000000000000000000000000000000000000000000000000000000000000000000000000000000538303030320000000000000000000000000000000000000000000000000000000000000000000000000000000000000000000000000000000000000000000002393700000000000000000000000000000000000000000000000000000000000000000000000000000000000000000000000000000000000000000000000000083131313535313131000000000000000000000000000000000000000000000000000000000000000000000000000000000000000000000000000000000000000500000000000000000000000000000000000000000000000000000000000000a00000000000000000000000000000000000000000000000000000000000000100000000000000000000000000000000000000000000000000000000000000016000000000000000000000000000000000000000000000000000000000000001c00000000000000000000000000000000000000000000000000000000000000220000000000000000000000000000000000000000000000000000000000000002a30783466366166313533363134643530303531626164366633653736313130663935393831373733386600000000000000000000000000000000000000000000000000000000000000000000000000000000000000000000000000000000002a30783239386331313636313835366463313139346335373865636432633233306562346661343333613000000000000000000000000000000000000000000000000000000000000000000000000000000000000000000000000000000000002a30786434626439626261326662393763333662626436313933303363616236333666343736663839303400000000000000000000000000000000000000000000000000000000000000000000000000000000000000000000000000000000002a30783031353661373466643934333234343630333066343766376335356634643166626664663565396100000000000000000000000000000000000000000000000000000000000000000000000000000000000000000000000000000000002a30783536336335633835636337626139323363353062363634373935383865356233623263393334373000000000000000000000000000000000000000000000",
        "nonce": "0x1b5",
        "chainId": "0x14a34"
      },
      "additionalContracts": [],
      "isFixedGasLimit": false
    }
  ],
  "receipts": [
    {
      "status": "0x1",
      "cumulativeGasUsed": "0x27df8",
      "logs": [],
      "logsBloom": "0x00000000000000000000000000000000000000000000000000000000000000000000000000000000000000000000000000000000000000000000000000000000000000000000000000000000000000000000000000000000000000000000000000000000000000000000000000000000000000000000000000000000000000000000000000000000000000000000000000000000000000000000000000000000000000000000000000000000000000000000000000000000000000000000000000000000000000000000000000000000000000000000000000000000000000000000000000000000000000000000000000000000000000000000000000000000",
      "type": "0x2",
      "transactionHash": "0x5284b57d7a5f4b90c14312f96e71adefe22ec8f192f6a9507e07d783ca933d66",
      "transactionIndex": "0x2",
      "blockHash": "0x69ce4b6465adf171b177ba32eb084dec32a02bc2a42b64e0a15f89d46f21dcaf",
      "blockNumber": "0x114ecda",
      "gasUsed": "0x5eb3",
      "effectiveGasPrice": "0xd6d0",
      "from": "0xe62ab4d111f968660c6b2188046f9b9ba53c4bae",
      "to": "0x957ebeecca9e712e335f99de34d0f46317283696",
      "contractAddress": null,
      "l1BaseFeeScalar": "0x44d",
      "l1BlobBaseFee": "0x1",
      "l1BlobBaseFeeScalar": "0xa118b",
      "l1Fee": "0xa9a019bd5",
      "l1GasPrice": "0x604a5ffba",
      "l1GasUsed": "0x640"
    },
    {
      "status": "0x1",
      "cumulativeGasUsed": "0x78100",
      "logs": [
        {
          "address": "0x957ebeecca9e712e335f99de34d0f46317283696",
          "topics": [
            "0x1394cfab38f3fc78ed77ea6f9318782a446d96e7dc8e9a6b0149f6be25c08bcf",
            "0x0000000000000000000000006a4dbc971533ba36bdc23ad70f5a7a12e064f4ae"
          ],
          "data": "0x",
          "blockHash": "0xcfe94a0b63bf3355eaa50a15f9730aa51a25b4018b5840e9cf87ee715d40b25e",
          "blockNumber": "0x114ecde",
          "transactionHash": "0xa976e85c1385052a48f22f8a0bb33d2f07d5c8a360fe37f7df2a80468399f647",
          "transactionIndex": "0x5",
          "logIndex": "0x4",
          "removed": false
        }
      ],
      "logsBloom": "0x00000000000000000000000000000000000200000000000000000000000000000000000000000000000000000000000000000000000000001000000000000000000000000000000000800000000000000000001000000000000000000000000800000000000000000000000000000000000000000000000000000000000000000010000100000000000000000000000000000000000000000000000000000000000000000000000000000000000000000000000100000000000000000000000000000000000000000000000000000000000000002000000000000000000000000000000000000000000000000000000000000000000000000000000000000000",
      "type": "0x2",
      "transactionHash": "0xa976e85c1385052a48f22f8a0bb33d2f07d5c8a360fe37f7df2a80468399f647",
      "transactionIndex": "0x5",
      "blockHash": "0xcfe94a0b63bf3355eaa50a15f9730aa51a25b4018b5840e9cf87ee715d40b25e",
      "blockNumber": "0x114ecde",
      "gasUsed": "0x1bf00",
      "effectiveGasPrice": "0xd6d0",
      "from": "0xe62ab4d111f968660c6b2188046f9b9ba53c4bae",
      "to": "0x957ebeecca9e712e335f99de34d0f46317283696",
      "contractAddress": null,
      "l1BaseFeeScalar": "0x44d",
      "l1BlobBaseFee": "0x1",
      "l1BlobBaseFeeScalar": "0xa118b",
      "l1Fee": "0xb8967f3d6",
      "l1GasPrice": "0x604a5ffba",
      "l1GasUsed": "0x6cd"
    },
    {
      "status": "0x1",
      "cumulativeGasUsed": "0x7f6b8",
      "logs": [],
      "logsBloom": "0x00000000000000000000000000000000000000000000000000000000000000000000000000000000000000000000000000000000000000000000000000000000000000000000000000000000000000000000000000000000000000000000000000000000000000000000000000000000000000000000000000000000000000000000000000000000000000000000000000000000000000000000000000000000000000000000000000000000000000000000000000000000000000000000000000000000000000000000000000000000000000000000000000000000000000000000000000000000000000000000000000000000000000000000000000000000",
      "type": "0x2",
      "transactionHash": "0x01f0725d7561402d18f59e2e8c8d4145dc07164abd9a14fca27580844e2aaaa9",
      "transactionIndex": "0x7",
      "blockHash": "0x520841613f16e7a13c79206f7aa784519f5f01847a37759408aa074e71bb3b2d",
      "blockNumber": "0x114ece1",
      "gasUsed": "0xbbf9",
      "effectiveGasPrice": "0xd6d0",
      "from": "0xe62ab4d111f968660c6b2188046f9b9ba53c4bae",
      "to": "0x957ebeecca9e712e335f99de34d0f46317283696",
      "contractAddress": null,
      "l1BaseFeeScalar": "0x44d",
      "l1BlobBaseFee": "0x1",
      "l1BlobBaseFeeScalar": "0xa118b",
      "l1Fee": "0xb5cc4e67c",
      "l1GasPrice": "0x673356959",
      "l1GasUsed": "0x640"
    },
    {
      "status": "0x1",
      "cumulativeGasUsed": "0x8b92a",
      "logs": [],
      "logsBloom": "0x00000000000000000000000000000000000000000000000000000000000000000000000000000000000000000000000000000000000000000000000000000000000000000000000000000000000000000000000000000000000000000000000000000000000000000000000000000000000000000000000000000000000000000000000000000000000000000000000000000000000000000000000000000000000000000000000000000000000000000000000000000000000000000000000000000000000000000000000000000000000000000000000000000000000000000000000000000000000000000000000000000000000000000000000000000000",
      "type": "0x2",
      "transactionHash": "0x8b7111085e5e8c59e0df0d3d964a1e773e9bc3981064ff93d1b9b9bce531cffd",
      "transactionIndex": "0x3",
      "blockHash": "0xf7ba1a3c01040fe174d597f29af05eb848a1df487b7618245b56fc1206088300",
      "blockNumber": "0x114ece5",
      "gasUsed": "0xbc22",
      "effectiveGasPrice": "0xd6d0",
      "from": "0xe62ab4d111f968660c6b2188046f9b9ba53c4bae",
      "to": "0x957ebeecca9e712e335f99de34d0f46317283696",
      "contractAddress": null,
      "l1BaseFeeScalar": "0x44d",
      "l1BlobBaseFee": "0x1",
      "l1BlobBaseFeeScalar": "0xa118b",
      "l1Fee": "0xb5cc4e67c",
      "l1GasPrice": "0x673356959",
      "l1GasUsed": "0x640"
    },
    {
      "status": "0x1",
      "cumulativeGasUsed": "0x5b6f4",
      "logs": [],
      "logsBloom": "0x00000000000000000000000000000000000000000000000000000000000000000000000000000000000000000000000000000000000000000000000000000000000000000000000000000000000000000000000000000000000000000000000000000000000000000000000000000000000000000000000000000000000000000000000000000000000000000000000000000000000000000000000000000000000000000000000000000000000000000000000000000000000000000000000000000000000000000000000000000000000000000000000000000000000000000000000000000000000000000000000000000000000000000000000000000000",
      "type": "0x2",
      "transactionHash": "0x2a14e2995c747b0b2bb168bfb95928d782d4e51b8e7cd78f3097ebd952d72958",
      "transactionIndex": "0x5",
      "blockHash": "0x2b3c4390932ba2a2bac5eabe4dd7e7139ce669bd2b60afc2875917375bcafb32",
      "blockNumber": "0x114ece9",
      "gasUsed": "0xbc39",
      "effectiveGasPrice": "0xd6cf",
      "from": "0xe62ab4d111f968660c6b2188046f9b9ba53c4bae",
      "to": "0x957ebeecca9e712e335f99de34d0f46317283696",
      "contractAddress": null,
      "l1BaseFeeScalar": "0x44d",
      "l1BlobBaseFee": "0x1",
      "l1BlobBaseFeeScalar": "0xa118b",
      "l1Fee": "0xb71299b0f",
      "l1GasPrice": "0x67ec906f6",
      "l1GasUsed": "0x640"
    },
    {
      "status": "0x1",
      "cumulativeGasUsed": "0x7ee49",
      "logs": [],
      "logsBloom": "0x00000000000000000000000000000000000000000000000000000000000000000000000000000000000000000000000000000000000000000000000000000000000000000000000000000000000000000000000000000000000000000000000000000000000000000000000000000000000000000000000000000000000000000000000000000000000000000000000000000000000000000000000000000000000000000000000000000000000000000000000000000000000000000000000000000000000000000000000000000000000000000000000000000000000000000000000000000000000000000000000000000000000000000000000000000000",
      "type": "0x2",
      "transactionHash": "0xf051ff23970629ba5cacd2689cf26bd7e2da3c71e916f8079f93d2b642249a99",
      "transactionIndex": "0x6",
      "blockHash": "0x0e1e356ed35aac5ce7d4a4335af478a867a5e6fcf58ed1b72d9596f5b9cb457a",
      "blockNumber": "0x114ecec",
      "gasUsed": "0xbc50",
      "effectiveGasPrice": "0xd6cf",
      "from": "0xe62ab4d111f968660c6b2188046f9b9ba53c4bae",
      "to": "0x957ebeecca9e712e335f99de34d0f46317283696",
      "contractAddress": null,
      "l1BaseFeeScalar": "0x44d",
      "l1BlobBaseFee": "0x1",
      "l1BlobBaseFeeScalar": "0xa118b",
      "l1Fee": "0xaddcc0795",
      "l1GasPrice": "0x62b21826a",
      "l1GasUsed": "0x640"
    },
    {
      "status": "0x1",
      "cumulativeGasUsed": "0x6d337",
      "logs": [],
      "logsBloom": "0x00000000000000000000000000000000000000000000000000000000000000000000000000000000000000000000000000000000000000000000000000000000000000000000000000000000000000000000000000000000000000000000000000000000000000000000000000000000000000000000000000000000000000000000000000000000000000000000000000000000000000000000000000000000000000000000000000000000000000000000000000000000000000000000000000000000000000000000000000000000000000000000000000000000000000000000000000000000000000000000000000000000000000000000000000000000",
      "type": "0x2",
      "transactionHash": "0xcf4eeacc69c85449dd2520e61d559730e0dbc2e54cea6fe6881ad28dfc40f415",
      "transactionIndex": "0x5",
      "blockHash": "0x794adb1b9f9268ac1a40163a7132f8d21322de52917b87cb52e9fce5e03cf9d2",
      "blockNumber": "0x114ecf0",
      "gasUsed": "0xbc67",
      "effectiveGasPrice": "0xd6d0",
      "from": "0xe62ab4d111f968660c6b2188046f9b9ba53c4bae",
      "to": "0x957ebeecca9e712e335f99de34d0f46317283696",
      "contractAddress": null,
      "l1BaseFeeScalar": "0x44d",
      "l1BlobBaseFee": "0x1",
      "l1BlobBaseFeeScalar": "0xa118b",
      "l1Fee": "0xaddcc0795",
      "l1GasPrice": "0x62b21826a",
      "l1GasUsed": "0x640"
    },
    {
      "status": "0x1",
      "cumulativeGasUsed": "0x6e125c",
      "logs": [],
      "logsBloom": "0x00000000000000000000000000000000000000000000000000000000000000000000000000000000000000000000000000000000000000000000000000000000000000000000000000000000000000000000000000000000000000000000000000000000000000000000000000000000000000000000000000000000000000000000000000000000000000000000000000000000000000000000000000000000000000000000000000000000000000000000000000000000000000000000000000000000000000000000000000000000000000000000000000000000000000000000000000000000000000000000000000000000000000000000000000000000",
      "type": "0x2",
      "transactionHash": "0x6907fb5fdf239e9025ceeba0665279146d366667d10a75e3953d2c7311cb6edd",
      "transactionIndex": "0x5",
      "blockHash": "0x79025a775595c083705fe42c04a7e97b3019f11e52f3cb2363fafd9e9e3964b7",
      "blockNumber": "0x114ecf3",
      "gasUsed": "0xbc7e",
      "effectiveGasPrice": "0xd6d0",
      "from": "0xe62ab4d111f968660c6b2188046f9b9ba53c4bae",
      "to": "0x957ebeecca9e712e335f99de34d0f46317283696",
      "contractAddress": null,
      "l1BaseFeeScalar": "0x44d",
      "l1BlobBaseFee": "0x1",
      "l1BlobBaseFeeScalar": "0xa118b",
      "l1Fee": "0xba374a103",
      "l1GasPrice": "0x69b55bcae",
      "l1GasUsed": "0x640"
    },
    {
      "status": "0x1",
      "cumulativeGasUsed": "0x167d4",
      "logs": [],
      "logsBloom": "0x00000000000000000000000000000000000000000000000000000000000000000000000000000000000000000000000000000000000000000000000000000000000000000000000000000000000000000000000000000000000000000000000000000000000000000000000000000000000000000000000000000000000000000000000000000000000000000000000000000000000000000000000000000000000000000000000000000000000000000000000000000000000000000000000000000000000000000000000000000000000000000000000000000000000000000000000000000000000000000000000000000000000000000000000000000000",
      "type": "0x2",
      "transactionHash": "0xc1ea0d0f67719812791b1698fe9270783c1daaf3888b4b94762759ac28aa8358",
      "transactionIndex": "0x1",
      "blockHash": "0x057a60858493c84f0ef3546e26d0119ea525c30416b511dc03b88c59769c4392",
      "blockNumber": "0x114ecf7",
      "gasUsed": "0xbc95",
      "effectiveGasPrice": "0xd6d1",
      "from": "0xe62ab4d111f968660c6b2188046f9b9ba53c4bae",
      "to": "0x957ebeecca9e712e335f99de34d0f46317283696",
      "contractAddress": null,
      "l1BaseFeeScalar": "0x44d",
      "l1BlobBaseFee": "0x1",
      "l1BlobBaseFeeScalar": "0xa118b",
      "l1Fee": "0xba374a103",
      "l1GasPrice": "0x69b55bcae",
      "l1GasUsed": "0x640"
    },
    {
      "status": "0x1",
      "cumulativeGasUsed": "0x60f81",
      "logs": [],
      "logsBloom": "0x00000000000000000000000000000000000000000000000000000000000000000000000000000000000000000000000000000000000000000000000000000000000000000000000000000000000000000000000000000000000000000000000000000000000000000000000000000000000000000000000000000000000000000000000000000000000000000000000000000000000000000000000000000000000000000000000000000000000000000000000000000000000000000000000000000000000000000000000000000000000000000000000000000000000000000000000000000000000000000000000000000000000000000000000000000000",
      "type": "0x2",
      "transactionHash": "0xef2a6a16e9e00cc517f9acba4beb3a5379f2412b68576112d286cb3070a082f1",
      "transactionIndex": "0x5",
      "blockHash": "0x47cdbb7d0868e13961b6dfdc11546247a913bccd7af3390da5fb97516d694421",
      "blockNumber": "0x114ecfb",
      "gasUsed": "0xbcac",
      "effectiveGasPrice": "0xd6d1",
      "from": "0xe62ab4d111f968660c6b2188046f9b9ba53c4bae",
      "to": "0x957ebeecca9e712e335f99de34d0f46317283696",
      "contractAddress": null,
      "l1BaseFeeScalar": "0x44d",
      "l1BlobBaseFee": "0x1",
      "l1BlobBaseFeeScalar": "0xa118b",
      "l1Fee": "0xbbfb41f39",
      "l1GasPrice": "0x6ab5eced9",
      "l1GasUsed": "0x640"
    },
    {
      "status": "0x1",
      "cumulativeGasUsed": "0x99862",
      "logs": [],
      "logsBloom": "0x00000000000000000000000000000000000000000000000000000000000000000000000000000000000000000000000000000000000000000000000000000000000000000000000000000000000000000000000000000000000000000000000000000000000000000000000000000000000000000000000000000000000000000000000000000000000000000000000000000000000000000000000000000000000000000000000000000000000000000000000000000000000000000000000000000000000000000000000000000000000000000000000000000000000000000000000000000000000000000000000000000000000000000000000000000000",
      "type": "0x2",
      "transactionHash": "0xc85538b7a5f2ccb6060f5c59c31dffbd1df9094dd34716e4620d0936c463fcfe",
      "transactionIndex": "0x4",
      "blockHash": "0xd908d8a163b13630d9499edf1034c8eef020c60ec35f672e388115f36c64649c",
      "blockNumber": "0x114ecfe",
      "gasUsed": "0xbcc3",
      "effectiveGasPrice": "0xd6d1",
      "from": "0xe62ab4d111f968660c6b2188046f9b9ba53c4bae",
      "to": "0x957ebeecca9e712e335f99de34d0f46317283696",
      "contractAddress": null,
      "l1BaseFeeScalar": "0x44d",
      "l1BlobBaseFee": "0x1",
      "l1BlobBaseFeeScalar": "0xa118b",
      "l1Fee": "0xbbfb41f39",
      "l1GasPrice": "0x6ab5eced9",
      "l1GasUsed": "0x640"
    },
    {
      "status": "0x1",
      "cumulativeGasUsed": "0x18cf7c",
      "logs": [],
      "logsBloom": "0x00000000000000000000000000000000000000000000000000000000000000000000000000000000000000000000000000000000000000000000000000000000000000000000000000000000000000000000000000000000000000000000000000000000000000000000000000000000000000000000000000000000000000000000000000000000000000000000000000000000000000000000000000000000000000000000000000000000000000000000000000000000000000000000000000000000000000000000000000000000000000000000000000000000000000000000000000000000000000000000000000000000000000000000000000000000",
      "type": "0x2",
      "transactionHash": "0xdf478ba9ef021886f2a3c69006687a0f934ef474191a9da8bb2a4cacd14cf70c",
      "transactionIndex": "0x6",
      "blockHash": "0x65745a4c73655b6378757aa8c5ceedf86f951e298dbecb8316af3fd2adcc62b9",
      "blockNumber": "0x114ed02",
      "gasUsed": "0xbcda",
      "effectiveGasPrice": "0xd6d1",
      "from": "0xe62ab4d111f968660c6b2188046f9b9ba53c4bae",
      "to": "0x957ebeecca9e712e335f99de34d0f46317283696",
      "contractAddress": null,
      "l1BaseFeeScalar": "0x44d",
      "l1BlobBaseFee": "0x1",
      "l1BlobBaseFeeScalar": "0xa118b",
      "l1Fee": "0xbbfb41f39",
      "l1GasPrice": "0x6ab5eced9",
      "l1GasUsed": "0x640"
    },
    {
      "status": "0x1",
      "cumulativeGasUsed": "0x5d49b",
      "logs": [],
      "logsBloom": "0x00000000000000000000000000000000000000000000000000000000000000000000000000000000000000000000000000000000000000000000000000000000000000000000000000000000000000000000000000000000000000000000000000000000000000000000000000000000000000000000000000000000000000000000000000000000000000000000000000000000000000000000000000000000000000000000000000000000000000000000000000000000000000000000000000000000000000000000000000000000000000000000000000000000000000000000000000000000000000000000000000000000000000000000000000000000",
      "type": "0x2",
      "transactionHash": "0x63992ce0bed30abcff0377463728d75372389f7883acddc814891e5113a88a0d",
      "transactionIndex": "0x5",
      "blockHash": "0x903f678409ad5592d1495fbdb55b24581d78262a6d670158ed2ab05b8ff20685",
      "blockNumber": "0x114ed06",
      "gasUsed": "0xbcf1",
      "effectiveGasPrice": "0xd6d1",
      "from": "0xe62ab4d111f968660c6b2188046f9b9ba53c4bae",
      "to": "0x957ebeecca9e712e335f99de34d0f46317283696",
      "contractAddress": null,
      "l1BaseFeeScalar": "0x44d",
      "l1BlobBaseFee": "0x1",
      "l1BlobBaseFeeScalar": "0xa118b",
      "l1Fee": "0xb37e1ab6c",
      "l1GasPrice": "0x65e44d013",
      "l1GasUsed": "0x640"
    },
    {
      "status": "0x1",
      "cumulativeGasUsed": "0x54294",
      "logs": [],
      "logsBloom": "0x00000000000000000000000000000000000000000000000000000000000000000000000000000000000000000000000000000000000000000000000000000000000000000000000000000000000000000000000000000000000000000000000000000000000000000000000000000000000000000000000000000000000000000000000000000000000000000000000000000000000000000000000000000000000000000000000000000000000000000000000000000000000000000000000000000000000000000000000000000000000000000000000000000000000000000000000000000000000000000000000000000000000000000000000000000000",
      "type": "0x2",
      "transactionHash": "0xa12109c017f1f7a04d9c79da46df2ef33bc8cd5a620bbec911f0065bc2f36afe",
      "transactionIndex": "0x2",
      "blockHash": "0xec015ce15ed948a788e13b058ae1fa285c4c3175f05155ef2fc1affd7eb55063",
      "blockNumber": "0x114ed09",
      "gasUsed": "0xbd08",
      "effectiveGasPrice": "0xd6d1",
      "from": "0xe62ab4d111f968660c6b2188046f9b9ba53c4bae",
      "to": "0x957ebeecca9e712e335f99de34d0f46317283696",
      "contractAddress": null,
      "l1BaseFeeScalar": "0x44d",
      "l1BlobBaseFee": "0x1",
      "l1BlobBaseFeeScalar": "0xa118b",
      "l1Fee": "0xb37e1ab6c",
      "l1GasPrice": "0x65e44d013",
      "l1GasUsed": "0x640"
    },
    {
      "status": "0x1",
      "cumulativeGasUsed": "0x39f79",
      "logs": [],
      "logsBloom": "0x00000000000000000000000000000000000000000000000000000000000000000000000000000000000000000000000000000000000000000000000000000000000000000000000000000000000000000000000000000000000000000000000000000000000000000000000000000000000000000000000000000000000000000000000000000000000000000000000000000000000000000000000000000000000000000000000000000000000000000000000000000000000000000000000000000000000000000000000000000000000000000000000000000000000000000000000000000000000000000000000000000000000000000000000000000000",
      "type": "0x2",
      "transactionHash": "0x2635b5b11e3857ef98bb2e35ec34a4a7b946cb79f4e3070ffaf646fee253ce36",
      "transactionIndex": "0x3",
      "blockHash": "0x97468f4ac4048fb96512ebd866a9fba868e067a0188f552f8efe0aa330971417",
      "blockNumber": "0x114ed0d",
      "gasUsed": "0xbd1f",
      "effectiveGasPrice": "0xd6d1",
      "from": "0xe62ab4d111f968660c6b2188046f9b9ba53c4bae",
      "to": "0x957ebeecca9e712e335f99de34d0f46317283696",
      "contractAddress": null,
      "l1BaseFeeScalar": "0x44d",
      "l1BlobBaseFee": "0x1",
      "l1BlobBaseFeeScalar": "0xa118b",
      "l1Fee": "0xb29b93932",
      "l1GasPrice": "0x6563b56bb",
      "l1GasUsed": "0x640"
    },
    {
      "status": "0x1",
      "cumulativeGasUsed": "0x3267c",
      "logs": [],
      "logsBloom": "0x00000000000000000000000000000000000000000000000000000000000000000000000000000000000000000000000000000000000000000000000000000000000000000000000000000000000000000000000000000000000000000000000000000000000000000000000000000000000000000000000000000000000000000000000000000000000000000000000000000000000000000000000000000000000000000000000000000000000000000000000000000000000000000000000000000000000000000000000000000000000000000000000000000000000000000000000000000000000000000000000000000000000000000000000000000000",
      "type": "0x2",
      "transactionHash": "0x37ac947ffea933fc627f86417919a30cefff7e07dd0ec59b549132080fc055e0",
      "transactionIndex": "0x3",
      "blockHash": "0x05dafc75b36b3109fc0995851ebcaacc9154603fcce3ececd9dca4add2f864b0",
      "blockNumber": "0x114ed11",
      "gasUsed": "0xbd36",
      "effectiveGasPrice": "0xd6d1",
      "from": "0xe62ab4d111f968660c6b2188046f9b9ba53c4bae",
      "to": "0x957ebeecca9e712e335f99de34d0f46317283696",
      "contractAddress": null,
      "l1BaseFeeScalar": "0x44d",
      "l1BlobBaseFee": "0x1",
      "l1BlobBaseFeeScalar": "0xa118b",
      "l1Fee": "0xb121712de",
      "l1GasPrice": "0x648d0e03f",
      "l1GasUsed": "0x640"
    },
    {
      "status": "0x1",
      "cumulativeGasUsed": "0x2bbce",
      "logs": [],
      "logsBloom": "0x00000000000000000000000000000000000000000000000000000000000000000000000000000000000000000000000000000000000000000000000000000000000000000000000000000000000000000000000000000000000000000000000000000000000000000000000000000000000000000000000000000000000000000000000000000000000000000000000000000000000000000000000000000000000000000000000000000000000000000000000000000000000000000000000000000000000000000000000000000000000000000000000000000000000000000000000000000000000000000000000000000000000000000000000000000000",
      "type": "0x2",
      "transactionHash": "0x7e083634dcf729537fe585b89e8bbf92ed66ca5d7602269b65122df2c8bd67d9",
      "transactionIndex": "0x2",
      "blockHash": "0x7ff0863d73e89271be7465cc69e0b4eb7522a0b6e6c4c464845c1422ea4cdf89",
      "blockNumber": "0x114ed14",
      "gasUsed": "0xbd4d",
      "effectiveGasPrice": "0xd6d1",
      "from": "0xe62ab4d111f968660c6b2188046f9b9ba53c4bae",
      "to": "0x957ebeecca9e712e335f99de34d0f46317283696",
      "contractAddress": null,
      "l1BaseFeeScalar": "0x44d",
      "l1BlobBaseFee": "0x1",
      "l1BlobBaseFeeScalar": "0xa118b",
      "l1Fee": "0xb121712de",
      "l1GasPrice": "0x648d0e03f",
      "l1GasUsed": "0x640"
    },
    {
      "status": "0x1",
      "cumulativeGasUsed": "0x414a7",
      "logs": [],
      "logsBloom": "0x00000000000000000000000000000000000000000000000000000000000000000000000000000000000000000000000000000000000000000000000000000000000000000000000000000000000000000000000000000000000000000000000000000000000000000000000000000000000000000000000000000000000000000000000000000000000000000000000000000000000000000000000000000000000000000000000000000000000000000000000000000000000000000000000000000000000000000000000000000000000000000000000000000000000000000000000000000000000000000000000000000000000000000000000000000000",
      "type": "0x2",
      "transactionHash": "0x0aafb68700e9b05e6104465efbfa5b5877aff6d7e5f8a36444e5b3ab188039d5",
      "transactionIndex": "0x3",
      "blockHash": "0x9e24129c423dcab940e9b3a503cc22b49b4238313cb949fef68a3fc3621bff0d",
      "blockNumber": "0x114ed18",
      "gasUsed": "0xbd64",
      "effectiveGasPrice": "0xd6d1",
      "from": "0xe62ab4d111f968660c6b2188046f9b9ba53c4bae",
      "to": "0x957ebeecca9e712e335f99de34d0f46317283696",
      "contractAddress": null,
      "l1BaseFeeScalar": "0x44d",
      "l1BlobBaseFee": "0x1",
      "l1BlobBaseFeeScalar": "0xa118b",
      "l1Fee": "0xc45c72bfe",
      "l1GasPrice": "0x6f77ad401",
      "l1GasUsed": "0x640"
    },
    {
      "status": "0x1",
      "cumulativeGasUsed": "0x632ad",
      "logs": [],
      "logsBloom": "0x00000000000000000000000000000000000000000000000000000000000000000000000000000000000000000000000000000000000000000000000000000000000000000000000000000000000000000000000000000000000000000000000000000000000000000000000000000000000000000000000000000000000000000000000000000000000000000000000000000000000000000000000000000000000000000000000000000000000000000000000000000000000000000000000000000000000000000000000000000000000000000000000000000000000000000000000000000000000000000000000000000000000000000000000000000000",
      "type": "0x2",
      "transactionHash": "0x89170d8a615848b7f38c1011ae54f4205328f106419909c96054e25ee983d064",
      "transactionIndex": "0x4",
      "blockHash": "0x7bd1233b9eeb1b92f9e99fd1b2759dcf49a41256ecfe910e92deaa96362684a2",
      "blockNumber": "0x114ed1b",
      "gasUsed": "0xbd76",
      "effectiveGasPrice": "0xd6d1",
      "from": "0xe62ab4d111f968660c6b2188046f9b9ba53c4bae",
      "to": "0x957ebeecca9e712e335f99de34d0f46317283696",
      "contractAddress": null,
      "l1BaseFeeScalar": "0x44d",
      "l1BlobBaseFee": "0x1",
      "l1BlobBaseFeeScalar": "0xa118b",
      "l1Fee": "0xc45c72bfe",
      "l1GasPrice": "0x6f77ad401",
      "l1GasUsed": "0x640"
    },
    {
      "status": "0x1",
      "cumulativeGasUsed": "0x62fad",
      "logs": [],
      "logsBloom": "0x00000000000000000000000000000000000000000000000000000000000000000000000000000000000000000000000000000000000000000000000000000000000000000000000000000000000000000000000000000000000000000000000000000000000000000000000000000000000000000000000000000000000000000000000000000000000000000000000000000000000000000000000000000000000000000000000000000000000000000000000000000000000000000000000000000000000000000000000000000000000000000000000000000000000000000000000000000000000000000000000000000000000000000000000000000000",
      "type": "0x2",
      "transactionHash": "0xbd97e8dbe9e54e749c3ec0eb8724bf6b4df03aa0448886927b3a6963ad99b45f",
      "transactionIndex": "0x4",
      "blockHash": "0x6d8c1294a15c46acdc32cbcb5ca760c9c737634b92915f26938e03ed0e0d1cb0",
      "blockNumber": "0x114ed1f",
      "gasUsed": "0x224ec",
      "effectiveGasPrice": "0xd6d1",
      "from": "0xe62ab4d111f968660c6b2188046f9b9ba53c4bae",
      "to": "0x957ebeecca9e712e335f99de34d0f46317283696",
      "contractAddress": null,
      "l1BaseFeeScalar": "0x44d",
      "l1BlobBaseFee": "0x1",
      "l1BlobBaseFeeScalar": "0xa118b",
      "l1Fee": "0x11ac564b93",
      "l1GasPrice": "0x6d98d335a",
      "l1GasUsed": "0x927"
    },
    {
      "status": "0x1",
      "cumulativeGasUsed": "0x50be5",
      "logs": [],
      "logsBloom": "0x00000000000000000000000000000000000000000000000000000000000000000000000000000000000000000000000000000000000000000000000000000000000000000000000000000000000000000000000000000000000000000000000000000000000000000000000000000000000000000000000000000000000000000000000000000000000000000000000000000000000000000000000000000000000000000000000000000000000000000000000000000000000000000000000000000000000000000000000000000000000000000000000000000000000000000000000000000000000000000000000000000000000000000000000000000000",
      "type": "0x2",
      "transactionHash": "0x4c4b0c218179a98bfc05c1d12f09056d3e1e063595aeca86e044f456d9e133e4",
      "transactionIndex": "0x4",
      "blockHash": "0xa04179a0ef3dd117e974f969cddc0be3993fafd64242a8fcabd49079b027a3e7",
      "blockNumber": "0x114ed23",
      "gasUsed": "0x1e86c",
      "effectiveGasPrice": "0xd6d1",
      "from": "0xe62ab4d111f968660c6b2188046f9b9ba53c4bae",
      "to": "0x957ebeecca9e712e335f99de34d0f46317283696",
      "contractAddress": null,
      "l1BaseFeeScalar": "0x44d",
      "l1BlobBaseFee": "0x1",
      "l1BlobBaseFeeScalar": "0xa118b",
      "l1Fee": "0x1069451976",
      "l1GasPrice": "0x665b09f0b",
      "l1GasUsed": "0x91a"
    },
    {
      "status": "0x1",
      "cumulativeGasUsed": "0x6104b",
      "logs": [],
      "logsBloom": "0x00000000000000000000000000000000000000000000000000000000000000000000000000000000000000000000000000000000000000000000000000000000000000000000000000000000000000000000000000000000000000000000000000000000000000000000000000000000000000000000000000000000000000000000000000000000000000000000000000000000000000000000000000000000000000000000000000000000000000000000000000000000000000000000000000000000000000000000000000000000000000000000000000000000000000000000000000000000000000000000000000000000000000000000000000000000",
      "type": "0x2",
      "transactionHash": "0x033f243e614d86e30851b352d8e34ba5a50baae509a1e7c847660a852bac5553",
      "transactionIndex": "0x4",
      "blockHash": "0x18e7d4da14048e299ab1ac1fb81b750ece54ae834722331034799243514ac201",
      "blockNumber": "0x114ed26",
      "gasUsed": "0x1e86c",
      "effectiveGasPrice": "0xd6d1",
      "from": "0xe62ab4d111f968660c6b2188046f9b9ba53c4bae",
      "to": "0x957ebeecca9e712e335f99de34d0f46317283696",
      "contractAddress": null,
      "l1BaseFeeScalar": "0x44d",
      "l1BlobBaseFee": "0x1",
      "l1BlobBaseFeeScalar": "0xa118b",
      "l1Fee": "0x1069451976",
      "l1GasPrice": "0x665b09f0b",
      "l1GasUsed": "0x91a"
    },
    {
      "status": "0x1",
      "cumulativeGasUsed": "0x7d53f",
      "logs": [],
      "logsBloom": "0x00000000000000000000000000000000000000000000000000000000000000000000000000000000000000000000000000000000000000000000000000000000000000000000000000000000000000000000000000000000000000000000000000000000000000000000000000000000000000000000000000000000000000000000000000000000000000000000000000000000000000000000000000000000000000000000000000000000000000000000000000000000000000000000000000000000000000000000000000000000000000000000000000000000000000000000000000000000000000000000000000000000000000000000000000000000",
      "type": "0x2",
      "transactionHash": "0xfb86ad52d114c5aeff3d403b13c311c3d51ee36c0c702b7b50ec1ce3b41f0d99",
      "transactionIndex": "0x6",
      "blockHash": "0xd2a45adb439dffddf6fe2189e991af5f08289b506653d71b2828bb7531c2f909",
      "blockNumber": "0x114ed2a",
      "gasUsed": "0x1e3e0",
      "effectiveGasPrice": "0xd6d1",
      "from": "0xe62ab4d111f968660c6b2188046f9b9ba53c4bae",
      "to": "0x957ebeecca9e712e335f99de34d0f46317283696",
      "contractAddress": null,
      "l1BaseFeeScalar": "0x44d",
      "l1BlobBaseFee": "0x1",
      "l1BlobBaseFeeScalar": "0xa118b",
      "l1Fee": "0x11d0e5db7c",
      "l1GasPrice": "0x7110cd72a",
      "l1GasUsed": "0x8f1"
    },
    {
      "status": "0x1",
      "cumulativeGasUsed": "0x17e3a50",
      "logs": [],
      "logsBloom": "0x00000000000000000000000000000000000000000000000000000000000000000000000000000000000000000000000000000000000000000000000000000000000000000000000000000000000000000000000000000000000000000000000000000000000000000000000000000000000000000000000000000000000000000000000000000000000000000000000000000000000000000000000000000000000000000000000000000000000000000000000000000000000000000000000000000000000000000000000000000000000000000000000000000000000000000000000000000000000000000000000000000000000000000000000000000000",
      "type": "0x2",
      "transactionHash": "0x7fbb9d5542a3d73945defabb3fe491ef0455f612942762f66dbeeb28d3aa39f1",
      "transactionIndex": "0x6",
      "blockHash": "0x5ddd753a889db2e48d45c98ade0840e919d839a3433899bb823ce6e4e4e29559",
      "blockNumber": "0x114ed2e",
      "gasUsed": "0x1ecf8",
      "effectiveGasPrice": "0xd6d1",
      "from": "0xe62ab4d111f968660c6b2188046f9b9ba53c4bae",
      "to": "0x957ebeecca9e712e335f99de34d0f46317283696",
      "contractAddress": null,
      "l1BaseFeeScalar": "0x44d",
      "l1BlobBaseFee": "0x1",
      "l1BlobBaseFeeScalar": "0xa118b",
      "l1Fee": "0x1243dbc32b",
      "l1GasPrice": "0x709fc9dc1",
      "l1GasUsed": "0x934"
    },
    {
      "status": "0x1",
      "cumulativeGasUsed": "0x1d5b0c",
      "logs": [],
      "logsBloom": "0x00000000000000000000000000000000000000000000000000000000000000000000000000000000000000000000000000000000000000000000000000000000000000000000000000000000000000000000000000000000000000000000000000000000000000000000000000000000000000000000000000000000000000000000000000000000000000000000000000000000000000000000000000000000000000000000000000000000000000000000000000000000000000000000000000000000000000000000000000000000000000000000000000000000000000000000000000000000000000000000000000000000000000000000000000000000",
      "type": "0x2",
      "transactionHash": "0x9bee3312a1b21634c82d152e25f9e3dfb1c29dad407f92afa0cc860dc61360c4",
      "transactionIndex": "0x2",
      "blockHash": "0x22f14174b029f67635afd2bf2b6c2bd376ceeea3d466e9f0aa6db499837d1f50",
      "blockNumber": "0x114ed31",
      "gasUsed": "0x7b6b7",
      "effectiveGasPrice": "0xd6d4",
      "from": "0xe62ab4d111f968660c6b2188046f9b9ba53c4bae",
      "to": "0x7635a9b23275892ac46479b7ead9831a80171ace",
      "contractAddress": null,
      "l1BaseFeeScalar": "0x44d",
      "l1BlobBaseFee": "0x1",
      "l1BlobBaseFeeScalar": "0xa118b",
      "l1Fee": "0x262e2aa2de",
      "l1GasPrice": "0x709fc9dc1",
      "l1GasUsed": "0x133e"
    },
    {
      "status": "0x1",
      "cumulativeGasUsed": "0xb0ef23",
      "logs": [],
      "logsBloom": "0x00000000000000000000000000000000000000000000000000000000000000000000000000000000000000000000000000000000000000000000000000000000000000000000000000000000000000000000000000000000000000000000000000000000000000000000000000000000000000000000000000000000000000000000000000000000000000000000000000000000000000000000000000000000000000000000000000000000000000000000000000000000000000000000000000000000000000000000000000000000000000000000000000000000000000000000000000000000000000000000000000000000000000000000000000000000",
      "type": "0x2",
      "transactionHash": "0xbeb41026f7f12f5b6ce20df9ea1e1c341122f564d118fb5a7ef982c08c4fe93a",
      "transactionIndex": "0x5",
      "blockHash": "0x130bdecd6766b3910bc9706905565c30bf54595d2783300496ba8e4779f0dd7b",
      "blockNumber": "0x114ed35",
      "gasUsed": "0x9bd71",
      "effectiveGasPrice": "0xd6d4",
      "from": "0xe62ab4d111f968660c6b2188046f9b9ba53c4bae",
      "to": "0x7635a9b23275892ac46479b7ead9831a80171ace",
      "contractAddress": null,
      "l1BaseFeeScalar": "0x44d",
      "l1BlobBaseFee": "0x1",
      "l1BlobBaseFeeScalar": "0xa118b",
      "l1Fee": "0x2f9e8d5a39",
      "l1GasPrice": "0x709fc9dc1",
      "l1GasUsed": "0x1800"
    },
    {
      "status": "0x1",
      "cumulativeGasUsed": "0x121378",
      "logs": [],
      "logsBloom": "0x00000000000000000000000000000000000000000000000000000000000000000000000000000000000000000000000000000000000000000000000000000000000000000000000000000000000000000000000000000000000000000000000000000000000000000000000000000000000000000000000000000000000000000000000000000000000000000000000000000000000000000000000000000000000000000000000000000000000000000000000000000000000000000000000000000000000000000000000000000000000000000000000000000000000000000000000000000000000000000000000000000000000000000000000000000000",
      "type": "0x2",
      "transactionHash": "0x2399e9921d279cfda4b46e039e09ddff4676beba4371156128566b45c37ecb5f",
      "transactionIndex": "0x6",
      "blockHash": "0x276ca5ad0f46f600024ceafbb3433f518e54101de5fe387d849b2b7a35667cb4",
      "blockNumber": "0x114ed39",
      "gasUsed": "0x9b806",
      "effectiveGasPrice": "0xd6d5",
      "from": "0xe62ab4d111f968660c6b2188046f9b9ba53c4bae",
      "to": "0x7635a9b23275892ac46479b7ead9831a80171ace",
      "contractAddress": null,
      "l1BaseFeeScalar": "0x44d",
      "l1BlobBaseFee": "0x1",
      "l1BlobBaseFeeScalar": "0xa118b",
      "l1Fee": "0x2f9e8d5a39",
      "l1GasPrice": "0x709fc9dc1",
      "l1GasUsed": "0x1800"
    }
  ],
  "libraries": [],
  "pending": [],
  "returns": {},
  "timestamp": 1732065622,
  "chain": 84532,
  "commit": "4b2e1f8c"
}