{
  "transactions": [
    {
      "hash": "0x8190b60aec2cb57945cf69d8d70bc62141e4c353cbc9c6201195a7db1ea8c6df",
      "transactionType": "CALL",
      "contractName": "FeeManager",
      "contractAddress": "0xcbf4e5fda887e602e5132fa800d74154dfb5b237",
      "function": "getFeeTokenList()",
      "arguments": [],
      "transaction": {
        "from": "0xe62ab4d111f968660c6b2188046f9b9ba53c4bae",
        "to": "0xcbf4e5fda887e602e5132fa800d74154dfb5b237",
        "gas": "0x8a7e",
        "value": "0x0",
        "input": "0xe28ab277",
        "nonce": "0x114",
        "chainId": "0x14a34"
      },
      "additionalContracts": [],
      "isFixedGasLimit": false
    },
    {
      "hash": "0x0867d995b057c56a642d9c7b7d6974eb31df255255261745feb685cc8a5a11d9",
      "transactionType": "CALL",
      "contractName": "FeeManager",
      "contractAddress": "0xcbf4e5fda887e602e5132fa800d74154dfb5b237",
      "function": "addFeeToken(string)",
      "arguments": [
        "0x6a4dbc971533ba36bdc23ad70f5a7a12e064f4ae"
      ],
      "transaction": {
        "from": "0xe62ab4d111f968660c6b2188046f9b9ba53c4bae",
        "to": "0xcbf4e5fda887e602e5132fa800d74154dfb5b237",
        "gas": "0x2696b",
        "value": "0x0",
        "input": "0x12a6385f0000000000000000000000000000000000000000000000000000000000000020000000000000000000000000000000000000000000000000000000000000002a30783661346462633937313533336261333662646332336164373066356137613132653036346634616500000000000000000000000000000000000000000000",
        "nonce": "0x115",
        "chainId": "0x14a34"
      },
      "additionalContracts": [],
      "isFixedGasLimit": false
    },
    {
      "hash": "0x1cbc78e6b30d4f84ff76b0f754e3939a995f30a96bce1a9bdea3ceaed3ecf9ac",
      "transactionType": "CALL",
      "contractName": "FeeManager",
      "contractAddress": "0xcbf4e5fda887e602e5132fa800d74154dfb5b237",
      "function": "setFeeMultiplier(uint8,uint256)",
      "arguments": [
        "0",
        "2"
      ],
      "transaction": {
        "from": "0xe62ab4d111f968660c6b2188046f9b9ba53c4bae",
        "to": "0xcbf4e5fda887e602e5132fa800d74154dfb5b237",
        "gas": "0x112e8",
        "value": "0x0",
        "input": "0x0ee24eb500000000000000000000000000000000000000000000000000000000000000000000000000000000000000000000000000000000000000000000000000000002",
        "nonce": "0x116",
        "chainId": "0x14a34"
      },
      "additionalContracts": [],
      "isFixedGasLimit": false
    },
    {
      "hash": "0xc66aee5df81f37a88fdab6e727f4e1b6ef3cf64bb0a3ec6fba405397f722315b",
      "transactionType": "CALL",
      "contractName": "FeeManager",
      "contractAddress": "0xcbf4e5fda887e602e5132fa800d74154dfb5b237",
      "function": "setFeeMultiplier(uint8,uint256)",
      "arguments": [
        "1",
        "10"
      ],
      "transaction": {
        "from": "0xe62ab4d111f968660c6b2188046f9b9ba53c4bae",
        "to": "0xcbf4e5fda887e602e5132fa800d74154dfb5b237",
        "gas": "0x11324",
        "value": "0x0",
        "input": "0x0ee24eb50000000000000000000000000000000000000000000000000000000000000001000000000000000000000000000000000000000000000000000000000000000a",
        "nonce": "0x117",
        "chainId": "0x14a34"
      },
      "additionalContracts": [],
      "isFixedGasLimit": false
    },
    {
      "hash": "0x601205225620475ea1ac80091f3a98d957580d6c838b6ed7a7739a0adfcc594f",
      "transactionType": "CALL",
      "contractName": "FeeManager",
      "contractAddress": "0xcbf4e5fda887e602e5132fa800d74154dfb5b237",
      "function": "setFeeMultiplier(uint8,uint256)",
      "arguments": [
        "2",
        "1"
      ],
      "transaction": {
        "from": "0xe62ab4d111f968660c6b2188046f9b9ba53c4bae",
        "to": "0xcbf4e5fda887e602e5132fa800d74154dfb5b237",
        "gas": "0x11346",
        "value": "0x0",
        "input": "0x0ee24eb500000000000000000000000000000000000000000000000000000000000000020000000000000000000000000000000000000000000000000000000000000001",
        "nonce": "0x118",
        "chainId": "0x14a34"
      },
      "additionalContracts": [],
      "isFixedGasLimit": false
    },
    {
      "hash": "0x19e8307efec14f2129911b2fe57d67740ce4288f98dcd18b9642f1e57f9ba0d3",
      "transactionType": "CALL",
      "contractName": "FeeManager",
      "contractAddress": "0xcbf4e5fda887e602e5132fa800d74154dfb5b237",
      "function": "setFeeMultiplier(uint8,uint256)",
      "arguments": [
        "3",
        "4"
      ],
      "transaction": {
        "from": "0xe62ab4d111f968660c6b2188046f9b9ba53c4bae",
        "to": "0xcbf4e5fda887e602e5132fa800d74154dfb5b237",
        "gas": "0x1041b",
        "value": "0x0",
        "input": "0x0ee24eb500000000000000000000000000000000000000000000000000000000000000030000000000000000000000000000000000000000000000000000000000000004",
        "nonce": "0x119",
        "chainId": "0x14a34"
      },
      "additionalContracts": [],
      "isFixedGasLimit": false
    },
    {
      "hash": "0x48057017fd6f73025080cf2a983a5a824eebf663f046b413cbabf81f7eceb798",
      "transactionType": "CALL",
      "contractName": "FeeManager",
      "contractAddress": "0xcbf4e5fda887e602e5132fa800d74154dfb5b237",
      "function": "setFeeMultiplier(uint8,uint256)",
      "arguments": [
        "4",
        "4"
      ],
      "transaction": {
        "from": "0xe62ab4d111f968660c6b2188046f9b9ba53c4bae",
        "to": "0xcbf4e5fda887e602e5132fa800d74154dfb5b237",
        "gas": "0x1043a",
        "value": "0x0",
        "input": "0x0ee24eb500000000000000000000000000000000000000000000000000000000000000040000000000000000000000000000000000000000000000000000000000000004",
        "nonce": "0x11a",
        "chainId": "0x14a34"
      },
      "additionalContracts": [],
      "isFixedGasLimit": false
    },
    {
      "hash": "0x5f65da8496bc9d0ae4ab6a276369b4a81107694bc6f101bcf23c16f231569b00",
      "transactionType": "CALL",
      "contractName": "FeeManager",
      "contractAddress": "0xcbf4e5fda887e602e5132fa800d74154dfb5b237",
      "function": "setFeeMultiplier(uint8,uint256)",
      "arguments": [
        "5",
        "8"
      ],
      "transaction": {
        "from": "0xe62ab4d111f968660c6b2188046f9b9ba53c4bae",
        "to": "0xcbf4e5fda887e602e5132fa800d74154dfb5b237",
        "gas": "0x10459",
        "value": "0x0",
        "input": "0x0ee24eb500000000000000000000000000000000000000000000000000000000000000050000000000000000000000000000000000000000000000000000000000000008",
        "nonce": "0x11b",
        "chainId": "0x14a34"
      },
      "additionalContracts": [],
      "isFixedGasLimit": false
    },
    {
      "hash": "0x7f2d2d6ceb990597165028009409bac8f7ddc770009d812e0723fb9c0eb1a3d7",
      "transactionType": "CALL",
      "contractName": "FeeManager",
      "contractAddress": "0xcbf4e5fda887e602e5132fa800d74154dfb5b237",
      "function": "setFeeMultiplier(uint8,uint256)",
      "arguments": [
        "6",
        "4"
      ],
      "transaction": {
        "from": "0xe62ab4d111f968660c6b2188046f9b9ba53c4bae",
        "to": "0xcbf4e5fda887e602e5132fa800d74154dfb5b237",
        "gas": "0x10473",
        "value": "0x0",
        "input": "0x0ee24eb500000000000000000000000000000000000000000000000000000000000000060000000000000000000000000000000000000000000000000000000000000004",
        "nonce": "0x11c",
        "chainId": "0x14a34"
      },
      "additionalContracts": [],
      "isFixedGasLimit": false
    },
    {
      "hash": "0x12cc243d80de3cb686e4e4200b836af2f0c53c3b9c690ed25923b46ecbf3354f",
      "transactionType": "CALL",
      "contractName": "FeeManager",
      "contractAddress": "0xcbf4e5fda887e602e5132fa800d74154dfb5b237",
      "function": "addFeeToken(string,string[],uint256[])",
      "arguments": [
        "421614",
        "[0x6a4dbc971533ba36bdc23ad70f5a7a12e064f4ae]",
        "[1000]"
      ],
      "transaction": {
        "from": "0xe62ab4d111f968660c6b2188046f9b9ba53c4bae",
        "to": "0xcbf4e5fda887e602e5132fa800d74154dfb5b237",
        "gas": "0x2f642",
        "value": "0x0",
        "input": "0x437bf84f000000000000000000000000000000000000000000000000000000000000006000000000000000000000000000000000000000000000000000000000000000a000000000000000000000000000000000000000000000000000000000000001400000000000000000000000000000000000000000000000000000000000000006343231363134000000000000000000000000000000000000000000000000000000000000000000000000000000000000000000000000000000000000000000010000000000000000000000000000000000000000000000000000000000000020000000000000000000000000000000000000000000000000000000000000002a30783661346462633937313533336261333662646332336164373066356137613132653036346634616500000000000000000000000000000000000000000000000000000000000000000000000000000000000000000000000000000000000100000000000000000000000000000000000000000000000000000000000003e8",
        "nonce": "0x11d",
        "chainId": "0x14a34"
      },
      "additionalContracts": [],
      "isFixedGasLimit": false
    },
    {
      "hash": "0xef972b117e8a81ca6c9b6c4d8f3657e5cfa8944bd067864ab3075a1c983e306f",
      "transactionType": "CALL",
      "contractName": "FeeManager",
      "contractAddress": "0xcbf4e5fda887e602e5132fa800d74154dfb5b237",
      "function": "addFeeToken(string,string[],uint256[])",
      "arguments": [
        "80002",
        "[0x6a4dbc971533ba36bdc23ad70f5a7a12e064f4ae]",
        "[1000]"
      ],
      "transaction": {
        "from": "0xe62ab4d111f968660c6b2188046f9b9ba53c4bae",
        "to": "0xcbf4e5fda887e602e5132fa800d74154dfb5b237",
        "gas": "0x2a2b1",
        "value": "0x0",
        "input": "0x437bf84f000000000000000000000000000000000000000000000000000000000000006000000000000000000000000000000000000000000000000000000000000000a000000000000000000000000000000000000000000000000000000000000001400000000000000000000000000000000000000000000000000000000000000005383030303200000000000000000000000000000000000000000000000000000000000000000000000000000000000000000000000000000000000000000000010000000000000000000000000000000000000000000000000000000000000020000000000000000000000000000000000000000000000000000000000000002a30783661346462633937313533336261333662646332336164373066356137613132653036346634616500000000000000000000000000000000000000000000000000000000000000000000000000000000000000000000000000000000000100000000000000000000000000000000000000000000000000000000000003e8",
        "nonce": "0x11e",
        "chainId": "0x14a34"
      },
      "additionalContracts": [],
      "isFixedGasLimit": false
    },
    {
      "hash": "0x549f6603cb83377f35f26aaaa9583254cb261c950f4f77661eb3410f177549d8",
      "transactionType": "CALL",
      "contractName": "FeeManager",
      "contractAddress": "0xcbf4e5fda887e602e5132fa800d74154dfb5b237",
      "function": "addFeeToken(string,string[],uint256[])",
      "arguments": [
        "84532",
        "[0x6a4dbc971533ba36bdc23ad70f5a7a12e064f4ae]",
        "[1000]"
      ],
      "transaction": {
        "from": "0xe62ab4d111f968660c6b2188046f9b9ba53c4bae",
        "to": "0xcbf4e5fda887e602e5132fa800d74154dfb5b237",
        "gas": "0x2a2b1",
        "value": "0x0",
        "input": "0x437bf84f000000000000000000000000000000000000000000000000000000000000006000000000000000000000000000000000000000000000000000000000000000a000000000000000000000000000000000000000000000000000000000000001400000000000000000000000000000000000000000000000000000000000000005383435333200000000000000000000000000000000000000000000000000000000000000000000000000000000000000000000000000000000000000000000010000000000000000000000000000000000000000000000000000000000000020000000000000000000000000000000000000000000000000000000000000002a30783661346462633937313533336261333662646332336164373066356137613132653036346634616500000000000000000000000000000000000000000000000000000000000000000000000000000000000000000000000000000000000100000000000000000000000000000000000000000000000000000000000003e8",
        "nonce": "0x11f",
        "chainId": "0x14a34"
      },
      "additionalContracts": [],
      "isFixedGasLimit": false
    },
    {
      "hash": "0x2c350a538628b33e700ee0a518619e7b50ca092940d422c3b963b7c0454c1739",
      "transactionType": "CALL",
      "contractName": "FeeManager",
      "contractAddress": "0xcbf4e5fda887e602e5132fa800d74154dfb5b237",
      "function": "addFeeToken(string,string[],uint256[])",
      "arguments": [
        "97",
        "[0x6a4dbc971533ba36bdc23ad70f5a7a12e064f4ae]",
        "[1000]"
      ],
      "transaction": {
        "from": "0xe62ab4d111f968660c6b2188046f9b9ba53c4bae",
        "to": "0xcbf4e5fda887e602e5132fa800d74154dfb5b237",
        "gas": "0x29c69",
        "value": "0x0",
        "input": "0x437bf84f000000000000000000000000000000000000000000000000000000000000006000000000000000000000000000000000000000000000000000000000000000a000000000000000000000000000000000000000000000000000000000000001400000000000000000000000000000000000000000000000000000000000000002393700000000000000000000000000000000000000000000000000000000000000000000000000000000000000000000000000000000000000000000000000010000000000000000000000000000000000000000000000000000000000000020000000000000000000000000000000000000000000000000000000000000002a30783661346462633937313533336261333662646332336164373066356137613132653036346634616500000000000000000000000000000000000000000000000000000000000000000000000000000000000000000000000000000000000100000000000000000000000000000000000000000000000000000000000003e8",
        "nonce": "0x120",
        "chainId": "0x14a34"
      },
      "additionalContracts": [],
      "isFixedGasLimit": false
    },
    {
      "hash": "0xf0a71454e36fa34b17e57260156f3ada26a7219fa41c714ccc62b0588d02b1c0",
      "transactionType": "CALL",
      "contractName": "FeeManager",
      "contractAddress": "0xcbf4e5fda887e602e5132fa800d74154dfb5b237",
      "function": "addFeeToken(string,string[],uint256[])",
      "arguments": [
        "11155111",
        "[0x6a4dbc971533ba36bdc23ad70f5a7a12e064f4ae]",
        "[1000]"
      ],
      "transaction": {
        "from": "0xe62ab4d111f968660c6b2188046f9b9ba53c4bae",
        "to": "0xcbf4e5fda887e602e5132fa800d74154dfb5b237",
        "gas": "0x2a8fa",
        "value": "0x0",
        "input": "0x437bf84f000000000000000000000000000000000000000000000000000000000000006000000000000000000000000000000000000000000000000000000000000000a000000000000000000000000000000000000000000000000000000000000001400000000000000000000000000000000000000000000000000000000000000008313131353531313100000000000000000000000000000000000000000000000000000000000000000000000000000000000000000000000000000000000000010000000000000000000000000000000000000000000000000000000000000020000000000000000000000000000000000000000000000000000000000000002a30783661346462633937313533336261333662646332336164373066356137613132653036346634616500000000000000000000000000000000000000000000000000000000000000000000000000000000000000000000000000000000000100000000000000000000000000000000000000000000000000000000000003e8",
        "nonce": "0x121",
        "chainId": "0x14a34"
      },
      "additionalContracts": [],
      "isFixedGasLimit": false
    },
    {
      "hash": "0x6460b206878e43a02edcd672e2cb669686e06bc2244c267287fe705da2987435",
      "transactionType": "CALL",
      "contractName": "CTMRWAGateway",
      "contractAddress": "0x8b8de69a9cbca6b7cb85406dde46116dd520d5b0",
      "function": "addChainContract(string[],string[])",
      "arguments": [
        "[421614, 80002, 97, 11155111]",
        "[0x82c7cf3ad2a7c6ea732c131e552ad171d190421e, 0xb75a2833405907508bd5f8dea3a24fa537d9c85c, 0x291e038ef58dcfdf020e0bbea0c9a36713db7966, 0xf1a79c24eff78ffffbd4f8df0ce31adec284b9cf]"
      ],
      "transaction": {
        "from": "0xe62ab4d111f968660c6b2188046f9b9ba53c4bae",
        "to": "0x8b8de69a9cbca6b7cb85406dde46116dd520d5b0",
        "gas": "0xb49d1",
        "value": "0x0",
        "input": "0x013fd3bd000000000000000000000000000000000000000000000000000000000000004000000000000000000000000000000000000000000000000000000000000001e00000000000000000000000000000000000000000000000000000000000000004000000000000000000000000000000000000000000000000000000000000008000000000000000000000000000000000000000000000000000000000000000c000000000000000000000000000000000000000000000000000000000000001000000000000000000000000000000000000000000000000000000000000000140000000000000000000000000000000000000000000000000000000000000000634323136313400000000000000000000000000000000000000000000000000000000000000000000000000000000000000000000000000000000000000000005383030303200000000000000000000000000000000000000000000000000000000000000000000000000000000000000000000000000000000000000000000023937000000000000000000000000000000000000000000000000000000000000000000000000000000000000000000000000000000000000000000000000000831313135353131310000000000000000000000000000000000000000000000000000000000000000000000000000000000000000000000000000000000000004000000000000000000000000000000000000000000000000000000000000008000000000000000000000000000000000000000000000000000000000000000e0000000000000000000000000000000000000000000000000000000000000014000000000000000000000000000000000000000000000000000000000000001a0000000000000000000000000000000000000000000000000000000000000002a30783832633763663361643261376336656137333263313331653535326164313731643139303432316500000000000000000000000000000000000000000000000000000000000000000000000000000000000000000000000000000000002a30786237356132383333343035393037353038626435663864656133613234666135333764396338356300000000000000000000000000000000000000000000000000000000000000000000000000000000000000000000000000000000002a30783239316530333865663538646366646630323065306262656130633961333637313364623739363600000000000000000000000000000000000000000000000000000000000000000000000000000000000000000000000000000000002a30786631613739633234656666373866666666626434663864663063653331616465633238346239636600000000000000000000000000000000000000000000",
        "nonce": "0x122",
        "chainId": "0x14a34"
      },
      "additionalContracts": [],
      "isFixedGasLimit": false
    },
    {
      "hash": "0x40bb09a7bd9e3639d88cf4dd830cf16dc38a47012b42fcfd8f5033196e986732",
      "transactionType": "CALL",
      "contractName": "CTMRWAGateway",
      "contractAddress": "0x8b8de69a9cbca6b7cb85406dde46116dd520d5b0",
      "function": "attachRWAX(uint256,uint256,string[],string[])",
      "arguments": [
        "1",
        "1",
        "[84532, 421614, 80002, 97, 11155111]",
        "[0x24da0f2114b682d01234bc9e103ff7eebf86ae6a, 0x6f2f79720c81631d3a0fe8e19c96f3cebd56519a, 0x74da08abcb64a66370e9c1609771e68aafede27b, 0x4328bf65bc8c69067a03d0fbde94ca1e24ed966c, 0x2be0c4ac75784737d4d0e75c4026d4bc671b938e]"
      ],
      "transaction": {
        "from": "0xe62ab4d111f968660c6b2188046f9b9ba53c4bae",
        "to": "0x8b8de69a9cbca6b7cb85406dde46116dd520d5b0",
        "gas": "0xd737f",
        "value": "0x0",
        "input": "0x33a5f5b40000000000000000000000000000000000000000000000000000000000000001000000000000000000000000000000000000000000000000000000000000000100000000000000000000000000000000000000000000000000000000000000800000000000000000000000000000000000000000000000000000000000000280000000000000000000000000000000000000000000000000000000000000000500000000000000000000000000000000000000000000000000000000000000a000000000000000000000000000000000000000000000000000000000000000e00000000000000000000000000000000000000000000000000000000000000120000000000000000000000000000000000000000000000000000000000000016000000000000000000000000000000000000000000000000000000000000001a00000000000000000000000000000000000000000000000000000000000000005383435333200000000000000000000000000000000000000000000000000000000000000000000000000000000000000000000000000000000000000000000063432313631340000000000000000000000000000000000000000000000000000000000000000000000000000000000000000000000000000000000000000000538303030320000000000000000000000000000000000000000000000000000000000000000000000000000000000000000000000000000000000000000000002393700000000000000000000000000000000000000000000000000000000000000000000000000000000000000000000000000000000000000000000000000083131313535313131000000000000000000000000000000000000000000000000000000000000000000000000000000000000000000000000000000000000000500000000000000000000000000000000000000000000000000000000000000a00000000000000000000000000000000000000000000000000000000000000100000000000000000000000000000000000000000000000000000000000000016000000000000000000000000000000000000000000000000000000000000001c00000000000000000000000000000000000000000000000000000000000000220000000000000000000000000000000000000000000000000000000000000002a30783234646130663231313462363832643031323334626339653130336666376565626638366165366100000000000000000000000000000000000000000000000000000000000000000000000000000000000000000000000000000000002a30783666326637393732306338313633316433613066653865313963393666336365626435363531396100000000000000000000000000000000000000000000000000000000000000000000000000000000000000000000000000000000002a30783734646130386162636236346136363337306539633136303937373165363861616665646532376200000000000000000000000000000000000000000000000000000000000000000000000000000000000000000000000000000000002a30783433323862663635626338633639303637613033643066626465393463613165323465643936366300000000000000000000000000000000000000000000000000000000000000000000000000000000000000000000000000000000002a30783262653063346163373537383437333764346430653735633430323664346263363731623933386500000000000000000000000000000000000000000000",
        "nonce": "0x123",
        "chainId": "0x14a34"
      },
      "additionalContracts": [],
      "isFixedGasLimit": false
    },
    {
      "hash": "0xd7f6cb16b5172b50f924476716575def74bf4c1c8c8eb4691d41bf91270b6f8c",
      "transactionType": "CALL",
      "contractName": "CTMRWAGateway",
      "contractAddress": "0x8b8de69a9cbca6b7cb85406dde46116dd520d5b0",
      "function": "attachStorageManager(uint256,uint256,string[],string[])",
      "arguments": [
        "1",
        "1",
        "[84532, 421614, 80002, 97, 11155111]",
        "[0x4fb3a28c53c88731d783610d0ff275b02bbf19e0, 0x6dd5666ef6b2e83d504c1ee586fb3c630abc7fd2, 0x44bd5b80fed6d6574d21f9b748d0b9a1d5566312, 0x6187ee058bb5b7db140cfd470a27ebe1f16d92b1, 0x8e36c2b1ac03d98fac0074c9e8e27023a3ce2206]"
      ],
      "transaction": {
        "from": "0xe62ab4d111f968660c6b2188046f9b9ba53c4bae",
        "to": "0x8b8de69a9cbca6b7cb85406dde46116dd520d5b0",
        "gas": "0xd723f",
        "value": "0x0",
        "input": "0x2f68b4890000000000000000000000000000000000000000000000000000000000000001000000000000000000000000000000000000000000000000000000000000000100000000000000000000000000000000000000000000000000000000000000800000000000000000000000000000000000000000000000000000000000000280000000000000000000000000000000000000000000000000000000000000000500000000000000000000000000000000000000000000000000000000000000a000000000000000000000000000000000000000000000000000000000000000e00000000000000000000000000000000000000000000000000000000000000120000000000000000000000000000000000000000000000000000000000000016000000000000000000000000000000000000000000000000000000000000001a00000000000000000000000000000000000000000000000000000000000000005383435333200000000000000000000000000000000000000000000000000000000000000000000000000000000000000000000000000000000000000000000063432313631340000000000000000000000000000000000000000000000000000000000000000000000000000000000000000000000000000000000000000000538303030320000000000000000000000000000000000000000000000000000000000000000000000000000000000000000000000000000000000000000000002393700000000000000000000000000000000000000000000000000000000000000000000000000000000000000000000000000000000000000000000000000083131313535313131000000000000000000000000000000000000000000000000000000000000000000000000000000000000000000000000000000000000000500000000000000000000000000000000000000000000000000000000000000a00000000000000000000000000000000000000000000000000000000000000100000000000000000000000000000000000000000000000000000000000000016000000000000000000000000000000000000000000000000000000000000001c00000000000000000000000000000000000000000000000000000000000000220000000000000000000000000000000000000000000000000000000000000002a30783466623361323863353363383837333164373833363130643066663237356230326262663139653000000000000000000000000000000000000000000000000000000000000000000000000000000000000000000000000000000000002a30783664643536363665663662326538336435303463316565353836666233633633306162633766643200000000000000000000000000000000000000000000000000000000000000000000000000000000000000000000000000000000002a30783434626435623830666564366436353734643231663962373438643062396131643535363633313200000000000000000000000000000000000000000000000000000000000000000000000000000000000000000000000000000000002a30783631383765653035386262356237646231343063666434373061323765626531663136643932623100000000000000000000000000000000000000000000000000000000000000000000000000000000000000000000000000000000002a30783865333663326231616330336439386661633030373463396538653237303233613363653232303600000000000000000000000000000000000000000000",
        "nonce": "0x124",
        "chainId": "0x14a34"
      },
      "additionalContracts": [],
      "isFixedGasLimit": false
    }
  ],
  "receipts": [
    {
      "status": "0x1",
      "cumulativeGasUsed": "0x605f2",
      "logs": [],
      "logsBloom": "0x00000000000000000000000000000000000000000000000000000000000000000000000000000000000000000000000000000000000000000000000000000000000000000000000000000000000000000000000000000000000000000000000000000000000000000000000000000000000000000000000000000000000000000000000000000000000000000000000000000000000000000000000000000000000000000000000000000000000000000000000000000000000000000000000000000000000000000000000000000000000000000000000000000000000000000000000000000000000000000000000000000000000000000000000000000000",
      "type": "0x2",
      "transactionHash": "0x8190b60aec2cb57945cf69d8d70bc62141e4c353cbc9c6201195a7db1ea8c6df",
      "transactionIndex": "0x5",
      "blockHash": "0x6fe0315cbceca61f0043ee014f1207e9e56c361af94ea85fb535916426ed30ec",
      "blockNumber": "0x10d7eed",
      "gasUsed": "0x5eb3",
      "effectiveGasPrice": "0xf4433",
      "from": "0xe62ab4d111f968660c6b2188046f9b9ba53c4bae",
      "to": "0xcbf4e5fda887e602e5132fa800d74154dfb5b237",
      "contractAddress": null,
      "l1BaseFeeScalar": "0x44d",
      "l1BlobBaseFee": "0x140",
      "l1BlobBaseFeeScalar": "0xa118b",
      "l1Fee": "0x1770918d1",
      "l1GasPrice": "0xd4e4e4d9",
      "l1GasUsed": "0x640"
    },
    {
      "status": "0x1",
      "cumulativeGasUsed": "0x37962d",
      "logs": [
        {
          "address": "0xcbf4e5fda887e602e5132fa800d74154dfb5b237",
          "topics": [
            "0x1394cfab38f3fc78ed77ea6f9318782a446d96e7dc8e9a6b0149f6be25c08bcf",
            "0x0000000000000000000000006a4dbc971533ba36bdc23ad70f5a7a12e064f4ae"
          ],
          "data": "0x",
          "blockHash": "0x3a94acf983fd081949891a5b131bb54fe68f89cd98a7fa64cce793bef9e51170",
          "blockNumber": "0x10d7ef1",
          "transactionHash": "0x0867d995b057c56a642d9c7b7d6974eb31df255255261745feb685cc8a5a11d9",
          "transactionIndex": "0xd",
          "logIndex": "0x2b",
          "removed": false
        }
      ],
      "logsBloom": "0x00000000002000000000000000000000000200000000000000000000000000000000000000000000000000000000000000000000000000001000000000000000000000000000000000000000000000000000001000000000000000000000000020000000000000000000000000000000000000000000000008000000000000000000000100000000000000000000000000000000000000000000000000000000000000000000000000000000000000000000000100000000000000000000000000000000000000000000000000000000000000002000000000000000000000000000000000000000000000000000000000000000000000000000000000000000",
      "type": "0x2",
      "transactionHash": "0x0867d995b057c56a642d9c7b7d6974eb31df255255261745feb685cc8a5a11d9",
      "transactionIndex": "0xd",
      "blockHash": "0x3a94acf983fd081949891a5b131bb54fe68f89cd98a7fa64cce793bef9e51170",
      "blockNumber": "0x10d7ef1",
      "gasUsed": "0x1bf00",
      "effectiveGasPrice": "0xf4435",
      "from": "0xe62ab4d111f968660c6b2188046f9b9ba53c4bae",
      "to": "0xcbf4e5fda887e602e5132fa800d74154dfb5b237",
      "contractAddress": null,
      "l1BaseFeeScalar": "0x44d",
      "l1BlobBaseFee": "0x140",
      "l1BlobBaseFeeScalar": "0xa118b",
      "l1Fee": "0x183a02db3",
      "l1GasPrice": "0xc724a640",
      "l1GasUsed": "0x6e7"
    },
    {
      "status": "0x1",
      "cumulativeGasUsed": "0x5a4e40",
      "logs": [],
      "logsBloom": "0x00000000000000000000000000000000000000000000000000000000000000000000000000000000000000000000000000000000000000000000000000000000000000000000000000000000000000000000000000000000000000000000000000000000000000000000000000000000000000000000000000000000000000000000000000000000000000000000000000000000000000000000000000000000000000000000000000000000000000000000000000000000000000000000000000000000000000000000000000000000000000000000000000000000000000000000000000000000000000000000000000000000000000000000000000000000",
      "type": "0x2",
      "transactionHash": "0x1cbc78e6b30d4f84ff76b0f754e3939a995f30a96bce1a9bdea3ceaed3ecf9ac",
      "transactionIndex": "0x1a",
      "blockHash": "0x15c17dcb9ffabe2d7cf60dfc43d3c3057859989b18a3cc0b06ef4ee9cde48bb9",
      "blockNumber": "0x10d7ef4",
      "gasUsed": "0xbbf9",
      "effectiveGasPrice": "0xf4435",
      "from": "0xe62ab4d111f968660c6b2188046f9b9ba53c4bae",
      "to": "0xcbf4e5fda887e602e5132fa800d74154dfb5b237",
      "contractAddress": null,
      "l1BaseFeeScalar": "0x44d",
      "l1BlobBaseFee": "0x14d",
      "l1BlobBaseFeeScalar": "0xa118b",
      "l1Fee": "0x14a0565fa",
      "l1GasPrice": "0xbb574704",
      "l1GasUsed": "0x640"
    },
    {
      "status": "0x1",
      "cumulativeGasUsed": "0x423680",
      "logs": [],
      "logsBloom": "0x00000000000000000000000000000000000000000000000000000000000000000000000000000000000000000000000000000000000000000000000000000000000000000000000000000000000000000000000000000000000000000000000000000000000000000000000000000000000000000000000000000000000000000000000000000000000000000000000000000000000000000000000000000000000000000000000000000000000000000000000000000000000000000000000000000000000000000000000000000000000000000000000000000000000000000000000000000000000000000000000000000000000000000000000000000000",
      "type": "0x2",
      "transactionHash": "0xc66aee5df81f37a88fdab6e727f4e1b6ef3cf64bb0a3ec6fba405397f722315b",
      "transactionIndex": "0xe",
      "blockHash": "0x0f74ffd97538f7e81dd245fc72160d14860f189a2bc8e1bf682f91d770a79bac",
      "blockNumber": "0x10d7ef8",
      "gasUsed": "0xbc22",
      "effectiveGasPrice": "0xf4436",
      "from": "0xe62ab4d111f968660c6b2188046f9b9ba53c4bae",
      "to": "0xcbf4e5fda887e602e5132fa800d74154dfb5b237",
      "contractAddress": null,
      "l1BaseFeeScalar": "0x44d",
      "l1BlobBaseFee": "0x14d",
      "l1BlobBaseFeeScalar": "0xa118b",
      "l1Fee": "0x14a0565fa",
      "l1GasPrice": "0xbb574704",
      "l1GasUsed": "0x640"
    },
    {
      "status": "0x1",
      "cumulativeGasUsed": "0x52b8ea",
      "logs": [],
      "logsBloom": "0x00000000000000000000000000000000000000000000000000000000000000000000000000000000000000000000000000000000000000000000000000000000000000000000000000000000000000000000000000000000000000000000000000000000000000000000000000000000000000000000000000000000000000000000000000000000000000000000000000000000000000000000000000000000000000000000000000000000000000000000000000000000000000000000000000000000000000000000000000000000000000000000000000000000000000000000000000000000000000000000000000000000000000000000000000000000",
      "type": "0x2",
      "transactionHash": "0x601205225620475ea1ac80091f3a98d957580d6c838b6ed7a7739a0adfcc594f",
      "transactionIndex": "0x17",
      "blockHash": "0x8eb2cd70738309ceb571f681d5d2ba7ab831bbfef6809b744acf8e371caf742f",
      "blockNumber": "0x10d7efc",
      "gasUsed": "0xbc39",
      "effectiveGasPrice": "0xf4436",
      "from": "0xe62ab4d111f968660c6b2188046f9b9ba53c4bae",
      "to": "0xcbf4e5fda887e602e5132fa800d74154dfb5b237",
      "contractAddress": null,
      "l1BaseFeeScalar": "0x44d",
      "l1BlobBaseFee": "0x15b",
      "l1BlobBaseFeeScalar": "0xa118b",
      "l1Fee": "0x1336231dc",
      "l1GasPrice": "0xae7d87e0",
      "l1GasUsed": "0x640"
    },
    {
      "status": "0x1",
      "cumulativeGasUsed": "0x4e8745",
      "logs": [],
      "logsBloom": "0x00000000000000000000000000000000000000000000000000000000000000000000000000000000000000000000000000000000000000000000000000000000000000000000000000000000000000000000000000000000000000000000000000000000000000000000000000000000000000000000000000000000000000000000000000000000000000000000000000000000000000000000000000000000000000000000000000000000000000000000000000000000000000000000000000000000000000000000000000000000000000000000000000000000000000000000000000000000000000000000000000000000000000000000000000000000",
      "type": "0x2",
      "transactionHash": "0x19e8307efec14f2129911b2fe57d67740ce4288f98dcd18b9642f1e57f9ba0d3",
      "transactionIndex": "0x18",
      "blockHash": "0x78a1082166fdbd500c94b947efa81bb7adccd19eb814c4477fc2dce025cb3656",
      "blockNumber": "0x10d7eff",
      "gasUsed": "0xbc50",
      "effectiveGasPrice": "0xf4436",
      "from": "0xe62ab4d111f968660c6b2188046f9b9ba53c4bae",
      "to": "0xcbf4e5fda887e602e5132fa800d74154dfb5b237",
      "contractAddress": null,
      "l1BaseFeeScalar": "0x44d",
      "l1BlobBaseFee": "0x15b",
      "l1BlobBaseFeeScalar": "0xa118b",
      "l1Fee": "0x1336231dc",
      "l1GasPrice": "0xae7d87e0",
      "l1GasUsed": "0x640"
    },
    {
      "status": "0x1",
      "cumulativeGasUsed": "0x4a3450",
      "logs": [],
      "logsBloom": "0x00000000000000000000000000000000000000000000000000000000000000000000000000000000000000000000000000000000000000000000000000000000000000000000000000000000000000000000000000000000000000000000000000000000000000000000000000000000000000000000000000000000000000000000000000000000000000000000000000000000000000000000000000000000000000000000000000000000000000000000000000000000000000000000000000000000000000000000000000000000000000000000000000000000000000000000000000000000000000000000000000000000000000000000000000000000",
      "type": "0x2",
      "transactionHash": "0x48057017fd6f73025080cf2a983a5a824eebf663f046b413cbabf81f7eceb798",
      "transactionIndex": "0x13",
      "blockHash": "0xe4857f2594d1b10c79918e30374048aad7ba5c53f52afbd329cb5c4a558c5250",
      "blockNumber": "0x10d7f03",
      "gasUsed": "0xbc67",
      "effectiveGasPrice": "0xf4438",
      "from": "0xe62ab4d111f968660c6b2188046f9b9ba53c4bae",
      "to": "0xcbf4e5fda887e602e5132fa800d74154dfb5b237",
      "contractAddress": null,
      "l1BaseFeeScalar": "0x44d",
      "l1BlobBaseFee": "0x140",
      "l1BlobBaseFeeScalar": "0xa118b",
      "l1Fee": "0x14d9d8586",
      "l1GasPrice": "0xbd619b77",
      "l1GasUsed": "0x640"
    },
    {
      "status": "0x1",
      "cumulativeGasUsed": "0x5abab",
      "logs": [],
      "logsBloom": "0x00000000000000000000000000000000000000000000000000000000000000000000000000000000000000000000000000000000000000000000000000000000000000000000000000000000000000000000000000000000000000000000000000000000000000000000000000000000000000000000000000000000000000000000000000000000000000000000000000000000000000000000000000000000000000000000000000000000000000000000000000000000000000000000000000000000000000000000000000000000000000000000000000000000000000000000000000000000000000000000000000000000000000000000000000000000",
      "type": "0x2",
      "transactionHash": "0x5f65da8496bc9d0ae4ab6a276369b4a81107694bc6f101bcf23c16f231569b00",
      "transactionIndex": "0x7",
      "blockHash": "0x510595cd4dd4adf0782641d0c19b0aa72a09e248f613f723d8435ded753eca66",
      "blockNumber": "0x10d7f07",
      "gasUsed": "0xbc7e",
      "effectiveGasPrice": "0xf443c",
      "from": "0xe62ab4d111f968660c6b2188046f9b9ba53c4bae",
      "to": "0xcbf4e5fda887e602e5132fa800d74154dfb5b237",
      "contractAddress": null,
      "l1BaseFeeScalar": "0x44d",
      "l1BlobBaseFee": "0x128",
      "l1BlobBaseFeeScalar": "0xa118b",
      "l1Fee": "0x15d5065a5",
      "l1GasPrice": "0xc64affbe",
      "l1GasUsed": "0x640"
    },
    {
      "status": "0x1",
      "cumulativeGasUsed": "0x23cd67",
      "logs": [],
      "logsBloom": "0x00000000000000000000000000000000000000000000000000000000000000000000000000000000000000000000000000000000000000000000000000000000000000000000000000000000000000000000000000000000000000000000000000000000000000000000000000000000000000000000000000000000000000000000000000000000000000000000000000000000000000000000000000000000000000000000000000000000000000000000000000000000000000000000000000000000000000000000000000000000000000000000000000000000000000000000000000000000000000000000000000000000000000000000000000000000",
      "type": "0x2",
      "transactionHash": "0x7f2d2d6ceb990597165028009409bac8f7ddc770009d812e0723fb9c0eb1a3d7",
      "transactionIndex": "0xa",
      "blockHash": "0xc31379ba3e787c425065e01aac88e4489e75c57106d245736c3669a9ab0cd4a5",
      "blockNumber": "0x10d7f0a",
      "gasUsed": "0xbc90",
      "effectiveGasPrice": "0xf443d",
      "from": "0xe62ab4d111f968660c6b2188046f9b9ba53c4bae",
      "to": "0xcbf4e5fda887e602e5132fa800d74154dfb5b237",
      "contractAddress": null,
      "l1BaseFeeScalar": "0x44d",
      "l1BlobBaseFee": "0x128",
      "l1BlobBaseFeeScalar": "0xa118b",
      "l1Fee": "0x15d5065a5",
      "l1GasPrice": "0xc64affbe",
      "l1GasUsed": "0x640"
    },
    {
      "status": "0x1",
      "cumulativeGasUsed": "0x325059",
      "logs": [],
      "logsBloom": "0x00000000000000000000000000000000000000000000000000000000000000000000000000000000000000000000000000000000000000000000000000000000000000000000000000000000000000000000000000000000000000000000000000000000000000000000000000000000000000000000000000000000000000000000000000000000000000000000000000000000000000000000000000000000000000000000000000000000000000000000000000000000000000000000000000000000000000000000000000000000000000000000000000000000000000000000000000000000000000000000000000000000000000000000000000000000",
      "type": "0x2",
      "transactionHash": "0x12cc243d80de3cb686e4e4200b836af2f0c53c3b9c690ed25923b46ecbf3354f",
      "transactionIndex": "0xd",
      "blockHash": "0xb3c2af05da9a897716c27bc545cd1d557bd733d2561d8fd4bbf2d8f1b221375b",
      "blockNumber": "0x10d7f0e",
      "gasUsed": "0x224f8",
      "effectiveGasPrice": "0xf4440",
      "from": "0xe62ab4d111f968660c6b2188046f9b9ba53c4bae",
      "to": "0xcbf4e5fda887e602e5132fa800d74154dfb5b237",
      "contractAddress": null,
      "l1BaseFeeScalar": "0x44d",
      "l1BlobBaseFee": "0x128",
      "l1BlobBaseFeeScalar": "0xa118b",
      "l1Fee": "0x208621e1a",
      "l1GasPrice": "0xc64affbe",
      "l1GasUsed": "0x94f"
    },
    {
      "status": "0x1",
      "cumulativeGasUsed": "0x791397",
      "logs": [],
      "logsBloom": "0x00000000000000000000000000000000000000000000000000000000000000000000000000000000000000000000000000000000000000000000000000000000000000000000000000000000000000000000000000000000000000000000000000000000000000000000000000000000000000000000000000000000000000000000000000000000000000000000000000000000000000000000000000000000000000000000000000000000000000000000000000000000000000000000000000000000000000000000000000000000000000000000000000000000000000000000000000000000000000000000000000000000000000000000000000000000",
      "type": "0x2",
      "transactionHash": "0xef972b117e8a81ca6c9b6c4d8f3657e5cfa8944bd067864ab3075a1c983e306f",
      "transactionIndex": "0x11",
      "blockHash": "0x400abb4e1a48e6172392259444d905642699602f151329a8645cc503db15cca9",
      "blockNumber": "0x10d7f11",
      "gasUsed": "0x1e878",
      "effectiveGasPrice": "0xf4440",
      "from": "0xe62ab4d111f968660c6b2188046f9b9ba53c4bae",
      "to": "0xcbf4e5fda887e602e5132fa800d74154dfb5b237",
      "contractAddress": null,
      "l1BaseFeeScalar": "0x44d",
      "l1BlobBaseFee": "0x128",
      "l1BlobBaseFeeScalar": "0xa118b",
      "l1Fee": "0x20576151f",
      "l1GasPrice": "0xc64affbe",
      "l1GasUsed": "0x942"
    },
    {
      "status": "0x1",
      "cumulativeGasUsed": "0x511edf",
      "logs": [],
      "logsBloom": "0x00000000000000000000000000000000000000000000000000000000000000000000000000000000000000000000000000000000000000000000000000000000000000000000000000000000000000000000000000000000000000000000000000000000000000000000000000000000000000000000000000000000000000000000000000000000000000000000000000000000000000000000000000000000000000000000000000000000000000000000000000000000000000000000000000000000000000000000000000000000000000000000000000000000000000000000000000000000000000000000000000000000000000000000000000000000",
      "type": "0x2",
      "transactionHash": "0x549f6603cb83377f35f26aaaa9583254cb261c950f4f77661eb3410f177549d8",
      "transactionIndex": "0x11",
      "blockHash": "0x5c8940ee837e8cf070f7af05b1d78bf04f1fee704566d5d1149d29bfb126a3b1",
      "blockNumber": "0x10d7f15",
      "gasUsed": "0x1e878",
      "effectiveGasPrice": "0xf4441",
      "from": "0xe62ab4d111f968660c6b2188046f9b9ba53c4bae",
      "to": "0xcbf4e5fda887e602e5132fa800d74154dfb5b237",
      "contractAddress": null,
      "l1BaseFeeScalar": "0x44d",
      "l1BlobBaseFee": "0x14d",
      "l1BlobBaseFeeScalar": "0xa118b",
      "l1Fee": "0x209bb2900",
      "l1GasPrice": "0xc7edd9b5",
      "l1GasUsed": "0x942"
    },
    {
      "status": "0x1",
      "cumulativeGasUsed": "0x3994c5",
      "logs": [],
      "logsBloom": "0x00000000000000000000000000000000000000000000000000000000000000000000000000000000000000000000000000000000000000000000000000000000000000000000000000000000000000000000000000000000000000000000000000000000000000000000000000000000000000000000000000000000000000000000000000000000000000000000000000000000000000000000000000000000000000000000000000000000000000000000000000000000000000000000000000000000000000000000000000000000000000000000000000000000000000000000000000000000000000000000000000000000000000000000000000000000",
      "type": "0x2",
      "transactionHash": "0x2c350a538628b33e700ee0a518619e7b50ca092940d422c3b963b7c0454c1739",
      "transactionIndex": "0xa",
      "blockHash": "0xf7eb98483950b08b844df564b379b16075ec02ad8a5f0d36b7238d0d3fd18e32",
      "blockNumber": "0x10d7f19",
      "gasUsed": "0x1e3ec",
      "effectiveGasPrice": "0xf4443",
      "from": "0xe62ab4d111f968660c6b2188046f9b9ba53c4bae",
      "to": "0xcbf4e5fda887e602e5132fa800d74154dfb5b237",
      "contractAddress": null,
      "l1BaseFeeScalar": "0x44d",
      "l1BlobBaseFee": "0x140",
      "l1BlobBaseFeeScalar": "0xa118b",
      "l1Fee": "0x1f0d9b660",
      "l1GasPrice": "0xc1acfbb5",
      "l1GasUsed": "0x91a"
    },
    {
      "status": "0x1",
      "cumulativeGasUsed": "0x4749e7",
      "logs": [],
      "logsBloom": "0x00000000000000000000000000000000000000000000000000000000000000000000000000000000000000000000000000000000000000000000000000000000000000000000000000000000000000000000000000000000000000000000000000000000000000000000000000000000000000000000000000000000000000000000000000000000000000000000000000000000000000000000000000000000000000000000000000000000000000000000000000000000000000000000000000000000000000000000000000000000000000000000000000000000000000000000000000000000000000000000000000000000000000000000000000000000",
      "type": "0x2",
      "transactionHash": "0xf0a71454e36fa34b17e57260156f3ada26a7219fa41c714ccc62b0588d02b1c0",
      "transactionIndex": "0x13",
      "blockHash": "0x4a8079a507ea1ccf9bf4a48cf5820c78e316e9653541a6cd9fc76be05a4b9dd9",
      "blockNumber": "0x10d7f1c",
      "gasUsed": "0x1ed04",
      "effectiveGasPrice": "0xf4444",
      "from": "0xe62ab4d111f968660c6b2188046f9b9ba53c4bae",
      "to": "0xcbf4e5fda887e602e5132fa800d74154dfb5b237",
      "contractAddress": null,
      "l1BaseFeeScalar": "0x44d",
      "l1BlobBaseFee": "0x140",
      "l1BlobBaseFeeScalar": "0xa118b",
      "l1Fee": "0x1ff1ecc96",
      "l1GasPrice": "0xc1acfbb5",
      "l1GasUsed": "0x95c"
    },
    {
      "status": "0x1",
      "cumulativeGasUsed": "0x5233f7",
      "logs": [],
      "logsBloom": "0x00000000000000000000000000000000000000000000000000000000000000000000000000000000000000000000000000000000000000000000000000000000000000000000000000000000000000000000000000000000000000000000000000000000000000000000000000000000000000000000000000000000000000000000000000000000000000000000000000000000000000000000000000000000000000000000000000000000000000000000000000000000000000000000000000000000000000000000000000000000000000000000000000000000000000000000000000000000000000000000000000000000000000000000000000000000",
      "type": "0x2",
      "transactionHash": "0x6460b206878e43a02edcd672e2cb669686e06bc2244c267287fe705da2987435",
      "transactionIndex": "0xe",
      "blockHash": "0xf9cd22eb677c1356145427f40b84c25cf3d2d13e88f119ca95fff06e9f9a12c7",
      "blockNumber": "0x10d7f20",
      "gasUsed": "0x7b7f2",
      "effectiveGasPrice": "0xf4445",
      "from": "0xe62ab4d111f968660c6b2188046f9b9ba53c4bae",
      "to": "0x8b8de69a9cbca6b7cb85406dde46116dd520d5b0",
      "contractAddress": null,
      "l1BaseFeeScalar": "0x44d",
      "l1BlobBaseFee": "0x134",
      "l1BlobBaseFeeScalar": "0xa118b",
      "l1Fee": "0x4534856f9",
      "l1GasPrice": "0xc4a91827",
      "l1GasUsed": "0x13f9"
    },
    {
      "status": "0x1",
      "cumulativeGasUsed": "0x1eede7",
      "logs": [],
      "logsBloom": "0x00000000000000000000000000000000000000000000000000000000000000000000000000000000000000000000000000000000000000000000000000000000000000000000000000000000000000000000000000000000000000000000000000000000000000000000000000000000000000000000000000000000000000000000000000000000000000000000000000000000000000000000000000000000000000000000000000000000000000000000000000000000000000000000000000000000000000000000000000000000000000000000000000000000000000000000000000000000000000000000000000000000000000000000000000000000",
      "type": "0x2",
      "transactionHash": "0x40bb09a7bd9e3639d88cf4dd830cf16dc38a47012b42fcfd8f5033196e986732",
      "transactionIndex": "0x18",
      "blockHash": "0xb4cac5105b0d081e5b3dc478b25c2b1d7cadec67669f9320bd28787b239e3098",
      "blockNumber": "0x10d7f24",
      "gasUsed": "0x9bd08",
      "effectiveGasPrice": "0xf4448",
      "from": "0xe62ab4d111f968660c6b2188046f9b9ba53c4bae",
      "to": "0x8b8de69a9cbca6b7cb85406dde46116dd520d5b0",
      "contractAddress": null,
      "l1BaseFeeScalar": "0x44d",
      "l1BlobBaseFee": "0x14d",
      "l1BlobBaseFeeScalar": "0xa118b",
      "l1Fee": "0x5d8ffc110",
      "l1GasPrice": "0xdc52c34f",
      "l1GasUsed": "0x181b"
    },
    {
      "status": "0x1",
      "cumulativeGasUsed": "0x4d00ba",
      "logs": [],
      "logsBloom": "0x00000000000000000000000000000000000000000000000000000000000000000000000000000000000000000000000000000000000000000000000000000000000000000000000000000000000000000000000000000000000000000000000000000000000000000000000000000000000000000000000000000000000000000000000000000000000000000000000000000000000000000000000000000000000000000000000000000000000000000000000000000000000000000000000000000000000000000000000000000000000000000000000000000000000000000000000000000000000000000000000000000000000000000000000000000000",
      "type": "0x2",
      "transactionHash": "0xd7f6cb16b5172b50f924476716575def74bf4c1c8c8eb4691d41bf91270b6f8c",
      "transactionIndex": "0xe",
      "blockHash": "0xfb12a2c05a70c2d16a67b2ea7121d4156568214e3003b39e5944710c2f961161",
      "blockNumber": "0x10d7f27",
      "gasUsed": "0x9bc20",
      "effectiveGasPrice": "0xf444a",
      "from": "0xe62ab4d111f968660c6b2188046f9b9ba53c4bae",
      "to": "0x8b8de69a9cbca6b7cb85406dde46116dd520d5b0",
      "contractAddress": null,
      "l1BaseFeeScalar": "0x44d",
      "l1BlobBaseFee": "0x14d",
      "l1BlobBaseFeeScalar": "0xa118b",
      "l1Fee": "0x5c8c40ba4",
      "l1GasPrice": "0xdc52c34f",
      "l1GasUsed": "0x17d8"
    }
  ],
  "libraries": [],
  "pending": [],
  "returns": {},
  "timestamp": 1731091764,
  "chain": 84532,
  "commit": "ac6d4a5e"
}