{
  "transactions": [
    {
      "hash": "0x31bd57f69d36f0088526354b86f712f41c1b49aef5847c87c66fc4e5fdc57023",
      "transactionType": "CALL",
      "contractName": "FeeManager",
      "contractAddress": "0x41543a4c6423e2546fc58ac63117b5692d68c323",
      "function": "getFeeTokenList()",
      "arguments": [],
      "transaction": {
        "from": "0xe62ab4d111f968660c6b2188046f9b9ba53c4bae",
        "to": "0x41543a4c6423e2546fc58ac63117b5692d68c323",
        "gas": "0x8a7e",
        "value": "0x0",
        "input": "0xe28ab277",
        "nonce": "0x172",
        "chainId": "0x14a34"
      },
      "additionalContracts": [],
      "isFixedGasLimit": false
    },
    {
      "hash": "0x951e276cb480fffaf671451c13cd7bd8d7886fca6b0d348ea55376c74780969e",
      "transactionType": "CALL",
      "contractName": "FeeManager",
      "contractAddress": "0x41543a4c6423e2546fc58ac63117b5692d68c323",
      "function": "addFeeToken(string)",
      "arguments": [
        "0x6a4dbc971533ba36bdc23ad70f5a7a12e064f4ae"
      ],
      "transaction": {
        "from": "0xe62ab4d111f968660c6b2188046f9b9ba53c4bae",
        "to": "0x41543a4c6423e2546fc58ac63117b5692d68c323",
        "gas": "0x2696b",
        "value": "0x0",
        "input": "0x12a6385f0000000000000000000000000000000000000000000000000000000000000020000000000000000000000000000000000000000000000000000000000000002a30783661346462633937313533336261333662646332336164373066356137613132653036346634616500000000000000000000000000000000000000000000",
        "nonce": "0x173",
        "chainId": "0x14a34"
      },
      "additionalContracts": [],
      "isFixedGasLimit": false
    },
    {
      "hash": "0xf9ba1ebf65535db97e3ccb9e01e13f21cad65b4928127c0d6dbb247bfeb8775b",
      "transactionType": "CALL",
      "contractName": "FeeManager",
      "contractAddress": "0x41543a4c6423e2546fc58ac63117b5692d68c323",
      "function": "setFeeMultiplier(uint8,uint256)",
      "arguments": [
        "0",
        "2"
      ],
      "transaction": {
        "from": "0xe62ab4d111f968660c6b2188046f9b9ba53c4bae",
        "to": "0x41543a4c6423e2546fc58ac63117b5692d68c323",
        "gas": "0x112e8",
        "value": "0x0",
        "input": "0x0ee24eb500000000000000000000000000000000000000000000000000000000000000000000000000000000000000000000000000000000000000000000000000000002",
        "nonce": "0x174",
        "chainId": "0x14a34"
      },
      "additionalContracts": [],
      "isFixedGasLimit": false
    },
    {
      "hash": "0xe16922f61078c2d4a604d78bf3ed83ddba97f2969024b0cb7d25c9763d79fa1f",
      "transactionType": "CALL",
      "contractName": "FeeManager",
      "contractAddress": "0x41543a4c6423e2546fc58ac63117b5692d68c323",
      "function": "setFeeMultiplier(uint8,uint256)",
      "arguments": [
        "1",
        "10"
      ],
      "transaction": {
        "from": "0xe62ab4d111f968660c6b2188046f9b9ba53c4bae",
        "to": "0x41543a4c6423e2546fc58ac63117b5692d68c323",
        "gas": "0x11324",
        "value": "0x0",
        "input": "0x0ee24eb50000000000000000000000000000000000000000000000000000000000000001000000000000000000000000000000000000000000000000000000000000000a",
        "nonce": "0x175",
        "chainId": "0x14a34"
      },
      "additionalContracts": [],
      "isFixedGasLimit": false
    },
    {
      "hash": "0x8fed2fa4b4ede7a557128610ad497b618f77205a9e9a1f90a6ceb419d11be01d",
      "transactionType": "CALL",
      "contractName": "FeeManager",
      "contractAddress": "0x41543a4c6423e2546fc58ac63117b5692d68c323",
      "function": "setFeeMultiplier(uint8,uint256)",
      "arguments": [
        "2",
        "1"
      ],
      "transaction": {
        "from": "0xe62ab4d111f968660c6b2188046f9b9ba53c4bae",
        "to": "0x41543a4c6423e2546fc58ac63117b5692d68c323",
        "gas": "0x11346",
        "value": "0x0",
        "input": "0x0ee24eb500000000000000000000000000000000000000000000000000000000000000020000000000000000000000000000000000000000000000000000000000000001",
        "nonce": "0x176",
        "chainId": "0x14a34"
      },
      "additionalContracts": [],
      "isFixedGasLimit": false
    },
    {
      "hash": "0xb6aa47c855396375a6fdc1c54322bb569b1d934436cad52764cc0d33ad33ab75",
      "transactionType": "CALL",
      "contractName": "FeeManager",
      "contractAddress": "0x41543a4c6423e2546fc58ac63117b5692d68c323",
      "function": "setFeeMultiplier(uint8,uint256)",
      "arguments": [
        "3",
        "4"
      ],
      "transaction": {
        "from": "0xe62ab4d111f968660c6b2188046f9b9ba53c4bae",
        "to": "0x41543a4c6423e2546fc58ac63117b5692d68c323",
        "gas": "0x1041b",
        "value": "0x0",
        "input": "0x0ee24eb500000000000000000000000000000000000000000000000000000000000000030000000000000000000000000000000000000000000000000000000000000004",
        "nonce": "0x177",
        "chainId": "0x14a34"
      },
      "additionalContracts": [],
      "isFixedGasLimit": false
    },
    {
      "hash": "0xa00cb47a116746c8492c584b6ea7424e70459aa7dbb505840801ea29b7c6c287",
      "transactionType": "CALL",
      "contractName": "FeeManager",
      "contractAddress": "0x41543a4c6423e2546fc58ac63117b5692d68c323",
      "function": "setFeeMultiplier(uint8,uint256)",
      "arguments": [
        "4",
        "4"
      ],
      "transaction": {
        "from": "0xe62ab4d111f968660c6b2188046f9b9ba53c4bae",
        "to": "0x41543a4c6423e2546fc58ac63117b5692d68c323",
        "gas": "0x1043a",
        "value": "0x0",
        "input": "0x0ee24eb500000000000000000000000000000000000000000000000000000000000000040000000000000000000000000000000000000000000000000000000000000004",
        "nonce": "0x178",
        "chainId": "0x14a34"
      },
      "additionalContracts": [],
      "isFixedGasLimit": false
    },
    {
      "hash": "0xbefb15bc1bed9399d94fec8d434e929fdd905602780c9885a0e7cb3c48d9734f",
      "transactionType": "CALL",
      "contractName": "FeeManager",
      "contractAddress": "0x41543a4c6423e2546fc58ac63117b5692d68c323",
      "function": "setFeeMultiplier(uint8,uint256)",
      "arguments": [
        "5",
        "8"
      ],
      "transaction": {
        "from": "0xe62ab4d111f968660c6b2188046f9b9ba53c4bae",
        "to": "0x41543a4c6423e2546fc58ac63117b5692d68c323",
        "gas": "0x10459",
        "value": "0x0",
        "input": "0x0ee24eb500000000000000000000000000000000000000000000000000000000000000050000000000000000000000000000000000000000000000000000000000000008",
        "nonce": "0x179",
        "chainId": "0x14a34"
      },
      "additionalContracts": [],
      "isFixedGasLimit": false
    },
    {
      "hash": "0xeadf4c85bbbd9d056a93dc20c15c35425eedbda52c37f4ce8ac57cc87dfa0ffc",
      "transactionType": "CALL",
      "contractName": "FeeManager",
      "contractAddress": "0x41543a4c6423e2546fc58ac63117b5692d68c323",
      "function": "setFeeMultiplier(uint8,uint256)",
      "arguments": [
        "6",
        "4"
      ],
      "transaction": {
        "from": "0xe62ab4d111f968660c6b2188046f9b9ba53c4bae",
        "to": "0x41543a4c6423e2546fc58ac63117b5692d68c323",
        "gas": "0x1047a",
        "value": "0x0",
        "input": "0x0ee24eb500000000000000000000000000000000000000000000000000000000000000060000000000000000000000000000000000000000000000000000000000000004",
        "nonce": "0x17a",
        "chainId": "0x14a34"
      },
      "additionalContracts": [],
      "isFixedGasLimit": false
    },
    {
      "hash": "0x51ed8b4b1cc2170592fd383958a88e412e1084b51364ad38c925a254b0ac0483",
      "transactionType": "CALL",
      "contractName": "FeeManager",
      "contractAddress": "0x41543a4c6423e2546fc58ac63117b5692d68c323",
      "function": "setFeeMultiplier(uint8,uint256)",
      "arguments": [
        "7",
        "10"
      ],
      "transaction": {
        "from": "0xe62ab4d111f968660c6b2188046f9b9ba53c4bae",
        "to": "0x41543a4c6423e2546fc58ac63117b5692d68c323",
        "gas": "0x10499",
        "value": "0x0",
        "input": "0x0ee24eb50000000000000000000000000000000000000000000000000000000000000007000000000000000000000000000000000000000000000000000000000000000a",
        "nonce": "0x17b",
        "chainId": "0x14a34"
      },
      "additionalContracts": [],
      "isFixedGasLimit": false
    },
    {
      "hash": "0xfc0d457a71e7c94eed29a0765d293a9cf8ff5ba2c972fcc2ee09c383210a27d7",
      "transactionType": "CALL",
      "contractName": "FeeManager",
      "contractAddress": "0x41543a4c6423e2546fc58ac63117b5692d68c323",
      "function": "setFeeMultiplier(uint8,uint256)",
      "arguments": [
        "8",
        "8"
      ],
      "transaction": {
        "from": "0xe62ab4d111f968660c6b2188046f9b9ba53c4bae",
        "to": "0x41543a4c6423e2546fc58ac63117b5692d68c323",
        "gas": "0x1140f",
        "value": "0x0",
        "input": "0x0ee24eb500000000000000000000000000000000000000000000000000000000000000080000000000000000000000000000000000000000000000000000000000000008",
        "nonce": "0x17c",
        "chainId": "0x14a34"
      },
      "additionalContracts": [],
      "isFixedGasLimit": false
    },
    {
      "hash": "0xf2be76049bdcd51087d7ef65dfef0e506967b46ec621994a8880037ff2040249",
      "transactionType": "CALL",
      "contractName": "FeeManager",
      "contractAddress": "0x41543a4c6423e2546fc58ac63117b5692d68c323",
      "function": "setFeeMultiplier(uint8,uint256)",
      "arguments": [
        "9",
        "8"
      ],
      "transaction": {
        "from": "0xe62ab4d111f968660c6b2188046f9b9ba53c4bae",
        "to": "0x41543a4c6423e2546fc58ac63117b5692d68c323",
        "gas": "0x11431",
        "value": "0x0",
        "input": "0x0ee24eb500000000000000000000000000000000000000000000000000000000000000090000000000000000000000000000000000000000000000000000000000000008",
        "nonce": "0x17d",
        "chainId": "0x14a34"
      },
      "additionalContracts": [],
      "isFixedGasLimit": false
    },
    {
      "hash": "0x19defeb274deee5ee8fd5895fe2bb0a6f47aa989f5753b855211fd47558f7d2d",
      "transactionType": "CALL",
      "contractName": "FeeManager",
      "contractAddress": "0x41543a4c6423e2546fc58ac63117b5692d68c323",
      "function": "setFeeMultiplier(uint8,uint256)",
      "arguments": [
        "10",
        "8"
      ],
      "transaction": {
        "from": "0xe62ab4d111f968660c6b2188046f9b9ba53c4bae",
        "to": "0x41543a4c6423e2546fc58ac63117b5692d68c323",
        "gas": "0x11453",
        "value": "0x0",
        "input": "0x0ee24eb5000000000000000000000000000000000000000000000000000000000000000a0000000000000000000000000000000000000000000000000000000000000008",
        "nonce": "0x17e",
        "chainId": "0x14a34"
      },
      "additionalContracts": [],
      "isFixedGasLimit": false
    },
    {
      "hash": "0xcd25e4fa7486fec5a988d2d8d70d46b1092071a93858bf3bd25f70f80371ee00",
      "transactionType": "CALL",
      "contractName": "FeeManager",
      "contractAddress": "0x41543a4c6423e2546fc58ac63117b5692d68c323",
      "function": "setFeeMultiplier(uint8,uint256)",
      "arguments": [
        "11",
        "20"
      ],
      "transaction": {
        "from": "0xe62ab4d111f968660c6b2188046f9b9ba53c4bae",
        "to": "0x41543a4c6423e2546fc58ac63117b5692d68c323",
        "gas": "0x10518",
        "value": "0x0",
        "input": "0x0ee24eb5000000000000000000000000000000000000000000000000000000000000000b0000000000000000000000000000000000000000000000000000000000000014",
        "nonce": "0x17f",
        "chainId": "0x14a34"
      },
      "additionalContracts": [],
      "isFixedGasLimit": false
    },
    {
      "hash": "0x4bb90224f2793d8848de39db852cf97a3b44f16ff36e935c2c16e6f19de66103",
      "transactionType": "CALL",
      "contractName": "FeeManager",
      "contractAddress": "0x41543a4c6423e2546fc58ac63117b5692d68c323",
      "function": "setFeeMultiplier(uint8,uint256)",
      "arguments": [
        "12",
        "8"
      ],
      "transaction": {
        "from": "0xe62ab4d111f968660c6b2188046f9b9ba53c4bae",
        "to": "0x41543a4c6423e2546fc58ac63117b5692d68c323",
        "gas": "0x10538",
        "value": "0x0",
        "input": "0x0ee24eb5000000000000000000000000000000000000000000000000000000000000000c0000000000000000000000000000000000000000000000000000000000000008",
        "nonce": "0x180",
        "chainId": "0x14a34"
      },
      "additionalContracts": [],
      "isFixedGasLimit": false
    },
    {
      "hash": "0xd5771ec9fd044ac0dcbfae9b8e3b51100d48925c3b72053e095a65271bfe77ba",
      "transactionType": "CALL",
      "contractName": "FeeManager",
      "contractAddress": "0x41543a4c6423e2546fc58ac63117b5692d68c323",
      "function": "setFeeMultiplier(uint8,uint256)",
      "arguments": [
        "13",
        "4"
      ],
      "transaction": {
        "from": "0xe62ab4d111f968660c6b2188046f9b9ba53c4bae",
        "to": "0x41543a4c6423e2546fc58ac63117b5692d68c323",
        "gas": "0x10558",
        "value": "0x0",
        "input": "0x0ee24eb5000000000000000000000000000000000000000000000000000000000000000d0000000000000000000000000000000000000000000000000000000000000004",
        "nonce": "0x181",
        "chainId": "0x14a34"
      },
      "additionalContracts": [],
      "isFixedGasLimit": false
    },
    {
      "hash": "0x841b71ac4c982624603d20fbcb15bb375d8dbe0e023d528cc78418e14639664e",
      "transactionType": "CALL",
      "contractName": "FeeManager",
      "contractAddress": "0x41543a4c6423e2546fc58ac63117b5692d68c323",
      "function": "setFeeMultiplier(uint8,uint256)",
      "arguments": [
        "14",
        "4"
      ],
      "transaction": {
        "from": "0xe62ab4d111f968660c6b2188046f9b9ba53c4bae",
        "to": "0x41543a4c6423e2546fc58ac63117b5692d68c323",
        "gas": "0x10577",
        "value": "0x0",
        "input": "0x0ee24eb5000000000000000000000000000000000000000000000000000000000000000e0000000000000000000000000000000000000000000000000000000000000004",
        "nonce": "0x182",
        "chainId": "0x14a34"
      },
      "additionalContracts": [],
      "isFixedGasLimit": false
    },
    {
      "hash": "0x4d76fef1386d907696e0238f26ec9c501fb3d67fda0c405a68c1e3ee401c50d2",
      "transactionType": "CALL",
      "contractName": "FeeManager",
      "contractAddress": "0x41543a4c6423e2546fc58ac63117b5692d68c323",
      "function": "setFeeMultiplier(uint8,uint256)",
      "arguments": [
        "15",
        "2"
      ],
      "transaction": {
        "from": "0xe62ab4d111f968660c6b2188046f9b9ba53c4bae",
        "to": "0x41543a4c6423e2546fc58ac63117b5692d68c323",
        "gas": "0x10590",
        "value": "0x0",
        "input": "0x0ee24eb5000000000000000000000000000000000000000000000000000000000000000f0000000000000000000000000000000000000000000000000000000000000002",
        "nonce": "0x183",
        "chainId": "0x14a34"
      },
      "additionalContracts": [],
      "isFixedGasLimit": false
    },
    {
      "hash": "0xb510c86fc2b0899657f2ad7e64a67f277b36bed41a699d91192f1eb400bb1a45",
      "transactionType": "CALL",
      "contractName": "FeeManager",
      "contractAddress": "0x41543a4c6423e2546fc58ac63117b5692d68c323",
      "function": "addFeeToken(string,string[],uint256[])",
      "arguments": [
        "421614",
        "[0x6a4dbc971533ba36bdc23ad70f5a7a12e064f4ae]",
        "[1000]"
      ],
      "transaction": {
        "from": "0xe62ab4d111f968660c6b2188046f9b9ba53c4bae",
        "to": "0x41543a4c6423e2546fc58ac63117b5692d68c323",
        "gas": "0x2f642",
        "value": "0x0",
        "input": "0x437bf84f000000000000000000000000000000000000000000000000000000000000006000000000000000000000000000000000000000000000000000000000000000a000000000000000000000000000000000000000000000000000000000000001400000000000000000000000000000000000000000000000000000000000000006343231363134000000000000000000000000000000000000000000000000000000000000000000000000000000000000000000000000000000000000000000010000000000000000000000000000000000000000000000000000000000000020000000000000000000000000000000000000000000000000000000000000002a30783661346462633937313533336261333662646332336164373066356137613132653036346634616500000000000000000000000000000000000000000000000000000000000000000000000000000000000000000000000000000000000100000000000000000000000000000000000000000000000000000000000003e8",
        "nonce": "0x184",
        "chainId": "0x14a34"
      },
      "additionalContracts": [],
      "isFixedGasLimit": false
    },
    {
      "hash": "0xbc3b0eb54886dbbce5ce2c0da427df9f837d561dc8639366dc6af0cb4cf3090f",
      "transactionType": "CALL",
      "contractName": "FeeManager",
      "contractAddress": "0x41543a4c6423e2546fc58ac63117b5692d68c323",
      "function": "addFeeToken(string,string[],uint256[])",
      "arguments": [
        "84532",
        "[0x6a4dbc971533ba36bdc23ad70f5a7a12e064f4ae]",
        "[1000]"
      ],
      "transaction": {
        "from": "0xe62ab4d111f968660c6b2188046f9b9ba53c4bae",
        "to": "0x41543a4c6423e2546fc58ac63117b5692d68c323",
        "gas": "0x2a2b1",
        "value": "0x0",
        "input": "0x437bf84f000000000000000000000000000000000000000000000000000000000000006000000000000000000000000000000000000000000000000000000000000000a000000000000000000000000000000000000000000000000000000000000001400000000000000000000000000000000000000000000000000000000000000005383435333200000000000000000000000000000000000000000000000000000000000000000000000000000000000000000000000000000000000000000000010000000000000000000000000000000000000000000000000000000000000020000000000000000000000000000000000000000000000000000000000000002a30783661346462633937313533336261333662646332336164373066356137613132653036346634616500000000000000000000000000000000000000000000000000000000000000000000000000000000000000000000000000000000000100000000000000000000000000000000000000000000000000000000000003e8",
        "nonce": "0x185",
        "chainId": "0x14a34"
      },
      "additionalContracts": [],
      "isFixedGasLimit": false
    },
    {
      "hash": "0x1cc90a8464879134c2bb70459c2c58066c0b32f609d52a89e697732771fdf646",
      "transactionType": "CALL",
      "contractName": "CTMRWAGateway",
      "contractAddress": "0x969035b34b913c507b87fd805fff608fb1fe13f0",
      "function": "addChainContract(string[],string[])",
      "arguments": [
        "[421614]",
        "[0x787a3afdebabb386b31d56cf7cc3cd6637340799]"
      ],
      "transaction": {
        "from": "0xe62ab4d111f968660c6b2188046f9b9ba53c4bae",
        "to": "0x969035b34b913c507b87fd805fff608fb1fe13f0",
        "gas": "0x32565",
        "value": "0x0",
        "input": "0x013fd3bd000000000000000000000000000000000000000000000000000000000000004000000000000000000000000000000000000000000000000000000000000000c0000000000000000000000000000000000000000000000000000000000000000100000000000000000000000000000000000000000000000000000000000000200000000000000000000000000000000000000000000000000000000000000006343231363134000000000000000000000000000000000000000000000000000000000000000000000000000000000000000000000000000000000000000000010000000000000000000000000000000000000000000000000000000000000020000000000000000000000000000000000000000000000000000000000000002a30783738376133616664656261626233383662333164353663663763633363643636333733343037393900000000000000000000000000000000000000000000",
        "nonce": "0x186",
        "chainId": "0x14a34"
      },
      "additionalContracts": [],
      "isFixedGasLimit": false
    },
    {
      "hash": "0x890ce21ea5adb240381b8f4ebc3d899055d20bbf3937fe0dd851b233ac0f5fd8",
      "transactionType": "CALL",
      "contractName": "CTMRWAGateway",
      "contractAddress": "0x969035b34b913c507b87fd805fff608fb1fe13f0",
      "function": "attachRWAX(uint256,uint256,string[],string[])",
      "arguments": [
        "1",
        "1",
        "[84532, 421614]",
        "[0x66b719c489193594c617801e67119959cd15b63a, 0x386ed9c1a214cc8700af43f4a39df8c722176e01]"
      ],
      "transaction": {
        "from": "0xe62ab4d111f968660c6b2188046f9b9ba53c4bae",
        "to": "0x969035b34b913c507b87fd805fff608fb1fe13f0",
        "gas": "0x5da0d",
        "value": "0x0",
        "input": "0x33a5f5b4000000000000000000000000000000000000000000000000000000000000000100000000000000000000000000000000000000000000000000000000000000010000000000000000000000000000000000000000000000000000000000000080000000000000000000000000000000000000000000000000000000000000016000000000000000000000000000000000000000000000000000000000000000020000000000000000000000000000000000000000000000000000000000000040000000000000000000000000000000000000000000000000000000000000008000000000000000000000000000000000000000000000000000000000000000053834353332000000000000000000000000000000000000000000000000000000000000000000000000000000000000000000000000000000000000000000000634323136313400000000000000000000000000000000000000000000000000000000000000000000000000000000000000000000000000000000000000000002000000000000000000000000000000000000000000000000000000000000004000000000000000000000000000000000000000000000000000000000000000a0000000000000000000000000000000000000000000000000000000000000002a30783636623731396334383931393335393463363137383031653637313139393539636431356236336100000000000000000000000000000000000000000000000000000000000000000000000000000000000000000000000000000000002a30783338366564396331613231346363383730306166343366346133396466386337323231373665303100000000000000000000000000000000000000000000",
        "nonce": "0x187",
        "chainId": "0x14a34"
      },
      "additionalContracts": [],
      "isFixedGasLimit": false
    },
    {
      "hash": "0xfa6f75a82c1c29b6aa6c56919c90a90c73f950cd81f457ca2d6f1a283b64fe44",
      "transactionType": "CALL",
      "contractName": "CTMRWAGateway",
      "contractAddress": "0x969035b34b913c507b87fd805fff608fb1fe13f0",
      "function": "attachStorageManager(uint256,uint256,string[],string[])",
      "arguments": [
        "1",
        "1",
        "[84532, 421614]",
        "[0xe569c146b0d4c1c941607b5c6a648b5877ae29ef, 0xe60cc236b36ba33b07832ec9bfeaf875a409a1d3]"
      ],
      "transaction": {
        "from": "0xe62ab4d111f968660c6b2188046f9b9ba53c4bae",
        "to": "0x969035b34b913c507b87fd805fff608fb1fe13f0",
        "gas": "0x63771",
        "value": "0x0",
        "input": "0x2f68b489000000000000000000000000000000000000000000000000000000000000000100000000000000000000000000000000000000000000000000000000000000010000000000000000000000000000000000000000000000000000000000000080000000000000000000000000000000000000000000000000000000000000016000000000000000000000000000000000000000000000000000000000000000020000000000000000000000000000000000000000000000000000000000000040000000000000000000000000000000000000000000000000000000000000008000000000000000000000000000000000000000000000000000000000000000053834353332000000000000000000000000000000000000000000000000000000000000000000000000000000000000000000000000000000000000000000000634323136313400000000000000000000000000000000000000000000000000000000000000000000000000000000000000000000000000000000000000000002000000000000000000000000000000000000000000000000000000000000004000000000000000000000000000000000000000000000000000000000000000a0000000000000000000000000000000000000000000000000000000000000002a30786535363963313436623064346331633934313630376235633661363438623538373761653239656600000000000000000000000000000000000000000000000000000000000000000000000000000000000000000000000000000000002a30786536306363323336623336626133336230373833326563396266656166383735613430396131643300000000000000000000000000000000000000000000",
        "nonce": "0x188",
        "chainId": "0x14a34"
      },
      "additionalContracts": [],
      "isFixedGasLimit": false
    }
  ],
  "receipts": [
    {
      "status": "0x1",
      "cumulativeGasUsed": "0x159008",
      "logs": [],
      "logsBloom": "0x00000000000000000000000000000000000000000000000000000000000000000000000000000000000000000000000000000000000000000000000000000000000000000000000000000000000000000000000000000000000000000000000000000000000000000000000000000000000000000000000000000000000000000000000000000000000000000000000000000000000000000000000000000000000000000000000000000000000000000000000000000000000000000000000000000000000000000000000000000000000000000000000000000000000000000000000000000000000000000000000000000000000000000000000000000000",
      "type": "0x2",
      "transactionHash": "0x31bd57f69d36f0088526354b86f712f41c1b49aef5847c87c66fc4e5fdc57023",
      "transactionIndex": "0x5",
      "blockHash": "0xa1138f1bb1f68753d36d4ba1fe3a3e3a2925a12592b47bb4f629c3fc2790bc90",
      "blockNumber": "0x114aa0a",
      "gasUsed": "0x5eb3",
      "effectiveGasPrice": "0xf4341",
      "from": "0xe62ab4d111f968660c6b2188046f9b9ba53c4bae",
      "to": "0x41543a4c6423e2546fc58ac63117b5692d68c323",
      "contractAddress": null,
      "l1BaseFeeScalar": "0x44d",
      "l1BlobBaseFee": "0x1",
      "l1BlobBaseFeeScalar": "0xa118b",
      "l1Fee": "0xdfc175d0d",
      "l1GasPrice": "0x7f04b938b",
      "l1GasUsed": "0x640"
    },
    {
      "status": "0x1",
      "cumulativeGasUsed": "0x3c5478",
      "logs": [
        {
          "address": "0x41543a4c6423e2546fc58ac63117b5692d68c323",
          "topics": [
            "0x1394cfab38f3fc78ed77ea6f9318782a446d96e7dc8e9a6b0149f6be25c08bcf",
            "0x0000000000000000000000006a4dbc971533ba36bdc23ad70f5a7a12e064f4ae"
          ],
          "data": "0x",
          "blockHash": "0x618801eeb26c487aba0aed40348bf02dfb8ce1a7c199866e75558e4ba4eee8dc",
          "blockNumber": "0x114aa0e",
          "transactionHash": "0x951e276cb480fffaf671451c13cd7bd8d7886fca6b0d348ea55376c74780969e",
          "transactionIndex": "0x6",
          "logIndex": "0x7",
          "removed": false
        }
      ],
      "logsBloom": "0x00000000000000000000000000000000000200000000000000000000000000000000000000000000000000000000000000000000000000001000000000000000000000000000000000000000000000000000001000000000000000000000010000000000000000000040000000000000000000000000000000000000000000000000000100000000000000000000000000000000000000000000000000000000000000000000000000000000000000000000000100000000000000000000000000000000000000000000000000000000000000002000000000000000000000000000000000000000000000000000000000000000000000010000000000000000",
      "type": "0x2",
      "transactionHash": "0x951e276cb480fffaf671451c13cd7bd8d7886fca6b0d348ea55376c74780969e",
      "transactionIndex": "0x6",
      "blockHash": "0x618801eeb26c487aba0aed40348bf02dfb8ce1a7c199866e75558e4ba4eee8dc",
      "blockNumber": "0x114aa0e",
      "gasUsed": "0x1bf00",
      "effectiveGasPrice": "0xf4341",
      "from": "0xe62ab4d111f968660c6b2188046f9b9ba53c4bae",
      "to": "0x41543a4c6423e2546fc58ac63117b5692d68c323",
      "contractAddress": null,
      "l1BaseFeeScalar": "0x44d",
      "l1BlobBaseFee": "0x1",
      "l1BlobBaseFeeScalar": "0xa118b",
      "l1Fee": "0xf73c84f58",
      "l1GasPrice": "0x7f04b938b",
      "l1GasUsed": "0x6e7"
    },
    {
      "status": "0x1",
      "cumulativeGasUsed": "0x226b73",
      "logs": [],
      "logsBloom": "0x00000000000000000000000000000000000000000000000000000000000000000000000000000000000000000000000000000000000000000000000000000000000000000000000000000000000000000000000000000000000000000000000000000000000000000000000000000000000000000000000000000000000000000000000000000000000000000000000000000000000000000000000000000000000000000000000000000000000000000000000000000000000000000000000000000000000000000000000000000000000000000000000000000000000000000000000000000000000000000000000000000000000000000000000000000000",
      "type": "0x2",
      "transactionHash": "0xf9ba1ebf65535db97e3ccb9e01e13f21cad65b4928127c0d6dbb247bfeb8775b",
      "transactionIndex": "0x4",
      "blockHash": "0xf158ee86e49a6a6a5dd1ece9db81586e26aa8ae47a3d46c4d5b159e74a9c7f49",
      "blockNumber": "0x114aa12",
      "gasUsed": "0xbbf9",
      "effectiveGasPrice": "0xf4341",
      "from": "0xe62ab4d111f968660c6b2188046f9b9ba53c4bae",
      "to": "0x41543a4c6423e2546fc58ac63117b5692d68c323",
      "contractAddress": null,
      "l1BaseFeeScalar": "0x44d",
      "l1BlobBaseFee": "0x1",
      "l1BlobBaseFeeScalar": "0xa118b",
      "l1Fee": "0xdfc175d0d",
      "l1GasPrice": "0x7f04b938b",
      "l1GasUsed": "0x640"
    },
    {
      "status": "0x1",
      "cumulativeGasUsed": "0x46f82",
      "logs": [],
      "logsBloom": "0x00000000000000000000000000000000000000000000000000000000000000000000000000000000000000000000000000000000000000000000000000000000000000000000000000000000000000000000000000000000000000000000000000000000000000000000000000000000000000000000000000000000000000000000000000000000000000000000000000000000000000000000000000000000000000000000000000000000000000000000000000000000000000000000000000000000000000000000000000000000000000000000000000000000000000000000000000000000000000000000000000000000000000000000000000000000",
      "type": "0x2",
      "transactionHash": "0xe16922f61078c2d4a604d78bf3ed83ddba97f2969024b0cb7d25c9763d79fa1f",
      "transactionIndex": "0x3",
      "blockHash": "0x1cb0a0744f2474c2d3c4f0500189e8561aec98d7e5f3aab8aa94f68549313c3e",
      "blockNumber": "0x114aa16",
      "gasUsed": "0xbc22",
      "effectiveGasPrice": "0xf4341",
      "from": "0xe62ab4d111f968660c6b2188046f9b9ba53c4bae",
      "to": "0x41543a4c6423e2546fc58ac63117b5692d68c323",
      "contractAddress": null,
      "l1BaseFeeScalar": "0x44d",
      "l1BlobBaseFee": "0x1",
      "l1BlobBaseFeeScalar": "0xa118b",
      "l1Fee": "0xe7aae306e",
      "l1GasPrice": "0x83827d256",
      "l1GasUsed": "0x640"
    },
    {
      "status": "0x1",
      "cumulativeGasUsed": "0x5f385",
      "logs": [],
      "logsBloom": "0x00000000000000000000000000000000000000000000000000000000000000000000000000000000000000000000000000000000000000000000000000000000000000000000000000000000000000000000000000000000000000000000000000000000000000000000000000000000000000000000000000000000000000000000000000000000000000000000000000000000000000000000000000000000000000000000000000000000000000000000000000000000000000000000000000000000000000000000000000000000000000000000000000000000000000000000000000000000000000000000000000000000000000000000000000000000",
      "type": "0x2",
      "transactionHash": "0x8fed2fa4b4ede7a557128610ad497b618f77205a9e9a1f90a6ceb419d11be01d",
      "transactionIndex": "0x5",
      "blockHash": "0x75af61b7f0dc961230032e0f5c19ae09b13439a7061c8a169007086d0a6fc015",
      "blockNumber": "0x114aa19",
      "gasUsed": "0xbc39",
      "effectiveGasPrice": "0xf4340",
      "from": "0xe62ab4d111f968660c6b2188046f9b9ba53c4bae",
      "to": "0x41543a4c6423e2546fc58ac63117b5692d68c323",
      "contractAddress": null,
      "l1BaseFeeScalar": "0x44d",
      "l1BlobBaseFee": "0x1",
      "l1BlobBaseFeeScalar": "0xa118b",
      "l1Fee": "0xebd4e1d49",
      "l1GasPrice": "0x85df9e2e8",
      "l1GasUsed": "0x640"
    },
    {
      "status": "0x1",
      "cumulativeGasUsed": "0x1678f",
      "logs": [],
      "logsBloom": "0x00000000000000000000000000000000000000000000000000000000000000000000000000000000000000000000000000000000000000000000000000000000000000000000000000000000000000000000000000000000000000000000000000000000000000000000000000000000000000000000000000000000000000000000000000000000000000000000000000000000000000000000000000000000000000000000000000000000000000000000000000000000000000000000000000000000000000000000000000000000000000000000000000000000000000000000000000000000000000000000000000000000000000000000000000000000",
      "type": "0x2",
      "transactionHash": "0xb6aa47c855396375a6fdc1c54322bb569b1d934436cad52764cc0d33ad33ab75",
      "transactionIndex": "0x1",
      "blockHash": "0x9d763857334f1235bbb212114d8b611718738418f9c08fc8523263ba31801dcc",
      "blockNumber": "0x114aa1d",
      "gasUsed": "0xbc50",
      "effectiveGasPrice": "0xf4340",
      "from": "0xe62ab4d111f968660c6b2188046f9b9ba53c4bae",
      "to": "0x41543a4c6423e2546fc58ac63117b5692d68c323",
      "contractAddress": null,
      "l1BaseFeeScalar": "0x44d",
      "l1BlobBaseFee": "0x1",
      "l1BlobBaseFeeScalar": "0xa118b",
      "l1Fee": "0xebd4e1d49",
      "l1GasPrice": "0x85df9e2e8",
      "l1GasUsed": "0x640"
    },
    {
      "status": "0x1",
      "cumulativeGasUsed": "0xa56d2",
      "logs": [],
      "logsBloom": "0x00000000000000000000000000000000000000000000000000000000000000000000000000000000000000000000000000000000000000000000000000000000000000000000000000000000000000000000000000000000000000000000000000000000000000000000000000000000000000000000000000000000000000000000000000000000000000000000000000000000000000000000000000000000000000000000000000000000000000000000000000000000000000000000000000000000000000000000000000000000000000000000000000000000000000000000000000000000000000000000000000000000000000000000000000000000",
      "type": "0x2",
      "transactionHash": "0xa00cb47a116746c8492c584b6ea7424e70459aa7dbb505840801ea29b7c6c287",
      "transactionIndex": "0x8",
      "blockHash": "0xe047a966f7206c257674f99613660385efd8548d62ba709a2f244607db04d823",
      "blockNumber": "0x114aa20",
      "gasUsed": "0xbc67",
      "effectiveGasPrice": "0xf4340",
      "from": "0xe62ab4d111f968660c6b2188046f9b9ba53c4bae",
      "to": "0x41543a4c6423e2546fc58ac63117b5692d68c323",
      "contractAddress": null,
      "l1BaseFeeScalar": "0x44d",
      "l1BlobBaseFee": "0x1",
      "l1BlobBaseFeeScalar": "0xa118b",
      "l1Fee": "0xdfd462abf",
      "l1GasPrice": "0x7f0f777af",
      "l1GasUsed": "0x640"
    },
    {
      "status": "0x1",
      "cumulativeGasUsed": "0x9011a",
      "logs": [],
      "logsBloom": "0x00000000000000000000000000000000000000000000000000000000000000000000000000000000000000000000000000000000000000000000000000000000000000000000000000000000000000000000000000000000000000000000000000000000000000000000000000000000000000000000000000000000000000000000000000000000000000000000000000000000000000000000000000000000000000000000000000000000000000000000000000000000000000000000000000000000000000000000000000000000000000000000000000000000000000000000000000000000000000000000000000000000000000000000000000000000",
      "type": "0x2",
      "transactionHash": "0xbefb15bc1bed9399d94fec8d434e929fdd905602780c9885a0e7cb3c48d9734f",
      "transactionIndex": "0x4",
      "blockHash": "0x41f7c64fdef1707368a02549d9f70cdd719f7ae528fcd766efc9776ff423b127",
      "blockNumber": "0x114aa24",
      "gasUsed": "0xbc7e",
      "effectiveGasPrice": "0xf4340",
      "from": "0xe62ab4d111f968660c6b2188046f9b9ba53c4bae",
      "to": "0x41543a4c6423e2546fc58ac63117b5692d68c323",
      "contractAddress": null,
      "l1BaseFeeScalar": "0x44d",
      "l1BlobBaseFee": "0x1",
      "l1BlobBaseFeeScalar": "0xa118b",
      "l1Fee": "0xdfd462abf",
      "l1GasPrice": "0x7f0f777af",
      "l1GasUsed": "0x640"
    },
    {
      "status": "0x1",
      "cumulativeGasUsed": "0x2ab54",
      "logs": [],
      "logsBloom": "0x00000000000000000000000000000000000000000000000000000000000000000000000000000000000000000000000000000000000000000000000000000000000000000000000000000000000000000000000000000000000000000000000000000000000000000000000000000000000000000000000000000000000000000000000000000000000000000000000000000000000000000000000000000000000000000000000000000000000000000000000000000000000000000000000000000000000000000000000000000000000000000000000000000000000000000000000000000000000000000000000000000000000000000000000000000000",
      "type": "0x2",
      "transactionHash": "0xeadf4c85bbbd9d056a93dc20c15c35425eedbda52c37f4ce8ac57cc87dfa0ffc",
      "transactionIndex": "0x2",
      "blockHash": "0x4476c303d698524d2133108db17ca8abba41e91e0ebbaa591d0414ef94840eaa",
      "blockNumber": "0x114aa28",
      "gasUsed": "0xbc95",
      "effectiveGasPrice": "0xf4340",
      "from": "0xe62ab4d111f968660c6b2188046f9b9ba53c4bae",
      "to": "0x41543a4c6423e2546fc58ac63117b5692d68c323",
      "contractAddress": null,
      "l1BaseFeeScalar": "0x44d",
      "l1BlobBaseFee": "0x1",
      "l1BlobBaseFeeScalar": "0xa118b",
      "l1Fee": "0xfbc5b33b9",
      "l1GasPrice": "0x8eec28956",
      "l1GasUsed": "0x640"
    },
    {
      "status": "0x1",
      "cumulativeGasUsed": "0x9da03",
      "logs": [],
      "logsBloom": "0x00000000000000000000000000000000000000000000000000000000000000000000000000000000000000000000000000000000000000000000000000000000000000000000000000000000000000000000000000000000000000000000000000000000000000000000000000000000000000000000000000000000000000000000000000000000000000000000000000000000000000000000000000000000000000000000000000000000000000000000000000000000000000000000000000000000000000000000000000000000000000000000000000000000000000000000000000000000000000000000000000000000000000000000000000000000",
      "type": "0x2",
      "transactionHash": "0x51ed8b4b1cc2170592fd383958a88e412e1084b51364ad38c925a254b0ac0483",
      "transactionIndex": "0x4",
      "blockHash": "0x2808ebe733263b33bd0ac472000d51c564f6026c8472ceda235e0ab3d2b29708",
      "blockNumber": "0x114aa2b",
      "gasUsed": "0xbcac",
      "effectiveGasPrice": "0xf4340",
      "from": "0xe62ab4d111f968660c6b2188046f9b9ba53c4bae",
      "to": "0x41543a4c6423e2546fc58ac63117b5692d68c323",
      "contractAddress": null,
      "l1BaseFeeScalar": "0x44d",
      "l1BlobBaseFee": "0x1",
      "l1BlobBaseFeeScalar": "0xa118b",
      "l1Fee": "0x10024be3d1",
      "l1GasPrice": "0x916766a29",
      "l1GasUsed": "0x640"
    },
    {
      "status": "0x1",
      "cumulativeGasUsed": "0x19abbf",
      "logs": [],
      "logsBloom": "0x00000000000000000000000000000000000000000000000000000000000000000000000000000000000000000000000000000000000000000000000000000000000000000000000000000000000000000000000000000000000000000000000000000000000000000000000000000000000000000000000000000000000000000000000000000000000000000000000000000000000000000000000000000000000000000000000000000000000000000000000000000000000000000000000000000000000000000000000000000000000000000000000000000000000000000000000000000000000000000000000000000000000000000000000000000000",
      "type": "0x2",
      "transactionHash": "0xfc0d457a71e7c94eed29a0765d293a9cf8ff5ba2c972fcc2ee09c383210a27d7",
      "transactionIndex": "0x7",
      "blockHash": "0x1283ea863d5a91808e63fc9f002491dba21c14d52e0e55f0a3ba1ca795628169",
      "blockNumber": "0x114aa2f",
      "gasUsed": "0xbcc3",
      "effectiveGasPrice": "0xf4340",
      "from": "0xe62ab4d111f968660c6b2188046f9b9ba53c4bae",
      "to": "0x41543a4c6423e2546fc58ac63117b5692d68c323",
      "contractAddress": null,
      "l1BaseFeeScalar": "0x44d",
      "l1BlobBaseFee": "0x1",
      "l1BlobBaseFeeScalar": "0xa118b",
      "l1Fee": "0x10024be3d1",
      "l1GasPrice": "0x916766a29",
      "l1GasUsed": "0x640"
    },
    {
      "status": "0x1",
      "cumulativeGasUsed": "0x482e4",
      "logs": [],
      "logsBloom": "0x00000000000000000000000000000000000000000000000000000000000000000000000000000000000000000000000000000000000000000000000000000000000000000000000000000000000000000000000000000000000000000000000000000000000000000000000000000000000000000000000000000000000000000000000000000000000000000000000000000000000000000000000000000000000000000000000000000000000000000000000000000000000000000000000000000000000000000000000000000000000000000000000000000000000000000000000000000000000000000000000000000000000000000000000000000000",
      "type": "0x2",
      "transactionHash": "0xf2be76049bdcd51087d7ef65dfef0e506967b46ec621994a8880037ff2040249",
      "transactionIndex": "0x3",
      "blockHash": "0x2a38a9c92459668af3eee0aefb0180f7eb01a8aa9ebf553e665d52f44d72e0d9",
      "blockNumber": "0x114aa33",
      "gasUsed": "0xbcda",
      "effectiveGasPrice": "0xf4340",
      "from": "0xe62ab4d111f968660c6b2188046f9b9ba53c4bae",
      "to": "0x41543a4c6423e2546fc58ac63117b5692d68c323",
      "contractAddress": null,
      "l1BaseFeeScalar": "0x44d",
      "l1BlobBaseFee": "0x1",
      "l1BlobBaseFeeScalar": "0xa118b",
      "l1Fee": "0x1050dc43f7",
      "l1GasPrice": "0x9430f8589",
      "l1GasUsed": "0x640"
    },
    {
      "status": "0x1",
      "cumulativeGasUsed": "0xb9754",
      "logs": [],
      "logsBloom": "0x00000000000000000000000000000000000000000000000000000000000000000000000000000000000000000000000000000000000000000000000000000000000000000000000000000000000000000000000000000000000000000000000000000000000000000000000000000000000000000000000000000000000000000000000000000000000000000000000000000000000000000000000000000000000000000000000000000000000000000000000000000000000000000000000000000000000000000000000000000000000000000000000000000000000000000000000000000000000000000000000000000000000000000000000000000000",
      "type": "0x2",
      "transactionHash": "0x19defeb274deee5ee8fd5895fe2bb0a6f47aa989f5753b855211fd47558f7d2d",
      "transactionIndex": "0x5",
      "blockHash": "0x8efee224cc87a3c3af108c5c43fbe3d940e3ffd69054381ff1579dcd64101e6f",
      "blockNumber": "0x114aa36",
      "gasUsed": "0xbcf1",
      "effectiveGasPrice": "0xf4340",
      "from": "0xe62ab4d111f968660c6b2188046f9b9ba53c4bae",
      "to": "0x41543a4c6423e2546fc58ac63117b5692d68c323",
      "contractAddress": null,
      "l1BaseFeeScalar": "0x44d",
      "l1BlobBaseFee": "0x1",
      "l1BlobBaseFeeScalar": "0xa118b",
      "l1Fee": "0x1050dc43f7",
      "l1GasPrice": "0x9430f8589",
      "l1GasUsed": "0x640"
    },
    {
      "status": "0x1",
      "cumulativeGasUsed": "0x1864b1",
      "logs": [],
      "logsBloom": "0x00000000000000000000000000000000000000000000000000000000000000000000000000000000000000000000000000000000000000000000000000000000000000000000000000000000000000000000000000000000000000000000000000000000000000000000000000000000000000000000000000000000000000000000000000000000000000000000000000000000000000000000000000000000000000000000000000000000000000000000000000000000000000000000000000000000000000000000000000000000000000000000000000000000000000000000000000000000000000000000000000000000000000000000000000000000",
      "type": "0x2",
      "transactionHash": "0xcd25e4fa7486fec5a988d2d8d70d46b1092071a93858bf3bd25f70f80371ee00",
      "transactionIndex": "0xa",
      "blockHash": "0x90a82c59fb8b3adb66958ab97578cc3efcb639cc171b23d5a050bfbcbc1d25cd",
      "blockNumber": "0x114aa3a",
      "gasUsed": "0xbd08",
      "effectiveGasPrice": "0xf4340",
      "from": "0xe62ab4d111f968660c6b2188046f9b9ba53c4bae",
      "to": "0x41543a4c6423e2546fc58ac63117b5692d68c323",
      "contractAddress": null,
      "l1BaseFeeScalar": "0x44d",
      "l1BlobBaseFee": "0x1",
      "l1BlobBaseFeeScalar": "0xa118b",
      "l1Fee": "0x104dfc0d0d",
      "l1GasPrice": "0x9416d990d",
      "l1GasUsed": "0x640"
    },
    {
      "status": "0x1",
      "cumulativeGasUsed": "0x49045",
      "logs": [],
      "logsBloom": "0x00000000000000000000000000000000000000000000000000000000000000000000000000000000000000000000000000000000000000000000000000000000000000000000000000000000000000000000000000000000000000000000000000000000000000000000000000000000000000000000000000000000000000000000000000000000000000000000000000000000000000000000000000000000000000000000000000000000000000000000000000000000000000000000000000000000000000000000000000000000000000000000000000000000000000000000000000000000000000000000000000000000000000000000000000000000",
      "type": "0x2",
      "transactionHash": "0x4bb90224f2793d8848de39db852cf97a3b44f16ff36e935c2c16e6f19de66103",
      "transactionIndex": "0x4",
      "blockHash": "0x71919460ee85262cf0473930314c0ecef42d7b1fae04a750a62006512803c7a6",
      "blockNumber": "0x114aa3e",
      "gasUsed": "0xbd1f",
      "effectiveGasPrice": "0xf4340",
      "from": "0xe62ab4d111f968660c6b2188046f9b9ba53c4bae",
      "to": "0x41543a4c6423e2546fc58ac63117b5692d68c323",
      "contractAddress": null,
      "l1BaseFeeScalar": "0x44d",
      "l1BlobBaseFee": "0x1",
      "l1BlobBaseFeeScalar": "0xa118b",
      "l1Fee": "0xf375ce225",
      "l1GasPrice": "0x8a3439b6f",
      "l1GasUsed": "0x640"
    },
    {
      "status": "0x1",
      "cumulativeGasUsed": "0x32688",
      "logs": [],
      "logsBloom": "0x00000000000000000000000000000000000000000000000000000000000000000000000000000000000000000000000000000000000000000000000000000000000000000000000000000000000000000000000000000000000000000000000000000000000000000000000000000000000000000000000000000000000000000000000000000000000000000000000000000000000000000000000000000000000000000000000000000000000000000000000000000000000000000000000000000000000000000000000000000000000000000000000000000000000000000000000000000000000000000000000000000000000000000000000000000000",
      "type": "0x2",
      "transactionHash": "0xd5771ec9fd044ac0dcbfae9b8e3b51100d48925c3b72053e095a65271bfe77ba",
      "transactionIndex": "0x3",
      "blockHash": "0x25349fba20386553120fd4008247536d8467e79541846c38992fd1848cafc869",
      "blockNumber": "0x114aa41",
      "gasUsed": "0xbd36",
      "effectiveGasPrice": "0xf4344",
      "from": "0xe62ab4d111f968660c6b2188046f9b9ba53c4bae",
      "to": "0x41543a4c6423e2546fc58ac63117b5692d68c323",
      "contractAddress": null,
      "l1BaseFeeScalar": "0x44d",
      "l1BlobBaseFee": "0x1",
      "l1BlobBaseFeeScalar": "0xa118b",
      "l1Fee": "0xf375ce225",
      "l1GasPrice": "0x8a3439b6f",
      "l1GasUsed": "0x640"
    },
    {
      "status": "0x1",
      "cumulativeGasUsed": "0x3134a",
      "logs": [],
      "logsBloom": "0x00000000000000000000000000000000000000000000000000000000000000000000000000000000000000000000000000000000000000000000000000000000000000000000000000000000000000000000000000000000000000000000000000000000000000000000000000000000000000000000000000000000000000000000000000000000000000000000000000000000000000000000000000000000000000000000000000000000000000000000000000000000000000000000000000000000000000000000000000000000000000000000000000000000000000000000000000000000000000000000000000000000000000000000000000000000",
      "type": "0x2",
      "transactionHash": "0x841b71ac4c982624603d20fbcb15bb375d8dbe0e023d528cc78418e14639664e",
      "transactionIndex": "0x3",
      "blockHash": "0x8fe0e3177b163a74afc1be843356231bc9f363c60cac54513dd1d47ba13277f9",
      "blockNumber": "0x114aa45",
      "gasUsed": "0xbd4d",
      "effectiveGasPrice": "0xf4344",
      "from": "0xe62ab4d111f968660c6b2188046f9b9ba53c4bae",
      "to": "0x41543a4c6423e2546fc58ac63117b5692d68c323",
      "contractAddress": null,
      "l1BaseFeeScalar": "0x44d",
      "l1BlobBaseFee": "0x1",
      "l1BlobBaseFeeScalar": "0xa118b",
      "l1Fee": "0x111de43510",
      "l1GasPrice": "0x9b7732100",
      "l1GasUsed": "0x640"
    },
    {
      "status": "0x1",
      "cumulativeGasUsed": "0x7fa55",
      "logs": [],
      "logsBloom": "0x00000000000000000000000000000000000000000000000000000000000000000000000000000000000000000000000000000000000000000000000000000000000000000000000000000000000000000000000000000000000000000000000000000000000000000000000000000000000000000000000000000000000000000000000000000000000000000000000000000000000000000000000000000000000000000000000000000000000000000000000000000000000000000000000000000000000000000000000000000000000000000000000000000000000000000000000000000000000000000000000000000000000000000000000000000000",
      "type": "0x2",
      "transactionHash": "0x4d76fef1386d907696e0238f26ec9c501fb3d67fda0c405a68c1e3ee401c50d2",
      "transactionIndex": "0x6",
      "blockHash": "0x3414986203493f6ebca9210011435a7f28fb1f27db3b4feebb23d88fe48b91b5",
      "blockNumber": "0x114aa48",
      "gasUsed": "0xbd5f",
      "effectiveGasPrice": "0xf4344",
      "from": "0xe62ab4d111f968660c6b2188046f9b9ba53c4bae",
      "to": "0x41543a4c6423e2546fc58ac63117b5692d68c323",
      "contractAddress": null,
      "l1BaseFeeScalar": "0x44d",
      "l1BlobBaseFee": "0x1",
      "l1BlobBaseFeeScalar": "0xa118b",
      "l1Fee": "0x111de43510",
      "l1GasPrice": "0x9b7732100",
      "l1GasUsed": "0x640"
    },
    {
      "status": "0x1",
      "cumulativeGasUsed": "0x87d49",
      "logs": [],
      "logsBloom": "0x00000000000000000000000000000000000000000000000000000000000000000000000000000000000000000000000000000000000000000000000000000000000000000000000000000000000000000000000000000000000000000000000000000000000000000000000000000000000000000000000000000000000000000000000000000000000000000000000000000000000000000000000000000000000000000000000000000000000000000000000000000000000000000000000000000000000000000000000000000000000000000000000000000000000000000000000000000000000000000000000000000000000000000000000000000000",
      "type": "0x2",
      "transactionHash": "0xb510c86fc2b0899657f2ad7e64a67f277b36bed41a699d91192f1eb400bb1a45",
      "transactionIndex": "0x4",
      "blockHash": "0x04ea27b150927ccf7e4ecf1e1aae3b6b3c87f5dc6fa5361bbb31663c7d248194",
      "blockNumber": "0x114aa4c",
      "gasUsed": "0x224f8",
      "effectiveGasPrice": "0xf4343",
      "from": "0xe62ab4d111f968660c6b2188046f9b9ba53c4bae",
      "to": "0x41543a4c6423e2546fc58ac63117b5692d68c323",
      "contractAddress": null,
      "l1BaseFeeScalar": "0x44d",
      "l1BlobBaseFee": "0x1",
      "l1BlobBaseFeeScalar": "0xa118b",
      "l1Fee": "0x19196f8c69",
      "l1GasPrice": "0x9906e8a01",
      "l1GasUsed": "0x94f"
    },
    {
      "status": "0x1",
      "cumulativeGasUsed": "0x483fb",
      "logs": [],
      "logsBloom": "0x00000000000000000000000000000000000000000000000000000000000000000000000000000000000000000000000000000000000000000000000000000000000000000000000000000000000000000000000000000000000000000000000000000000000000000000000000000000000000000000000000000000000000000000000000000000000000000000000000000000000000000000000000000000000000000000000000000000000000000000000000000000000000000000000000000000000000000000000000000000000000000000000000000000000000000000000000000000000000000000000000000000000000000000000000000000",
      "type": "0x2",
      "transactionHash": "0xbc3b0eb54886dbbce5ce2c0da427df9f837d561dc8639366dc6af0cb4cf3090f",
      "transactionIndex": "0x3",
      "blockHash": "0x394542b40818b52cbdb210469b954c5b57ff738eff6c8b9a8ff5d8556f4414f0",
      "blockNumber": "0x114aa50",
      "gasUsed": "0x1e878",
      "effectiveGasPrice": "0xf4344",
      "from": "0xe62ab4d111f968660c6b2188046f9b9ba53c4bae",
      "to": "0x41543a4c6423e2546fc58ac63117b5692d68c323",
      "contractAddress": null,
      "l1BaseFeeScalar": "0x44d",
      "l1BlobBaseFee": "0x1",
      "l1BlobBaseFeeScalar": "0xa118b",
      "l1Fee": "0x18fc38c123",
      "l1GasPrice": "0x993100cbe",
      "l1GasUsed": "0x942"
    },
    {
      "status": "0x1",
      "cumulativeGasUsed": "0x95746",
      "logs": [],
      "logsBloom": "0x00000000000000000000000000000000000000000000000000000000000000000000000000000000000000000000000000000000000000000000000000000000000000000000000000000000000000000000000000000000000000000000000000000000000000000000000000000000000000000000000000000000000000000000000000000000000000000000000000000000000000000000000000000000000000000000000000000000000000000000000000000000000000000000000000000000000000000000000000000000000000000000000000000000000000000000000000000000000000000000000000000000000000000000000000000000",
      "type": "0x2",
      "transactionHash": "0x1cc90a8464879134c2bb70459c2c58066c0b32f609d52a89e697732771fdf646",
      "transactionIndex": "0x5",
      "blockHash": "0x5f2f9e077e85d78eff36bc21048ed1173c2741e72e4b7bd31a24c5e5307fe043",
      "blockNumber": "0x114aa53",
      "gasUsed": "0x24718",
      "effectiveGasPrice": "0xf4345",
      "from": "0xe62ab4d111f968660c6b2188046f9b9ba53c4bae",
      "to": "0x969035b34b913c507b87fd805fff608fb1fe13f0",
      "contractAddress": null,
      "l1BaseFeeScalar": "0x44d",
      "l1BlobBaseFee": "0x1",
      "l1BlobBaseFeeScalar": "0xa118b",
      "l1Fee": "0x17ff64b4cd",
      "l1GasPrice": "0x993100cbe",
      "l1GasUsed": "0x8e4"
    },
    {
      "status": "0x1",
      "cumulativeGasUsed": "0xe9081",
      "logs": [],
      "logsBloom": "0x00000000000000000000000000000000000000000000000000000000000000000000000000000000000000000000000000000000000000000000000000000000000000000000000000000000000000000000000000000000000000000000000000000000000000000000000000000000000000000000000000000000000000000000000000000000000000000000000000000000000000000000000000000000000000000000000000000000000000000000000000000000000000000000000000000000000000000000000000000000000000000000000000000000000000000000000000000000000000000000000000000000000000000000000000000000",
      "type": "0x2",
      "transactionHash": "0x890ce21ea5adb240381b8f4ebc3d899055d20bbf3937fe0dd851b233ac0f5fd8",
      "transactionIndex": "0x4",
      "blockHash": "0xb4f17c5ff68cffc57dc1712ea48f3e214ba409c61d5e38195f7755adb46ab836",
      "blockNumber": "0x114aa57",
      "gasUsed": "0x43c90",
      "effectiveGasPrice": "0xf4346",
      "from": "0xe62ab4d111f968660c6b2188046f9b9ba53c4bae",
      "to": "0x969035b34b913c507b87fd805fff608fb1fe13f0",
      "contractAddress": null,
      "l1BaseFeeScalar": "0x44d",
      "l1BlobBaseFee": "0x1",
      "l1BlobBaseFeeScalar": "0xa118b",
      "l1Fee": "0x20c954647c",
      "l1GasPrice": "0x8e586c5bf",
      "l1GasUsed": "0xd13"
    },
    {
      "status": "0x1",
      "cumulativeGasUsed": "0xadcd0",
      "logs": [],
      "logsBloom": "0x00000000000000000000000000000000000000000000000000000000000000000000000000000000000000000000000000000000000000000000000000000000000000000000000000000000000000000000000000000000000000000000000000000000000000000000000000000000000000000000000000000000000000000000000000000000000000000000000000000000000000000000000000000000000000000000000000000000000000000000000000000000000000000000000000000000000000000000000000000000000000000000000000000000000000000000000000000000000000000000000000000000000000000000000000000000",
      "type": "0x2",
      "transactionHash": "0xfa6f75a82c1c29b6aa6c56919c90a90c73f950cd81f457ca2d6f1a283b64fe44",
      "transactionIndex": "0x6",
      "blockHash": "0x16e9ca97efd673143ecd6af845cd67a60487be093e25095ff2e4e2c59204940b",
      "blockNumber": "0x114aa5b",
      "gasUsed": "0x4402b",
      "effectiveGasPrice": "0xf4348",
      "from": "0xe62ab4d111f968660c6b2188046f9b9ba53c4bae",
      "to": "0x969035b34b913c507b87fd805fff608fb1fe13f0",
      "contractAddress": null,
      "l1BaseFeeScalar": "0x44d",
      "l1BlobBaseFee": "0x1",
      "l1BlobBaseFeeScalar": "0xa118b",
      "l1Fee": "0x1e8ed08987",
      "l1GasPrice": "0x85bd471df",
      "l1GasUsed": "0xcf8"
    }
  ],
  "libraries": [],
  "pending": [],
  "returns": {},
  "timestamp": 1732031387,
  "chain": 84532,
  "commit": "b96f5048"
}