{
  "transactions": [
    {
      "hash": "0xc21c7ac81bd7a523ed597e26d15c34e7c23e9f2f57edd8c83f86444c673b183c",
      "transactionType": "CALL",
      "contractName": "FeeManager",
      "contractAddress": "0x9bfab09e477e0e931f292c8132f2579883c6921a",
      "function": "getFeeTokenList()",
      "arguments": [],
      "transaction": {
        "from": "0xe62ab4d111f968660c6b2188046f9b9ba53c4bae",
        "to": "0x9bfab09e477e0e931f292c8132f2579883c6921a",
        "gas": "0x8a7e",
        "value": "0x0",
        "input": "0xe28ab277",
        "nonce": "0x26e",
        "chainId": "0x14a34"
      },
      "additionalContracts": [],
      "isFixedGasLimit": false
    },
    {
      "hash": "0x8d51a2138af13387729596d2e16425ce40fc3e06d34f030d2408bacdc31032d7",
      "transactionType": "CALL",
      "contractName": "FeeManager",
      "contractAddress": "0x9bfab09e477e0e931f292c8132f2579883c6921a",
      "function": "addFeeToken(string)",
      "arguments": [
        "0x6a4dbc971533ba36bdc23ad70f5a7a12e064f4ae"
      ],
      "transaction": {
        "from": "0xe62ab4d111f968660c6b2188046f9b9ba53c4bae",
        "to": "0x9bfab09e477e0e931f292c8132f2579883c6921a",
        "gas": "0x2696b",
        "value": "0x0",
        "input": "0x12a6385f0000000000000000000000000000000000000000000000000000000000000020000000000000000000000000000000000000000000000000000000000000002a30783661346462633937313533336261333662646332336164373066356137613132653036346634616500000000000000000000000000000000000000000000",
        "nonce": "0x26f",
        "chainId": "0x14a34"
      },
      "additionalContracts": [],
      "isFixedGasLimit": false
    },
    {
      "hash": "0xa1c9cceb9963bc8b8acc7258c28292a0b13e252b38d7fed437d69d7992043256",
      "transactionType": "CALL",
      "contractName": "FeeManager",
      "contractAddress": "0x9bfab09e477e0e931f292c8132f2579883c6921a",
      "function": "setFeeMultiplier(uint8,uint256)",
      "arguments": [
        "0",
        "2"
      ],
      "transaction": {
        "from": "0xe62ab4d111f968660c6b2188046f9b9ba53c4bae",
        "to": "0x9bfab09e477e0e931f292c8132f2579883c6921a",
        "gas": "0x112e8",
        "value": "0x0",
        "input": "0x0ee24eb500000000000000000000000000000000000000000000000000000000000000000000000000000000000000000000000000000000000000000000000000000002",
        "nonce": "0x270",
        "chainId": "0x14a34"
      },
      "additionalContracts": [],
      "isFixedGasLimit": false
    },
    {
      "hash": "0x1022774df202ca9216a9d6ca9670b780cacf4d178454e80d6f8a4cca44ef187a",
      "transactionType": "CALL",
      "contractName": "FeeManager",
      "contractAddress": "0x9bfab09e477e0e931f292c8132f2579883c6921a",
      "function": "setFeeMultiplier(uint8,uint256)",
      "arguments": [
        "1",
        "10"
      ],
      "transaction": {
        "from": "0xe62ab4d111f968660c6b2188046f9b9ba53c4bae",
        "to": "0x9bfab09e477e0e931f292c8132f2579883c6921a",
        "gas": "0x11324",
        "value": "0x0",
        "input": "0x0ee24eb50000000000000000000000000000000000000000000000000000000000000001000000000000000000000000000000000000000000000000000000000000000a",
        "nonce": "0x271",
        "chainId": "0x14a34"
      },
      "additionalContracts": [],
      "isFixedGasLimit": false
    },
    {
      "hash": "0x9287a3b22c86ea805d4d7130b2b201a10636ec0905875667ac26d3135bef1fff",
      "transactionType": "CALL",
      "contractName": "FeeManager",
      "contractAddress": "0x9bfab09e477e0e931f292c8132f2579883c6921a",
      "function": "setFeeMultiplier(uint8,uint256)",
      "arguments": [
        "2",
        "1"
      ],
      "transaction": {
        "from": "0xe62ab4d111f968660c6b2188046f9b9ba53c4bae",
        "to": "0x9bfab09e477e0e931f292c8132f2579883c6921a",
        "gas": "0x11346",
        "value": "0x0",
        "input": "0x0ee24eb500000000000000000000000000000000000000000000000000000000000000020000000000000000000000000000000000000000000000000000000000000001",
        "nonce": "0x272",
        "chainId": "0x14a34"
      },
      "additionalContracts": [],
      "isFixedGasLimit": false
    },
    {
      "hash": "0x58c2bd2236853abf002a8df84a5c09d646c497c23af75dfc56e47a812012c21b",
      "transactionType": "CALL",
      "contractName": "FeeManager",
      "contractAddress": "0x9bfab09e477e0e931f292c8132f2579883c6921a",
      "function": "setFeeMultiplier(uint8,uint256)",
      "arguments": [
        "3",
        "4"
      ],
      "transaction": {
        "from": "0xe62ab4d111f968660c6b2188046f9b9ba53c4bae",
        "to": "0x9bfab09e477e0e931f292c8132f2579883c6921a",
        "gas": "0x1041b",
        "value": "0x0",
        "input": "0x0ee24eb500000000000000000000000000000000000000000000000000000000000000030000000000000000000000000000000000000000000000000000000000000004",
        "nonce": "0x273",
        "chainId": "0x14a34"
      },
      "additionalContracts": [],
      "isFixedGasLimit": false
    },
    {
      "hash": "0xd7698d3a5722a75bb37c1f3f89cdf32253e9098ccff2309aa4cf7416f0e64e3c",
      "transactionType": "CALL",
      "contractName": "FeeManager",
      "contractAddress": "0x9bfab09e477e0e931f292c8132f2579883c6921a",
      "function": "setFeeMultiplier(uint8,uint256)",
      "arguments": [
        "4",
        "4"
      ],
      "transaction": {
        "from": "0xe62ab4d111f968660c6b2188046f9b9ba53c4bae",
        "to": "0x9bfab09e477e0e931f292c8132f2579883c6921a",
        "gas": "0x1043a",
        "value": "0x0",
        "input": "0x0ee24eb500000000000000000000000000000000000000000000000000000000000000040000000000000000000000000000000000000000000000000000000000000004",
        "nonce": "0x274",
        "chainId": "0x14a34"
      },
      "additionalContracts": [],
      "isFixedGasLimit": false
    },
    {
      "hash": "0x6bb0166c6a04ae0b3c350c33e064c1e4cc049cd4bdca4538061ec12cd6474dd2",
      "transactionType": "CALL",
      "contractName": "FeeManager",
      "contractAddress": "0x9bfab09e477e0e931f292c8132f2579883c6921a",
      "function": "setFeeMultiplier(uint8,uint256)",
      "arguments": [
        "5",
        "4"
      ],
      "transaction": {
        "from": "0xe62ab4d111f968660c6b2188046f9b9ba53c4bae",
        "to": "0x9bfab09e477e0e931f292c8132f2579883c6921a",
        "gas": "0x10459",
        "value": "0x0",
        "input": "0x0ee24eb500000000000000000000000000000000000000000000000000000000000000050000000000000000000000000000000000000000000000000000000000000004",
        "nonce": "0x275",
        "chainId": "0x14a34"
      },
      "additionalContracts": [],
      "isFixedGasLimit": false
    },
    {
      "hash": "0xf3cab6dafb759d9f93f5b62cf3d8358d3af7a6c80223d133f19a100c91880e3a",
      "transactionType": "CALL",
      "contractName": "FeeManager",
      "contractAddress": "0x9bfab09e477e0e931f292c8132f2579883c6921a",
      "function": "setFeeMultiplier(uint8,uint256)",
      "arguments": [
        "6",
        "8"
      ],
      "transaction": {
        "from": "0xe62ab4d111f968660c6b2188046f9b9ba53c4bae",
        "to": "0x9bfab09e477e0e931f292c8132f2579883c6921a",
        "gas": "0x1047a",
        "value": "0x0",
        "input": "0x0ee24eb500000000000000000000000000000000000000000000000000000000000000060000000000000000000000000000000000000000000000000000000000000008",
        "nonce": "0x276",
        "chainId": "0x14a34"
      },
      "additionalContracts": [],
      "isFixedGasLimit": false
    },
    {
      "hash": "0x103ff0084f99f2d494624cf03605741c4cbfb07a9b95ff19f347a94556e525e9",
      "transactionType": "CALL",
      "contractName": "FeeManager",
      "contractAddress": "0x9bfab09e477e0e931f292c8132f2579883c6921a",
      "function": "setFeeMultiplier(uint8,uint256)",
      "arguments": [
        "7",
        "4"
      ],
      "transaction": {
        "from": "0xe62ab4d111f968660c6b2188046f9b9ba53c4bae",
        "to": "0x9bfab09e477e0e931f292c8132f2579883c6921a",
        "gas": "0x10499",
        "value": "0x0",
        "input": "0x0ee24eb500000000000000000000000000000000000000000000000000000000000000070000000000000000000000000000000000000000000000000000000000000004",
        "nonce": "0x277",
        "chainId": "0x14a34"
      },
      "additionalContracts": [],
      "isFixedGasLimit": false
    },
    {
      "hash": "0xd60fce704ed60585a91e78401235f7685d066170a1754b89b42803f2ff076c29",
      "transactionType": "CALL",
      "contractName": "FeeManager",
      "contractAddress": "0x9bfab09e477e0e931f292c8132f2579883c6921a",
      "function": "setFeeMultiplier(uint8,uint256)",
      "arguments": [
        "8",
        "10"
      ],
      "transaction": {
        "from": "0xe62ab4d111f968660c6b2188046f9b9ba53c4bae",
        "to": "0x9bfab09e477e0e931f292c8132f2579883c6921a",
        "gas": "0x1140f",
        "value": "0x0",
        "input": "0x0ee24eb50000000000000000000000000000000000000000000000000000000000000008000000000000000000000000000000000000000000000000000000000000000a",
        "nonce": "0x278",
        "chainId": "0x14a34"
      },
      "additionalContracts": [],
      "isFixedGasLimit": false
    },
    {
      "hash": "0x5561821a0be65e4025a816293a64f5ffa9c5f798af51eaf48afc4f1fc662fac4",
      "transactionType": "CALL",
      "contractName": "FeeManager",
      "contractAddress": "0x9bfab09e477e0e931f292c8132f2579883c6921a",
      "function": "setFeeMultiplier(uint8,uint256)",
      "arguments": [
        "9",
        "8"
      ],
      "transaction": {
        "from": "0xe62ab4d111f968660c6b2188046f9b9ba53c4bae",
        "to": "0x9bfab09e477e0e931f292c8132f2579883c6921a",
        "gas": "0x11431",
        "value": "0x0",
        "input": "0x0ee24eb500000000000000000000000000000000000000000000000000000000000000090000000000000000000000000000000000000000000000000000000000000008",
        "nonce": "0x279",
        "chainId": "0x14a34"
      },
      "additionalContracts": [],
      "isFixedGasLimit": false
    },
    {
      "hash": "0x3e4bafb1f82c2f59dbd219b82201b9bf3895a43af03906286b5883204c566f49",
      "transactionType": "CALL",
      "contractName": "FeeManager",
      "contractAddress": "0x9bfab09e477e0e931f292c8132f2579883c6921a",
      "function": "setFeeMultiplier(uint8,uint256)",
      "arguments": [
        "10",
        "8"
      ],
      "transaction": {
        "from": "0xe62ab4d111f968660c6b2188046f9b9ba53c4bae",
        "to": "0x9bfab09e477e0e931f292c8132f2579883c6921a",
        "gas": "0x11453",
        "value": "0x0",
        "input": "0x0ee24eb5000000000000000000000000000000000000000000000000000000000000000a0000000000000000000000000000000000000000000000000000000000000008",
        "nonce": "0x27a",
        "chainId": "0x14a34"
      },
      "additionalContracts": [],
      "isFixedGasLimit": false
    },
    {
      "hash": "0x58501858034d1414bdd7aec529d7e2e28f00ad4bddaa411365649b37e2f29ab3",
      "transactionType": "CALL",
      "contractName": "FeeManager",
      "contractAddress": "0x9bfab09e477e0e931f292c8132f2579883c6921a",
      "function": "setFeeMultiplier(uint8,uint256)",
      "arguments": [
        "11",
        "8"
      ],
      "transaction": {
        "from": "0xe62ab4d111f968660c6b2188046f9b9ba53c4bae",
        "to": "0x9bfab09e477e0e931f292c8132f2579883c6921a",
        "gas": "0x10518",
        "value": "0x0",
        "input": "0x0ee24eb5000000000000000000000000000000000000000000000000000000000000000b0000000000000000000000000000000000000000000000000000000000000008",
        "nonce": "0x27b",
        "chainId": "0x14a34"
      },
      "additionalContracts": [],
      "isFixedGasLimit": false
    },
    {
      "hash": "0x0be41e74994974e6af0f0ba0907b5c14cb6c17cd16f80985fc17ba4a35daf88a",
      "transactionType": "CALL",
      "contractName": "FeeManager",
      "contractAddress": "0x9bfab09e477e0e931f292c8132f2579883c6921a",
      "function": "setFeeMultiplier(uint8,uint256)",
      "arguments": [
        "12",
        "20"
      ],
      "transaction": {
        "from": "0xe62ab4d111f968660c6b2188046f9b9ba53c4bae",
        "to": "0x9bfab09e477e0e931f292c8132f2579883c6921a",
        "gas": "0x10538",
        "value": "0x0",
        "input": "0x0ee24eb5000000000000000000000000000000000000000000000000000000000000000c0000000000000000000000000000000000000000000000000000000000000014",
        "nonce": "0x27c",
        "chainId": "0x14a34"
      },
      "additionalContracts": [],
      "isFixedGasLimit": false
    },
    {
      "hash": "0xd331a142a7c56e08f487b3af1a6aa39d7329107495fd885b29ac45d0e1f040e5",
      "transactionType": "CALL",
      "contractName": "FeeManager",
      "contractAddress": "0x9bfab09e477e0e931f292c8132f2579883c6921a",
      "function": "setFeeMultiplier(uint8,uint256)",
      "arguments": [
        "13",
        "8"
      ],
      "transaction": {
        "from": "0xe62ab4d111f968660c6b2188046f9b9ba53c4bae",
        "to": "0x9bfab09e477e0e931f292c8132f2579883c6921a",
        "gas": "0x10558",
        "value": "0x0",
        "input": "0x0ee24eb5000000000000000000000000000000000000000000000000000000000000000d0000000000000000000000000000000000000000000000000000000000000008",
        "nonce": "0x27d",
        "chainId": "0x14a34"
      },
      "additionalContracts": [],
      "isFixedGasLimit": false
    },
    {
      "hash": "0x2f1a77ad08183e1b9a092c22fec36cf30e191befdec6cb2cde896b1c4f1506e7",
      "transactionType": "CALL",
      "contractName": "FeeManager",
      "contractAddress": "0x9bfab09e477e0e931f292c8132f2579883c6921a",
      "function": "setFeeMultiplier(uint8,uint256)",
      "arguments": [
        "14",
        "4"
      ],
      "transaction": {
        "from": "0xe62ab4d111f968660c6b2188046f9b9ba53c4bae",
        "to": "0x9bfab09e477e0e931f292c8132f2579883c6921a",
        "gas": "0x10577",
        "value": "0x0",
        "input": "0x0ee24eb5000000000000000000000000000000000000000000000000000000000000000e0000000000000000000000000000000000000000000000000000000000000004",
        "nonce": "0x27e",
        "chainId": "0x14a34"
      },
      "additionalContracts": [],
      "isFixedGasLimit": false
    },
    {
      "hash": "0x3042d8ee4927aab20ccddfe83efccbb0d1c8873af7374db25544ea6cb2e3783c",
      "transactionType": "CALL",
      "contractName": "FeeManager",
      "contractAddress": "0x9bfab09e477e0e931f292c8132f2579883c6921a",
      "function": "setFeeMultiplier(uint8,uint256)",
      "arguments": [
        "15",
        "4"
      ],
      "transaction": {
        "from": "0xe62ab4d111f968660c6b2188046f9b9ba53c4bae",
        "to": "0x9bfab09e477e0e931f292c8132f2579883c6921a",
        "gas": "0x10598",
        "value": "0x0",
        "input": "0x0ee24eb5000000000000000000000000000000000000000000000000000000000000000f0000000000000000000000000000000000000000000000000000000000000004",
        "nonce": "0x27f",
        "chainId": "0x14a34"
      },
      "additionalContracts": [],
      "isFixedGasLimit": false
    },
    {
      "hash": "0x9169cced7e060905290d9123de6fd5ae996618db0cb81c16e7db4127f76852c1",
      "transactionType": "CALL",
      "contractName": "FeeManager",
      "contractAddress": "0x9bfab09e477e0e931f292c8132f2579883c6921a",
      "function": "setFeeMultiplier(uint8,uint256)",
      "arguments": [
        "16",
        "4"
      ],
      "transaction": {
        "from": "0xe62ab4d111f968660c6b2188046f9b9ba53c4bae",
        "to": "0x9bfab09e477e0e931f292c8132f2579883c6921a",
        "gas": "0x1151d",
        "value": "0x0",
        "input": "0x0ee24eb500000000000000000000000000000000000000000000000000000000000000100000000000000000000000000000000000000000000000000000000000000004",
        "nonce": "0x280",
        "chainId": "0x14a34"
      },
      "additionalContracts": [],
      "isFixedGasLimit": false
    },
    {
      "hash": "0xb09aff93142d71ebb0af8173f280027c4db1276be38d52b9677528ee673832cb",
      "transactionType": "CALL",
      "contractName": "FeeManager",
      "contractAddress": "0x9bfab09e477e0e931f292c8132f2579883c6921a",
      "function": "setFeeMultiplier(uint8,uint256)",
      "arguments": [
        "17",
        "4"
      ],
      "transaction": {
        "from": "0xe62ab4d111f968660c6b2188046f9b9ba53c4bae",
        "to": "0x9bfab09e477e0e931f292c8132f2579883c6921a",
        "gas": "0x1153e",
        "value": "0x0",
        "input": "0x0ee24eb500000000000000000000000000000000000000000000000000000000000000110000000000000000000000000000000000000000000000000000000000000004",
        "nonce": "0x281",
        "chainId": "0x14a34"
      },
      "additionalContracts": [],
      "isFixedGasLimit": false
    },
    {
      "hash": "0x30f5f0f6e82c71091e692bd008fa88843839afc20c793e54902525cfad8ba9b7",
      "transactionType": "CALL",
      "contractName": "FeeManager",
      "contractAddress": "0x9bfab09e477e0e931f292c8132f2579883c6921a",
      "function": "setFeeMultiplier(uint8,uint256)",
      "arguments": [
        "18",
        "2"
      ],
      "transaction": {
        "from": "0xe62ab4d111f968660c6b2188046f9b9ba53c4bae",
        "to": "0x9bfab09e477e0e931f292c8132f2579883c6921a",
        "gas": "0x11560",
        "value": "0x0",
        "input": "0x0ee24eb500000000000000000000000000000000000000000000000000000000000000120000000000000000000000000000000000000000000000000000000000000002",
        "nonce": "0x282",
        "chainId": "0x14a34"
      },
      "additionalContracts": [],
      "isFixedGasLimit": false
    },
    {
      "hash": "0x6e6945cb7ec8ec43d92468c01fffa723c2c08d18f8eea7a54496e3c87ad5e17a",
      "transactionType": "CALL",
      "contractName": "FeeManager",
      "contractAddress": "0x9bfab09e477e0e931f292c8132f2579883c6921a",
      "function": "setFeeMultiplier(uint8,uint256)",
      "arguments": [
        "19",
        "2"
      ],
      "transaction": {
        "from": "0xe62ab4d111f968660c6b2188046f9b9ba53c4bae",
        "to": "0x9bfab09e477e0e931f292c8132f2579883c6921a",
        "gas": "0x1157a",
        "value": "0x0",
        "input": "0x0ee24eb500000000000000000000000000000000000000000000000000000000000000130000000000000000000000000000000000000000000000000000000000000002",
        "nonce": "0x283",
        "chainId": "0x14a34"
      },
      "additionalContracts": [],
      "isFixedGasLimit": false
    },
    {
      "hash": "0x03b012c58d68fbea57105ca6b63a9afae129942342d37d1202af66ae440fa284",
      "transactionType": "CALL",
      "contractName": "FeeManager",
      "contractAddress": "0x9bfab09e477e0e931f292c8132f2579883c6921a",
      "function": "addFeeToken(string,string[],uint256[])",
      "arguments": [
        "421614",
        "[0x6a4dbc971533ba36bdc23ad70f5a7a12e064f4ae]",
        "[100]"
      ],
      "transaction": {
        "from": "0xe62ab4d111f968660c6b2188046f9b9ba53c4bae",
        "to": "0x9bfab09e477e0e931f292c8132f2579883c6921a",
        "gas": "0x2f631",
        "value": "0x0",
        "input": "0x437bf84f000000000000000000000000000000000000000000000000000000000000006000000000000000000000000000000000000000000000000000000000000000a000000000000000000000000000000000000000000000000000000000000001400000000000000000000000000000000000000000000000000000000000000006343231363134000000000000000000000000000000000000000000000000000000000000000000000000000000000000000000000000000000000000000000010000000000000000000000000000000000000000000000000000000000000020000000000000000000000000000000000000000000000000000000000000002a3078366134646263393731353333626133366264633233616437306635613761313265303634663461650000000000000000000000000000000000000000000000000000000000000000000000000000000000000000000000000000000000010000000000000000000000000000000000000000000000000000000000000064",
        "nonce": "0x284",
        "chainId": "0x14a34"
      },
      "additionalContracts": [],
      "isFixedGasLimit": false
    },
    {
      "hash": "0x65fd6f4fa933f3bfb15413eae5dc4e2d894079ab908727b965bc30678bd8f66b",
      "transactionType": "CALL",
      "contractName": "FeeManager",
      "contractAddress": "0x9bfab09e477e0e931f292c8132f2579883c6921a",
      "function": "addFeeToken(string,string[],uint256[])",
      "arguments": [
        "80002",
        "[0x6a4dbc971533ba36bdc23ad70f5a7a12e064f4ae]",
        "[100]"
      ],
      "transaction": {
        "from": "0xe62ab4d111f968660c6b2188046f9b9ba53c4bae",
        "to": "0x9bfab09e477e0e931f292c8132f2579883c6921a",
        "gas": "0x2a2a1",
        "value": "0x0",
        "input": "0x437bf84f000000000000000000000000000000000000000000000000000000000000006000000000000000000000000000000000000000000000000000000000000000a000000000000000000000000000000000000000000000000000000000000001400000000000000000000000000000000000000000000000000000000000000005383030303200000000000000000000000000000000000000000000000000000000000000000000000000000000000000000000000000000000000000000000010000000000000000000000000000000000000000000000000000000000000020000000000000000000000000000000000000000000000000000000000000002a3078366134646263393731353333626133366264633233616437306635613761313265303634663461650000000000000000000000000000000000000000000000000000000000000000000000000000000000000000000000000000000000010000000000000000000000000000000000000000000000000000000000000064",
        "nonce": "0x285",
        "chainId": "0x14a34"
      },
      "additionalContracts": [],
      "isFixedGasLimit": false
    },
    {
      "hash": "0xf1b51ebac6aa9387c1fc6676ad07846a645324531f0ca20bf65fd2cd624d34f4",
      "transactionType": "CALL",
      "contractName": "FeeManager",
      "contractAddress": "0x9bfab09e477e0e931f292c8132f2579883c6921a",
      "function": "addFeeToken(string,string[],uint256[])",
      "arguments": [
        "84532",
        "[0x6a4dbc971533ba36bdc23ad70f5a7a12e064f4ae]",
        "[100]"
      ],
      "transaction": {
        "from": "0xe62ab4d111f968660c6b2188046f9b9ba53c4bae",
        "to": "0x9bfab09e477e0e931f292c8132f2579883c6921a",
        "gas": "0x2a2a1",
        "value": "0x0",
        "input": "0x437bf84f000000000000000000000000000000000000000000000000000000000000006000000000000000000000000000000000000000000000000000000000000000a000000000000000000000000000000000000000000000000000000000000001400000000000000000000000000000000000000000000000000000000000000005383435333200000000000000000000000000000000000000000000000000000000000000000000000000000000000000000000000000000000000000000000010000000000000000000000000000000000000000000000000000000000000020000000000000000000000000000000000000000000000000000000000000002a3078366134646263393731353333626133366264633233616437306635613761313265303634663461650000000000000000000000000000000000000000000000000000000000000000000000000000000000000000000000000000000000010000000000000000000000000000000000000000000000000000000000000064",
        "nonce": "0x286",
        "chainId": "0x14a34"
      },
      "additionalContracts": [],
      "isFixedGasLimit": false
    },
    {
      "hash": "0xd005a10ddb3fc2bfe7c59f18db430dfe0b4d50f2fa00a7e2d9100cd95aa7e008",
      "transactionType": "CALL",
      "contractName": "FeeManager",
      "contractAddress": "0x9bfab09e477e0e931f292c8132f2579883c6921a",
      "function": "addFeeToken(string,string[],uint256[])",
      "arguments": [
        "97",
        "[0x6a4dbc971533ba36bdc23ad70f5a7a12e064f4ae]",
        "[100]"
      ],
      "transaction": {
        "from": "0xe62ab4d111f968660c6b2188046f9b9ba53c4bae",
        "to": "0x9bfab09e477e0e931f292c8132f2579883c6921a",
        "gas": "0x29c5a",
        "value": "0x0",
        "input": "0x437bf84f000000000000000000000000000000000000000000000000000000000000006000000000000000000000000000000000000000000000000000000000000000a000000000000000000000000000000000000000000000000000000000000001400000000000000000000000000000000000000000000000000000000000000002393700000000000000000000000000000000000000000000000000000000000000000000000000000000000000000000000000000000000000000000000000010000000000000000000000000000000000000000000000000000000000000020000000000000000000000000000000000000000000000000000000000000002a3078366134646263393731353333626133366264633233616437306635613761313265303634663461650000000000000000000000000000000000000000000000000000000000000000000000000000000000000000000000000000000000010000000000000000000000000000000000000000000000000000000000000064",
        "nonce": "0x287",
        "chainId": "0x14a34"
      },
      "additionalContracts": [],
      "isFixedGasLimit": false
    },
    {
      "hash": "0x508c59e14e733ba90de01563d9298866dd1abb10db36af393066c984b5b69ec7",
      "transactionType": "CALL",
      "contractName": "FeeManager",
      "contractAddress": "0x9bfab09e477e0e931f292c8132f2579883c6921a",
      "function": "addFeeToken(string,string[],uint256[])",
      "arguments": [
        "11155111",
        "[0x6a4dbc971533ba36bdc23ad70f5a7a12e064f4ae]",
        "[100]"
      ],
      "transaction": {
        "from": "0xe62ab4d111f968660c6b2188046f9b9ba53c4bae",
        "to": "0x9bfab09e477e0e931f292c8132f2579883c6921a",
        "gas": "0x2a8e9",
        "value": "0x0",
        "input": "0x437bf84f000000000000000000000000000000000000000000000000000000000000006000000000000000000000000000000000000000000000000000000000000000a000000000000000000000000000000000000000000000000000000000000001400000000000000000000000000000000000000000000000000000000000000008313131353531313100000000000000000000000000000000000000000000000000000000000000000000000000000000000000000000000000000000000000010000000000000000000000000000000000000000000000000000000000000020000000000000000000000000000000000000000000000000000000000000002a3078366134646263393731353333626133366264633233616437306635613761313265303634663461650000000000000000000000000000000000000000000000000000000000000000000000000000000000000000000000000000000000010000000000000000000000000000000000000000000000000000000000000064",
        "nonce": "0x288",
        "chainId": "0x14a34"
      },
      "additionalContracts": [],
      "isFixedGasLimit": false
    },
    {
      "hash": "0x775e370257335422574c78becfa6c4bd0e3f6e80903cc31baa40ca502a08128a",
      "transactionType": "CALL",
      "contractName": "CTMRWAGateway",
      "contractAddress": "0x2d1967ef42ecf9a42785d08398aadba806aa090b",
      "function": "addChainContract(string[],string[])",
      "arguments": [
        "[421614, 80002, 97, 11155111]",
        "[0x9b81c6a2a62eea2a814afdbb5d69ce0592e1c751, 0x1249d751e6a0b7b11b9e55cbf8bc7d397ac3c083, 0x1392fc45312550197adf2039de80e8da58fc72a3, 0xb07c3788549cd48ad1d4cb9b7336f7c9dd53d67f]"
      ],
      "transaction": {
        "from": "0xe62ab4d111f968660c6b2188046f9b9ba53c4bae",
        "to": "0x2d1967ef42ecf9a42785d08398aadba806aa090b",
        "gas": "0xaa791",
        "value": "0x0",
        "input": "0x013fd3bd000000000000000000000000000000000000000000000000000000000000004000000000000000000000000000000000000000000000000000000000000001e00000000000000000000000000000000000000000000000000000000000000004000000000000000000000000000000000000000000000000000000000000008000000000000000000000000000000000000000000000000000000000000000c000000000000000000000000000000000000000000000000000000000000001000000000000000000000000000000000000000000000000000000000000000140000000000000000000000000000000000000000000000000000000000000000634323136313400000000000000000000000000000000000000000000000000000000000000000000000000000000000000000000000000000000000000000005383030303200000000000000000000000000000000000000000000000000000000000000000000000000000000000000000000000000000000000000000000023937000000000000000000000000000000000000000000000000000000000000000000000000000000000000000000000000000000000000000000000000000831313135353131310000000000000000000000000000000000000000000000000000000000000000000000000000000000000000000000000000000000000004000000000000000000000000000000000000000000000000000000000000008000000000000000000000000000000000000000000000000000000000000000e0000000000000000000000000000000000000000000000000000000000000014000000000000000000000000000000000000000000000000000000000000001a0000000000000000000000000000000000000000000000000000000000000002a30783962383163366132613632656561326138313461666462623564363963653035393265316337353100000000000000000000000000000000000000000000000000000000000000000000000000000000000000000000000000000000002a30783132343964373531653661306237623131623965353563626638626337643339376163336330383300000000000000000000000000000000000000000000000000000000000000000000000000000000000000000000000000000000002a30783133393266633435333132353530313937616466323033396465383065386461353866633732613300000000000000000000000000000000000000000000000000000000000000000000000000000000000000000000000000000000002a30786230376333373838353439636434386164316434636239623733333666376339646435336436376600000000000000000000000000000000000000000000",
        "nonce": "0x289",
        "chainId": "0x14a34"
      },
      "additionalContracts": [],
      "isFixedGasLimit": false
    },
    {
      "hash": "0xebc4b2749714f7191938e9fef391a53795bde29577eac189660c3cf3c4146660",
      "transactionType": "CALL",
      "contractName": "CTMRWAGateway",
      "contractAddress": "0x2d1967ef42ecf9a42785d08398aadba806aa090b",
      "function": "attachRWAX(uint256,uint256,string[],string[])",
      "arguments": [
        "1",
        "1",
        "[84532, 421614, 80002, 97, 11155111]",
        "[0xa09e913fa1aa5383a90ad6d8b94bc3dabee90332, 0xe0f1cd117107457bc14c2f1b82e218157c2a620c, 0x797aa64f83e4d17c2c6c80321f22445aab153630, 0xc5070659d0290f2eb2b1ed886f3f7574fde5c4be, 0x69d461e1314af5e3bcab39f0eba3872c5de2c1e5]"
      ],
      "transaction": {
        "from": "0xe62ab4d111f968660c6b2188046f9b9ba53c4bae",
        "to": "0x2d1967ef42ecf9a42785d08398aadba806aa090b",
        "gas": "0x1059c5",
        "value": "0x0",
        "input": "0x33a5f5b40000000000000000000000000000000000000000000000000000000000000001000000000000000000000000000000000000000000000000000000000000000100000000000000000000000000000000000000000000000000000000000000800000000000000000000000000000000000000000000000000000000000000280000000000000000000000000000000000000000000000000000000000000000500000000000000000000000000000000000000000000000000000000000000a000000000000000000000000000000000000000000000000000000000000000e00000000000000000000000000000000000000000000000000000000000000120000000000000000000000000000000000000000000000000000000000000016000000000000000000000000000000000000000000000000000000000000001a00000000000000000000000000000000000000000000000000000000000000005383435333200000000000000000000000000000000000000000000000000000000000000000000000000000000000000000000000000000000000000000000063432313631340000000000000000000000000000000000000000000000000000000000000000000000000000000000000000000000000000000000000000000538303030320000000000000000000000000000000000000000000000000000000000000000000000000000000000000000000000000000000000000000000002393700000000000000000000000000000000000000000000000000000000000000000000000000000000000000000000000000000000000000000000000000083131313535313131000000000000000000000000000000000000000000000000000000000000000000000000000000000000000000000000000000000000000500000000000000000000000000000000000000000000000000000000000000a00000000000000000000000000000000000000000000000000000000000000100000000000000000000000000000000000000000000000000000000000000016000000000000000000000000000000000000000000000000000000000000001c00000000000000000000000000000000000000000000000000000000000000220000000000000000000000000000000000000000000000000000000000000002a30786130396539313366613161613533383361393061643664386239346263336461626565393033333200000000000000000000000000000000000000000000000000000000000000000000000000000000000000000000000000000000002a30786530663163643131373130373435376263313463326631623832653231383135376332613632306300000000000000000000000000000000000000000000000000000000000000000000000000000000000000000000000000000000002a30783739376161363466383365346431376332633663383033323166323234343561616231353336333000000000000000000000000000000000000000000000000000000000000000000000000000000000000000000000000000000000002a30786335303730363539643032393066326562326231656438383666336637353734666465356334626500000000000000000000000000000000000000000000000000000000000000000000000000000000000000000000000000000000002a30783639643436316531333134616635653362636162333966306562613338373263356465326331653500000000000000000000000000000000000000000000",
        "nonce": "0x28a",
        "chainId": "0x14a34"
      },
      "additionalContracts": [],
      "isFixedGasLimit": false
    },
    {
      "hash": "0xf2f6fdc208eb0cc8bd46a7107046724b351a5e846d11a76333af5002dd5f5941",
      "transactionType": "CALL",
      "contractName": "CTMRWAGateway",
      "contractAddress": "0x2d1967ef42ecf9a42785d08398aadba806aa090b",
      "function": "attachStorageManager(uint256,uint256,string[],string[])",
      "arguments": [
        "1",
        "1",
        "[84532, 421614, 80002, 97, 11155111]",
        "[0xa840a5ec6557df201a6a1561dbdc8ad6f3b3faf4, 0x78e9f16b42508a9bc0892bff922c09067de08fc5, 0xb406b937c12e03d676727fc1bb686279eedbc178, 0x8159be9135ecc4893826e40cf19047a79c523008, 0x8ee0aee8a42f55ed43f5e7db765fa591c4714c41]"
      ],
      "transaction": {
        "from": "0xe62ab4d111f968660c6b2188046f9b9ba53c4bae",
        "to": "0x2d1967ef42ecf9a42785d08398aadba806aa090b",
        "gas": "0xe3d34",
        "value": "0x0",
        "input": "0x2f68b4890000000000000000000000000000000000000000000000000000000000000001000000000000000000000000000000000000000000000000000000000000000100000000000000000000000000000000000000000000000000000000000000800000000000000000000000000000000000000000000000000000000000000280000000000000000000000000000000000000000000000000000000000000000500000000000000000000000000000000000000000000000000000000000000a000000000000000000000000000000000000000000000000000000000000000e00000000000000000000000000000000000000000000000000000000000000120000000000000000000000000000000000000000000000000000000000000016000000000000000000000000000000000000000000000000000000000000001a00000000000000000000000000000000000000000000000000000000000000005383435333200000000000000000000000000000000000000000000000000000000000000000000000000000000000000000000000000000000000000000000063432313631340000000000000000000000000000000000000000000000000000000000000000000000000000000000000000000000000000000000000000000538303030320000000000000000000000000000000000000000000000000000000000000000000000000000000000000000000000000000000000000000000002393700000000000000000000000000000000000000000000000000000000000000000000000000000000000000000000000000000000000000000000000000083131313535313131000000000000000000000000000000000000000000000000000000000000000000000000000000000000000000000000000000000000000500000000000000000000000000000000000000000000000000000000000000a00000000000000000000000000000000000000000000000000000000000000100000000000000000000000000000000000000000000000000000000000000016000000000000000000000000000000000000000000000000000000000000001c00000000000000000000000000000000000000000000000000000000000000220000000000000000000000000000000000000000000000000000000000000002a30786138343061356563363535376466323031613661313536316462646338616436663362336661663400000000000000000000000000000000000000000000000000000000000000000000000000000000000000000000000000000000002a30783738653966313662343235303861396263303839326266663932326330393036376465303866633500000000000000000000000000000000000000000000000000000000000000000000000000000000000000000000000000000000002a30786234303662393337633132653033643637363732376663316262363836323739656564626331373800000000000000000000000000000000000000000000000000000000000000000000000000000000000000000000000000000000002a30783831353962653931333565636334383933383236653430636631393034376137396335323330303800000000000000000000000000000000000000000000000000000000000000000000000000000000000000000000000000000000002a30783865653061656538613432663535656434336635653764623736356661353931633437313463343100000000000000000000000000000000000000000000",
        "nonce": "0x28b",
        "chainId": "0x14a34"
      },
      "additionalContracts": [],
      "isFixedGasLimit": false
    }
  ],
  "receipts": [
    {
      "status": "0x1",
      "cumulativeGasUsed": "0x8da41",
      "logs": [],
      "logsBloom": "0x00000000000000000000000000000000000000000000000000000000000000000000000000000000000000000000000000000000000000000000000000000000000000000000000000000000000000000000000000000000000000000000000000000000000000000000000000000000000000000000000000000000000000000000000000000000000000000000000000000000000000000000000000000000000000000000000000000000000000000000000000000000000000000000000000000000000000000000000000000000000000000000000000000000000000000000000000000000000000000000000000000000000000000000000000000000",
      "type": "0x2",
      "transactionHash": "0xc21c7ac81bd7a523ed597e26d15c34e7c23e9f2f57edd8c83f86444c673b183c",
      "transactionIndex": "0x5",
      "blockHash": "0xdc63054a82bd72d945f27eeaa08e7d5ce2c904dedb697e8c272a70987a0f9afc",
      "blockNumber": "0x11a880c",
      "gasUsed": "0x5eb3",
      "effectiveGasPrice": "0x187a7",
      "from": "0xe62ab4d111f968660c6b2188046f9b9ba53c4bae",
      "to": "0x9bfab09e477e0e931f292c8132f2579883c6921a",
      "contractAddress": null,
      "l1BaseFeeScalar": "0x44d",
      "l1BlobBaseFee": "0x54",
      "l1BlobBaseFeeScalar": "0xa118b",
      "l1Fee": "0xef47ff01",
      "l1GasPrice": "0x87d4e22c",
      "l1GasUsed": "0x640"
    },
    {
      "status": "0x1",
      "cumulativeGasUsed": "0x691f0",
      "logs": [
        {
          "address": "0x9bfab09e477e0e931f292c8132f2579883c6921a",
          "topics": [
            "0x1394cfab38f3fc78ed77ea6f9318782a446d96e7dc8e9a6b0149f6be25c08bcf",
            "0x0000000000000000000000006a4dbc971533ba36bdc23ad70f5a7a12e064f4ae"
          ],
          "data": "0x",
          "blockHash": "0x0d6c5680327426758a65fd1110ec527d6141056d76954a7e78ccba56d057afc0",
          "blockNumber": "0x11a8810",
          "transactionHash": "0x8d51a2138af13387729596d2e16425ce40fc3e06d34f030d2408bacdc31032d7",
          "transactionIndex": "0x5",
          "logIndex": "0x4",
          "removed": false
        }
      ],
      "logsBloom": "0x00000000000000000000000000004000000200000000000000000000000000000000000000000000004000000000000000000000000000001000000000000000000000000000000000000000000000000000001000000000000000000000000000000000000000000000000000000000000000000000000000000000000000000000000100000000000000000000000000000000000000000000000000000000000000000000000000000000000000000000000100000000000000000000000000000000000000000000000000000000000000002000000000000000000000000000000000000000000000000000000001000000000000000000000000000000",
      "type": "0x2",
      "transactionHash": "0x8d51a2138af13387729596d2e16425ce40fc3e06d34f030d2408bacdc31032d7",
      "transactionIndex": "0x5",
      "blockHash": "0x0d6c5680327426758a65fd1110ec527d6141056d76954a7e78ccba56d057afc0",
      "blockNumber": "0x11a8810",
      "gasUsed": "0x1bf00",
      "effectiveGasPrice": "0x187a7",
      "from": "0xe62ab4d111f968660c6b2188046f9b9ba53c4bae",
      "to": "0x9bfab09e477e0e931f292c8132f2579883c6921a",
      "contractAddress": null,
      "l1BaseFeeScalar": "0x44d",
      "l1BlobBaseFee": "0x4e",
      "l1BlobBaseFeeScalar": "0xa118b",
      "l1Fee": "0x106f6c9bd",
      "l1GasPrice": "0x87192fcc",
      "l1GasUsed": "0x6e7"
    },
    {
      "status": "0x1",
      "cumulativeGasUsed": "0x1ba6b5",
      "logs": [],
      "logsBloom": "0x00000000000000000000000000000000000000000000000000000000000000000000000000000000000000000000000000000000000000000000000000000000000000000000000000000000000000000000000000000000000000000000000000000000000000000000000000000000000000000000000000000000000000000000000000000000000000000000000000000000000000000000000000000000000000000000000000000000000000000000000000000000000000000000000000000000000000000000000000000000000000000000000000000000000000000000000000000000000000000000000000000000000000000000000000000000",
      "type": "0x2",
      "transactionHash": "0xa1c9cceb9963bc8b8acc7258c28292a0b13e252b38d7fed437d69d7992043256",
      "transactionIndex": "0x5",
      "blockHash": "0x18464531b9293514d145bda9a1643800927a03c32d520d6b5e1e3187587cac4e",
      "blockNumber": "0x11a8814",
      "gasUsed": "0xbbf9",
      "effectiveGasPrice": "0x187a7",
      "from": "0xe62ab4d111f968660c6b2188046f9b9ba53c4bae",
      "to": "0x9bfab09e477e0e931f292c8132f2579883c6921a",
      "contractAddress": null,
      "l1BaseFeeScalar": "0x44d",
      "l1BlobBaseFee": "0x48",
      "l1BlobBaseFeeScalar": "0xa118b",
      "l1Fee": "0xf639ea65",
      "l1GasPrice": "0x8bc62784",
      "l1GasUsed": "0x640"
    },
    {
      "status": "0x1",
      "cumulativeGasUsed": "0x426a2",
      "logs": [],
      "logsBloom": "0x00000000000000000000000000000000000000000000000000000000000000000000000000000000000000000000000000000000000000000000000000000000000000000000000000000000000000000000000000000000000000000000000000000000000000000000000000000000000000000000000000000000000000000000000000000000000000000000000000000000000000000000000000000000000000000000000000000000000000000000000000000000000000000000000000000000000000000000000000000000000000000000000000000000000000000000000000000000000000000000000000000000000000000000000000000000",
      "type": "0x2",
      "transactionHash": "0x1022774df202ca9216a9d6ca9670b780cacf4d178454e80d6f8a4cca44ef187a",
      "transactionIndex": "0x3",
      "blockHash": "0xed409590442ea6d89286bc5da19df19102e3e37e8f49e9cb687254ea23a03bc1",
      "blockNumber": "0x11a8818",
      "gasUsed": "0xbc22",
      "effectiveGasPrice": "0x187a7",
      "from": "0xe62ab4d111f968660c6b2188046f9b9ba53c4bae",
      "to": "0x9bfab09e477e0e931f292c8132f2579883c6921a",
      "contractAddress": null,
      "l1BaseFeeScalar": "0x44d",
      "l1BlobBaseFee": "0x48",
      "l1BlobBaseFeeScalar": "0xa118b",
      "l1Fee": "0xf639ea65",
      "l1GasPrice": "0x8bc62784",
      "l1GasUsed": "0x640"
    },
    {
      "status": "0x1",
      "cumulativeGasUsed": "0x103a72",
      "logs": [],
      "logsBloom": "0x00000000000000000000000000000000000000000000000000000000000000000000000000000000000000000000000000000000000000000000000000000000000000000000000000000000000000000000000000000000000000000000000000000000000000000000000000000000000000000000000000000000000000000000000000000000000000000000000000000000000000000000000000000000000000000000000000000000000000000000000000000000000000000000000000000000000000000000000000000000000000000000000000000000000000000000000000000000000000000000000000000000000000000000000000000000",
      "type": "0x2",
      "transactionHash": "0x9287a3b22c86ea805d4d7130b2b201a10636ec0905875667ac26d3135bef1fff",
      "transactionIndex": "0xb",
      "blockHash": "0x1473988e5bdee81c784adf0db5f225c5b23088c5149cd0228075ac52c403fe08",
      "blockNumber": "0x11a881b",
      "gasUsed": "0xbc39",
      "effectiveGasPrice": "0x187a7",
      "from": "0xe62ab4d111f968660c6b2188046f9b9ba53c4bae",
      "to": "0x9bfab09e477e0e931f292c8132f2579883c6921a",
      "contractAddress": null,
      "l1BaseFeeScalar": "0x44d",
      "l1BlobBaseFee": "0x48",
      "l1BlobBaseFeeScalar": "0xa118b",
      "l1Fee": "0x109baee29",
      "l1GasPrice": "0x96d88491",
      "l1GasUsed": "0x640"
    },
    {
      "status": "0x1",
      "cumulativeGasUsed": "0x57cf2",
      "logs": [],
      "logsBloom": "0x00000000000000000000000000000000000000000000000000000000000000000000000000000000000000000000000000000000000000000000000000000000000000000000000000000000000000000000000000000000000000000000000000000000000000000000000000000000000000000000000000000000000000000000000000000000000000000000000000000000000000000000000000000000000000000000000000000000000000000000000000000000000000000000000000000000000000000000000000000000000000000000000000000000000000000000000000000000000000000000000000000000000000000000000000000000",
      "type": "0x2",
      "transactionHash": "0x58c2bd2236853abf002a8df84a5c09d646c497c23af75dfc56e47a812012c21b",
      "transactionIndex": "0x3",
      "blockHash": "0x25b0485c1871820cc6485e511aeaa49905cc4af23605cca4832ed2767b5f4e32",
      "blockNumber": "0x11a881f",
      "gasUsed": "0xbc50",
      "effectiveGasPrice": "0x187a6",
      "from": "0xe62ab4d111f968660c6b2188046f9b9ba53c4bae",
      "to": "0x9bfab09e477e0e931f292c8132f2579883c6921a",
      "contractAddress": null,
      "l1BaseFeeScalar": "0x44d",
      "l1BlobBaseFee": "0x45",
      "l1BlobBaseFeeScalar": "0xa118b",
      "l1Fee": "0xf2c2781b",
      "l1GasPrice": "0x89ce6214",
      "l1GasUsed": "0x640"
    },
    {
      "status": "0x1",
      "cumulativeGasUsed": "0x97f0f",
      "logs": [],
      "logsBloom": "0x00000000000000000000000000000000000000000000000000000000000000000000000000000000000000000000000000000000000000000000000000000000000000000000000000000000000000000000000000000000000000000000000000000000000000000000000000000000000000000000000000000000000000000000000000000000000000000000000000000000000000000000000000000000000000000000000000000000000000000000000000000000000000000000000000000000000000000000000000000000000000000000000000000000000000000000000000000000000000000000000000000000000000000000000000000000",
      "type": "0x2",
      "transactionHash": "0xd7698d3a5722a75bb37c1f3f89cdf32253e9098ccff2309aa4cf7416f0e64e3c",
      "transactionIndex": "0x6",
      "blockHash": "0xa9ea363b5d9748eea7d4759c80782dcf2f2bc5027415dee92ee6715fe5498fd1",
      "blockNumber": "0x11a8823",
      "gasUsed": "0xbc67",
      "effectiveGasPrice": "0x187a6",
      "from": "0xe62ab4d111f968660c6b2188046f9b9ba53c4bae",
      "to": "0x9bfab09e477e0e931f292c8132f2579883c6921a",
      "contractAddress": null,
      "l1BaseFeeScalar": "0x44d",
      "l1BlobBaseFee": "0x45",
      "l1BlobBaseFeeScalar": "0xa118b",
      "l1Fee": "0xf2c2781b",
      "l1GasPrice": "0x89ce6214",
      "l1GasUsed": "0x640"
    },
    {
      "status": "0x1",
      "cumulativeGasUsed": "0xf10ce",
      "logs": [],
      "logsBloom": "0x00000000000000000000000000000000000000000000000000000000000000000000000000000000000000000000000000000000000000000000000000000000000000000000000000000000000000000000000000000000000000000000000000000000000000000000000000000000000000000000000000000000000000000000000000000000000000000000000000000000000000000000000000000000000000000000000000000000000000000000000000000000000000000000000000000000000000000000000000000000000000000000000000000000000000000000000000000000000000000000000000000000000000000000000000000000",
      "type": "0x2",
      "transactionHash": "0x6bb0166c6a04ae0b3c350c33e064c1e4cc049cd4bdca4538061ec12cd6474dd2",
      "transactionIndex": "0x7",
      "blockHash": "0x55cf6979fe736601e33c8a2a999e7094d3506bfa7f4a94674dddb029845cee65",
      "blockNumber": "0x11a8826",
      "gasUsed": "0xbc7e",
      "effectiveGasPrice": "0x187a6",
      "from": "0xe62ab4d111f968660c6b2188046f9b9ba53c4bae",
      "to": "0x9bfab09e477e0e931f292c8132f2579883c6921a",
      "contractAddress": null,
      "l1BaseFeeScalar": "0x44d",
      "l1BlobBaseFee": "0x45",
      "l1BlobBaseFeeScalar": "0xa118b",
      "l1Fee": "0xf6b05341",
      "l1GasPrice": "0x8c095f87",
      "l1GasUsed": "0x640"
    },
    {
      "status": "0x1",
      "cumulativeGasUsed": "0x10d83f",
      "logs": [],
      "logsBloom": "0x00000000000000000000000000000000000000000000000000000000000000000000000000000000000000000000000000000000000000000000000000000000000000000000000000000000000000000000000000000000000000000000000000000000000000000000000000000000000000000000000000000000000000000000000000000000000000000000000000000000000000000000000000000000000000000000000000000000000000000000000000000000000000000000000000000000000000000000000000000000000000000000000000000000000000000000000000000000000000000000000000000000000000000000000000000000",
      "type": "0x2",
      "transactionHash": "0xf3cab6dafb759d9f93f5b62cf3d8358d3af7a6c80223d133f19a100c91880e3a",
      "transactionIndex": "0x3",
      "blockHash": "0x5228cda3bb8f0bb9b7a289c06e019046689e8374fb12bfa6ebfebfac2cbce974",
      "blockNumber": "0x11a882a",
      "gasUsed": "0xbc95",
      "effectiveGasPrice": "0x187a7",
      "from": "0xe62ab4d111f968660c6b2188046f9b9ba53c4bae",
      "to": "0x9bfab09e477e0e931f292c8132f2579883c6921a",
      "contractAddress": null,
      "l1BaseFeeScalar": "0x44d",
      "l1BlobBaseFee": "0x45",
      "l1BlobBaseFeeScalar": "0xa118b",
      "l1Fee": "0xf6b05341",
      "l1GasPrice": "0x8c095f87",
      "l1GasUsed": "0x640"
    },
    {
      "status": "0x1",
      "cumulativeGasUsed": "0x5c5d5",
      "logs": [],
      "logsBloom": "0x00000000000000000000000000000000000000000000000000000000000000000000000000000000000000000000000000000000000000000000000000000000000000000000000000000000000000000000000000000000000000000000000000000000000000000000000000000000000000000000000000000000000000000000000000000000000000000000000000000000000000000000000000000000000000000000000000000000000000000000000000000000000000000000000000000000000000000000000000000000000000000000000000000000000000000000000000000000000000000000000000000000000000000000000000000000",
      "type": "0x2",
      "transactionHash": "0x103ff0084f99f2d494624cf03605741c4cbfb07a9b95ff19f347a94556e525e9",
      "transactionIndex": "0x4",
      "blockHash": "0x80bd7f4a25ca11ce604e366bac4c0bcc4f6beadd183cb4878ec7c115f94f1bd8",
      "blockNumber": "0x11a882e",
      "gasUsed": "0xbcac",
      "effectiveGasPrice": "0x187a7",
      "from": "0xe62ab4d111f968660c6b2188046f9b9ba53c4bae",
      "to": "0x9bfab09e477e0e931f292c8132f2579883c6921a",
      "contractAddress": null,
      "l1BaseFeeScalar": "0x44d",
      "l1BlobBaseFee": "0x45",
      "l1BlobBaseFeeScalar": "0xa118b",
      "l1Fee": "0xf395037c",
      "l1GasPrice": "0x8a45e6e9",
      "l1GasUsed": "0x640"
    },
    {
      "status": "0x1",
      "cumulativeGasUsed": "0x2a4317",
      "logs": [],
      "logsBloom": "0x00000000000000000000000000000000000000000000000000000000000000000000000000000000000000000000000000000000000000000000000000000000000000000000000000000000000000000000000000000000000000000000000000000000000000000000000000000000000000000000000000000000000000000000000000000000000000000000000000000000000000000000000000000000000000000000000000000000000000000000000000000000000000000000000000000000000000000000000000000000000000000000000000000000000000000000000000000000000000000000000000000000000000000000000000000000",
      "type": "0x2",
      "transactionHash": "0xd60fce704ed60585a91e78401235f7685d066170a1754b89b42803f2ff076c29",
      "transactionIndex": "0xa",
      "blockHash": "0xb5460ed1c75239b0d5e05a39da2ca879323495b928f2b63318bec238bc136d1a",
      "blockNumber": "0x11a8831",
      "gasUsed": "0xbcc3",
      "effectiveGasPrice": "0x187a7",
      "from": "0xe62ab4d111f968660c6b2188046f9b9ba53c4bae",
      "to": "0x9bfab09e477e0e931f292c8132f2579883c6921a",
      "contractAddress": null,
      "l1BaseFeeScalar": "0x44d",
      "l1BlobBaseFee": "0x40",
      "l1BlobBaseFeeScalar": "0xa118b",
      "l1Fee": "0xf74dd986",
      "l1GasPrice": "0x8c62cc1a",
      "l1GasUsed": "0x640"
    },
    {
      "status": "0x1",
      "cumulativeGasUsed": "0x550c2",
      "logs": [],
      "logsBloom": "0x00000000000000000000000000000000000000000000000000000000000000000000000000000000000000000000000000000000000000000000000000000000000000000000000000000000000000000000000000000000000000000000000000000000000000000000000000000000000000000000000000000000000000000000000000000000000000000000000000000000000000000000000000000000000000000000000000000000000000000000000000000000000000000000000000000000000000000000000000000000000000000000000000000000000000000000000000000000000000000000000000000000000000000000000000000000",
      "type": "0x2",
      "transactionHash": "0x5561821a0be65e4025a816293a64f5ffa9c5f798af51eaf48afc4f1fc662fac4",
      "transactionIndex": "0x4",
      "blockHash": "0x1ffd84cb9e0298606e1a035237ab3cf12cdb8aa9e1631b4195223405eb2df96f",
      "blockNumber": "0x11a8835",
      "gasUsed": "0xbcda",
      "effectiveGasPrice": "0x187a7",
      "from": "0xe62ab4d111f968660c6b2188046f9b9ba53c4bae",
      "to": "0x9bfab09e477e0e931f292c8132f2579883c6921a",
      "contractAddress": null,
      "l1BaseFeeScalar": "0x44d",
      "l1BlobBaseFee": "0x40",
      "l1BlobBaseFeeScalar": "0xa118b",
      "l1Fee": "0xf74dd986",
      "l1GasPrice": "0x8c62cc1a",
      "l1GasUsed": "0x640"
    },
    {
      "status": "0x1",
      "cumulativeGasUsed": "0x208cc5",
      "logs": [],
      "logsBloom": "0x00000000000000000000000000000000000000000000000000000000000000000000000000000000000000000000000000000000000000000000000000000000000000000000000000000000000000000000000000000000000000000000000000000000000000000000000000000000000000000000000000000000000000000000000000000000000000000000000000000000000000000000000000000000000000000000000000000000000000000000000000000000000000000000000000000000000000000000000000000000000000000000000000000000000000000000000000000000000000000000000000000000000000000000000000000000",
      "type": "0x2",
      "transactionHash": "0x3e4bafb1f82c2f59dbd219b82201b9bf3895a43af03906286b5883204c566f49",
      "transactionIndex": "0xb",
      "blockHash": "0xf39e1a030803eaf72f2d13132b31bc1fc8e68f1e907841ea9a05e41771d095d5",
      "blockNumber": "0x11a8839",
      "gasUsed": "0xbcf1",
      "effectiveGasPrice": "0x187a6",
      "from": "0xe62ab4d111f968660c6b2188046f9b9ba53c4bae",
      "to": "0x9bfab09e477e0e931f292c8132f2579883c6921a",
      "contractAddress": null,
      "l1BaseFeeScalar": "0x44d",
      "l1BlobBaseFee": "0x45",
      "l1BlobBaseFeeScalar": "0xa118b",
      "l1Fee": "0xf837acd9",
      "l1GasPrice": "0x8ce78775",
      "l1GasUsed": "0x640"
    },
    {
      "status": "0x1",
      "cumulativeGasUsed": "0x2b3d60",
      "logs": [],
      "logsBloom": "0x00000000000000000000000000000000000000000000000000000000000000000000000000000000000000000000000000000000000000000000000000000000000000000000000000000000000000000000000000000000000000000000000000000000000000000000000000000000000000000000000000000000000000000000000000000000000000000000000000000000000000000000000000000000000000000000000000000000000000000000000000000000000000000000000000000000000000000000000000000000000000000000000000000000000000000000000000000000000000000000000000000000000000000000000000000000",
      "type": "0x2",
      "transactionHash": "0x58501858034d1414bdd7aec529d7e2e28f00ad4bddaa411365649b37e2f29ab3",
      "transactionIndex": "0x4",
      "blockHash": "0xb40f3c20ea825df6e226eb63f3d6c18e76a934d7677f9b4aa31953ca1da7f7ce",
      "blockNumber": "0x11a883c",
      "gasUsed": "0xbd08",
      "effectiveGasPrice": "0x187a5",
      "from": "0xe62ab4d111f968660c6b2188046f9b9ba53c4bae",
      "to": "0x9bfab09e477e0e931f292c8132f2579883c6921a",
      "contractAddress": null,
      "l1BaseFeeScalar": "0x44d",
      "l1BlobBaseFee": "0x45",
      "l1BlobBaseFeeScalar": "0xa118b",
      "l1Fee": "0xf837acd9",
      "l1GasPrice": "0x8ce78775",
      "l1GasUsed": "0x640"
    },
    {
      "status": "0x1",
      "cumulativeGasUsed": "0x9d59c",
      "logs": [],
      "logsBloom": "0x00000000000000000000000000000000000000000000000000000000000000000000000000000000000000000000000000000000000000000000000000000000000000000000000000000000000000000000000000000000000000000000000000000000000000000000000000000000000000000000000000000000000000000000000000000000000000000000000000000000000000000000000000000000000000000000000000000000000000000000000000000000000000000000000000000000000000000000000000000000000000000000000000000000000000000000000000000000000000000000000000000000000000000000000000000000",
      "type": "0x2",
      "transactionHash": "0x0be41e74994974e6af0f0ba0907b5c14cb6c17cd16f80985fc17ba4a35daf88a",
      "transactionIndex": "0x7",
      "blockHash": "0x1cc22aa7f9da2aff93e792184fd3646e7b7d1a3f213bd125b87c7a51c86987f6",
      "blockNumber": "0x11a8840",
      "gasUsed": "0xbd1f",
      "effectiveGasPrice": "0x187a5",
      "from": "0xe62ab4d111f968660c6b2188046f9b9ba53c4bae",
      "to": "0x9bfab09e477e0e931f292c8132f2579883c6921a",
      "contractAddress": null,
      "l1BaseFeeScalar": "0x44d",
      "l1BlobBaseFee": "0x40",
      "l1BlobBaseFeeScalar": "0xa118b",
      "l1Fee": "0xe3e37558",
      "l1GasPrice": "0x815d46bc",
      "l1GasUsed": "0x640"
    },
    {
      "status": "0x1",
      "cumulativeGasUsed": "0x174421",
      "logs": [],
      "logsBloom": "0x00000000000000000000000000000000000000000000000000000000000000000000000000000000000000000000000000000000000000000000000000000000000000000000000000000000000000000000000000000000000000000000000000000000000000000000000000000000000000000000000000000000000000000000000000000000000000000000000000000000000000000000000000000000000000000000000000000000000000000000000000000000000000000000000000000000000000000000000000000000000000000000000000000000000000000000000000000000000000000000000000000000000000000000000000000000",
      "type": "0x2",
      "transactionHash": "0xd331a142a7c56e08f487b3af1a6aa39d7329107495fd885b29ac45d0e1f040e5",
      "transactionIndex": "0x7",
      "blockHash": "0xf89e0b21060c8f6ca2759b9eeaba795fa0228d47f62d0f24730b2dbd0a98675f",
      "blockNumber": "0x11a8843",
      "gasUsed": "0xbd36",
      "effectiveGasPrice": "0x187a5",
      "from": "0xe62ab4d111f968660c6b2188046f9b9ba53c4bae",
      "to": "0x9bfab09e477e0e931f292c8132f2579883c6921a",
      "contractAddress": null,
      "l1BaseFeeScalar": "0x44d",
      "l1BlobBaseFee": "0x40",
      "l1BlobBaseFeeScalar": "0xa118b",
      "l1Fee": "0xf2a404e8",
      "l1GasPrice": "0x89bd19be",
      "l1GasUsed": "0x640"
    },
    {
      "status": "0x1",
      "cumulativeGasUsed": "0x2860b6",
      "logs": [],
      "logsBloom": "0x00000000000000000000000000000000000000000000000000000000000000000000000000000000000000000000000000000000000000000000000000000000000000000000000000000000000000000000000000000000000000000000000000000000000000000000000000000000000000000000000000000000000000000000000000000000000000000000000000000000000000000000000000000000000000000000000000000000000000000000000000000000000000000000000000000000000000000000000000000000000000000000000000000000000000000000000000000000000000000000000000000000000000000000000000000000",
      "type": "0x2",
      "transactionHash": "0x2f1a77ad08183e1b9a092c22fec36cf30e191befdec6cb2cde896b1c4f1506e7",
      "transactionIndex": "0x6",
      "blockHash": "0xbcbad1d33e588bbbeab551b3409ae8a0571e10fe0a185c6a85234e47576d2af2",
      "blockNumber": "0x11a8847",
      "gasUsed": "0xbd4d",
      "effectiveGasPrice": "0x187a5",
      "from": "0xe62ab4d111f968660c6b2188046f9b9ba53c4bae",
      "to": "0x9bfab09e477e0e931f292c8132f2579883c6921a",
      "contractAddress": null,
      "l1BaseFeeScalar": "0x44d",
      "l1BlobBaseFee": "0x40",
      "l1BlobBaseFeeScalar": "0xa118b",
      "l1Fee": "0xf2a404e8",
      "l1GasPrice": "0x89bd19be",
      "l1GasUsed": "0x640"
    },
    {
      "status": "0x1",
      "cumulativeGasUsed": "0x1582e9",
      "logs": [],
      "logsBloom": "0x00000000000000000000000000000000000000000000000000000000000000000000000000000000000000000000000000000000000000000000000000000000000000000000000000000000000000000000000000000000000000000000000000000000000000000000000000000000000000000000000000000000000000000000000000000000000000000000000000000000000000000000000000000000000000000000000000000000000000000000000000000000000000000000000000000000000000000000000000000000000000000000000000000000000000000000000000000000000000000000000000000000000000000000000000000000",
      "type": "0x2",
      "transactionHash": "0x3042d8ee4927aab20ccddfe83efccbb0d1c8873af7374db25544ea6cb2e3783c",
      "transactionIndex": "0x7",
      "blockHash": "0x894ceecd59520f41114ac7e699667749f386a3708fba76d4966c64dbfd893cbf",
      "blockNumber": "0x11a884b",
      "gasUsed": "0xbd64",
      "effectiveGasPrice": "0x187a5",
      "from": "0xe62ab4d111f968660c6b2188046f9b9ba53c4bae",
      "to": "0x9bfab09e477e0e931f292c8132f2579883c6921a",
      "contractAddress": null,
      "l1BaseFeeScalar": "0x44d",
      "l1BlobBaseFee": "0x40",
      "l1BlobBaseFeeScalar": "0xa118b",
      "l1Fee": "0xf2a404e8",
      "l1GasPrice": "0x89bd19be",
      "l1GasUsed": "0x640"
    },
    {
      "status": "0x1",
      "cumulativeGasUsed": "0xa74c8",
      "logs": [],
      "logsBloom": "0x00000000000000000000000000000000000000000000000000000000000000000000000000000000000000000000000000000000000000000000000000000000000000000000000000000000000000000000000000000000000000000000000000000000000000000000000000000000000000000000000000000000000000000000000000000000000000000000000000000000000000000000000000000000000000000000000000000000000000000000000000000000000000000000000000000000000000000000000000000000000000000000000000000000000000000000000000000000000000000000000000000000000000000000000000000000",
      "type": "0x2",
      "transactionHash": "0x9169cced7e060905290d9123de6fd5ae996618db0cb81c16e7db4127f76852c1",
      "transactionIndex": "0xa",
      "blockHash": "0xf1b5bb96f39f711db5b02846df8ef95d0ae067e7c23c256dd5cabdffa9adf208",
      "blockNumber": "0x11a884e",
      "gasUsed": "0xbd7b",
      "effectiveGasPrice": "0x187a5",
      "from": "0xe62ab4d111f968660c6b2188046f9b9ba53c4bae",
      "to": "0x9bfab09e477e0e931f292c8132f2579883c6921a",
      "contractAddress": null,
      "l1BaseFeeScalar": "0x44d",
      "l1BlobBaseFee": "0x40",
      "l1BlobBaseFeeScalar": "0xa118b",
      "l1Fee": "0xf2a404e8",
      "l1GasPrice": "0x89bd19be",
      "l1GasUsed": "0x640"
    },
    {
      "status": "0x1",
      "cumulativeGasUsed": "0xfbdfa",
      "logs": [],
      "logsBloom": "0x00000000000000000000000000000000000000000000000000000000000000000000000000000000000000000000000000000000000000000000000000000000000000000000000000000000000000000000000000000000000000000000000000000000000000000000000000000000000000000000000000000000000000000000000000000000000000000000000000000000000000000000000000000000000000000000000000000000000000000000000000000000000000000000000000000000000000000000000000000000000000000000000000000000000000000000000000000000000000000000000000000000000000000000000000000000",
      "type": "0x2",
      "transactionHash": "0xb09aff93142d71ebb0af8173f280027c4db1276be38d52b9677528ee673832cb",
      "transactionIndex": "0xa",
      "blockHash": "0xd7e447cf8504608a3627afb413a1e69e53c196a097ff717fe97930bc008618d9",
      "blockNumber": "0x11a8852",
      "gasUsed": "0xbd92",
      "effectiveGasPrice": "0x187a5",
      "from": "0xe62ab4d111f968660c6b2188046f9b9ba53c4bae",
      "to": "0x9bfab09e477e0e931f292c8132f2579883c6921a",
      "contractAddress": null,
      "l1BaseFeeScalar": "0x44d",
      "l1BlobBaseFee": "0x48",
      "l1BlobBaseFeeScalar": "0xa118b",
      "l1Fee": "0xf1bcee37",
      "l1GasPrice": "0x8939ea35",
      "l1GasUsed": "0x640"
    },
    {
      "status": "0x1",
      "cumulativeGasUsed": "0x74751",
      "logs": [],
      "logsBloom": "0x00000000000000000000000000000000000000000000000000000000000000000000000000000000000000000000000000000000000000000000000000000000000000000000000000000000000000000000000000000000000000000000000000000000000000000000000000000000000000000000000000000000000000000000000000000000000000000000000000000000000000000000000000000000000000000000000000000000000000000000000000000000000000000000000000000000000000000000000000000000000000000000000000000000000000000000000000000000000000000000000000000000000000000000000000000000",
      "type": "0x2",
      "transactionHash": "0x30f5f0f6e82c71091e692bd008fa88843839afc20c793e54902525cfad8ba9b7",
      "transactionIndex": "0x6",
      "blockHash": "0x06b1d26d0e0b1d35c3757591bdf45603cbff71d613ec272df233a820d4c38aee",
      "blockNumber": "0x11a8855",
      "gasUsed": "0xbda9",
      "effectiveGasPrice": "0x187a5",
      "from": "0xe62ab4d111f968660c6b2188046f9b9ba53c4bae",
      "to": "0x9bfab09e477e0e931f292c8132f2579883c6921a",
      "contractAddress": null,
      "l1BaseFeeScalar": "0x44d",
      "l1BlobBaseFee": "0x4e",
      "l1BlobBaseFeeScalar": "0xa118b",
      "l1Fee": "0xf1915259",
      "l1GasPrice": "0x892127fc",
      "l1GasUsed": "0x640"
    },
    {
      "status": "0x1",
      "cumulativeGasUsed": "0x11b9ec",
      "logs": [],
      "logsBloom": "0x00000000000000000000000000000000000000000000000000000000000000000000000000000000000000000000000000000000000000000000000000000000000000000000000000000000000000000000000000000000000000000000000000000000000000000000000000000000000000000000000000000000000000000000000000000000000000000000000000000000000000000000000000000000000000000000000000000000000000000000000000000000000000000000000000000000000000000000000000000000000000000000000000000000000000000000000000000000000000000000000000000000000000000000000000000000",
      "type": "0x2",
      "transactionHash": "0x6e6945cb7ec8ec43d92468c01fffa723c2c08d18f8eea7a54496e3c87ad5e17a",
      "transactionIndex": "0x11",
      "blockHash": "0x207272bea78a11c1ae11d78e30fbf9c3e333e6361223df326128b46b9c084c9c",
      "blockNumber": "0x11a8859",
      "gasUsed": "0xbdbb",
      "effectiveGasPrice": "0x187a6",
      "from": "0xe62ab4d111f968660c6b2188046f9b9ba53c4bae",
      "to": "0x9bfab09e477e0e931f292c8132f2579883c6921a",
      "contractAddress": null,
      "l1BaseFeeScalar": "0x44d",
      "l1BlobBaseFee": "0x4e",
      "l1BlobBaseFeeScalar": "0xa118b",
      "l1Fee": "0xf1915259",
      "l1GasPrice": "0x892127fc",
      "l1GasUsed": "0x640"
    },
    {
      "status": "0x1",
      "cumulativeGasUsed": "0x268e78",
      "logs": [],
      "logsBloom": "0x00000000000000000000000000000000000000000000000000000000000000000000000000000000000000000000000000000000000000000000000000000000000000000000000000000000000000000000000000000000000000000000000000000000000000000000000000000000000000000000000000000000000000000000000000000000000000000000000000000000000000000000000000000000000000000000000000000000000000000000000000000000000000000000000000000000000000000000000000000000000000000000000000000000000000000000000000000000000000000000000000000000000000000000000000000000",
      "type": "0x2",
      "transactionHash": "0x03b012c58d68fbea57105ca6b63a9afae129942342d37d1202af66ae440fa284",
      "transactionIndex": "0x7",
      "blockHash": "0x76d1d787c683f0c3fe44f0c9e0614b8b801b742594ab607403ac48957661c784",
      "blockNumber": "0x11a885d",
      "gasUsed": "0x224ec",
      "effectiveGasPrice": "0x187a6",
      "from": "0xe62ab4d111f968660c6b2188046f9b9ba53c4bae",
      "to": "0x9bfab09e477e0e931f292c8132f2579883c6921a",
      "contractAddress": null,
      "l1BaseFeeScalar": "0x44d",
      "l1BlobBaseFee": "0x48",
      "l1BlobBaseFeeScalar": "0xa118b",
      "l1Fee": "0x1630e366a",
      "l1GasPrice": "0x880f0e1d",
      "l1GasUsed": "0x942"
    },
    {
      "status": "0x1",
      "cumulativeGasUsed": "0x4897d",
      "logs": [],
      "logsBloom": "0x00000000000000000000000000000000000000000000000000000000000000000000000000000000000000000000000000000000000000000000000000000000000000000000000000000000000000000000000000000000000000000000000000000000000000000000000000000000000000000000000000000000000000000000000000000000000000000000000000000000000000000000000000000000000000000000000000000000000000000000000000000000000000000000000000000000000000000000000000000000000000000000000000000000000000000000000000000000000000000000000000000000000000000000000000000000",
      "type": "0x2",
      "transactionHash": "0x65fd6f4fa933f3bfb15413eae5dc4e2d894079ab908727b965bc30678bd8f66b",
      "transactionIndex": "0x3",
      "blockHash": "0xb0399c05a5fff18f6813ae675d7460913d87f91b4b0fa2c0c160f4a3b9fdc6b8",
      "blockNumber": "0x11a8861",
      "gasUsed": "0x1e86c",
      "effectiveGasPrice": "0x187a6",
      "from": "0xe62ab4d111f968660c6b2188046f9b9ba53c4bae",
      "to": "0x9bfab09e477e0e931f292c8132f2579883c6921a",
      "contractAddress": null,
      "l1BaseFeeScalar": "0x44d",
      "l1BlobBaseFee": "0x4b",
      "l1BlobBaseFeeScalar": "0xa118b",
      "l1Fee": "0x17a93e0b6",
      "l1GasPrice": "0x91e57d90",
      "l1GasUsed": "0x934"
    },
    {
      "status": "0x1",
      "cumulativeGasUsed": "0x15d667",
      "logs": [],
      "logsBloom": "0x00000000000000000000000000000000000000000000000000000000000000000000000000000000000000000000000000000000000000000000000000000000000000000000000000000000000000000000000000000000000000000000000000000000000000000000000000000000000000000000000000000000000000000000000000000000000000000000000000000000000000000000000000000000000000000000000000000000000000000000000000000000000000000000000000000000000000000000000000000000000000000000000000000000000000000000000000000000000000000000000000000000000000000000000000000000",
      "type": "0x2",
      "transactionHash": "0xf1b51ebac6aa9387c1fc6676ad07846a645324531f0ca20bf65fd2cd624d34f4",
      "transactionIndex": "0x9",
      "blockHash": "0x6e659eefff98acb2737b52a99ac1dcb4544d4ac62f2fe123a4c9a6803f8dc62b",
      "blockNumber": "0x11a8864",
      "gasUsed": "0x1e86c",
      "effectiveGasPrice": "0x187a6",
      "from": "0xe62ab4d111f968660c6b2188046f9b9ba53c4bae",
      "to": "0x9bfab09e477e0e931f292c8132f2579883c6921a",
      "contractAddress": null,
      "l1BaseFeeScalar": "0x44d",
      "l1BlobBaseFee": "0x4b",
      "l1BlobBaseFeeScalar": "0xa118b",
      "l1Fee": "0x17a93e0b6",
      "l1GasPrice": "0x91e57d90",
      "l1GasUsed": "0x934"
    },
    {
      "status": "0x1",
      "cumulativeGasUsed": "0x8c23f",
      "logs": [],
      "logsBloom": "0x00000000000000000000000000000000000000000000000000000000000000000000000000000000000000000000000000000000000000000000000000000000000000000000000000000000000000000000000000000000000000000000000000000000000000000000000000000000000000000000000000000000000000000000000000000000000000000000000000000000000000000000000000000000000000000000000000000000000000000000000000000000000000000000000000000000000000000000000000000000000000000000000000000000000000000000000000000000000000000000000000000000000000000000000000000000",
      "type": "0x2",
      "transactionHash": "0xd005a10ddb3fc2bfe7c59f18db430dfe0b4d50f2fa00a7e2d9100cd95aa7e008",
      "transactionIndex": "0x6",
      "blockHash": "0x5a68726c327c4ab6a57017804a32a7c1e993b0a7b9352a2bec95cfce3b4e5c06",
      "blockNumber": "0x11a8868",
      "gasUsed": "0x1e3e0",
      "effectiveGasPrice": "0x187a6",
      "from": "0xe62ab4d111f968660c6b2188046f9b9ba53c4bae",
      "to": "0x9bfab09e477e0e931f292c8132f2579883c6921a",
      "contractAddress": null,
      "l1BaseFeeScalar": "0x44d",
      "l1BlobBaseFee": "0x45",
      "l1BlobBaseFeeScalar": "0xa118b",
      "l1Fee": "0x181f81cda",
      "l1GasPrice": "0x9752b457",
      "l1GasUsed": "0x90c"
    },
    {
      "status": "0x1",
      "cumulativeGasUsed": "0xdf193",
      "logs": [],
      "logsBloom": "0x00000000000000000000000000000000000000000000000000000000000000000000000000000000000000000000000000000000000000000000000000000000000000000000000000000000000000000000000000000000000000000000000000000000000000000000000000000000000000000000000000000000000000000000000000000000000000000000000000000000000000000000000000000000000000000000000000000000000000000000000000000000000000000000000000000000000000000000000000000000000000000000000000000000000000000000000000000000000000000000000000000000000000000000000000000000",
      "type": "0x2",
      "transactionHash": "0x508c59e14e733ba90de01563d9298866dd1abb10db36af393066c984b5b69ec7",
      "transactionIndex": "0x6",
      "blockHash": "0x17eb25af71d2a4ddaaac78be4b462820fb3a68616c12e1d31390d08b9815dd32",
      "blockNumber": "0x11a886b",
      "gasUsed": "0x1ecf8",
      "effectiveGasPrice": "0x187a6",
      "from": "0xe62ab4d111f968660c6b2188046f9b9ba53c4bae",
      "to": "0x9bfab09e477e0e931f292c8132f2579883c6921a",
      "contractAddress": null,
      "l1BaseFeeScalar": "0x44d",
      "l1BlobBaseFee": "0x45",
      "l1BlobBaseFeeScalar": "0xa118b",
      "l1Fee": "0x18d1e576d",
      "l1GasPrice": "0x9752b457",
      "l1GasUsed": "0x94f"
    },
    {
      "status": "0x1",
      "cumulativeGasUsed": "0xd6b41f",
      "logs": [],
      "logsBloom": "0x00000000000000000000000000000000000000000000000000000000000000000000000000000000000000000000000000000000000000000000000000000000000000000000000000000000000000000000000000000000000000000000000000000000000000000000000000000000000000000000000000000000000000000000000000000000000000000000000000000000000000000000000000000000000000000000000000000000000000000000000000000000000000000000000000000000000000000000000000000000000000000000000000000000000000000000000000000000000000000000000000000000000000000000000000000000",
      "type": "0x2",
      "transactionHash": "0x775e370257335422574c78becfa6c4bd0e3f6e80903cc31baa40ca502a08128a",
      "transactionIndex": "0x4",
      "blockHash": "0x6a56d98920a336147275b9b46fa59d1ebc60ffdf4084d8ed93531ba0089f7bad",
      "blockNumber": "0x11a886f",
      "gasUsed": "0x7b6b6",
      "effectiveGasPrice": "0x187a6",
      "from": "0xe62ab4d111f968660c6b2188046f9b9ba53c4bae",
      "to": "0x2d1967ef42ecf9a42785d08398aadba806aa090b",
      "contractAddress": null,
      "l1BaseFeeScalar": "0x44d",
      "l1BlobBaseFee": "0x42",
      "l1BlobBaseFeeScalar": "0xa118b",
      "l1Fee": "0x32e9bcf2e",
      "l1GasPrice": "0x95c6a70d",
      "l1GasUsed": "0x134b"
    },
    {
      "status": "0x1",
      "cumulativeGasUsed": "0x18a040",
      "logs": [],
      "logsBloom": "0x00000000000000000000000000000000000000000000000000000000000000000000000000000000000000000000000000000000000000000000000000000000000000000000000000000000000000000000000000000000000000000000000000000000000000000000000000000000000000000000000000000000000000000000000000000000000000000000000000000000000000000000000000000000000000000000000000000000000000000000000000000000000000000000000000000000000000000000000000000000000000000000000000000000000000000000000000000000000000000000000000000000000000000000000000000000",
      "type": "0x2",
      "transactionHash": "0xebc4b2749714f7191938e9fef391a53795bde29577eac189660c3cf3c4146660",
      "transactionIndex": "0x5",
      "blockHash": "0xe4b17c7d5bab7a774c040a9d19bb3c4911761739ceba99eb575dbdd69da2c33f",
      "blockNumber": "0x11a8873",
      "gasUsed": "0xbd66d",
      "effectiveGasPrice": "0x187a7",
      "from": "0xe62ab4d111f968660c6b2188046f9b9ba53c4bae",
      "to": "0x2d1967ef42ecf9a42785d08398aadba806aa090b",
      "contractAddress": null,
      "l1BaseFeeScalar": "0x44d",
      "l1BlobBaseFee": "0x3b",
      "l1BlobBaseFeeScalar": "0xa118b",
      "l1Fee": "0x44b821018",
      "l1GasPrice": "0xa0c6b8d1",
      "l1GasUsed": "0x1843"
    },
    {
      "status": "0x1",
      "cumulativeGasUsed": "0xe821d",
      "logs": [],
      "logsBloom": "0x00000000000000000000000000000000000000000000000000000000000000000000000000000000000000000000000000000000000000000000000000000000000000000000000000000000000000000000000000000000000000000000000000000000000000000000000000000000000000000000000000000000000000000000000000000000000000000000000000000000000000000000000000000000000000000000000000000000000000000000000000000000000000000000000000000000000000000000000000000000000000000000000000000000000000000000000000000000000000000000000000000000000000000000000000000000",
      "type": "0x2",
      "transactionHash": "0xf2f6fdc208eb0cc8bd46a7107046724b351a5e846d11a76333af5002dd5f5941",
      "transactionIndex": "0x5",
      "blockHash": "0x07236685d06220c807ae8b17f4ff3295f1a7296ea6f8c8e9a15717b35b0d0fd3",
      "blockNumber": "0x11a8876",
      "gasUsed": "0x9bc73",
      "effectiveGasPrice": "0x187a7",
      "from": "0xe62ab4d111f968660c6b2188046f9b9ba53c4bae",
      "to": "0x2d1967ef42ecf9a42785d08398aadba806aa090b",
      "contractAddress": null,
      "l1BaseFeeScalar": "0x44d",
      "l1BlobBaseFee": "0x3b",
      "l1BlobBaseFeeScalar": "0xa118b",
      "l1Fee": "0x43d4b060f",
      "l1GasPrice": "0xa0c6b8d1",
      "l1GasUsed": "0x17f3"
    }
  ],
  "libraries": [],
  "pending": [],
  "returns": {},
  "timestamp": 1732800466,
  "chain": 84532,
  "commit": "9c84b963"
}