{
  "transactions": [
    {
      "hash": "0xfed4f02753012a541121bef2ad87de2897a05e3b23fd2e528804eb1eb05fae64",
      "transactionType": "CALL",
      "contractName": null,
      "contractAddress": "0xe1c4c5a0e6a99bb61b842bb78e5c66ea1256d292",
      "function": "addChainContract(string[],string[])",
      "arguments": [
        "[59141, 78600, 2484]",
        "[0x41543a4c6423e2546fc58ac63117b5692d68c323, 0x06edc167555ceb6038e2c6b3bed7a47c628f2eed, 0x16b049e17b49c5dc1d8598b53593d4497c858c9a]"
      ],
      "transaction": {
        "from": "0xe62ab4d111f968660c6b2188046f9b9ba53c4bae",
        "to": "0xe1c4c5a0e6a99bb61b842bb78e5c66ea1256d292",
        "gas": "0xaf40f",
        "value": "0x0",
        "input": "0x013fd3bd000000000000000000000000000000000000000000000000000000000000004000000000000000000000000000000000000000000000000000000000000001800000000000000000000000000000000000000000000000000000000000000003000000000000000000000000000000000000000000000000000000000000006000000000000000000000000000000000000000000000000000000000000000a000000000000000000000000000000000000000000000000000000000000000e00000000000000000000000000000000000000000000000000000000000000005353931343100000000000000000000000000000000000000000000000000000000000000000000000000000000000000000000000000000000000000000000053738363030000000000000000000000000000000000000000000000000000000000000000000000000000000000000000000000000000000000000000000000432343834000000000000000000000000000000000000000000000000000000000000000000000000000000000000000000000000000000000000000000000003000000000000000000000000000000000000000000000000000000000000006000000000000000000000000000000000000000000000000000000000000000c00000000000000000000000000000000000000000000000000000000000000120000000000000000000000000000000000000000000000000000000000000002a30783431353433613463363432336532353436666335386163363331313762353639326436386333323300000000000000000000000000000000000000000000000000000000000000000000000000000000000000000000000000000000002a30783036656463313637353535636562363033386532633662336265643761343763363238663265656400000000000000000000000000000000000000000000000000000000000000000000000000000000000000000000000000000000002a30783136623034396531376234396335646331643835393862353335393364343439376338353863396100000000000000000000000000000000000000000000",
        "nonce": "0x367",
        "chainId": "0x14a34"
      },
      "additionalContracts": [],
      "isFixedGasLimit": false
    },
    {
      "hash": "0xc437444343d8f8cf5fe928dd8ee35a7d6006a8125bf0f6224646653373440a8e",
      "transactionType": "CALL",
      "contractName": null,
      "contractAddress": "0xe1c4c5a0e6a99bb61b842bb78e5c66ea1256d292",
      "function": "attachRWAX(uint256,uint256,string[],string[])",
      "arguments": [
        "1",
        "1",
        "[59141, 78600, 2484]",
        "[0x969035b34b913c507b87fd805fff608fb1fe13f0, 0x282eccb80074e9ab23ea5d28bd795c0bba3726a6, 0xfc63dc90296800c67cbb96330238fc17fbd674a2]"
      ],
      "transaction": {
        "from": "0xe62ab4d111f968660c6b2188046f9b9ba53c4bae",
        "to": "0xe1c4c5a0e6a99bb61b842bb78e5c66ea1256d292",
        "gas": "0xce2f1",
        "value": "0x0",
        "input": "0x33a5f5b400000000000000000000000000000000000000000000000000000000000000010000000000000000000000000000000000000000000000000000000000000001000000000000000000000000000000000000000000000000000000000000008000000000000000000000000000000000000000000000000000000000000001c00000000000000000000000000000000000000000000000000000000000000003000000000000000000000000000000000000000000000000000000000000006000000000000000000000000000000000000000000000000000000000000000a000000000000000000000000000000000000000000000000000000000000000e00000000000000000000000000000000000000000000000000000000000000005353931343100000000000000000000000000000000000000000000000000000000000000000000000000000000000000000000000000000000000000000000053738363030000000000000000000000000000000000000000000000000000000000000000000000000000000000000000000000000000000000000000000000432343834000000000000000000000000000000000000000000000000000000000000000000000000000000000000000000000000000000000000000000000003000000000000000000000000000000000000000000000000000000000000006000000000000000000000000000000000000000000000000000000000000000c00000000000000000000000000000000000000000000000000000000000000120000000000000000000000000000000000000000000000000000000000000002a30783936393033356233346239313363353037623837666438303566666636303866623166653133663000000000000000000000000000000000000000000000000000000000000000000000000000000000000000000000000000000000002a30783238326563636238303037346539616232336561356432386264373935633062626133373236613600000000000000000000000000000000000000000000000000000000000000000000000000000000000000000000000000000000002a30786663363364633930323936383030633637636262393633333032333866633137666264363734613200000000000000000000000000000000000000000000",
        "nonce": "0x368",
        "chainId": "0x14a34"
      },
      "additionalContracts": [],
      "isFixedGasLimit": false
    },
    {
      "hash": "0x475e1023d203510b4e47c1524ede45fb730cb34e9f7c936a16363296297a7c5e",
      "transactionType": "CALL",
      "contractName": null,
      "contractAddress": "0xe1c4c5a0e6a99bb61b842bb78e5c66ea1256d292",
      "function": "attachStorageManager(uint256,uint256,string[],string[])",
      "arguments": [
        "1",
        "1",
        "[59141, 78600, 2484]",
        "[0x20b88eba092c4ceb11e88f92abe1c01bc7fe7234, 0x8393181277c8a85ec0468b3f1ee61bbfd78e62b4, 0xc74d2556d610f886b55653faffddf4bd0c1605b6]"
      ],
      "transaction": {
        "from": "0xe62ab4d111f968660c6b2188046f9b9ba53c4bae",
        "to": "0xe1c4c5a0e6a99bb61b842bb78e5c66ea1256d292",
        "gas": "0xb538b",
        "value": "0x0",
        "input": "0x2f68b48900000000000000000000000000000000000000000000000000000000000000010000000000000000000000000000000000000000000000000000000000000001000000000000000000000000000000000000000000000000000000000000008000000000000000000000000000000000000000000000000000000000000001c00000000000000000000000000000000000000000000000000000000000000003000000000000000000000000000000000000000000000000000000000000006000000000000000000000000000000000000000000000000000000000000000a000000000000000000000000000000000000000000000000000000000000000e00000000000000000000000000000000000000000000000000000000000000005353931343100000000000000000000000000000000000000000000000000000000000000000000000000000000000000000000000000000000000000000000053738363030000000000000000000000000000000000000000000000000000000000000000000000000000000000000000000000000000000000000000000000432343834000000000000000000000000000000000000000000000000000000000000000000000000000000000000000000000000000000000000000000000003000000000000000000000000000000000000000000000000000000000000006000000000000000000000000000000000000000000000000000000000000000c00000000000000000000000000000000000000000000000000000000000000120000000000000000000000000000000000000000000000000000000000000002a30783230623838656261303932633463656231316538386639326162653163303162633766653732333400000000000000000000000000000000000000000000000000000000000000000000000000000000000000000000000000000000002a30783833393331383132373763386138356563303436386233663165653631626266643738653632623400000000000000000000000000000000000000000000000000000000000000000000000000000000000000000000000000000000002a30786337346432353536643631306638383662353536353366616666646466346264306331363035623600000000000000000000000000000000000000000000",
        "nonce": "0x369",
        "chainId": "0x14a34"
      },
      "additionalContracts": [],
      "isFixedGasLimit": false
    },
    {
      "hash": "0xc148724f2bf9ddb4ddf1ef1361fbee2dd0ab6db400c3b315abf46053e1d31591",
      "transactionType": "CALL",
      "contractName": null,
      "contractAddress": "0xe1c4c5a0e6a99bb61b842bb78e5c66ea1256d292",
      "function": "attachSentryManager(uint256,uint256,string[],string[])",
      "arguments": [
        "1",
        "1",
        "[59141, 78600, 2484]",
        "[0xe569c146b0d4c1c941607b5c6a648b5877ae29ef, 0xac71dcf325724594525cc05552bee7d6550a80fd, 0xdbd55d95d447e363251592a8ff573bbf16c2cb68]"
      ],
      "transaction": {
        "from": "0xe62ab4d111f968660c6b2188046f9b9ba53c4bae",
        "to": "0xe1c4c5a0e6a99bb61b842bb78e5c66ea1256d292",
        "gas": "0xb50f2",
        "value": "0x0",
        "input": "0x349de79700000000000000000000000000000000000000000000000000000000000000010000000000000000000000000000000000000000000000000000000000000001000000000000000000000000000000000000000000000000000000000000008000000000000000000000000000000000000000000000000000000000000001c00000000000000000000000000000000000000000000000000000000000000003000000000000000000000000000000000000000000000000000000000000006000000000000000000000000000000000000000000000000000000000000000a000000000000000000000000000000000000000000000000000000000000000e00000000000000000000000000000000000000000000000000000000000000005353931343100000000000000000000000000000000000000000000000000000000000000000000000000000000000000000000000000000000000000000000053738363030000000000000000000000000000000000000000000000000000000000000000000000000000000000000000000000000000000000000000000000432343834000000000000000000000000000000000000000000000000000000000000000000000000000000000000000000000000000000000000000000000003000000000000000000000000000000000000000000000000000000000000006000000000000000000000000000000000000000000000000000000000000000c00000000000000000000000000000000000000000000000000000000000000120000000000000000000000000000000000000000000000000000000000000002a30786535363963313436623064346331633934313630376235633661363438623538373761653239656600000000000000000000000000000000000000000000000000000000000000000000000000000000000000000000000000000000002a30786163373164636633323537323435393435323563633035353532626565376436353530613830666400000000000000000000000000000000000000000000000000000000000000000000000000000000000000000000000000000000002a30786462643535643935643434376533363332353135393261386666353733626266313663326362363800000000000000000000000000000000000000000000",
        "nonce": "0x36a",
        "chainId": "0x14a34"
      },
      "additionalContracts": [],
      "isFixedGasLimit": false
    }
  ],
  "receipts": [
    {
      "status": "0x1",
      "cumulativeGasUsed": "0x551d11",
      "logs": [],
      "logsBloom": "0x00000000000000000000000000000000000000000000000000000000000000000000000000000000000000000000000000000000000000000000000000000000000000000000000000000000000000000000000000000000000000000000000000000000000000000000000000000000000000000000000000000000000000000000000000000000000000000000000000000000000000000000000000000000000000000000000000000000000000000000000000000000000000000000000000000000000000000000000000000000000000000000000000000000000000000000000000000000000000000000000000000000000000000000000000000000",
      "type": "0x2",
      "transactionHash": "0xfed4f02753012a541121bef2ad87de2897a05e3b23fd2e528804eb1eb05fae64",
      "transactionIndex": "0x25",
      "blockHash": "0x513fc33111b6ba8f354ea5dbef44d602430c05700c9ec8b3726ce96231319ebb",
      "blockNumber": "0x154b58a",
      "gasUsed": "0x7ee17",
      "effectiveGasPrice": "0xe1beb",
      "from": "0xe62ab4d111f968660c6b2188046f9b9ba53c4bae",
      "to": "0xe1c4c5a0e6a99bb61b842bb78e5c66ea1256d292",
      "contractAddress": null,
      "l1BaseFeeScalar": "0x44d",
      "l1BlobBaseFee": "0xb6d3844c0",
      "l1BlobBaseFeeScalar": "0xa118b",
      "l1Fee": "0x7c94eb94312",
      "l1GasPrice": "0x14a948383",
      "l1GasUsed": "0x1079"
    },
    {
      "status": "0x1",
      "cumulativeGasUsed": "0x676606",
      "logs": [],
      "logsBloom": "0x00000000000000000000000000000000000000000000000000000000000000000000000000000000000000000000000000000000000000000000000000000000000000000000000000000000000000000000000000000000000000000000000000000000000000000000000000000000000000000000000000000000000000000000000000000000000000000000000000000000000000000000000000000000000000000000000000000000000000000000000000000000000000000000000000000000000000000000000000000000000000000000000000000000000000000000000000000000000000000000000000000000000000000000000000000000",
      "type": "0x2",
      "transactionHash": "0xc437444343d8f8cf5fe928dd8ee35a7d6006a8125bf0f6224646653373440a8e",
      "transactionIndex": "0x28",
      "blockHash": "0x144ff61bfb7c031227e44611f22efc6e439e5ba156e1d43e89a2a738a9fe76e6",
      "blockNumber": "0x154b58b",
      "gasUsed": "0x95460",
      "effectiveGasPrice": "0xe1beb",
      "from": "0xe62ab4d111f968660c6b2188046f9b9ba53c4bae",
      "to": "0xe1c4c5a0e6a99bb61b842bb78e5c66ea1256d292",
      "contractAddress": null,
      "l1BaseFeeScalar": "0x44d",
      "l1BlobBaseFee": "0xb6d3844c0",
      "l1BlobBaseFeeScalar": "0xa118b",
      "l1Fee": "0x7e29cb06a7a",
      "l1GasPrice": "0x14a948383",
      "l1GasUsed": "0x10ae"
    },
    {
      "status": "0x1",
      "cumulativeGasUsed": "0x5c0716",
      "logs": [],
      "logsBloom": "0x00000000000000000000000000000000000000000000000000000000000000000000000000000000000000000000000000000000000000000000000000000000000000000000000000000000000000000000000000000000000000000000000000000000000000000000000000000000000000000000000000000000000000000000000000000000000000000000000000000000000000000000000000000000000000000000000000000000000000000000000000000000000000000000000000000000000000000000000000000000000000000000000000000000000000000000000000000000000000000000000000000000000000000000000000000000",
      "type": "0x2",
      "transactionHash": "0x475e1023d203510b4e47c1524ede45fb730cb34e9f7c936a16363296297a7c5e",
      "transactionIndex": "0x27",
      "blockHash": "0x620037c4a15c5daa3f7957d16eb8af0e5da8d71338458601656882d31f370f7e",
      "blockNumber": "0x154b58c",
      "gasUsed": "0x83338",
      "effectiveGasPrice": "0xe1beb",
      "from": "0xe62ab4d111f968660c6b2188046f9b9ba53c4bae",
      "to": "0xe1c4c5a0e6a99bb61b842bb78e5c66ea1256d292",
      "contractAddress": null,
      "l1BaseFeeScalar": "0x44d",
      "l1BlobBaseFee": "0xb6d3844c0",
      "l1BlobBaseFeeScalar": "0xa118b",
      "l1Fee": "0x7bca7bdaf5e",
      "l1GasPrice": "0x14a948383",
      "l1GasUsed": "0x105e"
    },
    {
      "status": "0x1",
      "cumulativeGasUsed": "0x598d6b",
      "logs": [],
      "logsBloom": "0x00000000000000000000000000000000000000000000000000000000000000000000000000000000000000000000000000000000000000000000000000000000000000000000000000000000000000000000000000000000000000000000000000000000000000000000000000000000000000000000000000000000000000000000000000000000000000000000000000000000000000000000000000000000000000000000000000000000000000000000000000000000000000000000000000000000000000000000000000000000000000000000000000000000000000000000000000000000000000000000000000000000000000000000000000000000",
      "type": "0x2",
      "transactionHash": "0xc148724f2bf9ddb4ddf1ef1361fbee2dd0ab6db400c3b315abf46053e1d31591",
      "transactionIndex": "0x29",
      "blockHash": "0x5a8fb08639e56f5a1380f136f26e4ba41e686e67ccb50d0019135de93a696a0b",
      "blockNumber": "0x154b58e",
      "gasUsed": "0x83157",
      "effectiveGasPrice": "0xe1beb",
      "from": "0xe62ab4d111f968660c6b2188046f9b9ba53c4bae",
      "to": "0xe1c4c5a0e6a99bb61b842bb78e5c66ea1256d292",
      "contractAddress": null,
      "l1BaseFeeScalar": "0x44d",
      "l1BlobBaseFee": "0xbe259e8ad",
      "l1BlobBaseFeeScalar": "0xa118b",
      "l1Fee": "0x84dcf38274c",
      "l1GasPrice": "0x15a883c3e",
      "l1GasUsed": "0x10e4"
    }
  ],
  "libraries": [],
  "pending": [],
  "returns": {},
  "timestamp": 1740425725,
  "chain": 84532,
  "commit": "82ab662e"
}