{
  "transactions": [
    {
      "hash": "0x624f0b05ad295ea606aae5d6ed2c82907747181b4b83f0793a221cc84e319d81",
      "transactionType": "CALL",
      "contractName": "FeeManager",
      "contractAddress": "0xb9f462138e33dd8dba73394ddff141b3ef2f6bb1",
      "function": "getFeeTokenList()",
      "arguments": [],
      "transaction": {
        "from": "0xe62ab4d111f968660c6b2188046f9b9ba53c4bae",
        "to": "0xb9f462138e33dd8dba73394ddff141b3ef2f6bb1",
        "gas": "0x8a7e",
        "value": "0x0",
        "input": "0xe28ab277",
        "nonce": "0x149",
        "chainId": "0x14a34"
      },
      "additionalContracts": [],
      "isFixedGasLimit": false
    },
    {
      "hash": "0xea28f05a7b0104d694f99cfca0c22487e31c99a907d4ee4eb48aa1008dc4ff12",
      "transactionType": "CALL",
      "contractName": "FeeManager",
      "contractAddress": "0xb9f462138e33dd8dba73394ddff141b3ef2f6bb1",
      "function": "addFeeToken(string)",
      "arguments": [
        "0x6a4dbc971533ba36bdc23ad70f5a7a12e064f4ae"
      ],
      "transaction": {
        "from": "0xe62ab4d111f968660c6b2188046f9b9ba53c4bae",
        "to": "0xb9f462138e33dd8dba73394ddff141b3ef2f6bb1",
        "gas": "0x2696b",
        "value": "0x0",
        "input": "0x12a6385f0000000000000000000000000000000000000000000000000000000000000020000000000000000000000000000000000000000000000000000000000000002a30783661346462633937313533336261333662646332336164373066356137613132653036346634616500000000000000000000000000000000000000000000",
        "nonce": "0x14a",
        "chainId": "0x14a34"
      },
      "additionalContracts": [],
      "isFixedGasLimit": false
    },
    {
      "hash": "0x9c13c5f3512b4f1d3a8ce388ab3c207dd5d44bb124f0ef2d8668732801d7a6d9",
      "transactionType": "CALL",
      "contractName": "FeeManager",
      "contractAddress": "0xb9f462138e33dd8dba73394ddff141b3ef2f6bb1",
      "function": "setFeeMultiplier(uint8,uint256)",
      "arguments": [
        "0",
        "2"
      ],
      "transaction": {
        "from": "0xe62ab4d111f968660c6b2188046f9b9ba53c4bae",
        "to": "0xb9f462138e33dd8dba73394ddff141b3ef2f6bb1",
        "gas": "0x112e8",
        "value": "0x0",
        "input": "0x0ee24eb500000000000000000000000000000000000000000000000000000000000000000000000000000000000000000000000000000000000000000000000000000002",
        "nonce": "0x14b",
        "chainId": "0x14a34"
      },
      "additionalContracts": [],
      "isFixedGasLimit": false
    },
    {
      "hash": "0xc16f39750938b12e01b8edd5a35a21ce79d66b55f9b3f4944c8de0e6caea897e",
      "transactionType": "CALL",
      "contractName": "FeeManager",
      "contractAddress": "0xb9f462138e33dd8dba73394ddff141b3ef2f6bb1",
      "function": "setFeeMultiplier(uint8,uint256)",
      "arguments": [
        "1",
        "10"
      ],
      "transaction": {
        "from": "0xe62ab4d111f968660c6b2188046f9b9ba53c4bae",
        "to": "0xb9f462138e33dd8dba73394ddff141b3ef2f6bb1",
        "gas": "0x11324",
        "value": "0x0",
        "input": "0x0ee24eb50000000000000000000000000000000000000000000000000000000000000001000000000000000000000000000000000000000000000000000000000000000a",
        "nonce": "0x14c",
        "chainId": "0x14a34"
      },
      "additionalContracts": [],
      "isFixedGasLimit": false
    },
    {
      "hash": "0x387ae3b914cbef2fd692b372a1bf304c1cbc8325ea9c8b23fcced3dc718aedcf",
      "transactionType": "CALL",
      "contractName": "FeeManager",
      "contractAddress": "0xb9f462138e33dd8dba73394ddff141b3ef2f6bb1",
      "function": "setFeeMultiplier(uint8,uint256)",
      "arguments": [
        "2",
        "1"
      ],
      "transaction": {
        "from": "0xe62ab4d111f968660c6b2188046f9b9ba53c4bae",
        "to": "0xb9f462138e33dd8dba73394ddff141b3ef2f6bb1",
        "gas": "0x11346",
        "value": "0x0",
        "input": "0x0ee24eb500000000000000000000000000000000000000000000000000000000000000020000000000000000000000000000000000000000000000000000000000000001",
        "nonce": "0x14d",
        "chainId": "0x14a34"
      },
      "additionalContracts": [],
      "isFixedGasLimit": false
    },
    {
      "hash": "0xe12bd3c5f5c091e35dcc2f95217d6e4b94798fcb26ca9b9913eb81f6d936e930",
      "transactionType": "CALL",
      "contractName": "FeeManager",
      "contractAddress": "0xb9f462138e33dd8dba73394ddff141b3ef2f6bb1",
      "function": "setFeeMultiplier(uint8,uint256)",
      "arguments": [
        "3",
        "4"
      ],
      "transaction": {
        "from": "0xe62ab4d111f968660c6b2188046f9b9ba53c4bae",
        "to": "0xb9f462138e33dd8dba73394ddff141b3ef2f6bb1",
        "gas": "0x1041b",
        "value": "0x0",
        "input": "0x0ee24eb500000000000000000000000000000000000000000000000000000000000000030000000000000000000000000000000000000000000000000000000000000004",
        "nonce": "0x14e",
        "chainId": "0x14a34"
      },
      "additionalContracts": [],
      "isFixedGasLimit": false
    },
    {
      "hash": "0x84c828dd7e399c59cc7c7b68b85c987d6077cf67f182bfa3ea52a3a27c666973",
      "transactionType": "CALL",
      "contractName": "FeeManager",
      "contractAddress": "0xb9f462138e33dd8dba73394ddff141b3ef2f6bb1",
      "function": "setFeeMultiplier(uint8,uint256)",
      "arguments": [
        "4",
        "4"
      ],
      "transaction": {
        "from": "0xe62ab4d111f968660c6b2188046f9b9ba53c4bae",
        "to": "0xb9f462138e33dd8dba73394ddff141b3ef2f6bb1",
        "gas": "0x1043a",
        "value": "0x0",
        "input": "0x0ee24eb500000000000000000000000000000000000000000000000000000000000000040000000000000000000000000000000000000000000000000000000000000004",
        "nonce": "0x14f",
        "chainId": "0x14a34"
      },
      "additionalContracts": [],
      "isFixedGasLimit": false
    },
    {
      "hash": "0xe2b0da7aa14fa73c8680215edeb0ed25f36572f2ee977fae0e5a75c93ef9fb25",
      "transactionType": "CALL",
      "contractName": "FeeManager",
      "contractAddress": "0xb9f462138e33dd8dba73394ddff141b3ef2f6bb1",
      "function": "setFeeMultiplier(uint8,uint256)",
      "arguments": [
        "5",
        "8"
      ],
      "transaction": {
        "from": "0xe62ab4d111f968660c6b2188046f9b9ba53c4bae",
        "to": "0xb9f462138e33dd8dba73394ddff141b3ef2f6bb1",
        "gas": "0x10459",
        "value": "0x0",
        "input": "0x0ee24eb500000000000000000000000000000000000000000000000000000000000000050000000000000000000000000000000000000000000000000000000000000008",
        "nonce": "0x150",
        "chainId": "0x14a34"
      },
      "additionalContracts": [],
      "isFixedGasLimit": false
    },
    {
      "hash": "0xd4d6604dd161a730d26b5e25bede99ad1a3286566c6dc15a3f869a3623c881a5",
      "transactionType": "CALL",
      "contractName": "FeeManager",
      "contractAddress": "0xb9f462138e33dd8dba73394ddff141b3ef2f6bb1",
      "function": "setFeeMultiplier(uint8,uint256)",
      "arguments": [
        "6",
        "4"
      ],
      "transaction": {
        "from": "0xe62ab4d111f968660c6b2188046f9b9ba53c4bae",
        "to": "0xb9f462138e33dd8dba73394ddff141b3ef2f6bb1",
        "gas": "0x1047a",
        "value": "0x0",
        "input": "0x0ee24eb500000000000000000000000000000000000000000000000000000000000000060000000000000000000000000000000000000000000000000000000000000004",
        "nonce": "0x151",
        "chainId": "0x14a34"
      },
      "additionalContracts": [],
      "isFixedGasLimit": false
    },
    {
      "hash": "0x0f6d2a24443e1d4ebc9298fbcfa6bf88127b97af99a66695f5aebb4e526569ca",
      "transactionType": "CALL",
      "contractName": "FeeManager",
      "contractAddress": "0xb9f462138e33dd8dba73394ddff141b3ef2f6bb1",
      "function": "setFeeMultiplier(uint8,uint256)",
      "arguments": [
        "7",
        "10"
      ],
      "transaction": {
        "from": "0xe62ab4d111f968660c6b2188046f9b9ba53c4bae",
        "to": "0xb9f462138e33dd8dba73394ddff141b3ef2f6bb1",
        "gas": "0x10499",
        "value": "0x0",
        "input": "0x0ee24eb50000000000000000000000000000000000000000000000000000000000000007000000000000000000000000000000000000000000000000000000000000000a",
        "nonce": "0x152",
        "chainId": "0x14a34"
      },
      "additionalContracts": [],
      "isFixedGasLimit": false
    },
    {
      "hash": "0x9527b815ba17c2eb65572cd57002a7de0ef142c81d95a98f8e4626e5ec93363b",
      "transactionType": "CALL",
      "contractName": "FeeManager",
      "contractAddress": "0xb9f462138e33dd8dba73394ddff141b3ef2f6bb1",
      "function": "setFeeMultiplier(uint8,uint256)",
      "arguments": [
        "8",
        "8"
      ],
      "transaction": {
        "from": "0xe62ab4d111f968660c6b2188046f9b9ba53c4bae",
        "to": "0xb9f462138e33dd8dba73394ddff141b3ef2f6bb1",
        "gas": "0x1140f",
        "value": "0x0",
        "input": "0x0ee24eb500000000000000000000000000000000000000000000000000000000000000080000000000000000000000000000000000000000000000000000000000000008",
        "nonce": "0x153",
        "chainId": "0x14a34"
      },
      "additionalContracts": [],
      "isFixedGasLimit": false
    },
    {
      "hash": "0xa5c9ac7505dd08a86db549bd92c2b954897b568624a3838682a81bfd126953f0",
      "transactionType": "CALL",
      "contractName": "FeeManager",
      "contractAddress": "0xb9f462138e33dd8dba73394ddff141b3ef2f6bb1",
      "function": "setFeeMultiplier(uint8,uint256)",
      "arguments": [
        "9",
        "8"
      ],
      "transaction": {
        "from": "0xe62ab4d111f968660c6b2188046f9b9ba53c4bae",
        "to": "0xb9f462138e33dd8dba73394ddff141b3ef2f6bb1",
        "gas": "0x11431",
        "value": "0x0",
        "input": "0x0ee24eb500000000000000000000000000000000000000000000000000000000000000090000000000000000000000000000000000000000000000000000000000000008",
        "nonce": "0x154",
        "chainId": "0x14a34"
      },
      "additionalContracts": [],
      "isFixedGasLimit": false
    },
    {
      "hash": "0x35d22a41a9715be5dcb02e6476a2eea3bde7a4015aaad1452b4f6f81a32a8871",
      "transactionType": "CALL",
      "contractName": "FeeManager",
      "contractAddress": "0xb9f462138e33dd8dba73394ddff141b3ef2f6bb1",
      "function": "setFeeMultiplier(uint8,uint256)",
      "arguments": [
        "10",
        "8"
      ],
      "transaction": {
        "from": "0xe62ab4d111f968660c6b2188046f9b9ba53c4bae",
        "to": "0xb9f462138e33dd8dba73394ddff141b3ef2f6bb1",
        "gas": "0x11453",
        "value": "0x0",
        "input": "0x0ee24eb5000000000000000000000000000000000000000000000000000000000000000a0000000000000000000000000000000000000000000000000000000000000008",
        "nonce": "0x155",
        "chainId": "0x14a34"
      },
      "additionalContracts": [],
      "isFixedGasLimit": false
    },
    {
      "hash": "0xfc54be19cdd927949f56d52d554eb47ba87dca384bda5b7d3d11ddcc1684744d",
      "transactionType": "CALL",
      "contractName": "FeeManager",
      "contractAddress": "0xb9f462138e33dd8dba73394ddff141b3ef2f6bb1",
      "function": "setFeeMultiplier(uint8,uint256)",
      "arguments": [
        "11",
        "20"
      ],
      "transaction": {
        "from": "0xe62ab4d111f968660c6b2188046f9b9ba53c4bae",
        "to": "0xb9f462138e33dd8dba73394ddff141b3ef2f6bb1",
        "gas": "0x10518",
        "value": "0x0",
        "input": "0x0ee24eb5000000000000000000000000000000000000000000000000000000000000000b0000000000000000000000000000000000000000000000000000000000000014",
        "nonce": "0x156",
        "chainId": "0x14a34"
      },
      "additionalContracts": [],
      "isFixedGasLimit": false
    },
    {
      "hash": "0x3d2e17eab919d8de66cae436bd870e38f4cf04b42f010a782959c5714a00381c",
      "transactionType": "CALL",
      "contractName": "FeeManager",
      "contractAddress": "0xb9f462138e33dd8dba73394ddff141b3ef2f6bb1",
      "function": "setFeeMultiplier(uint8,uint256)",
      "arguments": [
        "12",
        "8"
      ],
      "transaction": {
        "from": "0xe62ab4d111f968660c6b2188046f9b9ba53c4bae",
        "to": "0xb9f462138e33dd8dba73394ddff141b3ef2f6bb1",
        "gas": "0x10538",
        "value": "0x0",
        "input": "0x0ee24eb5000000000000000000000000000000000000000000000000000000000000000c0000000000000000000000000000000000000000000000000000000000000008",
        "nonce": "0x157",
        "chainId": "0x14a34"
      },
      "additionalContracts": [],
      "isFixedGasLimit": false
    },
    {
      "hash": "0xbe04f742b671fb9a5a1f2a63965393a3930037366aee40961887d65fa31489c3",
      "transactionType": "CALL",
      "contractName": "FeeManager",
      "contractAddress": "0xb9f462138e33dd8dba73394ddff141b3ef2f6bb1",
      "function": "setFeeMultiplier(uint8,uint256)",
      "arguments": [
        "13",
        "4"
      ],
      "transaction": {
        "from": "0xe62ab4d111f968660c6b2188046f9b9ba53c4bae",
        "to": "0xb9f462138e33dd8dba73394ddff141b3ef2f6bb1",
        "gas": "0x10558",
        "value": "0x0",
        "input": "0x0ee24eb5000000000000000000000000000000000000000000000000000000000000000d0000000000000000000000000000000000000000000000000000000000000004",
        "nonce": "0x158",
        "chainId": "0x14a34"
      },
      "additionalContracts": [],
      "isFixedGasLimit": false
    },
    {
      "hash": "0x6c2c821cc15aed7b1ae47b65704248d8ccadf9d2173c9c5cfdf52cc0bddfcd40",
      "transactionType": "CALL",
      "contractName": "FeeManager",
      "contractAddress": "0xb9f462138e33dd8dba73394ddff141b3ef2f6bb1",
      "function": "setFeeMultiplier(uint8,uint256)",
      "arguments": [
        "14",
        "4"
      ],
      "transaction": {
        "from": "0xe62ab4d111f968660c6b2188046f9b9ba53c4bae",
        "to": "0xb9f462138e33dd8dba73394ddff141b3ef2f6bb1",
        "gas": "0x10577",
        "value": "0x0",
        "input": "0x0ee24eb5000000000000000000000000000000000000000000000000000000000000000e0000000000000000000000000000000000000000000000000000000000000004",
        "nonce": "0x159",
        "chainId": "0x14a34"
      },
      "additionalContracts": [],
      "isFixedGasLimit": false
    },
    {
      "hash": "0x698e65444d85e34b4c069f3612e693916beaa4499a855c8fc2b0bde65096e6d1",
      "transactionType": "CALL",
      "contractName": "FeeManager",
      "contractAddress": "0xb9f462138e33dd8dba73394ddff141b3ef2f6bb1",
      "function": "setFeeMultiplier(uint8,uint256)",
      "arguments": [
        "15",
        "2"
      ],
      "transaction": {
        "from": "0xe62ab4d111f968660c6b2188046f9b9ba53c4bae",
        "to": "0xb9f462138e33dd8dba73394ddff141b3ef2f6bb1",
        "gas": "0x10590",
        "value": "0x0",
        "input": "0x0ee24eb5000000000000000000000000000000000000000000000000000000000000000f0000000000000000000000000000000000000000000000000000000000000002",
        "nonce": "0x15a",
        "chainId": "0x14a34"
      },
      "additionalContracts": [],
      "isFixedGasLimit": false
    },
    {
      "hash": "0x73362675006c924ba809c49ac4504f49585a994bb7c088d82bfe0036f96bc8b9",
      "transactionType": "CALL",
      "contractName": "FeeManager",
      "contractAddress": "0xb9f462138e33dd8dba73394ddff141b3ef2f6bb1",
      "function": "addFeeToken(string,string[],uint256[])",
      "arguments": [
        "421614",
        "[0x6a4dbc971533ba36bdc23ad70f5a7a12e064f4ae]",
        "[1000]"
      ],
      "transaction": {
        "from": "0xe62ab4d111f968660c6b2188046f9b9ba53c4bae",
        "to": "0xb9f462138e33dd8dba73394ddff141b3ef2f6bb1",
        "gas": "0x2f642",
        "value": "0x0",
        "input": "0x437bf84f000000000000000000000000000000000000000000000000000000000000006000000000000000000000000000000000000000000000000000000000000000a000000000000000000000000000000000000000000000000000000000000001400000000000000000000000000000000000000000000000000000000000000006343231363134000000000000000000000000000000000000000000000000000000000000000000000000000000000000000000000000000000000000000000010000000000000000000000000000000000000000000000000000000000000020000000000000000000000000000000000000000000000000000000000000002a30783661346462633937313533336261333662646332336164373066356137613132653036346634616500000000000000000000000000000000000000000000000000000000000000000000000000000000000000000000000000000000000100000000000000000000000000000000000000000000000000000000000003e8",
        "nonce": "0x15b",
        "chainId": "0x14a34"
      },
      "additionalContracts": [],
      "isFixedGasLimit": false
    },
    {
      "hash": "0xb8eabfaf8799ad350a54edeabf47c865dd6f549d515a37a5085ade4a97719736",
      "transactionType": "CALL",
      "contractName": "FeeManager",
      "contractAddress": "0xb9f462138e33dd8dba73394ddff141b3ef2f6bb1",
      "function": "addFeeToken(string,string[],uint256[])",
      "arguments": [
        "84532",
        "[0x6a4dbc971533ba36bdc23ad70f5a7a12e064f4ae]",
        "[1000]"
      ],
      "transaction": {
        "from": "0xe62ab4d111f968660c6b2188046f9b9ba53c4bae",
        "to": "0xb9f462138e33dd8dba73394ddff141b3ef2f6bb1",
        "gas": "0x2a2b1",
        "value": "0x0",
        "input": "0x437bf84f000000000000000000000000000000000000000000000000000000000000006000000000000000000000000000000000000000000000000000000000000000a000000000000000000000000000000000000000000000000000000000000001400000000000000000000000000000000000000000000000000000000000000005383435333200000000000000000000000000000000000000000000000000000000000000000000000000000000000000000000000000000000000000000000010000000000000000000000000000000000000000000000000000000000000020000000000000000000000000000000000000000000000000000000000000002a30783661346462633937313533336261333662646332336164373066356137613132653036346634616500000000000000000000000000000000000000000000000000000000000000000000000000000000000000000000000000000000000100000000000000000000000000000000000000000000000000000000000003e8",
        "nonce": "0x15c",
        "chainId": "0x14a34"
      },
      "additionalContracts": [],
      "isFixedGasLimit": false
    },
    {
      "hash": "0xa42a9c0255e453d5cd6dd5db48d48369823a0750ceb10d6d73fbccf5c9624a3c",
      "transactionType": "CALL",
      "contractName": "CTMRWAGateway",
      "contractAddress": "0x21c90e25142a8cef8ca3fbefd6417617bcafa303",
      "function": "addChainContract(string[],string[])",
      "arguments": [
        "[421614]",
        "[0x6aff0df7a17477f76f2cc927a50571a23a4a3b1f]"
      ],
      "transaction": {
        "from": "0xe62ab4d111f968660c6b2188046f9b9ba53c4bae",
        "to": "0x21c90e25142a8cef8ca3fbefd6417617bcafa303",
        "gas": "0x324d3",
        "value": "0x0",
        "input": "0x013fd3bd000000000000000000000000000000000000000000000000000000000000004000000000000000000000000000000000000000000000000000000000000000c0000000000000000000000000000000000000000000000000000000000000000100000000000000000000000000000000000000000000000000000000000000200000000000000000000000000000000000000000000000000000000000000006343231363134000000000000000000000000000000000000000000000000000000000000000000000000000000000000000000000000000000000000000000010000000000000000000000000000000000000000000000000000000000000020000000000000000000000000000000000000000000000000000000000000002a30783661666630646637613137343737663736663263633932376135303537316132336134613362316600000000000000000000000000000000000000000000",
        "nonce": "0x15d",
        "chainId": "0x14a34"
      },
      "additionalContracts": [],
      "isFixedGasLimit": false
    },
    {
      "hash": "0xcb52e5fa80fa571c6f251275c959e3585478cf760b0c5f76e2844f074b2d6642",
      "transactionType": "CALL",
      "contractName": "CTMRWAGateway",
      "contractAddress": "0x21c90e25142a8cef8ca3fbefd6417617bcafa303",
      "function": "attachRWAX(uint256,uint256,string[],string[])",
      "arguments": [
        "1",
        "1",
        "[84532, 421614]",
        "[0xe4370824a15854eed6d132cb2c7ee7a4953e7aca, 0xcd1f6cb9977db3187ec00bcfaa99d5f808537be8]"
      ],
      "transaction": {
        "from": "0xe62ab4d111f968660c6b2188046f9b9ba53c4bae",
        "to": "0x21c90e25142a8cef8ca3fbefd6417617bcafa303",
        "gas": "0x5e0d8",
        "value": "0x0",
        "input": "0x33a5f5b4000000000000000000000000000000000000000000000000000000000000000100000000000000000000000000000000000000000000000000000000000000010000000000000000000000000000000000000000000000000000000000000080000000000000000000000000000000000000000000000000000000000000016000000000000000000000000000000000000000000000000000000000000000020000000000000000000000000000000000000000000000000000000000000040000000000000000000000000000000000000000000000000000000000000008000000000000000000000000000000000000000000000000000000000000000053834353332000000000000000000000000000000000000000000000000000000000000000000000000000000000000000000000000000000000000000000000634323136313400000000000000000000000000000000000000000000000000000000000000000000000000000000000000000000000000000000000000000002000000000000000000000000000000000000000000000000000000000000004000000000000000000000000000000000000000000000000000000000000000a0000000000000000000000000000000000000000000000000000000000000002a30786534333730383234613135383534656564366431333263623263376565376134393533653761636100000000000000000000000000000000000000000000000000000000000000000000000000000000000000000000000000000000002a30786364316636636239393737646233313837656330306263666161393964356638303835333762653800000000000000000000000000000000000000000000",
        "nonce": "0x15e",
        "chainId": "0x14a34"
      },
      "additionalContracts": [],
      "isFixedGasLimit": false
    },
    {
      "hash": "0x925b3703c343c2c56d4db1749fb26024d2e97e11e89751d94b6743a6726290d1",
      "transactionType": "CALL",
      "contractName": "CTMRWAGateway",
      "contractAddress": "0x21c90e25142a8cef8ca3fbefd6417617bcafa303",
      "function": "attachStorageManager(uint256,uint256,string[],string[])",
      "arguments": [
        "1",
        "1",
        "[84532, 421614]",
        "[0x7ed4d0234e6c0f6704463e9a62a33ab7b7846a09, 0x5fffba2e10d66e9368c6270cfd07e31802fff751]"
      ],
      "transaction": {
        "from": "0xe62ab4d111f968660c6b2188046f9b9ba53c4bae",
        "to": "0x21c90e25142a8cef8ca3fbefd6417617bcafa303",
        "gas": "0x6363e",
        "value": "0x0",
        "input": "0x2f68b489000000000000000000000000000000000000000000000000000000000000000100000000000000000000000000000000000000000000000000000000000000010000000000000000000000000000000000000000000000000000000000000080000000000000000000000000000000000000000000000000000000000000016000000000000000000000000000000000000000000000000000000000000000020000000000000000000000000000000000000000000000000000000000000040000000000000000000000000000000000000000000000000000000000000008000000000000000000000000000000000000000000000000000000000000000053834353332000000000000000000000000000000000000000000000000000000000000000000000000000000000000000000000000000000000000000000000634323136313400000000000000000000000000000000000000000000000000000000000000000000000000000000000000000000000000000000000000000002000000000000000000000000000000000000000000000000000000000000004000000000000000000000000000000000000000000000000000000000000000a0000000000000000000000000000000000000000000000000000000000000002a30783765643464303233346536633066363730343436336539613632613333616237623738343661303900000000000000000000000000000000000000000000000000000000000000000000000000000000000000000000000000000000002a30783566666662613265313064363665393336386336323730636664303765333138303266666637353100000000000000000000000000000000000000000000",
        "nonce": "0x15f",
        "chainId": "0x14a34"
      },
      "additionalContracts": [],
      "isFixedGasLimit": false
    }
  ],
  "receipts": [
    {
      "status": "0x1",
      "cumulativeGasUsed": "0x10cbaf",
      "logs": [],
      "logsBloom": "0x00000000000000000000000000000000000000000000000000000000000000000000000000000000000000000000000000000000000000000000000000000000000000000000000000000000000000000000000000000000000000000000000000000000000000000000000000000000000000000000000000000000000000000000000000000000000000000000000000000000000000000000000000000000000000000000000000000000000000000000000000000000000000000000000000000000000000000000000000000000000000000000000000000000000000000000000000000000000000000000000000000000000000000000000000000000",
      "type": "0x2",
      "transactionHash": "0x624f0b05ad295ea606aae5d6ed2c82907747181b4b83f0793a221cc84e319d81",
      "transactionIndex": "0xa",
      "blockHash": "0xadfbd382c1f83e9ca5f58b371424f0a7c8ee0ba54a7645ce34a04864dd65b2bd",
      "blockNumber": "0x1134aa4",
      "gasUsed": "0x5eb3",
      "effectiveGasPrice": "0x187a4",
      "from": "0xe62ab4d111f968660c6b2188046f9b9ba53c4bae",
      "to": "0xb9f462138e33dd8dba73394ddff141b3ef2f6bb1",
      "contractAddress": null,
      "l1BaseFeeScalar": "0x44d",
      "l1BlobBaseFee": "0x1",
      "l1BlobBaseFeeScalar": "0xa118b",
      "l1Fee": "0x33f630a9",
      "l1GasPrice": "0x1d7f327f",
      "l1GasUsed": "0x640"
    },
    {
      "status": "0x1",
      "cumulativeGasUsed": "0x102003",
      "logs": [
        {
          "address": "0xb9f462138e33dd8dba73394ddff141b3ef2f6bb1",
          "topics": [
            "0x1394cfab38f3fc78ed77ea6f9318782a446d96e7dc8e9a6b0149f6be25c08bcf",
            "0x0000000000000000000000006a4dbc971533ba36bdc23ad70f5a7a12e064f4ae"
          ],
          "data": "0x",
          "blockHash": "0x8017af04c63ee91f6a36d5db02262290615681842a9fe22d18d5e8428aebc45d",
          "blockNumber": "0x1134aa8",
          "transactionHash": "0xea28f05a7b0104d694f99cfca0c22487e31c99a907d4ee4eb48aa1008dc4ff12",
          "transactionIndex": "0x6",
          "logIndex": "0x1e",
          "removed": false
        }
      ],
      "logsBloom": "0x00000000000000000000000000000000000200000000000000000000000000000000000000000000000000000000000000000000000000001000000000000000000000000002000000000000000000000000001000000000000000000000000000000000000000000000000000000000000000000000000000000000000000000000000100000000000000000000000000020000000000000000000000000000000000000000000000000000000000000000000100000000000000000000000000000000000000000000000000000000000000002000000000000000000000000000000000000000000000000000000000000000000000000400000000000000",
      "type": "0x2",
      "transactionHash": "0xea28f05a7b0104d694f99cfca0c22487e31c99a907d4ee4eb48aa1008dc4ff12",
      "transactionIndex": "0x6",
      "blockHash": "0x8017af04c63ee91f6a36d5db02262290615681842a9fe22d18d5e8428aebc45d",
      "blockNumber": "0x1134aa8",
      "gasUsed": "0x1bf00",
      "effectiveGasPrice": "0x187a4",
      "from": "0xe62ab4d111f968660c6b2188046f9b9ba53c4bae",
      "to": "0xb9f462138e33dd8dba73394ddff141b3ef2f6bb1",
      "contractAddress": null,
      "l1BaseFeeScalar": "0x44d",
      "l1BlobBaseFee": "0x1",
      "l1BlobBaseFeeScalar": "0xa118b",
      "l1Fee": "0x396a1bcd",
      "l1GasPrice": "0x1d7f327f",
      "l1GasUsed": "0x6e7"
    },
    {
      "status": "0x1",
      "cumulativeGasUsed": "0x11475b",
      "logs": [],
      "logsBloom": "0x00000000000000000000000000000000000000000000000000000000000000000000000000000000000000000000000000000000000000000000000000000000000000000000000000000000000000000000000000000000000000000000000000000000000000000000000000000000000000000000000000000000000000000000000000000000000000000000000000000000000000000000000000000000000000000000000000000000000000000000000000000000000000000000000000000000000000000000000000000000000000000000000000000000000000000000000000000000000000000000000000000000000000000000000000000000",
      "type": "0x2",
      "transactionHash": "0x9c13c5f3512b4f1d3a8ce388ab3c207dd5d44bb124f0ef2d8668732801d7a6d9",
      "transactionIndex": "0xb",
      "blockHash": "0xffb0ad30973e1d9c655de6cf748b8953db300b0ca360790a5f77992e229b95e0",
      "blockNumber": "0x1134aac",
      "gasUsed": "0xbbf9",
      "effectiveGasPrice": "0x187a3",
      "from": "0xe62ab4d111f968660c6b2188046f9b9ba53c4bae",
      "to": "0xb9f462138e33dd8dba73394ddff141b3ef2f6bb1",
      "contractAddress": null,
      "l1BaseFeeScalar": "0x44d",
      "l1BlobBaseFee": "0x1",
      "l1BlobBaseFeeScalar": "0xa118b",
      "l1Fee": "0x39bcba0a",
      "l1GasPrice": "0x20c6830a",
      "l1GasUsed": "0x640"
    },
    {
      "status": "0x1",
      "cumulativeGasUsed": "0xb8401",
      "logs": [],
      "logsBloom": "0x00000000000000000000000000000000000000000000000000000000000000000000000000000000000000000000000000000000000000000000000000000000000000000000000000000000000000000000000000000000000000000000000000000000000000000000000000000000000000000000000000000000000000000000000000000000000000000000000000000000000000000000000000000000000000000000000000000000000000000000000000000000000000000000000000000000000000000000000000000000000000000000000000000000000000000000000000000000000000000000000000000000000000000000000000000000",
      "type": "0x2",
      "transactionHash": "0xc16f39750938b12e01b8edd5a35a21ce79d66b55f9b3f4944c8de0e6caea897e",
      "transactionIndex": "0x9",
      "blockHash": "0xb943c0c0a78785a40357a089791b47e0765b8ec29385dd0b0258f9d2dc4522ff",
      "blockNumber": "0x1134ab0",
      "gasUsed": "0xbc22",
      "effectiveGasPrice": "0x187a3",
      "from": "0xe62ab4d111f968660c6b2188046f9b9ba53c4bae",
      "to": "0xb9f462138e33dd8dba73394ddff141b3ef2f6bb1",
      "contractAddress": null,
      "l1BaseFeeScalar": "0x44d",
      "l1BlobBaseFee": "0x1",
      "l1BlobBaseFeeScalar": "0xa118b",
      "l1Fee": "0x391d9afe",
      "l1GasPrice": "0x206c2f26",
      "l1GasUsed": "0x640"
    },
    {
      "status": "0x1",
      "cumulativeGasUsed": "0x878b4",
      "logs": [],
      "logsBloom": "0x00000000000000000000000000000000000000000000000000000000000000000000000000000000000000000000000000000000000000000000000000000000000000000000000000000000000000000000000000000000000000000000000000000000000000000000000000000000000000000000000000000000000000000000000000000000000000000000000000000000000000000000000000000000000000000000000000000000000000000000000000000000000000000000000000000000000000000000000000000000000000000000000000000000000000000000000000000000000000000000000000000000000000000000000000000000",
      "type": "0x2",
      "transactionHash": "0x387ae3b914cbef2fd692b372a1bf304c1cbc8325ea9c8b23fcced3dc718aedcf",
      "transactionIndex": "0x5",
      "blockHash": "0x0b51f3535ca4419b13bfc118d33fccaf96bf382cff5a7730130d34a9aebdeea3",
      "blockNumber": "0x1134ab4",
      "gasUsed": "0xbc39",
      "effectiveGasPrice": "0x187a3",
      "from": "0xe62ab4d111f968660c6b2188046f9b9ba53c4bae",
      "to": "0xb9f462138e33dd8dba73394ddff141b3ef2f6bb1",
      "contractAddress": null,
      "l1BaseFeeScalar": "0x44d",
      "l1BlobBaseFee": "0x1",
      "l1BlobBaseFeeScalar": "0xa118b",
      "l1Fee": "0x391d9afe",
      "l1GasPrice": "0x206c2f26",
      "l1GasUsed": "0x640"
    },
    {
      "status": "0x1",
      "cumulativeGasUsed": "0x663d2",
      "logs": [],
      "logsBloom": "0x00000000000000000000000000000000000000000000000000000000000000000000000000000000000000000000000000000000000000000000000000000000000000000000000000000000000000000000000000000000000000000000000000000000000000000000000000000000000000000000000000000000000000000000000000000000000000000000000000000000000000000000000000000000000000000000000000000000000000000000000000000000000000000000000000000000000000000000000000000000000000000000000000000000000000000000000000000000000000000000000000000000000000000000000000000000",
      "type": "0x2",
      "transactionHash": "0xe12bd3c5f5c091e35dcc2f95217d6e4b94798fcb26ca9b9913eb81f6d936e930",
      "transactionIndex": "0x3",
      "blockHash": "0x0c30d23d082466cefbc32ca83f143aaeb8b8e4d07ac74efa9789aff47b10eacd",
      "blockNumber": "0x1134ab8",
      "gasUsed": "0xbc50",
      "effectiveGasPrice": "0x187a3",
      "from": "0xe62ab4d111f968660c6b2188046f9b9ba53c4bae",
      "to": "0xb9f462138e33dd8dba73394ddff141b3ef2f6bb1",
      "contractAddress": null,
      "l1BaseFeeScalar": "0x44d",
      "l1BlobBaseFee": "0x1",
      "l1BlobBaseFeeScalar": "0xa118b",
      "l1Fee": "0x3c06cd7d",
      "l1GasPrice": "0x22133507",
      "l1GasUsed": "0x640"
    },
    {
      "status": "0x1",
      "cumulativeGasUsed": "0xa90d0",
      "logs": [],
      "logsBloom": "0x00000000000000000000000000000000000000000000000000000000000000000000000000000000000000000000000000000000000000000000000000000000000000000000000000000000000000000000000000000000000000000000000000000000000000000000000000000000000000000000000000000000000000000000000000000000000000000000000000000000000000000000000000000000000000000000000000000000000000000000000000000000000000000000000000000000000000000000000000000000000000000000000000000000000000000000000000000000000000000000000000000000000000000000000000000000",
      "type": "0x2",
      "transactionHash": "0x84c828dd7e399c59cc7c7b68b85c987d6077cf67f182bfa3ea52a3a27c666973",
      "transactionIndex": "0x5",
      "blockHash": "0x705c14b73a871e1af99350be766a5f3c174491bc87b192651e0817cf907c2ae4",
      "blockNumber": "0x1134abc",
      "gasUsed": "0xbc67",
      "effectiveGasPrice": "0x187a3",
      "from": "0xe62ab4d111f968660c6b2188046f9b9ba53c4bae",
      "to": "0xb9f462138e33dd8dba73394ddff141b3ef2f6bb1",
      "contractAddress": null,
      "l1BaseFeeScalar": "0x44d",
      "l1BlobBaseFee": "0x1",
      "l1BlobBaseFeeScalar": "0xa118b",
      "l1Fee": "0x3a741d58",
      "l1GasPrice": "0x212e9d6b",
      "l1GasUsed": "0x640"
    },
    {
      "status": "0x1",
      "cumulativeGasUsed": "0x43583",
      "logs": [],
      "logsBloom": "0x00000000000000000000000000000000000000000000000000000000000000000000000000000000000000000000000000000000000000000000000000000000000000000000000000000000000000000000000000000000000000000000000000000000000000000000000000000000000000000000000000000000000000000000000000000000000000000000000000000000000000000000000000000000000000000000000000000000000000000000000000000000000000000000000000000000000000000000000000000000000000000000000000000000000000000000000000000000000000000000000000000000000000000000000000000000",
      "type": "0x2",
      "transactionHash": "0xe2b0da7aa14fa73c8680215edeb0ed25f36572f2ee977fae0e5a75c93ef9fb25",
      "transactionIndex": "0x3",
      "blockHash": "0x7b39f6e1380fa2d2f1b6baf1f9837700f2a58958f0e975fc9e95973cc815f009",
      "blockNumber": "0x1134abf",
      "gasUsed": "0xbc7e",
      "effectiveGasPrice": "0x187a3",
      "from": "0xe62ab4d111f968660c6b2188046f9b9ba53c4bae",
      "to": "0xb9f462138e33dd8dba73394ddff141b3ef2f6bb1",
      "contractAddress": null,
      "l1BaseFeeScalar": "0x44d",
      "l1BlobBaseFee": "0x1",
      "l1BlobBaseFeeScalar": "0xa118b",
      "l1Fee": "0x3a741d58",
      "l1GasPrice": "0x212e9d6b",
      "l1GasUsed": "0x640"
    },
    {
      "status": "0x1",
      "cumulativeGasUsed": "0x4a003",
      "logs": [],
      "logsBloom": "0x00000000000000000000000000000000000000000000000000000000000000000000000000000000000000000000000000000000000000000000000000000000000000000000000000000000000000000000000000000000000000000000000000000000000000000000000000000000000000000000000000000000000000000000000000000000000000000000000000000000000000000000000000000000000000000000000000000000000000000000000000000000000000000000000000000000000000000000000000000000000000000000000000000000000000000000000000000000000000000000000000000000000000000000000000000000",
      "type": "0x2",
      "transactionHash": "0xd4d6604dd161a730d26b5e25bede99ad1a3286566c6dc15a3f869a3623c881a5",
      "transactionIndex": "0x4",
      "blockHash": "0x3ab46e0c5b575080c2185acc00ee8fe83f16386c510497149bc677a5f11ace7b",
      "blockNumber": "0x1134ac3",
      "gasUsed": "0xbc95",
      "effectiveGasPrice": "0x187a3",
      "from": "0xe62ab4d111f968660c6b2188046f9b9ba53c4bae",
      "to": "0xb9f462138e33dd8dba73394ddff141b3ef2f6bb1",
      "contractAddress": null,
      "l1BaseFeeScalar": "0x44d",
      "l1BlobBaseFee": "0x1",
      "l1BlobBaseFeeScalar": "0xa118b",
      "l1Fee": "0x3705751b",
      "l1GasPrice": "0x1f3bd4d1",
      "l1GasUsed": "0x640"
    },
    {
      "status": "0x1",
      "cumulativeGasUsed": "0x1028f9",
      "logs": [],
      "logsBloom": "0x00000000000000000000000000000000000000000000000000000000000000000000000000000000000000000000000000000000000000000000000000000000000000000000000000000000000000000000000000000000000000000000000000000000000000000000000000000000000000000000000000000000000000000000000000000000000000000000000000000000000000000000000000000000000000000000000000000000000000000000000000000000000000000000000000000000000000000000000000000000000000000000000000000000000000000000000000000000000000000000000000000000000000000000000000000000",
      "type": "0x2",
      "transactionHash": "0x0f6d2a24443e1d4ebc9298fbcfa6bf88127b97af99a66695f5aebb4e526569ca",
      "transactionIndex": "0x6",
      "blockHash": "0xd73b1e9221decba5f10c7175921b25abf0d4dd31b737b7b77f875654754e302d",
      "blockNumber": "0x1134ac7",
      "gasUsed": "0xbcac",
      "effectiveGasPrice": "0x187a3",
      "from": "0xe62ab4d111f968660c6b2188046f9b9ba53c4bae",
      "to": "0xb9f462138e33dd8dba73394ddff141b3ef2f6bb1",
      "contractAddress": null,
      "l1BaseFeeScalar": "0x44d",
      "l1BlobBaseFee": "0x1",
      "l1BlobBaseFeeScalar": "0xa118b",
      "l1Fee": "0x37f4367d",
      "l1GasPrice": "0x1fc35d55",
      "l1GasUsed": "0x640"
    },
    {
      "status": "0x1",
      "cumulativeGasUsed": "0x495fcd",
      "logs": [],
      "logsBloom": "0x00000000000000000000000000000000000000000000000000000000000000000000000000000000000000000000000000000000000000000000000000000000000000000000000000000000000000000000000000000000000000000000000000000000000000000000000000000000000000000000000000000000000000000000000000000000000000000000000000000000000000000000000000000000000000000000000000000000000000000000000000000000000000000000000000000000000000000000000000000000000000000000000000000000000000000000000000000000000000000000000000000000000000000000000000000000",
      "type": "0x2",
      "transactionHash": "0x9527b815ba17c2eb65572cd57002a7de0ef142c81d95a98f8e4626e5ec93363b",
      "transactionIndex": "0x5",
      "blockHash": "0xf7c6822f32a9abe3c26a0e8ef32e0e0c5833d427da7a42818b27717838bec3c7",
      "blockNumber": "0x1134acb",
      "gasUsed": "0xbcc3",
      "effectiveGasPrice": "0x187a3",
      "from": "0xe62ab4d111f968660c6b2188046f9b9ba53c4bae",
      "to": "0xb9f462138e33dd8dba73394ddff141b3ef2f6bb1",
      "contractAddress": null,
      "l1BaseFeeScalar": "0x44d",
      "l1BlobBaseFee": "0x1",
      "l1BlobBaseFeeScalar": "0xa118b",
      "l1Fee": "0x37f4367d",
      "l1GasPrice": "0x1fc35d55",
      "l1GasUsed": "0x640"
    },
    {
      "status": "0x1",
      "cumulativeGasUsed": "0xdaf71",
      "logs": [],
      "logsBloom": "0x00000000000000000000000000000000000000000000000000000000000000000000000000000000000000000000000000000000000000000000000000000000000000000000000000000000000000000000000000000000000000000000000000000000000000000000000000000000000000000000000000000000000000000000000000000000000000000000000000000000000000000000000000000000000000000000000000000000000000000000000000000000000000000000000000000000000000000000000000000000000000000000000000000000000000000000000000000000000000000000000000000000000000000000000000000000",
      "type": "0x2",
      "transactionHash": "0xa5c9ac7505dd08a86db549bd92c2b954897b568624a3838682a81bfd126953f0",
      "transactionIndex": "0x9",
      "blockHash": "0x0096c1ba914cd2c12785cf388bccbbb5da147c2cfeeb316895e39136c1a99ad6",
      "blockNumber": "0x1134ace",
      "gasUsed": "0xbcda",
      "effectiveGasPrice": "0x187a3",
      "from": "0xe62ab4d111f968660c6b2188046f9b9ba53c4bae",
      "to": "0xb9f462138e33dd8dba73394ddff141b3ef2f6bb1",
      "contractAddress": null,
      "l1BaseFeeScalar": "0x44d",
      "l1BlobBaseFee": "0x1",
      "l1BlobBaseFeeScalar": "0xa118b",
      "l1Fee": "0x36b84436",
      "l1GasPrice": "0x1f10033c",
      "l1GasUsed": "0x640"
    },
    {
      "status": "0x1",
      "cumulativeGasUsed": "0x16824",
      "logs": [],
      "logsBloom": "0x00000000000000000000000000000000000000000000000000000000000000000000000000000000000000000000000000000000000000000000000000000000000000000000000000000000000000000000000000000000000000000000000000000000000000000000000000000000000000000000000000000000000000000000000000000000000000000000000000000000000000000000000000000000000000000000000000000000000000000000000000000000000000000000000000000000000000000000000000000000000000000000000000000000000000000000000000000000000000000000000000000000000000000000000000000000",
      "type": "0x2",
      "transactionHash": "0x35d22a41a9715be5dcb02e6476a2eea3bde7a4015aaad1452b4f6f81a32a8871",
      "transactionIndex": "0x1",
      "blockHash": "0xb3b51aa61128634950b59d15b4be644288b13902362149e8ae279bdcc3d7a604",
      "blockNumber": "0x1134ad2",
      "gasUsed": "0xbcf1",
      "effectiveGasPrice": "0x187a3",
      "from": "0xe62ab4d111f968660c6b2188046f9b9ba53c4bae",
      "to": "0xb9f462138e33dd8dba73394ddff141b3ef2f6bb1",
      "contractAddress": null,
      "l1BaseFeeScalar": "0x44d",
      "l1BlobBaseFee": "0x1",
      "l1BlobBaseFeeScalar": "0xa118b",
      "l1Fee": "0x36b84436",
      "l1GasPrice": "0x1f10033c",
      "l1GasUsed": "0x640"
    },
    {
      "status": "0x1",
      "cumulativeGasUsed": "0x7330c",
      "logs": [],
      "logsBloom": "0x00000000000000000000000000000000000000000000000000000000000000000000000000000000000000000000000000000000000000000000000000000000000000000000000000000000000000000000000000000000000000000000000000000000000000000000000000000000000000000000000000000000000000000000000000000000000000000000000000000000000000000000000000000000000000000000000000000000000000000000000000000000000000000000000000000000000000000000000000000000000000000000000000000000000000000000000000000000000000000000000000000000000000000000000000000000",
      "type": "0x2",
      "transactionHash": "0xfc54be19cdd927949f56d52d554eb47ba87dca384bda5b7d3d11ddcc1684744d",
      "transactionIndex": "0x6",
      "blockHash": "0xa2336439decc4b624fc92bbbdfee7cb4787783dedabce29a2d202ae6256ecf7d",
      "blockNumber": "0x1134ad6",
      "gasUsed": "0xbd08",
      "effectiveGasPrice": "0x187a3",
      "from": "0xe62ab4d111f968660c6b2188046f9b9ba53c4bae",
      "to": "0xb9f462138e33dd8dba73394ddff141b3ef2f6bb1",
      "contractAddress": null,
      "l1BaseFeeScalar": "0x44d",
      "l1BlobBaseFee": "0x1",
      "l1BlobBaseFeeScalar": "0xa118b",
      "l1Fee": "0x38ed87d1",
      "l1GasPrice": "0x2050e4c9",
      "l1GasUsed": "0x640"
    },
    {
      "status": "0x1",
      "cumulativeGasUsed": "0xc3b8b",
      "logs": [],
      "logsBloom": "0x00000000000000000000000000000000000000000000000000000000000000000000000000000000000000000000000000000000000000000000000000000000000000000000000000000000000000000000000000000000000000000000000000000000000000000000000000000000000000000000000000000000000000000000000000000000000000000000000000000000000000000000000000000000000000000000000000000000000000000000000000000000000000000000000000000000000000000000000000000000000000000000000000000000000000000000000000000000000000000000000000000000000000000000000000000000",
      "type": "0x2",
      "transactionHash": "0x3d2e17eab919d8de66cae436bd870e38f4cf04b42f010a782959c5714a00381c",
      "transactionIndex": "0x7",
      "blockHash": "0x10caa9b24b312bca74b64be5ec4cd559d185cb482d7722a2e73900f9dd3ed0ad",
      "blockNumber": "0x1134ad9",
      "gasUsed": "0xbd1f",
      "effectiveGasPrice": "0x187a3",
      "from": "0xe62ab4d111f968660c6b2188046f9b9ba53c4bae",
      "to": "0xb9f462138e33dd8dba73394ddff141b3ef2f6bb1",
      "contractAddress": null,
      "l1BaseFeeScalar": "0x44d",
      "l1BlobBaseFee": "0x1",
      "l1BlobBaseFeeScalar": "0xa118b",
      "l1Fee": "0x3420bce7",
      "l1GasPrice": "0x1d9759a6",
      "l1GasUsed": "0x640"
    },
    {
      "status": "0x1",
      "cumulativeGasUsed": "0x95e9c",
      "logs": [],
      "logsBloom": "0x00000000000000000000000000000000000000000000000000000000000000000000000000000000000000000000000000000000000000000000000000000000000000000000000000000000000000000000000000000000000000000000000000000000000000000000000000000000000000000000000000000000000000000000000000000000000000000000000000000000000000000000000000000000000000000000000000000000000000000000000000000000000000000000000000000000000000000000000000000000000000000000000000000000000000000000000000000000000000000000000000000000000000000000000000000000",
      "type": "0x2",
      "transactionHash": "0xbe04f742b671fb9a5a1f2a63965393a3930037366aee40961887d65fa31489c3",
      "transactionIndex": "0x5",
      "blockHash": "0xfb80ed5ac4f0ee8bb909af7065d0f2d646469b61b13417e4ee146672fbef9b34",
      "blockNumber": "0x1134add",
      "gasUsed": "0xbd36",
      "effectiveGasPrice": "0x187a3",
      "from": "0xe62ab4d111f968660c6b2188046f9b9ba53c4bae",
      "to": "0xb9f462138e33dd8dba73394ddff141b3ef2f6bb1",
      "contractAddress": null,
      "l1BaseFeeScalar": "0x44d",
      "l1BlobBaseFee": "0x1",
      "l1BlobBaseFeeScalar": "0xa118b",
      "l1Fee": "0x3420bce7",
      "l1GasPrice": "0x1d9759a6",
      "l1GasUsed": "0x640"
    },
    {
      "status": "0x1",
      "cumulativeGasUsed": "0xca8690",
      "logs": [],
      "logsBloom": "0x00000000000000000000000000000000000000000000000000000000000000000000000000000000000000000000000000000000000000000000000000000000000000000000000000000000000000000000000000000000000000000000000000000000000000000000000000000000000000000000000000000000000000000000000000000000000000000000000000000000000000000000000000000000000000000000000000000000000000000000000000000000000000000000000000000000000000000000000000000000000000000000000000000000000000000000000000000000000000000000000000000000000000000000000000000000",
      "type": "0x2",
      "transactionHash": "0x6c2c821cc15aed7b1ae47b65704248d8ccadf9d2173c9c5cfdf52cc0bddfcd40",
      "transactionIndex": "0x4",
      "blockHash": "0xa6e78e916bfff64a3352bcf5f78448564b7a7758af076684cce7941e0bbe855f",
      "blockNumber": "0x1134ae1",
      "gasUsed": "0xbd4d",
      "effectiveGasPrice": "0x187a3",
      "from": "0xe62ab4d111f968660c6b2188046f9b9ba53c4bae",
      "to": "0xb9f462138e33dd8dba73394ddff141b3ef2f6bb1",
      "contractAddress": null,
      "l1BaseFeeScalar": "0x44d",
      "l1BlobBaseFee": "0x1",
      "l1BlobBaseFeeScalar": "0xa118b",
      "l1Fee": "0x35136eea",
      "l1GasPrice": "0x1e211ebb",
      "l1GasUsed": "0x640"
    },
    {
      "status": "0x1",
      "cumulativeGasUsed": "0x65347",
      "logs": [],
      "logsBloom": "0x00000000000000000000000000000000000000000000000000000000000000000000000000000000000000000000000000000000000000000000000000000000000000000000000000000000000000000000000000000000000000000000000000000000000000000000000000000000000000000000000000000000000000000000000000000000000000000000000000000000000000000000000000000000000000000000000000000000000000000000000000000000000000000000000000000000000000000000000000000000000000000000000000000000000000000000000000000000000000000000000000000000000000000000000000000000",
      "type": "0x2",
      "transactionHash": "0x698e65444d85e34b4c069f3612e693916beaa4499a855c8fc2b0bde65096e6d1",
      "transactionIndex": "0x6",
      "blockHash": "0x0a12b30a2c4d39f33d594d1b1619cafc4d245b21fb970d063489a6f631111919",
      "blockNumber": "0x1134ae4",
      "gasUsed": "0xbd5f",
      "effectiveGasPrice": "0x187a4",
      "from": "0xe62ab4d111f968660c6b2188046f9b9ba53c4bae",
      "to": "0xb9f462138e33dd8dba73394ddff141b3ef2f6bb1",
      "contractAddress": null,
      "l1BaseFeeScalar": "0x44d",
      "l1BlobBaseFee": "0x1",
      "l1BlobBaseFeeScalar": "0xa118b",
      "l1Fee": "0x35136eea",
      "l1GasPrice": "0x1e211ebb",
      "l1GasUsed": "0x640"
    },
    {
      "status": "0x1",
      "cumulativeGasUsed": "0x7ed0d",
      "logs": [],
      "logsBloom": "0x00000000000000000000000000000000000000000000000000000000000000000000000000000000000000000000000000000000000000000000000000000000000000000000000000000000000000000000000000000000000000000000000000000000000000000000000000000000000000000000000000000000000000000000000000000000000000000000000000000000000000000000000000000000000000000000000000000000000000000000000000000000000000000000000000000000000000000000000000000000000000000000000000000000000000000000000000000000000000000000000000000000000000000000000000000000",
      "type": "0x2",
      "transactionHash": "0x73362675006c924ba809c49ac4504f49585a994bb7c088d82bfe0036f96bc8b9",
      "transactionIndex": "0x4",
      "blockHash": "0xbbf379f2e3f2ed23594d2f52206b745d177782226894006a6a11f87e6b3cf6ce",
      "blockNumber": "0x1134ae8",
      "gasUsed": "0x224f8",
      "effectiveGasPrice": "0x187a4",
      "from": "0xe62ab4d111f968660c6b2188046f9b9ba53c4bae",
      "to": "0xb9f462138e33dd8dba73394ddff141b3ef2f6bb1",
      "contractAddress": null,
      "l1BaseFeeScalar": "0x44d",
      "l1BlobBaseFee": "0x1",
      "l1BlobBaseFeeScalar": "0xa118b",
      "l1Fee": "0x586adf4f",
      "l1GasPrice": "0x21b11614",
      "l1GasUsed": "0x94f"
    },
    {
      "status": "0x1",
      "cumulativeGasUsed": "0xf203e",
      "logs": [],
      "logsBloom": "0x00000000000000000000000000000000000000000000000000000000000000000000000000000000000000000000000000000000000000000000000000000000000000000000000000000000000000000000000000000000000000000000000000000000000000000000000000000000000000000000000000000000000000000000000000000000000000000000000000000000000000000000000000000000000000000000000000000000000000000000000000000000000000000000000000000000000000000000000000000000000000000000000000000000000000000000000000000000000000000000000000000000000000000000000000000000",
      "type": "0x2",
      "transactionHash": "0xb8eabfaf8799ad350a54edeabf47c865dd6f549d515a37a5085ade4a97719736",
      "transactionIndex": "0xb",
      "blockHash": "0x9ced8fddc88bdcc8a36aebf3be0d30b8da58f98ab3b6d53e6b100a34c05184a6",
      "blockNumber": "0x1134aec",
      "gasUsed": "0x1e878",
      "effectiveGasPrice": "0x187a4",
      "from": "0xe62ab4d111f968660c6b2188046f9b9ba53c4bae",
      "to": "0xb9f462138e33dd8dba73394ddff141b3ef2f6bb1",
      "contractAddress": null,
      "l1BaseFeeScalar": "0x44d",
      "l1BlobBaseFee": "0x1",
      "l1BlobBaseFeeScalar": "0xa118b",
      "l1Fee": "0x5dee23b9",
      "l1GasPrice": "0x23fe984d",
      "l1GasUsed": "0x942"
    },
    {
      "status": "0x1",
      "cumulativeGasUsed": "0xcf9d9",
      "logs": [],
      "logsBloom": "0x00000000000000000000000000000000000000000000000000000000000000000000000000000000000000000000000000000000000000000000000000000000000000000000000000000000000000000000000000000000000000000000000000000000000000000000000000000000000000000000000000000000000000000000000000000000000000000000000000000000000000000000000000000000000000000000000000000000000000000000000000000000000000000000000000000000000000000000000000000000000000000000000000000000000000000000000000000000000000000000000000000000000000000000000000000000",
      "type": "0x2",
      "transactionHash": "0xa42a9c0255e453d5cd6dd5db48d48369823a0750ceb10d6d73fbccf5c9624a3c",
      "transactionIndex": "0x4",
      "blockHash": "0xfdfe87616d9429c926f9252c84f6c9f9a8e2c7f9fe7e1a596246c9c6fcedac7b",
      "blockNumber": "0x1134af0",
      "gasUsed": "0x246af",
      "effectiveGasPrice": "0x187a4",
      "from": "0xe62ab4d111f968660c6b2188046f9b9ba53c4bae",
      "to": "0x21c90e25142a8cef8ca3fbefd6417617bcafa303",
      "contractAddress": null,
      "l1BaseFeeScalar": "0x44d",
      "l1BlobBaseFee": "0x1",
      "l1BlobBaseFeeScalar": "0xa118b",
      "l1Fee": "0x5a37a647",
      "l1GasPrice": "0x23fe984d",
      "l1GasUsed": "0x8e4"
    },
    {
      "status": "0x1",
      "cumulativeGasUsed": "0x9d2c9",
      "logs": [],
      "logsBloom": "0x00000000000000000000000000000000000000000000000000000000000000000000000000000000000000000000000000000000000000000000000000000000000000000000000000000000000000000000000000000000000000000000000000000000000000000000000000000000000000000000000000000000000000000000000000000000000000000000000000000000000000000000000000000000000000000000000000000000000000000000000000000000000000000000000000000000000000000000000000000000000000000000000000000000000000000000000000000000000000000000000000000000000000000000000000000000",
      "type": "0x2",
      "transactionHash": "0xcb52e5fa80fa571c6f251275c959e3585478cf760b0c5f76e2844f074b2d6642",
      "transactionIndex": "0x5",
      "blockHash": "0x91f9e6180844adeacb7e3631bef318621759456aac661a097889d9fef0b328f9",
      "blockNumber": "0x1134af3",
      "gasUsed": "0x4417c",
      "effectiveGasPrice": "0x187a4",
      "from": "0xe62ab4d111f968660c6b2188046f9b9ba53c4bae",
      "to": "0x21c90e25142a8cef8ca3fbefd6417617bcafa303",
      "contractAddress": null,
      "l1BaseFeeScalar": "0x44d",
      "l1BlobBaseFee": "0x1",
      "l1BlobBaseFeeScalar": "0xa118b",
      "l1Fee": "0x8742ea65",
      "l1GasPrice": "0x24b3ff94",
      "l1GasUsed": "0xd13"
    },
    {
      "status": "0x1",
      "cumulativeGasUsed": "0xdaa23",
      "logs": [],
      "logsBloom": "0x00000000000000000000000000000000000000000000000000000000000000000000000000000000000000000000000000000000000000000000000000000000000000000000000000000000000000000000000000000000000000000000000000000000000000000000000000000000000000000000000000000000000000000000000000000000000000000000000000000000000000000000000000000000000000000000000000000000000000000000000000000000000000000000000000000000000000000000000000000000000000000000000000000000000000000000000000000000000000000000000000000000000000000000000000000000",
      "type": "0x2",
      "transactionHash": "0x925b3703c343c2c56d4db1749fb26024d2e97e11e89751d94b6743a6726290d1",
      "transactionIndex": "0x7",
      "blockHash": "0xe92d63a4b3ff5a512c193533cbce9ae5f04c6d5a44e684e7b897dccfbd589efb",
      "blockNumber": "0x1134af7",
      "gasUsed": "0x43f59",
      "effectiveGasPrice": "0x187a4",
      "from": "0xe62ab4d111f968660c6b2188046f9b9ba53c4bae",
      "to": "0x21c90e25142a8cef8ca3fbefd6417617bcafa303",
      "contractAddress": null,
      "l1BaseFeeScalar": "0x44d",
      "l1BlobBaseFee": "0x1",
      "l1BlobBaseFeeScalar": "0xa118b",
      "l1Fee": "0x863818ff",
      "l1GasPrice": "0x246b98f0",
      "l1GasUsed": "0xd13"
    }
  ],
  "libraries": [],
  "pending": [],
  "returns": {},
  "timestamp": 1731851476,
  "chain": 84532,
  "commit": "b96f5048"
}