{
  "transactions": [
    {
      "hash": "0xfdb7f4345e6e985fb6be33989131c0699d1b15ef4edbbb4e08e912eea940bd57",
      "transactionType": "CALL",
      "contractName": null,
      "contractAddress": "0x050e942b8ebb0e174a847f343d04efdc669dff63",
      "function": "getFeeTokenList()",
      "arguments": [],
      "transaction": {
        "from": "0xe62ab4d111f968660c6b2188046f9b9ba53c4bae",
        "to": "0x050e942b8ebb0e174a847f343d04efdc669dff63",
        "gas": "0x8a38",
        "value": "0x0",
        "input": "0xe28ab277",
        "nonce": "0x431",
        "chainId": "0x14a34"
      },
      "additionalContracts": [],
      "isFixedGasLimit": false
    },
    {
      "hash": "0x413921352bdb921655991c33abc88f72d7664c7587b870996d1e81f58b5ae0a6",
      "transactionType": "CALL",
      "contractName": null,
      "contractAddress": "0x050e942b8ebb0e174a847f343d04efdc669dff63",
      "function": "addFeeToken(string)",
      "arguments": [
        "0x6a4dbc971533ba36bdc23ad70f5a7a12e064f4ae"
      ],
      "transaction": {
        "from": "0xe62ab4d111f968660c6b2188046f9b9ba53c4bae",
        "to": "0x050e942b8ebb0e174a847f343d04efdc669dff63",
        "gas": "0x28bbb",
        "value": "0x0",
        "input": "0x12a6385f0000000000000000000000000000000000000000000000000000000000000020000000000000000000000000000000000000000000000000000000000000002a30783661346462633937313533336261333662646332336164373066356137613132653036346634616500000000000000000000000000000000000000000000",
        "nonce": "0x432",
        "chainId": "0x14a34"
      },
      "additionalContracts": [],
      "isFixedGasLimit": false
    },
    {
      "hash": "0xefb7a1f0c7b1bb8a6d1f337b25dcbdf7b8a7fb579cf49a151555f419b47b469c",
      "transactionType": "CALL",
      "contractName": null,
      "contractAddress": "0x050e942b8ebb0e174a847f343d04efdc669dff63",
      "function": "setFeeMultiplier(uint8,uint256)",
      "arguments": [
        "0",
        "2"
      ],
      "transaction": {
        "from": "0xe62ab4d111f968660c6b2188046f9b9ba53c4bae",
        "to": "0x050e942b8ebb0e174a847f343d04efdc669dff63",
        "gas": "0x112ba",
        "value": "0x0",
        "input": "0x0ee24eb500000000000000000000000000000000000000000000000000000000000000000000000000000000000000000000000000000000000000000000000000000002",
        "nonce": "0x433",
        "chainId": "0x14a34"
      },
      "additionalContracts": [],
      "isFixedGasLimit": false
    },
    {
      "hash": "0x1c494b0a2c18b60be04ecda5921f90513abba7a760f13a4ff824cc4786e48147",
      "transactionType": "CALL",
      "contractName": null,
      "contractAddress": "0x050e942b8ebb0e174a847f343d04efdc669dff63",
      "function": "setFeeMultiplier(uint8,uint256)",
      "arguments": [
        "1",
        "10"
      ],
      "transaction": {
        "from": "0xe62ab4d111f968660c6b2188046f9b9ba53c4bae",
        "to": "0x050e942b8ebb0e174a847f343d04efdc669dff63",
        "gas": "0x103a6",
        "value": "0x0",
        "input": "0x0ee24eb50000000000000000000000000000000000000000000000000000000000000001000000000000000000000000000000000000000000000000000000000000000a",
        "nonce": "0x434",
        "chainId": "0x14a34"
      },
      "additionalContracts": [],
      "isFixedGasLimit": false
    },
    {
      "hash": "0x4f460252ab6d18982a0800f3ae212a988b47f4c44517b4f8e491f0625d614e85",
      "transactionType": "CALL",
      "contractName": null,
      "contractAddress": "0x050e942b8ebb0e174a847f343d04efdc669dff63",
      "function": "setFeeMultiplier(uint8,uint256)",
      "arguments": [
        "2",
        "1"
      ],
      "transaction": {
        "from": "0xe62ab4d111f968660c6b2188046f9b9ba53c4bae",
        "to": "0x050e942b8ebb0e174a847f343d04efdc669dff63",
        "gas": "0x1130e",
        "value": "0x0",
        "input": "0x0ee24eb500000000000000000000000000000000000000000000000000000000000000020000000000000000000000000000000000000000000000000000000000000001",
        "nonce": "0x435",
        "chainId": "0x14a34"
      },
      "additionalContracts": [],
      "isFixedGasLimit": false
    },
    {
      "hash": "0xe229ff724f128d73b75a1b2f37e8a956b61a1a452e0fa514c9a729a84e92ac80",
      "transactionType": "CALL",
      "contractName": null,
      "contractAddress": "0x050e942b8ebb0e174a847f343d04efdc669dff63",
      "function": "setFeeMultiplier(uint8,uint256)",
      "arguments": [
        "3",
        "4"
      ],
      "transaction": {
        "from": "0xe62ab4d111f968660c6b2188046f9b9ba53c4bae",
        "to": "0x050e942b8ebb0e174a847f343d04efdc669dff63",
        "gas": "0x11330",
        "value": "0x0",
        "input": "0x0ee24eb500000000000000000000000000000000000000000000000000000000000000030000000000000000000000000000000000000000000000000000000000000004",
        "nonce": "0x436",
        "chainId": "0x14a34"
      },
      "additionalContracts": [],
      "isFixedGasLimit": false
    },
    {
      "hash": "0x2c0f3cd49bcec26a3e54f93a43e012d7078b7c3d8c578dc8c01012762949d549",
      "transactionType": "CALL",
      "contractName": null,
      "contractAddress": "0x050e942b8ebb0e174a847f343d04efdc669dff63",
      "function": "setFeeMultiplier(uint8,uint256)",
      "arguments": [
        "4",
        "4"
      ],
      "transaction": {
        "from": "0xe62ab4d111f968660c6b2188046f9b9ba53c4bae",
        "to": "0x050e942b8ebb0e174a847f343d04efdc669dff63",
        "gas": "0x11352",
        "value": "0x0",
        "input": "0x0ee24eb500000000000000000000000000000000000000000000000000000000000000040000000000000000000000000000000000000000000000000000000000000004",
        "nonce": "0x437",
        "chainId": "0x14a34"
      },
      "additionalContracts": [],
      "isFixedGasLimit": false
    },
    {
      "hash": "0xba7104f1bcfefa96c7aa47040942476806e2c9d1a7acc0a600e9a73f4383bba2",
      "transactionType": "CALL",
      "contractName": null,
      "contractAddress": "0x050e942b8ebb0e174a847f343d04efdc669dff63",
      "function": "setFeeMultiplier(uint8,uint256)",
      "arguments": [
        "5",
        "4"
      ],
      "transaction": {
        "from": "0xe62ab4d111f968660c6b2188046f9b9ba53c4bae",
        "to": "0x050e942b8ebb0e174a847f343d04efdc669dff63",
        "gas": "0x10425",
        "value": "0x0",
        "input": "0x0ee24eb500000000000000000000000000000000000000000000000000000000000000050000000000000000000000000000000000000000000000000000000000000004",
        "nonce": "0x438",
        "chainId": "0x14a34"
      },
      "additionalContracts": [],
      "isFixedGasLimit": false
    },
    {
      "hash": "0x4dc774a6b91f0165efa89ba864593755eed1b675cd20ed30f9921a2d25f44222",
      "transactionType": "CALL",
      "contractName": null,
      "contractAddress": "0x050e942b8ebb0e174a847f343d04efdc669dff63",
      "function": "setFeeMultiplier(uint8,uint256)",
      "arguments": [
        "6",
        "8"
      ],
      "transaction": {
        "from": "0xe62ab4d111f968660c6b2188046f9b9ba53c4bae",
        "to": "0x050e942b8ebb0e174a847f343d04efdc669dff63",
        "gas": "0x10444",
        "value": "0x0",
        "input": "0x0ee24eb500000000000000000000000000000000000000000000000000000000000000060000000000000000000000000000000000000000000000000000000000000008",
        "nonce": "0x439",
        "chainId": "0x14a34"
      },
      "additionalContracts": [],
      "isFixedGasLimit": false
    },
    {
      "hash": "0x5d7f35f5a97980a5d4cc3d98f60afb25e1181e67b9a6070010327621ee23d73b",
      "transactionType": "CALL",
      "contractName": null,
      "contractAddress": "0x050e942b8ebb0e174a847f343d04efdc669dff63",
      "function": "setFeeMultiplier(uint8,uint256)",
      "arguments": [
        "7",
        "4"
      ],
      "transaction": {
        "from": "0xe62ab4d111f968660c6b2188046f9b9ba53c4bae",
        "to": "0x050e942b8ebb0e174a847f343d04efdc669dff63",
        "gas": "0x10465",
        "value": "0x0",
        "input": "0x0ee24eb500000000000000000000000000000000000000000000000000000000000000070000000000000000000000000000000000000000000000000000000000000004",
        "nonce": "0x43a",
        "chainId": "0x14a34"
      },
      "additionalContracts": [],
      "isFixedGasLimit": false
    },
    {
      "hash": "0xa0e7dae0bbe656191a2c430ff02725214b5be6c691b50b223351fdc0973c8d04",
      "transactionType": "CALL",
      "contractName": null,
      "contractAddress": "0x050e942b8ebb0e174a847f343d04efdc669dff63",
      "function": "setFeeMultiplier(uint8,uint256)",
      "arguments": [
        "8",
        "10"
      ],
      "transaction": {
        "from": "0xe62ab4d111f968660c6b2188046f9b9ba53c4bae",
        "to": "0x050e942b8ebb0e174a847f343d04efdc669dff63",
        "gas": "0x10484",
        "value": "0x0",
        "input": "0x0ee24eb50000000000000000000000000000000000000000000000000000000000000008000000000000000000000000000000000000000000000000000000000000000a",
        "nonce": "0x43b",
        "chainId": "0x14a34"
      },
      "additionalContracts": [],
      "isFixedGasLimit": false
    },
    {
      "hash": "0xddb7c32045bdde2be76e73e507b3a974a136e189ac66922419a3b5fae2edde4a",
      "transactionType": "CALL",
      "contractName": null,
      "contractAddress": "0x050e942b8ebb0e174a847f343d04efdc669dff63",
      "function": "setFeeMultiplier(uint8,uint256)",
      "arguments": [
        "9",
        "8"
      ],
      "transaction": {
        "from": "0xe62ab4d111f968660c6b2188046f9b9ba53c4bae",
        "to": "0x050e942b8ebb0e174a847f343d04efdc669dff63",
        "gas": "0x104a5",
        "value": "0x0",
        "input": "0x0ee24eb500000000000000000000000000000000000000000000000000000000000000090000000000000000000000000000000000000000000000000000000000000008",
        "nonce": "0x43c",
        "chainId": "0x14a34"
      },
      "additionalContracts": [],
      "isFixedGasLimit": false
    },
    {
      "hash": "0x7d3b8ef34c89c3a800ee5de3467b84105b93b90990c3a284fceaeb5406a3598d",
      "transactionType": "CALL",
      "contractName": null,
      "contractAddress": "0x050e942b8ebb0e174a847f343d04efdc669dff63",
      "function": "setFeeMultiplier(uint8,uint256)",
      "arguments": [
        "10",
        "8"
      ],
      "transaction": {
        "from": "0xe62ab4d111f968660c6b2188046f9b9ba53c4bae",
        "to": "0x050e942b8ebb0e174a847f343d04efdc669dff63",
        "gas": "0x1141b",
        "value": "0x0",
        "input": "0x0ee24eb5000000000000000000000000000000000000000000000000000000000000000a0000000000000000000000000000000000000000000000000000000000000008",
        "nonce": "0x43d",
        "chainId": "0x14a34"
      },
      "additionalContracts": [],
      "isFixedGasLimit": false
    },
    {
      "hash": "0x9f0bbe3336338a11ee04965daa04873d9f9615acab87fe3e668128717b06c8c2",
      "transactionType": "CALL",
      "contractName": null,
      "contractAddress": "0x050e942b8ebb0e174a847f343d04efdc669dff63",
      "function": "setFeeMultiplier(uint8,uint256)",
      "arguments": [
        "11",
        "8"
      ],
      "transaction": {
        "from": "0xe62ab4d111f968660c6b2188046f9b9ba53c4bae",
        "to": "0x050e942b8ebb0e174a847f343d04efdc669dff63",
        "gas": "0x1143d",
        "value": "0x0",
        "input": "0x0ee24eb5000000000000000000000000000000000000000000000000000000000000000b0000000000000000000000000000000000000000000000000000000000000008",
        "nonce": "0x43e",
        "chainId": "0x14a34"
      },
      "additionalContracts": [],
      "isFixedGasLimit": false
    },
    {
      "hash": "0xf4dc30a8e67c22b17fcb2d6346955f732a64ea9c6598629732c6d2de1155239a",
      "transactionType": "CALL",
      "contractName": null,
      "contractAddress": "0x050e942b8ebb0e174a847f343d04efdc669dff63",
      "function": "setFeeMultiplier(uint8,uint256)",
      "arguments": [
        "12",
        "20"
      ],
      "transaction": {
        "from": "0xe62ab4d111f968660c6b2188046f9b9ba53c4bae",
        "to": "0x050e942b8ebb0e174a847f343d04efdc669dff63",
        "gas": "0x1145f",
        "value": "0x0",
        "input": "0x0ee24eb5000000000000000000000000000000000000000000000000000000000000000c0000000000000000000000000000000000000000000000000000000000000014",
        "nonce": "0x43f",
        "chainId": "0x14a34"
      },
      "additionalContracts": [],
      "isFixedGasLimit": false
    },
    {
      "hash": "0x40accec6b99d44e9dc0cf53374a02098c85afdac10ff657f002b50f5b3b147a1",
      "transactionType": "CALL",
      "contractName": null,
      "contractAddress": "0x050e942b8ebb0e174a847f343d04efdc669dff63",
      "function": "setFeeMultiplier(uint8,uint256)",
      "arguments": [
        "13",
        "8"
      ],
      "transaction": {
        "from": "0xe62ab4d111f968660c6b2188046f9b9ba53c4bae",
        "to": "0x050e942b8ebb0e174a847f343d04efdc669dff63",
        "gas": "0x10524",
        "value": "0x0",
        "input": "0x0ee24eb5000000000000000000000000000000000000000000000000000000000000000d0000000000000000000000000000000000000000000000000000000000000008",
        "nonce": "0x440",
        "chainId": "0x14a34"
      },
      "additionalContracts": [],
      "isFixedGasLimit": false
    },
    {
      "hash": "0x543f00d1e20acae1b6d4f8a1f1d7828d4b5f82cd31132e2890f66467c59161a3",
      "transactionType": "CALL",
      "contractName": null,
      "contractAddress": "0x050e942b8ebb0e174a847f343d04efdc669dff63",
      "function": "setFeeMultiplier(uint8,uint256)",
      "arguments": [
        "14",
        "4"
      ],
      "transaction": {
        "from": "0xe62ab4d111f968660c6b2188046f9b9ba53c4bae",
        "to": "0x050e942b8ebb0e174a847f343d04efdc669dff63",
        "gas": "0x10543",
        "value": "0x0",
        "input": "0x0ee24eb5000000000000000000000000000000000000000000000000000000000000000e0000000000000000000000000000000000000000000000000000000000000004",
        "nonce": "0x441",
        "chainId": "0x14a34"
      },
      "additionalContracts": [],
      "isFixedGasLimit": false
    },
    {
      "hash": "0x0f5f81c625111efe7b3aae25a2532c6c091afe406f50e0824117ded847872a95",
      "transactionType": "CALL",
      "contractName": null,
      "contractAddress": "0x050e942b8ebb0e174a847f343d04efdc669dff63",
      "function": "setFeeMultiplier(uint8,uint256)",
      "arguments": [
        "15",
        "4"
      ],
      "transaction": {
        "from": "0xe62ab4d111f968660c6b2188046f9b9ba53c4bae",
        "to": "0x050e942b8ebb0e174a847f343d04efdc669dff63",
        "gas": "0x10562",
        "value": "0x0",
        "input": "0x0ee24eb5000000000000000000000000000000000000000000000000000000000000000f0000000000000000000000000000000000000000000000000000000000000004",
        "nonce": "0x442",
        "chainId": "0x14a34"
      },
      "additionalContracts": [],
      "isFixedGasLimit": false
    },
    {
      "hash": "0x56d5f0c47a5adc43e5a512953d661dadcdec30aa1805874cb2b6ea6b900dc956",
      "transactionType": "CALL",
      "contractName": null,
      "contractAddress": "0x050e942b8ebb0e174a847f343d04efdc669dff63",
      "function": "setFeeMultiplier(uint8,uint256)",
      "arguments": [
        "16",
        "4"
      ],
      "transaction": {
        "from": "0xe62ab4d111f968660c6b2188046f9b9ba53c4bae",
        "to": "0x050e942b8ebb0e174a847f343d04efdc669dff63",
        "gas": "0x10583",
        "value": "0x0",
        "input": "0x0ee24eb500000000000000000000000000000000000000000000000000000000000000100000000000000000000000000000000000000000000000000000000000000004",
        "nonce": "0x443",
        "chainId": "0x14a34"
      },
      "additionalContracts": [],
      "isFixedGasLimit": false
    },
    {
      "hash": "0xca183293445ef9f62ccd9939818517a2f93c050692ecbe28c36f96c1d764a2a0",
      "transactionType": "CALL",
      "contractName": null,
      "contractAddress": "0x050e942b8ebb0e174a847f343d04efdc669dff63",
      "function": "setFeeMultiplier(uint8,uint256)",
      "arguments": [
        "17",
        "4"
      ],
      "transaction": {
        "from": "0xe62ab4d111f968660c6b2188046f9b9ba53c4bae",
        "to": "0x050e942b8ebb0e174a847f343d04efdc669dff63",
        "gas": "0x105a2",
        "value": "0x0",
        "input": "0x0ee24eb500000000000000000000000000000000000000000000000000000000000000110000000000000000000000000000000000000000000000000000000000000004",
        "nonce": "0x444",
        "chainId": "0x14a34"
      },
      "additionalContracts": [],
      "isFixedGasLimit": false
    },
    {
      "hash": "0x3a54dde565b75841965f1de6613100637de358f80c61ce4316afa4454b36f9cd",
      "transactionType": "CALL",
      "contractName": null,
      "contractAddress": "0x050e942b8ebb0e174a847f343d04efdc669dff63",
      "function": "setFeeMultiplier(uint8,uint256)",
      "arguments": [
        "18",
        "2"
      ],
      "transaction": {
        "from": "0xe62ab4d111f968660c6b2188046f9b9ba53c4bae",
        "to": "0x050e942b8ebb0e174a847f343d04efdc669dff63",
        "gas": "0x11528",
        "value": "0x0",
        "input": "0x0ee24eb500000000000000000000000000000000000000000000000000000000000000120000000000000000000000000000000000000000000000000000000000000002",
        "nonce": "0x445",
        "chainId": "0x14a34"
      },
      "additionalContracts": [],
      "isFixedGasLimit": false
    },
    {
      "hash": "0x8f1c491ecb258ad2e9429f225ee92a12e80d5d5e602bdcd1271d67ad9c230935",
      "transactionType": "CALL",
      "contractName": null,
      "contractAddress": "0x050e942b8ebb0e174a847f343d04efdc669dff63",
      "function": "setFeeMultiplier(uint8,uint256)",
      "arguments": [
        "19",
        "20"
      ],
      "transaction": {
        "from": "0xe62ab4d111f968660c6b2188046f9b9ba53c4bae",
        "to": "0x050e942b8ebb0e174a847f343d04efdc669dff63",
        "gas": "0x1154a",
        "value": "0x0",
        "input": "0x0ee24eb500000000000000000000000000000000000000000000000000000000000000130000000000000000000000000000000000000000000000000000000000000014",
        "nonce": "0x446",
        "chainId": "0x14a34"
      },
      "additionalContracts": [],
      "isFixedGasLimit": false
    },
    {
      "hash": "0x4e257a8252f76613cbdbe0edfce3402a1724411bcb7458789035086e20bd7f05",
      "transactionType": "CALL",
      "contractName": null,
      "contractAddress": "0x050e942b8ebb0e174a847f343d04efdc669dff63",
      "function": "setFeeMultiplier(uint8,uint256)",
      "arguments": [
        "20",
        "2"
      ],
      "transaction": {
        "from": "0xe62ab4d111f968660c6b2188046f9b9ba53c4bae",
        "to": "0x050e942b8ebb0e174a847f343d04efdc669dff63",
        "gas": "0x1156c",
        "value": "0x0",
        "input": "0x0ee24eb500000000000000000000000000000000000000000000000000000000000000140000000000000000000000000000000000000000000000000000000000000002",
        "nonce": "0x447",
        "chainId": "0x14a34"
      },
      "additionalContracts": [],
      "isFixedGasLimit": false
    },
    {
      "hash": "0x67ffa6534e61fd04fbb4451ecea29be7a06ed31d170e19d41a830f0ca2ed4483",
      "transactionType": "CALL",
      "contractName": null,
      "contractAddress": "0x050e942b8ebb0e174a847f343d04efdc669dff63",
      "function": "setFeeMultiplier(uint8,uint256)",
      "arguments": [
        "21",
        "1"
      ],
      "transaction": {
        "from": "0xe62ab4d111f968660c6b2188046f9b9ba53c4bae",
        "to": "0x050e942b8ebb0e174a847f343d04efdc669dff63",
        "gas": "0x10622",
        "value": "0x0",
        "input": "0x0ee24eb500000000000000000000000000000000000000000000000000000000000000150000000000000000000000000000000000000000000000000000000000000001",
        "nonce": "0x448",
        "chainId": "0x14a34"
      },
      "additionalContracts": [],
      "isFixedGasLimit": false
    },
    {
      "hash": "0x6a6d28d947d7e90bd2050f405e7d445e71ee2f7f868c327a64e944e173388085",
      "transactionType": "CALL",
      "contractName": null,
      "contractAddress": "0x050e942b8ebb0e174a847f343d04efdc669dff63",
      "function": "setFeeMultiplier(uint8,uint256)",
      "arguments": [
        "22",
        "1"
      ],
      "transaction": {
        "from": "0xe62ab4d111f968660c6b2188046f9b9ba53c4bae",
        "to": "0x050e942b8ebb0e174a847f343d04efdc669dff63",
        "gas": "0x10641",
        "value": "0x0",
        "input": "0x0ee24eb500000000000000000000000000000000000000000000000000000000000000160000000000000000000000000000000000000000000000000000000000000001",
        "nonce": "0x449",
        "chainId": "0x14a34"
      },
      "additionalContracts": [],
      "isFixedGasLimit": false
    },
    {
      "hash": "0xa0cda6e29cc5c601128c57ec0452f3cc392224d4d1627eb285e0675ddfe85907",
      "transactionType": "CALL",
      "contractName": null,
      "contractAddress": "0x050e942b8ebb0e174a847f343d04efdc669dff63",
      "function": "setFeeMultiplier(uint8,uint256)",
      "arguments": [
        "23",
        "5"
      ],
      "transaction": {
        "from": "0xe62ab4d111f968660c6b2188046f9b9ba53c4bae",
        "to": "0x050e942b8ebb0e174a847f343d04efdc669dff63",
        "gas": "0x10661",
        "value": "0x0",
        "input": "0x0ee24eb500000000000000000000000000000000000000000000000000000000000000170000000000000000000000000000000000000000000000000000000000000005",
        "nonce": "0x44a",
        "chainId": "0x14a34"
      },
      "additionalContracts": [],
      "isFixedGasLimit": false
    },
    {
      "hash": "0xf4dafecba16c77be8f08dbfa20053847a35dfb4043a8e1ab7883b4b1b1d885bf",
      "transactionType": "CALL",
      "contractName": null,
      "contractAddress": "0x050e942b8ebb0e174a847f343d04efdc669dff63",
      "function": "addFeeToken(string,string[],uint256[])",
      "arguments": [
        "421614",
        "[0x6a4dbc971533ba36bdc23ad70f5a7a12e064f4ae]",
        "[100]"
      ],
      "transaction": {
        "from": "0xe62ab4d111f968660c6b2188046f9b9ba53c4bae",
        "to": "0x050e942b8ebb0e174a847f343d04efdc669dff63",
        "gas": "0x31c34",
        "value": "0x0",
        "input": "0x437bf84f000000000000000000000000000000000000000000000000000000000000006000000000000000000000000000000000000000000000000000000000000000a000000000000000000000000000000000000000000000000000000000000001400000000000000000000000000000000000000000000000000000000000000006343231363134000000000000000000000000000000000000000000000000000000000000000000000000000000000000000000000000000000000000000000010000000000000000000000000000000000000000000000000000000000000020000000000000000000000000000000000000000000000000000000000000002a3078366134646263393731353333626133366264633233616437306635613761313265303634663461650000000000000000000000000000000000000000000000000000000000000000000000000000000000000000000000000000000000010000000000000000000000000000000000000000000000000000000000000064",
        "nonce": "0x44b",
        "chainId": "0x14a34"
      },
      "additionalContracts": [],
      "isFixedGasLimit": false
    },
    {
      "hash": "0x2bc44df0fce859b7e9f5421aca0f7c5e17feef83db9d73590f1daa6e4f69476e",
      "transactionType": "CALL",
      "contractName": null,
      "contractAddress": "0x050e942b8ebb0e174a847f343d04efdc669dff63",
      "function": "addFeeToken(string,string[],uint256[])",
      "arguments": [
        "84532",
        "[0x6a4dbc971533ba36bdc23ad70f5a7a12e064f4ae]",
        "[100]"
      ],
      "transaction": {
        "from": "0xe62ab4d111f968660c6b2188046f9b9ba53c4bae",
        "to": "0x050e942b8ebb0e174a847f343d04efdc669dff63",
        "gas": "0x29c78",
        "value": "0x0",
        "input": "0x437bf84f000000000000000000000000000000000000000000000000000000000000006000000000000000000000000000000000000000000000000000000000000000a000000000000000000000000000000000000000000000000000000000000001400000000000000000000000000000000000000000000000000000000000000005383435333200000000000000000000000000000000000000000000000000000000000000000000000000000000000000000000000000000000000000000000010000000000000000000000000000000000000000000000000000000000000020000000000000000000000000000000000000000000000000000000000000002a3078366134646263393731353333626133366264633233616437306635613761313265303634663461650000000000000000000000000000000000000000000000000000000000000000000000000000000000000000000000000000000000010000000000000000000000000000000000000000000000000000000000000064",
        "nonce": "0x44c",
        "chainId": "0x14a34"
      },
      "additionalContracts": [],
      "isFixedGasLimit": false
    },
    {
      "hash": "0xd52f69ec811198a2697981fa45184f19758d082ae22a0b35441a72c30abed83c",
      "transactionType": "CALL",
      "contractName": null,
      "contractAddress": "0x050e942b8ebb0e174a847f343d04efdc669dff63",
      "function": "addFeeToken(string,string[],uint256[])",
      "arguments": [
        "80002",
        "[0x6a4dbc971533ba36bdc23ad70f5a7a12e064f4ae]",
        "[100]"
      ],
      "transaction": {
        "from": "0xe62ab4d111f968660c6b2188046f9b9ba53c4bae",
        "to": "0x050e942b8ebb0e174a847f343d04efdc669dff63",
        "gas": "0x29c78",
        "value": "0x0",
        "input": "0x437bf84f000000000000000000000000000000000000000000000000000000000000006000000000000000000000000000000000000000000000000000000000000000a000000000000000000000000000000000000000000000000000000000000001400000000000000000000000000000000000000000000000000000000000000005383030303200000000000000000000000000000000000000000000000000000000000000000000000000000000000000000000000000000000000000000000010000000000000000000000000000000000000000000000000000000000000020000000000000000000000000000000000000000000000000000000000000002a3078366134646263393731353333626133366264633233616437306635613761313265303634663461650000000000000000000000000000000000000000000000000000000000000000000000000000000000000000000000000000000000010000000000000000000000000000000000000000000000000000000000000064",
        "nonce": "0x44d",
        "chainId": "0x14a34"
      },
      "additionalContracts": [],
      "isFixedGasLimit": false
    },
    {
      "hash": "0xbe4a69c18adfee228d95ac7b8c8df7d23a351f133b4632be068021e09981a434",
      "transactionType": "CALL",
      "contractName": null,
      "contractAddress": "0x050e942b8ebb0e174a847f343d04efdc669dff63",
      "function": "addFeeToken(string,string[],uint256[])",
      "arguments": [
        "11155111",
        "[0x6a4dbc971533ba36bdc23ad70f5a7a12e064f4ae]",
        "[100]"
      ],
      "transaction": {
        "from": "0xe62ab4d111f968660c6b2188046f9b9ba53c4bae",
        "to": "0x050e942b8ebb0e174a847f343d04efdc669dff63",
        "gas": "0x2a28d",
        "value": "0x0",
        "input": "0x437bf84f000000000000000000000000000000000000000000000000000000000000006000000000000000000000000000000000000000000000000000000000000000a000000000000000000000000000000000000000000000000000000000000001400000000000000000000000000000000000000000000000000000000000000008313131353531313100000000000000000000000000000000000000000000000000000000000000000000000000000000000000000000000000000000000000010000000000000000000000000000000000000000000000000000000000000020000000000000000000000000000000000000000000000000000000000000002a3078366134646263393731353333626133366264633233616437306635613761313265303634663461650000000000000000000000000000000000000000000000000000000000000000000000000000000000000000000000000000000000010000000000000000000000000000000000000000000000000000000000000064",
        "nonce": "0x44e",
        "chainId": "0x14a34"
      },
      "additionalContracts": [],
      "isFixedGasLimit": false
    },
    {
      "hash": "0x31269aa0a1e05fa1063a26fa59e704ee7b3a4c734d9fc45167a062e60fce254c",
      "transactionType": "CALL",
      "contractName": null,
      "contractAddress": "0x050e942b8ebb0e174a847f343d04efdc669dff63",
      "function": "addFeeToken(string,string[],uint256[])",
      "arguments": [
        "97",
        "[0x6a4dbc971533ba36bdc23ad70f5a7a12e064f4ae]",
        "[100]"
      ],
      "transaction": {
        "from": "0xe62ab4d111f968660c6b2188046f9b9ba53c4bae",
        "to": "0x050e942b8ebb0e174a847f343d04efdc669dff63",
        "gas": "0x29661",
        "value": "0x0",
        "input": "0x437bf84f000000000000000000000000000000000000000000000000000000000000006000000000000000000000000000000000000000000000000000000000000000a000000000000000000000000000000000000000000000000000000000000001400000000000000000000000000000000000000000000000000000000000000002393700000000000000000000000000000000000000000000000000000000000000000000000000000000000000000000000000000000000000000000000000010000000000000000000000000000000000000000000000000000000000000020000000000000000000000000000000000000000000000000000000000000002a3078366134646263393731353333626133366264633233616437306635613761313265303634663461650000000000000000000000000000000000000000000000000000000000000000000000000000000000000000000000000000000000010000000000000000000000000000000000000000000000000000000000000064",
        "nonce": "0x44f",
        "chainId": "0x14a34"
      },
      "additionalContracts": [],
      "isFixedGasLimit": false
    },
    {
      "hash": "0x0ab4bd04e7d3812b9d8da6adde8c5115febbf6b9f5d26e4dcea993c72c3f21d7",
      "transactionType": "CALL",
      "contractName": null,
      "contractAddress": "0x050e942b8ebb0e174a847f343d04efdc669dff63",
      "function": "addFeeToken(string,string[],uint256[])",
      "arguments": [
        "1952959480",
        "[0x6a4dbc971533ba36bdc23ad70f5a7a12e064f4ae]",
        "[100]"
      ],
      "transaction": {
        "from": "0xe62ab4d111f968660c6b2188046f9b9ba53c4bae",
        "to": "0x050e942b8ebb0e174a847f343d04efdc669dff63",
        "gas": "0x2a69c",
        "value": "0x0",
        "input": "0x437bf84f000000000000000000000000000000000000000000000000000000000000006000000000000000000000000000000000000000000000000000000000000000a00000000000000000000000000000000000000000000000000000000000000140000000000000000000000000000000000000000000000000000000000000000a313935323935393438300000000000000000000000000000000000000000000000000000000000000000000000000000000000000000000000000000000000010000000000000000000000000000000000000000000000000000000000000020000000000000000000000000000000000000000000000000000000000000002a3078366134646263393731353333626133366264633233616437306635613761313265303634663461650000000000000000000000000000000000000000000000000000000000000000000000000000000000000000000000000000000000010000000000000000000000000000000000000000000000000000000000000064",
        "nonce": "0x450",
        "chainId": "0x14a34"
      },
      "additionalContracts": [],
      "isFixedGasLimit": false
    },
    {
      "hash": "0x09f71e3cda388c900c37041547a88bc5bbc69990828cc2009070631c2db7df74",
      "transactionType": "CALL",
      "contractName": null,
      "contractAddress": "0x050e942b8ebb0e174a847f343d04efdc669dff63",
      "function": "addFeeToken(string,string[],uint256[])",
      "arguments": [
        "5611",
        "[0x6a4dbc971533ba36bdc23ad70f5a7a12e064f4ae]",
        "[100]"
      ],
      "transaction": {
        "from": "0xe62ab4d111f968660c6b2188046f9b9ba53c4bae",
        "to": "0x050e942b8ebb0e174a847f343d04efdc669dff63",
        "gas": "0x29a70",
        "value": "0x0",
        "input": "0x437bf84f000000000000000000000000000000000000000000000000000000000000006000000000000000000000000000000000000000000000000000000000000000a000000000000000000000000000000000000000000000000000000000000001400000000000000000000000000000000000000000000000000000000000000004353631310000000000000000000000000000000000000000000000000000000000000000000000000000000000000000000000000000000000000000000000010000000000000000000000000000000000000000000000000000000000000020000000000000000000000000000000000000000000000000000000000000002a3078366134646263393731353333626133366264633233616437306635613761313265303634663461650000000000000000000000000000000000000000000000000000000000000000000000000000000000000000000000000000000000010000000000000000000000000000000000000000000000000000000000000064",
        "nonce": "0x451",
        "chainId": "0x14a34"
      },
      "additionalContracts": [],
      "isFixedGasLimit": false
    },
    {
      "hash": "0x00ef43d3accced4e6c7cd09dfafd8305c55375f90d4180f6609969200fbc4fd1",
      "transactionType": "CALL",
      "contractName": null,
      "contractAddress": "0x050e942b8ebb0e174a847f343d04efdc669dff63",
      "function": "addFeeToken(string,string[],uint256[])",
      "arguments": [
        "1946",
        "[0x6a4dbc971533ba36bdc23ad70f5a7a12e064f4ae]",
        "[100]"
      ],
      "transaction": {
        "from": "0xe62ab4d111f968660c6b2188046f9b9ba53c4bae",
        "to": "0x050e942b8ebb0e174a847f343d04efdc669dff63",
        "gas": "0x29a70",
        "value": "0x0",
        "input": "0x437bf84f000000000000000000000000000000000000000000000000000000000000006000000000000000000000000000000000000000000000000000000000000000a000000000000000000000000000000000000000000000000000000000000001400000000000000000000000000000000000000000000000000000000000000004313934360000000000000000000000000000000000000000000000000000000000000000000000000000000000000000000000000000000000000000000000010000000000000000000000000000000000000000000000000000000000000020000000000000000000000000000000000000000000000000000000000000002a3078366134646263393731353333626133366264633233616437306635613761313265303634663461650000000000000000000000000000000000000000000000000000000000000000000000000000000000000000000000000000000000010000000000000000000000000000000000000000000000000000000000000064",
        "nonce": "0x452",
        "chainId": "0x14a34"
      },
      "additionalContracts": [],
      "isFixedGasLimit": false
    },
    {
      "hash": "0x618306d2f65b58bf3322a4ef72ae860b8a6e1d9e327797e6921c4270418d4ee9",
      "transactionType": "CALL",
      "contractName": null,
      "contractAddress": "0x050e942b8ebb0e174a847f343d04efdc669dff63",
      "function": "addFeeToken(string,string[],uint256[])",
      "arguments": [
        "534351",
        "[0x6a4dbc971533ba36bdc23ad70f5a7a12e064f4ae]",
        "[100]"
      ],
      "transaction": {
        "from": "0xe62ab4d111f968660c6b2188046f9b9ba53c4bae",
        "to": "0x050e942b8ebb0e174a847f343d04efdc669dff63",
        "gas": "0x29e7e",
        "value": "0x0",
        "input": "0x437bf84f000000000000000000000000000000000000000000000000000000000000006000000000000000000000000000000000000000000000000000000000000000a000000000000000000000000000000000000000000000000000000000000001400000000000000000000000000000000000000000000000000000000000000006353334333531000000000000000000000000000000000000000000000000000000000000000000000000000000000000000000000000000000000000000000010000000000000000000000000000000000000000000000000000000000000020000000000000000000000000000000000000000000000000000000000000002a3078366134646263393731353333626133366264633233616437306635613761313265303634663461650000000000000000000000000000000000000000000000000000000000000000000000000000000000000000000000000000000000010000000000000000000000000000000000000000000000000000000000000064",
        "nonce": "0x453",
        "chainId": "0x14a34"
      },
      "additionalContracts": [],
      "isFixedGasLimit": false
    },
    {
      "hash": "0x128ecadc5d8046621273cc038e59451eaf63f0daea50097862aca3ef4ba64553",
      "transactionType": "CALL",
      "contractName": null,
      "contractAddress": "0x050e942b8ebb0e174a847f343d04efdc669dff63",
      "function": "addFeeToken(string,string[],uint256[])",
      "arguments": [
        "17000",
        "[0x6a4dbc971533ba36bdc23ad70f5a7a12e064f4ae]",
        "[100]"
      ],
      "transaction": {
        "from": "0xe62ab4d111f968660c6b2188046f9b9ba53c4bae",
        "to": "0x050e942b8ebb0e174a847f343d04efdc669dff63",
        "gas": "0x29c78",
        "value": "0x0",
        "input": "0x437bf84f000000000000000000000000000000000000000000000000000000000000006000000000000000000000000000000000000000000000000000000000000000a000000000000000000000000000000000000000000000000000000000000001400000000000000000000000000000000000000000000000000000000000000005313730303000000000000000000000000000000000000000000000000000000000000000000000000000000000000000000000000000000000000000000000010000000000000000000000000000000000000000000000000000000000000020000000000000000000000000000000000000000000000000000000000000002a3078366134646263393731353333626133366264633233616437306635613761313265303634663461650000000000000000000000000000000000000000000000000000000000000000000000000000000000000000000000000000000000010000000000000000000000000000000000000000000000000000000000000064",
        "nonce": "0x454",
        "chainId": "0x14a34"
      },
      "additionalContracts": [],
      "isFixedGasLimit": false
    },
    {
      "hash": "0x472fe3ef4c2c175ef10817127beae543419dd01aab6302636c4f74ca47e263bc",
      "transactionType": "CALL",
      "contractName": null,
      "contractAddress": "0x050e942b8ebb0e174a847f343d04efdc669dff63",
      "function": "addFeeToken(string,string[],uint256[])",
      "arguments": [
        "5003",
        "[0x6a4dbc971533ba36bdc23ad70f5a7a12e064f4ae]",
        "[100]"
      ],
      "transaction": {
        "from": "0xe62ab4d111f968660c6b2188046f9b9ba53c4bae",
        "to": "0x050e942b8ebb0e174a847f343d04efdc669dff63",
        "gas": "0x29a70",
        "value": "0x0",
        "input": "0x437bf84f000000000000000000000000000000000000000000000000000000000000006000000000000000000000000000000000000000000000000000000000000000a000000000000000000000000000000000000000000000000000000000000001400000000000000000000000000000000000000000000000000000000000000004353030330000000000000000000000000000000000000000000000000000000000000000000000000000000000000000000000000000000000000000000000010000000000000000000000000000000000000000000000000000000000000020000000000000000000000000000000000000000000000000000000000000002a3078366134646263393731353333626133366264633233616437306635613761313265303634663461650000000000000000000000000000000000000000000000000000000000000000000000000000000000000000000000000000000000010000000000000000000000000000000000000000000000000000000000000064",
        "nonce": "0x455",
        "chainId": "0x14a34"
      },
      "additionalContracts": [],
      "isFixedGasLimit": false
    },
    {
      "hash": "0xf6f8fc2536568137a5a239bda0353f0f13189fb32ac3de0593cdcf618feeb707",
      "transactionType": "CALL",
      "contractName": null,
      "contractAddress": "0x050e942b8ebb0e174a847f343d04efdc669dff63",
      "function": "addFeeToken(string,string[],uint256[])",
      "arguments": [
        "168587773",
        "[0x6a4dbc971533ba36bdc23ad70f5a7a12e064f4ae]",
        "[100]"
      ],
      "transaction": {
        "from": "0xe62ab4d111f968660c6b2188046f9b9ba53c4bae",
        "to": "0x050e942b8ebb0e174a847f343d04efdc669dff63",
        "gas": "0x2a495",
        "value": "0x0",
        "input": "0x437bf84f000000000000000000000000000000000000000000000000000000000000006000000000000000000000000000000000000000000000000000000000000000a000000000000000000000000000000000000000000000000000000000000001400000000000000000000000000000000000000000000000000000000000000009313638353837373733000000000000000000000000000000000000000000000000000000000000000000000000000000000000000000000000000000000000010000000000000000000000000000000000000000000000000000000000000020000000000000000000000000000000000000000000000000000000000000002a3078366134646263393731353333626133366264633233616437306635613761313265303634663461650000000000000000000000000000000000000000000000000000000000000000000000000000000000000000000000000000000000010000000000000000000000000000000000000000000000000000000000000064",
        "nonce": "0x456",
        "chainId": "0x14a34"
      },
      "additionalContracts": [],
      "isFixedGasLimit": false
    },
    {
      "hash": "0x69be2b90d1f1c0ef0055e88ae41a0c56e0ab5e7b6cfc487a1372389853737899",
      "transactionType": "CALL",
      "contractName": null,
      "contractAddress": "0x050e942b8ebb0e174a847f343d04efdc669dff63",
      "function": "addFeeToken(string,string[],uint256[])",
      "arguments": [
        "153",
        "[0x6a4dbc971533ba36bdc23ad70f5a7a12e064f4ae]",
        "[100]"
      ],
      "transaction": {
        "from": "0xe62ab4d111f968660c6b2188046f9b9ba53c4bae",
        "to": "0x050e942b8ebb0e174a847f343d04efdc669dff63",
        "gas": "0x29869",
        "value": "0x0",
        "input": "0x437bf84f000000000000000000000000000000000000000000000000000000000000006000000000000000000000000000000000000000000000000000000000000000a000000000000000000000000000000000000000000000000000000000000001400000000000000000000000000000000000000000000000000000000000000003313533000000000000000000000000000000000000000000000000000000000000000000000000000000000000000000000000000000000000000000000000010000000000000000000000000000000000000000000000000000000000000020000000000000000000000000000000000000000000000000000000000000002a3078366134646263393731353333626133366264633233616437306635613761313265303634663461650000000000000000000000000000000000000000000000000000000000000000000000000000000000000000000000000000000000010000000000000000000000000000000000000000000000000000000000000064",
        "nonce": "0x457",
        "chainId": "0x14a34"
      },
      "additionalContracts": [],
      "isFixedGasLimit": false
    },
    {
      "hash": "0x04c37650e75239aa201a56e02827d533943e58cf346a6c8c2b9aa91115720842",
      "transactionType": "CALL",
      "contractName": null,
      "contractAddress": "0x050e942b8ebb0e174a847f343d04efdc669dff63",
      "function": "addFeeToken(string,string[],uint256[])",
      "arguments": [
        "11155420",
        "[0x6a4dbc971533ba36bdc23ad70f5a7a12e064f4ae]",
        "[100]"
      ],
      "transaction": {
        "from": "0xe62ab4d111f968660c6b2188046f9b9ba53c4bae",
        "to": "0x050e942b8ebb0e174a847f343d04efdc669dff63",
        "gas": "0x2a28d",
        "value": "0x0",
        "input": "0x437bf84f000000000000000000000000000000000000000000000000000000000000006000000000000000000000000000000000000000000000000000000000000000a000000000000000000000000000000000000000000000000000000000000001400000000000000000000000000000000000000000000000000000000000000008313131353534323000000000000000000000000000000000000000000000000000000000000000000000000000000000000000000000000000000000000000010000000000000000000000000000000000000000000000000000000000000020000000000000000000000000000000000000000000000000000000000000002a3078366134646263393731353333626133366264633233616437306635613761313265303634663461650000000000000000000000000000000000000000000000000000000000000000000000000000000000000000000000000000000000010000000000000000000000000000000000000000000000000000000000000064",
        "nonce": "0x458",
        "chainId": "0x14a34"
      },
      "additionalContracts": [],
      "isFixedGasLimit": false
    },
    {
      "hash": "0x01e556db8b412e16f9041de96f91e142c6478c8f0a6112a2e619550bd474a789",
      "transactionType": "CALL",
      "contractName": null,
      "contractAddress": "0x050e942b8ebb0e174a847f343d04efdc669dff63",
      "function": "addFeeToken(string,string[],uint256[])",
      "arguments": [
        "43113",
        "[0x6a4dbc971533ba36bdc23ad70f5a7a12e064f4ae]",
        "[100]"
      ],
      "transaction": {
        "from": "0xe62ab4d111f968660c6b2188046f9b9ba53c4bae",
        "to": "0x050e942b8ebb0e174a847f343d04efdc669dff63",
        "gas": "0x29c78",
        "value": "0x0",
        "input": "0x437bf84f000000000000000000000000000000000000000000000000000000000000006000000000000000000000000000000000000000000000000000000000000000a000000000000000000000000000000000000000000000000000000000000001400000000000000000000000000000000000000000000000000000000000000005343331313300000000000000000000000000000000000000000000000000000000000000000000000000000000000000000000000000000000000000000000010000000000000000000000000000000000000000000000000000000000000020000000000000000000000000000000000000000000000000000000000000002a3078366134646263393731353333626133366264633233616437306635613761313265303634663461650000000000000000000000000000000000000000000000000000000000000000000000000000000000000000000000000000000000010000000000000000000000000000000000000000000000000000000000000064",
        "nonce": "0x459",
        "chainId": "0x14a34"
      },
      "additionalContracts": [],
      "isFixedGasLimit": false
    },
    {
      "hash": "0x01772b1c16983c961ea652dc81827d95736b50b4d4a210131c904e725aaa2302",
      "transactionType": "CALL",
      "contractName": null,
      "contractAddress": "0x31f21c6e2605d28e6b204cd323ff58421fc8dd00",
      "function": "addChainContract(string[],string[])",
      "arguments": [
        "[421614, 80002, 11155111, 97, 1952959480, 5611, 1946, 534351, 17000, 5003, 168587773, 153, 11155420, 43113]",
        "[0xfa89dd803b8872f991997778d26c74a3aecd9639, 0x66db3f564807fdc689ec85285981ef464daeb943, 0x13797c225f8e3645299f17d83365e0f5db1c1607, 0x7a63f6b51c503e9a3354af8262e8c7129abdbbeb, 0x5fd63ca6c373cd35e8e373fb5fa7830a8783eced, 0x78f81b1aee019efaafe58853d96c5e9ac87be731, 0xa7441037961e31d4b64aca57417d7673fedc8fec, 0x1944f7fdd330af7b0e7c08349591213e35ed5948, 0x1eebc47aae37f2ea390869efe60db5a2cf2c9d80, 0xf5b9b2dcda465ad62b56390da5c36e4403e5ae92, 0xea4a06cb68aba869e6bf98edc4bdbc731d2d82e3, 0xfbdbf53eb371419e92c718ac76632c7f3617545a, 0xf74b4051a565399b114a0fd6a674ecab864ae186, 0x8176186fa521e54f12dd8011eb6729003e3d3fe0]"
      ],
      "transaction": {
        "from": "0xe62ab4d111f968660c6b2188046f9b9ba53c4bae",
        "to": "0x31f21c6e2605d28e6b204cd323ff58421fc8dd00",
        "gas": "0x25a785",
        "value": "0x0",
        "input": "0x013fd3bd000000000000000000000000000000000000000000000000000000000000004000000000000000000000000000000000000000000000000000000000000005a0000000000000000000000000000000000000000000000000000000000000000e00000000000000000000000000000000000000000000000000000000000001c000000000000000000000000000000000000000000000000000000000000002000000000000000000000000000000000000000000000000000000000000000240000000000000000000000000000000000000000000000000000000000000028000000000000000000000000000000000000000000000000000000000000002c000000000000000000000000000000000000000000000000000000000000003000000000000000000000000000000000000000000000000000000000000000340000000000000000000000000000000000000000000000000000000000000038000000000000000000000000000000000000000000000000000000000000003c000000000000000000000000000000000000000000000000000000000000004000000000000000000000000000000000000000000000000000000000000000440000000000000000000000000000000000000000000000000000000000000048000000000000000000000000000000000000000000000000000000000000004c0000000000000000000000000000000000000000000000000000000000000050000000000000000000000000000000000000000000000000000000000000000063432313631340000000000000000000000000000000000000000000000000000000000000000000000000000000000000000000000000000000000000000000538303030320000000000000000000000000000000000000000000000000000000000000000000000000000000000000000000000000000000000000000000008313131353531313100000000000000000000000000000000000000000000000000000000000000000000000000000000000000000000000000000000000000023937000000000000000000000000000000000000000000000000000000000000000000000000000000000000000000000000000000000000000000000000000a3139353239353934383000000000000000000000000000000000000000000000000000000000000000000000000000000000000000000000000000000000000435363131000000000000000000000000000000000000000000000000000000000000000000000000000000000000000000000000000000000000000000000004313934360000000000000000000000000000000000000000000000000000000000000000000000000000000000000000000000000000000000000000000000063533343335310000000000000000000000000000000000000000000000000000000000000000000000000000000000000000000000000000000000000000000531373030300000000000000000000000000000000000000000000000000000000000000000000000000000000000000000000000000000000000000000000004353030330000000000000000000000000000000000000000000000000000000000000000000000000000000000000000000000000000000000000000000000093136383538373737330000000000000000000000000000000000000000000000000000000000000000000000000000000000000000000000000000000000000331353300000000000000000000000000000000000000000000000000000000000000000000000000000000000000000000000000000000000000000000000008313131353534323000000000000000000000000000000000000000000000000000000000000000000000000000000000000000000000000000000000000000053433313133000000000000000000000000000000000000000000000000000000000000000000000000000000000000000000000000000000000000000000000e00000000000000000000000000000000000000000000000000000000000001c00000000000000000000000000000000000000000000000000000000000000220000000000000000000000000000000000000000000000000000000000000028000000000000000000000000000000000000000000000000000000000000002e0000000000000000000000000000000000000000000000000000000000000034000000000000000000000000000000000000000000000000000000000000003a00000000000000000000000000000000000000000000000000000000000000400000000000000000000000000000000000000000000000000000000000000046000000000000000000000000000000000000000000000000000000000000004c00000000000000000000000000000000000000000000000000000000000000520000000000000000000000000000000000000000000000000000000000000058000000000000000000000000000000000000000000000000000000000000005e0000000000000000000000000000000000000000000000000000000000000064000000000000000000000000000000000000000000000000000000000000006a0000000000000000000000000000000000000000000000000000000000000002a30786661383964643830336238383732663939313939373737386432366337346133616563643936333900000000000000000000000000000000000000000000000000000000000000000000000000000000000000000000000000000000002a30783636646233663536343830376664633638396563383532383539383165663436346461656239343300000000000000000000000000000000000000000000000000000000000000000000000000000000000000000000000000000000002a30783133373937633232356638653336343532393966313764383333363565306635646231633136303700000000000000000000000000000000000000000000000000000000000000000000000000000000000000000000000000000000002a30783761363366366235316335303365396133333534616638323632653863373132396162646262656200000000000000000000000000000000000000000000000000000000000000000000000000000000000000000000000000000000002a30783566643633636136633337336364333565386533373366623566613738333061383738336563656400000000000000000000000000000000000000000000000000000000000000000000000000000000000000000000000000000000002a30783738663831623161656530313965666161666535383835336439366335653961633837626537333100000000000000000000000000000000000000000000000000000000000000000000000000000000000000000000000000000000002a30786137343431303337393631653331643462363461636135373431376437363733666564633866656300000000000000000000000000000000000000000000000000000000000000000000000000000000000000000000000000000000002a30783139343466376664643333306166376230653763303833343935393132313365333565643539343800000000000000000000000000000000000000000000000000000000000000000000000000000000000000000000000000000000002a30783165656263343761616533376632656133393038363965666536306462356132636632633964383000000000000000000000000000000000000000000000000000000000000000000000000000000000000000000000000000000000002a30786635623962326463646134363561643632623536333930646135633336653434303365356165393200000000000000000000000000000000000000000000000000000000000000000000000000000000000000000000000000000000002a30786561346130366362363861626138363965366266393865646334626462633733316432643832653300000000000000000000000000000000000000000000000000000000000000000000000000000000000000000000000000000000002a30786662646266353365623337313431396539326337313861633736363332633766333631373534356100000000000000000000000000000000000000000000000000000000000000000000000000000000000000000000000000000000002a30786637346234303531613536353339396231313461306664366136373465636162383634616531383600000000000000000000000000000000000000000000000000000000000000000000000000000000000000000000000000000000002a30783831373631383666613532316535346631326464383031316562363732393030336533643366653000000000000000000000000000000000000000000000",
        "nonce": "0x45a",
        "chainId": "0x14a34"
      },
      "additionalContracts": [],
      "isFixedGasLimit": false
    },
    {
      "hash": "0xbd51746244450c10005c69727ea0654484b797b9df3ae896919cb5a2eec24cab",
      "transactionType": "CALL",
      "contractName": null,
      "contractAddress": "0x31f21c6e2605d28e6b204cd323ff58421fc8dd00",
      "function": "attachRWAX(uint256,uint256,string[],string[])",
      "arguments": [
        "1",
        "1",
        "[84532, 421614, 80002, 11155111, 97, 1952959480, 5611, 1946, 534351, 17000, 5003, 168587773, 153, 11155420, 43113]",
        "[0x8736d3b789a6548cc8fb607da34ed860ab626322, 0x8bd737f4ea451911edf0445acb1b7efdc9565221, 0x2da1b2763cf56b9df5cbbb5a996c7e8836d8c6d8, 0x778511925d3243cf03a2486386ecc363e9ad6647, 0x37c7137dc6e3dc3c3637bfed3f6dbfbd43386429, 0x62421e1c0110aebd376e34411c2616c10eff9161, 0x7743150e59d6a27ec96ddda07b24131d0122b611, 0xf299832e535b9cc50d4002909061c320964d03fc, 0x1249d751e6a0b7b11b9e55cbf8bc7d397ac3c083, 0x9372cd1287e0bb6337802d80dff342348c85fd78, 0x6b39331e9478571bf6d55842aab470ba3196bd5a, 0x9a0f81de582ce9194feadc6ccefaf9ea70451616, 0xfdf17bece656a0ac2d1302305962122a968eea28, 0xb9de1c03eea7546d9db1fa6fc19dfa7443f0aede, 0x5e0d85dfa2827cd3065ab2d4af93e58dc82c5e96]"
      ],
      "transaction": {
        "from": "0xe62ab4d111f968660c6b2188046f9b9ba53c4bae",
        "to": "0x31f21c6e2605d28e6b204cd323ff58421fc8dd00",
        "gas": "0x30b912",
        "value": "0x0",
        "input": "0x33a5f5b40000000000000000000000000000000000000000000000000000000000000001000000000000000000000000000000000000000000000000000000000000000100000000000000000000000000000000000000000000000000000000000000800000000000000000000000000000000000000000000000000000000000000640000000000000000000000000000000000000000000000000000000000000000f00000000000000000000000000000000000000000000000000000000000001e00000000000000000000000000000000000000000000000000000000000000220000000000000000000000000000000000000000000000000000000000000026000000000000000000000000000000000000000000000000000000000000002a000000000000000000000000000000000000000000000000000000000000002e00000000000000000000000000000000000000000000000000000000000000320000000000000000000000000000000000000000000000000000000000000036000000000000000000000000000000000000000000000000000000000000003a000000000000000000000000000000000000000000000000000000000000003e00000000000000000000000000000000000000000000000000000000000000420000000000000000000000000000000000000000000000000000000000000046000000000000000000000000000000000000000000000000000000000000004a000000000000000000000000000000000000000000000000000000000000004e0000000000000000000000000000000000000000000000000000000000000052000000000000000000000000000000000000000000000000000000000000005600000000000000000000000000000000000000000000000000000000000000005383435333200000000000000000000000000000000000000000000000000000000000000000000000000000000000000000000000000000000000000000000063432313631340000000000000000000000000000000000000000000000000000000000000000000000000000000000000000000000000000000000000000000538303030320000000000000000000000000000000000000000000000000000000000000000000000000000000000000000000000000000000000000000000008313131353531313100000000000000000000000000000000000000000000000000000000000000000000000000000000000000000000000000000000000000023937000000000000000000000000000000000000000000000000000000000000000000000000000000000000000000000000000000000000000000000000000a3139353239353934383000000000000000000000000000000000000000000000000000000000000000000000000000000000000000000000000000000000000435363131000000000000000000000000000000000000000000000000000000000000000000000000000000000000000000000000000000000000000000000004313934360000000000000000000000000000000000000000000000000000000000000000000000000000000000000000000000000000000000000000000000063533343335310000000000000000000000000000000000000000000000000000000000000000000000000000000000000000000000000000000000000000000531373030300000000000000000000000000000000000000000000000000000000000000000000000000000000000000000000000000000000000000000000004353030330000000000000000000000000000000000000000000000000000000000000000000000000000000000000000000000000000000000000000000000093136383538373737330000000000000000000000000000000000000000000000000000000000000000000000000000000000000000000000000000000000000331353300000000000000000000000000000000000000000000000000000000000000000000000000000000000000000000000000000000000000000000000008313131353534323000000000000000000000000000000000000000000000000000000000000000000000000000000000000000000000000000000000000000053433313133000000000000000000000000000000000000000000000000000000000000000000000000000000000000000000000000000000000000000000000f00000000000000000000000000000000000000000000000000000000000001e0000000000000000000000000000000000000000000000000000000000000024000000000000000000000000000000000000000000000000000000000000002a00000000000000000000000000000000000000000000000000000000000000300000000000000000000000000000000000000000000000000000000000000036000000000000000000000000000000000000000000000000000000000000003c00000000000000000000000000000000000000000000000000000000000000420000000000000000000000000000000000000000000000000000000000000048000000000000000000000000000000000000000000000000000000000000004e0000000000000000000000000000000000000000000000000000000000000054000000000000000000000000000000000000000000000000000000000000005a00000000000000000000000000000000000000000000000000000000000000600000000000000000000000000000000000000000000000000000000000000066000000000000000000000000000000000000000000000000000000000000006c00000000000000000000000000000000000000000000000000000000000000720000000000000000000000000000000000000000000000000000000000000002a30783837333664336237383961363534386363386662363037646133346564383630616236323633323200000000000000000000000000000000000000000000000000000000000000000000000000000000000000000000000000000000002a30783862643733376634656134353139313165646630343435616362316237656664633935363532323100000000000000000000000000000000000000000000000000000000000000000000000000000000000000000000000000000000002a30783264613162323736336366353662396466356362626235613939366337653838333664386336643800000000000000000000000000000000000000000000000000000000000000000000000000000000000000000000000000000000002a30783737383531313932356433323433636630336132343836333836656363333633653961643636343700000000000000000000000000000000000000000000000000000000000000000000000000000000000000000000000000000000002a30783337633731333764633665336463336333363337626665643366366462666264343333383634323900000000000000000000000000000000000000000000000000000000000000000000000000000000000000000000000000000000002a30783632343231653163303131306165626433373665333434313163323631366331306566663931363100000000000000000000000000000000000000000000000000000000000000000000000000000000000000000000000000000000002a30783737343331353065353964366132376563393664646461303762323431333164303132326236313100000000000000000000000000000000000000000000000000000000000000000000000000000000000000000000000000000000002a30786632393938333265353335623963633530643430303239303930363163333230393634643033666300000000000000000000000000000000000000000000000000000000000000000000000000000000000000000000000000000000002a30783132343964373531653661306237623131623965353563626638626337643339376163336330383300000000000000000000000000000000000000000000000000000000000000000000000000000000000000000000000000000000002a30783933373263643132383765306262363333373830326438306466663334323334386338356664373800000000000000000000000000000000000000000000000000000000000000000000000000000000000000000000000000000000002a30783662333933333165393437383537316266366435353834326161623437306261333139366264356100000000000000000000000000000000000000000000000000000000000000000000000000000000000000000000000000000000002a30783961306638316465353832636539313934666561646336636365666166396561373034353136313600000000000000000000000000000000000000000000000000000000000000000000000000000000000000000000000000000000002a30786664663137626563653635366130616332643133303233303539363231323261393638656561323800000000000000000000000000000000000000000000000000000000000000000000000000000000000000000000000000000000002a30786239646531633033656561373534366439646231666136666331396466613734343366306165646500000000000000000000000000000000000000000000000000000000000000000000000000000000000000000000000000000000002a30783565306438356466613238323763643330363561623264346166393365353864633832633565393600000000000000000000000000000000000000000000",
        "nonce": "0x45b",
        "chainId": "0x14a34"
      },
      "additionalContracts": [],
      "isFixedGasLimit": false
    },
    {
      "hash": "0x71ae7793c3d7865b7c9f4ce33297769ad8b8907c19b7d78fd20b36dac78c64c9",
      "transactionType": "CALL",
      "contractName": null,
      "contractAddress": "0x31f21c6e2605d28e6b204cd323ff58421fc8dd00",
      "function": "attachStorageManager(uint256,uint256,string[],string[])",
      "arguments": [
        "1",
        "1",
        "[84532, 421614, 80002, 11155111, 97, 1952959480, 5611, 1946, 534351, 17000, 5003, 168587773, 153, 11155420, 43113]",
        "[0x7e0858de387f30ebc0bc2f24a35dc4ad9231cffd, 0x7ab4de775c88e4aa4c93d0078d8318463fabfb13, 0xb3d138f0613cc476faa8c5e2c1a64e90d9d506f3, 0x6681db630eb117050d78e0b89eb5619b35ea12e8, 0x71645806ee984439adc3352abb5491ec03928e63, 0xe3a405aa844da4b6e83eae852ba471219163cbe0, 0x926df1f820af8e3cf53a58c94332eb16ba4cb4b5, 0x3f547b04f8cf9552434b7f3a51fc23247911b797, 0xb406b937c12e03d676727fc1bb686279eedbc178, 0xe148fbc6c35b6cecc50d18ebf69959a6a989cb7c, 0xf3f62daf8f096e5e1e8626cf2f35d816d454bc93, 0x8d4eee23a687b304e94eee3211f3058a60744502, 0x35f5b7a7469c7b3e3bb159335ec92ce74f7f11cd, 0x6429d598684efbe5a5ff70451e7b2c501c85e254, 0xae66c08b9d76eecaa74314c60f3305d43707acc9]"
      ],
      "transaction": {
        "from": "0xe62ab4d111f968660c6b2188046f9b9ba53c4bae",
        "to": "0x31f21c6e2605d28e6b204cd323ff58421fc8dd00",
        "gas": "0x2b63b3",
        "value": "0x0",
        "input": "0x2f68b4890000000000000000000000000000000000000000000000000000000000000001000000000000000000000000000000000000000000000000000000000000000100000000000000000000000000000000000000000000000000000000000000800000000000000000000000000000000000000000000000000000000000000640000000000000000000000000000000000000000000000000000000000000000f00000000000000000000000000000000000000000000000000000000000001e00000000000000000000000000000000000000000000000000000000000000220000000000000000000000000000000000000000000000000000000000000026000000000000000000000000000000000000000000000000000000000000002a000000000000000000000000000000000000000000000000000000000000002e00000000000000000000000000000000000000000000000000000000000000320000000000000000000000000000000000000000000000000000000000000036000000000000000000000000000000000000000000000000000000000000003a000000000000000000000000000000000000000000000000000000000000003e00000000000000000000000000000000000000000000000000000000000000420000000000000000000000000000000000000000000000000000000000000046000000000000000000000000000000000000000000000000000000000000004a000000000000000000000000000000000000000000000000000000000000004e0000000000000000000000000000000000000000000000000000000000000052000000000000000000000000000000000000000000000000000000000000005600000000000000000000000000000000000000000000000000000000000000005383435333200000000000000000000000000000000000000000000000000000000000000000000000000000000000000000000000000000000000000000000063432313631340000000000000000000000000000000000000000000000000000000000000000000000000000000000000000000000000000000000000000000538303030320000000000000000000000000000000000000000000000000000000000000000000000000000000000000000000000000000000000000000000008313131353531313100000000000000000000000000000000000000000000000000000000000000000000000000000000000000000000000000000000000000023937000000000000000000000000000000000000000000000000000000000000000000000000000000000000000000000000000000000000000000000000000a3139353239353934383000000000000000000000000000000000000000000000000000000000000000000000000000000000000000000000000000000000000435363131000000000000000000000000000000000000000000000000000000000000000000000000000000000000000000000000000000000000000000000004313934360000000000000000000000000000000000000000000000000000000000000000000000000000000000000000000000000000000000000000000000063533343335310000000000000000000000000000000000000000000000000000000000000000000000000000000000000000000000000000000000000000000531373030300000000000000000000000000000000000000000000000000000000000000000000000000000000000000000000000000000000000000000000004353030330000000000000000000000000000000000000000000000000000000000000000000000000000000000000000000000000000000000000000000000093136383538373737330000000000000000000000000000000000000000000000000000000000000000000000000000000000000000000000000000000000000331353300000000000000000000000000000000000000000000000000000000000000000000000000000000000000000000000000000000000000000000000008313131353534323000000000000000000000000000000000000000000000000000000000000000000000000000000000000000000000000000000000000000053433313133000000000000000000000000000000000000000000000000000000000000000000000000000000000000000000000000000000000000000000000f00000000000000000000000000000000000000000000000000000000000001e0000000000000000000000000000000000000000000000000000000000000024000000000000000000000000000000000000000000000000000000000000002a00000000000000000000000000000000000000000000000000000000000000300000000000000000000000000000000000000000000000000000000000000036000000000000000000000000000000000000000000000000000000000000003c00000000000000000000000000000000000000000000000000000000000000420000000000000000000000000000000000000000000000000000000000000048000000000000000000000000000000000000000000000000000000000000004e0000000000000000000000000000000000000000000000000000000000000054000000000000000000000000000000000000000000000000000000000000005a00000000000000000000000000000000000000000000000000000000000000600000000000000000000000000000000000000000000000000000000000000066000000000000000000000000000000000000000000000000000000000000006c00000000000000000000000000000000000000000000000000000000000000720000000000000000000000000000000000000000000000000000000000000002a30783765303835386465333837663330656263306263326632346133356463346164393233316366666400000000000000000000000000000000000000000000000000000000000000000000000000000000000000000000000000000000002a30783761623464653737356338386534616134633933643030373864383331383436336661626662313300000000000000000000000000000000000000000000000000000000000000000000000000000000000000000000000000000000002a30786233643133386630363133636334373666616138633565326331613634653930643964353036663300000000000000000000000000000000000000000000000000000000000000000000000000000000000000000000000000000000002a30783636383164623633306562313137303530643738653062383965623536313962333565613132653800000000000000000000000000000000000000000000000000000000000000000000000000000000000000000000000000000000002a30783731363435383036656539383434333961646333333532616262353439316563303339323865363300000000000000000000000000000000000000000000000000000000000000000000000000000000000000000000000000000000002a30786533613430356161383434646134623665383365616538353262613437313231393136336362653000000000000000000000000000000000000000000000000000000000000000000000000000000000000000000000000000000000002a30783932366466316638323061663865336366353361353863393433333265623136626134636234623500000000000000000000000000000000000000000000000000000000000000000000000000000000000000000000000000000000002a30783366353437623034663863663935353234333462376633613531666332333234373931316237393700000000000000000000000000000000000000000000000000000000000000000000000000000000000000000000000000000000002a30786234303662393337633132653033643637363732376663316262363836323739656564626331373800000000000000000000000000000000000000000000000000000000000000000000000000000000000000000000000000000000002a30786531343866626336633335623663656363353064313865626636393935396136613938396362376300000000000000000000000000000000000000000000000000000000000000000000000000000000000000000000000000000000002a30786633663632646166386630393665356531653836323663663266333564383136643435346263393300000000000000000000000000000000000000000000000000000000000000000000000000000000000000000000000000000000002a30783864346565653233613638376233303465393465656533323131663330353861363037343435303200000000000000000000000000000000000000000000000000000000000000000000000000000000000000000000000000000000002a30783335663562376137343639633762336533626231353933333565633932636537346637663131636400000000000000000000000000000000000000000000000000000000000000000000000000000000000000000000000000000000002a30783634323964353938363834656662653561356666373034353165376232633530316338356532353400000000000000000000000000000000000000000000000000000000000000000000000000000000000000000000000000000000002a30786165363663303862396437366565636161373433313463363066333330356434333730376163633900000000000000000000000000000000000000000000",
        "nonce": "0x45c",
        "chainId": "0x14a34"
      },
      "additionalContracts": [],
      "isFixedGasLimit": false
    },
    {
      "hash": "0x6c2396cb041ea07fa8416a5c7dd701dfdae79c4f66dc5cc974952cd456787541",
      "transactionType": "CALL",
      "contractName": null,
      "contractAddress": "0x31f21c6e2605d28e6b204cd323ff58421fc8dd00",
      "function": "attachSentryManager(uint256,uint256,string[],string[])",
      "arguments": [
        "1",
        "1",
        "[84532, 421614, 80002, 11155111, 97, 1952959480, 5611, 1946, 534351, 17000, 5003, 168587773, 153, 11155420, 43113]",
        "[0x669ab21e6cea598ea34cd1292680937c3def535c, 0xb63f83484b9bdbad5c574b4c89badf0359e78854, 0xf32bc63a511b3b3deb8fb6aeb3c52ebc0541067e, 0xf4842c8354fe42e85d6dcde11cfada1b80beaa33, 0x0d7b0bb763557ea0c7c2d938b5ae3d5ccbbf8d44, 0x4a707b416ee66af8b1671209ed48f5dcc00257bf, 0x3af6a526dd51c8b08fd54dbb624e042bb3b0a77e, 0xc04058e417de221448d4140fc1622de24121c5e3, 0x66dc636132fb9b7f6ed858928b65864d3fd0ea67, 0x208ec1ca3b07a50151c5741bc0e05c61beddad90, 0xb5f5be1ac436d8ad082c4804afeda73088730ed1, 0x0156a74fd9432446030f47f7c55f4d1fbfdf5e9a, 0x2b15aab31879e4b3a9dc521a3a4ebdb5d691d18a, 0xa31ac55003cde3ef9ce9c576a691d0f41586c20b, 0xf9edce2638da660f51ee08220a1a5a32fab61d61]"
      ],
      "transaction": {
        "from": "0xe62ab4d111f968660c6b2188046f9b9ba53c4bae",
        "to": "0x31f21c6e2605d28e6b204cd323ff58421fc8dd00",
        "gas": "0x29074f",
        "value": "0x0",
        "input": "0x349de7970000000000000000000000000000000000000000000000000000000000000001000000000000000000000000000000000000000000000000000000000000000100000000000000000000000000000000000000000000000000000000000000800000000000000000000000000000000000000000000000000000000000000640000000000000000000000000000000000000000000000000000000000000000f00000000000000000000000000000000000000000000000000000000000001e00000000000000000000000000000000000000000000000000000000000000220000000000000000000000000000000000000000000000000000000000000026000000000000000000000000000000000000000000000000000000000000002a000000000000000000000000000000000000000000000000000000000000002e00000000000000000000000000000000000000000000000000000000000000320000000000000000000000000000000000000000000000000000000000000036000000000000000000000000000000000000000000000000000000000000003a000000000000000000000000000000000000000000000000000000000000003e00000000000000000000000000000000000000000000000000000000000000420000000000000000000000000000000000000000000000000000000000000046000000000000000000000000000000000000000000000000000000000000004a000000000000000000000000000000000000000000000000000000000000004e0000000000000000000000000000000000000000000000000000000000000052000000000000000000000000000000000000000000000000000000000000005600000000000000000000000000000000000000000000000000000000000000005383435333200000000000000000000000000000000000000000000000000000000000000000000000000000000000000000000000000000000000000000000063432313631340000000000000000000000000000000000000000000000000000000000000000000000000000000000000000000000000000000000000000000538303030320000000000000000000000000000000000000000000000000000000000000000000000000000000000000000000000000000000000000000000008313131353531313100000000000000000000000000000000000000000000000000000000000000000000000000000000000000000000000000000000000000023937000000000000000000000000000000000000000000000000000000000000000000000000000000000000000000000000000000000000000000000000000a3139353239353934383000000000000000000000000000000000000000000000000000000000000000000000000000000000000000000000000000000000000435363131000000000000000000000000000000000000000000000000000000000000000000000000000000000000000000000000000000000000000000000004313934360000000000000000000000000000000000000000000000000000000000000000000000000000000000000000000000000000000000000000000000063533343335310000000000000000000000000000000000000000000000000000000000000000000000000000000000000000000000000000000000000000000531373030300000000000000000000000000000000000000000000000000000000000000000000000000000000000000000000000000000000000000000000004353030330000000000000000000000000000000000000000000000000000000000000000000000000000000000000000000000000000000000000000000000093136383538373737330000000000000000000000000000000000000000000000000000000000000000000000000000000000000000000000000000000000000331353300000000000000000000000000000000000000000000000000000000000000000000000000000000000000000000000000000000000000000000000008313131353534323000000000000000000000000000000000000000000000000000000000000000000000000000000000000000000000000000000000000000053433313133000000000000000000000000000000000000000000000000000000000000000000000000000000000000000000000000000000000000000000000f00000000000000000000000000000000000000000000000000000000000001e0000000000000000000000000000000000000000000000000000000000000024000000000000000000000000000000000000000000000000000000000000002a00000000000000000000000000000000000000000000000000000000000000300000000000000000000000000000000000000000000000000000000000000036000000000000000000000000000000000000000000000000000000000000003c00000000000000000000000000000000000000000000000000000000000000420000000000000000000000000000000000000000000000000000000000000048000000000000000000000000000000000000000000000000000000000000004e0000000000000000000000000000000000000000000000000000000000000054000000000000000000000000000000000000000000000000000000000000005a00000000000000000000000000000000000000000000000000000000000000600000000000000000000000000000000000000000000000000000000000000066000000000000000000000000000000000000000000000000000000000000006c00000000000000000000000000000000000000000000000000000000000000720000000000000000000000000000000000000000000000000000000000000002a30783636396162323165366365613539386561333463643132393236383039333763336465663533356300000000000000000000000000000000000000000000000000000000000000000000000000000000000000000000000000000000002a30786236336638333438346239626462616435633537346234633839626164663033353965373838353400000000000000000000000000000000000000000000000000000000000000000000000000000000000000000000000000000000002a30786633326263363361353131623362336465623866623661656233633532656263303534313036376500000000000000000000000000000000000000000000000000000000000000000000000000000000000000000000000000000000002a30786634383432633833353466653432653835643664636465313163666164613162383062656161333300000000000000000000000000000000000000000000000000000000000000000000000000000000000000000000000000000000002a30783064376230626237363335353765613063376332643933386235616533643563636262663864343400000000000000000000000000000000000000000000000000000000000000000000000000000000000000000000000000000000002a30783461373037623431366565363661663862313637313230396564343866356463633030323537626600000000000000000000000000000000000000000000000000000000000000000000000000000000000000000000000000000000002a30783361663661353236646435316338623038666435346462623632346530343262623362306137376500000000000000000000000000000000000000000000000000000000000000000000000000000000000000000000000000000000002a30786330343035386534313764653232313434386434313430666331363232646532343132316335653300000000000000000000000000000000000000000000000000000000000000000000000000000000000000000000000000000000002a30783636646336333631333266623962376636656438353839323862363538363464336664306561363700000000000000000000000000000000000000000000000000000000000000000000000000000000000000000000000000000000002a30783230386563316361336230376135303135316335373431626330653035633631626564646164393000000000000000000000000000000000000000000000000000000000000000000000000000000000000000000000000000000000002a30786235663562653161633433366438616430383263343830346166656461373330383837333065643100000000000000000000000000000000000000000000000000000000000000000000000000000000000000000000000000000000002a30783031353661373466643934333234343630333066343766376335356634643166626664663565396100000000000000000000000000000000000000000000000000000000000000000000000000000000000000000000000000000000002a30783262313561616233313837396534623361396463353231613361346562646235643639316431386100000000000000000000000000000000000000000000000000000000000000000000000000000000000000000000000000000000002a30786133316163353530303363646533656639636539633537366136393164306634313538366332306200000000000000000000000000000000000000000000000000000000000000000000000000000000000000000000000000000000002a30786639656463653236333864613636306635316565303832323061316135613332666162363164363100000000000000000000000000000000000000000000",
        "nonce": "0x45d",
        "chainId": "0x14a34"
      },
      "additionalContracts": [],
      "isFixedGasLimit": false
    }
  ],
  "receipts": [
    {
      "status": "0x1",
      "cumulativeGasUsed": "0x12d18ff",
      "logs": [],
      "logsBloom": "0x00000000000000000000000000000000000000000000000000000000000000000000000000000000000000000000000000000000000000000000000000000000000000000000000000000000000000000000000000000000000000000000000000000000000000000000000000000000000000000000000000000000000000000000000000000000000000000000000000000000000000000000000000000000000000000000000000000000000000000000000000000000000000000000000000000000000000000000000000000000000000000000000000000000000000000000000000000000000000000000000000000000000000000000000000000000",
      "type": "0x2",
      "transactionHash": "0xfdb7f4345e6e985fb6be33989131c0699d1b15ef4edbbb4e08e912eea940bd57",
      "transactionIndex": "0x132",
      "blockHash": "0x03eb98a21b4bf382f5b7476b5de1df3f59791410cc249b4df69dc3aaf8134234",
      "blockNumber": "0x1917f38",
      "gasUsed": "0x5e83",
      "effectiveGasPrice": "0x7aff0b2",
      "from": "0xe62ab4d111f968660c6b2188046f9b9ba53c4bae",
      "to": "0x050e942b8ebb0e174a847f343d04efdc669dff63",
      "contractAddress": null,
      "l1BaseFeeScalar": "0x44d",
      "l1BlobBaseFee": "0x1",
      "l1BlobBaseFeeScalar": "0xa118b",
      "l1Fee": "0x66",
      "l1GasPrice": "0x15",
      "l1GasUsed": "0x640"
    },
    {
      "status": "0x1",
      "cumulativeGasUsed": "0x3d91a0",
      "logs": [
        {
          "address": "0x050e942b8ebb0e174a847f343d04efdc669dff63",
          "topics": [
            "0x1394cfab38f3fc78ed77ea6f9318782a446d96e7dc8e9a6b0149f6be25c08bcf",
            "0x0000000000000000000000006a4dbc971533ba36bdc23ad70f5a7a12e064f4ae"
          ],
          "data": "0x",
          "blockHash": "0xc67dc76751b519ded4653c4e099fb0b30197eff854275053a06edf97c13ab34e",
          "blockNumber": "0x1917f3a",
          "transactionHash": "0x413921352bdb921655991c33abc88f72d7664c7587b870996d1e81f58b5ae0a6",
          "transactionIndex": "0x28",
          "logIndex": "0x43",
          "removed": false
        }
      ],
      "logsBloom": "0x00000000000000000000000000000000000200000000000000000000000000000000080000000000000000000000000000000000000000001000000000000000000000000000000000000000000000000000001000000000000000000000000000000000000000000000000000000000000000000000000000000000000000000000000100000000000000000000000000000000000000000000000000000000000000000000000000000000000000000000000100000000000000000000000000000000000040000000000000000000000000002000000000000000000000000000000000000000000000000000008000000000000000000000000000000000",
      "type": "0x2",
      "transactionHash": "0x413921352bdb921655991c33abc88f72d7664c7587b870996d1e81f58b5ae0a6",
      "transactionIndex": "0x28",
      "blockHash": "0xc67dc76751b519ded4653c4e099fb0b30197eff854275053a06edf97c13ab34e",
      "blockNumber": "0x1917f3a",
      "gasUsed": "0x1bda1",
      "effectiveGasPrice": "0x7bcfd09",
      "from": "0xe62ab4d111f968660c6b2188046f9b9ba53c4bae",
      "to": "0x050e942b8ebb0e174a847f343d04efdc669dff63",
      "contractAddress": null,
      "l1BaseFeeScalar": "0x44d",
      "l1BlobBaseFee": "0x1",
      "l1BlobBaseFeeScalar": "0xa118b",
      "l1Fee": "0x72",
      "l1GasPrice": "0x15",
      "l1GasUsed": "0x6f5"
    },
    {
      "status": "0x1",
      "cumulativeGasUsed": "0x9ee065",
      "logs": [],
      "logsBloom": "0x00000000000000000000000000000000000000000000000000000000000000000000000000000000000000000000000000000000000000000000000000000000000000000000000000000000000000000000000000000000000000000000000000000000000000000000000000000000000000000000000000000000000000000000000000000000000000000000000000000000000000000000000000000000000000000000000000000000000000000000000000000000000000000000000000000000000000000000000000000000000000000000000000000000000000000000000000000000000000000000000000000000000000000000000000000000",
      "type": "0x2",
      "transactionHash": "0xefb7a1f0c7b1bb8a6d1f337b25dcbdf7b8a7fb579cf49a151555f419b47b469c",
      "transactionIndex": "0x9e",
      "blockHash": "0x41505fded97144f21611d0584058944d1e536a0bcc82bb1de69f054680152b5c",
      "blockNumber": "0x1917f3b",
      "gasUsed": "0xbbd9",
      "effectiveGasPrice": "0x7c7f1c1",
      "from": "0xe62ab4d111f968660c6b2188046f9b9ba53c4bae",
      "to": "0x050e942b8ebb0e174a847f343d04efdc669dff63",
      "contractAddress": null,
      "l1BaseFeeScalar": "0x44d",
      "l1BlobBaseFee": "0x1",
      "l1BlobBaseFeeScalar": "0xa118b",
      "l1Fee": "0x66",
      "l1GasPrice": "0x15",
      "l1GasUsed": "0x640"
    },
    {
      "status": "0x1",
      "cumulativeGasUsed": "0x65037a",
      "logs": [],
      "logsBloom": "0x00000000000000000000000000000000000000000000000000000000000000000000000000000000000000000000000000000000000000000000000000000000000000000000000000000000000000000000000000000000000000000000000000000000000000000000000000000000000000000000000000000000000000000000000000000000000000000000000000000000000000000000000000000000000000000000000000000000000000000000000000000000000000000000000000000000000000000000000000000000000000000000000000000000000000000000000000000000000000000000000000000000000000000000000000000000",
      "type": "0x2",
      "transactionHash": "0x1c494b0a2c18b60be04ecda5921f90513abba7a760f13a4ff824cc4786e48147",
      "transactionIndex": "0x78",
      "blockHash": "0xb04877e6513ab79d6b7b2eceb9009b9ddb1d1bb7e0f053425b45d430b630045f",
      "blockNumber": "0x1917f3d",
      "gasUsed": "0xbbfc",
      "effectiveGasPrice": "0x7c5d563",
      "from": "0xe62ab4d111f968660c6b2188046f9b9ba53c4bae",
      "to": "0x050e942b8ebb0e174a847f343d04efdc669dff63",
      "contractAddress": null,
      "l1BaseFeeScalar": "0x44d",
      "l1BlobBaseFee": "0x1",
      "l1BlobBaseFeeScalar": "0xa118b",
      "l1Fee": "0x68",
      "l1GasPrice": "0x16",
      "l1GasUsed": "0x640"
    },
    {
      "status": "0x1",
      "cumulativeGasUsed": "0x529481",
      "logs": [],
      "logsBloom": "0x00000000000000000000000000000000000000000000000000000000000000000000000000000000000000000000000000000000000000000000000000000000000000000000000000000000000000000000000000000000000000000000000000000000000000000000000000000000000000000000000000000000000000000000000000000000000000000000000000000000000000000000000000000000000000000000000000000000000000000000000000000000000000000000000000000000000000000000000000000000000000000000000000000000000000000000000000000000000000000000000000000000000000000000000000000000",
      "type": "0x2",
      "transactionHash": "0x4f460252ab6d18982a0800f3ae212a988b47f4c44517b4f8e491f0625d614e85",
      "transactionIndex": "0x48",
      "blockHash": "0x6b6aa5c594b18225836d234f25d218093affb3e0680f3f8fbaa0cadd38dc3576",
      "blockNumber": "0x1917f3f",
      "gasUsed": "0xbc13",
      "effectiveGasPrice": "0x7d1f214",
      "from": "0xe62ab4d111f968660c6b2188046f9b9ba53c4bae",
      "to": "0x050e942b8ebb0e174a847f343d04efdc669dff63",
      "contractAddress": null,
      "l1BaseFeeScalar": "0x44d",
      "l1BlobBaseFee": "0x1",
      "l1BlobBaseFeeScalar": "0xa118b",
      "l1Fee": "0x68",
      "l1GasPrice": "0x16",
      "l1GasUsed": "0x640"
    },
    {
      "status": "0x1",
      "cumulativeGasUsed": "0xa88797",
      "logs": [],
      "logsBloom": "0x00000000000000000000000000000000000000000000000000000000000000000000000000000000000000000000000000000000000000000000000000000000000000000000000000000000000000000000000000000000000000000000000000000000000000000000000000000000000000000000000000000000000000000000000000000000000000000000000000000000000000000000000000000000000000000000000000000000000000000000000000000000000000000000000000000000000000000000000000000000000000000000000000000000000000000000000000000000000000000000000000000000000000000000000000000000",
      "type": "0x2",
      "transactionHash": "0xe229ff724f128d73b75a1b2f37e8a956b61a1a452e0fa514c9a729a84e92ac80",
      "transactionIndex": "0x9e",
      "blockHash": "0xab3f906fcd5c5f9110dfee8c1e8c4f0c59f3d3b549fd86098ea607ddaa7d414e",
      "blockNumber": "0x1917f41",
      "gasUsed": "0xbc2a",
      "effectiveGasPrice": "0x7cb8e3a",
      "from": "0xe62ab4d111f968660c6b2188046f9b9ba53c4bae",
      "to": "0x050e942b8ebb0e174a847f343d04efdc669dff63",
      "contractAddress": null,
      "l1BaseFeeScalar": "0x44d",
      "l1BlobBaseFee": "0x1",
      "l1BlobBaseFeeScalar": "0xa118b",
      "l1Fee": "0x68",
      "l1GasPrice": "0x16",
      "l1GasUsed": "0x640"
    },
    {
      "status": "0x1",
      "cumulativeGasUsed": "0x792830",
      "logs": [],
      "logsBloom": "0x00000000000000000000000000000000000000000000000000000000000000000000000000000000000000000000000000000000000000000000000000000000000000000000000000000000000000000000000000000000000000000000000000000000000000000000000000000000000000000000000000000000000000000000000000000000000000000000000000000000000000000000000000000000000000000000000000000000000000000000000000000000000000000000000000000000000000000000000000000000000000000000000000000000000000000000000000000000000000000000000000000000000000000000000000000000",
      "type": "0x2",
      "transactionHash": "0x2c0f3cd49bcec26a3e54f93a43e012d7078b7c3d8c578dc8c01012762949d549",
      "transactionIndex": "0x67",
      "blockHash": "0x7fd55da6117ad86a486ffd1d1b359ff52c1a7e38b2c20270ea7a01bf45d7ff24",
      "blockNumber": "0x1917f43",
      "gasUsed": "0xbc41",
      "effectiveGasPrice": "0x7c82334",
      "from": "0xe62ab4d111f968660c6b2188046f9b9ba53c4bae",
      "to": "0x050e942b8ebb0e174a847f343d04efdc669dff63",
      "contractAddress": null,
      "l1BaseFeeScalar": "0x44d",
      "l1BlobBaseFee": "0x1",
      "l1BlobBaseFeeScalar": "0xa118b",
      "l1Fee": "0x68",
      "l1GasPrice": "0x16",
      "l1GasUsed": "0x640"
    },
    {
      "status": "0x1",
      "cumulativeGasUsed": "0x21407c",
      "logs": [],
      "logsBloom": "0x00000000000000000000000000000000000000000000000000000000000000000000000000000000000000000000000000000000000000000000000000000000000000000000000000000000000000000000000000000000000000000000000000000000000000000000000000000000000000000000000000000000000000000000000000000000000000000000000000000000000000000000000000000000000000000000000000000000000000000000000000000000000000000000000000000000000000000000000000000000000000000000000000000000000000000000000000000000000000000000000000000000000000000000000000000000",
      "type": "0x2",
      "transactionHash": "0xba7104f1bcfefa96c7aa47040942476806e2c9d1a7acc0a600e9a73f4383bba2",
      "transactionIndex": "0x2f",
      "blockHash": "0x6cdec0fc9044cb8781ab40b9b5b5695745526fbbf81ef2e472801fc8c3bf902f",
      "blockNumber": "0x1917f45",
      "gasUsed": "0xbc58",
      "effectiveGasPrice": "0x7cc28d0",
      "from": "0xe62ab4d111f968660c6b2188046f9b9ba53c4bae",
      "to": "0x050e942b8ebb0e174a847f343d04efdc669dff63",
      "contractAddress": null,
      "l1BaseFeeScalar": "0x44d",
      "l1BlobBaseFee": "0x1",
      "l1BlobBaseFeeScalar": "0xa118b",
      "l1Fee": "0x68",
      "l1GasPrice": "0x16",
      "l1GasUsed": "0x640"
    },
    {
      "status": "0x1",
      "cumulativeGasUsed": "0xe0e85",
      "logs": [],
      "logsBloom": "0x00000000000000000000000000000000000000000000000000000000000000000000000000000000000000000000000000000000000000000000000000000000000000000000000000000000000000000000000000000000000000000000000000000000000000000000000000000000000000000000000000000000000000000000000000000000000000000000000000000000000000000000000000000000000000000000000000000000000000000000000000000000000000000000000000000000000000000000000000000000000000000000000000000000000000000000000000000000000000000000000000000000000000000000000000000000",
      "type": "0x2",
      "transactionHash": "0x4dc774a6b91f0165efa89ba864593755eed1b675cd20ed30f9921a2d25f44222",
      "transactionIndex": "0xf",
      "blockHash": "0x5a3b25b6c220aa132cc799652b365b627a1f2061e3ccbe659ef6e081391c0203",
      "blockNumber": "0x1917f47",
      "gasUsed": "0xbc6f",
      "effectiveGasPrice": "0x7d2cdc2",
      "from": "0xe62ab4d111f968660c6b2188046f9b9ba53c4bae",
      "to": "0x050e942b8ebb0e174a847f343d04efdc669dff63",
      "contractAddress": null,
      "l1BaseFeeScalar": "0x44d",
      "l1BlobBaseFee": "0x1",
      "l1BlobBaseFeeScalar": "0xa118b",
      "l1Fee": "0x68",
      "l1GasPrice": "0x16",
      "l1GasUsed": "0x640"
    },
    {
      "status": "0x1",
      "cumulativeGasUsed": "0xd01f57",
      "logs": [],
      "logsBloom": "0x00000000000000000000000000000000000000000000000000000000000000000000000000000000000000000000000000000000000000000000000000000000000000000000000000000000000000000000000000000000000000000000000000000000000000000000000000000000000000000000000000000000000000000000000000000000000000000000000000000000000000000000000000000000000000000000000000000000000000000000000000000000000000000000000000000000000000000000000000000000000000000000000000000000000000000000000000000000000000000000000000000000000000000000000000000000",
      "type": "0x2",
      "transactionHash": "0x5d7f35f5a97980a5d4cc3d98f60afb25e1181e67b9a6070010327621ee23d73b",
      "transactionIndex": "0xfc",
      "blockHash": "0x394a721cc6d6f0a0b6027307ff95b84534bf58c8822db4d60d68f05e8395590f",
      "blockNumber": "0x1917f48",
      "gasUsed": "0xbc86",
      "effectiveGasPrice": "0x7ce585e",
      "from": "0xe62ab4d111f968660c6b2188046f9b9ba53c4bae",
      "to": "0x050e942b8ebb0e174a847f343d04efdc669dff63",
      "contractAddress": null,
      "l1BaseFeeScalar": "0x44d",
      "l1BlobBaseFee": "0x1",
      "l1BlobBaseFeeScalar": "0xa118b",
      "l1Fee": "0x68",
      "l1GasPrice": "0x16",
      "l1GasUsed": "0x640"
    },
    {
      "status": "0x1",
      "cumulativeGasUsed": "0xdb3a5a",
      "logs": [],
      "logsBloom": "0x00000000000000000000000000000000000000000000000000000000000000000000000000000000000000000000000000000000000000000000000000000000000000000000000000000000000000000000000000000000000000000000000000000000000000000000000000000000000000000000000000000000000000000000000000000000000000000000000000000000000000000000000000000000000000000000000000000000000000000000000000000000000000000000000000000000000000000000000000000000000000000000000000000000000000000000000000000000000000000000000000000000000000000000000000000000",
      "type": "0x2",
      "transactionHash": "0xa0e7dae0bbe656191a2c430ff02725214b5be6c691b50b223351fdc0973c8d04",
      "transactionIndex": "0xe0",
      "blockHash": "0x03adec36d34c392381074b810b1cd4f06b183e177c4644ebeebe92c0aac413f5",
      "blockNumber": "0x1917f49",
      "gasUsed": "0xbc9d",
      "effectiveGasPrice": "0x7d05cf2",
      "from": "0xe62ab4d111f968660c6b2188046f9b9ba53c4bae",
      "to": "0x050e942b8ebb0e174a847f343d04efdc669dff63",
      "contractAddress": null,
      "l1BaseFeeScalar": "0x44d",
      "l1BlobBaseFee": "0x1",
      "l1BlobBaseFeeScalar": "0xa118b",
      "l1Fee": "0x6a",
      "l1GasPrice": "0x17",
      "l1GasUsed": "0x640"
    },
    {
      "status": "0x1",
      "cumulativeGasUsed": "0x511a3d",
      "logs": [],
      "logsBloom": "0x00000000000000000000000000000000000000000000000000000000000000000000000000000000000000000000000000000000000000000000000000000000000000000000000000000000000000000000000000000000000000000000000000000000000000000000000000000000000000000000000000000000000000000000000000000000000000000000000000000000000000000000000000000000000000000000000000000000000000000000000000000000000000000000000000000000000000000000000000000000000000000000000000000000000000000000000000000000000000000000000000000000000000000000000000000000",
      "type": "0x2",
      "transactionHash": "0xddb7c32045bdde2be76e73e507b3a974a136e189ac66922419a3b5fae2edde4a",
      "transactionIndex": "0x54",
      "blockHash": "0xd88b049315b2748794c3cd56d481bf189e14b20ccb982a8df50099f9ea32fd0c",
      "blockNumber": "0x1917f4b",
      "gasUsed": "0xbcb4",
      "effectiveGasPrice": "0x7d16432",
      "from": "0xe62ab4d111f968660c6b2188046f9b9ba53c4bae",
      "to": "0x050e942b8ebb0e174a847f343d04efdc669dff63",
      "contractAddress": null,
      "l1BaseFeeScalar": "0x44d",
      "l1BlobBaseFee": "0x1",
      "l1BlobBaseFeeScalar": "0xa118b",
      "l1Fee": "0x6a",
      "l1GasPrice": "0x17",
      "l1GasUsed": "0x640"
    },
    {
      "status": "0x1",
      "cumulativeGasUsed": "0x5d881d",
      "logs": [],
      "logsBloom": "0x00000000000000000000000000000000000000000000000000000000000000000000000000000000000000000000000000000000000000000000000000000000000000000000000000000000000000000000000000000000000000000000000000000000000000000000000000000000000000000000000000000000000000000000000000000000000000000000000000000000000000000000000000000000000000000000000000000000000000000000000000000000000000000000000000000000000000000000000000000000000000000000000000000000000000000000000000000000000000000000000000000000000000000000000000000000",
      "type": "0x2",
      "transactionHash": "0x7d3b8ef34c89c3a800ee5de3467b84105b93b90990c3a284fceaeb5406a3598d",
      "transactionIndex": "0x70",
      "blockHash": "0xd3ce6abce61e0de6794793510f8e4268de70fe20ce80fde8d8d2b61ef0d88ab3",
      "blockNumber": "0x1917f4d",
      "gasUsed": "0xbccb",
      "effectiveGasPrice": "0x7ccbd23",
      "from": "0xe62ab4d111f968660c6b2188046f9b9ba53c4bae",
      "to": "0x050e942b8ebb0e174a847f343d04efdc669dff63",
      "contractAddress": null,
      "l1BaseFeeScalar": "0x44d",
      "l1BlobBaseFee": "0x1",
      "l1BlobBaseFeeScalar": "0xa118b",
      "l1Fee": "0x6a",
      "l1GasPrice": "0x17",
      "l1GasUsed": "0x640"
    },
    {
      "status": "0x1",
      "cumulativeGasUsed": "0x53e65d",
      "logs": [],
      "logsBloom": "0x00000000000000000000000000000000000000000000000000000000000000000000000000000000000000000000000000000000000000000000000000000000000000000000000000000000000000000000000000000000000000000000000000000000000000000000000000000000000000000000000000000000000000000000000000000000000000000000000000000000000000000000000000000000000000000000000000000000000000000000000000000000000000000000000000000000000000000000000000000000000000000000000000000000000000000000000000000000000000000000000000000000000000000000000000000000",
      "type": "0x2",
      "transactionHash": "0x9f0bbe3336338a11ee04965daa04873d9f9615acab87fe3e668128717b06c8c2",
      "transactionIndex": "0x4d",
      "blockHash": "0xa244cfe29ccf09575b6dc1e57cd80abda070d3da0f10880d8684b38c3fc1c468",
      "blockNumber": "0x1917f4f",
      "gasUsed": "0xbce2",
      "effectiveGasPrice": "0x7d1b9c1",
      "from": "0xe62ab4d111f968660c6b2188046f9b9ba53c4bae",
      "to": "0x050e942b8ebb0e174a847f343d04efdc669dff63",
      "contractAddress": null,
      "l1BaseFeeScalar": "0x44d",
      "l1BlobBaseFee": "0x1",
      "l1BlobBaseFeeScalar": "0xa118b",
      "l1Fee": "0x6e",
      "l1GasPrice": "0x19",
      "l1GasUsed": "0x640"
    },
    {
      "status": "0x1",
      "cumulativeGasUsed": "0x588f74",
      "logs": [],
      "logsBloom": "0x00000000000000000000000000000000000000000000000000000000000000000000000000000000000000000000000000000000000000000000000000000000000000000000000000000000000000000000000000000000000000000000000000000000000000000000000000000000000000000000000000000000000000000000000000000000000000000000000000000000000000000000000000000000000000000000000000000000000000000000000000000000000000000000000000000000000000000000000000000000000000000000000000000000000000000000000000000000000000000000000000000000000000000000000000000000",
      "type": "0x2",
      "transactionHash": "0xf4dc30a8e67c22b17fcb2d6346955f732a64ea9c6598629732c6d2de1155239a",
      "transactionIndex": "0x2e",
      "blockHash": "0x746dfde4b37ab67b39f2c71c05120bd6891465fb2d14c6c3b68761cd953008e2",
      "blockNumber": "0x1917f51",
      "gasUsed": "0xbcf9",
      "effectiveGasPrice": "0x7d9d23d",
      "from": "0xe62ab4d111f968660c6b2188046f9b9ba53c4bae",
      "to": "0x050e942b8ebb0e174a847f343d04efdc669dff63",
      "contractAddress": null,
      "l1BaseFeeScalar": "0x44d",
      "l1BlobBaseFee": "0x1",
      "l1BlobBaseFeeScalar": "0xa118b",
      "l1Fee": "0x6e",
      "l1GasPrice": "0x19",
      "l1GasUsed": "0x640"
    },
    {
      "status": "0x1",
      "cumulativeGasUsed": "0x131bb0",
      "logs": [],
      "logsBloom": "0x00000000000000000000000000000000000000000000000000000000000000000000000000000000000000000000000000000000000000000000000000000000000000000000000000000000000000000000000000000000000000000000000000000000000000000000000000000000000000000000000000000000000000000000000000000000000000000000000000000000000000000000000000000000000000000000000000000000000000000000000000000000000000000000000000000000000000000000000000000000000000000000000000000000000000000000000000000000000000000000000000000000000000000000000000000000",
      "type": "0x2",
      "transactionHash": "0x40accec6b99d44e9dc0cf53374a02098c85afdac10ff657f002b50f5b3b147a1",
      "transactionIndex": "0x1a",
      "blockHash": "0xef91a3c2e6b06b731b8ef1dfbe94d0044d058d3188cffce3fd79351c723f3e6b",
      "blockNumber": "0x1917f53",
      "gasUsed": "0xbd10",
      "effectiveGasPrice": "0x7cf4ef9",
      "from": "0xe62ab4d111f968660c6b2188046f9b9ba53c4bae",
      "to": "0x050e942b8ebb0e174a847f343d04efdc669dff63",
      "contractAddress": null,
      "l1BaseFeeScalar": "0x44d",
      "l1BlobBaseFee": "0x1",
      "l1BlobBaseFeeScalar": "0xa118b",
      "l1Fee": "0x6e",
      "l1GasPrice": "0x19",
      "l1GasUsed": "0x640"
    },
    {
      "status": "0x1",
      "cumulativeGasUsed": "0xdaa2cb",
      "logs": [],
      "logsBloom": "0x00000000000000000000000000000000000000000000000000000000000000000000000000000000000000000000000000000000000000000000000000000000000000000000000000000000000000000000000000000000000000000000000000000000000000000000000000000000000000000000000000000000000000000000000000000000000000000000000000000000000000000000000000000000000000000000000000000000000000000000000000000000000000000000000000000000000000000000000000000000000000000000000000000000000000000000000000000000000000000000000000000000000000000000000000000000",
      "type": "0x2",
      "transactionHash": "0x543f00d1e20acae1b6d4f8a1f1d7828d4b5f82cd31132e2890f66467c59161a3",
      "transactionIndex": "0x101",
      "blockHash": "0x7cd194597bd55d4b9f0f6a57e30bff68cf4f3475ef70d8332edd0dc6e08cfa8f",
      "blockNumber": "0x1917f54",
      "gasUsed": "0xbd27",
      "effectiveGasPrice": "0x7cdf37c",
      "from": "0xe62ab4d111f968660c6b2188046f9b9ba53c4bae",
      "to": "0x050e942b8ebb0e174a847f343d04efdc669dff63",
      "contractAddress": null,
      "l1BaseFeeScalar": "0x44d",
      "l1BlobBaseFee": "0x1",
      "l1BlobBaseFeeScalar": "0xa118b",
      "l1Fee": "0x6e",
      "l1GasPrice": "0x19",
      "l1GasUsed": "0x640"
    },
    {
      "status": "0x1",
      "cumulativeGasUsed": "0xdd0ab6",
      "logs": [],
      "logsBloom": "0x00000000000000000000000000000000000000000000000000000000000000000000000000000000000000000000000000000000000000000000000000000000000000000000000000000000000000000000000000000000000000000000000000000000000000000000000000000000000000000000000000000000000000000000000000000000000000000000000000000000000000000000000000000000000000000000000000000000000000000000000000000000000000000000000000000000000000000000000000000000000000000000000000000000000000000000000000000000000000000000000000000000000000000000000000000000",
      "type": "0x2",
      "transactionHash": "0x0f5f81c625111efe7b3aae25a2532c6c091afe406f50e0824117ded847872a95",
      "transactionIndex": "0xe3",
      "blockHash": "0x1a238be22f8c2de13e523bdd93e141d101580b7760ff5840eef68ce40509c563",
      "blockNumber": "0x1917f55",
      "gasUsed": "0xbd3e",
      "effectiveGasPrice": "0x7cf00af",
      "from": "0xe62ab4d111f968660c6b2188046f9b9ba53c4bae",
      "to": "0x050e942b8ebb0e174a847f343d04efdc669dff63",
      "contractAddress": null,
      "l1BaseFeeScalar": "0x44d",
      "l1BlobBaseFee": "0x1",
      "l1BlobBaseFeeScalar": "0xa118b",
      "l1Fee": "0x6f",
      "l1GasPrice": "0x1a",
      "l1GasUsed": "0x640"
    },
    {
      "status": "0x1",
      "cumulativeGasUsed": "0x9cec06",
      "logs": [],
      "logsBloom": "0x00000000000000000000000000000000000000000000000000000000000000000000000000000000000000000000000000000000000000000000000000000000000000000000000000000000000000000000000000000000000000000000000000000000000000000000000000000000000000000000000000000000000000000000000000000000000000000000000000000000000000000000000000000000000000000000000000000000000000000000000000000000000000000000000000000000000000000000000000000000000000000000000000000000000000000000000000000000000000000000000000000000000000000000000000000000",
      "type": "0x2",
      "transactionHash": "0x56d5f0c47a5adc43e5a512953d661dadcdec30aa1805874cb2b6ea6b900dc956",
      "transactionIndex": "0xc0",
      "blockHash": "0x31fb647b8b369c25db38ae2d1b0a77bec94f8e4b7821846becd73cda82538114",
      "blockNumber": "0x1917f57",
      "gasUsed": "0xbd55",
      "effectiveGasPrice": "0x7d8bf7f",
      "from": "0xe62ab4d111f968660c6b2188046f9b9ba53c4bae",
      "to": "0x050e942b8ebb0e174a847f343d04efdc669dff63",
      "contractAddress": null,
      "l1BaseFeeScalar": "0x44d",
      "l1BlobBaseFee": "0x1",
      "l1BlobBaseFeeScalar": "0xa118b",
      "l1Fee": "0x6f",
      "l1GasPrice": "0x1a",
      "l1GasUsed": "0x640"
    },
    {
      "status": "0x1",
      "cumulativeGasUsed": "0xa019de",
      "logs": [],
      "logsBloom": "0x00000000000000000000000000000000000000000000000000000000000000000000000000000000000000000000000000000000000000000000000000000000000000000000000000000000000000000000000000000000000000000000000000000000000000000000000000000000000000000000000000000000000000000000000000000000000000000000000000000000000000000000000000000000000000000000000000000000000000000000000000000000000000000000000000000000000000000000000000000000000000000000000000000000000000000000000000000000000000000000000000000000000000000000000000000000",
      "type": "0x2",
      "transactionHash": "0xca183293445ef9f62ccd9939818517a2f93c050692ecbe28c36f96c1d764a2a0",
      "transactionIndex": "0x92",
      "blockHash": "0x56896615a83daa71bf9bdee6a6dde80b3b9869bbd1429d247bc46a6b895356d3",
      "blockNumber": "0x1917f59",
      "gasUsed": "0xbd6c",
      "effectiveGasPrice": "0x7d178c0",
      "from": "0xe62ab4d111f968660c6b2188046f9b9ba53c4bae",
      "to": "0x050e942b8ebb0e174a847f343d04efdc669dff63",
      "contractAddress": null,
      "l1BaseFeeScalar": "0x44d",
      "l1BlobBaseFee": "0x1",
      "l1BlobBaseFeeScalar": "0xa118b",
      "l1Fee": "0x6f",
      "l1GasPrice": "0x1a",
      "l1GasUsed": "0x640"
    },
    {
      "status": "0x1",
      "cumulativeGasUsed": "0xd5f1eb",
      "logs": [],
      "logsBloom": "0x00000000000000000000000000000000000000000000000000000000000000000000000000000000000000000000000000000000000000000000000000000000000000000000000000000000000000000000000000000000000000000000000000000000000000000000000000000000000000000000000000000000000000000000000000000000000000000000000000000000000000000000000000000000000000000000000000000000000000000000000000000000000000000000000000000000000000000000000000000000000000000000000000000000000000000000000000000000000000000000000000000000000000000000000000000000",
      "type": "0x2",
      "transactionHash": "0x3a54dde565b75841965f1de6613100637de358f80c61ce4316afa4454b36f9cd",
      "transactionIndex": "0x107",
      "blockHash": "0xc62bafc607070c2902627cff8f62b270db505220a02601645f3d13f8722bd38a",
      "blockNumber": "0x1917f5b",
      "gasUsed": "0xbd83",
      "effectiveGasPrice": "0x7d0eaeb",
      "from": "0xe62ab4d111f968660c6b2188046f9b9ba53c4bae",
      "to": "0x050e942b8ebb0e174a847f343d04efdc669dff63",
      "contractAddress": null,
      "l1BaseFeeScalar": "0x44d",
      "l1BlobBaseFee": "0x1",
      "l1BlobBaseFeeScalar": "0xa118b",
      "l1Fee": "0x6f",
      "l1GasPrice": "0x1a",
      "l1GasUsed": "0x640"
    },
    {
      "status": "0x1",
      "cumulativeGasUsed": "0x28bfec",
      "logs": [],
      "logsBloom": "0x00000000000000000000000000000000000000000000000000000000000000000000000000000000000000000000000000000000000000000000000000000000000000000000000000000000000000000000000000000000000000000000000000000000000000000000000000000000000000000000000000000000000000000000000000000000000000000000000000000000000000000000000000000000000000000000000000000000000000000000000000000000000000000000000000000000000000000000000000000000000000000000000000000000000000000000000000000000000000000000000000000000000000000000000000000000",
      "type": "0x2",
      "transactionHash": "0x8f1c491ecb258ad2e9429f225ee92a12e80d5d5e602bdcd1271d67ad9c230935",
      "transactionIndex": "0x2e",
      "blockHash": "0xb6276cec2fca96a1b83f87ea6afaddbfbc4ae059883c16500fc885df487664b9",
      "blockNumber": "0x1917f5d",
      "gasUsed": "0xbd9a",
      "effectiveGasPrice": "0x7c95c2f",
      "from": "0xe62ab4d111f968660c6b2188046f9b9ba53c4bae",
      "to": "0x050e942b8ebb0e174a847f343d04efdc669dff63",
      "contractAddress": null,
      "l1BaseFeeScalar": "0x44d",
      "l1BlobBaseFee": "0x1",
      "l1BlobBaseFeeScalar": "0xa118b",
      "l1Fee": "0x6f",
      "l1GasPrice": "0x1a",
      "l1GasUsed": "0x640"
    },
    {
      "status": "0x1",
      "cumulativeGasUsed": "0x55577",
      "logs": [],
      "logsBloom": "0x00000000000000000000000000000000000000000000000000000000000000000000000000000000000000000000000000000000000000000000000000000000000000000000000000000000000000000000000000000000000000000000000000000000000000000000000000000000000000000000000000000000000000000000000000000000000000000000000000000000000000000000000000000000000000000000000000000000000000000000000000000000000000000000000000000000000000000000000000000000000000000000000000000000000000000000000000000000000000000000000000000000000000000000000000000000",
      "type": "0x2",
      "transactionHash": "0x4e257a8252f76613cbdbe0edfce3402a1724411bcb7458789035086e20bd7f05",
      "transactionIndex": "0x7",
      "blockHash": "0x10009936f74679a66bb37899300b34e2e060ded38cce3fa2fc213c95be3e7a98",
      "blockNumber": "0x1917f5f",
      "gasUsed": "0xbdb1",
      "effectiveGasPrice": "0x7cd325c",
      "from": "0xe62ab4d111f968660c6b2188046f9b9ba53c4bae",
      "to": "0x050e942b8ebb0e174a847f343d04efdc669dff63",
      "contractAddress": null,
      "l1BaseFeeScalar": "0x44d",
      "l1BlobBaseFee": "0x1",
      "l1BlobBaseFeeScalar": "0xa118b",
      "l1Fee": "0x6f",
      "l1GasPrice": "0x1a",
      "l1GasUsed": "0x640"
    },
    {
      "status": "0x1",
      "cumulativeGasUsed": "0x4a244b",
      "logs": [],
      "logsBloom": "0x00000000000000000000000000000000000000000000000000000000000000000000000000000000000000000000000000000000000000000000000000000000000000000000000000000000000000000000000000000000000000000000000000000000000000000000000000000000000000000000000000000000000000000000000000000000000000000000000000000000000000000000000000000000000000000000000000000000000000000000000000000000000000000000000000000000000000000000000000000000000000000000000000000000000000000000000000000000000000000000000000000000000000000000000000000000",
      "type": "0x2",
      "transactionHash": "0x67ffa6534e61fd04fbb4451ecea29be7a06ed31d170e19d41a830f0ca2ed4483",
      "transactionIndex": "0x4f",
      "blockHash": "0xa12e814bbf86b99889568dc142e27e4eacd03105d67f9a9218d89196ead0ce2a",
      "blockNumber": "0x1917f60",
      "gasUsed": "0xbdc8",
      "effectiveGasPrice": "0x7db5a2f",
      "from": "0xe62ab4d111f968660c6b2188046f9b9ba53c4bae",
      "to": "0x050e942b8ebb0e174a847f343d04efdc669dff63",
      "contractAddress": null,
      "l1BaseFeeScalar": "0x44d",
      "l1BlobBaseFee": "0x1",
      "l1BlobBaseFeeScalar": "0xa118b",
      "l1Fee": "0x6f",
      "l1GasPrice": "0x1a",
      "l1GasUsed": "0x640"
    },
    {
      "status": "0x1",
      "cumulativeGasUsed": "0x5405ae",
      "logs": [],
      "logsBloom": "0x00000000000000000000000000000000000000000000000000000000000000000000000000000000000000000000000000000000000000000000000000000000000000000000000000000000000000000000000000000000000000000000000000000000000000000000000000000000000000000000000000000000000000000000000000000000000000000000000000000000000000000000000000000000000000000000000000000000000000000000000000000000000000000000000000000000000000000000000000000000000000000000000000000000000000000000000000000000000000000000000000000000000000000000000000000000",
      "type": "0x2",
      "transactionHash": "0x6a6d28d947d7e90bd2050f405e7d445e71ee2f7f868c327a64e944e173388085",
      "transactionIndex": "0x50",
      "blockHash": "0xce696659ae1dad6a69139b29cdf7a6c36cd7fd6143da7f056e5f4da09f29c00e",
      "blockNumber": "0x1917f62",
      "gasUsed": "0xbddf",
      "effectiveGasPrice": "0x7dbcb0b",
      "from": "0xe62ab4d111f968660c6b2188046f9b9ba53c4bae",
      "to": "0x050e942b8ebb0e174a847f343d04efdc669dff63",
      "contractAddress": null,
      "l1BaseFeeScalar": "0x44d",
      "l1BlobBaseFee": "0x1",
      "l1BlobBaseFeeScalar": "0xa118b",
      "l1Fee": "0x75",
      "l1GasPrice": "0x1d",
      "l1GasUsed": "0x640"
    },
    {
      "status": "0x1",
      "cumulativeGasUsed": "0x813cf7",
      "logs": [],
      "logsBloom": "0x00000000000000000000000000000000000000000000000000000000000000000000000000000000000000000000000000000000000000000000000000000000000000000000000000000000000000000000000000000000000000000000000000000000000000000000000000000000000000000000000000000000000000000000000000000000000000000000000000000000000000000000000000000000000000000000000000000000000000000000000000000000000000000000000000000000000000000000000000000000000000000000000000000000000000000000000000000000000000000000000000000000000000000000000000000000",
      "type": "0x2",
      "transactionHash": "0xa0cda6e29cc5c601128c57ec0452f3cc392224d4d1627eb285e0675ddfe85907",
      "transactionIndex": "0x91",
      "blockHash": "0x2805a177b80c03aa4b5908b105d160d1a8ee211c94a93cd4f8b41c53cc109472",
      "blockNumber": "0x1917f64",
      "gasUsed": "0xbdf6",
      "effectiveGasPrice": "0x7cf3cb2",
      "from": "0xe62ab4d111f968660c6b2188046f9b9ba53c4bae",
      "to": "0x050e942b8ebb0e174a847f343d04efdc669dff63",
      "contractAddress": null,
      "l1BaseFeeScalar": "0x44d",
      "l1BlobBaseFee": "0x1",
      "l1BlobBaseFeeScalar": "0xa118b",
      "l1Fee": "0x75",
      "l1GasPrice": "0x1d",
      "l1GasUsed": "0x640"
    },
    {
      "status": "0x1",
      "cumulativeGasUsed": "0x74877c",
      "logs": [],
      "logsBloom": "0x00000000000000000000000000000000000000000000000000000000000000000000000000000000000000000000000000000000000000000000000000000000000000000000000000000000000000000000000000000000000000000000000000000000000000000000000000000000000000000000000000000000000000000000000000000000000000000000000000000000000000000000000000000000000000000000000000000000000000000000000000000000000000000000000000000000000000000000000000000000000000000000000000000000000000000000000000000000000000000000000000000000000000000000000000000000",
      "type": "0x2",
      "transactionHash": "0xf4dafecba16c77be8f08dbfa20053847a35dfb4043a8e1ab7883b4b1b1d885bf",
      "transactionIndex": "0x64",
      "blockHash": "0xd44f1a02ed0997963b1553fd42232b22f526d0b50050809e084fe405c136c1de",
      "blockNumber": "0x1917f66",
      "gasUsed": "0x2206a",
      "effectiveGasPrice": "0x7cb587a",
      "from": "0xe62ab4d111f968660c6b2188046f9b9ba53c4bae",
      "to": "0x050e942b8ebb0e174a847f343d04efdc669dff63",
      "contractAddress": null,
      "l1BaseFeeScalar": "0x44d",
      "l1BlobBaseFee": "0x1",
      "l1BlobBaseFeeScalar": "0xa118b",
      "l1Fee": "0xae",
      "l1GasPrice": "0x1d",
      "l1GasUsed": "0x94f"
    },
    {
      "status": "0x1",
      "cumulativeGasUsed": "0x33a929",
      "logs": [],
      "logsBloom": "0x00000000000000000000000000000000000000000000000000000000000000000000000000000000000000000000000000000000000000000000000000000000000000000000000000000000000000000000000000000000000000000000000000000000000000000000000000000000000000000000000000000000000000000000000000000000000000000000000000000000000000000000000000000000000000000000000000000000000000000000000000000000000000000000000000000000000000000000000000000000000000000000000000000000000000000000000000000000000000000000000000000000000000000000000000000000",
      "type": "0x2",
      "transactionHash": "0x2bc44df0fce859b7e9f5421aca0f7c5e17feef83db9d73590f1daa6e4f69476e",
      "transactionIndex": "0x39",
      "blockHash": "0x4d4fa612d369dcd36e88f0ecdd4325f077c8f483f795a789995578cd40f82f5d",
      "blockNumber": "0x1917f68",
      "gasUsed": "0x1e3f6",
      "effectiveGasPrice": "0x7cd5277",
      "from": "0xe62ab4d111f968660c6b2188046f9b9ba53c4bae",
      "to": "0x050e942b8ebb0e174a847f343d04efdc669dff63",
      "contractAddress": null,
      "l1BaseFeeScalar": "0x44d",
      "l1BlobBaseFee": "0x1",
      "l1BlobBaseFeeScalar": "0xa118b",
      "l1Fee": "0xaa",
      "l1GasPrice": "0x1c",
      "l1GasUsed": "0x942"
    },
    {
      "status": "0x1",
      "cumulativeGasUsed": "0x195cb0",
      "logs": [],
      "logsBloom": "0x00000000000000000000000000000000000000000000000000000000000000000000000000000000000000000000000000000000000000000000000000000000000000000000000000000000000000000000000000000000000000000000000000000000000000000000000000000000000000000000000000000000000000000000000000000000000000000000000000000000000000000000000000000000000000000000000000000000000000000000000000000000000000000000000000000000000000000000000000000000000000000000000000000000000000000000000000000000000000000000000000000000000000000000000000000000",
      "type": "0x2",
      "transactionHash": "0xd52f69ec811198a2697981fa45184f19758d082ae22a0b35441a72c30abed83c",
      "transactionIndex": "0x1e",
      "blockHash": "0x155817c8597d27d5a10e52ef67c2733367b8d31ebea4d64006b58ed4f689e90a",
      "blockNumber": "0x1917f6a",
      "gasUsed": "0x1e3f6",
      "effectiveGasPrice": "0x7d1e7c4",
      "from": "0xe62ab4d111f968660c6b2188046f9b9ba53c4bae",
      "to": "0x050e942b8ebb0e174a847f343d04efdc669dff63",
      "contractAddress": null,
      "l1BaseFeeScalar": "0x44d",
      "l1BlobBaseFee": "0x1",
      "l1BlobBaseFeeScalar": "0xa118b",
      "l1Fee": "0xaa",
      "l1GasPrice": "0x1c",
      "l1GasUsed": "0x942"
    },
    {
      "status": "0x1",
      "cumulativeGasUsed": "0x17bd2a",
      "logs": [],
      "logsBloom": "0x00000000000000000000000000000000000000000000000000000000000000000000000000000000000000000000000000000000000000000000000000000000000000000000000000000000000000000000000000000000000000000000000000000000000000000000000000000000000000000000000000000000000000000000000000000000000000000000000000000000000000000000000000000000000000000000000000000000000000000000000000000000000000000000000000000000000000000000000000000000000000000000000000000000000000000000000000000000000000000000000000000000000000000000000000000000",
      "type": "0x2",
      "transactionHash": "0xbe4a69c18adfee228d95ac7b8c8df7d23a351f133b4632be068021e09981a434",
      "transactionIndex": "0xf",
      "blockHash": "0x8072bb3f3f3ad06892b9174635c1d9dce1cec451089049f3e4f3318db658379b",
      "blockNumber": "0x1917f6c",
      "gasUsed": "0x1e85e",
      "effectiveGasPrice": "0x7dead56",
      "from": "0xe62ab4d111f968660c6b2188046f9b9ba53c4bae",
      "to": "0x050e942b8ebb0e174a847f343d04efdc669dff63",
      "contractAddress": null,
      "l1BaseFeeScalar": "0x44d",
      "l1BlobBaseFee": "0x1",
      "l1BlobBaseFeeScalar": "0xa118b",
      "l1Fee": "0xac",
      "l1GasPrice": "0x1c",
      "l1GasUsed": "0x95c"
    },
    {
      "status": "0x1",
      "cumulativeGasUsed": "0x11c39ec",
      "logs": [],
      "logsBloom": "0x00000000000000000000000000000000000000000000000000000000000000000000000000000000000000000000000000000000000000000000000000000000000000000000000000000000000000000000000000000000000000000000000000000000000000000000000000000000000000000000000000000000000000000000000000000000000000000000000000000000000000000000000000000000000000000000000000000000000000000000000000000000000000000000000000000000000000000000000000000000000000000000000000000000000000000000000000000000000000000000000000000000000000000000000000000000",
      "type": "0x2",
      "transactionHash": "0x31269aa0a1e05fa1063a26fa59e704ee7b3a4c734d9fc45167a062e60fce254c",
      "transactionIndex": "0x139",
      "blockHash": "0x2e1f6380c84468a47171c661ac2d6f6aff8099850e3a095503bd1c97d6106826",
      "blockNumber": "0x1917f6d",
      "gasUsed": "0x1df8e",
      "effectiveGasPrice": "0x7d473c3",
      "from": "0xe62ab4d111f968660c6b2188046f9b9ba53c4bae",
      "to": "0x050e942b8ebb0e174a847f343d04efdc669dff63",
      "contractAddress": null,
      "l1BaseFeeScalar": "0x44d",
      "l1BlobBaseFee": "0x1",
      "l1BlobBaseFeeScalar": "0xa118b",
      "l1Fee": "0xad",
      "l1GasPrice": "0x1e",
      "l1GasUsed": "0x91a"
    },
    {
      "status": "0x1",
      "cumulativeGasUsed": "0x9274ba",
      "logs": [],
      "logsBloom": "0x00000000000000000000000000000000000000000000000000000000000000000000000000000000000000000000000000000000000000000000000000000000000000000000000000000000000000000000000000000000000000000000000000000000000000000000000000000000000000000000000000000000000000000000000000000000000000000000000000000000000000000000000000000000000000000000000000000000000000000000000000000000000000000000000000000000000000000000000000000000000000000000000000000000000000000000000000000000000000000000000000000000000000000000000000000000",
      "type": "0x2",
      "transactionHash": "0x0ab4bd04e7d3812b9d8da6adde8c5115febbf6b9f5d26e4dcea993c72c3f21d7",
      "transactionIndex": "0x9c",
      "blockHash": "0xfbf5b78dc6c1f7c0a4eef9bc05ca66fc8acda08ec1d429b29d258ac61746fa57",
      "blockNumber": "0x1917f6e",
      "gasUsed": "0x1eb4e",
      "effectiveGasPrice": "0x7de17a5",
      "from": "0xe62ab4d111f968660c6b2188046f9b9ba53c4bae",
      "to": "0x050e942b8ebb0e174a847f343d04efdc669dff63",
      "contractAddress": null,
      "l1BaseFeeScalar": "0x44d",
      "l1BlobBaseFee": "0x1",
      "l1BlobBaseFeeScalar": "0xa118b",
      "l1Fee": "0xb5",
      "l1GasPrice": "0x1e",
      "l1GasUsed": "0x985"
    },
    {
      "status": "0x1",
      "cumulativeGasUsed": "0xe9a1d9",
      "logs": [],
      "logsBloom": "0x00000000000000000000000000000000000000000000000000000000000000000000000000000000000000000000000000000000000000000000000000000000000000000000000000000000000000000000000000000000000000000000000000000000000000000000000000000000000000000000000000000000000000000000000000000000000000000000000000000000000000000000000000000000000000000000000000000000000000000000000000000000000000000000000000000000000000000000000000000000000000000000000000000000000000000000000000000000000000000000000000000000000000000000000000000000",
      "type": "0x2",
      "transactionHash": "0x09f71e3cda388c900c37041547a88bc5bbc69990828cc2009070631c2db7df74",
      "transactionIndex": "0x9f",
      "blockHash": "0x1d55a4b5260272bf1faf689a61581e3cc0a927dc98be4d3f13bf6bc596fde4bc",
      "blockNumber": "0x1917f6f",
      "gasUsed": "0x1e27e",
      "effectiveGasPrice": "0x7d5d51f",
      "from": "0xe62ab4d111f968660c6b2188046f9b9ba53c4bae",
      "to": "0x050e942b8ebb0e174a847f343d04efdc669dff63",
      "contractAddress": null,
      "l1BaseFeeScalar": "0x44d",
      "l1BlobBaseFee": "0x1",
      "l1BlobBaseFeeScalar": "0xa118b",
      "l1Fee": "0xaf",
      "l1GasPrice": "0x1e",
      "l1GasUsed": "0x934"
    },
    {
      "status": "0x1",
      "cumulativeGasUsed": "0xbd6d45",
      "logs": [],
      "logsBloom": "0x00000000000000000000000000000000000000000000000000000000000000000000000000000000000000000000000000000000000000000000000000000000000000000000000000000000000000000000000000000000000000000000000000000000000000000000000000000000000000000000000000000000000000000000000000000000000000000000000000000000000000000000000000000000000000000000000000000000000000000000000000000000000000000000000000000000000000000000000000000000000000000000000000000000000000000000000000000000000000000000000000000000000000000000000000000000",
      "type": "0x2",
      "transactionHash": "0x00ef43d3accced4e6c7cd09dfafd8305c55375f90d4180f6609969200fbc4fd1",
      "transactionIndex": "0xb2",
      "blockHash": "0x0bd6bbd1c023c003cff661eecdbdba1fa9bf7fa77ab265507ef215bc11cb9858",
      "blockNumber": "0x1917f70",
      "gasUsed": "0x1e27e",
      "effectiveGasPrice": "0x7db719a",
      "from": "0xe62ab4d111f968660c6b2188046f9b9ba53c4bae",
      "to": "0x050e942b8ebb0e174a847f343d04efdc669dff63",
      "contractAddress": null,
      "l1BaseFeeScalar": "0x44d",
      "l1BlobBaseFee": "0x1",
      "l1BlobBaseFeeScalar": "0xa118b",
      "l1Fee": "0xaf",
      "l1GasPrice": "0x1e",
      "l1GasUsed": "0x934"
    },
    {
      "status": "0x1",
      "cumulativeGasUsed": "0xcae0e2",
      "logs": [],
      "logsBloom": "0x00000000000000000000000000000000000000000000000000000000000000000000000000000000000000000000000000000000000000000000000000000000000000000000000000000000000000000000000000000000000000000000000000000000000000000000000000000000000000000000000000000000000000000000000000000000000000000000000000000000000000000000000000000000000000000000000000000000000000000000000000000000000000000000000000000000000000000000000000000000000000000000000000000000000000000000000000000000000000000000000000000000000000000000000000000000",
      "type": "0x2",
      "transactionHash": "0x618306d2f65b58bf3322a4ef72ae860b8a6e1d9e327797e6921c4270418d4ee9",
      "transactionIndex": "0xd2",
      "blockHash": "0xf0c3c94eb85b6480c32561a634139a671206053174ac009d0f628972e38d765a",
      "blockNumber": "0x1917f71",
      "gasUsed": "0x1e56e",
      "effectiveGasPrice": "0x7dfd5ca",
      "from": "0xe62ab4d111f968660c6b2188046f9b9ba53c4bae",
      "to": "0x050e942b8ebb0e174a847f343d04efdc669dff63",
      "contractAddress": null,
      "l1BaseFeeScalar": "0x44d",
      "l1BlobBaseFee": "0x1",
      "l1BlobBaseFeeScalar": "0xa118b",
      "l1Fee": "0xb1",
      "l1GasPrice": "0x1e",
      "l1GasUsed": "0x94f"
    },
    {
      "status": "0x1",
      "cumulativeGasUsed": "0xcabb5b",
      "logs": [],
      "logsBloom": "0x00000000000000000000000000000000000000000000000000000000000000000000000000000000000000000000000000000000000000000000000000000000000000000000000000000000000000000000000000000000000000000000000000000000000000000000000000000000000000000000000000000000000000000000000000000000000000000000000000000000000000000000000000000000000000000000000000000000000000000000000000000000000000000000000000000000000000000000000000000000000000000000000000000000000000000000000000000000000000000000000000000000000000000000000000000000",
      "type": "0x2",
      "transactionHash": "0x128ecadc5d8046621273cc038e59451eaf63f0daea50097862aca3ef4ba64553",
      "transactionIndex": "0xdb",
      "blockHash": "0x4623546ee99fec9e48a38178e875d99e3341cafbda0a23e4e2d55a2ef53dfbc7",
      "blockNumber": "0x1917f72",
      "gasUsed": "0x1e3f6",
      "effectiveGasPrice": "0x7e0e770",
      "from": "0xe62ab4d111f968660c6b2188046f9b9ba53c4bae",
      "to": "0x050e942b8ebb0e174a847f343d04efdc669dff63",
      "contractAddress": null,
      "l1BaseFeeScalar": "0x44d",
      "l1BlobBaseFee": "0x1",
      "l1BlobBaseFeeScalar": "0xa118b",
      "l1Fee": "0xb0",
      "l1GasPrice": "0x1e",
      "l1GasUsed": "0x942"
    },
    {
      "status": "0x1",
      "cumulativeGasUsed": "0xff4a49",
      "logs": [],
      "logsBloom": "0x00000000000000000000000000000000000000000000000000000000000000000000000000000000000000000000000000000000000000000000000000000000000000000000000000000000000000000000000000000000000000000000000000000000000000000000000000000000000000000000000000000000000000000000000000000000000000000000000000000000000000000000000000000000000000000000000000000000000000000000000000000000000000000000000000000000000000000000000000000000000000000000000000000000000000000000000000000000000000000000000000000000000000000000000000000000",
      "type": "0x2",
      "transactionHash": "0x472fe3ef4c2c175ef10817127beae543419dd01aab6302636c4f74ca47e263bc",
      "transactionIndex": "0x118",
      "blockHash": "0x75b3c48a94fffa5f7a135362525a384acf8a778a7a1c1160ed66c08a26ee104c",
      "blockNumber": "0x1917f73",
      "gasUsed": "0x1e27e",
      "effectiveGasPrice": "0x7dc9225",
      "from": "0xe62ab4d111f968660c6b2188046f9b9ba53c4bae",
      "to": "0x050e942b8ebb0e174a847f343d04efdc669dff63",
      "contractAddress": null,
      "l1BaseFeeScalar": "0x44d",
      "l1BlobBaseFee": "0x1",
      "l1BlobBaseFeeScalar": "0xa118b",
      "l1Fee": "0xac",
      "l1GasPrice": "0x1d",
      "l1GasUsed": "0x934"
    },
    {
      "status": "0x1",
      "cumulativeGasUsed": "0xb4207d",
      "logs": [],
      "logsBloom": "0x00000000000000000000000000000000000000000000000000000000000000000000000000000000000000000000000000000000000000000000000000000000000000000000000000000000000000000000000000000000000000000000000000000000000000000000000000000000000000000000000000000000000000000000000000000000000000000000000000000000000000000000000000000000000000000000000000000000000000000000000000000000000000000000000000000000000000000000000000000000000000000000000000000000000000000000000000000000000000000000000000000000000000000000000000000000",
      "type": "0x2",
      "transactionHash": "0xf6f8fc2536568137a5a239bda0353f0f13189fb32ac3de0593cdcf618feeb707",
      "transactionIndex": "0xea",
      "blockHash": "0x45d7487c736ea5b76d2592661e287288c1c16e3647d69ae5f3ff34e3db5b4f2e",
      "blockNumber": "0x1917f74",
      "gasUsed": "0x1e9d6",
      "effectiveGasPrice": "0x7e1f043",
      "from": "0xe62ab4d111f968660c6b2188046f9b9ba53c4bae",
      "to": "0x050e942b8ebb0e174a847f343d04efdc669dff63",
      "contractAddress": null,
      "l1BaseFeeScalar": "0x44d",
      "l1BlobBaseFee": "0x1",
      "l1BlobBaseFeeScalar": "0xa118b",
      "l1Fee": "0xb1",
      "l1GasPrice": "0x1d",
      "l1GasUsed": "0x977"
    },
    {
      "status": "0x1",
      "cumulativeGasUsed": "0x4b95c",
      "logs": [],
      "logsBloom": "0x00000000000000000000000000000000000000000000000000000000000000000000000000000000000000000000000000000000000000000000000000000000000000000000000000000000000000000000000000000000000000000000000000000000000000000000000000000000000000000000000000000000000000000000000000000000000000000000000000000000000000000000000000000000000000000000000000000000000000000000000000000000000000000000000000000000000000000000000000000000000000000000000000000000000000000000000000000000000000000000000000000000000000000000000000000000",
      "type": "0x2",
      "transactionHash": "0x69be2b90d1f1c0ef0055e88ae41a0c56e0ab5e7b6cfc487a1372389853737899",
      "transactionIndex": "0x4",
      "blockHash": "0x9d1862c23bf5a72a4bde7969f937f4b16ebfefb12bd1be8451bdb714de4eb59c",
      "blockNumber": "0x1917f76",
      "gasUsed": "0x1e106",
      "effectiveGasPrice": "0x7d90a50",
      "from": "0xe62ab4d111f968660c6b2188046f9b9ba53c4bae",
      "to": "0x050e942b8ebb0e174a847f343d04efdc669dff63",
      "contractAddress": null,
      "l1BaseFeeScalar": "0x44d",
      "l1BlobBaseFee": "0x1",
      "l1BlobBaseFeeScalar": "0xa118b",
      "l1Fee": "0xa9",
      "l1GasPrice": "0x1d",
      "l1GasUsed": "0x90c"
    },
    {
      "status": "0x1",
      "cumulativeGasUsed": "0x10c959",
      "logs": [],
      "logsBloom": "0x00000000000000000000000000000000000000000000000000000000000000000000000000000000000000000000000000000000000000000000000000000000000000000000000000000000000000000000000000000000000000000000000000000000000000000000000000000000000000000000000000000000000000000000000000000000000000000000000000000000000000000000000000000000000000000000000000000000000000000000000000000000000000000000000000000000000000000000000000000000000000000000000000000000000000000000000000000000000000000000000000000000000000000000000000000000",
      "type": "0x2",
      "transactionHash": "0x04c37650e75239aa201a56e02827d533943e58cf346a6c8c2b9aa91115720842",
      "transactionIndex": "0x11",
      "blockHash": "0x862d4798dfdac37c7cdb20733753a5568dc207f4f3b13d699de75c10da950103",
      "blockNumber": "0x1917f78",
      "gasUsed": "0x1e85e",
      "effectiveGasPrice": "0x7d9a9ef",
      "from": "0xe62ab4d111f968660c6b2188046f9b9ba53c4bae",
      "to": "0x050e942b8ebb0e174a847f343d04efdc669dff63",
      "contractAddress": null,
      "l1BaseFeeScalar": "0x44d",
      "l1BlobBaseFee": "0x1",
      "l1BlobBaseFeeScalar": "0xa118b",
      "l1Fee": "0xb0",
      "l1GasPrice": "0x1d",
      "l1GasUsed": "0x96a"
    },
    {
      "status": "0x1",
      "cumulativeGasUsed": "0xb0a723",
      "logs": [],
      "logsBloom": "0x00000000000000000000000000000000000000000000000000000000000000000000000000000000000000000000000000000000000000000000000000000000000000000000000000000000000000000000000000000000000000000000000000000000000000000000000000000000000000000000000000000000000000000000000000000000000000000000000000000000000000000000000000000000000000000000000000000000000000000000000000000000000000000000000000000000000000000000000000000000000000000000000000000000000000000000000000000000000000000000000000000000000000000000000000000000",
      "type": "0x2",
      "transactionHash": "0x01e556db8b412e16f9041de96f91e142c6478c8f0a6112a2e619550bd474a789",
      "transactionIndex": "0xcc",
      "blockHash": "0xe454cb3ae239e18632280a0668abd732d7931d0bae7e0729c2d0b5cbbeecd5d8",
      "blockNumber": "0x1917f79",
      "gasUsed": "0x1e3f6",
      "effectiveGasPrice": "0x7daa8df",
      "from": "0xe62ab4d111f968660c6b2188046f9b9ba53c4bae",
      "to": "0x050e942b8ebb0e174a847f343d04efdc669dff63",
      "contractAddress": null,
      "l1BaseFeeScalar": "0x44d",
      "l1BlobBaseFee": "0x1",
      "l1BlobBaseFeeScalar": "0xa118b",
      "l1Fee": "0xb0",
      "l1GasPrice": "0x1e",
      "l1GasUsed": "0x942"
    },
    {
      "status": "0x1",
      "cumulativeGasUsed": "0x5b12d9",
      "logs": [],
      "logsBloom": "0x00000000000000000000000000000000000000000000000000000000000000000000000000000000000000000000000000000000000000000000000000000000000000000000000000000000000000000000000000000000000000000000000000000000000000000000000000000000000000000000000000000000000000000000000000000000000000000000000000000000000000000000000000000000000000000000000000000000000000000000000000000000000000000000000000000000000000000000000000000000000000000000000000000000000000000000000000000000000000000000000000000000000000000000000000000000",
      "type": "0x2",
      "transactionHash": "0x01772b1c16983c961ea652dc81827d95736b50b4d4a210131c904e725aaa2302",
      "transactionIndex": "0x57",
      "blockHash": "0xfe783ce0dc2a1c6c020279a369d2c7222020e065fbc28a5f243dfc5badeab896",
      "blockNumber": "0x1917f7b",
      "gasUsed": "0x1b42d7",
      "effectiveGasPrice": "0x7d28e3f",
      "from": "0xe62ab4d111f968660c6b2188046f9b9ba53c4bae",
      "to": "0x31f21c6e2605d28e6b204cd323ff58421fc8dd00",
      "contractAddress": null,
      "l1BaseFeeScalar": "0x44d",
      "l1BlobBaseFee": "0x1",
      "l1BlobBaseFeeScalar": "0xa118b",
      "l1Fee": "0x410",
      "l1GasPrice": "0x1e",
      "l1GasUsed": "0x36be"
    },
    {
      "status": "0x1",
      "cumulativeGasUsed": "0x707f75",
      "logs": [],
      "logsBloom": "0x00000000000000000000000000000000000000000000000000000000000000000000000000000000000000000000000000000000000000000000000000000000000000000000000000000000000000000000000000000000000000000000000000000000000000000000000000000000000000000000000000000000000000000000000000000000000000000000000000000000000000000000000000000000000000000000000000000000000000000000000000000000000000000000000000000000000000000000000000000000000000000000000000000000000000000000000000000000000000000000000000000000000000000000000000000000",
      "type": "0x2",
      "transactionHash": "0xbd51746244450c10005c69727ea0654484b797b9df3ae896919cb5a2eec24cab",
      "transactionIndex": "0x49",
      "blockHash": "0x0b91b416bde24dd912757be0a21b4fb76adb48dff125f9047b5d817c35dbbed3",
      "blockNumber": "0x1917f7d",
      "gasUsed": "0x234648",
      "effectiveGasPrice": "0x7dfca0c",
      "from": "0xe62ab4d111f968660c6b2188046f9b9ba53c4bae",
      "to": "0x31f21c6e2605d28e6b204cd323ff58421fc8dd00",
      "contractAddress": null,
      "l1BaseFeeScalar": "0x44d",
      "l1BlobBaseFee": "0x1",
      "l1BlobBaseFeeScalar": "0xa118b",
      "l1Fee": "0x451",
      "l1GasPrice": "0x1e",
      "l1GasUsed": "0x3a24"
    },
    {
      "status": "0x1",
      "cumulativeGasUsed": "0x109cf10",
      "logs": [],
      "logsBloom": "0x00000000000000000000000000000000000000000000000000000000000000000000000000000000000000000000000000000000000000000000000000000000000000000000000000000000000000000000000000000000000000000000000000000000000000000000000000000000000000000000000000000000000000000000000000000000000000000000000000000000000000000000000000000000000000000000000000000000000000000000000000000000000000000000000000000000000000000000000000000000000000000000000000000000000000000000000000000000000000000000000000000000000000000000000000000000",
      "type": "0x2",
      "transactionHash": "0x71ae7793c3d7865b7c9f4ce33297769ad8b8907c19b7d78fd20b36dac78c64c9",
      "transactionIndex": "0x143",
      "blockHash": "0x62810d2872759c95cff6730d67e5927e7555934d195ed4333b739de70120e8f9",
      "blockNumber": "0x1917f7f",
      "gasUsed": "0x1dab03",
      "effectiveGasPrice": "0x7d5de1f",
      "from": "0xe62ab4d111f968660c6b2188046f9b9ba53c4bae",
      "to": "0x31f21c6e2605d28e6b204cd323ff58421fc8dd00",
      "contractAddress": null,
      "l1BaseFeeScalar": "0x44d",
      "l1BlobBaseFee": "0x1",
      "l1BlobBaseFeeScalar": "0xa118b",
      "l1Fee": "0x442",
      "l1GasPrice": "0x1d",
      "l1GasUsed": "0x3a31"
    },
    {
      "status": "0x1",
      "cumulativeGasUsed": "0xb84efe",
      "logs": [],
      "logsBloom": "0x00000000000000000000000000000000000000000000000000000000000000000000000000000000000000000000000000000000000000000000000000000000000000000000000000000000000000000000000000000000000000000000000000000000000000000000000000000000000000000000000000000000000000000000000000000000000000000000000000000000000000000000000000000000000000000000000000000000000000000000000000000000000000000000000000000000000000000000000000000000000000000000000000000000000000000000000000000000000000000000000000000000000000000000000000000000",
      "type": "0x2",
      "transactionHash": "0x6c2396cb041ea07fa8416a5c7dd701dfdae79c4f66dc5cc974952cd456787541",
      "transactionIndex": "0x6e",
      "blockHash": "0x2791d600f9e56edb5b730e641da35ea45d9ee7723bf07982d148215717dae917",
      "blockNumber": "0x1917f81",
      "gasUsed": "0x1db435",
      "effectiveGasPrice": "0x7e0dc30",
      "from": "0xe62ab4d111f968660c6b2188046f9b9ba53c4bae",
      "to": "0x31f21c6e2605d28e6b204cd323ff58421fc8dd00",
      "contractAddress": null,
      "l1BaseFeeScalar": "0x44d",
      "l1BlobBaseFee": "0x1",
      "l1BlobBaseFeeScalar": "0xa118b",
      "l1Fee": "0x43b",
      "l1GasPrice": "0x1d",
      "l1GasUsed": "0x39d3"
    }
  ],
  "libraries": [],
  "pending": [],
  "returns": {},
  "timestamp": 1748393444,
  "chain": 84532,
  "commit": "2bab1f2d"
}