{
  "transactions": [
    {
      "hash": "0x1b806a6e3ff48eb20a7d12c7ea9e0ed5e539f027d5eec0c578f2ae1024cc4857",
      "transactionType": "CALL",
      "contractName": null,
      "contractAddress": "0x58b610a359c870e0fc941139821a51f5aa23f14e",
      "function": "addTxSender(address)",
      "arguments": [
        "0x5d0725Add79feD3f0E61851b3C4704148Ef9c7eA"
      ],
      "transaction": {
        "from": "0xc3ca11bd8e131471904dced927b3fb7edb453179",
        "to": "0x58b610a359c870e0fc941139821a51f5aa23f14e",
        "gas": "0x12a32",
        "value": "0x0",
        "input": "0xeebd14af0000000000000000000000005d0725add79fed3f0e61851b3c4704148ef9c7ea",
        "nonce": "0xbe",
        "chainId": "0xaa36a7"
      },
      "additionalContracts": [],
      "isFixedGasLimit": false
    },
    {
      "hash": "0x50c81046e7ef37f6c5f020b1667d9a10e408c38261b99f687bf0d6e217524948",
      "transactionType": "CALL",
      "contractName": null,
      "contractAddress": "0x2f925d6512b2bbb00f5a36d8b18e01fcf35f7dc7",
      "function": "addTxSender(address)",
      "arguments": [
        "0x5d0725Add79feD3f0E61851b3C4704148Ef9c7eA"
      ],
      "transaction": {
        "from": "0xc3ca11bd8e131471904dced927b3fb7edb453179",
        "to": "0x2f925d6512b2bbb00f5a36d8b18e01fcf35f7dc7",
        "gas": "0x12a13",
        "value": "0x0",
        "input": "0xeebd14af0000000000000000000000005d0725add79fed3f0e61851b3c4704148ef9c7ea",
        "nonce": "0xbf",
        "chainId": "0xaa36a7"
      },
      "additionalContracts": [],
      "isFixedGasLimit": false
    },
    {
      "hash": "0x07ac46d40631ca5263f25589ef1dcc20b8d8170b2bb949d9ee175424bcbb68b6",
      "transactionType": "CALL",
      "contractName": null,
      "contractAddress": "0x9c9e9fad264089339aad66ff3e32d2ba1ddf6951",
      "function": "addTxSender(address)",
      "arguments": [
        "0x5d0725Add79feD3f0E61851b3C4704148Ef9c7eA"
      ],
      "transaction": {
        "from": "0xc3ca11bd8e131471904dced927b3fb7edb453179",
        "to": "0x9c9e9fad264089339aad66ff3e32d2ba1ddf6951",
        "gas": "0x12b07",
        "value": "0x0",
        "input": "0xeebd14af0000000000000000000000005d0725add79fed3f0e61851b3c4704148ef9c7ea",
        "nonce": "0xc0",
        "chainId": "0xaa36a7"
      },
      "additionalContracts": [],
      "isFixedGasLimit": false
    },
    {
      "hash": "0x82c4f27597fb9f389b89003274e505ce483dd46a10d3e4fc2646bc40c6a71f5e",
      "transactionType": "CALL",
      "contractName": null,
      "contractAddress": "0xe912f7c7a59470a6e3f178388106e3caa9e6fbd1",
      "function": "addTxSender(address)",
      "arguments": [
        "0x5d0725Add79feD3f0E61851b3C4704148Ef9c7eA"
      ],
      "transaction": {
        "from": "0xc3ca11bd8e131471904dced927b3fb7edb453179",
        "to": "0xe912f7c7a59470a6e3f178388106e3caa9e6fbd1",
        "gas": "0x12a8d",
        "value": "0x0",
        "input": "0xeebd14af0000000000000000000000005d0725add79fed3f0e61851b3c4704148ef9c7ea",
        "nonce": "0xc1",
        "chainId": "0xaa36a7"
      },
      "additionalContracts": [],
      "isFixedGasLimit": false
    },
    {
      "hash": "0x140407b3e97317afc25e33096187653ab86d508bea1c564652d5148246432a42",
      "transactionType": "CALL",
      "contractName": null,
      "contractAddress": "0x92228b058f25bc4fb333fa296dddecbddf6496f3",
      "function": "addTxSender(address)",
      "arguments": [
        "0x5d0725Add79feD3f0E61851b3C4704148Ef9c7eA"
      ],
      "transaction": {
        "from": "0xc3ca11bd8e131471904dced927b3fb7edb453179",
        "to": "0x92228b058f25bc4fb333fa296dddecbddf6496f3",
        "gas": "0x12940",
        "value": "0x0",
        "input": "0xeebd14af0000000000000000000000005d0725add79fed3f0e61851b3c4704148ef9c7ea",
        "nonce": "0xc2",
        "chainId": "0xaa36a7"
      },
      "additionalContracts": [],
      "isFixedGasLimit": false
    },
    {
      "hash": "0x8cf5b70bef44fcfb9af7f922e102859cd5152e6d5a3251360cff9c7734dd9dc3",
      "transactionType": "CALL",
      "contractName": null,
      "contractAddress": "0x2af842c6517cf30fb3456aef485230e0dd085845",
      "function": "addTxSender(address)",
      "arguments": [
        "0x5d0725Add79feD3f0E61851b3C4704148Ef9c7eA"
      ],
      "transaction": {
        "from": "0xc3ca11bd8e131471904dced927b3fb7edb453179",
        "to": "0x2af842c6517cf30fb3456aef485230e0dd085845",
        "gas": "0x12a14",
        "value": "0x0",
        "input": "0xeebd14af0000000000000000000000005d0725add79fed3f0e61851b3c4704148ef9c7ea",
        "nonce": "0xc3",
        "chainId": "0xaa36a7"
      },
      "additionalContracts": [],
      "isFixedGasLimit": false
    },
    {
      "hash": "0xefe26416fa5fbb1bcfa2068724af1b26e4e9525f346246ff260f1b5e15a378c4",
      "transactionType": "CALL",
      "contractName": null,
      "contractAddress": "0x2026027054f5bebceb650abd62dc623e327658e7",
      "function": "addTxSender(address)",
      "arguments": [
        "0x5d0725Add79feD3f0E61851b3C4704148Ef9c7eA"
      ],
      "transaction": {
        "from": "0xc3ca11bd8e131471904dced927b3fb7edb453179",
        "to": "0x2026027054f5bebceb650abd62dc623e327658e7",
        "gas": "0x1294d",
        "value": "0x0",
        "input": "0xeebd14af0000000000000000000000005d0725add79fed3f0e61851b3c4704148ef9c7ea",
        "nonce": "0xc4",
        "chainId": "0xaa36a7"
      },
      "additionalContracts": [],
      "isFixedGasLimit": false
    }
  ],
  "receipts": [
    {
      "status": "0x1",
      "cumulativeGasUsed": "0x75291d",
      "logs": [
        {
          "address": "0x58b610a359c870e0fc941139821a51f5aa23f14e",
          "topics": [
            "0xbfb8b3e2f6221ae729e9cacb0d35f5d9be686ba10cb1d4e34b646bbb87f7a269",
            "0x0000000000000000000000005d0725add79fed3f0e61851b3c4704148ef9c7ea"
          ],
          "data": "0x0000000000000000000000000000000000000000000000000000000000000001",
          "blockHash": "0x3a3aeea25b5770e473a6c70b6aa162accb44e637fa59637c8ad897b7f30a85dc",
          "blockNumber": "0x8d8c50",
          "blockTimestamp": "0x68d52434",
          "transactionHash": "0x1b806a6e3ff48eb20a7d12c7ea9e0ed5e539f027d5eec0c578f2ae1024cc4857",
          "transactionIndex": "0xe9",
          "logIndex": "0x48",
          "removed": false
        }
      ],
      "logsBloom": "0x00000000000010000000000000000000000000000000000000000000000000000000000000000000000000000000000000000020000000000000000000000000000040000000000000000000000000000000000000000000000000000000000000000000000000000000000000000000000000000000000000000002000000000000000000000000000000000000000000000000000000000000000000000000000000000100000000000000000000000000000000000000000000000000000000000000000000000000000000000000000000000000000000000000000008000000000000000000000000080000000000000008000001000000000000000000",
      "type": "0x2",
      "transactionHash": "0x1b806a6e3ff48eb20a7d12c7ea9e0ed5e539f027d5eec0c578f2ae1024cc4857",
      "transactionIndex": "0xe9",
      "blockHash": "0x3a3aeea25b5770e473a6c70b6aa162accb44e637fa59637c8ad897b7f30a85dc",
      "blockNumber": "0x8d8c50",
      "gasUsed": "0xd7e4",
      "effectiveGasPrice": "0xfa3f9",
      "from": "0xc3ca11bd8e131471904dced927b3fb7edb453179",
      "to": "0x58b610a359c870e0fc941139821a51f5aa23f14e",
      "contractAddress": null
    },
    {
      "status": "0x1",
      "cumulativeGasUsed": "0x8fc73d",
      "logs": [
        {
          "address": "0x2f925d6512b2bbb00f5a36d8b18e01fcf35f7dc7",
          "topics": [
            "0xbfb8b3e2f6221ae729e9cacb0d35f5d9be686ba10cb1d4e34b646bbb87f7a269",
            "0x0000000000000000000000005d0725add79fed3f0e61851b3c4704148ef9c7ea"
          ],
          "data": "0x0000000000000000000000000000000000000000000000000000000000000001",
          "blockHash": "0x1475ec5fedadb4b8c19237310e9b1bada007cf1dc63b93d6a8fe719dd1fc9974",
          "blockNumber": "0x8d8c51",
          "blockTimestamp": "0x68d52440",
          "transactionHash": "0x50c81046e7ef37f6c5f020b1667d9a10e408c38261b99f687bf0d6e217524948",
          "transactionIndex": "0xc7",
          "logIndex": "0x63",
          "removed": false
        }
      ],
      "logsBloom": "0x00000000000000000000000000000000000000000000000000000000000000000000000000000000000000000000000000000020000000000000000000000000000040000000000000000000000000000000000000000000000000000000000000000000000000000000000000000000000000000000000000000002000000000000000400000000000000000000000000000000000000000000000000000000000000000000000000000000000000000000000000000000000000000000004000000000000000000000000000004000000000000000000000000000000008000000000000000000000000000000000000000008000001000000000000000000",
      "type": "0x2",
      "transactionHash": "0x50c81046e7ef37f6c5f020b1667d9a10e408c38261b99f687bf0d6e217524948",
      "transactionIndex": "0xc7",
      "blockHash": "0x1475ec5fedadb4b8c19237310e9b1bada007cf1dc63b93d6a8fe719dd1fc9974",
      "blockNumber": "0x8d8c51",
      "gasUsed": "0xd7ce",
      "effectiveGasPrice": "0xfa3f9",
      "from": "0xc3ca11bd8e131471904dced927b3fb7edb453179",
      "to": "0x2f925d6512b2bbb00f5a36d8b18e01fcf35f7dc7",
      "contractAddress": null
    },
    {
      "status": "0x1",
      "cumulativeGasUsed": "0x4cf5a1",
      "logs": [
        {
          "address": "0x9c9e9fad264089339aad66ff3e32d2ba1ddf6951",
          "topics": [
            "0xbfb8b3e2f6221ae729e9cacb0d35f5d9be686ba10cb1d4e34b646bbb87f7a269",
            "0x0000000000000000000000005d0725add79fed3f0e61851b3c4704148ef9c7ea"
          ],
          "data": "0x0000000000000000000000000000000000000000000000000000000000000001",
          "blockHash": "0x2588d7138a8216d81cefbb036b962fc9763befacd7a8b702323e716cbbc8b184",
          "blockNumber": "0x8d8c52",
          "blockTimestamp": "0x68d5244c",
          "transactionHash": "0x07ac46d40631ca5263f25589ef1dcc20b8d8170b2bb949d9ee175424bcbb68b6",
          "transactionIndex": "0x6b",
          "logIndex": "0x26",
          "removed": false
        }
      ],
      "logsBloom": "0x0000000000000000000000000000000000000000000000000000000000000000000000000000000000000000000000000000002000000000000000000000000000004000000000000000000000000000000000000000000000000000000000000000000000000000000000000000000000000000000000000000000200000000000000000000000000000000000000000000000000000000000000000000000000000000000000000000000000000000000000000000000000000000000000000000000000000000000000080000000000000000000000000000000000000a000000400000000000000000000000000000000008000001000000000000000000",
      "type": "0x2",
      "transactionHash": "0x07ac46d40631ca5263f25589ef1dcc20b8d8170b2bb949d9ee175424bcbb68b6",
      "transactionIndex": "0x6b",
      "blockHash": "0x2588d7138a8216d81cefbb036b962fc9763befacd7a8b702323e716cbbc8b184",
      "blockNumber": "0x8d8c52",
      "gasUsed": "0xd87f",
      "effectiveGasPrice": "0xfa3f8",
      "from": "0xc3ca11bd8e131471904dced927b3fb7edb453179",
      "to": "0x9c9e9fad264089339aad66ff3e32d2ba1ddf6951",
      "contractAddress": null
    },
    {
      "status": "0x1",
      "cumulativeGasUsed": "0xc066cb",
      "logs": [
        {
          "address": "0xe912f7c7a59470a6e3f178388106e3caa9e6fbd1",
          "topics": [
            "0xbfb8b3e2f6221ae729e9cacb0d35f5d9be686ba10cb1d4e34b646bbb87f7a269",
            "0x0000000000000000000000005d0725add79fed3f0e61851b3c4704148ef9c7ea"
          ],
          "data": "0x0000000000000000000000000000000000000000000000000000000000000001",
          "blockHash": "0x84fb88f5ac9d7b8c1186c4ede3d35eb907c7b1cef8b05c4b6f80c03502f33df2",
          "blockNumber": "0x8d8c53",
          "blockTimestamp": "0x68d52458",
          "transactionHash": "0x82c4f27597fb9f389b89003274e505ce483dd46a10d3e4fc2646bc40c6a71f5e",
          "transactionIndex": "0x89",
          "logIndex": "0x8f",
          "removed": false
        }
      ],
      "logsBloom": "0x00000000000000000000000000000000000000000000000000000000000004000000000000000000000000000000000000000020000000000000000000000000000040020000000000010000000000000000000000000000000000000000000000000000000000000000000000000000000000000000000000000002000000000000000000000000000000000000000000000000000000000000000000000000000000000000000000000000000000000000000000000000000000000000000000000000000000000000000000000000000000000000000000000000000008000000000000000000000000000000000000000008000001000000000000000000",
      "type": "0x2",
      "transactionHash": "0x82c4f27597fb9f389b89003274e505ce483dd46a10d3e4fc2646bc40c6a71f5e",
      "transactionIndex": "0x89",
      "blockHash": "0x84fb88f5ac9d7b8c1186c4ede3d35eb907c7b1cef8b05c4b6f80c03502f33df2",
      "blockNumber": "0x8d8c53",
      "gasUsed": "0xd826",
      "effectiveGasPrice": "0xfa3f9",
      "from": "0xc3ca11bd8e131471904dced927b3fb7edb453179",
      "to": "0xe912f7c7a59470a6e3f178388106e3caa9e6fbd1",
      "contractAddress": null
    },
    {
      "status": "0x1",
      "cumulativeGasUsed": "0x6a442e",
      "logs": [
        {
          "address": "0x92228b058f25bc4fb333fa296dddecbddf6496f3",
          "topics": [
            "0xbfb8b3e2f6221ae729e9cacb0d35f5d9be686ba10cb1d4e34b646bbb87f7a269",
            "0x0000000000000000000000005d0725add79fed3f0e61851b3c4704148ef9c7ea"
          ],
          "data": "0x0000000000000000000000000000000000000000000000000000000000000001",
          "blockHash": "0x632087c77d1429c280ff2d4624637b7dd85e9e19f180cd39de08cba56271470c",
          "blockNumber": "0x8d8c54",
          "blockTimestamp": "0x68d52464",
          "transactionHash": "0x140407b3e97317afc25e33096187653ab86d508bea1c564652d5148246432a42",
          "transactionIndex": "0x5c",
          "logIndex": "0x6f",
          "removed": false
        }
      ],
      "logsBloom": "0x00000000000000000000000000000000000000000000000000000000000000000000000000000000000000000000000000000020000000000000000000000000000040000000000000000000000000000000000000000000000000000000000000000000000000000000000000000000000000000000000000000002000000000000000000000000000000000000000000000000000000008010000000000000000000000000000000000000000000000000000000000000000000000000000000000000002000000000000000000000000000000000000000000000000008000000000000000000000000000000000000000008000001000000000000000000",
      "type": "0x2",
      "transactionHash": "0x140407b3e97317afc25e33096187653ab86d508bea1c564652d5148246432a42",
      "transactionIndex": "0x5c",
      "blockHash": "0x632087c77d1429c280ff2d4624637b7dd85e9e19f180cd39de08cba56271470c",
      "blockNumber": "0x8d8c54",
      "gasUsed": "0xd735",
      "effectiveGasPrice": "0xfa3f9",
      "from": "0xc3ca11bd8e131471904dced927b3fb7edb453179",
      "to": "0x92228b058f25bc4fb333fa296dddecbddf6496f3",
      "contractAddress": null
    },
    {
      "status": "0x1",
      "cumulativeGasUsed": "0x4ea492",
      "logs": [
        {
          "address": "0x2af842c6517cf30fb3456aef485230e0dd085845",
          "topics": [
            "0xbfb8b3e2f6221ae729e9cacb0d35f5d9be686ba10cb1d4e34b646bbb87f7a269",
            "0x0000000000000000000000005d0725add79fed3f0e61851b3c4704148ef9c7ea"
          ],
          "data": "0x0000000000000000000000000000000000000000000000000000000000000001",
          "blockHash": "0x5a3113305200baee3b4660dcc20968fbc25f591b4f58dce1698c20ee5feb9eb7",
          "blockNumber": "0x8d8c55",
          "blockTimestamp": "0x68d52470",
          "transactionHash": "0x8cf5b70bef44fcfb9af7f922e102859cd5152e6d5a3251360cff9c7734dd9dc3",
          "transactionIndex": "0x54",
          "logIndex": "0x52",
          "removed": false
        }
      ],
      "logsBloom": "0x00000000000000000000000000000000000000000000000000000000000000000000000000000000000000000000000000000020000000000000000000000000000040000000800000000000000000000000000000000000000000000000000000000000000000000000000000000000000000000000000000000002000000000000000000000000000000000000000000000000000000000000000000000000000000004000000000000000000000000000000000000000000000000000000000000000000000000000000000000000000000000000000000000200000008000000000000000000000000000000000000000008000001000000000000000000",
      "type": "0x2",
      "transactionHash": "0x8cf5b70bef44fcfb9af7f922e102859cd5152e6d5a3251360cff9c7734dd9dc3",
      "transactionIndex": "0x54",
      "blockHash": "0x5a3113305200baee3b4660dcc20968fbc25f591b4f58dce1698c20ee5feb9eb7",
      "blockNumber": "0x8d8c55",
      "gasUsed": "0xd7cf",
      "effectiveGasPrice": "0xfa3f8",
      "from": "0xc3ca11bd8e131471904dced927b3fb7edb453179",
      "to": "0x2af842c6517cf30fb3456aef485230e0dd085845",
      "contractAddress": null
    },
    {
      "status": "0x1",
      "cumulativeGasUsed": "0xe7f8f1",
      "logs": [
        {
          "address": "0x2026027054f5bebceb650abd62dc623e327658e7",
          "topics": [
            "0xbfb8b3e2f6221ae729e9cacb0d35f5d9be686ba10cb1d4e34b646bbb87f7a269",
            "0x0000000000000000000000005d0725add79fed3f0e61851b3c4704148ef9c7ea"
          ],
          "data": "0x0000000000000000000000000000000000000000000000000000000000000001",
          "blockHash": "0xebae5342f9ea75e2ff999542f8c64bbc2cafa64b8409ed3bea776cbd6874a155",
          "blockNumber": "0x8d8c56",
          "blockTimestamp": "0x68d5247c",
          "transactionHash": "0xefe26416fa5fbb1bcfa2068724af1b26e4e9525f346246ff260f1b5e15a378c4",
          "transactionIndex": "0x75",
          "logIndex": "0xa4",
          "removed": false
        }
      ],
      "logsBloom": "0x00000000000000000000000000000000000000000000000000000000000000000000000000800000000000000000000000000020000000000000000000000200000040000000000000000000000000000000000000000000000000000000000000000000000000000000000000000000000000000000000000000002000000000020000000000000000000000000000000000000000000000000000000000000000000000000000000000000000000000000000000000000000000000000000000000000000000000000000000000000000000000000000000000000000008000000000000000000000000000000000000000008000001000000000000000000",
      "type": "0x2",
      "transactionHash": "0xefe26416fa5fbb1bcfa2068724af1b26e4e9525f346246ff260f1b5e15a378c4",
      "transactionIndex": "0x75",
      "blockHash": "0xebae5342f9ea75e2ff999542f8c64bbc2cafa64b8409ed3bea776cbd6874a155",
      "blockNumber": "0x8d8c56",
      "gasUsed": "0xd73f",
      "effectiveGasPrice": "0xfa3f9",
      "from": "0xc3ca11bd8e131471904dced927b3fb7edb453179",
      "to": "0x2026027054f5bebceb650abd62dc623e327658e7",
      "contractAddress": null
    }
  ],
  "libraries": [],
  "pending": [],
  "returns": {},
  "timestamp": 1758798973900,
  "chain": 11155111,
  "commit": "9b3cda6"
}