{
  "transactions": [
    {
      "hash": "0x7816c3ea6b39a69478eb0de996409369e435749cdc614569ce23226c7cf1f171",
      "transactionType": "CALL",
      "contractName": null,
      "contractAddress": "0x58b610a359c870e0fc941139821a51f5aa23f14e",
      "function": "addTxSender(address)",
      "arguments": [
        "0xa0CDAc76fA51aa65402137e3FA5357432Af02e02"
      ],
      "transaction": {
        "from": "0xc3ca11bd8e131471904dced927b3fb7edb453179",
        "to": "0x58b610a359c870e0fc941139821a51f5aa23f14e",
        "gas": "0xbed3",
        "value": "0x0",
        "input": "0xeebd14af000000000000000000000000a0cdac76fa51aa65402137e3fa5357432af02e02",
        "nonce": "0xb6",
        "chainId": "0x8274f"
      },
      "additionalContracts": [],
      "isFixedGasLimit": false
    },
    {
      "hash": "0xedb272a37c17aa0e9a602b7a99d4d6c03f1e746d678c90dd8a5faee0a9eb9f61",
      "transactionType": "CALL",
      "contractName": null,
      "contractAddress": "0x2f925d6512b2bbb00f5a36d8b18e01fcf35f7dc7",
      "function": "addTxSender(address)",
      "arguments": [
        "0xa0CDAc76fA51aa65402137e3FA5357432Af02e02"
      ],
      "transaction": {
        "from": "0xc3ca11bd8e131471904dced927b3fb7edb453179",
        "to": "0x2f925d6512b2bbb00f5a36d8b18e01fcf35f7dc7",
        "gas": "0xc9ed",
        "value": "0x0",
        "input": "0xeebd14af000000000000000000000000a0cdac76fa51aa65402137e3fa5357432af02e02",
        "nonce": "0xb7",
        "chainId": "0x8274f"
      },
      "additionalContracts": [],
      "isFixedGasLimit": false
    },
    {
      "hash": "0xd595fef32f17d4d37125a0656938e92f9f4c5e4b7138accb0030c1f32b133ea5",
      "transactionType": "CALL",
      "contractName": null,
      "contractAddress": "0x9c9e9fad264089339aad66ff3e32d2ba1ddf6951",
      "function": "addTxSender(address)",
      "arguments": [
        "0xa0CDAc76fA51aa65402137e3FA5357432Af02e02"
      ],
      "transaction": {
        "from": "0xc3ca11bd8e131471904dced927b3fb7edb453179",
        "to": "0x9c9e9fad264089339aad66ff3e32d2ba1ddf6951",
        "gas": "0xcaef",
        "value": "0x0",
        "input": "0xeebd14af000000000000000000000000a0cdac76fa51aa65402137e3fa5357432af02e02",
        "nonce": "0xb8",
        "chainId": "0x8274f"
      },
      "additionalContracts": [],
      "isFixedGasLimit": false
    },
    {
      "hash": "0x7a4fd23b8502a8139b848e96bb927b1d5f9486aca8c0a69833f957bb85a0b7b0",
      "transactionType": "CALL",
      "contractName": null,
      "contractAddress": "0xe912f7c7a59470a6e3f178388106e3caa9e6fbd1",
      "function": "addTxSender(address)",
      "arguments": [
        "0xa0CDAc76fA51aa65402137e3FA5357432Af02e02"
      ],
      "transaction": {
        "from": "0xc3ca11bd8e131471904dced927b3fb7edb453179",
        "to": "0xe912f7c7a59470a6e3f178388106e3caa9e6fbd1",
        "gas": "0xca6d",
        "value": "0x0",
        "input": "0xeebd14af000000000000000000000000a0cdac76fa51aa65402137e3fa5357432af02e02",
        "nonce": "0xb9",
        "chainId": "0x8274f"
      },
      "additionalContracts": [],
      "isFixedGasLimit": false
    },
    {
      "hash": "0x9eb84c35b8eb7909b0f08dc5ffa7395599fef215b006dfc58485a533d76c1547",
      "transactionType": "CALL",
      "contractName": null,
      "contractAddress": "0x92228b058f25bc4fb333fa296dddecbddf6496f3",
      "function": "addTxSender(address)",
      "arguments": [
        "0xa0CDAc76fA51aa65402137e3FA5357432Af02e02"
      ],
      "transaction": {
        "from": "0xc3ca11bd8e131471904dced927b3fb7edb453179",
        "to": "0x92228b058f25bc4fb333fa296dddecbddf6496f3",
        "gas": "0xc90d",
        "value": "0x0",
        "input": "0xeebd14af000000000000000000000000a0cdac76fa51aa65402137e3fa5357432af02e02",
        "nonce": "0xba",
        "chainId": "0x8274f"
      },
      "additionalContracts": [],
      "isFixedGasLimit": false
    },
    {
      "hash": "0x878415afe67226d7c7d179915214356979bf3cad6f90ebe7e1fd7291aa3b82ea",
      "transactionType": "CALL",
      "contractName": null,
      "contractAddress": "0x2af842c6517cf30fb3456aef485230e0dd085845",
      "function": "addTxSender(address)",
      "arguments": [
        "0xa0CDAc76fA51aa65402137e3FA5357432Af02e02"
      ],
      "transaction": {
        "from": "0xc3ca11bd8e131471904dced927b3fb7edb453179",
        "to": "0x2af842c6517cf30fb3456aef485230e0dd085845",
        "gas": "0xc9ee",
        "value": "0x0",
        "input": "0xeebd14af000000000000000000000000a0cdac76fa51aa65402137e3fa5357432af02e02",
        "nonce": "0xbb",
        "chainId": "0x8274f"
      },
      "additionalContracts": [],
      "isFixedGasLimit": false
    },
    {
      "hash": "0x6f04cf36305afa2316c21c97b8873ace584bfb70c096831ef5bb43389e579eb6",
      "transactionType": "CALL",
      "contractName": null,
      "contractAddress": "0x2026027054f5bebceb650abd62dc623e327658e7",
      "function": "addTxSender(address)",
      "arguments": [
        "0xa0CDAc76fA51aa65402137e3FA5357432Af02e02"
      ],
      "transaction": {
        "from": "0xc3ca11bd8e131471904dced927b3fb7edb453179",
        "to": "0x2026027054f5bebceb650abd62dc623e327658e7",
        "gas": "0xc91b",
        "value": "0x0",
        "input": "0xeebd14af000000000000000000000000a0cdac76fa51aa65402137e3fa5357432af02e02",
        "nonce": "0xbc",
        "chainId": "0x8274f"
      },
      "additionalContracts": [],
      "isFixedGasLimit": false
    }
  ],
  "receipts": [
    {
      "status": "0x1",
      "cumulativeGasUsed": "0x8a28",
      "logs": [
        {
          "address": "0x58b610a359c870e0fc941139821a51f5aa23f14e",
          "topics": [
            "0xbfb8b3e2f6221ae729e9cacb0d35f5d9be686ba10cb1d4e34b646bbb87f7a269",
            "0x000000000000000000000000a0cdac76fa51aa65402137e3fa5357432af02e02"
          ],
          "data": "0x0000000000000000000000000000000000000000000000000000000000000001",
          "blockHash": "0x626a973907e61baf108bfea536afccc69f908f8fbb643db7b29cb2780698bafc",
          "blockNumber": "0xbf2d6c",
          "transactionHash": "0x7816c3ea6b39a69478eb0de996409369e435749cdc614569ce23226c7cf1f171",
          "transactionIndex": "0x0",
          "logIndex": "0x0",
          "removed": false
        }
      ],
      "logsBloom": "0x00000000000010000000000000800000000000000000000000000000000000000000000000000000000000000000000000000020000000000000000000000000000040000000000000000000000000000000000000000000000000000000000000000000000000000000000000000000020000000000000000000002000000000000000000000000000000000000000000000000000000000000000000000000000000000100000000000000000000000000000000000000000000000000000000000000000000000000000000000000000000000000000000000000000000000000000000010000000000080000000000000000000000000000000000000000",
      "type": "0x2",
      "transactionHash": "0x7816c3ea6b39a69478eb0de996409369e435749cdc614569ce23226c7cf1f171",
      "transactionIndex": "0x0",
      "blockHash": "0x626a973907e61baf108bfea536afccc69f908f8fbb643db7b29cb2780698bafc",
      "blockNumber": "0xbf2d6c",
      "gasUsed": "0x8a28",
      "effectiveGasPrice": "0xef426c",
      "from": "0xc3ca11bd8e131471904dced927b3fb7edb453179",
      "to": "0x58b610a359c870e0fc941139821a51f5aa23f14e",
      "contractAddress": null,
      "l1Fee": "0x1d1ad4"
    },
    {
      "status": "0x1",
      "cumulativeGasUsed": "0x8a12",
      "logs": [
        {
          "address": "0x2f925d6512b2bbb00f5a36d8b18e01fcf35f7dc7",
          "topics": [
            "0xbfb8b3e2f6221ae729e9cacb0d35f5d9be686ba10cb1d4e34b646bbb87f7a269",
            "0x000000000000000000000000a0cdac76fa51aa65402137e3fa5357432af02e02"
          ],
          "data": "0x0000000000000000000000000000000000000000000000000000000000000001",
          "blockHash": "0x185d1af898a73cd5d970e50a12f54b4266c69d0ab34b10deb44014d247ae5431",
          "blockNumber": "0xbf2d6d",
          "transactionHash": "0xedb272a37c17aa0e9a602b7a99d4d6c03f1e746d678c90dd8a5faee0a9eb9f61",
          "transactionIndex": "0x0",
          "logIndex": "0x0",
          "removed": false
        }
      ],
      "logsBloom": "0x00000000000000000000000000800000000000000000000000000000000000000000000000000000000000000000000000000020000000000000000000000000000040000000000000000000000000000000000000000000000000000000000000000000000000000000000000000000020000000000000000000002000000000000000400000000000000000000000000000000000000000000000000000000000000000000000000000000000000000000000000000000000000000000004000000000000000000000000000004000000000000000000000000000000000000000000000010000000000000000000000000000000000000000000000000000",
      "type": "0x2",
      "transactionHash": "0xedb272a37c17aa0e9a602b7a99d4d6c03f1e746d678c90dd8a5faee0a9eb9f61",
      "transactionIndex": "0x0",
      "blockHash": "0x185d1af898a73cd5d970e50a12f54b4266c69d0ab34b10deb44014d247ae5431",
      "blockNumber": "0xbf2d6d",
      "gasUsed": "0x8a12",
      "effectiveGasPrice": "0xef426c",
      "from": "0xc3ca11bd8e131471904dced927b3fb7edb453179",
      "to": "0x2f925d6512b2bbb00f5a36d8b18e01fcf35f7dc7",
      "contractAddress": null,
      "l1Fee": "0x1d1ad4"
    },
    {
      "status": "0x1",
      "cumulativeGasUsed": "0x8ac3",
      "logs": [
        {
          "address": "0x9c9e9fad264089339aad66ff3e32d2ba1ddf6951",
          "topics": [
            "0xbfb8b3e2f6221ae729e9cacb0d35f5d9be686ba10cb1d4e34b646bbb87f7a269",
            "0x000000000000000000000000a0cdac76fa51aa65402137e3fa5357432af02e02"
          ],
          "data": "0x0000000000000000000000000000000000000000000000000000000000000001",
          "blockHash": "0x72734edb6fae245da816ef9c2f832d99a49f00a520da31cebe24e98d9fb51026",
          "blockNumber": "0xbf2d6e",
          "transactionHash": "0xd595fef32f17d4d37125a0656938e92f9f4c5e4b7138accb0030c1f32b133ea5",
          "transactionIndex": "0x0",
          "logIndex": "0x0",
          "removed": false
        }
      ],
      "logsBloom": "0x00000000000000000000000000800000000000000000000000000000000000000000000000000000000000000000000000000020000000000000000000000000000040000000000000000000000000000000000000000000000000000000000000000000000000000000000000000000020000000000000000000002000000000000000000000000000000000000000000000000000000000000000000000000000000000000000000000000000000000000000000000000000000000000000000000000000000000000000800000000000000000000000000000000000002000000400000010000000000000000000000000000000000000000000000000000",
      "type": "0x2",
      "transactionHash": "0xd595fef32f17d4d37125a0656938e92f9f4c5e4b7138accb0030c1f32b133ea5",
      "transactionIndex": "0x0",
      "blockHash": "0x72734edb6fae245da816ef9c2f832d99a49f00a520da31cebe24e98d9fb51026",
      "blockNumber": "0xbf2d6e",
      "gasUsed": "0x8ac3",
      "effectiveGasPrice": "0xef426c",
      "from": "0xc3ca11bd8e131471904dced927b3fb7edb453179",
      "to": "0x9c9e9fad264089339aad66ff3e32d2ba1ddf6951",
      "contractAddress": null,
      "l1Fee": "0x1d1ad4"
    },
    {
      "status": "0x1",
      "cumulativeGasUsed": "0x8a6a",
      "logs": [
        {
          "address": "0xe912f7c7a59470a6e3f178388106e3caa9e6fbd1",
          "topics": [
            "0xbfb8b3e2f6221ae729e9cacb0d35f5d9be686ba10cb1d4e34b646bbb87f7a269",
            "0x000000000000000000000000a0cdac76fa51aa65402137e3fa5357432af02e02"
          ],
          "data": "0x0000000000000000000000000000000000000000000000000000000000000001",
          "blockHash": "0xab7ca9c7fff127f6b779b97d36120c3d99415b609550ba338fad0e57b7528222",
          "blockNumber": "0xbf2d6f",
          "transactionHash": "0x7a4fd23b8502a8139b848e96bb927b1d5f9486aca8c0a69833f957bb85a0b7b0",
          "transactionIndex": "0x0",
          "logIndex": "0x0",
          "removed": false
        }
      ],
      "logsBloom": "0x00000000000000000000000000800000000000000000000000000000000004000000000000000000000000000000000000000020000000000000000000000000000040020000000000010000000000000000000000000000000000000000000000000000000000000000000000000000020000000000000000000002000000000000000000000000000000000000000000000000000000000000000000000000000000000000000000000000000000000000000000000000000000000000000000000000000000000000000000000000000000000000000000000000000000000000000000010000000000000000000000000000000000000000000000000000",
      "type": "0x2",
      "transactionHash": "0x7a4fd23b8502a8139b848e96bb927b1d5f9486aca8c0a69833f957bb85a0b7b0",
      "transactionIndex": "0x0",
      "blockHash": "0xab7ca9c7fff127f6b779b97d36120c3d99415b609550ba338fad0e57b7528222",
      "blockNumber": "0xbf2d6f",
      "gasUsed": "0x8a6a",
      "effectiveGasPrice": "0xef426c",
      "from": "0xc3ca11bd8e131471904dced927b3fb7edb453179",
      "to": "0xe912f7c7a59470a6e3f178388106e3caa9e6fbd1",
      "contractAddress": null,
      "l1Fee": "0x1d1ad4"
    },
    {
      "status": "0x1",
      "cumulativeGasUsed": "0x8979",
      "logs": [
        {
          "address": "0x92228b058f25bc4fb333fa296dddecbddf6496f3",
          "topics": [
            "0xbfb8b3e2f6221ae729e9cacb0d35f5d9be686ba10cb1d4e34b646bbb87f7a269",
            "0x000000000000000000000000a0cdac76fa51aa65402137e3fa5357432af02e02"
          ],
          "data": "0x0000000000000000000000000000000000000000000000000000000000000001",
          "blockHash": "0x48590854cf46037c73346a70faf7c4129ad2d34d2dd726187985964664b48357",
          "blockNumber": "0xbf2d70",
          "transactionHash": "0x9eb84c35b8eb7909b0f08dc5ffa7395599fef215b006dfc58485a533d76c1547",
          "transactionIndex": "0x0",
          "logIndex": "0x0",
          "removed": false
        }
      ],
      "logsBloom": "0x00000000000000000000000000800000000000000000000000000000000000000000000000000000000000000000000000000020000000000000000000000000000040000000000000000000000000000000000000000000000000000000000000000000000000000000000000000000020000000000000000000002000000000000000000000000000000000000000000000000000000008010000000000000000000000000000000000000000000000000000000000000000000000000000000000000002000000000000000000000000000000000000000000000000000000000000000010000000000000000000000000000000000000000000000000000",
      "type": "0x2",
      "transactionHash": "0x9eb84c35b8eb7909b0f08dc5ffa7395599fef215b006dfc58485a533d76c1547",
      "transactionIndex": "0x0",
      "blockHash": "0x48590854cf46037c73346a70faf7c4129ad2d34d2dd726187985964664b48357",
      "blockNumber": "0xbf2d70",
      "gasUsed": "0x8979",
      "effectiveGasPrice": "0xef426c",
      "from": "0xc3ca11bd8e131471904dced927b3fb7edb453179",
      "to": "0x92228b058f25bc4fb333fa296dddecbddf6496f3",
      "contractAddress": null,
      "l1Fee": "0x1d1ad4"
    },
    {
      "status": "0x1",
      "cumulativeGasUsed": "0x8a13",
      "logs": [
        {
          "address": "0x2af842c6517cf30fb3456aef485230e0dd085845",
          "topics": [
            "0xbfb8b3e2f6221ae729e9cacb0d35f5d9be686ba10cb1d4e34b646bbb87f7a269",
            "0x000000000000000000000000a0cdac76fa51aa65402137e3fa5357432af02e02"
          ],
          "data": "0x0000000000000000000000000000000000000000000000000000000000000001",
          "blockHash": "0x9fee6a749114b1ba9ef227b4970f265f291849b27fa56c6cfb3caa9381ad804d",
          "blockNumber": "0xbf2d71",
          "transactionHash": "0x878415afe67226d7c7d179915214356979bf3cad6f90ebe7e1fd7291aa3b82ea",
          "transactionIndex": "0x0",
          "logIndex": "0x0",
          "removed": false
        }
      ],
      "logsBloom": "0x00000000000000000000000000800000000000000000000000000000000000000000000000000000000000000000000000000020000000000000000000000000000040000000800000000000000000000000000000000000000000000000000000000000000000000000000000000000020000000000000000000002000000000000000000000000000000000000000000000000000000000000000000000000000000004000000000000000000000000000000000000000000000000000000000000000000000000000000000000000000000000000000000000200000000000000000000010000000000000000000000000000000000000000000000000000",
      "type": "0x2",
      "transactionHash": "0x878415afe67226d7c7d179915214356979bf3cad6f90ebe7e1fd7291aa3b82ea",
      "transactionIndex": "0x0",
      "blockHash": "0x9fee6a749114b1ba9ef227b4970f265f291849b27fa56c6cfb3caa9381ad804d",
      "blockNumber": "0xbf2d71",
      "gasUsed": "0x8a13",
      "effectiveGasPrice": "0xef426c",
      "from": "0xc3ca11bd8e131471904dced927b3fb7edb453179",
      "to": "0x2af842c6517cf30fb3456aef485230e0dd085845",
      "contractAddress": null,
      "l1Fee": "0x1d1ad4"
    },
    {
      "status": "0x1",
      "cumulativeGasUsed": "0x8983",
      "logs": [
        {
          "address": "0x2026027054f5bebceb650abd62dc623e327658e7",
          "topics": [
            "0xbfb8b3e2f6221ae729e9cacb0d35f5d9be686ba10cb1d4e34b646bbb87f7a269",
            "0x000000000000000000000000a0cdac76fa51aa65402137e3fa5357432af02e02"
          ],
          "data": "0x0000000000000000000000000000000000000000000000000000000000000001",
          "blockHash": "0xb132ce666bb7cc365402501f29f1d3e4365686dab9abd28b093bab917014fddf",
          "blockNumber": "0xbf2d72",
          "transactionHash": "0x6f04cf36305afa2316c21c97b8873ace584bfb70c096831ef5bb43389e579eb6",
          "transactionIndex": "0x0",
          "logIndex": "0x0",
          "removed": false
        }
      ],
      "logsBloom": "0x00000000000000000000000000800000000000000000000000000000000000000000000000800000000000000000000000000020000000000000000000000200000040000000000000000000000000000000000000000000000000000000000000000000000000000000000000000000020000000000000000000002000000000020000000000000000000000000000000000000000000000000000000000000000000000000000000000000000000000000000000000000000000000000000000000000000000000000000000000000000000000000000000000000000000000000000000010000000000000000000000000000000000000000000000000000",
      "type": "0x2",
      "transactionHash": "0x6f04cf36305afa2316c21c97b8873ace584bfb70c096831ef5bb43389e579eb6",
      "transactionIndex": "0x0",
      "blockHash": "0xb132ce666bb7cc365402501f29f1d3e4365686dab9abd28b093bab917014fddf",
      "blockNumber": "0xbf2d72",
      "gasUsed": "0x8983",
      "effectiveGasPrice": "0xef426c",
      "from": "0xc3ca11bd8e131471904dced927b3fb7edb453179",
      "to": "0x2026027054f5bebceb650abd62dc623e327658e7",
      "contractAddress": null,
      "l1Fee": "0x1d1ad4"
    }
  ],
  "libraries": [],
  "pending": [],
  "returns": {},
  "timestamp": 1758800090717,
  "chain": 534351,
  "commit": "9b3cda6"
}