{
  "transactions": [
    {
      "hash": "0xb780ab69c1db004f64b03340a7bfcfa30157c41f5c6cd10c1e5537d0d523cac4",
      "transactionType": "CALL",
      "contractName": null,
      "contractAddress": "0x58b610a359c870e0fc941139821a51f5aa23f14e",
      "function": "addTxSender(address)",
      "arguments": [
        "0xa0CDAc76fA51aa65402137e3FA5357432Af02e02"
      ],
      "transaction": {
        "from": "0xc3ca11bd8e131471904dced927b3fb7edb453179",
        "to": "0x58b610a359c870e0fc941139821a51f5aa23f14e",
        "gas": "0x12a32",
        "value": "0x0",
        "input": "0xeebd14af000000000000000000000000a0cdac76fa51aa65402137e3fa5357432af02e02",
        "nonce": "0xaf",
        "chainId": "0x8274f"
      },
      "additionalContracts": [],
      "isFixedGasLimit": false
    },
    {
      "hash": "0x3ddb4e3ed8be59e4b5349abb6665afff0cccb86d9d8a7419f2e6a04de46a1dd6",
      "transactionType": "CALL",
      "contractName": null,
      "contractAddress": "0x2f925d6512b2bbb00f5a36d8b18e01fcf35f7dc7",
      "function": "addTxSender(address)",
      "arguments": [
        "0xa0CDAc76fA51aa65402137e3FA5357432Af02e02"
      ],
      "transaction": {
        "from": "0xc3ca11bd8e131471904dced927b3fb7edb453179",
        "to": "0x2f925d6512b2bbb00f5a36d8b18e01fcf35f7dc7",
        "gas": "0x12a13",
        "value": "0x0",
        "input": "0xeebd14af000000000000000000000000a0cdac76fa51aa65402137e3fa5357432af02e02",
        "nonce": "0xb0",
        "chainId": "0x8274f"
      },
      "additionalContracts": [],
      "isFixedGasLimit": false
    },
    {
      "hash": "0xd19d2a1cb40f0b19c4f811da772fe6c32847f669acf3dfab09cc70bc52039698",
      "transactionType": "CALL",
      "contractName": null,
      "contractAddress": "0x9c9e9fad264089339aad66ff3e32d2ba1ddf6951",
      "function": "addTxSender(address)",
      "arguments": [
        "0xa0CDAc76fA51aa65402137e3FA5357432Af02e02"
      ],
      "transaction": {
        "from": "0xc3ca11bd8e131471904dced927b3fb7edb453179",
        "to": "0x9c9e9fad264089339aad66ff3e32d2ba1ddf6951",
        "gas": "0x12b07",
        "value": "0x0",
        "input": "0xeebd14af000000000000000000000000a0cdac76fa51aa65402137e3fa5357432af02e02",
        "nonce": "0xb1",
        "chainId": "0x8274f"
      },
      "additionalContracts": [],
      "isFixedGasLimit": false
    },
    {
      "hash": "0x03a67d673491ee7ee93d72eef55c6b17d1aae5b143318bf6d4e64107eb28eff3",
      "transactionType": "CALL",
      "contractName": null,
      "contractAddress": "0xe912f7c7a59470a6e3f178388106e3caa9e6fbd1",
      "function": "addTxSender(address)",
      "arguments": [
        "0xa0CDAc76fA51aa65402137e3FA5357432Af02e02"
      ],
      "transaction": {
        "from": "0xc3ca11bd8e131471904dced927b3fb7edb453179",
        "to": "0xe912f7c7a59470a6e3f178388106e3caa9e6fbd1",
        "gas": "0x12a8d",
        "value": "0x0",
        "input": "0xeebd14af000000000000000000000000a0cdac76fa51aa65402137e3fa5357432af02e02",
        "nonce": "0xb2",
        "chainId": "0x8274f"
      },
      "additionalContracts": [],
      "isFixedGasLimit": false
    },
    {
      "hash": "0x2d82b188babd75792f37b92ed19279c21bd5a6fd609446228d70c346bcc33764",
      "transactionType": "CALL",
      "contractName": null,
      "contractAddress": "0x92228b058f25bc4fb333fa296dddecbddf6496f3",
      "function": "addTxSender(address)",
      "arguments": [
        "0xa0CDAc76fA51aa65402137e3FA5357432Af02e02"
      ],
      "transaction": {
        "from": "0xc3ca11bd8e131471904dced927b3fb7edb453179",
        "to": "0x92228b058f25bc4fb333fa296dddecbddf6496f3",
        "gas": "0x12940",
        "value": "0x0",
        "input": "0xeebd14af000000000000000000000000a0cdac76fa51aa65402137e3fa5357432af02e02",
        "nonce": "0xb3",
        "chainId": "0x8274f"
      },
      "additionalContracts": [],
      "isFixedGasLimit": false
    },
    {
      "hash": "0xe1bcea01e7f8dd318d41a53d61888b31476d41b772b62051487fbd03640f458a",
      "transactionType": "CALL",
      "contractName": null,
      "contractAddress": "0x2af842c6517cf30fb3456aef485230e0dd085845",
      "function": "addTxSender(address)",
      "arguments": [
        "0xa0CDAc76fA51aa65402137e3FA5357432Af02e02"
      ],
      "transaction": {
        "from": "0xc3ca11bd8e131471904dced927b3fb7edb453179",
        "to": "0x2af842c6517cf30fb3456aef485230e0dd085845",
        "gas": "0x12a14",
        "value": "0x0",
        "input": "0xeebd14af000000000000000000000000a0cdac76fa51aa65402137e3fa5357432af02e02",
        "nonce": "0xb4",
        "chainId": "0x8274f"
      },
      "additionalContracts": [],
      "isFixedGasLimit": false
    },
    {
      "hash": "0x530c87a9c714bd68d3f0ed0741f6bd89ebf82dd1c7f27c844f89e4052d299cdc",
      "transactionType": "CALL",
      "contractName": null,
      "contractAddress": "0x2026027054f5bebceb650abd62dc623e327658e7",
      "function": "addTxSender(address)",
      "arguments": [
        "0xa0CDAc76fA51aa65402137e3FA5357432Af02e02"
      ],
      "transaction": {
        "from": "0xc3ca11bd8e131471904dced927b3fb7edb453179",
        "to": "0x2026027054f5bebceb650abd62dc623e327658e7",
        "gas": "0x1294d",
        "value": "0x0",
        "input": "0xeebd14af000000000000000000000000a0cdac76fa51aa65402137e3fa5357432af02e02",
        "nonce": "0xb5",
        "chainId": "0x8274f"
      },
      "additionalContracts": [],
      "isFixedGasLimit": false
    }
  ],
  "receipts": [
    {
      "status": "0x1",
      "cumulativeGasUsed": "0xd7e4",
      "logs": [
        {
          "address": "0x58b610a359c870e0fc941139821a51f5aa23f14e",
          "topics": [
            "0xbfb8b3e2f6221ae729e9cacb0d35f5d9be686ba10cb1d4e34b646bbb87f7a269",
            "0x000000000000000000000000a0cdac76fa51aa65402137e3fa5357432af02e02"
          ],
          "data": "0x0000000000000000000000000000000000000000000000000000000000000001",
          "blockHash": "0x4d1a61e56fb03bc8639ddaad67fc263463d99a9c84c03f526b8f981bbb40b1de",
          "blockNumber": "0xbee30d",
          "transactionHash": "0xb780ab69c1db004f64b03340a7bfcfa30157c41f5c6cd10c1e5537d0d523cac4",
          "transactionIndex": "0x0",
          "logIndex": "0x0",
          "removed": false
        }
      ],
      "logsBloom": "0x00000000000010000000000000800000000000000000000000000000000000000000000000000000000000000000000000000020000000000000000000000000000040000000000000000000000000000000000000000000000000000000000000000000000000000000000000000000020000000000000000000002000000000000000000000000000000000000000000000000000000000000000000000000000000000100000000000000000000000000000000000000000000000000000000000000000000000000000000000000000000000000000000000000000000000000000000010000000000080000000000000000000000000000000000000000",
      "type": "0x2",
      "transactionHash": "0xb780ab69c1db004f64b03340a7bfcfa30157c41f5c6cd10c1e5537d0d523cac4",
      "transactionIndex": "0x0",
      "blockHash": "0x4d1a61e56fb03bc8639ddaad67fc263463d99a9c84c03f526b8f981bbb40b1de",
      "blockNumber": "0xbee30d",
      "gasUsed": "0xd7e4",
      "effectiveGasPrice": "0xef426c",
      "from": "0xc3ca11bd8e131471904dced927b3fb7edb453179",
      "to": "0x58b610a359c870e0fc941139821a51f5aa23f14e",
      "contractAddress": null,
      "l1Fee": "0x11f0d259"
    },
    {
      "status": "0x1",
      "cumulativeGasUsed": "0xd7ce",
      "logs": [
        {
          "address": "0x2f925d6512b2bbb00f5a36d8b18e01fcf35f7dc7",
          "topics": [
            "0xbfb8b3e2f6221ae729e9cacb0d35f5d9be686ba10cb1d4e34b646bbb87f7a269",
            "0x000000000000000000000000a0cdac76fa51aa65402137e3fa5357432af02e02"
          ],
          "data": "0x0000000000000000000000000000000000000000000000000000000000000001",
          "blockHash": "0xe09fe7b2dddd4f51e3e568cfbc22773238068f6f278c43dd45aa19a5a7a35ae9",
          "blockNumber": "0xbee30e",
          "transactionHash": "0x3ddb4e3ed8be59e4b5349abb6665afff0cccb86d9d8a7419f2e6a04de46a1dd6",
          "transactionIndex": "0x0",
          "logIndex": "0x0",
          "removed": false
        }
      ],
      "logsBloom": "0x00000000000000000000000000800000000000000000000000000000000000000000000000000000000000000000000000000020000000000000000000000000000040000000000000000000000000000000000000000000000000000000000000000000000000000000000000000000020000000000000000000002000000000000000400000000000000000000000000000000000000000000000000000000000000000000000000000000000000000000000000000000000000000000004000000000000000000000000000004000000000000000000000000000000000000000000000010000000000000000000000000000000000000000000000000000",
      "type": "0x2",
      "transactionHash": "0x3ddb4e3ed8be59e4b5349abb6665afff0cccb86d9d8a7419f2e6a04de46a1dd6",
      "transactionIndex": "0x0",
      "blockHash": "0xe09fe7b2dddd4f51e3e568cfbc22773238068f6f278c43dd45aa19a5a7a35ae9",
      "blockNumber": "0xbee30e",
      "gasUsed": "0xd7ce",
      "effectiveGasPrice": "0xef426c",
      "from": "0xc3ca11bd8e131471904dced927b3fb7edb453179",
      "to": "0x2f925d6512b2bbb00f5a36d8b18e01fcf35f7dc7",
      "contractAddress": null,
      "l1Fee": "0x11f0d259"
    },
    {
      "status": "0x1",
      "cumulativeGasUsed": "0xd87f",
      "logs": [
        {
          "address": "0x9c9e9fad264089339aad66ff3e32d2ba1ddf6951",
          "topics": [
            "0xbfb8b3e2f6221ae729e9cacb0d35f5d9be686ba10cb1d4e34b646bbb87f7a269",
            "0x000000000000000000000000a0cdac76fa51aa65402137e3fa5357432af02e02"
          ],
          "data": "0x0000000000000000000000000000000000000000000000000000000000000001",
          "blockHash": "0x480c7a15bf845521f6208ffa6c7eaeee640ff69a86e9d725e2e0bf695d0eef58",
          "blockNumber": "0xbee30f",
          "transactionHash": "0xd19d2a1cb40f0b19c4f811da772fe6c32847f669acf3dfab09cc70bc52039698",
          "transactionIndex": "0x0",
          "logIndex": "0x0",
          "removed": false
        }
      ],
      "logsBloom": "0x00000000000000000000000000800000000000000000000000000000000000000000000000000000000000000000000000000020000000000000000000000000000040000000000000000000000000000000000000000000000000000000000000000000000000000000000000000000020000000000000000000002000000000000000000000000000000000000000000000000000000000000000000000000000000000000000000000000000000000000000000000000000000000000000000000000000000000000000800000000000000000000000000000000000002000000400000010000000000000000000000000000000000000000000000000000",
      "type": "0x2",
      "transactionHash": "0xd19d2a1cb40f0b19c4f811da772fe6c32847f669acf3dfab09cc70bc52039698",
      "transactionIndex": "0x0",
      "blockHash": "0x480c7a15bf845521f6208ffa6c7eaeee640ff69a86e9d725e2e0bf695d0eef58",
      "blockNumber": "0xbee30f",
      "gasUsed": "0xd87f",
      "effectiveGasPrice": "0xef426c",
      "from": "0xc3ca11bd8e131471904dced927b3fb7edb453179",
      "to": "0x9c9e9fad264089339aad66ff3e32d2ba1ddf6951",
      "contractAddress": null,
      "l1Fee": "0x11f0d259"
    },
    {
      "status": "0x1",
      "cumulativeGasUsed": "0xd826",
      "logs": [
        {
          "address": "0xe912f7c7a59470a6e3f178388106e3caa9e6fbd1",
          "topics": [
            "0xbfb8b3e2f6221ae729e9cacb0d35f5d9be686ba10cb1d4e34b646bbb87f7a269",
            "0x000000000000000000000000a0cdac76fa51aa65402137e3fa5357432af02e02"
          ],
          "data": "0x0000000000000000000000000000000000000000000000000000000000000001",
          "blockHash": "0x844b32a0313c4aa92d351c25ebfb6ff7d3e77d3247cf6f5a8157c15a26929938",
          "blockNumber": "0xbee310",
          "transactionHash": "0x03a67d673491ee7ee93d72eef55c6b17d1aae5b143318bf6d4e64107eb28eff3",
          "transactionIndex": "0x0",
          "logIndex": "0x0",
          "removed": false
        }
      ],
      "logsBloom": "0x00000000000000000000000000800000000000000000000000000000000004000000000000000000000000000000000000000020000000000000000000000000000040020000000000010000000000000000000000000000000000000000000000000000000000000000000000000000020000000000000000000002000000000000000000000000000000000000000000000000000000000000000000000000000000000000000000000000000000000000000000000000000000000000000000000000000000000000000000000000000000000000000000000000000000000000000000010000000000000000000000000000000000000000000000000000",
      "type": "0x2",
      "transactionHash": "0x03a67d673491ee7ee93d72eef55c6b17d1aae5b143318bf6d4e64107eb28eff3",
      "transactionIndex": "0x0",
      "blockHash": "0x844b32a0313c4aa92d351c25ebfb6ff7d3e77d3247cf6f5a8157c15a26929938",
      "blockNumber": "0xbee310",
      "gasUsed": "0xd826",
      "effectiveGasPrice": "0xef426c",
      "from": "0xc3ca11bd8e131471904dced927b3fb7edb453179",
      "to": "0xe912f7c7a59470a6e3f178388106e3caa9e6fbd1",
      "contractAddress": null,
      "l1Fee": "0x11f0d259"
    },
    {
      "status": "0x1",
      "cumulativeGasUsed": "0xd735",
      "logs": [
        {
          "address": "0x92228b058f25bc4fb333fa296dddecbddf6496f3",
          "topics": [
            "0xbfb8b3e2f6221ae729e9cacb0d35f5d9be686ba10cb1d4e34b646bbb87f7a269",
            "0x000000000000000000000000a0cdac76fa51aa65402137e3fa5357432af02e02"
          ],
          "data": "0x0000000000000000000000000000000000000000000000000000000000000001",
          "blockHash": "0x5968bcb345bab35c7073f4f836dfe812be8f07c7857389b707c33762f4f80896",
          "blockNumber": "0xbee311",
          "transactionHash": "0x2d82b188babd75792f37b92ed19279c21bd5a6fd609446228d70c346bcc33764",
          "transactionIndex": "0x0",
          "logIndex": "0x0",
          "removed": false
        }
      ],
      "logsBloom": "0x00000000000000000000000000800000000000000000000000000000000000000000000000000000000000000000000000000020000000000000000000000000000040000000000000000000000000000000000000000000000000000000000000000000000000000000000000000000020000000000000000000002000000000000000000000000000000000000000000000000000000008010000000000000000000000000000000000000000000000000000000000000000000000000000000000000002000000000000000000000000000000000000000000000000000000000000000010000000000000000000000000000000000000000000000000000",
      "type": "0x2",
      "transactionHash": "0x2d82b188babd75792f37b92ed19279c21bd5a6fd609446228d70c346bcc33764",
      "transactionIndex": "0x0",
      "blockHash": "0x5968bcb345bab35c7073f4f836dfe812be8f07c7857389b707c33762f4f80896",
      "blockNumber": "0xbee311",
      "gasUsed": "0xd735",
      "effectiveGasPrice": "0xef426c",
      "from": "0xc3ca11bd8e131471904dced927b3fb7edb453179",
      "to": "0x92228b058f25bc4fb333fa296dddecbddf6496f3",
      "contractAddress": null,
      "l1Fee": "0x11f0d259"
    },
    {
      "status": "0x1",
      "cumulativeGasUsed": "0xd7cf",
      "logs": [
        {
          "address": "0x2af842c6517cf30fb3456aef485230e0dd085845",
          "topics": [
            "0xbfb8b3e2f6221ae729e9cacb0d35f5d9be686ba10cb1d4e34b646bbb87f7a269",
            "0x000000000000000000000000a0cdac76fa51aa65402137e3fa5357432af02e02"
          ],
          "data": "0x0000000000000000000000000000000000000000000000000000000000000001",
          "blockHash": "0x35b3e6302af842a3bc5b3e8367c509aea28d8d42382046c45d373bd1b9dd3474",
          "blockNumber": "0xbee312",
          "transactionHash": "0xe1bcea01e7f8dd318d41a53d61888b31476d41b772b62051487fbd03640f458a",
          "transactionIndex": "0x0",
          "logIndex": "0x0",
          "removed": false
        }
      ],
      "logsBloom": "0x00000000000000000000000000800000000000000000000000000000000000000000000000000000000000000000000000000020000000000000000000000000000040000000800000000000000000000000000000000000000000000000000000000000000000000000000000000000020000000000000000000002000000000000000000000000000000000000000000000000000000000000000000000000000000004000000000000000000000000000000000000000000000000000000000000000000000000000000000000000000000000000000000000200000000000000000000010000000000000000000000000000000000000000000000000000",
      "type": "0x2",
      "transactionHash": "0xe1bcea01e7f8dd318d41a53d61888b31476d41b772b62051487fbd03640f458a",
      "transactionIndex": "0x0",
      "blockHash": "0x35b3e6302af842a3bc5b3e8367c509aea28d8d42382046c45d373bd1b9dd3474",
      "blockNumber": "0xbee312",
      "gasUsed": "0xd7cf",
      "effectiveGasPrice": "0xef426c",
      "from": "0xc3ca11bd8e131471904dced927b3fb7edb453179",
      "to": "0x2af842c6517cf30fb3456aef485230e0dd085845",
      "contractAddress": null,
      "l1Fee": "0x11f0d259"
    },
    {
      "status": "0x1",
      "cumulativeGasUsed": "0xd73f",
      "logs": [
        {
          "address": "0x2026027054f5bebceb650abd62dc623e327658e7",
          "topics": [
            "0xbfb8b3e2f6221ae729e9cacb0d35f5d9be686ba10cb1d4e34b646bbb87f7a269",
            "0x000000000000000000000000a0cdac76fa51aa65402137e3fa5357432af02e02"
          ],
          "data": "0x0000000000000000000000000000000000000000000000000000000000000001",
          "blockHash": "0x33f4342709a1a366dc632d195fd5b211fbeae573a2e9a37757e9798bd3d806d0",
          "blockNumber": "0xbee313",
          "transactionHash": "0x530c87a9c714bd68d3f0ed0741f6bd89ebf82dd1c7f27c844f89e4052d299cdc",
          "transactionIndex": "0x0",
          "logIndex": "0x0",
          "removed": false
        }
      ],
      "logsBloom": "0x00000000000000000000000000800000000000000000000000000000000000000000000000800000000000000000000000000020000000000000000000000200000040000000000000000000000000000000000000000000000000000000000000000000000000000000000000000000020000000000000000000002000000000020000000000000000000000000000000000000000000000000000000000000000000000000000000000000000000000000000000000000000000000000000000000000000000000000000000000000000000000000000000000000000000000000000000010000000000000000000000000000000000000000000000000000",
      "type": "0x2",
      "transactionHash": "0x530c87a9c714bd68d3f0ed0741f6bd89ebf82dd1c7f27c844f89e4052d299cdc",
      "transactionIndex": "0x0",
      "blockHash": "0x33f4342709a1a366dc632d195fd5b211fbeae573a2e9a37757e9798bd3d806d0",
      "blockNumber": "0xbee313",
      "gasUsed": "0xd73f",
      "effectiveGasPrice": "0xef426c",
      "from": "0xc3ca11bd8e131471904dced927b3fb7edb453179",
      "to": "0x2026027054f5bebceb650abd62dc623e327658e7",
      "contractAddress": null,
      "l1Fee": "0x11f0d259"
    }
  ],
  "libraries": [],
  "pending": [],
  "returns": {},
  "timestamp": 1758731760209,
  "chain": 534351,
  "commit": "9b3cda6"
}