{
  "transactions": [
    {
      "hash": "0x1c7292bfb470388681dc00ef5cb699ce7362fe52e81324ea1354d19978e0ac33",
      "transactionType": "CALL",
      "contractName": null,
      "contractAddress": "0x58b610a359c870e0fc941139821a51f5aa23f14e",
      "function": "addTxSender(address)",
      "arguments": [
        "0xa0CDAc76fA51aa65402137e3FA5357432Af02e02"
      ],
      "transaction": {
        "from": "0xc3ca11bd8e131471904dced927b3fb7edb453179",
        "to": "0x58b610a359c870e0fc941139821a51f5aa23f14e",
        "gas": "0x12a32",
        "value": "0x0",
        "input": "0xeebd14af000000000000000000000000a0cdac76fa51aa65402137e3fa5357432af02e02",
        "nonce": "0xae",
        "chainId": "0x15eb"
      },
      "additionalContracts": [],
      "isFixedGasLimit": false
    },
    {
      "hash": "0xc01de45e223a8543f5e3181acc8e3948ee06e9360cb3b646616530e14d632d83",
      "transactionType": "CALL",
      "contractName": null,
      "contractAddress": "0x2f925d6512b2bbb00f5a36d8b18e01fcf35f7dc7",
      "function": "addTxSender(address)",
      "arguments": [
        "0xa0CDAc76fA51aa65402137e3FA5357432Af02e02"
      ],
      "transaction": {
        "from": "0xc3ca11bd8e131471904dced927b3fb7edb453179",
        "to": "0x2f925d6512b2bbb00f5a36d8b18e01fcf35f7dc7",
        "gas": "0x12a13",
        "value": "0x0",
        "input": "0xeebd14af000000000000000000000000a0cdac76fa51aa65402137e3fa5357432af02e02",
        "nonce": "0xaf",
        "chainId": "0x15eb"
      },
      "additionalContracts": [],
      "isFixedGasLimit": false
    },
    {
      "hash": "0x9532b699a7e3c711743c2bd4c165dd4c3e0052feda9f0495c3551253341d270d",
      "transactionType": "CALL",
      "contractName": null,
      "contractAddress": "0x9c9e9fad264089339aad66ff3e32d2ba1ddf6951",
      "function": "addTxSender(address)",
      "arguments": [
        "0xa0CDAc76fA51aa65402137e3FA5357432Af02e02"
      ],
      "transaction": {
        "from": "0xc3ca11bd8e131471904dced927b3fb7edb453179",
        "to": "0x9c9e9fad264089339aad66ff3e32d2ba1ddf6951",
        "gas": "0x12b07",
        "value": "0x0",
        "input": "0xeebd14af000000000000000000000000a0cdac76fa51aa65402137e3fa5357432af02e02",
        "nonce": "0xb0",
        "chainId": "0x15eb"
      },
      "additionalContracts": [],
      "isFixedGasLimit": false
    },
    {
      "hash": "0xef4d6f3f1fb8e5f78cd0ccb06376fcee51b18ccdffbb03c0bce688276f917e7f",
      "transactionType": "CALL",
      "contractName": null,
      "contractAddress": "0xe912f7c7a59470a6e3f178388106e3caa9e6fbd1",
      "function": "addTxSender(address)",
      "arguments": [
        "0xa0CDAc76fA51aa65402137e3FA5357432Af02e02"
      ],
      "transaction": {
        "from": "0xc3ca11bd8e131471904dced927b3fb7edb453179",
        "to": "0xe912f7c7a59470a6e3f178388106e3caa9e6fbd1",
        "gas": "0x12a8d",
        "value": "0x0",
        "input": "0xeebd14af000000000000000000000000a0cdac76fa51aa65402137e3fa5357432af02e02",
        "nonce": "0xb1",
        "chainId": "0x15eb"
      },
      "additionalContracts": [],
      "isFixedGasLimit": false
    },
    {
      "hash": "0xfd57dd3582d3c5957761dce920df87b040e8746df62fbbdf96a2c8fb96e76855",
      "transactionType": "CALL",
      "contractName": null,
      "contractAddress": "0x92228b058f25bc4fb333fa296dddecbddf6496f3",
      "function": "addTxSender(address)",
      "arguments": [
        "0xa0CDAc76fA51aa65402137e3FA5357432Af02e02"
      ],
      "transaction": {
        "from": "0xc3ca11bd8e131471904dced927b3fb7edb453179",
        "to": "0x92228b058f25bc4fb333fa296dddecbddf6496f3",
        "gas": "0x12940",
        "value": "0x0",
        "input": "0xeebd14af000000000000000000000000a0cdac76fa51aa65402137e3fa5357432af02e02",
        "nonce": "0xb2",
        "chainId": "0x15eb"
      },
      "additionalContracts": [],
      "isFixedGasLimit": false
    },
    {
      "hash": "0x746249470245961b22b606e9aa7378103d9adf862be36ca79784e490ae1cf331",
      "transactionType": "CALL",
      "contractName": null,
      "contractAddress": "0x2af842c6517cf30fb3456aef485230e0dd085845",
      "function": "addTxSender(address)",
      "arguments": [
        "0xa0CDAc76fA51aa65402137e3FA5357432Af02e02"
      ],
      "transaction": {
        "from": "0xc3ca11bd8e131471904dced927b3fb7edb453179",
        "to": "0x2af842c6517cf30fb3456aef485230e0dd085845",
        "gas": "0x12a14",
        "value": "0x0",
        "input": "0xeebd14af000000000000000000000000a0cdac76fa51aa65402137e3fa5357432af02e02",
        "nonce": "0xb3",
        "chainId": "0x15eb"
      },
      "additionalContracts": [],
      "isFixedGasLimit": false
    },
    {
      "hash": "0x2b957b8d47fd88ffbbbde3760ca6fdc6d121782c8eb343a674a08fc05f6641a3",
      "transactionType": "CALL",
      "contractName": null,
      "contractAddress": "0x2026027054f5bebceb650abd62dc623e327658e7",
      "function": "addTxSender(address)",
      "arguments": [
        "0xa0CDAc76fA51aa65402137e3FA5357432Af02e02"
      ],
      "transaction": {
        "from": "0xc3ca11bd8e131471904dced927b3fb7edb453179",
        "to": "0x2026027054f5bebceb650abd62dc623e327658e7",
        "gas": "0x1294d",
        "value": "0x0",
        "input": "0xeebd14af000000000000000000000000a0cdac76fa51aa65402137e3fa5357432af02e02",
        "nonce": "0xb4",
        "chainId": "0x15eb"
      },
      "additionalContracts": [],
      "isFixedGasLimit": false
    }
  ],
  "receipts": [
    {
      "status": "0x1",
      "cumulativeGasUsed": "0x18e07",
      "logs": [
        {
          "address": "0x58b610a359c870e0fc941139821a51f5aa23f14e",
          "topics": [
            "0xbfb8b3e2f6221ae729e9cacb0d35f5d9be686ba10cb1d4e34b646bbb87f7a269",
            "0x000000000000000000000000a0cdac76fa51aa65402137e3fa5357432af02e02"
          ],
          "data": "0x0000000000000000000000000000000000000000000000000000000000000001",
          "blockHash": "0x18a1f6cc2ce396b27a358edc2b715257c55ccebb7baeb14fa694c8d5fb38c107",
          "blockNumber": "0x53014ba",
          "transactionHash": "0x1c7292bfb470388681dc00ef5cb699ce7362fe52e81324ea1354d19978e0ac33",
          "transactionIndex": "0x1",
          "logIndex": "0x0",
          "removed": false
        }
      ],
      "logsBloom": "0x00000000000010000000000000800000000000000000000000000000000000000000000000000000000000000000000000000020000000000000000000000000000040000000000000000000000000000000000000000000000000000000000000000000000000000000000000000000020000000000000000000002000000000000000000000000000000000000000000000000000000000000000000000000000000000100000000000000000000000000000000000000000000000000000000000000000000000000000000000000000000000000000000000000000000000000000000010000000000080000000000000000000000000000000000000000",
      "type": "0x2",
      "transactionHash": "0x1c7292bfb470388681dc00ef5cb699ce7362fe52e81324ea1354d19978e0ac33",
      "transactionIndex": "0x1",
      "blockHash": "0x18a1f6cc2ce396b27a358edc2b715257c55ccebb7baeb14fa694c8d5fb38c107",
      "blockNumber": "0x53014ba",
      "gasUsed": "0xd7e4",
      "effectiveGasPrice": "0x1",
      "from": "0xc3ca11bd8e131471904dced927b3fb7edb453179",
      "to": "0x58b610a359c870e0fc941139821a51f5aa23f14e",
      "contractAddress": null,
      "l1BaseFeeScalar": "0x109a0",
      "l1BlobBaseFee": "0x1",
      "l1BlobBaseFeeScalar": "0x9fe98",
      "l1Fee": "0x2887fa041",
      "l1GasPrice": "0x5f5e100",
      "l1GasUsed": "0x640"
    },
    {
      "status": "0x1",
      "cumulativeGasUsed": "0x1830d",
      "logs": [
        {
          "address": "0x2f925d6512b2bbb00f5a36d8b18e01fcf35f7dc7",
          "topics": [
            "0xbfb8b3e2f6221ae729e9cacb0d35f5d9be686ba10cb1d4e34b646bbb87f7a269",
            "0x000000000000000000000000a0cdac76fa51aa65402137e3fa5357432af02e02"
          ],
          "data": "0x0000000000000000000000000000000000000000000000000000000000000001",
          "blockHash": "0x82cf5d9c7492ef010cc3331f4291ba64698e72e610799c4b7d1f16ff962c95f7",
          "blockNumber": "0x53014c0",
          "transactionHash": "0xc01de45e223a8543f5e3181acc8e3948ee06e9360cb3b646616530e14d632d83",
          "transactionIndex": "0x1",
          "logIndex": "0x0",
          "removed": false
        }
      ],
      "logsBloom": "0x00000000000000000000000000800000000000000000000000000000000000000000000000000000000000000000000000000020000000000000000000000000000040000000000000000000000000000000000000000000000000000000000000000000000000000000000000000000020000000000000000000002000000000000000400000000000000000000000000000000000000000000000000000000000000000000000000000000000000000000000000000000000000000000004000000000000000000000000000004000000000000000000000000000000000000000000000010000000000000000000000000000000000000000000000000000",
      "type": "0x2",
      "transactionHash": "0xc01de45e223a8543f5e3181acc8e3948ee06e9360cb3b646616530e14d632d83",
      "transactionIndex": "0x1",
      "blockHash": "0x82cf5d9c7492ef010cc3331f4291ba64698e72e610799c4b7d1f16ff962c95f7",
      "blockNumber": "0x53014c0",
      "gasUsed": "0xd7ce",
      "effectiveGasPrice": "0x1",
      "from": "0xc3ca11bd8e131471904dced927b3fb7edb453179",
      "to": "0x2f925d6512b2bbb00f5a36d8b18e01fcf35f7dc7",
      "contractAddress": null,
      "l1BaseFeeScalar": "0x109a0",
      "l1BlobBaseFee": "0x1",
      "l1BlobBaseFeeScalar": "0x9fe98",
      "l1Fee": "0x2887fa041",
      "l1GasPrice": "0x5f5e100",
      "l1GasUsed": "0x640"
    },
    {
      "status": "0x1",
      "cumulativeGasUsed": "0x183b2",
      "logs": [
        {
          "address": "0x9c9e9fad264089339aad66ff3e32d2ba1ddf6951",
          "topics": [
            "0xbfb8b3e2f6221ae729e9cacb0d35f5d9be686ba10cb1d4e34b646bbb87f7a269",
            "0x000000000000000000000000a0cdac76fa51aa65402137e3fa5357432af02e02"
          ],
          "data": "0x0000000000000000000000000000000000000000000000000000000000000001",
          "blockHash": "0x2f129e2ba4444ed6ca708acb801d1c32c2d2e4a58d2a4b6d8e70e25f375a3519",
          "blockNumber": "0x53014c6",
          "transactionHash": "0x9532b699a7e3c711743c2bd4c165dd4c3e0052feda9f0495c3551253341d270d",
          "transactionIndex": "0x1",
          "logIndex": "0x0",
          "removed": false
        }
      ],
      "logsBloom": "0x00000000000000000000000000800000000000000000000000000000000000000000000000000000000000000000000000000020000000000000000000000000000040000000000000000000000000000000000000000000000000000000000000000000000000000000000000000000020000000000000000000002000000000000000000000000000000000000000000000000000000000000000000000000000000000000000000000000000000000000000000000000000000000000000000000000000000000000000800000000000000000000000000000000000002000000400000010000000000000000000000000000000000000000000000000000",
      "type": "0x2",
      "transactionHash": "0x9532b699a7e3c711743c2bd4c165dd4c3e0052feda9f0495c3551253341d270d",
      "transactionIndex": "0x1",
      "blockHash": "0x2f129e2ba4444ed6ca708acb801d1c32c2d2e4a58d2a4b6d8e70e25f375a3519",
      "blockNumber": "0x53014c6",
      "gasUsed": "0xd87f",
      "effectiveGasPrice": "0x1",
      "from": "0xc3ca11bd8e131471904dced927b3fb7edb453179",
      "to": "0x9c9e9fad264089339aad66ff3e32d2ba1ddf6951",
      "contractAddress": null,
      "l1BaseFeeScalar": "0x109a0",
      "l1BlobBaseFee": "0x1",
      "l1BlobBaseFeeScalar": "0x9fe98",
      "l1Fee": "0x2887fa041",
      "l1GasPrice": "0x5f5e100",
      "l1GasUsed": "0x640"
    },
    {
      "status": "0x1",
      "cumulativeGasUsed": "0x18e3d",
      "logs": [
        {
          "address": "0xe912f7c7a59470a6e3f178388106e3caa9e6fbd1",
          "topics": [
            "0xbfb8b3e2f6221ae729e9cacb0d35f5d9be686ba10cb1d4e34b646bbb87f7a269",
            "0x000000000000000000000000a0cdac76fa51aa65402137e3fa5357432af02e02"
          ],
          "data": "0x0000000000000000000000000000000000000000000000000000000000000001",
          "blockHash": "0xb1e862589de89569576a0dcf247388ca118b51724828506a2777284440f1f598",
          "blockNumber": "0x53014cc",
          "transactionHash": "0xef4d6f3f1fb8e5f78cd0ccb06376fcee51b18ccdffbb03c0bce688276f917e7f",
          "transactionIndex": "0x1",
          "logIndex": "0x0",
          "removed": false
        }
      ],
      "logsBloom": "0x00000000000000000000000000800000000000000000000000000000000004000000000000000000000000000000000000000020000000000000000000000000000040020000000000010000000000000000000000000000000000000000000000000000000000000000000000000000020000000000000000000002000000000000000000000000000000000000000000000000000000000000000000000000000000000000000000000000000000000000000000000000000000000000000000000000000000000000000000000000000000000000000000000000000000000000000000010000000000000000000000000000000000000000000000000000",
      "type": "0x2",
      "transactionHash": "0xef4d6f3f1fb8e5f78cd0ccb06376fcee51b18ccdffbb03c0bce688276f917e7f",
      "transactionIndex": "0x1",
      "blockHash": "0xb1e862589de89569576a0dcf247388ca118b51724828506a2777284440f1f598",
      "blockNumber": "0x53014cc",
      "gasUsed": "0xd826",
      "effectiveGasPrice": "0x1",
      "from": "0xc3ca11bd8e131471904dced927b3fb7edb453179",
      "to": "0xe912f7c7a59470a6e3f178388106e3caa9e6fbd1",
      "contractAddress": null,
      "l1BaseFeeScalar": "0x109a0",
      "l1BlobBaseFee": "0x1",
      "l1BlobBaseFeeScalar": "0x9fe98",
      "l1Fee": "0x2887fa041",
      "l1GasPrice": "0x5f5e100",
      "l1GasUsed": "0x640"
    },
    {
      "status": "0x1",
      "cumulativeGasUsed": "0x18274",
      "logs": [
        {
          "address": "0x92228b058f25bc4fb333fa296dddecbddf6496f3",
          "topics": [
            "0xbfb8b3e2f6221ae729e9cacb0d35f5d9be686ba10cb1d4e34b646bbb87f7a269",
            "0x000000000000000000000000a0cdac76fa51aa65402137e3fa5357432af02e02"
          ],
          "data": "0x0000000000000000000000000000000000000000000000000000000000000001",
          "blockHash": "0x7f1ed03889ad213ad50863a51ea9ef9eb7d81b7c120fe330364182b19e3d2b07",
          "blockNumber": "0x53014d2",
          "transactionHash": "0xfd57dd3582d3c5957761dce920df87b040e8746df62fbbdf96a2c8fb96e76855",
          "transactionIndex": "0x1",
          "logIndex": "0x0",
          "removed": false
        }
      ],
      "logsBloom": "0x00000000000000000000000000800000000000000000000000000000000000000000000000000000000000000000000000000020000000000000000000000000000040000000000000000000000000000000000000000000000000000000000000000000000000000000000000000000020000000000000000000002000000000000000000000000000000000000000000000000000000008010000000000000000000000000000000000000000000000000000000000000000000000000000000000000002000000000000000000000000000000000000000000000000000000000000000010000000000000000000000000000000000000000000000000000",
      "type": "0x2",
      "transactionHash": "0xfd57dd3582d3c5957761dce920df87b040e8746df62fbbdf96a2c8fb96e76855",
      "transactionIndex": "0x1",
      "blockHash": "0x7f1ed03889ad213ad50863a51ea9ef9eb7d81b7c120fe330364182b19e3d2b07",
      "blockNumber": "0x53014d2",
      "gasUsed": "0xd735",
      "effectiveGasPrice": "0x1",
      "from": "0xc3ca11bd8e131471904dced927b3fb7edb453179",
      "to": "0x92228b058f25bc4fb333fa296dddecbddf6496f3",
      "contractAddress": null,
      "l1BaseFeeScalar": "0x109a0",
      "l1BlobBaseFee": "0x1",
      "l1BlobBaseFeeScalar": "0x9fe98",
      "l1Fee": "0x2887fa041",
      "l1GasPrice": "0x5f5e100",
      "l1GasUsed": "0x640"
    },
    {
      "status": "0x1",
      "cumulativeGasUsed": "0x18df2",
      "logs": [
        {
          "address": "0x2af842c6517cf30fb3456aef485230e0dd085845",
          "topics": [
            "0xbfb8b3e2f6221ae729e9cacb0d35f5d9be686ba10cb1d4e34b646bbb87f7a269",
            "0x000000000000000000000000a0cdac76fa51aa65402137e3fa5357432af02e02"
          ],
          "data": "0x0000000000000000000000000000000000000000000000000000000000000001",
          "blockHash": "0xf5e5c2acf679b892d8a8bc54c2da2fd843ee7e6685a0611f44798cc78329ee60",
          "blockNumber": "0x53014d5",
          "transactionHash": "0x746249470245961b22b606e9aa7378103d9adf862be36ca79784e490ae1cf331",
          "transactionIndex": "0x1",
          "logIndex": "0x0",
          "removed": false
        }
      ],
      "logsBloom": "0x00000000000000000000000000800000000000000000000000000000000000000000000000000000000000000000000000000020000000000000000000000000000040000000800000000000000000000000000000000000000000000000000000000000000000000000000000000000020000000000000000000002000000000000000000000000000000000000000000000000000000000000000000000000000000004000000000000000000000000000000000000000000000000000000000000000000000000000000000000000000000000000000000000200000000000000000000010000000000000000000000000000000000000000000000000000",
      "type": "0x2",
      "transactionHash": "0x746249470245961b22b606e9aa7378103d9adf862be36ca79784e490ae1cf331",
      "transactionIndex": "0x1",
      "blockHash": "0xf5e5c2acf679b892d8a8bc54c2da2fd843ee7e6685a0611f44798cc78329ee60",
      "blockNumber": "0x53014d5",
      "gasUsed": "0xd7cf",
      "effectiveGasPrice": "0x1",
      "from": "0xc3ca11bd8e131471904dced927b3fb7edb453179",
      "to": "0x2af842c6517cf30fb3456aef485230e0dd085845",
      "contractAddress": null,
      "l1BaseFeeScalar": "0x109a0",
      "l1BlobBaseFee": "0x1",
      "l1BlobBaseFeeScalar": "0x9fe98",
      "l1Fee": "0x2887fa041",
      "l1GasPrice": "0x5f5e100",
      "l1GasUsed": "0x640"
    },
    {
      "status": "0x1",
      "cumulativeGasUsed": "0x18d62",
      "logs": [
        {
          "address": "0x2026027054f5bebceb650abd62dc623e327658e7",
          "topics": [
            "0xbfb8b3e2f6221ae729e9cacb0d35f5d9be686ba10cb1d4e34b646bbb87f7a269",
            "0x000000000000000000000000a0cdac76fa51aa65402137e3fa5357432af02e02"
          ],
          "data": "0x0000000000000000000000000000000000000000000000000000000000000001",
          "blockHash": "0x811178e18711c2df2893d329945f0e393c51b1e8f093e05f9b66a63bb7ca882b",
          "blockNumber": "0x53014db",
          "transactionHash": "0x2b957b8d47fd88ffbbbde3760ca6fdc6d121782c8eb343a674a08fc05f6641a3",
          "transactionIndex": "0x1",
          "logIndex": "0x0",
          "removed": false
        }
      ],
      "logsBloom": "0x00000000000000000000000000800000000000000000000000000000000000000000000000800000000000000000000000000020000000000000000000000200000040000000000000000000000000000000000000000000000000000000000000000000000000000000000000000000020000000000000000000002000000000020000000000000000000000000000000000000000000000000000000000000000000000000000000000000000000000000000000000000000000000000000000000000000000000000000000000000000000000000000000000000000000000000000000010000000000000000000000000000000000000000000000000000",
      "type": "0x2",
      "transactionHash": "0x2b957b8d47fd88ffbbbde3760ca6fdc6d121782c8eb343a674a08fc05f6641a3",
      "transactionIndex": "0x1",
      "blockHash": "0x811178e18711c2df2893d329945f0e393c51b1e8f093e05f9b66a63bb7ca882b",
      "blockNumber": "0x53014db",
      "gasUsed": "0xd73f",
      "effectiveGasPrice": "0x1",
      "from": "0xc3ca11bd8e131471904dced927b3fb7edb453179",
      "to": "0x2026027054f5bebceb650abd62dc623e327658e7",
      "contractAddress": null,
      "l1BaseFeeScalar": "0x109a0",
      "l1BlobBaseFee": "0x1",
      "l1BlobBaseFeeScalar": "0x9fe98",
      "l1Fee": "0x2887fa041",
      "l1GasPrice": "0x5f5e100",
      "l1GasUsed": "0x640"
    }
  ],
  "libraries": [],
  "pending": [],
  "returns": {},
  "timestamp": 1758739227110,
  "chain": 5611,
  "commit": "9b3cda6"
}