{
  "transactions": [
    {
      "hash": "0xf28d2e6fa5bd85454b166732074d964813021c7a5e9e811e9366b35e3e0ee0fb",
      "transactionType": "CALL",
      "contractName": null,
      "contractAddress": "0x58b610a359c870e0fc941139821a51f5aa23f14e",
      "function": "addChainContract(string[],string[])",
      "arguments": [
        "[421614]",
        "[0x58B610a359c870E0fc941139821a51F5aa23f14E]"
      ],
      "transaction": {
        "from": "0xc3ca11bd8e131471904dced927b3fb7edb453179",
        "to": "0x58b610a359c870e0fc941139821a51f5aa23f14e",
        "gas": "0x1d846",
        "value": "0x0",
        "input": "0x013fd3bd000000000000000000000000000000000000000000000000000000000000004000000000000000000000000000000000000000000000000000000000000000c0000000000000000000000000000000000000000000000000000000000000000100000000000000000000000000000000000000000000000000000000000000200000000000000000000000000000000000000000000000000000000000000006343231363134000000000000000000000000000000000000000000000000000000000000000000000000000000000000000000000000000000000000000000010000000000000000000000000000000000000000000000000000000000000020000000000000000000000000000000000000000000000000000000000000002a30783538423631306133353963383730453066633934313133393832316135314635616132336631344500000000000000000000000000000000000000000000",
        "nonce": "0x70",
        "chainId": "0x66eee"
      },
      "additionalContracts": [],
      "isFixedGasLimit": false
    },
    {
      "hash": "0xb0eb9a0361d7d41e2f27eb3cd20c9493237cb602c64218007a4a5615344b72d0",
      "transactionType": "CALL",
      "contractName": null,
      "contractAddress": "0x58b610a359c870e0fc941139821a51f5aa23f14e",
      "function": "attachRWAX(uint256,uint256,string[],string[])",
      "arguments": [
        "1",
        "1",
        "[421614]",
        "[0x9C9e9Fad264089339aAd66Ff3e32D2bA1DdF6951]"
      ],
      "transaction": {
        "from": "0xc3ca11bd8e131471904dced927b3fb7edb453179",
        "to": "0x58b610a359c870e0fc941139821a51f5aa23f14e",
        "gas": "0x41d23",
        "value": "0x0",
        "input": "0x33a5f5b40000000000000000000000000000000000000000000000000000000000000001000000000000000000000000000000000000000000000000000000000000000100000000000000000000000000000000000000000000000000000000000000800000000000000000000000000000000000000000000000000000000000000100000000000000000000000000000000000000000000000000000000000000000100000000000000000000000000000000000000000000000000000000000000200000000000000000000000000000000000000000000000000000000000000006343231363134000000000000000000000000000000000000000000000000000000000000000000000000000000000000000000000000000000000000000000010000000000000000000000000000000000000000000000000000000000000020000000000000000000000000000000000000000000000000000000000000002a30783943396539466164323634303839333339614164363646663365333244326241314464463639353100000000000000000000000000000000000000000000",
        "nonce": "0x71",
        "chainId": "0x66eee"
      },
      "additionalContracts": [],
      "isFixedGasLimit": false
    },
    {
      "hash": "0xf0e411b85a46516309aff81403ba3826de5e0cc1f3d69b46079aae17319d7d23",
      "transactionType": "CALL",
      "contractName": null,
      "contractAddress": "0x58b610a359c870e0fc941139821a51f5aa23f14e",
      "function": "attachStorageManager(uint256,uint256,string[],string[])",
      "arguments": [
        "1",
        "1",
        "[421614]",
        "[0x92228B058f25Bc4fb333fA296dDdECBdDf6496f3]"
      ],
      "transaction": {
        "from": "0xc3ca11bd8e131471904dced927b3fb7edb453179",
        "to": "0x58b610a359c870e0fc941139821a51f5aa23f14e",
        "gas": "0x38edf",
        "value": "0x0",
        "input": "0x2f68b4890000000000000000000000000000000000000000000000000000000000000001000000000000000000000000000000000000000000000000000000000000000100000000000000000000000000000000000000000000000000000000000000800000000000000000000000000000000000000000000000000000000000000100000000000000000000000000000000000000000000000000000000000000000100000000000000000000000000000000000000000000000000000000000000200000000000000000000000000000000000000000000000000000000000000006343231363134000000000000000000000000000000000000000000000000000000000000000000000000000000000000000000000000000000000000000000010000000000000000000000000000000000000000000000000000000000000020000000000000000000000000000000000000000000000000000000000000002a30783932323238423035386632354263346662333333664132393664446445434264446636343936663300000000000000000000000000000000000000000000",
        "nonce": "0x72",
        "chainId": "0x66eee"
      },
      "additionalContracts": [],
      "isFixedGasLimit": false
    },
    {
      "hash": "0xc3b4b28b4879d81b1e16eb62999d506b9273067cd48b15bec904f0d2b2c1d416",
      "transactionType": "CALL",
      "contractName": null,
      "contractAddress": "0x58b610a359c870e0fc941139821a51f5aa23f14e",
      "function": "attachSentryManager(uint256,uint256,string[],string[])",
      "arguments": [
        "1",
        "1",
        "[421614]",
        "[0x2AF842C6517CF30Fb3456aeF485230e0DD085845]"
      ],
      "transaction": {
        "from": "0xc3ca11bd8e131471904dced927b3fb7edb453179",
        "to": "0x58b610a359c870e0fc941139821a51f5aa23f14e",
        "gas": "0x38c92",
        "value": "0x0",
        "input": "0x349de7970000000000000000000000000000000000000000000000000000000000000001000000000000000000000000000000000000000000000000000000000000000100000000000000000000000000000000000000000000000000000000000000800000000000000000000000000000000000000000000000000000000000000100000000000000000000000000000000000000000000000000000000000000000100000000000000000000000000000000000000000000000000000000000000200000000000000000000000000000000000000000000000000000000000000006343231363134000000000000000000000000000000000000000000000000000000000000000000000000000000000000000000000000000000000000000000010000000000000000000000000000000000000000000000000000000000000020000000000000000000000000000000000000000000000000000000000000002a30783241463834324336353137434633304662333435366165463438353233306530444430383538343500000000000000000000000000000000000000000000",
        "nonce": "0x73",
        "chainId": "0x66eee"
      },
      "additionalContracts": [],
      "isFixedGasLimit": false
    }
  ],
  "receipts": [
    {
      "status": "0x1",
      "cumulativeGasUsed": "0x851a5",
      "logs": [],
      "logsBloom": "0x00000000000000000000000000000000000000000000000000000000000000000000000000000000000000000000000000000000000000000000000000000000000000000000000000000000000000000000000000000000000000000000000000000000000000000000000000000000000000000000000000000000000000000000000000000000000000000000000000000000000000000000000000000000000000000000000000000000000000000000000000000000000000000000000000000000000000000000000000000000000000000000000000000000000000000000000000000000000000000000000000000000000000000000000000000000",
      "type": "0x2",
      "transactionHash": "0xf28d2e6fa5bd85454b166732074d964813021c7a5e9e811e9366b35e3e0ee0fb",
      "transactionIndex": "0x4",
      "blockHash": "0xa709508ebf826f6fb51bc91137c1ae94b1b3dd29d6163b09b95c7febae614312",
      "blockNumber": "0xb0a6f01",
      "gasUsed": "0x163e0",
      "effectiveGasPrice": "0x5f5e100",
      "from": "0xc3ca11bd8e131471904dced927b3fb7edb453179",
      "to": "0x58b610a359c870e0fc941139821a51f5aa23f14e",
      "contractAddress": null,
      "gasUsedForL1": "0x27",
      "l1BlockNumber": "0x897f0f",
      "timeboosted": false
    },
    {
      "status": "0x1",
      "cumulativeGasUsed": "0x4b722",
      "logs": [],
      "logsBloom": "0x00000000000000000000000000000000000000000000000000000000000000000000000000000000000000000000000000000000000000000000000000000000000000000000000000000000000000000000000000000000000000000000000000000000000000000000000000000000000000000000000000000000000000000000000000000000000000000000000000000000000000000000000000000000000000000000000000000000000000000000000000000000000000000000000000000000000000000000000000000000000000000000000000000000000000000000000000000000000000000000000000000000000000000000000000000000",
      "type": "0x2",
      "transactionHash": "0xb0eb9a0361d7d41e2f27eb3cd20c9493237cb602c64218007a4a5615344b72d0",
      "transactionIndex": "0x2",
      "blockHash": "0xb00cf1921996f66a1c91ea124cfc8eb12a779c3937790a94513ad6c51cc3024b",
      "blockNumber": "0xb0a6f0d",
      "gasUsed": "0x31f2c",
      "effectiveGasPrice": "0x5f5e100",
      "from": "0xc3ca11bd8e131471904dced927b3fb7edb453179",
      "to": "0x58b610a359c870e0fc941139821a51f5aa23f14e",
      "contractAddress": null,
      "gasUsedForL1": "0x27",
      "l1BlockNumber": "0x897f0f",
      "timeboosted": false
    },
    {
      "status": "0x1",
      "cumulativeGasUsed": "0x80715",
      "logs": [],
      "logsBloom": "0x00000000000000000000000000000000000000000000000000000000000000000000000000000000000000000000000000000000000000000000000000000000000000000000000000000000000000000000000000000000000000000000000000000000000000000000000000000000000000000000000000000000000000000000000000000000000000000000000000000000000000000000000000000000000000000000000000000000000000000000000000000000000000000000000000000000000000000000000000000000000000000000000000000000000000000000000000000000000000000000000000000000000000000000000000000000",
      "type": "0x2",
      "transactionHash": "0xf0e411b85a46516309aff81403ba3826de5e0cc1f3d69b46079aae17319d7d23",
      "transactionIndex": "0x3",
      "blockHash": "0x29a1bca6bf1638d1552871001fe10ebc33b7290e32b45473aa6cc66a57ae1dae",
      "blockNumber": "0xb0a6f19",
      "gasUsed": "0x2b299",
      "effectiveGasPrice": "0x5f5e100",
      "from": "0xc3ca11bd8e131471904dced927b3fb7edb453179",
      "to": "0x58b610a359c870e0fc941139821a51f5aa23f14e",
      "contractAddress": null,
      "gasUsedForL1": "0x26",
      "l1BlockNumber": "0x897f10",
      "timeboosted": false
    },
    {
      "status": "0x1",
      "cumulativeGasUsed": "0x2b0d9",
      "logs": [],
      "logsBloom": "0x00000000000000000000000000000000000000000000000000000000000000000000000000000000000000000000000000000000000000000000000000000000000000000000000000000000000000000000000000000000000000000000000000000000000000000000000000000000000000000000000000000000000000000000000000000000000000000000000000000000000000000000000000000000000000000000000000000000000000000000000000000000000000000000000000000000000000000000000000000000000000000000000000000000000000000000000000000000000000000000000000000000000000000000000000000000",
      "type": "0x2",
      "transactionHash": "0xc3b4b28b4879d81b1e16eb62999d506b9273067cd48b15bec904f0d2b2c1d416",
      "transactionIndex": "0x1",
      "blockHash": "0x8dcc4d454968919e685045885455f2ae966a492e3e6ca0fae2096f4c881c0aa0",
      "blockNumber": "0xb0a6f25",
      "gasUsed": "0x2b0d9",
      "effectiveGasPrice": "0x5f5e100",
      "from": "0xc3ca11bd8e131471904dced927b3fb7edb453179",
      "to": "0x58b610a359c870e0fc941139821a51f5aa23f14e",
      "contractAddress": null,
      "gasUsedForL1": "0x28",
      "l1BlockNumber": "0x897f10",
      "timeboosted": false
    }
  ],
  "libraries": [],
  "pending": [],
  "returns": {},
  "timestamp": 1755518765,
  "chain": 421614,
  "commit": "0e925fd"
}