{
  "transactions": [
    {
      "hash": "0x921702e51b51c2233b7d1d389f9b4e55fb9a29811f15ddda3f7819d4ade8b210",
      "transactionType": "CALL",
      "contractName": null,
      "contractAddress": "0xa9522e00101ee85f3b8e6a4f0723f5ea4a2f0a50",
      "function": "getFeeTokenList()",
      "arguments": [],
      "transaction": {
        "from": "0xe62ab4d111f968660c6b2188046f9b9ba53c4bae",
        "to": "0xa9522e00101ee85f3b8e6a4f0723f5ea4a2f0a50",
        "gas": "0x8a7e",
        "value": "0x0",
        "input": "0xe28ab277",
        "nonce": "0x12f",
        "chainId": "0x13882"
      },
      "additionalContracts": [],
      "isFixedGasLimit": false
    },
    {
      "hash": "0x266e24dd66afa96f168448c8ec4e66e967543a9249928c9b4de9aa755683def8",
      "transactionType": "CALL",
      "contractName": null,
      "contractAddress": "0xa9522e00101ee85f3b8e6a4f0723f5ea4a2f0a50",
      "function": "addFeeToken(string)",
      "arguments": [
        "0x6a4dbc971533ba36bdc23ad70f5a7a12e064f4ae"
      ],
      "transaction": {
        "from": "0xe62ab4d111f968660c6b2188046f9b9ba53c4bae",
        "to": "0xa9522e00101ee85f3b8e6a4f0723f5ea4a2f0a50",
        "gas": "0x2696b",
        "value": "0x0",
        "input": "0x12a6385f0000000000000000000000000000000000000000000000000000000000000020000000000000000000000000000000000000000000000000000000000000002a30783661346462633937313533336261333662646332336164373066356137613132653036346634616500000000000000000000000000000000000000000000",
        "nonce": "0x130",
        "chainId": "0x13882"
      },
      "additionalContracts": [],
      "isFixedGasLimit": false
    },
    {
      "hash": "0xb530e64914de9adcfec7e65241ecb9306799bb941adcdd0e781871a34a72e429",
      "transactionType": "CALL",
      "contractName": null,
      "contractAddress": "0xa9522e00101ee85f3b8e6a4f0723f5ea4a2f0a50",
      "function": "setFeeMultiplier(uint8,uint256)",
      "arguments": [
        "0",
        "2"
      ],
      "transaction": {
        "from": "0xe62ab4d111f968660c6b2188046f9b9ba53c4bae",
        "to": "0xa9522e00101ee85f3b8e6a4f0723f5ea4a2f0a50",
        "gas": "0x112e8",
        "value": "0x0",
        "input": "0x0ee24eb500000000000000000000000000000000000000000000000000000000000000000000000000000000000000000000000000000000000000000000000000000002",
        "nonce": "0x131",
        "chainId": "0x13882"
      },
      "additionalContracts": [],
      "isFixedGasLimit": false
    },
    {
      "hash": "0xa18e46158778751ab9e80b6b1b0bd9a6beff7cbf37804a53b654f98d6d74dff4",
      "transactionType": "CALL",
      "contractName": null,
      "contractAddress": "0xa9522e00101ee85f3b8e6a4f0723f5ea4a2f0a50",
      "function": "setFeeMultiplier(uint8,uint256)",
      "arguments": [
        "1",
        "10"
      ],
      "transaction": {
        "from": "0xe62ab4d111f968660c6b2188046f9b9ba53c4bae",
        "to": "0xa9522e00101ee85f3b8e6a4f0723f5ea4a2f0a50",
        "gas": "0x11324",
        "value": "0x0",
        "input": "0x0ee24eb50000000000000000000000000000000000000000000000000000000000000001000000000000000000000000000000000000000000000000000000000000000a",
        "nonce": "0x132",
        "chainId": "0x13882"
      },
      "additionalContracts": [],
      "isFixedGasLimit": false
    },
    {
      "hash": "0x55669b5e3c4ac52b4ac61269d106d96ac63e0bd74c6972e8e1e0f7f1132af0cb",
      "transactionType": "CALL",
      "contractName": null,
      "contractAddress": "0xa9522e00101ee85f3b8e6a4f0723f5ea4a2f0a50",
      "function": "setFeeMultiplier(uint8,uint256)",
      "arguments": [
        "2",
        "1"
      ],
      "transaction": {
        "from": "0xe62ab4d111f968660c6b2188046f9b9ba53c4bae",
        "to": "0xa9522e00101ee85f3b8e6a4f0723f5ea4a2f0a50",
        "gas": "0x11346",
        "value": "0x0",
        "input": "0x0ee24eb500000000000000000000000000000000000000000000000000000000000000020000000000000000000000000000000000000000000000000000000000000001",
        "nonce": "0x133",
        "chainId": "0x13882"
      },
      "additionalContracts": [],
      "isFixedGasLimit": false
    },
    {
      "hash": "0x5b93ead10004cada6194030e5b2f42cb20bece3d70c37722c08d997b82d38cbd",
      "transactionType": "CALL",
      "contractName": null,
      "contractAddress": "0xa9522e00101ee85f3b8e6a4f0723f5ea4a2f0a50",
      "function": "setFeeMultiplier(uint8,uint256)",
      "arguments": [
        "3",
        "4"
      ],
      "transaction": {
        "from": "0xe62ab4d111f968660c6b2188046f9b9ba53c4bae",
        "to": "0xa9522e00101ee85f3b8e6a4f0723f5ea4a2f0a50",
        "gas": "0x1041b",
        "value": "0x0",
        "input": "0x0ee24eb500000000000000000000000000000000000000000000000000000000000000030000000000000000000000000000000000000000000000000000000000000004",
        "nonce": "0x134",
        "chainId": "0x13882"
      },
      "additionalContracts": [],
      "isFixedGasLimit": false
    },
    {
      "hash": "0x99f2597389c83a2613d1c0944e7ab4b5e46ffa5d2a2b32f3865cb978b9697f42",
      "transactionType": "CALL",
      "contractName": null,
      "contractAddress": "0xa9522e00101ee85f3b8e6a4f0723f5ea4a2f0a50",
      "function": "setFeeMultiplier(uint8,uint256)",
      "arguments": [
        "4",
        "4"
      ],
      "transaction": {
        "from": "0xe62ab4d111f968660c6b2188046f9b9ba53c4bae",
        "to": "0xa9522e00101ee85f3b8e6a4f0723f5ea4a2f0a50",
        "gas": "0x1043a",
        "value": "0x0",
        "input": "0x0ee24eb500000000000000000000000000000000000000000000000000000000000000040000000000000000000000000000000000000000000000000000000000000004",
        "nonce": "0x135",
        "chainId": "0x13882"
      },
      "additionalContracts": [],
      "isFixedGasLimit": false
    },
    {
      "hash": "0xe7648284e888de49d2ac6fccfef4a92516f28994bf5ad56045fe34229dec3ed3",
      "transactionType": "CALL",
      "contractName": null,
      "contractAddress": "0xa9522e00101ee85f3b8e6a4f0723f5ea4a2f0a50",
      "function": "setFeeMultiplier(uint8,uint256)",
      "arguments": [
        "5",
        "8"
      ],
      "transaction": {
        "from": "0xe62ab4d111f968660c6b2188046f9b9ba53c4bae",
        "to": "0xa9522e00101ee85f3b8e6a4f0723f5ea4a2f0a50",
        "gas": "0x10459",
        "value": "0x0",
        "input": "0x0ee24eb500000000000000000000000000000000000000000000000000000000000000050000000000000000000000000000000000000000000000000000000000000008",
        "nonce": "0x136",
        "chainId": "0x13882"
      },
      "additionalContracts": [],
      "isFixedGasLimit": false
    },
    {
      "hash": "0xbac15fb36a65177ddb6f7acc9a74e6bd9a35c044d03475859fec6625200ddef9",
      "transactionType": "CALL",
      "contractName": null,
      "contractAddress": "0xa9522e00101ee85f3b8e6a4f0723f5ea4a2f0a50",
      "function": "setFeeMultiplier(uint8,uint256)",
      "arguments": [
        "6",
        "4"
      ],
      "transaction": {
        "from": "0xe62ab4d111f968660c6b2188046f9b9ba53c4bae",
        "to": "0xa9522e00101ee85f3b8e6a4f0723f5ea4a2f0a50",
        "gas": "0x1047a",
        "value": "0x0",
        "input": "0x0ee24eb500000000000000000000000000000000000000000000000000000000000000060000000000000000000000000000000000000000000000000000000000000004",
        "nonce": "0x137",
        "chainId": "0x13882"
      },
      "additionalContracts": [],
      "isFixedGasLimit": false
    },
    {
      "hash": "0x91e30cad7131a8f154451135041e73dee7dddabeafb882197fa89a70a927b9c9",
      "transactionType": "CALL",
      "contractName": null,
      "contractAddress": "0xa9522e00101ee85f3b8e6a4f0723f5ea4a2f0a50",
      "function": "setFeeMultiplier(uint8,uint256)",
      "arguments": [
        "7",
        "10"
      ],
      "transaction": {
        "from": "0xe62ab4d111f968660c6b2188046f9b9ba53c4bae",
        "to": "0xa9522e00101ee85f3b8e6a4f0723f5ea4a2f0a50",
        "gas": "0x10499",
        "value": "0x0",
        "input": "0x0ee24eb50000000000000000000000000000000000000000000000000000000000000007000000000000000000000000000000000000000000000000000000000000000a",
        "nonce": "0x138",
        "chainId": "0x13882"
      },
      "additionalContracts": [],
      "isFixedGasLimit": false
    },
    {
      "hash": "0x3ec3dcce5b0b2a0eadcc5e04bba0d0e0970f635c8b8a9e4323c779d52c21c720",
      "transactionType": "CALL",
      "contractName": null,
      "contractAddress": "0xa9522e00101ee85f3b8e6a4f0723f5ea4a2f0a50",
      "function": "setFeeMultiplier(uint8,uint256)",
      "arguments": [
        "8",
        "8"
      ],
      "transaction": {
        "from": "0xe62ab4d111f968660c6b2188046f9b9ba53c4bae",
        "to": "0xa9522e00101ee85f3b8e6a4f0723f5ea4a2f0a50",
        "gas": "0x1140f",
        "value": "0x0",
        "input": "0x0ee24eb500000000000000000000000000000000000000000000000000000000000000080000000000000000000000000000000000000000000000000000000000000008",
        "nonce": "0x139",
        "chainId": "0x13882"
      },
      "additionalContracts": [],
      "isFixedGasLimit": false
    },
    {
      "hash": "0xca19ecc7b6f2b661e634c1a372c7b21aa534c11d750553e3608bf091a165cdc0",
      "transactionType": "CALL",
      "contractName": null,
      "contractAddress": "0xa9522e00101ee85f3b8e6a4f0723f5ea4a2f0a50",
      "function": "setFeeMultiplier(uint8,uint256)",
      "arguments": [
        "9",
        "8"
      ],
      "transaction": {
        "from": "0xe62ab4d111f968660c6b2188046f9b9ba53c4bae",
        "to": "0xa9522e00101ee85f3b8e6a4f0723f5ea4a2f0a50",
        "gas": "0x11431",
        "value": "0x0",
        "input": "0x0ee24eb500000000000000000000000000000000000000000000000000000000000000090000000000000000000000000000000000000000000000000000000000000008",
        "nonce": "0x13a",
        "chainId": "0x13882"
      },
      "additionalContracts": [],
      "isFixedGasLimit": false
    },
    {
      "hash": "0x60a439c87330384ee8e84c76ae0b0fbc3b0d1712bb87e0415a8b7b590b80cae1",
      "transactionType": "CALL",
      "contractName": null,
      "contractAddress": "0xa9522e00101ee85f3b8e6a4f0723f5ea4a2f0a50",
      "function": "setFeeMultiplier(uint8,uint256)",
      "arguments": [
        "10",
        "8"
      ],
      "transaction": {
        "from": "0xe62ab4d111f968660c6b2188046f9b9ba53c4bae",
        "to": "0xa9522e00101ee85f3b8e6a4f0723f5ea4a2f0a50",
        "gas": "0x11453",
        "value": "0x0",
        "input": "0x0ee24eb5000000000000000000000000000000000000000000000000000000000000000a0000000000000000000000000000000000000000000000000000000000000008",
        "nonce": "0x13b",
        "chainId": "0x13882"
      },
      "additionalContracts": [],
      "isFixedGasLimit": false
    },
    {
      "hash": "0xaab12d2c7b3615212d6e6a3af5963f95aaf09c39d6be6eea5b203820a3423630",
      "transactionType": "CALL",
      "contractName": null,
      "contractAddress": "0xa9522e00101ee85f3b8e6a4f0723f5ea4a2f0a50",
      "function": "setFeeMultiplier(uint8,uint256)",
      "arguments": [
        "11",
        "20"
      ],
      "transaction": {
        "from": "0xe62ab4d111f968660c6b2188046f9b9ba53c4bae",
        "to": "0xa9522e00101ee85f3b8e6a4f0723f5ea4a2f0a50",
        "gas": "0x10518",
        "value": "0x0",
        "input": "0x0ee24eb5000000000000000000000000000000000000000000000000000000000000000b0000000000000000000000000000000000000000000000000000000000000014",
        "nonce": "0x13c",
        "chainId": "0x13882"
      },
      "additionalContracts": [],
      "isFixedGasLimit": false
    },
    {
      "hash": "0xff6669425e8d900df003bef9e835203552cca3d042e797ee83ead869f0b92ac6",
      "transactionType": "CALL",
      "contractName": null,
      "contractAddress": "0xa9522e00101ee85f3b8e6a4f0723f5ea4a2f0a50",
      "function": "setFeeMultiplier(uint8,uint256)",
      "arguments": [
        "12",
        "8"
      ],
      "transaction": {
        "from": "0xe62ab4d111f968660c6b2188046f9b9ba53c4bae",
        "to": "0xa9522e00101ee85f3b8e6a4f0723f5ea4a2f0a50",
        "gas": "0x10538",
        "value": "0x0",
        "input": "0x0ee24eb5000000000000000000000000000000000000000000000000000000000000000c0000000000000000000000000000000000000000000000000000000000000008",
        "nonce": "0x13d",
        "chainId": "0x13882"
      },
      "additionalContracts": [],
      "isFixedGasLimit": false
    },
    {
      "hash": "0x54019d6fb631b1c6f43da05e81b9a96da0a36247325a2044b43e8d9e037c6bcd",
      "transactionType": "CALL",
      "contractName": null,
      "contractAddress": "0xa9522e00101ee85f3b8e6a4f0723f5ea4a2f0a50",
      "function": "setFeeMultiplier(uint8,uint256)",
      "arguments": [
        "13",
        "4"
      ],
      "transaction": {
        "from": "0xe62ab4d111f968660c6b2188046f9b9ba53c4bae",
        "to": "0xa9522e00101ee85f3b8e6a4f0723f5ea4a2f0a50",
        "gas": "0x10558",
        "value": "0x0",
        "input": "0x0ee24eb5000000000000000000000000000000000000000000000000000000000000000d0000000000000000000000000000000000000000000000000000000000000004",
        "nonce": "0x13e",
        "chainId": "0x13882"
      },
      "additionalContracts": [],
      "isFixedGasLimit": false
    },
    {
      "hash": "0xfb51d6256802aab5535b1cba810f774818c5b78f1b7463a68649883b4d26c5da",
      "transactionType": "CALL",
      "contractName": null,
      "contractAddress": "0xa9522e00101ee85f3b8e6a4f0723f5ea4a2f0a50",
      "function": "setFeeMultiplier(uint8,uint256)",
      "arguments": [
        "14",
        "4"
      ],
      "transaction": {
        "from": "0xe62ab4d111f968660c6b2188046f9b9ba53c4bae",
        "to": "0xa9522e00101ee85f3b8e6a4f0723f5ea4a2f0a50",
        "gas": "0x10577",
        "value": "0x0",
        "input": "0x0ee24eb5000000000000000000000000000000000000000000000000000000000000000e0000000000000000000000000000000000000000000000000000000000000004",
        "nonce": "0x13f",
        "chainId": "0x13882"
      },
      "additionalContracts": [],
      "isFixedGasLimit": false
    },
    {
      "hash": "0x9499a70b0c8be9acb74b4054f86c0b4818d5baf0e87da07b00f3782f2dbd5fd8",
      "transactionType": "CALL",
      "contractName": null,
      "contractAddress": "0xa9522e00101ee85f3b8e6a4f0723f5ea4a2f0a50",
      "function": "setFeeMultiplier(uint8,uint256)",
      "arguments": [
        "15",
        "4"
      ],
      "transaction": {
        "from": "0xe62ab4d111f968660c6b2188046f9b9ba53c4bae",
        "to": "0xa9522e00101ee85f3b8e6a4f0723f5ea4a2f0a50",
        "gas": "0x10598",
        "value": "0x0",
        "input": "0x0ee24eb5000000000000000000000000000000000000000000000000000000000000000f0000000000000000000000000000000000000000000000000000000000000004",
        "nonce": "0x140",
        "chainId": "0x13882"
      },
      "additionalContracts": [],
      "isFixedGasLimit": false
    },
    {
      "hash": "0xb9ee9f282dbc69348527e7da0c0dc12534b2d6b3c9212ca798c3facb26ff659e",
      "transactionType": "CALL",
      "contractName": null,
      "contractAddress": "0xa9522e00101ee85f3b8e6a4f0723f5ea4a2f0a50",
      "function": "setFeeMultiplier(uint8,uint256)",
      "arguments": [
        "16",
        "2"
      ],
      "transaction": {
        "from": "0xe62ab4d111f968660c6b2188046f9b9ba53c4bae",
        "to": "0xa9522e00101ee85f3b8e6a4f0723f5ea4a2f0a50",
        "gas": "0x105b0",
        "value": "0x0",
        "input": "0x0ee24eb500000000000000000000000000000000000000000000000000000000000000100000000000000000000000000000000000000000000000000000000000000002",
        "nonce": "0x141",
        "chainId": "0x13882"
      },
      "additionalContracts": [],
      "isFixedGasLimit": false
    },
    {
      "hash": "0x79ebb184cdf5f4774e64900d95887843b0c5a93cf249030f1c809052405adb5f",
      "transactionType": "CALL",
      "contractName": null,
      "contractAddress": "0xa9522e00101ee85f3b8e6a4f0723f5ea4a2f0a50",
      "function": "addFeeToken(string,string[],uint256[])",
      "arguments": [
        "421614",
        "[0x6a4dbc971533ba36bdc23ad70f5a7a12e064f4ae]",
        "[100]"
      ],
      "transaction": {
        "from": "0xe62ab4d111f968660c6b2188046f9b9ba53c4bae",
        "to": "0xa9522e00101ee85f3b8e6a4f0723f5ea4a2f0a50",
        "gas": "0x2f631",
        "value": "0x0",
        "input": "0x437bf84f000000000000000000000000000000000000000000000000000000000000006000000000000000000000000000000000000000000000000000000000000000a000000000000000000000000000000000000000000000000000000000000001400000000000000000000000000000000000000000000000000000000000000006343231363134000000000000000000000000000000000000000000000000000000000000000000000000000000000000000000000000000000000000000000010000000000000000000000000000000000000000000000000000000000000020000000000000000000000000000000000000000000000000000000000000002a3078366134646263393731353333626133366264633233616437306635613761313265303634663461650000000000000000000000000000000000000000000000000000000000000000000000000000000000000000000000000000000000010000000000000000000000000000000000000000000000000000000000000064",
        "nonce": "0x142",
        "chainId": "0x13882"
      },
      "additionalContracts": [],
      "isFixedGasLimit": false
    },
    {
      "hash": "0x51386e6134cb0968a38c985a9ba774e2c5680eb4433b86229b468bf7512278bc",
      "transactionType": "CALL",
      "contractName": null,
      "contractAddress": "0xa9522e00101ee85f3b8e6a4f0723f5ea4a2f0a50",
      "function": "addFeeToken(string,string[],uint256[])",
      "arguments": [
        "80002",
        "[0x6a4dbc971533ba36bdc23ad70f5a7a12e064f4ae]",
        "[100]"
      ],
      "transaction": {
        "from": "0xe62ab4d111f968660c6b2188046f9b9ba53c4bae",
        "to": "0xa9522e00101ee85f3b8e6a4f0723f5ea4a2f0a50",
        "gas": "0x2a2a1",
        "value": "0x0",
        "input": "0x437bf84f000000000000000000000000000000000000000000000000000000000000006000000000000000000000000000000000000000000000000000000000000000a000000000000000000000000000000000000000000000000000000000000001400000000000000000000000000000000000000000000000000000000000000005383030303200000000000000000000000000000000000000000000000000000000000000000000000000000000000000000000000000000000000000000000010000000000000000000000000000000000000000000000000000000000000020000000000000000000000000000000000000000000000000000000000000002a3078366134646263393731353333626133366264633233616437306635613761313265303634663461650000000000000000000000000000000000000000000000000000000000000000000000000000000000000000000000000000000000010000000000000000000000000000000000000000000000000000000000000064",
        "nonce": "0x143",
        "chainId": "0x13882"
      },
      "additionalContracts": [],
      "isFixedGasLimit": false
    },
    {
      "hash": "0xc59296fc14f51836423296eb410507ef1daff8aef959a17cc2861bd06d1e92ec",
      "transactionType": "CALL",
      "contractName": null,
      "contractAddress": "0xa9522e00101ee85f3b8e6a4f0723f5ea4a2f0a50",
      "function": "addFeeToken(string,string[],uint256[])",
      "arguments": [
        "84532",
        "[0x6a4dbc971533ba36bdc23ad70f5a7a12e064f4ae]",
        "[100]"
      ],
      "transaction": {
        "from": "0xe62ab4d111f968660c6b2188046f9b9ba53c4bae",
        "to": "0xa9522e00101ee85f3b8e6a4f0723f5ea4a2f0a50",
        "gas": "0x2a2a1",
        "value": "0x0",
        "input": "0x437bf84f000000000000000000000000000000000000000000000000000000000000006000000000000000000000000000000000000000000000000000000000000000a000000000000000000000000000000000000000000000000000000000000001400000000000000000000000000000000000000000000000000000000000000005383435333200000000000000000000000000000000000000000000000000000000000000000000000000000000000000000000000000000000000000000000010000000000000000000000000000000000000000000000000000000000000020000000000000000000000000000000000000000000000000000000000000002a3078366134646263393731353333626133366264633233616437306635613761313265303634663461650000000000000000000000000000000000000000000000000000000000000000000000000000000000000000000000000000000000010000000000000000000000000000000000000000000000000000000000000064",
        "nonce": "0x144",
        "chainId": "0x13882"
      },
      "additionalContracts": [],
      "isFixedGasLimit": false
    },
    {
      "hash": "0xb60023c42333895f8a62a0a28172edbcff3d16662e7b0c8be51f8906d0f20ae7",
      "transactionType": "CALL",
      "contractName": null,
      "contractAddress": "0xa9522e00101ee85f3b8e6a4f0723f5ea4a2f0a50",
      "function": "addFeeToken(string,string[],uint256[])",
      "arguments": [
        "97",
        "[0x6a4dbc971533ba36bdc23ad70f5a7a12e064f4ae]",
        "[100]"
      ],
      "transaction": {
        "from": "0xe62ab4d111f968660c6b2188046f9b9ba53c4bae",
        "to": "0xa9522e00101ee85f3b8e6a4f0723f5ea4a2f0a50",
        "gas": "0x29c5a",
        "value": "0x0",
        "input": "0x437bf84f000000000000000000000000000000000000000000000000000000000000006000000000000000000000000000000000000000000000000000000000000000a000000000000000000000000000000000000000000000000000000000000001400000000000000000000000000000000000000000000000000000000000000002393700000000000000000000000000000000000000000000000000000000000000000000000000000000000000000000000000000000000000000000000000010000000000000000000000000000000000000000000000000000000000000020000000000000000000000000000000000000000000000000000000000000002a3078366134646263393731353333626133366264633233616437306635613761313265303634663461650000000000000000000000000000000000000000000000000000000000000000000000000000000000000000000000000000000000010000000000000000000000000000000000000000000000000000000000000064",
        "nonce": "0x145",
        "chainId": "0x13882"
      },
      "additionalContracts": [],
      "isFixedGasLimit": false
    },
    {
      "hash": "0xf121541c32ca5da732bcfda31fb7efeb6a28340e98f0060cd6dc5684fa613f85",
      "transactionType": "CALL",
      "contractName": null,
      "contractAddress": "0xa9522e00101ee85f3b8e6a4f0723f5ea4a2f0a50",
      "function": "addFeeToken(string,string[],uint256[])",
      "arguments": [
        "11155111",
        "[0x6a4dbc971533ba36bdc23ad70f5a7a12e064f4ae]",
        "[100]"
      ],
      "transaction": {
        "from": "0xe62ab4d111f968660c6b2188046f9b9ba53c4bae",
        "to": "0xa9522e00101ee85f3b8e6a4f0723f5ea4a2f0a50",
        "gas": "0x2a8e9",
        "value": "0x0",
        "input": "0x437bf84f000000000000000000000000000000000000000000000000000000000000006000000000000000000000000000000000000000000000000000000000000000a000000000000000000000000000000000000000000000000000000000000001400000000000000000000000000000000000000000000000000000000000000008313131353531313100000000000000000000000000000000000000000000000000000000000000000000000000000000000000000000000000000000000000010000000000000000000000000000000000000000000000000000000000000020000000000000000000000000000000000000000000000000000000000000002a3078366134646263393731353333626133366264633233616437306635613761313265303634663461650000000000000000000000000000000000000000000000000000000000000000000000000000000000000000000000000000000000010000000000000000000000000000000000000000000000000000000000000064",
        "nonce": "0x146",
        "chainId": "0x13882"
      },
      "additionalContracts": [],
      "isFixedGasLimit": false
    },
    {
      "hash": "0x1385adac23341dc05bfb7ec47c12eefb0de6595dc8d4084346b5b01cfac8a6c0",
      "transactionType": "CALL",
      "contractName": null,
      "contractAddress": "0xfdd1a5b3aeea2df15a6f6b502784b61bdcbf66bc",
      "function": "addChainContract(string[],string[])",
      "arguments": [
        "[421614, 84532, 97, 11155111]",
        "[0xeb4b038c0f1f086bb7ab5b4192611015aff95390, 0xea4a06cb68aba869e6bf98edc4bdbc731d2d82e3, 0xc0dd542bcac26095a2c83ffb10826ccef806c07b, 0xf065f9bbd5f59afa0d24be34bdf8ad483485ed1c]"
      ],
      "transaction": {
        "from": "0xe62ab4d111f968660c6b2188046f9b9ba53c4bae",
        "to": "0xfdd1a5b3aeea2df15a6f6b502784b61bdcbf66bc",
        "gas": "0xaaaf8",
        "value": "0x0",
        "input": "0x013fd3bd000000000000000000000000000000000000000000000000000000000000004000000000000000000000000000000000000000000000000000000000000001e00000000000000000000000000000000000000000000000000000000000000004000000000000000000000000000000000000000000000000000000000000008000000000000000000000000000000000000000000000000000000000000000c000000000000000000000000000000000000000000000000000000000000001000000000000000000000000000000000000000000000000000000000000000140000000000000000000000000000000000000000000000000000000000000000634323136313400000000000000000000000000000000000000000000000000000000000000000000000000000000000000000000000000000000000000000005383435333200000000000000000000000000000000000000000000000000000000000000000000000000000000000000000000000000000000000000000000023937000000000000000000000000000000000000000000000000000000000000000000000000000000000000000000000000000000000000000000000000000831313135353131310000000000000000000000000000000000000000000000000000000000000000000000000000000000000000000000000000000000000004000000000000000000000000000000000000000000000000000000000000008000000000000000000000000000000000000000000000000000000000000000e0000000000000000000000000000000000000000000000000000000000000014000000000000000000000000000000000000000000000000000000000000001a0000000000000000000000000000000000000000000000000000000000000002a30786562346230333863306631663038366262376162356234313932363131303135616666393533393000000000000000000000000000000000000000000000000000000000000000000000000000000000000000000000000000000000002a30786561346130366362363861626138363965366266393865646334626462633733316432643832653300000000000000000000000000000000000000000000000000000000000000000000000000000000000000000000000000000000002a30786330646435343262636163323630393561326338336666623130383236636365663830366330376200000000000000000000000000000000000000000000000000000000000000000000000000000000000000000000000000000000002a30786630363566396262643566353961666130643234626533346264663861643438333438356564316300000000000000000000000000000000000000000000",
        "nonce": "0x147",
        "chainId": "0x13882"
      },
      "additionalContracts": [],
      "isFixedGasLimit": false
    },
    {
      "hash": "0x1fc88427d261fb8686a857e4e0e18e4281120cd8c63236b155b5b074dd14252b",
      "transactionType": "CALL",
      "contractName": null,
      "contractAddress": "0xfdd1a5b3aeea2df15a6f6b502784b61bdcbf66bc",
      "function": "attachRWAX(uint256,uint256,string[],string[])",
      "arguments": [
        "1",
        "1",
        "[80002, 421614, 84532, 97, 11155111]",
        "[0xd586ea1fce09384f71b69e80f643135fc0641def, 0xb3aefea9f49de70c41ce22afa321e64393932d21, 0x9a0f81de582ce9194feadc6ccefaf9ea70451616, 0x7658e59cdba5e7e08263a216e89c8438c9f02048, 0x1ee4ba474da815f728df08f0147defac07f0bab3]"
      ],
      "transaction": {
        "from": "0xe62ab4d111f968660c6b2188046f9b9ba53c4bae",
        "to": "0xfdd1a5b3aeea2df15a6f6b502784b61bdcbf66bc",
        "gas": "0xe3f41",
        "value": "0x0",
        "input": "0x33a5f5b40000000000000000000000000000000000000000000000000000000000000001000000000000000000000000000000000000000000000000000000000000000100000000000000000000000000000000000000000000000000000000000000800000000000000000000000000000000000000000000000000000000000000280000000000000000000000000000000000000000000000000000000000000000500000000000000000000000000000000000000000000000000000000000000a000000000000000000000000000000000000000000000000000000000000000e00000000000000000000000000000000000000000000000000000000000000120000000000000000000000000000000000000000000000000000000000000016000000000000000000000000000000000000000000000000000000000000001a00000000000000000000000000000000000000000000000000000000000000005383030303200000000000000000000000000000000000000000000000000000000000000000000000000000000000000000000000000000000000000000000063432313631340000000000000000000000000000000000000000000000000000000000000000000000000000000000000000000000000000000000000000000538343533320000000000000000000000000000000000000000000000000000000000000000000000000000000000000000000000000000000000000000000002393700000000000000000000000000000000000000000000000000000000000000000000000000000000000000000000000000000000000000000000000000083131313535313131000000000000000000000000000000000000000000000000000000000000000000000000000000000000000000000000000000000000000500000000000000000000000000000000000000000000000000000000000000a00000000000000000000000000000000000000000000000000000000000000100000000000000000000000000000000000000000000000000000000000000016000000000000000000000000000000000000000000000000000000000000001c00000000000000000000000000000000000000000000000000000000000000220000000000000000000000000000000000000000000000000000000000000002a30786435383665613166636530393338346637316236396538306636343331333566633036343164656600000000000000000000000000000000000000000000000000000000000000000000000000000000000000000000000000000000002a30786233616566656139663439646537306334316365323261666133323165363433393339333264323100000000000000000000000000000000000000000000000000000000000000000000000000000000000000000000000000000000002a30783961306638316465353832636539313934666561646336636365666166396561373034353136313600000000000000000000000000000000000000000000000000000000000000000000000000000000000000000000000000000000002a30783736353865353963646261356537653038323633613231366538396338343338633966303230343800000000000000000000000000000000000000000000000000000000000000000000000000000000000000000000000000000000002a30783165653462613437346461383135663732386466303866303134376465666163303766306261623300000000000000000000000000000000000000000000",
        "nonce": "0x148",
        "chainId": "0x13882"
      },
      "additionalContracts": [],
      "isFixedGasLimit": false
    },
    {
      "hash": "0x65ca2a5c0b3e2511fcbf167fd28ff5acc6e96944ca019ff233299ec02adeed60",
      "transactionType": "CALL",
      "contractName": null,
      "contractAddress": "0xfdd1a5b3aeea2df15a6f6b502784b61bdcbf66bc",
      "function": "attachStorageManager(uint256,uint256,string[],string[])",
      "arguments": [
        "1",
        "1",
        "[80002, 421614, 84532, 97, 11155111]",
        "[0xb523f0e72a7bdf94a5a3d84ba9e8dc42e69229ea, 0x37c7137dc6e3dc3c3637bfed3f6dbfbd43386429, 0x9372cd1287e0bb6337802d80dff342348c85fd78, 0x855c06f9f7b01838dc540ec6fcff17fd86a378d8, 0xcbf4e5fda887e602e5132fa800d74154dfb5b237]"
      ],
      "transaction": {
        "from": "0xe62ab4d111f968660c6b2188046f9b9ba53c4bae",
        "to": "0xfdd1a5b3aeea2df15a6f6b502784b61bdcbf66bc",
        "gas": "0xe3d55",
        "value": "0x0",
        "input": "0x2f68b4890000000000000000000000000000000000000000000000000000000000000001000000000000000000000000000000000000000000000000000000000000000100000000000000000000000000000000000000000000000000000000000000800000000000000000000000000000000000000000000000000000000000000280000000000000000000000000000000000000000000000000000000000000000500000000000000000000000000000000000000000000000000000000000000a000000000000000000000000000000000000000000000000000000000000000e00000000000000000000000000000000000000000000000000000000000000120000000000000000000000000000000000000000000000000000000000000016000000000000000000000000000000000000000000000000000000000000001a00000000000000000000000000000000000000000000000000000000000000005383030303200000000000000000000000000000000000000000000000000000000000000000000000000000000000000000000000000000000000000000000063432313631340000000000000000000000000000000000000000000000000000000000000000000000000000000000000000000000000000000000000000000538343533320000000000000000000000000000000000000000000000000000000000000000000000000000000000000000000000000000000000000000000002393700000000000000000000000000000000000000000000000000000000000000000000000000000000000000000000000000000000000000000000000000083131313535313131000000000000000000000000000000000000000000000000000000000000000000000000000000000000000000000000000000000000000500000000000000000000000000000000000000000000000000000000000000a00000000000000000000000000000000000000000000000000000000000000100000000000000000000000000000000000000000000000000000000000000016000000000000000000000000000000000000000000000000000000000000001c00000000000000000000000000000000000000000000000000000000000000220000000000000000000000000000000000000000000000000000000000000002a30786235323366306537326137626466393461356133643834626139653864633432653639323239656100000000000000000000000000000000000000000000000000000000000000000000000000000000000000000000000000000000002a30783337633731333764633665336463336333363337626665643366366462666264343333383634323900000000000000000000000000000000000000000000000000000000000000000000000000000000000000000000000000000000002a30783933373263643132383765306262363333373830326438306466663334323334386338356664373800000000000000000000000000000000000000000000000000000000000000000000000000000000000000000000000000000000002a30783835356330366639663762303138333864633534306563366663666631376664383661333738643800000000000000000000000000000000000000000000000000000000000000000000000000000000000000000000000000000000002a30786362663465356664613838376536303265353133326661383030643734313534646662356232333700000000000000000000000000000000000000000000",
        "nonce": "0x149",
        "chainId": "0x13882"
      },
      "additionalContracts": [],
      "isFixedGasLimit": false
    }
  ],
  "receipts": [
    {
      "status": "0x1",
      "cumulativeGasUsed": "0x5eb3",
      "logs": [
        {
          "address": "0x0000000000000000000000000000000000001010",
          "topics": [
            "0x4dfe1bbbcf077ddc3e01291eea2d5c70c2b422b415d95645b9adcfd678cb1d63",
            "0x0000000000000000000000000000000000000000000000000000000000001010",
            "0x000000000000000000000000e62ab4d111f968660c6b2188046f9b9ba53c4bae",
            "0x0000000000000000000000006dc2dd54f24979ec26212794c71afefed722280c"
          ],
          "data": "0x00000000000000000000000000000000000000000000000000033ad53f9f9500000000000000000000000000000000000000000000000002460bd27ebcbbe382000000000000000000000000000000000000000000000422568d98b34599e660000000000000000000000000000000000000000000000002460897a97d1c4e820000000000000000000000000000000000000000000004225690d38885397b60",
          "blockHash": "0x8b38b809ab6911455496b0d4ffb4d5b2d7e375a65a3a88f20615ed10e81c2821",
          "blockNumber": "0xe0662c",
          "transactionHash": "0x921702e51b51c2233b7d1d389f9b4e55fb9a29811f15ddda3f7819d4ade8b210",
          "transactionIndex": "0x0",
          "logIndex": "0x0",
          "removed": false
        }
      ],
      "logsBloom": "0x20000000000000000004000000000000000000000000000000000000000000000000000000000000000000000000000000008000000000000000000000000000000000000000000000000000000000800000000000000000000100080000000000000000000000000000000000000000000000000000000080000000000000020000000000000000000000000040040000000000000000000000000000000000200000000000000000000000000000000000000000000000000000000000004000000000000000000001000000000000000000000000000000100000000000000000000000000000000000000000000000000000000000000000000000100000",
      "type": "0x2",
      "transactionHash": "0x921702e51b51c2233b7d1d389f9b4e55fb9a29811f15ddda3f7819d4ade8b210",
      "transactionIndex": "0x0",
      "blockHash": "0x8b38b809ab6911455496b0d4ffb4d5b2d7e375a65a3a88f20615ed10e81c2821",
      "blockNumber": "0xe0662c",
      "gasUsed": "0x5eb3",
      "effectiveGasPrice": "0x8bb2c970f",
      "from": "0xe62ab4d111f968660c6b2188046f9b9ba53c4bae",
      "to": "0xa9522e00101ee85f3b8e6a4f0723f5ea4a2f0a50",
      "contractAddress": null
    },
    {
      "status": "0x1",
      "cumulativeGasUsed": "0x3a2d4",
      "logs": [
        {
          "address": "0xa9522e00101ee85f3b8e6a4f0723f5ea4a2f0a50",
          "topics": [
            "0x1394cfab38f3fc78ed77ea6f9318782a446d96e7dc8e9a6b0149f6be25c08bcf",
            "0x0000000000000000000000006a4dbc971533ba36bdc23ad70f5a7a12e064f4ae"
          ],
          "data": "0x",
          "blockHash": "0xd67243a56f21dc34d7cabd8450889926f7ffcde21ab01b868c57b2514cf36dd5",
          "blockNumber": "0xe06630",
          "transactionHash": "0x266e24dd66afa96f168448c8ec4e66e967543a9249928c9b4de9aa755683def8",
          "transactionIndex": "0x1",
          "logIndex": "0x4",
          "removed": false
        },
        {
          "address": "0x0000000000000000000000000000000000001010",
          "topics": [
            "0x4dfe1bbbcf077ddc3e01291eea2d5c70c2b422b415d95645b9adcfd678cb1d63",
            "0x0000000000000000000000000000000000000000000000000000000000001010",
            "0x000000000000000000000000e62ab4d111f968660c6b2188046f9b9ba53c4bae",
            "0x00000000000000000000000085ebd6dc97d56f62e371382b38eae91f3bb4ecb2"
          ],
          "data": "0x000000000000000000000000000000000000000000000000000f3ed2dba90000000000000000000000000000000000000000000000000002460897a97d16c20500000000000000000000000000000000000000000000006b569974bd9807173600000000000000000000000000000000000000000000000245f958d6a16dc20500000000000000000000000000000000000000000000006b56a8b39073b01736",
          "blockHash": "0xd67243a56f21dc34d7cabd8450889926f7ffcde21ab01b868c57b2514cf36dd5",
          "blockNumber": "0xe06630",
          "transactionHash": "0x266e24dd66afa96f168448c8ec4e66e967543a9249928c9b4de9aa755683def8",
          "transactionIndex": "0x1",
          "logIndex": "0x5",
          "removed": false
        }
      ],
      "logsBloom": "0x20000000000000000004000000000000000200000000020000000000000000000000000000000000000000000000000000008000000000001010000000000000000000000000000000000000000000800000001000000000000100000000000000000000000000000000200000000000000000000000000080000000000000000000000100000000000000000000040000000000000000000010000000000000200000000000000000000000100000000000000100000000000000000000004000000000000000000001000000000000000000002000000000100000000000000000000000020000000000000000000000000000000000000000000000100000",
      "type": "0x2",
      "transactionHash": "0x266e24dd66afa96f168448c8ec4e66e967543a9249928c9b4de9aa755683def8",
      "transactionIndex": "0x1",
      "blockHash": "0xd67243a56f21dc34d7cabd8450889926f7ffcde21ab01b868c57b2514cf36dd5",
      "blockNumber": "0xe06630",
      "gasUsed": "0x1bf00",
      "effectiveGasPrice": "0x8bb2c970f",
      "from": "0xe62ab4d111f968660c6b2188046f9b9ba53c4bae",
      "to": "0xa9522e00101ee85f3b8e6a4f0723f5ea4a2f0a50",
      "contractAddress": null
    },
    {
      "status": "0x1",
      "cumulativeGasUsed": "0x12e2e",
      "logs": [
        {
          "address": "0x0000000000000000000000000000000000001010",
          "topics": [
            "0x4dfe1bbbcf077ddc3e01291eea2d5c70c2b422b415d95645b9adcfd678cb1d63",
            "0x0000000000000000000000000000000000000000000000000000000000001010",
            "0x000000000000000000000000e62ab4d111f968660c6b2188046f9b9ba53c4bae",
            "0x00000000000000000000000085ebd6dc97d56f62e371382b38eae91f3bb4ecb2"
          ],
          "data": "0x00000000000000000000000000000000000000000000000000066937a0abdf0000000000000000000000000000000000000000000000000245f958d6a153910500000000000000000000000000000000000000000000006b56d427bfde42db8e00000000000000000000000000000000000000000000000245f2ef9f00a7b20500000000000000000000000000000000000000000000006b56da90f77eeeba8e",
          "blockHash": "0x0e73a3d73e4d3902648e4f66970aa1a95c507db7476f55d6d4287885b2ac059c",
          "blockNumber": "0xe06632",
          "transactionHash": "0xb530e64914de9adcfec7e65241ecb9306799bb941adcdd0e781871a34a72e429",
          "transactionIndex": "0x1",
          "logIndex": "0x2",
          "removed": false
        }
      ],
      "logsBloom": "0x20000000000000000004000000000000000000000000020000000000000000000000000000000000000000000000000000008000000000000000000000000000000000000000000000000000000000800000000000000000000100000000000000000000000000000000000000000000000000000000000080000000000000000000000000000000000000000000040000000000000000000010000000000000200000000000000000000000000000000000000000000000000000000000004000000000000000000001000000000000000000000000000000100000000000000000000000020000000000000000000000000000000000000000000000100000",
      "type": "0x2",
      "transactionHash": "0xb530e64914de9adcfec7e65241ecb9306799bb941adcdd0e781871a34a72e429",
      "transactionIndex": "0x1",
      "blockHash": "0x0e73a3d73e4d3902648e4f66970aa1a95c507db7476f55d6d4287885b2ac059c",
      "blockNumber": "0xe06632",
      "gasUsed": "0xbbf9",
      "effectiveGasPrice": "0x8bb2c970f",
      "from": "0xe62ab4d111f968660c6b2188046f9b9ba53c4bae",
      "to": "0xa9522e00101ee85f3b8e6a4f0723f5ea4a2f0a50",
      "contractAddress": null
    },
    {
      "status": "0x1",
      "cumulativeGasUsed": "0x10e2a",
      "logs": [
        {
          "address": "0x0000000000000000000000000000000000001010",
          "topics": [
            "0x4dfe1bbbcf077ddc3e01291eea2d5c70c2b422b415d95645b9adcfd678cb1d63",
            "0x0000000000000000000000000000000000000000000000000000000000001010",
            "0x000000000000000000000000e62ab4d111f968660c6b2188046f9b9ba53c4bae",
            "0x00000000000000000000000085ebd6dc97d56f62e371382b38eae91f3bb4ecb2"
          ],
          "data": "0x00000000000000000000000000000000000000000000000000066a9d9ad00e0000000000000000000000000000000000000000000000000245f2ef9f009cae6e00000000000000000000000000000000000000000000006b56fbe1fd0fe11b5800000000000000000000000000000000000000000000000245ec850165cca06e00000000000000000000000000000000000000000000006b57024c9aaab12958",
          "blockHash": "0x3543791ae60b214cc6898c98a9f0b6e4e8716c2e5814c2fb950ac21061effd55",
          "blockNumber": "0xe06636",
          "transactionHash": "0xa18e46158778751ab9e80b6b1b0bd9a6beff7cbf37804a53b654f98d6d74dff4",
          "transactionIndex": "0x1",
          "logIndex": "0x2",
          "removed": false
        }
      ],
      "logsBloom": "0x20000000000000000004000000000000000000000000020000000000000000000000000000000000000000000000000000008000000000000000000000000000000000000000000000000000000000800000000000000000000100000000000000000000000000000000000000000000000000000000000080000000000000000000000000000000000000000000040000000000000000000010000000000000200000000000000000000000000000000000000000000000000000000000004000000000000000000001000000000000000000000000000000100000000000000000000000020000000000000000000000000000000000000000000000100000",
      "type": "0x2",
      "transactionHash": "0xa18e46158778751ab9e80b6b1b0bd9a6beff7cbf37804a53b654f98d6d74dff4",
      "transactionIndex": "0x1",
      "blockHash": "0x3543791ae60b214cc6898c98a9f0b6e4e8716c2e5814c2fb950ac21061effd55",
      "blockNumber": "0xe06636",
      "gasUsed": "0xbc22",
      "effectiveGasPrice": "0x8bb2c970f",
      "from": "0xe62ab4d111f968660c6b2188046f9b9ba53c4bae",
      "to": "0xa9522e00101ee85f3b8e6a4f0723f5ea4a2f0a50",
      "contractAddress": null
    },
    {
      "status": "0x1",
      "cumulativeGasUsed": "0xbc39",
      "logs": [
        {
          "address": "0x0000000000000000000000000000000000001010",
          "topics": [
            "0x4dfe1bbbcf077ddc3e01291eea2d5c70c2b422b415d95645b9adcfd678cb1d63",
            "0x0000000000000000000000000000000000000000000000000000000000001010",
            "0x000000000000000000000000e62ab4d111f968660c6b2188046f9b9ba53c4bae",
            "0x00000000000000000000000085ebd6dc97d56f62e371382b38eae91f3bb4ecb2"
          ],
          "data": "0x00000000000000000000000000000000000000000000000000066b666bd19f0000000000000000000000000000000000000000000000000245ec850165c19a7000000000000000000000000000000000000000000000006b57097257ec65d0c400000000000000000000000000000000000000000000000245e6199af9effb7000000000000000000000000000000000000000000000006b570fddbe58376fc4",
          "blockHash": "0x3e8391b51088af91f4fca4d4c788abf43b914ec6a6fa4cecdfebb3683c0f9554",
          "blockNumber": "0xe0663a",
          "transactionHash": "0x55669b5e3c4ac52b4ac61269d106d96ac63e0bd74c6972e8e1e0f7f1132af0cb",
          "transactionIndex": "0x0",
          "logIndex": "0x0",
          "removed": false
        }
      ],
      "logsBloom": "0x20000000000000000004000000000000000000000000020000000000000000000000000000000000000000000000000000008000000000000000000000000000000000000000000000000000000000800000000000000000000100000000000000000000000000000000000000000000000000000000000080000000000000000000000000000000000000000000040000000000000000000010000000000000200000000000000000000000000000000000000000000000000000000000004000000000000000000001000000000000000000000000000000100000000000000000000000020000000000000000000000000000000000000000000000100000",
      "type": "0x2",
      "transactionHash": "0x55669b5e3c4ac52b4ac61269d106d96ac63e0bd74c6972e8e1e0f7f1132af0cb",
      "transactionIndex": "0x0",
      "blockHash": "0x3e8391b51088af91f4fca4d4c788abf43b914ec6a6fa4cecdfebb3683c0f9554",
      "blockNumber": "0xe0663a",
      "gasUsed": "0xbc39",
      "effectiveGasPrice": "0x8bb2c970f",
      "from": "0xe62ab4d111f968660c6b2188046f9b9ba53c4bae",
      "to": "0xa9522e00101ee85f3b8e6a4f0723f5ea4a2f0a50",
      "contractAddress": null
    },
    {
      "status": "0x1",
      "cumulativeGasUsed": "0x174df",
      "logs": [
        {
          "address": "0x0000000000000000000000000000000000001010",
          "topics": [
            "0x4dfe1bbbcf077ddc3e01291eea2d5c70c2b422b415d95645b9adcfd678cb1d63",
            "0x0000000000000000000000000000000000000000000000000000000000001010",
            "0x000000000000000000000000e62ab4d111f968660c6b2188046f9b9ba53c4bae",
            "0x00000000000000000000000085ebd6dc97d56f62e371382b38eae91f3bb4ecb2"
          ],
          "data": "0x00000000000000000000000000000000000000000000000000066c2f3cd3300000000000000000000000000000000000000000000000000245e6199af9e4f41900000000000000000000000000000000000000000000006b5826179ab50e117c00000000000000000000000000000000000000000000000245dfad6bbd11c41900000000000000000000000000000000000000000000006b582c83c9f1e1417c",
          "blockHash": "0x7a20d77a5bfc35c94cae7551b191d95ad3a2576b9e54ebe78efe8c37cfa720d3",
          "blockNumber": "0xe0663d",
          "transactionHash": "0x5b93ead10004cada6194030e5b2f42cb20bece3d70c37722c08d997b82d38cbd",
          "transactionIndex": "0x1",
          "logIndex": "0x2",
          "removed": false
        }
      ],
      "logsBloom": "0x20000000000000000004000000000000000000000000020000000000000000000000000000000000000000000000000000008000000000000000000000000000000000000000000000000000000000800000000000000000000100000000000000000000000000000000000000000000000000000000000080000000000000000000000000000000000000000000040000000000000000000010000000000000200000000000000000000000000000000000000000000000000000000000004000000000000000000001000000000000000000000000000000100000000000000000000000020000000000000000000000000000000000000000000000100000",
      "type": "0x2",
      "transactionHash": "0x5b93ead10004cada6194030e5b2f42cb20bece3d70c37722c08d997b82d38cbd",
      "transactionIndex": "0x1",
      "blockHash": "0x7a20d77a5bfc35c94cae7551b191d95ad3a2576b9e54ebe78efe8c37cfa720d3",
      "blockNumber": "0xe0663d",
      "gasUsed": "0xbc50",
      "effectiveGasPrice": "0x8bb2c970f",
      "from": "0xe62ab4d111f968660c6b2188046f9b9ba53c4bae",
      "to": "0xa9522e00101ee85f3b8e6a4f0723f5ea4a2f0a50",
      "contractAddress": null
    },
    {
      "status": "0x1",
      "cumulativeGasUsed": "0x5679d",
      "logs": [
        {
          "address": "0x0000000000000000000000000000000000001010",
          "topics": [
            "0x4dfe1bbbcf077ddc3e01291eea2d5c70c2b422b415d95645b9adcfd678cb1d63",
            "0x0000000000000000000000000000000000000000000000000000000000001010",
            "0x000000000000000000000000e62ab4d111f968660c6b2188046f9b9ba53c4bae",
            "0x00000000000000000000000093feed2cc3d58c2b1bb62ce63125fa7fcaae7177"
          ],
          "data": "0x00000000000000000000000000000000000000000000000000066cf80dd4c10000000000000000000000000000000000000000000000000245dfad6bbd06bb69000000000000000000000000000000000000000000000040d9a6b5cdea89cb2300000000000000000000000000000000000000000000000245d94073af31fa69000000000000000000000000000000000000000000000040d9ad22c5f85e8c23",
          "blockHash": "0x5649d7a748cced17b22b8c4acbc72c3a81a63c231e3039caf958604fc644e872",
          "blockNumber": "0xe06641",
          "transactionHash": "0x99f2597389c83a2613d1c0944e7ab4b5e46ffa5d2a2b32f3865cb978b9697f42",
          "transactionIndex": "0x3",
          "logIndex": "0xa",
          "removed": false
        }
      ],
      "logsBloom": "0x20000000000000000004000000000000000000000000000000000000000000000000000000000000000000000000000000008000000000000000000000000000000000000000000004000000000000800000000000000000000100000000000000000000000000000000000000000000000000000000000080000000000000000000000000000000000000000000040000000000000000000000040000000000200000000400000000000000000000000000000000000000000000000000004000000000000000000001000000000000000000000000000000100000000000000000000000000000000000000000000000000000000000000000000000100000",
      "type": "0x2",
      "transactionHash": "0x99f2597389c83a2613d1c0944e7ab4b5e46ffa5d2a2b32f3865cb978b9697f42",
      "transactionIndex": "0x3",
      "blockHash": "0x5649d7a748cced17b22b8c4acbc72c3a81a63c231e3039caf958604fc644e872",
      "blockNumber": "0xe06641",
      "gasUsed": "0xbc67",
      "effectiveGasPrice": "0x8bb2c970f",
      "from": "0xe62ab4d111f968660c6b2188046f9b9ba53c4bae",
      "to": "0xa9522e00101ee85f3b8e6a4f0723f5ea4a2f0a50",
      "contractAddress": null
    },
    {
      "status": "0x1",
      "cumulativeGasUsed": "0x4a5b7",
      "logs": [
        {
          "address": "0x0000000000000000000000000000000000001010",
          "topics": [
            "0x4dfe1bbbcf077ddc3e01291eea2d5c70c2b422b415d95645b9adcfd678cb1d63",
            "0x0000000000000000000000000000000000000000000000000000000000001010",
            "0x000000000000000000000000e62ab4d111f968660c6b2188046f9b9ba53c4bae",
            "0x00000000000000000000000093feed2cc3d58c2b1bb62ce63125fa7fcaae7177"
          ],
          "data": "0x00000000000000000000000000000000000000000000000000066dc0ded6520000000000000000000000000000000000000000000000000245d94073af26f060000000000000000000000000000000000000000000000040da03adee9abc334800000000000000000000000000000000000000000000000245d2d2b2d0509e60000000000000000000000000000000000000000000000040da0a1baf79928548",
          "blockHash": "0x46070172287ec17aa306dfc70c8d69433ba8c6a437680bb55c287c431ea58fdb",
          "blockNumber": "0xe06644",
          "transactionHash": "0xe7648284e888de49d2ac6fccfef4a92516f28994bf5ad56045fe34229dec3ed3",
          "transactionIndex": "0x1",
          "logIndex": "0x2",
          "removed": false
        }
      ],
      "logsBloom": "0x20000000000000000004000000000000000000000000000000000000000000000000000000000000000000000000000000008000000000000000000000000000000000000000000004000000000000800000000000000000000100000000000000000000000000000000000000000000000000000000000080000000000000000000000000000000000000000000040000000000000000000000040000000000200000000400000000000000000000000000000000000000000000000000004000000000000000000001000000000000000000000000000000100000000000000000000000000000000000000000000000000000000000000000000000100000",
      "type": "0x2",
      "transactionHash": "0xe7648284e888de49d2ac6fccfef4a92516f28994bf5ad56045fe34229dec3ed3",
      "transactionIndex": "0x1",
      "blockHash": "0x46070172287ec17aa306dfc70c8d69433ba8c6a437680bb55c287c431ea58fdb",
      "blockNumber": "0xe06644",
      "gasUsed": "0xbc7e",
      "effectiveGasPrice": "0x8bb2c970f",
      "from": "0xe62ab4d111f968660c6b2188046f9b9ba53c4bae",
      "to": "0xa9522e00101ee85f3b8e6a4f0723f5ea4a2f0a50",
      "contractAddress": null
    },
    {
      "status": "0x1",
      "cumulativeGasUsed": "0x171d9",
      "logs": [
        {
          "address": "0x0000000000000000000000000000000000001010",
          "topics": [
            "0x4dfe1bbbcf077ddc3e01291eea2d5c70c2b422b415d95645b9adcfd678cb1d63",
            "0x0000000000000000000000000000000000000000000000000000000000001010",
            "0x000000000000000000000000e62ab4d111f968660c6b2188046f9b9ba53c4bae",
            "0x00000000000000000000000093feed2cc3d58c2b1bb62ce63125fa7fcaae7177"
          ],
          "data": "0x00000000000000000000000000000000000000000000000000066e89afd7e30000000000000000000000000000000000000000000000000245d2d2b2d04592fe000000000000000000000000000000000000000000000040da343f19a980ab5c00000000000000000000000000000000000000000000000245cc6429206daffe000000000000000000000000000000000000000000000040da3aada359588e5c",
          "blockHash": "0x57907898afb7cc55e323d6383ced0a3f263cd00108dfea74893f46effc58e937",
          "blockNumber": "0xe06647",
          "transactionHash": "0xbac15fb36a65177ddb6f7acc9a74e6bd9a35c044d03475859fec6625200ddef9",
          "transactionIndex": "0x1",
          "logIndex": "0x3",
          "removed": false
        }
      ],
      "logsBloom": "0x20000000000000000004000000000000000000000000000000000000000000000000000000000000000000000000000000008000000000000000000000000000000000000000000004000000000000800000000000000000000100000000000000000000000000000000000000000000000000000000000080000000000000000000000000000000000000000000040000000000000000000000040000000000200000000400000000000000000000000000000000000000000000000000004000000000000000000001000000000000000000000000000000100000000000000000000000000000000000000000000000000000000000000000000000100000",
      "type": "0x2",
      "transactionHash": "0xbac15fb36a65177ddb6f7acc9a74e6bd9a35c044d03475859fec6625200ddef9",
      "transactionIndex": "0x1",
      "blockHash": "0x57907898afb7cc55e323d6383ced0a3f263cd00108dfea74893f46effc58e937",
      "blockNumber": "0xe06647",
      "gasUsed": "0xbc95",
      "effectiveGasPrice": "0x8bb2c970f",
      "from": "0xe62ab4d111f968660c6b2188046f9b9ba53c4bae",
      "to": "0xa9522e00101ee85f3b8e6a4f0723f5ea4a2f0a50",
      "contractAddress": null
    },
    {
      "status": "0x1",
      "cumulativeGasUsed": "0xbcac",
      "logs": [
        {
          "address": "0x0000000000000000000000000000000000001010",
          "topics": [
            "0x4dfe1bbbcf077ddc3e01291eea2d5c70c2b422b415d95645b9adcfd678cb1d63",
            "0x0000000000000000000000000000000000000000000000000000000000001010",
            "0x000000000000000000000000e62ab4d111f968660c6b2188046f9b9ba53c4bae",
            "0x00000000000000000000000093feed2cc3d58c2b1bb62ce63125fa7fcaae7177"
          ],
          "data": "0x00000000000000000000000000000000000000000000000000066f5280d9740000000000000000000000000000000000000000000000000245cc64292062a343000000000000000000000000000000000000000000000040da97d365650d5f8d00000000000000000000000000000000000000000000000245c5f4d69f892f43000000000000000000000000000000000000000000000040da9e42b7e5e6d38d",
          "blockHash": "0x8b88f3c01ed5938e07aed0d92fedd4aa528f6887a38cc7a9507d46824f798a1b",
          "blockNumber": "0xe0664a",
          "transactionHash": "0x91e30cad7131a8f154451135041e73dee7dddabeafb882197fa89a70a927b9c9",
          "transactionIndex": "0x0",
          "logIndex": "0x0",
          "removed": false
        }
      ],
      "logsBloom": "0x20000000000000000004000000000000000000000000000000000000000000000000000000000000000000000000000000008000000000000000000000000000000000000000000004000000000000800000000000000000000100000000000000000000000000000000000000000000000000000000000080000000000000000000000000000000000000000000040000000000000000000000040000000000200000000400000000000000000000000000000000000000000000000000004000000000000000000001000000000000000000000000000000100000000000000000000000000000000000000000000000000000000000000000000000100000",
      "type": "0x2",
      "transactionHash": "0x91e30cad7131a8f154451135041e73dee7dddabeafb882197fa89a70a927b9c9",
      "transactionIndex": "0x0",
      "blockHash": "0x8b88f3c01ed5938e07aed0d92fedd4aa528f6887a38cc7a9507d46824f798a1b",
      "blockNumber": "0xe0664a",
      "gasUsed": "0xbcac",
      "effectiveGasPrice": "0x8bb2c970f",
      "from": "0xe62ab4d111f968660c6b2188046f9b9ba53c4bae",
      "to": "0xa9522e00101ee85f3b8e6a4f0723f5ea4a2f0a50",
      "contractAddress": null
    },
    {
      "status": "0x1",
      "cumulativeGasUsed": "0x49296",
      "logs": [
        {
          "address": "0x0000000000000000000000000000000000001010",
          "topics": [
            "0x4dfe1bbbcf077ddc3e01291eea2d5c70c2b422b415d95645b9adcfd678cb1d63",
            "0x0000000000000000000000000000000000000000000000000000000000001010",
            "0x000000000000000000000000e62ab4d111f968660c6b2188046f9b9ba53c4bae",
            "0x00000000000000000000000093feed2cc3d58c2b1bb62ce63125fa7fcaae7177"
          ],
          "data": "0x0000000000000000000000000000000000000000000000000006701b51db050000000000000000000000000000000000000000000000000245c5f4d69f7e212f000000000000000000000000000000000000000000000040db4747859e13872800000000000000000000000000000000000000000000000245bf84bb4da31c2f000000000000000000000000000000000000000000000040db4db7a0efee8c28",
          "blockHash": "0xd0bffab345836393d0a94dd28266cf5299054b532bc2124511a7afe91a90625b",
          "blockNumber": "0xe0664e",
          "transactionHash": "0x3ec3dcce5b0b2a0eadcc5e04bba0d0e0970f635c8b8a9e4323c779d52c21c720",
          "transactionIndex": "0x2",
          "logIndex": "0x3",
          "removed": false
        }
      ],
      "logsBloom": "0x20000000000000000004000000000000000000000000000000000000000000000000000000000000000000000000000000008000000000000000000000000000000000000000000004000000000000800000000000000000000100000000000000000000000000000000000000000000000000000000000080000000000000000000000000000000000000000000040000000000000000000000040000000000200000000400000000000000000000000000000000000000000000000000004000000000000000000001000000000000000000000000000000100000000000000000000000000000000000000000000000000000000000000000000000100000",
      "type": "0x2",
      "transactionHash": "0x3ec3dcce5b0b2a0eadcc5e04bba0d0e0970f635c8b8a9e4323c779d52c21c720",
      "transactionIndex": "0x2",
      "blockHash": "0xd0bffab345836393d0a94dd28266cf5299054b532bc2124511a7afe91a90625b",
      "blockNumber": "0xe0664e",
      "gasUsed": "0xbcc3",
      "effectiveGasPrice": "0x8bb2c970f",
      "from": "0xe62ab4d111f968660c6b2188046f9b9ba53c4bae",
      "to": "0xa9522e00101ee85f3b8e6a4f0723f5ea4a2f0a50",
      "contractAddress": null
    },
    {
      "status": "0x1",
      "cumulativeGasUsed": "0x2a05a",
      "logs": [
        {
          "address": "0x0000000000000000000000000000000000001010",
          "topics": [
            "0x4dfe1bbbcf077ddc3e01291eea2d5c70c2b422b415d95645b9adcfd678cb1d63",
            "0x0000000000000000000000000000000000000000000000000000000000001010",
            "0x000000000000000000000000e62ab4d111f968660c6b2188046f9b9ba53c4bae",
            "0x0000000000000000000000004631753190f2f5a15a7ba172bbac102b7d95fa22"
          ],
          "data": "0x000000000000000000000000000000000000000000000000000670e422dc960000000000000000000000000000000000000000000000000245bf84bb4d980cc2000000000000000000000000000000000000000000000314378965a0e9994fb400000000000000000000000000000000000000000000000245b913d72abb76c2000000000000000000000000000000000000000000000314378fd6850c75e5b4",
          "blockHash": "0xce720e87a47e3331aac57126ef9b7e491501a56a9fab46ca43c4c53834670f5c",
          "blockNumber": "0xe06651",
          "transactionHash": "0xca19ecc7b6f2b661e634c1a372c7b21aa534c11d750553e3608bf091a165cdc0",
          "transactionIndex": "0x1",
          "logIndex": "0x4",
          "removed": false
        }
      ],
      "logsBloom": "0x20000000000000000004000000000000000000002000000000000000000000000000000000000000000000000000000000008000000000000000000040000000000000000000000000000000000000800000000000000000000100000000000000000000000000100000000000000000000000000000000080000000000000000000000000000000000000000000040000000000000000000000000000000000200000000000000000000000000000000000000000000000000000000000004000000000000000000001000000000000000000000000000000100000000000000000000000000000000000000000000000000000000000000000000000100000",
      "type": "0x2",
      "transactionHash": "0xca19ecc7b6f2b661e634c1a372c7b21aa534c11d750553e3608bf091a165cdc0",
      "transactionIndex": "0x1",
      "blockHash": "0xce720e87a47e3331aac57126ef9b7e491501a56a9fab46ca43c4c53834670f5c",
      "blockNumber": "0xe06651",
      "gasUsed": "0xbcda",
      "effectiveGasPrice": "0x8bb2c970f",
      "from": "0xe62ab4d111f968660c6b2188046f9b9ba53c4bae",
      "to": "0xa9522e00101ee85f3b8e6a4f0723f5ea4a2f0a50",
      "contractAddress": null
    },
    {
      "status": "0x1",
      "cumulativeGasUsed": "0xbcf1",
      "logs": [
        {
          "address": "0x0000000000000000000000000000000000001010",
          "topics": [
            "0x4dfe1bbbcf077ddc3e01291eea2d5c70c2b422b415d95645b9adcfd678cb1d63",
            "0x0000000000000000000000000000000000000000000000000000000000001010",
            "0x000000000000000000000000e62ab4d111f968660c6b2188046f9b9ba53c4bae",
            "0x0000000000000000000000004631753190f2f5a15a7ba172bbac102b7d95fa22"
          ],
          "data": "0x000000000000000000000000000000000000000000000000000671acf3de270000000000000000000000000000000000000000000000000245b913d72ab065fc000000000000000000000000000000000000000000000314378fd6850c75e5b400000000000000000000000000000000000000000000000245b2a22a36d23efc0000000000000000000000000000000000000000000003143796483200540cb4",
          "blockHash": "0xc0c1f6f7ef679735b525f6007d7c672ded77d7a2d2457b37f0c6f104ab08d2a8",
          "blockNumber": "0xe06655",
          "transactionHash": "0x60a439c87330384ee8e84c76ae0b0fbc3b0d1712bb87e0415a8b7b590b80cae1",
          "transactionIndex": "0x0",
          "logIndex": "0x0",
          "removed": false
        }
      ],
      "logsBloom": "0x20000000000000000004000000000000000000002000000000000000000000000000000000000000000000000000000000008000000000000000000040000000000000000000000000000000000000800000000000000000000100000000000000000000000000100000000000000000000000000000000080000000000000000000000000000000000000000000040000000000000000000000000000000000200000000000000000000000000000000000000000000000000000000000004000000000000000000001000000000000000000000000000000100000000000000000000000000000000000000000000000000000000000000000000000100000",
      "type": "0x2",
      "transactionHash": "0x60a439c87330384ee8e84c76ae0b0fbc3b0d1712bb87e0415a8b7b590b80cae1",
      "transactionIndex": "0x0",
      "blockHash": "0xc0c1f6f7ef679735b525f6007d7c672ded77d7a2d2457b37f0c6f104ab08d2a8",
      "blockNumber": "0xe06655",
      "gasUsed": "0xbcf1",
      "effectiveGasPrice": "0x8bb2c970f",
      "from": "0xe62ab4d111f968660c6b2188046f9b9ba53c4bae",
      "to": "0xa9522e00101ee85f3b8e6a4f0723f5ea4a2f0a50",
      "contractAddress": null
    },
    {
      "status": "0x1",
      "cumulativeGasUsed": "0xbd08",
      "logs": [
        {
          "address": "0x0000000000000000000000000000000000001010",
          "topics": [
            "0x4dfe1bbbcf077ddc3e01291eea2d5c70c2b422b415d95645b9adcfd678cb1d63",
            "0x0000000000000000000000000000000000000000000000000000000000001010",
            "0x000000000000000000000000e62ab4d111f968660c6b2188046f9b9ba53c4bae",
            "0x0000000000000000000000004631753190f2f5a15a7ba172bbac102b7d95fa22"
          ],
          "data": "0x00000000000000000000000000000000000000000000000000067275c4dfb80000000000000000000000000000000000000000000000000245b2a22a36c72cdd00000000000000000000000000000000000000000000031437e0b1427208f8f800000000000000000000000000000000000000000000000245ac2fb471e774dd00000000000000000000000000000000000000000000031437e723b836e8b0f8",
          "blockHash": "0xf1bdaa9dd356d5d1cb864716683c1687385cb79dc856d7f565026d092e817b7f",
          "blockNumber": "0xe06658",
          "transactionHash": "0xaab12d2c7b3615212d6e6a3af5963f95aaf09c39d6be6eea5b203820a3423630",
          "transactionIndex": "0x0",
          "logIndex": "0x0",
          "removed": false
        }
      ],
      "logsBloom": "0x20000000000000000004000000000000000000002000000000000000000000000000000000000000000000000000000000008000000000000000000040000000000000000000000000000000000000800000000000000000000100000000000000000000000000100000000000000000000000000000000080000000000000000000000000000000000000000000040000000000000000000000000000000000200000000000000000000000000000000000000000000000000000000000004000000000000000000001000000000000000000000000000000100000000000000000000000000000000000000000000000000000000000000000000000100000",
      "type": "0x2",
      "transactionHash": "0xaab12d2c7b3615212d6e6a3af5963f95aaf09c39d6be6eea5b203820a3423630",
      "transactionIndex": "0x0",
      "blockHash": "0xf1bdaa9dd356d5d1cb864716683c1687385cb79dc856d7f565026d092e817b7f",
      "blockNumber": "0xe06658",
      "gasUsed": "0xbd08",
      "effectiveGasPrice": "0x8bb2c970f",
      "from": "0xe62ab4d111f968660c6b2188046f9b9ba53c4bae",
      "to": "0xa9522e00101ee85f3b8e6a4f0723f5ea4a2f0a50",
      "contractAddress": null
    },
    {
      "status": "0x1",
      "cumulativeGasUsed": "0xbd1f",
      "logs": [
        {
          "address": "0x0000000000000000000000000000000000001010",
          "topics": [
            "0x4dfe1bbbcf077ddc3e01291eea2d5c70c2b422b415d95645b9adcfd678cb1d63",
            "0x0000000000000000000000000000000000000000000000000000000000001010",
            "0x000000000000000000000000e62ab4d111f968660c6b2188046f9b9ba53c4bae",
            "0x0000000000000000000000004631753190f2f5a15a7ba172bbac102b7d95fa22"
          ],
          "data": "0x0000000000000000000000000000000000000000000000000006733e95e1490000000000000000000000000000000000000000000000000245ac2fb471dc61650000000000000000000000000000000000000000000003143818eb71fdae3bb800000000000000000000000000000000000000000000000245a5bc75dbfb1865000000000000000000000000000000000000000000000314381f5eb0938f84b8",
          "blockHash": "0x3beda23c337f9b5f6b35f63092f2e6e626e9b170feee8aefea5c857862680814",
          "blockNumber": "0xe0665c",
          "transactionHash": "0xff6669425e8d900df003bef9e835203552cca3d042e797ee83ead869f0b92ac6",
          "transactionIndex": "0x0",
          "logIndex": "0x0",
          "removed": false
        }
      ],
      "logsBloom": "0x20000000000000000004000000000000000000002000000000000000000000000000000000000000000000000000000000008000000000000000000040000000000000000000000000000000000000800000000000000000000100000000000000000000000000100000000000000000000000000000000080000000000000000000000000000000000000000000040000000000000000000000000000000000200000000000000000000000000000000000000000000000000000000000004000000000000000000001000000000000000000000000000000100000000000000000000000000000000000000000000000000000000000000000000000100000",
      "type": "0x2",
      "transactionHash": "0xff6669425e8d900df003bef9e835203552cca3d042e797ee83ead869f0b92ac6",
      "transactionIndex": "0x0",
      "blockHash": "0x3beda23c337f9b5f6b35f63092f2e6e626e9b170feee8aefea5c857862680814",
      "blockNumber": "0xe0665c",
      "gasUsed": "0xbd1f",
      "effectiveGasPrice": "0x8bb2c970f",
      "from": "0xe62ab4d111f968660c6b2188046f9b9ba53c4bae",
      "to": "0xa9522e00101ee85f3b8e6a4f0723f5ea4a2f0a50",
      "contractAddress": null
    },
    {
      "status": "0x1",
      "cumulativeGasUsed": "0x16a59f",
      "logs": [
        {
          "address": "0x0000000000000000000000000000000000001010",
          "topics": [
            "0x4dfe1bbbcf077ddc3e01291eea2d5c70c2b422b415d95645b9adcfd678cb1d63",
            "0x0000000000000000000000000000000000000000000000000000000000001010",
            "0x000000000000000000000000e62ab4d111f968660c6b2188046f9b9ba53c4bae",
            "0x0000000000000000000000004631753190f2f5a15a7ba172bbac102b7d95fa22"
          ],
          "data": "0x0000000000000000000000000000000000000000000000000006740766e2da0000000000000000000000000000000000000000000000000245a5bc75dbf00394000000000000000000000000000000000000000000000314390cdc77fd9215ab000000000000000000000000000000000000000000000002459f486e750d29940000000000000000000000000000000000000000000003143913507f6474efab",
          "blockHash": "0x400e78a663c3722ef86ca5ea85ad195a426377753aff963ab9f97b41775869bf",
          "blockNumber": "0xe0665f",
          "transactionHash": "0x54019d6fb631b1c6f43da05e81b9a96da0a36247325a2044b43e8d9e037c6bcd",
          "transactionIndex": "0x1",
          "logIndex": "0x2",
          "removed": false
        }
      ],
      "logsBloom": "0x20000000000000000004000000000000000000002000000000000000000000000000000000000000000000000000000000008000000000000000000040000000000000000000000000000000000000800000000000000000000100000000000000000000000000100000000000000000000000000000000080000000000000000000000000000000000000000000040000000000000000000000000000000000200000000000000000000000000000000000000000000000000000000000004000000000000000000001000000000000000000000000000000100000000000000000000000000000000000000000000000000000000000000000000000100000",
      "type": "0x2",
      "transactionHash": "0x54019d6fb631b1c6f43da05e81b9a96da0a36247325a2044b43e8d9e037c6bcd",
      "transactionIndex": "0x1",
      "blockHash": "0x400e78a663c3722ef86ca5ea85ad195a426377753aff963ab9f97b41775869bf",
      "blockNumber": "0xe0665f",
      "gasUsed": "0xbd36",
      "effectiveGasPrice": "0x8bb2c970f",
      "from": "0xe62ab4d111f968660c6b2188046f9b9ba53c4bae",
      "to": "0xa9522e00101ee85f3b8e6a4f0723f5ea4a2f0a50",
      "contractAddress": null
    },
    {
      "status": "0x1",
      "cumulativeGasUsed": "0xbd4d",
      "logs": [
        {
          "address": "0x0000000000000000000000000000000000001010",
          "topics": [
            "0x4dfe1bbbcf077ddc3e01291eea2d5c70c2b422b415d95645b9adcfd678cb1d63",
            "0x0000000000000000000000000000000000000000000000000000000000001010",
            "0x000000000000000000000000e62ab4d111f968660c6b2188046f9b9ba53c4bae",
            "0x0000000000000000000000004ad84f7014b7b44f723f284a85b1662337971439"
          ],
          "data": "0x000000000000000000000000000000000000000000000000000674d037e46b00000000000000000000000000000000000000000000000002459f486e7502136a0000000000000000000000000000000000000000000004288d18945aeb9d6a850000000000000000000000000000000000000000000000024598d39e3d1da86a0000000000000000000000000000000000000000000004288d1f092b2381d585",
          "blockHash": "0x584f1c13f430fc8e4a7b95b68ec019e331a43217510dc234fe1f5411a1df8130",
          "blockNumber": "0xe06662",
          "transactionHash": "0xfb51d6256802aab5535b1cba810f774818c5b78f1b7463a68649883b4d26c5da",
          "transactionIndex": "0x0",
          "logIndex": "0x0",
          "removed": false
        }
      ],
      "logsBloom": "0x20000000000000000004000000000000000000000000000000000000000000000000000000000000000000000000000000008000000000000000000000400000000000000000000000000000000000800000000000000000000100001000000000000000000000000000000000000000000000000000000080000000000000000000000000000000000000000000040000000000000000000000000000000000200000000000000000000000000000000000000000000000000000000000004000000000000000000001000000000000000000000000000000100000000000000000000000000000000000000000008000000000000000000000000000100000",
      "type": "0x2",
      "transactionHash": "0xfb51d6256802aab5535b1cba810f774818c5b78f1b7463a68649883b4d26c5da",
      "transactionIndex": "0x0",
      "blockHash": "0x584f1c13f430fc8e4a7b95b68ec019e331a43217510dc234fe1f5411a1df8130",
      "blockNumber": "0xe06662",
      "gasUsed": "0xbd4d",
      "effectiveGasPrice": "0x8bb2c970f",
      "from": "0xe62ab4d111f968660c6b2188046f9b9ba53c4bae",
      "to": "0xa9522e00101ee85f3b8e6a4f0723f5ea4a2f0a50",
      "contractAddress": null
    },
    {
      "status": "0x1",
      "cumulativeGasUsed": "0xbd64",
      "logs": [
        {
          "address": "0x0000000000000000000000000000000000001010",
          "topics": [
            "0x4dfe1bbbcf077ddc3e01291eea2d5c70c2b422b415d95645b9adcfd678cb1d63",
            "0x0000000000000000000000000000000000000000000000000000000000001010",
            "0x000000000000000000000000e62ab4d111f968660c6b2188046f9b9ba53c4bae",
            "0x0000000000000000000000004ad84f7014b7b44f723f284a85b1662337971439"
          ],
          "data": "0x0000000000000000000000000000000000000000000000000006759908e5fc000000000000000000000000000000000000000000000000024598d39e3d1290e70000000000000000000000000000000000000000000004288d33bc2d350f3f8500000000000000000000000000000000000000000000000245925e05342c94e70000000000000000000000000000000000000000000004288d3a31c63df53b85",
          "blockHash": "0xbeca9ff6a326965ba81fb9325b864d9b630144970a265a0126d2fcc3fb15b994",
          "blockNumber": "0xe06666",
          "transactionHash": "0x9499a70b0c8be9acb74b4054f86c0b4818d5baf0e87da07b00f3782f2dbd5fd8",
          "transactionIndex": "0x0",
          "logIndex": "0x0",
          "removed": false
        }
      ],
      "logsBloom": "0x20000000000000000004000000000000000000000000000000000000000000000000000000000000000000000000000000008000000000000000000000400000000000000000000000000000000000800000000000000000000100001000000000000000000000000000000000000000000000000000000080000000000000000000000000000000000000000000040000000000000000000000000000000000200000000000000000000000000000000000000000000000000000000000004000000000000000000001000000000000000000000000000000100000000000000000000000000000000000000000008000000000000000000000000000100000",
      "type": "0x2",
      "transactionHash": "0x9499a70b0c8be9acb74b4054f86c0b4818d5baf0e87da07b00f3782f2dbd5fd8",
      "transactionIndex": "0x0",
      "blockHash": "0xbeca9ff6a326965ba81fb9325b864d9b630144970a265a0126d2fcc3fb15b994",
      "blockNumber": "0xe06666",
      "gasUsed": "0xbd64",
      "effectiveGasPrice": "0x8bb2c970f",
      "from": "0xe62ab4d111f968660c6b2188046f9b9ba53c4bae",
      "to": "0xa9522e00101ee85f3b8e6a4f0723f5ea4a2f0a50",
      "contractAddress": null
    },
    {
      "status": "0x1",
      "cumulativeGasUsed": "0xbd76",
      "logs": [
        {
          "address": "0x0000000000000000000000000000000000001010",
          "topics": [
            "0x4dfe1bbbcf077ddc3e01291eea2d5c70c2b422b415d95645b9adcfd678cb1d63",
            "0x0000000000000000000000000000000000000000000000000000000000001010",
            "0x000000000000000000000000e62ab4d111f968660c6b2188046f9b9ba53c4bae",
            "0x0000000000000000000000004ad84f7014b7b44f723f284a85b1662337971439"
          ],
          "data": "0x0000000000000000000000000000000000000000000000000006763632089a0000000000000000000000000000000000000000000000000245925e0534217c0b0000000000000000000000000000000000000000000004288d3a31c63df53b85000000000000000000000000000000000000000000000002458be7cf0218e20b0000000000000000000000000000000000000000000004288d40a7fc6ffdd585",
          "blockHash": "0xfbf5c158dbb18c150b61e6caf364822817e107439fd5243dbd7cb0cd48303c75",
          "blockNumber": "0xe06669",
          "transactionHash": "0xb9ee9f282dbc69348527e7da0c0dc12534b2d6b3c9212ca798c3facb26ff659e",
          "transactionIndex": "0x0",
          "logIndex": "0x0",
          "removed": false
        }
      ],
      "logsBloom": "0x20000000000000000004000000000000000000000000000000000000000000000000000000000000000000000000000000008000000000000000000000400000000000000000000000000000000000800000000000000000000100001000000000000000000000000000000000000000000000000000000080000000000000000000000000000000000000000000040000000000000000000000000000000000200000000000000000000000000000000000000000000000000000000000004000000000000000000001000000000000000000000000000000100000000000000000000000000000000000000000008000000000000000000000000000100000",
      "type": "0x2",
      "transactionHash": "0xb9ee9f282dbc69348527e7da0c0dc12534b2d6b3c9212ca798c3facb26ff659e",
      "transactionIndex": "0x0",
      "blockHash": "0xfbf5c158dbb18c150b61e6caf364822817e107439fd5243dbd7cb0cd48303c75",
      "blockNumber": "0xe06669",
      "gasUsed": "0xbd76",
      "effectiveGasPrice": "0x8bb2c970f",
      "from": "0xe62ab4d111f968660c6b2188046f9b9ba53c4bae",
      "to": "0xa9522e00101ee85f3b8e6a4f0723f5ea4a2f0a50",
      "contractAddress": null
    },
    {
      "status": "0x1",
      "cumulativeGasUsed": "0x7570c",
      "logs": [
        {
          "address": "0x0000000000000000000000000000000000001010",
          "topics": [
            "0x4dfe1bbbcf077ddc3e01291eea2d5c70c2b422b415d95645b9adcfd678cb1d63",
            "0x0000000000000000000000000000000000000000000000000000000000001010",
            "0x000000000000000000000000e62ab4d111f968660c6b2188046f9b9ba53c4bae",
            "0x0000000000000000000000004ad84f7014b7b44f723f284a85b1662337971439"
          ],
          "data": "0x0000000000000000000000000000000000000000000000000012b8b800573400000000000000000000000000000000000000000000000002458be7cf020dc8210000000000000000000000000000000000000000000004288dfcbd835003ab6200000000000000000000000000000000000000000000000245792f1701b694210000000000000000000000000000000000000000000004288e0f763b505adf62",
          "blockHash": "0x3ed3bd25a396e3901a064e3c9043626057b490e09a649f9fdaad1f31ee7f2dfa",
          "blockNumber": "0xe0666d",
          "transactionHash": "0x79ebb184cdf5f4774e64900d95887843b0c5a93cf249030f1c809052405adb5f",
          "transactionIndex": "0x2",
          "logIndex": "0x6",
          "removed": false
        }
      ],
      "logsBloom": "0x20000000000000000004000000000000000000000000000000000000000000000000000000000000000000000000000000008000000000000000000000400000000000000000000000000000000000800000000000000000000100001000000000000000000000000000000000000000000000000000000080000000000000000000000000000000000000000000040000000000000000000000000000000000200000000000000000000000000000000000000000000000000000000000004000000000000000000001000000000000000000000000000000100000000000000000000000000000000000000000008000000000000000000000000000100000",
      "type": "0x2",
      "transactionHash": "0x79ebb184cdf5f4774e64900d95887843b0c5a93cf249030f1c809052405adb5f",
      "transactionIndex": "0x2",
      "blockHash": "0x3ed3bd25a396e3901a064e3c9043626057b490e09a649f9fdaad1f31ee7f2dfa",
      "blockNumber": "0xe0666d",
      "gasUsed": "0x224ec",
      "effectiveGasPrice": "0x8bb2c970f",
      "from": "0xe62ab4d111f968660c6b2188046f9b9ba53c4bae",
      "to": "0xa9522e00101ee85f3b8e6a4f0723f5ea4a2f0a50",
      "contractAddress": null
    },
    {
      "status": "0x1",
      "cumulativeGasUsed": "0x344f1",
      "logs": [
        {
          "address": "0x0000000000000000000000000000000000001010",
          "topics": [
            "0x4dfe1bbbcf077ddc3e01291eea2d5c70c2b422b415d95645b9adcfd678cb1d63",
            "0x0000000000000000000000000000000000000000000000000000000000001010",
            "0x000000000000000000000000e62ab4d111f968660c6b2188046f9b9ba53c4bae",
            "0x0000000000000000000000004ca9ff871c7aa1e7b64e1eae110835f68d6a0bd4"
          ],
          "data": "0x0000000000000000000000000000000000000000000000000010a87bf6a7b40000000000000000000000000000000000000000000000000245792f1701966a4d0000000000000000000000000000000000000000000000345cd88f7c6d4ec8d90000000000000000000000000000000000000000000000024568869b0aeeb64d0000000000000000000000000000000000000000000000345ce937f863f67cd9",
          "blockHash": "0x8f412930c62ced2e82e9fc760087c7415c5977ce7238a17558a1ce57d9bd29e7",
          "blockNumber": "0xe06670",
          "transactionHash": "0x51386e6134cb0968a38c985a9ba774e2c5680eb4433b86229b468bf7512278bc",
          "transactionIndex": "0x1",
          "logIndex": "0x3",
          "removed": false
        }
      ],
      "logsBloom": "0x20000000000000000004000000000000000000000000000000000000000000000000000000000000000000000000000020008000000000000000000000000000000000000000000000000000000000800000000000000000000100000000000000000000000000000000000000000000000000000000000080000000000000000000000000000000000000000000040000008000000000000000000000000000200000000000040000000000000000000000000000000000000000000000004000000000000000000001000000000000000000000000000000100000000000000000000000000000000000000000000000000000000000000000000000100000",
      "type": "0x2",
      "transactionHash": "0x51386e6134cb0968a38c985a9ba774e2c5680eb4433b86229b468bf7512278bc",
      "transactionIndex": "0x1",
      "blockHash": "0x8f412930c62ced2e82e9fc760087c7415c5977ce7238a17558a1ce57d9bd29e7",
      "blockNumber": "0xe06670",
      "gasUsed": "0x1e86c",
      "effectiveGasPrice": "0x8bb2c970f",
      "from": "0xe62ab4d111f968660c6b2188046f9b9ba53c4bae",
      "to": "0xa9522e00101ee85f3b8e6a4f0723f5ea4a2f0a50",
      "contractAddress": null
    },
    {
      "status": "0x1",
      "cumulativeGasUsed": "0x3ba04",
      "logs": [
        {
          "address": "0x0000000000000000000000000000000000001010",
          "topics": [
            "0x4dfe1bbbcf077ddc3e01291eea2d5c70c2b422b415d95645b9adcfd678cb1d63",
            "0x0000000000000000000000000000000000000000000000000000000000001010",
            "0x000000000000000000000000e62ab4d111f968660c6b2188046f9b9ba53c4bae",
            "0x0000000000000000000000004ca9ff871c7aa1e7b64e1eae110835f68d6a0bd4"
          ],
          "data": "0x0000000000000000000000000000000000000000000000000010a87bf6a7b4000000000000000000000000000000000000000000000000024568869b0ad217f90000000000000000000000000000000000000000000000345db8952b3c4e0b490000000000000000000000000000000000000000000000024557de1f142a63f90000000000000000000000000000000000000000000000345dc93da732f5bf49",
          "blockHash": "0x090d07e77842f9d39e56d5a09978c41996f2bafebd36081a54ad3453a68e51d5",
          "blockNumber": "0xe06673",
          "transactionHash": "0xc59296fc14f51836423296eb410507ef1daff8aef959a17cc2861bd06d1e92ec",
          "transactionIndex": "0x1",
          "logIndex": "0x3",
          "removed": false
        }
      ],
      "logsBloom": "0x20000000000000000004000000000000000000000000000000000000000000000000000000000000000000000000000020008000000000000000000000000000000000000000000000000000000000800000000000000000000100000000000000000000000000000000000000000000000000000000000080000000000000000000000000000000000000000000040000008000000000000000000000000000200000000000040000000000000000000000000000000000000000000000004000000000000000000001000000000000000000000000000000100000000000000000000000000000000000000000000000000000000000000000000000100000",
      "type": "0x2",
      "transactionHash": "0xc59296fc14f51836423296eb410507ef1daff8aef959a17cc2861bd06d1e92ec",
      "transactionIndex": "0x1",
      "blockHash": "0x090d07e77842f9d39e56d5a09978c41996f2bafebd36081a54ad3453a68e51d5",
      "blockNumber": "0xe06673",
      "gasUsed": "0x1e86c",
      "effectiveGasPrice": "0x8bb2c970f",
      "from": "0xe62ab4d111f968660c6b2188046f9b9ba53c4bae",
      "to": "0xa9522e00101ee85f3b8e6a4f0723f5ea4a2f0a50",
      "contractAddress": null
    },
    {
      "status": "0x1",
      "cumulativeGasUsed": "0x1e3e0",
      "logs": [
        {
          "address": "0x0000000000000000000000000000000000001010",
          "topics": [
            "0x4dfe1bbbcf077ddc3e01291eea2d5c70c2b422b415d95645b9adcfd678cb1d63",
            "0x0000000000000000000000000000000000000000000000000000000000001010",
            "0x000000000000000000000000e62ab4d111f968660c6b2188046f9b9ba53c4bae",
            "0x0000000000000000000000004ca9ff871c7aa1e7b64e1eae110835f68d6a0bd4"
          ],
          "data": "0x000000000000000000000000000000000000000000000000001080c8e7e920000000000000000000000000000000000000000000000000024557de1f140dc5a50000000000000000000000000000000000000000000000345e0f08e143daf81c00000000000000000000000000000000000000000000000245475d562c24a5a50000000000000000000000000000000000000000000000345e1f89aa2bc4181c",
          "blockHash": "0x879562e56b30593019efe871316b9131b134c17130a04b7a46f3c5bfc6f04c6d",
          "blockNumber": "0xe06678",
          "transactionHash": "0xb60023c42333895f8a62a0a28172edbcff3d16662e7b0c8be51f8906d0f20ae7",
          "transactionIndex": "0x0",
          "logIndex": "0x0",
          "removed": false
        }
      ],
      "logsBloom": "0x20000000000000000004000000000000000000000000000000000000000000000000000000000000000000000000000020008000000000000000000000000000000000000000000000000000000000800000000000000000000100000000000000000000000000000000000000000000000000000000000080000000000000000000000000000000000000000000040000008000000000000000000000000000200000000000040000000000000000000000000000000000000000000000004000000000000000000001000000000000000000000000000000100000000000000000000000000000000000000000000000000000000000000000000000100000",
      "type": "0x2",
      "transactionHash": "0xb60023c42333895f8a62a0a28172edbcff3d16662e7b0c8be51f8906d0f20ae7",
      "transactionIndex": "0x0",
      "blockHash": "0x879562e56b30593019efe871316b9131b134c17130a04b7a46f3c5bfc6f04c6d",
      "blockNumber": "0xe06678",
      "gasUsed": "0x1e3e0",
      "effectiveGasPrice": "0x8bb2c970f",
      "from": "0xe62ab4d111f968660c6b2188046f9b9ba53c4bae",
      "to": "0xa9522e00101ee85f3b8e6a4f0723f5ea4a2f0a50",
      "contractAddress": null
    },
    {
      "status": "0x1",
      "cumulativeGasUsed": "0x1ecf8",
      "logs": [
        {
          "address": "0x0000000000000000000000000000000000001010",
          "topics": [
            "0x4dfe1bbbcf077ddc3e01291eea2d5c70c2b422b415d95645b9adcfd678cb1d63",
            "0x0000000000000000000000000000000000000000000000000000000000001010",
            "0x000000000000000000000000e62ab4d111f968660c6b2188046f9b9ba53c4bae",
            "0x0000000000000000000000004ca9ff871c7aa1e7b64e1eae110835f68d6a0bd4"
          ],
          "data": "0x0000000000000000000000000000000000000000000000000010d02f0566480000000000000000000000000000000000000000000000000245475d562c084b850000000000000000000000000000000000000000000000345e5ef81165042b8c00000000000000000000000000000000000000000000000245368d2726a203850000000000000000000000000000000000000000000000345e6fc8406a6a738c",
          "blockHash": "0x5c668a3a9cfb31f6a29d3b259262449ec4bd7317e0e67216951f1144e020849f",
          "blockNumber": "0xe0667b",
          "transactionHash": "0xf121541c32ca5da732bcfda31fb7efeb6a28340e98f0060cd6dc5684fa613f85",
          "transactionIndex": "0x0",
          "logIndex": "0x0",
          "removed": false
        }
      ],
      "logsBloom": "0x20000000000000000004000000000000000000000000000000000000000000000000000000000000000000000000000020008000000000000000000000000000000000000000000000000000000000800000000000000000000100000000000000000000000000000000000000000000000000000000000080000000000000000000000000000000000000000000040000008000000000000000000000000000200000000000040000000000000000000000000000000000000000000000004000000000000000000001000000000000000000000000000000100000000000000000000000000000000000000000000000000000000000000000000000100000",
      "type": "0x2",
      "transactionHash": "0xf121541c32ca5da732bcfda31fb7efeb6a28340e98f0060cd6dc5684fa613f85",
      "transactionIndex": "0x0",
      "blockHash": "0x5c668a3a9cfb31f6a29d3b259262449ec4bd7317e0e67216951f1144e020849f",
      "blockNumber": "0xe0667b",
      "gasUsed": "0x1ecf8",
      "effectiveGasPrice": "0x8bb2c970f",
      "from": "0xe62ab4d111f968660c6b2188046f9b9ba53c4bae",
      "to": "0xa9522e00101ee85f3b8e6a4f0723f5ea4a2f0a50",
      "contractAddress": null
    },
    {
      "status": "0x1",
      "cumulativeGasUsed": "0x7b92d",
      "logs": [
        {
          "address": "0x0000000000000000000000000000000000001010",
          "topics": [
            "0x4dfe1bbbcf077ddc3e01291eea2d5c70c2b422b415d95645b9adcfd678cb1d63",
            "0x0000000000000000000000000000000000000000000000000000000000001010",
            "0x000000000000000000000000e62ab4d111f968660c6b2188046f9b9ba53c4bae",
            "0x0000000000000000000000004ca9ff871c7aa1e7b64e1eae110835f68d6a0bd4"
          ],
          "data": "0x00000000000000000000000000000000000000000000000000436f0440f58b0000000000000000000000000000000000000000000000000245368d27268520fd0000000000000000000000000000000000000000000000345e7858ea8051ab8c00000000000000000000000000000000000000000000000244f31e22e58f95fd0000000000000000000000000000000000000000000000345ebbc7eec147368c",
          "blockHash": "0x82c94ba9b1c01c83cf53fcfa1728de120295dd8d6176d64069fe662810c40483",
          "blockNumber": "0xe0667e",
          "transactionHash": "0x1385adac23341dc05bfb7ec47c12eefb0de6595dc8d4084346b5b01cfac8a6c0",
          "transactionIndex": "0x0",
          "logIndex": "0x0",
          "removed": false
        }
      ],
      "logsBloom": "0x20000000000000000004000000000000000000000000000000000000000000000000000000000000000000000000000020008000000000000000000000000000000000000000000000000000000000800000000000000000000100000000000000000000000000000000000000000000000000000000000080000000000000000000000000000000000000000000040000008000000000000000000000000000200000000000040000000000000000000000000000000000000000000000004000000000000000000001000000000000000000000000000000100000000000000000000000000000000000000000000000000000000000000000000000100000",
      "type": "0x2",
      "transactionHash": "0x1385adac23341dc05bfb7ec47c12eefb0de6595dc8d4084346b5b01cfac8a6c0",
      "transactionIndex": "0x0",
      "blockHash": "0x82c94ba9b1c01c83cf53fcfa1728de120295dd8d6176d64069fe662810c40483",
      "blockNumber": "0xe0667e",
      "gasUsed": "0x7b92d",
      "effectiveGasPrice": "0x8bb2c970f",
      "from": "0xe62ab4d111f968660c6b2188046f9b9ba53c4bae",
      "to": "0xfdd1a5b3aeea2df15a6f6b502784b61bdcbf66bc",
      "contractAddress": null
    },
    {
      "status": "0x1",
      "cumulativeGasUsed": "0x9bdda",
      "logs": [
        {
          "address": "0x0000000000000000000000000000000000001010",
          "topics": [
            "0x4dfe1bbbcf077ddc3e01291eea2d5c70c2b422b415d95645b9adcfd678cb1d63",
            "0x0000000000000000000000000000000000000000000000000000000000001010",
            "0x000000000000000000000000e62ab4d111f968660c6b2188046f9b9ba53c4bae",
            "0x000000000000000000000000915a2284d28bd93de7d6f31173b981204bb666e6"
          ],
          "data": "0x00000000000000000000000000000000000000000000000000550e309e73960000000000000000000000000000000000000000000000000244f31e22e51bbc5a00000000000000000000000000000000000000000000050cc435b04abc4d7099000000000000000000000000000000000000000000000002449e0ff246a8265a00000000000000000000000000000000000000000000050cc48abe7b5ac10699",
          "blockHash": "0x69c923a0821ef7ad18af6aafd77b791e185af55f64a3199b8d2f6900dde954bf",
          "blockNumber": "0xe06681",
          "transactionHash": "0x1fc88427d261fb8686a857e4e0e18e4281120cd8c63236b155b5b074dd14252b",
          "transactionIndex": "0x0",
          "logIndex": "0x0",
          "removed": false
        }
      ],
      "logsBloom": "0x20000000000000000014000000000000000000000000000000000000000000000000000000000000000000000000000000008000000000000000000000000000000000000000000000000000000000800000000000000000000100000000000000000000000000000000000000000000000000000000000080000000000000000000000000000000000000000000040000000000000000000000000000000000200000000000000000000000000000000000000000000000000000000000004000000000000000000001000000000000000002000000000000100000000000000000000000000000000000000000000000000000400000000000000000100000",
      "type": "0x2",
      "transactionHash": "0x1fc88427d261fb8686a857e4e0e18e4281120cd8c63236b155b5b074dd14252b",
      "transactionIndex": "0x0",
      "blockHash": "0x69c923a0821ef7ad18af6aafd77b791e185af55f64a3199b8d2f6900dde954bf",
      "blockNumber": "0xe06681",
      "gasUsed": "0x9bdda",
      "effectiveGasPrice": "0x8bb2c970f",
      "from": "0xe62ab4d111f968660c6b2188046f9b9ba53c4bae",
      "to": "0xfdd1a5b3aeea2df15a6f6b502784b61bdcbf66bc",
      "contractAddress": null
    },
    {
      "status": "0x1",
      "cumulativeGasUsed": "0x1fa4f2",
      "logs": [
        {
          "address": "0x0000000000000000000000000000000000001010",
          "topics": [
            "0x4dfe1bbbcf077ddc3e01291eea2d5c70c2b422b415d95645b9adcfd678cb1d63",
            "0x0000000000000000000000000000000000000000000000000000000000001010",
            "0x000000000000000000000000e62ab4d111f968660c6b2188046f9b9ba53c4bae",
            "0x000000000000000000000000915a2284d28bd93de7d6f31173b981204bb666e6"
          ],
          "data": "0x000000000000000000000000000000000000000000000000005502b238c0cf00000000000000000000000000000000000000000000000002449e0ff24616069400000000000000000000000000000000000000000000050cc5968c4f75429a1b00000000000000000000000000000000000000000000000244490d400d55379400000000000000000000000000000000000000000000050cc5eb8f01ae03691b",
          "blockHash": "0xe2c77af905f5a6f3fe7b1fc9fc1982e25263abe141189aa1858fac42ec306808",
          "blockNumber": "0xe06684",
          "transactionHash": "0x65ca2a5c0b3e2511fcbf167fd28ff5acc6e96944ca019ff233299ec02adeed60",
          "transactionIndex": "0x1",
          "logIndex": "0x2",
          "removed": false
        }
      ],
      "logsBloom": "0x20000000000000000014000000000000000000000000000000000000000000000000000000000000000000000000000000008000000000000000000000000000000000000000000000000000000000800000000000000000000100000000000000000000000000000000000000000000000000000000000080000000000000000000000000000000000000000000040000000000000000000000000000000000200000000000000000000000000000000000000000000000000000000000004000000000000000000001000000000000000002000000000000100000000000000000000000000000000000000000000000000000400000000000000000100000",
      "type": "0x2",
      "transactionHash": "0x65ca2a5c0b3e2511fcbf167fd28ff5acc6e96944ca019ff233299ec02adeed60",
      "transactionIndex": "0x1",
      "blockHash": "0xe2c77af905f5a6f3fe7b1fc9fc1982e25263abe141189aa1858fac42ec306808",
      "blockNumber": "0xe06684",
      "gasUsed": "0x9bc89",
      "effectiveGasPrice": "0x8bb2c970f",
      "from": "0xe62ab4d111f968660c6b2188046f9b9ba53c4bae",
      "to": "0xfdd1a5b3aeea2df15a6f6b502784b61bdcbf66bc",
      "contractAddress": null
    }
  ],
  "libraries": [],
  "pending": [],
  "returns": {},
  "timestamp": 1732212761,
  "chain": 80002,
  "commit": "4b2e1f8c"
}