{
  "transactions": [
    {
      "hash": "0xaff284cf3746b0dcca7c999d2ef417bde2c9f804768088264b246142bd3ea9ca",
      "transactionType": "CALL",
      "contractName": null,
      "contractAddress": "0x66db3f564807fdc689ec85285981ef464daeb943",
      "function": "addChainContract(string[],string[])",
      "arguments": [
        "[1115, 200810]",
        "[0xc0b8f765907ab09106010190ee991aaae01f88ba, 0xe08c7ee637336565511eb3421dafdf45b860f9bc]"
      ],
      "transaction": {
        "from": "0xe62ab4d111f968660c6b2188046f9b9ba53c4bae",
        "to": "0x66db3f564807fdc689ec85285981ef464daeb943",
        "gas": "0x7880c",
        "value": "0x0",
        "input": "0x013fd3bd0000000000000000000000000000000000000000000000000000000000000040000000000000000000000000000000000000000000000000000000000000012000000000000000000000000000000000000000000000000000000000000000020000000000000000000000000000000000000000000000000000000000000040000000000000000000000000000000000000000000000000000000000000008000000000000000000000000000000000000000000000000000000000000000043131313500000000000000000000000000000000000000000000000000000000000000000000000000000000000000000000000000000000000000000000000632303038313000000000000000000000000000000000000000000000000000000000000000000000000000000000000000000000000000000000000000000002000000000000000000000000000000000000000000000000000000000000004000000000000000000000000000000000000000000000000000000000000000a0000000000000000000000000000000000000000000000000000000000000002a30786330623866373635393037616230393130363031303139306565393931616161653031663838626100000000000000000000000000000000000000000000000000000000000000000000000000000000000000000000000000000000002a30786530386337656536333733333635363535313165623334323164616664663435623836306639626300000000000000000000000000000000000000000000",
        "nonce": "0x38a",
        "chainId": "0x13882"
      },
      "additionalContracts": [],
      "isFixedGasLimit": false
    },
    {
      "hash": "0x61918e45b4282062514d6b203bf1c9cd56e8032e257ef46a9097e43529e317ec",
      "transactionType": "CALL",
      "contractName": null,
      "contractAddress": "0x66db3f564807fdc689ec85285981ef464daeb943",
      "function": "attachRWAX(uint256,uint256,string[],string[])",
      "arguments": [
        "1",
        "1",
        "[1115, 200810]",
        "[0xc981d340ac02b717b52dc249c46b1942e20edbad, 0x78f81b1aee019efaafe58853d96c5e9ac87be731]"
      ],
      "transaction": {
        "from": "0xe62ab4d111f968660c6b2188046f9b9ba53c4bae",
        "to": "0x66db3f564807fdc689ec85285981ef464daeb943",
        "gas": "0x8df51",
        "value": "0x0",
        "input": "0x33a5f5b4000000000000000000000000000000000000000000000000000000000000000100000000000000000000000000000000000000000000000000000000000000010000000000000000000000000000000000000000000000000000000000000080000000000000000000000000000000000000000000000000000000000000016000000000000000000000000000000000000000000000000000000000000000020000000000000000000000000000000000000000000000000000000000000040000000000000000000000000000000000000000000000000000000000000008000000000000000000000000000000000000000000000000000000000000000043131313500000000000000000000000000000000000000000000000000000000000000000000000000000000000000000000000000000000000000000000000632303038313000000000000000000000000000000000000000000000000000000000000000000000000000000000000000000000000000000000000000000002000000000000000000000000000000000000000000000000000000000000004000000000000000000000000000000000000000000000000000000000000000a0000000000000000000000000000000000000000000000000000000000000002a30786339383164333430616330326237313762353264633234396334366231393432653230656462616400000000000000000000000000000000000000000000000000000000000000000000000000000000000000000000000000000000002a30783738663831623161656530313965666161666535383835336439366335653961633837626537333100000000000000000000000000000000000000000000",
        "nonce": "0x38b",
        "chainId": "0x13882"
      },
      "additionalContracts": [],
      "isFixedGasLimit": false
    },
    {
      "hash": "0x98c87e4c9854e72c4e9126473adb8532921ac5c506c5bdf3200aae37a40d4902",
      "transactionType": "CALL",
      "contractName": null,
      "contractAddress": "0x66db3f564807fdc689ec85285981ef464daeb943",
      "function": "attachStorageManager(uint256,uint256,string[],string[])",
      "arguments": [
        "1",
        "1",
        "[1115, 200810]",
        "[0x2809808fc225fdaf859826ce7499a56b106d8870, 0x0f607af04457e86ec349fbebb6e23b0a6a0d067f]"
      ],
      "transaction": {
        "from": "0xe62ab4d111f968660c6b2188046f9b9ba53c4bae",
        "to": "0x66db3f564807fdc689ec85285981ef464daeb943",
        "gas": "0x7b8c4",
        "value": "0x0",
        "input": "0x2f68b489000000000000000000000000000000000000000000000000000000000000000100000000000000000000000000000000000000000000000000000000000000010000000000000000000000000000000000000000000000000000000000000080000000000000000000000000000000000000000000000000000000000000016000000000000000000000000000000000000000000000000000000000000000020000000000000000000000000000000000000000000000000000000000000040000000000000000000000000000000000000000000000000000000000000008000000000000000000000000000000000000000000000000000000000000000043131313500000000000000000000000000000000000000000000000000000000000000000000000000000000000000000000000000000000000000000000000632303038313000000000000000000000000000000000000000000000000000000000000000000000000000000000000000000000000000000000000000000002000000000000000000000000000000000000000000000000000000000000004000000000000000000000000000000000000000000000000000000000000000a0000000000000000000000000000000000000000000000000000000000000002a30783238303938303866633232356664616638353938323663653734393961353662313036643838373000000000000000000000000000000000000000000000000000000000000000000000000000000000000000000000000000000000002a30783066363037616630343435376538366563333439666265626236653233623061366130643036376600000000000000000000000000000000000000000000",
        "nonce": "0x38c",
        "chainId": "0x13882"
      },
      "additionalContracts": [],
      "isFixedGasLimit": false
    },
    {
      "hash": "0x3bf5f81c43039dda225c652e75721ebeb796a976e2d527f4f6aa3e1f86d475ba",
      "transactionType": "CALL",
      "contractName": null,
      "contractAddress": "0x66db3f564807fdc689ec85285981ef464daeb943",
      "function": "attachSentryManager(uint256,uint256,string[],string[])",
      "arguments": [
        "1",
        "1",
        "[1115, 200810]",
        "[0xea37aefe52e5327528f71171844474cf77507770, 0x10a04ad4a73c8bb00ee5a29b27d11eee85390306]"
      ],
      "transaction": {
        "from": "0xe62ab4d111f968660c6b2188046f9b9ba53c4bae",
        "to": "0x66db3f564807fdc689ec85285981ef464daeb943",
        "gas": "0x7497c",
        "value": "0x0",
        "input": "0x349de797000000000000000000000000000000000000000000000000000000000000000100000000000000000000000000000000000000000000000000000000000000010000000000000000000000000000000000000000000000000000000000000080000000000000000000000000000000000000000000000000000000000000016000000000000000000000000000000000000000000000000000000000000000020000000000000000000000000000000000000000000000000000000000000040000000000000000000000000000000000000000000000000000000000000008000000000000000000000000000000000000000000000000000000000000000043131313500000000000000000000000000000000000000000000000000000000000000000000000000000000000000000000000000000000000000000000000632303038313000000000000000000000000000000000000000000000000000000000000000000000000000000000000000000000000000000000000000000002000000000000000000000000000000000000000000000000000000000000004000000000000000000000000000000000000000000000000000000000000000a0000000000000000000000000000000000000000000000000000000000000002a30786561333761656665353265353332373532386637313137313834343437346366373735303737373000000000000000000000000000000000000000000000000000000000000000000000000000000000000000000000000000000000002a30783130613034616434613733633862623030656535613239623237643131656565383533393033303600000000000000000000000000000000000000000000",
        "nonce": "0x38d",
        "chainId": "0x13882"
      },
      "additionalContracts": [],
      "isFixedGasLimit": false
    }
  ],
  "receipts": [
    {
      "status": "0x1",
      "cumulativeGasUsed": "0x52653",
      "logs": [
        {
          "address": "0x0000000000000000000000000000000000001010",
          "topics": [
            "0x4dfe1bbbcf077ddc3e01291eea2d5c70c2b422b415d95645b9adcfd678cb1d63",
            "0x0000000000000000000000000000000000000000000000000000000000001010",
            "0x000000000000000000000000e62ab4d111f968660c6b2188046f9b9ba53c4bae",
            "0x0000000000000000000000006ab3d36c46ecfb9b9c0bd51cb1c3da5a2c81cea6"
          ],
          "data": "0x00000000000000000000000000000000000000000000000000241ed867e2a71d000000000000000000000000000000000000000000000017b4608ccfcef7fb4d00000000000000000000000000000000000000000000082d261209095b352d9f000000000000000000000000000000000000000000000017b43c6df76715543000000000000000000000000000000000000000000000082d263627e1c317d4bc",
          "blockHash": "0x2fe98a60d05273cfa0a1b9d699074599753ebb484935bcbb4ca03893ca0aff22",
          "blockNumber": "0x153b4ff",
          "transactionHash": "0xaff284cf3746b0dcca7c999d2ef417bde2c9f804768088264b246142bd3ea9ca",
          "transactionIndex": "0x0",
          "logIndex": "0x0",
          "removed": false
        }
      ],
      "logsBloom": "0x20000000080000000004000000000000000000000000000000000000000000000000000000000000000000000000000000008000000000000000000000000000000000080000000000000000000000800000000000000000000100000000000000000000000000000000000000000000000000000000000080000000000000000000000000000000000000000000040000000000000000000000000000000000200000000000000000000000000000000000000000000000000000000000004000000000000000000001000000000000000000010000000000100000000000000000000000000000000000000000000000000000000000000000000000100000",
      "type": "0x2",
      "transactionHash": "0xaff284cf3746b0dcca7c999d2ef417bde2c9f804768088264b246142bd3ea9ca",
      "transactionIndex": "0x0",
      "blockHash": "0x2fe98a60d05273cfa0a1b9d699074599753ebb484935bcbb4ca03893ca0aff22",
      "blockNumber": "0x153b4ff",
      "gasUsed": "0x52653",
      "effectiveGasPrice": "0x7039b6ede",
      "from": "0xe62ab4d111f968660c6b2188046f9b9ba53c4bae",
      "to": "0x66db3f564807fdc689ec85285981ef464daeb943",
      "contractAddress": null
    },
    {
      "status": "0x1",
      "cumulativeGasUsed": "0x6110a",
      "logs": [
        {
          "address": "0x0000000000000000000000000000000000001010",
          "topics": [
            "0x4dfe1bbbcf077ddc3e01291eea2d5c70c2b422b415d95645b9adcfd678cb1d63",
            "0x0000000000000000000000000000000000000000000000000000000000001010",
            "0x000000000000000000000000e62ab4d111f968660c6b2188046f9b9ba53c4bae",
            "0x0000000000000000000000006ab3d36c46ecfb9b9c0bd51cb1c3da5a2c81cea6"
          ],
          "data": "0x000000000000000000000000000000000000000000000000002a8d280f481316000000000000000000000000000000000000000000000017b43c6df766c8155300000000000000000000000000000000000000000000082d26412acae13bc305000000000000000000000000000000000000000000000017b411e0cf5780023d00000000000000000000000000000000000000000000082d266bb7f2f083d61b",
          "blockHash": "0xe458ac935d59f6bfaced619ee0c4361abe1280a31d964bc66735d724111845b6",
          "blockNumber": "0x153b501",
          "transactionHash": "0x61918e45b4282062514d6b203bf1c9cd56e8032e257ef46a9097e43529e317ec",
          "transactionIndex": "0x0",
          "logIndex": "0x0",
          "removed": false
        }
      ],
      "logsBloom": "0x20000000080000000004000000000000000000000000000000000000000000000000000000000000000000000000000000008000000000000000000000000000000000080000000000000000000000800000000000000000000100000000000000000000000000000000000000000000000000000000000080000000000000000000000000000000000000000000040000000000000000000000000000000000200000000000000000000000000000000000000000000000000000000000004000000000000000000001000000000000000000010000000000100000000000000000000000000000000000000000000000000000000000000000000000100000",
      "type": "0x2",
      "transactionHash": "0x61918e45b4282062514d6b203bf1c9cd56e8032e257ef46a9097e43529e317ec",
      "transactionIndex": "0x0",
      "blockHash": "0xe458ac935d59f6bfaced619ee0c4361abe1280a31d964bc66735d724111845b6",
      "blockNumber": "0x153b501",
      "gasUsed": "0x6110a",
      "effectiveGasPrice": "0x7039b6ede",
      "from": "0xe62ab4d111f968660c6b2188046f9b9ba53c4bae",
      "to": "0x66db3f564807fdc689ec85285981ef464daeb943",
      "contractAddress": null
    },
    {
      "status": "0x1",
      "cumulativeGasUsed": "0x547a3",
      "logs": [
        {
          "address": "0x0000000000000000000000000000000000001010",
          "topics": [
            "0x4dfe1bbbcf077ddc3e01291eea2d5c70c2b422b415d95645b9adcfd678cb1d63",
            "0x0000000000000000000000000000000000000000000000000000000000001010",
            "0x000000000000000000000000e62ab4d111f968660c6b2188046f9b9ba53c4bae",
            "0x0000000000000000000000006ab3d36c46ecfb9b9c0bd51cb1c3da5a2c81cea6"
          ],
          "data": "0x0000000000000000000000000000000000000000000000000025088091bdf6cd000000000000000000000000000000000000000000000017b411e0cf572502a700000000000000000000000000000000000000000000082d266bb7f2f083d61b000000000000000000000000000000000000000000000017b3ecd84ec5670bda00000000000000000000000000000000000000000000082d2690c0738241cce8",
          "blockHash": "0x079327720ee72b0a62cd6efe68e251590ae769926d52c97a9e0576cf461c68eb",
          "blockNumber": "0x153b503",
          "transactionHash": "0x98c87e4c9854e72c4e9126473adb8532921ac5c506c5bdf3200aae37a40d4902",
          "transactionIndex": "0x0",
          "logIndex": "0x0",
          "removed": false
        }
      ],
      "logsBloom": "0x20000000080000000004000000000000000000000000000000000000000000000000000000000000000000000000000000008000000000000000000000000000000000080000000000000000000000800000000000000000000100000000000000000000000000000000000000000000000000000000000080000000000000000000000000000000000000000000040000000000000000000000000000000000200000000000000000000000000000000000000000000000000000000000004000000000000000000001000000000000000000010000000000100000000000000000000000000000000000000000000000000000000000000000000000100000",
      "type": "0x2",
      "transactionHash": "0x98c87e4c9854e72c4e9126473adb8532921ac5c506c5bdf3200aae37a40d4902",
      "transactionIndex": "0x0",
      "blockHash": "0x079327720ee72b0a62cd6efe68e251590ae769926d52c97a9e0576cf461c68eb",
      "blockNumber": "0x153b503",
      "gasUsed": "0x547a3",
      "effectiveGasPrice": "0x7039b6ede",
      "from": "0xe62ab4d111f968660c6b2188046f9b9ba53c4bae",
      "to": "0x66db3f564807fdc689ec85285981ef464daeb943",
      "contractAddress": null
    },
    {
      "status": "0x1",
      "cumulativeGasUsed": "0x54694",
      "logs": [
        {
          "address": "0x0000000000000000000000000000000000001010",
          "topics": [
            "0x4dfe1bbbcf077ddc3e01291eea2d5c70c2b422b415d95645b9adcfd678cb1d63",
            "0x0000000000000000000000000000000000000000000000000000000000001010",
            "0x000000000000000000000000e62ab4d111f968660c6b2188046f9b9ba53c4bae",
            "0x0000000000000000000000006ab3d36c46ecfb9b9c0bd51cb1c3da5a2c81cea6"
          ],
          "data": "0x00000000000000000000000000000000000000000000000000250113c033a9ac000000000000000000000000000000000000000000000017b3ecd84ec517d94d00000000000000000000000000000000000000000000082d27319b58e43e2ae8000000000000000000000000000000000000000000000017b3c7d73b04e42fa100000000000000000000000000000000000000000000082d27569c6ca471d494",
          "blockHash": "0x4676f07fb68ab97a7f3d41f61531a0a67cfd50789d930bda333c24f569741ec7",
          "blockNumber": "0x153b505",
          "transactionHash": "0x3bf5f81c43039dda225c652e75721ebeb796a976e2d527f4f6aa3e1f86d475ba",
          "transactionIndex": "0x0",
          "logIndex": "0x0",
          "removed": false
        }
      ],
      "logsBloom": "0x20000000080000000004000000000000000000000000000000000000000000000000000000000000000000000000000000008000000000000000000000000000000000080000000000000000000000800000000000000000000100000000000000000000000000000000000000000000000000000000000080000000000000000000000000000000000000000000040000000000000000000000000000000000200000000000000000000000000000000000000000000000000000000000004000000000000000000001000000000000000000010000000000100000000000000000000000000000000000000000000000000000000000000000000000100000",
      "type": "0x2",
      "transactionHash": "0x3bf5f81c43039dda225c652e75721ebeb796a976e2d527f4f6aa3e1f86d475ba",
      "transactionIndex": "0x0",
      "blockHash": "0x4676f07fb68ab97a7f3d41f61531a0a67cfd50789d930bda333c24f569741ec7",
      "blockNumber": "0x153b505",
      "gasUsed": "0x54694",
      "effectiveGasPrice": "0x7039b6ede",
      "from": "0xe62ab4d111f968660c6b2188046f9b9ba53c4bae",
      "to": "0x66db3f564807fdc689ec85285981ef464daeb943",
      "contractAddress": null
    }
  ],
  "libraries": [],
  "pending": [],
  "returns": {},
  "timestamp": 1748531158,
  "chain": 80002,
  "commit": "c07ce9ba"
}