{
  "transactions": [
    {
      "hash": "0x1deaf90f6b84af898a3d26fa8e454fe4ea49ef1108b441e962f1072f72905670",
      "transactionType": "CALL",
      "contractName": null,
      "contractAddress": "0x7743150e59d6a27ec96ddda07b24131d0122b611",
      "function": "getFeeTokenList()",
      "arguments": [],
      "transaction": {
        "from": "0xe62ab4d111f968660c6b2188046f9b9ba53c4bae",
        "to": "0x7743150e59d6a27ec96ddda07b24131d0122b611",
        "gas": "0x8a7e",
        "value": "0x0",
        "input": "0xe28ab277",
        "nonce": "0x1eb",
        "chainId": "0x13882"
      },
      "additionalContracts": [],
      "isFixedGasLimit": false
    },
    {
      "hash": "0xaf99245c884a5c853d1d8a7c55be9d4f35ef91a21ed8b211be100ad8194da7a2",
      "transactionType": "CALL",
      "contractName": null,
      "contractAddress": "0x7743150e59d6a27ec96ddda07b24131d0122b611",
      "function": "addFeeToken(string)",
      "arguments": [
        "0x6a4dbc971533ba36bdc23ad70f5a7a12e064f4ae"
      ],
      "transaction": {
        "from": "0xe62ab4d111f968660c6b2188046f9b9ba53c4bae",
        "to": "0x7743150e59d6a27ec96ddda07b24131d0122b611",
        "gas": "0x2696b",
        "value": "0x0",
        "input": "0x12a6385f0000000000000000000000000000000000000000000000000000000000000020000000000000000000000000000000000000000000000000000000000000002a30783661346462633937313533336261333662646332336164373066356137613132653036346634616500000000000000000000000000000000000000000000",
        "nonce": "0x1ec",
        "chainId": "0x13882"
      },
      "additionalContracts": [],
      "isFixedGasLimit": false
    },
    {
      "hash": "0x086ffdc8fb8d97e5b246134c78692f15277619ff335e7bf2de9fb8d461c59235",
      "transactionType": "CALL",
      "contractName": null,
      "contractAddress": "0x7743150e59d6a27ec96ddda07b24131d0122b611",
      "function": "setFeeMultiplier(uint8,uint256)",
      "arguments": [
        "0",
        "2"
      ],
      "transaction": {
        "from": "0xe62ab4d111f968660c6b2188046f9b9ba53c4bae",
        "to": "0x7743150e59d6a27ec96ddda07b24131d0122b611",
        "gas": "0x112e8",
        "value": "0x0",
        "input": "0x0ee24eb500000000000000000000000000000000000000000000000000000000000000000000000000000000000000000000000000000000000000000000000000000002",
        "nonce": "0x1ed",
        "chainId": "0x13882"
      },
      "additionalContracts": [],
      "isFixedGasLimit": false
    },
    {
      "hash": "0x6e49f47c87cfc9a1fde100f076a80edf0434a4191b1f517b41890ab88df400c2",
      "transactionType": "CALL",
      "contractName": null,
      "contractAddress": "0x7743150e59d6a27ec96ddda07b24131d0122b611",
      "function": "setFeeMultiplier(uint8,uint256)",
      "arguments": [
        "1",
        "10"
      ],
      "transaction": {
        "from": "0xe62ab4d111f968660c6b2188046f9b9ba53c4bae",
        "to": "0x7743150e59d6a27ec96ddda07b24131d0122b611",
        "gas": "0x11324",
        "value": "0x0",
        "input": "0x0ee24eb50000000000000000000000000000000000000000000000000000000000000001000000000000000000000000000000000000000000000000000000000000000a",
        "nonce": "0x1ee",
        "chainId": "0x13882"
      },
      "additionalContracts": [],
      "isFixedGasLimit": false
    },
    {
      "hash": "0x42747f4e001955e62ac684d9a28954ca0217edd73692d28db3d4961ef8895aee",
      "transactionType": "CALL",
      "contractName": null,
      "contractAddress": "0x7743150e59d6a27ec96ddda07b24131d0122b611",
      "function": "setFeeMultiplier(uint8,uint256)",
      "arguments": [
        "2",
        "1"
      ],
      "transaction": {
        "from": "0xe62ab4d111f968660c6b2188046f9b9ba53c4bae",
        "to": "0x7743150e59d6a27ec96ddda07b24131d0122b611",
        "gas": "0x11346",
        "value": "0x0",
        "input": "0x0ee24eb500000000000000000000000000000000000000000000000000000000000000020000000000000000000000000000000000000000000000000000000000000001",
        "nonce": "0x1ef",
        "chainId": "0x13882"
      },
      "additionalContracts": [],
      "isFixedGasLimit": false
    },
    {
      "hash": "0x8833e90b7d3dfed5773b2ce7573a3f08c24989ed70667a2d9e274c3ea4b9332c",
      "transactionType": "CALL",
      "contractName": null,
      "contractAddress": "0x7743150e59d6a27ec96ddda07b24131d0122b611",
      "function": "setFeeMultiplier(uint8,uint256)",
      "arguments": [
        "3",
        "4"
      ],
      "transaction": {
        "from": "0xe62ab4d111f968660c6b2188046f9b9ba53c4bae",
        "to": "0x7743150e59d6a27ec96ddda07b24131d0122b611",
        "gas": "0x1041b",
        "value": "0x0",
        "input": "0x0ee24eb500000000000000000000000000000000000000000000000000000000000000030000000000000000000000000000000000000000000000000000000000000004",
        "nonce": "0x1f0",
        "chainId": "0x13882"
      },
      "additionalContracts": [],
      "isFixedGasLimit": false
    },
    {
      "hash": "0xbccea42262f25fc391d2e7364400e8668eb79fdc12c8546e210bc91daa4b8fe8",
      "transactionType": "CALL",
      "contractName": null,
      "contractAddress": "0x7743150e59d6a27ec96ddda07b24131d0122b611",
      "function": "setFeeMultiplier(uint8,uint256)",
      "arguments": [
        "4",
        "4"
      ],
      "transaction": {
        "from": "0xe62ab4d111f968660c6b2188046f9b9ba53c4bae",
        "to": "0x7743150e59d6a27ec96ddda07b24131d0122b611",
        "gas": "0x1043a",
        "value": "0x0",
        "input": "0x0ee24eb500000000000000000000000000000000000000000000000000000000000000040000000000000000000000000000000000000000000000000000000000000004",
        "nonce": "0x1f1",
        "chainId": "0x13882"
      },
      "additionalContracts": [],
      "isFixedGasLimit": false
    },
    {
      "hash": "0x9b5bb52c6c91f8efd3c82316657f5a1856f7f7f6c501fb58ba2457d76bf3ba29",
      "transactionType": "CALL",
      "contractName": null,
      "contractAddress": "0x7743150e59d6a27ec96ddda07b24131d0122b611",
      "function": "setFeeMultiplier(uint8,uint256)",
      "arguments": [
        "5",
        "4"
      ],
      "transaction": {
        "from": "0xe62ab4d111f968660c6b2188046f9b9ba53c4bae",
        "to": "0x7743150e59d6a27ec96ddda07b24131d0122b611",
        "gas": "0x10459",
        "value": "0x0",
        "input": "0x0ee24eb500000000000000000000000000000000000000000000000000000000000000050000000000000000000000000000000000000000000000000000000000000004",
        "nonce": "0x1f2",
        "chainId": "0x13882"
      },
      "additionalContracts": [],
      "isFixedGasLimit": false
    },
    {
      "hash": "0x35d71938e7e4d9116cdeb3dea5104b3b9b4a10414f3ec1bcb8fb1052a7ef07c6",
      "transactionType": "CALL",
      "contractName": null,
      "contractAddress": "0x7743150e59d6a27ec96ddda07b24131d0122b611",
      "function": "setFeeMultiplier(uint8,uint256)",
      "arguments": [
        "6",
        "8"
      ],
      "transaction": {
        "from": "0xe62ab4d111f968660c6b2188046f9b9ba53c4bae",
        "to": "0x7743150e59d6a27ec96ddda07b24131d0122b611",
        "gas": "0x1047a",
        "value": "0x0",
        "input": "0x0ee24eb500000000000000000000000000000000000000000000000000000000000000060000000000000000000000000000000000000000000000000000000000000008",
        "nonce": "0x1f3",
        "chainId": "0x13882"
      },
      "additionalContracts": [],
      "isFixedGasLimit": false
    },
    {
      "hash": "0x68741c2739ad9e5ffeee35cff9b0b60f5788f26013ebccc2c8658c45b962d236",
      "transactionType": "CALL",
      "contractName": null,
      "contractAddress": "0x7743150e59d6a27ec96ddda07b24131d0122b611",
      "function": "setFeeMultiplier(uint8,uint256)",
      "arguments": [
        "7",
        "4"
      ],
      "transaction": {
        "from": "0xe62ab4d111f968660c6b2188046f9b9ba53c4bae",
        "to": "0x7743150e59d6a27ec96ddda07b24131d0122b611",
        "gas": "0x10499",
        "value": "0x0",
        "input": "0x0ee24eb500000000000000000000000000000000000000000000000000000000000000070000000000000000000000000000000000000000000000000000000000000004",
        "nonce": "0x1f4",
        "chainId": "0x13882"
      },
      "additionalContracts": [],
      "isFixedGasLimit": false
    },
    {
      "hash": "0xb70c9ee34bbbe130f418f64ffceb24ab3a1babe7480405f55e2f2883d1fc07db",
      "transactionType": "CALL",
      "contractName": null,
      "contractAddress": "0x7743150e59d6a27ec96ddda07b24131d0122b611",
      "function": "setFeeMultiplier(uint8,uint256)",
      "arguments": [
        "8",
        "10"
      ],
      "transaction": {
        "from": "0xe62ab4d111f968660c6b2188046f9b9ba53c4bae",
        "to": "0x7743150e59d6a27ec96ddda07b24131d0122b611",
        "gas": "0x1140f",
        "value": "0x0",
        "input": "0x0ee24eb50000000000000000000000000000000000000000000000000000000000000008000000000000000000000000000000000000000000000000000000000000000a",
        "nonce": "0x1f5",
        "chainId": "0x13882"
      },
      "additionalContracts": [],
      "isFixedGasLimit": false
    },
    {
      "hash": "0xf419f911bd274a38459030142c2179f5f680f73113bd1d6cd87da0793cfcfd70",
      "transactionType": "CALL",
      "contractName": null,
      "contractAddress": "0x7743150e59d6a27ec96ddda07b24131d0122b611",
      "function": "setFeeMultiplier(uint8,uint256)",
      "arguments": [
        "9",
        "8"
      ],
      "transaction": {
        "from": "0xe62ab4d111f968660c6b2188046f9b9ba53c4bae",
        "to": "0x7743150e59d6a27ec96ddda07b24131d0122b611",
        "gas": "0x11431",
        "value": "0x0",
        "input": "0x0ee24eb500000000000000000000000000000000000000000000000000000000000000090000000000000000000000000000000000000000000000000000000000000008",
        "nonce": "0x1f6",
        "chainId": "0x13882"
      },
      "additionalContracts": [],
      "isFixedGasLimit": false
    },
    {
      "hash": "0xec7da46627a043132d9a0cc7858495a91272cae58c061849c214ad43843a05d0",
      "transactionType": "CALL",
      "contractName": null,
      "contractAddress": "0x7743150e59d6a27ec96ddda07b24131d0122b611",
      "function": "setFeeMultiplier(uint8,uint256)",
      "arguments": [
        "10",
        "8"
      ],
      "transaction": {
        "from": "0xe62ab4d111f968660c6b2188046f9b9ba53c4bae",
        "to": "0x7743150e59d6a27ec96ddda07b24131d0122b611",
        "gas": "0x11453",
        "value": "0x0",
        "input": "0x0ee24eb5000000000000000000000000000000000000000000000000000000000000000a0000000000000000000000000000000000000000000000000000000000000008",
        "nonce": "0x1f7",
        "chainId": "0x13882"
      },
      "additionalContracts": [],
      "isFixedGasLimit": false
    },
    {
      "hash": "0xf087e9709e1ab8de1a74f3c2ebfb6f95116a72f5a8d0e5e907c41c56b6fbd1c5",
      "transactionType": "CALL",
      "contractName": null,
      "contractAddress": "0x7743150e59d6a27ec96ddda07b24131d0122b611",
      "function": "setFeeMultiplier(uint8,uint256)",
      "arguments": [
        "11",
        "8"
      ],
      "transaction": {
        "from": "0xe62ab4d111f968660c6b2188046f9b9ba53c4bae",
        "to": "0x7743150e59d6a27ec96ddda07b24131d0122b611",
        "gas": "0x10518",
        "value": "0x0",
        "input": "0x0ee24eb5000000000000000000000000000000000000000000000000000000000000000b0000000000000000000000000000000000000000000000000000000000000008",
        "nonce": "0x1f8",
        "chainId": "0x13882"
      },
      "additionalContracts": [],
      "isFixedGasLimit": false
    },
    {
      "hash": "0xa7020c1a651edcbc471460cfb02981bd0c3ebcc8d5a7635139414f3e85958d00",
      "transactionType": "CALL",
      "contractName": null,
      "contractAddress": "0x7743150e59d6a27ec96ddda07b24131d0122b611",
      "function": "setFeeMultiplier(uint8,uint256)",
      "arguments": [
        "12",
        "20"
      ],
      "transaction": {
        "from": "0xe62ab4d111f968660c6b2188046f9b9ba53c4bae",
        "to": "0x7743150e59d6a27ec96ddda07b24131d0122b611",
        "gas": "0x10538",
        "value": "0x0",
        "input": "0x0ee24eb5000000000000000000000000000000000000000000000000000000000000000c0000000000000000000000000000000000000000000000000000000000000014",
        "nonce": "0x1f9",
        "chainId": "0x13882"
      },
      "additionalContracts": [],
      "isFixedGasLimit": false
    },
    {
      "hash": "0x3cef60859cec3ae313c9bf6e83e60adc6a3e82bbadc7e6dd2f8e0632f8a23037",
      "transactionType": "CALL",
      "contractName": null,
      "contractAddress": "0x7743150e59d6a27ec96ddda07b24131d0122b611",
      "function": "setFeeMultiplier(uint8,uint256)",
      "arguments": [
        "13",
        "8"
      ],
      "transaction": {
        "from": "0xe62ab4d111f968660c6b2188046f9b9ba53c4bae",
        "to": "0x7743150e59d6a27ec96ddda07b24131d0122b611",
        "gas": "0x10558",
        "value": "0x0",
        "input": "0x0ee24eb5000000000000000000000000000000000000000000000000000000000000000d0000000000000000000000000000000000000000000000000000000000000008",
        "nonce": "0x1fa",
        "chainId": "0x13882"
      },
      "additionalContracts": [],
      "isFixedGasLimit": false
    },
    {
      "hash": "0x126b8cae37d7d4f03859edc26742bcdc2b3b1bbc68733479defbd441948c8fda",
      "transactionType": "CALL",
      "contractName": null,
      "contractAddress": "0x7743150e59d6a27ec96ddda07b24131d0122b611",
      "function": "setFeeMultiplier(uint8,uint256)",
      "arguments": [
        "14",
        "4"
      ],
      "transaction": {
        "from": "0xe62ab4d111f968660c6b2188046f9b9ba53c4bae",
        "to": "0x7743150e59d6a27ec96ddda07b24131d0122b611",
        "gas": "0x10577",
        "value": "0x0",
        "input": "0x0ee24eb5000000000000000000000000000000000000000000000000000000000000000e0000000000000000000000000000000000000000000000000000000000000004",
        "nonce": "0x1fb",
        "chainId": "0x13882"
      },
      "additionalContracts": [],
      "isFixedGasLimit": false
    },
    {
      "hash": "0x8e45f1e6a0903e15def4f20ca0b55529aef2a3d4e6c420c536d1eeac0e67147b",
      "transactionType": "CALL",
      "contractName": null,
      "contractAddress": "0x7743150e59d6a27ec96ddda07b24131d0122b611",
      "function": "setFeeMultiplier(uint8,uint256)",
      "arguments": [
        "15",
        "4"
      ],
      "transaction": {
        "from": "0xe62ab4d111f968660c6b2188046f9b9ba53c4bae",
        "to": "0x7743150e59d6a27ec96ddda07b24131d0122b611",
        "gas": "0x10598",
        "value": "0x0",
        "input": "0x0ee24eb5000000000000000000000000000000000000000000000000000000000000000f0000000000000000000000000000000000000000000000000000000000000004",
        "nonce": "0x1fc",
        "chainId": "0x13882"
      },
      "additionalContracts": [],
      "isFixedGasLimit": false
    },
    {
      "hash": "0x45bb84163293e6fe155014cc83d6d8c9d9fd3d686c35728b9f53d4fb283612b2",
      "transactionType": "CALL",
      "contractName": null,
      "contractAddress": "0x7743150e59d6a27ec96ddda07b24131d0122b611",
      "function": "setFeeMultiplier(uint8,uint256)",
      "arguments": [
        "16",
        "4"
      ],
      "transaction": {
        "from": "0xe62ab4d111f968660c6b2188046f9b9ba53c4bae",
        "to": "0x7743150e59d6a27ec96ddda07b24131d0122b611",
        "gas": "0x1151d",
        "value": "0x0",
        "input": "0x0ee24eb500000000000000000000000000000000000000000000000000000000000000100000000000000000000000000000000000000000000000000000000000000004",
        "nonce": "0x1fd",
        "chainId": "0x13882"
      },
      "additionalContracts": [],
      "isFixedGasLimit": false
    },
    {
      "hash": "0x91eab709fe20ccf9cf43a7b471394bd42baed5587dc3a56d4d9870341e4c2467",
      "transactionType": "CALL",
      "contractName": null,
      "contractAddress": "0x7743150e59d6a27ec96ddda07b24131d0122b611",
      "function": "setFeeMultiplier(uint8,uint256)",
      "arguments": [
        "17",
        "4"
      ],
      "transaction": {
        "from": "0xe62ab4d111f968660c6b2188046f9b9ba53c4bae",
        "to": "0x7743150e59d6a27ec96ddda07b24131d0122b611",
        "gas": "0x1153e",
        "value": "0x0",
        "input": "0x0ee24eb500000000000000000000000000000000000000000000000000000000000000110000000000000000000000000000000000000000000000000000000000000004",
        "nonce": "0x1fe",
        "chainId": "0x13882"
      },
      "additionalContracts": [],
      "isFixedGasLimit": false
    },
    {
      "hash": "0xbe719c99260cae6111c0c1ae73e9b4e8ee1d9e83b581ed3c878678d53ece5916",
      "transactionType": "CALL",
      "contractName": null,
      "contractAddress": "0x7743150e59d6a27ec96ddda07b24131d0122b611",
      "function": "setFeeMultiplier(uint8,uint256)",
      "arguments": [
        "18",
        "2"
      ],
      "transaction": {
        "from": "0xe62ab4d111f968660c6b2188046f9b9ba53c4bae",
        "to": "0x7743150e59d6a27ec96ddda07b24131d0122b611",
        "gas": "0x11560",
        "value": "0x0",
        "input": "0x0ee24eb500000000000000000000000000000000000000000000000000000000000000120000000000000000000000000000000000000000000000000000000000000002",
        "nonce": "0x1ff",
        "chainId": "0x13882"
      },
      "additionalContracts": [],
      "isFixedGasLimit": false
    },
    {
      "hash": "0xf49a3f2b3102ea56209948718f82e83eee546d18bc0923558412766edd558d6e",
      "transactionType": "CALL",
      "contractName": null,
      "contractAddress": "0x7743150e59d6a27ec96ddda07b24131d0122b611",
      "function": "setFeeMultiplier(uint8,uint256)",
      "arguments": [
        "19",
        "2"
      ],
      "transaction": {
        "from": "0xe62ab4d111f968660c6b2188046f9b9ba53c4bae",
        "to": "0x7743150e59d6a27ec96ddda07b24131d0122b611",
        "gas": "0x1157a",
        "value": "0x0",
        "input": "0x0ee24eb500000000000000000000000000000000000000000000000000000000000000130000000000000000000000000000000000000000000000000000000000000002",
        "nonce": "0x200",
        "chainId": "0x13882"
      },
      "additionalContracts": [],
      "isFixedGasLimit": false
    },
    {
      "hash": "0x73514995a0b658c071e8f57598eab29c2ecf48895d80a6809e36ff5ab308e4d7",
      "transactionType": "CALL",
      "contractName": null,
      "contractAddress": "0x7743150e59d6a27ec96ddda07b24131d0122b611",
      "function": "addFeeToken(string,string[],uint256[])",
      "arguments": [
        "421614",
        "[0x6a4dbc971533ba36bdc23ad70f5a7a12e064f4ae]",
        "[100]"
      ],
      "transaction": {
        "from": "0xe62ab4d111f968660c6b2188046f9b9ba53c4bae",
        "to": "0x7743150e59d6a27ec96ddda07b24131d0122b611",
        "gas": "0x2f631",
        "value": "0x0",
        "input": "0x437bf84f000000000000000000000000000000000000000000000000000000000000006000000000000000000000000000000000000000000000000000000000000000a000000000000000000000000000000000000000000000000000000000000001400000000000000000000000000000000000000000000000000000000000000006343231363134000000000000000000000000000000000000000000000000000000000000000000000000000000000000000000000000000000000000000000010000000000000000000000000000000000000000000000000000000000000020000000000000000000000000000000000000000000000000000000000000002a3078366134646263393731353333626133366264633233616437306635613761313265303634663461650000000000000000000000000000000000000000000000000000000000000000000000000000000000000000000000000000000000010000000000000000000000000000000000000000000000000000000000000064",
        "nonce": "0x201",
        "chainId": "0x13882"
      },
      "additionalContracts": [],
      "isFixedGasLimit": false
    },
    {
      "hash": "0x9e9007bbc0c03ad3cfd9769b6a8e1dee553d4d8b61acc5b5d972756d673551e8",
      "transactionType": "CALL",
      "contractName": null,
      "contractAddress": "0x7743150e59d6a27ec96ddda07b24131d0122b611",
      "function": "addFeeToken(string,string[],uint256[])",
      "arguments": [
        "80002",
        "[0x6a4dbc971533ba36bdc23ad70f5a7a12e064f4ae]",
        "[100]"
      ],
      "transaction": {
        "from": "0xe62ab4d111f968660c6b2188046f9b9ba53c4bae",
        "to": "0x7743150e59d6a27ec96ddda07b24131d0122b611",
        "gas": "0x2a2a1",
        "value": "0x0",
        "input": "0x437bf84f000000000000000000000000000000000000000000000000000000000000006000000000000000000000000000000000000000000000000000000000000000a000000000000000000000000000000000000000000000000000000000000001400000000000000000000000000000000000000000000000000000000000000005383030303200000000000000000000000000000000000000000000000000000000000000000000000000000000000000000000000000000000000000000000010000000000000000000000000000000000000000000000000000000000000020000000000000000000000000000000000000000000000000000000000000002a3078366134646263393731353333626133366264633233616437306635613761313265303634663461650000000000000000000000000000000000000000000000000000000000000000000000000000000000000000000000000000000000010000000000000000000000000000000000000000000000000000000000000064",
        "nonce": "0x202",
        "chainId": "0x13882"
      },
      "additionalContracts": [],
      "isFixedGasLimit": false
    },
    {
      "hash": "0xed3ec195f7d32b2c03d53623b2005057602a80c57f7d850e44d0025e0ade584f",
      "transactionType": "CALL",
      "contractName": null,
      "contractAddress": "0x7743150e59d6a27ec96ddda07b24131d0122b611",
      "function": "addFeeToken(string,string[],uint256[])",
      "arguments": [
        "84532",
        "[0x6a4dbc971533ba36bdc23ad70f5a7a12e064f4ae]",
        "[100]"
      ],
      "transaction": {
        "from": "0xe62ab4d111f968660c6b2188046f9b9ba53c4bae",
        "to": "0x7743150e59d6a27ec96ddda07b24131d0122b611",
        "gas": "0x2a2a1",
        "value": "0x0",
        "input": "0x437bf84f000000000000000000000000000000000000000000000000000000000000006000000000000000000000000000000000000000000000000000000000000000a000000000000000000000000000000000000000000000000000000000000001400000000000000000000000000000000000000000000000000000000000000005383435333200000000000000000000000000000000000000000000000000000000000000000000000000000000000000000000000000000000000000000000010000000000000000000000000000000000000000000000000000000000000020000000000000000000000000000000000000000000000000000000000000002a3078366134646263393731353333626133366264633233616437306635613761313265303634663461650000000000000000000000000000000000000000000000000000000000000000000000000000000000000000000000000000000000010000000000000000000000000000000000000000000000000000000000000064",
        "nonce": "0x203",
        "chainId": "0x13882"
      },
      "additionalContracts": [],
      "isFixedGasLimit": false
    },
    {
      "hash": "0x4132bb527819426ca838b407521af61032d7a547c7e1327d76f34d8e222b4f01",
      "transactionType": "CALL",
      "contractName": null,
      "contractAddress": "0x7743150e59d6a27ec96ddda07b24131d0122b611",
      "function": "addFeeToken(string,string[],uint256[])",
      "arguments": [
        "97",
        "[0x6a4dbc971533ba36bdc23ad70f5a7a12e064f4ae]",
        "[100]"
      ],
      "transaction": {
        "from": "0xe62ab4d111f968660c6b2188046f9b9ba53c4bae",
        "to": "0x7743150e59d6a27ec96ddda07b24131d0122b611",
        "gas": "0x29c5a",
        "value": "0x0",
        "input": "0x437bf84f000000000000000000000000000000000000000000000000000000000000006000000000000000000000000000000000000000000000000000000000000000a000000000000000000000000000000000000000000000000000000000000001400000000000000000000000000000000000000000000000000000000000000002393700000000000000000000000000000000000000000000000000000000000000000000000000000000000000000000000000000000000000000000000000010000000000000000000000000000000000000000000000000000000000000020000000000000000000000000000000000000000000000000000000000000002a3078366134646263393731353333626133366264633233616437306635613761313265303634663461650000000000000000000000000000000000000000000000000000000000000000000000000000000000000000000000000000000000010000000000000000000000000000000000000000000000000000000000000064",
        "nonce": "0x204",
        "chainId": "0x13882"
      },
      "additionalContracts": [],
      "isFixedGasLimit": false
    },
    {
      "hash": "0x102a182705a07b30fd684283e060fff809d0633defd8c39c342677b7f7100ea9",
      "transactionType": "CALL",
      "contractName": null,
      "contractAddress": "0x7743150e59d6a27ec96ddda07b24131d0122b611",
      "function": "addFeeToken(string,string[],uint256[])",
      "arguments": [
        "11155111",
        "[0x6a4dbc971533ba36bdc23ad70f5a7a12e064f4ae]",
        "[100]"
      ],
      "transaction": {
        "from": "0xe62ab4d111f968660c6b2188046f9b9ba53c4bae",
        "to": "0x7743150e59d6a27ec96ddda07b24131d0122b611",
        "gas": "0x2a8e9",
        "value": "0x0",
        "input": "0x437bf84f000000000000000000000000000000000000000000000000000000000000006000000000000000000000000000000000000000000000000000000000000000a000000000000000000000000000000000000000000000000000000000000001400000000000000000000000000000000000000000000000000000000000000008313131353531313100000000000000000000000000000000000000000000000000000000000000000000000000000000000000000000000000000000000000010000000000000000000000000000000000000000000000000000000000000020000000000000000000000000000000000000000000000000000000000000002a3078366134646263393731353333626133366264633233616437306635613761313265303634663461650000000000000000000000000000000000000000000000000000000000000000000000000000000000000000000000000000000000010000000000000000000000000000000000000000000000000000000000000064",
        "nonce": "0x205",
        "chainId": "0x13882"
      },
      "additionalContracts": [],
      "isFixedGasLimit": false
    },
    {
      "hash": "0x1bb1f42bf9fbc99eb76df517c0746470abd671eb058d918004a64b063ae0280a",
      "transactionType": "CALL",
      "contractName": null,
      "contractAddress": "0x89330be16c672d4378b6731a8347d23b0c611de3",
      "function": "addChainContract(string[],string[])",
      "arguments": [
        "[421614, 84532, 97, 11155111]",
        "[0x67fd0c58bd8b925a3d3546ecc505653514b64013, 0x3561aa249d1262a912764770bb8c387a7bbb56b6, 0x7240fcdb0dd116293044ed50db499680aa532eeb, 0xb406b937c12e03d676727fc1bb686279eedbc178]"
      ],
      "transaction": {
        "from": "0xe62ab4d111f968660c6b2188046f9b9ba53c4bae",
        "to": "0x89330be16c672d4378b6731a8347d23b0c611de3",
        "gas": "0xaa1e6",
        "value": "0x0",
        "input": "0x013fd3bd000000000000000000000000000000000000000000000000000000000000004000000000000000000000000000000000000000000000000000000000000001e00000000000000000000000000000000000000000000000000000000000000004000000000000000000000000000000000000000000000000000000000000008000000000000000000000000000000000000000000000000000000000000000c000000000000000000000000000000000000000000000000000000000000001000000000000000000000000000000000000000000000000000000000000000140000000000000000000000000000000000000000000000000000000000000000634323136313400000000000000000000000000000000000000000000000000000000000000000000000000000000000000000000000000000000000000000005383435333200000000000000000000000000000000000000000000000000000000000000000000000000000000000000000000000000000000000000000000023937000000000000000000000000000000000000000000000000000000000000000000000000000000000000000000000000000000000000000000000000000831313135353131310000000000000000000000000000000000000000000000000000000000000000000000000000000000000000000000000000000000000004000000000000000000000000000000000000000000000000000000000000008000000000000000000000000000000000000000000000000000000000000000e0000000000000000000000000000000000000000000000000000000000000014000000000000000000000000000000000000000000000000000000000000001a0000000000000000000000000000000000000000000000000000000000000002a30783637666430633538626438623932356133643335343665636335303536353335313462363430313300000000000000000000000000000000000000000000000000000000000000000000000000000000000000000000000000000000002a30783335363161613234396431323632613931323736343737306262386333383761376262623536623600000000000000000000000000000000000000000000000000000000000000000000000000000000000000000000000000000000002a30783732343066636462306464313136323933303434656435306462343939363830616135333265656200000000000000000000000000000000000000000000000000000000000000000000000000000000000000000000000000000000002a30786234303662393337633132653033643637363732376663316262363836323739656564626331373800000000000000000000000000000000000000000000",
        "nonce": "0x206",
        "chainId": "0x13882"
      },
      "additionalContracts": [],
      "isFixedGasLimit": false
    },
    {
      "hash": "0x58ea333e8fdcc20c83ca9a0a0d7acb53aa99b31664b49af941e97d227c2549f7",
      "transactionType": "CALL",
      "contractName": null,
      "contractAddress": "0x89330be16c672d4378b6731a8347d23b0c611de3",
      "function": "attachRWAX(uint256,uint256,string[],string[])",
      "arguments": [
        "1",
        "1",
        "[80002, 421614, 84532, 97, 11155111]",
        "[0xb4317dba65486889643585a8d96c8d1990971cad, 0xa8f94374facdf9413407fd10af8954e20e299c5d, 0x410871e12756f751974379d56319ae5d34bb3eb5, 0x636d43798340603707c936c1a93597dc44effbee, 0xd455bb0f664ac8241b505729c3116f1acc441be4]"
      ],
      "transaction": {
        "from": "0xe62ab4d111f968660c6b2188046f9b9ba53c4bae",
        "to": "0x89330be16c672d4378b6731a8347d23b0c611de3",
        "gas": "0x105146",
        "value": "0x0",
        "input": "0x33a5f5b40000000000000000000000000000000000000000000000000000000000000001000000000000000000000000000000000000000000000000000000000000000100000000000000000000000000000000000000000000000000000000000000800000000000000000000000000000000000000000000000000000000000000280000000000000000000000000000000000000000000000000000000000000000500000000000000000000000000000000000000000000000000000000000000a000000000000000000000000000000000000000000000000000000000000000e00000000000000000000000000000000000000000000000000000000000000120000000000000000000000000000000000000000000000000000000000000016000000000000000000000000000000000000000000000000000000000000001a00000000000000000000000000000000000000000000000000000000000000005383030303200000000000000000000000000000000000000000000000000000000000000000000000000000000000000000000000000000000000000000000063432313631340000000000000000000000000000000000000000000000000000000000000000000000000000000000000000000000000000000000000000000538343533320000000000000000000000000000000000000000000000000000000000000000000000000000000000000000000000000000000000000000000002393700000000000000000000000000000000000000000000000000000000000000000000000000000000000000000000000000000000000000000000000000083131313535313131000000000000000000000000000000000000000000000000000000000000000000000000000000000000000000000000000000000000000500000000000000000000000000000000000000000000000000000000000000a00000000000000000000000000000000000000000000000000000000000000100000000000000000000000000000000000000000000000000000000000000016000000000000000000000000000000000000000000000000000000000000001c00000000000000000000000000000000000000000000000000000000000000220000000000000000000000000000000000000000000000000000000000000002a30786234333137646261363534383638383936343335383561386439366338643139393039373163616400000000000000000000000000000000000000000000000000000000000000000000000000000000000000000000000000000000002a30786138663934333734666163646639343133343037666431306166383935346532306532393963356400000000000000000000000000000000000000000000000000000000000000000000000000000000000000000000000000000000002a30783431303837316531323735366637353139373433373964353633313961653564333462623365623500000000000000000000000000000000000000000000000000000000000000000000000000000000000000000000000000000000002a30783633366434333739383334303630333730376339333663316139333539376463343465666662656500000000000000000000000000000000000000000000000000000000000000000000000000000000000000000000000000000000002a30786434353562623066363634616338323431623530353732396333313136663161636334343162653400000000000000000000000000000000000000000000",
        "nonce": "0x207",
        "chainId": "0x13882"
      },
      "additionalContracts": [],
      "isFixedGasLimit": false
    },
    {
      "hash": "0x68f6369c0f0364d3f35c9201368dfae744325a040c05a99c524f9fdad2e37791",
      "transactionType": "CALL",
      "contractName": null,
      "contractAddress": "0x89330be16c672d4378b6731a8347d23b0c611de3",
      "function": "attachStorageManager(uint256,uint256,string[],string[])",
      "arguments": [
        "1",
        "1",
        "[80002, 421614, 84532, 97, 11155111]",
        "[0x10a04ad4a73c8bb00ee5a29b27d11eee85390306, 0xe38f40efc472aae401ba1edf37edd98ba43f5266, 0xa3d476bb425ad923483c5f699fab17dbeb4473be, 0x358498985e6ac7ca73f5110b415525ae04cb8313, 0xad77409a722056b0d41b5ce2f03a6b7a2b18e3ed]"
      ],
      "transaction": {
        "from": "0xe62ab4d111f968660c6b2188046f9b9ba53c4bae",
        "to": "0x89330be16c672d4378b6731a8347d23b0c611de3",
        "gas": "0xd74f5",
        "value": "0x0",
        "input": "0x2f68b4890000000000000000000000000000000000000000000000000000000000000001000000000000000000000000000000000000000000000000000000000000000100000000000000000000000000000000000000000000000000000000000000800000000000000000000000000000000000000000000000000000000000000280000000000000000000000000000000000000000000000000000000000000000500000000000000000000000000000000000000000000000000000000000000a000000000000000000000000000000000000000000000000000000000000000e00000000000000000000000000000000000000000000000000000000000000120000000000000000000000000000000000000000000000000000000000000016000000000000000000000000000000000000000000000000000000000000001a00000000000000000000000000000000000000000000000000000000000000005383030303200000000000000000000000000000000000000000000000000000000000000000000000000000000000000000000000000000000000000000000063432313631340000000000000000000000000000000000000000000000000000000000000000000000000000000000000000000000000000000000000000000538343533320000000000000000000000000000000000000000000000000000000000000000000000000000000000000000000000000000000000000000000002393700000000000000000000000000000000000000000000000000000000000000000000000000000000000000000000000000000000000000000000000000083131313535313131000000000000000000000000000000000000000000000000000000000000000000000000000000000000000000000000000000000000000500000000000000000000000000000000000000000000000000000000000000a00000000000000000000000000000000000000000000000000000000000000100000000000000000000000000000000000000000000000000000000000000016000000000000000000000000000000000000000000000000000000000000001c00000000000000000000000000000000000000000000000000000000000000220000000000000000000000000000000000000000000000000000000000000002a30783130613034616434613733633862623030656535613239623237643131656565383533393033303600000000000000000000000000000000000000000000000000000000000000000000000000000000000000000000000000000000002a30786533386634306566633437326161653430316261316564663337656464393862613433663532363600000000000000000000000000000000000000000000000000000000000000000000000000000000000000000000000000000000002a30786133643437366262343235616439323334383363356636393966616231376462656234343733626500000000000000000000000000000000000000000000000000000000000000000000000000000000000000000000000000000000002a30783335383439383938356536616337636137336635313130623431353532356165303463623833313300000000000000000000000000000000000000000000000000000000000000000000000000000000000000000000000000000000002a30786164373734303961373232303536623064343162356365326630336136623761326231386533656400000000000000000000000000000000000000000000",
        "nonce": "0x208",
        "chainId": "0x13882"
      },
      "additionalContracts": [],
      "isFixedGasLimit": false
    }
  ],
  "receipts": [
    {
      "status": "0x1",
      "cumulativeGasUsed": "0x5eb3",
      "logs": [
        {
          "address": "0x0000000000000000000000000000000000001010",
          "topics": [
            "0x4dfe1bbbcf077ddc3e01291eea2d5c70c2b422b415d95645b9adcfd678cb1d63",
            "0x0000000000000000000000000000000000000000000000000000000000001010",
            "0x000000000000000000000000e62ab4d111f968660c6b2188046f9b9ba53c4bae",
            "0x0000000000000000000000004ca9ff871c7aa1e7b64e1eae110835f68d6a0bd4"
          ],
          "data": "0x000000000000000000000000000000000000000000000000000303b5f717ed83000000000000000000000000000000000000000000000001cb2fbc5cd1aef579000000000000000000000000000000000000000000000039016d53b7cbc3021a000000000000000000000000000000000000000000000001cb2cb8a6da9707f60000000000000000000000000000000000000000000000390170576dc2daef9d",
          "blockHash": "0x3fbea9036f9c673aa6ba7d932b797384adf0ae12541f27f16588bec255ef9255",
          "blockNumber": "0xe90b09",
          "transactionHash": "0x1deaf90f6b84af898a3d26fa8e454fe4ea49ef1108b441e962f1072f72905670",
          "transactionIndex": "0x0",
          "logIndex": "0x0",
          "removed": false
        }
      ],
      "logsBloom": "0x20000000000000000004000000000000000000000000000000000000000000000000000000000000000000000000000020008000000000000000000000000000000000000000000000000000000000800000000000000000000100000000000000000000000000000000000000000000000000000000000080000000000000000000000000000000000000000000040000008000000000000000000000000000200000000000040000000000000000000000000000000000000000000000004000000000000000000001000000000000000000000000000000100000000000000000000000000000000000000000000000000000000000000000000000100000",
      "type": "0x2",
      "transactionHash": "0x1deaf90f6b84af898a3d26fa8e454fe4ea49ef1108b441e962f1072f72905670",
      "transactionIndex": "0x0",
      "blockHash": "0x3fbea9036f9c673aa6ba7d932b797384adf0ae12541f27f16588bec255ef9255",
      "blockNumber": "0xe90b09",
      "gasUsed": "0x5eb3",
      "effectiveGasPrice": "0x826299e00",
      "from": "0xe62ab4d111f968660c6b2188046f9b9ba53c4bae",
      "to": "0x7743150e59d6a27ec96ddda07b24131d0122b611",
      "contractAddress": null
    },
    {
      "status": "0x1",
      "cumulativeGasUsed": "0x1bf00",
      "logs": [
        {
          "address": "0x7743150e59d6a27ec96ddda07b24131d0122b611",
          "topics": [
            "0x1394cfab38f3fc78ed77ea6f9318782a446d96e7dc8e9a6b0149f6be25c08bcf",
            "0x0000000000000000000000006a4dbc971533ba36bdc23ad70f5a7a12e064f4ae"
          ],
          "data": "0x",
          "blockHash": "0xd31b029f868b9feb8a6ae8d704b8efc040f04dd9e13808c4fe9f4a2eb55640e8",
          "blockNumber": "0xe90b0d",
          "transactionHash": "0xaf99245c884a5c853d1d8a7c55be9d4f35ef91a21ed8b211be100ad8194da7a2",
          "transactionIndex": "0x0",
          "logIndex": "0x0",
          "removed": false
        },
        {
          "address": "0x0000000000000000000000000000000000001010",
          "topics": [
            "0x4dfe1bbbcf077ddc3e01291eea2d5c70c2b422b415d95645b9adcfd678cb1d63",
            "0x0000000000000000000000000000000000000000000000000000000000001010",
            "0x000000000000000000000000e62ab4d111f968660c6b2188046f9b9ba53c4bae",
            "0x0000000000000000000000004ca9ff871c7aa1e7b64e1eae110835f68d6a0bd4"
          ],
          "data": "0x000000000000000000000000000000000000000000000000000e3aa2aac7cf00000000000000000000000000000000000000000000000001cb2cb8a6da917b790000000000000000000000000000000000000000000000390179e95efa9a8a01000000000000000000000000000000000000000000000001cb1e7e042fc9ac7900000000000000000000000000000000000000000000003901882401a5625901",
          "blockHash": "0xd31b029f868b9feb8a6ae8d704b8efc040f04dd9e13808c4fe9f4a2eb55640e8",
          "blockNumber": "0xe90b0d",
          "transactionHash": "0xaf99245c884a5c853d1d8a7c55be9d4f35ef91a21ed8b211be100ad8194da7a2",
          "transactionIndex": "0x0",
          "logIndex": "0x1",
          "removed": false
        }
      ],
      "logsBloom": "0x20000000000000000004000000000000000200000000000000000000000000000000000000000000000000000000000020008000000000001100000000000000000000000000000000000000000000800000001000000000000100000000000000000000000000000000000000000000000000000000000080000000000000000000000100000000000000000000040000008000000000000000000000000000200000000000040000000000000000000000000100000000000000000000004000000000000000000001000000000000000000002000000000100000000000000000000000000000000000000000000000000000100008000000000000100000",
      "type": "0x2",
      "transactionHash": "0xaf99245c884a5c853d1d8a7c55be9d4f35ef91a21ed8b211be100ad8194da7a2",
      "transactionIndex": "0x0",
      "blockHash": "0xd31b029f868b9feb8a6ae8d704b8efc040f04dd9e13808c4fe9f4a2eb55640e8",
      "blockNumber": "0xe90b0d",
      "gasUsed": "0x1bf00",
      "effectiveGasPrice": "0x826299e00",
      "from": "0xe62ab4d111f968660c6b2188046f9b9ba53c4bae",
      "to": "0x7743150e59d6a27ec96ddda07b24131d0122b611",
      "contractAddress": null
    },
    {
      "status": "0x1",
      "cumulativeGasUsed": "0x1e4ff",
      "logs": [
        {
          "address": "0x0000000000000000000000000000000000001010",
          "topics": [
            "0x4dfe1bbbcf077ddc3e01291eea2d5c70c2b422b415d95645b9adcfd678cb1d63",
            "0x0000000000000000000000000000000000000000000000000000000000001010",
            "0x000000000000000000000000e62ab4d111f968660c6b2188046f9b9ba53c4bae",
            "0x0000000000000000000000006dc2dd54f24979ec26212794c71afefed722280c"
          ],
          "data": "0x0000000000000000000000000000000000000000000000000005fbcd84d9aa69000000000000000000000000000000000000000000000001cb1e7e042faf7b7900000000000000000000000000000000000000000000045bf5d844492f4418cc000000000000000000000000000000000000000000000001cb188236aad5d11000000000000000000000000000000000000000000000045bf5de4016b41dc335",
          "blockHash": "0xe9611f295894fa257514d121726bf7c9c5d4a67c5d6e70bc8e62eabcfdc8085e",
          "blockNumber": "0xe90b11",
          "transactionHash": "0x086ffdc8fb8d97e5b246134c78692f15277619ff335e7bf2de9fb8d461c59235",
          "transactionIndex": "0x2",
          "logIndex": "0x2",
          "removed": false
        }
      ],
      "logsBloom": "0x20000000000000000004000000000000000000000000000000000000000000000000000000000000000000000000000000008000000000000000000000000000000000000000000000000000000000800000000000000000000100080000000000000000000000000000000000000000000000000000000080000000000000020000000000000000000000000040040000000000000000000000000000000000200000000000000000000000000000000000000000000000000000000000004000000000000000000001000000000000000000000000000000100000000000000000000000000000000000000000000000000000000000000000000000100000",
      "type": "0x2",
      "transactionHash": "0x086ffdc8fb8d97e5b246134c78692f15277619ff335e7bf2de9fb8d461c59235",
      "transactionIndex": "0x2",
      "blockHash": "0xe9611f295894fa257514d121726bf7c9c5d4a67c5d6e70bc8e62eabcfdc8085e",
      "blockNumber": "0xe90b11",
      "gasUsed": "0xbbf9",
      "effectiveGasPrice": "0x826299e00",
      "from": "0xe62ab4d111f968660c6b2188046f9b9ba53c4bae",
      "to": "0x7743150e59d6a27ec96ddda07b24131d0122b611",
      "contractAddress": null
    },
    {
      "status": "0x1",
      "cumulativeGasUsed": "0xbc22",
      "logs": [
        {
          "address": "0x0000000000000000000000000000000000001010",
          "topics": [
            "0x4dfe1bbbcf077ddc3e01291eea2d5c70c2b422b415d95645b9adcfd678cb1d63",
            "0x0000000000000000000000000000000000000000000000000000000000001010",
            "0x000000000000000000000000e62ab4d111f968660c6b2188046f9b9ba53c4bae",
            "0x0000000000000000000000006dc2dd54f24979ec26212794c71afefed722280c"
          ],
          "data": "0x0000000000000000000000000000000000000000000000000005fd1ba183f602000000000000000000000000000000000000000000000001cb188236aacacd7900000000000000000000000000000000000000000000045bfb2edf318361fd23000000000000000000000000000000000000000000000001cb12851b0946d77700000000000000000000000000000000000000000000045bfb34dc4d24e5f325",
          "blockHash": "0xc2af1f4321d2ed3d4cad23256aae65d0aa1053d645de7e9ac6b28dce4a250c5a",
          "blockNumber": "0xe90b14",
          "transactionHash": "0x6e49f47c87cfc9a1fde100f076a80edf0434a4191b1f517b41890ab88df400c2",
          "transactionIndex": "0x0",
          "logIndex": "0x0",
          "removed": false
        }
      ],
      "logsBloom": "0x20000000000000000004000000000000000000000000000000000000000000000000000000000000000000000000000000008000000000000000000000000000000000000000000000000000000000800000000000000000000100080000000000000000000000000000000000000000000000000000000080000000000000020000000000000000000000000040040000000000000000000000000000000000200000000000000000000000000000000000000000000000000000000000004000000000000000000001000000000000000000000000000000100000000000000000000000000000000000000000000000000000000000000000000000100000",
      "type": "0x2",
      "transactionHash": "0x6e49f47c87cfc9a1fde100f076a80edf0434a4191b1f517b41890ab88df400c2",
      "transactionIndex": "0x0",
      "blockHash": "0xc2af1f4321d2ed3d4cad23256aae65d0aa1053d645de7e9ac6b28dce4a250c5a",
      "blockNumber": "0xe90b14",
      "gasUsed": "0xbc22",
      "effectiveGasPrice": "0x826299e00",
      "from": "0xe62ab4d111f968660c6b2188046f9b9ba53c4bae",
      "to": "0x7743150e59d6a27ec96ddda07b24131d0122b611",
      "contractAddress": null
    },
    {
      "status": "0x1",
      "cumulativeGasUsed": "0xbc39",
      "logs": [
        {
          "address": "0x0000000000000000000000000000000000001010",
          "topics": [
            "0x4dfe1bbbcf077ddc3e01291eea2d5c70c2b422b415d95645b9adcfd678cb1d63",
            "0x0000000000000000000000000000000000000000000000000000000000001010",
            "0x000000000000000000000000e62ab4d111f968660c6b2188046f9b9ba53c4bae",
            "0x0000000000000000000000006dc2dd54f24979ec26212794c71afefed722280c"
          ],
          "data": "0x0000000000000000000000000000000000000000000000000005fdd70f4126a9000000000000000000000000000000000000000000000001cb12851b093bd17900000000000000000000000000000000000000000000045bfd7b9707042a42b3000000000000000000000000000000000000000000000001cb0c8743f9faaad000000000000000000000000000000000000000000000045bfd8194de136b695c",
          "blockHash": "0xb7223f01595b65089ed3b71ca81ce302dce853c1fe1fe27e77e47c5f840654ab",
          "blockNumber": "0xe90b17",
          "transactionHash": "0x42747f4e001955e62ac684d9a28954ca0217edd73692d28db3d4961ef8895aee",
          "transactionIndex": "0x0",
          "logIndex": "0x0",
          "removed": false
        }
      ],
      "logsBloom": "0x20000000000000000004000000000000000000000000000000000000000000000000000000000000000000000000000000008000000000000000000000000000000000000000000000000000000000800000000000000000000100080000000000000000000000000000000000000000000000000000000080000000000000020000000000000000000000000040040000000000000000000000000000000000200000000000000000000000000000000000000000000000000000000000004000000000000000000001000000000000000000000000000000100000000000000000000000000000000000000000000000000000000000000000000000100000",
      "type": "0x2",
      "transactionHash": "0x42747f4e001955e62ac684d9a28954ca0217edd73692d28db3d4961ef8895aee",
      "transactionIndex": "0x0",
      "blockHash": "0xb7223f01595b65089ed3b71ca81ce302dce853c1fe1fe27e77e47c5f840654ab",
      "blockNumber": "0xe90b17",
      "gasUsed": "0xbc39",
      "effectiveGasPrice": "0x826299e00",
      "from": "0xe62ab4d111f968660c6b2188046f9b9ba53c4bae",
      "to": "0x7743150e59d6a27ec96ddda07b24131d0122b611",
      "contractAddress": null
    },
    {
      "status": "0x1",
      "cumulativeGasUsed": "0x146c5",
      "logs": [
        {
          "address": "0x0000000000000000000000000000000000001010",
          "topics": [
            "0x4dfe1bbbcf077ddc3e01291eea2d5c70c2b422b415d95645b9adcfd678cb1d63",
            "0x0000000000000000000000000000000000000000000000000000000000001010",
            "0x000000000000000000000000e62ab4d111f968660c6b2188046f9b9ba53c4bae",
            "0x0000000000000000000000006dc2dd54f24979ec26212794c71afefed722280c"
          ],
          "data": "0x0000000000000000000000000000000000000000000000000005fe927cfe5750000000000000000000000000000000000000000000000001cb0c8743f9efa37900000000000000000000000000000000000000000000045bff0a66cc102a3869000000000000000000000000000000000000000000000001cb0688b17cf14c2900000000000000000000000000000000000000000000045bff10655e8d288fb9",
          "blockHash": "0xb620d0363a0f07361be230e2e661617a39d7eb13abb0382b82e12c8dc63b2fae",
          "blockNumber": "0xe90b1a",
          "transactionHash": "0x8833e90b7d3dfed5773b2ce7573a3f08c24989ed70667a2d9e274c3ea4b9332c",
          "transactionIndex": "0x1",
          "logIndex": "0x2",
          "removed": false
        }
      ],
      "logsBloom": "0x20000000000000000004000000000000000000000000000000000000000000000000000000000000000000000000000000008000000000000000000000000000000000000000000000000000000000800000000000000000000100080000000000000000000000000000000000000000000000000000000080000000000000020000000000000000000000000040040000000000000000000000000000000000200000000000000000000000000000000000000000000000000000000000004000000000000000000001000000000000000000000000000000100000000000000000000000000000000000000000000000000000000000000000000000100000",
      "type": "0x2",
      "transactionHash": "0x8833e90b7d3dfed5773b2ce7573a3f08c24989ed70667a2d9e274c3ea4b9332c",
      "transactionIndex": "0x1",
      "blockHash": "0xb620d0363a0f07361be230e2e661617a39d7eb13abb0382b82e12c8dc63b2fae",
      "blockNumber": "0xe90b1a",
      "gasUsed": "0xbc50",
      "effectiveGasPrice": "0x826299e00",
      "from": "0xe62ab4d111f968660c6b2188046f9b9ba53c4bae",
      "to": "0x7743150e59d6a27ec96ddda07b24131d0122b611",
      "contractAddress": null
    },
    {
      "status": "0x1",
      "cumulativeGasUsed": "0xbc67",
      "logs": [
        {
          "address": "0x0000000000000000000000000000000000001010",
          "topics": [
            "0x4dfe1bbbcf077ddc3e01291eea2d5c70c2b422b415d95645b9adcfd678cb1d63",
            "0x0000000000000000000000000000000000000000000000000000000000001010",
            "0x000000000000000000000000e62ab4d111f968660c6b2188046f9b9ba53c4bae",
            "0x0000000000000000000000006dc2dd54f24979ec26212794c71afefed722280c"
          ],
          "data": "0x0000000000000000000000000000000000000000000000000005ff4deabb87f7000000000000000000000000000000000000000000000001cb0688b17ce6437900000000000000000000000000000000000000000000045c0200a5aecd1c6cb6000000000000000000000000000000000000000000000001cb008963922abb8200000000000000000000000000000000000000000000045c0206a4fcb7d7f4ad",
          "blockHash": "0xe6b23b62c0935cf2c84626f3abd97bdf6e89a4c2df8c6aa8fe39e2c609ed6af1",
          "blockNumber": "0xe90b1e",
          "transactionHash": "0xbccea42262f25fc391d2e7364400e8668eb79fdc12c8546e210bc91daa4b8fe8",
          "transactionIndex": "0x0",
          "logIndex": "0x0",
          "removed": false
        }
      ],
      "logsBloom": "0x20000000000000000004000000000000000000000000000000000000000000000000000000000000000000000000000000008000000000000000000000000000000000000000000000000000000000800000000000000000000100080000000000000000000000000000000000000000000000000000000080000000000000020000000000000000000000000040040000000000000000000000000000000000200000000000000000000000000000000000000000000000000000000000004000000000000000000001000000000000000000000000000000100000000000000000000000000000000000000000000000000000000000000000000000100000",
      "type": "0x2",
      "transactionHash": "0xbccea42262f25fc391d2e7364400e8668eb79fdc12c8546e210bc91daa4b8fe8",
      "transactionIndex": "0x0",
      "blockHash": "0xe6b23b62c0935cf2c84626f3abd97bdf6e89a4c2df8c6aa8fe39e2c609ed6af1",
      "blockNumber": "0xe90b1e",
      "gasUsed": "0xbc67",
      "effectiveGasPrice": "0x826299e00",
      "from": "0xe62ab4d111f968660c6b2188046f9b9ba53c4bae",
      "to": "0x7743150e59d6a27ec96ddda07b24131d0122b611",
      "contractAddress": null
    },
    {
      "status": "0x1",
      "cumulativeGasUsed": "0xbc7e",
      "logs": [
        {
          "address": "0x0000000000000000000000000000000000001010",
          "topics": [
            "0x4dfe1bbbcf077ddc3e01291eea2d5c70c2b422b415d95645b9adcfd678cb1d63",
            "0x0000000000000000000000000000000000000000000000000000000000001010",
            "0x000000000000000000000000e62ab4d111f968660c6b2188046f9b9ba53c4bae",
            "0x0000000000000000000000006dc2dd54f24979ec26212794c71afefed722280c"
          ],
          "data": "0x000000000000000000000000000000000000000000000000000600095878b89e000000000000000000000000000000000000000000000001cb008963921fb17900000000000000000000000000000000000000000000045c049a2a99edc68c1a000000000000000000000000000000000000000000000001cafa895a39a6f8db00000000000000000000000000000000000000000000045c04a02aa3463f44b8",
          "blockHash": "0xd2593aeacec86da02ba05d1bb54b66292f34b58ae0ca035e43a3d6b27165411c",
          "blockNumber": "0xe90b21",
          "transactionHash": "0x9b5bb52c6c91f8efd3c82316657f5a1856f7f7f6c501fb58ba2457d76bf3ba29",
          "transactionIndex": "0x0",
          "logIndex": "0x0",
          "removed": false
        }
      ],
      "logsBloom": "0x20000000000000000004000000000000000000000000000000000000000000000000000000000000000000000000000000008000000000000000000000000000000000000000000000000000000000800000000000000000000100080000000000000000000000000000000000000000000000000000000080000000000000020000000000000000000000000040040000000000000000000000000000000000200000000000000000000000000000000000000000000000000000000000004000000000000000000001000000000000000000000000000000100000000000000000000000000000000000000000000000000000000000000000000000100000",
      "type": "0x2",
      "transactionHash": "0x9b5bb52c6c91f8efd3c82316657f5a1856f7f7f6c501fb58ba2457d76bf3ba29",
      "transactionIndex": "0x0",
      "blockHash": "0xd2593aeacec86da02ba05d1bb54b66292f34b58ae0ca035e43a3d6b27165411c",
      "blockNumber": "0xe90b21",
      "gasUsed": "0xbc7e",
      "effectiveGasPrice": "0x826299e00",
      "from": "0xe62ab4d111f968660c6b2188046f9b9ba53c4bae",
      "to": "0x7743150e59d6a27ec96ddda07b24131d0122b611",
      "contractAddress": null
    },
    {
      "status": "0x1",
      "cumulativeGasUsed": "0xbc95",
      "logs": [
        {
          "address": "0x0000000000000000000000000000000000001010",
          "topics": [
            "0x4dfe1bbbcf077ddc3e01291eea2d5c70c2b422b415d95645b9adcfd678cb1d63",
            "0x0000000000000000000000000000000000000000000000000000000000001010",
            "0x000000000000000000000000e62ab4d111f968660c6b2188046f9b9ba53c4bae",
            "0x0000000000000000000000006dc2dd54f24979ec26212794c71afefed722280c"
          ],
          "data": "0x000000000000000000000000000000000000000000000000000600c4c635e945000000000000000000000000000000000000000000000001cafa895a399bed7900000000000000000000000000000000000000000000045c0ab9a284b757ae24000000000000000000000000000000000000000000000001caf488957366043400000000000000000000000000000000000000000000045c0abfa3497d8d9769",
          "blockHash": "0x4f6b56424aff0a1ef0f9fb07e78945f317b1cc15186683b037eed03d50058522",
          "blockNumber": "0xe90b24",
          "transactionHash": "0x35d71938e7e4d9116cdeb3dea5104b3b9b4a10414f3ec1bcb8fb1052a7ef07c6",
          "transactionIndex": "0x0",
          "logIndex": "0x0",
          "removed": false
        }
      ],
      "logsBloom": "0x20000000000000000004000000000000000000000000000000000000000000000000000000000000000000000000000000008000000000000000000000000000000000000000000000000000000000800000000000000000000100080000000000000000000000000000000000000000000000000000000080000000000000020000000000000000000000000040040000000000000000000000000000000000200000000000000000000000000000000000000000000000000000000000004000000000000000000001000000000000000000000000000000100000000000000000000000000000000000000000000000000000000000000000000000100000",
      "type": "0x2",
      "transactionHash": "0x35d71938e7e4d9116cdeb3dea5104b3b9b4a10414f3ec1bcb8fb1052a7ef07c6",
      "transactionIndex": "0x0",
      "blockHash": "0x4f6b56424aff0a1ef0f9fb07e78945f317b1cc15186683b037eed03d50058522",
      "blockNumber": "0xe90b24",
      "gasUsed": "0xbc95",
      "effectiveGasPrice": "0x826299e00",
      "from": "0xe62ab4d111f968660c6b2188046f9b9ba53c4bae",
      "to": "0x7743150e59d6a27ec96ddda07b24131d0122b611",
      "contractAddress": null
    },
    {
      "status": "0x1",
      "cumulativeGasUsed": "0xbcac",
      "logs": [
        {
          "address": "0x0000000000000000000000000000000000001010",
          "topics": [
            "0x4dfe1bbbcf077ddc3e01291eea2d5c70c2b422b415d95645b9adcfd678cb1d63",
            "0x0000000000000000000000000000000000000000000000000000000000001010",
            "0x000000000000000000000000e62ab4d111f968660c6b2188046f9b9ba53c4bae",
            "0x0000000000000000000000006dc2dd54f24979ec26212794c71afefed722280c"
          ],
          "data": "0x0000000000000000000000000000000000000000000000000006018033f319ec000000000000000000000000000000000000000000000001caf48895735af77900000000000000000000000000000000000000000000045c0ad3a2525517723e000000000000000000000000000000000000000000000001caee87153f67dd8d00000000000000000000000000000000000000000000045c0ad9a3d2890a8c2a",
          "blockHash": "0xdc22ae18e29d38b15b4860ecb1ddc5474cbf6d35efd2ed3e55702f81044f069c",
          "blockNumber": "0xe90b26",
          "transactionHash": "0x68741c2739ad9e5ffeee35cff9b0b60f5788f26013ebccc2c8658c45b962d236",
          "transactionIndex": "0x0",
          "logIndex": "0x0",
          "removed": false
        }
      ],
      "logsBloom": "0x20000000000000000004000000000000000000000000000000000000000000000000000000000000000000000000000000008000000000000000000000000000000000000000000000000000000000800000000000000000000100080000000000000000000000000000000000000000000000000000000080000000000000020000000000000000000000000040040000000000000000000000000000000000200000000000000000000000000000000000000000000000000000000000004000000000000000000001000000000000000000000000000000100000000000000000000000000000000000000000000000000000000000000000000000100000",
      "type": "0x2",
      "transactionHash": "0x68741c2739ad9e5ffeee35cff9b0b60f5788f26013ebccc2c8658c45b962d236",
      "transactionIndex": "0x0",
      "blockHash": "0xdc22ae18e29d38b15b4860ecb1ddc5474cbf6d35efd2ed3e55702f81044f069c",
      "blockNumber": "0xe90b26",
      "gasUsed": "0xbcac",
      "effectiveGasPrice": "0x826299e00",
      "from": "0xe62ab4d111f968660c6b2188046f9b9ba53c4bae",
      "to": "0x7743150e59d6a27ec96ddda07b24131d0122b611",
      "contractAddress": null
    },
    {
      "status": "0x1",
      "cumulativeGasUsed": "0xbcc3",
      "logs": [
        {
          "address": "0x0000000000000000000000000000000000001010",
          "topics": [
            "0x4dfe1bbbcf077ddc3e01291eea2d5c70c2b422b415d95645b9adcfd678cb1d63",
            "0x0000000000000000000000000000000000000000000000000000000000001010",
            "0x000000000000000000000000e62ab4d111f968660c6b2188046f9b9ba53c4bae",
            "0x0000000000000000000000006dc2dd54f24979ec26212794c71afefed722280c"
          ],
          "data": "0x0000000000000000000000000000000000000000000000000006023ba1b04a93000000000000000000000000000000000000000000000001caee87153f5ccf7900000000000000000000000000000000000000000000045c0ae04deb05316157000000000000000000000000000000000000000000000001cae884d99dac84e600000000000000000000000000000000000000000000045c0ae65026a6e1abea",
          "blockHash": "0xa01d5e30247585cf1864aba524202fc2fa8ef2485520d06bc54e45747b47542d",
          "blockNumber": "0xe90b28",
          "transactionHash": "0xb70c9ee34bbbe130f418f64ffceb24ab3a1babe7480405f55e2f2883d1fc07db",
          "transactionIndex": "0x0",
          "logIndex": "0x0",
          "removed": false
        }
      ],
      "logsBloom": "0x20000000000000000004000000000000000000000000000000000000000000000000000000000000000000000000000000008000000000000000000000000000000000000000000000000000000000800000000000000000000100080000000000000000000000000000000000000000000000000000000080000000000000020000000000000000000000000040040000000000000000000000000000000000200000000000000000000000000000000000000000000000000000000000004000000000000000000001000000000000000000000000000000100000000000000000000000000000000000000000000000000000000000000000000000100000",
      "type": "0x2",
      "transactionHash": "0xb70c9ee34bbbe130f418f64ffceb24ab3a1babe7480405f55e2f2883d1fc07db",
      "transactionIndex": "0x0",
      "blockHash": "0xa01d5e30247585cf1864aba524202fc2fa8ef2485520d06bc54e45747b47542d",
      "blockNumber": "0xe90b28",
      "gasUsed": "0xbcc3",
      "effectiveGasPrice": "0x826299e00",
      "from": "0xe62ab4d111f968660c6b2188046f9b9ba53c4bae",
      "to": "0x7743150e59d6a27ec96ddda07b24131d0122b611",
      "contractAddress": null
    },
    {
      "status": "0x1",
      "cumulativeGasUsed": "0x7c9b3",
      "logs": [
        {
          "address": "0x0000000000000000000000000000000000001010",
          "topics": [
            "0x4dfe1bbbcf077ddc3e01291eea2d5c70c2b422b415d95645b9adcfd678cb1d63",
            "0x0000000000000000000000000000000000000000000000000000000000001010",
            "0x000000000000000000000000e62ab4d111f968660c6b2188046f9b9ba53c4bae",
            "0x0000000000000000000000006dc2dd54f24979ec26212794c71afefed722280c"
          ],
          "data": "0x000000000000000000000000000000000000000000000000000602f70f6d7b3a000000000000000000000000000000000000000000000001cae884d99da1757900000000000000000000000000000000000000000000045c0b6d12657b1b0de8000000000000000000000000000000000000000000000001cae281e28e33fa3f00000000000000000000000000000000000000000000045c0b73155c8a888922",
          "blockHash": "0xcf15a66db163241d87b1e4c32a71b4b0b944ad73f6fb00dec1ea24f1768bd265",
          "blockNumber": "0xe90b2a",
          "transactionHash": "0xf419f911bd274a38459030142c2179f5f680f73113bd1d6cd87da0793cfcfd70",
          "transactionIndex": "0x1",
          "logIndex": "0x1",
          "removed": false
        }
      ],
      "logsBloom": "0x20000000000000000004000000000000000000000000000000000000000000000000000000000000000000000000000000008000000000000000000000000000000000000000000000000000000000800000000000000000000100080000000000000000000000000000000000000000000000000000000080000000000000020000000000000000000000000040040000000000000000000000000000000000200000000000000000000000000000000000000000000000000000000000004000000000000000000001000000000000000000000000000000100000000000000000000000000000000000000000000000000000000000000000000000100000",
      "type": "0x2",
      "transactionHash": "0xf419f911bd274a38459030142c2179f5f680f73113bd1d6cd87da0793cfcfd70",
      "transactionIndex": "0x1",
      "blockHash": "0xcf15a66db163241d87b1e4c32a71b4b0b944ad73f6fb00dec1ea24f1768bd265",
      "blockNumber": "0xe90b2a",
      "gasUsed": "0xbcda",
      "effectiveGasPrice": "0x826299e00",
      "from": "0xe62ab4d111f968660c6b2188046f9b9ba53c4bae",
      "to": "0x7743150e59d6a27ec96ddda07b24131d0122b611",
      "contractAddress": null
    },
    {
      "status": "0x1",
      "cumulativeGasUsed": "0x37e90",
      "logs": [
        {
          "address": "0x0000000000000000000000000000000000001010",
          "topics": [
            "0x4dfe1bbbcf077ddc3e01291eea2d5c70c2b422b415d95645b9adcfd678cb1d63",
            "0x0000000000000000000000000000000000000000000000000000000000001010",
            "0x000000000000000000000000e62ab4d111f968660c6b2188046f9b9ba53c4bae",
            "0x0000000000000000000000006dc2dd54f24979ec26212794c71afefed722280c"
          ],
          "data": "0x000000000000000000000000000000000000000000000000000603b27d2aabe1000000000000000000000000000000000000000000000001cae281e28e28e97900000000000000000000000000000000000000000000045c0d837b946e246106000000000000000000000000000000000000000000000001cadc7e3010fe3d9800000000000000000000000000000000000000000000045c0d897f46eb4f0ce7",
          "blockHash": "0x1da050c36bc0aeebb70155fc4738cfd0289ddd34e7bd52a54257579b346f894e",
          "blockNumber": "0xe90b2d",
          "transactionHash": "0xec7da46627a043132d9a0cc7858495a91272cae58c061849c214ad43843a05d0",
          "transactionIndex": "0x1",
          "logIndex": "0x3",
          "removed": false
        }
      ],
      "logsBloom": "0x20000000000000000004000000000000000000000000000000000000000000000000000000000000000000000000000000008000000000000000000000000000000000000000000000000000000000800000000000000000000100080000000000000000000000000000000000000000000000000000000080000000000000020000000000000000000000000040040000000000000000000000000000000000200000000000000000000000000000000000000000000000000000000000004000000000000000000001000000000000000000000000000000100000000000000000000000000000000000000000000000000000000000000000000000100000",
      "type": "0x2",
      "transactionHash": "0xec7da46627a043132d9a0cc7858495a91272cae58c061849c214ad43843a05d0",
      "transactionIndex": "0x1",
      "blockHash": "0x1da050c36bc0aeebb70155fc4738cfd0289ddd34e7bd52a54257579b346f894e",
      "blockNumber": "0xe90b2d",
      "gasUsed": "0xbcf1",
      "effectiveGasPrice": "0x826299e00",
      "from": "0xe62ab4d111f968660c6b2188046f9b9ba53c4bae",
      "to": "0x7743150e59d6a27ec96ddda07b24131d0122b611",
      "contractAddress": null
    },
    {
      "status": "0x1",
      "cumulativeGasUsed": "0xbd08",
      "logs": [
        {
          "address": "0x0000000000000000000000000000000000001010",
          "topics": [
            "0x4dfe1bbbcf077ddc3e01291eea2d5c70c2b422b415d95645b9adcfd678cb1d63",
            "0x0000000000000000000000000000000000000000000000000000000000001010",
            "0x000000000000000000000000e62ab4d111f968660c6b2188046f9b9ba53c4bae",
            "0x0000000000000000000000006dc2dd54f24979ec26212794c71afefed722280c"
          ],
          "data": "0x0000000000000000000000000000000000000000000000000006046deae7dc88000000000000000000000000000000000000000000000001cadc7e3010f32b7900000000000000000000000000000000000000000000045c0e74d055d202e6b8000000000000000000000000000000000000000000000001cad679c2260b4ef100000000000000000000000000000000000000000000045c0e7ad4c3bceac340",
          "blockHash": "0xd7ced876b8772ca5dd31d1d615909c30a56c7696e2b3a89fde0f57219c5d4319",
          "blockNumber": "0xe90b2f",
          "transactionHash": "0xf087e9709e1ab8de1a74f3c2ebfb6f95116a72f5a8d0e5e907c41c56b6fbd1c5",
          "transactionIndex": "0x0",
          "logIndex": "0x0",
          "removed": false
        }
      ],
      "logsBloom": "0x20000000000000000004000000000000000000000000000000000000000000000000000000000000000000000000000000008000000000000000000000000000000000000000000000000000000000800000000000000000000100080000000000000000000000000000000000000000000000000000000080000000000000020000000000000000000000000040040000000000000000000000000000000000200000000000000000000000000000000000000000000000000000000000004000000000000000000001000000000000000000000000000000100000000000000000000000000000000000000000000000000000000000000000000000100000",
      "type": "0x2",
      "transactionHash": "0xf087e9709e1ab8de1a74f3c2ebfb6f95116a72f5a8d0e5e907c41c56b6fbd1c5",
      "transactionIndex": "0x0",
      "blockHash": "0xd7ced876b8772ca5dd31d1d615909c30a56c7696e2b3a89fde0f57219c5d4319",
      "blockNumber": "0xe90b2f",
      "gasUsed": "0xbd08",
      "effectiveGasPrice": "0x826299e00",
      "from": "0xe62ab4d111f968660c6b2188046f9b9ba53c4bae",
      "to": "0x7743150e59d6a27ec96ddda07b24131d0122b611",
      "contractAddress": null
    },
    {
      "status": "0x1",
      "cumulativeGasUsed": "0x2a0f3",
      "logs": [
        {
          "address": "0x0000000000000000000000000000000000001010",
          "topics": [
            "0x4dfe1bbbcf077ddc3e01291eea2d5c70c2b422b415d95645b9adcfd678cb1d63",
            "0x0000000000000000000000000000000000000000000000000000000000001010",
            "0x000000000000000000000000e62ab4d111f968660c6b2188046f9b9ba53c4bae",
            "0x0000000000000000000000004ad84f7014b7b44f723f284a85b1662337971439"
          ],
          "data": "0x0000000000000000000000000000000000000000000000000006052958a50d2f000000000000000000000000000000000000000000000001cad679c226003b7900000000000000000000000000000000000000000000046d58b00dc8cf698507000000000000000000000000000000000000000000000001cad07498cd5b2e4a00000000000000000000000000000000000000000000046d58b612f2280e9236",
          "blockHash": "0xcc1eba4168adddd51b90ec66c9be9eefbdee1b5b610e994fc84bcee8fc0524bd",
          "blockNumber": "0xe90b31",
          "transactionHash": "0xa7020c1a651edcbc471460cfb02981bd0c3ebcc8d5a7635139414f3e85958d00",
          "transactionIndex": "0x1",
          "logIndex": "0x4",
          "removed": false
        }
      ],
      "logsBloom": "0x20000000000000000004000000000000000000000000000000000000000000000000000000000000000000000000000000008000000000000000000000400000000000000000000000000000000000800000000000000000000100001000000000000000000000000000000000000000000000000000000080000000000000000000000000000000000000000000040000000000000000000000000000000000200000000000000000000000000000000000000000000000000000000000004000000000000000000001000000000000000000000000000000100000000000000000000000000000000000000000008000000000000000000000000000100000",
      "type": "0x2",
      "transactionHash": "0xa7020c1a651edcbc471460cfb02981bd0c3ebcc8d5a7635139414f3e85958d00",
      "transactionIndex": "0x1",
      "blockHash": "0xcc1eba4168adddd51b90ec66c9be9eefbdee1b5b610e994fc84bcee8fc0524bd",
      "blockNumber": "0xe90b31",
      "gasUsed": "0xbd1f",
      "effectiveGasPrice": "0x826299e00",
      "from": "0xe62ab4d111f968660c6b2188046f9b9ba53c4bae",
      "to": "0x7743150e59d6a27ec96ddda07b24131d0122b611",
      "contractAddress": null
    },
    {
      "status": "0x1",
      "cumulativeGasUsed": "0xbd36",
      "logs": [
        {
          "address": "0x0000000000000000000000000000000000001010",
          "topics": [
            "0x4dfe1bbbcf077ddc3e01291eea2d5c70c2b422b415d95645b9adcfd678cb1d63",
            "0x0000000000000000000000000000000000000000000000000000000000001010",
            "0x000000000000000000000000e62ab4d111f968660c6b2188046f9b9ba53c4bae",
            "0x0000000000000000000000004ad84f7014b7b44f723f284a85b1662337971439"
          ],
          "data": "0x000000000000000000000000000000000000000000000000000605e4c6623dd6000000000000000000000000000000000000000000000001cad07498cd50197900000000000000000000000000000000000000000000046d58f6852e07c692e1000000000000000000000000000000000000000000000001caca6eb406eddba300000000000000000000000000000000000000000000046d58fc8b12ce28d0b7",
          "blockHash": "0x90906f18c851cc5ab557d23c6cc227e4be2a2dc9b11eb47c607e1e403238f32f",
          "blockNumber": "0xe90b34",
          "transactionHash": "0x3cef60859cec3ae313c9bf6e83e60adc6a3e82bbadc7e6dd2f8e0632f8a23037",
          "transactionIndex": "0x0",
          "logIndex": "0x0",
          "removed": false
        }
      ],
      "logsBloom": "0x20000000000000000004000000000000000000000000000000000000000000000000000000000000000000000000000000008000000000000000000000400000000000000000000000000000000000800000000000000000000100001000000000000000000000000000000000000000000000000000000080000000000000000000000000000000000000000000040000000000000000000000000000000000200000000000000000000000000000000000000000000000000000000000004000000000000000000001000000000000000000000000000000100000000000000000000000000000000000000000008000000000000000000000000000100000",
      "type": "0x2",
      "transactionHash": "0x3cef60859cec3ae313c9bf6e83e60adc6a3e82bbadc7e6dd2f8e0632f8a23037",
      "transactionIndex": "0x0",
      "blockHash": "0x90906f18c851cc5ab557d23c6cc227e4be2a2dc9b11eb47c607e1e403238f32f",
      "blockNumber": "0xe90b34",
      "gasUsed": "0xbd36",
      "effectiveGasPrice": "0x826299e00",
      "from": "0xe62ab4d111f968660c6b2188046f9b9ba53c4bae",
      "to": "0x7743150e59d6a27ec96ddda07b24131d0122b611",
      "contractAddress": null
    },
    {
      "status": "0x1",
      "cumulativeGasUsed": "0xbd4d",
      "logs": [
        {
          "address": "0x0000000000000000000000000000000000001010",
          "topics": [
            "0x4dfe1bbbcf077ddc3e01291eea2d5c70c2b422b415d95645b9adcfd678cb1d63",
            "0x0000000000000000000000000000000000000000000000000000000000001010",
            "0x000000000000000000000000e62ab4d111f968660c6b2188046f9b9ba53c4bae",
            "0x0000000000000000000000004ad84f7014b7b44f723f284a85b1662337971439"
          ],
          "data": "0x000000000000000000000000000000000000000000000000000606a0341f6e7d000000000000000000000000000000000000000000000001caca6eb406e2c57900000000000000000000000000000000000000000000046d58fc8b12ce28d0b7000000000000000000000000000000000000000000000001cac46813d2c356fc00000000000000000000000000000000000000000000046d590291b302483f34",
          "blockHash": "0xd0b14e936c79cfa0f27422588ba4978a6ff2f9a0b2b8bf555b568f7b8a92251e",
          "blockNumber": "0xe90b37",
          "transactionHash": "0x126b8cae37d7d4f03859edc26742bcdc2b3b1bbc68733479defbd441948c8fda",
          "transactionIndex": "0x0",
          "logIndex": "0x0",
          "removed": false
        }
      ],
      "logsBloom": "0x20000000000000000004000000000000000000000000000000000000000000000000000000000000000000000000000000008000000000000000000000400000000000000000000000000000000000800000000000000000000100001000000000000000000000000000000000000000000000000000000080000000000000000000000000000000000000000000040000000000000000000000000000000000200000000000000000000000000000000000000000000000000000000000004000000000000000000001000000000000000000000000000000100000000000000000000000000000000000000000008000000000000000000000000000100000",
      "type": "0x2",
      "transactionHash": "0x126b8cae37d7d4f03859edc26742bcdc2b3b1bbc68733479defbd441948c8fda",
      "transactionIndex": "0x0",
      "blockHash": "0xd0b14e936c79cfa0f27422588ba4978a6ff2f9a0b2b8bf555b568f7b8a92251e",
      "blockNumber": "0xe90b37",
      "gasUsed": "0xbd4d",
      "effectiveGasPrice": "0x826299e00",
      "from": "0xe62ab4d111f968660c6b2188046f9b9ba53c4bae",
      "to": "0x7743150e59d6a27ec96ddda07b24131d0122b611",
      "contractAddress": null
    },
    {
      "status": "0x1",
      "cumulativeGasUsed": "0xbd64",
      "logs": [
        {
          "address": "0x0000000000000000000000000000000000001010",
          "topics": [
            "0x4dfe1bbbcf077ddc3e01291eea2d5c70c2b422b415d95645b9adcfd678cb1d63",
            "0x0000000000000000000000000000000000000000000000000000000000001010",
            "0x000000000000000000000000e62ab4d111f968660c6b2188046f9b9ba53c4bae",
            "0x0000000000000000000000004ad84f7014b7b44f723f284a85b1662337971439"
          ],
          "data": "0x0000000000000000000000000000000000000000000000000006075ba1dc9f24000000000000000000000000000000000000000000000001cac46813d2b83f7900000000000000000000000000000000000000000000046d5987cbb8b0fb552e000000000000000000000000000000000000000000000001cabe60b830dba05500000000000000000000000000000000000000000000046d598dd31452d7f452",
          "blockHash": "0x176d5d04b5dfebc390daa9a332abdf4d77698ff2841d1aeb6a646157791a230b",
          "blockNumber": "0xe90b3b",
          "transactionHash": "0x8e45f1e6a0903e15def4f20ca0b55529aef2a3d4e6c420c536d1eeac0e67147b",
          "transactionIndex": "0x0",
          "logIndex": "0x0",
          "removed": false
        }
      ],
      "logsBloom": "0x20000000000000000004000000000000000000000000000000000000000000000000000000000000000000000000000000008000000000000000000000400000000000000000000000000000000000800000000000000000000100001000000000000000000000000000000000000000000000000000000080000000000000000000000000000000000000000000040000000000000000000000000000000000200000000000000000000000000000000000000000000000000000000000004000000000000000000001000000000000000000000000000000100000000000000000000000000000000000000000008000000000000000000000000000100000",
      "type": "0x2",
      "transactionHash": "0x8e45f1e6a0903e15def4f20ca0b55529aef2a3d4e6c420c536d1eeac0e67147b",
      "transactionIndex": "0x0",
      "blockHash": "0x176d5d04b5dfebc390daa9a332abdf4d77698ff2841d1aeb6a646157791a230b",
      "blockNumber": "0xe90b3b",
      "gasUsed": "0xbd64",
      "effectiveGasPrice": "0x826299e00",
      "from": "0xe62ab4d111f968660c6b2188046f9b9ba53c4bae",
      "to": "0x7743150e59d6a27ec96ddda07b24131d0122b611",
      "contractAddress": null
    },
    {
      "status": "0x1",
      "cumulativeGasUsed": "0xbd7b",
      "logs": [
        {
          "address": "0x0000000000000000000000000000000000001010",
          "topics": [
            "0x4dfe1bbbcf077ddc3e01291eea2d5c70c2b422b415d95645b9adcfd678cb1d63",
            "0x0000000000000000000000000000000000000000000000000000000000001010",
            "0x000000000000000000000000e62ab4d111f968660c6b2188046f9b9ba53c4bae",
            "0x0000000000000000000000004ad84f7014b7b44f723f284a85b1662337971439"
          ],
          "data": "0x000000000000000000000000000000000000000000000000000608170f99cfcb000000000000000000000000000000000000000000000001cabe60b830d0877900000000000000000000000000000000000000000000046d5a283c5e3e7062f8000000000000000000000000000000000000000000000001cab858a12136b7ae00000000000000000000000000000000000000000000046d5a2e44754e0a32c3",
          "blockHash": "0x248ca13689cfd8bae5d030a6f27633c5ca7834d93c86be1f90f739384464fa0e",
          "blockNumber": "0xe90b3f",
          "transactionHash": "0x45bb84163293e6fe155014cc83d6d8c9d9fd3d686c35728b9f53d4fb283612b2",
          "transactionIndex": "0x0",
          "logIndex": "0x0",
          "removed": false
        }
      ],
      "logsBloom": "0x20000000000000000004000000000000000000000000000000000000000000000000000000000000000000000000000000008000000000000000000000400000000000000000000000000000000000800000000000000000000100001000000000000000000000000000000000000000000000000000000080000000000000000000000000000000000000000000040000000000000000000000000000000000200000000000000000000000000000000000000000000000000000000000004000000000000000000001000000000000000000000000000000100000000000000000000000000000000000000000008000000000000000000000000000100000",
      "type": "0x2",
      "transactionHash": "0x45bb84163293e6fe155014cc83d6d8c9d9fd3d686c35728b9f53d4fb283612b2",
      "transactionIndex": "0x0",
      "blockHash": "0x248ca13689cfd8bae5d030a6f27633c5ca7834d93c86be1f90f739384464fa0e",
      "blockNumber": "0xe90b3f",
      "gasUsed": "0xbd7b",
      "effectiveGasPrice": "0x826299e00",
      "from": "0xe62ab4d111f968660c6b2188046f9b9ba53c4bae",
      "to": "0x7743150e59d6a27ec96ddda07b24131d0122b611",
      "contractAddress": null
    },
    {
      "status": "0x1",
      "cumulativeGasUsed": "0xbd92",
      "logs": [
        {
          "address": "0x0000000000000000000000000000000000001010",
          "topics": [
            "0x4dfe1bbbcf077ddc3e01291eea2d5c70c2b422b415d95645b9adcfd678cb1d63",
            "0x0000000000000000000000000000000000000000000000000000000000001010",
            "0x000000000000000000000000e62ab4d111f968660c6b2188046f9b9ba53c4bae",
            "0x00000000000000000000000009207a6efee346cb3e4a54ac18523e3715d38b3f"
          ],
          "data": "0x000000000000000000000000000000000000000000000000000608d27d570072000000000000000000000000000000000000000000000001cab858a1212b9d790000000000000000000000000000000000000000000004156a690b79faa3a1ee000000000000000000000000000000000000000000000001cab24fcea3d49d070000000000000000000000000000000000000000000004156a6f144c77faa260",
          "blockHash": "0x16e44d69ec4277a9b6a3b68ceb38b4762ff24a56dbb37ff6d84fa75596f98beb",
          "blockNumber": "0xe90b42",
          "transactionHash": "0x91eab709fe20ccf9cf43a7b471394bd42baed5587dc3a56d4d9870341e4c2467",
          "transactionIndex": "0x0",
          "logIndex": "0x0",
          "removed": false
        }
      ],
      "logsBloom": "0x20000000000000000004000000000000000000000000000000000000000000000000000000000000000000000000000000008000000000000000010000000000000000000000000000000000000000800000000000000000000100000000000000000000000000000000000000000000000000000000000080000000000000000000000000000000000000000000040000004000000000000000000000000000200000000000000000000000000000000000000000000000000000000000004000000000000000000001000000000000000000000000000000100000000000000000000000000000000000010000000000000000000000000000000000100000",
      "type": "0x2",
      "transactionHash": "0x91eab709fe20ccf9cf43a7b471394bd42baed5587dc3a56d4d9870341e4c2467",
      "transactionIndex": "0x0",
      "blockHash": "0x16e44d69ec4277a9b6a3b68ceb38b4762ff24a56dbb37ff6d84fa75596f98beb",
      "blockNumber": "0xe90b42",
      "gasUsed": "0xbd92",
      "effectiveGasPrice": "0x826299e00",
      "from": "0xe62ab4d111f968660c6b2188046f9b9ba53c4bae",
      "to": "0x7743150e59d6a27ec96ddda07b24131d0122b611",
      "contractAddress": null
    },
    {
      "status": "0x1",
      "cumulativeGasUsed": "0xbda9",
      "logs": [
        {
          "address": "0x0000000000000000000000000000000000001010",
          "topics": [
            "0x4dfe1bbbcf077ddc3e01291eea2d5c70c2b422b415d95645b9adcfd678cb1d63",
            "0x0000000000000000000000000000000000000000000000000000000000001010",
            "0x000000000000000000000000e62ab4d111f968660c6b2188046f9b9ba53c4bae",
            "0x00000000000000000000000009207a6efee346cb3e4a54ac18523e3715d38b3f"
          ],
          "data": "0x0000000000000000000000000000000000000000000000000006098deb143119000000000000000000000000000000000000000000000001cab24fcea3c981790000000000000000000000000000000000000000000004156a895e805469b4b0000000000000000000000000000000000000000000000001caac4640b8b550600000000000000000000000000000000000000000000004156a8f680e3f7de5c9",
          "blockHash": "0x1970d98071a4542dcb5c16eec1d2e31cbdc5f60c678527f1dc01f935c95751c5",
          "blockNumber": "0xe90b45",
          "transactionHash": "0xbe719c99260cae6111c0c1ae73e9b4e8ee1d9e83b581ed3c878678d53ece5916",
          "transactionIndex": "0x0",
          "logIndex": "0x0",
          "removed": false
        }
      ],
      "logsBloom": "0x20000000000000000004000000000000000000000000000000000000000000000000000000000000000000000000000000008000000000000000010000000000000000000000000000000000000000800000000000000000000100000000000000000000000000000000000000000000000000000000000080000000000000000000000000000000000000000000040000004000000000000000000000000000200000000000000000000000000000000000000000000000000000000000004000000000000000000001000000000000000000000000000000100000000000000000000000000000000000010000000000000000000000000000000000100000",
      "type": "0x2",
      "transactionHash": "0xbe719c99260cae6111c0c1ae73e9b4e8ee1d9e83b581ed3c878678d53ece5916",
      "transactionIndex": "0x0",
      "blockHash": "0x1970d98071a4542dcb5c16eec1d2e31cbdc5f60c678527f1dc01f935c95751c5",
      "blockNumber": "0xe90b45",
      "gasUsed": "0xbda9",
      "effectiveGasPrice": "0x826299e00",
      "from": "0xe62ab4d111f968660c6b2188046f9b9ba53c4bae",
      "to": "0x7743150e59d6a27ec96ddda07b24131d0122b611",
      "contractAddress": null
    },
    {
      "status": "0x1",
      "cumulativeGasUsed": "0xbdbb",
      "logs": [
        {
          "address": "0x0000000000000000000000000000000000001010",
          "topics": [
            "0x4dfe1bbbcf077ddc3e01291eea2d5c70c2b422b415d95645b9adcfd678cb1d63",
            "0x0000000000000000000000000000000000000000000000000000000000001010",
            "0x000000000000000000000000e62ab4d111f968660c6b2188046f9b9ba53c4bae",
            "0x00000000000000000000000009207a6efee346cb3e4a54ac18523e3715d38b3f"
          ],
          "data": "0x00000000000000000000000000000000000000000000000000060a209a014c0b000000000000000000000000000000000000000000000001caac4640b8aa33790000000000000000000000000000000000000000000004156a8f680e3f7de5c9000000000000000000000000000000000000000000000001caa63c201ea8e76e0000000000000000000000000000000000000000000004156a95722ed97f31d4",
          "blockHash": "0x597e7b63bc42b9673f345a12d8a33185442482015c0e0fc9d2e60c9028f11852",
          "blockNumber": "0xe90b49",
          "transactionHash": "0xf49a3f2b3102ea56209948718f82e83eee546d18bc0923558412766edd558d6e",
          "transactionIndex": "0x0",
          "logIndex": "0x0",
          "removed": false
        }
      ],
      "logsBloom": "0x20000000000000000004000000000000000000000000000000000000000000000000000000000000000000000000000000008000000000000000010000000000000000000000000000000000000000800000000000000000000100000000000000000000000000000000000000000000000000000000000080000000000000000000000000000000000000000000040000004000000000000000000000000000200000000000000000000000000000000000000000000000000000000000004000000000000000000001000000000000000000000000000000100000000000000000000000000000000000010000000000000000000000000000000000100000",
      "type": "0x2",
      "transactionHash": "0xf49a3f2b3102ea56209948718f82e83eee546d18bc0923558412766edd558d6e",
      "transactionIndex": "0x0",
      "blockHash": "0x597e7b63bc42b9673f345a12d8a33185442482015c0e0fc9d2e60c9028f11852",
      "blockNumber": "0xe90b49",
      "gasUsed": "0xbdbb",
      "effectiveGasPrice": "0x826299e00",
      "from": "0xe62ab4d111f968660c6b2188046f9b9ba53c4bae",
      "to": "0x7743150e59d6a27ec96ddda07b24131d0122b611",
      "contractAddress": null
    },
    {
      "status": "0x1",
      "cumulativeGasUsed": "0x224ec",
      "logs": [
        {
          "address": "0x0000000000000000000000000000000000001010",
          "topics": [
            "0x4dfe1bbbcf077ddc3e01291eea2d5c70c2b422b415d95645b9adcfd678cb1d63",
            "0x0000000000000000000000000000000000000000000000000000000000001010",
            "0x000000000000000000000000e62ab4d111f968660c6b2188046f9b9ba53c4bae",
            "0x00000000000000000000000009207a6efee346cb3e4a54ac18523e3715d38b3f"
          ],
          "data": "0x0000000000000000000000000000000000000000000000000011793444757e2c000000000000000000000000000000000000000000000001caa63c201e9dc9790000000000000000000000000000000000000000000004156b1cc81fae04ffba000000000000000000000000000000000000000000000001ca94c2ebda284b4d0000000000000000000000000000000000000000000004156b2e4153f27a7de6",
          "blockHash": "0xfc55e0ca72fd8383cd193e27cfa6b7332925a65b1e12db8ea88ecac8610f2401",
          "blockNumber": "0xe90b4d",
          "transactionHash": "0x73514995a0b658c071e8f57598eab29c2ecf48895d80a6809e36ff5ab308e4d7",
          "transactionIndex": "0x0",
          "logIndex": "0x0",
          "removed": false
        }
      ],
      "logsBloom": "0x20000000000000000004000000000000000000000000000000000000000000000000000000000000000000000000000000008000000000000000010000000000000000000000000000000000000000800000000000000000000100000000000000000000000000000000000000000000000000000000000080000000000000000000000000000000000000000000040000004000000000000000000000000000200000000000000000000000000000000000000000000000000000000000004000000000000000000001000000000000000000000000000000100000000000000000000000000000000000010000000000000000000000000000000000100000",
      "type": "0x2",
      "transactionHash": "0x73514995a0b658c071e8f57598eab29c2ecf48895d80a6809e36ff5ab308e4d7",
      "transactionIndex": "0x0",
      "blockHash": "0xfc55e0ca72fd8383cd193e27cfa6b7332925a65b1e12db8ea88ecac8610f2401",
      "blockNumber": "0xe90b4d",
      "gasUsed": "0x224ec",
      "effectiveGasPrice": "0x826299e00",
      "from": "0xe62ab4d111f968660c6b2188046f9b9ba53c4bae",
      "to": "0x7743150e59d6a27ec96ddda07b24131d0122b611",
      "contractAddress": null
    },
    {
      "status": "0x1",
      "cumulativeGasUsed": "0x1e86c",
      "logs": [
        {
          "address": "0x0000000000000000000000000000000000001010",
          "topics": [
            "0x4dfe1bbbcf077ddc3e01291eea2d5c70c2b422b415d95645b9adcfd678cb1d63",
            "0x0000000000000000000000000000000000000000000000000000000000001010",
            "0x000000000000000000000000e62ab4d111f968660c6b2188046f9b9ba53c4bae",
            "0x0000000000000000000000004631753190f2f5a15a7ba172bbac102b7d95fa22"
          ],
          "data": "0x000000000000000000000000000000000000000000000000000f8c2f6ea209ac000000000000000000000000000000000000000000000001ca94c2ebda0821790000000000000000000000000000000000000000000003644a5d4ec88de8de46000000000000000000000000000000000000000000000001ca8536bc6b6617cd0000000000000000000000000000000000000000000003644a6cdaf7fc8ae7f2",
          "blockHash": "0x7c43266857f3481d554cb3bd1f02333fc74422d22136960d9c28308ddd74979f",
          "blockNumber": "0xe90b50",
          "transactionHash": "0x9e9007bbc0c03ad3cfd9769b6a8e1dee553d4d8b61acc5b5d972756d673551e8",
          "transactionIndex": "0x0",
          "logIndex": "0x0",
          "removed": false
        }
      ],
      "logsBloom": "0x20000000000000000004000000000000000000002000000000000000000000000000000000000000000000000000000000008000000000000000000040000000000000000000000000000000000000800000000000000000000100000000000000000000000000100000000000000000000000000000000080000000000000000000000000000000000000000000040000000000000000000000000000000000200000000000000000000000000000000000000000000000000000000000004000000000000000000001000000000000000000000000000000100000000000000000000000000000000000000000000000000000000000000000000000100000",
      "type": "0x2",
      "transactionHash": "0x9e9007bbc0c03ad3cfd9769b6a8e1dee553d4d8b61acc5b5d972756d673551e8",
      "transactionIndex": "0x0",
      "blockHash": "0x7c43266857f3481d554cb3bd1f02333fc74422d22136960d9c28308ddd74979f",
      "blockNumber": "0xe90b50",
      "gasUsed": "0x1e86c",
      "effectiveGasPrice": "0x826299e00",
      "from": "0xe62ab4d111f968660c6b2188046f9b9ba53c4bae",
      "to": "0x7743150e59d6a27ec96ddda07b24131d0122b611",
      "contractAddress": null
    },
    {
      "status": "0x1",
      "cumulativeGasUsed": "0x1e86c",
      "logs": [
        {
          "address": "0x0000000000000000000000000000000000001010",
          "topics": [
            "0x4dfe1bbbcf077ddc3e01291eea2d5c70c2b422b415d95645b9adcfd678cb1d63",
            "0x0000000000000000000000000000000000000000000000000000000000001010",
            "0x000000000000000000000000e62ab4d111f968660c6b2188046f9b9ba53c4bae",
            "0x0000000000000000000000004631753190f2f5a15a7ba172bbac102b7d95fa22"
          ],
          "data": "0x000000000000000000000000000000000000000000000000000f8c2f6ea209ac000000000000000000000000000000000000000000000001ca8536bc6b4979790000000000000000000000000000000000000000000003644aa8293e688541fd000000000000000000000000000000000000000000000001ca75aa8cfca76fcd0000000000000000000000000000000000000000000003644ab7b56dd7274ba9",
          "blockHash": "0xd17a1fb14c9c752eae57565d78060ad698bb6c6a3630a9c8c20eb8e6f8bc4cc4",
          "blockNumber": "0xe90b52",
          "transactionHash": "0xed3ec195f7d32b2c03d53623b2005057602a80c57f7d850e44d0025e0ade584f",
          "transactionIndex": "0x0",
          "logIndex": "0x0",
          "removed": false
        }
      ],
      "logsBloom": "0x20000000000000000004000000000000000000002000000000000000000000000000000000000000000000000000000000008000000000000000000040000000000000000000000000000000000000800000000000000000000100000000000000000000000000100000000000000000000000000000000080000000000000000000000000000000000000000000040000000000000000000000000000000000200000000000000000000000000000000000000000000000000000000000004000000000000000000001000000000000000000000000000000100000000000000000000000000000000000000000000000000000000000000000000000100000",
      "type": "0x2",
      "transactionHash": "0xed3ec195f7d32b2c03d53623b2005057602a80c57f7d850e44d0025e0ade584f",
      "transactionIndex": "0x0",
      "blockHash": "0xd17a1fb14c9c752eae57565d78060ad698bb6c6a3630a9c8c20eb8e6f8bc4cc4",
      "blockNumber": "0xe90b52",
      "gasUsed": "0x1e86c",
      "effectiveGasPrice": "0x826299e00",
      "from": "0xe62ab4d111f968660c6b2188046f9b9ba53c4bae",
      "to": "0x7743150e59d6a27ec96ddda07b24131d0122b611",
      "contractAddress": null
    },
    {
      "status": "0x1",
      "cumulativeGasUsed": "0x1e3e0",
      "logs": [
        {
          "address": "0x0000000000000000000000000000000000001010",
          "topics": [
            "0x4dfe1bbbcf077ddc3e01291eea2d5c70c2b422b415d95645b9adcfd678cb1d63",
            "0x0000000000000000000000000000000000000000000000000000000000001010",
            "0x000000000000000000000000e62ab4d111f968660c6b2188046f9b9ba53c4bae",
            "0x0000000000000000000000004631753190f2f5a15a7ba172bbac102b7d95fa22"
          ],
          "data": "0x000000000000000000000000000000000000000000000000000f6721e967e5e0000000000000000000000000000000000000000000000001ca75aa8cfc8ad1790000000000000000000000000000000000000000000003644aba4d1ce15b137d000000000000000000000000000000000000000000000001ca66436b1322eb990000000000000000000000000000000000000000000003644ac9b43ecac2f95d",
          "blockHash": "0xc4dd03566a61b4371fb1f518191628f174799c429baa06c239d34a60d0fe4c3e",
          "blockNumber": "0xe90b56",
          "transactionHash": "0x4132bb527819426ca838b407521af61032d7a547c7e1327d76f34d8e222b4f01",
          "transactionIndex": "0x0",
          "logIndex": "0x0",
          "removed": false
        }
      ],
      "logsBloom": "0x20000000000000000004000000000000000000002000000000000000000000000000000000000000000000000000000000008000000000000000000040000000000000000000000000000000000000800000000000000000000100000000000000000000000000100000000000000000000000000000000080000000000000000000000000000000000000000000040000000000000000000000000000000000200000000000000000000000000000000000000000000000000000000000004000000000000000000001000000000000000000000000000000100000000000000000000000000000000000000000000000000000000000000000000000100000",
      "type": "0x2",
      "transactionHash": "0x4132bb527819426ca838b407521af61032d7a547c7e1327d76f34d8e222b4f01",
      "transactionIndex": "0x0",
      "blockHash": "0xc4dd03566a61b4371fb1f518191628f174799c429baa06c239d34a60d0fe4c3e",
      "blockNumber": "0xe90b56",
      "gasUsed": "0x1e3e0",
      "effectiveGasPrice": "0x826299e00",
      "from": "0xe62ab4d111f968660c6b2188046f9b9ba53c4bae",
      "to": "0x7743150e59d6a27ec96ddda07b24131d0122b611",
      "contractAddress": null
    },
    {
      "status": "0x1",
      "cumulativeGasUsed": "0x23f00",
      "logs": [
        {
          "address": "0x0000000000000000000000000000000000001010",
          "topics": [
            "0x4dfe1bbbcf077ddc3e01291eea2d5c70c2b422b415d95645b9adcfd678cb1d63",
            "0x0000000000000000000000000000000000000000000000000000000000001010",
            "0x000000000000000000000000e62ab4d111f968660c6b2188046f9b9ba53c4bae",
            "0x0000000000000000000000004631753190f2f5a15a7ba172bbac102b7d95fa22"
          ],
          "data": "0x000000000000000000000000000000000000000000000000000fb13cf3dc2d78000000000000000000000000000000000000000000000001ca66436b130691790000000000000000000000000000000000000000000003644b71e20056d00589000000000000000000000000000000000000000000000001ca56922e1f2a64010000000000000000000000000000000000000000000003644b81933d4aac3301",
          "blockHash": "0xa16ee29fa5ac5882a58e3f5f446b4a9d4d5791550adae5910e6d2770559c2910",
          "blockNumber": "0xe90b5a",
          "transactionHash": "0x102a182705a07b30fd684283e060fff809d0633defd8c39c342677b7f7100ea9",
          "transactionIndex": "0x1",
          "logIndex": "0x2",
          "removed": false
        }
      ],
      "logsBloom": "0x20000000000000000004000000000000000000002000000000000000000000000000000000000000000000000000000000008000000000000000000040000000000000000000000000000000000000800000000000000000000100000000000000000000000000100000000000000000000000000000000080000000000000000000000000000000000000000000040000000000000000000000000000000000200000000000000000000000000000000000000000000000000000000000004000000000000000000001000000000000000000000000000000100000000000000000000000000000000000000000000000000000000000000000000000100000",
      "type": "0x2",
      "transactionHash": "0x102a182705a07b30fd684283e060fff809d0633defd8c39c342677b7f7100ea9",
      "transactionIndex": "0x1",
      "blockHash": "0xa16ee29fa5ac5882a58e3f5f446b4a9d4d5791550adae5910e6d2770559c2910",
      "blockNumber": "0xe90b5a",
      "gasUsed": "0x1ecf8",
      "effectiveGasPrice": "0x826299e00",
      "from": "0xe62ab4d111f968660c6b2188046f9b9ba53c4bae",
      "to": "0x7743150e59d6a27ec96ddda07b24131d0122b611",
      "contractAddress": null
    },
    {
      "status": "0x1",
      "cumulativeGasUsed": "0x7b29c",
      "logs": [
        {
          "address": "0x0000000000000000000000000000000000001010",
          "topics": [
            "0x4dfe1bbbcf077ddc3e01291eea2d5c70c2b422b415d95645b9adcfd678cb1d63",
            "0x0000000000000000000000000000000000000000000000000000000000001010",
            "0x000000000000000000000000e62ab4d111f968660c6b2188046f9b9ba53c4bae",
            "0x0000000000000000000000004631753190f2f5a15a7ba172bbac102b7d95fa22"
          ],
          "data": "0x000000000000000000000000000000000000000000000000003ebaa382c4d0dc000000000000000000000000000000000000000000000001ca56922e1f0d81790000000000000000000000000000000000000000000003644b842aec54dffad5000000000000000000000000000000000000000000000001ca17d78a9c48b09d0000000000000000000000000000000000000000000003644bc2e58fd7a4cbb1",
          "blockHash": "0x17712d191ab52a4b543823a2af15035d246171682457e75fe16ddd1173bd4f90",
          "blockNumber": "0xe90b5d",
          "transactionHash": "0x1bb1f42bf9fbc99eb76df517c0746470abd671eb058d918004a64b063ae0280a",
          "transactionIndex": "0x0",
          "logIndex": "0x0",
          "removed": false
        }
      ],
      "logsBloom": "0x20000000000000000004000000000000000000002000000000000000000000000000000000000000000000000000000000008000000000000000000040000000000000000000000000000000000000800000000000000000000100000000000000000000000000100000000000000000000000000000000080000000000000000000000000000000000000000000040000000000000000000000000000000000200000000000000000000000000000000000000000000000000000000000004000000000000000000001000000000000000000000000000000100000000000000000000000000000000000000000000000000000000000000000000000100000",
      "type": "0x2",
      "transactionHash": "0x1bb1f42bf9fbc99eb76df517c0746470abd671eb058d918004a64b063ae0280a",
      "transactionIndex": "0x0",
      "blockHash": "0x17712d191ab52a4b543823a2af15035d246171682457e75fe16ddd1173bd4f90",
      "blockNumber": "0xe90b5d",
      "gasUsed": "0x7b29c",
      "effectiveGasPrice": "0x826299e00",
      "from": "0xe62ab4d111f968660c6b2188046f9b9ba53c4bae",
      "to": "0x89330be16c672d4378b6731a8347d23b0c611de3",
      "contractAddress": null
    },
    {
      "status": "0x1",
      "cumulativeGasUsed": "0xbd046",
      "logs": [
        {
          "address": "0x0000000000000000000000000000000000001010",
          "topics": [
            "0x4dfe1bbbcf077ddc3e01291eea2d5c70c2b422b415d95645b9adcfd678cb1d63",
            "0x0000000000000000000000000000000000000000000000000000000000001010",
            "0x000000000000000000000000e62ab4d111f968660c6b2188046f9b9ba53c4bae",
            "0x0000000000000000000000006dc2dd54f24979ec26212794c71afefed722280c"
          ],
          "data": "0x00000000000000000000000000000000000000000000000000604506090fffe6000000000000000000000000000000000000000000000001ca17d78a9bd5397900000000000000000000000000000000000000000000045c0ec9f1dbb7bb3c63000000000000000000000000000000000000000000000001c9b7928492c5399300000000000000000000000000000000000000000000045c0f2a36e1c0cb3c49",
          "blockHash": "0x79843785e3549d08dfe2472e7dde7fb620eed2223c5903d05a768ab71105ae69",
          "blockNumber": "0xe90b61",
          "transactionHash": "0x58ea333e8fdcc20c83ca9a0a0d7acb53aa99b31664b49af941e97d227c2549f7",
          "transactionIndex": "0x0",
          "logIndex": "0x0",
          "removed": false
        }
      ],
      "logsBloom": "0x20000000000000000004000000000000000000000000000000000000000000000000000000000000000000000000000000008000000000000000000000000000000000000000000000000000000000800000000000000000000100080000000000000000000000000000000000000000000000000000000080000000000000020000000000000000000000000040040000000000000000000000000000000000200000000000000000000000000000000000000000000000000000000000004000000000000000000001000000000000000000000000000000100000000000000000000000000000000000000000000000000000000000000000000000100000",
      "type": "0x2",
      "transactionHash": "0x58ea333e8fdcc20c83ca9a0a0d7acb53aa99b31664b49af941e97d227c2549f7",
      "transactionIndex": "0x0",
      "blockHash": "0x79843785e3549d08dfe2472e7dde7fb620eed2223c5903d05a768ab71105ae69",
      "blockNumber": "0xe90b61",
      "gasUsed": "0xbd046",
      "effectiveGasPrice": "0x826299e00",
      "from": "0xe62ab4d111f968660c6b2188046f9b9ba53c4bae",
      "to": "0x89330be16c672d4378b6731a8347d23b0c611de3",
      "contractAddress": null
    },
    {
      "status": "0x1",
      "cumulativeGasUsed": "0x9be17",
      "logs": [
        {
          "address": "0x0000000000000000000000000000000000001010",
          "topics": [
            "0x4dfe1bbbcf077ddc3e01291eea2d5c70c2b422b415d95645b9adcfd678cb1d63",
            "0x0000000000000000000000000000000000000000000000000000000000001010",
            "0x000000000000000000000000e62ab4d111f968660c6b2188046f9b9ba53c4bae",
            "0x0000000000000000000000006dc2dd54f24979ec26212794c71afefed722280c"
          ],
          "data": "0x000000000000000000000000000000000000000000000000004f6484de6f0ea7000000000000000000000000000000000000000000000001c9b792849214057900000000000000000000000000000000000000000000045c0f5e601b8c74efe3000000000000000000000000000000000000000000000001c9682dffb3a4f6d200000000000000000000000000000000000000000000045c0fadc4a06ae3fe8a",
          "blockHash": "0x7b8b2ae2fbccbf8761afa781d2e69aa2364a5c1dfe2cd576c0b2f6c70b8bc019",
          "blockNumber": "0xe90b64",
          "transactionHash": "0x68f6369c0f0364d3f35c9201368dfae744325a040c05a99c524f9fdad2e37791",
          "transactionIndex": "0x0",
          "logIndex": "0x0",
          "removed": false
        }
      ],
      "logsBloom": "0x20000000000000000004000000000000000000000000000000000000000000000000000000000000000000000000000000008000000000000000000000000000000000000000000000000000000000800000000000000000000100080000000000000000000000000000000000000000000000000000000080000000000000020000000000000000000000000040040000000000000000000000000000000000200000000000000000000000000000000000000000000000000000000000004000000000000000000001000000000000000000000000000000100000000000000000000000000000000000000000000000000000000000000000000000100000",
      "type": "0x2",
      "transactionHash": "0x68f6369c0f0364d3f35c9201368dfae744325a040c05a99c524f9fdad2e37791",
      "transactionIndex": "0x0",
      "blockHash": "0x7b8b2ae2fbccbf8761afa781d2e69aa2364a5c1dfe2cd576c0b2f6c70b8bc019",
      "blockNumber": "0xe90b64",
      "gasUsed": "0x9be17",
      "effectiveGasPrice": "0x826299e00",
      "from": "0xe62ab4d111f968660c6b2188046f9b9ba53c4bae",
      "to": "0x89330be16c672d4378b6731a8347d23b0c611de3",
      "contractAddress": null
    }
  ],
  "libraries": [],
  "pending": [],
  "returns": {},
  "timestamp": 1733429722,
  "chain": 80002,
  "commit": "d684feb7"
}