{
  "transactions": [
    {
      "hash": "0xf619bc6a7d75128f21b20b2b2577f0fc85ddbaad8ddfa4621f8d13c05ec6c62a",
      "transactionType": "CALL",
      "contractName": null,
      "contractAddress": "0xcc2461b294f68e860b046038df8ad3a2a8c2fc51",
      "function": "getFeeTokenList()",
      "arguments": [],
      "transaction": {
        "from": "0xe62ab4d111f968660c6b2188046f9b9ba53c4bae",
        "to": "0xcc2461b294f68e860b046038df8ad3a2a8c2fc51",
        "gas": "0x8a7e",
        "value": "0x0",
        "input": "0xe28ab277",
        "nonce": "0x18b",
        "chainId": "0x13882"
      },
      "additionalContracts": [],
      "isFixedGasLimit": false
    },
    {
      "hash": "0xf86fc119b8a461474c8e1dfb526bb344298bb5b2774a28c79ca111346346a7d3",
      "transactionType": "CALL",
      "contractName": null,
      "contractAddress": "0xcc2461b294f68e860b046038df8ad3a2a8c2fc51",
      "function": "addFeeToken(string)",
      "arguments": [
        "0x6a4dbc971533ba36bdc23ad70f5a7a12e064f4ae"
      ],
      "transaction": {
        "from": "0xe62ab4d111f968660c6b2188046f9b9ba53c4bae",
        "to": "0xcc2461b294f68e860b046038df8ad3a2a8c2fc51",
        "gas": "0x2696b",
        "value": "0x0",
        "input": "0x12a6385f0000000000000000000000000000000000000000000000000000000000000020000000000000000000000000000000000000000000000000000000000000002a30783661346462633937313533336261333662646332336164373066356137613132653036346634616500000000000000000000000000000000000000000000",
        "nonce": "0x18c",
        "chainId": "0x13882"
      },
      "additionalContracts": [],
      "isFixedGasLimit": false
    },
    {
      "hash": "0x977e4c154b04505d6e87803bb8a47eb2ea90d64c958af99f8ff982d7f1a33912",
      "transactionType": "CALL",
      "contractName": null,
      "contractAddress": "0xcc2461b294f68e860b046038df8ad3a2a8c2fc51",
      "function": "setFeeMultiplier(uint8,uint256)",
      "arguments": [
        "0",
        "2"
      ],
      "transaction": {
        "from": "0xe62ab4d111f968660c6b2188046f9b9ba53c4bae",
        "to": "0xcc2461b294f68e860b046038df8ad3a2a8c2fc51",
        "gas": "0x112e8",
        "value": "0x0",
        "input": "0x0ee24eb500000000000000000000000000000000000000000000000000000000000000000000000000000000000000000000000000000000000000000000000000000002",
        "nonce": "0x18d",
        "chainId": "0x13882"
      },
      "additionalContracts": [],
      "isFixedGasLimit": false
    },
    {
      "hash": "0x844318b6e77b4b0aef2e32b9f48caee9bfb3b05a4e3f67a6cfabc4fdbc68b705",
      "transactionType": "CALL",
      "contractName": null,
      "contractAddress": "0xcc2461b294f68e860b046038df8ad3a2a8c2fc51",
      "function": "setFeeMultiplier(uint8,uint256)",
      "arguments": [
        "1",
        "10"
      ],
      "transaction": {
        "from": "0xe62ab4d111f968660c6b2188046f9b9ba53c4bae",
        "to": "0xcc2461b294f68e860b046038df8ad3a2a8c2fc51",
        "gas": "0x11324",
        "value": "0x0",
        "input": "0x0ee24eb50000000000000000000000000000000000000000000000000000000000000001000000000000000000000000000000000000000000000000000000000000000a",
        "nonce": "0x18e",
        "chainId": "0x13882"
      },
      "additionalContracts": [],
      "isFixedGasLimit": false
    },
    {
      "hash": "0x799d17991d35dd15e8153db86a210099601aa26edb6b503b9e3978b245b27c6e",
      "transactionType": "CALL",
      "contractName": null,
      "contractAddress": "0xcc2461b294f68e860b046038df8ad3a2a8c2fc51",
      "function": "setFeeMultiplier(uint8,uint256)",
      "arguments": [
        "2",
        "1"
      ],
      "transaction": {
        "from": "0xe62ab4d111f968660c6b2188046f9b9ba53c4bae",
        "to": "0xcc2461b294f68e860b046038df8ad3a2a8c2fc51",
        "gas": "0x11346",
        "value": "0x0",
        "input": "0x0ee24eb500000000000000000000000000000000000000000000000000000000000000020000000000000000000000000000000000000000000000000000000000000001",
        "nonce": "0x18f",
        "chainId": "0x13882"
      },
      "additionalContracts": [],
      "isFixedGasLimit": false
    },
    {
      "hash": "0xddab745d2f1695cd282e9b8f3ac680e5b2c05bd0f91adbe8db876a8d94bc45e0",
      "transactionType": "CALL",
      "contractName": null,
      "contractAddress": "0xcc2461b294f68e860b046038df8ad3a2a8c2fc51",
      "function": "setFeeMultiplier(uint8,uint256)",
      "arguments": [
        "3",
        "4"
      ],
      "transaction": {
        "from": "0xe62ab4d111f968660c6b2188046f9b9ba53c4bae",
        "to": "0xcc2461b294f68e860b046038df8ad3a2a8c2fc51",
        "gas": "0x1041b",
        "value": "0x0",
        "input": "0x0ee24eb500000000000000000000000000000000000000000000000000000000000000030000000000000000000000000000000000000000000000000000000000000004",
        "nonce": "0x190",
        "chainId": "0x13882"
      },
      "additionalContracts": [],
      "isFixedGasLimit": false
    },
    {
      "hash": "0x0a4bc5d69cbb71820adfda6be2c34061e5f9d6f2352cdae981f5a8ff6e7e56e8",
      "transactionType": "CALL",
      "contractName": null,
      "contractAddress": "0xcc2461b294f68e860b046038df8ad3a2a8c2fc51",
      "function": "setFeeMultiplier(uint8,uint256)",
      "arguments": [
        "4",
        "4"
      ],
      "transaction": {
        "from": "0xe62ab4d111f968660c6b2188046f9b9ba53c4bae",
        "to": "0xcc2461b294f68e860b046038df8ad3a2a8c2fc51",
        "gas": "0x1043a",
        "value": "0x0",
        "input": "0x0ee24eb500000000000000000000000000000000000000000000000000000000000000040000000000000000000000000000000000000000000000000000000000000004",
        "nonce": "0x191",
        "chainId": "0x13882"
      },
      "additionalContracts": [],
      "isFixedGasLimit": false
    },
    {
      "hash": "0xb526891e284ca5a2e1792301943144a2a7bc92aae1dfeaa8c51bfd425bd69ac3",
      "transactionType": "CALL",
      "contractName": null,
      "contractAddress": "0xcc2461b294f68e860b046038df8ad3a2a8c2fc51",
      "function": "setFeeMultiplier(uint8,uint256)",
      "arguments": [
        "5",
        "4"
      ],
      "transaction": {
        "from": "0xe62ab4d111f968660c6b2188046f9b9ba53c4bae",
        "to": "0xcc2461b294f68e860b046038df8ad3a2a8c2fc51",
        "gas": "0x10459",
        "value": "0x0",
        "input": "0x0ee24eb500000000000000000000000000000000000000000000000000000000000000050000000000000000000000000000000000000000000000000000000000000004",
        "nonce": "0x192",
        "chainId": "0x13882"
      },
      "additionalContracts": [],
      "isFixedGasLimit": false
    },
    {
      "hash": "0x32dfc35808db83f337c98f810e8b934b3b9fc9fcdb1cdf0f88556c65e45fed8c",
      "transactionType": "CALL",
      "contractName": null,
      "contractAddress": "0xcc2461b294f68e860b046038df8ad3a2a8c2fc51",
      "function": "setFeeMultiplier(uint8,uint256)",
      "arguments": [
        "6",
        "8"
      ],
      "transaction": {
        "from": "0xe62ab4d111f968660c6b2188046f9b9ba53c4bae",
        "to": "0xcc2461b294f68e860b046038df8ad3a2a8c2fc51",
        "gas": "0x1047a",
        "value": "0x0",
        "input": "0x0ee24eb500000000000000000000000000000000000000000000000000000000000000060000000000000000000000000000000000000000000000000000000000000008",
        "nonce": "0x193",
        "chainId": "0x13882"
      },
      "additionalContracts": [],
      "isFixedGasLimit": false
    },
    {
      "hash": "0xa0f2d8b599c531fd78dd1a5fd84b07861d334670f197f66a676ea57022b72f78",
      "transactionType": "CALL",
      "contractName": null,
      "contractAddress": "0xcc2461b294f68e860b046038df8ad3a2a8c2fc51",
      "function": "setFeeMultiplier(uint8,uint256)",
      "arguments": [
        "7",
        "4"
      ],
      "transaction": {
        "from": "0xe62ab4d111f968660c6b2188046f9b9ba53c4bae",
        "to": "0xcc2461b294f68e860b046038df8ad3a2a8c2fc51",
        "gas": "0x10499",
        "value": "0x0",
        "input": "0x0ee24eb500000000000000000000000000000000000000000000000000000000000000070000000000000000000000000000000000000000000000000000000000000004",
        "nonce": "0x194",
        "chainId": "0x13882"
      },
      "additionalContracts": [],
      "isFixedGasLimit": false
    },
    {
      "hash": "0x2a840bb7210dedde8ecfea3593eaa367a2f4e4faca229cefe6b9a815233e46f7",
      "transactionType": "CALL",
      "contractName": null,
      "contractAddress": "0xcc2461b294f68e860b046038df8ad3a2a8c2fc51",
      "function": "setFeeMultiplier(uint8,uint256)",
      "arguments": [
        "8",
        "10"
      ],
      "transaction": {
        "from": "0xe62ab4d111f968660c6b2188046f9b9ba53c4bae",
        "to": "0xcc2461b294f68e860b046038df8ad3a2a8c2fc51",
        "gas": "0x1140f",
        "value": "0x0",
        "input": "0x0ee24eb50000000000000000000000000000000000000000000000000000000000000008000000000000000000000000000000000000000000000000000000000000000a",
        "nonce": "0x195",
        "chainId": "0x13882"
      },
      "additionalContracts": [],
      "isFixedGasLimit": false
    },
    {
      "hash": "0x89f4dd7221f3d12730c5bccb15d9e553d77965240b698a9280ee069504b2c46b",
      "transactionType": "CALL",
      "contractName": null,
      "contractAddress": "0xcc2461b294f68e860b046038df8ad3a2a8c2fc51",
      "function": "setFeeMultiplier(uint8,uint256)",
      "arguments": [
        "9",
        "8"
      ],
      "transaction": {
        "from": "0xe62ab4d111f968660c6b2188046f9b9ba53c4bae",
        "to": "0xcc2461b294f68e860b046038df8ad3a2a8c2fc51",
        "gas": "0x11431",
        "value": "0x0",
        "input": "0x0ee24eb500000000000000000000000000000000000000000000000000000000000000090000000000000000000000000000000000000000000000000000000000000008",
        "nonce": "0x196",
        "chainId": "0x13882"
      },
      "additionalContracts": [],
      "isFixedGasLimit": false
    },
    {
      "hash": "0xf66e754fa75c9a1404748dc626c90561dd1c4ea9c78bc69b3cf2e7b0098195ec",
      "transactionType": "CALL",
      "contractName": null,
      "contractAddress": "0xcc2461b294f68e860b046038df8ad3a2a8c2fc51",
      "function": "setFeeMultiplier(uint8,uint256)",
      "arguments": [
        "10",
        "8"
      ],
      "transaction": {
        "from": "0xe62ab4d111f968660c6b2188046f9b9ba53c4bae",
        "to": "0xcc2461b294f68e860b046038df8ad3a2a8c2fc51",
        "gas": "0x11453",
        "value": "0x0",
        "input": "0x0ee24eb5000000000000000000000000000000000000000000000000000000000000000a0000000000000000000000000000000000000000000000000000000000000008",
        "nonce": "0x197",
        "chainId": "0x13882"
      },
      "additionalContracts": [],
      "isFixedGasLimit": false
    },
    {
      "hash": "0xd616711b64c3655e2d628e7e38e8bbf7b542563a9312f265e7da10e804dbdac5",
      "transactionType": "CALL",
      "contractName": null,
      "contractAddress": "0xcc2461b294f68e860b046038df8ad3a2a8c2fc51",
      "function": "setFeeMultiplier(uint8,uint256)",
      "arguments": [
        "11",
        "8"
      ],
      "transaction": {
        "from": "0xe62ab4d111f968660c6b2188046f9b9ba53c4bae",
        "to": "0xcc2461b294f68e860b046038df8ad3a2a8c2fc51",
        "gas": "0x10518",
        "value": "0x0",
        "input": "0x0ee24eb5000000000000000000000000000000000000000000000000000000000000000b0000000000000000000000000000000000000000000000000000000000000008",
        "nonce": "0x198",
        "chainId": "0x13882"
      },
      "additionalContracts": [],
      "isFixedGasLimit": false
    },
    {
      "hash": "0x5df7faeb4a1f3c82ae50aa6ca0ad77c9ebeb3564074f68d6b08b39999befa6bf",
      "transactionType": "CALL",
      "contractName": null,
      "contractAddress": "0xcc2461b294f68e860b046038df8ad3a2a8c2fc51",
      "function": "setFeeMultiplier(uint8,uint256)",
      "arguments": [
        "12",
        "20"
      ],
      "transaction": {
        "from": "0xe62ab4d111f968660c6b2188046f9b9ba53c4bae",
        "to": "0xcc2461b294f68e860b046038df8ad3a2a8c2fc51",
        "gas": "0x10538",
        "value": "0x0",
        "input": "0x0ee24eb5000000000000000000000000000000000000000000000000000000000000000c0000000000000000000000000000000000000000000000000000000000000014",
        "nonce": "0x199",
        "chainId": "0x13882"
      },
      "additionalContracts": [],
      "isFixedGasLimit": false
    },
    {
      "hash": "0xb320976db5d27f9127d708c69b2c2d73e139d94d7e179de9622ea6cd7c646176",
      "transactionType": "CALL",
      "contractName": null,
      "contractAddress": "0xcc2461b294f68e860b046038df8ad3a2a8c2fc51",
      "function": "setFeeMultiplier(uint8,uint256)",
      "arguments": [
        "13",
        "8"
      ],
      "transaction": {
        "from": "0xe62ab4d111f968660c6b2188046f9b9ba53c4bae",
        "to": "0xcc2461b294f68e860b046038df8ad3a2a8c2fc51",
        "gas": "0x10558",
        "value": "0x0",
        "input": "0x0ee24eb5000000000000000000000000000000000000000000000000000000000000000d0000000000000000000000000000000000000000000000000000000000000008",
        "nonce": "0x19a",
        "chainId": "0x13882"
      },
      "additionalContracts": [],
      "isFixedGasLimit": false
    },
    {
      "hash": "0x1e70868b2261f62f93b97081c2bb919c604e271a2fed7269827fa19390e6b39f",
      "transactionType": "CALL",
      "contractName": null,
      "contractAddress": "0xcc2461b294f68e860b046038df8ad3a2a8c2fc51",
      "function": "setFeeMultiplier(uint8,uint256)",
      "arguments": [
        "14",
        "4"
      ],
      "transaction": {
        "from": "0xe62ab4d111f968660c6b2188046f9b9ba53c4bae",
        "to": "0xcc2461b294f68e860b046038df8ad3a2a8c2fc51",
        "gas": "0x10577",
        "value": "0x0",
        "input": "0x0ee24eb5000000000000000000000000000000000000000000000000000000000000000e0000000000000000000000000000000000000000000000000000000000000004",
        "nonce": "0x19b",
        "chainId": "0x13882"
      },
      "additionalContracts": [],
      "isFixedGasLimit": false
    },
    {
      "hash": "0xb9b743b688eff2529c73d642717377b074267433461250a173bdbbeb47242d1e",
      "transactionType": "CALL",
      "contractName": null,
      "contractAddress": "0xcc2461b294f68e860b046038df8ad3a2a8c2fc51",
      "function": "setFeeMultiplier(uint8,uint256)",
      "arguments": [
        "15",
        "4"
      ],
      "transaction": {
        "from": "0xe62ab4d111f968660c6b2188046f9b9ba53c4bae",
        "to": "0xcc2461b294f68e860b046038df8ad3a2a8c2fc51",
        "gas": "0x10598",
        "value": "0x0",
        "input": "0x0ee24eb5000000000000000000000000000000000000000000000000000000000000000f0000000000000000000000000000000000000000000000000000000000000004",
        "nonce": "0x19c",
        "chainId": "0x13882"
      },
      "additionalContracts": [],
      "isFixedGasLimit": false
    },
    {
      "hash": "0x6d91f6127dec0c0f3d59c94132470d5fa9e1b36c8ad15611972542f82afb089c",
      "transactionType": "CALL",
      "contractName": null,
      "contractAddress": "0xcc2461b294f68e860b046038df8ad3a2a8c2fc51",
      "function": "setFeeMultiplier(uint8,uint256)",
      "arguments": [
        "16",
        "4"
      ],
      "transaction": {
        "from": "0xe62ab4d111f968660c6b2188046f9b9ba53c4bae",
        "to": "0xcc2461b294f68e860b046038df8ad3a2a8c2fc51",
        "gas": "0x1151d",
        "value": "0x0",
        "input": "0x0ee24eb500000000000000000000000000000000000000000000000000000000000000100000000000000000000000000000000000000000000000000000000000000004",
        "nonce": "0x19d",
        "chainId": "0x13882"
      },
      "additionalContracts": [],
      "isFixedGasLimit": false
    },
    {
      "hash": "0x951f71b26844529221a1f8dafac0912a50b99ef4b647c28142c9c1f44c5c989c",
      "transactionType": "CALL",
      "contractName": null,
      "contractAddress": "0xcc2461b294f68e860b046038df8ad3a2a8c2fc51",
      "function": "setFeeMultiplier(uint8,uint256)",
      "arguments": [
        "17",
        "4"
      ],
      "transaction": {
        "from": "0xe62ab4d111f968660c6b2188046f9b9ba53c4bae",
        "to": "0xcc2461b294f68e860b046038df8ad3a2a8c2fc51",
        "gas": "0x1153e",
        "value": "0x0",
        "input": "0x0ee24eb500000000000000000000000000000000000000000000000000000000000000110000000000000000000000000000000000000000000000000000000000000004",
        "nonce": "0x19e",
        "chainId": "0x13882"
      },
      "additionalContracts": [],
      "isFixedGasLimit": false
    },
    {
      "hash": "0x45159ec08780dfd409e099ed1ecd37e99bf73a6c2add953ecd35ade53edbc937",
      "transactionType": "CALL",
      "contractName": null,
      "contractAddress": "0xcc2461b294f68e860b046038df8ad3a2a8c2fc51",
      "function": "setFeeMultiplier(uint8,uint256)",
      "arguments": [
        "18",
        "2"
      ],
      "transaction": {
        "from": "0xe62ab4d111f968660c6b2188046f9b9ba53c4bae",
        "to": "0xcc2461b294f68e860b046038df8ad3a2a8c2fc51",
        "gas": "0x11560",
        "value": "0x0",
        "input": "0x0ee24eb500000000000000000000000000000000000000000000000000000000000000120000000000000000000000000000000000000000000000000000000000000002",
        "nonce": "0x19f",
        "chainId": "0x13882"
      },
      "additionalContracts": [],
      "isFixedGasLimit": false
    },
    {
      "hash": "0xff1b436adc6c0f08dadf8d2e7292ba497e663bfb02511d27fbd683f29b2b1ffd",
      "transactionType": "CALL",
      "contractName": null,
      "contractAddress": "0xcc2461b294f68e860b046038df8ad3a2a8c2fc51",
      "function": "setFeeMultiplier(uint8,uint256)",
      "arguments": [
        "19",
        "2"
      ],
      "transaction": {
        "from": "0xe62ab4d111f968660c6b2188046f9b9ba53c4bae",
        "to": "0xcc2461b294f68e860b046038df8ad3a2a8c2fc51",
        "gas": "0x1157a",
        "value": "0x0",
        "input": "0x0ee24eb500000000000000000000000000000000000000000000000000000000000000130000000000000000000000000000000000000000000000000000000000000002",
        "nonce": "0x1a0",
        "chainId": "0x13882"
      },
      "additionalContracts": [],
      "isFixedGasLimit": false
    },
    {
      "hash": "0x87446ee4c64f65b34b7041267447f5113c104b0e31b9e072a74a596e15ed57aa",
      "transactionType": "CALL",
      "contractName": null,
      "contractAddress": "0xcc2461b294f68e860b046038df8ad3a2a8c2fc51",
      "function": "addFeeToken(string,string[],uint256[])",
      "arguments": [
        "421614",
        "[0x6a4dbc971533ba36bdc23ad70f5a7a12e064f4ae]",
        "[100]"
      ],
      "transaction": {
        "from": "0xe62ab4d111f968660c6b2188046f9b9ba53c4bae",
        "to": "0xcc2461b294f68e860b046038df8ad3a2a8c2fc51",
        "gas": "0x2f631",
        "value": "0x0",
        "input": "0x437bf84f000000000000000000000000000000000000000000000000000000000000006000000000000000000000000000000000000000000000000000000000000000a000000000000000000000000000000000000000000000000000000000000001400000000000000000000000000000000000000000000000000000000000000006343231363134000000000000000000000000000000000000000000000000000000000000000000000000000000000000000000000000000000000000000000010000000000000000000000000000000000000000000000000000000000000020000000000000000000000000000000000000000000000000000000000000002a3078366134646263393731353333626133366264633233616437306635613761313265303634663461650000000000000000000000000000000000000000000000000000000000000000000000000000000000000000000000000000000000010000000000000000000000000000000000000000000000000000000000000064",
        "nonce": "0x1a1",
        "chainId": "0x13882"
      },
      "additionalContracts": [],
      "isFixedGasLimit": false
    },
    {
      "hash": "0xddbce1e820dd3c05956909322abe4048def6e82be26d0391e3d07c7e8837d184",
      "transactionType": "CALL",
      "contractName": null,
      "contractAddress": "0xcc2461b294f68e860b046038df8ad3a2a8c2fc51",
      "function": "addFeeToken(string,string[],uint256[])",
      "arguments": [
        "80002",
        "[0x6a4dbc971533ba36bdc23ad70f5a7a12e064f4ae]",
        "[100]"
      ],
      "transaction": {
        "from": "0xe62ab4d111f968660c6b2188046f9b9ba53c4bae",
        "to": "0xcc2461b294f68e860b046038df8ad3a2a8c2fc51",
        "gas": "0x2a2a1",
        "value": "0x0",
        "input": "0x437bf84f000000000000000000000000000000000000000000000000000000000000006000000000000000000000000000000000000000000000000000000000000000a000000000000000000000000000000000000000000000000000000000000001400000000000000000000000000000000000000000000000000000000000000005383030303200000000000000000000000000000000000000000000000000000000000000000000000000000000000000000000000000000000000000000000010000000000000000000000000000000000000000000000000000000000000020000000000000000000000000000000000000000000000000000000000000002a3078366134646263393731353333626133366264633233616437306635613761313265303634663461650000000000000000000000000000000000000000000000000000000000000000000000000000000000000000000000000000000000010000000000000000000000000000000000000000000000000000000000000064",
        "nonce": "0x1a2",
        "chainId": "0x13882"
      },
      "additionalContracts": [],
      "isFixedGasLimit": false
    },
    {
      "hash": "0x637551f65f8e48d0a76ded934926bc8751c96f33da996e5747a57fb4013a09ec",
      "transactionType": "CALL",
      "contractName": null,
      "contractAddress": "0xcc2461b294f68e860b046038df8ad3a2a8c2fc51",
      "function": "addFeeToken(string,string[],uint256[])",
      "arguments": [
        "84532",
        "[0x6a4dbc971533ba36bdc23ad70f5a7a12e064f4ae]",
        "[100]"
      ],
      "transaction": {
        "from": "0xe62ab4d111f968660c6b2188046f9b9ba53c4bae",
        "to": "0xcc2461b294f68e860b046038df8ad3a2a8c2fc51",
        "gas": "0x2a2a1",
        "value": "0x0",
        "input": "0x437bf84f000000000000000000000000000000000000000000000000000000000000006000000000000000000000000000000000000000000000000000000000000000a000000000000000000000000000000000000000000000000000000000000001400000000000000000000000000000000000000000000000000000000000000005383435333200000000000000000000000000000000000000000000000000000000000000000000000000000000000000000000000000000000000000000000010000000000000000000000000000000000000000000000000000000000000020000000000000000000000000000000000000000000000000000000000000002a3078366134646263393731353333626133366264633233616437306635613761313265303634663461650000000000000000000000000000000000000000000000000000000000000000000000000000000000000000000000000000000000010000000000000000000000000000000000000000000000000000000000000064",
        "nonce": "0x1a3",
        "chainId": "0x13882"
      },
      "additionalContracts": [],
      "isFixedGasLimit": false
    },
    {
      "hash": "0x654d09003d38c5df71fa06a05fcaa250900c35fc9e70720e14a443309ccd716c",
      "transactionType": "CALL",
      "contractName": null,
      "contractAddress": "0xcc2461b294f68e860b046038df8ad3a2a8c2fc51",
      "function": "addFeeToken(string,string[],uint256[])",
      "arguments": [
        "97",
        "[0x6a4dbc971533ba36bdc23ad70f5a7a12e064f4ae]",
        "[100]"
      ],
      "transaction": {
        "from": "0xe62ab4d111f968660c6b2188046f9b9ba53c4bae",
        "to": "0xcc2461b294f68e860b046038df8ad3a2a8c2fc51",
        "gas": "0x29c5a",
        "value": "0x0",
        "input": "0x437bf84f000000000000000000000000000000000000000000000000000000000000006000000000000000000000000000000000000000000000000000000000000000a000000000000000000000000000000000000000000000000000000000000001400000000000000000000000000000000000000000000000000000000000000002393700000000000000000000000000000000000000000000000000000000000000000000000000000000000000000000000000000000000000000000000000010000000000000000000000000000000000000000000000000000000000000020000000000000000000000000000000000000000000000000000000000000002a3078366134646263393731353333626133366264633233616437306635613761313265303634663461650000000000000000000000000000000000000000000000000000000000000000000000000000000000000000000000000000000000010000000000000000000000000000000000000000000000000000000000000064",
        "nonce": "0x1a4",
        "chainId": "0x13882"
      },
      "additionalContracts": [],
      "isFixedGasLimit": false
    },
    {
      "hash": "0x152a6672c15cb5b6a40a597e0b2f3e07f1cca6294cbf84a5e59df3b0bce13bd8",
      "transactionType": "CALL",
      "contractName": null,
      "contractAddress": "0xcc2461b294f68e860b046038df8ad3a2a8c2fc51",
      "function": "addFeeToken(string,string[],uint256[])",
      "arguments": [
        "11155111",
        "[0x6a4dbc971533ba36bdc23ad70f5a7a12e064f4ae]",
        "[100]"
      ],
      "transaction": {
        "from": "0xe62ab4d111f968660c6b2188046f9b9ba53c4bae",
        "to": "0xcc2461b294f68e860b046038df8ad3a2a8c2fc51",
        "gas": "0x2a8e9",
        "value": "0x0",
        "input": "0x437bf84f000000000000000000000000000000000000000000000000000000000000006000000000000000000000000000000000000000000000000000000000000000a000000000000000000000000000000000000000000000000000000000000001400000000000000000000000000000000000000000000000000000000000000008313131353531313100000000000000000000000000000000000000000000000000000000000000000000000000000000000000000000000000000000000000010000000000000000000000000000000000000000000000000000000000000020000000000000000000000000000000000000000000000000000000000000002a3078366134646263393731353333626133366264633233616437306635613761313265303634663461650000000000000000000000000000000000000000000000000000000000000000000000000000000000000000000000000000000000010000000000000000000000000000000000000000000000000000000000000064",
        "nonce": "0x1a5",
        "chainId": "0x13882"
      },
      "additionalContracts": [],
      "isFixedGasLimit": false
    },
    {
      "hash": "0x8d0bcd226116072134059b1f636693708cb59f8a4e9f57d60b8fb9d7834c7c28",
      "transactionType": "CALL",
      "contractName": null,
      "contractAddress": "0x73a3ecd2fad26975d16b31e482eaf0f5152d420e",
      "function": "addChainContract(string[],string[])",
      "arguments": [
        "[421614, 84532, 97, 11155111]",
        "[0xd990ef52a6a375b19375b07cfc2aad2b592e66be, 0x497d31415cc6d20113d2f96c90c706b98701c1c9, 0x9b191600588b59e314d2927204c8edc57603d672, 0x3cb56e6e5917a2a8924bc2a5c1f0ecc90b585e74]"
      ],
      "transaction": {
        "from": "0xe62ab4d111f968660c6b2188046f9b9ba53c4bae",
        "to": "0x73a3ecd2fad26975d16b31e482eaf0f5152d420e",
        "gas": "0xaa1e6",
        "value": "0x0",
        "input": "0x013fd3bd000000000000000000000000000000000000000000000000000000000000004000000000000000000000000000000000000000000000000000000000000001e00000000000000000000000000000000000000000000000000000000000000004000000000000000000000000000000000000000000000000000000000000008000000000000000000000000000000000000000000000000000000000000000c000000000000000000000000000000000000000000000000000000000000001000000000000000000000000000000000000000000000000000000000000000140000000000000000000000000000000000000000000000000000000000000000634323136313400000000000000000000000000000000000000000000000000000000000000000000000000000000000000000000000000000000000000000005383435333200000000000000000000000000000000000000000000000000000000000000000000000000000000000000000000000000000000000000000000023937000000000000000000000000000000000000000000000000000000000000000000000000000000000000000000000000000000000000000000000000000831313135353131310000000000000000000000000000000000000000000000000000000000000000000000000000000000000000000000000000000000000004000000000000000000000000000000000000000000000000000000000000008000000000000000000000000000000000000000000000000000000000000000e0000000000000000000000000000000000000000000000000000000000000014000000000000000000000000000000000000000000000000000000000000001a0000000000000000000000000000000000000000000000000000000000000002a30786439393065663532613661333735623139333735623037636663326161643262353932653636626500000000000000000000000000000000000000000000000000000000000000000000000000000000000000000000000000000000002a30783439376433313431356363366432303131336432663936633930633730366239383730316331633900000000000000000000000000000000000000000000000000000000000000000000000000000000000000000000000000000000002a30783962313931363030353838623539653331346432393237323034633865646335373630336436373200000000000000000000000000000000000000000000000000000000000000000000000000000000000000000000000000000000002a30783363623536653665353931376132613839323462633261356331663065636339306235383565373400000000000000000000000000000000000000000000",
        "nonce": "0x1a6",
        "chainId": "0x13882"
      },
      "additionalContracts": [],
      "isFixedGasLimit": false
    },
    {
      "hash": "0x2c3a9c67df64d6bb554d9b01035d90459202a84404600e928b6050c3d533bcca",
      "transactionType": "CALL",
      "contractName": null,
      "contractAddress": "0x73a3ecd2fad26975d16b31e482eaf0f5152d420e",
      "function": "attachRWAX(uint256,uint256,string[],string[])",
      "arguments": [
        "1",
        "1",
        "[80002, 421614, 84532, 97, 11155111]",
        "[0x4da174a7024b242fb979d120ee63f1bf6aba3e07, 0x8bde23e16f4f9b19b3e11edcb65168e7f2720006, 0xbe87477fd18fbebd8cccdd003f6f66ffc4d49cd1, 0x730e8b2d89ba0d3403bb3d8c9929a9f0da61e051, 0x1f652e2d8a9fca346a0f45d59a67fb998999e454]"
      ],
      "transaction": {
        "from": "0xe62ab4d111f968660c6b2188046f9b9ba53c4bae",
        "to": "0x73a3ecd2fad26975d16b31e482eaf0f5152d420e",
        "gas": "0x1152fe",
        "value": "0x0",
        "input": "0x33a5f5b40000000000000000000000000000000000000000000000000000000000000001000000000000000000000000000000000000000000000000000000000000000100000000000000000000000000000000000000000000000000000000000000800000000000000000000000000000000000000000000000000000000000000280000000000000000000000000000000000000000000000000000000000000000500000000000000000000000000000000000000000000000000000000000000a000000000000000000000000000000000000000000000000000000000000000e00000000000000000000000000000000000000000000000000000000000000120000000000000000000000000000000000000000000000000000000000000016000000000000000000000000000000000000000000000000000000000000001a00000000000000000000000000000000000000000000000000000000000000005383030303200000000000000000000000000000000000000000000000000000000000000000000000000000000000000000000000000000000000000000000063432313631340000000000000000000000000000000000000000000000000000000000000000000000000000000000000000000000000000000000000000000538343533320000000000000000000000000000000000000000000000000000000000000000000000000000000000000000000000000000000000000000000002393700000000000000000000000000000000000000000000000000000000000000000000000000000000000000000000000000000000000000000000000000083131313535313131000000000000000000000000000000000000000000000000000000000000000000000000000000000000000000000000000000000000000500000000000000000000000000000000000000000000000000000000000000a00000000000000000000000000000000000000000000000000000000000000100000000000000000000000000000000000000000000000000000000000000016000000000000000000000000000000000000000000000000000000000000001c00000000000000000000000000000000000000000000000000000000000000220000000000000000000000000000000000000000000000000000000000000002a30783464613137346137303234623234326662393739643132306565363366316266366162613365303700000000000000000000000000000000000000000000000000000000000000000000000000000000000000000000000000000000002a30783862646532336531366634663962313962336531316564636236353136386537663237323030303600000000000000000000000000000000000000000000000000000000000000000000000000000000000000000000000000000000002a30786265383734373766643138666265626438636363646430303366366636366666633464343963643100000000000000000000000000000000000000000000000000000000000000000000000000000000000000000000000000000000002a30783733306538623264383962613064333430336262336438633939323961396630646136316530353100000000000000000000000000000000000000000000000000000000000000000000000000000000000000000000000000000000002a30783166363532653264386139666361333436613066343564353961363766623939383939396534353400000000000000000000000000000000000000000000",
        "nonce": "0x1a7",
        "chainId": "0x13882"
      },
      "additionalContracts": [],
      "isFixedGasLimit": false
    },
    {
      "hash": "0x456f5123d7df43d6fb3df7e2f742b1e3866636a1e325fd51754cba8cfe7e0ada",
      "transactionType": "CALL",
      "contractName": null,
      "contractAddress": "0x73a3ecd2fad26975d16b31e482eaf0f5152d420e",
      "function": "attachStorageManager(uint256,uint256,string[],string[])",
      "arguments": [
        "1",
        "1",
        "[80002, 421614, 84532, 97, 11155111]",
        "[0xb07c3788549cd48ad1d4cb9b7336f7c9dd53d67f, 0xf4e9dc949ca6eb2bbafa1e887017e91e523c1bc8, 0x2c4be93acd346ca06363b37a06beb9d693d02dac, 0xc653cd79f70165005319ef97ad1229ac7f88a25d, 0xa33cfd901896c775c5a6d62e94081b4fdd1b09bc]"
      ],
      "transaction": {
        "from": "0xe62ab4d111f968660c6b2188046f9b9ba53c4bae",
        "to": "0x73a3ecd2fad26975d16b31e482eaf0f5152d420e",
        "gas": "0xe4201",
        "value": "0x0",
        "input": "0x2f68b4890000000000000000000000000000000000000000000000000000000000000001000000000000000000000000000000000000000000000000000000000000000100000000000000000000000000000000000000000000000000000000000000800000000000000000000000000000000000000000000000000000000000000280000000000000000000000000000000000000000000000000000000000000000500000000000000000000000000000000000000000000000000000000000000a000000000000000000000000000000000000000000000000000000000000000e00000000000000000000000000000000000000000000000000000000000000120000000000000000000000000000000000000000000000000000000000000016000000000000000000000000000000000000000000000000000000000000001a00000000000000000000000000000000000000000000000000000000000000005383030303200000000000000000000000000000000000000000000000000000000000000000000000000000000000000000000000000000000000000000000063432313631340000000000000000000000000000000000000000000000000000000000000000000000000000000000000000000000000000000000000000000538343533320000000000000000000000000000000000000000000000000000000000000000000000000000000000000000000000000000000000000000000002393700000000000000000000000000000000000000000000000000000000000000000000000000000000000000000000000000000000000000000000000000083131313535313131000000000000000000000000000000000000000000000000000000000000000000000000000000000000000000000000000000000000000500000000000000000000000000000000000000000000000000000000000000a00000000000000000000000000000000000000000000000000000000000000100000000000000000000000000000000000000000000000000000000000000016000000000000000000000000000000000000000000000000000000000000001c00000000000000000000000000000000000000000000000000000000000000220000000000000000000000000000000000000000000000000000000000000002a30786230376333373838353439636434386164316434636239623733333666376339646435336436376600000000000000000000000000000000000000000000000000000000000000000000000000000000000000000000000000000000002a30786634653964633934396361366562326262616661316538383730313765393165353233633162633800000000000000000000000000000000000000000000000000000000000000000000000000000000000000000000000000000000002a30783263346265393361636433343663613036333633623337613036626562396436393364303264616300000000000000000000000000000000000000000000000000000000000000000000000000000000000000000000000000000000002a30786336353363643739663730313635303035333139656639376164313232396163376638386132356400000000000000000000000000000000000000000000000000000000000000000000000000000000000000000000000000000000002a30786133336366643930313839366337373563356136643632653934303831623466646431623039626300000000000000000000000000000000000000000000",
        "nonce": "0x1a8",
        "chainId": "0x13882"
      },
      "additionalContracts": [],
      "isFixedGasLimit": false
    }
  ],
  "receipts": [
    {
      "status": "0x1",
      "cumulativeGasUsed": "0x1210c",
      "logs": [
        {
          "address": "0x0000000000000000000000000000000000001010",
          "topics": [
            "0x4dfe1bbbcf077ddc3e01291eea2d5c70c2b422b415d95645b9adcfd678cb1d63",
            "0x0000000000000000000000000000000000000000000000000000000000001010",
            "0x000000000000000000000000e62ab4d111f968660c6b2188046f9b9ba53c4bae",
            "0x0000000000000000000000006ab3d36c46ecfb9b9c0bd51cb1c3da5a2c81cea6"
          ],
          "data": "0x00000000000000000000000000000000000000000000000000030913467f2be0000000000000000000000000000000000000000000000001fc34809ef9ebad650000000000000000000000000000000000000000000003dfbf02a530739cda66000000000000000000000000000000000000000000000001fc31778bb36c81850000000000000000000000000000000000000000000003dfbf05ae43ba1c0646",
          "blockHash": "0xe44a54483e3cf46a4f44b64e661213ecbb413eac43f7a8d5d13edb490bdf3ace",
          "blockNumber": "0xe4475b",
          "transactionHash": "0xf619bc6a7d75128f21b20b2b2577f0fc85ddbaad8ddfa4621f8d13c05ec6c62a",
          "transactionIndex": "0x1",
          "logIndex": "0x3",
          "removed": false
        }
      ],
      "logsBloom": "0x20000000080000000004000000000000000000000000000000000000000000000000000000000000000000000000000000008000000000000000000000000000000000080000000000000000000000800000000000000000000100000000000000000000000000000000000000000000000000000000000080000000000000000000000000000000000000000000040000000000000000000000000000000000200000000000000000000000000000000000000000000000000000000000004000000000000000000001000000000000000000010000000000100000000000000000000000000000000000000000000000000000000000000000000000100000",
      "type": "0x2",
      "transactionHash": "0xf619bc6a7d75128f21b20b2b2577f0fc85ddbaad8ddfa4621f8d13c05ec6c62a",
      "transactionIndex": "0x1",
      "blockHash": "0xe44a54483e3cf46a4f44b64e661213ecbb413eac43f7a8d5d13edb490bdf3ace",
      "blockNumber": "0xe4475b",
      "gasUsed": "0x5eb3",
      "effectiveGasPrice": "0x834aa14af",
      "from": "0xe62ab4d111f968660c6b2188046f9b9ba53c4bae",
      "to": "0xcc2461b294f68e860b046038df8ad3a2a8c2fc51",
      "contractAddress": null
    },
    {
      "status": "0x1",
      "cumulativeGasUsed": "0x1bf00",
      "logs": [
        {
          "address": "0xcc2461b294f68e860b046038df8ad3a2a8c2fc51",
          "topics": [
            "0x1394cfab38f3fc78ed77ea6f9318782a446d96e7dc8e9a6b0149f6be25c08bcf",
            "0x0000000000000000000000006a4dbc971533ba36bdc23ad70f5a7a12e064f4ae"
          ],
          "data": "0x",
          "blockHash": "0xf19db5cb0a0ab212fbd7fa78996257df8567887a078d248d6823e8d101aaa04a",
          "blockNumber": "0xe4475f",
          "transactionHash": "0xf86fc119b8a461474c8e1dfb526bb344298bb5b2774a28c79ca111346346a7d3",
          "transactionIndex": "0x0",
          "logIndex": "0x0",
          "removed": false
        },
        {
          "address": "0x0000000000000000000000000000000000001010",
          "topics": [
            "0x4dfe1bbbcf077ddc3e01291eea2d5c70c2b422b415d95645b9adcfd678cb1d63",
            "0x0000000000000000000000000000000000000000000000000000000000001010",
            "0x000000000000000000000000e62ab4d111f968660c6b2188046f9b9ba53c4bae",
            "0x0000000000000000000000006ab3d36c46ecfb9b9c0bd51cb1c3da5a2c81cea6"
          ],
          "data": "0x000000000000000000000000000000000000000000000000000e53f4fa036000000000000000000000000000000000000000000000000001fc31778bb366f5080000000000000000000000000000000000000000000003dfbf1ca25bc970160f000000000000000000000000000000000000000000000001fc232396b96395080000000000000000000000000000000000000000000003dfbf2af650c373760f",
          "blockHash": "0xf19db5cb0a0ab212fbd7fa78996257df8567887a078d248d6823e8d101aaa04a",
          "blockNumber": "0xe4475f",
          "transactionHash": "0xf86fc119b8a461474c8e1dfb526bb344298bb5b2774a28c79ca111346346a7d3",
          "transactionIndex": "0x0",
          "logIndex": "0x1",
          "removed": false
        }
      ],
      "logsBloom": "0x20000000080000000004000000000000000200000000000000000000000000000000000000000000000000000000000000008000000000001000000000000000000000080000000000000000000000800000001000000000000100000000000000000000000000000000000000000000000000000000000080000000000000000000000100000000000000000000040000000000000000000000000000080000200000000000000000000000000000000000000100000000004002000000004000000000000000000001000000000000000000012000000000100000000000000000000000000000000000000000000000000000000000000000000000100000",
      "type": "0x2",
      "transactionHash": "0xf86fc119b8a461474c8e1dfb526bb344298bb5b2774a28c79ca111346346a7d3",
      "transactionIndex": "0x0",
      "blockHash": "0xf19db5cb0a0ab212fbd7fa78996257df8567887a078d248d6823e8d101aaa04a",
      "blockNumber": "0xe4475f",
      "gasUsed": "0x1bf00",
      "effectiveGasPrice": "0x834aa14af",
      "from": "0xe62ab4d111f968660c6b2188046f9b9ba53c4bae",
      "to": "0xcc2461b294f68e860b046038df8ad3a2a8c2fc51",
      "contractAddress": null
    },
    {
      "status": "0x1",
      "cumulativeGasUsed": "0xbbf9",
      "logs": [
        {
          "address": "0x0000000000000000000000000000000000001010",
          "topics": [
            "0x4dfe1bbbcf077ddc3e01291eea2d5c70c2b422b415d95645b9adcfd678cb1d63",
            "0x0000000000000000000000000000000000000000000000000000000000001010",
            "0x000000000000000000000000e62ab4d111f968660c6b2188046f9b9ba53c4bae",
            "0x00000000000000000000000009207a6efee346cb3e4a54ac18523e3715d38b3f"
          ],
          "data": "0x00000000000000000000000000000000000000000000000000060673767eefa0000000000000000000000000000000000000000000000001fc232396b94964080000000000000000000000000000000000000000000003f4d295d28e0315e3ac000000000000000000000000000000000000000000000001fc1d1d2342ca74680000000000000000000000000000000000000000000003f4d29bd9017994d34c",
          "blockHash": "0x04ebd7ccc7d03fb88af795066a1dd1a2080b371fc0e82be2a00e2085ccbb2799",
          "blockNumber": "0xe44762",
          "transactionHash": "0x977e4c154b04505d6e87803bb8a47eb2ea90d64c958af99f8ff982d7f1a33912",
          "transactionIndex": "0x0",
          "logIndex": "0x0",
          "removed": false
        }
      ],
      "logsBloom": "0x20000000000000000004000000000000000000000000000000000000000000000000000000000000000000000000000000008000000000000000010000000000000000000000000000000000000000800000000000000000000100000000000000000000000000000000000000000000000000000000000080000000000000000000000000000000000000000000040000004000000000000000000000000000200000000000000000000000000000000000000000000000000000000000004000000000000000000001000000000000000000000000000000100000000000000000000000000000000000010000000000000000000000000000000000100000",
      "type": "0x2",
      "transactionHash": "0x977e4c154b04505d6e87803bb8a47eb2ea90d64c958af99f8ff982d7f1a33912",
      "transactionIndex": "0x0",
      "blockHash": "0x04ebd7ccc7d03fb88af795066a1dd1a2080b371fc0e82be2a00e2085ccbb2799",
      "blockNumber": "0xe44762",
      "gasUsed": "0xbbf9",
      "effectiveGasPrice": "0x834aa14af",
      "from": "0xe62ab4d111f968660c6b2188046f9b9ba53c4bae",
      "to": "0xcc2461b294f68e860b046038df8ad3a2a8c2fc51",
      "contractAddress": null
    },
    {
      "status": "0x1",
      "cumulativeGasUsed": "0x17bef",
      "logs": [
        {
          "address": "0x0000000000000000000000000000000000001010",
          "topics": [
            "0x4dfe1bbbcf077ddc3e01291eea2d5c70c2b422b415d95645b9adcfd678cb1d63",
            "0x0000000000000000000000000000000000000000000000000000000000001010",
            "0x000000000000000000000000e62ab4d111f968660c6b2188046f9b9ba53c4bae",
            "0x00000000000000000000000009207a6efee346cb3e4a54ac18523e3715d38b3f"
          ],
          "data": "0x000000000000000000000000000000000000000000000000000607c3e5bc3d40000000000000000000000000000000000000000000000001fc1d1d2342bf70d10000000000000000000000000000000000000000000003f4d2adf5824be020d0000000000000000000000000000000000000000000000001fc17155f5d0333910000000000000000000000000000000000000000000003f4d2b3fd46319c5e10",
          "blockHash": "0x5fceb043990545eb166966354203559b6f7193f4b51d8697f52faaef0b5b3cb2",
          "blockNumber": "0xe44765",
          "transactionHash": "0x844318b6e77b4b0aef2e32b9f48caee9bfb3b05a4e3f67a6cfabc4fdbc68b705",
          "transactionIndex": "0x1",
          "logIndex": "0x2",
          "removed": false
        }
      ],
      "logsBloom": "0x20000000000000000004000000000000000000000000000000000000000000000000000000000000000000000000000000008000000000000000010000000000000000000000000000000000000000800000000000000000000100000000000000000000000000000000000000000000000000000000000080000000000000000000000000000000000000000000040000004000000000000000000000000000200000000000000000000000000000000000000000000000000000000000004000000000000000000001000000000000000000000000000000100000000000000000000000000000000000010000000000000000000000000000000000100000",
      "type": "0x2",
      "transactionHash": "0x844318b6e77b4b0aef2e32b9f48caee9bfb3b05a4e3f67a6cfabc4fdbc68b705",
      "transactionIndex": "0x1",
      "blockHash": "0x5fceb043990545eb166966354203559b6f7193f4b51d8697f52faaef0b5b3cb2",
      "blockNumber": "0xe44765",
      "gasUsed": "0xbc22",
      "effectiveGasPrice": "0x834aa14af",
      "from": "0xe62ab4d111f968660c6b2188046f9b9ba53c4bae",
      "to": "0xcc2461b294f68e860b046038df8ad3a2a8c2fc51",
      "contractAddress": null
    },
    {
      "status": "0x1",
      "cumulativeGasUsed": "0xbc39",
      "logs": [
        {
          "address": "0x0000000000000000000000000000000000001010",
          "topics": [
            "0x4dfe1bbbcf077ddc3e01291eea2d5c70c2b422b415d95645b9adcfd678cb1d63",
            "0x0000000000000000000000000000000000000000000000000000000000001010",
            "0x000000000000000000000000e62ab4d111f968660c6b2188046f9b9ba53c4bae",
            "0x00000000000000000000000009207a6efee346cb3e4a54ac18523e3715d38b3f"
          ],
          "data": "0x00000000000000000000000000000000000000000000000000060880a10417a0000000000000000000000000000000000000000000000001fc17155f5cf82d930000000000000000000000000000000000000000000003f4d2e6140c53c90110000000000000000000000000000000000000000000000001fc110cdebbf415f30000000000000000000000000000000000000000000003f4d2ec1c8cf4cd18b0",
          "blockHash": "0xaca1a038704a5086e4945463189af940b9aa3d3b3269f0db6e65ab11eb78b8bc",
          "blockNumber": "0xe44769",
          "transactionHash": "0x799d17991d35dd15e8153db86a210099601aa26edb6b503b9e3978b245b27c6e",
          "transactionIndex": "0x0",
          "logIndex": "0x0",
          "removed": false
        }
      ],
      "logsBloom": "0x20000000000000000004000000000000000000000000000000000000000000000000000000000000000000000000000000008000000000000000010000000000000000000000000000000000000000800000000000000000000100000000000000000000000000000000000000000000000000000000000080000000000000000000000000000000000000000000040000004000000000000000000000000000200000000000000000000000000000000000000000000000000000000000004000000000000000000001000000000000000000000000000000100000000000000000000000000000000000010000000000000000000000000000000000100000",
      "type": "0x2",
      "transactionHash": "0x799d17991d35dd15e8153db86a210099601aa26edb6b503b9e3978b245b27c6e",
      "transactionIndex": "0x0",
      "blockHash": "0xaca1a038704a5086e4945463189af940b9aa3d3b3269f0db6e65ab11eb78b8bc",
      "blockNumber": "0xe44769",
      "gasUsed": "0xbc39",
      "effectiveGasPrice": "0x834aa14af",
      "from": "0xe62ab4d111f968660c6b2188046f9b9ba53c4bae",
      "to": "0xcc2461b294f68e860b046038df8ad3a2a8c2fc51",
      "contractAddress": null
    },
    {
      "status": "0x1",
      "cumulativeGasUsed": "0x2f908",
      "logs": [
        {
          "address": "0x0000000000000000000000000000000000001010",
          "topics": [
            "0x4dfe1bbbcf077ddc3e01291eea2d5c70c2b422b415d95645b9adcfd678cb1d63",
            "0x0000000000000000000000000000000000000000000000000000000000001010",
            "0x000000000000000000000000e62ab4d111f968660c6b2188046f9b9ba53c4bae",
            "0x00000000000000000000000009207a6efee346cb3e4a54ac18523e3715d38b3f"
          ],
          "data": "0x0000000000000000000000000000000000000000000000000006093d5c4bf200000000000000000000000000000000000000000000000001fc110cdebbe90e9c0000000000000000000000000000000000000000000003f4d3079ac13b6fd884000000000000000000000000000000000000000000000001fc0b03a15f9d1c9c0000000000000000000000000000000000000000000003f4d30da3fe97bbca84",
          "blockHash": "0x01513ef37923a1e589c0cfd251cdb5ac8ff29d4e3a4c4e66b2328184bb8f84d6",
          "blockNumber": "0xe4476d",
          "transactionHash": "0xddab745d2f1695cd282e9b8f3ac680e5b2c05bd0f91adbe8db876a8d94bc45e0",
          "transactionIndex": "0x2",
          "logIndex": "0x5",
          "removed": false
        }
      ],
      "logsBloom": "0x20000000000000000004000000000000000000000000000000000000000000000000000000000000000000000000000000008000000000000000010000000000000000000000000000000000000000800000000000000000000100000000000000000000000000000000000000000000000000000000000080000000000000000000000000000000000000000000040000004000000000000000000000000000200000000000000000000000000000000000000000000000000000000000004000000000000000000001000000000000000000000000000000100000000000000000000000000000000000010000000000000000000000000000000000100000",
      "type": "0x2",
      "transactionHash": "0xddab745d2f1695cd282e9b8f3ac680e5b2c05bd0f91adbe8db876a8d94bc45e0",
      "transactionIndex": "0x2",
      "blockHash": "0x01513ef37923a1e589c0cfd251cdb5ac8ff29d4e3a4c4e66b2328184bb8f84d6",
      "blockNumber": "0xe4476d",
      "gasUsed": "0xbc50",
      "effectiveGasPrice": "0x834aa14af",
      "from": "0xe62ab4d111f968660c6b2188046f9b9ba53c4bae",
      "to": "0xcc2461b294f68e860b046038df8ad3a2a8c2fc51",
      "contractAddress": null
    },
    {
      "status": "0x1",
      "cumulativeGasUsed": "0x4a547",
      "logs": [
        {
          "address": "0x0000000000000000000000000000000000001010",
          "topics": [
            "0x4dfe1bbbcf077ddc3e01291eea2d5c70c2b422b415d95645b9adcfd678cb1d63",
            "0x0000000000000000000000000000000000000000000000000000000000001010",
            "0x000000000000000000000000e62ab4d111f968660c6b2188046f9b9ba53c4bae",
            "0x0000000000000000000000006ab3d36c46ecfb9b9c0bd51cb1c3da5a2c81cea6"
          ],
          "data": "0x000000000000000000000000000000000000000000000000000609fa1793cc60000000000000000000000000000000000000000000000001fc0b03a15f9213ec0000000000000000000000000000000000000000000003dfbf50b4f1db4ee20c000000000000000000000000000000000000000000000001fc04f9a747fe478c0000000000000000000000000000000000000000000003dfbf56beebf2e2ae6c",
          "blockHash": "0x0338ce5cf31015cd80f02bb1ef7ae43a35b196fdd87376a6cf8b5ea2b7be4c84",
          "blockNumber": "0xe44770",
          "transactionHash": "0x0a4bc5d69cbb71820adfda6be2c34061e5f9d6f2352cdae981f5a8ff6e7e56e8",
          "transactionIndex": "0x3",
          "logIndex": "0xa",
          "removed": false
        }
      ],
      "logsBloom": "0x20000000080000000004000000000000000000000000000000000000000000000000000000000000000000000000000000008000000000000000000000000000000000080000000000000000000000800000000000000000000100000000000000000000000000000000000000000000000000000000000080000000000000000000000000000000000000000000040000000000000000000000000000000000200000000000000000000000000000000000000000000000000000000000004000000000000000000001000000000000000000010000000000100000000000000000000000000000000000000000000000000000000000000000000000100000",
      "type": "0x2",
      "transactionHash": "0x0a4bc5d69cbb71820adfda6be2c34061e5f9d6f2352cdae981f5a8ff6e7e56e8",
      "transactionIndex": "0x3",
      "blockHash": "0x0338ce5cf31015cd80f02bb1ef7ae43a35b196fdd87376a6cf8b5ea2b7be4c84",
      "blockNumber": "0xe44770",
      "gasUsed": "0xbc67",
      "effectiveGasPrice": "0x834aa14af",
      "from": "0xe62ab4d111f968660c6b2188046f9b9ba53c4bae",
      "to": "0xcc2461b294f68e860b046038df8ad3a2a8c2fc51",
      "contractAddress": null
    },
    {
      "status": "0x1",
      "cumulativeGasUsed": "0x17ed7",
      "logs": [
        {
          "address": "0x0000000000000000000000000000000000001010",
          "topics": [
            "0x4dfe1bbbcf077ddc3e01291eea2d5c70c2b422b415d95645b9adcfd678cb1d63",
            "0x0000000000000000000000000000000000000000000000000000000000001010",
            "0x000000000000000000000000e62ab4d111f968660c6b2188046f9b9ba53c4bae",
            "0x0000000000000000000000006ab3d36c46ecfb9b9c0bd51cb1c3da5a2c81cea6"
          ],
          "data": "0x00000000000000000000000000000000000000000000000000060ab6d2dba6c0000000000000000000000000000000000000000000000001fc04f9a747f33d830000000000000000000000000000000000000000000003dfbf5f956d1976026c000000000000000000000000000000000000000000000001fbfeeef0751796c30000000000000000000000000000000000000000000003dfbf65a023ec51a92c",
          "blockHash": "0x220804c6e55826cfe1eb0ba8ddc6e882edf1a10a1824398dcf344a346bc28dea",
          "blockNumber": "0xe44773",
          "transactionHash": "0xb526891e284ca5a2e1792301943144a2a7bc92aae1dfeaa8c51bfd425bd69ac3",
          "transactionIndex": "0x1",
          "logIndex": "0x3",
          "removed": false
        }
      ],
      "logsBloom": "0x20000000080000000004000000000000000000000000000000000000000000000000000000000000000000000000000000008000000000000000000000000000000000080000000000000000000000800000000000000000000100000000000000000000000000000000000000000000000000000000000080000000000000000000000000000000000000000000040000000000000000000000000000000000200000000000000000000000000000000000000000000000000000000000004000000000000000000001000000000000000000010000000000100000000000000000000000000000000000000000000000000000000000000000000000100000",
      "type": "0x2",
      "transactionHash": "0xb526891e284ca5a2e1792301943144a2a7bc92aae1dfeaa8c51bfd425bd69ac3",
      "transactionIndex": "0x1",
      "blockHash": "0x220804c6e55826cfe1eb0ba8ddc6e882edf1a10a1824398dcf344a346bc28dea",
      "blockNumber": "0xe44773",
      "gasUsed": "0xbc7e",
      "effectiveGasPrice": "0x834aa14af",
      "from": "0xe62ab4d111f968660c6b2188046f9b9ba53c4bae",
      "to": "0xcc2461b294f68e860b046038df8ad3a2a8c2fc51",
      "contractAddress": null
    },
    {
      "status": "0x1",
      "cumulativeGasUsed": "0x1e939",
      "logs": [
        {
          "address": "0x0000000000000000000000000000000000001010",
          "topics": [
            "0x4dfe1bbbcf077ddc3e01291eea2d5c70c2b422b415d95645b9adcfd678cb1d63",
            "0x0000000000000000000000000000000000000000000000000000000000001010",
            "0x000000000000000000000000e62ab4d111f968660c6b2188046f9b9ba53c4bae",
            "0x0000000000000000000000006ab3d36c46ecfb9b9c0bd51cb1c3da5a2c81cea6"
          ],
          "data": "0x00000000000000000000000000000000000000000000000000060b738e238120000000000000000000000000000000000000000000000001fbfeeef0750c8b610000000000000000000000000000000000000000000003dfbf82178dce6d8360000000000000000000000000000000000000000000000001fbf8e37ce6e90a410000000000000000000000000000000000000000000003dfbf8823015c910480",
          "blockHash": "0x64249d9cbfc5697ca298571f408ec9fd600e6b1a898dec66029c2406315da694",
          "blockNumber": "0xe44776",
          "transactionHash": "0x32dfc35808db83f337c98f810e8b934b3b9fc9fcdb1cdf0f88556c65e45fed8c",
          "transactionIndex": "0x1",
          "logIndex": "0x2",
          "removed": false
        }
      ],
      "logsBloom": "0x20000000080000000004000000000000000000000000000000000000000000000000000000000000000000000000000000008000000000000000000000000000000000080000000000000000000000800000000000000000000100000000000000000000000000000000000000000000000000000000000080000000000000000000000000000000000000000000040000000000000000000000000000000000200000000000000000000000000000000000000000000000000000000000004000000000000000000001000000000000000000010000000000100000000000000000000000000000000000000000000000000000000000000000000000100000",
      "type": "0x2",
      "transactionHash": "0x32dfc35808db83f337c98f810e8b934b3b9fc9fcdb1cdf0f88556c65e45fed8c",
      "transactionIndex": "0x1",
      "blockHash": "0x64249d9cbfc5697ca298571f408ec9fd600e6b1a898dec66029c2406315da694",
      "blockNumber": "0xe44776",
      "gasUsed": "0xbc95",
      "effectiveGasPrice": "0x834aa14af",
      "from": "0xe62ab4d111f968660c6b2188046f9b9ba53c4bae",
      "to": "0xcc2461b294f68e860b046038df8ad3a2a8c2fc51",
      "contractAddress": null
    },
    {
      "status": "0x1",
      "cumulativeGasUsed": "0x1742c",
      "logs": [
        {
          "address": "0x0000000000000000000000000000000000001010",
          "topics": [
            "0x4dfe1bbbcf077ddc3e01291eea2d5c70c2b422b415d95645b9adcfd678cb1d63",
            "0x0000000000000000000000000000000000000000000000000000000000001010",
            "0x000000000000000000000000e62ab4d111f968660c6b2188046f9b9ba53c4bae",
            "0x0000000000000000000000006ab3d36c46ecfb9b9c0bd51cb1c3da5a2c81cea6"
          ],
          "data": "0x00000000000000000000000000000000000000000000000000060c30496b5b80000000000000000000000000000000000000000000000001fbf8e37ce6ddfd860000000000000000000000000000000000000000000003dfbfa0392383b2f12c000000000000000000000000000000000000000000000001fbf2d74c9d72a2060000000000000000000000000000000000000000000003dfbfa64553cd1e4cac",
          "blockHash": "0x0d11c564567cff3e78386b6cac6f086aac3a4ae59d744e2645c2954d6bab176b",
          "blockNumber": "0xe4477a",
          "transactionHash": "0xa0f2d8b599c531fd78dd1a5fd84b07861d334670f197f66a676ea57022b72f78",
          "transactionIndex": "0x1",
          "logIndex": "0x2",
          "removed": false
        }
      ],
      "logsBloom": "0x20000000080000000004000000000000000000000000000000000000000000000000000000000000000000000000000000008000000000000000000000000000000000080000000000000000000000800000000000000000000100000000000000000000000000000000000000000000000000000000000080000000000000000000000000000000000000000000040000000000000000000000000000000000200000000000000000000000000000000000000000000000000000000000004000000000000000000001000000000000000000010000000000100000000000000000000000000000000000000000000000000000000000000000000000100000",
      "type": "0x2",
      "transactionHash": "0xa0f2d8b599c531fd78dd1a5fd84b07861d334670f197f66a676ea57022b72f78",
      "transactionIndex": "0x1",
      "blockHash": "0x0d11c564567cff3e78386b6cac6f086aac3a4ae59d744e2645c2954d6bab176b",
      "blockNumber": "0xe4477a",
      "gasUsed": "0xbcac",
      "effectiveGasPrice": "0x834aa14af",
      "from": "0xe62ab4d111f968660c6b2188046f9b9ba53c4bae",
      "to": "0xcc2461b294f68e860b046038df8ad3a2a8c2fc51",
      "contractAddress": null
    },
    {
      "status": "0x1",
      "cumulativeGasUsed": "0x215c9",
      "logs": [
        {
          "address": "0x0000000000000000000000000000000000001010",
          "topics": [
            "0x4dfe1bbbcf077ddc3e01291eea2d5c70c2b422b415d95645b9adcfd678cb1d63",
            "0x0000000000000000000000000000000000000000000000000000000000001010",
            "0x000000000000000000000000e62ab4d111f968660c6b2188046f9b9ba53c4bae",
            "0x0000000000000000000000006ab3d36c46ecfb9b9c0bd51cb1c3da5a2c81cea6"
          ],
          "data": "0x00000000000000000000000000000000000000000000000000060ced04b335e0000000000000000000000000000000000000000000000001fbf2d74c9d6793f20000000000000000000000000000000000000000000003dfbfcfbb971786d20e000000000000000000000000000000000000000000000001fbecca5f98b45e120000000000000000000000000000000000000000000003dfbfd5c8841c3a07ee",
          "blockHash": "0x703effb50de94ab8255a275f1e8361efaeefc01c152c3c5a5683f4a93430a4e2",
          "blockNumber": "0xe4477e",
          "transactionHash": "0x2a840bb7210dedde8ecfea3593eaa367a2f4e4faca229cefe6b9a815233e46f7",
          "transactionIndex": "0x2",
          "logIndex": "0x3",
          "removed": false
        }
      ],
      "logsBloom": "0x20000000080000000004000000000000000000000000000000000000000000000000000000000000000000000000000000008000000000000000000000000000000000080000000000000000000000800000000000000000000100000000000000000000000000000000000000000000000000000000000080000000000000000000000000000000000000000000040000000000000000000000000000000000200000000000000000000000000000000000000000000000000000000000004000000000000000000001000000000000000000010000000000100000000000000000000000000000000000000000000000000000000000000000000000100000",
      "type": "0x2",
      "transactionHash": "0x2a840bb7210dedde8ecfea3593eaa367a2f4e4faca229cefe6b9a815233e46f7",
      "transactionIndex": "0x2",
      "blockHash": "0x703effb50de94ab8255a275f1e8361efaeefc01c152c3c5a5683f4a93430a4e2",
      "blockNumber": "0xe4477e",
      "gasUsed": "0xbcc3",
      "effectiveGasPrice": "0x834aa14af",
      "from": "0xe62ab4d111f968660c6b2188046f9b9ba53c4bae",
      "to": "0xcc2461b294f68e860b046038df8ad3a2a8c2fc51",
      "contractAddress": null
    },
    {
      "status": "0x1",
      "cumulativeGasUsed": "0x34efe",
      "logs": [
        {
          "address": "0x0000000000000000000000000000000000001010",
          "topics": [
            "0x4dfe1bbbcf077ddc3e01291eea2d5c70c2b422b415d95645b9adcfd678cb1d63",
            "0x0000000000000000000000000000000000000000000000000000000000001010",
            "0x000000000000000000000000e62ab4d111f968660c6b2188046f9b9ba53c4bae",
            "0x0000000000000000000000006dc2dd54f24979ec26212794c71afefed722280c"
          ],
          "data": "0x00000000000000000000000000000000000000000000000000060da9bffb1040000000000000000000000000000000000000000000000001fbecca5f98a94ea5000000000000000000000000000000000000000000000439c31505aac03d9289000000000000000000000000000000000000000000000001fbe6bcb5d8ae3e65000000000000000000000000000000000000000000000439c31b13548038a2c9",
          "blockHash": "0x2b5f52cf64ca812b02a5720cef542d41eddb96fbdaaf2821ae76b0c6b4ed41b3",
          "blockNumber": "0xe44781",
          "transactionHash": "0x89f4dd7221f3d12730c5bccb15d9e553d77965240b698a9280ee069504b2c46b",
          "transactionIndex": "0x1",
          "logIndex": "0x2",
          "removed": false
        }
      ],
      "logsBloom": "0x20000000000000000004000000000000000000000000000000000000000000000000000000000000000000000000000000008000000000000000000000000000000000000000000000000000000000800000000000000000000100080000000000000000000000000000000000000000000000000000000080000000000000020000000000000000000000000040040000000000000000000000000000000000200000000000000000000000000000000000000000000000000000000000004000000000000000000001000000000000000000000000000000100000000000000000000000000000000000000000000000000000000000000000000000100000",
      "type": "0x2",
      "transactionHash": "0x89f4dd7221f3d12730c5bccb15d9e553d77965240b698a9280ee069504b2c46b",
      "transactionIndex": "0x1",
      "blockHash": "0x2b5f52cf64ca812b02a5720cef542d41eddb96fbdaaf2821ae76b0c6b4ed41b3",
      "blockNumber": "0xe44781",
      "gasUsed": "0xbcda",
      "effectiveGasPrice": "0x834aa14af",
      "from": "0xe62ab4d111f968660c6b2188046f9b9ba53c4bae",
      "to": "0xcc2461b294f68e860b046038df8ad3a2a8c2fc51",
      "contractAddress": null
    },
    {
      "status": "0x1",
      "cumulativeGasUsed": "0xbcf1",
      "logs": [
        {
          "address": "0x0000000000000000000000000000000000001010",
          "topics": [
            "0x4dfe1bbbcf077ddc3e01291eea2d5c70c2b422b415d95645b9adcfd678cb1d63",
            "0x0000000000000000000000000000000000000000000000000000000000001010",
            "0x000000000000000000000000e62ab4d111f968660c6b2188046f9b9ba53c4bae",
            "0x0000000000000000000000006dc2dd54f24979ec26212794c71afefed722280c"
          ],
          "data": "0x00000000000000000000000000000000000000000000000000060e667b42eaa0000000000000000000000000000000000000000000000001fbe6bcb5d8a32d9f000000000000000000000000000000000000000000000439c31df9bf1a516951000000000000000000000000000000000000000000000001fbe0ae4f5d6042ff000000000000000000000000000000000000000000000439c3240825959453f1",
          "blockHash": "0x5452235cc7d9f951af5078e185b48bce2137a0dbb655110843336a73ee7a44c5",
          "blockNumber": "0xe44784",
          "transactionHash": "0xf66e754fa75c9a1404748dc626c90561dd1c4ea9c78bc69b3cf2e7b0098195ec",
          "transactionIndex": "0x0",
          "logIndex": "0x0",
          "removed": false
        }
      ],
      "logsBloom": "0x20000000000000000004000000000000000000000000000000000000000000000000000000000000000000000000000000008000000000000000000000000000000000000000000000000000000000800000000000000000000100080000000000000000000000000000000000000000000000000000000080000000000000020000000000000000000000000040040000000000000000000000000000000000200000000000000000000000000000000000000000000000000000000000004000000000000000000001000000000000000000000000000000100000000000000000000000000000000000000000000000000000000000000000000000100000",
      "type": "0x2",
      "transactionHash": "0xf66e754fa75c9a1404748dc626c90561dd1c4ea9c78bc69b3cf2e7b0098195ec",
      "transactionIndex": "0x0",
      "blockHash": "0x5452235cc7d9f951af5078e185b48bce2137a0dbb655110843336a73ee7a44c5",
      "blockNumber": "0xe44784",
      "gasUsed": "0xbcf1",
      "effectiveGasPrice": "0x834aa14af",
      "from": "0xe62ab4d111f968660c6b2188046f9b9ba53c4bae",
      "to": "0xcc2461b294f68e860b046038df8ad3a2a8c2fc51",
      "contractAddress": null
    },
    {
      "status": "0x1",
      "cumulativeGasUsed": "0xbd08",
      "logs": [
        {
          "address": "0x0000000000000000000000000000000000001010",
          "topics": [
            "0x4dfe1bbbcf077ddc3e01291eea2d5c70c2b422b415d95645b9adcfd678cb1d63",
            "0x0000000000000000000000000000000000000000000000000000000000001010",
            "0x000000000000000000000000e62ab4d111f968660c6b2188046f9b9ba53c4bae",
            "0x0000000000000000000000006dc2dd54f24979ec26212794c71afefed722280c"
          ],
          "data": "0x00000000000000000000000000000000000000000000000000060f23368ac500000000000000000000000000000000000000000000000001fbe0ae4f5d5530e0000000000000000000000000000000000000000000000439c348a6ab7be31c00000000000000000000000000000000000000000000000001fbda9f2c26ca6be0000000000000000000000000000000000000000000000439c34eb5ceb26de100",
          "blockHash": "0x03670d45fc542df75d5787c73c510899c1969d9b94e2fd2158a14576218523b5",
          "blockNumber": "0xe44788",
          "transactionHash": "0xd616711b64c3655e2d628e7e38e8bbf7b542563a9312f265e7da10e804dbdac5",
          "transactionIndex": "0x0",
          "logIndex": "0x0",
          "removed": false
        }
      ],
      "logsBloom": "0x20000000000000000004000000000000000000000000000000000000000000000000000000000000000000000000000000008000000000000000000000000000000000000000000000000000000000800000000000000000000100080000000000000000000000000000000000000000000000000000000080000000000000020000000000000000000000000040040000000000000000000000000000000000200000000000000000000000000000000000000000000000000000000000004000000000000000000001000000000000000000000000000000100000000000000000000000000000000000000000000000000000000000000000000000100000",
      "type": "0x2",
      "transactionHash": "0xd616711b64c3655e2d628e7e38e8bbf7b542563a9312f265e7da10e804dbdac5",
      "transactionIndex": "0x0",
      "blockHash": "0x03670d45fc542df75d5787c73c510899c1969d9b94e2fd2158a14576218523b5",
      "blockNumber": "0xe44788",
      "gasUsed": "0xbd08",
      "effectiveGasPrice": "0x834aa14af",
      "from": "0xe62ab4d111f968660c6b2188046f9b9ba53c4bae",
      "to": "0xcc2461b294f68e860b046038df8ad3a2a8c2fc51",
      "contractAddress": null
    },
    {
      "status": "0x1",
      "cumulativeGasUsed": "0x28597",
      "logs": [
        {
          "address": "0x0000000000000000000000000000000000001010",
          "topics": [
            "0x4dfe1bbbcf077ddc3e01291eea2d5c70c2b422b415d95645b9adcfd678cb1d63",
            "0x0000000000000000000000000000000000000000000000000000000000001010",
            "0x000000000000000000000000e62ab4d111f968660c6b2188046f9b9ba53c4bae",
            "0x0000000000000000000000006dc2dd54f24979ec26212794c71afefed722280c"
          ],
          "data": "0x00000000000000000000000000000000000000000000000000060fdff1d29f60000000000000000000000000000000000000000000000001fbda9f2c26bf5868000000000000000000000000000000000000000000000439c3eeea39e6b9fbfa000000000000000000000000000000000000000000000001fbd48f4c34ecb908000000000000000000000000000000000000000000000439c3f4fa19d88c9b5a",
          "blockHash": "0xe0a1bf41193a3d63160a241aa1160dd85e18a8e50cd68b8140a7dfc6d02a4b74",
          "blockNumber": "0xe4478b",
          "transactionHash": "0x5df7faeb4a1f3c82ae50aa6ca0ad77c9ebeb3564074f68d6b08b39999befa6bf",
          "transactionIndex": "0x1",
          "logIndex": "0x5",
          "removed": false
        }
      ],
      "logsBloom": "0x20000000000000000004000000000000000000000000000000000000000000000000000000000000000000000000000000008000000000000000000000000000000000000000000000000000000000800000000000000000000100080000000000000000000000000000000000000000000000000000000080000000000000020000000000000000000000000040040000000000000000000000000000000000200000000000000000000000000000000000000000000000000000000000004000000000000000000001000000000000000000000000000000100000000000000000000000000000000000000000000000000000000000000000000000100000",
      "type": "0x2",
      "transactionHash": "0x5df7faeb4a1f3c82ae50aa6ca0ad77c9ebeb3564074f68d6b08b39999befa6bf",
      "transactionIndex": "0x1",
      "blockHash": "0xe0a1bf41193a3d63160a241aa1160dd85e18a8e50cd68b8140a7dfc6d02a4b74",
      "blockNumber": "0xe4478b",
      "gasUsed": "0xbd1f",
      "effectiveGasPrice": "0x834aa14af",
      "from": "0xe62ab4d111f968660c6b2188046f9b9ba53c4bae",
      "to": "0xcc2461b294f68e860b046038df8ad3a2a8c2fc51",
      "contractAddress": null
    },
    {
      "status": "0x1",
      "cumulativeGasUsed": "0xbd36",
      "logs": [
        {
          "address": "0x0000000000000000000000000000000000001010",
          "topics": [
            "0x4dfe1bbbcf077ddc3e01291eea2d5c70c2b422b415d95645b9adcfd678cb1d63",
            "0x0000000000000000000000000000000000000000000000000000000000001010",
            "0x000000000000000000000000e62ab4d111f968660c6b2188046f9b9ba53c4bae",
            "0x0000000000000000000000006dc2dd54f24979ec26212794c71afefed722280c"
          ],
          "data": "0x0000000000000000000000000000000000000000000000000006109cad1a79c0000000000000000000000000000000000000000000000001fbd48f4c34e1a437000000000000000000000000000000000000000000000439c4cd842fa8e297e1000000000000000000000000000000000000000000000001fbce7eaf87c72a77000000000000000000000000000000000000000000000439c4d394cc55fd11a1",
          "blockHash": "0x7c40d6d2f191f4ba4413faa70e8f4d68e583f46d8c8173b057da2fab5644d011",
          "blockNumber": "0xe4478f",
          "transactionHash": "0xb320976db5d27f9127d708c69b2c2d73e139d94d7e179de9622ea6cd7c646176",
          "transactionIndex": "0x0",
          "logIndex": "0x0",
          "removed": false
        }
      ],
      "logsBloom": "0x20000000000000000004000000000000000000000000000000000000000000000000000000000000000000000000000000008000000000000000000000000000000000000000000000000000000000800000000000000000000100080000000000000000000000000000000000000000000000000000000080000000000000020000000000000000000000000040040000000000000000000000000000000000200000000000000000000000000000000000000000000000000000000000004000000000000000000001000000000000000000000000000000100000000000000000000000000000000000000000000000000000000000000000000000100000",
      "type": "0x2",
      "transactionHash": "0xb320976db5d27f9127d708c69b2c2d73e139d94d7e179de9622ea6cd7c646176",
      "transactionIndex": "0x0",
      "blockHash": "0x7c40d6d2f191f4ba4413faa70e8f4d68e583f46d8c8173b057da2fab5644d011",
      "blockNumber": "0xe4478f",
      "gasUsed": "0xbd36",
      "effectiveGasPrice": "0x834aa14af",
      "from": "0xe62ab4d111f968660c6b2188046f9b9ba53c4bae",
      "to": "0xcc2461b294f68e860b046038df8ad3a2a8c2fc51",
      "contractAddress": null
    },
    {
      "status": "0x1",
      "cumulativeGasUsed": "0x3bd22",
      "logs": [
        {
          "address": "0x0000000000000000000000000000000000001010",
          "topics": [
            "0x4dfe1bbbcf077ddc3e01291eea2d5c70c2b422b415d95645b9adcfd678cb1d63",
            "0x0000000000000000000000000000000000000000000000000000000000001010",
            "0x000000000000000000000000e62ab4d111f968660c6b2188046f9b9ba53c4bae",
            "0x0000000000000000000000004631753190f2f5a15a7ba172bbac102b7d95fa22"
          ],
          "data": "0x0000000000000000000000000000000000000000000000000006115968625420000000000000000000000000000000000000000000000001fbce7eaf87bc144d0000000000000000000000000000000000000000000003322f8be72af16ffe48000000000000000000000000000000000000000000000001fbc86d561f59c02d0000000000000000000000000000000000000000000003322f91f88459d25268",
          "blockHash": "0x6578caf3257105eb03e9ec22a601f058dc33ce0e404ef65e2cd753e271babdec",
          "blockNumber": "0xe44791",
          "transactionHash": "0x1e70868b2261f62f93b97081c2bb919c604e271a2fed7269827fa19390e6b39f",
          "transactionIndex": "0x2",
          "logIndex": "0x5",
          "removed": false
        }
      ],
      "logsBloom": "0x20000000000000000004000000000000000000002000000000000000000000000000000000000000000000000000000000008000000000000000000040000000000000000000000000000000000000800000000000000000000100000000000000000000000000100000000000000000000000000000000080000000000000000000000000000000000000000000040000000000000000000000000000000000200000000000000000000000000000000000000000000000000000000000004000000000000000000001000000000000000000000000000000100000000000000000000000000000000000000000000000000000000000000000000000100000",
      "type": "0x2",
      "transactionHash": "0x1e70868b2261f62f93b97081c2bb919c604e271a2fed7269827fa19390e6b39f",
      "transactionIndex": "0x2",
      "blockHash": "0x6578caf3257105eb03e9ec22a601f058dc33ce0e404ef65e2cd753e271babdec",
      "blockNumber": "0xe44791",
      "gasUsed": "0xbd4d",
      "effectiveGasPrice": "0x834aa14af",
      "from": "0xe62ab4d111f968660c6b2188046f9b9ba53c4bae",
      "to": "0xcc2461b294f68e860b046038df8ad3a2a8c2fc51",
      "contractAddress": null
    },
    {
      "status": "0x1",
      "cumulativeGasUsed": "0x190f5",
      "logs": [
        {
          "address": "0x0000000000000000000000000000000000001010",
          "topics": [
            "0x4dfe1bbbcf077ddc3e01291eea2d5c70c2b422b415d95645b9adcfd678cb1d63",
            "0x0000000000000000000000000000000000000000000000000000000000001010",
            "0x000000000000000000000000e62ab4d111f968660c6b2188046f9b9ba53c4bae",
            "0x0000000000000000000000004631753190f2f5a15a7ba172bbac102b7d95fa22"
          ],
          "data": "0x0000000000000000000000000000000000000000000000000006121623aa2e80000000000000000000000000000000000000000000000001fbc86d561f4ea8aa0000000000000000000000000000000000000000000003322fd0a3acab3560cf000000000000000000000000000000000000000000000001fbc25b3ffba47a2a0000000000000000000000000000000000000000000003322fd6b5c2cedf8f4f",
          "blockHash": "0x170fca13264ce42a84f8079542dd281470ad16ba2bc46c1cfd85f239c8c49406",
          "blockNumber": "0xe44795",
          "transactionHash": "0xb9b743b688eff2529c73d642717377b074267433461250a173bdbbeb47242d1e",
          "transactionIndex": "0x1",
          "logIndex": "0x2",
          "removed": false
        }
      ],
      "logsBloom": "0x20000000000000000004000000000000000000002000000000000000000000000000000000000000000000000000000000008000000000000000000040000000000000000000000000000000000000800000000000000000000100000000000000000000000000100000000000000000000000000000000080000000000000000000000000000000000000000000040000000000000000000000000000000000200000000000000000000000000000000000000000000000000000000000004000000000000000000001000000000000000000000000000000100000000000000000000000000000000000000000000000000000000000000000000000100000",
      "type": "0x2",
      "transactionHash": "0xb9b743b688eff2529c73d642717377b074267433461250a173bdbbeb47242d1e",
      "transactionIndex": "0x1",
      "blockHash": "0x170fca13264ce42a84f8079542dd281470ad16ba2bc46c1cfd85f239c8c49406",
      "blockNumber": "0xe44795",
      "gasUsed": "0xbd64",
      "effectiveGasPrice": "0x834aa14af",
      "from": "0xe62ab4d111f968660c6b2188046f9b9ba53c4bae",
      "to": "0xcc2461b294f68e860b046038df8ad3a2a8c2fc51",
      "contractAddress": null
    },
    {
      "status": "0x1",
      "cumulativeGasUsed": "0x2a14f",
      "logs": [
        {
          "address": "0x0000000000000000000000000000000000001010",
          "topics": [
            "0x4dfe1bbbcf077ddc3e01291eea2d5c70c2b422b415d95645b9adcfd678cb1d63",
            "0x0000000000000000000000000000000000000000000000000000000000001010",
            "0x000000000000000000000000e62ab4d111f968660c6b2188046f9b9ba53c4bae",
            "0x0000000000000000000000004631753190f2f5a15a7ba172bbac102b7d95fa22"
          ],
          "data": "0x000000000000000000000000000000000000000000000000000612d2def208e0000000000000000000000000000000000000000000000001fbc25b3ffb99614e000000000000000000000000000000000000000000000332300fe4cb93f1253a000000000000000000000000000000000000000000000001fbbc486d1ca7586e0000000000000000000000000000000000000000000003323015f79e72e32e1a",
          "blockHash": "0x26aef3fdcb9ba4e2ad59962acd24d82b6bb8a8a4e6cdce0e9202fadbd3daf8ef",
          "blockNumber": "0xe44799",
          "transactionHash": "0x6d91f6127dec0c0f3d59c94132470d5fa9e1b36c8ad15611972542f82afb089c",
          "transactionIndex": "0x1",
          "logIndex": "0x4",
          "removed": false
        }
      ],
      "logsBloom": "0x20000000000000000004000000000000000000002000000000000000000000000000000000000000000000000000000000008000000000000000000040000000000000000000000000000000000000800000000000000000000100000000000000000000000000100000000000000000000000000000000080000000000000000000000000000000000000000000040000000000000000000000000000000000200000000000000000000000000000000000000000000000000000000000004000000000000000000001000000000000000000000000000000100000000000000000000000000000000000000000000000000000000000000000000000100000",
      "type": "0x2",
      "transactionHash": "0x6d91f6127dec0c0f3d59c94132470d5fa9e1b36c8ad15611972542f82afb089c",
      "transactionIndex": "0x1",
      "blockHash": "0x26aef3fdcb9ba4e2ad59962acd24d82b6bb8a8a4e6cdce0e9202fadbd3daf8ef",
      "blockNumber": "0xe44799",
      "gasUsed": "0xbd7b",
      "effectiveGasPrice": "0x834aa14af",
      "from": "0xe62ab4d111f968660c6b2188046f9b9ba53c4bae",
      "to": "0xcc2461b294f68e860b046038df8ad3a2a8c2fc51",
      "contractAddress": null
    },
    {
      "status": "0x1",
      "cumulativeGasUsed": "0xbd92",
      "logs": [
        {
          "address": "0x0000000000000000000000000000000000001010",
          "topics": [
            "0x4dfe1bbbcf077ddc3e01291eea2d5c70c2b422b415d95645b9adcfd678cb1d63",
            "0x0000000000000000000000000000000000000000000000000000000000001010",
            "0x000000000000000000000000e62ab4d111f968660c6b2188046f9b9ba53c4bae",
            "0x0000000000000000000000004631753190f2f5a15a7ba172bbac102b7d95fa22"
          ],
          "data": "0x0000000000000000000000000000000000000000000000000006138f9a39e340000000000000000000000000000000000000000000000001fbbc486d1c9c3e390000000000000000000000000000000000000000000003323058e636aa4038a7000000000000000000000000000000000000000000000001fbb634dd82625af9000000000000000000000000000000000000000000000332305ef9c6447a1be7",
          "blockHash": "0x18769592ce42c49a4a2b2ecbc72b982cb77bcad222069ef31079e5f2a3579fa9",
          "blockNumber": "0xe4479c",
          "transactionHash": "0x951f71b26844529221a1f8dafac0912a50b99ef4b647c28142c9c1f44c5c989c",
          "transactionIndex": "0x0",
          "logIndex": "0x0",
          "removed": false
        }
      ],
      "logsBloom": "0x20000000000000000004000000000000000000002000000000000000000000000000000000000000000000000000000000008000000000000000000040000000000000000000000000000000000000800000000000000000000100000000000000000000000000100000000000000000000000000000000080000000000000000000000000000000000000000000040000000000000000000000000000000000200000000000000000000000000000000000000000000000000000000000004000000000000000000001000000000000000000000000000000100000000000000000000000000000000000000000000000000000000000000000000000100000",
      "type": "0x2",
      "transactionHash": "0x951f71b26844529221a1f8dafac0912a50b99ef4b647c28142c9c1f44c5c989c",
      "transactionIndex": "0x0",
      "blockHash": "0x18769592ce42c49a4a2b2ecbc72b982cb77bcad222069ef31079e5f2a3579fa9",
      "blockNumber": "0xe4479c",
      "gasUsed": "0xbd92",
      "effectiveGasPrice": "0x834aa14af",
      "from": "0xe62ab4d111f968660c6b2188046f9b9ba53c4bae",
      "to": "0xcc2461b294f68e860b046038df8ad3a2a8c2fc51",
      "contractAddress": null
    },
    {
      "status": "0x1",
      "cumulativeGasUsed": "0x27b15",
      "logs": [
        {
          "address": "0x0000000000000000000000000000000000001010",
          "topics": [
            "0x4dfe1bbbcf077ddc3e01291eea2d5c70c2b422b415d95645b9adcfd678cb1d63",
            "0x0000000000000000000000000000000000000000000000000000000000001010",
            "0x000000000000000000000000e62ab4d111f968660c6b2188046f9b9ba53c4bae",
            "0x0000000000000000000000006ab3d36c46ecfb9b9c0bd51cb1c3da5a2c81cea6"
          ],
          "data": "0x0000000000000000000000000000000000000000000000000006144c5581bda0000000000000000000000000000000000000000000000001fbb634dd82573f6b0000000000000000000000000000000000000000000003dfbfee4954d4ecab48000000000000000000000000000000000000000000000001fbb020912cd581cb0000000000000000000000000000000000000000000003dfbff45da12a6e68e8",
          "blockHash": "0x53928c964d0760579a5b2192ca943c020446c4a30b5f704a7c15c8bc075f7b99",
          "blockNumber": "0xe447a0",
          "transactionHash": "0x45159ec08780dfd409e099ed1ecd37e99bf73a6c2add953ecd35ade53edbc937",
          "transactionIndex": "0x1",
          "logIndex": "0x5",
          "removed": false
        }
      ],
      "logsBloom": "0x20000000080000000004000000000000000000000000000000000000000000000000000000000000000000000000000000008000000000000000000000000000000000080000000000000000000000800000000000000000000100000000000000000000000000000000000000000000000000000000000080000000000000000000000000000000000000000000040000000000000000000000000000000000200000000000000000000000000000000000000000000000000000000000004000000000000000000001000000000000000000010000000000100000000000000000000000000000000000000000000000000000000000000000000000100000",
      "type": "0x2",
      "transactionHash": "0x45159ec08780dfd409e099ed1ecd37e99bf73a6c2add953ecd35ade53edbc937",
      "transactionIndex": "0x1",
      "blockHash": "0x53928c964d0760579a5b2192ca943c020446c4a30b5f704a7c15c8bc075f7b99",
      "blockNumber": "0xe447a0",
      "gasUsed": "0xbda9",
      "effectiveGasPrice": "0x834aa14af",
      "from": "0xe62ab4d111f968660c6b2188046f9b9ba53c4bae",
      "to": "0xcc2461b294f68e860b046038df8ad3a2a8c2fc51",
      "contractAddress": null
    },
    {
      "status": "0x1",
      "cumulativeGasUsed": "0x1ebd4",
      "logs": [
        {
          "address": "0x0000000000000000000000000000000000001010",
          "topics": [
            "0x4dfe1bbbcf077ddc3e01291eea2d5c70c2b422b415d95645b9adcfd678cb1d63",
            "0x0000000000000000000000000000000000000000000000000000000000001010",
            "0x000000000000000000000000e62ab4d111f968660c6b2188046f9b9ba53c4bae",
            "0x0000000000000000000000006ab3d36c46ecfb9b9c0bd51cb1c3da5a2c81cea6"
          ],
          "data": "0x000000000000000000000000000000000000000000000000000614e0097730e0000000000000000000000000000000000000000000000001fbb020912cca64e40000000000000000000000000000000000000000000003dfc015d3821915d55e000000000000000000000000000000000000000000000001fbaa0bb1235334040000000000000000000000000000000000000000000003dfc01be862228d063e",
          "blockHash": "0x97d1e73495ee110e60914de5ee1dc143fe4032e02ab89b9012d9d9c7632eaea2",
          "blockNumber": "0xe447a3",
          "transactionHash": "0xff1b436adc6c0f08dadf8d2e7292ba497e663bfb02511d27fbd683f29b2b1ffd",
          "transactionIndex": "0x1",
          "logIndex": "0x2",
          "removed": false
        }
      ],
      "logsBloom": "0x20000000080000000004000000000000000000000000000000000000000000000000000000000000000000000000000000008000000000000000000000000000000000080000000000000000000000800000000000000000000100000000000000000000000000000000000000000000000000000000000080000000000000000000000000000000000000000000040000000000000000000000000000000000200000000000000000000000000000000000000000000000000000000000004000000000000000000001000000000000000000010000000000100000000000000000000000000000000000000000000000000000000000000000000000100000",
      "type": "0x2",
      "transactionHash": "0xff1b436adc6c0f08dadf8d2e7292ba497e663bfb02511d27fbd683f29b2b1ffd",
      "transactionIndex": "0x1",
      "blockHash": "0x97d1e73495ee110e60914de5ee1dc143fe4032e02ab89b9012d9d9c7632eaea2",
      "blockNumber": "0xe447a3",
      "gasUsed": "0xbdbb",
      "effectiveGasPrice": "0x834aa14af",
      "from": "0xe62ab4d111f968660c6b2188046f9b9ba53c4bae",
      "to": "0xcc2461b294f68e860b046038df8ad3a2a8c2fc51",
      "contractAddress": null
    },
    {
      "status": "0x1",
      "cumulativeGasUsed": "0x224ec",
      "logs": [
        {
          "address": "0x0000000000000000000000000000000000001010",
          "topics": [
            "0x4dfe1bbbcf077ddc3e01291eea2d5c70c2b422b415d95645b9adcfd678cb1d63",
            "0x0000000000000000000000000000000000000000000000000000000000001010",
            "0x000000000000000000000000e62ab4d111f968660c6b2188046f9b9ba53c4bae",
            "0x0000000000000000000000006ab3d36c46ecfb9b9c0bd51cb1c3da5a2c81cea6"
          ],
          "data": "0x0000000000000000000000000000000000000000000000000011984ca0f18380000000000000000000000000000000000000000000000001fbaa0bb12348160f0000000000000000000000000000000000000000000003dfc01be862228d063e000000000000000000000000000000000000000000000001fb9873648256928f0000000000000000000000000000000000000000000003dfc02d80aec37e89be",
          "blockHash": "0x8436d6a131bb923cb4a2a340a17bf4fea121ed9771de9865e1969e7f79993264",
          "blockNumber": "0xe447a6",
          "transactionHash": "0x87446ee4c64f65b34b7041267447f5113c104b0e31b9e072a74a596e15ed57aa",
          "transactionIndex": "0x0",
          "logIndex": "0x0",
          "removed": false
        }
      ],
      "logsBloom": "0x20000000080000000004000000000000000000000000000000000000000000000000000000000000000000000000000000008000000000000000000000000000000000080000000000000000000000800000000000000000000100000000000000000000000000000000000000000000000000000000000080000000000000000000000000000000000000000000040000000000000000000000000000000000200000000000000000000000000000000000000000000000000000000000004000000000000000000001000000000000000000010000000000100000000000000000000000000000000000000000000000000000000000000000000000100000",
      "type": "0x2",
      "transactionHash": "0x87446ee4c64f65b34b7041267447f5113c104b0e31b9e072a74a596e15ed57aa",
      "transactionIndex": "0x0",
      "blockHash": "0x8436d6a131bb923cb4a2a340a17bf4fea121ed9771de9865e1969e7f79993264",
      "blockNumber": "0xe447a6",
      "gasUsed": "0x224ec",
      "effectiveGasPrice": "0x834aa14af",
      "from": "0xe62ab4d111f968660c6b2188046f9b9ba53c4bae",
      "to": "0xcc2461b294f68e860b046038df8ad3a2a8c2fc51",
      "contractAddress": null
    },
    {
      "status": "0x1",
      "cumulativeGasUsed": "0x24180",
      "logs": [
        {
          "address": "0x0000000000000000000000000000000000001010",
          "topics": [
            "0x4dfe1bbbcf077ddc3e01291eea2d5c70c2b422b415d95645b9adcfd678cb1d63",
            "0x0000000000000000000000000000000000000000000000000000000000001010",
            "0x000000000000000000000000e62ab4d111f968660c6b2188046f9b9ba53c4bae",
            "0x0000000000000000000000006ab3d36c46ecfb9b9c0bd51cb1c3da5a2c81cea6"
          ],
          "data": "0x000000000000000000000000000000000000000000000000000fa7da6f11b380000000000000000000000000000000000000000000000001fb987364823668bb0000000000000000000000000000000000000000000003dfc061f9ad40ebe896000000000000000000000000000000000000000000000001fb88cb8a1324b53b0000000000000000000000000000000000000000000003dfc071a187affd9c16",
          "blockHash": "0x679c3fd26abdb127382d3c9523c8624638e06b14c413604d136e046d2f57f367",
          "blockNumber": "0xe447aa",
          "transactionHash": "0xddbce1e820dd3c05956909322abe4048def6e82be26d0391e3d07c7e8837d184",
          "transactionIndex": "0x1",
          "logIndex": "0x1",
          "removed": false
        }
      ],
      "logsBloom": "0x20000000080000000004000000000000000000000000000000000000000000000000000000000000000000000000000000008000000000000000000000000000000000080000000000000000000000800000000000000000000100000000000000000000000000000000000000000000000000000000000080000000000000000000000000000000000000000000040000000000000000000000000000000000200000000000000000000000000000000000000000000000000000000000004000000000000000000001000000000000000000010000000000100000000000000000000000000000000000000000000000000000000000000000000000100000",
      "type": "0x2",
      "transactionHash": "0xddbce1e820dd3c05956909322abe4048def6e82be26d0391e3d07c7e8837d184",
      "transactionIndex": "0x1",
      "blockHash": "0x679c3fd26abdb127382d3c9523c8624638e06b14c413604d136e046d2f57f367",
      "blockNumber": "0xe447aa",
      "gasUsed": "0x1e86c",
      "effectiveGasPrice": "0x834aa14af",
      "from": "0xe62ab4d111f968660c6b2188046f9b9ba53c4bae",
      "to": "0xcc2461b294f68e860b046038df8ad3a2a8c2fc51",
      "contractAddress": null
    },
    {
      "status": "0x1",
      "cumulativeGasUsed": "0x1e86c",
      "logs": [
        {
          "address": "0x0000000000000000000000000000000000001010",
          "topics": [
            "0x4dfe1bbbcf077ddc3e01291eea2d5c70c2b422b415d95645b9adcfd678cb1d63",
            "0x0000000000000000000000000000000000000000000000000000000000001010",
            "0x000000000000000000000000e62ab4d111f968660c6b2188046f9b9ba53c4bae",
            "0x0000000000000000000000006ab3d36c46ecfb9b9c0bd51cb1c3da5a2c81cea6"
          ],
          "data": "0x000000000000000000000000000000000000000000000000000fa7da6f11b380000000000000000000000000000000000000000000000001fb88cb8a130816e70000000000000000000000000000000000000000000003dfc084959d753006a6000000000000000000000000000000000000000000000001fb7923afa3f663670000000000000000000000000000000000000000000003dfc0943d77e441ba26",
          "blockHash": "0xf759a208f2c148f48bd9c1fe3a25ba894b3677e09a1d674d4835ea288758842d",
          "blockNumber": "0xe447ad",
          "transactionHash": "0x637551f65f8e48d0a76ded934926bc8751c96f33da996e5747a57fb4013a09ec",
          "transactionIndex": "0x0",
          "logIndex": "0x0",
          "removed": false
        }
      ],
      "logsBloom": "0x20000000080000000004000000000000000000000000000000000000000000000000000000000000000000000000000000008000000000000000000000000000000000080000000000000000000000800000000000000000000100000000000000000000000000000000000000000000000000000000000080000000000000000000000000000000000000000000040000000000000000000000000000000000200000000000000000000000000000000000000000000000000000000000004000000000000000000001000000000000000000010000000000100000000000000000000000000000000000000000000000000000000000000000000000100000",
      "type": "0x2",
      "transactionHash": "0x637551f65f8e48d0a76ded934926bc8751c96f33da996e5747a57fb4013a09ec",
      "transactionIndex": "0x0",
      "blockHash": "0xf759a208f2c148f48bd9c1fe3a25ba894b3677e09a1d674d4835ea288758842d",
      "blockNumber": "0xe447ad",
      "gasUsed": "0x1e86c",
      "effectiveGasPrice": "0x834aa14af",
      "from": "0xe62ab4d111f968660c6b2188046f9b9ba53c4bae",
      "to": "0xcc2461b294f68e860b046038df8ad3a2a8c2fc51",
      "contractAddress": null
    },
    {
      "status": "0x1",
      "cumulativeGasUsed": "0x1e3e0",
      "logs": [
        {
          "address": "0x0000000000000000000000000000000000001010",
          "topics": [
            "0x4dfe1bbbcf077ddc3e01291eea2d5c70c2b422b415d95645b9adcfd678cb1d63",
            "0x0000000000000000000000000000000000000000000000000000000000001010",
            "0x000000000000000000000000e62ab4d111f968660c6b2188046f9b9ba53c4bae",
            "0x0000000000000000000000004ad84f7014b7b44f723f284a85b1662337971439"
          ],
          "data": "0x000000000000000000000000000000000000000000000000000f828af9bbec00000000000000000000000000000000000000000000000001fb7923afa3d9c51300000000000000000000000000000000000000000000044b87efc412f900df55000000000000000000000000000000000000000000000001fb69a124aa1dd91300000000000000000000000000000000000000000000044b87ff469df2bccb55",
          "blockHash": "0x40466a134af452d15fe19ea30bcda393db0f76115392b750027a85351117bfa1",
          "blockNumber": "0xe447b1",
          "transactionHash": "0x654d09003d38c5df71fa06a05fcaa250900c35fc9e70720e14a443309ccd716c",
          "transactionIndex": "0x0",
          "logIndex": "0x0",
          "removed": false
        }
      ],
      "logsBloom": "0x20000000000000000004000000000000000000000000000000000000000000000000000000000000000000000000000000008000000000000000000000400000000000000000000000000000000000800000000000000000000100001000000000000000000000000000000000000000000000000000000080000000000000000000000000000000000000000000040000000000000000000000000000000000200000000000000000000000000000000000000000000000000000000000004000000000000000000001000000000000000000000000000000100000000000000000000000000000000000000000008000000000000000000000000000100000",
      "type": "0x2",
      "transactionHash": "0x654d09003d38c5df71fa06a05fcaa250900c35fc9e70720e14a443309ccd716c",
      "transactionIndex": "0x0",
      "blockHash": "0x40466a134af452d15fe19ea30bcda393db0f76115392b750027a85351117bfa1",
      "blockNumber": "0xe447b1",
      "gasUsed": "0x1e3e0",
      "effectiveGasPrice": "0x834aa14af",
      "from": "0xe62ab4d111f968660c6b2188046f9b9ba53c4bae",
      "to": "0xcc2461b294f68e860b046038df8ad3a2a8c2fc51",
      "contractAddress": null
    },
    {
      "status": "0x1",
      "cumulativeGasUsed": "0x1ecf8",
      "logs": [
        {
          "address": "0x0000000000000000000000000000000000001010",
          "topics": [
            "0x4dfe1bbbcf077ddc3e01291eea2d5c70c2b422b415d95645b9adcfd678cb1d63",
            "0x0000000000000000000000000000000000000000000000000000000000001010",
            "0x000000000000000000000000e62ab4d111f968660c6b2188046f9b9ba53c4bae",
            "0x0000000000000000000000004ad84f7014b7b44f723f284a85b1662337971439"
          ],
          "data": "0x000000000000000000000000000000000000000000000000000fcd29e4677b00000000000000000000000000000000000000000000000001fb69a124aa017ef300000000000000000000000000000000000000000000044b8831d9251839cc79000000000000000000000000000000000000000000000001fb59d3fac59a03f300000000000000000000000000000000000000000000044b8841a64efca14779",
          "blockHash": "0xe92826f496aac9fce5374d30221b120c2e2b46c06651b43715e7c06ec6bdb561",
          "blockNumber": "0xe447b4",
          "transactionHash": "0x152a6672c15cb5b6a40a597e0b2f3e07f1cca6294cbf84a5e59df3b0bce13bd8",
          "transactionIndex": "0x0",
          "logIndex": "0x0",
          "removed": false
        }
      ],
      "logsBloom": "0x20000000000000000004000000000000000000000000000000000000000000000000000000000000000000000000000000008000000000000000000000400000000000000000000000000000000000800000000000000000000100001000000000000000000000000000000000000000000000000000000080000000000000000000000000000000000000000000040000000000000000000000000000000000200000000000000000000000000000000000000000000000000000000000004000000000000000000001000000000000000000000000000000100000000000000000000000000000000000000000008000000000000000000000000000100000",
      "type": "0x2",
      "transactionHash": "0x152a6672c15cb5b6a40a597e0b2f3e07f1cca6294cbf84a5e59df3b0bce13bd8",
      "transactionIndex": "0x0",
      "blockHash": "0xe92826f496aac9fce5374d30221b120c2e2b46c06651b43715e7c06ec6bdb561",
      "blockNumber": "0xe447b4",
      "gasUsed": "0x1ecf8",
      "effectiveGasPrice": "0x834aa14af",
      "from": "0xe62ab4d111f968660c6b2188046f9b9ba53c4bae",
      "to": "0xcc2461b294f68e860b046038df8ad3a2a8c2fc51",
      "contractAddress": null
    },
    {
      "status": "0x1",
      "cumulativeGasUsed": "0x7b29c",
      "logs": [
        {
          "address": "0x0000000000000000000000000000000000001010",
          "topics": [
            "0x4dfe1bbbcf077ddc3e01291eea2d5c70c2b422b415d95645b9adcfd678cb1d63",
            "0x0000000000000000000000000000000000000000000000000000000000001010",
            "0x000000000000000000000000e62ab4d111f968660c6b2188046f9b9ba53c4bae",
            "0x0000000000000000000000004ad84f7014b7b44f723f284a85b1662337971439"
          ],
          "data": "0x000000000000000000000000000000000000000000000000003f2a44ea5bd180000000000000000000000000000000000000000000000001fb59d3fac57d216b00000000000000000000000000000000000000000000044b885627123f3f54dd000000000000000000000000000000000000000000000001fb1aa9b5db214feb00000000000000000000000000000000000000000000044b88955157299b265d",
          "blockHash": "0x734e9afb810c55050e0dcf6b5c15ac72e446b47aa9ce4be3487df3d57df1a898",
          "blockNumber": "0xe447b7",
          "transactionHash": "0x8d0bcd226116072134059b1f636693708cb59f8a4e9f57d60b8fb9d7834c7c28",
          "transactionIndex": "0x0",
          "logIndex": "0x0",
          "removed": false
        }
      ],
      "logsBloom": "0x20000000000000000004000000000000000000000000000000000000000000000000000000000000000000000000000000008000000000000000000000400000000000000000000000000000000000800000000000000000000100001000000000000000000000000000000000000000000000000000000080000000000000000000000000000000000000000000040000000000000000000000000000000000200000000000000000000000000000000000000000000000000000000000004000000000000000000001000000000000000000000000000000100000000000000000000000000000000000000000008000000000000000000000000000100000",
      "type": "0x2",
      "transactionHash": "0x8d0bcd226116072134059b1f636693708cb59f8a4e9f57d60b8fb9d7834c7c28",
      "transactionIndex": "0x0",
      "blockHash": "0x734e9afb810c55050e0dcf6b5c15ac72e446b47aa9ce4be3487df3d57df1a898",
      "blockNumber": "0xe447b7",
      "gasUsed": "0x7b29c",
      "effectiveGasPrice": "0x834aa14af",
      "from": "0xe62ab4d111f968660c6b2188046f9b9ba53c4bae",
      "to": "0x73a3ecd2fad26975d16b31e482eaf0f5152d420e",
      "contractAddress": null
    },
    {
      "status": "0x1",
      "cumulativeGasUsed": "0xbd87a",
      "logs": [
        {
          "address": "0x0000000000000000000000000000000000001010",
          "topics": [
            "0x4dfe1bbbcf077ddc3e01291eea2d5c70c2b422b415d95645b9adcfd678cb1d63",
            "0x0000000000000000000000000000000000000000000000000000000000001010",
            "0x000000000000000000000000e62ab4d111f968660c6b2188046f9b9ba53c4bae",
            "0x0000000000000000000000004ad84f7014b7b44f723f284a85b1662337971439"
          ],
          "data": "0x000000000000000000000000000000000000000000000000006133a77d54d440000000000000000000000000000000000000000000000001fb1aa9b5daadd8c700000000000000000000000000000000000000000000044b88e82dd15d1c250f000000000000000000000000000000000000000000000001fab9760e5d59048700000000000000000000000000000000000000000000044b89496178da70f94f",
          "blockHash": "0xc10b784b74a64081a8e1d66d00b35688d5410b1b6baaff764668015c41feb6b7",
          "blockNumber": "0xe447bb",
          "transactionHash": "0x2c3a9c67df64d6bb554d9b01035d90459202a84404600e928b6050c3d533bcca",
          "transactionIndex": "0x0",
          "logIndex": "0x0",
          "removed": false
        }
      ],
      "logsBloom": "0x20000000000000000004000000000000000000000000000000000000000000000000000000000000000000000000000000008000000000000000000000400000000000000000000000000000000000800000000000000000000100001000000000000000000000000000000000000000000000000000000080000000000000000000000000000000000000000000040000000000000000000000000000000000200000000000000000000000000000000000000000000000000000000000004000000000000000000001000000000000000000000000000000100000000000000000000000000000000000000000008000000000000000000000000000100000",
      "type": "0x2",
      "transactionHash": "0x2c3a9c67df64d6bb554d9b01035d90459202a84404600e928b6050c3d533bcca",
      "transactionIndex": "0x0",
      "blockHash": "0xc10b784b74a64081a8e1d66d00b35688d5410b1b6baaff764668015c41feb6b7",
      "blockNumber": "0xe447bb",
      "gasUsed": "0xbd87a",
      "effectiveGasPrice": "0x834aa14af",
      "from": "0xe62ab4d111f968660c6b2188046f9b9ba53c4bae",
      "to": "0x73a3ecd2fad26975d16b31e482eaf0f5152d420e",
      "contractAddress": null
    },
    {
      "status": "0x1",
      "cumulativeGasUsed": "0x12a326",
      "logs": [
        {
          "address": "0x0000000000000000000000000000000000001010",
          "topics": [
            "0x4dfe1bbbcf077ddc3e01291eea2d5c70c2b422b415d95645b9adcfd678cb1d63",
            "0x0000000000000000000000000000000000000000000000000000000000001010",
            "0x000000000000000000000000e62ab4d111f968660c6b2188046f9b9ba53c4bae",
            "0x0000000000000000000000004ad84f7014b7b44f723f284a85b1662337971439"
          ],
          "data": "0x000000000000000000000000000000000000000000000000004fff44174070e0000000000000000000000000000000000000000000000001fab9760e5ca7556100000000000000000000000000000000000000000000044b89f0e7682c00f7e3000000000000000000000000000000000000000000000001fa6976ca4566e48100000000000000000000000000000000000000000000044b8a40e6ac434168c3",
          "blockHash": "0x9bb3513a2e5ac3933fee62b725656b2352a88ec2b7d6777dacb80a248aa41853",
          "blockNumber": "0xe447be",
          "transactionHash": "0x456f5123d7df43d6fb3df7e2f742b1e3866636a1e325fd51754cba8cfe7e0ada",
          "transactionIndex": "0x3",
          "logIndex": "0x5",
          "removed": false
        }
      ],
      "logsBloom": "0x20000000000000000004000000000000000000000000000000000000000000000000000000000000000000000000000000008000000000000000000000400000000000000000000000000000000000800000000000000000000100001000000000000000000000000000000000000000000000000000000080000000000000000000000000000000000000000000040000000000000000000000000000000000200000000000000000000000000000000000000000000000000000000000004000000000000000000001000000000000000000000000000000100000000000000000000000000000000000000000008000000000000000000000000000100000",
      "type": "0x2",
      "transactionHash": "0x456f5123d7df43d6fb3df7e2f742b1e3866636a1e325fd51754cba8cfe7e0ada",
      "transactionIndex": "0x3",
      "blockHash": "0x9bb3513a2e5ac3933fee62b725656b2352a88ec2b7d6777dacb80a248aa41853",
      "blockNumber": "0xe447be",
      "gasUsed": "0x9bfbb",
      "effectiveGasPrice": "0x834aa14af",
      "from": "0xe62ab4d111f968660c6b2188046f9b9ba53c4bae",
      "to": "0x73a3ecd2fad26975d16b31e482eaf0f5152d420e",
      "contractAddress": null
    }
  ],
  "libraries": [],
  "pending": [],
  "returns": {},
  "timestamp": 1732756320,
  "chain": 80002,
  "commit": "3a8898ab"
}