{
  "transactions": [
    {
      "hash": "0x7573da260300381a6c4dbe375fe0fd54dad78f73863f040ed5d8f86f2f1352d1",
      "transactionType": "CALL",
      "contractName": "FeeManager",
      "contractAddress": "0x2d2112de9801eaf71b6d1cbf40a99e57afc235a7",
      "function": "getFeeTokenList()",
      "arguments": [],
      "transaction": {
        "from": "0xe62ab4d111f968660c6b2188046f9b9ba53c4bae",
        "to": "0x2d2112de9801eaf71b6d1cbf40a99e57afc235a7",
        "gas": "0x979a",
        "value": "0x0",
        "input": "0xe28ab277",
        "nonce": "0x299",
        "chainId": "0x13882"
      },
      "additionalContracts": [],
      "isFixedGasLimit": false
    },
    {
      "hash": "0x73170a78fa6f99b06c5b970877a9c31f10916736471f327f92491d684ed0af6d",
      "transactionType": "CALL",
      "contractName": "FeeManager",
      "contractAddress": "0x2d2112de9801eaf71b6d1cbf40a99e57afc235a7",
      "function": "addFeeToken(string,string[],uint256[])",
      "arguments": [
        "80002",
        "[0x6a4dbc971533ba36bdc23ad70f5a7a12e064f4ae]",
        "[100]"
      ],
      "transaction": {
        "from": "0xe62ab4d111f968660c6b2188046f9b9ba53c4bae",
        "to": "0x2d2112de9801eaf71b6d1cbf40a99e57afc235a7",
        "gas": "0x25817",
        "value": "0x0",
        "input": "0x437bf84f000000000000000000000000000000000000000000000000000000000000006000000000000000000000000000000000000000000000000000000000000000a000000000000000000000000000000000000000000000000000000000000001400000000000000000000000000000000000000000000000000000000000000005383030303200000000000000000000000000000000000000000000000000000000000000000000000000000000000000000000000000000000000000000000010000000000000000000000000000000000000000000000000000000000000020000000000000000000000000000000000000000000000000000000000000002a3078366134646263393731353333626133366264633233616437306635613761313265303634663461650000000000000000000000000000000000000000000000000000000000000000000000000000000000000000000000000000000000010000000000000000000000000000000000000000000000000000000000000064",
        "nonce": "0x29a",
        "chainId": "0x13882"
      },
      "additionalContracts": [],
      "isFixedGasLimit": false
    },
    {
      "hash": "0x71a6fae0cae5e1bb6073b956ea354e6bc7be17a25bd3ba15f3e0770961d6dfc9",
      "transactionType": "CALL",
      "contractName": "FeeManager",
      "contractAddress": "0x2d2112de9801eaf71b6d1cbf40a99e57afc235a7",
      "function": "addFeeToken(string,string[],uint256[])",
      "arguments": [
        "11155420",
        "[0x6a4dbc971533ba36bdc23ad70f5a7a12e064f4ae]",
        "[100]"
      ],
      "transaction": {
        "from": "0xe62ab4d111f968660c6b2188046f9b9ba53c4bae",
        "to": "0x2d2112de9801eaf71b6d1cbf40a99e57afc235a7",
        "gas": "0x2a863",
        "value": "0x0",
        "input": "0x437bf84f000000000000000000000000000000000000000000000000000000000000006000000000000000000000000000000000000000000000000000000000000000a000000000000000000000000000000000000000000000000000000000000001400000000000000000000000000000000000000000000000000000000000000008313131353534323000000000000000000000000000000000000000000000000000000000000000000000000000000000000000000000000000000000000000010000000000000000000000000000000000000000000000000000000000000020000000000000000000000000000000000000000000000000000000000000002a3078366134646263393731353333626133366264633233616437306635613761313265303634663461650000000000000000000000000000000000000000000000000000000000000000000000000000000000000000000000000000000000010000000000000000000000000000000000000000000000000000000000000064",
        "nonce": "0x29b",
        "chainId": "0x13882"
      },
      "additionalContracts": [],
      "isFixedGasLimit": false
    },
    {
      "hash": "0xa5c7682c2f8c9f8a745815f698d1d17d635105b736588f5ff93cd3295170ddce",
      "transactionType": "CALL",
      "contractName": "CTMRWAGateway",
      "contractAddress": "0xb1bc63301670f8ec9ee98bd501c89783d65ddc8a",
      "function": "addChainContract(string[],string[])",
      "arguments": [
        "[11155420]",
        "[0x3b44962bf264b8cebac13da24722faa27fc693a1]"
      ],
      "transaction": {
        "from": "0xe62ab4d111f968660c6b2188046f9b9ba53c4bae",
        "to": "0xb1bc63301670f8ec9ee98bd501c89783d65ddc8a",
        "gas": "0x48b4f",
        "value": "0x0",
        "input": "0x013fd3bd000000000000000000000000000000000000000000000000000000000000004000000000000000000000000000000000000000000000000000000000000000c0000000000000000000000000000000000000000000000000000000000000000100000000000000000000000000000000000000000000000000000000000000200000000000000000000000000000000000000000000000000000000000000008313131353534323000000000000000000000000000000000000000000000000000000000000000000000000000000000000000000000000000000000000000010000000000000000000000000000000000000000000000000000000000000020000000000000000000000000000000000000000000000000000000000000002a30783362343439363262663236346238636562616331336461323437323266616132376663363933613100000000000000000000000000000000000000000000",
        "nonce": "0x29c",
        "chainId": "0x13882"
      },
      "additionalContracts": [],
      "isFixedGasLimit": false
    },
    {
      "hash": "0x60b0a9b2773e526c6430d5a47593bbcb36b1134c2dd60b3f9ce80e512189cf77",
      "transactionType": "CALL",
      "contractName": "CTMRWAGateway",
      "contractAddress": "0xb1bc63301670f8ec9ee98bd501c89783d65ddc8a",
      "function": "attachRWAX(uint256,uint256,string[],string[])",
      "arguments": [
        "1",
        "1",
        "[11155420]",
        "[0x266442249f62a8dd4e29348a52af8c806c7cb0da]"
      ],
      "transaction": {
        "from": "0xe62ab4d111f968660c6b2188046f9b9ba53c4bae",
        "to": "0xb1bc63301670f8ec9ee98bd501c89783d65ddc8a",
        "gas": "0x58cb2",
        "value": "0x0",
        "input": "0x33a5f5b40000000000000000000000000000000000000000000000000000000000000001000000000000000000000000000000000000000000000000000000000000000100000000000000000000000000000000000000000000000000000000000000800000000000000000000000000000000000000000000000000000000000000100000000000000000000000000000000000000000000000000000000000000000100000000000000000000000000000000000000000000000000000000000000200000000000000000000000000000000000000000000000000000000000000008313131353534323000000000000000000000000000000000000000000000000000000000000000000000000000000000000000000000000000000000000000010000000000000000000000000000000000000000000000000000000000000020000000000000000000000000000000000000000000000000000000000000002a30783236363434323234396636326138646434653239333438613532616638633830366337636230646100000000000000000000000000000000000000000000",
        "nonce": "0x29d",
        "chainId": "0x13882"
      },
      "additionalContracts": [],
      "isFixedGasLimit": false
    },
    {
      "hash": "0x44a6036dbc86a4556b0f136e8197baf89cdad913337eb71bfb6c3efda5fb668f",
      "transactionType": "CALL",
      "contractName": "CTMRWAGateway",
      "contractAddress": "0xb1bc63301670f8ec9ee98bd501c89783d65ddc8a",
      "function": "attachStorageManager(uint256,uint256,string[],string[])",
      "arguments": [
        "1",
        "1",
        "[11155420]",
        "[0x62ab67f946aca3991898ac7bb59beac125eb5902]"
      ],
      "transaction": {
        "from": "0xe62ab4d111f968660c6b2188046f9b9ba53c4bae",
        "to": "0xb1bc63301670f8ec9ee98bd501c89783d65ddc8a",
        "gas": "0x4a7f6",
        "value": "0x0",
        "input": "0x2f68b4890000000000000000000000000000000000000000000000000000000000000001000000000000000000000000000000000000000000000000000000000000000100000000000000000000000000000000000000000000000000000000000000800000000000000000000000000000000000000000000000000000000000000100000000000000000000000000000000000000000000000000000000000000000100000000000000000000000000000000000000000000000000000000000000200000000000000000000000000000000000000000000000000000000000000008313131353534323000000000000000000000000000000000000000000000000000000000000000000000000000000000000000000000000000000000000000010000000000000000000000000000000000000000000000000000000000000020000000000000000000000000000000000000000000000000000000000000002a30783632616236376639343661636133393931383938616337626235396265616331323565623539303200000000000000000000000000000000000000000000",
        "nonce": "0x29e",
        "chainId": "0x13882"
      },
      "additionalContracts": [],
      "isFixedGasLimit": false
    },
    {
      "hash": "0x9976a5e07ced919a2a2c244474b8b754973d778c05c20c9f2fd2b5a2016d05cd",
      "transactionType": "CALL",
      "contractName": "CTMRWAGateway",
      "contractAddress": "0xb1bc63301670f8ec9ee98bd501c89783d65ddc8a",
      "function": "attachSentryManager(uint256,uint256,string[],string[])",
      "arguments": [
        "1",
        "1",
        "[11155420]",
        "[0x1bb2dab2ce968db0d992a6289acbdd8f764be36a]"
      ],
      "transaction": {
        "from": "0xe62ab4d111f968660c6b2188046f9b9ba53c4bae",
        "to": "0xb1bc63301670f8ec9ee98bd501c89783d65ddc8a",
        "gas": "0x4aa77",
        "value": "0x0",
        "input": "0x349de7970000000000000000000000000000000000000000000000000000000000000001000000000000000000000000000000000000000000000000000000000000000100000000000000000000000000000000000000000000000000000000000000800000000000000000000000000000000000000000000000000000000000000100000000000000000000000000000000000000000000000000000000000000000100000000000000000000000000000000000000000000000000000000000000200000000000000000000000000000000000000000000000000000000000000008313131353534323000000000000000000000000000000000000000000000000000000000000000000000000000000000000000000000000000000000000000010000000000000000000000000000000000000000000000000000000000000020000000000000000000000000000000000000000000000000000000000000002a30783162623264616232636539363864623064393932613632383961636264643866373634626533366100000000000000000000000000000000000000000000",
        "nonce": "0x29f",
        "chainId": "0x13882"
      },
      "additionalContracts": [],
      "isFixedGasLimit": false
    }
  ],
  "receipts": [
    {
      "status": "0x1",
      "cumulativeGasUsed": "0x67a9",
      "logs": [
        {
          "address": "0x0000000000000000000000000000000000001010",
          "topics": [
            "0x4dfe1bbbcf077ddc3e01291eea2d5c70c2b422b415d95645b9adcfd678cb1d63",
            "0x0000000000000000000000000000000000000000000000000000000000001010",
            "0x000000000000000000000000e62ab4d111f968660c6b2188046f9b9ba53c4bae",
            "0x00000000000000000000000009207a6efee346cb3e4a54ac18523e3715d38b3f"
          ],
          "data": "0x00000000000000000000000000000000000000000000000000026183e0e1126600000000000000000000000000000000000000000000001cd2d73c300a478b0500000000000000000000000000000000000000000000060d3b00f90bbe4721bf00000000000000000000000000000000000000000000001cd2d4daac2966789f00000000000000000000000000000000000000000000060d3b035a8f9f283425",
          "blockHash": "0xea4c1dd1e052c6bb2aa718ad3e8f606066c20f695cf61363ee60dbb97df32274",
          "blockNumber": "0x116325b",
          "transactionHash": "0x7573da260300381a6c4dbe375fe0fd54dad78f73863f040ed5d8f86f2f1352d1",
          "transactionIndex": "0x0",
          "logIndex": "0x0",
          "removed": false
        }
      ],
      "logsBloom": "0x20000000000000000004000000000000000000000000000000000000000000000000000000000000000000000000000000008000000000000000010000000000000000000000000000000000000000800000000000000000000100000000000000000000000000000000000000000000000000000000000080000000000000000000000000000000000000000000040000004000000000000000000000000000200000000000000000000000000000000000000000000000000000000000004000000000000000000001000000000000000000000000000000100000000000000000000000000000000000010000000000000000000000000000000000100000",
      "type": "0x2",
      "transactionHash": "0x7573da260300381a6c4dbe375fe0fd54dad78f73863f040ed5d8f86f2f1352d1",
      "transactionIndex": "0x0",
      "blockHash": "0xea4c1dd1e052c6bb2aa718ad3e8f606066c20f695cf61363ee60dbb97df32274",
      "blockNumber": "0x116325b",
      "gasUsed": "0x67a9",
      "effectiveGasPrice": "0x5e1438705",
      "from": "0xe62ab4d111f968660c6b2188046f9b9ba53c4bae",
      "to": "0x2d2112de9801eaf71b6d1cbf40a99e57afc235a7",
      "contractAddress": null
    },
    {
      "status": "0x1",
      "cumulativeGasUsed": "0x3a03a",
      "logs": [
        {
          "address": "0x0000000000000000000000000000000000001010",
          "topics": [
            "0x4dfe1bbbcf077ddc3e01291eea2d5c70c2b422b415d95645b9adcfd678cb1d63",
            "0x0000000000000000000000000000000000000000000000000000000000001010",
            "0x000000000000000000000000e62ab4d111f968660c6b2188046f9b9ba53c4bae",
            "0x00000000000000000000000009207a6efee346cb3e4a54ac18523e3715d38b3f"
          ],
          "data": "0x00000000000000000000000000000000000000000000000000096ca84dc736cc00000000000000000000000000000000000000000000001cd2d4daac296065b800000000000000000000000000000000000000000000060d3b43184958e6435900000000000000000000000000000000000000000000001cd2cb6e03db992eec00000000000000000000000000000000000000000000060d3b4c84f1a6ad7a25",
          "blockHash": "0x9bfd801c69d5a5d191b223b57bfa1b85b1a4ebcdbfdb924b2b626668cedc8bb0",
          "blockNumber": "0x116325d",
          "transactionHash": "0x73170a78fa6f99b06c5b970877a9c31f10916736471f327f92491d684ed0af6d",
          "transactionIndex": "0x1",
          "logIndex": "0x3",
          "removed": false
        }
      ],
      "logsBloom": "0x20000000000000000004000000000000000000000000000000000000000000000000000000000000000000000000000000008000000000000000010000000000000000000000000000000000000000800000000000000000000100000000000000000000000000000000000000000000000000000000000080000000000000000000000000000000000000000000040000004000000000000000000000000000200000000000000000000000000000000000000000000000000000000000004000000000000000000001000000000000000000000000000000100000000000000000000000000000000000010000000000000000000000000000000000100000",
      "type": "0x2",
      "transactionHash": "0x73170a78fa6f99b06c5b970877a9c31f10916736471f327f92491d684ed0af6d",
      "transactionIndex": "0x1",
      "blockHash": "0x9bfd801c69d5a5d191b223b57bfa1b85b1a4ebcdbfdb924b2b626668cedc8bb0",
      "blockNumber": "0x116325d",
      "gasUsed": "0x19a52",
      "effectiveGasPrice": "0x5e1438705",
      "from": "0xe62ab4d111f968660c6b2188046f9b9ba53c4bae",
      "to": "0x2d2112de9801eaf71b6d1cbf40a99e57afc235a7",
      "contractAddress": null
    },
    {
      "status": "0x1",
      "cumulativeGasUsed": "0x594ef",
      "logs": [
        {
          "address": "0x0000000000000000000000000000000000001010",
          "topics": [
            "0x4dfe1bbbcf077ddc3e01291eea2d5c70c2b422b415d95645b9adcfd678cb1d63",
            "0x0000000000000000000000000000000000000000000000000000000000001010",
            "0x000000000000000000000000e62ab4d111f968660c6b2188046f9b9ba53c4bae",
            "0x00000000000000000000000009207a6efee346cb3e4a54ac18523e3715d38b3f"
          ],
          "data": "0x000000000000000000000000000000000000000000000000000b5065a635631a00000000000000000000000000000000000000000000001cd2cb6e03db81241e00000000000000000000000000000000000000000000060d3b6aedcb278f9a1900000000000000000000000000000000000000000000001cd2c01d9e354bc10400000000000000000000000000000000000000000000060d3b763e30cdc4fd33",
          "blockHash": "0xbe061228d30fada196707d5ad78c114034f18965747c82d1388d52a5d6271aea",
          "blockNumber": "0x116325f",
          "transactionHash": "0x71a6fae0cae5e1bb6073b956ea354e6bc7be17a25bd3ba15f3e0770961d6dfc9",
          "transactionIndex": "0x1",
          "logIndex": "0x2",
          "removed": false
        }
      ],
      "logsBloom": "0x20000000000000000004000000000000000000000000000000000000000000000000000000000000000000000000000000008000000000000000010000000000000000000000000000000000000000800000000000000000000100000000000000000000000000000000000000000000000000000000000080000000000000000000000000000000000000000000040000004000000000000000000000000000200000000000000000000000000000000000000000000000000000000000004000000000000000000001000000000000000000000000000000100000000000000000000000000000000000010000000000000000000000000000000000100000",
      "type": "0x2",
      "transactionHash": "0x71a6fae0cae5e1bb6073b956ea354e6bc7be17a25bd3ba15f3e0770961d6dfc9",
      "transactionIndex": "0x1",
      "blockHash": "0xbe061228d30fada196707d5ad78c114034f18965747c82d1388d52a5d6271aea",
      "blockNumber": "0x116325f",
      "gasUsed": "0x1ec97",
      "effectiveGasPrice": "0x5e1438705",
      "from": "0xe62ab4d111f968660c6b2188046f9b9ba53c4bae",
      "to": "0x2d2112de9801eaf71b6d1cbf40a99e57afc235a7",
      "contractAddress": null
    },
    {
      "status": "0x1",
      "cumulativeGasUsed": "0x695ae",
      "logs": [
        {
          "address": "0x0000000000000000000000000000000000001010",
          "topics": [
            "0x4dfe1bbbcf077ddc3e01291eea2d5c70c2b422b415d95645b9adcfd678cb1d63",
            "0x0000000000000000000000000000000000000000000000000000000000001010",
            "0x000000000000000000000000e62ab4d111f968660c6b2188046f9b9ba53c4bae",
            "0x0000000000000000000000004ad84f7014b7b44f723f284a85b1662337971439"
          ],
          "data": "0x0000000000000000000000000000000000000000000000000013583160aaa1d000000000000000000000000000000000000000000000001cd2c01d9e352ee42b00000000000000000000000000000000000000000000063b8c71e6f17dc0d3f100000000000000000000000000000000000000000000001cd2acc56cd484425b00000000000000000000000000000000000000000000063b8c853f22de6b75c1",
          "blockHash": "0xfd09d99801bdad29336341ff2903a49c0d3d61d24c99ce91caaa572d3f3b3731",
          "blockNumber": "0x1163261",
          "transactionHash": "0xa5c7682c2f8c9f8a745815f698d1d17d635105b736588f5ff93cd3295170ddce",
          "transactionIndex": "0x2",
          "logIndex": "0x9",
          "removed": false
        }
      ],
      "logsBloom": "0x20000000000000000004000000000000000000000000000000000000000000000000000000000000000000000000000000008000000000000000000000400000000000000000000000000000000000800000000000000000000100001000000000000000000000000000000000000000000000000000000080000000000000000000000000000000000000000000040000000000000000000000000000000000200000000000000000000000000000000000000000000000000000000000004000000000000000000001000000000000000000000000000000100000000000000000000000000000000000000000008000000000000000000000000000100000",
      "type": "0x2",
      "transactionHash": "0xa5c7682c2f8c9f8a745815f698d1d17d635105b736588f5ff93cd3295170ddce",
      "transactionIndex": "0x2",
      "blockHash": "0xfd09d99801bdad29336341ff2903a49c0d3d61d24c99ce91caaa572d3f3b3731",
      "blockNumber": "0x1163261",
      "gasUsed": "0x34a38",
      "effectiveGasPrice": "0x5e1438705",
      "from": "0xe62ab4d111f968660c6b2188046f9b9ba53c4bae",
      "to": "0xb1bc63301670f8ec9ee98bd501c89783d65ddc8a",
      "contractAddress": null
    },
    {
      "status": "0x1",
      "cumulativeGasUsed": "0x45527",
      "logs": [
        {
          "address": "0x0000000000000000000000000000000000001010",
          "topics": [
            "0x4dfe1bbbcf077ddc3e01291eea2d5c70c2b422b415d95645b9adcfd678cb1d63",
            "0x0000000000000000000000000000000000000000000000000000000000001010",
            "0x000000000000000000000000e62ab4d111f968660c6b2188046f9b9ba53c4bae",
            "0x0000000000000000000000004ad84f7014b7b44f723f284a85b1662337971439"
          ],
          "data": "0x00000000000000000000000000000000000000000000000000164fe048207ad200000000000000000000000000000000000000000000001cd2acc56cd452e91300000000000000000000000000000000000000000000063b8c956263c6fb16e300000000000000000000000000000000000000000000001cd296758c8c326e4100000000000000000000000000000000000000000000063b8cabb2440f1b91b5",
          "blockHash": "0x2096377b90e8a3a8aad4ef660f6488908b1031006beda02a6de39585b973285c",
          "blockNumber": "0x1163263",
          "transactionHash": "0x60b0a9b2773e526c6430d5a47593bbcb36b1134c2dd60b3f9ce80e512189cf77",
          "transactionIndex": "0x1",
          "logIndex": "0x1",
          "removed": false
        }
      ],
      "logsBloom": "0x20000000000000000004000000000000000000000000000000000000000000000000000000000000000000000000000000008000000000000000000000400000000000000000000000000000000000800000000000000000000100001000000000000000000000000000000000000000000000000000000080000000000000000000000000000000000000000000040000000000000000000000000000000000200000000000000000000000000000000000000000000000000000000000004000000000000000000001000000000000000000000000000000100000000000000000000000000000000000000000008000000000000000000000000000100000",
      "type": "0x2",
      "transactionHash": "0x60b0a9b2773e526c6430d5a47593bbcb36b1134c2dd60b3f9ce80e512189cf77",
      "transactionIndex": "0x1",
      "blockHash": "0x2096377b90e8a3a8aad4ef660f6488908b1031006beda02a6de39585b973285c",
      "blockNumber": "0x1163263",
      "gasUsed": "0x3cb6b",
      "effectiveGasPrice": "0x5e1438705",
      "from": "0xe62ab4d111f968660c6b2188046f9b9ba53c4bae",
      "to": "0xb1bc63301670f8ec9ee98bd501c89783d65ddc8a",
      "contractAddress": null
    },
    {
      "status": "0x1",
      "cumulativeGasUsed": "0xa8aea",
      "logs": [
        {
          "address": "0x0000000000000000000000000000000000001010",
          "topics": [
            "0x4dfe1bbbcf077ddc3e01291eea2d5c70c2b422b415d95645b9adcfd678cb1d63",
            "0x0000000000000000000000000000000000000000000000000000000000001010",
            "0x000000000000000000000000e62ab4d111f968660c6b2188046f9b9ba53c4bae",
            "0x0000000000000000000000004ad84f7014b7b44f723f284a85b1662337971439"
          ],
          "data": "0x0000000000000000000000000000000000000000000000000013d227d754046400000000000000000000000000000000000000000000001cd296758c8bf982fc00000000000000000000000000000000000000000000063b8cdf56ba374edd2900000000000000000000000000000000000000000000001cd282a364b4a57e9800000000000000000000000000000000000000000000063b8cf328e20ea2e18d",
          "blockHash": "0x03e8112735bd4d0dc3d2e84c15f6f2ef49c371b7a441063c0fef340289ceb594",
          "blockNumber": "0x1163265",
          "transactionHash": "0x44a6036dbc86a4556b0f136e8197baf89cdad913337eb71bfb6c3efda5fb668f",
          "transactionIndex": "0x4",
          "logIndex": "0xa",
          "removed": false
        }
      ],
      "logsBloom": "0x20000000000000000004000000000000000000000000000000000000000000000000000000000000000000000000000000008000000000000000000000400000000000000000000000000000000000800000000000000000000100001000000000000000000000000000000000000000000000000000000080000000000000000000000000000000000000000000040000000000000000000000000000000000200000000000000000000000000000000000000000000000000000000000004000000000000000000001000000000000000000000000000000100000000000000000000000000000000000000000008000000000000000000000000000100000",
      "type": "0x2",
      "transactionHash": "0x44a6036dbc86a4556b0f136e8197baf89cdad913337eb71bfb6c3efda5fb668f",
      "transactionIndex": "0x4",
      "blockHash": "0x03e8112735bd4d0dc3d2e84c15f6f2ef49c371b7a441063c0fef340289ceb594",
      "blockNumber": "0x1163265",
      "gasUsed": "0x35ef6",
      "effectiveGasPrice": "0x5e1438705",
      "from": "0xe62ab4d111f968660c6b2188046f9b9ba53c4bae",
      "to": "0xb1bc63301670f8ec9ee98bd501c89783d65ddc8a",
      "contractAddress": null
    },
    {
      "status": "0x1",
      "cumulativeGasUsed": "0x360c6",
      "logs": [
        {
          "address": "0x0000000000000000000000000000000000001010",
          "topics": [
            "0x4dfe1bbbcf077ddc3e01291eea2d5c70c2b422b415d95645b9adcfd678cb1d63",
            "0x0000000000000000000000000000000000000000000000000000000000001010",
            "0x000000000000000000000000e62ab4d111f968660c6b2188046f9b9ba53c4bae",
            "0x0000000000000000000000004ad84f7014b7b44f723f284a85b1662337971439"
          ],
          "data": "0x0000000000000000000000000000000000000000000000000013dcd021b8a24400000000000000000000000000000000000000000000001cd282a364b472ee2e00000000000000000000000000000000000000000000063b8d07dbaa9e4136eb00000000000000000000000000000000000000000000001cd26ec69492ba4bea00000000000000000000000000000000000000000000063b8d1bb87abff9d92f",
          "blockHash": "0xff669e803850e8bc74b949f70f4851075cc03df93de544d4895debd0edc13eaa",
          "blockNumber": "0x1163267",
          "transactionHash": "0x9976a5e07ced919a2a2c244474b8b754973d778c05c20c9f2fd2b5a2016d05cd",
          "transactionIndex": "0x0",
          "logIndex": "0x0",
          "removed": false
        }
      ],
      "logsBloom": "0x20000000000000000004000000000000000000000000000000000000000000000000000000000000000000000000000000008000000000000000000000400000000000000000000000000000000000800000000000000000000100001000000000000000000000000000000000000000000000000000000080000000000000000000000000000000000000000000040000000000000000000000000000000000200000000000000000000000000000000000000000000000000000000000004000000000000000000001000000000000000000000000000000100000000000000000000000000000000000000000008000000000000000000000000000100000",
      "type": "0x2",
      "transactionHash": "0x9976a5e07ced919a2a2c244474b8b754973d778c05c20c9f2fd2b5a2016d05cd",
      "transactionIndex": "0x0",
      "blockHash": "0xff669e803850e8bc74b949f70f4851075cc03df93de544d4895debd0edc13eaa",
      "blockNumber": "0x1163267",
      "gasUsed": "0x360c6",
      "effectiveGasPrice": "0x5e1438705",
      "from": "0xe62ab4d111f968660c6b2188046f9b9ba53c4bae",
      "to": "0xb1bc63301670f8ec9ee98bd501c89783d65ddc8a",
      "contractAddress": null
    }
  ],
  "libraries": [],
  "pending": [],
  "returns": {},
  "timestamp": 1739897809,
  "chain": 80002,
  "commit": "be616da9"
}