{
  "transactions": [
    {
      "hash": "0xc32a2524ed99088cbe623761b8516eeb9c33bb84553d90630be0c5f828dc4e4b",
      "transactionType": "CALL",
      "contractName": null,
      "contractAddress": "0x0897e91383ab942bc502549ed75aa8ea7538b5fe",
      "function": "getFeeTokenList()",
      "arguments": [],
      "transaction": {
        "from": "0xe62ab4d111f968660c6b2188046f9b9ba53c4bae",
        "to": "0x0897e91383ab942bc502549ed75aa8ea7538b5fe",
        "gas": "0x8a7e",
        "value": "0x0",
        "input": "0xe28ab277",
        "nonce": "0xbf",
        "chainId": "0x13882"
      },
      "additionalContracts": [],
      "isFixedGasLimit": false
    },
    {
      "hash": "0xf77ebde4d4cfebfd1c9185f75a4c3fac2f6cc92dc73ffd17cba7018b4f0fa952",
      "transactionType": "CALL",
      "contractName": null,
      "contractAddress": "0x0897e91383ab942bc502549ed75aa8ea7538b5fe",
      "function": "addFeeToken(string)",
      "arguments": [
        "0x6a4dbc971533ba36bdc23ad70f5a7a12e064f4ae"
      ],
      "transaction": {
        "from": "0xe62ab4d111f968660c6b2188046f9b9ba53c4bae",
        "to": "0x0897e91383ab942bc502549ed75aa8ea7538b5fe",
        "gas": "0x2696b",
        "value": "0x0",
        "input": "0x12a6385f0000000000000000000000000000000000000000000000000000000000000020000000000000000000000000000000000000000000000000000000000000002a30783661346462633937313533336261333662646332336164373066356137613132653036346634616500000000000000000000000000000000000000000000",
        "nonce": "0xc0",
        "chainId": "0x13882"
      },
      "additionalContracts": [],
      "isFixedGasLimit": false
    },
    {
      "hash": "0x7ac60f4d90a9854817a793e2964a2605340751702b15bfed9ad27d94e7d622a9",
      "transactionType": "CALL",
      "contractName": null,
      "contractAddress": "0x0897e91383ab942bc502549ed75aa8ea7538b5fe",
      "function": "setFeeMultiplier(uint8,uint256)",
      "arguments": [
        "0",
        "2"
      ],
      "transaction": {
        "from": "0xe62ab4d111f968660c6b2188046f9b9ba53c4bae",
        "to": "0x0897e91383ab942bc502549ed75aa8ea7538b5fe",
        "gas": "0x112e8",
        "value": "0x0",
        "input": "0x0ee24eb500000000000000000000000000000000000000000000000000000000000000000000000000000000000000000000000000000000000000000000000000000002",
        "nonce": "0xc1",
        "chainId": "0x13882"
      },
      "additionalContracts": [],
      "isFixedGasLimit": false
    },
    {
      "hash": "0x49dfc13e666f644852f59af3aa0055a5fc7ac8692ff10c4e95b89e2a6ccfec22",
      "transactionType": "CALL",
      "contractName": null,
      "contractAddress": "0x0897e91383ab942bc502549ed75aa8ea7538b5fe",
      "function": "setFeeMultiplier(uint8,uint256)",
      "arguments": [
        "1",
        "10"
      ],
      "transaction": {
        "from": "0xe62ab4d111f968660c6b2188046f9b9ba53c4bae",
        "to": "0x0897e91383ab942bc502549ed75aa8ea7538b5fe",
        "gas": "0x103d2",
        "value": "0x0",
        "input": "0x0ee24eb50000000000000000000000000000000000000000000000000000000000000001000000000000000000000000000000000000000000000000000000000000000a",
        "nonce": "0xc2",
        "chainId": "0x13882"
      },
      "additionalContracts": [],
      "isFixedGasLimit": false
    },
    {
      "hash": "0xe95d4562fab8b76868fcbbc014974ea9d020ea55cee8ded9bc87369df23faf81",
      "transactionType": "CALL",
      "contractName": null,
      "contractAddress": "0x0897e91383ab942bc502549ed75aa8ea7538b5fe",
      "function": "setFeeMultiplier(uint8,uint256)",
      "arguments": [
        "2",
        "1"
      ],
      "transaction": {
        "from": "0xe62ab4d111f968660c6b2188046f9b9ba53c4bae",
        "to": "0x0897e91383ab942bc502549ed75aa8ea7538b5fe",
        "gas": "0x1133d",
        "value": "0x0",
        "input": "0x0ee24eb500000000000000000000000000000000000000000000000000000000000000020000000000000000000000000000000000000000000000000000000000000001",
        "nonce": "0xc3",
        "chainId": "0x13882"
      },
      "additionalContracts": [],
      "isFixedGasLimit": false
    },
    {
      "hash": "0x767b4df3a14f5530cb88d44c1a85cfa9adcb78f6aaf1daf2f9ff811943a9208f",
      "transactionType": "CALL",
      "contractName": null,
      "contractAddress": "0x0897e91383ab942bc502549ed75aa8ea7538b5fe",
      "function": "setFeeMultiplier(uint8,uint256)",
      "arguments": [
        "3",
        "4"
      ],
      "transaction": {
        "from": "0xe62ab4d111f968660c6b2188046f9b9ba53c4bae",
        "to": "0x0897e91383ab942bc502549ed75aa8ea7538b5fe",
        "gas": "0x1135f",
        "value": "0x0",
        "input": "0x0ee24eb500000000000000000000000000000000000000000000000000000000000000030000000000000000000000000000000000000000000000000000000000000004",
        "nonce": "0xc4",
        "chainId": "0x13882"
      },
      "additionalContracts": [],
      "isFixedGasLimit": false
    },
    {
      "hash": "0xfcd1e9ceac8da28e12fb62f5935655788aec9253dded81d0b97abb68015c2eec",
      "transactionType": "CALL",
      "contractName": null,
      "contractAddress": "0x0897e91383ab942bc502549ed75aa8ea7538b5fe",
      "function": "setFeeMultiplier(uint8,uint256)",
      "arguments": [
        "4",
        "4"
      ],
      "transaction": {
        "from": "0xe62ab4d111f968660c6b2188046f9b9ba53c4bae",
        "to": "0x0897e91383ab942bc502549ed75aa8ea7538b5fe",
        "gas": "0x1042a",
        "value": "0x0",
        "input": "0x0ee24eb500000000000000000000000000000000000000000000000000000000000000040000000000000000000000000000000000000000000000000000000000000004",
        "nonce": "0xc5",
        "chainId": "0x13882"
      },
      "additionalContracts": [],
      "isFixedGasLimit": false
    },
    {
      "hash": "0x9ac98466f04afcb2393b6d633e0aa37ae6147fa3278b1a4f049d25de270fad49",
      "transactionType": "CALL",
      "contractName": null,
      "contractAddress": "0x0897e91383ab942bc502549ed75aa8ea7538b5fe",
      "function": "addFeeToken(string,string[],uint256[])",
      "arguments": [
        "421614",
        "[0x6a4dbc971533ba36bdc23ad70f5a7a12e064f4ae]",
        "[1000]"
      ],
      "transaction": {
        "from": "0xe62ab4d111f968660c6b2188046f9b9ba53c4bae",
        "to": "0x0897e91383ab942bc502549ed75aa8ea7538b5fe",
        "gas": "0x2f642",
        "value": "0x0",
        "input": "0x437bf84f000000000000000000000000000000000000000000000000000000000000006000000000000000000000000000000000000000000000000000000000000000a000000000000000000000000000000000000000000000000000000000000001400000000000000000000000000000000000000000000000000000000000000006343231363134000000000000000000000000000000000000000000000000000000000000000000000000000000000000000000000000000000000000000000010000000000000000000000000000000000000000000000000000000000000020000000000000000000000000000000000000000000000000000000000000002a30783661346462633937313533336261333662646332336164373066356137613132653036346634616500000000000000000000000000000000000000000000000000000000000000000000000000000000000000000000000000000000000100000000000000000000000000000000000000000000000000000000000003e8",
        "nonce": "0xc6",
        "chainId": "0x13882"
      },
      "additionalContracts": [],
      "isFixedGasLimit": false
    },
    {
      "hash": "0x0664ceafb67466778d5d4475c71846aa9a96d0169f6b0b38ea738feb2fec8074",
      "transactionType": "CALL",
      "contractName": null,
      "contractAddress": "0x0897e91383ab942bc502549ed75aa8ea7538b5fe",
      "function": "addFeeToken(string,string[],uint256[])",
      "arguments": [
        "84532",
        "[0x6a4dbc971533ba36bdc23ad70f5a7a12e064f4ae]",
        "[1000]"
      ],
      "transaction": {
        "from": "0xe62ab4d111f968660c6b2188046f9b9ba53c4bae",
        "to": "0x0897e91383ab942bc502549ed75aa8ea7538b5fe",
        "gas": "0x2a2b1",
        "value": "0x0",
        "input": "0x437bf84f000000000000000000000000000000000000000000000000000000000000006000000000000000000000000000000000000000000000000000000000000000a000000000000000000000000000000000000000000000000000000000000001400000000000000000000000000000000000000000000000000000000000000005383435333200000000000000000000000000000000000000000000000000000000000000000000000000000000000000000000000000000000000000000000010000000000000000000000000000000000000000000000000000000000000020000000000000000000000000000000000000000000000000000000000000002a30783661346462633937313533336261333662646332336164373066356137613132653036346634616500000000000000000000000000000000000000000000000000000000000000000000000000000000000000000000000000000000000100000000000000000000000000000000000000000000000000000000000003e8",
        "nonce": "0xc7",
        "chainId": "0x13882"
      },
      "additionalContracts": [],
      "isFixedGasLimit": false
    },
    {
      "hash": "0x01087575826165120f6051541323a09657a84ca5b12aa607cb5e4d255f1a58f9",
      "transactionType": "CALL",
      "contractName": null,
      "contractAddress": "0x0897e91383ab942bc502549ed75aa8ea7538b5fe",
      "function": "addFeeToken(string,string[],uint256[])",
      "arguments": [
        "97",
        "[0x6a4dbc971533ba36bdc23ad70f5a7a12e064f4ae]",
        "[1000]"
      ],
      "transaction": {
        "from": "0xe62ab4d111f968660c6b2188046f9b9ba53c4bae",
        "to": "0x0897e91383ab942bc502549ed75aa8ea7538b5fe",
        "gas": "0x29c69",
        "value": "0x0",
        "input": "0x437bf84f000000000000000000000000000000000000000000000000000000000000006000000000000000000000000000000000000000000000000000000000000000a000000000000000000000000000000000000000000000000000000000000001400000000000000000000000000000000000000000000000000000000000000002393700000000000000000000000000000000000000000000000000000000000000000000000000000000000000000000000000000000000000000000000000010000000000000000000000000000000000000000000000000000000000000020000000000000000000000000000000000000000000000000000000000000002a30783661346462633937313533336261333662646332336164373066356137613132653036346634616500000000000000000000000000000000000000000000000000000000000000000000000000000000000000000000000000000000000100000000000000000000000000000000000000000000000000000000000003e8",
        "nonce": "0xc8",
        "chainId": "0x13882"
      },
      "additionalContracts": [],
      "isFixedGasLimit": false
    },
    {
      "hash": "0xa30d2f9a4ee09260371e072c9905fbd7a631443599200f5118ba61067ff0f985",
      "transactionType": "CALL",
      "contractName": null,
      "contractAddress": "0x0897e91383ab942bc502549ed75aa8ea7538b5fe",
      "function": "addFeeToken(string,string[],uint256[])",
      "arguments": [
        "11155111",
        "[0x6a4dbc971533ba36bdc23ad70f5a7a12e064f4ae]",
        "[1000]"
      ],
      "transaction": {
        "from": "0xe62ab4d111f968660c6b2188046f9b9ba53c4bae",
        "to": "0x0897e91383ab942bc502549ed75aa8ea7538b5fe",
        "gas": "0x2a8fa",
        "value": "0x0",
        "input": "0x437bf84f000000000000000000000000000000000000000000000000000000000000006000000000000000000000000000000000000000000000000000000000000000a000000000000000000000000000000000000000000000000000000000000001400000000000000000000000000000000000000000000000000000000000000008313131353531313100000000000000000000000000000000000000000000000000000000000000000000000000000000000000000000000000000000000000010000000000000000000000000000000000000000000000000000000000000020000000000000000000000000000000000000000000000000000000000000002a30783661346462633937313533336261333662646332336164373066356137613132653036346634616500000000000000000000000000000000000000000000000000000000000000000000000000000000000000000000000000000000000100000000000000000000000000000000000000000000000000000000000003e8",
        "nonce": "0xc9",
        "chainId": "0x13882"
      },
      "additionalContracts": [],
      "isFixedGasLimit": false
    },
    {
      "hash": "0x061c07b7f4f8f07bb428407ac0764cd38b56e23ccdb33d5e4926f0b334242220",
      "transactionType": "CALL",
      "contractName": null,
      "contractAddress": "0x2927d422cbea7f315ee3e0660af2ed9b35302004",
      "function": "addChainContract(string[],string[])",
      "arguments": [
        "[421614, 84532, 97, 11155111]",
        "[0x358498985e6ac7ca73f5110b415525ae04cb8313, 0x6640ec42f86abcf799c21a070f7baf6db38a2ab9, 0x969035b34b913c507b87fd805fff608fb1fe13f0, 0x9266e8bf4943f2b366f2be89688a8622084db8b9]"
      ],
      "transaction": {
        "from": "0xe62ab4d111f968660c6b2188046f9b9ba53c4bae",
        "to": "0x2927d422cbea7f315ee3e0660af2ed9b35302004",
        "gas": "0xb40d2",
        "value": "0x0",
        "input": "0x013fd3bd000000000000000000000000000000000000000000000000000000000000004000000000000000000000000000000000000000000000000000000000000001e00000000000000000000000000000000000000000000000000000000000000004000000000000000000000000000000000000000000000000000000000000008000000000000000000000000000000000000000000000000000000000000000c000000000000000000000000000000000000000000000000000000000000001000000000000000000000000000000000000000000000000000000000000000140000000000000000000000000000000000000000000000000000000000000000634323136313400000000000000000000000000000000000000000000000000000000000000000000000000000000000000000000000000000000000000000005383435333200000000000000000000000000000000000000000000000000000000000000000000000000000000000000000000000000000000000000000000023937000000000000000000000000000000000000000000000000000000000000000000000000000000000000000000000000000000000000000000000000000831313135353131310000000000000000000000000000000000000000000000000000000000000000000000000000000000000000000000000000000000000004000000000000000000000000000000000000000000000000000000000000008000000000000000000000000000000000000000000000000000000000000000e0000000000000000000000000000000000000000000000000000000000000014000000000000000000000000000000000000000000000000000000000000001a0000000000000000000000000000000000000000000000000000000000000002a30783335383439383938356536616337636137336635313130623431353532356165303463623833313300000000000000000000000000000000000000000000000000000000000000000000000000000000000000000000000000000000002a30783636343065633432663836616263663739396332316130373066376261663664623338613261623900000000000000000000000000000000000000000000000000000000000000000000000000000000000000000000000000000000002a30783936393033356233346239313363353037623837666438303566666636303866623166653133663000000000000000000000000000000000000000000000000000000000000000000000000000000000000000000000000000000000002a30783932363665386266343934336632623336366632626538393638386138363232303834646238623900000000000000000000000000000000000000000000",
        "nonce": "0xca",
        "chainId": "0x13882"
      },
      "additionalContracts": [],
      "isFixedGasLimit": false
    },
    {
      "hash": "0xf916afae9bc17d98146a51b4be55dbb0d96788afaf553d9153e2345beb5d7e80",
      "transactionType": "CALL",
      "contractName": null,
      "contractAddress": "0x2927d422cbea7f315ee3e0660af2ed9b35302004",
      "function": "attachRWAX(uint256,uint256,string[],string[])",
      "arguments": [
        "1",
        "1",
        "[80002, 421614, 84532, 97, 11155111]",
        "[0x1b87108b35abb5751bfc64647e9d5cd1cb77e236, 0x9dc772b55e95a630031ebe431706d105af01cf03, 0x8230abab39f9c618282ddd0af1dfa278de7df98f, 0x66b719c489193594c617801e67119959cd15b63a, 0xb5638019cbfc1b523d5167a269e755b05bf24fd9]"
      ],
      "transaction": {
        "from": "0xe62ab4d111f968660c6b2188046f9b9ba53c4bae",
        "to": "0x2927d422cbea7f315ee3e0660af2ed9b35302004",
        "gas": "0xd6d44",
        "value": "0x0",
        "input": "0x33a5f5b40000000000000000000000000000000000000000000000000000000000000001000000000000000000000000000000000000000000000000000000000000000100000000000000000000000000000000000000000000000000000000000000800000000000000000000000000000000000000000000000000000000000000280000000000000000000000000000000000000000000000000000000000000000500000000000000000000000000000000000000000000000000000000000000a000000000000000000000000000000000000000000000000000000000000000e00000000000000000000000000000000000000000000000000000000000000120000000000000000000000000000000000000000000000000000000000000016000000000000000000000000000000000000000000000000000000000000001a00000000000000000000000000000000000000000000000000000000000000005383030303200000000000000000000000000000000000000000000000000000000000000000000000000000000000000000000000000000000000000000000063432313631340000000000000000000000000000000000000000000000000000000000000000000000000000000000000000000000000000000000000000000538343533320000000000000000000000000000000000000000000000000000000000000000000000000000000000000000000000000000000000000000000002393700000000000000000000000000000000000000000000000000000000000000000000000000000000000000000000000000000000000000000000000000083131313535313131000000000000000000000000000000000000000000000000000000000000000000000000000000000000000000000000000000000000000500000000000000000000000000000000000000000000000000000000000000a00000000000000000000000000000000000000000000000000000000000000100000000000000000000000000000000000000000000000000000000000000016000000000000000000000000000000000000000000000000000000000000001c00000000000000000000000000000000000000000000000000000000000000220000000000000000000000000000000000000000000000000000000000000002a30783162383731303862333561626235373531626663363436343765396435636431636237376532333600000000000000000000000000000000000000000000000000000000000000000000000000000000000000000000000000000000002a30783964633737326235356539356136333030333165626534333137303664313035616630316366303300000000000000000000000000000000000000000000000000000000000000000000000000000000000000000000000000000000002a30783832333061626162333966396336313832383264646430616631646661323738646537646639386600000000000000000000000000000000000000000000000000000000000000000000000000000000000000000000000000000000002a30783636623731396334383931393335393463363137383031653637313139393539636431356236336100000000000000000000000000000000000000000000000000000000000000000000000000000000000000000000000000000000002a30786235363338303139636266633162353233643531363761323639653735356230356266323466643900000000000000000000000000000000000000000000",
        "nonce": "0xcb",
        "chainId": "0x13882"
      },
      "additionalContracts": [],
      "isFixedGasLimit": false
    },
    {
      "hash": "0x9603d36d0c98e9e0dea849bd7697ad3cd5241133d5486658a4605322093b7fc6",
      "transactionType": "CALL",
      "contractName": null,
      "contractAddress": "0x2927d422cbea7f315ee3e0660af2ed9b35302004",
      "function": "attachStorageManager(uint256,uint256,string[],string[])",
      "arguments": [
        "1",
        "1",
        "[80002, 421614, 84532, 97, 11155111]",
        "[0x3418a45e442210ec9579b074ae9acb13b2a67554, 0xc047401f28f43ec8af8c5aaac26bf7d007e2474a, 0xaf685f104e7428311f25526180cbd416fa8668cd, 0xe569c146b0d4c1c941607b5c6a648b5877ae29ef, 0xa240b0714712e2927ec055ceaa8e031ac671a55f]"
      ],
      "transaction": {
        "from": "0xe62ab4d111f968660c6b2188046f9b9ba53c4bae",
        "to": "0x2927d422cbea7f315ee3e0660af2ed9b35302004",
        "gas": "0xd6d24",
        "value": "0x0",
        "input": "0x2f68b4890000000000000000000000000000000000000000000000000000000000000001000000000000000000000000000000000000000000000000000000000000000100000000000000000000000000000000000000000000000000000000000000800000000000000000000000000000000000000000000000000000000000000280000000000000000000000000000000000000000000000000000000000000000500000000000000000000000000000000000000000000000000000000000000a000000000000000000000000000000000000000000000000000000000000000e00000000000000000000000000000000000000000000000000000000000000120000000000000000000000000000000000000000000000000000000000000016000000000000000000000000000000000000000000000000000000000000001a00000000000000000000000000000000000000000000000000000000000000005383030303200000000000000000000000000000000000000000000000000000000000000000000000000000000000000000000000000000000000000000000063432313631340000000000000000000000000000000000000000000000000000000000000000000000000000000000000000000000000000000000000000000538343533320000000000000000000000000000000000000000000000000000000000000000000000000000000000000000000000000000000000000000000002393700000000000000000000000000000000000000000000000000000000000000000000000000000000000000000000000000000000000000000000000000083131313535313131000000000000000000000000000000000000000000000000000000000000000000000000000000000000000000000000000000000000000500000000000000000000000000000000000000000000000000000000000000a00000000000000000000000000000000000000000000000000000000000000100000000000000000000000000000000000000000000000000000000000000016000000000000000000000000000000000000000000000000000000000000001c00000000000000000000000000000000000000000000000000000000000000220000000000000000000000000000000000000000000000000000000000000002a30783334313861343565343432323130656339353739623037346165396163623133623261363735353400000000000000000000000000000000000000000000000000000000000000000000000000000000000000000000000000000000002a30786330343734303166323866343365633861663863356161616332366266376430303765323437346100000000000000000000000000000000000000000000000000000000000000000000000000000000000000000000000000000000002a30786166363835663130346537343238333131663235353236313830636264343136666138363638636400000000000000000000000000000000000000000000000000000000000000000000000000000000000000000000000000000000002a30786535363963313436623064346331633934313630376235633661363438623538373761653239656600000000000000000000000000000000000000000000000000000000000000000000000000000000000000000000000000000000002a30786132343062303731343731326532393237656330353563656161386530333161633637316135356600000000000000000000000000000000000000000000",
        "nonce": "0xcc",
        "chainId": "0x13882"
      },
      "additionalContracts": [],
      "isFixedGasLimit": false
    }
  ],
  "receipts": [
    {
      "status": "0x1",
      "cumulativeGasUsed": "0x5eb3",
      "logs": [
        {
          "address": "0x0000000000000000000000000000000000001010",
          "topics": [
            "0x4dfe1bbbcf077ddc3e01291eea2d5c70c2b422b415d95645b9adcfd678cb1d63",
            "0x0000000000000000000000000000000000000000000000000000000000001010",
            "0x000000000000000000000000e62ab4d111f968660c6b2188046f9b9ba53c4bae",
            "0x00000000000000000000000085ebd6dc97d56f62e371382b38eae91f3bb4ecb2"
          ],
          "data": "0x0000000000000000000000000000000000000000000000000015ca5ddcdbe218000000000000000000000000000000000000000000000002896867adce17419800000000000000000000000000000000000000000000005d9b09d8b5f601383a00000000000000000000000000000000000000000000000289529d4ff13b5f8000000000000000000000000000000000000000000000005d9b1fa313d2dd1a52",
          "blockHash": "0x5e36e9ad9020bdee3d652708c029ee943375e03f6f5b7cd5941cb72bd344eab8",
          "blockNumber": "0xd5fb90",
          "transactionHash": "0xc32a2524ed99088cbe623761b8516eeb9c33bb84553d90630be0c5f828dc4e4b",
          "transactionIndex": "0x0",
          "logIndex": "0x0",
          "removed": false
        }
      ],
      "logsBloom": "0x20000000000000000004000000000000000000000000020000000000000000000000000000000000000000000000000000008000000000000000000000000000000000000000000000000000000000800000000000000000000100000000000000000000000000000000000000000000000000000000000080000000000000000000000000000000000000000000040000000000000000000010000000000000200000000000000000000000000000000000000000000000000000000000004000000000000000000001000000000000000000000000000000100000000000000000000000020000000000000000000000000000000000000000000000100000",
      "type": "0x2",
      "transactionHash": "0xc32a2524ed99088cbe623761b8516eeb9c33bb84553d90630be0c5f828dc4e4b",
      "transactionIndex": "0x0",
      "blockHash": "0x5e36e9ad9020bdee3d652708c029ee943375e03f6f5b7cd5941cb72bd344eab8",
      "blockNumber": "0xd5fb90",
      "gasUsed": "0x5eb3",
      "effectiveGasPrice": "0x3ae7f9a197",
      "from": "0xe62ab4d111f968660c6b2188046f9b9ba53c4bae",
      "to": "0x0897e91383ab942bc502549ed75aa8ea7538b5fe",
      "contractAddress": null
    },
    {
      "status": "0x1",
      "cumulativeGasUsed": "0x1bf00",
      "logs": [
        {
          "address": "0x0897e91383ab942bc502549ed75aa8ea7538b5fe",
          "topics": [
            "0x1394cfab38f3fc78ed77ea6f9318782a446d96e7dc8e9a6b0149f6be25c08bcf",
            "0x0000000000000000000000006a4dbc971533ba36bdc23ad70f5a7a12e064f4ae"
          ],
          "data": "0x",
          "blockHash": "0x08bc1548e233a903ba41d6a142994beaa7bc5a4c14bfd6719795bebdaec7808b",
          "blockNumber": "0xd5fb94",
          "transactionHash": "0xf77ebde4d4cfebfd1c9185f75a4c3fac2f6cc92dc73ffd17cba7018b4f0fa952",
          "transactionIndex": "0x0",
          "logIndex": "0x0",
          "removed": false
        },
        {
          "address": "0x0000000000000000000000000000000000001010",
          "topics": [
            "0x4dfe1bbbcf077ddc3e01291eea2d5c70c2b422b415d95645b9adcfd678cb1d63",
            "0x0000000000000000000000000000000000000000000000000000000000001010",
            "0x000000000000000000000000e62ab4d111f968660c6b2188046f9b9ba53c4bae",
            "0x00000000000000000000000085ebd6dc97d56f62e371382b38eae91f3bb4ecb2"
          ],
          "data": "0x0000000000000000000000000000000000000000000000000066db0ce10c780000000000000000000000000000000000000000000000000289529d4ff135d30300000000000000000000000000000000000000000000005d9c0d43e02999265a00000000000000000000000000000000000000000000000288ebc24310295b0300000000000000000000000000000000000000000000005d9c741eed0aa59e5a",
          "blockHash": "0x08bc1548e233a903ba41d6a142994beaa7bc5a4c14bfd6719795bebdaec7808b",
          "blockNumber": "0xd5fb94",
          "transactionHash": "0xf77ebde4d4cfebfd1c9185f75a4c3fac2f6cc92dc73ffd17cba7018b4f0fa952",
          "transactionIndex": "0x0",
          "logIndex": "0x1",
          "removed": false
        }
      ],
      "logsBloom": "0x20000000000000000004000000000000000200000000020000000000000000000000000000000000000000000000000000008000000000001000000000000000800000000000000000000000000000800000001000000000100100000000000000000000000000000000000000000000000000000000000080200000000000000000000100000000000000000000040000000000000000000010000000000000200000000000000000000000000000000000000100000000000000000000004000000000000000000001000000000000000000002000000000100000000000000000000000020000000000000000000000000000000000000000000000100000",
      "type": "0x2",
      "transactionHash": "0xf77ebde4d4cfebfd1c9185f75a4c3fac2f6cc92dc73ffd17cba7018b4f0fa952",
      "transactionIndex": "0x0",
      "blockHash": "0x08bc1548e233a903ba41d6a142994beaa7bc5a4c14bfd6719795bebdaec7808b",
      "blockNumber": "0xd5fb94",
      "gasUsed": "0x1bf00",
      "effectiveGasPrice": "0x3ae7f9a197",
      "from": "0xe62ab4d111f968660c6b2188046f9b9ba53c4bae",
      "to": "0x0897e91383ab942bc502549ed75aa8ea7538b5fe",
      "contractAddress": null
    },
    {
      "status": "0x1",
      "cumulativeGasUsed": "0xbbf9",
      "logs": [
        {
          "address": "0x0000000000000000000000000000000000001010",
          "topics": [
            "0x4dfe1bbbcf077ddc3e01291eea2d5c70c2b422b415d95645b9adcfd678cb1d63",
            "0x0000000000000000000000000000000000000000000000000000000000001010",
            "0x000000000000000000000000e62ab4d111f968660c6b2188046f9b9ba53c4bae",
            "0x00000000000000000000000085ebd6dc97d56f62e371382b38eae91f3bb4ecb2"
          ],
          "data": "0x000000000000000000000000000000000000000000000000002b40befacc754800000000000000000000000000000000000000000000000288ebc243100f2a0300000000000000000000000000000000000000000000005d9cac83d5e770915200000000000000000000000000000000000000000000000288c081841542b4bb00000000000000000000000000000000000000000000005d9cd7c494e23d069a",
          "blockHash": "0xa3f3b7eeb9536eca6e2f25254c017bc64e42d2b168777d00cb8b3a13d03fc6ea",
          "blockNumber": "0xd5fb97",
          "transactionHash": "0x7ac60f4d90a9854817a793e2964a2605340751702b15bfed9ad27d94e7d622a9",
          "transactionIndex": "0x0",
          "logIndex": "0x0",
          "removed": false
        }
      ],
      "logsBloom": "0x20000000000000000004000000000000000000000000020000000000000000000000000000000000000000000000000000008000000000000000000000000000000000000000000000000000000000800000000000000000000100000000000000000000000000000000000000000000000000000000000080000000000000000000000000000000000000000000040000000000000000000010000000000000200000000000000000000000000000000000000000000000000000000000004000000000000000000001000000000000000000000000000000100000000000000000000000020000000000000000000000000000000000000000000000100000",
      "type": "0x2",
      "transactionHash": "0x7ac60f4d90a9854817a793e2964a2605340751702b15bfed9ad27d94e7d622a9",
      "transactionIndex": "0x0",
      "blockHash": "0xa3f3b7eeb9536eca6e2f25254c017bc64e42d2b168777d00cb8b3a13d03fc6ea",
      "blockNumber": "0xd5fb97",
      "gasUsed": "0xbbf9",
      "effectiveGasPrice": "0x3ae7f9a197",
      "from": "0xe62ab4d111f968660c6b2188046f9b9ba53c4bae",
      "to": "0x0897e91383ab942bc502549ed75aa8ea7538b5fe",
      "contractAddress": null
    },
    {
      "status": "0x1",
      "cumulativeGasUsed": "0xbc1c",
      "logs": [
        {
          "address": "0x0000000000000000000000000000000000001010",
          "topics": [
            "0x4dfe1bbbcf077ddc3e01291eea2d5c70c2b422b415d95645b9adcfd678cb1d63",
            "0x0000000000000000000000000000000000000000000000000000000000001010",
            "0x000000000000000000000000e62ab4d111f968660c6b2188046f9b9ba53c4bae",
            "0x00000000000000000000000085ebd6dc97d56f62e371382b38eae91f3bb4ecb2"
          ],
          "data": "0x000000000000000000000000000000000000000000000000002b48ccb1ed8ae000000000000000000000000000000000000000000000000288c081841537b12400000000000000000000000000000000000000000000005d9d067ea080a5a0c8000000000000000000000000000000000000000000000002889538b7634a264400000000000000000000000000000000000000000000005d9d31c76d32932ba8",
          "blockHash": "0x81da15608137c185bf414d4f68b425b62356eafb1f01f4ce64bd843c4e23df76",
          "blockNumber": "0xd5fb9b",
          "transactionHash": "0x49dfc13e666f644852f59af3aa0055a5fc7ac8692ff10c4e95b89e2a6ccfec22",
          "transactionIndex": "0x0",
          "logIndex": "0x0",
          "removed": false
        }
      ],
      "logsBloom": "0x20000000000000000004000000000000000000000000020000000000000000000000000000000000000000000000000000008000000000000000000000000000000000000000000000000000000000800000000000000000000100000000000000000000000000000000000000000000000000000000000080000000000000000000000000000000000000000000040000000000000000000010000000000000200000000000000000000000000000000000000000000000000000000000004000000000000000000001000000000000000000000000000000100000000000000000000000020000000000000000000000000000000000000000000000100000",
      "type": "0x2",
      "transactionHash": "0x49dfc13e666f644852f59af3aa0055a5fc7ac8692ff10c4e95b89e2a6ccfec22",
      "transactionIndex": "0x0",
      "blockHash": "0x81da15608137c185bf414d4f68b425b62356eafb1f01f4ce64bd843c4e23df76",
      "blockNumber": "0xd5fb9b",
      "gasUsed": "0xbc1c",
      "effectiveGasPrice": "0x3ae7f9a197",
      "from": "0xe62ab4d111f968660c6b2188046f9b9ba53c4bae",
      "to": "0x0897e91383ab942bc502549ed75aa8ea7538b5fe",
      "contractAddress": null
    },
    {
      "status": "0x1",
      "cumulativeGasUsed": "0xa612d",
      "logs": [
        {
          "address": "0x0000000000000000000000000000000000001010",
          "topics": [
            "0x4dfe1bbbcf077ddc3e01291eea2d5c70c2b422b415d95645b9adcfd678cb1d63",
            "0x0000000000000000000000000000000000000000000000000000000000001010",
            "0x000000000000000000000000e62ab4d111f968660c6b2188046f9b9ba53c4bae",
            "0x00000000000000000000000085ebd6dc97d56f62e371382b38eae91f3bb4ecb2"
          ],
          "data": "0x000000000000000000000000000000000000000000000000002b4e17895b0e18000000000000000000000000000000000000000000000002889538b7633f20a000000000000000000000000000000000000000000000005da417ca6fe7fd25f70000000000000000000000000000000000000000000000028869ea9fd9e4128800000000000000000000000000000000000000000000005da44318877158340f",
          "blockHash": "0x68da1258421f3f3ea27eaded7b9be8a5d528c19d7344b558a50540cc06a48e5c",
          "blockNumber": "0xd5fb9f",
          "transactionHash": "0xe95d4562fab8b76868fcbbc014974ea9d020ea55cee8ded9bc87369df23faf81",
          "transactionIndex": "0x1",
          "logIndex": "0xe",
          "removed": false
        }
      ],
      "logsBloom": "0x20000000000000000004000000000000000000000000020000000000000000000000000000000000000000000000000000008000000000000000000000000000000000000000000000000000000000800000000000000000000100000000000000000000000000000000000000000000000000000000000080000000000000000000000000000000000000000000040000000000000000000010000000000000200000000000000000000000000000000000000000000000000000000000004000000000000000000001000000000000000000000000000000100000000000000000000000020000000000000000000000000000000000000000000000100000",
      "type": "0x2",
      "transactionHash": "0xe95d4562fab8b76868fcbbc014974ea9d020ea55cee8ded9bc87369df23faf81",
      "transactionIndex": "0x1",
      "blockHash": "0x68da1258421f3f3ea27eaded7b9be8a5d528c19d7344b558a50540cc06a48e5c",
      "blockNumber": "0xd5fb9f",
      "gasUsed": "0xbc33",
      "effectiveGasPrice": "0x3ae7f9a197",
      "from": "0xe62ab4d111f968660c6b2188046f9b9ba53c4bae",
      "to": "0x0897e91383ab942bc502549ed75aa8ea7538b5fe",
      "contractAddress": null
    },
    {
      "status": "0x1",
      "cumulativeGasUsed": "0x2f232",
      "logs": [
        {
          "address": "0x0000000000000000000000000000000000001010",
          "topics": [
            "0x4dfe1bbbcf077ddc3e01291eea2d5c70c2b422b415d95645b9adcfd678cb1d63",
            "0x0000000000000000000000000000000000000000000000000000000000001010",
            "0x000000000000000000000000e62ab4d111f968660c6b2188046f9b9ba53c4bae",
            "0x0000000000000000000000004631753190f2f5a15a7ba172bbac102b7d95fa22"
          ],
          "data": "0x000000000000000000000000000000000000000000000000002b536260c891500000000000000000000000000000000000000000000000028869ea9fd9d90b8b00000000000000000000000000000000000000000000029c360a9b7f9c3a32b5000000000000000000000000000000000000000000000002883e973d79107a3b00000000000000000000000000000000000000000000029c3635eee1fd02c405",
          "blockHash": "0x9a7fbf1b06087f2d5d034c2e5b7c573ff68d9ca0ed2bf6d0e999ef32ccbc6bad",
          "blockNumber": "0xd5fba1",
          "transactionHash": "0x767b4df3a14f5530cb88d44c1a85cfa9adcb78f6aaf1daf2f9ff811943a9208f",
          "transactionIndex": "0x2",
          "logIndex": "0x6",
          "removed": false
        }
      ],
      "logsBloom": "0x20000000000000000004000000000000000000002000000000000000000000000000000000000000000000000000000000008000000000000000000040000000000000000000000000000000000000800000000000000000000100000000000000000000000000100000000000000000000000000000000080000000000000000000000000000000000000000000040000000000000000000000000000000000200000000000000000000000000000000000000000000000000000000000004000000000000000000001000000000000000000000000000000100000000000000000000000000000000000000000000000000000000000000000000000100000",
      "type": "0x2",
      "transactionHash": "0x767b4df3a14f5530cb88d44c1a85cfa9adcb78f6aaf1daf2f9ff811943a9208f",
      "transactionIndex": "0x2",
      "blockHash": "0x9a7fbf1b06087f2d5d034c2e5b7c573ff68d9ca0ed2bf6d0e999ef32ccbc6bad",
      "blockNumber": "0xd5fba1",
      "gasUsed": "0xbc4a",
      "effectiveGasPrice": "0x3ae7f9a197",
      "from": "0xe62ab4d111f968660c6b2188046f9b9ba53c4bae",
      "to": "0x0897e91383ab942bc502549ed75aa8ea7538b5fe",
      "contractAddress": null
    },
    {
      "status": "0x1",
      "cumulativeGasUsed": "0xbc5c",
      "logs": [
        {
          "address": "0x0000000000000000000000000000000000001010",
          "topics": [
            "0x4dfe1bbbcf077ddc3e01291eea2d5c70c2b422b415d95645b9adcfd678cb1d63",
            "0x0000000000000000000000000000000000000000000000000000000000001010",
            "0x000000000000000000000000e62ab4d111f968660c6b2188046f9b9ba53c4bae",
            "0x0000000000000000000000004631753190f2f5a15a7ba172bbac102b7d95fa22"
          ],
          "data": "0x000000000000000000000000000000000000000000000000002b5786b055ece0000000000000000000000000000000000000000000000002883e973d790571e500000000000000000000000000000000000000000000029c378b986d16b2e26900000000000000000000000000000000000000000000000288133fb6c8af850500000000000000000000000000000000000000000000029c37b6eff3c708cf49",
          "blockHash": "0x92c45aba197fdc0cd771d976be728eb23f2e9b7d1d96a96d6cb9170cd5c162cb",
          "blockNumber": "0xd5fba5",
          "transactionHash": "0xfcd1e9ceac8da28e12fb62f5935655788aec9253dded81d0b97abb68015c2eec",
          "transactionIndex": "0x0",
          "logIndex": "0x0",
          "removed": false
        }
      ],
      "logsBloom": "0x20000000000000000004000000000000000000002000000000000000000000000000000000000000000000000000000000008000000000000000000040000000000000000000000000000000000000800000000000000000000100000000000000000000000000100000000000000000000000000000000080000000000000000000000000000000000000000000040000000000000000000000000000000000200000000000000000000000000000000000000000000000000000000000004000000000000000000001000000000000000000000000000000100000000000000000000000000000000000000000000000000000000000000000000000100000",
      "type": "0x2",
      "transactionHash": "0xfcd1e9ceac8da28e12fb62f5935655788aec9253dded81d0b97abb68015c2eec",
      "transactionIndex": "0x0",
      "blockHash": "0x92c45aba197fdc0cd771d976be728eb23f2e9b7d1d96a96d6cb9170cd5c162cb",
      "blockNumber": "0xd5fba5",
      "gasUsed": "0xbc5c",
      "effectiveGasPrice": "0x3ae7f9a197",
      "from": "0xe62ab4d111f968660c6b2188046f9b9ba53c4bae",
      "to": "0x0897e91383ab942bc502549ed75aa8ea7538b5fe",
      "contractAddress": null
    },
    {
      "status": "0x1",
      "cumulativeGasUsed": "0x53633",
      "logs": [
        {
          "address": "0x0000000000000000000000000000000000001010",
          "topics": [
            "0x4dfe1bbbcf077ddc3e01291eea2d5c70c2b422b415d95645b9adcfd678cb1d63",
            "0x0000000000000000000000000000000000000000000000000000000000001010",
            "0x000000000000000000000000e62ab4d111f968660c6b2188046f9b9ba53c4bae",
            "0x0000000000000000000000004631753190f2f5a15a7ba172bbac102b7d95fa22"
          ],
          "data": "0x000000000000000000000000000000000000000000000000007e51a3179b9bc000000000000000000000000000000000000000000000000288133fb6c8a47ba100000000000000000000000000000000000000000000029c39673f883712ea0d0000000000000000000000000000000000000000000000028794ee13b108dfe100000000000000000000000000000000000000000000029c39e5912b4eae85cd",
          "blockHash": "0x66027be1b9065487787be54ce12da27687dd2ce1e66c048c02240c69b16110d2",
          "blockNumber": "0xd5fba9",
          "transactionHash": "0x9ac98466f04afcb2393b6d633e0aa37ae6147fa3278b1a4f049d25de270fad49",
          "transactionIndex": "0x2",
          "logIndex": "0x7",
          "removed": false
        }
      ],
      "logsBloom": "0x20000000000000000004000000000000000000002000000000000000000000000000000000000000000000000000000000008000000000000000000040000000000000000000000000000000000000800000000000000000000100000000000000000000000000100000000000000000000000000000000080000000000000000000000000000000000000000000040000000000000000000000000000000000200000000000000000000000000000000000000000000000000000000000004000000000000000000001000000000000000000000000000000100000000000000000000000000000000000000000000000000000000000000000000000100000",
      "type": "0x2",
      "transactionHash": "0x9ac98466f04afcb2393b6d633e0aa37ae6147fa3278b1a4f049d25de270fad49",
      "transactionIndex": "0x2",
      "blockHash": "0x66027be1b9065487787be54ce12da27687dd2ce1e66c048c02240c69b16110d2",
      "blockNumber": "0xd5fba9",
      "gasUsed": "0x224f8",
      "effectiveGasPrice": "0x3ae7f9a197",
      "from": "0xe62ab4d111f968660c6b2188046f9b9ba53c4bae",
      "to": "0x0897e91383ab942bc502549ed75aa8ea7538b5fe",
      "contractAddress": null
    },
    {
      "status": "0x1",
      "cumulativeGasUsed": "0x1e878",
      "logs": [
        {
          "address": "0x0000000000000000000000000000000000001010",
          "topics": [
            "0x4dfe1bbbcf077ddc3e01291eea2d5c70c2b422b415d95645b9adcfd678cb1d63",
            "0x0000000000000000000000000000000000000000000000000000000000001010",
            "0x000000000000000000000000e62ab4d111f968660c6b2188046f9b9ba53c4bae",
            "0x0000000000000000000000004631753190f2f5a15a7ba172bbac102b7d95fa22"
          ],
          "data": "0x000000000000000000000000000000000000000000000000007065d098eef7c00000000000000000000000000000000000000000000000028794ee13b0e8b55900000000000000000000000000000000000000000000029c39e5912b4eae85cd0000000000000000000000000000000000000000000000028724884317f9bd9900000000000000000000000000000000000000000000029c3a55f6fbe79d7d8d",
          "blockHash": "0x2936eaaa8884763668606686c12fe57294bd916e79d1f89559bd28f1d0c2549c",
          "blockNumber": "0xd5fbac",
          "transactionHash": "0x0664ceafb67466778d5d4475c71846aa9a96d0169f6b0b38ea738feb2fec8074",
          "transactionIndex": "0x0",
          "logIndex": "0x0",
          "removed": false
        }
      ],
      "logsBloom": "0x20000000000000000004000000000000000000002000000000000000000000000000000000000000000000000000000000008000000000000000000040000000000000000000000000000000000000800000000000000000000100000000000000000000000000100000000000000000000000000000000080000000000000000000000000000000000000000000040000000000000000000000000000000000200000000000000000000000000000000000000000000000000000000000004000000000000000000001000000000000000000000000000000100000000000000000000000000000000000000000000000000000000000000000000000100000",
      "type": "0x2",
      "transactionHash": "0x0664ceafb67466778d5d4475c71846aa9a96d0169f6b0b38ea738feb2fec8074",
      "transactionIndex": "0x0",
      "blockHash": "0x2936eaaa8884763668606686c12fe57294bd916e79d1f89559bd28f1d0c2549c",
      "blockNumber": "0xd5fbac",
      "gasUsed": "0x1e878",
      "effectiveGasPrice": "0x3ae7f9a197",
      "from": "0xe62ab4d111f968660c6b2188046f9b9ba53c4bae",
      "to": "0x0897e91383ab942bc502549ed75aa8ea7538b5fe",
      "contractAddress": null
    },
    {
      "status": "0x1",
      "cumulativeGasUsed": "0xb7ee7",
      "logs": [
        {
          "address": "0x0000000000000000000000000000000000001010",
          "topics": [
            "0x4dfe1bbbcf077ddc3e01291eea2d5c70c2b422b415d95645b9adcfd678cb1d63",
            "0x0000000000000000000000000000000000000000000000000000000000001010",
            "0x000000000000000000000000e62ab4d111f968660c6b2188046f9b9ba53c4bae",
            "0x0000000000000000000000004631753190f2f5a15a7ba172bbac102b7d95fa22"
          ],
          "data": "0x000000000000000000000000000000000000000000000000006f59f9d5e481600000000000000000000000000000000000000000000000028724884317dd1e9100000000000000000000000000000000000000000000029c3ed16605a8b1478200000000000000000000000000000000000000000000000286b52e4941f89d3100000000000000000000000000000000000000000000029c3f40bfff7e95c8e2",
          "blockHash": "0xf02886f214fc99d49c6b03ea80cc5c0ddc5fb1970975c2469d22ba2870e1aac0",
          "blockNumber": "0xd5fbaf",
          "transactionHash": "0x01087575826165120f6051541323a09657a84ca5b12aa607cb5e4d255f1a58f9",
          "transactionIndex": "0x1",
          "logIndex": "0x11",
          "removed": false
        }
      ],
      "logsBloom": "0x20000000000000000004000000000000000000002000000000000000000000000000000000000000000000000000000000008000000000000000000040000000000000000000000000000000000000800000000000000000000100000000000000000000000000100000000000000000000000000000000080000000000000000000000000000000000000000000040000000000000000000000000000000000200000000000000000000000000000000000000000000000000000000000004000000000000000000001000000000000000000000000000000100000000000000000000000000000000000000000000000000000000000000000000000100000",
      "type": "0x2",
      "transactionHash": "0x01087575826165120f6051541323a09657a84ca5b12aa607cb5e4d255f1a58f9",
      "transactionIndex": "0x1",
      "blockHash": "0xf02886f214fc99d49c6b03ea80cc5c0ddc5fb1970975c2469d22ba2870e1aac0",
      "blockNumber": "0xd5fbaf",
      "gasUsed": "0x1e3ec",
      "effectiveGasPrice": "0x3ae7f9a197",
      "from": "0xe62ab4d111f968660c6b2188046f9b9ba53c4bae",
      "to": "0x0897e91383ab942bc502549ed75aa8ea7538b5fe",
      "contractAddress": null
    },
    {
      "status": "0x1",
      "cumulativeGasUsed": "0x1ed04",
      "logs": [
        {
          "address": "0x0000000000000000000000000000000000001010",
          "topics": [
            "0x4dfe1bbbcf077ddc3e01291eea2d5c70c2b422b415d95645b9adcfd678cb1d63",
            "0x0000000000000000000000000000000000000000000000000000000000001010",
            "0x000000000000000000000000e62ab4d111f968660c6b2188046f9b9ba53c4bae",
            "0x000000000000000000000000ba60fe9f3372f53397bee44e2a4d3087aa5f281f"
          ],
          "data": "0x000000000000000000000000000000000000000000000000007171a75bf96e2000000000000000000000000000000000000000000000000286b52e4941dc425d0000000000000000000000000000000000000000000000130772c26d763937cb0000000000000000000000000000000000000000000000028643bca1e5e2d43d00000000000000000000000000000000000000000000001307e43414d232a5eb",
          "blockHash": "0xcbc55201a609787f42b45aa9b07a463a5425e71a9797259d1e75b9c964b1dff5",
          "blockNumber": "0xd5fbb2",
          "transactionHash": "0xa30d2f9a4ee09260371e072c9905fbd7a631443599200f5118ba61067ff0f985",
          "transactionIndex": "0x0",
          "logIndex": "0x0",
          "removed": false
        }
      ],
      "logsBloom": "0x20000000000000000004000000004000000000000000000000000000000000000000000000000000000000000000000000008000000000000000000000000000000000000000000000000000000000800000000000000000000100000000000000000000000000000000000000000000000000000000000080000000000000000000000000000000000000000000040000004000000000000000000000000000200000000000000000000000000040000000000000000000000000000000004000000000000000000001000000000000000000000000000000100000000000000000000000000000000000000000000000000000000000000000000000100000",
      "type": "0x2",
      "transactionHash": "0xa30d2f9a4ee09260371e072c9905fbd7a631443599200f5118ba61067ff0f985",
      "transactionIndex": "0x0",
      "blockHash": "0xcbc55201a609787f42b45aa9b07a463a5425e71a9797259d1e75b9c964b1dff5",
      "blockNumber": "0xd5fbb2",
      "gasUsed": "0x1ed04",
      "effectiveGasPrice": "0x3ae7f9a197",
      "from": "0xe62ab4d111f968660c6b2188046f9b9ba53c4bae",
      "to": "0x0897e91383ab942bc502549ed75aa8ea7538b5fe",
      "contractAddress": null
    },
    {
      "status": "0x1",
      "cumulativeGasUsed": "0x7b1cb",
      "logs": [
        {
          "address": "0x0000000000000000000000000000000000001010",
          "topics": [
            "0x4dfe1bbbcf077ddc3e01291eea2d5c70c2b422b415d95645b9adcfd678cb1d63",
            "0x0000000000000000000000000000000000000000000000000000000000001010",
            "0x000000000000000000000000e62ab4d111f968660c6b2188046f9b9ba53c4bae",
            "0x000000000000000000000000ba60fe9f3372f53397bee44e2a4d3087aa5f281f"
          ],
          "data": "0x00000000000000000000000000000000000000000000000001c540ecf65a1ed80000000000000000000000000000000000000000000000028643bca1e5c5f101000000000000000000000000000000000000000000000013083e764c136e21ab000000000000000000000000000000000000000000000002847e7bb4ef6bd2290000000000000000000000000000000000000000000000130a03b73909c84083",
          "blockHash": "0x3fc6213518fdc3fb249728a693eb2070cccadf4b1847a68884895ef321c6ebe8",
          "blockNumber": "0xd5fbb6",
          "transactionHash": "0x061c07b7f4f8f07bb428407ac0764cd38b56e23ccdb33d5e4926f0b334242220",
          "transactionIndex": "0x0",
          "logIndex": "0x0",
          "removed": false
        }
      ],
      "logsBloom": "0x20000000000000000004000000004000000000000000000000000000000000000000000000000000000000000000000000008000000000000000000000000000000000000000000000000000000000800000000000000000000100000000000000000000000000000000000000000000000000000000000080000000000000000000000000000000000000000000040000004000000000000000000000000000200000000000000000000000000040000000000000000000000000000000004000000000000000000001000000000000000000000000000000100000000000000000000000000000000000000000000000000000000000000000000000100000",
      "type": "0x2",
      "transactionHash": "0x061c07b7f4f8f07bb428407ac0764cd38b56e23ccdb33d5e4926f0b334242220",
      "transactionIndex": "0x0",
      "blockHash": "0x3fc6213518fdc3fb249728a693eb2070cccadf4b1847a68884895ef321c6ebe8",
      "blockNumber": "0xd5fbb6",
      "gasUsed": "0x7b1cb",
      "effectiveGasPrice": "0x3ae7f9a197",
      "from": "0xe62ab4d111f968660c6b2188046f9b9ba53c4bae",
      "to": "0x2927d422cbea7f315ee3e0660af2ed9b35302004",
      "contractAddress": null
    },
    {
      "status": "0x1",
      "cumulativeGasUsed": "0x9b885",
      "logs": [
        {
          "address": "0x0000000000000000000000000000000000001010",
          "topics": [
            "0x4dfe1bbbcf077ddc3e01291eea2d5c70c2b422b415d95645b9adcfd678cb1d63",
            "0x0000000000000000000000000000000000000000000000000000000000001010",
            "0x000000000000000000000000e62ab4d111f968660c6b2188046f9b9ba53c4bae",
            "0x000000000000000000000000ba60fe9f3372f53397bee44e2a4d3087aa5f281f"
          ],
          "data": "0x000000000000000000000000000000000000000000000000023c9d1c9e92aba8000000000000000000000000000000000000000000000002847e7bb4eef867440000000000000000000000000000000000000000000000130a03b73909c840830000000000000000000000000000000000000000000000028241de985065bb9c0000000000000000000000000000000000000000000000130c405455a85aec2b",
          "blockHash": "0xe5ad8876e1b98aa78cea725b45f98cbda0ec871b9854c5a4857b68e678744668",
          "blockNumber": "0xd5fbb9",
          "transactionHash": "0xf916afae9bc17d98146a51b4be55dbb0d96788afaf553d9153e2345beb5d7e80",
          "transactionIndex": "0x0",
          "logIndex": "0x0",
          "removed": false
        }
      ],
      "logsBloom": "0x20000000000000000004000000004000000000000000000000000000000000000000000000000000000000000000000000008000000000000000000000000000000000000000000000000000000000800000000000000000000100000000000000000000000000000000000000000000000000000000000080000000000000000000000000000000000000000000040000004000000000000000000000000000200000000000000000000000000040000000000000000000000000000000004000000000000000000001000000000000000000000000000000100000000000000000000000000000000000000000000000000000000000000000000000100000",
      "type": "0x2",
      "transactionHash": "0xf916afae9bc17d98146a51b4be55dbb0d96788afaf553d9153e2345beb5d7e80",
      "transactionIndex": "0x0",
      "blockHash": "0xe5ad8876e1b98aa78cea725b45f98cbda0ec871b9854c5a4857b68e678744668",
      "blockNumber": "0xd5fbb9",
      "gasUsed": "0x9b885",
      "effectiveGasPrice": "0x3ae7f9a197",
      "from": "0xe62ab4d111f968660c6b2188046f9b9ba53c4bae",
      "to": "0x2927d422cbea7f315ee3e0660af2ed9b35302004",
      "contractAddress": null
    },
    {
      "status": "0x1",
      "cumulativeGasUsed": "0x9b86f",
      "logs": [
        {
          "address": "0x0000000000000000000000000000000000001010",
          "topics": [
            "0x4dfe1bbbcf077ddc3e01291eea2d5c70c2b422b415d95645b9adcfd678cb1d63",
            "0x0000000000000000000000000000000000000000000000000000000000001010",
            "0x000000000000000000000000e62ab4d111f968660c6b2188046f9b9ba53c4bae",
            "0x000000000000000000000000ba60fe9f3372f53397bee44e2a4d3087aa5f281f"
          ],
          "data": "0x000000000000000000000000000000000000000000000000023c980caf1ec9f80000000000000000000000000000000000000000000000028241de984fd3ebd10000000000000000000000000000000000000000000000130cb977b76c1e32eb0000000000000000000000000000000000000000000000028005468ba0b521d90000000000000000000000000000000000000000000000130ef60fc41b3cfce3",
          "blockHash": "0x11c72ad621a30a9830c377343a5889bd12e606a2f759a02340f3387341f77f65",
          "blockNumber": "0xd5fbbd",
          "transactionHash": "0x9603d36d0c98e9e0dea849bd7697ad3cd5241133d5486658a4605322093b7fc6",
          "transactionIndex": "0x0",
          "logIndex": "0x0",
          "removed": false
        }
      ],
      "logsBloom": "0x20000000000000000004000000004000000000000000000000000000000000000000000000000000000000000000000000008000000000000000000000000000000000000000000000000000000000800000000000000000000100000000000000000000000000000000000000000000000000000000000080000000000000000000000000000000000000000000040000004000000000000000000000000000200000000000000000000000000040000000000000000000000000000000004000000000000000000001000000000000000000000000000000100000000000000000000000000000000000000000000000000000000000000000000000100000",
      "type": "0x2",
      "transactionHash": "0x9603d36d0c98e9e0dea849bd7697ad3cd5241133d5486658a4605322093b7fc6",
      "transactionIndex": "0x0",
      "blockHash": "0x11c72ad621a30a9830c377343a5889bd12e606a2f759a02340f3387341f77f65",
      "blockNumber": "0xd5fbbd",
      "gasUsed": "0x9b86f",
      "effectiveGasPrice": "0x3ae7f9a197",
      "from": "0xe62ab4d111f968660c6b2188046f9b9ba53c4bae",
      "to": "0x2927d422cbea7f315ee3e0660af2ed9b35302004",
      "contractAddress": null
    }
  ],
  "libraries": [],
  "pending": [],
  "returns": {},
  "timestamp": 1730749273,
  "chain": 80002,
  "commit": "34a11392"
}