{
  "transactions": [
    {
      "hash": "0x816c29494e2dc44439083f3258cb3ff3af7988f7381ceadb3b6dd8d438a8a690",
      "transactionType": "CALL",
      "contractName": null,
      "contractAddress": "0x66db3f564807fdc689ec85285981ef464daeb943",
      "function": "addChainContract(string[],string[])",
      "arguments": [
        "[5003, 153]",
        "[0x9dc772b55e95a630031ebe431706d105af01cf03, 0x24a74106195acd7e3e0a8cc17fd44761cc32474a]"
      ],
      "transaction": {
        "from": "0xe62ab4d111f968660c6b2188046f9b9ba53c4bae",
        "to": "0x66db3f564807fdc689ec85285981ef464daeb943",
        "gas": "0x3c07c",
        "value": "0x0",
        "input": "0x013fd3bd0000000000000000000000000000000000000000000000000000000000000040000000000000000000000000000000000000000000000000000000000000012000000000000000000000000000000000000000000000000000000000000000020000000000000000000000000000000000000000000000000000000000000040000000000000000000000000000000000000000000000000000000000000008000000000000000000000000000000000000000000000000000000000000000043530303300000000000000000000000000000000000000000000000000000000000000000000000000000000000000000000000000000000000000000000000331353300000000000000000000000000000000000000000000000000000000000000000000000000000000000000000000000000000000000000000000000002000000000000000000000000000000000000000000000000000000000000004000000000000000000000000000000000000000000000000000000000000000a0000000000000000000000000000000000000000000000000000000000000002a30783964633737326235356539356136333030333165626534333137303664313035616630316366303300000000000000000000000000000000000000000000000000000000000000000000000000000000000000000000000000000000002a30783234613734313036313935616364376533653061386363313766643434373631636333323437346100000000000000000000000000000000000000000000",
        "nonce": "0x386",
        "chainId": "0x13882"
      },
      "additionalContracts": [],
      "isFixedGasLimit": false
    },
    {
      "hash": "0x98e869b08077311159ec259ddb72226ba4dce9d3ca1d17f05f40acb4809e4c0f",
      "transactionType": "CALL",
      "contractName": null,
      "contractAddress": "0x66db3f564807fdc689ec85285981ef464daeb943",
      "function": "attachRWAX(uint256,uint256,string[],string[])",
      "arguments": [
        "1",
        "1",
        "[5003, 153]",
        "[0xad49cabd336f943a9c350b9ed60680c54fa2c3d1, 0x41388451eca7344136004d29a813dcee49577b44]"
      ],
      "transaction": {
        "from": "0xe62ab4d111f968660c6b2188046f9b9ba53c4bae",
        "to": "0x66db3f564807fdc689ec85285981ef464daeb943",
        "gas": "0x3eda8",
        "value": "0x0",
        "input": "0x33a5f5b4000000000000000000000000000000000000000000000000000000000000000100000000000000000000000000000000000000000000000000000000000000010000000000000000000000000000000000000000000000000000000000000080000000000000000000000000000000000000000000000000000000000000016000000000000000000000000000000000000000000000000000000000000000020000000000000000000000000000000000000000000000000000000000000040000000000000000000000000000000000000000000000000000000000000008000000000000000000000000000000000000000000000000000000000000000043530303300000000000000000000000000000000000000000000000000000000000000000000000000000000000000000000000000000000000000000000000331353300000000000000000000000000000000000000000000000000000000000000000000000000000000000000000000000000000000000000000000000002000000000000000000000000000000000000000000000000000000000000004000000000000000000000000000000000000000000000000000000000000000a0000000000000000000000000000000000000000000000000000000000000002a30786164343963616264333336663934336139633335306239656436303638306335346661326333643100000000000000000000000000000000000000000000000000000000000000000000000000000000000000000000000000000000002a30783431333838343531656361373334343133363030346432396138313364636565343935373762343400000000000000000000000000000000000000000000",
        "nonce": "0x387",
        "chainId": "0x13882"
      },
      "additionalContracts": [],
      "isFixedGasLimit": false
    },
    {
      "hash": "0xac26c127de50249fb76c1c5efcf3a95200db5db27b11a683ca82c85fd562df89",
      "transactionType": "CALL",
      "contractName": null,
      "contractAddress": "0x66db3f564807fdc689ec85285981ef464daeb943",
      "function": "attachStorageManager(uint256,uint256,string[],string[])",
      "arguments": [
        "1",
        "1",
        "[5003, 153]",
        "[0xede597aa066e6d7bc84bf586c494735deb7dde9f, 0x74972e7ff5561bd902e3ec3ddd5a22653088ca6f]"
      ],
      "transaction": {
        "from": "0xe62ab4d111f968660c6b2188046f9b9ba53c4bae",
        "to": "0x66db3f564807fdc689ec85285981ef464daeb943",
        "gas": "0x3f195",
        "value": "0x0",
        "input": "0x2f68b489000000000000000000000000000000000000000000000000000000000000000100000000000000000000000000000000000000000000000000000000000000010000000000000000000000000000000000000000000000000000000000000080000000000000000000000000000000000000000000000000000000000000016000000000000000000000000000000000000000000000000000000000000000020000000000000000000000000000000000000000000000000000000000000040000000000000000000000000000000000000000000000000000000000000008000000000000000000000000000000000000000000000000000000000000000043530303300000000000000000000000000000000000000000000000000000000000000000000000000000000000000000000000000000000000000000000000331353300000000000000000000000000000000000000000000000000000000000000000000000000000000000000000000000000000000000000000000000002000000000000000000000000000000000000000000000000000000000000004000000000000000000000000000000000000000000000000000000000000000a0000000000000000000000000000000000000000000000000000000000000002a30786564653539376161303636653664376263383462663538366334393437333564656237646465396600000000000000000000000000000000000000000000000000000000000000000000000000000000000000000000000000000000002a30783734393732653766663535363162643930326533656333646464356132323635333038386361366600000000000000000000000000000000000000000000",
        "nonce": "0x388",
        "chainId": "0x13882"
      },
      "additionalContracts": [],
      "isFixedGasLimit": false
    },
    {
      "hash": "0xe926eab1a78b3abc70533de5c58a01b883e2900fa5e7dd7904b2e49bc3446e46",
      "transactionType": "CALL",
      "contractName": null,
      "contractAddress": "0x66db3f564807fdc689ec85285981ef464daeb943",
      "function": "attachSentryManager(uint256,uint256,string[],string[])",
      "arguments": [
        "1",
        "1",
        "[5003, 153]",
        "[0xda61b02d88d2c857da9d2da435152b08f03e2836, 0x5930640c1572bcd396eb410f62a6975ab9b8a148]"
      ],
      "transaction": {
        "from": "0xe62ab4d111f968660c6b2188046f9b9ba53c4bae",
        "to": "0x66db3f564807fdc689ec85285981ef464daeb943",
        "gas": "0x3ed4a",
        "value": "0x0",
        "input": "0x349de797000000000000000000000000000000000000000000000000000000000000000100000000000000000000000000000000000000000000000000000000000000010000000000000000000000000000000000000000000000000000000000000080000000000000000000000000000000000000000000000000000000000000016000000000000000000000000000000000000000000000000000000000000000020000000000000000000000000000000000000000000000000000000000000040000000000000000000000000000000000000000000000000000000000000008000000000000000000000000000000000000000000000000000000000000000043530303300000000000000000000000000000000000000000000000000000000000000000000000000000000000000000000000000000000000000000000000331353300000000000000000000000000000000000000000000000000000000000000000000000000000000000000000000000000000000000000000000000002000000000000000000000000000000000000000000000000000000000000004000000000000000000000000000000000000000000000000000000000000000a0000000000000000000000000000000000000000000000000000000000000002a30786461363162303264383864326338353764613964326461343335313532623038663033653238333600000000000000000000000000000000000000000000000000000000000000000000000000000000000000000000000000000000002a30783539333036343063313537326263643339366562343130663632613639373561623962386131343800000000000000000000000000000000000000000000",
        "nonce": "0x389",
        "chainId": "0x13882"
      },
      "additionalContracts": [],
      "isFixedGasLimit": false
    }
  ],
  "receipts": [
    {
      "status": "0x1",
      "cumulativeGasUsed": "0x3ff80",
      "logs": [
        {
          "address": "0x0000000000000000000000000000000000001010",
          "topics": [
            "0x4dfe1bbbcf077ddc3e01291eea2d5c70c2b422b415d95645b9adcfd678cb1d63",
            "0x0000000000000000000000000000000000000000000000000000000000001010",
            "0x000000000000000000000000e62ab4d111f968660c6b2188046f9b9ba53c4bae",
            "0x00000000000000000000000034caf8c0d58afb0875ba58bbc846979d351dcb2e"
          ],
          "data": "0x0000000000000000000000000000000000000000000000000017bd69ce239800000000000000000000000000000000000000000000000017b4c2f2732f7d481d000000000000000000000000000000000000000000000072ec57960629046283000000000000000000000000000000000000000000000017b4ab35096159b01d000000000000000000000000000000000000000000000072ec6f536ff727fa83",
          "blockHash": "0x65e9153f532457c4fea843cd3c1c4cfe4bdaa05da50387a2617fb33b836ce094",
          "blockNumber": "0x15337f0",
          "transactionHash": "0x816c29494e2dc44439083f3258cb3ff3af7988f7381ceadb3b6dd8d438a8a690",
          "transactionIndex": "0x4",
          "logIndex": "0x8",
          "removed": false
        }
      ],
      "logsBloom": "0x20000000000000000004000000000000000000000000000000000000000000000000000000000000000000000000000000008000000000000000000000000000000000000000000000000000000000800000000000000000000100000000000000000000000000000000000000000000000000000000000080000000000000200000000000008000000000000000040000000000000000000000000000000000200000000000000000000000001000000000000000000000000000000000004000000000000000000001000000000000000000000000000000100000000000000000000000000000000000000000000000000000000000000000000000100000",
      "type": "0x2",
      "transactionHash": "0x816c29494e2dc44439083f3258cb3ff3af7988f7381ceadb3b6dd8d438a8a690",
      "transactionIndex": "0x4",
      "blockHash": "0x65e9153f532457c4fea843cd3c1c4cfe4bdaa05da50387a2617fb33b836ce094",
      "blockNumber": "0x15337f0",
      "gasUsed": "0x2b760",
      "effectiveGasPrice": "0x8bd612a4f",
      "from": "0xe62ab4d111f968660c6b2188046f9b9ba53c4bae",
      "to": "0x66db3f564807fdc689ec85285981ef464daeb943",
      "contractAddress": null
    },
    {
      "status": "0x1",
      "cumulativeGasUsed": "0x4723c",
      "logs": [
        {
          "address": "0x0000000000000000000000000000000000001010",
          "topics": [
            "0x4dfe1bbbcf077ddc3e01291eea2d5c70c2b422b415d95645b9adcfd678cb1d63",
            "0x0000000000000000000000000000000000000000000000000000000000001010",
            "0x000000000000000000000000e62ab4d111f968660c6b2188046f9b9ba53c4bae",
            "0x00000000000000000000000034caf8c0d58afb0875ba58bbc846979d351dcb2e"
          ],
          "data": "0x0000000000000000000000000000000000000000000000000018db3b1bbd4d00000000000000000000000000000000000000000000000017b4ab35096130f17d000000000000000000000000000000000000000000000072ecc72d39d66e9153000000000000000000000000000000000000000000000017b49259ce4573a47d000000000000000000000000000000000000000000000072ece00874f22bde53",
          "blockHash": "0xc8b1084e8cdf05b605522ec9b8bcbc797bf59770438ed48b31eec60777dc3075",
          "blockNumber": "0x15337f2",
          "transactionHash": "0x98e869b08077311159ec259ddb72226ba4dce9d3ca1d17f05f40acb4809e4c0f",
          "transactionIndex": "0x5",
          "logIndex": "0xa",
          "removed": false
        }
      ],
      "logsBloom": "0x20000000000000000004000000000000000000000000000000000000000000000000000000000000000000000000000000008000000000000000000000000000000000000000000000000000000000800000000000000000000100000000000000000000000000000000000000000000000000000000000080000000000000200000000000008000000000000000040000000000000000000000000000000000200000000000000000000000001000000000000000000000000000000000004000000000000000000001000000000000000000000000000000100000000000000000000000000000000000000000000000000000000000000000000000100000",
      "type": "0x2",
      "transactionHash": "0x98e869b08077311159ec259ddb72226ba4dce9d3ca1d17f05f40acb4809e4c0f",
      "transactionIndex": "0x5",
      "blockHash": "0xc8b1084e8cdf05b605522ec9b8bcbc797bf59770438ed48b31eec60777dc3075",
      "blockNumber": "0x15337f2",
      "gasUsed": "0x2d814",
      "effectiveGasPrice": "0x8bd612a4f",
      "from": "0xe62ab4d111f968660c6b2188046f9b9ba53c4bae",
      "to": "0x66db3f564807fdc689ec85285981ef464daeb943",
      "contractAddress": null
    },
    {
      "status": "0x1",
      "cumulativeGasUsed": "0x37efc",
      "logs": [
        {
          "address": "0x0000000000000000000000000000000000001010",
          "topics": [
            "0x4dfe1bbbcf077ddc3e01291eea2d5c70c2b422b415d95645b9adcfd678cb1d63",
            "0x0000000000000000000000000000000000000000000000000000000000001010",
            "0x000000000000000000000000e62ab4d111f968660c6b2188046f9b9ba53c4bae",
            "0x00000000000000000000000034caf8c0d58afb0875ba58bbc846979d351dcb2e"
          ],
          "data": "0x0000000000000000000000000000000000000000000000000018f415a80d7300000000000000000000000000000000000000000000000017b49259ce4548fb51000000000000000000000000000000000000000000000072ed0dec3c5a104b93000000000000000000000000000000000000000000000017b47965b89d3b8851000000000000000000000000000000000000000000000072ed26e052021dbe93",
          "blockHash": "0x814434209690e67fe27b610e5a62192c56952ddb838ba40d15a9c413df9518c4",
          "blockNumber": "0x15337f4",
          "transactionHash": "0xac26c127de50249fb76c1c5efcf3a95200db5db27b11a683ca82c85fd562df89",
          "transactionIndex": "0x2",
          "logIndex": "0x4",
          "removed": false
        }
      ],
      "logsBloom": "0x20000000000000000004000000000000000000000000000000000000000000000000000000000000000000000000000000008000000000000000000000000000000000000000000000000000000000800000000000000000000100000000000000000000000000000000000000000000000000000000000080000000000000200000000000008000000000000000040000000000000000000000000000000000200000000000000000000000001000000000000000000000000000000000004000000000000000000001000000000000000000000000000000100000000000000000000000000000000000000000000000000000000000000000000000100000",
      "type": "0x2",
      "transactionHash": "0xac26c127de50249fb76c1c5efcf3a95200db5db27b11a683ca82c85fd562df89",
      "transactionIndex": "0x2",
      "blockHash": "0x814434209690e67fe27b610e5a62192c56952ddb838ba40d15a9c413df9518c4",
      "blockNumber": "0x15337f4",
      "gasUsed": "0x2daec",
      "effectiveGasPrice": "0x8bd612a4f",
      "from": "0xe62ab4d111f968660c6b2188046f9b9ba53c4bae",
      "to": "0x66db3f564807fdc689ec85285981ef464daeb943",
      "contractAddress": null
    },
    {
      "status": "0x1",
      "cumulativeGasUsed": "0x41ff0",
      "logs": [
        {
          "address": "0x0000000000000000000000000000000000001010",
          "topics": [
            "0x4dfe1bbbcf077ddc3e01291eea2d5c70c2b422b415d95645b9adcfd678cb1d63",
            "0x0000000000000000000000000000000000000000000000000000000000001010",
            "0x000000000000000000000000e62ab4d111f968660c6b2188046f9b9ba53c4bae",
            "0x00000000000000000000000034caf8c0d58afb0875ba58bbc846979d351dcb2e"
          ],
          "data": "0x0000000000000000000000000000000000000000000000000018d8e8cdee1400000000000000000000000000000000000000000000000017b47965b89d10b47d000000000000000000000000000000000000000000000072ed3d47ca56ac4e93000000000000000000000000000000000000000000000017b4608ccfcf22a07d000000000000000000000000000000000000000000000072ed5620b3249a6293",
          "blockHash": "0x66617df24c9332b945a389d200a90907f8b895e044e7de401a7b026b0518e441",
          "blockNumber": "0x15337f6",
          "transactionHash": "0xe926eab1a78b3abc70533de5c58a01b883e2900fa5e7dd7904b2e49bc3446e46",
          "transactionIndex": "0x4",
          "logIndex": "0x8",
          "removed": false
        }
      ],
      "logsBloom": "0x20000000000000000004000000000000000000000000000000000000000000000000000000000000000000000000000000008000000000000000000000000000000000000000000000000000000000800000000000000000000100000000000000000000000000000000000000000000000000000000000080000000000000200000000000008000000000000000040000000000000000000000000000000000200000000000000000000000001000000000000000000000000000000000004000000000000000000001000000000000000000000000000000100000000000000000000000000000000000000000000000000000000000000000000000100000",
      "type": "0x2",
      "transactionHash": "0xe926eab1a78b3abc70533de5c58a01b883e2900fa5e7dd7904b2e49bc3446e46",
      "transactionIndex": "0x4",
      "blockHash": "0x66617df24c9332b945a389d200a90907f8b895e044e7de401a7b026b0518e441",
      "blockNumber": "0x15337f6",
      "gasUsed": "0x2d7d0",
      "effectiveGasPrice": "0x8bd612a4f",
      "from": "0xe62ab4d111f968660c6b2188046f9b9ba53c4bae",
      "to": "0x66db3f564807fdc689ec85285981ef464daeb943",
      "contractAddress": null
    }
  ],
  "libraries": [],
  "pending": [],
  "returns": {},
  "timestamp": 1748453377,
  "chain": 80002,
  "commit": "f02f4300"
}