{
  "transactions": [
    {
      "hash": "0xb2a44cfdfd0fe6bb8d68a405c8bc2699a3ef977ca3e46751aa4259fa077816a5",
      "transactionType": "CALL",
      "contractName": null,
      "contractAddress": "0xa332fc0bf257aff4ab07267de75d5eb0c67b71af",
      "function": "getFeeTokenList()",
      "arguments": [],
      "transaction": {
        "from": "0xe62ab4d111f968660c6b2188046f9b9ba53c4bae",
        "to": "0xa332fc0bf257aff4ab07267de75d5eb0c67b71af",
        "gas": "0x8a38",
        "value": "0x0",
        "input": "0xe28ab277",
        "nonce": "0x359",
        "chainId": "0x13882"
      },
      "additionalContracts": [],
      "isFixedGasLimit": false
    },
    {
      "hash": "0x55012ed7ae9a7f40ec2fc2bf31b02c33a9de5ba660c506483d08e94c67a6fb04",
      "transactionType": "CALL",
      "contractName": null,
      "contractAddress": "0xa332fc0bf257aff4ab07267de75d5eb0c67b71af",
      "function": "addFeeToken(string)",
      "arguments": [
        "0x6a4dbc971533ba36bdc23ad70f5a7a12e064f4ae"
      ],
      "transaction": {
        "from": "0xe62ab4d111f968660c6b2188046f9b9ba53c4bae",
        "to": "0xa332fc0bf257aff4ab07267de75d5eb0c67b71af",
        "gas": "0x28bbb",
        "value": "0x0",
        "input": "0x12a6385f0000000000000000000000000000000000000000000000000000000000000020000000000000000000000000000000000000000000000000000000000000002a30783661346462633937313533336261333662646332336164373066356137613132653036346634616500000000000000000000000000000000000000000000",
        "nonce": "0x35a",
        "chainId": "0x13882"
      },
      "additionalContracts": [],
      "isFixedGasLimit": false
    },
    {
      "hash": "0x46177eb8610c7cbeb8ad95b0162b92ca7ce7819af0269b3d07fd1e273d17a9f1",
      "transactionType": "CALL",
      "contractName": null,
      "contractAddress": "0xa332fc0bf257aff4ab07267de75d5eb0c67b71af",
      "function": "setFeeMultiplier(uint8,uint256)",
      "arguments": [
        "0",
        "2"
      ],
      "transaction": {
        "from": "0xe62ab4d111f968660c6b2188046f9b9ba53c4bae",
        "to": "0xa332fc0bf257aff4ab07267de75d5eb0c67b71af",
        "gas": "0x112ba",
        "value": "0x0",
        "input": "0x0ee24eb500000000000000000000000000000000000000000000000000000000000000000000000000000000000000000000000000000000000000000000000000000002",
        "nonce": "0x35b",
        "chainId": "0x13882"
      },
      "additionalContracts": [],
      "isFixedGasLimit": false
    },
    {
      "hash": "0xa354cad2321f0792dd8e2e0391b180cd4f7ead8fbcad66e66c387ee15f6a9a7d",
      "transactionType": "CALL",
      "contractName": null,
      "contractAddress": "0xa332fc0bf257aff4ab07267de75d5eb0c67b71af",
      "function": "setFeeMultiplier(uint8,uint256)",
      "arguments": [
        "1",
        "10"
      ],
      "transaction": {
        "from": "0xe62ab4d111f968660c6b2188046f9b9ba53c4bae",
        "to": "0xa332fc0bf257aff4ab07267de75d5eb0c67b71af",
        "gas": "0x103a6",
        "value": "0x0",
        "input": "0x0ee24eb50000000000000000000000000000000000000000000000000000000000000001000000000000000000000000000000000000000000000000000000000000000a",
        "nonce": "0x35c",
        "chainId": "0x13882"
      },
      "additionalContracts": [],
      "isFixedGasLimit": false
    },
    {
      "hash": "0x913d8caad97c5124731a42e987752e009a8b0ec4267994e9336a3391a44ff59e",
      "transactionType": "CALL",
      "contractName": null,
      "contractAddress": "0xa332fc0bf257aff4ab07267de75d5eb0c67b71af",
      "function": "setFeeMultiplier(uint8,uint256)",
      "arguments": [
        "2",
        "1"
      ],
      "transaction": {
        "from": "0xe62ab4d111f968660c6b2188046f9b9ba53c4bae",
        "to": "0xa332fc0bf257aff4ab07267de75d5eb0c67b71af",
        "gas": "0x1130e",
        "value": "0x0",
        "input": "0x0ee24eb500000000000000000000000000000000000000000000000000000000000000020000000000000000000000000000000000000000000000000000000000000001",
        "nonce": "0x35d",
        "chainId": "0x13882"
      },
      "additionalContracts": [],
      "isFixedGasLimit": false
    },
    {
      "hash": "0x1c93c251fd6e49cf43b2b6a8d5a7f41aa0911f9396f0f86702efe95013bf022a",
      "transactionType": "CALL",
      "contractName": null,
      "contractAddress": "0xa332fc0bf257aff4ab07267de75d5eb0c67b71af",
      "function": "setFeeMultiplier(uint8,uint256)",
      "arguments": [
        "3",
        "4"
      ],
      "transaction": {
        "from": "0xe62ab4d111f968660c6b2188046f9b9ba53c4bae",
        "to": "0xa332fc0bf257aff4ab07267de75d5eb0c67b71af",
        "gas": "0x11330",
        "value": "0x0",
        "input": "0x0ee24eb500000000000000000000000000000000000000000000000000000000000000030000000000000000000000000000000000000000000000000000000000000004",
        "nonce": "0x35e",
        "chainId": "0x13882"
      },
      "additionalContracts": [],
      "isFixedGasLimit": false
    },
    {
      "hash": "0xf8c0c4b156d7417df765653b5f228e655101f81bb3bdde12bb8fd581c33497dd",
      "transactionType": "CALL",
      "contractName": null,
      "contractAddress": "0xa332fc0bf257aff4ab07267de75d5eb0c67b71af",
      "function": "setFeeMultiplier(uint8,uint256)",
      "arguments": [
        "4",
        "4"
      ],
      "transaction": {
        "from": "0xe62ab4d111f968660c6b2188046f9b9ba53c4bae",
        "to": "0xa332fc0bf257aff4ab07267de75d5eb0c67b71af",
        "gas": "0x11352",
        "value": "0x0",
        "input": "0x0ee24eb500000000000000000000000000000000000000000000000000000000000000040000000000000000000000000000000000000000000000000000000000000004",
        "nonce": "0x35f",
        "chainId": "0x13882"
      },
      "additionalContracts": [],
      "isFixedGasLimit": false
    },
    {
      "hash": "0xa519efb0d7e872783d7f909ae5a6906219faee9e54a2a24e1f853337c836f74a",
      "transactionType": "CALL",
      "contractName": null,
      "contractAddress": "0xa332fc0bf257aff4ab07267de75d5eb0c67b71af",
      "function": "setFeeMultiplier(uint8,uint256)",
      "arguments": [
        "5",
        "4"
      ],
      "transaction": {
        "from": "0xe62ab4d111f968660c6b2188046f9b9ba53c4bae",
        "to": "0xa332fc0bf257aff4ab07267de75d5eb0c67b71af",
        "gas": "0x10425",
        "value": "0x0",
        "input": "0x0ee24eb500000000000000000000000000000000000000000000000000000000000000050000000000000000000000000000000000000000000000000000000000000004",
        "nonce": "0x360",
        "chainId": "0x13882"
      },
      "additionalContracts": [],
      "isFixedGasLimit": false
    },
    {
      "hash": "0x8ed5941e02fd7822ef33b6154fd51a0782ad51ca12a76bb7c75839a359f8e931",
      "transactionType": "CALL",
      "contractName": null,
      "contractAddress": "0xa332fc0bf257aff4ab07267de75d5eb0c67b71af",
      "function": "setFeeMultiplier(uint8,uint256)",
      "arguments": [
        "6",
        "8"
      ],
      "transaction": {
        "from": "0xe62ab4d111f968660c6b2188046f9b9ba53c4bae",
        "to": "0xa332fc0bf257aff4ab07267de75d5eb0c67b71af",
        "gas": "0x10444",
        "value": "0x0",
        "input": "0x0ee24eb500000000000000000000000000000000000000000000000000000000000000060000000000000000000000000000000000000000000000000000000000000008",
        "nonce": "0x361",
        "chainId": "0x13882"
      },
      "additionalContracts": [],
      "isFixedGasLimit": false
    },
    {
      "hash": "0xc432b87f6671c1d93443c0c1a98681111f5b170cb0638738e2435b6945a5d899",
      "transactionType": "CALL",
      "contractName": null,
      "contractAddress": "0xa332fc0bf257aff4ab07267de75d5eb0c67b71af",
      "function": "setFeeMultiplier(uint8,uint256)",
      "arguments": [
        "7",
        "4"
      ],
      "transaction": {
        "from": "0xe62ab4d111f968660c6b2188046f9b9ba53c4bae",
        "to": "0xa332fc0bf257aff4ab07267de75d5eb0c67b71af",
        "gas": "0x10465",
        "value": "0x0",
        "input": "0x0ee24eb500000000000000000000000000000000000000000000000000000000000000070000000000000000000000000000000000000000000000000000000000000004",
        "nonce": "0x362",
        "chainId": "0x13882"
      },
      "additionalContracts": [],
      "isFixedGasLimit": false
    },
    {
      "hash": "0x438e1ec0b5a27e422d0b87db0d9cfbc63e125d31c43a7af84ed4d791337d01d9",
      "transactionType": "CALL",
      "contractName": null,
      "contractAddress": "0xa332fc0bf257aff4ab07267de75d5eb0c67b71af",
      "function": "setFeeMultiplier(uint8,uint256)",
      "arguments": [
        "8",
        "10"
      ],
      "transaction": {
        "from": "0xe62ab4d111f968660c6b2188046f9b9ba53c4bae",
        "to": "0xa332fc0bf257aff4ab07267de75d5eb0c67b71af",
        "gas": "0x10484",
        "value": "0x0",
        "input": "0x0ee24eb50000000000000000000000000000000000000000000000000000000000000008000000000000000000000000000000000000000000000000000000000000000a",
        "nonce": "0x363",
        "chainId": "0x13882"
      },
      "additionalContracts": [],
      "isFixedGasLimit": false
    },
    {
      "hash": "0x4cb7154b7c5035f5bd0c8f1c76333e9c98cad002162c33c84a4a678f65a9f5e5",
      "transactionType": "CALL",
      "contractName": null,
      "contractAddress": "0xa332fc0bf257aff4ab07267de75d5eb0c67b71af",
      "function": "setFeeMultiplier(uint8,uint256)",
      "arguments": [
        "9",
        "8"
      ],
      "transaction": {
        "from": "0xe62ab4d111f968660c6b2188046f9b9ba53c4bae",
        "to": "0xa332fc0bf257aff4ab07267de75d5eb0c67b71af",
        "gas": "0x104a5",
        "value": "0x0",
        "input": "0x0ee24eb500000000000000000000000000000000000000000000000000000000000000090000000000000000000000000000000000000000000000000000000000000008",
        "nonce": "0x364",
        "chainId": "0x13882"
      },
      "additionalContracts": [],
      "isFixedGasLimit": false
    },
    {
      "hash": "0xdf95c0a3114a32aee829a618f230b95aa14c597283cd9eca84884cb6d0514b0f",
      "transactionType": "CALL",
      "contractName": null,
      "contractAddress": "0xa332fc0bf257aff4ab07267de75d5eb0c67b71af",
      "function": "setFeeMultiplier(uint8,uint256)",
      "arguments": [
        "10",
        "8"
      ],
      "transaction": {
        "from": "0xe62ab4d111f968660c6b2188046f9b9ba53c4bae",
        "to": "0xa332fc0bf257aff4ab07267de75d5eb0c67b71af",
        "gas": "0x1141b",
        "value": "0x0",
        "input": "0x0ee24eb5000000000000000000000000000000000000000000000000000000000000000a0000000000000000000000000000000000000000000000000000000000000008",
        "nonce": "0x365",
        "chainId": "0x13882"
      },
      "additionalContracts": [],
      "isFixedGasLimit": false
    },
    {
      "hash": "0x1307db9f9cb2c13314cd822ac6ccb2b406c2cd59e369f799cfb6a4e3add69eb2",
      "transactionType": "CALL",
      "contractName": null,
      "contractAddress": "0xa332fc0bf257aff4ab07267de75d5eb0c67b71af",
      "function": "setFeeMultiplier(uint8,uint256)",
      "arguments": [
        "11",
        "8"
      ],
      "transaction": {
        "from": "0xe62ab4d111f968660c6b2188046f9b9ba53c4bae",
        "to": "0xa332fc0bf257aff4ab07267de75d5eb0c67b71af",
        "gas": "0x1143d",
        "value": "0x0",
        "input": "0x0ee24eb5000000000000000000000000000000000000000000000000000000000000000b0000000000000000000000000000000000000000000000000000000000000008",
        "nonce": "0x366",
        "chainId": "0x13882"
      },
      "additionalContracts": [],
      "isFixedGasLimit": false
    },
    {
      "hash": "0x51a7b2597ae1ff047c8b0fe00949a8c3db84ac8bf763df5be30e95229a89ec8f",
      "transactionType": "CALL",
      "contractName": null,
      "contractAddress": "0xa332fc0bf257aff4ab07267de75d5eb0c67b71af",
      "function": "setFeeMultiplier(uint8,uint256)",
      "arguments": [
        "12",
        "20"
      ],
      "transaction": {
        "from": "0xe62ab4d111f968660c6b2188046f9b9ba53c4bae",
        "to": "0xa332fc0bf257aff4ab07267de75d5eb0c67b71af",
        "gas": "0x1145f",
        "value": "0x0",
        "input": "0x0ee24eb5000000000000000000000000000000000000000000000000000000000000000c0000000000000000000000000000000000000000000000000000000000000014",
        "nonce": "0x367",
        "chainId": "0x13882"
      },
      "additionalContracts": [],
      "isFixedGasLimit": false
    },
    {
      "hash": "0xff86e32feb1efcec809d241319447a3720612ba98ae031c49d34e7cd5d6bc117",
      "transactionType": "CALL",
      "contractName": null,
      "contractAddress": "0xa332fc0bf257aff4ab07267de75d5eb0c67b71af",
      "function": "setFeeMultiplier(uint8,uint256)",
      "arguments": [
        "13",
        "8"
      ],
      "transaction": {
        "from": "0xe62ab4d111f968660c6b2188046f9b9ba53c4bae",
        "to": "0xa332fc0bf257aff4ab07267de75d5eb0c67b71af",
        "gas": "0x10524",
        "value": "0x0",
        "input": "0x0ee24eb5000000000000000000000000000000000000000000000000000000000000000d0000000000000000000000000000000000000000000000000000000000000008",
        "nonce": "0x368",
        "chainId": "0x13882"
      },
      "additionalContracts": [],
      "isFixedGasLimit": false
    },
    {
      "hash": "0xa3f304bfe40f83df3951cbd3fb8e80c893e3425d300afd9c60637fbf7d13a856",
      "transactionType": "CALL",
      "contractName": null,
      "contractAddress": "0xa332fc0bf257aff4ab07267de75d5eb0c67b71af",
      "function": "setFeeMultiplier(uint8,uint256)",
      "arguments": [
        "14",
        "4"
      ],
      "transaction": {
        "from": "0xe62ab4d111f968660c6b2188046f9b9ba53c4bae",
        "to": "0xa332fc0bf257aff4ab07267de75d5eb0c67b71af",
        "gas": "0x10543",
        "value": "0x0",
        "input": "0x0ee24eb5000000000000000000000000000000000000000000000000000000000000000e0000000000000000000000000000000000000000000000000000000000000004",
        "nonce": "0x369",
        "chainId": "0x13882"
      },
      "additionalContracts": [],
      "isFixedGasLimit": false
    },
    {
      "hash": "0x7d371fdb24ed24b266bf3a2ca3f05c468c14bc31f0d5c7fa6005741a91d8b021",
      "transactionType": "CALL",
      "contractName": null,
      "contractAddress": "0xa332fc0bf257aff4ab07267de75d5eb0c67b71af",
      "function": "setFeeMultiplier(uint8,uint256)",
      "arguments": [
        "15",
        "4"
      ],
      "transaction": {
        "from": "0xe62ab4d111f968660c6b2188046f9b9ba53c4bae",
        "to": "0xa332fc0bf257aff4ab07267de75d5eb0c67b71af",
        "gas": "0x10562",
        "value": "0x0",
        "input": "0x0ee24eb5000000000000000000000000000000000000000000000000000000000000000f0000000000000000000000000000000000000000000000000000000000000004",
        "nonce": "0x36a",
        "chainId": "0x13882"
      },
      "additionalContracts": [],
      "isFixedGasLimit": false
    },
    {
      "hash": "0xfdd4dfb16287d9bc4c0ebcbdb760ed446740ddc7eea229ecfb0e3c82c339789a",
      "transactionType": "CALL",
      "contractName": null,
      "contractAddress": "0xa332fc0bf257aff4ab07267de75d5eb0c67b71af",
      "function": "setFeeMultiplier(uint8,uint256)",
      "arguments": [
        "16",
        "4"
      ],
      "transaction": {
        "from": "0xe62ab4d111f968660c6b2188046f9b9ba53c4bae",
        "to": "0xa332fc0bf257aff4ab07267de75d5eb0c67b71af",
        "gas": "0x10583",
        "value": "0x0",
        "input": "0x0ee24eb500000000000000000000000000000000000000000000000000000000000000100000000000000000000000000000000000000000000000000000000000000004",
        "nonce": "0x36b",
        "chainId": "0x13882"
      },
      "additionalContracts": [],
      "isFixedGasLimit": false
    },
    {
      "hash": "0xe7d55a365ae706bd63384985fdc3adff92016ca9c035eed73e33c2adf0ea870a",
      "transactionType": "CALL",
      "contractName": null,
      "contractAddress": "0xa332fc0bf257aff4ab07267de75d5eb0c67b71af",
      "function": "setFeeMultiplier(uint8,uint256)",
      "arguments": [
        "17",
        "4"
      ],
      "transaction": {
        "from": "0xe62ab4d111f968660c6b2188046f9b9ba53c4bae",
        "to": "0xa332fc0bf257aff4ab07267de75d5eb0c67b71af",
        "gas": "0x105a2",
        "value": "0x0",
        "input": "0x0ee24eb500000000000000000000000000000000000000000000000000000000000000110000000000000000000000000000000000000000000000000000000000000004",
        "nonce": "0x36c",
        "chainId": "0x13882"
      },
      "additionalContracts": [],
      "isFixedGasLimit": false
    },
    {
      "hash": "0x9a77f6dac795509b95abe7a03df85eb01a91e380d1e48c0c1da4eb450b73d444",
      "transactionType": "CALL",
      "contractName": null,
      "contractAddress": "0xa332fc0bf257aff4ab07267de75d5eb0c67b71af",
      "function": "setFeeMultiplier(uint8,uint256)",
      "arguments": [
        "18",
        "2"
      ],
      "transaction": {
        "from": "0xe62ab4d111f968660c6b2188046f9b9ba53c4bae",
        "to": "0xa332fc0bf257aff4ab07267de75d5eb0c67b71af",
        "gas": "0x11528",
        "value": "0x0",
        "input": "0x0ee24eb500000000000000000000000000000000000000000000000000000000000000120000000000000000000000000000000000000000000000000000000000000002",
        "nonce": "0x36d",
        "chainId": "0x13882"
      },
      "additionalContracts": [],
      "isFixedGasLimit": false
    },
    {
      "hash": "0x7c225f452a6e142d02afa1bbc3283258b4a45a527209af9fd5270cc6a3adca70",
      "transactionType": "CALL",
      "contractName": null,
      "contractAddress": "0xa332fc0bf257aff4ab07267de75d5eb0c67b71af",
      "function": "setFeeMultiplier(uint8,uint256)",
      "arguments": [
        "19",
        "20"
      ],
      "transaction": {
        "from": "0xe62ab4d111f968660c6b2188046f9b9ba53c4bae",
        "to": "0xa332fc0bf257aff4ab07267de75d5eb0c67b71af",
        "gas": "0x1154a",
        "value": "0x0",
        "input": "0x0ee24eb500000000000000000000000000000000000000000000000000000000000000130000000000000000000000000000000000000000000000000000000000000014",
        "nonce": "0x36e",
        "chainId": "0x13882"
      },
      "additionalContracts": [],
      "isFixedGasLimit": false
    },
    {
      "hash": "0x84168a162676c5586ecd5273a4b635748a686bf306b465a3e296cc2057b37d0b",
      "transactionType": "CALL",
      "contractName": null,
      "contractAddress": "0xa332fc0bf257aff4ab07267de75d5eb0c67b71af",
      "function": "setFeeMultiplier(uint8,uint256)",
      "arguments": [
        "20",
        "2"
      ],
      "transaction": {
        "from": "0xe62ab4d111f968660c6b2188046f9b9ba53c4bae",
        "to": "0xa332fc0bf257aff4ab07267de75d5eb0c67b71af",
        "gas": "0x1156c",
        "value": "0x0",
        "input": "0x0ee24eb500000000000000000000000000000000000000000000000000000000000000140000000000000000000000000000000000000000000000000000000000000002",
        "nonce": "0x36f",
        "chainId": "0x13882"
      },
      "additionalContracts": [],
      "isFixedGasLimit": false
    },
    {
      "hash": "0x095baf304b26855198f514c7f703a93b8158ccc6f93083b7f50a5c18953fb8d9",
      "transactionType": "CALL",
      "contractName": null,
      "contractAddress": "0xa332fc0bf257aff4ab07267de75d5eb0c67b71af",
      "function": "setFeeMultiplier(uint8,uint256)",
      "arguments": [
        "21",
        "1"
      ],
      "transaction": {
        "from": "0xe62ab4d111f968660c6b2188046f9b9ba53c4bae",
        "to": "0xa332fc0bf257aff4ab07267de75d5eb0c67b71af",
        "gas": "0x10622",
        "value": "0x0",
        "input": "0x0ee24eb500000000000000000000000000000000000000000000000000000000000000150000000000000000000000000000000000000000000000000000000000000001",
        "nonce": "0x370",
        "chainId": "0x13882"
      },
      "additionalContracts": [],
      "isFixedGasLimit": false
    },
    {
      "hash": "0x741da697dd77936616d8a4a281e2141c526ac4eebcac0a3d33203e1074da0d9a",
      "transactionType": "CALL",
      "contractName": null,
      "contractAddress": "0xa332fc0bf257aff4ab07267de75d5eb0c67b71af",
      "function": "setFeeMultiplier(uint8,uint256)",
      "arguments": [
        "22",
        "1"
      ],
      "transaction": {
        "from": "0xe62ab4d111f968660c6b2188046f9b9ba53c4bae",
        "to": "0xa332fc0bf257aff4ab07267de75d5eb0c67b71af",
        "gas": "0x10641",
        "value": "0x0",
        "input": "0x0ee24eb500000000000000000000000000000000000000000000000000000000000000160000000000000000000000000000000000000000000000000000000000000001",
        "nonce": "0x371",
        "chainId": "0x13882"
      },
      "additionalContracts": [],
      "isFixedGasLimit": false
    },
    {
      "hash": "0xd9e4c1a46ad3085ed4d0db524828e9e676b345ea9e50b9aba26a675e165ca32e",
      "transactionType": "CALL",
      "contractName": null,
      "contractAddress": "0xa332fc0bf257aff4ab07267de75d5eb0c67b71af",
      "function": "setFeeMultiplier(uint8,uint256)",
      "arguments": [
        "23",
        "5"
      ],
      "transaction": {
        "from": "0xe62ab4d111f968660c6b2188046f9b9ba53c4bae",
        "to": "0xa332fc0bf257aff4ab07267de75d5eb0c67b71af",
        "gas": "0x10661",
        "value": "0x0",
        "input": "0x0ee24eb500000000000000000000000000000000000000000000000000000000000000170000000000000000000000000000000000000000000000000000000000000005",
        "nonce": "0x372",
        "chainId": "0x13882"
      },
      "additionalContracts": [],
      "isFixedGasLimit": false
    },
    {
      "hash": "0x1f54f7ac1d0190a97b35b8e893464f4b9a653513e26edd9bf379ed2d5bb1ff14",
      "transactionType": "CALL",
      "contractName": null,
      "contractAddress": "0xa332fc0bf257aff4ab07267de75d5eb0c67b71af",
      "function": "addFeeToken(string,string[],uint256[])",
      "arguments": [
        "421614",
        "[0x6a4dbc971533ba36bdc23ad70f5a7a12e064f4ae]",
        "[100]"
      ],
      "transaction": {
        "from": "0xe62ab4d111f968660c6b2188046f9b9ba53c4bae",
        "to": "0xa332fc0bf257aff4ab07267de75d5eb0c67b71af",
        "gas": "0x31c34",
        "value": "0x0",
        "input": "0x437bf84f000000000000000000000000000000000000000000000000000000000000006000000000000000000000000000000000000000000000000000000000000000a000000000000000000000000000000000000000000000000000000000000001400000000000000000000000000000000000000000000000000000000000000006343231363134000000000000000000000000000000000000000000000000000000000000000000000000000000000000000000000000000000000000000000010000000000000000000000000000000000000000000000000000000000000020000000000000000000000000000000000000000000000000000000000000002a3078366134646263393731353333626133366264633233616437306635613761313265303634663461650000000000000000000000000000000000000000000000000000000000000000000000000000000000000000000000000000000000010000000000000000000000000000000000000000000000000000000000000064",
        "nonce": "0x373",
        "chainId": "0x13882"
      },
      "additionalContracts": [],
      "isFixedGasLimit": false
    },
    {
      "hash": "0x57668cb5f13c557a298752851508c5db2f7742434072e42902d99efd20307d6f",
      "transactionType": "CALL",
      "contractName": null,
      "contractAddress": "0xa332fc0bf257aff4ab07267de75d5eb0c67b71af",
      "function": "addFeeToken(string,string[],uint256[])",
      "arguments": [
        "84532",
        "[0x6a4dbc971533ba36bdc23ad70f5a7a12e064f4ae]",
        "[100]"
      ],
      "transaction": {
        "from": "0xe62ab4d111f968660c6b2188046f9b9ba53c4bae",
        "to": "0xa332fc0bf257aff4ab07267de75d5eb0c67b71af",
        "gas": "0x29c78",
        "value": "0x0",
        "input": "0x437bf84f000000000000000000000000000000000000000000000000000000000000006000000000000000000000000000000000000000000000000000000000000000a000000000000000000000000000000000000000000000000000000000000001400000000000000000000000000000000000000000000000000000000000000005383435333200000000000000000000000000000000000000000000000000000000000000000000000000000000000000000000000000000000000000000000010000000000000000000000000000000000000000000000000000000000000020000000000000000000000000000000000000000000000000000000000000002a3078366134646263393731353333626133366264633233616437306635613761313265303634663461650000000000000000000000000000000000000000000000000000000000000000000000000000000000000000000000000000000000010000000000000000000000000000000000000000000000000000000000000064",
        "nonce": "0x374",
        "chainId": "0x13882"
      },
      "additionalContracts": [],
      "isFixedGasLimit": false
    },
    {
      "hash": "0xcba2e1e5abd244103b775b0a14942d99e749f640723d3d2b914ffaf526d6e854",
      "transactionType": "CALL",
      "contractName": null,
      "contractAddress": "0xa332fc0bf257aff4ab07267de75d5eb0c67b71af",
      "function": "addFeeToken(string,string[],uint256[])",
      "arguments": [
        "80002",
        "[0x6a4dbc971533ba36bdc23ad70f5a7a12e064f4ae]",
        "[100]"
      ],
      "transaction": {
        "from": "0xe62ab4d111f968660c6b2188046f9b9ba53c4bae",
        "to": "0xa332fc0bf257aff4ab07267de75d5eb0c67b71af",
        "gas": "0x29c78",
        "value": "0x0",
        "input": "0x437bf84f000000000000000000000000000000000000000000000000000000000000006000000000000000000000000000000000000000000000000000000000000000a000000000000000000000000000000000000000000000000000000000000001400000000000000000000000000000000000000000000000000000000000000005383030303200000000000000000000000000000000000000000000000000000000000000000000000000000000000000000000000000000000000000000000010000000000000000000000000000000000000000000000000000000000000020000000000000000000000000000000000000000000000000000000000000002a3078366134646263393731353333626133366264633233616437306635613761313265303634663461650000000000000000000000000000000000000000000000000000000000000000000000000000000000000000000000000000000000010000000000000000000000000000000000000000000000000000000000000064",
        "nonce": "0x375",
        "chainId": "0x13882"
      },
      "additionalContracts": [],
      "isFixedGasLimit": false
    },
    {
      "hash": "0xd2adba44a404c0a0d2f04a0ac0d777f29d2d7803c6dd1fbde399e55c50987357",
      "transactionType": "CALL",
      "contractName": null,
      "contractAddress": "0xa332fc0bf257aff4ab07267de75d5eb0c67b71af",
      "function": "addFeeToken(string,string[],uint256[])",
      "arguments": [
        "11155111",
        "[0x6a4dbc971533ba36bdc23ad70f5a7a12e064f4ae]",
        "[100]"
      ],
      "transaction": {
        "from": "0xe62ab4d111f968660c6b2188046f9b9ba53c4bae",
        "to": "0xa332fc0bf257aff4ab07267de75d5eb0c67b71af",
        "gas": "0x2a28d",
        "value": "0x0",
        "input": "0x437bf84f000000000000000000000000000000000000000000000000000000000000006000000000000000000000000000000000000000000000000000000000000000a000000000000000000000000000000000000000000000000000000000000001400000000000000000000000000000000000000000000000000000000000000008313131353531313100000000000000000000000000000000000000000000000000000000000000000000000000000000000000000000000000000000000000010000000000000000000000000000000000000000000000000000000000000020000000000000000000000000000000000000000000000000000000000000002a3078366134646263393731353333626133366264633233616437306635613761313265303634663461650000000000000000000000000000000000000000000000000000000000000000000000000000000000000000000000000000000000010000000000000000000000000000000000000000000000000000000000000064",
        "nonce": "0x376",
        "chainId": "0x13882"
      },
      "additionalContracts": [],
      "isFixedGasLimit": false
    },
    {
      "hash": "0xcbbc421139bc930298b11519a9fd32415cc23bb652c15fbfd21980b05462a016",
      "transactionType": "CALL",
      "contractName": null,
      "contractAddress": "0xa332fc0bf257aff4ab07267de75d5eb0c67b71af",
      "function": "addFeeToken(string,string[],uint256[])",
      "arguments": [
        "97",
        "[0x6a4dbc971533ba36bdc23ad70f5a7a12e064f4ae]",
        "[100]"
      ],
      "transaction": {
        "from": "0xe62ab4d111f968660c6b2188046f9b9ba53c4bae",
        "to": "0xa332fc0bf257aff4ab07267de75d5eb0c67b71af",
        "gas": "0x29661",
        "value": "0x0",
        "input": "0x437bf84f000000000000000000000000000000000000000000000000000000000000006000000000000000000000000000000000000000000000000000000000000000a000000000000000000000000000000000000000000000000000000000000001400000000000000000000000000000000000000000000000000000000000000002393700000000000000000000000000000000000000000000000000000000000000000000000000000000000000000000000000000000000000000000000000010000000000000000000000000000000000000000000000000000000000000020000000000000000000000000000000000000000000000000000000000000002a3078366134646263393731353333626133366264633233616437306635613761313265303634663461650000000000000000000000000000000000000000000000000000000000000000000000000000000000000000000000000000000000010000000000000000000000000000000000000000000000000000000000000064",
        "nonce": "0x377",
        "chainId": "0x13882"
      },
      "additionalContracts": [],
      "isFixedGasLimit": false
    },
    {
      "hash": "0x2407aa01063167943866088337c6b8146ce1f5a90ac1b5ffca79a04b88848a8c",
      "transactionType": "CALL",
      "contractName": null,
      "contractAddress": "0xa332fc0bf257aff4ab07267de75d5eb0c67b71af",
      "function": "addFeeToken(string,string[],uint256[])",
      "arguments": [
        "1952959480",
        "[0x6a4dbc971533ba36bdc23ad70f5a7a12e064f4ae]",
        "[100]"
      ],
      "transaction": {
        "from": "0xe62ab4d111f968660c6b2188046f9b9ba53c4bae",
        "to": "0xa332fc0bf257aff4ab07267de75d5eb0c67b71af",
        "gas": "0x2a69c",
        "value": "0x0",
        "input": "0x437bf84f000000000000000000000000000000000000000000000000000000000000006000000000000000000000000000000000000000000000000000000000000000a00000000000000000000000000000000000000000000000000000000000000140000000000000000000000000000000000000000000000000000000000000000a313935323935393438300000000000000000000000000000000000000000000000000000000000000000000000000000000000000000000000000000000000010000000000000000000000000000000000000000000000000000000000000020000000000000000000000000000000000000000000000000000000000000002a3078366134646263393731353333626133366264633233616437306635613761313265303634663461650000000000000000000000000000000000000000000000000000000000000000000000000000000000000000000000000000000000010000000000000000000000000000000000000000000000000000000000000064",
        "nonce": "0x378",
        "chainId": "0x13882"
      },
      "additionalContracts": [],
      "isFixedGasLimit": false
    },
    {
      "hash": "0x56bf26d0f5354bc0a67cd04471b2639b0d46c1d692f8f8174b1c89d9a5dd99b3",
      "transactionType": "CALL",
      "contractName": null,
      "contractAddress": "0xa332fc0bf257aff4ab07267de75d5eb0c67b71af",
      "function": "addFeeToken(string,string[],uint256[])",
      "arguments": [
        "5611",
        "[0x6a4dbc971533ba36bdc23ad70f5a7a12e064f4ae]",
        "[100]"
      ],
      "transaction": {
        "from": "0xe62ab4d111f968660c6b2188046f9b9ba53c4bae",
        "to": "0xa332fc0bf257aff4ab07267de75d5eb0c67b71af",
        "gas": "0x29a70",
        "value": "0x0",
        "input": "0x437bf84f000000000000000000000000000000000000000000000000000000000000006000000000000000000000000000000000000000000000000000000000000000a000000000000000000000000000000000000000000000000000000000000001400000000000000000000000000000000000000000000000000000000000000004353631310000000000000000000000000000000000000000000000000000000000000000000000000000000000000000000000000000000000000000000000010000000000000000000000000000000000000000000000000000000000000020000000000000000000000000000000000000000000000000000000000000002a3078366134646263393731353333626133366264633233616437306635613761313265303634663461650000000000000000000000000000000000000000000000000000000000000000000000000000000000000000000000000000000000010000000000000000000000000000000000000000000000000000000000000064",
        "nonce": "0x379",
        "chainId": "0x13882"
      },
      "additionalContracts": [],
      "isFixedGasLimit": false
    },
    {
      "hash": "0xd8698c84157c24fb9081419334dd163efaf2febbcbfee2b4c632e2600a2845cb",
      "transactionType": "CALL",
      "contractName": null,
      "contractAddress": "0xa332fc0bf257aff4ab07267de75d5eb0c67b71af",
      "function": "addFeeToken(string,string[],uint256[])",
      "arguments": [
        "1946",
        "[0x6a4dbc971533ba36bdc23ad70f5a7a12e064f4ae]",
        "[100]"
      ],
      "transaction": {
        "from": "0xe62ab4d111f968660c6b2188046f9b9ba53c4bae",
        "to": "0xa332fc0bf257aff4ab07267de75d5eb0c67b71af",
        "gas": "0x29a70",
        "value": "0x0",
        "input": "0x437bf84f000000000000000000000000000000000000000000000000000000000000006000000000000000000000000000000000000000000000000000000000000000a000000000000000000000000000000000000000000000000000000000000001400000000000000000000000000000000000000000000000000000000000000004313934360000000000000000000000000000000000000000000000000000000000000000000000000000000000000000000000000000000000000000000000010000000000000000000000000000000000000000000000000000000000000020000000000000000000000000000000000000000000000000000000000000002a3078366134646263393731353333626133366264633233616437306635613761313265303634663461650000000000000000000000000000000000000000000000000000000000000000000000000000000000000000000000000000000000010000000000000000000000000000000000000000000000000000000000000064",
        "nonce": "0x37a",
        "chainId": "0x13882"
      },
      "additionalContracts": [],
      "isFixedGasLimit": false
    },
    {
      "hash": "0xbf0f3c794d008bca5ba651240166176e96ddb325f4d7b386bf310150d8559e2b",
      "transactionType": "CALL",
      "contractName": null,
      "contractAddress": "0xa332fc0bf257aff4ab07267de75d5eb0c67b71af",
      "function": "addFeeToken(string,string[],uint256[])",
      "arguments": [
        "534351",
        "[0x6a4dbc971533ba36bdc23ad70f5a7a12e064f4ae]",
        "[100]"
      ],
      "transaction": {
        "from": "0xe62ab4d111f968660c6b2188046f9b9ba53c4bae",
        "to": "0xa332fc0bf257aff4ab07267de75d5eb0c67b71af",
        "gas": "0x29e7e",
        "value": "0x0",
        "input": "0x437bf84f000000000000000000000000000000000000000000000000000000000000006000000000000000000000000000000000000000000000000000000000000000a000000000000000000000000000000000000000000000000000000000000001400000000000000000000000000000000000000000000000000000000000000006353334333531000000000000000000000000000000000000000000000000000000000000000000000000000000000000000000000000000000000000000000010000000000000000000000000000000000000000000000000000000000000020000000000000000000000000000000000000000000000000000000000000002a3078366134646263393731353333626133366264633233616437306635613761313265303634663461650000000000000000000000000000000000000000000000000000000000000000000000000000000000000000000000000000000000010000000000000000000000000000000000000000000000000000000000000064",
        "nonce": "0x37b",
        "chainId": "0x13882"
      },
      "additionalContracts": [],
      "isFixedGasLimit": false
    },
    {
      "hash": "0x3cd713dfa6c3a701d5ccf90795993ffd5f1caaa3608d00c78e4b99d029c925df",
      "transactionType": "CALL",
      "contractName": null,
      "contractAddress": "0xa332fc0bf257aff4ab07267de75d5eb0c67b71af",
      "function": "addFeeToken(string,string[],uint256[])",
      "arguments": [
        "17000",
        "[0x6a4dbc971533ba36bdc23ad70f5a7a12e064f4ae]",
        "[100]"
      ],
      "transaction": {
        "from": "0xe62ab4d111f968660c6b2188046f9b9ba53c4bae",
        "to": "0xa332fc0bf257aff4ab07267de75d5eb0c67b71af",
        "gas": "0x29c78",
        "value": "0x0",
        "input": "0x437bf84f000000000000000000000000000000000000000000000000000000000000006000000000000000000000000000000000000000000000000000000000000000a000000000000000000000000000000000000000000000000000000000000001400000000000000000000000000000000000000000000000000000000000000005313730303000000000000000000000000000000000000000000000000000000000000000000000000000000000000000000000000000000000000000000000010000000000000000000000000000000000000000000000000000000000000020000000000000000000000000000000000000000000000000000000000000002a3078366134646263393731353333626133366264633233616437306635613761313265303634663461650000000000000000000000000000000000000000000000000000000000000000000000000000000000000000000000000000000000010000000000000000000000000000000000000000000000000000000000000064",
        "nonce": "0x37c",
        "chainId": "0x13882"
      },
      "additionalContracts": [],
      "isFixedGasLimit": false
    },
    {
      "hash": "0xdcfe0519b706b2f22d297cb28f12c48493254b84c51976958e168e15cce0dbe1",
      "transactionType": "CALL",
      "contractName": null,
      "contractAddress": "0xa332fc0bf257aff4ab07267de75d5eb0c67b71af",
      "function": "addFeeToken(string,string[],uint256[])",
      "arguments": [
        "5003",
        "[0x6a4dbc971533ba36bdc23ad70f5a7a12e064f4ae]",
        "[100]"
      ],
      "transaction": {
        "from": "0xe62ab4d111f968660c6b2188046f9b9ba53c4bae",
        "to": "0xa332fc0bf257aff4ab07267de75d5eb0c67b71af",
        "gas": "0x29a70",
        "value": "0x0",
        "input": "0x437bf84f000000000000000000000000000000000000000000000000000000000000006000000000000000000000000000000000000000000000000000000000000000a000000000000000000000000000000000000000000000000000000000000001400000000000000000000000000000000000000000000000000000000000000004353030330000000000000000000000000000000000000000000000000000000000000000000000000000000000000000000000000000000000000000000000010000000000000000000000000000000000000000000000000000000000000020000000000000000000000000000000000000000000000000000000000000002a3078366134646263393731353333626133366264633233616437306635613761313265303634663461650000000000000000000000000000000000000000000000000000000000000000000000000000000000000000000000000000000000010000000000000000000000000000000000000000000000000000000000000064",
        "nonce": "0x37d",
        "chainId": "0x13882"
      },
      "additionalContracts": [],
      "isFixedGasLimit": false
    },
    {
      "hash": "0xf7f8ecfc83b9ca8017dd89951193620862433e9ce5960199a739b68c39b3e185",
      "transactionType": "CALL",
      "contractName": null,
      "contractAddress": "0xa332fc0bf257aff4ab07267de75d5eb0c67b71af",
      "function": "addFeeToken(string,string[],uint256[])",
      "arguments": [
        "168587773",
        "[0x6a4dbc971533ba36bdc23ad70f5a7a12e064f4ae]",
        "[100]"
      ],
      "transaction": {
        "from": "0xe62ab4d111f968660c6b2188046f9b9ba53c4bae",
        "to": "0xa332fc0bf257aff4ab07267de75d5eb0c67b71af",
        "gas": "0x2a495",
        "value": "0x0",
        "input": "0x437bf84f000000000000000000000000000000000000000000000000000000000000006000000000000000000000000000000000000000000000000000000000000000a000000000000000000000000000000000000000000000000000000000000001400000000000000000000000000000000000000000000000000000000000000009313638353837373733000000000000000000000000000000000000000000000000000000000000000000000000000000000000000000000000000000000000010000000000000000000000000000000000000000000000000000000000000020000000000000000000000000000000000000000000000000000000000000002a3078366134646263393731353333626133366264633233616437306635613761313265303634663461650000000000000000000000000000000000000000000000000000000000000000000000000000000000000000000000000000000000010000000000000000000000000000000000000000000000000000000000000064",
        "nonce": "0x37e",
        "chainId": "0x13882"
      },
      "additionalContracts": [],
      "isFixedGasLimit": false
    },
    {
      "hash": "0xaa18786b292a01a02733046dceb134083bef84b07c7a44d7ec9a085c04bd4470",
      "transactionType": "CALL",
      "contractName": null,
      "contractAddress": "0xa332fc0bf257aff4ab07267de75d5eb0c67b71af",
      "function": "addFeeToken(string,string[],uint256[])",
      "arguments": [
        "153",
        "[0x6a4dbc971533ba36bdc23ad70f5a7a12e064f4ae]",
        "[100]"
      ],
      "transaction": {
        "from": "0xe62ab4d111f968660c6b2188046f9b9ba53c4bae",
        "to": "0xa332fc0bf257aff4ab07267de75d5eb0c67b71af",
        "gas": "0x29869",
        "value": "0x0",
        "input": "0x437bf84f000000000000000000000000000000000000000000000000000000000000006000000000000000000000000000000000000000000000000000000000000000a000000000000000000000000000000000000000000000000000000000000001400000000000000000000000000000000000000000000000000000000000000003313533000000000000000000000000000000000000000000000000000000000000000000000000000000000000000000000000000000000000000000000000010000000000000000000000000000000000000000000000000000000000000020000000000000000000000000000000000000000000000000000000000000002a3078366134646263393731353333626133366264633233616437306635613761313265303634663461650000000000000000000000000000000000000000000000000000000000000000000000000000000000000000000000000000000000010000000000000000000000000000000000000000000000000000000000000064",
        "nonce": "0x37f",
        "chainId": "0x13882"
      },
      "additionalContracts": [],
      "isFixedGasLimit": false
    },
    {
      "hash": "0x11aed0b0f1413781945f3a1eeb26b0bb31ab073942987a614b1adf00eb43f067",
      "transactionType": "CALL",
      "contractName": null,
      "contractAddress": "0xa332fc0bf257aff4ab07267de75d5eb0c67b71af",
      "function": "addFeeToken(string,string[],uint256[])",
      "arguments": [
        "11155420",
        "[0x6a4dbc971533ba36bdc23ad70f5a7a12e064f4ae]",
        "[100]"
      ],
      "transaction": {
        "from": "0xe62ab4d111f968660c6b2188046f9b9ba53c4bae",
        "to": "0xa332fc0bf257aff4ab07267de75d5eb0c67b71af",
        "gas": "0x2a28d",
        "value": "0x0",
        "input": "0x437bf84f000000000000000000000000000000000000000000000000000000000000006000000000000000000000000000000000000000000000000000000000000000a000000000000000000000000000000000000000000000000000000000000001400000000000000000000000000000000000000000000000000000000000000008313131353534323000000000000000000000000000000000000000000000000000000000000000000000000000000000000000000000000000000000000000010000000000000000000000000000000000000000000000000000000000000020000000000000000000000000000000000000000000000000000000000000002a3078366134646263393731353333626133366264633233616437306635613761313265303634663461650000000000000000000000000000000000000000000000000000000000000000000000000000000000000000000000000000000000010000000000000000000000000000000000000000000000000000000000000064",
        "nonce": "0x380",
        "chainId": "0x13882"
      },
      "additionalContracts": [],
      "isFixedGasLimit": false
    },
    {
      "hash": "0xba352a1eb7075c0f1fa41696e119de93f03d8e0640fc8f4c5a58ef63c44022f2",
      "transactionType": "CALL",
      "contractName": null,
      "contractAddress": "0xa332fc0bf257aff4ab07267de75d5eb0c67b71af",
      "function": "addFeeToken(string,string[],uint256[])",
      "arguments": [
        "43113",
        "[0x6a4dbc971533ba36bdc23ad70f5a7a12e064f4ae]",
        "[100]"
      ],
      "transaction": {
        "from": "0xe62ab4d111f968660c6b2188046f9b9ba53c4bae",
        "to": "0xa332fc0bf257aff4ab07267de75d5eb0c67b71af",
        "gas": "0x29c78",
        "value": "0x0",
        "input": "0x437bf84f000000000000000000000000000000000000000000000000000000000000006000000000000000000000000000000000000000000000000000000000000000a000000000000000000000000000000000000000000000000000000000000001400000000000000000000000000000000000000000000000000000000000000005343331313300000000000000000000000000000000000000000000000000000000000000000000000000000000000000000000000000000000000000000000010000000000000000000000000000000000000000000000000000000000000020000000000000000000000000000000000000000000000000000000000000002a3078366134646263393731353333626133366264633233616437306635613761313265303634663461650000000000000000000000000000000000000000000000000000000000000000000000000000000000000000000000000000000000010000000000000000000000000000000000000000000000000000000000000064",
        "nonce": "0x381",
        "chainId": "0x13882"
      },
      "additionalContracts": [],
      "isFixedGasLimit": false
    },
    {
      "hash": "0x2fb257187e32516e19dd33ef4519f7ba26ee3ba2aaf28066b5f74151107c49b4",
      "transactionType": "CALL",
      "contractName": null,
      "contractAddress": "0x66db3f564807fdc689ec85285981ef464daeb943",
      "function": "addChainContract(string[],string[])",
      "arguments": [
        "[421614, 84532, 11155111, 97, 1952959480, 5611, 1946, 534351, 17000, 5003, 168587773, 153, 11155420, 43113]",
        "[0xfa89dd803b8872f991997778d26c74a3aecd9639, 0x31f21c6e2605d28e6b204cd323ff58421fc8dd00, 0x13797c225f8e3645299f17d83365e0f5db1c1607, 0x7a63f6b51c503e9a3354af8262e8c7129abdbbeb, 0x5fd63ca6c373cd35e8e373fb5fa7830a8783eced, 0x78f81b1aee019efaafe58853d96c5e9ac87be731, 0xa7441037961e31d4b64aca57417d7673fedc8fec, 0x1944f7fdd330af7b0e7c08349591213e35ed5948, 0x1eebc47aae37f2ea390869efe60db5a2cf2c9d80, 0xf5b9b2dcda465ad62b56390da5c36e4403e5ae92, 0xea4a06cb68aba869e6bf98edc4bdbc731d2d82e3, 0xfbdbf53eb371419e92c718ac76632c7f3617545a, 0xf74b4051a565399b114a0fd6a674ecab864ae186, 0x8176186fa521e54f12dd8011eb6729003e3d3fe0]"
      ],
      "transaction": {
        "from": "0xe62ab4d111f968660c6b2188046f9b9ba53c4bae",
        "to": "0x66db3f564807fdc689ec85285981ef464daeb943",
        "gas": "0x25a785",
        "value": "0x0",
        "input": "0x013fd3bd000000000000000000000000000000000000000000000000000000000000004000000000000000000000000000000000000000000000000000000000000005a0000000000000000000000000000000000000000000000000000000000000000e00000000000000000000000000000000000000000000000000000000000001c000000000000000000000000000000000000000000000000000000000000002000000000000000000000000000000000000000000000000000000000000000240000000000000000000000000000000000000000000000000000000000000028000000000000000000000000000000000000000000000000000000000000002c000000000000000000000000000000000000000000000000000000000000003000000000000000000000000000000000000000000000000000000000000000340000000000000000000000000000000000000000000000000000000000000038000000000000000000000000000000000000000000000000000000000000003c000000000000000000000000000000000000000000000000000000000000004000000000000000000000000000000000000000000000000000000000000000440000000000000000000000000000000000000000000000000000000000000048000000000000000000000000000000000000000000000000000000000000004c0000000000000000000000000000000000000000000000000000000000000050000000000000000000000000000000000000000000000000000000000000000063432313631340000000000000000000000000000000000000000000000000000000000000000000000000000000000000000000000000000000000000000000538343533320000000000000000000000000000000000000000000000000000000000000000000000000000000000000000000000000000000000000000000008313131353531313100000000000000000000000000000000000000000000000000000000000000000000000000000000000000000000000000000000000000023937000000000000000000000000000000000000000000000000000000000000000000000000000000000000000000000000000000000000000000000000000a3139353239353934383000000000000000000000000000000000000000000000000000000000000000000000000000000000000000000000000000000000000435363131000000000000000000000000000000000000000000000000000000000000000000000000000000000000000000000000000000000000000000000004313934360000000000000000000000000000000000000000000000000000000000000000000000000000000000000000000000000000000000000000000000063533343335310000000000000000000000000000000000000000000000000000000000000000000000000000000000000000000000000000000000000000000531373030300000000000000000000000000000000000000000000000000000000000000000000000000000000000000000000000000000000000000000000004353030330000000000000000000000000000000000000000000000000000000000000000000000000000000000000000000000000000000000000000000000093136383538373737330000000000000000000000000000000000000000000000000000000000000000000000000000000000000000000000000000000000000331353300000000000000000000000000000000000000000000000000000000000000000000000000000000000000000000000000000000000000000000000008313131353534323000000000000000000000000000000000000000000000000000000000000000000000000000000000000000000000000000000000000000053433313133000000000000000000000000000000000000000000000000000000000000000000000000000000000000000000000000000000000000000000000e00000000000000000000000000000000000000000000000000000000000001c00000000000000000000000000000000000000000000000000000000000000220000000000000000000000000000000000000000000000000000000000000028000000000000000000000000000000000000000000000000000000000000002e0000000000000000000000000000000000000000000000000000000000000034000000000000000000000000000000000000000000000000000000000000003a00000000000000000000000000000000000000000000000000000000000000400000000000000000000000000000000000000000000000000000000000000046000000000000000000000000000000000000000000000000000000000000004c00000000000000000000000000000000000000000000000000000000000000520000000000000000000000000000000000000000000000000000000000000058000000000000000000000000000000000000000000000000000000000000005e0000000000000000000000000000000000000000000000000000000000000064000000000000000000000000000000000000000000000000000000000000006a0000000000000000000000000000000000000000000000000000000000000002a30786661383964643830336238383732663939313939373737386432366337346133616563643936333900000000000000000000000000000000000000000000000000000000000000000000000000000000000000000000000000000000002a30783331663231633665323630356432386536623230346364333233666635383432316663386464303000000000000000000000000000000000000000000000000000000000000000000000000000000000000000000000000000000000002a30783133373937633232356638653336343532393966313764383333363565306635646231633136303700000000000000000000000000000000000000000000000000000000000000000000000000000000000000000000000000000000002a30783761363366366235316335303365396133333534616638323632653863373132396162646262656200000000000000000000000000000000000000000000000000000000000000000000000000000000000000000000000000000000002a30783566643633636136633337336364333565386533373366623566613738333061383738336563656400000000000000000000000000000000000000000000000000000000000000000000000000000000000000000000000000000000002a30783738663831623161656530313965666161666535383835336439366335653961633837626537333100000000000000000000000000000000000000000000000000000000000000000000000000000000000000000000000000000000002a30786137343431303337393631653331643462363461636135373431376437363733666564633866656300000000000000000000000000000000000000000000000000000000000000000000000000000000000000000000000000000000002a30783139343466376664643333306166376230653763303833343935393132313365333565643539343800000000000000000000000000000000000000000000000000000000000000000000000000000000000000000000000000000000002a30783165656263343761616533376632656133393038363965666536306462356132636632633964383000000000000000000000000000000000000000000000000000000000000000000000000000000000000000000000000000000000002a30786635623962326463646134363561643632623536333930646135633336653434303365356165393200000000000000000000000000000000000000000000000000000000000000000000000000000000000000000000000000000000002a30786561346130366362363861626138363965366266393865646334626462633733316432643832653300000000000000000000000000000000000000000000000000000000000000000000000000000000000000000000000000000000002a30786662646266353365623337313431396539326337313861633736363332633766333631373534356100000000000000000000000000000000000000000000000000000000000000000000000000000000000000000000000000000000002a30786637346234303531613536353339396231313461306664366136373465636162383634616531383600000000000000000000000000000000000000000000000000000000000000000000000000000000000000000000000000000000002a30783831373631383666613532316535346631326464383031316562363732393030336533643366653000000000000000000000000000000000000000000000",
        "nonce": "0x382",
        "chainId": "0x13882"
      },
      "additionalContracts": [],
      "isFixedGasLimit": false
    },
    {
      "hash": "0xba5ddfff0e7c0cb8c39a8aa85163778149cda29aa4f0ab480fd466f124b805b9",
      "transactionType": "CALL",
      "contractName": null,
      "contractAddress": "0x66db3f564807fdc689ec85285981ef464daeb943",
      "function": "attachRWAX(uint256,uint256,string[],string[])",
      "arguments": [
        "1",
        "1",
        "[80002, 421614, 84532, 11155111, 97, 1952959480, 5611, 1946, 534351, 17000, 5003, 168587773, 153, 11155420, 43113]",
        "[0x2da1b2763cf56b9df5cbbb5a996c7e8836d8c6d8, 0x8bd737f4ea451911edf0445acb1b7efdc9565221, 0x8736d3b789a6548cc8fb607da34ed860ab626322, 0x778511925d3243cf03a2486386ecc363e9ad6647, 0x37c7137dc6e3dc3c3637bfed3f6dbfbd43386429, 0x62421e1c0110aebd376e34411c2616c10eff9161, 0x7743150e59d6a27ec96ddda07b24131d0122b611, 0xf299832e535b9cc50d4002909061c320964d03fc, 0x1249d751e6a0b7b11b9e55cbf8bc7d397ac3c083, 0x9372cd1287e0bb6337802d80dff342348c85fd78, 0x6b39331e9478571bf6d55842aab470ba3196bd5a, 0x9a0f81de582ce9194feadc6ccefaf9ea70451616, 0xfdf17bece656a0ac2d1302305962122a968eea28, 0xb9de1c03eea7546d9db1fa6fc19dfa7443f0aede, 0x5e0d85dfa2827cd3065ab2d4af93e58dc82c5e96]"
      ],
      "transaction": {
        "from": "0xe62ab4d111f968660c6b2188046f9b9ba53c4bae",
        "to": "0x66db3f564807fdc689ec85285981ef464daeb943",
        "gas": "0x30b912",
        "value": "0x0",
        "input": "0x33a5f5b40000000000000000000000000000000000000000000000000000000000000001000000000000000000000000000000000000000000000000000000000000000100000000000000000000000000000000000000000000000000000000000000800000000000000000000000000000000000000000000000000000000000000640000000000000000000000000000000000000000000000000000000000000000f00000000000000000000000000000000000000000000000000000000000001e00000000000000000000000000000000000000000000000000000000000000220000000000000000000000000000000000000000000000000000000000000026000000000000000000000000000000000000000000000000000000000000002a000000000000000000000000000000000000000000000000000000000000002e00000000000000000000000000000000000000000000000000000000000000320000000000000000000000000000000000000000000000000000000000000036000000000000000000000000000000000000000000000000000000000000003a000000000000000000000000000000000000000000000000000000000000003e00000000000000000000000000000000000000000000000000000000000000420000000000000000000000000000000000000000000000000000000000000046000000000000000000000000000000000000000000000000000000000000004a000000000000000000000000000000000000000000000000000000000000004e0000000000000000000000000000000000000000000000000000000000000052000000000000000000000000000000000000000000000000000000000000005600000000000000000000000000000000000000000000000000000000000000005383030303200000000000000000000000000000000000000000000000000000000000000000000000000000000000000000000000000000000000000000000063432313631340000000000000000000000000000000000000000000000000000000000000000000000000000000000000000000000000000000000000000000538343533320000000000000000000000000000000000000000000000000000000000000000000000000000000000000000000000000000000000000000000008313131353531313100000000000000000000000000000000000000000000000000000000000000000000000000000000000000000000000000000000000000023937000000000000000000000000000000000000000000000000000000000000000000000000000000000000000000000000000000000000000000000000000a3139353239353934383000000000000000000000000000000000000000000000000000000000000000000000000000000000000000000000000000000000000435363131000000000000000000000000000000000000000000000000000000000000000000000000000000000000000000000000000000000000000000000004313934360000000000000000000000000000000000000000000000000000000000000000000000000000000000000000000000000000000000000000000000063533343335310000000000000000000000000000000000000000000000000000000000000000000000000000000000000000000000000000000000000000000531373030300000000000000000000000000000000000000000000000000000000000000000000000000000000000000000000000000000000000000000000004353030330000000000000000000000000000000000000000000000000000000000000000000000000000000000000000000000000000000000000000000000093136383538373737330000000000000000000000000000000000000000000000000000000000000000000000000000000000000000000000000000000000000331353300000000000000000000000000000000000000000000000000000000000000000000000000000000000000000000000000000000000000000000000008313131353534323000000000000000000000000000000000000000000000000000000000000000000000000000000000000000000000000000000000000000053433313133000000000000000000000000000000000000000000000000000000000000000000000000000000000000000000000000000000000000000000000f00000000000000000000000000000000000000000000000000000000000001e0000000000000000000000000000000000000000000000000000000000000024000000000000000000000000000000000000000000000000000000000000002a00000000000000000000000000000000000000000000000000000000000000300000000000000000000000000000000000000000000000000000000000000036000000000000000000000000000000000000000000000000000000000000003c00000000000000000000000000000000000000000000000000000000000000420000000000000000000000000000000000000000000000000000000000000048000000000000000000000000000000000000000000000000000000000000004e0000000000000000000000000000000000000000000000000000000000000054000000000000000000000000000000000000000000000000000000000000005a00000000000000000000000000000000000000000000000000000000000000600000000000000000000000000000000000000000000000000000000000000066000000000000000000000000000000000000000000000000000000000000006c00000000000000000000000000000000000000000000000000000000000000720000000000000000000000000000000000000000000000000000000000000002a30783264613162323736336366353662396466356362626235613939366337653838333664386336643800000000000000000000000000000000000000000000000000000000000000000000000000000000000000000000000000000000002a30783862643733376634656134353139313165646630343435616362316237656664633935363532323100000000000000000000000000000000000000000000000000000000000000000000000000000000000000000000000000000000002a30783837333664336237383961363534386363386662363037646133346564383630616236323633323200000000000000000000000000000000000000000000000000000000000000000000000000000000000000000000000000000000002a30783737383531313932356433323433636630336132343836333836656363333633653961643636343700000000000000000000000000000000000000000000000000000000000000000000000000000000000000000000000000000000002a30783337633731333764633665336463336333363337626665643366366462666264343333383634323900000000000000000000000000000000000000000000000000000000000000000000000000000000000000000000000000000000002a30783632343231653163303131306165626433373665333434313163323631366331306566663931363100000000000000000000000000000000000000000000000000000000000000000000000000000000000000000000000000000000002a30783737343331353065353964366132376563393664646461303762323431333164303132326236313100000000000000000000000000000000000000000000000000000000000000000000000000000000000000000000000000000000002a30786632393938333265353335623963633530643430303239303930363163333230393634643033666300000000000000000000000000000000000000000000000000000000000000000000000000000000000000000000000000000000002a30783132343964373531653661306237623131623965353563626638626337643339376163336330383300000000000000000000000000000000000000000000000000000000000000000000000000000000000000000000000000000000002a30783933373263643132383765306262363333373830326438306466663334323334386338356664373800000000000000000000000000000000000000000000000000000000000000000000000000000000000000000000000000000000002a30783662333933333165393437383537316266366435353834326161623437306261333139366264356100000000000000000000000000000000000000000000000000000000000000000000000000000000000000000000000000000000002a30783961306638316465353832636539313934666561646336636365666166396561373034353136313600000000000000000000000000000000000000000000000000000000000000000000000000000000000000000000000000000000002a30786664663137626563653635366130616332643133303233303539363231323261393638656561323800000000000000000000000000000000000000000000000000000000000000000000000000000000000000000000000000000000002a30786239646531633033656561373534366439646231666136666331396466613734343366306165646500000000000000000000000000000000000000000000000000000000000000000000000000000000000000000000000000000000002a30783565306438356466613238323763643330363561623264346166393365353864633832633565393600000000000000000000000000000000000000000000",
        "nonce": "0x383",
        "chainId": "0x13882"
      },
      "additionalContracts": [],
      "isFixedGasLimit": false
    },
    {
      "hash": "0x7db5225f85c1181a964175ce3ff95ab450d97fbe529e487dc2b874c78ea2b208",
      "transactionType": "CALL",
      "contractName": null,
      "contractAddress": "0x66db3f564807fdc689ec85285981ef464daeb943",
      "function": "attachStorageManager(uint256,uint256,string[],string[])",
      "arguments": [
        "1",
        "1",
        "[80002, 421614, 84532, 11155111, 97, 1952959480, 5611, 1946, 534351, 17000, 5003, 168587773, 153, 11155420, 43113]",
        "[0xb3d138f0613cc476faa8c5e2c1a64e90d9d506f3, 0x7ab4de775c88e4aa4c93d0078d8318463fabfb13, 0x7e0858de387f30ebc0bc2f24a35dc4ad9231cffd, 0x6681db630eb117050d78e0b89eb5619b35ea12e8, 0x71645806ee984439adc3352abb5491ec03928e63, 0xe3a405aa844da4b6e83eae852ba471219163cbe0, 0x926df1f820af8e3cf53a58c94332eb16ba4cb4b5, 0x3f547b04f8cf9552434b7f3a51fc23247911b797, 0xb406b937c12e03d676727fc1bb686279eedbc178, 0xe148fbc6c35b6cecc50d18ebf69959a6a989cb7c, 0xf3f62daf8f096e5e1e8626cf2f35d816d454bc93, 0x8d4eee23a687b304e94eee3211f3058a60744502, 0x35f5b7a7469c7b3e3bb159335ec92ce74f7f11cd, 0x6429d598684efbe5a5ff70451e7b2c501c85e254, 0xae66c08b9d76eecaa74314c60f3305d43707acc9]"
      ],
      "transaction": {
        "from": "0xe62ab4d111f968660c6b2188046f9b9ba53c4bae",
        "to": "0x66db3f564807fdc689ec85285981ef464daeb943",
        "gas": "0x2b63b3",
        "value": "0x0",
        "input": "0x2f68b4890000000000000000000000000000000000000000000000000000000000000001000000000000000000000000000000000000000000000000000000000000000100000000000000000000000000000000000000000000000000000000000000800000000000000000000000000000000000000000000000000000000000000640000000000000000000000000000000000000000000000000000000000000000f00000000000000000000000000000000000000000000000000000000000001e00000000000000000000000000000000000000000000000000000000000000220000000000000000000000000000000000000000000000000000000000000026000000000000000000000000000000000000000000000000000000000000002a000000000000000000000000000000000000000000000000000000000000002e00000000000000000000000000000000000000000000000000000000000000320000000000000000000000000000000000000000000000000000000000000036000000000000000000000000000000000000000000000000000000000000003a000000000000000000000000000000000000000000000000000000000000003e00000000000000000000000000000000000000000000000000000000000000420000000000000000000000000000000000000000000000000000000000000046000000000000000000000000000000000000000000000000000000000000004a000000000000000000000000000000000000000000000000000000000000004e0000000000000000000000000000000000000000000000000000000000000052000000000000000000000000000000000000000000000000000000000000005600000000000000000000000000000000000000000000000000000000000000005383030303200000000000000000000000000000000000000000000000000000000000000000000000000000000000000000000000000000000000000000000063432313631340000000000000000000000000000000000000000000000000000000000000000000000000000000000000000000000000000000000000000000538343533320000000000000000000000000000000000000000000000000000000000000000000000000000000000000000000000000000000000000000000008313131353531313100000000000000000000000000000000000000000000000000000000000000000000000000000000000000000000000000000000000000023937000000000000000000000000000000000000000000000000000000000000000000000000000000000000000000000000000000000000000000000000000a3139353239353934383000000000000000000000000000000000000000000000000000000000000000000000000000000000000000000000000000000000000435363131000000000000000000000000000000000000000000000000000000000000000000000000000000000000000000000000000000000000000000000004313934360000000000000000000000000000000000000000000000000000000000000000000000000000000000000000000000000000000000000000000000063533343335310000000000000000000000000000000000000000000000000000000000000000000000000000000000000000000000000000000000000000000531373030300000000000000000000000000000000000000000000000000000000000000000000000000000000000000000000000000000000000000000000004353030330000000000000000000000000000000000000000000000000000000000000000000000000000000000000000000000000000000000000000000000093136383538373737330000000000000000000000000000000000000000000000000000000000000000000000000000000000000000000000000000000000000331353300000000000000000000000000000000000000000000000000000000000000000000000000000000000000000000000000000000000000000000000008313131353534323000000000000000000000000000000000000000000000000000000000000000000000000000000000000000000000000000000000000000053433313133000000000000000000000000000000000000000000000000000000000000000000000000000000000000000000000000000000000000000000000f00000000000000000000000000000000000000000000000000000000000001e0000000000000000000000000000000000000000000000000000000000000024000000000000000000000000000000000000000000000000000000000000002a00000000000000000000000000000000000000000000000000000000000000300000000000000000000000000000000000000000000000000000000000000036000000000000000000000000000000000000000000000000000000000000003c00000000000000000000000000000000000000000000000000000000000000420000000000000000000000000000000000000000000000000000000000000048000000000000000000000000000000000000000000000000000000000000004e0000000000000000000000000000000000000000000000000000000000000054000000000000000000000000000000000000000000000000000000000000005a00000000000000000000000000000000000000000000000000000000000000600000000000000000000000000000000000000000000000000000000000000066000000000000000000000000000000000000000000000000000000000000006c00000000000000000000000000000000000000000000000000000000000000720000000000000000000000000000000000000000000000000000000000000002a30786233643133386630363133636334373666616138633565326331613634653930643964353036663300000000000000000000000000000000000000000000000000000000000000000000000000000000000000000000000000000000002a30783761623464653737356338386534616134633933643030373864383331383436336661626662313300000000000000000000000000000000000000000000000000000000000000000000000000000000000000000000000000000000002a30783765303835386465333837663330656263306263326632346133356463346164393233316366666400000000000000000000000000000000000000000000000000000000000000000000000000000000000000000000000000000000002a30783636383164623633306562313137303530643738653062383965623536313962333565613132653800000000000000000000000000000000000000000000000000000000000000000000000000000000000000000000000000000000002a30783731363435383036656539383434333961646333333532616262353439316563303339323865363300000000000000000000000000000000000000000000000000000000000000000000000000000000000000000000000000000000002a30786533613430356161383434646134623665383365616538353262613437313231393136336362653000000000000000000000000000000000000000000000000000000000000000000000000000000000000000000000000000000000002a30783932366466316638323061663865336366353361353863393433333265623136626134636234623500000000000000000000000000000000000000000000000000000000000000000000000000000000000000000000000000000000002a30783366353437623034663863663935353234333462376633613531666332333234373931316237393700000000000000000000000000000000000000000000000000000000000000000000000000000000000000000000000000000000002a30786234303662393337633132653033643637363732376663316262363836323739656564626331373800000000000000000000000000000000000000000000000000000000000000000000000000000000000000000000000000000000002a30786531343866626336633335623663656363353064313865626636393935396136613938396362376300000000000000000000000000000000000000000000000000000000000000000000000000000000000000000000000000000000002a30786633663632646166386630393665356531653836323663663266333564383136643435346263393300000000000000000000000000000000000000000000000000000000000000000000000000000000000000000000000000000000002a30783864346565653233613638376233303465393465656533323131663330353861363037343435303200000000000000000000000000000000000000000000000000000000000000000000000000000000000000000000000000000000002a30783335663562376137343639633762336533626231353933333565633932636537346637663131636400000000000000000000000000000000000000000000000000000000000000000000000000000000000000000000000000000000002a30783634323964353938363834656662653561356666373034353165376232633530316338356532353400000000000000000000000000000000000000000000000000000000000000000000000000000000000000000000000000000000002a30786165363663303862396437366565636161373433313463363066333330356434333730376163633900000000000000000000000000000000000000000000",
        "nonce": "0x384",
        "chainId": "0x13882"
      },
      "additionalContracts": [],
      "isFixedGasLimit": false
    },
    {
      "hash": "0xbebe4933a32e50870090c161e2f40f06ad6e0cbf4c94a7d49173d6d2934760e2",
      "transactionType": "CALL",
      "contractName": null,
      "contractAddress": "0x66db3f564807fdc689ec85285981ef464daeb943",
      "function": "attachSentryManager(uint256,uint256,string[],string[])",
      "arguments": [
        "1",
        "1",
        "[80002, 421614, 84532, 11155111, 97, 1952959480, 5611, 1946, 534351, 17000, 5003, 168587773, 153, 11155420, 43113]",
        "[0xf32bc63a511b3b3deb8fb6aeb3c52ebc0541067e, 0xb63f83484b9bdbad5c574b4c89badf0359e78854, 0x669ab21e6cea598ea34cd1292680937c3def535c, 0xf4842c8354fe42e85d6dcde11cfada1b80beaa33, 0x0d7b0bb763557ea0c7c2d938b5ae3d5ccbbf8d44, 0x4a707b416ee66af8b1671209ed48f5dcc00257bf, 0x3af6a526dd51c8b08fd54dbb624e042bb3b0a77e, 0xc04058e417de221448d4140fc1622de24121c5e3, 0x66dc636132fb9b7f6ed858928b65864d3fd0ea67, 0x208ec1ca3b07a50151c5741bc0e05c61beddad90, 0xb5f5be1ac436d8ad082c4804afeda73088730ed1, 0x0156a74fd9432446030f47f7c55f4d1fbfdf5e9a, 0x2b15aab31879e4b3a9dc521a3a4ebdb5d691d18a, 0xa31ac55003cde3ef9ce9c576a691d0f41586c20b, 0xf9edce2638da660f51ee08220a1a5a32fab61d61]"
      ],
      "transaction": {
        "from": "0xe62ab4d111f968660c6b2188046f9b9ba53c4bae",
        "to": "0x66db3f564807fdc689ec85285981ef464daeb943",
        "gas": "0x29074f",
        "value": "0x0",
        "input": "0x349de7970000000000000000000000000000000000000000000000000000000000000001000000000000000000000000000000000000000000000000000000000000000100000000000000000000000000000000000000000000000000000000000000800000000000000000000000000000000000000000000000000000000000000640000000000000000000000000000000000000000000000000000000000000000f00000000000000000000000000000000000000000000000000000000000001e00000000000000000000000000000000000000000000000000000000000000220000000000000000000000000000000000000000000000000000000000000026000000000000000000000000000000000000000000000000000000000000002a000000000000000000000000000000000000000000000000000000000000002e00000000000000000000000000000000000000000000000000000000000000320000000000000000000000000000000000000000000000000000000000000036000000000000000000000000000000000000000000000000000000000000003a000000000000000000000000000000000000000000000000000000000000003e00000000000000000000000000000000000000000000000000000000000000420000000000000000000000000000000000000000000000000000000000000046000000000000000000000000000000000000000000000000000000000000004a000000000000000000000000000000000000000000000000000000000000004e0000000000000000000000000000000000000000000000000000000000000052000000000000000000000000000000000000000000000000000000000000005600000000000000000000000000000000000000000000000000000000000000005383030303200000000000000000000000000000000000000000000000000000000000000000000000000000000000000000000000000000000000000000000063432313631340000000000000000000000000000000000000000000000000000000000000000000000000000000000000000000000000000000000000000000538343533320000000000000000000000000000000000000000000000000000000000000000000000000000000000000000000000000000000000000000000008313131353531313100000000000000000000000000000000000000000000000000000000000000000000000000000000000000000000000000000000000000023937000000000000000000000000000000000000000000000000000000000000000000000000000000000000000000000000000000000000000000000000000a3139353239353934383000000000000000000000000000000000000000000000000000000000000000000000000000000000000000000000000000000000000435363131000000000000000000000000000000000000000000000000000000000000000000000000000000000000000000000000000000000000000000000004313934360000000000000000000000000000000000000000000000000000000000000000000000000000000000000000000000000000000000000000000000063533343335310000000000000000000000000000000000000000000000000000000000000000000000000000000000000000000000000000000000000000000531373030300000000000000000000000000000000000000000000000000000000000000000000000000000000000000000000000000000000000000000000004353030330000000000000000000000000000000000000000000000000000000000000000000000000000000000000000000000000000000000000000000000093136383538373737330000000000000000000000000000000000000000000000000000000000000000000000000000000000000000000000000000000000000331353300000000000000000000000000000000000000000000000000000000000000000000000000000000000000000000000000000000000000000000000008313131353534323000000000000000000000000000000000000000000000000000000000000000000000000000000000000000000000000000000000000000053433313133000000000000000000000000000000000000000000000000000000000000000000000000000000000000000000000000000000000000000000000f00000000000000000000000000000000000000000000000000000000000001e0000000000000000000000000000000000000000000000000000000000000024000000000000000000000000000000000000000000000000000000000000002a00000000000000000000000000000000000000000000000000000000000000300000000000000000000000000000000000000000000000000000000000000036000000000000000000000000000000000000000000000000000000000000003c00000000000000000000000000000000000000000000000000000000000000420000000000000000000000000000000000000000000000000000000000000048000000000000000000000000000000000000000000000000000000000000004e0000000000000000000000000000000000000000000000000000000000000054000000000000000000000000000000000000000000000000000000000000005a00000000000000000000000000000000000000000000000000000000000000600000000000000000000000000000000000000000000000000000000000000066000000000000000000000000000000000000000000000000000000000000006c00000000000000000000000000000000000000000000000000000000000000720000000000000000000000000000000000000000000000000000000000000002a30786633326263363361353131623362336465623866623661656233633532656263303534313036376500000000000000000000000000000000000000000000000000000000000000000000000000000000000000000000000000000000002a30786236336638333438346239626462616435633537346234633839626164663033353965373838353400000000000000000000000000000000000000000000000000000000000000000000000000000000000000000000000000000000002a30783636396162323165366365613539386561333463643132393236383039333763336465663533356300000000000000000000000000000000000000000000000000000000000000000000000000000000000000000000000000000000002a30786634383432633833353466653432653835643664636465313163666164613162383062656161333300000000000000000000000000000000000000000000000000000000000000000000000000000000000000000000000000000000002a30783064376230626237363335353765613063376332643933386235616533643563636262663864343400000000000000000000000000000000000000000000000000000000000000000000000000000000000000000000000000000000002a30783461373037623431366565363661663862313637313230396564343866356463633030323537626600000000000000000000000000000000000000000000000000000000000000000000000000000000000000000000000000000000002a30783361663661353236646435316338623038666435346462623632346530343262623362306137376500000000000000000000000000000000000000000000000000000000000000000000000000000000000000000000000000000000002a30786330343035386534313764653232313434386434313430666331363232646532343132316335653300000000000000000000000000000000000000000000000000000000000000000000000000000000000000000000000000000000002a30783636646336333631333266623962376636656438353839323862363538363464336664306561363700000000000000000000000000000000000000000000000000000000000000000000000000000000000000000000000000000000002a30783230386563316361336230376135303135316335373431626330653035633631626564646164393000000000000000000000000000000000000000000000000000000000000000000000000000000000000000000000000000000000002a30786235663562653161633433366438616430383263343830346166656461373330383837333065643100000000000000000000000000000000000000000000000000000000000000000000000000000000000000000000000000000000002a30783031353661373466643934333234343630333066343766376335356634643166626664663565396100000000000000000000000000000000000000000000000000000000000000000000000000000000000000000000000000000000002a30783262313561616233313837396534623361396463353231613361346562646235643639316431386100000000000000000000000000000000000000000000000000000000000000000000000000000000000000000000000000000000002a30786133316163353530303363646533656639636539633537366136393164306634313538366332306200000000000000000000000000000000000000000000000000000000000000000000000000000000000000000000000000000000002a30786639656463653236333864613636306635316565303832323061316135613332666162363164363100000000000000000000000000000000000000000000",
        "nonce": "0x385",
        "chainId": "0x13882"
      },
      "additionalContracts": [],
      "isFixedGasLimit": false
    }
  ],
  "receipts": [
    {
      "status": "0x1",
      "cumulativeGasUsed": "0x5e83",
      "logs": [
        {
          "address": "0x0000000000000000000000000000000000001010",
          "topics": [
            "0x4dfe1bbbcf077ddc3e01291eea2d5c70c2b422b415d95645b9adcfd678cb1d63",
            "0x0000000000000000000000000000000000000000000000000000000000001010",
            "0x000000000000000000000000e62ab4d111f968660c6b2188046f9b9ba53c4bae",
            "0x0000000000000000000000007020117712a3fe09b7162ee3f932dae7673c6bdd"
          ],
          "data": "0x000000000000000000000000000000000000000000000000000decd8a9b92c61000000000000000000000000000000000000000000000017cddcffd8ef6084970000000000000000000000000000000000000000000006a9fe005efcc1b4b3fd000000000000000000000000000000000000000000000017cdcf130045a758360000000000000000000000000000000000000000000006a9fe0e4bd56b6de05e",
          "blockHash": "0x4f251738dd76ce4cb3f1fc920a728708ca47f79c6be2b50cfc8f25d31f427776",
          "blockNumber": "0x152ca40",
          "transactionHash": "0xb2a44cfdfd0fe6bb8d68a405c8bc2699a3ef977ca3e46751aa4259fa077816a5",
          "transactionIndex": "0x0",
          "logIndex": "0x0",
          "removed": false
        }
      ],
      "logsBloom": "0x20000000000000000004000000000000000000000000000000000000000000000000000000000000000000000000000000008000000000000000000000000000000000000000000000000000000000800000000000000000000100000000000000000000000000000000000000000000000000000000000080000000000000200000000000000000100000000000040000000000000000000000000000000000200000000000000000000000000000000000000000000000000000000000004000000000000000000001000000000000000000000000000000100000000200000000000000000000000000000000000000000000000000000000000000100000",
      "type": "0x2",
      "transactionHash": "0xb2a44cfdfd0fe6bb8d68a405c8bc2699a3ef977ca3e46751aa4259fa077816a5",
      "transactionIndex": "0x0",
      "blockHash": "0x4f251738dd76ce4cb3f1fc920a728708ca47f79c6be2b50cfc8f25d31f427776",
      "blockNumber": "0x152ca40",
      "gasUsed": "0x5e83",
      "effectiveGasPrice": "0x25b7f3d45a",
      "from": "0xe62ab4d111f968660c6b2188046f9b9ba53c4bae",
      "to": "0xa332fc0bf257aff4ab07267de75d5eb0c67b71af",
      "contractAddress": null
    },
    {
      "status": "0x1",
      "cumulativeGasUsed": "0x2f38b",
      "logs": [
        {
          "address": "0xa332fc0bf257aff4ab07267de75d5eb0c67b71af",
          "topics": [
            "0x1394cfab38f3fc78ed77ea6f9318782a446d96e7dc8e9a6b0149f6be25c08bcf",
            "0x0000000000000000000000006a4dbc971533ba36bdc23ad70f5a7a12e064f4ae"
          ],
          "data": "0x",
          "blockHash": "0x58cc5ab19992d9764dfa763879774c30213db84201dbe7a492ad9e4b49c0c27c",
          "blockNumber": "0x152ca42",
          "transactionHash": "0x55012ed7ae9a7f40ec2fc2bf31b02c33a9de5ba660c506483d08e94c67a6fb04",
          "transactionIndex": "0x2",
          "logIndex": "0x5",
          "removed": false
        },
        {
          "address": "0x0000000000000000000000000000000000001010",
          "topics": [
            "0x4dfe1bbbcf077ddc3e01291eea2d5c70c2b422b415d95645b9adcfd678cb1d63",
            "0x0000000000000000000000000000000000000000000000000000000000001010",
            "0x000000000000000000000000e62ab4d111f968660c6b2188046f9b9ba53c4bae",
            "0x0000000000000000000000007020117712a3fe09b7162ee3f932dae7673c6bdd"
          ],
          "data": "0x0000000000000000000000000000000000000000000000000041a87b885ee22b000000000000000000000000000000000000000000000017cdcf130045a1ce890000000000000000000000000000000000000000000006a9fe99e9b6156d97ac000000000000000000000000000000000000000000000017cd8d6a84bd42ec5e0000000000000000000000000000000000000000000006a9fedb92319dcc79d7",
          "blockHash": "0x58cc5ab19992d9764dfa763879774c30213db84201dbe7a492ad9e4b49c0c27c",
          "blockNumber": "0x152ca42",
          "transactionHash": "0x55012ed7ae9a7f40ec2fc2bf31b02c33a9de5ba660c506483d08e94c67a6fb04",
          "transactionIndex": "0x2",
          "logIndex": "0x6",
          "removed": false
        }
      ],
      "logsBloom": "0x20000000000000000004000000000000000200000000000000000000000000000000000000000000000000000000000000008000000000001000008000000000000000000000000000000000000000800000001000040000002100000000000000000000000000000000000000000000000000000000000080000000000000200000000100000000100000000000040000000000000000000000000000000000200000000000000000000000000000000000000100000000000000000000004000000000000000000001000000000000000000002000000000100000000200000000000000000000000000000000000000000000000000000000000000100000",
      "type": "0x2",
      "transactionHash": "0x55012ed7ae9a7f40ec2fc2bf31b02c33a9de5ba660c506483d08e94c67a6fb04",
      "transactionIndex": "0x2",
      "blockHash": "0x58cc5ab19992d9764dfa763879774c30213db84201dbe7a492ad9e4b49c0c27c",
      "blockNumber": "0x152ca42",
      "gasUsed": "0x1bda1",
      "effectiveGasPrice": "0x25b7f3d45a",
      "from": "0xe62ab4d111f968660c6b2188046f9b9ba53c4bae",
      "to": "0xa332fc0bf257aff4ab07267de75d5eb0c67b71af",
      "contractAddress": null
    },
    {
      "status": "0x1",
      "cumulativeGasUsed": "0xbbd9",
      "logs": [
        {
          "address": "0x0000000000000000000000000000000000001010",
          "topics": [
            "0x4dfe1bbbcf077ddc3e01291eea2d5c70c2b422b415d95645b9adcfd678cb1d63",
            "0x0000000000000000000000000000000000000000000000000000000000001010",
            "0x000000000000000000000000e62ab4d111f968660c6b2188046f9b9ba53c4bae",
            "0x0000000000000000000000007020117712a3fe09b7162ee3f932dae7673c6bdd"
          ],
          "data": "0x000000000000000000000000000000000000000000000000001bad5809c1bc93000000000000000000000000000000000000000000000017cd8d6a84bd28cfef0000000000000000000000000000000000000000000006a9fedb92319dcc79d7000000000000000000000000000000000000000000000017cd71bd2cb367135c0000000000000000000000000000000000000000000006a9fef73f89a78e366a",
          "blockHash": "0xa706bcc9956ead4e0efaa26ea05243a04a42aaca501222f7829f0e8b3310277e",
          "blockNumber": "0x152ca44",
          "transactionHash": "0x46177eb8610c7cbeb8ad95b0162b92ca7ce7819af0269b3d07fd1e273d17a9f1",
          "transactionIndex": "0x0",
          "logIndex": "0x0",
          "removed": false
        }
      ],
      "logsBloom": "0x20000000000000000004000000000000000000000000000000000000000000000000000000000000000000000000000000008000000000000000000000000000000000000000000000000000000000800000000000000000000100000000000000000000000000000000000000000000000000000000000080000000000000200000000000000000100000000000040000000000000000000000000000000000200000000000000000000000000000000000000000000000000000000000004000000000000000000001000000000000000000000000000000100000000200000000000000000000000000000000000000000000000000000000000000100000",
      "type": "0x2",
      "transactionHash": "0x46177eb8610c7cbeb8ad95b0162b92ca7ce7819af0269b3d07fd1e273d17a9f1",
      "transactionIndex": "0x0",
      "blockHash": "0xa706bcc9956ead4e0efaa26ea05243a04a42aaca501222f7829f0e8b3310277e",
      "blockNumber": "0x152ca44",
      "gasUsed": "0xbbd9",
      "effectiveGasPrice": "0x25b7f3d45a",
      "from": "0xe62ab4d111f968660c6b2188046f9b9ba53c4bae",
      "to": "0xa332fc0bf257aff4ab07267de75d5eb0c67b71af",
      "contractAddress": null
    },
    {
      "status": "0x1",
      "cumulativeGasUsed": "0x145b7",
      "logs": [
        {
          "address": "0x0000000000000000000000000000000000001010",
          "topics": [
            "0x4dfe1bbbcf077ddc3e01291eea2d5c70c2b422b415d95645b9adcfd678cb1d63",
            "0x0000000000000000000000000000000000000000000000000000000000001010",
            "0x000000000000000000000000e62ab4d111f968660c6b2188046f9b9ba53c4bae",
            "0x0000000000000000000000007020117712a3fe09b7162ee3f932dae7673c6bdd"
          ],
          "data": "0x000000000000000000000000000000000000000000000000001bb2803017c2d4000000000000000000000000000000000000000000000017cd71bd2cb35c11a50000000000000000000000000000000000000000000006a9ff7ce63421043dd7000000000000000000000000000000000000000000000017cd560aac83444ed10000000000000000000000000000000000000000000006a9ff9898b4511c00ab",
          "blockHash": "0x40e9b6346392090c2275f8bce2bc68f40b5944645e3b6a2f710296ef86776f08",
          "blockNumber": "0x152ca46",
          "transactionHash": "0xa354cad2321f0792dd8e2e0391b180cd4f7ead8fbcad66e66c387ee15f6a9a7d",
          "transactionIndex": "0x1",
          "logIndex": "0x4",
          "removed": false
        }
      ],
      "logsBloom": "0x20000000000000000004000000000000000000000000000000000000000000000000000000000000000000000000000000008000000000000000000000000000000000000000000000000000000000800000000000000000000100000000000000000000000000000000000000000000000000000000000080000000000000200000000000000000100000000000040000000000000000000000000000000000200000000000000000000000000000000000000000000000000000000000004000000000000000000001000000000000000000000000000000100000000200000000000000000000000000000000000000000000000000000000000000100000",
      "type": "0x2",
      "transactionHash": "0xa354cad2321f0792dd8e2e0391b180cd4f7ead8fbcad66e66c387ee15f6a9a7d",
      "transactionIndex": "0x1",
      "blockHash": "0x40e9b6346392090c2275f8bce2bc68f40b5944645e3b6a2f710296ef86776f08",
      "blockNumber": "0x152ca46",
      "gasUsed": "0xbbfc",
      "effectiveGasPrice": "0x25b7f3d45a",
      "from": "0xe62ab4d111f968660c6b2188046f9b9ba53c4bae",
      "to": "0xa332fc0bf257aff4ab07267de75d5eb0c67b71af",
      "contractAddress": null
    },
    {
      "status": "0x1",
      "cumulativeGasUsed": "0xbc13",
      "logs": [
        {
          "address": "0x0000000000000000000000000000000000001010",
          "topics": [
            "0x4dfe1bbbcf077ddc3e01291eea2d5c70c2b422b415d95645b9adcfd678cb1d63",
            "0x0000000000000000000000000000000000000000000000000000000000001010",
            "0x000000000000000000000000e62ab4d111f968660c6b2188046f9b9ba53c4bae",
            "0x0000000000000000000000007020117712a3fe09b7162ee3f932dae7673c6bdd"
          ],
          "data": "0x000000000000000000000000000000000000000000000000001bb5e3b6ffd591000000000000000000000000000000000000000000000017cd560aac83394b0d0000000000000000000000000000000000000000000006a9ff9898b4511c00ab000000000000000000000000000000000000000000000017cd3a54c8cc39757c0000000000000000000000000000000000000000000006a9ffb44e98081bd63c",
          "blockHash": "0xe410993d9da656cff5d1bdd74defa0a7aeb1caaed06d51979ffd6c1c6ccb614d",
          "blockNumber": "0x152ca48",
          "transactionHash": "0x913d8caad97c5124731a42e987752e009a8b0ec4267994e9336a3391a44ff59e",
          "transactionIndex": "0x0",
          "logIndex": "0x0",
          "removed": false
        }
      ],
      "logsBloom": "0x20000000000000000004000000000000000000000000000000000000000000000000000000000000000000000000000000008000000000000000000000000000000000000000000000000000000000800000000000000000000100000000000000000000000000000000000000000000000000000000000080000000000000200000000000000000100000000000040000000000000000000000000000000000200000000000000000000000000000000000000000000000000000000000004000000000000000000001000000000000000000000000000000100000000200000000000000000000000000000000000000000000000000000000000000100000",
      "type": "0x2",
      "transactionHash": "0x913d8caad97c5124731a42e987752e009a8b0ec4267994e9336a3391a44ff59e",
      "transactionIndex": "0x0",
      "blockHash": "0xe410993d9da656cff5d1bdd74defa0a7aeb1caaed06d51979ffd6c1c6ccb614d",
      "blockNumber": "0x152ca48",
      "gasUsed": "0xbc13",
      "effectiveGasPrice": "0x25b7f3d45a",
      "from": "0xe62ab4d111f968660c6b2188046f9b9ba53c4bae",
      "to": "0xa332fc0bf257aff4ab07267de75d5eb0c67b71af",
      "contractAddress": null
    },
    {
      "status": "0x1",
      "cumulativeGasUsed": "0xbc2a",
      "logs": [
        {
          "address": "0x0000000000000000000000000000000000001010",
          "topics": [
            "0x4dfe1bbbcf077ddc3e01291eea2d5c70c2b422b415d95645b9adcfd678cb1d63",
            "0x0000000000000000000000000000000000000000000000000000000000001010",
            "0x000000000000000000000000e62ab4d111f968660c6b2188046f9b9ba53c4bae",
            "0x0000000000000000000000007020117712a3fe09b7162ee3f932dae7673c6bdd"
          ],
          "data": "0x000000000000000000000000000000000000000000000000001bb9473de7e84e000000000000000000000000000000000000000000000017cd3a54c8cc2e705f0000000000000000000000000000000000000000000006aa00a9cf87f3359837000000000000000000000000000000000000000000000017cd1e9b818e4688110000000000000000000000000000000000000000000006aa00c588cf311d8085",
          "blockHash": "0xf9c9a1ef015fe9faa94738dedffe5cea5925bebdb343a86eca33ba58dbb12c90",
          "blockNumber": "0x152ca4a",
          "transactionHash": "0x1c93c251fd6e49cf43b2b6a8d5a7f41aa0911f9396f0f86702efe95013bf022a",
          "transactionIndex": "0x0",
          "logIndex": "0x0",
          "removed": false
        }
      ],
      "logsBloom": "0x20000000000000000004000000000000000000000000000000000000000000000000000000000000000000000000000000008000000000000000000000000000000000000000000000000000000000800000000000000000000100000000000000000000000000000000000000000000000000000000000080000000000000200000000000000000100000000000040000000000000000000000000000000000200000000000000000000000000000000000000000000000000000000000004000000000000000000001000000000000000000000000000000100000000200000000000000000000000000000000000000000000000000000000000000100000",
      "type": "0x2",
      "transactionHash": "0x1c93c251fd6e49cf43b2b6a8d5a7f41aa0911f9396f0f86702efe95013bf022a",
      "transactionIndex": "0x0",
      "blockHash": "0xf9c9a1ef015fe9faa94738dedffe5cea5925bebdb343a86eca33ba58dbb12c90",
      "blockNumber": "0x152ca4a",
      "gasUsed": "0xbc2a",
      "effectiveGasPrice": "0x25b7f3d45a",
      "from": "0xe62ab4d111f968660c6b2188046f9b9ba53c4bae",
      "to": "0xa332fc0bf257aff4ab07267de75d5eb0c67b71af",
      "contractAddress": null
    },
    {
      "status": "0x1",
      "cumulativeGasUsed": "0xbc41",
      "logs": [
        {
          "address": "0x0000000000000000000000000000000000001010",
          "topics": [
            "0x4dfe1bbbcf077ddc3e01291eea2d5c70c2b422b415d95645b9adcfd678cb1d63",
            "0x0000000000000000000000000000000000000000000000000000000000001010",
            "0x000000000000000000000000e62ab4d111f968660c6b2188046f9b9ba53c4bae",
            "0x0000000000000000000000007020117712a3fe09b7162ee3f932dae7673c6bdd"
          ],
          "data": "0x000000000000000000000000000000000000000000000000001bbcaac4cffb0b000000000000000000000000000000000000000000000017cd1e9b818e3b819b0000000000000000000000000000000000000000000006aa00c588cf311d8085000000000000000000000000000000000000000000000017cd02ded6c96b86900000000000000000000000000000000000000000000006aa00e14579f5ed7b90",
          "blockHash": "0x0eb2c7a38e7389cea9335b385dc1d2e6e0a10387b29b2f78c40816793f83b3e8",
          "blockNumber": "0x152ca4c",
          "transactionHash": "0xf8c0c4b156d7417df765653b5f228e655101f81bb3bdde12bb8fd581c33497dd",
          "transactionIndex": "0x0",
          "logIndex": "0x0",
          "removed": false
        }
      ],
      "logsBloom": "0x20000000000000000004000000000000000000000000000000000000000000000000000000000000000000000000000000008000000000000000000000000000000000000000000000000000000000800000000000000000000100000000000000000000000000000000000000000000000000000000000080000000000000200000000000000000100000000000040000000000000000000000000000000000200000000000000000000000000000000000000000000000000000000000004000000000000000000001000000000000000000000000000000100000000200000000000000000000000000000000000000000000000000000000000000100000",
      "type": "0x2",
      "transactionHash": "0xf8c0c4b156d7417df765653b5f228e655101f81bb3bdde12bb8fd581c33497dd",
      "transactionIndex": "0x0",
      "blockHash": "0x0eb2c7a38e7389cea9335b385dc1d2e6e0a10387b29b2f78c40816793f83b3e8",
      "blockNumber": "0x152ca4c",
      "gasUsed": "0xbc41",
      "effectiveGasPrice": "0x25b7f3d45a",
      "from": "0xe62ab4d111f968660c6b2188046f9b9ba53c4bae",
      "to": "0xa332fc0bf257aff4ab07267de75d5eb0c67b71af",
      "contractAddress": null
    },
    {
      "status": "0x1",
      "cumulativeGasUsed": "0x1883f",
      "logs": [
        {
          "address": "0x0000000000000000000000000000000000001010",
          "topics": [
            "0x4dfe1bbbcf077ddc3e01291eea2d5c70c2b422b415d95645b9adcfd678cb1d63",
            "0x0000000000000000000000000000000000000000000000000000000000001010",
            "0x000000000000000000000000e62ab4d111f968660c6b2188046f9b9ba53c4bae",
            "0x0000000000000000000000007020117712a3fe09b7162ee3f932dae7673c6bdd"
          ],
          "data": "0x000000000000000000000000000000000000000000000000001bc00e4bb80dc8000000000000000000000000000000000000000000000017cd02ded6c9607ec10000000000000000000000000000000000000000000006aa010fa227a715d790000000000000000000000000000000000000000000000017cce71ec87da870f90000000000000000000000000000000000000000000006aa012b6235f2cde558",
          "blockHash": "0x516c5a4d9a9be7643651cfc76a23f5111f49579cc6f4d5963205fdfddb0bc40c",
          "blockNumber": "0x152ca4e",
          "transactionHash": "0xa519efb0d7e872783d7f909ae5a6906219faee9e54a2a24e1f853337c836f74a",
          "transactionIndex": "0x1",
          "logIndex": "0x2",
          "removed": false
        }
      ],
      "logsBloom": "0x20000000000000000004000000000000000000000000000000000000000000000000000000000000000000000000000000008000000000000000000000000000000000000000000000000000000000800000000000000000000100000000000000000000000000000000000000000000000000000000000080000000000000200000000000000000100000000000040000000000000000000000000000000000200000000000000000000000000000000000000000000000000000000000004000000000000000000001000000000000000000000000000000100000000200000000000000000000000000000000000000000000000000000000000000100000",
      "type": "0x2",
      "transactionHash": "0xa519efb0d7e872783d7f909ae5a6906219faee9e54a2a24e1f853337c836f74a",
      "transactionIndex": "0x1",
      "blockHash": "0x516c5a4d9a9be7643651cfc76a23f5111f49579cc6f4d5963205fdfddb0bc40c",
      "blockNumber": "0x152ca4e",
      "gasUsed": "0xbc58",
      "effectiveGasPrice": "0x25b7f3d45a",
      "from": "0xe62ab4d111f968660c6b2188046f9b9ba53c4bae",
      "to": "0xa332fc0bf257aff4ab07267de75d5eb0c67b71af",
      "contractAddress": null
    },
    {
      "status": "0x1",
      "cumulativeGasUsed": "0x12672",
      "logs": [
        {
          "address": "0x0000000000000000000000000000000000001010",
          "topics": [
            "0x4dfe1bbbcf077ddc3e01291eea2d5c70c2b422b415d95645b9adcfd678cb1d63",
            "0x0000000000000000000000000000000000000000000000000000000000001010",
            "0x000000000000000000000000e62ab4d111f968660c6b2188046f9b9ba53c4bae",
            "0x000000000000000000000000915a2284d28bd93de7d6f31173b981204bb666e6"
          ],
          "data": "0x000000000000000000000000000000000000000000000000001bc371d2a02085000000000000000000000000000000000000000000000017cce71ec87d9d67d100000000000000000000000000000000000000000000083764d6eded883a05de000000000000000000000000000000000000000000000017cccb5b56aafd474c00000000000000000000000000000000000000000000083764f2b15f5ada2663",
          "blockHash": "0xf4d43f5075228e513143c8b4028f628550b7cafb03ea5b99bb1bbdcfdca9ad46",
          "blockNumber": "0x152ca50",
          "transactionHash": "0x8ed5941e02fd7822ef33b6154fd51a0782ad51ca12a76bb7c75839a359f8e931",
          "transactionIndex": "0x1",
          "logIndex": "0x3",
          "removed": false
        }
      ],
      "logsBloom": "0x20000000000000000014000000000000000000000000000000000000000000000000000000000000000000000000000000008000000000000000000000000000000000000000000000000000000000800000000000000000000100000000000000000000000000000000000000000000000000000000000080000000000000000000000000000000000000000000040000000000000000000000000000000000200000000000000000000000000000000000000000000000000000000000004000000000000000000001000000000000000002000000000000100000000000000000000000000000000000000000000000000000400000000000000000100000",
      "type": "0x2",
      "transactionHash": "0x8ed5941e02fd7822ef33b6154fd51a0782ad51ca12a76bb7c75839a359f8e931",
      "transactionIndex": "0x1",
      "blockHash": "0xf4d43f5075228e513143c8b4028f628550b7cafb03ea5b99bb1bbdcfdca9ad46",
      "blockNumber": "0x152ca50",
      "gasUsed": "0xbc6f",
      "effectiveGasPrice": "0x25b7f3d45a",
      "from": "0xe62ab4d111f968660c6b2188046f9b9ba53c4bae",
      "to": "0xa332fc0bf257aff4ab07267de75d5eb0c67b71af",
      "contractAddress": null
    },
    {
      "status": "0x1",
      "cumulativeGasUsed": "0x2a02a",
      "logs": [
        {
          "address": "0x0000000000000000000000000000000000001010",
          "topics": [
            "0x4dfe1bbbcf077ddc3e01291eea2d5c70c2b422b415d95645b9adcfd678cb1d63",
            "0x0000000000000000000000000000000000000000000000000000000000001010",
            "0x000000000000000000000000e62ab4d111f968660c6b2188046f9b9ba53c4bae",
            "0x000000000000000000000000915a2284d28bd93de7d6f31173b981204bb666e6"
          ],
          "data": "0x000000000000000000000000000000000000000000000000001bc6d559883342000000000000000000000000000000000000000000000017cccb5b56aaf23ccb0000000000000000000000000000000000000000000008376539f39a3ca2fd47000000000000000000000000000000000000000000000017ccaf9481516a09890000000000000000000000000000000000000000000008376555ba6f962b3089",
          "blockHash": "0x5646d60fd71de4eb02dc5b0c3997b671e7607ea400d2bd9e9e7b4a16f49377e5",
          "blockNumber": "0x152ca52",
          "transactionHash": "0xc432b87f6671c1d93443c0c1a98681111f5b170cb0638738e2435b6945a5d899",
          "transactionIndex": "0x1",
          "logIndex": "0x4",
          "removed": false
        }
      ],
      "logsBloom": "0x20000000000000000014000000000000000000000000000000000000000000000000000000000000000000000000000000008000000000000000000000000000000000000000000000000000000000800000000000000000000100000000000000000000000000000000000000000000000000000000000080000000000000000000000000000000000000000000040000000000000000000000000000000000200000000000000000000000000000000000000000000000000000000000004000000000000000000001000000000000000002000000000000100000000000000000000000000000000000000000000000000000400000000000000000100000",
      "type": "0x2",
      "transactionHash": "0xc432b87f6671c1d93443c0c1a98681111f5b170cb0638738e2435b6945a5d899",
      "transactionIndex": "0x1",
      "blockHash": "0x5646d60fd71de4eb02dc5b0c3997b671e7607ea400d2bd9e9e7b4a16f49377e5",
      "blockNumber": "0x152ca52",
      "gasUsed": "0xbc86",
      "effectiveGasPrice": "0x25b7f3d45a",
      "from": "0xe62ab4d111f968660c6b2188046f9b9ba53c4bae",
      "to": "0xa332fc0bf257aff4ab07267de75d5eb0c67b71af",
      "contractAddress": null
    },
    {
      "status": "0x1",
      "cumulativeGasUsed": "0xbc9d",
      "logs": [
        {
          "address": "0x0000000000000000000000000000000000001010",
          "topics": [
            "0x4dfe1bbbcf077ddc3e01291eea2d5c70c2b422b415d95645b9adcfd678cb1d63",
            "0x0000000000000000000000000000000000000000000000000000000000001010",
            "0x000000000000000000000000e62ab4d111f968660c6b2188046f9b9ba53c4bae",
            "0x000000000000000000000000915a2284d28bd93de7d6f31173b981204bb666e6"
          ],
          "data": "0x000000000000000000000000000000000000000000000000001bca38e07045ff000000000000000000000000000000000000000000000017ccaf9481515efdaf00000000000000000000000000000000000000000000083765d1bb78c1d3d4b0000000000000000000000000000000000000000000000017cc93ca4870eeb7b000000000000000000000000000000000000000000000083765ed85b1a2441aaf",
          "blockHash": "0x1fefb9048892f23de147990427fa9eaa051af93043780973add0749eaf6dde98",
          "blockNumber": "0x152ca54",
          "transactionHash": "0x438e1ec0b5a27e422d0b87db0d9cfbc63e125d31c43a7af84ed4d791337d01d9",
          "transactionIndex": "0x0",
          "logIndex": "0x0",
          "removed": false
        }
      ],
      "logsBloom": "0x20000000000000000014000000000000000000000000000000000000000000000000000000000000000000000000000000008000000000000000000000000000000000000000000000000000000000800000000000000000000100000000000000000000000000000000000000000000000000000000000080000000000000000000000000000000000000000000040000000000000000000000000000000000200000000000000000000000000000000000000000000000000000000000004000000000000000000001000000000000000002000000000000100000000000000000000000000000000000000000000000000000400000000000000000100000",
      "type": "0x2",
      "transactionHash": "0x438e1ec0b5a27e422d0b87db0d9cfbc63e125d31c43a7af84ed4d791337d01d9",
      "transactionIndex": "0x0",
      "blockHash": "0x1fefb9048892f23de147990427fa9eaa051af93043780973add0749eaf6dde98",
      "blockNumber": "0x152ca54",
      "gasUsed": "0xbc9d",
      "effectiveGasPrice": "0x25b7f3d45a",
      "from": "0xe62ab4d111f968660c6b2188046f9b9ba53c4bae",
      "to": "0xa332fc0bf257aff4ab07267de75d5eb0c67b71af",
      "contractAddress": null
    },
    {
      "status": "0x1",
      "cumulativeGasUsed": "0xbcb4",
      "logs": [
        {
          "address": "0x0000000000000000000000000000000000001010",
          "topics": [
            "0x4dfe1bbbcf077ddc3e01291eea2d5c70c2b422b415d95645b9adcfd678cb1d63",
            "0x0000000000000000000000000000000000000000000000000000000000001010",
            "0x000000000000000000000000e62ab4d111f968660c6b2188046f9b9ba53c4bae",
            "0x000000000000000000000000915a2284d28bd93de7d6f31173b981204bb666e6"
          ],
          "data": "0x000000000000000000000000000000000000000000000000001bcd9c675858bc000000000000000000000000000000000000000000000017cc93ca4870e3aa7d0000000000000000000000000000000000000000000008376672d61b372e3247000000000000000000000000000000000000000000000017cc77fcac098b51c1000000000000000000000000000000000000000000000837668ea3b79e868b03",
          "blockHash": "0xf4851fa88f29f8710a105799058c2c88981e892ac1f2db9f2854d0294173e9ab",
          "blockNumber": "0x152ca56",
          "transactionHash": "0x4cb7154b7c5035f5bd0c8f1c76333e9c98cad002162c33c84a4a678f65a9f5e5",
          "transactionIndex": "0x0",
          "logIndex": "0x0",
          "removed": false
        }
      ],
      "logsBloom": "0x20000000000000000014000000000000000000000000000000000000000000000000000000000000000000000000000000008000000000000000000000000000000000000000000000000000000000800000000000000000000100000000000000000000000000000000000000000000000000000000000080000000000000000000000000000000000000000000040000000000000000000000000000000000200000000000000000000000000000000000000000000000000000000000004000000000000000000001000000000000000002000000000000100000000000000000000000000000000000000000000000000000400000000000000000100000",
      "type": "0x2",
      "transactionHash": "0x4cb7154b7c5035f5bd0c8f1c76333e9c98cad002162c33c84a4a678f65a9f5e5",
      "transactionIndex": "0x0",
      "blockHash": "0xf4851fa88f29f8710a105799058c2c88981e892ac1f2db9f2854d0294173e9ab",
      "blockNumber": "0x152ca56",
      "gasUsed": "0xbcb4",
      "effectiveGasPrice": "0x25b7f3d45a",
      "from": "0xe62ab4d111f968660c6b2188046f9b9ba53c4bae",
      "to": "0xa332fc0bf257aff4ab07267de75d5eb0c67b71af",
      "contractAddress": null
    },
    {
      "status": "0x1",
      "cumulativeGasUsed": "0x3fb5b",
      "logs": [
        {
          "address": "0x0000000000000000000000000000000000001010",
          "topics": [
            "0x4dfe1bbbcf077ddc3e01291eea2d5c70c2b422b415d95645b9adcfd678cb1d63",
            "0x0000000000000000000000000000000000000000000000000000000000001010",
            "0x000000000000000000000000e62ab4d111f968660c6b2188046f9b9ba53c4bae",
            "0x000000000000000000000000915a2284d28bd93de7d6f31173b981204bb666e6"
          ],
          "data": "0x000000000000000000000000000000000000000000000000001bd0ffee406b79000000000000000000000000000000000000000000000017cc77fcac098043350000000000000000000000000000000000000000000008376756a7b31c7ca5ea000000000000000000000000000000000000000000000017cc5c2bac1b3fd7bc000000000000000000000000000000000000000000000837677278b30abd1163",
          "blockHash": "0xbd5d47c0bc54e3082cad711e2d93f7aa9c333a7bc95f9e1ee398c56454aad7de",
          "blockNumber": "0x152ca58",
          "transactionHash": "0xdf95c0a3114a32aee829a618f230b95aa14c597283cd9eca84884cb6d0514b0f",
          "transactionIndex": "0x1",
          "logIndex": "0x2",
          "removed": false
        }
      ],
      "logsBloom": "0x20000000000000000014000000000000000000000000000000000000000000000000000000000000000000000000000000008000000000000000000000000000000000000000000000000000000000800000000000000000000100000000000000000000000000000000000000000000000000000000000080000000000000000000000000000000000000000000040000000000000000000000000000000000200000000000000000000000000000000000000000000000000000000000004000000000000000000001000000000000000002000000000000100000000000000000000000000000000000000000000000000000400000000000000000100000",
      "type": "0x2",
      "transactionHash": "0xdf95c0a3114a32aee829a618f230b95aa14c597283cd9eca84884cb6d0514b0f",
      "transactionIndex": "0x1",
      "blockHash": "0xbd5d47c0bc54e3082cad711e2d93f7aa9c333a7bc95f9e1ee398c56454aad7de",
      "blockNumber": "0x152ca58",
      "gasUsed": "0xbccb",
      "effectiveGasPrice": "0x25b7f3d45a",
      "from": "0xe62ab4d111f968660c6b2188046f9b9ba53c4bae",
      "to": "0xa332fc0bf257aff4ab07267de75d5eb0c67b71af",
      "contractAddress": null
    },
    {
      "status": "0x1",
      "cumulativeGasUsed": "0x126e5",
      "logs": [
        {
          "address": "0x0000000000000000000000000000000000001010",
          "topics": [
            "0x4dfe1bbbcf077ddc3e01291eea2d5c70c2b422b415d95645b9adcfd678cb1d63",
            "0x0000000000000000000000000000000000000000000000000000000000001010",
            "0x000000000000000000000000e62ab4d111f968660c6b2188046f9b9ba53c4bae",
            "0x000000000000000000000000915a2284d28bd93de7d6f31173b981204bb666e6"
          ],
          "data": "0x000000000000000000000000000000000000000000000000001bd46375287e36000000000000000000000000000000000000000000000017cc5c2bac1b34c7d700000000000000000000000000000000000000000000083767c95600cb6f07a2000000000000000000000000000000000000000000000017cc405748a60c49a100000000000000000000000000000000000000000000083767e52a64409785d8",
          "blockHash": "0x47e33c0b8411002a831213e0ebc94694c850e79f9dbb050b3b075fefdcf5429c",
          "blockNumber": "0x152ca5a",
          "transactionHash": "0x1307db9f9cb2c13314cd822ac6ccb2b406c2cd59e369f799cfb6a4e3add69eb2",
          "transactionIndex": "0x1",
          "logIndex": "0x3",
          "removed": false
        }
      ],
      "logsBloom": "0x20000000000000000014000000000000000000000000000000000000000000000000000000000000000000000000000000008000000000000000000000000000000000000000000000000000000000800000000000000000000100000000000000000000000000000000000000000000000000000000000080000000000000000000000000000000000000000000040000000000000000000000000000000000200000000000000000000000000000000000000000000000000000000000004000000000000000000001000000000000000002000000000000100000000000000000000000000000000000000000000000000000400000000000000000100000",
      "type": "0x2",
      "transactionHash": "0x1307db9f9cb2c13314cd822ac6ccb2b406c2cd59e369f799cfb6a4e3add69eb2",
      "transactionIndex": "0x1",
      "blockHash": "0x47e33c0b8411002a831213e0ebc94694c850e79f9dbb050b3b075fefdcf5429c",
      "blockNumber": "0x152ca5a",
      "gasUsed": "0xbce2",
      "effectiveGasPrice": "0x25b7f3d45a",
      "from": "0xe62ab4d111f968660c6b2188046f9b9ba53c4bae",
      "to": "0xa332fc0bf257aff4ab07267de75d5eb0c67b71af",
      "contractAddress": null
    },
    {
      "status": "0x1",
      "cumulativeGasUsed": "0x188e0",
      "logs": [
        {
          "address": "0x0000000000000000000000000000000000001010",
          "topics": [
            "0x4dfe1bbbcf077ddc3e01291eea2d5c70c2b422b415d95645b9adcfd678cb1d63",
            "0x0000000000000000000000000000000000000000000000000000000000001010",
            "0x000000000000000000000000e62ab4d111f968660c6b2188046f9b9ba53c4bae",
            "0x000000000000000000000000915a2284d28bd93de7d6f31173b981204bb666e6"
          ],
          "data": "0x000000000000000000000000000000000000000000000000001bd7c6fc1090f3000000000000000000000000000000000000000000000017cc405748a601386300000000000000000000000000000000000000000000083768138711f1bfe1d8000000000000000000000000000000000000000000000017cc247f81a9f0a770000000000000000000000000000000000000000000000837682f5ed8edd072cb",
          "blockHash": "0xa8b771f58433a02fd551725b597ad1dfc405f10be62aa4d8b9737b812ca80839",
          "blockNumber": "0x152ca5c",
          "transactionHash": "0x51a7b2597ae1ff047c8b0fe00949a8c3db84ac8bf763df5be30e95229a89ec8f",
          "transactionIndex": "0x1",
          "logIndex": "0x2",
          "removed": false
        }
      ],
      "logsBloom": "0x20000000000000000014000000000000000000000000000000000000000000000000000000000000000000000000000000008000000000000000000000000000000000000000000000000000000000800000000000000000000100000000000000000000000000000000000000000000000000000000000080000000000000000000000000000000000000000000040000000000000000000000000000000000200000000000000000000000000000000000000000000000000000000000004000000000000000000001000000000000000002000000000000100000000000000000000000000000000000000000000000000000400000000000000000100000",
      "type": "0x2",
      "transactionHash": "0x51a7b2597ae1ff047c8b0fe00949a8c3db84ac8bf763df5be30e95229a89ec8f",
      "transactionIndex": "0x1",
      "blockHash": "0xa8b771f58433a02fd551725b597ad1dfc405f10be62aa4d8b9737b812ca80839",
      "blockNumber": "0x152ca5c",
      "gasUsed": "0xbcf9",
      "effectiveGasPrice": "0x25b7f3d45a",
      "from": "0xe62ab4d111f968660c6b2188046f9b9ba53c4bae",
      "to": "0xa332fc0bf257aff4ab07267de75d5eb0c67b71af",
      "contractAddress": null
    },
    {
      "status": "0x1",
      "cumulativeGasUsed": "0xbd10",
      "logs": [
        {
          "address": "0x0000000000000000000000000000000000001010",
          "topics": [
            "0x4dfe1bbbcf077ddc3e01291eea2d5c70c2b422b415d95645b9adcfd678cb1d63",
            "0x0000000000000000000000000000000000000000000000000000000000001010",
            "0x000000000000000000000000e62ab4d111f968660c6b2188046f9b9ba53c4bae",
            "0x000000000000000000000000915a2284d28bd93de7d6f31173b981204bb666e6"
          ],
          "data": "0x000000000000000000000000000000000000000000000000001bdb2a82f8a3b0000000000000000000000000000000000000000000000017cc247f81a9e594d9000000000000000000000000000000000000000000000837687cffab2974d35a000000000000000000000000000000000000000000000017cc08a45726ecf1290000000000000000000000000000000000000000000008376898dad5ac6d770a",
          "blockHash": "0x94ccda0dd430c62522ddd88421171519bcb92d35e24001dc01af3e779f68a9e2",
          "blockNumber": "0x152ca5e",
          "transactionHash": "0xff86e32feb1efcec809d241319447a3720612ba98ae031c49d34e7cd5d6bc117",
          "transactionIndex": "0x0",
          "logIndex": "0x0",
          "removed": false
        }
      ],
      "logsBloom": "0x20000000000000000014000000000000000000000000000000000000000000000000000000000000000000000000000000008000000000000000000000000000000000000000000000000000000000800000000000000000000100000000000000000000000000000000000000000000000000000000000080000000000000000000000000000000000000000000040000000000000000000000000000000000200000000000000000000000000000000000000000000000000000000000004000000000000000000001000000000000000002000000000000100000000000000000000000000000000000000000000000000000400000000000000000100000",
      "type": "0x2",
      "transactionHash": "0xff86e32feb1efcec809d241319447a3720612ba98ae031c49d34e7cd5d6bc117",
      "transactionIndex": "0x0",
      "blockHash": "0x94ccda0dd430c62522ddd88421171519bcb92d35e24001dc01af3e779f68a9e2",
      "blockNumber": "0x152ca5e",
      "gasUsed": "0xbd10",
      "effectiveGasPrice": "0x25b7f3d45a",
      "from": "0xe62ab4d111f968660c6b2188046f9b9ba53c4bae",
      "to": "0xa332fc0bf257aff4ab07267de75d5eb0c67b71af",
      "contractAddress": null
    },
    {
      "status": "0x1",
      "cumulativeGasUsed": "0xbd27",
      "logs": [
        {
          "address": "0x0000000000000000000000000000000000001010",
          "topics": [
            "0x4dfe1bbbcf077ddc3e01291eea2d5c70c2b422b415d95645b9adcfd678cb1d63",
            "0x0000000000000000000000000000000000000000000000000000000000001010",
            "0x000000000000000000000000e62ab4d111f968660c6b2188046f9b9ba53c4bae",
            "0x0000000000000000000000004631753190f2f5a15a7ba172bbac102b7d95fa22"
          ],
          "data": "0x000000000000000000000000000000000000000000000000001bde8e09e0b66d000000000000000000000000000000000000000000000017cc08a45726e1dd390000000000000000000000000000000000000000000009176a1fd49c9d0a820b000000000000000000000000000000000000000000000017cbecc5c91d0126cc0000000000000000000000000000000000000000000009176a3bb32aa6eb3878",
          "blockHash": "0x62fa206c6c1952ad81bcd934de2c3bf33cb17b13f6daf51a3dfa5ae46e653d14",
          "blockNumber": "0x152ca60",
          "transactionHash": "0xa3f304bfe40f83df3951cbd3fb8e80c893e3425d300afd9c60637fbf7d13a856",
          "transactionIndex": "0x0",
          "logIndex": "0x0",
          "removed": false
        }
      ],
      "logsBloom": "0x20000000000000000004000000000000000000002000000000000000000000000000000000000000000000000000000000008000000000000000000040000000000000000000000000000000000000800000000000000000000100000000000000000000000000100000000000000000000000000000000080000000000000000000000000000000000000000000040000000000000000000000000000000000200000000000000000000000000000000000000000000000000000000000004000000000000000000001000000000000000000000000000000100000000000000000000000000000000000000000000000000000000000000000000000100000",
      "type": "0x2",
      "transactionHash": "0xa3f304bfe40f83df3951cbd3fb8e80c893e3425d300afd9c60637fbf7d13a856",
      "transactionIndex": "0x0",
      "blockHash": "0x62fa206c6c1952ad81bcd934de2c3bf33cb17b13f6daf51a3dfa5ae46e653d14",
      "blockNumber": "0x152ca60",
      "gasUsed": "0xbd27",
      "effectiveGasPrice": "0x25b7f3d45a",
      "from": "0xe62ab4d111f968660c6b2188046f9b9ba53c4bae",
      "to": "0xa332fc0bf257aff4ab07267de75d5eb0c67b71af",
      "contractAddress": null
    },
    {
      "status": "0x1",
      "cumulativeGasUsed": "0x18925",
      "logs": [
        {
          "address": "0x0000000000000000000000000000000000001010",
          "topics": [
            "0x4dfe1bbbcf077ddc3e01291eea2d5c70c2b422b415d95645b9adcfd678cb1d63",
            "0x0000000000000000000000000000000000000000000000000000000000001010",
            "0x000000000000000000000000e62ab4d111f968660c6b2188046f9b9ba53c4bae",
            "0x0000000000000000000000004631753190f2f5a15a7ba172bbac102b7d95fa22"
          ],
          "data": "0x000000000000000000000000000000000000000000000000001be1f190c8c92a000000000000000000000000000000000000000000000017cbecc5c91cf611830000000000000000000000000000000000000000000009176b1050f8dadf1dc2000000000000000000000000000000000000000000000017cbd0e3d78c2d48590000000000000000000000000000000000000000000009176b2c32ea6ba7e6ec",
          "blockHash": "0x78be8c96cd07db1177927a91ae125172da241758b0ad01ef22d98f0b769c20cc",
          "blockNumber": "0x152ca62",
          "transactionHash": "0x7d371fdb24ed24b266bf3a2ca3f05c468c14bc31f0d5c7fa6005741a91d8b021",
          "transactionIndex": "0x1",
          "logIndex": "0x2",
          "removed": false
        }
      ],
      "logsBloom": "0x20000000000000000004000000000000000000002000000000000000000000000000000000000000000000000000000000008000000000000000000040000000000000000000000000000000000000800000000000000000000100000000000000000000000000100000000000000000000000000000000080000000000000000000000000000000000000000000040000000000000000000000000000000000200000000000000000000000000000000000000000000000000000000000004000000000000000000001000000000000000000000000000000100000000000000000000000000000000000000000000000000000000000000000000000100000",
      "type": "0x2",
      "transactionHash": "0x7d371fdb24ed24b266bf3a2ca3f05c468c14bc31f0d5c7fa6005741a91d8b021",
      "transactionIndex": "0x1",
      "blockHash": "0x78be8c96cd07db1177927a91ae125172da241758b0ad01ef22d98f0b769c20cc",
      "blockNumber": "0x152ca62",
      "gasUsed": "0xbd3e",
      "effectiveGasPrice": "0x25b7f3d45a",
      "from": "0xe62ab4d111f968660c6b2188046f9b9ba53c4bae",
      "to": "0xa332fc0bf257aff4ab07267de75d5eb0c67b71af",
      "contractAddress": null
    },
    {
      "status": "0x1",
      "cumulativeGasUsed": "0xbd55",
      "logs": [
        {
          "address": "0x0000000000000000000000000000000000001010",
          "topics": [
            "0x4dfe1bbbcf077ddc3e01291eea2d5c70c2b422b415d95645b9adcfd678cb1d63",
            "0x0000000000000000000000000000000000000000000000000000000000001010",
            "0x000000000000000000000000e62ab4d111f968660c6b2188046f9b9ba53c4bae",
            "0x0000000000000000000000004631753190f2f5a15a7ba172bbac102b7d95fa22"
          ],
          "data": "0x000000000000000000000000000000000000000000000000001be55517b0dbe7000000000000000000000000000000000000000000000017cbd0e3d78c2231b70000000000000000000000000000000000000000000009176b2c32ea6ba7e6ec000000000000000000000000000000000000000000000017cbb4fe82747155d00000000000000000000000000000000000000000000009176b48183f8358c2d3",
          "blockHash": "0x9eb1054d4211271286d267e0e6a9ac9f60fcca86a9e354ef1e57ab4dba0d2195",
          "blockNumber": "0x152ca64",
          "transactionHash": "0xfdd4dfb16287d9bc4c0ebcbdb760ed446740ddc7eea229ecfb0e3c82c339789a",
          "transactionIndex": "0x0",
          "logIndex": "0x0",
          "removed": false
        }
      ],
      "logsBloom": "0x20000000000000000004000000000000000000002000000000000000000000000000000000000000000000000000000000008000000000000000000040000000000000000000000000000000000000800000000000000000000100000000000000000000000000100000000000000000000000000000000080000000000000000000000000000000000000000000040000000000000000000000000000000000200000000000000000000000000000000000000000000000000000000000004000000000000000000001000000000000000000000000000000100000000000000000000000000000000000000000000000000000000000000000000000100000",
      "type": "0x2",
      "transactionHash": "0xfdd4dfb16287d9bc4c0ebcbdb760ed446740ddc7eea229ecfb0e3c82c339789a",
      "transactionIndex": "0x0",
      "blockHash": "0x9eb1054d4211271286d267e0e6a9ac9f60fcca86a9e354ef1e57ab4dba0d2195",
      "blockNumber": "0x152ca64",
      "gasUsed": "0xbd55",
      "effectiveGasPrice": "0x25b7f3d45a",
      "from": "0xe62ab4d111f968660c6b2188046f9b9ba53c4bae",
      "to": "0xa332fc0bf257aff4ab07267de75d5eb0c67b71af",
      "contractAddress": null
    },
    {
      "status": "0x1",
      "cumulativeGasUsed": "0xbd6c",
      "logs": [
        {
          "address": "0x0000000000000000000000000000000000001010",
          "topics": [
            "0x4dfe1bbbcf077ddc3e01291eea2d5c70c2b422b415d95645b9adcfd678cb1d63",
            "0x0000000000000000000000000000000000000000000000000000000000001010",
            "0x000000000000000000000000e62ab4d111f968660c6b2188046f9b9ba53c4bae",
            "0x0000000000000000000000004631753190f2f5a15a7ba172bbac102b7d95fa22"
          ],
          "data": "0x000000000000000000000000000000000000000000000000001be8b89e98eea4000000000000000000000000000000000000000000000017cbb4fe8274663dd50000000000000000000000000000000000000000000009176b95bad65e6b172e000000000000000000000000000000000000000000000017cb9915c9d5cd4f310000000000000000000000000000000000000000000009176bb1a38efd0405d2",
          "blockHash": "0x26ac0bafa49a841b5f3db7096e0dbdcde9c16017221b1514b1c9d22fa2e1aacf",
          "blockNumber": "0x152ca66",
          "transactionHash": "0xe7d55a365ae706bd63384985fdc3adff92016ca9c035eed73e33c2adf0ea870a",
          "transactionIndex": "0x0",
          "logIndex": "0x0",
          "removed": false
        }
      ],
      "logsBloom": "0x20000000000000000004000000000000000000002000000000000000000000000000000000000000000000000000000000008000000000000000000040000000000000000000000000000000000000800000000000000000000100000000000000000000000000100000000000000000000000000000000080000000000000000000000000000000000000000000040000000000000000000000000000000000200000000000000000000000000000000000000000000000000000000000004000000000000000000001000000000000000000000000000000100000000000000000000000000000000000000000000000000000000000000000000000100000",
      "type": "0x2",
      "transactionHash": "0xe7d55a365ae706bd63384985fdc3adff92016ca9c035eed73e33c2adf0ea870a",
      "transactionIndex": "0x0",
      "blockHash": "0x26ac0bafa49a841b5f3db7096e0dbdcde9c16017221b1514b1c9d22fa2e1aacf",
      "blockNumber": "0x152ca66",
      "gasUsed": "0xbd6c",
      "effectiveGasPrice": "0x25b7f3d45a",
      "from": "0xe62ab4d111f968660c6b2188046f9b9ba53c4bae",
      "to": "0xa332fc0bf257aff4ab07267de75d5eb0c67b71af",
      "contractAddress": null
    },
    {
      "status": "0x1",
      "cumulativeGasUsed": "0x1896a",
      "logs": [
        {
          "address": "0x0000000000000000000000000000000000001010",
          "topics": [
            "0x4dfe1bbbcf077ddc3e01291eea2d5c70c2b422b415d95645b9adcfd678cb1d63",
            "0x0000000000000000000000000000000000000000000000000000000000001010",
            "0x000000000000000000000000e62ab4d111f968660c6b2188046f9b9ba53c4bae",
            "0x0000000000000000000000004631753190f2f5a15a7ba172bbac102b7d95fa22"
          ],
          "data": "0x000000000000000000000000000000000000000000000000001bec1c25810161000000000000000000000000000000000000000000000017cb9915c9d5c235dd0000000000000000000000000000000000000000000009176be0003cae2c61d2000000000000000000000000000000000000000000000017cb7d29adb041347c0000000000000000000000000000000000000000000009176bfbec58d3ad6333",
          "blockHash": "0xf0dfc109a75c7fbb73e676cdf5aa07bd77989ad9c74240f7fceeba7ffd78b690",
          "blockNumber": "0x152ca68",
          "transactionHash": "0x9a77f6dac795509b95abe7a03df85eb01a91e380d1e48c0c1da4eb450b73d444",
          "transactionIndex": "0x1",
          "logIndex": "0x2",
          "removed": false
        }
      ],
      "logsBloom": "0x20000000000000000004000000000000000000002000000000000000000000000000000000000000000000000000000000008000000000000000000040000000000000000000000000000000000000800000000000000000000100000000000000000000000000100000000000000000000000000000000080000000000000000000000000000000000000000000040000000000000000000000000000000000200000000000000000000000000000000000000000000000000000000000004000000000000000000001000000000000000000000000000000100000000000000000000000000000000000000000000000000000000000000000000000100000",
      "type": "0x2",
      "transactionHash": "0x9a77f6dac795509b95abe7a03df85eb01a91e380d1e48c0c1da4eb450b73d444",
      "transactionIndex": "0x1",
      "blockHash": "0xf0dfc109a75c7fbb73e676cdf5aa07bd77989ad9c74240f7fceeba7ffd78b690",
      "blockNumber": "0x152ca68",
      "gasUsed": "0xbd83",
      "effectiveGasPrice": "0x25b7f3d45a",
      "from": "0xe62ab4d111f968660c6b2188046f9b9ba53c4bae",
      "to": "0xa332fc0bf257aff4ab07267de75d5eb0c67b71af",
      "contractAddress": null
    },
    {
      "status": "0x1",
      "cumulativeGasUsed": "0x31e8d",
      "logs": [
        {
          "address": "0x0000000000000000000000000000000000001010",
          "topics": [
            "0x4dfe1bbbcf077ddc3e01291eea2d5c70c2b422b415d95645b9adcfd678cb1d63",
            "0x0000000000000000000000000000000000000000000000000000000000001010",
            "0x000000000000000000000000e62ab4d111f968660c6b2188046f9b9ba53c4bae",
            "0x0000000000000000000000004631753190f2f5a15a7ba172bbac102b7d95fa22"
          ],
          "data": "0x000000000000000000000000000000000000000000000000001bef7fac69141e000000000000000000000000000000000000000000000017cb7d29adb03619cf0000000000000000000000000000000000000000000009176c6543a5a6255309000000000000000000000000000000000000000000000017cb613a2e03cd05b10000000000000000000000000000000000000000000009176c813325528e6727",
          "blockHash": "0x47571b2ba58f4ca98800e8d3ebf64146d0173debbf80cffe17bc248a294da4c9",
          "blockNumber": "0x152ca6a",
          "transactionHash": "0x7c225f452a6e142d02afa1bbc3283258b4a45a527209af9fd5270cc6a3adca70",
          "transactionIndex": "0x2",
          "logIndex": "0x5",
          "removed": false
        }
      ],
      "logsBloom": "0x20000000000000000004000000000000000000002000000000000000000000000000000000000000000000000000000000008000000000000000000040000000000000000000000000000000000000800000000000000000000100000000000000000000000000100000000000000000000000000000000080000000000000000000000000000000000000000000040000000000000000000000000000000000200000000000000000000000000000000000000000000000000000000000004000000000000000000001000000000000000000000000000000100000000000000000000000000000000000000000000000000000000000000000000000100000",
      "type": "0x2",
      "transactionHash": "0x7c225f452a6e142d02afa1bbc3283258b4a45a527209af9fd5270cc6a3adca70",
      "transactionIndex": "0x2",
      "blockHash": "0x47571b2ba58f4ca98800e8d3ebf64146d0173debbf80cffe17bc248a294da4c9",
      "blockNumber": "0x152ca6a",
      "gasUsed": "0xbd9a",
      "effectiveGasPrice": "0x25b7f3d45a",
      "from": "0xe62ab4d111f968660c6b2188046f9b9ba53c4bae",
      "to": "0xa332fc0bf257aff4ab07267de75d5eb0c67b71af",
      "contractAddress": null
    },
    {
      "status": "0x1",
      "cumulativeGasUsed": "0xbdb1",
      "logs": [
        {
          "address": "0x0000000000000000000000000000000000001010",
          "topics": [
            "0x4dfe1bbbcf077ddc3e01291eea2d5c70c2b422b415d95645b9adcfd678cb1d63",
            "0x0000000000000000000000000000000000000000000000000000000000001010",
            "0x000000000000000000000000e62ab4d111f968660c6b2188046f9b9ba53c4bae",
            "0x0000000000000000000000004631753190f2f5a15a7ba172bbac102b7d95fa22"
          ],
          "data": "0x000000000000000000000000000000000000000000000000001bf2e3335126db000000000000000000000000000000000000000000000017cb613a2e03c1e9ab0000000000000000000000000000000000000000000009176c813325528e6727000000000000000000000000000000000000000000000017cb45474ad070c2d00000000000000000000000000000000000000000000009176c9d260885df8e02",
          "blockHash": "0xc6db2a95ba0246569a26cf14f96c4c6fd76a456955e79975999152d9be26140d",
          "blockNumber": "0x152ca6c",
          "transactionHash": "0x84168a162676c5586ecd5273a4b635748a686bf306b465a3e296cc2057b37d0b",
          "transactionIndex": "0x0",
          "logIndex": "0x0",
          "removed": false
        }
      ],
      "logsBloom": "0x20000000000000000004000000000000000000002000000000000000000000000000000000000000000000000000000000008000000000000000000040000000000000000000000000000000000000800000000000000000000100000000000000000000000000100000000000000000000000000000000080000000000000000000000000000000000000000000040000000000000000000000000000000000200000000000000000000000000000000000000000000000000000000000004000000000000000000001000000000000000000000000000000100000000000000000000000000000000000000000000000000000000000000000000000100000",
      "type": "0x2",
      "transactionHash": "0x84168a162676c5586ecd5273a4b635748a686bf306b465a3e296cc2057b37d0b",
      "transactionIndex": "0x0",
      "blockHash": "0xc6db2a95ba0246569a26cf14f96c4c6fd76a456955e79975999152d9be26140d",
      "blockNumber": "0x152ca6c",
      "gasUsed": "0xbdb1",
      "effectiveGasPrice": "0x25b7f3d45a",
      "from": "0xe62ab4d111f968660c6b2188046f9b9ba53c4bae",
      "to": "0xa332fc0bf257aff4ab07267de75d5eb0c67b71af",
      "contractAddress": null
    },
    {
      "status": "0x1",
      "cumulativeGasUsed": "0x39882",
      "logs": [
        {
          "address": "0x0000000000000000000000000000000000001010",
          "topics": [
            "0x4dfe1bbbcf077ddc3e01291eea2d5c70c2b422b415d95645b9adcfd678cb1d63",
            "0x0000000000000000000000000000000000000000000000000000000000001010",
            "0x000000000000000000000000e62ab4d111f968660c6b2188046f9b9ba53c4bae",
            "0x0000000000000000000000004631753190f2f5a15a7ba172bbac102b7d95fa22"
          ],
          "data": "0x000000000000000000000000000000000000000000000000001bf646ba393998000000000000000000000000000000000000000000000017cb45474ad065a5710000000000000000000000000000000000000000000009176d1921c3d33e56c5000000000000000000000000000000000000000000000017cb295104162c6bd90000000000000000000000000000000000000000000009176d35180a8d77905d",
          "blockHash": "0x3fa9b6aa95c282d9241e29c8275bf1b5d948aeb3daaa928a148b3ec5d969b349",
          "blockNumber": "0x152ca6e",
          "transactionHash": "0x095baf304b26855198f514c7f703a93b8158ccc6f93083b7f50a5c18953fb8d9",
          "transactionIndex": "0x2",
          "logIndex": "0x5",
          "removed": false
        }
      ],
      "logsBloom": "0x20000000000000000004000000000000000000002000000000000000000000000000000000000000000000000000000000008000000000000000000040000000000000000000000000000000000000800000000000000000000100000000000000000000000000100000000000000000000000000000000080000000000000000000000000000000000000000000040000000000000000000000000000000000200000000000000000000000000000000000000000000000000000000000004000000000000000000001000000000000000000000000000000100000000000000000000000000000000000000000000000000000000000000000000000100000",
      "type": "0x2",
      "transactionHash": "0x095baf304b26855198f514c7f703a93b8158ccc6f93083b7f50a5c18953fb8d9",
      "transactionIndex": "0x2",
      "blockHash": "0x3fa9b6aa95c282d9241e29c8275bf1b5d948aeb3daaa928a148b3ec5d969b349",
      "blockNumber": "0x152ca6e",
      "gasUsed": "0xbdc8",
      "effectiveGasPrice": "0x25b7f3d45a",
      "from": "0xe62ab4d111f968660c6b2188046f9b9ba53c4bae",
      "to": "0xa332fc0bf257aff4ab07267de75d5eb0c67b71af",
      "contractAddress": null
    },
    {
      "status": "0x1",
      "cumulativeGasUsed": "0x10fe7",
      "logs": [
        {
          "address": "0x0000000000000000000000000000000000001010",
          "topics": [
            "0x4dfe1bbbcf077ddc3e01291eea2d5c70c2b422b415d95645b9adcfd678cb1d63",
            "0x0000000000000000000000000000000000000000000000000000000000001010",
            "0x000000000000000000000000e62ab4d111f968660c6b2188046f9b9ba53c4bae",
            "0x0000000000000000000000006dc2dd54f24979ec26212794c71afefed722280c"
          ],
          "data": "0x000000000000000000000000000000000000000000000000001bf9aa41214c55000000000000000000000000000000000000000000000017cb29510416214d2100000000000000000000000000000000000000000000078129fa13c14d794c17000000000000000000000000000000000000000000000017cb0d5759d50000cc0000000000000000000000000000000000000000000007812a160d6b8e9a986c",
          "blockHash": "0x0626d75fbc12ef7ce31408e820aa85ebaa61352a37ffafdd0b2634210ad4e87a",
          "blockNumber": "0x152ca70",
          "transactionHash": "0x741da697dd77936616d8a4a281e2141c526ac4eebcac0a3d33203e1074da0d9a",
          "transactionIndex": "0x1",
          "logIndex": "0x2",
          "removed": false
        }
      ],
      "logsBloom": "0x20000000000000000004000000000000000000000000000000000000000000000000000000000000000000000000000000008000000000000000000000000000000000000000000000000000000000800000000000000000000100080000000000000000000000000000000000000000000000000000000080000000000000020000000000000000000000000040040000000000000000000000000000000000200000000000000000000000000000000000000000000000000000000000004000000000000000000001000000000000000000000000000000100000000000000000000000000000000000000000000000000000000000000000000000100000",
      "type": "0x2",
      "transactionHash": "0x741da697dd77936616d8a4a281e2141c526ac4eebcac0a3d33203e1074da0d9a",
      "transactionIndex": "0x1",
      "blockHash": "0x0626d75fbc12ef7ce31408e820aa85ebaa61352a37ffafdd0b2634210ad4e87a",
      "blockNumber": "0x152ca70",
      "gasUsed": "0xbddf",
      "effectiveGasPrice": "0x25b7f3d45a",
      "from": "0xe62ab4d111f968660c6b2188046f9b9ba53c4bae",
      "to": "0xa332fc0bf257aff4ab07267de75d5eb0c67b71af",
      "contractAddress": null
    },
    {
      "status": "0x1",
      "cumulativeGasUsed": "0xbdf6",
      "logs": [
        {
          "address": "0x0000000000000000000000000000000000001010",
          "topics": [
            "0x4dfe1bbbcf077ddc3e01291eea2d5c70c2b422b415d95645b9adcfd678cb1d63",
            "0x0000000000000000000000000000000000000000000000000000000000001010",
            "0x000000000000000000000000e62ab4d111f968660c6b2188046f9b9ba53c4bae",
            "0x0000000000000000000000006dc2dd54f24979ec26212794c71afefed722280c"
          ],
          "data": "0x000000000000000000000000000000000000000000000000001bfd0dc8095f12000000000000000000000000000000000000000000000017cb0d5759d4f4e0bb0000000000000000000000000000000000000000000007812a160d6b8e9a986c000000000000000000000000000000000000000000000017caf15a4c0ceb81a90000000000000000000000000000000000000000000007812a320a7956a3f77e",
          "blockHash": "0xe6a89744ba03adcf0c11dd7e62d03486ce88f86fc0f648b0690dde546dcbb377",
          "blockNumber": "0x152ca72",
          "transactionHash": "0xd9e4c1a46ad3085ed4d0db524828e9e676b345ea9e50b9aba26a675e165ca32e",
          "transactionIndex": "0x0",
          "logIndex": "0x0",
          "removed": false
        }
      ],
      "logsBloom": "0x20000000000000000004000000000000000000000000000000000000000000000000000000000000000000000000000000008000000000000000000000000000000000000000000000000000000000800000000000000000000100080000000000000000000000000000000000000000000000000000000080000000000000020000000000000000000000000040040000000000000000000000000000000000200000000000000000000000000000000000000000000000000000000000004000000000000000000001000000000000000000000000000000100000000000000000000000000000000000000000000000000000000000000000000000100000",
      "type": "0x2",
      "transactionHash": "0xd9e4c1a46ad3085ed4d0db524828e9e676b345ea9e50b9aba26a675e165ca32e",
      "transactionIndex": "0x0",
      "blockHash": "0xe6a89744ba03adcf0c11dd7e62d03486ce88f86fc0f648b0690dde546dcbb377",
      "blockNumber": "0x152ca72",
      "gasUsed": "0xbdf6",
      "effectiveGasPrice": "0x25b7f3d45a",
      "from": "0xe62ab4d111f968660c6b2188046f9b9ba53c4bae",
      "to": "0xa332fc0bf257aff4ab07267de75d5eb0c67b71af",
      "contractAddress": null
    },
    {
      "status": "0x1",
      "cumulativeGasUsed": "0x42f61",
      "logs": [
        {
          "address": "0x0000000000000000000000000000000000001010",
          "topics": [
            "0x4dfe1bbbcf077ddc3e01291eea2d5c70c2b422b415d95645b9adcfd678cb1d63",
            "0x0000000000000000000000000000000000000000000000000000000000001010",
            "0x000000000000000000000000e62ab4d111f968660c6b2188046f9b9ba53c4bae",
            "0x0000000000000000000000006dc2dd54f24979ec26212794c71afefed722280c"
          ],
          "data": "0x000000000000000000000000000000000000000000000000005036844e15470e000000000000000000000000000000000000000000000017caf15a4c0ce0603f0000000000000000000000000000000000000000000007812aae0b82824c9ba5000000000000000000000000000000000000000000000017caa123c7becb19310000000000000000000000000000000000000000000007812afe4206d061e2b3",
          "blockHash": "0x85c9fb785dfb30dfe7f1aefd48484eb36db95a7e69d99fb2598ea43dfd1ea877",
          "blockNumber": "0x152ca74",
          "transactionHash": "0x1f54f7ac1d0190a97b35b8e893464f4b9a653513e26edd9bf379ed2d5bb1ff14",
          "transactionIndex": "0x1",
          "logIndex": "0x3",
          "removed": false
        }
      ],
      "logsBloom": "0x20000000000000000004000000000000000000000000000000000000000000000000000000000000000000000000000000008000000000000000000000000000000000000000000000000000000000800000000000000000000100080000000000000000000000000000000000000000000000000000000080000000000000020000000000000000000000000040040000000000000000000000000000000000200000000000000000000000000000000000000000000000000000000000004000000000000000000001000000000000000000000000000000100000000000000000000000000000000000000000000000000000000000000000000000100000",
      "type": "0x2",
      "transactionHash": "0x1f54f7ac1d0190a97b35b8e893464f4b9a653513e26edd9bf379ed2d5bb1ff14",
      "transactionIndex": "0x1",
      "blockHash": "0x85c9fb785dfb30dfe7f1aefd48484eb36db95a7e69d99fb2598ea43dfd1ea877",
      "blockNumber": "0x152ca74",
      "gasUsed": "0x2206a",
      "effectiveGasPrice": "0x25b7f3d45a",
      "from": "0xe62ab4d111f968660c6b2188046f9b9ba53c4bae",
      "to": "0xa332fc0bf257aff4ab07267de75d5eb0c67b71af",
      "contractAddress": null
    },
    {
      "status": "0x1",
      "cumulativeGasUsed": "0x1e3f6",
      "logs": [
        {
          "address": "0x0000000000000000000000000000000000001010",
          "topics": [
            "0x4dfe1bbbcf077ddc3e01291eea2d5c70c2b422b415d95645b9adcfd678cb1d63",
            "0x0000000000000000000000000000000000000000000000000000000000001010",
            "0x000000000000000000000000e62ab4d111f968660c6b2188046f9b9ba53c4bae",
            "0x0000000000000000000000006dc2dd54f24979ec26212794c71afefed722280c"
          ],
          "data": "0x00000000000000000000000000000000000000000000000000474e4fcdd78112000000000000000000000000000000000000000000000017caa123c7beab32fb0000000000000000000000000000000000000000000007812b7c92541e5efddb000000000000000000000000000000000000000000000017ca59d577f0d3b1e90000000000000000000000000000000000000000000007812bc3e0a3ec367eed",
          "blockHash": "0x05fa04e85b2e93ff28d75dd0b5d50f5ab3265ba73e55fbc6a4e27a5fdadfa8fd",
          "blockNumber": "0x152ca76",
          "transactionHash": "0x57668cb5f13c557a298752851508c5db2f7742434072e42902d99efd20307d6f",
          "transactionIndex": "0x0",
          "logIndex": "0x0",
          "removed": false
        }
      ],
      "logsBloom": "0x20000000000000000004000000000000000000000000000000000000000000000000000000000000000000000000000000008000000000000000000000000000000000000000000000000000000000800000000000000000000100080000000000000000000000000000000000000000000000000000000080000000000000020000000000000000000000000040040000000000000000000000000000000000200000000000000000000000000000000000000000000000000000000000004000000000000000000001000000000000000000000000000000100000000000000000000000000000000000000000000000000000000000000000000000100000",
      "type": "0x2",
      "transactionHash": "0x57668cb5f13c557a298752851508c5db2f7742434072e42902d99efd20307d6f",
      "transactionIndex": "0x0",
      "blockHash": "0x05fa04e85b2e93ff28d75dd0b5d50f5ab3265ba73e55fbc6a4e27a5fdadfa8fd",
      "blockNumber": "0x152ca76",
      "gasUsed": "0x1e3f6",
      "effectiveGasPrice": "0x25b7f3d45a",
      "from": "0xe62ab4d111f968660c6b2188046f9b9ba53c4bae",
      "to": "0xa332fc0bf257aff4ab07267de75d5eb0c67b71af",
      "contractAddress": null
    },
    {
      "status": "0x1",
      "cumulativeGasUsed": "0x319e0",
      "logs": [
        {
          "address": "0x0000000000000000000000000000000000001010",
          "topics": [
            "0x4dfe1bbbcf077ddc3e01291eea2d5c70c2b422b415d95645b9adcfd678cb1d63",
            "0x0000000000000000000000000000000000000000000000000000000000001010",
            "0x000000000000000000000000e62ab4d111f968660c6b2188046f9b9ba53c4bae",
            "0x0000000000000000000000006dc2dd54f24979ec26212794c71afefed722280c"
          ],
          "data": "0x00000000000000000000000000000000000000000000000000474e4fcdd78112000000000000000000000000000000000000000000000017ca59d577f0b7567f0000000000000000000000000000000000000000000007812caaf50f6705e23d000000000000000000000000000000000000000000000017ca12872822dfd56d0000000000000000000000000000000000000000000007812cf2435f34dd634f",
          "blockHash": "0x44c5f0da02b59c1901d7910ab4567599f9557c7754528b59550e7b08f4ad44c8",
          "blockNumber": "0x152ca78",
          "transactionHash": "0xcba2e1e5abd244103b775b0a14942d99e749f640723d3d2b914ffaf526d6e854",
          "transactionIndex": "0x2",
          "logIndex": "0x5",
          "removed": false
        }
      ],
      "logsBloom": "0x20000000000000000004000000000000000000000000000000000000000000000000000000000000000000000000000000008000000000000000000000000000000000000000000000000000000000800000000000000000000100080000000000000000000000000000000000000000000000000000000080000000000000020000000000000000000000000040040000000000000000000000000000000000200000000000000000000000000000000000000000000000000000000000004000000000000000000001000000000000000000000000000000100000000000000000000000000000000000000000000000000000000000000000000000100000",
      "type": "0x2",
      "transactionHash": "0xcba2e1e5abd244103b775b0a14942d99e749f640723d3d2b914ffaf526d6e854",
      "transactionIndex": "0x2",
      "blockHash": "0x44c5f0da02b59c1901d7910ab4567599f9557c7754528b59550e7b08f4ad44c8",
      "blockNumber": "0x152ca78",
      "gasUsed": "0x1e3f6",
      "effectiveGasPrice": "0x25b7f3d45a",
      "from": "0xe62ab4d111f968660c6b2188046f9b9ba53c4bae",
      "to": "0xa332fc0bf257aff4ab07267de75d5eb0c67b71af",
      "contractAddress": null
    },
    {
      "status": "0x1",
      "cumulativeGasUsed": "0x1e85e",
      "logs": [
        {
          "address": "0x0000000000000000000000000000000000001010",
          "topics": [
            "0x4dfe1bbbcf077ddc3e01291eea2d5c70c2b422b415d95645b9adcfd678cb1d63",
            "0x0000000000000000000000000000000000000000000000000000000000001010",
            "0x000000000000000000000000e62ab4d111f968660c6b2188046f9b9ba53c4bae",
            "0x0000000000000000000000006dc2dd54f24979ec26212794c71afefed722280c"
          ],
          "data": "0x0000000000000000000000000000000000000000000000000047f4825836eb8a000000000000000000000000000000000000000000000017ca12872822c37a030000000000000000000000000000000000000000000007812cf2435f34dd634f000000000000000000000000000000000000000000000017c9ca92a5ca8c8e790000000000000000000000000000000000000000000007812d3a37e18d144ed9",
          "blockHash": "0x9d21f5f9c028c497ae989f2424bf50f0a73fe5b17381c16f97f6417d8787acd2",
          "blockNumber": "0x152ca7a",
          "transactionHash": "0xd2adba44a404c0a0d2f04a0ac0d777f29d2d7803c6dd1fbde399e55c50987357",
          "transactionIndex": "0x0",
          "logIndex": "0x0",
          "removed": false
        }
      ],
      "logsBloom": "0x20000000000000000004000000000000000000000000000000000000000000000000000000000000000000000000000000008000000000000000000000000000000000000000000000000000000000800000000000000000000100080000000000000000000000000000000000000000000000000000000080000000000000020000000000000000000000000040040000000000000000000000000000000000200000000000000000000000000000000000000000000000000000000000004000000000000000000001000000000000000000000000000000100000000000000000000000000000000000000000000000000000000000000000000000100000",
      "type": "0x2",
      "transactionHash": "0xd2adba44a404c0a0d2f04a0ac0d777f29d2d7803c6dd1fbde399e55c50987357",
      "transactionIndex": "0x0",
      "blockHash": "0x9d21f5f9c028c497ae989f2424bf50f0a73fe5b17381c16f97f6417d8787acd2",
      "blockNumber": "0x152ca7a",
      "gasUsed": "0x1e85e",
      "effectiveGasPrice": "0x25b7f3d45a",
      "from": "0xe62ab4d111f968660c6b2188046f9b9ba53c4bae",
      "to": "0xa332fc0bf257aff4ab07267de75d5eb0c67b71af",
      "contractAddress": null
    },
    {
      "status": "0x1",
      "cumulativeGasUsed": "0x1df8e",
      "logs": [
        {
          "address": "0x0000000000000000000000000000000000001010",
          "topics": [
            "0x4dfe1bbbcf077ddc3e01291eea2d5c70c2b422b415d95645b9adcfd678cb1d63",
            "0x0000000000000000000000000000000000000000000000000000000000001010",
            "0x000000000000000000000000e62ab4d111f968660c6b2188046f9b9ba53c4bae",
            "0x0000000000000000000000006dc2dd54f24979ec26212794c71afefed722280c"
          ],
          "data": "0x0000000000000000000000000000000000000000000000000046a81d4378169a000000000000000000000000000000000000000000000017c9ca92a5ca6ff0f70000000000000000000000000000000000000000000007812d87da786826a334000000000000000000000000000000000000000000000017c983ea8886f7da5d0000000000000000000000000000000000000000000007812dce8295ab9eb9ce",
          "blockHash": "0x3a1e8ae03b1c34f6d9ae9dd4f3d78c7c123c0f9b09a8ffd26bfa8f120b2bb0e3",
          "blockNumber": "0x152ca7c",
          "transactionHash": "0xcbbc421139bc930298b11519a9fd32415cc23bb652c15fbfd21980b05462a016",
          "transactionIndex": "0x0",
          "logIndex": "0x0",
          "removed": false
        }
      ],
      "logsBloom": "0x20000000000000000004000000000000000000000000000000000000000000000000000000000000000000000000000000008000000000000000000000000000000000000000000000000000000000800000000000000000000100080000000000000000000000000000000000000000000000000000000080000000000000020000000000000000000000000040040000000000000000000000000000000000200000000000000000000000000000000000000000000000000000000000004000000000000000000001000000000000000000000000000000100000000000000000000000000000000000000000000000000000000000000000000000100000",
      "type": "0x2",
      "transactionHash": "0xcbbc421139bc930298b11519a9fd32415cc23bb652c15fbfd21980b05462a016",
      "transactionIndex": "0x0",
      "blockHash": "0x3a1e8ae03b1c34f6d9ae9dd4f3d78c7c123c0f9b09a8ffd26bfa8f120b2bb0e3",
      "blockNumber": "0x152ca7c",
      "gasUsed": "0x1df8e",
      "effectiveGasPrice": "0x25b7f3d45a",
      "from": "0xe62ab4d111f968660c6b2188046f9b9ba53c4bae",
      "to": "0xa332fc0bf257aff4ab07267de75d5eb0c67b71af",
      "contractAddress": null
    },
    {
      "status": "0x1",
      "cumulativeGasUsed": "0x2b735",
      "logs": [
        {
          "address": "0x0000000000000000000000000000000000001010",
          "topics": [
            "0x4dfe1bbbcf077ddc3e01291eea2d5c70c2b422b415d95645b9adcfd678cb1d63",
            "0x0000000000000000000000000000000000000000000000000000000000001010",
            "0x000000000000000000000000e62ab4d111f968660c6b2188046f9b9ba53c4bae",
            "0x0000000000000000000000006dc2dd54f24979ec26212794c71afefed722280c"
          ],
          "data": "0x0000000000000000000000000000000000000000000000000048634eb47687da000000000000000000000000000000000000000000000017c983ea8886dbc10b0000000000000000000000000000000000000000000007812dfcdf435cc715ce000000000000000000000000000000000000000000000017c93b8739d26539310000000000000000000000000000000000000000000007812e454292113d9da8",
          "blockHash": "0xa1fe3c0cb2cfa8701b115ae43cd550281f1c994cbe10060d48d446f1a543c61a",
          "blockNumber": "0x152ca7e",
          "transactionHash": "0x2407aa01063167943866088337c6b8146ce1f5a90ac1b5ffca79a04b88848a8c",
          "transactionIndex": "0x1",
          "logIndex": "0x2",
          "removed": false
        }
      ],
      "logsBloom": "0x20000000000000000004000000000000000000000000000000000000000000000000000000000000000000000000000000008000000000000000000000000000000000000000000000000000000000800000000000000000000100080000000000000000000000000000000000000000000000000000000080000000000000020000000000000000000000000040040000000000000000000000000000000000200000000000000000000000000000000000000000000000000000000000004000000000000000000001000000000000000000000000000000100000000000000000000000000000000000000000000000000000000000000000000000100000",
      "type": "0x2",
      "transactionHash": "0x2407aa01063167943866088337c6b8146ce1f5a90ac1b5ffca79a04b88848a8c",
      "transactionIndex": "0x1",
      "blockHash": "0xa1fe3c0cb2cfa8701b115ae43cd550281f1c994cbe10060d48d446f1a543c61a",
      "blockNumber": "0x152ca7e",
      "gasUsed": "0x1eb4e",
      "effectiveGasPrice": "0x25b7f3d45a",
      "from": "0xe62ab4d111f968660c6b2188046f9b9ba53c4bae",
      "to": "0xa332fc0bf257aff4ab07267de75d5eb0c67b71af",
      "contractAddress": null
    },
    {
      "status": "0x1",
      "cumulativeGasUsed": "0x29156",
      "logs": [
        {
          "address": "0x0000000000000000000000000000000000001010",
          "topics": [
            "0x4dfe1bbbcf077ddc3e01291eea2d5c70c2b422b415d95645b9adcfd678cb1d63",
            "0x0000000000000000000000000000000000000000000000000000000000001010",
            "0x000000000000000000000000e62ab4d111f968660c6b2188046f9b9ba53c4bae",
            "0x000000000000000000000000ba60fe9f3372f53397bee44e2a4d3087aa5f281f"
          ],
          "data": "0x000000000000000000000000000000000000000000000000004716e99fb7b2ea000000000000000000000000000000000000000000000017c93b8739d2486f9f0000000000000000000000000000000000000000000000723068496ad35f53f8000000000000000000000000000000000000000000000017c8f470503290bcb500000000000000000000000000000000000000000000007230af6054731706e2",
          "blockHash": "0xc387506d559df0fe36af8fc46f36f7dc3da720c011d35b017e4f4c9696e485cc",
          "blockNumber": "0x152ca80",
          "transactionHash": "0x56bf26d0f5354bc0a67cd04471b2639b0d46c1d692f8f8174b1c89d9a5dd99b3",
          "transactionIndex": "0x1",
          "logIndex": "0x2",
          "removed": false
        }
      ],
      "logsBloom": "0x20000000000000000004000000004000000000000000000000000000000000000000000000000000000000000000000000008000000000000000000000000000000000000000000000000000000000800000000000000000000100000000000000000000000000000000000000000000000000000000000080000000000000000000000000000000000000000000040000004000000000000000000000000000200000000000000000000000000040000000000000000000000000000000004000000000000000000001000000000000000000000000000000100000000000000000000000000000000000000000000000000000000000000000000000100000",
      "type": "0x2",
      "transactionHash": "0x56bf26d0f5354bc0a67cd04471b2639b0d46c1d692f8f8174b1c89d9a5dd99b3",
      "transactionIndex": "0x1",
      "blockHash": "0xc387506d559df0fe36af8fc46f36f7dc3da720c011d35b017e4f4c9696e485cc",
      "blockNumber": "0x152ca80",
      "gasUsed": "0x1e27e",
      "effectiveGasPrice": "0x25b7f3d45a",
      "from": "0xe62ab4d111f968660c6b2188046f9b9ba53c4bae",
      "to": "0xa332fc0bf257aff4ab07267de75d5eb0c67b71af",
      "contractAddress": null
    },
    {
      "status": "0x1",
      "cumulativeGasUsed": "0x6c7e8",
      "logs": [
        {
          "address": "0x0000000000000000000000000000000000001010",
          "topics": [
            "0x4dfe1bbbcf077ddc3e01291eea2d5c70c2b422b415d95645b9adcfd678cb1d63",
            "0x0000000000000000000000000000000000000000000000000000000000001010",
            "0x000000000000000000000000e62ab4d111f968660c6b2188046f9b9ba53c4bae",
            "0x000000000000000000000000ba60fe9f3372f53397bee44e2a4d3087aa5f281f"
          ],
          "data": "0x000000000000000000000000000000000000000000000000004716e99fb7b2ea000000000000000000000000000000000000000000000017c8f47050327477530000000000000000000000000000000000000000000000723276ca11c5fef3a1000000000000000000000000000000000000000000000017c8ad596692bcc46900000000000000000000000000000000000000000000007232bde0fb65b6a68b",
          "blockHash": "0xc6ce7da6177d971cfba74a5100406999a29b1eb6cb774031947ff6c8262a8cd6",
          "blockNumber": "0x152ca82",
          "transactionHash": "0xd8698c84157c24fb9081419334dd163efaf2febbcbfee2b4c632e2600a2845cb",
          "transactionIndex": "0x3",
          "logIndex": "0x9",
          "removed": false
        }
      ],
      "logsBloom": "0x20000000000000000004000000004000000000000000000000000000000000000000000000000000000000000000000000008000000000000000000000000000000000000000000000000000000000800000000000000000000100000000000000000000000000000000000000000000000000000000000080000000000000000000000000000000000000000000040000004000000000000000000000000000200000000000000000000000000040000000000000000000000000000000004000000000000000000001000000000000000000000000000000100000000000000000000000000000000000000000000000000000000000000000000000100000",
      "type": "0x2",
      "transactionHash": "0xd8698c84157c24fb9081419334dd163efaf2febbcbfee2b4c632e2600a2845cb",
      "transactionIndex": "0x3",
      "blockHash": "0xc6ce7da6177d971cfba74a5100406999a29b1eb6cb774031947ff6c8262a8cd6",
      "blockNumber": "0x152ca82",
      "gasUsed": "0x1e27e",
      "effectiveGasPrice": "0x25b7f3d45a",
      "from": "0xe62ab4d111f968660c6b2188046f9b9ba53c4bae",
      "to": "0xa332fc0bf257aff4ab07267de75d5eb0c67b71af",
      "contractAddress": null
    },
    {
      "status": "0x1",
      "cumulativeGasUsed": "0x1e56e",
      "logs": [
        {
          "address": "0x0000000000000000000000000000000000001010",
          "topics": [
            "0x4dfe1bbbcf077ddc3e01291eea2d5c70c2b422b415d95645b9adcfd678cb1d63",
            "0x0000000000000000000000000000000000000000000000000000000000001010",
            "0x000000000000000000000000e62ab4d111f968660c6b2188046f9b9ba53c4bae",
            "0x000000000000000000000000ba60fe9f3372f53397bee44e2a4d3087aa5f281f"
          ],
          "data": "0x000000000000000000000000000000000000000000000000004785b5fbf74f3a000000000000000000000000000000000000000000000017c8ad596692a07f0700000000000000000000000000000000000000000000007232ec3da916df028b000000000000000000000000000000000000000000000017c865d3b096a92fcd0000000000000000000000000000000000000000000000723333c35f12d651c5",
          "blockHash": "0x612df5f23039d50ae4a00b39e71bb0055d3299d5648a0116350e51b8d3ce7ed4",
          "blockNumber": "0x152ca84",
          "transactionHash": "0xbf0f3c794d008bca5ba651240166176e96ddb325f4d7b386bf310150d8559e2b",
          "transactionIndex": "0x0",
          "logIndex": "0x0",
          "removed": false
        }
      ],
      "logsBloom": "0x20000000000000000004000000004000000000000000000000000000000000000000000000000000000000000000000000008000000000000000000000000000000000000000000000000000000000800000000000000000000100000000000000000000000000000000000000000000000000000000000080000000000000000000000000000000000000000000040000004000000000000000000000000000200000000000000000000000000040000000000000000000000000000000004000000000000000000001000000000000000000000000000000100000000000000000000000000000000000000000000000000000000000000000000000100000",
      "type": "0x2",
      "transactionHash": "0xbf0f3c794d008bca5ba651240166176e96ddb325f4d7b386bf310150d8559e2b",
      "transactionIndex": "0x0",
      "blockHash": "0x612df5f23039d50ae4a00b39e71bb0055d3299d5648a0116350e51b8d3ce7ed4",
      "blockNumber": "0x152ca84",
      "gasUsed": "0x1e56e",
      "effectiveGasPrice": "0x25b7f3d45a",
      "from": "0xe62ab4d111f968660c6b2188046f9b9ba53c4bae",
      "to": "0xa332fc0bf257aff4ab07267de75d5eb0c67b71af",
      "contractAddress": null
    },
    {
      "status": "0x1",
      "cumulativeGasUsed": "0x1e3f6",
      "logs": [
        {
          "address": "0x0000000000000000000000000000000000001010",
          "topics": [
            "0x4dfe1bbbcf077ddc3e01291eea2d5c70c2b422b415d95645b9adcfd678cb1d63",
            "0x0000000000000000000000000000000000000000000000000000000000001010",
            "0x000000000000000000000000e62ab4d111f968660c6b2188046f9b9ba53c4bae",
            "0x000000000000000000000000ba60fe9f3372f53397bee44e2a4d3087aa5f281f"
          ],
          "data": "0x00000000000000000000000000000000000000000000000000474e4fcdd78112000000000000000000000000000000000000000000000017c865d3b0968cbe5b000000000000000000000000000000000000000000000072334361fb309b58b8000000000000000000000000000000000000000000000017c81e8560c8b53d49000000000000000000000000000000000000000000000072338ab04afe72d9ca",
          "blockHash": "0x1b1f515033256b3e7e9a928656b56fd9fc3af3e5079510ceab18c277829079a2",
          "blockNumber": "0x152ca86",
          "transactionHash": "0x3cd713dfa6c3a701d5ccf90795993ffd5f1caaa3608d00c78e4b99d029c925df",
          "transactionIndex": "0x0",
          "logIndex": "0x0",
          "removed": false
        }
      ],
      "logsBloom": "0x20000000000000000004000000004000000000000000000000000000000000000000000000000000000000000000000000008000000000000000000000000000000000000000000000000000000000800000000000000000000100000000000000000000000000000000000000000000000000000000000080000000000000000000000000000000000000000000040000004000000000000000000000000000200000000000000000000000000040000000000000000000000000000000004000000000000000000001000000000000000000000000000000100000000000000000000000000000000000000000000000000000000000000000000000100000",
      "type": "0x2",
      "transactionHash": "0x3cd713dfa6c3a701d5ccf90795993ffd5f1caaa3608d00c78e4b99d029c925df",
      "transactionIndex": "0x0",
      "blockHash": "0x1b1f515033256b3e7e9a928656b56fd9fc3af3e5079510ceab18c277829079a2",
      "blockNumber": "0x152ca86",
      "gasUsed": "0x1e3f6",
      "effectiveGasPrice": "0x25b7f3d45a",
      "from": "0xe62ab4d111f968660c6b2188046f9b9ba53c4bae",
      "to": "0xa332fc0bf257aff4ab07267de75d5eb0c67b71af",
      "contractAddress": null
    },
    {
      "status": "0x1",
      "cumulativeGasUsed": "0x1e27e",
      "logs": [
        {
          "address": "0x0000000000000000000000000000000000001010",
          "topics": [
            "0x4dfe1bbbcf077ddc3e01291eea2d5c70c2b422b415d95645b9adcfd678cb1d63",
            "0x0000000000000000000000000000000000000000000000000000000000001010",
            "0x000000000000000000000000e62ab4d111f968660c6b2188046f9b9ba53c4bae",
            "0x000000000000000000000000ba60fe9f3372f53397bee44e2a4d3087aa5f281f"
          ],
          "data": "0x000000000000000000000000000000000000000000000000004716e99fb7b2ea000000000000000000000000000000000000000000000017c81e8560c898e1df00000000000000000000000000000000000000000000007233d8566b186115bd000000000000000000000000000000000000000000000017c7d76e7728e12ef5000000000000000000000000000000000000000000000072341f6d54b818c8a7",
          "blockHash": "0x5573815f4d946b63f89a64bcfb9067af2697684183944b8696acfde7a5632f4f",
          "blockNumber": "0x152ca88",
          "transactionHash": "0xdcfe0519b706b2f22d297cb28f12c48493254b84c51976958e168e15cce0dbe1",
          "transactionIndex": "0x0",
          "logIndex": "0x0",
          "removed": false
        }
      ],
      "logsBloom": "0x20000000000000000004000000004000000000000000000000000000000000000000000000000000000000000000000000008000000000000000000000000000000000000000000000000000000000800000000000000000000100000000000000000000000000000000000000000000000000000000000080000000000000000000000000000000000000000000040000004000000000000000000000000000200000000000000000000000000040000000000000000000000000000000004000000000000000000001000000000000000000000000000000100000000000000000000000000000000000000000000000000000000000000000000000100000",
      "type": "0x2",
      "transactionHash": "0xdcfe0519b706b2f22d297cb28f12c48493254b84c51976958e168e15cce0dbe1",
      "transactionIndex": "0x0",
      "blockHash": "0x5573815f4d946b63f89a64bcfb9067af2697684183944b8696acfde7a5632f4f",
      "blockNumber": "0x152ca88",
      "gasUsed": "0x1e27e",
      "effectiveGasPrice": "0x25b7f3d45a",
      "from": "0xe62ab4d111f968660c6b2188046f9b9ba53c4bae",
      "to": "0xa332fc0bf257aff4ab07267de75d5eb0c67b71af",
      "contractAddress": null
    },
    {
      "status": "0x1",
      "cumulativeGasUsed": "0x2b5bd",
      "logs": [
        {
          "address": "0x0000000000000000000000000000000000001010",
          "topics": [
            "0x4dfe1bbbcf077ddc3e01291eea2d5c70c2b422b415d95645b9adcfd678cb1d63",
            "0x0000000000000000000000000000000000000000000000000000000000001010",
            "0x000000000000000000000000e62ab4d111f968660c6b2188046f9b9ba53c4bae",
            "0x000000000000000000000000ba60fe9f3372f53397bee44e2a4d3087aa5f281f"
          ],
          "data": "0x00000000000000000000000000000000000000000000000000482be88656b9b2000000000000000000000000000000000000000000000017c7d76e7728c4e993000000000000000000000000000000000000000000000072344dca02694124a7000000000000000000000000000000000000000000000017c78f428ea26e2fe10000000000000000000000000000000000000000000000723495f5eaef97de59",
          "blockHash": "0x8526b544d3d25fec2faa03a74ab550104936eb6a39748866d7906d5fc3886c6a",
          "blockNumber": "0x152ca8a",
          "transactionHash": "0xf7f8ecfc83b9ca8017dd89951193620862433e9ce5960199a739b68c39b3e185",
          "transactionIndex": "0x1",
          "logIndex": "0x2",
          "removed": false
        }
      ],
      "logsBloom": "0x20000000000000000004000000004000000000000000000000000000000000000000000000000000000000000000000000008000000000000000000000000000000000000000000000000000000000800000000000000000000100000000000000000000000000000000000000000000000000000000000080000000000000000000000000000000000000000000040000004000000000000000000000000000200000000000000000000000000040000000000000000000000000000000004000000000000000000001000000000000000000000000000000100000000000000000000000000000000000000000000000000000000000000000000000100000",
      "type": "0x2",
      "transactionHash": "0xf7f8ecfc83b9ca8017dd89951193620862433e9ce5960199a739b68c39b3e185",
      "transactionIndex": "0x1",
      "blockHash": "0x8526b544d3d25fec2faa03a74ab550104936eb6a39748866d7906d5fc3886c6a",
      "blockNumber": "0x152ca8a",
      "gasUsed": "0x1e9d6",
      "effectiveGasPrice": "0x25b7f3d45a",
      "from": "0xe62ab4d111f968660c6b2188046f9b9ba53c4bae",
      "to": "0xa332fc0bf257aff4ab07267de75d5eb0c67b71af",
      "contractAddress": null
    },
    {
      "status": "0x1",
      "cumulativeGasUsed": "0x1e106",
      "logs": [
        {
          "address": "0x0000000000000000000000000000000000001010",
          "topics": [
            "0x4dfe1bbbcf077ddc3e01291eea2d5c70c2b422b415d95645b9adcfd678cb1d63",
            "0x0000000000000000000000000000000000000000000000000000000000001010",
            "0x000000000000000000000000e62ab4d111f968660c6b2188046f9b9ba53c4bae",
            "0x000000000000000000000000ba60fe9f3372f53397bee44e2a4d3087aa5f281f"
          ],
          "data": "0x0000000000000000000000000000000000000000000000000046df837197e4c2000000000000000000000000000000000000000000000017c78f428ea2517c5700000000000000000000000000000000000000000000007234e396bd2b3c3ee8000000000000000000000000000000000000000000000017c748630b30b99795000000000000000000000000000000000000000000000072352a76409cd423aa",
          "blockHash": "0xc6ac6ca76483b3287b3879ca91f4e161dfceb63961bab8e42183cfc222cd81db",
          "blockNumber": "0x152ca8c",
          "transactionHash": "0xaa18786b292a01a02733046dceb134083bef84b07c7a44d7ec9a085c04bd4470",
          "transactionIndex": "0x0",
          "logIndex": "0x0",
          "removed": false
        }
      ],
      "logsBloom": "0x20000000000000000004000000004000000000000000000000000000000000000000000000000000000000000000000000008000000000000000000000000000000000000000000000000000000000800000000000000000000100000000000000000000000000000000000000000000000000000000000080000000000000000000000000000000000000000000040000004000000000000000000000000000200000000000000000000000000040000000000000000000000000000000004000000000000000000001000000000000000000000000000000100000000000000000000000000000000000000000000000000000000000000000000000100000",
      "type": "0x2",
      "transactionHash": "0xaa18786b292a01a02733046dceb134083bef84b07c7a44d7ec9a085c04bd4470",
      "transactionIndex": "0x0",
      "blockHash": "0xc6ac6ca76483b3287b3879ca91f4e161dfceb63961bab8e42183cfc222cd81db",
      "blockNumber": "0x152ca8c",
      "gasUsed": "0x1e106",
      "effectiveGasPrice": "0x25b7f3d45a",
      "from": "0xe62ab4d111f968660c6b2188046f9b9ba53c4bae",
      "to": "0xa332fc0bf257aff4ab07267de75d5eb0c67b71af",
      "contractAddress": null
    },
    {
      "status": "0x1",
      "cumulativeGasUsed": "0x1e85e",
      "logs": [
        {
          "address": "0x0000000000000000000000000000000000001010",
          "topics": [
            "0x4dfe1bbbcf077ddc3e01291eea2d5c70c2b422b415d95645b9adcfd678cb1d63",
            "0x0000000000000000000000000000000000000000000000000000000000001010",
            "0x000000000000000000000000e62ab4d111f968660c6b2188046f9b9ba53c4bae",
            "0x000000000000000000000000ba60fe9f3372f53397bee44e2a4d3087aa5f281f"
          ],
          "data": "0x0000000000000000000000000000000000000000000000000047f4825836eb8a000000000000000000000000000000000000000000000017c748630b309d683b000000000000000000000000000000000000000000000072352a76409cd423aa000000000000000000000000000000000000000000000017c7006e88d8667cb100000000000000000000000000000000000000000000007235726ac2f50b0f34",
          "blockHash": "0x2805cd31c8cb52388ab589e99ba0f5d4f87823342f48e3e546c043837239d7e4",
          "blockNumber": "0x152ca8e",
          "transactionHash": "0x11aed0b0f1413781945f3a1eeb26b0bb31ab073942987a614b1adf00eb43f067",
          "transactionIndex": "0x0",
          "logIndex": "0x0",
          "removed": false
        }
      ],
      "logsBloom": "0x20000000000000000004000000004000000000000000000000000000000000000000000000000000000000000000000000008000000000000000000000000000000000000000000000000000000000800000000000000000000100000000000000000000000000000000000000000000000000000000000080000000000000000000000000000000000000000000040000004000000000000000000000000000200000000000000000000000000040000000000000000000000000000000004000000000000000000001000000000000000000000000000000100000000000000000000000000000000000000000000000000000000000000000000000100000",
      "type": "0x2",
      "transactionHash": "0x11aed0b0f1413781945f3a1eeb26b0bb31ab073942987a614b1adf00eb43f067",
      "transactionIndex": "0x0",
      "blockHash": "0x2805cd31c8cb52388ab589e99ba0f5d4f87823342f48e3e546c043837239d7e4",
      "blockNumber": "0x152ca8e",
      "gasUsed": "0x1e85e",
      "effectiveGasPrice": "0x25b7f3d45a",
      "from": "0xe62ab4d111f968660c6b2188046f9b9ba53c4bae",
      "to": "0xa332fc0bf257aff4ab07267de75d5eb0c67b71af",
      "contractAddress": null
    },
    {
      "status": "0x1",
      "cumulativeGasUsed": "0x1e3f6",
      "logs": [
        {
          "address": "0x0000000000000000000000000000000000001010",
          "topics": [
            "0x4dfe1bbbcf077ddc3e01291eea2d5c70c2b422b415d95645b9adcfd678cb1d63",
            "0x0000000000000000000000000000000000000000000000000000000000001010",
            "0x000000000000000000000000e62ab4d111f968660c6b2188046f9b9ba53c4bae",
            "0x0000000000000000000000006ab3d36c46ecfb9b9c0bd51cb1c3da5a2c81cea6"
          ],
          "data": "0x00000000000000000000000000000000000000000000000000474e4fcdd78112000000000000000000000000000000000000000000000017c7006e88d849df2f000000000000000000000000000000000000000000000812b5bb6b66eecdaeed000000000000000000000000000000000000000000000017c6b920390a725e1d000000000000000000000000000000000000000000000812b602b9b6bca52fff",
          "blockHash": "0x64592901f35f4ac5a0d03836e45879e0f1bfeb0cf7797a5ff359d1d1929ae43a",
          "blockNumber": "0x152ca90",
          "transactionHash": "0xba352a1eb7075c0f1fa41696e119de93f03d8e0640fc8f4c5a58ef63c44022f2",
          "transactionIndex": "0x0",
          "logIndex": "0x0",
          "removed": false
        }
      ],
      "logsBloom": "0x20000000080000000004000000000000000000000000000000000000000000000000000000000000000000000000000000008000000000000000000000000000000000080000000000000000000000800000000000000000000100000000000000000000000000000000000000000000000000000000000080000000000000000000000000000000000000000000040000000000000000000000000000000000200000000000000000000000000000000000000000000000000000000000004000000000000000000001000000000000000000010000000000100000000000000000000000000000000000000000000000000000000000000000000000100000",
      "type": "0x2",
      "transactionHash": "0xba352a1eb7075c0f1fa41696e119de93f03d8e0640fc8f4c5a58ef63c44022f2",
      "transactionIndex": "0x0",
      "blockHash": "0x64592901f35f4ac5a0d03836e45879e0f1bfeb0cf7797a5ff359d1d1929ae43a",
      "blockNumber": "0x152ca90",
      "gasUsed": "0x1e3f6",
      "effectiveGasPrice": "0x25b7f3d45a",
      "from": "0xe62ab4d111f968660c6b2188046f9b9ba53c4bae",
      "to": "0xa332fc0bf257aff4ab07267de75d5eb0c67b71af",
      "contractAddress": null
    },
    {
      "status": "0x1",
      "cumulativeGasUsed": "0x1b42d7",
      "logs": [
        {
          "address": "0x0000000000000000000000000000000000001010",
          "topics": [
            "0x4dfe1bbbcf077ddc3e01291eea2d5c70c2b422b415d95645b9adcfd678cb1d63",
            "0x0000000000000000000000000000000000000000000000000000000000001010",
            "0x000000000000000000000000e62ab4d111f968660c6b2188046f9b9ba53c4bae",
            "0x0000000000000000000000006ab3d36c46ecfb9b9c0bd51cb1c3da5a2c81cea6"
          ],
          "data": "0x00000000000000000000000000000000000000000000000004043fd1be6ba0fd000000000000000000000000000000000000000000000017c6b920390a5602b3000000000000000000000000000000000000000000000812b7382559d5610930000000000000000000000000000000000000000000000017c2b4e0674bea61b6000000000000000000000000000000000000000000000812bb3c652b93ccaa2d",
          "blockHash": "0xaed4510afc32ebfa4f07181d28079a32fe1451b91058f6e7d3a6897714c17f2b",
          "blockNumber": "0x152ca92",
          "transactionHash": "0x2fb257187e32516e19dd33ef4519f7ba26ee3ba2aaf28066b5f74151107c49b4",
          "transactionIndex": "0x0",
          "logIndex": "0x0",
          "removed": false
        }
      ],
      "logsBloom": "0x20000000080000000004000000000000000000000000000000000000000000000000000000000000000000000000000000008000000000000000000000000000000000080000000000000000000000800000000000000000000100000000000000000000000000000000000000000000000000000000000080000000000000000000000000000000000000000000040000000000000000000000000000000000200000000000000000000000000000000000000000000000000000000000004000000000000000000001000000000000000000010000000000100000000000000000000000000000000000000000000000000000000000000000000000100000",
      "type": "0x2",
      "transactionHash": "0x2fb257187e32516e19dd33ef4519f7ba26ee3ba2aaf28066b5f74151107c49b4",
      "transactionIndex": "0x0",
      "blockHash": "0xaed4510afc32ebfa4f07181d28079a32fe1451b91058f6e7d3a6897714c17f2b",
      "blockNumber": "0x152ca92",
      "gasUsed": "0x1b42d7",
      "effectiveGasPrice": "0x25b7f3d45a",
      "from": "0xe62ab4d111f968660c6b2188046f9b9ba53c4bae",
      "to": "0x66db3f564807fdc689ec85285981ef464daeb943",
      "contractAddress": null
    },
    {
      "status": "0x1",
      "cumulativeGasUsed": "0x234648",
      "logs": [
        {
          "address": "0x0000000000000000000000000000000000001010",
          "topics": [
            "0x4dfe1bbbcf077ddc3e01291eea2d5c70c2b422b415d95645b9adcfd678cb1d63",
            "0x0000000000000000000000000000000000000000000000000000000000001010",
            "0x000000000000000000000000e62ab4d111f968660c6b2188046f9b9ba53c4bae",
            "0x0000000000000000000000006ab3d36c46ecfb9b9c0bd51cb1c3da5a2c81cea6"
          ],
          "data": "0x0000000000000000000000000000000000000000000000000532813e6ee13718000000000000000000000000000000000000000000000017c2b4e0674a51771d000000000000000000000000000000000000000000000812bb3c652b93ccaa2d000000000000000000000000000000000000000000000017bd825f28db704005000000000000000000000000000000000000000000000812c06ee66a02ade145",
          "blockHash": "0xbc30dd5f1635005bf36a542bd6b718fd04258abd54905354a374685df9ce6c51",
          "blockNumber": "0x152ca94",
          "transactionHash": "0xba5ddfff0e7c0cb8c39a8aa85163778149cda29aa4f0ab480fd466f124b805b9",
          "transactionIndex": "0x0",
          "logIndex": "0x0",
          "removed": false
        }
      ],
      "logsBloom": "0x20000000080000000004000000000000000000000000000000000000000000000000000000000000000000000000000000008000000000000000000000000000000000080000000000000000000000800000000000000000000100000000000000000000000000000000000000000000000000000000000080000000000000000000000000000000000000000000040000000000000000000000000000000000200000000000000000000000000000000000000000000000000000000000004000000000000000000001000000000000000000010000000000100000000000000000000000000000000000000000000000000000000000000000000000100000",
      "type": "0x2",
      "transactionHash": "0xba5ddfff0e7c0cb8c39a8aa85163778149cda29aa4f0ab480fd466f124b805b9",
      "transactionIndex": "0x0",
      "blockHash": "0xbc30dd5f1635005bf36a542bd6b718fd04258abd54905354a374685df9ce6c51",
      "blockNumber": "0x152ca94",
      "gasUsed": "0x234648",
      "effectiveGasPrice": "0x25b7f3d45a",
      "from": "0xe62ab4d111f968660c6b2188046f9b9ba53c4bae",
      "to": "0x66db3f564807fdc689ec85285981ef464daeb943",
      "contractAddress": null
    },
    {
      "status": "0x1",
      "cumulativeGasUsed": "0x1dab03",
      "logs": [
        {
          "address": "0x0000000000000000000000000000000000001010",
          "topics": [
            "0x4dfe1bbbcf077ddc3e01291eea2d5c70c2b422b415d95645b9adcfd678cb1d63",
            "0x0000000000000000000000000000000000000000000000000000000000001010",
            "0x000000000000000000000000e62ab4d111f968660c6b2188046f9b9ba53c4bae",
            "0x0000000000000000000000006ab3d36c46ecfb9b9c0bd51cb1c3da5a2c81cea6"
          ],
          "data": "0x000000000000000000000000000000000000000000000000045f08f0132895e1000000000000000000000000000000000000000000000017bd825f28d95f21cd000000000000000000000000000000000000000000000812c1704bbb937d9d38000000000000000000000000000000000000000000000017b9235638c6368bec000000000000000000000000000000000000000000000812c5cf54aba6a63319",
          "blockHash": "0x210be5415f85b4766fbe4c98374bc9153ce7b608b46ceaf0464a487273465824",
          "blockNumber": "0x152ca97",
          "transactionHash": "0x7db5225f85c1181a964175ce3ff95ab450d97fbe529e487dc2b874c78ea2b208",
          "transactionIndex": "0x0",
          "logIndex": "0x0",
          "removed": false
        }
      ],
      "logsBloom": "0x20000000080000000004000000000000000000000000000000000000000000000000000000000000000000000000000000008000000000000000000000000000000000080000000000000000000000800000000000000000000100000000000000000000000000000000000000000000000000000000000080000000000000000000000000000000000000000000040000000000000000000000000000000000200000000000000000000000000000000000000000000000000000000000004000000000000000000001000000000000000000010000000000100000000000000000000000000000000000000000000000000000000000000000000000100000",
      "type": "0x2",
      "transactionHash": "0x7db5225f85c1181a964175ce3ff95ab450d97fbe529e487dc2b874c78ea2b208",
      "transactionIndex": "0x0",
      "blockHash": "0x210be5415f85b4766fbe4c98374bc9153ce7b608b46ceaf0464a487273465824",
      "blockNumber": "0x152ca97",
      "gasUsed": "0x1dab03",
      "effectiveGasPrice": "0x25b7f3d45a",
      "from": "0xe62ab4d111f968660c6b2188046f9b9ba53c4bae",
      "to": "0x66db3f564807fdc689ec85285981ef464daeb943",
      "contractAddress": null
    },
    {
      "status": "0x1",
      "cumulativeGasUsed": "0x1db435",
      "logs": [
        {
          "address": "0x0000000000000000000000000000000000001010",
          "topics": [
            "0x4dfe1bbbcf077ddc3e01291eea2d5c70c2b422b415d95645b9adcfd678cb1d63",
            "0x0000000000000000000000000000000000000000000000000000000000001010",
            "0x000000000000000000000000e62ab4d111f968660c6b2188046f9b9ba53c4bae",
            "0x0000000000000000000000006ab3d36c46ecfb9b9c0bd51cb1c3da5a2c81cea6"
          ],
          "data": "0x000000000000000000000000000000000000000000000000046063c5933eaf87000000000000000000000000000000000000000000000017b9235638c47986bf000000000000000000000000000000000000000000000812c5cf54aba6a63319000000000000000000000000000000000000000000000017b4c2f273313ad738000000000000000000000000000000000000000000000812ca2fb87139e4e2a0",
          "blockHash": "0x5c995b6ca43fc3bc2b16ce4ee3efc49465a0ec65d0c3011230d510168b3aabb7",
          "blockNumber": "0x152ca99",
          "transactionHash": "0xbebe4933a32e50870090c161e2f40f06ad6e0cbf4c94a7d49173d6d2934760e2",
          "transactionIndex": "0x0",
          "logIndex": "0x0",
          "removed": false
        }
      ],
      "logsBloom": "0x20000000080000000004000000000000000000000000000000000000000000000000000000000000000000000000000000008000000000000000000000000000000000080000000000000000000000800000000000000000000100000000000000000000000000000000000000000000000000000000000080000000000000000000000000000000000000000000040000000000000000000000000000000000200000000000000000000000000000000000000000000000000000000000004000000000000000000001000000000000000000010000000000100000000000000000000000000000000000000000000000000000000000000000000000100000",
      "type": "0x2",
      "transactionHash": "0xbebe4933a32e50870090c161e2f40f06ad6e0cbf4c94a7d49173d6d2934760e2",
      "transactionIndex": "0x0",
      "blockHash": "0x5c995b6ca43fc3bc2b16ce4ee3efc49465a0ec65d0c3011230d510168b3aabb7",
      "blockNumber": "0x152ca99",
      "gasUsed": "0x1db435",
      "effectiveGasPrice": "0x25b7f3d45a",
      "from": "0xe62ab4d111f968660c6b2188046f9b9ba53c4bae",
      "to": "0x66db3f564807fdc689ec85285981ef464daeb943",
      "contractAddress": null
    }
  ],
  "libraries": [],
  "pending": [],
  "returns": {},
  "timestamp": 1748393703,
  "chain": 80002,
  "commit": "2bab1f2d"
}