{
  "transactions": [
    {
      "hash": "0x29d6785410362581e7a50c243e2081f106e9349b8c0425608ace969f775dbb80",
      "transactionType": "CALL",
      "contractName": null,
      "contractAddress": "0x1eb65ef07b5a3b8f89fd851e078194e5d9e85f4b",
      "function": "getFeeTokenList()",
      "arguments": [],
      "transaction": {
        "from": "0xe62ab4d111f968660c6b2188046f9b9ba53c4bae",
        "to": "0x1eb65ef07b5a3b8f89fd851e078194e5d9e85f4b",
        "gas": "0x8a7e",
        "value": "0x0",
        "input": "0xe28ab277",
        "nonce": "0x102",
        "chainId": "0x13882"
      },
      "additionalContracts": [],
      "isFixedGasLimit": false
    },
    {
      "hash": "0x94f50b9946d8c06f51df687f700e221964e15f2ac454270055b209cf20a0c0ec",
      "transactionType": "CALL",
      "contractName": null,
      "contractAddress": "0x1eb65ef07b5a3b8f89fd851e078194e5d9e85f4b",
      "function": "addFeeToken(string)",
      "arguments": [
        "0x6a4dbc971533ba36bdc23ad70f5a7a12e064f4ae"
      ],
      "transaction": {
        "from": "0xe62ab4d111f968660c6b2188046f9b9ba53c4bae",
        "to": "0x1eb65ef07b5a3b8f89fd851e078194e5d9e85f4b",
        "gas": "0x2696b",
        "value": "0x0",
        "input": "0x12a6385f0000000000000000000000000000000000000000000000000000000000000020000000000000000000000000000000000000000000000000000000000000002a30783661346462633937313533336261333662646332336164373066356137613132653036346634616500000000000000000000000000000000000000000000",
        "nonce": "0x103",
        "chainId": "0x13882"
      },
      "additionalContracts": [],
      "isFixedGasLimit": false
    },
    {
      "hash": "0x7530a1c6d40d546435dd6d416dda732d2f25e78191a5fcb2079119f782d6005e",
      "transactionType": "CALL",
      "contractName": null,
      "contractAddress": "0x1eb65ef07b5a3b8f89fd851e078194e5d9e85f4b",
      "function": "setFeeMultiplier(uint8,uint256)",
      "arguments": [
        "0",
        "2"
      ],
      "transaction": {
        "from": "0xe62ab4d111f968660c6b2188046f9b9ba53c4bae",
        "to": "0x1eb65ef07b5a3b8f89fd851e078194e5d9e85f4b",
        "gas": "0x112e8",
        "value": "0x0",
        "input": "0x0ee24eb500000000000000000000000000000000000000000000000000000000000000000000000000000000000000000000000000000000000000000000000000000002",
        "nonce": "0x104",
        "chainId": "0x13882"
      },
      "additionalContracts": [],
      "isFixedGasLimit": false
    },
    {
      "hash": "0xf361d5ac9e713a9c9e2cb0e084335f9464f9f4ee9093a978d526360c754f6e52",
      "transactionType": "CALL",
      "contractName": null,
      "contractAddress": "0x1eb65ef07b5a3b8f89fd851e078194e5d9e85f4b",
      "function": "setFeeMultiplier(uint8,uint256)",
      "arguments": [
        "1",
        "10"
      ],
      "transaction": {
        "from": "0xe62ab4d111f968660c6b2188046f9b9ba53c4bae",
        "to": "0x1eb65ef07b5a3b8f89fd851e078194e5d9e85f4b",
        "gas": "0x11324",
        "value": "0x0",
        "input": "0x0ee24eb50000000000000000000000000000000000000000000000000000000000000001000000000000000000000000000000000000000000000000000000000000000a",
        "nonce": "0x105",
        "chainId": "0x13882"
      },
      "additionalContracts": [],
      "isFixedGasLimit": false
    },
    {
      "hash": "0xc521028d3c8f3b4e4b305e2b8c2d4f155010fc7d6623002ebeeeb7c02fb744c5",
      "transactionType": "CALL",
      "contractName": null,
      "contractAddress": "0x1eb65ef07b5a3b8f89fd851e078194e5d9e85f4b",
      "function": "setFeeMultiplier(uint8,uint256)",
      "arguments": [
        "2",
        "1"
      ],
      "transaction": {
        "from": "0xe62ab4d111f968660c6b2188046f9b9ba53c4bae",
        "to": "0x1eb65ef07b5a3b8f89fd851e078194e5d9e85f4b",
        "gas": "0x11346",
        "value": "0x0",
        "input": "0x0ee24eb500000000000000000000000000000000000000000000000000000000000000020000000000000000000000000000000000000000000000000000000000000001",
        "nonce": "0x106",
        "chainId": "0x13882"
      },
      "additionalContracts": [],
      "isFixedGasLimit": false
    },
    {
      "hash": "0x9818be277a333ec9e4e59b054708444d9cbc0a6122f85b5c10d46e3393d702d7",
      "transactionType": "CALL",
      "contractName": null,
      "contractAddress": "0x1eb65ef07b5a3b8f89fd851e078194e5d9e85f4b",
      "function": "setFeeMultiplier(uint8,uint256)",
      "arguments": [
        "3",
        "4"
      ],
      "transaction": {
        "from": "0xe62ab4d111f968660c6b2188046f9b9ba53c4bae",
        "to": "0x1eb65ef07b5a3b8f89fd851e078194e5d9e85f4b",
        "gas": "0x1041b",
        "value": "0x0",
        "input": "0x0ee24eb500000000000000000000000000000000000000000000000000000000000000030000000000000000000000000000000000000000000000000000000000000004",
        "nonce": "0x107",
        "chainId": "0x13882"
      },
      "additionalContracts": [],
      "isFixedGasLimit": false
    },
    {
      "hash": "0xd65fbad499af25441474ff79416fa2e19920add48ed84b27fe5f8c9a6470e650",
      "transactionType": "CALL",
      "contractName": null,
      "contractAddress": "0x1eb65ef07b5a3b8f89fd851e078194e5d9e85f4b",
      "function": "setFeeMultiplier(uint8,uint256)",
      "arguments": [
        "4",
        "4"
      ],
      "transaction": {
        "from": "0xe62ab4d111f968660c6b2188046f9b9ba53c4bae",
        "to": "0x1eb65ef07b5a3b8f89fd851e078194e5d9e85f4b",
        "gas": "0x1043a",
        "value": "0x0",
        "input": "0x0ee24eb500000000000000000000000000000000000000000000000000000000000000040000000000000000000000000000000000000000000000000000000000000004",
        "nonce": "0x108",
        "chainId": "0x13882"
      },
      "additionalContracts": [],
      "isFixedGasLimit": false
    },
    {
      "hash": "0x104f4346e9464b8666699344aa14f57734d79272fc0cbb6f36426c0955e76fe4",
      "transactionType": "CALL",
      "contractName": null,
      "contractAddress": "0x1eb65ef07b5a3b8f89fd851e078194e5d9e85f4b",
      "function": "setFeeMultiplier(uint8,uint256)",
      "arguments": [
        "5",
        "8"
      ],
      "transaction": {
        "from": "0xe62ab4d111f968660c6b2188046f9b9ba53c4bae",
        "to": "0x1eb65ef07b5a3b8f89fd851e078194e5d9e85f4b",
        "gas": "0x10459",
        "value": "0x0",
        "input": "0x0ee24eb500000000000000000000000000000000000000000000000000000000000000050000000000000000000000000000000000000000000000000000000000000008",
        "nonce": "0x109",
        "chainId": "0x13882"
      },
      "additionalContracts": [],
      "isFixedGasLimit": false
    },
    {
      "hash": "0x2e92f052f8575ded95866c876acf818251441caa46e8029db2d966051e02855c",
      "transactionType": "CALL",
      "contractName": null,
      "contractAddress": "0x1eb65ef07b5a3b8f89fd851e078194e5d9e85f4b",
      "function": "setFeeMultiplier(uint8,uint256)",
      "arguments": [
        "6",
        "4"
      ],
      "transaction": {
        "from": "0xe62ab4d111f968660c6b2188046f9b9ba53c4bae",
        "to": "0x1eb65ef07b5a3b8f89fd851e078194e5d9e85f4b",
        "gas": "0x1047a",
        "value": "0x0",
        "input": "0x0ee24eb500000000000000000000000000000000000000000000000000000000000000060000000000000000000000000000000000000000000000000000000000000004",
        "nonce": "0x10a",
        "chainId": "0x13882"
      },
      "additionalContracts": [],
      "isFixedGasLimit": false
    },
    {
      "hash": "0x2dca67176723031193590357f0098a154fa66236eef354747ba411bafda0207f",
      "transactionType": "CALL",
      "contractName": null,
      "contractAddress": "0x1eb65ef07b5a3b8f89fd851e078194e5d9e85f4b",
      "function": "setFeeMultiplier(uint8,uint256)",
      "arguments": [
        "7",
        "10"
      ],
      "transaction": {
        "from": "0xe62ab4d111f968660c6b2188046f9b9ba53c4bae",
        "to": "0x1eb65ef07b5a3b8f89fd851e078194e5d9e85f4b",
        "gas": "0x10499",
        "value": "0x0",
        "input": "0x0ee24eb50000000000000000000000000000000000000000000000000000000000000007000000000000000000000000000000000000000000000000000000000000000a",
        "nonce": "0x10b",
        "chainId": "0x13882"
      },
      "additionalContracts": [],
      "isFixedGasLimit": false
    },
    {
      "hash": "0xeda95b9a6ee317a922a68c7b6dba325bd96ac2013ad5b8e9d039cf4e743d7e77",
      "transactionType": "CALL",
      "contractName": null,
      "contractAddress": "0x1eb65ef07b5a3b8f89fd851e078194e5d9e85f4b",
      "function": "setFeeMultiplier(uint8,uint256)",
      "arguments": [
        "8",
        "8"
      ],
      "transaction": {
        "from": "0xe62ab4d111f968660c6b2188046f9b9ba53c4bae",
        "to": "0x1eb65ef07b5a3b8f89fd851e078194e5d9e85f4b",
        "gas": "0x1140f",
        "value": "0x0",
        "input": "0x0ee24eb500000000000000000000000000000000000000000000000000000000000000080000000000000000000000000000000000000000000000000000000000000008",
        "nonce": "0x10c",
        "chainId": "0x13882"
      },
      "additionalContracts": [],
      "isFixedGasLimit": false
    },
    {
      "hash": "0xf7a11b4b3e266ba139117df482d6679bd4afc2f05e383f054b0094c50a480c56",
      "transactionType": "CALL",
      "contractName": null,
      "contractAddress": "0x1eb65ef07b5a3b8f89fd851e078194e5d9e85f4b",
      "function": "setFeeMultiplier(uint8,uint256)",
      "arguments": [
        "9",
        "8"
      ],
      "transaction": {
        "from": "0xe62ab4d111f968660c6b2188046f9b9ba53c4bae",
        "to": "0x1eb65ef07b5a3b8f89fd851e078194e5d9e85f4b",
        "gas": "0x11431",
        "value": "0x0",
        "input": "0x0ee24eb500000000000000000000000000000000000000000000000000000000000000090000000000000000000000000000000000000000000000000000000000000008",
        "nonce": "0x10d",
        "chainId": "0x13882"
      },
      "additionalContracts": [],
      "isFixedGasLimit": false
    },
    {
      "hash": "0x9c9ef19913b6f6dd5f50f3f6f5dfb80fd5b4589d7df03a5f86c87e6c6ee21f76",
      "transactionType": "CALL",
      "contractName": null,
      "contractAddress": "0x1eb65ef07b5a3b8f89fd851e078194e5d9e85f4b",
      "function": "setFeeMultiplier(uint8,uint256)",
      "arguments": [
        "10",
        "8"
      ],
      "transaction": {
        "from": "0xe62ab4d111f968660c6b2188046f9b9ba53c4bae",
        "to": "0x1eb65ef07b5a3b8f89fd851e078194e5d9e85f4b",
        "gas": "0x11453",
        "value": "0x0",
        "input": "0x0ee24eb5000000000000000000000000000000000000000000000000000000000000000a0000000000000000000000000000000000000000000000000000000000000008",
        "nonce": "0x10e",
        "chainId": "0x13882"
      },
      "additionalContracts": [],
      "isFixedGasLimit": false
    },
    {
      "hash": "0x76bc0106109f1e851c1f9b98e4f1f9a0b826cfd2ff0b939fd5ed5571587921f6",
      "transactionType": "CALL",
      "contractName": null,
      "contractAddress": "0x1eb65ef07b5a3b8f89fd851e078194e5d9e85f4b",
      "function": "setFeeMultiplier(uint8,uint256)",
      "arguments": [
        "11",
        "20"
      ],
      "transaction": {
        "from": "0xe62ab4d111f968660c6b2188046f9b9ba53c4bae",
        "to": "0x1eb65ef07b5a3b8f89fd851e078194e5d9e85f4b",
        "gas": "0x10518",
        "value": "0x0",
        "input": "0x0ee24eb5000000000000000000000000000000000000000000000000000000000000000b0000000000000000000000000000000000000000000000000000000000000014",
        "nonce": "0x10f",
        "chainId": "0x13882"
      },
      "additionalContracts": [],
      "isFixedGasLimit": false
    },
    {
      "hash": "0xa55536dded57b839f919d7b5b86fd3d5e70f3e3a50e5b4948b3b262ba93dbe39",
      "transactionType": "CALL",
      "contractName": null,
      "contractAddress": "0x1eb65ef07b5a3b8f89fd851e078194e5d9e85f4b",
      "function": "setFeeMultiplier(uint8,uint256)",
      "arguments": [
        "12",
        "8"
      ],
      "transaction": {
        "from": "0xe62ab4d111f968660c6b2188046f9b9ba53c4bae",
        "to": "0x1eb65ef07b5a3b8f89fd851e078194e5d9e85f4b",
        "gas": "0x10538",
        "value": "0x0",
        "input": "0x0ee24eb5000000000000000000000000000000000000000000000000000000000000000c0000000000000000000000000000000000000000000000000000000000000008",
        "nonce": "0x110",
        "chainId": "0x13882"
      },
      "additionalContracts": [],
      "isFixedGasLimit": false
    },
    {
      "hash": "0x3a5117e6553dc7e1e317a78721abdaef5c05b4f0c2592a8a0c37aeb421f5adc2",
      "transactionType": "CALL",
      "contractName": null,
      "contractAddress": "0x1eb65ef07b5a3b8f89fd851e078194e5d9e85f4b",
      "function": "setFeeMultiplier(uint8,uint256)",
      "arguments": [
        "13",
        "4"
      ],
      "transaction": {
        "from": "0xe62ab4d111f968660c6b2188046f9b9ba53c4bae",
        "to": "0x1eb65ef07b5a3b8f89fd851e078194e5d9e85f4b",
        "gas": "0x10558",
        "value": "0x0",
        "input": "0x0ee24eb5000000000000000000000000000000000000000000000000000000000000000d0000000000000000000000000000000000000000000000000000000000000004",
        "nonce": "0x111",
        "chainId": "0x13882"
      },
      "additionalContracts": [],
      "isFixedGasLimit": false
    },
    {
      "hash": "0x63cb365459d6e30775059439b04a69171272ddd08ce9b0e03022b8d7f4607721",
      "transactionType": "CALL",
      "contractName": null,
      "contractAddress": "0x1eb65ef07b5a3b8f89fd851e078194e5d9e85f4b",
      "function": "setFeeMultiplier(uint8,uint256)",
      "arguments": [
        "14",
        "4"
      ],
      "transaction": {
        "from": "0xe62ab4d111f968660c6b2188046f9b9ba53c4bae",
        "to": "0x1eb65ef07b5a3b8f89fd851e078194e5d9e85f4b",
        "gas": "0x10577",
        "value": "0x0",
        "input": "0x0ee24eb5000000000000000000000000000000000000000000000000000000000000000e0000000000000000000000000000000000000000000000000000000000000004",
        "nonce": "0x112",
        "chainId": "0x13882"
      },
      "additionalContracts": [],
      "isFixedGasLimit": false
    },
    {
      "hash": "0x7d51117b542d18a513104cb4d410bd4948e46ee251ede942113492f7f0af6bae",
      "transactionType": "CALL",
      "contractName": null,
      "contractAddress": "0x1eb65ef07b5a3b8f89fd851e078194e5d9e85f4b",
      "function": "setFeeMultiplier(uint8,uint256)",
      "arguments": [
        "15",
        "4"
      ],
      "transaction": {
        "from": "0xe62ab4d111f968660c6b2188046f9b9ba53c4bae",
        "to": "0x1eb65ef07b5a3b8f89fd851e078194e5d9e85f4b",
        "gas": "0x10598",
        "value": "0x0",
        "input": "0x0ee24eb5000000000000000000000000000000000000000000000000000000000000000f0000000000000000000000000000000000000000000000000000000000000004",
        "nonce": "0x113",
        "chainId": "0x13882"
      },
      "additionalContracts": [],
      "isFixedGasLimit": false
    },
    {
      "hash": "0x524988b8ea16ab0a5ab20d6c9460f221239c6de819b4a111bbf862def135c09b",
      "transactionType": "CALL",
      "contractName": null,
      "contractAddress": "0x1eb65ef07b5a3b8f89fd851e078194e5d9e85f4b",
      "function": "setFeeMultiplier(uint8,uint256)",
      "arguments": [
        "16",
        "2"
      ],
      "transaction": {
        "from": "0xe62ab4d111f968660c6b2188046f9b9ba53c4bae",
        "to": "0x1eb65ef07b5a3b8f89fd851e078194e5d9e85f4b",
        "gas": "0x105b0",
        "value": "0x0",
        "input": "0x0ee24eb500000000000000000000000000000000000000000000000000000000000000100000000000000000000000000000000000000000000000000000000000000002",
        "nonce": "0x114",
        "chainId": "0x13882"
      },
      "additionalContracts": [],
      "isFixedGasLimit": false
    },
    {
      "hash": "0x2663246d5e10b9609e45a8260891587b14922220528f55b8b06f1c5678cc9452",
      "transactionType": "CALL",
      "contractName": null,
      "contractAddress": "0x1eb65ef07b5a3b8f89fd851e078194e5d9e85f4b",
      "function": "addFeeToken(string,string[],uint256[])",
      "arguments": [
        "421614",
        "[0x6a4dbc971533ba36bdc23ad70f5a7a12e064f4ae]",
        "[100]"
      ],
      "transaction": {
        "from": "0xe62ab4d111f968660c6b2188046f9b9ba53c4bae",
        "to": "0x1eb65ef07b5a3b8f89fd851e078194e5d9e85f4b",
        "gas": "0x2f631",
        "value": "0x0",
        "input": "0x437bf84f000000000000000000000000000000000000000000000000000000000000006000000000000000000000000000000000000000000000000000000000000000a000000000000000000000000000000000000000000000000000000000000001400000000000000000000000000000000000000000000000000000000000000006343231363134000000000000000000000000000000000000000000000000000000000000000000000000000000000000000000000000000000000000000000010000000000000000000000000000000000000000000000000000000000000020000000000000000000000000000000000000000000000000000000000000002a3078366134646263393731353333626133366264633233616437306635613761313265303634663461650000000000000000000000000000000000000000000000000000000000000000000000000000000000000000000000000000000000010000000000000000000000000000000000000000000000000000000000000064",
        "nonce": "0x115",
        "chainId": "0x13882"
      },
      "additionalContracts": [],
      "isFixedGasLimit": false
    },
    {
      "hash": "0x7d8b2dcc6d2634f8e8b39287f5ef86f09796c3525f08cedf457578bda41b1ba7",
      "transactionType": "CALL",
      "contractName": null,
      "contractAddress": "0x1eb65ef07b5a3b8f89fd851e078194e5d9e85f4b",
      "function": "addFeeToken(string,string[],uint256[])",
      "arguments": [
        "80002",
        "[0x6a4dbc971533ba36bdc23ad70f5a7a12e064f4ae]",
        "[100]"
      ],
      "transaction": {
        "from": "0xe62ab4d111f968660c6b2188046f9b9ba53c4bae",
        "to": "0x1eb65ef07b5a3b8f89fd851e078194e5d9e85f4b",
        "gas": "0x2a2a1",
        "value": "0x0",
        "input": "0x437bf84f000000000000000000000000000000000000000000000000000000000000006000000000000000000000000000000000000000000000000000000000000000a000000000000000000000000000000000000000000000000000000000000001400000000000000000000000000000000000000000000000000000000000000005383030303200000000000000000000000000000000000000000000000000000000000000000000000000000000000000000000000000000000000000000000010000000000000000000000000000000000000000000000000000000000000020000000000000000000000000000000000000000000000000000000000000002a3078366134646263393731353333626133366264633233616437306635613761313265303634663461650000000000000000000000000000000000000000000000000000000000000000000000000000000000000000000000000000000000010000000000000000000000000000000000000000000000000000000000000064",
        "nonce": "0x116",
        "chainId": "0x13882"
      },
      "additionalContracts": [],
      "isFixedGasLimit": false
    },
    {
      "hash": "0xa035856ba2b19ef5f541bafa60bc15f0614e74b60c5507b3260cf3d463b39d02",
      "transactionType": "CALL",
      "contractName": null,
      "contractAddress": "0x1eb65ef07b5a3b8f89fd851e078194e5d9e85f4b",
      "function": "addFeeToken(string,string[],uint256[])",
      "arguments": [
        "84532",
        "[0x6a4dbc971533ba36bdc23ad70f5a7a12e064f4ae]",
        "[100]"
      ],
      "transaction": {
        "from": "0xe62ab4d111f968660c6b2188046f9b9ba53c4bae",
        "to": "0x1eb65ef07b5a3b8f89fd851e078194e5d9e85f4b",
        "gas": "0x2a2a1",
        "value": "0x0",
        "input": "0x437bf84f000000000000000000000000000000000000000000000000000000000000006000000000000000000000000000000000000000000000000000000000000000a000000000000000000000000000000000000000000000000000000000000001400000000000000000000000000000000000000000000000000000000000000005383435333200000000000000000000000000000000000000000000000000000000000000000000000000000000000000000000000000000000000000000000010000000000000000000000000000000000000000000000000000000000000020000000000000000000000000000000000000000000000000000000000000002a3078366134646263393731353333626133366264633233616437306635613761313265303634663461650000000000000000000000000000000000000000000000000000000000000000000000000000000000000000000000000000000000010000000000000000000000000000000000000000000000000000000000000064",
        "nonce": "0x117",
        "chainId": "0x13882"
      },
      "additionalContracts": [],
      "isFixedGasLimit": false
    },
    {
      "hash": "0x4054db0554423ebc0f8d6ba8321c6d90fb6bd0d55b1cea7c58dfd0fed4c84b29",
      "transactionType": "CALL",
      "contractName": null,
      "contractAddress": "0x1eb65ef07b5a3b8f89fd851e078194e5d9e85f4b",
      "function": "addFeeToken(string,string[],uint256[])",
      "arguments": [
        "97",
        "[0x6a4dbc971533ba36bdc23ad70f5a7a12e064f4ae]",
        "[100]"
      ],
      "transaction": {
        "from": "0xe62ab4d111f968660c6b2188046f9b9ba53c4bae",
        "to": "0x1eb65ef07b5a3b8f89fd851e078194e5d9e85f4b",
        "gas": "0x29c5a",
        "value": "0x0",
        "input": "0x437bf84f000000000000000000000000000000000000000000000000000000000000006000000000000000000000000000000000000000000000000000000000000000a000000000000000000000000000000000000000000000000000000000000001400000000000000000000000000000000000000000000000000000000000000002393700000000000000000000000000000000000000000000000000000000000000000000000000000000000000000000000000000000000000000000000000010000000000000000000000000000000000000000000000000000000000000020000000000000000000000000000000000000000000000000000000000000002a3078366134646263393731353333626133366264633233616437306635613761313265303634663461650000000000000000000000000000000000000000000000000000000000000000000000000000000000000000000000000000000000010000000000000000000000000000000000000000000000000000000000000064",
        "nonce": "0x118",
        "chainId": "0x13882"
      },
      "additionalContracts": [],
      "isFixedGasLimit": false
    },
    {
      "hash": "0x61f7c98e42bbbca44f799babb0ec9e07471fde85e7ddb1416b24cc043be41166",
      "transactionType": "CALL",
      "contractName": null,
      "contractAddress": "0x1eb65ef07b5a3b8f89fd851e078194e5d9e85f4b",
      "function": "addFeeToken(string,string[],uint256[])",
      "arguments": [
        "11155111",
        "[0x6a4dbc971533ba36bdc23ad70f5a7a12e064f4ae]",
        "[100]"
      ],
      "transaction": {
        "from": "0xe62ab4d111f968660c6b2188046f9b9ba53c4bae",
        "to": "0x1eb65ef07b5a3b8f89fd851e078194e5d9e85f4b",
        "gas": "0x2a8e9",
        "value": "0x0",
        "input": "0x437bf84f000000000000000000000000000000000000000000000000000000000000006000000000000000000000000000000000000000000000000000000000000000a000000000000000000000000000000000000000000000000000000000000001400000000000000000000000000000000000000000000000000000000000000008313131353531313100000000000000000000000000000000000000000000000000000000000000000000000000000000000000000000000000000000000000010000000000000000000000000000000000000000000000000000000000000020000000000000000000000000000000000000000000000000000000000000002a3078366134646263393731353333626133366264633233616437306635613761313265303634663461650000000000000000000000000000000000000000000000000000000000000000000000000000000000000000000000000000000000010000000000000000000000000000000000000000000000000000000000000064",
        "nonce": "0x119",
        "chainId": "0x13882"
      },
      "additionalContracts": [],
      "isFixedGasLimit": false
    },
    {
      "hash": "0x13bf241e3b087a96b94efe4f542d30de0b88b48ff1445f767f6ee2ea2037fc31",
      "transactionType": "CALL",
      "contractName": null,
      "contractAddress": "0xf97c2b87a7193b7800f50fc402e8f999bf1bf3e4",
      "function": "addChainContract(string[],string[])",
      "arguments": [
        "[421614, 84532, 97, 11155111]",
        "[0xb81d017b3606a7e6eba0049de9f0ea0e4a1d90dd, 0x7635a9b23275892ac46479b7ead9831a80171ace, 0xb64a86e7f8d84b2cd88535bdaac6d19c87754024, 0x699de1ff83fad8c40aea628975e1b3ee71dcfb56]"
      ],
      "transaction": {
        "from": "0xe62ab4d111f968660c6b2188046f9b9ba53c4bae",
        "to": "0xf97c2b87a7193b7800f50fc402e8f999bf1bf3e4",
        "gas": "0xaa5df",
        "value": "0x0",
        "input": "0x013fd3bd000000000000000000000000000000000000000000000000000000000000004000000000000000000000000000000000000000000000000000000000000001e00000000000000000000000000000000000000000000000000000000000000004000000000000000000000000000000000000000000000000000000000000008000000000000000000000000000000000000000000000000000000000000000c000000000000000000000000000000000000000000000000000000000000001000000000000000000000000000000000000000000000000000000000000000140000000000000000000000000000000000000000000000000000000000000000634323136313400000000000000000000000000000000000000000000000000000000000000000000000000000000000000000000000000000000000000000005383435333200000000000000000000000000000000000000000000000000000000000000000000000000000000000000000000000000000000000000000000023937000000000000000000000000000000000000000000000000000000000000000000000000000000000000000000000000000000000000000000000000000831313135353131310000000000000000000000000000000000000000000000000000000000000000000000000000000000000000000000000000000000000004000000000000000000000000000000000000000000000000000000000000008000000000000000000000000000000000000000000000000000000000000000e0000000000000000000000000000000000000000000000000000000000000014000000000000000000000000000000000000000000000000000000000000001a0000000000000000000000000000000000000000000000000000000000000002a30786238316430313762333630366137653665626130303439646539663065613065346131643930646400000000000000000000000000000000000000000000000000000000000000000000000000000000000000000000000000000000002a30783736333561396232333237353839326163343634373962376561643938333161383031373161636500000000000000000000000000000000000000000000000000000000000000000000000000000000000000000000000000000000002a30786236346138366537663864383462326364383835333562646161633664313963383737353430323400000000000000000000000000000000000000000000000000000000000000000000000000000000000000000000000000000000002a30783639396465316666383366616438633430616561363238393735653162336565373164636662353600000000000000000000000000000000000000000000",
        "nonce": "0x11a",
        "chainId": "0x13882"
      },
      "additionalContracts": [],
      "isFixedGasLimit": false
    },
    {
      "hash": "0x6b76699f3f4110c39f3b240292282131cb4e7877474f9fd9f6fee2442c78c23e",
      "transactionType": "CALL",
      "contractName": null,
      "contractAddress": "0xf97c2b87a7193b7800f50fc402e8f999bf1bf3e4",
      "function": "attachRWAX(uint256,uint256,string[],string[])",
      "arguments": [
        "1",
        "1",
        "[80002, 421614, 84532, 97, 11155111]",
        "[0xb008b6cc593fc290ed03d5011e90f4e9d19f9a87, 0xd06cda2c8f2258ceec5efb8c6371f54d7853480e, 0x6187ee058bb5b7db140cfd470a27ebe1f16d92b1, 0xcff54249dae66746377e15c07d95c42188d5d3a8, 0xb37c81d6f90a16bbd778886af49abebfd1ad02c7]"
      ],
      "transaction": {
        "from": "0xe62ab4d111f968660c6b2188046f9b9ba53c4bae",
        "to": "0xf97c2b87a7193b7800f50fc402e8f999bf1bf3e4",
        "gas": "0xe3ea8",
        "value": "0x0",
        "input": "0x33a5f5b40000000000000000000000000000000000000000000000000000000000000001000000000000000000000000000000000000000000000000000000000000000100000000000000000000000000000000000000000000000000000000000000800000000000000000000000000000000000000000000000000000000000000280000000000000000000000000000000000000000000000000000000000000000500000000000000000000000000000000000000000000000000000000000000a000000000000000000000000000000000000000000000000000000000000000e00000000000000000000000000000000000000000000000000000000000000120000000000000000000000000000000000000000000000000000000000000016000000000000000000000000000000000000000000000000000000000000001a00000000000000000000000000000000000000000000000000000000000000005383030303200000000000000000000000000000000000000000000000000000000000000000000000000000000000000000000000000000000000000000000063432313631340000000000000000000000000000000000000000000000000000000000000000000000000000000000000000000000000000000000000000000538343533320000000000000000000000000000000000000000000000000000000000000000000000000000000000000000000000000000000000000000000002393700000000000000000000000000000000000000000000000000000000000000000000000000000000000000000000000000000000000000000000000000083131313535313131000000000000000000000000000000000000000000000000000000000000000000000000000000000000000000000000000000000000000500000000000000000000000000000000000000000000000000000000000000a00000000000000000000000000000000000000000000000000000000000000100000000000000000000000000000000000000000000000000000000000000016000000000000000000000000000000000000000000000000000000000000001c00000000000000000000000000000000000000000000000000000000000000220000000000000000000000000000000000000000000000000000000000000002a30786230303862366363353933666332393065643033643530313165393066346539643139663961383700000000000000000000000000000000000000000000000000000000000000000000000000000000000000000000000000000000002a30786430366364613263386632323538636565633565666238633633373166353464373835333438306500000000000000000000000000000000000000000000000000000000000000000000000000000000000000000000000000000000002a30783631383765653035386262356237646231343063666434373061323765626531663136643932623100000000000000000000000000000000000000000000000000000000000000000000000000000000000000000000000000000000002a30786366663534323439646165363637343633373765313563303764393563343231383864356433613800000000000000000000000000000000000000000000000000000000000000000000000000000000000000000000000000000000002a30786233376338316436663930613136626264373738383836616634396162656266643161643032633700000000000000000000000000000000000000000000",
        "nonce": "0x11b",
        "chainId": "0x13882"
      },
      "additionalContracts": [],
      "isFixedGasLimit": false
    },
    {
      "hash": "0x270d28bc7eb463a2c19dfeb2a9dcc643f1ee48848fcec6e115314c62d08ef59c",
      "transactionType": "CALL",
      "contractName": null,
      "contractAddress": "0xf97c2b87a7193b7800f50fc402e8f999bf1bf3e4",
      "function": "attachStorageManager(uint256,uint256,string[],string[])",
      "arguments": [
        "1",
        "1",
        "[80002, 421614, 84532, 97, 11155111]",
        "[0xd4bd9bba2fb97c36bbd619303cab636f476f8904, 0x298c11661856dc1194c578ecd2c230eb4fa433a0, 0x4f6af153614d50051bad6f3e76110f959817738f, 0x0156a74fd9432446030f47f7c55f4d1fbfdf5e9a, 0x563c5c85cc7ba923c50b66479588e5b3b2c93470]"
      ],
      "transaction": {
        "from": "0xe62ab4d111f968660c6b2188046f9b9ba53c4bae",
        "to": "0xf97c2b87a7193b7800f50fc402e8f999bf1bf3e4",
        "gas": "0xd6c94",
        "value": "0x0",
        "input": "0x2f68b4890000000000000000000000000000000000000000000000000000000000000001000000000000000000000000000000000000000000000000000000000000000100000000000000000000000000000000000000000000000000000000000000800000000000000000000000000000000000000000000000000000000000000280000000000000000000000000000000000000000000000000000000000000000500000000000000000000000000000000000000000000000000000000000000a000000000000000000000000000000000000000000000000000000000000000e00000000000000000000000000000000000000000000000000000000000000120000000000000000000000000000000000000000000000000000000000000016000000000000000000000000000000000000000000000000000000000000001a00000000000000000000000000000000000000000000000000000000000000005383030303200000000000000000000000000000000000000000000000000000000000000000000000000000000000000000000000000000000000000000000063432313631340000000000000000000000000000000000000000000000000000000000000000000000000000000000000000000000000000000000000000000538343533320000000000000000000000000000000000000000000000000000000000000000000000000000000000000000000000000000000000000000000002393700000000000000000000000000000000000000000000000000000000000000000000000000000000000000000000000000000000000000000000000000083131313535313131000000000000000000000000000000000000000000000000000000000000000000000000000000000000000000000000000000000000000500000000000000000000000000000000000000000000000000000000000000a00000000000000000000000000000000000000000000000000000000000000100000000000000000000000000000000000000000000000000000000000000016000000000000000000000000000000000000000000000000000000000000001c00000000000000000000000000000000000000000000000000000000000000220000000000000000000000000000000000000000000000000000000000000002a30786434626439626261326662393763333662626436313933303363616236333666343736663839303400000000000000000000000000000000000000000000000000000000000000000000000000000000000000000000000000000000002a30783239386331313636313835366463313139346335373865636432633233306562346661343333613000000000000000000000000000000000000000000000000000000000000000000000000000000000000000000000000000000000002a30783466366166313533363134643530303531626164366633653736313130663935393831373733386600000000000000000000000000000000000000000000000000000000000000000000000000000000000000000000000000000000002a30783031353661373466643934333234343630333066343766376335356634643166626664663565396100000000000000000000000000000000000000000000000000000000000000000000000000000000000000000000000000000000002a30783536336335633835636337626139323363353062363634373935383865356233623263393334373000000000000000000000000000000000000000000000",
        "nonce": "0x11c",
        "chainId": "0x13882"
      },
      "additionalContracts": [],
      "isFixedGasLimit": false
    }
  ],
  "receipts": [
    {
      "status": "0x1",
      "cumulativeGasUsed": "0x254b5",
      "logs": [
        {
          "address": "0x0000000000000000000000000000000000001010",
          "topics": [
            "0x4dfe1bbbcf077ddc3e01291eea2d5c70c2b422b415d95645b9adcfd678cb1d63",
            "0x0000000000000000000000000000000000000000000000000000000000001010",
            "0x000000000000000000000000e62ab4d111f968660c6b2188046f9b9ba53c4bae",
            "0x0000000000000000000000004631753190f2f5a15a7ba172bbac102b7d95fa22"
          ],
          "data": "0x000000000000000000000000000000000000000000000000000319c27a86f03200000000000000000000000000000000000000000000000255f9ac4d065b1df800000000000000000000000000000000000000000000030bbc686294ea7b684b00000000000000000000000000000000000000000000000255f6928a8bd42dc600000000000000000000000000000000000000000000030bbc6b7c576502587d",
          "blockHash": "0xd947f936b02c21d7cdd25a4ae33027bf7a7db836a6b95392fa3d84270dc88437",
          "blockNumber": "0xdf5950",
          "transactionHash": "0x29d6785410362581e7a50c243e2081f106e9349b8c0425608ace969f775dbb80",
          "transactionIndex": "0x1",
          "logIndex": "0x3",
          "removed": false
        }
      ],
      "logsBloom": "0x20000000000000000004000000000000000000002000000000000000000000000000000000000000000000000000000000008000000000000000000040000000000000000000000000000000000000800000000000000000000100000000000000000000000000100000000000000000000000000000000080000000000000000000000000000000000000000000040000000000000000000000000000000000200000000000000000000000000000000000000000000000000000000000004000000000000000000001000000000000000000000000000000100000000000000000000000000000000000000000000000000000000000000000000000100000",
      "type": "0x2",
      "transactionHash": "0x29d6785410362581e7a50c243e2081f106e9349b8c0425608ace969f775dbb80",
      "transactionIndex": "0x1",
      "blockHash": "0xd947f936b02c21d7cdd25a4ae33027bf7a7db836a6b95392fa3d84270dc88437",
      "blockNumber": "0xdf5950",
      "gasUsed": "0x5eb3",
      "effectiveGasPrice": "0x861c46815",
      "from": "0xe62ab4d111f968660c6b2188046f9b9ba53c4bae",
      "to": "0x1eb65ef07b5a3b8f89fd851e078194e5d9e85f4b",
      "contractAddress": null
    },
    {
      "status": "0x1",
      "cumulativeGasUsed": "0x1bf00",
      "logs": [
        {
          "address": "0x1eb65ef07b5a3b8f89fd851e078194e5d9e85f4b",
          "topics": [
            "0x1394cfab38f3fc78ed77ea6f9318782a446d96e7dc8e9a6b0149f6be25c08bcf",
            "0x0000000000000000000000006a4dbc971533ba36bdc23ad70f5a7a12e064f4ae"
          ],
          "data": "0x",
          "blockHash": "0xe236afa6bb7f0271d36e7f3601cbaf0fce127f23c49cc8c212759f82440f29da",
          "blockNumber": "0xdf5953",
          "transactionHash": "0x94f50b9946d8c06f51df687f700e221964e15f2ac454270055b209cf20a0c0ec",
          "transactionIndex": "0x0",
          "logIndex": "0x0",
          "removed": false
        },
        {
          "address": "0x0000000000000000000000000000000000001010",
          "topics": [
            "0x4dfe1bbbcf077ddc3e01291eea2d5c70c2b422b415d95645b9adcfd678cb1d63",
            "0x0000000000000000000000000000000000000000000000000000000000001010",
            "0x000000000000000000000000e62ab4d111f968660c6b2188046f9b9ba53c4bae",
            "0x0000000000000000000000004631753190f2f5a15a7ba172bbac102b7d95fa22"
          ],
          "data": "0x000000000000000000000000000000000000000000000000000ea2b5f1a27a0000000000000000000000000000000000000000000000000255f6928a8bcea14900000000000000000000000000000000000000000000030bbccc1e3b2a303fcc00000000000000000000000000000000000000000000000255e7efd49a2c274900000000000000000000000000000000000000000000030bbcdac0f11bd2b9cc",
          "blockHash": "0xe236afa6bb7f0271d36e7f3601cbaf0fce127f23c49cc8c212759f82440f29da",
          "blockNumber": "0xdf5953",
          "transactionHash": "0x94f50b9946d8c06f51df687f700e221964e15f2ac454270055b209cf20a0c0ec",
          "transactionIndex": "0x0",
          "logIndex": "0x1",
          "removed": false
        }
      ],
      "logsBloom": "0x20000000000000000004000000000000000200002000000000000000000000000000000000000000000000020000000000008000000000001000000040000000000000000000000000000000000000800000001000000000000100000000000000000000000000100000000000000000000000000000000080000000000000000000000100000000000000000000040000000000000000000000000000000000240000000000000000000000000000000000000100000000000000000000004000000000000000000001000000004000000000002000000000100000000000000000000000000000000000000000000000000000000000000000000000100000",
      "type": "0x2",
      "transactionHash": "0x94f50b9946d8c06f51df687f700e221964e15f2ac454270055b209cf20a0c0ec",
      "transactionIndex": "0x0",
      "blockHash": "0xe236afa6bb7f0271d36e7f3601cbaf0fce127f23c49cc8c212759f82440f29da",
      "blockNumber": "0xdf5953",
      "gasUsed": "0x1bf00",
      "effectiveGasPrice": "0x861c46815",
      "from": "0xe62ab4d111f968660c6b2188046f9b9ba53c4bae",
      "to": "0x1eb65ef07b5a3b8f89fd851e078194e5d9e85f4b",
      "contractAddress": null
    },
    {
      "status": "0x1",
      "cumulativeGasUsed": "0xbbf9",
      "logs": [
        {
          "address": "0x0000000000000000000000000000000000001010",
          "topics": [
            "0x4dfe1bbbcf077ddc3e01291eea2d5c70c2b422b415d95645b9adcfd678cb1d63",
            "0x0000000000000000000000000000000000000000000000000000000000001010",
            "0x000000000000000000000000e62ab4d111f968660c6b2188046f9b9ba53c4bae",
            "0x0000000000000000000000004631753190f2f5a15a7ba172bbac102b7d95fa22"
          ],
          "data": "0x0000000000000000000000000000000000000000000000000006279190058fd600000000000000000000000000000000000000000000000255e7efd49a11f64900000000000000000000000000000000000000000000030bbcddb547126daa0c00000000000000000000000000000000000000000000000255e1c8430a0c667300000000000000000000000000000000000000000000030bbce3dcd8a27339e2",
          "blockHash": "0x9dc27ecf168467211711cdb1ede334221dffc3b8d89ece8f0980d09e8a5925bd",
          "blockNumber": "0xdf5957",
          "transactionHash": "0x7530a1c6d40d546435dd6d416dda732d2f25e78191a5fcb2079119f782d6005e",
          "transactionIndex": "0x0",
          "logIndex": "0x0",
          "removed": false
        }
      ],
      "logsBloom": "0x20000000000000000004000000000000000000002000000000000000000000000000000000000000000000000000000000008000000000000000000040000000000000000000000000000000000000800000000000000000000100000000000000000000000000100000000000000000000000000000000080000000000000000000000000000000000000000000040000000000000000000000000000000000200000000000000000000000000000000000000000000000000000000000004000000000000000000001000000000000000000000000000000100000000000000000000000000000000000000000000000000000000000000000000000100000",
      "type": "0x2",
      "transactionHash": "0x7530a1c6d40d546435dd6d416dda732d2f25e78191a5fcb2079119f782d6005e",
      "transactionIndex": "0x0",
      "blockHash": "0x9dc27ecf168467211711cdb1ede334221dffc3b8d89ece8f0980d09e8a5925bd",
      "blockNumber": "0xdf5957",
      "gasUsed": "0xbbf9",
      "effectiveGasPrice": "0x861c46815",
      "from": "0xe62ab4d111f968660c6b2188046f9b9ba53c4bae",
      "to": "0x1eb65ef07b5a3b8f89fd851e078194e5d9e85f4b",
      "contractAddress": null
    },
    {
      "status": "0x1",
      "cumulativeGasUsed": "0xbc22",
      "logs": [
        {
          "address": "0x0000000000000000000000000000000000001010",
          "topics": [
            "0x4dfe1bbbcf077ddc3e01291eea2d5c70c2b422b415d95645b9adcfd678cb1d63",
            "0x0000000000000000000000000000000000000000000000000000000000001010",
            "0x000000000000000000000000e62ab4d111f968660c6b2188046f9b9ba53c4bae",
            "0x0000000000000000000000004631753190f2f5a15a7ba172bbac102b7d95fa22"
          ],
          "data": "0x000000000000000000000000000000000000000000000000000628e9387a38cc00000000000000000000000000000000000000000000000255e1c8430a0162dc00000000000000000000000000000000000000000000030bbcfa623e06486f7200000000000000000000000000000000000000000000000255db9f59d1872a1000000000000000000000000000000000000000000000030bbd008b273ec2a83e",
          "blockHash": "0x589a794e0ddd0a86b46a1663dd0022639004f6128a8f75f25037ab7bd2092eab",
          "blockNumber": "0xdf595a",
          "transactionHash": "0xf361d5ac9e713a9c9e2cb0e084335f9464f9f4ee9093a978d526360c754f6e52",
          "transactionIndex": "0x0",
          "logIndex": "0x0",
          "removed": false
        }
      ],
      "logsBloom": "0x20000000000000000004000000000000000000002000000000000000000000000000000000000000000000000000000000008000000000000000000040000000000000000000000000000000000000800000000000000000000100000000000000000000000000100000000000000000000000000000000080000000000000000000000000000000000000000000040000000000000000000000000000000000200000000000000000000000000000000000000000000000000000000000004000000000000000000001000000000000000000000000000000100000000000000000000000000000000000000000000000000000000000000000000000100000",
      "type": "0x2",
      "transactionHash": "0xf361d5ac9e713a9c9e2cb0e084335f9464f9f4ee9093a978d526360c754f6e52",
      "transactionIndex": "0x0",
      "blockHash": "0x589a794e0ddd0a86b46a1663dd0022639004f6128a8f75f25037ab7bd2092eab",
      "blockNumber": "0xdf595a",
      "gasUsed": "0xbc22",
      "effectiveGasPrice": "0x861c46815",
      "from": "0xe62ab4d111f968660c6b2188046f9b9ba53c4bae",
      "to": "0x1eb65ef07b5a3b8f89fd851e078194e5d9e85f4b",
      "contractAddress": null
    },
    {
      "status": "0x1",
      "cumulativeGasUsed": "0xbc39",
      "logs": [
        {
          "address": "0x0000000000000000000000000000000000001010",
          "topics": [
            "0x4dfe1bbbcf077ddc3e01291eea2d5c70c2b422b415d95645b9adcfd678cb1d63",
            "0x0000000000000000000000000000000000000000000000000000000000001010",
            "0x000000000000000000000000e62ab4d111f968660c6b2188046f9b9ba53c4bae",
            "0x0000000000000000000000004631753190f2f5a15a7ba172bbac102b7d95fa22"
          ],
          "data": "0x000000000000000000000000000000000000000000000000000629aa011f915600000000000000000000000000000000000000000000000255db9f59d17c241200000000000000000000000000000000000000000000030bbd23be2858518a9200000000000000000000000000000000000000000000000255d575afd05c92bc00000000000000000000000000000000000000000000030bbd29e7d259711be8",
          "blockHash": "0x553d5b4568a6175019deafbffb347aeeb284f766e10aa10050fcb37cfd151220",
          "blockNumber": "0xdf595e",
          "transactionHash": "0xc521028d3c8f3b4e4b305e2b8c2d4f155010fc7d6623002ebeeeb7c02fb744c5",
          "transactionIndex": "0x0",
          "logIndex": "0x0",
          "removed": false
        }
      ],
      "logsBloom": "0x20000000000000000004000000000000000000002000000000000000000000000000000000000000000000000000000000008000000000000000000040000000000000000000000000000000000000800000000000000000000100000000000000000000000000100000000000000000000000000000000080000000000000000000000000000000000000000000040000000000000000000000000000000000200000000000000000000000000000000000000000000000000000000000004000000000000000000001000000000000000000000000000000100000000000000000000000000000000000000000000000000000000000000000000000100000",
      "type": "0x2",
      "transactionHash": "0xc521028d3c8f3b4e4b305e2b8c2d4f155010fc7d6623002ebeeeb7c02fb744c5",
      "transactionIndex": "0x0",
      "blockHash": "0x553d5b4568a6175019deafbffb347aeeb284f766e10aa10050fcb37cfd151220",
      "blockNumber": "0xdf595e",
      "gasUsed": "0xbc39",
      "effectiveGasPrice": "0x861c46815",
      "from": "0xe62ab4d111f968660c6b2188046f9b9ba53c4bae",
      "to": "0x1eb65ef07b5a3b8f89fd851e078194e5d9e85f4b",
      "contractAddress": null
    },
    {
      "status": "0x1",
      "cumulativeGasUsed": "0x1676c",
      "logs": [
        {
          "address": "0x0000000000000000000000000000000000001010",
          "topics": [
            "0x4dfe1bbbcf077ddc3e01291eea2d5c70c2b422b415d95645b9adcfd678cb1d63",
            "0x0000000000000000000000000000000000000000000000000000000000001010",
            "0x000000000000000000000000e62ab4d111f968660c6b2188046f9b9ba53c4bae",
            "0x0000000000000000000000004631753190f2f5a15a7ba172bbac102b7d95fa22"
          ],
          "data": "0x00000000000000000000000000000000000000000000000000062a6ac9c4e9e000000000000000000000000000000000000000000000000255d575afd0518b6500000000000000000000000000000000000000000000030bbd4be4973d8ab86c00000000000000000000000000000000000000000000000255cf4b45068ca18500000000000000000000000000000000000000000000030bbd520f02074fa24c",
          "blockHash": "0x9c92485060f54510186697a665e44eca7b95172be9561bd833df1662afed00a8",
          "blockNumber": "0xdf5961",
          "transactionHash": "0x9818be277a333ec9e4e59b054708444d9cbc0a6122f85b5c10d46e3393d702d7",
          "transactionIndex": "0x2",
          "logIndex": "0x3",
          "removed": false
        }
      ],
      "logsBloom": "0x20000000000000000004000000000000000000002000000000000000000000000000000000000000000000000000000000008000000000000000000040000000000000000000000000000000000000800000000000000000000100000000000000000000000000100000000000000000000000000000000080000000000000000000000000000000000000000000040000000000000000000000000000000000200000000000000000000000000000000000000000000000000000000000004000000000000000000001000000000000000000000000000000100000000000000000000000000000000000000000000000000000000000000000000000100000",
      "type": "0x2",
      "transactionHash": "0x9818be277a333ec9e4e59b054708444d9cbc0a6122f85b5c10d46e3393d702d7",
      "transactionIndex": "0x2",
      "blockHash": "0x9c92485060f54510186697a665e44eca7b95172be9561bd833df1662afed00a8",
      "blockNumber": "0xdf5961",
      "gasUsed": "0xbc50",
      "effectiveGasPrice": "0x861c46815",
      "from": "0xe62ab4d111f968660c6b2188046f9b9ba53c4bae",
      "to": "0x1eb65ef07b5a3b8f89fd851e078194e5d9e85f4b",
      "contractAddress": null
    },
    {
      "status": "0x1",
      "cumulativeGasUsed": "0x9913e",
      "logs": [
        {
          "address": "0x0000000000000000000000000000000000001010",
          "topics": [
            "0x4dfe1bbbcf077ddc3e01291eea2d5c70c2b422b415d95645b9adcfd678cb1d63",
            "0x0000000000000000000000000000000000000000000000000000000000001010",
            "0x000000000000000000000000e62ab4d111f968660c6b2188046f9b9ba53c4bae",
            "0x0000000000000000000000004631753190f2f5a15a7ba172bbac102b7d95fa22"
          ],
          "data": "0x00000000000000000000000000000000000000000000000000062b2b926a426a00000000000000000000000000000000000000000000000255cf4b45068198d500000000000000000000000000000000000000000000030bbdeac2ead264e47700000000000000000000000000000000000000000000000255c920197417566b00000000000000000000000000000000000000000000030bbdf0ee1664cf26e1",
          "blockHash": "0x2c08a93e0388836e9abea821f9a4a77d1607f8b3088d04073b9f12f772364317",
          "blockNumber": "0xdf5964",
          "transactionHash": "0xd65fbad499af25441474ff79416fa2e19920add48ed84b27fe5f8c9a6470e650",
          "transactionIndex": "0x2",
          "logIndex": "0x5",
          "removed": false
        }
      ],
      "logsBloom": "0x20000000000000000004000000000000000000002000000000000000000000000000000000000000000000000000000000008000000000000000000040000000000000000000000000000000000000800000000000000000000100000000000000000000000000100000000000000000000000000000000080000000000000000000000000000000000000000000040000000000000000000000000000000000200000000000000000000000000000000000000000000000000000000000004000000000000000000001000000000000000000000000000000100000000000000000000000000000000000000000000000000000000000000000000000100000",
      "type": "0x2",
      "transactionHash": "0xd65fbad499af25441474ff79416fa2e19920add48ed84b27fe5f8c9a6470e650",
      "transactionIndex": "0x2",
      "blockHash": "0x2c08a93e0388836e9abea821f9a4a77d1607f8b3088d04073b9f12f772364317",
      "blockNumber": "0xdf5964",
      "gasUsed": "0xbc67",
      "effectiveGasPrice": "0x861c46815",
      "from": "0xe62ab4d111f968660c6b2188046f9b9ba53c4bae",
      "to": "0x1eb65ef07b5a3b8f89fd851e078194e5d9e85f4b",
      "contractAddress": null
    },
    {
      "status": "0x1",
      "cumulativeGasUsed": "0xbc7e",
      "logs": [
        {
          "address": "0x0000000000000000000000000000000000001010",
          "topics": [
            "0x4dfe1bbbcf077ddc3e01291eea2d5c70c2b422b415d95645b9adcfd678cb1d63",
            "0x0000000000000000000000000000000000000000000000000000000000001010",
            "0x000000000000000000000000e62ab4d111f968660c6b2188046f9b9ba53c4bae",
            "0x0000000000000000000000004631753190f2f5a15a7ba172bbac102b7d95fa22"
          ],
          "data": "0x00000000000000000000000000000000000000000000000000062bec5b0f9af400000000000000000000000000000000000000000000000255c92019740c4c6200000000000000000000000000000000000000000000030bbe150e5fb456b4c300000000000000000000000000000000000000000000000255c2f42d18fcb16e00000000000000000000000000000000000000000000030bbe1b3a4c0f664fb7",
          "blockHash": "0xeafe93261cb489fb693ceb1749ce76787be87676bc0e4ea513076461f7b7c51a",
          "blockNumber": "0xdf5968",
          "transactionHash": "0x104f4346e9464b8666699344aa14f57734d79272fc0cbb6f36426c0955e76fe4",
          "transactionIndex": "0x0",
          "logIndex": "0x0",
          "removed": false
        }
      ],
      "logsBloom": "0x20000000000000000004000000000000000000002000000000000000000000000000000000000000000000000000000000008000000000000000000040000000000000000000000000000000000000800000000000000000000100000000000000000000000000100000000000000000000000000000000080000000000000000000000000000000000000000000040000000000000000000000000000000000200000000000000000000000000000000000000000000000000000000000004000000000000000000001000000000000000000000000000000100000000000000000000000000000000000000000000000000000000000000000000000100000",
      "type": "0x2",
      "transactionHash": "0x104f4346e9464b8666699344aa14f57734d79272fc0cbb6f36426c0955e76fe4",
      "transactionIndex": "0x0",
      "blockHash": "0xeafe93261cb489fb693ceb1749ce76787be87676bc0e4ea513076461f7b7c51a",
      "blockNumber": "0xdf5968",
      "gasUsed": "0xbc7e",
      "effectiveGasPrice": "0x861c46815",
      "from": "0xe62ab4d111f968660c6b2188046f9b9ba53c4bae",
      "to": "0x1eb65ef07b5a3b8f89fd851e078194e5d9e85f4b",
      "contractAddress": null
    },
    {
      "status": "0x1",
      "cumulativeGasUsed": "0xbc95",
      "logs": [
        {
          "address": "0x0000000000000000000000000000000000001010",
          "topics": [
            "0x4dfe1bbbcf077ddc3e01291eea2d5c70c2b422b415d95645b9adcfd678cb1d63",
            "0x0000000000000000000000000000000000000000000000000000000000001010",
            "0x000000000000000000000000e62ab4d111f968660c6b2188046f9b9ba53c4bae",
            "0x0000000000000000000000004631753190f2f5a15a7ba172bbac102b7d95fa22"
          ],
          "data": "0x00000000000000000000000000000000000000000000000000062cad23b4f37e00000000000000000000000000000000000000000000000255c2f42d18f1a60c00000000000000000000000000000000000000000000030bbe34fc1f50ef5a0f00000000000000000000000000000000000000000000000255bcc77ff53cb28e00000000000000000000000000000000000000000000030bbe3b28cc74a44d8d",
          "blockHash": "0xe13821bce08caae9456d00c7efe4a50ca0cb2d3c5533a7f854ea8aa572ea678b",
          "blockNumber": "0xdf596b",
          "transactionHash": "0x2e92f052f8575ded95866c876acf818251441caa46e8029db2d966051e02855c",
          "transactionIndex": "0x0",
          "logIndex": "0x0",
          "removed": false
        }
      ],
      "logsBloom": "0x20000000000000000004000000000000000000002000000000000000000000000000000000000000000000000000000000008000000000000000000040000000000000000000000000000000000000800000000000000000000100000000000000000000000000100000000000000000000000000000000080000000000000000000000000000000000000000000040000000000000000000000000000000000200000000000000000000000000000000000000000000000000000000000004000000000000000000001000000000000000000000000000000100000000000000000000000000000000000000000000000000000000000000000000000100000",
      "type": "0x2",
      "transactionHash": "0x2e92f052f8575ded95866c876acf818251441caa46e8029db2d966051e02855c",
      "transactionIndex": "0x0",
      "blockHash": "0xe13821bce08caae9456d00c7efe4a50ca0cb2d3c5533a7f854ea8aa572ea678b",
      "blockNumber": "0xdf596b",
      "gasUsed": "0xbc95",
      "effectiveGasPrice": "0x861c46815",
      "from": "0xe62ab4d111f968660c6b2188046f9b9ba53c4bae",
      "to": "0x1eb65ef07b5a3b8f89fd851e078194e5d9e85f4b",
      "contractAddress": null
    },
    {
      "status": "0x1",
      "cumulativeGasUsed": "0xbcac",
      "logs": [
        {
          "address": "0x0000000000000000000000000000000000001010",
          "topics": [
            "0x4dfe1bbbcf077ddc3e01291eea2d5c70c2b422b415d95645b9adcfd678cb1d63",
            "0x0000000000000000000000000000000000000000000000000000000000001010",
            "0x000000000000000000000000e62ab4d111f968660c6b2188046f9b9ba53c4bae",
            "0x0000000000000000000000004631753190f2f5a15a7ba172bbac102b7d95fa22"
          ],
          "data": "0x00000000000000000000000000000000000000000000000000062d6dec5a4c0800000000000000000000000000000000000000000000000255bcc77ff531a5d300000000000000000000000000000000000000000000030bbe3b28cc74a44d8d00000000000000000000000000000000000000000000000255b69a1208d759cb00000000000000000000000000000000000000000000030bbe41563a60fe9995",
          "blockHash": "0xa4d1e7c7bdd978ebe8bdc5accd5d32fd3a8117dbb1b14741afa9d0a9520cefa6",
          "blockNumber": "0xdf596f",
          "transactionHash": "0x2dca67176723031193590357f0098a154fa66236eef354747ba411bafda0207f",
          "transactionIndex": "0x0",
          "logIndex": "0x0",
          "removed": false
        }
      ],
      "logsBloom": "0x20000000000000000004000000000000000000002000000000000000000000000000000000000000000000000000000000008000000000000000000040000000000000000000000000000000000000800000000000000000000100000000000000000000000000100000000000000000000000000000000080000000000000000000000000000000000000000000040000000000000000000000000000000000200000000000000000000000000000000000000000000000000000000000004000000000000000000001000000000000000000000000000000100000000000000000000000000000000000000000000000000000000000000000000000100000",
      "type": "0x2",
      "transactionHash": "0x2dca67176723031193590357f0098a154fa66236eef354747ba411bafda0207f",
      "transactionIndex": "0x0",
      "blockHash": "0xa4d1e7c7bdd978ebe8bdc5accd5d32fd3a8117dbb1b14741afa9d0a9520cefa6",
      "blockNumber": "0xdf596f",
      "gasUsed": "0xbcac",
      "effectiveGasPrice": "0x861c46815",
      "from": "0xe62ab4d111f968660c6b2188046f9b9ba53c4bae",
      "to": "0x1eb65ef07b5a3b8f89fd851e078194e5d9e85f4b",
      "contractAddress": null
    },
    {
      "status": "0x1",
      "cumulativeGasUsed": "0xbcc3",
      "logs": [
        {
          "address": "0x0000000000000000000000000000000000001010",
          "topics": [
            "0x4dfe1bbbcf077ddc3e01291eea2d5c70c2b422b415d95645b9adcfd678cb1d63",
            "0x0000000000000000000000000000000000000000000000000000000000001010",
            "0x000000000000000000000000e62ab4d111f968660c6b2188046f9b9ba53c4bae",
            "0x0000000000000000000000006ab3d36c46ecfb9b9c0bd51cb1c3da5a2c81cea6"
          ],
          "data": "0x00000000000000000000000000000000000000000000000000062e2eb4ffa49200000000000000000000000000000000000000000000000255b69a1208cc4bb70000000000000000000000000000000000000000000003af773d25c8f1a9f07300000000000000000000000000000000000000000000000255b06be353cca7250000000000000000000000000000000000000000000003af774353f7a6a99505",
          "blockHash": "0xc2455ee586a0f3cf8365d653728a3f4eadd3419333b35b95f8bb9f613f46e4cb",
          "blockNumber": "0xdf5972",
          "transactionHash": "0xeda95b9a6ee317a922a68c7b6dba325bd96ac2013ad5b8e9d039cf4e743d7e77",
          "transactionIndex": "0x0",
          "logIndex": "0x0",
          "removed": false
        }
      ],
      "logsBloom": "0x20000000080000000004000000000000000000000000000000000000000000000000000000000000000000000000000000008000000000000000000000000000000000080000000000000000000000800000000000000000000100000000000000000000000000000000000000000000000000000000000080000000000000000000000000000000000000000000040000000000000000000000000000000000200000000000000000000000000000000000000000000000000000000000004000000000000000000001000000000000000000010000000000100000000000000000000000000000000000000000000000000000000000000000000000100000",
      "type": "0x2",
      "transactionHash": "0xeda95b9a6ee317a922a68c7b6dba325bd96ac2013ad5b8e9d039cf4e743d7e77",
      "transactionIndex": "0x0",
      "blockHash": "0xc2455ee586a0f3cf8365d653728a3f4eadd3419333b35b95f8bb9f613f46e4cb",
      "blockNumber": "0xdf5972",
      "gasUsed": "0xbcc3",
      "effectiveGasPrice": "0x861c46815",
      "from": "0xe62ab4d111f968660c6b2188046f9b9ba53c4bae",
      "to": "0x1eb65ef07b5a3b8f89fd851e078194e5d9e85f4b",
      "contractAddress": null
    },
    {
      "status": "0x1",
      "cumulativeGasUsed": "0xbcda",
      "logs": [
        {
          "address": "0x0000000000000000000000000000000000001010",
          "topics": [
            "0x4dfe1bbbcf077ddc3e01291eea2d5c70c2b422b415d95645b9adcfd678cb1d63",
            "0x0000000000000000000000000000000000000000000000000000000000001010",
            "0x000000000000000000000000e62ab4d111f968660c6b2188046f9b9ba53c4bae",
            "0x0000000000000000000000006ab3d36c46ecfb9b9c0bd51cb1c3da5a2c81cea6"
          ],
          "data": "0x00000000000000000000000000000000000000000000000000062eef7da4fd1c00000000000000000000000000000000000000000000000255b06be353c197b80000000000000000000000000000000000000000000003af7797e7eaff726be200000000000000000000000000000000000000000000000255aa3cf3d61c9a9c0000000000000000000000000000000000000000000003af779e16da7d1768fe",
          "blockHash": "0x90ae11dab763aec1c5bc5f4468587f19b6142b335e9f0bc480bd683fec6c7737",
          "blockNumber": "0xdf5976",
          "transactionHash": "0xf7a11b4b3e266ba139117df482d6679bd4afc2f05e383f054b0094c50a480c56",
          "transactionIndex": "0x0",
          "logIndex": "0x0",
          "removed": false
        }
      ],
      "logsBloom": "0x20000000080000000004000000000000000000000000000000000000000000000000000000000000000000000000000000008000000000000000000000000000000000080000000000000000000000800000000000000000000100000000000000000000000000000000000000000000000000000000000080000000000000000000000000000000000000000000040000000000000000000000000000000000200000000000000000000000000000000000000000000000000000000000004000000000000000000001000000000000000000010000000000100000000000000000000000000000000000000000000000000000000000000000000000100000",
      "type": "0x2",
      "transactionHash": "0xf7a11b4b3e266ba139117df482d6679bd4afc2f05e383f054b0094c50a480c56",
      "transactionIndex": "0x0",
      "blockHash": "0x90ae11dab763aec1c5bc5f4468587f19b6142b335e9f0bc480bd683fec6c7737",
      "blockNumber": "0xdf5976",
      "gasUsed": "0xbcda",
      "effectiveGasPrice": "0x861c46815",
      "from": "0xe62ab4d111f968660c6b2188046f9b9ba53c4bae",
      "to": "0x1eb65ef07b5a3b8f89fd851e078194e5d9e85f4b",
      "contractAddress": null
    },
    {
      "status": "0x1",
      "cumulativeGasUsed": "0xbcf1",
      "logs": [
        {
          "address": "0x0000000000000000000000000000000000001010",
          "topics": [
            "0x4dfe1bbbcf077ddc3e01291eea2d5c70c2b422b415d95645b9adcfd678cb1d63",
            "0x0000000000000000000000000000000000000000000000000000000000001010",
            "0x000000000000000000000000e62ab4d111f968660c6b2188046f9b9ba53c4bae",
            "0x0000000000000000000000006ab3d36c46ecfb9b9c0bd51cb1c3da5a2c81cea6"
          ],
          "data": "0x00000000000000000000000000000000000000000000000000062fb0464a55a600000000000000000000000000000000000000000000000255aa3cf3d61189d60000000000000000000000000000000000000000000003af78142f8ff8383da300000000000000000000000000000000000000000000000255a40d438fc734300000000000000000000000000000000000000000000003af781a5f403e829349",
          "blockHash": "0xc1468529122b93dd32c494a996143818259b9d573cfd03e898383f2cb4e02190",
          "blockNumber": "0xdf5979",
          "transactionHash": "0x9c9ef19913b6f6dd5f50f3f6f5dfb80fd5b4589d7df03a5f86c87e6c6ee21f76",
          "transactionIndex": "0x0",
          "logIndex": "0x0",
          "removed": false
        }
      ],
      "logsBloom": "0x20000000080000000004000000000000000000000000000000000000000000000000000000000000000000000000000000008000000000000000000000000000000000080000000000000000000000800000000000000000000100000000000000000000000000000000000000000000000000000000000080000000000000000000000000000000000000000000040000000000000000000000000000000000200000000000000000000000000000000000000000000000000000000000004000000000000000000001000000000000000000010000000000100000000000000000000000000000000000000000000000000000000000000000000000100000",
      "type": "0x2",
      "transactionHash": "0x9c9ef19913b6f6dd5f50f3f6f5dfb80fd5b4589d7df03a5f86c87e6c6ee21f76",
      "transactionIndex": "0x0",
      "blockHash": "0xc1468529122b93dd32c494a996143818259b9d573cfd03e898383f2cb4e02190",
      "blockNumber": "0xdf5979",
      "gasUsed": "0xbcf1",
      "effectiveGasPrice": "0x861c46815",
      "from": "0xe62ab4d111f968660c6b2188046f9b9ba53c4bae",
      "to": "0x1eb65ef07b5a3b8f89fd851e078194e5d9e85f4b",
      "contractAddress": null
    },
    {
      "status": "0x1",
      "cumulativeGasUsed": "0xbd08",
      "logs": [
        {
          "address": "0x0000000000000000000000000000000000001010",
          "topics": [
            "0x4dfe1bbbcf077ddc3e01291eea2d5c70c2b422b415d95645b9adcfd678cb1d63",
            "0x0000000000000000000000000000000000000000000000000000000000001010",
            "0x000000000000000000000000e62ab4d111f968660c6b2188046f9b9ba53c4bae",
            "0x0000000000000000000000006ab3d36c46ecfb9b9c0bd51cb1c3da5a2c81cea6"
          ],
          "data": "0x000000000000000000000000000000000000000000000000000630710eefae3000000000000000000000000000000000000000000000000255a40d438fbc22110000000000000000000000000000000000000000000003af784f890303ca041a000000000000000000000000000000000000000000000002559ddcd280cc73e10000000000000000000000000000000000000000000003af7855b97412b9b24a",
          "blockHash": "0x38203a61be2f62dc92d81f1b30246d9c21e2d9e2ec86d4c8fc44ad680a8c8034",
          "blockNumber": "0xdf597d",
          "transactionHash": "0x76bc0106109f1e851c1f9b98e4f1f9a0b826cfd2ff0b939fd5ed5571587921f6",
          "transactionIndex": "0x0",
          "logIndex": "0x0",
          "removed": false
        }
      ],
      "logsBloom": "0x20000000080000000004000000000000000000000000000000000000000000000000000000000000000000000000000000008000000000000000000000000000000000080000000000000000000000800000000000000000000100000000000000000000000000000000000000000000000000000000000080000000000000000000000000000000000000000000040000000000000000000000000000000000200000000000000000000000000000000000000000000000000000000000004000000000000000000001000000000000000000010000000000100000000000000000000000000000000000000000000000000000000000000000000000100000",
      "type": "0x2",
      "transactionHash": "0x76bc0106109f1e851c1f9b98e4f1f9a0b826cfd2ff0b939fd5ed5571587921f6",
      "transactionIndex": "0x0",
      "blockHash": "0x38203a61be2f62dc92d81f1b30246d9c21e2d9e2ec86d4c8fc44ad680a8c8034",
      "blockNumber": "0xdf597d",
      "gasUsed": "0xbd08",
      "effectiveGasPrice": "0x861c46815",
      "from": "0xe62ab4d111f968660c6b2188046f9b9ba53c4bae",
      "to": "0x1eb65ef07b5a3b8f89fd851e078194e5d9e85f4b",
      "contractAddress": null
    },
    {
      "status": "0x1",
      "cumulativeGasUsed": "0xbd1f",
      "logs": [
        {
          "address": "0x0000000000000000000000000000000000001010",
          "topics": [
            "0x4dfe1bbbcf077ddc3e01291eea2d5c70c2b422b415d95645b9adcfd678cb1d63",
            "0x0000000000000000000000000000000000000000000000000000000000001010",
            "0x000000000000000000000000e62ab4d111f968660c6b2188046f9b9ba53c4bae",
            "0x0000000000000000000000004631753190f2f5a15a7ba172bbac102b7d95fa22"
          ],
          "data": "0x00000000000000000000000000000000000000000000000000063131d79506ba000000000000000000000000000000000000000000000002559ddcd280c1606900000000000000000000000000000000000000000000030bbe41563a60fe99950000000000000000000000000000000000000000000000025597aba0a92c59af00000000000000000000000000000000000000000000030bbe47876c3893a04f",
          "blockHash": "0x3a46cc69223c4a37bfa285dd7fa6016859da5e714295b8d49d3cf8fb063b7a5f",
          "blockNumber": "0xdf5980",
          "transactionHash": "0xa55536dded57b839f919d7b5b86fd3d5e70f3e3a50e5b4948b3b262ba93dbe39",
          "transactionIndex": "0x0",
          "logIndex": "0x0",
          "removed": false
        }
      ],
      "logsBloom": "0x20000000000000000004000000000000000000002000000000000000000000000000000000000000000000000000000000008000000000000000000040000000000000000000000000000000000000800000000000000000000100000000000000000000000000100000000000000000000000000000000080000000000000000000000000000000000000000000040000000000000000000000000000000000200000000000000000000000000000000000000000000000000000000000004000000000000000000001000000000000000000000000000000100000000000000000000000000000000000000000000000000000000000000000000000100000",
      "type": "0x2",
      "transactionHash": "0xa55536dded57b839f919d7b5b86fd3d5e70f3e3a50e5b4948b3b262ba93dbe39",
      "transactionIndex": "0x0",
      "blockHash": "0x3a46cc69223c4a37bfa285dd7fa6016859da5e714295b8d49d3cf8fb063b7a5f",
      "blockNumber": "0xdf5980",
      "gasUsed": "0xbd1f",
      "effectiveGasPrice": "0x861c46815",
      "from": "0xe62ab4d111f968660c6b2188046f9b9ba53c4bae",
      "to": "0x1eb65ef07b5a3b8f89fd851e078194e5d9e85f4b",
      "contractAddress": null
    },
    {
      "status": "0x1",
      "cumulativeGasUsed": "0xbd36",
      "logs": [
        {
          "address": "0x0000000000000000000000000000000000001010",
          "topics": [
            "0x4dfe1bbbcf077ddc3e01291eea2d5c70c2b422b415d95645b9adcfd678cb1d63",
            "0x0000000000000000000000000000000000000000000000000000000000001010",
            "0x000000000000000000000000e62ab4d111f968660c6b2188046f9b9ba53c4bae",
            "0x0000000000000000000000004631753190f2f5a15a7ba172bbac102b7d95fa22"
          ],
          "data": "0x000000000000000000000000000000000000000000000000000631f2a03a5f440000000000000000000000000000000000000000000000025597aba0a92144de00000000000000000000000000000000000000000000030bbe4d21468c8be21a000000000000000000000000000000000000000000000002559179ae08e6e59a00000000000000000000000000000000000000000000030bbe5353392cc6415e",
          "blockHash": "0x4874f82d9d7f7443126d4b4e2ed005f6fb4f308b0ba5128857baa8550e8bb7be",
          "blockNumber": "0xdf5983",
          "transactionHash": "0x3a5117e6553dc7e1e317a78721abdaef5c05b4f0c2592a8a0c37aeb421f5adc2",
          "transactionIndex": "0x0",
          "logIndex": "0x0",
          "removed": false
        }
      ],
      "logsBloom": "0x20000000000000000004000000000000000000002000000000000000000000000000000000000000000000000000000000008000000000000000000040000000000000000000000000000000000000800000000000000000000100000000000000000000000000100000000000000000000000000000000080000000000000000000000000000000000000000000040000000000000000000000000000000000200000000000000000000000000000000000000000000000000000000000004000000000000000000001000000000000000000000000000000100000000000000000000000000000000000000000000000000000000000000000000000100000",
      "type": "0x2",
      "transactionHash": "0x3a5117e6553dc7e1e317a78721abdaef5c05b4f0c2592a8a0c37aeb421f5adc2",
      "transactionIndex": "0x0",
      "blockHash": "0x4874f82d9d7f7443126d4b4e2ed005f6fb4f308b0ba5128857baa8550e8bb7be",
      "blockNumber": "0xdf5983",
      "gasUsed": "0xbd36",
      "effectiveGasPrice": "0x861c46815",
      "from": "0xe62ab4d111f968660c6b2188046f9b9ba53c4bae",
      "to": "0x1eb65ef07b5a3b8f89fd851e078194e5d9e85f4b",
      "contractAddress": null
    },
    {
      "status": "0x1",
      "cumulativeGasUsed": "0xbd4d",
      "logs": [
        {
          "address": "0x0000000000000000000000000000000000001010",
          "topics": [
            "0x4dfe1bbbcf077ddc3e01291eea2d5c70c2b422b415d95645b9adcfd678cb1d63",
            "0x0000000000000000000000000000000000000000000000000000000000001010",
            "0x000000000000000000000000e62ab4d111f968660c6b2188046f9b9ba53c4bae",
            "0x0000000000000000000000004631753190f2f5a15a7ba172bbac102b7d95fa22"
          ],
          "data": "0x000000000000000000000000000000000000000000000000000632b368dfb7ce000000000000000000000000000000000000000000000002559179ae08dbcf7000000000000000000000000000000000000000000000030bbe96f06e8c64128e000000000000000000000000000000000000000000000002558b46fa9ffc17a200000000000000000000000000000000000000000000030bbe9d2321f543ca5c",
          "blockHash": "0x770eb5fca91db11e25fdfce3ed5eb4a5ae9d4c0a2c8467c21f5a430cba10ff44",
          "blockNumber": "0xdf5986",
          "transactionHash": "0x63cb365459d6e30775059439b04a69171272ddd08ce9b0e03022b8d7f4607721",
          "transactionIndex": "0x0",
          "logIndex": "0x0",
          "removed": false
        }
      ],
      "logsBloom": "0x20000000000000000004000000000000000000002000000000000000000000000000000000000000000000000000000000008000000000000000000040000000000000000000000000000000000000800000000000000000000100000000000000000000000000100000000000000000000000000000000080000000000000000000000000000000000000000000040000000000000000000000000000000000200000000000000000000000000000000000000000000000000000000000004000000000000000000001000000000000000000000000000000100000000000000000000000000000000000000000000000000000000000000000000000100000",
      "type": "0x2",
      "transactionHash": "0x63cb365459d6e30775059439b04a69171272ddd08ce9b0e03022b8d7f4607721",
      "transactionIndex": "0x0",
      "blockHash": "0x770eb5fca91db11e25fdfce3ed5eb4a5ae9d4c0a2c8467c21f5a430cba10ff44",
      "blockNumber": "0xdf5986",
      "gasUsed": "0xbd4d",
      "effectiveGasPrice": "0x861c46815",
      "from": "0xe62ab4d111f968660c6b2188046f9b9ba53c4bae",
      "to": "0x1eb65ef07b5a3b8f89fd851e078194e5d9e85f4b",
      "contractAddress": null
    },
    {
      "status": "0x1",
      "cumulativeGasUsed": "0xbd64",
      "logs": [
        {
          "address": "0x0000000000000000000000000000000000001010",
          "topics": [
            "0x4dfe1bbbcf077ddc3e01291eea2d5c70c2b422b415d95645b9adcfd678cb1d63",
            "0x0000000000000000000000000000000000000000000000000000000000001010",
            "0x000000000000000000000000e62ab4d111f968660c6b2188046f9b9ba53c4bae",
            "0x0000000000000000000000004631753190f2f5a15a7ba172bbac102b7d95fa22"
          ],
          "data": "0x0000000000000000000000000000000000000000000000000006337431851058000000000000000000000000000000000000000000000002558b46fa9ff1001f00000000000000000000000000000000000000000000030bbec2bc3af5cf790c000000000000000000000000000000000000000000000002558513866e6befc700000000000000000000000000000000000000000000030bbec8efaf27548964",
          "blockHash": "0xe8df385ce577b58a5ee86a563c986e13b3da944fdffa007777d0b2053890a8a3",
          "blockNumber": "0xdf598a",
          "transactionHash": "0x7d51117b542d18a513104cb4d410bd4948e46ee251ede942113492f7f0af6bae",
          "transactionIndex": "0x0",
          "logIndex": "0x0",
          "removed": false
        }
      ],
      "logsBloom": "0x20000000000000000004000000000000000000002000000000000000000000000000000000000000000000000000000000008000000000000000000040000000000000000000000000000000000000800000000000000000000100000000000000000000000000100000000000000000000000000000000080000000000000000000000000000000000000000000040000000000000000000000000000000000200000000000000000000000000000000000000000000000000000000000004000000000000000000001000000000000000000000000000000100000000000000000000000000000000000000000000000000000000000000000000000100000",
      "type": "0x2",
      "transactionHash": "0x7d51117b542d18a513104cb4d410bd4948e46ee251ede942113492f7f0af6bae",
      "transactionIndex": "0x0",
      "blockHash": "0xe8df385ce577b58a5ee86a563c986e13b3da944fdffa007777d0b2053890a8a3",
      "blockNumber": "0xdf598a",
      "gasUsed": "0xbd64",
      "effectiveGasPrice": "0x861c46815",
      "from": "0xe62ab4d111f968660c6b2188046f9b9ba53c4bae",
      "to": "0x1eb65ef07b5a3b8f89fd851e078194e5d9e85f4b",
      "contractAddress": null
    },
    {
      "status": "0x1",
      "cumulativeGasUsed": "0xbd76",
      "logs": [
        {
          "address": "0x0000000000000000000000000000000000001010",
          "topics": [
            "0x4dfe1bbbcf077ddc3e01291eea2d5c70c2b422b415d95645b9adcfd678cb1d63",
            "0x0000000000000000000000000000000000000000000000000000000000001010",
            "0x000000000000000000000000e62ab4d111f968660c6b2188046f9b9ba53c4bae",
            "0x0000000000000000000000004631753190f2f5a15a7ba172bbac102b7d95fa22"
          ],
          "data": "0x0000000000000000000000000000000000000000000000000006340b115460c4000000000000000000000000000000000000000000000002558513866e60d6eb00000000000000000000000000000000000000000000030bbecbd9ef7da1df94000000000000000000000000000000000000000000000002557edf7b5d0c762700000000000000000000000000000000000000000000030bbed20dfa8ef64058",
          "blockHash": "0x5a2c819e09ebbbe40669e195f47378665ab1ed008705a34c2f5d80342bba5af1",
          "blockNumber": "0xdf598e",
          "transactionHash": "0x524988b8ea16ab0a5ab20d6c9460f221239c6de819b4a111bbf862def135c09b",
          "transactionIndex": "0x0",
          "logIndex": "0x0",
          "removed": false
        }
      ],
      "logsBloom": "0x20000000000000000004000000000000000000002000000000000000000000000000000000000000000000000000000000008000000000000000000040000000000000000000000000000000000000800000000000000000000100000000000000000000000000100000000000000000000000000000000080000000000000000000000000000000000000000000040000000000000000000000000000000000200000000000000000000000000000000000000000000000000000000000004000000000000000000001000000000000000000000000000000100000000000000000000000000000000000000000000000000000000000000000000000100000",
      "type": "0x2",
      "transactionHash": "0x524988b8ea16ab0a5ab20d6c9460f221239c6de819b4a111bbf862def135c09b",
      "transactionIndex": "0x0",
      "blockHash": "0x5a2c819e09ebbbe40669e195f47378665ab1ed008705a34c2f5d80342bba5af1",
      "blockNumber": "0xdf598e",
      "gasUsed": "0xbd76",
      "effectiveGasPrice": "0x861c46815",
      "from": "0xe62ab4d111f968660c6b2188046f9b9ba53c4bae",
      "to": "0x1eb65ef07b5a3b8f89fd851e078194e5d9e85f4b",
      "contractAddress": null
    },
    {
      "status": "0x1",
      "cumulativeGasUsed": "0x50876",
      "logs": [
        {
          "address": "0x0000000000000000000000000000000000001010",
          "topics": [
            "0x4dfe1bbbcf077ddc3e01291eea2d5c70c2b422b415d95645b9adcfd678cb1d63",
            "0x0000000000000000000000000000000000000000000000000000000000001010",
            "0x000000000000000000000000e62ab4d111f968660c6b2188046f9b9ba53c4bae",
            "0x00000000000000000000000009207a6efee346cb3e4a54ac18523e3715d38b3f"
          ],
          "data": "0x0000000000000000000000000000000000000000000000000011f9028fbcbd88000000000000000000000000000000000000000000000002557edf7b5d015c3d0000000000000000000000000000000000000000000003cfefc48e0e8f772a58000000000000000000000000000000000000000000000002556ce678cd449eb50000000000000000000000000000000000000000000003cfefd687111f33e7e0",
          "blockHash": "0xa2d513a079392f22160fb49579c5e807e52ba346c918ef21b9501659c7a19080",
          "blockNumber": "0xdf5991",
          "transactionHash": "0x2663246d5e10b9609e45a8260891587b14922220528f55b8b06f1c5678cc9452",
          "transactionIndex": "0x2",
          "logIndex": "0x6",
          "removed": false
        }
      ],
      "logsBloom": "0x20000000000000000004000000000000000000000000000000000000000000000000000000000000000000000000000000008000000000000000010000000000000000000000000000000000000000800000000000000000000100000000000000000000000000000000000000000000000000000000000080000000000000000000000000000000000000000000040000004000000000000000000000000000200000000000000000000000000000000000000000000000000000000000004000000000000000000001000000000000000000000000000000100000000000000000000000000000000000010000000000000000000000000000000000100000",
      "type": "0x2",
      "transactionHash": "0x2663246d5e10b9609e45a8260891587b14922220528f55b8b06f1c5678cc9452",
      "transactionIndex": "0x2",
      "blockHash": "0xa2d513a079392f22160fb49579c5e807e52ba346c918ef21b9501659c7a19080",
      "blockNumber": "0xdf5991",
      "gasUsed": "0x224ec",
      "effectiveGasPrice": "0x861c46815",
      "from": "0xe62ab4d111f968660c6b2188046f9b9ba53c4bae",
      "to": "0x1eb65ef07b5a3b8f89fd851e078194e5d9e85f4b",
      "contractAddress": null
    },
    {
      "status": "0x1",
      "cumulativeGasUsed": "0x1e86c",
      "logs": [
        {
          "address": "0x0000000000000000000000000000000000001010",
          "topics": [
            "0x4dfe1bbbcf077ddc3e01291eea2d5c70c2b422b415d95645b9adcfd678cb1d63",
            "0x0000000000000000000000000000000000000000000000000000000000001010",
            "0x000000000000000000000000e62ab4d111f968660c6b2188046f9b9ba53c4bae",
            "0x00000000000000000000000009207a6efee346cb3e4a54ac18523e3715d38b3f"
          ],
          "data": "0x000000000000000000000000000000000000000000000000000ffde7a5275288000000000000000000000000000000000000000000000002556ce678cd2474e10000000000000000000000000000000000000000000003cfeff01dfc97b949e4000000000000000000000000000000000000000000000002555ce89127fd22590000000000000000000000000000000000000000000003cff0001be43ce09c6c",
          "blockHash": "0xb8795cb0b6d28d2b67d2cdeb8b2907cca7772fc19d92b510a46721ba0e00248e",
          "blockNumber": "0xdf5994",
          "transactionHash": "0x7d8b2dcc6d2634f8e8b39287f5ef86f09796c3525f08cedf457578bda41b1ba7",
          "transactionIndex": "0x0",
          "logIndex": "0x0",
          "removed": false
        }
      ],
      "logsBloom": "0x20000000000000000004000000000000000000000000000000000000000000000000000000000000000000000000000000008000000000000000010000000000000000000000000000000000000000800000000000000000000100000000000000000000000000000000000000000000000000000000000080000000000000000000000000000000000000000000040000004000000000000000000000000000200000000000000000000000000000000000000000000000000000000000004000000000000000000001000000000000000000000000000000100000000000000000000000000000000000010000000000000000000000000000000000100000",
      "type": "0x2",
      "transactionHash": "0x7d8b2dcc6d2634f8e8b39287f5ef86f09796c3525f08cedf457578bda41b1ba7",
      "transactionIndex": "0x0",
      "blockHash": "0xb8795cb0b6d28d2b67d2cdeb8b2907cca7772fc19d92b510a46721ba0e00248e",
      "blockNumber": "0xdf5994",
      "gasUsed": "0x1e86c",
      "effectiveGasPrice": "0x861c46815",
      "from": "0xe62ab4d111f968660c6b2188046f9b9ba53c4bae",
      "to": "0x1eb65ef07b5a3b8f89fd851e078194e5d9e85f4b",
      "contractAddress": null
    },
    {
      "status": "0x1",
      "cumulativeGasUsed": "0x1e86c",
      "logs": [
        {
          "address": "0x0000000000000000000000000000000000001010",
          "topics": [
            "0x4dfe1bbbcf077ddc3e01291eea2d5c70c2b422b415d95645b9adcfd678cb1d63",
            "0x0000000000000000000000000000000000000000000000000000000000001010",
            "0x000000000000000000000000e62ab4d111f968660c6b2188046f9b9ba53c4bae",
            "0x00000000000000000000000009207a6efee346cb3e4a54ac18523e3715d38b3f"
          ],
          "data": "0x000000000000000000000000000000000000000000000000000ffde7a5275288000000000000000000000000000000000000000000000002555ce89127e084050000000000000000000000000000000000000000000003cff0326d17a11205f2000000000000000000000000000000000000000000000002554ceaa982b9317d0000000000000000000000000000000000000000000003cff0426aff4639587a",
          "blockHash": "0x30adb9f37521734d118d1161eb234f34fc90d294fa6c5f48ec60de14792a05f5",
          "blockNumber": "0xdf5998",
          "transactionHash": "0xa035856ba2b19ef5f541bafa60bc15f0614e74b60c5507b3260cf3d463b39d02",
          "transactionIndex": "0x0",
          "logIndex": "0x0",
          "removed": false
        }
      ],
      "logsBloom": "0x20000000000000000004000000000000000000000000000000000000000000000000000000000000000000000000000000008000000000000000010000000000000000000000000000000000000000800000000000000000000100000000000000000000000000000000000000000000000000000000000080000000000000000000000000000000000000000000040000004000000000000000000000000000200000000000000000000000000000000000000000000000000000000000004000000000000000000001000000000000000000000000000000100000000000000000000000000000000000010000000000000000000000000000000000100000",
      "type": "0x2",
      "transactionHash": "0xa035856ba2b19ef5f541bafa60bc15f0614e74b60c5507b3260cf3d463b39d02",
      "transactionIndex": "0x0",
      "blockHash": "0x30adb9f37521734d118d1161eb234f34fc90d294fa6c5f48ec60de14792a05f5",
      "blockNumber": "0xdf5998",
      "gasUsed": "0x1e86c",
      "effectiveGasPrice": "0x861c46815",
      "from": "0xe62ab4d111f968660c6b2188046f9b9ba53c4bae",
      "to": "0x1eb65ef07b5a3b8f89fd851e078194e5d9e85f4b",
      "contractAddress": null
    },
    {
      "status": "0x1",
      "cumulativeGasUsed": "0x1e3e0",
      "logs": [
        {
          "address": "0x0000000000000000000000000000000000001010",
          "topics": [
            "0x4dfe1bbbcf077ddc3e01291eea2d5c70c2b422b415d95645b9adcfd678cb1d63",
            "0x0000000000000000000000000000000000000000000000000000000000001010",
            "0x000000000000000000000000e62ab4d111f968660c6b2188046f9b9ba53c4bae",
            "0x00000000000000000000000009207a6efee346cb3e4a54ac18523e3715d38b3f"
          ],
          "data": "0x000000000000000000000000000000000000000000000000000fd7cb1c1e5740000000000000000000000000000000000000000000000002554ceaa9829c93290000000000000000000000000000000000000000000003cff05559576fa05e78000000000000000000000000000000000000000000000002553d12de667e3be90000000000000000000000000000000000000000000003cff06531228bbeb5b8",
          "blockHash": "0x75411e54d39251637b921fcd072f855f0c1aac245af667fb582e898c3e04afc1",
          "blockNumber": "0xdf599b",
          "transactionHash": "0x4054db0554423ebc0f8d6ba8321c6d90fb6bd0d55b1cea7c58dfd0fed4c84b29",
          "transactionIndex": "0x0",
          "logIndex": "0x0",
          "removed": false
        }
      ],
      "logsBloom": "0x20000000000000000004000000000000000000000000000000000000000000000000000000000000000000000000000000008000000000000000010000000000000000000000000000000000000000800000000000000000000100000000000000000000000000000000000000000000000000000000000080000000000000000000000000000000000000000000040000004000000000000000000000000000200000000000000000000000000000000000000000000000000000000000004000000000000000000001000000000000000000000000000000100000000000000000000000000000000000010000000000000000000000000000000000100000",
      "type": "0x2",
      "transactionHash": "0x4054db0554423ebc0f8d6ba8321c6d90fb6bd0d55b1cea7c58dfd0fed4c84b29",
      "transactionIndex": "0x0",
      "blockHash": "0x75411e54d39251637b921fcd072f855f0c1aac245af667fb582e898c3e04afc1",
      "blockNumber": "0xdf599b",
      "gasUsed": "0x1e3e0",
      "effectiveGasPrice": "0x861c46815",
      "from": "0xe62ab4d111f968660c6b2188046f9b9ba53c4bae",
      "to": "0x1eb65ef07b5a3b8f89fd851e078194e5d9e85f4b",
      "contractAddress": null
    },
    {
      "status": "0x1",
      "cumulativeGasUsed": "0x3199c",
      "logs": [
        {
          "address": "0x0000000000000000000000000000000000001010",
          "topics": [
            "0x4dfe1bbbcf077ddc3e01291eea2d5c70c2b422b415d95645b9adcfd678cb1d63",
            "0x0000000000000000000000000000000000000000000000000000000000001010",
            "0x000000000000000000000000e62ab4d111f968660c6b2188046f9b9ba53c4bae",
            "0x00000000000000000000000009207a6efee346cb3e4a54ac18523e3715d38b3f"
          ],
          "data": "0x000000000000000000000000000000000000000000000000001024042e304dd0000000000000000000000000000000000000000000000002553d12de6661e1c90000000000000000000000000000000000000000000003cff097be44bb49c80e000000000000000000000000000000000000000000000002552ceeda383193f90000000000000000000000000000000000000000000003cff0a7e248e97a15de",
          "blockHash": "0x8a55ead5643012ff2fd8cd3f5db5a084373431941ed167deece7abcb55583f7b",
          "blockNumber": "0xdf599f",
          "transactionHash": "0x61f7c98e42bbbca44f799babb0ec9e07471fde85e7ddb1416b24cc043be41166",
          "transactionIndex": "0x1",
          "logIndex": "0x2",
          "removed": false
        }
      ],
      "logsBloom": "0x20000000000000000004000000000000000000000000000000000000000000000000000000000000000000000000000000008000000000000000010000000000000000000000000000000000000000800000000000000000000100000000000000000000000000000000000000000000000000000000000080000000000000000000000000000000000000000000040000004000000000000000000000000000200000000000000000000000000000000000000000000000000000000000004000000000000000000001000000000000000000000000000000100000000000000000000000000000000000010000000000000000000000000000000000100000",
      "type": "0x2",
      "transactionHash": "0x61f7c98e42bbbca44f799babb0ec9e07471fde85e7ddb1416b24cc043be41166",
      "transactionIndex": "0x1",
      "blockHash": "0x8a55ead5643012ff2fd8cd3f5db5a084373431941ed167deece7abcb55583f7b",
      "blockNumber": "0xdf599f",
      "gasUsed": "0x1ecf8",
      "effectiveGasPrice": "0x861c46815",
      "from": "0xe62ab4d111f968660c6b2188046f9b9ba53c4bae",
      "to": "0x1eb65ef07b5a3b8f89fd851e078194e5d9e85f4b",
      "contractAddress": null
    },
    {
      "status": "0x1",
      "cumulativeGasUsed": "0x99944",
      "logs": [
        {
          "address": "0x0000000000000000000000000000000000001010",
          "topics": [
            "0x4dfe1bbbcf077ddc3e01291eea2d5c70c2b422b415d95645b9adcfd678cb1d63",
            "0x0000000000000000000000000000000000000000000000000000000000001010",
            "0x000000000000000000000000e62ab4d111f968660c6b2188046f9b9ba53c4bae",
            "0x0000000000000000000000004631753190f2f5a15a7ba172bbac102b7d95fa22"
          ],
          "data": "0x00000000000000000000000000000000000000000000000000409d8e10d8a0e8000000000000000000000000000000000000000000000002552ceeda3814b17100000000000000000000000000000000000000000000030bbf8c24405a92f04500000000000000000000000000000000000000000000000254ec514c273c108900000000000000000000000000000000000000000000030bbfccc1ce6b6b912d",
          "blockHash": "0xbfb0959085d42429125c9eedd8da5ebaec193977eeb185309df749f9a6e285ef",
          "blockNumber": "0xdf59a2",
          "transactionHash": "0x13bf241e3b087a96b94efe4f542d30de0b88b48ff1445f767f6ee2ea2037fc31",
          "transactionIndex": "0x1",
          "logIndex": "0x4",
          "removed": false
        }
      ],
      "logsBloom": "0x20000000000000000004000000000000000000002000000000000000000000000000000000000000000000000000000000008000000000000000000040000000000000000000000000000000000000800000000000000000000100000000000000000000000000100000000000000000000000000000000080000000000000000000000000000000000000000000040000000000000000000000000000000000200000000000000000000000000000000000000000000000000000000000004000000000000000000001000000000000000000000000000000100000000000000000000000000000000000000000000000000000000000000000000000100000",
      "type": "0x2",
      "transactionHash": "0x13bf241e3b087a96b94efe4f542d30de0b88b48ff1445f767f6ee2ea2037fc31",
      "transactionIndex": "0x1",
      "blockHash": "0xbfb0959085d42429125c9eedd8da5ebaec193977eeb185309df749f9a6e285ef",
      "blockNumber": "0xdf59a2",
      "gasUsed": "0x7b57c",
      "effectiveGasPrice": "0x861c46815",
      "from": "0xe62ab4d111f968660c6b2188046f9b9ba53c4bae",
      "to": "0xf97c2b87a7193b7800f50fc402e8f999bf1bf3e4",
      "contractAddress": null
    },
    {
      "status": "0x1",
      "cumulativeGasUsed": "0xcb365",
      "logs": [
        {
          "address": "0x0000000000000000000000000000000000001010",
          "topics": [
            "0x4dfe1bbbcf077ddc3e01291eea2d5c70c2b422b415d95645b9adcfd678cb1d63",
            "0x0000000000000000000000000000000000000000000000000000000000001010",
            "0x000000000000000000000000e62ab4d111f968660c6b2188046f9b9ba53c4bae",
            "0x0000000000000000000000004631753190f2f5a15a7ba172bbac102b7d95fa22"
          ],
          "data": "0x0000000000000000000000000000000000000000000000000051a3c8d0b458a600000000000000000000000000000000000000000000000254ec514c26c86e4500000000000000000000000000000000000000000000030bc00e276559a50c71000000000000000000000000000000000000000000000002549aad835614159f00000000000000000000000000000000000000000000030bc05fcb2e2a596517",
          "blockHash": "0x633da010dc69237b03df5fe130c8ab985a06aca86e5962e6992bff3377068568",
          "blockNumber": "0xdf59a5",
          "transactionHash": "0x6b76699f3f4110c39f3b240292282131cb4e7877474f9fd9f6fee2442c78c23e",
          "transactionIndex": "0x2",
          "logIndex": "0x5",
          "removed": false
        }
      ],
      "logsBloom": "0x20000000000000000004000000000000000000002000000000000000000000000000000000000000000000000000000000008000000000000000000040000000000000000000000000000000000000800000000000000000000100000000000000000000000000100000000000000000000000000000000080000000000000000000000000000000000000000000040000000000000000000000000000000000200000000000000000000000000000000000000000000000000000000000004000000000000000000001000000000000000000000000000000100000000000000000000000000000000000000000000000000000000000000000000000100000",
      "type": "0x2",
      "transactionHash": "0x6b76699f3f4110c39f3b240292282131cb4e7877474f9fd9f6fee2442c78c23e",
      "transactionIndex": "0x2",
      "blockHash": "0x633da010dc69237b03df5fe130c8ab985a06aca86e5962e6992bff3377068568",
      "blockNumber": "0xdf59a5",
      "gasUsed": "0x9bd71",
      "effectiveGasPrice": "0x861c46815",
      "from": "0xe62ab4d111f968660c6b2188046f9b9ba53c4bae",
      "to": "0xf97c2b87a7193b7800f50fc402e8f999bf1bf3e4",
      "contractAddress": null
    },
    {
      "status": "0x1",
      "cumulativeGasUsed": "0x9b806",
      "logs": [
        {
          "address": "0x0000000000000000000000000000000000001010",
          "topics": [
            "0x4dfe1bbbcf077ddc3e01291eea2d5c70c2b422b415d95645b9adcfd678cb1d63",
            "0x0000000000000000000000000000000000000000000000000000000000001010",
            "0x000000000000000000000000e62ab4d111f968660c6b2188046f9b9ba53c4bae",
            "0x0000000000000000000000004631753190f2f5a15a7ba172bbac102b7d95fa22"
          ],
          "data": "0x0000000000000000000000000000000000000000000000000051765f1d94c024000000000000000000000000000000000000000000000002549aad835581fc0000000000000000000000000000000000000000000000030bc06452bb441f02f90000000000000000000000000000000000000000000000025449372437ed3bdc00000000000000000000000000000000000000000000030bc0b5c91a61b3c31d",
          "blockHash": "0x933e20df4509900db53ff9e835583af72e23b8386d5af2ee033aca74c933a485",
          "blockNumber": "0xdf59a9",
          "transactionHash": "0x270d28bc7eb463a2c19dfeb2a9dcc643f1ee48848fcec6e115314c62d08ef59c",
          "transactionIndex": "0x0",
          "logIndex": "0x0",
          "removed": false
        }
      ],
      "logsBloom": "0x20000000000000000004000000000000000000002000000000000000000000000000000000000000000000000000000000008000000000000000000040000000000000000000000000000000000000800000000000000000000100000000000000000000000000100000000000000000000000000000000080000000000000000000000000000000000000000000040000000000000000000000000000000000200000000000000000000000000000000000000000000000000000000000004000000000000000000001000000000000000000000000000000100000000000000000000000000000000000000000000000000000000000000000000000100000",
      "type": "0x2",
      "transactionHash": "0x270d28bc7eb463a2c19dfeb2a9dcc643f1ee48848fcec6e115314c62d08ef59c",
      "transactionIndex": "0x0",
      "blockHash": "0x933e20df4509900db53ff9e835583af72e23b8386d5af2ee033aca74c933a485",
      "blockNumber": "0xdf59a9",
      "gasUsed": "0x9b806",
      "effectiveGasPrice": "0x861c46815",
      "from": "0xe62ab4d111f968660c6b2188046f9b9ba53c4bae",
      "to": "0xf97c2b87a7193b7800f50fc402e8f999bf1bf3e4",
      "contractAddress": null
    }
  ],
  "libraries": [],
  "pending": [],
  "returns": {},
  "timestamp": 1732065366,
  "chain": 80002,
  "commit": "4b2e1f8c"
}