{
  "transactions": [
    {
      "hash": "0x8fc65674b57d83a98b9d5e5f5fce784f929cf8c2ce2d5ec7c22789ca404b2101",
      "transactionType": "CALL",
      "contractName": null,
      "contractAddress": "0xf663c3de2d18920ffd7392242459275d0dd249e4",
      "function": "getFeeTokenList()",
      "arguments": [],
      "transaction": {
        "from": "0xe62ab4d111f968660c6b2188046f9b9ba53c4bae",
        "to": "0xf663c3de2d18920ffd7392242459275d0dd249e4",
        "gas": "0x8a7e",
        "value": "0x0",
        "input": "0xe28ab277",
        "nonce": "0xdf",
        "chainId": "0x13882"
      },
      "additionalContracts": [],
      "isFixedGasLimit": false
    },
    {
      "hash": "0x63a97a6dbc0abdea13c635b94ef5c95b2f03c02a46a9530412722a054d099e3f",
      "transactionType": "CALL",
      "contractName": null,
      "contractAddress": "0xf663c3de2d18920ffd7392242459275d0dd249e4",
      "function": "addFeeToken(string)",
      "arguments": [
        "0x6a4dbc971533ba36bdc23ad70f5a7a12e064f4ae"
      ],
      "transaction": {
        "from": "0xe62ab4d111f968660c6b2188046f9b9ba53c4bae",
        "to": "0xf663c3de2d18920ffd7392242459275d0dd249e4",
        "gas": "0x2696b",
        "value": "0x0",
        "input": "0x12a6385f0000000000000000000000000000000000000000000000000000000000000020000000000000000000000000000000000000000000000000000000000000002a30783661346462633937313533336261333662646332336164373066356137613132653036346634616500000000000000000000000000000000000000000000",
        "nonce": "0xe0",
        "chainId": "0x13882"
      },
      "additionalContracts": [],
      "isFixedGasLimit": false
    },
    {
      "hash": "0xfa6000b05cb5d3380767f321ab8b9e772a27bc3433c232af61813fb5a3fb64c7",
      "transactionType": "CALL",
      "contractName": null,
      "contractAddress": "0xf663c3de2d18920ffd7392242459275d0dd249e4",
      "function": "setFeeMultiplier(uint8,uint256)",
      "arguments": [
        "0",
        "2"
      ],
      "transaction": {
        "from": "0xe62ab4d111f968660c6b2188046f9b9ba53c4bae",
        "to": "0xf663c3de2d18920ffd7392242459275d0dd249e4",
        "gas": "0x112e8",
        "value": "0x0",
        "input": "0x0ee24eb500000000000000000000000000000000000000000000000000000000000000000000000000000000000000000000000000000000000000000000000000000002",
        "nonce": "0xe1",
        "chainId": "0x13882"
      },
      "additionalContracts": [],
      "isFixedGasLimit": false
    },
    {
      "hash": "0x2c98c61dd2d0b074b17f6cb19df6b0c34783140fff8adc95a5e6d4b3838ba734",
      "transactionType": "CALL",
      "contractName": null,
      "contractAddress": "0xf663c3de2d18920ffd7392242459275d0dd249e4",
      "function": "setFeeMultiplier(uint8,uint256)",
      "arguments": [
        "1",
        "10"
      ],
      "transaction": {
        "from": "0xe62ab4d111f968660c6b2188046f9b9ba53c4bae",
        "to": "0xf663c3de2d18920ffd7392242459275d0dd249e4",
        "gas": "0x11324",
        "value": "0x0",
        "input": "0x0ee24eb50000000000000000000000000000000000000000000000000000000000000001000000000000000000000000000000000000000000000000000000000000000a",
        "nonce": "0xe2",
        "chainId": "0x13882"
      },
      "additionalContracts": [],
      "isFixedGasLimit": false
    },
    {
      "hash": "0x84584f0b375c7b271db390a753602e8350ddcacfaa88f157b6ca053ddbdd7871",
      "transactionType": "CALL",
      "contractName": null,
      "contractAddress": "0xf663c3de2d18920ffd7392242459275d0dd249e4",
      "function": "setFeeMultiplier(uint8,uint256)",
      "arguments": [
        "2",
        "1"
      ],
      "transaction": {
        "from": "0xe62ab4d111f968660c6b2188046f9b9ba53c4bae",
        "to": "0xf663c3de2d18920ffd7392242459275d0dd249e4",
        "gas": "0x11346",
        "value": "0x0",
        "input": "0x0ee24eb500000000000000000000000000000000000000000000000000000000000000020000000000000000000000000000000000000000000000000000000000000001",
        "nonce": "0xe3",
        "chainId": "0x13882"
      },
      "additionalContracts": [],
      "isFixedGasLimit": false
    },
    {
      "hash": "0x125c274e70e99e9147995e34783f56e11ecf4ab29b365f04ffc798cffd0fcb5d",
      "transactionType": "CALL",
      "contractName": null,
      "contractAddress": "0xf663c3de2d18920ffd7392242459275d0dd249e4",
      "function": "setFeeMultiplier(uint8,uint256)",
      "arguments": [
        "3",
        "4"
      ],
      "transaction": {
        "from": "0xe62ab4d111f968660c6b2188046f9b9ba53c4bae",
        "to": "0xf663c3de2d18920ffd7392242459275d0dd249e4",
        "gas": "0x1041b",
        "value": "0x0",
        "input": "0x0ee24eb500000000000000000000000000000000000000000000000000000000000000030000000000000000000000000000000000000000000000000000000000000004",
        "nonce": "0xe4",
        "chainId": "0x13882"
      },
      "additionalContracts": [],
      "isFixedGasLimit": false
    },
    {
      "hash": "0xa6a3ec52d59ad090cd4dfd1315546e86f8901701d4e190b9d937117580d597da",
      "transactionType": "CALL",
      "contractName": null,
      "contractAddress": "0xf663c3de2d18920ffd7392242459275d0dd249e4",
      "function": "setFeeMultiplier(uint8,uint256)",
      "arguments": [
        "4",
        "4"
      ],
      "transaction": {
        "from": "0xe62ab4d111f968660c6b2188046f9b9ba53c4bae",
        "to": "0xf663c3de2d18920ffd7392242459275d0dd249e4",
        "gas": "0x1043a",
        "value": "0x0",
        "input": "0x0ee24eb500000000000000000000000000000000000000000000000000000000000000040000000000000000000000000000000000000000000000000000000000000004",
        "nonce": "0xe5",
        "chainId": "0x13882"
      },
      "additionalContracts": [],
      "isFixedGasLimit": false
    },
    {
      "hash": "0xd917d296f88a419a53014080934cd7e4150b3a1f5cd67f9d487ff140ebcc817c",
      "transactionType": "CALL",
      "contractName": null,
      "contractAddress": "0xf663c3de2d18920ffd7392242459275d0dd249e4",
      "function": "setFeeMultiplier(uint8,uint256)",
      "arguments": [
        "5",
        "8"
      ],
      "transaction": {
        "from": "0xe62ab4d111f968660c6b2188046f9b9ba53c4bae",
        "to": "0xf663c3de2d18920ffd7392242459275d0dd249e4",
        "gas": "0x10459",
        "value": "0x0",
        "input": "0x0ee24eb500000000000000000000000000000000000000000000000000000000000000050000000000000000000000000000000000000000000000000000000000000008",
        "nonce": "0xe6",
        "chainId": "0x13882"
      },
      "additionalContracts": [],
      "isFixedGasLimit": false
    },
    {
      "hash": "0x21daf6f513467cd7d2c0815770c78c34692898d515d1f2297b9ae0af815c36cf",
      "transactionType": "CALL",
      "contractName": null,
      "contractAddress": "0xf663c3de2d18920ffd7392242459275d0dd249e4",
      "function": "setFeeMultiplier(uint8,uint256)",
      "arguments": [
        "6",
        "4"
      ],
      "transaction": {
        "from": "0xe62ab4d111f968660c6b2188046f9b9ba53c4bae",
        "to": "0xf663c3de2d18920ffd7392242459275d0dd249e4",
        "gas": "0x10473",
        "value": "0x0",
        "input": "0x0ee24eb500000000000000000000000000000000000000000000000000000000000000060000000000000000000000000000000000000000000000000000000000000004",
        "nonce": "0xe7",
        "chainId": "0x13882"
      },
      "additionalContracts": [],
      "isFixedGasLimit": false
    },
    {
      "hash": "0xb3bec20abea331bfa4f688ea67183edb6541e3f5da2cfb62f99393a569f9ac47",
      "transactionType": "CALL",
      "contractName": null,
      "contractAddress": "0xf663c3de2d18920ffd7392242459275d0dd249e4",
      "function": "addFeeToken(string,string[],uint256[])",
      "arguments": [
        "421614",
        "[0x6a4dbc971533ba36bdc23ad70f5a7a12e064f4ae]",
        "[1000]"
      ],
      "transaction": {
        "from": "0xe62ab4d111f968660c6b2188046f9b9ba53c4bae",
        "to": "0xf663c3de2d18920ffd7392242459275d0dd249e4",
        "gas": "0x2f642",
        "value": "0x0",
        "input": "0x437bf84f000000000000000000000000000000000000000000000000000000000000006000000000000000000000000000000000000000000000000000000000000000a000000000000000000000000000000000000000000000000000000000000001400000000000000000000000000000000000000000000000000000000000000006343231363134000000000000000000000000000000000000000000000000000000000000000000000000000000000000000000000000000000000000000000010000000000000000000000000000000000000000000000000000000000000020000000000000000000000000000000000000000000000000000000000000002a30783661346462633937313533336261333662646332336164373066356137613132653036346634616500000000000000000000000000000000000000000000000000000000000000000000000000000000000000000000000000000000000100000000000000000000000000000000000000000000000000000000000003e8",
        "nonce": "0xe8",
        "chainId": "0x13882"
      },
      "additionalContracts": [],
      "isFixedGasLimit": false
    },
    {
      "hash": "0x2ebb4cb55663bc3ff0b5d99cf597883d32acccf5e78a039759ba341dff29f589",
      "transactionType": "CALL",
      "contractName": null,
      "contractAddress": "0xf663c3de2d18920ffd7392242459275d0dd249e4",
      "function": "addFeeToken(string,string[],uint256[])",
      "arguments": [
        "80002",
        "[0x6a4dbc971533ba36bdc23ad70f5a7a12e064f4ae]",
        "[1000]"
      ],
      "transaction": {
        "from": "0xe62ab4d111f968660c6b2188046f9b9ba53c4bae",
        "to": "0xf663c3de2d18920ffd7392242459275d0dd249e4",
        "gas": "0x2a2b1",
        "value": "0x0",
        "input": "0x437bf84f000000000000000000000000000000000000000000000000000000000000006000000000000000000000000000000000000000000000000000000000000000a000000000000000000000000000000000000000000000000000000000000001400000000000000000000000000000000000000000000000000000000000000005383030303200000000000000000000000000000000000000000000000000000000000000000000000000000000000000000000000000000000000000000000010000000000000000000000000000000000000000000000000000000000000020000000000000000000000000000000000000000000000000000000000000002a30783661346462633937313533336261333662646332336164373066356137613132653036346634616500000000000000000000000000000000000000000000000000000000000000000000000000000000000000000000000000000000000100000000000000000000000000000000000000000000000000000000000003e8",
        "nonce": "0xe9",
        "chainId": "0x13882"
      },
      "additionalContracts": [],
      "isFixedGasLimit": false
    },
    {
      "hash": "0xa59d384f597eae5682e6bf79f084dad88a061ae3aeb36945470fbabd046bf242",
      "transactionType": "CALL",
      "contractName": null,
      "contractAddress": "0xf663c3de2d18920ffd7392242459275d0dd249e4",
      "function": "addFeeToken(string,string[],uint256[])",
      "arguments": [
        "84532",
        "[0x6a4dbc971533ba36bdc23ad70f5a7a12e064f4ae]",
        "[1000]"
      ],
      "transaction": {
        "from": "0xe62ab4d111f968660c6b2188046f9b9ba53c4bae",
        "to": "0xf663c3de2d18920ffd7392242459275d0dd249e4",
        "gas": "0x2a2b1",
        "value": "0x0",
        "input": "0x437bf84f000000000000000000000000000000000000000000000000000000000000006000000000000000000000000000000000000000000000000000000000000000a000000000000000000000000000000000000000000000000000000000000001400000000000000000000000000000000000000000000000000000000000000005383435333200000000000000000000000000000000000000000000000000000000000000000000000000000000000000000000000000000000000000000000010000000000000000000000000000000000000000000000000000000000000020000000000000000000000000000000000000000000000000000000000000002a30783661346462633937313533336261333662646332336164373066356137613132653036346634616500000000000000000000000000000000000000000000000000000000000000000000000000000000000000000000000000000000000100000000000000000000000000000000000000000000000000000000000003e8",
        "nonce": "0xea",
        "chainId": "0x13882"
      },
      "additionalContracts": [],
      "isFixedGasLimit": false
    },
    {
      "hash": "0xbe4d6fefadfc6e4a840ca59d7ca77ecb7b16b0c9af23524e4fb1a70c31945f51",
      "transactionType": "CALL",
      "contractName": null,
      "contractAddress": "0xf663c3de2d18920ffd7392242459275d0dd249e4",
      "function": "addFeeToken(string,string[],uint256[])",
      "arguments": [
        "97",
        "[0x6a4dbc971533ba36bdc23ad70f5a7a12e064f4ae]",
        "[1000]"
      ],
      "transaction": {
        "from": "0xe62ab4d111f968660c6b2188046f9b9ba53c4bae",
        "to": "0xf663c3de2d18920ffd7392242459275d0dd249e4",
        "gas": "0x29c69",
        "value": "0x0",
        "input": "0x437bf84f000000000000000000000000000000000000000000000000000000000000006000000000000000000000000000000000000000000000000000000000000000a000000000000000000000000000000000000000000000000000000000000001400000000000000000000000000000000000000000000000000000000000000002393700000000000000000000000000000000000000000000000000000000000000000000000000000000000000000000000000000000000000000000000000010000000000000000000000000000000000000000000000000000000000000020000000000000000000000000000000000000000000000000000000000000002a30783661346462633937313533336261333662646332336164373066356137613132653036346634616500000000000000000000000000000000000000000000000000000000000000000000000000000000000000000000000000000000000100000000000000000000000000000000000000000000000000000000000003e8",
        "nonce": "0xeb",
        "chainId": "0x13882"
      },
      "additionalContracts": [],
      "isFixedGasLimit": false
    },
    {
      "hash": "0x6644b1822792f648b41d625369133725f97d51ba40abaa3c6763c0fe1391f9f4",
      "transactionType": "CALL",
      "contractName": null,
      "contractAddress": "0xf663c3de2d18920ffd7392242459275d0dd249e4",
      "function": "addFeeToken(string,string[],uint256[])",
      "arguments": [
        "11155111",
        "[0x6a4dbc971533ba36bdc23ad70f5a7a12e064f4ae]",
        "[1000]"
      ],
      "transaction": {
        "from": "0xe62ab4d111f968660c6b2188046f9b9ba53c4bae",
        "to": "0xf663c3de2d18920ffd7392242459275d0dd249e4",
        "gas": "0x2a8fa",
        "value": "0x0",
        "input": "0x437bf84f000000000000000000000000000000000000000000000000000000000000006000000000000000000000000000000000000000000000000000000000000000a000000000000000000000000000000000000000000000000000000000000001400000000000000000000000000000000000000000000000000000000000000008313131353531313100000000000000000000000000000000000000000000000000000000000000000000000000000000000000000000000000000000000000010000000000000000000000000000000000000000000000000000000000000020000000000000000000000000000000000000000000000000000000000000002a30783661346462633937313533336261333662646332336164373066356137613132653036346634616500000000000000000000000000000000000000000000000000000000000000000000000000000000000000000000000000000000000100000000000000000000000000000000000000000000000000000000000003e8",
        "nonce": "0xec",
        "chainId": "0x13882"
      },
      "additionalContracts": [],
      "isFixedGasLimit": false
    },
    {
      "hash": "0xdda960e3e42076a8e16faa9ea130e1b10d6431d2e19a1f21520c587cb6a30f4b",
      "transactionType": "CALL",
      "contractName": null,
      "contractAddress": "0xb75a2833405907508bd5f8dea3a24fa537d9c85c",
      "function": "addChainContract(string[],string[])",
      "arguments": [
        "[421614, 84532, 97, 11155111]",
        "[0x82c7cf3ad2a7c6ea732c131e552ad171d190421e, 0x8b8de69a9cbca6b7cb85406dde46116dd520d5b0, 0x291e038ef58dcfdf020e0bbea0c9a36713db7966, 0xf1a79c24eff78ffffbd4f8df0ce31adec284b9cf]"
      ],
      "transaction": {
        "from": "0xe62ab4d111f968660c6b2188046f9b9ba53c4bae",
        "to": "0xb75a2833405907508bd5f8dea3a24fa537d9c85c",
        "gas": "0xaab89",
        "value": "0x0",
        "input": "0x013fd3bd000000000000000000000000000000000000000000000000000000000000004000000000000000000000000000000000000000000000000000000000000001e00000000000000000000000000000000000000000000000000000000000000004000000000000000000000000000000000000000000000000000000000000008000000000000000000000000000000000000000000000000000000000000000c000000000000000000000000000000000000000000000000000000000000001000000000000000000000000000000000000000000000000000000000000000140000000000000000000000000000000000000000000000000000000000000000634323136313400000000000000000000000000000000000000000000000000000000000000000000000000000000000000000000000000000000000000000005383435333200000000000000000000000000000000000000000000000000000000000000000000000000000000000000000000000000000000000000000000023937000000000000000000000000000000000000000000000000000000000000000000000000000000000000000000000000000000000000000000000000000831313135353131310000000000000000000000000000000000000000000000000000000000000000000000000000000000000000000000000000000000000004000000000000000000000000000000000000000000000000000000000000008000000000000000000000000000000000000000000000000000000000000000e0000000000000000000000000000000000000000000000000000000000000014000000000000000000000000000000000000000000000000000000000000001a0000000000000000000000000000000000000000000000000000000000000002a30783832633763663361643261376336656137333263313331653535326164313731643139303432316500000000000000000000000000000000000000000000000000000000000000000000000000000000000000000000000000000000002a30783862386465363961396362636136623763623835343036646465343631313664643532306435623000000000000000000000000000000000000000000000000000000000000000000000000000000000000000000000000000000000002a30783239316530333865663538646366646630323065306262656130633961333637313364623739363600000000000000000000000000000000000000000000000000000000000000000000000000000000000000000000000000000000002a30786631613739633234656666373866666666626434663864663063653331616465633238346239636600000000000000000000000000000000000000000000",
        "nonce": "0xed",
        "chainId": "0x13882"
      },
      "additionalContracts": [],
      "isFixedGasLimit": false
    },
    {
      "hash": "0xbf43000711f29cdd1d22a78d48500de96c10b9dabd5254fd1eee9c24aa14f07c",
      "transactionType": "CALL",
      "contractName": null,
      "contractAddress": "0xb75a2833405907508bd5f8dea3a24fa537d9c85c",
      "function": "attachRWAX(uint256,uint256,string[],string[])",
      "arguments": [
        "1",
        "1",
        "[80002, 421614, 84532, 97, 11155111]",
        "[0x74da08abcb64a66370e9c1609771e68aafede27b, 0x6f2f79720c81631d3a0fe8e19c96f3cebd56519a, 0x24da0f2114b682d01234bc9e103ff7eebf86ae6a, 0x4328bf65bc8c69067a03d0fbde94ca1e24ed966c, 0x2be0c4ac75784737d4d0e75c4026d4bc671b938e]"
      ],
      "transaction": {
        "from": "0xe62ab4d111f968660c6b2188046f9b9ba53c4bae",
        "to": "0xb75a2833405907508bd5f8dea3a24fa537d9c85c",
        "gas": "0xd737f",
        "value": "0x0",
        "input": "0x33a5f5b40000000000000000000000000000000000000000000000000000000000000001000000000000000000000000000000000000000000000000000000000000000100000000000000000000000000000000000000000000000000000000000000800000000000000000000000000000000000000000000000000000000000000280000000000000000000000000000000000000000000000000000000000000000500000000000000000000000000000000000000000000000000000000000000a000000000000000000000000000000000000000000000000000000000000000e00000000000000000000000000000000000000000000000000000000000000120000000000000000000000000000000000000000000000000000000000000016000000000000000000000000000000000000000000000000000000000000001a00000000000000000000000000000000000000000000000000000000000000005383030303200000000000000000000000000000000000000000000000000000000000000000000000000000000000000000000000000000000000000000000063432313631340000000000000000000000000000000000000000000000000000000000000000000000000000000000000000000000000000000000000000000538343533320000000000000000000000000000000000000000000000000000000000000000000000000000000000000000000000000000000000000000000002393700000000000000000000000000000000000000000000000000000000000000000000000000000000000000000000000000000000000000000000000000083131313535313131000000000000000000000000000000000000000000000000000000000000000000000000000000000000000000000000000000000000000500000000000000000000000000000000000000000000000000000000000000a00000000000000000000000000000000000000000000000000000000000000100000000000000000000000000000000000000000000000000000000000000016000000000000000000000000000000000000000000000000000000000000001c00000000000000000000000000000000000000000000000000000000000000220000000000000000000000000000000000000000000000000000000000000002a30783734646130386162636236346136363337306539633136303937373165363861616665646532376200000000000000000000000000000000000000000000000000000000000000000000000000000000000000000000000000000000002a30783666326637393732306338313633316433613066653865313963393666336365626435363531396100000000000000000000000000000000000000000000000000000000000000000000000000000000000000000000000000000000002a30783234646130663231313462363832643031323334626339653130336666376565626638366165366100000000000000000000000000000000000000000000000000000000000000000000000000000000000000000000000000000000002a30783433323862663635626338633639303637613033643066626465393463613165323465643936366300000000000000000000000000000000000000000000000000000000000000000000000000000000000000000000000000000000002a30783262653063346163373537383437333764346430653735633430323664346263363731623933386500000000000000000000000000000000000000000000",
        "nonce": "0xee",
        "chainId": "0x13882"
      },
      "additionalContracts": [],
      "isFixedGasLimit": false
    },
    {
      "hash": "0x23ec5bd735efdd97f788517255f3ff912bbc49efd52c8c1eca5c7b6523378d90",
      "transactionType": "CALL",
      "contractName": null,
      "contractAddress": "0xb75a2833405907508bd5f8dea3a24fa537d9c85c",
      "function": "attachStorageManager(uint256,uint256,string[],string[])",
      "arguments": [
        "1",
        "1",
        "[80002, 421614, 84532, 97, 11155111]",
        "[0x44bd5b80fed6d6574d21f9b748d0b9a1d5566312, 0x6dd5666ef6b2e83d504c1ee586fb3c630abc7fd2, 0x4fb3a28c53c88731d783610d0ff275b02bbf19e0, 0x6187ee058bb5b7db140cfd470a27ebe1f16d92b1, 0x8e36c2b1ac03d98fac0074c9e8e27023a3ce2206]"
      ],
      "transaction": {
        "from": "0xe62ab4d111f968660c6b2188046f9b9ba53c4bae",
        "to": "0xb75a2833405907508bd5f8dea3a24fa537d9c85c",
        "gas": "0xd723f",
        "value": "0x0",
        "input": "0x2f68b4890000000000000000000000000000000000000000000000000000000000000001000000000000000000000000000000000000000000000000000000000000000100000000000000000000000000000000000000000000000000000000000000800000000000000000000000000000000000000000000000000000000000000280000000000000000000000000000000000000000000000000000000000000000500000000000000000000000000000000000000000000000000000000000000a000000000000000000000000000000000000000000000000000000000000000e00000000000000000000000000000000000000000000000000000000000000120000000000000000000000000000000000000000000000000000000000000016000000000000000000000000000000000000000000000000000000000000001a00000000000000000000000000000000000000000000000000000000000000005383030303200000000000000000000000000000000000000000000000000000000000000000000000000000000000000000000000000000000000000000000063432313631340000000000000000000000000000000000000000000000000000000000000000000000000000000000000000000000000000000000000000000538343533320000000000000000000000000000000000000000000000000000000000000000000000000000000000000000000000000000000000000000000002393700000000000000000000000000000000000000000000000000000000000000000000000000000000000000000000000000000000000000000000000000083131313535313131000000000000000000000000000000000000000000000000000000000000000000000000000000000000000000000000000000000000000500000000000000000000000000000000000000000000000000000000000000a00000000000000000000000000000000000000000000000000000000000000100000000000000000000000000000000000000000000000000000000000000016000000000000000000000000000000000000000000000000000000000000001c00000000000000000000000000000000000000000000000000000000000000220000000000000000000000000000000000000000000000000000000000000002a30783434626435623830666564366436353734643231663962373438643062396131643535363633313200000000000000000000000000000000000000000000000000000000000000000000000000000000000000000000000000000000002a30783664643536363665663662326538336435303463316565353836666233633633306162633766643200000000000000000000000000000000000000000000000000000000000000000000000000000000000000000000000000000000002a30783466623361323863353363383837333164373833363130643066663237356230326262663139653000000000000000000000000000000000000000000000000000000000000000000000000000000000000000000000000000000000002a30783631383765653035386262356237646231343063666434373061323765626531663136643932623100000000000000000000000000000000000000000000000000000000000000000000000000000000000000000000000000000000002a30783865333663326231616330336439386661633030373463396538653237303233613363653232303600000000000000000000000000000000000000000000",
        "nonce": "0xef",
        "chainId": "0x13882"
      },
      "additionalContracts": [],
      "isFixedGasLimit": false
    }
  ],
  "receipts": [
    {
      "status": "0x1",
      "cumulativeGasUsed": "0x5eb3",
      "logs": [
        {
          "address": "0x0000000000000000000000000000000000001010",
          "topics": [
            "0x4dfe1bbbcf077ddc3e01291eea2d5c70c2b422b415d95645b9adcfd678cb1d63",
            "0x0000000000000000000000000000000000000000000000000000000000001010",
            "0x000000000000000000000000e62ab4d111f968660c6b2188046f9b9ba53c4bae",
            "0x0000000000000000000000006c095a53250dd250797ff915a716cca690ad8842"
          ],
          "data": "0x0000000000000000000000000000000000000000000000000002b94bbb9b7c4300000000000000000000000000000000000000000000000275b7c680eec199580000000000000000000000000000000000000000000000d7ff1cc3795c52ec5300000000000000000000000000000000000000000000000275b50d3533261d150000000000000000000000000000000000000000000000d7ff1f7cc517ee6896",
          "blockHash": "0x72e2c5540d179b4420327bd1a197157e68f98a14e79520679f1fc89fc1ef5a16",
          "blockNumber": "0xd870a6",
          "transactionHash": "0x8fc65674b57d83a98b9d5e5f5fce784f929cf8c2ce2d5ec7c22789ca404b2101",
          "transactionIndex": "0x0",
          "logIndex": "0x0",
          "removed": false
        }
      ],
      "logsBloom": "0x20000000000000000004000000000000000000000000000000000000000000000000000000000000000000000000000000008000000000000000000000000000000000000000000000000000000000800000000000000000000100000000000000000000000000000000000000000000000000000000040080000000000000000000000000000000400000000000040000000000000000000000000000000000200000000000000000008000000000000000000000000000000000000000004000000000000000000001000000000000000000000000000000100000000000000000000000000000000000000000000000000000000000000000000000100000",
      "type": "0x2",
      "transactionHash": "0x8fc65674b57d83a98b9d5e5f5fce784f929cf8c2ce2d5ec7c22789ca404b2101",
      "transactionIndex": "0x0",
      "blockHash": "0x72e2c5540d179b4420327bd1a197157e68f98a14e79520679f1fc89fc1ef5a16",
      "blockNumber": "0xd870a6",
      "gasUsed": "0x5eb3",
      "effectiveGasPrice": "0x75cff3440",
      "from": "0xe62ab4d111f968660c6b2188046f9b9ba53c4bae",
      "to": "0xf663c3de2d18920ffd7392242459275d0dd249e4",
      "contractAddress": null
    },
    {
      "status": "0x1",
      "cumulativeGasUsed": "0x1bf00",
      "logs": [
        {
          "address": "0xf663c3de2d18920ffd7392242459275d0dd249e4",
          "topics": [
            "0x1394cfab38f3fc78ed77ea6f9318782a446d96e7dc8e9a6b0149f6be25c08bcf",
            "0x0000000000000000000000006a4dbc971533ba36bdc23ad70f5a7a12e064f4ae"
          ],
          "data": "0x",
          "blockHash": "0xa3c9296b8fd872acd1f4d7e261ee9c3c99691547911b67bc56655ba1f026a4a1",
          "blockNumber": "0xd870aa",
          "transactionHash": "0x63a97a6dbc0abdea13c635b94ef5c95b2f03c02a46a9530412722a054d099e3f",
          "transactionIndex": "0x0",
          "logIndex": "0x0",
          "removed": false
        },
        {
          "address": "0x0000000000000000000000000000000000001010",
          "topics": [
            "0x4dfe1bbbcf077ddc3e01291eea2d5c70c2b422b415d95645b9adcfd678cb1d63",
            "0x0000000000000000000000000000000000000000000000000000000000001010",
            "0x000000000000000000000000e62ab4d111f968660c6b2188046f9b9ba53c4bae",
            "0x0000000000000000000000006c095a53250dd250797ff915a716cca690ad8842"
          ],
          "data": "0x000000000000000000000000000000000000000000000000000cdb619c218f0000000000000000000000000000000000000000000000000275b50d35332090980000000000000000000000000000000000000000000000d8000373eb99f1800100000000000000000000000000000000000000000000000275a831d396ff01980000000000000000000000000000000000000000000000d800104f4d36130f01",
          "blockHash": "0xa3c9296b8fd872acd1f4d7e261ee9c3c99691547911b67bc56655ba1f026a4a1",
          "blockNumber": "0xd870aa",
          "transactionHash": "0x63a97a6dbc0abdea13c635b94ef5c95b2f03c02a46a9530412722a054d099e3f",
          "transactionIndex": "0x0",
          "logIndex": "0x1",
          "removed": false
        }
      ],
      "logsBloom": "0x20000000000000000004000000000000000200000000000000000000000000000000000000000000000000000000000000008000000000001000000000000000000000000000000000000000000000800000001000000000000100000000000000000000000000000000000000000000000002000000040080000000020000000000000100000000400000000000040000000000000000000000000000000000200000000000000000008000000000000000000100000000000000000000004000000000000000000001000000000000000000002000000000100000000800000000000000000000000000000000000000000000000000000000000000100000",
      "type": "0x2",
      "transactionHash": "0x63a97a6dbc0abdea13c635b94ef5c95b2f03c02a46a9530412722a054d099e3f",
      "transactionIndex": "0x0",
      "blockHash": "0xa3c9296b8fd872acd1f4d7e261ee9c3c99691547911b67bc56655ba1f026a4a1",
      "blockNumber": "0xd870aa",
      "gasUsed": "0x1bf00",
      "effectiveGasPrice": "0x75cff3440",
      "from": "0xe62ab4d111f968660c6b2188046f9b9ba53c4bae",
      "to": "0xf663c3de2d18920ffd7392242459275d0dd249e4",
      "contractAddress": null
    },
    {
      "status": "0x1",
      "cumulativeGasUsed": "0x36b40",
      "logs": [
        {
          "address": "0x0000000000000000000000000000000000001010",
          "topics": [
            "0x4dfe1bbbcf077ddc3e01291eea2d5c70c2b422b415d95645b9adcfd678cb1d63",
            "0x0000000000000000000000000000000000000000000000000000000000001010",
            "0x000000000000000000000000e62ab4d111f968660c6b2188046f9b9ba53c4bae",
            "0x0000000000000000000000006c095a53250dd250797ff915a716cca690ad8842"
          ],
          "data": "0x00000000000000000000000000000000000000000000000000056817df598ea900000000000000000000000000000000000000000000000275a831d396e4d0980000000000000000000000000000000000000000000000d800eee6e8aa0e151f00000000000000000000000000000000000000000000000275a2c9bbb78b41ef0000000000000000000000000000000000000000000000d800f44f008967a3c8",
          "blockHash": "0x029f2bfe955ec3cee525df5b06da13283138593a84b97f4d59df9c27fe0d2f0a",
          "blockNumber": "0xd870ad",
          "transactionHash": "0xfa6000b05cb5d3380767f321ab8b9e772a27bc3433c232af61813fb5a3fb64c7",
          "transactionIndex": "0x2",
          "logIndex": "0x5",
          "removed": false
        }
      ],
      "logsBloom": "0x20000000000000000004000000000000000000000000000000000000000000000000000000000000000000000000000000008000000000000000000000000000000000000000000000000000000000800000000000000000000100000000000000000000000000000000000000000000000000000000040080000000000000000000000000000000400000000000040000000000000000000000000000000000200000000000000000008000000000000000000000000000000000000000004000000000000000000001000000000000000000000000000000100000000000000000000000000000000000000000000000000000000000000000000000100000",
      "type": "0x2",
      "transactionHash": "0xfa6000b05cb5d3380767f321ab8b9e772a27bc3433c232af61813fb5a3fb64c7",
      "transactionIndex": "0x2",
      "blockHash": "0x029f2bfe955ec3cee525df5b06da13283138593a84b97f4d59df9c27fe0d2f0a",
      "blockNumber": "0xd870ad",
      "gasUsed": "0xbbf9",
      "effectiveGasPrice": "0x75cff3440",
      "from": "0xe62ab4d111f968660c6b2188046f9b9ba53c4bae",
      "to": "0xf663c3de2d18920ffd7392242459275d0dd249e4",
      "contractAddress": null
    },
    {
      "status": "0x1",
      "cumulativeGasUsed": "0x19879",
      "logs": [
        {
          "address": "0x0000000000000000000000000000000000001010",
          "topics": [
            "0x4dfe1bbbcf077ddc3e01291eea2d5c70c2b422b415d95645b9adcfd678cb1d63",
            "0x0000000000000000000000000000000000000000000000000000000000001010",
            "0x000000000000000000000000e62ab4d111f968660c6b2188046f9b9ba53c4bae",
            "0x000000000000000000000000915a2284d28bd93de7d6f31173b981204bb666e6"
          ],
          "data": "0x00000000000000000000000000000000000000000000000000056945c438ea8200000000000000000000000000000000000000000000000275a2c9bbb7803e580000000000000000000000000000000000000000000004c3721ad5218b16c3ee000000000000000000000000000000000000000000000002759d6075f34753d60000000000000000000000000000000000000000000004c372203e674f4fae70",
          "blockHash": "0x3a7fd900c77d4f2c2faa9b524b2029fa820f10c5d8617334217373d62cc8be51",
          "blockNumber": "0xd870b1",
          "transactionHash": "0x2c98c61dd2d0b074b17f6cb19df6b0c34783140fff8adc95a5e6d4b3838ba734",
          "transactionIndex": "0x1",
          "logIndex": "0x2",
          "removed": false
        }
      ],
      "logsBloom": "0x20000000000000000014000000000000000000000000000000000000000000000000000000000000000000000000000000008000000000000000000000000000000000000000000000000000000000800000000000000000000100000000000000000000000000000000000000000000000000000000000080000000000000000000000000000000000000000000040000000000000000000000000000000000200000000000000000000000000000000000000000000000000000000000004000000000000000000001000000000000000002000000000000100000000000000000000000000000000000000000000000000000400000000000000000100000",
      "type": "0x2",
      "transactionHash": "0x2c98c61dd2d0b074b17f6cb19df6b0c34783140fff8adc95a5e6d4b3838ba734",
      "transactionIndex": "0x1",
      "blockHash": "0x3a7fd900c77d4f2c2faa9b524b2029fa820f10c5d8617334217373d62cc8be51",
      "blockNumber": "0xd870b1",
      "gasUsed": "0xbc22",
      "effectiveGasPrice": "0x75cff3440",
      "from": "0xe62ab4d111f968660c6b2188046f9b9ba53c4bae",
      "to": "0xf663c3de2d18920ffd7392242459275d0dd249e4",
      "contractAddress": null
    },
    {
      "status": "0x1",
      "cumulativeGasUsed": "0xbc39",
      "logs": [
        {
          "address": "0x0000000000000000000000000000000000001010",
          "topics": [
            "0x4dfe1bbbcf077ddc3e01291eea2d5c70c2b422b415d95645b9adcfd678cb1d63",
            "0x0000000000000000000000000000000000000000000000000000000000001010",
            "0x000000000000000000000000e62ab4d111f968660c6b2188046f9b9ba53c4bae",
            "0x000000000000000000000000915a2284d28bd93de7d6f31173b981204bb666e6"
          ],
          "data": "0x000000000000000000000000000000000000000000000000000569ef1f269ae9000000000000000000000000000000000000000000000002759d6075f33c4dd80000000000000000000000000000000000000000000004c373661fcc0424fbb60000000000000000000000000000000000000000000000027597f686d415b2ef0000000000000000000000000000000000000000000004c3736b89bb234b969f",
          "blockHash": "0x5b352ae74b6a30f3199ed2e5a3aa8c66bfe6e2bac7f3f1d2dc212a94874ba61d",
          "blockNumber": "0xd870b4",
          "transactionHash": "0x84584f0b375c7b271db390a753602e8350ddcacfaa88f157b6ca053ddbdd7871",
          "transactionIndex": "0x0",
          "logIndex": "0x0",
          "removed": false
        }
      ],
      "logsBloom": "0x20000000000000000014000000000000000000000000000000000000000000000000000000000000000000000000000000008000000000000000000000000000000000000000000000000000000000800000000000000000000100000000000000000000000000000000000000000000000000000000000080000000000000000000000000000000000000000000040000000000000000000000000000000000200000000000000000000000000000000000000000000000000000000000004000000000000000000001000000000000000002000000000000100000000000000000000000000000000000000000000000000000400000000000000000100000",
      "type": "0x2",
      "transactionHash": "0x84584f0b375c7b271db390a753602e8350ddcacfaa88f157b6ca053ddbdd7871",
      "transactionIndex": "0x0",
      "blockHash": "0x5b352ae74b6a30f3199ed2e5a3aa8c66bfe6e2bac7f3f1d2dc212a94874ba61d",
      "blockNumber": "0xd870b4",
      "gasUsed": "0xbc39",
      "effectiveGasPrice": "0x75cff3440",
      "from": "0xe62ab4d111f968660c6b2188046f9b9ba53c4bae",
      "to": "0xf663c3de2d18920ffd7392242459275d0dd249e4",
      "contractAddress": null
    },
    {
      "status": "0x1",
      "cumulativeGasUsed": "0x2284f",
      "logs": [
        {
          "address": "0x0000000000000000000000000000000000001010",
          "topics": [
            "0x4dfe1bbbcf077ddc3e01291eea2d5c70c2b422b415d95645b9adcfd678cb1d63",
            "0x0000000000000000000000000000000000000000000000000000000000001010",
            "0x000000000000000000000000e62ab4d111f968660c6b2188046f9b9ba53c4bae",
            "0x000000000000000000000000915a2284d28bd93de7d6f31173b981204bb666e6"
          ],
          "data": "0x00000000000000000000000000000000000000000000000000056a987a144b500000000000000000000000000000000000000000000000027597f686d40aab980000000000000000000000000000000000000000000004c374184c8bc75b5a0500000000000000000000000000000000000000000000000275928bee59f660480000000000000000000000000000000000000000000004c3741db724416fa555",
          "blockHash": "0x5ee6f290a623a0d52ab7b114e569fa4d31b23c5b52e273abddf315082d967003",
          "blockNumber": "0xd870b7",
          "transactionHash": "0x125c274e70e99e9147995e34783f56e11ecf4ab29b365f04ffc798cffd0fcb5d",
          "transactionIndex": "0x1",
          "logIndex": "0x2",
          "removed": false
        }
      ],
      "logsBloom": "0x20000000000000000014000000000000000000000000000000000000000000000000000000000000000000000000000000008000000000000000000000000000000000000000000000000000000000800000000000000000000100000000000000000000000000000000000000000000000000000000000080000000000000000000000000000000000000000000040000000000000000000000000000000000200000000000000000000000000000000000000000000000000000000000004000000000000000000001000000000000000002000000000000100000000000000000000000000000000000000000000000000000400000000000000000100000",
      "type": "0x2",
      "transactionHash": "0x125c274e70e99e9147995e34783f56e11ecf4ab29b365f04ffc798cffd0fcb5d",
      "transactionIndex": "0x1",
      "blockHash": "0x5ee6f290a623a0d52ab7b114e569fa4d31b23c5b52e273abddf315082d967003",
      "blockNumber": "0xd870b7",
      "gasUsed": "0xbc50",
      "effectiveGasPrice": "0x75cff3440",
      "from": "0xe62ab4d111f968660c6b2188046f9b9ba53c4bae",
      "to": "0xf663c3de2d18920ffd7392242459275d0dd249e4",
      "contractAddress": null
    },
    {
      "status": "0x1",
      "cumulativeGasUsed": "0x9c639",
      "logs": [
        {
          "address": "0x0000000000000000000000000000000000001010",
          "topics": [
            "0x4dfe1bbbcf077ddc3e01291eea2d5c70c2b422b415d95645b9adcfd678cb1d63",
            "0x0000000000000000000000000000000000000000000000000000000000001010",
            "0x000000000000000000000000e62ab4d111f968660c6b2188046f9b9ba53c4bae",
            "0x000000000000000000000000915a2284d28bd93de7d6f31173b981204bb666e6"
          ],
          "data": "0x00000000000000000000000000000000000000000000000000056b41d501fbb700000000000000000000000000000000000000000000000275928bee59eb57980000000000000000000000000000000000000000000004c374a0ba76633c33be000000000000000000000000000000000000000000000002758d20ac84e95be10000000000000000000000000000000000000000000004c374a625b8383e2f75",
          "blockHash": "0xbf97eafebd69676d7c877e73731b72317e11b721718883e88efba392082f74bc",
          "blockNumber": "0xd870bb",
          "transactionHash": "0xa6a3ec52d59ad090cd4dfd1315546e86f8901701d4e190b9d937117580d597da",
          "transactionIndex": "0x1",
          "logIndex": "0x3",
          "removed": false
        }
      ],
      "logsBloom": "0x20000000000000000014000000000000000000000000000000000000000000000000000000000000000000000000000000008000000000000000000000000000000000000000000000000000000000800000000000000000000100000000000000000000000000000000000000000000000000000000000080000000000000000000000000000000000000000000040000000000000000000000000000000000200000000000000000000000000000000000000000000000000000000000004000000000000000000001000000000000000002000000000000100000000000000000000000000000000000000000000000000000400000000000000000100000",
      "type": "0x2",
      "transactionHash": "0xa6a3ec52d59ad090cd4dfd1315546e86f8901701d4e190b9d937117580d597da",
      "transactionIndex": "0x1",
      "blockHash": "0xbf97eafebd69676d7c877e73731b72317e11b721718883e88efba392082f74bc",
      "blockNumber": "0xd870bb",
      "gasUsed": "0xbc67",
      "effectiveGasPrice": "0x75cff3440",
      "from": "0xe62ab4d111f968660c6b2188046f9b9ba53c4bae",
      "to": "0xf663c3de2d18920ffd7392242459275d0dd249e4",
      "contractAddress": null
    },
    {
      "status": "0x1",
      "cumulativeGasUsed": "0x2db5e9",
      "logs": [
        {
          "address": "0x0000000000000000000000000000000000001010",
          "topics": [
            "0x4dfe1bbbcf077ddc3e01291eea2d5c70c2b422b415d95645b9adcfd678cb1d63",
            "0x0000000000000000000000000000000000000000000000000000000000001010",
            "0x000000000000000000000000e62ab4d111f968660c6b2188046f9b9ba53c4bae",
            "0x000000000000000000000000915a2284d28bd93de7d6f31173b981204bb666e6"
          ],
          "data": "0x00000000000000000000000000000000000000000000000000056beb2fefac1e000000000000000000000000000000000000000000000002758d20ac84de51d80000000000000000000000000000000000000000000004c375f4a6182c8be9300000000000000000000000000000000000000000000000027587b4c154eea5ba0000000000000000000000000000000000000000000004c375fa12035c7b954e",
          "blockHash": "0xbdc08729a8263a0ba19ddb7750913204d98147e83edd2f35b44bd27bd4ac060e",
          "blockNumber": "0xd870be",
          "transactionHash": "0xd917d296f88a419a53014080934cd7e4150b3a1f5cd67f9d487ff140ebcc817c",
          "transactionIndex": "0x2",
          "logIndex": "0x7",
          "removed": false
        }
      ],
      "logsBloom": "0x20000000000000000014000000000000000000000000000000000000000000000000000000000000000000000000000000008000000000000000000000000000000000000000000000000000000000800000000000000000000100000000000000000000000000000000000000000000000000000000000080000000000000000000000000000000000000000000040000000000000000000000000000000000200000000000000000000000000000000000000000000000000000000000004000000000000000000001000000000000000002000000000000100000000000000000000000000000000000000000000000000000400000000000000000100000",
      "type": "0x2",
      "transactionHash": "0xd917d296f88a419a53014080934cd7e4150b3a1f5cd67f9d487ff140ebcc817c",
      "transactionIndex": "0x2",
      "blockHash": "0xbdc08729a8263a0ba19ddb7750913204d98147e83edd2f35b44bd27bd4ac060e",
      "blockNumber": "0xd870be",
      "gasUsed": "0xbc7e",
      "effectiveGasPrice": "0x75cff3440",
      "from": "0xe62ab4d111f968660c6b2188046f9b9ba53c4bae",
      "to": "0xf663c3de2d18920ffd7392242459275d0dd249e4",
      "contractAddress": null
    },
    {
      "status": "0x1",
      "cumulativeGasUsed": "0xbc90",
      "logs": [
        {
          "address": "0x0000000000000000000000000000000000001010",
          "topics": [
            "0x4dfe1bbbcf077ddc3e01291eea2d5c70c2b422b415d95645b9adcfd678cb1d63",
            "0x0000000000000000000000000000000000000000000000000000000000001010",
            "0x000000000000000000000000e62ab4d111f968660c6b2188046f9b9ba53c4bae",
            "0x0000000000000000000000004ad84f7014b7b44f723f284a85b1662337971439"
          ],
          "data": "0x00000000000000000000000000000000000000000000000000056c6fb9e157900000000000000000000000000000000000000000000000027587b4c154e39a580000000000000000000000000000000000000000000003d8216ff1028c31906b000000000000000000000000000000000000000000000002758248519b0242c80000000000000000000000000000000000000000000003d821755d724612e7fb",
          "blockHash": "0x1e320e2ba1becf37237eaa8af6f4708394c7f904ca48335d39c8910f96ec21f6",
          "blockNumber": "0xd870c1",
          "transactionHash": "0x21daf6f513467cd7d2c0815770c78c34692898d515d1f2297b9ae0af815c36cf",
          "transactionIndex": "0x0",
          "logIndex": "0x0",
          "removed": false
        }
      ],
      "logsBloom": "0x20000000000000000004000000000000000000000000000000000000000000000000000000000000000000000000000000008000000000000000000000400000000000000000000000000000000000800000000000000000000100001000000000000000000000000000000000000000000000000000000080000000000000000000000000000000000000000000040000000000000000000000000000000000200000000000000000000000000000000000000000000000000000000000004000000000000000000001000000000000000000000000000000100000000000000000000000000000000000000000008000000000000000000000000000100000",
      "type": "0x2",
      "transactionHash": "0x21daf6f513467cd7d2c0815770c78c34692898d515d1f2297b9ae0af815c36cf",
      "transactionIndex": "0x0",
      "blockHash": "0x1e320e2ba1becf37237eaa8af6f4708394c7f904ca48335d39c8910f96ec21f6",
      "blockNumber": "0xd870c1",
      "gasUsed": "0xbc90",
      "effectiveGasPrice": "0x75cff3440",
      "from": "0xe62ab4d111f968660c6b2188046f9b9ba53c4bae",
      "to": "0xf663c3de2d18920ffd7392242459275d0dd249e4",
      "contractAddress": null
    },
    {
      "status": "0x1",
      "cumulativeGasUsed": "0x224f8",
      "logs": [
        {
          "address": "0x0000000000000000000000000000000000001010",
          "topics": [
            "0x4dfe1bbbcf077ddc3e01291eea2d5c70c2b422b415d95645b9adcfd678cb1d63",
            "0x0000000000000000000000000000000000000000000000000000000000001010",
            "0x000000000000000000000000e62ab4d111f968660c6b2188046f9b9ba53c4bae",
            "0x0000000000000000000000004ad84f7014b7b44f723f284a85b1662337971439"
          ],
          "data": "0x000000000000000000000000000000000000000000000000000fca3462f37378000000000000000000000000000000000000000000000002758248519af736580000000000000000000000000000000000000000000003d821af46869d2a2fbd00000000000000000000000000000000000000000000000275727e1d3803c2e00000000000000000000000000000000000000000000003d821bf10bb001da335",
          "blockHash": "0xfb76bff8c51c957baf39502d6010083f9c339822aa67ec26dc63d6a6a4a8c885",
          "blockNumber": "0xd870c5",
          "transactionHash": "0xb3bec20abea331bfa4f688ea67183edb6541e3f5da2cfb62f99393a569f9ac47",
          "transactionIndex": "0x0",
          "logIndex": "0x0",
          "removed": false
        }
      ],
      "logsBloom": "0x20000000000000000004000000000000000000000000000000000000000000000000000000000000000000000000000000008000000000000000000000400000000000000000000000000000000000800000000000000000000100001000000000000000000000000000000000000000000000000000000080000000000000000000000000000000000000000000040000000000000000000000000000000000200000000000000000000000000000000000000000000000000000000000004000000000000000000001000000000000000000000000000000100000000000000000000000000000000000000000008000000000000000000000000000100000",
      "type": "0x2",
      "transactionHash": "0xb3bec20abea331bfa4f688ea67183edb6541e3f5da2cfb62f99393a569f9ac47",
      "transactionIndex": "0x0",
      "blockHash": "0xfb76bff8c51c957baf39502d6010083f9c339822aa67ec26dc63d6a6a4a8c885",
      "blockNumber": "0xd870c5",
      "gasUsed": "0x224f8",
      "effectiveGasPrice": "0x75cff3440",
      "from": "0xe62ab4d111f968660c6b2188046f9b9ba53c4bae",
      "to": "0xf663c3de2d18920ffd7392242459275d0dd249e4",
      "contractAddress": null
    },
    {
      "status": "0x1",
      "cumulativeGasUsed": "0x1e878",
      "logs": [
        {
          "address": "0x0000000000000000000000000000000000001010",
          "topics": [
            "0x4dfe1bbbcf077ddc3e01291eea2d5c70c2b422b415d95645b9adcfd678cb1d63",
            "0x0000000000000000000000000000000000000000000000000000000000001010",
            "0x000000000000000000000000e62ab4d111f968660c6b2188046f9b9ba53c4bae",
            "0x0000000000000000000000004ad84f7014b7b44f723f284a85b1662337971439"
          ],
          "data": "0x000000000000000000000000000000000000000000000000000e0cba131ddef800000000000000000000000000000000000000000000000275727e1d37e398580000000000000000000000000000000000000000000003d8239c29b0ee7d9e490000000000000000000000000000000000000000000000027564716324c5b9600000000000000000000000000000000000000000000003d823aa366b019b7d41",
          "blockHash": "0x2884cdf02908f04578a8df94dad450b8d08fbbb1678da1508164458bf832a692",
          "blockNumber": "0xd870c9",
          "transactionHash": "0x2ebb4cb55663bc3ff0b5d99cf597883d32acccf5e78a039759ba341dff29f589",
          "transactionIndex": "0x0",
          "logIndex": "0x0",
          "removed": false
        }
      ],
      "logsBloom": "0x20000000000000000004000000000000000000000000000000000000000000000000000000000000000000000000000000008000000000000000000000400000000000000000000000000000000000800000000000000000000100001000000000000000000000000000000000000000000000000000000080000000000000000000000000000000000000000000040000000000000000000000000000000000200000000000000000000000000000000000000000000000000000000000004000000000000000000001000000000000000000000000000000100000000000000000000000000000000000000000008000000000000000000000000000100000",
      "type": "0x2",
      "transactionHash": "0x2ebb4cb55663bc3ff0b5d99cf597883d32acccf5e78a039759ba341dff29f589",
      "transactionIndex": "0x0",
      "blockHash": "0x2884cdf02908f04578a8df94dad450b8d08fbbb1678da1508164458bf832a692",
      "blockNumber": "0xd870c9",
      "gasUsed": "0x1e878",
      "effectiveGasPrice": "0x75cff3440",
      "from": "0xe62ab4d111f968660c6b2188046f9b9ba53c4bae",
      "to": "0xf663c3de2d18920ffd7392242459275d0dd249e4",
      "contractAddress": null
    },
    {
      "status": "0x1",
      "cumulativeGasUsed": "0x2c0ed",
      "logs": [
        {
          "address": "0x0000000000000000000000000000000000001010",
          "topics": [
            "0x4dfe1bbbcf077ddc3e01291eea2d5c70c2b422b415d95645b9adcfd678cb1d63",
            "0x0000000000000000000000000000000000000000000000000000000000001010",
            "0x000000000000000000000000e62ab4d111f968660c6b2188046f9b9ba53c4bae",
            "0x0000000000000000000000004ad84f7014b7b44f723f284a85b1662337971439"
          ],
          "data": "0x000000000000000000000000000000000000000000000000000e0cba131ddef80000000000000000000000000000000000000000000000027564716324a91a580000000000000000000000000000000000000000000003d823c5fdb9a8b8f889000000000000000000000000000000000000000000000002755664a9118b3b600000000000000000000000000000000000000000000003d823d40a73bbd6d781",
          "blockHash": "0x8ba96c33c98019c2d39445bded494844f70f1f2b0a40be8f39ddce6b8dfebc3a",
          "blockNumber": "0xd870cc",
          "transactionHash": "0xa59d384f597eae5682e6bf79f084dad88a061ae3aeb36945470fbabd046bf242",
          "transactionIndex": "0x1",
          "logIndex": "0x2",
          "removed": false
        }
      ],
      "logsBloom": "0x20000000000000000004000000000000000000000000000000000000000000000000000000000000000000000000000000008000000000000000000000400000000000000000000000000000000000800000000000000000000100001000000000000000000000000000000000000000000000000000000080000000000000000000000000000000000000000000040000000000000000000000000000000000200000000000000000000000000000000000000000000000000000000000004000000000000000000001000000000000000000000000000000100000000000000000000000000000000000000000008000000000000000000000000000100000",
      "type": "0x2",
      "transactionHash": "0xa59d384f597eae5682e6bf79f084dad88a061ae3aeb36945470fbabd046bf242",
      "transactionIndex": "0x1",
      "blockHash": "0x8ba96c33c98019c2d39445bded494844f70f1f2b0a40be8f39ddce6b8dfebc3a",
      "blockNumber": "0xd870cc",
      "gasUsed": "0x1e878",
      "effectiveGasPrice": "0x75cff3440",
      "from": "0xe62ab4d111f968660c6b2188046f9b9ba53c4bae",
      "to": "0xf663c3de2d18920ffd7392242459275d0dd249e4",
      "contractAddress": null
    },
    {
      "status": "0x1",
      "cumulativeGasUsed": "0x1e3ec",
      "logs": [
        {
          "address": "0x0000000000000000000000000000000000001010",
          "topics": [
            "0x4dfe1bbbcf077ddc3e01291eea2d5c70c2b422b415d95645b9adcfd678cb1d63",
            "0x0000000000000000000000000000000000000000000000000000000000001010",
            "0x000000000000000000000000e62ab4d111f968660c6b2188046f9b9ba53c4bae",
            "0x00000000000000000000000085ebd6dc97d56f62e371382b38eae91f3bb4ecb2"
          ],
          "data": "0x000000000000000000000000000000000000000000000000000deb3f3abc902c000000000000000000000000000000000000000000000002755664a9116e9c580000000000000000000000000000000000000000000000634cb64282f87bf6a600000000000000000000000000000000000000000000000275487969d6b20c2c0000000000000000000000000000000000000000000000634cc42dc2333886d2",
          "blockHash": "0x661ffa86354e8c3b3d519f835e2c706f62d516bce0d744118a1a26e50c0908e7",
          "blockNumber": "0xd870d0",
          "transactionHash": "0xbe4d6fefadfc6e4a840ca59d7ca77ecb7b16b0c9af23524e4fb1a70c31945f51",
          "transactionIndex": "0x0",
          "logIndex": "0x0",
          "removed": false
        }
      ],
      "logsBloom": "0x20000000000000000004000000000000000000000000020000000000000000000000000000000000000000000000000000008000000000000000000000000000000000000000000000000000000000800000000000000000000100000000000000000000000000000000000000000000000000000000000080000000000000000000000000000000000000000000040000000000000000000010000000000000200000000000000000000000000000000000000000000000000000000000004000000000000000000001000000000000000000000000000000100000000000000000000000020000000000000000000000000000000000000000000000100000",
      "type": "0x2",
      "transactionHash": "0xbe4d6fefadfc6e4a840ca59d7ca77ecb7b16b0c9af23524e4fb1a70c31945f51",
      "transactionIndex": "0x0",
      "blockHash": "0x661ffa86354e8c3b3d519f835e2c706f62d516bce0d744118a1a26e50c0908e7",
      "blockNumber": "0xd870d0",
      "gasUsed": "0x1e3ec",
      "effectiveGasPrice": "0x75cff3440",
      "from": "0xe62ab4d111f968660c6b2188046f9b9ba53c4bae",
      "to": "0xf663c3de2d18920ffd7392242459275d0dd249e4",
      "contractAddress": null
    },
    {
      "status": "0x1",
      "cumulativeGasUsed": "0x3953e",
      "logs": [
        {
          "address": "0x0000000000000000000000000000000000001010",
          "topics": [
            "0x4dfe1bbbcf077ddc3e01291eea2d5c70c2b422b415d95645b9adcfd678cb1d63",
            "0x0000000000000000000000000000000000000000000000000000000000001010",
            "0x000000000000000000000000e62ab4d111f968660c6b2188046f9b9ba53c4bae",
            "0x00000000000000000000000085ebd6dc97d56f62e371382b38eae91f3bb4ecb2"
          ],
          "data": "0x000000000000000000000000000000000000000000000000000e2e34eb7f2dc400000000000000000000000000000000000000000000000275487969d695b1580000000000000000000000000000000000000000000000634d0085ed09f14d03000000000000000000000000000000000000000000000002753a4b34eb1683940000000000000000000000000000000000000000000000634d0eb421f5707ac7",
          "blockHash": "0x68ba80f783e0cdf6b786482e4f3c28fb1caaa84aec19d5a0b10e6815613b1c10",
          "blockNumber": "0xd870d2",
          "transactionHash": "0x6644b1822792f648b41d625369133725f97d51ba40abaa3c6763c0fe1391f9f4",
          "transactionIndex": "0x1",
          "logIndex": "0x3",
          "removed": false
        }
      ],
      "logsBloom": "0x20000000000000000004000000000000000000000000020000000000000000000000000000000000000000000000000000008000000000000000000000000000000000000000000000000000000000800000000000000000000100000000000000000000000000000000000000000000000000000000000080000000000000000000000000000000000000000000040000000000000000000010000000000000200000000000000000000000000000000000000000000000000000000000004000000000000000000001000000000000000000000000000000100000000000000000000000020000000000000000000000000000000000000000000000100000",
      "type": "0x2",
      "transactionHash": "0x6644b1822792f648b41d625369133725f97d51ba40abaa3c6763c0fe1391f9f4",
      "transactionIndex": "0x1",
      "blockHash": "0x68ba80f783e0cdf6b786482e4f3c28fb1caaa84aec19d5a0b10e6815613b1c10",
      "blockNumber": "0xd870d2",
      "gasUsed": "0x1ed04",
      "effectiveGasPrice": "0x75cff3440",
      "from": "0xe62ab4d111f968660c6b2188046f9b9ba53c4bae",
      "to": "0xf663c3de2d18920ffd7392242459275d0dd249e4",
      "contractAddress": null
    },
    {
      "status": "0x1",
      "cumulativeGasUsed": "0x98b2e",
      "logs": [
        {
          "address": "0x0000000000000000000000000000000000001010",
          "topics": [
            "0x4dfe1bbbcf077ddc3e01291eea2d5c70c2b422b415d95645b9adcfd678cb1d63",
            "0x0000000000000000000000000000000000000000000000000000000000001010",
            "0x000000000000000000000000e62ab4d111f968660c6b2188046f9b9ba53c4bae",
            "0x00000000000000000000000085ebd6dc97d56f62e371382b38eae91f3bb4ecb2"
          ],
          "data": "0x0000000000000000000000000000000000000000000000000038e17f5796fdb6000000000000000000000000000000000000000000000002753a4b34eaf9a0580000000000000000000000000000000000000000000000634db746b14fa8adeb000000000000000000000000000000000000000000000002750169b59362a2a20000000000000000000000000000000000000000000000634df02830a73faba1",
          "blockHash": "0xc65aed0511eee0b8bb7b2d54832bc1d9bdc173967305d18b0729ed1e9972614a",
          "blockNumber": "0xd870d6",
          "transactionHash": "0xdda960e3e42076a8e16faa9ea130e1b10d6431d2e19a1f21520c587cb6a30f4b",
          "transactionIndex": "0x1",
          "logIndex": "0x3",
          "removed": false
        }
      ],
      "logsBloom": "0x20000000000000000004000000000000000000000000020000000000000000000000000000000000000000000000000000008000000000000000000000000000000000000000000000000000000000800000000000000000000100000000000000000000000000000000000000000000000000000000000080000000000000000000000000000000000000000000040000000000000000000010000000000000200000000000000000000000000000000000000000000000000000000000004000000000000000000001000000000000000000000000000000100000000000000000000000020000000000000000000000000000000000000000000000100000",
      "type": "0x2",
      "transactionHash": "0xdda960e3e42076a8e16faa9ea130e1b10d6431d2e19a1f21520c587cb6a30f4b",
      "transactionIndex": "0x1",
      "blockHash": "0xc65aed0511eee0b8bb7b2d54832bc1d9bdc173967305d18b0729ed1e9972614a",
      "blockNumber": "0xd870d6",
      "gasUsed": "0x7b996",
      "effectiveGasPrice": "0x75cff3440",
      "from": "0xe62ab4d111f968660c6b2188046f9b9ba53c4bae",
      "to": "0xb75a2833405907508bd5f8dea3a24fa537d9c85c",
      "contractAddress": null
    },
    {
      "status": "0x1",
      "cumulativeGasUsed": "0x9bd08",
      "logs": [
        {
          "address": "0x0000000000000000000000000000000000001010",
          "topics": [
            "0x4dfe1bbbcf077ddc3e01291eea2d5c70c2b422b415d95645b9adcfd678cb1d63",
            "0x0000000000000000000000000000000000000000000000000000000000001010",
            "0x000000000000000000000000e62ab4d111f968660c6b2188046f9b9ba53c4bae",
            "0x00000000000000000000000085ebd6dc97d56f62e371382b38eae91f3bb4ecb2"
          ],
          "data": "0x0000000000000000000000000000000000000000000000000047b4dc273ace88000000000000000000000000000000000000000000000002750169b592eec2d80000000000000000000000000000000000000000000000634dfae3774d3591cc00000000000000000000000000000000000000000000000274b9b4d96bb3f4500000000000000000000000000000000000000000000000634e42985374706054",
          "blockHash": "0xe7575f7e35f1b693157b08fc79256960f4fcc3f688da419ae8beb26d0aea26b2",
          "blockNumber": "0xd870da",
          "transactionHash": "0xbf43000711f29cdd1d22a78d48500de96c10b9dabd5254fd1eee9c24aa14f07c",
          "transactionIndex": "0x0",
          "logIndex": "0x0",
          "removed": false
        }
      ],
      "logsBloom": "0x20000000000000000004000000000000000000000000020000000000000000000000000000000000000000000000000000008000000000000000000000000000000000000000000000000000000000800000000000000000000100000000000000000000000000000000000000000000000000000000000080000000000000000000000000000000000000000000040000000000000000000010000000000000200000000000000000000000000000000000000000000000000000000000004000000000000000000001000000000000000000000000000000100000000000000000000000020000000000000000000000000000000000000000000000100000",
      "type": "0x2",
      "transactionHash": "0xbf43000711f29cdd1d22a78d48500de96c10b9dabd5254fd1eee9c24aa14f07c",
      "transactionIndex": "0x0",
      "blockHash": "0xe7575f7e35f1b693157b08fc79256960f4fcc3f688da419ae8beb26d0aea26b2",
      "blockNumber": "0xd870da",
      "gasUsed": "0x9bd08",
      "effectiveGasPrice": "0x75cff3440",
      "from": "0xe62ab4d111f968660c6b2188046f9b9ba53c4bae",
      "to": "0xb75a2833405907508bd5f8dea3a24fa537d9c85c",
      "contractAddress": null
    },
    {
      "status": "0x1",
      "cumulativeGasUsed": "0xb9fc4",
      "logs": [
        {
          "address": "0x0000000000000000000000000000000000001010",
          "topics": [
            "0x4dfe1bbbcf077ddc3e01291eea2d5c70c2b422b415d95645b9adcfd678cb1d63",
            "0x0000000000000000000000000000000000000000000000000000000000001010",
            "0x000000000000000000000000e62ab4d111f968660c6b2188046f9b9ba53c4bae",
            "0x00000000000000000000000085ebd6dc97d56f62e371382b38eae91f3bb4ecb2"
          ],
          "data": "0x0000000000000000000000000000000000000000000000000047ae2fdff3822000000000000000000000000000000000000000000000000274b9b4d96b21e0d80000000000000000000000000000000000000000000000634e87b0f5b27b00c0000000000000000000000000000000000000000000000002747206a98b2e5eb80000000000000000000000000000000000000000000000634ecf5f25926e82e0",
          "blockHash": "0x56a9a7ee6f7248969068f36c634c2b4c5920db6a976a90d38e8e1b4bff0d65bd",
          "blockNumber": "0xd870dd",
          "transactionHash": "0x23ec5bd735efdd97f788517255f3ff912bbc49efd52c8c1eca5c7b6523378d90",
          "transactionIndex": "0x1",
          "logIndex": "0x4",
          "removed": false
        }
      ],
      "logsBloom": "0x20000000000000000004000000000000000000000000020000000000000000000000000000000000000000000000000000008000000000000000000000000000000000000000000000000000000000800000000000000000000100000000000000000000000000000000000000000000000000000000000080000000000000000000000000000000000000000000040000000000000000000010000000000000200000000000000000000000000000000000000000000000000000000000004000000000000000000001000000000000000000000000000000100000000000000000000000020000000000000000000000000000000000000000000000100000",
      "type": "0x2",
      "transactionHash": "0x23ec5bd735efdd97f788517255f3ff912bbc49efd52c8c1eca5c7b6523378d90",
      "transactionIndex": "0x1",
      "blockHash": "0x56a9a7ee6f7248969068f36c634c2b4c5920db6a976a90d38e8e1b4bff0d65bd",
      "blockNumber": "0xd870dd",
      "gasUsed": "0x9bc20",
      "effectiveGasPrice": "0x75cff3440",
      "from": "0xe62ab4d111f968660c6b2188046f9b9ba53c4bae",
      "to": "0xb75a2833405907508bd5f8dea3a24fa537d9c85c",
      "contractAddress": null
    }
  ],
  "libraries": [],
  "pending": [],
  "returns": {},
  "timestamp": 1731091586,
  "chain": 80002,
  "commit": "ac6d4a5e"
}