{
  "transactions": [
    {
      "hash": "0x7e7a13ae695c8327c3a58b7bc9e23e9ca92cd823c2b4941b51ba41c777c5039d",
      "transactionType": "CALL",
      "contractName": "CTMRWAGateway",
      "contractAddress": "0xb1bc63301670f8ec9ee98bd501c89783d65ddc8a",
      "function": "addChainContract(string[],string[])",
      "arguments": [
        "[59141, 78600, 2484]",
        "[0x41543a4c6423e2546fc58ac63117b5692d68c323, 0x06edc167555ceb6038e2c6b3bed7a47c628f2eed, 0x16b049e17b49c5dc1d8598b53593d4497c858c9a]"
      ],
      "transaction": {
        "from": "0xe62ab4d111f968660c6b2188046f9b9ba53c4bae",
        "to": "0xb1bc63301670f8ec9ee98bd501c89783d65ddc8a",
        "gas": "0xaf40f",
        "value": "0x0",
        "input": "0x013fd3bd000000000000000000000000000000000000000000000000000000000000004000000000000000000000000000000000000000000000000000000000000001800000000000000000000000000000000000000000000000000000000000000003000000000000000000000000000000000000000000000000000000000000006000000000000000000000000000000000000000000000000000000000000000a000000000000000000000000000000000000000000000000000000000000000e00000000000000000000000000000000000000000000000000000000000000005353931343100000000000000000000000000000000000000000000000000000000000000000000000000000000000000000000000000000000000000000000053738363030000000000000000000000000000000000000000000000000000000000000000000000000000000000000000000000000000000000000000000000432343834000000000000000000000000000000000000000000000000000000000000000000000000000000000000000000000000000000000000000000000003000000000000000000000000000000000000000000000000000000000000006000000000000000000000000000000000000000000000000000000000000000c00000000000000000000000000000000000000000000000000000000000000120000000000000000000000000000000000000000000000000000000000000002a30783431353433613463363432336532353436666335386163363331313762353639326436386333323300000000000000000000000000000000000000000000000000000000000000000000000000000000000000000000000000000000002a30783036656463313637353535636562363033386532633662336265643761343763363238663265656400000000000000000000000000000000000000000000000000000000000000000000000000000000000000000000000000000000002a30783136623034396531376234396335646331643835393862353335393364343439376338353863396100000000000000000000000000000000000000000000",
        "nonce": "0x2a6",
        "chainId": "0x13882"
      },
      "additionalContracts": [],
      "isFixedGasLimit": false
    },
    {
      "hash": "0x6b0df1b94e24de754029f364303b656da590ca076615e7a946752235b8114606",
      "transactionType": "CALL",
      "contractName": "CTMRWAGateway",
      "contractAddress": "0xb1bc63301670f8ec9ee98bd501c89783d65ddc8a",
      "function": "attachRWAX(uint256,uint256,string[],string[])",
      "arguments": [
        "1",
        "1",
        "[59141, 78600, 2484]",
        "[0x969035b34b913c507b87fd805fff608fb1fe13f0, 0x282eccb80074e9ab23ea5d28bd795c0bba3726a6, 0xfc63dc90296800c67cbb96330238fc17fbd674a2]"
      ],
      "transaction": {
        "from": "0xe62ab4d111f968660c6b2188046f9b9ba53c4bae",
        "to": "0xb1bc63301670f8ec9ee98bd501c89783d65ddc8a",
        "gas": "0xce2f1",
        "value": "0x0",
        "input": "0x33a5f5b400000000000000000000000000000000000000000000000000000000000000010000000000000000000000000000000000000000000000000000000000000001000000000000000000000000000000000000000000000000000000000000008000000000000000000000000000000000000000000000000000000000000001c00000000000000000000000000000000000000000000000000000000000000003000000000000000000000000000000000000000000000000000000000000006000000000000000000000000000000000000000000000000000000000000000a000000000000000000000000000000000000000000000000000000000000000e00000000000000000000000000000000000000000000000000000000000000005353931343100000000000000000000000000000000000000000000000000000000000000000000000000000000000000000000000000000000000000000000053738363030000000000000000000000000000000000000000000000000000000000000000000000000000000000000000000000000000000000000000000000432343834000000000000000000000000000000000000000000000000000000000000000000000000000000000000000000000000000000000000000000000003000000000000000000000000000000000000000000000000000000000000006000000000000000000000000000000000000000000000000000000000000000c00000000000000000000000000000000000000000000000000000000000000120000000000000000000000000000000000000000000000000000000000000002a30783936393033356233346239313363353037623837666438303566666636303866623166653133663000000000000000000000000000000000000000000000000000000000000000000000000000000000000000000000000000000000002a30783238326563636238303037346539616232336561356432386264373935633062626133373236613600000000000000000000000000000000000000000000000000000000000000000000000000000000000000000000000000000000002a30786663363364633930323936383030633637636262393633333032333866633137666264363734613200000000000000000000000000000000000000000000",
        "nonce": "0x2a7",
        "chainId": "0x13882"
      },
      "additionalContracts": [],
      "isFixedGasLimit": false
    },
    {
      "hash": "0x9d0fe58233c868078359482021be2ea909ac8ea8cfa96801c6eb8f63035bffd9",
      "transactionType": "CALL",
      "contractName": "CTMRWAGateway",
      "contractAddress": "0xb1bc63301670f8ec9ee98bd501c89783d65ddc8a",
      "function": "attachStorageManager(uint256,uint256,string[],string[])",
      "arguments": [
        "1",
        "1",
        "[59141, 78600, 2484]",
        "[0x20b88eba092c4ceb11e88f92abe1c01bc7fe7234, 0x8393181277c8a85ec0468b3f1ee61bbfd78e62b4, 0xc74d2556d610f886b55653faffddf4bd0c1605b6]"
      ],
      "transaction": {
        "from": "0xe62ab4d111f968660c6b2188046f9b9ba53c4bae",
        "to": "0xb1bc63301670f8ec9ee98bd501c89783d65ddc8a",
        "gas": "0xb538b",
        "value": "0x0",
        "input": "0x2f68b48900000000000000000000000000000000000000000000000000000000000000010000000000000000000000000000000000000000000000000000000000000001000000000000000000000000000000000000000000000000000000000000008000000000000000000000000000000000000000000000000000000000000001c00000000000000000000000000000000000000000000000000000000000000003000000000000000000000000000000000000000000000000000000000000006000000000000000000000000000000000000000000000000000000000000000a000000000000000000000000000000000000000000000000000000000000000e00000000000000000000000000000000000000000000000000000000000000005353931343100000000000000000000000000000000000000000000000000000000000000000000000000000000000000000000000000000000000000000000053738363030000000000000000000000000000000000000000000000000000000000000000000000000000000000000000000000000000000000000000000000432343834000000000000000000000000000000000000000000000000000000000000000000000000000000000000000000000000000000000000000000000003000000000000000000000000000000000000000000000000000000000000006000000000000000000000000000000000000000000000000000000000000000c00000000000000000000000000000000000000000000000000000000000000120000000000000000000000000000000000000000000000000000000000000002a30783230623838656261303932633463656231316538386639326162653163303162633766653732333400000000000000000000000000000000000000000000000000000000000000000000000000000000000000000000000000000000002a30783833393331383132373763386138356563303436386233663165653631626266643738653632623400000000000000000000000000000000000000000000000000000000000000000000000000000000000000000000000000000000002a30786337346432353536643631306638383662353536353366616666646466346264306331363035623600000000000000000000000000000000000000000000",
        "nonce": "0x2a8",
        "chainId": "0x13882"
      },
      "additionalContracts": [],
      "isFixedGasLimit": false
    },
    {
      "hash": "0xf76d5d0c43a8f9361680daa8ae9edf74ba55aff28c0e65b4ed746d5126b9fdfa",
      "transactionType": "CALL",
      "contractName": "CTMRWAGateway",
      "contractAddress": "0xb1bc63301670f8ec9ee98bd501c89783d65ddc8a",
      "function": "attachSentryManager(uint256,uint256,string[],string[])",
      "arguments": [
        "1",
        "1",
        "[59141, 78600, 2484]",
        "[0xe569c146b0d4c1c941607b5c6a648b5877ae29ef, 0xac71dcf325724594525cc05552bee7d6550a80fd, 0xdbd55d95d447e363251592a8ff573bbf16c2cb68]"
      ],
      "transaction": {
        "from": "0xe62ab4d111f968660c6b2188046f9b9ba53c4bae",
        "to": "0xb1bc63301670f8ec9ee98bd501c89783d65ddc8a",
        "gas": "0xb50f2",
        "value": "0x0",
        "input": "0x349de79700000000000000000000000000000000000000000000000000000000000000010000000000000000000000000000000000000000000000000000000000000001000000000000000000000000000000000000000000000000000000000000008000000000000000000000000000000000000000000000000000000000000001c00000000000000000000000000000000000000000000000000000000000000003000000000000000000000000000000000000000000000000000000000000006000000000000000000000000000000000000000000000000000000000000000a000000000000000000000000000000000000000000000000000000000000000e00000000000000000000000000000000000000000000000000000000000000005353931343100000000000000000000000000000000000000000000000000000000000000000000000000000000000000000000000000000000000000000000053738363030000000000000000000000000000000000000000000000000000000000000000000000000000000000000000000000000000000000000000000000432343834000000000000000000000000000000000000000000000000000000000000000000000000000000000000000000000000000000000000000000000003000000000000000000000000000000000000000000000000000000000000006000000000000000000000000000000000000000000000000000000000000000c00000000000000000000000000000000000000000000000000000000000000120000000000000000000000000000000000000000000000000000000000000002a30786535363963313436623064346331633934313630376235633661363438623538373761653239656600000000000000000000000000000000000000000000000000000000000000000000000000000000000000000000000000000000002a30786163373164636633323537323435393435323563633035353532626565376436353530613830666400000000000000000000000000000000000000000000000000000000000000000000000000000000000000000000000000000000002a30786462643535643935643434376533363332353135393261386666353733626266313663326362363800000000000000000000000000000000000000000000",
        "nonce": "0x2a9",
        "chainId": "0x13882"
      },
      "additionalContracts": [],
      "isFixedGasLimit": false
    }
  ],
  "receipts": [
    {
      "status": "0x1",
      "cumulativeGasUsed": "0x8e42f",
      "logs": [
        {
          "address": "0x0000000000000000000000000000000000001010",
          "topics": [
            "0x4dfe1bbbcf077ddc3e01291eea2d5c70c2b422b415d95645b9adcfd678cb1d63",
            "0x0000000000000000000000000000000000000000000000000000000000001010",
            "0x000000000000000000000000e62ab4d111f968660c6b2188046f9b9ba53c4bae",
            "0x0000000000000000000000006dc2dd54f24979ec26212794c71afefed722280c"
          ],
          "data": "0x00000000000000000000000000000000000000000000000000445026e0bd5a5800000000000000000000000000000000000000000000001ccee3bcd52edb032b0000000000000000000000000000000000000000000006147eb20bdff81548ad00000000000000000000000000000000000000000000001cce9f6cae4e1da8d30000000000000000000000000000000000000000000006147ef65c06d8d2a305",
          "blockHash": "0x11e02d712e9095346f94c2172fb2d1f909093e99d8fd2d11282b7df2ce8bde0d",
          "blockNumber": "0x119f7f1",
          "transactionHash": "0x7e7a13ae695c8327c3a58b7bc9e23e9ca92cd823c2b4941b51ba41c777c5039d",
          "transactionIndex": "0x3",
          "logIndex": "0x6",
          "removed": false
        }
      ],
      "logsBloom": "0x20000000000000000004000000000000000000000000000000000000000000000000000000000000000000000000000000008000000000000000000000000000000000000000000000000000000000800000000000000000000100080000000000000000000000000000000000000000000000000000000080000000000000020000000000000000000000000040040000000000000000000000000000000000200000000000000000000000000000000000000000000000000000000000004000000000000000000001000000000000000000000000000000100000000000000000000000000000000000000000000000000000000000000000000000100000",
      "type": "0x2",
      "transactionHash": "0x7e7a13ae695c8327c3a58b7bc9e23e9ca92cd823c2b4941b51ba41c777c5039d",
      "transactionIndex": "0x3",
      "blockHash": "0x11e02d712e9095346f94c2172fb2d1f909093e99d8fd2d11282b7df2ce8bde0d",
      "blockNumber": "0x119f7f1",
      "gasUsed": "0x7ee17",
      "effectiveGasPrice": "0x89d4e0777",
      "from": "0xe62ab4d111f968660c6b2188046f9b9ba53c4bae",
      "to": "0xb1bc63301670f8ec9ee98bd501c89783d65ddc8a",
      "contractAddress": null
    },
    {
      "status": "0x1",
      "cumulativeGasUsed": "0x95460",
      "logs": [
        {
          "address": "0x0000000000000000000000000000000000001010",
          "topics": [
            "0x4dfe1bbbcf077ddc3e01291eea2d5c70c2b422b415d95645b9adcfd678cb1d63",
            "0x0000000000000000000000000000000000000000000000000000000000001010",
            "0x000000000000000000000000e62ab4d111f968660c6b2188046f9b9ba53c4bae",
            "0x0000000000000000000000006dc2dd54f24979ec26212794c71afefed722280c"
          ],
          "data": "0x00000000000000000000000000000000000000000000000000505e96da58e70000000000000000000000000000000000000000000000001cce9f6cae4da6b57a0000000000000000000000000000000000000000000006147f0dc251c537329400000000000000000000000000000000000000000000001cce4f0e17734dce7a0000000000000000000000000000000000000000000006147f5e20e89f901994",
          "blockHash": "0x14743a6534ea79aaa62bd26509f406bbb2b79124752811cfa767730acddcbda7",
          "blockNumber": "0x119f7f3",
          "transactionHash": "0x6b0df1b94e24de754029f364303b656da590ca076615e7a946752235b8114606",
          "transactionIndex": "0x0",
          "logIndex": "0x0",
          "removed": false
        }
      ],
      "logsBloom": "0x20000000000000000004000000000000000000000000000000000000000000000000000000000000000000000000000000008000000000000000000000000000000000000000000000000000000000800000000000000000000100080000000000000000000000000000000000000000000000000000000080000000000000020000000000000000000000000040040000000000000000000000000000000000200000000000000000000000000000000000000000000000000000000000004000000000000000000001000000000000000000000000000000100000000000000000000000000000000000000000000000000000000000000000000000100000",
      "type": "0x2",
      "transactionHash": "0x6b0df1b94e24de754029f364303b656da590ca076615e7a946752235b8114606",
      "transactionIndex": "0x0",
      "blockHash": "0x14743a6534ea79aaa62bd26509f406bbb2b79124752811cfa767730acddcbda7",
      "blockNumber": "0x119f7f3",
      "gasUsed": "0x95460",
      "effectiveGasPrice": "0x89d4e0777",
      "from": "0xe62ab4d111f968660c6b2188046f9b9ba53c4bae",
      "to": "0xb1bc63301670f8ec9ee98bd501c89783d65ddc8a",
      "contractAddress": null
    },
    {
      "status": "0x1",
      "cumulativeGasUsed": "0x83338",
      "logs": [
        {
          "address": "0x0000000000000000000000000000000000001010",
          "topics": [
            "0x4dfe1bbbcf077ddc3e01291eea2d5c70c2b422b415d95645b9adcfd678cb1d63",
            "0x0000000000000000000000000000000000000000000000000000000000001010",
            "0x000000000000000000000000e62ab4d111f968660c6b2188046f9b9ba53c4bae",
            "0x0000000000000000000000006dc2dd54f24979ec26212794c71afefed722280c"
          ],
          "data": "0x0000000000000000000000000000000000000000000000000046a3a92fcb56c000000000000000000000000000000000000000000000001cce4f0e1772c1dcda0000000000000000000000000000000000000000000006147f60bd6325743b1c00000000000000000000000000000000000000000000001cce086a6e42f6861a0000000000000000000000000000000000000000000006147fa7610c553f91dc",
          "blockHash": "0x01e4fe3ba6ec925b7d659162996cdf86535e3cc78d88507b76777c8f60fd4a5d",
          "blockNumber": "0x119f7f5",
          "transactionHash": "0x9d0fe58233c868078359482021be2ea909ac8ea8cfa96801c6eb8f63035bffd9",
          "transactionIndex": "0x0",
          "logIndex": "0x0",
          "removed": false
        }
      ],
      "logsBloom": "0x20000000000000000004000000000000000000000000000000000000000000000000000000000000000000000000000000008000000000000000000000000000000000000000000000000000000000800000000000000000000100080000000000000000000000000000000000000000000000000000000080000000000000020000000000000000000000000040040000000000000000000000000000000000200000000000000000000000000000000000000000000000000000000000004000000000000000000001000000000000000000000000000000100000000000000000000000000000000000000000000000000000000000000000000000100000",
      "type": "0x2",
      "transactionHash": "0x9d0fe58233c868078359482021be2ea909ac8ea8cfa96801c6eb8f63035bffd9",
      "transactionIndex": "0x0",
      "blockHash": "0x01e4fe3ba6ec925b7d659162996cdf86535e3cc78d88507b76777c8f60fd4a5d",
      "blockNumber": "0x119f7f5",
      "gasUsed": "0x83338",
      "effectiveGasPrice": "0x89d4e0777",
      "from": "0xe62ab4d111f968660c6b2188046f9b9ba53c4bae",
      "to": "0xb1bc63301670f8ec9ee98bd501c89783d65ddc8a",
      "contractAddress": null
    },
    {
      "status": "0x1",
      "cumulativeGasUsed": "0x83157",
      "logs": [
        {
          "address": "0x0000000000000000000000000000000000001010",
          "topics": [
            "0x4dfe1bbbcf077ddc3e01291eea2d5c70c2b422b415d95645b9adcfd678cb1d63",
            "0x0000000000000000000000000000000000000000000000000000000000001010",
            "0x000000000000000000000000e62ab4d111f968660c6b2188046f9b9ba53c4bae",
            "0x0000000000000000000000006dc2dd54f24979ec26212794c71afefed722280c"
          ],
          "data": "0x00000000000000000000000000000000000000000000000000469379a02f6c5800000000000000000000000000000000000000000000001cce086a6e427b85d20000000000000000000000000000000000000000000006147faa461abdcae36400000000000000000000000000000000000000000000001ccdc1d6f4a24c197a0000000000000000000000000000000000000000000006147ff0d9945dfa4fbc",
          "blockHash": "0x1c956fbd00fa3bd6c036ce47bf3430330910ce2d692eb3bcc30198eb33be7dfe",
          "blockNumber": "0x119f7f7",
          "transactionHash": "0xf76d5d0c43a8f9361680daa8ae9edf74ba55aff28c0e65b4ed746d5126b9fdfa",
          "transactionIndex": "0x0",
          "logIndex": "0x0",
          "removed": false
        }
      ],
      "logsBloom": "0x20000000000000000004000000000000000000000000000000000000000000000000000000000000000000000000000000008000000000000000000000000000000000000000000000000000000000800000000000000000000100080000000000000000000000000000000000000000000000000000000080000000000000020000000000000000000000000040040000000000000000000000000000000000200000000000000000000000000000000000000000000000000000000000004000000000000000000001000000000000000000000000000000100000000000000000000000000000000000000000000000000000000000000000000000100000",
      "type": "0x2",
      "transactionHash": "0xf76d5d0c43a8f9361680daa8ae9edf74ba55aff28c0e65b4ed746d5126b9fdfa",
      "transactionIndex": "0x0",
      "blockHash": "0x1c956fbd00fa3bd6c036ce47bf3430330910ce2d692eb3bcc30198eb33be7dfe",
      "blockNumber": "0x119f7f7",
      "gasUsed": "0x83157",
      "effectiveGasPrice": "0x89d4e0777",
      "from": "0xe62ab4d111f968660c6b2188046f9b9ba53c4bae",
      "to": "0xb1bc63301670f8ec9ee98bd501c89783d65ddc8a",
      "contractAddress": null
    }
  ],
  "libraries": [],
  "pending": [],
  "returns": {},
  "timestamp": 1740425666,
  "chain": 80002,
  "commit": "82ab662e"
}