{
  "transactions": [
    {
      "hash": "0x4bba1b4b22598c8121ef6607d700b9772d6894d8029c44b716f94a11b83122ba",
      "transactionType": "CALL",
      "contractName": null,
      "contractAddress": "0x1944f7fdd330af7b0e7c08349591213e35ed5948",
      "function": "getFeeTokenList()",
      "arguments": [],
      "transaction": {
        "from": "0xe62ab4d111f968660c6b2188046f9b9ba53c4bae",
        "to": "0x1944f7fdd330af7b0e7c08349591213e35ed5948",
        "gas": "0x8a7e",
        "value": "0x0",
        "input": "0xe28ab277",
        "nonce": "0x1bb",
        "chainId": "0x13882"
      },
      "additionalContracts": [],
      "isFixedGasLimit": false
    },
    {
      "hash": "0x3268484621f71d658be898c653b0689fde66906329dd3024dc5788ff8efb261d",
      "transactionType": "CALL",
      "contractName": null,
      "contractAddress": "0x1944f7fdd330af7b0e7c08349591213e35ed5948",
      "function": "addFeeToken(string)",
      "arguments": [
        "0x6a4dbc971533ba36bdc23ad70f5a7a12e064f4ae"
      ],
      "transaction": {
        "from": "0xe62ab4d111f968660c6b2188046f9b9ba53c4bae",
        "to": "0x1944f7fdd330af7b0e7c08349591213e35ed5948",
        "gas": "0x2696b",
        "value": "0x0",
        "input": "0x12a6385f0000000000000000000000000000000000000000000000000000000000000020000000000000000000000000000000000000000000000000000000000000002a30783661346462633937313533336261333662646332336164373066356137613132653036346634616500000000000000000000000000000000000000000000",
        "nonce": "0x1bc",
        "chainId": "0x13882"
      },
      "additionalContracts": [],
      "isFixedGasLimit": false
    },
    {
      "hash": "0x3ff896aed72a22de1052a462bf270cc5e2187460ad6b746a45e692afb3341ea0",
      "transactionType": "CALL",
      "contractName": null,
      "contractAddress": "0x1944f7fdd330af7b0e7c08349591213e35ed5948",
      "function": "setFeeMultiplier(uint8,uint256)",
      "arguments": [
        "0",
        "2"
      ],
      "transaction": {
        "from": "0xe62ab4d111f968660c6b2188046f9b9ba53c4bae",
        "to": "0x1944f7fdd330af7b0e7c08349591213e35ed5948",
        "gas": "0x112e8",
        "value": "0x0",
        "input": "0x0ee24eb500000000000000000000000000000000000000000000000000000000000000000000000000000000000000000000000000000000000000000000000000000002",
        "nonce": "0x1bd",
        "chainId": "0x13882"
      },
      "additionalContracts": [],
      "isFixedGasLimit": false
    },
    {
      "hash": "0xdff8f6210d2e03c9937efeae99782ae6ddf4262026147e45a9b7d45004fdf596",
      "transactionType": "CALL",
      "contractName": null,
      "contractAddress": "0x1944f7fdd330af7b0e7c08349591213e35ed5948",
      "function": "setFeeMultiplier(uint8,uint256)",
      "arguments": [
        "1",
        "10"
      ],
      "transaction": {
        "from": "0xe62ab4d111f968660c6b2188046f9b9ba53c4bae",
        "to": "0x1944f7fdd330af7b0e7c08349591213e35ed5948",
        "gas": "0x11324",
        "value": "0x0",
        "input": "0x0ee24eb50000000000000000000000000000000000000000000000000000000000000001000000000000000000000000000000000000000000000000000000000000000a",
        "nonce": "0x1be",
        "chainId": "0x13882"
      },
      "additionalContracts": [],
      "isFixedGasLimit": false
    },
    {
      "hash": "0x58985a4ef00c69228c709f1f17a50330b4077c311b44756383ff194e65c8d67f",
      "transactionType": "CALL",
      "contractName": null,
      "contractAddress": "0x1944f7fdd330af7b0e7c08349591213e35ed5948",
      "function": "setFeeMultiplier(uint8,uint256)",
      "arguments": [
        "2",
        "1"
      ],
      "transaction": {
        "from": "0xe62ab4d111f968660c6b2188046f9b9ba53c4bae",
        "to": "0x1944f7fdd330af7b0e7c08349591213e35ed5948",
        "gas": "0x11346",
        "value": "0x0",
        "input": "0x0ee24eb500000000000000000000000000000000000000000000000000000000000000020000000000000000000000000000000000000000000000000000000000000001",
        "nonce": "0x1bf",
        "chainId": "0x13882"
      },
      "additionalContracts": [],
      "isFixedGasLimit": false
    },
    {
      "hash": "0xf83ce6461e2f0727f5dfde909529d159fedaa0342bc37778a1db9db5cfbffb70",
      "transactionType": "CALL",
      "contractName": null,
      "contractAddress": "0x1944f7fdd330af7b0e7c08349591213e35ed5948",
      "function": "setFeeMultiplier(uint8,uint256)",
      "arguments": [
        "3",
        "4"
      ],
      "transaction": {
        "from": "0xe62ab4d111f968660c6b2188046f9b9ba53c4bae",
        "to": "0x1944f7fdd330af7b0e7c08349591213e35ed5948",
        "gas": "0x1041b",
        "value": "0x0",
        "input": "0x0ee24eb500000000000000000000000000000000000000000000000000000000000000030000000000000000000000000000000000000000000000000000000000000004",
        "nonce": "0x1c0",
        "chainId": "0x13882"
      },
      "additionalContracts": [],
      "isFixedGasLimit": false
    },
    {
      "hash": "0x3908c62c973f55cee679728b145b54a79433086bf03069bb3a6a3140bde321bc",
      "transactionType": "CALL",
      "contractName": null,
      "contractAddress": "0x1944f7fdd330af7b0e7c08349591213e35ed5948",
      "function": "setFeeMultiplier(uint8,uint256)",
      "arguments": [
        "4",
        "4"
      ],
      "transaction": {
        "from": "0xe62ab4d111f968660c6b2188046f9b9ba53c4bae",
        "to": "0x1944f7fdd330af7b0e7c08349591213e35ed5948",
        "gas": "0x1043a",
        "value": "0x0",
        "input": "0x0ee24eb500000000000000000000000000000000000000000000000000000000000000040000000000000000000000000000000000000000000000000000000000000004",
        "nonce": "0x1c1",
        "chainId": "0x13882"
      },
      "additionalContracts": [],
      "isFixedGasLimit": false
    },
    {
      "hash": "0x16f39a2a218b6519ee1e41f1af863d4c9743ae7ffdf1575191655fb59e225601",
      "transactionType": "CALL",
      "contractName": null,
      "contractAddress": "0x1944f7fdd330af7b0e7c08349591213e35ed5948",
      "function": "setFeeMultiplier(uint8,uint256)",
      "arguments": [
        "5",
        "4"
      ],
      "transaction": {
        "from": "0xe62ab4d111f968660c6b2188046f9b9ba53c4bae",
        "to": "0x1944f7fdd330af7b0e7c08349591213e35ed5948",
        "gas": "0x10459",
        "value": "0x0",
        "input": "0x0ee24eb500000000000000000000000000000000000000000000000000000000000000050000000000000000000000000000000000000000000000000000000000000004",
        "nonce": "0x1c2",
        "chainId": "0x13882"
      },
      "additionalContracts": [],
      "isFixedGasLimit": false
    },
    {
      "hash": "0x307401181ca3dface61d2e915c141687b8ec90f0ed5cada1c826ed02ff9044e9",
      "transactionType": "CALL",
      "contractName": null,
      "contractAddress": "0x1944f7fdd330af7b0e7c08349591213e35ed5948",
      "function": "setFeeMultiplier(uint8,uint256)",
      "arguments": [
        "6",
        "8"
      ],
      "transaction": {
        "from": "0xe62ab4d111f968660c6b2188046f9b9ba53c4bae",
        "to": "0x1944f7fdd330af7b0e7c08349591213e35ed5948",
        "gas": "0x1047a",
        "value": "0x0",
        "input": "0x0ee24eb500000000000000000000000000000000000000000000000000000000000000060000000000000000000000000000000000000000000000000000000000000008",
        "nonce": "0x1c3",
        "chainId": "0x13882"
      },
      "additionalContracts": [],
      "isFixedGasLimit": false
    },
    {
      "hash": "0xcb5cda3b0c55cd9abfb87e5a14f6cc92ac52d49b7395f17f45deafd8430032f6",
      "transactionType": "CALL",
      "contractName": null,
      "contractAddress": "0x1944f7fdd330af7b0e7c08349591213e35ed5948",
      "function": "setFeeMultiplier(uint8,uint256)",
      "arguments": [
        "7",
        "4"
      ],
      "transaction": {
        "from": "0xe62ab4d111f968660c6b2188046f9b9ba53c4bae",
        "to": "0x1944f7fdd330af7b0e7c08349591213e35ed5948",
        "gas": "0x10499",
        "value": "0x0",
        "input": "0x0ee24eb500000000000000000000000000000000000000000000000000000000000000070000000000000000000000000000000000000000000000000000000000000004",
        "nonce": "0x1c4",
        "chainId": "0x13882"
      },
      "additionalContracts": [],
      "isFixedGasLimit": false
    },
    {
      "hash": "0x8485b72592cc29c48ad7844af7fce454194f5eeef9f4b1ce4aaa990f7c4cf93b",
      "transactionType": "CALL",
      "contractName": null,
      "contractAddress": "0x1944f7fdd330af7b0e7c08349591213e35ed5948",
      "function": "setFeeMultiplier(uint8,uint256)",
      "arguments": [
        "8",
        "10"
      ],
      "transaction": {
        "from": "0xe62ab4d111f968660c6b2188046f9b9ba53c4bae",
        "to": "0x1944f7fdd330af7b0e7c08349591213e35ed5948",
        "gas": "0x1140f",
        "value": "0x0",
        "input": "0x0ee24eb50000000000000000000000000000000000000000000000000000000000000008000000000000000000000000000000000000000000000000000000000000000a",
        "nonce": "0x1c5",
        "chainId": "0x13882"
      },
      "additionalContracts": [],
      "isFixedGasLimit": false
    },
    {
      "hash": "0x7cbc2c680aec9e4f27af2ccc673f10b83ad448fea6ceffbc3e367d5d307d3d77",
      "transactionType": "CALL",
      "contractName": null,
      "contractAddress": "0x1944f7fdd330af7b0e7c08349591213e35ed5948",
      "function": "setFeeMultiplier(uint8,uint256)",
      "arguments": [
        "9",
        "8"
      ],
      "transaction": {
        "from": "0xe62ab4d111f968660c6b2188046f9b9ba53c4bae",
        "to": "0x1944f7fdd330af7b0e7c08349591213e35ed5948",
        "gas": "0x11431",
        "value": "0x0",
        "input": "0x0ee24eb500000000000000000000000000000000000000000000000000000000000000090000000000000000000000000000000000000000000000000000000000000008",
        "nonce": "0x1c6",
        "chainId": "0x13882"
      },
      "additionalContracts": [],
      "isFixedGasLimit": false
    },
    {
      "hash": "0x6d9f0f0baf5db6630ea18bb00c71bf9ac319f3793c5f396b5967175076eb35fb",
      "transactionType": "CALL",
      "contractName": null,
      "contractAddress": "0x1944f7fdd330af7b0e7c08349591213e35ed5948",
      "function": "setFeeMultiplier(uint8,uint256)",
      "arguments": [
        "10",
        "8"
      ],
      "transaction": {
        "from": "0xe62ab4d111f968660c6b2188046f9b9ba53c4bae",
        "to": "0x1944f7fdd330af7b0e7c08349591213e35ed5948",
        "gas": "0x11453",
        "value": "0x0",
        "input": "0x0ee24eb5000000000000000000000000000000000000000000000000000000000000000a0000000000000000000000000000000000000000000000000000000000000008",
        "nonce": "0x1c7",
        "chainId": "0x13882"
      },
      "additionalContracts": [],
      "isFixedGasLimit": false
    },
    {
      "hash": "0xc5e5dcad39ae770647956c28d1d17b9ddbbb58802d4e48dbe44c77faa0141113",
      "transactionType": "CALL",
      "contractName": null,
      "contractAddress": "0x1944f7fdd330af7b0e7c08349591213e35ed5948",
      "function": "setFeeMultiplier(uint8,uint256)",
      "arguments": [
        "11",
        "8"
      ],
      "transaction": {
        "from": "0xe62ab4d111f968660c6b2188046f9b9ba53c4bae",
        "to": "0x1944f7fdd330af7b0e7c08349591213e35ed5948",
        "gas": "0x10518",
        "value": "0x0",
        "input": "0x0ee24eb5000000000000000000000000000000000000000000000000000000000000000b0000000000000000000000000000000000000000000000000000000000000008",
        "nonce": "0x1c8",
        "chainId": "0x13882"
      },
      "additionalContracts": [],
      "isFixedGasLimit": false
    },
    {
      "hash": "0x4b747d11a0018b4da002fb567cedd922b4b295a071a2574b6d92da97f958fcd4",
      "transactionType": "CALL",
      "contractName": null,
      "contractAddress": "0x1944f7fdd330af7b0e7c08349591213e35ed5948",
      "function": "setFeeMultiplier(uint8,uint256)",
      "arguments": [
        "12",
        "20"
      ],
      "transaction": {
        "from": "0xe62ab4d111f968660c6b2188046f9b9ba53c4bae",
        "to": "0x1944f7fdd330af7b0e7c08349591213e35ed5948",
        "gas": "0x10538",
        "value": "0x0",
        "input": "0x0ee24eb5000000000000000000000000000000000000000000000000000000000000000c0000000000000000000000000000000000000000000000000000000000000014",
        "nonce": "0x1c9",
        "chainId": "0x13882"
      },
      "additionalContracts": [],
      "isFixedGasLimit": false
    },
    {
      "hash": "0x8b42142bdbc568b055328c015ccf2c91adb5aa6f1fd4709ea33aba9825a8c88f",
      "transactionType": "CALL",
      "contractName": null,
      "contractAddress": "0x1944f7fdd330af7b0e7c08349591213e35ed5948",
      "function": "setFeeMultiplier(uint8,uint256)",
      "arguments": [
        "13",
        "8"
      ],
      "transaction": {
        "from": "0xe62ab4d111f968660c6b2188046f9b9ba53c4bae",
        "to": "0x1944f7fdd330af7b0e7c08349591213e35ed5948",
        "gas": "0x10558",
        "value": "0x0",
        "input": "0x0ee24eb5000000000000000000000000000000000000000000000000000000000000000d0000000000000000000000000000000000000000000000000000000000000008",
        "nonce": "0x1ca",
        "chainId": "0x13882"
      },
      "additionalContracts": [],
      "isFixedGasLimit": false
    },
    {
      "hash": "0xc8e97bb7f5dd967b553107ee9edfdf1a7368927aecd06686e7a70d056737a770",
      "transactionType": "CALL",
      "contractName": null,
      "contractAddress": "0x1944f7fdd330af7b0e7c08349591213e35ed5948",
      "function": "setFeeMultiplier(uint8,uint256)",
      "arguments": [
        "14",
        "4"
      ],
      "transaction": {
        "from": "0xe62ab4d111f968660c6b2188046f9b9ba53c4bae",
        "to": "0x1944f7fdd330af7b0e7c08349591213e35ed5948",
        "gas": "0x10577",
        "value": "0x0",
        "input": "0x0ee24eb5000000000000000000000000000000000000000000000000000000000000000e0000000000000000000000000000000000000000000000000000000000000004",
        "nonce": "0x1cb",
        "chainId": "0x13882"
      },
      "additionalContracts": [],
      "isFixedGasLimit": false
    },
    {
      "hash": "0x7514e21a44ea8601ec1a12f240dcf7c9e2d58e2845e34850db3279c2856004ad",
      "transactionType": "CALL",
      "contractName": null,
      "contractAddress": "0x1944f7fdd330af7b0e7c08349591213e35ed5948",
      "function": "setFeeMultiplier(uint8,uint256)",
      "arguments": [
        "15",
        "4"
      ],
      "transaction": {
        "from": "0xe62ab4d111f968660c6b2188046f9b9ba53c4bae",
        "to": "0x1944f7fdd330af7b0e7c08349591213e35ed5948",
        "gas": "0x10598",
        "value": "0x0",
        "input": "0x0ee24eb5000000000000000000000000000000000000000000000000000000000000000f0000000000000000000000000000000000000000000000000000000000000004",
        "nonce": "0x1cc",
        "chainId": "0x13882"
      },
      "additionalContracts": [],
      "isFixedGasLimit": false
    },
    {
      "hash": "0x33d472def9c5314cda606a886cc595a7e5003bb32b82de04c19bb9f3724daf79",
      "transactionType": "CALL",
      "contractName": null,
      "contractAddress": "0x1944f7fdd330af7b0e7c08349591213e35ed5948",
      "function": "setFeeMultiplier(uint8,uint256)",
      "arguments": [
        "16",
        "4"
      ],
      "transaction": {
        "from": "0xe62ab4d111f968660c6b2188046f9b9ba53c4bae",
        "to": "0x1944f7fdd330af7b0e7c08349591213e35ed5948",
        "gas": "0x1151d",
        "value": "0x0",
        "input": "0x0ee24eb500000000000000000000000000000000000000000000000000000000000000100000000000000000000000000000000000000000000000000000000000000004",
        "nonce": "0x1cd",
        "chainId": "0x13882"
      },
      "additionalContracts": [],
      "isFixedGasLimit": false
    },
    {
      "hash": "0x58fdd3949e5f5069f4a894ba356bd4d464c17b8f8cf8fee8f310e76ce4ca5895",
      "transactionType": "CALL",
      "contractName": null,
      "contractAddress": "0x1944f7fdd330af7b0e7c08349591213e35ed5948",
      "function": "setFeeMultiplier(uint8,uint256)",
      "arguments": [
        "17",
        "4"
      ],
      "transaction": {
        "from": "0xe62ab4d111f968660c6b2188046f9b9ba53c4bae",
        "to": "0x1944f7fdd330af7b0e7c08349591213e35ed5948",
        "gas": "0x1153e",
        "value": "0x0",
        "input": "0x0ee24eb500000000000000000000000000000000000000000000000000000000000000110000000000000000000000000000000000000000000000000000000000000004",
        "nonce": "0x1ce",
        "chainId": "0x13882"
      },
      "additionalContracts": [],
      "isFixedGasLimit": false
    },
    {
      "hash": "0x2fdd05ffe6a4b74c20b844f2eb6fc07817bc9264f22d31cc7728e6d66f9b68da",
      "transactionType": "CALL",
      "contractName": null,
      "contractAddress": "0x1944f7fdd330af7b0e7c08349591213e35ed5948",
      "function": "setFeeMultiplier(uint8,uint256)",
      "arguments": [
        "18",
        "2"
      ],
      "transaction": {
        "from": "0xe62ab4d111f968660c6b2188046f9b9ba53c4bae",
        "to": "0x1944f7fdd330af7b0e7c08349591213e35ed5948",
        "gas": "0x11560",
        "value": "0x0",
        "input": "0x0ee24eb500000000000000000000000000000000000000000000000000000000000000120000000000000000000000000000000000000000000000000000000000000002",
        "nonce": "0x1cf",
        "chainId": "0x13882"
      },
      "additionalContracts": [],
      "isFixedGasLimit": false
    },
    {
      "hash": "0x1912cda33d82b4360d6f7e024c60a11e3339073acc52d176438f9f0a8fde044c",
      "transactionType": "CALL",
      "contractName": null,
      "contractAddress": "0x1944f7fdd330af7b0e7c08349591213e35ed5948",
      "function": "setFeeMultiplier(uint8,uint256)",
      "arguments": [
        "19",
        "2"
      ],
      "transaction": {
        "from": "0xe62ab4d111f968660c6b2188046f9b9ba53c4bae",
        "to": "0x1944f7fdd330af7b0e7c08349591213e35ed5948",
        "gas": "0x1157a",
        "value": "0x0",
        "input": "0x0ee24eb500000000000000000000000000000000000000000000000000000000000000130000000000000000000000000000000000000000000000000000000000000002",
        "nonce": "0x1d0",
        "chainId": "0x13882"
      },
      "additionalContracts": [],
      "isFixedGasLimit": false
    },
    {
      "hash": "0xfa875730cc5728455d61bad18f8e6c6612e729879ca43acbd14fad2d684f760d",
      "transactionType": "CALL",
      "contractName": null,
      "contractAddress": "0x1944f7fdd330af7b0e7c08349591213e35ed5948",
      "function": "addFeeToken(string,string[],uint256[])",
      "arguments": [
        "421614",
        "[0x6a4dbc971533ba36bdc23ad70f5a7a12e064f4ae]",
        "[100]"
      ],
      "transaction": {
        "from": "0xe62ab4d111f968660c6b2188046f9b9ba53c4bae",
        "to": "0x1944f7fdd330af7b0e7c08349591213e35ed5948",
        "gas": "0x2f631",
        "value": "0x0",
        "input": "0x437bf84f000000000000000000000000000000000000000000000000000000000000006000000000000000000000000000000000000000000000000000000000000000a000000000000000000000000000000000000000000000000000000000000001400000000000000000000000000000000000000000000000000000000000000006343231363134000000000000000000000000000000000000000000000000000000000000000000000000000000000000000000000000000000000000000000010000000000000000000000000000000000000000000000000000000000000020000000000000000000000000000000000000000000000000000000000000002a3078366134646263393731353333626133366264633233616437306635613761313265303634663461650000000000000000000000000000000000000000000000000000000000000000000000000000000000000000000000000000000000010000000000000000000000000000000000000000000000000000000000000064",
        "nonce": "0x1d1",
        "chainId": "0x13882"
      },
      "additionalContracts": [],
      "isFixedGasLimit": false
    },
    {
      "hash": "0xed624d6f823c56f94fa8bcf898b804f21f1d718c4598758ce64efa90acf4e021",
      "transactionType": "CALL",
      "contractName": null,
      "contractAddress": "0x1944f7fdd330af7b0e7c08349591213e35ed5948",
      "function": "addFeeToken(string,string[],uint256[])",
      "arguments": [
        "80002",
        "[0x6a4dbc971533ba36bdc23ad70f5a7a12e064f4ae]",
        "[100]"
      ],
      "transaction": {
        "from": "0xe62ab4d111f968660c6b2188046f9b9ba53c4bae",
        "to": "0x1944f7fdd330af7b0e7c08349591213e35ed5948",
        "gas": "0x2a2a1",
        "value": "0x0",
        "input": "0x437bf84f000000000000000000000000000000000000000000000000000000000000006000000000000000000000000000000000000000000000000000000000000000a000000000000000000000000000000000000000000000000000000000000001400000000000000000000000000000000000000000000000000000000000000005383030303200000000000000000000000000000000000000000000000000000000000000000000000000000000000000000000000000000000000000000000010000000000000000000000000000000000000000000000000000000000000020000000000000000000000000000000000000000000000000000000000000002a3078366134646263393731353333626133366264633233616437306635613761313265303634663461650000000000000000000000000000000000000000000000000000000000000000000000000000000000000000000000000000000000010000000000000000000000000000000000000000000000000000000000000064",
        "nonce": "0x1d2",
        "chainId": "0x13882"
      },
      "additionalContracts": [],
      "isFixedGasLimit": false
    },
    {
      "hash": "0x9fcc7c45b6d317b5cbaa17b7a499093502216ab24d85d47f862c5454989d5516",
      "transactionType": "CALL",
      "contractName": null,
      "contractAddress": "0x1944f7fdd330af7b0e7c08349591213e35ed5948",
      "function": "addFeeToken(string,string[],uint256[])",
      "arguments": [
        "84532",
        "[0x6a4dbc971533ba36bdc23ad70f5a7a12e064f4ae]",
        "[100]"
      ],
      "transaction": {
        "from": "0xe62ab4d111f968660c6b2188046f9b9ba53c4bae",
        "to": "0x1944f7fdd330af7b0e7c08349591213e35ed5948",
        "gas": "0x2a2a1",
        "value": "0x0",
        "input": "0x437bf84f000000000000000000000000000000000000000000000000000000000000006000000000000000000000000000000000000000000000000000000000000000a000000000000000000000000000000000000000000000000000000000000001400000000000000000000000000000000000000000000000000000000000000005383435333200000000000000000000000000000000000000000000000000000000000000000000000000000000000000000000000000000000000000000000010000000000000000000000000000000000000000000000000000000000000020000000000000000000000000000000000000000000000000000000000000002a3078366134646263393731353333626133366264633233616437306635613761313265303634663461650000000000000000000000000000000000000000000000000000000000000000000000000000000000000000000000000000000000010000000000000000000000000000000000000000000000000000000000000064",
        "nonce": "0x1d3",
        "chainId": "0x13882"
      },
      "additionalContracts": [],
      "isFixedGasLimit": false
    },
    {
      "hash": "0xf041a22aef5240bdb4222373fe2567c48169e09afdf325e2dd557312c8dfc768",
      "transactionType": "CALL",
      "contractName": null,
      "contractAddress": "0x1944f7fdd330af7b0e7c08349591213e35ed5948",
      "function": "addFeeToken(string,string[],uint256[])",
      "arguments": [
        "97",
        "[0x6a4dbc971533ba36bdc23ad70f5a7a12e064f4ae]",
        "[100]"
      ],
      "transaction": {
        "from": "0xe62ab4d111f968660c6b2188046f9b9ba53c4bae",
        "to": "0x1944f7fdd330af7b0e7c08349591213e35ed5948",
        "gas": "0x29c5a",
        "value": "0x0",
        "input": "0x437bf84f000000000000000000000000000000000000000000000000000000000000006000000000000000000000000000000000000000000000000000000000000000a000000000000000000000000000000000000000000000000000000000000001400000000000000000000000000000000000000000000000000000000000000002393700000000000000000000000000000000000000000000000000000000000000000000000000000000000000000000000000000000000000000000000000010000000000000000000000000000000000000000000000000000000000000020000000000000000000000000000000000000000000000000000000000000002a3078366134646263393731353333626133366264633233616437306635613761313265303634663461650000000000000000000000000000000000000000000000000000000000000000000000000000000000000000000000000000000000010000000000000000000000000000000000000000000000000000000000000064",
        "nonce": "0x1d4",
        "chainId": "0x13882"
      },
      "additionalContracts": [],
      "isFixedGasLimit": false
    },
    {
      "hash": "0x9e1d3e55909f94ce2fb5f301ca0163b22493b457eb453a114017f6f25979dd61",
      "transactionType": "CALL",
      "contractName": null,
      "contractAddress": "0x1944f7fdd330af7b0e7c08349591213e35ed5948",
      "function": "addFeeToken(string,string[],uint256[])",
      "arguments": [
        "11155111",
        "[0x6a4dbc971533ba36bdc23ad70f5a7a12e064f4ae]",
        "[100]"
      ],
      "transaction": {
        "from": "0xe62ab4d111f968660c6b2188046f9b9ba53c4bae",
        "to": "0x1944f7fdd330af7b0e7c08349591213e35ed5948",
        "gas": "0x2a8e9",
        "value": "0x0",
        "input": "0x437bf84f000000000000000000000000000000000000000000000000000000000000006000000000000000000000000000000000000000000000000000000000000000a000000000000000000000000000000000000000000000000000000000000001400000000000000000000000000000000000000000000000000000000000000008313131353531313100000000000000000000000000000000000000000000000000000000000000000000000000000000000000000000000000000000000000010000000000000000000000000000000000000000000000000000000000000020000000000000000000000000000000000000000000000000000000000000002a3078366134646263393731353333626133366264633233616437306635613761313265303634663461650000000000000000000000000000000000000000000000000000000000000000000000000000000000000000000000000000000000010000000000000000000000000000000000000000000000000000000000000064",
        "nonce": "0x1d5",
        "chainId": "0x13882"
      },
      "additionalContracts": [],
      "isFixedGasLimit": false
    },
    {
      "hash": "0x7dec06187aebc49682248ea5e41e99f77a0376ea3af18b0ab9025c22558580e3",
      "transactionType": "CALL",
      "contractName": null,
      "contractAddress": "0x1249d751e6a0b7b11b9e55cbf8bc7d397ac3c083",
      "function": "addChainContract(string[],string[])",
      "arguments": [
        "[421614, 84532, 97, 11155111]",
        "[0x9b81c6a2a62eea2a814afdbb5d69ce0592e1c751, 0x2d1967ef42ecf9a42785d08398aadba806aa090b, 0x1392fc45312550197adf2039de80e8da58fc72a3, 0xb07c3788549cd48ad1d4cb9b7336f7c9dd53d67f]"
      ],
      "transaction": {
        "from": "0xe62ab4d111f968660c6b2188046f9b9ba53c4bae",
        "to": "0x1249d751e6a0b7b11b9e55cbf8bc7d397ac3c083",
        "gas": "0xaa791",
        "value": "0x0",
        "input": "0x013fd3bd000000000000000000000000000000000000000000000000000000000000004000000000000000000000000000000000000000000000000000000000000001e00000000000000000000000000000000000000000000000000000000000000004000000000000000000000000000000000000000000000000000000000000008000000000000000000000000000000000000000000000000000000000000000c000000000000000000000000000000000000000000000000000000000000001000000000000000000000000000000000000000000000000000000000000000140000000000000000000000000000000000000000000000000000000000000000634323136313400000000000000000000000000000000000000000000000000000000000000000000000000000000000000000000000000000000000000000005383435333200000000000000000000000000000000000000000000000000000000000000000000000000000000000000000000000000000000000000000000023937000000000000000000000000000000000000000000000000000000000000000000000000000000000000000000000000000000000000000000000000000831313135353131310000000000000000000000000000000000000000000000000000000000000000000000000000000000000000000000000000000000000004000000000000000000000000000000000000000000000000000000000000008000000000000000000000000000000000000000000000000000000000000000e0000000000000000000000000000000000000000000000000000000000000014000000000000000000000000000000000000000000000000000000000000001a0000000000000000000000000000000000000000000000000000000000000002a30783962383163366132613632656561326138313461666462623564363963653035393265316337353100000000000000000000000000000000000000000000000000000000000000000000000000000000000000000000000000000000002a30783264313936376566343265636639613432373835643038333938616164626138303661613039306200000000000000000000000000000000000000000000000000000000000000000000000000000000000000000000000000000000002a30783133393266633435333132353530313937616466323033396465383065386461353866633732613300000000000000000000000000000000000000000000000000000000000000000000000000000000000000000000000000000000002a30786230376333373838353439636434386164316434636239623733333666376339646435336436376600000000000000000000000000000000000000000000",
        "nonce": "0x1d6",
        "chainId": "0x13882"
      },
      "additionalContracts": [],
      "isFixedGasLimit": false
    },
    {
      "hash": "0x4b7db75b6dc17f48fb54e77cec72c4edd8b46455fcb544d3358ae3ea8066104c",
      "transactionType": "CALL",
      "contractName": null,
      "contractAddress": "0x1249d751e6a0b7b11b9e55cbf8bc7d397ac3c083",
      "function": "attachRWAX(uint256,uint256,string[],string[])",
      "arguments": [
        "1",
        "1",
        "[80002, 421614, 84532, 97, 11155111]",
        "[0x797aa64f83e4d17c2c6c80321f22445aab153630, 0xe0f1cd117107457bc14c2f1b82e218157c2a620c, 0xa09e913fa1aa5383a90ad6d8b94bc3dabee90332, 0xc5070659d0290f2eb2b1ed886f3f7574fde5c4be, 0x69d461e1314af5e3bcab39f0eba3872c5de2c1e5]"
      ],
      "transaction": {
        "from": "0xe62ab4d111f968660c6b2188046f9b9ba53c4bae",
        "to": "0x1249d751e6a0b7b11b9e55cbf8bc7d397ac3c083",
        "gas": "0x1059c5",
        "value": "0x0",
        "input": "0x33a5f5b40000000000000000000000000000000000000000000000000000000000000001000000000000000000000000000000000000000000000000000000000000000100000000000000000000000000000000000000000000000000000000000000800000000000000000000000000000000000000000000000000000000000000280000000000000000000000000000000000000000000000000000000000000000500000000000000000000000000000000000000000000000000000000000000a000000000000000000000000000000000000000000000000000000000000000e00000000000000000000000000000000000000000000000000000000000000120000000000000000000000000000000000000000000000000000000000000016000000000000000000000000000000000000000000000000000000000000001a00000000000000000000000000000000000000000000000000000000000000005383030303200000000000000000000000000000000000000000000000000000000000000000000000000000000000000000000000000000000000000000000063432313631340000000000000000000000000000000000000000000000000000000000000000000000000000000000000000000000000000000000000000000538343533320000000000000000000000000000000000000000000000000000000000000000000000000000000000000000000000000000000000000000000002393700000000000000000000000000000000000000000000000000000000000000000000000000000000000000000000000000000000000000000000000000083131313535313131000000000000000000000000000000000000000000000000000000000000000000000000000000000000000000000000000000000000000500000000000000000000000000000000000000000000000000000000000000a00000000000000000000000000000000000000000000000000000000000000100000000000000000000000000000000000000000000000000000000000000016000000000000000000000000000000000000000000000000000000000000001c00000000000000000000000000000000000000000000000000000000000000220000000000000000000000000000000000000000000000000000000000000002a30783739376161363466383365346431376332633663383033323166323234343561616231353336333000000000000000000000000000000000000000000000000000000000000000000000000000000000000000000000000000000000002a30786530663163643131373130373435376263313463326631623832653231383135376332613632306300000000000000000000000000000000000000000000000000000000000000000000000000000000000000000000000000000000002a30786130396539313366613161613533383361393061643664386239346263336461626565393033333200000000000000000000000000000000000000000000000000000000000000000000000000000000000000000000000000000000002a30786335303730363539643032393066326562326231656438383666336637353734666465356334626500000000000000000000000000000000000000000000000000000000000000000000000000000000000000000000000000000000002a30783639643436316531333134616635653362636162333966306562613338373263356465326331653500000000000000000000000000000000000000000000",
        "nonce": "0x1d7",
        "chainId": "0x13882"
      },
      "additionalContracts": [],
      "isFixedGasLimit": false
    },
    {
      "hash": "0x8df7ff9f2e63e93bedd7144b8645c573dcec4a1923d72d71b170ff1c3342806c",
      "transactionType": "CALL",
      "contractName": null,
      "contractAddress": "0x1249d751e6a0b7b11b9e55cbf8bc7d397ac3c083",
      "function": "attachStorageManager(uint256,uint256,string[],string[])",
      "arguments": [
        "1",
        "1",
        "[80002, 421614, 84532, 97, 11155111]",
        "[0xb406b937c12e03d676727fc1bb686279eedbc178, 0x78e9f16b42508a9bc0892bff922c09067de08fc5, 0xa840a5ec6557df201a6a1561dbdc8ad6f3b3faf4, 0x8159be9135ecc4893826e40cf19047a79c523008, 0x8ee0aee8a42f55ed43f5e7db765fa591c4714c41]"
      ],
      "transaction": {
        "from": "0xe62ab4d111f968660c6b2188046f9b9ba53c4bae",
        "to": "0x1249d751e6a0b7b11b9e55cbf8bc7d397ac3c083",
        "gas": "0xe3d34",
        "value": "0x0",
        "input": "0x2f68b4890000000000000000000000000000000000000000000000000000000000000001000000000000000000000000000000000000000000000000000000000000000100000000000000000000000000000000000000000000000000000000000000800000000000000000000000000000000000000000000000000000000000000280000000000000000000000000000000000000000000000000000000000000000500000000000000000000000000000000000000000000000000000000000000a000000000000000000000000000000000000000000000000000000000000000e00000000000000000000000000000000000000000000000000000000000000120000000000000000000000000000000000000000000000000000000000000016000000000000000000000000000000000000000000000000000000000000001a00000000000000000000000000000000000000000000000000000000000000005383030303200000000000000000000000000000000000000000000000000000000000000000000000000000000000000000000000000000000000000000000063432313631340000000000000000000000000000000000000000000000000000000000000000000000000000000000000000000000000000000000000000000538343533320000000000000000000000000000000000000000000000000000000000000000000000000000000000000000000000000000000000000000000002393700000000000000000000000000000000000000000000000000000000000000000000000000000000000000000000000000000000000000000000000000083131313535313131000000000000000000000000000000000000000000000000000000000000000000000000000000000000000000000000000000000000000500000000000000000000000000000000000000000000000000000000000000a00000000000000000000000000000000000000000000000000000000000000100000000000000000000000000000000000000000000000000000000000000016000000000000000000000000000000000000000000000000000000000000001c00000000000000000000000000000000000000000000000000000000000000220000000000000000000000000000000000000000000000000000000000000002a30786234303662393337633132653033643637363732376663316262363836323739656564626331373800000000000000000000000000000000000000000000000000000000000000000000000000000000000000000000000000000000002a30783738653966313662343235303861396263303839326266663932326330393036376465303866633500000000000000000000000000000000000000000000000000000000000000000000000000000000000000000000000000000000002a30786138343061356563363535376466323031613661313536316462646338616436663362336661663400000000000000000000000000000000000000000000000000000000000000000000000000000000000000000000000000000000002a30783831353962653931333565636334383933383236653430636631393034376137396335323330303800000000000000000000000000000000000000000000000000000000000000000000000000000000000000000000000000000000002a30783865653061656538613432663535656434336635653764623736356661353931633437313463343100000000000000000000000000000000000000000000",
        "nonce": "0x1d8",
        "chainId": "0x13882"
      },
      "additionalContracts": [],
      "isFixedGasLimit": false
    }
  ],
  "receipts": [
    {
      "status": "0x1",
      "cumulativeGasUsed": "0x1e0c6",
      "logs": [
        {
          "address": "0x0000000000000000000000000000000000001010",
          "topics": [
            "0x4dfe1bbbcf077ddc3e01291eea2d5c70c2b422b415d95645b9adcfd678cb1d63",
            "0x0000000000000000000000000000000000000000000000000000000000001010",
            "0x000000000000000000000000e62ab4d111f968660c6b2188046f9b9ba53c4bae",
            "0x000000000000000000000000915a2284d28bd93de7d6f31173b981204bb666e6"
          ],
          "data": "0x000000000000000000000000000000000000000000000000000388010b836183000000000000000000000000000000000000000000000001d9a581e32db6c26800000000000000000000000000000000000000000000052e63a4a4dece4af73e000000000000000000000000000000000000000000000001d9a1f9e2223360e500000000000000000000000000000000000000000000052e63a82cdfd9ce58c1",
          "blockHash": "0x32ee2cffe8994eefe221df3dedcf73dfb36004e7029c02bebd8ba67d4f7aebb9",
          "blockNumber": "0xe494e4",
          "transactionHash": "0x4bba1b4b22598c8121ef6607d700b9772d6894d8029c44b716f94a11b83122ba",
          "transactionIndex": "0x2",
          "logIndex": "0x3",
          "removed": false
        }
      ],
      "logsBloom": "0x20000000000000000014000000000000000000000000000000000000000000000000000000000000000000000000000000008000000000000000000000000000000000000000000000000000000000800000000000000000000100000000000000000000000000000000000000000000000000000000000080000000000000000000000000000000000000000000040000000000000000000000000000000000200000000000000000000000000000000000000000000000000000000000004000000000000000000001000000000000000002000000000000100000000000000000000000000000000000000000000000000000400000000000000000100000",
      "type": "0x2",
      "transactionHash": "0x4bba1b4b22598c8121ef6607d700b9772d6894d8029c44b716f94a11b83122ba",
      "transactionIndex": "0x2",
      "blockHash": "0x32ee2cffe8994eefe221df3dedcf73dfb36004e7029c02bebd8ba67d4f7aebb9",
      "blockNumber": "0xe494e4",
      "gasUsed": "0x5eb3",
      "effectiveGasPrice": "0x98bca5a00",
      "from": "0xe62ab4d111f968660c6b2188046f9b9ba53c4bae",
      "to": "0x1944f7fdd330af7b0e7c08349591213e35ed5948",
      "contractAddress": null
    },
    {
      "status": "0x1",
      "cumulativeGasUsed": "0x2146f",
      "logs": [
        {
          "address": "0x1944f7fdd330af7b0e7c08349591213e35ed5948",
          "topics": [
            "0x1394cfab38f3fc78ed77ea6f9318782a446d96e7dc8e9a6b0149f6be25c08bcf",
            "0x0000000000000000000000006a4dbc971533ba36bdc23ad70f5a7a12e064f4ae"
          ],
          "data": "0x",
          "blockHash": "0x6c54902607a8347b33d969816735474aa4f6a16fe23028d2b3b36653748cb249",
          "blockNumber": "0xe494e8",
          "transactionHash": "0x3268484621f71d658be898c653b0689fde66906329dd3024dc5788ff8efb261d",
          "transactionIndex": "0x1",
          "logIndex": "0x1",
          "removed": false
        },
        {
          "address": "0x0000000000000000000000000000000000001010",
          "topics": [
            "0x4dfe1bbbcf077ddc3e01291eea2d5c70c2b422b415d95645b9adcfd678cb1d63",
            "0x0000000000000000000000000000000000000000000000000000000000001010",
            "0x000000000000000000000000e62ab4d111f968660c6b2188046f9b9ba53c4bae",
            "0x000000000000000000000000915a2284d28bd93de7d6f31173b981204bb666e6"
          ],
          "data": "0x0000000000000000000000000000000000000000000000000010ab16530bcf00000000000000000000000000000000000000000000000001d9a1f9e2222dd46800000000000000000000000000000000000000000000052e64d199c284e97f7d000000000000000000000000000000000000000000000001d9914ecbcf22056800000000000000000000000000000000000000000000052e64e244d8d7f54e7d",
          "blockHash": "0x6c54902607a8347b33d969816735474aa4f6a16fe23028d2b3b36653748cb249",
          "blockNumber": "0xe494e8",
          "transactionHash": "0x3268484621f71d658be898c653b0689fde66906329dd3024dc5788ff8efb261d",
          "transactionIndex": "0x1",
          "logIndex": "0x2",
          "removed": false
        }
      ],
      "logsBloom": "0x20000000020000000014000000000000000200000000000000000000000000000000000000000000000000000000000000008000000000001000000000000000000000000000000000000000000000800000001000000000000100000000000000000000000010000000000000000000000000000000000080000000000000000000000100000000000000000000040000000000000000000000000000000000200000000000000000000000000000000000000100000000000000000000004000000000000000000001000000000000000002002000001000100000000000000000000000000000000000000000000000000000400000000000000000100000",
      "type": "0x2",
      "transactionHash": "0x3268484621f71d658be898c653b0689fde66906329dd3024dc5788ff8efb261d",
      "transactionIndex": "0x1",
      "blockHash": "0x6c54902607a8347b33d969816735474aa4f6a16fe23028d2b3b36653748cb249",
      "blockNumber": "0xe494e8",
      "gasUsed": "0x1bf00",
      "effectiveGasPrice": "0x98bca5a00",
      "from": "0xe62ab4d111f968660c6b2188046f9b9ba53c4bae",
      "to": "0x1944f7fdd330af7b0e7c08349591213e35ed5948",
      "contractAddress": null
    },
    {
      "status": "0x1",
      "cumulativeGasUsed": "0x1329fd",
      "logs": [
        {
          "address": "0x0000000000000000000000000000000000001010",
          "topics": [
            "0x4dfe1bbbcf077ddc3e01291eea2d5c70c2b422b415d95645b9adcfd678cb1d63",
            "0x0000000000000000000000000000000000000000000000000000000000001010",
            "0x000000000000000000000000e62ab4d111f968660c6b2188046f9b9ba53c4bae",
            "0x000000000000000000000000915a2284d28bd93de7d6f31173b981204bb666e6"
          ],
          "data": "0x00000000000000000000000000000000000000000000000000070265c7848669000000000000000000000000000000000000000000000001d9914ecbcf07d46800000000000000000000000000000000000000000000052e667696c28876ed53000000000000000000000000000000000000000000000001d98a4c6607834dff00000000000000000000000000000000000000000000052e667d99284ffb73bc",
          "blockHash": "0xf4b98282ba8805f48d7ea1e42da36f79072fb0570f88460f6baff0640d6053c2",
          "blockNumber": "0xe494eb",
          "transactionHash": "0x3ff896aed72a22de1052a462bf270cc5e2187460ad6b746a45e692afb3341ea0",
          "transactionIndex": "0x2",
          "logIndex": "0x7",
          "removed": false
        }
      ],
      "logsBloom": "0x20000000000000000014000000000000000000000000000000000000000000000000000000000000000000000000000000008000000000000000000000000000000000000000000000000000000000800000000000000000000100000000000000000000000000000000000000000000000000000000000080000000000000000000000000000000000000000000040000000000000000000000000000000000200000000000000000000000000000000000000000000000000000000000004000000000000000000001000000000000000002000000000000100000000000000000000000000000000000000000000000000000400000000000000000100000",
      "type": "0x2",
      "transactionHash": "0x3ff896aed72a22de1052a462bf270cc5e2187460ad6b746a45e692afb3341ea0",
      "transactionIndex": "0x2",
      "blockHash": "0xf4b98282ba8805f48d7ea1e42da36f79072fb0570f88460f6baff0640d6053c2",
      "blockNumber": "0xe494eb",
      "gasUsed": "0xbbf9",
      "effectiveGasPrice": "0x98bca5a00",
      "from": "0xe62ab4d111f968660c6b2188046f9b9ba53c4bae",
      "to": "0x1944f7fdd330af7b0e7c08349591213e35ed5948",
      "contractAddress": null
    },
    {
      "status": "0x1",
      "cumulativeGasUsed": "0x1aee5",
      "logs": [
        {
          "address": "0x0000000000000000000000000000000000001010",
          "topics": [
            "0x4dfe1bbbcf077ddc3e01291eea2d5c70c2b422b415d95645b9adcfd678cb1d63",
            "0x0000000000000000000000000000000000000000000000000000000000001010",
            "0x000000000000000000000000e62ab4d111f968660c6b2188046f9b9ba53c4bae",
            "0x000000000000000000000000915a2284d28bd93de7d6f31173b981204bb666e6"
          ],
          "data": "0x000000000000000000000000000000000000000000000000000703ed2aecee02000000000000000000000000000000000000000000000001d98a4c6607784a6800000000000000000000000000000000000000000000052e693f202022db0652000000000000000000000000000000000000000000000001d9834878dc8b5c6600000000000000000000000000000000000000000000052e6946240d4dc7f454",
          "blockHash": "0x78b1c3fe36fd81fa31dfd2c3b7db8dc85b5b54cc252a6ed2bb4043c8f5aec8df",
          "blockNumber": "0xe494ef",
          "transactionHash": "0xdff8f6210d2e03c9937efeae99782ae6ddf4262026147e45a9b7d45004fdf596",
          "transactionIndex": "0x1",
          "logIndex": "0x2",
          "removed": false
        }
      ],
      "logsBloom": "0x20000000000000000014000000000000000000000000000000000000000000000000000000000000000000000000000000008000000000000000000000000000000000000000000000000000000000800000000000000000000100000000000000000000000000000000000000000000000000000000000080000000000000000000000000000000000000000000040000000000000000000000000000000000200000000000000000000000000000000000000000000000000000000000004000000000000000000001000000000000000002000000000000100000000000000000000000000000000000000000000000000000400000000000000000100000",
      "type": "0x2",
      "transactionHash": "0xdff8f6210d2e03c9937efeae99782ae6ddf4262026147e45a9b7d45004fdf596",
      "transactionIndex": "0x1",
      "blockHash": "0x78b1c3fe36fd81fa31dfd2c3b7db8dc85b5b54cc252a6ed2bb4043c8f5aec8df",
      "blockNumber": "0xe494ef",
      "gasUsed": "0xbc22",
      "effectiveGasPrice": "0x98bca5a00",
      "from": "0xe62ab4d111f968660c6b2188046f9b9ba53c4bae",
      "to": "0x1944f7fdd330af7b0e7c08349591213e35ed5948",
      "contractAddress": null
    },
    {
      "status": "0x1",
      "cumulativeGasUsed": "0x10fe5",
      "logs": [
        {
          "address": "0x0000000000000000000000000000000000001010",
          "topics": [
            "0x4dfe1bbbcf077ddc3e01291eea2d5c70c2b422b415d95645b9adcfd678cb1d63",
            "0x0000000000000000000000000000000000000000000000000000000000001010",
            "0x000000000000000000000000e62ab4d111f968660c6b2188046f9b9ba53c4bae",
            "0x00000000000000000000000002f615e95563ef16f10354dba9e584e58d2d4314"
          ],
          "data": "0x000000000000000000000000000000000000000000000000000704c8ba1b02a9000000000000000000000000000000000000000000000001d9834878dc8056680000000000000000000000000000000000000000000000dc96293368a66cf3cf000000000000000000000000000000000000000000000001d97c43b0226553bf0000000000000000000000000000000000000000000000dc963038316087f678",
          "blockHash": "0x4ce19276c80400d52df9f06bc1dbc0048c188deb2d2d6d986f10693f04e974dd",
          "blockNumber": "0xe494f2",
          "transactionHash": "0x58985a4ef00c69228c709f1f17a50330b4077c311b44756383ff194e65c8d67f",
          "transactionIndex": "0x1",
          "logIndex": "0x1",
          "removed": false
        }
      ],
      "logsBloom": "0x20000000000000000004000000000000000000000000000000000008000000000000000000000000020000004000000000008000000000000000000000000000000000000000000000000000000000800000000000000000000100000000000000000000000000000000000000000000000000000000000080000000000000000000000000000000000000000000040000000000000000000000000000000000200000000000000000000000000000000000000000000000000000000000004000000000000000000001000000000000000000000000000000100000000000000000000000000000000000000000000000000000000000000000000000100000",
      "type": "0x2",
      "transactionHash": "0x58985a4ef00c69228c709f1f17a50330b4077c311b44756383ff194e65c8d67f",
      "transactionIndex": "0x1",
      "blockHash": "0x4ce19276c80400d52df9f06bc1dbc0048c188deb2d2d6d986f10693f04e974dd",
      "blockNumber": "0xe494f2",
      "gasUsed": "0xbc39",
      "effectiveGasPrice": "0x98bca5a00",
      "from": "0xe62ab4d111f968660c6b2188046f9b9ba53c4bae",
      "to": "0x1944f7fdd330af7b0e7c08349591213e35ed5948",
      "contractAddress": null
    },
    {
      "status": "0x1",
      "cumulativeGasUsed": "0xbc50",
      "logs": [
        {
          "address": "0x0000000000000000000000000000000000001010",
          "topics": [
            "0x4dfe1bbbcf077ddc3e01291eea2d5c70c2b422b415d95645b9adcfd678cb1d63",
            "0x0000000000000000000000000000000000000000000000000000000000001010",
            "0x000000000000000000000000e62ab4d111f968660c6b2188046f9b9ba53c4bae",
            "0x00000000000000000000000002f615e95563ef16f10354dba9e584e58d2d4314"
          ],
          "data": "0x000000000000000000000000000000000000000000000000000705a449491750000000000000000000000000000000000000000000000001d97c43b0225a4c680000000000000000000000000000000000000000000000dc974c639b6c08535a000000000000000000000000000000000000000000000001d9753e0bd91135180000000000000000000000000000000000000000000000dc9753693fb5516aaa",
          "blockHash": "0xed3efb215d99aa59b013c7defd5d97fde26d0d62f6458e81fe81976a7d1d9c06",
          "blockNumber": "0xe494f5",
          "transactionHash": "0xf83ce6461e2f0727f5dfde909529d159fedaa0342bc37778a1db9db5cfbffb70",
          "transactionIndex": "0x0",
          "logIndex": "0x0",
          "removed": false
        }
      ],
      "logsBloom": "0x20000000000000000004000000000000000000000000000000000008000000000000000000000000020000004000000000008000000000000000000000000000000000000000000000000000000000800000000000000000000100000000000000000000000000000000000000000000000000000000000080000000000000000000000000000000000000000000040000000000000000000000000000000000200000000000000000000000000000000000000000000000000000000000004000000000000000000001000000000000000000000000000000100000000000000000000000000000000000000000000000000000000000000000000000100000",
      "type": "0x2",
      "transactionHash": "0xf83ce6461e2f0727f5dfde909529d159fedaa0342bc37778a1db9db5cfbffb70",
      "transactionIndex": "0x0",
      "blockHash": "0xed3efb215d99aa59b013c7defd5d97fde26d0d62f6458e81fe81976a7d1d9c06",
      "blockNumber": "0xe494f5",
      "gasUsed": "0xbc50",
      "effectiveGasPrice": "0x98bca5a00",
      "from": "0xe62ab4d111f968660c6b2188046f9b9ba53c4bae",
      "to": "0x1944f7fdd330af7b0e7c08349591213e35ed5948",
      "contractAddress": null
    },
    {
      "status": "0x1",
      "cumulativeGasUsed": "0x10e6f",
      "logs": [
        {
          "address": "0x0000000000000000000000000000000000001010",
          "topics": [
            "0x4dfe1bbbcf077ddc3e01291eea2d5c70c2b422b415d95645b9adcfd678cb1d63",
            "0x0000000000000000000000000000000000000000000000000000000000001010",
            "0x000000000000000000000000e62ab4d111f968660c6b2188046f9b9ba53c4bae",
            "0x00000000000000000000000002f615e95563ef16f10354dba9e584e58d2d4314"
          ],
          "data": "0x0000000000000000000000000000000000000000000000000007067fd8772bf7000000000000000000000000000000000000000000000001d9753e0bd9062c680000000000000000000000000000000000000000000000dc991c3fd3dfc9e697000000000000000000000000000000000000000000000001d96e378c008f00710000000000000000000000000000000000000000000000dc99234653b841128e",
          "blockHash": "0xc32b552e5e967bb1512051da989d81d40f592c68407b9946c4e7c0afef315e8b",
          "blockNumber": "0xe494f9",
          "transactionHash": "0x3908c62c973f55cee679728b145b54a79433086bf03069bb3a6a3140bde321bc",
          "transactionIndex": "0x1",
          "logIndex": "0x2",
          "removed": false
        }
      ],
      "logsBloom": "0x20000000000000000004000000000000000000000000000000000008000000000000000000000000020000004000000000008000000000000000000000000000000000000000000000000000000000800000000000000000000100000000000000000000000000000000000000000000000000000000000080000000000000000000000000000000000000000000040000000000000000000000000000000000200000000000000000000000000000000000000000000000000000000000004000000000000000000001000000000000000000000000000000100000000000000000000000000000000000000000000000000000000000000000000000100000",
      "type": "0x2",
      "transactionHash": "0x3908c62c973f55cee679728b145b54a79433086bf03069bb3a6a3140bde321bc",
      "transactionIndex": "0x1",
      "blockHash": "0xc32b552e5e967bb1512051da989d81d40f592c68407b9946c4e7c0afef315e8b",
      "blockNumber": "0xe494f9",
      "gasUsed": "0xbc67",
      "effectiveGasPrice": "0x98bca5a00",
      "from": "0xe62ab4d111f968660c6b2188046f9b9ba53c4bae",
      "to": "0x1944f7fdd330af7b0e7c08349591213e35ed5948",
      "contractAddress": null
    },
    {
      "status": "0x1",
      "cumulativeGasUsed": "0xbc7e",
      "logs": [
        {
          "address": "0x0000000000000000000000000000000000001010",
          "topics": [
            "0x4dfe1bbbcf077ddc3e01291eea2d5c70c2b422b415d95645b9adcfd678cb1d63",
            "0x0000000000000000000000000000000000000000000000000000000000001010",
            "0x000000000000000000000000e62ab4d111f968660c6b2188046f9b9ba53c4bae",
            "0x00000000000000000000000002f615e95563ef16f10354dba9e584e58d2d4314"
          ],
          "data": "0x0000000000000000000000000000000000000000000000000007075b67a5409e000000000000000000000000000000000000000000000001d96e378c0083f6680000000000000000000000000000000000000000000000dc99cb78df02b481db000000000000000000000000000000000000000000000001d967303098deb5ca0000000000000000000000000000000000000000000000dc99d2803a6a59c279",
          "blockHash": "0x3449167a81fb1146208357b33a8ca5101f1cfd6fc8d57975bb7c65f15efeade2",
          "blockNumber": "0xe494fd",
          "transactionHash": "0x16f39a2a218b6519ee1e41f1af863d4c9743ae7ffdf1575191655fb59e225601",
          "transactionIndex": "0x0",
          "logIndex": "0x0",
          "removed": false
        }
      ],
      "logsBloom": "0x20000000000000000004000000000000000000000000000000000008000000000000000000000000020000004000000000008000000000000000000000000000000000000000000000000000000000800000000000000000000100000000000000000000000000000000000000000000000000000000000080000000000000000000000000000000000000000000040000000000000000000000000000000000200000000000000000000000000000000000000000000000000000000000004000000000000000000001000000000000000000000000000000100000000000000000000000000000000000000000000000000000000000000000000000100000",
      "type": "0x2",
      "transactionHash": "0x16f39a2a218b6519ee1e41f1af863d4c9743ae7ffdf1575191655fb59e225601",
      "transactionIndex": "0x0",
      "blockHash": "0x3449167a81fb1146208357b33a8ca5101f1cfd6fc8d57975bb7c65f15efeade2",
      "blockNumber": "0xe494fd",
      "gasUsed": "0xbc7e",
      "effectiveGasPrice": "0x98bca5a00",
      "from": "0xe62ab4d111f968660c6b2188046f9b9ba53c4bae",
      "to": "0x1944f7fdd330af7b0e7c08349591213e35ed5948",
      "contractAddress": null
    },
    {
      "status": "0x1",
      "cumulativeGasUsed": "0x10e9d",
      "logs": [
        {
          "address": "0x0000000000000000000000000000000000001010",
          "topics": [
            "0x4dfe1bbbcf077ddc3e01291eea2d5c70c2b422b415d95645b9adcfd678cb1d63",
            "0x0000000000000000000000000000000000000000000000000000000000001010",
            "0x000000000000000000000000e62ab4d111f968660c6b2188046f9b9ba53c4bae",
            "0x00000000000000000000000009207a6efee346cb3e4a54ac18523e3715d38b3f"
          ],
          "data": "0x00000000000000000000000000000000000000000000000000070836f6d35545000000000000000000000000000000000000000000000001d967303098d3aa680000000000000000000000000000000000000000000003f84e9d4f1a05f9d33b000000000000000000000000000000000000000000000001d96027f9a20055230000000000000000000000000000000000000000000003f84ea45750fccd2880",
          "blockHash": "0xe53512120c9d5281e5f840e7c5120d830db2f47a131395bc9a794b00a7a623be",
          "blockNumber": "0xe49500",
          "transactionHash": "0x307401181ca3dface61d2e915c141687b8ec90f0ed5cada1c826ed02ff9044e9",
          "transactionIndex": "0x1",
          "logIndex": "0x2",
          "removed": false
        }
      ],
      "logsBloom": "0x20000000000000000004000000000000000000000000000000000000000000000000000000000000000000000000000000008000000000000000010000000000000000000000000000000000000000800000000000000000000100000000000000000000000000000000000000000000000000000000000080000000000000000000000000000000000000000000040000004000000000000000000000000000200000000000000000000000000000000000000000000000000000000000004000000000000000000001000000000000000000000000000000100000000000000000000000000000000000010000000000000000000000000000000000100000",
      "type": "0x2",
      "transactionHash": "0x307401181ca3dface61d2e915c141687b8ec90f0ed5cada1c826ed02ff9044e9",
      "transactionIndex": "0x1",
      "blockHash": "0xe53512120c9d5281e5f840e7c5120d830db2f47a131395bc9a794b00a7a623be",
      "blockNumber": "0xe49500",
      "gasUsed": "0xbc95",
      "effectiveGasPrice": "0x98bca5a00",
      "from": "0xe62ab4d111f968660c6b2188046f9b9ba53c4bae",
      "to": "0x1944f7fdd330af7b0e7c08349591213e35ed5948",
      "contractAddress": null
    },
    {
      "status": "0x1",
      "cumulativeGasUsed": "0x3d626",
      "logs": [
        {
          "address": "0x0000000000000000000000000000000000001010",
          "topics": [
            "0x4dfe1bbbcf077ddc3e01291eea2d5c70c2b422b415d95645b9adcfd678cb1d63",
            "0x0000000000000000000000000000000000000000000000000000000000001010",
            "0x000000000000000000000000e62ab4d111f968660c6b2188046f9b9ba53c4bae",
            "0x00000000000000000000000009207a6efee346cb3e4a54ac18523e3715d38b3f"
          ],
          "data": "0x00000000000000000000000000000000000000000000000000070912860169ec000000000000000000000000000000000000000000000001d96027f9a1f548680000000000000000000000000000000000000000000003f84f29c5232b2f4756000000000000000000000000000000000000000000000001d9591ee71bf3de7c0000000000000000000000000000000000000000000003f84f30ce35b130b142",
          "blockHash": "0x8fa9d09fafcf6b890efbc1d2faa67d18c00df91ecd946084f69eeb1806b3fb96",
          "blockNumber": "0xe49503",
          "transactionHash": "0xcb5cda3b0c55cd9abfb87e5a14f6cc92ac52d49b7395f17f45deafd8430032f6",
          "transactionIndex": "0x1",
          "logIndex": "0x4",
          "removed": false
        }
      ],
      "logsBloom": "0x20000000000000000004000000000000000000000000000000000000000000000000000000000000000000000000000000008000000000000000010000000000000000000000000000000000000000800000000000000000000100000000000000000000000000000000000000000000000000000000000080000000000000000000000000000000000000000000040000004000000000000000000000000000200000000000000000000000000000000000000000000000000000000000004000000000000000000001000000000000000000000000000000100000000000000000000000000000000000010000000000000000000000000000000000100000",
      "type": "0x2",
      "transactionHash": "0xcb5cda3b0c55cd9abfb87e5a14f6cc92ac52d49b7395f17f45deafd8430032f6",
      "transactionIndex": "0x1",
      "blockHash": "0x8fa9d09fafcf6b890efbc1d2faa67d18c00df91ecd946084f69eeb1806b3fb96",
      "blockNumber": "0xe49503",
      "gasUsed": "0xbcac",
      "effectiveGasPrice": "0x98bca5a00",
      "from": "0xe62ab4d111f968660c6b2188046f9b9ba53c4bae",
      "to": "0x1944f7fdd330af7b0e7c08349591213e35ed5948",
      "contractAddress": null
    },
    {
      "status": "0x1",
      "cumulativeGasUsed": "0x39365",
      "logs": [
        {
          "address": "0x0000000000000000000000000000000000001010",
          "topics": [
            "0x4dfe1bbbcf077ddc3e01291eea2d5c70c2b422b415d95645b9adcfd678cb1d63",
            "0x0000000000000000000000000000000000000000000000000000000000001010",
            "0x000000000000000000000000e62ab4d111f968660c6b2188046f9b9ba53c4bae",
            "0x00000000000000000000000009207a6efee346cb3e4a54ac18523e3715d38b3f"
          ],
          "data": "0x000000000000000000000000000000000000000000000000000709ee152f7e93000000000000000000000000000000000000000000000001d9591ee71be8d0680000000000000000000000000000000000000000000003f84fac24c29bdddeea000000000000000000000000000000000000000000000001d95214f906b951d50000000000000000000000000000000000000000000003f84fb32eb0b10d5d7d",
          "blockHash": "0x57d27a974552d721691280f5755adbb7181d10af9e4e8cf357c19c2096a93e52",
          "blockNumber": "0xe49506",
          "transactionHash": "0x8485b72592cc29c48ad7844af7fce454194f5eeef9f4b1ce4aaa990f7c4cf93b",
          "transactionIndex": "0x1",
          "logIndex": "0x4",
          "removed": false
        }
      ],
      "logsBloom": "0x20000000000000000004000000000000000000000000000000000000000000000000000000000000000000000000000000008000000000000000010000000000000000000000000000000000000000800000000000000000000100000000000000000000000000000000000000000000000000000000000080000000000000000000000000000000000000000000040000004000000000000000000000000000200000000000000000000000000000000000000000000000000000000000004000000000000000000001000000000000000000000000000000100000000000000000000000000000000000010000000000000000000000000000000000100000",
      "type": "0x2",
      "transactionHash": "0x8485b72592cc29c48ad7844af7fce454194f5eeef9f4b1ce4aaa990f7c4cf93b",
      "transactionIndex": "0x1",
      "blockHash": "0x57d27a974552d721691280f5755adbb7181d10af9e4e8cf357c19c2096a93e52",
      "blockNumber": "0xe49506",
      "gasUsed": "0xbcc3",
      "effectiveGasPrice": "0x98bca5a00",
      "from": "0xe62ab4d111f968660c6b2188046f9b9ba53c4bae",
      "to": "0x1944f7fdd330af7b0e7c08349591213e35ed5948",
      "contractAddress": null
    },
    {
      "status": "0x1",
      "cumulativeGasUsed": "0xa674b",
      "logs": [
        {
          "address": "0x0000000000000000000000000000000000001010",
          "topics": [
            "0x4dfe1bbbcf077ddc3e01291eea2d5c70c2b422b415d95645b9adcfd678cb1d63",
            "0x0000000000000000000000000000000000000000000000000000000000001010",
            "0x000000000000000000000000e62ab4d111f968660c6b2188046f9b9ba53c4bae",
            "0x00000000000000000000000009207a6efee346cb3e4a54ac18523e3715d38b3f"
          ],
          "data": "0x00000000000000000000000000000000000000000000000000070ac9a45d933a000000000000000000000000000000000000000000000001d95214f906ae42680000000000000000000000000000000000000000000003f854ea03d8b2517384000000000000000000000000000000000000000000000001d94b0a2f6250af2e0000000000000000000000000000000000000000000003f854f10ea256af06be",
          "blockHash": "0xd8028097e5b338e6ea1a6094478a2f931f2763459bc106190ca5c608c8d0680d",
          "blockNumber": "0xe4950a",
          "transactionHash": "0x7cbc2c680aec9e4f27af2ccc673f10b83ad448fea6ceffbc3e367d5d307d3d77",
          "transactionIndex": "0x3",
          "logIndex": "0xa",
          "removed": false
        }
      ],
      "logsBloom": "0x20000000000000000004000000000000000000000000000000000000000000000000000000000000000000000000000000008000000000000000010000000000000000000000000000000000000000800000000000000000000100000000000000000000000000000000000000000000000000000000000080000000000000000000000000000000000000000000040000004000000000000000000000000000200000000000000000000000000000000000000000000000000000000000004000000000000000000001000000000000000000000000000000100000000000000000000000000000000000010000000000000000000000000000000000100000",
      "type": "0x2",
      "transactionHash": "0x7cbc2c680aec9e4f27af2ccc673f10b83ad448fea6ceffbc3e367d5d307d3d77",
      "transactionIndex": "0x3",
      "blockHash": "0xd8028097e5b338e6ea1a6094478a2f931f2763459bc106190ca5c608c8d0680d",
      "blockNumber": "0xe4950a",
      "gasUsed": "0xbcda",
      "effectiveGasPrice": "0x98bca5a00",
      "from": "0xe62ab4d111f968660c6b2188046f9b9ba53c4bae",
      "to": "0x1944f7fdd330af7b0e7c08349591213e35ed5948",
      "contractAddress": null
    },
    {
      "status": "0x1",
      "cumulativeGasUsed": "0xbcf1",
      "logs": [
        {
          "address": "0x0000000000000000000000000000000000001010",
          "topics": [
            "0x4dfe1bbbcf077ddc3e01291eea2d5c70c2b422b415d95645b9adcfd678cb1d63",
            "0x0000000000000000000000000000000000000000000000000000000000001010",
            "0x000000000000000000000000e62ab4d111f968660c6b2188046f9b9ba53c4bae",
            "0x00000000000000000000000009207a6efee346cb3e4a54ac18523e3715d38b3f"
          ],
          "data": "0x00000000000000000000000000000000000000000000000000070ba5338ba7e1000000000000000000000000000000000000000000000001d94b0a2f62459e680000000000000000000000000000000000000000000003f858d06f8bd562251f000000000000000000000000000000000000000000000001d943fe8a2eb9f6870000000000000000000000000000000000000000000003f858d77b3108edcd00",
          "blockHash": "0x4ff1f872dea586fa942a46c3ebc79ddb64633b9a32305ebfad4826e10a4fb239",
          "blockNumber": "0xe4950e",
          "transactionHash": "0x6d9f0f0baf5db6630ea18bb00c71bf9ac319f3793c5f396b5967175076eb35fb",
          "transactionIndex": "0x0",
          "logIndex": "0x0",
          "removed": false
        }
      ],
      "logsBloom": "0x20000000000000000004000000000000000000000000000000000000000000000000000000000000000000000000000000008000000000000000010000000000000000000000000000000000000000800000000000000000000100000000000000000000000000000000000000000000000000000000000080000000000000000000000000000000000000000000040000004000000000000000000000000000200000000000000000000000000000000000000000000000000000000000004000000000000000000001000000000000000000000000000000100000000000000000000000000000000000010000000000000000000000000000000000100000",
      "type": "0x2",
      "transactionHash": "0x6d9f0f0baf5db6630ea18bb00c71bf9ac319f3793c5f396b5967175076eb35fb",
      "transactionIndex": "0x0",
      "blockHash": "0x4ff1f872dea586fa942a46c3ebc79ddb64633b9a32305ebfad4826e10a4fb239",
      "blockNumber": "0xe4950e",
      "gasUsed": "0xbcf1",
      "effectiveGasPrice": "0x98bca5a00",
      "from": "0xe62ab4d111f968660c6b2188046f9b9ba53c4bae",
      "to": "0x1944f7fdd330af7b0e7c08349591213e35ed5948",
      "contractAddress": null
    },
    {
      "status": "0x1",
      "cumulativeGasUsed": "0xb64bf",
      "logs": [
        {
          "address": "0x0000000000000000000000000000000000001010",
          "topics": [
            "0x4dfe1bbbcf077ddc3e01291eea2d5c70c2b422b415d95645b9adcfd678cb1d63",
            "0x0000000000000000000000000000000000000000000000000000000000001010",
            "0x000000000000000000000000e62ab4d111f968660c6b2188046f9b9ba53c4bae",
            "0x0000000000000000000000006ab3d36c46ecfb9b9c0bd51cb1c3da5a2c81cea6"
          ],
          "data": "0x00000000000000000000000000000000000000000000000000070c80c2b9bc88000000000000000000000000000000000000000000000001d943fe8a2eaee4680000000000000000000000000000000000000000000003e23a756cc5e90ccfbe000000000000000000000000000000000000000000000001d93cf2096bf527e00000000000000000000000000000000000000000000003e23a7c7946abc68c46",
          "blockHash": "0x79c186a6af8948322622feff8d9312bcf612e27b0e2a307d4c3af5a07cbf52a7",
          "blockNumber": "0xe49511",
          "transactionHash": "0xc5e5dcad39ae770647956c28d1d17b9ddbbb58802d4e48dbe44c77faa0141113",
          "transactionIndex": "0x4",
          "logIndex": "0xf",
          "removed": false
        }
      ],
      "logsBloom": "0x20000000080000000004000000000000000000000000000000000000000000000000000000000000000000000000000000008000000000000000000000000000000000080000000000000000000000800000000000000000000100000000000000000000000000000000000000000000000000000000000080000000000000000000000000000000000000000000040000000000000000000000000000000000200000000000000000000000000000000000000000000000000000000000004000000000000000000001000000000000000000010000000000100000000000000000000000000000000000000000000000000000000000000000000000100000",
      "type": "0x2",
      "transactionHash": "0xc5e5dcad39ae770647956c28d1d17b9ddbbb58802d4e48dbe44c77faa0141113",
      "transactionIndex": "0x4",
      "blockHash": "0x79c186a6af8948322622feff8d9312bcf612e27b0e2a307d4c3af5a07cbf52a7",
      "blockNumber": "0xe49511",
      "gasUsed": "0xbd08",
      "effectiveGasPrice": "0x98bca5a00",
      "from": "0xe62ab4d111f968660c6b2188046f9b9ba53c4bae",
      "to": "0x1944f7fdd330af7b0e7c08349591213e35ed5948",
      "contractAddress": null
    },
    {
      "status": "0x1",
      "cumulativeGasUsed": "0x175e1",
      "logs": [
        {
          "address": "0x0000000000000000000000000000000000001010",
          "topics": [
            "0x4dfe1bbbcf077ddc3e01291eea2d5c70c2b422b415d95645b9adcfd678cb1d63",
            "0x0000000000000000000000000000000000000000000000000000000000001010",
            "0x000000000000000000000000e62ab4d111f968660c6b2188046f9b9ba53c4bae",
            "0x0000000000000000000000006ab3d36c46ecfb9b9c0bd51cb1c3da5a2c81cea6"
          ],
          "data": "0x00000000000000000000000000000000000000000000000000070d5c51e7d12f000000000000000000000000000000000000000000000001d93cf2096bea14680000000000000000000000000000000000000000000003e23c72494f2eb333d7000000000000000000000000000000000000000000000001d935e4ad1a0243390000000000000000000000000000000000000000000003e23c7956ab809b0506",
          "blockHash": "0x5e4cef76fc14624409f4806eecf5c8b382b29294a9bf118fdaf527100f648503",
          "blockNumber": "0xe49514",
          "transactionHash": "0x4b747d11a0018b4da002fb567cedd922b4b295a071a2574b6d92da97f958fcd4",
          "transactionIndex": "0x1",
          "logIndex": "0x2",
          "removed": false
        }
      ],
      "logsBloom": "0x20000000080000000004000000000000000000000000000000000000000000000000000000000000000000000000000000008000000000000000000000000000000000080000000000000000000000800000000000000000000100000000000000000000000000000000000000000000000000000000000080000000000000000000000000000000000000000000040000000000000000000000000000000000200000000000000000000000000000000000000000000000000000000000004000000000000000000001000000000000000000010000000000100000000000000000000000000000000000000000000000000000000000000000000000100000",
      "type": "0x2",
      "transactionHash": "0x4b747d11a0018b4da002fb567cedd922b4b295a071a2574b6d92da97f958fcd4",
      "transactionIndex": "0x1",
      "blockHash": "0x5e4cef76fc14624409f4806eecf5c8b382b29294a9bf118fdaf527100f648503",
      "blockNumber": "0xe49514",
      "gasUsed": "0xbd1f",
      "effectiveGasPrice": "0x98bca5a00",
      "from": "0xe62ab4d111f968660c6b2188046f9b9ba53c4bae",
      "to": "0x1944f7fdd330af7b0e7c08349591213e35ed5948",
      "contractAddress": null
    },
    {
      "status": "0x1",
      "cumulativeGasUsed": "0x3b44c",
      "logs": [
        {
          "address": "0x0000000000000000000000000000000000001010",
          "topics": [
            "0x4dfe1bbbcf077ddc3e01291eea2d5c70c2b422b415d95645b9adcfd678cb1d63",
            "0x0000000000000000000000000000000000000000000000000000000000001010",
            "0x000000000000000000000000e62ab4d111f968660c6b2188046f9b9ba53c4bae",
            "0x0000000000000000000000006ab3d36c46ecfb9b9c0bd51cb1c3da5a2c81cea6"
          ],
          "data": "0x00000000000000000000000000000000000000000000000000070e37e115e5d6000000000000000000000000000000000000000000000001d935e4ad19f72e680000000000000000000000000000000000000000000003e23e8035226ea9bea6000000000000000000000000000000000000000000000001d92ed67538e148920000000000000000000000000000000000000000000003e23e87435a4fbfa47c",
          "blockHash": "0xfe81cef6207085e30bd05f9d073508184bac71605f30da78018a1b95db990d5b",
          "blockNumber": "0xe49517",
          "transactionHash": "0x8b42142bdbc568b055328c015ccf2c91adb5aa6f1fd4709ea33aba9825a8c88f",
          "transactionIndex": "0x1",
          "logIndex": "0x3",
          "removed": false
        }
      ],
      "logsBloom": "0x20000000080000000004000000000000000000000000000000000000000000000000000000000000000000000000000000008000000000000000000000000000000000080000000000000000000000800000000000000000000100000000000000000000000000000000000000000000000000000000000080000000000000000000000000000000000000000000040000000000000000000000000000000000200000000000000000000000000000000000000000000000000000000000004000000000000000000001000000000000000000010000000000100000000000000000000000000000000000000000000000000000000000000000000000100000",
      "type": "0x2",
      "transactionHash": "0x8b42142bdbc568b055328c015ccf2c91adb5aa6f1fd4709ea33aba9825a8c88f",
      "transactionIndex": "0x1",
      "blockHash": "0xfe81cef6207085e30bd05f9d073508184bac71605f30da78018a1b95db990d5b",
      "blockNumber": "0xe49517",
      "gasUsed": "0xbd36",
      "effectiveGasPrice": "0x98bca5a00",
      "from": "0xe62ab4d111f968660c6b2188046f9b9ba53c4bae",
      "to": "0x1944f7fdd330af7b0e7c08349591213e35ed5948",
      "contractAddress": null
    },
    {
      "status": "0x1",
      "cumulativeGasUsed": "0xbd4d",
      "logs": [
        {
          "address": "0x0000000000000000000000000000000000001010",
          "topics": [
            "0x4dfe1bbbcf077ddc3e01291eea2d5c70c2b422b415d95645b9adcfd678cb1d63",
            "0x0000000000000000000000000000000000000000000000000000000000001010",
            "0x000000000000000000000000e62ab4d111f968660c6b2188046f9b9ba53c4bae",
            "0x0000000000000000000000006ab3d36c46ecfb9b9c0bd51cb1c3da5a2c81cea6"
          ],
          "data": "0x00000000000000000000000000000000000000000000000000070f137043fa7d000000000000000000000000000000000000000000000001d92ed67538d632680000000000000000000000000000000000000000000003e23f10d50e2bbdea32000000000000000000000000000000000000000000000001d927c761c89237eb0000000000000000000000000000000000000000000003e23f17e4219c01e4af",
          "blockHash": "0xd1cd10d0b0f94c6ccc40e91cbfafe0c8580ec8d7d722bd0918a8c85c1ddf8f06",
          "blockNumber": "0xe4951b",
          "transactionHash": "0xc8e97bb7f5dd967b553107ee9edfdf1a7368927aecd06686e7a70d056737a770",
          "transactionIndex": "0x0",
          "logIndex": "0x0",
          "removed": false
        }
      ],
      "logsBloom": "0x20000000080000000004000000000000000000000000000000000000000000000000000000000000000000000000000000008000000000000000000000000000000000080000000000000000000000800000000000000000000100000000000000000000000000000000000000000000000000000000000080000000000000000000000000000000000000000000040000000000000000000000000000000000200000000000000000000000000000000000000000000000000000000000004000000000000000000001000000000000000000010000000000100000000000000000000000000000000000000000000000000000000000000000000000100000",
      "type": "0x2",
      "transactionHash": "0xc8e97bb7f5dd967b553107ee9edfdf1a7368927aecd06686e7a70d056737a770",
      "transactionIndex": "0x0",
      "blockHash": "0xd1cd10d0b0f94c6ccc40e91cbfafe0c8580ec8d7d722bd0918a8c85c1ddf8f06",
      "blockNumber": "0xe4951b",
      "gasUsed": "0xbd4d",
      "effectiveGasPrice": "0x98bca5a00",
      "from": "0xe62ab4d111f968660c6b2188046f9b9ba53c4bae",
      "to": "0x1944f7fdd330af7b0e7c08349591213e35ed5948",
      "contractAddress": null
    },
    {
      "status": "0x1",
      "cumulativeGasUsed": "0xbd64",
      "logs": [
        {
          "address": "0x0000000000000000000000000000000000001010",
          "topics": [
            "0x4dfe1bbbcf077ddc3e01291eea2d5c70c2b422b415d95645b9adcfd678cb1d63",
            "0x0000000000000000000000000000000000000000000000000000000000001010",
            "0x000000000000000000000000e62ab4d111f968660c6b2188046f9b9ba53c4bae",
            "0x0000000000000000000000006ab3d36c46ecfb9b9c0bd51cb1c3da5a2c81cea6"
          ],
          "data": "0x00000000000000000000000000000000000000000000000000070feeff720f24000000000000000000000000000000000000000000000001d927c761c88720680000000000000000000000000000000000000000000003e24017c9fc7fdd0b58000000000000000000000000000000000000000000000001d920b772c91511440000000000000000000000000000000000000000000003e2401ed9eb7f4f1a7c",
          "blockHash": "0x8921ac91165e9464a29826ebf1132146ee589b11318dac6bf4295deda41569ac",
          "blockNumber": "0xe4951f",
          "transactionHash": "0x7514e21a44ea8601ec1a12f240dcf7c9e2d58e2845e34850db3279c2856004ad",
          "transactionIndex": "0x0",
          "logIndex": "0x0",
          "removed": false
        }
      ],
      "logsBloom": "0x20000000080000000004000000000000000000000000000000000000000000000000000000000000000000000000000000008000000000000000000000000000000000080000000000000000000000800000000000000000000100000000000000000000000000000000000000000000000000000000000080000000000000000000000000000000000000000000040000000000000000000000000000000000200000000000000000000000000000000000000000000000000000000000004000000000000000000001000000000000000000010000000000100000000000000000000000000000000000000000000000000000000000000000000000100000",
      "type": "0x2",
      "transactionHash": "0x7514e21a44ea8601ec1a12f240dcf7c9e2d58e2845e34850db3279c2856004ad",
      "transactionIndex": "0x0",
      "blockHash": "0x8921ac91165e9464a29826ebf1132146ee589b11318dac6bf4295deda41569ac",
      "blockNumber": "0xe4951f",
      "gasUsed": "0xbd64",
      "effectiveGasPrice": "0x98bca5a00",
      "from": "0xe62ab4d111f968660c6b2188046f9b9ba53c4bae",
      "to": "0x1944f7fdd330af7b0e7c08349591213e35ed5948",
      "contractAddress": null
    },
    {
      "status": "0x1",
      "cumulativeGasUsed": "0x56949",
      "logs": [
        {
          "address": "0x0000000000000000000000000000000000001010",
          "topics": [
            "0x4dfe1bbbcf077ddc3e01291eea2d5c70c2b422b415d95645b9adcfd678cb1d63",
            "0x0000000000000000000000000000000000000000000000000000000000001010",
            "0x000000000000000000000000e62ab4d111f968660c6b2188046f9b9ba53c4bae",
            "0x0000000000000000000000004ca9ff871c7aa1e7b64e1eae110835f68d6a0bd4"
          ],
          "data": "0x000000000000000000000000000000000000000000000000000710ca8ea023cb000000000000000000000000000000000000000000000001d920b772c909f868000000000000000000000000000000000000000000000036d129c8153186176a000000000000000000000000000000000000000000000001d919a6a83a69d49d000000000000000000000000000000000000000000000036d130d8dfc0263b35",
          "blockHash": "0xe1f9aa5fcc1b3abd27b9a95ad2c3c50462e3eb9184462ca8e08e5035217cd356",
          "blockNumber": "0xe49521",
          "transactionHash": "0x33d472def9c5314cda606a886cc595a7e5003bb32b82de04c19bb9f3724daf79",
          "transactionIndex": "0x3",
          "logIndex": "0xb",
          "removed": false
        }
      ],
      "logsBloom": "0x20000000000000000004000000000000000000000000000000000000000000000000000000000000000000000000000020008000000000000000000000000000000000000000000000000000000000800000000000000000000100000000000000000000000000000000000000000000000000000000000080000000000000000000000000000000000000000000040000008000000000000000000000000000200000000000040000000000000000000000000000000000000000000000004000000000000000000001000000000000000000000000000000100000000000000000000000000000000000000000000000000000000000000000000000100000",
      "type": "0x2",
      "transactionHash": "0x33d472def9c5314cda606a886cc595a7e5003bb32b82de04c19bb9f3724daf79",
      "transactionIndex": "0x3",
      "blockHash": "0xe1f9aa5fcc1b3abd27b9a95ad2c3c50462e3eb9184462ca8e08e5035217cd356",
      "blockNumber": "0xe49521",
      "gasUsed": "0xbd7b",
      "effectiveGasPrice": "0x98bca5a00",
      "from": "0xe62ab4d111f968660c6b2188046f9b9ba53c4bae",
      "to": "0x1944f7fdd330af7b0e7c08349591213e35ed5948",
      "contractAddress": null
    },
    {
      "status": "0x1",
      "cumulativeGasUsed": "0x37399",
      "logs": [
        {
          "address": "0x0000000000000000000000000000000000001010",
          "topics": [
            "0x4dfe1bbbcf077ddc3e01291eea2d5c70c2b422b415d95645b9adcfd678cb1d63",
            "0x0000000000000000000000000000000000000000000000000000000000001010",
            "0x000000000000000000000000e62ab4d111f968660c6b2188046f9b9ba53c4bae",
            "0x0000000000000000000000004ca9ff871c7aa1e7b64e1eae110835f68d6a0bd4"
          ],
          "data": "0x000000000000000000000000000000000000000000000000000711a61dce3872000000000000000000000000000000000000000000000001d919a6a83a5eba68000000000000000000000000000000000000000000000036d196345f9c9356da000000000000000000000000000000000000000000000001d91295021c9081f6000000000000000000000000000000000000000000000036d19d4605ba618f4c",
          "blockHash": "0x9b853e661a5d956cbdf050afd7800be70f9f1267f7a20d7bde7788ffc19aa981",
          "blockNumber": "0xe49525",
          "transactionHash": "0x58fdd3949e5f5069f4a894ba356bd4d464c17b8f8cf8fee8f310e76ce4ca5895",
          "transactionIndex": "0x1",
          "logIndex": "0x3",
          "removed": false
        }
      ],
      "logsBloom": "0x20000000000000000004000000000000000000000000000000000000000000000000000000000000000000000000000020008000000000000000000000000000000000000000000000000000000000800000000000000000000100000000000000000000000000000000000000000000000000000000000080000000000000000000000000000000000000000000040000008000000000000000000000000000200000000000040000000000000000000000000000000000000000000000004000000000000000000001000000000000000000000000000000100000000000000000000000000000000000000000000000000000000000000000000000100000",
      "type": "0x2",
      "transactionHash": "0x58fdd3949e5f5069f4a894ba356bd4d464c17b8f8cf8fee8f310e76ce4ca5895",
      "transactionIndex": "0x1",
      "blockHash": "0x9b853e661a5d956cbdf050afd7800be70f9f1267f7a20d7bde7788ffc19aa981",
      "blockNumber": "0xe49525",
      "gasUsed": "0xbd92",
      "effectiveGasPrice": "0x98bca5a00",
      "from": "0xe62ab4d111f968660c6b2188046f9b9ba53c4bae",
      "to": "0x1944f7fdd330af7b0e7c08349591213e35ed5948",
      "contractAddress": null
    },
    {
      "status": "0x1",
      "cumulativeGasUsed": "0x373b0",
      "logs": [
        {
          "address": "0x0000000000000000000000000000000000001010",
          "topics": [
            "0x4dfe1bbbcf077ddc3e01291eea2d5c70c2b422b415d95645b9adcfd678cb1d63",
            "0x0000000000000000000000000000000000000000000000000000000000001010",
            "0x000000000000000000000000e62ab4d111f968660c6b2188046f9b9ba53c4bae",
            "0x0000000000000000000000004ca9ff871c7aa1e7b64e1eae110835f68d6a0bd4"
          ],
          "data": "0x00000000000000000000000000000000000000000000000000071281acfc4d19000000000000000000000000000000000000000000000001d91295021c856668000000000000000000000000000000000000000000000036d306a787ac9b2aeb000000000000000000000000000000000000000000000001d90b82806f89194f000000000000000000000000000000000000000000000036d30dba0959977804",
          "blockHash": "0x90cc6f4b3da291b9b1b48898443a6e15a6f50744960125ade22f7e9f9d1fda8d",
          "blockNumber": "0xe49529",
          "transactionHash": "0x2fdd05ffe6a4b74c20b844f2eb6fc07817bc9264f22d31cc7728e6d66f9b68da",
          "transactionIndex": "0x1",
          "logIndex": "0x3",
          "removed": false
        }
      ],
      "logsBloom": "0x20000000000000000004000000000000000000000000000000000000000000000000000000000000000000000000000020008000000000000000000000000000000000000000000000000000000000800000000000000000000100000000000000000000000000000000000000000000000000000000000080000000000000000000000000000000000000000000040000008000000000000000000000000000200000000000040000000000000000000000000000000000000000000000004000000000000000000001000000000000000000000000000000100000000000000000000000000000000000000000000000000000000000000000000000100000",
      "type": "0x2",
      "transactionHash": "0x2fdd05ffe6a4b74c20b844f2eb6fc07817bc9264f22d31cc7728e6d66f9b68da",
      "transactionIndex": "0x1",
      "blockHash": "0x90cc6f4b3da291b9b1b48898443a6e15a6f50744960125ade22f7e9f9d1fda8d",
      "blockNumber": "0xe49529",
      "gasUsed": "0xbda9",
      "effectiveGasPrice": "0x98bca5a00",
      "from": "0xe62ab4d111f968660c6b2188046f9b9ba53c4bae",
      "to": "0x1944f7fdd330af7b0e7c08349591213e35ed5948",
      "contractAddress": null
    },
    {
      "status": "0x1",
      "cumulativeGasUsed": "0xba698",
      "logs": [
        {
          "address": "0x0000000000000000000000000000000000001010",
          "topics": [
            "0x4dfe1bbbcf077ddc3e01291eea2d5c70c2b422b415d95645b9adcfd678cb1d63",
            "0x0000000000000000000000000000000000000000000000000000000000001010",
            "0x000000000000000000000000e62ab4d111f968660c6b2188046f9b9ba53c4bae",
            "0x0000000000000000000000004ca9ff871c7aa1e7b64e1eae110835f68d6a0bd4"
          ],
          "data": "0x0000000000000000000000000000000000000000000000000007132d8136a00b000000000000000000000000000000000000000000000001d90b82806f7dfc68000000000000000000000000000000000000000000000036d3eda2e5f35f660e000000000000000000000000000000000000000000000001d9046f52ee475c5d000000000000000000000000000000000000000000000036d3f4b61374960619",
          "blockHash": "0x86eec54b0986c7d1f4a8d49220b1b1f00bfe805fcd1a5a3af3c773c82d6ea8b1",
          "blockNumber": "0xe4952c",
          "transactionHash": "0x1912cda33d82b4360d6f7e024c60a11e3339073acc52d176438f9f0a8fde044c",
          "transactionIndex": "0x3",
          "logIndex": "0x8",
          "removed": false
        }
      ],
      "logsBloom": "0x20000000000000000004000000000000000000000000000000000000000000000000000000000000000000000000000020008000000000000000000000000000000000000000000000000000000000800000000000000000000100000000000000000000000000000000000000000000000000000000000080000000000000000000000000000000000000000000040000008000000000000000000000000000200000000000040000000000000000000000000000000000000000000000004000000000000000000001000000000000000000000000000000100000000000000000000000000000000000000000000000000000000000000000000000100000",
      "type": "0x2",
      "transactionHash": "0x1912cda33d82b4360d6f7e024c60a11e3339073acc52d176438f9f0a8fde044c",
      "transactionIndex": "0x3",
      "blockHash": "0x86eec54b0986c7d1f4a8d49220b1b1f00bfe805fcd1a5a3af3c773c82d6ea8b1",
      "blockNumber": "0xe4952c",
      "gasUsed": "0xbdbb",
      "effectiveGasPrice": "0x98bca5a00",
      "from": "0xe62ab4d111f968660c6b2188046f9b9ba53c4bae",
      "to": "0x1944f7fdd330af7b0e7c08349591213e35ed5948",
      "contractAddress": null
    },
    {
      "status": "0x1",
      "cumulativeGasUsed": "0x986fb",
      "logs": [
        {
          "address": "0x0000000000000000000000000000000000001010",
          "topics": [
            "0x4dfe1bbbcf077ddc3e01291eea2d5c70c2b422b415d95645b9adcfd678cb1d63",
            "0x0000000000000000000000000000000000000000000000000000000000001010",
            "0x000000000000000000000000e62ab4d111f968660c6b2188046f9b9ba53c4bae",
            "0x00000000000000000000000009207a6efee346cb3e4a54ac18523e3715d38b3f"
          ],
          "data": "0x0000000000000000000000000000000000000000000000000014780a0712ce2c000000000000000000000000000000000000000000000001d9046f52ee3c3e680000000000000000000000000000000000000000000003f859c5de09a83236c9000000000000000000000000000000000000000000000001d8eff748e729703c0000000000000000000000000000000000000000000003f859da5613af4504f5",
          "blockHash": "0xb7d0692b8703b9cdddb11b0b0ee2dd8a7858d5fb6de76a78f7bd3a3905ddf135",
          "blockNumber": "0xe49530",
          "transactionHash": "0xfa875730cc5728455d61bad18f8e6c6612e729879ca43acbd14fad2d684f760d",
          "transactionIndex": "0x1",
          "logIndex": "0x7",
          "removed": false
        }
      ],
      "logsBloom": "0x20000000000000000004000000000000000000000000000000000000000000000000000000000000000000000000000000008000000000000000010000000000000000000000000000000000000000800000000000000000000100000000000000000000000000000000000000000000000000000000000080000000000000000000000000000000000000000000040000004000000000000000000000000000200000000000000000000000000000000000000000000000000000000000004000000000000000000001000000000000000000000000000000100000000000000000000000000000000000010000000000000000000000000000000000100000",
      "type": "0x2",
      "transactionHash": "0xfa875730cc5728455d61bad18f8e6c6612e729879ca43acbd14fad2d684f760d",
      "transactionIndex": "0x1",
      "blockHash": "0xb7d0692b8703b9cdddb11b0b0ee2dd8a7858d5fb6de76a78f7bd3a3905ddf135",
      "blockNumber": "0xe49530",
      "gasUsed": "0x224ec",
      "effectiveGasPrice": "0x98bca5a00",
      "from": "0xe62ab4d111f968660c6b2188046f9b9ba53c4bae",
      "to": "0x1944f7fdd330af7b0e7c08349591213e35ed5948",
      "contractAddress": null
    },
    {
      "status": "0x1",
      "cumulativeGasUsed": "0x4bf1a",
      "logs": [
        {
          "address": "0x0000000000000000000000000000000000001010",
          "topics": [
            "0x4dfe1bbbcf077ddc3e01291eea2d5c70c2b422b415d95645b9adcfd678cb1d63",
            "0x0000000000000000000000000000000000000000000000000000000000001010",
            "0x000000000000000000000000e62ab4d111f968660c6b2188046f9b9ba53c4bae",
            "0x00000000000000000000000009207a6efee346cb3e4a54ac18523e3715d38b3f"
          ],
          "data": "0x00000000000000000000000000000000000000000000000000123680b4d159ac000000000000000000000000000000000000000000000001d8eff748e70946680000000000000000000000000000000000000000000003f85d63eb1cda480eba000000000000000000000000000000000000000000000001d8ddc0c83237ecbc0000000000000000000000000000000000000000000003f85d76219d8f196866",
          "blockHash": "0x7a40857034a6a4dd28ce9fd7af77571ba788adbc974ed7263a6f21d978aa528c",
          "blockNumber": "0xe49532",
          "transactionHash": "0xed624d6f823c56f94fa8bcf898b804f21f1d718c4598758ce64efa90acf4e021",
          "transactionIndex": "0x1",
          "logIndex": "0x4",
          "removed": false
        }
      ],
      "logsBloom": "0x20000000000000000004000000000000000000000000000000000000000000000000000000000000000000000000000000008000000000000000010000000000000000000000000000000000000000800000000000000000000100000000000000000000000000000000000000000000000000000000000080000000000000000000000000000000000000000000040000004000000000000000000000000000200000000000000000000000000000000000000000000000000000000000004000000000000000000001000000000000000000000000000000100000000000000000000000000000000000010000000000000000000000000000000000100000",
      "type": "0x2",
      "transactionHash": "0xed624d6f823c56f94fa8bcf898b804f21f1d718c4598758ce64efa90acf4e021",
      "transactionIndex": "0x1",
      "blockHash": "0x7a40857034a6a4dd28ce9fd7af77571ba788adbc974ed7263a6f21d978aa528c",
      "blockNumber": "0xe49532",
      "gasUsed": "0x1e86c",
      "effectiveGasPrice": "0x98bca5a00",
      "from": "0xe62ab4d111f968660c6b2188046f9b9ba53c4bae",
      "to": "0x1944f7fdd330af7b0e7c08349591213e35ed5948",
      "contractAddress": null
    },
    {
      "status": "0x1",
      "cumulativeGasUsed": "0x1e86c",
      "logs": [
        {
          "address": "0x0000000000000000000000000000000000001010",
          "topics": [
            "0x4dfe1bbbcf077ddc3e01291eea2d5c70c2b422b415d95645b9adcfd678cb1d63",
            "0x0000000000000000000000000000000000000000000000000000000000001010",
            "0x000000000000000000000000e62ab4d111f968660c6b2188046f9b9ba53c4bae",
            "0x00000000000000000000000009207a6efee346cb3e4a54ac18523e3715d38b3f"
          ],
          "data": "0x00000000000000000000000000000000000000000000000000123680b4d159ac000000000000000000000000000000000000000000000001d8ddc0c8321b4e680000000000000000000000000000000000000000000003f85ff1382b0a912a2a000000000000000000000000000000000000000000000001d8cb8a477d49f4bc0000000000000000000000000000000000000000000003f860036eabbf6283d6",
          "blockHash": "0x757ee1fd050c5cc22e425ed0297ad80da26b090e63360ded8f7deca9e2bc874a",
          "blockNumber": "0xe49536",
          "transactionHash": "0x9fcc7c45b6d317b5cbaa17b7a499093502216ab24d85d47f862c5454989d5516",
          "transactionIndex": "0x0",
          "logIndex": "0x0",
          "removed": false
        }
      ],
      "logsBloom": "0x20000000000000000004000000000000000000000000000000000000000000000000000000000000000000000000000000008000000000000000010000000000000000000000000000000000000000800000000000000000000100000000000000000000000000000000000000000000000000000000000080000000000000000000000000000000000000000000040000004000000000000000000000000000200000000000000000000000000000000000000000000000000000000000004000000000000000000001000000000000000000000000000000100000000000000000000000000000000000010000000000000000000000000000000000100000",
      "type": "0x2",
      "transactionHash": "0x9fcc7c45b6d317b5cbaa17b7a499093502216ab24d85d47f862c5454989d5516",
      "transactionIndex": "0x0",
      "blockHash": "0x757ee1fd050c5cc22e425ed0297ad80da26b090e63360ded8f7deca9e2bc874a",
      "blockNumber": "0xe49536",
      "gasUsed": "0x1e86c",
      "effectiveGasPrice": "0x98bca5a00",
      "from": "0xe62ab4d111f968660c6b2188046f9b9ba53c4bae",
      "to": "0x1944f7fdd330af7b0e7c08349591213e35ed5948",
      "contractAddress": null
    },
    {
      "status": "0x1",
      "cumulativeGasUsed": "0x1e3e0",
      "logs": [
        {
          "address": "0x0000000000000000000000000000000000001010",
          "topics": [
            "0x4dfe1bbbcf077ddc3e01291eea2d5c70c2b422b415d95645b9adcfd678cb1d63",
            "0x0000000000000000000000000000000000000000000000000000000000001010",
            "0x000000000000000000000000e62ab4d111f968660c6b2188046f9b9ba53c4bae",
            "0x00000000000000000000000009207a6efee346cb3e4a54ac18523e3715d38b3f"
          ],
          "data": "0x00000000000000000000000000000000000000000000000000120b1918c065e0000000000000000000000000000000000000000000000001d8cb8a477d2d56680000000000000000000000000000000000000000000003f860797c4024e0cda4000000000000000000000000000000000000000000000001d8b97f2e646cf0880000000000000000000000000000000000000000000003f8608b87593da13384",
          "blockHash": "0xc4a5e298d5c28cc31548fead2dcebf17c7005b5ff0b3cf9de61e43544328abcf",
          "blockNumber": "0xe4953a",
          "transactionHash": "0xf041a22aef5240bdb4222373fe2567c48169e09afdf325e2dd557312c8dfc768",
          "transactionIndex": "0x0",
          "logIndex": "0x0",
          "removed": false
        }
      ],
      "logsBloom": "0x20000000000000000004000000000000000000000000000000000000000000000000000000000000000000000000000000008000000000000000010000000000000000000000000000000000000000800000000000000000000100000000000000000000000000000000000000000000000000000000000080000000000000000000000000000000000000000000040000004000000000000000000000000000200000000000000000000000000000000000000000000000000000000000004000000000000000000001000000000000000000000000000000100000000000000000000000000000000000010000000000000000000000000000000000100000",
      "type": "0x2",
      "transactionHash": "0xf041a22aef5240bdb4222373fe2567c48169e09afdf325e2dd557312c8dfc768",
      "transactionIndex": "0x0",
      "blockHash": "0xc4a5e298d5c28cc31548fead2dcebf17c7005b5ff0b3cf9de61e43544328abcf",
      "blockNumber": "0xe4953a",
      "gasUsed": "0x1e3e0",
      "effectiveGasPrice": "0x98bca5a00",
      "from": "0xe62ab4d111f968660c6b2188046f9b9ba53c4bae",
      "to": "0x1944f7fdd330af7b0e7c08349591213e35ed5948",
      "contractAddress": null
    },
    {
      "status": "0x1",
      "cumulativeGasUsed": "0x1ecf8",
      "logs": [
        {
          "address": "0x0000000000000000000000000000000000001010",
          "topics": [
            "0x4dfe1bbbcf077ddc3e01291eea2d5c70c2b422b415d95645b9adcfd678cb1d63",
            "0x0000000000000000000000000000000000000000000000000000000000001010",
            "0x000000000000000000000000e62ab4d111f968660c6b2188046f9b9ba53c4bae",
            "0x00000000000000000000000009207a6efee346cb3e4a54ac18523e3715d38b3f"
          ],
          "data": "0x000000000000000000000000000000000000000000000000001261e850e24d78000000000000000000000000000000000000000000000001d8b97f2e645096680000000000000000000000000000000000000000000003f860e5a7329cc2dc8e000000000000000000000000000000000000000000000001d8a71d46136e48f00000000000000000000000000000000000000000000003f860f8091aeda52a06",
          "blockHash": "0x960d2cc55d90ce06c058f34384da6d2b8b23878c4e7152e8fad0bcb8a01769a3",
          "blockNumber": "0xe4953d",
          "transactionHash": "0x9e1d3e55909f94ce2fb5f301ca0163b22493b457eb453a114017f6f25979dd61",
          "transactionIndex": "0x0",
          "logIndex": "0x0",
          "removed": false
        }
      ],
      "logsBloom": "0x20000000000000000004000000000000000000000000000000000000000000000000000000000000000000000000000000008000000000000000010000000000000000000000000000000000000000800000000000000000000100000000000000000000000000000000000000000000000000000000000080000000000000000000000000000000000000000000040000004000000000000000000000000000200000000000000000000000000000000000000000000000000000000000004000000000000000000001000000000000000000000000000000100000000000000000000000000000000000010000000000000000000000000000000000100000",
      "type": "0x2",
      "transactionHash": "0x9e1d3e55909f94ce2fb5f301ca0163b22493b457eb453a114017f6f25979dd61",
      "transactionIndex": "0x0",
      "blockHash": "0x960d2cc55d90ce06c058f34384da6d2b8b23878c4e7152e8fad0bcb8a01769a3",
      "blockNumber": "0xe4953d",
      "gasUsed": "0x1ecf8",
      "effectiveGasPrice": "0x98bca5a00",
      "from": "0xe62ab4d111f968660c6b2188046f9b9ba53c4bae",
      "to": "0x1944f7fdd330af7b0e7c08349591213e35ed5948",
      "contractAddress": null
    },
    {
      "status": "0x1",
      "cumulativeGasUsed": "0x31ea62",
      "logs": [
        {
          "address": "0x0000000000000000000000000000000000001010",
          "topics": [
            "0x4dfe1bbbcf077ddc3e01291eea2d5c70c2b422b415d95645b9adcfd678cb1d63",
            "0x0000000000000000000000000000000000000000000000000000000000001010",
            "0x000000000000000000000000e62ab4d111f968660c6b2188046f9b9ba53c4bae",
            "0x0000000000000000000000006c095a53250dd250797ff915a716cca690ad8842"
          ],
          "data": "0x0000000000000000000000000000000000000000000000000049a2b3b3644756000000000000000000000000000000000000000000000001d8a71d46135166680000000000000000000000000000000000000000000000e284ba91754f4518c5000000000000000000000000000000000000000000000001d85d7a925fed1f120000000000000000000000000000000000000000000000e28504342902a9601b",
          "blockHash": "0xf5077902172776ceefcfb1f0b0667ea21273339c0acc9b32afacaf866854461f",
          "blockNumber": "0xe49541",
          "transactionHash": "0x7dec06187aebc49682248ea5e41e99f77a0376ea3af18b0ab9025c22558580e3",
          "transactionIndex": "0x2",
          "logIndex": "0x7",
          "removed": false
        }
      ],
      "logsBloom": "0x20000000000000000004000000000000000000000000000000000000000000000000000000000000000000000000000000008000000000000000000000000000000000000000000000000000000000800000000000000000000100000000000000000000000000000000000000000000000000000000040080000000000000000000000000000000400000000000040000000000000000000000000000000000200000000000000000008000000000000000000000000000000000000000004000000000000000000001000000000000000000000000000000100000000000000000000000000000000000000000000000000000000000000000000000100000",
      "type": "0x2",
      "transactionHash": "0x7dec06187aebc49682248ea5e41e99f77a0376ea3af18b0ab9025c22558580e3",
      "transactionIndex": "0x2",
      "blockHash": "0xf5077902172776ceefcfb1f0b0667ea21273339c0acc9b32afacaf866854461f",
      "blockNumber": "0xe49541",
      "gasUsed": "0x7b6b6",
      "effectiveGasPrice": "0x98bca5a00",
      "from": "0xe62ab4d111f968660c6b2188046f9b9ba53c4bae",
      "to": "0x1249d751e6a0b7b11b9e55cbf8bc7d397ac3c083",
      "contractAddress": null
    },
    {
      "status": "0x1",
      "cumulativeGasUsed": "0xbd66d",
      "logs": [
        {
          "address": "0x0000000000000000000000000000000000001010",
          "topics": [
            "0x4dfe1bbbcf077ddc3e01291eea2d5c70c2b422b415d95645b9adcfd678cb1d63",
            "0x0000000000000000000000000000000000000000000000000000000000001010",
            "0x000000000000000000000000e62ab4d111f968660c6b2188046f9b9ba53c4bae",
            "0x0000000000000000000000006c095a53250dd250797ff915a716cca690ad8842"
          ],
          "data": "0x0000000000000000000000000000000000000000000000000071009d89b2c19d000000000000000000000000000000000000000000000001d85d7a925f796a680000000000000000000000000000000000000000000000e2876805600acaf4c1000000000000000000000000000000000000000000000001d7ec79f4d5c6a8cb0000000000000000000000000000000000000000000000e287d905fd947db65e",
          "blockHash": "0x27a2181bbe28ac0ea4191836918b6ee6b635f947d85845a07067bb56737e8f45",
          "blockNumber": "0xe49544",
          "transactionHash": "0x4b7db75b6dc17f48fb54e77cec72c4edd8b46455fcb544d3358ae3ea8066104c",
          "transactionIndex": "0x0",
          "logIndex": "0x0",
          "removed": false
        }
      ],
      "logsBloom": "0x20000000000000000004000000000000000000000000000000000000000000000000000000000000000000000000000000008000000000000000000000000000000000000000000000000000000000800000000000000000000100000000000000000000000000000000000000000000000000000000040080000000000000000000000000000000400000000000040000000000000000000000000000000000200000000000000000008000000000000000000000000000000000000000004000000000000000000001000000000000000000000000000000100000000000000000000000000000000000000000000000000000000000000000000000100000",
      "type": "0x2",
      "transactionHash": "0x4b7db75b6dc17f48fb54e77cec72c4edd8b46455fcb544d3358ae3ea8066104c",
      "transactionIndex": "0x0",
      "blockHash": "0x27a2181bbe28ac0ea4191836918b6ee6b635f947d85845a07067bb56737e8f45",
      "blockNumber": "0xe49544",
      "gasUsed": "0xbd66d",
      "effectiveGasPrice": "0x98bca5a00",
      "from": "0xe62ab4d111f968660c6b2188046f9b9ba53c4bae",
      "to": "0x1249d751e6a0b7b11b9e55cbf8bc7d397ac3c083",
      "contractAddress": null
    },
    {
      "status": "0x1",
      "cumulativeGasUsed": "0x465ee5",
      "logs": [
        {
          "address": "0x0000000000000000000000000000000000001010",
          "topics": [
            "0x4dfe1bbbcf077ddc3e01291eea2d5c70c2b422b415d95645b9adcfd678cb1d63",
            "0x0000000000000000000000000000000000000000000000000000000000001010",
            "0x000000000000000000000000e62ab4d111f968660c6b2188046f9b9ba53c4bae",
            "0x0000000000000000000000006c095a53250dd250797ff915a716cca690ad8842"
          ],
          "data": "0x000000000000000000000000000000000000000000000000005cf10f8f6c6343000000000000000000000000000000000000000000000001d7ec79f4d51518680000000000000000000000000000000000000000000000e28a8323f86801bcae000000000000000000000000000000000000000000000001d78f88e545a8b5250000000000000000000000000000000000000000000000e28ae01507f76e1ff1",
          "blockHash": "0xfb75fbb334781392c873c30c0ae1acdfc21f1cb0365e7ab2da92b4ae79fe6d65",
          "blockNumber": "0xe49547",
          "transactionHash": "0x8df7ff9f2e63e93bedd7144b8645c573dcec4a1923d72d71b170ff1c3342806c",
          "transactionIndex": "0x1",
          "logIndex": "0x2",
          "removed": false
        }
      ],
      "logsBloom": "0x20000000000000000004000000000000000000000000000000000000000000000000000000000000000000000000000000008000000000000000000000000000000000000000000000000000000000800000000000000000000100000000000000000000000000000000000000000000000000000000040080000000000000000000000000000000400000000000040000000000000000000000000000000000200000000000000000008000000000000000000000000000000000000000004000000000000000000001000000000000000000000000000000100000000000000000000000000000000000000000000000000000000000000000000000100000",
      "type": "0x2",
      "transactionHash": "0x8df7ff9f2e63e93bedd7144b8645c573dcec4a1923d72d71b170ff1c3342806c",
      "transactionIndex": "0x1",
      "blockHash": "0xfb75fbb334781392c873c30c0ae1acdfc21f1cb0365e7ab2da92b4ae79fe6d65",
      "blockNumber": "0xe49547",
      "gasUsed": "0x9bc73",
      "effectiveGasPrice": "0x98bca5a00",
      "from": "0xe62ab4d111f968660c6b2188046f9b9ba53c4bae",
      "to": "0x1249d751e6a0b7b11b9e55cbf8bc7d397ac3c083",
      "contractAddress": null
    }
  ],
  "libraries": [],
  "pending": [],
  "returns": {},
  "timestamp": 1732800071,
  "chain": 80002,
  "commit": "9c84b963"
}