{
  "transactions": [
    {
      "hash": "0x7f4e03b38a7b3f93afa076972e3156dd5bc8d560e78d19bede535913db46aca0",
      "transactionType": "CALL",
      "contractName": "CTMRWAGateway",
      "contractAddress": "0x6f013ad0b507590dcb26e674199ba99d613e9dfd",
      "function": "addChainContract(string[],string[])",
      "arguments": [
        "[43113]",
        "[0x005c5fd1585a73817107bfd3929f7e559750ceed]"
      ],
      "transaction": {
        "from": "0xe62ab4d111f968660c6b2188046f9b9ba53c4bae",
        "to": "0x6f013ad0b507590dcb26e674199ba99d613e9dfd",
        "gas": "0x4b948",
        "value": "0x0",
        "input": "0x013fd3bd000000000000000000000000000000000000000000000000000000000000004000000000000000000000000000000000000000000000000000000000000000c0000000000000000000000000000000000000000000000000000000000000000100000000000000000000000000000000000000000000000000000000000000200000000000000000000000000000000000000000000000000000000000000005343331313300000000000000000000000000000000000000000000000000000000000000000000000000000000000000000000000000000000000000000000010000000000000000000000000000000000000000000000000000000000000020000000000000000000000000000000000000000000000000000000000000002a30783030356335666431353835613733383137313037626664333932396637653535393735306365656400000000000000000000000000000000000000000000",
        "nonce": "0x331",
        "chainId": "0x13882"
      },
      "additionalContracts": [],
      "isFixedGasLimit": false
    },
    {
      "hash": "0x689b5fa1e16b84f0fe03126049a6187bbfd6ed754596bc5c5c8110e2d071d4aa",
      "transactionType": "CALL",
      "contractName": "CTMRWAGateway",
      "contractAddress": "0x6f013ad0b507590dcb26e674199ba99d613e9dfd",
      "function": "attachRWAX(uint256,uint256,string[],string[])",
      "arguments": [
        "1",
        "1",
        "[43113]",
        "[0xdef5d31e4b2e0bf38af3e8092a5abf51db484eec]"
      ],
      "transaction": {
        "from": "0xe62ab4d111f968660c6b2188046f9b9ba53c4bae",
        "to": "0x6f013ad0b507590dcb26e674199ba99d613e9dfd",
        "gas": "0x5c781",
        "value": "0x0",
        "input": "0x33a5f5b40000000000000000000000000000000000000000000000000000000000000001000000000000000000000000000000000000000000000000000000000000000100000000000000000000000000000000000000000000000000000000000000800000000000000000000000000000000000000000000000000000000000000100000000000000000000000000000000000000000000000000000000000000000100000000000000000000000000000000000000000000000000000000000000200000000000000000000000000000000000000000000000000000000000000005343331313300000000000000000000000000000000000000000000000000000000000000000000000000000000000000000000000000000000000000000000010000000000000000000000000000000000000000000000000000000000000020000000000000000000000000000000000000000000000000000000000000002a30786465663564333165346232653062663338616633653830393261356162663531646234383465656300000000000000000000000000000000000000000000",
        "nonce": "0x332",
        "chainId": "0x13882"
      },
      "additionalContracts": [],
      "isFixedGasLimit": false
    },
    {
      "hash": "0x957a4446c77373a9195fbebf49b1b955cf0887f205519745112502a75ae1f04d",
      "transactionType": "CALL",
      "contractName": "CTMRWAGateway",
      "contractAddress": "0x6f013ad0b507590dcb26e674199ba99d613e9dfd",
      "function": "attachStorageManager(uint256,uint256,string[],string[])",
      "arguments": [
        "1",
        "1",
        "[43113]",
        "[0xcacf2003d4bc2e19c865e65ebb9d57c440217f0f]"
      ],
      "transaction": {
        "from": "0xe62ab4d111f968660c6b2188046f9b9ba53c4bae",
        "to": "0x6f013ad0b507590dcb26e674199ba99d613e9dfd",
        "gas": "0x525dd",
        "value": "0x0",
        "input": "0x2f68b4890000000000000000000000000000000000000000000000000000000000000001000000000000000000000000000000000000000000000000000000000000000100000000000000000000000000000000000000000000000000000000000000800000000000000000000000000000000000000000000000000000000000000100000000000000000000000000000000000000000000000000000000000000000100000000000000000000000000000000000000000000000000000000000000200000000000000000000000000000000000000000000000000000000000000005343331313300000000000000000000000000000000000000000000000000000000000000000000000000000000000000000000000000000000000000000000010000000000000000000000000000000000000000000000000000000000000020000000000000000000000000000000000000000000000000000000000000002a30786361636632303033643462633265313963383635653635656262396435376334343032313766306600000000000000000000000000000000000000000000",
        "nonce": "0x333",
        "chainId": "0x13882"
      },
      "additionalContracts": [],
      "isFixedGasLimit": false
    },
    {
      "hash": "0xe96055d32d8739f0e60f34ad6e5b42af47705a3a4e5a0e4dc2ff2e4ca434ae38",
      "transactionType": "CALL",
      "contractName": "CTMRWAGateway",
      "contractAddress": "0x6f013ad0b507590dcb26e674199ba99d613e9dfd",
      "function": "attachSentryManager(uint256,uint256,string[],string[])",
      "arguments": [
        "1",
        "1",
        "[43113]",
        "[0xf53fb9bb64ab9d3d78f976735762c5af9b5ff341]"
      ],
      "transaction": {
        "from": "0xe62ab4d111f968660c6b2188046f9b9ba53c4bae",
        "to": "0x6f013ad0b507590dcb26e674199ba99d613e9dfd",
        "gas": "0x4dc51",
        "value": "0x0",
        "input": "0x349de7970000000000000000000000000000000000000000000000000000000000000001000000000000000000000000000000000000000000000000000000000000000100000000000000000000000000000000000000000000000000000000000000800000000000000000000000000000000000000000000000000000000000000100000000000000000000000000000000000000000000000000000000000000000100000000000000000000000000000000000000000000000000000000000000200000000000000000000000000000000000000000000000000000000000000005343331313300000000000000000000000000000000000000000000000000000000000000000000000000000000000000000000000000000000000000000000010000000000000000000000000000000000000000000000000000000000000020000000000000000000000000000000000000000000000000000000000000002a30786635336662396262363461623964336437386639373637333537363263356166396235666633343100000000000000000000000000000000000000000000",
        "nonce": "0x334",
        "chainId": "0x13882"
      },
      "additionalContracts": [],
      "isFixedGasLimit": false
    }
  ],
  "receipts": [
    {
      "status": "0x1",
      "cumulativeGasUsed": "0x3bd88",
      "logs": [
        {
          "address": "0x0000000000000000000000000000000000001010",
          "topics": [
            "0x4dfe1bbbcf077ddc3e01291eea2d5c70c2b422b415d95645b9adcfd678cb1d63",
            "0x0000000000000000000000000000000000000000000000000000000000001010",
            "0x000000000000000000000000e62ab4d111f968660c6b2188046f9b9ba53c4bae",
            "0x00000000000000000000000002f615e95563ef16f10354dba9e584e58d2d4314"
          ],
          "data": "0x000000000000000000000000000000000000000000000000004fa052a638b3800000000000000000000000000000000000000000000000181ee03c5fbfa2cce300000000000000000000000000000000000000000000012109f8b6a790a77b430000000000000000000000000000000000000000000000181e909c0d196a19630000000000000000000000000000000000000000000001210a4856fa36e02ec3",
          "blockHash": "0xb615d6e900b1bf1c8d6f399382619ff626bc63be67e135dd3b95d52bebdf1cb9",
          "blockNumber": "0x12a8192",
          "transactionHash": "0x7f4e03b38a7b3f93afa076972e3156dd5bc8d560e78d19bede535913db46aca0",
          "transactionIndex": "0x1",
          "logIndex": "0x2",
          "removed": false
        }
      ],
      "logsBloom": "0x20000000000000000004000000000000000000000000000000000008000000000000000000000000020000004000000000008000000000000000000000000000000000000000000000000000000000800000000000000000000100000000000000000000000000000000000000000000000000000000000080000000000000000000000000000000000000000000040000000000000000000000000000000000200000000000000000000000000000000000000000000000000000000000004000000000000000000001000000000000000000000000000000100000000000000000000000000000000000000000000000000000000000000000000000100000",
      "type": "0x2",
      "transactionHash": "0x7f4e03b38a7b3f93afa076972e3156dd5bc8d560e78d19bede535913db46aca0",
      "transactionIndex": "0x1",
      "blockHash": "0xb615d6e900b1bf1c8d6f399382619ff626bc63be67e135dd3b95d52bebdf1cb9",
      "blockNumber": "0x12a8192",
      "gasUsed": "0x36b80",
      "effectiveGasPrice": "0x174876e800",
      "from": "0xe62ab4d111f968660c6b2188046f9b9ba53c4bae",
      "to": "0x6f013ad0b507590dcb26e674199ba99d613e9dfd",
      "contractAddress": null
    },
    {
      "status": "0x1",
      "cumulativeGasUsed": "0x3f3a1",
      "logs": [
        {
          "address": "0x0000000000000000000000000000000000001010",
          "topics": [
            "0x4dfe1bbbcf077ddc3e01291eea2d5c70c2b422b415d95645b9adcfd678cb1d63",
            "0x0000000000000000000000000000000000000000000000000000000000001010",
            "0x000000000000000000000000e62ab4d111f968660c6b2188046f9b9ba53c4bae",
            "0x00000000000000000000000002f615e95563ef16f10354dba9e584e58d2d4314"
          ],
          "data": "0x000000000000000000000000000000000000000000000000005c01d228c4a1910000000000000000000000000000000000000000000000181e909c0d1936cce30000000000000000000000000000000000000000000001210a4856fa36e02ec30000000000000000000000000000000000000000000000181e349a3af0722b520000000000000000000000000000000000000000000001210aa458cc5fa4d054",
          "blockHash": "0x9d3c9332374ca9ab88f99a394002b82e253a4efa073dd2962070e0fd1ec09843",
          "blockNumber": "0x12a8195",
          "transactionHash": "0x689b5fa1e16b84f0fe03126049a6187bbfd6ed754596bc5c5c8110e2d071d4aa",
          "transactionIndex": "0x0",
          "logIndex": "0x0",
          "removed": false
        }
      ],
      "logsBloom": "0x20000000000000000004000000000000000000000000000000000008000000000000000000000000020000004000000000008000000000000000000000000000000000000000000000000000000000800000000000000000000100000000000000000000000000000000000000000000000000000000000080000000000000000000000000000000000000000000040000000000000000000000000000000000200000000000000000000000000000000000000000000000000000000000004000000000000000000001000000000000000000000000000000100000000000000000000000000000000000000000000000000000000000000000000000100000",
      "type": "0x2",
      "transactionHash": "0x689b5fa1e16b84f0fe03126049a6187bbfd6ed754596bc5c5c8110e2d071d4aa",
      "transactionIndex": "0x0",
      "blockHash": "0x9d3c9332374ca9ab88f99a394002b82e253a4efa073dd2962070e0fd1ec09843",
      "blockNumber": "0x12a8195",
      "gasUsed": "0x3f3a1",
      "effectiveGasPrice": "0x174876e800",
      "from": "0xe62ab4d111f968660c6b2188046f9b9ba53c4bae",
      "to": "0x6f013ad0b507590dcb26e674199ba99d613e9dfd",
      "contractAddress": null
    },
    {
      "status": "0x1",
      "cumulativeGasUsed": "0x3851b",
      "logs": [
        {
          "address": "0x0000000000000000000000000000000000001010",
          "topics": [
            "0x4dfe1bbbcf077ddc3e01291eea2d5c70c2b422b415d95645b9adcfd678cb1d63",
            "0x0000000000000000000000000000000000000000000000000000000000001010",
            "0x000000000000000000000000e62ab4d111f968660c6b2188046f9b9ba53c4bae",
            "0x00000000000000000000000002f615e95563ef16f10354dba9e584e58d2d4314"
          ],
          "data": "0x0000000000000000000000000000000000000000000000000051f47f22ddab6b0000000000000000000000000000000000000000000000181e349a3af036e4e30000000000000000000000000000000000000000000001210aabcebcb9a741dc0000000000000000000000000000000000000000000000181de2a5bbcd5939780000000000000000000000000000000000000000000001210afdc33bdc84ed47",
          "blockHash": "0xa5e455ec369568d82837efb4b1a3f39a3d62771676522aacb7183398c52415e9",
          "blockNumber": "0x12a8197",
          "transactionHash": "0x957a4446c77373a9195fbebf49b1b955cf0887f205519745112502a75ae1f04d",
          "transactionIndex": "0x0",
          "logIndex": "0x0",
          "removed": false
        }
      ],
      "logsBloom": "0x20000000000000000004000000000000000000000000000000000008000000000000000000000000020000004000000000008000000000000000000000000000000000000000000000000000000000800000000000000000000100000000000000000000000000000000000000000000000000000000000080000000000000000000000000000000000000000000040000000000000000000000000000000000200000000000000000000000000000000000000000000000000000000000004000000000000000000001000000000000000000000000000000100000000000000000000000000000000000000000000000000000000000000000000000100000",
      "type": "0x2",
      "transactionHash": "0x957a4446c77373a9195fbebf49b1b955cf0887f205519745112502a75ae1f04d",
      "transactionIndex": "0x0",
      "blockHash": "0xa5e455ec369568d82837efb4b1a3f39a3d62771676522aacb7183398c52415e9",
      "blockNumber": "0x12a8197",
      "gasUsed": "0x3851b",
      "effectiveGasPrice": "0x174876e800",
      "from": "0xe62ab4d111f968660c6b2188046f9b9ba53c4bae",
      "to": "0x6f013ad0b507590dcb26e674199ba99d613e9dfd",
      "contractAddress": null
    },
    {
      "status": "0x1",
      "cumulativeGasUsed": "0x384de",
      "logs": [
        {
          "address": "0x0000000000000000000000000000000000001010",
          "topics": [
            "0x4dfe1bbbcf077ddc3e01291eea2d5c70c2b422b415d95645b9adcfd678cb1d63",
            "0x0000000000000000000000000000000000000000000000000000000000001010",
            "0x000000000000000000000000e62ab4d111f968660c6b2188046f9b9ba53c4bae",
            "0x00000000000000000000000002f615e95563ef16f10354dba9e584e58d2d4314"
          ],
          "data": "0x0000000000000000000000000000000000000000000000000051eef2de8866fe0000000000000000000000000000000000000000000000181de2a5bbcd246ce30000000000000000000000000000000000000000000001210b06bad50547ea9c0000000000000000000000000000000000000000000000181d90b6c8ee9c05e50000000000000000000000000000000000000000000001210b58a9c7e3d0519a",
          "blockHash": "0x794b04adfcfd8414ff455c785f903ad8a61127ec547d7d748bdc0645f8da0500",
          "blockNumber": "0x12a8199",
          "transactionHash": "0xe96055d32d8739f0e60f34ad6e5b42af47705a3a4e5a0e4dc2ff2e4ca434ae38",
          "transactionIndex": "0x0",
          "logIndex": "0x0",
          "removed": false
        }
      ],
      "logsBloom": "0x20000000000000000004000000000000000000000000000000000008000000000000000000000000020000004000000000008000000000000000000000000000000000000000000000000000000000800000000000000000000100000000000000000000000000000000000000000000000000000000000080000000000000000000000000000000000000000000040000000000000000000000000000000000200000000000000000000000000000000000000000000000000000000000004000000000000000000001000000000000000000000000000000100000000000000000000000000000000000000000000000000000000000000000000000100000",
      "type": "0x2",
      "transactionHash": "0xe96055d32d8739f0e60f34ad6e5b42af47705a3a4e5a0e4dc2ff2e4ca434ae38",
      "transactionIndex": "0x0",
      "blockHash": "0x794b04adfcfd8414ff455c785f903ad8a61127ec547d7d748bdc0645f8da0500",
      "blockNumber": "0x12a8199",
      "gasUsed": "0x384de",
      "effectiveGasPrice": "0x174876e800",
      "from": "0xe62ab4d111f968660c6b2188046f9b9ba53c4bae",
      "to": "0x6f013ad0b507590dcb26e674199ba99d613e9dfd",
      "contractAddress": null
    }
  ],
  "libraries": [],
  "pending": [],
  "returns": {},
  "timestamp": 1742754664,
  "chain": 80002,
  "commit": "0d2d6543"
}