{
  "transactions": [
    {
      "hash": "0x57dd81be6b483a1c9ecb535ffb6f3f433d2b3276475d659fe8a9ece19d55048f",
      "transactionType": "CALL",
      "contractName": null,
      "contractAddress": "0x58b610a359c870e0fc941139821a51f5aa23f14e",
      "function": "addTxSender(address)",
      "arguments": [
        "0x0c6235c04eF4Fa5013A58afb22967a068810C929"
      ],
      "transaction": {
        "from": "0xc3ca11bd8e131471904dced927b3fb7edb453179",
        "to": "0x58b610a359c870e0fc941139821a51f5aa23f14e",
        "gas": "0x11df5",
        "value": "0x0",
        "input": "0xeebd14af0000000000000000000000000c6235c04ef4fa5013a58afb22967a068810c929",
        "nonce": "0x69",
        "chainId": "0x66eee"
      },
      "additionalContracts": [],
      "isFixedGasLimit": false
    },
    {
      "hash": "0xe04a775cd8db79ae2981d2600ef2204648312ce36fb4b5f8de93ea17cd8cc1b6",
      "transactionType": "CALL",
      "contractName": null,
      "contractAddress": "0x2f925d6512b2bbb00f5a36d8b18e01fcf35f7dc7",
      "function": "addTxSender(address)",
      "arguments": [
        "0x0c6235c04eF4Fa5013A58afb22967a068810C929"
      ],
      "transaction": {
        "from": "0xc3ca11bd8e131471904dced927b3fb7edb453179",
        "to": "0x2f925d6512b2bbb00f5a36d8b18e01fcf35f7dc7",
        "gas": "0x11dd9",
        "value": "0x0",
        "input": "0xeebd14af0000000000000000000000000c6235c04ef4fa5013a58afb22967a068810c929",
        "nonce": "0x6a",
        "chainId": "0x66eee"
      },
      "additionalContracts": [],
      "isFixedGasLimit": false
    },
    {
      "hash": "0x011cb5b131cfb206e770a42f4a08dd4e5a0dde0dca14585815738ba46b9c1350",
      "transactionType": "CALL",
      "contractName": null,
      "contractAddress": "0x9c9e9fad264089339aad66ff3e32d2ba1ddf6951",
      "function": "addTxSender(address)",
      "arguments": [
        "0x0c6235c04eF4Fa5013A58afb22967a068810C929"
      ],
      "transaction": {
        "from": "0xc3ca11bd8e131471904dced927b3fb7edb453179",
        "to": "0x9c9e9fad264089339aad66ff3e32d2ba1ddf6951",
        "gas": "0x11ec0",
        "value": "0x0",
        "input": "0xeebd14af0000000000000000000000000c6235c04ef4fa5013a58afb22967a068810c929",
        "nonce": "0x6b",
        "chainId": "0x66eee"
      },
      "additionalContracts": [],
      "isFixedGasLimit": false
    },
    {
      "hash": "0x886a4fca91f56e9b510274fca1ae592d85aa0240ba679663bf3311465cbd2e2f",
      "transactionType": "CALL",
      "contractName": null,
      "contractAddress": "0xe912f7c7a59470a6e3f178388106e3caa9e6fbd1",
      "function": "addTxSender(address)",
      "arguments": [
        "0x0c6235c04eF4Fa5013A58afb22967a068810C929"
      ],
      "transaction": {
        "from": "0xc3ca11bd8e131471904dced927b3fb7edb453179",
        "to": "0xe912f7c7a59470a6e3f178388106e3caa9e6fbd1",
        "gas": "0x11e4b",
        "value": "0x0",
        "input": "0xeebd14af0000000000000000000000000c6235c04ef4fa5013a58afb22967a068810c929",
        "nonce": "0x6c",
        "chainId": "0x66eee"
      },
      "additionalContracts": [],
      "isFixedGasLimit": false
    },
    {
      "hash": "0x1d6bd139bed323611501a6552b855b704501e41b89bfe37cd71e8f65715d8d96",
      "transactionType": "CALL",
      "contractName": null,
      "contractAddress": "0x92228b058f25bc4fb333fa296dddecbddf6496f3",
      "function": "addTxSender(address)",
      "arguments": [
        "0x0c6235c04eF4Fa5013A58afb22967a068810C929"
      ],
      "transaction": {
        "from": "0xc3ca11bd8e131471904dced927b3fb7edb453179",
        "to": "0x92228b058f25bc4fb333fa296dddecbddf6496f3",
        "gas": "0x11d10",
        "value": "0x0",
        "input": "0xeebd14af0000000000000000000000000c6235c04ef4fa5013a58afb22967a068810c929",
        "nonce": "0x6d",
        "chainId": "0x66eee"
      },
      "additionalContracts": [],
      "isFixedGasLimit": false
    },
    {
      "hash": "0x5c3d988be7b4b01abb10a69c3956a021265f50934a05757b3b130eff16257611",
      "transactionType": "CALL",
      "contractName": null,
      "contractAddress": "0x2af842c6517cf30fb3456aef485230e0dd085845",
      "function": "addTxSender(address)",
      "arguments": [
        "0x0c6235c04eF4Fa5013A58afb22967a068810C929"
      ],
      "transaction": {
        "from": "0xc3ca11bd8e131471904dced927b3fb7edb453179",
        "to": "0x2af842c6517cf30fb3456aef485230e0dd085845",
        "gas": "0x11dda",
        "value": "0x0",
        "input": "0xeebd14af0000000000000000000000000c6235c04ef4fa5013a58afb22967a068810c929",
        "nonce": "0x6e",
        "chainId": "0x66eee"
      },
      "additionalContracts": [],
      "isFixedGasLimit": false
    },
    {
      "hash": "0xe65afaeb31b7b236241f8608a4fb789a97198abc0c297b6ec0793327c48f2dab",
      "transactionType": "CALL",
      "contractName": null,
      "contractAddress": "0x2026027054f5bebceb650abd62dc623e327658e7",
      "function": "addTxSender(address)",
      "arguments": [
        "0x0c6235c04eF4Fa5013A58afb22967a068810C929"
      ],
      "transaction": {
        "from": "0xc3ca11bd8e131471904dced927b3fb7edb453179",
        "to": "0x2026027054f5bebceb650abd62dc623e327658e7",
        "gas": "0x11d1d",
        "value": "0x0",
        "input": "0xeebd14af0000000000000000000000000c6235c04ef4fa5013a58afb22967a068810c929",
        "nonce": "0x6f",
        "chainId": "0x66eee"
      },
      "additionalContracts": [],
      "isFixedGasLimit": false
    }
  ],
  "receipts": [
    {
      "status": "0x1",
      "cumulativeGasUsed": "0xe927a",
      "logs": [
        {
          "address": "0x58b610a359c870e0fc941139821a51f5aa23f14e",
          "topics": [
            "0xbfb8b3e2f6221ae729e9cacb0d35f5d9be686ba10cb1d4e34b646bbb87f7a269",
            "0x0000000000000000000000000c6235c04ef4fa5013a58afb22967a068810c929"
          ],
          "data": "0x0000000000000000000000000000000000000000000000000000000000000001",
          "blockHash": "0x9057ef7aef3eac2cd19bdaa46f7017f7a8b227f3a5ae94bd85bdbf228a7d54c0",
          "blockNumber": "0xafc5790",
          "transactionHash": "0x57dd81be6b483a1c9ecb535ffb6f3f433d2b3276475d659fe8a9ece19d55048f",
          "transactionIndex": "0xa",
          "logIndex": "0x16",
          "removed": false
        }
      ],
      "logsBloom": "0x00000000000010000000000000000000000000000000000000000000000000000000000000000080000000000000000020000020000000000000000000000000000040000000000000000000000000000000000000000000000000000000000000000000000000000000000000000000000000000000000000000002000000000000000000000000000000000000000000000000000000000000000000000000000000000100000000000000000000000000000000000000000000000000000000000000000000000000000000000000000000000000000000000000000000000000200000000000000000080000000000000000000000000000000000000000",
      "type": "0x2",
      "transactionHash": "0x57dd81be6b483a1c9ecb535ffb6f3f433d2b3276475d659fe8a9ece19d55048f",
      "transactionIndex": "0xa",
      "blockHash": "0x9057ef7aef3eac2cd19bdaa46f7017f7a8b227f3a5ae94bd85bdbf228a7d54c0",
      "blockNumber": "0xafc5790",
      "gasUsed": "0xd8a2",
      "effectiveGasPrice": "0x5f5e100",
      "from": "0xc3ca11bd8e131471904dced927b3fb7edb453179",
      "to": "0x58b610a359c870e0fc941139821a51f5aa23f14e",
      "contractAddress": null,
      "gasUsedForL1": "0xbe",
      "l1BlockNumber": "0x89317f",
      "timeboosted": false
    },
    {
      "status": "0x1",
      "cumulativeGasUsed": "0x169375",
      "logs": [
        {
          "address": "0x2f925d6512b2bbb00f5a36d8b18e01fcf35f7dc7",
          "topics": [
            "0xbfb8b3e2f6221ae729e9cacb0d35f5d9be686ba10cb1d4e34b646bbb87f7a269",
            "0x0000000000000000000000000c6235c04ef4fa5013a58afb22967a068810c929"
          ],
          "data": "0x0000000000000000000000000000000000000000000000000000000000000001",
          "blockHash": "0x0cdc7fb37c3f8726368e7df9baf1013db21ba80eb2718120d833907fb2008465",
          "blockNumber": "0xafc579b",
          "transactionHash": "0xe04a775cd8db79ae2981d2600ef2204648312ce36fb4b5f8de93ea17cd8cc1b6",
          "transactionIndex": "0xd",
          "logIndex": "0x19",
          "removed": false
        }
      ],
      "logsBloom": "0x00000000000000000000000000000000000000000000000000000000000000000000000000000080000000000000000020000020000000000000000000000000000040000000000000000000000000000000000000000000000000000000000000000000000000000000000000000000000000000000000000000002000000000000000400000000000000000000000000000000000000000000000000000000000000000000000000000000000000000000000000000000000000000000004000000000000000000000000000004000000000000000000000000000000000000000200000000000000000000000000000000000000000000000000000000000",
      "type": "0x2",
      "transactionHash": "0xe04a775cd8db79ae2981d2600ef2204648312ce36fb4b5f8de93ea17cd8cc1b6",
      "transactionIndex": "0xd",
      "blockHash": "0x0cdc7fb37c3f8726368e7df9baf1013db21ba80eb2718120d833907fb2008465",
      "blockNumber": "0xafc579b",
      "gasUsed": "0xd88c",
      "effectiveGasPrice": "0x5f5e100",
      "from": "0xc3ca11bd8e131471904dced927b3fb7edb453179",
      "to": "0x2f925d6512b2bbb00f5a36d8b18e01fcf35f7dc7",
      "contractAddress": null,
      "gasUsedForL1": "0xbe",
      "l1BlockNumber": "0x89317f",
      "timeboosted": false
    },
    {
      "status": "0x1",
      "cumulativeGasUsed": "0xe4187",
      "logs": [
        {
          "address": "0x9c9e9fad264089339aad66ff3e32d2ba1ddf6951",
          "topics": [
            "0xbfb8b3e2f6221ae729e9cacb0d35f5d9be686ba10cb1d4e34b646bbb87f7a269",
            "0x0000000000000000000000000c6235c04ef4fa5013a58afb22967a068810c929"
          ],
          "data": "0x0000000000000000000000000000000000000000000000000000000000000001",
          "blockHash": "0xa09f6954dda7feb804cffa4fdc21ad4be67b8ef74f109637b56babe8115b82e4",
          "blockNumber": "0xafc57a6",
          "transactionHash": "0x011cb5b131cfb206e770a42f4a08dd4e5a0dde0dca14585815738ba46b9c1350",
          "transactionIndex": "0x7",
          "logIndex": "0x1a",
          "removed": false
        }
      ],
      "logsBloom": "0x00000000000000000000000000000000000000000000000000000000000000000000000000000080000000000000000020000020000000000000000000000000000040000000000000000000000000000000000000000000000000000000000000000000000000000000000000000000000000000000000000000002000000000000000000000000000000000000000000000000000000000000000000000000000000000000000000000000000000000000000000000000000000000000000000000000000000000000000800000000000000000000000000000000000002000000600000000000000000000000000000000000000000000000000000000000",
      "type": "0x2",
      "transactionHash": "0x011cb5b131cfb206e770a42f4a08dd4e5a0dde0dca14585815738ba46b9c1350",
      "transactionIndex": "0x7",
      "blockHash": "0xa09f6954dda7feb804cffa4fdc21ad4be67b8ef74f109637b56babe8115b82e4",
      "blockNumber": "0xafc57a6",
      "gasUsed": "0xd93d",
      "effectiveGasPrice": "0x5f5e100",
      "from": "0xc3ca11bd8e131471904dced927b3fb7edb453179",
      "to": "0x9c9e9fad264089339aad66ff3e32d2ba1ddf6951",
      "contractAddress": null,
      "gasUsedForL1": "0xbe",
      "l1BlockNumber": "0x89317f",
      "timeboosted": false
    },
    {
      "status": "0x1",
      "cumulativeGasUsed": "0x11a112",
      "logs": [
        {
          "address": "0xe912f7c7a59470a6e3f178388106e3caa9e6fbd1",
          "topics": [
            "0xbfb8b3e2f6221ae729e9cacb0d35f5d9be686ba10cb1d4e34b646bbb87f7a269",
            "0x0000000000000000000000000c6235c04ef4fa5013a58afb22967a068810c929"
          ],
          "data": "0x0000000000000000000000000000000000000000000000000000000000000001",
          "blockHash": "0x341bb7e0ba9437656ff093c76dadbef5ec16cef193828994ab5b0c49e6ef1df3",
          "blockNumber": "0xafc57b1",
          "transactionHash": "0x886a4fca91f56e9b510274fca1ae592d85aa0240ba679663bf3311465cbd2e2f",
          "transactionIndex": "0xa",
          "logIndex": "0x1b",
          "removed": false
        }
      ],
      "logsBloom": "0x00000000000000000000000000000000000000000000000000000000000004000000000000000080000000000000000020000020000000000000000000000000000040020000000000010000000000000000000000000000000000000000000000000000000000000000000000000000000000000000000000000002000000000000000000000000000000000000000000000000000000000000000000000000000000000000000000000000000000000000000000000000000000000000000000000000000000000000000000000000000000000000000000000000000000000000200000000000000000000000000000000000000000000000000000000000",
      "type": "0x2",
      "transactionHash": "0x886a4fca91f56e9b510274fca1ae592d85aa0240ba679663bf3311465cbd2e2f",
      "transactionIndex": "0xa",
      "blockHash": "0x341bb7e0ba9437656ff093c76dadbef5ec16cef193828994ab5b0c49e6ef1df3",
      "blockNumber": "0xafc57b1",
      "gasUsed": "0xd8e4",
      "effectiveGasPrice": "0x5f5e100",
      "from": "0xc3ca11bd8e131471904dced927b3fb7edb453179",
      "to": "0xe912f7c7a59470a6e3f178388106e3caa9e6fbd1",
      "contractAddress": null,
      "gasUsedForL1": "0xbe",
      "l1BlockNumber": "0x89317f",
      "timeboosted": false
    },
    {
      "status": "0x1",
      "cumulativeGasUsed": "0x10a07f",
      "logs": [
        {
          "address": "0x92228b058f25bc4fb333fa296dddecbddf6496f3",
          "topics": [
            "0xbfb8b3e2f6221ae729e9cacb0d35f5d9be686ba10cb1d4e34b646bbb87f7a269",
            "0x0000000000000000000000000c6235c04ef4fa5013a58afb22967a068810c929"
          ],
          "data": "0x0000000000000000000000000000000000000000000000000000000000000001",
          "blockHash": "0xb717f9a6bf8a6c9cacf60636cc8621f3f96858b8b6a38f2a175ceba5624b47d2",
          "blockNumber": "0xafc57bc",
          "transactionHash": "0x1d6bd139bed323611501a6552b855b704501e41b89bfe37cd71e8f65715d8d96",
          "transactionIndex": "0xb",
          "logIndex": "0x1c",
          "removed": false
        }
      ],
      "logsBloom": "0x00000000000000000000000000000000000000000000000000000000000000000000000000000080000000000000000020000020000000000000000000000000000040000000000000000000000000000000000000000000000000000000000000000000000000000000000000000000000000000000000000000002000000000000000000000000000000000000000000000000000000008010000000000000000000000000000000000000000000000000000000000000000000000000000000000000002000000000000000000000000000000000000000000000000000000000200000000000000000000000000000000000000000000000000000000000",
      "type": "0x2",
      "transactionHash": "0x1d6bd139bed323611501a6552b855b704501e41b89bfe37cd71e8f65715d8d96",
      "transactionIndex": "0xb",
      "blockHash": "0xb717f9a6bf8a6c9cacf60636cc8621f3f96858b8b6a38f2a175ceba5624b47d2",
      "blockNumber": "0xafc57bc",
      "gasUsed": "0xd7f3",
      "effectiveGasPrice": "0x5f5e100",
      "from": "0xc3ca11bd8e131471904dced927b3fb7edb453179",
      "to": "0x92228b058f25bc4fb333fa296dddecbddf6496f3",
      "contractAddress": null,
      "gasUsedForL1": "0xbe",
      "l1BlockNumber": "0x89317f",
      "timeboosted": false
    },
    {
      "status": "0x1",
      "cumulativeGasUsed": "0xa294d",
      "logs": [
        {
          "address": "0x2af842c6517cf30fb3456aef485230e0dd085845",
          "topics": [
            "0xbfb8b3e2f6221ae729e9cacb0d35f5d9be686ba10cb1d4e34b646bbb87f7a269",
            "0x0000000000000000000000000c6235c04ef4fa5013a58afb22967a068810c929"
          ],
          "data": "0x0000000000000000000000000000000000000000000000000000000000000001",
          "blockHash": "0x45b7dbc9044040703267442cd981f6b9473b8f816e65923e7695ac57b35d8dd6",
          "blockNumber": "0xafc57c7",
          "transactionHash": "0x5c3d988be7b4b01abb10a69c3956a021265f50934a05757b3b130eff16257611",
          "transactionIndex": "0x6",
          "logIndex": "0x11",
          "removed": false
        }
      ],
      "logsBloom": "0x00000000000000000000000000000000000000000000000000000000000000000000000000000080000000000000000020000020000000000000000000000000000040000000800000000000000000000000000000000000000000000000000000000000000000000000000000000000000000000000000000000002000000000000000000000000000000000000000000000000000000000000000000000000000000004000000000000000000000000000000000000000000000000000000000000000000000000000000000000000000000000000000000000200000000000000200000000000000000000000000000000000000000000000000000000000",
      "type": "0x2",
      "transactionHash": "0x5c3d988be7b4b01abb10a69c3956a021265f50934a05757b3b130eff16257611",
      "transactionIndex": "0x6",
      "blockHash": "0x45b7dbc9044040703267442cd981f6b9473b8f816e65923e7695ac57b35d8dd6",
      "blockNumber": "0xafc57c7",
      "gasUsed": "0xd88d",
      "effectiveGasPrice": "0x5f5e100",
      "from": "0xc3ca11bd8e131471904dced927b3fb7edb453179",
      "to": "0x2af842c6517cf30fb3456aef485230e0dd085845",
      "contractAddress": null,
      "gasUsedForL1": "0xbe",
      "l1BlockNumber": "0x893181",
      "timeboosted": false
    },
    {
      "status": "0x1",
      "cumulativeGasUsed": "0x98cf8",
      "logs": [
        {
          "address": "0x2026027054f5bebceb650abd62dc623e327658e7",
          "topics": [
            "0xbfb8b3e2f6221ae729e9cacb0d35f5d9be686ba10cb1d4e34b646bbb87f7a269",
            "0x0000000000000000000000000c6235c04ef4fa5013a58afb22967a068810c929"
          ],
          "data": "0x0000000000000000000000000000000000000000000000000000000000000001",
          "blockHash": "0x8d28502eea4fc68192eec783e66eb024bdd6fd2c60c2a322af245d1cebd1c57d",
          "blockNumber": "0xafc57d4",
          "transactionHash": "0xe65afaeb31b7b236241f8608a4fb789a97198abc0c297b6ec0793327c48f2dab",
          "transactionIndex": "0x8",
          "logIndex": "0xe",
          "removed": false
        }
      ],
      "logsBloom": "0x00000000000000000000000000000000000000000000000000000000000000000000000000800080000000000000000020000020000000000000000000000200000040000000000000000000000000000000000000000000000000000000000000000000000000000000000000000000000000000000000000000002000000000020000000000000000000000000000000000000000000000000000000000000000000000000000000000000000000000000000000000000000000000000000000000000000000000000000000000000000000000000000000000000000000000000200000000000000000000000000000000000000000000000000000000000",
      "type": "0x2",
      "transactionHash": "0xe65afaeb31b7b236241f8608a4fb789a97198abc0c297b6ec0793327c48f2dab",
      "transactionIndex": "0x8",
      "blockHash": "0x8d28502eea4fc68192eec783e66eb024bdd6fd2c60c2a322af245d1cebd1c57d",
      "blockNumber": "0xafc57d4",
      "gasUsed": "0xd7fd",
      "effectiveGasPrice": "0x5f5e100",
      "from": "0xc3ca11bd8e131471904dced927b3fb7edb453179",
      "to": "0x2026027054f5bebceb650abd62dc623e327658e7",
      "contractAddress": null,
      "gasUsedForL1": "0xbe",
      "l1BlockNumber": "0x893181",
      "timeboosted": false
    }
  ],
  "libraries": [],
  "pending": [],
  "returns": {},
  "timestamp": 1755279079,
  "chain": 421614,
  "commit": "cdeee31"
}