{
  "transactions": [
    {
      "hash": "0xbd31c8ba4fcdf70f34ee1e6a5ff3064acb5e53e522062445a4219b11f34ff62f",
      "transactionType": "CALL",
      "contractName": "CTMRWA001X",
      "contractAddress": "0x842391b3c9103a0cfcae764a201150a08774e810",
      "function": "mintNewTokenValueLocal(address,uint256,uint256,uint256,uint256)",
      "arguments": [
        "0xe62Ab4D111f968660C6B2188046F9B9bA53C4Bae",
        "0",
        "0",
        "1450",
        "47577604758274059301811825162496829567316504269321292025732381144987095236250"
      ],
      "transaction": {
        "from": "0xe62ab4d111f968660c6b2188046f9b9ba53c4bae",
        "to": "0x842391b3c9103a0cfcae764a201150a08774e810",
        "gas": "0x845bc",
        "value": "0x0",
        "input": "0xd299e54a000000000000000000000000e62ab4d111f968660c6b2188046f9b9ba53c4bae0000000000000000000000000000000000000000000000000000000000000000000000000000000000000000000000000000000000000000000000000000000000000000000000000000000000000000000000000000000000000000000005aa692ff8520b2cd24c11010895ec9e5707dc17b0bcb5bafe63bf6482ddd74b7e9a",
        "nonce": "0xcd",
        "chainId": "0x14a34"
      },
      "additionalContracts": [],
      "isFixedGasLimit": false
    },
    {
      "hash": "0xae0854fb675bb92b1dcfac10e7adaba0e7a0afbdc5b1ec4942c1e6fdfbed5572",
      "transactionType": "CALL",
      "contractName": "CTMRWA001X",
      "contractAddress": "0x842391b3c9103a0cfcae764a201150a08774e810",
      "function": "deployAllCTMRWA001X(bool,uint256,uint256,uint256,string,string,uint8,string,string[],string)",
      "arguments": [
        "false",
        "47577604758274059301811825162496829567316504269321292025732381144987095236250",
        "1",
        "1",
        "Selqui SQ1",
        "SQ1",
        "18",
        "GFLD",
        "[80002]",
        "0x6a4dbc971533ba36bdc23ad70f5a7a12e064f4ae"
      ],
      "transaction": {
        "from": "0xe62ab4d111f968660c6b2188046f9b9ba53c4bae",
        "to": "0x842391b3c9103a0cfcae764a201150a08774e810",
        "gas": "0x97f68",
        "value": "0x0",
        "input": "0xa3d8f8500000000000000000000000000000000000000000000000000000000000000000692ff8520b2cd24c11010895ec9e5707dc17b0bcb5bafe63bf6482ddd74b7e9a0000000000000000000000000000000000000000000000000000000000000001000000000000000000000000000000000000000000000000000000000000000100000000000000000000000000000000000000000000000000000000000001400000000000000000000000000000000000000000000000000000000000000180000000000000000000000000000000000000000000000000000000000000001200000000000000000000000000000000000000000000000000000000000001c000000000000000000000000000000000000000000000000000000000000002000000000000000000000000000000000000000000000000000000000000000280000000000000000000000000000000000000000000000000000000000000000a53656c717569205351310000000000000000000000000000000000000000000000000000000000000000000000000000000000000000000000000000000000035351310000000000000000000000000000000000000000000000000000000000000000000000000000000000000000000000000000000000000000000000000447464c44000000000000000000000000000000000000000000000000000000000000000000000000000000000000000000000000000000000000000000000001000000000000000000000000000000000000000000000000000000000000002000000000000000000000000000000000000000000000000000000000000000053830303032000000000000000000000000000000000000000000000000000000000000000000000000000000000000000000000000000000000000000000002a30783661346462633937313533336261333662646332336164373066356137613132653036346634616500000000000000000000000000000000000000000000",
        "nonce": "0xce",
        "chainId": "0x14a34"
      },
      "additionalContracts": [],
      "isFixedGasLimit": false
    }
  ],
  "receipts": [
    {
      "status": "0x1",
      "cumulativeGasUsed": "0x240d0e",
      "logs": [
        {
          "address": "0xaf51fd25bdfd4e75ae0e27298a3199deebc13805",
          "topics": [
            "0xddf252ad1be2c89b69c2b068fc378daa952ba7f163c4a11628f55a4df523b3ef",
            "0x0000000000000000000000000000000000000000000000000000000000000000",
            "0x000000000000000000000000e62ab4d111f968660c6b2188046f9b9ba53c4bae",
            "0x0000000000000000000000000000000000000000000000000000000000000003"
          ],
          "data": "0x",
          "blockHash": "0xcc7a16217df4e13f86135348fe3662a5cf6178122e2ba0c582bd235f45bff9f2",
          "blockNumber": "0x109fd6d",
          "transactionHash": "0xbd31c8ba4fcdf70f34ee1e6a5ff3064acb5e53e522062445a4219b11f34ff62f",
          "transactionIndex": "0xa",
          "logIndex": "0x17",
          "removed": false
        },
        {
          "address": "0xaf51fd25bdfd4e75ae0e27298a3199deebc13805",
          "topics": [
            "0xe4f48c240d3b994948aa54f3e2f5fca59263dfe1d52b6e4cf39a5d249b5ccb65",
            "0x0000000000000000000000000000000000000000000000000000000000000003",
            "0x0000000000000000000000000000000000000000000000000000000000000000",
            "0x0000000000000000000000000000000000000000000000000000000000000000"
          ],
          "data": "0x",
          "blockHash": "0xcc7a16217df4e13f86135348fe3662a5cf6178122e2ba0c582bd235f45bff9f2",
          "blockNumber": "0x109fd6d",
          "transactionHash": "0xbd31c8ba4fcdf70f34ee1e6a5ff3064acb5e53e522062445a4219b11f34ff62f",
          "transactionIndex": "0xa",
          "logIndex": "0x18",
          "removed": false
        },
        {
          "address": "0xaf51fd25bdfd4e75ae0e27298a3199deebc13805",
          "topics": [
            "0x0b2aac84f3ec956911fd78eae5311062972ff949f38412e8da39069d9f068cc6",
            "0x0000000000000000000000000000000000000000000000000000000000000000",
            "0x0000000000000000000000000000000000000000000000000000000000000003"
          ],
          "data": "0x00000000000000000000000000000000000000000000000000000000000005aa",
          "blockHash": "0xcc7a16217df4e13f86135348fe3662a5cf6178122e2ba0c582bd235f45bff9f2",
          "blockNumber": "0x109fd6d",
          "transactionHash": "0xbd31c8ba4fcdf70f34ee1e6a5ff3064acb5e53e522062445a4219b11f34ff62f",
          "transactionIndex": "0xa",
          "logIndex": "0x19",
          "removed": false
        }
      ],
      "logsBloom": "0x20000000000000000004000000000000000000000000001000000000000000000000000000000000000000000000000000000000020000000000000000000000000000000008000000000008000000000000000000000000000000000000000000000000020000000000000000000800000000000000000000004010000000000000000000000000400000000000040000000000000000000000000000000000000000000000000000000000000002000000000000800000000000000000400000000002000000000002000000000020000000000000000000000000000020000000000000000000000000000000000200000000000001000000000000000000",
      "type": "0x2",
      "transactionHash": "0xbd31c8ba4fcdf70f34ee1e6a5ff3064acb5e53e522062445a4219b11f34ff62f",
      "transactionIndex": "0xa",
      "blockHash": "0xcc7a16217df4e13f86135348fe3662a5cf6178122e2ba0c582bd235f45bff9f2",
      "blockNumber": "0x109fd6d",
      "gasUsed": "0x5fd34",
      "effectiveGasPrice": "0xf43c5",
      "from": "0xe62ab4d111f968660c6b2188046f9b9ba53c4bae",
      "to": "0x842391b3c9103a0cfcae764a201150a08774e810",
      "contractAddress": null,
      "l1BaseFeeScalar": "0x44d",
      "l1BlobBaseFee": "0x4b",
      "l1BlobBaseFeeScalar": "0xa118b",
      "l1Fee": "0x14848efdf",
      "l1GasPrice": "0xa1543f2b",
      "l1GasUsed": "0x738"
    },
    {
      "status": "0x1",
      "cumulativeGasUsed": "0x2aed5a",
      "logs": [
        {
          "address": "0x433f3275a787be38703917ff2919cefead9327cd",
          "topics": [
            "0x88ca677ce66cb94eb6b03d7e06b1735c23eafde3090030bf7fb84711690a287e",
            "0x000000000000000000000000000000000000000000000000000000000000002d",
            "0xd121c7e8fb59c9f42f9a55fbf447f5179bdba77682e3ff4313e7daa8a056aa89"
          ],
          "data": "0x000000000000000000000000842391b3c9103a0cfcae764a201150a08774e81000000000000000000000000000000000000000000000000000000000000000a000000000000000000000000000000000000000000000000000000000000000e00000000000000000000000000000000000000000000000000000000000000140000000000000000000000000000000000000000000000000000000000000042000000000000000000000000000000000000000000000000000000000000000053830303032000000000000000000000000000000000000000000000000000000000000000000000000000000000000000000000000000000000000000000002a3078643731353562393963613537616134633037313161383762393832663531376465356130333664650000000000000000000000000000000000000000000000000000000000000000000000000000000000000000000000000000000002a43d9ab49f0000000000000000000000000000000000000000000000000000000000000120692ff8520b2cd24c11010895ec9e5707dc17b0bcb5bafe63bf6482ddd74b7e9a00000000000000000000000000000000000000000000000000000000000000010000000000000000000000000000000000000000000000000000000000000001000000000000000000000000000000000000000000000000000000000000018000000000000000000000000000000000000000000000000000000000000001c0000000000000000000000000000000000000000000000000000000000000001200000000000000000000000000000000000000000000000000000000000002000000000000000000000000000000000000000000000000000000000000000240000000000000000000000000000000000000000000000000000000000000002a30786536326162346431313166393638363630633662323138383034366639623962613533633462616500000000000000000000000000000000000000000000000000000000000000000000000000000000000000000000000000000000000a53656c717569205351310000000000000000000000000000000000000000000000000000000000000000000000000000000000000000000000000000000000035351310000000000000000000000000000000000000000000000000000000000000000000000000000000000000000000000000000000000000000000000000447464c4400000000000000000000000000000000000000000000000000000000000000000000000000000000000000000000000000000000000000000000002a30786166353166643235626466643465373561653065323732393861333139396465656263313338303500000000000000000000000000000000000000000000000000000000000000000000000000000000000000000000000000000000000000000000000000000000000000000000000000000000000000000000",
          "blockHash": "0xcc7a16217df4e13f86135348fe3662a5cf6178122e2ba0c582bd235f45bff9f2",
          "blockNumber": "0x109fd6d",
          "transactionHash": "0xae0854fb675bb92b1dcfac10e7adaba0e7a0afbdc5b1ec4942c1e6fdfbed5572",
          "transactionIndex": "0xb",
          "logIndex": "0x1a",
          "removed": false
        }
      ],
      "logsBloom": "0x00000000000000000000001000000000000000000000000000000000000000000000000000000000000000008000000000000000000000000000000400000000000000000000000000000040000000000000000000000000000000000000000000000000000000000000008000000000000000000000020000000000000000000000000000000000000020000000000000000000000000000000000000000000000000000000000000000000000000000000002000000000000010000000000000000000000000000000000000008000000000000000000000000000400000000000000000000000000000000000002000000000000000000000000000000000",
      "type": "0x2",
      "transactionHash": "0xae0854fb675bb92b1dcfac10e7adaba0e7a0afbdc5b1ec4942c1e6fdfbed5572",
      "transactionIndex": "0xb",
      "blockHash": "0xcc7a16217df4e13f86135348fe3662a5cf6178122e2ba0c582bd235f45bff9f2",
      "blockNumber": "0x109fd6d",
      "gasUsed": "0x6e04c",
      "effectiveGasPrice": "0xf43c5",
      "from": "0xe62ab4d111f968660c6b2188046f9b9ba53c4bae",
      "to": "0x842391b3c9103a0cfcae764a201150a08774e810",
      "contractAddress": null,
      "l1BaseFeeScalar": "0x44d",
      "l1BlobBaseFee": "0x4b",
      "l1BlobBaseFeeScalar": "0xa118b",
      "l1Fee": "0x27172f493",
      "l1GasPrice": "0xa1543f2b",
      "l1GasUsed": "0xdc1"
    }
  ],
  "libraries": [],
  "pending": [],
  "returns": {},
  "timestamp": 1730632128,
  "chain": 84532,
  "commit": "34a11392"
}