{
  "transactions": [
    {
      "hash": "0xa60da740fcfab4866dfc2bc8b710228e000f3152c5e5e4a5131130b9432e27e4",
      "transactionType": "CALL",
      "contractName": null,
      "contractAddress": "0x6a4dbc971533ba36bdc23ad70f5a7a12e064f4ae",
      "function": "approve(address,uint256)",
      "arguments": [
        "0x9A0F81de582Ce9194FEADC6CCefaf9eA70451616",
        "10000000000"
      ],
      "transaction": {
        "from": "0xe62ab4d111f968660c6b2188046f9b9ba53c4bae",
        "to": "0x6a4dbc971533ba36bdc23ad70f5a7a12e064f4ae",
        "gas": "0xf960",
        "value": "0x0",
        "input": "0x095ea7b30000000000000000000000009a0f81de582ce9194feadc6ccefaf9ea7045161600000000000000000000000000000000000000000000000000000002540be400",
        "nonce": "0x1e3",
        "chainId": "0x14a34"
      },
      "additionalContracts": [],
      "isFixedGasLimit": false
    },
    {
      "hash": "0x1b40908054068f8a8f71db9de7684f23bc96fd76a9153b777a60220bb1649790",
      "transactionType": "CALL",
      "contractName": "CTMRWA001X",
      "contractAddress": "0x9a0f81de582ce9194feadc6ccefaf9ea70451616",
      "function": "mintNewTokenValueLocal(address,uint256,uint256,uint256,uint256)",
      "arguments": [
        "0xe62Ab4D111f968660C6B2188046F9B9bA53C4Bae",
        "0",
        "6",
        "1450",
        "111408646266712812166735691586478362390842293088154993734704734833727374496664"
      ],
      "transaction": {
        "from": "0xe62ab4d111f968660c6b2188046f9b9ba53c4bae",
        "to": "0x9a0f81de582ce9194feadc6ccefaf9ea70451616",
        "gas": "0x8ba31",
        "value": "0x0",
        "input": "0xd299e54a000000000000000000000000e62ab4d111f968660c6b2188046f9b9ba53c4bae0000000000000000000000000000000000000000000000000000000000000000000000000000000000000000000000000000000000000000000000000000000600000000000000000000000000000000000000000000000000000000000005aaf64f0f27b8f603da297a25f0bfb2ce387c5b73a93bb3aa3b301e71bb6be21398",
        "nonce": "0x1e4",
        "chainId": "0x14a34"
      },
      "additionalContracts": [],
      "isFixedGasLimit": false
    }
  ],
  "receipts": [
    {
      "status": "0x1",
      "cumulativeGasUsed": "0xf3a0b",
      "logs": [
        {
          "address": "0x6a4dbc971533ba36bdc23ad70f5a7a12e064f4ae",
          "topics": [
            "0x8c5be1e5ebec7d5bd14f71427d1e84f3dd0314c0f7b2291e5b200ac8c7c3b925",
            "0x000000000000000000000000e62ab4d111f968660c6b2188046f9b9ba53c4bae",
            "0x0000000000000000000000009a0f81de582ce9194feadc6ccefaf9ea70451616"
          ],
          "data": "0x00000000000000000000000000000000000000000000000000000002540be400",
          "blockHash": "0x185cf019099c1bb800793b0b0b1b7342b4318ac2940aaf85b7fa6e59d42d4225",
          "blockNumber": "0x117ecc1",
          "transactionHash": "0xa60da740fcfab4866dfc2bc8b710228e000f3152c5e5e4a5131130b9432e27e4",
          "transactionIndex": "0xa",
          "logIndex": "0xe",
          "removed": false
        }
      ],
      "logsBloom": "0x20000000000000000004000010000000000000000000000000000000000000000000000000000000000000000000000010000000000000000000000000200000000000000000000000000000000000000000000000000000000000000000000000000000000000000000000000000000000100000000000000000000000000010000000000000000000000000000040000000000000000000000000000000000020000000000000000000000000000000000000000000000000000000000000000000004080000000000000000000000000000000000000000000000000000000010000000000000000000000000000000000000000000000000000000000000",
      "type": "0x2",
      "transactionHash": "0xa60da740fcfab4866dfc2bc8b710228e000f3152c5e5e4a5131130b9432e27e4",
      "transactionIndex": "0xa",
      "blockHash": "0x185cf019099c1bb800793b0b0b1b7342b4318ac2940aaf85b7fa6e59d42d4225",
      "blockNumber": "0x117ecc1",
      "gasUsed": "0xb48c",
      "effectiveGasPrice": "0xe1ef",
      "from": "0xe62ab4d111f968660c6b2188046f9b9ba53c4bae",
      "to": "0x6a4dbc971533ba36bdc23ad70f5a7a12e064f4ae",
      "contractAddress": null,
      "l1BaseFeeScalar": "0x44d",
      "l1BlobBaseFee": "0x1",
      "l1BlobBaseFeeScalar": "0xa118b",
      "l1Fee": "0x460bf1aa2",
      "l1GasPrice": "0x27c359be1",
      "l1GasUsed": "0x640"
    },
    {
      "status": "0x1",
      "cumulativeGasUsed": "0x158b8f",
      "logs": [
        {
          "address": "0x8e58553f4d14e266669f194383ccdea0afdf39a3",
          "topics": [
            "0xddf252ad1be2c89b69c2b068fc378daa952ba7f163c4a11628f55a4df523b3ef",
            "0x0000000000000000000000000000000000000000000000000000000000000000",
            "0x000000000000000000000000e62ab4d111f968660c6b2188046f9b9ba53c4bae",
            "0x0000000000000000000000000000000000000000000000000000000000000001"
          ],
          "data": "0x",
          "blockHash": "0x185cf019099c1bb800793b0b0b1b7342b4318ac2940aaf85b7fa6e59d42d4225",
          "blockNumber": "0x117ecc1",
          "transactionHash": "0x1b40908054068f8a8f71db9de7684f23bc96fd76a9153b777a60220bb1649790",
          "transactionIndex": "0xb",
          "logIndex": "0xf",
          "removed": false
        },
        {
          "address": "0x8e58553f4d14e266669f194383ccdea0afdf39a3",
          "topics": [
            "0xe4f48c240d3b994948aa54f3e2f5fca59263dfe1d52b6e4cf39a5d249b5ccb65",
            "0x0000000000000000000000000000000000000000000000000000000000000001",
            "0x0000000000000000000000000000000000000000000000000000000000000000",
            "0x0000000000000000000000000000000000000000000000000000000000000006"
          ],
          "data": "0x",
          "blockHash": "0x185cf019099c1bb800793b0b0b1b7342b4318ac2940aaf85b7fa6e59d42d4225",
          "blockNumber": "0x117ecc1",
          "transactionHash": "0x1b40908054068f8a8f71db9de7684f23bc96fd76a9153b777a60220bb1649790",
          "transactionIndex": "0xb",
          "logIndex": "0x10",
          "removed": false
        },
        {
          "address": "0x8e58553f4d14e266669f194383ccdea0afdf39a3",
          "topics": [
            "0x0b2aac84f3ec956911fd78eae5311062972ff949f38412e8da39069d9f068cc6",
            "0x0000000000000000000000000000000000000000000000000000000000000000",
            "0x0000000000000000000000000000000000000000000000000000000000000001"
          ],
          "data": "0x00000000000000000000000000000000000000000000000000000000000005aa",
          "blockHash": "0x185cf019099c1bb800793b0b0b1b7342b4318ac2940aaf85b7fa6e59d42d4225",
          "blockNumber": "0x117ecc1",
          "transactionHash": "0x1b40908054068f8a8f71db9de7684f23bc96fd76a9153b777a60220bb1649790",
          "transactionIndex": "0xb",
          "logIndex": "0x11",
          "removed": false
        }
      ],
      "logsBloom": "0x20000000000000000004000000000000000000000000001000000000000000000000000000000000000000000000000000000010000400000000000000040000000000000000000000000008000000000000000000040000000000000000000000000000020000000000000000000800000000000000000000000010000000000000000400000000400000000000040000000000000000000000000000000000000000000000000000000000000002000000000000000000000000080000000000400002000000000002000000000000000000000000010000000000000060000000000000000000000000000000000200000000000001000000000000000000",
      "type": "0x2",
      "transactionHash": "0x1b40908054068f8a8f71db9de7684f23bc96fd76a9153b777a60220bb1649790",
      "transactionIndex": "0xb",
      "blockHash": "0x185cf019099c1bb800793b0b0b1b7342b4318ac2940aaf85b7fa6e59d42d4225",
      "blockNumber": "0x117ecc1",
      "gasUsed": "0x65184",
      "effectiveGasPrice": "0xe1ef",
      "from": "0xe62ab4d111f968660c6b2188046f9b9ba53c4bae",
      "to": "0x9a0f81de582ce9194feadc6ccefaf9ea70451616",
      "contractAddress": null,
      "l1BaseFeeScalar": "0x44d",
      "l1BlobBaseFee": "0x1",
      "l1BlobBaseFeeScalar": "0xa118b",
      "l1Fee": "0x5341b61db",
      "l1GasPrice": "0x27c359be1",
      "l1GasUsed": "0x76d"
    }
  ],
  "libraries": [],
  "pending": [],
  "returns": {},
  "timestamp": 1732458599,
  "chain": 84532,
  "commit": "e1e292db"
}