{
  "transactions": [
    {
      "hash": "0x34807bd23392b8d98caf2ed1b040de381c47a394dd314c3a37aec905f8c8c308",
      "transactionType": "CALL",
      "contractName": "FeeManager",
      "contractAddress": "0x1e608fd1546e1bc1382abc4e676cefb7e314fb30",
      "function": "getFeeTokenList()",
      "arguments": [],
      "transaction": {
        "from": "0xe62ab4d111f968660c6b2188046f9b9ba53c4bae",
        "to": "0x1e608fd1546e1bc1382abc4e676cefb7e314fb30",
        "gas": "0x8a7e",
        "value": "0x0",
        "input": "0xe28ab277",
        "nonce": "0x109",
        "chainId": "0xaa36a7"
      },
      "additionalContracts": [],
      "isFixedGasLimit": false
    },
    {
      "hash": "0x4ad5d01ac81051324e8ab790f0afe39cdd5dc80146e1d5c4da5a6387f3f24e90",
      "transactionType": "CALL",
      "contractName": "FeeManager",
      "contractAddress": "0x1e608fd1546e1bc1382abc4e676cefb7e314fb30",
      "function": "addFeeToken(string)",
      "arguments": [
        "0xa4c104db0937f1e886d5c9c9789d6f0e5bfba75c"
      ],
      "transaction": {
        "from": "0xe62ab4d111f968660c6b2188046f9b9ba53c4bae",
        "to": "0x1e608fd1546e1bc1382abc4e676cefb7e314fb30",
        "gas": "0x28cec",
        "value": "0x0",
        "input": "0x12a6385f0000000000000000000000000000000000000000000000000000000000000020000000000000000000000000000000000000000000000000000000000000002a30786134633130346462303933376631653838366435633963393738396436663065356266626137356300000000000000000000000000000000000000000000",
        "nonce": "0x10a",
        "chainId": "0xaa36a7"
      },
      "additionalContracts": [],
      "isFixedGasLimit": false
    },
    {
      "hash": "0x88b0dcae38254ccac3f4e52a8eff83a44369bbf0ce06cdaac123b7647d16ba96",
      "transactionType": "CALL",
      "contractName": "FeeManager",
      "contractAddress": "0x1e608fd1546e1bc1382abc4e676cefb7e314fb30",
      "function": "setFeeMultiplier(uint8,uint256)",
      "arguments": [
        "0",
        "2"
      ],
      "transaction": {
        "from": "0xe62ab4d111f968660c6b2188046f9b9ba53c4bae",
        "to": "0x1e608fd1546e1bc1382abc4e676cefb7e314fb30",
        "gas": "0x112e8",
        "value": "0x0",
        "input": "0x0ee24eb500000000000000000000000000000000000000000000000000000000000000000000000000000000000000000000000000000000000000000000000000000002",
        "nonce": "0x10b",
        "chainId": "0xaa36a7"
      },
      "additionalContracts": [],
      "isFixedGasLimit": false
    },
    {
      "hash": "0x4bfbe3491166b50ea651339a5924136778d4671ab66d80be91142f2d01e91145",
      "transactionType": "CALL",
      "contractName": "FeeManager",
      "contractAddress": "0x1e608fd1546e1bc1382abc4e676cefb7e314fb30",
      "function": "setFeeMultiplier(uint8,uint256)",
      "arguments": [
        "1",
        "10"
      ],
      "transaction": {
        "from": "0xe62ab4d111f968660c6b2188046f9b9ba53c4bae",
        "to": "0x1e608fd1546e1bc1382abc4e676cefb7e314fb30",
        "gas": "0x11324",
        "value": "0x0",
        "input": "0x0ee24eb50000000000000000000000000000000000000000000000000000000000000001000000000000000000000000000000000000000000000000000000000000000a",
        "nonce": "0x10c",
        "chainId": "0xaa36a7"
      },
      "additionalContracts": [],
      "isFixedGasLimit": false
    },
    {
      "hash": "0x837e9b3f2d1afcf595c45cfebdc5e5b9522f6d45151766b77a309b7f5b1fa916",
      "transactionType": "CALL",
      "contractName": "FeeManager",
      "contractAddress": "0x1e608fd1546e1bc1382abc4e676cefb7e314fb30",
      "function": "setFeeMultiplier(uint8,uint256)",
      "arguments": [
        "2",
        "1"
      ],
      "transaction": {
        "from": "0xe62ab4d111f968660c6b2188046f9b9ba53c4bae",
        "to": "0x1e608fd1546e1bc1382abc4e676cefb7e314fb30",
        "gas": "0x11346",
        "value": "0x0",
        "input": "0x0ee24eb500000000000000000000000000000000000000000000000000000000000000020000000000000000000000000000000000000000000000000000000000000001",
        "nonce": "0x10d",
        "chainId": "0xaa36a7"
      },
      "additionalContracts": [],
      "isFixedGasLimit": false
    },
    {
      "hash": "0x49971dd7aba18ab215f544227e9c93f9baac2bd0448016379940481d01757e6f",
      "transactionType": "CALL",
      "contractName": "FeeManager",
      "contractAddress": "0x1e608fd1546e1bc1382abc4e676cefb7e314fb30",
      "function": "setFeeMultiplier(uint8,uint256)",
      "arguments": [
        "3",
        "4"
      ],
      "transaction": {
        "from": "0xe62ab4d111f968660c6b2188046f9b9ba53c4bae",
        "to": "0x1e608fd1546e1bc1382abc4e676cefb7e314fb30",
        "gas": "0x1041b",
        "value": "0x0",
        "input": "0x0ee24eb500000000000000000000000000000000000000000000000000000000000000030000000000000000000000000000000000000000000000000000000000000004",
        "nonce": "0x10e",
        "chainId": "0xaa36a7"
      },
      "additionalContracts": [],
      "isFixedGasLimit": false
    },
    {
      "hash": "0xe3234a80e10424c9ffe263995af5a2bb30daa4ba983652f73cc3b64fc7ab0351",
      "transactionType": "CALL",
      "contractName": "FeeManager",
      "contractAddress": "0x1e608fd1546e1bc1382abc4e676cefb7e314fb30",
      "function": "setFeeMultiplier(uint8,uint256)",
      "arguments": [
        "4",
        "4"
      ],
      "transaction": {
        "from": "0xe62ab4d111f968660c6b2188046f9b9ba53c4bae",
        "to": "0x1e608fd1546e1bc1382abc4e676cefb7e314fb30",
        "gas": "0x1043a",
        "value": "0x0",
        "input": "0x0ee24eb500000000000000000000000000000000000000000000000000000000000000040000000000000000000000000000000000000000000000000000000000000004",
        "nonce": "0x10f",
        "chainId": "0xaa36a7"
      },
      "additionalContracts": [],
      "isFixedGasLimit": false
    },
    {
      "hash": "0xf702c89f4d84222aef3c5b0385c1e0f4cb2a81aa9274f954b04ee12d14afa066",
      "transactionType": "CALL",
      "contractName": "FeeManager",
      "contractAddress": "0x1e608fd1546e1bc1382abc4e676cefb7e314fb30",
      "function": "setFeeMultiplier(uint8,uint256)",
      "arguments": [
        "5",
        "8"
      ],
      "transaction": {
        "from": "0xe62ab4d111f968660c6b2188046f9b9ba53c4bae",
        "to": "0x1e608fd1546e1bc1382abc4e676cefb7e314fb30",
        "gas": "0x10459",
        "value": "0x0",
        "input": "0x0ee24eb500000000000000000000000000000000000000000000000000000000000000050000000000000000000000000000000000000000000000000000000000000008",
        "nonce": "0x110",
        "chainId": "0xaa36a7"
      },
      "additionalContracts": [],
      "isFixedGasLimit": false
    },
    {
      "hash": "0x08eff962338a1542bb5594320586e4f9a3ed13cab3977c6a3deb3bb1a07a1eff",
      "transactionType": "CALL",
      "contractName": "FeeManager",
      "contractAddress": "0x1e608fd1546e1bc1382abc4e676cefb7e314fb30",
      "function": "setFeeMultiplier(uint8,uint256)",
      "arguments": [
        "6",
        "4"
      ],
      "transaction": {
        "from": "0xe62ab4d111f968660c6b2188046f9b9ba53c4bae",
        "to": "0x1e608fd1546e1bc1382abc4e676cefb7e314fb30",
        "gas": "0x1047a",
        "value": "0x0",
        "input": "0x0ee24eb500000000000000000000000000000000000000000000000000000000000000060000000000000000000000000000000000000000000000000000000000000004",
        "nonce": "0x111",
        "chainId": "0xaa36a7"
      },
      "additionalContracts": [],
      "isFixedGasLimit": false
    },
    {
      "hash": "0x807c46e8adb256da7542bc9a1a88225d1d1f311826d490cabbff79897baef58a",
      "transactionType": "CALL",
      "contractName": "FeeManager",
      "contractAddress": "0x1e608fd1546e1bc1382abc4e676cefb7e314fb30",
      "function": "setFeeMultiplier(uint8,uint256)",
      "arguments": [
        "7",
        "10"
      ],
      "transaction": {
        "from": "0xe62ab4d111f968660c6b2188046f9b9ba53c4bae",
        "to": "0x1e608fd1546e1bc1382abc4e676cefb7e314fb30",
        "gas": "0x10499",
        "value": "0x0",
        "input": "0x0ee24eb50000000000000000000000000000000000000000000000000000000000000007000000000000000000000000000000000000000000000000000000000000000a",
        "nonce": "0x112",
        "chainId": "0xaa36a7"
      },
      "additionalContracts": [],
      "isFixedGasLimit": false
    },
    {
      "hash": "0x85ee92b2aacdb79869aa301d7585ab3f9de7c069df6f868ad557ee54bc9037cb",
      "transactionType": "CALL",
      "contractName": "FeeManager",
      "contractAddress": "0x1e608fd1546e1bc1382abc4e676cefb7e314fb30",
      "function": "setFeeMultiplier(uint8,uint256)",
      "arguments": [
        "8",
        "8"
      ],
      "transaction": {
        "from": "0xe62ab4d111f968660c6b2188046f9b9ba53c4bae",
        "to": "0x1e608fd1546e1bc1382abc4e676cefb7e314fb30",
        "gas": "0x1140f",
        "value": "0x0",
        "input": "0x0ee24eb500000000000000000000000000000000000000000000000000000000000000080000000000000000000000000000000000000000000000000000000000000008",
        "nonce": "0x113",
        "chainId": "0xaa36a7"
      },
      "additionalContracts": [],
      "isFixedGasLimit": false
    },
    {
      "hash": "0xa657d066328c2e5418a9535acae8abde2219ff5cd4b22b52ca56763a9fd585c8",
      "transactionType": "CALL",
      "contractName": "FeeManager",
      "contractAddress": "0x1e608fd1546e1bc1382abc4e676cefb7e314fb30",
      "function": "setFeeMultiplier(uint8,uint256)",
      "arguments": [
        "9",
        "8"
      ],
      "transaction": {
        "from": "0xe62ab4d111f968660c6b2188046f9b9ba53c4bae",
        "to": "0x1e608fd1546e1bc1382abc4e676cefb7e314fb30",
        "gas": "0x11431",
        "value": "0x0",
        "input": "0x0ee24eb500000000000000000000000000000000000000000000000000000000000000090000000000000000000000000000000000000000000000000000000000000008",
        "nonce": "0x114",
        "chainId": "0xaa36a7"
      },
      "additionalContracts": [],
      "isFixedGasLimit": false
    },
    {
      "hash": "0x79bfcd606e2fec30352c46e2cbfc626356ce8e91dcef65466b576ed5c702ac70",
      "transactionType": "CALL",
      "contractName": "FeeManager",
      "contractAddress": "0x1e608fd1546e1bc1382abc4e676cefb7e314fb30",
      "function": "setFeeMultiplier(uint8,uint256)",
      "arguments": [
        "10",
        "8"
      ],
      "transaction": {
        "from": "0xe62ab4d111f968660c6b2188046f9b9ba53c4bae",
        "to": "0x1e608fd1546e1bc1382abc4e676cefb7e314fb30",
        "gas": "0x11453",
        "value": "0x0",
        "input": "0x0ee24eb5000000000000000000000000000000000000000000000000000000000000000a0000000000000000000000000000000000000000000000000000000000000008",
        "nonce": "0x115",
        "chainId": "0xaa36a7"
      },
      "additionalContracts": [],
      "isFixedGasLimit": false
    },
    {
      "hash": "0x70b629f9c80d760e0d271d2fcc2c410b3321662024e2f48ce3b1e9e8c6f02d7a",
      "transactionType": "CALL",
      "contractName": "FeeManager",
      "contractAddress": "0x1e608fd1546e1bc1382abc4e676cefb7e314fb30",
      "function": "setFeeMultiplier(uint8,uint256)",
      "arguments": [
        "11",
        "20"
      ],
      "transaction": {
        "from": "0xe62ab4d111f968660c6b2188046f9b9ba53c4bae",
        "to": "0x1e608fd1546e1bc1382abc4e676cefb7e314fb30",
        "gas": "0x10518",
        "value": "0x0",
        "input": "0x0ee24eb5000000000000000000000000000000000000000000000000000000000000000b0000000000000000000000000000000000000000000000000000000000000014",
        "nonce": "0x116",
        "chainId": "0xaa36a7"
      },
      "additionalContracts": [],
      "isFixedGasLimit": false
    },
    {
      "hash": "0x1a57b2d74713a88efbf29fe2c6da2d7b15e454209f97a19edcfa4512a680edb8",
      "transactionType": "CALL",
      "contractName": "FeeManager",
      "contractAddress": "0x1e608fd1546e1bc1382abc4e676cefb7e314fb30",
      "function": "setFeeMultiplier(uint8,uint256)",
      "arguments": [
        "12",
        "8"
      ],
      "transaction": {
        "from": "0xe62ab4d111f968660c6b2188046f9b9ba53c4bae",
        "to": "0x1e608fd1546e1bc1382abc4e676cefb7e314fb30",
        "gas": "0x10538",
        "value": "0x0",
        "input": "0x0ee24eb5000000000000000000000000000000000000000000000000000000000000000c0000000000000000000000000000000000000000000000000000000000000008",
        "nonce": "0x117",
        "chainId": "0xaa36a7"
      },
      "additionalContracts": [],
      "isFixedGasLimit": false
    },
    {
      "hash": "0x5ea24d57ed8c103ba7f8d31a5b2337a06e658bfef8d2d7a1edd626973ce318f2",
      "transactionType": "CALL",
      "contractName": "FeeManager",
      "contractAddress": "0x1e608fd1546e1bc1382abc4e676cefb7e314fb30",
      "function": "setFeeMultiplier(uint8,uint256)",
      "arguments": [
        "13",
        "4"
      ],
      "transaction": {
        "from": "0xe62ab4d111f968660c6b2188046f9b9ba53c4bae",
        "to": "0x1e608fd1546e1bc1382abc4e676cefb7e314fb30",
        "gas": "0x10558",
        "value": "0x0",
        "input": "0x0ee24eb5000000000000000000000000000000000000000000000000000000000000000d0000000000000000000000000000000000000000000000000000000000000004",
        "nonce": "0x118",
        "chainId": "0xaa36a7"
      },
      "additionalContracts": [],
      "isFixedGasLimit": false
    },
    {
      "hash": "0x447cf507a7157533c67c635714df00a7d3d90ea5670e9db09c4223ce03407c4f",
      "transactionType": "CALL",
      "contractName": "FeeManager",
      "contractAddress": "0x1e608fd1546e1bc1382abc4e676cefb7e314fb30",
      "function": "setFeeMultiplier(uint8,uint256)",
      "arguments": [
        "14",
        "4"
      ],
      "transaction": {
        "from": "0xe62ab4d111f968660c6b2188046f9b9ba53c4bae",
        "to": "0x1e608fd1546e1bc1382abc4e676cefb7e314fb30",
        "gas": "0x10577",
        "value": "0x0",
        "input": "0x0ee24eb5000000000000000000000000000000000000000000000000000000000000000e0000000000000000000000000000000000000000000000000000000000000004",
        "nonce": "0x119",
        "chainId": "0xaa36a7"
      },
      "additionalContracts": [],
      "isFixedGasLimit": false
    },
    {
      "hash": "0xc06e4553539390a3dfe72134399dcc1260578c3cc593a2047ad4e39a911f6722",
      "transactionType": "CALL",
      "contractName": "FeeManager",
      "contractAddress": "0x1e608fd1546e1bc1382abc4e676cefb7e314fb30",
      "function": "setFeeMultiplier(uint8,uint256)",
      "arguments": [
        "15",
        "4"
      ],
      "transaction": {
        "from": "0xe62ab4d111f968660c6b2188046f9b9ba53c4bae",
        "to": "0x1e608fd1546e1bc1382abc4e676cefb7e314fb30",
        "gas": "0x10598",
        "value": "0x0",
        "input": "0x0ee24eb5000000000000000000000000000000000000000000000000000000000000000f0000000000000000000000000000000000000000000000000000000000000004",
        "nonce": "0x11a",
        "chainId": "0xaa36a7"
      },
      "additionalContracts": [],
      "isFixedGasLimit": false
    },
    {
      "hash": "0xaefe8c4476f0769baafc1d4c5fdf9c3ec67687e3666832e8256b1a99951016e6",
      "transactionType": "CALL",
      "contractName": "FeeManager",
      "contractAddress": "0x1e608fd1546e1bc1382abc4e676cefb7e314fb30",
      "function": "setFeeMultiplier(uint8,uint256)",
      "arguments": [
        "16",
        "2"
      ],
      "transaction": {
        "from": "0xe62ab4d111f968660c6b2188046f9b9ba53c4bae",
        "to": "0x1e608fd1546e1bc1382abc4e676cefb7e314fb30",
        "gas": "0x105b0",
        "value": "0x0",
        "input": "0x0ee24eb500000000000000000000000000000000000000000000000000000000000000100000000000000000000000000000000000000000000000000000000000000002",
        "nonce": "0x11b",
        "chainId": "0xaa36a7"
      },
      "additionalContracts": [],
      "isFixedGasLimit": false
    },
    {
      "hash": "0x5e9588cb15b5191b54235940af1adb52e767766578875b111ed9e7e269c82093",
      "transactionType": "CALL",
      "contractName": "FeeManager",
      "contractAddress": "0x1e608fd1546e1bc1382abc4e676cefb7e314fb30",
      "function": "addFeeToken(string,string[],uint256[])",
      "arguments": [
        "421614",
        "[0xa4c104db0937f1e886d5c9c9789d6f0e5bfba75c]",
        "[100]"
      ],
      "transaction": {
        "from": "0xe62ab4d111f968660c6b2188046f9b9ba53c4bae",
        "to": "0x1e608fd1546e1bc1382abc4e676cefb7e314fb30",
        "gas": "0x2f4dd",
        "value": "0x0",
        "input": "0x437bf84f000000000000000000000000000000000000000000000000000000000000006000000000000000000000000000000000000000000000000000000000000000a000000000000000000000000000000000000000000000000000000000000001400000000000000000000000000000000000000000000000000000000000000006343231363134000000000000000000000000000000000000000000000000000000000000000000000000000000000000000000000000000000000000000000010000000000000000000000000000000000000000000000000000000000000020000000000000000000000000000000000000000000000000000000000000002a3078613463313034646230393337663165383836643563396339373839643666306535626662613735630000000000000000000000000000000000000000000000000000000000000000000000000000000000000000000000000000000000010000000000000000000000000000000000000000000000000000000000000064",
        "nonce": "0x11c",
        "chainId": "0xaa36a7"
      },
      "additionalContracts": [],
      "isFixedGasLimit": false
    },
    {
      "hash": "0x0994d1f5b9988712242edae87019042a8e2ac67a83b27a6cab95561f127c47e6",
      "transactionType": "CALL",
      "contractName": "FeeManager",
      "contractAddress": "0x1e608fd1546e1bc1382abc4e676cefb7e314fb30",
      "function": "addFeeToken(string,string[],uint256[])",
      "arguments": [
        "80002",
        "[0xa4c104db0937f1e886d5c9c9789d6f0e5bfba75c]",
        "[100]"
      ],
      "transaction": {
        "from": "0xe62ab4d111f968660c6b2188046f9b9ba53c4bae",
        "to": "0x1e608fd1546e1bc1382abc4e676cefb7e314fb30",
        "gas": "0x2a14c",
        "value": "0x0",
        "input": "0x437bf84f000000000000000000000000000000000000000000000000000000000000006000000000000000000000000000000000000000000000000000000000000000a000000000000000000000000000000000000000000000000000000000000001400000000000000000000000000000000000000000000000000000000000000005383030303200000000000000000000000000000000000000000000000000000000000000000000000000000000000000000000000000000000000000000000010000000000000000000000000000000000000000000000000000000000000020000000000000000000000000000000000000000000000000000000000000002a3078613463313034646230393337663165383836643563396339373839643666306535626662613735630000000000000000000000000000000000000000000000000000000000000000000000000000000000000000000000000000000000010000000000000000000000000000000000000000000000000000000000000064",
        "nonce": "0x11d",
        "chainId": "0xaa36a7"
      },
      "additionalContracts": [],
      "isFixedGasLimit": false
    },
    {
      "hash": "0xb1055376540f04d91e9f3cdf620e84374655c86aa5705cec21477282f07b05a2",
      "transactionType": "CALL",
      "contractName": "FeeManager",
      "contractAddress": "0x1e608fd1546e1bc1382abc4e676cefb7e314fb30",
      "function": "addFeeToken(string,string[],uint256[])",
      "arguments": [
        "84532",
        "[0xa4c104db0937f1e886d5c9c9789d6f0e5bfba75c]",
        "[100]"
      ],
      "transaction": {
        "from": "0xe62ab4d111f968660c6b2188046f9b9ba53c4bae",
        "to": "0x1e608fd1546e1bc1382abc4e676cefb7e314fb30",
        "gas": "0x2a14c",
        "value": "0x0",
        "input": "0x437bf84f000000000000000000000000000000000000000000000000000000000000006000000000000000000000000000000000000000000000000000000000000000a000000000000000000000000000000000000000000000000000000000000001400000000000000000000000000000000000000000000000000000000000000005383435333200000000000000000000000000000000000000000000000000000000000000000000000000000000000000000000000000000000000000000000010000000000000000000000000000000000000000000000000000000000000020000000000000000000000000000000000000000000000000000000000000002a3078613463313034646230393337663165383836643563396339373839643666306535626662613735630000000000000000000000000000000000000000000000000000000000000000000000000000000000000000000000000000000000010000000000000000000000000000000000000000000000000000000000000064",
        "nonce": "0x11e",
        "chainId": "0xaa36a7"
      },
      "additionalContracts": [],
      "isFixedGasLimit": false
    },
    {
      "hash": "0xc6fbd6007b90624ef7d6daa4676f1d25fa671f5b8f7118d0e3edeb16d11da430",
      "transactionType": "CALL",
      "contractName": "FeeManager",
      "contractAddress": "0x1e608fd1546e1bc1382abc4e676cefb7e314fb30",
      "function": "addFeeToken(string,string[],uint256[])",
      "arguments": [
        "97",
        "[0xa4c104db0937f1e886d5c9c9789d6f0e5bfba75c]",
        "[100]"
      ],
      "transaction": {
        "from": "0xe62ab4d111f968660c6b2188046f9b9ba53c4bae",
        "to": "0x1e608fd1546e1bc1382abc4e676cefb7e314fb30",
        "gas": "0x2c241",
        "value": "0x0",
        "input": "0x437bf84f000000000000000000000000000000000000000000000000000000000000006000000000000000000000000000000000000000000000000000000000000000a000000000000000000000000000000000000000000000000000000000000001400000000000000000000000000000000000000000000000000000000000000002393700000000000000000000000000000000000000000000000000000000000000000000000000000000000000000000000000000000000000000000000000010000000000000000000000000000000000000000000000000000000000000020000000000000000000000000000000000000000000000000000000000000002a3078613463313034646230393337663165383836643563396339373839643666306535626662613735630000000000000000000000000000000000000000000000000000000000000000000000000000000000000000000000000000000000010000000000000000000000000000000000000000000000000000000000000064",
        "nonce": "0x11f",
        "chainId": "0xaa36a7"
      },
      "additionalContracts": [],
      "isFixedGasLimit": false
    },
    {
      "hash": "0x8bc8c946901040e382f7f2024cda82c72d825e4839be82e59dcc3e618fd6c11e",
      "transactionType": "CALL",
      "contractName": "FeeManager",
      "contractAddress": "0x1e608fd1546e1bc1382abc4e676cefb7e314fb30",
      "function": "addFeeToken(string,string[],uint256[])",
      "arguments": [
        "11155111",
        "[0xa4c104db0937f1e886d5c9c9789d6f0e5bfba75c]",
        "[100]"
      ],
      "transaction": {
        "from": "0xe62ab4d111f968660c6b2188046f9b9ba53c4bae",
        "to": "0x1e608fd1546e1bc1382abc4e676cefb7e314fb30",
        "gas": "0x2cf8e",
        "value": "0x0",
        "input": "0x437bf84f000000000000000000000000000000000000000000000000000000000000006000000000000000000000000000000000000000000000000000000000000000a000000000000000000000000000000000000000000000000000000000000001400000000000000000000000000000000000000000000000000000000000000008313131353531313100000000000000000000000000000000000000000000000000000000000000000000000000000000000000000000000000000000000000010000000000000000000000000000000000000000000000000000000000000020000000000000000000000000000000000000000000000000000000000000002a3078613463313034646230393337663165383836643563396339373839643666306535626662613735630000000000000000000000000000000000000000000000000000000000000000000000000000000000000000000000000000000000010000000000000000000000000000000000000000000000000000000000000064",
        "nonce": "0x120",
        "chainId": "0xaa36a7"
      },
      "additionalContracts": [],
      "isFixedGasLimit": false
    },
    {
      "hash": "0x2a737a49afae160c8a2c22e8a64cae979d13a0473ebab10a8b9505855721e0a2",
      "transactionType": "CALL",
      "contractName": "CTMRWAGateway",
      "contractAddress": "0xf065f9bbd5f59afa0d24be34bdf8ad483485ed1c",
      "function": "addChainContract(string[],string[])",
      "arguments": [
        "[421614, 80002, 84532, 97]",
        "[0xeb4b038c0f1f086bb7ab5b4192611015aff95390, 0xfdd1a5b3aeea2df15a6f6b502784b61bdcbf66bc, 0xea4a06cb68aba869e6bf98edc4bdbc731d2d82e3, 0xc0dd542bcac26095a2c83ffb10826ccef806c07b]"
      ],
      "transaction": {
        "from": "0xe62ab4d111f968660c6b2188046f9b9ba53c4bae",
        "to": "0xf065f9bbd5f59afa0d24be34bdf8ad483485ed1c",
        "gas": "0xb462a",
        "value": "0x0",
        "input": "0x013fd3bd000000000000000000000000000000000000000000000000000000000000004000000000000000000000000000000000000000000000000000000000000001e00000000000000000000000000000000000000000000000000000000000000004000000000000000000000000000000000000000000000000000000000000008000000000000000000000000000000000000000000000000000000000000000c000000000000000000000000000000000000000000000000000000000000001000000000000000000000000000000000000000000000000000000000000000140000000000000000000000000000000000000000000000000000000000000000634323136313400000000000000000000000000000000000000000000000000000000000000000000000000000000000000000000000000000000000000000005383030303200000000000000000000000000000000000000000000000000000000000000000000000000000000000000000000000000000000000000000000053834353332000000000000000000000000000000000000000000000000000000000000000000000000000000000000000000000000000000000000000000000239370000000000000000000000000000000000000000000000000000000000000000000000000000000000000000000000000000000000000000000000000004000000000000000000000000000000000000000000000000000000000000008000000000000000000000000000000000000000000000000000000000000000e0000000000000000000000000000000000000000000000000000000000000014000000000000000000000000000000000000000000000000000000000000001a0000000000000000000000000000000000000000000000000000000000000002a30786562346230333863306631663038366262376162356234313932363131303135616666393533393000000000000000000000000000000000000000000000000000000000000000000000000000000000000000000000000000000000002a30786664643161356233616565613264663135613666366235303237383462363162646362663636626300000000000000000000000000000000000000000000000000000000000000000000000000000000000000000000000000000000002a30786561346130366362363861626138363965366266393865646334626462633733316432643832653300000000000000000000000000000000000000000000000000000000000000000000000000000000000000000000000000000000002a30786330646435343262636163323630393561326338336666623130383236636365663830366330376200000000000000000000000000000000000000000000",
        "nonce": "0x121",
        "chainId": "0xaa36a7"
      },
      "additionalContracts": [],
      "isFixedGasLimit": false
    },
    {
      "hash": "0x8e6b9aa6d148545ee611569e38cd408d536a01740f52b786db44caed784b32e3",
      "transactionType": "CALL",
      "contractName": "CTMRWAGateway",
      "contractAddress": "0xf065f9bbd5f59afa0d24be34bdf8ad483485ed1c",
      "function": "attachRWAX(uint256,uint256,string[],string[])",
      "arguments": [
        "1",
        "1",
        "[11155111, 421614, 80002, 84532, 97]",
        "[0x1ee4ba474da815f728df08f0147defac07f0bab3, 0xb3aefea9f49de70c41ce22afa321e64393932d21, 0xd586ea1fce09384f71b69e80f643135fc0641def, 0x9a0f81de582ce9194feadc6ccefaf9ea70451616, 0x7658e59cdba5e7e08263a216e89c8438c9f02048]"
      ],
      "transaction": {
        "from": "0xe62ab4d111f968660c6b2188046f9b9ba53c4bae",
        "to": "0xf065f9bbd5f59afa0d24be34bdf8ad483485ed1c",
        "gas": "0xe3f41",
        "value": "0x0",
        "input": "0x33a5f5b40000000000000000000000000000000000000000000000000000000000000001000000000000000000000000000000000000000000000000000000000000000100000000000000000000000000000000000000000000000000000000000000800000000000000000000000000000000000000000000000000000000000000280000000000000000000000000000000000000000000000000000000000000000500000000000000000000000000000000000000000000000000000000000000a000000000000000000000000000000000000000000000000000000000000000e00000000000000000000000000000000000000000000000000000000000000120000000000000000000000000000000000000000000000000000000000000016000000000000000000000000000000000000000000000000000000000000001a00000000000000000000000000000000000000000000000000000000000000008313131353531313100000000000000000000000000000000000000000000000000000000000000000000000000000000000000000000000000000000000000063432313631340000000000000000000000000000000000000000000000000000000000000000000000000000000000000000000000000000000000000000000538303030320000000000000000000000000000000000000000000000000000000000000000000000000000000000000000000000000000000000000000000005383435333200000000000000000000000000000000000000000000000000000000000000000000000000000000000000000000000000000000000000000000023937000000000000000000000000000000000000000000000000000000000000000000000000000000000000000000000000000000000000000000000000000500000000000000000000000000000000000000000000000000000000000000a00000000000000000000000000000000000000000000000000000000000000100000000000000000000000000000000000000000000000000000000000000016000000000000000000000000000000000000000000000000000000000000001c00000000000000000000000000000000000000000000000000000000000000220000000000000000000000000000000000000000000000000000000000000002a30783165653462613437346461383135663732386466303866303134376465666163303766306261623300000000000000000000000000000000000000000000000000000000000000000000000000000000000000000000000000000000002a30786233616566656139663439646537306334316365323261666133323165363433393339333264323100000000000000000000000000000000000000000000000000000000000000000000000000000000000000000000000000000000002a30786435383665613166636530393338346637316236396538306636343331333566633036343164656600000000000000000000000000000000000000000000000000000000000000000000000000000000000000000000000000000000002a30783961306638316465353832636539313934666561646336636365666166396561373034353136313600000000000000000000000000000000000000000000000000000000000000000000000000000000000000000000000000000000002a30783736353865353963646261356537653038323633613231366538396338343338633966303230343800000000000000000000000000000000000000000000",
        "nonce": "0x122",
        "chainId": "0xaa36a7"
      },
      "additionalContracts": [],
      "isFixedGasLimit": false
    },
    {
      "hash": "0xf191ec286c5ceba2da15b2a6a26fa3940ae2db02aefc7ea509f871d3499d28f1",
      "transactionType": "CALL",
      "contractName": "CTMRWAGateway",
      "contractAddress": "0xf065f9bbd5f59afa0d24be34bdf8ad483485ed1c",
      "function": "attachStorageManager(uint256,uint256,string[],string[])",
      "arguments": [
        "1",
        "1",
        "[11155111, 421614, 80002, 84532, 97]",
        "[0xcbf4e5fda887e602e5132fa800d74154dfb5b237, 0x37c7137dc6e3dc3c3637bfed3f6dbfbd43386429, 0xb523f0e72a7bdf94a5a3d84ba9e8dc42e69229ea, 0x9372cd1287e0bb6337802d80dff342348c85fd78, 0x855c06f9f7b01838dc540ec6fcff17fd86a378d8]"
      ],
      "transaction": {
        "from": "0xe62ab4d111f968660c6b2188046f9b9ba53c4bae",
        "to": "0xf065f9bbd5f59afa0d24be34bdf8ad483485ed1c",
        "gas": "0xe3d55",
        "value": "0x0",
        "input": "0x2f68b4890000000000000000000000000000000000000000000000000000000000000001000000000000000000000000000000000000000000000000000000000000000100000000000000000000000000000000000000000000000000000000000000800000000000000000000000000000000000000000000000000000000000000280000000000000000000000000000000000000000000000000000000000000000500000000000000000000000000000000000000000000000000000000000000a000000000000000000000000000000000000000000000000000000000000000e00000000000000000000000000000000000000000000000000000000000000120000000000000000000000000000000000000000000000000000000000000016000000000000000000000000000000000000000000000000000000000000001a00000000000000000000000000000000000000000000000000000000000000008313131353531313100000000000000000000000000000000000000000000000000000000000000000000000000000000000000000000000000000000000000063432313631340000000000000000000000000000000000000000000000000000000000000000000000000000000000000000000000000000000000000000000538303030320000000000000000000000000000000000000000000000000000000000000000000000000000000000000000000000000000000000000000000005383435333200000000000000000000000000000000000000000000000000000000000000000000000000000000000000000000000000000000000000000000023937000000000000000000000000000000000000000000000000000000000000000000000000000000000000000000000000000000000000000000000000000500000000000000000000000000000000000000000000000000000000000000a00000000000000000000000000000000000000000000000000000000000000100000000000000000000000000000000000000000000000000000000000000016000000000000000000000000000000000000000000000000000000000000001c00000000000000000000000000000000000000000000000000000000000000220000000000000000000000000000000000000000000000000000000000000002a30786362663465356664613838376536303265353133326661383030643734313534646662356232333700000000000000000000000000000000000000000000000000000000000000000000000000000000000000000000000000000000002a30783337633731333764633665336463336333363337626665643366366462666264343333383634323900000000000000000000000000000000000000000000000000000000000000000000000000000000000000000000000000000000002a30786235323366306537326137626466393461356133643834626139653864633432653639323239656100000000000000000000000000000000000000000000000000000000000000000000000000000000000000000000000000000000002a30783933373263643132383765306262363333373830326438306466663334323334386338356664373800000000000000000000000000000000000000000000000000000000000000000000000000000000000000000000000000000000002a30783835356330366639663762303138333864633534306563366663666631376664383661333738643800000000000000000000000000000000000000000000",
        "nonce": "0x123",
        "chainId": "0xaa36a7"
      },
      "additionalContracts": [],
      "isFixedGasLimit": false
    }
  ],
  "receipts": [
    {
      "status": "0x1",
      "cumulativeGasUsed": "0x79cbbf",
      "logs": [],
      "logsBloom": "0x00000000000000000000000000000000000000000000000000000000000000000000000000000000000000000000000000000000000000000000000000000000000000000000000000000000000000000000000000000000000000000000000000000000000000000000000000000000000000000000000000000000000000000000000000000000000000000000000000000000000000000000000000000000000000000000000000000000000000000000000000000000000000000000000000000000000000000000000000000000000000000000000000000000000000000000000000000000000000000000000000000000000000000000000000000000",
      "type": "0x2",
      "transactionHash": "0x34807bd23392b8d98caf2ed1b040de381c47a394dd314c3a37aec905f8c8c308",
      "transactionIndex": "0xa4",
      "blockHash": "0xfe803a866787cda53862572e80eeb11d989bb5b275ad3721403ee48359fd72c1",
      "blockNumber": "0x6cb54c",
      "gasUsed": "0x5eb3",
      "effectiveGasPrice": "0x1031105d81",
      "from": "0xe62ab4d111f968660c6b2188046f9b9ba53c4bae",
      "to": "0x1e608fd1546e1bc1382abc4e676cefb7e314fb30",
      "contractAddress": null
    },
    {
      "status": "0x1",
      "cumulativeGasUsed": "0xb93a06",
      "logs": [
        {
          "address": "0x1e608fd1546e1bc1382abc4e676cefb7e314fb30",
          "topics": [
            "0x1394cfab38f3fc78ed77ea6f9318782a446d96e7dc8e9a6b0149f6be25c08bcf",
            "0x000000000000000000000000a4c104db0937f1e886d5c9c9789d6f0e5bfba75c"
          ],
          "data": "0x",
          "blockHash": "0xf9b9948a8e2b948616088e1371fcdf9026a6f84d2454319592e0d6c0409ae814",
          "blockNumber": "0x6cb54d",
          "transactionHash": "0x4ad5d01ac81051324e8ab790f0afe39cdd5dc80146e1d5c4da5a6387f3f24e90",
          "transactionIndex": "0x104",
          "logIndex": "0x76",
          "removed": false
        }
      ],
      "logsBloom": "0x00000000000000000040000000000000000000000000000000000004000000000000000000000000000000000000000000000000000000000000000000000000000000000000000000000000000000000000001000000000000000000000000000000000000000000000000000000000000000000000000000000000000000000000000100000000000000000000000000000000000000000000000000000000000000000000000000000000000000000004004100000000000000000000000000000000000000000000000000000000000000000008000000000000000000000000000000000000000002000000000000000000000000000000000000000000",
      "type": "0x2",
      "transactionHash": "0x4ad5d01ac81051324e8ab790f0afe39cdd5dc80146e1d5c4da5a6387f3f24e90",
      "transactionIndex": "0x104",
      "blockHash": "0xf9b9948a8e2b948616088e1371fcdf9026a6f84d2454319592e0d6c0409ae814",
      "blockNumber": "0x6cb54d",
      "gasUsed": "0x1be72",
      "effectiveGasPrice": "0xf9303b194",
      "from": "0xe62ab4d111f968660c6b2188046f9b9ba53c4bae",
      "to": "0x1e608fd1546e1bc1382abc4e676cefb7e314fb30",
      "contractAddress": null
    },
    {
      "status": "0x1",
      "cumulativeGasUsed": "0x8deb7e",
      "logs": [],
      "logsBloom": "0x00000000000000000000000000000000000000000000000000000000000000000000000000000000000000000000000000000000000000000000000000000000000000000000000000000000000000000000000000000000000000000000000000000000000000000000000000000000000000000000000000000000000000000000000000000000000000000000000000000000000000000000000000000000000000000000000000000000000000000000000000000000000000000000000000000000000000000000000000000000000000000000000000000000000000000000000000000000000000000000000000000000000000000000000000000000",
      "type": "0x2",
      "transactionHash": "0x88b0dcae38254ccac3f4e52a8eff83a44369bbf0ce06cdaac123b7647d16ba96",
      "transactionIndex": "0xc4",
      "blockHash": "0x83bc242d2de9528b5d904d6eafbc5a2d6e6ca0b893dafbe79f65fa068fc338d9",
      "blockNumber": "0x6cb54e",
      "gasUsed": "0xbbf9",
      "effectiveGasPrice": "0xf7901a51d",
      "from": "0xe62ab4d111f968660c6b2188046f9b9ba53c4bae",
      "to": "0x1e608fd1546e1bc1382abc4e676cefb7e314fb30",
      "contractAddress": null
    },
    {
      "status": "0x1",
      "cumulativeGasUsed": "0x7e7424",
      "logs": [],
      "logsBloom": "0x00000000000000000000000000000000000000000000000000000000000000000000000000000000000000000000000000000000000000000000000000000000000000000000000000000000000000000000000000000000000000000000000000000000000000000000000000000000000000000000000000000000000000000000000000000000000000000000000000000000000000000000000000000000000000000000000000000000000000000000000000000000000000000000000000000000000000000000000000000000000000000000000000000000000000000000000000000000000000000000000000000000000000000000000000000000",
      "type": "0x2",
      "transactionHash": "0x4bfbe3491166b50ea651339a5924136778d4671ab66d80be91142f2d01e91145",
      "transactionIndex": "0xa2",
      "blockHash": "0xe1efb7111b6329a167f1d822d291367f3742787cf0f0d9c9b66a18f972b1ec31",
      "blockNumber": "0x6cb54f",
      "gasUsed": "0xbc22",
      "effectiveGasPrice": "0xef7dc0be6",
      "from": "0xe62ab4d111f968660c6b2188046f9b9ba53c4bae",
      "to": "0x1e608fd1546e1bc1382abc4e676cefb7e314fb30",
      "contractAddress": null
    },
    {
      "status": "0x1",
      "cumulativeGasUsed": "0x8141d2",
      "logs": [],
      "logsBloom": "0x00000000000000000000000000000000000000000000000000000000000000000000000000000000000000000000000000000000000000000000000000000000000000000000000000000000000000000000000000000000000000000000000000000000000000000000000000000000000000000000000000000000000000000000000000000000000000000000000000000000000000000000000000000000000000000000000000000000000000000000000000000000000000000000000000000000000000000000000000000000000000000000000000000000000000000000000000000000000000000000000000000000000000000000000000000000",
      "type": "0x2",
      "transactionHash": "0x837e9b3f2d1afcf595c45cfebdc5e5b9522f6d45151766b77a309b7f5b1fa916",
      "transactionIndex": "0xc9",
      "blockHash": "0xc7384671dbf10e7dc6be9ad6398e655f29203523c1d5dea5a9841709220d7b38",
      "blockNumber": "0x6cb550",
      "gasUsed": "0xbc39",
      "effectiveGasPrice": "0xe9d7dd11f",
      "from": "0xe62ab4d111f968660c6b2188046f9b9ba53c4bae",
      "to": "0x1e608fd1546e1bc1382abc4e676cefb7e314fb30",
      "contractAddress": null
    },
    {
      "status": "0x1",
      "cumulativeGasUsed": "0xc4285f",
      "logs": [],
      "logsBloom": "0x00000000000000000000000000000000000000000000000000000000000000000000000000000000000000000000000000000000000000000000000000000000000000000000000000000000000000000000000000000000000000000000000000000000000000000000000000000000000000000000000000000000000000000000000000000000000000000000000000000000000000000000000000000000000000000000000000000000000000000000000000000000000000000000000000000000000000000000000000000000000000000000000000000000000000000000000000000000000000000000000000000000000000000000000000000000",
      "type": "0x2",
      "transactionHash": "0x49971dd7aba18ab215f544227e9c93f9baac2bd0448016379940481d01757e6f",
      "transactionIndex": "0x10f",
      "blockHash": "0x34451df1e0445037ec5729441b0c4e12f9506b402cb364500fadd7d06e0e1c06",
      "blockNumber": "0x6cb551",
      "gasUsed": "0xbc50",
      "effectiveGasPrice": "0xe19a891a7",
      "from": "0xe62ab4d111f968660c6b2188046f9b9ba53c4bae",
      "to": "0x1e608fd1546e1bc1382abc4e676cefb7e314fb30",
      "contractAddress": null
    },
    {
      "status": "0x1",
      "cumulativeGasUsed": "0x145d307",
      "logs": [],
      "logsBloom": "0x00000000000000000000000000000000000000000000000000000000000000000000000000000000000000000000000000000000000000000000000000000000000000000000000000000000000000000000000000000000000000000000000000000000000000000000000000000000000000000000000000000000000000000000000000000000000000000000000000000000000000000000000000000000000000000000000000000000000000000000000000000000000000000000000000000000000000000000000000000000000000000000000000000000000000000000000000000000000000000000000000000000000000000000000000000000",
      "type": "0x2",
      "transactionHash": "0xe3234a80e10424c9ffe263995af5a2bb30daa4ba983652f73cc3b64fc7ab0351",
      "transactionIndex": "0x298",
      "blockHash": "0x1e5a99fa0c57ee65d8681e8f665c48e441e868263814f5d61216cb5ab6c67cd8",
      "blockNumber": "0x6cb552",
      "gasUsed": "0xbc67",
      "effectiveGasPrice": "0xe0ee48b81",
      "from": "0xe62ab4d111f968660c6b2188046f9b9ba53c4bae",
      "to": "0x1e608fd1546e1bc1382abc4e676cefb7e314fb30",
      "contractAddress": null
    },
    {
      "status": "0x1",
      "cumulativeGasUsed": "0xab2710",
      "logs": [],
      "logsBloom": "0x00000000000000000000000000000000000000000000000000000000000000000000000000000000000000000000000000000000000000000000000000000000000000000000000000000000000000000000000000000000000000000000000000000000000000000000000000000000000000000000000000000000000000000000000000000000000000000000000000000000000000000000000000000000000000000000000000000000000000000000000000000000000000000000000000000000000000000000000000000000000000000000000000000000000000000000000000000000000000000000000000000000000000000000000000000000",
      "type": "0x2",
      "transactionHash": "0xf702c89f4d84222aef3c5b0385c1e0f4cb2a81aa9274f954b04ee12d14afa066",
      "transactionIndex": "0x11a",
      "blockHash": "0x7ca5bd18529fd0240707810429285eefab738bdf017f72c8280b723e8972c710",
      "blockNumber": "0x6cb553",
      "gasUsed": "0xbc7e",
      "effectiveGasPrice": "0xf43d7bdfc",
      "from": "0xe62ab4d111f968660c6b2188046f9b9ba53c4bae",
      "to": "0x1e608fd1546e1bc1382abc4e676cefb7e314fb30",
      "contractAddress": null
    },
    {
      "status": "0x1",
      "cumulativeGasUsed": "0x6f4094",
      "logs": [],
      "logsBloom": "0x00000000000000000000000000000000000000000000000000000000000000000000000000000000000000000000000000000000000000000000000000000000000000000000000000000000000000000000000000000000000000000000000000000000000000000000000000000000000000000000000000000000000000000000000000000000000000000000000000000000000000000000000000000000000000000000000000000000000000000000000000000000000000000000000000000000000000000000000000000000000000000000000000000000000000000000000000000000000000000000000000000000000000000000000000000000",
      "type": "0x2",
      "transactionHash": "0x08eff962338a1542bb5594320586e4f9a3ed13cab3977c6a3deb3bb1a07a1eff",
      "transactionIndex": "0xba",
      "blockHash": "0x9ad1ad629a975120829fa32faa0a6b4f50d60c3cf6fa7e4164f5d85e1dc654c1",
      "blockNumber": "0x6cb554",
      "gasUsed": "0xbc95",
      "effectiveGasPrice": "0xf5aba72f1",
      "from": "0xe62ab4d111f968660c6b2188046f9b9ba53c4bae",
      "to": "0x1e608fd1546e1bc1382abc4e676cefb7e314fb30",
      "contractAddress": null
    },
    {
      "status": "0x1",
      "cumulativeGasUsed": "0x65bba9",
      "logs": [],
      "logsBloom": "0x00000000000000000000000000000000000000000000000000000000000000000000000000000000000000000000000000000000000000000000000000000000000000000000000000000000000000000000000000000000000000000000000000000000000000000000000000000000000000000000000000000000000000000000000000000000000000000000000000000000000000000000000000000000000000000000000000000000000000000000000000000000000000000000000000000000000000000000000000000000000000000000000000000000000000000000000000000000000000000000000000000000000000000000000000000000",
      "type": "0x2",
      "transactionHash": "0x807c46e8adb256da7542bc9a1a88225d1d1f311826d490cabbff79897baef58a",
      "transactionIndex": "0x88",
      "blockHash": "0xfb62ff1330917c0376baa35350ddde8cfcfbd6a1ad5651b28e8b54af7e713103",
      "blockNumber": "0x6cb555",
      "gasUsed": "0xbcac",
      "effectiveGasPrice": "0xe8ea75cf0",
      "from": "0xe62ab4d111f968660c6b2188046f9b9ba53c4bae",
      "to": "0x1e608fd1546e1bc1382abc4e676cefb7e314fb30",
      "contractAddress": null
    },
    {
      "status": "0x1",
      "cumulativeGasUsed": "0xb94869",
      "logs": [],
      "logsBloom": "0x00000000000000000000000000000000000000000000000000000000000000000000000000000000000000000000000000000000000000000000000000000000000000000000000000000000000000000000000000000000000000000000000000000000000000000000000000000000000000000000000000000000000000000000000000000000000000000000000000000000000000000000000000000000000000000000000000000000000000000000000000000000000000000000000000000000000000000000000000000000000000000000000000000000000000000000000000000000000000000000000000000000000000000000000000000000",
      "type": "0x2",
      "transactionHash": "0x85ee92b2aacdb79869aa301d7585ab3f9de7c069df6f868ad557ee54bc9037cb",
      "transactionIndex": "0xca",
      "blockHash": "0x108105d2a408651ef2409139ce3d16847c77d723f3002def8b2db4b12c51c7be",
      "blockNumber": "0x6cb556",
      "gasUsed": "0xbcc3",
      "effectiveGasPrice": "0xe04424cec",
      "from": "0xe62ab4d111f968660c6b2188046f9b9ba53c4bae",
      "to": "0x1e608fd1546e1bc1382abc4e676cefb7e314fb30",
      "contractAddress": null
    },
    {
      "status": "0x1",
      "cumulativeGasUsed": "0xc325ac",
      "logs": [],
      "logsBloom": "0x00000000000000000000000000000000000000000000000000000000000000000000000000000000000000000000000000000000000000000000000000000000000000000000000000000000000000000000000000000000000000000000000000000000000000000000000000000000000000000000000000000000000000000000000000000000000000000000000000000000000000000000000000000000000000000000000000000000000000000000000000000000000000000000000000000000000000000000000000000000000000000000000000000000000000000000000000000000000000000000000000000000000000000000000000000000",
      "type": "0x2",
      "transactionHash": "0xa657d066328c2e5418a9535acae8abde2219ff5cd4b22b52ca56763a9fd585c8",
      "transactionIndex": "0xd2",
      "blockHash": "0x9c902cad6af8fa65ea1bf883f0ba16be7a559786234b3e6e8cada270f5c6d770",
      "blockNumber": "0x6cb558",
      "gasUsed": "0xbcda",
      "effectiveGasPrice": "0xcd42fc3ed",
      "from": "0xe62ab4d111f968660c6b2188046f9b9ba53c4bae",
      "to": "0x1e608fd1546e1bc1382abc4e676cefb7e314fb30",
      "contractAddress": null
    },
    {
      "status": "0x1",
      "cumulativeGasUsed": "0x69c3d4",
      "logs": [],
      "logsBloom": "0x00000000000000000000000000000000000000000000000000000000000000000000000000000000000000000000000000000000000000000000000000000000000000000000000000000000000000000000000000000000000000000000000000000000000000000000000000000000000000000000000000000000000000000000000000000000000000000000000000000000000000000000000000000000000000000000000000000000000000000000000000000000000000000000000000000000000000000000000000000000000000000000000000000000000000000000000000000000000000000000000000000000000000000000000000000000",
      "type": "0x2",
      "transactionHash": "0x79bfcd606e2fec30352c46e2cbfc626356ce8e91dcef65466b576ed5c702ac70",
      "transactionIndex": "0x54",
      "blockHash": "0xe36872ceaf7a438579f73617da2e8dedbcdb83523c46cc8fe04a10cb81a37798",
      "blockNumber": "0x6cb559",
      "gasUsed": "0xbcf1",
      "effectiveGasPrice": "0xd5324f50b",
      "from": "0xe62ab4d111f968660c6b2188046f9b9ba53c4bae",
      "to": "0x1e608fd1546e1bc1382abc4e676cefb7e314fb30",
      "contractAddress": null
    },
    {
      "status": "0x1",
      "cumulativeGasUsed": "0xa4cf7e",
      "logs": [],
      "logsBloom": "0x00000000000000000000000000000000000000000000000000000000000000000000000000000000000000000000000000000000000000000000000000000000000000000000000000000000000000000000000000000000000000000000000000000000000000000000000000000000000000000000000000000000000000000000000000000000000000000000000000000000000000000000000000000000000000000000000000000000000000000000000000000000000000000000000000000000000000000000000000000000000000000000000000000000000000000000000000000000000000000000000000000000000000000000000000000000",
      "type": "0x2",
      "transactionHash": "0x70b629f9c80d760e0d271d2fcc2c410b3321662024e2f48ce3b1e9e8c6f02d7a",
      "transactionIndex": "0x82",
      "blockHash": "0x0da299443d399d165e1325c2e79948efd20ab9371b8fbd87e277d088d1681101",
      "blockNumber": "0x6cb55a",
      "gasUsed": "0xbd08",
      "effectiveGasPrice": "0xc9049f782",
      "from": "0xe62ab4d111f968660c6b2188046f9b9ba53c4bae",
      "to": "0x1e608fd1546e1bc1382abc4e676cefb7e314fb30",
      "contractAddress": null
    },
    {
      "status": "0x1",
      "cumulativeGasUsed": "0x67e213",
      "logs": [],
      "logsBloom": "0x00000000000000000000000000000000000000000000000000000000000000000000000000000000000000000000000000000000000000000000000000000000000000000000000000000000000000000000000000000000000000000000000000000000000000000000000000000000000000000000000000000000000000000000000000000000000000000000000000000000000000000000000000000000000000000000000000000000000000000000000000000000000000000000000000000000000000000000000000000000000000000000000000000000000000000000000000000000000000000000000000000000000000000000000000000000",
      "type": "0x2",
      "transactionHash": "0x1a57b2d74713a88efbf29fe2c6da2d7b15e454209f97a19edcfa4512a680edb8",
      "transactionIndex": "0x52",
      "blockHash": "0x7d8da428ea5dde2f00e1bb8e449cfb9d4d3a9b71c0c9b2cc51ccb04425352287",
      "blockNumber": "0x6cb55b",
      "gasUsed": "0xbd1f",
      "effectiveGasPrice": "0xc8785ef25",
      "from": "0xe62ab4d111f968660c6b2188046f9b9ba53c4bae",
      "to": "0x1e608fd1546e1bc1382abc4e676cefb7e314fb30",
      "contractAddress": null
    },
    {
      "status": "0x1",
      "cumulativeGasUsed": "0x93458e",
      "logs": [],
      "logsBloom": "0x00000000000000000000000000000000000000000000000000000000000000000000000000000000000000000000000000000000000000000000000000000000000000000000000000000000000000000000000000000000000000000000000000000000000000000000000000000000000000000000000000000000000000000000000000000000000000000000000000000000000000000000000000000000000000000000000000000000000000000000000000000000000000000000000000000000000000000000000000000000000000000000000000000000000000000000000000000000000000000000000000000000000000000000000000000000",
      "type": "0x2",
      "transactionHash": "0x5ea24d57ed8c103ba7f8d31a5b2337a06e658bfef8d2d7a1edd626973ce318f2",
      "transactionIndex": "0xdd",
      "blockHash": "0xe82a006bf871be69578d9255bccc59f039fe399b0a04c9190386a55b744eb92c",
      "blockNumber": "0x6cb55c",
      "gasUsed": "0xbd36",
      "effectiveGasPrice": "0xc0098c71a",
      "from": "0xe62ab4d111f968660c6b2188046f9b9ba53c4bae",
      "to": "0x1e608fd1546e1bc1382abc4e676cefb7e314fb30",
      "contractAddress": null
    },
    {
      "status": "0x1",
      "cumulativeGasUsed": "0x17dbf45",
      "logs": [],
      "logsBloom": "0x00000000000000000000000000000000000000000000000000000000000000000000000000000000000000000000000000000000000000000000000000000000000000000000000000000000000000000000000000000000000000000000000000000000000000000000000000000000000000000000000000000000000000000000000000000000000000000000000000000000000000000000000000000000000000000000000000000000000000000000000000000000000000000000000000000000000000000000000000000000000000000000000000000000000000000000000000000000000000000000000000000000000000000000000000000000",
      "type": "0x2",
      "transactionHash": "0x447cf507a7157533c67c635714df00a7d3d90ea5670e9db09c4223ce03407c4f",
      "transactionIndex": "0x131",
      "blockHash": "0x114fa5f14df0535afce17b690a0adfbe27f8da11fd3282a72186c24a3118c578",
      "blockNumber": "0x6cb55d",
      "gasUsed": "0xbd4d",
      "effectiveGasPrice": "0xbad0dfc3d",
      "from": "0xe62ab4d111f968660c6b2188046f9b9ba53c4bae",
      "to": "0x1e608fd1546e1bc1382abc4e676cefb7e314fb30",
      "contractAddress": null
    },
    {
      "status": "0x1",
      "cumulativeGasUsed": "0x79d063",
      "logs": [],
      "logsBloom": "0x00000000000000000000000000000000000000000000000000000000000000000000000000000000000000000000000000000000000000000000000000000000000000000000000000000000000000000000000000000000000000000000000000000000000000000000000000000000000000000000000000000000000000000000000000000000000000000000000000000000000000000000000000000000000000000000000000000000000000000000000000000000000000000000000000000000000000000000000000000000000000000000000000000000000000000000000000000000000000000000000000000000000000000000000000000000",
      "type": "0x2",
      "transactionHash": "0xc06e4553539390a3dfe72134399dcc1260578c3cc593a2047ad4e39a911f6722",
      "transactionIndex": "0x96",
      "blockHash": "0x21bc50aeaff34c8d5a40eb1a50c2ce2d97e3e5ab74a7b59a1ed4f183dbd20530",
      "blockNumber": "0x6cb55e",
      "gasUsed": "0xbd64",
      "effectiveGasPrice": "0xcb7cc587d",
      "from": "0xe62ab4d111f968660c6b2188046f9b9ba53c4bae",
      "to": "0x1e608fd1546e1bc1382abc4e676cefb7e314fb30",
      "contractAddress": null
    },
    {
      "status": "0x1",
      "cumulativeGasUsed": "0x76ccdb",
      "logs": [],
      "logsBloom": "0x00000000000000000000000000000000000000000000000000000000000000000000000000000000000000000000000000000000000000000000000000000000000000000000000000000000000000000000000000000000000000000000000000000000000000000000000000000000000000000000000000000000000000000000000000000000000000000000000000000000000000000000000000000000000000000000000000000000000000000000000000000000000000000000000000000000000000000000000000000000000000000000000000000000000000000000000000000000000000000000000000000000000000000000000000000000",
      "type": "0x2",
      "transactionHash": "0xaefe8c4476f0769baafc1d4c5fdf9c3ec67687e3666832e8256b1a99951016e6",
      "transactionIndex": "0x5c",
      "blockHash": "0x6521b1a7729f7361a834a5489d2a902b8c08adda6ba2cb403d4116f0b602a807",
      "blockNumber": "0x6cb55f",
      "gasUsed": "0xbd76",
      "effectiveGasPrice": "0xc419a1027",
      "from": "0xe62ab4d111f968660c6b2188046f9b9ba53c4bae",
      "to": "0x1e608fd1546e1bc1382abc4e676cefb7e314fb30",
      "contractAddress": null
    },
    {
      "status": "0x1",
      "cumulativeGasUsed": "0x368399",
      "logs": [],
      "logsBloom": "0x00000000000000000000000000000000000000000000000000000000000000000000000000000000000000000000000000000000000000000000000000000000000000000000000000000000000000000000000000000000000000000000000000000000000000000000000000000000000000000000000000000000000000000000000000000000000000000000000000000000000000000000000000000000000000000000000000000000000000000000000000000000000000000000000000000000000000000000000000000000000000000000000000000000000000000000000000000000000000000000000000000000000000000000000000000000",
      "type": "0x2",
      "transactionHash": "0x5e9588cb15b5191b54235940af1adb52e767766578875b111ed9e7e269c82093",
      "transactionIndex": "0x42",
      "blockHash": "0x53dd2398c436372861d9263dbc8ba4766baa166625d631a968347e084c4b6ea5",
      "blockNumber": "0x6cb560",
      "gasUsed": "0x223f5",
      "effectiveGasPrice": "0xc23324487",
      "from": "0xe62ab4d111f968660c6b2188046f9b9ba53c4bae",
      "to": "0x1e608fd1546e1bc1382abc4e676cefb7e314fb30",
      "contractAddress": null
    },
    {
      "status": "0x1",
      "cumulativeGasUsed": "0xa09ad4",
      "logs": [],
      "logsBloom": "0x00000000000000000000000000000000000000000000000000000000000000000000000000000000000000000000000000000000000000000000000000000000000000000000000000000000000000000000000000000000000000000000000000000000000000000000000000000000000000000000000000000000000000000000000000000000000000000000000000000000000000000000000000000000000000000000000000000000000000000000000000000000000000000000000000000000000000000000000000000000000000000000000000000000000000000000000000000000000000000000000000000000000000000000000000000000",
      "type": "0x2",
      "transactionHash": "0x0994d1f5b9988712242edae87019042a8e2ac67a83b27a6cab95561f127c47e6",
      "transactionIndex": "0xd5",
      "blockHash": "0xe61fdaa3b4e3d8a8f0468efd882100f2d8990554a483603b64d1ab3a6b6f89d7",
      "blockNumber": "0x6cb561",
      "gasUsed": "0x1e775",
      "effectiveGasPrice": "0xb67569c8e",
      "from": "0xe62ab4d111f968660c6b2188046f9b9ba53c4bae",
      "to": "0x1e608fd1546e1bc1382abc4e676cefb7e314fb30",
      "contractAddress": null
    },
    {
      "status": "0x1",
      "cumulativeGasUsed": "0x6ad1ed",
      "logs": [],
      "logsBloom": "0x00000000000000000000000000000000000000000000000000000000000000000000000000000000000000000000000000000000000000000000000000000000000000000000000000000000000000000000000000000000000000000000000000000000000000000000000000000000000000000000000000000000000000000000000000000000000000000000000000000000000000000000000000000000000000000000000000000000000000000000000000000000000000000000000000000000000000000000000000000000000000000000000000000000000000000000000000000000000000000000000000000000000000000000000000000000",
      "type": "0x2",
      "transactionHash": "0xb1055376540f04d91e9f3cdf620e84374655c86aa5705cec21477282f07b05a2",
      "transactionIndex": "0x44",
      "blockHash": "0xfc4930b64ddc4b5dea8339543114913585e2e2c604b11d7ce1ab020e721c5169",
      "blockNumber": "0x6cb562",
      "gasUsed": "0x1e775",
      "effectiveGasPrice": "0xb4aefe5e4",
      "from": "0xe62ab4d111f968660c6b2188046f9b9ba53c4bae",
      "to": "0x1e608fd1546e1bc1382abc4e676cefb7e314fb30",
      "contractAddress": null
    },
    {
      "status": "0x1",
      "cumulativeGasUsed": "0xb68eab",
      "logs": [],
      "logsBloom": "0x00000000000000000000000000000000000000000000000000000000000000000000000000000000000000000000000000000000000000000000000000000000000000000000000000000000000000000000000000000000000000000000000000000000000000000000000000000000000000000000000000000000000000000000000000000000000000000000000000000000000000000000000000000000000000000000000000000000000000000000000000000000000000000000000000000000000000000000000000000000000000000000000000000000000000000000000000000000000000000000000000000000000000000000000000000000",
      "type": "0x2",
      "transactionHash": "0xc6fbd6007b90624ef7d6daa4676f1d25fa671f5b8f7118d0e3edeb16d11da430",
      "transactionIndex": "0xa6",
      "blockHash": "0xa20975403c4476f9b5795e68c05ccd95d0bae85a9bceaa48a57d3c82226c6e2c",
      "blockNumber": "0x6cb563",
      "gasUsed": "0x1e2e9",
      "effectiveGasPrice": "0xb06709a5a",
      "from": "0xe62ab4d111f968660c6b2188046f9b9ba53c4bae",
      "to": "0x1e608fd1546e1bc1382abc4e676cefb7e314fb30",
      "contractAddress": null
    },
    {
      "status": "0x1",
      "cumulativeGasUsed": "0x964302",
      "logs": [],
      "logsBloom": "0x00000000000000000000000000000000000000000000000000000000000000000000000000000000000000000000000000000000000000000000000000000000000000000000000000000000000000000000000000000000000000000000000000000000000000000000000000000000000000000000000000000000000000000000000000000000000000000000000000000000000000000000000000000000000000000000000000000000000000000000000000000000000000000000000000000000000000000000000000000000000000000000000000000000000000000000000000000000000000000000000000000000000000000000000000000000",
      "type": "0x2",
      "transactionHash": "0x8bc8c946901040e382f7f2024cda82c72d825e4839be82e59dcc3e618fd6c11e",
      "transactionIndex": "0x9e",
      "blockHash": "0x5aa2b2c664b8da6e56d6641b5c590f0f1e5401a43bac7063fac8c9a6bf8ef44e",
      "blockNumber": "0x6cb564",
      "gasUsed": "0x1ec01",
      "effectiveGasPrice": "0xb5aa86724",
      "from": "0xe62ab4d111f968660c6b2188046f9b9ba53c4bae",
      "to": "0x1e608fd1546e1bc1382abc4e676cefb7e314fb30",
      "contractAddress": null
    },
    {
      "status": "0x1",
      "cumulativeGasUsed": "0x3b00a8",
      "logs": [],
      "logsBloom": "0x00000000000000000000000000000000000000000000000000000000000000000000000000000000000000000000000000000000000000000000000000000000000000000000000000000000000000000000000000000000000000000000000000000000000000000000000000000000000000000000000000000000000000000000000000000000000000000000000000000000000000000000000000000000000000000000000000000000000000000000000000000000000000000000000000000000000000000000000000000000000000000000000000000000000000000000000000000000000000000000000000000000000000000000000000000000",
      "type": "0x2",
      "transactionHash": "0x2a737a49afae160c8a2c22e8a64cae979d13a0473ebab10a8b9505855721e0a2",
      "transactionIndex": "0x4b",
      "blockHash": "0x3889ec1233ab04aff710cada5cba8fe473377132454c40eaf60b3c1e68a921ae",
      "blockNumber": "0x6cb565",
      "gasUsed": "0x7b573",
      "effectiveGasPrice": "0xba397f182",
      "from": "0xe62ab4d111f968660c6b2188046f9b9ba53c4bae",
      "to": "0xf065f9bbd5f59afa0d24be34bdf8ad483485ed1c",
      "contractAddress": null
    },
    {
      "status": "0x1",
      "cumulativeGasUsed": "0x924150",
      "logs": [],
      "logsBloom": "0x00000000000000000000000000000000000000000000000000000000000000000000000000000000000000000000000000000000000000000000000000000000000000000000000000000000000000000000000000000000000000000000000000000000000000000000000000000000000000000000000000000000000000000000000000000000000000000000000000000000000000000000000000000000000000000000000000000000000000000000000000000000000000000000000000000000000000000000000000000000000000000000000000000000000000000000000000000000000000000000000000000000000000000000000000000000",
      "type": "0x2",
      "transactionHash": "0x8e6b9aa6d148545ee611569e38cd408d536a01740f52b786db44caed784b32e3",
      "transactionIndex": "0x87",
      "blockHash": "0x3e0369dde67c1a8544270bd3f8d720cf05b1fe30cda6c46619ae1f9779756ab2",
      "blockNumber": "0x6cb566",
      "gasUsed": "0x9bdda",
      "effectiveGasPrice": "0xb350faba2",
      "from": "0xe62ab4d111f968660c6b2188046f9b9ba53c4bae",
      "to": "0xf065f9bbd5f59afa0d24be34bdf8ad483485ed1c",
      "contractAddress": null
    },
    {
      "status": "0x1",
      "cumulativeGasUsed": "0xcb39a7",
      "logs": [],
      "logsBloom": "0x00000000000000000000000000000000000000000000000000000000000000000000000000000000000000000000000000000000000000000000000000000000000000000000000000000000000000000000000000000000000000000000000000000000000000000000000000000000000000000000000000000000000000000000000000000000000000000000000000000000000000000000000000000000000000000000000000000000000000000000000000000000000000000000000000000000000000000000000000000000000000000000000000000000000000000000000000000000000000000000000000000000000000000000000000000000",
      "type": "0x2",
      "transactionHash": "0xf191ec286c5ceba2da15b2a6a26fa3940ae2db02aefc7ea509f871d3499d28f1",
      "transactionIndex": "0xd2",
      "blockHash": "0x644418e7a185b08bfe62d32d48ba24474473e4c7082c0b997b396d0dafb5cfe4",
      "blockNumber": "0x6cb567",
      "gasUsed": "0x9bc89",
      "effectiveGasPrice": "0xaf91bedc3",
      "from": "0xe62ab4d111f968660c6b2188046f9b9ba53c4bae",
      "to": "0xf065f9bbd5f59afa0d24be34bdf8ad483485ed1c",
      "contractAddress": null
    }
  ],
  "libraries": [],
  "pending": [],
  "returns": {},
  "timestamp": 1732214245,
  "chain": 11155111,
  "commit": "4b2e1f8c"
}