{
  "transactions": [
    {
      "hash": "0x35a16ee676a60b233e52c039dbd236daa1c044d3157474b857adb516dbbe5a31",
      "transactionType": "CALL",
      "contractName": "FeeManager",
      "contractAddress": "0x926df1f820af8e3cf53a58c94332eb16ba4cb4b5",
      "function": "getFeeTokenList()",
      "arguments": [],
      "transaction": {
        "from": "0xe62ab4d111f968660c6b2188046f9b9ba53c4bae",
        "to": "0x926df1f820af8e3cf53a58c94332eb16ba4cb4b5",
        "gas": "0x8a7e",
        "value": "0x0",
        "input": "0xe28ab277",
        "nonce": "0x1f5",
        "chainId": "0xaa36a7"
      },
      "additionalContracts": [],
      "isFixedGasLimit": false
    },
    {
      "hash": "0x71e42d90826d8a24ddc091ba57584a1f4b31e99320f2dedd664daf9677f64111",
      "transactionType": "CALL",
      "contractName": "FeeManager",
      "contractAddress": "0x926df1f820af8e3cf53a58c94332eb16ba4cb4b5",
      "function": "addFeeToken(string)",
      "arguments": [
        "0xa4c104db0937f1e886d5c9c9789d6f0e5bfba75c"
      ],
      "transaction": {
        "from": "0xe62ab4d111f968660c6b2188046f9b9ba53c4bae",
        "to": "0x926df1f820af8e3cf53a58c94332eb16ba4cb4b5",
        "gas": "0x28cec",
        "value": "0x0",
        "input": "0x12a6385f0000000000000000000000000000000000000000000000000000000000000020000000000000000000000000000000000000000000000000000000000000002a30786134633130346462303933376631653838366435633963393738396436663065356266626137356300000000000000000000000000000000000000000000",
        "nonce": "0x1f6",
        "chainId": "0xaa36a7"
      },
      "additionalContracts": [],
      "isFixedGasLimit": false
    },
    {
      "hash": "0xb4b4b6315e245f55fe19525a3ffda8346fecdb4e7231f02bcb5d797472555ea5",
      "transactionType": "CALL",
      "contractName": "FeeManager",
      "contractAddress": "0x926df1f820af8e3cf53a58c94332eb16ba4cb4b5",
      "function": "setFeeMultiplier(uint8,uint256)",
      "arguments": [
        "0",
        "2"
      ],
      "transaction": {
        "from": "0xe62ab4d111f968660c6b2188046f9b9ba53c4bae",
        "to": "0x926df1f820af8e3cf53a58c94332eb16ba4cb4b5",
        "gas": "0x112e8",
        "value": "0x0",
        "input": "0x0ee24eb500000000000000000000000000000000000000000000000000000000000000000000000000000000000000000000000000000000000000000000000000000002",
        "nonce": "0x1f7",
        "chainId": "0xaa36a7"
      },
      "additionalContracts": [],
      "isFixedGasLimit": false
    },
    {
      "hash": "0x03a1af379f8d674fc595251203d70b8842c41b4c74ddecefabb5aea7181dd897",
      "transactionType": "CALL",
      "contractName": "FeeManager",
      "contractAddress": "0x926df1f820af8e3cf53a58c94332eb16ba4cb4b5",
      "function": "setFeeMultiplier(uint8,uint256)",
      "arguments": [
        "1",
        "10"
      ],
      "transaction": {
        "from": "0xe62ab4d111f968660c6b2188046f9b9ba53c4bae",
        "to": "0x926df1f820af8e3cf53a58c94332eb16ba4cb4b5",
        "gas": "0x11324",
        "value": "0x0",
        "input": "0x0ee24eb50000000000000000000000000000000000000000000000000000000000000001000000000000000000000000000000000000000000000000000000000000000a",
        "nonce": "0x1f8",
        "chainId": "0xaa36a7"
      },
      "additionalContracts": [],
      "isFixedGasLimit": false
    },
    {
      "hash": "0xce4141942520ac8cc3123bff5f817f869a714e883aec8e2ebd54fe2bd610ff9c",
      "transactionType": "CALL",
      "contractName": "FeeManager",
      "contractAddress": "0x926df1f820af8e3cf53a58c94332eb16ba4cb4b5",
      "function": "setFeeMultiplier(uint8,uint256)",
      "arguments": [
        "2",
        "1"
      ],
      "transaction": {
        "from": "0xe62ab4d111f968660c6b2188046f9b9ba53c4bae",
        "to": "0x926df1f820af8e3cf53a58c94332eb16ba4cb4b5",
        "gas": "0x11346",
        "value": "0x0",
        "input": "0x0ee24eb500000000000000000000000000000000000000000000000000000000000000020000000000000000000000000000000000000000000000000000000000000001",
        "nonce": "0x1f9",
        "chainId": "0xaa36a7"
      },
      "additionalContracts": [],
      "isFixedGasLimit": false
    },
    {
      "hash": "0x9aa59209253c3c42f94cb50652f31267ca0ad68300df0eb213fa57f28a9c2a4d",
      "transactionType": "CALL",
      "contractName": "FeeManager",
      "contractAddress": "0x926df1f820af8e3cf53a58c94332eb16ba4cb4b5",
      "function": "setFeeMultiplier(uint8,uint256)",
      "arguments": [
        "3",
        "4"
      ],
      "transaction": {
        "from": "0xe62ab4d111f968660c6b2188046f9b9ba53c4bae",
        "to": "0x926df1f820af8e3cf53a58c94332eb16ba4cb4b5",
        "gas": "0x1041b",
        "value": "0x0",
        "input": "0x0ee24eb500000000000000000000000000000000000000000000000000000000000000030000000000000000000000000000000000000000000000000000000000000004",
        "nonce": "0x1fa",
        "chainId": "0xaa36a7"
      },
      "additionalContracts": [],
      "isFixedGasLimit": false
    },
    {
      "hash": "0xe3c9e8d1c79f3de7f39702549d07eec68019f0f5ccf5dd4f378561dfd17c75f3",
      "transactionType": "CALL",
      "contractName": "FeeManager",
      "contractAddress": "0x926df1f820af8e3cf53a58c94332eb16ba4cb4b5",
      "function": "setFeeMultiplier(uint8,uint256)",
      "arguments": [
        "4",
        "4"
      ],
      "transaction": {
        "from": "0xe62ab4d111f968660c6b2188046f9b9ba53c4bae",
        "to": "0x926df1f820af8e3cf53a58c94332eb16ba4cb4b5",
        "gas": "0x1043a",
        "value": "0x0",
        "input": "0x0ee24eb500000000000000000000000000000000000000000000000000000000000000040000000000000000000000000000000000000000000000000000000000000004",
        "nonce": "0x1fb",
        "chainId": "0xaa36a7"
      },
      "additionalContracts": [],
      "isFixedGasLimit": false
    },
    {
      "hash": "0x0ac445662632f4eb9a384e7bf9ffd5ffaeed15e67e28c7ac798fb81c853eed7f",
      "transactionType": "CALL",
      "contractName": "FeeManager",
      "contractAddress": "0x926df1f820af8e3cf53a58c94332eb16ba4cb4b5",
      "function": "setFeeMultiplier(uint8,uint256)",
      "arguments": [
        "5",
        "4"
      ],
      "transaction": {
        "from": "0xe62ab4d111f968660c6b2188046f9b9ba53c4bae",
        "to": "0x926df1f820af8e3cf53a58c94332eb16ba4cb4b5",
        "gas": "0x10459",
        "value": "0x0",
        "input": "0x0ee24eb500000000000000000000000000000000000000000000000000000000000000050000000000000000000000000000000000000000000000000000000000000004",
        "nonce": "0x1fc",
        "chainId": "0xaa36a7"
      },
      "additionalContracts": [],
      "isFixedGasLimit": false
    },
    {
      "hash": "0x89440244d06b6397bfd7cbfc559d8cfe1066a3a373a2778b5d9e6c6cf32345f1",
      "transactionType": "CALL",
      "contractName": "FeeManager",
      "contractAddress": "0x926df1f820af8e3cf53a58c94332eb16ba4cb4b5",
      "function": "setFeeMultiplier(uint8,uint256)",
      "arguments": [
        "6",
        "8"
      ],
      "transaction": {
        "from": "0xe62ab4d111f968660c6b2188046f9b9ba53c4bae",
        "to": "0x926df1f820af8e3cf53a58c94332eb16ba4cb4b5",
        "gas": "0x1047a",
        "value": "0x0",
        "input": "0x0ee24eb500000000000000000000000000000000000000000000000000000000000000060000000000000000000000000000000000000000000000000000000000000008",
        "nonce": "0x1fd",
        "chainId": "0xaa36a7"
      },
      "additionalContracts": [],
      "isFixedGasLimit": false
    },
    {
      "hash": "0x9f6ae60ba6678325dcf09a32ef1e35fd8eec69da525099b96e9d9e67eb5004f2",
      "transactionType": "CALL",
      "contractName": "FeeManager",
      "contractAddress": "0x926df1f820af8e3cf53a58c94332eb16ba4cb4b5",
      "function": "setFeeMultiplier(uint8,uint256)",
      "arguments": [
        "7",
        "4"
      ],
      "transaction": {
        "from": "0xe62ab4d111f968660c6b2188046f9b9ba53c4bae",
        "to": "0x926df1f820af8e3cf53a58c94332eb16ba4cb4b5",
        "gas": "0x10499",
        "value": "0x0",
        "input": "0x0ee24eb500000000000000000000000000000000000000000000000000000000000000070000000000000000000000000000000000000000000000000000000000000004",
        "nonce": "0x1fe",
        "chainId": "0xaa36a7"
      },
      "additionalContracts": [],
      "isFixedGasLimit": false
    },
    {
      "hash": "0xa2eab9dc6dbcc3d6e8200107437db2a30d1ffd71b49cbca1e990910898723738",
      "transactionType": "CALL",
      "contractName": "FeeManager",
      "contractAddress": "0x926df1f820af8e3cf53a58c94332eb16ba4cb4b5",
      "function": "setFeeMultiplier(uint8,uint256)",
      "arguments": [
        "8",
        "10"
      ],
      "transaction": {
        "from": "0xe62ab4d111f968660c6b2188046f9b9ba53c4bae",
        "to": "0x926df1f820af8e3cf53a58c94332eb16ba4cb4b5",
        "gas": "0x1140f",
        "value": "0x0",
        "input": "0x0ee24eb50000000000000000000000000000000000000000000000000000000000000008000000000000000000000000000000000000000000000000000000000000000a",
        "nonce": "0x1ff",
        "chainId": "0xaa36a7"
      },
      "additionalContracts": [],
      "isFixedGasLimit": false
    },
    {
      "hash": "0x075eb4f367e153f52167fa8d8f2db767e7036c6c9ca6e0c7a64f7471ad327da6",
      "transactionType": "CALL",
      "contractName": "FeeManager",
      "contractAddress": "0x926df1f820af8e3cf53a58c94332eb16ba4cb4b5",
      "function": "setFeeMultiplier(uint8,uint256)",
      "arguments": [
        "9",
        "8"
      ],
      "transaction": {
        "from": "0xe62ab4d111f968660c6b2188046f9b9ba53c4bae",
        "to": "0x926df1f820af8e3cf53a58c94332eb16ba4cb4b5",
        "gas": "0x11431",
        "value": "0x0",
        "input": "0x0ee24eb500000000000000000000000000000000000000000000000000000000000000090000000000000000000000000000000000000000000000000000000000000008",
        "nonce": "0x200",
        "chainId": "0xaa36a7"
      },
      "additionalContracts": [],
      "isFixedGasLimit": false
    },
    {
      "hash": "0x859d2739f8be93bb0790b83783083b21f11b03a46542e9720da60781c0cef051",
      "transactionType": "CALL",
      "contractName": "FeeManager",
      "contractAddress": "0x926df1f820af8e3cf53a58c94332eb16ba4cb4b5",
      "function": "setFeeMultiplier(uint8,uint256)",
      "arguments": [
        "10",
        "8"
      ],
      "transaction": {
        "from": "0xe62ab4d111f968660c6b2188046f9b9ba53c4bae",
        "to": "0x926df1f820af8e3cf53a58c94332eb16ba4cb4b5",
        "gas": "0x11453",
        "value": "0x0",
        "input": "0x0ee24eb5000000000000000000000000000000000000000000000000000000000000000a0000000000000000000000000000000000000000000000000000000000000008",
        "nonce": "0x201",
        "chainId": "0xaa36a7"
      },
      "additionalContracts": [],
      "isFixedGasLimit": false
    },
    {
      "hash": "0xcd206d89840a229543a29749a083e4d46a82299646f8aeac1cc7340c163a4e2d",
      "transactionType": "CALL",
      "contractName": "FeeManager",
      "contractAddress": "0x926df1f820af8e3cf53a58c94332eb16ba4cb4b5",
      "function": "setFeeMultiplier(uint8,uint256)",
      "arguments": [
        "11",
        "8"
      ],
      "transaction": {
        "from": "0xe62ab4d111f968660c6b2188046f9b9ba53c4bae",
        "to": "0x926df1f820af8e3cf53a58c94332eb16ba4cb4b5",
        "gas": "0x10518",
        "value": "0x0",
        "input": "0x0ee24eb5000000000000000000000000000000000000000000000000000000000000000b0000000000000000000000000000000000000000000000000000000000000008",
        "nonce": "0x202",
        "chainId": "0xaa36a7"
      },
      "additionalContracts": [],
      "isFixedGasLimit": false
    },
    {
      "hash": "0x39a1c2b5587125aa6455595dc8cc1e88064c6df72212b0f218305c8e00b86c96",
      "transactionType": "CALL",
      "contractName": "FeeManager",
      "contractAddress": "0x926df1f820af8e3cf53a58c94332eb16ba4cb4b5",
      "function": "setFeeMultiplier(uint8,uint256)",
      "arguments": [
        "12",
        "20"
      ],
      "transaction": {
        "from": "0xe62ab4d111f968660c6b2188046f9b9ba53c4bae",
        "to": "0x926df1f820af8e3cf53a58c94332eb16ba4cb4b5",
        "gas": "0x10538",
        "value": "0x0",
        "input": "0x0ee24eb5000000000000000000000000000000000000000000000000000000000000000c0000000000000000000000000000000000000000000000000000000000000014",
        "nonce": "0x203",
        "chainId": "0xaa36a7"
      },
      "additionalContracts": [],
      "isFixedGasLimit": false
    },
    {
      "hash": "0xe863449948d3599694ce1d1a104da3507b9b3314e8d021b20872de0dd219c53d",
      "transactionType": "CALL",
      "contractName": "FeeManager",
      "contractAddress": "0x926df1f820af8e3cf53a58c94332eb16ba4cb4b5",
      "function": "setFeeMultiplier(uint8,uint256)",
      "arguments": [
        "13",
        "8"
      ],
      "transaction": {
        "from": "0xe62ab4d111f968660c6b2188046f9b9ba53c4bae",
        "to": "0x926df1f820af8e3cf53a58c94332eb16ba4cb4b5",
        "gas": "0x10558",
        "value": "0x0",
        "input": "0x0ee24eb5000000000000000000000000000000000000000000000000000000000000000d0000000000000000000000000000000000000000000000000000000000000008",
        "nonce": "0x204",
        "chainId": "0xaa36a7"
      },
      "additionalContracts": [],
      "isFixedGasLimit": false
    },
    {
      "hash": "0x61ed37b24c4d7678a09691230e721bd873cf3533822b1e18683add1ea14d721a",
      "transactionType": "CALL",
      "contractName": "FeeManager",
      "contractAddress": "0x926df1f820af8e3cf53a58c94332eb16ba4cb4b5",
      "function": "setFeeMultiplier(uint8,uint256)",
      "arguments": [
        "14",
        "4"
      ],
      "transaction": {
        "from": "0xe62ab4d111f968660c6b2188046f9b9ba53c4bae",
        "to": "0x926df1f820af8e3cf53a58c94332eb16ba4cb4b5",
        "gas": "0x10577",
        "value": "0x0",
        "input": "0x0ee24eb5000000000000000000000000000000000000000000000000000000000000000e0000000000000000000000000000000000000000000000000000000000000004",
        "nonce": "0x205",
        "chainId": "0xaa36a7"
      },
      "additionalContracts": [],
      "isFixedGasLimit": false
    },
    {
      "hash": "0x0561945567319560743416ea9b4bfaec831a1d5cf9eaa21a0eb8a2bada9a6e30",
      "transactionType": "CALL",
      "contractName": "FeeManager",
      "contractAddress": "0x926df1f820af8e3cf53a58c94332eb16ba4cb4b5",
      "function": "setFeeMultiplier(uint8,uint256)",
      "arguments": [
        "15",
        "4"
      ],
      "transaction": {
        "from": "0xe62ab4d111f968660c6b2188046f9b9ba53c4bae",
        "to": "0x926df1f820af8e3cf53a58c94332eb16ba4cb4b5",
        "gas": "0x10598",
        "value": "0x0",
        "input": "0x0ee24eb5000000000000000000000000000000000000000000000000000000000000000f0000000000000000000000000000000000000000000000000000000000000004",
        "nonce": "0x206",
        "chainId": "0xaa36a7"
      },
      "additionalContracts": [],
      "isFixedGasLimit": false
    },
    {
      "hash": "0xd28f504397fbe6f88b8cd6e7b7072ab547866bc4c493742760fd9793736dc1b7",
      "transactionType": "CALL",
      "contractName": "FeeManager",
      "contractAddress": "0x926df1f820af8e3cf53a58c94332eb16ba4cb4b5",
      "function": "setFeeMultiplier(uint8,uint256)",
      "arguments": [
        "16",
        "4"
      ],
      "transaction": {
        "from": "0xe62ab4d111f968660c6b2188046f9b9ba53c4bae",
        "to": "0x926df1f820af8e3cf53a58c94332eb16ba4cb4b5",
        "gas": "0x1151d",
        "value": "0x0",
        "input": "0x0ee24eb500000000000000000000000000000000000000000000000000000000000000100000000000000000000000000000000000000000000000000000000000000004",
        "nonce": "0x207",
        "chainId": "0xaa36a7"
      },
      "additionalContracts": [],
      "isFixedGasLimit": false
    },
    {
      "hash": "0x3cf2d37ecc91967ddafd12b5a1464f51073b4e0719d85bf7e1b1651b3842412b",
      "transactionType": "CALL",
      "contractName": "FeeManager",
      "contractAddress": "0x926df1f820af8e3cf53a58c94332eb16ba4cb4b5",
      "function": "setFeeMultiplier(uint8,uint256)",
      "arguments": [
        "17",
        "4"
      ],
      "transaction": {
        "from": "0xe62ab4d111f968660c6b2188046f9b9ba53c4bae",
        "to": "0x926df1f820af8e3cf53a58c94332eb16ba4cb4b5",
        "gas": "0x1153e",
        "value": "0x0",
        "input": "0x0ee24eb500000000000000000000000000000000000000000000000000000000000000110000000000000000000000000000000000000000000000000000000000000004",
        "nonce": "0x208",
        "chainId": "0xaa36a7"
      },
      "additionalContracts": [],
      "isFixedGasLimit": false
    },
    {
      "hash": "0xf5b8df9c1ad70e29c0481d1fece49c5d33fab30c90b442735495168ad53d3c2f",
      "transactionType": "CALL",
      "contractName": "FeeManager",
      "contractAddress": "0x926df1f820af8e3cf53a58c94332eb16ba4cb4b5",
      "function": "setFeeMultiplier(uint8,uint256)",
      "arguments": [
        "18",
        "2"
      ],
      "transaction": {
        "from": "0xe62ab4d111f968660c6b2188046f9b9ba53c4bae",
        "to": "0x926df1f820af8e3cf53a58c94332eb16ba4cb4b5",
        "gas": "0x11560",
        "value": "0x0",
        "input": "0x0ee24eb500000000000000000000000000000000000000000000000000000000000000120000000000000000000000000000000000000000000000000000000000000002",
        "nonce": "0x209",
        "chainId": "0xaa36a7"
      },
      "additionalContracts": [],
      "isFixedGasLimit": false
    },
    {
      "hash": "0xca130a81672af1da4b846b242f73e706d0bd066c1d64cc4a61fb56d480b78977",
      "transactionType": "CALL",
      "contractName": "FeeManager",
      "contractAddress": "0x926df1f820af8e3cf53a58c94332eb16ba4cb4b5",
      "function": "setFeeMultiplier(uint8,uint256)",
      "arguments": [
        "19",
        "20"
      ],
      "transaction": {
        "from": "0xe62ab4d111f968660c6b2188046f9b9ba53c4bae",
        "to": "0x926df1f820af8e3cf53a58c94332eb16ba4cb4b5",
        "gas": "0x10617",
        "value": "0x0",
        "input": "0x0ee24eb500000000000000000000000000000000000000000000000000000000000000130000000000000000000000000000000000000000000000000000000000000014",
        "nonce": "0x20a",
        "chainId": "0xaa36a7"
      },
      "additionalContracts": [],
      "isFixedGasLimit": false
    },
    {
      "hash": "0x3dfad9a671987be3752fcfe0b37fc8194eda1d8fe2e374d76e53e606c6132d6c",
      "transactionType": "CALL",
      "contractName": "FeeManager",
      "contractAddress": "0x926df1f820af8e3cf53a58c94332eb16ba4cb4b5",
      "function": "setFeeMultiplier(uint8,uint256)",
      "arguments": [
        "20",
        "2"
      ],
      "transaction": {
        "from": "0xe62ab4d111f968660c6b2188046f9b9ba53c4bae",
        "to": "0x926df1f820af8e3cf53a58c94332eb16ba4cb4b5",
        "gas": "0x1159c",
        "value": "0x0",
        "input": "0x0ee24eb500000000000000000000000000000000000000000000000000000000000000140000000000000000000000000000000000000000000000000000000000000002",
        "nonce": "0x20b",
        "chainId": "0xaa36a7"
      },
      "additionalContracts": [],
      "isFixedGasLimit": false
    },
    {
      "hash": "0xcb9ca0c76f7b1a9e81fd95e13ce18f732cbcbd16f02aea75606d192c603047b1",
      "transactionType": "CALL",
      "contractName": "FeeManager",
      "contractAddress": "0x926df1f820af8e3cf53a58c94332eb16ba4cb4b5",
      "function": "addFeeToken(string,string[],uint256[])",
      "arguments": [
        "421614",
        "[0xa4c104db0937f1e886d5c9c9789d6f0e5bfba75c]",
        "[100]"
      ],
      "transaction": {
        "from": "0xe62ab4d111f968660c6b2188046f9b9ba53c4bae",
        "to": "0x926df1f820af8e3cf53a58c94332eb16ba4cb4b5",
        "gas": "0x2f4dd",
        "value": "0x0",
        "input": "0x437bf84f000000000000000000000000000000000000000000000000000000000000006000000000000000000000000000000000000000000000000000000000000000a000000000000000000000000000000000000000000000000000000000000001400000000000000000000000000000000000000000000000000000000000000006343231363134000000000000000000000000000000000000000000000000000000000000000000000000000000000000000000000000000000000000000000010000000000000000000000000000000000000000000000000000000000000020000000000000000000000000000000000000000000000000000000000000002a3078613463313034646230393337663165383836643563396339373839643666306535626662613735630000000000000000000000000000000000000000000000000000000000000000000000000000000000000000000000000000000000010000000000000000000000000000000000000000000000000000000000000064",
        "nonce": "0x20c",
        "chainId": "0xaa36a7"
      },
      "additionalContracts": [],
      "isFixedGasLimit": false
    },
    {
      "hash": "0x8067b6d13c334d1b043fa01667e8add6fb0cc31bcdce62722199528f9ab43990",
      "transactionType": "CALL",
      "contractName": "FeeManager",
      "contractAddress": "0x926df1f820af8e3cf53a58c94332eb16ba4cb4b5",
      "function": "addFeeToken(string,string[],uint256[])",
      "arguments": [
        "80002",
        "[0xa4c104db0937f1e886d5c9c9789d6f0e5bfba75c]",
        "[100]"
      ],
      "transaction": {
        "from": "0xe62ab4d111f968660c6b2188046f9b9ba53c4bae",
        "to": "0x926df1f820af8e3cf53a58c94332eb16ba4cb4b5",
        "gas": "0x2a14c",
        "value": "0x0",
        "input": "0x437bf84f000000000000000000000000000000000000000000000000000000000000006000000000000000000000000000000000000000000000000000000000000000a000000000000000000000000000000000000000000000000000000000000001400000000000000000000000000000000000000000000000000000000000000005383030303200000000000000000000000000000000000000000000000000000000000000000000000000000000000000000000000000000000000000000000010000000000000000000000000000000000000000000000000000000000000020000000000000000000000000000000000000000000000000000000000000002a3078613463313034646230393337663165383836643563396339373839643666306535626662613735630000000000000000000000000000000000000000000000000000000000000000000000000000000000000000000000000000000000010000000000000000000000000000000000000000000000000000000000000064",
        "nonce": "0x20d",
        "chainId": "0xaa36a7"
      },
      "additionalContracts": [],
      "isFixedGasLimit": false
    },
    {
      "hash": "0xe61af2c3e87dd88dd021c1983a1c08ac4eef93dadb4ef478e20e381b29b59e01",
      "transactionType": "CALL",
      "contractName": "FeeManager",
      "contractAddress": "0x926df1f820af8e3cf53a58c94332eb16ba4cb4b5",
      "function": "addFeeToken(string,string[],uint256[])",
      "arguments": [
        "84532",
        "[0xa4c104db0937f1e886d5c9c9789d6f0e5bfba75c]",
        "[100]"
      ],
      "transaction": {
        "from": "0xe62ab4d111f968660c6b2188046f9b9ba53c4bae",
        "to": "0x926df1f820af8e3cf53a58c94332eb16ba4cb4b5",
        "gas": "0x2a14c",
        "value": "0x0",
        "input": "0x437bf84f000000000000000000000000000000000000000000000000000000000000006000000000000000000000000000000000000000000000000000000000000000a000000000000000000000000000000000000000000000000000000000000001400000000000000000000000000000000000000000000000000000000000000005383435333200000000000000000000000000000000000000000000000000000000000000000000000000000000000000000000000000000000000000000000010000000000000000000000000000000000000000000000000000000000000020000000000000000000000000000000000000000000000000000000000000002a3078613463313034646230393337663165383836643563396339373839643666306535626662613735630000000000000000000000000000000000000000000000000000000000000000000000000000000000000000000000000000000000010000000000000000000000000000000000000000000000000000000000000064",
        "nonce": "0x20e",
        "chainId": "0xaa36a7"
      },
      "additionalContracts": [],
      "isFixedGasLimit": false
    },
    {
      "hash": "0x0057ccb6639635d6db7eb3e5d8239e5e7f57ca2e39ed9fecd99de57297583912",
      "transactionType": "CALL",
      "contractName": "FeeManager",
      "contractAddress": "0x926df1f820af8e3cf53a58c94332eb16ba4cb4b5",
      "function": "addFeeToken(string,string[],uint256[])",
      "arguments": [
        "59141",
        "[0xa4c104db0937f1e886d5c9c9789d6f0e5bfba75c]",
        "[100]"
      ],
      "transaction": {
        "from": "0xe62ab4d111f968660c6b2188046f9b9ba53c4bae",
        "to": "0x926df1f820af8e3cf53a58c94332eb16ba4cb4b5",
        "gas": "0x2a14c",
        "value": "0x0",
        "input": "0x437bf84f000000000000000000000000000000000000000000000000000000000000006000000000000000000000000000000000000000000000000000000000000000a000000000000000000000000000000000000000000000000000000000000001400000000000000000000000000000000000000000000000000000000000000005353931343100000000000000000000000000000000000000000000000000000000000000000000000000000000000000000000000000000000000000000000010000000000000000000000000000000000000000000000000000000000000020000000000000000000000000000000000000000000000000000000000000002a3078613463313034646230393337663165383836643563396339373839643666306535626662613735630000000000000000000000000000000000000000000000000000000000000000000000000000000000000000000000000000000000010000000000000000000000000000000000000000000000000000000000000064",
        "nonce": "0x20f",
        "chainId": "0xaa36a7"
      },
      "additionalContracts": [],
      "isFixedGasLimit": false
    },
    {
      "hash": "0x2e628f59a938cae906c3ee776301f4e5b3e4d6c957dce7726e6c333637962c79",
      "transactionType": "CALL",
      "contractName": "FeeManager",
      "contractAddress": "0x926df1f820af8e3cf53a58c94332eb16ba4cb4b5",
      "function": "addFeeToken(string,string[],uint256[])",
      "arguments": [
        "1115",
        "[0xa4c104db0937f1e886d5c9c9789d6f0e5bfba75c]",
        "[100]"
      ],
      "transaction": {
        "from": "0xe62ab4d111f968660c6b2188046f9b9ba53c4bae",
        "to": "0x926df1f820af8e3cf53a58c94332eb16ba4cb4b5",
        "gas": "0x2c6b0",
        "value": "0x0",
        "input": "0x437bf84f000000000000000000000000000000000000000000000000000000000000006000000000000000000000000000000000000000000000000000000000000000a000000000000000000000000000000000000000000000000000000000000001400000000000000000000000000000000000000000000000000000000000000004313131350000000000000000000000000000000000000000000000000000000000000000000000000000000000000000000000000000000000000000000000010000000000000000000000000000000000000000000000000000000000000020000000000000000000000000000000000000000000000000000000000000002a3078613463313034646230393337663165383836643563396339373839643666306535626662613735630000000000000000000000000000000000000000000000000000000000000000000000000000000000000000000000000000000000010000000000000000000000000000000000000000000000000000000000000064",
        "nonce": "0x210",
        "chainId": "0xaa36a7"
      },
      "additionalContracts": [],
      "isFixedGasLimit": false
    },
    {
      "hash": "0xf574eb9fb8020ccead7891a26c66475cb9eca634a7cb8e94e7fea64b1e0f6e52",
      "transactionType": "CALL",
      "contractName": "FeeManager",
      "contractAddress": "0x926df1f820af8e3cf53a58c94332eb16ba4cb4b5",
      "function": "addFeeToken(string,string[],uint256[])",
      "arguments": [
        "17000",
        "[0xa4c104db0937f1e886d5c9c9789d6f0e5bfba75c]",
        "[100]"
      ],
      "transaction": {
        "from": "0xe62ab4d111f968660c6b2188046f9b9ba53c4bae",
        "to": "0x926df1f820af8e3cf53a58c94332eb16ba4cb4b5",
        "gas": "0x2a14c",
        "value": "0x0",
        "input": "0x437bf84f000000000000000000000000000000000000000000000000000000000000006000000000000000000000000000000000000000000000000000000000000000a000000000000000000000000000000000000000000000000000000000000001400000000000000000000000000000000000000000000000000000000000000005313730303000000000000000000000000000000000000000000000000000000000000000000000000000000000000000000000000000000000000000000000010000000000000000000000000000000000000000000000000000000000000020000000000000000000000000000000000000000000000000000000000000002a3078613463313034646230393337663165383836643563396339373839643666306535626662613735630000000000000000000000000000000000000000000000000000000000000000000000000000000000000000000000000000000000010000000000000000000000000000000000000000000000000000000000000064",
        "nonce": "0x211",
        "chainId": "0xaa36a7"
      },
      "additionalContracts": [],
      "isFixedGasLimit": false
    },
    {
      "hash": "0x4c0e8723ecc134d037ec45435104c5d814a994a26c7a41661171f13785f52902",
      "transactionType": "CALL",
      "contractName": "FeeManager",
      "contractAddress": "0x926df1f820af8e3cf53a58c94332eb16ba4cb4b5",
      "function": "addFeeToken(string,string[],uint256[])",
      "arguments": [
        "2810",
        "[0xa4c104db0937f1e886d5c9c9789d6f0e5bfba75c]",
        "[100]"
      ],
      "transaction": {
        "from": "0xe62ab4d111f968660c6b2188046f9b9ba53c4bae",
        "to": "0x926df1f820af8e3cf53a58c94332eb16ba4cb4b5",
        "gas": "0x2c6b0",
        "value": "0x0",
        "input": "0x437bf84f000000000000000000000000000000000000000000000000000000000000006000000000000000000000000000000000000000000000000000000000000000a000000000000000000000000000000000000000000000000000000000000001400000000000000000000000000000000000000000000000000000000000000004323831300000000000000000000000000000000000000000000000000000000000000000000000000000000000000000000000000000000000000000000000010000000000000000000000000000000000000000000000000000000000000020000000000000000000000000000000000000000000000000000000000000002a3078613463313034646230393337663165383836643563396339373839643666306535626662613735630000000000000000000000000000000000000000000000000000000000000000000000000000000000000000000000000000000000010000000000000000000000000000000000000000000000000000000000000064",
        "nonce": "0x212",
        "chainId": "0xaa36a7"
      },
      "additionalContracts": [],
      "isFixedGasLimit": false
    },
    {
      "hash": "0x9cfe0b0fa78f8a94ca58e340555875d325d18a473ad5eb587ae36788f7966db2",
      "transactionType": "CALL",
      "contractName": "FeeManager",
      "contractAddress": "0x926df1f820af8e3cf53a58c94332eb16ba4cb4b5",
      "function": "addFeeToken(string,string[],uint256[])",
      "arguments": [
        "168587773",
        "[0xa4c104db0937f1e886d5c9c9789d6f0e5bfba75c]",
        "[100]"
      ],
      "transaction": {
        "from": "0xe62ab4d111f968660c6b2188046f9b9ba53c4bae",
        "to": "0x926df1f820af8e3cf53a58c94332eb16ba4cb4b5",
        "gas": "0x2a9ac",
        "value": "0x0",
        "input": "0x437bf84f000000000000000000000000000000000000000000000000000000000000006000000000000000000000000000000000000000000000000000000000000000a000000000000000000000000000000000000000000000000000000000000001400000000000000000000000000000000000000000000000000000000000000009313638353837373733000000000000000000000000000000000000000000000000000000000000000000000000000000000000000000000000000000000000010000000000000000000000000000000000000000000000000000000000000020000000000000000000000000000000000000000000000000000000000000002a3078613463313034646230393337663165383836643563396339373839643666306535626662613735630000000000000000000000000000000000000000000000000000000000000000000000000000000000000000000000000000000000010000000000000000000000000000000000000000000000000000000000000064",
        "nonce": "0x213",
        "chainId": "0xaa36a7"
      },
      "additionalContracts": [],
      "isFixedGasLimit": false
    },
    {
      "hash": "0x963ad595579a027d69a0f3ff642549c57e697a461a93df2d96420b3cbddebeee",
      "transactionType": "CALL",
      "contractName": "FeeManager",
      "contractAddress": "0x926df1f820af8e3cf53a58c94332eb16ba4cb4b5",
      "function": "addFeeToken(string,string[],uint256[])",
      "arguments": [
        "200810",
        "[0xa4c104db0937f1e886d5c9c9789d6f0e5bfba75c]",
        "[100]"
      ],
      "transaction": {
        "from": "0xe62ab4d111f968660c6b2188046f9b9ba53c4bae",
        "to": "0x926df1f820af8e3cf53a58c94332eb16ba4cb4b5",
        "gas": "0x2cb1f",
        "value": "0x0",
        "input": "0x437bf84f000000000000000000000000000000000000000000000000000000000000006000000000000000000000000000000000000000000000000000000000000000a000000000000000000000000000000000000000000000000000000000000001400000000000000000000000000000000000000000000000000000000000000006323030383130000000000000000000000000000000000000000000000000000000000000000000000000000000000000000000000000000000000000000000010000000000000000000000000000000000000000000000000000000000000020000000000000000000000000000000000000000000000000000000000000002a3078613463313034646230393337663165383836643563396339373839643666306535626662613735630000000000000000000000000000000000000000000000000000000000000000000000000000000000000000000000000000000000010000000000000000000000000000000000000000000000000000000000000064",
        "nonce": "0x214",
        "chainId": "0xaa36a7"
      },
      "additionalContracts": [],
      "isFixedGasLimit": false
    },
    {
      "hash": "0x77e8a224920c394082a1984e5ba7b006fb74f44c6f6b4c8fbadf65bfb841de6e",
      "transactionType": "CALL",
      "contractName": "FeeManager",
      "contractAddress": "0x926df1f820af8e3cf53a58c94332eb16ba4cb4b5",
      "function": "addFeeToken(string,string[],uint256[])",
      "arguments": [
        "534351",
        "[0xa4c104db0937f1e886d5c9c9789d6f0e5bfba75c]",
        "[100]"
      ],
      "transaction": {
        "from": "0xe62ab4d111f968660c6b2188046f9b9ba53c4bae",
        "to": "0x926df1f820af8e3cf53a58c94332eb16ba4cb4b5",
        "gas": "0x2cb1f",
        "value": "0x0",
        "input": "0x437bf84f000000000000000000000000000000000000000000000000000000000000006000000000000000000000000000000000000000000000000000000000000000a000000000000000000000000000000000000000000000000000000000000001400000000000000000000000000000000000000000000000000000000000000006353334333531000000000000000000000000000000000000000000000000000000000000000000000000000000000000000000000000000000000000000000010000000000000000000000000000000000000000000000000000000000000020000000000000000000000000000000000000000000000000000000000000002a3078613463313034646230393337663165383836643563396339373839643666306535626662613735630000000000000000000000000000000000000000000000000000000000000000000000000000000000000000000000000000000000010000000000000000000000000000000000000000000000000000000000000064",
        "nonce": "0x215",
        "chainId": "0xaa36a7"
      },
      "additionalContracts": [],
      "isFixedGasLimit": false
    },
    {
      "hash": "0x04a320fbadb42d386e4707fa7069e7432f1c84402890e58b386e5e9d5203c439",
      "transactionType": "CALL",
      "contractName": "FeeManager",
      "contractAddress": "0x926df1f820af8e3cf53a58c94332eb16ba4cb4b5",
      "function": "addFeeToken(string,string[],uint256[])",
      "arguments": [
        "5003",
        "[0xa4c104db0937f1e886d5c9c9789d6f0e5bfba75c]",
        "[100]"
      ],
      "transaction": {
        "from": "0xe62ab4d111f968660c6b2188046f9b9ba53c4bae",
        "to": "0x926df1f820af8e3cf53a58c94332eb16ba4cb4b5",
        "gas": "0x2c6b0",
        "value": "0x0",
        "input": "0x437bf84f000000000000000000000000000000000000000000000000000000000000006000000000000000000000000000000000000000000000000000000000000000a000000000000000000000000000000000000000000000000000000000000001400000000000000000000000000000000000000000000000000000000000000004353030330000000000000000000000000000000000000000000000000000000000000000000000000000000000000000000000000000000000000000000000010000000000000000000000000000000000000000000000000000000000000020000000000000000000000000000000000000000000000000000000000000002a3078613463313034646230393337663165383836643563396339373839643666306535626662613735630000000000000000000000000000000000000000000000000000000000000000000000000000000000000000000000000000000000010000000000000000000000000000000000000000000000000000000000000064",
        "nonce": "0x216",
        "chainId": "0xaa36a7"
      },
      "additionalContracts": [],
      "isFixedGasLimit": false
    },
    {
      "hash": "0xb4f790a627afdfac14992fdfdc065452b28367ca9fb539d3458fd2a3ed79b070",
      "transactionType": "CALL",
      "contractName": "FeeManager",
      "contractAddress": "0x926df1f820af8e3cf53a58c94332eb16ba4cb4b5",
      "function": "addFeeToken(string,string[],uint256[])",
      "arguments": [
        "4201",
        "[0xa4c104db0937f1e886d5c9c9789d6f0e5bfba75c]",
        "[100]"
      ],
      "transaction": {
        "from": "0xe62ab4d111f968660c6b2188046f9b9ba53c4bae",
        "to": "0x926df1f820af8e3cf53a58c94332eb16ba4cb4b5",
        "gas": "0x2c6b0",
        "value": "0x0",
        "input": "0x437bf84f000000000000000000000000000000000000000000000000000000000000006000000000000000000000000000000000000000000000000000000000000000a000000000000000000000000000000000000000000000000000000000000001400000000000000000000000000000000000000000000000000000000000000004343230310000000000000000000000000000000000000000000000000000000000000000000000000000000000000000000000000000000000000000000000010000000000000000000000000000000000000000000000000000000000000020000000000000000000000000000000000000000000000000000000000000002a3078613463313034646230393337663165383836643563396339373839643666306535626662613735630000000000000000000000000000000000000000000000000000000000000000000000000000000000000000000000000000000000010000000000000000000000000000000000000000000000000000000000000064",
        "nonce": "0x217",
        "chainId": "0xaa36a7"
      },
      "additionalContracts": [],
      "isFixedGasLimit": false
    },
    {
      "hash": "0x50b0be4745610bab884c1de3b69f10e5383e525cb9de0ed180ae6f95739a1ec8",
      "transactionType": "CALL",
      "contractName": "FeeManager",
      "contractAddress": "0x926df1f820af8e3cf53a58c94332eb16ba4cb4b5",
      "function": "addFeeToken(string,string[],uint256[])",
      "arguments": [
        "80084",
        "[0xa4c104db0937f1e886d5c9c9789d6f0e5bfba75c]",
        "[100]"
      ],
      "transaction": {
        "from": "0xe62ab4d111f968660c6b2188046f9b9ba53c4bae",
        "to": "0x926df1f820af8e3cf53a58c94332eb16ba4cb4b5",
        "gas": "0x2a14c",
        "value": "0x0",
        "input": "0x437bf84f000000000000000000000000000000000000000000000000000000000000006000000000000000000000000000000000000000000000000000000000000000a000000000000000000000000000000000000000000000000000000000000001400000000000000000000000000000000000000000000000000000000000000005383030383400000000000000000000000000000000000000000000000000000000000000000000000000000000000000000000000000000000000000000000010000000000000000000000000000000000000000000000000000000000000020000000000000000000000000000000000000000000000000000000000000002a3078613463313034646230393337663165383836643563396339373839643666306535626662613735630000000000000000000000000000000000000000000000000000000000000000000000000000000000000000000000000000000000010000000000000000000000000000000000000000000000000000000000000064",
        "nonce": "0x218",
        "chainId": "0xaa36a7"
      },
      "additionalContracts": [],
      "isFixedGasLimit": false
    },
    {
      "hash": "0xc29f281229b4a2fd7eaf62d63c93e642ea446d1112a93f46f48e672b60646402",
      "transactionType": "CALL",
      "contractName": "FeeManager",
      "contractAddress": "0x926df1f820af8e3cf53a58c94332eb16ba4cb4b5",
      "function": "addFeeToken(string,string[],uint256[])",
      "arguments": [
        "1952959480",
        "[0xa4c104db0937f1e886d5c9c9789d6f0e5bfba75c]",
        "[100]"
      ],
      "transaction": {
        "from": "0xe62ab4d111f968660c6b2188046f9b9ba53c4bae",
        "to": "0x926df1f820af8e3cf53a58c94332eb16ba4cb4b5",
        "gas": "0x2d3fd",
        "value": "0x0",
        "input": "0x437bf84f000000000000000000000000000000000000000000000000000000000000006000000000000000000000000000000000000000000000000000000000000000a00000000000000000000000000000000000000000000000000000000000000140000000000000000000000000000000000000000000000000000000000000000a313935323935393438300000000000000000000000000000000000000000000000000000000000000000000000000000000000000000000000000000000000010000000000000000000000000000000000000000000000000000000000000020000000000000000000000000000000000000000000000000000000000000002a3078613463313034646230393337663165383836643563396339373839643666306535626662613735630000000000000000000000000000000000000000000000000000000000000000000000000000000000000000000000000000000000010000000000000000000000000000000000000000000000000000000000000064",
        "nonce": "0x219",
        "chainId": "0xaa36a7"
      },
      "additionalContracts": [],
      "isFixedGasLimit": false
    },
    {
      "hash": "0xd59868decdb0f3b30a2f790861dac4a3fdc75522ec20cbfff64f1393e89bc228",
      "transactionType": "CALL",
      "contractName": "FeeManager",
      "contractAddress": "0x926df1f820af8e3cf53a58c94332eb16ba4cb4b5",
      "function": "addFeeToken(string,string[],uint256[])",
      "arguments": [
        "78600",
        "[0xa4c104db0937f1e886d5c9c9789d6f0e5bfba75c]",
        "[100]"
      ],
      "transaction": {
        "from": "0xe62ab4d111f968660c6b2188046f9b9ba53c4bae",
        "to": "0x926df1f820af8e3cf53a58c94332eb16ba4cb4b5",
        "gas": "0x2a14c",
        "value": "0x0",
        "input": "0x437bf84f000000000000000000000000000000000000000000000000000000000000006000000000000000000000000000000000000000000000000000000000000000a000000000000000000000000000000000000000000000000000000000000001400000000000000000000000000000000000000000000000000000000000000005373836303000000000000000000000000000000000000000000000000000000000000000000000000000000000000000000000000000000000000000000000010000000000000000000000000000000000000000000000000000000000000020000000000000000000000000000000000000000000000000000000000000002a3078613463313034646230393337663165383836643563396339373839643666306535626662613735630000000000000000000000000000000000000000000000000000000000000000000000000000000000000000000000000000000000010000000000000000000000000000000000000000000000000000000000000064",
        "nonce": "0x21a",
        "chainId": "0xaa36a7"
      },
      "additionalContracts": [],
      "isFixedGasLimit": false
    },
    {
      "hash": "0x5cb094489c070ac522603add7e11c7b3a6a80814d9465dcb00cd547b8dd46b57",
      "transactionType": "CALL",
      "contractName": "FeeManager",
      "contractAddress": "0x926df1f820af8e3cf53a58c94332eb16ba4cb4b5",
      "function": "addFeeToken(string,string[],uint256[])",
      "arguments": [
        "1918988905",
        "[0xa4c104db0937f1e886d5c9c9789d6f0e5bfba75c]",
        "[100]"
      ],
      "transaction": {
        "from": "0xe62ab4d111f968660c6b2188046f9b9ba53c4bae",
        "to": "0x926df1f820af8e3cf53a58c94332eb16ba4cb4b5",
        "gas": "0x2d3fd",
        "value": "0x0",
        "input": "0x437bf84f000000000000000000000000000000000000000000000000000000000000006000000000000000000000000000000000000000000000000000000000000000a00000000000000000000000000000000000000000000000000000000000000140000000000000000000000000000000000000000000000000000000000000000a313931383938383930350000000000000000000000000000000000000000000000000000000000000000000000000000000000000000000000000000000000010000000000000000000000000000000000000000000000000000000000000020000000000000000000000000000000000000000000000000000000000000002a3078613463313034646230393337663165383836643563396339373839643666306535626662613735630000000000000000000000000000000000000000000000000000000000000000000000000000000000000000000000000000000000010000000000000000000000000000000000000000000000000000000000000064",
        "nonce": "0x21b",
        "chainId": "0xaa36a7"
      },
      "additionalContracts": [],
      "isFixedGasLimit": false
    },
    {
      "hash": "0x0d37cddb88918a8bba225fd4b12d306d53f4ff63d386ff2017c1dada73faebbd",
      "transactionType": "CALL",
      "contractName": "FeeManager",
      "contractAddress": "0x926df1f820af8e3cf53a58c94332eb16ba4cb4b5",
      "function": "addFeeToken(string,string[],uint256[])",
      "arguments": [
        "2484",
        "[0xa4c104db0937f1e886d5c9c9789d6f0e5bfba75c]",
        "[100]"
      ],
      "transaction": {
        "from": "0xe62ab4d111f968660c6b2188046f9b9ba53c4bae",
        "to": "0x926df1f820af8e3cf53a58c94332eb16ba4cb4b5",
        "gas": "0x2c6b0",
        "value": "0x0",
        "input": "0x437bf84f000000000000000000000000000000000000000000000000000000000000006000000000000000000000000000000000000000000000000000000000000000a000000000000000000000000000000000000000000000000000000000000001400000000000000000000000000000000000000000000000000000000000000004323438340000000000000000000000000000000000000000000000000000000000000000000000000000000000000000000000000000000000000000000000010000000000000000000000000000000000000000000000000000000000000020000000000000000000000000000000000000000000000000000000000000002a3078613463313034646230393337663165383836643563396339373839643666306535626662613735630000000000000000000000000000000000000000000000000000000000000000000000000000000000000000000000000000000000010000000000000000000000000000000000000000000000000000000000000064",
        "nonce": "0x21c",
        "chainId": "0xaa36a7"
      },
      "additionalContracts": [],
      "isFixedGasLimit": false
    },
    {
      "hash": "0x073bd31fc845e08fd9dfad00969f5065313747c87f7aaeef1b8a905ecc0e7c56",
      "transactionType": "CALL",
      "contractName": "FeeManager",
      "contractAddress": "0x926df1f820af8e3cf53a58c94332eb16ba4cb4b5",
      "function": "addFeeToken(string,string[],uint256[])",
      "arguments": [
        "1946",
        "[0xa4c104db0937f1e886d5c9c9789d6f0e5bfba75c]",
        "[100]"
      ],
      "transaction": {
        "from": "0xe62ab4d111f968660c6b2188046f9b9ba53c4bae",
        "to": "0x926df1f820af8e3cf53a58c94332eb16ba4cb4b5",
        "gas": "0x2c6b0",
        "value": "0x0",
        "input": "0x437bf84f000000000000000000000000000000000000000000000000000000000000006000000000000000000000000000000000000000000000000000000000000000a000000000000000000000000000000000000000000000000000000000000001400000000000000000000000000000000000000000000000000000000000000004313934360000000000000000000000000000000000000000000000000000000000000000000000000000000000000000000000000000000000000000000000010000000000000000000000000000000000000000000000000000000000000020000000000000000000000000000000000000000000000000000000000000002a3078613463313034646230393337663165383836643563396339373839643666306535626662613735630000000000000000000000000000000000000000000000000000000000000000000000000000000000000000000000000000000000010000000000000000000000000000000000000000000000000000000000000064",
        "nonce": "0x21d",
        "chainId": "0xaa36a7"
      },
      "additionalContracts": [],
      "isFixedGasLimit": false
    },
    {
      "hash": "0x36f1c017197488353006d51f001770b4023f0fdd3af131418eccca3eea32fad6",
      "transactionType": "CALL",
      "contractName": "FeeManager",
      "contractAddress": "0x926df1f820af8e3cf53a58c94332eb16ba4cb4b5",
      "function": "addFeeToken(string,string[],uint256[])",
      "arguments": [
        "5611",
        "[0xa4c104db0937f1e886d5c9c9789d6f0e5bfba75c]",
        "[100]"
      ],
      "transaction": {
        "from": "0xe62ab4d111f968660c6b2188046f9b9ba53c4bae",
        "to": "0x926df1f820af8e3cf53a58c94332eb16ba4cb4b5",
        "gas": "0x2c6b0",
        "value": "0x0",
        "input": "0x437bf84f000000000000000000000000000000000000000000000000000000000000006000000000000000000000000000000000000000000000000000000000000000a000000000000000000000000000000000000000000000000000000000000001400000000000000000000000000000000000000000000000000000000000000004353631310000000000000000000000000000000000000000000000000000000000000000000000000000000000000000000000000000000000000000000000010000000000000000000000000000000000000000000000000000000000000020000000000000000000000000000000000000000000000000000000000000002a3078613463313034646230393337663165383836643563396339373839643666306535626662613735630000000000000000000000000000000000000000000000000000000000000000000000000000000000000000000000000000000000010000000000000000000000000000000000000000000000000000000000000064",
        "nonce": "0x21e",
        "chainId": "0xaa36a7"
      },
      "additionalContracts": [],
      "isFixedGasLimit": false
    },
    {
      "hash": "0xfa4c0fbb6f388e02c52b247ee7a281c6afd7d34634ff028d2eda45998965636d",
      "transactionType": "CALL",
      "contractName": "FeeManager",
      "contractAddress": "0x926df1f820af8e3cf53a58c94332eb16ba4cb4b5",
      "function": "addFeeToken(string,string[],uint256[])",
      "arguments": [
        "64165",
        "[0xa4c104db0937f1e886d5c9c9789d6f0e5bfba75c]",
        "[100]"
      ],
      "transaction": {
        "from": "0xe62ab4d111f968660c6b2188046f9b9ba53c4bae",
        "to": "0x926df1f820af8e3cf53a58c94332eb16ba4cb4b5",
        "gas": "0x2a14c",
        "value": "0x0",
        "input": "0x437bf84f000000000000000000000000000000000000000000000000000000000000006000000000000000000000000000000000000000000000000000000000000000a000000000000000000000000000000000000000000000000000000000000001400000000000000000000000000000000000000000000000000000000000000005363431363500000000000000000000000000000000000000000000000000000000000000000000000000000000000000000000000000000000000000000000010000000000000000000000000000000000000000000000000000000000000020000000000000000000000000000000000000000000000000000000000000002a3078613463313034646230393337663165383836643563396339373839643666306535626662613735630000000000000000000000000000000000000000000000000000000000000000000000000000000000000000000000000000000000010000000000000000000000000000000000000000000000000000000000000064",
        "nonce": "0x21f",
        "chainId": "0xaa36a7"
      },
      "additionalContracts": [],
      "isFixedGasLimit": false
    },
    {
      "hash": "0x8eb74b19111cc4d8c2c9efa411f3e7127434f1610920c7f31bfb889bf7e250ff",
      "transactionType": "CALL",
      "contractName": "FeeManager",
      "contractAddress": "0x926df1f820af8e3cf53a58c94332eb16ba4cb4b5",
      "function": "addFeeToken(string,string[],uint256[])",
      "arguments": [
        "997",
        "[0xa4c104db0937f1e886d5c9c9789d6f0e5bfba75c]",
        "[100]"
      ],
      "transaction": {
        "from": "0xe62ab4d111f968660c6b2188046f9b9ba53c4bae",
        "to": "0x926df1f820af8e3cf53a58c94332eb16ba4cb4b5",
        "gas": "0x29d1b",
        "value": "0x0",
        "input": "0x437bf84f000000000000000000000000000000000000000000000000000000000000006000000000000000000000000000000000000000000000000000000000000000a000000000000000000000000000000000000000000000000000000000000001400000000000000000000000000000000000000000000000000000000000000003393937000000000000000000000000000000000000000000000000000000000000000000000000000000000000000000000000000000000000000000000000010000000000000000000000000000000000000000000000000000000000000020000000000000000000000000000000000000000000000000000000000000002a3078613463313034646230393337663165383836643563396339373839643666306535626662613735630000000000000000000000000000000000000000000000000000000000000000000000000000000000000000000000000000000000010000000000000000000000000000000000000000000000000000000000000064",
        "nonce": "0x220",
        "chainId": "0xaa36a7"
      },
      "additionalContracts": [],
      "isFixedGasLimit": false
    },
    {
      "hash": "0x14ad3f82af532813acb1bf467423c67ef282aec3090e215e88653056d353e28a",
      "transactionType": "CALL",
      "contractName": "FeeManager",
      "contractAddress": "0x926df1f820af8e3cf53a58c94332eb16ba4cb4b5",
      "function": "addFeeToken(string,string[],uint256[])",
      "arguments": [
        "14853",
        "[0xa4c104db0937f1e886d5c9c9789d6f0e5bfba75c]",
        "[100]"
      ],
      "transaction": {
        "from": "0xe62ab4d111f968660c6b2188046f9b9ba53c4bae",
        "to": "0x926df1f820af8e3cf53a58c94332eb16ba4cb4b5",
        "gas": "0x2a14c",
        "value": "0x0",
        "input": "0x437bf84f000000000000000000000000000000000000000000000000000000000000006000000000000000000000000000000000000000000000000000000000000000a000000000000000000000000000000000000000000000000000000000000001400000000000000000000000000000000000000000000000000000000000000005313438353300000000000000000000000000000000000000000000000000000000000000000000000000000000000000000000000000000000000000000000010000000000000000000000000000000000000000000000000000000000000020000000000000000000000000000000000000000000000000000000000000002a3078613463313034646230393337663165383836643563396339373839643666306535626662613735630000000000000000000000000000000000000000000000000000000000000000000000000000000000000000000000000000000000010000000000000000000000000000000000000000000000000000000000000064",
        "nonce": "0x221",
        "chainId": "0xaa36a7"
      },
      "additionalContracts": [],
      "isFixedGasLimit": false
    },
    {
      "hash": "0xb64ece08b07060f70e83f7c2f10e901b38610134f63e895203d201978f66c58a",
      "transactionType": "CALL",
      "contractName": "FeeManager",
      "contractAddress": "0x926df1f820af8e3cf53a58c94332eb16ba4cb4b5",
      "function": "addFeeToken(string,string[],uint256[])",
      "arguments": [
        "338",
        "[0xa4c104db0937f1e886d5c9c9789d6f0e5bfba75c]",
        "[100]"
      ],
      "transaction": {
        "from": "0xe62ab4d111f968660c6b2188046f9b9ba53c4bae",
        "to": "0x926df1f820af8e3cf53a58c94332eb16ba4cb4b5",
        "gas": "0x29d1b",
        "value": "0x0",
        "input": "0x437bf84f000000000000000000000000000000000000000000000000000000000000006000000000000000000000000000000000000000000000000000000000000000a000000000000000000000000000000000000000000000000000000000000001400000000000000000000000000000000000000000000000000000000000000003333338000000000000000000000000000000000000000000000000000000000000000000000000000000000000000000000000000000000000000000000000010000000000000000000000000000000000000000000000000000000000000020000000000000000000000000000000000000000000000000000000000000002a3078613463313034646230393337663165383836643563396339373839643666306535626662613735630000000000000000000000000000000000000000000000000000000000000000000000000000000000000000000000000000000000010000000000000000000000000000000000000000000000000000000000000064",
        "nonce": "0x222",
        "chainId": "0xaa36a7"
      },
      "additionalContracts": [],
      "isFixedGasLimit": false
    },
    {
      "hash": "0xf63851d1e09423093d49f85303a356d910fd812ebb7e8b0071eae95816d91314",
      "transactionType": "CALL",
      "contractName": "FeeManager",
      "contractAddress": "0x926df1f820af8e3cf53a58c94332eb16ba4cb4b5",
      "function": "addFeeToken(string,string[],uint256[])",
      "arguments": [
        "97",
        "[0xa4c104db0937f1e886d5c9c9789d6f0e5bfba75c]",
        "[100]"
      ],
      "transaction": {
        "from": "0xe62ab4d111f968660c6b2188046f9b9ba53c4bae",
        "to": "0x926df1f820af8e3cf53a58c94332eb16ba4cb4b5",
        "gas": "0x2c241",
        "value": "0x0",
        "input": "0x437bf84f000000000000000000000000000000000000000000000000000000000000006000000000000000000000000000000000000000000000000000000000000000a000000000000000000000000000000000000000000000000000000000000001400000000000000000000000000000000000000000000000000000000000000002393700000000000000000000000000000000000000000000000000000000000000000000000000000000000000000000000000000000000000000000000000010000000000000000000000000000000000000000000000000000000000000020000000000000000000000000000000000000000000000000000000000000002a3078613463313034646230393337663165383836643563396339373839643666306535626662613735630000000000000000000000000000000000000000000000000000000000000000000000000000000000000000000000000000000000010000000000000000000000000000000000000000000000000000000000000064",
        "nonce": "0x223",
        "chainId": "0xaa36a7"
      },
      "additionalContracts": [],
      "isFixedGasLimit": false
    },
    {
      "hash": "0x21247c4b6fc9496ca8d22cb89bf0c600b5fc52df5cb999da8cd2ff469cb81cbf",
      "transactionType": "CALL",
      "contractName": "FeeManager",
      "contractAddress": "0x926df1f820af8e3cf53a58c94332eb16ba4cb4b5",
      "function": "addFeeToken(string,string[],uint256[])",
      "arguments": [
        "11155111",
        "[0xa4c104db0937f1e886d5c9c9789d6f0e5bfba75c]",
        "[100]"
      ],
      "transaction": {
        "from": "0xe62ab4d111f968660c6b2188046f9b9ba53c4bae",
        "to": "0x926df1f820af8e3cf53a58c94332eb16ba4cb4b5",
        "gas": "0x2cf8e",
        "value": "0x0",
        "input": "0x437bf84f000000000000000000000000000000000000000000000000000000000000006000000000000000000000000000000000000000000000000000000000000000a000000000000000000000000000000000000000000000000000000000000001400000000000000000000000000000000000000000000000000000000000000008313131353531313100000000000000000000000000000000000000000000000000000000000000000000000000000000000000000000000000000000000000010000000000000000000000000000000000000000000000000000000000000020000000000000000000000000000000000000000000000000000000000000002a3078613463313034646230393337663165383836643563396339373839643666306535626662613735630000000000000000000000000000000000000000000000000000000000000000000000000000000000000000000000000000000000010000000000000000000000000000000000000000000000000000000000000064",
        "nonce": "0x224",
        "chainId": "0xaa36a7"
      },
      "additionalContracts": [],
      "isFixedGasLimit": false
    },
    {
      "hash": "0x02df1962d436948971454dd10fa18df70c39741fd721e37a6dfd0b1950eb727f",
      "transactionType": "CALL",
      "contractName": "CTMRWAGateway",
      "contractAddress": "0x10a04ad4a73c8bb00ee5a29b27d11eee85390306",
      "function": "addChainContract(string[],string[])",
      "arguments": [
        "[421614, 80002, 84532, 59141, 1115, 17000, 2810, 168587773, 200810, 534351, 5003, 4201, 80084, 1952959480, 78600, 1918988905, 2484, 1946, 5611, 64165, 997, 14853, 338, 97]",
        "[0x20a9f9d7282c6fde913522a42c3951f5b18f62d5, 0x114ace1c918409889464c2a714f8442a97934ccf, 0xf3a991cb19949cb6abd9e416f0408c648b6c36fa, 0x9266e8bf4943f2b366f2be89688a8622084db8b9, 0xf4e7a775c8abc8e0b7ed11d660b0a6b2e1b7a132, 0xf4e7a775c8abc8e0b7ed11d660b0a6b2e1b7a132, 0x9266e8bf4943f2b366f2be89688a8622084db8b9, 0x9266e8bf4943f2b366f2be89688a8622084db8b9, 0x64c5734e22cf8126c6367c0230b66788fbe4ab90, 0x9266e8bf4943f2b366f2be89688a8622084db8b9, 0x9266e8bf4943f2b366f2be89688a8622084db8b9, 0x2927d422cbea7f315ee3e0660af2ed9b35302004, 0xa42864da3ee7b05489ef1d99704089b734cb73a2, 0xd1f0743c665d80d6bdaf1b4b8c9e82bfd1ae1994, 0xeadb6779c7284a7ef6f611f4535e60c3d59b321b, 0x22c254662850f21bfb09714f6a5638d929439f8d, 0x9266e8bf4943f2b366f2be89688a8622084db8b9, 0x9266e8bf4943f2b366f2be89688a8622084db8b9, 0x9266e8bf4943f2b366f2be89688a8622084db8b9, 0xf4e7a775c8abc8e0b7ed11d660b0a6b2e1b7a132, 0xf4e7a775c8abc8e0b7ed11d660b0a6b2e1b7a132, 0x9266e8bf4943f2b366f2be89688a8622084db8b9, 0xae66c08b9d76eecaa74314c60f3305d43707acc9, 0xba08c3b81ed1a13e7a3457b6ab5dddba2df34df4]"
      ],
      "transaction": {
        "from": "0xe62ab4d111f968660c6b2188046f9b9ba53c4bae",
        "to": "0x10a04ad4a73c8bb00ee5a29b27d11eee85390306",
        "gas": "0x46180d",
        "value": "0x0",
        "input": "0x013fd3bd00000000000000000000000000000000000000000000000000000000000000400000000000000000000000000000000000000000000000000000000000000960000000000000000000000000000000000000000000000000000000000000001800000000000000000000000000000000000000000000000000000000000003000000000000000000000000000000000000000000000000000000000000000340000000000000000000000000000000000000000000000000000000000000038000000000000000000000000000000000000000000000000000000000000003c000000000000000000000000000000000000000000000000000000000000004000000000000000000000000000000000000000000000000000000000000000440000000000000000000000000000000000000000000000000000000000000048000000000000000000000000000000000000000000000000000000000000004c000000000000000000000000000000000000000000000000000000000000005000000000000000000000000000000000000000000000000000000000000000540000000000000000000000000000000000000000000000000000000000000058000000000000000000000000000000000000000000000000000000000000005c000000000000000000000000000000000000000000000000000000000000006000000000000000000000000000000000000000000000000000000000000000640000000000000000000000000000000000000000000000000000000000000068000000000000000000000000000000000000000000000000000000000000006c000000000000000000000000000000000000000000000000000000000000007000000000000000000000000000000000000000000000000000000000000000740000000000000000000000000000000000000000000000000000000000000078000000000000000000000000000000000000000000000000000000000000007c000000000000000000000000000000000000000000000000000000000000008000000000000000000000000000000000000000000000000000000000000000840000000000000000000000000000000000000000000000000000000000000088000000000000000000000000000000000000000000000000000000000000008c000000000000000000000000000000000000000000000000000000000000000063432313631340000000000000000000000000000000000000000000000000000000000000000000000000000000000000000000000000000000000000000000538303030320000000000000000000000000000000000000000000000000000000000000000000000000000000000000000000000000000000000000000000005383435333200000000000000000000000000000000000000000000000000000000000000000000000000000000000000000000000000000000000000000000053539313431000000000000000000000000000000000000000000000000000000000000000000000000000000000000000000000000000000000000000000000431313135000000000000000000000000000000000000000000000000000000000000000000000000000000000000000000000000000000000000000000000005313730303000000000000000000000000000000000000000000000000000000000000000000000000000000000000000000000000000000000000000000000043238313000000000000000000000000000000000000000000000000000000000000000000000000000000000000000000000000000000000000000000000000931363835383737373300000000000000000000000000000000000000000000000000000000000000000000000000000000000000000000000000000000000006323030383130000000000000000000000000000000000000000000000000000000000000000000000000000000000000000000000000000000000000000000063533343335310000000000000000000000000000000000000000000000000000000000000000000000000000000000000000000000000000000000000000000435303033000000000000000000000000000000000000000000000000000000000000000000000000000000000000000000000000000000000000000000000004343230310000000000000000000000000000000000000000000000000000000000000000000000000000000000000000000000000000000000000000000000053830303834000000000000000000000000000000000000000000000000000000000000000000000000000000000000000000000000000000000000000000000a313935323935393438300000000000000000000000000000000000000000000000000000000000000000000000000000000000000000000000000000000000053738363030000000000000000000000000000000000000000000000000000000000000000000000000000000000000000000000000000000000000000000000a3139313839383839303500000000000000000000000000000000000000000000000000000000000000000000000000000000000000000000000000000000000432343834000000000000000000000000000000000000000000000000000000000000000000000000000000000000000000000000000000000000000000000004313934360000000000000000000000000000000000000000000000000000000000000000000000000000000000000000000000000000000000000000000000043536313100000000000000000000000000000000000000000000000000000000000000000000000000000000000000000000000000000000000000000000000536343136350000000000000000000000000000000000000000000000000000000000000000000000000000000000000000000000000000000000000000000003393937000000000000000000000000000000000000000000000000000000000000000000000000000000000000000000000000000000000000000000000000053134383533000000000000000000000000000000000000000000000000000000000000000000000000000000000000000000000000000000000000000000000333333800000000000000000000000000000000000000000000000000000000000000000000000000000000000000000000000000000000000000000000000002393700000000000000000000000000000000000000000000000000000000000000000000000000000000000000000000000000000000000000000000000000180000000000000000000000000000000000000000000000000000000000000300000000000000000000000000000000000000000000000000000000000000036000000000000000000000000000000000000000000000000000000000000003c00000000000000000000000000000000000000000000000000000000000000420000000000000000000000000000000000000000000000000000000000000048000000000000000000000000000000000000000000000000000000000000004e0000000000000000000000000000000000000000000000000000000000000054000000000000000000000000000000000000000000000000000000000000005a00000000000000000000000000000000000000000000000000000000000000600000000000000000000000000000000000000000000000000000000000000066000000000000000000000000000000000000000000000000000000000000006c00000000000000000000000000000000000000000000000000000000000000720000000000000000000000000000000000000000000000000000000000000078000000000000000000000000000000000000000000000000000000000000007e0000000000000000000000000000000000000000000000000000000000000084000000000000000000000000000000000000000000000000000000000000008a00000000000000000000000000000000000000000000000000000000000000900000000000000000000000000000000000000000000000000000000000000096000000000000000000000000000000000000000000000000000000000000009c00000000000000000000000000000000000000000000000000000000000000a200000000000000000000000000000000000000000000000000000000000000a800000000000000000000000000000000000000000000000000000000000000ae00000000000000000000000000000000000000000000000000000000000000b400000000000000000000000000000000000000000000000000000000000000ba0000000000000000000000000000000000000000000000000000000000000002a30783230613966396437323832633666646539313335323261343263333935316635623138663632643500000000000000000000000000000000000000000000000000000000000000000000000000000000000000000000000000000000002a30783131346163653163393138343039383839343634633261373134663834343261393739333463636600000000000000000000000000000000000000000000000000000000000000000000000000000000000000000000000000000000002a30786633613939316362313939343963623661626439653431366630343038633634386236633336666100000000000000000000000000000000000000000000000000000000000000000000000000000000000000000000000000000000002a30783932363665386266343934336632623336366632626538393638386138363232303834646238623900000000000000000000000000000000000000000000000000000000000000000000000000000000000000000000000000000000002a30786634653761373735633861626338653062376564313164363630623061366232653162376131333200000000000000000000000000000000000000000000000000000000000000000000000000000000000000000000000000000000002a30786634653761373735633861626338653062376564313164363630623061366232653162376131333200000000000000000000000000000000000000000000000000000000000000000000000000000000000000000000000000000000002a30783932363665386266343934336632623336366632626538393638386138363232303834646238623900000000000000000000000000000000000000000000000000000000000000000000000000000000000000000000000000000000002a30783932363665386266343934336632623336366632626538393638386138363232303834646238623900000000000000000000000000000000000000000000000000000000000000000000000000000000000000000000000000000000002a30783634633537333465323263663831323663363336376330323330623636373838666265346162393000000000000000000000000000000000000000000000000000000000000000000000000000000000000000000000000000000000002a30783932363665386266343934336632623336366632626538393638386138363232303834646238623900000000000000000000000000000000000000000000000000000000000000000000000000000000000000000000000000000000002a30783932363665386266343934336632623336366632626538393638386138363232303834646238623900000000000000000000000000000000000000000000000000000000000000000000000000000000000000000000000000000000002a30783239323764343232636265613766333135656533653036363061663265643962333533303230303400000000000000000000000000000000000000000000000000000000000000000000000000000000000000000000000000000000002a30786134323836346461336565376230353438396566316439393730343038396237333463623733613200000000000000000000000000000000000000000000000000000000000000000000000000000000000000000000000000000000002a30786431663037343363363635643830643662646166316234623863396538326266643161653139393400000000000000000000000000000000000000000000000000000000000000000000000000000000000000000000000000000000002a30786561646236373739633732383461376566366636313166343533356536306333643539623332316200000000000000000000000000000000000000000000000000000000000000000000000000000000000000000000000000000000002a30783232633235343636323835306632316266623039373134663661353633386439323934333966386400000000000000000000000000000000000000000000000000000000000000000000000000000000000000000000000000000000002a30783932363665386266343934336632623336366632626538393638386138363232303834646238623900000000000000000000000000000000000000000000000000000000000000000000000000000000000000000000000000000000002a30783932363665386266343934336632623336366632626538393638386138363232303834646238623900000000000000000000000000000000000000000000000000000000000000000000000000000000000000000000000000000000002a30783932363665386266343934336632623336366632626538393638386138363232303834646238623900000000000000000000000000000000000000000000000000000000000000000000000000000000000000000000000000000000002a30786634653761373735633861626338653062376564313164363630623061366232653162376131333200000000000000000000000000000000000000000000000000000000000000000000000000000000000000000000000000000000002a30786634653761373735633861626338653062376564313164363630623061366232653162376131333200000000000000000000000000000000000000000000000000000000000000000000000000000000000000000000000000000000002a30783932363665386266343934336632623336366632626538393638386138363232303834646238623900000000000000000000000000000000000000000000000000000000000000000000000000000000000000000000000000000000002a30786165363663303862396437366565636161373433313463363066333330356434333730376163633900000000000000000000000000000000000000000000000000000000000000000000000000000000000000000000000000000000002a30786261303863336238316564316131336537613334353762366162356464646261326466333464663400000000000000000000000000000000000000000000",
        "nonce": "0x225",
        "chainId": "0xaa36a7"
      },
      "additionalContracts": [],
      "isFixedGasLimit": false
    },
    {
      "hash": "0x30ba0b0fd32b0d95b70c88d1620f03f77d998788996f2d6724b28f256ddd0317",
      "transactionType": "CALL",
      "contractName": "CTMRWAGateway",
      "contractAddress": "0x10a04ad4a73c8bb00ee5a29b27d11eee85390306",
      "function": "attachRWAX(uint256,uint256,string[],string[])",
      "arguments": [
        "1",
        "1",
        "[11155111, 421614, 80002, 84532, 59141, 1115, 17000, 2810, 168587773, 200810, 534351, 5003, 4201, 80084, 1952959480, 78600, 1918988905, 2484, 1946, 5611, 64165, 997, 14853, 338, 97]",
        "[0x3af6a526dd51c8b08fd54dbb624e042bb3b0a77e, 0xd5870cb8400e75f2097f3af9fd37af0c758707e0, 0x88a23d9ec1a9f1100d807d0e8c7a39927d4a7897, 0xb5d1f61f6b9f0ca2b89eb9d693e8cd737076846a, 0xb5638019cbfc1b523d5167a269e755b05bf24fd9, 0x73943ec95aafbb4dd073b11f5c9701e5bc3708a6, 0x73943ec95aafbb4dd073b11f5c9701e5bc3708a6, 0xb5638019cbfc1b523d5167a269e755b05bf24fd9, 0xb5638019cbfc1b523d5167a269e755b05bf24fd9, 0xa4482df3a723654a599ba66d1b5091fd9c42ad05, 0xb5638019cbfc1b523d5167a269e755b05bf24fd9, 0xb5638019cbfc1b523d5167a269e755b05bf24fd9, 0x1b87108b35abb5751bfc64647e9d5cd1cb77e236, 0x67510816512511818b5047a4cce6e8f2ebb15d20, 0x9266e8bf4943f2b366f2be89688a8622084db8b9, 0x232c61b3d1a03cc57e976cccd0f9c9cd33a98fe0, 0x3abb2780b0bbf630490d155c4861f4e82c623246, 0xb5638019cbfc1b523d5167a269e755b05bf24fd9, 0xb5638019cbfc1b523d5167a269e755b05bf24fd9, 0xb5638019cbfc1b523d5167a269e755b05bf24fd9, 0x73943ec95aafbb4dd073b11f5c9701e5bc3708a6, 0x73943ec95aafbb4dd073b11f5c9701e5bc3708a6, 0xb5638019cbfc1b523d5167a269e755b05bf24fd9, 0x176cd7abf4919068d7fec79935c303b32b7dabe7, 0x21ea338975678968da85dea76f298e7f11a09334]"
      ],
      "transaction": {
        "from": "0xe62ab4d111f968660c6b2188046f9b9ba53c4bae",
        "to": "0x10a04ad4a73c8bb00ee5a29b27d11eee85390306",
        "gas": "0x5c9324",
        "value": "0x0",
        "input": "0x33a5f5b40000000000000000000000000000000000000000000000000000000000000001000000000000000000000000000000000000000000000000000000000000000100000000000000000000000000000000000000000000000000000000000000800000000000000000000000000000000000000000000000000000000000000a0000000000000000000000000000000000000000000000000000000000000000190000000000000000000000000000000000000000000000000000000000000320000000000000000000000000000000000000000000000000000000000000036000000000000000000000000000000000000000000000000000000000000003a000000000000000000000000000000000000000000000000000000000000003e00000000000000000000000000000000000000000000000000000000000000420000000000000000000000000000000000000000000000000000000000000046000000000000000000000000000000000000000000000000000000000000004a000000000000000000000000000000000000000000000000000000000000004e00000000000000000000000000000000000000000000000000000000000000520000000000000000000000000000000000000000000000000000000000000056000000000000000000000000000000000000000000000000000000000000005a000000000000000000000000000000000000000000000000000000000000005e00000000000000000000000000000000000000000000000000000000000000620000000000000000000000000000000000000000000000000000000000000066000000000000000000000000000000000000000000000000000000000000006a000000000000000000000000000000000000000000000000000000000000006e00000000000000000000000000000000000000000000000000000000000000720000000000000000000000000000000000000000000000000000000000000076000000000000000000000000000000000000000000000000000000000000007a000000000000000000000000000000000000000000000000000000000000007e00000000000000000000000000000000000000000000000000000000000000820000000000000000000000000000000000000000000000000000000000000086000000000000000000000000000000000000000000000000000000000000008a000000000000000000000000000000000000000000000000000000000000008e000000000000000000000000000000000000000000000000000000000000009200000000000000000000000000000000000000000000000000000000000000008313131353531313100000000000000000000000000000000000000000000000000000000000000000000000000000000000000000000000000000000000000063432313631340000000000000000000000000000000000000000000000000000000000000000000000000000000000000000000000000000000000000000000538303030320000000000000000000000000000000000000000000000000000000000000000000000000000000000000000000000000000000000000000000005383435333200000000000000000000000000000000000000000000000000000000000000000000000000000000000000000000000000000000000000000000053539313431000000000000000000000000000000000000000000000000000000000000000000000000000000000000000000000000000000000000000000000431313135000000000000000000000000000000000000000000000000000000000000000000000000000000000000000000000000000000000000000000000005313730303000000000000000000000000000000000000000000000000000000000000000000000000000000000000000000000000000000000000000000000043238313000000000000000000000000000000000000000000000000000000000000000000000000000000000000000000000000000000000000000000000000931363835383737373300000000000000000000000000000000000000000000000000000000000000000000000000000000000000000000000000000000000006323030383130000000000000000000000000000000000000000000000000000000000000000000000000000000000000000000000000000000000000000000063533343335310000000000000000000000000000000000000000000000000000000000000000000000000000000000000000000000000000000000000000000435303033000000000000000000000000000000000000000000000000000000000000000000000000000000000000000000000000000000000000000000000004343230310000000000000000000000000000000000000000000000000000000000000000000000000000000000000000000000000000000000000000000000053830303834000000000000000000000000000000000000000000000000000000000000000000000000000000000000000000000000000000000000000000000a313935323935393438300000000000000000000000000000000000000000000000000000000000000000000000000000000000000000000000000000000000053738363030000000000000000000000000000000000000000000000000000000000000000000000000000000000000000000000000000000000000000000000a3139313839383839303500000000000000000000000000000000000000000000000000000000000000000000000000000000000000000000000000000000000432343834000000000000000000000000000000000000000000000000000000000000000000000000000000000000000000000000000000000000000000000004313934360000000000000000000000000000000000000000000000000000000000000000000000000000000000000000000000000000000000000000000000043536313100000000000000000000000000000000000000000000000000000000000000000000000000000000000000000000000000000000000000000000000536343136350000000000000000000000000000000000000000000000000000000000000000000000000000000000000000000000000000000000000000000003393937000000000000000000000000000000000000000000000000000000000000000000000000000000000000000000000000000000000000000000000000053134383533000000000000000000000000000000000000000000000000000000000000000000000000000000000000000000000000000000000000000000000333333800000000000000000000000000000000000000000000000000000000000000000000000000000000000000000000000000000000000000000000000002393700000000000000000000000000000000000000000000000000000000000000000000000000000000000000000000000000000000000000000000000000190000000000000000000000000000000000000000000000000000000000000320000000000000000000000000000000000000000000000000000000000000038000000000000000000000000000000000000000000000000000000000000003e0000000000000000000000000000000000000000000000000000000000000044000000000000000000000000000000000000000000000000000000000000004a00000000000000000000000000000000000000000000000000000000000000500000000000000000000000000000000000000000000000000000000000000056000000000000000000000000000000000000000000000000000000000000005c00000000000000000000000000000000000000000000000000000000000000620000000000000000000000000000000000000000000000000000000000000068000000000000000000000000000000000000000000000000000000000000006e0000000000000000000000000000000000000000000000000000000000000074000000000000000000000000000000000000000000000000000000000000007a00000000000000000000000000000000000000000000000000000000000000800000000000000000000000000000000000000000000000000000000000000086000000000000000000000000000000000000000000000000000000000000008c00000000000000000000000000000000000000000000000000000000000000920000000000000000000000000000000000000000000000000000000000000098000000000000000000000000000000000000000000000000000000000000009e00000000000000000000000000000000000000000000000000000000000000a400000000000000000000000000000000000000000000000000000000000000aa00000000000000000000000000000000000000000000000000000000000000b000000000000000000000000000000000000000000000000000000000000000b600000000000000000000000000000000000000000000000000000000000000bc00000000000000000000000000000000000000000000000000000000000000c20000000000000000000000000000000000000000000000000000000000000002a30783361663661353236646435316338623038666435346462623632346530343262623362306137376500000000000000000000000000000000000000000000000000000000000000000000000000000000000000000000000000000000002a30786435383730636238343030653735663230393766336166396664333761663063373538373037653000000000000000000000000000000000000000000000000000000000000000000000000000000000000000000000000000000000002a30783838613233643965633161396631313030643830376430653863376133393932376434613738393700000000000000000000000000000000000000000000000000000000000000000000000000000000000000000000000000000000002a30786235643166363166366239663063613262383965623964363933653863643733373037363834366100000000000000000000000000000000000000000000000000000000000000000000000000000000000000000000000000000000002a30786235363338303139636266633162353233643531363761323639653735356230356266323466643900000000000000000000000000000000000000000000000000000000000000000000000000000000000000000000000000000000002a30783733393433656339356161666262346464303733623131663563393730316535626333373038613600000000000000000000000000000000000000000000000000000000000000000000000000000000000000000000000000000000002a30783733393433656339356161666262346464303733623131663563393730316535626333373038613600000000000000000000000000000000000000000000000000000000000000000000000000000000000000000000000000000000002a30786235363338303139636266633162353233643531363761323639653735356230356266323466643900000000000000000000000000000000000000000000000000000000000000000000000000000000000000000000000000000000002a30786235363338303139636266633162353233643531363761323639653735356230356266323466643900000000000000000000000000000000000000000000000000000000000000000000000000000000000000000000000000000000002a30786134343832646633613732333635346135393962613636643162353039316664396334326164303500000000000000000000000000000000000000000000000000000000000000000000000000000000000000000000000000000000002a30786235363338303139636266633162353233643531363761323639653735356230356266323466643900000000000000000000000000000000000000000000000000000000000000000000000000000000000000000000000000000000002a30786235363338303139636266633162353233643531363761323639653735356230356266323466643900000000000000000000000000000000000000000000000000000000000000000000000000000000000000000000000000000000002a30783162383731303862333561626235373531626663363436343765396435636431636237376532333600000000000000000000000000000000000000000000000000000000000000000000000000000000000000000000000000000000002a30783637353130383136353132353131383138623530343761346363653665386632656262313564323000000000000000000000000000000000000000000000000000000000000000000000000000000000000000000000000000000000002a30783932363665386266343934336632623336366632626538393638386138363232303834646238623900000000000000000000000000000000000000000000000000000000000000000000000000000000000000000000000000000000002a30783233326336316233643161303363633537653937366363636430663963396364333361393866653000000000000000000000000000000000000000000000000000000000000000000000000000000000000000000000000000000000002a30783361626232373830623062626636333034393064313535633438363166346538326336323332343600000000000000000000000000000000000000000000000000000000000000000000000000000000000000000000000000000000002a30786235363338303139636266633162353233643531363761323639653735356230356266323466643900000000000000000000000000000000000000000000000000000000000000000000000000000000000000000000000000000000002a30786235363338303139636266633162353233643531363761323639653735356230356266323466643900000000000000000000000000000000000000000000000000000000000000000000000000000000000000000000000000000000002a30786235363338303139636266633162353233643531363761323639653735356230356266323466643900000000000000000000000000000000000000000000000000000000000000000000000000000000000000000000000000000000002a30783733393433656339356161666262346464303733623131663563393730316535626333373038613600000000000000000000000000000000000000000000000000000000000000000000000000000000000000000000000000000000002a30783733393433656339356161666262346464303733623131663563393730316535626333373038613600000000000000000000000000000000000000000000000000000000000000000000000000000000000000000000000000000000002a30786235363338303139636266633162353233643531363761323639653735356230356266323466643900000000000000000000000000000000000000000000000000000000000000000000000000000000000000000000000000000000002a30783137366364376162663439313930363864376665633739393335633330336233326237646162653700000000000000000000000000000000000000000000000000000000000000000000000000000000000000000000000000000000002a30783231656133333839373536373839363864613835646561373666323938653766313161303933333400000000000000000000000000000000000000000000",
        "nonce": "0x226",
        "chainId": "0xaa36a7"
      },
      "additionalContracts": [],
      "isFixedGasLimit": false
    },
    {
      "hash": "0x3559a353dfd49101f7723124cb3c5aea1a064dfab4f6a58a92e07fd2174346c3",
      "transactionType": "CALL",
      "contractName": "CTMRWAGateway",
      "contractAddress": "0x10a04ad4a73c8bb00ee5a29b27d11eee85390306",
      "function": "attachStorageManager(uint256,uint256,string[],string[])",
      "arguments": [
        "1",
        "1",
        "[11155111, 421614, 80002, 84532, 59141, 1115, 17000, 2810, 168587773, 200810, 534351, 5003, 4201, 80084, 1952959480, 78600, 1918988905, 2484, 1946, 5611, 64165, 997, 14853, 338, 97]",
        "[0x93def24108852be52b2c34084d584338e46ab8f4, 0x769139881024ce730de9de9c21e3ad6fb5a872f2, 0x95ae66ad780e73ef2d2a80611458883c950a1356, 0xf9229aceba228fdbb757a637eeebadb46fdb617e, 0xa240b0714712e2927ec055ceaa8e031ac671a55f, 0x4b17e8ee1cc1814636dde9ac12a42472799ccb64, 0x4b17e8ee1cc1814636dde9ac12a42472799ccb64, 0xa240b0714712e2927ec055ceaa8e031ac671a55f, 0xa240b0714712e2927ec055ceaa8e031ac671a55f, 0x048a5cefcdf0faeb734bc4a941e0de44d8c49f55, 0xa240b0714712e2927ec055ceaa8e031ac671a55f, 0xa240b0714712e2927ec055ceaa8e031ac671a55f, 0x3418a45e442210ec9579b074ae9acb13b2a67554, 0xa7c57315395def05f906310d590f4ea15308fe30, 0xde3fdb278b0ec3254e8701c38e58cfd1168f13a5, 0xc33b3317912d173806d782bfade797f262d9a4bd, 0x56249f01cf2b50a7f211bb9de08b1480835f574a, 0xa240b0714712e2927ec055ceaa8e031ac671a55f, 0xa240b0714712e2927ec055ceaa8e031ac671a55f, 0xa240b0714712e2927ec055ceaa8e031ac671a55f, 0x4b17e8ee1cc1814636dde9ac12a42472799ccb64, 0x4b17e8ee1cc1814636dde9ac12a42472799ccb64, 0xa240b0714712e2927ec055ceaa8e031ac671a55f, 0xb8b99101c1dbfad6aa418220592773be082db804, 0x60a5b05db6c8eb0b47f8227ea3b04bd751b79dbc]"
      ],
      "transaction": {
        "from": "0xe62ab4d111f968660c6b2188046f9b9ba53c4bae",
        "to": "0x10a04ad4a73c8bb00ee5a29b27d11eee85390306",
        "gas": "0x4ab529",
        "value": "0x0",
        "input": "0x2f68b4890000000000000000000000000000000000000000000000000000000000000001000000000000000000000000000000000000000000000000000000000000000100000000000000000000000000000000000000000000000000000000000000800000000000000000000000000000000000000000000000000000000000000a0000000000000000000000000000000000000000000000000000000000000000190000000000000000000000000000000000000000000000000000000000000320000000000000000000000000000000000000000000000000000000000000036000000000000000000000000000000000000000000000000000000000000003a000000000000000000000000000000000000000000000000000000000000003e00000000000000000000000000000000000000000000000000000000000000420000000000000000000000000000000000000000000000000000000000000046000000000000000000000000000000000000000000000000000000000000004a000000000000000000000000000000000000000000000000000000000000004e00000000000000000000000000000000000000000000000000000000000000520000000000000000000000000000000000000000000000000000000000000056000000000000000000000000000000000000000000000000000000000000005a000000000000000000000000000000000000000000000000000000000000005e00000000000000000000000000000000000000000000000000000000000000620000000000000000000000000000000000000000000000000000000000000066000000000000000000000000000000000000000000000000000000000000006a000000000000000000000000000000000000000000000000000000000000006e00000000000000000000000000000000000000000000000000000000000000720000000000000000000000000000000000000000000000000000000000000076000000000000000000000000000000000000000000000000000000000000007a000000000000000000000000000000000000000000000000000000000000007e00000000000000000000000000000000000000000000000000000000000000820000000000000000000000000000000000000000000000000000000000000086000000000000000000000000000000000000000000000000000000000000008a000000000000000000000000000000000000000000000000000000000000008e000000000000000000000000000000000000000000000000000000000000009200000000000000000000000000000000000000000000000000000000000000008313131353531313100000000000000000000000000000000000000000000000000000000000000000000000000000000000000000000000000000000000000063432313631340000000000000000000000000000000000000000000000000000000000000000000000000000000000000000000000000000000000000000000538303030320000000000000000000000000000000000000000000000000000000000000000000000000000000000000000000000000000000000000000000005383435333200000000000000000000000000000000000000000000000000000000000000000000000000000000000000000000000000000000000000000000053539313431000000000000000000000000000000000000000000000000000000000000000000000000000000000000000000000000000000000000000000000431313135000000000000000000000000000000000000000000000000000000000000000000000000000000000000000000000000000000000000000000000005313730303000000000000000000000000000000000000000000000000000000000000000000000000000000000000000000000000000000000000000000000043238313000000000000000000000000000000000000000000000000000000000000000000000000000000000000000000000000000000000000000000000000931363835383737373300000000000000000000000000000000000000000000000000000000000000000000000000000000000000000000000000000000000006323030383130000000000000000000000000000000000000000000000000000000000000000000000000000000000000000000000000000000000000000000063533343335310000000000000000000000000000000000000000000000000000000000000000000000000000000000000000000000000000000000000000000435303033000000000000000000000000000000000000000000000000000000000000000000000000000000000000000000000000000000000000000000000004343230310000000000000000000000000000000000000000000000000000000000000000000000000000000000000000000000000000000000000000000000053830303834000000000000000000000000000000000000000000000000000000000000000000000000000000000000000000000000000000000000000000000a313935323935393438300000000000000000000000000000000000000000000000000000000000000000000000000000000000000000000000000000000000053738363030000000000000000000000000000000000000000000000000000000000000000000000000000000000000000000000000000000000000000000000a3139313839383839303500000000000000000000000000000000000000000000000000000000000000000000000000000000000000000000000000000000000432343834000000000000000000000000000000000000000000000000000000000000000000000000000000000000000000000000000000000000000000000004313934360000000000000000000000000000000000000000000000000000000000000000000000000000000000000000000000000000000000000000000000043536313100000000000000000000000000000000000000000000000000000000000000000000000000000000000000000000000000000000000000000000000536343136350000000000000000000000000000000000000000000000000000000000000000000000000000000000000000000000000000000000000000000003393937000000000000000000000000000000000000000000000000000000000000000000000000000000000000000000000000000000000000000000000000053134383533000000000000000000000000000000000000000000000000000000000000000000000000000000000000000000000000000000000000000000000333333800000000000000000000000000000000000000000000000000000000000000000000000000000000000000000000000000000000000000000000000002393700000000000000000000000000000000000000000000000000000000000000000000000000000000000000000000000000000000000000000000000000190000000000000000000000000000000000000000000000000000000000000320000000000000000000000000000000000000000000000000000000000000038000000000000000000000000000000000000000000000000000000000000003e0000000000000000000000000000000000000000000000000000000000000044000000000000000000000000000000000000000000000000000000000000004a00000000000000000000000000000000000000000000000000000000000000500000000000000000000000000000000000000000000000000000000000000056000000000000000000000000000000000000000000000000000000000000005c00000000000000000000000000000000000000000000000000000000000000620000000000000000000000000000000000000000000000000000000000000068000000000000000000000000000000000000000000000000000000000000006e0000000000000000000000000000000000000000000000000000000000000074000000000000000000000000000000000000000000000000000000000000007a00000000000000000000000000000000000000000000000000000000000000800000000000000000000000000000000000000000000000000000000000000086000000000000000000000000000000000000000000000000000000000000008c00000000000000000000000000000000000000000000000000000000000000920000000000000000000000000000000000000000000000000000000000000098000000000000000000000000000000000000000000000000000000000000009e00000000000000000000000000000000000000000000000000000000000000a400000000000000000000000000000000000000000000000000000000000000aa00000000000000000000000000000000000000000000000000000000000000b000000000000000000000000000000000000000000000000000000000000000b600000000000000000000000000000000000000000000000000000000000000bc00000000000000000000000000000000000000000000000000000000000000c20000000000000000000000000000000000000000000000000000000000000002a30783933646566323431303838353262653532623263333430383464353834333338653436616238663400000000000000000000000000000000000000000000000000000000000000000000000000000000000000000000000000000000002a30783736393133393838313032346365373330646539646539633231653361643666623561383732663200000000000000000000000000000000000000000000000000000000000000000000000000000000000000000000000000000000002a30783935616536366164373830653733656632643261383036313134353838383363393530613133353600000000000000000000000000000000000000000000000000000000000000000000000000000000000000000000000000000000002a30786639323239616365626132323866646262373537613633376565656261646234366664623631376500000000000000000000000000000000000000000000000000000000000000000000000000000000000000000000000000000000002a30786132343062303731343731326532393237656330353563656161386530333161633637316135356600000000000000000000000000000000000000000000000000000000000000000000000000000000000000000000000000000000002a30783462313765386565316363313831343633366464653961633132613432343732373939636362363400000000000000000000000000000000000000000000000000000000000000000000000000000000000000000000000000000000002a30783462313765386565316363313831343633366464653961633132613432343732373939636362363400000000000000000000000000000000000000000000000000000000000000000000000000000000000000000000000000000000002a30786132343062303731343731326532393237656330353563656161386530333161633637316135356600000000000000000000000000000000000000000000000000000000000000000000000000000000000000000000000000000000002a30786132343062303731343731326532393237656330353563656161386530333161633637316135356600000000000000000000000000000000000000000000000000000000000000000000000000000000000000000000000000000000002a30783034386135636566636466306661656237333462633461393431653064653434643863343966353500000000000000000000000000000000000000000000000000000000000000000000000000000000000000000000000000000000002a30786132343062303731343731326532393237656330353563656161386530333161633637316135356600000000000000000000000000000000000000000000000000000000000000000000000000000000000000000000000000000000002a30786132343062303731343731326532393237656330353563656161386530333161633637316135356600000000000000000000000000000000000000000000000000000000000000000000000000000000000000000000000000000000002a30783334313861343565343432323130656339353739623037346165396163623133623261363735353400000000000000000000000000000000000000000000000000000000000000000000000000000000000000000000000000000000002a30786137633537333135333935646566303566393036333130643539306634656131353330386665333000000000000000000000000000000000000000000000000000000000000000000000000000000000000000000000000000000000002a30786465336664623237386230656333323534653837303163333865353863666431313638663133613500000000000000000000000000000000000000000000000000000000000000000000000000000000000000000000000000000000002a30786333336233333137393132643137333830366437383262666164653739376632363264396134626400000000000000000000000000000000000000000000000000000000000000000000000000000000000000000000000000000000002a30783536323439663031636632623530613766323131626239646530386231343830383335663537346100000000000000000000000000000000000000000000000000000000000000000000000000000000000000000000000000000000002a30786132343062303731343731326532393237656330353563656161386530333161633637316135356600000000000000000000000000000000000000000000000000000000000000000000000000000000000000000000000000000000002a30786132343062303731343731326532393237656330353563656161386530333161633637316135356600000000000000000000000000000000000000000000000000000000000000000000000000000000000000000000000000000000002a30786132343062303731343731326532393237656330353563656161386530333161633637316135356600000000000000000000000000000000000000000000000000000000000000000000000000000000000000000000000000000000002a30783462313765386565316363313831343633366464653961633132613432343732373939636362363400000000000000000000000000000000000000000000000000000000000000000000000000000000000000000000000000000000002a30783462313765386565316363313831343633366464653961633132613432343732373939636362363400000000000000000000000000000000000000000000000000000000000000000000000000000000000000000000000000000000002a30786132343062303731343731326532393237656330353563656161386530333161633637316135356600000000000000000000000000000000000000000000000000000000000000000000000000000000000000000000000000000000002a30786238623939313031633164626661643661613431383232303539323737336265303832646238303400000000000000000000000000000000000000000000000000000000000000000000000000000000000000000000000000000000002a30783630613562303564623663386562306234376638323237656133623034626437353162373964626300000000000000000000000000000000000000000000",
        "nonce": "0x227",
        "chainId": "0xaa36a7"
      },
      "additionalContracts": [],
      "isFixedGasLimit": false
    }
  ],
  "receipts": [
    {
      "status": "0x1",
      "cumulativeGasUsed": "0xa78f85",
      "logs": [],
      "logsBloom": "0x00000000000000000000000000000000000000000000000000000000000000000000000000000000000000000000000000000000000000000000000000000000000000000000000000000000000000000000000000000000000000000000000000000000000000000000000000000000000000000000000000000000000000000000000000000000000000000000000000000000000000000000000000000000000000000000000000000000000000000000000000000000000000000000000000000000000000000000000000000000000000000000000000000000000000000000000000000000000000000000000000000000000000000000000000000000",
      "type": "0x2",
      "transactionHash": "0x35a16ee676a60b233e52c039dbd236daa1c044d3157474b857adb516dbbe5a31",
      "transactionIndex": "0x56",
      "blockHash": "0xde15f57164e3482cea433b660a644db0bd02c962c03355dff11d5b1b87b1d2c1",
      "blockNumber": "0x6f9585",
      "gasUsed": "0x5eb3",
      "effectiveGasPrice": "0xbd07894a5",
      "from": "0xe62ab4d111f968660c6b2188046f9b9ba53c4bae",
      "to": "0x926df1f820af8e3cf53a58c94332eb16ba4cb4b5",
      "contractAddress": null
    },
    {
      "status": "0x1",
      "cumulativeGasUsed": "0x1816b11",
      "logs": [
        {
          "address": "0x926df1f820af8e3cf53a58c94332eb16ba4cb4b5",
          "topics": [
            "0x1394cfab38f3fc78ed77ea6f9318782a446d96e7dc8e9a6b0149f6be25c08bcf",
            "0x000000000000000000000000a4c104db0937f1e886d5c9c9789d6f0e5bfba75c"
          ],
          "data": "0x",
          "blockHash": "0xedf284a70507920276513ba4dfbaf1bddc91757e072ffb8f983616d0f86b1c74",
          "blockNumber": "0x6f9586",
          "transactionHash": "0x71e42d90826d8a24ddc091ba57584a1f4b31e99320f2dedd664daf9677f64111",
          "transactionIndex": "0x83",
          "logIndex": "0x15a",
          "removed": false
        }
      ],
      "logsBloom": "0x00000000000002000040000000000000000000000000000200000000000000000000000000000000000000000000000000000000000000000000000000000000000000000001000000000000000000000000001000000000000000000000000000000000000000000000000000000000000000000000000000000000000000000000000100000000000000000000000000000000000000000000000000000000000000000000000000000000000000000000004100000000000000000000000000000000000000000000000000000000000000000000000000000000000000000000000000000000000002000000000000000000000000000000000000000000",
      "type": "0x2",
      "transactionHash": "0x71e42d90826d8a24ddc091ba57584a1f4b31e99320f2dedd664daf9677f64111",
      "transactionIndex": "0x83",
      "blockHash": "0xedf284a70507920276513ba4dfbaf1bddc91757e072ffb8f983616d0f86b1c74",
      "blockNumber": "0x6f9586",
      "gasUsed": "0x1be72",
      "effectiveGasPrice": "0xb5b25b8a7",
      "from": "0xe62ab4d111f968660c6b2188046f9b9ba53c4bae",
      "to": "0x926df1f820af8e3cf53a58c94332eb16ba4cb4b5",
      "contractAddress": null
    },
    {
      "status": "0x1",
      "cumulativeGasUsed": "0xc079b6",
      "logs": [],
      "logsBloom": "0x00000000000000000000000000000000000000000000000000000000000000000000000000000000000000000000000000000000000000000000000000000000000000000000000000000000000000000000000000000000000000000000000000000000000000000000000000000000000000000000000000000000000000000000000000000000000000000000000000000000000000000000000000000000000000000000000000000000000000000000000000000000000000000000000000000000000000000000000000000000000000000000000000000000000000000000000000000000000000000000000000000000000000000000000000000000",
      "type": "0x2",
      "transactionHash": "0xb4b4b6315e245f55fe19525a3ffda8346fecdb4e7231f02bcb5d797472555ea5",
      "transactionIndex": "0x5f",
      "blockHash": "0x91659cf76ae02c0b9c5d99213c1abf91dac534e6411010adc88d1a36d63e3863",
      "blockNumber": "0x6f9587",
      "gasUsed": "0xbbf9",
      "effectiveGasPrice": "0xc04e4c2cc",
      "from": "0xe62ab4d111f968660c6b2188046f9b9ba53c4bae",
      "to": "0x926df1f820af8e3cf53a58c94332eb16ba4cb4b5",
      "contractAddress": null
    },
    {
      "status": "0x1",
      "cumulativeGasUsed": "0xa78a1d",
      "logs": [],
      "logsBloom": "0x00000000000000000000000000000000000000000000000000000000000000000000000000000000000000000000000000000000000000000000000000000000000000000000000000000000000000000000000000000000000000000000000000000000000000000000000000000000000000000000000000000000000000000000000000000000000000000000000000000000000000000000000000000000000000000000000000000000000000000000000000000000000000000000000000000000000000000000000000000000000000000000000000000000000000000000000000000000000000000000000000000000000000000000000000000000",
      "type": "0x2",
      "transactionHash": "0x03a1af379f8d674fc595251203d70b8842c41b4c74ddecefabb5aea7181dd897",
      "transactionIndex": "0x60",
      "blockHash": "0x1cef143ba73ed4e74ad7d7100f764067504a6bb520aeea907af5db14ce350c5a",
      "blockNumber": "0x6f9588",
      "gasUsed": "0xbc22",
      "effectiveGasPrice": "0xbc77c0fd7",
      "from": "0xe62ab4d111f968660c6b2188046f9b9ba53c4bae",
      "to": "0x926df1f820af8e3cf53a58c94332eb16ba4cb4b5",
      "contractAddress": null
    },
    {
      "status": "0x1",
      "cumulativeGasUsed": "0xb371b3",
      "logs": [],
      "logsBloom": "0x00000000000000000000000000000000000000000000000000000000000000000000000000000000000000000000000000000000000000000000000000000000000000000000000000000000000000000000000000000000000000000000000000000000000000000000000000000000000000000000000000000000000000000000000000000000000000000000000000000000000000000000000000000000000000000000000000000000000000000000000000000000000000000000000000000000000000000000000000000000000000000000000000000000000000000000000000000000000000000000000000000000000000000000000000000000",
      "type": "0x2",
      "transactionHash": "0xce4141942520ac8cc3123bff5f817f869a714e883aec8e2ebd54fe2bd610ff9c",
      "transactionIndex": "0x6c",
      "blockHash": "0xe6ed16c0b353324921fcbd1b55639eef1fe4bc343b73b05b931b0be7c6759c07",
      "blockNumber": "0x6f9589",
      "gasUsed": "0xbc39",
      "effectiveGasPrice": "0xb59fedf97",
      "from": "0xe62ab4d111f968660c6b2188046f9b9ba53c4bae",
      "to": "0x926df1f820af8e3cf53a58c94332eb16ba4cb4b5",
      "contractAddress": null
    },
    {
      "status": "0x1",
      "cumulativeGasUsed": "0xbb8fca",
      "logs": [],
      "logsBloom": "0x00000000000000000000000000000000000000000000000000000000000000000000000000000000000000000000000000000000000000000000000000000000000000000000000000000000000000000000000000000000000000000000000000000000000000000000000000000000000000000000000000000000000000000000000000000000000000000000000000000000000000000000000000000000000000000000000000000000000000000000000000000000000000000000000000000000000000000000000000000000000000000000000000000000000000000000000000000000000000000000000000000000000000000000000000000000",
      "type": "0x2",
      "transactionHash": "0x9aa59209253c3c42f94cb50652f31267ca0ad68300df0eb213fa57f28a9c2a4d",
      "transactionIndex": "0x75",
      "blockHash": "0x3c74301a4ce5e5ddd20f97ade3b21b387a6502251e244bdd75030b9875867c42",
      "blockNumber": "0x6f958a",
      "gasUsed": "0xbc50",
      "effectiveGasPrice": "0xaee4b389d",
      "from": "0xe62ab4d111f968660c6b2188046f9b9ba53c4bae",
      "to": "0x926df1f820af8e3cf53a58c94332eb16ba4cb4b5",
      "contractAddress": null
    },
    {
      "status": "0x1",
      "cumulativeGasUsed": "0xc6f256",
      "logs": [],
      "logsBloom": "0x00000000000000000000000000000000000000000000000000000000000000000000000000000000000000000000000000000000000000000000000000000000000000000000000000000000000000000000000000000000000000000000000000000000000000000000000000000000000000000000000000000000000000000000000000000000000000000000000000000000000000000000000000000000000000000000000000000000000000000000000000000000000000000000000000000000000000000000000000000000000000000000000000000000000000000000000000000000000000000000000000000000000000000000000000000000",
      "type": "0x2",
      "transactionHash": "0xe3c9e8d1c79f3de7f39702549d07eec68019f0f5ccf5dd4f378561dfd17c75f3",
      "transactionIndex": "0x6d",
      "blockHash": "0xf2b93e4fe87b7866ea1238263deb7e6c29a3048c609dd77bd7f89af819a6c505",
      "blockNumber": "0x6f958b",
      "gasUsed": "0xbc67",
      "effectiveGasPrice": "0xace4248d5",
      "from": "0xe62ab4d111f968660c6b2188046f9b9ba53c4bae",
      "to": "0x926df1f820af8e3cf53a58c94332eb16ba4cb4b5",
      "contractAddress": null
    },
    {
      "status": "0x1",
      "cumulativeGasUsed": "0xaee5cc",
      "logs": [],
      "logsBloom": "0x00000000000000000000000000000000000000000000000000000000000000000000000000000000000000000000000000000000000000000000000000000000000000000000000000000000000000000000000000000000000000000000000000000000000000000000000000000000000000000000000000000000000000000000000000000000000000000000000000000000000000000000000000000000000000000000000000000000000000000000000000000000000000000000000000000000000000000000000000000000000000000000000000000000000000000000000000000000000000000000000000000000000000000000000000000000",
      "type": "0x2",
      "transactionHash": "0x0ac445662632f4eb9a384e7bf9ffd5ffaeed15e67e28c7ac798fb81c853eed7f",
      "transactionIndex": "0x69",
      "blockHash": "0x28cf99bc342ab046119bc37b78200fa3df0434bdc9617f3e9d949689430af753",
      "blockNumber": "0x6f958c",
      "gasUsed": "0xbc7e",
      "effectiveGasPrice": "0xac026bc0b",
      "from": "0xe62ab4d111f968660c6b2188046f9b9ba53c4bae",
      "to": "0x926df1f820af8e3cf53a58c94332eb16ba4cb4b5",
      "contractAddress": null
    },
    {
      "status": "0x1",
      "cumulativeGasUsed": "0xb2e1fd",
      "logs": [],
      "logsBloom": "0x00000000000000000000000000000000000000000000000000000000000000000000000000000000000000000000000000000000000000000000000000000000000000000000000000000000000000000000000000000000000000000000000000000000000000000000000000000000000000000000000000000000000000000000000000000000000000000000000000000000000000000000000000000000000000000000000000000000000000000000000000000000000000000000000000000000000000000000000000000000000000000000000000000000000000000000000000000000000000000000000000000000000000000000000000000000",
      "type": "0x2",
      "transactionHash": "0x89440244d06b6397bfd7cbfc559d8cfe1066a3a373a2778b5d9e6c6cf32345f1",
      "transactionIndex": "0x68",
      "blockHash": "0xe6256ce4364d1dc39d68e7cafa61be6ef8c35e8117a539c5bc8d7ecc7870fc97",
      "blockNumber": "0x6f958d",
      "gasUsed": "0xbc95",
      "effectiveGasPrice": "0xa6f11da3b",
      "from": "0xe62ab4d111f968660c6b2188046f9b9ba53c4bae",
      "to": "0x926df1f820af8e3cf53a58c94332eb16ba4cb4b5",
      "contractAddress": null
    },
    {
      "status": "0x1",
      "cumulativeGasUsed": "0xaf8524",
      "logs": [],
      "logsBloom": "0x00000000000000000000000000000000000000000000000000000000000000000000000000000000000000000000000000000000000000000000000000000000000000000000000000000000000000000000000000000000000000000000000000000000000000000000000000000000000000000000000000000000000000000000000000000000000000000000000000000000000000000000000000000000000000000000000000000000000000000000000000000000000000000000000000000000000000000000000000000000000000000000000000000000000000000000000000000000000000000000000000000000000000000000000000000000",
      "type": "0x2",
      "transactionHash": "0x9f6ae60ba6678325dcf09a32ef1e35fd8eec69da525099b96e9d9e67eb5004f2",
      "transactionIndex": "0x63",
      "blockHash": "0x459816c1f6324a8e1416957bbe1461ae53cd91e6fb8eb83f18be72e0743e990a",
      "blockNumber": "0x6f958e",
      "gasUsed": "0xbcac",
      "effectiveGasPrice": "0xa3c149c09",
      "from": "0xe62ab4d111f968660c6b2188046f9b9ba53c4bae",
      "to": "0x926df1f820af8e3cf53a58c94332eb16ba4cb4b5",
      "contractAddress": null
    },
    {
      "status": "0x1",
      "cumulativeGasUsed": "0xc64d15",
      "logs": [],
      "logsBloom": "0x00000000000000000000000000000000000000000000000000000000000000000000000000000000000000000000000000000000000000000000000000000000000000000000000000000000000000000000000000000000000000000000000000000000000000000000000000000000000000000000000000000000000000000000000000000000000000000000000000000000000000000000000000000000000000000000000000000000000000000000000000000000000000000000000000000000000000000000000000000000000000000000000000000000000000000000000000000000000000000000000000000000000000000000000000000000",
      "type": "0x2",
      "transactionHash": "0xa2eab9dc6dbcc3d6e8200107437db2a30d1ffd71b49cbca1e990910898723738",
      "transactionIndex": "0x7e",
      "blockHash": "0x7597c1e0c3cc316dff655b9195563a2f7b9dc77d1442e9990c134dab60689006",
      "blockNumber": "0x6f958f",
      "gasUsed": "0xbcc3",
      "effectiveGasPrice": "0x9dc08f76e",
      "from": "0xe62ab4d111f968660c6b2188046f9b9ba53c4bae",
      "to": "0x926df1f820af8e3cf53a58c94332eb16ba4cb4b5",
      "contractAddress": null
    },
    {
      "status": "0x1",
      "cumulativeGasUsed": "0x1564639",
      "logs": [],
      "logsBloom": "0x00000000000000000000000000000000000000000000000000000000000000000000000000000000000000000000000000000000000000000000000000000000000000000000000000000000000000000000000000000000000000000000000000000000000000000000000000000000000000000000000000000000000000000000000000000000000000000000000000000000000000000000000000000000000000000000000000000000000000000000000000000000000000000000000000000000000000000000000000000000000000000000000000000000000000000000000000000000000000000000000000000000000000000000000000000000",
      "type": "0x2",
      "transactionHash": "0x075eb4f367e153f52167fa8d8f2db767e7036c6c9ca6e0c7a64f7471ad327da6",
      "transactionIndex": "0xd4",
      "blockHash": "0x78b27144ea03c015950420e4da01864953bd8277145ab34c5efcad865882846f",
      "blockNumber": "0x6f9590",
      "gasUsed": "0xbcda",
      "effectiveGasPrice": "0x9bc5489db",
      "from": "0xe62ab4d111f968660c6b2188046f9b9ba53c4bae",
      "to": "0x926df1f820af8e3cf53a58c94332eb16ba4cb4b5",
      "contractAddress": null
    },
    {
      "status": "0x1",
      "cumulativeGasUsed": "0x9e6595",
      "logs": [],
      "logsBloom": "0x00000000000000000000000000000000000000000000000000000000000000000000000000000000000000000000000000000000000000000000000000000000000000000000000000000000000000000000000000000000000000000000000000000000000000000000000000000000000000000000000000000000000000000000000000000000000000000000000000000000000000000000000000000000000000000000000000000000000000000000000000000000000000000000000000000000000000000000000000000000000000000000000000000000000000000000000000000000000000000000000000000000000000000000000000000000",
      "type": "0x2",
      "transactionHash": "0x859d2739f8be93bb0790b83783083b21f11b03a46542e9720da60781c0cef051",
      "transactionIndex": "0x65",
      "blockHash": "0x66a237a1d0a354cc3adaddc54f5ab42f137ce51ed7eb81128cc65e67647e56a6",
      "blockNumber": "0x6f9591",
      "gasUsed": "0xbcf1",
      "effectiveGasPrice": "0xa525bee9b",
      "from": "0xe62ab4d111f968660c6b2188046f9b9ba53c4bae",
      "to": "0x926df1f820af8e3cf53a58c94332eb16ba4cb4b5",
      "contractAddress": null
    },
    {
      "status": "0x1",
      "cumulativeGasUsed": "0x11c6f8b",
      "logs": [],
      "logsBloom": "0x00000000000000000000000000000000000000000000000000000000000000000000000000000000000000000000000000000000000000000000000000000000000000000000000000000000000000000000000000000000000000000000000000000000000000000000000000000000000000000000000000000000000000000000000000000000000000000000000000000000000000000000000000000000000000000000000000000000000000000000000000000000000000000000000000000000000000000000000000000000000000000000000000000000000000000000000000000000000000000000000000000000000000000000000000000000",
      "type": "0x2",
      "transactionHash": "0xcd206d89840a229543a29749a083e4d46a82299646f8aeac1cc7340c163a4e2d",
      "transactionIndex": "0x7e",
      "blockHash": "0x9ed38d6be0f79d51a3c27d152cb300bd7c4aff8475c8ed0ca4950f5cfec9e18c",
      "blockNumber": "0x6f9592",
      "gasUsed": "0xbd08",
      "effectiveGasPrice": "0x9cb49408e",
      "from": "0xe62ab4d111f968660c6b2188046f9b9ba53c4bae",
      "to": "0x926df1f820af8e3cf53a58c94332eb16ba4cb4b5",
      "contractAddress": null
    },
    {
      "status": "0x1",
      "cumulativeGasUsed": "0x157e77f",
      "logs": [],
      "logsBloom": "0x00000000000000000000000000000000000000000000000000000000000000000000000000000000000000000000000000000000000000000000000000000000000000000000000000000000000000000000000000000000000000000000000000000000000000000000000000000000000000000000000000000000000000000000000000000000000000000000000000000000000000000000000000000000000000000000000000000000000000000000000000000000000000000000000000000000000000000000000000000000000000000000000000000000000000000000000000000000000000000000000000000000000000000000000000000000",
      "type": "0x2",
      "transactionHash": "0x39a1c2b5587125aa6455595dc8cc1e88064c6df72212b0f218305c8e00b86c96",
      "transactionIndex": "0xb2",
      "blockHash": "0x5cb4eafc21c716afbc4ed4bb4001dbd6d253ad9f909c1d16a5a77a5c9fabe5cf",
      "blockNumber": "0x6f9593",
      "gasUsed": "0xbd1f",
      "effectiveGasPrice": "0x9f8dd1f8c",
      "from": "0xe62ab4d111f968660c6b2188046f9b9ba53c4bae",
      "to": "0x926df1f820af8e3cf53a58c94332eb16ba4cb4b5",
      "contractAddress": null
    },
    {
      "status": "0x1",
      "cumulativeGasUsed": "0xd1b87d",
      "logs": [],
      "logsBloom": "0x00000000000000000000000000000000000000000000000000000000000000000000000000000000000000000000000000000000000000000000000000000000000000000000000000000000000000000000000000000000000000000000000000000000000000000000000000000000000000000000000000000000000000000000000000000000000000000000000000000000000000000000000000000000000000000000000000000000000000000000000000000000000000000000000000000000000000000000000000000000000000000000000000000000000000000000000000000000000000000000000000000000000000000000000000000000",
      "type": "0x2",
      "transactionHash": "0xe863449948d3599694ce1d1a104da3507b9b3314e8d021b20872de0dd219c53d",
      "transactionIndex": "0x63",
      "blockHash": "0x75d91584e8dffcb42fb4a206c8293b387ab1807433d35724e50a025aa0749a1f",
      "blockNumber": "0x6f9594",
      "gasUsed": "0xbd36",
      "effectiveGasPrice": "0xa7d4eea32",
      "from": "0xe62ab4d111f968660c6b2188046f9b9ba53c4bae",
      "to": "0x926df1f820af8e3cf53a58c94332eb16ba4cb4b5",
      "contractAddress": null
    },
    {
      "status": "0x1",
      "cumulativeGasUsed": "0x1361ded",
      "logs": [],
      "logsBloom": "0x00000000000000000000000000000000000000000000000000000000000000000000000000000000000000000000000000000000000000000000000000000000000000000000000000000000000000000000000000000000000000000000000000000000000000000000000000000000000000000000000000000000000000000000000000000000000000000000000000000000000000000000000000000000000000000000000000000000000000000000000000000000000000000000000000000000000000000000000000000000000000000000000000000000000000000000000000000000000000000000000000000000000000000000000000000000",
      "type": "0x2",
      "transactionHash": "0x61ed37b24c4d7678a09691230e721bd873cf3533822b1e18683add1ea14d721a",
      "transactionIndex": "0x82",
      "blockHash": "0x7445e7c6afad3c7d4fb51718a9c18c23587f8a9676a9c556d74cd3b4d0e9a991",
      "blockNumber": "0x6f9595",
      "gasUsed": "0xbd4d",
      "effectiveGasPrice": "0xa526df81e",
      "from": "0xe62ab4d111f968660c6b2188046f9b9ba53c4bae",
      "to": "0x926df1f820af8e3cf53a58c94332eb16ba4cb4b5",
      "contractAddress": null
    },
    {
      "status": "0x1",
      "cumulativeGasUsed": "0xba1539",
      "logs": [],
      "logsBloom": "0x00000000000000000000000000000000000000000000000000000000000000000000000000000000000000000000000000000000000000000000000000000000000000000000000000000000000000000000000000000000000000000000000000000000000000000000000000000000000000000000000000000000000000000000000000000000000000000000000000000000000000000000000000000000000000000000000000000000000000000000000000000000000000000000000000000000000000000000000000000000000000000000000000000000000000000000000000000000000000000000000000000000000000000000000000000000",
      "type": "0x2",
      "transactionHash": "0x0561945567319560743416ea9b4bfaec831a1d5cf9eaa21a0eb8a2bada9a6e30",
      "transactionIndex": "0x5b",
      "blockHash": "0x1867bb2fac66f64809d39d2c1af6f7066a6c2a9956bddfe9ae0620219e04bff1",
      "blockNumber": "0x6f9596",
      "gasUsed": "0xbd64",
      "effectiveGasPrice": "0xa916f458f",
      "from": "0xe62ab4d111f968660c6b2188046f9b9ba53c4bae",
      "to": "0x926df1f820af8e3cf53a58c94332eb16ba4cb4b5",
      "contractAddress": null
    },
    {
      "status": "0x1",
      "cumulativeGasUsed": "0xc6138e",
      "logs": [],
      "logsBloom": "0x00000000000000000000000000000000000000000000000000000000000000000000000000000000000000000000000000000000000000000000000000000000000000000000000000000000000000000000000000000000000000000000000000000000000000000000000000000000000000000000000000000000000000000000000000000000000000000000000000000000000000000000000000000000000000000000000000000000000000000000000000000000000000000000000000000000000000000000000000000000000000000000000000000000000000000000000000000000000000000000000000000000000000000000000000000000",
      "type": "0x2",
      "transactionHash": "0xd28f504397fbe6f88b8cd6e7b7072ab547866bc4c493742760fd9793736dc1b7",
      "transactionIndex": "0x65",
      "blockHash": "0xfbb20e3a069cbb7d040d3bd5e924424bcc47d5ea43ace0b381597f04ceff2a78",
      "blockNumber": "0x6f9597",
      "gasUsed": "0xbd7b",
      "effectiveGasPrice": "0xa65fa54e3",
      "from": "0xe62ab4d111f968660c6b2188046f9b9ba53c4bae",
      "to": "0x926df1f820af8e3cf53a58c94332eb16ba4cb4b5",
      "contractAddress": null
    },
    {
      "status": "0x1",
      "cumulativeGasUsed": "0x12b2f36",
      "logs": [],
      "logsBloom": "0x00000000000000000000000000000000000000000000000000000000000000000000000000000000000000000000000000000000000000000000000000000000000000000000000000000000000000000000000000000000000000000000000000000000000000000000000000000000000000000000000000000000000000000000000000000000000000000000000000000000000000000000000000000000000000000000000000000000000000000000000000000000000000000000000000000000000000000000000000000000000000000000000000000000000000000000000000000000000000000000000000000000000000000000000000000000",
      "type": "0x2",
      "transactionHash": "0x3cf2d37ecc91967ddafd12b5a1464f51073b4e0719d85bf7e1b1651b3842412b",
      "transactionIndex": "0x7e",
      "blockHash": "0xadfba04f46e80075e5aa1193a09cf8e79c4a6c6eea798e7370ea2b707c02aa5c",
      "blockNumber": "0x6f9598",
      "gasUsed": "0xbd92",
      "effectiveGasPrice": "0xa26006f57",
      "from": "0xe62ab4d111f968660c6b2188046f9b9ba53c4bae",
      "to": "0x926df1f820af8e3cf53a58c94332eb16ba4cb4b5",
      "contractAddress": null
    },
    {
      "status": "0x1",
      "cumulativeGasUsed": "0xde3216",
      "logs": [],
      "logsBloom": "0x00000000000000000000000000000000000000000000000000000000000000000000000000000000000000000000000000000000000000000000000000000000000000000000000000000000000000000000000000000000000000000000000000000000000000000000000000000000000000000000000000000000000000000000000000000000000000000000000000000000000000000000000000000000000000000000000000000000000000000000000000000000000000000000000000000000000000000000000000000000000000000000000000000000000000000000000000000000000000000000000000000000000000000000000000000000",
      "type": "0x2",
      "transactionHash": "0xf5b8df9c1ad70e29c0481d1fece49c5d33fab30c90b442735495168ad53d3c2f",
      "transactionIndex": "0x65",
      "blockHash": "0xe421132cd5564973c244690617cdc70b9dbb47ec32a5ba5f87dea19b30dc7e0f",
      "blockNumber": "0x6f9599",
      "gasUsed": "0xbda9",
      "effectiveGasPrice": "0xa4b0f7822",
      "from": "0xe62ab4d111f968660c6b2188046f9b9ba53c4bae",
      "to": "0x926df1f820af8e3cf53a58c94332eb16ba4cb4b5",
      "contractAddress": null
    },
    {
      "status": "0x1",
      "cumulativeGasUsed": "0xeea8a3",
      "logs": [],
      "logsBloom": "0x00000000000000000000000000000000000000000000000000000000000000000000000000000000000000000000000000000000000000000000000000000000000000000000000000000000000000000000000000000000000000000000000000000000000000000000000000000000000000000000000000000000000000000000000000000000000000000000000000000000000000000000000000000000000000000000000000000000000000000000000000000000000000000000000000000000000000000000000000000000000000000000000000000000000000000000000000000000000000000000000000000000000000000000000000000000",
      "type": "0x2",
      "transactionHash": "0xca130a81672af1da4b846b242f73e706d0bd066c1d64cc4a61fb56d480b78977",
      "transactionIndex": "0x6c",
      "blockHash": "0x6c55597a98688a34139c5b2b0d7cec3eee160755c2f2d1673c806b3c2c39da99",
      "blockNumber": "0x6f959a",
      "gasUsed": "0xbdc0",
      "effectiveGasPrice": "0xa307b96b1",
      "from": "0xe62ab4d111f968660c6b2188046f9b9ba53c4bae",
      "to": "0x926df1f820af8e3cf53a58c94332eb16ba4cb4b5",
      "contractAddress": null
    },
    {
      "status": "0x1",
      "cumulativeGasUsed": "0x1090d4b",
      "logs": [],
      "logsBloom": "0x00000000000000000000000000000000000000000000000000000000000000000000000000000000000000000000000000000000000000000000000000000000000000000000000000000000000000000000000000000000000000000000000000000000000000000000000000000000000000000000000000000000000000000000000000000000000000000000000000000000000000000000000000000000000000000000000000000000000000000000000000000000000000000000000000000000000000000000000000000000000000000000000000000000000000000000000000000000000000000000000000000000000000000000000000000000",
      "type": "0x2",
      "transactionHash": "0x3dfad9a671987be3752fcfe0b37fc8194eda1d8fe2e374d76e53e606c6132d6c",
      "transactionIndex": "0x47",
      "blockHash": "0xec3a776aa7c8a1aa629c3ebeb615d890d5c8c9bd3f58a2817e2786a15396833c",
      "blockNumber": "0x6f959b",
      "gasUsed": "0xbdd2",
      "effectiveGasPrice": "0xa1417a24d",
      "from": "0xe62ab4d111f968660c6b2188046f9b9ba53c4bae",
      "to": "0x926df1f820af8e3cf53a58c94332eb16ba4cb4b5",
      "contractAddress": null
    },
    {
      "status": "0x1",
      "cumulativeGasUsed": "0x136e3b6",
      "logs": [],
      "logsBloom": "0x00000000000000000000000000000000000000000000000000000000000000000000000000000000000000000000000000000000000000000000000000000000000000000000000000000000000000000000000000000000000000000000000000000000000000000000000000000000000000000000000000000000000000000000000000000000000000000000000000000000000000000000000000000000000000000000000000000000000000000000000000000000000000000000000000000000000000000000000000000000000000000000000000000000000000000000000000000000000000000000000000000000000000000000000000000000",
      "type": "0x2",
      "transactionHash": "0xcb9ca0c76f7b1a9e81fd95e13ce18f732cbcbd16f02aea75606d192c603047b1",
      "transactionIndex": "0x71",
      "blockHash": "0xec2f2b27463e05ef304d56c548b51175d0f10b096663637af931f68ea200dcbc",
      "blockNumber": "0x6f959c",
      "gasUsed": "0x223f5",
      "effectiveGasPrice": "0xa3c815542",
      "from": "0xe62ab4d111f968660c6b2188046f9b9ba53c4bae",
      "to": "0x926df1f820af8e3cf53a58c94332eb16ba4cb4b5",
      "contractAddress": null
    },
    {
      "status": "0x1",
      "cumulativeGasUsed": "0x12d9c86",
      "logs": [],
      "logsBloom": "0x00000000000000000000000000000000000000000000000000000000000000000000000000000000000000000000000000000000000000000000000000000000000000000000000000000000000000000000000000000000000000000000000000000000000000000000000000000000000000000000000000000000000000000000000000000000000000000000000000000000000000000000000000000000000000000000000000000000000000000000000000000000000000000000000000000000000000000000000000000000000000000000000000000000000000000000000000000000000000000000000000000000000000000000000000000000",
      "type": "0x2",
      "transactionHash": "0x8067b6d13c334d1b043fa01667e8add6fb0cc31bcdce62722199528f9ab43990",
      "transactionIndex": "0x6c",
      "blockHash": "0x85e7c7a870cb0ffab9e68655714fa76740142effef15899f20d13cd0da6e4035",
      "blockNumber": "0x6f959d",
      "gasUsed": "0x1e775",
      "effectiveGasPrice": "0xa804eebe1",
      "from": "0xe62ab4d111f968660c6b2188046f9b9ba53c4bae",
      "to": "0x926df1f820af8e3cf53a58c94332eb16ba4cb4b5",
      "contractAddress": null
    },
    {
      "status": "0x1",
      "cumulativeGasUsed": "0x10f3b77",
      "logs": [],
      "logsBloom": "0x00000000000000000000000000000000000000000000000000000000000000000000000000000000000000000000000000000000000000000000000000000000000000000000000000000000000000000000000000000000000000000000000000000000000000000000000000000000000000000000000000000000000000000000000000000000000000000000000000000000000000000000000000000000000000000000000000000000000000000000000000000000000000000000000000000000000000000000000000000000000000000000000000000000000000000000000000000000000000000000000000000000000000000000000000000000",
      "type": "0x2",
      "transactionHash": "0xe61af2c3e87dd88dd021c1983a1c08ac4eef93dadb4ef478e20e381b29b59e01",
      "transactionIndex": "0x72",
      "blockHash": "0x704a582a5ff5e7b45726fade57eb8712a861728293b5f754081971e163e4169c",
      "blockNumber": "0x6f959e",
      "gasUsed": "0x1e775",
      "effectiveGasPrice": "0xac458d442",
      "from": "0xe62ab4d111f968660c6b2188046f9b9ba53c4bae",
      "to": "0x926df1f820af8e3cf53a58c94332eb16ba4cb4b5",
      "contractAddress": null
    },
    {
      "status": "0x1",
      "cumulativeGasUsed": "0xc98e8b",
      "logs": [],
      "logsBloom": "0x00000000000000000000000000000000000000000000000000000000000000000000000000000000000000000000000000000000000000000000000000000000000000000000000000000000000000000000000000000000000000000000000000000000000000000000000000000000000000000000000000000000000000000000000000000000000000000000000000000000000000000000000000000000000000000000000000000000000000000000000000000000000000000000000000000000000000000000000000000000000000000000000000000000000000000000000000000000000000000000000000000000000000000000000000000000",
      "type": "0x2",
      "transactionHash": "0x0057ccb6639635d6db7eb3e5d8239e5e7f57ca2e39ed9fecd99de57297583912",
      "transactionIndex": "0x63",
      "blockHash": "0x65001c1442e4a8c9bb63bb663194e200a644347177e23d076d38489c1c68a279",
      "blockNumber": "0x6f959f",
      "gasUsed": "0x1e775",
      "effectiveGasPrice": "0xacc85f146",
      "from": "0xe62ab4d111f968660c6b2188046f9b9ba53c4bae",
      "to": "0x926df1f820af8e3cf53a58c94332eb16ba4cb4b5",
      "contractAddress": null
    },
    {
      "status": "0x1",
      "cumulativeGasUsed": "0xc3d63f",
      "logs": [],
      "logsBloom": "0x00000000000000000000000000000000000000000000000000000000000000000000000000000000000000000000000000000000000000000000000000000000000000000000000000000000000000000000000000000000000000000000000000000000000000000000000000000000000000000000000000000000000000000000000000000000000000000000000000000000000000000000000000000000000000000000000000000000000000000000000000000000000000000000000000000000000000000000000000000000000000000000000000000000000000000000000000000000000000000000000000000000000000000000000000000000",
      "type": "0x2",
      "transactionHash": "0x2e628f59a938cae906c3ee776301f4e5b3e4d6c957dce7726e6c333637962c79",
      "transactionIndex": "0x70",
      "blockHash": "0xe6aaee4c24406f17ccd2c196fa003b6368ed92ad59b409e03f7ed3b9a66d2ec0",
      "blockNumber": "0x6f95a1",
      "gasUsed": "0x1e5f1",
      "effectiveGasPrice": "0x9fa0365af",
      "from": "0xe62ab4d111f968660c6b2188046f9b9ba53c4bae",
      "to": "0x926df1f820af8e3cf53a58c94332eb16ba4cb4b5",
      "contractAddress": null
    },
    {
      "status": "0x1",
      "cumulativeGasUsed": "0xc29d71",
      "logs": [],
      "logsBloom": "0x00000000000000000000000000000000000000000000000000000000000000000000000000000000000000000000000000000000000000000000000000000000000000000000000000000000000000000000000000000000000000000000000000000000000000000000000000000000000000000000000000000000000000000000000000000000000000000000000000000000000000000000000000000000000000000000000000000000000000000000000000000000000000000000000000000000000000000000000000000000000000000000000000000000000000000000000000000000000000000000000000000000000000000000000000000000",
      "type": "0x2",
      "transactionHash": "0xf574eb9fb8020ccead7891a26c66475cb9eca634a7cb8e94e7fea64b1e0f6e52",
      "transactionIndex": "0x5e",
      "blockHash": "0x07e86d03635dbe2bb413d431925a98a2fe95ddcd52b78443a2bbb70d7721806c",
      "blockNumber": "0x6f95a2",
      "gasUsed": "0x1e775",
      "effectiveGasPrice": "0x9ecfcf1df",
      "from": "0xe62ab4d111f968660c6b2188046f9b9ba53c4bae",
      "to": "0x926df1f820af8e3cf53a58c94332eb16ba4cb4b5",
      "contractAddress": null
    },
    {
      "status": "0x1",
      "cumulativeGasUsed": "0xbe93ef",
      "logs": [],
      "logsBloom": "0x00000000000000000000000000000000000000000000000000000000000000000000000000000000000000000000000000000000000000000000000000000000000000000000000000000000000000000000000000000000000000000000000000000000000000000000000000000000000000000000000000000000000000000000000000000000000000000000000000000000000000000000000000000000000000000000000000000000000000000000000000000000000000000000000000000000000000000000000000000000000000000000000000000000000000000000000000000000000000000000000000000000000000000000000000000000",
      "type": "0x2",
      "transactionHash": "0x4c0e8723ecc134d037ec45435104c5d814a994a26c7a41661171f13785f52902",
      "transactionIndex": "0x73",
      "blockHash": "0xc9998ca9f0d1395a5371cf8f5f94a9b836a692e7a414058adab0c5182e199ea5",
      "blockNumber": "0x6f95a3",
      "gasUsed": "0x1e5f1",
      "effectiveGasPrice": "0x9bbfb0672",
      "from": "0xe62ab4d111f968660c6b2188046f9b9ba53c4bae",
      "to": "0x926df1f820af8e3cf53a58c94332eb16ba4cb4b5",
      "contractAddress": null
    },
    {
      "status": "0x1",
      "cumulativeGasUsed": "0xd02156",
      "logs": [],
      "logsBloom": "0x00000000000000000000000000000000000000000000000000000000000000000000000000000000000000000000000000000000000000000000000000000000000000000000000000000000000000000000000000000000000000000000000000000000000000000000000000000000000000000000000000000000000000000000000000000000000000000000000000000000000000000000000000000000000000000000000000000000000000000000000000000000000000000000000000000000000000000000000000000000000000000000000000000000000000000000000000000000000000000000000000000000000000000000000000000000",
      "type": "0x2",
      "transactionHash": "0x9cfe0b0fa78f8a94ca58e340555875d325d18a473ad5eb587ae36788f7966db2",
      "transactionIndex": "0x79",
      "blockHash": "0x52b5c197cc2e87b92ece6cec9f8a78d5b58b2eba4e6a987cae7311861830900b",
      "blockNumber": "0x6f95a4",
      "gasUsed": "0x1ed85",
      "effectiveGasPrice": "0x96afb1b50",
      "from": "0xe62ab4d111f968660c6b2188046f9b9ba53c4bae",
      "to": "0x926df1f820af8e3cf53a58c94332eb16ba4cb4b5",
      "contractAddress": null
    },
    {
      "status": "0x1",
      "cumulativeGasUsed": "0x105fbf7",
      "logs": [],
      "logsBloom": "0x00000000000000000000000000000000000000000000000000000000000000000000000000000000000000000000000000000000000000000000000000000000000000000000000000000000000000000000000000000000000000000000000000000000000000000000000000000000000000000000000000000000000000000000000000000000000000000000000000000000000000000000000000000000000000000000000000000000000000000000000000000000000000000000000000000000000000000000000000000000000000000000000000000000000000000000000000000000000000000000000000000000000000000000000000000000",
      "type": "0x2",
      "transactionHash": "0x963ad595579a027d69a0f3ff642549c57e697a461a93df2d96420b3cbddebeee",
      "transactionIndex": "0x8d",
      "blockHash": "0xe8ab1e37127505faf6bd4791ad2ab1c79a4a4044f7071ff07984f71d5efac182",
      "blockNumber": "0x6f95a5",
      "gasUsed": "0x1e8f9",
      "effectiveGasPrice": "0x949ea86e0",
      "from": "0xe62ab4d111f968660c6b2188046f9b9ba53c4bae",
      "to": "0x926df1f820af8e3cf53a58c94332eb16ba4cb4b5",
      "contractAddress": null
    },
    {
      "status": "0x1",
      "cumulativeGasUsed": "0xbaa7ee",
      "logs": [],
      "logsBloom": "0x00000000000000000000000000000000000000000000000000000000000000000000000000000000000000000000000000000000000000000000000000000000000000000000000000000000000000000000000000000000000000000000000000000000000000000000000000000000000000000000000000000000000000000000000000000000000000000000000000000000000000000000000000000000000000000000000000000000000000000000000000000000000000000000000000000000000000000000000000000000000000000000000000000000000000000000000000000000000000000000000000000000000000000000000000000000",
      "type": "0x2",
      "transactionHash": "0x77e8a224920c394082a1984e5ba7b006fb74f44c6f6b4c8fbadf65bfb841de6e",
      "transactionIndex": "0x5e",
      "blockHash": "0xb8091e875c501ee766f00b04fae995b43e960297101fcc81b52f2a70a741ab85",
      "blockNumber": "0x6f95a6",
      "gasUsed": "0x1e8f9",
      "effectiveGasPrice": "0x96a483f6d",
      "from": "0xe62ab4d111f968660c6b2188046f9b9ba53c4bae",
      "to": "0x926df1f820af8e3cf53a58c94332eb16ba4cb4b5",
      "contractAddress": null
    },
    {
      "status": "0x1",
      "cumulativeGasUsed": "0xa41f33",
      "logs": [],
      "logsBloom": "0x00000000000000000000000000000000000000000000000000000000000000000000000000000000000000000000000000000000000000000000000000000000000000000000000000000000000000000000000000000000000000000000000000000000000000000000000000000000000000000000000000000000000000000000000000000000000000000000000000000000000000000000000000000000000000000000000000000000000000000000000000000000000000000000000000000000000000000000000000000000000000000000000000000000000000000000000000000000000000000000000000000000000000000000000000000000",
      "type": "0x2",
      "transactionHash": "0x04a320fbadb42d386e4707fa7069e7432f1c84402890e58b386e5e9d5203c439",
      "transactionIndex": "0x5f",
      "blockHash": "0x97021afb5e0face99b0571e9702dc64cbee6a03cb9c060b3f7f735c82312d377",
      "blockNumber": "0x6f95a7",
      "gasUsed": "0x1e5f1",
      "effectiveGasPrice": "0x951c7e994",
      "from": "0xe62ab4d111f968660c6b2188046f9b9ba53c4bae",
      "to": "0x926df1f820af8e3cf53a58c94332eb16ba4cb4b5",
      "contractAddress": null
    },
    {
      "status": "0x1",
      "cumulativeGasUsed": "0xf9635d",
      "logs": [],
      "logsBloom": "0x00000000000000000000000000000000000000000000000000000000000000000000000000000000000000000000000000000000000000000000000000000000000000000000000000000000000000000000000000000000000000000000000000000000000000000000000000000000000000000000000000000000000000000000000000000000000000000000000000000000000000000000000000000000000000000000000000000000000000000000000000000000000000000000000000000000000000000000000000000000000000000000000000000000000000000000000000000000000000000000000000000000000000000000000000000000",
      "type": "0x2",
      "transactionHash": "0xb4f790a627afdfac14992fdfdc065452b28367ca9fb539d3458fd2a3ed79b070",
      "transactionIndex": "0x8e",
      "blockHash": "0x547f593ac8ecb605f04d1e15b6e963036378c9448c100c0e56931c2239374c53",
      "blockNumber": "0x6f95a8",
      "gasUsed": "0x1e5f1",
      "effectiveGasPrice": "0x90ef090f3",
      "from": "0xe62ab4d111f968660c6b2188046f9b9ba53c4bae",
      "to": "0x926df1f820af8e3cf53a58c94332eb16ba4cb4b5",
      "contractAddress": null
    },
    {
      "status": "0x1",
      "cumulativeGasUsed": "0xee05e4",
      "logs": [],
      "logsBloom": "0x00000000000000000000000000000000000000000000000000000000000000000000000000000000000000000000000000000000000000000000000000000000000000000000000000000000000000000000000000000000000000000000000000000000000000000000000000000000000000000000000000000000000000000000000000000000000000000000000000000000000000000000000000000000000000000000000000000000000000000000000000000000000000000000000000000000000000000000000000000000000000000000000000000000000000000000000000000000000000000000000000000000000000000000000000000000",
      "type": "0x2",
      "transactionHash": "0x50b0be4745610bab884c1de3b69f10e5383e525cb9de0ed180ae6f95739a1ec8",
      "transactionIndex": "0x75",
      "blockHash": "0x8ee4c120e5df9d1b8eda8248c6ddd60e22095a4281bd97bf05c881281fd8a1fe",
      "blockNumber": "0x6f95a9",
      "gasUsed": "0x1e775",
      "effectiveGasPrice": "0x92c4d8e77",
      "from": "0xe62ab4d111f968660c6b2188046f9b9ba53c4bae",
      "to": "0x926df1f820af8e3cf53a58c94332eb16ba4cb4b5",
      "contractAddress": null
    },
    {
      "status": "0x1",
      "cumulativeGasUsed": "0x10f8f4b",
      "logs": [],
      "logsBloom": "0x00000000000000000000000000000000000000000000000000000000000000000000000000000000000000000000000000000000000000000000000000000000000000000000000000000000000000000000000000000000000000000000000000000000000000000000000000000000000000000000000000000000000000000000000000000000000000000000000000000000000000000000000000000000000000000000000000000000000000000000000000000000000000000000000000000000000000000000000000000000000000000000000000000000000000000000000000000000000000000000000000000000000000000000000000000000",
      "type": "0x2",
      "transactionHash": "0xc29f281229b4a2fd7eaf62d63c93e642ea446d1112a93f46f48e672b60646402",
      "transactionIndex": "0x8b",
      "blockHash": "0x5773633344b6bf9fe1e6b42939eaf6ed516647d537fcf0340bd1440d0de4474e",
      "blockNumber": "0x6f95aa",
      "gasUsed": "0x1ef09",
      "effectiveGasPrice": "0x920e8ed70",
      "from": "0xe62ab4d111f968660c6b2188046f9b9ba53c4bae",
      "to": "0x926df1f820af8e3cf53a58c94332eb16ba4cb4b5",
      "contractAddress": null
    },
    {
      "status": "0x1",
      "cumulativeGasUsed": "0xd5f85c",
      "logs": [],
      "logsBloom": "0x00000000000000000000000000000000000000000000000000000000000000000000000000000000000000000000000000000000000000000000000000000000000000000000000000000000000000000000000000000000000000000000000000000000000000000000000000000000000000000000000000000000000000000000000000000000000000000000000000000000000000000000000000000000000000000000000000000000000000000000000000000000000000000000000000000000000000000000000000000000000000000000000000000000000000000000000000000000000000000000000000000000000000000000000000000000",
      "type": "0x2",
      "transactionHash": "0xd59868decdb0f3b30a2f790861dac4a3fdc75522ec20cbfff64f1393e89bc228",
      "transactionIndex": "0x6e",
      "blockHash": "0x1ddbf37727bb7e1caf941f89e0443d20ecec9772f515ce6b50230b1186ac5a80",
      "blockNumber": "0x6f95ab",
      "gasUsed": "0x1e775",
      "effectiveGasPrice": "0x9c80f48e0",
      "from": "0xe62ab4d111f968660c6b2188046f9b9ba53c4bae",
      "to": "0x926df1f820af8e3cf53a58c94332eb16ba4cb4b5",
      "contractAddress": null
    },
    {
      "status": "0x1",
      "cumulativeGasUsed": "0x17f5073",
      "logs": [],
      "logsBloom": "0x00000000000000000000000000000000000000000000000000000000000000000000000000000000000000000000000000000000000000000000000000000000000000000000000000000000000000000000000000000000000000000000000000000000000000000000000000000000000000000000000000000000000000000000000000000000000000000000000000000000000000000000000000000000000000000000000000000000000000000000000000000000000000000000000000000000000000000000000000000000000000000000000000000000000000000000000000000000000000000000000000000000000000000000000000000000",
      "type": "0x2",
      "transactionHash": "0x5cb094489c070ac522603add7e11c7b3a6a80814d9465dcb00cd547b8dd46b57",
      "transactionIndex": "0xa6",
      "blockHash": "0x88cd77cba68f32b42a92e58eda120d1df6ab389dc6bd25737473754713a08e6e",
      "blockNumber": "0x6f95ac",
      "gasUsed": "0x1ef09",
      "effectiveGasPrice": "0x999cf53b3",
      "from": "0xe62ab4d111f968660c6b2188046f9b9ba53c4bae",
      "to": "0x926df1f820af8e3cf53a58c94332eb16ba4cb4b5",
      "contractAddress": null
    },
    {
      "status": "0x1",
      "cumulativeGasUsed": "0xb5f8cb",
      "logs": [],
      "logsBloom": "0x00000000000000000000000000000000000000000000000000000000000000000000000000000000000000000000000000000000000000000000000000000000000000000000000000000000000000000000000000000000000000000000000000000000000000000000000000000000000000000000000000000000000000000000000000000000000000000000000000000000000000000000000000000000000000000000000000000000000000000000000000000000000000000000000000000000000000000000000000000000000000000000000000000000000000000000000000000000000000000000000000000000000000000000000000000000",
      "type": "0x2",
      "transactionHash": "0x0d37cddb88918a8bba225fd4b12d306d53f4ff63d386ff2017c1dada73faebbd",
      "transactionIndex": "0x70",
      "blockHash": "0xc84d240b65d85de93beef7a068c5b754ded623d77a68fc5bb522f038fa2f472f",
      "blockNumber": "0x6f95ad",
      "gasUsed": "0x1e5f1",
      "effectiveGasPrice": "0xac63125cf",
      "from": "0xe62ab4d111f968660c6b2188046f9b9ba53c4bae",
      "to": "0x926df1f820af8e3cf53a58c94332eb16ba4cb4b5",
      "contractAddress": null
    },
    {
      "status": "0x1",
      "cumulativeGasUsed": "0x104192c",
      "logs": [],
      "logsBloom": "0x00000000000000000000000000000000000000000000000000000000000000000000000000000000000000000000000000000000000000000000000000000000000000000000000000000000000000000000000000000000000000000000000000000000000000000000000000000000000000000000000000000000000000000000000000000000000000000000000000000000000000000000000000000000000000000000000000000000000000000000000000000000000000000000000000000000000000000000000000000000000000000000000000000000000000000000000000000000000000000000000000000000000000000000000000000000",
      "type": "0x2",
      "transactionHash": "0x073bd31fc845e08fd9dfad00969f5065313747c87f7aaeef1b8a905ecc0e7c56",
      "transactionIndex": "0x83",
      "blockHash": "0xf154cfeddde2bf727e134e070145f34ab117a49cce646e1feb0945d104bb4d36",
      "blockNumber": "0x6f95ae",
      "gasUsed": "0x1e5f1",
      "effectiveGasPrice": "0xa62b49c57",
      "from": "0xe62ab4d111f968660c6b2188046f9b9ba53c4bae",
      "to": "0x926df1f820af8e3cf53a58c94332eb16ba4cb4b5",
      "contractAddress": null
    },
    {
      "status": "0x1",
      "cumulativeGasUsed": "0x9608ea",
      "logs": [],
      "logsBloom": "0x00000000000000000000000000000000000000000000000000000000000000000000000000000000000000000000000000000000000000000000000000000000000000000000000000000000000000000000000000000000000000000000000000000000000000000000000000000000000000000000000000000000000000000000000000000000000000000000000000000000000000000000000000000000000000000000000000000000000000000000000000000000000000000000000000000000000000000000000000000000000000000000000000000000000000000000000000000000000000000000000000000000000000000000000000000000",
      "type": "0x2",
      "transactionHash": "0x36f1c017197488353006d51f001770b4023f0fdd3af131418eccca3eea32fad6",
      "transactionIndex": "0x51",
      "blockHash": "0x72b10a5906b378a879f24d5738ace644b34132c3334a51695fd3031b1b9f3a98",
      "blockNumber": "0x6f95af",
      "gasUsed": "0x1e5f1",
      "effectiveGasPrice": "0xa8bf52cf8",
      "from": "0xe62ab4d111f968660c6b2188046f9b9ba53c4bae",
      "to": "0x926df1f820af8e3cf53a58c94332eb16ba4cb4b5",
      "contractAddress": null
    },
    {
      "status": "0x1",
      "cumulativeGasUsed": "0x106f9e6",
      "logs": [],
      "logsBloom": "0x00000000000000000000000000000000000000000000000000000000000000000000000000000000000000000000000000000000000000000000000000000000000000000000000000000000000000000000000000000000000000000000000000000000000000000000000000000000000000000000000000000000000000000000000000000000000000000000000000000000000000000000000000000000000000000000000000000000000000000000000000000000000000000000000000000000000000000000000000000000000000000000000000000000000000000000000000000000000000000000000000000000000000000000000000000000",
      "type": "0x2",
      "transactionHash": "0xfa4c0fbb6f388e02c52b247ee7a281c6afd7d34634ff028d2eda45998965636d",
      "transactionIndex": "0x9a",
      "blockHash": "0x8ff7ea903d0f6cb5370c5c55c461a0385db051ed69d091053fe0d6760d9ce17c",
      "blockNumber": "0x6f95b0",
      "gasUsed": "0x1e775",
      "effectiveGasPrice": "0xa465034f0",
      "from": "0xe62ab4d111f968660c6b2188046f9b9ba53c4bae",
      "to": "0x926df1f820af8e3cf53a58c94332eb16ba4cb4b5",
      "contractAddress": null
    },
    {
      "status": "0x1",
      "cumulativeGasUsed": "0x11c16cc",
      "logs": [],
      "logsBloom": "0x00000000000000000000000000000000000000000000000000000000000000000000000000000000000000000000000000000000000000000000000000000000000000000000000000000000000000000000000000000000000000000000000000000000000000000000000000000000000000000000000000000000000000000000000000000000000000000000000000000000000000000000000000000000000000000000000000000000000000000000000000000000000000000000000000000000000000000000000000000000000000000000000000000000000000000000000000000000000000000000000000000000000000000000000000000000",
      "type": "0x2",
      "transactionHash": "0x8eb74b19111cc4d8c2c9efa411f3e7127434f1610920c7f31bfb889bf7e250ff",
      "transactionIndex": "0x82",
      "blockHash": "0xf686b4d1f99370a84c56fd0315b733aca2a4f7602c014a5ded09de089def264c",
      "blockNumber": "0x6f95b1",
      "gasUsed": "0x1e46d",
      "effectiveGasPrice": "0xa3d167d67",
      "from": "0xe62ab4d111f968660c6b2188046f9b9ba53c4bae",
      "to": "0x926df1f820af8e3cf53a58c94332eb16ba4cb4b5",
      "contractAddress": null
    },
    {
      "status": "0x1",
      "cumulativeGasUsed": "0x9ea5c0",
      "logs": [],
      "logsBloom": "0x00000000000000000000000000000000000000000000000000000000000000000000000000000000000000000000000000000000000000000000000000000000000000000000000000000000000000000000000000000000000000000000000000000000000000000000000000000000000000000000000000000000000000000000000000000000000000000000000000000000000000000000000000000000000000000000000000000000000000000000000000000000000000000000000000000000000000000000000000000000000000000000000000000000000000000000000000000000000000000000000000000000000000000000000000000000",
      "type": "0x2",
      "transactionHash": "0x14ad3f82af532813acb1bf467423c67ef282aec3090e215e88653056d353e28a",
      "transactionIndex": "0x5f",
      "blockHash": "0x34b4f8f7c1e110e069f29cad854d5ad8c144e6a9651220df0dda972863fed36d",
      "blockNumber": "0x6f95b2",
      "gasUsed": "0x1e775",
      "effectiveGasPrice": "0xa704f556a",
      "from": "0xe62ab4d111f968660c6b2188046f9b9ba53c4bae",
      "to": "0x926df1f820af8e3cf53a58c94332eb16ba4cb4b5",
      "contractAddress": null
    },
    {
      "status": "0x1",
      "cumulativeGasUsed": "0xfa26e5",
      "logs": [],
      "logsBloom": "0x00000000000000000000000000000000000000000000000000000000000000000000000000000000000000000000000000000000000000000000000000000000000000000000000000000000000000000000000000000000000000000000000000000000000000000000000000000000000000000000000000000000000000000000000000000000000000000000000000000000000000000000000000000000000000000000000000000000000000000000000000000000000000000000000000000000000000000000000000000000000000000000000000000000000000000000000000000000000000000000000000000000000000000000000000000000",
      "type": "0x2",
      "transactionHash": "0xb64ece08b07060f70e83f7c2f10e901b38610134f63e895203d201978f66c58a",
      "transactionIndex": "0x80",
      "blockHash": "0x6f572152f0619380add370f34ad9ebbebee83b11d3fe9d2e9e9f4fdae94b5c40",
      "blockNumber": "0x6f95b3",
      "gasUsed": "0x1e46d",
      "effectiveGasPrice": "0xa0707bd15",
      "from": "0xe62ab4d111f968660c6b2188046f9b9ba53c4bae",
      "to": "0x926df1f820af8e3cf53a58c94332eb16ba4cb4b5",
      "contractAddress": null
    },
    {
      "status": "0x1",
      "cumulativeGasUsed": "0xd2cae7",
      "logs": [],
      "logsBloom": "0x00000000000000000000000000000000000000000000000000000000000000000000000000000000000000000000000000000000000000000000000000000000000000000000000000000000000000000000000000000000000000000000000000000000000000000000000000000000000000000000000000000000000000000000000000000000000000000000000000000000000000000000000000000000000000000000000000000000000000000000000000000000000000000000000000000000000000000000000000000000000000000000000000000000000000000000000000000000000000000000000000000000000000000000000000000000",
      "type": "0x2",
      "transactionHash": "0xf63851d1e09423093d49f85303a356d910fd812ebb7e8b0071eae95816d91314",
      "transactionIndex": "0x67",
      "blockHash": "0xb1e832815610f1a46f737e2f73adb13dd0958abeb37eb11ce049212506f6f621",
      "blockNumber": "0x6f95b4",
      "gasUsed": "0x1e2e9",
      "effectiveGasPrice": "0xa3720df9e",
      "from": "0xe62ab4d111f968660c6b2188046f9b9ba53c4bae",
      "to": "0x926df1f820af8e3cf53a58c94332eb16ba4cb4b5",
      "contractAddress": null
    },
    {
      "status": "0x1",
      "cumulativeGasUsed": "0x1004be6",
      "logs": [],
      "logsBloom": "0x00000000000000000000000000000000000000000000000000000000000000000000000000000000000000000000000000000000000000000000000000000000000000000000000000000000000000000000000000000000000000000000000000000000000000000000000000000000000000000000000000000000000000000000000000000000000000000000000000000000000000000000000000000000000000000000000000000000000000000000000000000000000000000000000000000000000000000000000000000000000000000000000000000000000000000000000000000000000000000000000000000000000000000000000000000000",
      "type": "0x2",
      "transactionHash": "0x21247c4b6fc9496ca8d22cb89bf0c600b5fc52df5cb999da8cd2ff469cb81cbf",
      "transactionIndex": "0x7f",
      "blockHash": "0x6474deddc270fdcc9e9656e2995482c60eb9ee855190fc02df6696f08e0a32fe",
      "blockNumber": "0x6f95b5",
      "gasUsed": "0x1ec01",
      "effectiveGasPrice": "0xa02a50d8c",
      "from": "0xe62ab4d111f968660c6b2188046f9b9ba53c4bae",
      "to": "0x926df1f820af8e3cf53a58c94332eb16ba4cb4b5",
      "contractAddress": null
    },
    {
      "status": "0x1",
      "cumulativeGasUsed": "0x11bdd5f",
      "logs": [],
      "logsBloom": "0x00000000000000000000000000000000000000000000000000000000000000000000000000000000000000000000000000000000000000000000000000000000000000000000000000000000000000000000000000000000000000000000000000000000000000000000000000000000000000000000000000000000000000000000000000000000000000000000000000000000000000000000000000000000000000000000000000000000000000000000000000000000000000000000000000000000000000000000000000000000000000000000000000000000000000000000000000000000000000000000000000000000000000000000000000000000",
      "type": "0x2",
      "transactionHash": "0x02df1962d436948971454dd10fa18df70c39741fd721e37a6dfd0b1950eb727f",
      "transactionIndex": "0x72",
      "blockHash": "0x5c7773fb409ace1a7791c68ef05387e695f2fea88e8e354831c44042883f6ea2",
      "blockNumber": "0x6f95b8",
      "gasUsed": "0x32bf2c",
      "effectiveGasPrice": "0xa0f57c132",
      "from": "0xe62ab4d111f968660c6b2188046f9b9ba53c4bae",
      "to": "0x10a04ad4a73c8bb00ee5a29b27d11eee85390306",
      "contractAddress": null
    },
    {
      "status": "0x1",
      "cumulativeGasUsed": "0x1224526",
      "logs": [],
      "logsBloom": "0x00000000000000000000000000000000000000000000000000000000000000000000000000000000000000000000000000000000000000000000000000000000000000000000000000000000000000000000000000000000000000000000000000000000000000000000000000000000000000000000000000000000000000000000000000000000000000000000000000000000000000000000000000000000000000000000000000000000000000000000000000000000000000000000000000000000000000000000000000000000000000000000000000000000000000000000000000000000000000000000000000000000000000000000000000000000",
      "type": "0x2",
      "transactionHash": "0x30ba0b0fd32b0d95b70c88d1620f03f77d998788996f2d6724b28f256ddd0317",
      "transactionIndex": "0x63",
      "blockHash": "0x037858a7dc33f8f96df84e0c2726bc8384be94c886ec17fc3f3b99025bf2b353",
      "blockNumber": "0x6f95b9",
      "gasUsed": "0x3f4c8b",
      "effectiveGasPrice": "0xaaeb40733",
      "from": "0xe62ab4d111f968660c6b2188046f9b9ba53c4bae",
      "to": "0x10a04ad4a73c8bb00ee5a29b27d11eee85390306",
      "contractAddress": null
    },
    {
      "status": "0x1",
      "cumulativeGasUsed": "0xd92107",
      "logs": [],
      "logsBloom": "0x00000000000000000000000000000000000000000000000000000000000000000000000000000000000000000000000000000000000000000000000000000000000000000000000000000000000000000000000000000000000000000000000000000000000000000000000000000000000000000000000000000000000000000000000000000000000000000000000000000000000000000000000000000000000000000000000000000000000000000000000000000000000000000000000000000000000000000000000000000000000000000000000000000000000000000000000000000000000000000000000000000000000000000000000000000000",
      "type": "0x2",
      "transactionHash": "0x3559a353dfd49101f7723124cb3c5aea1a064dfab4f6a58a92e07fd2174346c3",
      "transactionIndex": "0x5d",
      "blockHash": "0x7470a74ed0cbbfb44dc5299c68accaa25f8a99422362bae03128f65fcab01721",
      "blockNumber": "0x6f95ba",
      "gasUsed": "0x361646",
      "effectiveGasPrice": "0xad6152554",
      "from": "0xe62ab4d111f968660c6b2188046f9b9ba53c4bae",
      "to": "0x10a04ad4a73c8bb00ee5a29b27d11eee85390306",
      "contractAddress": null
    }
  ],
  "libraries": [],
  "pending": [],
  "returns": {},
  "timestamp": 1734632401,
  "chain": 11155111,
  "commit": "2746b202"
}