{
  "transactions": [
    {
      "hash": "0xd84bbd47113f668315b28522a818dec6e3722e66210fc5d7f35b3554584ab946",
      "transactionType": "CALL",
      "contractName": "FeeManager",
      "contractAddress": "0xea911684c200ac1fd3ca8a3ffd21afe9ef0e35da",
      "function": "getFeeTokenList()",
      "arguments": [],
      "transaction": {
        "from": "0xe62ab4d111f968660c6b2188046f9b9ba53c4bae",
        "to": "0xea911684c200ac1fd3ca8a3ffd21afe9ef0e35da",
        "gas": "0x8a7e",
        "value": "0x0",
        "input": "0xe28ab277",
        "nonce": "0x195",
        "chainId": "0xaa36a7"
      },
      "additionalContracts": [],
      "isFixedGasLimit": false
    },
    {
      "hash": "0x44a6b210582eef04d1b8f155c75875183956f1729e3e729e3ebb1450d87e43a0",
      "transactionType": "CALL",
      "contractName": "FeeManager",
      "contractAddress": "0xea911684c200ac1fd3ca8a3ffd21afe9ef0e35da",
      "function": "addFeeToken(string)",
      "arguments": [
        "0xa4c104db0937f1e886d5c9c9789d6f0e5bfba75c"
      ],
      "transaction": {
        "from": "0xe62ab4d111f968660c6b2188046f9b9ba53c4bae",
        "to": "0xea911684c200ac1fd3ca8a3ffd21afe9ef0e35da",
        "gas": "0x28cec",
        "value": "0x0",
        "input": "0x12a6385f0000000000000000000000000000000000000000000000000000000000000020000000000000000000000000000000000000000000000000000000000000002a30786134633130346462303933376631653838366435633963393738396436663065356266626137356300000000000000000000000000000000000000000000",
        "nonce": "0x196",
        "chainId": "0xaa36a7"
      },
      "additionalContracts": [],
      "isFixedGasLimit": false
    },
    {
      "hash": "0x7a2a01130873166b5122c3943373c3b983e411a4737036930518516e4684e5af",
      "transactionType": "CALL",
      "contractName": "FeeManager",
      "contractAddress": "0xea911684c200ac1fd3ca8a3ffd21afe9ef0e35da",
      "function": "setFeeMultiplier(uint8,uint256)",
      "arguments": [
        "0",
        "2"
      ],
      "transaction": {
        "from": "0xe62ab4d111f968660c6b2188046f9b9ba53c4bae",
        "to": "0xea911684c200ac1fd3ca8a3ffd21afe9ef0e35da",
        "gas": "0x112e8",
        "value": "0x0",
        "input": "0x0ee24eb500000000000000000000000000000000000000000000000000000000000000000000000000000000000000000000000000000000000000000000000000000002",
        "nonce": "0x197",
        "chainId": "0xaa36a7"
      },
      "additionalContracts": [],
      "isFixedGasLimit": false
    },
    {
      "hash": "0xbb5a55ef08a95e0712ef89e7507e3046473b791d25bb316c7eaa25d312714685",
      "transactionType": "CALL",
      "contractName": "FeeManager",
      "contractAddress": "0xea911684c200ac1fd3ca8a3ffd21afe9ef0e35da",
      "function": "setFeeMultiplier(uint8,uint256)",
      "arguments": [
        "1",
        "10"
      ],
      "transaction": {
        "from": "0xe62ab4d111f968660c6b2188046f9b9ba53c4bae",
        "to": "0xea911684c200ac1fd3ca8a3ffd21afe9ef0e35da",
        "gas": "0x11324",
        "value": "0x0",
        "input": "0x0ee24eb50000000000000000000000000000000000000000000000000000000000000001000000000000000000000000000000000000000000000000000000000000000a",
        "nonce": "0x198",
        "chainId": "0xaa36a7"
      },
      "additionalContracts": [],
      "isFixedGasLimit": false
    },
    {
      "hash": "0x2c8d0c492a5bf3e36d80a6ab4d90734a1dbf8007b929b90211a7398eda0261fa",
      "transactionType": "CALL",
      "contractName": "FeeManager",
      "contractAddress": "0xea911684c200ac1fd3ca8a3ffd21afe9ef0e35da",
      "function": "setFeeMultiplier(uint8,uint256)",
      "arguments": [
        "2",
        "1"
      ],
      "transaction": {
        "from": "0xe62ab4d111f968660c6b2188046f9b9ba53c4bae",
        "to": "0xea911684c200ac1fd3ca8a3ffd21afe9ef0e35da",
        "gas": "0x11346",
        "value": "0x0",
        "input": "0x0ee24eb500000000000000000000000000000000000000000000000000000000000000020000000000000000000000000000000000000000000000000000000000000001",
        "nonce": "0x199",
        "chainId": "0xaa36a7"
      },
      "additionalContracts": [],
      "isFixedGasLimit": false
    },
    {
      "hash": "0x487512871c9c3ce65a43d042f991ef74fb469e240c0c1b9e00b6c0bdb3643d99",
      "transactionType": "CALL",
      "contractName": "FeeManager",
      "contractAddress": "0xea911684c200ac1fd3ca8a3ffd21afe9ef0e35da",
      "function": "setFeeMultiplier(uint8,uint256)",
      "arguments": [
        "3",
        "4"
      ],
      "transaction": {
        "from": "0xe62ab4d111f968660c6b2188046f9b9ba53c4bae",
        "to": "0xea911684c200ac1fd3ca8a3ffd21afe9ef0e35da",
        "gas": "0x1041b",
        "value": "0x0",
        "input": "0x0ee24eb500000000000000000000000000000000000000000000000000000000000000030000000000000000000000000000000000000000000000000000000000000004",
        "nonce": "0x19a",
        "chainId": "0xaa36a7"
      },
      "additionalContracts": [],
      "isFixedGasLimit": false
    },
    {
      "hash": "0xd2eb4ae860e721255c856ab342dbaca5b0a8278530bb6197b8584f548c883d10",
      "transactionType": "CALL",
      "contractName": "FeeManager",
      "contractAddress": "0xea911684c200ac1fd3ca8a3ffd21afe9ef0e35da",
      "function": "setFeeMultiplier(uint8,uint256)",
      "arguments": [
        "4",
        "4"
      ],
      "transaction": {
        "from": "0xe62ab4d111f968660c6b2188046f9b9ba53c4bae",
        "to": "0xea911684c200ac1fd3ca8a3ffd21afe9ef0e35da",
        "gas": "0x1043a",
        "value": "0x0",
        "input": "0x0ee24eb500000000000000000000000000000000000000000000000000000000000000040000000000000000000000000000000000000000000000000000000000000004",
        "nonce": "0x19b",
        "chainId": "0xaa36a7"
      },
      "additionalContracts": [],
      "isFixedGasLimit": false
    },
    {
      "hash": "0x1cecd985a10a228301837563856c02885d0ed7e9073822a2764810366d39344a",
      "transactionType": "CALL",
      "contractName": "FeeManager",
      "contractAddress": "0xea911684c200ac1fd3ca8a3ffd21afe9ef0e35da",
      "function": "setFeeMultiplier(uint8,uint256)",
      "arguments": [
        "5",
        "4"
      ],
      "transaction": {
        "from": "0xe62ab4d111f968660c6b2188046f9b9ba53c4bae",
        "to": "0xea911684c200ac1fd3ca8a3ffd21afe9ef0e35da",
        "gas": "0x10459",
        "value": "0x0",
        "input": "0x0ee24eb500000000000000000000000000000000000000000000000000000000000000050000000000000000000000000000000000000000000000000000000000000004",
        "nonce": "0x19c",
        "chainId": "0xaa36a7"
      },
      "additionalContracts": [],
      "isFixedGasLimit": false
    },
    {
      "hash": "0x6af7641ba6918d0166776eac9e5e6e5d101b2dd04b5091fa63e442dbda1f92a2",
      "transactionType": "CALL",
      "contractName": "FeeManager",
      "contractAddress": "0xea911684c200ac1fd3ca8a3ffd21afe9ef0e35da",
      "function": "setFeeMultiplier(uint8,uint256)",
      "arguments": [
        "6",
        "8"
      ],
      "transaction": {
        "from": "0xe62ab4d111f968660c6b2188046f9b9ba53c4bae",
        "to": "0xea911684c200ac1fd3ca8a3ffd21afe9ef0e35da",
        "gas": "0x1047a",
        "value": "0x0",
        "input": "0x0ee24eb500000000000000000000000000000000000000000000000000000000000000060000000000000000000000000000000000000000000000000000000000000008",
        "nonce": "0x19d",
        "chainId": "0xaa36a7"
      },
      "additionalContracts": [],
      "isFixedGasLimit": false
    },
    {
      "hash": "0xaf93f841374e041b21507f0ad168595c37dd55c79d6a9c2e7c287168d442019d",
      "transactionType": "CALL",
      "contractName": "FeeManager",
      "contractAddress": "0xea911684c200ac1fd3ca8a3ffd21afe9ef0e35da",
      "function": "setFeeMultiplier(uint8,uint256)",
      "arguments": [
        "7",
        "4"
      ],
      "transaction": {
        "from": "0xe62ab4d111f968660c6b2188046f9b9ba53c4bae",
        "to": "0xea911684c200ac1fd3ca8a3ffd21afe9ef0e35da",
        "gas": "0x10499",
        "value": "0x0",
        "input": "0x0ee24eb500000000000000000000000000000000000000000000000000000000000000070000000000000000000000000000000000000000000000000000000000000004",
        "nonce": "0x19e",
        "chainId": "0xaa36a7"
      },
      "additionalContracts": [],
      "isFixedGasLimit": false
    },
    {
      "hash": "0xdd720e7e79127c00a9770fd6e123a17df507ef9f79d359b14ce0d6d179e37886",
      "transactionType": "CALL",
      "contractName": "FeeManager",
      "contractAddress": "0xea911684c200ac1fd3ca8a3ffd21afe9ef0e35da",
      "function": "setFeeMultiplier(uint8,uint256)",
      "arguments": [
        "8",
        "10"
      ],
      "transaction": {
        "from": "0xe62ab4d111f968660c6b2188046f9b9ba53c4bae",
        "to": "0xea911684c200ac1fd3ca8a3ffd21afe9ef0e35da",
        "gas": "0x1140f",
        "value": "0x0",
        "input": "0x0ee24eb50000000000000000000000000000000000000000000000000000000000000008000000000000000000000000000000000000000000000000000000000000000a",
        "nonce": "0x19f",
        "chainId": "0xaa36a7"
      },
      "additionalContracts": [],
      "isFixedGasLimit": false
    },
    {
      "hash": "0x0f381752c7b8325d5829579a326b5b047d7da454aa20091e68222e2284e1ff5e",
      "transactionType": "CALL",
      "contractName": "FeeManager",
      "contractAddress": "0xea911684c200ac1fd3ca8a3ffd21afe9ef0e35da",
      "function": "setFeeMultiplier(uint8,uint256)",
      "arguments": [
        "9",
        "8"
      ],
      "transaction": {
        "from": "0xe62ab4d111f968660c6b2188046f9b9ba53c4bae",
        "to": "0xea911684c200ac1fd3ca8a3ffd21afe9ef0e35da",
        "gas": "0x11431",
        "value": "0x0",
        "input": "0x0ee24eb500000000000000000000000000000000000000000000000000000000000000090000000000000000000000000000000000000000000000000000000000000008",
        "nonce": "0x1a0",
        "chainId": "0xaa36a7"
      },
      "additionalContracts": [],
      "isFixedGasLimit": false
    },
    {
      "hash": "0x989360d9048675334d8d248649e455c9a48d210393716743b6127d252d49ab73",
      "transactionType": "CALL",
      "contractName": "FeeManager",
      "contractAddress": "0xea911684c200ac1fd3ca8a3ffd21afe9ef0e35da",
      "function": "setFeeMultiplier(uint8,uint256)",
      "arguments": [
        "10",
        "8"
      ],
      "transaction": {
        "from": "0xe62ab4d111f968660c6b2188046f9b9ba53c4bae",
        "to": "0xea911684c200ac1fd3ca8a3ffd21afe9ef0e35da",
        "gas": "0x11453",
        "value": "0x0",
        "input": "0x0ee24eb5000000000000000000000000000000000000000000000000000000000000000a0000000000000000000000000000000000000000000000000000000000000008",
        "nonce": "0x1a1",
        "chainId": "0xaa36a7"
      },
      "additionalContracts": [],
      "isFixedGasLimit": false
    },
    {
      "hash": "0xb8005c59765f840556f2d1d4d22e7710b45cf8727c1d57c2fca6629941eead5b",
      "transactionType": "CALL",
      "contractName": "FeeManager",
      "contractAddress": "0xea911684c200ac1fd3ca8a3ffd21afe9ef0e35da",
      "function": "setFeeMultiplier(uint8,uint256)",
      "arguments": [
        "11",
        "8"
      ],
      "transaction": {
        "from": "0xe62ab4d111f968660c6b2188046f9b9ba53c4bae",
        "to": "0xea911684c200ac1fd3ca8a3ffd21afe9ef0e35da",
        "gas": "0x10518",
        "value": "0x0",
        "input": "0x0ee24eb5000000000000000000000000000000000000000000000000000000000000000b0000000000000000000000000000000000000000000000000000000000000008",
        "nonce": "0x1a2",
        "chainId": "0xaa36a7"
      },
      "additionalContracts": [],
      "isFixedGasLimit": false
    },
    {
      "hash": "0x0536c4a26502c220f6abe3d08cc1a610b24683a8dfb03c5f7fd72b62f6af9d08",
      "transactionType": "CALL",
      "contractName": "FeeManager",
      "contractAddress": "0xea911684c200ac1fd3ca8a3ffd21afe9ef0e35da",
      "function": "setFeeMultiplier(uint8,uint256)",
      "arguments": [
        "12",
        "20"
      ],
      "transaction": {
        "from": "0xe62ab4d111f968660c6b2188046f9b9ba53c4bae",
        "to": "0xea911684c200ac1fd3ca8a3ffd21afe9ef0e35da",
        "gas": "0x10538",
        "value": "0x0",
        "input": "0x0ee24eb5000000000000000000000000000000000000000000000000000000000000000c0000000000000000000000000000000000000000000000000000000000000014",
        "nonce": "0x1a3",
        "chainId": "0xaa36a7"
      },
      "additionalContracts": [],
      "isFixedGasLimit": false
    },
    {
      "hash": "0x49f4c684c0799d0fc0b982f1047294bb00ee56248cd9799c9c0fb1f03e138c5d",
      "transactionType": "CALL",
      "contractName": "FeeManager",
      "contractAddress": "0xea911684c200ac1fd3ca8a3ffd21afe9ef0e35da",
      "function": "setFeeMultiplier(uint8,uint256)",
      "arguments": [
        "13",
        "8"
      ],
      "transaction": {
        "from": "0xe62ab4d111f968660c6b2188046f9b9ba53c4bae",
        "to": "0xea911684c200ac1fd3ca8a3ffd21afe9ef0e35da",
        "gas": "0x10558",
        "value": "0x0",
        "input": "0x0ee24eb5000000000000000000000000000000000000000000000000000000000000000d0000000000000000000000000000000000000000000000000000000000000008",
        "nonce": "0x1a4",
        "chainId": "0xaa36a7"
      },
      "additionalContracts": [],
      "isFixedGasLimit": false
    },
    {
      "hash": "0x2e6d5c533f2f6fadb496c7e60b716b67ac40cf8eff29d74bde74998999525442",
      "transactionType": "CALL",
      "contractName": "FeeManager",
      "contractAddress": "0xea911684c200ac1fd3ca8a3ffd21afe9ef0e35da",
      "function": "setFeeMultiplier(uint8,uint256)",
      "arguments": [
        "14",
        "4"
      ],
      "transaction": {
        "from": "0xe62ab4d111f968660c6b2188046f9b9ba53c4bae",
        "to": "0xea911684c200ac1fd3ca8a3ffd21afe9ef0e35da",
        "gas": "0x10577",
        "value": "0x0",
        "input": "0x0ee24eb5000000000000000000000000000000000000000000000000000000000000000e0000000000000000000000000000000000000000000000000000000000000004",
        "nonce": "0x1a5",
        "chainId": "0xaa36a7"
      },
      "additionalContracts": [],
      "isFixedGasLimit": false
    },
    {
      "hash": "0xf546ce3f09e78f22837ac79a9ea55ae8765d43f41e0234965f0a24deee791604",
      "transactionType": "CALL",
      "contractName": "FeeManager",
      "contractAddress": "0xea911684c200ac1fd3ca8a3ffd21afe9ef0e35da",
      "function": "setFeeMultiplier(uint8,uint256)",
      "arguments": [
        "15",
        "4"
      ],
      "transaction": {
        "from": "0xe62ab4d111f968660c6b2188046f9b9ba53c4bae",
        "to": "0xea911684c200ac1fd3ca8a3ffd21afe9ef0e35da",
        "gas": "0x10598",
        "value": "0x0",
        "input": "0x0ee24eb5000000000000000000000000000000000000000000000000000000000000000f0000000000000000000000000000000000000000000000000000000000000004",
        "nonce": "0x1a6",
        "chainId": "0xaa36a7"
      },
      "additionalContracts": [],
      "isFixedGasLimit": false
    },
    {
      "hash": "0x8a9fec28b5f6ec633bb5442d3e5d82faa046884ce1053ea201c99eac243931b6",
      "transactionType": "CALL",
      "contractName": "FeeManager",
      "contractAddress": "0xea911684c200ac1fd3ca8a3ffd21afe9ef0e35da",
      "function": "setFeeMultiplier(uint8,uint256)",
      "arguments": [
        "16",
        "4"
      ],
      "transaction": {
        "from": "0xe62ab4d111f968660c6b2188046f9b9ba53c4bae",
        "to": "0xea911684c200ac1fd3ca8a3ffd21afe9ef0e35da",
        "gas": "0x1151d",
        "value": "0x0",
        "input": "0x0ee24eb500000000000000000000000000000000000000000000000000000000000000100000000000000000000000000000000000000000000000000000000000000004",
        "nonce": "0x1a7",
        "chainId": "0xaa36a7"
      },
      "additionalContracts": [],
      "isFixedGasLimit": false
    },
    {
      "hash": "0xd14a6c69946a9a2d2cc9d6ea32e05a27c73d49f9b3d72303f1fe8cbc0ed83d70",
      "transactionType": "CALL",
      "contractName": "FeeManager",
      "contractAddress": "0xea911684c200ac1fd3ca8a3ffd21afe9ef0e35da",
      "function": "setFeeMultiplier(uint8,uint256)",
      "arguments": [
        "17",
        "4"
      ],
      "transaction": {
        "from": "0xe62ab4d111f968660c6b2188046f9b9ba53c4bae",
        "to": "0xea911684c200ac1fd3ca8a3ffd21afe9ef0e35da",
        "gas": "0x1153e",
        "value": "0x0",
        "input": "0x0ee24eb500000000000000000000000000000000000000000000000000000000000000110000000000000000000000000000000000000000000000000000000000000004",
        "nonce": "0x1a8",
        "chainId": "0xaa36a7"
      },
      "additionalContracts": [],
      "isFixedGasLimit": false
    },
    {
      "hash": "0xf14215f4a1afe8c6b724b87af1e3a8add1205f98782ffc1d7afc98b7469d726a",
      "transactionType": "CALL",
      "contractName": "FeeManager",
      "contractAddress": "0xea911684c200ac1fd3ca8a3ffd21afe9ef0e35da",
      "function": "setFeeMultiplier(uint8,uint256)",
      "arguments": [
        "18",
        "2"
      ],
      "transaction": {
        "from": "0xe62ab4d111f968660c6b2188046f9b9ba53c4bae",
        "to": "0xea911684c200ac1fd3ca8a3ffd21afe9ef0e35da",
        "gas": "0x11560",
        "value": "0x0",
        "input": "0x0ee24eb500000000000000000000000000000000000000000000000000000000000000120000000000000000000000000000000000000000000000000000000000000002",
        "nonce": "0x1a9",
        "chainId": "0xaa36a7"
      },
      "additionalContracts": [],
      "isFixedGasLimit": false
    },
    {
      "hash": "0xacd254ef454dad4d0340b27af02dcb0267b109b1860d1df837b5fa015ceaf1f0",
      "transactionType": "CALL",
      "contractName": "FeeManager",
      "contractAddress": "0xea911684c200ac1fd3ca8a3ffd21afe9ef0e35da",
      "function": "setFeeMultiplier(uint8,uint256)",
      "arguments": [
        "19",
        "2"
      ],
      "transaction": {
        "from": "0xe62ab4d111f968660c6b2188046f9b9ba53c4bae",
        "to": "0xea911684c200ac1fd3ca8a3ffd21afe9ef0e35da",
        "gas": "0x1157a",
        "value": "0x0",
        "input": "0x0ee24eb500000000000000000000000000000000000000000000000000000000000000130000000000000000000000000000000000000000000000000000000000000002",
        "nonce": "0x1aa",
        "chainId": "0xaa36a7"
      },
      "additionalContracts": [],
      "isFixedGasLimit": false
    },
    {
      "hash": "0x09517c07cd0e49fe208043bfa3d33df8ed1dc6e6da905eaacc67274e0da6cffe",
      "transactionType": "CALL",
      "contractName": "FeeManager",
      "contractAddress": "0xea911684c200ac1fd3ca8a3ffd21afe9ef0e35da",
      "function": "addFeeToken(string,string[],uint256[])",
      "arguments": [
        "421614",
        "[0xa4c104db0937f1e886d5c9c9789d6f0e5bfba75c]",
        "[100]"
      ],
      "transaction": {
        "from": "0xe62ab4d111f968660c6b2188046f9b9ba53c4bae",
        "to": "0xea911684c200ac1fd3ca8a3ffd21afe9ef0e35da",
        "gas": "0x2f4dd",
        "value": "0x0",
        "input": "0x437bf84f000000000000000000000000000000000000000000000000000000000000006000000000000000000000000000000000000000000000000000000000000000a000000000000000000000000000000000000000000000000000000000000001400000000000000000000000000000000000000000000000000000000000000006343231363134000000000000000000000000000000000000000000000000000000000000000000000000000000000000000000000000000000000000000000010000000000000000000000000000000000000000000000000000000000000020000000000000000000000000000000000000000000000000000000000000002a3078613463313034646230393337663165383836643563396339373839643666306535626662613735630000000000000000000000000000000000000000000000000000000000000000000000000000000000000000000000000000000000010000000000000000000000000000000000000000000000000000000000000064",
        "nonce": "0x1ab",
        "chainId": "0xaa36a7"
      },
      "additionalContracts": [],
      "isFixedGasLimit": false
    },
    {
      "hash": "0xd9cc96f12a8141b70a2eb9cc6e692282c9ecac8070edbaf68bd5ef0b9e10d6e0",
      "transactionType": "CALL",
      "contractName": "FeeManager",
      "contractAddress": "0xea911684c200ac1fd3ca8a3ffd21afe9ef0e35da",
      "function": "addFeeToken(string,string[],uint256[])",
      "arguments": [
        "80002",
        "[0xa4c104db0937f1e886d5c9c9789d6f0e5bfba75c]",
        "[100]"
      ],
      "transaction": {
        "from": "0xe62ab4d111f968660c6b2188046f9b9ba53c4bae",
        "to": "0xea911684c200ac1fd3ca8a3ffd21afe9ef0e35da",
        "gas": "0x2a14c",
        "value": "0x0",
        "input": "0x437bf84f000000000000000000000000000000000000000000000000000000000000006000000000000000000000000000000000000000000000000000000000000000a000000000000000000000000000000000000000000000000000000000000001400000000000000000000000000000000000000000000000000000000000000005383030303200000000000000000000000000000000000000000000000000000000000000000000000000000000000000000000000000000000000000000000010000000000000000000000000000000000000000000000000000000000000020000000000000000000000000000000000000000000000000000000000000002a3078613463313034646230393337663165383836643563396339373839643666306535626662613735630000000000000000000000000000000000000000000000000000000000000000000000000000000000000000000000000000000000010000000000000000000000000000000000000000000000000000000000000064",
        "nonce": "0x1ac",
        "chainId": "0xaa36a7"
      },
      "additionalContracts": [],
      "isFixedGasLimit": false
    },
    {
      "hash": "0x8dc90410bff2ec3a51a9d40feb8cd721110feab82c3a7db9f011a53112d7cea3",
      "transactionType": "CALL",
      "contractName": "FeeManager",
      "contractAddress": "0xea911684c200ac1fd3ca8a3ffd21afe9ef0e35da",
      "function": "addFeeToken(string,string[],uint256[])",
      "arguments": [
        "84532",
        "[0xa4c104db0937f1e886d5c9c9789d6f0e5bfba75c]",
        "[100]"
      ],
      "transaction": {
        "from": "0xe62ab4d111f968660c6b2188046f9b9ba53c4bae",
        "to": "0xea911684c200ac1fd3ca8a3ffd21afe9ef0e35da",
        "gas": "0x2a14c",
        "value": "0x0",
        "input": "0x437bf84f000000000000000000000000000000000000000000000000000000000000006000000000000000000000000000000000000000000000000000000000000000a000000000000000000000000000000000000000000000000000000000000001400000000000000000000000000000000000000000000000000000000000000005383435333200000000000000000000000000000000000000000000000000000000000000000000000000000000000000000000000000000000000000000000010000000000000000000000000000000000000000000000000000000000000020000000000000000000000000000000000000000000000000000000000000002a3078613463313034646230393337663165383836643563396339373839643666306535626662613735630000000000000000000000000000000000000000000000000000000000000000000000000000000000000000000000000000000000010000000000000000000000000000000000000000000000000000000000000064",
        "nonce": "0x1ad",
        "chainId": "0xaa36a7"
      },
      "additionalContracts": [],
      "isFixedGasLimit": false
    },
    {
      "hash": "0x618c9b70dd42b42988948c7af5f8cc5223dee9bdcee76ea5a095f9b2339475b6",
      "transactionType": "CALL",
      "contractName": "FeeManager",
      "contractAddress": "0xea911684c200ac1fd3ca8a3ffd21afe9ef0e35da",
      "function": "addFeeToken(string,string[],uint256[])",
      "arguments": [
        "97",
        "[0xa4c104db0937f1e886d5c9c9789d6f0e5bfba75c]",
        "[100]"
      ],
      "transaction": {
        "from": "0xe62ab4d111f968660c6b2188046f9b9ba53c4bae",
        "to": "0xea911684c200ac1fd3ca8a3ffd21afe9ef0e35da",
        "gas": "0x2c241",
        "value": "0x0",
        "input": "0x437bf84f000000000000000000000000000000000000000000000000000000000000006000000000000000000000000000000000000000000000000000000000000000a000000000000000000000000000000000000000000000000000000000000001400000000000000000000000000000000000000000000000000000000000000002393700000000000000000000000000000000000000000000000000000000000000000000000000000000000000000000000000000000000000000000000000010000000000000000000000000000000000000000000000000000000000000020000000000000000000000000000000000000000000000000000000000000002a3078613463313034646230393337663165383836643563396339373839643666306535626662613735630000000000000000000000000000000000000000000000000000000000000000000000000000000000000000000000000000000000010000000000000000000000000000000000000000000000000000000000000064",
        "nonce": "0x1ae",
        "chainId": "0xaa36a7"
      },
      "additionalContracts": [],
      "isFixedGasLimit": false
    },
    {
      "hash": "0x6c34f31868e053dbbeaef5cbb3dd9c50a1523de8323e1a651f0dc84fb6cd3065",
      "transactionType": "CALL",
      "contractName": "FeeManager",
      "contractAddress": "0xea911684c200ac1fd3ca8a3ffd21afe9ef0e35da",
      "function": "addFeeToken(string,string[],uint256[])",
      "arguments": [
        "11155111",
        "[0xa4c104db0937f1e886d5c9c9789d6f0e5bfba75c]",
        "[100]"
      ],
      "transaction": {
        "from": "0xe62ab4d111f968660c6b2188046f9b9ba53c4bae",
        "to": "0xea911684c200ac1fd3ca8a3ffd21afe9ef0e35da",
        "gas": "0x2cf8e",
        "value": "0x0",
        "input": "0x437bf84f000000000000000000000000000000000000000000000000000000000000006000000000000000000000000000000000000000000000000000000000000000a000000000000000000000000000000000000000000000000000000000000001400000000000000000000000000000000000000000000000000000000000000008313131353531313100000000000000000000000000000000000000000000000000000000000000000000000000000000000000000000000000000000000000010000000000000000000000000000000000000000000000000000000000000020000000000000000000000000000000000000000000000000000000000000002a3078613463313034646230393337663165383836643563396339373839643666306535626662613735630000000000000000000000000000000000000000000000000000000000000000000000000000000000000000000000000000000000010000000000000000000000000000000000000000000000000000000000000064",
        "nonce": "0x1af",
        "chainId": "0xaa36a7"
      },
      "additionalContracts": [],
      "isFixedGasLimit": false
    },
    {
      "hash": "0x70f5e540062d4fbf055920fdb4196458b2434b3bf68359a64d10159175c57cbf",
      "transactionType": "CALL",
      "contractName": "CTMRWAGateway",
      "contractAddress": "0xb07c3788549cd48ad1d4cb9b7336f7c9dd53d67f",
      "function": "addChainContract(string[],string[])",
      "arguments": [
        "[421614, 80002, 84532, 97]",
        "[0x9b81c6a2a62eea2a814afdbb5d69ce0592e1c751, 0x1249d751e6a0b7b11b9e55cbf8bc7d397ac3c083, 0x2d1967ef42ecf9a42785d08398aadba806aa090b, 0x1392fc45312550197adf2039de80e8da58fc72a3]"
      ],
      "transaction": {
        "from": "0xe62ab4d111f968660c6b2188046f9b9ba53c4bae",
        "to": "0xb07c3788549cd48ad1d4cb9b7336f7c9dd53d67f",
        "gas": "0xb415d",
        "value": "0x0",
        "input": "0x013fd3bd000000000000000000000000000000000000000000000000000000000000004000000000000000000000000000000000000000000000000000000000000001e00000000000000000000000000000000000000000000000000000000000000004000000000000000000000000000000000000000000000000000000000000008000000000000000000000000000000000000000000000000000000000000000c000000000000000000000000000000000000000000000000000000000000001000000000000000000000000000000000000000000000000000000000000000140000000000000000000000000000000000000000000000000000000000000000634323136313400000000000000000000000000000000000000000000000000000000000000000000000000000000000000000000000000000000000000000005383030303200000000000000000000000000000000000000000000000000000000000000000000000000000000000000000000000000000000000000000000053834353332000000000000000000000000000000000000000000000000000000000000000000000000000000000000000000000000000000000000000000000239370000000000000000000000000000000000000000000000000000000000000000000000000000000000000000000000000000000000000000000000000004000000000000000000000000000000000000000000000000000000000000008000000000000000000000000000000000000000000000000000000000000000e0000000000000000000000000000000000000000000000000000000000000014000000000000000000000000000000000000000000000000000000000000001a0000000000000000000000000000000000000000000000000000000000000002a30783962383163366132613632656561326138313461666462623564363963653035393265316337353100000000000000000000000000000000000000000000000000000000000000000000000000000000000000000000000000000000002a30783132343964373531653661306237623131623965353563626638626337643339376163336330383300000000000000000000000000000000000000000000000000000000000000000000000000000000000000000000000000000000002a30783264313936376566343265636639613432373835643038333938616164626138303661613039306200000000000000000000000000000000000000000000000000000000000000000000000000000000000000000000000000000000002a30783133393266633435333132353530313937616466323033396465383065386461353866633732613300000000000000000000000000000000000000000000",
        "nonce": "0x1b0",
        "chainId": "0xaa36a7"
      },
      "additionalContracts": [],
      "isFixedGasLimit": false
    },
    {
      "hash": "0x8b586d882cd21004d80abd7bc8e7d39592c81fd67e92355d362c5343128befad",
      "transactionType": "CALL",
      "contractName": "CTMRWAGateway",
      "contractAddress": "0xb07c3788549cd48ad1d4cb9b7336f7c9dd53d67f",
      "function": "attachRWAX(uint256,uint256,string[],string[])",
      "arguments": [
        "1",
        "1",
        "[11155111, 421614, 80002, 84532, 97]",
        "[0x69d461e1314af5e3bcab39f0eba3872c5de2c1e5, 0xe0f1cd117107457bc14c2f1b82e218157c2a620c, 0x797aa64f83e4d17c2c6c80321f22445aab153630, 0xa09e913fa1aa5383a90ad6d8b94bc3dabee90332, 0xc5070659d0290f2eb2b1ed886f3f7574fde5c4be]"
      ],
      "transaction": {
        "from": "0xe62ab4d111f968660c6b2188046f9b9ba53c4bae",
        "to": "0xb07c3788549cd48ad1d4cb9b7336f7c9dd53d67f",
        "gas": "0x1059c5",
        "value": "0x0",
        "input": "0x33a5f5b40000000000000000000000000000000000000000000000000000000000000001000000000000000000000000000000000000000000000000000000000000000100000000000000000000000000000000000000000000000000000000000000800000000000000000000000000000000000000000000000000000000000000280000000000000000000000000000000000000000000000000000000000000000500000000000000000000000000000000000000000000000000000000000000a000000000000000000000000000000000000000000000000000000000000000e00000000000000000000000000000000000000000000000000000000000000120000000000000000000000000000000000000000000000000000000000000016000000000000000000000000000000000000000000000000000000000000001a00000000000000000000000000000000000000000000000000000000000000008313131353531313100000000000000000000000000000000000000000000000000000000000000000000000000000000000000000000000000000000000000063432313631340000000000000000000000000000000000000000000000000000000000000000000000000000000000000000000000000000000000000000000538303030320000000000000000000000000000000000000000000000000000000000000000000000000000000000000000000000000000000000000000000005383435333200000000000000000000000000000000000000000000000000000000000000000000000000000000000000000000000000000000000000000000023937000000000000000000000000000000000000000000000000000000000000000000000000000000000000000000000000000000000000000000000000000500000000000000000000000000000000000000000000000000000000000000a00000000000000000000000000000000000000000000000000000000000000100000000000000000000000000000000000000000000000000000000000000016000000000000000000000000000000000000000000000000000000000000001c00000000000000000000000000000000000000000000000000000000000000220000000000000000000000000000000000000000000000000000000000000002a30783639643436316531333134616635653362636162333966306562613338373263356465326331653500000000000000000000000000000000000000000000000000000000000000000000000000000000000000000000000000000000002a30786530663163643131373130373435376263313463326631623832653231383135376332613632306300000000000000000000000000000000000000000000000000000000000000000000000000000000000000000000000000000000002a30783739376161363466383365346431376332633663383033323166323234343561616231353336333000000000000000000000000000000000000000000000000000000000000000000000000000000000000000000000000000000000002a30786130396539313366613161613533383361393061643664386239346263336461626565393033333200000000000000000000000000000000000000000000000000000000000000000000000000000000000000000000000000000000002a30786335303730363539643032393066326562326231656438383666336637353734666465356334626500000000000000000000000000000000000000000000",
        "nonce": "0x1b1",
        "chainId": "0xaa36a7"
      },
      "additionalContracts": [],
      "isFixedGasLimit": false
    },
    {
      "hash": "0x3d3da04f6618c06a3033cbcd5dd3c3f5006c74e28a2af1dee9278106ca38a2be",
      "transactionType": "CALL",
      "contractName": "CTMRWAGateway",
      "contractAddress": "0xb07c3788549cd48ad1d4cb9b7336f7c9dd53d67f",
      "function": "attachStorageManager(uint256,uint256,string[],string[])",
      "arguments": [
        "1",
        "1",
        "[11155111, 421614, 80002, 84532, 97]",
        "[0x8ee0aee8a42f55ed43f5e7db765fa591c4714c41, 0x78e9f16b42508a9bc0892bff922c09067de08fc5, 0xb406b937c12e03d676727fc1bb686279eedbc178, 0xa840a5ec6557df201a6a1561dbdc8ad6f3b3faf4, 0x8159be9135ecc4893826e40cf19047a79c523008]"
      ],
      "transaction": {
        "from": "0xe62ab4d111f968660c6b2188046f9b9ba53c4bae",
        "to": "0xb07c3788549cd48ad1d4cb9b7336f7c9dd53d67f",
        "gas": "0xe3d34",
        "value": "0x0",
        "input": "0x2f68b4890000000000000000000000000000000000000000000000000000000000000001000000000000000000000000000000000000000000000000000000000000000100000000000000000000000000000000000000000000000000000000000000800000000000000000000000000000000000000000000000000000000000000280000000000000000000000000000000000000000000000000000000000000000500000000000000000000000000000000000000000000000000000000000000a000000000000000000000000000000000000000000000000000000000000000e00000000000000000000000000000000000000000000000000000000000000120000000000000000000000000000000000000000000000000000000000000016000000000000000000000000000000000000000000000000000000000000001a00000000000000000000000000000000000000000000000000000000000000008313131353531313100000000000000000000000000000000000000000000000000000000000000000000000000000000000000000000000000000000000000063432313631340000000000000000000000000000000000000000000000000000000000000000000000000000000000000000000000000000000000000000000538303030320000000000000000000000000000000000000000000000000000000000000000000000000000000000000000000000000000000000000000000005383435333200000000000000000000000000000000000000000000000000000000000000000000000000000000000000000000000000000000000000000000023937000000000000000000000000000000000000000000000000000000000000000000000000000000000000000000000000000000000000000000000000000500000000000000000000000000000000000000000000000000000000000000a00000000000000000000000000000000000000000000000000000000000000100000000000000000000000000000000000000000000000000000000000000016000000000000000000000000000000000000000000000000000000000000001c00000000000000000000000000000000000000000000000000000000000000220000000000000000000000000000000000000000000000000000000000000002a30783865653061656538613432663535656434336635653764623736356661353931633437313463343100000000000000000000000000000000000000000000000000000000000000000000000000000000000000000000000000000000002a30783738653966313662343235303861396263303839326266663932326330393036376465303866633500000000000000000000000000000000000000000000000000000000000000000000000000000000000000000000000000000000002a30786234303662393337633132653033643637363732376663316262363836323739656564626331373800000000000000000000000000000000000000000000000000000000000000000000000000000000000000000000000000000000002a30786138343061356563363535376466323031613661313536316462646338616436663362336661663400000000000000000000000000000000000000000000000000000000000000000000000000000000000000000000000000000000002a30783831353962653931333565636334383933383236653430636631393034376137396335323330303800000000000000000000000000000000000000000000",
        "nonce": "0x1b2",
        "chainId": "0xaa36a7"
      },
      "additionalContracts": [],
      "isFixedGasLimit": false
    }
  ],
  "receipts": [
    {
      "status": "0x1",
      "cumulativeGasUsed": "0xaf9a65",
      "logs": [],
      "logsBloom": "0x00000000000000000000000000000000000000000000000000000000000000000000000000000000000000000000000000000000000000000000000000000000000000000000000000000000000000000000000000000000000000000000000000000000000000000000000000000000000000000000000000000000000000000000000000000000000000000000000000000000000000000000000000000000000000000000000000000000000000000000000000000000000000000000000000000000000000000000000000000000000000000000000000000000000000000000000000000000000000000000000000000000000000000000000000000000",
      "type": "0x2",
      "transactionHash": "0xd84bbd47113f668315b28522a818dec6e3722e66210fc5d7f35b3554584ab946",
      "transactionIndex": "0xe4",
      "blockHash": "0x3ada36cf26e2f1d0a18926b87d8dd5675cf7b95334cb294c459f406473a723d7",
      "blockNumber": "0x6d68da",
      "gasUsed": "0x5eb3",
      "effectiveGasPrice": "0xcc6093c0",
      "from": "0xe62ab4d111f968660c6b2188046f9b9ba53c4bae",
      "to": "0xea911684c200ac1fd3ca8a3ffd21afe9ef0e35da",
      "contractAddress": null
    },
    {
      "status": "0x1",
      "cumulativeGasUsed": "0x8c0b36",
      "logs": [
        {
          "address": "0xea911684c200ac1fd3ca8a3ffd21afe9ef0e35da",
          "topics": [
            "0x1394cfab38f3fc78ed77ea6f9318782a446d96e7dc8e9a6b0149f6be25c08bcf",
            "0x000000000000000000000000a4c104db0937f1e886d5c9c9789d6f0e5bfba75c"
          ],
          "data": "0x",
          "blockHash": "0x46ebc72e6bb20805adb2577960c2f22c33643bcaecb1889c7191a1d8a6e7fbfb",
          "blockNumber": "0x6d68db",
          "transactionHash": "0x44a6b210582eef04d1b8f155c75875183956f1729e3e729e3ebb1450d87e43a0",
          "transactionIndex": "0xa2",
          "logIndex": "0x2f",
          "removed": false
        }
      ],
      "logsBloom": "0x00000000000000000040000000000000000000000000000000000000000000000000000000000000000000000000000000000000000000000000000000000000000008000000000000000000000000000000001000000000000000000000000000000000000000000000000000000000000000000000000000001000000000000000000100000000000000000000000000000000000000000000000000000000000000000000000000000000000000000000004100000000000000000000000000000000000000000000000000000000000000000000000000000000000000000000000000000010000002000000000000000000000000000000000000000000",
      "type": "0x2",
      "transactionHash": "0x44a6b210582eef04d1b8f155c75875183956f1729e3e729e3ebb1450d87e43a0",
      "transactionIndex": "0xa2",
      "blockHash": "0x46ebc72e6bb20805adb2577960c2f22c33643bcaecb1889c7191a1d8a6e7fbfb",
      "blockNumber": "0x6d68db",
      "gasUsed": "0x1be72",
      "effectiveGasPrice": "0xd2e48d2d",
      "from": "0xe62ab4d111f968660c6b2188046f9b9ba53c4bae",
      "to": "0xea911684c200ac1fd3ca8a3ffd21afe9ef0e35da",
      "contractAddress": null
    },
    {
      "status": "0x1",
      "cumulativeGasUsed": "0xaf330c",
      "logs": [],
      "logsBloom": "0x00000000000000000000000000000000000000000000000000000000000000000000000000000000000000000000000000000000000000000000000000000000000000000000000000000000000000000000000000000000000000000000000000000000000000000000000000000000000000000000000000000000000000000000000000000000000000000000000000000000000000000000000000000000000000000000000000000000000000000000000000000000000000000000000000000000000000000000000000000000000000000000000000000000000000000000000000000000000000000000000000000000000000000000000000000000",
      "type": "0x2",
      "transactionHash": "0x7a2a01130873166b5122c3943373c3b983e411a4737036930518516e4684e5af",
      "transactionIndex": "0x92",
      "blockHash": "0x86046c7e582823733fa125ef8eecdea4ce0afc6cbdff732e534a4c68da91a92f",
      "blockNumber": "0x6d68dc",
      "gasUsed": "0xbbf9",
      "effectiveGasPrice": "0xcb7e5c89",
      "from": "0xe62ab4d111f968660c6b2188046f9b9ba53c4bae",
      "to": "0xea911684c200ac1fd3ca8a3ffd21afe9ef0e35da",
      "contractAddress": null
    },
    {
      "status": "0x1",
      "cumulativeGasUsed": "0xd841cd",
      "logs": [],
      "logsBloom": "0x00000000000000000000000000000000000000000000000000000000000000000000000000000000000000000000000000000000000000000000000000000000000000000000000000000000000000000000000000000000000000000000000000000000000000000000000000000000000000000000000000000000000000000000000000000000000000000000000000000000000000000000000000000000000000000000000000000000000000000000000000000000000000000000000000000000000000000000000000000000000000000000000000000000000000000000000000000000000000000000000000000000000000000000000000000000",
      "type": "0x2",
      "transactionHash": "0xbb5a55ef08a95e0712ef89e7507e3046473b791d25bb316c7eaa25d312714685",
      "transactionIndex": "0x9c",
      "blockHash": "0x8f5a3f3da7a10c3124edade509744dd9c3a026b713c54f8640e81eabb5c1fd66",
      "blockNumber": "0x6d68dd",
      "gasUsed": "0xbc22",
      "effectiveGasPrice": "0xceee9357",
      "from": "0xe62ab4d111f968660c6b2188046f9b9ba53c4bae",
      "to": "0xea911684c200ac1fd3ca8a3ffd21afe9ef0e35da",
      "contractAddress": null
    },
    {
      "status": "0x1",
      "cumulativeGasUsed": "0x17b6170",
      "logs": [],
      "logsBloom": "0x00000000000000000000000000000000000000000000000000000000000000000000000000000000000000000000000000000000000000000000000000000000000000000000000000000000000000000000000000000000000000000000000000000000000000000000000000000000000000000000000000000000000000000000000000000000000000000000000000000000000000000000000000000000000000000000000000000000000000000000000000000000000000000000000000000000000000000000000000000000000000000000000000000000000000000000000000000000000000000000000000000000000000000000000000000000",
      "type": "0x2",
      "transactionHash": "0x2c8d0c492a5bf3e36d80a6ab4d90734a1dbf8007b929b90211a7398eda0261fa",
      "transactionIndex": "0x1a0",
      "blockHash": "0x41f55b2f81f7f4687c4cbbeb6621927de9f26e5f26673112e22152e1f52b76dc",
      "blockNumber": "0x6d68df",
      "gasUsed": "0xbc39",
      "effectiveGasPrice": "0xc22aa88e",
      "from": "0xe62ab4d111f968660c6b2188046f9b9ba53c4bae",
      "to": "0xea911684c200ac1fd3ca8a3ffd21afe9ef0e35da",
      "contractAddress": null
    },
    {
      "status": "0x1",
      "cumulativeGasUsed": "0x70a91c",
      "logs": [],
      "logsBloom": "0x00000000000000000000000000000000000000000000000000000000000000000000000000000000000000000000000000000000000000000000000000000000000000000000000000000000000000000000000000000000000000000000000000000000000000000000000000000000000000000000000000000000000000000000000000000000000000000000000000000000000000000000000000000000000000000000000000000000000000000000000000000000000000000000000000000000000000000000000000000000000000000000000000000000000000000000000000000000000000000000000000000000000000000000000000000000",
      "type": "0x2",
      "transactionHash": "0x487512871c9c3ce65a43d042f991ef74fb469e240c0c1b9e00b6c0bdb3643d99",
      "transactionIndex": "0xca",
      "blockHash": "0x7cd320e7def4dfacc766c9cf855fc85e79b779fcb5677d1bd83422c6c6f52ff3",
      "blockNumber": "0x6d68e0",
      "gasUsed": "0xbc50",
      "effectiveGasPrice": "0xda5b8162",
      "from": "0xe62ab4d111f968660c6b2188046f9b9ba53c4bae",
      "to": "0xea911684c200ac1fd3ca8a3ffd21afe9ef0e35da",
      "contractAddress": null
    },
    {
      "status": "0x1",
      "cumulativeGasUsed": "0x840e55",
      "logs": [],
      "logsBloom": "0x00000000000000000000000000000000000000000000000000000000000000000000000000000000000000000000000000000000000000000000000000000000000000000000000000000000000000000000000000000000000000000000000000000000000000000000000000000000000000000000000000000000000000000000000000000000000000000000000000000000000000000000000000000000000000000000000000000000000000000000000000000000000000000000000000000000000000000000000000000000000000000000000000000000000000000000000000000000000000000000000000000000000000000000000000000000",
      "type": "0x2",
      "transactionHash": "0xd2eb4ae860e721255c856ab342dbaca5b0a8278530bb6197b8584f548c883d10",
      "transactionIndex": "0x5d",
      "blockHash": "0x3b0b73c7a1c11ee2f61ea24103525ca99f532ca594b4e85ca545cbc98c4c211e",
      "blockNumber": "0x6d68e1",
      "gasUsed": "0xbc67",
      "effectiveGasPrice": "0xd1a0da0f",
      "from": "0xe62ab4d111f968660c6b2188046f9b9ba53c4bae",
      "to": "0xea911684c200ac1fd3ca8a3ffd21afe9ef0e35da",
      "contractAddress": null
    },
    {
      "status": "0x1",
      "cumulativeGasUsed": "0xc7a70f",
      "logs": [],
      "logsBloom": "0x00000000000000000000000000000000000000000000000000000000000000000000000000000000000000000000000000000000000000000000000000000000000000000000000000000000000000000000000000000000000000000000000000000000000000000000000000000000000000000000000000000000000000000000000000000000000000000000000000000000000000000000000000000000000000000000000000000000000000000000000000000000000000000000000000000000000000000000000000000000000000000000000000000000000000000000000000000000000000000000000000000000000000000000000000000000",
      "type": "0x2",
      "transactionHash": "0x1cecd985a10a228301837563856c02885d0ed7e9073822a2764810366d39344a",
      "transactionIndex": "0x86",
      "blockHash": "0xdccae6ee2044ad7716eb5e78d111b530634e6efeb258bb2bace064a0c419fa66",
      "blockNumber": "0x6d68e2",
      "gasUsed": "0xbc7e",
      "effectiveGasPrice": "0xcf5c42c5",
      "from": "0xe62ab4d111f968660c6b2188046f9b9ba53c4bae",
      "to": "0xea911684c200ac1fd3ca8a3ffd21afe9ef0e35da",
      "contractAddress": null
    },
    {
      "status": "0x1",
      "cumulativeGasUsed": "0x7431f2",
      "logs": [],
      "logsBloom": "0x00000000000000000000000000000000000000000000000000000000000000000000000000000000000000000000000000000000000000000000000000000000000000000000000000000000000000000000000000000000000000000000000000000000000000000000000000000000000000000000000000000000000000000000000000000000000000000000000000000000000000000000000000000000000000000000000000000000000000000000000000000000000000000000000000000000000000000000000000000000000000000000000000000000000000000000000000000000000000000000000000000000000000000000000000000000",
      "type": "0x2",
      "transactionHash": "0x6af7641ba6918d0166776eac9e5e6e5d101b2dd04b5091fa63e442dbda1f92a2",
      "transactionIndex": "0x95",
      "blockHash": "0x8629d1766f946bf876587e0ca5acf2b755d5fd9be3b615bdfb18adbc313776ae",
      "blockNumber": "0x6d68e3",
      "gasUsed": "0xbc95",
      "effectiveGasPrice": "0xd5986167",
      "from": "0xe62ab4d111f968660c6b2188046f9b9ba53c4bae",
      "to": "0xea911684c200ac1fd3ca8a3ffd21afe9ef0e35da",
      "contractAddress": null
    },
    {
      "status": "0x1",
      "cumulativeGasUsed": "0x7f5eca",
      "logs": [],
      "logsBloom": "0x00000000000000000000000000000000000000000000000000000000000000000000000000000000000000000000000000000000000000000000000000000000000000000000000000000000000000000000000000000000000000000000000000000000000000000000000000000000000000000000000000000000000000000000000000000000000000000000000000000000000000000000000000000000000000000000000000000000000000000000000000000000000000000000000000000000000000000000000000000000000000000000000000000000000000000000000000000000000000000000000000000000000000000000000000000000",
      "type": "0x2",
      "transactionHash": "0xaf93f841374e041b21507f0ad168595c37dd55c79d6a9c2e7c287168d442019d",
      "transactionIndex": "0x69",
      "blockHash": "0x430f47a739bb0db842234503326b84d6e0bb00adfae18d55c7d226ca66b7572f",
      "blockNumber": "0x6d68e4",
      "gasUsed": "0xbcac",
      "effectiveGasPrice": "0xcd30fe04",
      "from": "0xe62ab4d111f968660c6b2188046f9b9ba53c4bae",
      "to": "0xea911684c200ac1fd3ca8a3ffd21afe9ef0e35da",
      "contractAddress": null
    },
    {
      "status": "0x1",
      "cumulativeGasUsed": "0x6ffdf3",
      "logs": [],
      "logsBloom": "0x00000000000000000000000000000000000000000000000000000000000000000000000000000000000000000000000000000000000000000000000000000000000000000000000000000000000000000000000000000000000000000000000000000000000000000000000000000000000000000000000000000000000000000000000000000000000000000000000000000000000000000000000000000000000000000000000000000000000000000000000000000000000000000000000000000000000000000000000000000000000000000000000000000000000000000000000000000000000000000000000000000000000000000000000000000000",
      "type": "0x2",
      "transactionHash": "0xdd720e7e79127c00a9770fd6e123a17df507ef9f79d359b14ce0d6d179e37886",
      "transactionIndex": "0x79",
      "blockHash": "0x8f9cc2e2166256ffa7a745213cc968b193554882957e2064a77667c3ab3236de",
      "blockNumber": "0x6d68e5",
      "gasUsed": "0xbcc3",
      "effectiveGasPrice": "0xcbe6657c",
      "from": "0xe62ab4d111f968660c6b2188046f9b9ba53c4bae",
      "to": "0xea911684c200ac1fd3ca8a3ffd21afe9ef0e35da",
      "contractAddress": null
    },
    {
      "status": "0x1",
      "cumulativeGasUsed": "0xf7247d",
      "logs": [],
      "logsBloom": "0x00000000000000000000000000000000000000000000000000000000000000000000000000000000000000000000000000000000000000000000000000000000000000000000000000000000000000000000000000000000000000000000000000000000000000000000000000000000000000000000000000000000000000000000000000000000000000000000000000000000000000000000000000000000000000000000000000000000000000000000000000000000000000000000000000000000000000000000000000000000000000000000000000000000000000000000000000000000000000000000000000000000000000000000000000000000",
      "type": "0x2",
      "transactionHash": "0x0f381752c7b8325d5829579a326b5b047d7da454aa20091e68222e2284e1ff5e",
      "transactionIndex": "0xcd",
      "blockHash": "0xe149bf1762b787e9a46980a8cef6edda819b5e0125170a284b63f515a2fce85b",
      "blockNumber": "0x6d68e7",
      "gasUsed": "0xbcda",
      "effectiveGasPrice": "0xbb017223",
      "from": "0xe62ab4d111f968660c6b2188046f9b9ba53c4bae",
      "to": "0xea911684c200ac1fd3ca8a3ffd21afe9ef0e35da",
      "contractAddress": null
    },
    {
      "status": "0x1",
      "cumulativeGasUsed": "0x91ed59",
      "logs": [],
      "logsBloom": "0x00000000000000000000000000000000000000000000000000000000000000000000000000000000000000000000000000000000000000000000000000000000000000000000000000000000000000000000000000000000000000000000000000000000000000000000000000000000000000000000000000000000000000000000000000000000000000000000000000000000000000000000000000000000000000000000000000000000000000000000000000000000000000000000000000000000000000000000000000000000000000000000000000000000000000000000000000000000000000000000000000000000000000000000000000000000",
      "type": "0x2",
      "transactionHash": "0x989360d9048675334d8d248649e455c9a48d210393716743b6127d252d49ab73",
      "transactionIndex": "0x96",
      "blockHash": "0x0e0c07b995d9f312ed53e280f1a1c1dd63a1bec4a23d78f2d81d3ff65e40b2aa",
      "blockNumber": "0x6d68e8",
      "gasUsed": "0xbcf1",
      "effectiveGasPrice": "0xd0fd03a8",
      "from": "0xe62ab4d111f968660c6b2188046f9b9ba53c4bae",
      "to": "0xea911684c200ac1fd3ca8a3ffd21afe9ef0e35da",
      "contractAddress": null
    },
    {
      "status": "0x1",
      "cumulativeGasUsed": "0xc003cd",
      "logs": [],
      "logsBloom": "0x00000000000000000000000000000000000000000000000000000000000000000000000000000000000000000000000000000000000000000000000000000000000000000000000000000000000000000000000000000000000000000000000000000000000000000000000000000000000000000000000000000000000000000000000000000000000000000000000000000000000000000000000000000000000000000000000000000000000000000000000000000000000000000000000000000000000000000000000000000000000000000000000000000000000000000000000000000000000000000000000000000000000000000000000000000000",
      "type": "0x2",
      "transactionHash": "0xb8005c59765f840556f2d1d4d22e7710b45cf8727c1d57c2fca6629941eead5b",
      "transactionIndex": "0x113",
      "blockHash": "0x33910e8cafacfa6faced2950074f7b21e6dc5c5c157cddce28e191a1e10c4375",
      "blockNumber": "0x6d68e9",
      "gasUsed": "0xbd08",
      "effectiveGasPrice": "0xce6b8943",
      "from": "0xe62ab4d111f968660c6b2188046f9b9ba53c4bae",
      "to": "0xea911684c200ac1fd3ca8a3ffd21afe9ef0e35da",
      "contractAddress": null
    },
    {
      "status": "0x1",
      "cumulativeGasUsed": "0xae8c6c",
      "logs": [],
      "logsBloom": "0x00000000000000000000000000000000000000000000000000000000000000000000000000000000000000000000000000000000000000000000000000000000000000000000000000000000000000000000000000000000000000000000000000000000000000000000000000000000000000000000000000000000000000000000000000000000000000000000000000000000000000000000000000000000000000000000000000000000000000000000000000000000000000000000000000000000000000000000000000000000000000000000000000000000000000000000000000000000000000000000000000000000000000000000000000000000",
      "type": "0x2",
      "transactionHash": "0x0536c4a26502c220f6abe3d08cc1a610b24683a8dfb03c5f7fd72b62f6af9d08",
      "transactionIndex": "0x3c",
      "blockHash": "0x38e471b00b9f287736ffe2ad60e17666694e138911fe3431d10da0ead67154dc",
      "blockNumber": "0x6d68ea",
      "gasUsed": "0xbd1f",
      "effectiveGasPrice": "0xce5363fd",
      "from": "0xe62ab4d111f968660c6b2188046f9b9ba53c4bae",
      "to": "0xea911684c200ac1fd3ca8a3ffd21afe9ef0e35da",
      "contractAddress": null
    },
    {
      "status": "0x1",
      "cumulativeGasUsed": "0xccdfc9",
      "logs": [],
      "logsBloom": "0x00000000000000000000000000000000000000000000000000000000000000000000000000000000000000000000000000000000000000000000000000000000000000000000000000000000000000000000000000000000000000000000000000000000000000000000000000000000000000000000000000000000000000000000000000000000000000000000000000000000000000000000000000000000000000000000000000000000000000000000000000000000000000000000000000000000000000000000000000000000000000000000000000000000000000000000000000000000000000000000000000000000000000000000000000000000",
      "type": "0x2",
      "transactionHash": "0x49f4c684c0799d0fc0b982f1047294bb00ee56248cd9799c9c0fb1f03e138c5d",
      "transactionIndex": "0x1c0",
      "blockHash": "0x62b8d3e0b74fec4e1dc3c0165cc15939fef592f128b0be99b51da0eef4165128",
      "blockNumber": "0x6d68ec",
      "gasUsed": "0xbd36",
      "effectiveGasPrice": "0xc46bb84e",
      "from": "0xe62ab4d111f968660c6b2188046f9b9ba53c4bae",
      "to": "0xea911684c200ac1fd3ca8a3ffd21afe9ef0e35da",
      "contractAddress": null
    },
    {
      "status": "0x1",
      "cumulativeGasUsed": "0x3c6877",
      "logs": [],
      "logsBloom": "0x00000000000000000000000000000000000000000000000000000000000000000000000000000000000000000000000000000000000000000000000000000000000000000000000000000000000000000000000000000000000000000000000000000000000000000000000000000000000000000000000000000000000000000000000000000000000000000000000000000000000000000000000000000000000000000000000000000000000000000000000000000000000000000000000000000000000000000000000000000000000000000000000000000000000000000000000000000000000000000000000000000000000000000000000000000000",
      "type": "0x2",
      "transactionHash": "0x2e6d5c533f2f6fadb496c7e60b716b67ac40cf8eff29d74bde74998999525442",
      "transactionIndex": "0x52",
      "blockHash": "0x1feaeb3c5da8fa364254dde0cf5d33754e05bff6d148f6ea964934d3ac0f88ab",
      "blockNumber": "0x6d68ed",
      "gasUsed": "0xbd4d",
      "effectiveGasPrice": "0xca08ab7c",
      "from": "0xe62ab4d111f968660c6b2188046f9b9ba53c4bae",
      "to": "0xea911684c200ac1fd3ca8a3ffd21afe9ef0e35da",
      "contractAddress": null
    },
    {
      "status": "0x1",
      "cumulativeGasUsed": "0xdfcd38",
      "logs": [],
      "logsBloom": "0x00000000000000000000000000000000000000000000000000000000000000000000000000000000000000000000000000000000000000000000000000000000000000000000000000000000000000000000000000000000000000000000000000000000000000000000000000000000000000000000000000000000000000000000000000000000000000000000000000000000000000000000000000000000000000000000000000000000000000000000000000000000000000000000000000000000000000000000000000000000000000000000000000000000000000000000000000000000000000000000000000000000000000000000000000000000",
      "type": "0x2",
      "transactionHash": "0xf546ce3f09e78f22837ac79a9ea55ae8765d43f41e0234965f0a24deee791604",
      "transactionIndex": "0xa9",
      "blockHash": "0x2ab065f63ce7b43b71e40f074879ccdf33ba41b2e01bedd7c69cce059ba72e84",
      "blockNumber": "0x6d68ee",
      "gasUsed": "0xbd64",
      "effectiveGasPrice": "0xbf96621f",
      "from": "0xe62ab4d111f968660c6b2188046f9b9ba53c4bae",
      "to": "0xea911684c200ac1fd3ca8a3ffd21afe9ef0e35da",
      "contractAddress": null
    },
    {
      "status": "0x1",
      "cumulativeGasUsed": "0xeae75f",
      "logs": [],
      "logsBloom": "0x00000000000000000000000000000000000000000000000000000000000000000000000000000000000000000000000000000000000000000000000000000000000000000000000000000000000000000000000000000000000000000000000000000000000000000000000000000000000000000000000000000000000000000000000000000000000000000000000000000000000000000000000000000000000000000000000000000000000000000000000000000000000000000000000000000000000000000000000000000000000000000000000000000000000000000000000000000000000000000000000000000000000000000000000000000000",
      "type": "0x2",
      "transactionHash": "0x8a9fec28b5f6ec633bb5442d3e5d82faa046884ce1053ea201c99eac243931b6",
      "transactionIndex": "0xe4",
      "blockHash": "0xaf36bc7e02ead447c2629dc13b769b7b304a42245156f3d17eb4218e63c73ac6",
      "blockNumber": "0x6d68f0",
      "gasUsed": "0xbd7b",
      "effectiveGasPrice": "0xb0946be0",
      "from": "0xe62ab4d111f968660c6b2188046f9b9ba53c4bae",
      "to": "0xea911684c200ac1fd3ca8a3ffd21afe9ef0e35da",
      "contractAddress": null
    },
    {
      "status": "0x1",
      "cumulativeGasUsed": "0x8cb7ba",
      "logs": [],
      "logsBloom": "0x00000000000000000000000000000000000000000000000000000000000000000000000000000000000000000000000000000000000000000000000000000000000000000000000000000000000000000000000000000000000000000000000000000000000000000000000000000000000000000000000000000000000000000000000000000000000000000000000000000000000000000000000000000000000000000000000000000000000000000000000000000000000000000000000000000000000000000000000000000000000000000000000000000000000000000000000000000000000000000000000000000000000000000000000000000000",
      "type": "0x2",
      "transactionHash": "0xd14a6c69946a9a2d2cc9d6ea32e05a27c73d49f9b3d72303f1fe8cbc0ed83d70",
      "transactionIndex": "0xfe",
      "blockHash": "0xc670bd8e3aaa6ee27522908e748822a7c0170bfa3a7c02234d4d4f92cb029e61",
      "blockNumber": "0x6d68f1",
      "gasUsed": "0xbd92",
      "effectiveGasPrice": "0xbfe846ce",
      "from": "0xe62ab4d111f968660c6b2188046f9b9ba53c4bae",
      "to": "0xea911684c200ac1fd3ca8a3ffd21afe9ef0e35da",
      "contractAddress": null
    },
    {
      "status": "0x1",
      "cumulativeGasUsed": "0xb00088",
      "logs": [],
      "logsBloom": "0x00000000000000000000000000000000000000000000000000000000000000000000000000000000000000000000000000000000000000000000000000000000000000000000000000000000000000000000000000000000000000000000000000000000000000000000000000000000000000000000000000000000000000000000000000000000000000000000000000000000000000000000000000000000000000000000000000000000000000000000000000000000000000000000000000000000000000000000000000000000000000000000000000000000000000000000000000000000000000000000000000000000000000000000000000000000",
      "type": "0x2",
      "transactionHash": "0xf14215f4a1afe8c6b724b87af1e3a8add1205f98782ffc1d7afc98b7469d726a",
      "transactionIndex": "0x58",
      "blockHash": "0xf8080d71cb2e72fb0681cb3da264730b6e049f79824ba7aa7eeae8ae799c7b66",
      "blockNumber": "0x6d68f3",
      "gasUsed": "0xbda9",
      "effectiveGasPrice": "0xaa6cb4a7",
      "from": "0xe62ab4d111f968660c6b2188046f9b9ba53c4bae",
      "to": "0xea911684c200ac1fd3ca8a3ffd21afe9ef0e35da",
      "contractAddress": null
    },
    {
      "status": "0x1",
      "cumulativeGasUsed": "0x766a92",
      "logs": [],
      "logsBloom": "0x00000000000000000000000000000000000000000000000000000000000000000000000000000000000000000000000000000000000000000000000000000000000000000000000000000000000000000000000000000000000000000000000000000000000000000000000000000000000000000000000000000000000000000000000000000000000000000000000000000000000000000000000000000000000000000000000000000000000000000000000000000000000000000000000000000000000000000000000000000000000000000000000000000000000000000000000000000000000000000000000000000000000000000000000000000000",
      "type": "0x2",
      "transactionHash": "0xacd254ef454dad4d0340b27af02dcb0267b109b1860d1df837b5fa015ceaf1f0",
      "transactionIndex": "0x92",
      "blockHash": "0x7db33115cae49b1b7252565354f2c43d5866a5af0b6eab6286130f4b92d01873",
      "blockNumber": "0x6d68f4",
      "gasUsed": "0xbdbb",
      "effectiveGasPrice": "0xb676ffe1",
      "from": "0xe62ab4d111f968660c6b2188046f9b9ba53c4bae",
      "to": "0xea911684c200ac1fd3ca8a3ffd21afe9ef0e35da",
      "contractAddress": null
    },
    {
      "status": "0x1",
      "cumulativeGasUsed": "0x9824c2",
      "logs": [],
      "logsBloom": "0x00000000000000000000000000000000000000000000000000000000000000000000000000000000000000000000000000000000000000000000000000000000000000000000000000000000000000000000000000000000000000000000000000000000000000000000000000000000000000000000000000000000000000000000000000000000000000000000000000000000000000000000000000000000000000000000000000000000000000000000000000000000000000000000000000000000000000000000000000000000000000000000000000000000000000000000000000000000000000000000000000000000000000000000000000000000",
      "type": "0x2",
      "transactionHash": "0x09517c07cd0e49fe208043bfa3d33df8ed1dc6e6da905eaacc67274e0da6cffe",
      "transactionIndex": "0x5d",
      "blockHash": "0x57f06cd41fb65cceb7330ac68f662ecc0115dd89a50439559e97e7a93cac0f7d",
      "blockNumber": "0x6d68f5",
      "gasUsed": "0x223f5",
      "effectiveGasPrice": "0xaf2aea8c",
      "from": "0xe62ab4d111f968660c6b2188046f9b9ba53c4bae",
      "to": "0xea911684c200ac1fd3ca8a3ffd21afe9ef0e35da",
      "contractAddress": null
    },
    {
      "status": "0x1",
      "cumulativeGasUsed": "0xa22047",
      "logs": [],
      "logsBloom": "0x00000000000000000000000000000000000000000000000000000000000000000000000000000000000000000000000000000000000000000000000000000000000000000000000000000000000000000000000000000000000000000000000000000000000000000000000000000000000000000000000000000000000000000000000000000000000000000000000000000000000000000000000000000000000000000000000000000000000000000000000000000000000000000000000000000000000000000000000000000000000000000000000000000000000000000000000000000000000000000000000000000000000000000000000000000000",
      "type": "0x2",
      "transactionHash": "0xd9cc96f12a8141b70a2eb9cc6e692282c9ecac8070edbaf68bd5ef0b9e10d6e0",
      "transactionIndex": "0x88",
      "blockHash": "0xfcce5c69b492d83d5e4625acb3475ddfeae2211bcd6007edb1090fb63b4977c1",
      "blockNumber": "0x6d68f7",
      "gasUsed": "0x1e775",
      "effectiveGasPrice": "0xa5e4b20c",
      "from": "0xe62ab4d111f968660c6b2188046f9b9ba53c4bae",
      "to": "0xea911684c200ac1fd3ca8a3ffd21afe9ef0e35da",
      "contractAddress": null
    },
    {
      "status": "0x1",
      "cumulativeGasUsed": "0x3e7325",
      "logs": [],
      "logsBloom": "0x00000000000000000000000000000000000000000000000000000000000000000000000000000000000000000000000000000000000000000000000000000000000000000000000000000000000000000000000000000000000000000000000000000000000000000000000000000000000000000000000000000000000000000000000000000000000000000000000000000000000000000000000000000000000000000000000000000000000000000000000000000000000000000000000000000000000000000000000000000000000000000000000000000000000000000000000000000000000000000000000000000000000000000000000000000000",
      "type": "0x2",
      "transactionHash": "0x8dc90410bff2ec3a51a9d40feb8cd721110feab82c3a7db9f011a53112d7cea3",
      "transactionIndex": "0x49",
      "blockHash": "0x4b14405f62d52007c59ee909513d1f7e645b4eb96bea65d41ca1875fd2d25061",
      "blockNumber": "0x6d68f8",
      "gasUsed": "0x1e775",
      "effectiveGasPrice": "0xb00e1bec",
      "from": "0xe62ab4d111f968660c6b2188046f9b9ba53c4bae",
      "to": "0xea911684c200ac1fd3ca8a3ffd21afe9ef0e35da",
      "contractAddress": null
    },
    {
      "status": "0x1",
      "cumulativeGasUsed": "0x9e60d2",
      "logs": [],
      "logsBloom": "0x00000000000000000000000000000000000000000000000000000000000000000000000000000000000000000000000000000000000000000000000000000000000000000000000000000000000000000000000000000000000000000000000000000000000000000000000000000000000000000000000000000000000000000000000000000000000000000000000000000000000000000000000000000000000000000000000000000000000000000000000000000000000000000000000000000000000000000000000000000000000000000000000000000000000000000000000000000000000000000000000000000000000000000000000000000000",
      "type": "0x2",
      "transactionHash": "0x618c9b70dd42b42988948c7af5f8cc5223dee9bdcee76ea5a095f9b2339475b6",
      "transactionIndex": "0x82",
      "blockHash": "0x2e74fbb51f6a22c86f9972017aaeb110638a44e0cb9ca9c7305083fe8e6c13a2",
      "blockNumber": "0x6d68f9",
      "gasUsed": "0x1e2e9",
      "effectiveGasPrice": "0xa85dc3c9",
      "from": "0xe62ab4d111f968660c6b2188046f9b9ba53c4bae",
      "to": "0xea911684c200ac1fd3ca8a3ffd21afe9ef0e35da",
      "contractAddress": null
    },
    {
      "status": "0x1",
      "cumulativeGasUsed": "0x70fd8a",
      "logs": [],
      "logsBloom": "0x00000000000000000000000000000000000000000000000000000000000000000000000000000000000000000000000000000000000000000000000000000000000000000000000000000000000000000000000000000000000000000000000000000000000000000000000000000000000000000000000000000000000000000000000000000000000000000000000000000000000000000000000000000000000000000000000000000000000000000000000000000000000000000000000000000000000000000000000000000000000000000000000000000000000000000000000000000000000000000000000000000000000000000000000000000000",
      "type": "0x2",
      "transactionHash": "0x6c34f31868e053dbbeaef5cbb3dd9c50a1523de8323e1a651f0dc84fb6cd3065",
      "transactionIndex": "0xa6",
      "blockHash": "0x162d6ce628d483f5eebf570724168905913c1ba02bb5e340dbd688f0edc9fd50",
      "blockNumber": "0x6d68fa",
      "gasUsed": "0x1ec01",
      "effectiveGasPrice": "0xa872b33d",
      "from": "0xe62ab4d111f968660c6b2188046f9b9ba53c4bae",
      "to": "0xea911684c200ac1fd3ca8a3ffd21afe9ef0e35da",
      "contractAddress": null
    },
    {
      "status": "0x1",
      "cumulativeGasUsed": "0xbf4efe",
      "logs": [],
      "logsBloom": "0x00000000000000000000000000000000000000000000000000000000000000000000000000000000000000000000000000000000000000000000000000000000000000000000000000000000000000000000000000000000000000000000000000000000000000000000000000000000000000000000000000000000000000000000000000000000000000000000000000000000000000000000000000000000000000000000000000000000000000000000000000000000000000000000000000000000000000000000000000000000000000000000000000000000000000000000000000000000000000000000000000000000000000000000000000000000",
      "type": "0x2",
      "transactionHash": "0x70f5e540062d4fbf055920fdb4196458b2434b3bf68359a64d10159175c57cbf",
      "transactionIndex": "0x11d",
      "blockHash": "0xdd7a65df7ee0ed1464f6e6f5f78c5de2ebecaddcf276f0c5fb7c3f588d7c03ce",
      "blockNumber": "0x6d68fb",
      "gasUsed": "0x7b22a",
      "effectiveGasPrice": "0xa10fb80e",
      "from": "0xe62ab4d111f968660c6b2188046f9b9ba53c4bae",
      "to": "0xb07c3788549cd48ad1d4cb9b7336f7c9dd53d67f",
      "contractAddress": null
    },
    {
      "status": "0x1",
      "cumulativeGasUsed": "0xad149d",
      "logs": [],
      "logsBloom": "0x00000000000000000000000000000000000000000000000000000000000000000000000000000000000000000000000000000000000000000000000000000000000000000000000000000000000000000000000000000000000000000000000000000000000000000000000000000000000000000000000000000000000000000000000000000000000000000000000000000000000000000000000000000000000000000000000000000000000000000000000000000000000000000000000000000000000000000000000000000000000000000000000000000000000000000000000000000000000000000000000000000000000000000000000000000000",
      "type": "0x2",
      "transactionHash": "0x8b586d882cd21004d80abd7bc8e7d39592c81fd67e92355d362c5343128befad",
      "transactionIndex": "0xa2",
      "blockHash": "0x0fbc3a80b55c18dec00444a54326e48932deffbe90fd99a6b1e9fbc88d4d7c28",
      "blockNumber": "0x6d68fc",
      "gasUsed": "0xbd66d",
      "effectiveGasPrice": "0xa808a1a5",
      "from": "0xe62ab4d111f968660c6b2188046f9b9ba53c4bae",
      "to": "0xb07c3788549cd48ad1d4cb9b7336f7c9dd53d67f",
      "contractAddress": null
    },
    {
      "status": "0x1",
      "cumulativeGasUsed": "0xba1313",
      "logs": [],
      "logsBloom": "0x00000000000000000000000000000000000000000000000000000000000000000000000000000000000000000000000000000000000000000000000000000000000000000000000000000000000000000000000000000000000000000000000000000000000000000000000000000000000000000000000000000000000000000000000000000000000000000000000000000000000000000000000000000000000000000000000000000000000000000000000000000000000000000000000000000000000000000000000000000000000000000000000000000000000000000000000000000000000000000000000000000000000000000000000000000000",
      "type": "0x2",
      "transactionHash": "0x3d3da04f6618c06a3033cbcd5dd3c3f5006c74e28a2af1dee9278106ca38a2be",
      "transactionIndex": "0xdf",
      "blockHash": "0x5f7b7d9e7780797c0951a2bcfc0804f7a9b46f6caf168ff070c8f3b4d1638834",
      "blockNumber": "0x6d68fd",
      "gasUsed": "0x9bc73",
      "effectiveGasPrice": "0xa684180e",
      "from": "0xe62ab4d111f968660c6b2188046f9b9ba53c4bae",
      "to": "0xb07c3788549cd48ad1d4cb9b7336f7c9dd53d67f",
      "contractAddress": null
    }
  ],
  "libraries": [],
  "pending": [],
  "returns": {},
  "timestamp": 1732801297,
  "chain": 11155111,
  "commit": "9c84b963"
}