{
  "transactions": [
    {
      "hash": "0x652b03a29957066f61181952b6b31c901cf75a50ca72d871b8758e91bb25ba27",
      "transactionType": "CALL",
      "contractName": "FeeManager",
      "contractAddress": "0x0872133516d5fe7b9b8a618aa0463ae0d776a865",
      "function": "getFeeTokenList()",
      "arguments": [],
      "transaction": {
        "from": "0xe62ab4d111f968660c6b2188046f9b9ba53c4bae",
        "to": "0x0872133516d5fe7b9b8a618aa0463ae0d776a865",
        "gas": "0x8a7e",
        "value": "0x0",
        "input": "0xe28ab277",
        "nonce": "0xdc",
        "chainId": "0xaa36a7"
      },
      "additionalContracts": [],
      "isFixedGasLimit": false
    },
    {
      "hash": "0xed71c35a35abdfbd3b9ba865aa6b2a8a8c6fe3e12f16d602617db16463a129d9",
      "transactionType": "CALL",
      "contractName": "FeeManager",
      "contractAddress": "0x0872133516d5fe7b9b8a618aa0463ae0d776a865",
      "function": "addFeeToken(string)",
      "arguments": [
        "0xa4c104db0937f1e886d5c9c9789d6f0e5bfba75c"
      ],
      "transaction": {
        "from": "0xe62ab4d111f968660c6b2188046f9b9ba53c4bae",
        "to": "0x0872133516d5fe7b9b8a618aa0463ae0d776a865",
        "gas": "0x28cec",
        "value": "0x0",
        "input": "0x12a6385f0000000000000000000000000000000000000000000000000000000000000020000000000000000000000000000000000000000000000000000000000000002a30786134633130346462303933376631653838366435633963393738396436663065356266626137356300000000000000000000000000000000000000000000",
        "nonce": "0xdd",
        "chainId": "0xaa36a7"
      },
      "additionalContracts": [],
      "isFixedGasLimit": false
    },
    {
      "hash": "0x2cd7de6a35e9939aa56175b0ba48209ca74a8d9825aee3e9f4b03bb14129b4e2",
      "transactionType": "CALL",
      "contractName": "FeeManager",
      "contractAddress": "0x0872133516d5fe7b9b8a618aa0463ae0d776a865",
      "function": "setFeeMultiplier(uint8,uint256)",
      "arguments": [
        "0",
        "2"
      ],
      "transaction": {
        "from": "0xe62ab4d111f968660c6b2188046f9b9ba53c4bae",
        "to": "0x0872133516d5fe7b9b8a618aa0463ae0d776a865",
        "gas": "0x112e8",
        "value": "0x0",
        "input": "0x0ee24eb500000000000000000000000000000000000000000000000000000000000000000000000000000000000000000000000000000000000000000000000000000002",
        "nonce": "0xde",
        "chainId": "0xaa36a7"
      },
      "additionalContracts": [],
      "isFixedGasLimit": false
    },
    {
      "hash": "0x1b5a981fd0723210661d98eaf67cb51e34e4f562c1186065adb424aada806d95",
      "transactionType": "CALL",
      "contractName": "FeeManager",
      "contractAddress": "0x0872133516d5fe7b9b8a618aa0463ae0d776a865",
      "function": "setFeeMultiplier(uint8,uint256)",
      "arguments": [
        "1",
        "10"
      ],
      "transaction": {
        "from": "0xe62ab4d111f968660c6b2188046f9b9ba53c4bae",
        "to": "0x0872133516d5fe7b9b8a618aa0463ae0d776a865",
        "gas": "0x11324",
        "value": "0x0",
        "input": "0x0ee24eb50000000000000000000000000000000000000000000000000000000000000001000000000000000000000000000000000000000000000000000000000000000a",
        "nonce": "0xdf",
        "chainId": "0xaa36a7"
      },
      "additionalContracts": [],
      "isFixedGasLimit": false
    },
    {
      "hash": "0xa5cdfc437ff35c896709994ed10e1a5b0099c0533d6c72f5218bd84ef1244106",
      "transactionType": "CALL",
      "contractName": "FeeManager",
      "contractAddress": "0x0872133516d5fe7b9b8a618aa0463ae0d776a865",
      "function": "setFeeMultiplier(uint8,uint256)",
      "arguments": [
        "2",
        "1"
      ],
      "transaction": {
        "from": "0xe62ab4d111f968660c6b2188046f9b9ba53c4bae",
        "to": "0x0872133516d5fe7b9b8a618aa0463ae0d776a865",
        "gas": "0x11346",
        "value": "0x0",
        "input": "0x0ee24eb500000000000000000000000000000000000000000000000000000000000000020000000000000000000000000000000000000000000000000000000000000001",
        "nonce": "0xe0",
        "chainId": "0xaa36a7"
      },
      "additionalContracts": [],
      "isFixedGasLimit": false
    },
    {
      "hash": "0xe18a0c73a7072bc102ba46fc42efb5c3e9dca8677720256df8b268a91487d13e",
      "transactionType": "CALL",
      "contractName": "FeeManager",
      "contractAddress": "0x0872133516d5fe7b9b8a618aa0463ae0d776a865",
      "function": "setFeeMultiplier(uint8,uint256)",
      "arguments": [
        "3",
        "4"
      ],
      "transaction": {
        "from": "0xe62ab4d111f968660c6b2188046f9b9ba53c4bae",
        "to": "0x0872133516d5fe7b9b8a618aa0463ae0d776a865",
        "gas": "0x1041b",
        "value": "0x0",
        "input": "0x0ee24eb500000000000000000000000000000000000000000000000000000000000000030000000000000000000000000000000000000000000000000000000000000004",
        "nonce": "0xe1",
        "chainId": "0xaa36a7"
      },
      "additionalContracts": [],
      "isFixedGasLimit": false
    },
    {
      "hash": "0xab332ec8b70cefcc009442831195e35b5ff2abd8e68d84450f0b9f878fbc6dd8",
      "transactionType": "CALL",
      "contractName": "FeeManager",
      "contractAddress": "0x0872133516d5fe7b9b8a618aa0463ae0d776a865",
      "function": "setFeeMultiplier(uint8,uint256)",
      "arguments": [
        "4",
        "4"
      ],
      "transaction": {
        "from": "0xe62ab4d111f968660c6b2188046f9b9ba53c4bae",
        "to": "0x0872133516d5fe7b9b8a618aa0463ae0d776a865",
        "gas": "0x1043a",
        "value": "0x0",
        "input": "0x0ee24eb500000000000000000000000000000000000000000000000000000000000000040000000000000000000000000000000000000000000000000000000000000004",
        "nonce": "0xe2",
        "chainId": "0xaa36a7"
      },
      "additionalContracts": [],
      "isFixedGasLimit": false
    },
    {
      "hash": "0x48381dc890f027c3573dc7bd03f918ec45a3c2a83fec505c6bbd927428931eff",
      "transactionType": "CALL",
      "contractName": "FeeManager",
      "contractAddress": "0x0872133516d5fe7b9b8a618aa0463ae0d776a865",
      "function": "setFeeMultiplier(uint8,uint256)",
      "arguments": [
        "5",
        "8"
      ],
      "transaction": {
        "from": "0xe62ab4d111f968660c6b2188046f9b9ba53c4bae",
        "to": "0x0872133516d5fe7b9b8a618aa0463ae0d776a865",
        "gas": "0x10459",
        "value": "0x0",
        "input": "0x0ee24eb500000000000000000000000000000000000000000000000000000000000000050000000000000000000000000000000000000000000000000000000000000008",
        "nonce": "0xe3",
        "chainId": "0xaa36a7"
      },
      "additionalContracts": [],
      "isFixedGasLimit": false
    },
    {
      "hash": "0x3b7f78559b25f7011adb591c241dca69afbf2223d5679957a482f0f441369c00",
      "transactionType": "CALL",
      "contractName": "FeeManager",
      "contractAddress": "0x0872133516d5fe7b9b8a618aa0463ae0d776a865",
      "function": "setFeeMultiplier(uint8,uint256)",
      "arguments": [
        "6",
        "4"
      ],
      "transaction": {
        "from": "0xe62ab4d111f968660c6b2188046f9b9ba53c4bae",
        "to": "0x0872133516d5fe7b9b8a618aa0463ae0d776a865",
        "gas": "0x1047a",
        "value": "0x0",
        "input": "0x0ee24eb500000000000000000000000000000000000000000000000000000000000000060000000000000000000000000000000000000000000000000000000000000004",
        "nonce": "0xe4",
        "chainId": "0xaa36a7"
      },
      "additionalContracts": [],
      "isFixedGasLimit": false
    },
    {
      "hash": "0xe023008fa5f68607e8748843b794bebbd30e129d934386cdb99eebddb8c1f952",
      "transactionType": "CALL",
      "contractName": "FeeManager",
      "contractAddress": "0x0872133516d5fe7b9b8a618aa0463ae0d776a865",
      "function": "setFeeMultiplier(uint8,uint256)",
      "arguments": [
        "7",
        "10"
      ],
      "transaction": {
        "from": "0xe62ab4d111f968660c6b2188046f9b9ba53c4bae",
        "to": "0x0872133516d5fe7b9b8a618aa0463ae0d776a865",
        "gas": "0x10499",
        "value": "0x0",
        "input": "0x0ee24eb50000000000000000000000000000000000000000000000000000000000000007000000000000000000000000000000000000000000000000000000000000000a",
        "nonce": "0xe5",
        "chainId": "0xaa36a7"
      },
      "additionalContracts": [],
      "isFixedGasLimit": false
    },
    {
      "hash": "0x4a7e39519e65a23a8eceae8f0681e8110c0572b7490aa5423bcee7f27b77ae02",
      "transactionType": "CALL",
      "contractName": "FeeManager",
      "contractAddress": "0x0872133516d5fe7b9b8a618aa0463ae0d776a865",
      "function": "setFeeMultiplier(uint8,uint256)",
      "arguments": [
        "8",
        "8"
      ],
      "transaction": {
        "from": "0xe62ab4d111f968660c6b2188046f9b9ba53c4bae",
        "to": "0x0872133516d5fe7b9b8a618aa0463ae0d776a865",
        "gas": "0x1140f",
        "value": "0x0",
        "input": "0x0ee24eb500000000000000000000000000000000000000000000000000000000000000080000000000000000000000000000000000000000000000000000000000000008",
        "nonce": "0xe6",
        "chainId": "0xaa36a7"
      },
      "additionalContracts": [],
      "isFixedGasLimit": false
    },
    {
      "hash": "0x860ac29f481103252c716d1929bdb40ea75ab98fb6c2c5642ec00cf0a4a00638",
      "transactionType": "CALL",
      "contractName": "FeeManager",
      "contractAddress": "0x0872133516d5fe7b9b8a618aa0463ae0d776a865",
      "function": "setFeeMultiplier(uint8,uint256)",
      "arguments": [
        "9",
        "8"
      ],
      "transaction": {
        "from": "0xe62ab4d111f968660c6b2188046f9b9ba53c4bae",
        "to": "0x0872133516d5fe7b9b8a618aa0463ae0d776a865",
        "gas": "0x11431",
        "value": "0x0",
        "input": "0x0ee24eb500000000000000000000000000000000000000000000000000000000000000090000000000000000000000000000000000000000000000000000000000000008",
        "nonce": "0xe7",
        "chainId": "0xaa36a7"
      },
      "additionalContracts": [],
      "isFixedGasLimit": false
    },
    {
      "hash": "0x42e80466b6620977e4dbde951781e8b2ef21ab341eeddb15be01ed51c43a21f8",
      "transactionType": "CALL",
      "contractName": "FeeManager",
      "contractAddress": "0x0872133516d5fe7b9b8a618aa0463ae0d776a865",
      "function": "setFeeMultiplier(uint8,uint256)",
      "arguments": [
        "10",
        "8"
      ],
      "transaction": {
        "from": "0xe62ab4d111f968660c6b2188046f9b9ba53c4bae",
        "to": "0x0872133516d5fe7b9b8a618aa0463ae0d776a865",
        "gas": "0x11453",
        "value": "0x0",
        "input": "0x0ee24eb5000000000000000000000000000000000000000000000000000000000000000a0000000000000000000000000000000000000000000000000000000000000008",
        "nonce": "0xe8",
        "chainId": "0xaa36a7"
      },
      "additionalContracts": [],
      "isFixedGasLimit": false
    },
    {
      "hash": "0xde538fc77d4fefb9200fc238fc3efc1e4996ad98e8b36e8927a275d73d24b1df",
      "transactionType": "CALL",
      "contractName": "FeeManager",
      "contractAddress": "0x0872133516d5fe7b9b8a618aa0463ae0d776a865",
      "function": "setFeeMultiplier(uint8,uint256)",
      "arguments": [
        "11",
        "20"
      ],
      "transaction": {
        "from": "0xe62ab4d111f968660c6b2188046f9b9ba53c4bae",
        "to": "0x0872133516d5fe7b9b8a618aa0463ae0d776a865",
        "gas": "0x10518",
        "value": "0x0",
        "input": "0x0ee24eb5000000000000000000000000000000000000000000000000000000000000000b0000000000000000000000000000000000000000000000000000000000000014",
        "nonce": "0xe9",
        "chainId": "0xaa36a7"
      },
      "additionalContracts": [],
      "isFixedGasLimit": false
    },
    {
      "hash": "0x51424413718094bc0d039a2748549065e63fe58eda424a633547de47c2dd0231",
      "transactionType": "CALL",
      "contractName": "FeeManager",
      "contractAddress": "0x0872133516d5fe7b9b8a618aa0463ae0d776a865",
      "function": "setFeeMultiplier(uint8,uint256)",
      "arguments": [
        "12",
        "8"
      ],
      "transaction": {
        "from": "0xe62ab4d111f968660c6b2188046f9b9ba53c4bae",
        "to": "0x0872133516d5fe7b9b8a618aa0463ae0d776a865",
        "gas": "0x10538",
        "value": "0x0",
        "input": "0x0ee24eb5000000000000000000000000000000000000000000000000000000000000000c0000000000000000000000000000000000000000000000000000000000000008",
        "nonce": "0xea",
        "chainId": "0xaa36a7"
      },
      "additionalContracts": [],
      "isFixedGasLimit": false
    },
    {
      "hash": "0xfe0088c0224e2b67b2ccdbac757ec2a5c07a4478d1a7480f4d6c1ae1cc6ba866",
      "transactionType": "CALL",
      "contractName": "FeeManager",
      "contractAddress": "0x0872133516d5fe7b9b8a618aa0463ae0d776a865",
      "function": "setFeeMultiplier(uint8,uint256)",
      "arguments": [
        "13",
        "4"
      ],
      "transaction": {
        "from": "0xe62ab4d111f968660c6b2188046f9b9ba53c4bae",
        "to": "0x0872133516d5fe7b9b8a618aa0463ae0d776a865",
        "gas": "0x10558",
        "value": "0x0",
        "input": "0x0ee24eb5000000000000000000000000000000000000000000000000000000000000000d0000000000000000000000000000000000000000000000000000000000000004",
        "nonce": "0xeb",
        "chainId": "0xaa36a7"
      },
      "additionalContracts": [],
      "isFixedGasLimit": false
    },
    {
      "hash": "0x4919129787f0134f40035a2b40feed9ab507a1a4abda40959712fa2cb3225efc",
      "transactionType": "CALL",
      "contractName": "FeeManager",
      "contractAddress": "0x0872133516d5fe7b9b8a618aa0463ae0d776a865",
      "function": "setFeeMultiplier(uint8,uint256)",
      "arguments": [
        "14",
        "4"
      ],
      "transaction": {
        "from": "0xe62ab4d111f968660c6b2188046f9b9ba53c4bae",
        "to": "0x0872133516d5fe7b9b8a618aa0463ae0d776a865",
        "gas": "0x10577",
        "value": "0x0",
        "input": "0x0ee24eb5000000000000000000000000000000000000000000000000000000000000000e0000000000000000000000000000000000000000000000000000000000000004",
        "nonce": "0xec",
        "chainId": "0xaa36a7"
      },
      "additionalContracts": [],
      "isFixedGasLimit": false
    },
    {
      "hash": "0xa558cd6510bc4f7529702c1507430922fc7fe5f47fc11cc0af6aaa2e53eebd51",
      "transactionType": "CALL",
      "contractName": "FeeManager",
      "contractAddress": "0x0872133516d5fe7b9b8a618aa0463ae0d776a865",
      "function": "setFeeMultiplier(uint8,uint256)",
      "arguments": [
        "15",
        "4"
      ],
      "transaction": {
        "from": "0xe62ab4d111f968660c6b2188046f9b9ba53c4bae",
        "to": "0x0872133516d5fe7b9b8a618aa0463ae0d776a865",
        "gas": "0x10598",
        "value": "0x0",
        "input": "0x0ee24eb5000000000000000000000000000000000000000000000000000000000000000f0000000000000000000000000000000000000000000000000000000000000004",
        "nonce": "0xed",
        "chainId": "0xaa36a7"
      },
      "additionalContracts": [],
      "isFixedGasLimit": false
    },
    {
      "hash": "0xcb9513afcff004d0aaf9d1f6463761f96556b6900252760b035704d4da8d39cb",
      "transactionType": "CALL",
      "contractName": "FeeManager",
      "contractAddress": "0x0872133516d5fe7b9b8a618aa0463ae0d776a865",
      "function": "setFeeMultiplier(uint8,uint256)",
      "arguments": [
        "16",
        "2"
      ],
      "transaction": {
        "from": "0xe62ab4d111f968660c6b2188046f9b9ba53c4bae",
        "to": "0x0872133516d5fe7b9b8a618aa0463ae0d776a865",
        "gas": "0x105b0",
        "value": "0x0",
        "input": "0x0ee24eb500000000000000000000000000000000000000000000000000000000000000100000000000000000000000000000000000000000000000000000000000000002",
        "nonce": "0xee",
        "chainId": "0xaa36a7"
      },
      "additionalContracts": [],
      "isFixedGasLimit": false
    },
    {
      "hash": "0x365201aa55b5bc20008565a34f63b1c458b00834f4632cb0ba6949aa50e1a1fd",
      "transactionType": "CALL",
      "contractName": "FeeManager",
      "contractAddress": "0x0872133516d5fe7b9b8a618aa0463ae0d776a865",
      "function": "addFeeToken(string,string[],uint256[])",
      "arguments": [
        "421614",
        "[0xa4c104db0937f1e886d5c9c9789d6f0e5bfba75c]",
        "[100]"
      ],
      "transaction": {
        "from": "0xe62ab4d111f968660c6b2188046f9b9ba53c4bae",
        "to": "0x0872133516d5fe7b9b8a618aa0463ae0d776a865",
        "gas": "0x2f4dd",
        "value": "0x0",
        "input": "0x437bf84f000000000000000000000000000000000000000000000000000000000000006000000000000000000000000000000000000000000000000000000000000000a000000000000000000000000000000000000000000000000000000000000001400000000000000000000000000000000000000000000000000000000000000006343231363134000000000000000000000000000000000000000000000000000000000000000000000000000000000000000000000000000000000000000000010000000000000000000000000000000000000000000000000000000000000020000000000000000000000000000000000000000000000000000000000000002a3078613463313034646230393337663165383836643563396339373839643666306535626662613735630000000000000000000000000000000000000000000000000000000000000000000000000000000000000000000000000000000000010000000000000000000000000000000000000000000000000000000000000064",
        "nonce": "0xef",
        "chainId": "0xaa36a7"
      },
      "additionalContracts": [],
      "isFixedGasLimit": false
    },
    {
      "hash": "0xf7670d88f038c0ed0294d4de5123876d50753357f1968754702a8c1a9b3e108e",
      "transactionType": "CALL",
      "contractName": "FeeManager",
      "contractAddress": "0x0872133516d5fe7b9b8a618aa0463ae0d776a865",
      "function": "addFeeToken(string,string[],uint256[])",
      "arguments": [
        "80002",
        "[0xa4c104db0937f1e886d5c9c9789d6f0e5bfba75c]",
        "[100]"
      ],
      "transaction": {
        "from": "0xe62ab4d111f968660c6b2188046f9b9ba53c4bae",
        "to": "0x0872133516d5fe7b9b8a618aa0463ae0d776a865",
        "gas": "0x2a14c",
        "value": "0x0",
        "input": "0x437bf84f000000000000000000000000000000000000000000000000000000000000006000000000000000000000000000000000000000000000000000000000000000a000000000000000000000000000000000000000000000000000000000000001400000000000000000000000000000000000000000000000000000000000000005383030303200000000000000000000000000000000000000000000000000000000000000000000000000000000000000000000000000000000000000000000010000000000000000000000000000000000000000000000000000000000000020000000000000000000000000000000000000000000000000000000000000002a3078613463313034646230393337663165383836643563396339373839643666306535626662613735630000000000000000000000000000000000000000000000000000000000000000000000000000000000000000000000000000000000010000000000000000000000000000000000000000000000000000000000000064",
        "nonce": "0xf0",
        "chainId": "0xaa36a7"
      },
      "additionalContracts": [],
      "isFixedGasLimit": false
    },
    {
      "hash": "0xa86efc193ae84cb7f244f6d3cc4023fad2f0483ce77588fc69648021e52c79c1",
      "transactionType": "CALL",
      "contractName": "FeeManager",
      "contractAddress": "0x0872133516d5fe7b9b8a618aa0463ae0d776a865",
      "function": "addFeeToken(string,string[],uint256[])",
      "arguments": [
        "84532",
        "[0xa4c104db0937f1e886d5c9c9789d6f0e5bfba75c]",
        "[100]"
      ],
      "transaction": {
        "from": "0xe62ab4d111f968660c6b2188046f9b9ba53c4bae",
        "to": "0x0872133516d5fe7b9b8a618aa0463ae0d776a865",
        "gas": "0x2a14c",
        "value": "0x0",
        "input": "0x437bf84f000000000000000000000000000000000000000000000000000000000000006000000000000000000000000000000000000000000000000000000000000000a000000000000000000000000000000000000000000000000000000000000001400000000000000000000000000000000000000000000000000000000000000005383435333200000000000000000000000000000000000000000000000000000000000000000000000000000000000000000000000000000000000000000000010000000000000000000000000000000000000000000000000000000000000020000000000000000000000000000000000000000000000000000000000000002a3078613463313034646230393337663165383836643563396339373839643666306535626662613735630000000000000000000000000000000000000000000000000000000000000000000000000000000000000000000000000000000000010000000000000000000000000000000000000000000000000000000000000064",
        "nonce": "0xf1",
        "chainId": "0xaa36a7"
      },
      "additionalContracts": [],
      "isFixedGasLimit": false
    },
    {
      "hash": "0xe262b0521f573104ef661bf2f40d2b65d18c6882db2bf6633a3e1c96000517f2",
      "transactionType": "CALL",
      "contractName": "FeeManager",
      "contractAddress": "0x0872133516d5fe7b9b8a618aa0463ae0d776a865",
      "function": "addFeeToken(string,string[],uint256[])",
      "arguments": [
        "97",
        "[0xa4c104db0937f1e886d5c9c9789d6f0e5bfba75c]",
        "[100]"
      ],
      "transaction": {
        "from": "0xe62ab4d111f968660c6b2188046f9b9ba53c4bae",
        "to": "0x0872133516d5fe7b9b8a618aa0463ae0d776a865",
        "gas": "0x2c241",
        "value": "0x0",
        "input": "0x437bf84f000000000000000000000000000000000000000000000000000000000000006000000000000000000000000000000000000000000000000000000000000000a000000000000000000000000000000000000000000000000000000000000001400000000000000000000000000000000000000000000000000000000000000002393700000000000000000000000000000000000000000000000000000000000000000000000000000000000000000000000000000000000000000000000000010000000000000000000000000000000000000000000000000000000000000020000000000000000000000000000000000000000000000000000000000000002a3078613463313034646230393337663165383836643563396339373839643666306535626662613735630000000000000000000000000000000000000000000000000000000000000000000000000000000000000000000000000000000000010000000000000000000000000000000000000000000000000000000000000064",
        "nonce": "0xf2",
        "chainId": "0xaa36a7"
      },
      "additionalContracts": [],
      "isFixedGasLimit": false
    },
    {
      "hash": "0xc8b58b485aef4e2cdb01f9ada6bf9a5aaeee4bc3c89dd918561ef6f3e3cde22b",
      "transactionType": "CALL",
      "contractName": "FeeManager",
      "contractAddress": "0x0872133516d5fe7b9b8a618aa0463ae0d776a865",
      "function": "addFeeToken(string,string[],uint256[])",
      "arguments": [
        "11155111",
        "[0xa4c104db0937f1e886d5c9c9789d6f0e5bfba75c]",
        "[100]"
      ],
      "transaction": {
        "from": "0xe62ab4d111f968660c6b2188046f9b9ba53c4bae",
        "to": "0x0872133516d5fe7b9b8a618aa0463ae0d776a865",
        "gas": "0x2cf8e",
        "value": "0x0",
        "input": "0x437bf84f000000000000000000000000000000000000000000000000000000000000006000000000000000000000000000000000000000000000000000000000000000a000000000000000000000000000000000000000000000000000000000000001400000000000000000000000000000000000000000000000000000000000000008313131353531313100000000000000000000000000000000000000000000000000000000000000000000000000000000000000000000000000000000000000010000000000000000000000000000000000000000000000000000000000000020000000000000000000000000000000000000000000000000000000000000002a3078613463313034646230393337663165383836643563396339373839643666306535626662613735630000000000000000000000000000000000000000000000000000000000000000000000000000000000000000000000000000000000010000000000000000000000000000000000000000000000000000000000000064",
        "nonce": "0xf3",
        "chainId": "0xaa36a7"
      },
      "additionalContracts": [],
      "isFixedGasLimit": false
    },
    {
      "hash": "0x8689a695476789ab2b205d0c9de9ab31ba55f937dc4bf3e31dcbcbcfb547a887",
      "transactionType": "CALL",
      "contractName": "CTMRWAGateway",
      "contractAddress": "0x699de1ff83fad8c40aea628975e1b3ee71dcfb56",
      "function": "addChainContract(string[],string[])",
      "arguments": [
        "[421614, 80002, 84532, 97]",
        "[0xb81d017b3606a7e6eba0049de9f0ea0e4a1d90dd, 0xf97c2b87a7193b7800f50fc402e8f999bf1bf3e4, 0x7635a9b23275892ac46479b7ead9831a80171ace, 0xb64a86e7f8d84b2cd88535bdaac6d19c87754024]"
      ],
      "transaction": {
        "from": "0xe62ab4d111f968660c6b2188046f9b9ba53c4bae",
        "to": "0x699de1ff83fad8c40aea628975e1b3ee71dcfb56",
        "gas": "0xa9d53",
        "value": "0x0",
        "input": "0x013fd3bd000000000000000000000000000000000000000000000000000000000000004000000000000000000000000000000000000000000000000000000000000001e00000000000000000000000000000000000000000000000000000000000000004000000000000000000000000000000000000000000000000000000000000008000000000000000000000000000000000000000000000000000000000000000c000000000000000000000000000000000000000000000000000000000000001000000000000000000000000000000000000000000000000000000000000000140000000000000000000000000000000000000000000000000000000000000000634323136313400000000000000000000000000000000000000000000000000000000000000000000000000000000000000000000000000000000000000000005383030303200000000000000000000000000000000000000000000000000000000000000000000000000000000000000000000000000000000000000000000053834353332000000000000000000000000000000000000000000000000000000000000000000000000000000000000000000000000000000000000000000000239370000000000000000000000000000000000000000000000000000000000000000000000000000000000000000000000000000000000000000000000000004000000000000000000000000000000000000000000000000000000000000008000000000000000000000000000000000000000000000000000000000000000e0000000000000000000000000000000000000000000000000000000000000014000000000000000000000000000000000000000000000000000000000000001a0000000000000000000000000000000000000000000000000000000000000002a30786238316430313762333630366137653665626130303439646539663065613065346131643930646400000000000000000000000000000000000000000000000000000000000000000000000000000000000000000000000000000000002a30786639376332623837613731393362373830306635306663343032653866393939626631626633653400000000000000000000000000000000000000000000000000000000000000000000000000000000000000000000000000000000002a30783736333561396232333237353839326163343634373962376561643938333161383031373161636500000000000000000000000000000000000000000000000000000000000000000000000000000000000000000000000000000000002a30786236346138366537663864383462326364383835333562646161633664313963383737353430323400000000000000000000000000000000000000000000",
        "nonce": "0xf4",
        "chainId": "0xaa36a7"
      },
      "additionalContracts": [],
      "isFixedGasLimit": false
    },
    {
      "hash": "0xe70d375efe5a2de02d2d8d62873796c87b5f713dfad9593b75847da34753d4b9",
      "transactionType": "CALL",
      "contractName": "CTMRWAGateway",
      "contractAddress": "0x699de1ff83fad8c40aea628975e1b3ee71dcfb56",
      "function": "attachRWAX(uint256,uint256,string[],string[])",
      "arguments": [
        "1",
        "1",
        "[11155111, 421614, 80002, 84532, 97]",
        "[0xb37c81d6f90a16bbd778886af49abebfd1ad02c7, 0xd06cda2c8f2258ceec5efb8c6371f54d7853480e, 0xb008b6cc593fc290ed03d5011e90f4e9d19f9a87, 0x6187ee058bb5b7db140cfd470a27ebe1f16d92b1, 0xcff54249dae66746377e15c07d95c42188d5d3a8]"
      ],
      "transaction": {
        "from": "0xe62ab4d111f968660c6b2188046f9b9ba53c4bae",
        "to": "0x699de1ff83fad8c40aea628975e1b3ee71dcfb56",
        "gas": "0xe3ea8",
        "value": "0x0",
        "input": "0x33a5f5b40000000000000000000000000000000000000000000000000000000000000001000000000000000000000000000000000000000000000000000000000000000100000000000000000000000000000000000000000000000000000000000000800000000000000000000000000000000000000000000000000000000000000280000000000000000000000000000000000000000000000000000000000000000500000000000000000000000000000000000000000000000000000000000000a000000000000000000000000000000000000000000000000000000000000000e00000000000000000000000000000000000000000000000000000000000000120000000000000000000000000000000000000000000000000000000000000016000000000000000000000000000000000000000000000000000000000000001a00000000000000000000000000000000000000000000000000000000000000008313131353531313100000000000000000000000000000000000000000000000000000000000000000000000000000000000000000000000000000000000000063432313631340000000000000000000000000000000000000000000000000000000000000000000000000000000000000000000000000000000000000000000538303030320000000000000000000000000000000000000000000000000000000000000000000000000000000000000000000000000000000000000000000005383435333200000000000000000000000000000000000000000000000000000000000000000000000000000000000000000000000000000000000000000000023937000000000000000000000000000000000000000000000000000000000000000000000000000000000000000000000000000000000000000000000000000500000000000000000000000000000000000000000000000000000000000000a00000000000000000000000000000000000000000000000000000000000000100000000000000000000000000000000000000000000000000000000000000016000000000000000000000000000000000000000000000000000000000000001c00000000000000000000000000000000000000000000000000000000000000220000000000000000000000000000000000000000000000000000000000000002a30786233376338316436663930613136626264373738383836616634396162656266643161643032633700000000000000000000000000000000000000000000000000000000000000000000000000000000000000000000000000000000002a30786430366364613263386632323538636565633565666238633633373166353464373835333438306500000000000000000000000000000000000000000000000000000000000000000000000000000000000000000000000000000000002a30786230303862366363353933666332393065643033643530313165393066346539643139663961383700000000000000000000000000000000000000000000000000000000000000000000000000000000000000000000000000000000002a30783631383765653035386262356237646231343063666434373061323765626531663136643932623100000000000000000000000000000000000000000000000000000000000000000000000000000000000000000000000000000000002a30786366663534323439646165363637343633373765313563303764393563343231383864356433613800000000000000000000000000000000000000000000",
        "nonce": "0xf5",
        "chainId": "0xaa36a7"
      },
      "additionalContracts": [],
      "isFixedGasLimit": false
    },
    {
      "hash": "0x79e9a65d70fd0d41b1ebf135632d5d1d1736de9e8be26b1e22431d7e614fd777",
      "transactionType": "CALL",
      "contractName": "CTMRWAGateway",
      "contractAddress": "0x699de1ff83fad8c40aea628975e1b3ee71dcfb56",
      "function": "attachStorageManager(uint256,uint256,string[],string[])",
      "arguments": [
        "1",
        "1",
        "[11155111, 421614, 80002, 84532, 97]",
        "[0x563c5c85cc7ba923c50b66479588e5b3b2c93470, 0x298c11661856dc1194c578ecd2c230eb4fa433a0, 0xd4bd9bba2fb97c36bbd619303cab636f476f8904, 0x4f6af153614d50051bad6f3e76110f959817738f, 0x0156a74fd9432446030f47f7c55f4d1fbfdf5e9a]"
      ],
      "transaction": {
        "from": "0xe62ab4d111f968660c6b2188046f9b9ba53c4bae",
        "to": "0x699de1ff83fad8c40aea628975e1b3ee71dcfb56",
        "gas": "0xd6c94",
        "value": "0x0",
        "input": "0x2f68b4890000000000000000000000000000000000000000000000000000000000000001000000000000000000000000000000000000000000000000000000000000000100000000000000000000000000000000000000000000000000000000000000800000000000000000000000000000000000000000000000000000000000000280000000000000000000000000000000000000000000000000000000000000000500000000000000000000000000000000000000000000000000000000000000a000000000000000000000000000000000000000000000000000000000000000e00000000000000000000000000000000000000000000000000000000000000120000000000000000000000000000000000000000000000000000000000000016000000000000000000000000000000000000000000000000000000000000001a00000000000000000000000000000000000000000000000000000000000000008313131353531313100000000000000000000000000000000000000000000000000000000000000000000000000000000000000000000000000000000000000063432313631340000000000000000000000000000000000000000000000000000000000000000000000000000000000000000000000000000000000000000000538303030320000000000000000000000000000000000000000000000000000000000000000000000000000000000000000000000000000000000000000000005383435333200000000000000000000000000000000000000000000000000000000000000000000000000000000000000000000000000000000000000000000023937000000000000000000000000000000000000000000000000000000000000000000000000000000000000000000000000000000000000000000000000000500000000000000000000000000000000000000000000000000000000000000a00000000000000000000000000000000000000000000000000000000000000100000000000000000000000000000000000000000000000000000000000000016000000000000000000000000000000000000000000000000000000000000001c00000000000000000000000000000000000000000000000000000000000000220000000000000000000000000000000000000000000000000000000000000002a30783536336335633835636337626139323363353062363634373935383865356233623263393334373000000000000000000000000000000000000000000000000000000000000000000000000000000000000000000000000000000000002a30783239386331313636313835366463313139346335373865636432633233306562346661343333613000000000000000000000000000000000000000000000000000000000000000000000000000000000000000000000000000000000002a30786434626439626261326662393763333662626436313933303363616236333666343736663839303400000000000000000000000000000000000000000000000000000000000000000000000000000000000000000000000000000000002a30783466366166313533363134643530303531626164366633653736313130663935393831373733386600000000000000000000000000000000000000000000000000000000000000000000000000000000000000000000000000000000002a30783031353661373466643934333234343630333066343766376335356634643166626664663565396100000000000000000000000000000000000000000000",
        "nonce": "0xf6",
        "chainId": "0xaa36a7"
      },
      "additionalContracts": [],
      "isFixedGasLimit": false
    }
  ],
  "receipts": [
    {
      "status": "0x1",
      "cumulativeGasUsed": "0x3e5ad8",
      "logs": [],
      "logsBloom": "0x00000000000000000000000000000000000000000000000000000000000000000000000000000000000000000000000000000000000000000000000000000000000000000000000000000000000000000000000000000000000000000000000000000000000000000000000000000000000000000000000000000000000000000000000000000000000000000000000000000000000000000000000000000000000000000000000000000000000000000000000000000000000000000000000000000000000000000000000000000000000000000000000000000000000000000000000000000000000000000000000000000000000000000000000000000000",
      "type": "0x2",
      "transactionHash": "0x652b03a29957066f61181952b6b31c901cf75a50ca72d871b8758e91bb25ba27",
      "transactionIndex": "0x21",
      "blockHash": "0x701cfa4627863400de26dc4b97f607e05b596f8e26dd9d0891a53e71eeb3d1fb",
      "blockNumber": "0x6c87f5",
      "gasUsed": "0x5eb3",
      "effectiveGasPrice": "0xb159842ef",
      "from": "0xe62ab4d111f968660c6b2188046f9b9ba53c4bae",
      "to": "0x0872133516d5fe7b9b8a618aa0463ae0d776a865",
      "contractAddress": null
    },
    {
      "status": "0x1",
      "cumulativeGasUsed": "0x39a559",
      "logs": [
        {
          "address": "0x0872133516d5fe7b9b8a618aa0463ae0d776a865",
          "topics": [
            "0x1394cfab38f3fc78ed77ea6f9318782a446d96e7dc8e9a6b0149f6be25c08bcf",
            "0x000000000000000000000000a4c104db0937f1e886d5c9c9789d6f0e5bfba75c"
          ],
          "data": "0x",
          "blockHash": "0xb4279395a924962362fe193ea3dcf8926d12cddf6b434f4c9a1048f24b5830bc",
          "blockNumber": "0x6c87f6",
          "transactionHash": "0xed71c35a35abdfbd3b9ba865aa6b2a8a8c6fe3e12f16d602617db16463a129d9",
          "transactionIndex": "0x36",
          "logIndex": "0x50",
          "removed": false
        }
      ],
      "logsBloom": "0x00000000000000000040000000000000000000000000000000000000000000000000000000000000000000000000000000000000000000000000000000000000000000000000000000000000000000000000001000000001000000000000000000000000000000000000000000000000000000000000000000000000000000000000000100000000000000000000000000000000000000000000000000000000000000000000000400000000000000000000004100000000000000000000000000000000000000000000200000000000000000000000000000000000000000000000000000000000000002000000000000000000000000000000000000000000",
      "type": "0x2",
      "transactionHash": "0xed71c35a35abdfbd3b9ba865aa6b2a8a8c6fe3e12f16d602617db16463a129d9",
      "transactionIndex": "0x36",
      "blockHash": "0xb4279395a924962362fe193ea3dcf8926d12cddf6b434f4c9a1048f24b5830bc",
      "blockNumber": "0x6c87f6",
      "gasUsed": "0x1be72",
      "effectiveGasPrice": "0xa6eefc179",
      "from": "0xe62ab4d111f968660c6b2188046f9b9ba53c4bae",
      "to": "0x0872133516d5fe7b9b8a618aa0463ae0d776a865",
      "contractAddress": null
    },
    {
      "status": "0x1",
      "cumulativeGasUsed": "0x104b595",
      "logs": [],
      "logsBloom": "0x00000000000000000000000000000000000000000000000000000000000000000000000000000000000000000000000000000000000000000000000000000000000000000000000000000000000000000000000000000000000000000000000000000000000000000000000000000000000000000000000000000000000000000000000000000000000000000000000000000000000000000000000000000000000000000000000000000000000000000000000000000000000000000000000000000000000000000000000000000000000000000000000000000000000000000000000000000000000000000000000000000000000000000000000000000000",
      "type": "0x2",
      "transactionHash": "0x2cd7de6a35e9939aa56175b0ba48209ca74a8d9825aee3e9f4b03bb14129b4e2",
      "transactionIndex": "0x40",
      "blockHash": "0x7d6b6a081196c0a02926790817c1b0d07c52e679b5d7e83d54edcb2e6b29814e",
      "blockNumber": "0x6c87f7",
      "gasUsed": "0xbbf9",
      "effectiveGasPrice": "0x9e06a7a25",
      "from": "0xe62ab4d111f968660c6b2188046f9b9ba53c4bae",
      "to": "0x0872133516d5fe7b9b8a618aa0463ae0d776a865",
      "contractAddress": null
    },
    {
      "status": "0x1",
      "cumulativeGasUsed": "0x27f064",
      "logs": [],
      "logsBloom": "0x00000000000000000000000000000000000000000000000000000000000000000000000000000000000000000000000000000000000000000000000000000000000000000000000000000000000000000000000000000000000000000000000000000000000000000000000000000000000000000000000000000000000000000000000000000000000000000000000000000000000000000000000000000000000000000000000000000000000000000000000000000000000000000000000000000000000000000000000000000000000000000000000000000000000000000000000000000000000000000000000000000000000000000000000000000000",
      "type": "0x2",
      "transactionHash": "0x1b5a981fd0723210661d98eaf67cb51e34e4f562c1186065adb424aada806d95",
      "transactionIndex": "0x1a",
      "blockHash": "0x180e6b875f7779fc624fc3c798a417fdae0972051ded873c5c931bd6b01face9",
      "blockNumber": "0x6c87f8",
      "gasUsed": "0xbc22",
      "effectiveGasPrice": "0xa5e74c781",
      "from": "0xe62ab4d111f968660c6b2188046f9b9ba53c4bae",
      "to": "0x0872133516d5fe7b9b8a618aa0463ae0d776a865",
      "contractAddress": null
    },
    {
      "status": "0x1",
      "cumulativeGasUsed": "0x34a97a",
      "logs": [],
      "logsBloom": "0x00000000000000000000000000000000000000000000000000000000000000000000000000000000000000000000000000000000000000000000000000000000000000000000000000000000000000000000000000000000000000000000000000000000000000000000000000000000000000000000000000000000000000000000000000000000000000000000000000000000000000000000000000000000000000000000000000000000000000000000000000000000000000000000000000000000000000000000000000000000000000000000000000000000000000000000000000000000000000000000000000000000000000000000000000000000",
      "type": "0x2",
      "transactionHash": "0xa5cdfc437ff35c896709994ed10e1a5b0099c0533d6c72f5218bd84ef1244106",
      "transactionIndex": "0x10",
      "blockHash": "0xb34ad3cf4a5df27a40a8d72ef345d5200cd4c8d7fae7ba095ec466fec97791b4",
      "blockNumber": "0x6c87f9",
      "gasUsed": "0xbc39",
      "effectiveGasPrice": "0x9bf86dbae",
      "from": "0xe62ab4d111f968660c6b2188046f9b9ba53c4bae",
      "to": "0x0872133516d5fe7b9b8a618aa0463ae0d776a865",
      "contractAddress": null
    },
    {
      "status": "0x1",
      "cumulativeGasUsed": "0x103b5ae",
      "logs": [],
      "logsBloom": "0x00000000000000000000000000000000000000000000000000000000000000000000000000000000000000000000000000000000000000000000000000000000000000000000000000000000000000000000000000000000000000000000000000000000000000000000000000000000000000000000000000000000000000000000000000000000000000000000000000000000000000000000000000000000000000000000000000000000000000000000000000000000000000000000000000000000000000000000000000000000000000000000000000000000000000000000000000000000000000000000000000000000000000000000000000000000",
      "type": "0x2",
      "transactionHash": "0xe18a0c73a7072bc102ba46fc42efb5c3e9dca8677720256df8b268a91487d13e",
      "transactionIndex": "0x45",
      "blockHash": "0x000eb3754ae92012522e7691fe3f8516bec760e447bfe91778e60c435f7a635b",
      "blockNumber": "0x6c87fa",
      "gasUsed": "0xbc50",
      "effectiveGasPrice": "0x97fda1537",
      "from": "0xe62ab4d111f968660c6b2188046f9b9ba53c4bae",
      "to": "0x0872133516d5fe7b9b8a618aa0463ae0d776a865",
      "contractAddress": null
    },
    {
      "status": "0x1",
      "cumulativeGasUsed": "0xdf09d",
      "logs": [],
      "logsBloom": "0x00000000000000000000000000000000000000000000000000000000000000000000000000000000000000000000000000000000000000000000000000000000000000000000000000000000000000000000000000000000000000000000000000000000000000000000000000000000000000000000000000000000000000000000000000000000000000000000000000000000000000000000000000000000000000000000000000000000000000000000000000000000000000000000000000000000000000000000000000000000000000000000000000000000000000000000000000000000000000000000000000000000000000000000000000000000",
      "type": "0x2",
      "transactionHash": "0xab332ec8b70cefcc009442831195e35b5ff2abd8e68d84450f0b9f878fbc6dd8",
      "transactionIndex": "0xa",
      "blockHash": "0x3463dcdeac4343e298e2a7d9a6793761380f148f1d7368139574f68a1b77d22e",
      "blockNumber": "0x6c87fb",
      "gasUsed": "0xbc67",
      "effectiveGasPrice": "0xa03dd4bf6",
      "from": "0xe62ab4d111f968660c6b2188046f9b9ba53c4bae",
      "to": "0x0872133516d5fe7b9b8a618aa0463ae0d776a865",
      "contractAddress": null
    },
    {
      "status": "0x1",
      "cumulativeGasUsed": "0x680e1b",
      "logs": [],
      "logsBloom": "0x00000000000000000000000000000000000000000000000000000000000000000000000000000000000000000000000000000000000000000000000000000000000000000000000000000000000000000000000000000000000000000000000000000000000000000000000000000000000000000000000000000000000000000000000000000000000000000000000000000000000000000000000000000000000000000000000000000000000000000000000000000000000000000000000000000000000000000000000000000000000000000000000000000000000000000000000000000000000000000000000000000000000000000000000000000000",
      "type": "0x2",
      "transactionHash": "0x48381dc890f027c3573dc7bd03f918ec45a3c2a83fec505c6bbd927428931eff",
      "transactionIndex": "0x48",
      "blockHash": "0x67e584a25fa636c1b9dd022c19b511cf68a824fc1995400c2e53f9bcab88369f",
      "blockNumber": "0x6c87fc",
      "gasUsed": "0xbc7e",
      "effectiveGasPrice": "0x922a4f33c",
      "from": "0xe62ab4d111f968660c6b2188046f9b9ba53c4bae",
      "to": "0x0872133516d5fe7b9b8a618aa0463ae0d776a865",
      "contractAddress": null
    },
    {
      "status": "0x1",
      "cumulativeGasUsed": "0x121e1a6",
      "logs": [],
      "logsBloom": "0x00000000000000000000000000000000000000000000000000000000000000000000000000000000000000000000000000000000000000000000000000000000000000000000000000000000000000000000000000000000000000000000000000000000000000000000000000000000000000000000000000000000000000000000000000000000000000000000000000000000000000000000000000000000000000000000000000000000000000000000000000000000000000000000000000000000000000000000000000000000000000000000000000000000000000000000000000000000000000000000000000000000000000000000000000000000",
      "type": "0x2",
      "transactionHash": "0x3b7f78559b25f7011adb591c241dca69afbf2223d5679957a482f0f441369c00",
      "transactionIndex": "0x37",
      "blockHash": "0xc3be4d825c286ac3e6b7f688b42c9dff8268760e315f3b4b8c94668ccede1b3d",
      "blockNumber": "0x6c87fd",
      "gasUsed": "0xbc95",
      "effectiveGasPrice": "0x8f2aabb80",
      "from": "0xe62ab4d111f968660c6b2188046f9b9ba53c4bae",
      "to": "0x0872133516d5fe7b9b8a618aa0463ae0d776a865",
      "contractAddress": null
    },
    {
      "status": "0x1",
      "cumulativeGasUsed": "0xa2452c",
      "logs": [],
      "logsBloom": "0x00000000000000000000000000000000000000000000000000000000000000000000000000000000000000000000000000000000000000000000000000000000000000000000000000000000000000000000000000000000000000000000000000000000000000000000000000000000000000000000000000000000000000000000000000000000000000000000000000000000000000000000000000000000000000000000000000000000000000000000000000000000000000000000000000000000000000000000000000000000000000000000000000000000000000000000000000000000000000000000000000000000000000000000000000000000",
      "type": "0x2",
      "transactionHash": "0xe023008fa5f68607e8748843b794bebbd30e129d934386cdb99eebddb8c1f952",
      "transactionIndex": "0x24",
      "blockHash": "0xaaa5899cdca1771dfb11ed0a3a822c8b6369b94280788514f9f26cd0b1e65dae",
      "blockNumber": "0x6c87fe",
      "gasUsed": "0xbcac",
      "effectiveGasPrice": "0x991387a6b",
      "from": "0xe62ab4d111f968660c6b2188046f9b9ba53c4bae",
      "to": "0x0872133516d5fe7b9b8a618aa0463ae0d776a865",
      "contractAddress": null
    },
    {
      "status": "0x1",
      "cumulativeGasUsed": "0xcb3613",
      "logs": [],
      "logsBloom": "0x00000000000000000000000000000000000000000000000000000000000000000000000000000000000000000000000000000000000000000000000000000000000000000000000000000000000000000000000000000000000000000000000000000000000000000000000000000000000000000000000000000000000000000000000000000000000000000000000000000000000000000000000000000000000000000000000000000000000000000000000000000000000000000000000000000000000000000000000000000000000000000000000000000000000000000000000000000000000000000000000000000000000000000000000000000000",
      "type": "0x2",
      "transactionHash": "0x4a7e39519e65a23a8eceae8f0681e8110c0572b7490aa5423bcee7f27b77ae02",
      "transactionIndex": "0x25",
      "blockHash": "0x7f6cca264acf9159ac43c6437368d3c7206e6aa9abc934da9e8f965278354a52",
      "blockNumber": "0x6c87ff",
      "gasUsed": "0xbcc3",
      "effectiveGasPrice": "0x96eb7f006",
      "from": "0xe62ab4d111f968660c6b2188046f9b9ba53c4bae",
      "to": "0x0872133516d5fe7b9b8a618aa0463ae0d776a865",
      "contractAddress": null
    },
    {
      "status": "0x1",
      "cumulativeGasUsed": "0x67bf8e",
      "logs": [],
      "logsBloom": "0x00000000000000000000000000000000000000000000000000000000000000000000000000000000000000000000000000000000000000000000000000000000000000000000000000000000000000000000000000000000000000000000000000000000000000000000000000000000000000000000000000000000000000000000000000000000000000000000000000000000000000000000000000000000000000000000000000000000000000000000000000000000000000000000000000000000000000000000000000000000000000000000000000000000000000000000000000000000000000000000000000000000000000000000000000000000",
      "type": "0x2",
      "transactionHash": "0x860ac29f481103252c716d1929bdb40ea75ab98fb6c2c5642ec00cf0a4a00638",
      "transactionIndex": "0x2d",
      "blockHash": "0x248e032ba65a95476a9a2fa1e8742959fb40a37f470c1a5e7231732c3ecd7219",
      "blockNumber": "0x6c8800",
      "gasUsed": "0xbcda",
      "effectiveGasPrice": "0x955b84d9d",
      "from": "0xe62ab4d111f968660c6b2188046f9b9ba53c4bae",
      "to": "0x0872133516d5fe7b9b8a618aa0463ae0d776a865",
      "contractAddress": null
    },
    {
      "status": "0x1",
      "cumulativeGasUsed": "0x4c938e",
      "logs": [],
      "logsBloom": "0x00000000000000000000000000000000000000000000000000000000000000000000000000000000000000000000000000000000000000000000000000000000000000000000000000000000000000000000000000000000000000000000000000000000000000000000000000000000000000000000000000000000000000000000000000000000000000000000000000000000000000000000000000000000000000000000000000000000000000000000000000000000000000000000000000000000000000000000000000000000000000000000000000000000000000000000000000000000000000000000000000000000000000000000000000000000",
      "type": "0x2",
      "transactionHash": "0x42e80466b6620977e4dbde951781e8b2ef21ab341eeddb15be01ed51c43a21f8",
      "transactionIndex": "0x2c",
      "blockHash": "0x747c0d602edfdf1b4cf5cfbad911fe2f06100bb8436d10d826ca834b1848a861",
      "blockNumber": "0x6c8801",
      "gasUsed": "0xbcf1",
      "effectiveGasPrice": "0x919475bc0",
      "from": "0xe62ab4d111f968660c6b2188046f9b9ba53c4bae",
      "to": "0x0872133516d5fe7b9b8a618aa0463ae0d776a865",
      "contractAddress": null
    },
    {
      "status": "0x1",
      "cumulativeGasUsed": "0xf4d1f5",
      "logs": [],
      "logsBloom": "0x00000000000000000000000000000000000000000000000000000000000000000000000000000000000000000000000000000000000000000000000000000000000000000000000000000000000000000000000000000000000000000000000000000000000000000000000000000000000000000000000000000000000000000000000000000000000000000000000000000000000000000000000000000000000000000000000000000000000000000000000000000000000000000000000000000000000000000000000000000000000000000000000000000000000000000000000000000000000000000000000000000000000000000000000000000000",
      "type": "0x2",
      "transactionHash": "0xde538fc77d4fefb9200fc238fc3efc1e4996ad98e8b36e8927a275d73d24b1df",
      "transactionIndex": "0x3b",
      "blockHash": "0x63b7f6eac77d6798bf6afa4b7a95cd10b0dd52666fd83e7331950a7c8d95371a",
      "blockNumber": "0x6c8802",
      "gasUsed": "0xbd08",
      "effectiveGasPrice": "0x93eea5f83",
      "from": "0xe62ab4d111f968660c6b2188046f9b9ba53c4bae",
      "to": "0x0872133516d5fe7b9b8a618aa0463ae0d776a865",
      "contractAddress": null
    },
    {
      "status": "0x1",
      "cumulativeGasUsed": "0x5701d3",
      "logs": [],
      "logsBloom": "0x00000000000000000000000000000000000000000000000000000000000000000000000000000000000000000000000000000000000000000000000000000000000000000000000000000000000000000000000000000000000000000000000000000000000000000000000000000000000000000000000000000000000000000000000000000000000000000000000000000000000000000000000000000000000000000000000000000000000000000000000000000000000000000000000000000000000000000000000000000000000000000000000000000000000000000000000000000000000000000000000000000000000000000000000000000000",
      "type": "0x2",
      "transactionHash": "0x51424413718094bc0d039a2748549065e63fe58eda424a633547de47c2dd0231",
      "transactionIndex": "0x17",
      "blockHash": "0xa4a6d93c06ab0693462b7e6560f0166b0aed6b70659ca88ce5e791692ceb2d8f",
      "blockNumber": "0x6c8803",
      "gasUsed": "0xbd1f",
      "effectiveGasPrice": "0x9a3de62e0",
      "from": "0xe62ab4d111f968660c6b2188046f9b9ba53c4bae",
      "to": "0x0872133516d5fe7b9b8a618aa0463ae0d776a865",
      "contractAddress": null
    },
    {
      "status": "0x1",
      "cumulativeGasUsed": "0x4b5f07",
      "logs": [],
      "logsBloom": "0x00000000000000000000000000000000000000000000000000000000000000000000000000000000000000000000000000000000000000000000000000000000000000000000000000000000000000000000000000000000000000000000000000000000000000000000000000000000000000000000000000000000000000000000000000000000000000000000000000000000000000000000000000000000000000000000000000000000000000000000000000000000000000000000000000000000000000000000000000000000000000000000000000000000000000000000000000000000000000000000000000000000000000000000000000000000",
      "type": "0x2",
      "transactionHash": "0xfe0088c0224e2b67b2ccdbac757ec2a5c07a4478d1a7480f4d6c1ae1cc6ba866",
      "transactionIndex": "0x2e",
      "blockHash": "0x1aa22018b517cbf135f8c01c23490cc215e5010c9ac8da8bcf2df3a43749a947",
      "blockNumber": "0x6c8804",
      "gasUsed": "0xbd36",
      "effectiveGasPrice": "0x90dbc8ffc",
      "from": "0xe62ab4d111f968660c6b2188046f9b9ba53c4bae",
      "to": "0x0872133516d5fe7b9b8a618aa0463ae0d776a865",
      "contractAddress": null
    },
    {
      "status": "0x1",
      "cumulativeGasUsed": "0x115540b",
      "logs": [],
      "logsBloom": "0x00000000000000000000000000000000000000000000000000000000000000000000000000000000000000000000000000000000000000000000000000000000000000000000000000000000000000000000000000000000000000000000000000000000000000000000000000000000000000000000000000000000000000000000000000000000000000000000000000000000000000000000000000000000000000000000000000000000000000000000000000000000000000000000000000000000000000000000000000000000000000000000000000000000000000000000000000000000000000000000000000000000000000000000000000000000",
      "type": "0x2",
      "transactionHash": "0x4919129787f0134f40035a2b40feed9ab507a1a4abda40959712fa2cb3225efc",
      "transactionIndex": "0x2d",
      "blockHash": "0x1fe0044c64bc7ea6c10990408f98458de3b63dc085576d97130689b09eb64456",
      "blockNumber": "0x6c8805",
      "gasUsed": "0xbd4d",
      "effectiveGasPrice": "0x99f464656",
      "from": "0xe62ab4d111f968660c6b2188046f9b9ba53c4bae",
      "to": "0x0872133516d5fe7b9b8a618aa0463ae0d776a865",
      "contractAddress": null
    },
    {
      "status": "0x1",
      "cumulativeGasUsed": "0x3f2a66",
      "logs": [],
      "logsBloom": "0x00000000000000000000000000000000000000000000000000000000000000000000000000000000000000000000000000000000000000000000000000000000000000000000000000000000000000000000000000000000000000000000000000000000000000000000000000000000000000000000000000000000000000000000000000000000000000000000000000000000000000000000000000000000000000000000000000000000000000000000000000000000000000000000000000000000000000000000000000000000000000000000000000000000000000000000000000000000000000000000000000000000000000000000000000000000",
      "type": "0x2",
      "transactionHash": "0xa558cd6510bc4f7529702c1507430922fc7fe5f47fc11cc0af6aaa2e53eebd51",
      "transactionIndex": "0x1d",
      "blockHash": "0xb6a453c2089f74f9c3843861c07eb5b682c6eb699970154e05645f01b5e42daf",
      "blockNumber": "0x6c8806",
      "gasUsed": "0xbd64",
      "effectiveGasPrice": "0xa174d041e",
      "from": "0xe62ab4d111f968660c6b2188046f9b9ba53c4bae",
      "to": "0x0872133516d5fe7b9b8a618aa0463ae0d776a865",
      "contractAddress": null
    },
    {
      "status": "0x1",
      "cumulativeGasUsed": "0xff5a66",
      "logs": [],
      "logsBloom": "0x00000000000000000000000000000000000000000000000000000000000000000000000000000000000000000000000000000000000000000000000000000000000000000000000000000000000000000000000000000000000000000000000000000000000000000000000000000000000000000000000000000000000000000000000000000000000000000000000000000000000000000000000000000000000000000000000000000000000000000000000000000000000000000000000000000000000000000000000000000000000000000000000000000000000000000000000000000000000000000000000000000000000000000000000000000000",
      "type": "0x2",
      "transactionHash": "0xcb9513afcff004d0aaf9d1f6463761f96556b6900252760b035704d4da8d39cb",
      "transactionIndex": "0x26",
      "blockHash": "0xf965467e6c2bbdf046d3b0c8ceca276e255fcba9752e3d09edfc99552101f2c2",
      "blockNumber": "0x6c8807",
      "gasUsed": "0xbd76",
      "effectiveGasPrice": "0x9d5bbc365",
      "from": "0xe62ab4d111f968660c6b2188046f9b9ba53c4bae",
      "to": "0x0872133516d5fe7b9b8a618aa0463ae0d776a865",
      "contractAddress": null
    },
    {
      "status": "0x1",
      "cumulativeGasUsed": "0x563fee",
      "logs": [],
      "logsBloom": "0x00000000000000000000000000000000000000000000000000000000000000000000000000000000000000000000000000000000000000000000000000000000000000000000000000000000000000000000000000000000000000000000000000000000000000000000000000000000000000000000000000000000000000000000000000000000000000000000000000000000000000000000000000000000000000000000000000000000000000000000000000000000000000000000000000000000000000000000000000000000000000000000000000000000000000000000000000000000000000000000000000000000000000000000000000000000",
      "type": "0x2",
      "transactionHash": "0x365201aa55b5bc20008565a34f63b1c458b00834f4632cb0ba6949aa50e1a1fd",
      "transactionIndex": "0x2c",
      "blockHash": "0x07fb62a4fc89c00d95d9460d8e3c64ef91a2d7d1500a4c11064296cf48e74466",
      "blockNumber": "0x6c8808",
      "gasUsed": "0x223f5",
      "effectiveGasPrice": "0xa8d1fbf5f",
      "from": "0xe62ab4d111f968660c6b2188046f9b9ba53c4bae",
      "to": "0x0872133516d5fe7b9b8a618aa0463ae0d776a865",
      "contractAddress": null
    },
    {
      "status": "0x1",
      "cumulativeGasUsed": "0xbf0625",
      "logs": [],
      "logsBloom": "0x00000000000000000000000000000000000000000000000000000000000000000000000000000000000000000000000000000000000000000000000000000000000000000000000000000000000000000000000000000000000000000000000000000000000000000000000000000000000000000000000000000000000000000000000000000000000000000000000000000000000000000000000000000000000000000000000000000000000000000000000000000000000000000000000000000000000000000000000000000000000000000000000000000000000000000000000000000000000000000000000000000000000000000000000000000000",
      "type": "0x2",
      "transactionHash": "0xf7670d88f038c0ed0294d4de5123876d50753357f1968754702a8c1a9b3e108e",
      "transactionIndex": "0x2c",
      "blockHash": "0xcb29d39942bc84f65797ad83e99142023787e8a2d7d4d7a9f472cbea2d798119",
      "blockNumber": "0x6c8809",
      "gasUsed": "0x1e775",
      "effectiveGasPrice": "0xa1748da3e",
      "from": "0xe62ab4d111f968660c6b2188046f9b9ba53c4bae",
      "to": "0x0872133516d5fe7b9b8a618aa0463ae0d776a865",
      "contractAddress": null
    },
    {
      "status": "0x1",
      "cumulativeGasUsed": "0x4ea856",
      "logs": [],
      "logsBloom": "0x00000000000000000000000000000000000000000000000000000000000000000000000000000000000000000000000000000000000000000000000000000000000000000000000000000000000000000000000000000000000000000000000000000000000000000000000000000000000000000000000000000000000000000000000000000000000000000000000000000000000000000000000000000000000000000000000000000000000000000000000000000000000000000000000000000000000000000000000000000000000000000000000000000000000000000000000000000000000000000000000000000000000000000000000000000000",
      "type": "0x2",
      "transactionHash": "0xa86efc193ae84cb7f244f6d3cc4023fad2f0483ce77588fc69648021e52c79c1",
      "transactionIndex": "0x27",
      "blockHash": "0xb20fc01cfd90b9ffd4736150d087d8905e66eb2cf8293c5061e317b0c68b4065",
      "blockNumber": "0x6c880a",
      "gasUsed": "0x1e775",
      "effectiveGasPrice": "0xa65b123af",
      "from": "0xe62ab4d111f968660c6b2188046f9b9ba53c4bae",
      "to": "0x0872133516d5fe7b9b8a618aa0463ae0d776a865",
      "contractAddress": null
    },
    {
      "status": "0x1",
      "cumulativeGasUsed": "0x48b720",
      "logs": [],
      "logsBloom": "0x00000000000000000000000000000000000000000000000000000000000000000000000000000000000000000000000000000000000000000000000000000000000000000000000000000000000000000000000000000000000000000000000000000000000000000000000000000000000000000000000000000000000000000000000000000000000000000000000000000000000000000000000000000000000000000000000000000000000000000000000000000000000000000000000000000000000000000000000000000000000000000000000000000000000000000000000000000000000000000000000000000000000000000000000000000000",
      "type": "0x2",
      "transactionHash": "0xe262b0521f573104ef661bf2f40d2b65d18c6882db2bf6633a3e1c96000517f2",
      "transactionIndex": "0x2f",
      "blockHash": "0x20a2c744a7d8fdc10ecfa8ae8d67570da82dfac490fa7aeee2502cff12dd0a13",
      "blockNumber": "0x6c880b",
      "gasUsed": "0x1e2e9",
      "effectiveGasPrice": "0x9a8cb0b48",
      "from": "0xe62ab4d111f968660c6b2188046f9b9ba53c4bae",
      "to": "0x0872133516d5fe7b9b8a618aa0463ae0d776a865",
      "contractAddress": null
    },
    {
      "status": "0x1",
      "cumulativeGasUsed": "0xef86b3",
      "logs": [],
      "logsBloom": "0x00000000000000000000000000000000000000000000000000000000000000000000000000000000000000000000000000000000000000000000000000000000000000000000000000000000000000000000000000000000000000000000000000000000000000000000000000000000000000000000000000000000000000000000000000000000000000000000000000000000000000000000000000000000000000000000000000000000000000000000000000000000000000000000000000000000000000000000000000000000000000000000000000000000000000000000000000000000000000000000000000000000000000000000000000000000",
      "type": "0x2",
      "transactionHash": "0xc8b58b485aef4e2cdb01f9ada6bf9a5aaeee4bc3c89dd918561ef6f3e3cde22b",
      "transactionIndex": "0x41",
      "blockHash": "0x65b5a02c055a0071009ffb9c1c46010bfce1cacfd85cd88c4e979183e8fbfec1",
      "blockNumber": "0x6c880c",
      "gasUsed": "0x1ec01",
      "effectiveGasPrice": "0x9369b4eda",
      "from": "0xe62ab4d111f968660c6b2188046f9b9ba53c4bae",
      "to": "0x0872133516d5fe7b9b8a618aa0463ae0d776a865",
      "contractAddress": null
    },
    {
      "status": "0x1",
      "cumulativeGasUsed": "0x4f41fe",
      "logs": [],
      "logsBloom": "0x00000000000000000000000000000000000000000000000000000000000000000000000000000000000000000000000000000000000000000000000000000000000000000000000000000000000000000000000000000000000000000000000000000000000000000000000000000000000000000000000000000000000000000000000000000000000000000000000000000000000000000000000000000000000000000000000000000000000000000000000000000000000000000000000000000000000000000000000000000000000000000000000000000000000000000000000000000000000000000000000000000000000000000000000000000000",
      "type": "0x2",
      "transactionHash": "0x8689a695476789ab2b205d0c9de9ab31ba55f937dc4bf3e31dcbcbcfb547a887",
      "transactionIndex": "0x19",
      "blockHash": "0x67272656bd96a401d08f0d87721c551a55238133c98b755731f6045c0853e7bb",
      "blockNumber": "0x6c880d",
      "gasUsed": "0x7af4c",
      "effectiveGasPrice": "0x98e5a4099",
      "from": "0xe62ab4d111f968660c6b2188046f9b9ba53c4bae",
      "to": "0x699de1ff83fad8c40aea628975e1b3ee71dcfb56",
      "contractAddress": null
    },
    {
      "status": "0x1",
      "cumulativeGasUsed": "0xafe35f",
      "logs": [],
      "logsBloom": "0x00000000000000000000000000000000000000000000000000000000000000000000000000000000000000000000000000000000000000000000000000000000000000000000000000000000000000000000000000000000000000000000000000000000000000000000000000000000000000000000000000000000000000000000000000000000000000000000000000000000000000000000000000000000000000000000000000000000000000000000000000000000000000000000000000000000000000000000000000000000000000000000000000000000000000000000000000000000000000000000000000000000000000000000000000000000",
      "type": "0x2",
      "transactionHash": "0xe70d375efe5a2de02d2d8d62873796c87b5f713dfad9593b75847da34753d4b9",
      "transactionIndex": "0x1a",
      "blockHash": "0x9465dd656de58e941c0258b836a893f3c89d9015dee366d9281736ef49c4c4a8",
      "blockNumber": "0x6c880e",
      "gasUsed": "0x9bd71",
      "effectiveGasPrice": "0x91be5a244",
      "from": "0xe62ab4d111f968660c6b2188046f9b9ba53c4bae",
      "to": "0x699de1ff83fad8c40aea628975e1b3ee71dcfb56",
      "contractAddress": null
    },
    {
      "status": "0x1",
      "cumulativeGasUsed": "0x2ff80a",
      "logs": [],
      "logsBloom": "0x00000000000000000000000000000000000000000000000000000000000000000000000000000000000000000000000000000000000000000000000000000000000000000000000000000000000000000000000000000000000000000000000000000000000000000000000000000000000000000000000000000000000000000000000000000000000000000000000000000000000000000000000000000000000000000000000000000000000000000000000000000000000000000000000000000000000000000000000000000000000000000000000000000000000000000000000000000000000000000000000000000000000000000000000000000000",
      "type": "0x2",
      "transactionHash": "0x79e9a65d70fd0d41b1ebf135632d5d1d1736de9e8be26b1e22431d7e614fd777",
      "transactionIndex": "0x1c",
      "blockHash": "0xf91fddda3d76d95c86d354430a570c3643c6194e73f8b214b13d7eab724ba1a0",
      "blockNumber": "0x6c880f",
      "gasUsed": "0x9b806",
      "effectiveGasPrice": "0x96c618f35",
      "from": "0xe62ab4d111f968660c6b2188046f9b9ba53c4bae",
      "to": "0x699de1ff83fad8c40aea628975e1b3ee71dcfb56",
      "contractAddress": null
    }
  ],
  "libraries": [],
  "pending": [],
  "returns": {},
  "timestamp": 1732066386,
  "chain": 11155111,
  "commit": "4b2e1f8c"
}