{
  "transactions": [
    {
      "hash": "0xc0ef080a0f2c2b86384b6f68528607412888497a79b96d42b3a620902b705601",
      "transactionType": "CALL",
      "contractName": "CTMRWAGateway",
      "contractAddress": "0x13797c225f8e3645299f17d83365e0f5db1c1607",
      "function": "addChainContract(string[],string[])",
      "arguments": [
        "[1115, 200810]",
        "[0xc0b8f765907ab09106010190ee991aaae01f88ba, 0xe08c7ee637336565511eb3421dafdf45b860f9bc]"
      ],
      "transaction": {
        "from": "0xe62ab4d111f968660c6b2188046f9b9ba53c4bae",
        "to": "0x13797c225f8e3645299f17d83365e0f5db1c1607",
        "gas": "0x7880c",
        "value": "0x0",
        "input": "0x013fd3bd0000000000000000000000000000000000000000000000000000000000000040000000000000000000000000000000000000000000000000000000000000012000000000000000000000000000000000000000000000000000000000000000020000000000000000000000000000000000000000000000000000000000000040000000000000000000000000000000000000000000000000000000000000008000000000000000000000000000000000000000000000000000000000000000043131313500000000000000000000000000000000000000000000000000000000000000000000000000000000000000000000000000000000000000000000000632303038313000000000000000000000000000000000000000000000000000000000000000000000000000000000000000000000000000000000000000000002000000000000000000000000000000000000000000000000000000000000004000000000000000000000000000000000000000000000000000000000000000a0000000000000000000000000000000000000000000000000000000000000002a30786330623866373635393037616230393130363031303139306565393931616161653031663838626100000000000000000000000000000000000000000000000000000000000000000000000000000000000000000000000000000000002a30786530386337656536333733333635363535313165623334323164616664663435623836306639626300000000000000000000000000000000000000000000",
        "nonce": "0x35a",
        "chainId": "0xaa36a7"
      },
      "additionalContracts": [],
      "isFixedGasLimit": false
    },
    {
      "hash": "0x3a9f2a3d839d93e8e481ff986b0f1068866b7f8a85fdbd291782ce7c2e3d7456",
      "transactionType": "CALL",
      "contractName": "CTMRWAGateway",
      "contractAddress": "0x13797c225f8e3645299f17d83365e0f5db1c1607",
      "function": "attachRWAX(uint256,uint256,string[],string[])",
      "arguments": [
        "1",
        "1",
        "[1115, 200810]",
        "[0xc981d340ac02b717b52dc249c46b1942e20edbad, 0x78f81b1aee019efaafe58853d96c5e9ac87be731]"
      ],
      "transaction": {
        "from": "0xe62ab4d111f968660c6b2188046f9b9ba53c4bae",
        "to": "0x13797c225f8e3645299f17d83365e0f5db1c1607",
        "gas": "0x8df51",
        "value": "0x0",
        "input": "0x33a5f5b4000000000000000000000000000000000000000000000000000000000000000100000000000000000000000000000000000000000000000000000000000000010000000000000000000000000000000000000000000000000000000000000080000000000000000000000000000000000000000000000000000000000000016000000000000000000000000000000000000000000000000000000000000000020000000000000000000000000000000000000000000000000000000000000040000000000000000000000000000000000000000000000000000000000000008000000000000000000000000000000000000000000000000000000000000000043131313500000000000000000000000000000000000000000000000000000000000000000000000000000000000000000000000000000000000000000000000632303038313000000000000000000000000000000000000000000000000000000000000000000000000000000000000000000000000000000000000000000002000000000000000000000000000000000000000000000000000000000000004000000000000000000000000000000000000000000000000000000000000000a0000000000000000000000000000000000000000000000000000000000000002a30786339383164333430616330326237313762353264633234396334366231393432653230656462616400000000000000000000000000000000000000000000000000000000000000000000000000000000000000000000000000000000002a30783738663831623161656530313965666161666535383835336439366335653961633837626537333100000000000000000000000000000000000000000000",
        "nonce": "0x35b",
        "chainId": "0xaa36a7"
      },
      "additionalContracts": [],
      "isFixedGasLimit": false
    },
    {
      "hash": "0x4a5e5b0c8bdebea96964afb1fd2c978c107616479f844a73b5bedadacd2ed170",
      "transactionType": "CALL",
      "contractName": "CTMRWAGateway",
      "contractAddress": "0x13797c225f8e3645299f17d83365e0f5db1c1607",
      "function": "attachStorageManager(uint256,uint256,string[],string[])",
      "arguments": [
        "1",
        "1",
        "[1115, 200810]",
        "[0x2809808fc225fdaf859826ce7499a56b106d8870, 0x0f607af04457e86ec349fbebb6e23b0a6a0d067f]"
      ],
      "transaction": {
        "from": "0xe62ab4d111f968660c6b2188046f9b9ba53c4bae",
        "to": "0x13797c225f8e3645299f17d83365e0f5db1c1607",
        "gas": "0x7b8c4",
        "value": "0x0",
        "input": "0x2f68b489000000000000000000000000000000000000000000000000000000000000000100000000000000000000000000000000000000000000000000000000000000010000000000000000000000000000000000000000000000000000000000000080000000000000000000000000000000000000000000000000000000000000016000000000000000000000000000000000000000000000000000000000000000020000000000000000000000000000000000000000000000000000000000000040000000000000000000000000000000000000000000000000000000000000008000000000000000000000000000000000000000000000000000000000000000043131313500000000000000000000000000000000000000000000000000000000000000000000000000000000000000000000000000000000000000000000000632303038313000000000000000000000000000000000000000000000000000000000000000000000000000000000000000000000000000000000000000000002000000000000000000000000000000000000000000000000000000000000004000000000000000000000000000000000000000000000000000000000000000a0000000000000000000000000000000000000000000000000000000000000002a30783238303938303866633232356664616638353938323663653734393961353662313036643838373000000000000000000000000000000000000000000000000000000000000000000000000000000000000000000000000000000000002a30783066363037616630343435376538366563333439666265626236653233623061366130643036376600000000000000000000000000000000000000000000",
        "nonce": "0x35c",
        "chainId": "0xaa36a7"
      },
      "additionalContracts": [],
      "isFixedGasLimit": false
    },
    {
      "hash": "0x22b82173b6412f420e4c509c352672d927a38ec156cd1864c6e82606bc82993b",
      "transactionType": "CALL",
      "contractName": "CTMRWAGateway",
      "contractAddress": "0x13797c225f8e3645299f17d83365e0f5db1c1607",
      "function": "attachSentryManager(uint256,uint256,string[],string[])",
      "arguments": [
        "1",
        "1",
        "[1115, 200810]",
        "[0xea37aefe52e5327528f71171844474cf77507770, 0x10a04ad4a73c8bb00ee5a29b27d11eee85390306]"
      ],
      "transaction": {
        "from": "0xe62ab4d111f968660c6b2188046f9b9ba53c4bae",
        "to": "0x13797c225f8e3645299f17d83365e0f5db1c1607",
        "gas": "0x7497c",
        "value": "0x0",
        "input": "0x349de797000000000000000000000000000000000000000000000000000000000000000100000000000000000000000000000000000000000000000000000000000000010000000000000000000000000000000000000000000000000000000000000080000000000000000000000000000000000000000000000000000000000000016000000000000000000000000000000000000000000000000000000000000000020000000000000000000000000000000000000000000000000000000000000040000000000000000000000000000000000000000000000000000000000000008000000000000000000000000000000000000000000000000000000000000000043131313500000000000000000000000000000000000000000000000000000000000000000000000000000000000000000000000000000000000000000000000632303038313000000000000000000000000000000000000000000000000000000000000000000000000000000000000000000000000000000000000000000002000000000000000000000000000000000000000000000000000000000000004000000000000000000000000000000000000000000000000000000000000000a0000000000000000000000000000000000000000000000000000000000000002a30786561333761656665353265353332373532386637313137313834343437346366373735303737373000000000000000000000000000000000000000000000000000000000000000000000000000000000000000000000000000000000002a30783130613034616434613733633862623030656535613239623237643131656565383533393033303600000000000000000000000000000000000000000000",
        "nonce": "0x35d",
        "chainId": "0xaa36a7"
      },
      "additionalContracts": [],
      "isFixedGasLimit": false
    }
  ],
  "receipts": [
    {
      "status": "0x1",
      "cumulativeGasUsed": "0x177dbec",
      "logs": [],
      "logsBloom": "0x00000000000000000000000000000000000000000000000000000000000000000000000000000000000000000000000000000000000000000000000000000000000000000000000000000000000000000000000000000000000000000000000000000000000000000000000000000000000000000000000000000000000000000000000000000000000000000000000000000000000000000000000000000000000000000000000000000000000000000000000000000000000000000000000000000000000000000000000000000000000000000000000000000000000000000000000000000000000000000000000000000000000000000000000000000000",
      "type": "0x2",
      "transactionHash": "0xc0ef080a0f2c2b86384b6f68528607412888497a79b96d42b3a620902b705601",
      "transactionIndex": "0xcf",
      "blockHash": "0xe92024a9bd88cbe4420d843da022fd98b07f6efb46151b079a582a0b69e3dcee",
      "blockNumber": "0x80ac66",
      "gasUsed": "0x52653",
      "effectiveGasPrice": "0x754d269",
      "from": "0xe62ab4d111f968660c6b2188046f9b9ba53c4bae",
      "to": "0x13797c225f8e3645299f17d83365e0f5db1c1607",
      "contractAddress": null
    },
    {
      "status": "0x1",
      "cumulativeGasUsed": "0x150b605",
      "logs": [],
      "logsBloom": "0x00000000000000000000000000000000000000000000000000000000000000000000000000000000000000000000000000000000000000000000000000000000000000000000000000000000000000000000000000000000000000000000000000000000000000000000000000000000000000000000000000000000000000000000000000000000000000000000000000000000000000000000000000000000000000000000000000000000000000000000000000000000000000000000000000000000000000000000000000000000000000000000000000000000000000000000000000000000000000000000000000000000000000000000000000000000",
      "type": "0x2",
      "transactionHash": "0x3a9f2a3d839d93e8e481ff986b0f1068866b7f8a85fdbd291782ce7c2e3d7456",
      "transactionIndex": "0xd6",
      "blockHash": "0x675bbee191f979b339ba51fd8cf47fad38d1f8689ac016dbf0941835426b2e90",
      "blockNumber": "0x80ac67",
      "gasUsed": "0x6110a",
      "effectiveGasPrice": "0x7826ebb",
      "from": "0xe62ab4d111f968660c6b2188046f9b9ba53c4bae",
      "to": "0x13797c225f8e3645299f17d83365e0f5db1c1607",
      "contractAddress": null
    },
    {
      "status": "0x1",
      "cumulativeGasUsed": "0x1657bed",
      "logs": [],
      "logsBloom": "0x00000000000000000000000000000000000000000000000000000000000000000000000000000000000000000000000000000000000000000000000000000000000000000000000000000000000000000000000000000000000000000000000000000000000000000000000000000000000000000000000000000000000000000000000000000000000000000000000000000000000000000000000000000000000000000000000000000000000000000000000000000000000000000000000000000000000000000000000000000000000000000000000000000000000000000000000000000000000000000000000000000000000000000000000000000000",
      "type": "0x2",
      "transactionHash": "0x4a5e5b0c8bdebea96964afb1fd2c978c107616479f844a73b5bedadacd2ed170",
      "transactionIndex": "0xd3",
      "blockHash": "0x4dc43f6eefc32614f4f07d85d02085f94a0bdca168e2635da71349b50d510ac6",
      "blockNumber": "0x80ac68",
      "gasUsed": "0x547a3",
      "effectiveGasPrice": "0x7b844b6",
      "from": "0xe62ab4d111f968660c6b2188046f9b9ba53c4bae",
      "to": "0x13797c225f8e3645299f17d83365e0f5db1c1607",
      "contractAddress": null
    },
    {
      "status": "0x1",
      "cumulativeGasUsed": "0x1747378",
      "logs": [],
      "logsBloom": "0x00000000000000000000000000000000000000000000000000000000000000000000000000000000000000000000000000000000000000000000000000000000000000000000000000000000000000000000000000000000000000000000000000000000000000000000000000000000000000000000000000000000000000000000000000000000000000000000000000000000000000000000000000000000000000000000000000000000000000000000000000000000000000000000000000000000000000000000000000000000000000000000000000000000000000000000000000000000000000000000000000000000000000000000000000000000",
      "type": "0x2",
      "transactionHash": "0x22b82173b6412f420e4c509c352672d927a38ec156cd1864c6e82606bc82993b",
      "transactionIndex": "0xcb",
      "blockHash": "0x3ac42e8e8bb0b89b832b0e52679507f2bfbb484984097a1b98238b0842ed6741",
      "blockNumber": "0x80ac69",
      "gasUsed": "0x54694",
      "effectiveGasPrice": "0x7ef6ea1",
      "from": "0xe62ab4d111f968660c6b2188046f9b9ba53c4bae",
      "to": "0x13797c225f8e3645299f17d83365e0f5db1c1607",
      "contractAddress": null
    }
  ],
  "libraries": [],
  "pending": [],
  "returns": {},
  "timestamp": 1748531317,
  "chain": 11155111,
  "commit": "c07ce9ba"
}