{
  "transactions": [
    {
      "hash": "0xc8fe4ea3a269db7bbc43d9a631063b2bc6a41ef0b474946aa3c1ee2fafc8313d",
      "transactionType": "CALL",
      "contractName": "FeeManager",
      "contractAddress": "0xa3bae05aa45bcc739258b124face332043d3b1da",
      "function": "getFeeTokenList()",
      "arguments": [],
      "transaction": {
        "from": "0xe62ab4d111f968660c6b2188046f9b9ba53c4bae",
        "to": "0xa3bae05aa45bcc739258b124face332043d3b1da",
        "gas": "0x8a7e",
        "value": "0x0",
        "input": "0xe28ab277",
        "nonce": "0x165",
        "chainId": "0xaa36a7"
      },
      "additionalContracts": [],
      "isFixedGasLimit": false
    },
    {
      "hash": "0x995fb006f055eacdf3bebdff43be7698c2e4cb51660bbbe6e894bfbe91b23cb4",
      "transactionType": "CALL",
      "contractName": "FeeManager",
      "contractAddress": "0xa3bae05aa45bcc739258b124face332043d3b1da",
      "function": "addFeeToken(string)",
      "arguments": [
        "0xa4c104db0937f1e886d5c9c9789d6f0e5bfba75c"
      ],
      "transaction": {
        "from": "0xe62ab4d111f968660c6b2188046f9b9ba53c4bae",
        "to": "0xa3bae05aa45bcc739258b124face332043d3b1da",
        "gas": "0x28cec",
        "value": "0x0",
        "input": "0x12a6385f0000000000000000000000000000000000000000000000000000000000000020000000000000000000000000000000000000000000000000000000000000002a30786134633130346462303933376631653838366435633963393738396436663065356266626137356300000000000000000000000000000000000000000000",
        "nonce": "0x166",
        "chainId": "0xaa36a7"
      },
      "additionalContracts": [],
      "isFixedGasLimit": false
    },
    {
      "hash": "0xff6b6c82518ad252d613fbad74ca1260ed1fb30965299a282b04d4020d346c32",
      "transactionType": "CALL",
      "contractName": "FeeManager",
      "contractAddress": "0xa3bae05aa45bcc739258b124face332043d3b1da",
      "function": "setFeeMultiplier(uint8,uint256)",
      "arguments": [
        "0",
        "2"
      ],
      "transaction": {
        "from": "0xe62ab4d111f968660c6b2188046f9b9ba53c4bae",
        "to": "0xa3bae05aa45bcc739258b124face332043d3b1da",
        "gas": "0x112e8",
        "value": "0x0",
        "input": "0x0ee24eb500000000000000000000000000000000000000000000000000000000000000000000000000000000000000000000000000000000000000000000000000000002",
        "nonce": "0x167",
        "chainId": "0xaa36a7"
      },
      "additionalContracts": [],
      "isFixedGasLimit": false
    },
    {
      "hash": "0x496a481abf6edfa5a546eb1d28f9725ee86a4314534f0a26bf45c6add83ccfa9",
      "transactionType": "CALL",
      "contractName": "FeeManager",
      "contractAddress": "0xa3bae05aa45bcc739258b124face332043d3b1da",
      "function": "setFeeMultiplier(uint8,uint256)",
      "arguments": [
        "1",
        "10"
      ],
      "transaction": {
        "from": "0xe62ab4d111f968660c6b2188046f9b9ba53c4bae",
        "to": "0xa3bae05aa45bcc739258b124face332043d3b1da",
        "gas": "0x11324",
        "value": "0x0",
        "input": "0x0ee24eb50000000000000000000000000000000000000000000000000000000000000001000000000000000000000000000000000000000000000000000000000000000a",
        "nonce": "0x168",
        "chainId": "0xaa36a7"
      },
      "additionalContracts": [],
      "isFixedGasLimit": false
    },
    {
      "hash": "0xfb929df007325ef6b7ac3c9dd0b01d4c8b40f69851697c38d14f3fba1ff0b066",
      "transactionType": "CALL",
      "contractName": "FeeManager",
      "contractAddress": "0xa3bae05aa45bcc739258b124face332043d3b1da",
      "function": "setFeeMultiplier(uint8,uint256)",
      "arguments": [
        "2",
        "1"
      ],
      "transaction": {
        "from": "0xe62ab4d111f968660c6b2188046f9b9ba53c4bae",
        "to": "0xa3bae05aa45bcc739258b124face332043d3b1da",
        "gas": "0x11346",
        "value": "0x0",
        "input": "0x0ee24eb500000000000000000000000000000000000000000000000000000000000000020000000000000000000000000000000000000000000000000000000000000001",
        "nonce": "0x169",
        "chainId": "0xaa36a7"
      },
      "additionalContracts": [],
      "isFixedGasLimit": false
    },
    {
      "hash": "0x16a29e593f53801345ae404fd1bfda61da44d04f0a2ddaa5afd3a75c0f447673",
      "transactionType": "CALL",
      "contractName": "FeeManager",
      "contractAddress": "0xa3bae05aa45bcc739258b124face332043d3b1da",
      "function": "setFeeMultiplier(uint8,uint256)",
      "arguments": [
        "3",
        "4"
      ],
      "transaction": {
        "from": "0xe62ab4d111f968660c6b2188046f9b9ba53c4bae",
        "to": "0xa3bae05aa45bcc739258b124face332043d3b1da",
        "gas": "0x1041b",
        "value": "0x0",
        "input": "0x0ee24eb500000000000000000000000000000000000000000000000000000000000000030000000000000000000000000000000000000000000000000000000000000004",
        "nonce": "0x16a",
        "chainId": "0xaa36a7"
      },
      "additionalContracts": [],
      "isFixedGasLimit": false
    },
    {
      "hash": "0xe7bc97a1ce3ac8a33c99a2b7894df0c63637b382cd1467a3b650638d0bb74071",
      "transactionType": "CALL",
      "contractName": "FeeManager",
      "contractAddress": "0xa3bae05aa45bcc739258b124face332043d3b1da",
      "function": "setFeeMultiplier(uint8,uint256)",
      "arguments": [
        "4",
        "4"
      ],
      "transaction": {
        "from": "0xe62ab4d111f968660c6b2188046f9b9ba53c4bae",
        "to": "0xa3bae05aa45bcc739258b124face332043d3b1da",
        "gas": "0x1043a",
        "value": "0x0",
        "input": "0x0ee24eb500000000000000000000000000000000000000000000000000000000000000040000000000000000000000000000000000000000000000000000000000000004",
        "nonce": "0x16b",
        "chainId": "0xaa36a7"
      },
      "additionalContracts": [],
      "isFixedGasLimit": false
    },
    {
      "hash": "0xe7577df7993c7c00cf4fda03263ebc780a7953fe8b99eb2a9d99b865d2e5d7ce",
      "transactionType": "CALL",
      "contractName": "FeeManager",
      "contractAddress": "0xa3bae05aa45bcc739258b124face332043d3b1da",
      "function": "setFeeMultiplier(uint8,uint256)",
      "arguments": [
        "5",
        "4"
      ],
      "transaction": {
        "from": "0xe62ab4d111f968660c6b2188046f9b9ba53c4bae",
        "to": "0xa3bae05aa45bcc739258b124face332043d3b1da",
        "gas": "0x10459",
        "value": "0x0",
        "input": "0x0ee24eb500000000000000000000000000000000000000000000000000000000000000050000000000000000000000000000000000000000000000000000000000000004",
        "nonce": "0x16c",
        "chainId": "0xaa36a7"
      },
      "additionalContracts": [],
      "isFixedGasLimit": false
    },
    {
      "hash": "0x767483226695d982a134024546488f77d02574a7530f82655eb2e2725937bdf7",
      "transactionType": "CALL",
      "contractName": "FeeManager",
      "contractAddress": "0xa3bae05aa45bcc739258b124face332043d3b1da",
      "function": "setFeeMultiplier(uint8,uint256)",
      "arguments": [
        "6",
        "8"
      ],
      "transaction": {
        "from": "0xe62ab4d111f968660c6b2188046f9b9ba53c4bae",
        "to": "0xa3bae05aa45bcc739258b124face332043d3b1da",
        "gas": "0x1047a",
        "value": "0x0",
        "input": "0x0ee24eb500000000000000000000000000000000000000000000000000000000000000060000000000000000000000000000000000000000000000000000000000000008",
        "nonce": "0x16d",
        "chainId": "0xaa36a7"
      },
      "additionalContracts": [],
      "isFixedGasLimit": false
    },
    {
      "hash": "0xa8b6ad2d4cd70342f87d86b27e54046782de2f6744b57e3a3367793cd8a0175c",
      "transactionType": "CALL",
      "contractName": "FeeManager",
      "contractAddress": "0xa3bae05aa45bcc739258b124face332043d3b1da",
      "function": "setFeeMultiplier(uint8,uint256)",
      "arguments": [
        "7",
        "4"
      ],
      "transaction": {
        "from": "0xe62ab4d111f968660c6b2188046f9b9ba53c4bae",
        "to": "0xa3bae05aa45bcc739258b124face332043d3b1da",
        "gas": "0x10499",
        "value": "0x0",
        "input": "0x0ee24eb500000000000000000000000000000000000000000000000000000000000000070000000000000000000000000000000000000000000000000000000000000004",
        "nonce": "0x16e",
        "chainId": "0xaa36a7"
      },
      "additionalContracts": [],
      "isFixedGasLimit": false
    },
    {
      "hash": "0xf521c0897a4286c34f3d3d728e5912b2dd02eea22f64b4382c386f915713ef7f",
      "transactionType": "CALL",
      "contractName": "FeeManager",
      "contractAddress": "0xa3bae05aa45bcc739258b124face332043d3b1da",
      "function": "setFeeMultiplier(uint8,uint256)",
      "arguments": [
        "8",
        "10"
      ],
      "transaction": {
        "from": "0xe62ab4d111f968660c6b2188046f9b9ba53c4bae",
        "to": "0xa3bae05aa45bcc739258b124face332043d3b1da",
        "gas": "0x1140f",
        "value": "0x0",
        "input": "0x0ee24eb50000000000000000000000000000000000000000000000000000000000000008000000000000000000000000000000000000000000000000000000000000000a",
        "nonce": "0x16f",
        "chainId": "0xaa36a7"
      },
      "additionalContracts": [],
      "isFixedGasLimit": false
    },
    {
      "hash": "0x5e1acadf14709cd1a77b5b37a1f6673ee10322f6c8ca1b77e361850b7e3af7ad",
      "transactionType": "CALL",
      "contractName": "FeeManager",
      "contractAddress": "0xa3bae05aa45bcc739258b124face332043d3b1da",
      "function": "setFeeMultiplier(uint8,uint256)",
      "arguments": [
        "9",
        "8"
      ],
      "transaction": {
        "from": "0xe62ab4d111f968660c6b2188046f9b9ba53c4bae",
        "to": "0xa3bae05aa45bcc739258b124face332043d3b1da",
        "gas": "0x11431",
        "value": "0x0",
        "input": "0x0ee24eb500000000000000000000000000000000000000000000000000000000000000090000000000000000000000000000000000000000000000000000000000000008",
        "nonce": "0x170",
        "chainId": "0xaa36a7"
      },
      "additionalContracts": [],
      "isFixedGasLimit": false
    },
    {
      "hash": "0x4938145bd842da98bfd8b62969718e80724e1eed7452ae48a32e2e24631b8e1e",
      "transactionType": "CALL",
      "contractName": "FeeManager",
      "contractAddress": "0xa3bae05aa45bcc739258b124face332043d3b1da",
      "function": "setFeeMultiplier(uint8,uint256)",
      "arguments": [
        "10",
        "8"
      ],
      "transaction": {
        "from": "0xe62ab4d111f968660c6b2188046f9b9ba53c4bae",
        "to": "0xa3bae05aa45bcc739258b124face332043d3b1da",
        "gas": "0x11453",
        "value": "0x0",
        "input": "0x0ee24eb5000000000000000000000000000000000000000000000000000000000000000a0000000000000000000000000000000000000000000000000000000000000008",
        "nonce": "0x171",
        "chainId": "0xaa36a7"
      },
      "additionalContracts": [],
      "isFixedGasLimit": false
    },
    {
      "hash": "0x2f30a5312e73e493b01f521c530cccb48c6e39cc41951258d11da700b543be02",
      "transactionType": "CALL",
      "contractName": "FeeManager",
      "contractAddress": "0xa3bae05aa45bcc739258b124face332043d3b1da",
      "function": "setFeeMultiplier(uint8,uint256)",
      "arguments": [
        "11",
        "8"
      ],
      "transaction": {
        "from": "0xe62ab4d111f968660c6b2188046f9b9ba53c4bae",
        "to": "0xa3bae05aa45bcc739258b124face332043d3b1da",
        "gas": "0x10518",
        "value": "0x0",
        "input": "0x0ee24eb5000000000000000000000000000000000000000000000000000000000000000b0000000000000000000000000000000000000000000000000000000000000008",
        "nonce": "0x172",
        "chainId": "0xaa36a7"
      },
      "additionalContracts": [],
      "isFixedGasLimit": false
    },
    {
      "hash": "0xceb4cf3efebc15694aa5ca6e467f574245e3a580caf75c27342ed87cc092f478",
      "transactionType": "CALL",
      "contractName": "FeeManager",
      "contractAddress": "0xa3bae05aa45bcc739258b124face332043d3b1da",
      "function": "setFeeMultiplier(uint8,uint256)",
      "arguments": [
        "12",
        "20"
      ],
      "transaction": {
        "from": "0xe62ab4d111f968660c6b2188046f9b9ba53c4bae",
        "to": "0xa3bae05aa45bcc739258b124face332043d3b1da",
        "gas": "0x10538",
        "value": "0x0",
        "input": "0x0ee24eb5000000000000000000000000000000000000000000000000000000000000000c0000000000000000000000000000000000000000000000000000000000000014",
        "nonce": "0x173",
        "chainId": "0xaa36a7"
      },
      "additionalContracts": [],
      "isFixedGasLimit": false
    },
    {
      "hash": "0x7cd89d0036f89facb066196273d0e5ec9887987992280caaad5c00580566bf4d",
      "transactionType": "CALL",
      "contractName": "FeeManager",
      "contractAddress": "0xa3bae05aa45bcc739258b124face332043d3b1da",
      "function": "setFeeMultiplier(uint8,uint256)",
      "arguments": [
        "13",
        "8"
      ],
      "transaction": {
        "from": "0xe62ab4d111f968660c6b2188046f9b9ba53c4bae",
        "to": "0xa3bae05aa45bcc739258b124face332043d3b1da",
        "gas": "0x10558",
        "value": "0x0",
        "input": "0x0ee24eb5000000000000000000000000000000000000000000000000000000000000000d0000000000000000000000000000000000000000000000000000000000000008",
        "nonce": "0x174",
        "chainId": "0xaa36a7"
      },
      "additionalContracts": [],
      "isFixedGasLimit": false
    },
    {
      "hash": "0xb6261d4923add19a0b6966ccff024939e7dc56414ed3c6dbbb807755a2185ab6",
      "transactionType": "CALL",
      "contractName": "FeeManager",
      "contractAddress": "0xa3bae05aa45bcc739258b124face332043d3b1da",
      "function": "setFeeMultiplier(uint8,uint256)",
      "arguments": [
        "14",
        "4"
      ],
      "transaction": {
        "from": "0xe62ab4d111f968660c6b2188046f9b9ba53c4bae",
        "to": "0xa3bae05aa45bcc739258b124face332043d3b1da",
        "gas": "0x10577",
        "value": "0x0",
        "input": "0x0ee24eb5000000000000000000000000000000000000000000000000000000000000000e0000000000000000000000000000000000000000000000000000000000000004",
        "nonce": "0x175",
        "chainId": "0xaa36a7"
      },
      "additionalContracts": [],
      "isFixedGasLimit": false
    },
    {
      "hash": "0x281f367a0f9de5022d1001c4ee86554729d686e903b003db733b0ebbe0f16a7c",
      "transactionType": "CALL",
      "contractName": "FeeManager",
      "contractAddress": "0xa3bae05aa45bcc739258b124face332043d3b1da",
      "function": "setFeeMultiplier(uint8,uint256)",
      "arguments": [
        "15",
        "4"
      ],
      "transaction": {
        "from": "0xe62ab4d111f968660c6b2188046f9b9ba53c4bae",
        "to": "0xa3bae05aa45bcc739258b124face332043d3b1da",
        "gas": "0x10598",
        "value": "0x0",
        "input": "0x0ee24eb5000000000000000000000000000000000000000000000000000000000000000f0000000000000000000000000000000000000000000000000000000000000004",
        "nonce": "0x176",
        "chainId": "0xaa36a7"
      },
      "additionalContracts": [],
      "isFixedGasLimit": false
    },
    {
      "hash": "0xe14551b6314f561e91fd5e018b469b3c0a6ea874a82890f8ff77703b63ddaf7f",
      "transactionType": "CALL",
      "contractName": "FeeManager",
      "contractAddress": "0xa3bae05aa45bcc739258b124face332043d3b1da",
      "function": "setFeeMultiplier(uint8,uint256)",
      "arguments": [
        "16",
        "4"
      ],
      "transaction": {
        "from": "0xe62ab4d111f968660c6b2188046f9b9ba53c4bae",
        "to": "0xa3bae05aa45bcc739258b124face332043d3b1da",
        "gas": "0x1151d",
        "value": "0x0",
        "input": "0x0ee24eb500000000000000000000000000000000000000000000000000000000000000100000000000000000000000000000000000000000000000000000000000000004",
        "nonce": "0x177",
        "chainId": "0xaa36a7"
      },
      "additionalContracts": [],
      "isFixedGasLimit": false
    },
    {
      "hash": "0x7712f68ea136758f605288d0a85f4aa26ea674b8a220eeb71494be88ebdeff75",
      "transactionType": "CALL",
      "contractName": "FeeManager",
      "contractAddress": "0xa3bae05aa45bcc739258b124face332043d3b1da",
      "function": "setFeeMultiplier(uint8,uint256)",
      "arguments": [
        "17",
        "4"
      ],
      "transaction": {
        "from": "0xe62ab4d111f968660c6b2188046f9b9ba53c4bae",
        "to": "0xa3bae05aa45bcc739258b124face332043d3b1da",
        "gas": "0x1153e",
        "value": "0x0",
        "input": "0x0ee24eb500000000000000000000000000000000000000000000000000000000000000110000000000000000000000000000000000000000000000000000000000000004",
        "nonce": "0x178",
        "chainId": "0xaa36a7"
      },
      "additionalContracts": [],
      "isFixedGasLimit": false
    },
    {
      "hash": "0xf61fd080b3bcbd07f5105e36af2f6b8513d457e81e9846e11d33c31565fde26b",
      "transactionType": "CALL",
      "contractName": "FeeManager",
      "contractAddress": "0xa3bae05aa45bcc739258b124face332043d3b1da",
      "function": "setFeeMultiplier(uint8,uint256)",
      "arguments": [
        "18",
        "2"
      ],
      "transaction": {
        "from": "0xe62ab4d111f968660c6b2188046f9b9ba53c4bae",
        "to": "0xa3bae05aa45bcc739258b124face332043d3b1da",
        "gas": "0x11560",
        "value": "0x0",
        "input": "0x0ee24eb500000000000000000000000000000000000000000000000000000000000000120000000000000000000000000000000000000000000000000000000000000002",
        "nonce": "0x179",
        "chainId": "0xaa36a7"
      },
      "additionalContracts": [],
      "isFixedGasLimit": false
    },
    {
      "hash": "0xcee185894ecc3507dc3b3069b681d102f81f367f21f08651016948e9d5a1a5b7",
      "transactionType": "CALL",
      "contractName": "FeeManager",
      "contractAddress": "0xa3bae05aa45bcc739258b124face332043d3b1da",
      "function": "setFeeMultiplier(uint8,uint256)",
      "arguments": [
        "19",
        "2"
      ],
      "transaction": {
        "from": "0xe62ab4d111f968660c6b2188046f9b9ba53c4bae",
        "to": "0xa3bae05aa45bcc739258b124face332043d3b1da",
        "gas": "0x1157a",
        "value": "0x0",
        "input": "0x0ee24eb500000000000000000000000000000000000000000000000000000000000000130000000000000000000000000000000000000000000000000000000000000002",
        "nonce": "0x17a",
        "chainId": "0xaa36a7"
      },
      "additionalContracts": [],
      "isFixedGasLimit": false
    },
    {
      "hash": "0x90069fe9cc4956ed4b1080c60e55d3783d520eb1d1fa75d38d5e6dc2f6cf1289",
      "transactionType": "CALL",
      "contractName": "FeeManager",
      "contractAddress": "0xa3bae05aa45bcc739258b124face332043d3b1da",
      "function": "addFeeToken(string,string[],uint256[])",
      "arguments": [
        "421614",
        "[0xa4c104db0937f1e886d5c9c9789d6f0e5bfba75c]",
        "[100]"
      ],
      "transaction": {
        "from": "0xe62ab4d111f968660c6b2188046f9b9ba53c4bae",
        "to": "0xa3bae05aa45bcc739258b124face332043d3b1da",
        "gas": "0x2f4dd",
        "value": "0x0",
        "input": "0x437bf84f000000000000000000000000000000000000000000000000000000000000006000000000000000000000000000000000000000000000000000000000000000a000000000000000000000000000000000000000000000000000000000000001400000000000000000000000000000000000000000000000000000000000000006343231363134000000000000000000000000000000000000000000000000000000000000000000000000000000000000000000000000000000000000000000010000000000000000000000000000000000000000000000000000000000000020000000000000000000000000000000000000000000000000000000000000002a3078613463313034646230393337663165383836643563396339373839643666306535626662613735630000000000000000000000000000000000000000000000000000000000000000000000000000000000000000000000000000000000010000000000000000000000000000000000000000000000000000000000000064",
        "nonce": "0x17b",
        "chainId": "0xaa36a7"
      },
      "additionalContracts": [],
      "isFixedGasLimit": false
    },
    {
      "hash": "0x2c26e33b4fdc45c2926a8d3e6a1789dd2e1004353b300da67ac8f684f1c39afb",
      "transactionType": "CALL",
      "contractName": "FeeManager",
      "contractAddress": "0xa3bae05aa45bcc739258b124face332043d3b1da",
      "function": "addFeeToken(string,string[],uint256[])",
      "arguments": [
        "80002",
        "[0xa4c104db0937f1e886d5c9c9789d6f0e5bfba75c]",
        "[100]"
      ],
      "transaction": {
        "from": "0xe62ab4d111f968660c6b2188046f9b9ba53c4bae",
        "to": "0xa3bae05aa45bcc739258b124face332043d3b1da",
        "gas": "0x2a14c",
        "value": "0x0",
        "input": "0x437bf84f000000000000000000000000000000000000000000000000000000000000006000000000000000000000000000000000000000000000000000000000000000a000000000000000000000000000000000000000000000000000000000000001400000000000000000000000000000000000000000000000000000000000000005383030303200000000000000000000000000000000000000000000000000000000000000000000000000000000000000000000000000000000000000000000010000000000000000000000000000000000000000000000000000000000000020000000000000000000000000000000000000000000000000000000000000002a3078613463313034646230393337663165383836643563396339373839643666306535626662613735630000000000000000000000000000000000000000000000000000000000000000000000000000000000000000000000000000000000010000000000000000000000000000000000000000000000000000000000000064",
        "nonce": "0x17c",
        "chainId": "0xaa36a7"
      },
      "additionalContracts": [],
      "isFixedGasLimit": false
    },
    {
      "hash": "0xa0eba0ebba908430f03d5799d3942300a067e3293954cf8fd5eac599cd216e83",
      "transactionType": "CALL",
      "contractName": "FeeManager",
      "contractAddress": "0xa3bae05aa45bcc739258b124face332043d3b1da",
      "function": "addFeeToken(string,string[],uint256[])",
      "arguments": [
        "84532",
        "[0xa4c104db0937f1e886d5c9c9789d6f0e5bfba75c]",
        "[100]"
      ],
      "transaction": {
        "from": "0xe62ab4d111f968660c6b2188046f9b9ba53c4bae",
        "to": "0xa3bae05aa45bcc739258b124face332043d3b1da",
        "gas": "0x2a14c",
        "value": "0x0",
        "input": "0x437bf84f000000000000000000000000000000000000000000000000000000000000006000000000000000000000000000000000000000000000000000000000000000a000000000000000000000000000000000000000000000000000000000000001400000000000000000000000000000000000000000000000000000000000000005383435333200000000000000000000000000000000000000000000000000000000000000000000000000000000000000000000000000000000000000000000010000000000000000000000000000000000000000000000000000000000000020000000000000000000000000000000000000000000000000000000000000002a3078613463313034646230393337663165383836643563396339373839643666306535626662613735630000000000000000000000000000000000000000000000000000000000000000000000000000000000000000000000000000000000010000000000000000000000000000000000000000000000000000000000000064",
        "nonce": "0x17d",
        "chainId": "0xaa36a7"
      },
      "additionalContracts": [],
      "isFixedGasLimit": false
    },
    {
      "hash": "0xf613642cf204b871edfb8633ac87b5e34a7cc504186ac5352aaca6fe9018c476",
      "transactionType": "CALL",
      "contractName": "FeeManager",
      "contractAddress": "0xa3bae05aa45bcc739258b124face332043d3b1da",
      "function": "addFeeToken(string,string[],uint256[])",
      "arguments": [
        "97",
        "[0xa4c104db0937f1e886d5c9c9789d6f0e5bfba75c]",
        "[100]"
      ],
      "transaction": {
        "from": "0xe62ab4d111f968660c6b2188046f9b9ba53c4bae",
        "to": "0xa3bae05aa45bcc739258b124face332043d3b1da",
        "gas": "0x2c241",
        "value": "0x0",
        "input": "0x437bf84f000000000000000000000000000000000000000000000000000000000000006000000000000000000000000000000000000000000000000000000000000000a000000000000000000000000000000000000000000000000000000000000001400000000000000000000000000000000000000000000000000000000000000002393700000000000000000000000000000000000000000000000000000000000000000000000000000000000000000000000000000000000000000000000000010000000000000000000000000000000000000000000000000000000000000020000000000000000000000000000000000000000000000000000000000000002a3078613463313034646230393337663165383836643563396339373839643666306535626662613735630000000000000000000000000000000000000000000000000000000000000000000000000000000000000000000000000000000000010000000000000000000000000000000000000000000000000000000000000064",
        "nonce": "0x17e",
        "chainId": "0xaa36a7"
      },
      "additionalContracts": [],
      "isFixedGasLimit": false
    },
    {
      "hash": "0x24ee9eaf7d6c25cd3c2c1e7f692f76dd5d3872b22cb52f31f8a6e7e3b5c7d56c",
      "transactionType": "CALL",
      "contractName": "FeeManager",
      "contractAddress": "0xa3bae05aa45bcc739258b124face332043d3b1da",
      "function": "addFeeToken(string,string[],uint256[])",
      "arguments": [
        "11155111",
        "[0xa4c104db0937f1e886d5c9c9789d6f0e5bfba75c]",
        "[100]"
      ],
      "transaction": {
        "from": "0xe62ab4d111f968660c6b2188046f9b9ba53c4bae",
        "to": "0xa3bae05aa45bcc739258b124face332043d3b1da",
        "gas": "0x2cf8e",
        "value": "0x0",
        "input": "0x437bf84f000000000000000000000000000000000000000000000000000000000000006000000000000000000000000000000000000000000000000000000000000000a000000000000000000000000000000000000000000000000000000000000001400000000000000000000000000000000000000000000000000000000000000008313131353531313100000000000000000000000000000000000000000000000000000000000000000000000000000000000000000000000000000000000000010000000000000000000000000000000000000000000000000000000000000020000000000000000000000000000000000000000000000000000000000000002a3078613463313034646230393337663165383836643563396339373839643666306535626662613735630000000000000000000000000000000000000000000000000000000000000000000000000000000000000000000000000000000000010000000000000000000000000000000000000000000000000000000000000064",
        "nonce": "0x17f",
        "chainId": "0xaa36a7"
      },
      "additionalContracts": [],
      "isFixedGasLimit": false
    },
    {
      "hash": "0x693c9c6d6df3be050d28abffc42c1ea8d5b779b1fdc3e4542a76ef224ae06c37",
      "transactionType": "CALL",
      "contractName": "CTMRWAGateway",
      "contractAddress": "0x3cb56e6e5917a2a8924bc2a5c1f0ecc90b585e74",
      "function": "addChainContract(string[],string[])",
      "arguments": [
        "[421614, 80002, 84532, 97]",
        "[0xd990ef52a6a375b19375b07cfc2aad2b592e66be, 0x73a3ecd2fad26975d16b31e482eaf0f5152d420e, 0x497d31415cc6d20113d2f96c90c706b98701c1c9, 0x9b191600588b59e314d2927204c8edc57603d672]"
      ],
      "transaction": {
        "from": "0xe62ab4d111f968660c6b2188046f9b9ba53c4bae",
        "to": "0x3cb56e6e5917a2a8924bc2a5c1f0ecc90b585e74",
        "gas": "0xa9b9f",
        "value": "0x0",
        "input": "0x013fd3bd000000000000000000000000000000000000000000000000000000000000004000000000000000000000000000000000000000000000000000000000000001e00000000000000000000000000000000000000000000000000000000000000004000000000000000000000000000000000000000000000000000000000000008000000000000000000000000000000000000000000000000000000000000000c000000000000000000000000000000000000000000000000000000000000001000000000000000000000000000000000000000000000000000000000000000140000000000000000000000000000000000000000000000000000000000000000634323136313400000000000000000000000000000000000000000000000000000000000000000000000000000000000000000000000000000000000000000005383030303200000000000000000000000000000000000000000000000000000000000000000000000000000000000000000000000000000000000000000000053834353332000000000000000000000000000000000000000000000000000000000000000000000000000000000000000000000000000000000000000000000239370000000000000000000000000000000000000000000000000000000000000000000000000000000000000000000000000000000000000000000000000004000000000000000000000000000000000000000000000000000000000000008000000000000000000000000000000000000000000000000000000000000000e0000000000000000000000000000000000000000000000000000000000000014000000000000000000000000000000000000000000000000000000000000001a0000000000000000000000000000000000000000000000000000000000000002a30786439393065663532613661333735623139333735623037636663326161643262353932653636626500000000000000000000000000000000000000000000000000000000000000000000000000000000000000000000000000000000002a30783733613365636432666164323639373564313662333165343832656166306635313532643432306500000000000000000000000000000000000000000000000000000000000000000000000000000000000000000000000000000000002a30783439376433313431356363366432303131336432663936633930633730366239383730316331633900000000000000000000000000000000000000000000000000000000000000000000000000000000000000000000000000000000002a30783962313931363030353838623539653331346432393237323034633865646335373630336436373200000000000000000000000000000000000000000000",
        "nonce": "0x180",
        "chainId": "0xaa36a7"
      },
      "additionalContracts": [],
      "isFixedGasLimit": false
    },
    {
      "hash": "0xf2d9444bf57cb4b19d48c6b7a4fa2e9c71683f0121fee2cc54e9e52d67f5f8cc",
      "transactionType": "CALL",
      "contractName": "CTMRWAGateway",
      "contractAddress": "0x3cb56e6e5917a2a8924bc2a5c1f0ecc90b585e74",
      "function": "attachRWAX(uint256,uint256,string[],string[])",
      "arguments": [
        "1",
        "1",
        "[11155111, 421614, 80002, 84532, 97]",
        "[0x1f652e2d8a9fca346a0f45d59a67fb998999e454, 0x8bde23e16f4f9b19b3e11edcb65168e7f2720006, 0x4da174a7024b242fb979d120ee63f1bf6aba3e07, 0xbe87477fd18fbebd8cccdd003f6f66ffc4d49cd1, 0x730e8b2d89ba0d3403bb3d8c9929a9f0da61e051]"
      ],
      "transaction": {
        "from": "0xe62ab4d111f968660c6b2188046f9b9ba53c4bae",
        "to": "0x3cb56e6e5917a2a8924bc2a5c1f0ecc90b585e74",
        "gas": "0x1152fe",
        "value": "0x0",
        "input": "0x33a5f5b40000000000000000000000000000000000000000000000000000000000000001000000000000000000000000000000000000000000000000000000000000000100000000000000000000000000000000000000000000000000000000000000800000000000000000000000000000000000000000000000000000000000000280000000000000000000000000000000000000000000000000000000000000000500000000000000000000000000000000000000000000000000000000000000a000000000000000000000000000000000000000000000000000000000000000e00000000000000000000000000000000000000000000000000000000000000120000000000000000000000000000000000000000000000000000000000000016000000000000000000000000000000000000000000000000000000000000001a00000000000000000000000000000000000000000000000000000000000000008313131353531313100000000000000000000000000000000000000000000000000000000000000000000000000000000000000000000000000000000000000063432313631340000000000000000000000000000000000000000000000000000000000000000000000000000000000000000000000000000000000000000000538303030320000000000000000000000000000000000000000000000000000000000000000000000000000000000000000000000000000000000000000000005383435333200000000000000000000000000000000000000000000000000000000000000000000000000000000000000000000000000000000000000000000023937000000000000000000000000000000000000000000000000000000000000000000000000000000000000000000000000000000000000000000000000000500000000000000000000000000000000000000000000000000000000000000a00000000000000000000000000000000000000000000000000000000000000100000000000000000000000000000000000000000000000000000000000000016000000000000000000000000000000000000000000000000000000000000001c00000000000000000000000000000000000000000000000000000000000000220000000000000000000000000000000000000000000000000000000000000002a30783166363532653264386139666361333436613066343564353961363766623939383939396534353400000000000000000000000000000000000000000000000000000000000000000000000000000000000000000000000000000000002a30783862646532336531366634663962313962336531316564636236353136386537663237323030303600000000000000000000000000000000000000000000000000000000000000000000000000000000000000000000000000000000002a30783464613137346137303234623234326662393739643132306565363366316266366162613365303700000000000000000000000000000000000000000000000000000000000000000000000000000000000000000000000000000000002a30786265383734373766643138666265626438636363646430303366366636366666633464343963643100000000000000000000000000000000000000000000000000000000000000000000000000000000000000000000000000000000002a30783733306538623264383962613064333430336262336438633939323961396630646136316530353100000000000000000000000000000000000000000000",
        "nonce": "0x181",
        "chainId": "0xaa36a7"
      },
      "additionalContracts": [],
      "isFixedGasLimit": false
    },
    {
      "hash": "0x2a05747521e39067664fe36f09529ffcc710a0b01de371366d5690441414c023",
      "transactionType": "CALL",
      "contractName": "CTMRWAGateway",
      "contractAddress": "0x3cb56e6e5917a2a8924bc2a5c1f0ecc90b585e74",
      "function": "attachStorageManager(uint256,uint256,string[],string[])",
      "arguments": [
        "1",
        "1",
        "[11155111, 421614, 80002, 84532, 97]",
        "[0xa33cfd901896c775c5a6d62e94081b4fdd1b09bc, 0xf4e9dc949ca6eb2bbafa1e887017e91e523c1bc8, 0xb07c3788549cd48ad1d4cb9b7336f7c9dd53d67f, 0x2c4be93acd346ca06363b37a06beb9d693d02dac, 0xc653cd79f70165005319ef97ad1229ac7f88a25d]"
      ],
      "transaction": {
        "from": "0xe62ab4d111f968660c6b2188046f9b9ba53c4bae",
        "to": "0x3cb56e6e5917a2a8924bc2a5c1f0ecc90b585e74",
        "gas": "0xe4201",
        "value": "0x0",
        "input": "0x2f68b4890000000000000000000000000000000000000000000000000000000000000001000000000000000000000000000000000000000000000000000000000000000100000000000000000000000000000000000000000000000000000000000000800000000000000000000000000000000000000000000000000000000000000280000000000000000000000000000000000000000000000000000000000000000500000000000000000000000000000000000000000000000000000000000000a000000000000000000000000000000000000000000000000000000000000000e00000000000000000000000000000000000000000000000000000000000000120000000000000000000000000000000000000000000000000000000000000016000000000000000000000000000000000000000000000000000000000000001a00000000000000000000000000000000000000000000000000000000000000008313131353531313100000000000000000000000000000000000000000000000000000000000000000000000000000000000000000000000000000000000000063432313631340000000000000000000000000000000000000000000000000000000000000000000000000000000000000000000000000000000000000000000538303030320000000000000000000000000000000000000000000000000000000000000000000000000000000000000000000000000000000000000000000005383435333200000000000000000000000000000000000000000000000000000000000000000000000000000000000000000000000000000000000000000000023937000000000000000000000000000000000000000000000000000000000000000000000000000000000000000000000000000000000000000000000000000500000000000000000000000000000000000000000000000000000000000000a00000000000000000000000000000000000000000000000000000000000000100000000000000000000000000000000000000000000000000000000000000016000000000000000000000000000000000000000000000000000000000000001c00000000000000000000000000000000000000000000000000000000000000220000000000000000000000000000000000000000000000000000000000000002a30786133336366643930313839366337373563356136643632653934303831623466646431623039626300000000000000000000000000000000000000000000000000000000000000000000000000000000000000000000000000000000002a30786634653964633934396361366562326262616661316538383730313765393165353233633162633800000000000000000000000000000000000000000000000000000000000000000000000000000000000000000000000000000000002a30786230376333373838353439636434386164316434636239623733333666376339646435336436376600000000000000000000000000000000000000000000000000000000000000000000000000000000000000000000000000000000002a30783263346265393361636433343663613036333633623337613036626562396436393364303264616300000000000000000000000000000000000000000000000000000000000000000000000000000000000000000000000000000000002a30786336353363643739663730313635303035333139656639376164313232396163376638386132356400000000000000000000000000000000000000000000",
        "nonce": "0x182",
        "chainId": "0xaa36a7"
      },
      "additionalContracts": [],
      "isFixedGasLimit": false
    }
  ],
  "receipts": [
    {
      "status": "0x1",
      "cumulativeGasUsed": "0x80c0f2",
      "logs": [],
      "logsBloom": "0x00000000000000000000000000000000000000000000000000000000000000000000000000000000000000000000000000000000000000000000000000000000000000000000000000000000000000000000000000000000000000000000000000000000000000000000000000000000000000000000000000000000000000000000000000000000000000000000000000000000000000000000000000000000000000000000000000000000000000000000000000000000000000000000000000000000000000000000000000000000000000000000000000000000000000000000000000000000000000000000000000000000000000000000000000000000",
      "type": "0x2",
      "transactionHash": "0xc8fe4ea3a269db7bbc43d9a631063b2bc6a41ef0b474946aa3c1ee2fafc8313d",
      "transactionIndex": "0x9e",
      "blockHash": "0x9c92b76a0cd85b308e4c242768590673a7f7015b4d192bbfa877832559a112ca",
      "blockNumber": "0x6d5b66",
      "gasUsed": "0x5eb3",
      "effectiveGasPrice": "0x2d3a9b6b",
      "from": "0xe62ab4d111f968660c6b2188046f9b9ba53c4bae",
      "to": "0xa3bae05aa45bcc739258b124face332043d3b1da",
      "contractAddress": null
    },
    {
      "status": "0x1",
      "cumulativeGasUsed": "0x10818ce",
      "logs": [
        {
          "address": "0xa3bae05aa45bcc739258b124face332043d3b1da",
          "topics": [
            "0x1394cfab38f3fc78ed77ea6f9318782a446d96e7dc8e9a6b0149f6be25c08bcf",
            "0x000000000000000000000000a4c104db0937f1e886d5c9c9789d6f0e5bfba75c"
          ],
          "data": "0x",
          "blockHash": "0x74564f7c77295fe419d610dcb8e42e1ab2deb728c5842cb2696439731e633dfa",
          "blockNumber": "0x6d5b67",
          "transactionHash": "0x995fb006f055eacdf3bebdff43be7698c2e4cb51660bbbe6e894bfbe91b23cb4",
          "transactionIndex": "0x63",
          "logIndex": "0x3b",
          "removed": false
        }
      ],
      "logsBloom": "0x00000000000000000040000000000000000000000000000000000000000000000000000000000000000000000000000000000000000000000000000000000000000000000000000000000000000000000000001000000000000000000000000000002000000000000000000000000000000000000000080000000000000000000000000100000000000000000000000000000000000000000000000000000000000000000000000000000000000000000000004100000000000000000000000000000000000000000000000000000000000000000000000000000000000000080000000000000000000002000000000000000000000000000000000000000000",
      "type": "0x2",
      "transactionHash": "0x995fb006f055eacdf3bebdff43be7698c2e4cb51660bbbe6e894bfbe91b23cb4",
      "transactionIndex": "0x63",
      "blockHash": "0x74564f7c77295fe419d610dcb8e42e1ab2deb728c5842cb2696439731e633dfa",
      "blockNumber": "0x6d5b67",
      "gasUsed": "0x1be72",
      "effectiveGasPrice": "0x2c39bfa6",
      "from": "0xe62ab4d111f968660c6b2188046f9b9ba53c4bae",
      "to": "0xa3bae05aa45bcc739258b124face332043d3b1da",
      "contractAddress": null
    },
    {
      "status": "0x1",
      "cumulativeGasUsed": "0x614e03",
      "logs": [],
      "logsBloom": "0x00000000000000000000000000000000000000000000000000000000000000000000000000000000000000000000000000000000000000000000000000000000000000000000000000000000000000000000000000000000000000000000000000000000000000000000000000000000000000000000000000000000000000000000000000000000000000000000000000000000000000000000000000000000000000000000000000000000000000000000000000000000000000000000000000000000000000000000000000000000000000000000000000000000000000000000000000000000000000000000000000000000000000000000000000000000",
      "type": "0x2",
      "transactionHash": "0xff6b6c82518ad252d613fbad74ca1260ed1fb30965299a282b04d4020d346c32",
      "transactionIndex": "0xc3",
      "blockHash": "0xaf8aaecd893072f246effcfe627172b125eeb3fe25b663ce10ae5323e5717995",
      "blockNumber": "0x6d5b68",
      "gasUsed": "0xbbf9",
      "effectiveGasPrice": "0x2e2b441a",
      "from": "0xe62ab4d111f968660c6b2188046f9b9ba53c4bae",
      "to": "0xa3bae05aa45bcc739258b124face332043d3b1da",
      "contractAddress": null
    },
    {
      "status": "0x1",
      "cumulativeGasUsed": "0xe22bbc",
      "logs": [],
      "logsBloom": "0x00000000000000000000000000000000000000000000000000000000000000000000000000000000000000000000000000000000000000000000000000000000000000000000000000000000000000000000000000000000000000000000000000000000000000000000000000000000000000000000000000000000000000000000000000000000000000000000000000000000000000000000000000000000000000000000000000000000000000000000000000000000000000000000000000000000000000000000000000000000000000000000000000000000000000000000000000000000000000000000000000000000000000000000000000000000",
      "type": "0x2",
      "transactionHash": "0x496a481abf6edfa5a546eb1d28f9725ee86a4314534f0a26bf45c6add83ccfa9",
      "transactionIndex": "0x78",
      "blockHash": "0x9e9a2813cf2e5e58f3c6e34a5b5b90aa384843ee963fea9849ea6b084338c0d8",
      "blockNumber": "0x6d5b6a",
      "gasUsed": "0xbc22",
      "effectiveGasPrice": "0x28625158",
      "from": "0xe62ab4d111f968660c6b2188046f9b9ba53c4bae",
      "to": "0xa3bae05aa45bcc739258b124face332043d3b1da",
      "contractAddress": null
    },
    {
      "status": "0x1",
      "cumulativeGasUsed": "0x382b7a",
      "logs": [],
      "logsBloom": "0x00000000000000000000000000000000000000000000000000000000000000000000000000000000000000000000000000000000000000000000000000000000000000000000000000000000000000000000000000000000000000000000000000000000000000000000000000000000000000000000000000000000000000000000000000000000000000000000000000000000000000000000000000000000000000000000000000000000000000000000000000000000000000000000000000000000000000000000000000000000000000000000000000000000000000000000000000000000000000000000000000000000000000000000000000000000",
      "type": "0x2",
      "transactionHash": "0xfb929df007325ef6b7ac3c9dd0b01d4c8b40f69851697c38d14f3fba1ff0b066",
      "transactionIndex": "0x3f",
      "blockHash": "0x82539b87cf868a8c4e30d59da38251d7ef94d1b442571f623675fd0132acf276",
      "blockNumber": "0x6d5b6b",
      "gasUsed": "0xbc39",
      "effectiveGasPrice": "0x2ba11d57",
      "from": "0xe62ab4d111f968660c6b2188046f9b9ba53c4bae",
      "to": "0xa3bae05aa45bcc739258b124face332043d3b1da",
      "contractAddress": null
    },
    {
      "status": "0x1",
      "cumulativeGasUsed": "0x61b187",
      "logs": [],
      "logsBloom": "0x00000000000000000000000000000000000000000000000000000000000000000000000000000000000000000000000000000000000000000000000000000000000000000000000000000000000000000000000000000000000000000000000000000000000000000000000000000000000000000000000000000000000000000000000000000000000000000000000000000000000000000000000000000000000000000000000000000000000000000000000000000000000000000000000000000000000000000000000000000000000000000000000000000000000000000000000000000000000000000000000000000000000000000000000000000000",
      "type": "0x2",
      "transactionHash": "0x16a29e593f53801345ae404fd1bfda61da44d04f0a2ddaa5afd3a75c0f447673",
      "transactionIndex": "0x72",
      "blockHash": "0xb791e8bc1e324854082bbe173e93a08ffb9d5483e4d08c9029f407cc48d4a082",
      "blockNumber": "0x6d5b6c",
      "gasUsed": "0xbc50",
      "effectiveGasPrice": "0x293b02f6",
      "from": "0xe62ab4d111f968660c6b2188046f9b9ba53c4bae",
      "to": "0xa3bae05aa45bcc739258b124face332043d3b1da",
      "contractAddress": null
    },
    {
      "status": "0x1",
      "cumulativeGasUsed": "0x9bbd4c",
      "logs": [],
      "logsBloom": "0x00000000000000000000000000000000000000000000000000000000000000000000000000000000000000000000000000000000000000000000000000000000000000000000000000000000000000000000000000000000000000000000000000000000000000000000000000000000000000000000000000000000000000000000000000000000000000000000000000000000000000000000000000000000000000000000000000000000000000000000000000000000000000000000000000000000000000000000000000000000000000000000000000000000000000000000000000000000000000000000000000000000000000000000000000000000",
      "type": "0x2",
      "transactionHash": "0xe7bc97a1ce3ac8a33c99a2b7894df0c63637b382cd1467a3b650638d0bb74071",
      "transactionIndex": "0x95",
      "blockHash": "0xb731991b5bd1d290f056fc51d30e29d5e441529f3636b49c0353709a3affbb12",
      "blockNumber": "0x6d5b6d",
      "gasUsed": "0xbc67",
      "effectiveGasPrice": "0x283e2a72",
      "from": "0xe62ab4d111f968660c6b2188046f9b9ba53c4bae",
      "to": "0xa3bae05aa45bcc739258b124face332043d3b1da",
      "contractAddress": null
    },
    {
      "status": "0x1",
      "cumulativeGasUsed": "0x4c6cb9",
      "logs": [],
      "logsBloom": "0x00000000000000000000000000000000000000000000000000000000000000000000000000000000000000000000000000000000000000000000000000000000000000000000000000000000000000000000000000000000000000000000000000000000000000000000000000000000000000000000000000000000000000000000000000000000000000000000000000000000000000000000000000000000000000000000000000000000000000000000000000000000000000000000000000000000000000000000000000000000000000000000000000000000000000000000000000000000000000000000000000000000000000000000000000000000",
      "type": "0x2",
      "transactionHash": "0xe7577df7993c7c00cf4fda03263ebc780a7953fe8b99eb2a9d99b865d2e5d7ce",
      "transactionIndex": "0x4e",
      "blockHash": "0xeb6185e207757901752325d78a85d4c269d4d0bf7660afe9e09a0ce370ffa335",
      "blockNumber": "0x6d5b6f",
      "gasUsed": "0xbc7e",
      "effectiveGasPrice": "0x245841a5",
      "from": "0xe62ab4d111f968660c6b2188046f9b9ba53c4bae",
      "to": "0xa3bae05aa45bcc739258b124face332043d3b1da",
      "contractAddress": null
    },
    {
      "status": "0x1",
      "cumulativeGasUsed": "0x820f37",
      "logs": [],
      "logsBloom": "0x00000000000000000000000000000000000000000000000000000000000000000000000000000000000000000000000000000000000000000000000000000000000000000000000000000000000000000000000000000000000000000000000000000000000000000000000000000000000000000000000000000000000000000000000000000000000000000000000000000000000000000000000000000000000000000000000000000000000000000000000000000000000000000000000000000000000000000000000000000000000000000000000000000000000000000000000000000000000000000000000000000000000000000000000000000000",
      "type": "0x2",
      "transactionHash": "0x767483226695d982a134024546488f77d02574a7530f82655eb2e2725937bdf7",
      "transactionIndex": "0x6a",
      "blockHash": "0x2a5f0ce8b81dfbb292203a813024e2556e6712c5f7efe8b1f6f371f4186bae96",
      "blockNumber": "0x6d5b70",
      "gasUsed": "0xbc95",
      "effectiveGasPrice": "0x23720079",
      "from": "0xe62ab4d111f968660c6b2188046f9b9ba53c4bae",
      "to": "0xa3bae05aa45bcc739258b124face332043d3b1da",
      "contractAddress": null
    },
    {
      "status": "0x1",
      "cumulativeGasUsed": "0xa2dff2",
      "logs": [],
      "logsBloom": "0x00000000000000000000000000000000000000000000000000000000000000000000000000000000000000000000000000000000000000000000000000000000000000000000000000000000000000000000000000000000000000000000000000000000000000000000000000000000000000000000000000000000000000000000000000000000000000000000000000000000000000000000000000000000000000000000000000000000000000000000000000000000000000000000000000000000000000000000000000000000000000000000000000000000000000000000000000000000000000000000000000000000000000000000000000000000",
      "type": "0x2",
      "transactionHash": "0xa8b6ad2d4cd70342f87d86b27e54046782de2f6744b57e3a3367793cd8a0175c",
      "transactionIndex": "0x96",
      "blockHash": "0x90afe1716dbfc4e7125c528964ba26245b18c136f77b179198b68ff82b9207e1",
      "blockNumber": "0x6d5b71",
      "gasUsed": "0xbcac",
      "effectiveGasPrice": "0x21e76f98",
      "from": "0xe62ab4d111f968660c6b2188046f9b9ba53c4bae",
      "to": "0xa3bae05aa45bcc739258b124face332043d3b1da",
      "contractAddress": null
    },
    {
      "status": "0x1",
      "cumulativeGasUsed": "0x848b34",
      "logs": [],
      "logsBloom": "0x00000000000000000000000000000000000000000000000000000000000000000000000000000000000000000000000000000000000000000000000000000000000000000000000000000000000000000000000000000000000000000000000000000000000000000000000000000000000000000000000000000000000000000000000000000000000000000000000000000000000000000000000000000000000000000000000000000000000000000000000000000000000000000000000000000000000000000000000000000000000000000000000000000000000000000000000000000000000000000000000000000000000000000000000000000000",
      "type": "0x2",
      "transactionHash": "0xf521c0897a4286c34f3d3d728e5912b2dd02eea22f64b4382c386f915713ef7f",
      "transactionIndex": "0xd7",
      "blockHash": "0x6d8a98c86034b6b3a0084d11c93b7f981fc7c78c09529e7423017cb2870b72a6",
      "blockNumber": "0x6d5b72",
      "gasUsed": "0xbcc3",
      "effectiveGasPrice": "0x259c58f5",
      "from": "0xe62ab4d111f968660c6b2188046f9b9ba53c4bae",
      "to": "0xa3bae05aa45bcc739258b124face332043d3b1da",
      "contractAddress": null
    },
    {
      "status": "0x1",
      "cumulativeGasUsed": "0xa7b521",
      "logs": [],
      "logsBloom": "0x00000000000000000000000000000000000000000000000000000000000000000000000000000000000000000000000000000000000000000000000000000000000000000000000000000000000000000000000000000000000000000000000000000000000000000000000000000000000000000000000000000000000000000000000000000000000000000000000000000000000000000000000000000000000000000000000000000000000000000000000000000000000000000000000000000000000000000000000000000000000000000000000000000000000000000000000000000000000000000000000000000000000000000000000000000000",
      "type": "0x2",
      "transactionHash": "0x5e1acadf14709cd1a77b5b37a1f6673ee10322f6c8ca1b77e361850b7e3af7ad",
      "transactionIndex": "0xc5",
      "blockHash": "0xba060924d033b59a39fd507ad80a296d86f8151fce3a6c12a44e4e2c28420d03",
      "blockNumber": "0x6d5b73",
      "gasUsed": "0xbcda",
      "effectiveGasPrice": "0x23be3a21",
      "from": "0xe62ab4d111f968660c6b2188046f9b9ba53c4bae",
      "to": "0xa3bae05aa45bcc739258b124face332043d3b1da",
      "contractAddress": null
    },
    {
      "status": "0x1",
      "cumulativeGasUsed": "0xa55ac7",
      "logs": [],
      "logsBloom": "0x00000000000000000000000000000000000000000000000000000000000000000000000000000000000000000000000000000000000000000000000000000000000000000000000000000000000000000000000000000000000000000000000000000000000000000000000000000000000000000000000000000000000000000000000000000000000000000000000000000000000000000000000000000000000000000000000000000000000000000000000000000000000000000000000000000000000000000000000000000000000000000000000000000000000000000000000000000000000000000000000000000000000000000000000000000000",
      "type": "0x2",
      "transactionHash": "0x4938145bd842da98bfd8b62969718e80724e1eed7452ae48a32e2e24631b8e1e",
      "transactionIndex": "0xee",
      "blockHash": "0x52d6e9dff756aa6fb3db334b68852e1582ec70c4ced036115721c757cdd52116",
      "blockNumber": "0x6d5b74",
      "gasUsed": "0xbcf1",
      "effectiveGasPrice": "0x22ebba7d",
      "from": "0xe62ab4d111f968660c6b2188046f9b9ba53c4bae",
      "to": "0xa3bae05aa45bcc739258b124face332043d3b1da",
      "contractAddress": null
    },
    {
      "status": "0x1",
      "cumulativeGasUsed": "0xb1177f",
      "logs": [],
      "logsBloom": "0x00000000000000000000000000000000000000000000000000000000000000000000000000000000000000000000000000000000000000000000000000000000000000000000000000000000000000000000000000000000000000000000000000000000000000000000000000000000000000000000000000000000000000000000000000000000000000000000000000000000000000000000000000000000000000000000000000000000000000000000000000000000000000000000000000000000000000000000000000000000000000000000000000000000000000000000000000000000000000000000000000000000000000000000000000000000",
      "type": "0x2",
      "transactionHash": "0x2f30a5312e73e493b01f521c530cccb48c6e39cc41951258d11da700b543be02",
      "transactionIndex": "0x116",
      "blockHash": "0x92687e35cac9034155e15e528657521b438ed320c65a74d85673dfe2bd25a13e",
      "blockNumber": "0x6d5b75",
      "gasUsed": "0xbd08",
      "effectiveGasPrice": "0x24b34ce2",
      "from": "0xe62ab4d111f968660c6b2188046f9b9ba53c4bae",
      "to": "0xa3bae05aa45bcc739258b124face332043d3b1da",
      "contractAddress": null
    },
    {
      "status": "0x1",
      "cumulativeGasUsed": "0x1686e8d",
      "logs": [],
      "logsBloom": "0x00000000000000000000000000000000000000000000000000000000000000000000000000000000000000000000000000000000000000000000000000000000000000000000000000000000000000000000000000000000000000000000000000000000000000000000000000000000000000000000000000000000000000000000000000000000000000000000000000000000000000000000000000000000000000000000000000000000000000000000000000000000000000000000000000000000000000000000000000000000000000000000000000000000000000000000000000000000000000000000000000000000000000000000000000000000",
      "type": "0x2",
      "transactionHash": "0xceb4cf3efebc15694aa5ca6e467f574245e3a580caf75c27342ed87cc092f478",
      "transactionIndex": "0xc2",
      "blockHash": "0x4627b201605f854c396df69809414638b267b4710418cebfc81f01b5182a4d5c",
      "blockNumber": "0x6d5b77",
      "gasUsed": "0xbd1f",
      "effectiveGasPrice": "0x20d083d4",
      "from": "0xe62ab4d111f968660c6b2188046f9b9ba53c4bae",
      "to": "0xa3bae05aa45bcc739258b124face332043d3b1da",
      "contractAddress": null
    },
    {
      "status": "0x1",
      "cumulativeGasUsed": "0x15d591f",
      "logs": [],
      "logsBloom": "0x00000000000000000000000000000000000000000000000000000000000000000000000000000000000000000000000000000000000000000000000000000000000000000000000000000000000000000000000000000000000000000000000000000000000000000000000000000000000000000000000000000000000000000000000000000000000000000000000000000000000000000000000000000000000000000000000000000000000000000000000000000000000000000000000000000000000000000000000000000000000000000000000000000000000000000000000000000000000000000000000000000000000000000000000000000000",
      "type": "0x2",
      "transactionHash": "0x7cd89d0036f89facb066196273d0e5ec9887987992280caaad5c00580566bf4d",
      "transactionIndex": "0x22b",
      "blockHash": "0x44b88de7b3a2cb3b5bdecd4064a87554e869acbb4e3b825d969ab25a9d96a8e9",
      "blockNumber": "0x6d5b78",
      "gasUsed": "0xbd36",
      "effectiveGasPrice": "0x24e7da96",
      "from": "0xe62ab4d111f968660c6b2188046f9b9ba53c4bae",
      "to": "0xa3bae05aa45bcc739258b124face332043d3b1da",
      "contractAddress": null
    },
    {
      "status": "0x1",
      "cumulativeGasUsed": "0x3e9dd0",
      "logs": [],
      "logsBloom": "0x00000000000000000000000000000000000000000000000000000000000000000000000000000000000000000000000000000000000000000000000000000000000000000000000000000000000000000000000000000000000000000000000000000000000000000000000000000000000000000000000000000000000000000000000000000000000000000000000000000000000000000000000000000000000000000000000000000000000000000000000000000000000000000000000000000000000000000000000000000000000000000000000000000000000000000000000000000000000000000000000000000000000000000000000000000000",
      "type": "0x2",
      "transactionHash": "0xb6261d4923add19a0b6966ccff024939e7dc56414ed3c6dbbb807755a2185ab6",
      "transactionIndex": "0x3d",
      "blockHash": "0x54c65b1f91b7e42c4f875f32eae323fb8c4a518ed08bbc53698bc5a4401a3e21",
      "blockNumber": "0x6d5b79",
      "gasUsed": "0xbd4d",
      "effectiveGasPrice": "0x28afc403",
      "from": "0xe62ab4d111f968660c6b2188046f9b9ba53c4bae",
      "to": "0xa3bae05aa45bcc739258b124face332043d3b1da",
      "contractAddress": null
    },
    {
      "status": "0x1",
      "cumulativeGasUsed": "0x9841dc",
      "logs": [],
      "logsBloom": "0x00000000000000000000000000000000000000000000000000000000000000000000000000000000000000000000000000000000000000000000000000000000000000000000000000000000000000000000000000000000000000000000000000000000000000000000000000000000000000000000000000000000000000000000000000000000000000000000000000000000000000000000000000000000000000000000000000000000000000000000000000000000000000000000000000000000000000000000000000000000000000000000000000000000000000000000000000000000000000000000000000000000000000000000000000000000",
      "type": "0x2",
      "transactionHash": "0x281f367a0f9de5022d1001c4ee86554729d686e903b003db733b0ebbe0f16a7c",
      "transactionIndex": "0xa5",
      "blockHash": "0x5a1de69f672a8d2150ca3573148bd9a0fedbece909c34b38d3b215d134dce69f",
      "blockNumber": "0x6d5b7a",
      "gasUsed": "0xbd64",
      "effectiveGasPrice": "0x2621a416",
      "from": "0xe62ab4d111f968660c6b2188046f9b9ba53c4bae",
      "to": "0xa3bae05aa45bcc739258b124face332043d3b1da",
      "contractAddress": null
    },
    {
      "status": "0x1",
      "cumulativeGasUsed": "0x8fa4ac",
      "logs": [],
      "logsBloom": "0x00000000000000000000000000000000000000000000000000000000000000000000000000000000000000000000000000000000000000000000000000000000000000000000000000000000000000000000000000000000000000000000000000000000000000000000000000000000000000000000000000000000000000000000000000000000000000000000000000000000000000000000000000000000000000000000000000000000000000000000000000000000000000000000000000000000000000000000000000000000000000000000000000000000000000000000000000000000000000000000000000000000000000000000000000000000",
      "type": "0x2",
      "transactionHash": "0xe14551b6314f561e91fd5e018b469b3c0a6ea874a82890f8ff77703b63ddaf7f",
      "transactionIndex": "0xc2",
      "blockHash": "0xa6b36cdcaf0d6803b12c6afa7d86bc686ed9df74749172b624e5650f5a33d0fb",
      "blockNumber": "0x6d5b7b",
      "gasUsed": "0xbd7b",
      "effectiveGasPrice": "0x25410758",
      "from": "0xe62ab4d111f968660c6b2188046f9b9ba53c4bae",
      "to": "0xa3bae05aa45bcc739258b124face332043d3b1da",
      "contractAddress": null
    },
    {
      "status": "0x1",
      "cumulativeGasUsed": "0x80444f",
      "logs": [],
      "logsBloom": "0x00000000000000000000000000000000000000000000000000000000000000000000000000000000000000000000000000000000000000000000000000000000000000000000000000000000000000000000000000000000000000000000000000000000000000000000000000000000000000000000000000000000000000000000000000000000000000000000000000000000000000000000000000000000000000000000000000000000000000000000000000000000000000000000000000000000000000000000000000000000000000000000000000000000000000000000000000000000000000000000000000000000000000000000000000000000",
      "type": "0x2",
      "transactionHash": "0x7712f68ea136758f605288d0a85f4aa26ea674b8a220eeb71494be88ebdeff75",
      "transactionIndex": "0x84",
      "blockHash": "0x74a5328606b1d445d8dbd547edcb633a13995bf86e5fb11b075b814c3dba1b04",
      "blockNumber": "0x6d5b7d",
      "gasUsed": "0xbd92",
      "effectiveGasPrice": "0x209bef45",
      "from": "0xe62ab4d111f968660c6b2188046f9b9ba53c4bae",
      "to": "0xa3bae05aa45bcc739258b124face332043d3b1da",
      "contractAddress": null
    },
    {
      "status": "0x1",
      "cumulativeGasUsed": "0x8b587d",
      "logs": [],
      "logsBloom": "0x00000000000000000000000000000000000000000000000000000000000000000000000000000000000000000000000000000000000000000000000000000000000000000000000000000000000000000000000000000000000000000000000000000000000000000000000000000000000000000000000000000000000000000000000000000000000000000000000000000000000000000000000000000000000000000000000000000000000000000000000000000000000000000000000000000000000000000000000000000000000000000000000000000000000000000000000000000000000000000000000000000000000000000000000000000000",
      "type": "0x2",
      "transactionHash": "0xf61fd080b3bcbd07f5105e36af2f6b8513d457e81e9846e11d33c31565fde26b",
      "transactionIndex": "0xa9",
      "blockHash": "0xa8de09b4eb1a6ab3ad60468a853dcff07621ad34bf6bcf97f04935fb9cc2622f",
      "blockNumber": "0x6d5b7e",
      "gasUsed": "0xbda9",
      "effectiveGasPrice": "0x21fd958c",
      "from": "0xe62ab4d111f968660c6b2188046f9b9ba53c4bae",
      "to": "0xa3bae05aa45bcc739258b124face332043d3b1da",
      "contractAddress": null
    },
    {
      "status": "0x1",
      "cumulativeGasUsed": "0xc91700",
      "logs": [],
      "logsBloom": "0x00000000000000000000000000000000000000000000000000000000000000000000000000000000000000000000000000000000000000000000000000000000000000000000000000000000000000000000000000000000000000000000000000000000000000000000000000000000000000000000000000000000000000000000000000000000000000000000000000000000000000000000000000000000000000000000000000000000000000000000000000000000000000000000000000000000000000000000000000000000000000000000000000000000000000000000000000000000000000000000000000000000000000000000000000000000",
      "type": "0x2",
      "transactionHash": "0xcee185894ecc3507dc3b3069b681d102f81f367f21f08651016948e9d5a1a5b7",
      "transactionIndex": "0xa6",
      "blockHash": "0xca1a42cd82e15364a97a2c5f48b871e5683d42c2a90d0d8c046c5f93ce95a862",
      "blockNumber": "0x6d5b7f",
      "gasUsed": "0xbdbb",
      "effectiveGasPrice": "0x2059d185",
      "from": "0xe62ab4d111f968660c6b2188046f9b9ba53c4bae",
      "to": "0xa3bae05aa45bcc739258b124face332043d3b1da",
      "contractAddress": null
    },
    {
      "status": "0x1",
      "cumulativeGasUsed": "0x8f01e8",
      "logs": [],
      "logsBloom": "0x00000000000000000000000000000000000000000000000000000000000000000000000000000000000000000000000000000000000000000000000000000000000000000000000000000000000000000000000000000000000000000000000000000000000000000000000000000000000000000000000000000000000000000000000000000000000000000000000000000000000000000000000000000000000000000000000000000000000000000000000000000000000000000000000000000000000000000000000000000000000000000000000000000000000000000000000000000000000000000000000000000000000000000000000000000000",
      "type": "0x2",
      "transactionHash": "0x90069fe9cc4956ed4b1080c60e55d3783d520eb1d1fa75d38d5e6dc2f6cf1289",
      "transactionIndex": "0xeb",
      "blockHash": "0x344139fca03007497be3b586efa48f8f8bbbefb7269b96a11dafe0fb0e62d070",
      "blockNumber": "0x6d5b80",
      "gasUsed": "0x223f5",
      "effectiveGasPrice": "0x21bab2ec",
      "from": "0xe62ab4d111f968660c6b2188046f9b9ba53c4bae",
      "to": "0xa3bae05aa45bcc739258b124face332043d3b1da",
      "contractAddress": null
    },
    {
      "status": "0x1",
      "cumulativeGasUsed": "0x71cc82",
      "logs": [],
      "logsBloom": "0x00000000000000000000000000000000000000000000000000000000000000000000000000000000000000000000000000000000000000000000000000000000000000000000000000000000000000000000000000000000000000000000000000000000000000000000000000000000000000000000000000000000000000000000000000000000000000000000000000000000000000000000000000000000000000000000000000000000000000000000000000000000000000000000000000000000000000000000000000000000000000000000000000000000000000000000000000000000000000000000000000000000000000000000000000000000",
      "type": "0x2",
      "transactionHash": "0x2c26e33b4fdc45c2926a8d3e6a1789dd2e1004353b300da67ac8f684f1c39afb",
      "transactionIndex": "0x46",
      "blockHash": "0xadeeb34a96f3e2950b6e5688c114ac6f84c3974947d8b7e41392e2603017f6bd",
      "blockNumber": "0x6d5b81",
      "gasUsed": "0x1e775",
      "effectiveGasPrice": "0x20e4c05d",
      "from": "0xe62ab4d111f968660c6b2188046f9b9ba53c4bae",
      "to": "0xa3bae05aa45bcc739258b124face332043d3b1da",
      "contractAddress": null
    },
    {
      "status": "0x1",
      "cumulativeGasUsed": "0x41f5c9",
      "logs": [],
      "logsBloom": "0x00000000000000000000000000000000000000000000000000000000000000000000000000000000000000000000000000000000000000000000000000000000000000000000000000000000000000000000000000000000000000000000000000000000000000000000000000000000000000000000000000000000000000000000000000000000000000000000000000000000000000000000000000000000000000000000000000000000000000000000000000000000000000000000000000000000000000000000000000000000000000000000000000000000000000000000000000000000000000000000000000000000000000000000000000000000",
      "type": "0x2",
      "transactionHash": "0xa0eba0ebba908430f03d5799d3942300a067e3293954cf8fd5eac599cd216e83",
      "transactionIndex": "0x47",
      "blockHash": "0x3150a2f9a0d456403340056854936f4885a5aa736a60d88524efc26227bc016e",
      "blockNumber": "0x6d5b82",
      "gasUsed": "0x1e775",
      "effectiveGasPrice": "0x20b001ba",
      "from": "0xe62ab4d111f968660c6b2188046f9b9ba53c4bae",
      "to": "0xa3bae05aa45bcc739258b124face332043d3b1da",
      "contractAddress": null
    },
    {
      "status": "0x1",
      "cumulativeGasUsed": "0xaa3e25",
      "logs": [],
      "logsBloom": "0x00000000000000000000000000000000000000000000000000000000000000000000000000000000000000000000000000000000000000000000000000000000000000000000000000000000000000000000000000000000000000000000000000000000000000000000000000000000000000000000000000000000000000000000000000000000000000000000000000000000000000000000000000000000000000000000000000000000000000000000000000000000000000000000000000000000000000000000000000000000000000000000000000000000000000000000000000000000000000000000000000000000000000000000000000000000",
      "type": "0x2",
      "transactionHash": "0xf613642cf204b871edfb8633ac87b5e34a7cc504186ac5352aaca6fe9018c476",
      "transactionIndex": "0xa3",
      "blockHash": "0x11520f6a876774895ea8e739d3a77e7e4696a6034cb311a63c3949ac73f4e70e",
      "blockNumber": "0x6d5b83",
      "gasUsed": "0x1e2e9",
      "effectiveGasPrice": "0x20a9257d",
      "from": "0xe62ab4d111f968660c6b2188046f9b9ba53c4bae",
      "to": "0xa3bae05aa45bcc739258b124face332043d3b1da",
      "contractAddress": null
    },
    {
      "status": "0x1",
      "cumulativeGasUsed": "0x82be23",
      "logs": [],
      "logsBloom": "0x00000000000000000000000000000000000000000000000000000000000000000000000000000000000000000000000000000000000000000000000000000000000000000000000000000000000000000000000000000000000000000000000000000000000000000000000000000000000000000000000000000000000000000000000000000000000000000000000000000000000000000000000000000000000000000000000000000000000000000000000000000000000000000000000000000000000000000000000000000000000000000000000000000000000000000000000000000000000000000000000000000000000000000000000000000000",
      "type": "0x2",
      "transactionHash": "0x24ee9eaf7d6c25cd3c2c1e7f692f76dd5d3872b22cb52f31f8a6e7e3b5c7d56c",
      "transactionIndex": "0x76",
      "blockHash": "0xf9c66be71f15b0ea7bc3f5b09a2b74d48bda5b98e1c51253f029864756848c71",
      "blockNumber": "0x6d5b84",
      "gasUsed": "0x1ec01",
      "effectiveGasPrice": "0x1ff7adf8",
      "from": "0xe62ab4d111f968660c6b2188046f9b9ba53c4bae",
      "to": "0xa3bae05aa45bcc739258b124face332043d3b1da",
      "contractAddress": null
    },
    {
      "status": "0x1",
      "cumulativeGasUsed": "0x11af07a",
      "logs": [],
      "logsBloom": "0x00000000000000000000000000000000000000000000000000000000000000000000000000000000000000000000000000000000000000000000000000000000000000000000000000000000000000000000000000000000000000000000000000000000000000000000000000000000000000000000000000000000000000000000000000000000000000000000000000000000000000000000000000000000000000000000000000000000000000000000000000000000000000000000000000000000000000000000000000000000000000000000000000000000000000000000000000000000000000000000000000000000000000000000000000000000",
      "type": "0x2",
      "transactionHash": "0x693c9c6d6df3be050d28abffc42c1ea8d5b779b1fdc3e4542a76ef224ae06c37",
      "transactionIndex": "0xb2",
      "blockHash": "0xab3a5f59faeedf6f0145e25c7fa11ac6d26b7c694332a0166547f4985d73fe78",
      "blockNumber": "0x6d5b85",
      "gasUsed": "0x7ae10",
      "effectiveGasPrice": "0x1f615c56",
      "from": "0xe62ab4d111f968660c6b2188046f9b9ba53c4bae",
      "to": "0x3cb56e6e5917a2a8924bc2a5c1f0ecc90b585e74",
      "contractAddress": null
    },
    {
      "status": "0x1",
      "cumulativeGasUsed": "0xa97f13",
      "logs": [],
      "logsBloom": "0x00000000000000000000000000000000000000000000000000000000000000000000000000000000000000000000000000000000000000000000000000000000000000000000000000000000000000000000000000000000000000000000000000000000000000000000000000000000000000000000000000000000000000000000000000000000000000000000000000000000000000000000000000000000000000000000000000000000000000000000000000000000000000000000000000000000000000000000000000000000000000000000000000000000000000000000000000000000000000000000000000000000000000000000000000000000",
      "type": "0x2",
      "transactionHash": "0xf2d9444bf57cb4b19d48c6b7a4fa2e9c71683f0121fee2cc54e9e52d67f5f8cc",
      "transactionIndex": "0x9b",
      "blockHash": "0xa542a5799424a420b9566fa7f6127d4137c248e5cb874725beab4ba10ec68353",
      "blockNumber": "0x6d5b86",
      "gasUsed": "0xbd87a",
      "effectiveGasPrice": "0x20eec08a",
      "from": "0xe62ab4d111f968660c6b2188046f9b9ba53c4bae",
      "to": "0x3cb56e6e5917a2a8924bc2a5c1f0ecc90b585e74",
      "contractAddress": null
    },
    {
      "status": "0x1",
      "cumulativeGasUsed": "0xa74cae",
      "logs": [],
      "logsBloom": "0x00000000000000000000000000000000000000000000000000000000000000000000000000000000000000000000000000000000000000000000000000000000000000000000000000000000000000000000000000000000000000000000000000000000000000000000000000000000000000000000000000000000000000000000000000000000000000000000000000000000000000000000000000000000000000000000000000000000000000000000000000000000000000000000000000000000000000000000000000000000000000000000000000000000000000000000000000000000000000000000000000000000000000000000000000000000",
      "type": "0x2",
      "transactionHash": "0x2a05747521e39067664fe36f09529ffcc710a0b01de371366d5690441414c023",
      "transactionIndex": "0xfc",
      "blockHash": "0x6b19b88a37e9e6209d37100ef1b377c25cd0421f4acb443565783b7eae273920",
      "blockNumber": "0x6d5b87",
      "gasUsed": "0x9bfbb",
      "effectiveGasPrice": "0x20cf6297",
      "from": "0xe62ab4d111f968660c6b2188046f9b9ba53c4bae",
      "to": "0x3cb56e6e5917a2a8924bc2a5c1f0ecc90b585e74",
      "contractAddress": null
    }
  ],
  "libraries": [],
  "pending": [],
  "returns": {},
  "timestamp": 1732757427,
  "chain": 11155111,
  "commit": "3a8898ab"
}