{
  "transactions": [
    {
      "hash": "0xd5fc1e356e7ca92fd2372b55aba9003d47a80e25a0c70df3458428a2c985220b",
      "transactionType": "CALL",
      "contractName": "FeeManager",
      "contractAddress": "0xee53a0ad7f17715774acc3963693b37040900019",
      "function": "getFeeTokenList()",
      "arguments": [],
      "transaction": {
        "from": "0xe62ab4d111f968660c6b2188046f9b9ba53c4bae",
        "to": "0xee53a0ad7f17715774acc3963693b37040900019",
        "gas": "0x979a",
        "value": "0x0",
        "input": "0xe28ab277",
        "nonce": "0x273",
        "chainId": "0xaa36a7"
      },
      "additionalContracts": [],
      "isFixedGasLimit": false
    },
    {
      "hash": "0x6d64d496383e08390694188d4c9c1e872c8c73d593d194a90c3354d9c9f03b9d",
      "transactionType": "CALL",
      "contractName": "FeeManager",
      "contractAddress": "0xee53a0ad7f17715774acc3963693b37040900019",
      "function": "addFeeToken(string,string[],uint256[])",
      "arguments": [
        "11155111",
        "[0xa4c104db0937f1e886d5c9c9789d6f0e5bfba75c]",
        "[100]"
      ],
      "transaction": {
        "from": "0xe62ab4d111f968660c6b2188046f9b9ba53c4bae",
        "to": "0xee53a0ad7f17715774acc3963693b37040900019",
        "gas": "0x23baf",
        "value": "0x0",
        "input": "0x437bf84f000000000000000000000000000000000000000000000000000000000000006000000000000000000000000000000000000000000000000000000000000000a000000000000000000000000000000000000000000000000000000000000001400000000000000000000000000000000000000000000000000000000000000008313131353531313100000000000000000000000000000000000000000000000000000000000000000000000000000000000000000000000000000000000000010000000000000000000000000000000000000000000000000000000000000020000000000000000000000000000000000000000000000000000000000000002a3078613463313034646230393337663165383836643563396339373839643666306535626662613735630000000000000000000000000000000000000000000000000000000000000000000000000000000000000000000000000000000000010000000000000000000000000000000000000000000000000000000000000064",
        "nonce": "0x274",
        "chainId": "0xaa36a7"
      },
      "additionalContracts": [],
      "isFixedGasLimit": false
    },
    {
      "hash": "0x99cd82974ec92c10a487769c5a08386321d6f0bd25dae5b3b3f870dfbbcab7d1",
      "transactionType": "CALL",
      "contractName": "FeeManager",
      "contractAddress": "0xee53a0ad7f17715774acc3963693b37040900019",
      "function": "addFeeToken(string,string[],uint256[])",
      "arguments": [
        "11155420",
        "[0xa4c104db0937f1e886d5c9c9789d6f0e5bfba75c]",
        "[100]"
      ],
      "transaction": {
        "from": "0xe62ab4d111f968660c6b2188046f9b9ba53c4bae",
        "to": "0xee53a0ad7f17715774acc3963693b37040900019",
        "gas": "0x2a70e",
        "value": "0x0",
        "input": "0x437bf84f000000000000000000000000000000000000000000000000000000000000006000000000000000000000000000000000000000000000000000000000000000a000000000000000000000000000000000000000000000000000000000000001400000000000000000000000000000000000000000000000000000000000000008313131353534323000000000000000000000000000000000000000000000000000000000000000000000000000000000000000000000000000000000000000010000000000000000000000000000000000000000000000000000000000000020000000000000000000000000000000000000000000000000000000000000002a3078613463313034646230393337663165383836643563396339373839643666306535626662613735630000000000000000000000000000000000000000000000000000000000000000000000000000000000000000000000000000000000010000000000000000000000000000000000000000000000000000000000000064",
        "nonce": "0x275",
        "chainId": "0xaa36a7"
      },
      "additionalContracts": [],
      "isFixedGasLimit": false
    },
    {
      "hash": "0xba533fdd34076c540e2cffe5eff681912d3839ba9210f776f89f4024657d46f0",
      "transactionType": "CALL",
      "contractName": "CTMRWAGateway",
      "contractAddress": "0xf8fe7804ae6dbc7306ab5a97ae2302706170530c",
      "function": "addChainContract(string[],string[])",
      "arguments": [
        "[11155420]",
        "[0x3b44962bf264b8cebac13da24722faa27fc693a1]"
      ],
      "transaction": {
        "from": "0xe62ab4d111f968660c6b2188046f9b9ba53c4bae",
        "to": "0xf8fe7804ae6dbc7306ab5a97ae2302706170530c",
        "gas": "0x48b4f",
        "value": "0x0",
        "input": "0x013fd3bd000000000000000000000000000000000000000000000000000000000000004000000000000000000000000000000000000000000000000000000000000000c0000000000000000000000000000000000000000000000000000000000000000100000000000000000000000000000000000000000000000000000000000000200000000000000000000000000000000000000000000000000000000000000008313131353534323000000000000000000000000000000000000000000000000000000000000000000000000000000000000000000000000000000000000000010000000000000000000000000000000000000000000000000000000000000020000000000000000000000000000000000000000000000000000000000000002a30783362343439363262663236346238636562616331336461323437323266616132376663363933613100000000000000000000000000000000000000000000",
        "nonce": "0x276",
        "chainId": "0xaa36a7"
      },
      "additionalContracts": [],
      "isFixedGasLimit": false
    },
    {
      "hash": "0xd4939f03f2b9494dcbe838585bc05370b24a2e5b070f606333218896564590fc",
      "transactionType": "CALL",
      "contractName": "CTMRWAGateway",
      "contractAddress": "0xf8fe7804ae6dbc7306ab5a97ae2302706170530c",
      "function": "attachRWAX(uint256,uint256,string[],string[])",
      "arguments": [
        "1",
        "1",
        "[11155420]",
        "[0x266442249f62a8dd4e29348a52af8c806c7cb0da]"
      ],
      "transaction": {
        "from": "0xe62ab4d111f968660c6b2188046f9b9ba53c4bae",
        "to": "0xf8fe7804ae6dbc7306ab5a97ae2302706170530c",
        "gas": "0x58cb2",
        "value": "0x0",
        "input": "0x33a5f5b40000000000000000000000000000000000000000000000000000000000000001000000000000000000000000000000000000000000000000000000000000000100000000000000000000000000000000000000000000000000000000000000800000000000000000000000000000000000000000000000000000000000000100000000000000000000000000000000000000000000000000000000000000000100000000000000000000000000000000000000000000000000000000000000200000000000000000000000000000000000000000000000000000000000000008313131353534323000000000000000000000000000000000000000000000000000000000000000000000000000000000000000000000000000000000000000010000000000000000000000000000000000000000000000000000000000000020000000000000000000000000000000000000000000000000000000000000002a30783236363434323234396636326138646434653239333438613532616638633830366337636230646100000000000000000000000000000000000000000000",
        "nonce": "0x277",
        "chainId": "0xaa36a7"
      },
      "additionalContracts": [],
      "isFixedGasLimit": false
    },
    {
      "hash": "0xddf0d2c43ac257b8b712ae35eb32cc9c4d5b7a5d9bce476666b2ad384ff742cd",
      "transactionType": "CALL",
      "contractName": "CTMRWAGateway",
      "contractAddress": "0xf8fe7804ae6dbc7306ab5a97ae2302706170530c",
      "function": "attachStorageManager(uint256,uint256,string[],string[])",
      "arguments": [
        "1",
        "1",
        "[11155420]",
        "[0x62ab67f946aca3991898ac7bb59beac125eb5902]"
      ],
      "transaction": {
        "from": "0xe62ab4d111f968660c6b2188046f9b9ba53c4bae",
        "to": "0xf8fe7804ae6dbc7306ab5a97ae2302706170530c",
        "gas": "0x4a7f6",
        "value": "0x0",
        "input": "0x2f68b4890000000000000000000000000000000000000000000000000000000000000001000000000000000000000000000000000000000000000000000000000000000100000000000000000000000000000000000000000000000000000000000000800000000000000000000000000000000000000000000000000000000000000100000000000000000000000000000000000000000000000000000000000000000100000000000000000000000000000000000000000000000000000000000000200000000000000000000000000000000000000000000000000000000000000008313131353534323000000000000000000000000000000000000000000000000000000000000000000000000000000000000000000000000000000000000000010000000000000000000000000000000000000000000000000000000000000020000000000000000000000000000000000000000000000000000000000000002a30783632616236376639343661636133393931383938616337626235396265616331323565623539303200000000000000000000000000000000000000000000",
        "nonce": "0x278",
        "chainId": "0xaa36a7"
      },
      "additionalContracts": [],
      "isFixedGasLimit": false
    },
    {
      "hash": "0x45b858edd7852719f2f52a82ae1521d3ad11508d0f2e5f883cc60f981d4a48cc",
      "transactionType": "CALL",
      "contractName": "CTMRWAGateway",
      "contractAddress": "0xf8fe7804ae6dbc7306ab5a97ae2302706170530c",
      "function": "attachSentryManager(uint256,uint256,string[],string[])",
      "arguments": [
        "1",
        "1",
        "[11155420]",
        "[0x1bb2dab2ce968db0d992a6289acbdd8f764be36a]"
      ],
      "transaction": {
        "from": "0xe62ab4d111f968660c6b2188046f9b9ba53c4bae",
        "to": "0xf8fe7804ae6dbc7306ab5a97ae2302706170530c",
        "gas": "0x4aa77",
        "value": "0x0",
        "input": "0x349de7970000000000000000000000000000000000000000000000000000000000000001000000000000000000000000000000000000000000000000000000000000000100000000000000000000000000000000000000000000000000000000000000800000000000000000000000000000000000000000000000000000000000000100000000000000000000000000000000000000000000000000000000000000000100000000000000000000000000000000000000000000000000000000000000200000000000000000000000000000000000000000000000000000000000000008313131353534323000000000000000000000000000000000000000000000000000000000000000000000000000000000000000000000000000000000000000010000000000000000000000000000000000000000000000000000000000000020000000000000000000000000000000000000000000000000000000000000002a30783162623264616232636539363864623064393932613632383961636264643866373634626533366100000000000000000000000000000000000000000000",
        "nonce": "0x279",
        "chainId": "0xaa36a7"
      },
      "additionalContracts": [],
      "isFixedGasLimit": false
    }
  ],
  "receipts": [
    {
      "status": "0x1",
      "cumulativeGasUsed": "0x92a425",
      "logs": [],
      "logsBloom": "0x00000000000000000000000000000000000000000000000000000000000000000000000000000000000000000000000000000000000000000000000000000000000000000000000000000000000000000000000000000000000000000000000000000000000000000000000000000000000000000000000000000000000000000000000000000000000000000000000000000000000000000000000000000000000000000000000000000000000000000000000000000000000000000000000000000000000000000000000000000000000000000000000000000000000000000000000000000000000000000000000000000000000000000000000000000000",
      "type": "0x2",
      "transactionHash": "0xd5fc1e356e7ca92fd2372b55aba9003d47a80e25a0c70df3458428a2c985220b",
      "transactionIndex": "0x53",
      "blockHash": "0x421dd34d4b7d0e6a5b162e5789805ac98817e9ee51cc42794f49075a2d9c01e2",
      "blockNumber": "0x7607cf",
      "gasUsed": "0x67a9",
      "effectiveGasPrice": "0x7799e674",
      "from": "0xe62ab4d111f968660c6b2188046f9b9ba53c4bae",
      "to": "0xee53a0ad7f17715774acc3963693b37040900019",
      "contractAddress": null
    },
    {
      "status": "0x1",
      "cumulativeGasUsed": "0xa46510",
      "logs": [],
      "logsBloom": "0x00000000000000000000000000000000000000000000000000000000000000000000000000000000000000000000000000000000000000000000000000000000000000000000000000000000000000000000000000000000000000000000000000000000000000000000000000000000000000000000000000000000000000000000000000000000000000000000000000000000000000000000000000000000000000000000000000000000000000000000000000000000000000000000000000000000000000000000000000000000000000000000000000000000000000000000000000000000000000000000000000000000000000000000000000000000",
      "type": "0x2",
      "transactionHash": "0x6d64d496383e08390694188d4c9c1e872c8c73d593d194a90c3354d9c9f03b9d",
      "transactionIndex": "0x75",
      "blockHash": "0x20bb3f9e3b7848aeb29c5c7762e6ba877545c83b0107997ab282d6edf0892661",
      "blockNumber": "0x7607d0",
      "gasUsed": "0x19de4",
      "effectiveGasPrice": "0x83823478",
      "from": "0xe62ab4d111f968660c6b2188046f9b9ba53c4bae",
      "to": "0xee53a0ad7f17715774acc3963693b37040900019",
      "contractAddress": null
    },
    {
      "status": "0x1",
      "cumulativeGasUsed": "0xc51fd7",
      "logs": [],
      "logsBloom": "0x00000000000000000000000000000000000000000000000000000000000000000000000000000000000000000000000000000000000000000000000000000000000000000000000000000000000000000000000000000000000000000000000000000000000000000000000000000000000000000000000000000000000000000000000000000000000000000000000000000000000000000000000000000000000000000000000000000000000000000000000000000000000000000000000000000000000000000000000000000000000000000000000000000000000000000000000000000000000000000000000000000000000000000000000000000000",
      "type": "0x2",
      "transactionHash": "0x99cd82974ec92c10a487769c5a08386321d6f0bd25dae5b3b3f870dfbbcab7d1",
      "transactionIndex": "0x6f",
      "blockHash": "0x100f1a2afddbbdc33ae99b5d65fee016358e7c12ef4ca6a268de96f3c76cbda0",
      "blockNumber": "0x7607d1",
      "gasUsed": "0x1eba0",
      "effectiveGasPrice": "0x7fd7e9ca",
      "from": "0xe62ab4d111f968660c6b2188046f9b9ba53c4bae",
      "to": "0xee53a0ad7f17715774acc3963693b37040900019",
      "contractAddress": null
    },
    {
      "status": "0x1",
      "cumulativeGasUsed": "0x7f4d0a",
      "logs": [],
      "logsBloom": "0x00000000000000000000000000000000000000000000000000000000000000000000000000000000000000000000000000000000000000000000000000000000000000000000000000000000000000000000000000000000000000000000000000000000000000000000000000000000000000000000000000000000000000000000000000000000000000000000000000000000000000000000000000000000000000000000000000000000000000000000000000000000000000000000000000000000000000000000000000000000000000000000000000000000000000000000000000000000000000000000000000000000000000000000000000000000",
      "type": "0x2",
      "transactionHash": "0xba533fdd34076c540e2cffe5eff681912d3839ba9210f776f89f4024657d46f0",
      "transactionIndex": "0x6b",
      "blockHash": "0xd3eafa59f495bc507892d6e4b26541b94247f3717f84995d10b1074e47ba22bc",
      "blockNumber": "0x7607d2",
      "gasUsed": "0x34a38",
      "effectiveGasPrice": "0x7e4bd68e",
      "from": "0xe62ab4d111f968660c6b2188046f9b9ba53c4bae",
      "to": "0xf8fe7804ae6dbc7306ab5a97ae2302706170530c",
      "contractAddress": null
    },
    {
      "status": "0x1",
      "cumulativeGasUsed": "0x8b85bb",
      "logs": [],
      "logsBloom": "0x00000000000000000000000000000000000000000000000000000000000000000000000000000000000000000000000000000000000000000000000000000000000000000000000000000000000000000000000000000000000000000000000000000000000000000000000000000000000000000000000000000000000000000000000000000000000000000000000000000000000000000000000000000000000000000000000000000000000000000000000000000000000000000000000000000000000000000000000000000000000000000000000000000000000000000000000000000000000000000000000000000000000000000000000000000000",
      "type": "0x2",
      "transactionHash": "0xd4939f03f2b9494dcbe838585bc05370b24a2e5b070f606333218896564590fc",
      "transactionIndex": "0x51",
      "blockHash": "0x3bfe8d87d51746eb776a53daab2ab9733be35843a7db3efc776ab539f6f6dd34",
      "blockNumber": "0x7607d3",
      "gasUsed": "0x3cb6b",
      "effectiveGasPrice": "0x79cd217f",
      "from": "0xe62ab4d111f968660c6b2188046f9b9ba53c4bae",
      "to": "0xf8fe7804ae6dbc7306ab5a97ae2302706170530c",
      "contractAddress": null
    },
    {
      "status": "0x1",
      "cumulativeGasUsed": "0xaef490",
      "logs": [],
      "logsBloom": "0x00000000000000000000000000000000000000000000000000000000000000000000000000000000000000000000000000000000000000000000000000000000000000000000000000000000000000000000000000000000000000000000000000000000000000000000000000000000000000000000000000000000000000000000000000000000000000000000000000000000000000000000000000000000000000000000000000000000000000000000000000000000000000000000000000000000000000000000000000000000000000000000000000000000000000000000000000000000000000000000000000000000000000000000000000000000",
      "type": "0x2",
      "transactionHash": "0xddf0d2c43ac257b8b712ae35eb32cc9c4d5b7a5d9bce476666b2ad384ff742cd",
      "transactionIndex": "0x6c",
      "blockHash": "0xc1a9648723dbb704015a5d033426a9bfec490d417b535231ac5999d6f8ee6ddc",
      "blockNumber": "0x7607d4",
      "gasUsed": "0x35ef6",
      "effectiveGasPrice": "0x762bffe1",
      "from": "0xe62ab4d111f968660c6b2188046f9b9ba53c4bae",
      "to": "0xf8fe7804ae6dbc7306ab5a97ae2302706170530c",
      "contractAddress": null
    },
    {
      "status": "0x1",
      "cumulativeGasUsed": "0x81917b",
      "logs": [],
      "logsBloom": "0x00000000000000000000000000000000000000000000000000000000000000000000000000000000000000000000000000000000000000000000000000000000000000000000000000000000000000000000000000000000000000000000000000000000000000000000000000000000000000000000000000000000000000000000000000000000000000000000000000000000000000000000000000000000000000000000000000000000000000000000000000000000000000000000000000000000000000000000000000000000000000000000000000000000000000000000000000000000000000000000000000000000000000000000000000000000",
      "type": "0x2",
      "transactionHash": "0x45b858edd7852719f2f52a82ae1521d3ad11508d0f2e5f883cc60f981d4a48cc",
      "transactionIndex": "0x54",
      "blockHash": "0x6e22bb4c089d0bb48da09701e1f59274eecf59548d4b845776db97d4b2bf3f6b",
      "blockNumber": "0x7607d6",
      "gasUsed": "0x360c6",
      "effectiveGasPrice": "0x6ee2667c",
      "from": "0xe62ab4d111f968660c6b2188046f9b9ba53c4bae",
      "to": "0xf8fe7804ae6dbc7306ab5a97ae2302706170530c",
      "contractAddress": null
    }
  ],
  "libraries": [],
  "pending": [],
  "returns": {},
  "timestamp": 1739899801,
  "chain": 11155111,
  "commit": "be616da9"
}