{
  "transactions": [
    {
      "hash": "0x68989791a3e71a6aa3c2a0afa7b5557e27cf83e8820d61c0af8715dcedf0b682",
      "transactionType": "CALL",
      "contractName": "CTMRWAGateway",
      "contractAddress": "0x13797c225f8e3645299f17d83365e0f5db1c1607",
      "function": "addChainContract(string[],string[])",
      "arguments": [
        "[5003, 153]",
        "[0x9dc772b55e95a630031ebe431706d105af01cf03, 0x24a74106195acd7e3e0a8cc17fd44761cc32474a]"
      ],
      "transaction": {
        "from": "0xe62ab4d111f968660c6b2188046f9b9ba53c4bae",
        "to": "0x13797c225f8e3645299f17d83365e0f5db1c1607",
        "gas": "0x3c07c",
        "value": "0x0",
        "input": "0x013fd3bd0000000000000000000000000000000000000000000000000000000000000040000000000000000000000000000000000000000000000000000000000000012000000000000000000000000000000000000000000000000000000000000000020000000000000000000000000000000000000000000000000000000000000040000000000000000000000000000000000000000000000000000000000000008000000000000000000000000000000000000000000000000000000000000000043530303300000000000000000000000000000000000000000000000000000000000000000000000000000000000000000000000000000000000000000000000331353300000000000000000000000000000000000000000000000000000000000000000000000000000000000000000000000000000000000000000000000002000000000000000000000000000000000000000000000000000000000000004000000000000000000000000000000000000000000000000000000000000000a0000000000000000000000000000000000000000000000000000000000000002a30783964633737326235356539356136333030333165626534333137303664313035616630316366303300000000000000000000000000000000000000000000000000000000000000000000000000000000000000000000000000000000002a30783234613734313036313935616364376533653061386363313766643434373631636333323437346100000000000000000000000000000000000000000000",
        "nonce": "0x356",
        "chainId": "0xaa36a7"
      },
      "additionalContracts": [],
      "isFixedGasLimit": false
    },
    {
      "hash": "0x6b068ab2cd40403d2c917d2e5e132ec51bcf66935552238ed13eacbaf8e8d7f4",
      "transactionType": "CALL",
      "contractName": "CTMRWAGateway",
      "contractAddress": "0x13797c225f8e3645299f17d83365e0f5db1c1607",
      "function": "attachRWAX(uint256,uint256,string[],string[])",
      "arguments": [
        "1",
        "1",
        "[5003, 153]",
        "[0xad49cabd336f943a9c350b9ed60680c54fa2c3d1, 0x41388451eca7344136004d29a813dcee49577b44]"
      ],
      "transaction": {
        "from": "0xe62ab4d111f968660c6b2188046f9b9ba53c4bae",
        "to": "0x13797c225f8e3645299f17d83365e0f5db1c1607",
        "gas": "0x3eda8",
        "value": "0x0",
        "input": "0x33a5f5b4000000000000000000000000000000000000000000000000000000000000000100000000000000000000000000000000000000000000000000000000000000010000000000000000000000000000000000000000000000000000000000000080000000000000000000000000000000000000000000000000000000000000016000000000000000000000000000000000000000000000000000000000000000020000000000000000000000000000000000000000000000000000000000000040000000000000000000000000000000000000000000000000000000000000008000000000000000000000000000000000000000000000000000000000000000043530303300000000000000000000000000000000000000000000000000000000000000000000000000000000000000000000000000000000000000000000000331353300000000000000000000000000000000000000000000000000000000000000000000000000000000000000000000000000000000000000000000000002000000000000000000000000000000000000000000000000000000000000004000000000000000000000000000000000000000000000000000000000000000a0000000000000000000000000000000000000000000000000000000000000002a30786164343963616264333336663934336139633335306239656436303638306335346661326333643100000000000000000000000000000000000000000000000000000000000000000000000000000000000000000000000000000000002a30783431333838343531656361373334343133363030346432396138313364636565343935373762343400000000000000000000000000000000000000000000",
        "nonce": "0x357",
        "chainId": "0xaa36a7"
      },
      "additionalContracts": [],
      "isFixedGasLimit": false
    },
    {
      "hash": "0xdf4032ddf85e46354c5d3371cd48f351f06d80f95a9158529ba32b813fc22bf1",
      "transactionType": "CALL",
      "contractName": "CTMRWAGateway",
      "contractAddress": "0x13797c225f8e3645299f17d83365e0f5db1c1607",
      "function": "attachStorageManager(uint256,uint256,string[],string[])",
      "arguments": [
        "1",
        "1",
        "[5003, 153]",
        "[0xede597aa066e6d7bc84bf586c494735deb7dde9f, 0x74972e7ff5561bd902e3ec3ddd5a22653088ca6f]"
      ],
      "transaction": {
        "from": "0xe62ab4d111f968660c6b2188046f9b9ba53c4bae",
        "to": "0x13797c225f8e3645299f17d83365e0f5db1c1607",
        "gas": "0x3f195",
        "value": "0x0",
        "input": "0x2f68b489000000000000000000000000000000000000000000000000000000000000000100000000000000000000000000000000000000000000000000000000000000010000000000000000000000000000000000000000000000000000000000000080000000000000000000000000000000000000000000000000000000000000016000000000000000000000000000000000000000000000000000000000000000020000000000000000000000000000000000000000000000000000000000000040000000000000000000000000000000000000000000000000000000000000008000000000000000000000000000000000000000000000000000000000000000043530303300000000000000000000000000000000000000000000000000000000000000000000000000000000000000000000000000000000000000000000000331353300000000000000000000000000000000000000000000000000000000000000000000000000000000000000000000000000000000000000000000000002000000000000000000000000000000000000000000000000000000000000004000000000000000000000000000000000000000000000000000000000000000a0000000000000000000000000000000000000000000000000000000000000002a30786564653539376161303636653664376263383462663538366334393437333564656237646465396600000000000000000000000000000000000000000000000000000000000000000000000000000000000000000000000000000000002a30783734393732653766663535363162643930326533656333646464356132323635333038386361366600000000000000000000000000000000000000000000",
        "nonce": "0x358",
        "chainId": "0xaa36a7"
      },
      "additionalContracts": [],
      "isFixedGasLimit": false
    },
    {
      "hash": "0x1f4cf22c0fffeac85f701da194fba40408c6a49c4bec1db037a0ad240a2d4ff7",
      "transactionType": "CALL",
      "contractName": "CTMRWAGateway",
      "contractAddress": "0x13797c225f8e3645299f17d83365e0f5db1c1607",
      "function": "attachSentryManager(uint256,uint256,string[],string[])",
      "arguments": [
        "1",
        "1",
        "[5003, 153]",
        "[0xda61b02d88d2c857da9d2da435152b08f03e2836, 0x5930640c1572bcd396eb410f62a6975ab9b8a148]"
      ],
      "transaction": {
        "from": "0xe62ab4d111f968660c6b2188046f9b9ba53c4bae",
        "to": "0x13797c225f8e3645299f17d83365e0f5db1c1607",
        "gas": "0x3ed4a",
        "value": "0x0",
        "input": "0x349de797000000000000000000000000000000000000000000000000000000000000000100000000000000000000000000000000000000000000000000000000000000010000000000000000000000000000000000000000000000000000000000000080000000000000000000000000000000000000000000000000000000000000016000000000000000000000000000000000000000000000000000000000000000020000000000000000000000000000000000000000000000000000000000000040000000000000000000000000000000000000000000000000000000000000008000000000000000000000000000000000000000000000000000000000000000043530303300000000000000000000000000000000000000000000000000000000000000000000000000000000000000000000000000000000000000000000000331353300000000000000000000000000000000000000000000000000000000000000000000000000000000000000000000000000000000000000000000000002000000000000000000000000000000000000000000000000000000000000004000000000000000000000000000000000000000000000000000000000000000a0000000000000000000000000000000000000000000000000000000000000002a30786461363162303264383864326338353764613964326461343335313532623038663033653238333600000000000000000000000000000000000000000000000000000000000000000000000000000000000000000000000000000000002a30783539333036343063313537326263643339366562343130663632613639373561623962386131343800000000000000000000000000000000000000000000",
        "nonce": "0x359",
        "chainId": "0xaa36a7"
      },
      "additionalContracts": [],
      "isFixedGasLimit": false
    }
  ],
  "receipts": [
    {
      "status": "0x1",
      "cumulativeGasUsed": "0x10c0185",
      "logs": [],
      "logsBloom": "0x00000000000000000000000000000000000000000000000000000000000000000000000000000000000000000000000000000000000000000000000000000000000000000000000000000000000000000000000000000000000000000000000000000000000000000000000000000000000000000000000000000000000000000000000000000000000000000000000000000000000000000000000000000000000000000000000000000000000000000000000000000000000000000000000000000000000000000000000000000000000000000000000000000000000000000000000000000000000000000000000000000000000000000000000000000000",
      "type": "0x2",
      "transactionHash": "0x68989791a3e71a6aa3c2a0afa7b5557e27cf83e8820d61c0af8715dcedf0b682",
      "transactionIndex": "0x74",
      "blockHash": "0xb7966de49894cc4be80dfc855d53fc58f45c432c1399e3565e7fa48f1a0c3287",
      "blockNumber": "0x809319",
      "gasUsed": "0x2b760",
      "effectiveGasPrice": "0x742467d",
      "from": "0xe62ab4d111f968660c6b2188046f9b9ba53c4bae",
      "to": "0x13797c225f8e3645299f17d83365e0f5db1c1607",
      "contractAddress": null
    },
    {
      "status": "0x1",
      "cumulativeGasUsed": "0x10cf531",
      "logs": [],
      "logsBloom": "0x00000000000000000000000000000000000000000000000000000000000000000000000000000000000000000000000000000000000000000000000000000000000000000000000000000000000000000000000000000000000000000000000000000000000000000000000000000000000000000000000000000000000000000000000000000000000000000000000000000000000000000000000000000000000000000000000000000000000000000000000000000000000000000000000000000000000000000000000000000000000000000000000000000000000000000000000000000000000000000000000000000000000000000000000000000000",
      "type": "0x2",
      "transactionHash": "0x6b068ab2cd40403d2c917d2e5e132ec51bcf66935552238ed13eacbaf8e8d7f4",
      "transactionIndex": "0x8d",
      "blockHash": "0xf7f7a8f2c6a946898c281922be0056af1e2dad001725fb0297d9ee10cf8406fb",
      "blockNumber": "0x80931a",
      "gasUsed": "0x2d814",
      "effectiveGasPrice": "0x70575dd",
      "from": "0xe62ab4d111f968660c6b2188046f9b9ba53c4bae",
      "to": "0x13797c225f8e3645299f17d83365e0f5db1c1607",
      "contractAddress": null
    },
    {
      "status": "0x1",
      "cumulativeGasUsed": "0xa1631d",
      "logs": [],
      "logsBloom": "0x00000000000000000000000000000000000000000000000000000000000000000000000000000000000000000000000000000000000000000000000000000000000000000000000000000000000000000000000000000000000000000000000000000000000000000000000000000000000000000000000000000000000000000000000000000000000000000000000000000000000000000000000000000000000000000000000000000000000000000000000000000000000000000000000000000000000000000000000000000000000000000000000000000000000000000000000000000000000000000000000000000000000000000000000000000000",
      "type": "0x2",
      "transactionHash": "0xdf4032ddf85e46354c5d3371cd48f351f06d80f95a9158529ba32b813fc22bf1",
      "transactionIndex": "0x69",
      "blockHash": "0xd4fa3f6f517459662996f16cd5ab2847bd7938d7daed3975dc13142cf67b50ae",
      "blockNumber": "0x80931b",
      "gasUsed": "0x2daec",
      "effectiveGasPrice": "0x6d7ad8b",
      "from": "0xe62ab4d111f968660c6b2188046f9b9ba53c4bae",
      "to": "0x13797c225f8e3645299f17d83365e0f5db1c1607",
      "contractAddress": null
    },
    {
      "status": "0x1",
      "cumulativeGasUsed": "0xfae002",
      "logs": [],
      "logsBloom": "0x00000000000000000000000000000000000000000000000000000000000000000000000000000000000000000000000000000000000000000000000000000000000000000000000000000000000000000000000000000000000000000000000000000000000000000000000000000000000000000000000000000000000000000000000000000000000000000000000000000000000000000000000000000000000000000000000000000000000000000000000000000000000000000000000000000000000000000000000000000000000000000000000000000000000000000000000000000000000000000000000000000000000000000000000000000000",
      "type": "0x2",
      "transactionHash": "0x1f4cf22c0fffeac85f701da194fba40408c6a49c4bec1db037a0ad240a2d4ff7",
      "transactionIndex": "0x75",
      "blockHash": "0x756218d9a0f50631aad1a746d98ddac6a55bb6015c6684bde8fbebeff0a59c53",
      "blockNumber": "0x80931c",
      "gasUsed": "0x2d7d0",
      "effectiveGasPrice": "0x6b0d9a5",
      "from": "0xe62ab4d111f968660c6b2188046f9b9ba53c4bae",
      "to": "0x13797c225f8e3645299f17d83365e0f5db1c1607",
      "contractAddress": null
    }
  ],
  "libraries": [],
  "pending": [],
  "returns": {},
  "timestamp": 1748453460,
  "chain": 11155111,
  "commit": "f02f4300"
}