{
  "transactions": [
    {
      "hash": "0x3d673990b81a7e16ce07c537c1b09e7466a83920bd6bc67cc6627ce3d1e1288d",
      "transactionType": "CALL",
      "contractName": null,
      "contractAddress": "0xd1f0743c665d80d6bdaf1b4b8c9e82bfd1ae1994",
      "function": "getFeeTokenList()",
      "arguments": [],
      "transaction": {
        "from": "0xe62ab4d111f968660c6b2188046f9b9ba53c4bae",
        "to": "0xd1f0743c665d80d6bdaf1b4b8c9e82bfd1ae1994",
        "gas": "0x8a7e",
        "value": "0x0",
        "input": "0xe28ab277",
        "nonce": "0x99",
        "chainId": "0xaa36a7"
      },
      "additionalContracts": [],
      "isFixedGasLimit": false
    },
    {
      "hash": "0xa213038aecab93dd89c1773fa96d858a36fe6b506eed8cf5a93ede3e6a70d762",
      "transactionType": "CALL",
      "contractName": null,
      "contractAddress": "0xd1f0743c665d80d6bdaf1b4b8c9e82bfd1ae1994",
      "function": "addFeeToken(string)",
      "arguments": [
        "0xa4c104db0937f1e886d5c9c9789d6f0e5bfba75c"
      ],
      "transaction": {
        "from": "0xe62ab4d111f968660c6b2188046f9b9ba53c4bae",
        "to": "0xd1f0743c665d80d6bdaf1b4b8c9e82bfd1ae1994",
        "gas": "0x28cec",
        "value": "0x0",
        "input": "0x12a6385f0000000000000000000000000000000000000000000000000000000000000020000000000000000000000000000000000000000000000000000000000000002a30786134633130346462303933376631653838366435633963393738396436663065356266626137356300000000000000000000000000000000000000000000",
        "nonce": "0x9a",
        "chainId": "0xaa36a7"
      },
      "additionalContracts": [],
      "isFixedGasLimit": false
    },
    {
      "hash": "0x5947b255226d6544a9d726cb3b142fc6372f2ef48e3e2953ec24e1eb43a3f447",
      "transactionType": "CALL",
      "contractName": null,
      "contractAddress": "0xd1f0743c665d80d6bdaf1b4b8c9e82bfd1ae1994",
      "function": "setFeeMultiplier(uint8,uint256)",
      "arguments": [
        "0",
        "2"
      ],
      "transaction": {
        "from": "0xe62ab4d111f968660c6b2188046f9b9ba53c4bae",
        "to": "0xd1f0743c665d80d6bdaf1b4b8c9e82bfd1ae1994",
        "gas": "0x112e8",
        "value": "0x0",
        "input": "0x0ee24eb500000000000000000000000000000000000000000000000000000000000000000000000000000000000000000000000000000000000000000000000000000002",
        "nonce": "0x9b",
        "chainId": "0xaa36a7"
      },
      "additionalContracts": [],
      "isFixedGasLimit": false
    },
    {
      "hash": "0x4e89bd161dbaa8cdade963d17a084d54838cbb8639250fe4bf276b008f9615f8",
      "transactionType": "CALL",
      "contractName": null,
      "contractAddress": "0xd1f0743c665d80d6bdaf1b4b8c9e82bfd1ae1994",
      "function": "setFeeMultiplier(uint8,uint256)",
      "arguments": [
        "1",
        "10"
      ],
      "transaction": {
        "from": "0xe62ab4d111f968660c6b2188046f9b9ba53c4bae",
        "to": "0xd1f0743c665d80d6bdaf1b4b8c9e82bfd1ae1994",
        "gas": "0x103d2",
        "value": "0x0",
        "input": "0x0ee24eb50000000000000000000000000000000000000000000000000000000000000001000000000000000000000000000000000000000000000000000000000000000a",
        "nonce": "0x9c",
        "chainId": "0xaa36a7"
      },
      "additionalContracts": [],
      "isFixedGasLimit": false
    },
    {
      "hash": "0x88c1914005187a49be7fc761f5955ce8357b761adae657b1b2a2a48fa6d15d97",
      "transactionType": "CALL",
      "contractName": null,
      "contractAddress": "0xd1f0743c665d80d6bdaf1b4b8c9e82bfd1ae1994",
      "function": "setFeeMultiplier(uint8,uint256)",
      "arguments": [
        "2",
        "1"
      ],
      "transaction": {
        "from": "0xe62ab4d111f968660c6b2188046f9b9ba53c4bae",
        "to": "0xd1f0743c665d80d6bdaf1b4b8c9e82bfd1ae1994",
        "gas": "0x1133d",
        "value": "0x0",
        "input": "0x0ee24eb500000000000000000000000000000000000000000000000000000000000000020000000000000000000000000000000000000000000000000000000000000001",
        "nonce": "0x9d",
        "chainId": "0xaa36a7"
      },
      "additionalContracts": [],
      "isFixedGasLimit": false
    },
    {
      "hash": "0x39d9c091a0df15db2c6a6f5d388f12766706cdc2ab8d763ca27a2dd3b8830465",
      "transactionType": "CALL",
      "contractName": null,
      "contractAddress": "0xd1f0743c665d80d6bdaf1b4b8c9e82bfd1ae1994",
      "function": "setFeeMultiplier(uint8,uint256)",
      "arguments": [
        "3",
        "4"
      ],
      "transaction": {
        "from": "0xe62ab4d111f968660c6b2188046f9b9ba53c4bae",
        "to": "0xd1f0743c665d80d6bdaf1b4b8c9e82bfd1ae1994",
        "gas": "0x1135f",
        "value": "0x0",
        "input": "0x0ee24eb500000000000000000000000000000000000000000000000000000000000000030000000000000000000000000000000000000000000000000000000000000004",
        "nonce": "0x9e",
        "chainId": "0xaa36a7"
      },
      "additionalContracts": [],
      "isFixedGasLimit": false
    },
    {
      "hash": "0x532120afbe42513c00adacccbdc5e736eee06cc582d17919888863e6e325733d",
      "transactionType": "CALL",
      "contractName": null,
      "contractAddress": "0xd1f0743c665d80d6bdaf1b4b8c9e82bfd1ae1994",
      "function": "setFeeMultiplier(uint8,uint256)",
      "arguments": [
        "4",
        "4"
      ],
      "transaction": {
        "from": "0xe62ab4d111f968660c6b2188046f9b9ba53c4bae",
        "to": "0xd1f0743c665d80d6bdaf1b4b8c9e82bfd1ae1994",
        "gas": "0x1042a",
        "value": "0x0",
        "input": "0x0ee24eb500000000000000000000000000000000000000000000000000000000000000040000000000000000000000000000000000000000000000000000000000000004",
        "nonce": "0x9f",
        "chainId": "0xaa36a7"
      },
      "additionalContracts": [],
      "isFixedGasLimit": false
    },
    {
      "hash": "0xc60d96a20514237e83183f12db8e3fc7f6768e6fa235ac1a910999ae8400efb5",
      "transactionType": "CALL",
      "contractName": null,
      "contractAddress": "0xd1f0743c665d80d6bdaf1b4b8c9e82bfd1ae1994",
      "function": "addFeeToken(string,string[],uint256[])",
      "arguments": [
        "421614",
        "[0xa4c104db0937f1e886d5c9c9789d6f0e5bfba75c]",
        "[1000]"
      ],
      "transaction": {
        "from": "0xe62ab4d111f968660c6b2188046f9b9ba53c4bae",
        "to": "0xd1f0743c665d80d6bdaf1b4b8c9e82bfd1ae1994",
        "gas": "0x32174",
        "value": "0x0",
        "input": "0x437bf84f000000000000000000000000000000000000000000000000000000000000006000000000000000000000000000000000000000000000000000000000000000a000000000000000000000000000000000000000000000000000000000000001400000000000000000000000000000000000000000000000000000000000000006343231363134000000000000000000000000000000000000000000000000000000000000000000000000000000000000000000000000000000000000000000010000000000000000000000000000000000000000000000000000000000000020000000000000000000000000000000000000000000000000000000000000002a30786134633130346462303933376631653838366435633963393738396436663065356266626137356300000000000000000000000000000000000000000000000000000000000000000000000000000000000000000000000000000000000100000000000000000000000000000000000000000000000000000000000003e8",
        "nonce": "0xa0",
        "chainId": "0xaa36a7"
      },
      "additionalContracts": [],
      "isFixedGasLimit": false
    },
    {
      "hash": "0xb6343a439eea9f9dc6499df24f7fe25ec0462489172912ad1dd24198c1bb33be",
      "transactionType": "CALL",
      "contractName": null,
      "contractAddress": "0xd1f0743c665d80d6bdaf1b4b8c9e82bfd1ae1994",
      "function": "addFeeToken(string,string[],uint256[])",
      "arguments": [
        "80002",
        "[0xa4c104db0937f1e886d5c9c9789d6f0e5bfba75c]",
        "[1000]"
      ],
      "transaction": {
        "from": "0xe62ab4d111f968660c6b2188046f9b9ba53c4bae",
        "to": "0xd1f0743c665d80d6bdaf1b4b8c9e82bfd1ae1994",
        "gas": "0x2c8f9",
        "value": "0x0",
        "input": "0x437bf84f000000000000000000000000000000000000000000000000000000000000006000000000000000000000000000000000000000000000000000000000000000a000000000000000000000000000000000000000000000000000000000000001400000000000000000000000000000000000000000000000000000000000000005383030303200000000000000000000000000000000000000000000000000000000000000000000000000000000000000000000000000000000000000000000010000000000000000000000000000000000000000000000000000000000000020000000000000000000000000000000000000000000000000000000000000002a30786134633130346462303933376631653838366435633963393738396436663065356266626137356300000000000000000000000000000000000000000000000000000000000000000000000000000000000000000000000000000000000100000000000000000000000000000000000000000000000000000000000003e8",
        "nonce": "0xa1",
        "chainId": "0xaa36a7"
      },
      "additionalContracts": [],
      "isFixedGasLimit": false
    },
    {
      "hash": "0xc943f84ba6afab9f981732ad63fefe41c7ffb50b13f5500bf6a860ee3a1d4690",
      "transactionType": "CALL",
      "contractName": null,
      "contractAddress": "0xd1f0743c665d80d6bdaf1b4b8c9e82bfd1ae1994",
      "function": "addFeeToken(string,string[],uint256[])",
      "arguments": [
        "84532",
        "[0xa4c104db0937f1e886d5c9c9789d6f0e5bfba75c]",
        "[1000]"
      ],
      "transaction": {
        "from": "0xe62ab4d111f968660c6b2188046f9b9ba53c4bae",
        "to": "0xd1f0743c665d80d6bdaf1b4b8c9e82bfd1ae1994",
        "gas": "0x2c8f9",
        "value": "0x0",
        "input": "0x437bf84f000000000000000000000000000000000000000000000000000000000000006000000000000000000000000000000000000000000000000000000000000000a000000000000000000000000000000000000000000000000000000000000001400000000000000000000000000000000000000000000000000000000000000005383435333200000000000000000000000000000000000000000000000000000000000000000000000000000000000000000000000000000000000000000000010000000000000000000000000000000000000000000000000000000000000020000000000000000000000000000000000000000000000000000000000000002a30786134633130346462303933376631653838366435633963393738396436663065356266626137356300000000000000000000000000000000000000000000000000000000000000000000000000000000000000000000000000000000000100000000000000000000000000000000000000000000000000000000000003e8",
        "nonce": "0xa2",
        "chainId": "0xaa36a7"
      },
      "additionalContracts": [],
      "isFixedGasLimit": false
    },
    {
      "hash": "0x25f7db408b14e28dd6f0b12f87bcf7f8545b9b844869833280255dbf058d788d",
      "transactionType": "CALL",
      "contractName": null,
      "contractAddress": "0xd1f0743c665d80d6bdaf1b4b8c9e82bfd1ae1994",
      "function": "addFeeToken(string,string[],uint256[])",
      "arguments": [
        "97",
        "[0xa4c104db0937f1e886d5c9c9789d6f0e5bfba75c]",
        "[1000]"
      ],
      "transaction": {
        "from": "0xe62ab4d111f968660c6b2188046f9b9ba53c4bae",
        "to": "0xd1f0743c665d80d6bdaf1b4b8c9e82bfd1ae1994",
        "gas": "0x29b15",
        "value": "0x0",
        "input": "0x437bf84f000000000000000000000000000000000000000000000000000000000000006000000000000000000000000000000000000000000000000000000000000000a000000000000000000000000000000000000000000000000000000000000001400000000000000000000000000000000000000000000000000000000000000002393700000000000000000000000000000000000000000000000000000000000000000000000000000000000000000000000000000000000000000000000000010000000000000000000000000000000000000000000000000000000000000020000000000000000000000000000000000000000000000000000000000000002a30786134633130346462303933376631653838366435633963393738396436663065356266626137356300000000000000000000000000000000000000000000000000000000000000000000000000000000000000000000000000000000000100000000000000000000000000000000000000000000000000000000000003e8",
        "nonce": "0xa3",
        "chainId": "0xaa36a7"
      },
      "additionalContracts": [],
      "isFixedGasLimit": false
    },
    {
      "hash": "0x1d1c08261649562993173fdecef027067b5012e9676b65d08564c3aa284da6b5",
      "transactionType": "CALL",
      "contractName": null,
      "contractAddress": "0x9266e8bf4943f2b366f2be89688a8622084db8b9",
      "function": "addChainContract(string[],string[])",
      "arguments": [
        "[421614, 80002, 84532, 97]",
        "[0x358498985e6ac7ca73f5110b415525ae04cb8313, 0x2927d422cbea7f315ee3e0660af2ed9b35302004, 0x6640ec42f86abcf799c21a070f7baf6db38a2ab9, 0x969035b34b913c507b87fd805fff608fb1fe13f0]"
      ],
      "transaction": {
        "from": "0xe62ab4d111f968660c6b2188046f9b9ba53c4bae",
        "to": "0x9266e8bf4943f2b366f2be89688a8622084db8b9",
        "gas": "0xb3b5f",
        "value": "0x0",
        "input": "0x013fd3bd000000000000000000000000000000000000000000000000000000000000004000000000000000000000000000000000000000000000000000000000000001e00000000000000000000000000000000000000000000000000000000000000004000000000000000000000000000000000000000000000000000000000000008000000000000000000000000000000000000000000000000000000000000000c000000000000000000000000000000000000000000000000000000000000001000000000000000000000000000000000000000000000000000000000000000140000000000000000000000000000000000000000000000000000000000000000634323136313400000000000000000000000000000000000000000000000000000000000000000000000000000000000000000000000000000000000000000005383030303200000000000000000000000000000000000000000000000000000000000000000000000000000000000000000000000000000000000000000000053834353332000000000000000000000000000000000000000000000000000000000000000000000000000000000000000000000000000000000000000000000239370000000000000000000000000000000000000000000000000000000000000000000000000000000000000000000000000000000000000000000000000004000000000000000000000000000000000000000000000000000000000000008000000000000000000000000000000000000000000000000000000000000000e0000000000000000000000000000000000000000000000000000000000000014000000000000000000000000000000000000000000000000000000000000001a0000000000000000000000000000000000000000000000000000000000000002a30783335383439383938356536616337636137336635313130623431353532356165303463623833313300000000000000000000000000000000000000000000000000000000000000000000000000000000000000000000000000000000002a30783239323764343232636265613766333135656533653036363061663265643962333533303230303400000000000000000000000000000000000000000000000000000000000000000000000000000000000000000000000000000000002a30783636343065633432663836616263663739396332316130373066376261663664623338613261623900000000000000000000000000000000000000000000000000000000000000000000000000000000000000000000000000000000002a30783936393033356233346239313363353037623837666438303566666636303866623166653133663000000000000000000000000000000000000000000000",
        "nonce": "0xa4",
        "chainId": "0xaa36a7"
      },
      "additionalContracts": [],
      "isFixedGasLimit": false
    },
    {
      "hash": "0x3ec652330fc6534e0e627b0e51f1c69fffdc253b8c0e6128d0d187abb826de80",
      "transactionType": "CALL",
      "contractName": null,
      "contractAddress": "0x9266e8bf4943f2b366f2be89688a8622084db8b9",
      "function": "attachRWAX(uint256,uint256,string[],string[])",
      "arguments": [
        "1",
        "1",
        "[11155111, 421614, 80002, 84532, 97]",
        "[0xb5638019cbfc1b523d5167a269e755b05bf24fd9, 0x9dc772b55e95a630031ebe431706d105af01cf03, 0x1b87108b35abb5751bfc64647e9d5cd1cb77e236, 0x8230abab39f9c618282ddd0af1dfa278de7df98f, 0x66b719c489193594c617801e67119959cd15b63a]"
      ],
      "transaction": {
        "from": "0xe62ab4d111f968660c6b2188046f9b9ba53c4bae",
        "to": "0x9266e8bf4943f2b366f2be89688a8622084db8b9",
        "gas": "0xd6d44",
        "value": "0x0",
        "input": "0x33a5f5b40000000000000000000000000000000000000000000000000000000000000001000000000000000000000000000000000000000000000000000000000000000100000000000000000000000000000000000000000000000000000000000000800000000000000000000000000000000000000000000000000000000000000280000000000000000000000000000000000000000000000000000000000000000500000000000000000000000000000000000000000000000000000000000000a000000000000000000000000000000000000000000000000000000000000000e00000000000000000000000000000000000000000000000000000000000000120000000000000000000000000000000000000000000000000000000000000016000000000000000000000000000000000000000000000000000000000000001a00000000000000000000000000000000000000000000000000000000000000008313131353531313100000000000000000000000000000000000000000000000000000000000000000000000000000000000000000000000000000000000000063432313631340000000000000000000000000000000000000000000000000000000000000000000000000000000000000000000000000000000000000000000538303030320000000000000000000000000000000000000000000000000000000000000000000000000000000000000000000000000000000000000000000005383435333200000000000000000000000000000000000000000000000000000000000000000000000000000000000000000000000000000000000000000000023937000000000000000000000000000000000000000000000000000000000000000000000000000000000000000000000000000000000000000000000000000500000000000000000000000000000000000000000000000000000000000000a00000000000000000000000000000000000000000000000000000000000000100000000000000000000000000000000000000000000000000000000000000016000000000000000000000000000000000000000000000000000000000000001c00000000000000000000000000000000000000000000000000000000000000220000000000000000000000000000000000000000000000000000000000000002a30786235363338303139636266633162353233643531363761323639653735356230356266323466643900000000000000000000000000000000000000000000000000000000000000000000000000000000000000000000000000000000002a30783964633737326235356539356136333030333165626534333137303664313035616630316366303300000000000000000000000000000000000000000000000000000000000000000000000000000000000000000000000000000000002a30783162383731303862333561626235373531626663363436343765396435636431636237376532333600000000000000000000000000000000000000000000000000000000000000000000000000000000000000000000000000000000002a30783832333061626162333966396336313832383264646430616631646661323738646537646639386600000000000000000000000000000000000000000000000000000000000000000000000000000000000000000000000000000000002a30783636623731396334383931393335393463363137383031653637313139393539636431356236336100000000000000000000000000000000000000000000",
        "nonce": "0xa5",
        "chainId": "0xaa36a7"
      },
      "additionalContracts": [],
      "isFixedGasLimit": false
    },
    {
      "hash": "0x26a3d3a3c8dc051f226cd61dfa18dc3486c837fdcdab99f8e2af9859a4f5040e",
      "transactionType": "CALL",
      "contractName": null,
      "contractAddress": "0x9266e8bf4943f2b366f2be89688a8622084db8b9",
      "function": "attachStorageManager(uint256,uint256,string[],string[])",
      "arguments": [
        "1",
        "1",
        "[11155111, 421614, 80002, 84532, 97]",
        "[0xa240b0714712e2927ec055ceaa8e031ac671a55f, 0xc047401f28f43ec8af8c5aaac26bf7d007e2474a, 0x3418a45e442210ec9579b074ae9acb13b2a67554, 0xaf685f104e7428311f25526180cbd416fa8668cd, 0xe569c146b0d4c1c941607b5c6a648b5877ae29ef]"
      ],
      "transaction": {
        "from": "0xe62ab4d111f968660c6b2188046f9b9ba53c4bae",
        "to": "0x9266e8bf4943f2b366f2be89688a8622084db8b9",
        "gas": "0xd6d24",
        "value": "0x0",
        "input": "0x2f68b4890000000000000000000000000000000000000000000000000000000000000001000000000000000000000000000000000000000000000000000000000000000100000000000000000000000000000000000000000000000000000000000000800000000000000000000000000000000000000000000000000000000000000280000000000000000000000000000000000000000000000000000000000000000500000000000000000000000000000000000000000000000000000000000000a000000000000000000000000000000000000000000000000000000000000000e00000000000000000000000000000000000000000000000000000000000000120000000000000000000000000000000000000000000000000000000000000016000000000000000000000000000000000000000000000000000000000000001a00000000000000000000000000000000000000000000000000000000000000008313131353531313100000000000000000000000000000000000000000000000000000000000000000000000000000000000000000000000000000000000000063432313631340000000000000000000000000000000000000000000000000000000000000000000000000000000000000000000000000000000000000000000538303030320000000000000000000000000000000000000000000000000000000000000000000000000000000000000000000000000000000000000000000005383435333200000000000000000000000000000000000000000000000000000000000000000000000000000000000000000000000000000000000000000000023937000000000000000000000000000000000000000000000000000000000000000000000000000000000000000000000000000000000000000000000000000500000000000000000000000000000000000000000000000000000000000000a00000000000000000000000000000000000000000000000000000000000000100000000000000000000000000000000000000000000000000000000000000016000000000000000000000000000000000000000000000000000000000000001c00000000000000000000000000000000000000000000000000000000000000220000000000000000000000000000000000000000000000000000000000000002a30786132343062303731343731326532393237656330353563656161386530333161633637316135356600000000000000000000000000000000000000000000000000000000000000000000000000000000000000000000000000000000002a30786330343734303166323866343365633861663863356161616332366266376430303765323437346100000000000000000000000000000000000000000000000000000000000000000000000000000000000000000000000000000000002a30783334313861343565343432323130656339353739623037346165396163623133623261363735353400000000000000000000000000000000000000000000000000000000000000000000000000000000000000000000000000000000002a30786166363835663130346537343238333131663235353236313830636264343136666138363638636400000000000000000000000000000000000000000000000000000000000000000000000000000000000000000000000000000000002a30786535363963313436623064346331633934313630376235633661363438623538373761653239656600000000000000000000000000000000000000000000",
        "nonce": "0xa6",
        "chainId": "0xaa36a7"
      },
      "additionalContracts": [],
      "isFixedGasLimit": false
    }
  ],
  "receipts": [
    {
      "status": "0x1",
      "cumulativeGasUsed": "0x1aaa0e5",
      "logs": [],
      "logsBloom": "0x00000000000000000000000000000000000000000000000000000000000000000000000000000000000000000000000000000000000000000000000000000000000000000000000000000000000000000000000000000000000000000000000000000000000000000000000000000000000000000000000000000000000000000000000000000000000000000000000000000000000000000000000000000000000000000000000000000000000000000000000000000000000000000000000000000000000000000000000000000000000000000000000000000000000000000000000000000000000000000000000000000000000000000000000000000000",
      "type": "0x2",
      "transactionHash": "0x3d673990b81a7e16ce07c537c1b09e7466a83920bd6bc67cc6627ce3d1e1288d",
      "transactionIndex": "0x4d",
      "blockHash": "0x26425c0a608a68093ec68a2605c0f74b6f0ebe0bcdad86eb92ad3b810353ccf9",
      "blockNumber": "0x6aff70",
      "gasUsed": "0x5eb3",
      "effectiveGasPrice": "0x113f80809",
      "from": "0xe62ab4d111f968660c6b2188046f9b9ba53c4bae",
      "to": "0xd1f0743c665d80d6bdaf1b4b8c9e82bfd1ae1994",
      "contractAddress": null
    },
    {
      "status": "0x1",
      "cumulativeGasUsed": "0xe99378",
      "logs": [
        {
          "address": "0xd1f0743c665d80d6bdaf1b4b8c9e82bfd1ae1994",
          "topics": [
            "0x1394cfab38f3fc78ed77ea6f9318782a446d96e7dc8e9a6b0149f6be25c08bcf",
            "0x000000000000000000000000a4c104db0937f1e886d5c9c9789d6f0e5bfba75c"
          ],
          "data": "0x",
          "blockHash": "0x531b177f8795bde3ad79a28ac01849ab2eb805d09fda0a6a95f2c4f81b7fe76c",
          "blockNumber": "0x6aff71",
          "transactionHash": "0xa213038aecab93dd89c1773fa96d858a36fe6b506eed8cf5a93ede3e6a70d762",
          "transactionIndex": "0x2e",
          "logIndex": "0x26",
          "removed": false
        }
      ],
      "logsBloom": "0x00000000004000000040000000000000000000000000000000000000000000000000000000000000000000000000000000000000000000000000000000000000000000000000000000000000000000000000001000000000000000000002000000000000000000000000000000000000000000000000000000000000000000000000000100000000000000000000000000000000000000000000000000000000000000000000200000000000000000000000004100000000000000000000000000000000000000000000000000000000000000000000000000000000000000000000000000000000000002000000000000000000000000000000000000000000",
      "type": "0x2",
      "transactionHash": "0xa213038aecab93dd89c1773fa96d858a36fe6b506eed8cf5a93ede3e6a70d762",
      "transactionIndex": "0x2e",
      "blockHash": "0x531b177f8795bde3ad79a28ac01849ab2eb805d09fda0a6a95f2c4f81b7fe76c",
      "blockNumber": "0x6aff71",
      "gasUsed": "0x1be72",
      "effectiveGasPrice": "0x13629c204",
      "from": "0xe62ab4d111f968660c6b2188046f9b9ba53c4bae",
      "to": "0xd1f0743c665d80d6bdaf1b4b8c9e82bfd1ae1994",
      "contractAddress": null
    },
    {
      "status": "0x1",
      "cumulativeGasUsed": "0x63eade",
      "logs": [],
      "logsBloom": "0x00000000000000000000000000000000000000000000000000000000000000000000000000000000000000000000000000000000000000000000000000000000000000000000000000000000000000000000000000000000000000000000000000000000000000000000000000000000000000000000000000000000000000000000000000000000000000000000000000000000000000000000000000000000000000000000000000000000000000000000000000000000000000000000000000000000000000000000000000000000000000000000000000000000000000000000000000000000000000000000000000000000000000000000000000000000",
      "type": "0x2",
      "transactionHash": "0x5947b255226d6544a9d726cb3b142fc6372f2ef48e3e2953ec24e1eb43a3f447",
      "transactionIndex": "0x33",
      "blockHash": "0xb92bab9c2a7018d35995435bb783d99eacfca34eccecb2cd3e9a86474adf6faf",
      "blockNumber": "0x6aff72",
      "gasUsed": "0xbbf9",
      "effectiveGasPrice": "0x13d39f48e",
      "from": "0xe62ab4d111f968660c6b2188046f9b9ba53c4bae",
      "to": "0xd1f0743c665d80d6bdaf1b4b8c9e82bfd1ae1994",
      "contractAddress": null
    },
    {
      "status": "0x1",
      "cumulativeGasUsed": "0x619842",
      "logs": [],
      "logsBloom": "0x00000000000000000000000000000000000000000000000000000000000000000000000000000000000000000000000000000000000000000000000000000000000000000000000000000000000000000000000000000000000000000000000000000000000000000000000000000000000000000000000000000000000000000000000000000000000000000000000000000000000000000000000000000000000000000000000000000000000000000000000000000000000000000000000000000000000000000000000000000000000000000000000000000000000000000000000000000000000000000000000000000000000000000000000000000000",
      "type": "0x2",
      "transactionHash": "0x4e89bd161dbaa8cdade963d17a084d54838cbb8639250fe4bf276b008f9615f8",
      "transactionIndex": "0x2e",
      "blockHash": "0xfd5701c236401f4a6d64afd9faa536f19f601678e04fed7c19931e5f85ddd34d",
      "blockNumber": "0x6aff73",
      "gasUsed": "0xbc1c",
      "effectiveGasPrice": "0x145034a26",
      "from": "0xe62ab4d111f968660c6b2188046f9b9ba53c4bae",
      "to": "0xd1f0743c665d80d6bdaf1b4b8c9e82bfd1ae1994",
      "contractAddress": null
    },
    {
      "status": "0x1",
      "cumulativeGasUsed": "0x44e206",
      "logs": [],
      "logsBloom": "0x00000000000000000000000000000000000000000000000000000000000000000000000000000000000000000000000000000000000000000000000000000000000000000000000000000000000000000000000000000000000000000000000000000000000000000000000000000000000000000000000000000000000000000000000000000000000000000000000000000000000000000000000000000000000000000000000000000000000000000000000000000000000000000000000000000000000000000000000000000000000000000000000000000000000000000000000000000000000000000000000000000000000000000000000000000000",
      "type": "0x2",
      "transactionHash": "0x88c1914005187a49be7fc761f5955ce8357b761adae657b1b2a2a48fa6d15d97",
      "transactionIndex": "0x23",
      "blockHash": "0xeaba547144ecd84e183c55661e462e8e98129451e3a596251d33e96a6684cc5e",
      "blockNumber": "0x6aff74",
      "gasUsed": "0xbc33",
      "effectiveGasPrice": "0x1468ea88c",
      "from": "0xe62ab4d111f968660c6b2188046f9b9ba53c4bae",
      "to": "0xd1f0743c665d80d6bdaf1b4b8c9e82bfd1ae1994",
      "contractAddress": null
    },
    {
      "status": "0x1",
      "cumulativeGasUsed": "0x8a25c9",
      "logs": [],
      "logsBloom": "0x00000000000000000000000000000000000000000000000000000000000000000000000000000000000000000000000000000000000000000000000000000000000000000000000000000000000000000000000000000000000000000000000000000000000000000000000000000000000000000000000000000000000000000000000000000000000000000000000000000000000000000000000000000000000000000000000000000000000000000000000000000000000000000000000000000000000000000000000000000000000000000000000000000000000000000000000000000000000000000000000000000000000000000000000000000000",
      "type": "0x2",
      "transactionHash": "0x39d9c091a0df15db2c6a6f5d388f12766706cdc2ab8d763ca27a2dd3b8830465",
      "transactionIndex": "0x4b",
      "blockHash": "0xc558850bc6533f8171ff1f0e61e97ad0e4aaaad6aa151f1f8c052ccaabab6285",
      "blockNumber": "0x6aff75",
      "gasUsed": "0xbc4a",
      "effectiveGasPrice": "0x13056742d",
      "from": "0xe62ab4d111f968660c6b2188046f9b9ba53c4bae",
      "to": "0xd1f0743c665d80d6bdaf1b4b8c9e82bfd1ae1994",
      "contractAddress": null
    },
    {
      "status": "0x1",
      "cumulativeGasUsed": "0x2b715c",
      "logs": [],
      "logsBloom": "0x00000000000000000000000000000000000000000000000000000000000000000000000000000000000000000000000000000000000000000000000000000000000000000000000000000000000000000000000000000000000000000000000000000000000000000000000000000000000000000000000000000000000000000000000000000000000000000000000000000000000000000000000000000000000000000000000000000000000000000000000000000000000000000000000000000000000000000000000000000000000000000000000000000000000000000000000000000000000000000000000000000000000000000000000000000000",
      "type": "0x2",
      "transactionHash": "0x532120afbe42513c00adacccbdc5e736eee06cc582d17919888863e6e325733d",
      "transactionIndex": "0x37",
      "blockHash": "0x62c59ca499c8cfd993dff01faa18bf1beab1bdbc77525a897386d96b43fbdaa3",
      "blockNumber": "0x6aff76",
      "gasUsed": "0xbc5c",
      "effectiveGasPrice": "0x12a0fb749",
      "from": "0xe62ab4d111f968660c6b2188046f9b9ba53c4bae",
      "to": "0xd1f0743c665d80d6bdaf1b4b8c9e82bfd1ae1994",
      "contractAddress": null
    },
    {
      "status": "0x1",
      "cumulativeGasUsed": "0x6dbeeb",
      "logs": [],
      "logsBloom": "0x00000000000000000000000000000000000000000000000000000000000000000000000000000000000000000000000000000000000000000000000000000000000000000000000000000000000000000000000000000000000000000000000000000000000000000000000000000000000000000000000000000000000000000000000000000000000000000000000000000000000000000000000000000000000000000000000000000000000000000000000000000000000000000000000000000000000000000000000000000000000000000000000000000000000000000000000000000000000000000000000000000000000000000000000000000000",
      "type": "0x2",
      "transactionHash": "0xc60d96a20514237e83183f12db8e3fc7f6768e6fa235ac1a910999ae8400efb5",
      "transactionIndex": "0x4d",
      "blockHash": "0x04ef23ecc446065db8916d29d9ffcf01abd752a8f8c0aa71df30aad7ef318bd1",
      "blockNumber": "0x6aff77",
      "gasUsed": "0x22401",
      "effectiveGasPrice": "0x115b7b6de",
      "from": "0xe62ab4d111f968660c6b2188046f9b9ba53c4bae",
      "to": "0xd1f0743c665d80d6bdaf1b4b8c9e82bfd1ae1994",
      "contractAddress": null
    },
    {
      "status": "0x1",
      "cumulativeGasUsed": "0x6c69f4",
      "logs": [],
      "logsBloom": "0x00000000000000000000000000000000000000000000000000000000000000000000000000000000000000000000000000000000000000000000000000000000000000000000000000000000000000000000000000000000000000000000000000000000000000000000000000000000000000000000000000000000000000000000000000000000000000000000000000000000000000000000000000000000000000000000000000000000000000000000000000000000000000000000000000000000000000000000000000000000000000000000000000000000000000000000000000000000000000000000000000000000000000000000000000000000",
      "type": "0x2",
      "transactionHash": "0xb6343a439eea9f9dc6499df24f7fe25ec0462489172912ad1dd24198c1bb33be",
      "transactionIndex": "0x3f",
      "blockHash": "0x27b8a21af6c293982dc4e7f26756ae9f1344dd5d63f3d8f2ab7e48227b84326b",
      "blockNumber": "0x6aff78",
      "gasUsed": "0x1e781",
      "effectiveGasPrice": "0x10b6e4073",
      "from": "0xe62ab4d111f968660c6b2188046f9b9ba53c4bae",
      "to": "0xd1f0743c665d80d6bdaf1b4b8c9e82bfd1ae1994",
      "contractAddress": null
    },
    {
      "status": "0x1",
      "cumulativeGasUsed": "0xb8aa9f",
      "logs": [],
      "logsBloom": "0x00000000000000000000000000000000000000000000000000000000000000000000000000000000000000000000000000000000000000000000000000000000000000000000000000000000000000000000000000000000000000000000000000000000000000000000000000000000000000000000000000000000000000000000000000000000000000000000000000000000000000000000000000000000000000000000000000000000000000000000000000000000000000000000000000000000000000000000000000000000000000000000000000000000000000000000000000000000000000000000000000000000000000000000000000000000",
      "type": "0x2",
      "transactionHash": "0xc943f84ba6afab9f981732ad63fefe41c7ffb50b13f5500bf6a860ee3a1d4690",
      "transactionIndex": "0x58",
      "blockHash": "0x8b1c7da1a261b741fecd9b0ba27aa7b62c0ff70f06acfa87c513ffa727a53be9",
      "blockNumber": "0x6aff79",
      "gasUsed": "0x1e781",
      "effectiveGasPrice": "0x108d290fb",
      "from": "0xe62ab4d111f968660c6b2188046f9b9ba53c4bae",
      "to": "0xd1f0743c665d80d6bdaf1b4b8c9e82bfd1ae1994",
      "contractAddress": null
    },
    {
      "status": "0x1",
      "cumulativeGasUsed": "0x1127244",
      "logs": [],
      "logsBloom": "0x00000000000000000000000000000000000000000000000000000000000000000000000000000000000000000000000000000000000000000000000000000000000000000000000000000000000000000000000000000000000000000000000000000000000000000000000000000000000000000000000000000000000000000000000000000000000000000000000000000000000000000000000000000000000000000000000000000000000000000000000000000000000000000000000000000000000000000000000000000000000000000000000000000000000000000000000000000000000000000000000000000000000000000000000000000000",
      "type": "0x2",
      "transactionHash": "0x25f7db408b14e28dd6f0b12f87bcf7f8545b9b844869833280255dbf058d788d",
      "transactionIndex": "0x4e",
      "blockHash": "0xfbf287103c1d39e9086d9de8d19bccb1175f9ee8e4dcc83dee8e74ea70a76535",
      "blockNumber": "0x6aff7a",
      "gasUsed": "0x1e2f5",
      "effectiveGasPrice": "0x10523d684",
      "from": "0xe62ab4d111f968660c6b2188046f9b9ba53c4bae",
      "to": "0xd1f0743c665d80d6bdaf1b4b8c9e82bfd1ae1994",
      "contractAddress": null
    },
    {
      "status": "0x1",
      "cumulativeGasUsed": "0xddeb63",
      "logs": [],
      "logsBloom": "0x00000000000000000000000000000000000000000000000000000000000000000000000000000000000000000000000000000000000000000000000000000000000000000000000000000000000000000000000000000000000000000000000000000000000000000000000000000000000000000000000000000000000000000000000000000000000000000000000000000000000000000000000000000000000000000000000000000000000000000000000000000000000000000000000000000000000000000000000000000000000000000000000000000000000000000000000000000000000000000000000000000000000000000000000000000000",
      "type": "0x2",
      "transactionHash": "0x1d1c08261649562993173fdecef027067b5012e9676b65d08564c3aa284da6b5",
      "transactionIndex": "0x2b",
      "blockHash": "0x5aa272dd7025ff3fe082b51b242e3df9f87e1f8302f9d310f3548b8bce7685e5",
      "blockNumber": "0x6aff7b",
      "gasUsed": "0x7ae11",
      "effectiveGasPrice": "0x11c3979bc",
      "from": "0xe62ab4d111f968660c6b2188046f9b9ba53c4bae",
      "to": "0x9266e8bf4943f2b366f2be89688a8622084db8b9",
      "contractAddress": null
    },
    {
      "status": "0x1",
      "cumulativeGasUsed": "0xb34fa4",
      "logs": [],
      "logsBloom": "0x00000000000000000000000000000000000000000000000000000000000000000000000000000000000000000000000000000000000000000000000000000000000000000000000000000000000000000000000000000000000000000000000000000000000000000000000000000000000000000000000000000000000000000000000000000000000000000000000000000000000000000000000000000000000000000000000000000000000000000000000000000000000000000000000000000000000000000000000000000000000000000000000000000000000000000000000000000000000000000000000000000000000000000000000000000000",
      "type": "0x2",
      "transactionHash": "0x3ec652330fc6534e0e627b0e51f1c69fffdc253b8c0e6128d0d187abb826de80",
      "transactionIndex": "0x2c",
      "blockHash": "0xd2e1ee06e519d2e2c77cca55b955010125ebb58f1652e5f6f55db4f630da859e",
      "blockNumber": "0x6aff7c",
      "gasUsed": "0x9b885",
      "effectiveGasPrice": "0x12268830f",
      "from": "0xe62ab4d111f968660c6b2188046f9b9ba53c4bae",
      "to": "0x9266e8bf4943f2b366f2be89688a8622084db8b9",
      "contractAddress": null
    },
    {
      "status": "0x1",
      "cumulativeGasUsed": "0x48ca32",
      "logs": [],
      "logsBloom": "0x00000000000000000000000000000000000000000000000000000000000000000000000000000000000000000000000000000000000000000000000000000000000000000000000000000000000000000000000000000000000000000000000000000000000000000000000000000000000000000000000000000000000000000000000000000000000000000000000000000000000000000000000000000000000000000000000000000000000000000000000000000000000000000000000000000000000000000000000000000000000000000000000000000000000000000000000000000000000000000000000000000000000000000000000000000000",
      "type": "0x2",
      "transactionHash": "0x26a3d3a3c8dc051f226cd61dfa18dc3486c837fdcdab99f8e2af9859a4f5040e",
      "transactionIndex": "0x33",
      "blockHash": "0xa9dff89e31d6776af32ab5010880bb09fb066a88dcf5b0cb2fb473208e814a7d",
      "blockNumber": "0x6aff7d",
      "gasUsed": "0x9b86f",
      "effectiveGasPrice": "0x12babe085",
      "from": "0xe62ab4d111f968660c6b2188046f9b9ba53c4bae",
      "to": "0x9266e8bf4943f2b366f2be89688a8622084db8b9",
      "contractAddress": null
    }
  ],
  "libraries": [],
  "pending": [],
  "returns": {},
  "timestamp": 1730750382,
  "chain": 11155111,
  "commit": "34a11392"
}