{
  "transactions": [
    {
      "hash": "0x1a9af8ddcef9b7cfb78e86f610aa41d80c0c3b5c89335452cc1a928b11339ef7",
      "transactionType": "CALL",
      "contractName": "FeeManager",
      "contractAddress": "0xc04058e417de221448d4140fc1622de24121c5e3",
      "function": "getFeeTokenList()",
      "arguments": [],
      "transaction": {
        "from": "0xe62ab4d111f968660c6b2188046f9b9ba53c4bae",
        "to": "0xc04058e417de221448d4140fc1622de24121c5e3",
        "gas": "0x8a7e",
        "value": "0x0",
        "input": "0xe28ab277",
        "nonce": "0x1c5",
        "chainId": "0xaa36a7"
      },
      "additionalContracts": [],
      "isFixedGasLimit": false
    },
    {
      "hash": "0xf0523fbaccb2303112b44f18f09c642c65ea36ca9b7b240b6740193da7065ac1",
      "transactionType": "CALL",
      "contractName": "FeeManager",
      "contractAddress": "0xc04058e417de221448d4140fc1622de24121c5e3",
      "function": "addFeeToken(string)",
      "arguments": [
        "0xa4c104db0937f1e886d5c9c9789d6f0e5bfba75c"
      ],
      "transaction": {
        "from": "0xe62ab4d111f968660c6b2188046f9b9ba53c4bae",
        "to": "0xc04058e417de221448d4140fc1622de24121c5e3",
        "gas": "0x28cec",
        "value": "0x0",
        "input": "0x12a6385f0000000000000000000000000000000000000000000000000000000000000020000000000000000000000000000000000000000000000000000000000000002a30786134633130346462303933376631653838366435633963393738396436663065356266626137356300000000000000000000000000000000000000000000",
        "nonce": "0x1c6",
        "chainId": "0xaa36a7"
      },
      "additionalContracts": [],
      "isFixedGasLimit": false
    },
    {
      "hash": "0x45df4d5cfcc59f625d71cfe51544108627e81d9d00e48a01cda4965aeacfd931",
      "transactionType": "CALL",
      "contractName": "FeeManager",
      "contractAddress": "0xc04058e417de221448d4140fc1622de24121c5e3",
      "function": "setFeeMultiplier(uint8,uint256)",
      "arguments": [
        "0",
        "2"
      ],
      "transaction": {
        "from": "0xe62ab4d111f968660c6b2188046f9b9ba53c4bae",
        "to": "0xc04058e417de221448d4140fc1622de24121c5e3",
        "gas": "0x112e8",
        "value": "0x0",
        "input": "0x0ee24eb500000000000000000000000000000000000000000000000000000000000000000000000000000000000000000000000000000000000000000000000000000002",
        "nonce": "0x1c7",
        "chainId": "0xaa36a7"
      },
      "additionalContracts": [],
      "isFixedGasLimit": false
    },
    {
      "hash": "0x184341303bf921ed16789add549296f11e61bb4ccb3969aa6d120adf0ce62de2",
      "transactionType": "CALL",
      "contractName": "FeeManager",
      "contractAddress": "0xc04058e417de221448d4140fc1622de24121c5e3",
      "function": "setFeeMultiplier(uint8,uint256)",
      "arguments": [
        "1",
        "10"
      ],
      "transaction": {
        "from": "0xe62ab4d111f968660c6b2188046f9b9ba53c4bae",
        "to": "0xc04058e417de221448d4140fc1622de24121c5e3",
        "gas": "0x11324",
        "value": "0x0",
        "input": "0x0ee24eb50000000000000000000000000000000000000000000000000000000000000001000000000000000000000000000000000000000000000000000000000000000a",
        "nonce": "0x1c8",
        "chainId": "0xaa36a7"
      },
      "additionalContracts": [],
      "isFixedGasLimit": false
    },
    {
      "hash": "0xdcfb7da44006b04a86c70081f4f6000cb3429d7a3db6dc2372c6e6cc910bf8e4",
      "transactionType": "CALL",
      "contractName": "FeeManager",
      "contractAddress": "0xc04058e417de221448d4140fc1622de24121c5e3",
      "function": "setFeeMultiplier(uint8,uint256)",
      "arguments": [
        "2",
        "1"
      ],
      "transaction": {
        "from": "0xe62ab4d111f968660c6b2188046f9b9ba53c4bae",
        "to": "0xc04058e417de221448d4140fc1622de24121c5e3",
        "gas": "0x11346",
        "value": "0x0",
        "input": "0x0ee24eb500000000000000000000000000000000000000000000000000000000000000020000000000000000000000000000000000000000000000000000000000000001",
        "nonce": "0x1c9",
        "chainId": "0xaa36a7"
      },
      "additionalContracts": [],
      "isFixedGasLimit": false
    },
    {
      "hash": "0xd297e32b9089811cff6a4191ab6d07a3d4fbe718c5621a13da0644bf2e698f23",
      "transactionType": "CALL",
      "contractName": "FeeManager",
      "contractAddress": "0xc04058e417de221448d4140fc1622de24121c5e3",
      "function": "setFeeMultiplier(uint8,uint256)",
      "arguments": [
        "3",
        "4"
      ],
      "transaction": {
        "from": "0xe62ab4d111f968660c6b2188046f9b9ba53c4bae",
        "to": "0xc04058e417de221448d4140fc1622de24121c5e3",
        "gas": "0x1041b",
        "value": "0x0",
        "input": "0x0ee24eb500000000000000000000000000000000000000000000000000000000000000030000000000000000000000000000000000000000000000000000000000000004",
        "nonce": "0x1ca",
        "chainId": "0xaa36a7"
      },
      "additionalContracts": [],
      "isFixedGasLimit": false
    },
    {
      "hash": "0x65d4878707a456d6d3aca597269cbe547c3c999cf5ce3248144dfb18cbab2668",
      "transactionType": "CALL",
      "contractName": "FeeManager",
      "contractAddress": "0xc04058e417de221448d4140fc1622de24121c5e3",
      "function": "setFeeMultiplier(uint8,uint256)",
      "arguments": [
        "4",
        "4"
      ],
      "transaction": {
        "from": "0xe62ab4d111f968660c6b2188046f9b9ba53c4bae",
        "to": "0xc04058e417de221448d4140fc1622de24121c5e3",
        "gas": "0x1043a",
        "value": "0x0",
        "input": "0x0ee24eb500000000000000000000000000000000000000000000000000000000000000040000000000000000000000000000000000000000000000000000000000000004",
        "nonce": "0x1cb",
        "chainId": "0xaa36a7"
      },
      "additionalContracts": [],
      "isFixedGasLimit": false
    },
    {
      "hash": "0x44598d9d0a313e84ba1f3fa0e9e5d7ae35fc8229f4120b0d3d662938adac6aae",
      "transactionType": "CALL",
      "contractName": "FeeManager",
      "contractAddress": "0xc04058e417de221448d4140fc1622de24121c5e3",
      "function": "setFeeMultiplier(uint8,uint256)",
      "arguments": [
        "5",
        "4"
      ],
      "transaction": {
        "from": "0xe62ab4d111f968660c6b2188046f9b9ba53c4bae",
        "to": "0xc04058e417de221448d4140fc1622de24121c5e3",
        "gas": "0x10459",
        "value": "0x0",
        "input": "0x0ee24eb500000000000000000000000000000000000000000000000000000000000000050000000000000000000000000000000000000000000000000000000000000004",
        "nonce": "0x1cc",
        "chainId": "0xaa36a7"
      },
      "additionalContracts": [],
      "isFixedGasLimit": false
    },
    {
      "hash": "0x3a1103e8583081d13b3ede892e8837eb43c82988a6ff128c9ed1238cb3ae2307",
      "transactionType": "CALL",
      "contractName": "FeeManager",
      "contractAddress": "0xc04058e417de221448d4140fc1622de24121c5e3",
      "function": "setFeeMultiplier(uint8,uint256)",
      "arguments": [
        "6",
        "8"
      ],
      "transaction": {
        "from": "0xe62ab4d111f968660c6b2188046f9b9ba53c4bae",
        "to": "0xc04058e417de221448d4140fc1622de24121c5e3",
        "gas": "0x1047a",
        "value": "0x0",
        "input": "0x0ee24eb500000000000000000000000000000000000000000000000000000000000000060000000000000000000000000000000000000000000000000000000000000008",
        "nonce": "0x1cd",
        "chainId": "0xaa36a7"
      },
      "additionalContracts": [],
      "isFixedGasLimit": false
    },
    {
      "hash": "0xbe91e4efcda705c0a9286bb250fbbbef27700f47bc89936d6b6e2bfde3804afd",
      "transactionType": "CALL",
      "contractName": "FeeManager",
      "contractAddress": "0xc04058e417de221448d4140fc1622de24121c5e3",
      "function": "setFeeMultiplier(uint8,uint256)",
      "arguments": [
        "7",
        "4"
      ],
      "transaction": {
        "from": "0xe62ab4d111f968660c6b2188046f9b9ba53c4bae",
        "to": "0xc04058e417de221448d4140fc1622de24121c5e3",
        "gas": "0x10499",
        "value": "0x0",
        "input": "0x0ee24eb500000000000000000000000000000000000000000000000000000000000000070000000000000000000000000000000000000000000000000000000000000004",
        "nonce": "0x1ce",
        "chainId": "0xaa36a7"
      },
      "additionalContracts": [],
      "isFixedGasLimit": false
    },
    {
      "hash": "0x0a93ee9e9377b811ad308f8138881548827ec2ae4c36951fdf8624207c11378e",
      "transactionType": "CALL",
      "contractName": "FeeManager",
      "contractAddress": "0xc04058e417de221448d4140fc1622de24121c5e3",
      "function": "setFeeMultiplier(uint8,uint256)",
      "arguments": [
        "8",
        "10"
      ],
      "transaction": {
        "from": "0xe62ab4d111f968660c6b2188046f9b9ba53c4bae",
        "to": "0xc04058e417de221448d4140fc1622de24121c5e3",
        "gas": "0x1140f",
        "value": "0x0",
        "input": "0x0ee24eb50000000000000000000000000000000000000000000000000000000000000008000000000000000000000000000000000000000000000000000000000000000a",
        "nonce": "0x1cf",
        "chainId": "0xaa36a7"
      },
      "additionalContracts": [],
      "isFixedGasLimit": false
    },
    {
      "hash": "0xda7ae87d5e75759cb99c4f3e7b21346d56d9fe90dc1ffd5f990775b3724894df",
      "transactionType": "CALL",
      "contractName": "FeeManager",
      "contractAddress": "0xc04058e417de221448d4140fc1622de24121c5e3",
      "function": "setFeeMultiplier(uint8,uint256)",
      "arguments": [
        "9",
        "8"
      ],
      "transaction": {
        "from": "0xe62ab4d111f968660c6b2188046f9b9ba53c4bae",
        "to": "0xc04058e417de221448d4140fc1622de24121c5e3",
        "gas": "0x11431",
        "value": "0x0",
        "input": "0x0ee24eb500000000000000000000000000000000000000000000000000000000000000090000000000000000000000000000000000000000000000000000000000000008",
        "nonce": "0x1d0",
        "chainId": "0xaa36a7"
      },
      "additionalContracts": [],
      "isFixedGasLimit": false
    },
    {
      "hash": "0x72d275571180a3155eeb10f4da2929e6a86b8385d8cf089881a13170a78a6a52",
      "transactionType": "CALL",
      "contractName": "FeeManager",
      "contractAddress": "0xc04058e417de221448d4140fc1622de24121c5e3",
      "function": "setFeeMultiplier(uint8,uint256)",
      "arguments": [
        "10",
        "8"
      ],
      "transaction": {
        "from": "0xe62ab4d111f968660c6b2188046f9b9ba53c4bae",
        "to": "0xc04058e417de221448d4140fc1622de24121c5e3",
        "gas": "0x11453",
        "value": "0x0",
        "input": "0x0ee24eb5000000000000000000000000000000000000000000000000000000000000000a0000000000000000000000000000000000000000000000000000000000000008",
        "nonce": "0x1d1",
        "chainId": "0xaa36a7"
      },
      "additionalContracts": [],
      "isFixedGasLimit": false
    },
    {
      "hash": "0x3c2a2f603d3ba9d5a3ef56f7dce206764450e139b643f944e196f18970fa227f",
      "transactionType": "CALL",
      "contractName": "FeeManager",
      "contractAddress": "0xc04058e417de221448d4140fc1622de24121c5e3",
      "function": "setFeeMultiplier(uint8,uint256)",
      "arguments": [
        "11",
        "8"
      ],
      "transaction": {
        "from": "0xe62ab4d111f968660c6b2188046f9b9ba53c4bae",
        "to": "0xc04058e417de221448d4140fc1622de24121c5e3",
        "gas": "0x10518",
        "value": "0x0",
        "input": "0x0ee24eb5000000000000000000000000000000000000000000000000000000000000000b0000000000000000000000000000000000000000000000000000000000000008",
        "nonce": "0x1d2",
        "chainId": "0xaa36a7"
      },
      "additionalContracts": [],
      "isFixedGasLimit": false
    },
    {
      "hash": "0x4017ee8860485c246a86dc7ca5f1184c27e3f3aa732097934757a86c19e19bab",
      "transactionType": "CALL",
      "contractName": "FeeManager",
      "contractAddress": "0xc04058e417de221448d4140fc1622de24121c5e3",
      "function": "setFeeMultiplier(uint8,uint256)",
      "arguments": [
        "12",
        "20"
      ],
      "transaction": {
        "from": "0xe62ab4d111f968660c6b2188046f9b9ba53c4bae",
        "to": "0xc04058e417de221448d4140fc1622de24121c5e3",
        "gas": "0x10538",
        "value": "0x0",
        "input": "0x0ee24eb5000000000000000000000000000000000000000000000000000000000000000c0000000000000000000000000000000000000000000000000000000000000014",
        "nonce": "0x1d3",
        "chainId": "0xaa36a7"
      },
      "additionalContracts": [],
      "isFixedGasLimit": false
    },
    {
      "hash": "0x5d2395f302232fce25905a261f4fd04bf173a3b19dcd66eb13e2b0537b808d8e",
      "transactionType": "CALL",
      "contractName": "FeeManager",
      "contractAddress": "0xc04058e417de221448d4140fc1622de24121c5e3",
      "function": "setFeeMultiplier(uint8,uint256)",
      "arguments": [
        "13",
        "8"
      ],
      "transaction": {
        "from": "0xe62ab4d111f968660c6b2188046f9b9ba53c4bae",
        "to": "0xc04058e417de221448d4140fc1622de24121c5e3",
        "gas": "0x10558",
        "value": "0x0",
        "input": "0x0ee24eb5000000000000000000000000000000000000000000000000000000000000000d0000000000000000000000000000000000000000000000000000000000000008",
        "nonce": "0x1d4",
        "chainId": "0xaa36a7"
      },
      "additionalContracts": [],
      "isFixedGasLimit": false
    },
    {
      "hash": "0x17408004a433a5db587d70d635004cf79bd1cc2eb38d98f7873aa875dfb51d3a",
      "transactionType": "CALL",
      "contractName": "FeeManager",
      "contractAddress": "0xc04058e417de221448d4140fc1622de24121c5e3",
      "function": "setFeeMultiplier(uint8,uint256)",
      "arguments": [
        "14",
        "4"
      ],
      "transaction": {
        "from": "0xe62ab4d111f968660c6b2188046f9b9ba53c4bae",
        "to": "0xc04058e417de221448d4140fc1622de24121c5e3",
        "gas": "0x10577",
        "value": "0x0",
        "input": "0x0ee24eb5000000000000000000000000000000000000000000000000000000000000000e0000000000000000000000000000000000000000000000000000000000000004",
        "nonce": "0x1d5",
        "chainId": "0xaa36a7"
      },
      "additionalContracts": [],
      "isFixedGasLimit": false
    },
    {
      "hash": "0x9067e8f5ca3f6a3fb8e5ce65c8753d622f84a7110c8679fd426d4b1b254d0b09",
      "transactionType": "CALL",
      "contractName": "FeeManager",
      "contractAddress": "0xc04058e417de221448d4140fc1622de24121c5e3",
      "function": "setFeeMultiplier(uint8,uint256)",
      "arguments": [
        "15",
        "4"
      ],
      "transaction": {
        "from": "0xe62ab4d111f968660c6b2188046f9b9ba53c4bae",
        "to": "0xc04058e417de221448d4140fc1622de24121c5e3",
        "gas": "0x10598",
        "value": "0x0",
        "input": "0x0ee24eb5000000000000000000000000000000000000000000000000000000000000000f0000000000000000000000000000000000000000000000000000000000000004",
        "nonce": "0x1d6",
        "chainId": "0xaa36a7"
      },
      "additionalContracts": [],
      "isFixedGasLimit": false
    },
    {
      "hash": "0x310fcf3fd1b3f6f19e05dffc82e3153d90aa43b6dcc8fe4b83a5bbfcef7d4df6",
      "transactionType": "CALL",
      "contractName": "FeeManager",
      "contractAddress": "0xc04058e417de221448d4140fc1622de24121c5e3",
      "function": "setFeeMultiplier(uint8,uint256)",
      "arguments": [
        "16",
        "4"
      ],
      "transaction": {
        "from": "0xe62ab4d111f968660c6b2188046f9b9ba53c4bae",
        "to": "0xc04058e417de221448d4140fc1622de24121c5e3",
        "gas": "0x1151d",
        "value": "0x0",
        "input": "0x0ee24eb500000000000000000000000000000000000000000000000000000000000000100000000000000000000000000000000000000000000000000000000000000004",
        "nonce": "0x1d7",
        "chainId": "0xaa36a7"
      },
      "additionalContracts": [],
      "isFixedGasLimit": false
    },
    {
      "hash": "0x5382b8b61cda0b9655eaf44753c89aa272425c44d0bf330108aef24309b7bb33",
      "transactionType": "CALL",
      "contractName": "FeeManager",
      "contractAddress": "0xc04058e417de221448d4140fc1622de24121c5e3",
      "function": "setFeeMultiplier(uint8,uint256)",
      "arguments": [
        "17",
        "4"
      ],
      "transaction": {
        "from": "0xe62ab4d111f968660c6b2188046f9b9ba53c4bae",
        "to": "0xc04058e417de221448d4140fc1622de24121c5e3",
        "gas": "0x1153e",
        "value": "0x0",
        "input": "0x0ee24eb500000000000000000000000000000000000000000000000000000000000000110000000000000000000000000000000000000000000000000000000000000004",
        "nonce": "0x1d8",
        "chainId": "0xaa36a7"
      },
      "additionalContracts": [],
      "isFixedGasLimit": false
    },
    {
      "hash": "0x17f9504918f43dd9817c3fa7a30035ea5c6f0f5103fbfbc035a81f7d0e7b6751",
      "transactionType": "CALL",
      "contractName": "FeeManager",
      "contractAddress": "0xc04058e417de221448d4140fc1622de24121c5e3",
      "function": "setFeeMultiplier(uint8,uint256)",
      "arguments": [
        "18",
        "2"
      ],
      "transaction": {
        "from": "0xe62ab4d111f968660c6b2188046f9b9ba53c4bae",
        "to": "0xc04058e417de221448d4140fc1622de24121c5e3",
        "gas": "0x11560",
        "value": "0x0",
        "input": "0x0ee24eb500000000000000000000000000000000000000000000000000000000000000120000000000000000000000000000000000000000000000000000000000000002",
        "nonce": "0x1d9",
        "chainId": "0xaa36a7"
      },
      "additionalContracts": [],
      "isFixedGasLimit": false
    },
    {
      "hash": "0x664da8187c65062d84e9ef9f18bf34de9d5e5ddd448fe21980b5ec5ba697b360",
      "transactionType": "CALL",
      "contractName": "FeeManager",
      "contractAddress": "0xc04058e417de221448d4140fc1622de24121c5e3",
      "function": "setFeeMultiplier(uint8,uint256)",
      "arguments": [
        "19",
        "2"
      ],
      "transaction": {
        "from": "0xe62ab4d111f968660c6b2188046f9b9ba53c4bae",
        "to": "0xc04058e417de221448d4140fc1622de24121c5e3",
        "gas": "0x1157a",
        "value": "0x0",
        "input": "0x0ee24eb500000000000000000000000000000000000000000000000000000000000000130000000000000000000000000000000000000000000000000000000000000002",
        "nonce": "0x1da",
        "chainId": "0xaa36a7"
      },
      "additionalContracts": [],
      "isFixedGasLimit": false
    },
    {
      "hash": "0xd0812aa3d6ce0c4b954cab9b5f5b8699249bd42e240ad49ccc45d161c5808f93",
      "transactionType": "CALL",
      "contractName": "FeeManager",
      "contractAddress": "0xc04058e417de221448d4140fc1622de24121c5e3",
      "function": "addFeeToken(string,string[],uint256[])",
      "arguments": [
        "421614",
        "[0xa4c104db0937f1e886d5c9c9789d6f0e5bfba75c]",
        "[100]"
      ],
      "transaction": {
        "from": "0xe62ab4d111f968660c6b2188046f9b9ba53c4bae",
        "to": "0xc04058e417de221448d4140fc1622de24121c5e3",
        "gas": "0x2f4dd",
        "value": "0x0",
        "input": "0x437bf84f000000000000000000000000000000000000000000000000000000000000006000000000000000000000000000000000000000000000000000000000000000a000000000000000000000000000000000000000000000000000000000000001400000000000000000000000000000000000000000000000000000000000000006343231363134000000000000000000000000000000000000000000000000000000000000000000000000000000000000000000000000000000000000000000010000000000000000000000000000000000000000000000000000000000000020000000000000000000000000000000000000000000000000000000000000002a3078613463313034646230393337663165383836643563396339373839643666306535626662613735630000000000000000000000000000000000000000000000000000000000000000000000000000000000000000000000000000000000010000000000000000000000000000000000000000000000000000000000000064",
        "nonce": "0x1db",
        "chainId": "0xaa36a7"
      },
      "additionalContracts": [],
      "isFixedGasLimit": false
    },
    {
      "hash": "0x818417d093089d2002445e6e3cb9cce1c27ac56c461b44aed00aa8cfcb1d8034",
      "transactionType": "CALL",
      "contractName": "FeeManager",
      "contractAddress": "0xc04058e417de221448d4140fc1622de24121c5e3",
      "function": "addFeeToken(string,string[],uint256[])",
      "arguments": [
        "80002",
        "[0xa4c104db0937f1e886d5c9c9789d6f0e5bfba75c]",
        "[100]"
      ],
      "transaction": {
        "from": "0xe62ab4d111f968660c6b2188046f9b9ba53c4bae",
        "to": "0xc04058e417de221448d4140fc1622de24121c5e3",
        "gas": "0x2a14c",
        "value": "0x0",
        "input": "0x437bf84f000000000000000000000000000000000000000000000000000000000000006000000000000000000000000000000000000000000000000000000000000000a000000000000000000000000000000000000000000000000000000000000001400000000000000000000000000000000000000000000000000000000000000005383030303200000000000000000000000000000000000000000000000000000000000000000000000000000000000000000000000000000000000000000000010000000000000000000000000000000000000000000000000000000000000020000000000000000000000000000000000000000000000000000000000000002a3078613463313034646230393337663165383836643563396339373839643666306535626662613735630000000000000000000000000000000000000000000000000000000000000000000000000000000000000000000000000000000000010000000000000000000000000000000000000000000000000000000000000064",
        "nonce": "0x1dc",
        "chainId": "0xaa36a7"
      },
      "additionalContracts": [],
      "isFixedGasLimit": false
    },
    {
      "hash": "0x813fbf28cad9d3489fb94071debe1aad797cf82469cdf97907e53f735ecb9528",
      "transactionType": "CALL",
      "contractName": "FeeManager",
      "contractAddress": "0xc04058e417de221448d4140fc1622de24121c5e3",
      "function": "addFeeToken(string,string[],uint256[])",
      "arguments": [
        "84532",
        "[0xa4c104db0937f1e886d5c9c9789d6f0e5bfba75c]",
        "[100]"
      ],
      "transaction": {
        "from": "0xe62ab4d111f968660c6b2188046f9b9ba53c4bae",
        "to": "0xc04058e417de221448d4140fc1622de24121c5e3",
        "gas": "0x2a14c",
        "value": "0x0",
        "input": "0x437bf84f000000000000000000000000000000000000000000000000000000000000006000000000000000000000000000000000000000000000000000000000000000a000000000000000000000000000000000000000000000000000000000000001400000000000000000000000000000000000000000000000000000000000000005383435333200000000000000000000000000000000000000000000000000000000000000000000000000000000000000000000000000000000000000000000010000000000000000000000000000000000000000000000000000000000000020000000000000000000000000000000000000000000000000000000000000002a3078613463313034646230393337663165383836643563396339373839643666306535626662613735630000000000000000000000000000000000000000000000000000000000000000000000000000000000000000000000000000000000010000000000000000000000000000000000000000000000000000000000000064",
        "nonce": "0x1dd",
        "chainId": "0xaa36a7"
      },
      "additionalContracts": [],
      "isFixedGasLimit": false
    },
    {
      "hash": "0xf635d073018186ee1e42fc31ad6209f2b96380f89453a918b5d3ab18d032f8c4",
      "transactionType": "CALL",
      "contractName": "FeeManager",
      "contractAddress": "0xc04058e417de221448d4140fc1622de24121c5e3",
      "function": "addFeeToken(string,string[],uint256[])",
      "arguments": [
        "97",
        "[0xa4c104db0937f1e886d5c9c9789d6f0e5bfba75c]",
        "[100]"
      ],
      "transaction": {
        "from": "0xe62ab4d111f968660c6b2188046f9b9ba53c4bae",
        "to": "0xc04058e417de221448d4140fc1622de24121c5e3",
        "gas": "0x2c241",
        "value": "0x0",
        "input": "0x437bf84f000000000000000000000000000000000000000000000000000000000000006000000000000000000000000000000000000000000000000000000000000000a000000000000000000000000000000000000000000000000000000000000001400000000000000000000000000000000000000000000000000000000000000002393700000000000000000000000000000000000000000000000000000000000000000000000000000000000000000000000000000000000000000000000000010000000000000000000000000000000000000000000000000000000000000020000000000000000000000000000000000000000000000000000000000000002a3078613463313034646230393337663165383836643563396339373839643666306535626662613735630000000000000000000000000000000000000000000000000000000000000000000000000000000000000000000000000000000000010000000000000000000000000000000000000000000000000000000000000064",
        "nonce": "0x1de",
        "chainId": "0xaa36a7"
      },
      "additionalContracts": [],
      "isFixedGasLimit": false
    },
    {
      "hash": "0x7bd871a6dce5cc434b84d28055dac57ff2567902e3b8652ec81247b746e899dc",
      "transactionType": "CALL",
      "contractName": "FeeManager",
      "contractAddress": "0xc04058e417de221448d4140fc1622de24121c5e3",
      "function": "addFeeToken(string,string[],uint256[])",
      "arguments": [
        "11155111",
        "[0xa4c104db0937f1e886d5c9c9789d6f0e5bfba75c]",
        "[100]"
      ],
      "transaction": {
        "from": "0xe62ab4d111f968660c6b2188046f9b9ba53c4bae",
        "to": "0xc04058e417de221448d4140fc1622de24121c5e3",
        "gas": "0x2cf8e",
        "value": "0x0",
        "input": "0x437bf84f000000000000000000000000000000000000000000000000000000000000006000000000000000000000000000000000000000000000000000000000000000a000000000000000000000000000000000000000000000000000000000000001400000000000000000000000000000000000000000000000000000000000000008313131353531313100000000000000000000000000000000000000000000000000000000000000000000000000000000000000000000000000000000000000010000000000000000000000000000000000000000000000000000000000000020000000000000000000000000000000000000000000000000000000000000002a3078613463313034646230393337663165383836643563396339373839643666306535626662613735630000000000000000000000000000000000000000000000000000000000000000000000000000000000000000000000000000000000010000000000000000000000000000000000000000000000000000000000000064",
        "nonce": "0x1df",
        "chainId": "0xaa36a7"
      },
      "additionalContracts": [],
      "isFixedGasLimit": false
    },
    {
      "hash": "0x3183ecd47fe8555241316b2378e9c770f47e84032d206a066d8a8269d0761d64",
      "transactionType": "CALL",
      "contractName": "CTMRWAGateway",
      "contractAddress": "0xb406b937c12e03d676727fc1bb686279eedbc178",
      "function": "addChainContract(string[],string[])",
      "arguments": [
        "[421614, 80002, 84532, 97]",
        "[0x67fd0c58bd8b925a3d3546ecc505653514b64013, 0x89330be16c672d4378b6731a8347d23b0c611de3, 0x3561aa249d1262a912764770bb8c387a7bbb56b6, 0x7240fcdb0dd116293044ed50db499680aa532eeb]"
      ],
      "transaction": {
        "from": "0xe62ab4d111f968660c6b2188046f9b9ba53c4bae",
        "to": "0xb406b937c12e03d676727fc1bb686279eedbc178",
        "gas": "0xa99ec",
        "value": "0x0",
        "input": "0x013fd3bd000000000000000000000000000000000000000000000000000000000000004000000000000000000000000000000000000000000000000000000000000001e00000000000000000000000000000000000000000000000000000000000000004000000000000000000000000000000000000000000000000000000000000008000000000000000000000000000000000000000000000000000000000000000c000000000000000000000000000000000000000000000000000000000000001000000000000000000000000000000000000000000000000000000000000000140000000000000000000000000000000000000000000000000000000000000000634323136313400000000000000000000000000000000000000000000000000000000000000000000000000000000000000000000000000000000000000000005383030303200000000000000000000000000000000000000000000000000000000000000000000000000000000000000000000000000000000000000000000053834353332000000000000000000000000000000000000000000000000000000000000000000000000000000000000000000000000000000000000000000000239370000000000000000000000000000000000000000000000000000000000000000000000000000000000000000000000000000000000000000000000000004000000000000000000000000000000000000000000000000000000000000008000000000000000000000000000000000000000000000000000000000000000e0000000000000000000000000000000000000000000000000000000000000014000000000000000000000000000000000000000000000000000000000000001a0000000000000000000000000000000000000000000000000000000000000002a30783637666430633538626438623932356133643335343665636335303536353335313462363430313300000000000000000000000000000000000000000000000000000000000000000000000000000000000000000000000000000000002a30783839333330626531366336373264343337386236373331613833343764323362306336313164653300000000000000000000000000000000000000000000000000000000000000000000000000000000000000000000000000000000002a30783335363161613234396431323632613931323736343737306262386333383761376262623536623600000000000000000000000000000000000000000000000000000000000000000000000000000000000000000000000000000000002a30783732343066636462306464313136323933303434656435306462343939363830616135333265656200000000000000000000000000000000000000000000",
        "nonce": "0x1e0",
        "chainId": "0xaa36a7"
      },
      "additionalContracts": [],
      "isFixedGasLimit": false
    },
    {
      "hash": "0x1245b649495e3343d02c82cf4a68fd7ff02ab3c9169d436aa55dda6d5edecb67",
      "transactionType": "CALL",
      "contractName": "CTMRWAGateway",
      "contractAddress": "0xb406b937c12e03d676727fc1bb686279eedbc178",
      "function": "attachRWAX(uint256,uint256,string[],string[])",
      "arguments": [
        "1",
        "1",
        "[11155111, 421614, 80002, 84532, 97]",
        "[0xd455bb0f664ac8241b505729c3116f1acc441be4, 0xa8f94374facdf9413407fd10af8954e20e299c5d, 0xb4317dba65486889643585a8d96c8d1990971cad, 0x410871e12756f751974379d56319ae5d34bb3eb5, 0x636d43798340603707c936c1a93597dc44effbee]"
      ],
      "transaction": {
        "from": "0xe62ab4d111f968660c6b2188046f9b9ba53c4bae",
        "to": "0xb406b937c12e03d676727fc1bb686279eedbc178",
        "gas": "0x105146",
        "value": "0x0",
        "input": "0x33a5f5b40000000000000000000000000000000000000000000000000000000000000001000000000000000000000000000000000000000000000000000000000000000100000000000000000000000000000000000000000000000000000000000000800000000000000000000000000000000000000000000000000000000000000280000000000000000000000000000000000000000000000000000000000000000500000000000000000000000000000000000000000000000000000000000000a000000000000000000000000000000000000000000000000000000000000000e00000000000000000000000000000000000000000000000000000000000000120000000000000000000000000000000000000000000000000000000000000016000000000000000000000000000000000000000000000000000000000000001a00000000000000000000000000000000000000000000000000000000000000008313131353531313100000000000000000000000000000000000000000000000000000000000000000000000000000000000000000000000000000000000000063432313631340000000000000000000000000000000000000000000000000000000000000000000000000000000000000000000000000000000000000000000538303030320000000000000000000000000000000000000000000000000000000000000000000000000000000000000000000000000000000000000000000005383435333200000000000000000000000000000000000000000000000000000000000000000000000000000000000000000000000000000000000000000000023937000000000000000000000000000000000000000000000000000000000000000000000000000000000000000000000000000000000000000000000000000500000000000000000000000000000000000000000000000000000000000000a00000000000000000000000000000000000000000000000000000000000000100000000000000000000000000000000000000000000000000000000000000016000000000000000000000000000000000000000000000000000000000000001c00000000000000000000000000000000000000000000000000000000000000220000000000000000000000000000000000000000000000000000000000000002a30786434353562623066363634616338323431623530353732396333313136663161636334343162653400000000000000000000000000000000000000000000000000000000000000000000000000000000000000000000000000000000002a30786138663934333734666163646639343133343037666431306166383935346532306532393963356400000000000000000000000000000000000000000000000000000000000000000000000000000000000000000000000000000000002a30786234333137646261363534383638383936343335383561386439366338643139393039373163616400000000000000000000000000000000000000000000000000000000000000000000000000000000000000000000000000000000002a30783431303837316531323735366637353139373433373964353633313961653564333462623365623500000000000000000000000000000000000000000000000000000000000000000000000000000000000000000000000000000000002a30783633366434333739383334303630333730376339333663316139333539376463343465666662656500000000000000000000000000000000000000000000",
        "nonce": "0x1e1",
        "chainId": "0xaa36a7"
      },
      "additionalContracts": [],
      "isFixedGasLimit": false
    },
    {
      "hash": "0x3a0d4b3064e21bbcee2d5b36a30ed03138c8d46fcf60f745c15c01cabc95152c",
      "transactionType": "CALL",
      "contractName": "CTMRWAGateway",
      "contractAddress": "0xb406b937c12e03d676727fc1bb686279eedbc178",
      "function": "attachStorageManager(uint256,uint256,string[],string[])",
      "arguments": [
        "1",
        "1",
        "[11155111, 421614, 80002, 84532, 97]",
        "[0xad77409a722056b0d41b5ce2f03a6b7a2b18e3ed, 0xe38f40efc472aae401ba1edf37edd98ba43f5266, 0x10a04ad4a73c8bb00ee5a29b27d11eee85390306, 0xa3d476bb425ad923483c5f699fab17dbeb4473be, 0x358498985e6ac7ca73f5110b415525ae04cb8313]"
      ],
      "transaction": {
        "from": "0xe62ab4d111f968660c6b2188046f9b9ba53c4bae",
        "to": "0xb406b937c12e03d676727fc1bb686279eedbc178",
        "gas": "0xd74f5",
        "value": "0x0",
        "input": "0x2f68b4890000000000000000000000000000000000000000000000000000000000000001000000000000000000000000000000000000000000000000000000000000000100000000000000000000000000000000000000000000000000000000000000800000000000000000000000000000000000000000000000000000000000000280000000000000000000000000000000000000000000000000000000000000000500000000000000000000000000000000000000000000000000000000000000a000000000000000000000000000000000000000000000000000000000000000e00000000000000000000000000000000000000000000000000000000000000120000000000000000000000000000000000000000000000000000000000000016000000000000000000000000000000000000000000000000000000000000001a00000000000000000000000000000000000000000000000000000000000000008313131353531313100000000000000000000000000000000000000000000000000000000000000000000000000000000000000000000000000000000000000063432313631340000000000000000000000000000000000000000000000000000000000000000000000000000000000000000000000000000000000000000000538303030320000000000000000000000000000000000000000000000000000000000000000000000000000000000000000000000000000000000000000000005383435333200000000000000000000000000000000000000000000000000000000000000000000000000000000000000000000000000000000000000000000023937000000000000000000000000000000000000000000000000000000000000000000000000000000000000000000000000000000000000000000000000000500000000000000000000000000000000000000000000000000000000000000a00000000000000000000000000000000000000000000000000000000000000100000000000000000000000000000000000000000000000000000000000000016000000000000000000000000000000000000000000000000000000000000001c00000000000000000000000000000000000000000000000000000000000000220000000000000000000000000000000000000000000000000000000000000002a30786164373734303961373232303536623064343162356365326630336136623761326231386533656400000000000000000000000000000000000000000000000000000000000000000000000000000000000000000000000000000000002a30786533386634306566633437326161653430316261316564663337656464393862613433663532363600000000000000000000000000000000000000000000000000000000000000000000000000000000000000000000000000000000002a30783130613034616434613733633862623030656535613239623237643131656565383533393033303600000000000000000000000000000000000000000000000000000000000000000000000000000000000000000000000000000000002a30786133643437366262343235616439323334383363356636393966616231376462656234343733626500000000000000000000000000000000000000000000000000000000000000000000000000000000000000000000000000000000002a30783335383439383938356536616337636137336635313130623431353532356165303463623833313300000000000000000000000000000000000000000000",
        "nonce": "0x1e2",
        "chainId": "0xaa36a7"
      },
      "additionalContracts": [],
      "isFixedGasLimit": false
    }
  ],
  "receipts": [
    {
      "status": "0x1",
      "cumulativeGasUsed": "0x10a9b66",
      "logs": [],
      "logsBloom": "0x00000000000000000000000000000000000000000000000000000000000000000000000000000000000000000000000000000000000000000000000000000000000000000000000000000000000000000000000000000000000000000000000000000000000000000000000000000000000000000000000000000000000000000000000000000000000000000000000000000000000000000000000000000000000000000000000000000000000000000000000000000000000000000000000000000000000000000000000000000000000000000000000000000000000000000000000000000000000000000000000000000000000000000000000000000000",
      "type": "0x2",
      "transactionHash": "0x1a9af8ddcef9b7cfb78e86f610aa41d80c0c3b5c89335452cc1a928b11339ef7",
      "transactionIndex": "0x9e",
      "blockHash": "0x31893d9121087cb0f3b37a2c3fa6ca6dc892ca3797040134facb89ca6e435fe7",
      "blockNumber": "0x6e2702",
      "gasUsed": "0x5eb3",
      "effectiveGasPrice": "0x26af3a77",
      "from": "0xe62ab4d111f968660c6b2188046f9b9ba53c4bae",
      "to": "0xc04058e417de221448d4140fc1622de24121c5e3",
      "contractAddress": null
    },
    {
      "status": "0x1",
      "cumulativeGasUsed": "0x6a6f74",
      "logs": [
        {
          "address": "0xc04058e417de221448d4140fc1622de24121c5e3",
          "topics": [
            "0x1394cfab38f3fc78ed77ea6f9318782a446d96e7dc8e9a6b0149f6be25c08bcf",
            "0x000000000000000000000000a4c104db0937f1e886d5c9c9789d6f0e5bfba75c"
          ],
          "data": "0x",
          "blockHash": "0x19d7dcd50835a07f6ff072e61c406e876be2be4a0f176fd4e38cb01235d5ae81",
          "blockNumber": "0x6e2703",
          "transactionHash": "0xf0523fbaccb2303112b44f18f09c642c65ea36ca9b7b240b6740193da7065ac1",
          "transactionIndex": "0x54",
          "logIndex": "0x46",
          "removed": false
        }
      ],
      "logsBloom": "0x00000000001000000040000000000000000000000000000000000000000000000000000000000000000000000000000000000000000002000000000000000000000000000000000000000000000000000000001000000000000000000000000000000000000000000000000000000000000000000000000000000000000000000000000100000000000000000000000000000000000000000000000000000000000000000000000000800000000000000000004100000000000000000000000000000000000000000000000000000000000000000000000000000000000000000000000000000000000002000000000000000000000000000000000000000000",
      "type": "0x2",
      "transactionHash": "0xf0523fbaccb2303112b44f18f09c642c65ea36ca9b7b240b6740193da7065ac1",
      "transactionIndex": "0x54",
      "blockHash": "0x19d7dcd50835a07f6ff072e61c406e876be2be4a0f176fd4e38cb01235d5ae81",
      "blockNumber": "0x6e2703",
      "gasUsed": "0x1be72",
      "effectiveGasPrice": "0x27862e08",
      "from": "0xe62ab4d111f968660c6b2188046f9b9ba53c4bae",
      "to": "0xc04058e417de221448d4140fc1622de24121c5e3",
      "contractAddress": null
    },
    {
      "status": "0x1",
      "cumulativeGasUsed": "0xc54f10",
      "logs": [],
      "logsBloom": "0x00000000000000000000000000000000000000000000000000000000000000000000000000000000000000000000000000000000000000000000000000000000000000000000000000000000000000000000000000000000000000000000000000000000000000000000000000000000000000000000000000000000000000000000000000000000000000000000000000000000000000000000000000000000000000000000000000000000000000000000000000000000000000000000000000000000000000000000000000000000000000000000000000000000000000000000000000000000000000000000000000000000000000000000000000000000",
      "type": "0x2",
      "transactionHash": "0x45df4d5cfcc59f625d71cfe51544108627e81d9d00e48a01cda4965aeacfd931",
      "transactionIndex": "0xb1",
      "blockHash": "0x0b60806a5cb7a4b1b5dcc2db5a82bbbf63564e7be937f41a5aef2febaf5dec35",
      "blockNumber": "0x6e2704",
      "gasUsed": "0xbbf9",
      "effectiveGasPrice": "0x25532487",
      "from": "0xe62ab4d111f968660c6b2188046f9b9ba53c4bae",
      "to": "0xc04058e417de221448d4140fc1622de24121c5e3",
      "contractAddress": null
    },
    {
      "status": "0x1",
      "cumulativeGasUsed": "0xbb46fa",
      "logs": [],
      "logsBloom": "0x00000000000000000000000000000000000000000000000000000000000000000000000000000000000000000000000000000000000000000000000000000000000000000000000000000000000000000000000000000000000000000000000000000000000000000000000000000000000000000000000000000000000000000000000000000000000000000000000000000000000000000000000000000000000000000000000000000000000000000000000000000000000000000000000000000000000000000000000000000000000000000000000000000000000000000000000000000000000000000000000000000000000000000000000000000000",
      "type": "0x2",
      "transactionHash": "0x184341303bf921ed16789add549296f11e61bb4ccb3969aa6d120adf0ce62de2",
      "transactionIndex": "0x6f",
      "blockHash": "0x787d6d09edf05967cffb9b65d5099b4a3641a99cd7f8f5f97ff3da01d461dde0",
      "blockNumber": "0x6e2705",
      "gasUsed": "0xbc22",
      "effectiveGasPrice": "0x2541e93f",
      "from": "0xe62ab4d111f968660c6b2188046f9b9ba53c4bae",
      "to": "0xc04058e417de221448d4140fc1622de24121c5e3",
      "contractAddress": null
    },
    {
      "status": "0x1",
      "cumulativeGasUsed": "0x7aedd0",
      "logs": [],
      "logsBloom": "0x00000000000000000000000000000000000000000000000000000000000000000000000000000000000000000000000000000000000000000000000000000000000000000000000000000000000000000000000000000000000000000000000000000000000000000000000000000000000000000000000000000000000000000000000000000000000000000000000000000000000000000000000000000000000000000000000000000000000000000000000000000000000000000000000000000000000000000000000000000000000000000000000000000000000000000000000000000000000000000000000000000000000000000000000000000000",
      "type": "0x2",
      "transactionHash": "0xdcfb7da44006b04a86c70081f4f6000cb3429d7a3db6dc2372c6e6cc910bf8e4",
      "transactionIndex": "0xb1",
      "blockHash": "0xf6a35882fd48b2ebffe984695dd8d8e6a5538ec98ddb6a67d71534a4b2f19abc",
      "blockNumber": "0x6e2706",
      "gasUsed": "0xbc39",
      "effectiveGasPrice": "0x2671109e",
      "from": "0xe62ab4d111f968660c6b2188046f9b9ba53c4bae",
      "to": "0xc04058e417de221448d4140fc1622de24121c5e3",
      "contractAddress": null
    },
    {
      "status": "0x1",
      "cumulativeGasUsed": "0x1059fa3",
      "logs": [],
      "logsBloom": "0x00000000000000000000000000000000000000000000000000000000000000000000000000000000000000000000000000000000000000000000000000000000000000000000000000000000000000000000000000000000000000000000000000000000000000000000000000000000000000000000000000000000000000000000000000000000000000000000000000000000000000000000000000000000000000000000000000000000000000000000000000000000000000000000000000000000000000000000000000000000000000000000000000000000000000000000000000000000000000000000000000000000000000000000000000000000",
      "type": "0x2",
      "transactionHash": "0xd297e32b9089811cff6a4191ab6d07a3d4fbe718c5621a13da0644bf2e698f23",
      "transactionIndex": "0x80",
      "blockHash": "0x367923ab9e1a8a121f98554d2b86b9e9875eb4c8f5c45d5989fef929fee96ea6",
      "blockNumber": "0x6e2707",
      "gasUsed": "0xbc50",
      "effectiveGasPrice": "0x247ca218",
      "from": "0xe62ab4d111f968660c6b2188046f9b9ba53c4bae",
      "to": "0xc04058e417de221448d4140fc1622de24121c5e3",
      "contractAddress": null
    },
    {
      "status": "0x1",
      "cumulativeGasUsed": "0xe6c3a5",
      "logs": [],
      "logsBloom": "0x00000000000000000000000000000000000000000000000000000000000000000000000000000000000000000000000000000000000000000000000000000000000000000000000000000000000000000000000000000000000000000000000000000000000000000000000000000000000000000000000000000000000000000000000000000000000000000000000000000000000000000000000000000000000000000000000000000000000000000000000000000000000000000000000000000000000000000000000000000000000000000000000000000000000000000000000000000000000000000000000000000000000000000000000000000000",
      "type": "0x2",
      "transactionHash": "0x65d4878707a456d6d3aca597269cbe547c3c999cf5ce3248144dfb18cbab2668",
      "transactionIndex": "0x96",
      "blockHash": "0x6387e71802ee9c73eee494ea6882705ca3eec0ef51ef31b053b9b4c3a6b56fb5",
      "blockNumber": "0x6e2709",
      "gasUsed": "0xbc67",
      "effectiveGasPrice": "0x230ee182",
      "from": "0xe62ab4d111f968660c6b2188046f9b9ba53c4bae",
      "to": "0xc04058e417de221448d4140fc1622de24121c5e3",
      "contractAddress": null
    },
    {
      "status": "0x1",
      "cumulativeGasUsed": "0x8efffa",
      "logs": [],
      "logsBloom": "0x00000000000000000000000000000000000000000000000000000000000000000000000000000000000000000000000000000000000000000000000000000000000000000000000000000000000000000000000000000000000000000000000000000000000000000000000000000000000000000000000000000000000000000000000000000000000000000000000000000000000000000000000000000000000000000000000000000000000000000000000000000000000000000000000000000000000000000000000000000000000000000000000000000000000000000000000000000000000000000000000000000000000000000000000000000000",
      "type": "0x2",
      "transactionHash": "0x44598d9d0a313e84ba1f3fa0e9e5d7ae35fc8229f4120b0d3d662938adac6aae",
      "transactionIndex": "0x69",
      "blockHash": "0x205a8f392c714ce284d7582d1178875dec1c090524e13f68df5268dd20dcfdc3",
      "blockNumber": "0x6e270a",
      "gasUsed": "0xbc7e",
      "effectiveGasPrice": "0x250b1ba5",
      "from": "0xe62ab4d111f968660c6b2188046f9b9ba53c4bae",
      "to": "0xc04058e417de221448d4140fc1622de24121c5e3",
      "contractAddress": null
    },
    {
      "status": "0x1",
      "cumulativeGasUsed": "0x1243b1c",
      "logs": [],
      "logsBloom": "0x00000000000000000000000000000000000000000000000000000000000000000000000000000000000000000000000000000000000000000000000000000000000000000000000000000000000000000000000000000000000000000000000000000000000000000000000000000000000000000000000000000000000000000000000000000000000000000000000000000000000000000000000000000000000000000000000000000000000000000000000000000000000000000000000000000000000000000000000000000000000000000000000000000000000000000000000000000000000000000000000000000000000000000000000000000000",
      "type": "0x2",
      "transactionHash": "0x3a1103e8583081d13b3ede892e8837eb43c82988a6ff128c9ed1238cb3ae2307",
      "transactionIndex": "0x73",
      "blockHash": "0xad4c5a922c3ed05774608b4d4c943a62e1f2e20ed2328e4b0a4d3effe6c73610",
      "blockNumber": "0x6e270b",
      "gasUsed": "0xbc95",
      "effectiveGasPrice": "0x24229b91",
      "from": "0xe62ab4d111f968660c6b2188046f9b9ba53c4bae",
      "to": "0xc04058e417de221448d4140fc1622de24121c5e3",
      "contractAddress": null
    },
    {
      "status": "0x1",
      "cumulativeGasUsed": "0x862b16",
      "logs": [],
      "logsBloom": "0x00000000000000000000000000000000000000000000000000000000000000000000000000000000000000000000000000000000000000000000000000000000000000000000000000000000000000000000000000000000000000000000000000000000000000000000000000000000000000000000000000000000000000000000000000000000000000000000000000000000000000000000000000000000000000000000000000000000000000000000000000000000000000000000000000000000000000000000000000000000000000000000000000000000000000000000000000000000000000000000000000000000000000000000000000000000",
      "type": "0x2",
      "transactionHash": "0xbe91e4efcda705c0a9286bb250fbbbef27700f47bc89936d6b6e2bfde3804afd",
      "transactionIndex": "0x88",
      "blockHash": "0x947ef49684af2bffd78bce6416f83cb5e270d83211c8049f9ba08783a6649ef9",
      "blockNumber": "0x6e270c",
      "gasUsed": "0xbcac",
      "effectiveGasPrice": "0x262c4d1d",
      "from": "0xe62ab4d111f968660c6b2188046f9b9ba53c4bae",
      "to": "0xc04058e417de221448d4140fc1622de24121c5e3",
      "contractAddress": null
    },
    {
      "status": "0x1",
      "cumulativeGasUsed": "0x6a797c",
      "logs": [],
      "logsBloom": "0x00000000000000000000000000000000000000000000000000000000000000000000000000000000000000000000000000000000000000000000000000000000000000000000000000000000000000000000000000000000000000000000000000000000000000000000000000000000000000000000000000000000000000000000000000000000000000000000000000000000000000000000000000000000000000000000000000000000000000000000000000000000000000000000000000000000000000000000000000000000000000000000000000000000000000000000000000000000000000000000000000000000000000000000000000000000",
      "type": "0x2",
      "transactionHash": "0x0a93ee9e9377b811ad308f8138881548827ec2ae4c36951fdf8624207c11378e",
      "transactionIndex": "0x4e",
      "blockHash": "0x5494f840ab5fbc2227cdc030ce57ad9414719fd8a987b54c63c9255b0e5d4bbb",
      "blockNumber": "0x6e270d",
      "gasUsed": "0xbcc3",
      "effectiveGasPrice": "0x24766e12",
      "from": "0xe62ab4d111f968660c6b2188046f9b9ba53c4bae",
      "to": "0xc04058e417de221448d4140fc1622de24121c5e3",
      "contractAddress": null
    },
    {
      "status": "0x1",
      "cumulativeGasUsed": "0xa08500",
      "logs": [],
      "logsBloom": "0x00000000000000000000000000000000000000000000000000000000000000000000000000000000000000000000000000000000000000000000000000000000000000000000000000000000000000000000000000000000000000000000000000000000000000000000000000000000000000000000000000000000000000000000000000000000000000000000000000000000000000000000000000000000000000000000000000000000000000000000000000000000000000000000000000000000000000000000000000000000000000000000000000000000000000000000000000000000000000000000000000000000000000000000000000000000",
      "type": "0x2",
      "transactionHash": "0xda7ae87d5e75759cb99c4f3e7b21346d56d9fe90dc1ffd5f990775b3724894df",
      "transactionIndex": "0x49",
      "blockHash": "0x71308c21947b56b84fcaf5b1e025cf3334e5163bb7c19c97d9b5c90dec29383b",
      "blockNumber": "0x6e2710",
      "gasUsed": "0xbcda",
      "effectiveGasPrice": "0x24caba26",
      "from": "0xe62ab4d111f968660c6b2188046f9b9ba53c4bae",
      "to": "0xc04058e417de221448d4140fc1622de24121c5e3",
      "contractAddress": null
    },
    {
      "status": "0x1",
      "cumulativeGasUsed": "0x81037b",
      "logs": [],
      "logsBloom": "0x00000000000000000000000000000000000000000000000000000000000000000000000000000000000000000000000000000000000000000000000000000000000000000000000000000000000000000000000000000000000000000000000000000000000000000000000000000000000000000000000000000000000000000000000000000000000000000000000000000000000000000000000000000000000000000000000000000000000000000000000000000000000000000000000000000000000000000000000000000000000000000000000000000000000000000000000000000000000000000000000000000000000000000000000000000000",
      "type": "0x2",
      "transactionHash": "0x72d275571180a3155eeb10f4da2929e6a86b8385d8cf089881a13170a78a6a52",
      "transactionIndex": "0x78",
      "blockHash": "0x61577982905fb136c2e84f8807f92bd828f4f411d561ab6497ca54eba3346a90",
      "blockNumber": "0x6e2711",
      "gasUsed": "0xbcf1",
      "effectiveGasPrice": "0x260aab2b",
      "from": "0xe62ab4d111f968660c6b2188046f9b9ba53c4bae",
      "to": "0xc04058e417de221448d4140fc1622de24121c5e3",
      "contractAddress": null
    },
    {
      "status": "0x1",
      "cumulativeGasUsed": "0x990d26",
      "logs": [],
      "logsBloom": "0x00000000000000000000000000000000000000000000000000000000000000000000000000000000000000000000000000000000000000000000000000000000000000000000000000000000000000000000000000000000000000000000000000000000000000000000000000000000000000000000000000000000000000000000000000000000000000000000000000000000000000000000000000000000000000000000000000000000000000000000000000000000000000000000000000000000000000000000000000000000000000000000000000000000000000000000000000000000000000000000000000000000000000000000000000000000",
      "type": "0x2",
      "transactionHash": "0x3c2a2f603d3ba9d5a3ef56f7dce206764450e139b643f944e196f18970fa227f",
      "transactionIndex": "0x50",
      "blockHash": "0xdff91137c5e3f66bf84f501627eeec97007cc48627a254c2c1d40731fdc8ce8d",
      "blockNumber": "0x6e2712",
      "gasUsed": "0xbd08",
      "effectiveGasPrice": "0x2649b52f",
      "from": "0xe62ab4d111f968660c6b2188046f9b9ba53c4bae",
      "to": "0xc04058e417de221448d4140fc1622de24121c5e3",
      "contractAddress": null
    },
    {
      "status": "0x1",
      "cumulativeGasUsed": "0x872c17",
      "logs": [],
      "logsBloom": "0x00000000000000000000000000000000000000000000000000000000000000000000000000000000000000000000000000000000000000000000000000000000000000000000000000000000000000000000000000000000000000000000000000000000000000000000000000000000000000000000000000000000000000000000000000000000000000000000000000000000000000000000000000000000000000000000000000000000000000000000000000000000000000000000000000000000000000000000000000000000000000000000000000000000000000000000000000000000000000000000000000000000000000000000000000000000",
      "type": "0x2",
      "transactionHash": "0x4017ee8860485c246a86dc7ca5f1184c27e3f3aa732097934757a86c19e19bab",
      "transactionIndex": "0x5b",
      "blockHash": "0x3e7649e269f6d998da89a2cb4b8815fde14f3a76efc9c4e42ded2bd25884b654",
      "blockNumber": "0x6e2713",
      "gasUsed": "0xbd1f",
      "effectiveGasPrice": "0x2601c038",
      "from": "0xe62ab4d111f968660c6b2188046f9b9ba53c4bae",
      "to": "0xc04058e417de221448d4140fc1622de24121c5e3",
      "contractAddress": null
    },
    {
      "status": "0x1",
      "cumulativeGasUsed": "0xad240e",
      "logs": [],
      "logsBloom": "0x00000000000000000000000000000000000000000000000000000000000000000000000000000000000000000000000000000000000000000000000000000000000000000000000000000000000000000000000000000000000000000000000000000000000000000000000000000000000000000000000000000000000000000000000000000000000000000000000000000000000000000000000000000000000000000000000000000000000000000000000000000000000000000000000000000000000000000000000000000000000000000000000000000000000000000000000000000000000000000000000000000000000000000000000000000000",
      "type": "0x2",
      "transactionHash": "0x5d2395f302232fce25905a261f4fd04bf173a3b19dcd66eb13e2b0537b808d8e",
      "transactionIndex": "0x5c",
      "blockHash": "0x1450e9b02ac1dc3c625b8ef8b0ec68c3aaec4d93ca924526f9343fe585c21b75",
      "blockNumber": "0x6e2714",
      "gasUsed": "0xbd36",
      "effectiveGasPrice": "0x25388fc7",
      "from": "0xe62ab4d111f968660c6b2188046f9b9ba53c4bae",
      "to": "0xc04058e417de221448d4140fc1622de24121c5e3",
      "contractAddress": null
    },
    {
      "status": "0x1",
      "cumulativeGasUsed": "0x156e74d",
      "logs": [],
      "logsBloom": "0x00000000000000000000000000000000000000000000000000000000000000000000000000000000000000000000000000000000000000000000000000000000000000000000000000000000000000000000000000000000000000000000000000000000000000000000000000000000000000000000000000000000000000000000000000000000000000000000000000000000000000000000000000000000000000000000000000000000000000000000000000000000000000000000000000000000000000000000000000000000000000000000000000000000000000000000000000000000000000000000000000000000000000000000000000000000",
      "type": "0x2",
      "transactionHash": "0x17408004a433a5db587d70d635004cf79bd1cc2eb38d98f7873aa875dfb51d3a",
      "transactionIndex": "0x76",
      "blockHash": "0x1338af203f52a84379900c2eb1e8fb5c7264ab690e86835c0f38bf09a619f8f0",
      "blockNumber": "0x6e2715",
      "gasUsed": "0xbd4d",
      "effectiveGasPrice": "0x2495dd21",
      "from": "0xe62ab4d111f968660c6b2188046f9b9ba53c4bae",
      "to": "0xc04058e417de221448d4140fc1622de24121c5e3",
      "contractAddress": null
    },
    {
      "status": "0x1",
      "cumulativeGasUsed": "0x7a50b5",
      "logs": [],
      "logsBloom": "0x00000000000000000000000000000000000000000000000000000000000000000000000000000000000000000000000000000000000000000000000000000000000000000000000000000000000000000000000000000000000000000000000000000000000000000000000000000000000000000000000000000000000000000000000000000000000000000000000000000000000000000000000000000000000000000000000000000000000000000000000000000000000000000000000000000000000000000000000000000000000000000000000000000000000000000000000000000000000000000000000000000000000000000000000000000000",
      "type": "0x2",
      "transactionHash": "0x9067e8f5ca3f6a3fb8e5ce65c8753d622f84a7110c8679fd426d4b1b254d0b09",
      "transactionIndex": "0x8d",
      "blockHash": "0x8693bdcd4b451404b559d79b49317883ceb07a143fa11bc07b4457a5de18c194",
      "blockNumber": "0x6e2716",
      "gasUsed": "0xbd64",
      "effectiveGasPrice": "0x27fa49e6",
      "from": "0xe62ab4d111f968660c6b2188046f9b9ba53c4bae",
      "to": "0xc04058e417de221448d4140fc1622de24121c5e3",
      "contractAddress": null
    },
    {
      "status": "0x1",
      "cumulativeGasUsed": "0x8375d6",
      "logs": [],
      "logsBloom": "0x00000000000000000000000000000000000000000000000000000000000000000000000000000000000000000000000000000000000000000000000000000000000000000000000000000000000000000000000000000000000000000000000000000000000000000000000000000000000000000000000000000000000000000000000000000000000000000000000000000000000000000000000000000000000000000000000000000000000000000000000000000000000000000000000000000000000000000000000000000000000000000000000000000000000000000000000000000000000000000000000000000000000000000000000000000000",
      "type": "0x2",
      "transactionHash": "0x310fcf3fd1b3f6f19e05dffc82e3153d90aa43b6dcc8fe4b83a5bbfcef7d4df6",
      "transactionIndex": "0x9b",
      "blockHash": "0xac23aa0025a3f84c385c177c199cd9c499b8e5d6ea31507a662ff023dd4fcc27",
      "blockNumber": "0x6e2717",
      "gasUsed": "0xbd7b",
      "effectiveGasPrice": "0x25e4d402",
      "from": "0xe62ab4d111f968660c6b2188046f9b9ba53c4bae",
      "to": "0xc04058e417de221448d4140fc1622de24121c5e3",
      "contractAddress": null
    },
    {
      "status": "0x1",
      "cumulativeGasUsed": "0x7a851b",
      "logs": [],
      "logsBloom": "0x00000000000000000000000000000000000000000000000000000000000000000000000000000000000000000000000000000000000000000000000000000000000000000000000000000000000000000000000000000000000000000000000000000000000000000000000000000000000000000000000000000000000000000000000000000000000000000000000000000000000000000000000000000000000000000000000000000000000000000000000000000000000000000000000000000000000000000000000000000000000000000000000000000000000000000000000000000000000000000000000000000000000000000000000000000000",
      "type": "0x2",
      "transactionHash": "0x5382b8b61cda0b9655eaf44753c89aa272425c44d0bf330108aef24309b7bb33",
      "transactionIndex": "0x65",
      "blockHash": "0xb1495e728ce7b335b840a4c5fc6070ef7d45ca0d4925f6bb9f404092f06766bb",
      "blockNumber": "0x6e2718",
      "gasUsed": "0xbd92",
      "effectiveGasPrice": "0x24346dd8",
      "from": "0xe62ab4d111f968660c6b2188046f9b9ba53c4bae",
      "to": "0xc04058e417de221448d4140fc1622de24121c5e3",
      "contractAddress": null
    },
    {
      "status": "0x1",
      "cumulativeGasUsed": "0x8c8c61",
      "logs": [],
      "logsBloom": "0x00000000000000000000000000000000000000000000000000000000000000000000000000000000000000000000000000000000000000000000000000000000000000000000000000000000000000000000000000000000000000000000000000000000000000000000000000000000000000000000000000000000000000000000000000000000000000000000000000000000000000000000000000000000000000000000000000000000000000000000000000000000000000000000000000000000000000000000000000000000000000000000000000000000000000000000000000000000000000000000000000000000000000000000000000000000",
      "type": "0x2",
      "transactionHash": "0x17f9504918f43dd9817c3fa7a30035ea5c6f0f5103fbfbc035a81f7d0e7b6751",
      "transactionIndex": "0x84",
      "blockHash": "0xdcd60c150ea549286d170915001ee570ab3cfda415228c59e0f7badb6348b582",
      "blockNumber": "0x6e2719",
      "gasUsed": "0xbda9",
      "effectiveGasPrice": "0x237b3a5c",
      "from": "0xe62ab4d111f968660c6b2188046f9b9ba53c4bae",
      "to": "0xc04058e417de221448d4140fc1622de24121c5e3",
      "contractAddress": null
    },
    {
      "status": "0x1",
      "cumulativeGasUsed": "0xacb123",
      "logs": [],
      "logsBloom": "0x00000000000000000000000000000000000000000000000000000000000000000000000000000000000000000000000000000000000000000000000000000000000000000000000000000000000000000000000000000000000000000000000000000000000000000000000000000000000000000000000000000000000000000000000000000000000000000000000000000000000000000000000000000000000000000000000000000000000000000000000000000000000000000000000000000000000000000000000000000000000000000000000000000000000000000000000000000000000000000000000000000000000000000000000000000000",
      "type": "0x2",
      "transactionHash": "0x664da8187c65062d84e9ef9f18bf34de9d5e5ddd448fe21980b5ec5ba697b360",
      "transactionIndex": "0xa1",
      "blockHash": "0x9d9c40b33af2d3c36eefc7d0c62d80253e1dfdac627f5601eb4b98900229bb3d",
      "blockNumber": "0x6e271a",
      "gasUsed": "0xbdbb",
      "effectiveGasPrice": "0x222ef20f",
      "from": "0xe62ab4d111f968660c6b2188046f9b9ba53c4bae",
      "to": "0xc04058e417de221448d4140fc1622de24121c5e3",
      "contractAddress": null
    },
    {
      "status": "0x1",
      "cumulativeGasUsed": "0xa582c2",
      "logs": [],
      "logsBloom": "0x00000000000000000000000000000000000000000000000000000000000000000000000000000000000000000000000000000000000000000000000000000000000000000000000000000000000000000000000000000000000000000000000000000000000000000000000000000000000000000000000000000000000000000000000000000000000000000000000000000000000000000000000000000000000000000000000000000000000000000000000000000000000000000000000000000000000000000000000000000000000000000000000000000000000000000000000000000000000000000000000000000000000000000000000000000000",
      "type": "0x2",
      "transactionHash": "0xd0812aa3d6ce0c4b954cab9b5f5b8699249bd42e240ad49ccc45d161c5808f93",
      "transactionIndex": "0x50",
      "blockHash": "0xdb66ebdb5f7d1e48b61ac8c46e6d9324fed297777e14e545a8afe0c36d02e07f",
      "blockNumber": "0x6e271b",
      "gasUsed": "0x223f5",
      "effectiveGasPrice": "0x219e845a",
      "from": "0xe62ab4d111f968660c6b2188046f9b9ba53c4bae",
      "to": "0xc04058e417de221448d4140fc1622de24121c5e3",
      "contractAddress": null
    },
    {
      "status": "0x1",
      "cumulativeGasUsed": "0xb94bfa",
      "logs": [],
      "logsBloom": "0x00000000000000000000000000000000000000000000000000000000000000000000000000000000000000000000000000000000000000000000000000000000000000000000000000000000000000000000000000000000000000000000000000000000000000000000000000000000000000000000000000000000000000000000000000000000000000000000000000000000000000000000000000000000000000000000000000000000000000000000000000000000000000000000000000000000000000000000000000000000000000000000000000000000000000000000000000000000000000000000000000000000000000000000000000000000",
      "type": "0x2",
      "transactionHash": "0x818417d093089d2002445e6e3cb9cce1c27ac56c461b44aed00aa8cfcb1d8034",
      "transactionIndex": "0x89",
      "blockHash": "0x13de76c110f564a740599873cec11262d51cd8b08f145dbad4ebddd00da55ab8",
      "blockNumber": "0x6e271d",
      "gasUsed": "0x1e775",
      "effectiveGasPrice": "0x1e3dcd0c",
      "from": "0xe62ab4d111f968660c6b2188046f9b9ba53c4bae",
      "to": "0xc04058e417de221448d4140fc1622de24121c5e3",
      "contractAddress": null
    },
    {
      "status": "0x1",
      "cumulativeGasUsed": "0x16475ea",
      "logs": [],
      "logsBloom": "0x00000000000000000000000000000000000000000000000000000000000000000000000000000000000000000000000000000000000000000000000000000000000000000000000000000000000000000000000000000000000000000000000000000000000000000000000000000000000000000000000000000000000000000000000000000000000000000000000000000000000000000000000000000000000000000000000000000000000000000000000000000000000000000000000000000000000000000000000000000000000000000000000000000000000000000000000000000000000000000000000000000000000000000000000000000000",
      "type": "0x2",
      "transactionHash": "0x813fbf28cad9d3489fb94071debe1aad797cf82469cdf97907e53f735ecb9528",
      "transactionIndex": "0x99",
      "blockHash": "0x0a65b7ded8febd2a14d7adade7e14b488f84f6167ec21a978c7d1bd995ae019c",
      "blockNumber": "0x6e271f",
      "gasUsed": "0x1e775",
      "effectiveGasPrice": "0x1cb43aba",
      "from": "0xe62ab4d111f968660c6b2188046f9b9ba53c4bae",
      "to": "0xc04058e417de221448d4140fc1622de24121c5e3",
      "contractAddress": null
    },
    {
      "status": "0x1",
      "cumulativeGasUsed": "0xe4c868",
      "logs": [],
      "logsBloom": "0x00000000000000000000000000000000000000000000000000000000000000000000000000000000000000000000000000000000000000000000000000000000000000000000000000000000000000000000000000000000000000000000000000000000000000000000000000000000000000000000000000000000000000000000000000000000000000000000000000000000000000000000000000000000000000000000000000000000000000000000000000000000000000000000000000000000000000000000000000000000000000000000000000000000000000000000000000000000000000000000000000000000000000000000000000000000",
      "type": "0x2",
      "transactionHash": "0xf635d073018186ee1e42fc31ad6209f2b96380f89453a918b5d3ab18d032f8c4",
      "transactionIndex": "0xdd",
      "blockHash": "0x568aeeb41c0517f25297b6e300973c685bb4226d667a80b7472eeefe75ec02ed",
      "blockNumber": "0x6e2720",
      "gasUsed": "0x1e2e9",
      "effectiveGasPrice": "0x20482963",
      "from": "0xe62ab4d111f968660c6b2188046f9b9ba53c4bae",
      "to": "0xc04058e417de221448d4140fc1622de24121c5e3",
      "contractAddress": null
    },
    {
      "status": "0x1",
      "cumulativeGasUsed": "0x771102",
      "logs": [],
      "logsBloom": "0x00000000000000000000000000000000000000000000000000000000000000000000000000000000000000000000000000000000000000000000000000000000000000000000000000000000000000000000000000000000000000000000000000000000000000000000000000000000000000000000000000000000000000000000000000000000000000000000000000000000000000000000000000000000000000000000000000000000000000000000000000000000000000000000000000000000000000000000000000000000000000000000000000000000000000000000000000000000000000000000000000000000000000000000000000000000",
      "type": "0x2",
      "transactionHash": "0x7bd871a6dce5cc434b84d28055dac57ff2567902e3b8652ec81247b746e899dc",
      "transactionIndex": "0x4e",
      "blockHash": "0xbec7847450abb1a9abf814ae9ed0548e620b998c26b49dad0272aa1c475a5bdd",
      "blockNumber": "0x6e2721",
      "gasUsed": "0x1ec01",
      "effectiveGasPrice": "0x2099ff8f",
      "from": "0xe62ab4d111f968660c6b2188046f9b9ba53c4bae",
      "to": "0xc04058e417de221448d4140fc1622de24121c5e3",
      "contractAddress": null
    },
    {
      "status": "0x1",
      "cumulativeGasUsed": "0x989f46",
      "logs": [],
      "logsBloom": "0x00000000000000000000000000000000000000000000000000000000000000000000000000000000000000000000000000000000000000000000000000000000000000000000000000000000000000000000000000000000000000000000000000000000000000000000000000000000000000000000000000000000000000000000000000000000000000000000000000000000000000000000000000000000000000000000000000000000000000000000000000000000000000000000000000000000000000000000000000000000000000000000000000000000000000000000000000000000000000000000000000000000000000000000000000000000",
      "type": "0x2",
      "transactionHash": "0x3183ecd47fe8555241316b2378e9c770f47e84032d206a066d8a8269d0761d64",
      "transactionIndex": "0x7b",
      "blockHash": "0x901c1de2cec7bbc2a80f615cf2bf04e30b2830db3f1360251e4b1749830ea199",
      "blockNumber": "0x6e2722",
      "gasUsed": "0x7acd5",
      "effectiveGasPrice": "0x1f1322f7",
      "from": "0xe62ab4d111f968660c6b2188046f9b9ba53c4bae",
      "to": "0xb406b937c12e03d676727fc1bb686279eedbc178",
      "contractAddress": null
    },
    {
      "status": "0x1",
      "cumulativeGasUsed": "0xb14cb1",
      "logs": [],
      "logsBloom": "0x00000000000000000000000000000000000000000000000000000000000000000000000000000000000000000000000000000000000000000000000000000000000000000000000000000000000000000000000000000000000000000000000000000000000000000000000000000000000000000000000000000000000000000000000000000000000000000000000000000000000000000000000000000000000000000000000000000000000000000000000000000000000000000000000000000000000000000000000000000000000000000000000000000000000000000000000000000000000000000000000000000000000000000000000000000000",
      "type": "0x2",
      "transactionHash": "0x1245b649495e3343d02c82cf4a68fd7ff02ab3c9169d436aa55dda6d5edecb67",
      "transactionIndex": "0xae",
      "blockHash": "0x13301b1f51715ba81514837f344e31f8b4c4320caedd3fe971bce34c2a0ba2f3",
      "blockNumber": "0x6e2723",
      "gasUsed": "0xbd046",
      "effectiveGasPrice": "0x1e28afc6",
      "from": "0xe62ab4d111f968660c6b2188046f9b9ba53c4bae",
      "to": "0xb406b937c12e03d676727fc1bb686279eedbc178",
      "contractAddress": null
    },
    {
      "status": "0x1",
      "cumulativeGasUsed": "0x694d76",
      "logs": [],
      "logsBloom": "0x00000000000000000000000000000000000000000000000000000000000000000000000000000000000000000000000000000000000000000000000000000000000000000000000000000000000000000000000000000000000000000000000000000000000000000000000000000000000000000000000000000000000000000000000000000000000000000000000000000000000000000000000000000000000000000000000000000000000000000000000000000000000000000000000000000000000000000000000000000000000000000000000000000000000000000000000000000000000000000000000000000000000000000000000000000000",
      "type": "0x2",
      "transactionHash": "0x3a0d4b3064e21bbcee2d5b36a30ed03138c8d46fcf60f745c15c01cabc95152c",
      "transactionIndex": "0x5c",
      "blockHash": "0x57faa47082e025d46a0b6ecb7747910a38785be845a5960ee6de255e4ed6314a",
      "blockNumber": "0x6e2724",
      "gasUsed": "0x9be17",
      "effectiveGasPrice": "0x1efb08b5",
      "from": "0xe62ab4d111f968660c6b2188046f9b9ba53c4bae",
      "to": "0xb406b937c12e03d676727fc1bb686279eedbc178",
      "contractAddress": null
    }
  ],
  "libraries": [],
  "pending": [],
  "returns": {},
  "timestamp": 1733434877,
  "chain": 11155111,
  "commit": "d684feb7"
}