{
  "transactions": [
    {
      "hash": "0x87d36abc31b64528142920a56f12f365c1bf0179284cbdaf91f78a2b482ee14a",
      "transactionType": "CALL",
      "contractName": "CTMRWAGateway",
      "contractAddress": "0xf8fe7804ae6dbc7306ab5a97ae2302706170530c",
      "function": "addChainContract(string[],string[])",
      "arguments": [
        "[59141, 78600, 2484]",
        "[0x41543a4c6423e2546fc58ac63117b5692d68c323, 0x06edc167555ceb6038e2c6b3bed7a47c628f2eed, 0x16b049e17b49c5dc1d8598b53593d4497c858c9a]"
      ],
      "transaction": {
        "from": "0xe62ab4d111f968660c6b2188046f9b9ba53c4bae",
        "to": "0xf8fe7804ae6dbc7306ab5a97ae2302706170530c",
        "gas": "0xaf40f",
        "value": "0x0",
        "input": "0x013fd3bd000000000000000000000000000000000000000000000000000000000000004000000000000000000000000000000000000000000000000000000000000001800000000000000000000000000000000000000000000000000000000000000003000000000000000000000000000000000000000000000000000000000000006000000000000000000000000000000000000000000000000000000000000000a000000000000000000000000000000000000000000000000000000000000000e00000000000000000000000000000000000000000000000000000000000000005353931343100000000000000000000000000000000000000000000000000000000000000000000000000000000000000000000000000000000000000000000053738363030000000000000000000000000000000000000000000000000000000000000000000000000000000000000000000000000000000000000000000000432343834000000000000000000000000000000000000000000000000000000000000000000000000000000000000000000000000000000000000000000000003000000000000000000000000000000000000000000000000000000000000006000000000000000000000000000000000000000000000000000000000000000c00000000000000000000000000000000000000000000000000000000000000120000000000000000000000000000000000000000000000000000000000000002a30783431353433613463363432336532353436666335386163363331313762353639326436386333323300000000000000000000000000000000000000000000000000000000000000000000000000000000000000000000000000000000002a30783036656463313637353535636562363033386532633662336265643761343763363238663265656400000000000000000000000000000000000000000000000000000000000000000000000000000000000000000000000000000000002a30783136623034396531376234396335646331643835393862353335393364343439376338353863396100000000000000000000000000000000000000000000",
        "nonce": "0x27b",
        "chainId": "0xaa36a7"
      },
      "additionalContracts": [],
      "isFixedGasLimit": false
    },
    {
      "hash": "0x7c194b1ac0d094b24997a1532922efa9a606e66fd7eee62e6a69d057b9eb561f",
      "transactionType": "CALL",
      "contractName": "CTMRWAGateway",
      "contractAddress": "0xf8fe7804ae6dbc7306ab5a97ae2302706170530c",
      "function": "attachRWAX(uint256,uint256,string[],string[])",
      "arguments": [
        "1",
        "1",
        "[59141, 78600, 2484]",
        "[0x969035b34b913c507b87fd805fff608fb1fe13f0, 0x282eccb80074e9ab23ea5d28bd795c0bba3726a6, 0xfc63dc90296800c67cbb96330238fc17fbd674a2]"
      ],
      "transaction": {
        "from": "0xe62ab4d111f968660c6b2188046f9b9ba53c4bae",
        "to": "0xf8fe7804ae6dbc7306ab5a97ae2302706170530c",
        "gas": "0xce2f1",
        "value": "0x0",
        "input": "0x33a5f5b400000000000000000000000000000000000000000000000000000000000000010000000000000000000000000000000000000000000000000000000000000001000000000000000000000000000000000000000000000000000000000000008000000000000000000000000000000000000000000000000000000000000001c00000000000000000000000000000000000000000000000000000000000000003000000000000000000000000000000000000000000000000000000000000006000000000000000000000000000000000000000000000000000000000000000a000000000000000000000000000000000000000000000000000000000000000e00000000000000000000000000000000000000000000000000000000000000005353931343100000000000000000000000000000000000000000000000000000000000000000000000000000000000000000000000000000000000000000000053738363030000000000000000000000000000000000000000000000000000000000000000000000000000000000000000000000000000000000000000000000432343834000000000000000000000000000000000000000000000000000000000000000000000000000000000000000000000000000000000000000000000003000000000000000000000000000000000000000000000000000000000000006000000000000000000000000000000000000000000000000000000000000000c00000000000000000000000000000000000000000000000000000000000000120000000000000000000000000000000000000000000000000000000000000002a30783936393033356233346239313363353037623837666438303566666636303866623166653133663000000000000000000000000000000000000000000000000000000000000000000000000000000000000000000000000000000000002a30783238326563636238303037346539616232336561356432386264373935633062626133373236613600000000000000000000000000000000000000000000000000000000000000000000000000000000000000000000000000000000002a30786663363364633930323936383030633637636262393633333032333866633137666264363734613200000000000000000000000000000000000000000000",
        "nonce": "0x27c",
        "chainId": "0xaa36a7"
      },
      "additionalContracts": [],
      "isFixedGasLimit": false
    },
    {
      "hash": "0x3bd265be232b3f577adf36f6572058e386163c8c47e1be5c59a915136a25d4b2",
      "transactionType": "CALL",
      "contractName": "CTMRWAGateway",
      "contractAddress": "0xf8fe7804ae6dbc7306ab5a97ae2302706170530c",
      "function": "attachStorageManager(uint256,uint256,string[],string[])",
      "arguments": [
        "1",
        "1",
        "[59141, 78600, 2484]",
        "[0x20b88eba092c4ceb11e88f92abe1c01bc7fe7234, 0x8393181277c8a85ec0468b3f1ee61bbfd78e62b4, 0xc74d2556d610f886b55653faffddf4bd0c1605b6]"
      ],
      "transaction": {
        "from": "0xe62ab4d111f968660c6b2188046f9b9ba53c4bae",
        "to": "0xf8fe7804ae6dbc7306ab5a97ae2302706170530c",
        "gas": "0xb538b",
        "value": "0x0",
        "input": "0x2f68b48900000000000000000000000000000000000000000000000000000000000000010000000000000000000000000000000000000000000000000000000000000001000000000000000000000000000000000000000000000000000000000000008000000000000000000000000000000000000000000000000000000000000001c00000000000000000000000000000000000000000000000000000000000000003000000000000000000000000000000000000000000000000000000000000006000000000000000000000000000000000000000000000000000000000000000a000000000000000000000000000000000000000000000000000000000000000e00000000000000000000000000000000000000000000000000000000000000005353931343100000000000000000000000000000000000000000000000000000000000000000000000000000000000000000000000000000000000000000000053738363030000000000000000000000000000000000000000000000000000000000000000000000000000000000000000000000000000000000000000000000432343834000000000000000000000000000000000000000000000000000000000000000000000000000000000000000000000000000000000000000000000003000000000000000000000000000000000000000000000000000000000000006000000000000000000000000000000000000000000000000000000000000000c00000000000000000000000000000000000000000000000000000000000000120000000000000000000000000000000000000000000000000000000000000002a30783230623838656261303932633463656231316538386639326162653163303162633766653732333400000000000000000000000000000000000000000000000000000000000000000000000000000000000000000000000000000000002a30783833393331383132373763386138356563303436386233663165653631626266643738653632623400000000000000000000000000000000000000000000000000000000000000000000000000000000000000000000000000000000002a30786337346432353536643631306638383662353536353366616666646466346264306331363035623600000000000000000000000000000000000000000000",
        "nonce": "0x27d",
        "chainId": "0xaa36a7"
      },
      "additionalContracts": [],
      "isFixedGasLimit": false
    },
    {
      "hash": "0xb9bacf2d85d692bbf3394b856075b5e368a71f26ac20c1d61a8387a600ceef97",
      "transactionType": "CALL",
      "contractName": "CTMRWAGateway",
      "contractAddress": "0xf8fe7804ae6dbc7306ab5a97ae2302706170530c",
      "function": "attachSentryManager(uint256,uint256,string[],string[])",
      "arguments": [
        "1",
        "1",
        "[59141, 78600, 2484]",
        "[0xe569c146b0d4c1c941607b5c6a648b5877ae29ef, 0xac71dcf325724594525cc05552bee7d6550a80fd, 0xdbd55d95d447e363251592a8ff573bbf16c2cb68]"
      ],
      "transaction": {
        "from": "0xe62ab4d111f968660c6b2188046f9b9ba53c4bae",
        "to": "0xf8fe7804ae6dbc7306ab5a97ae2302706170530c",
        "gas": "0xb50f2",
        "value": "0x0",
        "input": "0x349de79700000000000000000000000000000000000000000000000000000000000000010000000000000000000000000000000000000000000000000000000000000001000000000000000000000000000000000000000000000000000000000000008000000000000000000000000000000000000000000000000000000000000001c00000000000000000000000000000000000000000000000000000000000000003000000000000000000000000000000000000000000000000000000000000006000000000000000000000000000000000000000000000000000000000000000a000000000000000000000000000000000000000000000000000000000000000e00000000000000000000000000000000000000000000000000000000000000005353931343100000000000000000000000000000000000000000000000000000000000000000000000000000000000000000000000000000000000000000000053738363030000000000000000000000000000000000000000000000000000000000000000000000000000000000000000000000000000000000000000000000432343834000000000000000000000000000000000000000000000000000000000000000000000000000000000000000000000000000000000000000000000003000000000000000000000000000000000000000000000000000000000000006000000000000000000000000000000000000000000000000000000000000000c00000000000000000000000000000000000000000000000000000000000000120000000000000000000000000000000000000000000000000000000000000002a30786535363963313436623064346331633934313630376235633661363438623538373761653239656600000000000000000000000000000000000000000000000000000000000000000000000000000000000000000000000000000000002a30786163373164636633323537323435393435323563633035353532626565376436353530613830666400000000000000000000000000000000000000000000000000000000000000000000000000000000000000000000000000000000002a30786462643535643935643434376533363332353135393261386666353733626266313663326362363800000000000000000000000000000000000000000000",
        "nonce": "0x27e",
        "chainId": "0xaa36a7"
      },
      "additionalContracts": [],
      "isFixedGasLimit": false
    }
  ],
  "receipts": [
    {
      "status": "0x1",
      "cumulativeGasUsed": "0xec9029",
      "logs": [],
      "logsBloom": "0x00000000000000000000000000000000000000000000000000000000000000000000000000000000000000000000000000000000000000000000000000000000000000000000000000000000000000000000000000000000000000000000000000000000000000000000000000000000000000000000000000000000000000000000000000000000000000000000000000000000000000000000000000000000000000000000000000000000000000000000000000000000000000000000000000000000000000000000000000000000000000000000000000000000000000000000000000000000000000000000000000000000000000000000000000000000",
      "type": "0x2",
      "transactionHash": "0x87d36abc31b64528142920a56f12f365c1bf0179284cbdaf91f78a2b482ee14a",
      "transactionIndex": "0xba",
      "blockHash": "0x7a3b07cea0f586abe2321291f07e833ba782772b4ee7e7cec98724ea1711fe39",
      "blockNumber": "0x76ae79",
      "gasUsed": "0x7ee17",
      "effectiveGasPrice": "0x4d3814e00",
      "from": "0xe62ab4d111f968660c6b2188046f9b9ba53c4bae",
      "to": "0xf8fe7804ae6dbc7306ab5a97ae2302706170530c",
      "contractAddress": null
    },
    {
      "status": "0x1",
      "cumulativeGasUsed": "0xd93886",
      "logs": [],
      "logsBloom": "0x00000000000000000000000000000000000000000000000000000000000000000000000000000000000000000000000000000000000000000000000000000000000000000000000000000000000000000000000000000000000000000000000000000000000000000000000000000000000000000000000000000000000000000000000000000000000000000000000000000000000000000000000000000000000000000000000000000000000000000000000000000000000000000000000000000000000000000000000000000000000000000000000000000000000000000000000000000000000000000000000000000000000000000000000000000000",
      "type": "0x2",
      "transactionHash": "0x7c194b1ac0d094b24997a1532922efa9a606e66fd7eee62e6a69d057b9eb561f",
      "transactionIndex": "0x88",
      "blockHash": "0xe9d1eb926d56edb521b0d0cb3ee0574592e8b6c54723f66b96c6a53130894bcf",
      "blockNumber": "0x76ae7a",
      "gasUsed": "0x95460",
      "effectiveGasPrice": "0x5293becd9",
      "from": "0xe62ab4d111f968660c6b2188046f9b9ba53c4bae",
      "to": "0xf8fe7804ae6dbc7306ab5a97ae2302706170530c",
      "contractAddress": null
    },
    {
      "status": "0x1",
      "cumulativeGasUsed": "0x104b5c6",
      "logs": [],
      "logsBloom": "0x00000000000000000000000000000000000000000000000000000000000000000000000000000000000000000000000000000000000000000000000000000000000000000000000000000000000000000000000000000000000000000000000000000000000000000000000000000000000000000000000000000000000000000000000000000000000000000000000000000000000000000000000000000000000000000000000000000000000000000000000000000000000000000000000000000000000000000000000000000000000000000000000000000000000000000000000000000000000000000000000000000000000000000000000000000000",
      "type": "0x2",
      "transactionHash": "0x3bd265be232b3f577adf36f6572058e386163c8c47e1be5c59a915136a25d4b2",
      "transactionIndex": "0xb9",
      "blockHash": "0x5569aa382f75353ce2e74f03c0028e7f1ed9efef99989d4e06ac2cd582fd7732",
      "blockNumber": "0x76ae7b",
      "gasUsed": "0x83338",
      "effectiveGasPrice": "0x51b262e96",
      "from": "0xe62ab4d111f968660c6b2188046f9b9ba53c4bae",
      "to": "0xf8fe7804ae6dbc7306ab5a97ae2302706170530c",
      "contractAddress": null
    },
    {
      "status": "0x1",
      "cumulativeGasUsed": "0x158b757",
      "logs": [],
      "logsBloom": "0x00000000000000000000000000000000000000000000000000000000000000000000000000000000000000000000000000000000000000000000000000000000000000000000000000000000000000000000000000000000000000000000000000000000000000000000000000000000000000000000000000000000000000000000000000000000000000000000000000000000000000000000000000000000000000000000000000000000000000000000000000000000000000000000000000000000000000000000000000000000000000000000000000000000000000000000000000000000000000000000000000000000000000000000000000000000",
      "type": "0x2",
      "transactionHash": "0xb9bacf2d85d692bbf3394b856075b5e368a71f26ac20c1d61a8387a600ceef97",
      "transactionIndex": "0xa8",
      "blockHash": "0x6c12bebe2991a4f894f4cc02efd41e85608aa65c3a1865cf7d41762aaa72d0f3",
      "blockNumber": "0x76ae7c",
      "gasUsed": "0x83157",
      "effectiveGasPrice": "0x519e2cdfb",
      "from": "0xe62ab4d111f968660c6b2188046f9b9ba53c4bae",
      "to": "0xf8fe7804ae6dbc7306ab5a97ae2302706170530c",
      "contractAddress": null
    }
  ],
  "libraries": [],
  "pending": [],
  "returns": {},
  "timestamp": 1740427261,
  "chain": 11155111,
  "commit": "82ab662e"
}