{
  "transactions": [
    {
      "hash": "0x706d849e3c59f200191c23fd6238dd3bfbd979d274671ef1c12e0c1c7dc575aa",
      "transactionType": "CALL",
      "contractName": null,
      "contractAddress": "0xbb348a6f2227e56a210097f808025ca3635bee1d",
      "function": "addChainContract(string[],string[])",
      "arguments": [
        "[43113]",
        "[0x005c5fd1585a73817107bfd3929f7e559750ceed]"
      ],
      "transaction": {
        "from": "0xe62ab4d111f968660c6b2188046f9b9ba53c4bae",
        "to": "0xbb348a6f2227e56a210097f808025ca3635bee1d",
        "gas": "0x4b948",
        "value": "0x0",
        "input": "0x013fd3bd000000000000000000000000000000000000000000000000000000000000004000000000000000000000000000000000000000000000000000000000000000c0000000000000000000000000000000000000000000000000000000000000000100000000000000000000000000000000000000000000000000000000000000200000000000000000000000000000000000000000000000000000000000000005343331313300000000000000000000000000000000000000000000000000000000000000000000000000000000000000000000000000000000000000000000010000000000000000000000000000000000000000000000000000000000000020000000000000000000000000000000000000000000000000000000000000002a30783030356335666431353835613733383137313037626664333932396637653535393735306365656400000000000000000000000000000000000000000000",
        "nonce": "0x308",
        "chainId": "0xaa36a7"
      },
      "additionalContracts": [],
      "isFixedGasLimit": false
    },
    {
      "hash": "0xc0c9c5ef2837d0a06f27aee354331a1fafdc3643b8b9597ef4a0e5120d68cc93",
      "transactionType": "CALL",
      "contractName": null,
      "contractAddress": "0xbb348a6f2227e56a210097f808025ca3635bee1d",
      "function": "attachRWAX(uint256,uint256,string[],string[])",
      "arguments": [
        "1",
        "1",
        "[43113]",
        "[0xdef5d31e4b2e0bf38af3e8092a5abf51db484eec]"
      ],
      "transaction": {
        "from": "0xe62ab4d111f968660c6b2188046f9b9ba53c4bae",
        "to": "0xbb348a6f2227e56a210097f808025ca3635bee1d",
        "gas": "0x5c781",
        "value": "0x0",
        "input": "0x33a5f5b40000000000000000000000000000000000000000000000000000000000000001000000000000000000000000000000000000000000000000000000000000000100000000000000000000000000000000000000000000000000000000000000800000000000000000000000000000000000000000000000000000000000000100000000000000000000000000000000000000000000000000000000000000000100000000000000000000000000000000000000000000000000000000000000200000000000000000000000000000000000000000000000000000000000000005343331313300000000000000000000000000000000000000000000000000000000000000000000000000000000000000000000000000000000000000000000010000000000000000000000000000000000000000000000000000000000000020000000000000000000000000000000000000000000000000000000000000002a30786465663564333165346232653062663338616633653830393261356162663531646234383465656300000000000000000000000000000000000000000000",
        "nonce": "0x309",
        "chainId": "0xaa36a7"
      },
      "additionalContracts": [],
      "isFixedGasLimit": false
    },
    {
      "hash": "0xfe7a2be2d936681a526c270075bf0a3fc5368ad4fb769a15a54f19514e5d4abd",
      "transactionType": "CALL",
      "contractName": null,
      "contractAddress": "0xbb348a6f2227e56a210097f808025ca3635bee1d",
      "function": "attachStorageManager(uint256,uint256,string[],string[])",
      "arguments": [
        "1",
        "1",
        "[43113]",
        "[0xcacf2003d4bc2e19c865e65ebb9d57c440217f0f]"
      ],
      "transaction": {
        "from": "0xe62ab4d111f968660c6b2188046f9b9ba53c4bae",
        "to": "0xbb348a6f2227e56a210097f808025ca3635bee1d",
        "gas": "0x525dd",
        "value": "0x0",
        "input": "0x2f68b4890000000000000000000000000000000000000000000000000000000000000001000000000000000000000000000000000000000000000000000000000000000100000000000000000000000000000000000000000000000000000000000000800000000000000000000000000000000000000000000000000000000000000100000000000000000000000000000000000000000000000000000000000000000100000000000000000000000000000000000000000000000000000000000000200000000000000000000000000000000000000000000000000000000000000005343331313300000000000000000000000000000000000000000000000000000000000000000000000000000000000000000000000000000000000000000000010000000000000000000000000000000000000000000000000000000000000020000000000000000000000000000000000000000000000000000000000000002a30786361636632303033643462633265313963383635653635656262396435376334343032313766306600000000000000000000000000000000000000000000",
        "nonce": "0x30a",
        "chainId": "0xaa36a7"
      },
      "additionalContracts": [],
      "isFixedGasLimit": false
    },
    {
      "hash": "0xf862d9ad34f0fc719f82e67a8e1be2b31ff34d046b37b5099b72346af6ba680e",
      "transactionType": "CALL",
      "contractName": null,
      "contractAddress": "0xbb348a6f2227e56a210097f808025ca3635bee1d",
      "function": "attachSentryManager(uint256,uint256,string[],string[])",
      "arguments": [
        "1",
        "1",
        "[43113]",
        "[0xf53fb9bb64ab9d3d78f976735762c5af9b5ff341]"
      ],
      "transaction": {
        "from": "0xe62ab4d111f968660c6b2188046f9b9ba53c4bae",
        "to": "0xbb348a6f2227e56a210097f808025ca3635bee1d",
        "gas": "0x4dc51",
        "value": "0x0",
        "input": "0x349de7970000000000000000000000000000000000000000000000000000000000000001000000000000000000000000000000000000000000000000000000000000000100000000000000000000000000000000000000000000000000000000000000800000000000000000000000000000000000000000000000000000000000000100000000000000000000000000000000000000000000000000000000000000000100000000000000000000000000000000000000000000000000000000000000200000000000000000000000000000000000000000000000000000000000000005343331313300000000000000000000000000000000000000000000000000000000000000000000000000000000000000000000000000000000000000000000010000000000000000000000000000000000000000000000000000000000000020000000000000000000000000000000000000000000000000000000000000002a30786635336662396262363461623964336437386639373637333537363263356166396235666633343100000000000000000000000000000000000000000000",
        "nonce": "0x30b",
        "chainId": "0xaa36a7"
      },
      "additionalContracts": [],
      "isFixedGasLimit": false
    }
  ],
  "receipts": [
    {
      "status": "0x1",
      "cumulativeGasUsed": "0xac93c0",
      "logs": [],
      "logsBloom": "0x00000000000000000000000000000000000000000000000000000000000000000000000000000000000000000000000000000000000000000000000000000000000000000000000000000000000000000000000000000000000000000000000000000000000000000000000000000000000000000000000000000000000000000000000000000000000000000000000000000000000000000000000000000000000000000000000000000000000000000000000000000000000000000000000000000000000000000000000000000000000000000000000000000000000000000000000000000000000000000000000000000000000000000000000000000000",
      "type": "0x2",
      "transactionHash": "0x706d849e3c59f200191c23fd6238dd3bfbd979d274671ef1c12e0c1c7dc575aa",
      "transactionIndex": "0x4c",
      "blockHash": "0xc21a8449570fbe11d174e5ff97e214b25867ceee9f8940b051b514739d139067",
      "blockNumber": "0x798c3b",
      "gasUsed": "0x36b80",
      "effectiveGasPrice": "0x3e2027",
      "from": "0xe62ab4d111f968660c6b2188046f9b9ba53c4bae",
      "to": "0xbb348a6f2227e56a210097f808025ca3635bee1d",
      "contractAddress": null
    },
    {
      "status": "0x1",
      "cumulativeGasUsed": "0xdede96",
      "logs": [],
      "logsBloom": "0x00000000000000000000000000000000000000000000000000000000000000000000000000000000000000000000000000000000000000000000000000000000000000000000000000000000000000000000000000000000000000000000000000000000000000000000000000000000000000000000000000000000000000000000000000000000000000000000000000000000000000000000000000000000000000000000000000000000000000000000000000000000000000000000000000000000000000000000000000000000000000000000000000000000000000000000000000000000000000000000000000000000000000000000000000000000",
      "type": "0x2",
      "transactionHash": "0xc0c9c5ef2837d0a06f27aee354331a1fafdc3643b8b9597ef4a0e5120d68cc93",
      "transactionIndex": "0x66",
      "blockHash": "0xdded72e2ca1eb1939165bd1d95f625bcb7a771be78e21673a197ec121d766330",
      "blockNumber": "0x798c3c",
      "gasUsed": "0x3f3a1",
      "effectiveGasPrice": "0x3de874",
      "from": "0xe62ab4d111f968660c6b2188046f9b9ba53c4bae",
      "to": "0xbb348a6f2227e56a210097f808025ca3635bee1d",
      "contractAddress": null
    },
    {
      "status": "0x1",
      "cumulativeGasUsed": "0x93caec",
      "logs": [],
      "logsBloom": "0x00000000000000000000000000000000000000000000000000000000000000000000000000000000000000000000000000000000000000000000000000000000000000000000000000000000000000000000000000000000000000000000000000000000000000000000000000000000000000000000000000000000000000000000000000000000000000000000000000000000000000000000000000000000000000000000000000000000000000000000000000000000000000000000000000000000000000000000000000000000000000000000000000000000000000000000000000000000000000000000000000000000000000000000000000000000",
      "type": "0x2",
      "transactionHash": "0xfe7a2be2d936681a526c270075bf0a3fc5368ad4fb769a15a54f19514e5d4abd",
      "transactionIndex": "0x4a",
      "blockHash": "0xbb00ecbac93981d6dc507b011ce1724e3fa0d0f99cc74c418dc2cc18e3712deb",
      "blockNumber": "0x798c3e",
      "gasUsed": "0x3851b",
      "effectiveGasPrice": "0x4337aa",
      "from": "0xe62ab4d111f968660c6b2188046f9b9ba53c4bae",
      "to": "0xbb348a6f2227e56a210097f808025ca3635bee1d",
      "contractAddress": null
    },
    {
      "status": "0x1",
      "cumulativeGasUsed": "0x6b7237",
      "logs": [],
      "logsBloom": "0x00000000000000000000000000000000000000000000000000000000000000000000000000000000000000000000000000000000000000000000000000000000000000000000000000000000000000000000000000000000000000000000000000000000000000000000000000000000000000000000000000000000000000000000000000000000000000000000000000000000000000000000000000000000000000000000000000000000000000000000000000000000000000000000000000000000000000000000000000000000000000000000000000000000000000000000000000000000000000000000000000000000000000000000000000000000",
      "type": "0x2",
      "transactionHash": "0xf862d9ad34f0fc719f82e67a8e1be2b31ff34d046b37b5099b72346af6ba680e",
      "transactionIndex": "0x49",
      "blockHash": "0xe6bfee121cfdc07cf9e8884480981786fefc0b3dfc7da2786004b890ebb01490",
      "blockNumber": "0x798c3f",
      "gasUsed": "0x384de",
      "effectiveGasPrice": "0x423917",
      "from": "0xe62ab4d111f968660c6b2188046f9b9ba53c4bae",
      "to": "0xbb348a6f2227e56a210097f808025ca3635bee1d",
      "contractAddress": null
    }
  ],
  "libraries": [],
  "pending": [],
  "returns": {},
  "timestamp": 1742756449,
  "chain": 11155111,
  "commit": "0d2d6543"
}