{
  "transactions": [
    {
      "hash": "0xb7c4a110222094f9f5ad07ab0ae778690ed2bda95682b3da82e2cd8541d29d75",
      "transactionType": "CALL",
      "contractName": "FeeManager",
      "contractAddress": "0x08d0f2f8368ce13206f4839c3ce9151be93893bc",
      "function": "getFeeTokenList()",
      "arguments": [],
      "transaction": {
        "from": "0xe62ab4d111f968660c6b2188046f9b9ba53c4bae",
        "to": "0x08d0f2f8368ce13206f4839c3ce9151be93893bc",
        "gas": "0x8a38",
        "value": "0x0",
        "input": "0xe28ab277",
        "nonce": "0x329",
        "chainId": "0xaa36a7"
      },
      "additionalContracts": [],
      "isFixedGasLimit": false
    },
    {
      "hash": "0xc7cd96fc5d5fbee1610905b39edc9c3bb5192b209fae8dfd3032ef43b4c64dd7",
      "transactionType": "CALL",
      "contractName": "FeeManager",
      "contractAddress": "0x08d0f2f8368ce13206f4839c3ce9151be93893bc",
      "function": "addFeeToken(string)",
      "arguments": [
        "0xa4c104db0937f1e886d5c9c9789d6f0e5bfba75c"
      ],
      "transaction": {
        "from": "0xe62ab4d111f968660c6b2188046f9b9ba53c4bae",
        "to": "0x08d0f2f8368ce13206f4839c3ce9151be93893bc",
        "gas": "0x266be",
        "value": "0x0",
        "input": "0x12a6385f0000000000000000000000000000000000000000000000000000000000000020000000000000000000000000000000000000000000000000000000000000002a30786134633130346462303933376631653838366435633963393738396436663065356266626137356300000000000000000000000000000000000000000000",
        "nonce": "0x32a",
        "chainId": "0xaa36a7"
      },
      "additionalContracts": [],
      "isFixedGasLimit": false
    },
    {
      "hash": "0xd893ddefd8aad6adec45561739cff4855bce22327e2f7a4dda20c7b58a4c2306",
      "transactionType": "CALL",
      "contractName": "FeeManager",
      "contractAddress": "0x08d0f2f8368ce13206f4839c3ce9151be93893bc",
      "function": "setFeeMultiplier(uint8,uint256)",
      "arguments": [
        "0",
        "2"
      ],
      "transaction": {
        "from": "0xe62ab4d111f968660c6b2188046f9b9ba53c4bae",
        "to": "0x08d0f2f8368ce13206f4839c3ce9151be93893bc",
        "gas": "0x112ba",
        "value": "0x0",
        "input": "0x0ee24eb500000000000000000000000000000000000000000000000000000000000000000000000000000000000000000000000000000000000000000000000000000002",
        "nonce": "0x32b",
        "chainId": "0xaa36a7"
      },
      "additionalContracts": [],
      "isFixedGasLimit": false
    },
    {
      "hash": "0x4da78de20c5b9d0ef3eca4275f393976a175c775624615ca77b13d8572ba789d",
      "transactionType": "CALL",
      "contractName": "FeeManager",
      "contractAddress": "0x08d0f2f8368ce13206f4839c3ce9151be93893bc",
      "function": "setFeeMultiplier(uint8,uint256)",
      "arguments": [
        "1",
        "10"
      ],
      "transaction": {
        "from": "0xe62ab4d111f968660c6b2188046f9b9ba53c4bae",
        "to": "0x08d0f2f8368ce13206f4839c3ce9151be93893bc",
        "gas": "0x103a6",
        "value": "0x0",
        "input": "0x0ee24eb50000000000000000000000000000000000000000000000000000000000000001000000000000000000000000000000000000000000000000000000000000000a",
        "nonce": "0x32c",
        "chainId": "0xaa36a7"
      },
      "additionalContracts": [],
      "isFixedGasLimit": false
    },
    {
      "hash": "0x7bb47a69016e0e486d8af2a53f17995c63cfdd4380faedbaa17b9ca7ede5c383",
      "transactionType": "CALL",
      "contractName": "FeeManager",
      "contractAddress": "0x08d0f2f8368ce13206f4839c3ce9151be93893bc",
      "function": "setFeeMultiplier(uint8,uint256)",
      "arguments": [
        "2",
        "1"
      ],
      "transaction": {
        "from": "0xe62ab4d111f968660c6b2188046f9b9ba53c4bae",
        "to": "0x08d0f2f8368ce13206f4839c3ce9151be93893bc",
        "gas": "0x1130e",
        "value": "0x0",
        "input": "0x0ee24eb500000000000000000000000000000000000000000000000000000000000000020000000000000000000000000000000000000000000000000000000000000001",
        "nonce": "0x32d",
        "chainId": "0xaa36a7"
      },
      "additionalContracts": [],
      "isFixedGasLimit": false
    },
    {
      "hash": "0xa663b53262866c6688011b1c2f2dc63bbd059929aeeb479044ff8602d5516f3f",
      "transactionType": "CALL",
      "contractName": "FeeManager",
      "contractAddress": "0x08d0f2f8368ce13206f4839c3ce9151be93893bc",
      "function": "setFeeMultiplier(uint8,uint256)",
      "arguments": [
        "3",
        "4"
      ],
      "transaction": {
        "from": "0xe62ab4d111f968660c6b2188046f9b9ba53c4bae",
        "to": "0x08d0f2f8368ce13206f4839c3ce9151be93893bc",
        "gas": "0x11330",
        "value": "0x0",
        "input": "0x0ee24eb500000000000000000000000000000000000000000000000000000000000000030000000000000000000000000000000000000000000000000000000000000004",
        "nonce": "0x32e",
        "chainId": "0xaa36a7"
      },
      "additionalContracts": [],
      "isFixedGasLimit": false
    },
    {
      "hash": "0xe9a107993cb3790fe15457ac1c6e34de279153601b188ccaf71ec17b6eed6fe9",
      "transactionType": "CALL",
      "contractName": "FeeManager",
      "contractAddress": "0x08d0f2f8368ce13206f4839c3ce9151be93893bc",
      "function": "setFeeMultiplier(uint8,uint256)",
      "arguments": [
        "4",
        "4"
      ],
      "transaction": {
        "from": "0xe62ab4d111f968660c6b2188046f9b9ba53c4bae",
        "to": "0x08d0f2f8368ce13206f4839c3ce9151be93893bc",
        "gas": "0x11352",
        "value": "0x0",
        "input": "0x0ee24eb500000000000000000000000000000000000000000000000000000000000000040000000000000000000000000000000000000000000000000000000000000004",
        "nonce": "0x32f",
        "chainId": "0xaa36a7"
      },
      "additionalContracts": [],
      "isFixedGasLimit": false
    },
    {
      "hash": "0x43cc059471e73b0d16c48e7d9f788a4a98bf3a914aa504ce7fd07f80e1c8c986",
      "transactionType": "CALL",
      "contractName": "FeeManager",
      "contractAddress": "0x08d0f2f8368ce13206f4839c3ce9151be93893bc",
      "function": "setFeeMultiplier(uint8,uint256)",
      "arguments": [
        "5",
        "4"
      ],
      "transaction": {
        "from": "0xe62ab4d111f968660c6b2188046f9b9ba53c4bae",
        "to": "0x08d0f2f8368ce13206f4839c3ce9151be93893bc",
        "gas": "0x10425",
        "value": "0x0",
        "input": "0x0ee24eb500000000000000000000000000000000000000000000000000000000000000050000000000000000000000000000000000000000000000000000000000000004",
        "nonce": "0x330",
        "chainId": "0xaa36a7"
      },
      "additionalContracts": [],
      "isFixedGasLimit": false
    },
    {
      "hash": "0xe401caf6388cd3ef859d043ba11fe039ea33388100ff9a09e599d819e225dfe1",
      "transactionType": "CALL",
      "contractName": "FeeManager",
      "contractAddress": "0x08d0f2f8368ce13206f4839c3ce9151be93893bc",
      "function": "setFeeMultiplier(uint8,uint256)",
      "arguments": [
        "6",
        "8"
      ],
      "transaction": {
        "from": "0xe62ab4d111f968660c6b2188046f9b9ba53c4bae",
        "to": "0x08d0f2f8368ce13206f4839c3ce9151be93893bc",
        "gas": "0x10444",
        "value": "0x0",
        "input": "0x0ee24eb500000000000000000000000000000000000000000000000000000000000000060000000000000000000000000000000000000000000000000000000000000008",
        "nonce": "0x331",
        "chainId": "0xaa36a7"
      },
      "additionalContracts": [],
      "isFixedGasLimit": false
    },
    {
      "hash": "0x2ed2943a39cfa67c6dc52fbe5c1da6e4735139cb6d14e5e14bd71d2ac13e2fb5",
      "transactionType": "CALL",
      "contractName": "FeeManager",
      "contractAddress": "0x08d0f2f8368ce13206f4839c3ce9151be93893bc",
      "function": "setFeeMultiplier(uint8,uint256)",
      "arguments": [
        "7",
        "4"
      ],
      "transaction": {
        "from": "0xe62ab4d111f968660c6b2188046f9b9ba53c4bae",
        "to": "0x08d0f2f8368ce13206f4839c3ce9151be93893bc",
        "gas": "0x10465",
        "value": "0x0",
        "input": "0x0ee24eb500000000000000000000000000000000000000000000000000000000000000070000000000000000000000000000000000000000000000000000000000000004",
        "nonce": "0x332",
        "chainId": "0xaa36a7"
      },
      "additionalContracts": [],
      "isFixedGasLimit": false
    },
    {
      "hash": "0x1b4a3a7811e97e135271f1ff6270929d28975c149486f980ac8735bf4ac872f2",
      "transactionType": "CALL",
      "contractName": "FeeManager",
      "contractAddress": "0x08d0f2f8368ce13206f4839c3ce9151be93893bc",
      "function": "setFeeMultiplier(uint8,uint256)",
      "arguments": [
        "8",
        "10"
      ],
      "transaction": {
        "from": "0xe62ab4d111f968660c6b2188046f9b9ba53c4bae",
        "to": "0x08d0f2f8368ce13206f4839c3ce9151be93893bc",
        "gas": "0x10484",
        "value": "0x0",
        "input": "0x0ee24eb50000000000000000000000000000000000000000000000000000000000000008000000000000000000000000000000000000000000000000000000000000000a",
        "nonce": "0x333",
        "chainId": "0xaa36a7"
      },
      "additionalContracts": [],
      "isFixedGasLimit": false
    },
    {
      "hash": "0x12adb729ef811c7dad126c41e4d20f8e50b1ab22d796d972cd78e79dae838c45",
      "transactionType": "CALL",
      "contractName": "FeeManager",
      "contractAddress": "0x08d0f2f8368ce13206f4839c3ce9151be93893bc",
      "function": "setFeeMultiplier(uint8,uint256)",
      "arguments": [
        "9",
        "8"
      ],
      "transaction": {
        "from": "0xe62ab4d111f968660c6b2188046f9b9ba53c4bae",
        "to": "0x08d0f2f8368ce13206f4839c3ce9151be93893bc",
        "gas": "0x104a5",
        "value": "0x0",
        "input": "0x0ee24eb500000000000000000000000000000000000000000000000000000000000000090000000000000000000000000000000000000000000000000000000000000008",
        "nonce": "0x334",
        "chainId": "0xaa36a7"
      },
      "additionalContracts": [],
      "isFixedGasLimit": false
    },
    {
      "hash": "0xa067bdf01b91056dd74886496a1548f85c823fe2430f895491f29907f53e5e6c",
      "transactionType": "CALL",
      "contractName": "FeeManager",
      "contractAddress": "0x08d0f2f8368ce13206f4839c3ce9151be93893bc",
      "function": "setFeeMultiplier(uint8,uint256)",
      "arguments": [
        "10",
        "8"
      ],
      "transaction": {
        "from": "0xe62ab4d111f968660c6b2188046f9b9ba53c4bae",
        "to": "0x08d0f2f8368ce13206f4839c3ce9151be93893bc",
        "gas": "0x1141b",
        "value": "0x0",
        "input": "0x0ee24eb5000000000000000000000000000000000000000000000000000000000000000a0000000000000000000000000000000000000000000000000000000000000008",
        "nonce": "0x335",
        "chainId": "0xaa36a7"
      },
      "additionalContracts": [],
      "isFixedGasLimit": false
    },
    {
      "hash": "0xd22457ae414566ae2f45e7afad541d2d0cfb206916003106d3ebfe0a9ce31c7a",
      "transactionType": "CALL",
      "contractName": "FeeManager",
      "contractAddress": "0x08d0f2f8368ce13206f4839c3ce9151be93893bc",
      "function": "setFeeMultiplier(uint8,uint256)",
      "arguments": [
        "11",
        "8"
      ],
      "transaction": {
        "from": "0xe62ab4d111f968660c6b2188046f9b9ba53c4bae",
        "to": "0x08d0f2f8368ce13206f4839c3ce9151be93893bc",
        "gas": "0x1143d",
        "value": "0x0",
        "input": "0x0ee24eb5000000000000000000000000000000000000000000000000000000000000000b0000000000000000000000000000000000000000000000000000000000000008",
        "nonce": "0x336",
        "chainId": "0xaa36a7"
      },
      "additionalContracts": [],
      "isFixedGasLimit": false
    },
    {
      "hash": "0x8256e3acd277deabfe71ba57dd952cdd11fd0ba0d2db33189b9d20d9c2018198",
      "transactionType": "CALL",
      "contractName": "FeeManager",
      "contractAddress": "0x08d0f2f8368ce13206f4839c3ce9151be93893bc",
      "function": "setFeeMultiplier(uint8,uint256)",
      "arguments": [
        "12",
        "20"
      ],
      "transaction": {
        "from": "0xe62ab4d111f968660c6b2188046f9b9ba53c4bae",
        "to": "0x08d0f2f8368ce13206f4839c3ce9151be93893bc",
        "gas": "0x1145f",
        "value": "0x0",
        "input": "0x0ee24eb5000000000000000000000000000000000000000000000000000000000000000c0000000000000000000000000000000000000000000000000000000000000014",
        "nonce": "0x337",
        "chainId": "0xaa36a7"
      },
      "additionalContracts": [],
      "isFixedGasLimit": false
    },
    {
      "hash": "0xb9b878a1b940999243739785999f81466baaf99f3f89dbbeb0ac7defe3e29143",
      "transactionType": "CALL",
      "contractName": "FeeManager",
      "contractAddress": "0x08d0f2f8368ce13206f4839c3ce9151be93893bc",
      "function": "setFeeMultiplier(uint8,uint256)",
      "arguments": [
        "13",
        "8"
      ],
      "transaction": {
        "from": "0xe62ab4d111f968660c6b2188046f9b9ba53c4bae",
        "to": "0x08d0f2f8368ce13206f4839c3ce9151be93893bc",
        "gas": "0x10524",
        "value": "0x0",
        "input": "0x0ee24eb5000000000000000000000000000000000000000000000000000000000000000d0000000000000000000000000000000000000000000000000000000000000008",
        "nonce": "0x338",
        "chainId": "0xaa36a7"
      },
      "additionalContracts": [],
      "isFixedGasLimit": false
    },
    {
      "hash": "0x8f1200d2eceb3feccab9c7441fa5a283459f641b577e59a14e6c360075d6e0d1",
      "transactionType": "CALL",
      "contractName": "FeeManager",
      "contractAddress": "0x08d0f2f8368ce13206f4839c3ce9151be93893bc",
      "function": "setFeeMultiplier(uint8,uint256)",
      "arguments": [
        "14",
        "4"
      ],
      "transaction": {
        "from": "0xe62ab4d111f968660c6b2188046f9b9ba53c4bae",
        "to": "0x08d0f2f8368ce13206f4839c3ce9151be93893bc",
        "gas": "0x10543",
        "value": "0x0",
        "input": "0x0ee24eb5000000000000000000000000000000000000000000000000000000000000000e0000000000000000000000000000000000000000000000000000000000000004",
        "nonce": "0x339",
        "chainId": "0xaa36a7"
      },
      "additionalContracts": [],
      "isFixedGasLimit": false
    },
    {
      "hash": "0xb7feba505f3a8d3c574c5d4931dc9bffcb5202506069f1af4dc8d315a6aa7a5d",
      "transactionType": "CALL",
      "contractName": "FeeManager",
      "contractAddress": "0x08d0f2f8368ce13206f4839c3ce9151be93893bc",
      "function": "setFeeMultiplier(uint8,uint256)",
      "arguments": [
        "15",
        "4"
      ],
      "transaction": {
        "from": "0xe62ab4d111f968660c6b2188046f9b9ba53c4bae",
        "to": "0x08d0f2f8368ce13206f4839c3ce9151be93893bc",
        "gas": "0x10562",
        "value": "0x0",
        "input": "0x0ee24eb5000000000000000000000000000000000000000000000000000000000000000f0000000000000000000000000000000000000000000000000000000000000004",
        "nonce": "0x33a",
        "chainId": "0xaa36a7"
      },
      "additionalContracts": [],
      "isFixedGasLimit": false
    },
    {
      "hash": "0x16bfe496ddf816a19d290ba77a951e77fbb6acf85449d1f03cf7916e62e4149c",
      "transactionType": "CALL",
      "contractName": "FeeManager",
      "contractAddress": "0x08d0f2f8368ce13206f4839c3ce9151be93893bc",
      "function": "setFeeMultiplier(uint8,uint256)",
      "arguments": [
        "16",
        "4"
      ],
      "transaction": {
        "from": "0xe62ab4d111f968660c6b2188046f9b9ba53c4bae",
        "to": "0x08d0f2f8368ce13206f4839c3ce9151be93893bc",
        "gas": "0x10583",
        "value": "0x0",
        "input": "0x0ee24eb500000000000000000000000000000000000000000000000000000000000000100000000000000000000000000000000000000000000000000000000000000004",
        "nonce": "0x33b",
        "chainId": "0xaa36a7"
      },
      "additionalContracts": [],
      "isFixedGasLimit": false
    },
    {
      "hash": "0xc412ecfd8ed12290bdd1749af8bac954aa0854ef7b2b8a9a33e473eb3584a0a2",
      "transactionType": "CALL",
      "contractName": "FeeManager",
      "contractAddress": "0x08d0f2f8368ce13206f4839c3ce9151be93893bc",
      "function": "setFeeMultiplier(uint8,uint256)",
      "arguments": [
        "17",
        "4"
      ],
      "transaction": {
        "from": "0xe62ab4d111f968660c6b2188046f9b9ba53c4bae",
        "to": "0x08d0f2f8368ce13206f4839c3ce9151be93893bc",
        "gas": "0x105a2",
        "value": "0x0",
        "input": "0x0ee24eb500000000000000000000000000000000000000000000000000000000000000110000000000000000000000000000000000000000000000000000000000000004",
        "nonce": "0x33c",
        "chainId": "0xaa36a7"
      },
      "additionalContracts": [],
      "isFixedGasLimit": false
    },
    {
      "hash": "0xbcefdccd20c820450dd9e698d345b45e055613589589f7005d9335e96dc6f4d3",
      "transactionType": "CALL",
      "contractName": "FeeManager",
      "contractAddress": "0x08d0f2f8368ce13206f4839c3ce9151be93893bc",
      "function": "setFeeMultiplier(uint8,uint256)",
      "arguments": [
        "18",
        "2"
      ],
      "transaction": {
        "from": "0xe62ab4d111f968660c6b2188046f9b9ba53c4bae",
        "to": "0x08d0f2f8368ce13206f4839c3ce9151be93893bc",
        "gas": "0x11528",
        "value": "0x0",
        "input": "0x0ee24eb500000000000000000000000000000000000000000000000000000000000000120000000000000000000000000000000000000000000000000000000000000002",
        "nonce": "0x33d",
        "chainId": "0xaa36a7"
      },
      "additionalContracts": [],
      "isFixedGasLimit": false
    },
    {
      "hash": "0x40a7d6d0b959543c0c71bbe4f2ed95a7adf80aa4371bee33e17fc79921883da9",
      "transactionType": "CALL",
      "contractName": "FeeManager",
      "contractAddress": "0x08d0f2f8368ce13206f4839c3ce9151be93893bc",
      "function": "setFeeMultiplier(uint8,uint256)",
      "arguments": [
        "19",
        "20"
      ],
      "transaction": {
        "from": "0xe62ab4d111f968660c6b2188046f9b9ba53c4bae",
        "to": "0x08d0f2f8368ce13206f4839c3ce9151be93893bc",
        "gas": "0x1154a",
        "value": "0x0",
        "input": "0x0ee24eb500000000000000000000000000000000000000000000000000000000000000130000000000000000000000000000000000000000000000000000000000000014",
        "nonce": "0x33e",
        "chainId": "0xaa36a7"
      },
      "additionalContracts": [],
      "isFixedGasLimit": false
    },
    {
      "hash": "0xd9d3f30f25ac928b77ad519f4a5df5af165bd816a8ad9c407878441450fe74b8",
      "transactionType": "CALL",
      "contractName": "FeeManager",
      "contractAddress": "0x08d0f2f8368ce13206f4839c3ce9151be93893bc",
      "function": "setFeeMultiplier(uint8,uint256)",
      "arguments": [
        "20",
        "2"
      ],
      "transaction": {
        "from": "0xe62ab4d111f968660c6b2188046f9b9ba53c4bae",
        "to": "0x08d0f2f8368ce13206f4839c3ce9151be93893bc",
        "gas": "0x1156c",
        "value": "0x0",
        "input": "0x0ee24eb500000000000000000000000000000000000000000000000000000000000000140000000000000000000000000000000000000000000000000000000000000002",
        "nonce": "0x33f",
        "chainId": "0xaa36a7"
      },
      "additionalContracts": [],
      "isFixedGasLimit": false
    },
    {
      "hash": "0xc60db634ec3e6436e5bf5bfd4018370d3185a724af1917d9174ea5230d9fbeeb",
      "transactionType": "CALL",
      "contractName": "FeeManager",
      "contractAddress": "0x08d0f2f8368ce13206f4839c3ce9151be93893bc",
      "function": "setFeeMultiplier(uint8,uint256)",
      "arguments": [
        "21",
        "1"
      ],
      "transaction": {
        "from": "0xe62ab4d111f968660c6b2188046f9b9ba53c4bae",
        "to": "0x08d0f2f8368ce13206f4839c3ce9151be93893bc",
        "gas": "0x10622",
        "value": "0x0",
        "input": "0x0ee24eb500000000000000000000000000000000000000000000000000000000000000150000000000000000000000000000000000000000000000000000000000000001",
        "nonce": "0x340",
        "chainId": "0xaa36a7"
      },
      "additionalContracts": [],
      "isFixedGasLimit": false
    },
    {
      "hash": "0xe845a9c22b328dea16ede7762eeddc590c29675ef33e9bfa90a96c8a15f4775a",
      "transactionType": "CALL",
      "contractName": "FeeManager",
      "contractAddress": "0x08d0f2f8368ce13206f4839c3ce9151be93893bc",
      "function": "setFeeMultiplier(uint8,uint256)",
      "arguments": [
        "22",
        "1"
      ],
      "transaction": {
        "from": "0xe62ab4d111f968660c6b2188046f9b9ba53c4bae",
        "to": "0x08d0f2f8368ce13206f4839c3ce9151be93893bc",
        "gas": "0x10641",
        "value": "0x0",
        "input": "0x0ee24eb500000000000000000000000000000000000000000000000000000000000000160000000000000000000000000000000000000000000000000000000000000001",
        "nonce": "0x341",
        "chainId": "0xaa36a7"
      },
      "additionalContracts": [],
      "isFixedGasLimit": false
    },
    {
      "hash": "0x9af3b4257e7db10ab24158b08a3d1492f85895bfa7050646d7553fdc5927d51f",
      "transactionType": "CALL",
      "contractName": "FeeManager",
      "contractAddress": "0x08d0f2f8368ce13206f4839c3ce9151be93893bc",
      "function": "setFeeMultiplier(uint8,uint256)",
      "arguments": [
        "23",
        "5"
      ],
      "transaction": {
        "from": "0xe62ab4d111f968660c6b2188046f9b9ba53c4bae",
        "to": "0x08d0f2f8368ce13206f4839c3ce9151be93893bc",
        "gas": "0x10661",
        "value": "0x0",
        "input": "0x0ee24eb500000000000000000000000000000000000000000000000000000000000000170000000000000000000000000000000000000000000000000000000000000005",
        "nonce": "0x342",
        "chainId": "0xaa36a7"
      },
      "additionalContracts": [],
      "isFixedGasLimit": false
    },
    {
      "hash": "0xcac30fe6687f448d6632c9fc4bff19a6ac93f67df4ad93c9c3c743b8ea89e6a4",
      "transactionType": "CALL",
      "contractName": "FeeManager",
      "contractAddress": "0x08d0f2f8368ce13206f4839c3ce9151be93893bc",
      "function": "addFeeToken(string,string[],uint256[])",
      "arguments": [
        "421614",
        "[0xa4c104db0937f1e886d5c9c9789d6f0e5bfba75c]",
        "[100]"
      ],
      "transaction": {
        "from": "0xe62ab4d111f968660c6b2188046f9b9ba53c4bae",
        "to": "0x08d0f2f8368ce13206f4839c3ce9151be93893bc",
        "gas": "0x2ee9f",
        "value": "0x0",
        "input": "0x437bf84f000000000000000000000000000000000000000000000000000000000000006000000000000000000000000000000000000000000000000000000000000000a000000000000000000000000000000000000000000000000000000000000001400000000000000000000000000000000000000000000000000000000000000006343231363134000000000000000000000000000000000000000000000000000000000000000000000000000000000000000000000000000000000000000000010000000000000000000000000000000000000000000000000000000000000020000000000000000000000000000000000000000000000000000000000000002a3078613463313034646230393337663165383836643563396339373839643666306535626662613735630000000000000000000000000000000000000000000000000000000000000000000000000000000000000000000000000000000000010000000000000000000000000000000000000000000000000000000000000064",
        "nonce": "0x343",
        "chainId": "0xaa36a7"
      },
      "additionalContracts": [],
      "isFixedGasLimit": false
    },
    {
      "hash": "0xc7d3875dca2afa38af5fd9c95193b8731d79c61321d5292c3ea4c60aeb54c860",
      "transactionType": "CALL",
      "contractName": "FeeManager",
      "contractAddress": "0x08d0f2f8368ce13206f4839c3ce9151be93893bc",
      "function": "addFeeToken(string,string[],uint256[])",
      "arguments": [
        "84532",
        "[0xa4c104db0937f1e886d5c9c9789d6f0e5bfba75c]",
        "[100]"
      ],
      "transaction": {
        "from": "0xe62ab4d111f968660c6b2188046f9b9ba53c4bae",
        "to": "0x08d0f2f8368ce13206f4839c3ce9151be93893bc",
        "gas": "0x29b1e",
        "value": "0x0",
        "input": "0x437bf84f000000000000000000000000000000000000000000000000000000000000006000000000000000000000000000000000000000000000000000000000000000a000000000000000000000000000000000000000000000000000000000000001400000000000000000000000000000000000000000000000000000000000000005383435333200000000000000000000000000000000000000000000000000000000000000000000000000000000000000000000000000000000000000000000010000000000000000000000000000000000000000000000000000000000000020000000000000000000000000000000000000000000000000000000000000002a3078613463313034646230393337663165383836643563396339373839643666306535626662613735630000000000000000000000000000000000000000000000000000000000000000000000000000000000000000000000000000000000010000000000000000000000000000000000000000000000000000000000000064",
        "nonce": "0x344",
        "chainId": "0xaa36a7"
      },
      "additionalContracts": [],
      "isFixedGasLimit": false
    },
    {
      "hash": "0xa13fba600d727c5f0e99ce979987c47fe86bba3c08257293c4cf13d2c597d503",
      "transactionType": "CALL",
      "contractName": "FeeManager",
      "contractAddress": "0x08d0f2f8368ce13206f4839c3ce9151be93893bc",
      "function": "addFeeToken(string,string[],uint256[])",
      "arguments": [
        "80002",
        "[0xa4c104db0937f1e886d5c9c9789d6f0e5bfba75c]",
        "[100]"
      ],
      "transaction": {
        "from": "0xe62ab4d111f968660c6b2188046f9b9ba53c4bae",
        "to": "0x08d0f2f8368ce13206f4839c3ce9151be93893bc",
        "gas": "0x29b1e",
        "value": "0x0",
        "input": "0x437bf84f000000000000000000000000000000000000000000000000000000000000006000000000000000000000000000000000000000000000000000000000000000a000000000000000000000000000000000000000000000000000000000000001400000000000000000000000000000000000000000000000000000000000000005383030303200000000000000000000000000000000000000000000000000000000000000000000000000000000000000000000000000000000000000000000010000000000000000000000000000000000000000000000000000000000000020000000000000000000000000000000000000000000000000000000000000002a3078613463313034646230393337663165383836643563396339373839643666306535626662613735630000000000000000000000000000000000000000000000000000000000000000000000000000000000000000000000000000000000010000000000000000000000000000000000000000000000000000000000000064",
        "nonce": "0x345",
        "chainId": "0xaa36a7"
      },
      "additionalContracts": [],
      "isFixedGasLimit": false
    },
    {
      "hash": "0x952bc49567b9664ca2fabcc2c69c35ca51d1b2eecf49b96d9025ce19f896b4dc",
      "transactionType": "CALL",
      "contractName": "FeeManager",
      "contractAddress": "0x08d0f2f8368ce13206f4839c3ce9151be93893bc",
      "function": "addFeeToken(string,string[],uint256[])",
      "arguments": [
        "11155111",
        "[0xa4c104db0937f1e886d5c9c9789d6f0e5bfba75c]",
        "[100]"
      ],
      "transaction": {
        "from": "0xe62ab4d111f968660c6b2188046f9b9ba53c4bae",
        "to": "0x08d0f2f8368ce13206f4839c3ce9151be93893bc",
        "gas": "0x2a135",
        "value": "0x0",
        "input": "0x437bf84f000000000000000000000000000000000000000000000000000000000000006000000000000000000000000000000000000000000000000000000000000000a000000000000000000000000000000000000000000000000000000000000001400000000000000000000000000000000000000000000000000000000000000008313131353531313100000000000000000000000000000000000000000000000000000000000000000000000000000000000000000000000000000000000000010000000000000000000000000000000000000000000000000000000000000020000000000000000000000000000000000000000000000000000000000000002a3078613463313034646230393337663165383836643563396339373839643666306535626662613735630000000000000000000000000000000000000000000000000000000000000000000000000000000000000000000000000000000000010000000000000000000000000000000000000000000000000000000000000064",
        "nonce": "0x346",
        "chainId": "0xaa36a7"
      },
      "additionalContracts": [],
      "isFixedGasLimit": false
    },
    {
      "hash": "0xfa77d43c30482c6851fc64ff43a58cd43053311332725979f8fd0b589f1e5324",
      "transactionType": "CALL",
      "contractName": "FeeManager",
      "contractAddress": "0x08d0f2f8368ce13206f4839c3ce9151be93893bc",
      "function": "addFeeToken(string,string[],uint256[])",
      "arguments": [
        "97",
        "[0xa4c104db0937f1e886d5c9c9789d6f0e5bfba75c]",
        "[100]"
      ],
      "transaction": {
        "from": "0xe62ab4d111f968660c6b2188046f9b9ba53c4bae",
        "to": "0x08d0f2f8368ce13206f4839c3ce9151be93893bc",
        "gas": "0x29508",
        "value": "0x0",
        "input": "0x437bf84f000000000000000000000000000000000000000000000000000000000000006000000000000000000000000000000000000000000000000000000000000000a000000000000000000000000000000000000000000000000000000000000001400000000000000000000000000000000000000000000000000000000000000002393700000000000000000000000000000000000000000000000000000000000000000000000000000000000000000000000000000000000000000000000000010000000000000000000000000000000000000000000000000000000000000020000000000000000000000000000000000000000000000000000000000000002a3078613463313034646230393337663165383836643563396339373839643666306535626662613735630000000000000000000000000000000000000000000000000000000000000000000000000000000000000000000000000000000000010000000000000000000000000000000000000000000000000000000000000064",
        "nonce": "0x347",
        "chainId": "0xaa36a7"
      },
      "additionalContracts": [],
      "isFixedGasLimit": false
    },
    {
      "hash": "0x5a677778a7d2938f4df77a444cc3f655bac8a8917fb50bbc8f081151dfaab322",
      "transactionType": "CALL",
      "contractName": "FeeManager",
      "contractAddress": "0x08d0f2f8368ce13206f4839c3ce9151be93893bc",
      "function": "addFeeToken(string,string[],uint256[])",
      "arguments": [
        "1952959480",
        "[0xa4c104db0937f1e886d5c9c9789d6f0e5bfba75c]",
        "[100]"
      ],
      "transaction": {
        "from": "0xe62ab4d111f968660c6b2188046f9b9ba53c4bae",
        "to": "0x08d0f2f8368ce13206f4839c3ce9151be93893bc",
        "gas": "0x2a543",
        "value": "0x0",
        "input": "0x437bf84f000000000000000000000000000000000000000000000000000000000000006000000000000000000000000000000000000000000000000000000000000000a00000000000000000000000000000000000000000000000000000000000000140000000000000000000000000000000000000000000000000000000000000000a313935323935393438300000000000000000000000000000000000000000000000000000000000000000000000000000000000000000000000000000000000010000000000000000000000000000000000000000000000000000000000000020000000000000000000000000000000000000000000000000000000000000002a3078613463313034646230393337663165383836643563396339373839643666306535626662613735630000000000000000000000000000000000000000000000000000000000000000000000000000000000000000000000000000000000010000000000000000000000000000000000000000000000000000000000000064",
        "nonce": "0x348",
        "chainId": "0xaa36a7"
      },
      "additionalContracts": [],
      "isFixedGasLimit": false
    },
    {
      "hash": "0x5dde949253fc74cadbb02cd25110f031c5994412773c2364ca3426a34553e350",
      "transactionType": "CALL",
      "contractName": "FeeManager",
      "contractAddress": "0x08d0f2f8368ce13206f4839c3ce9151be93893bc",
      "function": "addFeeToken(string,string[],uint256[])",
      "arguments": [
        "5611",
        "[0xa4c104db0937f1e886d5c9c9789d6f0e5bfba75c]",
        "[100]"
      ],
      "transaction": {
        "from": "0xe62ab4d111f968660c6b2188046f9b9ba53c4bae",
        "to": "0x08d0f2f8368ce13206f4839c3ce9151be93893bc",
        "gas": "0x29917",
        "value": "0x0",
        "input": "0x437bf84f000000000000000000000000000000000000000000000000000000000000006000000000000000000000000000000000000000000000000000000000000000a000000000000000000000000000000000000000000000000000000000000001400000000000000000000000000000000000000000000000000000000000000004353631310000000000000000000000000000000000000000000000000000000000000000000000000000000000000000000000000000000000000000000000010000000000000000000000000000000000000000000000000000000000000020000000000000000000000000000000000000000000000000000000000000002a3078613463313034646230393337663165383836643563396339373839643666306535626662613735630000000000000000000000000000000000000000000000000000000000000000000000000000000000000000000000000000000000010000000000000000000000000000000000000000000000000000000000000064",
        "nonce": "0x349",
        "chainId": "0xaa36a7"
      },
      "additionalContracts": [],
      "isFixedGasLimit": false
    },
    {
      "hash": "0xf8d90693d37b8d3d88c3f0fcb14e6ccca7a1ae3a7490c19bbbc89f3aec15b154",
      "transactionType": "CALL",
      "contractName": "FeeManager",
      "contractAddress": "0x08d0f2f8368ce13206f4839c3ce9151be93893bc",
      "function": "addFeeToken(string,string[],uint256[])",
      "arguments": [
        "1946",
        "[0xa4c104db0937f1e886d5c9c9789d6f0e5bfba75c]",
        "[100]"
      ],
      "transaction": {
        "from": "0xe62ab4d111f968660c6b2188046f9b9ba53c4bae",
        "to": "0x08d0f2f8368ce13206f4839c3ce9151be93893bc",
        "gas": "0x29917",
        "value": "0x0",
        "input": "0x437bf84f000000000000000000000000000000000000000000000000000000000000006000000000000000000000000000000000000000000000000000000000000000a000000000000000000000000000000000000000000000000000000000000001400000000000000000000000000000000000000000000000000000000000000004313934360000000000000000000000000000000000000000000000000000000000000000000000000000000000000000000000000000000000000000000000010000000000000000000000000000000000000000000000000000000000000020000000000000000000000000000000000000000000000000000000000000002a3078613463313034646230393337663165383836643563396339373839643666306535626662613735630000000000000000000000000000000000000000000000000000000000000000000000000000000000000000000000000000000000010000000000000000000000000000000000000000000000000000000000000064",
        "nonce": "0x34a",
        "chainId": "0xaa36a7"
      },
      "additionalContracts": [],
      "isFixedGasLimit": false
    },
    {
      "hash": "0x71d89b6964ac2a0b35ad69e887ddba406074ce19da584563eaf564b819448523",
      "transactionType": "CALL",
      "contractName": "FeeManager",
      "contractAddress": "0x08d0f2f8368ce13206f4839c3ce9151be93893bc",
      "function": "addFeeToken(string,string[],uint256[])",
      "arguments": [
        "534351",
        "[0xa4c104db0937f1e886d5c9c9789d6f0e5bfba75c]",
        "[100]"
      ],
      "transaction": {
        "from": "0xe62ab4d111f968660c6b2188046f9b9ba53c4bae",
        "to": "0x08d0f2f8368ce13206f4839c3ce9151be93893bc",
        "gas": "0x29d26",
        "value": "0x0",
        "input": "0x437bf84f000000000000000000000000000000000000000000000000000000000000006000000000000000000000000000000000000000000000000000000000000000a000000000000000000000000000000000000000000000000000000000000001400000000000000000000000000000000000000000000000000000000000000006353334333531000000000000000000000000000000000000000000000000000000000000000000000000000000000000000000000000000000000000000000010000000000000000000000000000000000000000000000000000000000000020000000000000000000000000000000000000000000000000000000000000002a3078613463313034646230393337663165383836643563396339373839643666306535626662613735630000000000000000000000000000000000000000000000000000000000000000000000000000000000000000000000000000000000010000000000000000000000000000000000000000000000000000000000000064",
        "nonce": "0x34b",
        "chainId": "0xaa36a7"
      },
      "additionalContracts": [],
      "isFixedGasLimit": false
    },
    {
      "hash": "0xcd44dfd17ede6da5d1c2bb910f73ccc1aab6df3808c7421fb11933eb14500097",
      "transactionType": "CALL",
      "contractName": "FeeManager",
      "contractAddress": "0x08d0f2f8368ce13206f4839c3ce9151be93893bc",
      "function": "addFeeToken(string,string[],uint256[])",
      "arguments": [
        "17000",
        "[0xa4c104db0937f1e886d5c9c9789d6f0e5bfba75c]",
        "[100]"
      ],
      "transaction": {
        "from": "0xe62ab4d111f968660c6b2188046f9b9ba53c4bae",
        "to": "0x08d0f2f8368ce13206f4839c3ce9151be93893bc",
        "gas": "0x29b1e",
        "value": "0x0",
        "input": "0x437bf84f000000000000000000000000000000000000000000000000000000000000006000000000000000000000000000000000000000000000000000000000000000a000000000000000000000000000000000000000000000000000000000000001400000000000000000000000000000000000000000000000000000000000000005313730303000000000000000000000000000000000000000000000000000000000000000000000000000000000000000000000000000000000000000000000010000000000000000000000000000000000000000000000000000000000000020000000000000000000000000000000000000000000000000000000000000002a3078613463313034646230393337663165383836643563396339373839643666306535626662613735630000000000000000000000000000000000000000000000000000000000000000000000000000000000000000000000000000000000010000000000000000000000000000000000000000000000000000000000000064",
        "nonce": "0x34c",
        "chainId": "0xaa36a7"
      },
      "additionalContracts": [],
      "isFixedGasLimit": false
    },
    {
      "hash": "0x0ce89bfd71b956a41c7dbafb6385a316c50bd4eb7bd24cc42d8e0390ca08e9c6",
      "transactionType": "CALL",
      "contractName": "FeeManager",
      "contractAddress": "0x08d0f2f8368ce13206f4839c3ce9151be93893bc",
      "function": "addFeeToken(string,string[],uint256[])",
      "arguments": [
        "5003",
        "[0xa4c104db0937f1e886d5c9c9789d6f0e5bfba75c]",
        "[100]"
      ],
      "transaction": {
        "from": "0xe62ab4d111f968660c6b2188046f9b9ba53c4bae",
        "to": "0x08d0f2f8368ce13206f4839c3ce9151be93893bc",
        "gas": "0x29917",
        "value": "0x0",
        "input": "0x437bf84f000000000000000000000000000000000000000000000000000000000000006000000000000000000000000000000000000000000000000000000000000000a000000000000000000000000000000000000000000000000000000000000001400000000000000000000000000000000000000000000000000000000000000004353030330000000000000000000000000000000000000000000000000000000000000000000000000000000000000000000000000000000000000000000000010000000000000000000000000000000000000000000000000000000000000020000000000000000000000000000000000000000000000000000000000000002a3078613463313034646230393337663165383836643563396339373839643666306535626662613735630000000000000000000000000000000000000000000000000000000000000000000000000000000000000000000000000000000000010000000000000000000000000000000000000000000000000000000000000064",
        "nonce": "0x34d",
        "chainId": "0xaa36a7"
      },
      "additionalContracts": [],
      "isFixedGasLimit": false
    },
    {
      "hash": "0x88e75d0c9f1eb0fb781ad5421b44213580524083311ada05fe3ccd839a7155b5",
      "transactionType": "CALL",
      "contractName": "FeeManager",
      "contractAddress": "0x08d0f2f8368ce13206f4839c3ce9151be93893bc",
      "function": "addFeeToken(string,string[],uint256[])",
      "arguments": [
        "168587773",
        "[0xa4c104db0937f1e886d5c9c9789d6f0e5bfba75c]",
        "[100]"
      ],
      "transaction": {
        "from": "0xe62ab4d111f968660c6b2188046f9b9ba53c4bae",
        "to": "0x08d0f2f8368ce13206f4839c3ce9151be93893bc",
        "gas": "0x2a33b",
        "value": "0x0",
        "input": "0x437bf84f000000000000000000000000000000000000000000000000000000000000006000000000000000000000000000000000000000000000000000000000000000a000000000000000000000000000000000000000000000000000000000000001400000000000000000000000000000000000000000000000000000000000000009313638353837373733000000000000000000000000000000000000000000000000000000000000000000000000000000000000000000000000000000000000010000000000000000000000000000000000000000000000000000000000000020000000000000000000000000000000000000000000000000000000000000002a3078613463313034646230393337663165383836643563396339373839643666306535626662613735630000000000000000000000000000000000000000000000000000000000000000000000000000000000000000000000000000000000010000000000000000000000000000000000000000000000000000000000000064",
        "nonce": "0x34e",
        "chainId": "0xaa36a7"
      },
      "additionalContracts": [],
      "isFixedGasLimit": false
    },
    {
      "hash": "0xf3eb2f31eb53b5c5a7ca0f9e81dc3c00006835f4e928e9c0c558c22654073842",
      "transactionType": "CALL",
      "contractName": "FeeManager",
      "contractAddress": "0x08d0f2f8368ce13206f4839c3ce9151be93893bc",
      "function": "addFeeToken(string,string[],uint256[])",
      "arguments": [
        "153",
        "[0xa4c104db0937f1e886d5c9c9789d6f0e5bfba75c]",
        "[100]"
      ],
      "transaction": {
        "from": "0xe62ab4d111f968660c6b2188046f9b9ba53c4bae",
        "to": "0x08d0f2f8368ce13206f4839c3ce9151be93893bc",
        "gas": "0x2970f",
        "value": "0x0",
        "input": "0x437bf84f000000000000000000000000000000000000000000000000000000000000006000000000000000000000000000000000000000000000000000000000000000a000000000000000000000000000000000000000000000000000000000000001400000000000000000000000000000000000000000000000000000000000000003313533000000000000000000000000000000000000000000000000000000000000000000000000000000000000000000000000000000000000000000000000010000000000000000000000000000000000000000000000000000000000000020000000000000000000000000000000000000000000000000000000000000002a3078613463313034646230393337663165383836643563396339373839643666306535626662613735630000000000000000000000000000000000000000000000000000000000000000000000000000000000000000000000000000000000010000000000000000000000000000000000000000000000000000000000000064",
        "nonce": "0x34f",
        "chainId": "0xaa36a7"
      },
      "additionalContracts": [],
      "isFixedGasLimit": false
    },
    {
      "hash": "0x820894a3442c54ec7bed9a27dcdfd5a7de1630b3c4eb9cd60005fcbcdbbbe4b2",
      "transactionType": "CALL",
      "contractName": "FeeManager",
      "contractAddress": "0x08d0f2f8368ce13206f4839c3ce9151be93893bc",
      "function": "addFeeToken(string,string[],uint256[])",
      "arguments": [
        "11155420",
        "[0xa4c104db0937f1e886d5c9c9789d6f0e5bfba75c]",
        "[100]"
      ],
      "transaction": {
        "from": "0xe62ab4d111f968660c6b2188046f9b9ba53c4bae",
        "to": "0x08d0f2f8368ce13206f4839c3ce9151be93893bc",
        "gas": "0x2a135",
        "value": "0x0",
        "input": "0x437bf84f000000000000000000000000000000000000000000000000000000000000006000000000000000000000000000000000000000000000000000000000000000a000000000000000000000000000000000000000000000000000000000000001400000000000000000000000000000000000000000000000000000000000000008313131353534323000000000000000000000000000000000000000000000000000000000000000000000000000000000000000000000000000000000000000010000000000000000000000000000000000000000000000000000000000000020000000000000000000000000000000000000000000000000000000000000002a3078613463313034646230393337663165383836643563396339373839643666306535626662613735630000000000000000000000000000000000000000000000000000000000000000000000000000000000000000000000000000000000010000000000000000000000000000000000000000000000000000000000000064",
        "nonce": "0x350",
        "chainId": "0xaa36a7"
      },
      "additionalContracts": [],
      "isFixedGasLimit": false
    },
    {
      "hash": "0x09aabd6f8abe4600d3dc04cd03a3d5c8c47d14f00f27c08ca23b0c978e09cac5",
      "transactionType": "CALL",
      "contractName": "FeeManager",
      "contractAddress": "0x08d0f2f8368ce13206f4839c3ce9151be93893bc",
      "function": "addFeeToken(string,string[],uint256[])",
      "arguments": [
        "43113",
        "[0xa4c104db0937f1e886d5c9c9789d6f0e5bfba75c]",
        "[100]"
      ],
      "transaction": {
        "from": "0xe62ab4d111f968660c6b2188046f9b9ba53c4bae",
        "to": "0x08d0f2f8368ce13206f4839c3ce9151be93893bc",
        "gas": "0x29b1e",
        "value": "0x0",
        "input": "0x437bf84f000000000000000000000000000000000000000000000000000000000000006000000000000000000000000000000000000000000000000000000000000000a000000000000000000000000000000000000000000000000000000000000001400000000000000000000000000000000000000000000000000000000000000005343331313300000000000000000000000000000000000000000000000000000000000000000000000000000000000000000000000000000000000000000000010000000000000000000000000000000000000000000000000000000000000020000000000000000000000000000000000000000000000000000000000000002a3078613463313034646230393337663165383836643563396339373839643666306535626662613735630000000000000000000000000000000000000000000000000000000000000000000000000000000000000000000000000000000000010000000000000000000000000000000000000000000000000000000000000064",
        "nonce": "0x351",
        "chainId": "0xaa36a7"
      },
      "additionalContracts": [],
      "isFixedGasLimit": false
    },
    {
      "hash": "0x24cfc5d2f9e31fcada54b6a25988386eeb8061cf034d2711e3906cdf885b48f3",
      "transactionType": "CALL",
      "contractName": "CTMRWAGateway",
      "contractAddress": "0x13797c225f8e3645299f17d83365e0f5db1c1607",
      "function": "addChainContract(string[],string[])",
      "arguments": [
        "[421614, 84532, 80002, 97, 1952959480, 5611, 1946, 534351, 17000, 5003, 168587773, 153, 11155420, 43113]",
        "[0xfa89dd803b8872f991997778d26c74a3aecd9639, 0x31f21c6e2605d28e6b204cd323ff58421fc8dd00, 0x66db3f564807fdc689ec85285981ef464daeb943, 0x7a63f6b51c503e9a3354af8262e8c7129abdbbeb, 0x5fd63ca6c373cd35e8e373fb5fa7830a8783eced, 0x78f81b1aee019efaafe58853d96c5e9ac87be731, 0xa7441037961e31d4b64aca57417d7673fedc8fec, 0x1944f7fdd330af7b0e7c08349591213e35ed5948, 0x1eebc47aae37f2ea390869efe60db5a2cf2c9d80, 0xf5b9b2dcda465ad62b56390da5c36e4403e5ae92, 0xea4a06cb68aba869e6bf98edc4bdbc731d2d82e3, 0xfbdbf53eb371419e92c718ac76632c7f3617545a, 0xf74b4051a565399b114a0fd6a674ecab864ae186, 0x8176186fa521e54f12dd8011eb6729003e3d3fe0]"
      ],
      "transaction": {
        "from": "0xe62ab4d111f968660c6b2188046f9b9ba53c4bae",
        "to": "0x13797c225f8e3645299f17d83365e0f5db1c1607",
        "gas": "0x27da81",
        "value": "0x0",
        "input": "0x013fd3bd000000000000000000000000000000000000000000000000000000000000004000000000000000000000000000000000000000000000000000000000000005a0000000000000000000000000000000000000000000000000000000000000000e00000000000000000000000000000000000000000000000000000000000001c000000000000000000000000000000000000000000000000000000000000002000000000000000000000000000000000000000000000000000000000000000240000000000000000000000000000000000000000000000000000000000000028000000000000000000000000000000000000000000000000000000000000002c000000000000000000000000000000000000000000000000000000000000003000000000000000000000000000000000000000000000000000000000000000340000000000000000000000000000000000000000000000000000000000000038000000000000000000000000000000000000000000000000000000000000003c000000000000000000000000000000000000000000000000000000000000004000000000000000000000000000000000000000000000000000000000000000440000000000000000000000000000000000000000000000000000000000000048000000000000000000000000000000000000000000000000000000000000004c0000000000000000000000000000000000000000000000000000000000000050000000000000000000000000000000000000000000000000000000000000000063432313631340000000000000000000000000000000000000000000000000000000000000000000000000000000000000000000000000000000000000000000538343533320000000000000000000000000000000000000000000000000000000000000000000000000000000000000000000000000000000000000000000005383030303200000000000000000000000000000000000000000000000000000000000000000000000000000000000000000000000000000000000000000000023937000000000000000000000000000000000000000000000000000000000000000000000000000000000000000000000000000000000000000000000000000a3139353239353934383000000000000000000000000000000000000000000000000000000000000000000000000000000000000000000000000000000000000435363131000000000000000000000000000000000000000000000000000000000000000000000000000000000000000000000000000000000000000000000004313934360000000000000000000000000000000000000000000000000000000000000000000000000000000000000000000000000000000000000000000000063533343335310000000000000000000000000000000000000000000000000000000000000000000000000000000000000000000000000000000000000000000531373030300000000000000000000000000000000000000000000000000000000000000000000000000000000000000000000000000000000000000000000004353030330000000000000000000000000000000000000000000000000000000000000000000000000000000000000000000000000000000000000000000000093136383538373737330000000000000000000000000000000000000000000000000000000000000000000000000000000000000000000000000000000000000331353300000000000000000000000000000000000000000000000000000000000000000000000000000000000000000000000000000000000000000000000008313131353534323000000000000000000000000000000000000000000000000000000000000000000000000000000000000000000000000000000000000000053433313133000000000000000000000000000000000000000000000000000000000000000000000000000000000000000000000000000000000000000000000e00000000000000000000000000000000000000000000000000000000000001c00000000000000000000000000000000000000000000000000000000000000220000000000000000000000000000000000000000000000000000000000000028000000000000000000000000000000000000000000000000000000000000002e0000000000000000000000000000000000000000000000000000000000000034000000000000000000000000000000000000000000000000000000000000003a00000000000000000000000000000000000000000000000000000000000000400000000000000000000000000000000000000000000000000000000000000046000000000000000000000000000000000000000000000000000000000000004c00000000000000000000000000000000000000000000000000000000000000520000000000000000000000000000000000000000000000000000000000000058000000000000000000000000000000000000000000000000000000000000005e0000000000000000000000000000000000000000000000000000000000000064000000000000000000000000000000000000000000000000000000000000006a0000000000000000000000000000000000000000000000000000000000000002a30786661383964643830336238383732663939313939373737386432366337346133616563643936333900000000000000000000000000000000000000000000000000000000000000000000000000000000000000000000000000000000002a30783331663231633665323630356432386536623230346364333233666635383432316663386464303000000000000000000000000000000000000000000000000000000000000000000000000000000000000000000000000000000000002a30783636646233663536343830376664633638396563383532383539383165663436346461656239343300000000000000000000000000000000000000000000000000000000000000000000000000000000000000000000000000000000002a30783761363366366235316335303365396133333534616638323632653863373132396162646262656200000000000000000000000000000000000000000000000000000000000000000000000000000000000000000000000000000000002a30783566643633636136633337336364333565386533373366623566613738333061383738336563656400000000000000000000000000000000000000000000000000000000000000000000000000000000000000000000000000000000002a30783738663831623161656530313965666161666535383835336439366335653961633837626537333100000000000000000000000000000000000000000000000000000000000000000000000000000000000000000000000000000000002a30786137343431303337393631653331643462363461636135373431376437363733666564633866656300000000000000000000000000000000000000000000000000000000000000000000000000000000000000000000000000000000002a30783139343466376664643333306166376230653763303833343935393132313365333565643539343800000000000000000000000000000000000000000000000000000000000000000000000000000000000000000000000000000000002a30783165656263343761616533376632656133393038363965666536306462356132636632633964383000000000000000000000000000000000000000000000000000000000000000000000000000000000000000000000000000000000002a30786635623962326463646134363561643632623536333930646135633336653434303365356165393200000000000000000000000000000000000000000000000000000000000000000000000000000000000000000000000000000000002a30786561346130366362363861626138363965366266393865646334626462633733316432643832653300000000000000000000000000000000000000000000000000000000000000000000000000000000000000000000000000000000002a30786662646266353365623337313431396539326337313861633736363332633766333631373534356100000000000000000000000000000000000000000000000000000000000000000000000000000000000000000000000000000000002a30786637346234303531613536353339396231313461306664366136373465636162383634616531383600000000000000000000000000000000000000000000000000000000000000000000000000000000000000000000000000000000002a30783831373631383666613532316535346631326464383031316562363732393030336533643366653000000000000000000000000000000000000000000000",
        "nonce": "0x352",
        "chainId": "0xaa36a7"
      },
      "additionalContracts": [],
      "isFixedGasLimit": false
    },
    {
      "hash": "0x8f2cd2e0a9e07451d8a4a343c6c72cd3583f1a2a6e63eb2863c36d94643ffddf",
      "transactionType": "CALL",
      "contractName": "CTMRWAGateway",
      "contractAddress": "0x13797c225f8e3645299f17d83365e0f5db1c1607",
      "function": "attachRWAX(uint256,uint256,string[],string[])",
      "arguments": [
        "1",
        "1",
        "[11155111, 421614, 84532, 80002, 97, 1952959480, 5611, 1946, 534351, 17000, 5003, 168587773, 153, 11155420, 43113]",
        "[0x778511925d3243cf03a2486386ecc363e9ad6647, 0x8bd737f4ea451911edf0445acb1b7efdc9565221, 0x8736d3b789a6548cc8fb607da34ed860ab626322, 0x2da1b2763cf56b9df5cbbb5a996c7e8836d8c6d8, 0x37c7137dc6e3dc3c3637bfed3f6dbfbd43386429, 0x62421e1c0110aebd376e34411c2616c10eff9161, 0x7743150e59d6a27ec96ddda07b24131d0122b611, 0xf299832e535b9cc50d4002909061c320964d03fc, 0x1249d751e6a0b7b11b9e55cbf8bc7d397ac3c083, 0x9372cd1287e0bb6337802d80dff342348c85fd78, 0x6b39331e9478571bf6d55842aab470ba3196bd5a, 0x9a0f81de582ce9194feadc6ccefaf9ea70451616, 0xfdf17bece656a0ac2d1302305962122a968eea28, 0xb9de1c03eea7546d9db1fa6fc19dfa7443f0aede, 0x5e0d85dfa2827cd3065ab2d4af93e58dc82c5e96]"
      ],
      "transaction": {
        "from": "0xe62ab4d111f968660c6b2188046f9b9ba53c4bae",
        "to": "0x13797c225f8e3645299f17d83365e0f5db1c1607",
        "gas": "0x30b912",
        "value": "0x0",
        "input": "0x33a5f5b40000000000000000000000000000000000000000000000000000000000000001000000000000000000000000000000000000000000000000000000000000000100000000000000000000000000000000000000000000000000000000000000800000000000000000000000000000000000000000000000000000000000000640000000000000000000000000000000000000000000000000000000000000000f00000000000000000000000000000000000000000000000000000000000001e00000000000000000000000000000000000000000000000000000000000000220000000000000000000000000000000000000000000000000000000000000026000000000000000000000000000000000000000000000000000000000000002a000000000000000000000000000000000000000000000000000000000000002e00000000000000000000000000000000000000000000000000000000000000320000000000000000000000000000000000000000000000000000000000000036000000000000000000000000000000000000000000000000000000000000003a000000000000000000000000000000000000000000000000000000000000003e00000000000000000000000000000000000000000000000000000000000000420000000000000000000000000000000000000000000000000000000000000046000000000000000000000000000000000000000000000000000000000000004a000000000000000000000000000000000000000000000000000000000000004e0000000000000000000000000000000000000000000000000000000000000052000000000000000000000000000000000000000000000000000000000000005600000000000000000000000000000000000000000000000000000000000000008313131353531313100000000000000000000000000000000000000000000000000000000000000000000000000000000000000000000000000000000000000063432313631340000000000000000000000000000000000000000000000000000000000000000000000000000000000000000000000000000000000000000000538343533320000000000000000000000000000000000000000000000000000000000000000000000000000000000000000000000000000000000000000000005383030303200000000000000000000000000000000000000000000000000000000000000000000000000000000000000000000000000000000000000000000023937000000000000000000000000000000000000000000000000000000000000000000000000000000000000000000000000000000000000000000000000000a3139353239353934383000000000000000000000000000000000000000000000000000000000000000000000000000000000000000000000000000000000000435363131000000000000000000000000000000000000000000000000000000000000000000000000000000000000000000000000000000000000000000000004313934360000000000000000000000000000000000000000000000000000000000000000000000000000000000000000000000000000000000000000000000063533343335310000000000000000000000000000000000000000000000000000000000000000000000000000000000000000000000000000000000000000000531373030300000000000000000000000000000000000000000000000000000000000000000000000000000000000000000000000000000000000000000000004353030330000000000000000000000000000000000000000000000000000000000000000000000000000000000000000000000000000000000000000000000093136383538373737330000000000000000000000000000000000000000000000000000000000000000000000000000000000000000000000000000000000000331353300000000000000000000000000000000000000000000000000000000000000000000000000000000000000000000000000000000000000000000000008313131353534323000000000000000000000000000000000000000000000000000000000000000000000000000000000000000000000000000000000000000053433313133000000000000000000000000000000000000000000000000000000000000000000000000000000000000000000000000000000000000000000000f00000000000000000000000000000000000000000000000000000000000001e0000000000000000000000000000000000000000000000000000000000000024000000000000000000000000000000000000000000000000000000000000002a00000000000000000000000000000000000000000000000000000000000000300000000000000000000000000000000000000000000000000000000000000036000000000000000000000000000000000000000000000000000000000000003c00000000000000000000000000000000000000000000000000000000000000420000000000000000000000000000000000000000000000000000000000000048000000000000000000000000000000000000000000000000000000000000004e0000000000000000000000000000000000000000000000000000000000000054000000000000000000000000000000000000000000000000000000000000005a00000000000000000000000000000000000000000000000000000000000000600000000000000000000000000000000000000000000000000000000000000066000000000000000000000000000000000000000000000000000000000000006c00000000000000000000000000000000000000000000000000000000000000720000000000000000000000000000000000000000000000000000000000000002a30783737383531313932356433323433636630336132343836333836656363333633653961643636343700000000000000000000000000000000000000000000000000000000000000000000000000000000000000000000000000000000002a30783862643733376634656134353139313165646630343435616362316237656664633935363532323100000000000000000000000000000000000000000000000000000000000000000000000000000000000000000000000000000000002a30783837333664336237383961363534386363386662363037646133346564383630616236323633323200000000000000000000000000000000000000000000000000000000000000000000000000000000000000000000000000000000002a30783264613162323736336366353662396466356362626235613939366337653838333664386336643800000000000000000000000000000000000000000000000000000000000000000000000000000000000000000000000000000000002a30783337633731333764633665336463336333363337626665643366366462666264343333383634323900000000000000000000000000000000000000000000000000000000000000000000000000000000000000000000000000000000002a30783632343231653163303131306165626433373665333434313163323631366331306566663931363100000000000000000000000000000000000000000000000000000000000000000000000000000000000000000000000000000000002a30783737343331353065353964366132376563393664646461303762323431333164303132326236313100000000000000000000000000000000000000000000000000000000000000000000000000000000000000000000000000000000002a30786632393938333265353335623963633530643430303239303930363163333230393634643033666300000000000000000000000000000000000000000000000000000000000000000000000000000000000000000000000000000000002a30783132343964373531653661306237623131623965353563626638626337643339376163336330383300000000000000000000000000000000000000000000000000000000000000000000000000000000000000000000000000000000002a30783933373263643132383765306262363333373830326438306466663334323334386338356664373800000000000000000000000000000000000000000000000000000000000000000000000000000000000000000000000000000000002a30783662333933333165393437383537316266366435353834326161623437306261333139366264356100000000000000000000000000000000000000000000000000000000000000000000000000000000000000000000000000000000002a30783961306638316465353832636539313934666561646336636365666166396561373034353136313600000000000000000000000000000000000000000000000000000000000000000000000000000000000000000000000000000000002a30786664663137626563653635366130616332643133303233303539363231323261393638656561323800000000000000000000000000000000000000000000000000000000000000000000000000000000000000000000000000000000002a30786239646531633033656561373534366439646231666136666331396466613734343366306165646500000000000000000000000000000000000000000000000000000000000000000000000000000000000000000000000000000000002a30783565306438356466613238323763643330363561623264346166393365353864633832633565393600000000000000000000000000000000000000000000",
        "nonce": "0x353",
        "chainId": "0xaa36a7"
      },
      "additionalContracts": [],
      "isFixedGasLimit": false
    },
    {
      "hash": "0x61177ef59515a946c84c4476896185a84d005816efe44b7504a1f88718a18dbb",
      "transactionType": "CALL",
      "contractName": "CTMRWAGateway",
      "contractAddress": "0x13797c225f8e3645299f17d83365e0f5db1c1607",
      "function": "attachStorageManager(uint256,uint256,string[],string[])",
      "arguments": [
        "1",
        "1",
        "[11155111, 421614, 84532, 80002, 97, 1952959480, 5611, 1946, 534351, 17000, 5003, 168587773, 153, 11155420, 43113]",
        "[0x6681db630eb117050d78e0b89eb5619b35ea12e8, 0x7ab4de775c88e4aa4c93d0078d8318463fabfb13, 0x7e0858de387f30ebc0bc2f24a35dc4ad9231cffd, 0xb3d138f0613cc476faa8c5e2c1a64e90d9d506f3, 0x71645806ee984439adc3352abb5491ec03928e63, 0xe3a405aa844da4b6e83eae852ba471219163cbe0, 0x926df1f820af8e3cf53a58c94332eb16ba4cb4b5, 0x3f547b04f8cf9552434b7f3a51fc23247911b797, 0xb406b937c12e03d676727fc1bb686279eedbc178, 0xe148fbc6c35b6cecc50d18ebf69959a6a989cb7c, 0xf3f62daf8f096e5e1e8626cf2f35d816d454bc93, 0x8d4eee23a687b304e94eee3211f3058a60744502, 0x35f5b7a7469c7b3e3bb159335ec92ce74f7f11cd, 0x6429d598684efbe5a5ff70451e7b2c501c85e254, 0xae66c08b9d76eecaa74314c60f3305d43707acc9]"
      ],
      "transaction": {
        "from": "0xe62ab4d111f968660c6b2188046f9b9ba53c4bae",
        "to": "0x13797c225f8e3645299f17d83365e0f5db1c1607",
        "gas": "0x2b63b3",
        "value": "0x0",
        "input": "0x2f68b4890000000000000000000000000000000000000000000000000000000000000001000000000000000000000000000000000000000000000000000000000000000100000000000000000000000000000000000000000000000000000000000000800000000000000000000000000000000000000000000000000000000000000640000000000000000000000000000000000000000000000000000000000000000f00000000000000000000000000000000000000000000000000000000000001e00000000000000000000000000000000000000000000000000000000000000220000000000000000000000000000000000000000000000000000000000000026000000000000000000000000000000000000000000000000000000000000002a000000000000000000000000000000000000000000000000000000000000002e00000000000000000000000000000000000000000000000000000000000000320000000000000000000000000000000000000000000000000000000000000036000000000000000000000000000000000000000000000000000000000000003a000000000000000000000000000000000000000000000000000000000000003e00000000000000000000000000000000000000000000000000000000000000420000000000000000000000000000000000000000000000000000000000000046000000000000000000000000000000000000000000000000000000000000004a000000000000000000000000000000000000000000000000000000000000004e0000000000000000000000000000000000000000000000000000000000000052000000000000000000000000000000000000000000000000000000000000005600000000000000000000000000000000000000000000000000000000000000008313131353531313100000000000000000000000000000000000000000000000000000000000000000000000000000000000000000000000000000000000000063432313631340000000000000000000000000000000000000000000000000000000000000000000000000000000000000000000000000000000000000000000538343533320000000000000000000000000000000000000000000000000000000000000000000000000000000000000000000000000000000000000000000005383030303200000000000000000000000000000000000000000000000000000000000000000000000000000000000000000000000000000000000000000000023937000000000000000000000000000000000000000000000000000000000000000000000000000000000000000000000000000000000000000000000000000a3139353239353934383000000000000000000000000000000000000000000000000000000000000000000000000000000000000000000000000000000000000435363131000000000000000000000000000000000000000000000000000000000000000000000000000000000000000000000000000000000000000000000004313934360000000000000000000000000000000000000000000000000000000000000000000000000000000000000000000000000000000000000000000000063533343335310000000000000000000000000000000000000000000000000000000000000000000000000000000000000000000000000000000000000000000531373030300000000000000000000000000000000000000000000000000000000000000000000000000000000000000000000000000000000000000000000004353030330000000000000000000000000000000000000000000000000000000000000000000000000000000000000000000000000000000000000000000000093136383538373737330000000000000000000000000000000000000000000000000000000000000000000000000000000000000000000000000000000000000331353300000000000000000000000000000000000000000000000000000000000000000000000000000000000000000000000000000000000000000000000008313131353534323000000000000000000000000000000000000000000000000000000000000000000000000000000000000000000000000000000000000000053433313133000000000000000000000000000000000000000000000000000000000000000000000000000000000000000000000000000000000000000000000f00000000000000000000000000000000000000000000000000000000000001e0000000000000000000000000000000000000000000000000000000000000024000000000000000000000000000000000000000000000000000000000000002a00000000000000000000000000000000000000000000000000000000000000300000000000000000000000000000000000000000000000000000000000000036000000000000000000000000000000000000000000000000000000000000003c00000000000000000000000000000000000000000000000000000000000000420000000000000000000000000000000000000000000000000000000000000048000000000000000000000000000000000000000000000000000000000000004e0000000000000000000000000000000000000000000000000000000000000054000000000000000000000000000000000000000000000000000000000000005a00000000000000000000000000000000000000000000000000000000000000600000000000000000000000000000000000000000000000000000000000000066000000000000000000000000000000000000000000000000000000000000006c00000000000000000000000000000000000000000000000000000000000000720000000000000000000000000000000000000000000000000000000000000002a30783636383164623633306562313137303530643738653062383965623536313962333565613132653800000000000000000000000000000000000000000000000000000000000000000000000000000000000000000000000000000000002a30783761623464653737356338386534616134633933643030373864383331383436336661626662313300000000000000000000000000000000000000000000000000000000000000000000000000000000000000000000000000000000002a30783765303835386465333837663330656263306263326632346133356463346164393233316366666400000000000000000000000000000000000000000000000000000000000000000000000000000000000000000000000000000000002a30786233643133386630363133636334373666616138633565326331613634653930643964353036663300000000000000000000000000000000000000000000000000000000000000000000000000000000000000000000000000000000002a30783731363435383036656539383434333961646333333532616262353439316563303339323865363300000000000000000000000000000000000000000000000000000000000000000000000000000000000000000000000000000000002a30786533613430356161383434646134623665383365616538353262613437313231393136336362653000000000000000000000000000000000000000000000000000000000000000000000000000000000000000000000000000000000002a30783932366466316638323061663865336366353361353863393433333265623136626134636234623500000000000000000000000000000000000000000000000000000000000000000000000000000000000000000000000000000000002a30783366353437623034663863663935353234333462376633613531666332333234373931316237393700000000000000000000000000000000000000000000000000000000000000000000000000000000000000000000000000000000002a30786234303662393337633132653033643637363732376663316262363836323739656564626331373800000000000000000000000000000000000000000000000000000000000000000000000000000000000000000000000000000000002a30786531343866626336633335623663656363353064313865626636393935396136613938396362376300000000000000000000000000000000000000000000000000000000000000000000000000000000000000000000000000000000002a30786633663632646166386630393665356531653836323663663266333564383136643435346263393300000000000000000000000000000000000000000000000000000000000000000000000000000000000000000000000000000000002a30783864346565653233613638376233303465393465656533323131663330353861363037343435303200000000000000000000000000000000000000000000000000000000000000000000000000000000000000000000000000000000002a30783335663562376137343639633762336533626231353933333565633932636537346637663131636400000000000000000000000000000000000000000000000000000000000000000000000000000000000000000000000000000000002a30783634323964353938363834656662653561356666373034353165376232633530316338356532353400000000000000000000000000000000000000000000000000000000000000000000000000000000000000000000000000000000002a30786165363663303862396437366565636161373433313463363066333330356434333730376163633900000000000000000000000000000000000000000000",
        "nonce": "0x354",
        "chainId": "0xaa36a7"
      },
      "additionalContracts": [],
      "isFixedGasLimit": false
    },
    {
      "hash": "0x817babff08ea32bd6309d21efe404929cf6908ab66cb6612a08910d60fd12c73",
      "transactionType": "CALL",
      "contractName": "CTMRWAGateway",
      "contractAddress": "0x13797c225f8e3645299f17d83365e0f5db1c1607",
      "function": "attachSentryManager(uint256,uint256,string[],string[])",
      "arguments": [
        "1",
        "1",
        "[11155111, 421614, 84532, 80002, 97, 1952959480, 5611, 1946, 534351, 17000, 5003, 168587773, 153, 11155420, 43113]",
        "[0xf4842c8354fe42e85d6dcde11cfada1b80beaa33, 0xb63f83484b9bdbad5c574b4c89badf0359e78854, 0x669ab21e6cea598ea34cd1292680937c3def535c, 0xf32bc63a511b3b3deb8fb6aeb3c52ebc0541067e, 0x0d7b0bb763557ea0c7c2d938b5ae3d5ccbbf8d44, 0x4a707b416ee66af8b1671209ed48f5dcc00257bf, 0x3af6a526dd51c8b08fd54dbb624e042bb3b0a77e, 0xc04058e417de221448d4140fc1622de24121c5e3, 0x66dc636132fb9b7f6ed858928b65864d3fd0ea67, 0x208ec1ca3b07a50151c5741bc0e05c61beddad90, 0xb5f5be1ac436d8ad082c4804afeda73088730ed1, 0x0156a74fd9432446030f47f7c55f4d1fbfdf5e9a, 0x2b15aab31879e4b3a9dc521a3a4ebdb5d691d18a, 0xa31ac55003cde3ef9ce9c576a691d0f41586c20b, 0xf9edce2638da660f51ee08220a1a5a32fab61d61]"
      ],
      "transaction": {
        "from": "0xe62ab4d111f968660c6b2188046f9b9ba53c4bae",
        "to": "0x13797c225f8e3645299f17d83365e0f5db1c1607",
        "gas": "0x29074f",
        "value": "0x0",
        "input": "0x349de7970000000000000000000000000000000000000000000000000000000000000001000000000000000000000000000000000000000000000000000000000000000100000000000000000000000000000000000000000000000000000000000000800000000000000000000000000000000000000000000000000000000000000640000000000000000000000000000000000000000000000000000000000000000f00000000000000000000000000000000000000000000000000000000000001e00000000000000000000000000000000000000000000000000000000000000220000000000000000000000000000000000000000000000000000000000000026000000000000000000000000000000000000000000000000000000000000002a000000000000000000000000000000000000000000000000000000000000002e00000000000000000000000000000000000000000000000000000000000000320000000000000000000000000000000000000000000000000000000000000036000000000000000000000000000000000000000000000000000000000000003a000000000000000000000000000000000000000000000000000000000000003e00000000000000000000000000000000000000000000000000000000000000420000000000000000000000000000000000000000000000000000000000000046000000000000000000000000000000000000000000000000000000000000004a000000000000000000000000000000000000000000000000000000000000004e0000000000000000000000000000000000000000000000000000000000000052000000000000000000000000000000000000000000000000000000000000005600000000000000000000000000000000000000000000000000000000000000008313131353531313100000000000000000000000000000000000000000000000000000000000000000000000000000000000000000000000000000000000000063432313631340000000000000000000000000000000000000000000000000000000000000000000000000000000000000000000000000000000000000000000538343533320000000000000000000000000000000000000000000000000000000000000000000000000000000000000000000000000000000000000000000005383030303200000000000000000000000000000000000000000000000000000000000000000000000000000000000000000000000000000000000000000000023937000000000000000000000000000000000000000000000000000000000000000000000000000000000000000000000000000000000000000000000000000a3139353239353934383000000000000000000000000000000000000000000000000000000000000000000000000000000000000000000000000000000000000435363131000000000000000000000000000000000000000000000000000000000000000000000000000000000000000000000000000000000000000000000004313934360000000000000000000000000000000000000000000000000000000000000000000000000000000000000000000000000000000000000000000000063533343335310000000000000000000000000000000000000000000000000000000000000000000000000000000000000000000000000000000000000000000531373030300000000000000000000000000000000000000000000000000000000000000000000000000000000000000000000000000000000000000000000004353030330000000000000000000000000000000000000000000000000000000000000000000000000000000000000000000000000000000000000000000000093136383538373737330000000000000000000000000000000000000000000000000000000000000000000000000000000000000000000000000000000000000331353300000000000000000000000000000000000000000000000000000000000000000000000000000000000000000000000000000000000000000000000008313131353534323000000000000000000000000000000000000000000000000000000000000000000000000000000000000000000000000000000000000000053433313133000000000000000000000000000000000000000000000000000000000000000000000000000000000000000000000000000000000000000000000f00000000000000000000000000000000000000000000000000000000000001e0000000000000000000000000000000000000000000000000000000000000024000000000000000000000000000000000000000000000000000000000000002a00000000000000000000000000000000000000000000000000000000000000300000000000000000000000000000000000000000000000000000000000000036000000000000000000000000000000000000000000000000000000000000003c00000000000000000000000000000000000000000000000000000000000000420000000000000000000000000000000000000000000000000000000000000048000000000000000000000000000000000000000000000000000000000000004e0000000000000000000000000000000000000000000000000000000000000054000000000000000000000000000000000000000000000000000000000000005a00000000000000000000000000000000000000000000000000000000000000600000000000000000000000000000000000000000000000000000000000000066000000000000000000000000000000000000000000000000000000000000006c00000000000000000000000000000000000000000000000000000000000000720000000000000000000000000000000000000000000000000000000000000002a30786634383432633833353466653432653835643664636465313163666164613162383062656161333300000000000000000000000000000000000000000000000000000000000000000000000000000000000000000000000000000000002a30786236336638333438346239626462616435633537346234633839626164663033353965373838353400000000000000000000000000000000000000000000000000000000000000000000000000000000000000000000000000000000002a30783636396162323165366365613539386561333463643132393236383039333763336465663533356300000000000000000000000000000000000000000000000000000000000000000000000000000000000000000000000000000000002a30786633326263363361353131623362336465623866623661656233633532656263303534313036376500000000000000000000000000000000000000000000000000000000000000000000000000000000000000000000000000000000002a30783064376230626237363335353765613063376332643933386235616533643563636262663864343400000000000000000000000000000000000000000000000000000000000000000000000000000000000000000000000000000000002a30783461373037623431366565363661663862313637313230396564343866356463633030323537626600000000000000000000000000000000000000000000000000000000000000000000000000000000000000000000000000000000002a30783361663661353236646435316338623038666435346462623632346530343262623362306137376500000000000000000000000000000000000000000000000000000000000000000000000000000000000000000000000000000000002a30786330343035386534313764653232313434386434313430666331363232646532343132316335653300000000000000000000000000000000000000000000000000000000000000000000000000000000000000000000000000000000002a30783636646336333631333266623962376636656438353839323862363538363464336664306561363700000000000000000000000000000000000000000000000000000000000000000000000000000000000000000000000000000000002a30783230386563316361336230376135303135316335373431626330653035633631626564646164393000000000000000000000000000000000000000000000000000000000000000000000000000000000000000000000000000000000002a30786235663562653161633433366438616430383263343830346166656461373330383837333065643100000000000000000000000000000000000000000000000000000000000000000000000000000000000000000000000000000000002a30783031353661373466643934333234343630333066343766376335356634643166626664663565396100000000000000000000000000000000000000000000000000000000000000000000000000000000000000000000000000000000002a30783262313561616233313837396534623361396463353231613361346562646235643639316431386100000000000000000000000000000000000000000000000000000000000000000000000000000000000000000000000000000000002a30786133316163353530303363646533656639636539633537366136393164306634313538366332306200000000000000000000000000000000000000000000000000000000000000000000000000000000000000000000000000000000002a30786639656463653236333864613636306635316565303832323061316135613332666162363164363100000000000000000000000000000000000000000000",
        "nonce": "0x355",
        "chainId": "0xaa36a7"
      },
      "additionalContracts": [],
      "isFixedGasLimit": false
    }
  ],
  "receipts": [
    {
      "status": "0x1",
      "cumulativeGasUsed": "0xdcb3ea",
      "logs": [],
      "logsBloom": "0x00000000000000000000000000000000000000000000000000000000000000000000000000000000000000000000000000000000000000000000000000000000000000000000000000000000000000000000000000000000000000000000000000000000000000000000000000000000000000000000000000000000000000000000000000000000000000000000000000000000000000000000000000000000000000000000000000000000000000000000000000000000000000000000000000000000000000000000000000000000000000000000000000000000000000000000000000000000000000000000000000000000000000000000000000000000",
      "type": "0x2",
      "transactionHash": "0xb7c4a110222094f9f5ad07ab0ae778690ed2bda95682b3da82e2cd8541d29d75",
      "transactionIndex": "0x83",
      "blockHash": "0x6b4610e13b2945dd62b4ceeeb23f68bb919b427c293446a91c9faa2e12b1db62",
      "blockNumber": "0x807fbf",
      "gasUsed": "0x5e83",
      "effectiveGasPrice": "0xf425d",
      "from": "0xe62ab4d111f968660c6b2188046f9b9ba53c4bae",
      "to": "0x08d0f2f8368ce13206f4839c3ce9151be93893bc",
      "contractAddress": null
    },
    {
      "status": "0x1",
      "cumulativeGasUsed": "0xcd68c7",
      "logs": [
        {
          "address": "0x08d0f2f8368ce13206f4839c3ce9151be93893bc",
          "topics": [
            "0x1394cfab38f3fc78ed77ea6f9318782a446d96e7dc8e9a6b0149f6be25c08bcf",
            "0x000000000000000000000000a4c104db0937f1e886d5c9c9789d6f0e5bfba75c"
          ],
          "data": "0x",
          "blockHash": "0x0353af3e9a719fa31fd8cc95def352ae434574fc81b8a5e285d555a61297db09",
          "blockNumber": "0x807fc0",
          "transactionHash": "0xc7cd96fc5d5fbee1610905b39edc9c3bb5192b209fae8dfd3032ef43b4c64dd7",
          "transactionIndex": "0x62",
          "logIndex": "0x9a",
          "removed": false
        }
      ],
      "logsBloom": "0x00000000000000000040000000000000000000000010000000000000000000000000000000000000000400000000000000000000000000000000000000000000000000000000000000000000000000000000001000000000000000000000000000000000000000000000000000000000000000000000000000000000000002000000000100000000000000000000000000000000000000000000000000000000000000000000000000000000000000000000004100000000000000000000000000000000000000000000000000000000000000000000000000000000000000000000000000000000000002000000000000000000000000000000000000000000",
      "type": "0x2",
      "transactionHash": "0xc7cd96fc5d5fbee1610905b39edc9c3bb5192b209fae8dfd3032ef43b4c64dd7",
      "transactionIndex": "0x62",
      "blockHash": "0x0353af3e9a719fa31fd8cc95def352ae434574fc81b8a5e285d555a61297db09",
      "blockNumber": "0x807fc0",
      "gasUsed": "0x1bd10",
      "effectiveGasPrice": "0xf425c",
      "from": "0xe62ab4d111f968660c6b2188046f9b9ba53c4bae",
      "to": "0x08d0f2f8368ce13206f4839c3ce9151be93893bc",
      "contractAddress": null
    },
    {
      "status": "0x1",
      "cumulativeGasUsed": "0xc8ef69",
      "logs": [],
      "logsBloom": "0x00000000000000000000000000000000000000000000000000000000000000000000000000000000000000000000000000000000000000000000000000000000000000000000000000000000000000000000000000000000000000000000000000000000000000000000000000000000000000000000000000000000000000000000000000000000000000000000000000000000000000000000000000000000000000000000000000000000000000000000000000000000000000000000000000000000000000000000000000000000000000000000000000000000000000000000000000000000000000000000000000000000000000000000000000000000",
      "type": "0x2",
      "transactionHash": "0xd893ddefd8aad6adec45561739cff4855bce22327e2f7a4dda20c7b58a4c2306",
      "transactionIndex": "0x6b",
      "blockHash": "0xd87d323f2df6a609c08d24e39b51e4bee68deca4e6c8afca7cc4a69112326de5",
      "blockNumber": "0x807fc1",
      "gasUsed": "0xbbd9",
      "effectiveGasPrice": "0xf425b",
      "from": "0xe62ab4d111f968660c6b2188046f9b9ba53c4bae",
      "to": "0x08d0f2f8368ce13206f4839c3ce9151be93893bc",
      "contractAddress": null
    },
    {
      "status": "0x1",
      "cumulativeGasUsed": "0x1199f09",
      "logs": [],
      "logsBloom": "0x00000000000000000000000000000000000000000000000000000000000000000000000000000000000000000000000000000000000000000000000000000000000000000000000000000000000000000000000000000000000000000000000000000000000000000000000000000000000000000000000000000000000000000000000000000000000000000000000000000000000000000000000000000000000000000000000000000000000000000000000000000000000000000000000000000000000000000000000000000000000000000000000000000000000000000000000000000000000000000000000000000000000000000000000000000000",
      "type": "0x2",
      "transactionHash": "0x4da78de20c5b9d0ef3eca4275f393976a175c775624615ca77b13d8572ba789d",
      "transactionIndex": "0x71",
      "blockHash": "0x37bace31998ca3def802110f4310e571720b2c872c72166950e8427abbdccfaf",
      "blockNumber": "0x807fc2",
      "gasUsed": "0xbbfc",
      "effectiveGasPrice": "0xf425a",
      "from": "0xe62ab4d111f968660c6b2188046f9b9ba53c4bae",
      "to": "0x08d0f2f8368ce13206f4839c3ce9151be93893bc",
      "contractAddress": null
    },
    {
      "status": "0x1",
      "cumulativeGasUsed": "0x9604f3",
      "logs": [],
      "logsBloom": "0x00000000000000000000000000000000000000000000000000000000000000000000000000000000000000000000000000000000000000000000000000000000000000000000000000000000000000000000000000000000000000000000000000000000000000000000000000000000000000000000000000000000000000000000000000000000000000000000000000000000000000000000000000000000000000000000000000000000000000000000000000000000000000000000000000000000000000000000000000000000000000000000000000000000000000000000000000000000000000000000000000000000000000000000000000000000",
      "type": "0x2",
      "transactionHash": "0x7bb47a69016e0e486d8af2a53f17995c63cfdd4380faedbaa17b9ca7ede5c383",
      "transactionIndex": "0x5c",
      "blockHash": "0x54332ffe129c0d1f803d774418371ade91f280fa0a5fbf1a98c54cb9709c984a",
      "blockNumber": "0x807fc3",
      "gasUsed": "0xbc13",
      "effectiveGasPrice": "0xf425a",
      "from": "0xe62ab4d111f968660c6b2188046f9b9ba53c4bae",
      "to": "0x08d0f2f8368ce13206f4839c3ce9151be93893bc",
      "contractAddress": null
    },
    {
      "status": "0x1",
      "cumulativeGasUsed": "0xeb02ba",
      "logs": [],
      "logsBloom": "0x00000000000000000000000000000000000000000000000000000000000000000000000000000000000000000000000000000000000000000000000000000000000000000000000000000000000000000000000000000000000000000000000000000000000000000000000000000000000000000000000000000000000000000000000000000000000000000000000000000000000000000000000000000000000000000000000000000000000000000000000000000000000000000000000000000000000000000000000000000000000000000000000000000000000000000000000000000000000000000000000000000000000000000000000000000000",
      "type": "0x2",
      "transactionHash": "0xa663b53262866c6688011b1c2f2dc63bbd059929aeeb479044ff8602d5516f3f",
      "transactionIndex": "0x6b",
      "blockHash": "0x14ac2747aa39a9ab1c1e5ff8ebbb7885409cf97f46dfb6fb2b0f1f7c8e3d4910",
      "blockNumber": "0x807fc4",
      "gasUsed": "0xbc2a",
      "effectiveGasPrice": "0xf4259",
      "from": "0xe62ab4d111f968660c6b2188046f9b9ba53c4bae",
      "to": "0x08d0f2f8368ce13206f4839c3ce9151be93893bc",
      "contractAddress": null
    },
    {
      "status": "0x1",
      "cumulativeGasUsed": "0xc0f404",
      "logs": [],
      "logsBloom": "0x00000000000000000000000000000000000000000000000000000000000000000000000000000000000000000000000000000000000000000000000000000000000000000000000000000000000000000000000000000000000000000000000000000000000000000000000000000000000000000000000000000000000000000000000000000000000000000000000000000000000000000000000000000000000000000000000000000000000000000000000000000000000000000000000000000000000000000000000000000000000000000000000000000000000000000000000000000000000000000000000000000000000000000000000000000000",
      "type": "0x2",
      "transactionHash": "0xe9a107993cb3790fe15457ac1c6e34de279153601b188ccaf71ec17b6eed6fe9",
      "transactionIndex": "0x66",
      "blockHash": "0xec9a1e8eb91e5dabf14ebaa7a19da1c185d710205b103388f9c966c504bb8c61",
      "blockNumber": "0x807fc5",
      "gasUsed": "0xbc41",
      "effectiveGasPrice": "0xf4258",
      "from": "0xe62ab4d111f968660c6b2188046f9b9ba53c4bae",
      "to": "0x08d0f2f8368ce13206f4839c3ce9151be93893bc",
      "contractAddress": null
    },
    {
      "status": "0x1",
      "cumulativeGasUsed": "0xbfaf1a",
      "logs": [],
      "logsBloom": "0x00000000000000000000000000000000000000000000000000000000000000000000000000000000000000000000000000000000000000000000000000000000000000000000000000000000000000000000000000000000000000000000000000000000000000000000000000000000000000000000000000000000000000000000000000000000000000000000000000000000000000000000000000000000000000000000000000000000000000000000000000000000000000000000000000000000000000000000000000000000000000000000000000000000000000000000000000000000000000000000000000000000000000000000000000000000",
      "type": "0x2",
      "transactionHash": "0x43cc059471e73b0d16c48e7d9f788a4a98bf3a914aa504ce7fd07f80e1c8c986",
      "transactionIndex": "0x49",
      "blockHash": "0xb806afb03349cf8de6656eb10b17d791c8099ef23d0570ec9b9838c18dfc7b5a",
      "blockNumber": "0x807fc6",
      "gasUsed": "0xbc58",
      "effectiveGasPrice": "0xf4257",
      "from": "0xe62ab4d111f968660c6b2188046f9b9ba53c4bae",
      "to": "0x08d0f2f8368ce13206f4839c3ce9151be93893bc",
      "contractAddress": null
    },
    {
      "status": "0x1",
      "cumulativeGasUsed": "0xf9730c",
      "logs": [],
      "logsBloom": "0x00000000000000000000000000000000000000000000000000000000000000000000000000000000000000000000000000000000000000000000000000000000000000000000000000000000000000000000000000000000000000000000000000000000000000000000000000000000000000000000000000000000000000000000000000000000000000000000000000000000000000000000000000000000000000000000000000000000000000000000000000000000000000000000000000000000000000000000000000000000000000000000000000000000000000000000000000000000000000000000000000000000000000000000000000000000",
      "type": "0x2",
      "transactionHash": "0xe401caf6388cd3ef859d043ba11fe039ea33388100ff9a09e599d819e225dfe1",
      "transactionIndex": "0x5b",
      "blockHash": "0x40cc655b2e2a4df7fef77b25432e8f63e0695686de135476a70db1cadc93644a",
      "blockNumber": "0x807fc7",
      "gasUsed": "0xbc6f",
      "effectiveGasPrice": "0xf4256",
      "from": "0xe62ab4d111f968660c6b2188046f9b9ba53c4bae",
      "to": "0x08d0f2f8368ce13206f4839c3ce9151be93893bc",
      "contractAddress": null
    },
    {
      "status": "0x1",
      "cumulativeGasUsed": "0x8f9310",
      "logs": [],
      "logsBloom": "0x00000000000000000000000000000000000000000000000000000000000000000000000000000000000000000000000000000000000000000000000000000000000000000000000000000000000000000000000000000000000000000000000000000000000000000000000000000000000000000000000000000000000000000000000000000000000000000000000000000000000000000000000000000000000000000000000000000000000000000000000000000000000000000000000000000000000000000000000000000000000000000000000000000000000000000000000000000000000000000000000000000000000000000000000000000000",
      "type": "0x2",
      "transactionHash": "0x2ed2943a39cfa67c6dc52fbe5c1da6e4735139cb6d14e5e14bd71d2ac13e2fb5",
      "transactionIndex": "0x4a",
      "blockHash": "0xd9e4fe62e688c8e483bd143291ffbd7fbc79ed6e3ab2b7e829c490790de7b120",
      "blockNumber": "0x807fc8",
      "gasUsed": "0xbc86",
      "effectiveGasPrice": "0xf4256",
      "from": "0xe62ab4d111f968660c6b2188046f9b9ba53c4bae",
      "to": "0x08d0f2f8368ce13206f4839c3ce9151be93893bc",
      "contractAddress": null
    },
    {
      "status": "0x1",
      "cumulativeGasUsed": "0xa8922b",
      "logs": [],
      "logsBloom": "0x00000000000000000000000000000000000000000000000000000000000000000000000000000000000000000000000000000000000000000000000000000000000000000000000000000000000000000000000000000000000000000000000000000000000000000000000000000000000000000000000000000000000000000000000000000000000000000000000000000000000000000000000000000000000000000000000000000000000000000000000000000000000000000000000000000000000000000000000000000000000000000000000000000000000000000000000000000000000000000000000000000000000000000000000000000000",
      "type": "0x2",
      "transactionHash": "0x1b4a3a7811e97e135271f1ff6270929d28975c149486f980ac8735bf4ac872f2",
      "transactionIndex": "0x60",
      "blockHash": "0x2d34c3c939cef2043baf20334ab71d27ad9834d37c338d4f98905c461ff1013d",
      "blockNumber": "0x807fca",
      "gasUsed": "0xbc9d",
      "effectiveGasPrice": "0xf4253",
      "from": "0xe62ab4d111f968660c6b2188046f9b9ba53c4bae",
      "to": "0x08d0f2f8368ce13206f4839c3ce9151be93893bc",
      "contractAddress": null
    },
    {
      "status": "0x1",
      "cumulativeGasUsed": "0x7371e8",
      "logs": [],
      "logsBloom": "0x00000000000000000000000000000000000000000000000000000000000000000000000000000000000000000000000000000000000000000000000000000000000000000000000000000000000000000000000000000000000000000000000000000000000000000000000000000000000000000000000000000000000000000000000000000000000000000000000000000000000000000000000000000000000000000000000000000000000000000000000000000000000000000000000000000000000000000000000000000000000000000000000000000000000000000000000000000000000000000000000000000000000000000000000000000000",
      "type": "0x2",
      "transactionHash": "0x12adb729ef811c7dad126c41e4d20f8e50b1ab22d796d972cd78e79dae838c45",
      "transactionIndex": "0x56",
      "blockHash": "0x0b28fd8056d310c94605802653317b208eb6dd9d87795359a149d8841afa2898",
      "blockNumber": "0x807fcb",
      "gasUsed": "0xbcb4",
      "effectiveGasPrice": "0xf4253",
      "from": "0xe62ab4d111f968660c6b2188046f9b9ba53c4bae",
      "to": "0x08d0f2f8368ce13206f4839c3ce9151be93893bc",
      "contractAddress": null
    },
    {
      "status": "0x1",
      "cumulativeGasUsed": "0xbd0742",
      "logs": [],
      "logsBloom": "0x00000000000000000000000000000000000000000000000000000000000000000000000000000000000000000000000000000000000000000000000000000000000000000000000000000000000000000000000000000000000000000000000000000000000000000000000000000000000000000000000000000000000000000000000000000000000000000000000000000000000000000000000000000000000000000000000000000000000000000000000000000000000000000000000000000000000000000000000000000000000000000000000000000000000000000000000000000000000000000000000000000000000000000000000000000000",
      "type": "0x2",
      "transactionHash": "0xa067bdf01b91056dd74886496a1548f85c823fe2430f895491f29907f53e5e6c",
      "transactionIndex": "0x6e",
      "blockHash": "0xf20249bf6aa6ce3b878ff91c7c04f174ba8cefa3f0c8d522c198374baacf894d",
      "blockNumber": "0x807fcc",
      "gasUsed": "0xbccb",
      "effectiveGasPrice": "0xf4252",
      "from": "0xe62ab4d111f968660c6b2188046f9b9ba53c4bae",
      "to": "0x08d0f2f8368ce13206f4839c3ce9151be93893bc",
      "contractAddress": null
    },
    {
      "status": "0x1",
      "cumulativeGasUsed": "0x65ff34",
      "logs": [],
      "logsBloom": "0x00000000000000000000000000000000000000000000000000000000000000000000000000000000000000000000000000000000000000000000000000000000000000000000000000000000000000000000000000000000000000000000000000000000000000000000000000000000000000000000000000000000000000000000000000000000000000000000000000000000000000000000000000000000000000000000000000000000000000000000000000000000000000000000000000000000000000000000000000000000000000000000000000000000000000000000000000000000000000000000000000000000000000000000000000000000",
      "type": "0x2",
      "transactionHash": "0xd22457ae414566ae2f45e7afad541d2d0cfb206916003106d3ebfe0a9ce31c7a",
      "transactionIndex": "0x49",
      "blockHash": "0xfd74e3f117b72e9da9d9ff6798b0b8bde14a16c9df112bfecf718512b2acffc1",
      "blockNumber": "0x807fcd",
      "gasUsed": "0xbce2",
      "effectiveGasPrice": "0xf4253",
      "from": "0xe62ab4d111f968660c6b2188046f9b9ba53c4bae",
      "to": "0x08d0f2f8368ce13206f4839c3ce9151be93893bc",
      "contractAddress": null
    },
    {
      "status": "0x1",
      "cumulativeGasUsed": "0x90496c",
      "logs": [],
      "logsBloom": "0x00000000000000000000000000000000000000000000000000000000000000000000000000000000000000000000000000000000000000000000000000000000000000000000000000000000000000000000000000000000000000000000000000000000000000000000000000000000000000000000000000000000000000000000000000000000000000000000000000000000000000000000000000000000000000000000000000000000000000000000000000000000000000000000000000000000000000000000000000000000000000000000000000000000000000000000000000000000000000000000000000000000000000000000000000000000",
      "type": "0x2",
      "transactionHash": "0x8256e3acd277deabfe71ba57dd952cdd11fd0ba0d2db33189b9d20d9c2018198",
      "transactionIndex": "0x52",
      "blockHash": "0x9f7574493fb188afb198d4abc85d0e55d7a1a4a07d1ba688ef0ac64132eb5798",
      "blockNumber": "0x807fce",
      "gasUsed": "0xbcf9",
      "effectiveGasPrice": "0xf4252",
      "from": "0xe62ab4d111f968660c6b2188046f9b9ba53c4bae",
      "to": "0x08d0f2f8368ce13206f4839c3ce9151be93893bc",
      "contractAddress": null
    },
    {
      "status": "0x1",
      "cumulativeGasUsed": "0xc13794",
      "logs": [],
      "logsBloom": "0x00000000000000000000000000000000000000000000000000000000000000000000000000000000000000000000000000000000000000000000000000000000000000000000000000000000000000000000000000000000000000000000000000000000000000000000000000000000000000000000000000000000000000000000000000000000000000000000000000000000000000000000000000000000000000000000000000000000000000000000000000000000000000000000000000000000000000000000000000000000000000000000000000000000000000000000000000000000000000000000000000000000000000000000000000000000",
      "type": "0x2",
      "transactionHash": "0xb9b878a1b940999243739785999f81466baaf99f3f89dbbeb0ac7defe3e29143",
      "transactionIndex": "0x80",
      "blockHash": "0xaa19b07977eca41de4ab9e0fe4a903bf121805abeab795b067801247a3e38db6",
      "blockNumber": "0x807fcf",
      "gasUsed": "0xbd10",
      "effectiveGasPrice": "0xf4252",
      "from": "0xe62ab4d111f968660c6b2188046f9b9ba53c4bae",
      "to": "0x08d0f2f8368ce13206f4839c3ce9151be93893bc",
      "contractAddress": null
    },
    {
      "status": "0x1",
      "cumulativeGasUsed": "0xc0131b",
      "logs": [],
      "logsBloom": "0x00000000000000000000000000000000000000000000000000000000000000000000000000000000000000000000000000000000000000000000000000000000000000000000000000000000000000000000000000000000000000000000000000000000000000000000000000000000000000000000000000000000000000000000000000000000000000000000000000000000000000000000000000000000000000000000000000000000000000000000000000000000000000000000000000000000000000000000000000000000000000000000000000000000000000000000000000000000000000000000000000000000000000000000000000000000",
      "type": "0x2",
      "transactionHash": "0x8f1200d2eceb3feccab9c7441fa5a283459f641b577e59a14e6c360075d6e0d1",
      "transactionIndex": "0x62",
      "blockHash": "0x6684c8c36f152e1aebf303f54947b27f072e97959777689046b4db25a1c1e30d",
      "blockNumber": "0x807fd0",
      "gasUsed": "0xbd27",
      "effectiveGasPrice": "0xf4253",
      "from": "0xe62ab4d111f968660c6b2188046f9b9ba53c4bae",
      "to": "0x08d0f2f8368ce13206f4839c3ce9151be93893bc",
      "contractAddress": null
    },
    {
      "status": "0x1",
      "cumulativeGasUsed": "0x1506b30",
      "logs": [],
      "logsBloom": "0x00000000000000000000000000000000000000000000000000000000000000000000000000000000000000000000000000000000000000000000000000000000000000000000000000000000000000000000000000000000000000000000000000000000000000000000000000000000000000000000000000000000000000000000000000000000000000000000000000000000000000000000000000000000000000000000000000000000000000000000000000000000000000000000000000000000000000000000000000000000000000000000000000000000000000000000000000000000000000000000000000000000000000000000000000000000",
      "type": "0x2",
      "transactionHash": "0xb7feba505f3a8d3c574c5d4931dc9bffcb5202506069f1af4dc8d315a6aa7a5d",
      "transactionIndex": "0x74",
      "blockHash": "0x5b1640488199821039f118b91925a0e5c0b843e30e0d5f6ee1004deba984f1af",
      "blockNumber": "0x807fd1",
      "gasUsed": "0xbd3e",
      "effectiveGasPrice": "0xf4253",
      "from": "0xe62ab4d111f968660c6b2188046f9b9ba53c4bae",
      "to": "0x08d0f2f8368ce13206f4839c3ce9151be93893bc",
      "contractAddress": null
    },
    {
      "status": "0x1",
      "cumulativeGasUsed": "0x990839",
      "logs": [],
      "logsBloom": "0x00000000000000000000000000000000000000000000000000000000000000000000000000000000000000000000000000000000000000000000000000000000000000000000000000000000000000000000000000000000000000000000000000000000000000000000000000000000000000000000000000000000000000000000000000000000000000000000000000000000000000000000000000000000000000000000000000000000000000000000000000000000000000000000000000000000000000000000000000000000000000000000000000000000000000000000000000000000000000000000000000000000000000000000000000000000",
      "type": "0x2",
      "transactionHash": "0x16bfe496ddf816a19d290ba77a951e77fbb6acf85449d1f03cf7916e62e4149c",
      "transactionIndex": "0x5e",
      "blockHash": "0x7cb7af32448a7d3e6bf5ee01b5d925dc656b8cea3f8ff3b1bf4c62f6f6792c1d",
      "blockNumber": "0x807fd2",
      "gasUsed": "0xbd55",
      "effectiveGasPrice": "0xf4255",
      "from": "0xe62ab4d111f968660c6b2188046f9b9ba53c4bae",
      "to": "0x08d0f2f8368ce13206f4839c3ce9151be93893bc",
      "contractAddress": null
    },
    {
      "status": "0x1",
      "cumulativeGasUsed": "0x1236a1d",
      "logs": [],
      "logsBloom": "0x00000000000000000000000000000000000000000000000000000000000000000000000000000000000000000000000000000000000000000000000000000000000000000000000000000000000000000000000000000000000000000000000000000000000000000000000000000000000000000000000000000000000000000000000000000000000000000000000000000000000000000000000000000000000000000000000000000000000000000000000000000000000000000000000000000000000000000000000000000000000000000000000000000000000000000000000000000000000000000000000000000000000000000000000000000000",
      "type": "0x2",
      "transactionHash": "0xc412ecfd8ed12290bdd1749af8bac954aa0854ef7b2b8a9a33e473eb3584a0a2",
      "transactionIndex": "0x79",
      "blockHash": "0x728c5f9ddb2967009807aa53b499249f104e4ce0249454070e384f10f8793507",
      "blockNumber": "0x807fd3",
      "gasUsed": "0xbd6c",
      "effectiveGasPrice": "0xf4254",
      "from": "0xe62ab4d111f968660c6b2188046f9b9ba53c4bae",
      "to": "0x08d0f2f8368ce13206f4839c3ce9151be93893bc",
      "contractAddress": null
    },
    {
      "status": "0x1",
      "cumulativeGasUsed": "0x115d97a",
      "logs": [],
      "logsBloom": "0x00000000000000000000000000000000000000000000000000000000000000000000000000000000000000000000000000000000000000000000000000000000000000000000000000000000000000000000000000000000000000000000000000000000000000000000000000000000000000000000000000000000000000000000000000000000000000000000000000000000000000000000000000000000000000000000000000000000000000000000000000000000000000000000000000000000000000000000000000000000000000000000000000000000000000000000000000000000000000000000000000000000000000000000000000000000",
      "type": "0x2",
      "transactionHash": "0xbcefdccd20c820450dd9e698d345b45e055613589589f7005d9335e96dc6f4d3",
      "transactionIndex": "0x7a",
      "blockHash": "0xec9077f30c61771fff2770f15c4e9903afb0819a14fa939ab678d2f9f9f58fa4",
      "blockNumber": "0x807fd4",
      "gasUsed": "0xbd83",
      "effectiveGasPrice": "0xf4254",
      "from": "0xe62ab4d111f968660c6b2188046f9b9ba53c4bae",
      "to": "0x08d0f2f8368ce13206f4839c3ce9151be93893bc",
      "contractAddress": null
    },
    {
      "status": "0x1",
      "cumulativeGasUsed": "0xd91c62",
      "logs": [],
      "logsBloom": "0x00000000000000000000000000000000000000000000000000000000000000000000000000000000000000000000000000000000000000000000000000000000000000000000000000000000000000000000000000000000000000000000000000000000000000000000000000000000000000000000000000000000000000000000000000000000000000000000000000000000000000000000000000000000000000000000000000000000000000000000000000000000000000000000000000000000000000000000000000000000000000000000000000000000000000000000000000000000000000000000000000000000000000000000000000000000",
      "type": "0x2",
      "transactionHash": "0x40a7d6d0b959543c0c71bbe4f2ed95a7adf80aa4371bee33e17fc79921883da9",
      "transactionIndex": "0x7c",
      "blockHash": "0x0004526aa4005decbc23fec731b0798b1b8180fe9371b22c1b8bd8916c6d562c",
      "blockNumber": "0x807fd5",
      "gasUsed": "0xbd9a",
      "effectiveGasPrice": "0xf4254",
      "from": "0xe62ab4d111f968660c6b2188046f9b9ba53c4bae",
      "to": "0x08d0f2f8368ce13206f4839c3ce9151be93893bc",
      "contractAddress": null
    },
    {
      "status": "0x1",
      "cumulativeGasUsed": "0x17cd449",
      "logs": [],
      "logsBloom": "0x00000000000000000000000000000000000000000000000000000000000000000000000000000000000000000000000000000000000000000000000000000000000000000000000000000000000000000000000000000000000000000000000000000000000000000000000000000000000000000000000000000000000000000000000000000000000000000000000000000000000000000000000000000000000000000000000000000000000000000000000000000000000000000000000000000000000000000000000000000000000000000000000000000000000000000000000000000000000000000000000000000000000000000000000000000000",
      "type": "0x2",
      "transactionHash": "0xd9d3f30f25ac928b77ad519f4a5df5af165bd816a8ad9c407878441450fe74b8",
      "transactionIndex": "0x7c",
      "blockHash": "0x2617b4f51b736d3ae9bec7c21ee5a20fe64f0edc5e3f1aecce0e120edbb20a84",
      "blockNumber": "0x807fd6",
      "gasUsed": "0xbdb1",
      "effectiveGasPrice": "0xf4253",
      "from": "0xe62ab4d111f968660c6b2188046f9b9ba53c4bae",
      "to": "0x08d0f2f8368ce13206f4839c3ce9151be93893bc",
      "contractAddress": null
    },
    {
      "status": "0x1",
      "cumulativeGasUsed": "0xbe124c",
      "logs": [],
      "logsBloom": "0x00000000000000000000000000000000000000000000000000000000000000000000000000000000000000000000000000000000000000000000000000000000000000000000000000000000000000000000000000000000000000000000000000000000000000000000000000000000000000000000000000000000000000000000000000000000000000000000000000000000000000000000000000000000000000000000000000000000000000000000000000000000000000000000000000000000000000000000000000000000000000000000000000000000000000000000000000000000000000000000000000000000000000000000000000000000",
      "type": "0x2",
      "transactionHash": "0xc60db634ec3e6436e5bf5bfd4018370d3185a724af1917d9174ea5230d9fbeeb",
      "transactionIndex": "0x77",
      "blockHash": "0xe7061078fcf3cc46e8e6bb8e46eee95ac4ba3671bced783c2fbac5944bb291e8",
      "blockNumber": "0x807fd7",
      "gasUsed": "0xbdc8",
      "effectiveGasPrice": "0xf4254",
      "from": "0xe62ab4d111f968660c6b2188046f9b9ba53c4bae",
      "to": "0x08d0f2f8368ce13206f4839c3ce9151be93893bc",
      "contractAddress": null
    },
    {
      "status": "0x1",
      "cumulativeGasUsed": "0xe3e5ed",
      "logs": [],
      "logsBloom": "0x00000000000000000000000000000000000000000000000000000000000000000000000000000000000000000000000000000000000000000000000000000000000000000000000000000000000000000000000000000000000000000000000000000000000000000000000000000000000000000000000000000000000000000000000000000000000000000000000000000000000000000000000000000000000000000000000000000000000000000000000000000000000000000000000000000000000000000000000000000000000000000000000000000000000000000000000000000000000000000000000000000000000000000000000000000000",
      "type": "0x2",
      "transactionHash": "0xe845a9c22b328dea16ede7762eeddc590c29675ef33e9bfa90a96c8a15f4775a",
      "transactionIndex": "0x5d",
      "blockHash": "0xa8bca0c7ad279a37d098e61cb712f416186115086e7083baad7ea5e61e47c3e3",
      "blockNumber": "0x807fd8",
      "gasUsed": "0xbddf",
      "effectiveGasPrice": "0xf4256",
      "from": "0xe62ab4d111f968660c6b2188046f9b9ba53c4bae",
      "to": "0x08d0f2f8368ce13206f4839c3ce9151be93893bc",
      "contractAddress": null
    },
    {
      "status": "0x1",
      "cumulativeGasUsed": "0x11ebe59",
      "logs": [],
      "logsBloom": "0x00000000000000000000000000000000000000000000000000000000000000000000000000000000000000000000000000000000000000000000000000000000000000000000000000000000000000000000000000000000000000000000000000000000000000000000000000000000000000000000000000000000000000000000000000000000000000000000000000000000000000000000000000000000000000000000000000000000000000000000000000000000000000000000000000000000000000000000000000000000000000000000000000000000000000000000000000000000000000000000000000000000000000000000000000000000",
      "type": "0x2",
      "transactionHash": "0x9af3b4257e7db10ab24158b08a3d1492f85895bfa7050646d7553fdc5927d51f",
      "transactionIndex": "0x8a",
      "blockHash": "0x90025eaefa72d1ce83833cb050678666c5b47ae846eace78131bbb09b5b03495",
      "blockNumber": "0x807fd9",
      "gasUsed": "0xbdf6",
      "effectiveGasPrice": "0xf4255",
      "from": "0xe62ab4d111f968660c6b2188046f9b9ba53c4bae",
      "to": "0x08d0f2f8368ce13206f4839c3ce9151be93893bc",
      "contractAddress": null
    },
    {
      "status": "0x1",
      "cumulativeGasUsed": "0x11ece8f",
      "logs": [],
      "logsBloom": "0x00000000000000000000000000000000000000000000000000000000000000000000000000000000000000000000000000000000000000000000000000000000000000000000000000000000000000000000000000000000000000000000000000000000000000000000000000000000000000000000000000000000000000000000000000000000000000000000000000000000000000000000000000000000000000000000000000000000000000000000000000000000000000000000000000000000000000000000000000000000000000000000000000000000000000000000000000000000000000000000000000000000000000000000000000000000",
      "type": "0x2",
      "transactionHash": "0xcac30fe6687f448d6632c9fc4bff19a6ac93f67df4ad93c9c3c743b8ea89e6a4",
      "transactionIndex": "0x5a",
      "blockHash": "0x002ce376ad1bf656a67315b94703e07b7392693920a7df8c1857d0bbac8d7193",
      "blockNumber": "0x807fda",
      "gasUsed": "0x21f70",
      "effectiveGasPrice": "0xf4255",
      "from": "0xe62ab4d111f968660c6b2188046f9b9ba53c4bae",
      "to": "0x08d0f2f8368ce13206f4839c3ce9151be93893bc",
      "contractAddress": null
    },
    {
      "status": "0x1",
      "cumulativeGasUsed": "0x14e8d8f",
      "logs": [],
      "logsBloom": "0x00000000000000000000000000000000000000000000000000000000000000000000000000000000000000000000000000000000000000000000000000000000000000000000000000000000000000000000000000000000000000000000000000000000000000000000000000000000000000000000000000000000000000000000000000000000000000000000000000000000000000000000000000000000000000000000000000000000000000000000000000000000000000000000000000000000000000000000000000000000000000000000000000000000000000000000000000000000000000000000000000000000000000000000000000000000",
      "type": "0x2",
      "transactionHash": "0xc7d3875dca2afa38af5fd9c95193b8731d79c61321d5292c3ea4c60aeb54c860",
      "transactionIndex": "0x7a",
      "blockHash": "0x426f83428b61796a0a6eb4a6af6b3e29376890e3d655a70e4ebbbeb085277f0a",
      "blockNumber": "0x807fdb",
      "gasUsed": "0x1e2fc",
      "effectiveGasPrice": "0xf4255",
      "from": "0xe62ab4d111f968660c6b2188046f9b9ba53c4bae",
      "to": "0x08d0f2f8368ce13206f4839c3ce9151be93893bc",
      "contractAddress": null
    },
    {
      "status": "0x1",
      "cumulativeGasUsed": "0x1740c7a",
      "logs": [],
      "logsBloom": "0x00000000000000000000000000000000000000000000000000000000000000000000000000000000000000000000000000000000000000000000000000000000000000000000000000000000000000000000000000000000000000000000000000000000000000000000000000000000000000000000000000000000000000000000000000000000000000000000000000000000000000000000000000000000000000000000000000000000000000000000000000000000000000000000000000000000000000000000000000000000000000000000000000000000000000000000000000000000000000000000000000000000000000000000000000000000",
      "type": "0x2",
      "transactionHash": "0xa13fba600d727c5f0e99ce979987c47fe86bba3c08257293c4cf13d2c597d503",
      "transactionIndex": "0x6b",
      "blockHash": "0x7da3721e1d94765849111ce27a533b7db38b788a79a543f5b3244c323abdd155",
      "blockNumber": "0x807fdc",
      "gasUsed": "0x1e2fc",
      "effectiveGasPrice": "0xf4255",
      "from": "0xe62ab4d111f968660c6b2188046f9b9ba53c4bae",
      "to": "0x08d0f2f8368ce13206f4839c3ce9151be93893bc",
      "contractAddress": null
    },
    {
      "status": "0x1",
      "cumulativeGasUsed": "0x10f6c92",
      "logs": [],
      "logsBloom": "0x00000000000000000000000000000000000000000000000000000000000000000000000000000000000000000000000000000000000000000000000000000000000000000000000000000000000000000000000000000000000000000000000000000000000000000000000000000000000000000000000000000000000000000000000000000000000000000000000000000000000000000000000000000000000000000000000000000000000000000000000000000000000000000000000000000000000000000000000000000000000000000000000000000000000000000000000000000000000000000000000000000000000000000000000000000000",
      "type": "0x2",
      "transactionHash": "0x952bc49567b9664ca2fabcc2c69c35ca51d1b2eecf49b96d9025ce19f896b4dc",
      "transactionIndex": "0x7d",
      "blockHash": "0xd62e5be418a4ff8430262f76c335c361dccb2afa8092e513cb18e6b422f6e89a",
      "blockNumber": "0x807fde",
      "gasUsed": "0x1e764",
      "effectiveGasPrice": "0xf4254",
      "from": "0xe62ab4d111f968660c6b2188046f9b9ba53c4bae",
      "to": "0x08d0f2f8368ce13206f4839c3ce9151be93893bc",
      "contractAddress": null
    },
    {
      "status": "0x1",
      "cumulativeGasUsed": "0x1a06ef5",
      "logs": [],
      "logsBloom": "0x00000000000000000000000000000000000000000000000000000000000000000000000000000000000000000000000000000000000000000000000000000000000000000000000000000000000000000000000000000000000000000000000000000000000000000000000000000000000000000000000000000000000000000000000000000000000000000000000000000000000000000000000000000000000000000000000000000000000000000000000000000000000000000000000000000000000000000000000000000000000000000000000000000000000000000000000000000000000000000000000000000000000000000000000000000000",
      "type": "0x2",
      "transactionHash": "0xfa77d43c30482c6851fc64ff43a58cd43053311332725979f8fd0b589f1e5324",
      "transactionIndex": "0x5c",
      "blockHash": "0xfbfd0f107a28961adb30b98f35d21ebdd2328a21302d0e09200c4b636bc05d94",
      "blockNumber": "0x807fdf",
      "gasUsed": "0x1de94",
      "effectiveGasPrice": "0xf4254",
      "from": "0xe62ab4d111f968660c6b2188046f9b9ba53c4bae",
      "to": "0x08d0f2f8368ce13206f4839c3ce9151be93893bc",
      "contractAddress": null
    },
    {
      "status": "0x1",
      "cumulativeGasUsed": "0x115e73d",
      "logs": [],
      "logsBloom": "0x00000000000000000000000000000000000000000000000000000000000000000000000000000000000000000000000000000000000000000000000000000000000000000000000000000000000000000000000000000000000000000000000000000000000000000000000000000000000000000000000000000000000000000000000000000000000000000000000000000000000000000000000000000000000000000000000000000000000000000000000000000000000000000000000000000000000000000000000000000000000000000000000000000000000000000000000000000000000000000000000000000000000000000000000000000000",
      "type": "0x2",
      "transactionHash": "0x5a677778a7d2938f4df77a444cc3f655bac8a8917fb50bbc8f081151dfaab322",
      "transactionIndex": "0x62",
      "blockHash": "0xea3d9dde1aec7968bef6f46a111e4cdf4bb25ac44709316700ac3c3c2ebfeac8",
      "blockNumber": "0x807fe0",
      "gasUsed": "0x1ea54",
      "effectiveGasPrice": "0xf4255",
      "from": "0xe62ab4d111f968660c6b2188046f9b9ba53c4bae",
      "to": "0x08d0f2f8368ce13206f4839c3ce9151be93893bc",
      "contractAddress": null
    },
    {
      "status": "0x1",
      "cumulativeGasUsed": "0x1e89aec",
      "logs": [],
      "logsBloom": "0x00000000000000000000000000000000000000000000000000000000000000000000000000000000000000000000000000000000000000000000000000000000000000000000000000000000000000000000000000000000000000000000000000000000000000000000000000000000000000000000000000000000000000000000000000000000000000000000000000000000000000000000000000000000000000000000000000000000000000000000000000000000000000000000000000000000000000000000000000000000000000000000000000000000000000000000000000000000000000000000000000000000000000000000000000000000",
      "type": "0x2",
      "transactionHash": "0x5dde949253fc74cadbb02cd25110f031c5994412773c2364ca3426a34553e350",
      "transactionIndex": "0x6e",
      "blockHash": "0x2c3c33d0fe6beba4d00e40e7f20b23b766b34439cfbaa8aeb922df110d4b450e",
      "blockNumber": "0x807fe1",
      "gasUsed": "0x1e184",
      "effectiveGasPrice": "0xf4255",
      "from": "0xe62ab4d111f968660c6b2188046f9b9ba53c4bae",
      "to": "0x08d0f2f8368ce13206f4839c3ce9151be93893bc",
      "contractAddress": null
    },
    {
      "status": "0x1",
      "cumulativeGasUsed": "0xd3fe7f",
      "logs": [],
      "logsBloom": "0x00000000000000000000000000000000000000000000000000000000000000000000000000000000000000000000000000000000000000000000000000000000000000000000000000000000000000000000000000000000000000000000000000000000000000000000000000000000000000000000000000000000000000000000000000000000000000000000000000000000000000000000000000000000000000000000000000000000000000000000000000000000000000000000000000000000000000000000000000000000000000000000000000000000000000000000000000000000000000000000000000000000000000000000000000000000",
      "type": "0x2",
      "transactionHash": "0xf8d90693d37b8d3d88c3f0fcb14e6ccca7a1ae3a7490c19bbbc89f3aec15b154",
      "transactionIndex": "0x6f",
      "blockHash": "0x9428d4796c441adba1ee38598585e6874d8277f352d7173d2f5ba0fb0c08e771",
      "blockNumber": "0x807fe2",
      "gasUsed": "0x1e184",
      "effectiveGasPrice": "0xf4257",
      "from": "0xe62ab4d111f968660c6b2188046f9b9ba53c4bae",
      "to": "0x08d0f2f8368ce13206f4839c3ce9151be93893bc",
      "contractAddress": null
    },
    {
      "status": "0x1",
      "cumulativeGasUsed": "0x164eb97",
      "logs": [],
      "logsBloom": "0x00000000000000000000000000000000000000000000000000000000000000000000000000000000000000000000000000000000000000000000000000000000000000000000000000000000000000000000000000000000000000000000000000000000000000000000000000000000000000000000000000000000000000000000000000000000000000000000000000000000000000000000000000000000000000000000000000000000000000000000000000000000000000000000000000000000000000000000000000000000000000000000000000000000000000000000000000000000000000000000000000000000000000000000000000000000",
      "type": "0x2",
      "transactionHash": "0x71d89b6964ac2a0b35ad69e887ddba406074ce19da584563eaf564b819448523",
      "transactionIndex": "0x6b",
      "blockHash": "0xb39b0775247aa4cb95628ab6ae36b2e0947dfb3ce82f17f83d1a373388bd4414",
      "blockNumber": "0x807fe3",
      "gasUsed": "0x1e474",
      "effectiveGasPrice": "0xf4256",
      "from": "0xe62ab4d111f968660c6b2188046f9b9ba53c4bae",
      "to": "0x08d0f2f8368ce13206f4839c3ce9151be93893bc",
      "contractAddress": null
    },
    {
      "status": "0x1",
      "cumulativeGasUsed": "0x1d11ac7",
      "logs": [],
      "logsBloom": "0x00000000000000000000000000000000000000000000000000000000000000000000000000000000000000000000000000000000000000000000000000000000000000000000000000000000000000000000000000000000000000000000000000000000000000000000000000000000000000000000000000000000000000000000000000000000000000000000000000000000000000000000000000000000000000000000000000000000000000000000000000000000000000000000000000000000000000000000000000000000000000000000000000000000000000000000000000000000000000000000000000000000000000000000000000000000",
      "type": "0x2",
      "transactionHash": "0xcd44dfd17ede6da5d1c2bb910f73ccc1aab6df3808c7421fb11933eb14500097",
      "transactionIndex": "0x79",
      "blockHash": "0x368bccc0a25c51270ac214286c1ab21a84cce64f714d15d07d27bb50fbed148e",
      "blockNumber": "0x807fe4",
      "gasUsed": "0x1e2fc",
      "effectiveGasPrice": "0xf4258",
      "from": "0xe62ab4d111f968660c6b2188046f9b9ba53c4bae",
      "to": "0x08d0f2f8368ce13206f4839c3ce9151be93893bc",
      "contractAddress": null
    },
    {
      "status": "0x1",
      "cumulativeGasUsed": "0x14b61d6",
      "logs": [],
      "logsBloom": "0x00000000000000000000000000000000000000000000000000000000000000000000000000000000000000000000000000000000000000000000000000000000000000000000000000000000000000000000000000000000000000000000000000000000000000000000000000000000000000000000000000000000000000000000000000000000000000000000000000000000000000000000000000000000000000000000000000000000000000000000000000000000000000000000000000000000000000000000000000000000000000000000000000000000000000000000000000000000000000000000000000000000000000000000000000000000",
      "type": "0x2",
      "transactionHash": "0x0ce89bfd71b956a41c7dbafb6385a316c50bd4eb7bd24cc42d8e0390ca08e9c6",
      "transactionIndex": "0x74",
      "blockHash": "0xb502e03127080fe0aad425c21af537189faab55992dbf42315603edc390f349e",
      "blockNumber": "0x807fe5",
      "gasUsed": "0x1e184",
      "effectiveGasPrice": "0xf4259",
      "from": "0xe62ab4d111f968660c6b2188046f9b9ba53c4bae",
      "to": "0x08d0f2f8368ce13206f4839c3ce9151be93893bc",
      "contractAddress": null
    },
    {
      "status": "0x1",
      "cumulativeGasUsed": "0xbf2142",
      "logs": [],
      "logsBloom": "0x00000000000000000000000000000000000000000000000000000000000000000000000000000000000000000000000000000000000000000000000000000000000000000000000000000000000000000000000000000000000000000000000000000000000000000000000000000000000000000000000000000000000000000000000000000000000000000000000000000000000000000000000000000000000000000000000000000000000000000000000000000000000000000000000000000000000000000000000000000000000000000000000000000000000000000000000000000000000000000000000000000000000000000000000000000000",
      "type": "0x2",
      "transactionHash": "0x88e75d0c9f1eb0fb781ad5421b44213580524083311ada05fe3ccd839a7155b5",
      "transactionIndex": "0x49",
      "blockHash": "0xbe5c2d76ca48173762c4b4f4a44a0ddddcd7322ad201690b2a19fe74b914b1a4",
      "blockNumber": "0x807fe6",
      "gasUsed": "0x1e8dc",
      "effectiveGasPrice": "0xf425b",
      "from": "0xe62ab4d111f968660c6b2188046f9b9ba53c4bae",
      "to": "0x08d0f2f8368ce13206f4839c3ce9151be93893bc",
      "contractAddress": null
    },
    {
      "status": "0x1",
      "cumulativeGasUsed": "0x13dfe83",
      "logs": [],
      "logsBloom": "0x00000000000000000000000000000000000000000000000000000000000000000000000000000000000000000000000000000000000000000000000000000000000000000000000000000000000000000000000000000000000000000000000000000000000000000000000000000000000000000000000000000000000000000000000000000000000000000000000000000000000000000000000000000000000000000000000000000000000000000000000000000000000000000000000000000000000000000000000000000000000000000000000000000000000000000000000000000000000000000000000000000000000000000000000000000000",
      "type": "0x2",
      "transactionHash": "0xf3eb2f31eb53b5c5a7ca0f9e81dc3c00006835f4e928e9c0c558c22654073842",
      "transactionIndex": "0x77",
      "blockHash": "0xdf7a4ccab511a20b2f170c3af25c03177f196c7ff4b05df44c72a65a973d33ba",
      "blockNumber": "0x807fe7",
      "gasUsed": "0x1e00c",
      "effectiveGasPrice": "0xf425a",
      "from": "0xe62ab4d111f968660c6b2188046f9b9ba53c4bae",
      "to": "0x08d0f2f8368ce13206f4839c3ce9151be93893bc",
      "contractAddress": null
    },
    {
      "status": "0x1",
      "cumulativeGasUsed": "0xb2d31e",
      "logs": [],
      "logsBloom": "0x00000000000000000000000000000000000000000000000000000000000000000000000000000000000000000000000000000000000000000000000000000000000000000000000000000000000000000000000000000000000000000000000000000000000000000000000000000000000000000000000000000000000000000000000000000000000000000000000000000000000000000000000000000000000000000000000000000000000000000000000000000000000000000000000000000000000000000000000000000000000000000000000000000000000000000000000000000000000000000000000000000000000000000000000000000000",
      "type": "0x2",
      "transactionHash": "0x820894a3442c54ec7bed9a27dcdfd5a7de1630b3c4eb9cd60005fcbcdbbbe4b2",
      "transactionIndex": "0x62",
      "blockHash": "0x89e0e142303eedec268eecf51ea8c03f174fa76500af62e8b400e45da8498661",
      "blockNumber": "0x807fe8",
      "gasUsed": "0x1e764",
      "effectiveGasPrice": "0xf425a",
      "from": "0xe62ab4d111f968660c6b2188046f9b9ba53c4bae",
      "to": "0x08d0f2f8368ce13206f4839c3ce9151be93893bc",
      "contractAddress": null
    },
    {
      "status": "0x1",
      "cumulativeGasUsed": "0xacbfb3",
      "logs": [],
      "logsBloom": "0x00000000000000000000000000000000000000000000000000000000000000000000000000000000000000000000000000000000000000000000000000000000000000000000000000000000000000000000000000000000000000000000000000000000000000000000000000000000000000000000000000000000000000000000000000000000000000000000000000000000000000000000000000000000000000000000000000000000000000000000000000000000000000000000000000000000000000000000000000000000000000000000000000000000000000000000000000000000000000000000000000000000000000000000000000000000",
      "type": "0x2",
      "transactionHash": "0x09aabd6f8abe4600d3dc04cd03a3d5c8c47d14f00f27c08ca23b0c978e09cac5",
      "transactionIndex": "0x61",
      "blockHash": "0x7516e9e511e4112a4b99a5b5acf0b4f4cfb2570bc2c091afa8477af2257bff51",
      "blockNumber": "0x807fe9",
      "gasUsed": "0x1e2fc",
      "effectiveGasPrice": "0xf4259",
      "from": "0xe62ab4d111f968660c6b2188046f9b9ba53c4bae",
      "to": "0x08d0f2f8368ce13206f4839c3ce9151be93893bc",
      "contractAddress": null
    },
    {
      "status": "0x1",
      "cumulativeGasUsed": "0xf7b806",
      "logs": [],
      "logsBloom": "0x00000000000000000000000000000000000000000000000000000000000000000000000000000000000000000000000000000000000000000000000000000000000000000000000000000000000000000000000000000000000000000000000000000000000000000000000000000000000000000000000000000000000000000000000000000000000000000000000000000000000000000000000000000000000000000000000000000000000000000000000000000000000000000000000000000000000000000000000000000000000000000000000000000000000000000000000000000000000000000000000000000000000000000000000000000000",
      "type": "0x2",
      "transactionHash": "0x24cfc5d2f9e31fcada54b6a25988386eeb8061cf034d2711e3906cdf885b48f3",
      "transactionIndex": "0x5f",
      "blockHash": "0xe3f5cb3a1a3f3bd6ef6eec8fef41c620a8138e4a3d9535708edbd4e6673b19ff",
      "blockNumber": "0x807fea",
      "gasUsed": "0x1b4013",
      "effectiveGasPrice": "0xf425b",
      "from": "0xe62ab4d111f968660c6b2188046f9b9ba53c4bae",
      "to": "0x13797c225f8e3645299f17d83365e0f5db1c1607",
      "contractAddress": null
    },
    {
      "status": "0x1",
      "cumulativeGasUsed": "0x209a124",
      "logs": [],
      "logsBloom": "0x00000000000000000000000000000000000000000000000000000000000000000000000000000000000000000000000000000000000000000000000000000000000000000000000000000000000000000000000000000000000000000000000000000000000000000000000000000000000000000000000000000000000000000000000000000000000000000000000000000000000000000000000000000000000000000000000000000000000000000000000000000000000000000000000000000000000000000000000000000000000000000000000000000000000000000000000000000000000000000000000000000000000000000000000000000000",
      "type": "0x2",
      "transactionHash": "0x8f2cd2e0a9e07451d8a4a343c6c72cd3583f1a2a6e63eb2863c36d94643ffddf",
      "transactionIndex": "0x63",
      "blockHash": "0x7c4531f5821de8e55531b9acfbf36928a1a05ce7bd3b123d1ee783a53b013c21",
      "blockNumber": "0x807feb",
      "gasUsed": "0x234648",
      "effectiveGasPrice": "0xf425a",
      "from": "0xe62ab4d111f968660c6b2188046f9b9ba53c4bae",
      "to": "0x13797c225f8e3645299f17d83365e0f5db1c1607",
      "contractAddress": null
    },
    {
      "status": "0x1",
      "cumulativeGasUsed": "0xba5a34",
      "logs": [],
      "logsBloom": "0x00000000000000000000000000000000000000000000000000000000000000000000000000000000000000000000000000000000000000000000000000000000000000000000000000000000000000000000000000000000000000000000000000000000000000000000000000000000000000000000000000000000000000000000000000000000000000000000000000000000000000000000000000000000000000000000000000000000000000000000000000000000000000000000000000000000000000000000000000000000000000000000000000000000000000000000000000000000000000000000000000000000000000000000000000000000",
      "type": "0x2",
      "transactionHash": "0x61177ef59515a946c84c4476896185a84d005816efe44b7504a1f88718a18dbb",
      "transactionIndex": "0x59",
      "blockHash": "0x0e2daccaa972744761d21e0a4d385ea5630141fca8de5f9476a6cfb504579c21",
      "blockNumber": "0x807fec",
      "gasUsed": "0x1dab03",
      "effectiveGasPrice": "0xf425b",
      "from": "0xe62ab4d111f968660c6b2188046f9b9ba53c4bae",
      "to": "0x13797c225f8e3645299f17d83365e0f5db1c1607",
      "contractAddress": null
    },
    {
      "status": "0x1",
      "cumulativeGasUsed": "0x17ac420",
      "logs": [],
      "logsBloom": "0x00000000000000000000000000000000000000000000000000000000000000000000000000000000000000000000000000000000000000000000000000000000000000000000000000000000000000000000000000000000000000000000000000000000000000000000000000000000000000000000000000000000000000000000000000000000000000000000000000000000000000000000000000000000000000000000000000000000000000000000000000000000000000000000000000000000000000000000000000000000000000000000000000000000000000000000000000000000000000000000000000000000000000000000000000000000",
      "type": "0x2",
      "transactionHash": "0x817babff08ea32bd6309d21efe404929cf6908ab66cb6612a08910d60fd12c73",
      "transactionIndex": "0x5c",
      "blockHash": "0x7703628bf862a6b41ff7af827058e70e2d3d478753d2f18efa74bd76b2cce35b",
      "blockNumber": "0x807fed",
      "gasUsed": "0x1db435",
      "effectiveGasPrice": "0xf425e",
      "from": "0xe62ab4d111f968660c6b2188046f9b9ba53c4bae",
      "to": "0x13797c225f8e3645299f17d83365e0f5db1c1607",
      "contractAddress": null
    }
  ],
  "libraries": [],
  "pending": [],
  "returns": {},
  "timestamp": 1748394373,
  "chain": 11155111,
  "commit": "2bab1f2d"
}