{
  "transactions": [
    {
      "hash": "0xa3b39332151069b9a4a9076bc979a56efa711e3d15464c86afb1ce20cd6f9d51",
      "transactionType": "CALL",
      "contractName": "FeeManager",
      "contractAddress": "0xa9888fd40bc181958bd2c2b2d06dd1559d0c8e55",
      "function": "getFeeTokenList()",
      "arguments": [],
      "transaction": {
        "from": "0xe62ab4d111f968660c6b2188046f9b9ba53c4bae",
        "to": "0xa9888fd40bc181958bd2c2b2d06dd1559d0c8e55",
        "gas": "0x8a7e",
        "value": "0x0",
        "input": "0xe28ab277",
        "nonce": "0xb9",
        "chainId": "0xaa36a7"
      },
      "additionalContracts": [],
      "isFixedGasLimit": false
    },
    {
      "hash": "0x461b589c0845cc025e97e4e63723ce46a732dde13534c4fc52c05611a4928dfa",
      "transactionType": "CALL",
      "contractName": "FeeManager",
      "contractAddress": "0xa9888fd40bc181958bd2c2b2d06dd1559d0c8e55",
      "function": "addFeeToken(string)",
      "arguments": [
        "0xa4c104db0937f1e886d5c9c9789d6f0e5bfba75c"
      ],
      "transaction": {
        "from": "0xe62ab4d111f968660c6b2188046f9b9ba53c4bae",
        "to": "0xa9888fd40bc181958bd2c2b2d06dd1559d0c8e55",
        "gas": "0x28cec",
        "value": "0x0",
        "input": "0x12a6385f0000000000000000000000000000000000000000000000000000000000000020000000000000000000000000000000000000000000000000000000000000002a30786134633130346462303933376631653838366435633963393738396436663065356266626137356300000000000000000000000000000000000000000000",
        "nonce": "0xba",
        "chainId": "0xaa36a7"
      },
      "additionalContracts": [],
      "isFixedGasLimit": false
    },
    {
      "hash": "0xa0bdeef59be6fddf1efd8432edc9cd3a2345d847b080a54238df182a7d83b6df",
      "transactionType": "CALL",
      "contractName": "FeeManager",
      "contractAddress": "0xa9888fd40bc181958bd2c2b2d06dd1559d0c8e55",
      "function": "setFeeMultiplier(uint8,uint256)",
      "arguments": [
        "0",
        "2"
      ],
      "transaction": {
        "from": "0xe62ab4d111f968660c6b2188046f9b9ba53c4bae",
        "to": "0xa9888fd40bc181958bd2c2b2d06dd1559d0c8e55",
        "gas": "0x112e8",
        "value": "0x0",
        "input": "0x0ee24eb500000000000000000000000000000000000000000000000000000000000000000000000000000000000000000000000000000000000000000000000000000002",
        "nonce": "0xbb",
        "chainId": "0xaa36a7"
      },
      "additionalContracts": [],
      "isFixedGasLimit": false
    },
    {
      "hash": "0xc94b47d55b3eca654298244919aa8dc4210eba05ad73a3d33b6ef6be68ad3f0f",
      "transactionType": "CALL",
      "contractName": "FeeManager",
      "contractAddress": "0xa9888fd40bc181958bd2c2b2d06dd1559d0c8e55",
      "function": "setFeeMultiplier(uint8,uint256)",
      "arguments": [
        "1",
        "10"
      ],
      "transaction": {
        "from": "0xe62ab4d111f968660c6b2188046f9b9ba53c4bae",
        "to": "0xa9888fd40bc181958bd2c2b2d06dd1559d0c8e55",
        "gas": "0x11324",
        "value": "0x0",
        "input": "0x0ee24eb50000000000000000000000000000000000000000000000000000000000000001000000000000000000000000000000000000000000000000000000000000000a",
        "nonce": "0xbc",
        "chainId": "0xaa36a7"
      },
      "additionalContracts": [],
      "isFixedGasLimit": false
    },
    {
      "hash": "0x1e4f27bd51057c0aaeb0ce14c9b415f1fc221799b05c3c8a214289534bd81572",
      "transactionType": "CALL",
      "contractName": "FeeManager",
      "contractAddress": "0xa9888fd40bc181958bd2c2b2d06dd1559d0c8e55",
      "function": "setFeeMultiplier(uint8,uint256)",
      "arguments": [
        "2",
        "1"
      ],
      "transaction": {
        "from": "0xe62ab4d111f968660c6b2188046f9b9ba53c4bae",
        "to": "0xa9888fd40bc181958bd2c2b2d06dd1559d0c8e55",
        "gas": "0x11346",
        "value": "0x0",
        "input": "0x0ee24eb500000000000000000000000000000000000000000000000000000000000000020000000000000000000000000000000000000000000000000000000000000001",
        "nonce": "0xbd",
        "chainId": "0xaa36a7"
      },
      "additionalContracts": [],
      "isFixedGasLimit": false
    },
    {
      "hash": "0x6e78b6814c5f85ff0694d9b708ad9fc66d29ec169334155b483345171f35d9a1",
      "transactionType": "CALL",
      "contractName": "FeeManager",
      "contractAddress": "0xa9888fd40bc181958bd2c2b2d06dd1559d0c8e55",
      "function": "setFeeMultiplier(uint8,uint256)",
      "arguments": [
        "3",
        "4"
      ],
      "transaction": {
        "from": "0xe62ab4d111f968660c6b2188046f9b9ba53c4bae",
        "to": "0xa9888fd40bc181958bd2c2b2d06dd1559d0c8e55",
        "gas": "0x1041b",
        "value": "0x0",
        "input": "0x0ee24eb500000000000000000000000000000000000000000000000000000000000000030000000000000000000000000000000000000000000000000000000000000004",
        "nonce": "0xbe",
        "chainId": "0xaa36a7"
      },
      "additionalContracts": [],
      "isFixedGasLimit": false
    },
    {
      "hash": "0x5681bdcccd3be3182a689c9f8dab836bb750d6def496dd99a06f7fc3a02ec142",
      "transactionType": "CALL",
      "contractName": "FeeManager",
      "contractAddress": "0xa9888fd40bc181958bd2c2b2d06dd1559d0c8e55",
      "function": "setFeeMultiplier(uint8,uint256)",
      "arguments": [
        "4",
        "4"
      ],
      "transaction": {
        "from": "0xe62ab4d111f968660c6b2188046f9b9ba53c4bae",
        "to": "0xa9888fd40bc181958bd2c2b2d06dd1559d0c8e55",
        "gas": "0x1043a",
        "value": "0x0",
        "input": "0x0ee24eb500000000000000000000000000000000000000000000000000000000000000040000000000000000000000000000000000000000000000000000000000000004",
        "nonce": "0xbf",
        "chainId": "0xaa36a7"
      },
      "additionalContracts": [],
      "isFixedGasLimit": false
    },
    {
      "hash": "0xc3b6c999342ccb54b80636af9bfc6d4e288803f2335017a2647a1b07290ead0a",
      "transactionType": "CALL",
      "contractName": "FeeManager",
      "contractAddress": "0xa9888fd40bc181958bd2c2b2d06dd1559d0c8e55",
      "function": "setFeeMultiplier(uint8,uint256)",
      "arguments": [
        "5",
        "8"
      ],
      "transaction": {
        "from": "0xe62ab4d111f968660c6b2188046f9b9ba53c4bae",
        "to": "0xa9888fd40bc181958bd2c2b2d06dd1559d0c8e55",
        "gas": "0x10459",
        "value": "0x0",
        "input": "0x0ee24eb500000000000000000000000000000000000000000000000000000000000000050000000000000000000000000000000000000000000000000000000000000008",
        "nonce": "0xc0",
        "chainId": "0xaa36a7"
      },
      "additionalContracts": [],
      "isFixedGasLimit": false
    },
    {
      "hash": "0x44b6d8a243df725205c71aa7a747168d4b014cc0f1d06bdb13b4e6aa6ccc7713",
      "transactionType": "CALL",
      "contractName": "FeeManager",
      "contractAddress": "0xa9888fd40bc181958bd2c2b2d06dd1559d0c8e55",
      "function": "setFeeMultiplier(uint8,uint256)",
      "arguments": [
        "6",
        "4"
      ],
      "transaction": {
        "from": "0xe62ab4d111f968660c6b2188046f9b9ba53c4bae",
        "to": "0xa9888fd40bc181958bd2c2b2d06dd1559d0c8e55",
        "gas": "0x10473",
        "value": "0x0",
        "input": "0x0ee24eb500000000000000000000000000000000000000000000000000000000000000060000000000000000000000000000000000000000000000000000000000000004",
        "nonce": "0xc1",
        "chainId": "0xaa36a7"
      },
      "additionalContracts": [],
      "isFixedGasLimit": false
    },
    {
      "hash": "0x312d2188976c9670769ae5f4d63dc2a4b6e496a2b01f155cdae89d1e43d7f70f",
      "transactionType": "CALL",
      "contractName": "FeeManager",
      "contractAddress": "0xa9888fd40bc181958bd2c2b2d06dd1559d0c8e55",
      "function": "addFeeToken(string,string[],uint256[])",
      "arguments": [
        "421614",
        "[0xa4c104db0937f1e886d5c9c9789d6f0e5bfba75c]",
        "[1000]"
      ],
      "transaction": {
        "from": "0xe62ab4d111f968660c6b2188046f9b9ba53c4bae",
        "to": "0xa9888fd40bc181958bd2c2b2d06dd1559d0c8e55",
        "gas": "0x32174",
        "value": "0x0",
        "input": "0x437bf84f000000000000000000000000000000000000000000000000000000000000006000000000000000000000000000000000000000000000000000000000000000a000000000000000000000000000000000000000000000000000000000000001400000000000000000000000000000000000000000000000000000000000000006343231363134000000000000000000000000000000000000000000000000000000000000000000000000000000000000000000000000000000000000000000010000000000000000000000000000000000000000000000000000000000000020000000000000000000000000000000000000000000000000000000000000002a30786134633130346462303933376631653838366435633963393738396436663065356266626137356300000000000000000000000000000000000000000000000000000000000000000000000000000000000000000000000000000000000100000000000000000000000000000000000000000000000000000000000003e8",
        "nonce": "0xc2",
        "chainId": "0xaa36a7"
      },
      "additionalContracts": [],
      "isFixedGasLimit": false
    },
    {
      "hash": "0xea7b4780deb9d5c3378a24ee1f9a5f02b202352ff1a37de0c1364ba037c0331e",
      "transactionType": "CALL",
      "contractName": "FeeManager",
      "contractAddress": "0xa9888fd40bc181958bd2c2b2d06dd1559d0c8e55",
      "function": "addFeeToken(string,string[],uint256[])",
      "arguments": [
        "80002",
        "[0xa4c104db0937f1e886d5c9c9789d6f0e5bfba75c]",
        "[1000]"
      ],
      "transaction": {
        "from": "0xe62ab4d111f968660c6b2188046f9b9ba53c4bae",
        "to": "0xa9888fd40bc181958bd2c2b2d06dd1559d0c8e55",
        "gas": "0x2c8f9",
        "value": "0x0",
        "input": "0x437bf84f000000000000000000000000000000000000000000000000000000000000006000000000000000000000000000000000000000000000000000000000000000a000000000000000000000000000000000000000000000000000000000000001400000000000000000000000000000000000000000000000000000000000000005383030303200000000000000000000000000000000000000000000000000000000000000000000000000000000000000000000000000000000000000000000010000000000000000000000000000000000000000000000000000000000000020000000000000000000000000000000000000000000000000000000000000002a30786134633130346462303933376631653838366435633963393738396436663065356266626137356300000000000000000000000000000000000000000000000000000000000000000000000000000000000000000000000000000000000100000000000000000000000000000000000000000000000000000000000003e8",
        "nonce": "0xc3",
        "chainId": "0xaa36a7"
      },
      "additionalContracts": [],
      "isFixedGasLimit": false
    },
    {
      "hash": "0x142a63eaee4e582beb2c8983eded2cf59be44676fcc9968838087aa8a5795518",
      "transactionType": "CALL",
      "contractName": "FeeManager",
      "contractAddress": "0xa9888fd40bc181958bd2c2b2d06dd1559d0c8e55",
      "function": "addFeeToken(string,string[],uint256[])",
      "arguments": [
        "84532",
        "[0xa4c104db0937f1e886d5c9c9789d6f0e5bfba75c]",
        "[1000]"
      ],
      "transaction": {
        "from": "0xe62ab4d111f968660c6b2188046f9b9ba53c4bae",
        "to": "0xa9888fd40bc181958bd2c2b2d06dd1559d0c8e55",
        "gas": "0x2c8f9",
        "value": "0x0",
        "input": "0x437bf84f000000000000000000000000000000000000000000000000000000000000006000000000000000000000000000000000000000000000000000000000000000a000000000000000000000000000000000000000000000000000000000000001400000000000000000000000000000000000000000000000000000000000000005383435333200000000000000000000000000000000000000000000000000000000000000000000000000000000000000000000000000000000000000000000010000000000000000000000000000000000000000000000000000000000000020000000000000000000000000000000000000000000000000000000000000002a30786134633130346462303933376631653838366435633963393738396436663065356266626137356300000000000000000000000000000000000000000000000000000000000000000000000000000000000000000000000000000000000100000000000000000000000000000000000000000000000000000000000003e8",
        "nonce": "0xc4",
        "chainId": "0xaa36a7"
      },
      "additionalContracts": [],
      "isFixedGasLimit": false
    },
    {
      "hash": "0xc5a2bfa88f0439481ead6e88ac397d7b21c903955d1751ad7f1203b4fe4616a8",
      "transactionType": "CALL",
      "contractName": "FeeManager",
      "contractAddress": "0xa9888fd40bc181958bd2c2b2d06dd1559d0c8e55",
      "function": "addFeeToken(string,string[],uint256[])",
      "arguments": [
        "97",
        "[0xa4c104db0937f1e886d5c9c9789d6f0e5bfba75c]",
        "[1000]"
      ],
      "transaction": {
        "from": "0xe62ab4d111f968660c6b2188046f9b9ba53c4bae",
        "to": "0xa9888fd40bc181958bd2c2b2d06dd1559d0c8e55",
        "gas": "0x29b15",
        "value": "0x0",
        "input": "0x437bf84f000000000000000000000000000000000000000000000000000000000000006000000000000000000000000000000000000000000000000000000000000000a000000000000000000000000000000000000000000000000000000000000001400000000000000000000000000000000000000000000000000000000000000002393700000000000000000000000000000000000000000000000000000000000000000000000000000000000000000000000000000000000000000000000000010000000000000000000000000000000000000000000000000000000000000020000000000000000000000000000000000000000000000000000000000000002a30786134633130346462303933376631653838366435633963393738396436663065356266626137356300000000000000000000000000000000000000000000000000000000000000000000000000000000000000000000000000000000000100000000000000000000000000000000000000000000000000000000000003e8",
        "nonce": "0xc5",
        "chainId": "0xaa36a7"
      },
      "additionalContracts": [],
      "isFixedGasLimit": false
    },
    {
      "hash": "0x4365b3568715b7d20796962c173339c255ebd96e3aacb91a38b7405668761da9",
      "transactionType": "CALL",
      "contractName": "FeeManager",
      "contractAddress": "0xa9888fd40bc181958bd2c2b2d06dd1559d0c8e55",
      "function": "addFeeToken(string,string[],uint256[])",
      "arguments": [
        "11155111",
        "[0xa4c104db0937f1e886d5c9c9789d6f0e5bfba75c]",
        "[1000]"
      ],
      "transaction": {
        "from": "0xe62ab4d111f968660c6b2188046f9b9ba53c4bae",
        "to": "0xa9888fd40bc181958bd2c2b2d06dd1559d0c8e55",
        "gas": "0x2a7a4",
        "value": "0x0",
        "input": "0x437bf84f000000000000000000000000000000000000000000000000000000000000006000000000000000000000000000000000000000000000000000000000000000a000000000000000000000000000000000000000000000000000000000000001400000000000000000000000000000000000000000000000000000000000000008313131353531313100000000000000000000000000000000000000000000000000000000000000000000000000000000000000000000000000000000000000010000000000000000000000000000000000000000000000000000000000000020000000000000000000000000000000000000000000000000000000000000002a30786134633130346462303933376631653838366435633963393738396436663065356266626137356300000000000000000000000000000000000000000000000000000000000000000000000000000000000000000000000000000000000100000000000000000000000000000000000000000000000000000000000003e8",
        "nonce": "0xc6",
        "chainId": "0xaa36a7"
      },
      "additionalContracts": [],
      "isFixedGasLimit": false
    },
    {
      "hash": "0x8057cff549850a4772176d91f1529d871f31cfbf826f236946773e440f0699a2",
      "transactionType": "CALL",
      "contractName": "CTMRWAGateway",
      "contractAddress": "0xf1a79c24eff78ffffbd4f8df0ce31adec284b9cf",
      "function": "addChainContract(string[],string[])",
      "arguments": [
        "[421614, 80002, 84532, 97]",
        "[0x82c7cf3ad2a7c6ea732c131e552ad171d190421e, 0xb75a2833405907508bd5f8dea3a24fa537d9c85c, 0x8b8de69a9cbca6b7cb85406dde46116dd520d5b0, 0x291e038ef58dcfdf020e0bbea0c9a36713db7966]"
      ],
      "transaction": {
        "from": "0xe62ab4d111f968660c6b2188046f9b9ba53c4bae",
        "to": "0xf1a79c24eff78ffffbd4f8df0ce31adec284b9cf",
        "gas": "0xa9f98",
        "value": "0x0",
        "input": "0x013fd3bd000000000000000000000000000000000000000000000000000000000000004000000000000000000000000000000000000000000000000000000000000001e00000000000000000000000000000000000000000000000000000000000000004000000000000000000000000000000000000000000000000000000000000008000000000000000000000000000000000000000000000000000000000000000c000000000000000000000000000000000000000000000000000000000000001000000000000000000000000000000000000000000000000000000000000000140000000000000000000000000000000000000000000000000000000000000000634323136313400000000000000000000000000000000000000000000000000000000000000000000000000000000000000000000000000000000000000000005383030303200000000000000000000000000000000000000000000000000000000000000000000000000000000000000000000000000000000000000000000053834353332000000000000000000000000000000000000000000000000000000000000000000000000000000000000000000000000000000000000000000000239370000000000000000000000000000000000000000000000000000000000000000000000000000000000000000000000000000000000000000000000000004000000000000000000000000000000000000000000000000000000000000008000000000000000000000000000000000000000000000000000000000000000e0000000000000000000000000000000000000000000000000000000000000014000000000000000000000000000000000000000000000000000000000000001a0000000000000000000000000000000000000000000000000000000000000002a30783832633763663361643261376336656137333263313331653535326164313731643139303432316500000000000000000000000000000000000000000000000000000000000000000000000000000000000000000000000000000000002a30786237356132383333343035393037353038626435663864656133613234666135333764396338356300000000000000000000000000000000000000000000000000000000000000000000000000000000000000000000000000000000002a30783862386465363961396362636136623763623835343036646465343631313664643532306435623000000000000000000000000000000000000000000000000000000000000000000000000000000000000000000000000000000000002a30783239316530333865663538646366646630323065306262656130633961333637313364623739363600000000000000000000000000000000000000000000",
        "nonce": "0xc7",
        "chainId": "0xaa36a7"
      },
      "additionalContracts": [],
      "isFixedGasLimit": false
    },
    {
      "hash": "0xdcb92f8f8dae6654fad798101b559a0985e0f334a630ec7b75c8321223ca1a79",
      "transactionType": "CALL",
      "contractName": "CTMRWAGateway",
      "contractAddress": "0xf1a79c24eff78ffffbd4f8df0ce31adec284b9cf",
      "function": "attachRWAX(uint256,uint256,string[],string[])",
      "arguments": [
        "1",
        "1",
        "[11155111, 421614, 80002, 84532, 97]",
        "[0x2be0c4ac75784737d4d0e75c4026d4bc671b938e, 0x6f2f79720c81631d3a0fe8e19c96f3cebd56519a, 0x74da08abcb64a66370e9c1609771e68aafede27b, 0x24da0f2114b682d01234bc9e103ff7eebf86ae6a, 0x4328bf65bc8c69067a03d0fbde94ca1e24ed966c]"
      ],
      "transaction": {
        "from": "0xe62ab4d111f968660c6b2188046f9b9ba53c4bae",
        "to": "0xf1a79c24eff78ffffbd4f8df0ce31adec284b9cf",
        "gas": "0xd737f",
        "value": "0x0",
        "input": "0x33a5f5b40000000000000000000000000000000000000000000000000000000000000001000000000000000000000000000000000000000000000000000000000000000100000000000000000000000000000000000000000000000000000000000000800000000000000000000000000000000000000000000000000000000000000280000000000000000000000000000000000000000000000000000000000000000500000000000000000000000000000000000000000000000000000000000000a000000000000000000000000000000000000000000000000000000000000000e00000000000000000000000000000000000000000000000000000000000000120000000000000000000000000000000000000000000000000000000000000016000000000000000000000000000000000000000000000000000000000000001a00000000000000000000000000000000000000000000000000000000000000008313131353531313100000000000000000000000000000000000000000000000000000000000000000000000000000000000000000000000000000000000000063432313631340000000000000000000000000000000000000000000000000000000000000000000000000000000000000000000000000000000000000000000538303030320000000000000000000000000000000000000000000000000000000000000000000000000000000000000000000000000000000000000000000005383435333200000000000000000000000000000000000000000000000000000000000000000000000000000000000000000000000000000000000000000000023937000000000000000000000000000000000000000000000000000000000000000000000000000000000000000000000000000000000000000000000000000500000000000000000000000000000000000000000000000000000000000000a00000000000000000000000000000000000000000000000000000000000000100000000000000000000000000000000000000000000000000000000000000016000000000000000000000000000000000000000000000000000000000000001c00000000000000000000000000000000000000000000000000000000000000220000000000000000000000000000000000000000000000000000000000000002a30783262653063346163373537383437333764346430653735633430323664346263363731623933386500000000000000000000000000000000000000000000000000000000000000000000000000000000000000000000000000000000002a30783666326637393732306338313633316433613066653865313963393666336365626435363531396100000000000000000000000000000000000000000000000000000000000000000000000000000000000000000000000000000000002a30783734646130386162636236346136363337306539633136303937373165363861616665646532376200000000000000000000000000000000000000000000000000000000000000000000000000000000000000000000000000000000002a30783234646130663231313462363832643031323334626339653130336666376565626638366165366100000000000000000000000000000000000000000000000000000000000000000000000000000000000000000000000000000000002a30783433323862663635626338633639303637613033643066626465393463613165323465643936366300000000000000000000000000000000000000000000",
        "nonce": "0xc8",
        "chainId": "0xaa36a7"
      },
      "additionalContracts": [],
      "isFixedGasLimit": false
    },
    {
      "hash": "0x91da78b773e25f7ce987e7eeee7e7dee2cc830e3a9e821bda1da68ad79c61447",
      "transactionType": "CALL",
      "contractName": "CTMRWAGateway",
      "contractAddress": "0xf1a79c24eff78ffffbd4f8df0ce31adec284b9cf",
      "function": "attachStorageManager(uint256,uint256,string[],string[])",
      "arguments": [
        "1",
        "1",
        "[11155111, 421614, 80002, 84532, 97]",
        "[0x8e36c2b1ac03d98fac0074c9e8e27023a3ce2206, 0x6dd5666ef6b2e83d504c1ee586fb3c630abc7fd2, 0x44bd5b80fed6d6574d21f9b748d0b9a1d5566312, 0x4fb3a28c53c88731d783610d0ff275b02bbf19e0, 0x6187ee058bb5b7db140cfd470a27ebe1f16d92b1]"
      ],
      "transaction": {
        "from": "0xe62ab4d111f968660c6b2188046f9b9ba53c4bae",
        "to": "0xf1a79c24eff78ffffbd4f8df0ce31adec284b9cf",
        "gas": "0xd723f",
        "value": "0x0",
        "input": "0x2f68b4890000000000000000000000000000000000000000000000000000000000000001000000000000000000000000000000000000000000000000000000000000000100000000000000000000000000000000000000000000000000000000000000800000000000000000000000000000000000000000000000000000000000000280000000000000000000000000000000000000000000000000000000000000000500000000000000000000000000000000000000000000000000000000000000a000000000000000000000000000000000000000000000000000000000000000e00000000000000000000000000000000000000000000000000000000000000120000000000000000000000000000000000000000000000000000000000000016000000000000000000000000000000000000000000000000000000000000001a00000000000000000000000000000000000000000000000000000000000000008313131353531313100000000000000000000000000000000000000000000000000000000000000000000000000000000000000000000000000000000000000063432313631340000000000000000000000000000000000000000000000000000000000000000000000000000000000000000000000000000000000000000000538303030320000000000000000000000000000000000000000000000000000000000000000000000000000000000000000000000000000000000000000000005383435333200000000000000000000000000000000000000000000000000000000000000000000000000000000000000000000000000000000000000000000023937000000000000000000000000000000000000000000000000000000000000000000000000000000000000000000000000000000000000000000000000000500000000000000000000000000000000000000000000000000000000000000a00000000000000000000000000000000000000000000000000000000000000100000000000000000000000000000000000000000000000000000000000000016000000000000000000000000000000000000000000000000000000000000001c00000000000000000000000000000000000000000000000000000000000000220000000000000000000000000000000000000000000000000000000000000002a30783865333663326231616330336439386661633030373463396538653237303233613363653232303600000000000000000000000000000000000000000000000000000000000000000000000000000000000000000000000000000000002a30783664643536363665663662326538336435303463316565353836666233633633306162633766643200000000000000000000000000000000000000000000000000000000000000000000000000000000000000000000000000000000002a30783434626435623830666564366436353734643231663962373438643062396131643535363633313200000000000000000000000000000000000000000000000000000000000000000000000000000000000000000000000000000000002a30783466623361323863353363383837333164373833363130643066663237356230326262663139653000000000000000000000000000000000000000000000000000000000000000000000000000000000000000000000000000000000002a30783631383765653035386262356237646231343063666434373061323765626531663136643932623100000000000000000000000000000000000000000000",
        "nonce": "0xc9",
        "chainId": "0xaa36a7"
      },
      "additionalContracts": [],
      "isFixedGasLimit": false
    }
  ],
  "receipts": [
    {
      "status": "0x1",
      "cumulativeGasUsed": "0x17b1774",
      "logs": [],
      "logsBloom": "0x00000000000000000000000000000000000000000000000000000000000000000000000000000000000000000000000000000000000000000000000000000000000000000000000000000000000000000000000000000000000000000000000000000000000000000000000000000000000000000000000000000000000000000000000000000000000000000000000000000000000000000000000000000000000000000000000000000000000000000000000000000000000000000000000000000000000000000000000000000000000000000000000000000000000000000000000000000000000000000000000000000000000000000000000000000000",
      "type": "0x2",
      "transactionHash": "0xa3b39332151069b9a4a9076bc979a56efa711e3d15464c86afb1ce20cd6f9d51",
      "transactionIndex": "0x46",
      "blockHash": "0x3f33981cff4a07dac85fae233784286539e109c256371aa2c362dd628aaa4104",
      "blockNumber": "0x6b6441",
      "gasUsed": "0x5eb3",
      "effectiveGasPrice": "0xe9b561b4",
      "from": "0xe62ab4d111f968660c6b2188046f9b9ba53c4bae",
      "to": "0xa9888fd40bc181958bd2c2b2d06dd1559d0c8e55",
      "contractAddress": null
    },
    {
      "status": "0x1",
      "cumulativeGasUsed": "0x1c7e043",
      "logs": [
        {
          "address": "0xa9888fd40bc181958bd2c2b2d06dd1559d0c8e55",
          "topics": [
            "0x1394cfab38f3fc78ed77ea6f9318782a446d96e7dc8e9a6b0149f6be25c08bcf",
            "0x000000000000000000000000a4c104db0937f1e886d5c9c9789d6f0e5bfba75c"
          ],
          "data": "0x",
          "blockHash": "0xf702b1b7ea13cbb4a535b5242a2762c3338317f55b4afb79ec5dedbdb6fe8060",
          "blockNumber": "0x6b6442",
          "transactionHash": "0x461b589c0845cc025e97e4e63723ce46a732dde13534c4fc52c05611a4928dfa",
          "transactionIndex": "0x49",
          "logIndex": "0xb5",
          "removed": false
        }
      ],
      "logsBloom": "0x00080000000000000040000000000000000000000000000000000000000000000000000000000000000000000000000000000000000000000000000000000000000000000000000000000000000000000000001000000000000000000000000000000000000000000000000000000000000000000000000000000000000000000000000100000000000000000000000000000000004000000000000000008000000000000000000000000000000000000000004100000000000000000000000000000000000000000000000000000000000000000000000000000000000000000000000000000000000002000000000000000000000000000000000000000000",
      "type": "0x2",
      "transactionHash": "0x461b589c0845cc025e97e4e63723ce46a732dde13534c4fc52c05611a4928dfa",
      "transactionIndex": "0x49",
      "blockHash": "0xf702b1b7ea13cbb4a535b5242a2762c3338317f55b4afb79ec5dedbdb6fe8060",
      "blockNumber": "0x6b6442",
      "gasUsed": "0x1be72",
      "effectiveGasPrice": "0x10408a6ea",
      "from": "0xe62ab4d111f968660c6b2188046f9b9ba53c4bae",
      "to": "0xa9888fd40bc181958bd2c2b2d06dd1559d0c8e55",
      "contractAddress": null
    },
    {
      "status": "0x1",
      "cumulativeGasUsed": "0x1c8adc3",
      "logs": [],
      "logsBloom": "0x00000000000000000000000000000000000000000000000000000000000000000000000000000000000000000000000000000000000000000000000000000000000000000000000000000000000000000000000000000000000000000000000000000000000000000000000000000000000000000000000000000000000000000000000000000000000000000000000000000000000000000000000000000000000000000000000000000000000000000000000000000000000000000000000000000000000000000000000000000000000000000000000000000000000000000000000000000000000000000000000000000000000000000000000000000000",
      "type": "0x2",
      "transactionHash": "0xa0bdeef59be6fddf1efd8432edc9cd3a2345d847b080a54238df182a7d83b6df",
      "transactionIndex": "0x6b",
      "blockHash": "0xd3449073da09f660c7429581cb89292e082de32cdfce861ed7389ce3865864a1",
      "blockNumber": "0x6b6443",
      "gasUsed": "0xbbf9",
      "effectiveGasPrice": "0x1247e8a38",
      "from": "0xe62ab4d111f968660c6b2188046f9b9ba53c4bae",
      "to": "0xa9888fd40bc181958bd2c2b2d06dd1559d0c8e55",
      "contractAddress": null
    },
    {
      "status": "0x1",
      "cumulativeGasUsed": "0x870138",
      "logs": [],
      "logsBloom": "0x00000000000000000000000000000000000000000000000000000000000000000000000000000000000000000000000000000000000000000000000000000000000000000000000000000000000000000000000000000000000000000000000000000000000000000000000000000000000000000000000000000000000000000000000000000000000000000000000000000000000000000000000000000000000000000000000000000000000000000000000000000000000000000000000000000000000000000000000000000000000000000000000000000000000000000000000000000000000000000000000000000000000000000000000000000000",
      "type": "0x2",
      "transactionHash": "0xc94b47d55b3eca654298244919aa8dc4210eba05ad73a3d33b6ef6be68ad3f0f",
      "transactionIndex": "0x4b",
      "blockHash": "0xe8e9b126f7abd1af9726079cbf65dd4b0b95d8766f28d141b21d5e6b0babc887",
      "blockNumber": "0x6b6444",
      "gasUsed": "0xbc22",
      "effectiveGasPrice": "0x14903934c",
      "from": "0xe62ab4d111f968660c6b2188046f9b9ba53c4bae",
      "to": "0xa9888fd40bc181958bd2c2b2d06dd1559d0c8e55",
      "contractAddress": null
    },
    {
      "status": "0x1",
      "cumulativeGasUsed": "0x3fc5bc",
      "logs": [],
      "logsBloom": "0x00000000000000000000000000000000000000000000000000000000000000000000000000000000000000000000000000000000000000000000000000000000000000000000000000000000000000000000000000000000000000000000000000000000000000000000000000000000000000000000000000000000000000000000000000000000000000000000000000000000000000000000000000000000000000000000000000000000000000000000000000000000000000000000000000000000000000000000000000000000000000000000000000000000000000000000000000000000000000000000000000000000000000000000000000000000",
      "type": "0x2",
      "transactionHash": "0x1e4f27bd51057c0aaeb0ce14c9b415f1fc221799b05c3c8a214289534bd81572",
      "transactionIndex": "0x30",
      "blockHash": "0x16ed9183d7f29e1931ff49349a2b4327a146661cd78e8c5cae374b9f89172d63",
      "blockNumber": "0x6b6445",
      "gasUsed": "0xbc39",
      "effectiveGasPrice": "0x14d68e55e",
      "from": "0xe62ab4d111f968660c6b2188046f9b9ba53c4bae",
      "to": "0xa9888fd40bc181958bd2c2b2d06dd1559d0c8e55",
      "contractAddress": null
    },
    {
      "status": "0x1",
      "cumulativeGasUsed": "0xe036f0",
      "logs": [],
      "logsBloom": "0x00000000000000000000000000000000000000000000000000000000000000000000000000000000000000000000000000000000000000000000000000000000000000000000000000000000000000000000000000000000000000000000000000000000000000000000000000000000000000000000000000000000000000000000000000000000000000000000000000000000000000000000000000000000000000000000000000000000000000000000000000000000000000000000000000000000000000000000000000000000000000000000000000000000000000000000000000000000000000000000000000000000000000000000000000000000",
      "type": "0x2",
      "transactionHash": "0x6e78b6814c5f85ff0694d9b708ad9fc66d29ec169334155b483345171f35d9a1",
      "transactionIndex": "0x38",
      "blockHash": "0xa08614598df9ff6ce0a0cda5e1f1792f5e1f74e8a4cdc67e543ed7c91bcf6b73",
      "blockNumber": "0x6b6446",
      "gasUsed": "0xbc50",
      "effectiveGasPrice": "0x12ff49984",
      "from": "0xe62ab4d111f968660c6b2188046f9b9ba53c4bae",
      "to": "0xa9888fd40bc181958bd2c2b2d06dd1559d0c8e55",
      "contractAddress": null
    },
    {
      "status": "0x1",
      "cumulativeGasUsed": "0x590026",
      "logs": [],
      "logsBloom": "0x00000000000000000000000000000000000000000000000000000000000000000000000000000000000000000000000000000000000000000000000000000000000000000000000000000000000000000000000000000000000000000000000000000000000000000000000000000000000000000000000000000000000000000000000000000000000000000000000000000000000000000000000000000000000000000000000000000000000000000000000000000000000000000000000000000000000000000000000000000000000000000000000000000000000000000000000000000000000000000000000000000000000000000000000000000000",
      "type": "0x2",
      "transactionHash": "0x5681bdcccd3be3182a689c9f8dab836bb750d6def496dd99a06f7fc3a02ec142",
      "transactionIndex": "0x2f",
      "blockHash": "0xb74c4cc9cf49964dd85c06e2cf4580a3c57e36b328a47990dfa286961c433d73",
      "blockNumber": "0x6b6447",
      "gasUsed": "0xbc67",
      "effectiveGasPrice": "0x13357fc14",
      "from": "0xe62ab4d111f968660c6b2188046f9b9ba53c4bae",
      "to": "0xa9888fd40bc181958bd2c2b2d06dd1559d0c8e55",
      "contractAddress": null
    },
    {
      "status": "0x1",
      "cumulativeGasUsed": "0x1081bc1",
      "logs": [],
      "logsBloom": "0x00000000000000000000000000000000000000000000000000000000000000000000000000000000000000000000000000000000000000000000000000000000000000000000000000000000000000000000000000000000000000000000000000000000000000000000000000000000000000000000000000000000000000000000000000000000000000000000000000000000000000000000000000000000000000000000000000000000000000000000000000000000000000000000000000000000000000000000000000000000000000000000000000000000000000000000000000000000000000000000000000000000000000000000000000000000",
      "type": "0x2",
      "transactionHash": "0xc3b6c999342ccb54b80636af9bfc6d4e288803f2335017a2647a1b07290ead0a",
      "transactionIndex": "0x48",
      "blockHash": "0xea0d2239f0785043df4ac6d3f71ab58747da302e46efea877d39c6ea29edee7d",
      "blockNumber": "0x6b6448",
      "gasUsed": "0xbc7e",
      "effectiveGasPrice": "0x11fc5fd44",
      "from": "0xe62ab4d111f968660c6b2188046f9b9ba53c4bae",
      "to": "0xa9888fd40bc181958bd2c2b2d06dd1559d0c8e55",
      "contractAddress": null
    },
    {
      "status": "0x1",
      "cumulativeGasUsed": "0x4a9010",
      "logs": [],
      "logsBloom": "0x00000000000000000000000000000000000000000000000000000000000000000000000000000000000000000000000000000000000000000000000000000000000000000000000000000000000000000000000000000000000000000000000000000000000000000000000000000000000000000000000000000000000000000000000000000000000000000000000000000000000000000000000000000000000000000000000000000000000000000000000000000000000000000000000000000000000000000000000000000000000000000000000000000000000000000000000000000000000000000000000000000000000000000000000000000000",
      "type": "0x2",
      "transactionHash": "0x44b6d8a243df725205c71aa7a747168d4b014cc0f1d06bdb13b4e6aa6ccc7713",
      "transactionIndex": "0x2b",
      "blockHash": "0xd1b8a3e8e9b1af686439f64f9d1326dae882198025133342ae041e1ac8c81ba7",
      "blockNumber": "0x6b6449",
      "gasUsed": "0xbc90",
      "effectiveGasPrice": "0x13232569e",
      "from": "0xe62ab4d111f968660c6b2188046f9b9ba53c4bae",
      "to": "0xa9888fd40bc181958bd2c2b2d06dd1559d0c8e55",
      "contractAddress": null
    },
    {
      "status": "0x1",
      "cumulativeGasUsed": "0xba24c3",
      "logs": [],
      "logsBloom": "0x00000000000000000000000000000000000000000000000000000000000000000000000000000000000000000000000000000000000000000000000000000000000000000000000000000000000000000000000000000000000000000000000000000000000000000000000000000000000000000000000000000000000000000000000000000000000000000000000000000000000000000000000000000000000000000000000000000000000000000000000000000000000000000000000000000000000000000000000000000000000000000000000000000000000000000000000000000000000000000000000000000000000000000000000000000000",
      "type": "0x2",
      "transactionHash": "0x312d2188976c9670769ae5f4d63dc2a4b6e496a2b01f155cdae89d1e43d7f70f",
      "transactionIndex": "0x6e",
      "blockHash": "0xf23d6294e39ff15407da21cf69b3432bf0fd9f4044231858bd3e24b937447924",
      "blockNumber": "0x6b644a",
      "gasUsed": "0x22401",
      "effectiveGasPrice": "0x11ab7b1b6",
      "from": "0xe62ab4d111f968660c6b2188046f9b9ba53c4bae",
      "to": "0xa9888fd40bc181958bd2c2b2d06dd1559d0c8e55",
      "contractAddress": null
    },
    {
      "status": "0x1",
      "cumulativeGasUsed": "0x535917",
      "logs": [],
      "logsBloom": "0x00000000000000000000000000000000000000000000000000000000000000000000000000000000000000000000000000000000000000000000000000000000000000000000000000000000000000000000000000000000000000000000000000000000000000000000000000000000000000000000000000000000000000000000000000000000000000000000000000000000000000000000000000000000000000000000000000000000000000000000000000000000000000000000000000000000000000000000000000000000000000000000000000000000000000000000000000000000000000000000000000000000000000000000000000000000",
      "type": "0x2",
      "transactionHash": "0xea7b4780deb9d5c3378a24ee1f9a5f02b202352ff1a37de0c1364ba037c0331e",
      "transactionIndex": "0x30",
      "blockHash": "0x52c5199f7cb6915bc7de95a1f871050cb38969baf4c584b999ef9fa797861a13",
      "blockNumber": "0x6b644b",
      "gasUsed": "0x1e781",
      "effectiveGasPrice": "0x11a1027fd",
      "from": "0xe62ab4d111f968660c6b2188046f9b9ba53c4bae",
      "to": "0xa9888fd40bc181958bd2c2b2d06dd1559d0c8e55",
      "contractAddress": null
    },
    {
      "status": "0x1",
      "cumulativeGasUsed": "0x7bbdda",
      "logs": [],
      "logsBloom": "0x00000000000000000000000000000000000000000000000000000000000000000000000000000000000000000000000000000000000000000000000000000000000000000000000000000000000000000000000000000000000000000000000000000000000000000000000000000000000000000000000000000000000000000000000000000000000000000000000000000000000000000000000000000000000000000000000000000000000000000000000000000000000000000000000000000000000000000000000000000000000000000000000000000000000000000000000000000000000000000000000000000000000000000000000000000000",
      "type": "0x2",
      "transactionHash": "0x142a63eaee4e582beb2c8983eded2cf59be44676fcc9968838087aa8a5795518",
      "transactionIndex": "0x35",
      "blockHash": "0x7b7c8f6c02961206a984f7cec9b216678c4478701fe9f630189f9df2284cdd89",
      "blockNumber": "0x6b644c",
      "gasUsed": "0x1e781",
      "effectiveGasPrice": "0x104527c3c",
      "from": "0xe62ab4d111f968660c6b2188046f9b9ba53c4bae",
      "to": "0xa9888fd40bc181958bd2c2b2d06dd1559d0c8e55",
      "contractAddress": null
    },
    {
      "status": "0x1",
      "cumulativeGasUsed": "0xea6cbe",
      "logs": [],
      "logsBloom": "0x00000000000000000000000000000000000000000000000000000000000000000000000000000000000000000000000000000000000000000000000000000000000000000000000000000000000000000000000000000000000000000000000000000000000000000000000000000000000000000000000000000000000000000000000000000000000000000000000000000000000000000000000000000000000000000000000000000000000000000000000000000000000000000000000000000000000000000000000000000000000000000000000000000000000000000000000000000000000000000000000000000000000000000000000000000000",
      "type": "0x2",
      "transactionHash": "0xc5a2bfa88f0439481ead6e88ac397d7b21c903955d1751ad7f1203b4fe4616a8",
      "transactionIndex": "0x47",
      "blockHash": "0xc4192c071a2872f39345b9583e8eaaed9c2dd9d5cc132cbd3d0fbba57f05eaf4",
      "blockNumber": "0x6b644d",
      "gasUsed": "0x1e2f5",
      "effectiveGasPrice": "0x100f14be5",
      "from": "0xe62ab4d111f968660c6b2188046f9b9ba53c4bae",
      "to": "0xa9888fd40bc181958bd2c2b2d06dd1559d0c8e55",
      "contractAddress": null
    },
    {
      "status": "0x1",
      "cumulativeGasUsed": "0x138bd2f",
      "logs": [],
      "logsBloom": "0x00000000000000000000000000000000000000000000000000000000000000000000000000000000000000000000000000000000000000000000000000000000000000000000000000000000000000000000000000000000000000000000000000000000000000000000000000000000000000000000000000000000000000000000000000000000000000000000000000000000000000000000000000000000000000000000000000000000000000000000000000000000000000000000000000000000000000000000000000000000000000000000000000000000000000000000000000000000000000000000000000000000000000000000000000000000",
      "type": "0x2",
      "transactionHash": "0x4365b3568715b7d20796962c173339c255ebd96e3aacb91a38b7405668761da9",
      "transactionIndex": "0x59",
      "blockHash": "0x6f75c1aa4a848a4f6ccae95bd248be174deb63dbea1b127a83107352ea583a62",
      "blockNumber": "0x6b644e",
      "gasUsed": "0x1ec0d",
      "effectiveGasPrice": "0x102ad29e3",
      "from": "0xe62ab4d111f968660c6b2188046f9b9ba53c4bae",
      "to": "0xa9888fd40bc181958bd2c2b2d06dd1559d0c8e55",
      "contractAddress": null
    },
    {
      "status": "0x1",
      "cumulativeGasUsed": "0x55ff63",
      "logs": [],
      "logsBloom": "0x00000000000000000000000000000000000000000000000000000000000000000000000000000000000000000000000000000000000000000000000000000000000000000000000000000000000000000000000000000000000000000000000000000000000000000000000000000000000000000000000000000000000000000000000000000000000000000000000000000000000000000000000000000000000000000000000000000000000000000000000000000000000000000000000000000000000000000000000000000000000000000000000000000000000000000000000000000000000000000000000000000000000000000000000000000000",
      "type": "0x2",
      "transactionHash": "0x8057cff549850a4772176d91f1529d871f31cfbf826f236946773e440f0699a2",
      "transactionIndex": "0x23",
      "blockHash": "0x11a4e2096946157b000634db0f21143d9fcc65c110fe48f7b0a363b48989982d",
      "blockNumber": "0x6b644f",
      "gasUsed": "0x7b0f0",
      "effectiveGasPrice": "0x112ec0646",
      "from": "0xe62ab4d111f968660c6b2188046f9b9ba53c4bae",
      "to": "0xf1a79c24eff78ffffbd4f8df0ce31adec284b9cf",
      "contractAddress": null
    },
    {
      "status": "0x1",
      "cumulativeGasUsed": "0xb3f5e0",
      "logs": [],
      "logsBloom": "0x00000000000000000000000000000000000000000000000000000000000000000000000000000000000000000000000000000000000000000000000000000000000000000000000000000000000000000000000000000000000000000000000000000000000000000000000000000000000000000000000000000000000000000000000000000000000000000000000000000000000000000000000000000000000000000000000000000000000000000000000000000000000000000000000000000000000000000000000000000000000000000000000000000000000000000000000000000000000000000000000000000000000000000000000000000000",
      "type": "0x2",
      "transactionHash": "0xdcb92f8f8dae6654fad798101b559a0985e0f334a630ec7b75c8321223ca1a79",
      "transactionIndex": "0x40",
      "blockHash": "0xc1ef0a7f0abf3f07ccdc97f561e8160f93922914105bf4d7feda24644fec7075",
      "blockNumber": "0x6b6450",
      "gasUsed": "0x9bd08",
      "effectiveGasPrice": "0xff5e0dbd",
      "from": "0xe62ab4d111f968660c6b2188046f9b9ba53c4bae",
      "to": "0xf1a79c24eff78ffffbd4f8df0ce31adec284b9cf",
      "contractAddress": null
    },
    {
      "status": "0x1",
      "cumulativeGasUsed": "0x11b4489",
      "logs": [],
      "logsBloom": "0x00000000000000000000000000000000000000000000000000000000000000000000000000000000000000000000000000000000000000000000000000000000000000000000000000000000000000000000000000000000000000000000000000000000000000000000000000000000000000000000000000000000000000000000000000000000000000000000000000000000000000000000000000000000000000000000000000000000000000000000000000000000000000000000000000000000000000000000000000000000000000000000000000000000000000000000000000000000000000000000000000000000000000000000000000000000",
      "type": "0x2",
      "transactionHash": "0x91da78b773e25f7ce987e7eeee7e7dee2cc830e3a9e821bda1da68ad79c61447",
      "transactionIndex": "0x47",
      "blockHash": "0xd874695923cb29df0eb369064a7ddc4d91270cde296a3110cf4e97054f13c8b0",
      "blockNumber": "0x6b6451",
      "gasUsed": "0x9bc20",
      "effectiveGasPrice": "0xfbc70cf5",
      "from": "0xe62ab4d111f968660c6b2188046f9b9ba53c4bae",
      "to": "0xf1a79c24eff78ffffbd4f8df0ce31adec284b9cf",
      "contractAddress": null
    }
  ],
  "libraries": [],
  "pending": [],
  "returns": {},
  "timestamp": 1731092344,
  "chain": 11155111,
  "commit": "ac6d4a5e"
}