{
  "transactions": [
    {
      "hash": "0xad20b810c0a9e23b6eb6359ee5edb7435453b0f76f8ce03cc322251788f7e0cc",
      "transactionType": "CALL",
      "contractName": null,
      "contractAddress": "0x58b610a359c870e0fc941139821a51f5aa23f14e",
      "function": "addTxSender(address)",
      "arguments": [
        "0xa0CDAc76fA51aa65402137e3FA5357432Af02e02"
      ],
      "transaction": {
        "from": "0xc3ca11bd8e131471904dced927b3fb7edb453179",
        "to": "0x58b610a359c870e0fc941139821a51f5aa23f14e",
        "gas": "0x12a32",
        "value": "0x0",
        "input": "0xeebd14af000000000000000000000000a0cdac76fa51aa65402137e3fa5357432af02e02",
        "nonce": "0xae",
        "chainId": "0x79a"
      },
      "additionalContracts": [],
      "isFixedGasLimit": false
    },
    {
      "hash": "0x5e5637d1a1da09b5a684b8278053fdd440a2c2f84bb34303c9d444b7ce76b72d",
      "transactionType": "CALL",
      "contractName": null,
      "contractAddress": "0x2f925d6512b2bbb00f5a36d8b18e01fcf35f7dc7",
      "function": "addTxSender(address)",
      "arguments": [
        "0xa0CDAc76fA51aa65402137e3FA5357432Af02e02"
      ],
      "transaction": {
        "from": "0xc3ca11bd8e131471904dced927b3fb7edb453179",
        "to": "0x2f925d6512b2bbb00f5a36d8b18e01fcf35f7dc7",
        "gas": "0x12a13",
        "value": "0x0",
        "input": "0xeebd14af000000000000000000000000a0cdac76fa51aa65402137e3fa5357432af02e02",
        "nonce": "0xaf",
        "chainId": "0x79a"
      },
      "additionalContracts": [],
      "isFixedGasLimit": false
    },
    {
      "hash": "0x747e135537526370348d47277acc749a4613466b8740c9a9f614e4ba1c762504",
      "transactionType": "CALL",
      "contractName": null,
      "contractAddress": "0x9c9e9fad264089339aad66ff3e32d2ba1ddf6951",
      "function": "addTxSender(address)",
      "arguments": [
        "0xa0CDAc76fA51aa65402137e3FA5357432Af02e02"
      ],
      "transaction": {
        "from": "0xc3ca11bd8e131471904dced927b3fb7edb453179",
        "to": "0x9c9e9fad264089339aad66ff3e32d2ba1ddf6951",
        "gas": "0x12b07",
        "value": "0x0",
        "input": "0xeebd14af000000000000000000000000a0cdac76fa51aa65402137e3fa5357432af02e02",
        "nonce": "0xb0",
        "chainId": "0x79a"
      },
      "additionalContracts": [],
      "isFixedGasLimit": false
    },
    {
      "hash": "0x7f0aa79279033db619ee17bbdbf74229a839a6214621975f0b4b880be426bd36",
      "transactionType": "CALL",
      "contractName": null,
      "contractAddress": "0xe912f7c7a59470a6e3f178388106e3caa9e6fbd1",
      "function": "addTxSender(address)",
      "arguments": [
        "0xa0CDAc76fA51aa65402137e3FA5357432Af02e02"
      ],
      "transaction": {
        "from": "0xc3ca11bd8e131471904dced927b3fb7edb453179",
        "to": "0xe912f7c7a59470a6e3f178388106e3caa9e6fbd1",
        "gas": "0x12a8d",
        "value": "0x0",
        "input": "0xeebd14af000000000000000000000000a0cdac76fa51aa65402137e3fa5357432af02e02",
        "nonce": "0xb1",
        "chainId": "0x79a"
      },
      "additionalContracts": [],
      "isFixedGasLimit": false
    },
    {
      "hash": "0x30cd43b6094c6d7af66843f5520bb4fb55c12eb16576c58e8002538221f9dc4e",
      "transactionType": "CALL",
      "contractName": null,
      "contractAddress": "0x92228b058f25bc4fb333fa296dddecbddf6496f3",
      "function": "addTxSender(address)",
      "arguments": [
        "0xa0CDAc76fA51aa65402137e3FA5357432Af02e02"
      ],
      "transaction": {
        "from": "0xc3ca11bd8e131471904dced927b3fb7edb453179",
        "to": "0x92228b058f25bc4fb333fa296dddecbddf6496f3",
        "gas": "0x12940",
        "value": "0x0",
        "input": "0xeebd14af000000000000000000000000a0cdac76fa51aa65402137e3fa5357432af02e02",
        "nonce": "0xb2",
        "chainId": "0x79a"
      },
      "additionalContracts": [],
      "isFixedGasLimit": false
    },
    {
      "hash": "0xb3a549d3232f2a6080f169ccd8df5ad6d005da58b8a0a5d8cd17803248b3eba4",
      "transactionType": "CALL",
      "contractName": null,
      "contractAddress": "0x2af842c6517cf30fb3456aef485230e0dd085845",
      "function": "addTxSender(address)",
      "arguments": [
        "0xa0CDAc76fA51aa65402137e3FA5357432Af02e02"
      ],
      "transaction": {
        "from": "0xc3ca11bd8e131471904dced927b3fb7edb453179",
        "to": "0x2af842c6517cf30fb3456aef485230e0dd085845",
        "gas": "0x12a14",
        "value": "0x0",
        "input": "0xeebd14af000000000000000000000000a0cdac76fa51aa65402137e3fa5357432af02e02",
        "nonce": "0xb3",
        "chainId": "0x79a"
      },
      "additionalContracts": [],
      "isFixedGasLimit": false
    },
    {
      "hash": "0xf8ae3f6f0e1a041571a7c1d2434d3c8a88fb3a163af2a151de00f3e2f269e447",
      "transactionType": "CALL",
      "contractName": null,
      "contractAddress": "0x2026027054f5bebceb650abd62dc623e327658e7",
      "function": "addTxSender(address)",
      "arguments": [
        "0xa0CDAc76fA51aa65402137e3FA5357432Af02e02"
      ],
      "transaction": {
        "from": "0xc3ca11bd8e131471904dced927b3fb7edb453179",
        "to": "0x2026027054f5bebceb650abd62dc623e327658e7",
        "gas": "0x1294d",
        "value": "0x0",
        "input": "0xeebd14af000000000000000000000000a0cdac76fa51aa65402137e3fa5357432af02e02",
        "nonce": "0xb4",
        "chainId": "0x79a"
      },
      "additionalContracts": [],
      "isFixedGasLimit": false
    }
  ],
  "receipts": [
    {
      "status": "0x1",
      "cumulativeGasUsed": "0x18c0c",
      "logs": [
        {
          "address": "0x58b610a359c870e0fc941139821a51f5aa23f14e",
          "topics": [
            "0xbfb8b3e2f6221ae729e9cacb0d35f5d9be686ba10cb1d4e34b646bbb87f7a269",
            "0x000000000000000000000000a0cdac76fa51aa65402137e3fa5357432af02e02"
          ],
          "data": "0x0000000000000000000000000000000000000000000000000000000000000001",
          "blockHash": "0xd62ed19abd7dc06cd1f7bb83ae446def44db8c784ae008af87ddd9230fe0d2b9",
          "blockNumber": "0x10f2172",
          "transactionHash": "0xad20b810c0a9e23b6eb6359ee5edb7435453b0f76f8ce03cc322251788f7e0cc",
          "transactionIndex": "0x1",
          "logIndex": "0x0",
          "removed": false
        }
      ],
      "logsBloom": "0x00000000000010000000000000800000000000000000000000000000000000000000000000000000000000000000000000000020000000000000000000000000000040000000000000000000000000000000000000000000000000000000000000000000000000000000000000000000020000000000000000000002000000000000000000000000000000000000000000000000000000000000000000000000000000000100000000000000000000000000000000000000000000000000000000000000000000000000000000000000000000000000000000000000000000000000000000010000000000080000000000000000000000000000000000000000",
      "type": "0x2",
      "transactionHash": "0xad20b810c0a9e23b6eb6359ee5edb7435453b0f76f8ce03cc322251788f7e0cc",
      "transactionIndex": "0x1",
      "blockHash": "0xd62ed19abd7dc06cd1f7bb83ae446def44db8c784ae008af87ddd9230fe0d2b9",
      "blockNumber": "0x10f2172",
      "gasUsed": "0xd7e4",
      "effectiveGasPrice": "0xfd",
      "from": "0xc3ca11bd8e131471904dced927b3fb7edb453179",
      "to": "0x58b610a359c870e0fc941139821a51f5aa23f14e",
      "contractAddress": null,
      "l1BaseFeeScalar": "0x2608",
      "l1BlobBaseFee": "0x1",
      "l1BlobBaseFeeScalar": "0x177fef",
      "l1Fee": "0x1bcce",
      "l1GasPrice": "0x1c84",
      "l1GasUsed": "0x640"
    },
    {
      "status": "0x1",
      "cumulativeGasUsed": "0x26483",
      "logs": [
        {
          "address": "0x2f925d6512b2bbb00f5a36d8b18e01fcf35f7dc7",
          "topics": [
            "0xbfb8b3e2f6221ae729e9cacb0d35f5d9be686ba10cb1d4e34b646bbb87f7a269",
            "0x000000000000000000000000a0cdac76fa51aa65402137e3fa5357432af02e02"
          ],
          "data": "0x0000000000000000000000000000000000000000000000000000000000000001",
          "blockHash": "0xdf5c1688fa210a4d5ed98737465486b636c395b5b9f9542c41fed28bd342d58e",
          "blockNumber": "0x10f2174",
          "transactionHash": "0x5e5637d1a1da09b5a684b8278053fdd440a2c2f84bb34303c9d444b7ce76b72d",
          "transactionIndex": "0x2",
          "logIndex": "0x1",
          "removed": false
        }
      ],
      "logsBloom": "0x00000000000000000000000000800000000000000000000000000000000000000000000000000000000000000000000000000020000000000000000000000000000040000000000000000000000000000000000000000000000000000000000000000000000000000000000000000000020000000000000000000002000000000000000400000000000000000000000000000000000000000000000000000000000000000000000000000000000000000000000000000000000000000000004000000000000000000000000000004000000000000000000000000000000000000000000000010000000000000000000000000000000000000000000000000000",
      "type": "0x2",
      "transactionHash": "0x5e5637d1a1da09b5a684b8278053fdd440a2c2f84bb34303c9d444b7ce76b72d",
      "transactionIndex": "0x2",
      "blockHash": "0xdf5c1688fa210a4d5ed98737465486b636c395b5b9f9542c41fed28bd342d58e",
      "blockNumber": "0x10f2174",
      "gasUsed": "0xd7ce",
      "effectiveGasPrice": "0xfd",
      "from": "0xc3ca11bd8e131471904dced927b3fb7edb453179",
      "to": "0x2f925d6512b2bbb00f5a36d8b18e01fcf35f7dc7",
      "contractAddress": null,
      "l1BaseFeeScalar": "0x2608",
      "l1BlobBaseFee": "0x1",
      "l1BlobBaseFeeScalar": "0x177fef",
      "l1Fee": "0x1bcce",
      "l1GasPrice": "0x1c84",
      "l1GasUsed": "0x640"
    },
    {
      "status": "0x1",
      "cumulativeGasUsed": "0x18ca7",
      "logs": [
        {
          "address": "0x9c9e9fad264089339aad66ff3e32d2ba1ddf6951",
          "topics": [
            "0xbfb8b3e2f6221ae729e9cacb0d35f5d9be686ba10cb1d4e34b646bbb87f7a269",
            "0x000000000000000000000000a0cdac76fa51aa65402137e3fa5357432af02e02"
          ],
          "data": "0x0000000000000000000000000000000000000000000000000000000000000001",
          "blockHash": "0x32cbc10c20f0b3b68e05f659db3eb8ce5da7e814c975b48b90ef1f5674b163b2",
          "blockNumber": "0x10f2176",
          "transactionHash": "0x747e135537526370348d47277acc749a4613466b8740c9a9f614e4ba1c762504",
          "transactionIndex": "0x1",
          "logIndex": "0x0",
          "removed": false
        }
      ],
      "logsBloom": "0x00000000000000000000000000800000000000000000000000000000000000000000000000000000000000000000000000000020000000000000000000000000000040000000000000000000000000000000000000000000000000000000000000000000000000000000000000000000020000000000000000000002000000000000000000000000000000000000000000000000000000000000000000000000000000000000000000000000000000000000000000000000000000000000000000000000000000000000000800000000000000000000000000000000000002000000400000010000000000000000000000000000000000000000000000000000",
      "type": "0x2",
      "transactionHash": "0x747e135537526370348d47277acc749a4613466b8740c9a9f614e4ba1c762504",
      "transactionIndex": "0x1",
      "blockHash": "0x32cbc10c20f0b3b68e05f659db3eb8ce5da7e814c975b48b90ef1f5674b163b2",
      "blockNumber": "0x10f2176",
      "gasUsed": "0xd87f",
      "effectiveGasPrice": "0xfd",
      "from": "0xc3ca11bd8e131471904dced927b3fb7edb453179",
      "to": "0x9c9e9fad264089339aad66ff3e32d2ba1ddf6951",
      "contractAddress": null,
      "l1BaseFeeScalar": "0x2608",
      "l1BlobBaseFee": "0x1",
      "l1BlobBaseFeeScalar": "0x177fef",
      "l1Fee": "0x1bcce",
      "l1GasPrice": "0x1c84",
      "l1GasUsed": "0x640"
    },
    {
      "status": "0x1",
      "cumulativeGasUsed": "0x18c4e",
      "logs": [
        {
          "address": "0xe912f7c7a59470a6e3f178388106e3caa9e6fbd1",
          "topics": [
            "0xbfb8b3e2f6221ae729e9cacb0d35f5d9be686ba10cb1d4e34b646bbb87f7a269",
            "0x000000000000000000000000a0cdac76fa51aa65402137e3fa5357432af02e02"
          ],
          "data": "0x0000000000000000000000000000000000000000000000000000000000000001",
          "blockHash": "0x80ae011ea3b9af92de399b16057ede1fd18c03f401fc8965ba1b5450ec6332c5",
          "blockNumber": "0x10f2179",
          "transactionHash": "0x7f0aa79279033db619ee17bbdbf74229a839a6214621975f0b4b880be426bd36",
          "transactionIndex": "0x1",
          "logIndex": "0x0",
          "removed": false
        }
      ],
      "logsBloom": "0x00000000000000000000000000800000000000000000000000000000000004000000000000000000000000000000000000000020000000000000000000000000000040020000000000010000000000000000000000000000000000000000000000000000000000000000000000000000020000000000000000000002000000000000000000000000000000000000000000000000000000000000000000000000000000000000000000000000000000000000000000000000000000000000000000000000000000000000000000000000000000000000000000000000000000000000000000010000000000000000000000000000000000000000000000000000",
      "type": "0x2",
      "transactionHash": "0x7f0aa79279033db619ee17bbdbf74229a839a6214621975f0b4b880be426bd36",
      "transactionIndex": "0x1",
      "blockHash": "0x80ae011ea3b9af92de399b16057ede1fd18c03f401fc8965ba1b5450ec6332c5",
      "blockNumber": "0x10f2179",
      "gasUsed": "0xd826",
      "effectiveGasPrice": "0xfd",
      "from": "0xc3ca11bd8e131471904dced927b3fb7edb453179",
      "to": "0xe912f7c7a59470a6e3f178388106e3caa9e6fbd1",
      "contractAddress": null,
      "l1BaseFeeScalar": "0x2608",
      "l1BlobBaseFee": "0x1",
      "l1BlobBaseFeeScalar": "0x177fef",
      "l1Fee": "0x1983c",
      "l1GasPrice": "0x1a2b",
      "l1GasUsed": "0x640"
    },
    {
      "status": "0x1",
      "cumulativeGasUsed": "0x30ccb",
      "logs": [
        {
          "address": "0x92228b058f25bc4fb333fa296dddecbddf6496f3",
          "topics": [
            "0xbfb8b3e2f6221ae729e9cacb0d35f5d9be686ba10cb1d4e34b646bbb87f7a269",
            "0x000000000000000000000000a0cdac76fa51aa65402137e3fa5357432af02e02"
          ],
          "data": "0x0000000000000000000000000000000000000000000000000000000000000001",
          "blockHash": "0x591a93f053d5c1e0ff889b71735dba9b4aadea5c9c7426f8716578ba3b507814",
          "blockNumber": "0x10f217c",
          "transactionHash": "0x30cd43b6094c6d7af66843f5520bb4fb55c12eb16576c58e8002538221f9dc4e",
          "transactionIndex": "0x2",
          "logIndex": "0x3",
          "removed": false
        }
      ],
      "logsBloom": "0x00000000000000000000000000800000000000000000000000000000000000000000000000000000000000000000000000000020000000000000000000000000000040000000000000000000000000000000000000000000000000000000000000000000000000000000000000000000020000000000000000000002000000000000000000000000000000000000000000000000000000008010000000000000000000000000000000000000000000000000000000000000000000000000000000000000002000000000000000000000000000000000000000000000000000000000000000010000000000000000000000000000000000000000000000000000",
      "type": "0x2",
      "transactionHash": "0x30cd43b6094c6d7af66843f5520bb4fb55c12eb16576c58e8002538221f9dc4e",
      "transactionIndex": "0x2",
      "blockHash": "0x591a93f053d5c1e0ff889b71735dba9b4aadea5c9c7426f8716578ba3b507814",
      "blockNumber": "0x10f217c",
      "gasUsed": "0xd735",
      "effectiveGasPrice": "0xfd",
      "from": "0xc3ca11bd8e131471904dced927b3fb7edb453179",
      "to": "0x92228b058f25bc4fb333fa296dddecbddf6496f3",
      "contractAddress": null,
      "l1BaseFeeScalar": "0x2608",
      "l1BlobBaseFee": "0x1",
      "l1BlobBaseFeeScalar": "0x177fef",
      "l1Fee": "0x1983c",
      "l1GasPrice": "0x1a2b",
      "l1GasUsed": "0x640"
    },
    {
      "status": "0x1",
      "cumulativeGasUsed": "0x1a1cb",
      "logs": [
        {
          "address": "0x2af842c6517cf30fb3456aef485230e0dd085845",
          "topics": [
            "0xbfb8b3e2f6221ae729e9cacb0d35f5d9be686ba10cb1d4e34b646bbb87f7a269",
            "0x000000000000000000000000a0cdac76fa51aa65402137e3fa5357432af02e02"
          ],
          "data": "0x0000000000000000000000000000000000000000000000000000000000000001",
          "blockHash": "0x9c44925446cb9ac87949f5f502146ef6ad82ca60a20c802f953aceba810e838b",
          "blockNumber": "0x10f217f",
          "transactionHash": "0xb3a549d3232f2a6080f169ccd8df5ad6d005da58b8a0a5d8cd17803248b3eba4",
          "transactionIndex": "0x1",
          "logIndex": "0x0",
          "removed": false
        }
      ],
      "logsBloom": "0x00000000000000000000000000800000000000000000000000000000000000000000000000000000000000000000000000000020000000000000000000000000000040000000800000000000000000000000000000000000000000000000000000000000000000000000000000000000020000000000000000000002000000000000000000000000000000000000000000000000000000000000000000000000000000004000000000000000000000000000000000000000000000000000000000000000000000000000000000000000000000000000000000000200000000000000000000010000000000000000000000000000000000000000000000000000",
      "type": "0x2",
      "transactionHash": "0xb3a549d3232f2a6080f169ccd8df5ad6d005da58b8a0a5d8cd17803248b3eba4",
      "transactionIndex": "0x1",
      "blockHash": "0x9c44925446cb9ac87949f5f502146ef6ad82ca60a20c802f953aceba810e838b",
      "blockNumber": "0x10f217f",
      "gasUsed": "0xd7cf",
      "effectiveGasPrice": "0xfd",
      "from": "0xc3ca11bd8e131471904dced927b3fb7edb453179",
      "to": "0x2af842c6517cf30fb3456aef485230e0dd085845",
      "contractAddress": null,
      "l1BaseFeeScalar": "0x2608",
      "l1BlobBaseFee": "0x1",
      "l1BlobBaseFeeScalar": "0x177fef",
      "l1Fee": "0x174b3",
      "l1GasPrice": "0x17e3",
      "l1GasUsed": "0x640"
    },
    {
      "status": "0x1",
      "cumulativeGasUsed": "0x18b67",
      "logs": [
        {
          "address": "0x2026027054f5bebceb650abd62dc623e327658e7",
          "topics": [
            "0xbfb8b3e2f6221ae729e9cacb0d35f5d9be686ba10cb1d4e34b646bbb87f7a269",
            "0x000000000000000000000000a0cdac76fa51aa65402137e3fa5357432af02e02"
          ],
          "data": "0x0000000000000000000000000000000000000000000000000000000000000001",
          "blockHash": "0xe2ed87cb6335dd5d98c10215dedd1fbefc282ebcc7c7a98042badd5576c75c4d",
          "blockNumber": "0x10f2181",
          "transactionHash": "0xf8ae3f6f0e1a041571a7c1d2434d3c8a88fb3a163af2a151de00f3e2f269e447",
          "transactionIndex": "0x1",
          "logIndex": "0x0",
          "removed": false
        }
      ],
      "logsBloom": "0x00000000000000000000000000800000000000000000000000000000000000000000000000800000000000000000000000000020000000000000000000000200000040000000000000000000000000000000000000000000000000000000000000000000000000000000000000000000020000000000000000000002000000000020000000000000000000000000000000000000000000000000000000000000000000000000000000000000000000000000000000000000000000000000000000000000000000000000000000000000000000000000000000000000000000000000000000010000000000000000000000000000000000000000000000000000",
      "type": "0x2",
      "transactionHash": "0xf8ae3f6f0e1a041571a7c1d2434d3c8a88fb3a163af2a151de00f3e2f269e447",
      "transactionIndex": "0x1",
      "blockHash": "0xe2ed87cb6335dd5d98c10215dedd1fbefc282ebcc7c7a98042badd5576c75c4d",
      "blockNumber": "0x10f2181",
      "gasUsed": "0xd73f",
      "effectiveGasPrice": "0xfd",
      "from": "0xc3ca11bd8e131471904dced927b3fb7edb453179",
      "to": "0x2026027054f5bebceb650abd62dc623e327658e7",
      "contractAddress": null,
      "l1BaseFeeScalar": "0x2608",
      "l1BlobBaseFee": "0x1",
      "l1BlobBaseFeeScalar": "0x177fef",
      "l1Fee": "0x174b3",
      "l1GasPrice": "0x17e3",
      "l1GasUsed": "0x640"
    }
  ],
  "libraries": [],
  "pending": [],
  "returns": {},
  "timestamp": 1758732003490,
  "chain": 1946,
  "commit": "9b3cda6"
}