{
  "transactions": [
    {
      "hash": "0x61ebe0fedc338109588bfc3d3f55444ead2679ba9e5d69efa4a80f434d1de88d",
      "transactionType": "CALL",
      "contractName": null,
      "contractAddress": "0x58b610a359c870e0fc941139821a51f5aa23f14e",
      "function": "addTxSender(address)",
      "arguments": [
        "0x5d0725Add79feD3f0E61851b3C4704148Ef9c7eA"
      ],
      "transaction": {
        "from": "0xc3ca11bd8e131471904dced927b3fb7edb453179",
        "to": "0x58b610a359c870e0fc941139821a51f5aa23f14e",
        "gas": "0x12a32",
        "value": "0x0",
        "input": "0xeebd14af0000000000000000000000005d0725add79fed3f0e61851b3c4704148ef9c7ea",
        "nonce": "0xb5",
        "chainId": "0x79a"
      },
      "additionalContracts": [],
      "isFixedGasLimit": false
    },
    {
      "hash": "0x9768f76369a524a5fcd1ddbf950bca070da4996ce28f4e1ddeca437cfd7b430f",
      "transactionType": "CALL",
      "contractName": null,
      "contractAddress": "0x2f925d6512b2bbb00f5a36d8b18e01fcf35f7dc7",
      "function": "addTxSender(address)",
      "arguments": [
        "0x5d0725Add79feD3f0E61851b3C4704148Ef9c7eA"
      ],
      "transaction": {
        "from": "0xc3ca11bd8e131471904dced927b3fb7edb453179",
        "to": "0x2f925d6512b2bbb00f5a36d8b18e01fcf35f7dc7",
        "gas": "0x12a13",
        "value": "0x0",
        "input": "0xeebd14af0000000000000000000000005d0725add79fed3f0e61851b3c4704148ef9c7ea",
        "nonce": "0xb6",
        "chainId": "0x79a"
      },
      "additionalContracts": [],
      "isFixedGasLimit": false
    },
    {
      "hash": "0x0b56274214618db355ee5696a55b81045af6a75fe46d920505738dacc81c68b4",
      "transactionType": "CALL",
      "contractName": null,
      "contractAddress": "0x9c9e9fad264089339aad66ff3e32d2ba1ddf6951",
      "function": "addTxSender(address)",
      "arguments": [
        "0x5d0725Add79feD3f0E61851b3C4704148Ef9c7eA"
      ],
      "transaction": {
        "from": "0xc3ca11bd8e131471904dced927b3fb7edb453179",
        "to": "0x9c9e9fad264089339aad66ff3e32d2ba1ddf6951",
        "gas": "0x12b07",
        "value": "0x0",
        "input": "0xeebd14af0000000000000000000000005d0725add79fed3f0e61851b3c4704148ef9c7ea",
        "nonce": "0xb7",
        "chainId": "0x79a"
      },
      "additionalContracts": [],
      "isFixedGasLimit": false
    },
    {
      "hash": "0xa4b1c1be1dab08c2bf28eaa9dcfa977a3b481a1629552bc25dfedf52314acdde",
      "transactionType": "CALL",
      "contractName": null,
      "contractAddress": "0xe912f7c7a59470a6e3f178388106e3caa9e6fbd1",
      "function": "addTxSender(address)",
      "arguments": [
        "0x5d0725Add79feD3f0E61851b3C4704148Ef9c7eA"
      ],
      "transaction": {
        "from": "0xc3ca11bd8e131471904dced927b3fb7edb453179",
        "to": "0xe912f7c7a59470a6e3f178388106e3caa9e6fbd1",
        "gas": "0x12a8d",
        "value": "0x0",
        "input": "0xeebd14af0000000000000000000000005d0725add79fed3f0e61851b3c4704148ef9c7ea",
        "nonce": "0xb8",
        "chainId": "0x79a"
      },
      "additionalContracts": [],
      "isFixedGasLimit": false
    },
    {
      "hash": "0xf0094ebf08f598f84faf95e504501f8fd0bcdc046c174fa3e34568a83da4dd9d",
      "transactionType": "CALL",
      "contractName": null,
      "contractAddress": "0x92228b058f25bc4fb333fa296dddecbddf6496f3",
      "function": "addTxSender(address)",
      "arguments": [
        "0x5d0725Add79feD3f0E61851b3C4704148Ef9c7eA"
      ],
      "transaction": {
        "from": "0xc3ca11bd8e131471904dced927b3fb7edb453179",
        "to": "0x92228b058f25bc4fb333fa296dddecbddf6496f3",
        "gas": "0x12940",
        "value": "0x0",
        "input": "0xeebd14af0000000000000000000000005d0725add79fed3f0e61851b3c4704148ef9c7ea",
        "nonce": "0xb9",
        "chainId": "0x79a"
      },
      "additionalContracts": [],
      "isFixedGasLimit": false
    },
    {
      "hash": "0x6d006188f211f4a2a282d4806f206bce34c21f4dfdd88f63a2d10162ab3385cd",
      "transactionType": "CALL",
      "contractName": null,
      "contractAddress": "0x2af842c6517cf30fb3456aef485230e0dd085845",
      "function": "addTxSender(address)",
      "arguments": [
        "0x5d0725Add79feD3f0E61851b3C4704148Ef9c7eA"
      ],
      "transaction": {
        "from": "0xc3ca11bd8e131471904dced927b3fb7edb453179",
        "to": "0x2af842c6517cf30fb3456aef485230e0dd085845",
        "gas": "0x12a14",
        "value": "0x0",
        "input": "0xeebd14af0000000000000000000000005d0725add79fed3f0e61851b3c4704148ef9c7ea",
        "nonce": "0xba",
        "chainId": "0x79a"
      },
      "additionalContracts": [],
      "isFixedGasLimit": false
    },
    {
      "hash": "0x4b905955038836348d07081c84e4a4d8a4db10bd0ad38660584e628a1917103d",
      "transactionType": "CALL",
      "contractName": null,
      "contractAddress": "0x2026027054f5bebceb650abd62dc623e327658e7",
      "function": "addTxSender(address)",
      "arguments": [
        "0x5d0725Add79feD3f0E61851b3C4704148Ef9c7eA"
      ],
      "transaction": {
        "from": "0xc3ca11bd8e131471904dced927b3fb7edb453179",
        "to": "0x2026027054f5bebceb650abd62dc623e327658e7",
        "gas": "0x1294d",
        "value": "0x0",
        "input": "0xeebd14af0000000000000000000000005d0725add79fed3f0e61851b3c4704148ef9c7ea",
        "nonce": "0xbb",
        "chainId": "0x79a"
      },
      "additionalContracts": [],
      "isFixedGasLimit": false
    }
  ],
  "receipts": [
    {
      "status": "0x1",
      "cumulativeGasUsed": "0x22065",
      "logs": [
        {
          "address": "0x58b610a359c870e0fc941139821a51f5aa23f14e",
          "topics": [
            "0xbfb8b3e2f6221ae729e9cacb0d35f5d9be686ba10cb1d4e34b646bbb87f7a269",
            "0x0000000000000000000000005d0725add79fed3f0e61851b3c4704148ef9c7ea"
          ],
          "data": "0x0000000000000000000000000000000000000000000000000000000000000001",
          "blockHash": "0xdd5f94d2bdfaba1c83c0ba634e23105727d518f89aaf35316e4372c05d019049",
          "blockNumber": "0x10faa45",
          "transactionHash": "0x61ebe0fedc338109588bfc3d3f55444ead2679ba9e5d69efa4a80f434d1de88d",
          "transactionIndex": "0x2",
          "logIndex": "0x0",
          "removed": false
        }
      ],
      "logsBloom": "0x00000000000010000000000000000000000000000000000000000000000000000000000000000000000000000000000000000020000000000000000000000000000040000000000000000000000000000000000000000000000000000000000000000000000000000000000000000000000000000000000000000002000000000000000000000000000000000000000000000000000000000000000000000000000000000100000000000000000000000000000000000000000000000000000000000000000000000000000000000000000000000000000000000000000008000000000000000000000000080000000000000008000001000000000000000000",
      "type": "0x2",
      "transactionHash": "0x61ebe0fedc338109588bfc3d3f55444ead2679ba9e5d69efa4a80f434d1de88d",
      "transactionIndex": "0x2",
      "blockHash": "0xdd5f94d2bdfaba1c83c0ba634e23105727d518f89aaf35316e4372c05d019049",
      "blockNumber": "0x10faa45",
      "gasUsed": "0xd7e4",
      "effectiveGasPrice": "0xfd",
      "from": "0xc3ca11bd8e131471904dced927b3fb7edb453179",
      "to": "0x58b610a359c870e0fc941139821a51f5aa23f14e",
      "contractAddress": null,
      "l1BaseFeeScalar": "0x2608",
      "l1BlobBaseFee": "0x1",
      "l1BlobBaseFeeScalar": "0x177fef",
      "l1Fee": "0x193",
      "l1GasPrice": "0x10",
      "l1GasUsed": "0x640"
    },
    {
      "status": "0x1",
      "cumulativeGasUsed": "0x18bea",
      "logs": [
        {
          "address": "0x2f925d6512b2bbb00f5a36d8b18e01fcf35f7dc7",
          "topics": [
            "0xbfb8b3e2f6221ae729e9cacb0d35f5d9be686ba10cb1d4e34b646bbb87f7a269",
            "0x0000000000000000000000005d0725add79fed3f0e61851b3c4704148ef9c7ea"
          ],
          "data": "0x0000000000000000000000000000000000000000000000000000000000000001",
          "blockHash": "0xfe9be3c76075221a0fa7a7b40d84e14cccb25e79be94cd8ebc4f189893154a28",
          "blockNumber": "0x10faa47",
          "transactionHash": "0x9768f76369a524a5fcd1ddbf950bca070da4996ce28f4e1ddeca437cfd7b430f",
          "transactionIndex": "0x1",
          "logIndex": "0x0",
          "removed": false
        }
      ],
      "logsBloom": "0x00000000000000000000000000000000000000000000000000000000000000000000000000000000000000000000000000000020000000000000000000000000000040000000000000000000000000000000000000000000000000000000000000000000000000000000000000000000000000000000000000000002000000000000000400000000000000000000000000000000000000000000000000000000000000000000000000000000000000000000000000000000000000000000004000000000000000000000000000004000000000000000000000000000000008000000000000000000000000000000000000000008000001000000000000000000",
      "type": "0x2",
      "transactionHash": "0x9768f76369a524a5fcd1ddbf950bca070da4996ce28f4e1ddeca437cfd7b430f",
      "transactionIndex": "0x1",
      "blockHash": "0xfe9be3c76075221a0fa7a7b40d84e14cccb25e79be94cd8ebc4f189893154a28",
      "blockNumber": "0x10faa47",
      "gasUsed": "0xd7ce",
      "effectiveGasPrice": "0xfd",
      "from": "0xc3ca11bd8e131471904dced927b3fb7edb453179",
      "to": "0x2f925d6512b2bbb00f5a36d8b18e01fcf35f7dc7",
      "contractAddress": null,
      "l1BaseFeeScalar": "0x2608",
      "l1BlobBaseFee": "0x1",
      "l1BlobBaseFeeScalar": "0x177fef",
      "l1Fee": "0x193",
      "l1GasPrice": "0x10",
      "l1GasUsed": "0x640"
    },
    {
      "status": "0x1",
      "cumulativeGasUsed": "0x18c9b",
      "logs": [
        {
          "address": "0x9c9e9fad264089339aad66ff3e32d2ba1ddf6951",
          "topics": [
            "0xbfb8b3e2f6221ae729e9cacb0d35f5d9be686ba10cb1d4e34b646bbb87f7a269",
            "0x0000000000000000000000005d0725add79fed3f0e61851b3c4704148ef9c7ea"
          ],
          "data": "0x0000000000000000000000000000000000000000000000000000000000000001",
          "blockHash": "0xad421ee6285d35b1cdd4c623c72c2f78cdefdebf919ebc01fac8c0946c0bfbe0",
          "blockNumber": "0x10faa4a",
          "transactionHash": "0x0b56274214618db355ee5696a55b81045af6a75fe46d920505738dacc81c68b4",
          "transactionIndex": "0x1",
          "logIndex": "0x0",
          "removed": false
        }
      ],
      "logsBloom": "0x0000000000000000000000000000000000000000000000000000000000000000000000000000000000000000000000000000002000000000000000000000000000004000000000000000000000000000000000000000000000000000000000000000000000000000000000000000000000000000000000000000000200000000000000000000000000000000000000000000000000000000000000000000000000000000000000000000000000000000000000000000000000000000000000000000000000000000000000080000000000000000000000000000000000000a000000400000000000000000000000000000000008000001000000000000000000",
      "type": "0x2",
      "transactionHash": "0x0b56274214618db355ee5696a55b81045af6a75fe46d920505738dacc81c68b4",
      "transactionIndex": "0x1",
      "blockHash": "0xad421ee6285d35b1cdd4c623c72c2f78cdefdebf919ebc01fac8c0946c0bfbe0",
      "blockNumber": "0x10faa4a",
      "gasUsed": "0xd87f",
      "effectiveGasPrice": "0xfd",
      "from": "0xc3ca11bd8e131471904dced927b3fb7edb453179",
      "to": "0x9c9e9fad264089339aad66ff3e32d2ba1ddf6951",
      "contractAddress": null,
      "l1BaseFeeScalar": "0x2608",
      "l1BlobBaseFee": "0x1",
      "l1BlobBaseFeeScalar": "0x177fef",
      "l1Fee": "0x183",
      "l1GasPrice": "0xf",
      "l1GasUsed": "0x640"
    },
    {
      "status": "0x1",
      "cumulativeGasUsed": "0x18c42",
      "logs": [
        {
          "address": "0xe912f7c7a59470a6e3f178388106e3caa9e6fbd1",
          "topics": [
            "0xbfb8b3e2f6221ae729e9cacb0d35f5d9be686ba10cb1d4e34b646bbb87f7a269",
            "0x0000000000000000000000005d0725add79fed3f0e61851b3c4704148ef9c7ea"
          ],
          "data": "0x0000000000000000000000000000000000000000000000000000000000000001",
          "blockHash": "0x26ea50325f269721351e732c323b5726a193b6e452d0c17fb443b57c4549b306",
          "blockNumber": "0x10faa4d",
          "transactionHash": "0xa4b1c1be1dab08c2bf28eaa9dcfa977a3b481a1629552bc25dfedf52314acdde",
          "transactionIndex": "0x1",
          "logIndex": "0x0",
          "removed": false
        }
      ],
      "logsBloom": "0x00000000000000000000000000000000000000000000000000000000000004000000000000000000000000000000000000000020000000000000000000000000000040020000000000010000000000000000000000000000000000000000000000000000000000000000000000000000000000000000000000000002000000000000000000000000000000000000000000000000000000000000000000000000000000000000000000000000000000000000000000000000000000000000000000000000000000000000000000000000000000000000000000000000000008000000000000000000000000000000000000000008000001000000000000000000",
      "type": "0x2",
      "transactionHash": "0xa4b1c1be1dab08c2bf28eaa9dcfa977a3b481a1629552bc25dfedf52314acdde",
      "transactionIndex": "0x1",
      "blockHash": "0x26ea50325f269721351e732c323b5726a193b6e452d0c17fb443b57c4549b306",
      "blockNumber": "0x10faa4d",
      "gasUsed": "0xd826",
      "effectiveGasPrice": "0xfd",
      "from": "0xc3ca11bd8e131471904dced927b3fb7edb453179",
      "to": "0xe912f7c7a59470a6e3f178388106e3caa9e6fbd1",
      "contractAddress": null,
      "l1BaseFeeScalar": "0x2608",
      "l1BlobBaseFee": "0x1",
      "l1BlobBaseFeeScalar": "0x177fef",
      "l1Fee": "0x183",
      "l1GasPrice": "0xf",
      "l1GasUsed": "0x640"
    },
    {
      "status": "0x1",
      "cumulativeGasUsed": "0x18b51",
      "logs": [
        {
          "address": "0x92228b058f25bc4fb333fa296dddecbddf6496f3",
          "topics": [
            "0xbfb8b3e2f6221ae729e9cacb0d35f5d9be686ba10cb1d4e34b646bbb87f7a269",
            "0x0000000000000000000000005d0725add79fed3f0e61851b3c4704148ef9c7ea"
          ],
          "data": "0x0000000000000000000000000000000000000000000000000000000000000001",
          "blockHash": "0x17e76059bf362e107f8381383e291424d5e7530e19424bbdf2d667501ea270a3",
          "blockNumber": "0x10faa51",
          "transactionHash": "0xf0094ebf08f598f84faf95e504501f8fd0bcdc046c174fa3e34568a83da4dd9d",
          "transactionIndex": "0x1",
          "logIndex": "0x0",
          "removed": false
        }
      ],
      "logsBloom": "0x00000000000000000000000000000000000000000000000000000000000000000000000000000000000000000000000000000020000000000000000000000000000040000000000000000000000000000000000000000000000000000000000000000000000000000000000000000000000000000000000000000002000000000000000000000000000000000000000000000000000000008010000000000000000000000000000000000000000000000000000000000000000000000000000000000000002000000000000000000000000000000000000000000000000008000000000000000000000000000000000000000008000001000000000000000000",
      "type": "0x2",
      "transactionHash": "0xf0094ebf08f598f84faf95e504501f8fd0bcdc046c174fa3e34568a83da4dd9d",
      "transactionIndex": "0x1",
      "blockHash": "0x17e76059bf362e107f8381383e291424d5e7530e19424bbdf2d667501ea270a3",
      "blockNumber": "0x10faa51",
      "gasUsed": "0xd735",
      "effectiveGasPrice": "0xfd",
      "from": "0xc3ca11bd8e131471904dced927b3fb7edb453179",
      "to": "0x92228b058f25bc4fb333fa296dddecbddf6496f3",
      "contractAddress": null,
      "l1BaseFeeScalar": "0x2608",
      "l1BlobBaseFee": "0x1",
      "l1BlobBaseFeeScalar": "0x177fef",
      "l1Fee": "0x183",
      "l1GasPrice": "0xf",
      "l1GasUsed": "0x640"
    },
    {
      "status": "0x1",
      "cumulativeGasUsed": "0x18beb",
      "logs": [
        {
          "address": "0x2af842c6517cf30fb3456aef485230e0dd085845",
          "topics": [
            "0xbfb8b3e2f6221ae729e9cacb0d35f5d9be686ba10cb1d4e34b646bbb87f7a269",
            "0x0000000000000000000000005d0725add79fed3f0e61851b3c4704148ef9c7ea"
          ],
          "data": "0x0000000000000000000000000000000000000000000000000000000000000001",
          "blockHash": "0x2fe34d6b3936bca04562793586b0a9e545faf337a78f5cf68237ab3cbc500719",
          "blockNumber": "0x10faa53",
          "transactionHash": "0x6d006188f211f4a2a282d4806f206bce34c21f4dfdd88f63a2d10162ab3385cd",
          "transactionIndex": "0x1",
          "logIndex": "0x0",
          "removed": false
        }
      ],
      "logsBloom": "0x00000000000000000000000000000000000000000000000000000000000000000000000000000000000000000000000000000020000000000000000000000000000040000000800000000000000000000000000000000000000000000000000000000000000000000000000000000000000000000000000000000002000000000000000000000000000000000000000000000000000000000000000000000000000000004000000000000000000000000000000000000000000000000000000000000000000000000000000000000000000000000000000000000200000008000000000000000000000000000000000000000008000001000000000000000000",
      "type": "0x2",
      "transactionHash": "0x6d006188f211f4a2a282d4806f206bce34c21f4dfdd88f63a2d10162ab3385cd",
      "transactionIndex": "0x1",
      "blockHash": "0x2fe34d6b3936bca04562793586b0a9e545faf337a78f5cf68237ab3cbc500719",
      "blockNumber": "0x10faa53",
      "gasUsed": "0xd7cf",
      "effectiveGasPrice": "0xfd",
      "from": "0xc3ca11bd8e131471904dced927b3fb7edb453179",
      "to": "0x2af842c6517cf30fb3456aef485230e0dd085845",
      "contractAddress": null,
      "l1BaseFeeScalar": "0x2608",
      "l1BlobBaseFee": "0x1",
      "l1BlobBaseFeeScalar": "0x177fef",
      "l1Fee": "0x183",
      "l1GasPrice": "0xf",
      "l1GasUsed": "0x640"
    },
    {
      "status": "0x1",
      "cumulativeGasUsed": "0x18b5b",
      "logs": [
        {
          "address": "0x2026027054f5bebceb650abd62dc623e327658e7",
          "topics": [
            "0xbfb8b3e2f6221ae729e9cacb0d35f5d9be686ba10cb1d4e34b646bbb87f7a269",
            "0x0000000000000000000000005d0725add79fed3f0e61851b3c4704148ef9c7ea"
          ],
          "data": "0x0000000000000000000000000000000000000000000000000000000000000001",
          "blockHash": "0xf394e1d149be4acb9ad67b4c9c4f015ae4c48224e423cf07906836fc11c724ba",
          "blockNumber": "0x10faa56",
          "transactionHash": "0x4b905955038836348d07081c84e4a4d8a4db10bd0ad38660584e628a1917103d",
          "transactionIndex": "0x1",
          "logIndex": "0x0",
          "removed": false
        }
      ],
      "logsBloom": "0x00000000000000000000000000000000000000000000000000000000000000000000000000800000000000000000000000000020000000000000000000000200000040000000000000000000000000000000000000000000000000000000000000000000000000000000000000000000000000000000000000000002000000000020000000000000000000000000000000000000000000000000000000000000000000000000000000000000000000000000000000000000000000000000000000000000000000000000000000000000000000000000000000000000000008000000000000000000000000000000000000000008000001000000000000000000",
      "type": "0x2",
      "transactionHash": "0x4b905955038836348d07081c84e4a4d8a4db10bd0ad38660584e628a1917103d",
      "transactionIndex": "0x1",
      "blockHash": "0xf394e1d149be4acb9ad67b4c9c4f015ae4c48224e423cf07906836fc11c724ba",
      "blockNumber": "0x10faa56",
      "gasUsed": "0xd73f",
      "effectiveGasPrice": "0xfd",
      "from": "0xc3ca11bd8e131471904dced927b3fb7edb453179",
      "to": "0x2026027054f5bebceb650abd62dc623e327658e7",
      "contractAddress": null,
      "l1BaseFeeScalar": "0x2608",
      "l1BlobBaseFee": "0x1",
      "l1BlobBaseFeeScalar": "0x177fef",
      "l1Fee": "0x193",
      "l1GasPrice": "0x10",
      "l1GasUsed": "0x640"
    }
  ],
  "libraries": [],
  "pending": [],
  "returns": {},
  "timestamp": 1758802063047,
  "chain": 1946,
  "commit": "9b3cda6"
}