{
  "transactions": [
    {
      "hash": "0xed7e2ca67bcf902320821e16f789ce533f160eca8c3eaa392a0ca98249884b88",
      "transactionType": "CALL",
      "contractName": null,
      "contractAddress": "0x2f925d6512b2bbb00f5a36d8b18e01fcf35f7dc7",
      "function": "getFeeTokenList()",
      "arguments": [],
      "transaction": {
        "from": "0xc3ca11bd8e131471904dced927b3fb7edb453179",
        "to": "0x2f925d6512b2bbb00f5a36d8b18e01fcf35f7dc7",
        "gas": "0x9d1e",
        "value": "0x0",
        "input": "0xe28ab277",
        "nonce": "0x19",
        "chainId": "0x61"
      },
      "additionalContracts": [],
      "isFixedGasLimit": false
    },
    {
      "hash": "0x86d5f375fd418a128b62e97a1dcb5fcc94ea69e08cb2dbad3979b1da48ec721b",
      "transactionType": "CALL",
      "contractName": null,
      "contractAddress": "0x2f925d6512b2bbb00f5a36d8b18e01fcf35f7dc7",
      "function": "addFeeToken(string)",
      "arguments": [
        "0xDd43fc986a13392dDbC7aeA150b41EfE27b2d0eD"
      ],
      "transaction": {
        "from": "0xc3ca11bd8e131471904dced927b3fb7edb453179",
        "to": "0x2f925d6512b2bbb00f5a36d8b18e01fcf35f7dc7",
        "gas": "0x29dcf",
        "value": "0x0",
        "input": "0x12a6385f0000000000000000000000000000000000000000000000000000000000000020000000000000000000000000000000000000000000000000000000000000002a30784464343366633938366131333339326444624337616541313530623431456645323762326430654400000000000000000000000000000000000000000000",
        "nonce": "0x1a",
        "chainId": "0x61"
      },
      "additionalContracts": [],
      "isFixedGasLimit": false
    },
    {
      "hash": "0x2c0ccc6ed383e33848a810a808498dca69c0cf7a602b620b75d72fd9b1f3a149",
      "transactionType": "CALL",
      "contractName": null,
      "contractAddress": "0x2f925d6512b2bbb00f5a36d8b18e01fcf35f7dc7",
      "function": "addFeeToken(string,string[],uint256[])",
      "arguments": [
        "11155111",
        "[0xDd43fc986a13392dDbC7aeA150b41EfE27b2d0eD]",
        "[100]"
      ],
      "transaction": {
        "from": "0xc3ca11bd8e131471904dced927b3fb7edb453179",
        "to": "0x2f925d6512b2bbb00f5a36d8b18e01fcf35f7dc7",
        "gas": "0x23a63",
        "value": "0x0",
        "input": "0x437bf84f000000000000000000000000000000000000000000000000000000000000006000000000000000000000000000000000000000000000000000000000000000a000000000000000000000000000000000000000000000000000000000000001400000000000000000000000000000000000000000000000000000000000000008313131353531313100000000000000000000000000000000000000000000000000000000000000000000000000000000000000000000000000000000000000010000000000000000000000000000000000000000000000000000000000000020000000000000000000000000000000000000000000000000000000000000002a3078446434336663393836613133333932644462433761654131353062343145664532376232643065440000000000000000000000000000000000000000000000000000000000000000000000000000000000000000000000000000000000010000000000000000000000000000000000000000000000000000000000000064",
        "nonce": "0x1b",
        "chainId": "0x61"
      },
      "additionalContracts": [],
      "isFixedGasLimit": false
    },
    {
      "hash": "0x25d50aad222baccb3f85821fd9af76336dc973e9c9608364d2eb1e1a5daf2949",
      "transactionType": "CALL",
      "contractName": null,
      "contractAddress": "0x2f925d6512b2bbb00f5a36d8b18e01fcf35f7dc7",
      "function": "addFeeToken(string,string[],uint256[])",
      "arguments": [
        "17000",
        "[0xDd43fc986a13392dDbC7aeA150b41EfE27b2d0eD]",
        "[100]"
      ],
      "transaction": {
        "from": "0xc3ca11bd8e131471904dced927b3fb7edb453179",
        "to": "0x2f925d6512b2bbb00f5a36d8b18e01fcf35f7dc7",
        "gas": "0x2344d",
        "value": "0x0",
        "input": "0x437bf84f000000000000000000000000000000000000000000000000000000000000006000000000000000000000000000000000000000000000000000000000000000a000000000000000000000000000000000000000000000000000000000000001400000000000000000000000000000000000000000000000000000000000000005313730303000000000000000000000000000000000000000000000000000000000000000000000000000000000000000000000000000000000000000000000010000000000000000000000000000000000000000000000000000000000000020000000000000000000000000000000000000000000000000000000000000002a3078446434336663393836613133333932644462433761654131353062343145664532376232643065440000000000000000000000000000000000000000000000000000000000000000000000000000000000000000000000000000000000010000000000000000000000000000000000000000000000000000000000000064",
        "nonce": "0x1c",
        "chainId": "0x61"
      },
      "additionalContracts": [],
      "isFixedGasLimit": false
    },
    {
      "hash": "0x70737396f201af5bddf368e3341940263c07e1a0089957f87c16331be8d1a146",
      "transactionType": "CALL",
      "contractName": null,
      "contractAddress": "0x2f925d6512b2bbb00f5a36d8b18e01fcf35f7dc7",
      "function": "addFeeToken(string,string[],uint256[])",
      "arguments": [
        "1946",
        "[0xDd43fc986a13392dDbC7aeA150b41EfE27b2d0eD]",
        "[100]"
      ],
      "transaction": {
        "from": "0xc3ca11bd8e131471904dced927b3fb7edb453179",
        "to": "0x2f925d6512b2bbb00f5a36d8b18e01fcf35f7dc7",
        "gas": "0x23246",
        "value": "0x0",
        "input": "0x437bf84f000000000000000000000000000000000000000000000000000000000000006000000000000000000000000000000000000000000000000000000000000000a000000000000000000000000000000000000000000000000000000000000001400000000000000000000000000000000000000000000000000000000000000004313934360000000000000000000000000000000000000000000000000000000000000000000000000000000000000000000000000000000000000000000000010000000000000000000000000000000000000000000000000000000000000020000000000000000000000000000000000000000000000000000000000000002a3078446434336663393836613133333932644462433761654131353062343145664532376232643065440000000000000000000000000000000000000000000000000000000000000000000000000000000000000000000000000000000000010000000000000000000000000000000000000000000000000000000000000064",
        "nonce": "0x1d",
        "chainId": "0x61"
      },
      "additionalContracts": [],
      "isFixedGasLimit": false
    },
    {
      "hash": "0xe7eecc6639c2a73f80e45cf89917eb13de88d433669179220a5d3abbcb0faceb",
      "transactionType": "CALL",
      "contractName": null,
      "contractAddress": "0x2f925d6512b2bbb00f5a36d8b18e01fcf35f7dc7",
      "function": "addFeeToken(string,string[],uint256[])",
      "arguments": [
        "421614",
        "[0xDd43fc986a13392dDbC7aeA150b41EfE27b2d0eD]",
        "[100]"
      ],
      "transaction": {
        "from": "0xc3ca11bd8e131471904dced927b3fb7edb453179",
        "to": "0x2f925d6512b2bbb00f5a36d8b18e01fcf35f7dc7",
        "gas": "0x23655",
        "value": "0x0",
        "input": "0x437bf84f000000000000000000000000000000000000000000000000000000000000006000000000000000000000000000000000000000000000000000000000000000a000000000000000000000000000000000000000000000000000000000000001400000000000000000000000000000000000000000000000000000000000000006343231363134000000000000000000000000000000000000000000000000000000000000000000000000000000000000000000000000000000000000000000010000000000000000000000000000000000000000000000000000000000000020000000000000000000000000000000000000000000000000000000000000002a3078446434336663393836613133333932644462433761654131353062343145664532376232643065440000000000000000000000000000000000000000000000000000000000000000000000000000000000000000000000000000000000010000000000000000000000000000000000000000000000000000000000000064",
        "nonce": "0x1e",
        "chainId": "0x61"
      },
      "additionalContracts": [],
      "isFixedGasLimit": false
    },
    {
      "hash": "0xf9ff366414737b77a96342a034aff20a99403378e5376f00aae798f29a75838e",
      "transactionType": "CALL",
      "contractName": null,
      "contractAddress": "0x2f925d6512b2bbb00f5a36d8b18e01fcf35f7dc7",
      "function": "addFeeToken(string,string[],uint256[])",
      "arguments": [
        "43113",
        "[0xDd43fc986a13392dDbC7aeA150b41EfE27b2d0eD]",
        "[100]"
      ],
      "transaction": {
        "from": "0xc3ca11bd8e131471904dced927b3fb7edb453179",
        "to": "0x2f925d6512b2bbb00f5a36d8b18e01fcf35f7dc7",
        "gas": "0x2344d",
        "value": "0x0",
        "input": "0x437bf84f000000000000000000000000000000000000000000000000000000000000006000000000000000000000000000000000000000000000000000000000000000a000000000000000000000000000000000000000000000000000000000000001400000000000000000000000000000000000000000000000000000000000000005343331313300000000000000000000000000000000000000000000000000000000000000000000000000000000000000000000000000000000000000000000010000000000000000000000000000000000000000000000000000000000000020000000000000000000000000000000000000000000000000000000000000002a3078446434336663393836613133333932644462433761654131353062343145664532376232643065440000000000000000000000000000000000000000000000000000000000000000000000000000000000000000000000000000000000010000000000000000000000000000000000000000000000000000000000000064",
        "nonce": "0x1f",
        "chainId": "0x61"
      },
      "additionalContracts": [],
      "isFixedGasLimit": false
    },
    {
      "hash": "0x40f9103887402735722af5699308dd1a0092cd75a91ff1df43eae41588ab13b5",
      "transactionType": "CALL",
      "contractName": null,
      "contractAddress": "0x2f925d6512b2bbb00f5a36d8b18e01fcf35f7dc7",
      "function": "addFeeToken(string,string[],uint256[])",
      "arguments": [
        "534351",
        "[0xDd43fc986a13392dDbC7aeA150b41EfE27b2d0eD]",
        "[100]"
      ],
      "transaction": {
        "from": "0xc3ca11bd8e131471904dced927b3fb7edb453179",
        "to": "0x2f925d6512b2bbb00f5a36d8b18e01fcf35f7dc7",
        "gas": "0x23655",
        "value": "0x0",
        "input": "0x437bf84f000000000000000000000000000000000000000000000000000000000000006000000000000000000000000000000000000000000000000000000000000000a000000000000000000000000000000000000000000000000000000000000001400000000000000000000000000000000000000000000000000000000000000006353334333531000000000000000000000000000000000000000000000000000000000000000000000000000000000000000000000000000000000000000000010000000000000000000000000000000000000000000000000000000000000020000000000000000000000000000000000000000000000000000000000000002a3078446434336663393836613133333932644462433761654131353062343145664532376232643065440000000000000000000000000000000000000000000000000000000000000000000000000000000000000000000000000000000000010000000000000000000000000000000000000000000000000000000000000064",
        "nonce": "0x20",
        "chainId": "0x61"
      },
      "additionalContracts": [],
      "isFixedGasLimit": false
    },
    {
      "hash": "0xe29d3d9141d2af9b234e4be221b8222442331efa52dd216eb7b2d89c90770f03",
      "transactionType": "CALL",
      "contractName": null,
      "contractAddress": "0x2f925d6512b2bbb00f5a36d8b18e01fcf35f7dc7",
      "function": "addFeeToken(string,string[],uint256[])",
      "arguments": [
        "5611",
        "[0xDd43fc986a13392dDbC7aeA150b41EfE27b2d0eD]",
        "[100]"
      ],
      "transaction": {
        "from": "0xc3ca11bd8e131471904dced927b3fb7edb453179",
        "to": "0x2f925d6512b2bbb00f5a36d8b18e01fcf35f7dc7",
        "gas": "0x23246",
        "value": "0x0",
        "input": "0x437bf84f000000000000000000000000000000000000000000000000000000000000006000000000000000000000000000000000000000000000000000000000000000a000000000000000000000000000000000000000000000000000000000000001400000000000000000000000000000000000000000000000000000000000000004353631310000000000000000000000000000000000000000000000000000000000000000000000000000000000000000000000000000000000000000000000010000000000000000000000000000000000000000000000000000000000000020000000000000000000000000000000000000000000000000000000000000002a3078446434336663393836613133333932644462433761654131353062343145664532376232643065440000000000000000000000000000000000000000000000000000000000000000000000000000000000000000000000000000000000010000000000000000000000000000000000000000000000000000000000000064",
        "nonce": "0x21",
        "chainId": "0x61"
      },
      "additionalContracts": [],
      "isFixedGasLimit": false
    },
    {
      "hash": "0x326fd9ff1b6b3b38021e8e5ec2d5f84b861ae855eff3d2d6030a573b6b3ce28e",
      "transactionType": "CALL",
      "contractName": null,
      "contractAddress": "0x2f925d6512b2bbb00f5a36d8b18e01fcf35f7dc7",
      "function": "addFeeToken(string,string[],uint256[])",
      "arguments": [
        "84532",
        "[0xDd43fc986a13392dDbC7aeA150b41EfE27b2d0eD]",
        "[100]"
      ],
      "transaction": {
        "from": "0xc3ca11bd8e131471904dced927b3fb7edb453179",
        "to": "0x2f925d6512b2bbb00f5a36d8b18e01fcf35f7dc7",
        "gas": "0x2344d",
        "value": "0x0",
        "input": "0x437bf84f000000000000000000000000000000000000000000000000000000000000006000000000000000000000000000000000000000000000000000000000000000a000000000000000000000000000000000000000000000000000000000000001400000000000000000000000000000000000000000000000000000000000000005383435333200000000000000000000000000000000000000000000000000000000000000000000000000000000000000000000000000000000000000000000010000000000000000000000000000000000000000000000000000000000000020000000000000000000000000000000000000000000000000000000000000002a3078446434336663393836613133333932644462433761654131353062343145664532376232643065440000000000000000000000000000000000000000000000000000000000000000000000000000000000000000000000000000000000010000000000000000000000000000000000000000000000000000000000000064",
        "nonce": "0x22",
        "chainId": "0x61"
      },
      "additionalContracts": [],
      "isFixedGasLimit": false
    },
    {
      "hash": "0x00b679db48c961d3347e3c68f2611e50306c3c168985a7f0b7f1080a2ed4cf32",
      "transactionType": "CALL",
      "contractName": null,
      "contractAddress": "0x2f925d6512b2bbb00f5a36d8b18e01fcf35f7dc7",
      "function": "setFeeMultiplier(uint8,uint256)",
      "arguments": [
        "0",
        "2"
      ],
      "transaction": {
        "from": "0xc3ca11bd8e131471904dced927b3fb7edb453179",
        "to": "0x2f925d6512b2bbb00f5a36d8b18e01fcf35f7dc7",
        "gas": "0x13e30",
        "value": "0x0",
        "input": "0x0ee24eb500000000000000000000000000000000000000000000000000000000000000000000000000000000000000000000000000000000000000000000000000000002",
        "nonce": "0x23",
        "chainId": "0x61"
      },
      "additionalContracts": [],
      "isFixedGasLimit": false
    },
    {
      "hash": "0xd3124e70815e780ed049a96e52eaafbc5608e97c7e5df6d0584e7858820714dd",
      "transactionType": "CALL",
      "contractName": null,
      "contractAddress": "0x2f925d6512b2bbb00f5a36d8b18e01fcf35f7dc7",
      "function": "setFeeMultiplier(uint8,uint256)",
      "arguments": [
        "1",
        "10"
      ],
      "transaction": {
        "from": "0xc3ca11bd8e131471904dced927b3fb7edb453179",
        "to": "0x2f925d6512b2bbb00f5a36d8b18e01fcf35f7dc7",
        "gas": "0x150fa",
        "value": "0x0",
        "input": "0x0ee24eb50000000000000000000000000000000000000000000000000000000000000001000000000000000000000000000000000000000000000000000000000000000a",
        "nonce": "0x24",
        "chainId": "0x61"
      },
      "additionalContracts": [],
      "isFixedGasLimit": false
    },
    {
      "hash": "0x1c3f03bc342c2c01f49cbfa0b51cfa7b2c2a12149eaac38f7f7cf890c7ccdc81",
      "transactionType": "CALL",
      "contractName": null,
      "contractAddress": "0x2f925d6512b2bbb00f5a36d8b18e01fcf35f7dc7",
      "function": "setFeeMultiplier(uint8,uint256)",
      "arguments": [
        "2",
        "1"
      ],
      "transaction": {
        "from": "0xc3ca11bd8e131471904dced927b3fb7edb453179",
        "to": "0x2f925d6512b2bbb00f5a36d8b18e01fcf35f7dc7",
        "gas": "0x150fa",
        "value": "0x0",
        "input": "0x0ee24eb500000000000000000000000000000000000000000000000000000000000000020000000000000000000000000000000000000000000000000000000000000001",
        "nonce": "0x25",
        "chainId": "0x61"
      },
      "additionalContracts": [],
      "isFixedGasLimit": false
    },
    {
      "hash": "0xab6c9d5af39f920bcae15165138b6875f3dbc033488b39e0f25f2789f2de86ff",
      "transactionType": "CALL",
      "contractName": null,
      "contractAddress": "0x2f925d6512b2bbb00f5a36d8b18e01fcf35f7dc7",
      "function": "setFeeMultiplier(uint8,uint256)",
      "arguments": [
        "3",
        "4"
      ],
      "transaction": {
        "from": "0xc3ca11bd8e131471904dced927b3fb7edb453179",
        "to": "0x2f925d6512b2bbb00f5a36d8b18e01fcf35f7dc7",
        "gas": "0x150fa",
        "value": "0x0",
        "input": "0x0ee24eb500000000000000000000000000000000000000000000000000000000000000030000000000000000000000000000000000000000000000000000000000000004",
        "nonce": "0x26",
        "chainId": "0x61"
      },
      "additionalContracts": [],
      "isFixedGasLimit": false
    },
    {
      "hash": "0xd37e9d7c1fcce71978d7ce445d50be615f8c104e63b0d9992e997f8c9d68e071",
      "transactionType": "CALL",
      "contractName": null,
      "contractAddress": "0x2f925d6512b2bbb00f5a36d8b18e01fcf35f7dc7",
      "function": "setFeeMultiplier(uint8,uint256)",
      "arguments": [
        "4",
        "4"
      ],
      "transaction": {
        "from": "0xc3ca11bd8e131471904dced927b3fb7edb453179",
        "to": "0x2f925d6512b2bbb00f5a36d8b18e01fcf35f7dc7",
        "gas": "0x150fa",
        "value": "0x0",
        "input": "0x0ee24eb500000000000000000000000000000000000000000000000000000000000000040000000000000000000000000000000000000000000000000000000000000004",
        "nonce": "0x27",
        "chainId": "0x61"
      },
      "additionalContracts": [],
      "isFixedGasLimit": false
    },
    {
      "hash": "0x3dbad20ab85b511e7a6a9285851f1215e1f02ca2e1a28f912255fc9ba54fa99e",
      "transactionType": "CALL",
      "contractName": null,
      "contractAddress": "0x2f925d6512b2bbb00f5a36d8b18e01fcf35f7dc7",
      "function": "setFeeMultiplier(uint8,uint256)",
      "arguments": [
        "5",
        "4"
      ],
      "transaction": {
        "from": "0xc3ca11bd8e131471904dced927b3fb7edb453179",
        "to": "0x2f925d6512b2bbb00f5a36d8b18e01fcf35f7dc7",
        "gas": "0x150fa",
        "value": "0x0",
        "input": "0x0ee24eb500000000000000000000000000000000000000000000000000000000000000050000000000000000000000000000000000000000000000000000000000000004",
        "nonce": "0x28",
        "chainId": "0x61"
      },
      "additionalContracts": [],
      "isFixedGasLimit": false
    },
    {
      "hash": "0xc7541b44ff4ee272091c4591cea610f644cc2f7fd9d4b8fad825206143d9da6b",
      "transactionType": "CALL",
      "contractName": null,
      "contractAddress": "0x2f925d6512b2bbb00f5a36d8b18e01fcf35f7dc7",
      "function": "setFeeMultiplier(uint8,uint256)",
      "arguments": [
        "6",
        "8"
      ],
      "transaction": {
        "from": "0xc3ca11bd8e131471904dced927b3fb7edb453179",
        "to": "0x2f925d6512b2bbb00f5a36d8b18e01fcf35f7dc7",
        "gas": "0x150fa",
        "value": "0x0",
        "input": "0x0ee24eb500000000000000000000000000000000000000000000000000000000000000060000000000000000000000000000000000000000000000000000000000000008",
        "nonce": "0x29",
        "chainId": "0x61"
      },
      "additionalContracts": [],
      "isFixedGasLimit": false
    },
    {
      "hash": "0xba169b952649fe6a031fb8e2014904aff0370b6ec8650c7e437e54975bad697b",
      "transactionType": "CALL",
      "contractName": null,
      "contractAddress": "0x2f925d6512b2bbb00f5a36d8b18e01fcf35f7dc7",
      "function": "setFeeMultiplier(uint8,uint256)",
      "arguments": [
        "7",
        "4"
      ],
      "transaction": {
        "from": "0xc3ca11bd8e131471904dced927b3fb7edb453179",
        "to": "0x2f925d6512b2bbb00f5a36d8b18e01fcf35f7dc7",
        "gas": "0x150fa",
        "value": "0x0",
        "input": "0x0ee24eb500000000000000000000000000000000000000000000000000000000000000070000000000000000000000000000000000000000000000000000000000000004",
        "nonce": "0x2a",
        "chainId": "0x61"
      },
      "additionalContracts": [],
      "isFixedGasLimit": false
    },
    {
      "hash": "0xaf378c64ff620eb7bd15246ce2ffca5e5ee7089da6f98e8f5f18c3ee77d49730",
      "transactionType": "CALL",
      "contractName": null,
      "contractAddress": "0x2f925d6512b2bbb00f5a36d8b18e01fcf35f7dc7",
      "function": "setFeeMultiplier(uint8,uint256)",
      "arguments": [
        "8",
        "10"
      ],
      "transaction": {
        "from": "0xc3ca11bd8e131471904dced927b3fb7edb453179",
        "to": "0x2f925d6512b2bbb00f5a36d8b18e01fcf35f7dc7",
        "gas": "0x150fa",
        "value": "0x0",
        "input": "0x0ee24eb50000000000000000000000000000000000000000000000000000000000000008000000000000000000000000000000000000000000000000000000000000000a",
        "nonce": "0x2b",
        "chainId": "0x61"
      },
      "additionalContracts": [],
      "isFixedGasLimit": false
    },
    {
      "hash": "0xef11fc73499ecf2379cf474be7dc91dd4de4f16a63d1f3a2f4c4d07c25a502e8",
      "transactionType": "CALL",
      "contractName": null,
      "contractAddress": "0x2f925d6512b2bbb00f5a36d8b18e01fcf35f7dc7",
      "function": "setFeeMultiplier(uint8,uint256)",
      "arguments": [
        "9",
        "8"
      ],
      "transaction": {
        "from": "0xc3ca11bd8e131471904dced927b3fb7edb453179",
        "to": "0x2f925d6512b2bbb00f5a36d8b18e01fcf35f7dc7",
        "gas": "0x150fa",
        "value": "0x0",
        "input": "0x0ee24eb500000000000000000000000000000000000000000000000000000000000000090000000000000000000000000000000000000000000000000000000000000008",
        "nonce": "0x2c",
        "chainId": "0x61"
      },
      "additionalContracts": [],
      "isFixedGasLimit": false
    },
    {
      "hash": "0x4ea62b6d10be43343d2faf0fbf48c0603b26126e56d605f9b1f303ee2900bd00",
      "transactionType": "CALL",
      "contractName": null,
      "contractAddress": "0x2f925d6512b2bbb00f5a36d8b18e01fcf35f7dc7",
      "function": "setFeeMultiplier(uint8,uint256)",
      "arguments": [
        "10",
        "8"
      ],
      "transaction": {
        "from": "0xc3ca11bd8e131471904dced927b3fb7edb453179",
        "to": "0x2f925d6512b2bbb00f5a36d8b18e01fcf35f7dc7",
        "gas": "0x150fa",
        "value": "0x0",
        "input": "0x0ee24eb5000000000000000000000000000000000000000000000000000000000000000a0000000000000000000000000000000000000000000000000000000000000008",
        "nonce": "0x2d",
        "chainId": "0x61"
      },
      "additionalContracts": [],
      "isFixedGasLimit": false
    },
    {
      "hash": "0xba3f539583e7e4f664e15faf371c8a21e09c16444795b38f84b8008be0fe860e",
      "transactionType": "CALL",
      "contractName": null,
      "contractAddress": "0x2f925d6512b2bbb00f5a36d8b18e01fcf35f7dc7",
      "function": "setFeeMultiplier(uint8,uint256)",
      "arguments": [
        "11",
        "8"
      ],
      "transaction": {
        "from": "0xc3ca11bd8e131471904dced927b3fb7edb453179",
        "to": "0x2f925d6512b2bbb00f5a36d8b18e01fcf35f7dc7",
        "gas": "0x150fa",
        "value": "0x0",
        "input": "0x0ee24eb5000000000000000000000000000000000000000000000000000000000000000b0000000000000000000000000000000000000000000000000000000000000008",
        "nonce": "0x2e",
        "chainId": "0x61"
      },
      "additionalContracts": [],
      "isFixedGasLimit": false
    },
    {
      "hash": "0x93f61881aa7b826eac1adbf8991daa26c499d0aefb6809209b7a613fef95c700",
      "transactionType": "CALL",
      "contractName": null,
      "contractAddress": "0x2f925d6512b2bbb00f5a36d8b18e01fcf35f7dc7",
      "function": "setFeeMultiplier(uint8,uint256)",
      "arguments": [
        "12",
        "20"
      ],
      "transaction": {
        "from": "0xc3ca11bd8e131471904dced927b3fb7edb453179",
        "to": "0x2f925d6512b2bbb00f5a36d8b18e01fcf35f7dc7",
        "gas": "0x150fa",
        "value": "0x0",
        "input": "0x0ee24eb5000000000000000000000000000000000000000000000000000000000000000c0000000000000000000000000000000000000000000000000000000000000014",
        "nonce": "0x2f",
        "chainId": "0x61"
      },
      "additionalContracts": [],
      "isFixedGasLimit": false
    },
    {
      "hash": "0x10670d389007ce4b836901ce46c07ffb2eedb50e98339e6be6204260571238bf",
      "transactionType": "CALL",
      "contractName": null,
      "contractAddress": "0x2f925d6512b2bbb00f5a36d8b18e01fcf35f7dc7",
      "function": "setFeeMultiplier(uint8,uint256)",
      "arguments": [
        "13",
        "8"
      ],
      "transaction": {
        "from": "0xc3ca11bd8e131471904dced927b3fb7edb453179",
        "to": "0x2f925d6512b2bbb00f5a36d8b18e01fcf35f7dc7",
        "gas": "0x150fa",
        "value": "0x0",
        "input": "0x0ee24eb5000000000000000000000000000000000000000000000000000000000000000d0000000000000000000000000000000000000000000000000000000000000008",
        "nonce": "0x30",
        "chainId": "0x61"
      },
      "additionalContracts": [],
      "isFixedGasLimit": false
    },
    {
      "hash": "0xddac928a93bbc32f55e25bb18e32d2379608dce7cdaca5c2cc959165f94d861c",
      "transactionType": "CALL",
      "contractName": null,
      "contractAddress": "0x2f925d6512b2bbb00f5a36d8b18e01fcf35f7dc7",
      "function": "setFeeMultiplier(uint8,uint256)",
      "arguments": [
        "14",
        "4"
      ],
      "transaction": {
        "from": "0xc3ca11bd8e131471904dced927b3fb7edb453179",
        "to": "0x2f925d6512b2bbb00f5a36d8b18e01fcf35f7dc7",
        "gas": "0x150fa",
        "value": "0x0",
        "input": "0x0ee24eb5000000000000000000000000000000000000000000000000000000000000000e0000000000000000000000000000000000000000000000000000000000000004",
        "nonce": "0x31",
        "chainId": "0x61"
      },
      "additionalContracts": [],
      "isFixedGasLimit": false
    },
    {
      "hash": "0xeef65db6d288765f42ffb36c33f0af079a8807411e80bdf6b4f62e446435da55",
      "transactionType": "CALL",
      "contractName": null,
      "contractAddress": "0x2f925d6512b2bbb00f5a36d8b18e01fcf35f7dc7",
      "function": "setFeeMultiplier(uint8,uint256)",
      "arguments": [
        "15",
        "4"
      ],
      "transaction": {
        "from": "0xc3ca11bd8e131471904dced927b3fb7edb453179",
        "to": "0x2f925d6512b2bbb00f5a36d8b18e01fcf35f7dc7",
        "gas": "0x150fa",
        "value": "0x0",
        "input": "0x0ee24eb5000000000000000000000000000000000000000000000000000000000000000f0000000000000000000000000000000000000000000000000000000000000004",
        "nonce": "0x32",
        "chainId": "0x61"
      },
      "additionalContracts": [],
      "isFixedGasLimit": false
    },
    {
      "hash": "0x48f2a42eea92ac72791bd08fe24da43fdb2afe717ee2ee9a465aa04d4df8f953",
      "transactionType": "CALL",
      "contractName": null,
      "contractAddress": "0x2f925d6512b2bbb00f5a36d8b18e01fcf35f7dc7",
      "function": "setFeeMultiplier(uint8,uint256)",
      "arguments": [
        "16",
        "4"
      ],
      "transaction": {
        "from": "0xc3ca11bd8e131471904dced927b3fb7edb453179",
        "to": "0x2f925d6512b2bbb00f5a36d8b18e01fcf35f7dc7",
        "gas": "0x150fa",
        "value": "0x0",
        "input": "0x0ee24eb500000000000000000000000000000000000000000000000000000000000000100000000000000000000000000000000000000000000000000000000000000004",
        "nonce": "0x33",
        "chainId": "0x61"
      },
      "additionalContracts": [],
      "isFixedGasLimit": false
    },
    {
      "hash": "0x43225b0da89babdbf8aa54298719e10fdda4d41ca1b9a9e24474b5550420b5d9",
      "transactionType": "CALL",
      "contractName": null,
      "contractAddress": "0x2f925d6512b2bbb00f5a36d8b18e01fcf35f7dc7",
      "function": "setFeeMultiplier(uint8,uint256)",
      "arguments": [
        "17",
        "4"
      ],
      "transaction": {
        "from": "0xc3ca11bd8e131471904dced927b3fb7edb453179",
        "to": "0x2f925d6512b2bbb00f5a36d8b18e01fcf35f7dc7",
        "gas": "0x150fa",
        "value": "0x0",
        "input": "0x0ee24eb500000000000000000000000000000000000000000000000000000000000000110000000000000000000000000000000000000000000000000000000000000004",
        "nonce": "0x34",
        "chainId": "0x61"
      },
      "additionalContracts": [],
      "isFixedGasLimit": false
    },
    {
      "hash": "0x81c1b3f0f0110ce2c1b80c8b3b4bc761a15ea92fce316f94ca1979362845d0f5",
      "transactionType": "CALL",
      "contractName": null,
      "contractAddress": "0x2f925d6512b2bbb00f5a36d8b18e01fcf35f7dc7",
      "function": "setFeeMultiplier(uint8,uint256)",
      "arguments": [
        "18",
        "2"
      ],
      "transaction": {
        "from": "0xc3ca11bd8e131471904dced927b3fb7edb453179",
        "to": "0x2f925d6512b2bbb00f5a36d8b18e01fcf35f7dc7",
        "gas": "0x150fa",
        "value": "0x0",
        "input": "0x0ee24eb500000000000000000000000000000000000000000000000000000000000000120000000000000000000000000000000000000000000000000000000000000002",
        "nonce": "0x35",
        "chainId": "0x61"
      },
      "additionalContracts": [],
      "isFixedGasLimit": false
    },
    {
      "hash": "0x1cc22334871eddd046289f85e879e1e66a64e96118421939862daf97fe1ce3ae",
      "transactionType": "CALL",
      "contractName": null,
      "contractAddress": "0x2f925d6512b2bbb00f5a36d8b18e01fcf35f7dc7",
      "function": "setFeeMultiplier(uint8,uint256)",
      "arguments": [
        "19",
        "20"
      ],
      "transaction": {
        "from": "0xc3ca11bd8e131471904dced927b3fb7edb453179",
        "to": "0x2f925d6512b2bbb00f5a36d8b18e01fcf35f7dc7",
        "gas": "0x150fa",
        "value": "0x0",
        "input": "0x0ee24eb500000000000000000000000000000000000000000000000000000000000000130000000000000000000000000000000000000000000000000000000000000014",
        "nonce": "0x36",
        "chainId": "0x61"
      },
      "additionalContracts": [],
      "isFixedGasLimit": false
    },
    {
      "hash": "0xcab7f0050b325fe7bcaa47a6d3f360ea1c1195991dbc8821175760eeaf2a0549",
      "transactionType": "CALL",
      "contractName": null,
      "contractAddress": "0x2f925d6512b2bbb00f5a36d8b18e01fcf35f7dc7",
      "function": "setFeeMultiplier(uint8,uint256)",
      "arguments": [
        "20",
        "2"
      ],
      "transaction": {
        "from": "0xc3ca11bd8e131471904dced927b3fb7edb453179",
        "to": "0x2f925d6512b2bbb00f5a36d8b18e01fcf35f7dc7",
        "gas": "0x150fa",
        "value": "0x0",
        "input": "0x0ee24eb500000000000000000000000000000000000000000000000000000000000000140000000000000000000000000000000000000000000000000000000000000002",
        "nonce": "0x37",
        "chainId": "0x61"
      },
      "additionalContracts": [],
      "isFixedGasLimit": false
    },
    {
      "hash": "0xe17dfe21492c39a4b7cbf0246672e15ede556b78a26243f12d6ab36116f3b2d3",
      "transactionType": "CALL",
      "contractName": null,
      "contractAddress": "0x2f925d6512b2bbb00f5a36d8b18e01fcf35f7dc7",
      "function": "setFeeMultiplier(uint8,uint256)",
      "arguments": [
        "21",
        "1"
      ],
      "transaction": {
        "from": "0xc3ca11bd8e131471904dced927b3fb7edb453179",
        "to": "0x2f925d6512b2bbb00f5a36d8b18e01fcf35f7dc7",
        "gas": "0x150fa",
        "value": "0x0",
        "input": "0x0ee24eb500000000000000000000000000000000000000000000000000000000000000150000000000000000000000000000000000000000000000000000000000000001",
        "nonce": "0x38",
        "chainId": "0x61"
      },
      "additionalContracts": [],
      "isFixedGasLimit": false
    },
    {
      "hash": "0x5b91a8e528fdd7d0299b2e2af81f80d408728ef7690453dde22dd64f377fb7dd",
      "transactionType": "CALL",
      "contractName": null,
      "contractAddress": "0x2f925d6512b2bbb00f5a36d8b18e01fcf35f7dc7",
      "function": "setFeeMultiplier(uint8,uint256)",
      "arguments": [
        "22",
        "1"
      ],
      "transaction": {
        "from": "0xc3ca11bd8e131471904dced927b3fb7edb453179",
        "to": "0x2f925d6512b2bbb00f5a36d8b18e01fcf35f7dc7",
        "gas": "0x150fa",
        "value": "0x0",
        "input": "0x0ee24eb500000000000000000000000000000000000000000000000000000000000000160000000000000000000000000000000000000000000000000000000000000001",
        "nonce": "0x39",
        "chainId": "0x61"
      },
      "additionalContracts": [],
      "isFixedGasLimit": false
    },
    {
      "hash": "0x2ebe18bd723c0d739ea7c569d0ee9036448063cb494ec3a5519a4c0c232e6982",
      "transactionType": "CALL",
      "contractName": null,
      "contractAddress": "0x2f925d6512b2bbb00f5a36d8b18e01fcf35f7dc7",
      "function": "setFeeMultiplier(uint8,uint256)",
      "arguments": [
        "23",
        "5"
      ],
      "transaction": {
        "from": "0xc3ca11bd8e131471904dced927b3fb7edb453179",
        "to": "0x2f925d6512b2bbb00f5a36d8b18e01fcf35f7dc7",
        "gas": "0x150fa",
        "value": "0x0",
        "input": "0x0ee24eb500000000000000000000000000000000000000000000000000000000000000170000000000000000000000000000000000000000000000000000000000000005",
        "nonce": "0x3a",
        "chainId": "0x61"
      },
      "additionalContracts": [],
      "isFixedGasLimit": false
    },
    {
      "hash": "0x56fba5da2cfa7cbe914e67950424a5ed65a0f6853c8ee34b49bc7f970a9925a3",
      "transactionType": "CALL",
      "contractName": null,
      "contractAddress": "0x2f925d6512b2bbb00f5a36d8b18e01fcf35f7dc7",
      "function": "setFeeMultiplier(uint8,uint256)",
      "arguments": [
        "24",
        "5"
      ],
      "transaction": {
        "from": "0xc3ca11bd8e131471904dced927b3fb7edb453179",
        "to": "0x2f925d6512b2bbb00f5a36d8b18e01fcf35f7dc7",
        "gas": "0x150fa",
        "value": "0x0",
        "input": "0x0ee24eb500000000000000000000000000000000000000000000000000000000000000180000000000000000000000000000000000000000000000000000000000000005",
        "nonce": "0x3b",
        "chainId": "0x61"
      },
      "additionalContracts": [],
      "isFixedGasLimit": false
    },
    {
      "hash": "0xdbe30f6ab22d65666173824b579383be2cb0965354d3e28a978c6055723b8e29",
      "transactionType": "CALL",
      "contractName": null,
      "contractAddress": "0x2f925d6512b2bbb00f5a36d8b18e01fcf35f7dc7",
      "function": "setFeeMultiplier(uint8,uint256)",
      "arguments": [
        "25",
        "5"
      ],
      "transaction": {
        "from": "0xc3ca11bd8e131471904dced927b3fb7edb453179",
        "to": "0x2f925d6512b2bbb00f5a36d8b18e01fcf35f7dc7",
        "gas": "0x150fa",
        "value": "0x0",
        "input": "0x0ee24eb500000000000000000000000000000000000000000000000000000000000000190000000000000000000000000000000000000000000000000000000000000005",
        "nonce": "0x3c",
        "chainId": "0x61"
      },
      "additionalContracts": [],
      "isFixedGasLimit": false
    },
    {
      "hash": "0xf741be86f920219acc828b7ff5451ec5ea94fd22cc07cad8730e992e0effefdb",
      "transactionType": "CALL",
      "contractName": null,
      "contractAddress": "0x2f925d6512b2bbb00f5a36d8b18e01fcf35f7dc7",
      "function": "setFeeMultiplier(uint8,uint256)",
      "arguments": [
        "26",
        "5"
      ],
      "transaction": {
        "from": "0xc3ca11bd8e131471904dced927b3fb7edb453179",
        "to": "0x2f925d6512b2bbb00f5a36d8b18e01fcf35f7dc7",
        "gas": "0x150fa",
        "value": "0x0",
        "input": "0x0ee24eb5000000000000000000000000000000000000000000000000000000000000001a0000000000000000000000000000000000000000000000000000000000000005",
        "nonce": "0x3d",
        "chainId": "0x61"
      },
      "additionalContracts": [],
      "isFixedGasLimit": false
    },
    {
      "hash": "0x048543c32c0369d72fddd5a144850be776cdbd350392aee44a4243100aa13396",
      "transactionType": "CALL",
      "contractName": null,
      "contractAddress": "0x9c9e9fad264089339aad66ff3e32d2ba1ddf6951",
      "function": "setFallback(address)",
      "arguments": [
        "0xa35EF74f047fC846Af8863e4FAc5E750eB5A59cf"
      ],
      "transaction": {
        "from": "0xc3ca11bd8e131471904dced927b3fb7edb453179",
        "to": "0x9c9e9fad264089339aad66ff3e32d2ba1ddf6951",
        "gas": "0x1a3cb",
        "value": "0x0",
        "input": "0x32b12eac000000000000000000000000a35ef74f047fc846af8863e4fac5e750eb5a59cf",
        "nonce": "0x3e",
        "chainId": "0x61"
      },
      "additionalContracts": [],
      "isFixedGasLimit": false
    },
    {
      "hash": "0x2da066228167d2f942508414518ba786f4308196293047439163f6df6b037285",
      "transactionType": "CALL",
      "contractName": null,
      "contractAddress": "0x9c9e9fad264089339aad66ff3e32d2ba1ddf6951",
      "function": "setCtmRwaDeployer(address)",
      "arguments": [
        "0xE912F7c7A59470a6E3f178388106E3caa9e6fbd1"
      ],
      "transaction": {
        "from": "0xc3ca11bd8e131471904dced927b3fb7edb453179",
        "to": "0x9c9e9fad264089339aad66ff3e32d2ba1ddf6951",
        "gas": "0x12314",
        "value": "0x0",
        "input": "0xf1e4f707000000000000000000000000e912f7c7a59470a6e3f178388106e3caa9e6fbd1",
        "nonce": "0x3f",
        "chainId": "0x61"
      },
      "additionalContracts": [],
      "isFixedGasLimit": false
    },
    {
      "hash": "0x9a743b32fdf3ebcc2fd247da2b168e60d05a7aba41661f476faeb1826054cb4d",
      "transactionType": "CALL",
      "contractName": null,
      "contractAddress": "0x9c9e9fad264089339aad66ff3e32d2ba1ddf6951",
      "function": "setCtmRwaMap(address)",
      "arguments": [
        "0x2026027054F5beBCEB650aBD62dC623e327658e7"
      ],
      "transaction": {
        "from": "0xc3ca11bd8e131471904dced927b3fb7edb453179",
        "to": "0x9c9e9fad264089339aad66ff3e32d2ba1ddf6951",
        "gas": "0x21040",
        "value": "0x0",
        "input": "0x08add95f0000000000000000000000002026027054f5bebceb650abd62dc623e327658e7",
        "nonce": "0x40",
        "chainId": "0x61"
      },
      "additionalContracts": [],
      "isFixedGasLimit": false
    },
    {
      "hash": "0xed173867f4664f0337a65f15b09d59ff021bcf03ed6835d0f12bcae3a5866ca5",
      "transactionType": "CALL",
      "contractName": null,
      "contractAddress": "0xe912f7c7a59470a6e3f178388106e3caa9e6fbd1",
      "function": "setDeployInvest(address)",
      "arguments": [
        "0x082D752d0f439aa7F69c2c6BE79fF7056515636D"
      ],
      "transaction": {
        "from": "0xc3ca11bd8e131471904dced927b3fb7edb453179",
        "to": "0xe912f7c7a59470a6e3f178388106e3caa9e6fbd1",
        "gas": "0x13028",
        "value": "0x0",
        "input": "0x51ae9e56000000000000000000000000082d752d0f439aa7f69c2c6be79ff7056515636d",
        "nonce": "0x41",
        "chainId": "0x61"
      },
      "additionalContracts": [],
      "isFixedGasLimit": false
    },
    {
      "hash": "0x7bf506ab53d6b9633e10b6d7b82f6de4c203247ab6d6c0c19a5b35a8e2e6d202",
      "transactionType": "CALL",
      "contractName": null,
      "contractAddress": "0xe912f7c7a59470a6e3f178388106e3caa9e6fbd1",
      "function": "setErc20DeployerAddress(address)",
      "arguments": [
        "0xEbC3c7C5f2EE040db257bf4e3c7d5794818a13F8"
      ],
      "transaction": {
        "from": "0xc3ca11bd8e131471904dced927b3fb7edb453179",
        "to": "0xe912f7c7a59470a6e3f178388106e3caa9e6fbd1",
        "gas": "0x12f06",
        "value": "0x0",
        "input": "0x0eab9e49000000000000000000000000ebc3c7c5f2ee040db257bf4e3c7d5794818a13f8",
        "nonce": "0x42",
        "chainId": "0x61"
      },
      "additionalContracts": [],
      "isFixedGasLimit": false
    },
    {
      "hash": "0x24a13ded1cfe5b0a5cc9c01aa4c8167addc7549c4ff9ac4b1541f4250ed345ad",
      "transactionType": "CALL",
      "contractName": null,
      "contractAddress": "0xe912f7c7a59470a6e3f178388106e3caa9e6fbd1",
      "function": "setTokenFactory(uint256,uint256,address)",
      "arguments": [
        "1",
        "1",
        "0x902e297ef81a3250f9F20D73b7465ac5d4966241"
      ],
      "transaction": {
        "from": "0xc3ca11bd8e131471904dced927b3fb7edb453179",
        "to": "0xe912f7c7a59470a6e3f178388106e3caa9e6fbd1",
        "gas": "0x1253d",
        "value": "0x0",
        "input": "0xf1a31c6d00000000000000000000000000000000000000000000000000000000000000010000000000000000000000000000000000000000000000000000000000000001000000000000000000000000902e297ef81a3250f9f20d73b7465ac5d4966241",
        "nonce": "0x43",
        "chainId": "0x61"
      },
      "additionalContracts": [],
      "isFixedGasLimit": false
    },
    {
      "hash": "0xaa80e56b2e9e790fdc576afce6f578133d7052248d2d27aae12fae1bcfbe07eb",
      "transactionType": "CALL",
      "contractName": null,
      "contractAddress": "0xe912f7c7a59470a6e3f178388106e3caa9e6fbd1",
      "function": "setDividendFactory(uint256,uint256,address)",
      "arguments": [
        "1",
        "1",
        "0xbF5F67A9387a488a9aC054FCD49E39fBF37E79b0"
      ],
      "transaction": {
        "from": "0xc3ca11bd8e131471904dced927b3fb7edb453179",
        "to": "0xe912f7c7a59470a6e3f178388106e3caa9e6fbd1",
        "gas": "0x123a3",
        "value": "0x0",
        "input": "0xae7b00fc00000000000000000000000000000000000000000000000000000000000000010000000000000000000000000000000000000000000000000000000000000001000000000000000000000000bf5f67a9387a488a9ac054fcd49e39fbf37e79b0",
        "nonce": "0x44",
        "chainId": "0x61"
      },
      "additionalContracts": [],
      "isFixedGasLimit": false
    },
    {
      "hash": "0xd4b85700f0a6a81ab155ee5fc95f8fb76e0387e1e7878b2739ab2ad143cbba45",
      "transactionType": "CALL",
      "contractName": null,
      "contractAddress": "0xe912f7c7a59470a6e3f178388106e3caa9e6fbd1",
      "function": "setStorageFactory(uint256,uint256,address)",
      "arguments": [
        "1",
        "1",
        "0x92228B058f25Bc4fb333fA296dDdECBdDf6496f3"
      ],
      "transaction": {
        "from": "0xc3ca11bd8e131471904dced927b3fb7edb453179",
        "to": "0xe912f7c7a59470a6e3f178388106e3caa9e6fbd1",
        "gas": "0x12246",
        "value": "0x0",
        "input": "0x5b2004dc0000000000000000000000000000000000000000000000000000000000000001000000000000000000000000000000000000000000000000000000000000000100000000000000000000000092228b058f25bc4fb333fa296dddecbddf6496f3",
        "nonce": "0x45",
        "chainId": "0x61"
      },
      "additionalContracts": [],
      "isFixedGasLimit": false
    },
    {
      "hash": "0x081fd45a1f4244d0a09f8392bdc3364d56e2b68539280b2a8840e23c33325307",
      "transactionType": "CALL",
      "contractName": null,
      "contractAddress": "0xe912f7c7a59470a6e3f178388106e3caa9e6fbd1",
      "function": "setSentryFactory(uint256,uint256,address)",
      "arguments": [
        "1",
        "1",
        "0x2AF842C6517CF30Fb3456aeF485230e0DD085845"
      ],
      "transaction": {
        "from": "0xc3ca11bd8e131471904dced927b3fb7edb453179",
        "to": "0xe912f7c7a59470a6e3f178388106e3caa9e6fbd1",
        "gas": "0x12339",
        "value": "0x0",
        "input": "0x9aa3f089000000000000000000000000000000000000000000000000000000000000000100000000000000000000000000000000000000000000000000000000000000010000000000000000000000002af842c6517cf30fb3456aef485230e0dd085845",
        "nonce": "0x46",
        "chainId": "0x61"
      },
      "additionalContracts": [],
      "isFixedGasLimit": false
    },
    {
      "hash": "0x2a87562e423fcfa85cf71948fe7aa37a83e510dffc9ce25d9fd2af4cc0c650ec",
      "transactionType": "CALL",
      "contractName": null,
      "contractAddress": "0x92228b058f25bc4fb333fa296dddecbddf6496f3",
      "function": "setStorageUtils(address)",
      "arguments": [
        "0xee6A66C156EADfefA260618627dF5BCbA04fD2B1"
      ],
      "transaction": {
        "from": "0xc3ca11bd8e131471904dced927b3fb7edb453179",
        "to": "0x92228b058f25bc4fb333fa296dddecbddf6496f3",
        "gas": "0x11fb7",
        "value": "0x0",
        "input": "0x9dcbd16c000000000000000000000000ee6a66c156eadfefa260618627df5bcba04fd2b1",
        "nonce": "0x47",
        "chainId": "0x61"
      },
      "additionalContracts": [],
      "isFixedGasLimit": false
    },
    {
      "hash": "0xcd26cf2746b53e7989887671b634c9472b3de075a2864817fcfc20bdd3162ca5",
      "transactionType": "CALL",
      "contractName": null,
      "contractAddress": "0x92228b058f25bc4fb333fa296dddecbddf6496f3",
      "function": "setCtmRwaDeployer(address)",
      "arguments": [
        "0xE912F7c7A59470a6E3f178388106E3caa9e6fbd1"
      ],
      "transaction": {
        "from": "0xc3ca11bd8e131471904dced927b3fb7edb453179",
        "to": "0x92228b058f25bc4fb333fa296dddecbddf6496f3",
        "gas": "0xb5f5",
        "value": "0x0",
        "input": "0xf1e4f707000000000000000000000000e912f7c7a59470a6e3f178388106e3caa9e6fbd1",
        "nonce": "0x48",
        "chainId": "0x61"
      },
      "additionalContracts": [],
      "isFixedGasLimit": false
    },
    {
      "hash": "0xa5d59abe7724314ebcd2b596b406570fde089b2af420bf615269fbc9d9bcfec1",
      "transactionType": "CALL",
      "contractName": null,
      "contractAddress": "0x92228b058f25bc4fb333fa296dddecbddf6496f3",
      "function": "setCtmRwaMap(address)",
      "arguments": [
        "0x2026027054F5beBCEB650aBD62dC623e327658e7"
      ],
      "transaction": {
        "from": "0xc3ca11bd8e131471904dced927b3fb7edb453179",
        "to": "0x92228b058f25bc4fb333fa296dddecbddf6496f3",
        "gas": "0x11e4b",
        "value": "0x0",
        "input": "0x08add95f0000000000000000000000002026027054f5bebceb650abd62dc623e327658e7",
        "nonce": "0x49",
        "chainId": "0x61"
      },
      "additionalContracts": [],
      "isFixedGasLimit": false
    },
    {
      "hash": "0x1e6fd7a1c6e6368bec383de337911e040d397c6a75d0d9158bcb65a70a0e04ed",
      "transactionType": "CALL",
      "contractName": null,
      "contractAddress": "0x2af842c6517cf30fb3456aef485230e0dd085845",
      "function": "setSentryUtils(address)",
      "arguments": [
        "0x1CBc0DE1CD20d6D80ae755275A63DBc9B1131a7C"
      ],
      "transaction": {
        "from": "0xc3ca11bd8e131471904dced927b3fb7edb453179",
        "to": "0x2af842c6517cf30fb3456aef485230e0dd085845",
        "gas": "0x1306f",
        "value": "0x0",
        "input": "0x672f91940000000000000000000000001cbc0de1cd20d6d80ae755275a63dbc9b1131a7c",
        "nonce": "0x4a",
        "chainId": "0x61"
      },
      "additionalContracts": [],
      "isFixedGasLimit": false
    },
    {
      "hash": "0x302f765e26d92777a5904d3365ad36728dfc6d43c5b397ac2d220e73a479a937",
      "transactionType": "CALL",
      "contractName": null,
      "contractAddress": "0x2af842c6517cf30fb3456aef485230e0dd085845",
      "function": "setCtmRwaDeployer(address)",
      "arguments": [
        "0xE912F7c7A59470a6E3f178388106E3caa9e6fbd1"
      ],
      "transaction": {
        "from": "0xc3ca11bd8e131471904dced927b3fb7edb453179",
        "to": "0x2af842c6517cf30fb3456aef485230e0dd085845",
        "gas": "0xb6ca",
        "value": "0x0",
        "input": "0xf1e4f707000000000000000000000000e912f7c7a59470a6e3f178388106e3caa9e6fbd1",
        "nonce": "0x4b",
        "chainId": "0x61"
      },
      "additionalContracts": [],
      "isFixedGasLimit": false
    },
    {
      "hash": "0x153e537825bb6441050a8902c8aa370dbbf3658239c1f968ae6f11549645080d",
      "transactionType": "CALL",
      "contractName": null,
      "contractAddress": "0x2af842c6517cf30fb3456aef485230e0dd085845",
      "function": "setCtmRwaMap(address)",
      "arguments": [
        "0x2026027054F5beBCEB650aBD62dC623e327658e7"
      ],
      "transaction": {
        "from": "0xc3ca11bd8e131471904dced927b3fb7edb453179",
        "to": "0x2af842c6517cf30fb3456aef485230e0dd085845",
        "gas": "0x11e2d",
        "value": "0x0",
        "input": "0x08add95f0000000000000000000000002026027054f5bebceb650abd62dc623e327658e7",
        "nonce": "0x4c",
        "chainId": "0x61"
      },
      "additionalContracts": [],
      "isFixedGasLimit": false
    },
    {
      "hash": "0x754d9a3b470312098a8087b84ffe69895ed0f23a8f04351d81ba6a086fa98ced",
      "transactionType": "CALL",
      "contractName": null,
      "contractAddress": "0x58b610a359c870e0fc941139821a51f5aa23f14e",
      "function": "addChainContract(string[],string[])",
      "arguments": [
        "[11155111, 17000, 1946, 421614, 43113, 534351, 5611, 84532]",
        "[0x58B610a359c870E0fc941139821a51F5aa23f14E, 0x58B610a359c870E0fc941139821a51F5aa23f14E, 0x58B610a359c870E0fc941139821a51F5aa23f14E, 0x58B610a359c870E0fc941139821a51F5aa23f14E, 0x58B610a359c870E0fc941139821a51F5aa23f14E, 0x58B610a359c870E0fc941139821a51F5aa23f14E, 0x58B610a359c870E0fc941139821a51F5aa23f14E, 0x58B610a359c870E0fc941139821a51F5aa23f14E]"
      ],
      "transaction": {
        "from": "0xc3ca11bd8e131471904dced927b3fb7edb453179",
        "to": "0x58b610a359c870e0fc941139821a51f5aa23f14e",
        "gas": "0x15beee",
        "value": "0x0",
        "input": "0x013fd3bd00000000000000000000000000000000000000000000000000000000000000400000000000000000000000000000000000000000000000000000000000000360000000000000000000000000000000000000000000000000000000000000000800000000000000000000000000000000000000000000000000000000000001000000000000000000000000000000000000000000000000000000000000000140000000000000000000000000000000000000000000000000000000000000018000000000000000000000000000000000000000000000000000000000000001c000000000000000000000000000000000000000000000000000000000000002000000000000000000000000000000000000000000000000000000000000000240000000000000000000000000000000000000000000000000000000000000028000000000000000000000000000000000000000000000000000000000000002c0000000000000000000000000000000000000000000000000000000000000000831313135353131310000000000000000000000000000000000000000000000000000000000000000000000000000000000000000000000000000000000000005313730303000000000000000000000000000000000000000000000000000000000000000000000000000000000000000000000000000000000000000000000043139343600000000000000000000000000000000000000000000000000000000000000000000000000000000000000000000000000000000000000000000000634323136313400000000000000000000000000000000000000000000000000000000000000000000000000000000000000000000000000000000000000000005343331313300000000000000000000000000000000000000000000000000000000000000000000000000000000000000000000000000000000000000000000063533343335310000000000000000000000000000000000000000000000000000000000000000000000000000000000000000000000000000000000000000000435363131000000000000000000000000000000000000000000000000000000000000000000000000000000000000000000000000000000000000000000000005383435333200000000000000000000000000000000000000000000000000000000000000000000000000000000000000000000000000000000000000000000080000000000000000000000000000000000000000000000000000000000000100000000000000000000000000000000000000000000000000000000000000016000000000000000000000000000000000000000000000000000000000000001c00000000000000000000000000000000000000000000000000000000000000220000000000000000000000000000000000000000000000000000000000000028000000000000000000000000000000000000000000000000000000000000002e0000000000000000000000000000000000000000000000000000000000000034000000000000000000000000000000000000000000000000000000000000003a0000000000000000000000000000000000000000000000000000000000000002a30783538423631306133353963383730453066633934313133393832316135314635616132336631344500000000000000000000000000000000000000000000000000000000000000000000000000000000000000000000000000000000002a30783538423631306133353963383730453066633934313133393832316135314635616132336631344500000000000000000000000000000000000000000000000000000000000000000000000000000000000000000000000000000000002a30783538423631306133353963383730453066633934313133393832316135314635616132336631344500000000000000000000000000000000000000000000000000000000000000000000000000000000000000000000000000000000002a30783538423631306133353963383730453066633934313133393832316135314635616132336631344500000000000000000000000000000000000000000000000000000000000000000000000000000000000000000000000000000000002a30783538423631306133353963383730453066633934313133393832316135314635616132336631344500000000000000000000000000000000000000000000000000000000000000000000000000000000000000000000000000000000002a30783538423631306133353963383730453066633934313133393832316135314635616132336631344500000000000000000000000000000000000000000000000000000000000000000000000000000000000000000000000000000000002a30783538423631306133353963383730453066633934313133393832316135314635616132336631344500000000000000000000000000000000000000000000000000000000000000000000000000000000000000000000000000000000002a30783538423631306133353963383730453066633934313133393832316135314635616132336631344500000000000000000000000000000000000000000000",
        "nonce": "0x4d",
        "chainId": "0x61"
      },
      "additionalContracts": [],
      "isFixedGasLimit": false
    },
    {
      "hash": "0x07563d8fc79c559373c9cdc29d9b0c969c5ed9e9632923e9af556ede497dc2a1",
      "transactionType": "CALL",
      "contractName": null,
      "contractAddress": "0x58b610a359c870e0fc941139821a51f5aa23f14e",
      "function": "attachRWAX(uint256,uint256,string[],string[])",
      "arguments": [
        "1",
        "1",
        "[11155111, 17000, 1946, 421614, 43113, 534351, 5611, 84532]",
        "[0x9C9e9Fad264089339aAd66Ff3e32D2bA1DdF6951, 0x9C9e9Fad264089339aAd66Ff3e32D2bA1DdF6951, 0x9C9e9Fad264089339aAd66Ff3e32D2bA1DdF6951, 0x9C9e9Fad264089339aAd66Ff3e32D2bA1DdF6951, 0x9C9e9Fad264089339aAd66Ff3e32D2bA1DdF6951, 0x9C9e9Fad264089339aAd66Ff3e32D2bA1DdF6951, 0x9C9e9Fad264089339aAd66Ff3e32D2bA1DdF6951, 0x9C9e9Fad264089339aAd66Ff3e32D2bA1DdF6951]"
      ],
      "transaction": {
        "from": "0xc3ca11bd8e131471904dced927b3fb7edb453179",
        "to": "0x58b610a359c870e0fc941139821a51f5aa23f14e",
        "gas": "0x195b79",
        "value": "0x0",
        "input": "0x33a5f5b400000000000000000000000000000000000000000000000000000000000000010000000000000000000000000000000000000000000000000000000000000001000000000000000000000000000000000000000000000000000000000000008000000000000000000000000000000000000000000000000000000000000003a0000000000000000000000000000000000000000000000000000000000000000800000000000000000000000000000000000000000000000000000000000001000000000000000000000000000000000000000000000000000000000000000140000000000000000000000000000000000000000000000000000000000000018000000000000000000000000000000000000000000000000000000000000001c000000000000000000000000000000000000000000000000000000000000002000000000000000000000000000000000000000000000000000000000000000240000000000000000000000000000000000000000000000000000000000000028000000000000000000000000000000000000000000000000000000000000002c0000000000000000000000000000000000000000000000000000000000000000831313135353131310000000000000000000000000000000000000000000000000000000000000000000000000000000000000000000000000000000000000005313730303000000000000000000000000000000000000000000000000000000000000000000000000000000000000000000000000000000000000000000000043139343600000000000000000000000000000000000000000000000000000000000000000000000000000000000000000000000000000000000000000000000634323136313400000000000000000000000000000000000000000000000000000000000000000000000000000000000000000000000000000000000000000005343331313300000000000000000000000000000000000000000000000000000000000000000000000000000000000000000000000000000000000000000000063533343335310000000000000000000000000000000000000000000000000000000000000000000000000000000000000000000000000000000000000000000435363131000000000000000000000000000000000000000000000000000000000000000000000000000000000000000000000000000000000000000000000005383435333200000000000000000000000000000000000000000000000000000000000000000000000000000000000000000000000000000000000000000000080000000000000000000000000000000000000000000000000000000000000100000000000000000000000000000000000000000000000000000000000000016000000000000000000000000000000000000000000000000000000000000001c00000000000000000000000000000000000000000000000000000000000000220000000000000000000000000000000000000000000000000000000000000028000000000000000000000000000000000000000000000000000000000000002e0000000000000000000000000000000000000000000000000000000000000034000000000000000000000000000000000000000000000000000000000000003a0000000000000000000000000000000000000000000000000000000000000002a30783943396539466164323634303839333339614164363646663365333244326241314464463639353100000000000000000000000000000000000000000000000000000000000000000000000000000000000000000000000000000000002a30783943396539466164323634303839333339614164363646663365333244326241314464463639353100000000000000000000000000000000000000000000000000000000000000000000000000000000000000000000000000000000002a30783943396539466164323634303839333339614164363646663365333244326241314464463639353100000000000000000000000000000000000000000000000000000000000000000000000000000000000000000000000000000000002a30783943396539466164323634303839333339614164363646663365333244326241314464463639353100000000000000000000000000000000000000000000000000000000000000000000000000000000000000000000000000000000002a30783943396539466164323634303839333339614164363646663365333244326241314464463639353100000000000000000000000000000000000000000000000000000000000000000000000000000000000000000000000000000000002a30783943396539466164323634303839333339614164363646663365333244326241314464463639353100000000000000000000000000000000000000000000000000000000000000000000000000000000000000000000000000000000002a30783943396539466164323634303839333339614164363646663365333244326241314464463639353100000000000000000000000000000000000000000000000000000000000000000000000000000000000000000000000000000000002a30783943396539466164323634303839333339614164363646663365333244326241314464463639353100000000000000000000000000000000000000000000",
        "nonce": "0x4e",
        "chainId": "0x61"
      },
      "additionalContracts": [],
      "isFixedGasLimit": false
    },
    {
      "hash": "0x7f65d043ed3912527fa1fc3fae2211062c5d0de9c2d8f1c31c07ed8f0ea4001c",
      "transactionType": "CALL",
      "contractName": null,
      "contractAddress": "0x58b610a359c870e0fc941139821a51f5aa23f14e",
      "function": "attachStorageManager(uint256,uint256,string[],string[])",
      "arguments": [
        "1",
        "1",
        "[11155111, 17000, 1946, 421614, 43113, 534351, 5611, 84532]",
        "[0x92228B058f25Bc4fb333fA296dDdECBdDf6496f3, 0x92228B058f25Bc4fb333fA296dDdECBdDf6496f3, 0x92228B058f25Bc4fb333fA296dDdECBdDf6496f3, 0x92228B058f25Bc4fb333fA296dDdECBdDf6496f3, 0x92228B058f25Bc4fb333fA296dDdECBdDf6496f3, 0x92228B058f25Bc4fb333fA296dDdECBdDf6496f3, 0x92228B058f25Bc4fb333fA296dDdECBdDf6496f3, 0x92228B058f25Bc4fb333fA296dDdECBdDf6496f3]"
      ],
      "transaction": {
        "from": "0xc3ca11bd8e131471904dced927b3fb7edb453179",
        "to": "0x58b610a359c870e0fc941139821a51f5aa23f14e",
        "gas": "0x150583",
        "value": "0x0",
        "input": "0x2f68b48900000000000000000000000000000000000000000000000000000000000000010000000000000000000000000000000000000000000000000000000000000001000000000000000000000000000000000000000000000000000000000000008000000000000000000000000000000000000000000000000000000000000003a0000000000000000000000000000000000000000000000000000000000000000800000000000000000000000000000000000000000000000000000000000001000000000000000000000000000000000000000000000000000000000000000140000000000000000000000000000000000000000000000000000000000000018000000000000000000000000000000000000000000000000000000000000001c000000000000000000000000000000000000000000000000000000000000002000000000000000000000000000000000000000000000000000000000000000240000000000000000000000000000000000000000000000000000000000000028000000000000000000000000000000000000000000000000000000000000002c0000000000000000000000000000000000000000000000000000000000000000831313135353131310000000000000000000000000000000000000000000000000000000000000000000000000000000000000000000000000000000000000005313730303000000000000000000000000000000000000000000000000000000000000000000000000000000000000000000000000000000000000000000000043139343600000000000000000000000000000000000000000000000000000000000000000000000000000000000000000000000000000000000000000000000634323136313400000000000000000000000000000000000000000000000000000000000000000000000000000000000000000000000000000000000000000005343331313300000000000000000000000000000000000000000000000000000000000000000000000000000000000000000000000000000000000000000000063533343335310000000000000000000000000000000000000000000000000000000000000000000000000000000000000000000000000000000000000000000435363131000000000000000000000000000000000000000000000000000000000000000000000000000000000000000000000000000000000000000000000005383435333200000000000000000000000000000000000000000000000000000000000000000000000000000000000000000000000000000000000000000000080000000000000000000000000000000000000000000000000000000000000100000000000000000000000000000000000000000000000000000000000000016000000000000000000000000000000000000000000000000000000000000001c00000000000000000000000000000000000000000000000000000000000000220000000000000000000000000000000000000000000000000000000000000028000000000000000000000000000000000000000000000000000000000000002e0000000000000000000000000000000000000000000000000000000000000034000000000000000000000000000000000000000000000000000000000000003a0000000000000000000000000000000000000000000000000000000000000002a30783932323238423035386632354263346662333333664132393664446445434264446636343936663300000000000000000000000000000000000000000000000000000000000000000000000000000000000000000000000000000000002a30783932323238423035386632354263346662333333664132393664446445434264446636343936663300000000000000000000000000000000000000000000000000000000000000000000000000000000000000000000000000000000002a30783932323238423035386632354263346662333333664132393664446445434264446636343936663300000000000000000000000000000000000000000000000000000000000000000000000000000000000000000000000000000000002a30783932323238423035386632354263346662333333664132393664446445434264446636343936663300000000000000000000000000000000000000000000000000000000000000000000000000000000000000000000000000000000002a30783932323238423035386632354263346662333333664132393664446445434264446636343936663300000000000000000000000000000000000000000000000000000000000000000000000000000000000000000000000000000000002a30783932323238423035386632354263346662333333664132393664446445434264446636343936663300000000000000000000000000000000000000000000000000000000000000000000000000000000000000000000000000000000002a30783932323238423035386632354263346662333333664132393664446445434264446636343936663300000000000000000000000000000000000000000000000000000000000000000000000000000000000000000000000000000000002a30783932323238423035386632354263346662333333664132393664446445434264446636343936663300000000000000000000000000000000000000000000",
        "nonce": "0x4f",
        "chainId": "0x61"
      },
      "additionalContracts": [],
      "isFixedGasLimit": false
    },
    {
      "hash": "0x7b58698fed6951250310d1c23342fb017745cad6bf9aaab94cd7b376eae344b4",
      "transactionType": "CALL",
      "contractName": null,
      "contractAddress": "0x58b610a359c870e0fc941139821a51f5aa23f14e",
      "function": "attachSentryManager(uint256,uint256,string[],string[])",
      "arguments": [
        "1",
        "1",
        "[11155111, 17000, 1946, 421614, 43113, 534351, 5611, 84532]",
        "[0x2AF842C6517CF30Fb3456aeF485230e0DD085845, 0x2AF842C6517CF30Fb3456aeF485230e0DD085845, 0x2AF842C6517CF30Fb3456aeF485230e0DD085845, 0x2AF842C6517CF30Fb3456aeF485230e0DD085845, 0x2AF842C6517CF30Fb3456aeF485230e0DD085845, 0x2AF842C6517CF30Fb3456aeF485230e0DD085845, 0x2AF842C6517CF30Fb3456aeF485230e0DD085845, 0x2AF842C6517CF30Fb3456aeF485230e0DD085845]"
      ],
      "transaction": {
        "from": "0xc3ca11bd8e131471904dced927b3fb7edb453179",
        "to": "0x58b610a359c870e0fc941139821a51f5aa23f14e",
        "gas": "0x162bbf",
        "value": "0x0",
        "input": "0x349de79700000000000000000000000000000000000000000000000000000000000000010000000000000000000000000000000000000000000000000000000000000001000000000000000000000000000000000000000000000000000000000000008000000000000000000000000000000000000000000000000000000000000003a0000000000000000000000000000000000000000000000000000000000000000800000000000000000000000000000000000000000000000000000000000001000000000000000000000000000000000000000000000000000000000000000140000000000000000000000000000000000000000000000000000000000000018000000000000000000000000000000000000000000000000000000000000001c000000000000000000000000000000000000000000000000000000000000002000000000000000000000000000000000000000000000000000000000000000240000000000000000000000000000000000000000000000000000000000000028000000000000000000000000000000000000000000000000000000000000002c0000000000000000000000000000000000000000000000000000000000000000831313135353131310000000000000000000000000000000000000000000000000000000000000000000000000000000000000000000000000000000000000005313730303000000000000000000000000000000000000000000000000000000000000000000000000000000000000000000000000000000000000000000000043139343600000000000000000000000000000000000000000000000000000000000000000000000000000000000000000000000000000000000000000000000634323136313400000000000000000000000000000000000000000000000000000000000000000000000000000000000000000000000000000000000000000005343331313300000000000000000000000000000000000000000000000000000000000000000000000000000000000000000000000000000000000000000000063533343335310000000000000000000000000000000000000000000000000000000000000000000000000000000000000000000000000000000000000000000435363131000000000000000000000000000000000000000000000000000000000000000000000000000000000000000000000000000000000000000000000005383435333200000000000000000000000000000000000000000000000000000000000000000000000000000000000000000000000000000000000000000000080000000000000000000000000000000000000000000000000000000000000100000000000000000000000000000000000000000000000000000000000000016000000000000000000000000000000000000000000000000000000000000001c00000000000000000000000000000000000000000000000000000000000000220000000000000000000000000000000000000000000000000000000000000028000000000000000000000000000000000000000000000000000000000000002e0000000000000000000000000000000000000000000000000000000000000034000000000000000000000000000000000000000000000000000000000000003a0000000000000000000000000000000000000000000000000000000000000002a30783241463834324336353137434633304662333435366165463438353233306530444430383538343500000000000000000000000000000000000000000000000000000000000000000000000000000000000000000000000000000000002a30783241463834324336353137434633304662333435366165463438353233306530444430383538343500000000000000000000000000000000000000000000000000000000000000000000000000000000000000000000000000000000002a30783241463834324336353137434633304662333435366165463438353233306530444430383538343500000000000000000000000000000000000000000000000000000000000000000000000000000000000000000000000000000000002a30783241463834324336353137434633304662333435366165463438353233306530444430383538343500000000000000000000000000000000000000000000000000000000000000000000000000000000000000000000000000000000002a30783241463834324336353137434633304662333435366165463438353233306530444430383538343500000000000000000000000000000000000000000000000000000000000000000000000000000000000000000000000000000000002a30783241463834324336353137434633304662333435366165463438353233306530444430383538343500000000000000000000000000000000000000000000000000000000000000000000000000000000000000000000000000000000002a30783241463834324336353137434633304662333435366165463438353233306530444430383538343500000000000000000000000000000000000000000000000000000000000000000000000000000000000000000000000000000000002a30783241463834324336353137434633304662333435366165463438353233306530444430383538343500000000000000000000000000000000000000000000",
        "nonce": "0x50",
        "chainId": "0x61"
      },
      "additionalContracts": [],
      "isFixedGasLimit": false
    }
  ],
  "receipts": [
    {
      "status": "0x1",
      "cumulativeGasUsed": "0x71c0",
      "logs": [],
      "logsBloom": "0x00000000000000000000000000000000000000000000000000000000000000000000000000000000000000000000000000000000000000000000000000000000000000000000000000000000000000000000000000000000000000000000000000000000000000000000000000000000000000000000000000000000000000000000000000000000000000000000000000000000000000000000000000000000000000000000000000000000000000000000000000000000000000000000000000000000000000000000000000000000000000000000000000000000000000000000000000000000000000000000000000000000000000000000000000000000",
      "type": "0x0",
      "transactionHash": "0xed7e2ca67bcf902320821e16f789ce533f160eca8c3eaa392a0ca98249884b88",
      "transactionIndex": "0x0",
      "blockHash": "0xe982bf7d4ea9fb80aa34cae14cdfe6f1b70b0289c74d6ccd935f97e2638a58ce",
      "blockNumber": "0x3a4af54",
      "gasUsed": "0x71c0",
      "effectiveGasPrice": "0x5f5e100",
      "from": "0xc3ca11bd8e131471904dced927b3fb7edb453179",
      "to": "0x2f925d6512b2bbb00f5a36d8b18e01fcf35f7dc7",
      "contractAddress": null
    },
    {
      "status": "0x1",
      "cumulativeGasUsed": "0x1e4ef",
      "logs": [
        {
          "address": "0x2f925d6512b2bbb00f5a36d8b18e01fcf35f7dc7",
          "topics": [
            "0x1394cfab38f3fc78ed77ea6f9318782a446d96e7dc8e9a6b0149f6be25c08bcf",
            "0x000000000000000000000000dd43fc986a13392ddbc7aea150b41efe27b2d0ed"
          ],
          "data": "0x",
          "blockHash": "0x2448990a61bb06211ed2757cbbd8ef55b8657bccc62e34a2e94af2b585c49dd4",
          "blockNumber": "0x3a4af59",
          "transactionHash": "0x86d5f375fd418a128b62e97a1dcb5fcc94ea69e08cb2dbad3979b1da48ec721b",
          "transactionIndex": "0x0",
          "logIndex": "0x0",
          "removed": false
        }
      ],
      "logsBloom": "0x00000000000000000000000000000000000000000000000000000000000000000000000000000000000000000000000000000000000000000000000000000000000000004000000400000000000000000000001000000000000000000000000000000000000000000000000000000000000000000000000000000000000000000000000500000000000000000000000000000000000000000000000000000000000000000000000000000000000000000000000100000000000000000000004000000000000000000000000000004000000000000000000000000000000000000000000000010000000000000000000000000000000000000000000000000000",
      "type": "0x0",
      "transactionHash": "0x86d5f375fd418a128b62e97a1dcb5fcc94ea69e08cb2dbad3979b1da48ec721b",
      "transactionIndex": "0x0",
      "blockHash": "0x2448990a61bb06211ed2757cbbd8ef55b8657bccc62e34a2e94af2b585c49dd4",
      "blockNumber": "0x3a4af59",
      "gasUsed": "0x1e4ef",
      "effectiveGasPrice": "0x5f5e100",
      "from": "0xc3ca11bd8e131471904dced927b3fb7edb453179",
      "to": "0x2f925d6512b2bbb00f5a36d8b18e01fcf35f7dc7",
      "contractAddress": null
    },
    {
      "status": "0x1",
      "cumulativeGasUsed": "0x19cf4",
      "logs": [],
      "logsBloom": "0x00000000000000000000000000000000000000000000000000000000000000000000000000000000000000000000000000000000000000000000000000000000000000000000000000000000000000000000000000000000000000000000000000000000000000000000000000000000000000000000000000000000000000000000000000000000000000000000000000000000000000000000000000000000000000000000000000000000000000000000000000000000000000000000000000000000000000000000000000000000000000000000000000000000000000000000000000000000000000000000000000000000000000000000000000000000",
      "type": "0x0",
      "transactionHash": "0x2c0ccc6ed383e33848a810a808498dca69c0cf7a602b620b75d72fd9b1f3a149",
      "transactionIndex": "0x0",
      "blockHash": "0xd7410c696b3728c665881058313f49dfc8ffd390a5ab3fddb5af77678ffe5f15",
      "blockNumber": "0x3a4af5d",
      "gasUsed": "0x19cf4",
      "effectiveGasPrice": "0x5f5e100",
      "from": "0xc3ca11bd8e131471904dced927b3fb7edb453179",
      "to": "0x2f925d6512b2bbb00f5a36d8b18e01fcf35f7dc7",
      "contractAddress": null
    },
    {
      "status": "0x1",
      "cumulativeGasUsed": "0x5805c",
      "logs": [],
      "logsBloom": "0x00000000000000000000000000000000000000000000000000000000000000000000000000000000000000000000000000000000000000000000000000000000000000000000000000000000000000000000000000000000000000000000000000000000000000000000000000000000000000000000000000000000000000000000000000000000000000000000000000000000000000000000000000000000000000000000000000000000000000000000000000000000000000000000000000000000000000000000000000000000000000000000000000000000000000000000000000000000000000000000000000000000000000000000000000000000",
      "type": "0x0",
      "transactionHash": "0x25d50aad222baccb3f85821fd9af76336dc973e9c9608364d2eb1e1a5daf2949",
      "transactionIndex": "0x2",
      "blockHash": "0x4a059a732e9920291924d5741212be281db62ede5239cde903972b6afab675e4",
      "blockNumber": "0x3a4af62",
      "gasUsed": "0x1988c",
      "effectiveGasPrice": "0x5f5e100",
      "from": "0xc3ca11bd8e131471904dced927b3fb7edb453179",
      "to": "0x2f925d6512b2bbb00f5a36d8b18e01fcf35f7dc7",
      "contractAddress": null
    },
    {
      "status": "0x1",
      "cumulativeGasUsed": "0x1e91c",
      "logs": [],
      "logsBloom": "0x00000000000000000000000000000000000000000000000000000000000000000000000000000000000000000000000000000000000000000000000000000000000000000000000000000000000000000000000000000000000000000000000000000000000000000000000000000000000000000000000000000000000000000000000000000000000000000000000000000000000000000000000000000000000000000000000000000000000000000000000000000000000000000000000000000000000000000000000000000000000000000000000000000000000000000000000000000000000000000000000000000000000000000000000000000000",
      "type": "0x0",
      "transactionHash": "0x70737396f201af5bddf368e3341940263c07e1a0089957f87c16331be8d1a146",
      "transactionIndex": "0x1",
      "blockHash": "0x745149a0dac01a77137ed51a81de9bff027bf80cce4a32629c2c90f44de06112",
      "blockNumber": "0x3a4af67",
      "gasUsed": "0x19714",
      "effectiveGasPrice": "0x5f5e100",
      "from": "0xc3ca11bd8e131471904dced927b3fb7edb453179",
      "to": "0x2f925d6512b2bbb00f5a36d8b18e01fcf35f7dc7",
      "contractAddress": null
    },
    {
      "status": "0x1",
      "cumulativeGasUsed": "0x1ec0c",
      "logs": [],
      "logsBloom": "0x00000000000000000000000000000000000000000000000000000000000000000000000000000000000000000000000000000000000000000000000000000000000000000000000000000000000000000000000000000000000000000000000000000000000000000000000000000000000000000000000000000000000000000000000000000000000000000000000000000000000000000000000000000000000000000000000000000000000000000000000000000000000000000000000000000000000000000000000000000000000000000000000000000000000000000000000000000000000000000000000000000000000000000000000000000000",
      "type": "0x0",
      "transactionHash": "0xe7eecc6639c2a73f80e45cf89917eb13de88d433669179220a5d3abbcb0faceb",
      "transactionIndex": "0x1",
      "blockHash": "0x713175f5ce20be1b49a4d5ed99f92f0ad345fe14910ee061866301c0b39a9dff",
      "blockNumber": "0x3a4af6b",
      "gasUsed": "0x19a04",
      "effectiveGasPrice": "0x5f5e100",
      "from": "0xc3ca11bd8e131471904dced927b3fb7edb453179",
      "to": "0x2f925d6512b2bbb00f5a36d8b18e01fcf35f7dc7",
      "contractAddress": null
    },
    {
      "status": "0x1",
      "cumulativeGasUsed": "0x4042a",
      "logs": [],
      "logsBloom": "0x00000000000000000000000000000000000000000000000000000000000000000000000000000000000000000000000000000000000000000000000000000000000000000000000000000000000000000000000000000000000000000000000000000000000000000000000000000000000000000000000000000000000000000000000000000000000000000000000000000000000000000000000000000000000000000000000000000000000000000000000000000000000000000000000000000000000000000000000000000000000000000000000000000000000000000000000000000000000000000000000000000000000000000000000000000000",
      "type": "0x0",
      "transactionHash": "0xf9ff366414737b77a96342a034aff20a99403378e5376f00aae798f29a75838e",
      "transactionIndex": "0x1",
      "blockHash": "0xaa694685501063f3c1153b289869a54e4e9c114b5909e028b1f845fdc910d6ff",
      "blockNumber": "0x3a4af6f",
      "gasUsed": "0x1988c",
      "effectiveGasPrice": "0x5f5e100",
      "from": "0xc3ca11bd8e131471904dced927b3fb7edb453179",
      "to": "0x2f925d6512b2bbb00f5a36d8b18e01fcf35f7dc7",
      "contractAddress": null
    },
    {
      "status": "0x1",
      "cumulativeGasUsed": "0x1ec0c",
      "logs": [],
      "logsBloom": "0x00000000000000000000000000000000000000000000000000000000000000000000000000000000000000000000000000000000000000000000000000000000000000000000000000000000000000000000000000000000000000000000000000000000000000000000000000000000000000000000000000000000000000000000000000000000000000000000000000000000000000000000000000000000000000000000000000000000000000000000000000000000000000000000000000000000000000000000000000000000000000000000000000000000000000000000000000000000000000000000000000000000000000000000000000000000",
      "type": "0x0",
      "transactionHash": "0x40f9103887402735722af5699308dd1a0092cd75a91ff1df43eae41588ab13b5",
      "transactionIndex": "0x1",
      "blockHash": "0xd415dbb96bb89f76f982a964456551ff8d416c15e8deb1b0c7c723351d7b1f8a",
      "blockNumber": "0x3a4af73",
      "gasUsed": "0x19a04",
      "effectiveGasPrice": "0x5f5e100",
      "from": "0xc3ca11bd8e131471904dced927b3fb7edb453179",
      "to": "0x2f925d6512b2bbb00f5a36d8b18e01fcf35f7dc7",
      "contractAddress": null
    },
    {
      "status": "0x1",
      "cumulativeGasUsed": "0x19714",
      "logs": [],
      "logsBloom": "0x00000000000000000000000000000000000000000000000000000000000000000000000000000000000000000000000000000000000000000000000000000000000000000000000000000000000000000000000000000000000000000000000000000000000000000000000000000000000000000000000000000000000000000000000000000000000000000000000000000000000000000000000000000000000000000000000000000000000000000000000000000000000000000000000000000000000000000000000000000000000000000000000000000000000000000000000000000000000000000000000000000000000000000000000000000000",
      "type": "0x0",
      "transactionHash": "0xe29d3d9141d2af9b234e4be221b8222442331efa52dd216eb7b2d89c90770f03",
      "transactionIndex": "0x0",
      "blockHash": "0x1de4c68f2b882d20859ff95818a57f004e55a2c2f58f61b353cd53138535f36e",
      "blockNumber": "0x3a4af78",
      "gasUsed": "0x19714",
      "effectiveGasPrice": "0x5f5e100",
      "from": "0xc3ca11bd8e131471904dced927b3fb7edb453179",
      "to": "0x2f925d6512b2bbb00f5a36d8b18e01fcf35f7dc7",
      "contractAddress": null
    },
    {
      "status": "0x1",
      "cumulativeGasUsed": "0x46f02",
      "logs": [],
      "logsBloom": "0x00000000000000000000000000000000000000000000000000000000000000000000000000000000000000000000000000000000000000000000000000000000000000000000000000000000000000000000000000000000000000000000000000000000000000000000000000000000000000000000000000000000000000000000000000000000000000000000000000000000000000000000000000000000000000000000000000000000000000000000000000000000000000000000000000000000000000000000000000000000000000000000000000000000000000000000000000000000000000000000000000000000000000000000000000000000",
      "type": "0x0",
      "transactionHash": "0x326fd9ff1b6b3b38021e8e5ec2d5f84b861ae855eff3d2d6030a573b6b3ce28e",
      "transactionIndex": "0x2",
      "blockHash": "0xcee88af6d78e7f48ee8444b4fd0ca9f3e8d7337fc93a097a5923ea02022d4719",
      "blockNumber": "0x3a4af7d",
      "gasUsed": "0x1988c",
      "effectiveGasPrice": "0x5f5e100",
      "from": "0xc3ca11bd8e131471904dced927b3fb7edb453179",
      "to": "0x2f925d6512b2bbb00f5a36d8b18e01fcf35f7dc7",
      "contractAddress": null
    },
    {
      "status": "0x1",
      "cumulativeGasUsed": "0x448fa",
      "logs": [
        {
          "address": "0x2f925d6512b2bbb00f5a36d8b18e01fcf35f7dc7",
          "topics": [
            "0x128b13f5a7f3d4a8f9ebafb4d8c23d5f6f5a287c83c1e81e79b1f80c1708a5fb",
            "0x0000000000000000000000000000000000000000000000000000000000000000"
          ],
          "data": "0x0000000000000000000000000000000000000000000000000000000000000002",
          "blockHash": "0x4413dc40ca30761d0ed055629ca0b31fb33403c438d85251c3a121739eca6a9c",
          "blockNumber": "0x3a4af81",
          "transactionHash": "0x00b679db48c961d3347e3c68f2611e50306c3c168985a7f0b7f1080a2ed4cf32",
          "transactionIndex": "0x2",
          "logIndex": "0x5",
          "removed": false
        }
      ],
      "logsBloom": "0x00000000000000000000000000000000000000000000000000000000000000000000000000000000000000000000000000000000000000000000000000000000000000000000000000000000000000000000000000000000000000000000000000000000020000000000000000000800000000000000000009000000000000000000000400000000000000000000000000000000000000000000000000000000000000000000001000000000000000000000000000000000000000000000004000000000000000000000000000004000000000000000000000000000000020000000000000000000000000000000000000000000000000000000000000000000",
      "type": "0x0",
      "transactionHash": "0x00b679db48c961d3347e3c68f2611e50306c3c168985a7f0b7f1080a2ed4cf32",
      "transactionIndex": "0x2",
      "blockHash": "0x4413dc40ca30761d0ed055629ca0b31fb33403c438d85251c3a121739eca6a9c",
      "blockNumber": "0x3a4af81",
      "gasUsed": "0xe65e",
      "effectiveGasPrice": "0x5f5e100",
      "from": "0xc3ca11bd8e131471904dced927b3fb7edb453179",
      "to": "0x2f925d6512b2bbb00f5a36d8b18e01fcf35f7dc7",
      "contractAddress": null
    },
    {
      "status": "0x1",
      "cumulativeGasUsed": "0x15ede",
      "logs": [
        {
          "address": "0x2f925d6512b2bbb00f5a36d8b18e01fcf35f7dc7",
          "topics": [
            "0x128b13f5a7f3d4a8f9ebafb4d8c23d5f6f5a287c83c1e81e79b1f80c1708a5fb",
            "0x0000000000000000000000000000000000000000000000000000000000000001"
          ],
          "data": "0x000000000000000000000000000000000000000000000000000000000000000a",
          "blockHash": "0x244a237b43fbc4c8d4796f98846ab7d4e038e91f556c8ef27a4705d02d738a84",
          "blockNumber": "0x3a4af86",
          "transactionHash": "0xd3124e70815e780ed049a96e52eaafbc5608e97c7e5df6d0584e7858820714dd",
          "transactionIndex": "0x1",
          "logIndex": "0x0",
          "removed": false
        }
      ],
      "logsBloom": "0x00000000000000000000000000000000000000000000000000000000000000000000000000000000000000000000000000000000000000000000000000040000000000000000000000000000000000000000000000040000000000000000000000000000000000000000000000000000000000000000000009000000000000000000000400000000000000000000000000000000000000000000000000000000000000000000001000000000000000000000000000000000000000000000004000000000000000000000000000004000000000000000000000000000000040000000000000000000000000000000000000000000000000000000000000000000",
      "type": "0x0",
      "transactionHash": "0xd3124e70815e780ed049a96e52eaafbc5608e97c7e5df6d0584e7858820714dd",
      "transactionIndex": "0x1",
      "blockHash": "0x244a237b43fbc4c8d4796f98846ab7d4e038e91f556c8ef27a4705d02d738a84",
      "blockNumber": "0x3a4af86",
      "gasUsed": "0xe66a",
      "effectiveGasPrice": "0x5f5e100",
      "from": "0xc3ca11bd8e131471904dced927b3fb7edb453179",
      "to": "0x2f925d6512b2bbb00f5a36d8b18e01fcf35f7dc7",
      "contractAddress": null
    },
    {
      "status": "0x1",
      "cumulativeGasUsed": "0x13872",
      "logs": [
        {
          "address": "0x2f925d6512b2bbb00f5a36d8b18e01fcf35f7dc7",
          "topics": [
            "0x128b13f5a7f3d4a8f9ebafb4d8c23d5f6f5a287c83c1e81e79b1f80c1708a5fb",
            "0x0000000000000000000000000000000000000000000000000000000000000002"
          ],
          "data": "0x0000000000000000000000000000000000000000000000000000000000000001",
          "blockHash": "0xc890d9841661946d07414da16b00100d7be9b368821e37fcbda0d64fad75b75c",
          "blockNumber": "0x3a4af8b",
          "transactionHash": "0x1c3f03bc342c2c01f49cbfa0b51cfa7b2c2a12149eaac38f7f7cf890c7ccdc81",
          "transactionIndex": "0x1",
          "logIndex": "0x0",
          "removed": false
        }
      ],
      "logsBloom": "0x04000000000000000000000000000000000000000000000000000000000000000000000000000000000000000000000000000000000000000000000000000000000000000000000000000000000000000000000000000000000000000000000000000000000000000000000000000000000000000000000009000000000000000000000400000000000000000000000000000000000000000000000000000000000000000000001000000100000000000000000000000000000000000000004000000000000000000000000000004000000000000000000000000000000000000000000000000000000000000000000000000000008000000000000000000000",
      "type": "0x0",
      "transactionHash": "0x1c3f03bc342c2c01f49cbfa0b51cfa7b2c2a12149eaac38f7f7cf890c7ccdc81",
      "transactionIndex": "0x1",
      "blockHash": "0xc890d9841661946d07414da16b00100d7be9b368821e37fcbda0d64fad75b75c",
      "blockNumber": "0x3a4af8b",
      "gasUsed": "0xe66a",
      "effectiveGasPrice": "0x5f5e100",
      "from": "0xc3ca11bd8e131471904dced927b3fb7edb453179",
      "to": "0x2f925d6512b2bbb00f5a36d8b18e01fcf35f7dc7",
      "contractAddress": null
    },
    {
      "status": "0x1",
      "cumulativeGasUsed": "0x40d11",
      "logs": [
        {
          "address": "0x2f925d6512b2bbb00f5a36d8b18e01fcf35f7dc7",
          "topics": [
            "0x128b13f5a7f3d4a8f9ebafb4d8c23d5f6f5a287c83c1e81e79b1f80c1708a5fb",
            "0x0000000000000000000000000000000000000000000000000000000000000003"
          ],
          "data": "0x0000000000000000000000000000000000000000000000000000000000000004",
          "blockHash": "0xddd55a4f4cb97895b325be8cbdc3785b949be7d98b3f0b9daa5411006a6a2158",
          "blockNumber": "0x3a4af8f",
          "transactionHash": "0xab6c9d5af39f920bcae15165138b6875f3dbc033488b39e0f25f2789f2de86ff",
          "transactionIndex": "0x2",
          "logIndex": "0x4",
          "removed": false
        }
      ],
      "logsBloom": "0x00000000000000000000000000000000000000000000000000000000000000000000000000000000000000000000000000000000020000000000000000000000000000000000000000000000000000000000000000000000000000000000000000000000000000000000000000000000000000000000000009000000000000000000000400000000000000000000000000000000000000000000000000000000000000000000001000000000000000000000000000800000000000000000404000000000000000000000000000004000000000000000000000000000000000000000000000000000000000000000000000000000000000000000000000000000",
      "type": "0x0",
      "transactionHash": "0xab6c9d5af39f920bcae15165138b6875f3dbc033488b39e0f25f2789f2de86ff",
      "transactionIndex": "0x2",
      "blockHash": "0xddd55a4f4cb97895b325be8cbdc3785b949be7d98b3f0b9daa5411006a6a2158",
      "blockNumber": "0x3a4af8f",
      "gasUsed": "0xe66a",
      "effectiveGasPrice": "0x5f5e100",
      "from": "0xc3ca11bd8e131471904dced927b3fb7edb453179",
      "to": "0x2f925d6512b2bbb00f5a36d8b18e01fcf35f7dc7",
      "contractAddress": null
    },
    {
      "status": "0x1",
      "cumulativeGasUsed": "0x15ede",
      "logs": [
        {
          "address": "0x2f925d6512b2bbb00f5a36d8b18e01fcf35f7dc7",
          "topics": [
            "0x128b13f5a7f3d4a8f9ebafb4d8c23d5f6f5a287c83c1e81e79b1f80c1708a5fb",
            "0x0000000000000000000000000000000000000000000000000000000000000004"
          ],
          "data": "0x0000000000000000000000000000000000000000000000000000000000000004",
          "blockHash": "0xbe65b3051198abb6c569a18627405ddd0ba06725097e25fb8f806885e99db37b",
          "blockNumber": "0x3a4af94",
          "transactionHash": "0xd37e9d7c1fcce71978d7ce445d50be615f8c104e63b0d9992e997f8c9d68e071",
          "transactionIndex": "0x1",
          "logIndex": "0x0",
          "removed": false
        }
      ],
      "logsBloom": "0x00000000000000000000000000000000000000000000000000000000000000000000000000000000000000000000000000000000000000000000000000000000000000000000000000000000000000000000000000000000000000000000000008000000000000000000000000000000000000000000000009000000000000000000000400000000000000000000000000000000000000000000000000000000000000000000001000000000000000000000000000000000002000000000004000000000000000000000000000004000000000008000000000000000000000000000000000000000000000000000000000000000000000000000000000000000",
      "type": "0x0",
      "transactionHash": "0xd37e9d7c1fcce71978d7ce445d50be615f8c104e63b0d9992e997f8c9d68e071",
      "transactionIndex": "0x1",
      "blockHash": "0xbe65b3051198abb6c569a18627405ddd0ba06725097e25fb8f806885e99db37b",
      "blockNumber": "0x3a4af94",
      "gasUsed": "0xe66a",
      "effectiveGasPrice": "0x5f5e100",
      "from": "0xc3ca11bd8e131471904dced927b3fb7edb453179",
      "to": "0x2f925d6512b2bbb00f5a36d8b18e01fcf35f7dc7",
      "contractAddress": null
    },
    {
      "status": "0x1",
      "cumulativeGasUsed": "0x15e96",
      "logs": [
        {
          "address": "0x2f925d6512b2bbb00f5a36d8b18e01fcf35f7dc7",
          "topics": [
            "0x128b13f5a7f3d4a8f9ebafb4d8c23d5f6f5a287c83c1e81e79b1f80c1708a5fb",
            "0x0000000000000000000000000000000000000000000000000000000000000005"
          ],
          "data": "0x0000000000000000000000000000000000000000000000000000000000000004",
          "blockHash": "0x0cee2a1f289877f98930c40e299612c25ec50ef2de7b8cb08e2195a61efef9bd",
          "blockNumber": "0x3a4af98",
          "transactionHash": "0x3dbad20ab85b511e7a6a9285851f1215e1f02ca2e1a28f912255fc9ba54fa99e",
          "transactionIndex": "0x1",
          "logIndex": "0x0",
          "removed": false
        }
      ],
      "logsBloom": "0x00000000000000000000000000000000000000000000000000000000000000000000000000000000000000000000000000000000000000000000000000000000000010000000000000000000000000000000000000000000000000000000000000000000000000000000000000000000000000000000000009000000000000000000000400000000000000000000001000000800000000000000000000000000000000000000001000000000000000000000000000000000000000000000004000000000000000000000000000004000000000000000000000000000000000000000000000000000000000000000000000000000000000000000000000000000",
      "type": "0x0",
      "transactionHash": "0x3dbad20ab85b511e7a6a9285851f1215e1f02ca2e1a28f912255fc9ba54fa99e",
      "transactionIndex": "0x1",
      "blockHash": "0x0cee2a1f289877f98930c40e299612c25ec50ef2de7b8cb08e2195a61efef9bd",
      "blockNumber": "0x3a4af98",
      "gasUsed": "0xe66a",
      "effectiveGasPrice": "0x5f5e100",
      "from": "0xc3ca11bd8e131471904dced927b3fb7edb453179",
      "to": "0x2f925d6512b2bbb00f5a36d8b18e01fcf35f7dc7",
      "contractAddress": null
    },
    {
      "status": "0x1",
      "cumulativeGasUsed": "0xe66a",
      "logs": [
        {
          "address": "0x2f925d6512b2bbb00f5a36d8b18e01fcf35f7dc7",
          "topics": [
            "0x128b13f5a7f3d4a8f9ebafb4d8c23d5f6f5a287c83c1e81e79b1f80c1708a5fb",
            "0x0000000000000000000000000000000000000000000000000000000000000006"
          ],
          "data": "0x0000000000000000000000000000000000000000000000000000000000000008",
          "blockHash": "0xfab6f3783614efabc25059c06ebc3bb83daa42aea792176bd585bb6f1bfdba40",
          "blockNumber": "0x3a4af9d",
          "transactionHash": "0xc7541b44ff4ee272091c4591cea610f644cc2f7fd9d4b8fad825206143d9da6b",
          "transactionIndex": "0x0",
          "logIndex": "0x0",
          "removed": false
        }
      ],
      "logsBloom": "0x00000000000000000000000000000000000000000000000000000000000000000000000000000000000000000000000000000000000400000000000000000000000000000000000000000000000000000000000000000000000000000000000000000000000000000000000000000000000000000000000009000000000000000000000400000000000000000000000000000000000000000000000000000000000000000000001000000000000000000000000000000000000000080000004000000000000000000000000000004000000000000000000000000000000000000000000000000000000000000000000000000000000000000000000000000000",
      "type": "0x0",
      "transactionHash": "0xc7541b44ff4ee272091c4591cea610f644cc2f7fd9d4b8fad825206143d9da6b",
      "transactionIndex": "0x0",
      "blockHash": "0xfab6f3783614efabc25059c06ebc3bb83daa42aea792176bd585bb6f1bfdba40",
      "blockNumber": "0x3a4af9d",
      "gasUsed": "0xe66a",
      "effectiveGasPrice": "0x5f5e100",
      "from": "0xc3ca11bd8e131471904dced927b3fb7edb453179",
      "to": "0x2f925d6512b2bbb00f5a36d8b18e01fcf35f7dc7",
      "contractAddress": null
    },
    {
      "status": "0x1",
      "cumulativeGasUsed": "0x19ba4",
      "logs": [
        {
          "address": "0x2f925d6512b2bbb00f5a36d8b18e01fcf35f7dc7",
          "topics": [
            "0x128b13f5a7f3d4a8f9ebafb4d8c23d5f6f5a287c83c1e81e79b1f80c1708a5fb",
            "0x0000000000000000000000000000000000000000000000000000000000000007"
          ],
          "data": "0x0000000000000000000000000000000000000000000000000000000000000004",
          "blockHash": "0xb067362e53ae566c981e88e969c6091e7faf63cd029e9a7803affb853c320985",
          "blockNumber": "0x3a4afa1",
          "transactionHash": "0xba169b952649fe6a031fb8e2014904aff0370b6ec8650c7e437e54975bad697b",
          "transactionIndex": "0x1",
          "logIndex": "0x1",
          "removed": false
        }
      ],
      "logsBloom": "0x00000000000000000000000000000000000000000000000000000000000000000000000000000000000000000000000000001000000000000000000000000000000020000000000000000000000000000000000000000000000000000000000000000000000000000000000000000000000000000000000009000000000000000000000400000000000000000000000000000000000000000000000000000000000000000000001000000000000000000000000000000000000000000000004000000000000000000000000000004000000000000000000000000100000000000000000000000000000000000000000000000000000000000000000000000000",
      "type": "0x0",
      "transactionHash": "0xba169b952649fe6a031fb8e2014904aff0370b6ec8650c7e437e54975bad697b",
      "transactionIndex": "0x1",
      "blockHash": "0xb067362e53ae566c981e88e969c6091e7faf63cd029e9a7803affb853c320985",
      "blockNumber": "0x3a4afa1",
      "gasUsed": "0xe66a",
      "effectiveGasPrice": "0x5f5e100",
      "from": "0xc3ca11bd8e131471904dced927b3fb7edb453179",
      "to": "0x2f925d6512b2bbb00f5a36d8b18e01fcf35f7dc7",
      "contractAddress": null
    },
    {
      "status": "0x1",
      "cumulativeGasUsed": "0x15e96",
      "logs": [
        {
          "address": "0x2f925d6512b2bbb00f5a36d8b18e01fcf35f7dc7",
          "topics": [
            "0x128b13f5a7f3d4a8f9ebafb4d8c23d5f6f5a287c83c1e81e79b1f80c1708a5fb",
            "0x0000000000000000000000000000000000000000000000000000000000000008"
          ],
          "data": "0x000000000000000000000000000000000000000000000000000000000000000a",
          "blockHash": "0xdcded2cc59f9202f04544412d6f64778f237144bf9af52ea98b3667a08b00c59",
          "blockNumber": "0x3a4afa6",
          "transactionHash": "0xaf378c64ff620eb7bd15246ce2ffca5e5ee7089da6f98e8f5f18c3ee77d49730",
          "transactionIndex": "0x1",
          "logIndex": "0x0",
          "removed": false
        }
      ],
      "logsBloom": "0x00000000000000000000000000000000000000000000000000000000000000000000000000000000000000000000000000000000000080000000000000000000000000000000000000000000000000000000000000000000000000000000000000000000000000000000000000000000000000000000000009000000000000000080000400000000000000000000000000000000000000000000000000000000000000000000001000000000000000000000000000000000000000000000004040000000000000000000000000004000000000000000000000000000000000000000000000000000000000000000000000000000000000000000000000000000",
      "type": "0x0",
      "transactionHash": "0xaf378c64ff620eb7bd15246ce2ffca5e5ee7089da6f98e8f5f18c3ee77d49730",
      "transactionIndex": "0x1",
      "blockHash": "0xdcded2cc59f9202f04544412d6f64778f237144bf9af52ea98b3667a08b00c59",
      "blockNumber": "0x3a4afa6",
      "gasUsed": "0xe66a",
      "effectiveGasPrice": "0x5f5e100",
      "from": "0xc3ca11bd8e131471904dced927b3fb7edb453179",
      "to": "0x2f925d6512b2bbb00f5a36d8b18e01fcf35f7dc7",
      "contractAddress": null
    },
    {
      "status": "0x1",
      "cumulativeGasUsed": "0x15ede",
      "logs": [
        {
          "address": "0x2f925d6512b2bbb00f5a36d8b18e01fcf35f7dc7",
          "topics": [
            "0x128b13f5a7f3d4a8f9ebafb4d8c23d5f6f5a287c83c1e81e79b1f80c1708a5fb",
            "0x0000000000000000000000000000000000000000000000000000000000000009"
          ],
          "data": "0x0000000000000000000000000000000000000000000000000000000000000008",
          "blockHash": "0xb4dc222c9edfdd766ddcadad965295d01bdb04435d98e60fa658ce2490444c79",
          "blockNumber": "0x3a4afaa",
          "transactionHash": "0xef11fc73499ecf2379cf474be7dc91dd4de4f16a63d1f3a2f4c4d07c25a502e8",
          "transactionIndex": "0x1",
          "logIndex": "0x0",
          "removed": false
        }
      ],
      "logsBloom": "0x00000000000000000000000000000000000000000000000000000000000000000000000000000000000000000000000000000000000000000000000000200000000000000000000000000000000000000000000000000000000000000000000000000000000000000000000000000000000000000000000009000000000000000000000400000000000000000000000000001000000000000000000000000000000000000000001000000000000000000000000000000000000000000000004000000000000000000000000000004000000000000000000000000000000000000000000000000000000000000000000000000000000000000000000000800000",
      "type": "0x0",
      "transactionHash": "0xef11fc73499ecf2379cf474be7dc91dd4de4f16a63d1f3a2f4c4d07c25a502e8",
      "transactionIndex": "0x1",
      "blockHash": "0xb4dc222c9edfdd766ddcadad965295d01bdb04435d98e60fa658ce2490444c79",
      "blockNumber": "0x3a4afaa",
      "gasUsed": "0xe66a",
      "effectiveGasPrice": "0x5f5e100",
      "from": "0xc3ca11bd8e131471904dced927b3fb7edb453179",
      "to": "0x2f925d6512b2bbb00f5a36d8b18e01fcf35f7dc7",
      "contractAddress": null
    },
    {
      "status": "0x1",
      "cumulativeGasUsed": "0x13872",
      "logs": [
        {
          "address": "0x2f925d6512b2bbb00f5a36d8b18e01fcf35f7dc7",
          "topics": [
            "0x128b13f5a7f3d4a8f9ebafb4d8c23d5f6f5a287c83c1e81e79b1f80c1708a5fb",
            "0x000000000000000000000000000000000000000000000000000000000000000a"
          ],
          "data": "0x0000000000000000000000000000000000000000000000000000000000000008",
          "blockHash": "0xcec3b3abc98aaaa46ac651eda5a11d6f55392f7ca012f9192156e10a48f87704",
          "blockNumber": "0x3a4afaf",
          "transactionHash": "0x4ea62b6d10be43343d2faf0fbf48c0603b26126e56d605f9b1f303ee2900bd00",
          "transactionIndex": "0x1",
          "logIndex": "0x0",
          "removed": false
        }
      ],
      "logsBloom": "0x00000000000000000000000000000000000000000000000000000000000000000000000000000000000000000000000000000000040000000020000000000000000000000000000000000000000000000000000000000000000000000000000000000000000000000000000000000000000000000000000009000000000000000000000400000000010000000000000000000000000000000000000000000000000000000000001000000000000000000000000000000000000000000000004000000000000000000000000000004000000000000000000000000000000000000000000000000000000000000000000000000000000000000000000000000000",
      "type": "0x0",
      "transactionHash": "0x4ea62b6d10be43343d2faf0fbf48c0603b26126e56d605f9b1f303ee2900bd00",
      "transactionIndex": "0x1",
      "blockHash": "0xcec3b3abc98aaaa46ac651eda5a11d6f55392f7ca012f9192156e10a48f87704",
      "blockNumber": "0x3a4afaf",
      "gasUsed": "0xe66a",
      "effectiveGasPrice": "0x5f5e100",
      "from": "0xc3ca11bd8e131471904dced927b3fb7edb453179",
      "to": "0x2f925d6512b2bbb00f5a36d8b18e01fcf35f7dc7",
      "contractAddress": null
    },
    {
      "status": "0x1",
      "cumulativeGasUsed": "0x31f4c",
      "logs": [
        {
          "address": "0x2f925d6512b2bbb00f5a36d8b18e01fcf35f7dc7",
          "topics": [
            "0x128b13f5a7f3d4a8f9ebafb4d8c23d5f6f5a287c83c1e81e79b1f80c1708a5fb",
            "0x000000000000000000000000000000000000000000000000000000000000000b"
          ],
          "data": "0x0000000000000000000000000000000000000000000000000000000000000008",
          "blockHash": "0x6b1e87746323f1f24546198d927e7f3b86daeffc5f28e2da785d0682ef8c2631",
          "blockNumber": "0x3a4afb3",
          "transactionHash": "0xba3f539583e7e4f664e15faf371c8a21e09c16444795b38f84b8008be0fe860e",
          "transactionIndex": "0x3",
          "logIndex": "0x3",
          "removed": false
        }
      ],
      "logsBloom": "0x00000000000000000000004000000000000000000000000000000000000000000000000000000000000000000000000000000000000000000000000000000000000000000000000000000000000000000000000000000000000000000000000000000000000000000000000000000000000000000000000009000000000000000000000400000000000000000000000000000000000000000000000000000000000000000000001000000000000000000000000000000000000000000000004000000000000000000000000000004000002000000000000000000000000000000000000000000000000000000000000000000000000000040000000000000000",
      "type": "0x0",
      "transactionHash": "0xba3f539583e7e4f664e15faf371c8a21e09c16444795b38f84b8008be0fe860e",
      "transactionIndex": "0x3",
      "blockHash": "0x6b1e87746323f1f24546198d927e7f3b86daeffc5f28e2da785d0682ef8c2631",
      "blockNumber": "0x3a4afb3",
      "gasUsed": "0xe66a",
      "effectiveGasPrice": "0x5f5e100",
      "from": "0xc3ca11bd8e131471904dced927b3fb7edb453179",
      "to": "0x2f925d6512b2bbb00f5a36d8b18e01fcf35f7dc7",
      "contractAddress": null
    },
    {
      "status": "0x1",
      "cumulativeGasUsed": "0xe66a",
      "logs": [
        {
          "address": "0x2f925d6512b2bbb00f5a36d8b18e01fcf35f7dc7",
          "topics": [
            "0x128b13f5a7f3d4a8f9ebafb4d8c23d5f6f5a287c83c1e81e79b1f80c1708a5fb",
            "0x000000000000000000000000000000000000000000000000000000000000000c"
          ],
          "data": "0x0000000000000000000000000000000000000000000000000000000000000014",
          "blockHash": "0x7cd49611c1c11c566771f8aee42fa5bf72e1f16649f68cff3abbf83bda681988",
          "blockNumber": "0x3a4afb8",
          "transactionHash": "0x93f61881aa7b826eac1adbf8991daa26c499d0aefb6809209b7a613fef95c700",
          "transactionIndex": "0x0",
          "logIndex": "0x0",
          "removed": false
        }
      ],
      "logsBloom": "0x00000000000000000000000000000000000002000000000000000000000000000000000000000200000000000000000000000000000000000000000000000000000000000000000000000000000000000000000000000000000000000000000000000000000000000000000000000000000000000000000009000000000000000000000400000000000000000000000000000000000000000000000000000000000000000000001000000000000000000000000000000000000000000000004000000000000000000000000000004000000000000000000000000000000000200000000000000000000000000000000000000000000000000000000000000000",
      "type": "0x0",
      "transactionHash": "0x93f61881aa7b826eac1adbf8991daa26c499d0aefb6809209b7a613fef95c700",
      "transactionIndex": "0x0",
      "blockHash": "0x7cd49611c1c11c566771f8aee42fa5bf72e1f16649f68cff3abbf83bda681988",
      "blockNumber": "0x3a4afb8",
      "gasUsed": "0xe66a",
      "effectiveGasPrice": "0x5f5e100",
      "from": "0xc3ca11bd8e131471904dced927b3fb7edb453179",
      "to": "0x2f925d6512b2bbb00f5a36d8b18e01fcf35f7dc7",
      "contractAddress": null
    },
    {
      "status": "0x1",
      "cumulativeGasUsed": "0x6e9e05",
      "logs": [
        {
          "address": "0x2f925d6512b2bbb00f5a36d8b18e01fcf35f7dc7",
          "topics": [
            "0x128b13f5a7f3d4a8f9ebafb4d8c23d5f6f5a287c83c1e81e79b1f80c1708a5fb",
            "0x000000000000000000000000000000000000000000000000000000000000000d"
          ],
          "data": "0x0000000000000000000000000000000000000000000000000000000000000008",
          "blockHash": "0xc75592c01278e40089b742ea3f55cc473483ffbe9e3e89b2ca895d7bd4651a36",
          "blockNumber": "0x3a4afbc",
          "transactionHash": "0x10670d389007ce4b836901ce46c07ffb2eedb50e98339e6be6204260571238bf",
          "transactionIndex": "0x3",
          "logIndex": "0xa",
          "removed": false
        }
      ],
      "logsBloom": "0x00000000000000000040000000000000000000000000000000000000000000000000000000000000000000000000000000000000000000000000000000000000000000000000000000000000000000000002000000000000000000000000000000000000000000000000000000000000000000000000000009000000000000000000000400000000000000000000000000000000000000000000000000000000000000000000001000000000000000000000000000000000000000000000004000000000000000000000000000004000000000000000000000000000000000020000000000000000000000000000000000000000000000000000000000000000",
      "type": "0x0",
      "transactionHash": "0x10670d389007ce4b836901ce46c07ffb2eedb50e98339e6be6204260571238bf",
      "transactionIndex": "0x3",
      "blockHash": "0xc75592c01278e40089b742ea3f55cc473483ffbe9e3e89b2ca895d7bd4651a36",
      "blockNumber": "0x3a4afbc",
      "gasUsed": "0xe66a",
      "effectiveGasPrice": "0x5f5e100",
      "from": "0xc3ca11bd8e131471904dced927b3fb7edb453179",
      "to": "0x2f925d6512b2bbb00f5a36d8b18e01fcf35f7dc7",
      "contractAddress": null
    },
    {
      "status": "0x1",
      "cumulativeGasUsed": "0x15ede",
      "logs": [
        {
          "address": "0x2f925d6512b2bbb00f5a36d8b18e01fcf35f7dc7",
          "topics": [
            "0x128b13f5a7f3d4a8f9ebafb4d8c23d5f6f5a287c83c1e81e79b1f80c1708a5fb",
            "0x000000000000000000000000000000000000000000000000000000000000000e"
          ],
          "data": "0x0000000000000000000000000000000000000000000000000000000000000004",
          "blockHash": "0xf50267e034ca9d572125734b4cf56bb3ecccbd7bf0cb3c12248d6d6fd2e1c662",
          "blockNumber": "0x3a4afc1",
          "transactionHash": "0xddac928a93bbc32f55e25bb18e32d2379608dce7cdaca5c2cc959165f94d861c",
          "transactionIndex": "0x1",
          "logIndex": "0x0",
          "removed": false
        }
      ],
      "logsBloom": "0x00000000000000000000000000000000000000000000000000000000000000000000000000000000000000000000000000000000000000000000000000000000000000000000000800000000000000000000000000000000000000000000000000000000000000000000000000000000000000000000000009000000000000000000000400000000000000000000000008000000000000000000000000000000000000000000001000000000000000000000000000000020000000000000004000000000000000000000000000004000000000000000000000000000000000000000000000000000000000000000000000000000000000000000000000000000",
      "type": "0x0",
      "transactionHash": "0xddac928a93bbc32f55e25bb18e32d2379608dce7cdaca5c2cc959165f94d861c",
      "transactionIndex": "0x1",
      "blockHash": "0xf50267e034ca9d572125734b4cf56bb3ecccbd7bf0cb3c12248d6d6fd2e1c662",
      "blockNumber": "0x3a4afc1",
      "gasUsed": "0xe66a",
      "effectiveGasPrice": "0x5f5e100",
      "from": "0xc3ca11bd8e131471904dced927b3fb7edb453179",
      "to": "0x2f925d6512b2bbb00f5a36d8b18e01fcf35f7dc7",
      "contractAddress": null
    },
    {
      "status": "0x1",
      "cumulativeGasUsed": "0x1db20",
      "logs": [
        {
          "address": "0x2f925d6512b2bbb00f5a36d8b18e01fcf35f7dc7",
          "topics": [
            "0x128b13f5a7f3d4a8f9ebafb4d8c23d5f6f5a287c83c1e81e79b1f80c1708a5fb",
            "0x000000000000000000000000000000000000000000000000000000000000000f"
          ],
          "data": "0x0000000000000000000000000000000000000000000000000000000000000004",
          "blockHash": "0xc55912bb8db72b5566865994a0da9b95fadd8d5e9adf863cbf6b9119a0510a3e",
          "blockNumber": "0x3a4afc5",
          "transactionHash": "0xeef65db6d288765f42ffb36c33f0af079a8807411e80bdf6b4f62e446435da55",
          "transactionIndex": "0x2",
          "logIndex": "0x0",
          "removed": false
        }
      ],
      "logsBloom": "0x00000000000000000000000000000000000000000000000000000000000000000000000000000000000000000000000000000000000000000000000000000000000000000000000000000000000000000000000000000000000000000002000000000000000000000000000000000000000000000000000009000000000000000000000400000800000000000000000000000000000000000000000000000000000000000000001000000000000000000000000000000000000000000000004000000000000000000000000000004000000000000000000000000000000000000000000200000000000000000000000000000000000000000000000000000000",
      "type": "0x0",
      "transactionHash": "0xeef65db6d288765f42ffb36c33f0af079a8807411e80bdf6b4f62e446435da55",
      "transactionIndex": "0x2",
      "blockHash": "0xc55912bb8db72b5566865994a0da9b95fadd8d5e9adf863cbf6b9119a0510a3e",
      "blockNumber": "0x3a4afc5",
      "gasUsed": "0xe66a",
      "effectiveGasPrice": "0x5f5e100",
      "from": "0xc3ca11bd8e131471904dced927b3fb7edb453179",
      "to": "0x2f925d6512b2bbb00f5a36d8b18e01fcf35f7dc7",
      "contractAddress": null
    },
    {
      "status": "0x1",
      "cumulativeGasUsed": "0xe66a",
      "logs": [
        {
          "address": "0x2f925d6512b2bbb00f5a36d8b18e01fcf35f7dc7",
          "topics": [
            "0x128b13f5a7f3d4a8f9ebafb4d8c23d5f6f5a287c83c1e81e79b1f80c1708a5fb",
            "0x0000000000000000000000000000000000000000000000000000000000000010"
          ],
          "data": "0x0000000000000000000000000000000000000000000000000000000000000004",
          "blockHash": "0x854eaabcaf4880b628ff12b5f299cd4d7054e78e937401b921463f1114f295f2",
          "blockNumber": "0x3a4afca",
          "transactionHash": "0x48f2a42eea92ac72791bd08fe24da43fdb2afe717ee2ee9a465aa04d4df8f953",
          "transactionIndex": "0x0",
          "logIndex": "0x0",
          "removed": false
        }
      ],
      "logsBloom": "0x00000000100000000000000000000000000000000000000000000000000000000000000000000000000000000000000000000000000000000000000000000000000000000000000000000000000000000000000000000000000000000000000000000000000000000000000000000000000000000000000009000000040000000000000400000000000000000000000000000100000000000000000000000000000000000000001000000000000000000000000000000000000000000000004000000000000000000000000000004000000000000000000000000000000000000000000000000000000000000000000000000000000000000000000000000000",
      "type": "0x0",
      "transactionHash": "0x48f2a42eea92ac72791bd08fe24da43fdb2afe717ee2ee9a465aa04d4df8f953",
      "transactionIndex": "0x0",
      "blockHash": "0x854eaabcaf4880b628ff12b5f299cd4d7054e78e937401b921463f1114f295f2",
      "blockNumber": "0x3a4afca",
      "gasUsed": "0xe66a",
      "effectiveGasPrice": "0x5f5e100",
      "from": "0xc3ca11bd8e131471904dced927b3fb7edb453179",
      "to": "0x2f925d6512b2bbb00f5a36d8b18e01fcf35f7dc7",
      "contractAddress": null
    },
    {
      "status": "0x1",
      "cumulativeGasUsed": "0xe66a",
      "logs": [
        {
          "address": "0x2f925d6512b2bbb00f5a36d8b18e01fcf35f7dc7",
          "topics": [
            "0x128b13f5a7f3d4a8f9ebafb4d8c23d5f6f5a287c83c1e81e79b1f80c1708a5fb",
            "0x0000000000000000000000000000000000000000000000000000000000000011"
          ],
          "data": "0x0000000000000000000000000000000000000000000000000000000000000004",
          "blockHash": "0xc4f6abdf936cbe53c2154267251e64c524ad05a2286895816c81bc01dc5c0a42",
          "blockNumber": "0x3a4afce",
          "transactionHash": "0x43225b0da89babdbf8aa54298719e10fdda4d41ca1b9a9e24474b5550420b5d9",
          "transactionIndex": "0x0",
          "logIndex": "0x0",
          "removed": false
        }
      ],
      "logsBloom": "0x00000000000000000000000000000000000000000000000000000000000000000000000000000000000000000000000000000000000000000000000000000000000000000000000000000000000000000000000000000000000000000000000000000000000000000000000000000000000000004000000009000000000000000000000400000000000000000000000000000000000000000000000000000000000000000000001000000000000000000000000000000000000000000400004000001000000000000000000000004000000000000000000000000000000000000000000000000000000000000000000000000000000000000000000000000000",
      "type": "0x0",
      "transactionHash": "0x43225b0da89babdbf8aa54298719e10fdda4d41ca1b9a9e24474b5550420b5d9",
      "transactionIndex": "0x0",
      "blockHash": "0xc4f6abdf936cbe53c2154267251e64c524ad05a2286895816c81bc01dc5c0a42",
      "blockNumber": "0x3a4afce",
      "gasUsed": "0xe66a",
      "effectiveGasPrice": "0x5f5e100",
      "from": "0xc3ca11bd8e131471904dced927b3fb7edb453179",
      "to": "0x2f925d6512b2bbb00f5a36d8b18e01fcf35f7dc7",
      "contractAddress": null
    },
    {
      "status": "0x1",
      "cumulativeGasUsed": "0x43e92",
      "logs": [
        {
          "address": "0x2f925d6512b2bbb00f5a36d8b18e01fcf35f7dc7",
          "topics": [
            "0x128b13f5a7f3d4a8f9ebafb4d8c23d5f6f5a287c83c1e81e79b1f80c1708a5fb",
            "0x0000000000000000000000000000000000000000000000000000000000000012"
          ],
          "data": "0x0000000000000000000000000000000000000000000000000000000000000002",
          "blockHash": "0x3eb64ec941571f1c0a121d8bfd5f0621ecdd57b2c85116f589118d740e21d639",
          "blockNumber": "0x3a4afd3",
          "transactionHash": "0x81c1b3f0f0110ce2c1b80c8b3b4bc761a15ea92fce316f94ca1979362845d0f5",
          "transactionIndex": "0x4",
          "logIndex": "0x5",
          "removed": false
        }
      ],
      "logsBloom": "0x00000000000000000000000000000000000000000000000000000000000000000000000000000000000000000000000000000000000000000000000000000000000000000000000000000000000000000000000000000000000000000000000000000000000000000000000000000000000000000000000009000000000000000000000400000000000000000000040000000000000000000000000000000000000000000000001000000000000000000000000000000040000000000000004000000000000000000400000000004000000000000000000000000000000000000000000000000000000000000000000000000000000000000000000000000000",
      "type": "0x0",
      "transactionHash": "0x81c1b3f0f0110ce2c1b80c8b3b4bc761a15ea92fce316f94ca1979362845d0f5",
      "transactionIndex": "0x4",
      "blockHash": "0x3eb64ec941571f1c0a121d8bfd5f0621ecdd57b2c85116f589118d740e21d639",
      "blockNumber": "0x3a4afd3",
      "gasUsed": "0xe66a",
      "effectiveGasPrice": "0x5f5e100",
      "from": "0xc3ca11bd8e131471904dced927b3fb7edb453179",
      "to": "0x2f925d6512b2bbb00f5a36d8b18e01fcf35f7dc7",
      "contractAddress": null
    },
    {
      "status": "0x1",
      "cumulativeGasUsed": "0x43042",
      "logs": [
        {
          "address": "0x2f925d6512b2bbb00f5a36d8b18e01fcf35f7dc7",
          "topics": [
            "0x128b13f5a7f3d4a8f9ebafb4d8c23d5f6f5a287c83c1e81e79b1f80c1708a5fb",
            "0x0000000000000000000000000000000000000000000000000000000000000013"
          ],
          "data": "0x0000000000000000000000000000000000000000000000000000000000000014",
          "blockHash": "0xef297ad5ba8b5a0baacc8a73171db8058ecab3a9a92c0866d0f7c5c205fde6bd",
          "blockNumber": "0x3a4afd7",
          "transactionHash": "0x1cc22334871eddd046289f85e879e1e66a64e96118421939862daf97fe1ce3ae",
          "transactionIndex": "0x2",
          "logIndex": "0x0",
          "removed": false
        }
      ],
      "logsBloom": "0x20000000000000000000000000800000000000000000000000000000000000000000000040000000000000000000000000000000000000000000000000000000000000000000000000000000000000000000000000000000000000000000000000000000000000000000000000000000000000000000000009000000000000000000000400000000000000000000000000000000000000000000000000000000000000000000001000000000000000000000000000000000000000000000004000000000000000000000000000004000000000000000000000000000000000000000000000000000000000000000000000000000000000000000000000000000",
      "type": "0x0",
      "transactionHash": "0x1cc22334871eddd046289f85e879e1e66a64e96118421939862daf97fe1ce3ae",
      "transactionIndex": "0x2",
      "blockHash": "0xef297ad5ba8b5a0baacc8a73171db8058ecab3a9a92c0866d0f7c5c205fde6bd",
      "blockNumber": "0x3a4afd7",
      "gasUsed": "0xe66a",
      "effectiveGasPrice": "0x5f5e100",
      "from": "0xc3ca11bd8e131471904dced927b3fb7edb453179",
      "to": "0x2f925d6512b2bbb00f5a36d8b18e01fcf35f7dc7",
      "contractAddress": null
    },
    {
      "status": "0x1",
      "cumulativeGasUsed": "0x162d0",
      "logs": [
        {
          "address": "0x2f925d6512b2bbb00f5a36d8b18e01fcf35f7dc7",
          "topics": [
            "0x128b13f5a7f3d4a8f9ebafb4d8c23d5f6f5a287c83c1e81e79b1f80c1708a5fb",
            "0x0000000000000000000000000000000000000000000000000000000000000014"
          ],
          "data": "0x0000000000000000000000000000000000000000000000000000000000000002",
          "blockHash": "0x543333191b0a28fffe4865365d4f81f61ef31f8e33cbb1ae8493927272ff5cb0",
          "blockNumber": "0x3a4afdc",
          "transactionHash": "0xcab7f0050b325fe7bcaa47a6d3f360ea1c1195991dbc8821175760eeaf2a0549",
          "transactionIndex": "0x1",
          "logIndex": "0x0",
          "removed": false
        }
      ],
      "logsBloom": "0x00000000000000000000000000000000000000000000000000000000000000000000000000000000000000000000000000002000000000000000000000000000000000000000000000000000000000000000000000000000000000000000000000000000000000000000000000000000000000000000000009000000000000000000000400000000000000000000000000000000000400000000000000000000000000000000001020000000000000000000000000000000000000000000004000000000000000000000000000004000000000000000000000000000000000000000000000000000000000000000000000000000000000000000000000000000",
      "type": "0x0",
      "transactionHash": "0xcab7f0050b325fe7bcaa47a6d3f360ea1c1195991dbc8821175760eeaf2a0549",
      "transactionIndex": "0x1",
      "blockHash": "0x543333191b0a28fffe4865365d4f81f61ef31f8e33cbb1ae8493927272ff5cb0",
      "blockNumber": "0x3a4afdc",
      "gasUsed": "0xe66a",
      "effectiveGasPrice": "0x5f5e100",
      "from": "0xc3ca11bd8e131471904dced927b3fb7edb453179",
      "to": "0x2f925d6512b2bbb00f5a36d8b18e01fcf35f7dc7",
      "contractAddress": null
    },
    {
      "status": "0x1",
      "cumulativeGasUsed": "0x15ede",
      "logs": [
        {
          "address": "0x2f925d6512b2bbb00f5a36d8b18e01fcf35f7dc7",
          "topics": [
            "0x128b13f5a7f3d4a8f9ebafb4d8c23d5f6f5a287c83c1e81e79b1f80c1708a5fb",
            "0x0000000000000000000000000000000000000000000000000000000000000015"
          ],
          "data": "0x0000000000000000000000000000000000000000000000000000000000000001",
          "blockHash": "0xb57ccbef9152b5afe5be01cf0c67e3741ca8181abd862702045a2f10c436f616",
          "blockNumber": "0x3a4afe0",
          "transactionHash": "0xe17dfe21492c39a4b7cbf0246672e15ede556b78a26243f12d6ab36116f3b2d3",
          "transactionIndex": "0x1",
          "logIndex": "0x0",
          "removed": false
        }
      ],
      "logsBloom": "0x00000000000000000000000000000000000000000000000000000000000000000000000000000000000000000000000000000000000000000000000000000000001000000000000000000000000000000000000000000000000000000000000000000000000000000000000000000000000000000000000009000000000000000000000400000000000000000000000000000000000000000000000000000000000000000000001000000000010000000000000000000000000000000000004000000000000000000000000000004000000000000000000000000000000000002000000000000000000000000000000000000000000000000000000000000000",
      "type": "0x0",
      "transactionHash": "0xe17dfe21492c39a4b7cbf0246672e15ede556b78a26243f12d6ab36116f3b2d3",
      "transactionIndex": "0x1",
      "blockHash": "0xb57ccbef9152b5afe5be01cf0c67e3741ca8181abd862702045a2f10c436f616",
      "blockNumber": "0x3a4afe0",
      "gasUsed": "0xe66a",
      "effectiveGasPrice": "0x5f5e100",
      "from": "0xc3ca11bd8e131471904dced927b3fb7edb453179",
      "to": "0x2f925d6512b2bbb00f5a36d8b18e01fcf35f7dc7",
      "contractAddress": null
    },
    {
      "status": "0x1",
      "cumulativeGasUsed": "0x3ca1c",
      "logs": [
        {
          "address": "0x2f925d6512b2bbb00f5a36d8b18e01fcf35f7dc7",
          "topics": [
            "0x128b13f5a7f3d4a8f9ebafb4d8c23d5f6f5a287c83c1e81e79b1f80c1708a5fb",
            "0x0000000000000000000000000000000000000000000000000000000000000016"
          ],
          "data": "0x0000000000000000000000000000000000000000000000000000000000000001",
          "blockHash": "0x217f9356ec9551f351cf793b390f5a839b385f647eec6564aa2112c1fdea26ad",
          "blockNumber": "0x3a4afe4",
          "transactionHash": "0x5b91a8e528fdd7d0299b2e2af81f80d408728ef7690453dde22dd64f377fb7dd",
          "transactionIndex": "0x2",
          "logIndex": "0x3",
          "removed": false
        }
      ],
      "logsBloom": "0x00000000000000000000000000000000000000000000000000000000000000000000000000000000000000000000000000000000000000000000000000000000000000000000000800000000000000000000000000000000000000000000000000000000000000000000000000000000200000000000000009000000000000000000000400000000000000000000000000000000000000000000000000000000000000000000001000000000000000000000000000000000000000000000004000000000000000000000000000004000000000000000000000000000000000000000000000000000000000000000000000000000000000000008000000000000",
      "type": "0x0",
      "transactionHash": "0x5b91a8e528fdd7d0299b2e2af81f80d408728ef7690453dde22dd64f377fb7dd",
      "transactionIndex": "0x2",
      "blockHash": "0x217f9356ec9551f351cf793b390f5a839b385f647eec6564aa2112c1fdea26ad",
      "blockNumber": "0x3a4afe4",
      "gasUsed": "0xe66a",
      "effectiveGasPrice": "0x5f5e100",
      "from": "0xc3ca11bd8e131471904dced927b3fb7edb453179",
      "to": "0x2f925d6512b2bbb00f5a36d8b18e01fcf35f7dc7",
      "contractAddress": null
    },
    {
      "status": "0x1",
      "cumulativeGasUsed": "0x15ede",
      "logs": [
        {
          "address": "0x2f925d6512b2bbb00f5a36d8b18e01fcf35f7dc7",
          "topics": [
            "0x128b13f5a7f3d4a8f9ebafb4d8c23d5f6f5a287c83c1e81e79b1f80c1708a5fb",
            "0x0000000000000000000000000000000000000000000000000000000000000017"
          ],
          "data": "0x0000000000000000000000000000000000000000000000000000000000000005",
          "blockHash": "0x8cc45f9c3b896ee44a6d90b0a608c19fac76d5dee853634225658ac205324958",
          "blockNumber": "0x3a4afe8",
          "transactionHash": "0x2ebe18bd723c0d739ea7c569d0ee9036448063cb494ec3a5519a4c0c232e6982",
          "transactionIndex": "0x1",
          "logIndex": "0x0",
          "removed": false
        }
      ],
      "logsBloom": "0x00000000000000000000000000000000000000000000000000000000000000000000000000000000000000000000000000001000000000000000001000000000000000000000000000000000000000000000000000000000000000000000000000000000000000000000000000000000000000000000000009000000000000000000000400000000000000000000000000000000000000000000000000000000000000000000001000000000000000000000000000000000000000000000004000000000000000000000000000004000000000000000000000000000000000000000000000000000000000000000000000000000000000000000000000080000",
      "type": "0x0",
      "transactionHash": "0x2ebe18bd723c0d739ea7c569d0ee9036448063cb494ec3a5519a4c0c232e6982",
      "transactionIndex": "0x1",
      "blockHash": "0x8cc45f9c3b896ee44a6d90b0a608c19fac76d5dee853634225658ac205324958",
      "blockNumber": "0x3a4afe8",
      "gasUsed": "0xe66a",
      "effectiveGasPrice": "0x5f5e100",
      "from": "0xc3ca11bd8e131471904dced927b3fb7edb453179",
      "to": "0x2f925d6512b2bbb00f5a36d8b18e01fcf35f7dc7",
      "contractAddress": null
    },
    {
      "status": "0x1",
      "cumulativeGasUsed": "0x13872",
      "logs": [
        {
          "address": "0x2f925d6512b2bbb00f5a36d8b18e01fcf35f7dc7",
          "topics": [
            "0x128b13f5a7f3d4a8f9ebafb4d8c23d5f6f5a287c83c1e81e79b1f80c1708a5fb",
            "0x0000000000000000000000000000000000000000000000000000000000000018"
          ],
          "data": "0x0000000000000000000000000000000000000000000000000000000000000005",
          "blockHash": "0x600b32c615034b9d9c33be2aaa01143c1873f1655300a9e32b935a457999c6f9",
          "blockNumber": "0x3a4afed",
          "transactionHash": "0x56fba5da2cfa7cbe914e67950424a5ed65a0f6853c8ee34b49bc7f970a9925a3",
          "transactionIndex": "0x1",
          "logIndex": "0x0",
          "removed": false
        }
      ],
      "logsBloom": "0x00000000000000000000000000000000000000000000000000000000000000000000000000000000000000000000000000000000000000000000000000000000000000000000000000000000000000000040000000000000000000000000000000000000000000000000000000000000000000000000000009000000000000000000000400000000000000000000000000000000000000000000000000000000000000000000001000000000000000000000000000000000000000000000004000100000000000000000000000004000000000000000000020000000000000000000000000000000000000000000000000000000000000000000000000000000",
      "type": "0x0",
      "transactionHash": "0x56fba5da2cfa7cbe914e67950424a5ed65a0f6853c8ee34b49bc7f970a9925a3",
      "transactionIndex": "0x1",
      "blockHash": "0x600b32c615034b9d9c33be2aaa01143c1873f1655300a9e32b935a457999c6f9",
      "blockNumber": "0x3a4afed",
      "gasUsed": "0xe66a",
      "effectiveGasPrice": "0x5f5e100",
      "from": "0xc3ca11bd8e131471904dced927b3fb7edb453179",
      "to": "0x2f925d6512b2bbb00f5a36d8b18e01fcf35f7dc7",
      "contractAddress": null
    },
    {
      "status": "0x1",
      "cumulativeGasUsed": "0xe66a",
      "logs": [
        {
          "address": "0x2f925d6512b2bbb00f5a36d8b18e01fcf35f7dc7",
          "topics": [
            "0x128b13f5a7f3d4a8f9ebafb4d8c23d5f6f5a287c83c1e81e79b1f80c1708a5fb",
            "0x0000000000000000000000000000000000000000000000000000000000000019"
          ],
          "data": "0x0000000000000000000000000000000000000000000000000000000000000005",
          "blockHash": "0xaedb8623d6307a06dc1acd070eead3f4c683c222ddc29b51517532d9fb278e44",
          "blockNumber": "0x3a4aff0",
          "transactionHash": "0xdbe30f6ab22d65666173824b579383be2cb0965354d3e28a978c6055723b8e29",
          "transactionIndex": "0x0",
          "logIndex": "0x0",
          "removed": false
        }
      ],
      "logsBloom": "0x00000000000000000000000000000000000000000000000000000000000000000000000000000000000000000000000000000000000000800000000000000000000000000000000000000000000000000000000000000000000000000000000000000000000000000000000000000000000000000000020009000000000000000000000400000000000000000000000000000000000000000000000000000000000000000000001000000000000000000000000000000000000000000000004000000000000000000000000000004000000000000000000000000000000000000000000000000000000000000000000000000000000000000000008000000000",
      "type": "0x0",
      "transactionHash": "0xdbe30f6ab22d65666173824b579383be2cb0965354d3e28a978c6055723b8e29",
      "transactionIndex": "0x0",
      "blockHash": "0xaedb8623d6307a06dc1acd070eead3f4c683c222ddc29b51517532d9fb278e44",
      "blockNumber": "0x3a4aff0",
      "gasUsed": "0xe66a",
      "effectiveGasPrice": "0x5f5e100",
      "from": "0xc3ca11bd8e131471904dced927b3fb7edb453179",
      "to": "0x2f925d6512b2bbb00f5a36d8b18e01fcf35f7dc7",
      "contractAddress": null
    },
    {
      "status": "0x1",
      "cumulativeGasUsed": "0x15e96",
      "logs": [
        {
          "address": "0x2f925d6512b2bbb00f5a36d8b18e01fcf35f7dc7",
          "topics": [
            "0x128b13f5a7f3d4a8f9ebafb4d8c23d5f6f5a287c83c1e81e79b1f80c1708a5fb",
            "0x000000000000000000000000000000000000000000000000000000000000001a"
          ],
          "data": "0x0000000000000000000000000000000000000000000000000000000000000005",
          "blockHash": "0xc9b3ab80c90fef58d2e1bd234ed05d71051d023c133c07cde7935820112aa455",
          "blockNumber": "0x3a4aff5",
          "transactionHash": "0xf741be86f920219acc828b7ff5451ec5ea94fd22cc07cad8730e992e0effefdb",
          "transactionIndex": "0x1",
          "logIndex": "0x0",
          "removed": false
        }
      ],
      "logsBloom": "0x00000000000000000000000000000000000000000000000000000000000000000000000000000000000000000000000000000000000000000000000000000000000000000000000000000000000000001000000000000000000000001000000000000000000000000000000000000000000000000000000009000000000000000000000400000000000000000000000000000000000000000000000000000000000000000000001000000000000000000000000000000000000000000000004000000000000000000000000000004000000000000000000000000000000000000000000000000000000000000000000000000000000004000000000000000000",
      "type": "0x0",
      "transactionHash": "0xf741be86f920219acc828b7ff5451ec5ea94fd22cc07cad8730e992e0effefdb",
      "transactionIndex": "0x1",
      "blockHash": "0xc9b3ab80c90fef58d2e1bd234ed05d71051d023c133c07cde7935820112aa455",
      "blockNumber": "0x3a4aff5",
      "gasUsed": "0xe66a",
      "effectiveGasPrice": "0x5f5e100",
      "from": "0xc3ca11bd8e131471904dced927b3fb7edb453179",
      "to": "0x2f925d6512b2bbb00f5a36d8b18e01fcf35f7dc7",
      "contractAddress": null
    },
    {
      "status": "0x1",
      "cumulativeGasUsed": "0x1fa69",
      "logs": [],
      "logsBloom": "0x00000000000000000000000000000000000000000000000000000000000000000000000000000000000000000000000000000000000000000000000000000000000000000000000000000000000000000000000000000000000000000000000000000000000000000000000000000000000000000000000000000000000000000000000000000000000000000000000000000000000000000000000000000000000000000000000000000000000000000000000000000000000000000000000000000000000000000000000000000000000000000000000000000000000000000000000000000000000000000000000000000000000000000000000000000000",
      "type": "0x0",
      "transactionHash": "0x048543c32c0369d72fddd5a144850be776cdbd350392aee44a4243100aa13396",
      "transactionIndex": "0x2",
      "blockHash": "0x95e826f5d22b7f8c68026b4646c395c11f253f5882a040357c436dc2d336072e",
      "blockNumber": "0x3a4aff9",
      "gasUsed": "0x12fed",
      "effectiveGasPrice": "0x5f5e100",
      "from": "0xc3ca11bd8e131471904dced927b3fb7edb453179",
      "to": "0x9c9e9fad264089339aad66ff3e32d2ba1ddf6951",
      "contractAddress": null
    },
    {
      "status": "0x1",
      "cumulativeGasUsed": "0x330fb",
      "logs": [],
      "logsBloom": "0x00000000000000000000000000000000000000000000000000000000000000000000000000000000000000000000000000000000000000000000000000000000000000000000000000000000000000000000000000000000000000000000000000000000000000000000000000000000000000000000000000000000000000000000000000000000000000000000000000000000000000000000000000000000000000000000000000000000000000000000000000000000000000000000000000000000000000000000000000000000000000000000000000000000000000000000000000000000000000000000000000000000000000000000000000000000",
      "type": "0x0",
      "transactionHash": "0x2da066228167d2f942508414518ba786f4308196293047439163f6df6b037285",
      "transactionIndex": "0x1",
      "blockHash": "0x1ee332689e7a1f7d9208366604062f8dade5c2553a4b7a13ddc1d9166d7816f6",
      "blockNumber": "0x3a4affe",
      "gasUsed": "0xd2bd",
      "effectiveGasPrice": "0x5f5e100",
      "from": "0xc3ca11bd8e131471904dced927b3fb7edb453179",
      "to": "0x9c9e9fad264089339aad66ff3e32d2ba1ddf6951",
      "contractAddress": null
    },
    {
      "status": "0x1",
      "cumulativeGasUsed": "0x779d4",
      "logs": [],
      "logsBloom": "0x00000000000000000000000000000000000000000000000000000000000000000000000000000000000000000000000000000000000000000000000000000000000000000000000000000000000000000000000000000000000000000000000000000000000000000000000000000000000000000000000000000000000000000000000000000000000000000000000000000000000000000000000000000000000000000000000000000000000000000000000000000000000000000000000000000000000000000000000000000000000000000000000000000000000000000000000000000000000000000000000000000000000000000000000000000000",
      "type": "0x0",
      "transactionHash": "0x9a743b32fdf3ebcc2fd247da2b168e60d05a7aba41661f476faeb1826054cb4d",
      "transactionIndex": "0x3",
      "blockHash": "0xd9321d54a919b9bdf97319a0ca6bc364181953b82a5c36121909210218c1fbb3",
      "blockNumber": "0x3a4b002",
      "gasUsed": "0x16933",
      "effectiveGasPrice": "0x5f5e100",
      "from": "0xc3ca11bd8e131471904dced927b3fb7edb453179",
      "to": "0x9c9e9fad264089339aad66ff3e32d2ba1ddf6951",
      "contractAddress": null
    },
    {
      "status": "0x1",
      "cumulativeGasUsed": "0x1486d",
      "logs": [],
      "logsBloom": "0x00000000000000000000000000000000000000000000000000000000000000000000000000000000000000000000000000000000000000000000000000000000000000000000000000000000000000000000000000000000000000000000000000000000000000000000000000000000000000000000000000000000000000000000000000000000000000000000000000000000000000000000000000000000000000000000000000000000000000000000000000000000000000000000000000000000000000000000000000000000000000000000000000000000000000000000000000000000000000000000000000000000000000000000000000000000",
      "type": "0x0",
      "transactionHash": "0xed173867f4664f0337a65f15b09d59ff021bcf03ed6835d0f12bcae3a5866ca5",
      "transactionIndex": "0x1",
      "blockHash": "0xe538c655c54b157a374f215c06e31beca1a3579d9d9ff46beb0c616a7bcacac4",
      "blockNumber": "0x3a4b007",
      "gasUsed": "0xcff9",
      "effectiveGasPrice": "0x5f5e100",
      "from": "0xc3ca11bd8e131471904dced927b3fb7edb453179",
      "to": "0xe912f7c7a59470a6e3f178388106e3caa9e6fbd1",
      "contractAddress": null
    },
    {
      "status": "0x1",
      "cumulativeGasUsed": "0x6badde",
      "logs": [],
      "logsBloom": "0x00000000000000000000000000000000000000000000000000000000000000000000000000000000000000000000000000000000000000000000000000000000000000000000000000000000000000000000000000000000000000000000000000000000000000000000000000000000000000000000000000000000000000000000000000000000000000000000000000000000000000000000000000000000000000000000000000000000000000000000000000000000000000000000000000000000000000000000000000000000000000000000000000000000000000000000000000000000000000000000000000000000000000000000000000000000",
      "type": "0x0",
      "transactionHash": "0x7bf506ab53d6b9633e10b6d7b82f6de4c203247ab6d6c0c19a5b35a8e2e6d202",
      "transactionIndex": "0x1",
      "blockHash": "0xf364f32cb9eaa055376f6f5296c943de9409c2320df569e2c2ba3e51906cc82d",
      "blockNumber": "0x3a4b00b",
      "gasUsed": "0xcf33",
      "effectiveGasPrice": "0x5f5e100",
      "from": "0xc3ca11bd8e131471904dced927b3fb7edb453179",
      "to": "0xe912f7c7a59470a6e3f178388106e3caa9e6fbd1",
      "contractAddress": null
    },
    {
      "status": "0x1",
      "cumulativeGasUsed": "0xd44e",
      "logs": [],
      "logsBloom": "0x00000000000000000000000000000000000000000000000000000000000000000000000000000000000000000000000000000000000000000000000000000000000000000000000000000000000000000000000000000000000000000000000000000000000000000000000000000000000000000000000000000000000000000000000000000000000000000000000000000000000000000000000000000000000000000000000000000000000000000000000000000000000000000000000000000000000000000000000000000000000000000000000000000000000000000000000000000000000000000000000000000000000000000000000000000000",
      "type": "0x0",
      "transactionHash": "0x24a13ded1cfe5b0a5cc9c01aa4c8167addc7549c4ff9ac4b1541f4250ed345ad",
      "transactionIndex": "0x0",
      "blockHash": "0xd0f56f4dd84f0d5589d26d153a6f0bb47e8fea3f86517a0acab51964831512fc",
      "blockNumber": "0x3a4b010",
      "gasUsed": "0xd44e",
      "effectiveGasPrice": "0x5f5e100",
      "from": "0xc3ca11bd8e131471904dced927b3fb7edb453179",
      "to": "0xe912f7c7a59470a6e3f178388106e3caa9e6fbd1",
      "contractAddress": null
    },
    {
      "status": "0x1",
      "cumulativeGasUsed": "0xd324",
      "logs": [],
      "logsBloom": "0x00000000000000000000000000000000000000000000000000000000000000000000000000000000000000000000000000000000000000000000000000000000000000000000000000000000000000000000000000000000000000000000000000000000000000000000000000000000000000000000000000000000000000000000000000000000000000000000000000000000000000000000000000000000000000000000000000000000000000000000000000000000000000000000000000000000000000000000000000000000000000000000000000000000000000000000000000000000000000000000000000000000000000000000000000000000",
      "type": "0x0",
      "transactionHash": "0xaa80e56b2e9e790fdc576afce6f578133d7052248d2d27aae12fae1bcfbe07eb",
      "transactionIndex": "0x0",
      "blockHash": "0xdea89c32c4d05aaad72e06903072b7936af7c6cf056a6c63a594f508ba044d88",
      "blockNumber": "0x3a4b014",
      "gasUsed": "0xd324",
      "effectiveGasPrice": "0x5f5e100",
      "from": "0xc3ca11bd8e131471904dced927b3fb7edb453179",
      "to": "0xe912f7c7a59470a6e3f178388106e3caa9e6fbd1",
      "contractAddress": null
    },
    {
      "status": "0x1",
      "cumulativeGasUsed": "0x188b2",
      "logs": [],
      "logsBloom": "0x00000000000000000000000000000000000000000000000000000000000000000000000000000000000000000000000000000000000000000000000000000000000000000000000000000000000000000000000000000000000000000000000000000000000000000000000000000000000000000000000000000000000000000000000000000000000000000000000000000000000000000000000000000000000000000000000000000000000000000000000000000000000000000000000000000000000000000000000000000000000000000000000000000000000000000000000000000000000000000000000000000000000000000000000000000000",
      "type": "0x0",
      "transactionHash": "0xd4b85700f0a6a81ab155ee5fc95f8fb76e0387e1e7878b2739ab2ad143cbba45",
      "transactionIndex": "0x1",
      "blockHash": "0xf130739f305a7539bcd8f978142a158ea59fdb5057c20c442bf9cf5ccfdd465a",
      "blockNumber": "0x3a4b019",
      "gasUsed": "0xd228",
      "effectiveGasPrice": "0x5f5e100",
      "from": "0xc3ca11bd8e131471904dced927b3fb7edb453179",
      "to": "0xe912f7c7a59470a6e3f178388106e3caa9e6fbd1",
      "contractAddress": null
    },
    {
      "status": "0x1",
      "cumulativeGasUsed": "0x3f86d",
      "logs": [],
      "logsBloom": "0x00000000000000000000000000000000000000000000000000000000000000000000000000000000000000000000000000000000000000000000000000000000000000000000000000000000000000000000000000000000000000000000000000000000000000000000000000000000000000000000000000000000000000000000000000000000000000000000000000000000000000000000000000000000000000000000000000000000000000000000000000000000000000000000000000000000000000000000000000000000000000000000000000000000000000000000000000000000000000000000000000000000000000000000000000000000",
      "type": "0x0",
      "transactionHash": "0x081fd45a1f4244d0a09f8392bdc3364d56e2b68539280b2a8840e23c33325307",
      "transactionIndex": "0x2",
      "blockHash": "0x03a2c82332c075e2bf81b2f12bb250a85bedb04c627ce124ab895f3ddf08d281",
      "blockNumber": "0x3a4b01d",
      "gasUsed": "0xd2d8",
      "effectiveGasPrice": "0x5f5e100",
      "from": "0xc3ca11bd8e131471904dced927b3fb7edb453179",
      "to": "0xe912f7c7a59470a6e3f178388106e3caa9e6fbd1",
      "contractAddress": null
    },
    {
      "status": "0x1",
      "cumulativeGasUsed": "0x19aca",
      "logs": [],
      "logsBloom": "0x00000000000000000000000000000000000000000000000000000000000000000000000000000000000000000000000000000000000000000000000000000000000000000000000000000000000000000000000000000000000000000000000000000000000000000000000000000000000000000000000000000000000000000000000000000000000000000000000000000000000000000000000000000000000000000000000000000000000000000000000000000000000000000000000000000000000000000000000000000000000000000000000000000000000000000000000000000000000000000000000000000000000000000000000000000000",
      "type": "0x0",
      "transactionHash": "0x2a87562e423fcfa85cf71948fe7aa37a83e510dffc9ce25d9fd2af4cc0c650ec",
      "transactionIndex": "0x2",
      "blockHash": "0xadf28ae6e7b2e66d44980b00165ffdd1c417663a05b41fad38887404573bec5e",
      "blockNumber": "0x3a4b021",
      "gasUsed": "0xd04e",
      "effectiveGasPrice": "0x5f5e100",
      "from": "0xc3ca11bd8e131471904dced927b3fb7edb453179",
      "to": "0x92228b058f25bc4fb333fa296dddecbddf6496f3",
      "contractAddress": null
    },
    {
      "status": "0x1",
      "cumulativeGasUsed": "0x83bd",
      "logs": [],
      "logsBloom": "0x00000000000000000000000000000000000000000000000000000000000000000000000000000000000000000000000000000000000000000000000000000000000000000000000000000000000000000000000000000000000000000000000000000000000000000000000000000000000000000000000000000000000000000000000000000000000000000000000000000000000000000000000000000000000000000000000000000000000000000000000000000000000000000000000000000000000000000000000000000000000000000000000000000000000000000000000000000000000000000000000000000000000000000000000000000000",
      "type": "0x0",
      "transactionHash": "0xcd26cf2746b53e7989887671b634c9472b3de075a2864817fcfc20bdd3162ca5",
      "transactionIndex": "0x0",
      "blockHash": "0x9436d09988ced0e9ae0455629cb606926d383aca343c4d7fe70a273073cbcd3e",
      "blockNumber": "0x3a4b026",
      "gasUsed": "0x83bd",
      "effectiveGasPrice": "0x5f5e100",
      "from": "0xc3ca11bd8e131471904dced927b3fb7edb453179",
      "to": "0x92228b058f25bc4fb333fa296dddecbddf6496f3",
      "contractAddress": null
    },
    {
      "status": "0x1",
      "cumulativeGasUsed": "0xcf46",
      "logs": [],
      "logsBloom": "0x00000000000000000000000000000000000000000000000000000000000000000000000000000000000000000000000000000000000000000000000000000000000000000000000000000000000000000000000000000000000000000000000000000000000000000000000000000000000000000000000000000000000000000000000000000000000000000000000000000000000000000000000000000000000000000000000000000000000000000000000000000000000000000000000000000000000000000000000000000000000000000000000000000000000000000000000000000000000000000000000000000000000000000000000000000000",
      "type": "0x0",
      "transactionHash": "0xa5d59abe7724314ebcd2b596b406570fde089b2af420bf615269fbc9d9bcfec1",
      "transactionIndex": "0x0",
      "blockHash": "0x3a04f8e933953ae4b6978f3563a4cc988d1cb19c650d789113d7ba02f6672fab",
      "blockNumber": "0x3a4b02a",
      "gasUsed": "0xcf46",
      "effectiveGasPrice": "0x5f5e100",
      "from": "0xc3ca11bd8e131471904dced927b3fb7edb453179",
      "to": "0x92228b058f25bc4fb333fa296dddecbddf6496f3",
      "contractAddress": null
    },
    {
      "status": "0x1",
      "cumulativeGasUsed": "0x27fe5",
      "logs": [],
      "logsBloom": "0x00000000000000000000000000000000000000000000000000000000000000000000000000000000000000000000000000000000000000000000000000000000000000000000000000000000000000000000000000000000000000000000000000000000000000000000000000000000000000000000000000000000000000000000000000000000000000000000000000000000000000000000000000000000000000000000000000000000000000000000000000000000000000000000000000000000000000000000000000000000000000000000000000000000000000000000000000000000000000000000000000000000000000000000000000000000",
      "type": "0x0",
      "transactionHash": "0x1e6fd7a1c6e6368bec383de337911e040d397c6a75d0d9158bcb65a70a0e04ed",
      "transactionIndex": "0x2",
      "blockHash": "0x78376c1858f334e60c4f07169baff7e2ac15615883182e15e0da1faea8e4762f",
      "blockNumber": "0x3a4b02f",
      "gasUsed": "0xd029",
      "effectiveGasPrice": "0x5f5e100",
      "from": "0xc3ca11bd8e131471904dced927b3fb7edb453179",
      "to": "0x2af842c6517cf30fb3456aef485230e0dd085845",
      "contractAddress": null
    },
    {
      "status": "0x1",
      "cumulativeGasUsed": "0xfc83",
      "logs": [],
      "logsBloom": "0x00000000000000000000000000000000000000000000000000000000000000000000000000000000000000000000000000000000000000000000000000000000000000000000000000000000000000000000000000000000000000000000000000000000000000000000000000000000000000000000000000000000000000000000000000000000000000000000000000000000000000000000000000000000000000000000000000000000000000000000000000000000000000000000000000000000000000000000000000000000000000000000000000000000000000000000000000000000000000000000000000000000000000000000000000000000",
      "type": "0x0",
      "transactionHash": "0x302f765e26d92777a5904d3365ad36728dfc6d43c5b397ac2d220e73a479a937",
      "transactionIndex": "0x1",
      "blockHash": "0x66cafabb9b4e0ca96204c7ceea202c6d64eb5190ec939c397da0132151eef89c",
      "blockNumber": "0x3a4b033",
      "gasUsed": "0x8457",
      "effectiveGasPrice": "0x5f5e100",
      "from": "0xc3ca11bd8e131471904dced927b3fb7edb453179",
      "to": "0x2af842c6517cf30fb3456aef485230e0dd085845",
      "contractAddress": null
    },
    {
      "status": "0x1",
      "cumulativeGasUsed": "0x2c32a",
      "logs": [],
      "logsBloom": "0x00000000000000000000000000000000000000000000000000000000000000000000000000000000000000000000000000000000000000000000000000000000000000000000000000000000000000000000000000000000000000000000000000000000000000000000000000000000000000000000000000000000000000000000000000000000000000000000000000000000000000000000000000000000000000000000000000000000000000000000000000000000000000000000000000000000000000000000000000000000000000000000000000000000000000000000000000000000000000000000000000000000000000000000000000000000",
      "type": "0x0",
      "transactionHash": "0x153e537825bb6441050a8902c8aa370dbbf3658239c1f968ae6f11549645080d",
      "transactionIndex": "0x1",
      "blockHash": "0x4b9c922846be3f072e362ca6e5fee0e9b1f2229f9cade19cfa885455cd6f00c1",
      "blockNumber": "0x3a4b038",
      "gasUsed": "0xcf30",
      "effectiveGasPrice": "0x5f5e100",
      "from": "0xc3ca11bd8e131471904dced927b3fb7edb453179",
      "to": "0x2af842c6517cf30fb3456aef485230e0dd085845",
      "contractAddress": null
    },
    {
      "status": "0x1",
      "cumulativeGasUsed": "0xede73",
      "logs": [],
      "logsBloom": "0x00000000000000000000000000000000000000000000000000000000000000000000000000000000000000000000000000000000000000000000000000000000000000000000000000000000000000000000000000000000000000000000000000000000000000000000000000000000000000000000000000000000000000000000000000000000000000000000000000000000000000000000000000000000000000000000000000000000000000000000000000000000000000000000000000000000000000000000000000000000000000000000000000000000000000000000000000000000000000000000000000000000000000000000000000000000",
      "type": "0x0",
      "transactionHash": "0x754d9a3b470312098a8087b84ffe69895ed0f23a8f04351d81ba6a086fa98ced",
      "transactionIndex": "0x0",
      "blockHash": "0xcd0602148a2d206a60e1320bee16bf61a45684f8eb096d985416e88ea851d315",
      "blockNumber": "0x3a4b03c",
      "gasUsed": "0xede73",
      "effectiveGasPrice": "0x5f5e100",
      "from": "0xc3ca11bd8e131471904dced927b3fb7edb453179",
      "to": "0x58b610a359c870e0fc941139821a51f5aa23f14e",
      "contractAddress": null
    },
    {
      "status": "0x1",
      "cumulativeGasUsed": "0x1325ea",
      "logs": [],
      "logsBloom": "0x00000000000000000000000000000000000000000000000000000000000000000000000000000000000000000000000000000000000000000000000000000000000000000000000000000000000000000000000000000000000000000000000000000000000000000000000000000000000000000000000000000000000000000000000000000000000000000000000000000000000000000000000000000000000000000000000000000000000000000000000000000000000000000000000000000000000000000000000000000000000000000000000000000000000000000000000000000000000000000000000000000000000000000000000000000000",
      "type": "0x0",
      "transactionHash": "0x07563d8fc79c559373c9cdc29d9b0c969c5ed9e9632923e9af556ede497dc2a1",
      "transactionIndex": "0x2",
      "blockHash": "0x35e827d46519dd986bcdfab8b96abb665af8dd0d9920b929680ee7a67b6ff195",
      "blockNumber": "0x3a4b041",
      "gasUsed": "0x125bb6",
      "effectiveGasPrice": "0x5f5e100",
      "from": "0xc3ca11bd8e131471904dced927b3fb7edb453179",
      "to": "0x58b610a359c870e0fc941139821a51f5aa23f14e",
      "contractAddress": null
    },
    {
      "status": "0x1",
      "cumulativeGasUsed": "0xfb093",
      "logs": [],
      "logsBloom": "0x00000000000000000000000000000000000000000000000000000000000000000000000000000000000000000000000000000000000000000000000000000000000000000000000000000000000000000000000000000000000000000000000000000000000000000000000000000000000000000000000000000000000000000000000000000000000000000000000000000000000000000000000000000000000000000000000000000000000000000000000000000000000000000000000000000000000000000000000000000000000000000000000000000000000000000000000000000000000000000000000000000000000000000000000000000000",
      "type": "0x0",
      "transactionHash": "0x7f65d043ed3912527fa1fc3fae2211062c5d0de9c2d8f1c31c07ed8f0ea4001c",
      "transactionIndex": "0x1",
      "blockHash": "0x3d8d9cc84107b00ce4e4358f779b14368c7975662858494c5917f3928bbc534d",
      "blockNumber": "0x3a4b046",
      "gasUsed": "0xf381f",
      "effectiveGasPrice": "0x5f5e100",
      "from": "0xc3ca11bd8e131471904dced927b3fb7edb453179",
      "to": "0x58b610a359c870e0fc941139821a51f5aa23f14e",
      "contractAddress": null
    },
    {
      "status": "0x1",
      "cumulativeGasUsed": "0xf28db",
      "logs": [],
      "logsBloom": "0x00000000000000000000000000000000000000000000000000000000000000000000000000000000000000000000000000000000000000000000000000000000000000000000000000000000000000000000000000000000000000000000000000000000000000000000000000000000000000000000000000000000000000000000000000000000000000000000000000000000000000000000000000000000000000000000000000000000000000000000000000000000000000000000000000000000000000000000000000000000000000000000000000000000000000000000000000000000000000000000000000000000000000000000000000000000",
      "type": "0x0",
      "transactionHash": "0x7b58698fed6951250310d1c23342fb017745cad6bf9aaab94cd7b376eae344b4",
      "transactionIndex": "0x0",
      "blockHash": "0xce1216014f4be353690885a47f9081141cc64271400130e4bc010589309d766b",
      "blockNumber": "0x3a4b04a",
      "gasUsed": "0xf28db",
      "effectiveGasPrice": "0x5f5e100",
      "from": "0xc3ca11bd8e131471904dced927b3fb7edb453179",
      "to": "0x58b610a359c870e0fc941139821a51f5aa23f14e",
      "contractAddress": null
    }
  ],
  "libraries": [],
  "pending": [],
  "returns": {},
  "timestamp": 1754678741,
  "chain": 97,
  "commit": "5798807"
}